{
	"contracts/proposal.sol": {
		"TestProposal": {
			"abi": [
				{
					"inputs": [],
					"stateMutability": "nonpayable",
					"type": "constructor"
				},
				{
					"inputs": [
						{
							"internalType": "uint256",
							"name": "_proposalId",
							"type": "uint256"
						},
						{
							"internalType": "uint256",
							"name": "_proposalStatus",
							"type": "uint256"
						},
						{
							"internalType": "address",
							"name": "_proposalCreator",
							"type": "address"
						},
						{
							"internalType": "uint256",
							"name": "_proposalNumOfOptions",
							"type": "uint256"
						}
					],
					"name": "addProposal",
					"outputs": [],
					"stateMutability": "nonpayable",
					"type": "function"
				},
				{
					"inputs": [
						{
							"internalType": "uint256",
							"name": "_proposalId",
							"type": "uint256"
						}
					],
					"name": "getProposalStructure",
					"outputs": [
						{
							"components": [
								{
									"internalType": "uint256",
									"name": "proposalId",
									"type": "uint256"
								},
								{
									"internalType": "uint256",
									"name": "proposalStatus",
									"type": "uint256"
								},
								{
									"internalType": "address",
									"name": "proposalCreator",
									"type": "address"
								},
								{
									"internalType": "uint256",
									"name": "proposalNumOfOptions",
									"type": "uint256"
								}
							],
							"internalType": "struct TestProposal.Proposal",
							"name": "",
							"type": "tuple"
						}
					],
					"stateMutability": "view",
					"type": "function"
				},
				{
					"inputs": [],
					"name": "proposalCount",
					"outputs": [
						{
							"internalType": "uint256",
							"name": "",
							"type": "uint256"
						}
					],
					"stateMutability": "view",
					"type": "function"
				},
				{
					"inputs": [
						{
							"internalType": "uint256",
							"name": "",
							"type": "uint256"
						}
					],
					"name": "proposals",
					"outputs": [
						{
							"internalType": "uint256",
							"name": "proposalId",
							"type": "uint256"
						},
						{
							"internalType": "uint256",
							"name": "proposalStatus",
							"type": "uint256"
						},
						{
							"internalType": "address",
							"name": "proposalCreator",
							"type": "address"
						},
						{
							"internalType": "uint256",
							"name": "proposalNumOfOptions",
							"type": "uint256"
						}
					],
					"stateMutability": "view",
					"type": "function"
				}
			],
			"devdoc": {
				"kind": "dev",
				"methods": {},
				"version": 1
			},
			"evm": {
				"assembly": "    /* \"contracts/proposal.sol\":229:1366  contract TestProposal {\r... */\n  mstore(0x40, 0x80)\n    /* \"contracts/proposal.sol\":776:908  constructor() public {\r... */\n  callvalue\n  dup1\n  iszero\n  tag_1\n  jumpi\n  0x00\n  dup1\n  revert\ntag_1:\n  pop\n    /* \"contracts/proposal.sol\":824:825  0 */\n  0x00\n    /* \"contracts/proposal.sol\":808:821  proposalCount */\n  0x01\n    /* \"contracts/proposal.sol\":808:825  proposalCount = 0 */\n  dup2\n  swap1\n  sstore\n  pop\n    /* \"contracts/proposal.sol\":836:900  addProposal(1, 1, 0xB5dea2661dfa4b8f0aaE8Bc1F583369D927c3b06, 3) */\n  tag_4\n    /* \"contracts/proposal.sol\":848:849  1 */\n  0x01\n    /* \"contracts/proposal.sol\":851:852  1 */\n  dup1\n    /* \"contracts/proposal.sol\":854:896  0xB5dea2661dfa4b8f0aaE8Bc1F583369D927c3b06 */\n  0xb5dea2661dfa4b8f0aae8bc1f583369d927c3b06\n    /* \"contracts/proposal.sol\":898:899  3 */\n  0x03\n    /* \"contracts/proposal.sol\":836:847  addProposal */\n  shl(0x20, tag_5)\n    /* \"contracts/proposal.sol\":836:900  addProposal(1, 1, 0xB5dea2661dfa4b8f0aaE8Bc1F583369D927c3b06, 3) */\n  0x20\n  shr\n  jump\t// in\ntag_4:\n    /* \"contracts/proposal.sol\":229:1366  contract TestProposal {\r... */\n  jump(tag_6)\n    /* \"contracts/proposal.sol\":916:1189  function addProposal(uint _proposalId, uint _proposalStatus, address _proposalCreator, uint _proposalNumOfOptions) public {\r... */\ntag_5:\n    /* \"contracts/proposal.sol\":1076:1155  Proposal(_proposalId, _proposalStatus, _proposalCreator, _proposalNumOfOptions) */\n  mload(0x40)\n  dup1\n  0x80\n  add\n  0x40\n  mstore\n  dup1\n    /* \"contracts/proposal.sol\":1085:1096  _proposalId */\n  dup6\n    /* \"contracts/proposal.sol\":1076:1155  Proposal(_proposalId, _proposalStatus, _proposalCreator, _proposalNumOfOptions) */\n  dup2\n  mstore\n  0x20\n  add\n    /* \"contracts/proposal.sol\":1098:1113  _proposalStatus */\n  dup5\n    /* \"contracts/proposal.sol\":1076:1155  Proposal(_proposalId, _proposalStatus, _proposalCreator, _proposalNumOfOptions) */\n  dup2\n  mstore\n  0x20\n  add\n    /* \"contracts/proposal.sol\":1115:1131  _proposalCreator */\n  dup4\n    /* \"contracts/proposal.sol\":1076:1155  Proposal(_proposalId, _proposalStatus, _proposalCreator, _proposalNumOfOptions) */\n  0xffffffffffffffffffffffffffffffffffffffff\n  and\n  dup2\n  mstore\n  0x20\n  add\n    /* \"contracts/proposal.sol\":1133:1154  _proposalNumOfOptions */\n  dup3\n    /* \"contracts/proposal.sol\":1076:1155  Proposal(_proposalId, _proposalStatus, _proposalCreator, _proposalNumOfOptions) */\n  dup2\n  mstore\n  pop\n    /* \"contracts/proposal.sol\":1049:1058  proposals */\n  0x00\n    /* \"contracts/proposal.sol\":1049:1073  proposals[proposalCount] */\n  dup1\n    /* \"contracts/proposal.sol\":1059:1072  proposalCount */\n  sload(0x01)\n    /* \"contracts/proposal.sol\":1049:1073  proposals[proposalCount] */\n  dup2\n  mstore\n  0x20\n  add\n  swap1\n  dup2\n  mstore\n  0x20\n  add\n  0x00\n  keccak256\n    /* \"contracts/proposal.sol\":1049:1155  proposals[proposalCount] = Proposal(_proposalId, _proposalStatus, _proposalCreator, _proposalNumOfOptions) */\n  0x00\n  dup3\n  add\n  mload\n  dup2\n  0x00\n  add\n  sstore\n  0x20\n  dup3\n  add\n  mload\n  dup2\n  0x01\n  add\n  sstore\n  0x40\n  dup3\n  add\n  mload\n  dup2\n  0x02\n  add\n  exp(0x0100, 0x00)\n  dup2\n  sload\n  dup2\n  0xffffffffffffffffffffffffffffffffffffffff\n  mul\n  not\n  and\n  swap1\n  dup4\n  0xffffffffffffffffffffffffffffffffffffffff\n  and\n  mul\n  or\n  swap1\n  sstore\n  pop\n  0x60\n  dup3\n  add\n  mload\n  dup2\n  0x03\n  add\n  sstore\n  swap1\n  pop\n  pop\n    /* \"contracts/proposal.sol\":1166:1179  proposalCount */\n  0x01\n  0x00\n    /* \"contracts/proposal.sol\":1166:1181  proposalCount++ */\n  dup2\n  sload\n  dup1\n  swap3\n  swap2\n  swap1\n  tag_8\n  swap1\n  tag_9\n  jump\t// in\ntag_8:\n  swap2\n  swap1\n  pop\n  sstore\n  pop\n    /* \"contracts/proposal.sol\":916:1189  function addProposal(uint _proposalId, uint _proposalStatus, address _proposalCreator, uint _proposalNumOfOptions) public {\r... */\n  pop\n  pop\n  pop\n  pop\n  jump\t// out\n    /* \"#utility.yul\":7:84   */\ntag_11:\n  0x00\n    /* \"#utility.yul\":73:78   */\n  dup2\n    /* \"#utility.yul\":62:78   */\n  swap1\n  pop\n    /* \"#utility.yul\":52:84   */\n  swap2\n  swap1\n  pop\n  jump\t// out\n    /* \"#utility.yul\":90:323   */\ntag_9:\n  0x00\n    /* \"#utility.yul\":152:176   */\n  tag_14\n    /* \"#utility.yul\":170:175   */\n  dup3\n    /* \"#utility.yul\":152:176   */\n  tag_11\n  jump\t// in\ntag_14:\n    /* \"#utility.yul\":143:176   */\n  swap2\n  pop\n    /* \"#utility.yul\":198:264   */\n  0xffffffffffffffffffffffffffffffffffffffffffffffffffffffffffffffff\n    /* \"#utility.yul\":191:196   */\n  dup3\n    /* \"#utility.yul\":188:265   */\n  eq\n    /* \"#utility.yul\":185:187   */\n  iszero\n  tag_15\n  jumpi\n    /* \"#utility.yul\":268:286   */\n  tag_16\n  tag_17\n  jump\t// in\ntag_16:\n    /* \"#utility.yul\":185:187   */\ntag_15:\n    /* \"#utility.yul\":315:316   */\n  0x01\n    /* \"#utility.yul\":308:313   */\n  dup3\n    /* \"#utility.yul\":304:317   */\n  add\n    /* \"#utility.yul\":297:317   */\n  swap1\n  pop\n    /* \"#utility.yul\":133:323   */\n  swap2\n  swap1\n  pop\n  jump\t// out\n    /* \"#utility.yul\":329:509   */\ntag_17:\n    /* \"#utility.yul\":377:454   */\n  0x4e487b7100000000000000000000000000000000000000000000000000000000\n    /* \"#utility.yul\":374:375   */\n  0x00\n    /* \"#utility.yul\":367:455   */\n  mstore\n    /* \"#utility.yul\":474:478   */\n  0x11\n    /* \"#utility.yul\":471:472   */\n  0x04\n    /* \"#utility.yul\":464:479   */\n  mstore\n    /* \"#utility.yul\":498:502   */\n  0x24\n    /* \"#utility.yul\":495:496   */\n  0x00\n    /* \"#utility.yul\":488:503   */\n  revert\n    /* \"contracts/proposal.sol\":229:1366  contract TestProposal {\r... */\ntag_6:\n  dataSize(sub_0)\n  dup1\n  dataOffset(sub_0)\n  0x00\n  codecopy\n  0x00\n  return\nstop\n\nsub_0: assembly {\n        /* \"contracts/proposal.sol\":229:1366  contract TestProposal {\r... */\n      mstore(0x40, 0x80)\n      callvalue\n      dup1\n      iszero\n      tag_1\n      jumpi\n      0x00\n      dup1\n      revert\n    tag_1:\n      pop\n      jumpi(tag_2, lt(calldatasize, 0x04))\n      shr(0xe0, calldataload(0x00))\n      dup1\n      0x013cf08b\n      eq\n      tag_3\n      jumpi\n      dup1\n      0xcae455ee\n      eq\n      tag_4\n      jumpi\n      dup1\n      0xda35c664\n      eq\n      tag_5\n      jumpi\n      dup1\n      0xe9d6c6da\n      eq\n      tag_6\n      jumpi\n    tag_2:\n      0x00\n      dup1\n      revert\n        /* \"contracts/proposal.sol\":639:682  mapping (uint => Proposal) public proposals */\n    tag_3:\n      tag_7\n      0x04\n      dup1\n      calldatasize\n      sub\n      dup2\n      add\n      swap1\n      tag_8\n      swap2\n      swap1\n      tag_9\n      jump\t// in\n    tag_8:\n      tag_10\n      jump\t// in\n    tag_7:\n      mload(0x40)\n      tag_11\n      swap5\n      swap4\n      swap3\n      swap2\n      swap1\n      tag_12\n      jump\t// in\n    tag_11:\n      mload(0x40)\n      dup1\n      swap2\n      sub\n      swap1\n      return\n        /* \"contracts/proposal.sol\":916:1189  function addProposal(uint _proposalId, uint _proposalStatus, address _proposalCreator, uint _proposalNumOfOptions) public {\r... */\n    tag_4:\n      tag_13\n      0x04\n      dup1\n      calldatasize\n      sub\n      dup2\n      add\n      swap1\n      tag_14\n      swap2\n      swap1\n      tag_15\n      jump\t// in\n    tag_14:\n      tag_16\n      jump\t// in\n    tag_13:\n      stop\n        /* \"contracts/proposal.sol\":742:767  uint public proposalCount */\n    tag_5:\n      tag_17\n      tag_18\n      jump\t// in\n    tag_17:\n      mload(0x40)\n      tag_19\n      swap2\n      swap1\n      tag_20\n      jump\t// in\n    tag_19:\n      mload(0x40)\n      dup1\n      swap2\n      sub\n      swap1\n      return\n        /* \"contracts/proposal.sol\":1197:1329  function getProposalStructure(uint _proposalId) public view returns(Proposal memory){\r... */\n    tag_6:\n      tag_21\n      0x04\n      dup1\n      calldatasize\n      sub\n      dup2\n      add\n      swap1\n      tag_22\n      swap2\n      swap1\n      tag_9\n      jump\t// in\n    tag_22:\n      tag_23\n      jump\t// in\n    tag_21:\n      mload(0x40)\n      tag_24\n      swap2\n      swap1\n      tag_25\n      jump\t// in\n    tag_24:\n      mload(0x40)\n      dup1\n      swap2\n      sub\n      swap1\n      return\n        /* \"contracts/proposal.sol\":639:682  mapping (uint => Proposal) public proposals */\n    tag_10:\n      mstore(0x20, 0x00)\n      dup1\n      0x00\n      mstore\n      keccak256(0x00, 0x40)\n      0x00\n      swap2\n      pop\n      swap1\n      pop\n      dup1\n      0x00\n      add\n      sload\n      swap1\n      dup1\n      0x01\n      add\n      sload\n      swap1\n      dup1\n      0x02\n      add\n      0x00\n      swap1\n      sload\n      swap1\n      0x0100\n      exp\n      swap1\n      div\n      0xffffffffffffffffffffffffffffffffffffffff\n      and\n      swap1\n      dup1\n      0x03\n      add\n      sload\n      swap1\n      pop\n      dup5\n      jump\t// out\n        /* \"contracts/proposal.sol\":916:1189  function addProposal(uint _proposalId, uint _proposalStatus, address _proposalCreator, uint _proposalNumOfOptions) public {\r... */\n    tag_16:\n        /* \"contracts/proposal.sol\":1076:1155  Proposal(_proposalId, _proposalStatus, _proposalCreator, _proposalNumOfOptions) */\n      mload(0x40)\n      dup1\n      0x80\n      add\n      0x40\n      mstore\n      dup1\n        /* \"contracts/proposal.sol\":1085:1096  _proposalId */\n      dup6\n        /* \"contracts/proposal.sol\":1076:1155  Proposal(_proposalId, _proposalStatus, _proposalCreator, _proposalNumOfOptions) */\n      dup2\n      mstore\n      0x20\n      add\n        /* \"contracts/proposal.sol\":1098:1113  _proposalStatus */\n      dup5\n        /* \"contracts/proposal.sol\":1076:1155  Proposal(_proposalId, _proposalStatus, _proposalCreator, _proposalNumOfOptions) */\n      dup2\n      mstore\n      0x20\n      add\n        /* \"contracts/proposal.sol\":1115:1131  _proposalCreator */\n      dup4\n        /* \"contracts/proposal.sol\":1076:1155  Proposal(_proposalId, _proposalStatus, _proposalCreator, _proposalNumOfOptions) */\n      0xffffffffffffffffffffffffffffffffffffffff\n      and\n      dup2\n      mstore\n      0x20\n      add\n        /* \"contracts/proposal.sol\":1133:1154  _proposalNumOfOptions */\n      dup3\n        /* \"contracts/proposal.sol\":1076:1155  Proposal(_proposalId, _proposalStatus, _proposalCreator, _proposalNumOfOptions) */\n      dup2\n      mstore\n      pop\n        /* \"contracts/proposal.sol\":1049:1058  proposals */\n      0x00\n        /* \"contracts/proposal.sol\":1049:1073  proposals[proposalCount] */\n      dup1\n        /* \"contracts/proposal.sol\":1059:1072  proposalCount */\n      sload(0x01)\n        /* \"contracts/proposal.sol\":1049:1073  proposals[proposalCount] */\n      dup2\n      mstore\n      0x20\n      add\n      swap1\n      dup2\n      mstore\n      0x20\n      add\n      0x00\n      keccak256\n        /* \"contracts/proposal.sol\":1049:1155  proposals[proposalCount] = Proposal(_proposalId, _proposalStatus, _proposalCreator, _proposalNumOfOptions) */\n      0x00\n      dup3\n      add\n      mload\n      dup2\n      0x00\n      add\n      sstore\n      0x20\n      dup3\n      add\n      mload\n      dup2\n      0x01\n      add\n      sstore\n      0x40\n      dup3\n      add\n      mload\n      dup2\n      0x02\n      add\n      exp(0x0100, 0x00)\n      dup2\n      sload\n      dup2\n      0xffffffffffffffffffffffffffffffffffffffff\n      mul\n      not\n      and\n      swap1\n      dup4\n      0xffffffffffffffffffffffffffffffffffffffff\n      and\n      mul\n      or\n      swap1\n      sstore\n      pop\n      0x60\n      dup3\n      add\n      mload\n      dup2\n      0x03\n      add\n      sstore\n      swap1\n      pop\n      pop\n        /* \"contracts/proposal.sol\":1166:1179  proposalCount */\n      0x01\n      0x00\n        /* \"contracts/proposal.sol\":1166:1181  proposalCount++ */\n      dup2\n      sload\n      dup1\n      swap3\n      swap2\n      swap1\n      tag_27\n      swap1\n      tag_28\n      jump\t// in\n    tag_27:\n      swap2\n      swap1\n      pop\n      sstore\n      pop\n        /* \"contracts/proposal.sol\":916:1189  function addProposal(uint _proposalId, uint _proposalStatus, address _proposalCreator, uint _proposalNumOfOptions) public {\r... */\n      pop\n      pop\n      pop\n      pop\n      jump\t// out\n        /* \"contracts/proposal.sol\":742:767  uint public proposalCount */\n    tag_18:\n      sload(0x01)\n      dup2\n      jump\t// out\n        /* \"contracts/proposal.sol\":1197:1329  function getProposalStructure(uint _proposalId) public view returns(Proposal memory){\r... */\n    tag_23:\n        /* \"contracts/proposal.sol\":1265:1280  Proposal memory */\n      tag_29\n      tag_30\n      jump\t// in\n    tag_29:\n        /* \"contracts/proposal.sol\":1299:1308  proposals */\n      0x00\n        /* \"contracts/proposal.sol\":1299:1321  proposals[_proposalId] */\n      dup1\n        /* \"contracts/proposal.sol\":1309:1320  _proposalId */\n      dup4\n        /* \"contracts/proposal.sol\":1299:1321  proposals[_proposalId] */\n      dup2\n      mstore\n      0x20\n      add\n      swap1\n      dup2\n      mstore\n      0x20\n      add\n      0x00\n      keccak256\n        /* \"contracts/proposal.sol\":1292:1321  return proposals[_proposalId] */\n      mload(0x40)\n      dup1\n      0x80\n      add\n      0x40\n      mstore\n      swap1\n      dup2\n      0x00\n      dup3\n      add\n      sload\n      dup2\n      mstore\n      0x20\n      add\n      0x01\n      dup3\n      add\n      sload\n      dup2\n      mstore\n      0x20\n      add\n      0x02\n      dup3\n      add\n      0x00\n      swap1\n      sload\n      swap1\n      0x0100\n      exp\n      swap1\n      div\n      0xffffffffffffffffffffffffffffffffffffffff\n      and\n      0xffffffffffffffffffffffffffffffffffffffff\n      and\n      0xffffffffffffffffffffffffffffffffffffffff\n      and\n      dup2\n      mstore\n      0x20\n      add\n      0x03\n      dup3\n      add\n      sload\n      dup2\n      mstore\n      pop\n      pop\n      swap1\n      pop\n        /* \"contracts/proposal.sol\":1197:1329  function getProposalStructure(uint _proposalId) public view returns(Proposal memory){\r... */\n      swap2\n      swap1\n      pop\n      jump\t// out\n    tag_30:\n      mload(0x40)\n      dup1\n      0x80\n      add\n      0x40\n      mstore\n      dup1\n      0x00\n      dup2\n      mstore\n      0x20\n      add\n      0x00\n      dup2\n      mstore\n      0x20\n      add\n      and(0xffffffffffffffffffffffffffffffffffffffff, 0x00)\n      dup2\n      mstore\n      0x20\n      add\n      0x00\n      dup2\n      mstore\n      pop\n      swap1\n      jump\t// out\n        /* \"#utility.yul\":7:146   */\n    tag_33:\n      0x00\n        /* \"#utility.yul\":91:97   */\n      dup2\n        /* \"#utility.yul\":78:98   */\n      calldataload\n        /* \"#utility.yul\":69:98   */\n      swap1\n      pop\n        /* \"#utility.yul\":107:140   */\n      tag_35\n        /* \"#utility.yul\":134:139   */\n      dup2\n        /* \"#utility.yul\":107:140   */\n      tag_36\n      jump\t// in\n    tag_35:\n        /* \"#utility.yul\":59:146   */\n      swap3\n      swap2\n      pop\n      pop\n      jump\t// out\n        /* \"#utility.yul\":152:291   */\n    tag_37:\n      0x00\n        /* \"#utility.yul\":236:242   */\n      dup2\n        /* \"#utility.yul\":223:243   */\n      calldataload\n        /* \"#utility.yul\":214:243   */\n      swap1\n      pop\n        /* \"#utility.yul\":252:285   */\n      tag_39\n        /* \"#utility.yul\":279:284   */\n      dup2\n        /* \"#utility.yul\":252:285   */\n      tag_40\n      jump\t// in\n    tag_39:\n        /* \"#utility.yul\":204:291   */\n      swap3\n      swap2\n      pop\n      pop\n      jump\t// out\n        /* \"#utility.yul\":297:559   */\n    tag_9:\n      0x00\n        /* \"#utility.yul\":405:407   */\n      0x20\n        /* \"#utility.yul\":393:402   */\n      dup3\n        /* \"#utility.yul\":384:391   */\n      dup5\n        /* \"#utility.yul\":380:403   */\n      sub\n        /* \"#utility.yul\":376:408   */\n      slt\n        /* \"#utility.yul\":373:375   */\n      iszero\n      tag_42\n      jumpi\n        /* \"#utility.yul\":421:422   */\n      0x00\n        /* \"#utility.yul\":418:419   */\n      dup1\n        /* \"#utility.yul\":411:423   */\n      revert\n        /* \"#utility.yul\":373:375   */\n    tag_42:\n        /* \"#utility.yul\":464:465   */\n      0x00\n        /* \"#utility.yul\":489:542   */\n      tag_43\n        /* \"#utility.yul\":534:541   */\n      dup5\n        /* \"#utility.yul\":525:531   */\n      dup3\n        /* \"#utility.yul\":514:523   */\n      dup6\n        /* \"#utility.yul\":510:532   */\n      add\n        /* \"#utility.yul\":489:542   */\n      tag_37\n      jump\t// in\n    tag_43:\n        /* \"#utility.yul\":479:542   */\n      swap2\n      pop\n        /* \"#utility.yul\":435:552   */\n      pop\n        /* \"#utility.yul\":363:559   */\n      swap3\n      swap2\n      pop\n      pop\n      jump\t// out\n        /* \"#utility.yul\":565:1263   */\n    tag_15:\n      0x00\n      dup1\n      0x00\n      dup1\n        /* \"#utility.yul\":724:727   */\n      0x80\n        /* \"#utility.yul\":712:721   */\n      dup6\n        /* \"#utility.yul\":703:710   */\n      dup8\n        /* \"#utility.yul\":699:722   */\n      sub\n        /* \"#utility.yul\":695:728   */\n      slt\n        /* \"#utility.yul\":692:694   */\n      iszero\n      tag_45\n      jumpi\n        /* \"#utility.yul\":741:742   */\n      0x00\n        /* \"#utility.yul\":738:739   */\n      dup1\n        /* \"#utility.yul\":731:743   */\n      revert\n        /* \"#utility.yul\":692:694   */\n    tag_45:\n        /* \"#utility.yul\":784:785   */\n      0x00\n        /* \"#utility.yul\":809:862   */\n      tag_46\n        /* \"#utility.yul\":854:861   */\n      dup8\n        /* \"#utility.yul\":845:851   */\n      dup3\n        /* \"#utility.yul\":834:843   */\n      dup9\n        /* \"#utility.yul\":830:852   */\n      add\n        /* \"#utility.yul\":809:862   */\n      tag_37\n      jump\t// in\n    tag_46:\n        /* \"#utility.yul\":799:862   */\n      swap5\n      pop\n        /* \"#utility.yul\":755:872   */\n      pop\n        /* \"#utility.yul\":911:913   */\n      0x20\n        /* \"#utility.yul\":937:990   */\n      tag_47\n        /* \"#utility.yul\":982:989   */\n      dup8\n        /* \"#utility.yul\":973:979   */\n      dup3\n        /* \"#utility.yul\":962:971   */\n      dup9\n        /* \"#utility.yul\":958:980   */\n      add\n        /* \"#utility.yul\":937:990   */\n      tag_37\n      jump\t// in\n    tag_47:\n        /* \"#utility.yul\":927:990   */\n      swap4\n      pop\n        /* \"#utility.yul\":882:1000   */\n      pop\n        /* \"#utility.yul\":1039:1041   */\n      0x40\n        /* \"#utility.yul\":1065:1118   */\n      tag_48\n        /* \"#utility.yul\":1110:1117   */\n      dup8\n        /* \"#utility.yul\":1101:1107   */\n      dup3\n        /* \"#utility.yul\":1090:1099   */\n      dup9\n        /* \"#utility.yul\":1086:1108   */\n      add\n        /* \"#utility.yul\":1065:1118   */\n      tag_33\n      jump\t// in\n    tag_48:\n        /* \"#utility.yul\":1055:1118   */\n      swap3\n      pop\n        /* \"#utility.yul\":1010:1128   */\n      pop\n        /* \"#utility.yul\":1167:1169   */\n      0x60\n        /* \"#utility.yul\":1193:1246   */\n      tag_49\n        /* \"#utility.yul\":1238:1245   */\n      dup8\n        /* \"#utility.yul\":1229:1235   */\n      dup3\n        /* \"#utility.yul\":1218:1227   */\n      dup9\n        /* \"#utility.yul\":1214:1236   */\n      add\n        /* \"#utility.yul\":1193:1246   */\n      tag_37\n      jump\t// in\n    tag_49:\n        /* \"#utility.yul\":1183:1246   */\n      swap2\n      pop\n        /* \"#utility.yul\":1138:1256   */\n      pop\n        /* \"#utility.yul\":682:1263   */\n      swap3\n      swap6\n      swap2\n      swap5\n      pop\n      swap3\n      pop\n      jump\t// out\n        /* \"#utility.yul\":1269:1377   */\n    tag_50:\n        /* \"#utility.yul\":1346:1370   */\n      tag_52\n        /* \"#utility.yul\":1364:1369   */\n      dup2\n        /* \"#utility.yul\":1346:1370   */\n      tag_53\n      jump\t// in\n    tag_52:\n        /* \"#utility.yul\":1341:1344   */\n      dup3\n        /* \"#utility.yul\":1334:1371   */\n      mstore\n        /* \"#utility.yul\":1324:1377   */\n      pop\n      pop\n      jump\t// out\n        /* \"#utility.yul\":1383:1501   */\n    tag_54:\n        /* \"#utility.yul\":1470:1494   */\n      tag_56\n        /* \"#utility.yul\":1488:1493   */\n      dup2\n        /* \"#utility.yul\":1470:1494   */\n      tag_53\n      jump\t// in\n    tag_56:\n        /* \"#utility.yul\":1465:1468   */\n      dup3\n        /* \"#utility.yul\":1458:1495   */\n      mstore\n        /* \"#utility.yul\":1448:1501   */\n      pop\n      pop\n      jump\t// out\n        /* \"#utility.yul\":1575:2471   */\n    tag_57:\n        /* \"#utility.yul\":1720:1724   */\n      0x80\n        /* \"#utility.yul\":1715:1718   */\n      dup3\n        /* \"#utility.yul\":1711:1725   */\n      add\n        /* \"#utility.yul\":1813:1817   */\n      0x00\n        /* \"#utility.yul\":1806:1811   */\n      dup3\n        /* \"#utility.yul\":1802:1818   */\n      add\n        /* \"#utility.yul\":1796:1819   */\n      mload\n        /* \"#utility.yul\":1832:1895   */\n      tag_59\n        /* \"#utility.yul\":1889:1893   */\n      0x00\n        /* \"#utility.yul\":1884:1887   */\n      dup6\n        /* \"#utility.yul\":1880:1894   */\n      add\n        /* \"#utility.yul\":1866:1878   */\n      dup3\n        /* \"#utility.yul\":1832:1895   */\n      tag_60\n      jump\t// in\n    tag_59:\n        /* \"#utility.yul\":1735:1905   */\n      pop\n        /* \"#utility.yul\":1997:2001   */\n      0x20\n        /* \"#utility.yul\":1990:1995   */\n      dup3\n        /* \"#utility.yul\":1986:2002   */\n      add\n        /* \"#utility.yul\":1980:2003   */\n      mload\n        /* \"#utility.yul\":2016:2079   */\n      tag_61\n        /* \"#utility.yul\":2073:2077   */\n      0x20\n        /* \"#utility.yul\":2068:2071   */\n      dup6\n        /* \"#utility.yul\":2064:2078   */\n      add\n        /* \"#utility.yul\":2050:2062   */\n      dup3\n        /* \"#utility.yul\":2016:2079   */\n      tag_60\n      jump\t// in\n    tag_61:\n        /* \"#utility.yul\":1915:2089   */\n      pop\n        /* \"#utility.yul\":2182:2186   */\n      0x40\n        /* \"#utility.yul\":2175:2180   */\n      dup3\n        /* \"#utility.yul\":2171:2187   */\n      add\n        /* \"#utility.yul\":2165:2188   */\n      mload\n        /* \"#utility.yul\":2201:2264   */\n      tag_62\n        /* \"#utility.yul\":2258:2262   */\n      0x40\n        /* \"#utility.yul\":2253:2256   */\n      dup6\n        /* \"#utility.yul\":2249:2263   */\n      add\n        /* \"#utility.yul\":2235:2247   */\n      dup3\n        /* \"#utility.yul\":2201:2264   */\n      tag_50\n      jump\t// in\n    tag_62:\n        /* \"#utility.yul\":2099:2274   */\n      pop\n        /* \"#utility.yul\":2372:2376   */\n      0x60\n        /* \"#utility.yul\":2365:2370   */\n      dup3\n        /* \"#utility.yul\":2361:2377   */\n      add\n        /* \"#utility.yul\":2355:2378   */\n      mload\n        /* \"#utility.yul\":2391:2454   */\n      tag_63\n        /* \"#utility.yul\":2448:2452   */\n      0x60\n        /* \"#utility.yul\":2443:2446   */\n      dup6\n        /* \"#utility.yul\":2439:2453   */\n      add\n        /* \"#utility.yul\":2425:2437   */\n      dup3\n        /* \"#utility.yul\":2391:2454   */\n      tag_60\n      jump\t// in\n    tag_63:\n        /* \"#utility.yul\":2284:2464   */\n      pop\n        /* \"#utility.yul\":1689:2471   */\n      pop\n      pop\n      pop\n      jump\t// out\n        /* \"#utility.yul\":2477:2585   */\n    tag_60:\n        /* \"#utility.yul\":2554:2578   */\n      tag_65\n        /* \"#utility.yul\":2572:2577   */\n      dup2\n        /* \"#utility.yul\":2554:2578   */\n      tag_66\n      jump\t// in\n    tag_65:\n        /* \"#utility.yul\":2549:2552   */\n      dup3\n        /* \"#utility.yul\":2542:2579   */\n      mstore\n        /* \"#utility.yul\":2532:2585   */\n      pop\n      pop\n      jump\t// out\n        /* \"#utility.yul\":2591:2709   */\n    tag_67:\n        /* \"#utility.yul\":2678:2702   */\n      tag_69\n        /* \"#utility.yul\":2696:2701   */\n      dup2\n        /* \"#utility.yul\":2678:2702   */\n      tag_66\n      jump\t// in\n    tag_69:\n        /* \"#utility.yul\":2673:2676   */\n      dup3\n        /* \"#utility.yul\":2666:2703   */\n      mstore\n        /* \"#utility.yul\":2656:2709   */\n      pop\n      pop\n      jump\t// out\n        /* \"#utility.yul\":2715:3034   */\n    tag_25:\n      0x00\n        /* \"#utility.yul\":2894:2897   */\n      0x80\n        /* \"#utility.yul\":2883:2892   */\n      dup3\n        /* \"#utility.yul\":2879:2898   */\n      add\n        /* \"#utility.yul\":2871:2898   */\n      swap1\n      pop\n        /* \"#utility.yul\":2908:3027   */\n      tag_71\n        /* \"#utility.yul\":3024:3025   */\n      0x00\n        /* \"#utility.yul\":3013:3022   */\n      dup4\n        /* \"#utility.yul\":3009:3026   */\n      add\n        /* \"#utility.yul\":3000:3006   */\n      dup5\n        /* \"#utility.yul\":2908:3027   */\n      tag_57\n      jump\t// in\n    tag_71:\n        /* \"#utility.yul\":2861:3034   */\n      swap3\n      swap2\n      pop\n      pop\n      jump\t// out\n        /* \"#utility.yul\":3040:3262   */\n    tag_20:\n      0x00\n        /* \"#utility.yul\":3171:3173   */\n      0x20\n        /* \"#utility.yul\":3160:3169   */\n      dup3\n        /* \"#utility.yul\":3156:3174   */\n      add\n        /* \"#utility.yul\":3148:3174   */\n      swap1\n      pop\n        /* \"#utility.yul\":3184:3255   */\n      tag_73\n        /* \"#utility.yul\":3252:3253   */\n      0x00\n        /* \"#utility.yul\":3241:3250   */\n      dup4\n        /* \"#utility.yul\":3237:3254   */\n      add\n        /* \"#utility.yul\":3228:3234   */\n      dup5\n        /* \"#utility.yul\":3184:3255   */\n      tag_67\n      jump\t// in\n    tag_73:\n        /* \"#utility.yul\":3138:3262   */\n      swap3\n      swap2\n      pop\n      pop\n      jump\t// out\n        /* \"#utility.yul\":3268:3821   */\n    tag_12:\n      0x00\n        /* \"#utility.yul\":3483:3486   */\n      0x80\n        /* \"#utility.yul\":3472:3481   */\n      dup3\n        /* \"#utility.yul\":3468:3487   */\n      add\n        /* \"#utility.yul\":3460:3487   */\n      swap1\n      pop\n        /* \"#utility.yul\":3497:3568   */\n      tag_75\n        /* \"#utility.yul\":3565:3566   */\n      0x00\n        /* \"#utility.yul\":3554:3563   */\n      dup4\n        /* \"#utility.yul\":3550:3567   */\n      add\n        /* \"#utility.yul\":3541:3547   */\n      dup8\n        /* \"#utility.yul\":3497:3568   */\n      tag_67\n      jump\t// in\n    tag_75:\n        /* \"#utility.yul\":3578:3650   */\n      tag_76\n        /* \"#utility.yul\":3646:3648   */\n      0x20\n        /* \"#utility.yul\":3635:3644   */\n      dup4\n        /* \"#utility.yul\":3631:3649   */\n      add\n        /* \"#utility.yul\":3622:3628   */\n      dup7\n        /* \"#utility.yul\":3578:3650   */\n      tag_67\n      jump\t// in\n    tag_76:\n        /* \"#utility.yul\":3660:3732   */\n      tag_77\n        /* \"#utility.yul\":3728:3730   */\n      0x40\n        /* \"#utility.yul\":3717:3726   */\n      dup4\n        /* \"#utility.yul\":3713:3731   */\n      add\n        /* \"#utility.yul\":3704:3710   */\n      dup6\n        /* \"#utility.yul\":3660:3732   */\n      tag_54\n      jump\t// in\n    tag_77:\n        /* \"#utility.yul\":3742:3814   */\n      tag_78\n        /* \"#utility.yul\":3810:3812   */\n      0x60\n        /* \"#utility.yul\":3799:3808   */\n      dup4\n        /* \"#utility.yul\":3795:3813   */\n      add\n        /* \"#utility.yul\":3786:3792   */\n      dup5\n        /* \"#utility.yul\":3742:3814   */\n      tag_67\n      jump\t// in\n    tag_78:\n        /* \"#utility.yul\":3450:3821   */\n      swap6\n      swap5\n      pop\n      pop\n      pop\n      pop\n      pop\n      jump\t// out\n        /* \"#utility.yul\":3827:3923   */\n    tag_53:\n      0x00\n        /* \"#utility.yul\":3893:3917   */\n      tag_80\n        /* \"#utility.yul\":3911:3916   */\n      dup3\n        /* \"#utility.yul\":3893:3917   */\n      tag_81\n      jump\t// in\n    tag_80:\n        /* \"#utility.yul\":3882:3917   */\n      swap1\n      pop\n        /* \"#utility.yul\":3872:3923   */\n      swap2\n      swap1\n      pop\n      jump\t// out\n        /* \"#utility.yul\":3929:4055   */\n    tag_81:\n      0x00\n        /* \"#utility.yul\":4006:4048   */\n      0xffffffffffffffffffffffffffffffffffffffff\n        /* \"#utility.yul\":3999:4004   */\n      dup3\n        /* \"#utility.yul\":3995:4049   */\n      and\n        /* \"#utility.yul\":3984:4049   */\n      swap1\n      pop\n        /* \"#utility.yul\":3974:4055   */\n      swap2\n      swap1\n      pop\n      jump\t// out\n        /* \"#utility.yul\":4061:4138   */\n    tag_66:\n      0x00\n        /* \"#utility.yul\":4127:4132   */\n      dup2\n        /* \"#utility.yul\":4116:4132   */\n      swap1\n      pop\n        /* \"#utility.yul\":4106:4138   */\n      swap2\n      swap1\n      pop\n      jump\t// out\n        /* \"#utility.yul\":4144:4377   */\n    tag_28:\n      0x00\n        /* \"#utility.yul\":4206:4230   */\n      tag_85\n        /* \"#utility.yul\":4224:4229   */\n      dup3\n        /* \"#utility.yul\":4206:4230   */\n      tag_66\n      jump\t// in\n    tag_85:\n        /* \"#utility.yul\":4197:4230   */\n      swap2\n      pop\n        /* \"#utility.yul\":4252:4318   */\n      0xffffffffffffffffffffffffffffffffffffffffffffffffffffffffffffffff\n        /* \"#utility.yul\":4245:4250   */\n      dup3\n        /* \"#utility.yul\":4242:4319   */\n      eq\n        /* \"#utility.yul\":4239:4241   */\n      iszero\n      tag_86\n      jumpi\n        /* \"#utility.yul\":4322:4340   */\n      tag_87\n      tag_88\n      jump\t// in\n    tag_87:\n        /* \"#utility.yul\":4239:4241   */\n    tag_86:\n        /* \"#utility.yul\":4369:4370   */\n      0x01\n        /* \"#utility.yul\":4362:4367   */\n      dup3\n        /* \"#utility.yul\":4358:4371   */\n      add\n        /* \"#utility.yul\":4351:4371   */\n      swap1\n      pop\n        /* \"#utility.yul\":4187:4377   */\n      swap2\n      swap1\n      pop\n      jump\t// out\n        /* \"#utility.yul\":4383:4563   */\n    tag_88:\n        /* \"#utility.yul\":4431:4508   */\n      0x4e487b7100000000000000000000000000000000000000000000000000000000\n        /* \"#utility.yul\":4428:4429   */\n      0x00\n        /* \"#utility.yul\":4421:4509   */\n      mstore\n        /* \"#utility.yul\":4528:4532   */\n      0x11\n        /* \"#utility.yul\":4525:4526   */\n      0x04\n        /* \"#utility.yul\":4518:4533   */\n      mstore\n        /* \"#utility.yul\":4552:4556   */\n      0x24\n        /* \"#utility.yul\":4549:4550   */\n      0x00\n        /* \"#utility.yul\":4542:4557   */\n      revert\n        /* \"#utility.yul\":4569:4691   */\n    tag_36:\n        /* \"#utility.yul\":4642:4666   */\n      tag_91\n        /* \"#utility.yul\":4660:4665   */\n      dup2\n        /* \"#utility.yul\":4642:4666   */\n      tag_53\n      jump\t// in\n    tag_91:\n        /* \"#utility.yul\":4635:4640   */\n      dup2\n        /* \"#utility.yul\":4632:4667   */\n      eq\n        /* \"#utility.yul\":4622:4624   */\n      tag_92\n      jumpi\n        /* \"#utility.yul\":4681:4682   */\n      0x00\n        /* \"#utility.yul\":4678:4679   */\n      dup1\n        /* \"#utility.yul\":4671:4683   */\n      revert\n        /* \"#utility.yul\":4622:4624   */\n    tag_92:\n        /* \"#utility.yul\":4612:4691   */\n      pop\n      jump\t// out\n        /* \"#utility.yul\":4697:4819   */\n    tag_40:\n        /* \"#utility.yul\":4770:4794   */\n      tag_94\n        /* \"#utility.yul\":4788:4793   */\n      dup2\n        /* \"#utility.yul\":4770:4794   */\n      tag_66\n      jump\t// in\n    tag_94:\n        /* \"#utility.yul\":4763:4768   */\n      dup2\n        /* \"#utility.yul\":4760:4795   */\n      eq\n        /* \"#utility.yul\":4750:4752   */\n      tag_95\n      jumpi\n        /* \"#utility.yul\":4809:4810   */\n      0x00\n        /* \"#utility.yul\":4806:4807   */\n      dup1\n        /* \"#utility.yul\":4799:4811   */\n      revert\n        /* \"#utility.yul\":4750:4752   */\n    tag_95:\n        /* \"#utility.yul\":4740:4819   */\n      pop\n      jump\t// out\n\n    auxdata: 0xa26469706673582212206018574a73b95727fb0b461793971c3818f3050cdec75fd8a441f0f54d62e08464736f6c63430008000033\n}\n",
				"bytecode": {
					"linkReferences": {},
					"object": "608060405234801561001057600080fd5b50600060018190555061004160018073b5dea2661dfa4b8f0aae8bc1f583369d927c3b06600361004660201b60201c565b610199565b60405180608001604052808581526020018481526020018373ffffffffffffffffffffffffffffffffffffffff168152602001828152506000806001548152602001908152602001600020600082015181600001556020820151816001015560408201518160020160006101000a81548173ffffffffffffffffffffffffffffffffffffffff021916908373ffffffffffffffffffffffffffffffffffffffff160217905550606082015181600301559050506001600081548092919061010c90610121565b919050555050505050565b6000819050919050565b600061012c82610117565b91507fffffffffffffffffffffffffffffffffffffffffffffffffffffffffffffffff82141561015f5761015e61016a565b5b600182019050919050565b7f4e487b7100000000000000000000000000000000000000000000000000000000600052601160045260246000fd5b6105cd806101a86000396000f3fe608060405234801561001057600080fd5b506004361061004c5760003560e01c8063013cf08b14610051578063cae455ee14610084578063da35c664146100a0578063e9d6c6da146100be575b600080fd5b61006b6004803603810190610066919061031d565b6100ee565b60405161007b9493929190610470565b60405180910390f35b61009e60048036038101906100999190610346565b61013e565b005b6100a861020f565b6040516100b59190610455565b60405180910390f35b6100d860048036038101906100d3919061031d565b610215565b6040516100e5919061043a565b60405180910390f35b60006020528060005260406000206000915090508060000154908060010154908060020160009054906101000a900473ffffffffffffffffffffffffffffffffffffffff16908060030154905084565b60405180608001604052808581526020018481526020018373ffffffffffffffffffffffffffffffffffffffff168152602001828152506000806001548152602001908152602001600020600082015181600001556020820151816001015560408201518160020160006101000a81548173ffffffffffffffffffffffffffffffffffffffff021916908373ffffffffffffffffffffffffffffffffffffffff1602179055506060820151816003015590505060016000815480929190610204906104f1565b919050555050505050565b60015481565b61021d6102b5565b60008083815260200190815260200160002060405180608001604052908160008201548152602001600182015481526020016002820160009054906101000a900473ffffffffffffffffffffffffffffffffffffffff1673ffffffffffffffffffffffffffffffffffffffff1673ffffffffffffffffffffffffffffffffffffffff1681526020016003820154815250509050919050565b60405180608001604052806000815260200160008152602001600073ffffffffffffffffffffffffffffffffffffffff168152602001600081525090565b60008135905061030281610569565b92915050565b60008135905061031781610580565b92915050565b60006020828403121561032f57600080fd5b600061033d84828501610308565b91505092915050565b6000806000806080858703121561035c57600080fd5b600061036a87828801610308565b945050602061037b87828801610308565b935050604061038c878288016102f3565b925050606061039d87828801610308565b91505092959194509250565b6103b2816104b5565b82525050565b6103c1816104b5565b82525050565b6080820160008201516103dd600085018261041c565b5060208201516103f0602085018261041c565b50604082015161040360408501826103a9565b506060820151610416606085018261041c565b50505050565b610425816104e7565b82525050565b610434816104e7565b82525050565b600060808201905061044f60008301846103c7565b92915050565b600060208201905061046a600083018461042b565b92915050565b6000608082019050610485600083018761042b565b610492602083018661042b565b61049f60408301856103b8565b6104ac606083018461042b565b95945050505050565b60006104c0826104c7565b9050919050565b600073ffffffffffffffffffffffffffffffffffffffff82169050919050565b6000819050919050565b60006104fc826104e7565b91507fffffffffffffffffffffffffffffffffffffffffffffffffffffffffffffffff82141561052f5761052e61053a565b5b600182019050919050565b7f4e487b7100000000000000000000000000000000000000000000000000000000600052601160045260246000fd5b610572816104b5565b811461057d57600080fd5b50565b610589816104e7565b811461059457600080fd5b5056fea26469706673582212206018574a73b95727fb0b461793971c3818f3050cdec75fd8a441f0f54d62e08464736f6c63430008000033",
					"opcodes": "PUSH1 0x80 PUSH1 0x40 MSTORE CALLVALUE DUP1 ISZERO PUSH2 0x10 JUMPI PUSH1 0x0 DUP1 REVERT JUMPDEST POP PUSH1 0x0 PUSH1 0x1 DUP2 SWAP1 SSTORE POP PUSH2 0x41 PUSH1 0x1 DUP1 PUSH20 0xB5DEA2661DFA4B8F0AAE8BC1F583369D927C3B06 PUSH1 0x3 PUSH2 0x46 PUSH1 0x20 SHL PUSH1 0x20 SHR JUMP JUMPDEST PUSH2 0x199 JUMP JUMPDEST PUSH1 0x40 MLOAD DUP1 PUSH1 0x80 ADD PUSH1 0x40 MSTORE DUP1 DUP6 DUP2 MSTORE PUSH1 0x20 ADD DUP5 DUP2 MSTORE PUSH1 0x20 ADD DUP4 PUSH20 0xFFFFFFFFFFFFFFFFFFFFFFFFFFFFFFFFFFFFFFFF AND DUP2 MSTORE PUSH1 0x20 ADD DUP3 DUP2 MSTORE POP PUSH1 0x0 DUP1 PUSH1 0x1 SLOAD DUP2 MSTORE PUSH1 0x20 ADD SWAP1 DUP2 MSTORE PUSH1 0x20 ADD PUSH1 0x0 KECCAK256 PUSH1 0x0 DUP3 ADD MLOAD DUP2 PUSH1 0x0 ADD SSTORE PUSH1 0x20 DUP3 ADD MLOAD DUP2 PUSH1 0x1 ADD SSTORE PUSH1 0x40 DUP3 ADD MLOAD DUP2 PUSH1 0x2 ADD PUSH1 0x0 PUSH2 0x100 EXP DUP2 SLOAD DUP2 PUSH20 0xFFFFFFFFFFFFFFFFFFFFFFFFFFFFFFFFFFFFFFFF MUL NOT AND SWAP1 DUP4 PUSH20 0xFFFFFFFFFFFFFFFFFFFFFFFFFFFFFFFFFFFFFFFF AND MUL OR SWAP1 SSTORE POP PUSH1 0x60 DUP3 ADD MLOAD DUP2 PUSH1 0x3 ADD SSTORE SWAP1 POP POP PUSH1 0x1 PUSH1 0x0 DUP2 SLOAD DUP1 SWAP3 SWAP2 SWAP1 PUSH2 0x10C SWAP1 PUSH2 0x121 JUMP JUMPDEST SWAP2 SWAP1 POP SSTORE POP POP POP POP POP JUMP JUMPDEST PUSH1 0x0 DUP2 SWAP1 POP SWAP2 SWAP1 POP JUMP JUMPDEST PUSH1 0x0 PUSH2 0x12C DUP3 PUSH2 0x117 JUMP JUMPDEST SWAP2 POP PUSH32 0xFFFFFFFFFFFFFFFFFFFFFFFFFFFFFFFFFFFFFFFFFFFFFFFFFFFFFFFFFFFFFFFF DUP3 EQ ISZERO PUSH2 0x15F JUMPI PUSH2 0x15E PUSH2 0x16A JUMP JUMPDEST JUMPDEST PUSH1 0x1 DUP3 ADD SWAP1 POP SWAP2 SWAP1 POP JUMP JUMPDEST PUSH32 0x4E487B7100000000000000000000000000000000000000000000000000000000 PUSH1 0x0 MSTORE PUSH1 0x11 PUSH1 0x4 MSTORE PUSH1 0x24 PUSH1 0x0 REVERT JUMPDEST PUSH2 0x5CD DUP1 PUSH2 0x1A8 PUSH1 0x0 CODECOPY PUSH1 0x0 RETURN INVALID PUSH1 0x80 PUSH1 0x40 MSTORE CALLVALUE DUP1 ISZERO PUSH2 0x10 JUMPI PUSH1 0x0 DUP1 REVERT JUMPDEST POP PUSH1 0x4 CALLDATASIZE LT PUSH2 0x4C JUMPI PUSH1 0x0 CALLDATALOAD PUSH1 0xE0 SHR DUP1 PUSH4 0x13CF08B EQ PUSH2 0x51 JUMPI DUP1 PUSH4 0xCAE455EE EQ PUSH2 0x84 JUMPI DUP1 PUSH4 0xDA35C664 EQ PUSH2 0xA0 JUMPI DUP1 PUSH4 0xE9D6C6DA EQ PUSH2 0xBE JUMPI JUMPDEST PUSH1 0x0 DUP1 REVERT JUMPDEST PUSH2 0x6B PUSH1 0x4 DUP1 CALLDATASIZE SUB DUP2 ADD SWAP1 PUSH2 0x66 SWAP2 SWAP1 PUSH2 0x31D JUMP JUMPDEST PUSH2 0xEE JUMP JUMPDEST PUSH1 0x40 MLOAD PUSH2 0x7B SWAP5 SWAP4 SWAP3 SWAP2 SWAP1 PUSH2 0x470 JUMP JUMPDEST PUSH1 0x40 MLOAD DUP1 SWAP2 SUB SWAP1 RETURN JUMPDEST PUSH2 0x9E PUSH1 0x4 DUP1 CALLDATASIZE SUB DUP2 ADD SWAP1 PUSH2 0x99 SWAP2 SWAP1 PUSH2 0x346 JUMP JUMPDEST PUSH2 0x13E JUMP JUMPDEST STOP JUMPDEST PUSH2 0xA8 PUSH2 0x20F JUMP JUMPDEST PUSH1 0x40 MLOAD PUSH2 0xB5 SWAP2 SWAP1 PUSH2 0x455 JUMP JUMPDEST PUSH1 0x40 MLOAD DUP1 SWAP2 SUB SWAP1 RETURN JUMPDEST PUSH2 0xD8 PUSH1 0x4 DUP1 CALLDATASIZE SUB DUP2 ADD SWAP1 PUSH2 0xD3 SWAP2 SWAP1 PUSH2 0x31D JUMP JUMPDEST PUSH2 0x215 JUMP JUMPDEST PUSH1 0x40 MLOAD PUSH2 0xE5 SWAP2 SWAP1 PUSH2 0x43A JUMP JUMPDEST PUSH1 0x40 MLOAD DUP1 SWAP2 SUB SWAP1 RETURN JUMPDEST PUSH1 0x0 PUSH1 0x20 MSTORE DUP1 PUSH1 0x0 MSTORE PUSH1 0x40 PUSH1 0x0 KECCAK256 PUSH1 0x0 SWAP2 POP SWAP1 POP DUP1 PUSH1 0x0 ADD SLOAD SWAP1 DUP1 PUSH1 0x1 ADD SLOAD SWAP1 DUP1 PUSH1 0x2 ADD PUSH1 0x0 SWAP1 SLOAD SWAP1 PUSH2 0x100 EXP SWAP1 DIV PUSH20 0xFFFFFFFFFFFFFFFFFFFFFFFFFFFFFFFFFFFFFFFF AND SWAP1 DUP1 PUSH1 0x3 ADD SLOAD SWAP1 POP DUP5 JUMP JUMPDEST PUSH1 0x40 MLOAD DUP1 PUSH1 0x80 ADD PUSH1 0x40 MSTORE DUP1 DUP6 DUP2 MSTORE PUSH1 0x20 ADD DUP5 DUP2 MSTORE PUSH1 0x20 ADD DUP4 PUSH20 0xFFFFFFFFFFFFFFFFFFFFFFFFFFFFFFFFFFFFFFFF AND DUP2 MSTORE PUSH1 0x20 ADD DUP3 DUP2 MSTORE POP PUSH1 0x0 DUP1 PUSH1 0x1 SLOAD DUP2 MSTORE PUSH1 0x20 ADD SWAP1 DUP2 MSTORE PUSH1 0x20 ADD PUSH1 0x0 KECCAK256 PUSH1 0x0 DUP3 ADD MLOAD DUP2 PUSH1 0x0 ADD SSTORE PUSH1 0x20 DUP3 ADD MLOAD DUP2 PUSH1 0x1 ADD SSTORE PUSH1 0x40 DUP3 ADD MLOAD DUP2 PUSH1 0x2 ADD PUSH1 0x0 PUSH2 0x100 EXP DUP2 SLOAD DUP2 PUSH20 0xFFFFFFFFFFFFFFFFFFFFFFFFFFFFFFFFFFFFFFFF MUL NOT AND SWAP1 DUP4 PUSH20 0xFFFFFFFFFFFFFFFFFFFFFFFFFFFFFFFFFFFFFFFF AND MUL OR SWAP1 SSTORE POP PUSH1 0x60 DUP3 ADD MLOAD DUP2 PUSH1 0x3 ADD SSTORE SWAP1 POP POP PUSH1 0x1 PUSH1 0x0 DUP2 SLOAD DUP1 SWAP3 SWAP2 SWAP1 PUSH2 0x204 SWAP1 PUSH2 0x4F1 JUMP JUMPDEST SWAP2 SWAP1 POP SSTORE POP POP POP POP POP JUMP JUMPDEST PUSH1 0x1 SLOAD DUP2 JUMP JUMPDEST PUSH2 0x21D PUSH2 0x2B5 JUMP JUMPDEST PUSH1 0x0 DUP1 DUP4 DUP2 MSTORE PUSH1 0x20 ADD SWAP1 DUP2 MSTORE PUSH1 0x20 ADD PUSH1 0x0 KECCAK256 PUSH1 0x40 MLOAD DUP1 PUSH1 0x80 ADD PUSH1 0x40 MSTORE SWAP1 DUP2 PUSH1 0x0 DUP3 ADD SLOAD DUP2 MSTORE PUSH1 0x20 ADD PUSH1 0x1 DUP3 ADD SLOAD DUP2 MSTORE PUSH1 0x20 ADD PUSH1 0x2 DUP3 ADD PUSH1 0x0 SWAP1 SLOAD SWAP1 PUSH2 0x100 EXP SWAP1 DIV PUSH20 0xFFFFFFFFFFFFFFFFFFFFFFFFFFFFFFFFFFFFFFFF AND PUSH20 0xFFFFFFFFFFFFFFFFFFFFFFFFFFFFFFFFFFFFFFFF AND PUSH20 0xFFFFFFFFFFFFFFFFFFFFFFFFFFFFFFFFFFFFFFFF AND DUP2 MSTORE PUSH1 0x20 ADD PUSH1 0x3 DUP3 ADD SLOAD DUP2 MSTORE POP POP SWAP1 POP SWAP2 SWAP1 POP JUMP JUMPDEST PUSH1 0x40 MLOAD DUP1 PUSH1 0x80 ADD PUSH1 0x40 MSTORE DUP1 PUSH1 0x0 DUP2 MSTORE PUSH1 0x20 ADD PUSH1 0x0 DUP2 MSTORE PUSH1 0x20 ADD PUSH1 0x0 PUSH20 0xFFFFFFFFFFFFFFFFFFFFFFFFFFFFFFFFFFFFFFFF AND DUP2 MSTORE PUSH1 0x20 ADD PUSH1 0x0 DUP2 MSTORE POP SWAP1 JUMP JUMPDEST PUSH1 0x0 DUP2 CALLDATALOAD SWAP1 POP PUSH2 0x302 DUP2 PUSH2 0x569 JUMP JUMPDEST SWAP3 SWAP2 POP POP JUMP JUMPDEST PUSH1 0x0 DUP2 CALLDATALOAD SWAP1 POP PUSH2 0x317 DUP2 PUSH2 0x580 JUMP JUMPDEST SWAP3 SWAP2 POP POP JUMP JUMPDEST PUSH1 0x0 PUSH1 0x20 DUP3 DUP5 SUB SLT ISZERO PUSH2 0x32F JUMPI PUSH1 0x0 DUP1 REVERT JUMPDEST PUSH1 0x0 PUSH2 0x33D DUP5 DUP3 DUP6 ADD PUSH2 0x308 JUMP JUMPDEST SWAP2 POP POP SWAP3 SWAP2 POP POP JUMP JUMPDEST PUSH1 0x0 DUP1 PUSH1 0x0 DUP1 PUSH1 0x80 DUP6 DUP8 SUB SLT ISZERO PUSH2 0x35C JUMPI PUSH1 0x0 DUP1 REVERT JUMPDEST PUSH1 0x0 PUSH2 0x36A DUP8 DUP3 DUP9 ADD PUSH2 0x308 JUMP JUMPDEST SWAP5 POP POP PUSH1 0x20 PUSH2 0x37B DUP8 DUP3 DUP9 ADD PUSH2 0x308 JUMP JUMPDEST SWAP4 POP POP PUSH1 0x40 PUSH2 0x38C DUP8 DUP3 DUP9 ADD PUSH2 0x2F3 JUMP JUMPDEST SWAP3 POP POP PUSH1 0x60 PUSH2 0x39D DUP8 DUP3 DUP9 ADD PUSH2 0x308 JUMP JUMPDEST SWAP2 POP POP SWAP3 SWAP6 SWAP2 SWAP5 POP SWAP3 POP JUMP JUMPDEST PUSH2 0x3B2 DUP2 PUSH2 0x4B5 JUMP JUMPDEST DUP3 MSTORE POP POP JUMP JUMPDEST PUSH2 0x3C1 DUP2 PUSH2 0x4B5 JUMP JUMPDEST DUP3 MSTORE POP POP JUMP JUMPDEST PUSH1 0x80 DUP3 ADD PUSH1 0x0 DUP3 ADD MLOAD PUSH2 0x3DD PUSH1 0x0 DUP6 ADD DUP3 PUSH2 0x41C JUMP JUMPDEST POP PUSH1 0x20 DUP3 ADD MLOAD PUSH2 0x3F0 PUSH1 0x20 DUP6 ADD DUP3 PUSH2 0x41C JUMP JUMPDEST POP PUSH1 0x40 DUP3 ADD MLOAD PUSH2 0x403 PUSH1 0x40 DUP6 ADD DUP3 PUSH2 0x3A9 JUMP JUMPDEST POP PUSH1 0x60 DUP3 ADD MLOAD PUSH2 0x416 PUSH1 0x60 DUP6 ADD DUP3 PUSH2 0x41C JUMP JUMPDEST POP POP POP POP JUMP JUMPDEST PUSH2 0x425 DUP2 PUSH2 0x4E7 JUMP JUMPDEST DUP3 MSTORE POP POP JUMP JUMPDEST PUSH2 0x434 DUP2 PUSH2 0x4E7 JUMP JUMPDEST DUP3 MSTORE POP POP JUMP JUMPDEST PUSH1 0x0 PUSH1 0x80 DUP3 ADD SWAP1 POP PUSH2 0x44F PUSH1 0x0 DUP4 ADD DUP5 PUSH2 0x3C7 JUMP JUMPDEST SWAP3 SWAP2 POP POP JUMP JUMPDEST PUSH1 0x0 PUSH1 0x20 DUP3 ADD SWAP1 POP PUSH2 0x46A PUSH1 0x0 DUP4 ADD DUP5 PUSH2 0x42B JUMP JUMPDEST SWAP3 SWAP2 POP POP JUMP JUMPDEST PUSH1 0x0 PUSH1 0x80 DUP3 ADD SWAP1 POP PUSH2 0x485 PUSH1 0x0 DUP4 ADD DUP8 PUSH2 0x42B JUMP JUMPDEST PUSH2 0x492 PUSH1 0x20 DUP4 ADD DUP7 PUSH2 0x42B JUMP JUMPDEST PUSH2 0x49F PUSH1 0x40 DUP4 ADD DUP6 PUSH2 0x3B8 JUMP JUMPDEST PUSH2 0x4AC PUSH1 0x60 DUP4 ADD DUP5 PUSH2 0x42B JUMP JUMPDEST SWAP6 SWAP5 POP POP POP POP POP JUMP JUMPDEST PUSH1 0x0 PUSH2 0x4C0 DUP3 PUSH2 0x4C7 JUMP JUMPDEST SWAP1 POP SWAP2 SWAP1 POP JUMP JUMPDEST PUSH1 0x0 PUSH20 0xFFFFFFFFFFFFFFFFFFFFFFFFFFFFFFFFFFFFFFFF DUP3 AND SWAP1 POP SWAP2 SWAP1 POP JUMP JUMPDEST PUSH1 0x0 DUP2 SWAP1 POP SWAP2 SWAP1 POP JUMP JUMPDEST PUSH1 0x0 PUSH2 0x4FC DUP3 PUSH2 0x4E7 JUMP JUMPDEST SWAP2 POP PUSH32 0xFFFFFFFFFFFFFFFFFFFFFFFFFFFFFFFFFFFFFFFFFFFFFFFFFFFFFFFFFFFFFFFF DUP3 EQ ISZERO PUSH2 0x52F JUMPI PUSH2 0x52E PUSH2 0x53A JUMP JUMPDEST JUMPDEST PUSH1 0x1 DUP3 ADD SWAP1 POP SWAP2 SWAP1 POP JUMP JUMPDEST PUSH32 0x4E487B7100000000000000000000000000000000000000000000000000000000 PUSH1 0x0 MSTORE PUSH1 0x11 PUSH1 0x4 MSTORE PUSH1 0x24 PUSH1 0x0 REVERT JUMPDEST PUSH2 0x572 DUP2 PUSH2 0x4B5 JUMP JUMPDEST DUP2 EQ PUSH2 0x57D JUMPI PUSH1 0x0 DUP1 REVERT JUMPDEST POP JUMP JUMPDEST PUSH2 0x589 DUP2 PUSH2 0x4E7 JUMP JUMPDEST DUP2 EQ PUSH2 0x594 JUMPI PUSH1 0x0 DUP1 REVERT JUMPDEST POP JUMP INVALID LOG2 PUSH5 0x6970667358 0x22 SLT KECCAK256 PUSH1 0x18 JUMPI 0x4A PUSH20 0xB95727FB0B461793971C3818F3050CDEC75FD8A4 COINBASE CREATE CREATE2 0x4D PUSH3 0xE08464 PUSH20 0x6F6C634300080000330000000000000000000000 "
				},
				"gasEstimates": {
					"creation": {
						"codeDepositCost": "297000",
						"executionCost": "infinite",
						"totalCost": "infinite"
					},
					"external": {
						"addProposal(uint256,uint256,address,uint256)": "infinite",
						"getProposalStructure(uint256)": "infinite",
						"proposalCount()": "1151",
						"proposals(uint256)": "infinite"
					}
				},
				"methodIdentifiers": {
					"addProposal(uint256,uint256,address,uint256)": "cae455ee",
					"getProposalStructure(uint256)": "e9d6c6da",
					"proposalCount()": "da35c664",
					"proposals(uint256)": "013cf08b"
				}
			},
			"storageLayout": {
				"storage": [
					{
						"astId": 26,
						"contract": "contracts/proposal.sol:TestProposal",
						"label": "proposals",
						"offset": 0,
						"slot": "0",
						"type": "t_mapping(t_uint256,t_struct(Proposal)14_storage)"
					},
					{
						"astId": 28,
						"contract": "contracts/proposal.sol:TestProposal",
						"label": "proposalCount",
						"offset": 0,
						"slot": "1",
						"type": "t_uint256"
					}
				],
				"types": {
					"t_address": {
						"encoding": "inplace",
						"label": "address",
						"numberOfBytes": "20"
					},
					"t_mapping(t_uint256,t_struct(Proposal)14_storage)": {
						"encoding": "mapping",
						"key": "t_uint256",
						"label": "mapping(uint256 => struct TestProposal.Proposal)",
						"numberOfBytes": "32",
						"value": "t_struct(Proposal)14_storage"
					},
					"t_struct(Proposal)14_storage": {
						"encoding": "inplace",
						"label": "struct TestProposal.Proposal",
						"members": [
							{
								"astId": 7,
								"contract": "contracts/proposal.sol:TestProposal",
								"label": "proposalId",
								"offset": 0,
								"slot": "0",
								"type": "t_uint256"
							},
							{
								"astId": 9,
								"contract": "contracts/proposal.sol:TestProposal",
								"label": "proposalStatus",
								"offset": 0,
								"slot": "1",
								"type": "t_uint256"
							},
							{
								"astId": 11,
								"contract": "contracts/proposal.sol:TestProposal",
								"label": "proposalCreator",
								"offset": 0,
								"slot": "2",
								"type": "t_address"
							},
							{
								"astId": 13,
								"contract": "contracts/proposal.sol:TestProposal",
								"label": "proposalNumOfOptions",
								"offset": 0,
								"slot": "3",
								"type": "t_uint256"
							}
						],
						"numberOfBytes": "128"
					},
					"t_uint256": {
						"encoding": "inplace",
						"label": "uint256",
						"numberOfBytes": "32"
					}
				}
			},
			"userdoc": {
				"kind": "user",
				"methods": {},
				"version": 1
			}
		}
	}
}