{
	"contracts/fun_stuff.sol": {
		"VoteSaving": {
			"abi": [
				{
					"inputs": [],
					"stateMutability": "nonpayable",
					"type": "constructor"
				},
				{
					"anonymous": false,
					"inputs": [
						{
							"indexed": true,
							"internalType": "uint256",
							"name": "_memberId",
							"type": "uint256"
						}
					],
					"name": "savingEvent",
					"type": "event"
				},
				{
					"inputs": [
						{
							"internalType": "string",
							"name": "_name",
							"type": "string"
						},
						{
							"internalType": "bool",
							"name": "_isVote",
							"type": "bool"
						}
					],
					"name": "addMember",
					"outputs": [],
					"stateMutability": "nonpayable",
					"type": "function"
				},
				{
					"inputs": [
						{
							"internalType": "uint256",
							"name": "_memberId",
							"type": "uint256"
						}
					],
					"name": "getMemberStructure",
					"outputs": [
						{
							"components": [
								{
									"internalType": "uint256",
									"name": "id",
									"type": "uint256"
								},
								{
									"internalType": "string",
									"name": "name",
									"type": "string"
								},
								{
									"internalType": "bool",
									"name": "isVoted",
									"type": "bool"
								}
							],
							"internalType": "struct VoteSaving.Member",
							"name": "",
							"type": "tuple"
						}
					],
					"stateMutability": "view",
					"type": "function"
				},
				{
					"inputs": [],
					"name": "getMemberValue",
					"outputs": [
						{
							"internalType": "uint256[]",
							"name": "",
							"type": "uint256[]"
						},
						{
							"internalType": "string[]",
							"name": "",
							"type": "string[]"
						},
						{
							"internalType": "bool[]",
							"name": "",
							"type": "bool[]"
						}
					],
					"stateMutability": "view",
					"type": "function"
				},
				{
					"inputs": [],
					"name": "memberCount",
					"outputs": [
						{
							"internalType": "uint256",
							"name": "",
							"type": "uint256"
						}
					],
					"stateMutability": "view",
					"type": "function"
				},
				{
					"inputs": [
						{
							"internalType": "uint256",
							"name": "",
							"type": "uint256"
						}
					],
					"name": "members",
					"outputs": [
						{
							"internalType": "uint256",
							"name": "id",
							"type": "uint256"
						},
						{
							"internalType": "string",
							"name": "name",
							"type": "string"
						},
						{
							"internalType": "bool",
							"name": "isVoted",
							"type": "bool"
						}
					],
					"stateMutability": "view",
					"type": "function"
				},
				{
					"inputs": [
						{
							"internalType": "uint256",
							"name": "_memberId",
							"type": "uint256"
						},
						{
							"internalType": "bool",
							"name": "_isVote",
							"type": "bool"
						}
					],
					"name": "setVote",
					"outputs": [],
					"stateMutability": "nonpayable",
					"type": "function"
				}
			],
			"devdoc": {
				"methods": {}
			},
			"evm": {
				"assembly": "    /* \"contracts/fun_stuff.sol\":95:1519  contract VoteSaving {\r... */\n  mstore(0x40, 0x80)\n    /* \"contracts/fun_stuff.sol\":342:468  constructor() public {\r... */\n  callvalue\n    /* \"--CODEGEN--\":8:17   */\n  dup1\n    /* \"--CODEGEN--\":5:7   */\n  iszero\n  tag_1\n  jumpi\n    /* \"--CODEGEN--\":30:31   */\n  0x00\n    /* \"--CODEGEN--\":27:28   */\n  dup1\n    /* \"--CODEGEN--\":20:32   */\n  revert\n    /* \"--CODEGEN--\":5:7   */\ntag_1:\n    /* \"contracts/fun_stuff.sol\":342:468  constructor() public {\r... */\n  pop\n    /* \"contracts/fun_stuff.sol\":388:389  0 */\n  0x00\n    /* \"contracts/fun_stuff.sol\":374:385  memberCount */\n  0x01\n    /* \"contracts/fun_stuff.sol\":374:389  memberCount = 0 */\n  dup2\n  swap1\n  sstore\n  pop\n    /* \"contracts/fun_stuff.sol\":400:423  addMember(\"Vlad\", true) */\n  tag_4\n  mload(0x40)\n  dup1\n  0x40\n  add\n  0x40\n  mstore\n  dup1\n  0x04\n  dup2\n  mstore\n  0x20\n  add\n  0x566c616400000000000000000000000000000000000000000000000000000000\n  dup2\n  mstore\n  pop\n    /* \"contracts/fun_stuff.sol\":418:422  true */\n  0x01\n    /* \"contracts/fun_stuff.sol\":400:409  addMember */\n  shl(0x20, tag_5)\n    /* \"contracts/fun_stuff.sol\":400:423  addMember(\"Vlad\", true) */\n  0x20\n  shr\n  jump\t// in\ntag_4:\n    /* \"contracts/fun_stuff.sol\":434:460  addMember(\"Nastya\", false) */\n  tag_6\n  mload(0x40)\n  dup1\n  0x40\n  add\n  0x40\n  mstore\n  dup1\n  0x06\n  dup2\n  mstore\n  0x20\n  add\n  0x4e61737479610000000000000000000000000000000000000000000000000000\n  dup2\n  mstore\n  pop\n    /* \"contracts/fun_stuff.sol\":454:459  false */\n  0x00\n    /* \"contracts/fun_stuff.sol\":434:443  addMember */\n  shl(0x20, tag_5)\n    /* \"contracts/fun_stuff.sol\":434:460  addMember(\"Nastya\", false) */\n  0x20\n  shr\n  jump\t// in\ntag_6:\n    /* \"contracts/fun_stuff.sol\":95:1519  contract VoteSaving {\r... */\n  jump(tag_7)\n    /* \"contracts/fun_stuff.sol\":476:638  function addMember(string memory _name, bool _isVote) public {\r... */\ntag_5:\n    /* \"contracts/fun_stuff.sol\":571:606  Member(memberCount, _name, _isVote) */\n  mload(0x40)\n  dup1\n  0x60\n  add\n  0x40\n  mstore\n  dup1\n    /* \"contracts/fun_stuff.sol\":578:589  memberCount */\n  sload(0x01)\n    /* \"contracts/fun_stuff.sol\":571:606  Member(memberCount, _name, _isVote) */\n  dup2\n  mstore\n  0x20\n  add\n    /* \"contracts/fun_stuff.sol\":591:596  _name */\n  dup4\n    /* \"contracts/fun_stuff.sol\":571:606  Member(memberCount, _name, _isVote) */\n  dup2\n  mstore\n  0x20\n  add\n    /* \"contracts/fun_stuff.sol\":598:605  _isVote */\n  dup3\n    /* \"contracts/fun_stuff.sol\":571:606  Member(memberCount, _name, _isVote) */\n  iszero\n  iszero\n  dup2\n  mstore\n  pop\n    /* \"contracts/fun_stuff.sol\":548:555  members */\n  0x00\n    /* \"contracts/fun_stuff.sol\":548:568  members[memberCount] */\n  dup1\n    /* \"contracts/fun_stuff.sol\":556:567  memberCount */\n  sload(0x01)\n    /* \"contracts/fun_stuff.sol\":548:568  members[memberCount] */\n  dup2\n  mstore\n  0x20\n  add\n  swap1\n  dup2\n  mstore\n  0x20\n  add\n  0x00\n  keccak256\n    /* \"contracts/fun_stuff.sol\":548:606  members[memberCount] = Member(memberCount, _name, _isVote) */\n  0x00\n  dup3\n  add\n  mload\n  dup2\n  0x00\n  add\n  sstore\n  0x20\n  dup3\n  add\n  mload\n  dup2\n  0x01\n  add\n  swap1\n  dup1\n  mload\n  swap1\n  0x20\n  add\n  swap1\n  tag_9\n  swap3\n  swap2\n  swap1\n  tag_10\n  jump\t// in\ntag_9:\n  pop\n  0x40\n  dup3\n  add\n  mload\n  dup2\n  0x02\n  add\n  exp(0x0100, 0x00)\n  dup2\n  sload\n  dup2\n  0xff\n  mul\n  not\n  and\n  swap1\n  dup4\n  iszero\n  iszero\n  mul\n  or\n  swap1\n  sstore\n  pop\n  swap1\n  pop\n  pop\n    /* \"contracts/fun_stuff.sol\":617:628  memberCount */\n  0x01\n  0x00\n    /* \"contracts/fun_stuff.sol\":617:630  memberCount++ */\n  dup2\n  sload\n  dup1\n  swap3\n  swap2\n  swap1\n  0x01\n  add\n  swap2\n  swap1\n  pop\n  sstore\n  pop\n    /* \"contracts/fun_stuff.sol\":476:638  function addMember(string memory _name, bool _isVote) public {\r... */\n  pop\n  pop\n  jump\t// out\n    /* \"contracts/fun_stuff.sol\":95:1519  contract VoteSaving {\r... */\ntag_10:\n  dup3\n  dup1\n  sload\n  0x01\n  dup2\n  0x01\n  and\n  iszero\n  0x0100\n  mul\n  sub\n  and\n  0x02\n  swap1\n  div\n  swap1\n  0x00\n  mstore\n  keccak256(0x00, 0x20)\n  swap1\n  0x1f\n  add\n  0x20\n  swap1\n  div\n  dup2\n  add\n  swap3\n  dup3\n  0x1f\n  lt\n  tag_12\n  jumpi\n  dup1\n  mload\n  not(0xff)\n  and\n  dup4\n  dup1\n  add\n  or\n  dup6\n  sstore\n  jump(tag_11)\ntag_12:\n  dup3\n  dup1\n  add\n  0x01\n  add\n  dup6\n  sstore\n  dup3\n  iszero\n  tag_11\n  jumpi\n  swap2\n  dup3\n  add\ntag_13:\n  dup3\n  dup2\n  gt\n  iszero\n  tag_14\n  jumpi\n  dup3\n  mload\n  dup3\n  sstore\n  swap2\n  0x20\n  add\n  swap2\n  swap1\n  0x01\n  add\n  swap1\n  jump(tag_13)\ntag_14:\ntag_11:\n  pop\n  swap1\n  pop\n  tag_15\n  swap2\n  swap1\n  tag_16\n  jump\t// in\ntag_15:\n  pop\n  swap1\n  jump\t// out\ntag_16:\n  tag_17\n  swap2\n  swap1\ntag_18:\n  dup1\n  dup3\n  gt\n  iszero\n  tag_19\n  jumpi\n  0x00\n  dup2\n  0x00\n  swap1\n  sstore\n  pop\n  0x01\n  add\n  jump(tag_18)\ntag_19:\n  pop\n  swap1\n  jump\ntag_17:\n  swap1\n  jump\t// out\ntag_7:\n  dataSize(sub_0)\n  dup1\n  dataOffset(sub_0)\n  0x00\n  codecopy\n  0x00\n  return\nstop\n\nsub_0: assembly {\n        /* \"contracts/fun_stuff.sol\":95:1519  contract VoteSaving {\r... */\n      mstore(0x40, 0x80)\n      callvalue\n        /* \"--CODEGEN--\":8:17   */\n      dup1\n        /* \"--CODEGEN--\":5:7   */\n      iszero\n      tag_1\n      jumpi\n        /* \"--CODEGEN--\":30:31   */\n      0x00\n        /* \"--CODEGEN--\":27:28   */\n      dup1\n        /* \"--CODEGEN--\":20:32   */\n      revert\n        /* \"--CODEGEN--\":5:7   */\n    tag_1:\n        /* \"contracts/fun_stuff.sol\":95:1519  contract VoteSaving {\r... */\n      pop\n      jumpi(tag_2, lt(calldatasize, 0x04))\n      shr(0xe0, calldataload(0x00))\n      dup1\n      0x11aee380\n      eq\n      tag_3\n      jumpi\n      dup1\n      0x5daf08ca\n      eq\n      tag_4\n      jumpi\n      dup1\n      0x6f416d59\n      eq\n      tag_5\n      jumpi\n      dup1\n      0x92c68389\n      eq\n      tag_6\n      jumpi\n      dup1\n      0xd3516b7e\n      eq\n      tag_7\n      jumpi\n      dup1\n      0xf97698f8\n      eq\n      tag_8\n      jumpi\n    tag_2:\n      0x00\n      dup1\n      revert\n        /* \"contracts/fun_stuff.sol\":308:331  uint public memberCount */\n    tag_3:\n      tag_9\n      tag_10\n      jump\t// in\n    tag_9:\n      mload(0x40)\n      tag_11\n      swap2\n      swap1\n      jump(tag_12)\n    tag_11:\n      mload(0x40)\n      dup1\n      swap2\n      sub\n      swap1\n      return\n        /* \"contracts/fun_stuff.sol\":214:253  mapping (uint => Member) public members */\n    tag_4:\n      tag_13\n      0x04\n      dup1\n      calldatasize\n      sub\n      tag_14\n      swap2\n      swap1\n      dup2\n      add\n      swap1\n      jump(tag_15)\n    tag_14:\n      tag_16\n      jump\t// in\n    tag_13:\n      mload(0x40)\n      tag_17\n      swap4\n      swap3\n      swap2\n      swap1\n      jump(tag_18)\n    tag_17:\n      mload(0x40)\n      dup1\n      swap2\n      sub\n      swap1\n      return\n        /* \"contracts/fun_stuff.sol\":969:1511  function getMemberValue() public view returns (uint[] memory, string[] memory, bool[] memory) {\r... */\n    tag_5:\n      tag_19\n      tag_20\n      jump\t// in\n    tag_19:\n      mload(0x40)\n      tag_21\n      swap4\n      swap3\n      swap2\n      swap1\n      jump(tag_22)\n    tag_21:\n      mload(0x40)\n      dup1\n      swap2\n      sub\n      swap1\n      return\n        /* \"contracts/fun_stuff.sol\":476:638  function addMember(string memory _name, bool _isVote) public {\r... */\n    tag_6:\n      tag_23\n      0x04\n      dup1\n      calldatasize\n      sub\n      tag_24\n      swap2\n      swap1\n      dup2\n      add\n      swap1\n      jump(tag_25)\n    tag_24:\n      tag_26\n      jump\t// in\n    tag_23:\n      stop\n        /* \"contracts/fun_stuff.sol\":646:755  function setVote(uint _memberId, bool _isVote) public {\r... */\n    tag_7:\n      tag_27\n      0x04\n      dup1\n      calldatasize\n      sub\n      tag_28\n      swap2\n      swap1\n      dup2\n      add\n      swap1\n      jump(tag_29)\n    tag_28:\n      tag_30\n      jump\t// in\n    tag_27:\n      stop\n        /* \"contracts/fun_stuff.sol\":799:921  function getMemberStructure(uint _memberId) public view returns(Member memory){\r... */\n    tag_8:\n      tag_31\n      0x04\n      dup1\n      calldatasize\n      sub\n      tag_32\n      swap2\n      swap1\n      dup2\n      add\n      swap1\n      jump(tag_15)\n    tag_32:\n      tag_33\n      jump\t// in\n    tag_31:\n      mload(0x40)\n      tag_34\n      swap2\n      swap1\n      jump(tag_35)\n    tag_34:\n      mload(0x40)\n      dup1\n      swap2\n      sub\n      swap1\n      return\n        /* \"contracts/fun_stuff.sol\":308:331  uint public memberCount */\n    tag_10:\n      sload(0x01)\n      dup2\n      jump\t// out\n        /* \"contracts/fun_stuff.sol\":214:253  mapping (uint => Member) public members */\n    tag_16:\n      mstore(0x20, 0x00)\n      dup1\n      0x00\n      mstore\n      keccak256(0x00, 0x40)\n      0x00\n      swap2\n      pop\n      swap1\n      pop\n      dup1\n      0x00\n      add\n      sload\n      swap1\n      dup1\n      0x01\n      add\n      dup1\n      sload\n      0x01\n      dup2\n      0x01\n      and\n      iszero\n      0x0100\n      mul\n      sub\n      and\n      0x02\n      swap1\n      div\n      dup1\n      0x1f\n      add\n      0x20\n      dup1\n      swap2\n      div\n      mul\n      0x20\n      add\n      mload(0x40)\n      swap1\n      dup2\n      add\n      0x40\n      mstore\n      dup1\n      swap3\n      swap2\n      swap1\n      dup2\n      dup2\n      mstore\n      0x20\n      add\n      dup3\n      dup1\n      sload\n      0x01\n      dup2\n      0x01\n      and\n      iszero\n      0x0100\n      mul\n      sub\n      and\n      0x02\n      swap1\n      div\n      dup1\n      iszero\n      tag_36\n      jumpi\n      dup1\n      0x1f\n      lt\n      tag_37\n      jumpi\n      0x0100\n      dup1\n      dup4\n      sload\n      div\n      mul\n      dup4\n      mstore\n      swap2\n      0x20\n      add\n      swap2\n      jump(tag_36)\n    tag_37:\n      dup3\n      add\n      swap2\n      swap1\n      0x00\n      mstore\n      keccak256(0x00, 0x20)\n      swap1\n    tag_38:\n      dup2\n      sload\n      dup2\n      mstore\n      swap1\n      0x01\n      add\n      swap1\n      0x20\n      add\n      dup1\n      dup4\n      gt\n      tag_38\n      jumpi\n      dup3\n      swap1\n      sub\n      0x1f\n      and\n      dup3\n      add\n      swap2\n    tag_36:\n      pop\n      pop\n      pop\n      pop\n      pop\n      swap1\n      dup1\n      0x02\n      add\n      0x00\n      swap1\n      sload\n      swap1\n      0x0100\n      exp\n      swap1\n      div\n      0xff\n      and\n      swap1\n      pop\n      dup4\n      jump\t// out\n        /* \"contracts/fun_stuff.sol\":969:1511  function getMemberValue() public view returns (uint[] memory, string[] memory, bool[] memory) {\r... */\n    tag_20:\n        /* \"contracts/fun_stuff.sol\":1016:1029  uint[] memory */\n      0x60\n        /* \"contracts/fun_stuff.sol\":1031:1046  string[] memory */\n      dup1\n        /* \"contracts/fun_stuff.sol\":1048:1061  bool[] memory */\n      0x60\n        /* \"contracts/fun_stuff.sol\":1074:1095  uint[]      memory id */\n      dup1\n        /* \"contracts/fun_stuff.sol\":1109:1120  memberCount */\n      sload(0x01)\n        /* \"contracts/fun_stuff.sol\":1098:1121  new uint[](memberCount) */\n      mload(0x40)\n      swap1\n      dup1\n      dup3\n      mstore\n      dup1\n      0x20\n      mul\n      0x20\n      add\n      dup3\n      add\n      0x40\n      mstore\n      dup1\n      iszero\n      tag_40\n      jumpi\n      dup2\n      0x20\n      add\n        /* \"--CODEGEN--\":29:31   */\n      0x20\n        /* \"--CODEGEN--\":21:27   */\n      dup3\n        /* \"--CODEGEN--\":17:32   */\n      mul\n        /* \"--CODEGEN--\":117:121   */\n      dup1\n        /* \"--CODEGEN--\":105:115   */\n      codesize\n        /* \"--CODEGEN--\":97:103   */\n      dup4\n        /* \"--CODEGEN--\":88:122   */\n      codecopy\n        /* \"--CODEGEN--\":148:152   */\n      dup1\n        /* \"--CODEGEN--\":140:146   */\n      dup3\n        /* \"--CODEGEN--\":136:153   */\n      add\n        /* \"--CODEGEN--\":126:153   */\n      swap2\n      pop\n        /* \"--CODEGEN--\":0:157   */\n      pop\n        /* \"contracts/fun_stuff.sol\":1098:1121  new uint[](memberCount) */\n      swap1\n      pop\n    tag_40:\n      pop\n        /* \"contracts/fun_stuff.sol\":1074:1121  uint[]      memory id = new uint[](memberCount) */\n      swap1\n      pop\n        /* \"contracts/fun_stuff.sol\":1132:1155  string[]    memory name */\n      0x60\n        /* \"contracts/fun_stuff.sol\":1171:1182  memberCount */\n      sload(0x01)\n        /* \"contracts/fun_stuff.sol\":1158:1183  new string[](memberCount) */\n      mload(0x40)\n      swap1\n      dup1\n      dup3\n      mstore\n      dup1\n      0x20\n      mul\n      0x20\n      add\n      dup3\n      add\n      0x40\n      mstore\n      dup1\n      iszero\n      tag_41\n      jumpi\n      dup2\n      0x20\n      add\n    tag_42:\n      0x60\n      dup2\n      mstore\n      0x20\n      add\n      swap1\n      0x01\n      swap1\n      sub\n      swap1\n      dup2\n      tag_42\n      jumpi\n      swap1\n      pop\n    tag_41:\n      pop\n        /* \"contracts/fun_stuff.sol\":1132:1183  string[]    memory name = new string[](memberCount) */\n      swap1\n      pop\n        /* \"contracts/fun_stuff.sol\":1194:1220  bool[]      memory isVoted */\n      0x60\n        /* \"contracts/fun_stuff.sol\":1234:1245  memberCount */\n      sload(0x01)\n        /* \"contracts/fun_stuff.sol\":1223:1246  new bool[](memberCount) */\n      mload(0x40)\n      swap1\n      dup1\n      dup3\n      mstore\n      dup1\n      0x20\n      mul\n      0x20\n      add\n      dup3\n      add\n      0x40\n      mstore\n      dup1\n      iszero\n      tag_43\n      jumpi\n      dup2\n      0x20\n      add\n        /* \"--CODEGEN--\":29:31   */\n      0x20\n        /* \"--CODEGEN--\":21:27   */\n      dup3\n        /* \"--CODEGEN--\":17:32   */\n      mul\n        /* \"--CODEGEN--\":117:121   */\n      dup1\n        /* \"--CODEGEN--\":105:115   */\n      codesize\n        /* \"--CODEGEN--\":97:103   */\n      dup4\n        /* \"--CODEGEN--\":88:122   */\n      codecopy\n        /* \"--CODEGEN--\":148:152   */\n      dup1\n        /* \"--CODEGEN--\":140:146   */\n      dup3\n        /* \"--CODEGEN--\":136:153   */\n      add\n        /* \"--CODEGEN--\":126:153   */\n      swap2\n      pop\n        /* \"--CODEGEN--\":0:157   */\n      pop\n        /* \"contracts/fun_stuff.sol\":1223:1246  new bool[](memberCount) */\n      swap1\n      pop\n    tag_43:\n      pop\n        /* \"contracts/fun_stuff.sol\":1194:1246  bool[]      memory isVoted = new bool[](memberCount) */\n      swap1\n      pop\n        /* \"contracts/fun_stuff.sol\":1262:1268  uint i */\n      0x00\n        /* \"contracts/fun_stuff.sol\":1271:1272  0 */\n      dup1\n        /* \"contracts/fun_stuff.sol\":1262:1272  uint i = 0 */\n      swap1\n      pop\n        /* \"contracts/fun_stuff.sol\":1257:1467  for (uint i = 0; i < memberCount; i++) {\r... */\n    tag_44:\n        /* \"contracts/fun_stuff.sol\":1278:1289  memberCount */\n      sload(0x01)\n        /* \"contracts/fun_stuff.sol\":1274:1275  i */\n      dup2\n        /* \"contracts/fun_stuff.sol\":1274:1289  i < memberCount */\n      lt\n        /* \"contracts/fun_stuff.sol\":1257:1467  for (uint i = 0; i < memberCount; i++) {\r... */\n      iszero\n      tag_45\n      jumpi\n        /* \"contracts/fun_stuff.sol\":1311:1332  Member storage member */\n      0x00\n        /* \"contracts/fun_stuff.sol\":1335:1342  members */\n      dup1\n        /* \"contracts/fun_stuff.sol\":1335:1345  members[i] */\n      0x00\n        /* \"contracts/fun_stuff.sol\":1343:1344  i */\n      dup4\n        /* \"contracts/fun_stuff.sol\":1335:1345  members[i] */\n      dup2\n      mstore\n      0x20\n      add\n      swap1\n      dup2\n      mstore\n      0x20\n      add\n      0x00\n      keccak256\n        /* \"contracts/fun_stuff.sol\":1311:1345  Member storage member = members[i] */\n      swap1\n      pop\n        /* \"contracts/fun_stuff.sol\":1368:1374  member */\n      dup1\n        /* \"contracts/fun_stuff.sol\":1368:1377  member.id */\n      0x00\n      add\n      sload\n        /* \"contracts/fun_stuff.sol\":1360:1362  id */\n      dup6\n        /* \"contracts/fun_stuff.sol\":1363:1364  i */\n      dup4\n        /* \"contracts/fun_stuff.sol\":1360:1365  id[i] */\n      dup2\n      mload\n      dup2\n      lt\n      tag_47\n      jumpi\n      invalid\n    tag_47:\n      0x20\n      mul\n      0x20\n      add\n      add\n        /* \"contracts/fun_stuff.sol\":1360:1377  id[i] = member.id */\n      dup2\n      dup2\n      mstore\n      pop\n      pop\n        /* \"contracts/fun_stuff.sol\":1402:1408  member */\n      dup1\n        /* \"contracts/fun_stuff.sol\":1402:1413  member.name */\n      0x01\n      add\n        /* \"contracts/fun_stuff.sol\":1392:1413  name[i] = member.name */\n      dup1\n      sload\n      0x01\n      dup2\n      0x01\n      and\n      iszero\n      0x0100\n      mul\n      sub\n      and\n      0x02\n      swap1\n      div\n      dup1\n      0x1f\n      add\n      0x20\n      dup1\n      swap2\n      div\n      mul\n      0x20\n      add\n      mload(0x40)\n      swap1\n      dup2\n      add\n      0x40\n      mstore\n      dup1\n      swap3\n      swap2\n      swap1\n      dup2\n      dup2\n      mstore\n      0x20\n      add\n      dup3\n      dup1\n      sload\n      0x01\n      dup2\n      0x01\n      and\n      iszero\n      0x0100\n      mul\n      sub\n      and\n      0x02\n      swap1\n      div\n      dup1\n      iszero\n      tag_48\n      jumpi\n      dup1\n      0x1f\n      lt\n      tag_49\n      jumpi\n      0x0100\n      dup1\n      dup4\n      sload\n      div\n      mul\n      dup4\n      mstore\n      swap2\n      0x20\n      add\n      swap2\n      jump(tag_48)\n    tag_49:\n      dup3\n      add\n      swap2\n      swap1\n      0x00\n      mstore\n      keccak256(0x00, 0x20)\n      swap1\n    tag_50:\n      dup2\n      sload\n      dup2\n      mstore\n      swap1\n      0x01\n      add\n      swap1\n      0x20\n      add\n      dup1\n      dup4\n      gt\n      tag_50\n      jumpi\n      dup3\n      swap1\n      sub\n      0x1f\n      and\n      dup3\n      add\n      swap2\n    tag_48:\n      pop\n      pop\n      pop\n      pop\n      pop\n        /* \"contracts/fun_stuff.sol\":1392:1396  name */\n      dup5\n        /* \"contracts/fun_stuff.sol\":1397:1398  i */\n      dup4\n        /* \"contracts/fun_stuff.sol\":1392:1399  name[i] */\n      dup2\n      mload\n      dup2\n      lt\n      tag_51\n      jumpi\n      invalid\n    tag_51:\n      0x20\n      mul\n      0x20\n      add\n      add\n        /* \"contracts/fun_stuff.sol\":1392:1413  name[i] = member.name */\n      dup2\n      swap1\n      mstore\n      pop\n        /* \"contracts/fun_stuff.sol\":1441:1447  member */\n      dup1\n        /* \"contracts/fun_stuff.sol\":1441:1455  member.isVoted */\n      0x02\n      add\n      0x00\n      swap1\n      sload\n      swap1\n      0x0100\n      exp\n      swap1\n      div\n      0xff\n      and\n        /* \"contracts/fun_stuff.sol\":1428:1435  isVoted */\n      dup4\n        /* \"contracts/fun_stuff.sol\":1436:1437  i */\n      dup4\n        /* \"contracts/fun_stuff.sol\":1428:1438  isVoted[i] */\n      dup2\n      mload\n      dup2\n      lt\n      tag_52\n      jumpi\n      invalid\n    tag_52:\n      0x20\n      mul\n      0x20\n      add\n      add\n        /* \"contracts/fun_stuff.sol\":1428:1455  isVoted[i] = member.isVoted */\n      swap1\n      iszero\n      iszero\n      swap1\n      dup2\n      iszero\n      iszero\n      dup2\n      mstore\n      pop\n      pop\n        /* \"contracts/fun_stuff.sol\":1257:1467  for (uint i = 0; i < memberCount; i++) {\r... */\n      pop\n        /* \"contracts/fun_stuff.sol\":1291:1294  i++ */\n      dup1\n      dup1\n      0x01\n      add\n      swap2\n      pop\n      pop\n        /* \"contracts/fun_stuff.sol\":1257:1467  for (uint i = 0; i < memberCount; i++) {\r... */\n      jump(tag_44)\n    tag_45:\n      pop\n        /* \"contracts/fun_stuff.sol\":1485:1487  id */\n      dup3\n        /* \"contracts/fun_stuff.sol\":1489:1493  name */\n      dup3\n        /* \"contracts/fun_stuff.sol\":1495:1502  isVoted */\n      dup3\n        /* \"contracts/fun_stuff.sol\":1477:1503  return (id, name, isVoted) */\n      swap6\n      pop\n      swap6\n      pop\n      swap6\n      pop\n      pop\n      pop\n      pop\n        /* \"contracts/fun_stuff.sol\":969:1511  function getMemberValue() public view returns (uint[] memory, string[] memory, bool[] memory) {\r... */\n      swap1\n      swap2\n      swap3\n      jump\t// out\n        /* \"contracts/fun_stuff.sol\":476:638  function addMember(string memory _name, bool _isVote) public {\r... */\n    tag_26:\n        /* \"contracts/fun_stuff.sol\":571:606  Member(memberCount, _name, _isVote) */\n      mload(0x40)\n      dup1\n      0x60\n      add\n      0x40\n      mstore\n      dup1\n        /* \"contracts/fun_stuff.sol\":578:589  memberCount */\n      sload(0x01)\n        /* \"contracts/fun_stuff.sol\":571:606  Member(memberCount, _name, _isVote) */\n      dup2\n      mstore\n      0x20\n      add\n        /* \"contracts/fun_stuff.sol\":591:596  _name */\n      dup4\n        /* \"contracts/fun_stuff.sol\":571:606  Member(memberCount, _name, _isVote) */\n      dup2\n      mstore\n      0x20\n      add\n        /* \"contracts/fun_stuff.sol\":598:605  _isVote */\n      dup3\n        /* \"contracts/fun_stuff.sol\":571:606  Member(memberCount, _name, _isVote) */\n      iszero\n      iszero\n      dup2\n      mstore\n      pop\n        /* \"contracts/fun_stuff.sol\":548:555  members */\n      0x00\n        /* \"contracts/fun_stuff.sol\":548:568  members[memberCount] */\n      dup1\n        /* \"contracts/fun_stuff.sol\":556:567  memberCount */\n      sload(0x01)\n        /* \"contracts/fun_stuff.sol\":548:568  members[memberCount] */\n      dup2\n      mstore\n      0x20\n      add\n      swap1\n      dup2\n      mstore\n      0x20\n      add\n      0x00\n      keccak256\n        /* \"contracts/fun_stuff.sol\":548:606  members[memberCount] = Member(memberCount, _name, _isVote) */\n      0x00\n      dup3\n      add\n      mload\n      dup2\n      0x00\n      add\n      sstore\n      0x20\n      dup3\n      add\n      mload\n      dup2\n      0x01\n      add\n      swap1\n      dup1\n      mload\n      swap1\n      0x20\n      add\n      swap1\n      tag_54\n      swap3\n      swap2\n      swap1\n      tag_55\n      jump\t// in\n    tag_54:\n      pop\n      0x40\n      dup3\n      add\n      mload\n      dup2\n      0x02\n      add\n      exp(0x0100, 0x00)\n      dup2\n      sload\n      dup2\n      0xff\n      mul\n      not\n      and\n      swap1\n      dup4\n      iszero\n      iszero\n      mul\n      or\n      swap1\n      sstore\n      pop\n      swap1\n      pop\n      pop\n        /* \"contracts/fun_stuff.sol\":617:628  memberCount */\n      0x01\n      0x00\n        /* \"contracts/fun_stuff.sol\":617:630  memberCount++ */\n      dup2\n      sload\n      dup1\n      swap3\n      swap2\n      swap1\n      0x01\n      add\n      swap2\n      swap1\n      pop\n      sstore\n      pop\n        /* \"contracts/fun_stuff.sol\":476:638  function addMember(string memory _name, bool _isVote) public {\r... */\n      pop\n      pop\n      jump\t// out\n        /* \"contracts/fun_stuff.sol\":646:755  function setVote(uint _memberId, bool _isVote) public {\r... */\n    tag_30:\n        /* \"contracts/fun_stuff.sol\":740:747  _isVote */\n      dup1\n        /* \"contracts/fun_stuff.sol\":711:718  members */\n      0x00\n        /* \"contracts/fun_stuff.sol\":711:729  members[_memberId] */\n      dup1\n        /* \"contracts/fun_stuff.sol\":719:728  _memberId */\n      dup5\n        /* \"contracts/fun_stuff.sol\":711:729  members[_memberId] */\n      dup2\n      mstore\n      0x20\n      add\n      swap1\n      dup2\n      mstore\n      0x20\n      add\n      0x00\n      keccak256\n        /* \"contracts/fun_stuff.sol\":711:737  members[_memberId].isVoted */\n      0x02\n      add\n      0x00\n        /* \"contracts/fun_stuff.sol\":711:747  members[_memberId].isVoted = _isVote */\n      0x0100\n      exp\n      dup2\n      sload\n      dup2\n      0xff\n      mul\n      not\n      and\n      swap1\n      dup4\n      iszero\n      iszero\n      mul\n      or\n      swap1\n      sstore\n      pop\n        /* \"contracts/fun_stuff.sol\":646:755  function setVote(uint _memberId, bool _isVote) public {\r... */\n      pop\n      pop\n      jump\t// out\n        /* \"contracts/fun_stuff.sol\":799:921  function getMemberStructure(uint _memberId) public view returns(Member memory){\r... */\n    tag_33:\n        /* \"contracts/fun_stuff.sol\":863:876  Member memory */\n      tag_57\n      tag_58\n      jump\t// in\n    tag_57:\n        /* \"contracts/fun_stuff.sol\":895:902  members */\n      0x00\n        /* \"contracts/fun_stuff.sol\":895:913  members[_memberId] */\n      dup1\n        /* \"contracts/fun_stuff.sol\":903:912  _memberId */\n      dup4\n        /* \"contracts/fun_stuff.sol\":895:913  members[_memberId] */\n      dup2\n      mstore\n      0x20\n      add\n      swap1\n      dup2\n      mstore\n      0x20\n      add\n      0x00\n      keccak256\n        /* \"contracts/fun_stuff.sol\":888:913  return members[_memberId] */\n      mload(0x40)\n      dup1\n      0x60\n      add\n      0x40\n      mstore\n      swap1\n      dup2\n      0x00\n      dup3\n      add\n      sload\n      dup2\n      mstore\n      0x20\n      add\n      0x01\n      dup3\n      add\n      dup1\n      sload\n      0x01\n      dup2\n      0x01\n      and\n      iszero\n      0x0100\n      mul\n      sub\n      and\n      0x02\n      swap1\n      div\n      dup1\n      0x1f\n      add\n      0x20\n      dup1\n      swap2\n      div\n      mul\n      0x20\n      add\n      mload(0x40)\n      swap1\n      dup2\n      add\n      0x40\n      mstore\n      dup1\n      swap3\n      swap2\n      swap1\n      dup2\n      dup2\n      mstore\n      0x20\n      add\n      dup3\n      dup1\n      sload\n      0x01\n      dup2\n      0x01\n      and\n      iszero\n      0x0100\n      mul\n      sub\n      and\n      0x02\n      swap1\n      div\n      dup1\n      iszero\n      tag_60\n      jumpi\n      dup1\n      0x1f\n      lt\n      tag_61\n      jumpi\n      0x0100\n      dup1\n      dup4\n      sload\n      div\n      mul\n      dup4\n      mstore\n      swap2\n      0x20\n      add\n      swap2\n      jump(tag_60)\n    tag_61:\n      dup3\n      add\n      swap2\n      swap1\n      0x00\n      mstore\n      keccak256(0x00, 0x20)\n      swap1\n    tag_62:\n      dup2\n      sload\n      dup2\n      mstore\n      swap1\n      0x01\n      add\n      swap1\n      0x20\n      add\n      dup1\n      dup4\n      gt\n      tag_62\n      jumpi\n      dup3\n      swap1\n      sub\n      0x1f\n      and\n      dup3\n      add\n      swap2\n    tag_60:\n      pop\n      pop\n      pop\n      pop\n      pop\n      dup2\n      mstore\n      0x20\n      add\n      0x02\n      dup3\n      add\n      0x00\n      swap1\n      sload\n      swap1\n      0x0100\n      exp\n      swap1\n      div\n      0xff\n      and\n      iszero\n      iszero\n      iszero\n      iszero\n      dup2\n      mstore\n      pop\n      pop\n      swap1\n      pop\n        /* \"contracts/fun_stuff.sol\":799:921  function getMemberStructure(uint _memberId) public view returns(Member memory){\r... */\n      swap2\n      swap1\n      pop\n      jump\t// out\n        /* \"contracts/fun_stuff.sol\":95:1519  contract VoteSaving {\r... */\n    tag_55:\n      dup3\n      dup1\n      sload\n      0x01\n      dup2\n      0x01\n      and\n      iszero\n      0x0100\n      mul\n      sub\n      and\n      0x02\n      swap1\n      div\n      swap1\n      0x00\n      mstore\n      keccak256(0x00, 0x20)\n      swap1\n      0x1f\n      add\n      0x20\n      swap1\n      div\n      dup2\n      add\n      swap3\n      dup3\n      0x1f\n      lt\n      tag_64\n      jumpi\n      dup1\n      mload\n      not(0xff)\n      and\n      dup4\n      dup1\n      add\n      or\n      dup6\n      sstore\n      jump(tag_63)\n    tag_64:\n      dup3\n      dup1\n      add\n      0x01\n      add\n      dup6\n      sstore\n      dup3\n      iszero\n      tag_63\n      jumpi\n      swap2\n      dup3\n      add\n    tag_65:\n      dup3\n      dup2\n      gt\n      iszero\n      tag_66\n      jumpi\n      dup3\n      mload\n      dup3\n      sstore\n      swap2\n      0x20\n      add\n      swap2\n      swap1\n      0x01\n      add\n      swap1\n      jump(tag_65)\n    tag_66:\n    tag_63:\n      pop\n      swap1\n      pop\n      tag_67\n      swap2\n      swap1\n      tag_68\n      jump\t// in\n    tag_67:\n      pop\n      swap1\n      jump\t// out\n    tag_58:\n      mload(0x40)\n      dup1\n      0x60\n      add\n      0x40\n      mstore\n      dup1\n      0x00\n      dup2\n      mstore\n      0x20\n      add\n      0x60\n      dup2\n      mstore\n      0x20\n      add\n      iszero(iszero(0x00))\n      dup2\n      mstore\n      pop\n      swap1\n      jump\t// out\n    tag_68:\n      tag_69\n      swap2\n      swap1\n    tag_70:\n      dup1\n      dup3\n      gt\n      iszero\n      tag_71\n      jumpi\n      0x00\n      dup2\n      0x00\n      swap1\n      sstore\n      pop\n      0x01\n      add\n      jump(tag_70)\n    tag_71:\n      pop\n      swap1\n      jump\n    tag_69:\n      swap1\n      jump\t// out\n        /* \"--CODEGEN--\":5:129   */\n    tag_73:\n      0x00\n        /* \"--CODEGEN--\":82:88   */\n      dup2\n        /* \"--CODEGEN--\":69:89   */\n      calldataload\n        /* \"--CODEGEN--\":60:89   */\n      swap1\n      pop\n        /* \"--CODEGEN--\":94:124   */\n      tag_75\n        /* \"--CODEGEN--\":118:123   */\n      dup2\n        /* \"--CODEGEN--\":94:124   */\n      jump(tag_76)\n    tag_75:\n        /* \"--CODEGEN--\":54:129   */\n      swap3\n      swap2\n      pop\n      pop\n      jump\n        /* \"--CODEGEN--\":137:579   */\n    tag_77:\n      0x00\n        /* \"--CODEGEN--\":239:242   */\n      dup3\n        /* \"--CODEGEN--\":232:236   */\n      0x1f\n        /* \"--CODEGEN--\":224:230   */\n      dup4\n        /* \"--CODEGEN--\":220:237   */\n      add\n        /* \"--CODEGEN--\":216:243   */\n      slt\n        /* \"--CODEGEN--\":206:208   */\n      tag_79\n      jumpi\n        /* \"--CODEGEN--\":257:258   */\n      0x00\n        /* \"--CODEGEN--\":254:255   */\n      dup1\n        /* \"--CODEGEN--\":247:259   */\n      revert\n        /* \"--CODEGEN--\":206:208   */\n    tag_79:\n        /* \"--CODEGEN--\":294:300   */\n      dup2\n        /* \"--CODEGEN--\":281:301   */\n      calldataload\n        /* \"--CODEGEN--\":316:381   */\n      tag_80\n        /* \"--CODEGEN--\":331:380   */\n      tag_81\n        /* \"--CODEGEN--\":373:379   */\n      dup3\n        /* \"--CODEGEN--\":331:380   */\n      jump(tag_82)\n    tag_81:\n        /* \"--CODEGEN--\":316:381   */\n      jump(tag_83)\n    tag_80:\n        /* \"--CODEGEN--\":307:381   */\n      swap2\n      pop\n        /* \"--CODEGEN--\":401:407   */\n      dup1\n        /* \"--CODEGEN--\":394:399   */\n      dup3\n        /* \"--CODEGEN--\":387:408   */\n      mstore\n        /* \"--CODEGEN--\":437:441   */\n      0x20\n        /* \"--CODEGEN--\":429:435   */\n      dup4\n        /* \"--CODEGEN--\":425:442   */\n      add\n        /* \"--CODEGEN--\":470:474   */\n      0x20\n        /* \"--CODEGEN--\":463:468   */\n      dup4\n        /* \"--CODEGEN--\":459:475   */\n      add\n        /* \"--CODEGEN--\":505:508   */\n      dup6\n        /* \"--CODEGEN--\":496:502   */\n      dup4\n        /* \"--CODEGEN--\":491:494   */\n      dup4\n        /* \"--CODEGEN--\":487:503   */\n      add\n        /* \"--CODEGEN--\":484:509   */\n      gt\n        /* \"--CODEGEN--\":481:483   */\n      iszero\n      tag_84\n      jumpi\n        /* \"--CODEGEN--\":522:523   */\n      0x00\n        /* \"--CODEGEN--\":519:520   */\n      dup1\n        /* \"--CODEGEN--\":512:524   */\n      revert\n        /* \"--CODEGEN--\":481:483   */\n    tag_84:\n        /* \"--CODEGEN--\":532:573   */\n      tag_85\n        /* \"--CODEGEN--\":566:572   */\n      dup4\n        /* \"--CODEGEN--\":561:564   */\n      dup3\n        /* \"--CODEGEN--\":556:559   */\n      dup5\n        /* \"--CODEGEN--\":532:573   */\n      jump(tag_86)\n    tag_85:\n        /* \"--CODEGEN--\":199:579   */\n      pop\n      pop\n      pop\n      swap3\n      swap2\n      pop\n      pop\n      jump\n        /* \"--CODEGEN--\":587:717   */\n    tag_87:\n      0x00\n        /* \"--CODEGEN--\":667:673   */\n      dup2\n        /* \"--CODEGEN--\":654:674   */\n      calldataload\n        /* \"--CODEGEN--\":645:674   */\n      swap1\n      pop\n        /* \"--CODEGEN--\":679:712   */\n      tag_89\n        /* \"--CODEGEN--\":706:711   */\n      dup2\n        /* \"--CODEGEN--\":679:712   */\n      jump(tag_90)\n    tag_89:\n        /* \"--CODEGEN--\":639:717   */\n      swap3\n      swap2\n      pop\n      pop\n      jump\n        /* \"--CODEGEN--\":724:1190   */\n    tag_25:\n      0x00\n      dup1\n        /* \"--CODEGEN--\":852:854   */\n      0x40\n        /* \"--CODEGEN--\":840:849   */\n      dup4\n        /* \"--CODEGEN--\":831:838   */\n      dup6\n        /* \"--CODEGEN--\":827:850   */\n      sub\n        /* \"--CODEGEN--\":823:855   */\n      slt\n        /* \"--CODEGEN--\":820:822   */\n      iszero\n      tag_92\n      jumpi\n        /* \"--CODEGEN--\":868:869   */\n      0x00\n        /* \"--CODEGEN--\":865:866   */\n      dup1\n        /* \"--CODEGEN--\":858:870   */\n      revert\n        /* \"--CODEGEN--\":820:822   */\n    tag_92:\n        /* \"--CODEGEN--\":931:932   */\n      0x00\n        /* \"--CODEGEN--\":920:929   */\n      dup4\n        /* \"--CODEGEN--\":916:933   */\n      add\n        /* \"--CODEGEN--\":903:934   */\n      calldataload\n        /* \"--CODEGEN--\":954:972   */\n      0xffffffffffffffff\n        /* \"--CODEGEN--\":946:952   */\n      dup2\n        /* \"--CODEGEN--\":943:973   */\n      gt\n        /* \"--CODEGEN--\":940:942   */\n      iszero\n      tag_93\n      jumpi\n        /* \"--CODEGEN--\":986:987   */\n      0x00\n        /* \"--CODEGEN--\":983:984   */\n      dup1\n        /* \"--CODEGEN--\":976:988   */\n      revert\n        /* \"--CODEGEN--\":940:942   */\n    tag_93:\n        /* \"--CODEGEN--\":1006:1069   */\n      tag_94\n        /* \"--CODEGEN--\":1061:1068   */\n      dup6\n        /* \"--CODEGEN--\":1052:1058   */\n      dup3\n        /* \"--CODEGEN--\":1041:1050   */\n      dup7\n        /* \"--CODEGEN--\":1037:1059   */\n      add\n        /* \"--CODEGEN--\":1006:1069   */\n      jump(tag_77)\n    tag_94:\n        /* \"--CODEGEN--\":996:1069   */\n      swap3\n      pop\n        /* \"--CODEGEN--\":882:1075   */\n      pop\n        /* \"--CODEGEN--\":1106:1108   */\n      0x20\n        /* \"--CODEGEN--\":1124:1174   */\n      tag_95\n        /* \"--CODEGEN--\":1166:1173   */\n      dup6\n        /* \"--CODEGEN--\":1157:1163   */\n      dup3\n        /* \"--CODEGEN--\":1146:1155   */\n      dup7\n        /* \"--CODEGEN--\":1142:1164   */\n      add\n        /* \"--CODEGEN--\":1124:1174   */\n      jump(tag_73)\n    tag_95:\n        /* \"--CODEGEN--\":1114:1174   */\n      swap2\n      pop\n        /* \"--CODEGEN--\":1085:1180   */\n      pop\n        /* \"--CODEGEN--\":814:1190   */\n      swap3\n      pop\n      swap3\n      swap1\n      pop\n      jump\n        /* \"--CODEGEN--\":1197:1438   */\n    tag_15:\n      0x00\n        /* \"--CODEGEN--\":1301:1303   */\n      0x20\n        /* \"--CODEGEN--\":1289:1298   */\n      dup3\n        /* \"--CODEGEN--\":1280:1287   */\n      dup5\n        /* \"--CODEGEN--\":1276:1299   */\n      sub\n        /* \"--CODEGEN--\":1272:1304   */\n      slt\n        /* \"--CODEGEN--\":1269:1271   */\n      iszero\n      tag_97\n      jumpi\n        /* \"--CODEGEN--\":1317:1318   */\n      0x00\n        /* \"--CODEGEN--\":1314:1315   */\n      dup1\n        /* \"--CODEGEN--\":1307:1319   */\n      revert\n        /* \"--CODEGEN--\":1269:1271   */\n    tag_97:\n        /* \"--CODEGEN--\":1352:1353   */\n      0x00\n        /* \"--CODEGEN--\":1369:1422   */\n      tag_98\n        /* \"--CODEGEN--\":1414:1421   */\n      dup5\n        /* \"--CODEGEN--\":1405:1411   */\n      dup3\n        /* \"--CODEGEN--\":1394:1403   */\n      dup6\n        /* \"--CODEGEN--\":1390:1412   */\n      add\n        /* \"--CODEGEN--\":1369:1422   */\n      jump(tag_87)\n    tag_98:\n        /* \"--CODEGEN--\":1359:1422   */\n      swap2\n      pop\n        /* \"--CODEGEN--\":1331:1428   */\n      pop\n        /* \"--CODEGEN--\":1263:1438   */\n      swap3\n      swap2\n      pop\n      pop\n      jump\n        /* \"--CODEGEN--\":1445:1805   */\n    tag_29:\n      0x00\n      dup1\n        /* \"--CODEGEN--\":1563:1565   */\n      0x40\n        /* \"--CODEGEN--\":1551:1560   */\n      dup4\n        /* \"--CODEGEN--\":1542:1549   */\n      dup6\n        /* \"--CODEGEN--\":1538:1561   */\n      sub\n        /* \"--CODEGEN--\":1534:1566   */\n      slt\n        /* \"--CODEGEN--\":1531:1533   */\n      iszero\n      tag_100\n      jumpi\n        /* \"--CODEGEN--\":1579:1580   */\n      0x00\n        /* \"--CODEGEN--\":1576:1577   */\n      dup1\n        /* \"--CODEGEN--\":1569:1581   */\n      revert\n        /* \"--CODEGEN--\":1531:1533   */\n    tag_100:\n        /* \"--CODEGEN--\":1614:1615   */\n      0x00\n        /* \"--CODEGEN--\":1631:1684   */\n      tag_101\n        /* \"--CODEGEN--\":1676:1683   */\n      dup6\n        /* \"--CODEGEN--\":1667:1673   */\n      dup3\n        /* \"--CODEGEN--\":1656:1665   */\n      dup7\n        /* \"--CODEGEN--\":1652:1674   */\n      add\n        /* \"--CODEGEN--\":1631:1684   */\n      jump(tag_87)\n    tag_101:\n        /* \"--CODEGEN--\":1621:1684   */\n      swap3\n      pop\n        /* \"--CODEGEN--\":1593:1690   */\n      pop\n        /* \"--CODEGEN--\":1721:1723   */\n      0x20\n        /* \"--CODEGEN--\":1739:1789   */\n      tag_102\n        /* \"--CODEGEN--\":1781:1788   */\n      dup6\n        /* \"--CODEGEN--\":1772:1778   */\n      dup3\n        /* \"--CODEGEN--\":1761:1770   */\n      dup7\n        /* \"--CODEGEN--\":1757:1779   */\n      add\n        /* \"--CODEGEN--\":1739:1789   */\n      jump(tag_73)\n    tag_102:\n        /* \"--CODEGEN--\":1729:1789   */\n      swap2\n      pop\n        /* \"--CODEGEN--\":1700:1795   */\n      pop\n        /* \"--CODEGEN--\":1525:1805   */\n      swap3\n      pop\n      swap3\n      swap1\n      pop\n      jump\n        /* \"--CODEGEN--\":1813:1974   */\n    tag_103:\n      0x00\n        /* \"--CODEGEN--\":1894:1934   */\n      tag_105\n        /* \"--CODEGEN--\":1930:1933   */\n      dup4\n        /* \"--CODEGEN--\":1922:1928   */\n      dup4\n        /* \"--CODEGEN--\":1894:1934   */\n      jump(tag_106)\n    tag_105:\n        /* \"--CODEGEN--\":1963:1967   */\n      0x20\n        /* \"--CODEGEN--\":1958:1961   */\n      dup4\n        /* \"--CODEGEN--\":1954:1968   */\n      add\n        /* \"--CODEGEN--\":1940:1968   */\n      swap1\n      pop\n        /* \"--CODEGEN--\":1887:1974   */\n      swap3\n      swap2\n      pop\n      pop\n      jump\n        /* \"--CODEGEN--\":1983:2164   */\n    tag_107:\n      0x00\n        /* \"--CODEGEN--\":2096:2158   */\n      tag_109\n        /* \"--CODEGEN--\":2154:2157   */\n      dup4\n        /* \"--CODEGEN--\":2146:2152   */\n      dup4\n        /* \"--CODEGEN--\":2096:2158   */\n      jump(tag_110)\n    tag_109:\n        /* \"--CODEGEN--\":2082:2158   */\n      swap1\n      pop\n        /* \"--CODEGEN--\":2075:2164   */\n      swap3\n      swap2\n      pop\n      pop\n      jump\n        /* \"--CODEGEN--\":2173:2346   */\n    tag_111:\n      0x00\n        /* \"--CODEGEN--\":2260:2306   */\n      tag_113\n        /* \"--CODEGEN--\":2302:2305   */\n      dup4\n        /* \"--CODEGEN--\":2294:2300   */\n      dup4\n        /* \"--CODEGEN--\":2260:2306   */\n      jump(tag_114)\n    tag_113:\n        /* \"--CODEGEN--\":2335:2339   */\n      0x20\n        /* \"--CODEGEN--\":2330:2333   */\n      dup4\n        /* \"--CODEGEN--\":2326:2340   */\n      add\n        /* \"--CODEGEN--\":2312:2340   */\n      swap1\n      pop\n        /* \"--CODEGEN--\":2253:2346   */\n      swap3\n      swap2\n      pop\n      pop\n      jump\n        /* \"--CODEGEN--\":2379:3045   */\n    tag_115:\n      0x00\n        /* \"--CODEGEN--\":2518:2569   */\n      tag_117\n        /* \"--CODEGEN--\":2563:2568   */\n      dup3\n        /* \"--CODEGEN--\":2518:2569   */\n      jump(tag_118)\n    tag_117:\n        /* \"--CODEGEN--\":2582:2665   */\n      tag_119\n        /* \"--CODEGEN--\":2658:2664   */\n      dup2\n        /* \"--CODEGEN--\":2653:2656   */\n      dup6\n        /* \"--CODEGEN--\":2582:2665   */\n      jump(tag_120)\n    tag_119:\n        /* \"--CODEGEN--\":2575:2665   */\n      swap4\n      pop\n        /* \"--CODEGEN--\":2686:2739   */\n      tag_121\n        /* \"--CODEGEN--\":2733:2738   */\n      dup4\n        /* \"--CODEGEN--\":2686:2739   */\n      jump(tag_122)\n    tag_121:\n        /* \"--CODEGEN--\":2759:2766   */\n      dup1\n        /* \"--CODEGEN--\":2787:2788   */\n      0x00\n        /* \"--CODEGEN--\":2772:3023   */\n    tag_123:\n        /* \"--CODEGEN--\":2797:2803   */\n      dup4\n        /* \"--CODEGEN--\":2794:2795   */\n      dup2\n        /* \"--CODEGEN--\":2791:2804   */\n      lt\n        /* \"--CODEGEN--\":2772:3023   */\n      iszero\n      tag_125\n      jumpi\n        /* \"--CODEGEN--\":2864:2870   */\n      dup2\n        /* \"--CODEGEN--\":2858:2871   */\n      mload\n        /* \"--CODEGEN--\":2885:2942   */\n      tag_126\n        /* \"--CODEGEN--\":2938:2941   */\n      dup9\n        /* \"--CODEGEN--\":2923:2936   */\n      dup3\n        /* \"--CODEGEN--\":2885:2942   */\n      jump(tag_103)\n    tag_126:\n        /* \"--CODEGEN--\":2878:2942   */\n      swap8\n      pop\n        /* \"--CODEGEN--\":2959:3016   */\n      tag_127\n        /* \"--CODEGEN--\":3009:3015   */\n      dup4\n        /* \"--CODEGEN--\":2959:3016   */\n      jump(tag_128)\n    tag_127:\n        /* \"--CODEGEN--\":2949:3016   */\n      swap3\n      pop\n        /* \"--CODEGEN--\":2829:3023   */\n      pop\n        /* \"--CODEGEN--\":2819:2820   */\n      0x01\n        /* \"--CODEGEN--\":2816:2817   */\n      dup2\n        /* \"--CODEGEN--\":2812:2821   */\n      add\n        /* \"--CODEGEN--\":2807:2821   */\n      swap1\n      pop\n        /* \"--CODEGEN--\":2772:3023   */\n      jump(tag_123)\n    tag_125:\n        /* \"--CODEGEN--\":2776:2790   */\n      pop\n        /* \"--CODEGEN--\":3036:3039   */\n      dup6\n        /* \"--CODEGEN--\":3029:3039   */\n      swap4\n      pop\n        /* \"--CODEGEN--\":2497:3045   */\n      pop\n      pop\n      pop\n      swap3\n      swap2\n      pop\n      pop\n      jump\n        /* \"--CODEGEN--\":3082:3978   */\n    tag_129:\n      0x00\n        /* \"--CODEGEN--\":3239:3299   */\n      tag_131\n        /* \"--CODEGEN--\":3293:3298   */\n      dup3\n        /* \"--CODEGEN--\":3239:3299   */\n      jump(tag_132)\n    tag_131:\n        /* \"--CODEGEN--\":3312:3404   */\n      tag_133\n        /* \"--CODEGEN--\":3397:3403   */\n      dup2\n        /* \"--CODEGEN--\":3392:3395   */\n      dup6\n        /* \"--CODEGEN--\":3312:3404   */\n      jump(tag_134)\n    tag_133:\n        /* \"--CODEGEN--\":3305:3404   */\n      swap4\n      pop\n        /* \"--CODEGEN--\":3427:3430   */\n      dup4\n        /* \"--CODEGEN--\":3469:3473   */\n      0x20\n        /* \"--CODEGEN--\":3461:3467   */\n      dup3\n        /* \"--CODEGEN--\":3457:3474   */\n      mul\n        /* \"--CODEGEN--\":3452:3455   */\n      dup6\n        /* \"--CODEGEN--\":3448:3475   */\n      add\n        /* \"--CODEGEN--\":3496:3558   */\n      tag_135\n        /* \"--CODEGEN--\":3552:3557   */\n      dup6\n        /* \"--CODEGEN--\":3496:3558   */\n      jump(tag_136)\n    tag_135:\n        /* \"--CODEGEN--\":3578:3585   */\n      dup1\n        /* \"--CODEGEN--\":3606:3607   */\n      0x00\n        /* \"--CODEGEN--\":3591:3939   */\n    tag_137:\n        /* \"--CODEGEN--\":3616:3622   */\n      dup6\n        /* \"--CODEGEN--\":3613:3614   */\n      dup2\n        /* \"--CODEGEN--\":3610:3623   */\n      lt\n        /* \"--CODEGEN--\":3591:3939   */\n      iszero\n      tag_139\n      jumpi\n        /* \"--CODEGEN--\":3678:3687   */\n      dup5\n        /* \"--CODEGEN--\":3672:3676   */\n      dup5\n        /* \"--CODEGEN--\":3668:3688   */\n      sub\n        /* \"--CODEGEN--\":3663:3666   */\n      dup10\n        /* \"--CODEGEN--\":3656:3689   */\n      mstore\n        /* \"--CODEGEN--\":3723:3729   */\n      dup2\n        /* \"--CODEGEN--\":3717:3730   */\n      mload\n        /* \"--CODEGEN--\":3745:3821   */\n      tag_140\n        /* \"--CODEGEN--\":3816:3820   */\n      dup6\n        /* \"--CODEGEN--\":3801:3814   */\n      dup3\n        /* \"--CODEGEN--\":3745:3821   */\n      jump(tag_107)\n    tag_140:\n        /* \"--CODEGEN--\":3737:3821   */\n      swap5\n      pop\n        /* \"--CODEGEN--\":3838:3904   */\n      tag_141\n        /* \"--CODEGEN--\":3897:3903   */\n      dup4\n        /* \"--CODEGEN--\":3838:3904   */\n      jump(tag_142)\n    tag_141:\n        /* \"--CODEGEN--\":3828:3904   */\n      swap3\n      pop\n        /* \"--CODEGEN--\":3927:3931   */\n      0x20\n        /* \"--CODEGEN--\":3922:3925   */\n      dup11\n        /* \"--CODEGEN--\":3918:3932   */\n      add\n        /* \"--CODEGEN--\":3911:3932   */\n      swap10\n      pop\n        /* \"--CODEGEN--\":3648:3939   */\n      pop\n        /* \"--CODEGEN--\":3638:3639   */\n      0x01\n        /* \"--CODEGEN--\":3635:3636   */\n      dup2\n        /* \"--CODEGEN--\":3631:3640   */\n      add\n        /* \"--CODEGEN--\":3626:3640   */\n      swap1\n      pop\n        /* \"--CODEGEN--\":3591:3939   */\n      jump(tag_137)\n    tag_139:\n        /* \"--CODEGEN--\":3595:3609   */\n      pop\n        /* \"--CODEGEN--\":3952:3956   */\n      dup3\n        /* \"--CODEGEN--\":3945:3956   */\n      swap8\n      pop\n        /* \"--CODEGEN--\":3969:3972   */\n      dup8\n        /* \"--CODEGEN--\":3962:3972   */\n      swap6\n      pop\n        /* \"--CODEGEN--\":3218:3978   */\n      pop\n      pop\n      pop\n      pop\n      pop\n      swap3\n      swap2\n      pop\n      pop\n      jump\n        /* \"--CODEGEN--\":4017:4707   */\n    tag_143:\n      0x00\n        /* \"--CODEGEN--\":4162:4216   */\n      tag_145\n        /* \"--CODEGEN--\":4210:4215   */\n      dup3\n        /* \"--CODEGEN--\":4162:4216   */\n      jump(tag_146)\n    tag_145:\n        /* \"--CODEGEN--\":4229:4315   */\n      tag_147\n        /* \"--CODEGEN--\":4308:4314   */\n      dup2\n        /* \"--CODEGEN--\":4303:4306   */\n      dup6\n        /* \"--CODEGEN--\":4229:4315   */\n      jump(tag_148)\n    tag_147:\n        /* \"--CODEGEN--\":4222:4315   */\n      swap4\n      pop\n        /* \"--CODEGEN--\":4336:4392   */\n      tag_149\n        /* \"--CODEGEN--\":4386:4391   */\n      dup4\n        /* \"--CODEGEN--\":4336:4392   */\n      jump(tag_150)\n    tag_149:\n        /* \"--CODEGEN--\":4412:4419   */\n      dup1\n        /* \"--CODEGEN--\":4440:4441   */\n      0x00\n        /* \"--CODEGEN--\":4425:4685   */\n    tag_151:\n        /* \"--CODEGEN--\":4450:4456   */\n      dup4\n        /* \"--CODEGEN--\":4447:4448   */\n      dup2\n        /* \"--CODEGEN--\":4444:4457   */\n      lt\n        /* \"--CODEGEN--\":4425:4685   */\n      iszero\n      tag_153\n      jumpi\n        /* \"--CODEGEN--\":4517:4523   */\n      dup2\n        /* \"--CODEGEN--\":4511:4524   */\n      mload\n        /* \"--CODEGEN--\":4538:4601   */\n      tag_154\n        /* \"--CODEGEN--\":4597:4600   */\n      dup9\n        /* \"--CODEGEN--\":4582:4595   */\n      dup3\n        /* \"--CODEGEN--\":4538:4601   */\n      jump(tag_111)\n    tag_154:\n        /* \"--CODEGEN--\":4531:4601   */\n      swap8\n      pop\n        /* \"--CODEGEN--\":4618:4678   */\n      tag_155\n        /* \"--CODEGEN--\":4671:4677   */\n      dup4\n        /* \"--CODEGEN--\":4618:4678   */\n      jump(tag_156)\n    tag_155:\n        /* \"--CODEGEN--\":4608:4678   */\n      swap3\n      pop\n        /* \"--CODEGEN--\":4482:4685   */\n      pop\n        /* \"--CODEGEN--\":4472:4473   */\n      0x01\n        /* \"--CODEGEN--\":4469:4470   */\n      dup2\n        /* \"--CODEGEN--\":4465:4474   */\n      add\n        /* \"--CODEGEN--\":4460:4474   */\n      swap1\n      pop\n        /* \"--CODEGEN--\":4425:4685   */\n      jump(tag_151)\n    tag_153:\n        /* \"--CODEGEN--\":4429:4443   */\n      pop\n        /* \"--CODEGEN--\":4698:4701   */\n      dup6\n        /* \"--CODEGEN--\":4691:4701   */\n      swap4\n      pop\n        /* \"--CODEGEN--\":4141:4707   */\n      pop\n      pop\n      pop\n      swap3\n      swap2\n      pop\n      pop\n      jump\n        /* \"--CODEGEN--\":4715:4809   */\n    tag_106:\n        /* \"--CODEGEN--\":4782:4803   */\n      tag_158\n        /* \"--CODEGEN--\":4797:4802   */\n      dup2\n        /* \"--CODEGEN--\":4782:4803   */\n      jump(tag_159)\n    tag_158:\n        /* \"--CODEGEN--\":4777:4780   */\n      dup3\n        /* \"--CODEGEN--\":4770:4804   */\n      mstore\n        /* \"--CODEGEN--\":4764:4809   */\n      pop\n      pop\n      jump\n        /* \"--CODEGEN--\":4816:4920   */\n    tag_160:\n        /* \"--CODEGEN--\":4893:4914   */\n      tag_162\n        /* \"--CODEGEN--\":4908:4913   */\n      dup2\n        /* \"--CODEGEN--\":4893:4914   */\n      jump(tag_159)\n    tag_162:\n        /* \"--CODEGEN--\":4888:4891   */\n      dup3\n        /* \"--CODEGEN--\":4881:4915   */\n      mstore\n        /* \"--CODEGEN--\":4875:4920   */\n      pop\n      pop\n      jump\n        /* \"--CODEGEN--\":4927:5246   */\n    tag_110:\n      0x00\n        /* \"--CODEGEN--\":5025:5060   */\n      tag_164\n        /* \"--CODEGEN--\":5054:5059   */\n      dup3\n        /* \"--CODEGEN--\":5025:5060   */\n      jump(tag_165)\n    tag_164:\n        /* \"--CODEGEN--\":5072:5133   */\n      tag_166\n        /* \"--CODEGEN--\":5126:5132   */\n      dup2\n        /* \"--CODEGEN--\":5121:5124   */\n      dup6\n        /* \"--CODEGEN--\":5072:5133   */\n      jump(tag_167)\n    tag_166:\n        /* \"--CODEGEN--\":5065:5133   */\n      swap4\n      pop\n        /* \"--CODEGEN--\":5138:5190   */\n      tag_168\n        /* \"--CODEGEN--\":5183:5189   */\n      dup2\n        /* \"--CODEGEN--\":5178:5181   */\n      dup6\n        /* \"--CODEGEN--\":5171:5175   */\n      0x20\n        /* \"--CODEGEN--\":5164:5169   */\n      dup7\n        /* \"--CODEGEN--\":5160:5176   */\n      add\n        /* \"--CODEGEN--\":5138:5190   */\n      jump(tag_169)\n    tag_168:\n        /* \"--CODEGEN--\":5211:5240   */\n      tag_170\n        /* \"--CODEGEN--\":5233:5239   */\n      dup2\n        /* \"--CODEGEN--\":5211:5240   */\n      jump(tag_171)\n    tag_170:\n        /* \"--CODEGEN--\":5206:5209   */\n      dup5\n        /* \"--CODEGEN--\":5202:5241   */\n      add\n        /* \"--CODEGEN--\":5195:5241   */\n      swap2\n      pop\n        /* \"--CODEGEN--\":5005:5246   */\n      pop\n      swap3\n      swap2\n      pop\n      pop\n      jump\n        /* \"--CODEGEN--\":5253:5592   */\n    tag_172:\n      0x00\n        /* \"--CODEGEN--\":5361:5396   */\n      tag_174\n        /* \"--CODEGEN--\":5390:5395   */\n      dup3\n        /* \"--CODEGEN--\":5361:5396   */\n      jump(tag_165)\n    tag_174:\n        /* \"--CODEGEN--\":5408:5479   */\n      tag_175\n        /* \"--CODEGEN--\":5472:5478   */\n      dup2\n        /* \"--CODEGEN--\":5467:5470   */\n      dup6\n        /* \"--CODEGEN--\":5408:5479   */\n      jump(tag_176)\n    tag_175:\n        /* \"--CODEGEN--\":5401:5479   */\n      swap4\n      pop\n        /* \"--CODEGEN--\":5484:5536   */\n      tag_177\n        /* \"--CODEGEN--\":5529:5535   */\n      dup2\n        /* \"--CODEGEN--\":5524:5527   */\n      dup6\n        /* \"--CODEGEN--\":5517:5521   */\n      0x20\n        /* \"--CODEGEN--\":5510:5515   */\n      dup7\n        /* \"--CODEGEN--\":5506:5522   */\n      add\n        /* \"--CODEGEN--\":5484:5536   */\n      jump(tag_169)\n    tag_177:\n        /* \"--CODEGEN--\":5557:5586   */\n      tag_178\n        /* \"--CODEGEN--\":5579:5585   */\n      dup2\n        /* \"--CODEGEN--\":5557:5586   */\n      jump(tag_171)\n    tag_178:\n        /* \"--CODEGEN--\":5552:5555   */\n      dup5\n        /* \"--CODEGEN--\":5548:5587   */\n      add\n        /* \"--CODEGEN--\":5541:5587   */\n      swap2\n      pop\n        /* \"--CODEGEN--\":5341:5592   */\n      pop\n      swap3\n      swap2\n      pop\n      pop\n      jump\n        /* \"--CODEGEN--\":5658:6366   */\n    tag_179:\n      0x00\n        /* \"--CODEGEN--\":5801:5805   */\n      0x60\n        /* \"--CODEGEN--\":5796:5799   */\n      dup4\n        /* \"--CODEGEN--\":5792:5806   */\n      add\n        /* \"--CODEGEN--\":5882:5886   */\n      0x00\n        /* \"--CODEGEN--\":5875:5880   */\n      dup4\n        /* \"--CODEGEN--\":5871:5887   */\n      add\n        /* \"--CODEGEN--\":5865:5888   */\n      mload\n        /* \"--CODEGEN--\":5894:5957   */\n      tag_181\n        /* \"--CODEGEN--\":5951:5955   */\n      0x00\n        /* \"--CODEGEN--\":5946:5949   */\n      dup7\n        /* \"--CODEGEN--\":5942:5956   */\n      add\n        /* \"--CODEGEN--\":5928:5940   */\n      dup3\n        /* \"--CODEGEN--\":5894:5957   */\n      jump(tag_114)\n    tag_181:\n        /* \"--CODEGEN--\":5821:5963   */\n      pop\n        /* \"--CODEGEN--\":6036:6040   */\n      0x20\n        /* \"--CODEGEN--\":6029:6034   */\n      dup4\n        /* \"--CODEGEN--\":6025:6041   */\n      add\n        /* \"--CODEGEN--\":6019:6042   */\n      mload\n        /* \"--CODEGEN--\":6088:6091   */\n      dup5\n        /* \"--CODEGEN--\":6082:6086   */\n      dup3\n        /* \"--CODEGEN--\":6078:6092   */\n      sub\n        /* \"--CODEGEN--\":6071:6075   */\n      0x20\n        /* \"--CODEGEN--\":6066:6069   */\n      dup7\n        /* \"--CODEGEN--\":6062:6076   */\n      add\n        /* \"--CODEGEN--\":6055:6093   */\n      mstore\n        /* \"--CODEGEN--\":6108:6177   */\n      tag_182\n        /* \"--CODEGEN--\":6172:6176   */\n      dup3\n        /* \"--CODEGEN--\":6158:6170   */\n      dup3\n        /* \"--CODEGEN--\":6108:6177   */\n      jump(tag_110)\n    tag_182:\n        /* \"--CODEGEN--\":6100:6177   */\n      swap2\n      pop\n        /* \"--CODEGEN--\":5973:6189   */\n      pop\n        /* \"--CODEGEN--\":6265:6269   */\n      0x40\n        /* \"--CODEGEN--\":6258:6263   */\n      dup4\n        /* \"--CODEGEN--\":6254:6270   */\n      add\n        /* \"--CODEGEN--\":6248:6271   */\n      mload\n        /* \"--CODEGEN--\":6277:6334   */\n      tag_183\n        /* \"--CODEGEN--\":6328:6332   */\n      0x40\n        /* \"--CODEGEN--\":6323:6326   */\n      dup7\n        /* \"--CODEGEN--\":6319:6333   */\n      add\n        /* \"--CODEGEN--\":6305:6317   */\n      dup3\n        /* \"--CODEGEN--\":6277:6334   */\n      jump(tag_106)\n    tag_183:\n        /* \"--CODEGEN--\":6199:6340   */\n      pop\n        /* \"--CODEGEN--\":6357:6361   */\n      dup1\n        /* \"--CODEGEN--\":6350:6361   */\n      swap2\n      pop\n        /* \"--CODEGEN--\":5774:6366   */\n      pop\n      swap3\n      swap2\n      pop\n      pop\n      jump\n        /* \"--CODEGEN--\":6373:6476   */\n    tag_114:\n        /* \"--CODEGEN--\":6446:6470   */\n      tag_185\n        /* \"--CODEGEN--\":6464:6469   */\n      dup2\n        /* \"--CODEGEN--\":6446:6470   */\n      jump(tag_186)\n    tag_185:\n        /* \"--CODEGEN--\":6441:6444   */\n      dup3\n        /* \"--CODEGEN--\":6434:6471   */\n      mstore\n        /* \"--CODEGEN--\":6428:6476   */\n      pop\n      pop\n      jump\n        /* \"--CODEGEN--\":6483:6596   */\n    tag_187:\n        /* \"--CODEGEN--\":6566:6590   */\n      tag_189\n        /* \"--CODEGEN--\":6584:6589   */\n      dup2\n        /* \"--CODEGEN--\":6566:6590   */\n      jump(tag_186)\n    tag_189:\n        /* \"--CODEGEN--\":6561:6564   */\n      dup3\n        /* \"--CODEGEN--\":6554:6591   */\n      mstore\n        /* \"--CODEGEN--\":6548:6596   */\n      pop\n      pop\n      jump\n        /* \"--CODEGEN--\":6603:7494   */\n    tag_22:\n      0x00\n        /* \"--CODEGEN--\":6933:6935   */\n      0x60\n        /* \"--CODEGEN--\":6922:6931   */\n      dup3\n        /* \"--CODEGEN--\":6918:6936   */\n      add\n        /* \"--CODEGEN--\":6910:6936   */\n      swap1\n      pop\n        /* \"--CODEGEN--\":6983:6992   */\n      dup2\n        /* \"--CODEGEN--\":6977:6981   */\n      dup2\n        /* \"--CODEGEN--\":6973:6993   */\n      sub\n        /* \"--CODEGEN--\":6969:6970   */\n      0x00\n        /* \"--CODEGEN--\":6958:6967   */\n      dup4\n        /* \"--CODEGEN--\":6954:6971   */\n      add\n        /* \"--CODEGEN--\":6947:6994   */\n      mstore\n        /* \"--CODEGEN--\":7008:7116   */\n      tag_191\n        /* \"--CODEGEN--\":7111:7115   */\n      dup2\n        /* \"--CODEGEN--\":7102:7108   */\n      dup7\n        /* \"--CODEGEN--\":7008:7116   */\n      jump(tag_143)\n    tag_191:\n        /* \"--CODEGEN--\":7000:7116   */\n      swap1\n      pop\n        /* \"--CODEGEN--\":7164:7173   */\n      dup2\n        /* \"--CODEGEN--\":7158:7162   */\n      dup2\n        /* \"--CODEGEN--\":7154:7174   */\n      sub\n        /* \"--CODEGEN--\":7149:7151   */\n      0x20\n        /* \"--CODEGEN--\":7138:7147   */\n      dup4\n        /* \"--CODEGEN--\":7134:7152   */\n      add\n        /* \"--CODEGEN--\":7127:7175   */\n      mstore\n        /* \"--CODEGEN--\":7189:7309   */\n      tag_192\n        /* \"--CODEGEN--\":7304:7308   */\n      dup2\n        /* \"--CODEGEN--\":7295:7301   */\n      dup6\n        /* \"--CODEGEN--\":7189:7309   */\n      jump(tag_129)\n    tag_192:\n        /* \"--CODEGEN--\":7181:7309   */\n      swap1\n      pop\n        /* \"--CODEGEN--\":7357:7366   */\n      dup2\n        /* \"--CODEGEN--\":7351:7355   */\n      dup2\n        /* \"--CODEGEN--\":7347:7367   */\n      sub\n        /* \"--CODEGEN--\":7342:7344   */\n      0x40\n        /* \"--CODEGEN--\":7331:7340   */\n      dup4\n        /* \"--CODEGEN--\":7327:7345   */\n      add\n        /* \"--CODEGEN--\":7320:7368   */\n      mstore\n        /* \"--CODEGEN--\":7382:7484   */\n      tag_193\n        /* \"--CODEGEN--\":7479:7483   */\n      dup2\n        /* \"--CODEGEN--\":7470:7476   */\n      dup5\n        /* \"--CODEGEN--\":7382:7484   */\n      jump(tag_115)\n    tag_193:\n        /* \"--CODEGEN--\":7374:7484   */\n      swap1\n      pop\n        /* \"--CODEGEN--\":6904:7494   */\n      swap5\n      swap4\n      pop\n      pop\n      pop\n      pop\n      jump\n        /* \"--CODEGEN--\":7501:7846   */\n    tag_35:\n      0x00\n        /* \"--CODEGEN--\":7661:7663   */\n      0x20\n        /* \"--CODEGEN--\":7650:7659   */\n      dup3\n        /* \"--CODEGEN--\":7646:7664   */\n      add\n        /* \"--CODEGEN--\":7638:7664   */\n      swap1\n      pop\n        /* \"--CODEGEN--\":7711:7720   */\n      dup2\n        /* \"--CODEGEN--\":7705:7709   */\n      dup2\n        /* \"--CODEGEN--\":7701:7721   */\n      sub\n        /* \"--CODEGEN--\":7697:7698   */\n      0x00\n        /* \"--CODEGEN--\":7686:7695   */\n      dup4\n        /* \"--CODEGEN--\":7682:7699   */\n      add\n        /* \"--CODEGEN--\":7675:7722   */\n      mstore\n        /* \"--CODEGEN--\":7736:7836   */\n      tag_195\n        /* \"--CODEGEN--\":7831:7835   */\n      dup2\n        /* \"--CODEGEN--\":7822:7828   */\n      dup5\n        /* \"--CODEGEN--\":7736:7836   */\n      jump(tag_179)\n    tag_195:\n        /* \"--CODEGEN--\":7728:7836   */\n      swap1\n      pop\n        /* \"--CODEGEN--\":7632:7846   */\n      swap3\n      swap2\n      pop\n      pop\n      jump\n        /* \"--CODEGEN--\":7853:8066   */\n    tag_12:\n      0x00\n        /* \"--CODEGEN--\":7971:7973   */\n      0x20\n        /* \"--CODEGEN--\":7960:7969   */\n      dup3\n        /* \"--CODEGEN--\":7956:7974   */\n      add\n        /* \"--CODEGEN--\":7948:7974   */\n      swap1\n      pop\n        /* \"--CODEGEN--\":7985:8056   */\n      tag_197\n        /* \"--CODEGEN--\":8053:8054   */\n      0x00\n        /* \"--CODEGEN--\":8042:8051   */\n      dup4\n        /* \"--CODEGEN--\":8038:8055   */\n      add\n        /* \"--CODEGEN--\":8029:8035   */\n      dup5\n        /* \"--CODEGEN--\":7985:8056   */\n      jump(tag_187)\n    tag_197:\n        /* \"--CODEGEN--\":7942:8066   */\n      swap3\n      swap2\n      pop\n      pop\n      jump\n        /* \"--CODEGEN--\":8073:8576   */\n    tag_18:\n      0x00\n        /* \"--CODEGEN--\":8257:8259   */\n      0x60\n        /* \"--CODEGEN--\":8246:8255   */\n      dup3\n        /* \"--CODEGEN--\":8242:8260   */\n      add\n        /* \"--CODEGEN--\":8234:8260   */\n      swap1\n      pop\n        /* \"--CODEGEN--\":8271:8342   */\n      tag_199\n        /* \"--CODEGEN--\":8339:8340   */\n      0x00\n        /* \"--CODEGEN--\":8328:8337   */\n      dup4\n        /* \"--CODEGEN--\":8324:8341   */\n      add\n        /* \"--CODEGEN--\":8315:8321   */\n      dup7\n        /* \"--CODEGEN--\":8271:8342   */\n      jump(tag_187)\n    tag_199:\n        /* \"--CODEGEN--\":8390:8399   */\n      dup2\n        /* \"--CODEGEN--\":8384:8388   */\n      dup2\n        /* \"--CODEGEN--\":8380:8400   */\n      sub\n        /* \"--CODEGEN--\":8375:8377   */\n      0x20\n        /* \"--CODEGEN--\":8364:8373   */\n      dup4\n        /* \"--CODEGEN--\":8360:8378   */\n      add\n        /* \"--CODEGEN--\":8353:8401   */\n      mstore\n        /* \"--CODEGEN--\":8415:8489   */\n      tag_200\n        /* \"--CODEGEN--\":8484:8488   */\n      dup2\n        /* \"--CODEGEN--\":8475:8481   */\n      dup6\n        /* \"--CODEGEN--\":8415:8489   */\n      jump(tag_172)\n    tag_200:\n        /* \"--CODEGEN--\":8407:8489   */\n      swap1\n      pop\n        /* \"--CODEGEN--\":8500:8566   */\n      tag_201\n        /* \"--CODEGEN--\":8562:8564   */\n      0x40\n        /* \"--CODEGEN--\":8551:8560   */\n      dup4\n        /* \"--CODEGEN--\":8547:8565   */\n      add\n        /* \"--CODEGEN--\":8538:8544   */\n      dup5\n        /* \"--CODEGEN--\":8500:8566   */\n      jump(tag_160)\n    tag_201:\n        /* \"--CODEGEN--\":8228:8576   */\n      swap5\n      swap4\n      pop\n      pop\n      pop\n      pop\n      jump\n        /* \"--CODEGEN--\":8583:8839   */\n    tag_83:\n      0x00\n        /* \"--CODEGEN--\":8645:8647   */\n      0x40\n        /* \"--CODEGEN--\":8639:8648   */\n      mload\n        /* \"--CODEGEN--\":8629:8648   */\n      swap1\n      pop\n        /* \"--CODEGEN--\":8683:8687   */\n      dup2\n        /* \"--CODEGEN--\":8675:8681   */\n      dup2\n        /* \"--CODEGEN--\":8671:8688   */\n      add\n        /* \"--CODEGEN--\":8782:8788   */\n      dup2\n        /* \"--CODEGEN--\":8770:8780   */\n      dup2\n        /* \"--CODEGEN--\":8767:8789   */\n      lt\n        /* \"--CODEGEN--\":8746:8764   */\n      0xffffffffffffffff\n        /* \"--CODEGEN--\":8734:8744   */\n      dup3\n        /* \"--CODEGEN--\":8731:8765   */\n      gt\n        /* \"--CODEGEN--\":8728:8790   */\n      or\n        /* \"--CODEGEN--\":8725:8727   */\n      iszero\n      tag_203\n      jumpi\n        /* \"--CODEGEN--\":8803:8804   */\n      0x00\n        /* \"--CODEGEN--\":8800:8801   */\n      dup1\n        /* \"--CODEGEN--\":8793:8805   */\n      revert\n        /* \"--CODEGEN--\":8725:8727   */\n    tag_203:\n        /* \"--CODEGEN--\":8823:8833   */\n      dup1\n        /* \"--CODEGEN--\":8819:8821   */\n      0x40\n        /* \"--CODEGEN--\":8812:8834   */\n      mstore\n        /* \"--CODEGEN--\":8623:8839   */\n      pop\n      swap2\n      swap1\n      pop\n      jump\n        /* \"--CODEGEN--\":8846:9168   */\n    tag_82:\n      0x00\n        /* \"--CODEGEN--\":8990:9008   */\n      0xffffffffffffffff\n        /* \"--CODEGEN--\":8982:8988   */\n      dup3\n        /* \"--CODEGEN--\":8979:9009   */\n      gt\n        /* \"--CODEGEN--\":8976:8978   */\n      iszero\n      tag_205\n      jumpi\n        /* \"--CODEGEN--\":9022:9023   */\n      0x00\n        /* \"--CODEGEN--\":9019:9020   */\n      dup1\n        /* \"--CODEGEN--\":9012:9024   */\n      revert\n        /* \"--CODEGEN--\":8976:8978   */\n    tag_205:\n        /* \"--CODEGEN--\":9089:9093   */\n      0x1f\n        /* \"--CODEGEN--\":9085:9094   */\n      not\n        /* \"--CODEGEN--\":9078:9082   */\n      0x1f\n        /* \"--CODEGEN--\":9070:9076   */\n      dup4\n        /* \"--CODEGEN--\":9066:9083   */\n      add\n        /* \"--CODEGEN--\":9062:9095   */\n      and\n        /* \"--CODEGEN--\":9054:9095   */\n      swap1\n      pop\n        /* \"--CODEGEN--\":9153:9157   */\n      0x20\n        /* \"--CODEGEN--\":9147:9151   */\n      dup2\n        /* \"--CODEGEN--\":9143:9158   */\n      add\n        /* \"--CODEGEN--\":9135:9158   */\n      swap1\n      pop\n        /* \"--CODEGEN--\":8913:9168   */\n      swap2\n      swap1\n      pop\n      jump\n        /* \"--CODEGEN--\":9175:9323   */\n    tag_122:\n      0x00\n        /* \"--CODEGEN--\":9258:9261   */\n      dup2\n        /* \"--CODEGEN--\":9250:9261   */\n      swap1\n      pop\n        /* \"--CODEGEN--\":9296:9300   */\n      0x20\n        /* \"--CODEGEN--\":9291:9294   */\n      dup3\n        /* \"--CODEGEN--\":9287:9301   */\n      add\n        /* \"--CODEGEN--\":9279:9301   */\n      swap1\n      pop\n        /* \"--CODEGEN--\":9244:9323   */\n      swap2\n      swap1\n      pop\n      jump\n        /* \"--CODEGEN--\":9330:9487   */\n    tag_136:\n      0x00\n        /* \"--CODEGEN--\":9422:9425   */\n      dup2\n        /* \"--CODEGEN--\":9414:9425   */\n      swap1\n      pop\n        /* \"--CODEGEN--\":9460:9464   */\n      0x20\n        /* \"--CODEGEN--\":9455:9458   */\n      dup3\n        /* \"--CODEGEN--\":9451:9465   */\n      add\n        /* \"--CODEGEN--\":9443:9465   */\n      swap1\n      pop\n        /* \"--CODEGEN--\":9408:9487   */\n      swap2\n      swap1\n      pop\n      jump\n        /* \"--CODEGEN--\":9494:9645   */\n    tag_150:\n      0x00\n        /* \"--CODEGEN--\":9580:9583   */\n      dup2\n        /* \"--CODEGEN--\":9572:9583   */\n      swap1\n      pop\n        /* \"--CODEGEN--\":9618:9622   */\n      0x20\n        /* \"--CODEGEN--\":9613:9616   */\n      dup3\n        /* \"--CODEGEN--\":9609:9623   */\n      add\n        /* \"--CODEGEN--\":9601:9623   */\n      swap1\n      pop\n        /* \"--CODEGEN--\":9566:9645   */\n      swap2\n      swap1\n      pop\n      jump\n        /* \"--CODEGEN--\":9652:9786   */\n    tag_118:\n      0x00\n        /* \"--CODEGEN--\":9758:9763   */\n      dup2\n        /* \"--CODEGEN--\":9752:9764   */\n      mload\n        /* \"--CODEGEN--\":9742:9764   */\n      swap1\n      pop\n        /* \"--CODEGEN--\":9723:9786   */\n      swap2\n      swap1\n      pop\n      jump\n        /* \"--CODEGEN--\":9793:9936   */\n    tag_132:\n      0x00\n        /* \"--CODEGEN--\":9908:9913   */\n      dup2\n        /* \"--CODEGEN--\":9902:9914   */\n      mload\n        /* \"--CODEGEN--\":9892:9914   */\n      swap1\n      pop\n        /* \"--CODEGEN--\":9873:9936   */\n      swap2\n      swap1\n      pop\n      jump\n        /* \"--CODEGEN--\":9943:10080   */\n    tag_146:\n      0x00\n        /* \"--CODEGEN--\":10052:10057   */\n      dup2\n        /* \"--CODEGEN--\":10046:10058   */\n      mload\n        /* \"--CODEGEN--\":10036:10058   */\n      swap1\n      pop\n        /* \"--CODEGEN--\":10017:10080   */\n      swap2\n      swap1\n      pop\n      jump\n        /* \"--CODEGEN--\":10087:10205   */\n    tag_165:\n      0x00\n        /* \"--CODEGEN--\":10177:10182   */\n      dup2\n        /* \"--CODEGEN--\":10171:10183   */\n      mload\n        /* \"--CODEGEN--\":10161:10183   */\n      swap1\n      pop\n        /* \"--CODEGEN--\":10142:10205   */\n      swap2\n      swap1\n      pop\n      jump\n        /* \"--CODEGEN--\":10212:10317   */\n    tag_128:\n      0x00\n        /* \"--CODEGEN--\":10307:10311   */\n      0x20\n        /* \"--CODEGEN--\":10302:10305   */\n      dup3\n        /* \"--CODEGEN--\":10298:10312   */\n      add\n        /* \"--CODEGEN--\":10290:10312   */\n      swap1\n      pop\n        /* \"--CODEGEN--\":10284:10317   */\n      swap2\n      swap1\n      pop\n      jump\n        /* \"--CODEGEN--\":10324:10438   */\n    tag_142:\n      0x00\n        /* \"--CODEGEN--\":10428:10432   */\n      0x20\n        /* \"--CODEGEN--\":10423:10426   */\n      dup3\n        /* \"--CODEGEN--\":10419:10433   */\n      add\n        /* \"--CODEGEN--\":10411:10433   */\n      swap1\n      pop\n        /* \"--CODEGEN--\":10405:10438   */\n      swap2\n      swap1\n      pop\n      jump\n        /* \"--CODEGEN--\":10445:10553   */\n    tag_156:\n      0x00\n        /* \"--CODEGEN--\":10543:10547   */\n      0x20\n        /* \"--CODEGEN--\":10538:10541   */\n      dup3\n        /* \"--CODEGEN--\":10534:10548   */\n      add\n        /* \"--CODEGEN--\":10526:10548   */\n      swap1\n      pop\n        /* \"--CODEGEN--\":10520:10553   */\n      swap2\n      swap1\n      pop\n      jump\n        /* \"--CODEGEN--\":10561:10736   */\n    tag_120:\n      0x00\n        /* \"--CODEGEN--\":10688:10694   */\n      dup3\n        /* \"--CODEGEN--\":10683:10686   */\n      dup3\n        /* \"--CODEGEN--\":10676:10695   */\n      mstore\n        /* \"--CODEGEN--\":10725:10729   */\n      0x20\n        /* \"--CODEGEN--\":10720:10723   */\n      dup3\n        /* \"--CODEGEN--\":10716:10730   */\n      add\n        /* \"--CODEGEN--\":10701:10730   */\n      swap1\n      pop\n        /* \"--CODEGEN--\":10669:10736   */\n      swap3\n      swap2\n      pop\n      pop\n      jump\n        /* \"--CODEGEN--\":10745:10929   */\n    tag_134:\n      0x00\n        /* \"--CODEGEN--\":10881:10887   */\n      dup3\n        /* \"--CODEGEN--\":10876:10879   */\n      dup3\n        /* \"--CODEGEN--\":10869:10888   */\n      mstore\n        /* \"--CODEGEN--\":10918:10922   */\n      0x20\n        /* \"--CODEGEN--\":10913:10916   */\n      dup3\n        /* \"--CODEGEN--\":10909:10923   */\n      add\n        /* \"--CODEGEN--\":10894:10923   */\n      swap1\n      pop\n        /* \"--CODEGEN--\":10862:10929   */\n      swap3\n      swap2\n      pop\n      pop\n      jump\n        /* \"--CODEGEN--\":10938:11116   */\n    tag_148:\n      0x00\n        /* \"--CODEGEN--\":11068:11074   */\n      dup3\n        /* \"--CODEGEN--\":11063:11066   */\n      dup3\n        /* \"--CODEGEN--\":11056:11075   */\n      mstore\n        /* \"--CODEGEN--\":11105:11109   */\n      0x20\n        /* \"--CODEGEN--\":11100:11103   */\n      dup3\n        /* \"--CODEGEN--\":11096:11110   */\n      add\n        /* \"--CODEGEN--\":11081:11110   */\n      swap1\n      pop\n        /* \"--CODEGEN--\":11049:11116   */\n      swap3\n      swap2\n      pop\n      pop\n      jump\n        /* \"--CODEGEN--\":11125:11278   */\n    tag_167:\n      0x00\n        /* \"--CODEGEN--\":11230:11236   */\n      dup3\n        /* \"--CODEGEN--\":11225:11228   */\n      dup3\n        /* \"--CODEGEN--\":11218:11237   */\n      mstore\n        /* \"--CODEGEN--\":11267:11271   */\n      0x20\n        /* \"--CODEGEN--\":11262:11265   */\n      dup3\n        /* \"--CODEGEN--\":11258:11272   */\n      add\n        /* \"--CODEGEN--\":11243:11272   */\n      swap1\n      pop\n        /* \"--CODEGEN--\":11211:11278   */\n      swap3\n      swap2\n      pop\n      pop\n      jump\n        /* \"--CODEGEN--\":11287:11450   */\n    tag_176:\n      0x00\n        /* \"--CODEGEN--\":11402:11408   */\n      dup3\n        /* \"--CODEGEN--\":11397:11400   */\n      dup3\n        /* \"--CODEGEN--\":11390:11409   */\n      mstore\n        /* \"--CODEGEN--\":11439:11443   */\n      0x20\n        /* \"--CODEGEN--\":11434:11437   */\n      dup3\n        /* \"--CODEGEN--\":11430:11444   */\n      add\n        /* \"--CODEGEN--\":11415:11444   */\n      swap1\n      pop\n        /* \"--CODEGEN--\":11383:11450   */\n      swap3\n      swap2\n      pop\n      pop\n      jump\n        /* \"--CODEGEN--\":11458:11543   */\n    tag_159:\n      0x00\n        /* \"--CODEGEN--\":11531:11536   */\n      dup2\n        /* \"--CODEGEN--\":11524:11537   */\n      iszero\n        /* \"--CODEGEN--\":11517:11538   */\n      iszero\n        /* \"--CODEGEN--\":11506:11538   */\n      swap1\n      pop\n        /* \"--CODEGEN--\":11500:11543   */\n      swap2\n      swap1\n      pop\n      jump\n        /* \"--CODEGEN--\":11550:11622   */\n    tag_186:\n      0x00\n        /* \"--CODEGEN--\":11612:11617   */\n      dup2\n        /* \"--CODEGEN--\":11601:11617   */\n      swap1\n      pop\n        /* \"--CODEGEN--\":11595:11622   */\n      swap2\n      swap1\n      pop\n      jump\n        /* \"--CODEGEN--\":11630:11775   */\n    tag_86:\n        /* \"--CODEGEN--\":11711:11717   */\n      dup3\n        /* \"--CODEGEN--\":11706:11709   */\n      dup2\n        /* \"--CODEGEN--\":11701:11704   */\n      dup4\n        /* \"--CODEGEN--\":11688:11718   */\n      calldatacopy\n        /* \"--CODEGEN--\":11767:11768   */\n      0x00\n        /* \"--CODEGEN--\":11758:11764   */\n      dup4\n        /* \"--CODEGEN--\":11753:11756   */\n      dup4\n        /* \"--CODEGEN--\":11749:11765   */\n      add\n        /* \"--CODEGEN--\":11742:11769   */\n      mstore\n        /* \"--CODEGEN--\":11681:11775   */\n      pop\n      pop\n      pop\n      jump\n        /* \"--CODEGEN--\":11784:12052   */\n    tag_169:\n        /* \"--CODEGEN--\":11849:11850   */\n      0x00\n        /* \"--CODEGEN--\":11856:11957   */\n    tag_225:\n        /* \"--CODEGEN--\":11870:11876   */\n      dup4\n        /* \"--CODEGEN--\":11867:11868   */\n      dup2\n        /* \"--CODEGEN--\":11864:11877   */\n      lt\n        /* \"--CODEGEN--\":11856:11957   */\n      iszero\n      tag_227\n      jumpi\n        /* \"--CODEGEN--\":11946:11947   */\n      dup1\n        /* \"--CODEGEN--\":11941:11944   */\n      dup3\n        /* \"--CODEGEN--\":11937:11948   */\n      add\n        /* \"--CODEGEN--\":11931:11949   */\n      mload\n        /* \"--CODEGEN--\":11927:11928   */\n      dup2\n        /* \"--CODEGEN--\":11922:11925   */\n      dup5\n        /* \"--CODEGEN--\":11918:11929   */\n      add\n        /* \"--CODEGEN--\":11911:11950   */\n      mstore\n        /* \"--CODEGEN--\":11892:11894   */\n      0x20\n        /* \"--CODEGEN--\":11889:11890   */\n      dup2\n        /* \"--CODEGEN--\":11885:11895   */\n      add\n        /* \"--CODEGEN--\":11880:11895   */\n      swap1\n      pop\n        /* \"--CODEGEN--\":11856:11957   */\n      jump(tag_225)\n    tag_227:\n        /* \"--CODEGEN--\":11972:11978   */\n      dup4\n        /* \"--CODEGEN--\":11969:11970   */\n      dup2\n        /* \"--CODEGEN--\":11966:11979   */\n      gt\n        /* \"--CODEGEN--\":11963:11965   */\n      iszero\n      tag_228\n      jumpi\n        /* \"--CODEGEN--\":12037:12038   */\n      0x00\n        /* \"--CODEGEN--\":12028:12034   */\n      dup5\n        /* \"--CODEGEN--\":12023:12026   */\n      dup5\n        /* \"--CODEGEN--\":12019:12035   */\n      add\n        /* \"--CODEGEN--\":12012:12039   */\n      mstore\n        /* \"--CODEGEN--\":11963:11965   */\n    tag_228:\n        /* \"--CODEGEN--\":11833:12052   */\n      pop\n      pop\n      pop\n      pop\n      jump\n        /* \"--CODEGEN--\":12060:12157   */\n    tag_171:\n      0x00\n        /* \"--CODEGEN--\":12148:12150   */\n      0x1f\n        /* \"--CODEGEN--\":12144:12151   */\n      not\n        /* \"--CODEGEN--\":12139:12141   */\n      0x1f\n        /* \"--CODEGEN--\":12132:12137   */\n      dup4\n        /* \"--CODEGEN--\":12128:12142   */\n      add\n        /* \"--CODEGEN--\":12124:12152   */\n      and\n        /* \"--CODEGEN--\":12114:12152   */\n      swap1\n      pop\n        /* \"--CODEGEN--\":12108:12157   */\n      swap2\n      swap1\n      pop\n      jump\n        /* \"--CODEGEN--\":12165:12276   */\n    tag_76:\n        /* \"--CODEGEN--\":12231:12252   */\n      tag_231\n        /* \"--CODEGEN--\":12246:12251   */\n      dup2\n        /* \"--CODEGEN--\":12231:12252   */\n      jump(tag_159)\n    tag_231:\n        /* \"--CODEGEN--\":12224:12229   */\n      dup2\n        /* \"--CODEGEN--\":12221:12253   */\n      eq\n        /* \"--CODEGEN--\":12211:12213   */\n      tag_232\n      jumpi\n        /* \"--CODEGEN--\":12267:12268   */\n      0x00\n        /* \"--CODEGEN--\":12264:12265   */\n      dup1\n        /* \"--CODEGEN--\":12257:12269   */\n      revert\n        /* \"--CODEGEN--\":12211:12213   */\n    tag_232:\n        /* \"--CODEGEN--\":12205:12276   */\n      pop\n      jump\n        /* \"--CODEGEN--\":12283:12400   */\n    tag_90:\n        /* \"--CODEGEN--\":12352:12376   */\n      tag_234\n        /* \"--CODEGEN--\":12370:12375   */\n      dup2\n        /* \"--CODEGEN--\":12352:12376   */\n      jump(tag_186)\n    tag_234:\n        /* \"--CODEGEN--\":12345:12350   */\n      dup2\n        /* \"--CODEGEN--\":12342:12377   */\n      eq\n        /* \"--CODEGEN--\":12332:12334   */\n      tag_235\n      jumpi\n        /* \"--CODEGEN--\":12391:12392   */\n      0x00\n        /* \"--CODEGEN--\":12388:12389   */\n      dup1\n        /* \"--CODEGEN--\":12381:12393   */\n      revert\n        /* \"--CODEGEN--\":12332:12334   */\n    tag_235:\n        /* \"--CODEGEN--\":12326:12400   */\n      pop\n      jump\n\n    auxdata: 0xa26469706673582212202c6c899e407c5b0f14533c08d5977ad3db1646209bd0df054231719505fc67e264736f6c63430006000033\n}\n",
				"bytecode": {
					"linkReferences": {},
					"object": "608060405234801561001057600080fd5b50600060018190555061005f6040518060400160405280600481526020017f566c61640000000000000000000000000000000000000000000000000000000081525060016100aa60201b60201c565b6100a56040518060400160405280600681526020017f4e6173747961000000000000000000000000000000000000000000000000000081525060006100aa60201b60201c565b6101e2565b60405180606001604052806001548152602001838152602001821515815250600080600154815260200190815260200160002060008201518160000155602082015181600101908051906020019061010392919061013d565b5060408201518160020160006101000a81548160ff0219169083151502179055509050506001600081548092919060010191905055505050565b828054600181600116156101000203166002900490600052602060002090601f016020900481019282601f1061017e57805160ff19168380011785556101ac565b828001600101855582156101ac579182015b828111156101ab578251825591602001919060010190610190565b5b5090506101b991906101bd565b5090565b6101df91905b808211156101db5760008160009055506001016101c3565b5090565b90565b610cf480620001f26000396000f3fe608060405234801561001057600080fd5b50600436106100625760003560e01c806311aee380146100675780635daf08ca146100855780636f416d59146100b757806392c68389146100d7578063d3516b7e146100f3578063f97698f81461010f575b600080fd5b61006f61013f565b60405161007c9190610a9d565b60405180910390f35b61009f600480360361009a9190810190610757565b610145565b6040516100ae93929190610ab8565b60405180910390f35b6100bf610214565b6040516100ce93929190610a2f565b60405180910390f35b6100f160048036036100ec9190810190610703565b610406565b005b61010d60048036036101089190810190610780565b610499565b005b61012960048036036101249190810190610757565b6104ca565b6040516101369190610a7b565b60405180910390f35b60015481565b6000602052806000526040600020600091509050806000015490806001018054600181600116156101000203166002900480601f0160208091040260200160405190810160405280929190818152602001828054600181600116156101000203166002900480156101f75780601f106101cc576101008083540402835291602001916101f7565b820191906000526020600020905b8154815290600101906020018083116101da57829003601f168201915b5050505050908060020160009054906101000a900460ff16905083565b60608060608060015460405190808252806020026020018201604052801561024b5781602001602082028038833980820191505090505b509050606060015460405190808252806020026020018201604052801561028657816020015b60608152602001906001900390816102715790505b50905060606001546040519080825280602002602001820160405280156102bc5781602001602082028038833980820191505090505b50905060008090505b6001548110156103f4576000806000838152602001908152602001600020905080600001548583815181106102f657fe5b602002602001018181525050806001018054600181600116156101000203166002900480601f01602080910402602001604051908101604052809291908181526020018280546001816001161561010002031660029004801561039a5780601f1061036f5761010080835404028352916020019161039a565b820191906000526020600020905b81548152906001019060200180831161037d57829003601f168201915b50505050508483815181106103ab57fe5b60200260200101819052508060020160009054906101000a900460ff168383815181106103d457fe5b6020026020010190151590811515815250505080806001019150506102c5565b50828282955095509550505050909192565b60405180606001604052806001548152602001838152602001821515815250600080600154815260200190815260200160002060008201518160000155602082015181600101908051906020019061045f9291906105bd565b5060408201518160020160006101000a81548160ff0219169083151502179055509050506001600081548092919060010191905055505050565b8060008084815260200190815260200160002060020160006101000a81548160ff0219169083151502179055505050565b6104d261063d565b60008083815260200190815260200160002060405180606001604052908160008201548152602001600182018054600181600116156101000203166002900480601f0160208091040260200160405190810160405280929190818152602001828054600181600116156101000203166002900480156105925780601f1061056757610100808354040283529160200191610592565b820191906000526020600020905b81548152906001019060200180831161057557829003601f168201915b505050505081526020016002820160009054906101000a900460ff1615151515815250509050919050565b828054600181600116156101000203166002900490600052602060002090601f016020900481019282601f106105fe57805160ff191683800117855561062c565b8280016001018555821561062c579182015b8281111561062b578251825591602001919060010190610610565b5b5090506106399190610660565b5090565b604051806060016040528060008152602001606081526020016000151581525090565b61068291905b8082111561067e576000816000905550600101610666565b5090565b90565b60008135905061069481610c90565b92915050565b600082601f8301126106ab57600080fd5b81356106be6106b982610b23565b610af6565b915080825260208301602083018583830111156106da57600080fd5b6106e5838284610c3d565b50505092915050565b6000813590506106fd81610ca7565b92915050565b6000806040838503121561071657600080fd5b600083013567ffffffffffffffff81111561073057600080fd5b61073c8582860161069a565b925050602061074d85828601610685565b9150509250929050565b60006020828403121561076957600080fd5b6000610777848285016106ee565b91505092915050565b6000806040838503121561079357600080fd5b60006107a1858286016106ee565b92505060206107b285828601610685565b9150509250929050565b60006107c88383610931565b60208301905092915050565b60006107e0838361094f565b905092915050565b60006107f48383610a11565b60208301905092915050565b600061080b82610b7f565b6108158185610bd2565b935061082083610b4f565b8060005b8381101561085157815161083888826107bc565b975061084383610bab565b925050600181019050610824565b5085935050505092915050565b600061086982610b8a565b6108738185610be3565b93508360208202850161088585610b5f565b8060005b858110156108c157848403895281516108a285826107d4565b94506108ad83610bb8565b925060208a01995050600181019050610889565b50829750879550505050505092915050565b60006108de82610b95565b6108e88185610bf4565b93506108f383610b6f565b8060005b8381101561092457815161090b88826107e8565b975061091683610bc5565b9250506001810190506108f7565b5085935050505092915050565b61093a81610c27565b82525050565b61094981610c27565b82525050565b600061095a82610ba0565b6109648185610c05565b9350610974818560208601610c4c565b61097d81610c7f565b840191505092915050565b600061099382610ba0565b61099d8185610c16565b93506109ad818560208601610c4c565b6109b681610c7f565b840191505092915050565b60006060830160008301516109d96000860182610a11565b50602083015184820360208601526109f1828261094f565b9150506040830151610a066040860182610931565b508091505092915050565b610a1a81610c33565b82525050565b610a2981610c33565b82525050565b60006060820190508181036000830152610a4981866108d3565b90508181036020830152610a5d818561085e565b90508181036040830152610a718184610800565b9050949350505050565b60006020820190508181036000830152610a9581846109c1565b905092915050565b6000602082019050610ab26000830184610a20565b92915050565b6000606082019050610acd6000830186610a20565b8181036020830152610adf8185610988565b9050610aee6040830184610940565b949350505050565b6000604051905081810181811067ffffffffffffffff82111715610b1957600080fd5b8060405250919050565b600067ffffffffffffffff821115610b3a57600080fd5b601f19601f8301169050602081019050919050565b6000819050602082019050919050565b6000819050602082019050919050565b6000819050602082019050919050565b600081519050919050565b600081519050919050565b600081519050919050565b600081519050919050565b6000602082019050919050565b6000602082019050919050565b6000602082019050919050565b600082825260208201905092915050565b600082825260208201905092915050565b600082825260208201905092915050565b600082825260208201905092915050565b600082825260208201905092915050565b60008115159050919050565b6000819050919050565b82818337600083830152505050565b60005b83811015610c6a578082015181840152602081019050610c4f565b83811115610c79576000848401525b50505050565b6000601f19601f8301169050919050565b610c9981610c27565b8114610ca457600080fd5b50565b610cb081610c33565b8114610cbb57600080fd5b5056fea26469706673582212202c6c899e407c5b0f14533c08d5977ad3db1646209bd0df054231719505fc67e264736f6c63430006000033",
					"opcodes": "PUSH1 0x80 PUSH1 0x40 MSTORE CALLVALUE DUP1 ISZERO PUSH2 0x10 JUMPI PUSH1 0x0 DUP1 REVERT JUMPDEST POP PUSH1 0x0 PUSH1 0x1 DUP2 SWAP1 SSTORE POP PUSH2 0x5F PUSH1 0x40 MLOAD DUP1 PUSH1 0x40 ADD PUSH1 0x40 MSTORE DUP1 PUSH1 0x4 DUP2 MSTORE PUSH1 0x20 ADD PUSH32 0x566C616400000000000000000000000000000000000000000000000000000000 DUP2 MSTORE POP PUSH1 0x1 PUSH2 0xAA PUSH1 0x20 SHL PUSH1 0x20 SHR JUMP JUMPDEST PUSH2 0xA5 PUSH1 0x40 MLOAD DUP1 PUSH1 0x40 ADD PUSH1 0x40 MSTORE DUP1 PUSH1 0x6 DUP2 MSTORE PUSH1 0x20 ADD PUSH32 0x4E61737479610000000000000000000000000000000000000000000000000000 DUP2 MSTORE POP PUSH1 0x0 PUSH2 0xAA PUSH1 0x20 SHL PUSH1 0x20 SHR JUMP JUMPDEST PUSH2 0x1E2 JUMP JUMPDEST PUSH1 0x40 MLOAD DUP1 PUSH1 0x60 ADD PUSH1 0x40 MSTORE DUP1 PUSH1 0x1 SLOAD DUP2 MSTORE PUSH1 0x20 ADD DUP4 DUP2 MSTORE PUSH1 0x20 ADD DUP3 ISZERO ISZERO DUP2 MSTORE POP PUSH1 0x0 DUP1 PUSH1 0x1 SLOAD DUP2 MSTORE PUSH1 0x20 ADD SWAP1 DUP2 MSTORE PUSH1 0x20 ADD PUSH1 0x0 KECCAK256 PUSH1 0x0 DUP3 ADD MLOAD DUP2 PUSH1 0x0 ADD SSTORE PUSH1 0x20 DUP3 ADD MLOAD DUP2 PUSH1 0x1 ADD SWAP1 DUP1 MLOAD SWAP1 PUSH1 0x20 ADD SWAP1 PUSH2 0x103 SWAP3 SWAP2 SWAP1 PUSH2 0x13D JUMP JUMPDEST POP PUSH1 0x40 DUP3 ADD MLOAD DUP2 PUSH1 0x2 ADD PUSH1 0x0 PUSH2 0x100 EXP DUP2 SLOAD DUP2 PUSH1 0xFF MUL NOT AND SWAP1 DUP4 ISZERO ISZERO MUL OR SWAP1 SSTORE POP SWAP1 POP POP PUSH1 0x1 PUSH1 0x0 DUP2 SLOAD DUP1 SWAP3 SWAP2 SWAP1 PUSH1 0x1 ADD SWAP2 SWAP1 POP SSTORE POP POP POP JUMP JUMPDEST DUP3 DUP1 SLOAD PUSH1 0x1 DUP2 PUSH1 0x1 AND ISZERO PUSH2 0x100 MUL SUB AND PUSH1 0x2 SWAP1 DIV SWAP1 PUSH1 0x0 MSTORE PUSH1 0x20 PUSH1 0x0 KECCAK256 SWAP1 PUSH1 0x1F ADD PUSH1 0x20 SWAP1 DIV DUP2 ADD SWAP3 DUP3 PUSH1 0x1F LT PUSH2 0x17E JUMPI DUP1 MLOAD PUSH1 0xFF NOT AND DUP4 DUP1 ADD OR DUP6 SSTORE PUSH2 0x1AC JUMP JUMPDEST DUP3 DUP1 ADD PUSH1 0x1 ADD DUP6 SSTORE DUP3 ISZERO PUSH2 0x1AC JUMPI SWAP2 DUP3 ADD JUMPDEST DUP3 DUP2 GT ISZERO PUSH2 0x1AB JUMPI DUP3 MLOAD DUP3 SSTORE SWAP2 PUSH1 0x20 ADD SWAP2 SWAP1 PUSH1 0x1 ADD SWAP1 PUSH2 0x190 JUMP JUMPDEST JUMPDEST POP SWAP1 POP PUSH2 0x1B9 SWAP2 SWAP1 PUSH2 0x1BD JUMP JUMPDEST POP SWAP1 JUMP JUMPDEST PUSH2 0x1DF SWAP2 SWAP1 JUMPDEST DUP1 DUP3 GT ISZERO PUSH2 0x1DB JUMPI PUSH1 0x0 DUP2 PUSH1 0x0 SWAP1 SSTORE POP PUSH1 0x1 ADD PUSH2 0x1C3 JUMP JUMPDEST POP SWAP1 JUMP JUMPDEST SWAP1 JUMP JUMPDEST PUSH2 0xCF4 DUP1 PUSH3 0x1F2 PUSH1 0x0 CODECOPY PUSH1 0x0 RETURN INVALID PUSH1 0x80 PUSH1 0x40 MSTORE CALLVALUE DUP1 ISZERO PUSH2 0x10 JUMPI PUSH1 0x0 DUP1 REVERT JUMPDEST POP PUSH1 0x4 CALLDATASIZE LT PUSH2 0x62 JUMPI PUSH1 0x0 CALLDATALOAD PUSH1 0xE0 SHR DUP1 PUSH4 0x11AEE380 EQ PUSH2 0x67 JUMPI DUP1 PUSH4 0x5DAF08CA EQ PUSH2 0x85 JUMPI DUP1 PUSH4 0x6F416D59 EQ PUSH2 0xB7 JUMPI DUP1 PUSH4 0x92C68389 EQ PUSH2 0xD7 JUMPI DUP1 PUSH4 0xD3516B7E EQ PUSH2 0xF3 JUMPI DUP1 PUSH4 0xF97698F8 EQ PUSH2 0x10F JUMPI JUMPDEST PUSH1 0x0 DUP1 REVERT JUMPDEST PUSH2 0x6F PUSH2 0x13F JUMP JUMPDEST PUSH1 0x40 MLOAD PUSH2 0x7C SWAP2 SWAP1 PUSH2 0xA9D JUMP JUMPDEST PUSH1 0x40 MLOAD DUP1 SWAP2 SUB SWAP1 RETURN JUMPDEST PUSH2 0x9F PUSH1 0x4 DUP1 CALLDATASIZE SUB PUSH2 0x9A SWAP2 SWAP1 DUP2 ADD SWAP1 PUSH2 0x757 JUMP JUMPDEST PUSH2 0x145 JUMP JUMPDEST PUSH1 0x40 MLOAD PUSH2 0xAE SWAP4 SWAP3 SWAP2 SWAP1 PUSH2 0xAB8 JUMP JUMPDEST PUSH1 0x40 MLOAD DUP1 SWAP2 SUB SWAP1 RETURN JUMPDEST PUSH2 0xBF PUSH2 0x214 JUMP JUMPDEST PUSH1 0x40 MLOAD PUSH2 0xCE SWAP4 SWAP3 SWAP2 SWAP1 PUSH2 0xA2F JUMP JUMPDEST PUSH1 0x40 MLOAD DUP1 SWAP2 SUB SWAP1 RETURN JUMPDEST PUSH2 0xF1 PUSH1 0x4 DUP1 CALLDATASIZE SUB PUSH2 0xEC SWAP2 SWAP1 DUP2 ADD SWAP1 PUSH2 0x703 JUMP JUMPDEST PUSH2 0x406 JUMP JUMPDEST STOP JUMPDEST PUSH2 0x10D PUSH1 0x4 DUP1 CALLDATASIZE SUB PUSH2 0x108 SWAP2 SWAP1 DUP2 ADD SWAP1 PUSH2 0x780 JUMP JUMPDEST PUSH2 0x499 JUMP JUMPDEST STOP JUMPDEST PUSH2 0x129 PUSH1 0x4 DUP1 CALLDATASIZE SUB PUSH2 0x124 SWAP2 SWAP1 DUP2 ADD SWAP1 PUSH2 0x757 JUMP JUMPDEST PUSH2 0x4CA JUMP JUMPDEST PUSH1 0x40 MLOAD PUSH2 0x136 SWAP2 SWAP1 PUSH2 0xA7B JUMP JUMPDEST PUSH1 0x40 MLOAD DUP1 SWAP2 SUB SWAP1 RETURN JUMPDEST PUSH1 0x1 SLOAD DUP2 JUMP JUMPDEST PUSH1 0x0 PUSH1 0x20 MSTORE DUP1 PUSH1 0x0 MSTORE PUSH1 0x40 PUSH1 0x0 KECCAK256 PUSH1 0x0 SWAP2 POP SWAP1 POP DUP1 PUSH1 0x0 ADD SLOAD SWAP1 DUP1 PUSH1 0x1 ADD DUP1 SLOAD PUSH1 0x1 DUP2 PUSH1 0x1 AND ISZERO PUSH2 0x100 MUL SUB AND PUSH1 0x2 SWAP1 DIV DUP1 PUSH1 0x1F ADD PUSH1 0x20 DUP1 SWAP2 DIV MUL PUSH1 0x20 ADD PUSH1 0x40 MLOAD SWAP1 DUP2 ADD PUSH1 0x40 MSTORE DUP1 SWAP3 SWAP2 SWAP1 DUP2 DUP2 MSTORE PUSH1 0x20 ADD DUP3 DUP1 SLOAD PUSH1 0x1 DUP2 PUSH1 0x1 AND ISZERO PUSH2 0x100 MUL SUB AND PUSH1 0x2 SWAP1 DIV DUP1 ISZERO PUSH2 0x1F7 JUMPI DUP1 PUSH1 0x1F LT PUSH2 0x1CC JUMPI PUSH2 0x100 DUP1 DUP4 SLOAD DIV MUL DUP4 MSTORE SWAP2 PUSH1 0x20 ADD SWAP2 PUSH2 0x1F7 JUMP JUMPDEST DUP3 ADD SWAP2 SWAP1 PUSH1 0x0 MSTORE PUSH1 0x20 PUSH1 0x0 KECCAK256 SWAP1 JUMPDEST DUP2 SLOAD DUP2 MSTORE SWAP1 PUSH1 0x1 ADD SWAP1 PUSH1 0x20 ADD DUP1 DUP4 GT PUSH2 0x1DA JUMPI DUP3 SWAP1 SUB PUSH1 0x1F AND DUP3 ADD SWAP2 JUMPDEST POP POP POP POP POP SWAP1 DUP1 PUSH1 0x2 ADD PUSH1 0x0 SWAP1 SLOAD SWAP1 PUSH2 0x100 EXP SWAP1 DIV PUSH1 0xFF AND SWAP1 POP DUP4 JUMP JUMPDEST PUSH1 0x60 DUP1 PUSH1 0x60 DUP1 PUSH1 0x1 SLOAD PUSH1 0x40 MLOAD SWAP1 DUP1 DUP3 MSTORE DUP1 PUSH1 0x20 MUL PUSH1 0x20 ADD DUP3 ADD PUSH1 0x40 MSTORE DUP1 ISZERO PUSH2 0x24B JUMPI DUP2 PUSH1 0x20 ADD PUSH1 0x20 DUP3 MUL DUP1 CODESIZE DUP4 CODECOPY DUP1 DUP3 ADD SWAP2 POP POP SWAP1 POP JUMPDEST POP SWAP1 POP PUSH1 0x60 PUSH1 0x1 SLOAD PUSH1 0x40 MLOAD SWAP1 DUP1 DUP3 MSTORE DUP1 PUSH1 0x20 MUL PUSH1 0x20 ADD DUP3 ADD PUSH1 0x40 MSTORE DUP1 ISZERO PUSH2 0x286 JUMPI DUP2 PUSH1 0x20 ADD JUMPDEST PUSH1 0x60 DUP2 MSTORE PUSH1 0x20 ADD SWAP1 PUSH1 0x1 SWAP1 SUB SWAP1 DUP2 PUSH2 0x271 JUMPI SWAP1 POP JUMPDEST POP SWAP1 POP PUSH1 0x60 PUSH1 0x1 SLOAD PUSH1 0x40 MLOAD SWAP1 DUP1 DUP3 MSTORE DUP1 PUSH1 0x20 MUL PUSH1 0x20 ADD DUP3 ADD PUSH1 0x40 MSTORE DUP1 ISZERO PUSH2 0x2BC JUMPI DUP2 PUSH1 0x20 ADD PUSH1 0x20 DUP3 MUL DUP1 CODESIZE DUP4 CODECOPY DUP1 DUP3 ADD SWAP2 POP POP SWAP1 POP JUMPDEST POP SWAP1 POP PUSH1 0x0 DUP1 SWAP1 POP JUMPDEST PUSH1 0x1 SLOAD DUP2 LT ISZERO PUSH2 0x3F4 JUMPI PUSH1 0x0 DUP1 PUSH1 0x0 DUP4 DUP2 MSTORE PUSH1 0x20 ADD SWAP1 DUP2 MSTORE PUSH1 0x20 ADD PUSH1 0x0 KECCAK256 SWAP1 POP DUP1 PUSH1 0x0 ADD SLOAD DUP6 DUP4 DUP2 MLOAD DUP2 LT PUSH2 0x2F6 JUMPI INVALID JUMPDEST PUSH1 0x20 MUL PUSH1 0x20 ADD ADD DUP2 DUP2 MSTORE POP POP DUP1 PUSH1 0x1 ADD DUP1 SLOAD PUSH1 0x1 DUP2 PUSH1 0x1 AND ISZERO PUSH2 0x100 MUL SUB AND PUSH1 0x2 SWAP1 DIV DUP1 PUSH1 0x1F ADD PUSH1 0x20 DUP1 SWAP2 DIV MUL PUSH1 0x20 ADD PUSH1 0x40 MLOAD SWAP1 DUP2 ADD PUSH1 0x40 MSTORE DUP1 SWAP3 SWAP2 SWAP1 DUP2 DUP2 MSTORE PUSH1 0x20 ADD DUP3 DUP1 SLOAD PUSH1 0x1 DUP2 PUSH1 0x1 AND ISZERO PUSH2 0x100 MUL SUB AND PUSH1 0x2 SWAP1 DIV DUP1 ISZERO PUSH2 0x39A JUMPI DUP1 PUSH1 0x1F LT PUSH2 0x36F JUMPI PUSH2 0x100 DUP1 DUP4 SLOAD DIV MUL DUP4 MSTORE SWAP2 PUSH1 0x20 ADD SWAP2 PUSH2 0x39A JUMP JUMPDEST DUP3 ADD SWAP2 SWAP1 PUSH1 0x0 MSTORE PUSH1 0x20 PUSH1 0x0 KECCAK256 SWAP1 JUMPDEST DUP2 SLOAD DUP2 MSTORE SWAP1 PUSH1 0x1 ADD SWAP1 PUSH1 0x20 ADD DUP1 DUP4 GT PUSH2 0x37D JUMPI DUP3 SWAP1 SUB PUSH1 0x1F AND DUP3 ADD SWAP2 JUMPDEST POP POP POP POP POP DUP5 DUP4 DUP2 MLOAD DUP2 LT PUSH2 0x3AB JUMPI INVALID JUMPDEST PUSH1 0x20 MUL PUSH1 0x20 ADD ADD DUP2 SWAP1 MSTORE POP DUP1 PUSH1 0x2 ADD PUSH1 0x0 SWAP1 SLOAD SWAP1 PUSH2 0x100 EXP SWAP1 DIV PUSH1 0xFF AND DUP4 DUP4 DUP2 MLOAD DUP2 LT PUSH2 0x3D4 JUMPI INVALID JUMPDEST PUSH1 0x20 MUL PUSH1 0x20 ADD ADD SWAP1 ISZERO ISZERO SWAP1 DUP2 ISZERO ISZERO DUP2 MSTORE POP POP POP DUP1 DUP1 PUSH1 0x1 ADD SWAP2 POP POP PUSH2 0x2C5 JUMP JUMPDEST POP DUP3 DUP3 DUP3 SWAP6 POP SWAP6 POP SWAP6 POP POP POP POP SWAP1 SWAP2 SWAP3 JUMP JUMPDEST PUSH1 0x40 MLOAD DUP1 PUSH1 0x60 ADD PUSH1 0x40 MSTORE DUP1 PUSH1 0x1 SLOAD DUP2 MSTORE PUSH1 0x20 ADD DUP4 DUP2 MSTORE PUSH1 0x20 ADD DUP3 ISZERO ISZERO DUP2 MSTORE POP PUSH1 0x0 DUP1 PUSH1 0x1 SLOAD DUP2 MSTORE PUSH1 0x20 ADD SWAP1 DUP2 MSTORE PUSH1 0x20 ADD PUSH1 0x0 KECCAK256 PUSH1 0x0 DUP3 ADD MLOAD DUP2 PUSH1 0x0 ADD SSTORE PUSH1 0x20 DUP3 ADD MLOAD DUP2 PUSH1 0x1 ADD SWAP1 DUP1 MLOAD SWAP1 PUSH1 0x20 ADD SWAP1 PUSH2 0x45F SWAP3 SWAP2 SWAP1 PUSH2 0x5BD JUMP JUMPDEST POP PUSH1 0x40 DUP3 ADD MLOAD DUP2 PUSH1 0x2 ADD PUSH1 0x0 PUSH2 0x100 EXP DUP2 SLOAD DUP2 PUSH1 0xFF MUL NOT AND SWAP1 DUP4 ISZERO ISZERO MUL OR SWAP1 SSTORE POP SWAP1 POP POP PUSH1 0x1 PUSH1 0x0 DUP2 SLOAD DUP1 SWAP3 SWAP2 SWAP1 PUSH1 0x1 ADD SWAP2 SWAP1 POP SSTORE POP POP POP JUMP JUMPDEST DUP1 PUSH1 0x0 DUP1 DUP5 DUP2 MSTORE PUSH1 0x20 ADD SWAP1 DUP2 MSTORE PUSH1 0x20 ADD PUSH1 0x0 KECCAK256 PUSH1 0x2 ADD PUSH1 0x0 PUSH2 0x100 EXP DUP2 SLOAD DUP2 PUSH1 0xFF MUL NOT AND SWAP1 DUP4 ISZERO ISZERO MUL OR SWAP1 SSTORE POP POP POP JUMP JUMPDEST PUSH2 0x4D2 PUSH2 0x63D JUMP JUMPDEST PUSH1 0x0 DUP1 DUP4 DUP2 MSTORE PUSH1 0x20 ADD SWAP1 DUP2 MSTORE PUSH1 0x20 ADD PUSH1 0x0 KECCAK256 PUSH1 0x40 MLOAD DUP1 PUSH1 0x60 ADD PUSH1 0x40 MSTORE SWAP1 DUP2 PUSH1 0x0 DUP3 ADD SLOAD DUP2 MSTORE PUSH1 0x20 ADD PUSH1 0x1 DUP3 ADD DUP1 SLOAD PUSH1 0x1 DUP2 PUSH1 0x1 AND ISZERO PUSH2 0x100 MUL SUB AND PUSH1 0x2 SWAP1 DIV DUP1 PUSH1 0x1F ADD PUSH1 0x20 DUP1 SWAP2 DIV MUL PUSH1 0x20 ADD PUSH1 0x40 MLOAD SWAP1 DUP2 ADD PUSH1 0x40 MSTORE DUP1 SWAP3 SWAP2 SWAP1 DUP2 DUP2 MSTORE PUSH1 0x20 ADD DUP3 DUP1 SLOAD PUSH1 0x1 DUP2 PUSH1 0x1 AND ISZERO PUSH2 0x100 MUL SUB AND PUSH1 0x2 SWAP1 DIV DUP1 ISZERO PUSH2 0x592 JUMPI DUP1 PUSH1 0x1F LT PUSH2 0x567 JUMPI PUSH2 0x100 DUP1 DUP4 SLOAD DIV MUL DUP4 MSTORE SWAP2 PUSH1 0x20 ADD SWAP2 PUSH2 0x592 JUMP JUMPDEST DUP3 ADD SWAP2 SWAP1 PUSH1 0x0 MSTORE PUSH1 0x20 PUSH1 0x0 KECCAK256 SWAP1 JUMPDEST DUP2 SLOAD DUP2 MSTORE SWAP1 PUSH1 0x1 ADD SWAP1 PUSH1 0x20 ADD DUP1 DUP4 GT PUSH2 0x575 JUMPI DUP3 SWAP1 SUB PUSH1 0x1F AND DUP3 ADD SWAP2 JUMPDEST POP POP POP POP POP DUP2 MSTORE PUSH1 0x20 ADD PUSH1 0x2 DUP3 ADD PUSH1 0x0 SWAP1 SLOAD SWAP1 PUSH2 0x100 EXP SWAP1 DIV PUSH1 0xFF AND ISZERO ISZERO ISZERO ISZERO DUP2 MSTORE POP POP SWAP1 POP SWAP2 SWAP1 POP JUMP JUMPDEST DUP3 DUP1 SLOAD PUSH1 0x1 DUP2 PUSH1 0x1 AND ISZERO PUSH2 0x100 MUL SUB AND PUSH1 0x2 SWAP1 DIV SWAP1 PUSH1 0x0 MSTORE PUSH1 0x20 PUSH1 0x0 KECCAK256 SWAP1 PUSH1 0x1F ADD PUSH1 0x20 SWAP1 DIV DUP2 ADD SWAP3 DUP3 PUSH1 0x1F LT PUSH2 0x5FE JUMPI DUP1 MLOAD PUSH1 0xFF NOT AND DUP4 DUP1 ADD OR DUP6 SSTORE PUSH2 0x62C JUMP JUMPDEST DUP3 DUP1 ADD PUSH1 0x1 ADD DUP6 SSTORE DUP3 ISZERO PUSH2 0x62C JUMPI SWAP2 DUP3 ADD JUMPDEST DUP3 DUP2 GT ISZERO PUSH2 0x62B JUMPI DUP3 MLOAD DUP3 SSTORE SWAP2 PUSH1 0x20 ADD SWAP2 SWAP1 PUSH1 0x1 ADD SWAP1 PUSH2 0x610 JUMP JUMPDEST JUMPDEST POP SWAP1 POP PUSH2 0x639 SWAP2 SWAP1 PUSH2 0x660 JUMP JUMPDEST POP SWAP1 JUMP JUMPDEST PUSH1 0x40 MLOAD DUP1 PUSH1 0x60 ADD PUSH1 0x40 MSTORE DUP1 PUSH1 0x0 DUP2 MSTORE PUSH1 0x20 ADD PUSH1 0x60 DUP2 MSTORE PUSH1 0x20 ADD PUSH1 0x0 ISZERO ISZERO DUP2 MSTORE POP SWAP1 JUMP JUMPDEST PUSH2 0x682 SWAP2 SWAP1 JUMPDEST DUP1 DUP3 GT ISZERO PUSH2 0x67E JUMPI PUSH1 0x0 DUP2 PUSH1 0x0 SWAP1 SSTORE POP PUSH1 0x1 ADD PUSH2 0x666 JUMP JUMPDEST POP SWAP1 JUMP JUMPDEST SWAP1 JUMP JUMPDEST PUSH1 0x0 DUP2 CALLDATALOAD SWAP1 POP PUSH2 0x694 DUP2 PUSH2 0xC90 JUMP JUMPDEST SWAP3 SWAP2 POP POP JUMP JUMPDEST PUSH1 0x0 DUP3 PUSH1 0x1F DUP4 ADD SLT PUSH2 0x6AB JUMPI PUSH1 0x0 DUP1 REVERT JUMPDEST DUP2 CALLDATALOAD PUSH2 0x6BE PUSH2 0x6B9 DUP3 PUSH2 0xB23 JUMP JUMPDEST PUSH2 0xAF6 JUMP JUMPDEST SWAP2 POP DUP1 DUP3 MSTORE PUSH1 0x20 DUP4 ADD PUSH1 0x20 DUP4 ADD DUP6 DUP4 DUP4 ADD GT ISZERO PUSH2 0x6DA JUMPI PUSH1 0x0 DUP1 REVERT JUMPDEST PUSH2 0x6E5 DUP4 DUP3 DUP5 PUSH2 0xC3D JUMP JUMPDEST POP POP POP SWAP3 SWAP2 POP POP JUMP JUMPDEST PUSH1 0x0 DUP2 CALLDATALOAD SWAP1 POP PUSH2 0x6FD DUP2 PUSH2 0xCA7 JUMP JUMPDEST SWAP3 SWAP2 POP POP JUMP JUMPDEST PUSH1 0x0 DUP1 PUSH1 0x40 DUP4 DUP6 SUB SLT ISZERO PUSH2 0x716 JUMPI PUSH1 0x0 DUP1 REVERT JUMPDEST PUSH1 0x0 DUP4 ADD CALLDATALOAD PUSH8 0xFFFFFFFFFFFFFFFF DUP2 GT ISZERO PUSH2 0x730 JUMPI PUSH1 0x0 DUP1 REVERT JUMPDEST PUSH2 0x73C DUP6 DUP3 DUP7 ADD PUSH2 0x69A JUMP JUMPDEST SWAP3 POP POP PUSH1 0x20 PUSH2 0x74D DUP6 DUP3 DUP7 ADD PUSH2 0x685 JUMP JUMPDEST SWAP2 POP POP SWAP3 POP SWAP3 SWAP1 POP JUMP JUMPDEST PUSH1 0x0 PUSH1 0x20 DUP3 DUP5 SUB SLT ISZERO PUSH2 0x769 JUMPI PUSH1 0x0 DUP1 REVERT JUMPDEST PUSH1 0x0 PUSH2 0x777 DUP5 DUP3 DUP6 ADD PUSH2 0x6EE JUMP JUMPDEST SWAP2 POP POP SWAP3 SWAP2 POP POP JUMP JUMPDEST PUSH1 0x0 DUP1 PUSH1 0x40 DUP4 DUP6 SUB SLT ISZERO PUSH2 0x793 JUMPI PUSH1 0x0 DUP1 REVERT JUMPDEST PUSH1 0x0 PUSH2 0x7A1 DUP6 DUP3 DUP7 ADD PUSH2 0x6EE JUMP JUMPDEST SWAP3 POP POP PUSH1 0x20 PUSH2 0x7B2 DUP6 DUP3 DUP7 ADD PUSH2 0x685 JUMP JUMPDEST SWAP2 POP POP SWAP3 POP SWAP3 SWAP1 POP JUMP JUMPDEST PUSH1 0x0 PUSH2 0x7C8 DUP4 DUP4 PUSH2 0x931 JUMP JUMPDEST PUSH1 0x20 DUP4 ADD SWAP1 POP SWAP3 SWAP2 POP POP JUMP JUMPDEST PUSH1 0x0 PUSH2 0x7E0 DUP4 DUP4 PUSH2 0x94F JUMP JUMPDEST SWAP1 POP SWAP3 SWAP2 POP POP JUMP JUMPDEST PUSH1 0x0 PUSH2 0x7F4 DUP4 DUP4 PUSH2 0xA11 JUMP JUMPDEST PUSH1 0x20 DUP4 ADD SWAP1 POP SWAP3 SWAP2 POP POP JUMP JUMPDEST PUSH1 0x0 PUSH2 0x80B DUP3 PUSH2 0xB7F JUMP JUMPDEST PUSH2 0x815 DUP2 DUP6 PUSH2 0xBD2 JUMP JUMPDEST SWAP4 POP PUSH2 0x820 DUP4 PUSH2 0xB4F JUMP JUMPDEST DUP1 PUSH1 0x0 JUMPDEST DUP4 DUP2 LT ISZERO PUSH2 0x851 JUMPI DUP2 MLOAD PUSH2 0x838 DUP9 DUP3 PUSH2 0x7BC JUMP JUMPDEST SWAP8 POP PUSH2 0x843 DUP4 PUSH2 0xBAB JUMP JUMPDEST SWAP3 POP POP PUSH1 0x1 DUP2 ADD SWAP1 POP PUSH2 0x824 JUMP JUMPDEST POP DUP6 SWAP4 POP POP POP POP SWAP3 SWAP2 POP POP JUMP JUMPDEST PUSH1 0x0 PUSH2 0x869 DUP3 PUSH2 0xB8A JUMP JUMPDEST PUSH2 0x873 DUP2 DUP6 PUSH2 0xBE3 JUMP JUMPDEST SWAP4 POP DUP4 PUSH1 0x20 DUP3 MUL DUP6 ADD PUSH2 0x885 DUP6 PUSH2 0xB5F JUMP JUMPDEST DUP1 PUSH1 0x0 JUMPDEST DUP6 DUP2 LT ISZERO PUSH2 0x8C1 JUMPI DUP5 DUP5 SUB DUP10 MSTORE DUP2 MLOAD PUSH2 0x8A2 DUP6 DUP3 PUSH2 0x7D4 JUMP JUMPDEST SWAP5 POP PUSH2 0x8AD DUP4 PUSH2 0xBB8 JUMP JUMPDEST SWAP3 POP PUSH1 0x20 DUP11 ADD SWAP10 POP POP PUSH1 0x1 DUP2 ADD SWAP1 POP PUSH2 0x889 JUMP JUMPDEST POP DUP3 SWAP8 POP DUP8 SWAP6 POP POP POP POP POP POP SWAP3 SWAP2 POP POP JUMP JUMPDEST PUSH1 0x0 PUSH2 0x8DE DUP3 PUSH2 0xB95 JUMP JUMPDEST PUSH2 0x8E8 DUP2 DUP6 PUSH2 0xBF4 JUMP JUMPDEST SWAP4 POP PUSH2 0x8F3 DUP4 PUSH2 0xB6F JUMP JUMPDEST DUP1 PUSH1 0x0 JUMPDEST DUP4 DUP2 LT ISZERO PUSH2 0x924 JUMPI DUP2 MLOAD PUSH2 0x90B DUP9 DUP3 PUSH2 0x7E8 JUMP JUMPDEST SWAP8 POP PUSH2 0x916 DUP4 PUSH2 0xBC5 JUMP JUMPDEST SWAP3 POP POP PUSH1 0x1 DUP2 ADD SWAP1 POP PUSH2 0x8F7 JUMP JUMPDEST POP DUP6 SWAP4 POP POP POP POP SWAP3 SWAP2 POP POP JUMP JUMPDEST PUSH2 0x93A DUP2 PUSH2 0xC27 JUMP JUMPDEST DUP3 MSTORE POP POP JUMP JUMPDEST PUSH2 0x949 DUP2 PUSH2 0xC27 JUMP JUMPDEST DUP3 MSTORE POP POP JUMP JUMPDEST PUSH1 0x0 PUSH2 0x95A DUP3 PUSH2 0xBA0 JUMP JUMPDEST PUSH2 0x964 DUP2 DUP6 PUSH2 0xC05 JUMP JUMPDEST SWAP4 POP PUSH2 0x974 DUP2 DUP6 PUSH1 0x20 DUP7 ADD PUSH2 0xC4C JUMP JUMPDEST PUSH2 0x97D DUP2 PUSH2 0xC7F JUMP JUMPDEST DUP5 ADD SWAP2 POP POP SWAP3 SWAP2 POP POP JUMP JUMPDEST PUSH1 0x0 PUSH2 0x993 DUP3 PUSH2 0xBA0 JUMP JUMPDEST PUSH2 0x99D DUP2 DUP6 PUSH2 0xC16 JUMP JUMPDEST SWAP4 POP PUSH2 0x9AD DUP2 DUP6 PUSH1 0x20 DUP7 ADD PUSH2 0xC4C JUMP JUMPDEST PUSH2 0x9B6 DUP2 PUSH2 0xC7F JUMP JUMPDEST DUP5 ADD SWAP2 POP POP SWAP3 SWAP2 POP POP JUMP JUMPDEST PUSH1 0x0 PUSH1 0x60 DUP4 ADD PUSH1 0x0 DUP4 ADD MLOAD PUSH2 0x9D9 PUSH1 0x0 DUP7 ADD DUP3 PUSH2 0xA11 JUMP JUMPDEST POP PUSH1 0x20 DUP4 ADD MLOAD DUP5 DUP3 SUB PUSH1 0x20 DUP7 ADD MSTORE PUSH2 0x9F1 DUP3 DUP3 PUSH2 0x94F JUMP JUMPDEST SWAP2 POP POP PUSH1 0x40 DUP4 ADD MLOAD PUSH2 0xA06 PUSH1 0x40 DUP7 ADD DUP3 PUSH2 0x931 JUMP JUMPDEST POP DUP1 SWAP2 POP POP SWAP3 SWAP2 POP POP JUMP JUMPDEST PUSH2 0xA1A DUP2 PUSH2 0xC33 JUMP JUMPDEST DUP3 MSTORE POP POP JUMP JUMPDEST PUSH2 0xA29 DUP2 PUSH2 0xC33 JUMP JUMPDEST DUP3 MSTORE POP POP JUMP JUMPDEST PUSH1 0x0 PUSH1 0x60 DUP3 ADD SWAP1 POP DUP2 DUP2 SUB PUSH1 0x0 DUP4 ADD MSTORE PUSH2 0xA49 DUP2 DUP7 PUSH2 0x8D3 JUMP JUMPDEST SWAP1 POP DUP2 DUP2 SUB PUSH1 0x20 DUP4 ADD MSTORE PUSH2 0xA5D DUP2 DUP6 PUSH2 0x85E JUMP JUMPDEST SWAP1 POP DUP2 DUP2 SUB PUSH1 0x40 DUP4 ADD MSTORE PUSH2 0xA71 DUP2 DUP5 PUSH2 0x800 JUMP JUMPDEST SWAP1 POP SWAP5 SWAP4 POP POP POP POP JUMP JUMPDEST PUSH1 0x0 PUSH1 0x20 DUP3 ADD SWAP1 POP DUP2 DUP2 SUB PUSH1 0x0 DUP4 ADD MSTORE PUSH2 0xA95 DUP2 DUP5 PUSH2 0x9C1 JUMP JUMPDEST SWAP1 POP SWAP3 SWAP2 POP POP JUMP JUMPDEST PUSH1 0x0 PUSH1 0x20 DUP3 ADD SWAP1 POP PUSH2 0xAB2 PUSH1 0x0 DUP4 ADD DUP5 PUSH2 0xA20 JUMP JUMPDEST SWAP3 SWAP2 POP POP JUMP JUMPDEST PUSH1 0x0 PUSH1 0x60 DUP3 ADD SWAP1 POP PUSH2 0xACD PUSH1 0x0 DUP4 ADD DUP7 PUSH2 0xA20 JUMP JUMPDEST DUP2 DUP2 SUB PUSH1 0x20 DUP4 ADD MSTORE PUSH2 0xADF DUP2 DUP6 PUSH2 0x988 JUMP JUMPDEST SWAP1 POP PUSH2 0xAEE PUSH1 0x40 DUP4 ADD DUP5 PUSH2 0x940 JUMP JUMPDEST SWAP5 SWAP4 POP POP POP POP JUMP JUMPDEST PUSH1 0x0 PUSH1 0x40 MLOAD SWAP1 POP DUP2 DUP2 ADD DUP2 DUP2 LT PUSH8 0xFFFFFFFFFFFFFFFF DUP3 GT OR ISZERO PUSH2 0xB19 JUMPI PUSH1 0x0 DUP1 REVERT JUMPDEST DUP1 PUSH1 0x40 MSTORE POP SWAP2 SWAP1 POP JUMP JUMPDEST PUSH1 0x0 PUSH8 0xFFFFFFFFFFFFFFFF DUP3 GT ISZERO PUSH2 0xB3A JUMPI PUSH1 0x0 DUP1 REVERT JUMPDEST PUSH1 0x1F NOT PUSH1 0x1F DUP4 ADD AND SWAP1 POP PUSH1 0x20 DUP2 ADD SWAP1 POP SWAP2 SWAP1 POP JUMP JUMPDEST PUSH1 0x0 DUP2 SWAP1 POP PUSH1 0x20 DUP3 ADD SWAP1 POP SWAP2 SWAP1 POP JUMP JUMPDEST PUSH1 0x0 DUP2 SWAP1 POP PUSH1 0x20 DUP3 ADD SWAP1 POP SWAP2 SWAP1 POP JUMP JUMPDEST PUSH1 0x0 DUP2 SWAP1 POP PUSH1 0x20 DUP3 ADD SWAP1 POP SWAP2 SWAP1 POP JUMP JUMPDEST PUSH1 0x0 DUP2 MLOAD SWAP1 POP SWAP2 SWAP1 POP JUMP JUMPDEST PUSH1 0x0 DUP2 MLOAD SWAP1 POP SWAP2 SWAP1 POP JUMP JUMPDEST PUSH1 0x0 DUP2 MLOAD SWAP1 POP SWAP2 SWAP1 POP JUMP JUMPDEST PUSH1 0x0 DUP2 MLOAD SWAP1 POP SWAP2 SWAP1 POP JUMP JUMPDEST PUSH1 0x0 PUSH1 0x20 DUP3 ADD SWAP1 POP SWAP2 SWAP1 POP JUMP JUMPDEST PUSH1 0x0 PUSH1 0x20 DUP3 ADD SWAP1 POP SWAP2 SWAP1 POP JUMP JUMPDEST PUSH1 0x0 PUSH1 0x20 DUP3 ADD SWAP1 POP SWAP2 SWAP1 POP JUMP JUMPDEST PUSH1 0x0 DUP3 DUP3 MSTORE PUSH1 0x20 DUP3 ADD SWAP1 POP SWAP3 SWAP2 POP POP JUMP JUMPDEST PUSH1 0x0 DUP3 DUP3 MSTORE PUSH1 0x20 DUP3 ADD SWAP1 POP SWAP3 SWAP2 POP POP JUMP JUMPDEST PUSH1 0x0 DUP3 DUP3 MSTORE PUSH1 0x20 DUP3 ADD SWAP1 POP SWAP3 SWAP2 POP POP JUMP JUMPDEST PUSH1 0x0 DUP3 DUP3 MSTORE PUSH1 0x20 DUP3 ADD SWAP1 POP SWAP3 SWAP2 POP POP JUMP JUMPDEST PUSH1 0x0 DUP3 DUP3 MSTORE PUSH1 0x20 DUP3 ADD SWAP1 POP SWAP3 SWAP2 POP POP JUMP JUMPDEST PUSH1 0x0 DUP2 ISZERO ISZERO SWAP1 POP SWAP2 SWAP1 POP JUMP JUMPDEST PUSH1 0x0 DUP2 SWAP1 POP SWAP2 SWAP1 POP JUMP JUMPDEST DUP3 DUP2 DUP4 CALLDATACOPY PUSH1 0x0 DUP4 DUP4 ADD MSTORE POP POP POP JUMP JUMPDEST PUSH1 0x0 JUMPDEST DUP4 DUP2 LT ISZERO PUSH2 0xC6A JUMPI DUP1 DUP3 ADD MLOAD DUP2 DUP5 ADD MSTORE PUSH1 0x20 DUP2 ADD SWAP1 POP PUSH2 0xC4F JUMP JUMPDEST DUP4 DUP2 GT ISZERO PUSH2 0xC79 JUMPI PUSH1 0x0 DUP5 DUP5 ADD MSTORE JUMPDEST POP POP POP POP JUMP JUMPDEST PUSH1 0x0 PUSH1 0x1F NOT PUSH1 0x1F DUP4 ADD AND SWAP1 POP SWAP2 SWAP1 POP JUMP JUMPDEST PUSH2 0xC99 DUP2 PUSH2 0xC27 JUMP JUMPDEST DUP2 EQ PUSH2 0xCA4 JUMPI PUSH1 0x0 DUP1 REVERT JUMPDEST POP JUMP JUMPDEST PUSH2 0xCB0 DUP2 PUSH2 0xC33 JUMP JUMPDEST DUP2 EQ PUSH2 0xCBB JUMPI PUSH1 0x0 DUP1 REVERT JUMPDEST POP JUMP INVALID LOG2 PUSH5 0x6970667358 0x22 SLT KECCAK256 0x2C PUSH13 0x899E407C5B0F14533C08D5977A 0xD3 0xDB AND CHAINID KECCAK256 SWAP12 0xD0 0xDF SDIV TIMESTAMP BALANCE PUSH18 0x9505FC67E264736F6C634300060000330000 "
				},
				"gasEstimates": {
					"creation": {
						"codeDepositCost": "663200",
						"executionCost": "infinite",
						"totalCost": "infinite"
					},
					"external": {
						"addMember(string,bool)": "infinite",
						"getMemberStructure(uint256)": "infinite",
						"getMemberValue()": "infinite",
						"memberCount()": "1107",
						"members(uint256)": "infinite",
						"setVote(uint256,bool)": "21602"
					}
				},
				"methodIdentifiers": {
					"addMember(string,bool)": "92c68389",
					"getMemberStructure(uint256)": "f97698f8",
					"getMemberValue()": "6f416d59",
					"memberCount()": "11aee380",
					"members(uint256)": "5daf08ca",
					"setVote(uint256,bool)": "d3516b7e"
				}
			},
			"storageLayout": {
				"storage": [
					{
						"astId": 13,
						"contract": "contracts/fun_stuff.sol:VoteSaving",
						"label": "members",
						"offset": 0,
						"slot": "0",
						"type": "t_mapping(t_uint256,t_struct(Member)9_storage)"
					},
					{
						"astId": 19,
						"contract": "contracts/fun_stuff.sol:VoteSaving",
						"label": "memberCount",
						"offset": 0,
						"slot": "1",
						"type": "t_uint256"
					}
				],
				"types": {
					"t_bool": {
						"encoding": "inplace",
						"label": "bool",
						"numberOfBytes": "1"
					},
					"t_mapping(t_uint256,t_struct(Member)9_storage)": {
						"encoding": "mapping",
						"key": "t_uint256",
						"label": "mapping(uint256 => struct VoteSaving.Member)",
						"numberOfBytes": "32",
						"value": "t_struct(Member)9_storage"
					},
					"t_string_storage": {
						"encoding": "bytes",
						"label": "string",
						"numberOfBytes": "32"
					},
					"t_struct(Member)9_storage": {
						"encoding": "inplace",
						"label": "struct VoteSaving.Member",
						"members": [
							{
								"astId": 4,
								"contract": "contracts/fun_stuff.sol:VoteSaving",
								"label": "id",
								"offset": 0,
								"slot": "0",
								"type": "t_uint256"
							},
							{
								"astId": 6,
								"contract": "contracts/fun_stuff.sol:VoteSaving",
								"label": "name",
								"offset": 0,
								"slot": "1",
								"type": "t_string_storage"
							},
							{
								"astId": 8,
								"contract": "contracts/fun_stuff.sol:VoteSaving",
								"label": "isVoted",
								"offset": 0,
								"slot": "2",
								"type": "t_bool"
							}
						],
						"numberOfBytes": "96"
					},
					"t_uint256": {
						"encoding": "inplace",
						"label": "uint256",
						"numberOfBytes": "32"
					}
				}
			},
			"userdoc": {
				"methods": {}
			}
		}
	}
}