{
	"contracts/sandbox.sol": {
		"StructArrayInitWrong": {
			"abi": [
				{
					"inputs": [
						{
							"internalType": "uint256",
							"name": "_room_nums",
							"type": "uint256"
						}
					],
					"name": "createRoom",
					"outputs": [],
					"stateMutability": "nonpayable",
					"type": "function"
				},
				{
					"inputs": [
						{
							"internalType": "uint256",
							"name": "_roomid",
							"type": "uint256"
						}
					],
					"name": "getRoomStructure",
					"outputs": [
						{
							"components": [
								{
									"internalType": "uint256",
									"name": "id",
									"type": "uint256"
								},
								{
									"internalType": "address[]",
									"name": "players",
									"type": "address[]"
								}
							],
							"internalType": "struct StructArrayInitWrong.Room",
							"name": "",
							"type": "tuple"
						}
					],
					"stateMutability": "view",
					"type": "function"
				},
				{
					"inputs": [],
					"name": "roomCount",
					"outputs": [
						{
							"internalType": "uint256",
							"name": "",
							"type": "uint256"
						}
					],
					"stateMutability": "view",
					"type": "function"
				}
			],
			"devdoc": {
				"kind": "dev",
				"methods": {},
				"version": 1
			},
			"evm": {
				"assembly": "    /* \"contracts/sandbox.sol\":95:987  contract StructArrayInitWrong {\r... */\n  mstore(0x40, 0x80)\n  callvalue\n  dup1\n  iszero\n  tag_1\n  jumpi\n  0x00\n  dup1\n  revert\ntag_1:\n  pop\n  dataSize(sub_0)\n  dup1\n  dataOffset(sub_0)\n  0x00\n  codecopy\n  0x00\n  return\nstop\n\nsub_0: assembly {\n        /* \"contracts/sandbox.sol\":95:987  contract StructArrayInitWrong {\r... */\n      mstore(0x40, 0x80)\n      callvalue\n      dup1\n      iszero\n      tag_1\n      jumpi\n      0x00\n      dup1\n      revert\n    tag_1:\n      pop\n      jumpi(tag_2, lt(calldatasize, 0x04))\n      shr(0xe0, calldataload(0x00))\n      dup1\n      0x5b35f921\n      eq\n      tag_3\n      jumpi\n      dup1\n      0xbbba8257\n      eq\n      tag_4\n      jumpi\n      dup1\n      0xdf93a4e3\n      eq\n      tag_5\n      jumpi\n    tag_2:\n      0x00\n      dup1\n      revert\n        /* \"contracts/sandbox.sol\":872:984  function getRoomStructure(uint _roomid) public view returns(Room memory){\r... */\n    tag_3:\n      tag_6\n      0x04\n      dup1\n      calldatasize\n      sub\n      dup2\n      add\n      swap1\n      tag_7\n      swap2\n      swap1\n      tag_8\n      jump\t// in\n    tag_7:\n      tag_9\n      jump\t// in\n    tag_6:\n      mload(0x40)\n      tag_10\n      swap2\n      swap1\n      tag_11\n      jump\t// in\n    tag_10:\n      mload(0x40)\n      dup1\n      swap2\n      sub\n      swap1\n      return\n        /* \"contracts/sandbox.sol\":397:756  function createRoom(uint _room_nums) public {\r... */\n    tag_4:\n      tag_12\n      0x04\n      dup1\n      calldatasize\n      sub\n      dup2\n      add\n      swap1\n      tag_13\n      swap2\n      swap1\n      tag_8\n      jump\t// in\n    tag_13:\n      tag_14\n      jump\t// in\n    tag_12:\n      stop\n        /* \"contracts/sandbox.sol\":367:388  uint public roomCount */\n    tag_5:\n      tag_15\n      tag_16\n      jump\t// in\n    tag_15:\n      mload(0x40)\n      tag_17\n      swap2\n      swap1\n      tag_18\n      jump\t// in\n    tag_17:\n      mload(0x40)\n      dup1\n      swap2\n      sub\n      swap1\n      return\n        /* \"contracts/sandbox.sol\":872:984  function getRoomStructure(uint _roomid) public view returns(Room memory){\r... */\n    tag_9:\n        /* \"contracts/sandbox.sol\":932:943  Room memory */\n      tag_19\n      tag_20\n      jump\t// in\n    tag_19:\n        /* \"contracts/sandbox.sol\":962:967  rooms */\n      0x00\n        /* \"contracts/sandbox.sol\":968:975  _roomid */\n      dup3\n        /* \"contracts/sandbox.sol\":962:976  rooms[_roomid] */\n      dup2\n      sload\n      dup2\n      lt\n      tag_22\n      jumpi\n      mstore(0x00, 0x4e487b7100000000000000000000000000000000000000000000000000000000)\n      mstore(0x04, 0x32)\n      revert(0x00, 0x24)\n    tag_22:\n      swap1\n      0x00\n      mstore\n      keccak256(0x00, 0x20)\n      swap1\n      0x02\n      mul\n      add\n        /* \"contracts/sandbox.sol\":955:976  return rooms[_roomid] */\n      mload(0x40)\n      dup1\n      0x40\n      add\n      0x40\n      mstore\n      swap1\n      dup2\n      0x00\n      dup3\n      add\n      sload\n      dup2\n      mstore\n      0x20\n      add\n      0x01\n      dup3\n      add\n      dup1\n      sload\n      dup1\n      0x20\n      mul\n      0x20\n      add\n      mload(0x40)\n      swap1\n      dup2\n      add\n      0x40\n      mstore\n      dup1\n      swap3\n      swap2\n      swap1\n      dup2\n      dup2\n      mstore\n      0x20\n      add\n      dup3\n      dup1\n      sload\n      dup1\n      iszero\n      tag_24\n      jumpi\n      0x20\n      mul\n      dup3\n      add\n      swap2\n      swap1\n      0x00\n      mstore\n      keccak256(0x00, 0x20)\n      swap1\n    tag_25:\n      dup2\n      0x00\n      swap1\n      sload\n      swap1\n      0x0100\n      exp\n      swap1\n      div\n      0xffffffffffffffffffffffffffffffffffffffff\n      and\n      0xffffffffffffffffffffffffffffffffffffffff\n      and\n      dup2\n      mstore\n      0x20\n      add\n      swap1\n      0x01\n      add\n      swap1\n      dup1\n      dup4\n      gt\n      tag_25\n      jumpi\n    tag_24:\n      pop\n      pop\n      pop\n      pop\n      pop\n      dup2\n      mstore\n      pop\n      pop\n      swap1\n      pop\n        /* \"contracts/sandbox.sol\":872:984  function getRoomStructure(uint _roomid) public view returns(Room memory){\r... */\n      swap2\n      swap1\n      pop\n      jump\t// out\n        /* \"contracts/sandbox.sol\":397:756  function createRoom(uint _room_nums) public {\r... */\n    tag_14:\n        /* \"contracts/sandbox.sol\":518:521  adr */\n      0x02\n        /* \"contracts/sandbox.sol\":527:537  msg.sender */\n      caller\n        /* \"contracts/sandbox.sol\":518:538  adr.push(msg.sender) */\n      swap1\n      dup1\n      0x01\n      dup2\n      sload\n      add\n      dup1\n      dup3\n      sstore\n      dup1\n      swap2\n      pop\n      pop\n      0x01\n      swap1\n      sub\n      swap1\n      0x00\n      mstore\n      keccak256(0x00, 0x20)\n      add\n      0x00\n      swap1\n      swap2\n      swap1\n      swap2\n      swap1\n      swap2\n      0x0100\n      exp\n      dup2\n      sload\n      dup2\n      0xffffffffffffffffffffffffffffffffffffffff\n      mul\n      not\n      and\n      swap1\n      dup4\n      0xffffffffffffffffffffffffffffffffffffffff\n      and\n      mul\n      or\n      swap1\n      sstore\n      pop\n        /* \"contracts/sandbox.sol\":656:672  Room memory room */\n      0x00\n        /* \"contracts/sandbox.sol\":675:695  Room(roomCount, adr) */\n      mload(0x40)\n      dup1\n      0x40\n      add\n      0x40\n      mstore\n      dup1\n        /* \"contracts/sandbox.sol\":680:689  roomCount */\n      sload(0x03)\n        /* \"contracts/sandbox.sol\":675:695  Room(roomCount, adr) */\n      dup2\n      mstore\n      0x20\n      add\n        /* \"contracts/sandbox.sol\":691:694  adr */\n      0x02\n        /* \"contracts/sandbox.sol\":675:695  Room(roomCount, adr) */\n      dup1\n      sload\n      dup1\n      0x20\n      mul\n      0x20\n      add\n      mload(0x40)\n      swap1\n      dup2\n      add\n      0x40\n      mstore\n      dup1\n      swap3\n      swap2\n      swap1\n      dup2\n      dup2\n      mstore\n      0x20\n      add\n      dup3\n      dup1\n      sload\n      dup1\n      iszero\n      tag_28\n      jumpi\n      0x20\n      mul\n      dup3\n      add\n      swap2\n      swap1\n      0x00\n      mstore\n      keccak256(0x00, 0x20)\n      swap1\n    tag_29:\n      dup2\n      0x00\n      swap1\n      sload\n      swap1\n      0x0100\n      exp\n      swap1\n      div\n      0xffffffffffffffffffffffffffffffffffffffff\n      and\n      0xffffffffffffffffffffffffffffffffffffffff\n      and\n      dup2\n      mstore\n      0x20\n      add\n      swap1\n      0x01\n      add\n      swap1\n      dup1\n      dup4\n      gt\n      tag_29\n      jumpi\n    tag_28:\n      pop\n      pop\n      pop\n      pop\n      pop\n      dup2\n      mstore\n      pop\n        /* \"contracts/sandbox.sol\":656:695  Room memory room = Room(roomCount, adr) */\n      swap1\n      pop\n        /* \"contracts/sandbox.sol\":710:715  rooms */\n      0x00\n        /* \"contracts/sandbox.sol\":721:725  room */\n      dup2\n        /* \"contracts/sandbox.sol\":710:726  rooms.push(room) */\n      swap1\n      dup1\n      0x01\n      dup2\n      sload\n      add\n      dup1\n      dup3\n      sstore\n      dup1\n      swap2\n      pop\n      pop\n      0x01\n      swap1\n      sub\n      swap1\n      0x00\n      mstore\n      keccak256(0x00, 0x20)\n      swap1\n      0x02\n      mul\n      add\n      0x00\n      swap1\n      swap2\n      swap1\n      swap2\n      swap1\n      swap2\n      pop\n      0x00\n      dup3\n      add\n      mload\n      dup2\n      0x00\n      add\n      sstore\n      0x20\n      dup3\n      add\n      mload\n      dup2\n      0x01\n      add\n      swap1\n      dup1\n      mload\n      swap1\n      0x20\n      add\n      swap1\n      tag_31\n      swap3\n      swap2\n      swap1\n      tag_32\n      jump\t// in\n    tag_31:\n      pop\n      pop\n      pop\n        /* \"contracts/sandbox.sol\":737:746  roomCount */\n      0x03\n      0x00\n        /* \"contracts/sandbox.sol\":737:748  roomCount++ */\n      dup2\n      sload\n      dup1\n      swap3\n      swap2\n      swap1\n      tag_33\n      swap1\n      tag_34\n      jump\t// in\n    tag_33:\n      swap2\n      swap1\n      pop\n      sstore\n      pop\n        /* \"contracts/sandbox.sol\":397:756  function createRoom(uint _room_nums) public {\r... */\n      pop\n      pop\n      jump\t// out\n        /* \"contracts/sandbox.sol\":367:388  uint public roomCount */\n    tag_16:\n      sload(0x03)\n      dup2\n      jump\t// out\n    tag_20:\n      mload(0x40)\n      dup1\n      0x40\n      add\n      0x40\n      mstore\n      dup1\n      0x00\n      dup2\n      mstore\n      0x20\n      add\n      0x60\n      dup2\n      mstore\n      pop\n      swap1\n      jump\t// out\n    tag_32:\n      dup3\n      dup1\n      sload\n      dup3\n      dup3\n      sstore\n      swap1\n      0x00\n      mstore\n      keccak256(0x00, 0x20)\n      swap1\n      dup2\n      add\n      swap3\n      dup3\n      iszero\n      tag_35\n      jumpi\n      swap2\n      0x20\n      mul\n      dup3\n      add\n    tag_36:\n      dup3\n      dup2\n      gt\n      iszero\n      tag_37\n      jumpi\n      dup3\n      mload\n      dup3\n      exp(0x0100, 0x00)\n      dup2\n      sload\n      dup2\n      0xffffffffffffffffffffffffffffffffffffffff\n      mul\n      not\n      and\n      swap1\n      dup4\n      0xffffffffffffffffffffffffffffffffffffffff\n      and\n      mul\n      or\n      swap1\n      sstore\n      pop\n      swap2\n      0x20\n      add\n      swap2\n      swap1\n      0x01\n      add\n      swap1\n      jump(tag_36)\n    tag_37:\n    tag_35:\n      pop\n      swap1\n      pop\n      tag_38\n      swap2\n      swap1\n      tag_39\n      jump\t// in\n    tag_38:\n      pop\n      swap1\n      jump\t// out\n    tag_39:\n    tag_40:\n      dup1\n      dup3\n      gt\n      iszero\n      tag_41\n      jumpi\n      0x00\n      dup2\n      0x00\n      swap1\n      sstore\n      pop\n      0x01\n      add\n      jump(tag_40)\n    tag_41:\n      pop\n      swap1\n      jump\t// out\n        /* \"#utility.yul\":7:146   */\n    tag_43:\n      0x00\n        /* \"#utility.yul\":91:97   */\n      dup2\n        /* \"#utility.yul\":78:98   */\n      calldataload\n        /* \"#utility.yul\":69:98   */\n      swap1\n      pop\n        /* \"#utility.yul\":107:140   */\n      tag_45\n        /* \"#utility.yul\":134:139   */\n      dup2\n        /* \"#utility.yul\":107:140   */\n      tag_46\n      jump\t// in\n    tag_45:\n        /* \"#utility.yul\":59:146   */\n      swap3\n      swap2\n      pop\n      pop\n      jump\t// out\n        /* \"#utility.yul\":152:414   */\n    tag_8:\n      0x00\n        /* \"#utility.yul\":260:262   */\n      0x20\n        /* \"#utility.yul\":248:257   */\n      dup3\n        /* \"#utility.yul\":239:246   */\n      dup5\n        /* \"#utility.yul\":235:258   */\n      sub\n        /* \"#utility.yul\":231:263   */\n      slt\n        /* \"#utility.yul\":228:230   */\n      iszero\n      tag_48\n      jumpi\n        /* \"#utility.yul\":276:277   */\n      0x00\n        /* \"#utility.yul\":273:274   */\n      dup1\n        /* \"#utility.yul\":266:278   */\n      revert\n        /* \"#utility.yul\":228:230   */\n    tag_48:\n        /* \"#utility.yul\":319:320   */\n      0x00\n        /* \"#utility.yul\":344:397   */\n      tag_49\n        /* \"#utility.yul\":389:396   */\n      dup5\n        /* \"#utility.yul\":380:386   */\n      dup3\n        /* \"#utility.yul\":369:378   */\n      dup6\n        /* \"#utility.yul\":365:387   */\n      add\n        /* \"#utility.yul\":344:397   */\n      tag_43\n      jump\t// in\n    tag_49:\n        /* \"#utility.yul\":334:397   */\n      swap2\n      pop\n        /* \"#utility.yul\":290:407   */\n      pop\n        /* \"#utility.yul\":218:414   */\n      swap3\n      swap2\n      pop\n      pop\n      jump\t// out\n        /* \"#utility.yul\":420:599   */\n    tag_50:\n      0x00\n        /* \"#utility.yul\":510:556   */\n      tag_52\n        /* \"#utility.yul\":552:555   */\n      dup4\n        /* \"#utility.yul\":544:550   */\n      dup4\n        /* \"#utility.yul\":510:556   */\n      tag_53\n      jump\t// in\n    tag_52:\n        /* \"#utility.yul\":588:592   */\n      0x20\n        /* \"#utility.yul\":583:586   */\n      dup4\n        /* \"#utility.yul\":579:593   */\n      add\n        /* \"#utility.yul\":565:593   */\n      swap1\n      pop\n        /* \"#utility.yul\":500:599   */\n      swap3\n      swap2\n      pop\n      pop\n      jump\t// out\n        /* \"#utility.yul\":605:713   */\n    tag_53:\n        /* \"#utility.yul\":682:706   */\n      tag_55\n        /* \"#utility.yul\":700:705   */\n      dup2\n        /* \"#utility.yul\":682:706   */\n      tag_56\n      jump\t// in\n    tag_55:\n        /* \"#utility.yul\":677:680   */\n      dup3\n        /* \"#utility.yul\":670:707   */\n      mstore\n        /* \"#utility.yul\":660:713   */\n      pop\n      pop\n      jump\t// out\n        /* \"#utility.yul\":749:1461   */\n    tag_57:\n      0x00\n        /* \"#utility.yul\":887:941   */\n      tag_59\n        /* \"#utility.yul\":935:940   */\n      dup3\n        /* \"#utility.yul\":887:941   */\n      tag_60\n      jump\t// in\n    tag_59:\n        /* \"#utility.yul\":957:1033   */\n      tag_61\n        /* \"#utility.yul\":1026:1032   */\n      dup2\n        /* \"#utility.yul\":1021:1024   */\n      dup6\n        /* \"#utility.yul\":957:1033   */\n      tag_62\n      jump\t// in\n    tag_61:\n        /* \"#utility.yul\":950:1033   */\n      swap4\n      pop\n        /* \"#utility.yul\":1057:1113   */\n      tag_63\n        /* \"#utility.yul\":1107:1112   */\n      dup4\n        /* \"#utility.yul\":1057:1113   */\n      tag_64\n      jump\t// in\n    tag_63:\n        /* \"#utility.yul\":1136:1143   */\n      dup1\n        /* \"#utility.yul\":1167:1168   */\n      0x00\n        /* \"#utility.yul\":1152:1436   */\n    tag_65:\n        /* \"#utility.yul\":1177:1183   */\n      dup4\n        /* \"#utility.yul\":1174:1175   */\n      dup2\n        /* \"#utility.yul\":1171:1184   */\n      lt\n        /* \"#utility.yul\":1152:1436   */\n      iszero\n      tag_67\n      jumpi\n        /* \"#utility.yul\":1253:1259   */\n      dup2\n        /* \"#utility.yul\":1247:1260   */\n      mload\n        /* \"#utility.yul\":1280:1343   */\n      tag_68\n        /* \"#utility.yul\":1339:1342   */\n      dup9\n        /* \"#utility.yul\":1324:1337   */\n      dup3\n        /* \"#utility.yul\":1280:1343   */\n      tag_50\n      jump\t// in\n    tag_68:\n        /* \"#utility.yul\":1273:1343   */\n      swap8\n      pop\n        /* \"#utility.yul\":1366:1426   */\n      tag_69\n        /* \"#utility.yul\":1419:1425   */\n      dup4\n        /* \"#utility.yul\":1366:1426   */\n      tag_70\n      jump\t// in\n    tag_69:\n        /* \"#utility.yul\":1356:1426   */\n      swap3\n      pop\n        /* \"#utility.yul\":1212:1436   */\n      pop\n        /* \"#utility.yul\":1199:1200   */\n      0x01\n        /* \"#utility.yul\":1196:1197   */\n      dup2\n        /* \"#utility.yul\":1192:1201   */\n      add\n        /* \"#utility.yul\":1187:1201   */\n      swap1\n      pop\n        /* \"#utility.yul\":1152:1436   */\n      jump(tag_65)\n    tag_67:\n        /* \"#utility.yul\":1156:1170   */\n      pop\n        /* \"#utility.yul\":1452:1455   */\n      dup6\n        /* \"#utility.yul\":1445:1455   */\n      swap4\n      pop\n        /* \"#utility.yul\":863:1461   */\n      pop\n      pop\n      pop\n      swap3\n      swap2\n      pop\n      pop\n      jump\t// out\n        /* \"#utility.yul\":1543:2168   */\n    tag_71:\n      0x00\n        /* \"#utility.yul\":1686:1690   */\n      0x40\n        /* \"#utility.yul\":1681:1684   */\n      dup4\n        /* \"#utility.yul\":1677:1691   */\n      add\n        /* \"#utility.yul\":1771:1775   */\n      0x00\n        /* \"#utility.yul\":1764:1769   */\n      dup4\n        /* \"#utility.yul\":1760:1776   */\n      add\n        /* \"#utility.yul\":1754:1777   */\n      mload\n        /* \"#utility.yul\":1790:1853   */\n      tag_73\n        /* \"#utility.yul\":1847:1851   */\n      0x00\n        /* \"#utility.yul\":1842:1845   */\n      dup7\n        /* \"#utility.yul\":1838:1852   */\n      add\n        /* \"#utility.yul\":1824:1836   */\n      dup3\n        /* \"#utility.yul\":1790:1853   */\n      tag_74\n      jump\t// in\n    tag_73:\n        /* \"#utility.yul\":1701:1863   */\n      pop\n        /* \"#utility.yul\":1948:1952   */\n      0x20\n        /* \"#utility.yul\":1941:1946   */\n      dup4\n        /* \"#utility.yul\":1937:1953   */\n      add\n        /* \"#utility.yul\":1931:1954   */\n      mload\n        /* \"#utility.yul\":2001:2004   */\n      dup5\n        /* \"#utility.yul\":1995:1999   */\n      dup3\n        /* \"#utility.yul\":1991:2005   */\n      sub\n        /* \"#utility.yul\":1984:1988   */\n      0x20\n        /* \"#utility.yul\":1979:1982   */\n      dup7\n        /* \"#utility.yul\":1975:1989   */\n      add\n        /* \"#utility.yul\":1968:2006   */\n      mstore\n        /* \"#utility.yul\":2027:2130   */\n      tag_75\n        /* \"#utility.yul\":2125:2129   */\n      dup3\n        /* \"#utility.yul\":2111:2123   */\n      dup3\n        /* \"#utility.yul\":2027:2130   */\n      tag_57\n      jump\t// in\n    tag_75:\n        /* \"#utility.yul\":2019:2130   */\n      swap2\n      pop\n        /* \"#utility.yul\":1873:2141   */\n      pop\n        /* \"#utility.yul\":2158:2162   */\n      dup1\n        /* \"#utility.yul\":2151:2162   */\n      swap2\n      pop\n        /* \"#utility.yul\":1655:2168   */\n      pop\n      swap3\n      swap2\n      pop\n      pop\n      jump\t// out\n        /* \"#utility.yul\":2174:2282   */\n    tag_74:\n        /* \"#utility.yul\":2251:2275   */\n      tag_77\n        /* \"#utility.yul\":2269:2274   */\n      dup2\n        /* \"#utility.yul\":2251:2275   */\n      tag_78\n      jump\t// in\n    tag_77:\n        /* \"#utility.yul\":2246:2249   */\n      dup3\n        /* \"#utility.yul\":2239:2276   */\n      mstore\n        /* \"#utility.yul\":2229:2282   */\n      pop\n      pop\n      jump\t// out\n        /* \"#utility.yul\":2288:2406   */\n    tag_79:\n        /* \"#utility.yul\":2375:2399   */\n      tag_81\n        /* \"#utility.yul\":2393:2398   */\n      dup2\n        /* \"#utility.yul\":2375:2399   */\n      tag_78\n      jump\t// in\n    tag_81:\n        /* \"#utility.yul\":2370:2373   */\n      dup3\n        /* \"#utility.yul\":2363:2400   */\n      mstore\n        /* \"#utility.yul\":2353:2406   */\n      pop\n      pop\n      jump\t// out\n        /* \"#utility.yul\":2412:2761   */\n    tag_11:\n      0x00\n        /* \"#utility.yul\":2581:2583   */\n      0x20\n        /* \"#utility.yul\":2570:2579   */\n      dup3\n        /* \"#utility.yul\":2566:2584   */\n      add\n        /* \"#utility.yul\":2558:2584   */\n      swap1\n      pop\n        /* \"#utility.yul\":2630:2639   */\n      dup2\n        /* \"#utility.yul\":2624:2628   */\n      dup2\n        /* \"#utility.yul\":2620:2640   */\n      sub\n        /* \"#utility.yul\":2616:2617   */\n      0x00\n        /* \"#utility.yul\":2605:2614   */\n      dup4\n        /* \"#utility.yul\":2601:2618   */\n      add\n        /* \"#utility.yul\":2594:2641   */\n      mstore\n        /* \"#utility.yul\":2658:2754   */\n      tag_83\n        /* \"#utility.yul\":2749:2753   */\n      dup2\n        /* \"#utility.yul\":2740:2746   */\n      dup5\n        /* \"#utility.yul\":2658:2754   */\n      tag_71\n      jump\t// in\n    tag_83:\n        /* \"#utility.yul\":2650:2754   */\n      swap1\n      pop\n        /* \"#utility.yul\":2548:2761   */\n      swap3\n      swap2\n      pop\n      pop\n      jump\t// out\n        /* \"#utility.yul\":2767:2989   */\n    tag_18:\n      0x00\n        /* \"#utility.yul\":2898:2900   */\n      0x20\n        /* \"#utility.yul\":2887:2896   */\n      dup3\n        /* \"#utility.yul\":2883:2901   */\n      add\n        /* \"#utility.yul\":2875:2901   */\n      swap1\n      pop\n        /* \"#utility.yul\":2911:2982   */\n      tag_85\n        /* \"#utility.yul\":2979:2980   */\n      0x00\n        /* \"#utility.yul\":2968:2977   */\n      dup4\n        /* \"#utility.yul\":2964:2981   */\n      add\n        /* \"#utility.yul\":2955:2961   */\n      dup5\n        /* \"#utility.yul\":2911:2982   */\n      tag_79\n      jump\t// in\n    tag_85:\n        /* \"#utility.yul\":2865:2989   */\n      swap3\n      swap2\n      pop\n      pop\n      jump\t// out\n        /* \"#utility.yul\":2995:3127   */\n    tag_64:\n      0x00\n        /* \"#utility.yul\":3085:3088   */\n      dup2\n        /* \"#utility.yul\":3077:3088   */\n      swap1\n      pop\n        /* \"#utility.yul\":3115:3119   */\n      0x20\n        /* \"#utility.yul\":3110:3113   */\n      dup3\n        /* \"#utility.yul\":3106:3120   */\n      add\n        /* \"#utility.yul\":3098:3120   */\n      swap1\n      pop\n        /* \"#utility.yul\":3067:3127   */\n      swap2\n      swap1\n      pop\n      jump\t// out\n        /* \"#utility.yul\":3133:3247   */\n    tag_60:\n      0x00\n        /* \"#utility.yul\":3234:3239   */\n      dup2\n        /* \"#utility.yul\":3228:3240   */\n      mload\n        /* \"#utility.yul\":3218:3240   */\n      swap1\n      pop\n        /* \"#utility.yul\":3207:3247   */\n      swap2\n      swap1\n      pop\n      jump\t// out\n        /* \"#utility.yul\":3253:3366   */\n    tag_70:\n      0x00\n        /* \"#utility.yul\":3355:3359   */\n      0x20\n        /* \"#utility.yul\":3350:3353   */\n      dup3\n        /* \"#utility.yul\":3346:3360   */\n      add\n        /* \"#utility.yul\":3338:3360   */\n      swap1\n      pop\n        /* \"#utility.yul\":3328:3366   */\n      swap2\n      swap1\n      pop\n      jump\t// out\n        /* \"#utility.yul\":3372:3546   */\n    tag_62:\n      0x00\n        /* \"#utility.yul\":3495:3501   */\n      dup3\n        /* \"#utility.yul\":3490:3493   */\n      dup3\n        /* \"#utility.yul\":3483:3502   */\n      mstore\n        /* \"#utility.yul\":3535:3539   */\n      0x20\n        /* \"#utility.yul\":3530:3533   */\n      dup3\n        /* \"#utility.yul\":3526:3540   */\n      add\n        /* \"#utility.yul\":3511:3540   */\n      swap1\n      pop\n        /* \"#utility.yul\":3473:3546   */\n      swap3\n      swap2\n      pop\n      pop\n      jump\t// out\n        /* \"#utility.yul\":3552:3648   */\n    tag_56:\n      0x00\n        /* \"#utility.yul\":3618:3642   */\n      tag_91\n        /* \"#utility.yul\":3636:3641   */\n      dup3\n        /* \"#utility.yul\":3618:3642   */\n      tag_92\n      jump\t// in\n    tag_91:\n        /* \"#utility.yul\":3607:3642   */\n      swap1\n      pop\n        /* \"#utility.yul\":3597:3648   */\n      swap2\n      swap1\n      pop\n      jump\t// out\n        /* \"#utility.yul\":3654:3780   */\n    tag_92:\n      0x00\n        /* \"#utility.yul\":3731:3773   */\n      0xffffffffffffffffffffffffffffffffffffffff\n        /* \"#utility.yul\":3724:3729   */\n      dup3\n        /* \"#utility.yul\":3720:3774   */\n      and\n        /* \"#utility.yul\":3709:3774   */\n      swap1\n      pop\n        /* \"#utility.yul\":3699:3780   */\n      swap2\n      swap1\n      pop\n      jump\t// out\n        /* \"#utility.yul\":3786:3863   */\n    tag_78:\n      0x00\n        /* \"#utility.yul\":3852:3857   */\n      dup2\n        /* \"#utility.yul\":3841:3857   */\n      swap1\n      pop\n        /* \"#utility.yul\":3831:3863   */\n      swap2\n      swap1\n      pop\n      jump\t// out\n        /* \"#utility.yul\":3869:4102   */\n    tag_34:\n      0x00\n        /* \"#utility.yul\":3931:3955   */\n      tag_96\n        /* \"#utility.yul\":3949:3954   */\n      dup3\n        /* \"#utility.yul\":3931:3955   */\n      tag_78\n      jump\t// in\n    tag_96:\n        /* \"#utility.yul\":3922:3955   */\n      swap2\n      pop\n        /* \"#utility.yul\":3977:4043   */\n      0xffffffffffffffffffffffffffffffffffffffffffffffffffffffffffffffff\n        /* \"#utility.yul\":3970:3975   */\n      dup3\n        /* \"#utility.yul\":3967:4044   */\n      eq\n        /* \"#utility.yul\":3964:3966   */\n      iszero\n      tag_97\n      jumpi\n        /* \"#utility.yul\":4047:4065   */\n      tag_98\n      tag_99\n      jump\t// in\n    tag_98:\n        /* \"#utility.yul\":3964:3966   */\n    tag_97:\n        /* \"#utility.yul\":4094:4095   */\n      0x01\n        /* \"#utility.yul\":4087:4092   */\n      dup3\n        /* \"#utility.yul\":4083:4096   */\n      add\n        /* \"#utility.yul\":4076:4096   */\n      swap1\n      pop\n        /* \"#utility.yul\":3912:4102   */\n      swap2\n      swap1\n      pop\n      jump\t// out\n        /* \"#utility.yul\":4108:4288   */\n    tag_99:\n        /* \"#utility.yul\":4156:4233   */\n      0x4e487b7100000000000000000000000000000000000000000000000000000000\n        /* \"#utility.yul\":4153:4154   */\n      0x00\n        /* \"#utility.yul\":4146:4234   */\n      mstore\n        /* \"#utility.yul\":4253:4257   */\n      0x11\n        /* \"#utility.yul\":4250:4251   */\n      0x04\n        /* \"#utility.yul\":4243:4258   */\n      mstore\n        /* \"#utility.yul\":4277:4281   */\n      0x24\n        /* \"#utility.yul\":4274:4275   */\n      0x00\n        /* \"#utility.yul\":4267:4282   */\n      revert\n        /* \"#utility.yul\":4294:4416   */\n    tag_46:\n        /* \"#utility.yul\":4367:4391   */\n      tag_102\n        /* \"#utility.yul\":4385:4390   */\n      dup2\n        /* \"#utility.yul\":4367:4391   */\n      tag_78\n      jump\t// in\n    tag_102:\n        /* \"#utility.yul\":4360:4365   */\n      dup2\n        /* \"#utility.yul\":4357:4392   */\n      eq\n        /* \"#utility.yul\":4347:4349   */\n      tag_103\n      jumpi\n        /* \"#utility.yul\":4406:4407   */\n      0x00\n        /* \"#utility.yul\":4403:4404   */\n      dup1\n        /* \"#utility.yul\":4396:4408   */\n      revert\n        /* \"#utility.yul\":4347:4349   */\n    tag_103:\n        /* \"#utility.yul\":4337:4416   */\n      pop\n      jump\t// out\n\n    auxdata: 0xa2646970667358221220ba53a61428ea5ba5211b922a7e8e3dbf98ddd202961d737a7a3f40bcaf6f2b5864736f6c63430008000033\n}\n",
				"bytecode": {
					"linkReferences": {},
					"object": "608060405234801561001057600080fd5b5061067b806100206000396000f3fe608060405234801561001057600080fd5b50600436106100415760003560e01c80635b35f92114610046578063bbba825714610076578063df93a4e314610092575b600080fd5b610060600480360381019061005b91906103fb565b6100b0565b60405161006d9190610504565b60405180910390f35b610090600480360381019061008b91906103fb565b6101aa565b005b61009a61031f565b6040516100a79190610526565b60405180910390f35b6100b8610325565b600082815481106100f2577f4e487b7100000000000000000000000000000000000000000000000000000000600052603260045260246000fd5b9060005260206000209060020201604051806040016040529081600082015481526020016001820180548060200260200160405190810160405280929190818152602001828054801561019a57602002820191906000526020600020905b8160009054906101000a900473ffffffffffffffffffffffffffffffffffffffff1673ffffffffffffffffffffffffffffffffffffffff1681526020019060010190808311610150575b5050505050815250509050919050565b6002339080600181540180825580915050600190039060005260206000200160009091909190916101000a81548173ffffffffffffffffffffffffffffffffffffffff021916908373ffffffffffffffffffffffffffffffffffffffff16021790555060006040518060400160405280600354815260200160028054806020026020016040519081016040528092919081815260200182805480156102a457602002820191906000526020600020905b8160009054906101000a900473ffffffffffffffffffffffffffffffffffffffff1673ffffffffffffffffffffffffffffffffffffffff168152602001906001019080831161025a575b50505050508152509050600081908060018154018082558091505060019003906000526020600020906002020160009091909190915060008201518160000155602082015181600101908051906020019061030092919061033f565b50505060036000815480929190610316906105b6565b91905055505050565b60035481565b604051806040016040528060008152602001606081525090565b8280548282559060005260206000209081019282156103b8579160200282015b828111156103b75782518260006101000a81548173ffffffffffffffffffffffffffffffffffffffff021916908373ffffffffffffffffffffffffffffffffffffffff1602179055509160200191906001019061035f565b5b5090506103c591906103c9565b5090565b5b808211156103e25760008160009055506001016103ca565b5090565b6000813590506103f58161062e565b92915050565b60006020828403121561040d57600080fd5b600061041b848285016103e6565b91505092915050565b6000610430838361043c565b60208301905092915050565b6104458161057a565b82525050565b600061045682610551565b6104608185610569565b935061046b83610541565b8060005b8381101561049c5781516104838882610424565b975061048e8361055c565b92505060018101905061046f565b5085935050505092915050565b60006040830160008301516104c160008601826104e6565b50602083015184820360208601526104d9828261044b565b9150508091505092915050565b6104ef816105ac565b82525050565b6104fe816105ac565b82525050565b6000602082019050818103600083015261051e81846104a9565b905092915050565b600060208201905061053b60008301846104f5565b92915050565b6000819050602082019050919050565b600081519050919050565b6000602082019050919050565b600082825260208201905092915050565b60006105858261058c565b9050919050565b600073ffffffffffffffffffffffffffffffffffffffff82169050919050565b6000819050919050565b60006105c1826105ac565b91507fffffffffffffffffffffffffffffffffffffffffffffffffffffffffffffffff8214156105f4576105f36105ff565b5b600182019050919050565b7f4e487b7100000000000000000000000000000000000000000000000000000000600052601160045260246000fd5b610637816105ac565b811461064257600080fd5b5056fea2646970667358221220ba53a61428ea5ba5211b922a7e8e3dbf98ddd202961d737a7a3f40bcaf6f2b5864736f6c63430008000033",
					"opcodes": "PUSH1 0x80 PUSH1 0x40 MSTORE CALLVALUE DUP1 ISZERO PUSH2 0x10 JUMPI PUSH1 0x0 DUP1 REVERT JUMPDEST POP PUSH2 0x67B DUP1 PUSH2 0x20 PUSH1 0x0 CODECOPY PUSH1 0x0 RETURN INVALID PUSH1 0x80 PUSH1 0x40 MSTORE CALLVALUE DUP1 ISZERO PUSH2 0x10 JUMPI PUSH1 0x0 DUP1 REVERT JUMPDEST POP PUSH1 0x4 CALLDATASIZE LT PUSH2 0x41 JUMPI PUSH1 0x0 CALLDATALOAD PUSH1 0xE0 SHR DUP1 PUSH4 0x5B35F921 EQ PUSH2 0x46 JUMPI DUP1 PUSH4 0xBBBA8257 EQ PUSH2 0x76 JUMPI DUP1 PUSH4 0xDF93A4E3 EQ PUSH2 0x92 JUMPI JUMPDEST PUSH1 0x0 DUP1 REVERT JUMPDEST PUSH2 0x60 PUSH1 0x4 DUP1 CALLDATASIZE SUB DUP2 ADD SWAP1 PUSH2 0x5B SWAP2 SWAP1 PUSH2 0x3FB JUMP JUMPDEST PUSH2 0xB0 JUMP JUMPDEST PUSH1 0x40 MLOAD PUSH2 0x6D SWAP2 SWAP1 PUSH2 0x504 JUMP JUMPDEST PUSH1 0x40 MLOAD DUP1 SWAP2 SUB SWAP1 RETURN JUMPDEST PUSH2 0x90 PUSH1 0x4 DUP1 CALLDATASIZE SUB DUP2 ADD SWAP1 PUSH2 0x8B SWAP2 SWAP1 PUSH2 0x3FB JUMP JUMPDEST PUSH2 0x1AA JUMP JUMPDEST STOP JUMPDEST PUSH2 0x9A PUSH2 0x31F JUMP JUMPDEST PUSH1 0x40 MLOAD PUSH2 0xA7 SWAP2 SWAP1 PUSH2 0x526 JUMP JUMPDEST PUSH1 0x40 MLOAD DUP1 SWAP2 SUB SWAP1 RETURN JUMPDEST PUSH2 0xB8 PUSH2 0x325 JUMP JUMPDEST PUSH1 0x0 DUP3 DUP2 SLOAD DUP2 LT PUSH2 0xF2 JUMPI PUSH32 0x4E487B7100000000000000000000000000000000000000000000000000000000 PUSH1 0x0 MSTORE PUSH1 0x32 PUSH1 0x4 MSTORE PUSH1 0x24 PUSH1 0x0 REVERT JUMPDEST SWAP1 PUSH1 0x0 MSTORE PUSH1 0x20 PUSH1 0x0 KECCAK256 SWAP1 PUSH1 0x2 MUL ADD PUSH1 0x40 MLOAD DUP1 PUSH1 0x40 ADD PUSH1 0x40 MSTORE SWAP1 DUP2 PUSH1 0x0 DUP3 ADD SLOAD DUP2 MSTORE PUSH1 0x20 ADD PUSH1 0x1 DUP3 ADD DUP1 SLOAD DUP1 PUSH1 0x20 MUL PUSH1 0x20 ADD PUSH1 0x40 MLOAD SWAP1 DUP2 ADD PUSH1 0x40 MSTORE DUP1 SWAP3 SWAP2 SWAP1 DUP2 DUP2 MSTORE PUSH1 0x20 ADD DUP3 DUP1 SLOAD DUP1 ISZERO PUSH2 0x19A JUMPI PUSH1 0x20 MUL DUP3 ADD SWAP2 SWAP1 PUSH1 0x0 MSTORE PUSH1 0x20 PUSH1 0x0 KECCAK256 SWAP1 JUMPDEST DUP2 PUSH1 0x0 SWAP1 SLOAD SWAP1 PUSH2 0x100 EXP SWAP1 DIV PUSH20 0xFFFFFFFFFFFFFFFFFFFFFFFFFFFFFFFFFFFFFFFF AND PUSH20 0xFFFFFFFFFFFFFFFFFFFFFFFFFFFFFFFFFFFFFFFF AND DUP2 MSTORE PUSH1 0x20 ADD SWAP1 PUSH1 0x1 ADD SWAP1 DUP1 DUP4 GT PUSH2 0x150 JUMPI JUMPDEST POP POP POP POP POP DUP2 MSTORE POP POP SWAP1 POP SWAP2 SWAP1 POP JUMP JUMPDEST PUSH1 0x2 CALLER SWAP1 DUP1 PUSH1 0x1 DUP2 SLOAD ADD DUP1 DUP3 SSTORE DUP1 SWAP2 POP POP PUSH1 0x1 SWAP1 SUB SWAP1 PUSH1 0x0 MSTORE PUSH1 0x20 PUSH1 0x0 KECCAK256 ADD PUSH1 0x0 SWAP1 SWAP2 SWAP1 SWAP2 SWAP1 SWAP2 PUSH2 0x100 EXP DUP2 SLOAD DUP2 PUSH20 0xFFFFFFFFFFFFFFFFFFFFFFFFFFFFFFFFFFFFFFFF MUL NOT AND SWAP1 DUP4 PUSH20 0xFFFFFFFFFFFFFFFFFFFFFFFFFFFFFFFFFFFFFFFF AND MUL OR SWAP1 SSTORE POP PUSH1 0x0 PUSH1 0x40 MLOAD DUP1 PUSH1 0x40 ADD PUSH1 0x40 MSTORE DUP1 PUSH1 0x3 SLOAD DUP2 MSTORE PUSH1 0x20 ADD PUSH1 0x2 DUP1 SLOAD DUP1 PUSH1 0x20 MUL PUSH1 0x20 ADD PUSH1 0x40 MLOAD SWAP1 DUP2 ADD PUSH1 0x40 MSTORE DUP1 SWAP3 SWAP2 SWAP1 DUP2 DUP2 MSTORE PUSH1 0x20 ADD DUP3 DUP1 SLOAD DUP1 ISZERO PUSH2 0x2A4 JUMPI PUSH1 0x20 MUL DUP3 ADD SWAP2 SWAP1 PUSH1 0x0 MSTORE PUSH1 0x20 PUSH1 0x0 KECCAK256 SWAP1 JUMPDEST DUP2 PUSH1 0x0 SWAP1 SLOAD SWAP1 PUSH2 0x100 EXP SWAP1 DIV PUSH20 0xFFFFFFFFFFFFFFFFFFFFFFFFFFFFFFFFFFFFFFFF AND PUSH20 0xFFFFFFFFFFFFFFFFFFFFFFFFFFFFFFFFFFFFFFFF AND DUP2 MSTORE PUSH1 0x20 ADD SWAP1 PUSH1 0x1 ADD SWAP1 DUP1 DUP4 GT PUSH2 0x25A JUMPI JUMPDEST POP POP POP POP POP DUP2 MSTORE POP SWAP1 POP PUSH1 0x0 DUP2 SWAP1 DUP1 PUSH1 0x1 DUP2 SLOAD ADD DUP1 DUP3 SSTORE DUP1 SWAP2 POP POP PUSH1 0x1 SWAP1 SUB SWAP1 PUSH1 0x0 MSTORE PUSH1 0x20 PUSH1 0x0 KECCAK256 SWAP1 PUSH1 0x2 MUL ADD PUSH1 0x0 SWAP1 SWAP2 SWAP1 SWAP2 SWAP1 SWAP2 POP PUSH1 0x0 DUP3 ADD MLOAD DUP2 PUSH1 0x0 ADD SSTORE PUSH1 0x20 DUP3 ADD MLOAD DUP2 PUSH1 0x1 ADD SWAP1 DUP1 MLOAD SWAP1 PUSH1 0x20 ADD SWAP1 PUSH2 0x300 SWAP3 SWAP2 SWAP1 PUSH2 0x33F JUMP JUMPDEST POP POP POP PUSH1 0x3 PUSH1 0x0 DUP2 SLOAD DUP1 SWAP3 SWAP2 SWAP1 PUSH2 0x316 SWAP1 PUSH2 0x5B6 JUMP JUMPDEST SWAP2 SWAP1 POP SSTORE POP POP POP JUMP JUMPDEST PUSH1 0x3 SLOAD DUP2 JUMP JUMPDEST PUSH1 0x40 MLOAD DUP1 PUSH1 0x40 ADD PUSH1 0x40 MSTORE DUP1 PUSH1 0x0 DUP2 MSTORE PUSH1 0x20 ADD PUSH1 0x60 DUP2 MSTORE POP SWAP1 JUMP JUMPDEST DUP3 DUP1 SLOAD DUP3 DUP3 SSTORE SWAP1 PUSH1 0x0 MSTORE PUSH1 0x20 PUSH1 0x0 KECCAK256 SWAP1 DUP2 ADD SWAP3 DUP3 ISZERO PUSH2 0x3B8 JUMPI SWAP2 PUSH1 0x20 MUL DUP3 ADD JUMPDEST DUP3 DUP2 GT ISZERO PUSH2 0x3B7 JUMPI DUP3 MLOAD DUP3 PUSH1 0x0 PUSH2 0x100 EXP DUP2 SLOAD DUP2 PUSH20 0xFFFFFFFFFFFFFFFFFFFFFFFFFFFFFFFFFFFFFFFF MUL NOT AND SWAP1 DUP4 PUSH20 0xFFFFFFFFFFFFFFFFFFFFFFFFFFFFFFFFFFFFFFFF AND MUL OR SWAP1 SSTORE POP SWAP2 PUSH1 0x20 ADD SWAP2 SWAP1 PUSH1 0x1 ADD SWAP1 PUSH2 0x35F JUMP JUMPDEST JUMPDEST POP SWAP1 POP PUSH2 0x3C5 SWAP2 SWAP1 PUSH2 0x3C9 JUMP JUMPDEST POP SWAP1 JUMP JUMPDEST JUMPDEST DUP1 DUP3 GT ISZERO PUSH2 0x3E2 JUMPI PUSH1 0x0 DUP2 PUSH1 0x0 SWAP1 SSTORE POP PUSH1 0x1 ADD PUSH2 0x3CA JUMP JUMPDEST POP SWAP1 JUMP JUMPDEST PUSH1 0x0 DUP2 CALLDATALOAD SWAP1 POP PUSH2 0x3F5 DUP2 PUSH2 0x62E JUMP JUMPDEST SWAP3 SWAP2 POP POP JUMP JUMPDEST PUSH1 0x0 PUSH1 0x20 DUP3 DUP5 SUB SLT ISZERO PUSH2 0x40D JUMPI PUSH1 0x0 DUP1 REVERT JUMPDEST PUSH1 0x0 PUSH2 0x41B DUP5 DUP3 DUP6 ADD PUSH2 0x3E6 JUMP JUMPDEST SWAP2 POP POP SWAP3 SWAP2 POP POP JUMP JUMPDEST PUSH1 0x0 PUSH2 0x430 DUP4 DUP4 PUSH2 0x43C JUMP JUMPDEST PUSH1 0x20 DUP4 ADD SWAP1 POP SWAP3 SWAP2 POP POP JUMP JUMPDEST PUSH2 0x445 DUP2 PUSH2 0x57A JUMP JUMPDEST DUP3 MSTORE POP POP JUMP JUMPDEST PUSH1 0x0 PUSH2 0x456 DUP3 PUSH2 0x551 JUMP JUMPDEST PUSH2 0x460 DUP2 DUP6 PUSH2 0x569 JUMP JUMPDEST SWAP4 POP PUSH2 0x46B DUP4 PUSH2 0x541 JUMP JUMPDEST DUP1 PUSH1 0x0 JUMPDEST DUP4 DUP2 LT ISZERO PUSH2 0x49C JUMPI DUP2 MLOAD PUSH2 0x483 DUP9 DUP3 PUSH2 0x424 JUMP JUMPDEST SWAP8 POP PUSH2 0x48E DUP4 PUSH2 0x55C JUMP JUMPDEST SWAP3 POP POP PUSH1 0x1 DUP2 ADD SWAP1 POP PUSH2 0x46F JUMP JUMPDEST POP DUP6 SWAP4 POP POP POP POP SWAP3 SWAP2 POP POP JUMP JUMPDEST PUSH1 0x0 PUSH1 0x40 DUP4 ADD PUSH1 0x0 DUP4 ADD MLOAD PUSH2 0x4C1 PUSH1 0x0 DUP7 ADD DUP3 PUSH2 0x4E6 JUMP JUMPDEST POP PUSH1 0x20 DUP4 ADD MLOAD DUP5 DUP3 SUB PUSH1 0x20 DUP7 ADD MSTORE PUSH2 0x4D9 DUP3 DUP3 PUSH2 0x44B JUMP JUMPDEST SWAP2 POP POP DUP1 SWAP2 POP POP SWAP3 SWAP2 POP POP JUMP JUMPDEST PUSH2 0x4EF DUP2 PUSH2 0x5AC JUMP JUMPDEST DUP3 MSTORE POP POP JUMP JUMPDEST PUSH2 0x4FE DUP2 PUSH2 0x5AC JUMP JUMPDEST DUP3 MSTORE POP POP JUMP JUMPDEST PUSH1 0x0 PUSH1 0x20 DUP3 ADD SWAP1 POP DUP2 DUP2 SUB PUSH1 0x0 DUP4 ADD MSTORE PUSH2 0x51E DUP2 DUP5 PUSH2 0x4A9 JUMP JUMPDEST SWAP1 POP SWAP3 SWAP2 POP POP JUMP JUMPDEST PUSH1 0x0 PUSH1 0x20 DUP3 ADD SWAP1 POP PUSH2 0x53B PUSH1 0x0 DUP4 ADD DUP5 PUSH2 0x4F5 JUMP JUMPDEST SWAP3 SWAP2 POP POP JUMP JUMPDEST PUSH1 0x0 DUP2 SWAP1 POP PUSH1 0x20 DUP3 ADD SWAP1 POP SWAP2 SWAP1 POP JUMP JUMPDEST PUSH1 0x0 DUP2 MLOAD SWAP1 POP SWAP2 SWAP1 POP JUMP JUMPDEST PUSH1 0x0 PUSH1 0x20 DUP3 ADD SWAP1 POP SWAP2 SWAP1 POP JUMP JUMPDEST PUSH1 0x0 DUP3 DUP3 MSTORE PUSH1 0x20 DUP3 ADD SWAP1 POP SWAP3 SWAP2 POP POP JUMP JUMPDEST PUSH1 0x0 PUSH2 0x585 DUP3 PUSH2 0x58C JUMP JUMPDEST SWAP1 POP SWAP2 SWAP1 POP JUMP JUMPDEST PUSH1 0x0 PUSH20 0xFFFFFFFFFFFFFFFFFFFFFFFFFFFFFFFFFFFFFFFF DUP3 AND SWAP1 POP SWAP2 SWAP1 POP JUMP JUMPDEST PUSH1 0x0 DUP2 SWAP1 POP SWAP2 SWAP1 POP JUMP JUMPDEST PUSH1 0x0 PUSH2 0x5C1 DUP3 PUSH2 0x5AC JUMP JUMPDEST SWAP2 POP PUSH32 0xFFFFFFFFFFFFFFFFFFFFFFFFFFFFFFFFFFFFFFFFFFFFFFFFFFFFFFFFFFFFFFFF DUP3 EQ ISZERO PUSH2 0x5F4 JUMPI PUSH2 0x5F3 PUSH2 0x5FF JUMP JUMPDEST JUMPDEST PUSH1 0x1 DUP3 ADD SWAP1 POP SWAP2 SWAP1 POP JUMP JUMPDEST PUSH32 0x4E487B7100000000000000000000000000000000000000000000000000000000 PUSH1 0x0 MSTORE PUSH1 0x11 PUSH1 0x4 MSTORE PUSH1 0x24 PUSH1 0x0 REVERT JUMPDEST PUSH2 0x637 DUP2 PUSH2 0x5AC JUMP JUMPDEST DUP2 EQ PUSH2 0x642 JUMPI PUSH1 0x0 DUP1 REVERT JUMPDEST POP JUMP INVALID LOG2 PUSH5 0x6970667358 0x22 SLT KECCAK256 0xBA MSTORE8 0xA6 EQ 0x28 0xEA JUMPDEST 0xA5 0x21 SHL SWAP3 0x2A PUSH31 0x8E3DBF98DDD202961D737A7A3F40BCAF6F2B5864736F6C6343000800003300 "
				},
				"gasEstimates": {
					"creation": {
						"codeDepositCost": "331800",
						"executionCost": "368",
						"totalCost": "332168"
					},
					"external": {
						"createRoom(uint256)": "infinite",
						"getRoomStructure(uint256)": "infinite",
						"roomCount()": "1151"
					}
				},
				"methodIdentifiers": {
					"createRoom(uint256)": "bbba8257",
					"getRoomStructure(uint256)": "5b35f921",
					"roomCount()": "df93a4e3"
				}
			},
			"storageLayout": {
				"storage": [
					{
						"astId": 12,
						"contract": "contracts/sandbox.sol:StructArrayInitWrong",
						"label": "rooms",
						"offset": 0,
						"slot": "0",
						"type": "t_array(t_struct(Room)8_storage)dyn_storage"
					},
					{
						"astId": 15,
						"contract": "contracts/sandbox.sol:StructArrayInitWrong",
						"label": "room_nms",
						"offset": 0,
						"slot": "1",
						"type": "t_array(t_uint256)dyn_storage"
					},
					{
						"astId": 18,
						"contract": "contracts/sandbox.sol:StructArrayInitWrong",
						"label": "adr",
						"offset": 0,
						"slot": "2",
						"type": "t_array(t_address)dyn_storage"
					},
					{
						"astId": 20,
						"contract": "contracts/sandbox.sol:StructArrayInitWrong",
						"label": "roomCount",
						"offset": 0,
						"slot": "3",
						"type": "t_uint256"
					}
				],
				"types": {
					"t_address": {
						"encoding": "inplace",
						"label": "address",
						"numberOfBytes": "20"
					},
					"t_array(t_address)dyn_storage": {
						"base": "t_address",
						"encoding": "dynamic_array",
						"label": "address[]",
						"numberOfBytes": "32"
					},
					"t_array(t_struct(Room)8_storage)dyn_storage": {
						"base": "t_struct(Room)8_storage",
						"encoding": "dynamic_array",
						"label": "struct StructArrayInitWrong.Room[]",
						"numberOfBytes": "32"
					},
					"t_array(t_uint256)dyn_storage": {
						"base": "t_uint256",
						"encoding": "dynamic_array",
						"label": "uint256[]",
						"numberOfBytes": "32"
					},
					"t_struct(Room)8_storage": {
						"encoding": "inplace",
						"label": "struct StructArrayInitWrong.Room",
						"members": [
							{
								"astId": 4,
								"contract": "contracts/sandbox.sol:StructArrayInitWrong",
								"label": "id",
								"offset": 0,
								"slot": "0",
								"type": "t_uint256"
							},
							{
								"astId": 7,
								"contract": "contracts/sandbox.sol:StructArrayInitWrong",
								"label": "players",
								"offset": 0,
								"slot": "1",
								"type": "t_array(t_address)dyn_storage"
							}
						],
						"numberOfBytes": "64"
					},
					"t_uint256": {
						"encoding": "inplace",
						"label": "uint256",
						"numberOfBytes": "32"
					}
				}
			},
			"userdoc": {
				"kind": "user",
				"methods": {},
				"version": 1
			}
		}
	}
}