{
	"contracts/proposal.sol": {
		"TestProposal": {
			"abi": [
				{
					"inputs": [],
					"stateMutability": "nonpayable",
					"type": "constructor"
				},
				{
					"inputs": [
						{
							"internalType": "uint256",
							"name": "_proposalId",
							"type": "uint256"
						},
						{
							"internalType": "uint256",
							"name": "_proposalStatus",
							"type": "uint256"
						},
						{
							"internalType": "address",
							"name": "_proposalCreator",
							"type": "address"
						},
						{
							"internalType": "uint256",
							"name": "_proposalNumOfOptions",
							"type": "uint256"
						}
					],
					"name": "addProposal",
					"outputs": [],
					"stateMutability": "nonpayable",
					"type": "function"
				},
				{
					"inputs": [
						{
							"internalType": "uint256",
							"name": "_proposalId",
							"type": "uint256"
						}
					],
					"name": "getProposalStructure",
					"outputs": [
						{
							"components": [
								{
									"internalType": "uint256",
									"name": "proposalId",
									"type": "uint256"
								},
								{
									"internalType": "uint256",
									"name": "proposalStatus",
									"type": "uint256"
								},
								{
									"internalType": "address",
									"name": "proposalCreator",
									"type": "address"
								},
								{
									"internalType": "uint256",
									"name": "proposalNumOfOptions",
									"type": "uint256"
								}
							],
							"internalType": "struct TestProposal.Proposal",
							"name": "",
							"type": "tuple"
						}
					],
					"stateMutability": "view",
					"type": "function"
				},
				{
					"inputs": [
						{
							"internalType": "uint256",
							"name": "",
							"type": "uint256"
						}
					],
					"name": "opopop",
					"outputs": [
						{
							"internalType": "string",
							"name": "",
							"type": "string"
						}
					],
					"stateMutability": "view",
					"type": "function"
				},
				{
					"inputs": [],
					"name": "proposalCount",
					"outputs": [
						{
							"internalType": "uint256",
							"name": "",
							"type": "uint256"
						}
					],
					"stateMutability": "view",
					"type": "function"
				},
				{
					"inputs": [
						{
							"internalType": "uint256",
							"name": "",
							"type": "uint256"
						}
					],
					"name": "proposals",
					"outputs": [
						{
							"internalType": "uint256",
							"name": "proposalId",
							"type": "uint256"
						},
						{
							"internalType": "uint256",
							"name": "proposalStatus",
							"type": "uint256"
						},
						{
							"internalType": "address",
							"name": "proposalCreator",
							"type": "address"
						},
						{
							"internalType": "uint256",
							"name": "proposalNumOfOptions",
							"type": "uint256"
						}
					],
					"stateMutability": "view",
					"type": "function"
				},
				{
					"inputs": [
						{
							"internalType": "string",
							"name": "_options",
							"type": "string"
						}
					],
					"name": "smt",
					"outputs": [],
					"stateMutability": "nonpayable",
					"type": "function"
				}
			],
			"devdoc": {
				"kind": "dev",
				"methods": {},
				"version": 1
			},
			"evm": {
				"assembly": "    /* \"contracts/proposal.sol\":229:1983  contract TestProposal {\r... */\n  mstore(0x40, 0x80)\n    /* \"contracts/proposal.sol\":776:908  constructor() public {\r... */\n  callvalue\n  dup1\n  iszero\n  tag_1\n  jumpi\n  0x00\n  dup1\n  revert\ntag_1:\n  pop\n    /* \"contracts/proposal.sol\":824:825  0 */\n  0x00\n    /* \"contracts/proposal.sol\":808:821  proposalCount */\n  0x01\n    /* \"contracts/proposal.sol\":808:825  proposalCount = 0 */\n  dup2\n  swap1\n  sstore\n  pop\n    /* \"contracts/proposal.sol\":836:900  addProposal(1, 1, 0xB5dea2661dfa4b8f0aaE8Bc1F583369D927c3b06, 3) */\n  tag_4\n    /* \"contracts/proposal.sol\":848:849  1 */\n  0x01\n    /* \"contracts/proposal.sol\":851:852  1 */\n  dup1\n    /* \"contracts/proposal.sol\":854:896  0xB5dea2661dfa4b8f0aaE8Bc1F583369D927c3b06 */\n  0xb5dea2661dfa4b8f0aae8bc1f583369d927c3b06\n    /* \"contracts/proposal.sol\":898:899  3 */\n  0x03\n    /* \"contracts/proposal.sol\":836:847  addProposal */\n  shl(0x20, tag_5)\n    /* \"contracts/proposal.sol\":836:900  addProposal(1, 1, 0xB5dea2661dfa4b8f0aaE8Bc1F583369D927c3b06, 3) */\n  0x20\n  shr\n  jump\t// in\ntag_4:\n    /* \"contracts/proposal.sol\":229:1983  contract TestProposal {\r... */\n  jump(tag_6)\n    /* \"contracts/proposal.sol\":916:1189  function addProposal(uint _proposalId, uint _proposalStatus, address _proposalCreator, uint _proposalNumOfOptions) public {\r... */\ntag_5:\n    /* \"contracts/proposal.sol\":1076:1155  Proposal(_proposalId, _proposalStatus, _proposalCreator, _proposalNumOfOptions) */\n  mload(0x40)\n  dup1\n  0x80\n  add\n  0x40\n  mstore\n  dup1\n    /* \"contracts/proposal.sol\":1085:1096  _proposalId */\n  dup6\n    /* \"contracts/proposal.sol\":1076:1155  Proposal(_proposalId, _proposalStatus, _proposalCreator, _proposalNumOfOptions) */\n  dup2\n  mstore\n  0x20\n  add\n    /* \"contracts/proposal.sol\":1098:1113  _proposalStatus */\n  dup5\n    /* \"contracts/proposal.sol\":1076:1155  Proposal(_proposalId, _proposalStatus, _proposalCreator, _proposalNumOfOptions) */\n  dup2\n  mstore\n  0x20\n  add\n    /* \"contracts/proposal.sol\":1115:1131  _proposalCreator */\n  dup4\n    /* \"contracts/proposal.sol\":1076:1155  Proposal(_proposalId, _proposalStatus, _proposalCreator, _proposalNumOfOptions) */\n  0xffffffffffffffffffffffffffffffffffffffff\n  and\n  dup2\n  mstore\n  0x20\n  add\n    /* \"contracts/proposal.sol\":1133:1154  _proposalNumOfOptions */\n  dup3\n    /* \"contracts/proposal.sol\":1076:1155  Proposal(_proposalId, _proposalStatus, _proposalCreator, _proposalNumOfOptions) */\n  dup2\n  mstore\n  pop\n    /* \"contracts/proposal.sol\":1049:1058  proposals */\n  0x00\n    /* \"contracts/proposal.sol\":1049:1073  proposals[proposalCount] */\n  dup1\n    /* \"contracts/proposal.sol\":1059:1072  proposalCount */\n  sload(0x01)\n    /* \"contracts/proposal.sol\":1049:1073  proposals[proposalCount] */\n  dup2\n  mstore\n  0x20\n  add\n  swap1\n  dup2\n  mstore\n  0x20\n  add\n  0x00\n  keccak256\n    /* \"contracts/proposal.sol\":1049:1155  proposals[proposalCount] = Proposal(_proposalId, _proposalStatus, _proposalCreator, _proposalNumOfOptions) */\n  0x00\n  dup3\n  add\n  mload\n  dup2\n  0x00\n  add\n  sstore\n  0x20\n  dup3\n  add\n  mload\n  dup2\n  0x01\n  add\n  sstore\n  0x40\n  dup3\n  add\n  mload\n  dup2\n  0x02\n  add\n  exp(0x0100, 0x00)\n  dup2\n  sload\n  dup2\n  0xffffffffffffffffffffffffffffffffffffffff\n  mul\n  not\n  and\n  swap1\n  dup4\n  0xffffffffffffffffffffffffffffffffffffffff\n  and\n  mul\n  or\n  swap1\n  sstore\n  pop\n  0x60\n  dup3\n  add\n  mload\n  dup2\n  0x03\n  add\n  sstore\n  swap1\n  pop\n  pop\n    /* \"contracts/proposal.sol\":1166:1179  proposalCount */\n  0x01\n  0x00\n    /* \"contracts/proposal.sol\":1166:1181  proposalCount++ */\n  dup2\n  sload\n  dup1\n  swap3\n  swap2\n  swap1\n  tag_8\n  swap1\n  tag_9\n  jump\t// in\ntag_8:\n  swap2\n  swap1\n  pop\n  sstore\n  pop\n    /* \"contracts/proposal.sol\":916:1189  function addProposal(uint _proposalId, uint _proposalStatus, address _proposalCreator, uint _proposalNumOfOptions) public {\r... */\n  pop\n  pop\n  pop\n  pop\n  jump\t// out\n    /* \"#utility.yul\":7:84   */\ntag_11:\n  0x00\n    /* \"#utility.yul\":73:78   */\n  dup2\n    /* \"#utility.yul\":62:78   */\n  swap1\n  pop\n    /* \"#utility.yul\":52:84   */\n  swap2\n  swap1\n  pop\n  jump\t// out\n    /* \"#utility.yul\":90:323   */\ntag_9:\n  0x00\n    /* \"#utility.yul\":152:176   */\n  tag_14\n    /* \"#utility.yul\":170:175   */\n  dup3\n    /* \"#utility.yul\":152:176   */\n  tag_11\n  jump\t// in\ntag_14:\n    /* \"#utility.yul\":143:176   */\n  swap2\n  pop\n    /* \"#utility.yul\":198:264   */\n  0xffffffffffffffffffffffffffffffffffffffffffffffffffffffffffffffff\n    /* \"#utility.yul\":191:196   */\n  dup3\n    /* \"#utility.yul\":188:265   */\n  eq\n    /* \"#utility.yul\":185:187   */\n  iszero\n  tag_15\n  jumpi\n    /* \"#utility.yul\":268:286   */\n  tag_16\n  tag_17\n  jump\t// in\ntag_16:\n    /* \"#utility.yul\":185:187   */\ntag_15:\n    /* \"#utility.yul\":315:316   */\n  0x01\n    /* \"#utility.yul\":308:313   */\n  dup3\n    /* \"#utility.yul\":304:317   */\n  add\n    /* \"#utility.yul\":297:317   */\n  swap1\n  pop\n    /* \"#utility.yul\":133:323   */\n  swap2\n  swap1\n  pop\n  jump\t// out\n    /* \"#utility.yul\":329:509   */\ntag_17:\n    /* \"#utility.yul\":377:454   */\n  0x4e487b7100000000000000000000000000000000000000000000000000000000\n    /* \"#utility.yul\":374:375   */\n  0x00\n    /* \"#utility.yul\":367:455   */\n  mstore\n    /* \"#utility.yul\":474:478   */\n  0x11\n    /* \"#utility.yul\":471:472   */\n  0x04\n    /* \"#utility.yul\":464:479   */\n  mstore\n    /* \"#utility.yul\":498:502   */\n  0x24\n    /* \"#utility.yul\":495:496   */\n  0x00\n    /* \"#utility.yul\":488:503   */\n  revert\n    /* \"contracts/proposal.sol\":229:1983  contract TestProposal {\r... */\ntag_6:\n  dataSize(sub_0)\n  dup1\n  dataOffset(sub_0)\n  0x00\n  codecopy\n  0x00\n  return\nstop\n\nsub_0: assembly {\n        /* \"contracts/proposal.sol\":229:1983  contract TestProposal {\r... */\n      mstore(0x40, 0x80)\n      callvalue\n      dup1\n      iszero\n      tag_1\n      jumpi\n      0x00\n      dup1\n      revert\n    tag_1:\n      pop\n      jumpi(tag_2, lt(calldatasize, 0x04))\n      shr(0xe0, calldataload(0x00))\n      dup1\n      0x013cf08b\n      eq\n      tag_3\n      jumpi\n      dup1\n      0x96caabb8\n      eq\n      tag_4\n      jumpi\n      dup1\n      0xb723a32c\n      eq\n      tag_5\n      jumpi\n      dup1\n      0xcae455ee\n      eq\n      tag_6\n      jumpi\n      dup1\n      0xda35c664\n      eq\n      tag_7\n      jumpi\n      dup1\n      0xe9d6c6da\n      eq\n      tag_8\n      jumpi\n    tag_2:\n      0x00\n      dup1\n      revert\n        /* \"contracts/proposal.sol\":639:682  mapping (uint => Proposal) public proposals */\n    tag_3:\n      tag_9\n      0x04\n      dup1\n      calldatasize\n      sub\n      dup2\n      add\n      swap1\n      tag_10\n      swap2\n      swap1\n      tag_11\n      jump\t// in\n    tag_10:\n      tag_12\n      jump\t// in\n    tag_9:\n      mload(0x40)\n      tag_13\n      swap5\n      swap4\n      swap3\n      swap2\n      swap1\n      tag_14\n      jump\t// in\n    tag_13:\n      mload(0x40)\n      dup1\n      swap2\n      sub\n      swap1\n      return\n        /* \"contracts/proposal.sol\":1400:1979  function smt(string memory _options) public {                                               \r... */\n    tag_4:\n      tag_15\n      0x04\n      dup1\n      calldatasize\n      sub\n      dup2\n      add\n      swap1\n      tag_16\n      swap2\n      swap1\n      tag_17\n      jump\t// in\n    tag_16:\n      tag_18\n      jump\t// in\n    tag_15:\n      stop\n        /* \"contracts/proposal.sol\":1369:1391  string[] public opopop */\n    tag_5:\n      tag_19\n      0x04\n      dup1\n      calldatasize\n      sub\n      dup2\n      add\n      swap1\n      tag_20\n      swap2\n      swap1\n      tag_11\n      jump\t// in\n    tag_20:\n      tag_21\n      jump\t// in\n    tag_19:\n      mload(0x40)\n      tag_22\n      swap2\n      swap1\n      tag_23\n      jump\t// in\n    tag_22:\n      mload(0x40)\n      dup1\n      swap2\n      sub\n      swap1\n      return\n        /* \"contracts/proposal.sol\":916:1189  function addProposal(uint _proposalId, uint _proposalStatus, address _proposalCreator, uint _proposalNumOfOptions) public {\r... */\n    tag_6:\n      tag_24\n      0x04\n      dup1\n      calldatasize\n      sub\n      dup2\n      add\n      swap1\n      tag_25\n      swap2\n      swap1\n      tag_26\n      jump\t// in\n    tag_25:\n      tag_27\n      jump\t// in\n    tag_24:\n      stop\n        /* \"contracts/proposal.sol\":742:767  uint public proposalCount */\n    tag_7:\n      tag_28\n      tag_29\n      jump\t// in\n    tag_28:\n      mload(0x40)\n      tag_30\n      swap2\n      swap1\n      tag_31\n      jump\t// in\n    tag_30:\n      mload(0x40)\n      dup1\n      swap2\n      sub\n      swap1\n      return\n        /* \"contracts/proposal.sol\":1197:1329  function getProposalStructure(uint _proposalId) public view returns(Proposal memory){\r... */\n    tag_8:\n      tag_32\n      0x04\n      dup1\n      calldatasize\n      sub\n      dup2\n      add\n      swap1\n      tag_33\n      swap2\n      swap1\n      tag_11\n      jump\t// in\n    tag_33:\n      tag_34\n      jump\t// in\n    tag_32:\n      mload(0x40)\n      tag_35\n      swap2\n      swap1\n      tag_36\n      jump\t// in\n    tag_35:\n      mload(0x40)\n      dup1\n      swap2\n      sub\n      swap1\n      return\n        /* \"contracts/proposal.sol\":639:682  mapping (uint => Proposal) public proposals */\n    tag_12:\n      mstore(0x20, 0x00)\n      dup1\n      0x00\n      mstore\n      keccak256(0x00, 0x40)\n      0x00\n      swap2\n      pop\n      swap1\n      pop\n      dup1\n      0x00\n      add\n      sload\n      swap1\n      dup1\n      0x01\n      add\n      sload\n      swap1\n      dup1\n      0x02\n      add\n      0x00\n      swap1\n      sload\n      swap1\n      0x0100\n      exp\n      swap1\n      div\n      0xffffffffffffffffffffffffffffffffffffffff\n      and\n      swap1\n      dup1\n      0x03\n      add\n      sload\n      swap1\n      pop\n      dup5\n      jump\t// out\n        /* \"contracts/proposal.sol\":1400:1979  function smt(string memory _options) public {                                               \r... */\n    tag_18:\n        /* \"contracts/proposal.sol\":1502:1524  strings.slice memory s */\n      0x00\n        /* \"contracts/proposal.sol\":1527:1545  _options.toSlice() */\n      tag_38\n        /* \"contracts/proposal.sol\":1527:1535  _options */\n      dup3\n        /* \"contracts/proposal.sol\":1527:1543  _options.toSlice */\n      tag_39\n        /* \"contracts/proposal.sol\":1527:1545  _options.toSlice() */\n      jump\t// in\n    tag_38:\n        /* \"contracts/proposal.sol\":1502:1545  strings.slice memory s = _options.toSlice() */\n      swap1\n      pop\n        /* \"contracts/proposal.sol\":1572:1598  strings.slice memory delim */\n      0x00\n        /* \"contracts/proposal.sol\":1601:1614  \"-\".toSlice() */\n      tag_40\n        /* \"contracts/proposal.sol\":1601:1612  \"-\".toSlice */\n      mload(0x40)\n      dup1\n      0x40\n      add\n      0x40\n      mstore\n      dup1\n      0x01\n      dup2\n      mstore\n      0x20\n      add\n      0x2d00000000000000000000000000000000000000000000000000000000000000\n      dup2\n      mstore\n      pop\n      tag_39\n        /* \"contracts/proposal.sol\":1601:1614  \"-\".toSlice() */\n      jump\t// in\n    tag_40:\n        /* \"contracts/proposal.sol\":1572:1614  strings.slice memory delim = \"-\".toSlice() */\n      swap1\n      pop\n        /* \"contracts/proposal.sol\":1653:1674  string[] memory parts */\n      0x00\n        /* \"contracts/proposal.sol\":1690:1704  s.count(delim) */\n      tag_41\n        /* \"contracts/proposal.sol\":1698:1703  delim */\n      dup3\n        /* \"contracts/proposal.sol\":1690:1691  s */\n      dup5\n        /* \"contracts/proposal.sol\":1690:1697  s.count */\n      tag_42\n      swap1\n        /* \"contracts/proposal.sol\":1690:1704  s.count(delim) */\n      swap2\n      swap1\n      0xffffffff\n      and\n      jump\t// in\n    tag_41:\n        /* \"contracts/proposal.sol\":1677:1705  new string[](s.count(delim)) */\n      0xffffffffffffffff\n      dup2\n      gt\n      iszero\n      tag_43\n      jumpi\n      mstore(0x00, 0x4e487b7100000000000000000000000000000000000000000000000000000000)\n      mstore(0x04, 0x41)\n      revert(0x00, 0x24)\n    tag_43:\n      mload(0x40)\n      swap1\n      dup1\n      dup3\n      mstore\n      dup1\n      0x20\n      mul\n      0x20\n      add\n      dup3\n      add\n      0x40\n      mstore\n      dup1\n      iszero\n      tag_44\n      jumpi\n      dup2\n      0x20\n      add\n    tag_45:\n      0x60\n      dup2\n      mstore\n      0x20\n      add\n      swap1\n      0x01\n      swap1\n      sub\n      swap1\n      dup2\n      tag_45\n      jumpi\n      swap1\n      pop\n    tag_44:\n      pop\n        /* \"contracts/proposal.sol\":1653:1705  string[] memory parts = new string[](s.count(delim)) */\n      swap1\n      pop\n        /* \"contracts/proposal.sol\":1739:1745  uint i */\n      0x00\n        /* \"contracts/proposal.sol\":1734:1903  for (uint i = 0; i < parts.length; i++) {                              \r... */\n    tag_46:\n        /* \"contracts/proposal.sol\":1755:1760  parts */\n      dup2\n        /* \"contracts/proposal.sol\":1755:1767  parts.length */\n      mload\n        /* \"contracts/proposal.sol\":1751:1752  i */\n      dup2\n        /* \"contracts/proposal.sol\":1751:1767  i < parts.length */\n      lt\n        /* \"contracts/proposal.sol\":1734:1903  for (uint i = 0; i < parts.length; i++) {                              \r... */\n      iszero\n      tag_47\n      jumpi\n        /* \"contracts/proposal.sol\":1830:1855  s.split(delim).toString() */\n      tag_49\n        /* \"contracts/proposal.sol\":1830:1844  s.split(delim) */\n      tag_50\n        /* \"contracts/proposal.sol\":1838:1843  delim */\n      dup5\n        /* \"contracts/proposal.sol\":1830:1831  s */\n      dup7\n        /* \"contracts/proposal.sol\":1830:1837  s.split */\n      tag_51\n      swap1\n        /* \"contracts/proposal.sol\":1830:1844  s.split(delim) */\n      swap2\n      swap1\n      0xffffffff\n      and\n      jump\t// in\n    tag_50:\n        /* \"contracts/proposal.sol\":1830:1853  s.split(delim).toString */\n      tag_52\n        /* \"contracts/proposal.sol\":1830:1855  s.split(delim).toString() */\n      jump\t// in\n    tag_49:\n        /* \"contracts/proposal.sol\":1819:1824  parts */\n      dup3\n        /* \"contracts/proposal.sol\":1825:1826  i */\n      dup3\n        /* \"contracts/proposal.sol\":1819:1827  parts[i] */\n      dup2\n      mload\n      dup2\n      lt\n      tag_53\n      jumpi\n      mstore(0x00, 0x4e487b7100000000000000000000000000000000000000000000000000000000)\n      mstore(0x04, 0x32)\n      revert(0x00, 0x24)\n    tag_53:\n      0x20\n      mul\n      0x20\n      add\n      add\n        /* \"contracts/proposal.sol\":1819:1855  parts[i] = s.split(delim).toString() */\n      dup2\n      swap1\n      mstore\n      pop\n        /* \"contracts/proposal.sol\":1870:1876  opopop */\n      0x02\n        /* \"contracts/proposal.sol\":1882:1887  parts */\n      dup3\n        /* \"contracts/proposal.sol\":1888:1889  i */\n      dup3\n        /* \"contracts/proposal.sol\":1882:1890  parts[i] */\n      dup2\n      mload\n      dup2\n      lt\n      tag_54\n      jumpi\n      mstore(0x00, 0x4e487b7100000000000000000000000000000000000000000000000000000000)\n      mstore(0x04, 0x32)\n      revert(0x00, 0x24)\n    tag_54:\n      0x20\n      mul\n      0x20\n      add\n      add\n      mload\n        /* \"contracts/proposal.sol\":1870:1891  opopop.push(parts[i]) */\n      swap1\n      dup1\n      0x01\n      dup2\n      sload\n      add\n      dup1\n      dup3\n      sstore\n      dup1\n      swap2\n      pop\n      pop\n      0x01\n      swap1\n      sub\n      swap1\n      0x00\n      mstore\n      keccak256(0x00, 0x20)\n      add\n      0x00\n      swap1\n      swap2\n      swap1\n      swap2\n      swap1\n      swap2\n      pop\n      swap1\n      dup1\n      mload\n      swap1\n      0x20\n      add\n      swap1\n      tag_56\n      swap3\n      swap2\n      swap1\n      tag_57\n      jump\t// in\n    tag_56:\n      pop\n        /* \"contracts/proposal.sol\":1769:1772  i++ */\n      dup1\n      dup1\n      tag_58\n      swap1\n      tag_59\n      jump\t// in\n    tag_58:\n      swap2\n      pop\n      pop\n        /* \"contracts/proposal.sol\":1734:1903  for (uint i = 0; i < parts.length; i++) {                              \r... */\n      jump(tag_46)\n    tag_47:\n      pop\n        /* \"contracts/proposal.sol\":1400:1979  function smt(string memory _options) public {                                               \r... */\n      pop\n      pop\n      pop\n      pop\n      jump\t// out\n        /* \"contracts/proposal.sol\":1369:1391  string[] public opopop */\n    tag_21:\n      0x02\n      dup2\n      dup2\n      sload\n      dup2\n      lt\n      tag_60\n      jumpi\n      0x00\n      dup1\n      revert\n    tag_60:\n      swap1\n      0x00\n      mstore\n      keccak256(0x00, 0x20)\n      add\n      0x00\n      swap2\n      pop\n      swap1\n      pop\n      dup1\n      sload\n      tag_62\n      swap1\n      tag_63\n      jump\t// in\n    tag_62:\n      dup1\n      0x1f\n      add\n      0x20\n      dup1\n      swap2\n      div\n      mul\n      0x20\n      add\n      mload(0x40)\n      swap1\n      dup2\n      add\n      0x40\n      mstore\n      dup1\n      swap3\n      swap2\n      swap1\n      dup2\n      dup2\n      mstore\n      0x20\n      add\n      dup3\n      dup1\n      sload\n      tag_64\n      swap1\n      tag_63\n      jump\t// in\n    tag_64:\n      dup1\n      iszero\n      tag_65\n      jumpi\n      dup1\n      0x1f\n      lt\n      tag_66\n      jumpi\n      0x0100\n      dup1\n      dup4\n      sload\n      div\n      mul\n      dup4\n      mstore\n      swap2\n      0x20\n      add\n      swap2\n      jump(tag_65)\n    tag_66:\n      dup3\n      add\n      swap2\n      swap1\n      0x00\n      mstore\n      keccak256(0x00, 0x20)\n      swap1\n    tag_67:\n      dup2\n      sload\n      dup2\n      mstore\n      swap1\n      0x01\n      add\n      swap1\n      0x20\n      add\n      dup1\n      dup4\n      gt\n      tag_67\n      jumpi\n      dup3\n      swap1\n      sub\n      0x1f\n      and\n      dup3\n      add\n      swap2\n    tag_65:\n      pop\n      pop\n      pop\n      pop\n      pop\n      dup2\n      jump\t// out\n        /* \"contracts/proposal.sol\":916:1189  function addProposal(uint _proposalId, uint _proposalStatus, address _proposalCreator, uint _proposalNumOfOptions) public {\r... */\n    tag_27:\n        /* \"contracts/proposal.sol\":1076:1155  Proposal(_proposalId, _proposalStatus, _proposalCreator, _proposalNumOfOptions) */\n      mload(0x40)\n      dup1\n      0x80\n      add\n      0x40\n      mstore\n      dup1\n        /* \"contracts/proposal.sol\":1085:1096  _proposalId */\n      dup6\n        /* \"contracts/proposal.sol\":1076:1155  Proposal(_proposalId, _proposalStatus, _proposalCreator, _proposalNumOfOptions) */\n      dup2\n      mstore\n      0x20\n      add\n        /* \"contracts/proposal.sol\":1098:1113  _proposalStatus */\n      dup5\n        /* \"contracts/proposal.sol\":1076:1155  Proposal(_proposalId, _proposalStatus, _proposalCreator, _proposalNumOfOptions) */\n      dup2\n      mstore\n      0x20\n      add\n        /* \"contracts/proposal.sol\":1115:1131  _proposalCreator */\n      dup4\n        /* \"contracts/proposal.sol\":1076:1155  Proposal(_proposalId, _proposalStatus, _proposalCreator, _proposalNumOfOptions) */\n      0xffffffffffffffffffffffffffffffffffffffff\n      and\n      dup2\n      mstore\n      0x20\n      add\n        /* \"contracts/proposal.sol\":1133:1154  _proposalNumOfOptions */\n      dup3\n        /* \"contracts/proposal.sol\":1076:1155  Proposal(_proposalId, _proposalStatus, _proposalCreator, _proposalNumOfOptions) */\n      dup2\n      mstore\n      pop\n        /* \"contracts/proposal.sol\":1049:1058  proposals */\n      0x00\n        /* \"contracts/proposal.sol\":1049:1073  proposals[proposalCount] */\n      dup1\n        /* \"contracts/proposal.sol\":1059:1072  proposalCount */\n      sload(0x01)\n        /* \"contracts/proposal.sol\":1049:1073  proposals[proposalCount] */\n      dup2\n      mstore\n      0x20\n      add\n      swap1\n      dup2\n      mstore\n      0x20\n      add\n      0x00\n      keccak256\n        /* \"contracts/proposal.sol\":1049:1155  proposals[proposalCount] = Proposal(_proposalId, _proposalStatus, _proposalCreator, _proposalNumOfOptions) */\n      0x00\n      dup3\n      add\n      mload\n      dup2\n      0x00\n      add\n      sstore\n      0x20\n      dup3\n      add\n      mload\n      dup2\n      0x01\n      add\n      sstore\n      0x40\n      dup3\n      add\n      mload\n      dup2\n      0x02\n      add\n      exp(0x0100, 0x00)\n      dup2\n      sload\n      dup2\n      0xffffffffffffffffffffffffffffffffffffffff\n      mul\n      not\n      and\n      swap1\n      dup4\n      0xffffffffffffffffffffffffffffffffffffffff\n      and\n      mul\n      or\n      swap1\n      sstore\n      pop\n      0x60\n      dup3\n      add\n      mload\n      dup2\n      0x03\n      add\n      sstore\n      swap1\n      pop\n      pop\n        /* \"contracts/proposal.sol\":1166:1179  proposalCount */\n      0x01\n      0x00\n        /* \"contracts/proposal.sol\":1166:1181  proposalCount++ */\n      dup2\n      sload\n      dup1\n      swap3\n      swap2\n      swap1\n      tag_69\n      swap1\n      tag_59\n      jump\t// in\n    tag_69:\n      swap2\n      swap1\n      pop\n      sstore\n      pop\n        /* \"contracts/proposal.sol\":916:1189  function addProposal(uint _proposalId, uint _proposalStatus, address _proposalCreator, uint _proposalNumOfOptions) public {\r... */\n      pop\n      pop\n      pop\n      pop\n      jump\t// out\n        /* \"contracts/proposal.sol\":742:767  uint public proposalCount */\n    tag_29:\n      sload(0x01)\n      dup2\n      jump\t// out\n        /* \"contracts/proposal.sol\":1197:1329  function getProposalStructure(uint _proposalId) public view returns(Proposal memory){\r... */\n    tag_34:\n        /* \"contracts/proposal.sol\":1265:1280  Proposal memory */\n      tag_70\n      tag_71\n      jump\t// in\n    tag_70:\n        /* \"contracts/proposal.sol\":1299:1308  proposals */\n      0x00\n        /* \"contracts/proposal.sol\":1299:1321  proposals[_proposalId] */\n      dup1\n        /* \"contracts/proposal.sol\":1309:1320  _proposalId */\n      dup4\n        /* \"contracts/proposal.sol\":1299:1321  proposals[_proposalId] */\n      dup2\n      mstore\n      0x20\n      add\n      swap1\n      dup2\n      mstore\n      0x20\n      add\n      0x00\n      keccak256\n        /* \"contracts/proposal.sol\":1292:1321  return proposals[_proposalId] */\n      mload(0x40)\n      dup1\n      0x80\n      add\n      0x40\n      mstore\n      swap1\n      dup2\n      0x00\n      dup3\n      add\n      sload\n      dup2\n      mstore\n      0x20\n      add\n      0x01\n      dup3\n      add\n      sload\n      dup2\n      mstore\n      0x20\n      add\n      0x02\n      dup3\n      add\n      0x00\n      swap1\n      sload\n      swap1\n      0x0100\n      exp\n      swap1\n      div\n      0xffffffffffffffffffffffffffffffffffffffff\n      and\n      0xffffffffffffffffffffffffffffffffffffffff\n      and\n      0xffffffffffffffffffffffffffffffffffffffff\n      and\n      dup2\n      mstore\n      0x20\n      add\n      0x03\n      dup3\n      add\n      sload\n      dup2\n      mstore\n      pop\n      pop\n      swap1\n      pop\n        /* \"contracts/proposal.sol\":1197:1329  function getProposalStructure(uint _proposalId) public view returns(Proposal memory){\r... */\n      swap2\n      swap1\n      pop\n      jump\t// out\n        /* \"https://github.com/Arachnid/solidity-stringutils/blob/master/src/strings.sol\":2904:3114  function toSlice(string memory self) internal pure returns (slice memory) {... */\n    tag_39:\n        /* \"https://github.com/Arachnid/solidity-stringutils/blob/master/src/strings.sol\":2964:2976  slice memory */\n      tag_73\n      tag_74\n      jump\t// in\n    tag_73:\n        /* \"https://github.com/Arachnid/solidity-stringutils/blob/master/src/strings.sol\":2988:2996  uint ptr */\n      0x00\n        /* \"https://github.com/Arachnid/solidity-stringutils/blob/master/src/strings.sol\":3046:3050  0x20 */\n      0x20\n        /* \"https://github.com/Arachnid/solidity-stringutils/blob/master/src/strings.sol\":3040:3044  self */\n      dup4\n        /* \"https://github.com/Arachnid/solidity-stringutils/blob/master/src/strings.sol\":3036:3051  add(self, 0x20) */\n      add\n        /* \"https://github.com/Arachnid/solidity-stringutils/blob/master/src/strings.sol\":3029:3051  ptr := add(self, 0x20) */\n      swap1\n      pop\n        /* \"https://github.com/Arachnid/solidity-stringutils/blob/master/src/strings.sol\":3077:3107  slice(bytes(self).length, ptr) */\n      mload(0x40)\n      dup1\n      0x40\n      add\n      0x40\n      mstore\n      dup1\n        /* \"https://github.com/Arachnid/solidity-stringutils/blob/master/src/strings.sol\":3089:3093  self */\n      dup5\n        /* \"https://github.com/Arachnid/solidity-stringutils/blob/master/src/strings.sol\":3083:3101  bytes(self).length */\n      mload\n        /* \"https://github.com/Arachnid/solidity-stringutils/blob/master/src/strings.sol\":3077:3107  slice(bytes(self).length, ptr) */\n      dup2\n      mstore\n      0x20\n      add\n        /* \"https://github.com/Arachnid/solidity-stringutils/blob/master/src/strings.sol\":3103:3106  ptr */\n      dup3\n        /* \"https://github.com/Arachnid/solidity-stringutils/blob/master/src/strings.sol\":3077:3107  slice(bytes(self).length, ptr) */\n      dup2\n      mstore\n      pop\n        /* \"https://github.com/Arachnid/solidity-stringutils/blob/master/src/strings.sol\":3070:3107  return slice(bytes(self).length, ptr) */\n      swap2\n      pop\n      pop\n        /* \"https://github.com/Arachnid/solidity-stringutils/blob/master/src/strings.sol\":2904:3114  function toSlice(string memory self) internal pure returns (slice memory) {... */\n      swap2\n      swap1\n      pop\n      jump\t// out\n        /* \"https://github.com/Arachnid/solidity-stringutils/blob/master/src/strings.sol\":23194:23558  function count(slice memory self, slice memory needle) internal pure returns (uint cnt) {... */\n    tag_42:\n        /* \"https://github.com/Arachnid/solidity-stringutils/blob/master/src/strings.sol\":23272:23280  uint cnt */\n      0x00\n        /* \"https://github.com/Arachnid/solidity-stringutils/blob/master/src/strings.sol\":23292:23300  uint ptr */\n      dup1\n        /* \"https://github.com/Arachnid/solidity-stringutils/blob/master/src/strings.sol\":23361:23367  needle */\n      dup3\n        /* \"https://github.com/Arachnid/solidity-stringutils/blob/master/src/strings.sol\":23361:23372  needle._len */\n      0x00\n      add\n      mload\n        /* \"https://github.com/Arachnid/solidity-stringutils/blob/master/src/strings.sol\":23303:23358  findPtr(self._len, self._ptr, needle._len, needle._ptr) */\n      tag_77\n        /* \"https://github.com/Arachnid/solidity-stringutils/blob/master/src/strings.sol\":23311:23315  self */\n      dup6\n        /* \"https://github.com/Arachnid/solidity-stringutils/blob/master/src/strings.sol\":23311:23320  self._len */\n      0x00\n      add\n      mload\n        /* \"https://github.com/Arachnid/solidity-stringutils/blob/master/src/strings.sol\":23322:23326  self */\n      dup7\n        /* \"https://github.com/Arachnid/solidity-stringutils/blob/master/src/strings.sol\":23322:23331  self._ptr */\n      0x20\n      add\n      mload\n        /* \"https://github.com/Arachnid/solidity-stringutils/blob/master/src/strings.sol\":23333:23339  needle */\n      dup7\n        /* \"https://github.com/Arachnid/solidity-stringutils/blob/master/src/strings.sol\":23333:23344  needle._len */\n      0x00\n      add\n      mload\n        /* \"https://github.com/Arachnid/solidity-stringutils/blob/master/src/strings.sol\":23346:23352  needle */\n      dup8\n        /* \"https://github.com/Arachnid/solidity-stringutils/blob/master/src/strings.sol\":23346:23357  needle._ptr */\n      0x20\n      add\n      mload\n        /* \"https://github.com/Arachnid/solidity-stringutils/blob/master/src/strings.sol\":23303:23310  findPtr */\n      tag_78\n        /* \"https://github.com/Arachnid/solidity-stringutils/blob/master/src/strings.sol\":23303:23358  findPtr(self._len, self._ptr, needle._len, needle._ptr) */\n      jump\t// in\n    tag_77:\n        /* \"https://github.com/Arachnid/solidity-stringutils/blob/master/src/strings.sol\":23303:23372  findPtr(self._len, self._ptr, needle._len, needle._ptr) + needle._len */\n      tag_79\n      swap2\n      swap1\n      tag_80\n      jump\t// in\n    tag_79:\n        /* \"https://github.com/Arachnid/solidity-stringutils/blob/master/src/strings.sol\":23292:23372  uint ptr = findPtr(self._len, self._ptr, needle._len, needle._ptr) + needle._len */\n      swap1\n      pop\n        /* \"https://github.com/Arachnid/solidity-stringutils/blob/master/src/strings.sol\":23382:23552  while (ptr <= self._ptr + self._len) {... */\n    tag_81:\n        /* \"https://github.com/Arachnid/solidity-stringutils/blob/master/src/strings.sol\":23408:23412  self */\n      dup4\n        /* \"https://github.com/Arachnid/solidity-stringutils/blob/master/src/strings.sol\":23408:23417  self._len */\n      0x00\n      add\n      mload\n        /* \"https://github.com/Arachnid/solidity-stringutils/blob/master/src/strings.sol\":23396:23400  self */\n      dup5\n        /* \"https://github.com/Arachnid/solidity-stringutils/blob/master/src/strings.sol\":23396:23405  self._ptr */\n      0x20\n      add\n      mload\n        /* \"https://github.com/Arachnid/solidity-stringutils/blob/master/src/strings.sol\":23396:23417  self._ptr + self._len */\n      tag_83\n      swap2\n      swap1\n      tag_80\n      jump\t// in\n    tag_83:\n        /* \"https://github.com/Arachnid/solidity-stringutils/blob/master/src/strings.sol\":23389:23392  ptr */\n      dup2\n        /* \"https://github.com/Arachnid/solidity-stringutils/blob/master/src/strings.sol\":23389:23417  ptr <= self._ptr + self._len */\n      gt\n        /* \"https://github.com/Arachnid/solidity-stringutils/blob/master/src/strings.sol\":23382:23552  while (ptr <= self._ptr + self._len) {... */\n      tag_82\n      jumpi\n        /* \"https://github.com/Arachnid/solidity-stringutils/blob/master/src/strings.sol\":23433:23438  cnt++ */\n      dup2\n      dup1\n      tag_84\n      swap1\n      tag_59\n      jump\t// in\n    tag_84:\n      swap3\n      pop\n      pop\n        /* \"https://github.com/Arachnid/solidity-stringutils/blob/master/src/strings.sol\":23530:23536  needle */\n      dup3\n        /* \"https://github.com/Arachnid/solidity-stringutils/blob/master/src/strings.sol\":23530:23541  needle._len */\n      0x00\n      add\n      mload\n        /* \"https://github.com/Arachnid/solidity-stringutils/blob/master/src/strings.sol\":23458:23527  findPtr(self._len - (ptr - self._ptr), ptr, needle._len, needle._ptr) */\n      tag_85\n        /* \"https://github.com/Arachnid/solidity-stringutils/blob/master/src/strings.sol\":23485:23489  self */\n      dup6\n        /* \"https://github.com/Arachnid/solidity-stringutils/blob/master/src/strings.sol\":23485:23494  self._ptr */\n      0x20\n      add\n      mload\n        /* \"https://github.com/Arachnid/solidity-stringutils/blob/master/src/strings.sol\":23479:23482  ptr */\n      dup4\n        /* \"https://github.com/Arachnid/solidity-stringutils/blob/master/src/strings.sol\":23479:23494  ptr - self._ptr */\n      tag_86\n      swap2\n      swap1\n      tag_87\n      jump\t// in\n    tag_86:\n        /* \"https://github.com/Arachnid/solidity-stringutils/blob/master/src/strings.sol\":23466:23470  self */\n      dup7\n        /* \"https://github.com/Arachnid/solidity-stringutils/blob/master/src/strings.sol\":23466:23475  self._len */\n      0x00\n      add\n      mload\n        /* \"https://github.com/Arachnid/solidity-stringutils/blob/master/src/strings.sol\":23466:23495  self._len - (ptr - self._ptr) */\n      tag_88\n      swap2\n      swap1\n      tag_87\n      jump\t// in\n    tag_88:\n        /* \"https://github.com/Arachnid/solidity-stringutils/blob/master/src/strings.sol\":23497:23500  ptr */\n      dup4\n        /* \"https://github.com/Arachnid/solidity-stringutils/blob/master/src/strings.sol\":23502:23508  needle */\n      dup7\n        /* \"https://github.com/Arachnid/solidity-stringutils/blob/master/src/strings.sol\":23502:23513  needle._len */\n      0x00\n      add\n      mload\n        /* \"https://github.com/Arachnid/solidity-stringutils/blob/master/src/strings.sol\":23515:23521  needle */\n      dup8\n        /* \"https://github.com/Arachnid/solidity-stringutils/blob/master/src/strings.sol\":23515:23526  needle._ptr */\n      0x20\n      add\n      mload\n        /* \"https://github.com/Arachnid/solidity-stringutils/blob/master/src/strings.sol\":23458:23465  findPtr */\n      tag_78\n        /* \"https://github.com/Arachnid/solidity-stringutils/blob/master/src/strings.sol\":23458:23527  findPtr(self._len - (ptr - self._ptr), ptr, needle._len, needle._ptr) */\n      jump\t// in\n    tag_85:\n        /* \"https://github.com/Arachnid/solidity-stringutils/blob/master/src/strings.sol\":23458:23541  findPtr(self._len - (ptr - self._ptr), ptr, needle._len, needle._ptr) + needle._len */\n      tag_89\n      swap2\n      swap1\n      tag_80\n      jump\t// in\n    tag_89:\n        /* \"https://github.com/Arachnid/solidity-stringutils/blob/master/src/strings.sol\":23452:23541  ptr = findPtr(self._len - (ptr - self._ptr), ptr, needle._len, needle._ptr) + needle._len */\n      swap1\n      pop\n        /* \"https://github.com/Arachnid/solidity-stringutils/blob/master/src/strings.sol\":23382:23552  while (ptr <= self._ptr + self._len) {... */\n      jump(tag_81)\n    tag_82:\n        /* \"https://github.com/Arachnid/solidity-stringutils/blob/master/src/strings.sol\":23194:23558  function count(slice memory self, slice memory needle) internal pure returns (uint cnt) {... */\n      pop\n      swap3\n      swap2\n      pop\n      pop\n      jump\t// out\n        /* \"https://github.com/Arachnid/solidity-stringutils/blob/master/src/strings.sol\":21208:21349  function split(slice memory self, slice memory needle) internal pure returns (slice memory token) {... */\n    tag_51:\n        /* \"https://github.com/Arachnid/solidity-stringutils/blob/master/src/strings.sol\":21286:21304  slice memory token */\n      tag_90\n      tag_74\n      jump\t// in\n    tag_90:\n        /* \"https://github.com/Arachnid/solidity-stringutils/blob/master/src/strings.sol\":21316:21342  split(self, needle, token) */\n      tag_92\n        /* \"https://github.com/Arachnid/solidity-stringutils/blob/master/src/strings.sol\":21322:21326  self */\n      dup4\n        /* \"https://github.com/Arachnid/solidity-stringutils/blob/master/src/strings.sol\":21328:21334  needle */\n      dup4\n        /* \"https://github.com/Arachnid/solidity-stringutils/blob/master/src/strings.sol\":21336:21341  token */\n      dup4\n        /* \"https://github.com/Arachnid/solidity-stringutils/blob/master/src/strings.sol\":21316:21321  split */\n      tag_93\n        /* \"https://github.com/Arachnid/solidity-stringutils/blob/master/src/strings.sol\":21316:21342  split(self, needle, token) */\n      jump\t// in\n    tag_92:\n      pop\n        /* \"https://github.com/Arachnid/solidity-stringutils/blob/master/src/strings.sol\":21208:21349  function split(slice memory self, slice memory needle) internal pure returns (slice memory token) {... */\n      swap3\n      swap2\n      pop\n      pop\n      jump\t// out\n        /* \"https://github.com/Arachnid/solidity-stringutils/blob/master/src/strings.sol\":5286:5551  function toString(slice memory self) internal pure returns (string memory) {... */\n    tag_52:\n        /* \"https://github.com/Arachnid/solidity-stringutils/blob/master/src/strings.sol\":5346:5359  string memory */\n      0x60\n        /* \"https://github.com/Arachnid/solidity-stringutils/blob/master/src/strings.sol\":5371:5388  string memory ret */\n      0x00\n        /* \"https://github.com/Arachnid/solidity-stringutils/blob/master/src/strings.sol\":5402:5406  self */\n      dup3\n        /* \"https://github.com/Arachnid/solidity-stringutils/blob/master/src/strings.sol\":5402:5411  self._len */\n      0x00\n      add\n      mload\n        /* \"https://github.com/Arachnid/solidity-stringutils/blob/master/src/strings.sol\":5391:5412  new string(self._len) */\n      0xffffffffffffffff\n      dup2\n      gt\n      iszero\n      tag_95\n      jumpi\n      mstore(0x00, 0x4e487b7100000000000000000000000000000000000000000000000000000000)\n      mstore(0x04, 0x41)\n      revert(0x00, 0x24)\n    tag_95:\n      mload(0x40)\n      swap1\n      dup1\n      dup3\n      mstore\n      dup1\n      0x1f\n      add\n      not(0x1f)\n      and\n      0x20\n      add\n      dup3\n      add\n      0x40\n      mstore\n      dup1\n      iszero\n      tag_96\n      jumpi\n      dup2\n      0x20\n      add\n      0x01\n      dup3\n      mul\n      dup1\n      calldatasize\n      dup4\n      calldatacopy\n      dup1\n      dup3\n      add\n      swap2\n      pop\n      pop\n      swap1\n      pop\n    tag_96:\n      pop\n        /* \"https://github.com/Arachnid/solidity-stringutils/blob/master/src/strings.sol\":5371:5412  string memory ret = new string(self._len) */\n      swap1\n      pop\n        /* \"https://github.com/Arachnid/solidity-stringutils/blob/master/src/strings.sol\":5422:5433  uint retptr */\n      0x00\n        /* \"https://github.com/Arachnid/solidity-stringutils/blob/master/src/strings.sol\":5473:5475  32 */\n      0x20\n        /* \"https://github.com/Arachnid/solidity-stringutils/blob/master/src/strings.sol\":5468:5471  ret */\n      dup3\n        /* \"https://github.com/Arachnid/solidity-stringutils/blob/master/src/strings.sol\":5464:5476  add(ret, 32) */\n      add\n        /* \"https://github.com/Arachnid/solidity-stringutils/blob/master/src/strings.sol\":5454:5476  retptr := add(ret, 32) */\n      swap1\n      pop\n        /* \"https://github.com/Arachnid/solidity-stringutils/blob/master/src/strings.sol\":5488:5524  memcpy(retptr, self._ptr, self._len) */\n      tag_97\n        /* \"https://github.com/Arachnid/solidity-stringutils/blob/master/src/strings.sol\":5495:5501  retptr */\n      dup2\n        /* \"https://github.com/Arachnid/solidity-stringutils/blob/master/src/strings.sol\":5503:5507  self */\n      dup6\n        /* \"https://github.com/Arachnid/solidity-stringutils/blob/master/src/strings.sol\":5503:5512  self._ptr */\n      0x20\n      add\n      mload\n        /* \"https://github.com/Arachnid/solidity-stringutils/blob/master/src/strings.sol\":5514:5518  self */\n      dup7\n        /* \"https://github.com/Arachnid/solidity-stringutils/blob/master/src/strings.sol\":5514:5523  self._len */\n      0x00\n      add\n      mload\n        /* \"https://github.com/Arachnid/solidity-stringutils/blob/master/src/strings.sol\":5488:5494  memcpy */\n      tag_98\n        /* \"https://github.com/Arachnid/solidity-stringutils/blob/master/src/strings.sol\":5488:5524  memcpy(retptr, self._ptr, self._len) */\n      jump\t// in\n    tag_97:\n        /* \"https://github.com/Arachnid/solidity-stringutils/blob/master/src/strings.sol\":5541:5544  ret */\n      dup2\n        /* \"https://github.com/Arachnid/solidity-stringutils/blob/master/src/strings.sol\":5534:5544  return ret */\n      swap3\n      pop\n      pop\n      pop\n        /* \"https://github.com/Arachnid/solidity-stringutils/blob/master/src/strings.sol\":5286:5551  function toString(slice memory self) internal pure returns (string memory) {... */\n      swap2\n      swap1\n      pop\n      jump\t// out\n        /* \"https://github.com/Arachnid/solidity-stringutils/blob/master/src/strings.sol\":15477:16930  function findPtr(uint selflen, uint selfptr, uint needlelen, uint needleptr) private pure returns (uint) {... */\n    tag_78:\n        /* \"https://github.com/Arachnid/solidity-stringutils/blob/master/src/strings.sol\":15576:15580  uint */\n      0x00\n        /* \"https://github.com/Arachnid/solidity-stringutils/blob/master/src/strings.sol\":15592:15600  uint ptr */\n      dup1\n        /* \"https://github.com/Arachnid/solidity-stringutils/blob/master/src/strings.sol\":15603:15610  selfptr */\n      dup5\n        /* \"https://github.com/Arachnid/solidity-stringutils/blob/master/src/strings.sol\":15592:15610  uint ptr = selfptr */\n      swap1\n      pop\n        /* \"https://github.com/Arachnid/solidity-stringutils/blob/master/src/strings.sol\":15620:15628  uint idx */\n      0x00\n        /* \"https://github.com/Arachnid/solidity-stringutils/blob/master/src/strings.sol\":15656:15663  selflen */\n      dup7\n        /* \"https://github.com/Arachnid/solidity-stringutils/blob/master/src/strings.sol\":15643:15652  needlelen */\n      dup6\n        /* \"https://github.com/Arachnid/solidity-stringutils/blob/master/src/strings.sol\":15643:15663  needlelen <= selflen */\n      gt\n        /* \"https://github.com/Arachnid/solidity-stringutils/blob/master/src/strings.sol\":15639:16890  if (needlelen <= selflen) {... */\n      tag_100\n      jumpi\n        /* \"https://github.com/Arachnid/solidity-stringutils/blob/master/src/strings.sol\":15696:15698  32 */\n      0x20\n        /* \"https://github.com/Arachnid/solidity-stringutils/blob/master/src/strings.sol\":15683:15692  needlelen */\n      dup6\n        /* \"https://github.com/Arachnid/solidity-stringutils/blob/master/src/strings.sol\":15683:15698  needlelen <= 32 */\n      gt\n        /* \"https://github.com/Arachnid/solidity-stringutils/blob/master/src/strings.sol\":15679:16880  if (needlelen <= 32) {... */\n      tag_101\n      jumpi\n        /* \"https://github.com/Arachnid/solidity-stringutils/blob/master/src/strings.sol\":15718:15730  bytes32 mask */\n      0x00\n        /* \"https://github.com/Arachnid/solidity-stringutils/blob/master/src/strings.sol\":15764:15765  0 */\n      dup1\n        /* \"https://github.com/Arachnid/solidity-stringutils/blob/master/src/strings.sol\":15752:15761  needlelen */\n      dup7\n        /* \"https://github.com/Arachnid/solidity-stringutils/blob/master/src/strings.sol\":15752:15765  needlelen > 0 */\n      gt\n        /* \"https://github.com/Arachnid/solidity-stringutils/blob/master/src/strings.sol\":15748:15858  if (needlelen > 0) {... */\n      iszero\n      tag_102\n      jumpi\n        /* \"https://github.com/Arachnid/solidity-stringutils/blob/master/src/strings.sol\":15836:15837  1 */\n      0x01\n        /* \"https://github.com/Arachnid/solidity-stringutils/blob/master/src/strings.sol\":15822:15831  needlelen */\n      dup7\n        /* \"https://github.com/Arachnid/solidity-stringutils/blob/master/src/strings.sol\":15817:15819  32 */\n      0x20\n        /* \"https://github.com/Arachnid/solidity-stringutils/blob/master/src/strings.sol\":15817:15831  32 - needlelen */\n      tag_103\n      swap2\n      swap1\n      tag_87\n      jump\t// in\n    tag_103:\n        /* \"https://github.com/Arachnid/solidity-stringutils/blob/master/src/strings.sol\":15812:15813  8 */\n      0x08\n        /* \"https://github.com/Arachnid/solidity-stringutils/blob/master/src/strings.sol\":15812:15832  8 * (32 - needlelen) */\n      tag_104\n      swap2\n      swap1\n      tag_105\n      jump\t// in\n    tag_104:\n        /* \"https://github.com/Arachnid/solidity-stringutils/blob/master/src/strings.sol\":15806:15807  2 */\n      0x02\n        /* \"https://github.com/Arachnid/solidity-stringutils/blob/master/src/strings.sol\":15806:15833  2 ** (8 * (32 - needlelen)) */\n      tag_106\n      swap2\n      swap1\n      tag_107\n      jump\t// in\n    tag_106:\n        /* \"https://github.com/Arachnid/solidity-stringutils/blob/master/src/strings.sol\":15806:15837  2 ** (8 * (32 - needlelen)) - 1 */\n      tag_108\n      swap2\n      swap1\n      tag_87\n      jump\t// in\n    tag_108:\n        /* \"https://github.com/Arachnid/solidity-stringutils/blob/master/src/strings.sol\":15804:15838  ~(2 ** (8 * (32 - needlelen)) - 1) */\n      not\n        /* \"https://github.com/Arachnid/solidity-stringutils/blob/master/src/strings.sol\":15796:15839  bytes32(~(2 ** (8 * (32 - needlelen)) - 1)) */\n      0x00\n      shl\n        /* \"https://github.com/Arachnid/solidity-stringutils/blob/master/src/strings.sol\":15789:15839  mask = bytes32(~(2 ** (8 * (32 - needlelen)) - 1)) */\n      swap1\n      pop\n        /* \"https://github.com/Arachnid/solidity-stringutils/blob/master/src/strings.sol\":15748:15858  if (needlelen > 0) {... */\n    tag_102:\n        /* \"https://github.com/Arachnid/solidity-stringutils/blob/master/src/strings.sol\":15876:15894  bytes32 needledata */\n      0x00\n        /* \"https://github.com/Arachnid/solidity-stringutils/blob/master/src/strings.sol\":15959:15963  mask */\n      dup2\n        /* \"https://github.com/Arachnid/solidity-stringutils/blob/master/src/strings.sol\":15947:15956  needleptr */\n      dup7\n        /* \"https://github.com/Arachnid/solidity-stringutils/blob/master/src/strings.sol\":15941:15957  mload(needleptr) */\n      mload\n        /* \"https://github.com/Arachnid/solidity-stringutils/blob/master/src/strings.sol\":15937:15964  and(mload(needleptr), mask) */\n      and\n        /* \"https://github.com/Arachnid/solidity-stringutils/blob/master/src/strings.sol\":15923:15964  needledata := and(mload(needleptr), mask) */\n      swap1\n      pop\n        /* \"https://github.com/Arachnid/solidity-stringutils/blob/master/src/strings.sol\":15984:15992  uint end */\n      0x00\n        /* \"https://github.com/Arachnid/solidity-stringutils/blob/master/src/strings.sol\":16015:16024  needlelen */\n      dup8\n        /* \"https://github.com/Arachnid/solidity-stringutils/blob/master/src/strings.sol\":16005:16012  selflen */\n      dup11\n        /* \"https://github.com/Arachnid/solidity-stringutils/blob/master/src/strings.sol\":15995:16002  selfptr */\n      dup11\n        /* \"https://github.com/Arachnid/solidity-stringutils/blob/master/src/strings.sol\":15995:16012  selfptr + selflen */\n      tag_109\n      swap2\n      swap1\n      tag_80\n      jump\t// in\n    tag_109:\n        /* \"https://github.com/Arachnid/solidity-stringutils/blob/master/src/strings.sol\":15995:16024  selfptr + selflen - needlelen */\n      tag_110\n      swap2\n      swap1\n      tag_87\n      jump\t// in\n    tag_110:\n        /* \"https://github.com/Arachnid/solidity-stringutils/blob/master/src/strings.sol\":15984:16024  uint end = selfptr + selflen - needlelen */\n      swap1\n      pop\n        /* \"https://github.com/Arachnid/solidity-stringutils/blob/master/src/strings.sol\":16042:16057  bytes32 ptrdata */\n      0x00\n        /* \"https://github.com/Arachnid/solidity-stringutils/blob/master/src/strings.sol\":16113:16117  mask */\n      dup4\n        /* \"https://github.com/Arachnid/solidity-stringutils/blob/master/src/strings.sol\":16107:16110  ptr */\n      dup7\n        /* \"https://github.com/Arachnid/solidity-stringutils/blob/master/src/strings.sol\":16101:16111  mload(ptr) */\n      mload\n        /* \"https://github.com/Arachnid/solidity-stringutils/blob/master/src/strings.sol\":16097:16118  and(mload(ptr), mask) */\n      and\n        /* \"https://github.com/Arachnid/solidity-stringutils/blob/master/src/strings.sol\":16086:16118  ptrdata := and(mload(ptr), mask) */\n      swap1\n      pop\n        /* \"https://github.com/Arachnid/solidity-stringutils/blob/master/src/strings.sol\":16138:16366  while (ptrdata != needledata) {... */\n    tag_111:\n        /* \"https://github.com/Arachnid/solidity-stringutils/blob/master/src/strings.sol\":16156:16166  needledata */\n      dup3\n        /* \"https://github.com/Arachnid/solidity-stringutils/blob/master/src/strings.sol\":16145:16152  ptrdata */\n      dup2\n        /* \"https://github.com/Arachnid/solidity-stringutils/blob/master/src/strings.sol\":16145:16166  ptrdata != needledata */\n      eq\n        /* \"https://github.com/Arachnid/solidity-stringutils/blob/master/src/strings.sol\":16138:16366  while (ptrdata != needledata) {... */\n      tag_112\n      jumpi\n        /* \"https://github.com/Arachnid/solidity-stringutils/blob/master/src/strings.sol\":16201:16204  end */\n      dup2\n        /* \"https://github.com/Arachnid/solidity-stringutils/blob/master/src/strings.sol\":16194:16197  ptr */\n      dup7\n        /* \"https://github.com/Arachnid/solidity-stringutils/blob/master/src/strings.sol\":16194:16204  ptr >= end */\n      lt\n        /* \"https://github.com/Arachnid/solidity-stringutils/blob/master/src/strings.sol\":16190:16254  if (ptr >= end)... */\n      tag_113\n      jumpi\n        /* \"https://github.com/Arachnid/solidity-stringutils/blob/master/src/strings.sol\":16247:16254  selflen */\n      dup11\n        /* \"https://github.com/Arachnid/solidity-stringutils/blob/master/src/strings.sol\":16237:16244  selfptr */\n      dup11\n        /* \"https://github.com/Arachnid/solidity-stringutils/blob/master/src/strings.sol\":16237:16254  selfptr + selflen */\n      tag_114\n      swap2\n      swap1\n      tag_80\n      jump\t// in\n    tag_114:\n        /* \"https://github.com/Arachnid/solidity-stringutils/blob/master/src/strings.sol\":16230:16254  return selfptr + selflen */\n      swap7\n      pop\n      pop\n      pop\n      pop\n      pop\n      pop\n      pop\n      jump(tag_99)\n        /* \"https://github.com/Arachnid/solidity-stringutils/blob/master/src/strings.sol\":16190:16254  if (ptr >= end)... */\n    tag_113:\n        /* \"https://github.com/Arachnid/solidity-stringutils/blob/master/src/strings.sol\":16276:16281  ptr++ */\n      dup6\n      dup1\n      tag_115\n      swap1\n      tag_59\n      jump\t// in\n    tag_115:\n      swap7\n      pop\n      pop\n        /* \"https://github.com/Arachnid/solidity-stringutils/blob/master/src/strings.sol\":16341:16345  mask */\n      dup4\n        /* \"https://github.com/Arachnid/solidity-stringutils/blob/master/src/strings.sol\":16335:16338  ptr */\n      dup7\n        /* \"https://github.com/Arachnid/solidity-stringutils/blob/master/src/strings.sol\":16329:16339  mload(ptr) */\n      mload\n        /* \"https://github.com/Arachnid/solidity-stringutils/blob/master/src/strings.sol\":16325:16346  and(mload(ptr), mask) */\n      and\n        /* \"https://github.com/Arachnid/solidity-stringutils/blob/master/src/strings.sol\":16314:16346  ptrdata := and(mload(ptr), mask) */\n      swap1\n      pop\n        /* \"https://github.com/Arachnid/solidity-stringutils/blob/master/src/strings.sol\":16312:16348  { ptrdata := and(mload(ptr), mask) } */\n      jump(tag_111)\n    tag_112:\n        /* \"https://github.com/Arachnid/solidity-stringutils/blob/master/src/strings.sol\":16390:16393  ptr */\n      dup6\n        /* \"https://github.com/Arachnid/solidity-stringutils/blob/master/src/strings.sol\":16383:16393  return ptr */\n      swap7\n      pop\n      pop\n      pop\n      pop\n      pop\n      pop\n      pop\n      jump(tag_99)\n        /* \"https://github.com/Arachnid/solidity-stringutils/blob/master/src/strings.sol\":15679:16880  if (needlelen <= 32) {... */\n    tag_101:\n        /* \"https://github.com/Arachnid/solidity-stringutils/blob/master/src/strings.sol\":16481:16493  bytes32 hash */\n      0x00\n        /* \"https://github.com/Arachnid/solidity-stringutils/blob/master/src/strings.sol\":16551:16560  needlelen */\n      dup6\n        /* \"https://github.com/Arachnid/solidity-stringutils/blob/master/src/strings.sol\":16540:16549  needleptr */\n      dup6\n        /* \"https://github.com/Arachnid/solidity-stringutils/blob/master/src/strings.sol\":16530:16561  keccak256(needleptr, needlelen) */\n      keccak256\n        /* \"https://github.com/Arachnid/solidity-stringutils/blob/master/src/strings.sol\":16522:16561  hash := keccak256(needleptr, needlelen) */\n      swap1\n      pop\n        /* \"https://github.com/Arachnid/solidity-stringutils/blob/master/src/strings.sol\":16592:16593  0 */\n      0x00\n        /* \"https://github.com/Arachnid/solidity-stringutils/blob/master/src/strings.sol\":16586:16593  idx = 0 */\n      swap2\n      pop\n        /* \"https://github.com/Arachnid/solidity-stringutils/blob/master/src/strings.sol\":16581:16866  for (idx = 0; idx <= selflen - needlelen; idx++) {... */\n    tag_117:\n        /* \"https://github.com/Arachnid/solidity-stringutils/blob/master/src/strings.sol\":16612:16621  needlelen */\n      dup6\n        /* \"https://github.com/Arachnid/solidity-stringutils/blob/master/src/strings.sol\":16602:16609  selflen */\n      dup9\n        /* \"https://github.com/Arachnid/solidity-stringutils/blob/master/src/strings.sol\":16602:16621  selflen - needlelen */\n      tag_120\n      swap2\n      swap1\n      tag_87\n      jump\t// in\n    tag_120:\n        /* \"https://github.com/Arachnid/solidity-stringutils/blob/master/src/strings.sol\":16595:16598  idx */\n      dup3\n        /* \"https://github.com/Arachnid/solidity-stringutils/blob/master/src/strings.sol\":16595:16621  idx <= selflen - needlelen */\n      gt\n        /* \"https://github.com/Arachnid/solidity-stringutils/blob/master/src/strings.sol\":16581:16866  for (idx = 0; idx <= selflen - needlelen; idx++) {... */\n      tag_118\n      jumpi\n        /* \"https://github.com/Arachnid/solidity-stringutils/blob/master/src/strings.sol\":16652:16668  bytes32 testHash */\n      0x00\n        /* \"https://github.com/Arachnid/solidity-stringutils/blob/master/src/strings.sol\":16728:16737  needlelen */\n      dup7\n        /* \"https://github.com/Arachnid/solidity-stringutils/blob/master/src/strings.sol\":16723:16726  ptr */\n      dup5\n        /* \"https://github.com/Arachnid/solidity-stringutils/blob/master/src/strings.sol\":16713:16738  keccak256(ptr, needlelen) */\n      keccak256\n        /* \"https://github.com/Arachnid/solidity-stringutils/blob/master/src/strings.sol\":16701:16738  testHash := keccak256(ptr, needlelen) */\n      swap1\n      pop\n        /* \"https://github.com/Arachnid/solidity-stringutils/blob/master/src/strings.sol\":16773:16781  testHash */\n      dup1\n        /* \"https://github.com/Arachnid/solidity-stringutils/blob/master/src/strings.sol\":16765:16769  hash */\n      dup3\n        /* \"https://github.com/Arachnid/solidity-stringutils/blob/master/src/strings.sol\":16765:16781  hash == testHash */\n      eq\n        /* \"https://github.com/Arachnid/solidity-stringutils/blob/master/src/strings.sol\":16761:16817  if (hash == testHash)... */\n      iszero\n      tag_121\n      jumpi\n        /* \"https://github.com/Arachnid/solidity-stringutils/blob/master/src/strings.sol\":16814:16817  ptr */\n      dup4\n        /* \"https://github.com/Arachnid/solidity-stringutils/blob/master/src/strings.sol\":16807:16817  return ptr */\n      swap5\n      pop\n      pop\n      pop\n      pop\n      pop\n      jump(tag_99)\n        /* \"https://github.com/Arachnid/solidity-stringutils/blob/master/src/strings.sol\":16761:16817  if (hash == testHash)... */\n    tag_121:\n        /* \"https://github.com/Arachnid/solidity-stringutils/blob/master/src/strings.sol\":16846:16847  1 */\n      0x01\n        /* \"https://github.com/Arachnid/solidity-stringutils/blob/master/src/strings.sol\":16839:16847  ptr += 1 */\n      dup5\n      tag_122\n      swap2\n      swap1\n      tag_80\n      jump\t// in\n    tag_122:\n      swap4\n      pop\n        /* \"https://github.com/Arachnid/solidity-stringutils/blob/master/src/strings.sol\":16581:16866  for (idx = 0; idx <= selflen - needlelen; idx++) {... */\n      pop\n        /* \"https://github.com/Arachnid/solidity-stringutils/blob/master/src/strings.sol\":16623:16628  idx++ */\n      dup2\n      dup1\n      tag_123\n      swap1\n      tag_59\n      jump\t// in\n    tag_123:\n      swap3\n      pop\n      pop\n        /* \"https://github.com/Arachnid/solidity-stringutils/blob/master/src/strings.sol\":16581:16866  for (idx = 0; idx <= selflen - needlelen; idx++) {... */\n      jump(tag_117)\n    tag_118:\n        /* \"https://github.com/Arachnid/solidity-stringutils/blob/master/src/strings.sol\":15679:16880  if (needlelen <= 32) {... */\n      pop\n        /* \"https://github.com/Arachnid/solidity-stringutils/blob/master/src/strings.sol\":15639:16890  if (needlelen <= selflen) {... */\n    tag_100:\n        /* \"https://github.com/Arachnid/solidity-stringutils/blob/master/src/strings.sol\":16916:16923  selflen */\n      dup7\n        /* \"https://github.com/Arachnid/solidity-stringutils/blob/master/src/strings.sol\":16906:16913  selfptr */\n      dup7\n        /* \"https://github.com/Arachnid/solidity-stringutils/blob/master/src/strings.sol\":16906:16923  selfptr + selflen */\n      tag_124\n      swap2\n      swap1\n      tag_80\n      jump\t// in\n    tag_124:\n        /* \"https://github.com/Arachnid/solidity-stringutils/blob/master/src/strings.sol\":16899:16923  return selfptr + selflen */\n      swap3\n      pop\n      pop\n      pop\n        /* \"https://github.com/Arachnid/solidity-stringutils/blob/master/src/strings.sol\":15477:16930  function findPtr(uint selflen, uint selfptr, uint needlelen, uint needleptr) private pure returns (uint) {... */\n    tag_99:\n      swap5\n      swap4\n      pop\n      pop\n      pop\n      pop\n      jump\t// out\n        /* \"https://github.com/Arachnid/solidity-stringutils/blob/master/src/strings.sol\":20233:20737  function split(slice memory self, slice memory needle, slice memory token) internal pure returns (slice memory) {... */\n    tag_93:\n        /* \"https://github.com/Arachnid/solidity-stringutils/blob/master/src/strings.sol\":20331:20343  slice memory */\n      tag_125\n      tag_74\n      jump\t// in\n    tag_125:\n        /* \"https://github.com/Arachnid/solidity-stringutils/blob/master/src/strings.sol\":20355:20363  uint ptr */\n      0x00\n        /* \"https://github.com/Arachnid/solidity-stringutils/blob/master/src/strings.sol\":20366:20421  findPtr(self._len, self._ptr, needle._len, needle._ptr) */\n      tag_127\n        /* \"https://github.com/Arachnid/solidity-stringutils/blob/master/src/strings.sol\":20374:20378  self */\n      dup6\n        /* \"https://github.com/Arachnid/solidity-stringutils/blob/master/src/strings.sol\":20374:20383  self._len */\n      0x00\n      add\n      mload\n        /* \"https://github.com/Arachnid/solidity-stringutils/blob/master/src/strings.sol\":20385:20389  self */\n      dup7\n        /* \"https://github.com/Arachnid/solidity-stringutils/blob/master/src/strings.sol\":20385:20394  self._ptr */\n      0x20\n      add\n      mload\n        /* \"https://github.com/Arachnid/solidity-stringutils/blob/master/src/strings.sol\":20396:20402  needle */\n      dup7\n        /* \"https://github.com/Arachnid/solidity-stringutils/blob/master/src/strings.sol\":20396:20407  needle._len */\n      0x00\n      add\n      mload\n        /* \"https://github.com/Arachnid/solidity-stringutils/blob/master/src/strings.sol\":20409:20415  needle */\n      dup8\n        /* \"https://github.com/Arachnid/solidity-stringutils/blob/master/src/strings.sol\":20409:20420  needle._ptr */\n      0x20\n      add\n      mload\n        /* \"https://github.com/Arachnid/solidity-stringutils/blob/master/src/strings.sol\":20366:20373  findPtr */\n      tag_78\n        /* \"https://github.com/Arachnid/solidity-stringutils/blob/master/src/strings.sol\":20366:20421  findPtr(self._len, self._ptr, needle._len, needle._ptr) */\n      jump\t// in\n    tag_127:\n        /* \"https://github.com/Arachnid/solidity-stringutils/blob/master/src/strings.sol\":20355:20421  uint ptr = findPtr(self._len, self._ptr, needle._len, needle._ptr) */\n      swap1\n      pop\n        /* \"https://github.com/Arachnid/solidity-stringutils/blob/master/src/strings.sol\":20444:20448  self */\n      dup5\n        /* \"https://github.com/Arachnid/solidity-stringutils/blob/master/src/strings.sol\":20444:20453  self._ptr */\n      0x20\n      add\n      mload\n        /* \"https://github.com/Arachnid/solidity-stringutils/blob/master/src/strings.sol\":20431:20436  token */\n      dup4\n        /* \"https://github.com/Arachnid/solidity-stringutils/blob/master/src/strings.sol\":20431:20441  token._ptr */\n      0x20\n      add\n        /* \"https://github.com/Arachnid/solidity-stringutils/blob/master/src/strings.sol\":20431:20453  token._ptr = self._ptr */\n      dup2\n      dup2\n      mstore\n      pop\n      pop\n        /* \"https://github.com/Arachnid/solidity-stringutils/blob/master/src/strings.sol\":20482:20486  self */\n      dup5\n        /* \"https://github.com/Arachnid/solidity-stringutils/blob/master/src/strings.sol\":20482:20491  self._ptr */\n      0x20\n      add\n      mload\n        /* \"https://github.com/Arachnid/solidity-stringutils/blob/master/src/strings.sol\":20476:20479  ptr */\n      dup2\n        /* \"https://github.com/Arachnid/solidity-stringutils/blob/master/src/strings.sol\":20476:20491  ptr - self._ptr */\n      tag_128\n      swap2\n      swap1\n      tag_87\n      jump\t// in\n    tag_128:\n        /* \"https://github.com/Arachnid/solidity-stringutils/blob/master/src/strings.sol\":20463:20468  token */\n      dup4\n        /* \"https://github.com/Arachnid/solidity-stringutils/blob/master/src/strings.sol\":20463:20473  token._len */\n      0x00\n      add\n        /* \"https://github.com/Arachnid/solidity-stringutils/blob/master/src/strings.sol\":20463:20491  token._len = ptr - self._ptr */\n      dup2\n      dup2\n      mstore\n      pop\n      pop\n        /* \"https://github.com/Arachnid/solidity-stringutils/blob/master/src/strings.sol\":20524:20528  self */\n      dup5\n        /* \"https://github.com/Arachnid/solidity-stringutils/blob/master/src/strings.sol\":20524:20533  self._len */\n      0x00\n      add\n      mload\n        /* \"https://github.com/Arachnid/solidity-stringutils/blob/master/src/strings.sol\":20512:20516  self */\n      dup6\n        /* \"https://github.com/Arachnid/solidity-stringutils/blob/master/src/strings.sol\":20512:20521  self._ptr */\n      0x20\n      add\n      mload\n        /* \"https://github.com/Arachnid/solidity-stringutils/blob/master/src/strings.sol\":20512:20533  self._ptr + self._len */\n      tag_129\n      swap2\n      swap1\n      tag_80\n      jump\t// in\n    tag_129:\n        /* \"https://github.com/Arachnid/solidity-stringutils/blob/master/src/strings.sol\":20505:20508  ptr */\n      dup2\n        /* \"https://github.com/Arachnid/solidity-stringutils/blob/master/src/strings.sol\":20505:20533  ptr == self._ptr + self._len */\n      eq\n        /* \"https://github.com/Arachnid/solidity-stringutils/blob/master/src/strings.sol\":20501:20709  if (ptr == self._ptr + self._len) {... */\n      iszero\n      tag_130\n      jumpi\n        /* \"https://github.com/Arachnid/solidity-stringutils/blob/master/src/strings.sol\":20586:20587  0 */\n      0x00\n        /* \"https://github.com/Arachnid/solidity-stringutils/blob/master/src/strings.sol\":20574:20578  self */\n      dup6\n        /* \"https://github.com/Arachnid/solidity-stringutils/blob/master/src/strings.sol\":20574:20583  self._len */\n      0x00\n      add\n        /* \"https://github.com/Arachnid/solidity-stringutils/blob/master/src/strings.sol\":20574:20587  self._len = 0 */\n      dup2\n      dup2\n      mstore\n      pop\n      pop\n        /* \"https://github.com/Arachnid/solidity-stringutils/blob/master/src/strings.sol\":20501:20709  if (ptr == self._ptr + self._len) {... */\n      jump(tag_131)\n    tag_130:\n        /* \"https://github.com/Arachnid/solidity-stringutils/blob/master/src/strings.sol\":20644:20650  needle */\n      dup4\n        /* \"https://github.com/Arachnid/solidity-stringutils/blob/master/src/strings.sol\":20644:20655  needle._len */\n      0x00\n      add\n      mload\n        /* \"https://github.com/Arachnid/solidity-stringutils/blob/master/src/strings.sol\":20631:20636  token */\n      dup4\n        /* \"https://github.com/Arachnid/solidity-stringutils/blob/master/src/strings.sol\":20631:20641  token._len */\n      0x00\n      add\n      mload\n        /* \"https://github.com/Arachnid/solidity-stringutils/blob/master/src/strings.sol\":20631:20655  token._len + needle._len */\n      tag_132\n      swap2\n      swap1\n      tag_80\n      jump\t// in\n    tag_132:\n        /* \"https://github.com/Arachnid/solidity-stringutils/blob/master/src/strings.sol\":20618:20622  self */\n      dup6\n        /* \"https://github.com/Arachnid/solidity-stringutils/blob/master/src/strings.sol\":20618:20627  self._len */\n      0x00\n      add\n        /* \"https://github.com/Arachnid/solidity-stringutils/blob/master/src/strings.sol\":20618:20655  self._len -= token._len + needle._len */\n      dup2\n      dup2\n      mload\n      tag_133\n      swap2\n      swap1\n      tag_87\n      jump\t// in\n    tag_133:\n      swap2\n      pop\n      dup2\n      dup2\n      mstore\n      pop\n      pop\n        /* \"https://github.com/Arachnid/solidity-stringutils/blob/master/src/strings.sol\":20687:20693  needle */\n      dup4\n        /* \"https://github.com/Arachnid/solidity-stringutils/blob/master/src/strings.sol\":20687:20698  needle._len */\n      0x00\n      add\n      mload\n        /* \"https://github.com/Arachnid/solidity-stringutils/blob/master/src/strings.sol\":20681:20684  ptr */\n      dup2\n        /* \"https://github.com/Arachnid/solidity-stringutils/blob/master/src/strings.sol\":20681:20698  ptr + needle._len */\n      tag_134\n      swap2\n      swap1\n      tag_80\n      jump\t// in\n    tag_134:\n        /* \"https://github.com/Arachnid/solidity-stringutils/blob/master/src/strings.sol\":20669:20673  self */\n      dup6\n        /* \"https://github.com/Arachnid/solidity-stringutils/blob/master/src/strings.sol\":20669:20678  self._ptr */\n      0x20\n      add\n        /* \"https://github.com/Arachnid/solidity-stringutils/blob/master/src/strings.sol\":20669:20698  self._ptr = ptr + needle._len */\n      dup2\n      dup2\n      mstore\n      pop\n      pop\n        /* \"https://github.com/Arachnid/solidity-stringutils/blob/master/src/strings.sol\":20501:20709  if (ptr == self._ptr + self._len) {... */\n    tag_131:\n        /* \"https://github.com/Arachnid/solidity-stringutils/blob/master/src/strings.sol\":20725:20730  token */\n      dup3\n        /* \"https://github.com/Arachnid/solidity-stringutils/blob/master/src/strings.sol\":20718:20730  return token */\n      swap2\n      pop\n      pop\n        /* \"https://github.com/Arachnid/solidity-stringutils/blob/master/src/strings.sol\":20233:20737  function split(slice memory self, slice memory needle, slice memory token) internal pure returns (slice memory) {... */\n      swap4\n      swap3\n      pop\n      pop\n      pop\n      jump\t// out\n        /* \"https://github.com/Arachnid/solidity-stringutils/blob/master/src/strings.sol\":2088:2704  function memcpy(uint dest, uint src, uint len) private pure {... */\n    tag_98:\n        /* \"https://github.com/Arachnid/solidity-stringutils/blob/master/src/strings.sol\":2208:2372  for(; len >= 32; len -= 32) {... */\n    tag_136:\n        /* \"https://github.com/Arachnid/solidity-stringutils/blob/master/src/strings.sol\":2221:2223  32 */\n      0x20\n        /* \"https://github.com/Arachnid/solidity-stringutils/blob/master/src/strings.sol\":2214:2217  len */\n      dup2\n        /* \"https://github.com/Arachnid/solidity-stringutils/blob/master/src/strings.sol\":2214:2223  len >= 32 */\n      lt\n        /* \"https://github.com/Arachnid/solidity-stringutils/blob/master/src/strings.sol\":2208:2372  for(; len >= 32; len -= 32) {... */\n      tag_137\n      jumpi\n        /* \"https://github.com/Arachnid/solidity-stringutils/blob/master/src/strings.sol\":2296:2299  src */\n      dup2\n        /* \"https://github.com/Arachnid/solidity-stringutils/blob/master/src/strings.sol\":2290:2300  mload(src) */\n      mload\n        /* \"https://github.com/Arachnid/solidity-stringutils/blob/master/src/strings.sol\":2284:2288  dest */\n      dup4\n        /* \"https://github.com/Arachnid/solidity-stringutils/blob/master/src/strings.sol\":2277:2301  mstore(dest, mload(src)) */\n      mstore\n        /* \"https://github.com/Arachnid/solidity-stringutils/blob/master/src/strings.sol\":2336:2338  32 */\n      0x20\n        /* \"https://github.com/Arachnid/solidity-stringutils/blob/master/src/strings.sol\":2328:2338  dest += 32 */\n      dup4\n      tag_139\n      swap2\n      swap1\n      tag_80\n      jump\t// in\n    tag_139:\n      swap3\n      pop\n        /* \"https://github.com/Arachnid/solidity-stringutils/blob/master/src/strings.sol\":2359:2361  32 */\n      0x20\n        /* \"https://github.com/Arachnid/solidity-stringutils/blob/master/src/strings.sol\":2352:2361  src += 32 */\n      dup3\n      tag_140\n      swap2\n      swap1\n      tag_80\n      jump\t// in\n    tag_140:\n      swap2\n      pop\n        /* \"https://github.com/Arachnid/solidity-stringutils/blob/master/src/strings.sol\":2232:2234  32 */\n      0x20\n        /* \"https://github.com/Arachnid/solidity-stringutils/blob/master/src/strings.sol\":2225:2234  len -= 32 */\n      dup2\n      tag_141\n      swap2\n      swap1\n      tag_87\n      jump\t// in\n    tag_141:\n      swap1\n      pop\n        /* \"https://github.com/Arachnid/solidity-stringutils/blob/master/src/strings.sol\":2208:2372  for(; len >= 32; len -= 32) {... */\n      jump(tag_136)\n    tag_137:\n        /* \"https://github.com/Arachnid/solidity-stringutils/blob/master/src/strings.sol\":2414:2423  uint mask */\n      0x00\n        /* \"https://github.com/Arachnid/solidity-stringutils/blob/master/src/strings.sol\":2426:2440  type(uint).max */\n      0xffffffffffffffffffffffffffffffffffffffffffffffffffffffffffffffff\n        /* \"https://github.com/Arachnid/solidity-stringutils/blob/master/src/strings.sol\":2414:2440  uint mask = type(uint).max */\n      swap1\n      pop\n        /* \"https://github.com/Arachnid/solidity-stringutils/blob/master/src/strings.sol\":2460:2461  0 */\n      0x00\n        /* \"https://github.com/Arachnid/solidity-stringutils/blob/master/src/strings.sol\":2454:2457  len */\n      dup3\n        /* \"https://github.com/Arachnid/solidity-stringutils/blob/master/src/strings.sol\":2454:2461  len > 0 */\n      gt\n        /* \"https://github.com/Arachnid/solidity-stringutils/blob/master/src/strings.sol\":2450:2516  if (len > 0) {... */\n      iszero\n      tag_142\n      jumpi\n        /* \"https://github.com/Arachnid/solidity-stringutils/blob/master/src/strings.sol\":2504:2505  1 */\n      0x01\n        /* \"https://github.com/Arachnid/solidity-stringutils/blob/master/src/strings.sol\":2497:2500  len */\n      dup3\n        /* \"https://github.com/Arachnid/solidity-stringutils/blob/master/src/strings.sol\":2492:2494  32 */\n      0x20\n        /* \"https://github.com/Arachnid/solidity-stringutils/blob/master/src/strings.sol\":2492:2500  32 - len */\n      tag_143\n      swap2\n      swap1\n      tag_87\n      jump\t// in\n    tag_143:\n        /* \"https://github.com/Arachnid/solidity-stringutils/blob/master/src/strings.sol\":2484:2487  256 */\n      0x0100\n        /* \"https://github.com/Arachnid/solidity-stringutils/blob/master/src/strings.sol\":2484:2501  256 ** (32 - len) */\n      tag_144\n      swap2\n      swap1\n      tag_107\n      jump\t// in\n    tag_144:\n        /* \"https://github.com/Arachnid/solidity-stringutils/blob/master/src/strings.sol\":2484:2505  256 ** (32 - len) - 1 */\n      tag_145\n      swap2\n      swap1\n      tag_87\n      jump\t// in\n    tag_145:\n        /* \"https://github.com/Arachnid/solidity-stringutils/blob/master/src/strings.sol\":2477:2505  mask = 256 ** (32 - len) - 1 */\n      swap1\n      pop\n        /* \"https://github.com/Arachnid/solidity-stringutils/blob/master/src/strings.sol\":2450:2516  if (len > 0) {... */\n    tag_142:\n        /* \"https://github.com/Arachnid/solidity-stringutils/blob/master/src/strings.sol\":2583:2587  mask */\n      dup1\n        /* \"https://github.com/Arachnid/solidity-stringutils/blob/master/src/strings.sol\":2579:2588  not(mask) */\n      not\n        /* \"https://github.com/Arachnid/solidity-stringutils/blob/master/src/strings.sol\":2573:2576  src */\n      dup4\n        /* \"https://github.com/Arachnid/solidity-stringutils/blob/master/src/strings.sol\":2567:2577  mload(src) */\n      mload\n        /* \"https://github.com/Arachnid/solidity-stringutils/blob/master/src/strings.sol\":2563:2589  and(mload(src), not(mask)) */\n      and\n        /* \"https://github.com/Arachnid/solidity-stringutils/blob/master/src/strings.sol\":2635:2639  mask */\n      dup2\n        /* \"https://github.com/Arachnid/solidity-stringutils/blob/master/src/strings.sol\":2628:2632  dest */\n      dup6\n        /* \"https://github.com/Arachnid/solidity-stringutils/blob/master/src/strings.sol\":2622:2633  mload(dest) */\n      mload\n        /* \"https://github.com/Arachnid/solidity-stringutils/blob/master/src/strings.sol\":2618:2640  and(mload(dest), mask) */\n      and\n        /* \"https://github.com/Arachnid/solidity-stringutils/blob/master/src/strings.sol\":2679:2686  srcpart */\n      dup2\n        /* \"https://github.com/Arachnid/solidity-stringutils/blob/master/src/strings.sol\":2669:2677  destpart */\n      dup2\n        /* \"https://github.com/Arachnid/solidity-stringutils/blob/master/src/strings.sol\":2666:2687  or(destpart, srcpart) */\n      or\n        /* \"https://github.com/Arachnid/solidity-stringutils/blob/master/src/strings.sol\":2660:2664  dest */\n      dup7\n        /* \"https://github.com/Arachnid/solidity-stringutils/blob/master/src/strings.sol\":2653:2688  mstore(dest, or(destpart, srcpart)) */\n      mstore\n        /* \"https://github.com/Arachnid/solidity-stringutils/blob/master/src/strings.sol\":2534:2698  {... */\n      pop\n      pop\n      pop\n      pop\n      pop\n      pop\n      jump\t// out\n    tag_57:\n      dup3\n      dup1\n      sload\n      tag_146\n      swap1\n      tag_63\n      jump\t// in\n    tag_146:\n      swap1\n      0x00\n      mstore\n      keccak256(0x00, 0x20)\n      swap1\n      0x1f\n      add\n      0x20\n      swap1\n      div\n      dup2\n      add\n      swap3\n      dup3\n      tag_148\n      jumpi\n      0x00\n      dup6\n      sstore\n      jump(tag_147)\n    tag_148:\n      dup3\n      0x1f\n      lt\n      tag_149\n      jumpi\n      dup1\n      mload\n      not(0xff)\n      and\n      dup4\n      dup1\n      add\n      or\n      dup6\n      sstore\n      jump(tag_147)\n    tag_149:\n      dup3\n      dup1\n      add\n      0x01\n      add\n      dup6\n      sstore\n      dup3\n      iszero\n      tag_147\n      jumpi\n      swap2\n      dup3\n      add\n    tag_150:\n      dup3\n      dup2\n      gt\n      iszero\n      tag_151\n      jumpi\n      dup3\n      mload\n      dup3\n      sstore\n      swap2\n      0x20\n      add\n      swap2\n      swap1\n      0x01\n      add\n      swap1\n      jump(tag_150)\n    tag_151:\n    tag_147:\n      pop\n      swap1\n      pop\n      tag_152\n      swap2\n      swap1\n      tag_153\n      jump\t// in\n    tag_152:\n      pop\n      swap1\n      jump\t// out\n    tag_71:\n      mload(0x40)\n      dup1\n      0x80\n      add\n      0x40\n      mstore\n      dup1\n      0x00\n      dup2\n      mstore\n      0x20\n      add\n      0x00\n      dup2\n      mstore\n      0x20\n      add\n      and(0xffffffffffffffffffffffffffffffffffffffff, 0x00)\n      dup2\n      mstore\n      0x20\n      add\n      0x00\n      dup2\n      mstore\n      pop\n      swap1\n      jump\t// out\n    tag_74:\n      mload(0x40)\n      dup1\n      0x40\n      add\n      0x40\n      mstore\n      dup1\n      0x00\n      dup2\n      mstore\n      0x20\n      add\n      0x00\n      dup2\n      mstore\n      pop\n      swap1\n      jump\t// out\n    tag_153:\n    tag_154:\n      dup1\n      dup3\n      gt\n      iszero\n      tag_155\n      jumpi\n      0x00\n      dup2\n      0x00\n      swap1\n      sstore\n      pop\n      0x01\n      add\n      jump(tag_154)\n    tag_155:\n      pop\n      swap1\n      jump\t// out\n        /* \"#utility.yul\":7:351   */\n    tag_157:\n      0x00\n        /* \"#utility.yul\":110:175   */\n      tag_159\n        /* \"#utility.yul\":125:174   */\n      tag_160\n        /* \"#utility.yul\":167:173   */\n      dup5\n        /* \"#utility.yul\":125:174   */\n      tag_161\n      jump\t// in\n    tag_160:\n        /* \"#utility.yul\":110:175   */\n      tag_162\n      jump\t// in\n    tag_159:\n        /* \"#utility.yul\":101:175   */\n      swap1\n      pop\n        /* \"#utility.yul\":198:204   */\n      dup3\n        /* \"#utility.yul\":191:196   */\n      dup2\n        /* \"#utility.yul\":184:205   */\n      mstore\n        /* \"#utility.yul\":236:240   */\n      0x20\n        /* \"#utility.yul\":229:234   */\n      dup2\n        /* \"#utility.yul\":225:241   */\n      add\n        /* \"#utility.yul\":274:277   */\n      dup5\n        /* \"#utility.yul\":265:271   */\n      dup5\n        /* \"#utility.yul\":260:263   */\n      dup5\n        /* \"#utility.yul\":256:272   */\n      add\n        /* \"#utility.yul\":253:278   */\n      gt\n        /* \"#utility.yul\":250:252   */\n      iszero\n      tag_163\n      jumpi\n        /* \"#utility.yul\":291:292   */\n      0x00\n        /* \"#utility.yul\":288:289   */\n      dup1\n        /* \"#utility.yul\":281:293   */\n      revert\n        /* \"#utility.yul\":250:252   */\n    tag_163:\n        /* \"#utility.yul\":304:345   */\n      tag_164\n        /* \"#utility.yul\":338:344   */\n      dup5\n        /* \"#utility.yul\":333:336   */\n      dup3\n        /* \"#utility.yul\":328:331   */\n      dup6\n        /* \"#utility.yul\":304:345   */\n      tag_165\n      jump\t// in\n    tag_164:\n        /* \"#utility.yul\":91:351   */\n      pop\n      swap4\n      swap3\n      pop\n      pop\n      pop\n      jump\t// out\n        /* \"#utility.yul\":357:496   */\n    tag_166:\n      0x00\n        /* \"#utility.yul\":441:447   */\n      dup2\n        /* \"#utility.yul\":428:448   */\n      calldataload\n        /* \"#utility.yul\":419:448   */\n      swap1\n      pop\n        /* \"#utility.yul\":457:490   */\n      tag_168\n        /* \"#utility.yul\":484:489   */\n      dup2\n        /* \"#utility.yul\":457:490   */\n      tag_169\n      jump\t// in\n    tag_168:\n        /* \"#utility.yul\":409:496   */\n      swap3\n      swap2\n      pop\n      pop\n      jump\t// out\n        /* \"#utility.yul\":516:789   */\n    tag_170:\n      0x00\n        /* \"#utility.yul\":621:624   */\n      dup3\n        /* \"#utility.yul\":614:618   */\n      0x1f\n        /* \"#utility.yul\":606:612   */\n      dup4\n        /* \"#utility.yul\":602:619   */\n      add\n        /* \"#utility.yul\":598:625   */\n      slt\n        /* \"#utility.yul\":588:590   */\n      tag_172\n      jumpi\n        /* \"#utility.yul\":639:640   */\n      0x00\n        /* \"#utility.yul\":636:637   */\n      dup1\n        /* \"#utility.yul\":629:641   */\n      revert\n        /* \"#utility.yul\":588:590   */\n    tag_172:\n        /* \"#utility.yul\":679:685   */\n      dup2\n        /* \"#utility.yul\":666:686   */\n      calldataload\n        /* \"#utility.yul\":704:783   */\n      tag_173\n        /* \"#utility.yul\":779:782   */\n      dup5\n        /* \"#utility.yul\":771:777   */\n      dup3\n        /* \"#utility.yul\":764:768   */\n      0x20\n        /* \"#utility.yul\":756:762   */\n      dup7\n        /* \"#utility.yul\":752:769   */\n      add\n        /* \"#utility.yul\":704:783   */\n      tag_157\n      jump\t// in\n    tag_173:\n        /* \"#utility.yul\":695:783   */\n      swap2\n      pop\n        /* \"#utility.yul\":578:789   */\n      pop\n      swap3\n      swap2\n      pop\n      pop\n      jump\t// out\n        /* \"#utility.yul\":795:934   */\n    tag_174:\n      0x00\n        /* \"#utility.yul\":879:885   */\n      dup2\n        /* \"#utility.yul\":866:886   */\n      calldataload\n        /* \"#utility.yul\":857:886   */\n      swap1\n      pop\n        /* \"#utility.yul\":895:928   */\n      tag_176\n        /* \"#utility.yul\":922:927   */\n      dup2\n        /* \"#utility.yul\":895:928   */\n      tag_177\n      jump\t// in\n    tag_176:\n        /* \"#utility.yul\":847:934   */\n      swap3\n      swap2\n      pop\n      pop\n      jump\t// out\n        /* \"#utility.yul\":940:1315   */\n    tag_17:\n      0x00\n        /* \"#utility.yul\":1058:1060   */\n      0x20\n        /* \"#utility.yul\":1046:1055   */\n      dup3\n        /* \"#utility.yul\":1037:1044   */\n      dup5\n        /* \"#utility.yul\":1033:1056   */\n      sub\n        /* \"#utility.yul\":1029:1061   */\n      slt\n        /* \"#utility.yul\":1026:1028   */\n      iszero\n      tag_179\n      jumpi\n        /* \"#utility.yul\":1074:1075   */\n      0x00\n        /* \"#utility.yul\":1071:1072   */\n      dup1\n        /* \"#utility.yul\":1064:1076   */\n      revert\n        /* \"#utility.yul\":1026:1028   */\n    tag_179:\n        /* \"#utility.yul\":1145:1146   */\n      0x00\n        /* \"#utility.yul\":1134:1143   */\n      dup3\n        /* \"#utility.yul\":1130:1147   */\n      add\n        /* \"#utility.yul\":1117:1148   */\n      calldataload\n        /* \"#utility.yul\":1175:1193   */\n      0xffffffffffffffff\n        /* \"#utility.yul\":1167:1173   */\n      dup2\n        /* \"#utility.yul\":1164:1194   */\n      gt\n        /* \"#utility.yul\":1161:1163   */\n      iszero\n      tag_180\n      jumpi\n        /* \"#utility.yul\":1207:1208   */\n      0x00\n        /* \"#utility.yul\":1204:1205   */\n      dup1\n        /* \"#utility.yul\":1197:1209   */\n      revert\n        /* \"#utility.yul\":1161:1163   */\n    tag_180:\n        /* \"#utility.yul\":1235:1298   */\n      tag_181\n        /* \"#utility.yul\":1290:1297   */\n      dup5\n        /* \"#utility.yul\":1281:1287   */\n      dup3\n        /* \"#utility.yul\":1270:1279   */\n      dup6\n        /* \"#utility.yul\":1266:1288   */\n      add\n        /* \"#utility.yul\":1235:1298   */\n      tag_170\n      jump\t// in\n    tag_181:\n        /* \"#utility.yul\":1225:1298   */\n      swap2\n      pop\n        /* \"#utility.yul\":1088:1308   */\n      pop\n        /* \"#utility.yul\":1016:1315   */\n      swap3\n      swap2\n      pop\n      pop\n      jump\t// out\n        /* \"#utility.yul\":1321:1583   */\n    tag_11:\n      0x00\n        /* \"#utility.yul\":1429:1431   */\n      0x20\n        /* \"#utility.yul\":1417:1426   */\n      dup3\n        /* \"#utility.yul\":1408:1415   */\n      dup5\n        /* \"#utility.yul\":1404:1427   */\n      sub\n        /* \"#utility.yul\":1400:1432   */\n      slt\n        /* \"#utility.yul\":1397:1399   */\n      iszero\n      tag_183\n      jumpi\n        /* \"#utility.yul\":1445:1446   */\n      0x00\n        /* \"#utility.yul\":1442:1443   */\n      dup1\n        /* \"#utility.yul\":1435:1447   */\n      revert\n        /* \"#utility.yul\":1397:1399   */\n    tag_183:\n        /* \"#utility.yul\":1488:1489   */\n      0x00\n        /* \"#utility.yul\":1513:1566   */\n      tag_184\n        /* \"#utility.yul\":1558:1565   */\n      dup5\n        /* \"#utility.yul\":1549:1555   */\n      dup3\n        /* \"#utility.yul\":1538:1547   */\n      dup6\n        /* \"#utility.yul\":1534:1556   */\n      add\n        /* \"#utility.yul\":1513:1566   */\n      tag_174\n      jump\t// in\n    tag_184:\n        /* \"#utility.yul\":1503:1566   */\n      swap2\n      pop\n        /* \"#utility.yul\":1459:1576   */\n      pop\n        /* \"#utility.yul\":1387:1583   */\n      swap3\n      swap2\n      pop\n      pop\n      jump\t// out\n        /* \"#utility.yul\":1589:2287   */\n    tag_26:\n      0x00\n      dup1\n      0x00\n      dup1\n        /* \"#utility.yul\":1748:1751   */\n      0x80\n        /* \"#utility.yul\":1736:1745   */\n      dup6\n        /* \"#utility.yul\":1727:1734   */\n      dup8\n        /* \"#utility.yul\":1723:1746   */\n      sub\n        /* \"#utility.yul\":1719:1752   */\n      slt\n        /* \"#utility.yul\":1716:1718   */\n      iszero\n      tag_186\n      jumpi\n        /* \"#utility.yul\":1765:1766   */\n      0x00\n        /* \"#utility.yul\":1762:1763   */\n      dup1\n        /* \"#utility.yul\":1755:1767   */\n      revert\n        /* \"#utility.yul\":1716:1718   */\n    tag_186:\n        /* \"#utility.yul\":1808:1809   */\n      0x00\n        /* \"#utility.yul\":1833:1886   */\n      tag_187\n        /* \"#utility.yul\":1878:1885   */\n      dup8\n        /* \"#utility.yul\":1869:1875   */\n      dup3\n        /* \"#utility.yul\":1858:1867   */\n      dup9\n        /* \"#utility.yul\":1854:1876   */\n      add\n        /* \"#utility.yul\":1833:1886   */\n      tag_174\n      jump\t// in\n    tag_187:\n        /* \"#utility.yul\":1823:1886   */\n      swap5\n      pop\n        /* \"#utility.yul\":1779:1896   */\n      pop\n        /* \"#utility.yul\":1935:1937   */\n      0x20\n        /* \"#utility.yul\":1961:2014   */\n      tag_188\n        /* \"#utility.yul\":2006:2013   */\n      dup8\n        /* \"#utility.yul\":1997:2003   */\n      dup3\n        /* \"#utility.yul\":1986:1995   */\n      dup9\n        /* \"#utility.yul\":1982:2004   */\n      add\n        /* \"#utility.yul\":1961:2014   */\n      tag_174\n      jump\t// in\n    tag_188:\n        /* \"#utility.yul\":1951:2014   */\n      swap4\n      pop\n        /* \"#utility.yul\":1906:2024   */\n      pop\n        /* \"#utility.yul\":2063:2065   */\n      0x40\n        /* \"#utility.yul\":2089:2142   */\n      tag_189\n        /* \"#utility.yul\":2134:2141   */\n      dup8\n        /* \"#utility.yul\":2125:2131   */\n      dup3\n        /* \"#utility.yul\":2114:2123   */\n      dup9\n        /* \"#utility.yul\":2110:2132   */\n      add\n        /* \"#utility.yul\":2089:2142   */\n      tag_166\n      jump\t// in\n    tag_189:\n        /* \"#utility.yul\":2079:2142   */\n      swap3\n      pop\n        /* \"#utility.yul\":2034:2152   */\n      pop\n        /* \"#utility.yul\":2191:2193   */\n      0x60\n        /* \"#utility.yul\":2217:2270   */\n      tag_190\n        /* \"#utility.yul\":2262:2269   */\n      dup8\n        /* \"#utility.yul\":2253:2259   */\n      dup3\n        /* \"#utility.yul\":2242:2251   */\n      dup9\n        /* \"#utility.yul\":2238:2260   */\n      add\n        /* \"#utility.yul\":2217:2270   */\n      tag_174\n      jump\t// in\n    tag_190:\n        /* \"#utility.yul\":2207:2270   */\n      swap2\n      pop\n        /* \"#utility.yul\":2162:2280   */\n      pop\n        /* \"#utility.yul\":1706:2287   */\n      swap3\n      swap6\n      swap2\n      swap5\n      pop\n      swap3\n      pop\n      jump\t// out\n        /* \"#utility.yul\":2293:2401   */\n    tag_191:\n        /* \"#utility.yul\":2370:2394   */\n      tag_193\n        /* \"#utility.yul\":2388:2393   */\n      dup2\n        /* \"#utility.yul\":2370:2394   */\n      tag_194\n      jump\t// in\n    tag_193:\n        /* \"#utility.yul\":2365:2368   */\n      dup3\n        /* \"#utility.yul\":2358:2395   */\n      mstore\n        /* \"#utility.yul\":2348:2401   */\n      pop\n      pop\n      jump\t// out\n        /* \"#utility.yul\":2407:2525   */\n    tag_195:\n        /* \"#utility.yul\":2494:2518   */\n      tag_197\n        /* \"#utility.yul\":2512:2517   */\n      dup2\n        /* \"#utility.yul\":2494:2518   */\n      tag_194\n      jump\t// in\n    tag_197:\n        /* \"#utility.yul\":2489:2492   */\n      dup3\n        /* \"#utility.yul\":2482:2519   */\n      mstore\n        /* \"#utility.yul\":2472:2525   */\n      pop\n      pop\n      jump\t// out\n        /* \"#utility.yul\":2531:2895   */\n    tag_198:\n      0x00\n        /* \"#utility.yul\":2647:2686   */\n      tag_200\n        /* \"#utility.yul\":2680:2685   */\n      dup3\n        /* \"#utility.yul\":2647:2686   */\n      tag_201\n      jump\t// in\n    tag_200:\n        /* \"#utility.yul\":2702:2773   */\n      tag_202\n        /* \"#utility.yul\":2766:2772   */\n      dup2\n        /* \"#utility.yul\":2761:2764   */\n      dup6\n        /* \"#utility.yul\":2702:2773   */\n      tag_203\n      jump\t// in\n    tag_202:\n        /* \"#utility.yul\":2695:2773   */\n      swap4\n      pop\n        /* \"#utility.yul\":2782:2834   */\n      tag_204\n        /* \"#utility.yul\":2827:2833   */\n      dup2\n        /* \"#utility.yul\":2822:2825   */\n      dup6\n        /* \"#utility.yul\":2815:2819   */\n      0x20\n        /* \"#utility.yul\":2808:2813   */\n      dup7\n        /* \"#utility.yul\":2804:2820   */\n      add\n        /* \"#utility.yul\":2782:2834   */\n      tag_205\n      jump\t// in\n    tag_204:\n        /* \"#utility.yul\":2859:2888   */\n      tag_206\n        /* \"#utility.yul\":2881:2887   */\n      dup2\n        /* \"#utility.yul\":2859:2888   */\n      tag_207\n      jump\t// in\n    tag_206:\n        /* \"#utility.yul\":2854:2857   */\n      dup5\n        /* \"#utility.yul\":2850:2889   */\n      add\n        /* \"#utility.yul\":2843:2889   */\n      swap2\n      pop\n        /* \"#utility.yul\":2623:2895   */\n      pop\n      swap3\n      swap2\n      pop\n      pop\n      jump\t// out\n        /* \"#utility.yul\":2969:3865   */\n    tag_208:\n        /* \"#utility.yul\":3114:3118   */\n      0x80\n        /* \"#utility.yul\":3109:3112   */\n      dup3\n        /* \"#utility.yul\":3105:3119   */\n      add\n        /* \"#utility.yul\":3207:3211   */\n      0x00\n        /* \"#utility.yul\":3200:3205   */\n      dup3\n        /* \"#utility.yul\":3196:3212   */\n      add\n        /* \"#utility.yul\":3190:3213   */\n      mload\n        /* \"#utility.yul\":3226:3289   */\n      tag_210\n        /* \"#utility.yul\":3283:3287   */\n      0x00\n        /* \"#utility.yul\":3278:3281   */\n      dup6\n        /* \"#utility.yul\":3274:3288   */\n      add\n        /* \"#utility.yul\":3260:3272   */\n      dup3\n        /* \"#utility.yul\":3226:3289   */\n      tag_211\n      jump\t// in\n    tag_210:\n        /* \"#utility.yul\":3129:3299   */\n      pop\n        /* \"#utility.yul\":3391:3395   */\n      0x20\n        /* \"#utility.yul\":3384:3389   */\n      dup3\n        /* \"#utility.yul\":3380:3396   */\n      add\n        /* \"#utility.yul\":3374:3397   */\n      mload\n        /* \"#utility.yul\":3410:3473   */\n      tag_212\n        /* \"#utility.yul\":3467:3471   */\n      0x20\n        /* \"#utility.yul\":3462:3465   */\n      dup6\n        /* \"#utility.yul\":3458:3472   */\n      add\n        /* \"#utility.yul\":3444:3456   */\n      dup3\n        /* \"#utility.yul\":3410:3473   */\n      tag_211\n      jump\t// in\n    tag_212:\n        /* \"#utility.yul\":3309:3483   */\n      pop\n        /* \"#utility.yul\":3576:3580   */\n      0x40\n        /* \"#utility.yul\":3569:3574   */\n      dup3\n        /* \"#utility.yul\":3565:3581   */\n      add\n        /* \"#utility.yul\":3559:3582   */\n      mload\n        /* \"#utility.yul\":3595:3658   */\n      tag_213\n        /* \"#utility.yul\":3652:3656   */\n      0x40\n        /* \"#utility.yul\":3647:3650   */\n      dup6\n        /* \"#utility.yul\":3643:3657   */\n      add\n        /* \"#utility.yul\":3629:3641   */\n      dup3\n        /* \"#utility.yul\":3595:3658   */\n      tag_191\n      jump\t// in\n    tag_213:\n        /* \"#utility.yul\":3493:3668   */\n      pop\n        /* \"#utility.yul\":3766:3770   */\n      0x60\n        /* \"#utility.yul\":3759:3764   */\n      dup3\n        /* \"#utility.yul\":3755:3771   */\n      add\n        /* \"#utility.yul\":3749:3772   */\n      mload\n        /* \"#utility.yul\":3785:3848   */\n      tag_214\n        /* \"#utility.yul\":3842:3846   */\n      0x60\n        /* \"#utility.yul\":3837:3840   */\n      dup6\n        /* \"#utility.yul\":3833:3847   */\n      add\n        /* \"#utility.yul\":3819:3831   */\n      dup3\n        /* \"#utility.yul\":3785:3848   */\n      tag_211\n      jump\t// in\n    tag_214:\n        /* \"#utility.yul\":3678:3858   */\n      pop\n        /* \"#utility.yul\":3083:3865   */\n      pop\n      pop\n      pop\n      jump\t// out\n        /* \"#utility.yul\":3871:3979   */\n    tag_211:\n        /* \"#utility.yul\":3948:3972   */\n      tag_216\n        /* \"#utility.yul\":3966:3971   */\n      dup2\n        /* \"#utility.yul\":3948:3972   */\n      tag_217\n      jump\t// in\n    tag_216:\n        /* \"#utility.yul\":3943:3946   */\n      dup3\n        /* \"#utility.yul\":3936:3973   */\n      mstore\n        /* \"#utility.yul\":3926:3979   */\n      pop\n      pop\n      jump\t// out\n        /* \"#utility.yul\":3985:4103   */\n    tag_218:\n        /* \"#utility.yul\":4072:4096   */\n      tag_220\n        /* \"#utility.yul\":4090:4095   */\n      dup2\n        /* \"#utility.yul\":4072:4096   */\n      tag_217\n      jump\t// in\n    tag_220:\n        /* \"#utility.yul\":4067:4070   */\n      dup3\n        /* \"#utility.yul\":4060:4097   */\n      mstore\n        /* \"#utility.yul\":4050:4103   */\n      pop\n      pop\n      jump\t// out\n        /* \"#utility.yul\":4109:4422   */\n    tag_23:\n      0x00\n        /* \"#utility.yul\":4260:4262   */\n      0x20\n        /* \"#utility.yul\":4249:4258   */\n      dup3\n        /* \"#utility.yul\":4245:4263   */\n      add\n        /* \"#utility.yul\":4237:4263   */\n      swap1\n      pop\n        /* \"#utility.yul\":4309:4318   */\n      dup2\n        /* \"#utility.yul\":4303:4307   */\n      dup2\n        /* \"#utility.yul\":4299:4319   */\n      sub\n        /* \"#utility.yul\":4295:4296   */\n      0x00\n        /* \"#utility.yul\":4284:4293   */\n      dup4\n        /* \"#utility.yul\":4280:4297   */\n      add\n        /* \"#utility.yul\":4273:4320   */\n      mstore\n        /* \"#utility.yul\":4337:4415   */\n      tag_222\n        /* \"#utility.yul\":4410:4414   */\n      dup2\n        /* \"#utility.yul\":4401:4407   */\n      dup5\n        /* \"#utility.yul\":4337:4415   */\n      tag_198\n      jump\t// in\n    tag_222:\n        /* \"#utility.yul\":4329:4415   */\n      swap1\n      pop\n        /* \"#utility.yul\":4227:4422   */\n      swap3\n      swap2\n      pop\n      pop\n      jump\t// out\n        /* \"#utility.yul\":4428:4747   */\n    tag_36:\n      0x00\n        /* \"#utility.yul\":4607:4610   */\n      0x80\n        /* \"#utility.yul\":4596:4605   */\n      dup3\n        /* \"#utility.yul\":4592:4611   */\n      add\n        /* \"#utility.yul\":4584:4611   */\n      swap1\n      pop\n        /* \"#utility.yul\":4621:4740   */\n      tag_224\n        /* \"#utility.yul\":4737:4738   */\n      0x00\n        /* \"#utility.yul\":4726:4735   */\n      dup4\n        /* \"#utility.yul\":4722:4739   */\n      add\n        /* \"#utility.yul\":4713:4719   */\n      dup5\n        /* \"#utility.yul\":4621:4740   */\n      tag_208\n      jump\t// in\n    tag_224:\n        /* \"#utility.yul\":4574:4747   */\n      swap3\n      swap2\n      pop\n      pop\n      jump\t// out\n        /* \"#utility.yul\":4753:4975   */\n    tag_31:\n      0x00\n        /* \"#utility.yul\":4884:4886   */\n      0x20\n        /* \"#utility.yul\":4873:4882   */\n      dup3\n        /* \"#utility.yul\":4869:4887   */\n      add\n        /* \"#utility.yul\":4861:4887   */\n      swap1\n      pop\n        /* \"#utility.yul\":4897:4968   */\n      tag_226\n        /* \"#utility.yul\":4965:4966   */\n      0x00\n        /* \"#utility.yul\":4954:4963   */\n      dup4\n        /* \"#utility.yul\":4950:4967   */\n      add\n        /* \"#utility.yul\":4941:4947   */\n      dup5\n        /* \"#utility.yul\":4897:4968   */\n      tag_218\n      jump\t// in\n    tag_226:\n        /* \"#utility.yul\":4851:4975   */\n      swap3\n      swap2\n      pop\n      pop\n      jump\t// out\n        /* \"#utility.yul\":4981:5534   */\n    tag_14:\n      0x00\n        /* \"#utility.yul\":5196:5199   */\n      0x80\n        /* \"#utility.yul\":5185:5194   */\n      dup3\n        /* \"#utility.yul\":5181:5200   */\n      add\n        /* \"#utility.yul\":5173:5200   */\n      swap1\n      pop\n        /* \"#utility.yul\":5210:5281   */\n      tag_228\n        /* \"#utility.yul\":5278:5279   */\n      0x00\n        /* \"#utility.yul\":5267:5276   */\n      dup4\n        /* \"#utility.yul\":5263:5280   */\n      add\n        /* \"#utility.yul\":5254:5260   */\n      dup8\n        /* \"#utility.yul\":5210:5281   */\n      tag_218\n      jump\t// in\n    tag_228:\n        /* \"#utility.yul\":5291:5363   */\n      tag_229\n        /* \"#utility.yul\":5359:5361   */\n      0x20\n        /* \"#utility.yul\":5348:5357   */\n      dup4\n        /* \"#utility.yul\":5344:5362   */\n      add\n        /* \"#utility.yul\":5335:5341   */\n      dup7\n        /* \"#utility.yul\":5291:5363   */\n      tag_218\n      jump\t// in\n    tag_229:\n        /* \"#utility.yul\":5373:5445   */\n      tag_230\n        /* \"#utility.yul\":5441:5443   */\n      0x40\n        /* \"#utility.yul\":5430:5439   */\n      dup4\n        /* \"#utility.yul\":5426:5444   */\n      add\n        /* \"#utility.yul\":5417:5423   */\n      dup6\n        /* \"#utility.yul\":5373:5445   */\n      tag_195\n      jump\t// in\n    tag_230:\n        /* \"#utility.yul\":5455:5527   */\n      tag_231\n        /* \"#utility.yul\":5523:5525   */\n      0x60\n        /* \"#utility.yul\":5512:5521   */\n      dup4\n        /* \"#utility.yul\":5508:5526   */\n      add\n        /* \"#utility.yul\":5499:5505   */\n      dup5\n        /* \"#utility.yul\":5455:5527   */\n      tag_218\n      jump\t// in\n    tag_231:\n        /* \"#utility.yul\":5163:5534   */\n      swap6\n      swap5\n      pop\n      pop\n      pop\n      pop\n      pop\n      jump\t// out\n        /* \"#utility.yul\":5540:5823   */\n    tag_162:\n      0x00\n        /* \"#utility.yul\":5606:5608   */\n      0x40\n        /* \"#utility.yul\":5600:5609   */\n      mload\n        /* \"#utility.yul\":5590:5609   */\n      swap1\n      pop\n        /* \"#utility.yul\":5648:5652   */\n      dup2\n        /* \"#utility.yul\":5640:5646   */\n      dup2\n        /* \"#utility.yul\":5636:5653   */\n      add\n        /* \"#utility.yul\":5755:5761   */\n      dup2\n        /* \"#utility.yul\":5743:5753   */\n      dup2\n        /* \"#utility.yul\":5740:5762   */\n      lt\n        /* \"#utility.yul\":5719:5737   */\n      0xffffffffffffffff\n        /* \"#utility.yul\":5707:5717   */\n      dup3\n        /* \"#utility.yul\":5704:5738   */\n      gt\n        /* \"#utility.yul\":5701:5763   */\n      or\n        /* \"#utility.yul\":5698:5700   */\n      iszero\n      tag_233\n      jumpi\n        /* \"#utility.yul\":5766:5784   */\n      tag_234\n      tag_235\n      jump\t// in\n    tag_234:\n        /* \"#utility.yul\":5698:5700   */\n    tag_233:\n        /* \"#utility.yul\":5806:5816   */\n      dup1\n        /* \"#utility.yul\":5802:5804   */\n      0x40\n        /* \"#utility.yul\":5795:5817   */\n      mstore\n        /* \"#utility.yul\":5580:5823   */\n      pop\n      swap2\n      swap1\n      pop\n      jump\t// out\n        /* \"#utility.yul\":5829:6161   */\n    tag_161:\n      0x00\n        /* \"#utility.yul\":5981:5999   */\n      0xffffffffffffffff\n        /* \"#utility.yul\":5973:5979   */\n      dup3\n        /* \"#utility.yul\":5970:6000   */\n      gt\n        /* \"#utility.yul\":5967:5969   */\n      iszero\n      tag_237\n      jumpi\n        /* \"#utility.yul\":6003:6021   */\n      tag_238\n      tag_235\n      jump\t// in\n    tag_238:\n        /* \"#utility.yul\":5967:5969   */\n    tag_237:\n        /* \"#utility.yul\":6088:6092   */\n      0x1f\n        /* \"#utility.yul\":6084:6093   */\n      not\n        /* \"#utility.yul\":6077:6081   */\n      0x1f\n        /* \"#utility.yul\":6069:6075   */\n      dup4\n        /* \"#utility.yul\":6065:6082   */\n      add\n        /* \"#utility.yul\":6061:6094   */\n      and\n        /* \"#utility.yul\":6053:6094   */\n      swap1\n      pop\n        /* \"#utility.yul\":6149:6153   */\n      0x20\n        /* \"#utility.yul\":6143:6147   */\n      dup2\n        /* \"#utility.yul\":6139:6154   */\n      add\n        /* \"#utility.yul\":6131:6154   */\n      swap1\n      pop\n        /* \"#utility.yul\":5896:6161   */\n      swap2\n      swap1\n      pop\n      jump\t// out\n        /* \"#utility.yul\":6167:6266   */\n    tag_201:\n      0x00\n        /* \"#utility.yul\":6253:6258   */\n      dup2\n        /* \"#utility.yul\":6247:6259   */\n      mload\n        /* \"#utility.yul\":6237:6259   */\n      swap1\n      pop\n        /* \"#utility.yul\":6226:6266   */\n      swap2\n      swap1\n      pop\n      jump\t// out\n        /* \"#utility.yul\":6272:6441   */\n    tag_203:\n      0x00\n        /* \"#utility.yul\":6390:6396   */\n      dup3\n        /* \"#utility.yul\":6385:6388   */\n      dup3\n        /* \"#utility.yul\":6378:6397   */\n      mstore\n        /* \"#utility.yul\":6430:6434   */\n      0x20\n        /* \"#utility.yul\":6425:6428   */\n      dup3\n        /* \"#utility.yul\":6421:6435   */\n      add\n        /* \"#utility.yul\":6406:6435   */\n      swap1\n      pop\n        /* \"#utility.yul\":6368:6441   */\n      swap3\n      swap2\n      pop\n      pop\n      jump\t// out\n        /* \"#utility.yul\":6447:6752   */\n    tag_80:\n      0x00\n        /* \"#utility.yul\":6506:6526   */\n      tag_242\n        /* \"#utility.yul\":6524:6525   */\n      dup3\n        /* \"#utility.yul\":6506:6526   */\n      tag_217\n      jump\t// in\n    tag_242:\n        /* \"#utility.yul\":6501:6526   */\n      swap2\n      pop\n        /* \"#utility.yul\":6540:6560   */\n      tag_243\n        /* \"#utility.yul\":6558:6559   */\n      dup4\n        /* \"#utility.yul\":6540:6560   */\n      tag_217\n      jump\t// in\n    tag_243:\n        /* \"#utility.yul\":6535:6560   */\n      swap3\n      pop\n        /* \"#utility.yul\":6694:6695   */\n      dup3\n        /* \"#utility.yul\":6626:6692   */\n      0xffffffffffffffffffffffffffffffffffffffffffffffffffffffffffffffff\n        /* \"#utility.yul\":6622:6696   */\n      sub\n        /* \"#utility.yul\":6619:6620   */\n      dup3\n        /* \"#utility.yul\":6616:6697   */\n      gt\n        /* \"#utility.yul\":6613:6615   */\n      iszero\n      tag_244\n      jumpi\n        /* \"#utility.yul\":6700:6718   */\n      tag_245\n      tag_246\n      jump\t// in\n    tag_245:\n        /* \"#utility.yul\":6613:6615   */\n    tag_244:\n        /* \"#utility.yul\":6744:6745   */\n      dup3\n        /* \"#utility.yul\":6741:6742   */\n      dup3\n        /* \"#utility.yul\":6737:6746   */\n      add\n        /* \"#utility.yul\":6730:6746   */\n      swap1\n      pop\n        /* \"#utility.yul\":6491:6752   */\n      swap3\n      swap2\n      pop\n      pop\n      jump\t// out\n        /* \"#utility.yul\":6758:7606   */\n    tag_247:\n      0x00\n      dup1\n        /* \"#utility.yul\":6850:6856   */\n      dup3\n        /* \"#utility.yul\":6841:6856   */\n      swap2\n      pop\n        /* \"#utility.yul\":6874:6879   */\n      dup4\n        /* \"#utility.yul\":6865:6879   */\n      swap1\n      pop\n        /* \"#utility.yul\":6888:7600   */\n    tag_249:\n        /* \"#utility.yul\":6909:6910   */\n      0x01\n        /* \"#utility.yul\":6899:6907   */\n      dup6\n        /* \"#utility.yul\":6896:6911   */\n      gt\n        /* \"#utility.yul\":6888:7600   */\n      iszero\n      tag_251\n      jumpi\n        /* \"#utility.yul\":7004:7008   */\n      dup1\n        /* \"#utility.yul\":6999:7002   */\n      dup7\n        /* \"#utility.yul\":6995:7009   */\n      div\n        /* \"#utility.yul\":6989:6993   */\n      dup2\n        /* \"#utility.yul\":6986:7010   */\n      gt\n        /* \"#utility.yul\":6983:6985   */\n      iszero\n      tag_252\n      jumpi\n        /* \"#utility.yul\":7013:7031   */\n      tag_253\n      tag_246\n      jump\t// in\n    tag_253:\n        /* \"#utility.yul\":6983:6985   */\n    tag_252:\n        /* \"#utility.yul\":7063:7064   */\n      0x01\n        /* \"#utility.yul\":7053:7061   */\n      dup6\n        /* \"#utility.yul\":7049:7065   */\n      and\n        /* \"#utility.yul\":7046:7048   */\n      iszero\n      tag_254\n      jumpi\n        /* \"#utility.yul\":7478:7482   */\n      dup1\n        /* \"#utility.yul\":7471:7476   */\n      dup3\n        /* \"#utility.yul\":7467:7483   */\n      mul\n        /* \"#utility.yul\":7458:7483   */\n      swap2\n      pop\n        /* \"#utility.yul\":7046:7048   */\n    tag_254:\n        /* \"#utility.yul\":7528:7532   */\n      dup1\n        /* \"#utility.yul\":7522:7526   */\n      dup2\n        /* \"#utility.yul\":7518:7533   */\n      mul\n        /* \"#utility.yul\":7510:7533   */\n      swap1\n      pop\n        /* \"#utility.yul\":7558:7590   */\n      tag_255\n        /* \"#utility.yul\":7581:7589   */\n      dup6\n        /* \"#utility.yul\":7558:7590   */\n      tag_256\n      jump\t// in\n    tag_255:\n        /* \"#utility.yul\":7546:7590   */\n      swap5\n      pop\n        /* \"#utility.yul\":6888:7600   */\n      jump(tag_249)\n    tag_251:\n        /* \"#utility.yul\":6831:7606   */\n      swap5\n      pop\n      swap5\n      swap3\n      pop\n      pop\n      pop\n      jump\t// out\n        /* \"#utility.yul\":7612:7897   */\n    tag_107:\n      0x00\n        /* \"#utility.yul\":7696:7719   */\n      tag_258\n        /* \"#utility.yul\":7714:7718   */\n      dup3\n        /* \"#utility.yul\":7696:7719   */\n      tag_217\n      jump\t// in\n    tag_258:\n        /* \"#utility.yul\":7688:7719   */\n      swap2\n      pop\n        /* \"#utility.yul\":7740:7767   */\n      tag_259\n        /* \"#utility.yul\":7758:7766   */\n      dup4\n        /* \"#utility.yul\":7740:7767   */\n      tag_217\n      jump\t// in\n    tag_259:\n        /* \"#utility.yul\":7728:7767   */\n      swap3\n      pop\n        /* \"#utility.yul\":7786:7890   */\n      tag_260\n        /* \"#utility.yul\":7823:7889   */\n      0xffffffffffffffffffffffffffffffffffffffffffffffffffffffffffffffff\n        /* \"#utility.yul\":7813:7821   */\n      dup5\n        /* \"#utility.yul\":7807:7811   */\n      dup5\n        /* \"#utility.yul\":7786:7890   */\n      tag_261\n      jump\t// in\n    tag_260:\n        /* \"#utility.yul\":7777:7890   */\n      swap1\n      pop\n        /* \"#utility.yul\":7678:7897   */\n      swap3\n      swap2\n      pop\n      pop\n      jump\t// out\n        /* \"#utility.yul\":7903:8976   */\n    tag_261:\n      0x00\n        /* \"#utility.yul\":8148:8156   */\n      dup3\n        /* \"#utility.yul\":8138:8140   */\n      tag_263\n      jumpi\n        /* \"#utility.yul\":8169:8170   */\n      0x01\n        /* \"#utility.yul\":8160:8170   */\n      swap1\n      pop\n        /* \"#utility.yul\":8171:8176   */\n      jump(tag_262)\n        /* \"#utility.yul\":8138:8140   */\n    tag_263:\n        /* \"#utility.yul\":8197:8201   */\n      dup2\n        /* \"#utility.yul\":8187:8189   */\n      tag_264\n      jumpi\n        /* \"#utility.yul\":8214:8215   */\n      0x00\n        /* \"#utility.yul\":8205:8215   */\n      swap1\n      pop\n        /* \"#utility.yul\":8216:8221   */\n      jump(tag_262)\n        /* \"#utility.yul\":8187:8189   */\n    tag_264:\n        /* \"#utility.yul\":8283:8287   */\n      dup2\n        /* \"#utility.yul\":8331:8332   */\n      0x01\n        /* \"#utility.yul\":8326:8353   */\n      dup2\n      eq\n      tag_266\n      jumpi\n        /* \"#utility.yul\":8367:8368   */\n      0x02\n        /* \"#utility.yul\":8362:8553   */\n      dup2\n      eq\n      tag_267\n      jumpi\n        /* \"#utility.yul\":8276:8553   */\n      jump(tag_265)\n        /* \"#utility.yul\":8326:8353   */\n    tag_266:\n        /* \"#utility.yul\":8344:8345   */\n      0x01\n        /* \"#utility.yul\":8335:8345   */\n      swap2\n      pop\n        /* \"#utility.yul\":8346:8351   */\n      pop\n      jump(tag_262)\n        /* \"#utility.yul\":8362:8553   */\n    tag_267:\n        /* \"#utility.yul\":8407:8410   */\n      0xff\n        /* \"#utility.yul\":8397:8405   */\n      dup5\n        /* \"#utility.yul\":8394:8411   */\n      gt\n        /* \"#utility.yul\":8391:8393   */\n      iszero\n      tag_268\n      jumpi\n        /* \"#utility.yul\":8414:8432   */\n      tag_269\n      tag_246\n      jump\t// in\n    tag_269:\n        /* \"#utility.yul\":8391:8393   */\n    tag_268:\n        /* \"#utility.yul\":8463:8471   */\n      dup4\n        /* \"#utility.yul\":8460:8461   */\n      0x02\n        /* \"#utility.yul\":8456:8472   */\n      exp\n        /* \"#utility.yul\":8447:8472   */\n      swap2\n      pop\n        /* \"#utility.yul\":8498:8501   */\n      dup5\n        /* \"#utility.yul\":8491:8496   */\n      dup3\n        /* \"#utility.yul\":8488:8502   */\n      gt\n        /* \"#utility.yul\":8485:8487   */\n      iszero\n      tag_270\n      jumpi\n        /* \"#utility.yul\":8505:8523   */\n      tag_271\n      tag_246\n      jump\t// in\n    tag_271:\n        /* \"#utility.yul\":8485:8487   */\n    tag_270:\n        /* \"#utility.yul\":8538:8543   */\n      pop\n      jump(tag_262)\n        /* \"#utility.yul\":8276:8553   */\n    tag_265:\n      pop\n        /* \"#utility.yul\":8662:8664   */\n      0x20\n        /* \"#utility.yul\":8652:8660   */\n      dup4\n        /* \"#utility.yul\":8649:8665   */\n      lt\n        /* \"#utility.yul\":8643:8646   */\n      0x0133\n        /* \"#utility.yul\":8637:8641   */\n      dup4\n        /* \"#utility.yul\":8634:8647   */\n      lt\n        /* \"#utility.yul\":8630:8666   */\n      and\n        /* \"#utility.yul\":8612:8614   */\n      0x4e\n        /* \"#utility.yul\":8602:8610   */\n      dup5\n        /* \"#utility.yul\":8599:8615   */\n      lt\n        /* \"#utility.yul\":8594:8596   */\n      0x0b\n        /* \"#utility.yul\":8588:8592   */\n      dup5\n        /* \"#utility.yul\":8585:8597   */\n      lt\n        /* \"#utility.yul\":8581:8616   */\n      and\n        /* \"#utility.yul\":8565:8676   */\n      or\n        /* \"#utility.yul\":8562:8564   */\n      iszero\n      tag_272\n      jumpi\n        /* \"#utility.yul\":8718:8726   */\n      dup3\n        /* \"#utility.yul\":8712:8716   */\n      dup3\n        /* \"#utility.yul\":8708:8727   */\n      exp\n        /* \"#utility.yul\":8699:8727   */\n      swap1\n      pop\n        /* \"#utility.yul\":8753:8756   */\n      dup4\n        /* \"#utility.yul\":8746:8751   */\n      dup2\n        /* \"#utility.yul\":8743:8757   */\n      gt\n        /* \"#utility.yul\":8740:8742   */\n      iszero\n      tag_273\n      jumpi\n        /* \"#utility.yul\":8760:8778   */\n      tag_274\n      tag_246\n      jump\t// in\n    tag_274:\n        /* \"#utility.yul\":8740:8742   */\n    tag_273:\n        /* \"#utility.yul\":8793:8798   */\n      jump(tag_262)\n        /* \"#utility.yul\":8562:8564   */\n    tag_272:\n        /* \"#utility.yul\":8833:8875   */\n      tag_275\n        /* \"#utility.yul\":8871:8874   */\n      dup5\n        /* \"#utility.yul\":8861:8869   */\n      dup5\n        /* \"#utility.yul\":8855:8859   */\n      dup5\n        /* \"#utility.yul\":8852:8853   */\n      0x01\n        /* \"#utility.yul\":8833:8875   */\n      tag_247\n      jump\t// in\n    tag_275:\n        /* \"#utility.yul\":8818:8875   */\n      swap3\n      pop\n      swap1\n      pop\n        /* \"#utility.yul\":8907:8911   */\n      dup2\n        /* \"#utility.yul\":8902:8905   */\n      dup5\n        /* \"#utility.yul\":8898:8912   */\n      div\n        /* \"#utility.yul\":8891:8896   */\n      dup2\n        /* \"#utility.yul\":8888:8913   */\n      gt\n        /* \"#utility.yul\":8885:8887   */\n      iszero\n      tag_276\n      jumpi\n        /* \"#utility.yul\":8916:8934   */\n      tag_277\n      tag_246\n      jump\t// in\n    tag_277:\n        /* \"#utility.yul\":8885:8887   */\n    tag_276:\n        /* \"#utility.yul\":8965:8969   */\n      dup2\n        /* \"#utility.yul\":8958:8963   */\n      dup2\n        /* \"#utility.yul\":8954:8970   */\n      mul\n        /* \"#utility.yul\":8945:8970   */\n      swap1\n      pop\n        /* \"#utility.yul\":7963:8976   */\n    tag_262:\n      swap4\n      swap3\n      pop\n      pop\n      pop\n      jump\t// out\n        /* \"#utility.yul\":8982:9330   */\n    tag_105:\n      0x00\n        /* \"#utility.yul\":9045:9065   */\n      tag_279\n        /* \"#utility.yul\":9063:9064   */\n      dup3\n        /* \"#utility.yul\":9045:9065   */\n      tag_217\n      jump\t// in\n    tag_279:\n        /* \"#utility.yul\":9040:9065   */\n      swap2\n      pop\n        /* \"#utility.yul\":9079:9099   */\n      tag_280\n        /* \"#utility.yul\":9097:9098   */\n      dup4\n        /* \"#utility.yul\":9079:9099   */\n      tag_217\n      jump\t// in\n    tag_280:\n        /* \"#utility.yul\":9074:9099   */\n      swap3\n      pop\n        /* \"#utility.yul\":9267:9268   */\n      dup2\n        /* \"#utility.yul\":9199:9265   */\n      0xffffffffffffffffffffffffffffffffffffffffffffffffffffffffffffffff\n        /* \"#utility.yul\":9195:9269   */\n      div\n        /* \"#utility.yul\":9192:9193   */\n      dup4\n        /* \"#utility.yul\":9189:9270   */\n      gt\n        /* \"#utility.yul\":9184:9185   */\n      dup3\n        /* \"#utility.yul\":9177:9186   */\n      iszero\n        /* \"#utility.yul\":9170:9187   */\n      iszero\n        /* \"#utility.yul\":9166:9271   */\n      and\n        /* \"#utility.yul\":9163:9165   */\n      iszero\n      tag_281\n      jumpi\n        /* \"#utility.yul\":9274:9292   */\n      tag_282\n      tag_246\n      jump\t// in\n    tag_282:\n        /* \"#utility.yul\":9163:9165   */\n    tag_281:\n        /* \"#utility.yul\":9322:9323   */\n      dup3\n        /* \"#utility.yul\":9319:9320   */\n      dup3\n        /* \"#utility.yul\":9315:9324   */\n      mul\n        /* \"#utility.yul\":9304:9324   */\n      swap1\n      pop\n        /* \"#utility.yul\":9030:9330   */\n      swap3\n      swap2\n      pop\n      pop\n      jump\t// out\n        /* \"#utility.yul\":9336:9527   */\n    tag_87:\n      0x00\n        /* \"#utility.yul\":9396:9416   */\n      tag_284\n        /* \"#utility.yul\":9414:9415   */\n      dup3\n        /* \"#utility.yul\":9396:9416   */\n      tag_217\n      jump\t// in\n    tag_284:\n        /* \"#utility.yul\":9391:9416   */\n      swap2\n      pop\n        /* \"#utility.yul\":9430:9450   */\n      tag_285\n        /* \"#utility.yul\":9448:9449   */\n      dup4\n        /* \"#utility.yul\":9430:9450   */\n      tag_217\n      jump\t// in\n    tag_285:\n        /* \"#utility.yul\":9425:9450   */\n      swap3\n      pop\n        /* \"#utility.yul\":9469:9470   */\n      dup3\n        /* \"#utility.yul\":9466:9467   */\n      dup3\n        /* \"#utility.yul\":9463:9471   */\n      lt\n        /* \"#utility.yul\":9460:9462   */\n      iszero\n      tag_286\n      jumpi\n        /* \"#utility.yul\":9474:9492   */\n      tag_287\n      tag_246\n      jump\t// in\n    tag_287:\n        /* \"#utility.yul\":9460:9462   */\n    tag_286:\n        /* \"#utility.yul\":9519:9520   */\n      dup3\n        /* \"#utility.yul\":9516:9517   */\n      dup3\n        /* \"#utility.yul\":9512:9521   */\n      sub\n        /* \"#utility.yul\":9504:9521   */\n      swap1\n      pop\n        /* \"#utility.yul\":9381:9527   */\n      swap3\n      swap2\n      pop\n      pop\n      jump\t// out\n        /* \"#utility.yul\":9533:9629   */\n    tag_194:\n      0x00\n        /* \"#utility.yul\":9599:9623   */\n      tag_289\n        /* \"#utility.yul\":9617:9622   */\n      dup3\n        /* \"#utility.yul\":9599:9623   */\n      tag_290\n      jump\t// in\n    tag_289:\n        /* \"#utility.yul\":9588:9623   */\n      swap1\n      pop\n        /* \"#utility.yul\":9578:9629   */\n      swap2\n      swap1\n      pop\n      jump\t// out\n        /* \"#utility.yul\":9635:9761   */\n    tag_290:\n      0x00\n        /* \"#utility.yul\":9712:9754   */\n      0xffffffffffffffffffffffffffffffffffffffff\n        /* \"#utility.yul\":9705:9710   */\n      dup3\n        /* \"#utility.yul\":9701:9755   */\n      and\n        /* \"#utility.yul\":9690:9755   */\n      swap1\n      pop\n        /* \"#utility.yul\":9680:9761   */\n      swap2\n      swap1\n      pop\n      jump\t// out\n        /* \"#utility.yul\":9767:9844   */\n    tag_217:\n      0x00\n        /* \"#utility.yul\":9833:9838   */\n      dup2\n        /* \"#utility.yul\":9822:9838   */\n      swap1\n      pop\n        /* \"#utility.yul\":9812:9844   */\n      swap2\n      swap1\n      pop\n      jump\t// out\n        /* \"#utility.yul\":9850:10004   */\n    tag_165:\n        /* \"#utility.yul\":9934:9940   */\n      dup3\n        /* \"#utility.yul\":9929:9932   */\n      dup2\n        /* \"#utility.yul\":9924:9927   */\n      dup4\n        /* \"#utility.yul\":9911:9941   */\n      calldatacopy\n        /* \"#utility.yul\":9996:9997   */\n      0x00\n        /* \"#utility.yul\":9987:9993   */\n      dup4\n        /* \"#utility.yul\":9982:9985   */\n      dup4\n        /* \"#utility.yul\":9978:9994   */\n      add\n        /* \"#utility.yul\":9971:9998   */\n      mstore\n        /* \"#utility.yul\":9901:10004   */\n      pop\n      pop\n      pop\n      jump\t// out\n        /* \"#utility.yul\":10010:10317   */\n    tag_205:\n        /* \"#utility.yul\":10078:10079   */\n      0x00\n        /* \"#utility.yul\":10088:10201   */\n    tag_295:\n        /* \"#utility.yul\":10102:10108   */\n      dup4\n        /* \"#utility.yul\":10099:10100   */\n      dup2\n        /* \"#utility.yul\":10096:10109   */\n      lt\n        /* \"#utility.yul\":10088:10201   */\n      iszero\n      tag_297\n      jumpi\n        /* \"#utility.yul\":10187:10188   */\n      dup1\n        /* \"#utility.yul\":10182:10185   */\n      dup3\n        /* \"#utility.yul\":10178:10189   */\n      add\n        /* \"#utility.yul\":10172:10190   */\n      mload\n        /* \"#utility.yul\":10168:10169   */\n      dup2\n        /* \"#utility.yul\":10163:10166   */\n      dup5\n        /* \"#utility.yul\":10159:10170   */\n      add\n        /* \"#utility.yul\":10152:10191   */\n      mstore\n        /* \"#utility.yul\":10124:10126   */\n      0x20\n        /* \"#utility.yul\":10121:10122   */\n      dup2\n        /* \"#utility.yul\":10117:10127   */\n      add\n        /* \"#utility.yul\":10112:10127   */\n      swap1\n      pop\n        /* \"#utility.yul\":10088:10201   */\n      jump(tag_295)\n    tag_297:\n        /* \"#utility.yul\":10219:10225   */\n      dup4\n        /* \"#utility.yul\":10216:10217   */\n      dup2\n        /* \"#utility.yul\":10213:10226   */\n      gt\n        /* \"#utility.yul\":10210:10212   */\n      iszero\n      tag_298\n      jumpi\n        /* \"#utility.yul\":10299:10300   */\n      0x00\n        /* \"#utility.yul\":10290:10296   */\n      dup5\n        /* \"#utility.yul\":10285:10288   */\n      dup5\n        /* \"#utility.yul\":10281:10297   */\n      add\n        /* \"#utility.yul\":10274:10301   */\n      mstore\n        /* \"#utility.yul\":10210:10212   */\n    tag_298:\n        /* \"#utility.yul\":10059:10317   */\n      pop\n      pop\n      pop\n      pop\n      jump\t// out\n        /* \"#utility.yul\":10323:10643   */\n    tag_63:\n      0x00\n        /* \"#utility.yul\":10404:10405   */\n      0x02\n        /* \"#utility.yul\":10398:10402   */\n      dup3\n        /* \"#utility.yul\":10394:10406   */\n      div\n        /* \"#utility.yul\":10384:10406   */\n      swap1\n      pop\n        /* \"#utility.yul\":10451:10452   */\n      0x01\n        /* \"#utility.yul\":10445:10449   */\n      dup3\n        /* \"#utility.yul\":10441:10453   */\n      and\n        /* \"#utility.yul\":10472:10490   */\n      dup1\n        /* \"#utility.yul\":10462:10464   */\n      tag_300\n      jumpi\n        /* \"#utility.yul\":10528:10532   */\n      0x7f\n        /* \"#utility.yul\":10520:10526   */\n      dup3\n        /* \"#utility.yul\":10516:10533   */\n      and\n        /* \"#utility.yul\":10506:10533   */\n      swap2\n      pop\n        /* \"#utility.yul\":10462:10464   */\n    tag_300:\n        /* \"#utility.yul\":10590:10592   */\n      0x20\n        /* \"#utility.yul\":10582:10588   */\n      dup3\n        /* \"#utility.yul\":10579:10593   */\n      lt\n        /* \"#utility.yul\":10559:10577   */\n      dup2\n        /* \"#utility.yul\":10556:10594   */\n      eq\n        /* \"#utility.yul\":10553:10555   */\n      iszero\n      tag_301\n      jumpi\n        /* \"#utility.yul\":10609:10627   */\n      tag_302\n      tag_303\n      jump\t// in\n    tag_302:\n        /* \"#utility.yul\":10553:10555   */\n    tag_301:\n        /* \"#utility.yul\":10374:10643   */\n      pop\n      swap2\n      swap1\n      pop\n      jump\t// out\n        /* \"#utility.yul\":10649:10882   */\n    tag_59:\n      0x00\n        /* \"#utility.yul\":10711:10735   */\n      tag_305\n        /* \"#utility.yul\":10729:10734   */\n      dup3\n        /* \"#utility.yul\":10711:10735   */\n      tag_217\n      jump\t// in\n    tag_305:\n        /* \"#utility.yul\":10702:10735   */\n      swap2\n      pop\n        /* \"#utility.yul\":10757:10823   */\n      0xffffffffffffffffffffffffffffffffffffffffffffffffffffffffffffffff\n        /* \"#utility.yul\":10750:10755   */\n      dup3\n        /* \"#utility.yul\":10747:10824   */\n      eq\n        /* \"#utility.yul\":10744:10746   */\n      iszero\n      tag_306\n      jumpi\n        /* \"#utility.yul\":10827:10845   */\n      tag_307\n      tag_246\n      jump\t// in\n    tag_307:\n        /* \"#utility.yul\":10744:10746   */\n    tag_306:\n        /* \"#utility.yul\":10874:10875   */\n      0x01\n        /* \"#utility.yul\":10867:10872   */\n      dup3\n        /* \"#utility.yul\":10863:10876   */\n      add\n        /* \"#utility.yul\":10856:10876   */\n      swap1\n      pop\n        /* \"#utility.yul\":10692:10882   */\n      swap2\n      swap1\n      pop\n      jump\t// out\n        /* \"#utility.yul\":10888:11068   */\n    tag_246:\n        /* \"#utility.yul\":10936:11013   */\n      0x4e487b7100000000000000000000000000000000000000000000000000000000\n        /* \"#utility.yul\":10933:10934   */\n      0x00\n        /* \"#utility.yul\":10926:11014   */\n      mstore\n        /* \"#utility.yul\":11033:11037   */\n      0x11\n        /* \"#utility.yul\":11030:11031   */\n      0x04\n        /* \"#utility.yul\":11023:11038   */\n      mstore\n        /* \"#utility.yul\":11057:11061   */\n      0x24\n        /* \"#utility.yul\":11054:11055   */\n      0x00\n        /* \"#utility.yul\":11047:11062   */\n      revert\n        /* \"#utility.yul\":11074:11254   */\n    tag_303:\n        /* \"#utility.yul\":11122:11199   */\n      0x4e487b7100000000000000000000000000000000000000000000000000000000\n        /* \"#utility.yul\":11119:11120   */\n      0x00\n        /* \"#utility.yul\":11112:11200   */\n      mstore\n        /* \"#utility.yul\":11219:11223   */\n      0x22\n        /* \"#utility.yul\":11216:11217   */\n      0x04\n        /* \"#utility.yul\":11209:11224   */\n      mstore\n        /* \"#utility.yul\":11243:11247   */\n      0x24\n        /* \"#utility.yul\":11240:11241   */\n      0x00\n        /* \"#utility.yul\":11233:11248   */\n      revert\n        /* \"#utility.yul\":11260:11440   */\n    tag_235:\n        /* \"#utility.yul\":11308:11385   */\n      0x4e487b7100000000000000000000000000000000000000000000000000000000\n        /* \"#utility.yul\":11305:11306   */\n      0x00\n        /* \"#utility.yul\":11298:11386   */\n      mstore\n        /* \"#utility.yul\":11405:11409   */\n      0x41\n        /* \"#utility.yul\":11402:11403   */\n      0x04\n        /* \"#utility.yul\":11395:11410   */\n      mstore\n        /* \"#utility.yul\":11429:11433   */\n      0x24\n        /* \"#utility.yul\":11426:11427   */\n      0x00\n        /* \"#utility.yul\":11419:11434   */\n      revert\n        /* \"#utility.yul\":11446:11548   */\n    tag_207:\n      0x00\n        /* \"#utility.yul\":11538:11540   */\n      0x1f\n        /* \"#utility.yul\":11534:11541   */\n      not\n        /* \"#utility.yul\":11529:11531   */\n      0x1f\n        /* \"#utility.yul\":11522:11527   */\n      dup4\n        /* \"#utility.yul\":11518:11532   */\n      add\n        /* \"#utility.yul\":11514:11542   */\n      and\n        /* \"#utility.yul\":11504:11542   */\n      swap1\n      pop\n        /* \"#utility.yul\":11494:11548   */\n      swap2\n      swap1\n      pop\n      jump\t// out\n        /* \"#utility.yul\":11554:11656   */\n    tag_256:\n      0x00\n        /* \"#utility.yul\":11643:11648   */\n      dup2\n        /* \"#utility.yul\":11640:11641   */\n      0x01\n        /* \"#utility.yul\":11636:11649   */\n      shr\n        /* \"#utility.yul\":11615:11649   */\n      swap1\n      pop\n        /* \"#utility.yul\":11605:11656   */\n      swap2\n      swap1\n      pop\n      jump\t// out\n        /* \"#utility.yul\":11662:11784   */\n    tag_169:\n        /* \"#utility.yul\":11735:11759   */\n      tag_314\n        /* \"#utility.yul\":11753:11758   */\n      dup2\n        /* \"#utility.yul\":11735:11759   */\n      tag_194\n      jump\t// in\n    tag_314:\n        /* \"#utility.yul\":11728:11733   */\n      dup2\n        /* \"#utility.yul\":11725:11760   */\n      eq\n        /* \"#utility.yul\":11715:11717   */\n      tag_315\n      jumpi\n        /* \"#utility.yul\":11774:11775   */\n      0x00\n        /* \"#utility.yul\":11771:11772   */\n      dup1\n        /* \"#utility.yul\":11764:11776   */\n      revert\n        /* \"#utility.yul\":11715:11717   */\n    tag_315:\n        /* \"#utility.yul\":11705:11784   */\n      pop\n      jump\t// out\n        /* \"#utility.yul\":11790:11912   */\n    tag_177:\n        /* \"#utility.yul\":11863:11887   */\n      tag_317\n        /* \"#utility.yul\":11881:11886   */\n      dup2\n        /* \"#utility.yul\":11863:11887   */\n      tag_217\n      jump\t// in\n    tag_317:\n        /* \"#utility.yul\":11856:11861   */\n      dup2\n        /* \"#utility.yul\":11853:11888   */\n      eq\n        /* \"#utility.yul\":11843:11845   */\n      tag_318\n      jumpi\n        /* \"#utility.yul\":11902:11903   */\n      0x00\n        /* \"#utility.yul\":11899:11900   */\n      dup1\n        /* \"#utility.yul\":11892:11904   */\n      revert\n        /* \"#utility.yul\":11843:11845   */\n    tag_318:\n        /* \"#utility.yul\":11833:11912   */\n      pop\n      jump\t// out\n\n    auxdata: 0xa2646970667358221220246c1859b57e9ead0cf0b38b216db1ee05c6071257f4a0efe9bcbb95e483272c64736f6c63430008000033\n}\n",
				"bytecode": {
					"linkReferences": {},
					"object": "608060405234801561001057600080fd5b50600060018190555061004160018073b5dea2661dfa4b8f0aae8bc1f583369d927c3b06600361004660201b60201c565b610199565b60405180608001604052808581526020018481526020018373ffffffffffffffffffffffffffffffffffffffff168152602001828152506000806001548152602001908152602001600020600082015181600001556020820151816001015560408201518160020160006101000a81548173ffffffffffffffffffffffffffffffffffffffff021916908373ffffffffffffffffffffffffffffffffffffffff160217905550606082015181600301559050506001600081548092919061010c90610121565b919050555050505050565b6000819050919050565b600061012c82610117565b91507fffffffffffffffffffffffffffffffffffffffffffffffffffffffffffffffff82141561015f5761015e61016a565b5b600182019050919050565b7f4e487b7100000000000000000000000000000000000000000000000000000000600052601160045260246000fd5b61128b806101a86000396000f3fe608060405234801561001057600080fd5b50600436106100625760003560e01c8063013cf08b1461006757806396caabb81461009a578063b723a32c146100b6578063cae455ee146100e6578063da35c66414610102578063e9d6c6da14610120575b600080fd5b610081600480360381019061007c9190610bbe565b610150565b6040516100919493929190610d6c565b60405180910390f35b6100b460048036038101906100af9190610b7d565b6101a0565b005b6100d060048036038101906100cb9190610bbe565b61037a565b6040516100dd9190610d14565b60405180910390f35b61010060048036038101906100fb9190610be7565b610426565b005b61010a6104f7565b6040516101179190610d51565b60405180910390f35b61013a60048036038101906101359190610bbe565b6104fd565b6040516101479190610d36565b60405180910390f35b60006020528060005260406000206000915090508060000154908060010154908060020160009054906101000a900473ffffffffffffffffffffffffffffffffffffffff16908060030154905084565b60006101ab8261059d565b905060006101ed6040518060400160405280600181526020017f2d0000000000000000000000000000000000000000000000000000000000000081525061059d565b9050600061020482846105cb90919063ffffffff16565b67ffffffffffffffff811115610243577f4e487b7100000000000000000000000000000000000000000000000000000000600052604160045260246000fd5b60405190808252806020026020018201604052801561027657816020015b60608152602001906001900390816102615790505b50905060005b8151811015610373576102a061029b848661067390919063ffffffff16565b61068d565b8282815181106102d9577f4e487b7100000000000000000000000000000000000000000000000000000000600052603260045260246000fd5b6020026020010181905250600282828151811061031f577f4e487b7100000000000000000000000000000000000000000000000000000000600052603260045260246000fd5b602002602001015190806001815401808255809150506001900390600052602060002001600090919091909150908051906020019061035f9291906109f0565b50808061036b90611133565b91505061027c565b5050505050565b6002818154811061038a57600080fd5b9060005260206000200160009150905080546103a590611101565b80601f01602080910402602001604051908101604052809291908181526020018280546103d190611101565b801561041e5780601f106103f35761010080835404028352916020019161041e565b820191906000526020600020905b81548152906001019060200180831161040157829003601f168201915b505050505081565b60405180608001604052808581526020018481526020018373ffffffffffffffffffffffffffffffffffffffff168152602001828152506000806001548152602001908152602001600020600082015181600001556020820151816001015560408201518160020160006101000a81548173ffffffffffffffffffffffffffffffffffffffff021916908373ffffffffffffffffffffffffffffffffffffffff16021790555060608201518160030155905050600160008154809291906104ec90611133565b919050555050505050565b60015481565b610505610a76565b60008083815260200190815260200160002060405180608001604052908160008201548152602001600182015481526020016002820160009054906101000a900473ffffffffffffffffffffffffffffffffffffffff1673ffffffffffffffffffffffffffffffffffffffff1673ffffffffffffffffffffffffffffffffffffffff1681526020016003820154815250509050919050565b6105a5610ab4565b600060208301905060405180604001604052808451815260200182815250915050919050565b60008082600001516105ef856000015186602001518660000151876020015161072f565b6105f99190610e2e565b90505b836000015184602001516106109190610e2e565b811161066c57818061062190611133565b925050826000015161065b85602001518361063c919061104f565b866000015161064b919061104f565b838660000151876020015161072f565b6106659190610e2e565b90506105fc565b5092915050565b61067b610ab4565b610686838383610879565b5092915050565b60606000826000015167ffffffffffffffff8111156106d5577f4e487b7100000000000000000000000000000000000000000000000000000000600052604160045260246000fd5b6040519080825280601f01601f1916602001820160405280156107075781602001600182028036833780820191505090505b50905060006020820190506107258185602001518660000151610944565b8192505050919050565b600080849050600086851161086057602085116108025760008086111561078857600186602061075f919061104f565b600861076b9190610ff5565b60026107779190610ed7565b610781919061104f565b1960001b90505b60008186511690506000878a8a61079f9190610e2e565b6107a9919061104f565b905060008386511690505b8281146107f4578186106107db578a8a6107ce9190610e2e565b9650505050505050610871565b85806107e690611133565b9650508386511690506107b4565b859650505050505050610871565b60008585209050600091505b858861081a919061104f565b821161085e57600086842090508082141561083b5783945050505050610871565b6001846108489190610e2e565b935050818061085690611133565b92505061080e565b505b868661086c9190610e2e565b925050505b949350505050565b610881610ab4565b600061089f856000015186602001518660000151876020015161072f565b905084602001518360200181815250508460200151816108bf919061104f565b836000018181525050846000015185602001516108dc9190610e2e565b8114156108f3576000856000018181525050610939565b836000015183600001516109079190610e2e565b85600001818151610918919061104f565b9150818152505083600001518161092f9190610e2e565b8560200181815250505b829150509392505050565b5b60208110610983578151835260208361095e9190610e2e565b925060208261096d9190610e2e565b915060208161097c919061104f565b9050610945565b60007fffffffffffffffffffffffffffffffffffffffffffffffffffffffffffffffff905060008211156109da5760018260206109c0919061104f565b6101006109cd9190610ed7565b6109d7919061104f565b90505b8019835116818551168181178652505050505050565b8280546109fc90611101565b90600052602060002090601f016020900481019282610a1e5760008555610a65565b82601f10610a3757805160ff1916838001178555610a65565b82800160010185558215610a65579182015b82811115610a64578251825591602001919060010190610a49565b5b509050610a729190610ace565b5090565b60405180608001604052806000815260200160008152602001600073ffffffffffffffffffffffffffffffffffffffff168152602001600081525090565b604051806040016040528060008152602001600081525090565b5b80821115610ae7576000816000905550600101610acf565b5090565b6000610afe610af984610de2565b610db1565b905082815260208101848484011115610b1657600080fd5b610b218482856110bf565b509392505050565b600081359050610b3881611227565b92915050565b600082601f830112610b4f57600080fd5b8135610b5f848260208601610aeb565b91505092915050565b600081359050610b778161123e565b92915050565b600060208284031215610b8f57600080fd5b600082013567ffffffffffffffff811115610ba957600080fd5b610bb584828501610b3e565b91505092915050565b600060208284031215610bd057600080fd5b6000610bde84828501610b68565b91505092915050565b60008060008060808587031215610bfd57600080fd5b6000610c0b87828801610b68565b9450506020610c1c87828801610b68565b9350506040610c2d87828801610b29565b9250506060610c3e87828801610b68565b91505092959194509250565b610c5381611083565b82525050565b610c6281611083565b82525050565b6000610c7382610e12565b610c7d8185610e1d565b9350610c8d8185602086016110ce565b610c9681611209565b840191505092915050565b608082016000820151610cb76000850182610cf6565b506020820151610cca6020850182610cf6565b506040820151610cdd6040850182610c4a565b506060820151610cf06060850182610cf6565b50505050565b610cff816110b5565b82525050565b610d0e816110b5565b82525050565b60006020820190508181036000830152610d2e8184610c68565b905092915050565b6000608082019050610d4b6000830184610ca1565b92915050565b6000602082019050610d666000830184610d05565b92915050565b6000608082019050610d816000830187610d05565b610d8e6020830186610d05565b610d9b6040830185610c59565b610da86060830184610d05565b95945050505050565b6000604051905081810181811067ffffffffffffffff82111715610dd857610dd76111da565b5b8060405250919050565b600067ffffffffffffffff821115610dfd57610dfc6111da565b5b601f19601f8301169050602081019050919050565b600081519050919050565b600082825260208201905092915050565b6000610e39826110b5565b9150610e44836110b5565b9250827fffffffffffffffffffffffffffffffffffffffffffffffffffffffffffffffff03821115610e7957610e7861117c565b5b828201905092915050565b6000808291508390505b6001851115610ece57808604811115610eaa57610ea961117c565b5b6001851615610eb95780820291505b8081029050610ec78561121a565b9450610e8e565b94509492505050565b6000610ee2826110b5565b9150610eed836110b5565b9250610f1a7fffffffffffffffffffffffffffffffffffffffffffffffffffffffffffffffff8484610f22565b905092915050565b600082610f325760019050610fee565b81610f405760009050610fee565b8160018114610f565760028114610f6057610f8f565b6001915050610fee565b60ff841115610f7257610f7161117c565b5b8360020a915084821115610f8957610f8861117c565b5b50610fee565b5060208310610133831016604e8410600b8410161715610fc45782820a905083811115610fbf57610fbe61117c565b5b610fee565b610fd18484846001610e84565b92509050818404811115610fe857610fe761117c565b5b81810290505b9392505050565b6000611000826110b5565b915061100b836110b5565b9250817fffffffffffffffffffffffffffffffffffffffffffffffffffffffffffffffff04831182151516156110445761104361117c565b5b828202905092915050565b600061105a826110b5565b9150611065836110b5565b9250828210156110785761107761117c565b5b828203905092915050565b600061108e82611095565b9050919050565b600073ffffffffffffffffffffffffffffffffffffffff82169050919050565b6000819050919050565b82818337600083830152505050565b60005b838110156110ec5780820151818401526020810190506110d1565b838111156110fb576000848401525b50505050565b6000600282049050600182168061111957607f821691505b6020821081141561112d5761112c6111ab565b5b50919050565b600061113e826110b5565b91507fffffffffffffffffffffffffffffffffffffffffffffffffffffffffffffffff8214156111715761117061117c565b5b600182019050919050565b7f4e487b7100000000000000000000000000000000000000000000000000000000600052601160045260246000fd5b7f4e487b7100000000000000000000000000000000000000000000000000000000600052602260045260246000fd5b7f4e487b7100000000000000000000000000000000000000000000000000000000600052604160045260246000fd5b6000601f19601f8301169050919050565b60008160011c9050919050565b61123081611083565b811461123b57600080fd5b50565b611247816110b5565b811461125257600080fd5b5056fea2646970667358221220246c1859b57e9ead0cf0b38b216db1ee05c6071257f4a0efe9bcbb95e483272c64736f6c63430008000033",
					"opcodes": "PUSH1 0x80 PUSH1 0x40 MSTORE CALLVALUE DUP1 ISZERO PUSH2 0x10 JUMPI PUSH1 0x0 DUP1 REVERT JUMPDEST POP PUSH1 0x0 PUSH1 0x1 DUP2 SWAP1 SSTORE POP PUSH2 0x41 PUSH1 0x1 DUP1 PUSH20 0xB5DEA2661DFA4B8F0AAE8BC1F583369D927C3B06 PUSH1 0x3 PUSH2 0x46 PUSH1 0x20 SHL PUSH1 0x20 SHR JUMP JUMPDEST PUSH2 0x199 JUMP JUMPDEST PUSH1 0x40 MLOAD DUP1 PUSH1 0x80 ADD PUSH1 0x40 MSTORE DUP1 DUP6 DUP2 MSTORE PUSH1 0x20 ADD DUP5 DUP2 MSTORE PUSH1 0x20 ADD DUP4 PUSH20 0xFFFFFFFFFFFFFFFFFFFFFFFFFFFFFFFFFFFFFFFF AND DUP2 MSTORE PUSH1 0x20 ADD DUP3 DUP2 MSTORE POP PUSH1 0x0 DUP1 PUSH1 0x1 SLOAD DUP2 MSTORE PUSH1 0x20 ADD SWAP1 DUP2 MSTORE PUSH1 0x20 ADD PUSH1 0x0 KECCAK256 PUSH1 0x0 DUP3 ADD MLOAD DUP2 PUSH1 0x0 ADD SSTORE PUSH1 0x20 DUP3 ADD MLOAD DUP2 PUSH1 0x1 ADD SSTORE PUSH1 0x40 DUP3 ADD MLOAD DUP2 PUSH1 0x2 ADD PUSH1 0x0 PUSH2 0x100 EXP DUP2 SLOAD DUP2 PUSH20 0xFFFFFFFFFFFFFFFFFFFFFFFFFFFFFFFFFFFFFFFF MUL NOT AND SWAP1 DUP4 PUSH20 0xFFFFFFFFFFFFFFFFFFFFFFFFFFFFFFFFFFFFFFFF AND MUL OR SWAP1 SSTORE POP PUSH1 0x60 DUP3 ADD MLOAD DUP2 PUSH1 0x3 ADD SSTORE SWAP1 POP POP PUSH1 0x1 PUSH1 0x0 DUP2 SLOAD DUP1 SWAP3 SWAP2 SWAP1 PUSH2 0x10C SWAP1 PUSH2 0x121 JUMP JUMPDEST SWAP2 SWAP1 POP SSTORE POP POP POP POP POP JUMP JUMPDEST PUSH1 0x0 DUP2 SWAP1 POP SWAP2 SWAP1 POP JUMP JUMPDEST PUSH1 0x0 PUSH2 0x12C DUP3 PUSH2 0x117 JUMP JUMPDEST SWAP2 POP PUSH32 0xFFFFFFFFFFFFFFFFFFFFFFFFFFFFFFFFFFFFFFFFFFFFFFFFFFFFFFFFFFFFFFFF DUP3 EQ ISZERO PUSH2 0x15F JUMPI PUSH2 0x15E PUSH2 0x16A JUMP JUMPDEST JUMPDEST PUSH1 0x1 DUP3 ADD SWAP1 POP SWAP2 SWAP1 POP JUMP JUMPDEST PUSH32 0x4E487B7100000000000000000000000000000000000000000000000000000000 PUSH1 0x0 MSTORE PUSH1 0x11 PUSH1 0x4 MSTORE PUSH1 0x24 PUSH1 0x0 REVERT JUMPDEST PUSH2 0x128B DUP1 PUSH2 0x1A8 PUSH1 0x0 CODECOPY PUSH1 0x0 RETURN INVALID PUSH1 0x80 PUSH1 0x40 MSTORE CALLVALUE DUP1 ISZERO PUSH2 0x10 JUMPI PUSH1 0x0 DUP1 REVERT JUMPDEST POP PUSH1 0x4 CALLDATASIZE LT PUSH2 0x62 JUMPI PUSH1 0x0 CALLDATALOAD PUSH1 0xE0 SHR DUP1 PUSH4 0x13CF08B EQ PUSH2 0x67 JUMPI DUP1 PUSH4 0x96CAABB8 EQ PUSH2 0x9A JUMPI DUP1 PUSH4 0xB723A32C EQ PUSH2 0xB6 JUMPI DUP1 PUSH4 0xCAE455EE EQ PUSH2 0xE6 JUMPI DUP1 PUSH4 0xDA35C664 EQ PUSH2 0x102 JUMPI DUP1 PUSH4 0xE9D6C6DA EQ PUSH2 0x120 JUMPI JUMPDEST PUSH1 0x0 DUP1 REVERT JUMPDEST PUSH2 0x81 PUSH1 0x4 DUP1 CALLDATASIZE SUB DUP2 ADD SWAP1 PUSH2 0x7C SWAP2 SWAP1 PUSH2 0xBBE JUMP JUMPDEST PUSH2 0x150 JUMP JUMPDEST PUSH1 0x40 MLOAD PUSH2 0x91 SWAP5 SWAP4 SWAP3 SWAP2 SWAP1 PUSH2 0xD6C JUMP JUMPDEST PUSH1 0x40 MLOAD DUP1 SWAP2 SUB SWAP1 RETURN JUMPDEST PUSH2 0xB4 PUSH1 0x4 DUP1 CALLDATASIZE SUB DUP2 ADD SWAP1 PUSH2 0xAF SWAP2 SWAP1 PUSH2 0xB7D JUMP JUMPDEST PUSH2 0x1A0 JUMP JUMPDEST STOP JUMPDEST PUSH2 0xD0 PUSH1 0x4 DUP1 CALLDATASIZE SUB DUP2 ADD SWAP1 PUSH2 0xCB SWAP2 SWAP1 PUSH2 0xBBE JUMP JUMPDEST PUSH2 0x37A JUMP JUMPDEST PUSH1 0x40 MLOAD PUSH2 0xDD SWAP2 SWAP1 PUSH2 0xD14 JUMP JUMPDEST PUSH1 0x40 MLOAD DUP1 SWAP2 SUB SWAP1 RETURN JUMPDEST PUSH2 0x100 PUSH1 0x4 DUP1 CALLDATASIZE SUB DUP2 ADD SWAP1 PUSH2 0xFB SWAP2 SWAP1 PUSH2 0xBE7 JUMP JUMPDEST PUSH2 0x426 JUMP JUMPDEST STOP JUMPDEST PUSH2 0x10A PUSH2 0x4F7 JUMP JUMPDEST PUSH1 0x40 MLOAD PUSH2 0x117 SWAP2 SWAP1 PUSH2 0xD51 JUMP JUMPDEST PUSH1 0x40 MLOAD DUP1 SWAP2 SUB SWAP1 RETURN JUMPDEST PUSH2 0x13A PUSH1 0x4 DUP1 CALLDATASIZE SUB DUP2 ADD SWAP1 PUSH2 0x135 SWAP2 SWAP1 PUSH2 0xBBE JUMP JUMPDEST PUSH2 0x4FD JUMP JUMPDEST PUSH1 0x40 MLOAD PUSH2 0x147 SWAP2 SWAP1 PUSH2 0xD36 JUMP JUMPDEST PUSH1 0x40 MLOAD DUP1 SWAP2 SUB SWAP1 RETURN JUMPDEST PUSH1 0x0 PUSH1 0x20 MSTORE DUP1 PUSH1 0x0 MSTORE PUSH1 0x40 PUSH1 0x0 KECCAK256 PUSH1 0x0 SWAP2 POP SWAP1 POP DUP1 PUSH1 0x0 ADD SLOAD SWAP1 DUP1 PUSH1 0x1 ADD SLOAD SWAP1 DUP1 PUSH1 0x2 ADD PUSH1 0x0 SWAP1 SLOAD SWAP1 PUSH2 0x100 EXP SWAP1 DIV PUSH20 0xFFFFFFFFFFFFFFFFFFFFFFFFFFFFFFFFFFFFFFFF AND SWAP1 DUP1 PUSH1 0x3 ADD SLOAD SWAP1 POP DUP5 JUMP JUMPDEST PUSH1 0x0 PUSH2 0x1AB DUP3 PUSH2 0x59D JUMP JUMPDEST SWAP1 POP PUSH1 0x0 PUSH2 0x1ED PUSH1 0x40 MLOAD DUP1 PUSH1 0x40 ADD PUSH1 0x40 MSTORE DUP1 PUSH1 0x1 DUP2 MSTORE PUSH1 0x20 ADD PUSH32 0x2D00000000000000000000000000000000000000000000000000000000000000 DUP2 MSTORE POP PUSH2 0x59D JUMP JUMPDEST SWAP1 POP PUSH1 0x0 PUSH2 0x204 DUP3 DUP5 PUSH2 0x5CB SWAP1 SWAP2 SWAP1 PUSH4 0xFFFFFFFF AND JUMP JUMPDEST PUSH8 0xFFFFFFFFFFFFFFFF DUP2 GT ISZERO PUSH2 0x243 JUMPI PUSH32 0x4E487B7100000000000000000000000000000000000000000000000000000000 PUSH1 0x0 MSTORE PUSH1 0x41 PUSH1 0x4 MSTORE PUSH1 0x24 PUSH1 0x0 REVERT JUMPDEST PUSH1 0x40 MLOAD SWAP1 DUP1 DUP3 MSTORE DUP1 PUSH1 0x20 MUL PUSH1 0x20 ADD DUP3 ADD PUSH1 0x40 MSTORE DUP1 ISZERO PUSH2 0x276 JUMPI DUP2 PUSH1 0x20 ADD JUMPDEST PUSH1 0x60 DUP2 MSTORE PUSH1 0x20 ADD SWAP1 PUSH1 0x1 SWAP1 SUB SWAP1 DUP2 PUSH2 0x261 JUMPI SWAP1 POP JUMPDEST POP SWAP1 POP PUSH1 0x0 JUMPDEST DUP2 MLOAD DUP2 LT ISZERO PUSH2 0x373 JUMPI PUSH2 0x2A0 PUSH2 0x29B DUP5 DUP7 PUSH2 0x673 SWAP1 SWAP2 SWAP1 PUSH4 0xFFFFFFFF AND JUMP JUMPDEST PUSH2 0x68D JUMP JUMPDEST DUP3 DUP3 DUP2 MLOAD DUP2 LT PUSH2 0x2D9 JUMPI PUSH32 0x4E487B7100000000000000000000000000000000000000000000000000000000 PUSH1 0x0 MSTORE PUSH1 0x32 PUSH1 0x4 MSTORE PUSH1 0x24 PUSH1 0x0 REVERT JUMPDEST PUSH1 0x20 MUL PUSH1 0x20 ADD ADD DUP2 SWAP1 MSTORE POP PUSH1 0x2 DUP3 DUP3 DUP2 MLOAD DUP2 LT PUSH2 0x31F JUMPI PUSH32 0x4E487B7100000000000000000000000000000000000000000000000000000000 PUSH1 0x0 MSTORE PUSH1 0x32 PUSH1 0x4 MSTORE PUSH1 0x24 PUSH1 0x0 REVERT JUMPDEST PUSH1 0x20 MUL PUSH1 0x20 ADD ADD MLOAD SWAP1 DUP1 PUSH1 0x1 DUP2 SLOAD ADD DUP1 DUP3 SSTORE DUP1 SWAP2 POP POP PUSH1 0x1 SWAP1 SUB SWAP1 PUSH1 0x0 MSTORE PUSH1 0x20 PUSH1 0x0 KECCAK256 ADD PUSH1 0x0 SWAP1 SWAP2 SWAP1 SWAP2 SWAP1 SWAP2 POP SWAP1 DUP1 MLOAD SWAP1 PUSH1 0x20 ADD SWAP1 PUSH2 0x35F SWAP3 SWAP2 SWAP1 PUSH2 0x9F0 JUMP JUMPDEST POP DUP1 DUP1 PUSH2 0x36B SWAP1 PUSH2 0x1133 JUMP JUMPDEST SWAP2 POP POP PUSH2 0x27C JUMP JUMPDEST POP POP POP POP POP JUMP JUMPDEST PUSH1 0x2 DUP2 DUP2 SLOAD DUP2 LT PUSH2 0x38A JUMPI PUSH1 0x0 DUP1 REVERT JUMPDEST SWAP1 PUSH1 0x0 MSTORE PUSH1 0x20 PUSH1 0x0 KECCAK256 ADD PUSH1 0x0 SWAP2 POP SWAP1 POP DUP1 SLOAD PUSH2 0x3A5 SWAP1 PUSH2 0x1101 JUMP JUMPDEST DUP1 PUSH1 0x1F ADD PUSH1 0x20 DUP1 SWAP2 DIV MUL PUSH1 0x20 ADD PUSH1 0x40 MLOAD SWAP1 DUP2 ADD PUSH1 0x40 MSTORE DUP1 SWAP3 SWAP2 SWAP1 DUP2 DUP2 MSTORE PUSH1 0x20 ADD DUP3 DUP1 SLOAD PUSH2 0x3D1 SWAP1 PUSH2 0x1101 JUMP JUMPDEST DUP1 ISZERO PUSH2 0x41E JUMPI DUP1 PUSH1 0x1F LT PUSH2 0x3F3 JUMPI PUSH2 0x100 DUP1 DUP4 SLOAD DIV MUL DUP4 MSTORE SWAP2 PUSH1 0x20 ADD SWAP2 PUSH2 0x41E JUMP JUMPDEST DUP3 ADD SWAP2 SWAP1 PUSH1 0x0 MSTORE PUSH1 0x20 PUSH1 0x0 KECCAK256 SWAP1 JUMPDEST DUP2 SLOAD DUP2 MSTORE SWAP1 PUSH1 0x1 ADD SWAP1 PUSH1 0x20 ADD DUP1 DUP4 GT PUSH2 0x401 JUMPI DUP3 SWAP1 SUB PUSH1 0x1F AND DUP3 ADD SWAP2 JUMPDEST POP POP POP POP POP DUP2 JUMP JUMPDEST PUSH1 0x40 MLOAD DUP1 PUSH1 0x80 ADD PUSH1 0x40 MSTORE DUP1 DUP6 DUP2 MSTORE PUSH1 0x20 ADD DUP5 DUP2 MSTORE PUSH1 0x20 ADD DUP4 PUSH20 0xFFFFFFFFFFFFFFFFFFFFFFFFFFFFFFFFFFFFFFFF AND DUP2 MSTORE PUSH1 0x20 ADD DUP3 DUP2 MSTORE POP PUSH1 0x0 DUP1 PUSH1 0x1 SLOAD DUP2 MSTORE PUSH1 0x20 ADD SWAP1 DUP2 MSTORE PUSH1 0x20 ADD PUSH1 0x0 KECCAK256 PUSH1 0x0 DUP3 ADD MLOAD DUP2 PUSH1 0x0 ADD SSTORE PUSH1 0x20 DUP3 ADD MLOAD DUP2 PUSH1 0x1 ADD SSTORE PUSH1 0x40 DUP3 ADD MLOAD DUP2 PUSH1 0x2 ADD PUSH1 0x0 PUSH2 0x100 EXP DUP2 SLOAD DUP2 PUSH20 0xFFFFFFFFFFFFFFFFFFFFFFFFFFFFFFFFFFFFFFFF MUL NOT AND SWAP1 DUP4 PUSH20 0xFFFFFFFFFFFFFFFFFFFFFFFFFFFFFFFFFFFFFFFF AND MUL OR SWAP1 SSTORE POP PUSH1 0x60 DUP3 ADD MLOAD DUP2 PUSH1 0x3 ADD SSTORE SWAP1 POP POP PUSH1 0x1 PUSH1 0x0 DUP2 SLOAD DUP1 SWAP3 SWAP2 SWAP1 PUSH2 0x4EC SWAP1 PUSH2 0x1133 JUMP JUMPDEST SWAP2 SWAP1 POP SSTORE POP POP POP POP POP JUMP JUMPDEST PUSH1 0x1 SLOAD DUP2 JUMP JUMPDEST PUSH2 0x505 PUSH2 0xA76 JUMP JUMPDEST PUSH1 0x0 DUP1 DUP4 DUP2 MSTORE PUSH1 0x20 ADD SWAP1 DUP2 MSTORE PUSH1 0x20 ADD PUSH1 0x0 KECCAK256 PUSH1 0x40 MLOAD DUP1 PUSH1 0x80 ADD PUSH1 0x40 MSTORE SWAP1 DUP2 PUSH1 0x0 DUP3 ADD SLOAD DUP2 MSTORE PUSH1 0x20 ADD PUSH1 0x1 DUP3 ADD SLOAD DUP2 MSTORE PUSH1 0x20 ADD PUSH1 0x2 DUP3 ADD PUSH1 0x0 SWAP1 SLOAD SWAP1 PUSH2 0x100 EXP SWAP1 DIV PUSH20 0xFFFFFFFFFFFFFFFFFFFFFFFFFFFFFFFFFFFFFFFF AND PUSH20 0xFFFFFFFFFFFFFFFFFFFFFFFFFFFFFFFFFFFFFFFF AND PUSH20 0xFFFFFFFFFFFFFFFFFFFFFFFFFFFFFFFFFFFFFFFF AND DUP2 MSTORE PUSH1 0x20 ADD PUSH1 0x3 DUP3 ADD SLOAD DUP2 MSTORE POP POP SWAP1 POP SWAP2 SWAP1 POP JUMP JUMPDEST PUSH2 0x5A5 PUSH2 0xAB4 JUMP JUMPDEST PUSH1 0x0 PUSH1 0x20 DUP4 ADD SWAP1 POP PUSH1 0x40 MLOAD DUP1 PUSH1 0x40 ADD PUSH1 0x40 MSTORE DUP1 DUP5 MLOAD DUP2 MSTORE PUSH1 0x20 ADD DUP3 DUP2 MSTORE POP SWAP2 POP POP SWAP2 SWAP1 POP JUMP JUMPDEST PUSH1 0x0 DUP1 DUP3 PUSH1 0x0 ADD MLOAD PUSH2 0x5EF DUP6 PUSH1 0x0 ADD MLOAD DUP7 PUSH1 0x20 ADD MLOAD DUP7 PUSH1 0x0 ADD MLOAD DUP8 PUSH1 0x20 ADD MLOAD PUSH2 0x72F JUMP JUMPDEST PUSH2 0x5F9 SWAP2 SWAP1 PUSH2 0xE2E JUMP JUMPDEST SWAP1 POP JUMPDEST DUP4 PUSH1 0x0 ADD MLOAD DUP5 PUSH1 0x20 ADD MLOAD PUSH2 0x610 SWAP2 SWAP1 PUSH2 0xE2E JUMP JUMPDEST DUP2 GT PUSH2 0x66C JUMPI DUP2 DUP1 PUSH2 0x621 SWAP1 PUSH2 0x1133 JUMP JUMPDEST SWAP3 POP POP DUP3 PUSH1 0x0 ADD MLOAD PUSH2 0x65B DUP6 PUSH1 0x20 ADD MLOAD DUP4 PUSH2 0x63C SWAP2 SWAP1 PUSH2 0x104F JUMP JUMPDEST DUP7 PUSH1 0x0 ADD MLOAD PUSH2 0x64B SWAP2 SWAP1 PUSH2 0x104F JUMP JUMPDEST DUP4 DUP7 PUSH1 0x0 ADD MLOAD DUP8 PUSH1 0x20 ADD MLOAD PUSH2 0x72F JUMP JUMPDEST PUSH2 0x665 SWAP2 SWAP1 PUSH2 0xE2E JUMP JUMPDEST SWAP1 POP PUSH2 0x5FC JUMP JUMPDEST POP SWAP3 SWAP2 POP POP JUMP JUMPDEST PUSH2 0x67B PUSH2 0xAB4 JUMP JUMPDEST PUSH2 0x686 DUP4 DUP4 DUP4 PUSH2 0x879 JUMP JUMPDEST POP SWAP3 SWAP2 POP POP JUMP JUMPDEST PUSH1 0x60 PUSH1 0x0 DUP3 PUSH1 0x0 ADD MLOAD PUSH8 0xFFFFFFFFFFFFFFFF DUP2 GT ISZERO PUSH2 0x6D5 JUMPI PUSH32 0x4E487B7100000000000000000000000000000000000000000000000000000000 PUSH1 0x0 MSTORE PUSH1 0x41 PUSH1 0x4 MSTORE PUSH1 0x24 PUSH1 0x0 REVERT JUMPDEST PUSH1 0x40 MLOAD SWAP1 DUP1 DUP3 MSTORE DUP1 PUSH1 0x1F ADD PUSH1 0x1F NOT AND PUSH1 0x20 ADD DUP3 ADD PUSH1 0x40 MSTORE DUP1 ISZERO PUSH2 0x707 JUMPI DUP2 PUSH1 0x20 ADD PUSH1 0x1 DUP3 MUL DUP1 CALLDATASIZE DUP4 CALLDATACOPY DUP1 DUP3 ADD SWAP2 POP POP SWAP1 POP JUMPDEST POP SWAP1 POP PUSH1 0x0 PUSH1 0x20 DUP3 ADD SWAP1 POP PUSH2 0x725 DUP2 DUP6 PUSH1 0x20 ADD MLOAD DUP7 PUSH1 0x0 ADD MLOAD PUSH2 0x944 JUMP JUMPDEST DUP2 SWAP3 POP POP POP SWAP2 SWAP1 POP JUMP JUMPDEST PUSH1 0x0 DUP1 DUP5 SWAP1 POP PUSH1 0x0 DUP7 DUP6 GT PUSH2 0x860 JUMPI PUSH1 0x20 DUP6 GT PUSH2 0x802 JUMPI PUSH1 0x0 DUP1 DUP7 GT ISZERO PUSH2 0x788 JUMPI PUSH1 0x1 DUP7 PUSH1 0x20 PUSH2 0x75F SWAP2 SWAP1 PUSH2 0x104F JUMP JUMPDEST PUSH1 0x8 PUSH2 0x76B SWAP2 SWAP1 PUSH2 0xFF5 JUMP JUMPDEST PUSH1 0x2 PUSH2 0x777 SWAP2 SWAP1 PUSH2 0xED7 JUMP JUMPDEST PUSH2 0x781 SWAP2 SWAP1 PUSH2 0x104F JUMP JUMPDEST NOT PUSH1 0x0 SHL SWAP1 POP JUMPDEST PUSH1 0x0 DUP2 DUP7 MLOAD AND SWAP1 POP PUSH1 0x0 DUP8 DUP11 DUP11 PUSH2 0x79F SWAP2 SWAP1 PUSH2 0xE2E JUMP JUMPDEST PUSH2 0x7A9 SWAP2 SWAP1 PUSH2 0x104F JUMP JUMPDEST SWAP1 POP PUSH1 0x0 DUP4 DUP7 MLOAD AND SWAP1 POP JUMPDEST DUP3 DUP2 EQ PUSH2 0x7F4 JUMPI DUP2 DUP7 LT PUSH2 0x7DB JUMPI DUP11 DUP11 PUSH2 0x7CE SWAP2 SWAP1 PUSH2 0xE2E JUMP JUMPDEST SWAP7 POP POP POP POP POP POP POP PUSH2 0x871 JUMP JUMPDEST DUP6 DUP1 PUSH2 0x7E6 SWAP1 PUSH2 0x1133 JUMP JUMPDEST SWAP7 POP POP DUP4 DUP7 MLOAD AND SWAP1 POP PUSH2 0x7B4 JUMP JUMPDEST DUP6 SWAP7 POP POP POP POP POP POP POP PUSH2 0x871 JUMP JUMPDEST PUSH1 0x0 DUP6 DUP6 KECCAK256 SWAP1 POP PUSH1 0x0 SWAP2 POP JUMPDEST DUP6 DUP9 PUSH2 0x81A SWAP2 SWAP1 PUSH2 0x104F JUMP JUMPDEST DUP3 GT PUSH2 0x85E JUMPI PUSH1 0x0 DUP7 DUP5 KECCAK256 SWAP1 POP DUP1 DUP3 EQ ISZERO PUSH2 0x83B JUMPI DUP4 SWAP5 POP POP POP POP POP PUSH2 0x871 JUMP JUMPDEST PUSH1 0x1 DUP5 PUSH2 0x848 SWAP2 SWAP1 PUSH2 0xE2E JUMP JUMPDEST SWAP4 POP POP DUP2 DUP1 PUSH2 0x856 SWAP1 PUSH2 0x1133 JUMP JUMPDEST SWAP3 POP POP PUSH2 0x80E JUMP JUMPDEST POP JUMPDEST DUP7 DUP7 PUSH2 0x86C SWAP2 SWAP1 PUSH2 0xE2E JUMP JUMPDEST SWAP3 POP POP POP JUMPDEST SWAP5 SWAP4 POP POP POP POP JUMP JUMPDEST PUSH2 0x881 PUSH2 0xAB4 JUMP JUMPDEST PUSH1 0x0 PUSH2 0x89F DUP6 PUSH1 0x0 ADD MLOAD DUP7 PUSH1 0x20 ADD MLOAD DUP7 PUSH1 0x0 ADD MLOAD DUP8 PUSH1 0x20 ADD MLOAD PUSH2 0x72F JUMP JUMPDEST SWAP1 POP DUP5 PUSH1 0x20 ADD MLOAD DUP4 PUSH1 0x20 ADD DUP2 DUP2 MSTORE POP POP DUP5 PUSH1 0x20 ADD MLOAD DUP2 PUSH2 0x8BF SWAP2 SWAP1 PUSH2 0x104F JUMP JUMPDEST DUP4 PUSH1 0x0 ADD DUP2 DUP2 MSTORE POP POP DUP5 PUSH1 0x0 ADD MLOAD DUP6 PUSH1 0x20 ADD MLOAD PUSH2 0x8DC SWAP2 SWAP1 PUSH2 0xE2E JUMP JUMPDEST DUP2 EQ ISZERO PUSH2 0x8F3 JUMPI PUSH1 0x0 DUP6 PUSH1 0x0 ADD DUP2 DUP2 MSTORE POP POP PUSH2 0x939 JUMP JUMPDEST DUP4 PUSH1 0x0 ADD MLOAD DUP4 PUSH1 0x0 ADD MLOAD PUSH2 0x907 SWAP2 SWAP1 PUSH2 0xE2E JUMP JUMPDEST DUP6 PUSH1 0x0 ADD DUP2 DUP2 MLOAD PUSH2 0x918 SWAP2 SWAP1 PUSH2 0x104F JUMP JUMPDEST SWAP2 POP DUP2 DUP2 MSTORE POP POP DUP4 PUSH1 0x0 ADD MLOAD DUP2 PUSH2 0x92F SWAP2 SWAP1 PUSH2 0xE2E JUMP JUMPDEST DUP6 PUSH1 0x20 ADD DUP2 DUP2 MSTORE POP POP JUMPDEST DUP3 SWAP2 POP POP SWAP4 SWAP3 POP POP POP JUMP JUMPDEST JUMPDEST PUSH1 0x20 DUP2 LT PUSH2 0x983 JUMPI DUP2 MLOAD DUP4 MSTORE PUSH1 0x20 DUP4 PUSH2 0x95E SWAP2 SWAP1 PUSH2 0xE2E JUMP JUMPDEST SWAP3 POP PUSH1 0x20 DUP3 PUSH2 0x96D SWAP2 SWAP1 PUSH2 0xE2E JUMP JUMPDEST SWAP2 POP PUSH1 0x20 DUP2 PUSH2 0x97C SWAP2 SWAP1 PUSH2 0x104F JUMP JUMPDEST SWAP1 POP PUSH2 0x945 JUMP JUMPDEST PUSH1 0x0 PUSH32 0xFFFFFFFFFFFFFFFFFFFFFFFFFFFFFFFFFFFFFFFFFFFFFFFFFFFFFFFFFFFFFFFF SWAP1 POP PUSH1 0x0 DUP3 GT ISZERO PUSH2 0x9DA JUMPI PUSH1 0x1 DUP3 PUSH1 0x20 PUSH2 0x9C0 SWAP2 SWAP1 PUSH2 0x104F JUMP JUMPDEST PUSH2 0x100 PUSH2 0x9CD SWAP2 SWAP1 PUSH2 0xED7 JUMP JUMPDEST PUSH2 0x9D7 SWAP2 SWAP1 PUSH2 0x104F JUMP JUMPDEST SWAP1 POP JUMPDEST DUP1 NOT DUP4 MLOAD AND DUP2 DUP6 MLOAD AND DUP2 DUP2 OR DUP7 MSTORE POP POP POP POP POP POP JUMP JUMPDEST DUP3 DUP1 SLOAD PUSH2 0x9FC SWAP1 PUSH2 0x1101 JUMP JUMPDEST SWAP1 PUSH1 0x0 MSTORE PUSH1 0x20 PUSH1 0x0 KECCAK256 SWAP1 PUSH1 0x1F ADD PUSH1 0x20 SWAP1 DIV DUP2 ADD SWAP3 DUP3 PUSH2 0xA1E JUMPI PUSH1 0x0 DUP6 SSTORE PUSH2 0xA65 JUMP JUMPDEST DUP3 PUSH1 0x1F LT PUSH2 0xA37 JUMPI DUP1 MLOAD PUSH1 0xFF NOT AND DUP4 DUP1 ADD OR DUP6 SSTORE PUSH2 0xA65 JUMP JUMPDEST DUP3 DUP1 ADD PUSH1 0x1 ADD DUP6 SSTORE DUP3 ISZERO PUSH2 0xA65 JUMPI SWAP2 DUP3 ADD JUMPDEST DUP3 DUP2 GT ISZERO PUSH2 0xA64 JUMPI DUP3 MLOAD DUP3 SSTORE SWAP2 PUSH1 0x20 ADD SWAP2 SWAP1 PUSH1 0x1 ADD SWAP1 PUSH2 0xA49 JUMP JUMPDEST JUMPDEST POP SWAP1 POP PUSH2 0xA72 SWAP2 SWAP1 PUSH2 0xACE JUMP JUMPDEST POP SWAP1 JUMP JUMPDEST PUSH1 0x40 MLOAD DUP1 PUSH1 0x80 ADD PUSH1 0x40 MSTORE DUP1 PUSH1 0x0 DUP2 MSTORE PUSH1 0x20 ADD PUSH1 0x0 DUP2 MSTORE PUSH1 0x20 ADD PUSH1 0x0 PUSH20 0xFFFFFFFFFFFFFFFFFFFFFFFFFFFFFFFFFFFFFFFF AND DUP2 MSTORE PUSH1 0x20 ADD PUSH1 0x0 DUP2 MSTORE POP SWAP1 JUMP JUMPDEST PUSH1 0x40 MLOAD DUP1 PUSH1 0x40 ADD PUSH1 0x40 MSTORE DUP1 PUSH1 0x0 DUP2 MSTORE PUSH1 0x20 ADD PUSH1 0x0 DUP2 MSTORE POP SWAP1 JUMP JUMPDEST JUMPDEST DUP1 DUP3 GT ISZERO PUSH2 0xAE7 JUMPI PUSH1 0x0 DUP2 PUSH1 0x0 SWAP1 SSTORE POP PUSH1 0x1 ADD PUSH2 0xACF JUMP JUMPDEST POP SWAP1 JUMP JUMPDEST PUSH1 0x0 PUSH2 0xAFE PUSH2 0xAF9 DUP5 PUSH2 0xDE2 JUMP JUMPDEST PUSH2 0xDB1 JUMP JUMPDEST SWAP1 POP DUP3 DUP2 MSTORE PUSH1 0x20 DUP2 ADD DUP5 DUP5 DUP5 ADD GT ISZERO PUSH2 0xB16 JUMPI PUSH1 0x0 DUP1 REVERT JUMPDEST PUSH2 0xB21 DUP5 DUP3 DUP6 PUSH2 0x10BF JUMP JUMPDEST POP SWAP4 SWAP3 POP POP POP JUMP JUMPDEST PUSH1 0x0 DUP2 CALLDATALOAD SWAP1 POP PUSH2 0xB38 DUP2 PUSH2 0x1227 JUMP JUMPDEST SWAP3 SWAP2 POP POP JUMP JUMPDEST PUSH1 0x0 DUP3 PUSH1 0x1F DUP4 ADD SLT PUSH2 0xB4F JUMPI PUSH1 0x0 DUP1 REVERT JUMPDEST DUP2 CALLDATALOAD PUSH2 0xB5F DUP5 DUP3 PUSH1 0x20 DUP7 ADD PUSH2 0xAEB JUMP JUMPDEST SWAP2 POP POP SWAP3 SWAP2 POP POP JUMP JUMPDEST PUSH1 0x0 DUP2 CALLDATALOAD SWAP1 POP PUSH2 0xB77 DUP2 PUSH2 0x123E JUMP JUMPDEST SWAP3 SWAP2 POP POP JUMP JUMPDEST PUSH1 0x0 PUSH1 0x20 DUP3 DUP5 SUB SLT ISZERO PUSH2 0xB8F JUMPI PUSH1 0x0 DUP1 REVERT JUMPDEST PUSH1 0x0 DUP3 ADD CALLDATALOAD PUSH8 0xFFFFFFFFFFFFFFFF DUP2 GT ISZERO PUSH2 0xBA9 JUMPI PUSH1 0x0 DUP1 REVERT JUMPDEST PUSH2 0xBB5 DUP5 DUP3 DUP6 ADD PUSH2 0xB3E JUMP JUMPDEST SWAP2 POP POP SWAP3 SWAP2 POP POP JUMP JUMPDEST PUSH1 0x0 PUSH1 0x20 DUP3 DUP5 SUB SLT ISZERO PUSH2 0xBD0 JUMPI PUSH1 0x0 DUP1 REVERT JUMPDEST PUSH1 0x0 PUSH2 0xBDE DUP5 DUP3 DUP6 ADD PUSH2 0xB68 JUMP JUMPDEST SWAP2 POP POP SWAP3 SWAP2 POP POP JUMP JUMPDEST PUSH1 0x0 DUP1 PUSH1 0x0 DUP1 PUSH1 0x80 DUP6 DUP8 SUB SLT ISZERO PUSH2 0xBFD JUMPI PUSH1 0x0 DUP1 REVERT JUMPDEST PUSH1 0x0 PUSH2 0xC0B DUP8 DUP3 DUP9 ADD PUSH2 0xB68 JUMP JUMPDEST SWAP5 POP POP PUSH1 0x20 PUSH2 0xC1C DUP8 DUP3 DUP9 ADD PUSH2 0xB68 JUMP JUMPDEST SWAP4 POP POP PUSH1 0x40 PUSH2 0xC2D DUP8 DUP3 DUP9 ADD PUSH2 0xB29 JUMP JUMPDEST SWAP3 POP POP PUSH1 0x60 PUSH2 0xC3E DUP8 DUP3 DUP9 ADD PUSH2 0xB68 JUMP JUMPDEST SWAP2 POP POP SWAP3 SWAP6 SWAP2 SWAP5 POP SWAP3 POP JUMP JUMPDEST PUSH2 0xC53 DUP2 PUSH2 0x1083 JUMP JUMPDEST DUP3 MSTORE POP POP JUMP JUMPDEST PUSH2 0xC62 DUP2 PUSH2 0x1083 JUMP JUMPDEST DUP3 MSTORE POP POP JUMP JUMPDEST PUSH1 0x0 PUSH2 0xC73 DUP3 PUSH2 0xE12 JUMP JUMPDEST PUSH2 0xC7D DUP2 DUP6 PUSH2 0xE1D JUMP JUMPDEST SWAP4 POP PUSH2 0xC8D DUP2 DUP6 PUSH1 0x20 DUP7 ADD PUSH2 0x10CE JUMP JUMPDEST PUSH2 0xC96 DUP2 PUSH2 0x1209 JUMP JUMPDEST DUP5 ADD SWAP2 POP POP SWAP3 SWAP2 POP POP JUMP JUMPDEST PUSH1 0x80 DUP3 ADD PUSH1 0x0 DUP3 ADD MLOAD PUSH2 0xCB7 PUSH1 0x0 DUP6 ADD DUP3 PUSH2 0xCF6 JUMP JUMPDEST POP PUSH1 0x20 DUP3 ADD MLOAD PUSH2 0xCCA PUSH1 0x20 DUP6 ADD DUP3 PUSH2 0xCF6 JUMP JUMPDEST POP PUSH1 0x40 DUP3 ADD MLOAD PUSH2 0xCDD PUSH1 0x40 DUP6 ADD DUP3 PUSH2 0xC4A JUMP JUMPDEST POP PUSH1 0x60 DUP3 ADD MLOAD PUSH2 0xCF0 PUSH1 0x60 DUP6 ADD DUP3 PUSH2 0xCF6 JUMP JUMPDEST POP POP POP POP JUMP JUMPDEST PUSH2 0xCFF DUP2 PUSH2 0x10B5 JUMP JUMPDEST DUP3 MSTORE POP POP JUMP JUMPDEST PUSH2 0xD0E DUP2 PUSH2 0x10B5 JUMP JUMPDEST DUP3 MSTORE POP POP JUMP JUMPDEST PUSH1 0x0 PUSH1 0x20 DUP3 ADD SWAP1 POP DUP2 DUP2 SUB PUSH1 0x0 DUP4 ADD MSTORE PUSH2 0xD2E DUP2 DUP5 PUSH2 0xC68 JUMP JUMPDEST SWAP1 POP SWAP3 SWAP2 POP POP JUMP JUMPDEST PUSH1 0x0 PUSH1 0x80 DUP3 ADD SWAP1 POP PUSH2 0xD4B PUSH1 0x0 DUP4 ADD DUP5 PUSH2 0xCA1 JUMP JUMPDEST SWAP3 SWAP2 POP POP JUMP JUMPDEST PUSH1 0x0 PUSH1 0x20 DUP3 ADD SWAP1 POP PUSH2 0xD66 PUSH1 0x0 DUP4 ADD DUP5 PUSH2 0xD05 JUMP JUMPDEST SWAP3 SWAP2 POP POP JUMP JUMPDEST PUSH1 0x0 PUSH1 0x80 DUP3 ADD SWAP1 POP PUSH2 0xD81 PUSH1 0x0 DUP4 ADD DUP8 PUSH2 0xD05 JUMP JUMPDEST PUSH2 0xD8E PUSH1 0x20 DUP4 ADD DUP7 PUSH2 0xD05 JUMP JUMPDEST PUSH2 0xD9B PUSH1 0x40 DUP4 ADD DUP6 PUSH2 0xC59 JUMP JUMPDEST PUSH2 0xDA8 PUSH1 0x60 DUP4 ADD DUP5 PUSH2 0xD05 JUMP JUMPDEST SWAP6 SWAP5 POP POP POP POP POP JUMP JUMPDEST PUSH1 0x0 PUSH1 0x40 MLOAD SWAP1 POP DUP2 DUP2 ADD DUP2 DUP2 LT PUSH8 0xFFFFFFFFFFFFFFFF DUP3 GT OR ISZERO PUSH2 0xDD8 JUMPI PUSH2 0xDD7 PUSH2 0x11DA JUMP JUMPDEST JUMPDEST DUP1 PUSH1 0x40 MSTORE POP SWAP2 SWAP1 POP JUMP JUMPDEST PUSH1 0x0 PUSH8 0xFFFFFFFFFFFFFFFF DUP3 GT ISZERO PUSH2 0xDFD JUMPI PUSH2 0xDFC PUSH2 0x11DA JUMP JUMPDEST JUMPDEST PUSH1 0x1F NOT PUSH1 0x1F DUP4 ADD AND SWAP1 POP PUSH1 0x20 DUP2 ADD SWAP1 POP SWAP2 SWAP1 POP JUMP JUMPDEST PUSH1 0x0 DUP2 MLOAD SWAP1 POP SWAP2 SWAP1 POP JUMP JUMPDEST PUSH1 0x0 DUP3 DUP3 MSTORE PUSH1 0x20 DUP3 ADD SWAP1 POP SWAP3 SWAP2 POP POP JUMP JUMPDEST PUSH1 0x0 PUSH2 0xE39 DUP3 PUSH2 0x10B5 JUMP JUMPDEST SWAP2 POP PUSH2 0xE44 DUP4 PUSH2 0x10B5 JUMP JUMPDEST SWAP3 POP DUP3 PUSH32 0xFFFFFFFFFFFFFFFFFFFFFFFFFFFFFFFFFFFFFFFFFFFFFFFFFFFFFFFFFFFFFFFF SUB DUP3 GT ISZERO PUSH2 0xE79 JUMPI PUSH2 0xE78 PUSH2 0x117C JUMP JUMPDEST JUMPDEST DUP3 DUP3 ADD SWAP1 POP SWAP3 SWAP2 POP POP JUMP JUMPDEST PUSH1 0x0 DUP1 DUP3 SWAP2 POP DUP4 SWAP1 POP JUMPDEST PUSH1 0x1 DUP6 GT ISZERO PUSH2 0xECE JUMPI DUP1 DUP7 DIV DUP2 GT ISZERO PUSH2 0xEAA JUMPI PUSH2 0xEA9 PUSH2 0x117C JUMP JUMPDEST JUMPDEST PUSH1 0x1 DUP6 AND ISZERO PUSH2 0xEB9 JUMPI DUP1 DUP3 MUL SWAP2 POP JUMPDEST DUP1 DUP2 MUL SWAP1 POP PUSH2 0xEC7 DUP6 PUSH2 0x121A JUMP JUMPDEST SWAP5 POP PUSH2 0xE8E JUMP JUMPDEST SWAP5 POP SWAP5 SWAP3 POP POP POP JUMP JUMPDEST PUSH1 0x0 PUSH2 0xEE2 DUP3 PUSH2 0x10B5 JUMP JUMPDEST SWAP2 POP PUSH2 0xEED DUP4 PUSH2 0x10B5 JUMP JUMPDEST SWAP3 POP PUSH2 0xF1A PUSH32 0xFFFFFFFFFFFFFFFFFFFFFFFFFFFFFFFFFFFFFFFFFFFFFFFFFFFFFFFFFFFFFFFF DUP5 DUP5 PUSH2 0xF22 JUMP JUMPDEST SWAP1 POP SWAP3 SWAP2 POP POP JUMP JUMPDEST PUSH1 0x0 DUP3 PUSH2 0xF32 JUMPI PUSH1 0x1 SWAP1 POP PUSH2 0xFEE JUMP JUMPDEST DUP2 PUSH2 0xF40 JUMPI PUSH1 0x0 SWAP1 POP PUSH2 0xFEE JUMP JUMPDEST DUP2 PUSH1 0x1 DUP2 EQ PUSH2 0xF56 JUMPI PUSH1 0x2 DUP2 EQ PUSH2 0xF60 JUMPI PUSH2 0xF8F JUMP JUMPDEST PUSH1 0x1 SWAP2 POP POP PUSH2 0xFEE JUMP JUMPDEST PUSH1 0xFF DUP5 GT ISZERO PUSH2 0xF72 JUMPI PUSH2 0xF71 PUSH2 0x117C JUMP JUMPDEST JUMPDEST DUP4 PUSH1 0x2 EXP SWAP2 POP DUP5 DUP3 GT ISZERO PUSH2 0xF89 JUMPI PUSH2 0xF88 PUSH2 0x117C JUMP JUMPDEST JUMPDEST POP PUSH2 0xFEE JUMP JUMPDEST POP PUSH1 0x20 DUP4 LT PUSH2 0x133 DUP4 LT AND PUSH1 0x4E DUP5 LT PUSH1 0xB DUP5 LT AND OR ISZERO PUSH2 0xFC4 JUMPI DUP3 DUP3 EXP SWAP1 POP DUP4 DUP2 GT ISZERO PUSH2 0xFBF JUMPI PUSH2 0xFBE PUSH2 0x117C JUMP JUMPDEST JUMPDEST PUSH2 0xFEE JUMP JUMPDEST PUSH2 0xFD1 DUP5 DUP5 DUP5 PUSH1 0x1 PUSH2 0xE84 JUMP JUMPDEST SWAP3 POP SWAP1 POP DUP2 DUP5 DIV DUP2 GT ISZERO PUSH2 0xFE8 JUMPI PUSH2 0xFE7 PUSH2 0x117C JUMP JUMPDEST JUMPDEST DUP2 DUP2 MUL SWAP1 POP JUMPDEST SWAP4 SWAP3 POP POP POP JUMP JUMPDEST PUSH1 0x0 PUSH2 0x1000 DUP3 PUSH2 0x10B5 JUMP JUMPDEST SWAP2 POP PUSH2 0x100B DUP4 PUSH2 0x10B5 JUMP JUMPDEST SWAP3 POP DUP2 PUSH32 0xFFFFFFFFFFFFFFFFFFFFFFFFFFFFFFFFFFFFFFFFFFFFFFFFFFFFFFFFFFFFFFFF DIV DUP4 GT DUP3 ISZERO ISZERO AND ISZERO PUSH2 0x1044 JUMPI PUSH2 0x1043 PUSH2 0x117C JUMP JUMPDEST JUMPDEST DUP3 DUP3 MUL SWAP1 POP SWAP3 SWAP2 POP POP JUMP JUMPDEST PUSH1 0x0 PUSH2 0x105A DUP3 PUSH2 0x10B5 JUMP JUMPDEST SWAP2 POP PUSH2 0x1065 DUP4 PUSH2 0x10B5 JUMP JUMPDEST SWAP3 POP DUP3 DUP3 LT ISZERO PUSH2 0x1078 JUMPI PUSH2 0x1077 PUSH2 0x117C JUMP JUMPDEST JUMPDEST DUP3 DUP3 SUB SWAP1 POP SWAP3 SWAP2 POP POP JUMP JUMPDEST PUSH1 0x0 PUSH2 0x108E DUP3 PUSH2 0x1095 JUMP JUMPDEST SWAP1 POP SWAP2 SWAP1 POP JUMP JUMPDEST PUSH1 0x0 PUSH20 0xFFFFFFFFFFFFFFFFFFFFFFFFFFFFFFFFFFFFFFFF DUP3 AND SWAP1 POP SWAP2 SWAP1 POP JUMP JUMPDEST PUSH1 0x0 DUP2 SWAP1 POP SWAP2 SWAP1 POP JUMP JUMPDEST DUP3 DUP2 DUP4 CALLDATACOPY PUSH1 0x0 DUP4 DUP4 ADD MSTORE POP POP POP JUMP JUMPDEST PUSH1 0x0 JUMPDEST DUP4 DUP2 LT ISZERO PUSH2 0x10EC JUMPI DUP1 DUP3 ADD MLOAD DUP2 DUP5 ADD MSTORE PUSH1 0x20 DUP2 ADD SWAP1 POP PUSH2 0x10D1 JUMP JUMPDEST DUP4 DUP2 GT ISZERO PUSH2 0x10FB JUMPI PUSH1 0x0 DUP5 DUP5 ADD MSTORE JUMPDEST POP POP POP POP JUMP JUMPDEST PUSH1 0x0 PUSH1 0x2 DUP3 DIV SWAP1 POP PUSH1 0x1 DUP3 AND DUP1 PUSH2 0x1119 JUMPI PUSH1 0x7F DUP3 AND SWAP2 POP JUMPDEST PUSH1 0x20 DUP3 LT DUP2 EQ ISZERO PUSH2 0x112D JUMPI PUSH2 0x112C PUSH2 0x11AB JUMP JUMPDEST JUMPDEST POP SWAP2 SWAP1 POP JUMP JUMPDEST PUSH1 0x0 PUSH2 0x113E DUP3 PUSH2 0x10B5 JUMP JUMPDEST SWAP2 POP PUSH32 0xFFFFFFFFFFFFFFFFFFFFFFFFFFFFFFFFFFFFFFFFFFFFFFFFFFFFFFFFFFFFFFFF DUP3 EQ ISZERO PUSH2 0x1171 JUMPI PUSH2 0x1170 PUSH2 0x117C JUMP JUMPDEST JUMPDEST PUSH1 0x1 DUP3 ADD SWAP1 POP SWAP2 SWAP1 POP JUMP JUMPDEST PUSH32 0x4E487B7100000000000000000000000000000000000000000000000000000000 PUSH1 0x0 MSTORE PUSH1 0x11 PUSH1 0x4 MSTORE PUSH1 0x24 PUSH1 0x0 REVERT JUMPDEST PUSH32 0x4E487B7100000000000000000000000000000000000000000000000000000000 PUSH1 0x0 MSTORE PUSH1 0x22 PUSH1 0x4 MSTORE PUSH1 0x24 PUSH1 0x0 REVERT JUMPDEST PUSH32 0x4E487B7100000000000000000000000000000000000000000000000000000000 PUSH1 0x0 MSTORE PUSH1 0x41 PUSH1 0x4 MSTORE PUSH1 0x24 PUSH1 0x0 REVERT JUMPDEST PUSH1 0x0 PUSH1 0x1F NOT PUSH1 0x1F DUP4 ADD AND SWAP1 POP SWAP2 SWAP1 POP JUMP JUMPDEST PUSH1 0x0 DUP2 PUSH1 0x1 SHR SWAP1 POP SWAP2 SWAP1 POP JUMP JUMPDEST PUSH2 0x1230 DUP2 PUSH2 0x1083 JUMP JUMPDEST DUP2 EQ PUSH2 0x123B JUMPI PUSH1 0x0 DUP1 REVERT JUMPDEST POP JUMP JUMPDEST PUSH2 0x1247 DUP2 PUSH2 0x10B5 JUMP JUMPDEST DUP2 EQ PUSH2 0x1252 JUMPI PUSH1 0x0 DUP1 REVERT JUMPDEST POP JUMP INVALID LOG2 PUSH5 0x6970667358 0x22 SLT KECCAK256 0x24 PUSH13 0x1859B57E9EAD0CF0B38B216DB1 0xEE SDIV 0xC6 SMOD SLT JUMPI DELEGATECALL LOG0 0xEF 0xE9 0xBC 0xBB SWAP6 0xE4 DUP4 0x27 0x2C PUSH5 0x736F6C6343 STOP ADDMOD STOP STOP CALLER "
				},
				"gasEstimates": {
					"creation": {
						"codeDepositCost": "949400",
						"executionCost": "infinite",
						"totalCost": "infinite"
					},
					"external": {
						"addProposal(uint256,uint256,address,uint256)": "infinite",
						"getProposalStructure(uint256)": "infinite",
						"opopop(uint256)": "infinite",
						"proposalCount()": "1195",
						"proposals(uint256)": "infinite",
						"smt(string)": "infinite"
					}
				},
				"methodIdentifiers": {
					"addProposal(uint256,uint256,address,uint256)": "cae455ee",
					"getProposalStructure(uint256)": "e9d6c6da",
					"opopop(uint256)": "b723a32c",
					"proposalCount()": "da35c664",
					"proposals(uint256)": "013cf08b",
					"smt(string)": "96caabb8"
				}
			},
			"storageLayout": {
				"storage": [
					{
						"astId": 26,
						"contract": "contracts/proposal.sol:TestProposal",
						"label": "proposals",
						"offset": 0,
						"slot": "0",
						"type": "t_mapping(t_uint256,t_struct(Proposal)14_storage)"
					},
					{
						"astId": 28,
						"contract": "contracts/proposal.sol:TestProposal",
						"label": "proposalCount",
						"offset": 0,
						"slot": "1",
						"type": "t_uint256"
					},
					{
						"astId": 85,
						"contract": "contracts/proposal.sol:TestProposal",
						"label": "opopop",
						"offset": 0,
						"slot": "2",
						"type": "t_array(t_string_storage)dyn_storage"
					}
				],
				"types": {
					"t_address": {
						"encoding": "inplace",
						"label": "address",
						"numberOfBytes": "20"
					},
					"t_array(t_string_storage)dyn_storage": {
						"base": "t_string_storage",
						"encoding": "dynamic_array",
						"label": "string[]",
						"numberOfBytes": "32"
					},
					"t_mapping(t_uint256,t_struct(Proposal)14_storage)": {
						"encoding": "mapping",
						"key": "t_uint256",
						"label": "mapping(uint256 => struct TestProposal.Proposal)",
						"numberOfBytes": "32",
						"value": "t_struct(Proposal)14_storage"
					},
					"t_string_storage": {
						"encoding": "bytes",
						"label": "string",
						"numberOfBytes": "32"
					},
					"t_struct(Proposal)14_storage": {
						"encoding": "inplace",
						"label": "struct TestProposal.Proposal",
						"members": [
							{
								"astId": 7,
								"contract": "contracts/proposal.sol:TestProposal",
								"label": "proposalId",
								"offset": 0,
								"slot": "0",
								"type": "t_uint256"
							},
							{
								"astId": 9,
								"contract": "contracts/proposal.sol:TestProposal",
								"label": "proposalStatus",
								"offset": 0,
								"slot": "1",
								"type": "t_uint256"
							},
							{
								"astId": 11,
								"contract": "contracts/proposal.sol:TestProposal",
								"label": "proposalCreator",
								"offset": 0,
								"slot": "2",
								"type": "t_address"
							},
							{
								"astId": 13,
								"contract": "contracts/proposal.sol:TestProposal",
								"label": "proposalNumOfOptions",
								"offset": 0,
								"slot": "3",
								"type": "t_uint256"
							}
						],
						"numberOfBytes": "128"
					},
					"t_uint256": {
						"encoding": "inplace",
						"label": "uint256",
						"numberOfBytes": "32"
					}
				}
			},
			"userdoc": {
				"kind": "user",
				"methods": {},
				"version": 1
			}
		}
	}
}