{
	"contracts/proposal.sol": {
		"TestProposal": {
			"abi": [
				{
					"inputs": [],
					"stateMutability": "nonpayable",
					"type": "constructor"
				},
				{
					"inputs": [
						{
							"internalType": "uint256",
							"name": "_proposalId",
							"type": "uint256"
						},
						{
							"internalType": "uint256",
							"name": "_proposalStatus",
							"type": "uint256"
						},
						{
							"internalType": "address",
							"name": "_proposalCreator",
							"type": "address"
						},
						{
							"internalType": "uint256",
							"name": "_proposalNumOfOptions",
							"type": "uint256"
						}
					],
					"name": "addProposal",
					"outputs": [],
					"stateMutability": "nonpayable",
					"type": "function"
				},
				{
					"inputs": [
						{
							"internalType": "uint256",
							"name": "_proposalId",
							"type": "uint256"
						}
					],
					"name": "getProposalStructure",
					"outputs": [
						{
							"components": [
								{
									"internalType": "uint256",
									"name": "proposalId",
									"type": "uint256"
								},
								{
									"internalType": "uint256",
									"name": "proposalStatus",
									"type": "uint256"
								},
								{
									"internalType": "address",
									"name": "proposalCreator",
									"type": "address"
								},
								{
									"internalType": "uint256",
									"name": "proposalNumOfOptions",
									"type": "uint256"
								}
							],
							"internalType": "struct TestProposal.Proposal",
							"name": "",
							"type": "tuple"
						}
					],
					"stateMutability": "view",
					"type": "function"
				},
				{
					"inputs": [],
					"name": "proposalCount",
					"outputs": [
						{
							"internalType": "uint256",
							"name": "",
							"type": "uint256"
						}
					],
					"stateMutability": "view",
					"type": "function"
				},
				{
					"inputs": [
						{
							"internalType": "uint256",
							"name": "",
							"type": "uint256"
						}
					],
					"name": "proposals",
					"outputs": [
						{
							"internalType": "uint256",
							"name": "proposalId",
							"type": "uint256"
						},
						{
							"internalType": "uint256",
							"name": "proposalStatus",
							"type": "uint256"
						},
						{
							"internalType": "address",
							"name": "proposalCreator",
							"type": "address"
						},
						{
							"internalType": "uint256",
							"name": "proposalNumOfOptions",
							"type": "uint256"
						}
					],
					"stateMutability": "view",
					"type": "function"
				},
				{
					"inputs": [
						{
							"internalType": "string",
							"name": "_options",
							"type": "string"
						}
					],
					"name": "smt",
					"outputs": [
						{
							"internalType": "string[]",
							"name": "",
							"type": "string[]"
						}
					],
					"stateMutability": "view",
					"type": "function"
				}
			],
			"devdoc": {
				"kind": "dev",
				"methods": {},
				"version": 1
			},
			"evm": {
				"assembly": "    /* \"contracts/proposal.sol\":229:1978  contract TestProposal {\r... */\n  mstore(0x40, 0x80)\n    /* \"contracts/proposal.sol\":776:908  constructor() public {\r... */\n  callvalue\n  dup1\n  iszero\n  tag_1\n  jumpi\n  0x00\n  dup1\n  revert\ntag_1:\n  pop\n    /* \"contracts/proposal.sol\":824:825  0 */\n  0x00\n    /* \"contracts/proposal.sol\":808:821  proposalCount */\n  0x01\n    /* \"contracts/proposal.sol\":808:825  proposalCount = 0 */\n  dup2\n  swap1\n  sstore\n  pop\n    /* \"contracts/proposal.sol\":836:900  addProposal(1, 1, 0xB5dea2661dfa4b8f0aaE8Bc1F583369D927c3b06, 3) */\n  tag_4\n    /* \"contracts/proposal.sol\":848:849  1 */\n  0x01\n    /* \"contracts/proposal.sol\":851:852  1 */\n  dup1\n    /* \"contracts/proposal.sol\":854:896  0xB5dea2661dfa4b8f0aaE8Bc1F583369D927c3b06 */\n  0xb5dea2661dfa4b8f0aae8bc1f583369d927c3b06\n    /* \"contracts/proposal.sol\":898:899  3 */\n  0x03\n    /* \"contracts/proposal.sol\":836:847  addProposal */\n  shl(0x20, tag_5)\n    /* \"contracts/proposal.sol\":836:900  addProposal(1, 1, 0xB5dea2661dfa4b8f0aaE8Bc1F583369D927c3b06, 3) */\n  0x20\n  shr\n  jump\t// in\ntag_4:\n    /* \"contracts/proposal.sol\":229:1978  contract TestProposal {\r... */\n  jump(tag_6)\n    /* \"contracts/proposal.sol\":916:1189  function addProposal(uint _proposalId, uint _proposalStatus, address _proposalCreator, uint _proposalNumOfOptions) public {\r... */\ntag_5:\n    /* \"contracts/proposal.sol\":1076:1155  Proposal(_proposalId, _proposalStatus, _proposalCreator, _proposalNumOfOptions) */\n  mload(0x40)\n  dup1\n  0x80\n  add\n  0x40\n  mstore\n  dup1\n    /* \"contracts/proposal.sol\":1085:1096  _proposalId */\n  dup6\n    /* \"contracts/proposal.sol\":1076:1155  Proposal(_proposalId, _proposalStatus, _proposalCreator, _proposalNumOfOptions) */\n  dup2\n  mstore\n  0x20\n  add\n    /* \"contracts/proposal.sol\":1098:1113  _proposalStatus */\n  dup5\n    /* \"contracts/proposal.sol\":1076:1155  Proposal(_proposalId, _proposalStatus, _proposalCreator, _proposalNumOfOptions) */\n  dup2\n  mstore\n  0x20\n  add\n    /* \"contracts/proposal.sol\":1115:1131  _proposalCreator */\n  dup4\n    /* \"contracts/proposal.sol\":1076:1155  Proposal(_proposalId, _proposalStatus, _proposalCreator, _proposalNumOfOptions) */\n  0xffffffffffffffffffffffffffffffffffffffff\n  and\n  dup2\n  mstore\n  0x20\n  add\n    /* \"contracts/proposal.sol\":1133:1154  _proposalNumOfOptions */\n  dup3\n    /* \"contracts/proposal.sol\":1076:1155  Proposal(_proposalId, _proposalStatus, _proposalCreator, _proposalNumOfOptions) */\n  dup2\n  mstore\n  pop\n    /* \"contracts/proposal.sol\":1049:1058  proposals */\n  0x00\n    /* \"contracts/proposal.sol\":1049:1073  proposals[proposalCount] */\n  dup1\n    /* \"contracts/proposal.sol\":1059:1072  proposalCount */\n  sload(0x01)\n    /* \"contracts/proposal.sol\":1049:1073  proposals[proposalCount] */\n  dup2\n  mstore\n  0x20\n  add\n  swap1\n  dup2\n  mstore\n  0x20\n  add\n  0x00\n  keccak256\n    /* \"contracts/proposal.sol\":1049:1155  proposals[proposalCount] = Proposal(_proposalId, _proposalStatus, _proposalCreator, _proposalNumOfOptions) */\n  0x00\n  dup3\n  add\n  mload\n  dup2\n  0x00\n  add\n  sstore\n  0x20\n  dup3\n  add\n  mload\n  dup2\n  0x01\n  add\n  sstore\n  0x40\n  dup3\n  add\n  mload\n  dup2\n  0x02\n  add\n  exp(0x0100, 0x00)\n  dup2\n  sload\n  dup2\n  0xffffffffffffffffffffffffffffffffffffffff\n  mul\n  not\n  and\n  swap1\n  dup4\n  0xffffffffffffffffffffffffffffffffffffffff\n  and\n  mul\n  or\n  swap1\n  sstore\n  pop\n  0x60\n  dup3\n  add\n  mload\n  dup2\n  0x03\n  add\n  sstore\n  swap1\n  pop\n  pop\n    /* \"contracts/proposal.sol\":1166:1179  proposalCount */\n  0x01\n  0x00\n    /* \"contracts/proposal.sol\":1166:1181  proposalCount++ */\n  dup2\n  sload\n  dup1\n  swap3\n  swap2\n  swap1\n  tag_8\n  swap1\n  tag_9\n  jump\t// in\ntag_8:\n  swap2\n  swap1\n  pop\n  sstore\n  pop\n    /* \"contracts/proposal.sol\":916:1189  function addProposal(uint _proposalId, uint _proposalStatus, address _proposalCreator, uint _proposalNumOfOptions) public {\r... */\n  pop\n  pop\n  pop\n  pop\n  jump\t// out\n    /* \"#utility.yul\":7:84   */\ntag_11:\n  0x00\n    /* \"#utility.yul\":73:78   */\n  dup2\n    /* \"#utility.yul\":62:78   */\n  swap1\n  pop\n    /* \"#utility.yul\":52:84   */\n  swap2\n  swap1\n  pop\n  jump\t// out\n    /* \"#utility.yul\":90:323   */\ntag_9:\n  0x00\n    /* \"#utility.yul\":152:176   */\n  tag_14\n    /* \"#utility.yul\":170:175   */\n  dup3\n    /* \"#utility.yul\":152:176   */\n  tag_11\n  jump\t// in\ntag_14:\n    /* \"#utility.yul\":143:176   */\n  swap2\n  pop\n    /* \"#utility.yul\":198:264   */\n  0xffffffffffffffffffffffffffffffffffffffffffffffffffffffffffffffff\n    /* \"#utility.yul\":191:196   */\n  dup3\n    /* \"#utility.yul\":188:265   */\n  eq\n    /* \"#utility.yul\":185:187   */\n  iszero\n  tag_15\n  jumpi\n    /* \"#utility.yul\":268:286   */\n  tag_16\n  tag_17\n  jump\t// in\ntag_16:\n    /* \"#utility.yul\":185:187   */\ntag_15:\n    /* \"#utility.yul\":315:316   */\n  0x01\n    /* \"#utility.yul\":308:313   */\n  dup3\n    /* \"#utility.yul\":304:317   */\n  add\n    /* \"#utility.yul\":297:317   */\n  swap1\n  pop\n    /* \"#utility.yul\":133:323   */\n  swap2\n  swap1\n  pop\n  jump\t// out\n    /* \"#utility.yul\":329:509   */\ntag_17:\n    /* \"#utility.yul\":377:454   */\n  0x4e487b7100000000000000000000000000000000000000000000000000000000\n    /* \"#utility.yul\":374:375   */\n  0x00\n    /* \"#utility.yul\":367:455   */\n  mstore\n    /* \"#utility.yul\":474:478   */\n  0x11\n    /* \"#utility.yul\":471:472   */\n  0x04\n    /* \"#utility.yul\":464:479   */\n  mstore\n    /* \"#utility.yul\":498:502   */\n  0x24\n    /* \"#utility.yul\":495:496   */\n  0x00\n    /* \"#utility.yul\":488:503   */\n  revert\n    /* \"contracts/proposal.sol\":229:1978  contract TestProposal {\r... */\ntag_6:\n  dataSize(sub_0)\n  dup1\n  dataOffset(sub_0)\n  0x00\n  codecopy\n  0x00\n  return\nstop\n\nsub_0: assembly {\n        /* \"contracts/proposal.sol\":229:1978  contract TestProposal {\r... */\n      mstore(0x40, 0x80)\n      callvalue\n      dup1\n      iszero\n      tag_1\n      jumpi\n      0x00\n      dup1\n      revert\n    tag_1:\n      pop\n      jumpi(tag_2, lt(calldatasize, 0x04))\n      shr(0xe0, calldataload(0x00))\n      dup1\n      0x013cf08b\n      eq\n      tag_3\n      jumpi\n      dup1\n      0x96caabb8\n      eq\n      tag_4\n      jumpi\n      dup1\n      0xcae455ee\n      eq\n      tag_5\n      jumpi\n      dup1\n      0xda35c664\n      eq\n      tag_6\n      jumpi\n      dup1\n      0xe9d6c6da\n      eq\n      tag_7\n      jumpi\n    tag_2:\n      0x00\n      dup1\n      revert\n        /* \"contracts/proposal.sol\":639:682  mapping (uint => Proposal) public proposals */\n    tag_3:\n      tag_8\n      0x04\n      dup1\n      calldatasize\n      sub\n      dup2\n      add\n      swap1\n      tag_9\n      swap2\n      swap1\n      tag_10\n      jump\t// in\n    tag_9:\n      tag_11\n      jump\t// in\n    tag_8:\n      mload(0x40)\n      tag_12\n      swap5\n      swap4\n      swap3\n      swap2\n      swap1\n      tag_13\n      jump\t// in\n    tag_12:\n      mload(0x40)\n      dup1\n      swap2\n      sub\n      swap1\n      return\n        /* \"contracts/proposal.sol\":1371:1974  function smt(string memory _options) public view returns(string[] memory){                                               \r... */\n    tag_4:\n      tag_14\n      0x04\n      dup1\n      calldatasize\n      sub\n      dup2\n      add\n      swap1\n      tag_15\n      swap2\n      swap1\n      tag_16\n      jump\t// in\n    tag_15:\n      tag_17\n      jump\t// in\n    tag_14:\n      mload(0x40)\n      tag_18\n      swap2\n      swap1\n      tag_19\n      jump\t// in\n    tag_18:\n      mload(0x40)\n      dup1\n      swap2\n      sub\n      swap1\n      return\n        /* \"contracts/proposal.sol\":916:1189  function addProposal(uint _proposalId, uint _proposalStatus, address _proposalCreator, uint _proposalNumOfOptions) public {\r... */\n    tag_5:\n      tag_20\n      0x04\n      dup1\n      calldatasize\n      sub\n      dup2\n      add\n      swap1\n      tag_21\n      swap2\n      swap1\n      tag_22\n      jump\t// in\n    tag_21:\n      tag_23\n      jump\t// in\n    tag_20:\n      stop\n        /* \"contracts/proposal.sol\":742:767  uint public proposalCount */\n    tag_6:\n      tag_24\n      tag_25\n      jump\t// in\n    tag_24:\n      mload(0x40)\n      tag_26\n      swap2\n      swap1\n      tag_27\n      jump\t// in\n    tag_26:\n      mload(0x40)\n      dup1\n      swap2\n      sub\n      swap1\n      return\n        /* \"contracts/proposal.sol\":1197:1329  function getProposalStructure(uint _proposalId) public view returns(Proposal memory){\r... */\n    tag_7:\n      tag_28\n      0x04\n      dup1\n      calldatasize\n      sub\n      dup2\n      add\n      swap1\n      tag_29\n      swap2\n      swap1\n      tag_10\n      jump\t// in\n    tag_29:\n      tag_30\n      jump\t// in\n    tag_28:\n      mload(0x40)\n      tag_31\n      swap2\n      swap1\n      tag_32\n      jump\t// in\n    tag_31:\n      mload(0x40)\n      dup1\n      swap2\n      sub\n      swap1\n      return\n        /* \"contracts/proposal.sol\":639:682  mapping (uint => Proposal) public proposals */\n    tag_11:\n      mstore(0x20, 0x00)\n      dup1\n      0x00\n      mstore\n      keccak256(0x00, 0x40)\n      0x00\n      swap2\n      pop\n      swap1\n      pop\n      dup1\n      0x00\n      add\n      sload\n      swap1\n      dup1\n      0x01\n      add\n      sload\n      swap1\n      dup1\n      0x02\n      add\n      0x00\n      swap1\n      sload\n      swap1\n      0x0100\n      exp\n      swap1\n      div\n      0xffffffffffffffffffffffffffffffffffffffff\n      and\n      swap1\n      dup1\n      0x03\n      add\n      sload\n      swap1\n      pop\n      dup5\n      jump\t// out\n        /* \"contracts/proposal.sol\":1371:1974  function smt(string memory _options) public view returns(string[] memory){                                               \r... */\n    tag_17:\n        /* \"contracts/proposal.sol\":1428:1443  string[] memory */\n      0x60\n        /* \"contracts/proposal.sol\":1502:1524  strings.slice memory s */\n      0x00\n        /* \"contracts/proposal.sol\":1527:1545  _options.toSlice() */\n      tag_34\n        /* \"contracts/proposal.sol\":1527:1535  _options */\n      dup4\n        /* \"contracts/proposal.sol\":1527:1543  _options.toSlice */\n      tag_35\n        /* \"contracts/proposal.sol\":1527:1545  _options.toSlice() */\n      jump\t// in\n    tag_34:\n        /* \"contracts/proposal.sol\":1502:1545  strings.slice memory s = _options.toSlice() */\n      swap1\n      pop\n        /* \"contracts/proposal.sol\":1572:1598  strings.slice memory delim */\n      0x00\n        /* \"contracts/proposal.sol\":1601:1614  \"-\".toSlice() */\n      tag_36\n        /* \"contracts/proposal.sol\":1601:1612  \"-\".toSlice */\n      mload(0x40)\n      dup1\n      0x40\n      add\n      0x40\n      mstore\n      dup1\n      0x01\n      dup2\n      mstore\n      0x20\n      add\n      0x2d00000000000000000000000000000000000000000000000000000000000000\n      dup2\n      mstore\n      pop\n      tag_35\n        /* \"contracts/proposal.sol\":1601:1614  \"-\".toSlice() */\n      jump\t// in\n    tag_36:\n        /* \"contracts/proposal.sol\":1572:1614  strings.slice memory delim = \"-\".toSlice() */\n      swap1\n      pop\n        /* \"contracts/proposal.sol\":1653:1674  string[] memory parts */\n      0x00\n        /* \"contracts/proposal.sol\":1690:1704  s.count(delim) */\n      tag_37\n        /* \"contracts/proposal.sol\":1698:1703  delim */\n      dup3\n        /* \"contracts/proposal.sol\":1690:1691  s */\n      dup5\n        /* \"contracts/proposal.sol\":1690:1697  s.count */\n      tag_38\n      swap1\n        /* \"contracts/proposal.sol\":1690:1704  s.count(delim) */\n      swap2\n      swap1\n      0xffffffff\n      and\n      jump\t// in\n    tag_37:\n        /* \"contracts/proposal.sol\":1677:1705  new string[](s.count(delim)) */\n      0xffffffffffffffff\n      dup2\n      gt\n      iszero\n      tag_39\n      jumpi\n      mstore(0x00, 0x4e487b7100000000000000000000000000000000000000000000000000000000)\n      mstore(0x04, 0x41)\n      revert(0x00, 0x24)\n    tag_39:\n      mload(0x40)\n      swap1\n      dup1\n      dup3\n      mstore\n      dup1\n      0x20\n      mul\n      0x20\n      add\n      dup3\n      add\n      0x40\n      mstore\n      dup1\n      iszero\n      tag_40\n      jumpi\n      dup2\n      0x20\n      add\n    tag_41:\n      0x60\n      dup2\n      mstore\n      0x20\n      add\n      swap1\n      0x01\n      swap1\n      sub\n      swap1\n      dup2\n      tag_41\n      jumpi\n      swap1\n      pop\n    tag_40:\n      pop\n        /* \"contracts/proposal.sol\":1653:1705  string[] memory parts = new string[](s.count(delim)) */\n      swap1\n      pop\n        /* \"contracts/proposal.sol\":1739:1745  uint i */\n      0x00\n        /* \"contracts/proposal.sol\":1734:1897  for (uint i = 0; i < parts.length; i++) {                              \r... */\n    tag_42:\n        /* \"contracts/proposal.sol\":1755:1760  parts */\n      dup2\n        /* \"contracts/proposal.sol\":1755:1767  parts.length */\n      mload\n        /* \"contracts/proposal.sol\":1751:1752  i */\n      dup2\n        /* \"contracts/proposal.sol\":1751:1767  i < parts.length */\n      lt\n        /* \"contracts/proposal.sol\":1734:1897  for (uint i = 0; i < parts.length; i++) {                              \r... */\n      iszero\n      tag_43\n      jumpi\n        /* \"contracts/proposal.sol\":1829:1854  s.split(delim).toString() */\n      tag_45\n        /* \"contracts/proposal.sol\":1829:1843  s.split(delim) */\n      tag_46\n        /* \"contracts/proposal.sol\":1837:1842  delim */\n      dup5\n        /* \"contracts/proposal.sol\":1829:1830  s */\n      dup7\n        /* \"contracts/proposal.sol\":1829:1836  s.split */\n      tag_47\n      swap1\n        /* \"contracts/proposal.sol\":1829:1843  s.split(delim) */\n      swap2\n      swap1\n      0xffffffff\n      and\n      jump\t// in\n    tag_46:\n        /* \"contracts/proposal.sol\":1829:1852  s.split(delim).toString */\n      tag_48\n        /* \"contracts/proposal.sol\":1829:1854  s.split(delim).toString() */\n      jump\t// in\n    tag_45:\n        /* \"contracts/proposal.sol\":1818:1823  parts */\n      dup3\n        /* \"contracts/proposal.sol\":1824:1825  i */\n      dup3\n        /* \"contracts/proposal.sol\":1818:1826  parts[i] */\n      dup2\n      mload\n      dup2\n      lt\n      tag_49\n      jumpi\n      mstore(0x00, 0x4e487b7100000000000000000000000000000000000000000000000000000000)\n      mstore(0x04, 0x32)\n      revert(0x00, 0x24)\n    tag_49:\n      0x20\n      mul\n      0x20\n      add\n      add\n        /* \"contracts/proposal.sol\":1818:1854  parts[i] = s.split(delim).toString() */\n      dup2\n      swap1\n      mstore\n      pop\n        /* \"contracts/proposal.sol\":1769:1772  i++ */\n      dup1\n      dup1\n      tag_50\n      swap1\n      tag_51\n      jump\t// in\n    tag_50:\n      swap2\n      pop\n      pop\n        /* \"contracts/proposal.sol\":1734:1897  for (uint i = 0; i < parts.length; i++) {                              \r... */\n      jump(tag_42)\n    tag_43:\n      pop\n        /* \"contracts/proposal.sol\":1371:1974  function smt(string memory _options) public view returns(string[] memory){                                               \r... */\n      pop\n      pop\n      pop\n      swap2\n      swap1\n      pop\n      jump\t// out\n        /* \"contracts/proposal.sol\":916:1189  function addProposal(uint _proposalId, uint _proposalStatus, address _proposalCreator, uint _proposalNumOfOptions) public {\r... */\n    tag_23:\n        /* \"contracts/proposal.sol\":1076:1155  Proposal(_proposalId, _proposalStatus, _proposalCreator, _proposalNumOfOptions) */\n      mload(0x40)\n      dup1\n      0x80\n      add\n      0x40\n      mstore\n      dup1\n        /* \"contracts/proposal.sol\":1085:1096  _proposalId */\n      dup6\n        /* \"contracts/proposal.sol\":1076:1155  Proposal(_proposalId, _proposalStatus, _proposalCreator, _proposalNumOfOptions) */\n      dup2\n      mstore\n      0x20\n      add\n        /* \"contracts/proposal.sol\":1098:1113  _proposalStatus */\n      dup5\n        /* \"contracts/proposal.sol\":1076:1155  Proposal(_proposalId, _proposalStatus, _proposalCreator, _proposalNumOfOptions) */\n      dup2\n      mstore\n      0x20\n      add\n        /* \"contracts/proposal.sol\":1115:1131  _proposalCreator */\n      dup4\n        /* \"contracts/proposal.sol\":1076:1155  Proposal(_proposalId, _proposalStatus, _proposalCreator, _proposalNumOfOptions) */\n      0xffffffffffffffffffffffffffffffffffffffff\n      and\n      dup2\n      mstore\n      0x20\n      add\n        /* \"contracts/proposal.sol\":1133:1154  _proposalNumOfOptions */\n      dup3\n        /* \"contracts/proposal.sol\":1076:1155  Proposal(_proposalId, _proposalStatus, _proposalCreator, _proposalNumOfOptions) */\n      dup2\n      mstore\n      pop\n        /* \"contracts/proposal.sol\":1049:1058  proposals */\n      0x00\n        /* \"contracts/proposal.sol\":1049:1073  proposals[proposalCount] */\n      dup1\n        /* \"contracts/proposal.sol\":1059:1072  proposalCount */\n      sload(0x01)\n        /* \"contracts/proposal.sol\":1049:1073  proposals[proposalCount] */\n      dup2\n      mstore\n      0x20\n      add\n      swap1\n      dup2\n      mstore\n      0x20\n      add\n      0x00\n      keccak256\n        /* \"contracts/proposal.sol\":1049:1155  proposals[proposalCount] = Proposal(_proposalId, _proposalStatus, _proposalCreator, _proposalNumOfOptions) */\n      0x00\n      dup3\n      add\n      mload\n      dup2\n      0x00\n      add\n      sstore\n      0x20\n      dup3\n      add\n      mload\n      dup2\n      0x01\n      add\n      sstore\n      0x40\n      dup3\n      add\n      mload\n      dup2\n      0x02\n      add\n      exp(0x0100, 0x00)\n      dup2\n      sload\n      dup2\n      0xffffffffffffffffffffffffffffffffffffffff\n      mul\n      not\n      and\n      swap1\n      dup4\n      0xffffffffffffffffffffffffffffffffffffffff\n      and\n      mul\n      or\n      swap1\n      sstore\n      pop\n      0x60\n      dup3\n      add\n      mload\n      dup2\n      0x03\n      add\n      sstore\n      swap1\n      pop\n      pop\n        /* \"contracts/proposal.sol\":1166:1179  proposalCount */\n      0x01\n      0x00\n        /* \"contracts/proposal.sol\":1166:1181  proposalCount++ */\n      dup2\n      sload\n      dup1\n      swap3\n      swap2\n      swap1\n      tag_53\n      swap1\n      tag_51\n      jump\t// in\n    tag_53:\n      swap2\n      swap1\n      pop\n      sstore\n      pop\n        /* \"contracts/proposal.sol\":916:1189  function addProposal(uint _proposalId, uint _proposalStatus, address _proposalCreator, uint _proposalNumOfOptions) public {\r... */\n      pop\n      pop\n      pop\n      pop\n      jump\t// out\n        /* \"contracts/proposal.sol\":742:767  uint public proposalCount */\n    tag_25:\n      sload(0x01)\n      dup2\n      jump\t// out\n        /* \"contracts/proposal.sol\":1197:1329  function getProposalStructure(uint _proposalId) public view returns(Proposal memory){\r... */\n    tag_30:\n        /* \"contracts/proposal.sol\":1265:1280  Proposal memory */\n      tag_54\n      tag_55\n      jump\t// in\n    tag_54:\n        /* \"contracts/proposal.sol\":1299:1308  proposals */\n      0x00\n        /* \"contracts/proposal.sol\":1299:1321  proposals[_proposalId] */\n      dup1\n        /* \"contracts/proposal.sol\":1309:1320  _proposalId */\n      dup4\n        /* \"contracts/proposal.sol\":1299:1321  proposals[_proposalId] */\n      dup2\n      mstore\n      0x20\n      add\n      swap1\n      dup2\n      mstore\n      0x20\n      add\n      0x00\n      keccak256\n        /* \"contracts/proposal.sol\":1292:1321  return proposals[_proposalId] */\n      mload(0x40)\n      dup1\n      0x80\n      add\n      0x40\n      mstore\n      swap1\n      dup2\n      0x00\n      dup3\n      add\n      sload\n      dup2\n      mstore\n      0x20\n      add\n      0x01\n      dup3\n      add\n      sload\n      dup2\n      mstore\n      0x20\n      add\n      0x02\n      dup3\n      add\n      0x00\n      swap1\n      sload\n      swap1\n      0x0100\n      exp\n      swap1\n      div\n      0xffffffffffffffffffffffffffffffffffffffff\n      and\n      0xffffffffffffffffffffffffffffffffffffffff\n      and\n      0xffffffffffffffffffffffffffffffffffffffff\n      and\n      dup2\n      mstore\n      0x20\n      add\n      0x03\n      dup3\n      add\n      sload\n      dup2\n      mstore\n      pop\n      pop\n      swap1\n      pop\n        /* \"contracts/proposal.sol\":1197:1329  function getProposalStructure(uint _proposalId) public view returns(Proposal memory){\r... */\n      swap2\n      swap1\n      pop\n      jump\t// out\n        /* \"https://github.com/Arachnid/solidity-stringutils/blob/master/src/strings.sol\":2904:3114  function toSlice(string memory self) internal pure returns (slice memory) {... */\n    tag_35:\n        /* \"https://github.com/Arachnid/solidity-stringutils/blob/master/src/strings.sol\":2964:2976  slice memory */\n      tag_57\n      tag_58\n      jump\t// in\n    tag_57:\n        /* \"https://github.com/Arachnid/solidity-stringutils/blob/master/src/strings.sol\":2988:2996  uint ptr */\n      0x00\n        /* \"https://github.com/Arachnid/solidity-stringutils/blob/master/src/strings.sol\":3046:3050  0x20 */\n      0x20\n        /* \"https://github.com/Arachnid/solidity-stringutils/blob/master/src/strings.sol\":3040:3044  self */\n      dup4\n        /* \"https://github.com/Arachnid/solidity-stringutils/blob/master/src/strings.sol\":3036:3051  add(self, 0x20) */\n      add\n        /* \"https://github.com/Arachnid/solidity-stringutils/blob/master/src/strings.sol\":3029:3051  ptr := add(self, 0x20) */\n      swap1\n      pop\n        /* \"https://github.com/Arachnid/solidity-stringutils/blob/master/src/strings.sol\":3077:3107  slice(bytes(self).length, ptr) */\n      mload(0x40)\n      dup1\n      0x40\n      add\n      0x40\n      mstore\n      dup1\n        /* \"https://github.com/Arachnid/solidity-stringutils/blob/master/src/strings.sol\":3089:3093  self */\n      dup5\n        /* \"https://github.com/Arachnid/solidity-stringutils/blob/master/src/strings.sol\":3083:3101  bytes(self).length */\n      mload\n        /* \"https://github.com/Arachnid/solidity-stringutils/blob/master/src/strings.sol\":3077:3107  slice(bytes(self).length, ptr) */\n      dup2\n      mstore\n      0x20\n      add\n        /* \"https://github.com/Arachnid/solidity-stringutils/blob/master/src/strings.sol\":3103:3106  ptr */\n      dup3\n        /* \"https://github.com/Arachnid/solidity-stringutils/blob/master/src/strings.sol\":3077:3107  slice(bytes(self).length, ptr) */\n      dup2\n      mstore\n      pop\n        /* \"https://github.com/Arachnid/solidity-stringutils/blob/master/src/strings.sol\":3070:3107  return slice(bytes(self).length, ptr) */\n      swap2\n      pop\n      pop\n        /* \"https://github.com/Arachnid/solidity-stringutils/blob/master/src/strings.sol\":2904:3114  function toSlice(string memory self) internal pure returns (slice memory) {... */\n      swap2\n      swap1\n      pop\n      jump\t// out\n        /* \"https://github.com/Arachnid/solidity-stringutils/blob/master/src/strings.sol\":23194:23558  function count(slice memory self, slice memory needle) internal pure returns (uint cnt) {... */\n    tag_38:\n        /* \"https://github.com/Arachnid/solidity-stringutils/blob/master/src/strings.sol\":23272:23280  uint cnt */\n      0x00\n        /* \"https://github.com/Arachnid/solidity-stringutils/blob/master/src/strings.sol\":23292:23300  uint ptr */\n      dup1\n        /* \"https://github.com/Arachnid/solidity-stringutils/blob/master/src/strings.sol\":23361:23367  needle */\n      dup3\n        /* \"https://github.com/Arachnid/solidity-stringutils/blob/master/src/strings.sol\":23361:23372  needle._len */\n      0x00\n      add\n      mload\n        /* \"https://github.com/Arachnid/solidity-stringutils/blob/master/src/strings.sol\":23303:23358  findPtr(self._len, self._ptr, needle._len, needle._ptr) */\n      tag_61\n        /* \"https://github.com/Arachnid/solidity-stringutils/blob/master/src/strings.sol\":23311:23315  self */\n      dup6\n        /* \"https://github.com/Arachnid/solidity-stringutils/blob/master/src/strings.sol\":23311:23320  self._len */\n      0x00\n      add\n      mload\n        /* \"https://github.com/Arachnid/solidity-stringutils/blob/master/src/strings.sol\":23322:23326  self */\n      dup7\n        /* \"https://github.com/Arachnid/solidity-stringutils/blob/master/src/strings.sol\":23322:23331  self._ptr */\n      0x20\n      add\n      mload\n        /* \"https://github.com/Arachnid/solidity-stringutils/blob/master/src/strings.sol\":23333:23339  needle */\n      dup7\n        /* \"https://github.com/Arachnid/solidity-stringutils/blob/master/src/strings.sol\":23333:23344  needle._len */\n      0x00\n      add\n      mload\n        /* \"https://github.com/Arachnid/solidity-stringutils/blob/master/src/strings.sol\":23346:23352  needle */\n      dup8\n        /* \"https://github.com/Arachnid/solidity-stringutils/blob/master/src/strings.sol\":23346:23357  needle._ptr */\n      0x20\n      add\n      mload\n        /* \"https://github.com/Arachnid/solidity-stringutils/blob/master/src/strings.sol\":23303:23310  findPtr */\n      tag_62\n        /* \"https://github.com/Arachnid/solidity-stringutils/blob/master/src/strings.sol\":23303:23358  findPtr(self._len, self._ptr, needle._len, needle._ptr) */\n      jump\t// in\n    tag_61:\n        /* \"https://github.com/Arachnid/solidity-stringutils/blob/master/src/strings.sol\":23303:23372  findPtr(self._len, self._ptr, needle._len, needle._ptr) + needle._len */\n      tag_63\n      swap2\n      swap1\n      tag_64\n      jump\t// in\n    tag_63:\n        /* \"https://github.com/Arachnid/solidity-stringutils/blob/master/src/strings.sol\":23292:23372  uint ptr = findPtr(self._len, self._ptr, needle._len, needle._ptr) + needle._len */\n      swap1\n      pop\n        /* \"https://github.com/Arachnid/solidity-stringutils/blob/master/src/strings.sol\":23382:23552  while (ptr <= self._ptr + self._len) {... */\n    tag_65:\n        /* \"https://github.com/Arachnid/solidity-stringutils/blob/master/src/strings.sol\":23408:23412  self */\n      dup4\n        /* \"https://github.com/Arachnid/solidity-stringutils/blob/master/src/strings.sol\":23408:23417  self._len */\n      0x00\n      add\n      mload\n        /* \"https://github.com/Arachnid/solidity-stringutils/blob/master/src/strings.sol\":23396:23400  self */\n      dup5\n        /* \"https://github.com/Arachnid/solidity-stringutils/blob/master/src/strings.sol\":23396:23405  self._ptr */\n      0x20\n      add\n      mload\n        /* \"https://github.com/Arachnid/solidity-stringutils/blob/master/src/strings.sol\":23396:23417  self._ptr + self._len */\n      tag_67\n      swap2\n      swap1\n      tag_64\n      jump\t// in\n    tag_67:\n        /* \"https://github.com/Arachnid/solidity-stringutils/blob/master/src/strings.sol\":23389:23392  ptr */\n      dup2\n        /* \"https://github.com/Arachnid/solidity-stringutils/blob/master/src/strings.sol\":23389:23417  ptr <= self._ptr + self._len */\n      gt\n        /* \"https://github.com/Arachnid/solidity-stringutils/blob/master/src/strings.sol\":23382:23552  while (ptr <= self._ptr + self._len) {... */\n      tag_66\n      jumpi\n        /* \"https://github.com/Arachnid/solidity-stringutils/blob/master/src/strings.sol\":23433:23438  cnt++ */\n      dup2\n      dup1\n      tag_68\n      swap1\n      tag_51\n      jump\t// in\n    tag_68:\n      swap3\n      pop\n      pop\n        /* \"https://github.com/Arachnid/solidity-stringutils/blob/master/src/strings.sol\":23530:23536  needle */\n      dup3\n        /* \"https://github.com/Arachnid/solidity-stringutils/blob/master/src/strings.sol\":23530:23541  needle._len */\n      0x00\n      add\n      mload\n        /* \"https://github.com/Arachnid/solidity-stringutils/blob/master/src/strings.sol\":23458:23527  findPtr(self._len - (ptr - self._ptr), ptr, needle._len, needle._ptr) */\n      tag_69\n        /* \"https://github.com/Arachnid/solidity-stringutils/blob/master/src/strings.sol\":23485:23489  self */\n      dup6\n        /* \"https://github.com/Arachnid/solidity-stringutils/blob/master/src/strings.sol\":23485:23494  self._ptr */\n      0x20\n      add\n      mload\n        /* \"https://github.com/Arachnid/solidity-stringutils/blob/master/src/strings.sol\":23479:23482  ptr */\n      dup4\n        /* \"https://github.com/Arachnid/solidity-stringutils/blob/master/src/strings.sol\":23479:23494  ptr - self._ptr */\n      tag_70\n      swap2\n      swap1\n      tag_71\n      jump\t// in\n    tag_70:\n        /* \"https://github.com/Arachnid/solidity-stringutils/blob/master/src/strings.sol\":23466:23470  self */\n      dup7\n        /* \"https://github.com/Arachnid/solidity-stringutils/blob/master/src/strings.sol\":23466:23475  self._len */\n      0x00\n      add\n      mload\n        /* \"https://github.com/Arachnid/solidity-stringutils/blob/master/src/strings.sol\":23466:23495  self._len - (ptr - self._ptr) */\n      tag_72\n      swap2\n      swap1\n      tag_71\n      jump\t// in\n    tag_72:\n        /* \"https://github.com/Arachnid/solidity-stringutils/blob/master/src/strings.sol\":23497:23500  ptr */\n      dup4\n        /* \"https://github.com/Arachnid/solidity-stringutils/blob/master/src/strings.sol\":23502:23508  needle */\n      dup7\n        /* \"https://github.com/Arachnid/solidity-stringutils/blob/master/src/strings.sol\":23502:23513  needle._len */\n      0x00\n      add\n      mload\n        /* \"https://github.com/Arachnid/solidity-stringutils/blob/master/src/strings.sol\":23515:23521  needle */\n      dup8\n        /* \"https://github.com/Arachnid/solidity-stringutils/blob/master/src/strings.sol\":23515:23526  needle._ptr */\n      0x20\n      add\n      mload\n        /* \"https://github.com/Arachnid/solidity-stringutils/blob/master/src/strings.sol\":23458:23465  findPtr */\n      tag_62\n        /* \"https://github.com/Arachnid/solidity-stringutils/blob/master/src/strings.sol\":23458:23527  findPtr(self._len - (ptr - self._ptr), ptr, needle._len, needle._ptr) */\n      jump\t// in\n    tag_69:\n        /* \"https://github.com/Arachnid/solidity-stringutils/blob/master/src/strings.sol\":23458:23541  findPtr(self._len - (ptr - self._ptr), ptr, needle._len, needle._ptr) + needle._len */\n      tag_73\n      swap2\n      swap1\n      tag_64\n      jump\t// in\n    tag_73:\n        /* \"https://github.com/Arachnid/solidity-stringutils/blob/master/src/strings.sol\":23452:23541  ptr = findPtr(self._len - (ptr - self._ptr), ptr, needle._len, needle._ptr) + needle._len */\n      swap1\n      pop\n        /* \"https://github.com/Arachnid/solidity-stringutils/blob/master/src/strings.sol\":23382:23552  while (ptr <= self._ptr + self._len) {... */\n      jump(tag_65)\n    tag_66:\n        /* \"https://github.com/Arachnid/solidity-stringutils/blob/master/src/strings.sol\":23194:23558  function count(slice memory self, slice memory needle) internal pure returns (uint cnt) {... */\n      pop\n      swap3\n      swap2\n      pop\n      pop\n      jump\t// out\n        /* \"https://github.com/Arachnid/solidity-stringutils/blob/master/src/strings.sol\":21208:21349  function split(slice memory self, slice memory needle) internal pure returns (slice memory token) {... */\n    tag_47:\n        /* \"https://github.com/Arachnid/solidity-stringutils/blob/master/src/strings.sol\":21286:21304  slice memory token */\n      tag_74\n      tag_58\n      jump\t// in\n    tag_74:\n        /* \"https://github.com/Arachnid/solidity-stringutils/blob/master/src/strings.sol\":21316:21342  split(self, needle, token) */\n      tag_76\n        /* \"https://github.com/Arachnid/solidity-stringutils/blob/master/src/strings.sol\":21322:21326  self */\n      dup4\n        /* \"https://github.com/Arachnid/solidity-stringutils/blob/master/src/strings.sol\":21328:21334  needle */\n      dup4\n        /* \"https://github.com/Arachnid/solidity-stringutils/blob/master/src/strings.sol\":21336:21341  token */\n      dup4\n        /* \"https://github.com/Arachnid/solidity-stringutils/blob/master/src/strings.sol\":21316:21321  split */\n      tag_77\n        /* \"https://github.com/Arachnid/solidity-stringutils/blob/master/src/strings.sol\":21316:21342  split(self, needle, token) */\n      jump\t// in\n    tag_76:\n      pop\n        /* \"https://github.com/Arachnid/solidity-stringutils/blob/master/src/strings.sol\":21208:21349  function split(slice memory self, slice memory needle) internal pure returns (slice memory token) {... */\n      swap3\n      swap2\n      pop\n      pop\n      jump\t// out\n        /* \"https://github.com/Arachnid/solidity-stringutils/blob/master/src/strings.sol\":5286:5551  function toString(slice memory self) internal pure returns (string memory) {... */\n    tag_48:\n        /* \"https://github.com/Arachnid/solidity-stringutils/blob/master/src/strings.sol\":5346:5359  string memory */\n      0x60\n        /* \"https://github.com/Arachnid/solidity-stringutils/blob/master/src/strings.sol\":5371:5388  string memory ret */\n      0x00\n        /* \"https://github.com/Arachnid/solidity-stringutils/blob/master/src/strings.sol\":5402:5406  self */\n      dup3\n        /* \"https://github.com/Arachnid/solidity-stringutils/blob/master/src/strings.sol\":5402:5411  self._len */\n      0x00\n      add\n      mload\n        /* \"https://github.com/Arachnid/solidity-stringutils/blob/master/src/strings.sol\":5391:5412  new string(self._len) */\n      0xffffffffffffffff\n      dup2\n      gt\n      iszero\n      tag_79\n      jumpi\n      mstore(0x00, 0x4e487b7100000000000000000000000000000000000000000000000000000000)\n      mstore(0x04, 0x41)\n      revert(0x00, 0x24)\n    tag_79:\n      mload(0x40)\n      swap1\n      dup1\n      dup3\n      mstore\n      dup1\n      0x1f\n      add\n      not(0x1f)\n      and\n      0x20\n      add\n      dup3\n      add\n      0x40\n      mstore\n      dup1\n      iszero\n      tag_80\n      jumpi\n      dup2\n      0x20\n      add\n      0x01\n      dup3\n      mul\n      dup1\n      calldatasize\n      dup4\n      calldatacopy\n      dup1\n      dup3\n      add\n      swap2\n      pop\n      pop\n      swap1\n      pop\n    tag_80:\n      pop\n        /* \"https://github.com/Arachnid/solidity-stringutils/blob/master/src/strings.sol\":5371:5412  string memory ret = new string(self._len) */\n      swap1\n      pop\n        /* \"https://github.com/Arachnid/solidity-stringutils/blob/master/src/strings.sol\":5422:5433  uint retptr */\n      0x00\n        /* \"https://github.com/Arachnid/solidity-stringutils/blob/master/src/strings.sol\":5473:5475  32 */\n      0x20\n        /* \"https://github.com/Arachnid/solidity-stringutils/blob/master/src/strings.sol\":5468:5471  ret */\n      dup3\n        /* \"https://github.com/Arachnid/solidity-stringutils/blob/master/src/strings.sol\":5464:5476  add(ret, 32) */\n      add\n        /* \"https://github.com/Arachnid/solidity-stringutils/blob/master/src/strings.sol\":5454:5476  retptr := add(ret, 32) */\n      swap1\n      pop\n        /* \"https://github.com/Arachnid/solidity-stringutils/blob/master/src/strings.sol\":5488:5524  memcpy(retptr, self._ptr, self._len) */\n      tag_81\n        /* \"https://github.com/Arachnid/solidity-stringutils/blob/master/src/strings.sol\":5495:5501  retptr */\n      dup2\n        /* \"https://github.com/Arachnid/solidity-stringutils/blob/master/src/strings.sol\":5503:5507  self */\n      dup6\n        /* \"https://github.com/Arachnid/solidity-stringutils/blob/master/src/strings.sol\":5503:5512  self._ptr */\n      0x20\n      add\n      mload\n        /* \"https://github.com/Arachnid/solidity-stringutils/blob/master/src/strings.sol\":5514:5518  self */\n      dup7\n        /* \"https://github.com/Arachnid/solidity-stringutils/blob/master/src/strings.sol\":5514:5523  self._len */\n      0x00\n      add\n      mload\n        /* \"https://github.com/Arachnid/solidity-stringutils/blob/master/src/strings.sol\":5488:5494  memcpy */\n      tag_82\n        /* \"https://github.com/Arachnid/solidity-stringutils/blob/master/src/strings.sol\":5488:5524  memcpy(retptr, self._ptr, self._len) */\n      jump\t// in\n    tag_81:\n        /* \"https://github.com/Arachnid/solidity-stringutils/blob/master/src/strings.sol\":5541:5544  ret */\n      dup2\n        /* \"https://github.com/Arachnid/solidity-stringutils/blob/master/src/strings.sol\":5534:5544  return ret */\n      swap3\n      pop\n      pop\n      pop\n        /* \"https://github.com/Arachnid/solidity-stringutils/blob/master/src/strings.sol\":5286:5551  function toString(slice memory self) internal pure returns (string memory) {... */\n      swap2\n      swap1\n      pop\n      jump\t// out\n        /* \"https://github.com/Arachnid/solidity-stringutils/blob/master/src/strings.sol\":15477:16930  function findPtr(uint selflen, uint selfptr, uint needlelen, uint needleptr) private pure returns (uint) {... */\n    tag_62:\n        /* \"https://github.com/Arachnid/solidity-stringutils/blob/master/src/strings.sol\":15576:15580  uint */\n      0x00\n        /* \"https://github.com/Arachnid/solidity-stringutils/blob/master/src/strings.sol\":15592:15600  uint ptr */\n      dup1\n        /* \"https://github.com/Arachnid/solidity-stringutils/blob/master/src/strings.sol\":15603:15610  selfptr */\n      dup5\n        /* \"https://github.com/Arachnid/solidity-stringutils/blob/master/src/strings.sol\":15592:15610  uint ptr = selfptr */\n      swap1\n      pop\n        /* \"https://github.com/Arachnid/solidity-stringutils/blob/master/src/strings.sol\":15620:15628  uint idx */\n      0x00\n        /* \"https://github.com/Arachnid/solidity-stringutils/blob/master/src/strings.sol\":15656:15663  selflen */\n      dup7\n        /* \"https://github.com/Arachnid/solidity-stringutils/blob/master/src/strings.sol\":15643:15652  needlelen */\n      dup6\n        /* \"https://github.com/Arachnid/solidity-stringutils/blob/master/src/strings.sol\":15643:15663  needlelen <= selflen */\n      gt\n        /* \"https://github.com/Arachnid/solidity-stringutils/blob/master/src/strings.sol\":15639:16890  if (needlelen <= selflen) {... */\n      tag_84\n      jumpi\n        /* \"https://github.com/Arachnid/solidity-stringutils/blob/master/src/strings.sol\":15696:15698  32 */\n      0x20\n        /* \"https://github.com/Arachnid/solidity-stringutils/blob/master/src/strings.sol\":15683:15692  needlelen */\n      dup6\n        /* \"https://github.com/Arachnid/solidity-stringutils/blob/master/src/strings.sol\":15683:15698  needlelen <= 32 */\n      gt\n        /* \"https://github.com/Arachnid/solidity-stringutils/blob/master/src/strings.sol\":15679:16880  if (needlelen <= 32) {... */\n      tag_85\n      jumpi\n        /* \"https://github.com/Arachnid/solidity-stringutils/blob/master/src/strings.sol\":15718:15730  bytes32 mask */\n      0x00\n        /* \"https://github.com/Arachnid/solidity-stringutils/blob/master/src/strings.sol\":15764:15765  0 */\n      dup1\n        /* \"https://github.com/Arachnid/solidity-stringutils/blob/master/src/strings.sol\":15752:15761  needlelen */\n      dup7\n        /* \"https://github.com/Arachnid/solidity-stringutils/blob/master/src/strings.sol\":15752:15765  needlelen > 0 */\n      gt\n        /* \"https://github.com/Arachnid/solidity-stringutils/blob/master/src/strings.sol\":15748:15858  if (needlelen > 0) {... */\n      iszero\n      tag_86\n      jumpi\n        /* \"https://github.com/Arachnid/solidity-stringutils/blob/master/src/strings.sol\":15836:15837  1 */\n      0x01\n        /* \"https://github.com/Arachnid/solidity-stringutils/blob/master/src/strings.sol\":15822:15831  needlelen */\n      dup7\n        /* \"https://github.com/Arachnid/solidity-stringutils/blob/master/src/strings.sol\":15817:15819  32 */\n      0x20\n        /* \"https://github.com/Arachnid/solidity-stringutils/blob/master/src/strings.sol\":15817:15831  32 - needlelen */\n      tag_87\n      swap2\n      swap1\n      tag_71\n      jump\t// in\n    tag_87:\n        /* \"https://github.com/Arachnid/solidity-stringutils/blob/master/src/strings.sol\":15812:15813  8 */\n      0x08\n        /* \"https://github.com/Arachnid/solidity-stringutils/blob/master/src/strings.sol\":15812:15832  8 * (32 - needlelen) */\n      tag_88\n      swap2\n      swap1\n      tag_89\n      jump\t// in\n    tag_88:\n        /* \"https://github.com/Arachnid/solidity-stringutils/blob/master/src/strings.sol\":15806:15807  2 */\n      0x02\n        /* \"https://github.com/Arachnid/solidity-stringutils/blob/master/src/strings.sol\":15806:15833  2 ** (8 * (32 - needlelen)) */\n      tag_90\n      swap2\n      swap1\n      tag_91\n      jump\t// in\n    tag_90:\n        /* \"https://github.com/Arachnid/solidity-stringutils/blob/master/src/strings.sol\":15806:15837  2 ** (8 * (32 - needlelen)) - 1 */\n      tag_92\n      swap2\n      swap1\n      tag_71\n      jump\t// in\n    tag_92:\n        /* \"https://github.com/Arachnid/solidity-stringutils/blob/master/src/strings.sol\":15804:15838  ~(2 ** (8 * (32 - needlelen)) - 1) */\n      not\n        /* \"https://github.com/Arachnid/solidity-stringutils/blob/master/src/strings.sol\":15796:15839  bytes32(~(2 ** (8 * (32 - needlelen)) - 1)) */\n      0x00\n      shl\n        /* \"https://github.com/Arachnid/solidity-stringutils/blob/master/src/strings.sol\":15789:15839  mask = bytes32(~(2 ** (8 * (32 - needlelen)) - 1)) */\n      swap1\n      pop\n        /* \"https://github.com/Arachnid/solidity-stringutils/blob/master/src/strings.sol\":15748:15858  if (needlelen > 0) {... */\n    tag_86:\n        /* \"https://github.com/Arachnid/solidity-stringutils/blob/master/src/strings.sol\":15876:15894  bytes32 needledata */\n      0x00\n        /* \"https://github.com/Arachnid/solidity-stringutils/blob/master/src/strings.sol\":15959:15963  mask */\n      dup2\n        /* \"https://github.com/Arachnid/solidity-stringutils/blob/master/src/strings.sol\":15947:15956  needleptr */\n      dup7\n        /* \"https://github.com/Arachnid/solidity-stringutils/blob/master/src/strings.sol\":15941:15957  mload(needleptr) */\n      mload\n        /* \"https://github.com/Arachnid/solidity-stringutils/blob/master/src/strings.sol\":15937:15964  and(mload(needleptr), mask) */\n      and\n        /* \"https://github.com/Arachnid/solidity-stringutils/blob/master/src/strings.sol\":15923:15964  needledata := and(mload(needleptr), mask) */\n      swap1\n      pop\n        /* \"https://github.com/Arachnid/solidity-stringutils/blob/master/src/strings.sol\":15984:15992  uint end */\n      0x00\n        /* \"https://github.com/Arachnid/solidity-stringutils/blob/master/src/strings.sol\":16015:16024  needlelen */\n      dup8\n        /* \"https://github.com/Arachnid/solidity-stringutils/blob/master/src/strings.sol\":16005:16012  selflen */\n      dup11\n        /* \"https://github.com/Arachnid/solidity-stringutils/blob/master/src/strings.sol\":15995:16002  selfptr */\n      dup11\n        /* \"https://github.com/Arachnid/solidity-stringutils/blob/master/src/strings.sol\":15995:16012  selfptr + selflen */\n      tag_93\n      swap2\n      swap1\n      tag_64\n      jump\t// in\n    tag_93:\n        /* \"https://github.com/Arachnid/solidity-stringutils/blob/master/src/strings.sol\":15995:16024  selfptr + selflen - needlelen */\n      tag_94\n      swap2\n      swap1\n      tag_71\n      jump\t// in\n    tag_94:\n        /* \"https://github.com/Arachnid/solidity-stringutils/blob/master/src/strings.sol\":15984:16024  uint end = selfptr + selflen - needlelen */\n      swap1\n      pop\n        /* \"https://github.com/Arachnid/solidity-stringutils/blob/master/src/strings.sol\":16042:16057  bytes32 ptrdata */\n      0x00\n        /* \"https://github.com/Arachnid/solidity-stringutils/blob/master/src/strings.sol\":16113:16117  mask */\n      dup4\n        /* \"https://github.com/Arachnid/solidity-stringutils/blob/master/src/strings.sol\":16107:16110  ptr */\n      dup7\n        /* \"https://github.com/Arachnid/solidity-stringutils/blob/master/src/strings.sol\":16101:16111  mload(ptr) */\n      mload\n        /* \"https://github.com/Arachnid/solidity-stringutils/blob/master/src/strings.sol\":16097:16118  and(mload(ptr), mask) */\n      and\n        /* \"https://github.com/Arachnid/solidity-stringutils/blob/master/src/strings.sol\":16086:16118  ptrdata := and(mload(ptr), mask) */\n      swap1\n      pop\n        /* \"https://github.com/Arachnid/solidity-stringutils/blob/master/src/strings.sol\":16138:16366  while (ptrdata != needledata) {... */\n    tag_95:\n        /* \"https://github.com/Arachnid/solidity-stringutils/blob/master/src/strings.sol\":16156:16166  needledata */\n      dup3\n        /* \"https://github.com/Arachnid/solidity-stringutils/blob/master/src/strings.sol\":16145:16152  ptrdata */\n      dup2\n        /* \"https://github.com/Arachnid/solidity-stringutils/blob/master/src/strings.sol\":16145:16166  ptrdata != needledata */\n      eq\n        /* \"https://github.com/Arachnid/solidity-stringutils/blob/master/src/strings.sol\":16138:16366  while (ptrdata != needledata) {... */\n      tag_96\n      jumpi\n        /* \"https://github.com/Arachnid/solidity-stringutils/blob/master/src/strings.sol\":16201:16204  end */\n      dup2\n        /* \"https://github.com/Arachnid/solidity-stringutils/blob/master/src/strings.sol\":16194:16197  ptr */\n      dup7\n        /* \"https://github.com/Arachnid/solidity-stringutils/blob/master/src/strings.sol\":16194:16204  ptr >= end */\n      lt\n        /* \"https://github.com/Arachnid/solidity-stringutils/blob/master/src/strings.sol\":16190:16254  if (ptr >= end)... */\n      tag_97\n      jumpi\n        /* \"https://github.com/Arachnid/solidity-stringutils/blob/master/src/strings.sol\":16247:16254  selflen */\n      dup11\n        /* \"https://github.com/Arachnid/solidity-stringutils/blob/master/src/strings.sol\":16237:16244  selfptr */\n      dup11\n        /* \"https://github.com/Arachnid/solidity-stringutils/blob/master/src/strings.sol\":16237:16254  selfptr + selflen */\n      tag_98\n      swap2\n      swap1\n      tag_64\n      jump\t// in\n    tag_98:\n        /* \"https://github.com/Arachnid/solidity-stringutils/blob/master/src/strings.sol\":16230:16254  return selfptr + selflen */\n      swap7\n      pop\n      pop\n      pop\n      pop\n      pop\n      pop\n      pop\n      jump(tag_83)\n        /* \"https://github.com/Arachnid/solidity-stringutils/blob/master/src/strings.sol\":16190:16254  if (ptr >= end)... */\n    tag_97:\n        /* \"https://github.com/Arachnid/solidity-stringutils/blob/master/src/strings.sol\":16276:16281  ptr++ */\n      dup6\n      dup1\n      tag_99\n      swap1\n      tag_51\n      jump\t// in\n    tag_99:\n      swap7\n      pop\n      pop\n        /* \"https://github.com/Arachnid/solidity-stringutils/blob/master/src/strings.sol\":16341:16345  mask */\n      dup4\n        /* \"https://github.com/Arachnid/solidity-stringutils/blob/master/src/strings.sol\":16335:16338  ptr */\n      dup7\n        /* \"https://github.com/Arachnid/solidity-stringutils/blob/master/src/strings.sol\":16329:16339  mload(ptr) */\n      mload\n        /* \"https://github.com/Arachnid/solidity-stringutils/blob/master/src/strings.sol\":16325:16346  and(mload(ptr), mask) */\n      and\n        /* \"https://github.com/Arachnid/solidity-stringutils/blob/master/src/strings.sol\":16314:16346  ptrdata := and(mload(ptr), mask) */\n      swap1\n      pop\n        /* \"https://github.com/Arachnid/solidity-stringutils/blob/master/src/strings.sol\":16312:16348  { ptrdata := and(mload(ptr), mask) } */\n      jump(tag_95)\n    tag_96:\n        /* \"https://github.com/Arachnid/solidity-stringutils/blob/master/src/strings.sol\":16390:16393  ptr */\n      dup6\n        /* \"https://github.com/Arachnid/solidity-stringutils/blob/master/src/strings.sol\":16383:16393  return ptr */\n      swap7\n      pop\n      pop\n      pop\n      pop\n      pop\n      pop\n      pop\n      jump(tag_83)\n        /* \"https://github.com/Arachnid/solidity-stringutils/blob/master/src/strings.sol\":15679:16880  if (needlelen <= 32) {... */\n    tag_85:\n        /* \"https://github.com/Arachnid/solidity-stringutils/blob/master/src/strings.sol\":16481:16493  bytes32 hash */\n      0x00\n        /* \"https://github.com/Arachnid/solidity-stringutils/blob/master/src/strings.sol\":16551:16560  needlelen */\n      dup6\n        /* \"https://github.com/Arachnid/solidity-stringutils/blob/master/src/strings.sol\":16540:16549  needleptr */\n      dup6\n        /* \"https://github.com/Arachnid/solidity-stringutils/blob/master/src/strings.sol\":16530:16561  keccak256(needleptr, needlelen) */\n      keccak256\n        /* \"https://github.com/Arachnid/solidity-stringutils/blob/master/src/strings.sol\":16522:16561  hash := keccak256(needleptr, needlelen) */\n      swap1\n      pop\n        /* \"https://github.com/Arachnid/solidity-stringutils/blob/master/src/strings.sol\":16592:16593  0 */\n      0x00\n        /* \"https://github.com/Arachnid/solidity-stringutils/blob/master/src/strings.sol\":16586:16593  idx = 0 */\n      swap2\n      pop\n        /* \"https://github.com/Arachnid/solidity-stringutils/blob/master/src/strings.sol\":16581:16866  for (idx = 0; idx <= selflen - needlelen; idx++) {... */\n    tag_101:\n        /* \"https://github.com/Arachnid/solidity-stringutils/blob/master/src/strings.sol\":16612:16621  needlelen */\n      dup6\n        /* \"https://github.com/Arachnid/solidity-stringutils/blob/master/src/strings.sol\":16602:16609  selflen */\n      dup9\n        /* \"https://github.com/Arachnid/solidity-stringutils/blob/master/src/strings.sol\":16602:16621  selflen - needlelen */\n      tag_104\n      swap2\n      swap1\n      tag_71\n      jump\t// in\n    tag_104:\n        /* \"https://github.com/Arachnid/solidity-stringutils/blob/master/src/strings.sol\":16595:16598  idx */\n      dup3\n        /* \"https://github.com/Arachnid/solidity-stringutils/blob/master/src/strings.sol\":16595:16621  idx <= selflen - needlelen */\n      gt\n        /* \"https://github.com/Arachnid/solidity-stringutils/blob/master/src/strings.sol\":16581:16866  for (idx = 0; idx <= selflen - needlelen; idx++) {... */\n      tag_102\n      jumpi\n        /* \"https://github.com/Arachnid/solidity-stringutils/blob/master/src/strings.sol\":16652:16668  bytes32 testHash */\n      0x00\n        /* \"https://github.com/Arachnid/solidity-stringutils/blob/master/src/strings.sol\":16728:16737  needlelen */\n      dup7\n        /* \"https://github.com/Arachnid/solidity-stringutils/blob/master/src/strings.sol\":16723:16726  ptr */\n      dup5\n        /* \"https://github.com/Arachnid/solidity-stringutils/blob/master/src/strings.sol\":16713:16738  keccak256(ptr, needlelen) */\n      keccak256\n        /* \"https://github.com/Arachnid/solidity-stringutils/blob/master/src/strings.sol\":16701:16738  testHash := keccak256(ptr, needlelen) */\n      swap1\n      pop\n        /* \"https://github.com/Arachnid/solidity-stringutils/blob/master/src/strings.sol\":16773:16781  testHash */\n      dup1\n        /* \"https://github.com/Arachnid/solidity-stringutils/blob/master/src/strings.sol\":16765:16769  hash */\n      dup3\n        /* \"https://github.com/Arachnid/solidity-stringutils/blob/master/src/strings.sol\":16765:16781  hash == testHash */\n      eq\n        /* \"https://github.com/Arachnid/solidity-stringutils/blob/master/src/strings.sol\":16761:16817  if (hash == testHash)... */\n      iszero\n      tag_105\n      jumpi\n        /* \"https://github.com/Arachnid/solidity-stringutils/blob/master/src/strings.sol\":16814:16817  ptr */\n      dup4\n        /* \"https://github.com/Arachnid/solidity-stringutils/blob/master/src/strings.sol\":16807:16817  return ptr */\n      swap5\n      pop\n      pop\n      pop\n      pop\n      pop\n      jump(tag_83)\n        /* \"https://github.com/Arachnid/solidity-stringutils/blob/master/src/strings.sol\":16761:16817  if (hash == testHash)... */\n    tag_105:\n        /* \"https://github.com/Arachnid/solidity-stringutils/blob/master/src/strings.sol\":16846:16847  1 */\n      0x01\n        /* \"https://github.com/Arachnid/solidity-stringutils/blob/master/src/strings.sol\":16839:16847  ptr += 1 */\n      dup5\n      tag_106\n      swap2\n      swap1\n      tag_64\n      jump\t// in\n    tag_106:\n      swap4\n      pop\n        /* \"https://github.com/Arachnid/solidity-stringutils/blob/master/src/strings.sol\":16581:16866  for (idx = 0; idx <= selflen - needlelen; idx++) {... */\n      pop\n        /* \"https://github.com/Arachnid/solidity-stringutils/blob/master/src/strings.sol\":16623:16628  idx++ */\n      dup2\n      dup1\n      tag_107\n      swap1\n      tag_51\n      jump\t// in\n    tag_107:\n      swap3\n      pop\n      pop\n        /* \"https://github.com/Arachnid/solidity-stringutils/blob/master/src/strings.sol\":16581:16866  for (idx = 0; idx <= selflen - needlelen; idx++) {... */\n      jump(tag_101)\n    tag_102:\n        /* \"https://github.com/Arachnid/solidity-stringutils/blob/master/src/strings.sol\":15679:16880  if (needlelen <= 32) {... */\n      pop\n        /* \"https://github.com/Arachnid/solidity-stringutils/blob/master/src/strings.sol\":15639:16890  if (needlelen <= selflen) {... */\n    tag_84:\n        /* \"https://github.com/Arachnid/solidity-stringutils/blob/master/src/strings.sol\":16916:16923  selflen */\n      dup7\n        /* \"https://github.com/Arachnid/solidity-stringutils/blob/master/src/strings.sol\":16906:16913  selfptr */\n      dup7\n        /* \"https://github.com/Arachnid/solidity-stringutils/blob/master/src/strings.sol\":16906:16923  selfptr + selflen */\n      tag_108\n      swap2\n      swap1\n      tag_64\n      jump\t// in\n    tag_108:\n        /* \"https://github.com/Arachnid/solidity-stringutils/blob/master/src/strings.sol\":16899:16923  return selfptr + selflen */\n      swap3\n      pop\n      pop\n      pop\n        /* \"https://github.com/Arachnid/solidity-stringutils/blob/master/src/strings.sol\":15477:16930  function findPtr(uint selflen, uint selfptr, uint needlelen, uint needleptr) private pure returns (uint) {... */\n    tag_83:\n      swap5\n      swap4\n      pop\n      pop\n      pop\n      pop\n      jump\t// out\n        /* \"https://github.com/Arachnid/solidity-stringutils/blob/master/src/strings.sol\":20233:20737  function split(slice memory self, slice memory needle, slice memory token) internal pure returns (slice memory) {... */\n    tag_77:\n        /* \"https://github.com/Arachnid/solidity-stringutils/blob/master/src/strings.sol\":20331:20343  slice memory */\n      tag_109\n      tag_58\n      jump\t// in\n    tag_109:\n        /* \"https://github.com/Arachnid/solidity-stringutils/blob/master/src/strings.sol\":20355:20363  uint ptr */\n      0x00\n        /* \"https://github.com/Arachnid/solidity-stringutils/blob/master/src/strings.sol\":20366:20421  findPtr(self._len, self._ptr, needle._len, needle._ptr) */\n      tag_111\n        /* \"https://github.com/Arachnid/solidity-stringutils/blob/master/src/strings.sol\":20374:20378  self */\n      dup6\n        /* \"https://github.com/Arachnid/solidity-stringutils/blob/master/src/strings.sol\":20374:20383  self._len */\n      0x00\n      add\n      mload\n        /* \"https://github.com/Arachnid/solidity-stringutils/blob/master/src/strings.sol\":20385:20389  self */\n      dup7\n        /* \"https://github.com/Arachnid/solidity-stringutils/blob/master/src/strings.sol\":20385:20394  self._ptr */\n      0x20\n      add\n      mload\n        /* \"https://github.com/Arachnid/solidity-stringutils/blob/master/src/strings.sol\":20396:20402  needle */\n      dup7\n        /* \"https://github.com/Arachnid/solidity-stringutils/blob/master/src/strings.sol\":20396:20407  needle._len */\n      0x00\n      add\n      mload\n        /* \"https://github.com/Arachnid/solidity-stringutils/blob/master/src/strings.sol\":20409:20415  needle */\n      dup8\n        /* \"https://github.com/Arachnid/solidity-stringutils/blob/master/src/strings.sol\":20409:20420  needle._ptr */\n      0x20\n      add\n      mload\n        /* \"https://github.com/Arachnid/solidity-stringutils/blob/master/src/strings.sol\":20366:20373  findPtr */\n      tag_62\n        /* \"https://github.com/Arachnid/solidity-stringutils/blob/master/src/strings.sol\":20366:20421  findPtr(self._len, self._ptr, needle._len, needle._ptr) */\n      jump\t// in\n    tag_111:\n        /* \"https://github.com/Arachnid/solidity-stringutils/blob/master/src/strings.sol\":20355:20421  uint ptr = findPtr(self._len, self._ptr, needle._len, needle._ptr) */\n      swap1\n      pop\n        /* \"https://github.com/Arachnid/solidity-stringutils/blob/master/src/strings.sol\":20444:20448  self */\n      dup5\n        /* \"https://github.com/Arachnid/solidity-stringutils/blob/master/src/strings.sol\":20444:20453  self._ptr */\n      0x20\n      add\n      mload\n        /* \"https://github.com/Arachnid/solidity-stringutils/blob/master/src/strings.sol\":20431:20436  token */\n      dup4\n        /* \"https://github.com/Arachnid/solidity-stringutils/blob/master/src/strings.sol\":20431:20441  token._ptr */\n      0x20\n      add\n        /* \"https://github.com/Arachnid/solidity-stringutils/blob/master/src/strings.sol\":20431:20453  token._ptr = self._ptr */\n      dup2\n      dup2\n      mstore\n      pop\n      pop\n        /* \"https://github.com/Arachnid/solidity-stringutils/blob/master/src/strings.sol\":20482:20486  self */\n      dup5\n        /* \"https://github.com/Arachnid/solidity-stringutils/blob/master/src/strings.sol\":20482:20491  self._ptr */\n      0x20\n      add\n      mload\n        /* \"https://github.com/Arachnid/solidity-stringutils/blob/master/src/strings.sol\":20476:20479  ptr */\n      dup2\n        /* \"https://github.com/Arachnid/solidity-stringutils/blob/master/src/strings.sol\":20476:20491  ptr - self._ptr */\n      tag_112\n      swap2\n      swap1\n      tag_71\n      jump\t// in\n    tag_112:\n        /* \"https://github.com/Arachnid/solidity-stringutils/blob/master/src/strings.sol\":20463:20468  token */\n      dup4\n        /* \"https://github.com/Arachnid/solidity-stringutils/blob/master/src/strings.sol\":20463:20473  token._len */\n      0x00\n      add\n        /* \"https://github.com/Arachnid/solidity-stringutils/blob/master/src/strings.sol\":20463:20491  token._len = ptr - self._ptr */\n      dup2\n      dup2\n      mstore\n      pop\n      pop\n        /* \"https://github.com/Arachnid/solidity-stringutils/blob/master/src/strings.sol\":20524:20528  self */\n      dup5\n        /* \"https://github.com/Arachnid/solidity-stringutils/blob/master/src/strings.sol\":20524:20533  self._len */\n      0x00\n      add\n      mload\n        /* \"https://github.com/Arachnid/solidity-stringutils/blob/master/src/strings.sol\":20512:20516  self */\n      dup6\n        /* \"https://github.com/Arachnid/solidity-stringutils/blob/master/src/strings.sol\":20512:20521  self._ptr */\n      0x20\n      add\n      mload\n        /* \"https://github.com/Arachnid/solidity-stringutils/blob/master/src/strings.sol\":20512:20533  self._ptr + self._len */\n      tag_113\n      swap2\n      swap1\n      tag_64\n      jump\t// in\n    tag_113:\n        /* \"https://github.com/Arachnid/solidity-stringutils/blob/master/src/strings.sol\":20505:20508  ptr */\n      dup2\n        /* \"https://github.com/Arachnid/solidity-stringutils/blob/master/src/strings.sol\":20505:20533  ptr == self._ptr + self._len */\n      eq\n        /* \"https://github.com/Arachnid/solidity-stringutils/blob/master/src/strings.sol\":20501:20709  if (ptr == self._ptr + self._len) {... */\n      iszero\n      tag_114\n      jumpi\n        /* \"https://github.com/Arachnid/solidity-stringutils/blob/master/src/strings.sol\":20586:20587  0 */\n      0x00\n        /* \"https://github.com/Arachnid/solidity-stringutils/blob/master/src/strings.sol\":20574:20578  self */\n      dup6\n        /* \"https://github.com/Arachnid/solidity-stringutils/blob/master/src/strings.sol\":20574:20583  self._len */\n      0x00\n      add\n        /* \"https://github.com/Arachnid/solidity-stringutils/blob/master/src/strings.sol\":20574:20587  self._len = 0 */\n      dup2\n      dup2\n      mstore\n      pop\n      pop\n        /* \"https://github.com/Arachnid/solidity-stringutils/blob/master/src/strings.sol\":20501:20709  if (ptr == self._ptr + self._len) {... */\n      jump(tag_115)\n    tag_114:\n        /* \"https://github.com/Arachnid/solidity-stringutils/blob/master/src/strings.sol\":20644:20650  needle */\n      dup4\n        /* \"https://github.com/Arachnid/solidity-stringutils/blob/master/src/strings.sol\":20644:20655  needle._len */\n      0x00\n      add\n      mload\n        /* \"https://github.com/Arachnid/solidity-stringutils/blob/master/src/strings.sol\":20631:20636  token */\n      dup4\n        /* \"https://github.com/Arachnid/solidity-stringutils/blob/master/src/strings.sol\":20631:20641  token._len */\n      0x00\n      add\n      mload\n        /* \"https://github.com/Arachnid/solidity-stringutils/blob/master/src/strings.sol\":20631:20655  token._len + needle._len */\n      tag_116\n      swap2\n      swap1\n      tag_64\n      jump\t// in\n    tag_116:\n        /* \"https://github.com/Arachnid/solidity-stringutils/blob/master/src/strings.sol\":20618:20622  self */\n      dup6\n        /* \"https://github.com/Arachnid/solidity-stringutils/blob/master/src/strings.sol\":20618:20627  self._len */\n      0x00\n      add\n        /* \"https://github.com/Arachnid/solidity-stringutils/blob/master/src/strings.sol\":20618:20655  self._len -= token._len + needle._len */\n      dup2\n      dup2\n      mload\n      tag_117\n      swap2\n      swap1\n      tag_71\n      jump\t// in\n    tag_117:\n      swap2\n      pop\n      dup2\n      dup2\n      mstore\n      pop\n      pop\n        /* \"https://github.com/Arachnid/solidity-stringutils/blob/master/src/strings.sol\":20687:20693  needle */\n      dup4\n        /* \"https://github.com/Arachnid/solidity-stringutils/blob/master/src/strings.sol\":20687:20698  needle._len */\n      0x00\n      add\n      mload\n        /* \"https://github.com/Arachnid/solidity-stringutils/blob/master/src/strings.sol\":20681:20684  ptr */\n      dup2\n        /* \"https://github.com/Arachnid/solidity-stringutils/blob/master/src/strings.sol\":20681:20698  ptr + needle._len */\n      tag_118\n      swap2\n      swap1\n      tag_64\n      jump\t// in\n    tag_118:\n        /* \"https://github.com/Arachnid/solidity-stringutils/blob/master/src/strings.sol\":20669:20673  self */\n      dup6\n        /* \"https://github.com/Arachnid/solidity-stringutils/blob/master/src/strings.sol\":20669:20678  self._ptr */\n      0x20\n      add\n        /* \"https://github.com/Arachnid/solidity-stringutils/blob/master/src/strings.sol\":20669:20698  self._ptr = ptr + needle._len */\n      dup2\n      dup2\n      mstore\n      pop\n      pop\n        /* \"https://github.com/Arachnid/solidity-stringutils/blob/master/src/strings.sol\":20501:20709  if (ptr == self._ptr + self._len) {... */\n    tag_115:\n        /* \"https://github.com/Arachnid/solidity-stringutils/blob/master/src/strings.sol\":20725:20730  token */\n      dup3\n        /* \"https://github.com/Arachnid/solidity-stringutils/blob/master/src/strings.sol\":20718:20730  return token */\n      swap2\n      pop\n      pop\n        /* \"https://github.com/Arachnid/solidity-stringutils/blob/master/src/strings.sol\":20233:20737  function split(slice memory self, slice memory needle, slice memory token) internal pure returns (slice memory) {... */\n      swap4\n      swap3\n      pop\n      pop\n      pop\n      jump\t// out\n        /* \"https://github.com/Arachnid/solidity-stringutils/blob/master/src/strings.sol\":2088:2704  function memcpy(uint dest, uint src, uint len) private pure {... */\n    tag_82:\n        /* \"https://github.com/Arachnid/solidity-stringutils/blob/master/src/strings.sol\":2208:2372  for(; len >= 32; len -= 32) {... */\n    tag_120:\n        /* \"https://github.com/Arachnid/solidity-stringutils/blob/master/src/strings.sol\":2221:2223  32 */\n      0x20\n        /* \"https://github.com/Arachnid/solidity-stringutils/blob/master/src/strings.sol\":2214:2217  len */\n      dup2\n        /* \"https://github.com/Arachnid/solidity-stringutils/blob/master/src/strings.sol\":2214:2223  len >= 32 */\n      lt\n        /* \"https://github.com/Arachnid/solidity-stringutils/blob/master/src/strings.sol\":2208:2372  for(; len >= 32; len -= 32) {... */\n      tag_121\n      jumpi\n        /* \"https://github.com/Arachnid/solidity-stringutils/blob/master/src/strings.sol\":2296:2299  src */\n      dup2\n        /* \"https://github.com/Arachnid/solidity-stringutils/blob/master/src/strings.sol\":2290:2300  mload(src) */\n      mload\n        /* \"https://github.com/Arachnid/solidity-stringutils/blob/master/src/strings.sol\":2284:2288  dest */\n      dup4\n        /* \"https://github.com/Arachnid/solidity-stringutils/blob/master/src/strings.sol\":2277:2301  mstore(dest, mload(src)) */\n      mstore\n        /* \"https://github.com/Arachnid/solidity-stringutils/blob/master/src/strings.sol\":2336:2338  32 */\n      0x20\n        /* \"https://github.com/Arachnid/solidity-stringutils/blob/master/src/strings.sol\":2328:2338  dest += 32 */\n      dup4\n      tag_123\n      swap2\n      swap1\n      tag_64\n      jump\t// in\n    tag_123:\n      swap3\n      pop\n        /* \"https://github.com/Arachnid/solidity-stringutils/blob/master/src/strings.sol\":2359:2361  32 */\n      0x20\n        /* \"https://github.com/Arachnid/solidity-stringutils/blob/master/src/strings.sol\":2352:2361  src += 32 */\n      dup3\n      tag_124\n      swap2\n      swap1\n      tag_64\n      jump\t// in\n    tag_124:\n      swap2\n      pop\n        /* \"https://github.com/Arachnid/solidity-stringutils/blob/master/src/strings.sol\":2232:2234  32 */\n      0x20\n        /* \"https://github.com/Arachnid/solidity-stringutils/blob/master/src/strings.sol\":2225:2234  len -= 32 */\n      dup2\n      tag_125\n      swap2\n      swap1\n      tag_71\n      jump\t// in\n    tag_125:\n      swap1\n      pop\n        /* \"https://github.com/Arachnid/solidity-stringutils/blob/master/src/strings.sol\":2208:2372  for(; len >= 32; len -= 32) {... */\n      jump(tag_120)\n    tag_121:\n        /* \"https://github.com/Arachnid/solidity-stringutils/blob/master/src/strings.sol\":2414:2423  uint mask */\n      0x00\n        /* \"https://github.com/Arachnid/solidity-stringutils/blob/master/src/strings.sol\":2426:2440  type(uint).max */\n      0xffffffffffffffffffffffffffffffffffffffffffffffffffffffffffffffff\n        /* \"https://github.com/Arachnid/solidity-stringutils/blob/master/src/strings.sol\":2414:2440  uint mask = type(uint).max */\n      swap1\n      pop\n        /* \"https://github.com/Arachnid/solidity-stringutils/blob/master/src/strings.sol\":2460:2461  0 */\n      0x00\n        /* \"https://github.com/Arachnid/solidity-stringutils/blob/master/src/strings.sol\":2454:2457  len */\n      dup3\n        /* \"https://github.com/Arachnid/solidity-stringutils/blob/master/src/strings.sol\":2454:2461  len > 0 */\n      gt\n        /* \"https://github.com/Arachnid/solidity-stringutils/blob/master/src/strings.sol\":2450:2516  if (len > 0) {... */\n      iszero\n      tag_126\n      jumpi\n        /* \"https://github.com/Arachnid/solidity-stringutils/blob/master/src/strings.sol\":2504:2505  1 */\n      0x01\n        /* \"https://github.com/Arachnid/solidity-stringutils/blob/master/src/strings.sol\":2497:2500  len */\n      dup3\n        /* \"https://github.com/Arachnid/solidity-stringutils/blob/master/src/strings.sol\":2492:2494  32 */\n      0x20\n        /* \"https://github.com/Arachnid/solidity-stringutils/blob/master/src/strings.sol\":2492:2500  32 - len */\n      tag_127\n      swap2\n      swap1\n      tag_71\n      jump\t// in\n    tag_127:\n        /* \"https://github.com/Arachnid/solidity-stringutils/blob/master/src/strings.sol\":2484:2487  256 */\n      0x0100\n        /* \"https://github.com/Arachnid/solidity-stringutils/blob/master/src/strings.sol\":2484:2501  256 ** (32 - len) */\n      tag_128\n      swap2\n      swap1\n      tag_91\n      jump\t// in\n    tag_128:\n        /* \"https://github.com/Arachnid/solidity-stringutils/blob/master/src/strings.sol\":2484:2505  256 ** (32 - len) - 1 */\n      tag_129\n      swap2\n      swap1\n      tag_71\n      jump\t// in\n    tag_129:\n        /* \"https://github.com/Arachnid/solidity-stringutils/blob/master/src/strings.sol\":2477:2505  mask = 256 ** (32 - len) - 1 */\n      swap1\n      pop\n        /* \"https://github.com/Arachnid/solidity-stringutils/blob/master/src/strings.sol\":2450:2516  if (len > 0) {... */\n    tag_126:\n        /* \"https://github.com/Arachnid/solidity-stringutils/blob/master/src/strings.sol\":2583:2587  mask */\n      dup1\n        /* \"https://github.com/Arachnid/solidity-stringutils/blob/master/src/strings.sol\":2579:2588  not(mask) */\n      not\n        /* \"https://github.com/Arachnid/solidity-stringutils/blob/master/src/strings.sol\":2573:2576  src */\n      dup4\n        /* \"https://github.com/Arachnid/solidity-stringutils/blob/master/src/strings.sol\":2567:2577  mload(src) */\n      mload\n        /* \"https://github.com/Arachnid/solidity-stringutils/blob/master/src/strings.sol\":2563:2589  and(mload(src), not(mask)) */\n      and\n        /* \"https://github.com/Arachnid/solidity-stringutils/blob/master/src/strings.sol\":2635:2639  mask */\n      dup2\n        /* \"https://github.com/Arachnid/solidity-stringutils/blob/master/src/strings.sol\":2628:2632  dest */\n      dup6\n        /* \"https://github.com/Arachnid/solidity-stringutils/blob/master/src/strings.sol\":2622:2633  mload(dest) */\n      mload\n        /* \"https://github.com/Arachnid/solidity-stringutils/blob/master/src/strings.sol\":2618:2640  and(mload(dest), mask) */\n      and\n        /* \"https://github.com/Arachnid/solidity-stringutils/blob/master/src/strings.sol\":2679:2686  srcpart */\n      dup2\n        /* \"https://github.com/Arachnid/solidity-stringutils/blob/master/src/strings.sol\":2669:2677  destpart */\n      dup2\n        /* \"https://github.com/Arachnid/solidity-stringutils/blob/master/src/strings.sol\":2666:2687  or(destpart, srcpart) */\n      or\n        /* \"https://github.com/Arachnid/solidity-stringutils/blob/master/src/strings.sol\":2660:2664  dest */\n      dup7\n        /* \"https://github.com/Arachnid/solidity-stringutils/blob/master/src/strings.sol\":2653:2688  mstore(dest, or(destpart, srcpart)) */\n      mstore\n        /* \"https://github.com/Arachnid/solidity-stringutils/blob/master/src/strings.sol\":2534:2698  {... */\n      pop\n      pop\n      pop\n      pop\n      pop\n      pop\n      jump\t// out\n    tag_55:\n      mload(0x40)\n      dup1\n      0x80\n      add\n      0x40\n      mstore\n      dup1\n      0x00\n      dup2\n      mstore\n      0x20\n      add\n      0x00\n      dup2\n      mstore\n      0x20\n      add\n      and(0xffffffffffffffffffffffffffffffffffffffff, 0x00)\n      dup2\n      mstore\n      0x20\n      add\n      0x00\n      dup2\n      mstore\n      pop\n      swap1\n      jump\t// out\n    tag_58:\n      mload(0x40)\n      dup1\n      0x40\n      add\n      0x40\n      mstore\n      dup1\n      0x00\n      dup2\n      mstore\n      0x20\n      add\n      0x00\n      dup2\n      mstore\n      pop\n      swap1\n      jump\t// out\n        /* \"#utility.yul\":7:351   */\n    tag_131:\n      0x00\n        /* \"#utility.yul\":110:175   */\n      tag_133\n        /* \"#utility.yul\":125:174   */\n      tag_134\n        /* \"#utility.yul\":167:173   */\n      dup5\n        /* \"#utility.yul\":125:174   */\n      tag_135\n      jump\t// in\n    tag_134:\n        /* \"#utility.yul\":110:175   */\n      tag_136\n      jump\t// in\n    tag_133:\n        /* \"#utility.yul\":101:175   */\n      swap1\n      pop\n        /* \"#utility.yul\":198:204   */\n      dup3\n        /* \"#utility.yul\":191:196   */\n      dup2\n        /* \"#utility.yul\":184:205   */\n      mstore\n        /* \"#utility.yul\":236:240   */\n      0x20\n        /* \"#utility.yul\":229:234   */\n      dup2\n        /* \"#utility.yul\":225:241   */\n      add\n        /* \"#utility.yul\":274:277   */\n      dup5\n        /* \"#utility.yul\":265:271   */\n      dup5\n        /* \"#utility.yul\":260:263   */\n      dup5\n        /* \"#utility.yul\":256:272   */\n      add\n        /* \"#utility.yul\":253:278   */\n      gt\n        /* \"#utility.yul\":250:252   */\n      iszero\n      tag_137\n      jumpi\n        /* \"#utility.yul\":291:292   */\n      0x00\n        /* \"#utility.yul\":288:289   */\n      dup1\n        /* \"#utility.yul\":281:293   */\n      revert\n        /* \"#utility.yul\":250:252   */\n    tag_137:\n        /* \"#utility.yul\":304:345   */\n      tag_138\n        /* \"#utility.yul\":338:344   */\n      dup5\n        /* \"#utility.yul\":333:336   */\n      dup3\n        /* \"#utility.yul\":328:331   */\n      dup6\n        /* \"#utility.yul\":304:345   */\n      tag_139\n      jump\t// in\n    tag_138:\n        /* \"#utility.yul\":91:351   */\n      pop\n      swap4\n      swap3\n      pop\n      pop\n      pop\n      jump\t// out\n        /* \"#utility.yul\":357:496   */\n    tag_140:\n      0x00\n        /* \"#utility.yul\":441:447   */\n      dup2\n        /* \"#utility.yul\":428:448   */\n      calldataload\n        /* \"#utility.yul\":419:448   */\n      swap1\n      pop\n        /* \"#utility.yul\":457:490   */\n      tag_142\n        /* \"#utility.yul\":484:489   */\n      dup2\n        /* \"#utility.yul\":457:490   */\n      tag_143\n      jump\t// in\n    tag_142:\n        /* \"#utility.yul\":409:496   */\n      swap3\n      swap2\n      pop\n      pop\n      jump\t// out\n        /* \"#utility.yul\":516:789   */\n    tag_144:\n      0x00\n        /* \"#utility.yul\":621:624   */\n      dup3\n        /* \"#utility.yul\":614:618   */\n      0x1f\n        /* \"#utility.yul\":606:612   */\n      dup4\n        /* \"#utility.yul\":602:619   */\n      add\n        /* \"#utility.yul\":598:625   */\n      slt\n        /* \"#utility.yul\":588:590   */\n      tag_146\n      jumpi\n        /* \"#utility.yul\":639:640   */\n      0x00\n        /* \"#utility.yul\":636:637   */\n      dup1\n        /* \"#utility.yul\":629:641   */\n      revert\n        /* \"#utility.yul\":588:590   */\n    tag_146:\n        /* \"#utility.yul\":679:685   */\n      dup2\n        /* \"#utility.yul\":666:686   */\n      calldataload\n        /* \"#utility.yul\":704:783   */\n      tag_147\n        /* \"#utility.yul\":779:782   */\n      dup5\n        /* \"#utility.yul\":771:777   */\n      dup3\n        /* \"#utility.yul\":764:768   */\n      0x20\n        /* \"#utility.yul\":756:762   */\n      dup7\n        /* \"#utility.yul\":752:769   */\n      add\n        /* \"#utility.yul\":704:783   */\n      tag_131\n      jump\t// in\n    tag_147:\n        /* \"#utility.yul\":695:783   */\n      swap2\n      pop\n        /* \"#utility.yul\":578:789   */\n      pop\n      swap3\n      swap2\n      pop\n      pop\n      jump\t// out\n        /* \"#utility.yul\":795:934   */\n    tag_148:\n      0x00\n        /* \"#utility.yul\":879:885   */\n      dup2\n        /* \"#utility.yul\":866:886   */\n      calldataload\n        /* \"#utility.yul\":857:886   */\n      swap1\n      pop\n        /* \"#utility.yul\":895:928   */\n      tag_150\n        /* \"#utility.yul\":922:927   */\n      dup2\n        /* \"#utility.yul\":895:928   */\n      tag_151\n      jump\t// in\n    tag_150:\n        /* \"#utility.yul\":847:934   */\n      swap3\n      swap2\n      pop\n      pop\n      jump\t// out\n        /* \"#utility.yul\":940:1315   */\n    tag_16:\n      0x00\n        /* \"#utility.yul\":1058:1060   */\n      0x20\n        /* \"#utility.yul\":1046:1055   */\n      dup3\n        /* \"#utility.yul\":1037:1044   */\n      dup5\n        /* \"#utility.yul\":1033:1056   */\n      sub\n        /* \"#utility.yul\":1029:1061   */\n      slt\n        /* \"#utility.yul\":1026:1028   */\n      iszero\n      tag_153\n      jumpi\n        /* \"#utility.yul\":1074:1075   */\n      0x00\n        /* \"#utility.yul\":1071:1072   */\n      dup1\n        /* \"#utility.yul\":1064:1076   */\n      revert\n        /* \"#utility.yul\":1026:1028   */\n    tag_153:\n        /* \"#utility.yul\":1145:1146   */\n      0x00\n        /* \"#utility.yul\":1134:1143   */\n      dup3\n        /* \"#utility.yul\":1130:1147   */\n      add\n        /* \"#utility.yul\":1117:1148   */\n      calldataload\n        /* \"#utility.yul\":1175:1193   */\n      0xffffffffffffffff\n        /* \"#utility.yul\":1167:1173   */\n      dup2\n        /* \"#utility.yul\":1164:1194   */\n      gt\n        /* \"#utility.yul\":1161:1163   */\n      iszero\n      tag_154\n      jumpi\n        /* \"#utility.yul\":1207:1208   */\n      0x00\n        /* \"#utility.yul\":1204:1205   */\n      dup1\n        /* \"#utility.yul\":1197:1209   */\n      revert\n        /* \"#utility.yul\":1161:1163   */\n    tag_154:\n        /* \"#utility.yul\":1235:1298   */\n      tag_155\n        /* \"#utility.yul\":1290:1297   */\n      dup5\n        /* \"#utility.yul\":1281:1287   */\n      dup3\n        /* \"#utility.yul\":1270:1279   */\n      dup6\n        /* \"#utility.yul\":1266:1288   */\n      add\n        /* \"#utility.yul\":1235:1298   */\n      tag_144\n      jump\t// in\n    tag_155:\n        /* \"#utility.yul\":1225:1298   */\n      swap2\n      pop\n        /* \"#utility.yul\":1088:1308   */\n      pop\n        /* \"#utility.yul\":1016:1315   */\n      swap3\n      swap2\n      pop\n      pop\n      jump\t// out\n        /* \"#utility.yul\":1321:1583   */\n    tag_10:\n      0x00\n        /* \"#utility.yul\":1429:1431   */\n      0x20\n        /* \"#utility.yul\":1417:1426   */\n      dup3\n        /* \"#utility.yul\":1408:1415   */\n      dup5\n        /* \"#utility.yul\":1404:1427   */\n      sub\n        /* \"#utility.yul\":1400:1432   */\n      slt\n        /* \"#utility.yul\":1397:1399   */\n      iszero\n      tag_157\n      jumpi\n        /* \"#utility.yul\":1445:1446   */\n      0x00\n        /* \"#utility.yul\":1442:1443   */\n      dup1\n        /* \"#utility.yul\":1435:1447   */\n      revert\n        /* \"#utility.yul\":1397:1399   */\n    tag_157:\n        /* \"#utility.yul\":1488:1489   */\n      0x00\n        /* \"#utility.yul\":1513:1566   */\n      tag_158\n        /* \"#utility.yul\":1558:1565   */\n      dup5\n        /* \"#utility.yul\":1549:1555   */\n      dup3\n        /* \"#utility.yul\":1538:1547   */\n      dup6\n        /* \"#utility.yul\":1534:1556   */\n      add\n        /* \"#utility.yul\":1513:1566   */\n      tag_148\n      jump\t// in\n    tag_158:\n        /* \"#utility.yul\":1503:1566   */\n      swap2\n      pop\n        /* \"#utility.yul\":1459:1576   */\n      pop\n        /* \"#utility.yul\":1387:1583   */\n      swap3\n      swap2\n      pop\n      pop\n      jump\t// out\n        /* \"#utility.yul\":1589:2287   */\n    tag_22:\n      0x00\n      dup1\n      0x00\n      dup1\n        /* \"#utility.yul\":1748:1751   */\n      0x80\n        /* \"#utility.yul\":1736:1745   */\n      dup6\n        /* \"#utility.yul\":1727:1734   */\n      dup8\n        /* \"#utility.yul\":1723:1746   */\n      sub\n        /* \"#utility.yul\":1719:1752   */\n      slt\n        /* \"#utility.yul\":1716:1718   */\n      iszero\n      tag_160\n      jumpi\n        /* \"#utility.yul\":1765:1766   */\n      0x00\n        /* \"#utility.yul\":1762:1763   */\n      dup1\n        /* \"#utility.yul\":1755:1767   */\n      revert\n        /* \"#utility.yul\":1716:1718   */\n    tag_160:\n        /* \"#utility.yul\":1808:1809   */\n      0x00\n        /* \"#utility.yul\":1833:1886   */\n      tag_161\n        /* \"#utility.yul\":1878:1885   */\n      dup8\n        /* \"#utility.yul\":1869:1875   */\n      dup3\n        /* \"#utility.yul\":1858:1867   */\n      dup9\n        /* \"#utility.yul\":1854:1876   */\n      add\n        /* \"#utility.yul\":1833:1886   */\n      tag_148\n      jump\t// in\n    tag_161:\n        /* \"#utility.yul\":1823:1886   */\n      swap5\n      pop\n        /* \"#utility.yul\":1779:1896   */\n      pop\n        /* \"#utility.yul\":1935:1937   */\n      0x20\n        /* \"#utility.yul\":1961:2014   */\n      tag_162\n        /* \"#utility.yul\":2006:2013   */\n      dup8\n        /* \"#utility.yul\":1997:2003   */\n      dup3\n        /* \"#utility.yul\":1986:1995   */\n      dup9\n        /* \"#utility.yul\":1982:2004   */\n      add\n        /* \"#utility.yul\":1961:2014   */\n      tag_148\n      jump\t// in\n    tag_162:\n        /* \"#utility.yul\":1951:2014   */\n      swap4\n      pop\n        /* \"#utility.yul\":1906:2024   */\n      pop\n        /* \"#utility.yul\":2063:2065   */\n      0x40\n        /* \"#utility.yul\":2089:2142   */\n      tag_163\n        /* \"#utility.yul\":2134:2141   */\n      dup8\n        /* \"#utility.yul\":2125:2131   */\n      dup3\n        /* \"#utility.yul\":2114:2123   */\n      dup9\n        /* \"#utility.yul\":2110:2132   */\n      add\n        /* \"#utility.yul\":2089:2142   */\n      tag_140\n      jump\t// in\n    tag_163:\n        /* \"#utility.yul\":2079:2142   */\n      swap3\n      pop\n        /* \"#utility.yul\":2034:2152   */\n      pop\n        /* \"#utility.yul\":2191:2193   */\n      0x60\n        /* \"#utility.yul\":2217:2270   */\n      tag_164\n        /* \"#utility.yul\":2262:2269   */\n      dup8\n        /* \"#utility.yul\":2253:2259   */\n      dup3\n        /* \"#utility.yul\":2242:2251   */\n      dup9\n        /* \"#utility.yul\":2238:2260   */\n      add\n        /* \"#utility.yul\":2217:2270   */\n      tag_148\n      jump\t// in\n    tag_164:\n        /* \"#utility.yul\":2207:2270   */\n      swap2\n      pop\n        /* \"#utility.yul\":2162:2280   */\n      pop\n        /* \"#utility.yul\":1706:2287   */\n      swap3\n      swap6\n      swap2\n      swap5\n      pop\n      swap3\n      pop\n      jump\t// out\n        /* \"#utility.yul\":2293:2489   */\n    tag_165:\n      0x00\n        /* \"#utility.yul\":2417:2483   */\n      tag_167\n        /* \"#utility.yul\":2479:2482   */\n      dup4\n        /* \"#utility.yul\":2471:2477   */\n      dup4\n        /* \"#utility.yul\":2417:2483   */\n      tag_168\n      jump\t// in\n    tag_167:\n        /* \"#utility.yul\":2403:2483   */\n      swap1\n      pop\n        /* \"#utility.yul\":2393:2489   */\n      swap3\n      swap2\n      pop\n      pop\n      jump\t// out\n        /* \"#utility.yul\":2495:2603   */\n    tag_169:\n        /* \"#utility.yul\":2572:2596   */\n      tag_171\n        /* \"#utility.yul\":2590:2595   */\n      dup2\n        /* \"#utility.yul\":2572:2596   */\n      tag_172\n      jump\t// in\n    tag_171:\n        /* \"#utility.yul\":2567:2570   */\n      dup3\n        /* \"#utility.yul\":2560:2597   */\n      mstore\n        /* \"#utility.yul\":2550:2603   */\n      pop\n      pop\n      jump\t// out\n        /* \"#utility.yul\":2609:2727   */\n    tag_173:\n        /* \"#utility.yul\":2696:2720   */\n      tag_175\n        /* \"#utility.yul\":2714:2719   */\n      dup2\n        /* \"#utility.yul\":2696:2720   */\n      tag_172\n      jump\t// in\n    tag_175:\n        /* \"#utility.yul\":2691:2694   */\n      dup3\n        /* \"#utility.yul\":2684:2721   */\n      mstore\n        /* \"#utility.yul\":2674:2727   */\n      pop\n      pop\n      jump\t// out\n        /* \"#utility.yul\":2761:3752   */\n    tag_176:\n      0x00\n        /* \"#utility.yul\":2929:2993   */\n      tag_178\n        /* \"#utility.yul\":2987:2992   */\n      dup3\n        /* \"#utility.yul\":2929:2993   */\n      tag_179\n      jump\t// in\n    tag_178:\n        /* \"#utility.yul\":3009:3105   */\n      tag_180\n        /* \"#utility.yul\":3098:3104   */\n      dup2\n        /* \"#utility.yul\":3093:3096   */\n      dup6\n        /* \"#utility.yul\":3009:3105   */\n      tag_181\n      jump\t// in\n    tag_180:\n        /* \"#utility.yul\":3002:3105   */\n      swap4\n      pop\n        /* \"#utility.yul\":3131:3134   */\n      dup4\n        /* \"#utility.yul\":3176:3180   */\n      0x20\n        /* \"#utility.yul\":3168:3174   */\n      dup3\n        /* \"#utility.yul\":3164:3181   */\n      mul\n        /* \"#utility.yul\":3159:3162   */\n      dup6\n        /* \"#utility.yul\":3155:3182   */\n      add\n        /* \"#utility.yul\":3206:3272   */\n      tag_182\n        /* \"#utility.yul\":3266:3271   */\n      dup6\n        /* \"#utility.yul\":3206:3272   */\n      tag_183\n      jump\t// in\n    tag_182:\n        /* \"#utility.yul\":3295:3302   */\n      dup1\n        /* \"#utility.yul\":3326:3327   */\n      0x00\n        /* \"#utility.yul\":3311:3707   */\n    tag_184:\n        /* \"#utility.yul\":3336:3342   */\n      dup6\n        /* \"#utility.yul\":3333:3334   */\n      dup2\n        /* \"#utility.yul\":3330:3343   */\n      lt\n        /* \"#utility.yul\":3311:3707   */\n      iszero\n      tag_186\n      jumpi\n        /* \"#utility.yul\":3407:3416   */\n      dup5\n        /* \"#utility.yul\":3401:3405   */\n      dup5\n        /* \"#utility.yul\":3397:3417   */\n      sub\n        /* \"#utility.yul\":3392:3395   */\n      dup10\n        /* \"#utility.yul\":3385:3418   */\n      mstore\n        /* \"#utility.yul\":3458:3464   */\n      dup2\n        /* \"#utility.yul\":3452:3465   */\n      mload\n        /* \"#utility.yul\":3486:3570   */\n      tag_187\n        /* \"#utility.yul\":3565:3569   */\n      dup6\n        /* \"#utility.yul\":3550:3563   */\n      dup3\n        /* \"#utility.yul\":3486:3570   */\n      tag_165\n      jump\t// in\n    tag_187:\n        /* \"#utility.yul\":3478:3570   */\n      swap5\n      pop\n        /* \"#utility.yul\":3593:3663   */\n      tag_188\n        /* \"#utility.yul\":3656:3662   */\n      dup4\n        /* \"#utility.yul\":3593:3663   */\n      tag_189\n      jump\t// in\n    tag_188:\n        /* \"#utility.yul\":3583:3663   */\n      swap3\n      pop\n        /* \"#utility.yul\":3692:3696   */\n      0x20\n        /* \"#utility.yul\":3687:3690   */\n      dup11\n        /* \"#utility.yul\":3683:3697   */\n      add\n        /* \"#utility.yul\":3676:3697   */\n      swap10\n      pop\n        /* \"#utility.yul\":3371:3707   */\n      pop\n        /* \"#utility.yul\":3358:3359   */\n      0x01\n        /* \"#utility.yul\":3355:3356   */\n      dup2\n        /* \"#utility.yul\":3351:3360   */\n      add\n        /* \"#utility.yul\":3346:3360   */\n      swap1\n      pop\n        /* \"#utility.yul\":3311:3707   */\n      jump(tag_184)\n    tag_186:\n        /* \"#utility.yul\":3315:3329   */\n      pop\n        /* \"#utility.yul\":3723:3727   */\n      dup3\n        /* \"#utility.yul\":3716:3727   */\n      swap8\n      pop\n        /* \"#utility.yul\":3743:3746   */\n      dup8\n        /* \"#utility.yul\":3736:3746   */\n      swap6\n      pop\n        /* \"#utility.yul\":2905:3752   */\n      pop\n      pop\n      pop\n      pop\n      pop\n      swap3\n      swap2\n      pop\n      pop\n      jump\t// out\n        /* \"#utility.yul\":3758:4102   */\n    tag_168:\n      0x00\n        /* \"#utility.yul\":3864:3903   */\n      tag_191\n        /* \"#utility.yul\":3897:3902   */\n      dup3\n        /* \"#utility.yul\":3864:3903   */\n      tag_192\n      jump\t// in\n    tag_191:\n        /* \"#utility.yul\":3919:3980   */\n      tag_193\n        /* \"#utility.yul\":3973:3979   */\n      dup2\n        /* \"#utility.yul\":3968:3971   */\n      dup6\n        /* \"#utility.yul\":3919:3980   */\n      tag_194\n      jump\t// in\n    tag_193:\n        /* \"#utility.yul\":3912:3980   */\n      swap4\n      pop\n        /* \"#utility.yul\":3989:4041   */\n      tag_195\n        /* \"#utility.yul\":4034:4040   */\n      dup2\n        /* \"#utility.yul\":4029:4032   */\n      dup6\n        /* \"#utility.yul\":4022:4026   */\n      0x20\n        /* \"#utility.yul\":4015:4020   */\n      dup7\n        /* \"#utility.yul\":4011:4027   */\n      add\n        /* \"#utility.yul\":3989:4041   */\n      tag_196\n      jump\t// in\n    tag_195:\n        /* \"#utility.yul\":4066:4095   */\n      tag_197\n        /* \"#utility.yul\":4088:4094   */\n      dup2\n        /* \"#utility.yul\":4066:4095   */\n      tag_198\n      jump\t// in\n    tag_197:\n        /* \"#utility.yul\":4061:4064   */\n      dup5\n        /* \"#utility.yul\":4057:4096   */\n      add\n        /* \"#utility.yul\":4050:4096   */\n      swap2\n      pop\n        /* \"#utility.yul\":3840:4102   */\n      pop\n      swap3\n      swap2\n      pop\n      pop\n      jump\t// out\n        /* \"#utility.yul\":4176:5072   */\n    tag_199:\n        /* \"#utility.yul\":4321:4325   */\n      0x80\n        /* \"#utility.yul\":4316:4319   */\n      dup3\n        /* \"#utility.yul\":4312:4326   */\n      add\n        /* \"#utility.yul\":4414:4418   */\n      0x00\n        /* \"#utility.yul\":4407:4412   */\n      dup3\n        /* \"#utility.yul\":4403:4419   */\n      add\n        /* \"#utility.yul\":4397:4420   */\n      mload\n        /* \"#utility.yul\":4433:4496   */\n      tag_201\n        /* \"#utility.yul\":4490:4494   */\n      0x00\n        /* \"#utility.yul\":4485:4488   */\n      dup6\n        /* \"#utility.yul\":4481:4495   */\n      add\n        /* \"#utility.yul\":4467:4479   */\n      dup3\n        /* \"#utility.yul\":4433:4496   */\n      tag_202\n      jump\t// in\n    tag_201:\n        /* \"#utility.yul\":4336:4506   */\n      pop\n        /* \"#utility.yul\":4598:4602   */\n      0x20\n        /* \"#utility.yul\":4591:4596   */\n      dup3\n        /* \"#utility.yul\":4587:4603   */\n      add\n        /* \"#utility.yul\":4581:4604   */\n      mload\n        /* \"#utility.yul\":4617:4680   */\n      tag_203\n        /* \"#utility.yul\":4674:4678   */\n      0x20\n        /* \"#utility.yul\":4669:4672   */\n      dup6\n        /* \"#utility.yul\":4665:4679   */\n      add\n        /* \"#utility.yul\":4651:4663   */\n      dup3\n        /* \"#utility.yul\":4617:4680   */\n      tag_202\n      jump\t// in\n    tag_203:\n        /* \"#utility.yul\":4516:4690   */\n      pop\n        /* \"#utility.yul\":4783:4787   */\n      0x40\n        /* \"#utility.yul\":4776:4781   */\n      dup3\n        /* \"#utility.yul\":4772:4788   */\n      add\n        /* \"#utility.yul\":4766:4789   */\n      mload\n        /* \"#utility.yul\":4802:4865   */\n      tag_204\n        /* \"#utility.yul\":4859:4863   */\n      0x40\n        /* \"#utility.yul\":4854:4857   */\n      dup6\n        /* \"#utility.yul\":4850:4864   */\n      add\n        /* \"#utility.yul\":4836:4848   */\n      dup3\n        /* \"#utility.yul\":4802:4865   */\n      tag_169\n      jump\t// in\n    tag_204:\n        /* \"#utility.yul\":4700:4875   */\n      pop\n        /* \"#utility.yul\":4973:4977   */\n      0x60\n        /* \"#utility.yul\":4966:4971   */\n      dup3\n        /* \"#utility.yul\":4962:4978   */\n      add\n        /* \"#utility.yul\":4956:4979   */\n      mload\n        /* \"#utility.yul\":4992:5055   */\n      tag_205\n        /* \"#utility.yul\":5049:5053   */\n      0x60\n        /* \"#utility.yul\":5044:5047   */\n      dup6\n        /* \"#utility.yul\":5040:5054   */\n      add\n        /* \"#utility.yul\":5026:5038   */\n      dup3\n        /* \"#utility.yul\":4992:5055   */\n      tag_202\n      jump\t// in\n    tag_205:\n        /* \"#utility.yul\":4885:5065   */\n      pop\n        /* \"#utility.yul\":4290:5072   */\n      pop\n      pop\n      pop\n      jump\t// out\n        /* \"#utility.yul\":5078:5186   */\n    tag_202:\n        /* \"#utility.yul\":5155:5179   */\n      tag_207\n        /* \"#utility.yul\":5173:5178   */\n      dup2\n        /* \"#utility.yul\":5155:5179   */\n      tag_208\n      jump\t// in\n    tag_207:\n        /* \"#utility.yul\":5150:5153   */\n      dup3\n        /* \"#utility.yul\":5143:5180   */\n      mstore\n        /* \"#utility.yul\":5133:5186   */\n      pop\n      pop\n      jump\t// out\n        /* \"#utility.yul\":5192:5310   */\n    tag_209:\n        /* \"#utility.yul\":5279:5303   */\n      tag_211\n        /* \"#utility.yul\":5297:5302   */\n      dup2\n        /* \"#utility.yul\":5279:5303   */\n      tag_208\n      jump\t// in\n    tag_211:\n        /* \"#utility.yul\":5274:5277   */\n      dup3\n        /* \"#utility.yul\":5267:5304   */\n      mstore\n        /* \"#utility.yul\":5257:5310   */\n      pop\n      pop\n      jump\t// out\n        /* \"#utility.yul\":5316:5729   */\n    tag_19:\n      0x00\n        /* \"#utility.yul\":5517:5519   */\n      0x20\n        /* \"#utility.yul\":5506:5515   */\n      dup3\n        /* \"#utility.yul\":5502:5520   */\n      add\n        /* \"#utility.yul\":5494:5520   */\n      swap1\n      pop\n        /* \"#utility.yul\":5566:5575   */\n      dup2\n        /* \"#utility.yul\":5560:5564   */\n      dup2\n        /* \"#utility.yul\":5556:5576   */\n      sub\n        /* \"#utility.yul\":5552:5553   */\n      0x00\n        /* \"#utility.yul\":5541:5550   */\n      dup4\n        /* \"#utility.yul\":5537:5554   */\n      add\n        /* \"#utility.yul\":5530:5577   */\n      mstore\n        /* \"#utility.yul\":5594:5722   */\n      tag_213\n        /* \"#utility.yul\":5717:5721   */\n      dup2\n        /* \"#utility.yul\":5708:5714   */\n      dup5\n        /* \"#utility.yul\":5594:5722   */\n      tag_176\n      jump\t// in\n    tag_213:\n        /* \"#utility.yul\":5586:5722   */\n      swap1\n      pop\n        /* \"#utility.yul\":5484:5729   */\n      swap3\n      swap2\n      pop\n      pop\n      jump\t// out\n        /* \"#utility.yul\":5735:6054   */\n    tag_32:\n      0x00\n        /* \"#utility.yul\":5914:5917   */\n      0x80\n        /* \"#utility.yul\":5903:5912   */\n      dup3\n        /* \"#utility.yul\":5899:5918   */\n      add\n        /* \"#utility.yul\":5891:5918   */\n      swap1\n      pop\n        /* \"#utility.yul\":5928:6047   */\n      tag_215\n        /* \"#utility.yul\":6044:6045   */\n      0x00\n        /* \"#utility.yul\":6033:6042   */\n      dup4\n        /* \"#utility.yul\":6029:6046   */\n      add\n        /* \"#utility.yul\":6020:6026   */\n      dup5\n        /* \"#utility.yul\":5928:6047   */\n      tag_199\n      jump\t// in\n    tag_215:\n        /* \"#utility.yul\":5881:6054   */\n      swap3\n      swap2\n      pop\n      pop\n      jump\t// out\n        /* \"#utility.yul\":6060:6282   */\n    tag_27:\n      0x00\n        /* \"#utility.yul\":6191:6193   */\n      0x20\n        /* \"#utility.yul\":6180:6189   */\n      dup3\n        /* \"#utility.yul\":6176:6194   */\n      add\n        /* \"#utility.yul\":6168:6194   */\n      swap1\n      pop\n        /* \"#utility.yul\":6204:6275   */\n      tag_217\n        /* \"#utility.yul\":6272:6273   */\n      0x00\n        /* \"#utility.yul\":6261:6270   */\n      dup4\n        /* \"#utility.yul\":6257:6274   */\n      add\n        /* \"#utility.yul\":6248:6254   */\n      dup5\n        /* \"#utility.yul\":6204:6275   */\n      tag_209\n      jump\t// in\n    tag_217:\n        /* \"#utility.yul\":6158:6282   */\n      swap3\n      swap2\n      pop\n      pop\n      jump\t// out\n        /* \"#utility.yul\":6288:6841   */\n    tag_13:\n      0x00\n        /* \"#utility.yul\":6503:6506   */\n      0x80\n        /* \"#utility.yul\":6492:6501   */\n      dup3\n        /* \"#utility.yul\":6488:6507   */\n      add\n        /* \"#utility.yul\":6480:6507   */\n      swap1\n      pop\n        /* \"#utility.yul\":6517:6588   */\n      tag_219\n        /* \"#utility.yul\":6585:6586   */\n      0x00\n        /* \"#utility.yul\":6574:6583   */\n      dup4\n        /* \"#utility.yul\":6570:6587   */\n      add\n        /* \"#utility.yul\":6561:6567   */\n      dup8\n        /* \"#utility.yul\":6517:6588   */\n      tag_209\n      jump\t// in\n    tag_219:\n        /* \"#utility.yul\":6598:6670   */\n      tag_220\n        /* \"#utility.yul\":6666:6668   */\n      0x20\n        /* \"#utility.yul\":6655:6664   */\n      dup4\n        /* \"#utility.yul\":6651:6669   */\n      add\n        /* \"#utility.yul\":6642:6648   */\n      dup7\n        /* \"#utility.yul\":6598:6670   */\n      tag_209\n      jump\t// in\n    tag_220:\n        /* \"#utility.yul\":6680:6752   */\n      tag_221\n        /* \"#utility.yul\":6748:6750   */\n      0x40\n        /* \"#utility.yul\":6737:6746   */\n      dup4\n        /* \"#utility.yul\":6733:6751   */\n      add\n        /* \"#utility.yul\":6724:6730   */\n      dup6\n        /* \"#utility.yul\":6680:6752   */\n      tag_173\n      jump\t// in\n    tag_221:\n        /* \"#utility.yul\":6762:6834   */\n      tag_222\n        /* \"#utility.yul\":6830:6832   */\n      0x60\n        /* \"#utility.yul\":6819:6828   */\n      dup4\n        /* \"#utility.yul\":6815:6833   */\n      add\n        /* \"#utility.yul\":6806:6812   */\n      dup5\n        /* \"#utility.yul\":6762:6834   */\n      tag_209\n      jump\t// in\n    tag_222:\n        /* \"#utility.yul\":6470:6841   */\n      swap6\n      swap5\n      pop\n      pop\n      pop\n      pop\n      pop\n      jump\t// out\n        /* \"#utility.yul\":6847:7130   */\n    tag_136:\n      0x00\n        /* \"#utility.yul\":6913:6915   */\n      0x40\n        /* \"#utility.yul\":6907:6916   */\n      mload\n        /* \"#utility.yul\":6897:6916   */\n      swap1\n      pop\n        /* \"#utility.yul\":6955:6959   */\n      dup2\n        /* \"#utility.yul\":6947:6953   */\n      dup2\n        /* \"#utility.yul\":6943:6960   */\n      add\n        /* \"#utility.yul\":7062:7068   */\n      dup2\n        /* \"#utility.yul\":7050:7060   */\n      dup2\n        /* \"#utility.yul\":7047:7069   */\n      lt\n        /* \"#utility.yul\":7026:7044   */\n      0xffffffffffffffff\n        /* \"#utility.yul\":7014:7024   */\n      dup3\n        /* \"#utility.yul\":7011:7045   */\n      gt\n        /* \"#utility.yul\":7008:7070   */\n      or\n        /* \"#utility.yul\":7005:7007   */\n      iszero\n      tag_224\n      jumpi\n        /* \"#utility.yul\":7073:7091   */\n      tag_225\n      tag_226\n      jump\t// in\n    tag_225:\n        /* \"#utility.yul\":7005:7007   */\n    tag_224:\n        /* \"#utility.yul\":7113:7123   */\n      dup1\n        /* \"#utility.yul\":7109:7111   */\n      0x40\n        /* \"#utility.yul\":7102:7124   */\n      mstore\n        /* \"#utility.yul\":6887:7130   */\n      pop\n      swap2\n      swap1\n      pop\n      jump\t// out\n        /* \"#utility.yul\":7136:7468   */\n    tag_135:\n      0x00\n        /* \"#utility.yul\":7288:7306   */\n      0xffffffffffffffff\n        /* \"#utility.yul\":7280:7286   */\n      dup3\n        /* \"#utility.yul\":7277:7307   */\n      gt\n        /* \"#utility.yul\":7274:7276   */\n      iszero\n      tag_228\n      jumpi\n        /* \"#utility.yul\":7310:7328   */\n      tag_229\n      tag_226\n      jump\t// in\n    tag_229:\n        /* \"#utility.yul\":7274:7276   */\n    tag_228:\n        /* \"#utility.yul\":7395:7399   */\n      0x1f\n        /* \"#utility.yul\":7391:7400   */\n      not\n        /* \"#utility.yul\":7384:7388   */\n      0x1f\n        /* \"#utility.yul\":7376:7382   */\n      dup4\n        /* \"#utility.yul\":7372:7389   */\n      add\n        /* \"#utility.yul\":7368:7401   */\n      and\n        /* \"#utility.yul\":7360:7401   */\n      swap1\n      pop\n        /* \"#utility.yul\":7456:7460   */\n      0x20\n        /* \"#utility.yul\":7450:7454   */\n      dup2\n        /* \"#utility.yul\":7446:7461   */\n      add\n        /* \"#utility.yul\":7438:7461   */\n      swap1\n      pop\n        /* \"#utility.yul\":7203:7468   */\n      swap2\n      swap1\n      pop\n      jump\t// out\n        /* \"#utility.yul\":7474:7616   */\n    tag_183:\n      0x00\n        /* \"#utility.yul\":7574:7577   */\n      dup2\n        /* \"#utility.yul\":7566:7577   */\n      swap1\n      pop\n        /* \"#utility.yul\":7604:7608   */\n      0x20\n        /* \"#utility.yul\":7599:7602   */\n      dup3\n        /* \"#utility.yul\":7595:7609   */\n      add\n        /* \"#utility.yul\":7587:7609   */\n      swap1\n      pop\n        /* \"#utility.yul\":7556:7616   */\n      swap2\n      swap1\n      pop\n      jump\t// out\n        /* \"#utility.yul\":7622:7746   */\n    tag_179:\n      0x00\n        /* \"#utility.yul\":7733:7738   */\n      dup2\n        /* \"#utility.yul\":7727:7739   */\n      mload\n        /* \"#utility.yul\":7717:7739   */\n      swap1\n      pop\n        /* \"#utility.yul\":7706:7746   */\n      swap2\n      swap1\n      pop\n      jump\t// out\n        /* \"#utility.yul\":7752:7851   */\n    tag_192:\n      0x00\n        /* \"#utility.yul\":7838:7843   */\n      dup2\n        /* \"#utility.yul\":7832:7844   */\n      mload\n        /* \"#utility.yul\":7822:7844   */\n      swap1\n      pop\n        /* \"#utility.yul\":7811:7851   */\n      swap2\n      swap1\n      pop\n      jump\t// out\n        /* \"#utility.yul\":7857:7980   */\n    tag_189:\n      0x00\n        /* \"#utility.yul\":7969:7973   */\n      0x20\n        /* \"#utility.yul\":7964:7967   */\n      dup3\n        /* \"#utility.yul\":7960:7974   */\n      add\n        /* \"#utility.yul\":7952:7974   */\n      swap1\n      pop\n        /* \"#utility.yul\":7942:7980   */\n      swap2\n      swap1\n      pop\n      jump\t// out\n        /* \"#utility.yul\":7986:8180   */\n    tag_181:\n      0x00\n        /* \"#utility.yul\":8129:8135   */\n      dup3\n        /* \"#utility.yul\":8124:8127   */\n      dup3\n        /* \"#utility.yul\":8117:8136   */\n      mstore\n        /* \"#utility.yul\":8169:8173   */\n      0x20\n        /* \"#utility.yul\":8164:8167   */\n      dup3\n        /* \"#utility.yul\":8160:8174   */\n      add\n        /* \"#utility.yul\":8145:8174   */\n      swap1\n      pop\n        /* \"#utility.yul\":8107:8180   */\n      swap3\n      swap2\n      pop\n      pop\n      jump\t// out\n        /* \"#utility.yul\":8186:8345   */\n    tag_194:\n      0x00\n        /* \"#utility.yul\":8294:8300   */\n      dup3\n        /* \"#utility.yul\":8289:8292   */\n      dup3\n        /* \"#utility.yul\":8282:8301   */\n      mstore\n        /* \"#utility.yul\":8334:8338   */\n      0x20\n        /* \"#utility.yul\":8329:8332   */\n      dup3\n        /* \"#utility.yul\":8325:8339   */\n      add\n        /* \"#utility.yul\":8310:8339   */\n      swap1\n      pop\n        /* \"#utility.yul\":8272:8345   */\n      swap3\n      swap2\n      pop\n      pop\n      jump\t// out\n        /* \"#utility.yul\":8351:8656   */\n    tag_64:\n      0x00\n        /* \"#utility.yul\":8410:8430   */\n      tag_237\n        /* \"#utility.yul\":8428:8429   */\n      dup3\n        /* \"#utility.yul\":8410:8430   */\n      tag_208\n      jump\t// in\n    tag_237:\n        /* \"#utility.yul\":8405:8430   */\n      swap2\n      pop\n        /* \"#utility.yul\":8444:8464   */\n      tag_238\n        /* \"#utility.yul\":8462:8463   */\n      dup4\n        /* \"#utility.yul\":8444:8464   */\n      tag_208\n      jump\t// in\n    tag_238:\n        /* \"#utility.yul\":8439:8464   */\n      swap3\n      pop\n        /* \"#utility.yul\":8598:8599   */\n      dup3\n        /* \"#utility.yul\":8530:8596   */\n      0xffffffffffffffffffffffffffffffffffffffffffffffffffffffffffffffff\n        /* \"#utility.yul\":8526:8600   */\n      sub\n        /* \"#utility.yul\":8523:8524   */\n      dup3\n        /* \"#utility.yul\":8520:8601   */\n      gt\n        /* \"#utility.yul\":8517:8519   */\n      iszero\n      tag_239\n      jumpi\n        /* \"#utility.yul\":8604:8622   */\n      tag_240\n      tag_241\n      jump\t// in\n    tag_240:\n        /* \"#utility.yul\":8517:8519   */\n    tag_239:\n        /* \"#utility.yul\":8648:8649   */\n      dup3\n        /* \"#utility.yul\":8645:8646   */\n      dup3\n        /* \"#utility.yul\":8641:8650   */\n      add\n        /* \"#utility.yul\":8634:8650   */\n      swap1\n      pop\n        /* \"#utility.yul\":8395:8656   */\n      swap3\n      swap2\n      pop\n      pop\n      jump\t// out\n        /* \"#utility.yul\":8662:9510   */\n    tag_242:\n      0x00\n      dup1\n        /* \"#utility.yul\":8754:8760   */\n      dup3\n        /* \"#utility.yul\":8745:8760   */\n      swap2\n      pop\n        /* \"#utility.yul\":8778:8783   */\n      dup4\n        /* \"#utility.yul\":8769:8783   */\n      swap1\n      pop\n        /* \"#utility.yul\":8792:9504   */\n    tag_244:\n        /* \"#utility.yul\":8813:8814   */\n      0x01\n        /* \"#utility.yul\":8803:8811   */\n      dup6\n        /* \"#utility.yul\":8800:8815   */\n      gt\n        /* \"#utility.yul\":8792:9504   */\n      iszero\n      tag_246\n      jumpi\n        /* \"#utility.yul\":8908:8912   */\n      dup1\n        /* \"#utility.yul\":8903:8906   */\n      dup7\n        /* \"#utility.yul\":8899:8913   */\n      div\n        /* \"#utility.yul\":8893:8897   */\n      dup2\n        /* \"#utility.yul\":8890:8914   */\n      gt\n        /* \"#utility.yul\":8887:8889   */\n      iszero\n      tag_247\n      jumpi\n        /* \"#utility.yul\":8917:8935   */\n      tag_248\n      tag_241\n      jump\t// in\n    tag_248:\n        /* \"#utility.yul\":8887:8889   */\n    tag_247:\n        /* \"#utility.yul\":8967:8968   */\n      0x01\n        /* \"#utility.yul\":8957:8965   */\n      dup6\n        /* \"#utility.yul\":8953:8969   */\n      and\n        /* \"#utility.yul\":8950:8952   */\n      iszero\n      tag_249\n      jumpi\n        /* \"#utility.yul\":9382:9386   */\n      dup1\n        /* \"#utility.yul\":9375:9380   */\n      dup3\n        /* \"#utility.yul\":9371:9387   */\n      mul\n        /* \"#utility.yul\":9362:9387   */\n      swap2\n      pop\n        /* \"#utility.yul\":8950:8952   */\n    tag_249:\n        /* \"#utility.yul\":9432:9436   */\n      dup1\n        /* \"#utility.yul\":9426:9430   */\n      dup2\n        /* \"#utility.yul\":9422:9437   */\n      mul\n        /* \"#utility.yul\":9414:9437   */\n      swap1\n      pop\n        /* \"#utility.yul\":9462:9494   */\n      tag_250\n        /* \"#utility.yul\":9485:9493   */\n      dup6\n        /* \"#utility.yul\":9462:9494   */\n      tag_251\n      jump\t// in\n    tag_250:\n        /* \"#utility.yul\":9450:9494   */\n      swap5\n      pop\n        /* \"#utility.yul\":8792:9504   */\n      jump(tag_244)\n    tag_246:\n        /* \"#utility.yul\":8735:9510   */\n      swap5\n      pop\n      swap5\n      swap3\n      pop\n      pop\n      pop\n      jump\t// out\n        /* \"#utility.yul\":9516:9801   */\n    tag_91:\n      0x00\n        /* \"#utility.yul\":9600:9623   */\n      tag_253\n        /* \"#utility.yul\":9618:9622   */\n      dup3\n        /* \"#utility.yul\":9600:9623   */\n      tag_208\n      jump\t// in\n    tag_253:\n        /* \"#utility.yul\":9592:9623   */\n      swap2\n      pop\n        /* \"#utility.yul\":9644:9671   */\n      tag_254\n        /* \"#utility.yul\":9662:9670   */\n      dup4\n        /* \"#utility.yul\":9644:9671   */\n      tag_208\n      jump\t// in\n    tag_254:\n        /* \"#utility.yul\":9632:9671   */\n      swap3\n      pop\n        /* \"#utility.yul\":9690:9794   */\n      tag_255\n        /* \"#utility.yul\":9727:9793   */\n      0xffffffffffffffffffffffffffffffffffffffffffffffffffffffffffffffff\n        /* \"#utility.yul\":9717:9725   */\n      dup5\n        /* \"#utility.yul\":9711:9715   */\n      dup5\n        /* \"#utility.yul\":9690:9794   */\n      tag_256\n      jump\t// in\n    tag_255:\n        /* \"#utility.yul\":9681:9794   */\n      swap1\n      pop\n        /* \"#utility.yul\":9582:9801   */\n      swap3\n      swap2\n      pop\n      pop\n      jump\t// out\n        /* \"#utility.yul\":9807:10880   */\n    tag_256:\n      0x00\n        /* \"#utility.yul\":10052:10060   */\n      dup3\n        /* \"#utility.yul\":10042:10044   */\n      tag_258\n      jumpi\n        /* \"#utility.yul\":10073:10074   */\n      0x01\n        /* \"#utility.yul\":10064:10074   */\n      swap1\n      pop\n        /* \"#utility.yul\":10075:10080   */\n      jump(tag_257)\n        /* \"#utility.yul\":10042:10044   */\n    tag_258:\n        /* \"#utility.yul\":10101:10105   */\n      dup2\n        /* \"#utility.yul\":10091:10093   */\n      tag_259\n      jumpi\n        /* \"#utility.yul\":10118:10119   */\n      0x00\n        /* \"#utility.yul\":10109:10119   */\n      swap1\n      pop\n        /* \"#utility.yul\":10120:10125   */\n      jump(tag_257)\n        /* \"#utility.yul\":10091:10093   */\n    tag_259:\n        /* \"#utility.yul\":10187:10191   */\n      dup2\n        /* \"#utility.yul\":10235:10236   */\n      0x01\n        /* \"#utility.yul\":10230:10257   */\n      dup2\n      eq\n      tag_261\n      jumpi\n        /* \"#utility.yul\":10271:10272   */\n      0x02\n        /* \"#utility.yul\":10266:10457   */\n      dup2\n      eq\n      tag_262\n      jumpi\n        /* \"#utility.yul\":10180:10457   */\n      jump(tag_260)\n        /* \"#utility.yul\":10230:10257   */\n    tag_261:\n        /* \"#utility.yul\":10248:10249   */\n      0x01\n        /* \"#utility.yul\":10239:10249   */\n      swap2\n      pop\n        /* \"#utility.yul\":10250:10255   */\n      pop\n      jump(tag_257)\n        /* \"#utility.yul\":10266:10457   */\n    tag_262:\n        /* \"#utility.yul\":10311:10314   */\n      0xff\n        /* \"#utility.yul\":10301:10309   */\n      dup5\n        /* \"#utility.yul\":10298:10315   */\n      gt\n        /* \"#utility.yul\":10295:10297   */\n      iszero\n      tag_263\n      jumpi\n        /* \"#utility.yul\":10318:10336   */\n      tag_264\n      tag_241\n      jump\t// in\n    tag_264:\n        /* \"#utility.yul\":10295:10297   */\n    tag_263:\n        /* \"#utility.yul\":10367:10375   */\n      dup4\n        /* \"#utility.yul\":10364:10365   */\n      0x02\n        /* \"#utility.yul\":10360:10376   */\n      exp\n        /* \"#utility.yul\":10351:10376   */\n      swap2\n      pop\n        /* \"#utility.yul\":10402:10405   */\n      dup5\n        /* \"#utility.yul\":10395:10400   */\n      dup3\n        /* \"#utility.yul\":10392:10406   */\n      gt\n        /* \"#utility.yul\":10389:10391   */\n      iszero\n      tag_265\n      jumpi\n        /* \"#utility.yul\":10409:10427   */\n      tag_266\n      tag_241\n      jump\t// in\n    tag_266:\n        /* \"#utility.yul\":10389:10391   */\n    tag_265:\n        /* \"#utility.yul\":10442:10447   */\n      pop\n      jump(tag_257)\n        /* \"#utility.yul\":10180:10457   */\n    tag_260:\n      pop\n        /* \"#utility.yul\":10566:10568   */\n      0x20\n        /* \"#utility.yul\":10556:10564   */\n      dup4\n        /* \"#utility.yul\":10553:10569   */\n      lt\n        /* \"#utility.yul\":10547:10550   */\n      0x0133\n        /* \"#utility.yul\":10541:10545   */\n      dup4\n        /* \"#utility.yul\":10538:10551   */\n      lt\n        /* \"#utility.yul\":10534:10570   */\n      and\n        /* \"#utility.yul\":10516:10518   */\n      0x4e\n        /* \"#utility.yul\":10506:10514   */\n      dup5\n        /* \"#utility.yul\":10503:10519   */\n      lt\n        /* \"#utility.yul\":10498:10500   */\n      0x0b\n        /* \"#utility.yul\":10492:10496   */\n      dup5\n        /* \"#utility.yul\":10489:10501   */\n      lt\n        /* \"#utility.yul\":10485:10520   */\n      and\n        /* \"#utility.yul\":10469:10580   */\n      or\n        /* \"#utility.yul\":10466:10468   */\n      iszero\n      tag_267\n      jumpi\n        /* \"#utility.yul\":10622:10630   */\n      dup3\n        /* \"#utility.yul\":10616:10620   */\n      dup3\n        /* \"#utility.yul\":10612:10631   */\n      exp\n        /* \"#utility.yul\":10603:10631   */\n      swap1\n      pop\n        /* \"#utility.yul\":10657:10660   */\n      dup4\n        /* \"#utility.yul\":10650:10655   */\n      dup2\n        /* \"#utility.yul\":10647:10661   */\n      gt\n        /* \"#utility.yul\":10644:10646   */\n      iszero\n      tag_268\n      jumpi\n        /* \"#utility.yul\":10664:10682   */\n      tag_269\n      tag_241\n      jump\t// in\n    tag_269:\n        /* \"#utility.yul\":10644:10646   */\n    tag_268:\n        /* \"#utility.yul\":10697:10702   */\n      jump(tag_257)\n        /* \"#utility.yul\":10466:10468   */\n    tag_267:\n        /* \"#utility.yul\":10737:10779   */\n      tag_270\n        /* \"#utility.yul\":10775:10778   */\n      dup5\n        /* \"#utility.yul\":10765:10773   */\n      dup5\n        /* \"#utility.yul\":10759:10763   */\n      dup5\n        /* \"#utility.yul\":10756:10757   */\n      0x01\n        /* \"#utility.yul\":10737:10779   */\n      tag_242\n      jump\t// in\n    tag_270:\n        /* \"#utility.yul\":10722:10779   */\n      swap3\n      pop\n      swap1\n      pop\n        /* \"#utility.yul\":10811:10815   */\n      dup2\n        /* \"#utility.yul\":10806:10809   */\n      dup5\n        /* \"#utility.yul\":10802:10816   */\n      div\n        /* \"#utility.yul\":10795:10800   */\n      dup2\n        /* \"#utility.yul\":10792:10817   */\n      gt\n        /* \"#utility.yul\":10789:10791   */\n      iszero\n      tag_271\n      jumpi\n        /* \"#utility.yul\":10820:10838   */\n      tag_272\n      tag_241\n      jump\t// in\n    tag_272:\n        /* \"#utility.yul\":10789:10791   */\n    tag_271:\n        /* \"#utility.yul\":10869:10873   */\n      dup2\n        /* \"#utility.yul\":10862:10867   */\n      dup2\n        /* \"#utility.yul\":10858:10874   */\n      mul\n        /* \"#utility.yul\":10849:10874   */\n      swap1\n      pop\n        /* \"#utility.yul\":9867:10880   */\n    tag_257:\n      swap4\n      swap3\n      pop\n      pop\n      pop\n      jump\t// out\n        /* \"#utility.yul\":10886:11234   */\n    tag_89:\n      0x00\n        /* \"#utility.yul\":10949:10969   */\n      tag_274\n        /* \"#utility.yul\":10967:10968   */\n      dup3\n        /* \"#utility.yul\":10949:10969   */\n      tag_208\n      jump\t// in\n    tag_274:\n        /* \"#utility.yul\":10944:10969   */\n      swap2\n      pop\n        /* \"#utility.yul\":10983:11003   */\n      tag_275\n        /* \"#utility.yul\":11001:11002   */\n      dup4\n        /* \"#utility.yul\":10983:11003   */\n      tag_208\n      jump\t// in\n    tag_275:\n        /* \"#utility.yul\":10978:11003   */\n      swap3\n      pop\n        /* \"#utility.yul\":11171:11172   */\n      dup2\n        /* \"#utility.yul\":11103:11169   */\n      0xffffffffffffffffffffffffffffffffffffffffffffffffffffffffffffffff\n        /* \"#utility.yul\":11099:11173   */\n      div\n        /* \"#utility.yul\":11096:11097   */\n      dup4\n        /* \"#utility.yul\":11093:11174   */\n      gt\n        /* \"#utility.yul\":11088:11089   */\n      dup3\n        /* \"#utility.yul\":11081:11090   */\n      iszero\n        /* \"#utility.yul\":11074:11091   */\n      iszero\n        /* \"#utility.yul\":11070:11175   */\n      and\n        /* \"#utility.yul\":11067:11069   */\n      iszero\n      tag_276\n      jumpi\n        /* \"#utility.yul\":11178:11196   */\n      tag_277\n      tag_241\n      jump\t// in\n    tag_277:\n        /* \"#utility.yul\":11067:11069   */\n    tag_276:\n        /* \"#utility.yul\":11226:11227   */\n      dup3\n        /* \"#utility.yul\":11223:11224   */\n      dup3\n        /* \"#utility.yul\":11219:11228   */\n      mul\n        /* \"#utility.yul\":11208:11228   */\n      swap1\n      pop\n        /* \"#utility.yul\":10934:11234   */\n      swap3\n      swap2\n      pop\n      pop\n      jump\t// out\n        /* \"#utility.yul\":11240:11431   */\n    tag_71:\n      0x00\n        /* \"#utility.yul\":11300:11320   */\n      tag_279\n        /* \"#utility.yul\":11318:11319   */\n      dup3\n        /* \"#utility.yul\":11300:11320   */\n      tag_208\n      jump\t// in\n    tag_279:\n        /* \"#utility.yul\":11295:11320   */\n      swap2\n      pop\n        /* \"#utility.yul\":11334:11354   */\n      tag_280\n        /* \"#utility.yul\":11352:11353   */\n      dup4\n        /* \"#utility.yul\":11334:11354   */\n      tag_208\n      jump\t// in\n    tag_280:\n        /* \"#utility.yul\":11329:11354   */\n      swap3\n      pop\n        /* \"#utility.yul\":11373:11374   */\n      dup3\n        /* \"#utility.yul\":11370:11371   */\n      dup3\n        /* \"#utility.yul\":11367:11375   */\n      lt\n        /* \"#utility.yul\":11364:11366   */\n      iszero\n      tag_281\n      jumpi\n        /* \"#utility.yul\":11378:11396   */\n      tag_282\n      tag_241\n      jump\t// in\n    tag_282:\n        /* \"#utility.yul\":11364:11366   */\n    tag_281:\n        /* \"#utility.yul\":11423:11424   */\n      dup3\n        /* \"#utility.yul\":11420:11421   */\n      dup3\n        /* \"#utility.yul\":11416:11425   */\n      sub\n        /* \"#utility.yul\":11408:11425   */\n      swap1\n      pop\n        /* \"#utility.yul\":11285:11431   */\n      swap3\n      swap2\n      pop\n      pop\n      jump\t// out\n        /* \"#utility.yul\":11437:11533   */\n    tag_172:\n      0x00\n        /* \"#utility.yul\":11503:11527   */\n      tag_284\n        /* \"#utility.yul\":11521:11526   */\n      dup3\n        /* \"#utility.yul\":11503:11527   */\n      tag_285\n      jump\t// in\n    tag_284:\n        /* \"#utility.yul\":11492:11527   */\n      swap1\n      pop\n        /* \"#utility.yul\":11482:11533   */\n      swap2\n      swap1\n      pop\n      jump\t// out\n        /* \"#utility.yul\":11539:11665   */\n    tag_285:\n      0x00\n        /* \"#utility.yul\":11616:11658   */\n      0xffffffffffffffffffffffffffffffffffffffff\n        /* \"#utility.yul\":11609:11614   */\n      dup3\n        /* \"#utility.yul\":11605:11659   */\n      and\n        /* \"#utility.yul\":11594:11659   */\n      swap1\n      pop\n        /* \"#utility.yul\":11584:11665   */\n      swap2\n      swap1\n      pop\n      jump\t// out\n        /* \"#utility.yul\":11671:11748   */\n    tag_208:\n      0x00\n        /* \"#utility.yul\":11737:11742   */\n      dup2\n        /* \"#utility.yul\":11726:11742   */\n      swap1\n      pop\n        /* \"#utility.yul\":11716:11748   */\n      swap2\n      swap1\n      pop\n      jump\t// out\n        /* \"#utility.yul\":11754:11908   */\n    tag_139:\n        /* \"#utility.yul\":11838:11844   */\n      dup3\n        /* \"#utility.yul\":11833:11836   */\n      dup2\n        /* \"#utility.yul\":11828:11831   */\n      dup4\n        /* \"#utility.yul\":11815:11845   */\n      calldatacopy\n        /* \"#utility.yul\":11900:11901   */\n      0x00\n        /* \"#utility.yul\":11891:11897   */\n      dup4\n        /* \"#utility.yul\":11886:11889   */\n      dup4\n        /* \"#utility.yul\":11882:11898   */\n      add\n        /* \"#utility.yul\":11875:11902   */\n      mstore\n        /* \"#utility.yul\":11805:11908   */\n      pop\n      pop\n      pop\n      jump\t// out\n        /* \"#utility.yul\":11914:12221   */\n    tag_196:\n        /* \"#utility.yul\":11982:11983   */\n      0x00\n        /* \"#utility.yul\":11992:12105   */\n    tag_290:\n        /* \"#utility.yul\":12006:12012   */\n      dup4\n        /* \"#utility.yul\":12003:12004   */\n      dup2\n        /* \"#utility.yul\":12000:12013   */\n      lt\n        /* \"#utility.yul\":11992:12105   */\n      iszero\n      tag_292\n      jumpi\n        /* \"#utility.yul\":12091:12092   */\n      dup1\n        /* \"#utility.yul\":12086:12089   */\n      dup3\n        /* \"#utility.yul\":12082:12093   */\n      add\n        /* \"#utility.yul\":12076:12094   */\n      mload\n        /* \"#utility.yul\":12072:12073   */\n      dup2\n        /* \"#utility.yul\":12067:12070   */\n      dup5\n        /* \"#utility.yul\":12063:12074   */\n      add\n        /* \"#utility.yul\":12056:12095   */\n      mstore\n        /* \"#utility.yul\":12028:12030   */\n      0x20\n        /* \"#utility.yul\":12025:12026   */\n      dup2\n        /* \"#utility.yul\":12021:12031   */\n      add\n        /* \"#utility.yul\":12016:12031   */\n      swap1\n      pop\n        /* \"#utility.yul\":11992:12105   */\n      jump(tag_290)\n    tag_292:\n        /* \"#utility.yul\":12123:12129   */\n      dup4\n        /* \"#utility.yul\":12120:12121   */\n      dup2\n        /* \"#utility.yul\":12117:12130   */\n      gt\n        /* \"#utility.yul\":12114:12116   */\n      iszero\n      tag_293\n      jumpi\n        /* \"#utility.yul\":12203:12204   */\n      0x00\n        /* \"#utility.yul\":12194:12200   */\n      dup5\n        /* \"#utility.yul\":12189:12192   */\n      dup5\n        /* \"#utility.yul\":12185:12201   */\n      add\n        /* \"#utility.yul\":12178:12205   */\n      mstore\n        /* \"#utility.yul\":12114:12116   */\n    tag_293:\n        /* \"#utility.yul\":11963:12221   */\n      pop\n      pop\n      pop\n      pop\n      jump\t// out\n        /* \"#utility.yul\":12227:12460   */\n    tag_51:\n      0x00\n        /* \"#utility.yul\":12289:12313   */\n      tag_295\n        /* \"#utility.yul\":12307:12312   */\n      dup3\n        /* \"#utility.yul\":12289:12313   */\n      tag_208\n      jump\t// in\n    tag_295:\n        /* \"#utility.yul\":12280:12313   */\n      swap2\n      pop\n        /* \"#utility.yul\":12335:12401   */\n      0xffffffffffffffffffffffffffffffffffffffffffffffffffffffffffffffff\n        /* \"#utility.yul\":12328:12333   */\n      dup3\n        /* \"#utility.yul\":12325:12402   */\n      eq\n        /* \"#utility.yul\":12322:12324   */\n      iszero\n      tag_296\n      jumpi\n        /* \"#utility.yul\":12405:12423   */\n      tag_297\n      tag_241\n      jump\t// in\n    tag_297:\n        /* \"#utility.yul\":12322:12324   */\n    tag_296:\n        /* \"#utility.yul\":12452:12453   */\n      0x01\n        /* \"#utility.yul\":12445:12450   */\n      dup3\n        /* \"#utility.yul\":12441:12454   */\n      add\n        /* \"#utility.yul\":12434:12454   */\n      swap1\n      pop\n        /* \"#utility.yul\":12270:12460   */\n      swap2\n      swap1\n      pop\n      jump\t// out\n        /* \"#utility.yul\":12466:12646   */\n    tag_241:\n        /* \"#utility.yul\":12514:12591   */\n      0x4e487b7100000000000000000000000000000000000000000000000000000000\n        /* \"#utility.yul\":12511:12512   */\n      0x00\n        /* \"#utility.yul\":12504:12592   */\n      mstore\n        /* \"#utility.yul\":12611:12615   */\n      0x11\n        /* \"#utility.yul\":12608:12609   */\n      0x04\n        /* \"#utility.yul\":12601:12616   */\n      mstore\n        /* \"#utility.yul\":12635:12639   */\n      0x24\n        /* \"#utility.yul\":12632:12633   */\n      0x00\n        /* \"#utility.yul\":12625:12640   */\n      revert\n        /* \"#utility.yul\":12652:12832   */\n    tag_226:\n        /* \"#utility.yul\":12700:12777   */\n      0x4e487b7100000000000000000000000000000000000000000000000000000000\n        /* \"#utility.yul\":12697:12698   */\n      0x00\n        /* \"#utility.yul\":12690:12778   */\n      mstore\n        /* \"#utility.yul\":12797:12801   */\n      0x41\n        /* \"#utility.yul\":12794:12795   */\n      0x04\n        /* \"#utility.yul\":12787:12802   */\n      mstore\n        /* \"#utility.yul\":12821:12825   */\n      0x24\n        /* \"#utility.yul\":12818:12819   */\n      0x00\n        /* \"#utility.yul\":12811:12826   */\n      revert\n        /* \"#utility.yul\":12838:12940   */\n    tag_198:\n      0x00\n        /* \"#utility.yul\":12930:12932   */\n      0x1f\n        /* \"#utility.yul\":12926:12933   */\n      not\n        /* \"#utility.yul\":12921:12923   */\n      0x1f\n        /* \"#utility.yul\":12914:12919   */\n      dup4\n        /* \"#utility.yul\":12910:12924   */\n      add\n        /* \"#utility.yul\":12906:12934   */\n      and\n        /* \"#utility.yul\":12896:12934   */\n      swap1\n      pop\n        /* \"#utility.yul\":12886:12940   */\n      swap2\n      swap1\n      pop\n      jump\t// out\n        /* \"#utility.yul\":12946:13048   */\n    tag_251:\n      0x00\n        /* \"#utility.yul\":13035:13040   */\n      dup2\n        /* \"#utility.yul\":13032:13033   */\n      0x01\n        /* \"#utility.yul\":13028:13041   */\n      shr\n        /* \"#utility.yul\":13007:13041   */\n      swap1\n      pop\n        /* \"#utility.yul\":12997:13048   */\n      swap2\n      swap1\n      pop\n      jump\t// out\n        /* \"#utility.yul\":13054:13176   */\n    tag_143:\n        /* \"#utility.yul\":13127:13151   */\n      tag_303\n        /* \"#utility.yul\":13145:13150   */\n      dup2\n        /* \"#utility.yul\":13127:13151   */\n      tag_172\n      jump\t// in\n    tag_303:\n        /* \"#utility.yul\":13120:13125   */\n      dup2\n        /* \"#utility.yul\":13117:13152   */\n      eq\n        /* \"#utility.yul\":13107:13109   */\n      tag_304\n      jumpi\n        /* \"#utility.yul\":13166:13167   */\n      0x00\n        /* \"#utility.yul\":13163:13164   */\n      dup1\n        /* \"#utility.yul\":13156:13168   */\n      revert\n        /* \"#utility.yul\":13107:13109   */\n    tag_304:\n        /* \"#utility.yul\":13097:13176   */\n      pop\n      jump\t// out\n        /* \"#utility.yul\":13182:13304   */\n    tag_151:\n        /* \"#utility.yul\":13255:13279   */\n      tag_306\n        /* \"#utility.yul\":13273:13278   */\n      dup2\n        /* \"#utility.yul\":13255:13279   */\n      tag_208\n      jump\t// in\n    tag_306:\n        /* \"#utility.yul\":13248:13253   */\n      dup2\n        /* \"#utility.yul\":13245:13280   */\n      eq\n        /* \"#utility.yul\":13235:13237   */\n      tag_307\n      jumpi\n        /* \"#utility.yul\":13294:13295   */\n      0x00\n        /* \"#utility.yul\":13291:13292   */\n      dup1\n        /* \"#utility.yul\":13284:13296   */\n      revert\n        /* \"#utility.yul\":13235:13237   */\n    tag_307:\n        /* \"#utility.yul\":13225:13304   */\n      pop\n      jump\t// out\n\n    auxdata: 0xa26469706673582212205dcc0d5f027a93af75af4dd6aa9674a060eb6f08d3f64411dc29fefa662b333a64736f6c63430008000033\n}\n",
				"bytecode": {
					"linkReferences": {},
					"object": "608060405234801561001057600080fd5b50600060018190555061004160018073b5dea2661dfa4b8f0aae8bc1f583369d927c3b06600361004660201b60201c565b610199565b60405180608001604052808581526020018481526020018373ffffffffffffffffffffffffffffffffffffffff168152602001828152506000806001548152602001908152602001600020600082015181600001556020820151816001015560408201518160020160006101000a81548173ffffffffffffffffffffffffffffffffffffffff021916908373ffffffffffffffffffffffffffffffffffffffff160217905550606082015181600301559050506001600081548092919061010c90610121565b919050555050505050565b6000819050919050565b600061012c82610117565b91507fffffffffffffffffffffffffffffffffffffffffffffffffffffffffffffffff82141561015f5761015e61016a565b5b600182019050919050565b7f4e487b7100000000000000000000000000000000000000000000000000000000600052601160045260246000fd5b6110fe806101a86000396000f3fe608060405234801561001057600080fd5b50600436106100575760003560e01c8063013cf08b1461005c57806396caabb81461008f578063cae455ee146100bf578063da35c664146100db578063e9d6c6da146100f9575b600080fd5b610076600480360381019061007191906109d0565b610129565b6040516100869493929190610c07565b60405180910390f35b6100a960048036038101906100a4919061098f565b610179565b6040516100b69190610baf565b60405180910390f35b6100d960048036038101906100d491906109f9565b6102db565b005b6100e36103ac565b6040516100f09190610bec565b60405180910390f35b610113600480360381019061010e91906109d0565b6103b2565b6040516101209190610bd1565b60405180910390f35b60006020528060005260406000206000915090508060000154908060010154908060020160009054906101000a900473ffffffffffffffffffffffffffffffffffffffff16908060030154905084565b6060600061018683610452565b905060006101c86040518060400160405280600181526020017f2d00000000000000000000000000000000000000000000000000000000000000815250610452565b905060006101df828461048090919063ffffffff16565b67ffffffffffffffff81111561021e577f4e487b7100000000000000000000000000000000000000000000000000000000600052604160045260246000fd5b60405190808252806020026020018201604052801561025157816020015b606081526020019060019003908161023c5790505b50905060005b81518110156102d25761027b610276848661052890919063ffffffff16565b610542565b8282815181106102b4577f4e487b7100000000000000000000000000000000000000000000000000000000600052603260045260246000fd5b602002602001018190525080806102ca90610fd5565b915050610257565b50505050919050565b60405180608001604052808581526020018481526020018373ffffffffffffffffffffffffffffffffffffffff168152602001828152506000806001548152602001908152602001600020600082015181600001556020820151816001015560408201518160020160006101000a81548173ffffffffffffffffffffffffffffffffffffffff021916908373ffffffffffffffffffffffffffffffffffffffff16021790555060608201518160030155905050600160008154809291906103a190610fd5565b919050555050505050565b60015481565b6103ba6108a5565b60008083815260200190815260200160002060405180608001604052908160008201548152602001600182015481526020016002820160009054906101000a900473ffffffffffffffffffffffffffffffffffffffff1673ffffffffffffffffffffffffffffffffffffffff1673ffffffffffffffffffffffffffffffffffffffff1681526020016003820154815250509050919050565b61045a6108e3565b600060208301905060405180604001604052808451815260200182815250915050919050565b60008082600001516104a485600001518660200151866000015187602001516105e4565b6104ae9190610d02565b90505b836000015184602001516104c59190610d02565b81116105215781806104d690610fd5565b92505082600001516105108560200151836104f19190610f23565b86600001516105009190610f23565b83866000015187602001516105e4565b61051a9190610d02565b90506104b1565b5092915050565b6105306108e3565b61053b83838361072e565b5092915050565b60606000826000015167ffffffffffffffff81111561058a577f4e487b7100000000000000000000000000000000000000000000000000000000600052604160045260246000fd5b6040519080825280601f01601f1916602001820160405280156105bc5781602001600182028036833780820191505090505b50905060006020820190506105da81856020015186600001516107f9565b8192505050919050565b600080849050600086851161071557602085116106b75760008086111561063d5760018660206106149190610f23565b60086106209190610ec9565b600261062c9190610dab565b6106369190610f23565b1960001b90505b60008186511690506000878a8a6106549190610d02565b61065e9190610f23565b905060008386511690505b8281146106a957818610610690578a8a6106839190610d02565b9650505050505050610726565b858061069b90610fd5565b965050838651169050610669565b859650505050505050610726565b60008585209050600091505b85886106cf9190610f23565b82116107135760008684209050808214156106f05783945050505050610726565b6001846106fd9190610d02565b935050818061070b90610fd5565b9250506106c3565b505b86866107219190610d02565b925050505b949350505050565b6107366108e3565b600061075485600001518660200151866000015187602001516105e4565b905084602001518360200181815250508460200151816107749190610f23565b836000018181525050846000015185602001516107919190610d02565b8114156107a85760008560000181815250506107ee565b836000015183600001516107bc9190610d02565b856000018181516107cd9190610f23565b915081815250508360000151816107e49190610d02565b8560200181815250505b829150509392505050565b5b6020811061083857815183526020836108139190610d02565b92506020826108229190610d02565b91506020816108319190610f23565b90506107fa565b60007fffffffffffffffffffffffffffffffffffffffffffffffffffffffffffffffff9050600082111561088f5760018260206108759190610f23565b6101006108829190610dab565b61088c9190610f23565b90505b8019835116818551168181178652505050505050565b60405180608001604052806000815260200160008152602001600073ffffffffffffffffffffffffffffffffffffffff168152602001600081525090565b604051806040016040528060008152602001600081525090565b600061091061090b84610c7d565b610c4c565b90508281526020810184848401111561092857600080fd5b610933848285610f93565b509392505050565b60008135905061094a8161109a565b92915050565b600082601f83011261096157600080fd5b81356109718482602086016108fd565b91505092915050565b600081359050610989816110b1565b92915050565b6000602082840312156109a157600080fd5b600082013567ffffffffffffffff8111156109bb57600080fd5b6109c784828501610950565b91505092915050565b6000602082840312156109e257600080fd5b60006109f08482850161097a565b91505092915050565b60008060008060808587031215610a0f57600080fd5b6000610a1d8782880161097a565b9450506020610a2e8782880161097a565b9350506040610a3f8782880161093b565b9250506060610a508782880161097a565b91505092959194509250565b6000610a688383610b03565b905092915050565b610a7981610f57565b82525050565b610a8881610f57565b82525050565b6000610a9982610cbd565b610aa38185610ce0565b935083602082028501610ab585610cad565b8060005b85811015610af15784840389528151610ad28582610a5c565b9450610add83610cd3565b925060208a01995050600181019050610ab9565b50829750879550505050505092915050565b6000610b0e82610cc8565b610b188185610cf1565b9350610b28818560208601610fa2565b610b318161107c565b840191505092915050565b608082016000820151610b526000850182610b91565b506020820151610b656020850182610b91565b506040820151610b786040850182610a70565b506060820151610b8b6060850182610b91565b50505050565b610b9a81610f89565b82525050565b610ba981610f89565b82525050565b60006020820190508181036000830152610bc98184610a8e565b905092915050565b6000608082019050610be66000830184610b3c565b92915050565b6000602082019050610c016000830184610ba0565b92915050565b6000608082019050610c1c6000830187610ba0565b610c296020830186610ba0565b610c366040830185610a7f565b610c436060830184610ba0565b95945050505050565b6000604051905081810181811067ffffffffffffffff82111715610c7357610c7261104d565b5b8060405250919050565b600067ffffffffffffffff821115610c9857610c9761104d565b5b601f19601f8301169050602081019050919050565b6000819050602082019050919050565b600081519050919050565b600081519050919050565b6000602082019050919050565b600082825260208201905092915050565b600082825260208201905092915050565b6000610d0d82610f89565b9150610d1883610f89565b9250827fffffffffffffffffffffffffffffffffffffffffffffffffffffffffffffffff03821115610d4d57610d4c61101e565b5b828201905092915050565b6000808291508390505b6001851115610da257808604811115610d7e57610d7d61101e565b5b6001851615610d8d5780820291505b8081029050610d9b8561108d565b9450610d62565b94509492505050565b6000610db682610f89565b9150610dc183610f89565b9250610dee7fffffffffffffffffffffffffffffffffffffffffffffffffffffffffffffffff8484610df6565b905092915050565b600082610e065760019050610ec2565b81610e145760009050610ec2565b8160018114610e2a5760028114610e3457610e63565b6001915050610ec2565b60ff841115610e4657610e4561101e565b5b8360020a915084821115610e5d57610e5c61101e565b5b50610ec2565b5060208310610133831016604e8410600b8410161715610e985782820a905083811115610e9357610e9261101e565b5b610ec2565b610ea58484846001610d58565b92509050818404811115610ebc57610ebb61101e565b5b81810290505b9392505050565b6000610ed482610f89565b9150610edf83610f89565b9250817fffffffffffffffffffffffffffffffffffffffffffffffffffffffffffffffff0483118215151615610f1857610f1761101e565b5b828202905092915050565b6000610f2e82610f89565b9150610f3983610f89565b925082821015610f4c57610f4b61101e565b5b828203905092915050565b6000610f6282610f69565b9050919050565b600073ffffffffffffffffffffffffffffffffffffffff82169050919050565b6000819050919050565b82818337600083830152505050565b60005b83811015610fc0578082015181840152602081019050610fa5565b83811115610fcf576000848401525b50505050565b6000610fe082610f89565b91507fffffffffffffffffffffffffffffffffffffffffffffffffffffffffffffffff8214156110135761101261101e565b5b600182019050919050565b7f4e487b7100000000000000000000000000000000000000000000000000000000600052601160045260246000fd5b7f4e487b7100000000000000000000000000000000000000000000000000000000600052604160045260246000fd5b6000601f19601f8301169050919050565b60008160011c9050919050565b6110a381610f57565b81146110ae57600080fd5b50565b6110ba81610f89565b81146110c557600080fd5b5056fea26469706673582212205dcc0d5f027a93af75af4dd6aa9674a060eb6f08d3f64411dc29fefa662b333a64736f6c63430008000033",
					"opcodes": "PUSH1 0x80 PUSH1 0x40 MSTORE CALLVALUE DUP1 ISZERO PUSH2 0x10 JUMPI PUSH1 0x0 DUP1 REVERT JUMPDEST POP PUSH1 0x0 PUSH1 0x1 DUP2 SWAP1 SSTORE POP PUSH2 0x41 PUSH1 0x1 DUP1 PUSH20 0xB5DEA2661DFA4B8F0AAE8BC1F583369D927C3B06 PUSH1 0x3 PUSH2 0x46 PUSH1 0x20 SHL PUSH1 0x20 SHR JUMP JUMPDEST PUSH2 0x199 JUMP JUMPDEST PUSH1 0x40 MLOAD DUP1 PUSH1 0x80 ADD PUSH1 0x40 MSTORE DUP1 DUP6 DUP2 MSTORE PUSH1 0x20 ADD DUP5 DUP2 MSTORE PUSH1 0x20 ADD DUP4 PUSH20 0xFFFFFFFFFFFFFFFFFFFFFFFFFFFFFFFFFFFFFFFF AND DUP2 MSTORE PUSH1 0x20 ADD DUP3 DUP2 MSTORE POP PUSH1 0x0 DUP1 PUSH1 0x1 SLOAD DUP2 MSTORE PUSH1 0x20 ADD SWAP1 DUP2 MSTORE PUSH1 0x20 ADD PUSH1 0x0 KECCAK256 PUSH1 0x0 DUP3 ADD MLOAD DUP2 PUSH1 0x0 ADD SSTORE PUSH1 0x20 DUP3 ADD MLOAD DUP2 PUSH1 0x1 ADD SSTORE PUSH1 0x40 DUP3 ADD MLOAD DUP2 PUSH1 0x2 ADD PUSH1 0x0 PUSH2 0x100 EXP DUP2 SLOAD DUP2 PUSH20 0xFFFFFFFFFFFFFFFFFFFFFFFFFFFFFFFFFFFFFFFF MUL NOT AND SWAP1 DUP4 PUSH20 0xFFFFFFFFFFFFFFFFFFFFFFFFFFFFFFFFFFFFFFFF AND MUL OR SWAP1 SSTORE POP PUSH1 0x60 DUP3 ADD MLOAD DUP2 PUSH1 0x3 ADD SSTORE SWAP1 POP POP PUSH1 0x1 PUSH1 0x0 DUP2 SLOAD DUP1 SWAP3 SWAP2 SWAP1 PUSH2 0x10C SWAP1 PUSH2 0x121 JUMP JUMPDEST SWAP2 SWAP1 POP SSTORE POP POP POP POP POP JUMP JUMPDEST PUSH1 0x0 DUP2 SWAP1 POP SWAP2 SWAP1 POP JUMP JUMPDEST PUSH1 0x0 PUSH2 0x12C DUP3 PUSH2 0x117 JUMP JUMPDEST SWAP2 POP PUSH32 0xFFFFFFFFFFFFFFFFFFFFFFFFFFFFFFFFFFFFFFFFFFFFFFFFFFFFFFFFFFFFFFFF DUP3 EQ ISZERO PUSH2 0x15F JUMPI PUSH2 0x15E PUSH2 0x16A JUMP JUMPDEST JUMPDEST PUSH1 0x1 DUP3 ADD SWAP1 POP SWAP2 SWAP1 POP JUMP JUMPDEST PUSH32 0x4E487B7100000000000000000000000000000000000000000000000000000000 PUSH1 0x0 MSTORE PUSH1 0x11 PUSH1 0x4 MSTORE PUSH1 0x24 PUSH1 0x0 REVERT JUMPDEST PUSH2 0x10FE DUP1 PUSH2 0x1A8 PUSH1 0x0 CODECOPY PUSH1 0x0 RETURN INVALID PUSH1 0x80 PUSH1 0x40 MSTORE CALLVALUE DUP1 ISZERO PUSH2 0x10 JUMPI PUSH1 0x0 DUP1 REVERT JUMPDEST POP PUSH1 0x4 CALLDATASIZE LT PUSH2 0x57 JUMPI PUSH1 0x0 CALLDATALOAD PUSH1 0xE0 SHR DUP1 PUSH4 0x13CF08B EQ PUSH2 0x5C JUMPI DUP1 PUSH4 0x96CAABB8 EQ PUSH2 0x8F JUMPI DUP1 PUSH4 0xCAE455EE EQ PUSH2 0xBF JUMPI DUP1 PUSH4 0xDA35C664 EQ PUSH2 0xDB JUMPI DUP1 PUSH4 0xE9D6C6DA EQ PUSH2 0xF9 JUMPI JUMPDEST PUSH1 0x0 DUP1 REVERT JUMPDEST PUSH2 0x76 PUSH1 0x4 DUP1 CALLDATASIZE SUB DUP2 ADD SWAP1 PUSH2 0x71 SWAP2 SWAP1 PUSH2 0x9D0 JUMP JUMPDEST PUSH2 0x129 JUMP JUMPDEST PUSH1 0x40 MLOAD PUSH2 0x86 SWAP5 SWAP4 SWAP3 SWAP2 SWAP1 PUSH2 0xC07 JUMP JUMPDEST PUSH1 0x40 MLOAD DUP1 SWAP2 SUB SWAP1 RETURN JUMPDEST PUSH2 0xA9 PUSH1 0x4 DUP1 CALLDATASIZE SUB DUP2 ADD SWAP1 PUSH2 0xA4 SWAP2 SWAP1 PUSH2 0x98F JUMP JUMPDEST PUSH2 0x179 JUMP JUMPDEST PUSH1 0x40 MLOAD PUSH2 0xB6 SWAP2 SWAP1 PUSH2 0xBAF JUMP JUMPDEST PUSH1 0x40 MLOAD DUP1 SWAP2 SUB SWAP1 RETURN JUMPDEST PUSH2 0xD9 PUSH1 0x4 DUP1 CALLDATASIZE SUB DUP2 ADD SWAP1 PUSH2 0xD4 SWAP2 SWAP1 PUSH2 0x9F9 JUMP JUMPDEST PUSH2 0x2DB JUMP JUMPDEST STOP JUMPDEST PUSH2 0xE3 PUSH2 0x3AC JUMP JUMPDEST PUSH1 0x40 MLOAD PUSH2 0xF0 SWAP2 SWAP1 PUSH2 0xBEC JUMP JUMPDEST PUSH1 0x40 MLOAD DUP1 SWAP2 SUB SWAP1 RETURN JUMPDEST PUSH2 0x113 PUSH1 0x4 DUP1 CALLDATASIZE SUB DUP2 ADD SWAP1 PUSH2 0x10E SWAP2 SWAP1 PUSH2 0x9D0 JUMP JUMPDEST PUSH2 0x3B2 JUMP JUMPDEST PUSH1 0x40 MLOAD PUSH2 0x120 SWAP2 SWAP1 PUSH2 0xBD1 JUMP JUMPDEST PUSH1 0x40 MLOAD DUP1 SWAP2 SUB SWAP1 RETURN JUMPDEST PUSH1 0x0 PUSH1 0x20 MSTORE DUP1 PUSH1 0x0 MSTORE PUSH1 0x40 PUSH1 0x0 KECCAK256 PUSH1 0x0 SWAP2 POP SWAP1 POP DUP1 PUSH1 0x0 ADD SLOAD SWAP1 DUP1 PUSH1 0x1 ADD SLOAD SWAP1 DUP1 PUSH1 0x2 ADD PUSH1 0x0 SWAP1 SLOAD SWAP1 PUSH2 0x100 EXP SWAP1 DIV PUSH20 0xFFFFFFFFFFFFFFFFFFFFFFFFFFFFFFFFFFFFFFFF AND SWAP1 DUP1 PUSH1 0x3 ADD SLOAD SWAP1 POP DUP5 JUMP JUMPDEST PUSH1 0x60 PUSH1 0x0 PUSH2 0x186 DUP4 PUSH2 0x452 JUMP JUMPDEST SWAP1 POP PUSH1 0x0 PUSH2 0x1C8 PUSH1 0x40 MLOAD DUP1 PUSH1 0x40 ADD PUSH1 0x40 MSTORE DUP1 PUSH1 0x1 DUP2 MSTORE PUSH1 0x20 ADD PUSH32 0x2D00000000000000000000000000000000000000000000000000000000000000 DUP2 MSTORE POP PUSH2 0x452 JUMP JUMPDEST SWAP1 POP PUSH1 0x0 PUSH2 0x1DF DUP3 DUP5 PUSH2 0x480 SWAP1 SWAP2 SWAP1 PUSH4 0xFFFFFFFF AND JUMP JUMPDEST PUSH8 0xFFFFFFFFFFFFFFFF DUP2 GT ISZERO PUSH2 0x21E JUMPI PUSH32 0x4E487B7100000000000000000000000000000000000000000000000000000000 PUSH1 0x0 MSTORE PUSH1 0x41 PUSH1 0x4 MSTORE PUSH1 0x24 PUSH1 0x0 REVERT JUMPDEST PUSH1 0x40 MLOAD SWAP1 DUP1 DUP3 MSTORE DUP1 PUSH1 0x20 MUL PUSH1 0x20 ADD DUP3 ADD PUSH1 0x40 MSTORE DUP1 ISZERO PUSH2 0x251 JUMPI DUP2 PUSH1 0x20 ADD JUMPDEST PUSH1 0x60 DUP2 MSTORE PUSH1 0x20 ADD SWAP1 PUSH1 0x1 SWAP1 SUB SWAP1 DUP2 PUSH2 0x23C JUMPI SWAP1 POP JUMPDEST POP SWAP1 POP PUSH1 0x0 JUMPDEST DUP2 MLOAD DUP2 LT ISZERO PUSH2 0x2D2 JUMPI PUSH2 0x27B PUSH2 0x276 DUP5 DUP7 PUSH2 0x528 SWAP1 SWAP2 SWAP1 PUSH4 0xFFFFFFFF AND JUMP JUMPDEST PUSH2 0x542 JUMP JUMPDEST DUP3 DUP3 DUP2 MLOAD DUP2 LT PUSH2 0x2B4 JUMPI PUSH32 0x4E487B7100000000000000000000000000000000000000000000000000000000 PUSH1 0x0 MSTORE PUSH1 0x32 PUSH1 0x4 MSTORE PUSH1 0x24 PUSH1 0x0 REVERT JUMPDEST PUSH1 0x20 MUL PUSH1 0x20 ADD ADD DUP2 SWAP1 MSTORE POP DUP1 DUP1 PUSH2 0x2CA SWAP1 PUSH2 0xFD5 JUMP JUMPDEST SWAP2 POP POP PUSH2 0x257 JUMP JUMPDEST POP POP POP POP SWAP2 SWAP1 POP JUMP JUMPDEST PUSH1 0x40 MLOAD DUP1 PUSH1 0x80 ADD PUSH1 0x40 MSTORE DUP1 DUP6 DUP2 MSTORE PUSH1 0x20 ADD DUP5 DUP2 MSTORE PUSH1 0x20 ADD DUP4 PUSH20 0xFFFFFFFFFFFFFFFFFFFFFFFFFFFFFFFFFFFFFFFF AND DUP2 MSTORE PUSH1 0x20 ADD DUP3 DUP2 MSTORE POP PUSH1 0x0 DUP1 PUSH1 0x1 SLOAD DUP2 MSTORE PUSH1 0x20 ADD SWAP1 DUP2 MSTORE PUSH1 0x20 ADD PUSH1 0x0 KECCAK256 PUSH1 0x0 DUP3 ADD MLOAD DUP2 PUSH1 0x0 ADD SSTORE PUSH1 0x20 DUP3 ADD MLOAD DUP2 PUSH1 0x1 ADD SSTORE PUSH1 0x40 DUP3 ADD MLOAD DUP2 PUSH1 0x2 ADD PUSH1 0x0 PUSH2 0x100 EXP DUP2 SLOAD DUP2 PUSH20 0xFFFFFFFFFFFFFFFFFFFFFFFFFFFFFFFFFFFFFFFF MUL NOT AND SWAP1 DUP4 PUSH20 0xFFFFFFFFFFFFFFFFFFFFFFFFFFFFFFFFFFFFFFFF AND MUL OR SWAP1 SSTORE POP PUSH1 0x60 DUP3 ADD MLOAD DUP2 PUSH1 0x3 ADD SSTORE SWAP1 POP POP PUSH1 0x1 PUSH1 0x0 DUP2 SLOAD DUP1 SWAP3 SWAP2 SWAP1 PUSH2 0x3A1 SWAP1 PUSH2 0xFD5 JUMP JUMPDEST SWAP2 SWAP1 POP SSTORE POP POP POP POP POP JUMP JUMPDEST PUSH1 0x1 SLOAD DUP2 JUMP JUMPDEST PUSH2 0x3BA PUSH2 0x8A5 JUMP JUMPDEST PUSH1 0x0 DUP1 DUP4 DUP2 MSTORE PUSH1 0x20 ADD SWAP1 DUP2 MSTORE PUSH1 0x20 ADD PUSH1 0x0 KECCAK256 PUSH1 0x40 MLOAD DUP1 PUSH1 0x80 ADD PUSH1 0x40 MSTORE SWAP1 DUP2 PUSH1 0x0 DUP3 ADD SLOAD DUP2 MSTORE PUSH1 0x20 ADD PUSH1 0x1 DUP3 ADD SLOAD DUP2 MSTORE PUSH1 0x20 ADD PUSH1 0x2 DUP3 ADD PUSH1 0x0 SWAP1 SLOAD SWAP1 PUSH2 0x100 EXP SWAP1 DIV PUSH20 0xFFFFFFFFFFFFFFFFFFFFFFFFFFFFFFFFFFFFFFFF AND PUSH20 0xFFFFFFFFFFFFFFFFFFFFFFFFFFFFFFFFFFFFFFFF AND PUSH20 0xFFFFFFFFFFFFFFFFFFFFFFFFFFFFFFFFFFFFFFFF AND DUP2 MSTORE PUSH1 0x20 ADD PUSH1 0x3 DUP3 ADD SLOAD DUP2 MSTORE POP POP SWAP1 POP SWAP2 SWAP1 POP JUMP JUMPDEST PUSH2 0x45A PUSH2 0x8E3 JUMP JUMPDEST PUSH1 0x0 PUSH1 0x20 DUP4 ADD SWAP1 POP PUSH1 0x40 MLOAD DUP1 PUSH1 0x40 ADD PUSH1 0x40 MSTORE DUP1 DUP5 MLOAD DUP2 MSTORE PUSH1 0x20 ADD DUP3 DUP2 MSTORE POP SWAP2 POP POP SWAP2 SWAP1 POP JUMP JUMPDEST PUSH1 0x0 DUP1 DUP3 PUSH1 0x0 ADD MLOAD PUSH2 0x4A4 DUP6 PUSH1 0x0 ADD MLOAD DUP7 PUSH1 0x20 ADD MLOAD DUP7 PUSH1 0x0 ADD MLOAD DUP8 PUSH1 0x20 ADD MLOAD PUSH2 0x5E4 JUMP JUMPDEST PUSH2 0x4AE SWAP2 SWAP1 PUSH2 0xD02 JUMP JUMPDEST SWAP1 POP JUMPDEST DUP4 PUSH1 0x0 ADD MLOAD DUP5 PUSH1 0x20 ADD MLOAD PUSH2 0x4C5 SWAP2 SWAP1 PUSH2 0xD02 JUMP JUMPDEST DUP2 GT PUSH2 0x521 JUMPI DUP2 DUP1 PUSH2 0x4D6 SWAP1 PUSH2 0xFD5 JUMP JUMPDEST SWAP3 POP POP DUP3 PUSH1 0x0 ADD MLOAD PUSH2 0x510 DUP6 PUSH1 0x20 ADD MLOAD DUP4 PUSH2 0x4F1 SWAP2 SWAP1 PUSH2 0xF23 JUMP JUMPDEST DUP7 PUSH1 0x0 ADD MLOAD PUSH2 0x500 SWAP2 SWAP1 PUSH2 0xF23 JUMP JUMPDEST DUP4 DUP7 PUSH1 0x0 ADD MLOAD DUP8 PUSH1 0x20 ADD MLOAD PUSH2 0x5E4 JUMP JUMPDEST PUSH2 0x51A SWAP2 SWAP1 PUSH2 0xD02 JUMP JUMPDEST SWAP1 POP PUSH2 0x4B1 JUMP JUMPDEST POP SWAP3 SWAP2 POP POP JUMP JUMPDEST PUSH2 0x530 PUSH2 0x8E3 JUMP JUMPDEST PUSH2 0x53B DUP4 DUP4 DUP4 PUSH2 0x72E JUMP JUMPDEST POP SWAP3 SWAP2 POP POP JUMP JUMPDEST PUSH1 0x60 PUSH1 0x0 DUP3 PUSH1 0x0 ADD MLOAD PUSH8 0xFFFFFFFFFFFFFFFF DUP2 GT ISZERO PUSH2 0x58A JUMPI PUSH32 0x4E487B7100000000000000000000000000000000000000000000000000000000 PUSH1 0x0 MSTORE PUSH1 0x41 PUSH1 0x4 MSTORE PUSH1 0x24 PUSH1 0x0 REVERT JUMPDEST PUSH1 0x40 MLOAD SWAP1 DUP1 DUP3 MSTORE DUP1 PUSH1 0x1F ADD PUSH1 0x1F NOT AND PUSH1 0x20 ADD DUP3 ADD PUSH1 0x40 MSTORE DUP1 ISZERO PUSH2 0x5BC JUMPI DUP2 PUSH1 0x20 ADD PUSH1 0x1 DUP3 MUL DUP1 CALLDATASIZE DUP4 CALLDATACOPY DUP1 DUP3 ADD SWAP2 POP POP SWAP1 POP JUMPDEST POP SWAP1 POP PUSH1 0x0 PUSH1 0x20 DUP3 ADD SWAP1 POP PUSH2 0x5DA DUP2 DUP6 PUSH1 0x20 ADD MLOAD DUP7 PUSH1 0x0 ADD MLOAD PUSH2 0x7F9 JUMP JUMPDEST DUP2 SWAP3 POP POP POP SWAP2 SWAP1 POP JUMP JUMPDEST PUSH1 0x0 DUP1 DUP5 SWAP1 POP PUSH1 0x0 DUP7 DUP6 GT PUSH2 0x715 JUMPI PUSH1 0x20 DUP6 GT PUSH2 0x6B7 JUMPI PUSH1 0x0 DUP1 DUP7 GT ISZERO PUSH2 0x63D JUMPI PUSH1 0x1 DUP7 PUSH1 0x20 PUSH2 0x614 SWAP2 SWAP1 PUSH2 0xF23 JUMP JUMPDEST PUSH1 0x8 PUSH2 0x620 SWAP2 SWAP1 PUSH2 0xEC9 JUMP JUMPDEST PUSH1 0x2 PUSH2 0x62C SWAP2 SWAP1 PUSH2 0xDAB JUMP JUMPDEST PUSH2 0x636 SWAP2 SWAP1 PUSH2 0xF23 JUMP JUMPDEST NOT PUSH1 0x0 SHL SWAP1 POP JUMPDEST PUSH1 0x0 DUP2 DUP7 MLOAD AND SWAP1 POP PUSH1 0x0 DUP8 DUP11 DUP11 PUSH2 0x654 SWAP2 SWAP1 PUSH2 0xD02 JUMP JUMPDEST PUSH2 0x65E SWAP2 SWAP1 PUSH2 0xF23 JUMP JUMPDEST SWAP1 POP PUSH1 0x0 DUP4 DUP7 MLOAD AND SWAP1 POP JUMPDEST DUP3 DUP2 EQ PUSH2 0x6A9 JUMPI DUP2 DUP7 LT PUSH2 0x690 JUMPI DUP11 DUP11 PUSH2 0x683 SWAP2 SWAP1 PUSH2 0xD02 JUMP JUMPDEST SWAP7 POP POP POP POP POP POP POP PUSH2 0x726 JUMP JUMPDEST DUP6 DUP1 PUSH2 0x69B SWAP1 PUSH2 0xFD5 JUMP JUMPDEST SWAP7 POP POP DUP4 DUP7 MLOAD AND SWAP1 POP PUSH2 0x669 JUMP JUMPDEST DUP6 SWAP7 POP POP POP POP POP POP POP PUSH2 0x726 JUMP JUMPDEST PUSH1 0x0 DUP6 DUP6 KECCAK256 SWAP1 POP PUSH1 0x0 SWAP2 POP JUMPDEST DUP6 DUP9 PUSH2 0x6CF SWAP2 SWAP1 PUSH2 0xF23 JUMP JUMPDEST DUP3 GT PUSH2 0x713 JUMPI PUSH1 0x0 DUP7 DUP5 KECCAK256 SWAP1 POP DUP1 DUP3 EQ ISZERO PUSH2 0x6F0 JUMPI DUP4 SWAP5 POP POP POP POP POP PUSH2 0x726 JUMP JUMPDEST PUSH1 0x1 DUP5 PUSH2 0x6FD SWAP2 SWAP1 PUSH2 0xD02 JUMP JUMPDEST SWAP4 POP POP DUP2 DUP1 PUSH2 0x70B SWAP1 PUSH2 0xFD5 JUMP JUMPDEST SWAP3 POP POP PUSH2 0x6C3 JUMP JUMPDEST POP JUMPDEST DUP7 DUP7 PUSH2 0x721 SWAP2 SWAP1 PUSH2 0xD02 JUMP JUMPDEST SWAP3 POP POP POP JUMPDEST SWAP5 SWAP4 POP POP POP POP JUMP JUMPDEST PUSH2 0x736 PUSH2 0x8E3 JUMP JUMPDEST PUSH1 0x0 PUSH2 0x754 DUP6 PUSH1 0x0 ADD MLOAD DUP7 PUSH1 0x20 ADD MLOAD DUP7 PUSH1 0x0 ADD MLOAD DUP8 PUSH1 0x20 ADD MLOAD PUSH2 0x5E4 JUMP JUMPDEST SWAP1 POP DUP5 PUSH1 0x20 ADD MLOAD DUP4 PUSH1 0x20 ADD DUP2 DUP2 MSTORE POP POP DUP5 PUSH1 0x20 ADD MLOAD DUP2 PUSH2 0x774 SWAP2 SWAP1 PUSH2 0xF23 JUMP JUMPDEST DUP4 PUSH1 0x0 ADD DUP2 DUP2 MSTORE POP POP DUP5 PUSH1 0x0 ADD MLOAD DUP6 PUSH1 0x20 ADD MLOAD PUSH2 0x791 SWAP2 SWAP1 PUSH2 0xD02 JUMP JUMPDEST DUP2 EQ ISZERO PUSH2 0x7A8 JUMPI PUSH1 0x0 DUP6 PUSH1 0x0 ADD DUP2 DUP2 MSTORE POP POP PUSH2 0x7EE JUMP JUMPDEST DUP4 PUSH1 0x0 ADD MLOAD DUP4 PUSH1 0x0 ADD MLOAD PUSH2 0x7BC SWAP2 SWAP1 PUSH2 0xD02 JUMP JUMPDEST DUP6 PUSH1 0x0 ADD DUP2 DUP2 MLOAD PUSH2 0x7CD SWAP2 SWAP1 PUSH2 0xF23 JUMP JUMPDEST SWAP2 POP DUP2 DUP2 MSTORE POP POP DUP4 PUSH1 0x0 ADD MLOAD DUP2 PUSH2 0x7E4 SWAP2 SWAP1 PUSH2 0xD02 JUMP JUMPDEST DUP6 PUSH1 0x20 ADD DUP2 DUP2 MSTORE POP POP JUMPDEST DUP3 SWAP2 POP POP SWAP4 SWAP3 POP POP POP JUMP JUMPDEST JUMPDEST PUSH1 0x20 DUP2 LT PUSH2 0x838 JUMPI DUP2 MLOAD DUP4 MSTORE PUSH1 0x20 DUP4 PUSH2 0x813 SWAP2 SWAP1 PUSH2 0xD02 JUMP JUMPDEST SWAP3 POP PUSH1 0x20 DUP3 PUSH2 0x822 SWAP2 SWAP1 PUSH2 0xD02 JUMP JUMPDEST SWAP2 POP PUSH1 0x20 DUP2 PUSH2 0x831 SWAP2 SWAP1 PUSH2 0xF23 JUMP JUMPDEST SWAP1 POP PUSH2 0x7FA JUMP JUMPDEST PUSH1 0x0 PUSH32 0xFFFFFFFFFFFFFFFFFFFFFFFFFFFFFFFFFFFFFFFFFFFFFFFFFFFFFFFFFFFFFFFF SWAP1 POP PUSH1 0x0 DUP3 GT ISZERO PUSH2 0x88F JUMPI PUSH1 0x1 DUP3 PUSH1 0x20 PUSH2 0x875 SWAP2 SWAP1 PUSH2 0xF23 JUMP JUMPDEST PUSH2 0x100 PUSH2 0x882 SWAP2 SWAP1 PUSH2 0xDAB JUMP JUMPDEST PUSH2 0x88C SWAP2 SWAP1 PUSH2 0xF23 JUMP JUMPDEST SWAP1 POP JUMPDEST DUP1 NOT DUP4 MLOAD AND DUP2 DUP6 MLOAD AND DUP2 DUP2 OR DUP7 MSTORE POP POP POP POP POP POP JUMP JUMPDEST PUSH1 0x40 MLOAD DUP1 PUSH1 0x80 ADD PUSH1 0x40 MSTORE DUP1 PUSH1 0x0 DUP2 MSTORE PUSH1 0x20 ADD PUSH1 0x0 DUP2 MSTORE PUSH1 0x20 ADD PUSH1 0x0 PUSH20 0xFFFFFFFFFFFFFFFFFFFFFFFFFFFFFFFFFFFFFFFF AND DUP2 MSTORE PUSH1 0x20 ADD PUSH1 0x0 DUP2 MSTORE POP SWAP1 JUMP JUMPDEST PUSH1 0x40 MLOAD DUP1 PUSH1 0x40 ADD PUSH1 0x40 MSTORE DUP1 PUSH1 0x0 DUP2 MSTORE PUSH1 0x20 ADD PUSH1 0x0 DUP2 MSTORE POP SWAP1 JUMP JUMPDEST PUSH1 0x0 PUSH2 0x910 PUSH2 0x90B DUP5 PUSH2 0xC7D JUMP JUMPDEST PUSH2 0xC4C JUMP JUMPDEST SWAP1 POP DUP3 DUP2 MSTORE PUSH1 0x20 DUP2 ADD DUP5 DUP5 DUP5 ADD GT ISZERO PUSH2 0x928 JUMPI PUSH1 0x0 DUP1 REVERT JUMPDEST PUSH2 0x933 DUP5 DUP3 DUP6 PUSH2 0xF93 JUMP JUMPDEST POP SWAP4 SWAP3 POP POP POP JUMP JUMPDEST PUSH1 0x0 DUP2 CALLDATALOAD SWAP1 POP PUSH2 0x94A DUP2 PUSH2 0x109A JUMP JUMPDEST SWAP3 SWAP2 POP POP JUMP JUMPDEST PUSH1 0x0 DUP3 PUSH1 0x1F DUP4 ADD SLT PUSH2 0x961 JUMPI PUSH1 0x0 DUP1 REVERT JUMPDEST DUP2 CALLDATALOAD PUSH2 0x971 DUP5 DUP3 PUSH1 0x20 DUP7 ADD PUSH2 0x8FD JUMP JUMPDEST SWAP2 POP POP SWAP3 SWAP2 POP POP JUMP JUMPDEST PUSH1 0x0 DUP2 CALLDATALOAD SWAP1 POP PUSH2 0x989 DUP2 PUSH2 0x10B1 JUMP JUMPDEST SWAP3 SWAP2 POP POP JUMP JUMPDEST PUSH1 0x0 PUSH1 0x20 DUP3 DUP5 SUB SLT ISZERO PUSH2 0x9A1 JUMPI PUSH1 0x0 DUP1 REVERT JUMPDEST PUSH1 0x0 DUP3 ADD CALLDATALOAD PUSH8 0xFFFFFFFFFFFFFFFF DUP2 GT ISZERO PUSH2 0x9BB JUMPI PUSH1 0x0 DUP1 REVERT JUMPDEST PUSH2 0x9C7 DUP5 DUP3 DUP6 ADD PUSH2 0x950 JUMP JUMPDEST SWAP2 POP POP SWAP3 SWAP2 POP POP JUMP JUMPDEST PUSH1 0x0 PUSH1 0x20 DUP3 DUP5 SUB SLT ISZERO PUSH2 0x9E2 JUMPI PUSH1 0x0 DUP1 REVERT JUMPDEST PUSH1 0x0 PUSH2 0x9F0 DUP5 DUP3 DUP6 ADD PUSH2 0x97A JUMP JUMPDEST SWAP2 POP POP SWAP3 SWAP2 POP POP JUMP JUMPDEST PUSH1 0x0 DUP1 PUSH1 0x0 DUP1 PUSH1 0x80 DUP6 DUP8 SUB SLT ISZERO PUSH2 0xA0F JUMPI PUSH1 0x0 DUP1 REVERT JUMPDEST PUSH1 0x0 PUSH2 0xA1D DUP8 DUP3 DUP9 ADD PUSH2 0x97A JUMP JUMPDEST SWAP5 POP POP PUSH1 0x20 PUSH2 0xA2E DUP8 DUP3 DUP9 ADD PUSH2 0x97A JUMP JUMPDEST SWAP4 POP POP PUSH1 0x40 PUSH2 0xA3F DUP8 DUP3 DUP9 ADD PUSH2 0x93B JUMP JUMPDEST SWAP3 POP POP PUSH1 0x60 PUSH2 0xA50 DUP8 DUP3 DUP9 ADD PUSH2 0x97A JUMP JUMPDEST SWAP2 POP POP SWAP3 SWAP6 SWAP2 SWAP5 POP SWAP3 POP JUMP JUMPDEST PUSH1 0x0 PUSH2 0xA68 DUP4 DUP4 PUSH2 0xB03 JUMP JUMPDEST SWAP1 POP SWAP3 SWAP2 POP POP JUMP JUMPDEST PUSH2 0xA79 DUP2 PUSH2 0xF57 JUMP JUMPDEST DUP3 MSTORE POP POP JUMP JUMPDEST PUSH2 0xA88 DUP2 PUSH2 0xF57 JUMP JUMPDEST DUP3 MSTORE POP POP JUMP JUMPDEST PUSH1 0x0 PUSH2 0xA99 DUP3 PUSH2 0xCBD JUMP JUMPDEST PUSH2 0xAA3 DUP2 DUP6 PUSH2 0xCE0 JUMP JUMPDEST SWAP4 POP DUP4 PUSH1 0x20 DUP3 MUL DUP6 ADD PUSH2 0xAB5 DUP6 PUSH2 0xCAD JUMP JUMPDEST DUP1 PUSH1 0x0 JUMPDEST DUP6 DUP2 LT ISZERO PUSH2 0xAF1 JUMPI DUP5 DUP5 SUB DUP10 MSTORE DUP2 MLOAD PUSH2 0xAD2 DUP6 DUP3 PUSH2 0xA5C JUMP JUMPDEST SWAP5 POP PUSH2 0xADD DUP4 PUSH2 0xCD3 JUMP JUMPDEST SWAP3 POP PUSH1 0x20 DUP11 ADD SWAP10 POP POP PUSH1 0x1 DUP2 ADD SWAP1 POP PUSH2 0xAB9 JUMP JUMPDEST POP DUP3 SWAP8 POP DUP8 SWAP6 POP POP POP POP POP POP SWAP3 SWAP2 POP POP JUMP JUMPDEST PUSH1 0x0 PUSH2 0xB0E DUP3 PUSH2 0xCC8 JUMP JUMPDEST PUSH2 0xB18 DUP2 DUP6 PUSH2 0xCF1 JUMP JUMPDEST SWAP4 POP PUSH2 0xB28 DUP2 DUP6 PUSH1 0x20 DUP7 ADD PUSH2 0xFA2 JUMP JUMPDEST PUSH2 0xB31 DUP2 PUSH2 0x107C JUMP JUMPDEST DUP5 ADD SWAP2 POP POP SWAP3 SWAP2 POP POP JUMP JUMPDEST PUSH1 0x80 DUP3 ADD PUSH1 0x0 DUP3 ADD MLOAD PUSH2 0xB52 PUSH1 0x0 DUP6 ADD DUP3 PUSH2 0xB91 JUMP JUMPDEST POP PUSH1 0x20 DUP3 ADD MLOAD PUSH2 0xB65 PUSH1 0x20 DUP6 ADD DUP3 PUSH2 0xB91 JUMP JUMPDEST POP PUSH1 0x40 DUP3 ADD MLOAD PUSH2 0xB78 PUSH1 0x40 DUP6 ADD DUP3 PUSH2 0xA70 JUMP JUMPDEST POP PUSH1 0x60 DUP3 ADD MLOAD PUSH2 0xB8B PUSH1 0x60 DUP6 ADD DUP3 PUSH2 0xB91 JUMP JUMPDEST POP POP POP POP JUMP JUMPDEST PUSH2 0xB9A DUP2 PUSH2 0xF89 JUMP JUMPDEST DUP3 MSTORE POP POP JUMP JUMPDEST PUSH2 0xBA9 DUP2 PUSH2 0xF89 JUMP JUMPDEST DUP3 MSTORE POP POP JUMP JUMPDEST PUSH1 0x0 PUSH1 0x20 DUP3 ADD SWAP1 POP DUP2 DUP2 SUB PUSH1 0x0 DUP4 ADD MSTORE PUSH2 0xBC9 DUP2 DUP5 PUSH2 0xA8E JUMP JUMPDEST SWAP1 POP SWAP3 SWAP2 POP POP JUMP JUMPDEST PUSH1 0x0 PUSH1 0x80 DUP3 ADD SWAP1 POP PUSH2 0xBE6 PUSH1 0x0 DUP4 ADD DUP5 PUSH2 0xB3C JUMP JUMPDEST SWAP3 SWAP2 POP POP JUMP JUMPDEST PUSH1 0x0 PUSH1 0x20 DUP3 ADD SWAP1 POP PUSH2 0xC01 PUSH1 0x0 DUP4 ADD DUP5 PUSH2 0xBA0 JUMP JUMPDEST SWAP3 SWAP2 POP POP JUMP JUMPDEST PUSH1 0x0 PUSH1 0x80 DUP3 ADD SWAP1 POP PUSH2 0xC1C PUSH1 0x0 DUP4 ADD DUP8 PUSH2 0xBA0 JUMP JUMPDEST PUSH2 0xC29 PUSH1 0x20 DUP4 ADD DUP7 PUSH2 0xBA0 JUMP JUMPDEST PUSH2 0xC36 PUSH1 0x40 DUP4 ADD DUP6 PUSH2 0xA7F JUMP JUMPDEST PUSH2 0xC43 PUSH1 0x60 DUP4 ADD DUP5 PUSH2 0xBA0 JUMP JUMPDEST SWAP6 SWAP5 POP POP POP POP POP JUMP JUMPDEST PUSH1 0x0 PUSH1 0x40 MLOAD SWAP1 POP DUP2 DUP2 ADD DUP2 DUP2 LT PUSH8 0xFFFFFFFFFFFFFFFF DUP3 GT OR ISZERO PUSH2 0xC73 JUMPI PUSH2 0xC72 PUSH2 0x104D JUMP JUMPDEST JUMPDEST DUP1 PUSH1 0x40 MSTORE POP SWAP2 SWAP1 POP JUMP JUMPDEST PUSH1 0x0 PUSH8 0xFFFFFFFFFFFFFFFF DUP3 GT ISZERO PUSH2 0xC98 JUMPI PUSH2 0xC97 PUSH2 0x104D JUMP JUMPDEST JUMPDEST PUSH1 0x1F NOT PUSH1 0x1F DUP4 ADD AND SWAP1 POP PUSH1 0x20 DUP2 ADD SWAP1 POP SWAP2 SWAP1 POP JUMP JUMPDEST PUSH1 0x0 DUP2 SWAP1 POP PUSH1 0x20 DUP3 ADD SWAP1 POP SWAP2 SWAP1 POP JUMP JUMPDEST PUSH1 0x0 DUP2 MLOAD SWAP1 POP SWAP2 SWAP1 POP JUMP JUMPDEST PUSH1 0x0 DUP2 MLOAD SWAP1 POP SWAP2 SWAP1 POP JUMP JUMPDEST PUSH1 0x0 PUSH1 0x20 DUP3 ADD SWAP1 POP SWAP2 SWAP1 POP JUMP JUMPDEST PUSH1 0x0 DUP3 DUP3 MSTORE PUSH1 0x20 DUP3 ADD SWAP1 POP SWAP3 SWAP2 POP POP JUMP JUMPDEST PUSH1 0x0 DUP3 DUP3 MSTORE PUSH1 0x20 DUP3 ADD SWAP1 POP SWAP3 SWAP2 POP POP JUMP JUMPDEST PUSH1 0x0 PUSH2 0xD0D DUP3 PUSH2 0xF89 JUMP JUMPDEST SWAP2 POP PUSH2 0xD18 DUP4 PUSH2 0xF89 JUMP JUMPDEST SWAP3 POP DUP3 PUSH32 0xFFFFFFFFFFFFFFFFFFFFFFFFFFFFFFFFFFFFFFFFFFFFFFFFFFFFFFFFFFFFFFFF SUB DUP3 GT ISZERO PUSH2 0xD4D JUMPI PUSH2 0xD4C PUSH2 0x101E JUMP JUMPDEST JUMPDEST DUP3 DUP3 ADD SWAP1 POP SWAP3 SWAP2 POP POP JUMP JUMPDEST PUSH1 0x0 DUP1 DUP3 SWAP2 POP DUP4 SWAP1 POP JUMPDEST PUSH1 0x1 DUP6 GT ISZERO PUSH2 0xDA2 JUMPI DUP1 DUP7 DIV DUP2 GT ISZERO PUSH2 0xD7E JUMPI PUSH2 0xD7D PUSH2 0x101E JUMP JUMPDEST JUMPDEST PUSH1 0x1 DUP6 AND ISZERO PUSH2 0xD8D JUMPI DUP1 DUP3 MUL SWAP2 POP JUMPDEST DUP1 DUP2 MUL SWAP1 POP PUSH2 0xD9B DUP6 PUSH2 0x108D JUMP JUMPDEST SWAP5 POP PUSH2 0xD62 JUMP JUMPDEST SWAP5 POP SWAP5 SWAP3 POP POP POP JUMP JUMPDEST PUSH1 0x0 PUSH2 0xDB6 DUP3 PUSH2 0xF89 JUMP JUMPDEST SWAP2 POP PUSH2 0xDC1 DUP4 PUSH2 0xF89 JUMP JUMPDEST SWAP3 POP PUSH2 0xDEE PUSH32 0xFFFFFFFFFFFFFFFFFFFFFFFFFFFFFFFFFFFFFFFFFFFFFFFFFFFFFFFFFFFFFFFF DUP5 DUP5 PUSH2 0xDF6 JUMP JUMPDEST SWAP1 POP SWAP3 SWAP2 POP POP JUMP JUMPDEST PUSH1 0x0 DUP3 PUSH2 0xE06 JUMPI PUSH1 0x1 SWAP1 POP PUSH2 0xEC2 JUMP JUMPDEST DUP2 PUSH2 0xE14 JUMPI PUSH1 0x0 SWAP1 POP PUSH2 0xEC2 JUMP JUMPDEST DUP2 PUSH1 0x1 DUP2 EQ PUSH2 0xE2A JUMPI PUSH1 0x2 DUP2 EQ PUSH2 0xE34 JUMPI PUSH2 0xE63 JUMP JUMPDEST PUSH1 0x1 SWAP2 POP POP PUSH2 0xEC2 JUMP JUMPDEST PUSH1 0xFF DUP5 GT ISZERO PUSH2 0xE46 JUMPI PUSH2 0xE45 PUSH2 0x101E JUMP JUMPDEST JUMPDEST DUP4 PUSH1 0x2 EXP SWAP2 POP DUP5 DUP3 GT ISZERO PUSH2 0xE5D JUMPI PUSH2 0xE5C PUSH2 0x101E JUMP JUMPDEST JUMPDEST POP PUSH2 0xEC2 JUMP JUMPDEST POP PUSH1 0x20 DUP4 LT PUSH2 0x133 DUP4 LT AND PUSH1 0x4E DUP5 LT PUSH1 0xB DUP5 LT AND OR ISZERO PUSH2 0xE98 JUMPI DUP3 DUP3 EXP SWAP1 POP DUP4 DUP2 GT ISZERO PUSH2 0xE93 JUMPI PUSH2 0xE92 PUSH2 0x101E JUMP JUMPDEST JUMPDEST PUSH2 0xEC2 JUMP JUMPDEST PUSH2 0xEA5 DUP5 DUP5 DUP5 PUSH1 0x1 PUSH2 0xD58 JUMP JUMPDEST SWAP3 POP SWAP1 POP DUP2 DUP5 DIV DUP2 GT ISZERO PUSH2 0xEBC JUMPI PUSH2 0xEBB PUSH2 0x101E JUMP JUMPDEST JUMPDEST DUP2 DUP2 MUL SWAP1 POP JUMPDEST SWAP4 SWAP3 POP POP POP JUMP JUMPDEST PUSH1 0x0 PUSH2 0xED4 DUP3 PUSH2 0xF89 JUMP JUMPDEST SWAP2 POP PUSH2 0xEDF DUP4 PUSH2 0xF89 JUMP JUMPDEST SWAP3 POP DUP2 PUSH32 0xFFFFFFFFFFFFFFFFFFFFFFFFFFFFFFFFFFFFFFFFFFFFFFFFFFFFFFFFFFFFFFFF DIV DUP4 GT DUP3 ISZERO ISZERO AND ISZERO PUSH2 0xF18 JUMPI PUSH2 0xF17 PUSH2 0x101E JUMP JUMPDEST JUMPDEST DUP3 DUP3 MUL SWAP1 POP SWAP3 SWAP2 POP POP JUMP JUMPDEST PUSH1 0x0 PUSH2 0xF2E DUP3 PUSH2 0xF89 JUMP JUMPDEST SWAP2 POP PUSH2 0xF39 DUP4 PUSH2 0xF89 JUMP JUMPDEST SWAP3 POP DUP3 DUP3 LT ISZERO PUSH2 0xF4C JUMPI PUSH2 0xF4B PUSH2 0x101E JUMP JUMPDEST JUMPDEST DUP3 DUP3 SUB SWAP1 POP SWAP3 SWAP2 POP POP JUMP JUMPDEST PUSH1 0x0 PUSH2 0xF62 DUP3 PUSH2 0xF69 JUMP JUMPDEST SWAP1 POP SWAP2 SWAP1 POP JUMP JUMPDEST PUSH1 0x0 PUSH20 0xFFFFFFFFFFFFFFFFFFFFFFFFFFFFFFFFFFFFFFFF DUP3 AND SWAP1 POP SWAP2 SWAP1 POP JUMP JUMPDEST PUSH1 0x0 DUP2 SWAP1 POP SWAP2 SWAP1 POP JUMP JUMPDEST DUP3 DUP2 DUP4 CALLDATACOPY PUSH1 0x0 DUP4 DUP4 ADD MSTORE POP POP POP JUMP JUMPDEST PUSH1 0x0 JUMPDEST DUP4 DUP2 LT ISZERO PUSH2 0xFC0 JUMPI DUP1 DUP3 ADD MLOAD DUP2 DUP5 ADD MSTORE PUSH1 0x20 DUP2 ADD SWAP1 POP PUSH2 0xFA5 JUMP JUMPDEST DUP4 DUP2 GT ISZERO PUSH2 0xFCF JUMPI PUSH1 0x0 DUP5 DUP5 ADD MSTORE JUMPDEST POP POP POP POP JUMP JUMPDEST PUSH1 0x0 PUSH2 0xFE0 DUP3 PUSH2 0xF89 JUMP JUMPDEST SWAP2 POP PUSH32 0xFFFFFFFFFFFFFFFFFFFFFFFFFFFFFFFFFFFFFFFFFFFFFFFFFFFFFFFFFFFFFFFF DUP3 EQ ISZERO PUSH2 0x1013 JUMPI PUSH2 0x1012 PUSH2 0x101E JUMP JUMPDEST JUMPDEST PUSH1 0x1 DUP3 ADD SWAP1 POP SWAP2 SWAP1 POP JUMP JUMPDEST PUSH32 0x4E487B7100000000000000000000000000000000000000000000000000000000 PUSH1 0x0 MSTORE PUSH1 0x11 PUSH1 0x4 MSTORE PUSH1 0x24 PUSH1 0x0 REVERT JUMPDEST PUSH32 0x4E487B7100000000000000000000000000000000000000000000000000000000 PUSH1 0x0 MSTORE PUSH1 0x41 PUSH1 0x4 MSTORE PUSH1 0x24 PUSH1 0x0 REVERT JUMPDEST PUSH1 0x0 PUSH1 0x1F NOT PUSH1 0x1F DUP4 ADD AND SWAP1 POP SWAP2 SWAP1 POP JUMP JUMPDEST PUSH1 0x0 DUP2 PUSH1 0x1 SHR SWAP1 POP SWAP2 SWAP1 POP JUMP JUMPDEST PUSH2 0x10A3 DUP2 PUSH2 0xF57 JUMP JUMPDEST DUP2 EQ PUSH2 0x10AE JUMPI PUSH1 0x0 DUP1 REVERT JUMPDEST POP JUMP JUMPDEST PUSH2 0x10BA DUP2 PUSH2 0xF89 JUMP JUMPDEST DUP2 EQ PUSH2 0x10C5 JUMPI PUSH1 0x0 DUP1 REVERT JUMPDEST POP JUMP INVALID LOG2 PUSH5 0x6970667358 0x22 SLT KECCAK256 0x5D 0xCC 0xD 0x5F MUL PUSH27 0x93AF75AF4DD6AA9674A060EB6F08D3F64411DC29FEFA662B333A64 PUSH20 0x6F6C634300080000330000000000000000000000 "
				},
				"gasEstimates": {
					"creation": {
						"codeDepositCost": "870000",
						"executionCost": "infinite",
						"totalCost": "infinite"
					},
					"external": {
						"addProposal(uint256,uint256,address,uint256)": "infinite",
						"getProposalStructure(uint256)": "infinite",
						"proposalCount()": "1173",
						"proposals(uint256)": "infinite",
						"smt(string)": "infinite"
					}
				},
				"methodIdentifiers": {
					"addProposal(uint256,uint256,address,uint256)": "cae455ee",
					"getProposalStructure(uint256)": "e9d6c6da",
					"proposalCount()": "da35c664",
					"proposals(uint256)": "013cf08b",
					"smt(string)": "96caabb8"
				}
			},
			"storageLayout": {
				"storage": [
					{
						"astId": 26,
						"contract": "contracts/proposal.sol:TestProposal",
						"label": "proposals",
						"offset": 0,
						"slot": "0",
						"type": "t_mapping(t_uint256,t_struct(Proposal)14_storage)"
					},
					{
						"astId": 28,
						"contract": "contracts/proposal.sol:TestProposal",
						"label": "proposalCount",
						"offset": 0,
						"slot": "1",
						"type": "t_uint256"
					}
				],
				"types": {
					"t_address": {
						"encoding": "inplace",
						"label": "address",
						"numberOfBytes": "20"
					},
					"t_mapping(t_uint256,t_struct(Proposal)14_storage)": {
						"encoding": "mapping",
						"key": "t_uint256",
						"label": "mapping(uint256 => struct TestProposal.Proposal)",
						"numberOfBytes": "32",
						"value": "t_struct(Proposal)14_storage"
					},
					"t_struct(Proposal)14_storage": {
						"encoding": "inplace",
						"label": "struct TestProposal.Proposal",
						"members": [
							{
								"astId": 7,
								"contract": "contracts/proposal.sol:TestProposal",
								"label": "proposalId",
								"offset": 0,
								"slot": "0",
								"type": "t_uint256"
							},
							{
								"astId": 9,
								"contract": "contracts/proposal.sol:TestProposal",
								"label": "proposalStatus",
								"offset": 0,
								"slot": "1",
								"type": "t_uint256"
							},
							{
								"astId": 11,
								"contract": "contracts/proposal.sol:TestProposal",
								"label": "proposalCreator",
								"offset": 0,
								"slot": "2",
								"type": "t_address"
							},
							{
								"astId": 13,
								"contract": "contracts/proposal.sol:TestProposal",
								"label": "proposalNumOfOptions",
								"offset": 0,
								"slot": "3",
								"type": "t_uint256"
							}
						],
						"numberOfBytes": "128"
					},
					"t_uint256": {
						"encoding": "inplace",
						"label": "uint256",
						"numberOfBytes": "32"
					}
				}
			},
			"userdoc": {
				"kind": "user",
				"methods": {},
				"version": 1
			}
		}
	}
}