{
	"contracts/sandbox.sol": {
		"StructArrayInitWrong": {
			"abi": [
				{
					"inputs": [
						{
							"internalType": "uint256",
							"name": "_room_num",
							"type": "uint256"
						}
					],
					"name": "createRoom",
					"outputs": [],
					"stateMutability": "nonpayable",
					"type": "function"
				},
				{
					"inputs": [
						{
							"internalType": "uint256",
							"name": "_roomid",
							"type": "uint256"
						}
					],
					"name": "getRoomStructure",
					"outputs": [
						{
							"components": [
								{
									"internalType": "uint256",
									"name": "id",
									"type": "uint256"
								},
								{
									"internalType": "uint256",
									"name": "room_num",
									"type": "uint256"
								}
							],
							"internalType": "struct StructArrayInitWrong.Room",
							"name": "",
							"type": "tuple"
						}
					],
					"stateMutability": "view",
					"type": "function"
				},
				{
					"inputs": [],
					"name": "getRoomsLength",
					"outputs": [
						{
							"internalType": "uint256",
							"name": "",
							"type": "uint256"
						}
					],
					"stateMutability": "view",
					"type": "function"
				},
				{
					"inputs": [],
					"name": "roomCount",
					"outputs": [
						{
							"internalType": "uint256",
							"name": "",
							"type": "uint256"
						}
					],
					"stateMutability": "view",
					"type": "function"
				}
			],
			"devdoc": {
				"kind": "dev",
				"methods": {},
				"version": 1
			},
			"evm": {
				"assembly": "    /* \"contracts/sandbox.sol\":95:964  contract StructArrayInitWrong {\r... */\n  mstore(0x40, 0x80)\n  callvalue\n  dup1\n  iszero\n  tag_1\n  jumpi\n  0x00\n  dup1\n  revert\ntag_1:\n  pop\n  dataSize(sub_0)\n  dup1\n  dataOffset(sub_0)\n  0x00\n  codecopy\n  0x00\n  return\nstop\n\nsub_0: assembly {\n        /* \"contracts/sandbox.sol\":95:964  contract StructArrayInitWrong {\r... */\n      mstore(0x40, 0x80)\n      callvalue\n      dup1\n      iszero\n      tag_1\n      jumpi\n      0x00\n      dup1\n      revert\n    tag_1:\n      pop\n      jumpi(tag_2, lt(calldatasize, 0x04))\n      shr(0xe0, calldataload(0x00))\n      dup1\n      0x5b35f921\n      eq\n      tag_3\n      jumpi\n      dup1\n      0xad8a51e7\n      eq\n      tag_4\n      jumpi\n      dup1\n      0xbbba8257\n      eq\n      tag_5\n      jumpi\n      dup1\n      0xdf93a4e3\n      eq\n      tag_6\n      jumpi\n    tag_2:\n      0x00\n      dup1\n      revert\n        /* \"contracts/sandbox.sol\":849:961  function getRoomStructure(uint _roomid) public view returns(Room memory){\r... */\n    tag_3:\n      tag_7\n      0x04\n      dup1\n      calldatasize\n      sub\n      dup2\n      add\n      swap1\n      tag_8\n      swap2\n      swap1\n      tag_9\n      jump\t// in\n    tag_8:\n      tag_10\n      jump\t// in\n    tag_7:\n      mload(0x40)\n      tag_11\n      swap2\n      swap1\n      tag_12\n      jump\t// in\n    tag_11:\n      mload(0x40)\n      dup1\n      swap2\n      sub\n      swap1\n      return\n        /* \"contracts/sandbox.sol\":650:741  function getRoomsLength() public view returns (uint) {\r... */\n    tag_4:\n      tag_13\n      tag_14\n      jump\t// in\n    tag_13:\n      mload(0x40)\n      tag_15\n      swap2\n      swap1\n      tag_16\n      jump\t// in\n    tag_15:\n      mload(0x40)\n      dup1\n      swap2\n      sub\n      swap1\n      return\n        /* \"contracts/sandbox.sol\":373:634  function createRoom(uint _room_num) public {\r... */\n    tag_5:\n      tag_17\n      0x04\n      dup1\n      calldatasize\n      sub\n      dup2\n      add\n      swap1\n      tag_18\n      swap2\n      swap1\n      tag_9\n      jump\t// in\n    tag_18:\n      tag_19\n      jump\t// in\n    tag_17:\n      stop\n        /* \"contracts/sandbox.sol\":343:364  uint public roomCount */\n    tag_6:\n      tag_20\n      tag_21\n      jump\t// in\n    tag_20:\n      mload(0x40)\n      tag_22\n      swap2\n      swap1\n      tag_16\n      jump\t// in\n    tag_22:\n      mload(0x40)\n      dup1\n      swap2\n      sub\n      swap1\n      return\n        /* \"contracts/sandbox.sol\":849:961  function getRoomStructure(uint _roomid) public view returns(Room memory){\r... */\n    tag_10:\n        /* \"contracts/sandbox.sol\":909:920  Room memory */\n      tag_23\n      tag_24\n      jump\t// in\n    tag_23:\n        /* \"contracts/sandbox.sol\":939:944  rooms */\n      0x00\n        /* \"contracts/sandbox.sol\":945:952  _roomid */\n      dup3\n        /* \"contracts/sandbox.sol\":939:953  rooms[_roomid] */\n      dup2\n      sload\n      dup2\n      lt\n      tag_26\n      jumpi\n      mstore(0x00, 0x4e487b7100000000000000000000000000000000000000000000000000000000)\n      mstore(0x04, 0x32)\n      revert(0x00, 0x24)\n    tag_26:\n      swap1\n      0x00\n      mstore\n      keccak256(0x00, 0x20)\n      swap1\n      0x02\n      mul\n      add\n        /* \"contracts/sandbox.sol\":932:953  return rooms[_roomid] */\n      mload(0x40)\n      dup1\n      0x40\n      add\n      0x40\n      mstore\n      swap1\n      dup2\n      0x00\n      dup3\n      add\n      sload\n      dup2\n      mstore\n      0x20\n      add\n      0x01\n      dup3\n      add\n      sload\n      dup2\n      mstore\n      pop\n      pop\n      swap1\n      pop\n        /* \"contracts/sandbox.sol\":849:961  function getRoomStructure(uint _roomid) public view returns(Room memory){\r... */\n      swap2\n      swap1\n      pop\n      jump\t// out\n        /* \"contracts/sandbox.sol\":650:741  function getRoomsLength() public view returns (uint) {\r... */\n    tag_14:\n        /* \"contracts/sandbox.sol\":697:701  uint */\n      0x00\n        /* \"contracts/sandbox.sol\":721:726  rooms */\n      dup1\n        /* \"contracts/sandbox.sol\":721:733  rooms.length */\n      dup1\n      sload\n      swap1\n      pop\n        /* \"contracts/sandbox.sol\":714:733  return rooms.length */\n      swap1\n      pop\n        /* \"contracts/sandbox.sol\":650:741  function getRoomsLength() public view returns (uint) {\r... */\n      swap1\n      jump\t// out\n        /* \"contracts/sandbox.sol\":373:634  function createRoom(uint _room_num) public {\r... */\n    tag_19:\n        /* \"contracts/sandbox.sol\":529:545  Room memory room */\n      0x00\n        /* \"contracts/sandbox.sol\":548:574  Room(roomCount, _room_num) */\n      mload(0x40)\n      dup1\n      0x40\n      add\n      0x40\n      mstore\n      dup1\n        /* \"contracts/sandbox.sol\":553:562  roomCount */\n      sload(0x02)\n        /* \"contracts/sandbox.sol\":548:574  Room(roomCount, _room_num) */\n      dup2\n      mstore\n      0x20\n      add\n        /* \"contracts/sandbox.sol\":564:573  _room_num */\n      dup4\n        /* \"contracts/sandbox.sol\":548:574  Room(roomCount, _room_num) */\n      dup2\n      mstore\n      pop\n        /* \"contracts/sandbox.sol\":529:574  Room memory room = Room(roomCount, _room_num) */\n      swap1\n      pop\n        /* \"contracts/sandbox.sol\":588:593  rooms */\n      0x00\n        /* \"contracts/sandbox.sol\":599:603  room */\n      dup2\n        /* \"contracts/sandbox.sol\":588:604  rooms.push(room) */\n      swap1\n      dup1\n      0x01\n      dup2\n      sload\n      add\n      dup1\n      dup3\n      sstore\n      dup1\n      swap2\n      pop\n      pop\n      0x01\n      swap1\n      sub\n      swap1\n      0x00\n      mstore\n      keccak256(0x00, 0x20)\n      swap1\n      0x02\n      mul\n      add\n      0x00\n      swap1\n      swap2\n      swap1\n      swap2\n      swap1\n      swap2\n      pop\n      0x00\n      dup3\n      add\n      mload\n      dup2\n      0x00\n      add\n      sstore\n      0x20\n      dup3\n      add\n      mload\n      dup2\n      0x01\n      add\n      sstore\n      pop\n      pop\n        /* \"contracts/sandbox.sol\":615:624  roomCount */\n      0x02\n      0x00\n        /* \"contracts/sandbox.sol\":615:626  roomCount++ */\n      dup2\n      sload\n      dup1\n      swap3\n      swap2\n      swap1\n      tag_31\n      swap1\n      tag_32\n      jump\t// in\n    tag_31:\n      swap2\n      swap1\n      pop\n      sstore\n      pop\n        /* \"contracts/sandbox.sol\":373:634  function createRoom(uint _room_num) public {\r... */\n      pop\n      pop\n      jump\t// out\n        /* \"contracts/sandbox.sol\":343:364  uint public roomCount */\n    tag_21:\n      sload(0x02)\n      dup2\n      jump\t// out\n    tag_24:\n      mload(0x40)\n      dup1\n      0x40\n      add\n      0x40\n      mstore\n      dup1\n      0x00\n      dup2\n      mstore\n      0x20\n      add\n      0x00\n      dup2\n      mstore\n      pop\n      swap1\n      jump\t// out\n        /* \"#utility.yul\":7:146   */\n    tag_34:\n      0x00\n        /* \"#utility.yul\":91:97   */\n      dup2\n        /* \"#utility.yul\":78:98   */\n      calldataload\n        /* \"#utility.yul\":69:98   */\n      swap1\n      pop\n        /* \"#utility.yul\":107:140   */\n      tag_36\n        /* \"#utility.yul\":134:139   */\n      dup2\n        /* \"#utility.yul\":107:140   */\n      tag_37\n      jump\t// in\n    tag_36:\n        /* \"#utility.yul\":59:146   */\n      swap3\n      swap2\n      pop\n      pop\n      jump\t// out\n        /* \"#utility.yul\":152:414   */\n    tag_9:\n      0x00\n        /* \"#utility.yul\":260:262   */\n      0x20\n        /* \"#utility.yul\":248:257   */\n      dup3\n        /* \"#utility.yul\":239:246   */\n      dup5\n        /* \"#utility.yul\":235:258   */\n      sub\n        /* \"#utility.yul\":231:263   */\n      slt\n        /* \"#utility.yul\":228:230   */\n      iszero\n      tag_39\n      jumpi\n        /* \"#utility.yul\":276:277   */\n      0x00\n        /* \"#utility.yul\":273:274   */\n      dup1\n        /* \"#utility.yul\":266:278   */\n      revert\n        /* \"#utility.yul\":228:230   */\n    tag_39:\n        /* \"#utility.yul\":319:320   */\n      0x00\n        /* \"#utility.yul\":344:397   */\n      tag_40\n        /* \"#utility.yul\":389:396   */\n      dup5\n        /* \"#utility.yul\":380:386   */\n      dup3\n        /* \"#utility.yul\":369:378   */\n      dup6\n        /* \"#utility.yul\":365:387   */\n      add\n        /* \"#utility.yul\":344:397   */\n      tag_34\n      jump\t// in\n    tag_40:\n        /* \"#utility.yul\":334:397   */\n      swap2\n      pop\n        /* \"#utility.yul\":290:407   */\n      pop\n        /* \"#utility.yul\":218:414   */\n      swap3\n      swap2\n      pop\n      pop\n      jump\t// out\n        /* \"#utility.yul\":496:993   */\n    tag_41:\n        /* \"#utility.yul\":631:635   */\n      0x40\n        /* \"#utility.yul\":626:629   */\n      dup3\n        /* \"#utility.yul\":622:636   */\n      add\n        /* \"#utility.yul\":716:720   */\n      0x00\n        /* \"#utility.yul\":709:714   */\n      dup3\n        /* \"#utility.yul\":705:721   */\n      add\n        /* \"#utility.yul\":699:722   */\n      mload\n        /* \"#utility.yul\":735:798   */\n      tag_43\n        /* \"#utility.yul\":792:796   */\n      0x00\n        /* \"#utility.yul\":787:790   */\n      dup6\n        /* \"#utility.yul\":783:797   */\n      add\n        /* \"#utility.yul\":769:781   */\n      dup3\n        /* \"#utility.yul\":735:798   */\n      tag_44\n      jump\t// in\n    tag_43:\n        /* \"#utility.yul\":646:808   */\n      pop\n        /* \"#utility.yul\":894:898   */\n      0x20\n        /* \"#utility.yul\":887:892   */\n      dup3\n        /* \"#utility.yul\":883:899   */\n      add\n        /* \"#utility.yul\":877:900   */\n      mload\n        /* \"#utility.yul\":913:976   */\n      tag_45\n        /* \"#utility.yul\":970:974   */\n      0x20\n        /* \"#utility.yul\":965:968   */\n      dup6\n        /* \"#utility.yul\":961:975   */\n      add\n        /* \"#utility.yul\":947:959   */\n      dup3\n        /* \"#utility.yul\":913:976   */\n      tag_44\n      jump\t// in\n    tag_45:\n        /* \"#utility.yul\":818:986   */\n      pop\n        /* \"#utility.yul\":600:993   */\n      pop\n      pop\n      pop\n      jump\t// out\n        /* \"#utility.yul\":999:1107   */\n    tag_44:\n        /* \"#utility.yul\":1076:1100   */\n      tag_47\n        /* \"#utility.yul\":1094:1099   */\n      dup2\n        /* \"#utility.yul\":1076:1100   */\n      tag_48\n      jump\t// in\n    tag_47:\n        /* \"#utility.yul\":1071:1074   */\n      dup3\n        /* \"#utility.yul\":1064:1101   */\n      mstore\n        /* \"#utility.yul\":1054:1107   */\n      pop\n      pop\n      jump\t// out\n        /* \"#utility.yul\":1113:1231   */\n    tag_49:\n        /* \"#utility.yul\":1200:1224   */\n      tag_51\n        /* \"#utility.yul\":1218:1223   */\n      dup2\n        /* \"#utility.yul\":1200:1224   */\n      tag_48\n      jump\t// in\n    tag_51:\n        /* \"#utility.yul\":1195:1198   */\n      dup3\n        /* \"#utility.yul\":1188:1225   */\n      mstore\n        /* \"#utility.yul\":1178:1231   */\n      pop\n      pop\n      jump\t// out\n        /* \"#utility.yul\":1237:1535   */\n    tag_12:\n      0x00\n        /* \"#utility.yul\":1406:1408   */\n      0x40\n        /* \"#utility.yul\":1395:1404   */\n      dup3\n        /* \"#utility.yul\":1391:1409   */\n      add\n        /* \"#utility.yul\":1383:1409   */\n      swap1\n      pop\n        /* \"#utility.yul\":1419:1528   */\n      tag_53\n        /* \"#utility.yul\":1525:1526   */\n      0x00\n        /* \"#utility.yul\":1514:1523   */\n      dup4\n        /* \"#utility.yul\":1510:1527   */\n      add\n        /* \"#utility.yul\":1501:1507   */\n      dup5\n        /* \"#utility.yul\":1419:1528   */\n      tag_41\n      jump\t// in\n    tag_53:\n        /* \"#utility.yul\":1373:1535   */\n      swap3\n      swap2\n      pop\n      pop\n      jump\t// out\n        /* \"#utility.yul\":1541:1763   */\n    tag_16:\n      0x00\n        /* \"#utility.yul\":1672:1674   */\n      0x20\n        /* \"#utility.yul\":1661:1670   */\n      dup3\n        /* \"#utility.yul\":1657:1675   */\n      add\n        /* \"#utility.yul\":1649:1675   */\n      swap1\n      pop\n        /* \"#utility.yul\":1685:1756   */\n      tag_55\n        /* \"#utility.yul\":1753:1754   */\n      0x00\n        /* \"#utility.yul\":1742:1751   */\n      dup4\n        /* \"#utility.yul\":1738:1755   */\n      add\n        /* \"#utility.yul\":1729:1735   */\n      dup5\n        /* \"#utility.yul\":1685:1756   */\n      tag_49\n      jump\t// in\n    tag_55:\n        /* \"#utility.yul\":1639:1763   */\n      swap3\n      swap2\n      pop\n      pop\n      jump\t// out\n        /* \"#utility.yul\":1769:1846   */\n    tag_48:\n      0x00\n        /* \"#utility.yul\":1835:1840   */\n      dup2\n        /* \"#utility.yul\":1824:1840   */\n      swap1\n      pop\n        /* \"#utility.yul\":1814:1846   */\n      swap2\n      swap1\n      pop\n      jump\t// out\n        /* \"#utility.yul\":1852:2085   */\n    tag_32:\n      0x00\n        /* \"#utility.yul\":1914:1938   */\n      tag_58\n        /* \"#utility.yul\":1932:1937   */\n      dup3\n        /* \"#utility.yul\":1914:1938   */\n      tag_48\n      jump\t// in\n    tag_58:\n        /* \"#utility.yul\":1905:1938   */\n      swap2\n      pop\n        /* \"#utility.yul\":1960:2026   */\n      0xffffffffffffffffffffffffffffffffffffffffffffffffffffffffffffffff\n        /* \"#utility.yul\":1953:1958   */\n      dup3\n        /* \"#utility.yul\":1950:2027   */\n      eq\n        /* \"#utility.yul\":1947:1949   */\n      iszero\n      tag_59\n      jumpi\n        /* \"#utility.yul\":2030:2048   */\n      tag_60\n      tag_61\n      jump\t// in\n    tag_60:\n        /* \"#utility.yul\":1947:1949   */\n    tag_59:\n        /* \"#utility.yul\":2077:2078   */\n      0x01\n        /* \"#utility.yul\":2070:2075   */\n      dup3\n        /* \"#utility.yul\":2066:2079   */\n      add\n        /* \"#utility.yul\":2059:2079   */\n      swap1\n      pop\n        /* \"#utility.yul\":1895:2085   */\n      swap2\n      swap1\n      pop\n      jump\t// out\n        /* \"#utility.yul\":2091:2271   */\n    tag_61:\n        /* \"#utility.yul\":2139:2216   */\n      0x4e487b7100000000000000000000000000000000000000000000000000000000\n        /* \"#utility.yul\":2136:2137   */\n      0x00\n        /* \"#utility.yul\":2129:2217   */\n      mstore\n        /* \"#utility.yul\":2236:2240   */\n      0x11\n        /* \"#utility.yul\":2233:2234   */\n      0x04\n        /* \"#utility.yul\":2226:2241   */\n      mstore\n        /* \"#utility.yul\":2260:2264   */\n      0x24\n        /* \"#utility.yul\":2257:2258   */\n      0x00\n        /* \"#utility.yul\":2250:2265   */\n      revert\n        /* \"#utility.yul\":2277:2399   */\n    tag_37:\n        /* \"#utility.yul\":2350:2374   */\n      tag_64\n        /* \"#utility.yul\":2368:2373   */\n      dup2\n        /* \"#utility.yul\":2350:2374   */\n      tag_48\n      jump\t// in\n    tag_64:\n        /* \"#utility.yul\":2343:2348   */\n      dup2\n        /* \"#utility.yul\":2340:2375   */\n      eq\n        /* \"#utility.yul\":2330:2332   */\n      tag_65\n      jumpi\n        /* \"#utility.yul\":2389:2390   */\n      0x00\n        /* \"#utility.yul\":2386:2387   */\n      dup1\n        /* \"#utility.yul\":2379:2391   */\n      revert\n        /* \"#utility.yul\":2330:2332   */\n    tag_65:\n        /* \"#utility.yul\":2320:2399   */\n      pop\n      jump\t// out\n\n    auxdata: 0xa26469706673582212202e46480d4accb25025d64d85890f9ea5dd08f1efafd0c5da74aaec9d5ffce0ee64736f6c63430008000033\n}\n",
				"bytecode": {
					"linkReferences": {},
					"object": "608060405234801561001057600080fd5b50610384806100206000396000f3fe608060405234801561001057600080fd5b506004361061004c5760003560e01c80635b35f92114610051578063ad8a51e714610081578063bbba82571461009f578063df93a4e3146100bb575b600080fd5b61006b60048036038101906100669190610209565b6100d9565b604051610078919061027f565b60405180910390f35b61008961014f565b604051610096919061029a565b60405180910390f35b6100b960048036038101906100b49190610209565b61015b565b005b6100c36101d4565b6040516100d0919061029a565b60405180910390f35b6100e16101da565b6000828154811061011b577f4e487b7100000000000000000000000000000000000000000000000000000000600052603260045260246000fd5b9060005260206000209060020201604051806040016040529081600082015481526020016001820154815250509050919050565b60008080549050905090565b600060405180604001604052806002548152602001838152509050600081908060018154018082558091505060019003906000526020600020906002020160009091909190915060008201518160000155602082015181600101555050600260008154809291906101cb906102bf565b91905055505050565b60025481565b604051806040016040528060008152602001600081525090565b60008135905061020381610337565b92915050565b60006020828403121561021b57600080fd5b6000610229848285016101f4565b91505092915050565b6040820160008201516102486000850182610261565b50602082015161025b6020850182610261565b50505050565b61026a816102b5565b82525050565b610279816102b5565b82525050565b60006040820190506102946000830184610232565b92915050565b60006020820190506102af6000830184610270565b92915050565b6000819050919050565b60006102ca826102b5565b91507fffffffffffffffffffffffffffffffffffffffffffffffffffffffffffffffff8214156102fd576102fc610308565b5b600182019050919050565b7f4e487b7100000000000000000000000000000000000000000000000000000000600052601160045260246000fd5b610340816102b5565b811461034b57600080fd5b5056fea26469706673582212202e46480d4accb25025d64d85890f9ea5dd08f1efafd0c5da74aaec9d5ffce0ee64736f6c63430008000033",
					"opcodes": "PUSH1 0x80 PUSH1 0x40 MSTORE CALLVALUE DUP1 ISZERO PUSH2 0x10 JUMPI PUSH1 0x0 DUP1 REVERT JUMPDEST POP PUSH2 0x384 DUP1 PUSH2 0x20 PUSH1 0x0 CODECOPY PUSH1 0x0 RETURN INVALID PUSH1 0x80 PUSH1 0x40 MSTORE CALLVALUE DUP1 ISZERO PUSH2 0x10 JUMPI PUSH1 0x0 DUP1 REVERT JUMPDEST POP PUSH1 0x4 CALLDATASIZE LT PUSH2 0x4C JUMPI PUSH1 0x0 CALLDATALOAD PUSH1 0xE0 SHR DUP1 PUSH4 0x5B35F921 EQ PUSH2 0x51 JUMPI DUP1 PUSH4 0xAD8A51E7 EQ PUSH2 0x81 JUMPI DUP1 PUSH4 0xBBBA8257 EQ PUSH2 0x9F JUMPI DUP1 PUSH4 0xDF93A4E3 EQ PUSH2 0xBB JUMPI JUMPDEST PUSH1 0x0 DUP1 REVERT JUMPDEST PUSH2 0x6B PUSH1 0x4 DUP1 CALLDATASIZE SUB DUP2 ADD SWAP1 PUSH2 0x66 SWAP2 SWAP1 PUSH2 0x209 JUMP JUMPDEST PUSH2 0xD9 JUMP JUMPDEST PUSH1 0x40 MLOAD PUSH2 0x78 SWAP2 SWAP1 PUSH2 0x27F JUMP JUMPDEST PUSH1 0x40 MLOAD DUP1 SWAP2 SUB SWAP1 RETURN JUMPDEST PUSH2 0x89 PUSH2 0x14F JUMP JUMPDEST PUSH1 0x40 MLOAD PUSH2 0x96 SWAP2 SWAP1 PUSH2 0x29A JUMP JUMPDEST PUSH1 0x40 MLOAD DUP1 SWAP2 SUB SWAP1 RETURN JUMPDEST PUSH2 0xB9 PUSH1 0x4 DUP1 CALLDATASIZE SUB DUP2 ADD SWAP1 PUSH2 0xB4 SWAP2 SWAP1 PUSH2 0x209 JUMP JUMPDEST PUSH2 0x15B JUMP JUMPDEST STOP JUMPDEST PUSH2 0xC3 PUSH2 0x1D4 JUMP JUMPDEST PUSH1 0x40 MLOAD PUSH2 0xD0 SWAP2 SWAP1 PUSH2 0x29A JUMP JUMPDEST PUSH1 0x40 MLOAD DUP1 SWAP2 SUB SWAP1 RETURN JUMPDEST PUSH2 0xE1 PUSH2 0x1DA JUMP JUMPDEST PUSH1 0x0 DUP3 DUP2 SLOAD DUP2 LT PUSH2 0x11B JUMPI PUSH32 0x4E487B7100000000000000000000000000000000000000000000000000000000 PUSH1 0x0 MSTORE PUSH1 0x32 PUSH1 0x4 MSTORE PUSH1 0x24 PUSH1 0x0 REVERT JUMPDEST SWAP1 PUSH1 0x0 MSTORE PUSH1 0x20 PUSH1 0x0 KECCAK256 SWAP1 PUSH1 0x2 MUL ADD PUSH1 0x40 MLOAD DUP1 PUSH1 0x40 ADD PUSH1 0x40 MSTORE SWAP1 DUP2 PUSH1 0x0 DUP3 ADD SLOAD DUP2 MSTORE PUSH1 0x20 ADD PUSH1 0x1 DUP3 ADD SLOAD DUP2 MSTORE POP POP SWAP1 POP SWAP2 SWAP1 POP JUMP JUMPDEST PUSH1 0x0 DUP1 DUP1 SLOAD SWAP1 POP SWAP1 POP SWAP1 JUMP JUMPDEST PUSH1 0x0 PUSH1 0x40 MLOAD DUP1 PUSH1 0x40 ADD PUSH1 0x40 MSTORE DUP1 PUSH1 0x2 SLOAD DUP2 MSTORE PUSH1 0x20 ADD DUP4 DUP2 MSTORE POP SWAP1 POP PUSH1 0x0 DUP2 SWAP1 DUP1 PUSH1 0x1 DUP2 SLOAD ADD DUP1 DUP3 SSTORE DUP1 SWAP2 POP POP PUSH1 0x1 SWAP1 SUB SWAP1 PUSH1 0x0 MSTORE PUSH1 0x20 PUSH1 0x0 KECCAK256 SWAP1 PUSH1 0x2 MUL ADD PUSH1 0x0 SWAP1 SWAP2 SWAP1 SWAP2 SWAP1 SWAP2 POP PUSH1 0x0 DUP3 ADD MLOAD DUP2 PUSH1 0x0 ADD SSTORE PUSH1 0x20 DUP3 ADD MLOAD DUP2 PUSH1 0x1 ADD SSTORE POP POP PUSH1 0x2 PUSH1 0x0 DUP2 SLOAD DUP1 SWAP3 SWAP2 SWAP1 PUSH2 0x1CB SWAP1 PUSH2 0x2BF JUMP JUMPDEST SWAP2 SWAP1 POP SSTORE POP POP POP JUMP JUMPDEST PUSH1 0x2 SLOAD DUP2 JUMP JUMPDEST PUSH1 0x40 MLOAD DUP1 PUSH1 0x40 ADD PUSH1 0x40 MSTORE DUP1 PUSH1 0x0 DUP2 MSTORE PUSH1 0x20 ADD PUSH1 0x0 DUP2 MSTORE POP SWAP1 JUMP JUMPDEST PUSH1 0x0 DUP2 CALLDATALOAD SWAP1 POP PUSH2 0x203 DUP2 PUSH2 0x337 JUMP JUMPDEST SWAP3 SWAP2 POP POP JUMP JUMPDEST PUSH1 0x0 PUSH1 0x20 DUP3 DUP5 SUB SLT ISZERO PUSH2 0x21B JUMPI PUSH1 0x0 DUP1 REVERT JUMPDEST PUSH1 0x0 PUSH2 0x229 DUP5 DUP3 DUP6 ADD PUSH2 0x1F4 JUMP JUMPDEST SWAP2 POP POP SWAP3 SWAP2 POP POP JUMP JUMPDEST PUSH1 0x40 DUP3 ADD PUSH1 0x0 DUP3 ADD MLOAD PUSH2 0x248 PUSH1 0x0 DUP6 ADD DUP3 PUSH2 0x261 JUMP JUMPDEST POP PUSH1 0x20 DUP3 ADD MLOAD PUSH2 0x25B PUSH1 0x20 DUP6 ADD DUP3 PUSH2 0x261 JUMP JUMPDEST POP POP POP POP JUMP JUMPDEST PUSH2 0x26A DUP2 PUSH2 0x2B5 JUMP JUMPDEST DUP3 MSTORE POP POP JUMP JUMPDEST PUSH2 0x279 DUP2 PUSH2 0x2B5 JUMP JUMPDEST DUP3 MSTORE POP POP JUMP JUMPDEST PUSH1 0x0 PUSH1 0x40 DUP3 ADD SWAP1 POP PUSH2 0x294 PUSH1 0x0 DUP4 ADD DUP5 PUSH2 0x232 JUMP JUMPDEST SWAP3 SWAP2 POP POP JUMP JUMPDEST PUSH1 0x0 PUSH1 0x20 DUP3 ADD SWAP1 POP PUSH2 0x2AF PUSH1 0x0 DUP4 ADD DUP5 PUSH2 0x270 JUMP JUMPDEST SWAP3 SWAP2 POP POP JUMP JUMPDEST PUSH1 0x0 DUP2 SWAP1 POP SWAP2 SWAP1 POP JUMP JUMPDEST PUSH1 0x0 PUSH2 0x2CA DUP3 PUSH2 0x2B5 JUMP JUMPDEST SWAP2 POP PUSH32 0xFFFFFFFFFFFFFFFFFFFFFFFFFFFFFFFFFFFFFFFFFFFFFFFFFFFFFFFFFFFFFFFF DUP3 EQ ISZERO PUSH2 0x2FD JUMPI PUSH2 0x2FC PUSH2 0x308 JUMP JUMPDEST JUMPDEST PUSH1 0x1 DUP3 ADD SWAP1 POP SWAP2 SWAP1 POP JUMP JUMPDEST PUSH32 0x4E487B7100000000000000000000000000000000000000000000000000000000 PUSH1 0x0 MSTORE PUSH1 0x11 PUSH1 0x4 MSTORE PUSH1 0x24 PUSH1 0x0 REVERT JUMPDEST PUSH2 0x340 DUP2 PUSH2 0x2B5 JUMP JUMPDEST DUP2 EQ PUSH2 0x34B JUMPI PUSH1 0x0 DUP1 REVERT JUMPDEST POP JUMP INVALID LOG2 PUSH5 0x6970667358 0x22 SLT KECCAK256 0x2E CHAINID 0x48 0xD 0x4A 0xCC 0xB2 POP 0x25 0xD6 0x4D DUP6 DUP10 0xF SWAP15 0xA5 0xDD ADDMOD CALL 0xEF 0xAF 0xD0 0xC5 0xDA PUSH21 0xAAEC9D5FFCE0EE64736F6C63430008000033000000 "
				},
				"gasEstimates": {
					"creation": {
						"codeDepositCost": "180000",
						"executionCost": "226",
						"totalCost": "180226"
					},
					"external": {
						"createRoom(uint256)": "infinite",
						"getRoomStructure(uint256)": "infinite",
						"getRoomsLength()": "1145",
						"roomCount()": "1173"
					}
				},
				"methodIdentifiers": {
					"createRoom(uint256)": "bbba8257",
					"getRoomStructure(uint256)": "5b35f921",
					"getRoomsLength()": "ad8a51e7",
					"roomCount()": "df93a4e3"
				}
			},
			"storageLayout": {
				"storage": [
					{
						"astId": 11,
						"contract": "contracts/sandbox.sol:StructArrayInitWrong",
						"label": "rooms",
						"offset": 0,
						"slot": "0",
						"type": "t_array(t_struct(Room)7_storage)dyn_storage"
					},
					{
						"astId": 14,
						"contract": "contracts/sandbox.sol:StructArrayInitWrong",
						"label": "adr",
						"offset": 0,
						"slot": "1",
						"type": "t_array(t_address)dyn_storage"
					},
					{
						"astId": 16,
						"contract": "contracts/sandbox.sol:StructArrayInitWrong",
						"label": "roomCount",
						"offset": 0,
						"slot": "2",
						"type": "t_uint256"
					}
				],
				"types": {
					"t_address": {
						"encoding": "inplace",
						"label": "address",
						"numberOfBytes": "20"
					},
					"t_array(t_address)dyn_storage": {
						"base": "t_address",
						"encoding": "dynamic_array",
						"label": "address[]",
						"numberOfBytes": "32"
					},
					"t_array(t_struct(Room)7_storage)dyn_storage": {
						"base": "t_struct(Room)7_storage",
						"encoding": "dynamic_array",
						"label": "struct StructArrayInitWrong.Room[]",
						"numberOfBytes": "32"
					},
					"t_struct(Room)7_storage": {
						"encoding": "inplace",
						"label": "struct StructArrayInitWrong.Room",
						"members": [
							{
								"astId": 4,
								"contract": "contracts/sandbox.sol:StructArrayInitWrong",
								"label": "id",
								"offset": 0,
								"slot": "0",
								"type": "t_uint256"
							},
							{
								"astId": 6,
								"contract": "contracts/sandbox.sol:StructArrayInitWrong",
								"label": "room_num",
								"offset": 0,
								"slot": "1",
								"type": "t_uint256"
							}
						],
						"numberOfBytes": "64"
					},
					"t_uint256": {
						"encoding": "inplace",
						"label": "uint256",
						"numberOfBytes": "32"
					}
				}
			},
			"userdoc": {
				"kind": "user",
				"methods": {},
				"version": 1
			}
		}
	}
}