{
	"contracts/fun_stuff.sol": {
		"VoteSaving": {
			"abi": [
				{
					"inputs": [],
					"stateMutability": "nonpayable",
					"type": "constructor"
				},
				{
					"anonymous": false,
					"inputs": [
						{
							"indexed": true,
							"internalType": "uint256",
							"name": "_memberId",
							"type": "uint256"
						}
					],
					"name": "savingEvent",
					"type": "event"
				},
				{
					"inputs": [
						{
							"internalType": "string",
							"name": "_name",
							"type": "string"
						},
						{
							"internalType": "bool",
							"name": "_isVote",
							"type": "bool"
						}
					],
					"name": "addMember",
					"outputs": [],
					"stateMutability": "nonpayable",
					"type": "function"
				},
				{
					"inputs": [
						{
							"internalType": "uint256",
							"name": "_memberId",
							"type": "uint256"
						}
					],
					"name": "getMemberStructure",
					"outputs": [
						{
							"components": [
								{
									"internalType": "uint256",
									"name": "id",
									"type": "uint256"
								},
								{
									"internalType": "string",
									"name": "name",
									"type": "string"
								},
								{
									"internalType": "bool",
									"name": "isVoted",
									"type": "bool"
								}
							],
							"internalType": "struct VoteSaving.Member",
							"name": "",
							"type": "tuple"
						}
					],
					"stateMutability": "view",
					"type": "function"
				},
				{
					"inputs": [],
					"name": "getMemberValue",
					"outputs": [
						{
							"internalType": "uint256[]",
							"name": "",
							"type": "uint256[]"
						},
						{
							"internalType": "string[]",
							"name": "",
							"type": "string[]"
						},
						{
							"internalType": "bool[]",
							"name": "",
							"type": "bool[]"
						}
					],
					"stateMutability": "view",
					"type": "function"
				},
				{
					"inputs": [],
					"name": "memberCount",
					"outputs": [
						{
							"internalType": "uint256",
							"name": "",
							"type": "uint256"
						}
					],
					"stateMutability": "view",
					"type": "function"
				},
				{
					"inputs": [
						{
							"internalType": "uint256",
							"name": "",
							"type": "uint256"
						}
					],
					"name": "members",
					"outputs": [
						{
							"internalType": "uint256",
							"name": "id",
							"type": "uint256"
						},
						{
							"internalType": "string",
							"name": "name",
							"type": "string"
						},
						{
							"internalType": "bool",
							"name": "isVoted",
							"type": "bool"
						}
					],
					"stateMutability": "view",
					"type": "function"
				}
			],
			"devdoc": {
				"methods": {}
			},
			"evm": {
				"assembly": "    /* \"contracts/fun_stuff.sol\":95:1400  contract VoteSaving {\r... */\n  mstore(0x40, 0x80)\n    /* \"contracts/fun_stuff.sol\":342:468  constructor() public {\r... */\n  callvalue\n    /* \"--CODEGEN--\":8:17   */\n  dup1\n    /* \"--CODEGEN--\":5:7   */\n  iszero\n  tag_1\n  jumpi\n    /* \"--CODEGEN--\":30:31   */\n  0x00\n    /* \"--CODEGEN--\":27:28   */\n  dup1\n    /* \"--CODEGEN--\":20:32   */\n  revert\n    /* \"--CODEGEN--\":5:7   */\ntag_1:\n    /* \"contracts/fun_stuff.sol\":342:468  constructor() public {\r... */\n  pop\n    /* \"contracts/fun_stuff.sol\":388:389  0 */\n  0x00\n    /* \"contracts/fun_stuff.sol\":374:385  memberCount */\n  0x01\n    /* \"contracts/fun_stuff.sol\":374:389  memberCount = 0 */\n  dup2\n  swap1\n  sstore\n  pop\n    /* \"contracts/fun_stuff.sol\":400:423  addMember(\"Vlad\", true) */\n  tag_4\n  mload(0x40)\n  dup1\n  0x40\n  add\n  0x40\n  mstore\n  dup1\n  0x04\n  dup2\n  mstore\n  0x20\n  add\n  0x566c616400000000000000000000000000000000000000000000000000000000\n  dup2\n  mstore\n  pop\n    /* \"contracts/fun_stuff.sol\":418:422  true */\n  0x01\n    /* \"contracts/fun_stuff.sol\":400:409  addMember */\n  shl(0x20, tag_5)\n    /* \"contracts/fun_stuff.sol\":400:423  addMember(\"Vlad\", true) */\n  0x20\n  shr\n  jump\t// in\ntag_4:\n    /* \"contracts/fun_stuff.sol\":434:460  addMember(\"Nastya\", false) */\n  tag_6\n  mload(0x40)\n  dup1\n  0x40\n  add\n  0x40\n  mstore\n  dup1\n  0x06\n  dup2\n  mstore\n  0x20\n  add\n  0x4e61737479610000000000000000000000000000000000000000000000000000\n  dup2\n  mstore\n  pop\n    /* \"contracts/fun_stuff.sol\":454:459  false */\n  0x00\n    /* \"contracts/fun_stuff.sol\":434:443  addMember */\n  shl(0x20, tag_5)\n    /* \"contracts/fun_stuff.sol\":434:460  addMember(\"Nastya\", false) */\n  0x20\n  shr\n  jump\t// in\ntag_6:\n    /* \"contracts/fun_stuff.sol\":95:1400  contract VoteSaving {\r... */\n  jump(tag_7)\n    /* \"contracts/fun_stuff.sol\":476:638  function addMember(string memory _name, bool _isVote) public {\r... */\ntag_5:\n    /* \"contracts/fun_stuff.sol\":571:606  Member(memberCount, _name, _isVote) */\n  mload(0x40)\n  dup1\n  0x60\n  add\n  0x40\n  mstore\n  dup1\n    /* \"contracts/fun_stuff.sol\":578:589  memberCount */\n  sload(0x01)\n    /* \"contracts/fun_stuff.sol\":571:606  Member(memberCount, _name, _isVote) */\n  dup2\n  mstore\n  0x20\n  add\n    /* \"contracts/fun_stuff.sol\":591:596  _name */\n  dup4\n    /* \"contracts/fun_stuff.sol\":571:606  Member(memberCount, _name, _isVote) */\n  dup2\n  mstore\n  0x20\n  add\n    /* \"contracts/fun_stuff.sol\":598:605  _isVote */\n  dup3\n    /* \"contracts/fun_stuff.sol\":571:606  Member(memberCount, _name, _isVote) */\n  iszero\n  iszero\n  dup2\n  mstore\n  pop\n    /* \"contracts/fun_stuff.sol\":548:555  members */\n  0x00\n    /* \"contracts/fun_stuff.sol\":548:568  members[memberCount] */\n  dup1\n    /* \"contracts/fun_stuff.sol\":556:567  memberCount */\n  sload(0x01)\n    /* \"contracts/fun_stuff.sol\":548:568  members[memberCount] */\n  dup2\n  mstore\n  0x20\n  add\n  swap1\n  dup2\n  mstore\n  0x20\n  add\n  0x00\n  keccak256\n    /* \"contracts/fun_stuff.sol\":548:606  members[memberCount] = Member(memberCount, _name, _isVote) */\n  0x00\n  dup3\n  add\n  mload\n  dup2\n  0x00\n  add\n  sstore\n  0x20\n  dup3\n  add\n  mload\n  dup2\n  0x01\n  add\n  swap1\n  dup1\n  mload\n  swap1\n  0x20\n  add\n  swap1\n  tag_9\n  swap3\n  swap2\n  swap1\n  tag_10\n  jump\t// in\ntag_9:\n  pop\n  0x40\n  dup3\n  add\n  mload\n  dup2\n  0x02\n  add\n  exp(0x0100, 0x00)\n  dup2\n  sload\n  dup2\n  0xff\n  mul\n  not\n  and\n  swap1\n  dup4\n  iszero\n  iszero\n  mul\n  or\n  swap1\n  sstore\n  pop\n  swap1\n  pop\n  pop\n    /* \"contracts/fun_stuff.sol\":617:628  memberCount */\n  0x01\n  0x00\n    /* \"contracts/fun_stuff.sol\":617:630  memberCount++ */\n  dup2\n  sload\n  dup1\n  swap3\n  swap2\n  swap1\n  0x01\n  add\n  swap2\n  swap1\n  pop\n  sstore\n  pop\n    /* \"contracts/fun_stuff.sol\":476:638  function addMember(string memory _name, bool _isVote) public {\r... */\n  pop\n  pop\n  jump\t// out\n    /* \"contracts/fun_stuff.sol\":95:1400  contract VoteSaving {\r... */\ntag_10:\n  dup3\n  dup1\n  sload\n  0x01\n  dup2\n  0x01\n  and\n  iszero\n  0x0100\n  mul\n  sub\n  and\n  0x02\n  swap1\n  div\n  swap1\n  0x00\n  mstore\n  keccak256(0x00, 0x20)\n  swap1\n  0x1f\n  add\n  0x20\n  swap1\n  div\n  dup2\n  add\n  swap3\n  dup3\n  0x1f\n  lt\n  tag_12\n  jumpi\n  dup1\n  mload\n  not(0xff)\n  and\n  dup4\n  dup1\n  add\n  or\n  dup6\n  sstore\n  jump(tag_11)\ntag_12:\n  dup3\n  dup1\n  add\n  0x01\n  add\n  dup6\n  sstore\n  dup3\n  iszero\n  tag_11\n  jumpi\n  swap2\n  dup3\n  add\ntag_13:\n  dup3\n  dup2\n  gt\n  iszero\n  tag_14\n  jumpi\n  dup3\n  mload\n  dup3\n  sstore\n  swap2\n  0x20\n  add\n  swap2\n  swap1\n  0x01\n  add\n  swap1\n  jump(tag_13)\ntag_14:\ntag_11:\n  pop\n  swap1\n  pop\n  tag_15\n  swap2\n  swap1\n  tag_16\n  jump\t// in\ntag_15:\n  pop\n  swap1\n  jump\t// out\ntag_16:\n  tag_17\n  swap2\n  swap1\ntag_18:\n  dup1\n  dup3\n  gt\n  iszero\n  tag_19\n  jumpi\n  0x00\n  dup2\n  0x00\n  swap1\n  sstore\n  pop\n  0x01\n  add\n  jump(tag_18)\ntag_19:\n  pop\n  swap1\n  jump\ntag_17:\n  swap1\n  jump\t// out\ntag_7:\n  dataSize(sub_0)\n  dup1\n  dataOffset(sub_0)\n  0x00\n  codecopy\n  0x00\n  return\nstop\n\nsub_0: assembly {\n        /* \"contracts/fun_stuff.sol\":95:1400  contract VoteSaving {\r... */\n      mstore(0x40, 0x80)\n      callvalue\n        /* \"--CODEGEN--\":8:17   */\n      dup1\n        /* \"--CODEGEN--\":5:7   */\n      iszero\n      tag_1\n      jumpi\n        /* \"--CODEGEN--\":30:31   */\n      0x00\n        /* \"--CODEGEN--\":27:28   */\n      dup1\n        /* \"--CODEGEN--\":20:32   */\n      revert\n        /* \"--CODEGEN--\":5:7   */\n    tag_1:\n        /* \"contracts/fun_stuff.sol\":95:1400  contract VoteSaving {\r... */\n      pop\n      jumpi(tag_2, lt(calldatasize, 0x04))\n      shr(0xe0, calldataload(0x00))\n      dup1\n      0x11aee380\n      eq\n      tag_3\n      jumpi\n      dup1\n      0x5daf08ca\n      eq\n      tag_4\n      jumpi\n      dup1\n      0x6f416d59\n      eq\n      tag_5\n      jumpi\n      dup1\n      0x92c68389\n      eq\n      tag_6\n      jumpi\n      dup1\n      0xf97698f8\n      eq\n      tag_7\n      jumpi\n    tag_2:\n      0x00\n      dup1\n      revert\n        /* \"contracts/fun_stuff.sol\":308:331  uint public memberCount */\n    tag_3:\n      tag_8\n      tag_9\n      jump\t// in\n    tag_8:\n      mload(0x40)\n      tag_10\n      swap2\n      swap1\n      jump(tag_11)\n    tag_10:\n      mload(0x40)\n      dup1\n      swap2\n      sub\n      swap1\n      return\n        /* \"contracts/fun_stuff.sol\":214:253  mapping (uint => Member) public members */\n    tag_4:\n      tag_12\n      0x04\n      dup1\n      calldatasize\n      sub\n      tag_13\n      swap2\n      swap1\n      dup2\n      add\n      swap1\n      jump(tag_14)\n    tag_13:\n      tag_15\n      jump\t// in\n    tag_12:\n      mload(0x40)\n      tag_16\n      swap4\n      swap3\n      swap2\n      swap1\n      jump(tag_17)\n    tag_16:\n      mload(0x40)\n      dup1\n      swap2\n      sub\n      swap1\n      return\n        /* \"contracts/fun_stuff.sol\":850:1392  function getMemberValue() public view returns (uint[] memory, string[] memory, bool[] memory) {\r... */\n    tag_5:\n      tag_18\n      tag_19\n      jump\t// in\n    tag_18:\n      mload(0x40)\n      tag_20\n      swap4\n      swap3\n      swap2\n      swap1\n      jump(tag_21)\n    tag_20:\n      mload(0x40)\n      dup1\n      swap2\n      sub\n      swap1\n      return\n        /* \"contracts/fun_stuff.sol\":476:638  function addMember(string memory _name, bool _isVote) public {\r... */\n    tag_6:\n      tag_22\n      0x04\n      dup1\n      calldatasize\n      sub\n      tag_23\n      swap2\n      swap1\n      dup2\n      add\n      swap1\n      jump(tag_24)\n    tag_23:\n      tag_25\n      jump\t// in\n    tag_22:\n      stop\n        /* \"contracts/fun_stuff.sol\":680:802  function getMemberStructure(uint _memberId) public view returns(Member memory){\r... */\n    tag_7:\n      tag_26\n      0x04\n      dup1\n      calldatasize\n      sub\n      tag_27\n      swap2\n      swap1\n      dup2\n      add\n      swap1\n      jump(tag_14)\n    tag_27:\n      tag_28\n      jump\t// in\n    tag_26:\n      mload(0x40)\n      tag_29\n      swap2\n      swap1\n      jump(tag_30)\n    tag_29:\n      mload(0x40)\n      dup1\n      swap2\n      sub\n      swap1\n      return\n        /* \"contracts/fun_stuff.sol\":308:331  uint public memberCount */\n    tag_9:\n      sload(0x01)\n      dup2\n      jump\t// out\n        /* \"contracts/fun_stuff.sol\":214:253  mapping (uint => Member) public members */\n    tag_15:\n      mstore(0x20, 0x00)\n      dup1\n      0x00\n      mstore\n      keccak256(0x00, 0x40)\n      0x00\n      swap2\n      pop\n      swap1\n      pop\n      dup1\n      0x00\n      add\n      sload\n      swap1\n      dup1\n      0x01\n      add\n      dup1\n      sload\n      0x01\n      dup2\n      0x01\n      and\n      iszero\n      0x0100\n      mul\n      sub\n      and\n      0x02\n      swap1\n      div\n      dup1\n      0x1f\n      add\n      0x20\n      dup1\n      swap2\n      div\n      mul\n      0x20\n      add\n      mload(0x40)\n      swap1\n      dup2\n      add\n      0x40\n      mstore\n      dup1\n      swap3\n      swap2\n      swap1\n      dup2\n      dup2\n      mstore\n      0x20\n      add\n      dup3\n      dup1\n      sload\n      0x01\n      dup2\n      0x01\n      and\n      iszero\n      0x0100\n      mul\n      sub\n      and\n      0x02\n      swap1\n      div\n      dup1\n      iszero\n      tag_31\n      jumpi\n      dup1\n      0x1f\n      lt\n      tag_32\n      jumpi\n      0x0100\n      dup1\n      dup4\n      sload\n      div\n      mul\n      dup4\n      mstore\n      swap2\n      0x20\n      add\n      swap2\n      jump(tag_31)\n    tag_32:\n      dup3\n      add\n      swap2\n      swap1\n      0x00\n      mstore\n      keccak256(0x00, 0x20)\n      swap1\n    tag_33:\n      dup2\n      sload\n      dup2\n      mstore\n      swap1\n      0x01\n      add\n      swap1\n      0x20\n      add\n      dup1\n      dup4\n      gt\n      tag_33\n      jumpi\n      dup3\n      swap1\n      sub\n      0x1f\n      and\n      dup3\n      add\n      swap2\n    tag_31:\n      pop\n      pop\n      pop\n      pop\n      pop\n      swap1\n      dup1\n      0x02\n      add\n      0x00\n      swap1\n      sload\n      swap1\n      0x0100\n      exp\n      swap1\n      div\n      0xff\n      and\n      swap1\n      pop\n      dup4\n      jump\t// out\n        /* \"contracts/fun_stuff.sol\":850:1392  function getMemberValue() public view returns (uint[] memory, string[] memory, bool[] memory) {\r... */\n    tag_19:\n        /* \"contracts/fun_stuff.sol\":897:910  uint[] memory */\n      0x60\n        /* \"contracts/fun_stuff.sol\":912:927  string[] memory */\n      dup1\n        /* \"contracts/fun_stuff.sol\":929:942  bool[] memory */\n      0x60\n        /* \"contracts/fun_stuff.sol\":955:976  uint[]      memory id */\n      dup1\n        /* \"contracts/fun_stuff.sol\":990:1001  memberCount */\n      sload(0x01)\n        /* \"contracts/fun_stuff.sol\":979:1002  new uint[](memberCount) */\n      mload(0x40)\n      swap1\n      dup1\n      dup3\n      mstore\n      dup1\n      0x20\n      mul\n      0x20\n      add\n      dup3\n      add\n      0x40\n      mstore\n      dup1\n      iszero\n      tag_35\n      jumpi\n      dup2\n      0x20\n      add\n        /* \"--CODEGEN--\":29:31   */\n      0x20\n        /* \"--CODEGEN--\":21:27   */\n      dup3\n        /* \"--CODEGEN--\":17:32   */\n      mul\n        /* \"--CODEGEN--\":117:121   */\n      dup1\n        /* \"--CODEGEN--\":105:115   */\n      codesize\n        /* \"--CODEGEN--\":97:103   */\n      dup4\n        /* \"--CODEGEN--\":88:122   */\n      codecopy\n        /* \"--CODEGEN--\":148:152   */\n      dup1\n        /* \"--CODEGEN--\":140:146   */\n      dup3\n        /* \"--CODEGEN--\":136:153   */\n      add\n        /* \"--CODEGEN--\":126:153   */\n      swap2\n      pop\n        /* \"--CODEGEN--\":0:157   */\n      pop\n        /* \"contracts/fun_stuff.sol\":979:1002  new uint[](memberCount) */\n      swap1\n      pop\n    tag_35:\n      pop\n        /* \"contracts/fun_stuff.sol\":955:1002  uint[]      memory id = new uint[](memberCount) */\n      swap1\n      pop\n        /* \"contracts/fun_stuff.sol\":1013:1036  string[]    memory name */\n      0x60\n        /* \"contracts/fun_stuff.sol\":1052:1063  memberCount */\n      sload(0x01)\n        /* \"contracts/fun_stuff.sol\":1039:1064  new string[](memberCount) */\n      mload(0x40)\n      swap1\n      dup1\n      dup3\n      mstore\n      dup1\n      0x20\n      mul\n      0x20\n      add\n      dup3\n      add\n      0x40\n      mstore\n      dup1\n      iszero\n      tag_36\n      jumpi\n      dup2\n      0x20\n      add\n    tag_37:\n      0x60\n      dup2\n      mstore\n      0x20\n      add\n      swap1\n      0x01\n      swap1\n      sub\n      swap1\n      dup2\n      tag_37\n      jumpi\n      swap1\n      pop\n    tag_36:\n      pop\n        /* \"contracts/fun_stuff.sol\":1013:1064  string[]    memory name = new string[](memberCount) */\n      swap1\n      pop\n        /* \"contracts/fun_stuff.sol\":1075:1101  bool[]      memory isVoted */\n      0x60\n        /* \"contracts/fun_stuff.sol\":1115:1126  memberCount */\n      sload(0x01)\n        /* \"contracts/fun_stuff.sol\":1104:1127  new bool[](memberCount) */\n      mload(0x40)\n      swap1\n      dup1\n      dup3\n      mstore\n      dup1\n      0x20\n      mul\n      0x20\n      add\n      dup3\n      add\n      0x40\n      mstore\n      dup1\n      iszero\n      tag_38\n      jumpi\n      dup2\n      0x20\n      add\n        /* \"--CODEGEN--\":29:31   */\n      0x20\n        /* \"--CODEGEN--\":21:27   */\n      dup3\n        /* \"--CODEGEN--\":17:32   */\n      mul\n        /* \"--CODEGEN--\":117:121   */\n      dup1\n        /* \"--CODEGEN--\":105:115   */\n      codesize\n        /* \"--CODEGEN--\":97:103   */\n      dup4\n        /* \"--CODEGEN--\":88:122   */\n      codecopy\n        /* \"--CODEGEN--\":148:152   */\n      dup1\n        /* \"--CODEGEN--\":140:146   */\n      dup3\n        /* \"--CODEGEN--\":136:153   */\n      add\n        /* \"--CODEGEN--\":126:153   */\n      swap2\n      pop\n        /* \"--CODEGEN--\":0:157   */\n      pop\n        /* \"contracts/fun_stuff.sol\":1104:1127  new bool[](memberCount) */\n      swap1\n      pop\n    tag_38:\n      pop\n        /* \"contracts/fun_stuff.sol\":1075:1127  bool[]      memory isVoted = new bool[](memberCount) */\n      swap1\n      pop\n        /* \"contracts/fun_stuff.sol\":1143:1149  uint i */\n      0x00\n        /* \"contracts/fun_stuff.sol\":1152:1153  0 */\n      dup1\n        /* \"contracts/fun_stuff.sol\":1143:1153  uint i = 0 */\n      swap1\n      pop\n        /* \"contracts/fun_stuff.sol\":1138:1348  for (uint i = 0; i < memberCount; i++) {\r... */\n    tag_39:\n        /* \"contracts/fun_stuff.sol\":1159:1170  memberCount */\n      sload(0x01)\n        /* \"contracts/fun_stuff.sol\":1155:1156  i */\n      dup2\n        /* \"contracts/fun_stuff.sol\":1155:1170  i < memberCount */\n      lt\n        /* \"contracts/fun_stuff.sol\":1138:1348  for (uint i = 0; i < memberCount; i++) {\r... */\n      iszero\n      tag_40\n      jumpi\n        /* \"contracts/fun_stuff.sol\":1192:1213  Member storage member */\n      0x00\n        /* \"contracts/fun_stuff.sol\":1216:1223  members */\n      dup1\n        /* \"contracts/fun_stuff.sol\":1216:1226  members[i] */\n      0x00\n        /* \"contracts/fun_stuff.sol\":1224:1225  i */\n      dup4\n        /* \"contracts/fun_stuff.sol\":1216:1226  members[i] */\n      dup2\n      mstore\n      0x20\n      add\n      swap1\n      dup2\n      mstore\n      0x20\n      add\n      0x00\n      keccak256\n        /* \"contracts/fun_stuff.sol\":1192:1226  Member storage member = members[i] */\n      swap1\n      pop\n        /* \"contracts/fun_stuff.sol\":1249:1255  member */\n      dup1\n        /* \"contracts/fun_stuff.sol\":1249:1258  member.id */\n      0x00\n      add\n      sload\n        /* \"contracts/fun_stuff.sol\":1241:1243  id */\n      dup6\n        /* \"contracts/fun_stuff.sol\":1244:1245  i */\n      dup4\n        /* \"contracts/fun_stuff.sol\":1241:1246  id[i] */\n      dup2\n      mload\n      dup2\n      lt\n      tag_42\n      jumpi\n      invalid\n    tag_42:\n      0x20\n      mul\n      0x20\n      add\n      add\n        /* \"contracts/fun_stuff.sol\":1241:1258  id[i] = member.id */\n      dup2\n      dup2\n      mstore\n      pop\n      pop\n        /* \"contracts/fun_stuff.sol\":1283:1289  member */\n      dup1\n        /* \"contracts/fun_stuff.sol\":1283:1294  member.name */\n      0x01\n      add\n        /* \"contracts/fun_stuff.sol\":1273:1294  name[i] = member.name */\n      dup1\n      sload\n      0x01\n      dup2\n      0x01\n      and\n      iszero\n      0x0100\n      mul\n      sub\n      and\n      0x02\n      swap1\n      div\n      dup1\n      0x1f\n      add\n      0x20\n      dup1\n      swap2\n      div\n      mul\n      0x20\n      add\n      mload(0x40)\n      swap1\n      dup2\n      add\n      0x40\n      mstore\n      dup1\n      swap3\n      swap2\n      swap1\n      dup2\n      dup2\n      mstore\n      0x20\n      add\n      dup3\n      dup1\n      sload\n      0x01\n      dup2\n      0x01\n      and\n      iszero\n      0x0100\n      mul\n      sub\n      and\n      0x02\n      swap1\n      div\n      dup1\n      iszero\n      tag_43\n      jumpi\n      dup1\n      0x1f\n      lt\n      tag_44\n      jumpi\n      0x0100\n      dup1\n      dup4\n      sload\n      div\n      mul\n      dup4\n      mstore\n      swap2\n      0x20\n      add\n      swap2\n      jump(tag_43)\n    tag_44:\n      dup3\n      add\n      swap2\n      swap1\n      0x00\n      mstore\n      keccak256(0x00, 0x20)\n      swap1\n    tag_45:\n      dup2\n      sload\n      dup2\n      mstore\n      swap1\n      0x01\n      add\n      swap1\n      0x20\n      add\n      dup1\n      dup4\n      gt\n      tag_45\n      jumpi\n      dup3\n      swap1\n      sub\n      0x1f\n      and\n      dup3\n      add\n      swap2\n    tag_43:\n      pop\n      pop\n      pop\n      pop\n      pop\n        /* \"contracts/fun_stuff.sol\":1273:1277  name */\n      dup5\n        /* \"contracts/fun_stuff.sol\":1278:1279  i */\n      dup4\n        /* \"contracts/fun_stuff.sol\":1273:1280  name[i] */\n      dup2\n      mload\n      dup2\n      lt\n      tag_46\n      jumpi\n      invalid\n    tag_46:\n      0x20\n      mul\n      0x20\n      add\n      add\n        /* \"contracts/fun_stuff.sol\":1273:1294  name[i] = member.name */\n      dup2\n      swap1\n      mstore\n      pop\n        /* \"contracts/fun_stuff.sol\":1322:1328  member */\n      dup1\n        /* \"contracts/fun_stuff.sol\":1322:1336  member.isVoted */\n      0x02\n      add\n      0x00\n      swap1\n      sload\n      swap1\n      0x0100\n      exp\n      swap1\n      div\n      0xff\n      and\n        /* \"contracts/fun_stuff.sol\":1309:1316  isVoted */\n      dup4\n        /* \"contracts/fun_stuff.sol\":1317:1318  i */\n      dup4\n        /* \"contracts/fun_stuff.sol\":1309:1319  isVoted[i] */\n      dup2\n      mload\n      dup2\n      lt\n      tag_47\n      jumpi\n      invalid\n    tag_47:\n      0x20\n      mul\n      0x20\n      add\n      add\n        /* \"contracts/fun_stuff.sol\":1309:1336  isVoted[i] = member.isVoted */\n      swap1\n      iszero\n      iszero\n      swap1\n      dup2\n      iszero\n      iszero\n      dup2\n      mstore\n      pop\n      pop\n        /* \"contracts/fun_stuff.sol\":1138:1348  for (uint i = 0; i < memberCount; i++) {\r... */\n      pop\n        /* \"contracts/fun_stuff.sol\":1172:1175  i++ */\n      dup1\n      dup1\n      0x01\n      add\n      swap2\n      pop\n      pop\n        /* \"contracts/fun_stuff.sol\":1138:1348  for (uint i = 0; i < memberCount; i++) {\r... */\n      jump(tag_39)\n    tag_40:\n      pop\n        /* \"contracts/fun_stuff.sol\":1366:1368  id */\n      dup3\n        /* \"contracts/fun_stuff.sol\":1370:1374  name */\n      dup3\n        /* \"contracts/fun_stuff.sol\":1376:1383  isVoted */\n      dup3\n        /* \"contracts/fun_stuff.sol\":1358:1384  return (id, name, isVoted) */\n      swap6\n      pop\n      swap6\n      pop\n      swap6\n      pop\n      pop\n      pop\n      pop\n        /* \"contracts/fun_stuff.sol\":850:1392  function getMemberValue() public view returns (uint[] memory, string[] memory, bool[] memory) {\r... */\n      swap1\n      swap2\n      swap3\n      jump\t// out\n        /* \"contracts/fun_stuff.sol\":476:638  function addMember(string memory _name, bool _isVote) public {\r... */\n    tag_25:\n        /* \"contracts/fun_stuff.sol\":571:606  Member(memberCount, _name, _isVote) */\n      mload(0x40)\n      dup1\n      0x60\n      add\n      0x40\n      mstore\n      dup1\n        /* \"contracts/fun_stuff.sol\":578:589  memberCount */\n      sload(0x01)\n        /* \"contracts/fun_stuff.sol\":571:606  Member(memberCount, _name, _isVote) */\n      dup2\n      mstore\n      0x20\n      add\n        /* \"contracts/fun_stuff.sol\":591:596  _name */\n      dup4\n        /* \"contracts/fun_stuff.sol\":571:606  Member(memberCount, _name, _isVote) */\n      dup2\n      mstore\n      0x20\n      add\n        /* \"contracts/fun_stuff.sol\":598:605  _isVote */\n      dup3\n        /* \"contracts/fun_stuff.sol\":571:606  Member(memberCount, _name, _isVote) */\n      iszero\n      iszero\n      dup2\n      mstore\n      pop\n        /* \"contracts/fun_stuff.sol\":548:555  members */\n      0x00\n        /* \"contracts/fun_stuff.sol\":548:568  members[memberCount] */\n      dup1\n        /* \"contracts/fun_stuff.sol\":556:567  memberCount */\n      sload(0x01)\n        /* \"contracts/fun_stuff.sol\":548:568  members[memberCount] */\n      dup2\n      mstore\n      0x20\n      add\n      swap1\n      dup2\n      mstore\n      0x20\n      add\n      0x00\n      keccak256\n        /* \"contracts/fun_stuff.sol\":548:606  members[memberCount] = Member(memberCount, _name, _isVote) */\n      0x00\n      dup3\n      add\n      mload\n      dup2\n      0x00\n      add\n      sstore\n      0x20\n      dup3\n      add\n      mload\n      dup2\n      0x01\n      add\n      swap1\n      dup1\n      mload\n      swap1\n      0x20\n      add\n      swap1\n      tag_49\n      swap3\n      swap2\n      swap1\n      tag_50\n      jump\t// in\n    tag_49:\n      pop\n      0x40\n      dup3\n      add\n      mload\n      dup2\n      0x02\n      add\n      exp(0x0100, 0x00)\n      dup2\n      sload\n      dup2\n      0xff\n      mul\n      not\n      and\n      swap1\n      dup4\n      iszero\n      iszero\n      mul\n      or\n      swap1\n      sstore\n      pop\n      swap1\n      pop\n      pop\n        /* \"contracts/fun_stuff.sol\":617:628  memberCount */\n      0x01\n      0x00\n        /* \"contracts/fun_stuff.sol\":617:630  memberCount++ */\n      dup2\n      sload\n      dup1\n      swap3\n      swap2\n      swap1\n      0x01\n      add\n      swap2\n      swap1\n      pop\n      sstore\n      pop\n        /* \"contracts/fun_stuff.sol\":476:638  function addMember(string memory _name, bool _isVote) public {\r... */\n      pop\n      pop\n      jump\t// out\n        /* \"contracts/fun_stuff.sol\":680:802  function getMemberStructure(uint _memberId) public view returns(Member memory){\r... */\n    tag_28:\n        /* \"contracts/fun_stuff.sol\":744:757  Member memory */\n      tag_51\n      tag_52\n      jump\t// in\n    tag_51:\n        /* \"contracts/fun_stuff.sol\":776:783  members */\n      0x00\n        /* \"contracts/fun_stuff.sol\":776:794  members[_memberId] */\n      dup1\n        /* \"contracts/fun_stuff.sol\":784:793  _memberId */\n      dup4\n        /* \"contracts/fun_stuff.sol\":776:794  members[_memberId] */\n      dup2\n      mstore\n      0x20\n      add\n      swap1\n      dup2\n      mstore\n      0x20\n      add\n      0x00\n      keccak256\n        /* \"contracts/fun_stuff.sol\":769:794  return members[_memberId] */\n      mload(0x40)\n      dup1\n      0x60\n      add\n      0x40\n      mstore\n      swap1\n      dup2\n      0x00\n      dup3\n      add\n      sload\n      dup2\n      mstore\n      0x20\n      add\n      0x01\n      dup3\n      add\n      dup1\n      sload\n      0x01\n      dup2\n      0x01\n      and\n      iszero\n      0x0100\n      mul\n      sub\n      and\n      0x02\n      swap1\n      div\n      dup1\n      0x1f\n      add\n      0x20\n      dup1\n      swap2\n      div\n      mul\n      0x20\n      add\n      mload(0x40)\n      swap1\n      dup2\n      add\n      0x40\n      mstore\n      dup1\n      swap3\n      swap2\n      swap1\n      dup2\n      dup2\n      mstore\n      0x20\n      add\n      dup3\n      dup1\n      sload\n      0x01\n      dup2\n      0x01\n      and\n      iszero\n      0x0100\n      mul\n      sub\n      and\n      0x02\n      swap1\n      div\n      dup1\n      iszero\n      tag_54\n      jumpi\n      dup1\n      0x1f\n      lt\n      tag_55\n      jumpi\n      0x0100\n      dup1\n      dup4\n      sload\n      div\n      mul\n      dup4\n      mstore\n      swap2\n      0x20\n      add\n      swap2\n      jump(tag_54)\n    tag_55:\n      dup3\n      add\n      swap2\n      swap1\n      0x00\n      mstore\n      keccak256(0x00, 0x20)\n      swap1\n    tag_56:\n      dup2\n      sload\n      dup2\n      mstore\n      swap1\n      0x01\n      add\n      swap1\n      0x20\n      add\n      dup1\n      dup4\n      gt\n      tag_56\n      jumpi\n      dup3\n      swap1\n      sub\n      0x1f\n      and\n      dup3\n      add\n      swap2\n    tag_54:\n      pop\n      pop\n      pop\n      pop\n      pop\n      dup2\n      mstore\n      0x20\n      add\n      0x02\n      dup3\n      add\n      0x00\n      swap1\n      sload\n      swap1\n      0x0100\n      exp\n      swap1\n      div\n      0xff\n      and\n      iszero\n      iszero\n      iszero\n      iszero\n      dup2\n      mstore\n      pop\n      pop\n      swap1\n      pop\n        /* \"contracts/fun_stuff.sol\":680:802  function getMemberStructure(uint _memberId) public view returns(Member memory){\r... */\n      swap2\n      swap1\n      pop\n      jump\t// out\n        /* \"contracts/fun_stuff.sol\":95:1400  contract VoteSaving {\r... */\n    tag_50:\n      dup3\n      dup1\n      sload\n      0x01\n      dup2\n      0x01\n      and\n      iszero\n      0x0100\n      mul\n      sub\n      and\n      0x02\n      swap1\n      div\n      swap1\n      0x00\n      mstore\n      keccak256(0x00, 0x20)\n      swap1\n      0x1f\n      add\n      0x20\n      swap1\n      div\n      dup2\n      add\n      swap3\n      dup3\n      0x1f\n      lt\n      tag_58\n      jumpi\n      dup1\n      mload\n      not(0xff)\n      and\n      dup4\n      dup1\n      add\n      or\n      dup6\n      sstore\n      jump(tag_57)\n    tag_58:\n      dup3\n      dup1\n      add\n      0x01\n      add\n      dup6\n      sstore\n      dup3\n      iszero\n      tag_57\n      jumpi\n      swap2\n      dup3\n      add\n    tag_59:\n      dup3\n      dup2\n      gt\n      iszero\n      tag_60\n      jumpi\n      dup3\n      mload\n      dup3\n      sstore\n      swap2\n      0x20\n      add\n      swap2\n      swap1\n      0x01\n      add\n      swap1\n      jump(tag_59)\n    tag_60:\n    tag_57:\n      pop\n      swap1\n      pop\n      tag_61\n      swap2\n      swap1\n      tag_62\n      jump\t// in\n    tag_61:\n      pop\n      swap1\n      jump\t// out\n    tag_52:\n      mload(0x40)\n      dup1\n      0x60\n      add\n      0x40\n      mstore\n      dup1\n      0x00\n      dup2\n      mstore\n      0x20\n      add\n      0x60\n      dup2\n      mstore\n      0x20\n      add\n      iszero(iszero(0x00))\n      dup2\n      mstore\n      pop\n      swap1\n      jump\t// out\n    tag_62:\n      tag_63\n      swap2\n      swap1\n    tag_64:\n      dup1\n      dup3\n      gt\n      iszero\n      tag_65\n      jumpi\n      0x00\n      dup2\n      0x00\n      swap1\n      sstore\n      pop\n      0x01\n      add\n      jump(tag_64)\n    tag_65:\n      pop\n      swap1\n      jump\n    tag_63:\n      swap1\n      jump\t// out\n        /* \"--CODEGEN--\":5:129   */\n    tag_67:\n      0x00\n        /* \"--CODEGEN--\":82:88   */\n      dup2\n        /* \"--CODEGEN--\":69:89   */\n      calldataload\n        /* \"--CODEGEN--\":60:89   */\n      swap1\n      pop\n        /* \"--CODEGEN--\":94:124   */\n      tag_69\n        /* \"--CODEGEN--\":118:123   */\n      dup2\n        /* \"--CODEGEN--\":94:124   */\n      jump(tag_70)\n    tag_69:\n        /* \"--CODEGEN--\":54:129   */\n      swap3\n      swap2\n      pop\n      pop\n      jump\n        /* \"--CODEGEN--\":137:579   */\n    tag_71:\n      0x00\n        /* \"--CODEGEN--\":239:242   */\n      dup3\n        /* \"--CODEGEN--\":232:236   */\n      0x1f\n        /* \"--CODEGEN--\":224:230   */\n      dup4\n        /* \"--CODEGEN--\":220:237   */\n      add\n        /* \"--CODEGEN--\":216:243   */\n      slt\n        /* \"--CODEGEN--\":206:208   */\n      tag_73\n      jumpi\n        /* \"--CODEGEN--\":257:258   */\n      0x00\n        /* \"--CODEGEN--\":254:255   */\n      dup1\n        /* \"--CODEGEN--\":247:259   */\n      revert\n        /* \"--CODEGEN--\":206:208   */\n    tag_73:\n        /* \"--CODEGEN--\":294:300   */\n      dup2\n        /* \"--CODEGEN--\":281:301   */\n      calldataload\n        /* \"--CODEGEN--\":316:381   */\n      tag_74\n        /* \"--CODEGEN--\":331:380   */\n      tag_75\n        /* \"--CODEGEN--\":373:379   */\n      dup3\n        /* \"--CODEGEN--\":331:380   */\n      jump(tag_76)\n    tag_75:\n        /* \"--CODEGEN--\":316:381   */\n      jump(tag_77)\n    tag_74:\n        /* \"--CODEGEN--\":307:381   */\n      swap2\n      pop\n        /* \"--CODEGEN--\":401:407   */\n      dup1\n        /* \"--CODEGEN--\":394:399   */\n      dup3\n        /* \"--CODEGEN--\":387:408   */\n      mstore\n        /* \"--CODEGEN--\":437:441   */\n      0x20\n        /* \"--CODEGEN--\":429:435   */\n      dup4\n        /* \"--CODEGEN--\":425:442   */\n      add\n        /* \"--CODEGEN--\":470:474   */\n      0x20\n        /* \"--CODEGEN--\":463:468   */\n      dup4\n        /* \"--CODEGEN--\":459:475   */\n      add\n        /* \"--CODEGEN--\":505:508   */\n      dup6\n        /* \"--CODEGEN--\":496:502   */\n      dup4\n        /* \"--CODEGEN--\":491:494   */\n      dup4\n        /* \"--CODEGEN--\":487:503   */\n      add\n        /* \"--CODEGEN--\":484:509   */\n      gt\n        /* \"--CODEGEN--\":481:483   */\n      iszero\n      tag_78\n      jumpi\n        /* \"--CODEGEN--\":522:523   */\n      0x00\n        /* \"--CODEGEN--\":519:520   */\n      dup1\n        /* \"--CODEGEN--\":512:524   */\n      revert\n        /* \"--CODEGEN--\":481:483   */\n    tag_78:\n        /* \"--CODEGEN--\":532:573   */\n      tag_79\n        /* \"--CODEGEN--\":566:572   */\n      dup4\n        /* \"--CODEGEN--\":561:564   */\n      dup3\n        /* \"--CODEGEN--\":556:559   */\n      dup5\n        /* \"--CODEGEN--\":532:573   */\n      jump(tag_80)\n    tag_79:\n        /* \"--CODEGEN--\":199:579   */\n      pop\n      pop\n      pop\n      swap3\n      swap2\n      pop\n      pop\n      jump\n        /* \"--CODEGEN--\":587:717   */\n    tag_81:\n      0x00\n        /* \"--CODEGEN--\":667:673   */\n      dup2\n        /* \"--CODEGEN--\":654:674   */\n      calldataload\n        /* \"--CODEGEN--\":645:674   */\n      swap1\n      pop\n        /* \"--CODEGEN--\":679:712   */\n      tag_83\n        /* \"--CODEGEN--\":706:711   */\n      dup2\n        /* \"--CODEGEN--\":679:712   */\n      jump(tag_84)\n    tag_83:\n        /* \"--CODEGEN--\":639:717   */\n      swap3\n      swap2\n      pop\n      pop\n      jump\n        /* \"--CODEGEN--\":724:1190   */\n    tag_24:\n      0x00\n      dup1\n        /* \"--CODEGEN--\":852:854   */\n      0x40\n        /* \"--CODEGEN--\":840:849   */\n      dup4\n        /* \"--CODEGEN--\":831:838   */\n      dup6\n        /* \"--CODEGEN--\":827:850   */\n      sub\n        /* \"--CODEGEN--\":823:855   */\n      slt\n        /* \"--CODEGEN--\":820:822   */\n      iszero\n      tag_86\n      jumpi\n        /* \"--CODEGEN--\":868:869   */\n      0x00\n        /* \"--CODEGEN--\":865:866   */\n      dup1\n        /* \"--CODEGEN--\":858:870   */\n      revert\n        /* \"--CODEGEN--\":820:822   */\n    tag_86:\n        /* \"--CODEGEN--\":931:932   */\n      0x00\n        /* \"--CODEGEN--\":920:929   */\n      dup4\n        /* \"--CODEGEN--\":916:933   */\n      add\n        /* \"--CODEGEN--\":903:934   */\n      calldataload\n        /* \"--CODEGEN--\":954:972   */\n      0xffffffffffffffff\n        /* \"--CODEGEN--\":946:952   */\n      dup2\n        /* \"--CODEGEN--\":943:973   */\n      gt\n        /* \"--CODEGEN--\":940:942   */\n      iszero\n      tag_87\n      jumpi\n        /* \"--CODEGEN--\":986:987   */\n      0x00\n        /* \"--CODEGEN--\":983:984   */\n      dup1\n        /* \"--CODEGEN--\":976:988   */\n      revert\n        /* \"--CODEGEN--\":940:942   */\n    tag_87:\n        /* \"--CODEGEN--\":1006:1069   */\n      tag_88\n        /* \"--CODEGEN--\":1061:1068   */\n      dup6\n        /* \"--CODEGEN--\":1052:1058   */\n      dup3\n        /* \"--CODEGEN--\":1041:1050   */\n      dup7\n        /* \"--CODEGEN--\":1037:1059   */\n      add\n        /* \"--CODEGEN--\":1006:1069   */\n      jump(tag_71)\n    tag_88:\n        /* \"--CODEGEN--\":996:1069   */\n      swap3\n      pop\n        /* \"--CODEGEN--\":882:1075   */\n      pop\n        /* \"--CODEGEN--\":1106:1108   */\n      0x20\n        /* \"--CODEGEN--\":1124:1174   */\n      tag_89\n        /* \"--CODEGEN--\":1166:1173   */\n      dup6\n        /* \"--CODEGEN--\":1157:1163   */\n      dup3\n        /* \"--CODEGEN--\":1146:1155   */\n      dup7\n        /* \"--CODEGEN--\":1142:1164   */\n      add\n        /* \"--CODEGEN--\":1124:1174   */\n      jump(tag_67)\n    tag_89:\n        /* \"--CODEGEN--\":1114:1174   */\n      swap2\n      pop\n        /* \"--CODEGEN--\":1085:1180   */\n      pop\n        /* \"--CODEGEN--\":814:1190   */\n      swap3\n      pop\n      swap3\n      swap1\n      pop\n      jump\n        /* \"--CODEGEN--\":1197:1438   */\n    tag_14:\n      0x00\n        /* \"--CODEGEN--\":1301:1303   */\n      0x20\n        /* \"--CODEGEN--\":1289:1298   */\n      dup3\n        /* \"--CODEGEN--\":1280:1287   */\n      dup5\n        /* \"--CODEGEN--\":1276:1299   */\n      sub\n        /* \"--CODEGEN--\":1272:1304   */\n      slt\n        /* \"--CODEGEN--\":1269:1271   */\n      iszero\n      tag_91\n      jumpi\n        /* \"--CODEGEN--\":1317:1318   */\n      0x00\n        /* \"--CODEGEN--\":1314:1315   */\n      dup1\n        /* \"--CODEGEN--\":1307:1319   */\n      revert\n        /* \"--CODEGEN--\":1269:1271   */\n    tag_91:\n        /* \"--CODEGEN--\":1352:1353   */\n      0x00\n        /* \"--CODEGEN--\":1369:1422   */\n      tag_92\n        /* \"--CODEGEN--\":1414:1421   */\n      dup5\n        /* \"--CODEGEN--\":1405:1411   */\n      dup3\n        /* \"--CODEGEN--\":1394:1403   */\n      dup6\n        /* \"--CODEGEN--\":1390:1412   */\n      add\n        /* \"--CODEGEN--\":1369:1422   */\n      jump(tag_81)\n    tag_92:\n        /* \"--CODEGEN--\":1359:1422   */\n      swap2\n      pop\n        /* \"--CODEGEN--\":1331:1428   */\n      pop\n        /* \"--CODEGEN--\":1263:1438   */\n      swap3\n      swap2\n      pop\n      pop\n      jump\n        /* \"--CODEGEN--\":1446:1607   */\n    tag_93:\n      0x00\n        /* \"--CODEGEN--\":1527:1567   */\n      tag_95\n        /* \"--CODEGEN--\":1563:1566   */\n      dup4\n        /* \"--CODEGEN--\":1555:1561   */\n      dup4\n        /* \"--CODEGEN--\":1527:1567   */\n      jump(tag_96)\n    tag_95:\n        /* \"--CODEGEN--\":1596:1600   */\n      0x20\n        /* \"--CODEGEN--\":1591:1594   */\n      dup4\n        /* \"--CODEGEN--\":1587:1601   */\n      add\n        /* \"--CODEGEN--\":1573:1601   */\n      swap1\n      pop\n        /* \"--CODEGEN--\":1520:1607   */\n      swap3\n      swap2\n      pop\n      pop\n      jump\n        /* \"--CODEGEN--\":1616:1797   */\n    tag_97:\n      0x00\n        /* \"--CODEGEN--\":1729:1791   */\n      tag_99\n        /* \"--CODEGEN--\":1787:1790   */\n      dup4\n        /* \"--CODEGEN--\":1779:1785   */\n      dup4\n        /* \"--CODEGEN--\":1729:1791   */\n      jump(tag_100)\n    tag_99:\n        /* \"--CODEGEN--\":1715:1791   */\n      swap1\n      pop\n        /* \"--CODEGEN--\":1708:1797   */\n      swap3\n      swap2\n      pop\n      pop\n      jump\n        /* \"--CODEGEN--\":1806:1979   */\n    tag_101:\n      0x00\n        /* \"--CODEGEN--\":1893:1939   */\n      tag_103\n        /* \"--CODEGEN--\":1935:1938   */\n      dup4\n        /* \"--CODEGEN--\":1927:1933   */\n      dup4\n        /* \"--CODEGEN--\":1893:1939   */\n      jump(tag_104)\n    tag_103:\n        /* \"--CODEGEN--\":1968:1972   */\n      0x20\n        /* \"--CODEGEN--\":1963:1966   */\n      dup4\n        /* \"--CODEGEN--\":1959:1973   */\n      add\n        /* \"--CODEGEN--\":1945:1973   */\n      swap1\n      pop\n        /* \"--CODEGEN--\":1886:1979   */\n      swap3\n      swap2\n      pop\n      pop\n      jump\n        /* \"--CODEGEN--\":2012:2678   */\n    tag_105:\n      0x00\n        /* \"--CODEGEN--\":2151:2202   */\n      tag_107\n        /* \"--CODEGEN--\":2196:2201   */\n      dup3\n        /* \"--CODEGEN--\":2151:2202   */\n      jump(tag_108)\n    tag_107:\n        /* \"--CODEGEN--\":2215:2298   */\n      tag_109\n        /* \"--CODEGEN--\":2291:2297   */\n      dup2\n        /* \"--CODEGEN--\":2286:2289   */\n      dup6\n        /* \"--CODEGEN--\":2215:2298   */\n      jump(tag_110)\n    tag_109:\n        /* \"--CODEGEN--\":2208:2298   */\n      swap4\n      pop\n        /* \"--CODEGEN--\":2319:2372   */\n      tag_111\n        /* \"--CODEGEN--\":2366:2371   */\n      dup4\n        /* \"--CODEGEN--\":2319:2372   */\n      jump(tag_112)\n    tag_111:\n        /* \"--CODEGEN--\":2392:2399   */\n      dup1\n        /* \"--CODEGEN--\":2420:2421   */\n      0x00\n        /* \"--CODEGEN--\":2405:2656   */\n    tag_113:\n        /* \"--CODEGEN--\":2430:2436   */\n      dup4\n        /* \"--CODEGEN--\":2427:2428   */\n      dup2\n        /* \"--CODEGEN--\":2424:2437   */\n      lt\n        /* \"--CODEGEN--\":2405:2656   */\n      iszero\n      tag_115\n      jumpi\n        /* \"--CODEGEN--\":2497:2503   */\n      dup2\n        /* \"--CODEGEN--\":2491:2504   */\n      mload\n        /* \"--CODEGEN--\":2518:2575   */\n      tag_116\n        /* \"--CODEGEN--\":2571:2574   */\n      dup9\n        /* \"--CODEGEN--\":2556:2569   */\n      dup3\n        /* \"--CODEGEN--\":2518:2575   */\n      jump(tag_93)\n    tag_116:\n        /* \"--CODEGEN--\":2511:2575   */\n      swap8\n      pop\n        /* \"--CODEGEN--\":2592:2649   */\n      tag_117\n        /* \"--CODEGEN--\":2642:2648   */\n      dup4\n        /* \"--CODEGEN--\":2592:2649   */\n      jump(tag_118)\n    tag_117:\n        /* \"--CODEGEN--\":2582:2649   */\n      swap3\n      pop\n        /* \"--CODEGEN--\":2462:2656   */\n      pop\n        /* \"--CODEGEN--\":2452:2453   */\n      0x01\n        /* \"--CODEGEN--\":2449:2450   */\n      dup2\n        /* \"--CODEGEN--\":2445:2454   */\n      add\n        /* \"--CODEGEN--\":2440:2454   */\n      swap1\n      pop\n        /* \"--CODEGEN--\":2405:2656   */\n      jump(tag_113)\n    tag_115:\n        /* \"--CODEGEN--\":2409:2423   */\n      pop\n        /* \"--CODEGEN--\":2669:2672   */\n      dup6\n        /* \"--CODEGEN--\":2662:2672   */\n      swap4\n      pop\n        /* \"--CODEGEN--\":2130:2678   */\n      pop\n      pop\n      pop\n      swap3\n      swap2\n      pop\n      pop\n      jump\n        /* \"--CODEGEN--\":2715:3611   */\n    tag_119:\n      0x00\n        /* \"--CODEGEN--\":2872:2932   */\n      tag_121\n        /* \"--CODEGEN--\":2926:2931   */\n      dup3\n        /* \"--CODEGEN--\":2872:2932   */\n      jump(tag_122)\n    tag_121:\n        /* \"--CODEGEN--\":2945:3037   */\n      tag_123\n        /* \"--CODEGEN--\":3030:3036   */\n      dup2\n        /* \"--CODEGEN--\":3025:3028   */\n      dup6\n        /* \"--CODEGEN--\":2945:3037   */\n      jump(tag_124)\n    tag_123:\n        /* \"--CODEGEN--\":2938:3037   */\n      swap4\n      pop\n        /* \"--CODEGEN--\":3060:3063   */\n      dup4\n        /* \"--CODEGEN--\":3102:3106   */\n      0x20\n        /* \"--CODEGEN--\":3094:3100   */\n      dup3\n        /* \"--CODEGEN--\":3090:3107   */\n      mul\n        /* \"--CODEGEN--\":3085:3088   */\n      dup6\n        /* \"--CODEGEN--\":3081:3108   */\n      add\n        /* \"--CODEGEN--\":3129:3191   */\n      tag_125\n        /* \"--CODEGEN--\":3185:3190   */\n      dup6\n        /* \"--CODEGEN--\":3129:3191   */\n      jump(tag_126)\n    tag_125:\n        /* \"--CODEGEN--\":3211:3218   */\n      dup1\n        /* \"--CODEGEN--\":3239:3240   */\n      0x00\n        /* \"--CODEGEN--\":3224:3572   */\n    tag_127:\n        /* \"--CODEGEN--\":3249:3255   */\n      dup6\n        /* \"--CODEGEN--\":3246:3247   */\n      dup2\n        /* \"--CODEGEN--\":3243:3256   */\n      lt\n        /* \"--CODEGEN--\":3224:3572   */\n      iszero\n      tag_129\n      jumpi\n        /* \"--CODEGEN--\":3311:3320   */\n      dup5\n        /* \"--CODEGEN--\":3305:3309   */\n      dup5\n        /* \"--CODEGEN--\":3301:3321   */\n      sub\n        /* \"--CODEGEN--\":3296:3299   */\n      dup10\n        /* \"--CODEGEN--\":3289:3322   */\n      mstore\n        /* \"--CODEGEN--\":3356:3362   */\n      dup2\n        /* \"--CODEGEN--\":3350:3363   */\n      mload\n        /* \"--CODEGEN--\":3378:3454   */\n      tag_130\n        /* \"--CODEGEN--\":3449:3453   */\n      dup6\n        /* \"--CODEGEN--\":3434:3447   */\n      dup3\n        /* \"--CODEGEN--\":3378:3454   */\n      jump(tag_97)\n    tag_130:\n        /* \"--CODEGEN--\":3370:3454   */\n      swap5\n      pop\n        /* \"--CODEGEN--\":3471:3537   */\n      tag_131\n        /* \"--CODEGEN--\":3530:3536   */\n      dup4\n        /* \"--CODEGEN--\":3471:3537   */\n      jump(tag_132)\n    tag_131:\n        /* \"--CODEGEN--\":3461:3537   */\n      swap3\n      pop\n        /* \"--CODEGEN--\":3560:3564   */\n      0x20\n        /* \"--CODEGEN--\":3555:3558   */\n      dup11\n        /* \"--CODEGEN--\":3551:3565   */\n      add\n        /* \"--CODEGEN--\":3544:3565   */\n      swap10\n      pop\n        /* \"--CODEGEN--\":3281:3572   */\n      pop\n        /* \"--CODEGEN--\":3271:3272   */\n      0x01\n        /* \"--CODEGEN--\":3268:3269   */\n      dup2\n        /* \"--CODEGEN--\":3264:3273   */\n      add\n        /* \"--CODEGEN--\":3259:3273   */\n      swap1\n      pop\n        /* \"--CODEGEN--\":3224:3572   */\n      jump(tag_127)\n    tag_129:\n        /* \"--CODEGEN--\":3228:3242   */\n      pop\n        /* \"--CODEGEN--\":3585:3589   */\n      dup3\n        /* \"--CODEGEN--\":3578:3589   */\n      swap8\n      pop\n        /* \"--CODEGEN--\":3602:3605   */\n      dup8\n        /* \"--CODEGEN--\":3595:3605   */\n      swap6\n      pop\n        /* \"--CODEGEN--\":2851:3611   */\n      pop\n      pop\n      pop\n      pop\n      pop\n      swap3\n      swap2\n      pop\n      pop\n      jump\n        /* \"--CODEGEN--\":3650:4340   */\n    tag_133:\n      0x00\n        /* \"--CODEGEN--\":3795:3849   */\n      tag_135\n        /* \"--CODEGEN--\":3843:3848   */\n      dup3\n        /* \"--CODEGEN--\":3795:3849   */\n      jump(tag_136)\n    tag_135:\n        /* \"--CODEGEN--\":3862:3948   */\n      tag_137\n        /* \"--CODEGEN--\":3941:3947   */\n      dup2\n        /* \"--CODEGEN--\":3936:3939   */\n      dup6\n        /* \"--CODEGEN--\":3862:3948   */\n      jump(tag_138)\n    tag_137:\n        /* \"--CODEGEN--\":3855:3948   */\n      swap4\n      pop\n        /* \"--CODEGEN--\":3969:4025   */\n      tag_139\n        /* \"--CODEGEN--\":4019:4024   */\n      dup4\n        /* \"--CODEGEN--\":3969:4025   */\n      jump(tag_140)\n    tag_139:\n        /* \"--CODEGEN--\":4045:4052   */\n      dup1\n        /* \"--CODEGEN--\":4073:4074   */\n      0x00\n        /* \"--CODEGEN--\":4058:4318   */\n    tag_141:\n        /* \"--CODEGEN--\":4083:4089   */\n      dup4\n        /* \"--CODEGEN--\":4080:4081   */\n      dup2\n        /* \"--CODEGEN--\":4077:4090   */\n      lt\n        /* \"--CODEGEN--\":4058:4318   */\n      iszero\n      tag_143\n      jumpi\n        /* \"--CODEGEN--\":4150:4156   */\n      dup2\n        /* \"--CODEGEN--\":4144:4157   */\n      mload\n        /* \"--CODEGEN--\":4171:4234   */\n      tag_144\n        /* \"--CODEGEN--\":4230:4233   */\n      dup9\n        /* \"--CODEGEN--\":4215:4228   */\n      dup3\n        /* \"--CODEGEN--\":4171:4234   */\n      jump(tag_101)\n    tag_144:\n        /* \"--CODEGEN--\":4164:4234   */\n      swap8\n      pop\n        /* \"--CODEGEN--\":4251:4311   */\n      tag_145\n        /* \"--CODEGEN--\":4304:4310   */\n      dup4\n        /* \"--CODEGEN--\":4251:4311   */\n      jump(tag_146)\n    tag_145:\n        /* \"--CODEGEN--\":4241:4311   */\n      swap3\n      pop\n        /* \"--CODEGEN--\":4115:4318   */\n      pop\n        /* \"--CODEGEN--\":4105:4106   */\n      0x01\n        /* \"--CODEGEN--\":4102:4103   */\n      dup2\n        /* \"--CODEGEN--\":4098:4107   */\n      add\n        /* \"--CODEGEN--\":4093:4107   */\n      swap1\n      pop\n        /* \"--CODEGEN--\":4058:4318   */\n      jump(tag_141)\n    tag_143:\n        /* \"--CODEGEN--\":4062:4076   */\n      pop\n        /* \"--CODEGEN--\":4331:4334   */\n      dup6\n        /* \"--CODEGEN--\":4324:4334   */\n      swap4\n      pop\n        /* \"--CODEGEN--\":3774:4340   */\n      pop\n      pop\n      pop\n      swap3\n      swap2\n      pop\n      pop\n      jump\n        /* \"--CODEGEN--\":4348:4442   */\n    tag_96:\n        /* \"--CODEGEN--\":4415:4436   */\n      tag_148\n        /* \"--CODEGEN--\":4430:4435   */\n      dup2\n        /* \"--CODEGEN--\":4415:4436   */\n      jump(tag_149)\n    tag_148:\n        /* \"--CODEGEN--\":4410:4413   */\n      dup3\n        /* \"--CODEGEN--\":4403:4437   */\n      mstore\n        /* \"--CODEGEN--\":4397:4442   */\n      pop\n      pop\n      jump\n        /* \"--CODEGEN--\":4449:4553   */\n    tag_150:\n        /* \"--CODEGEN--\":4526:4547   */\n      tag_152\n        /* \"--CODEGEN--\":4541:4546   */\n      dup2\n        /* \"--CODEGEN--\":4526:4547   */\n      jump(tag_149)\n    tag_152:\n        /* \"--CODEGEN--\":4521:4524   */\n      dup3\n        /* \"--CODEGEN--\":4514:4548   */\n      mstore\n        /* \"--CODEGEN--\":4508:4553   */\n      pop\n      pop\n      jump\n        /* \"--CODEGEN--\":4560:4879   */\n    tag_100:\n      0x00\n        /* \"--CODEGEN--\":4658:4693   */\n      tag_154\n        /* \"--CODEGEN--\":4687:4692   */\n      dup3\n        /* \"--CODEGEN--\":4658:4693   */\n      jump(tag_155)\n    tag_154:\n        /* \"--CODEGEN--\":4705:4766   */\n      tag_156\n        /* \"--CODEGEN--\":4759:4765   */\n      dup2\n        /* \"--CODEGEN--\":4754:4757   */\n      dup6\n        /* \"--CODEGEN--\":4705:4766   */\n      jump(tag_157)\n    tag_156:\n        /* \"--CODEGEN--\":4698:4766   */\n      swap4\n      pop\n        /* \"--CODEGEN--\":4771:4823   */\n      tag_158\n        /* \"--CODEGEN--\":4816:4822   */\n      dup2\n        /* \"--CODEGEN--\":4811:4814   */\n      dup6\n        /* \"--CODEGEN--\":4804:4808   */\n      0x20\n        /* \"--CODEGEN--\":4797:4802   */\n      dup7\n        /* \"--CODEGEN--\":4793:4809   */\n      add\n        /* \"--CODEGEN--\":4771:4823   */\n      jump(tag_159)\n    tag_158:\n        /* \"--CODEGEN--\":4844:4873   */\n      tag_160\n        /* \"--CODEGEN--\":4866:4872   */\n      dup2\n        /* \"--CODEGEN--\":4844:4873   */\n      jump(tag_161)\n    tag_160:\n        /* \"--CODEGEN--\":4839:4842   */\n      dup5\n        /* \"--CODEGEN--\":4835:4874   */\n      add\n        /* \"--CODEGEN--\":4828:4874   */\n      swap2\n      pop\n        /* \"--CODEGEN--\":4638:4879   */\n      pop\n      swap3\n      swap2\n      pop\n      pop\n      jump\n        /* \"--CODEGEN--\":4886:5225   */\n    tag_162:\n      0x00\n        /* \"--CODEGEN--\":4994:5029   */\n      tag_164\n        /* \"--CODEGEN--\":5023:5028   */\n      dup3\n        /* \"--CODEGEN--\":4994:5029   */\n      jump(tag_155)\n    tag_164:\n        /* \"--CODEGEN--\":5041:5112   */\n      tag_165\n        /* \"--CODEGEN--\":5105:5111   */\n      dup2\n        /* \"--CODEGEN--\":5100:5103   */\n      dup6\n        /* \"--CODEGEN--\":5041:5112   */\n      jump(tag_166)\n    tag_165:\n        /* \"--CODEGEN--\":5034:5112   */\n      swap4\n      pop\n        /* \"--CODEGEN--\":5117:5169   */\n      tag_167\n        /* \"--CODEGEN--\":5162:5168   */\n      dup2\n        /* \"--CODEGEN--\":5157:5160   */\n      dup6\n        /* \"--CODEGEN--\":5150:5154   */\n      0x20\n        /* \"--CODEGEN--\":5143:5148   */\n      dup7\n        /* \"--CODEGEN--\":5139:5155   */\n      add\n        /* \"--CODEGEN--\":5117:5169   */\n      jump(tag_159)\n    tag_167:\n        /* \"--CODEGEN--\":5190:5219   */\n      tag_168\n        /* \"--CODEGEN--\":5212:5218   */\n      dup2\n        /* \"--CODEGEN--\":5190:5219   */\n      jump(tag_161)\n    tag_168:\n        /* \"--CODEGEN--\":5185:5188   */\n      dup5\n        /* \"--CODEGEN--\":5181:5220   */\n      add\n        /* \"--CODEGEN--\":5174:5220   */\n      swap2\n      pop\n        /* \"--CODEGEN--\":4974:5225   */\n      pop\n      swap3\n      swap2\n      pop\n      pop\n      jump\n        /* \"--CODEGEN--\":5291:5999   */\n    tag_169:\n      0x00\n        /* \"--CODEGEN--\":5434:5438   */\n      0x60\n        /* \"--CODEGEN--\":5429:5432   */\n      dup4\n        /* \"--CODEGEN--\":5425:5439   */\n      add\n        /* \"--CODEGEN--\":5515:5519   */\n      0x00\n        /* \"--CODEGEN--\":5508:5513   */\n      dup4\n        /* \"--CODEGEN--\":5504:5520   */\n      add\n        /* \"--CODEGEN--\":5498:5521   */\n      mload\n        /* \"--CODEGEN--\":5527:5590   */\n      tag_171\n        /* \"--CODEGEN--\":5584:5588   */\n      0x00\n        /* \"--CODEGEN--\":5579:5582   */\n      dup7\n        /* \"--CODEGEN--\":5575:5589   */\n      add\n        /* \"--CODEGEN--\":5561:5573   */\n      dup3\n        /* \"--CODEGEN--\":5527:5590   */\n      jump(tag_104)\n    tag_171:\n        /* \"--CODEGEN--\":5454:5596   */\n      pop\n        /* \"--CODEGEN--\":5669:5673   */\n      0x20\n        /* \"--CODEGEN--\":5662:5667   */\n      dup4\n        /* \"--CODEGEN--\":5658:5674   */\n      add\n        /* \"--CODEGEN--\":5652:5675   */\n      mload\n        /* \"--CODEGEN--\":5721:5724   */\n      dup5\n        /* \"--CODEGEN--\":5715:5719   */\n      dup3\n        /* \"--CODEGEN--\":5711:5725   */\n      sub\n        /* \"--CODEGEN--\":5704:5708   */\n      0x20\n        /* \"--CODEGEN--\":5699:5702   */\n      dup7\n        /* \"--CODEGEN--\":5695:5709   */\n      add\n        /* \"--CODEGEN--\":5688:5726   */\n      mstore\n        /* \"--CODEGEN--\":5741:5810   */\n      tag_172\n        /* \"--CODEGEN--\":5805:5809   */\n      dup3\n        /* \"--CODEGEN--\":5791:5803   */\n      dup3\n        /* \"--CODEGEN--\":5741:5810   */\n      jump(tag_100)\n    tag_172:\n        /* \"--CODEGEN--\":5733:5810   */\n      swap2\n      pop\n        /* \"--CODEGEN--\":5606:5822   */\n      pop\n        /* \"--CODEGEN--\":5898:5902   */\n      0x40\n        /* \"--CODEGEN--\":5891:5896   */\n      dup4\n        /* \"--CODEGEN--\":5887:5903   */\n      add\n        /* \"--CODEGEN--\":5881:5904   */\n      mload\n        /* \"--CODEGEN--\":5910:5967   */\n      tag_173\n        /* \"--CODEGEN--\":5961:5965   */\n      0x40\n        /* \"--CODEGEN--\":5956:5959   */\n      dup7\n        /* \"--CODEGEN--\":5952:5966   */\n      add\n        /* \"--CODEGEN--\":5938:5950   */\n      dup3\n        /* \"--CODEGEN--\":5910:5967   */\n      jump(tag_96)\n    tag_173:\n        /* \"--CODEGEN--\":5832:5973   */\n      pop\n        /* \"--CODEGEN--\":5990:5994   */\n      dup1\n        /* \"--CODEGEN--\":5983:5994   */\n      swap2\n      pop\n        /* \"--CODEGEN--\":5407:5999   */\n      pop\n      swap3\n      swap2\n      pop\n      pop\n      jump\n        /* \"--CODEGEN--\":6006:6109   */\n    tag_104:\n        /* \"--CODEGEN--\":6079:6103   */\n      tag_175\n        /* \"--CODEGEN--\":6097:6102   */\n      dup2\n        /* \"--CODEGEN--\":6079:6103   */\n      jump(tag_176)\n    tag_175:\n        /* \"--CODEGEN--\":6074:6077   */\n      dup3\n        /* \"--CODEGEN--\":6067:6104   */\n      mstore\n        /* \"--CODEGEN--\":6061:6109   */\n      pop\n      pop\n      jump\n        /* \"--CODEGEN--\":6116:6229   */\n    tag_177:\n        /* \"--CODEGEN--\":6199:6223   */\n      tag_179\n        /* \"--CODEGEN--\":6217:6222   */\n      dup2\n        /* \"--CODEGEN--\":6199:6223   */\n      jump(tag_176)\n    tag_179:\n        /* \"--CODEGEN--\":6194:6197   */\n      dup3\n        /* \"--CODEGEN--\":6187:6224   */\n      mstore\n        /* \"--CODEGEN--\":6181:6229   */\n      pop\n      pop\n      jump\n        /* \"--CODEGEN--\":6236:7127   */\n    tag_21:\n      0x00\n        /* \"--CODEGEN--\":6566:6568   */\n      0x60\n        /* \"--CODEGEN--\":6555:6564   */\n      dup3\n        /* \"--CODEGEN--\":6551:6569   */\n      add\n        /* \"--CODEGEN--\":6543:6569   */\n      swap1\n      pop\n        /* \"--CODEGEN--\":6616:6625   */\n      dup2\n        /* \"--CODEGEN--\":6610:6614   */\n      dup2\n        /* \"--CODEGEN--\":6606:6626   */\n      sub\n        /* \"--CODEGEN--\":6602:6603   */\n      0x00\n        /* \"--CODEGEN--\":6591:6600   */\n      dup4\n        /* \"--CODEGEN--\":6587:6604   */\n      add\n        /* \"--CODEGEN--\":6580:6627   */\n      mstore\n        /* \"--CODEGEN--\":6641:6749   */\n      tag_181\n        /* \"--CODEGEN--\":6744:6748   */\n      dup2\n        /* \"--CODEGEN--\":6735:6741   */\n      dup7\n        /* \"--CODEGEN--\":6641:6749   */\n      jump(tag_133)\n    tag_181:\n        /* \"--CODEGEN--\":6633:6749   */\n      swap1\n      pop\n        /* \"--CODEGEN--\":6797:6806   */\n      dup2\n        /* \"--CODEGEN--\":6791:6795   */\n      dup2\n        /* \"--CODEGEN--\":6787:6807   */\n      sub\n        /* \"--CODEGEN--\":6782:6784   */\n      0x20\n        /* \"--CODEGEN--\":6771:6780   */\n      dup4\n        /* \"--CODEGEN--\":6767:6785   */\n      add\n        /* \"--CODEGEN--\":6760:6808   */\n      mstore\n        /* \"--CODEGEN--\":6822:6942   */\n      tag_182\n        /* \"--CODEGEN--\":6937:6941   */\n      dup2\n        /* \"--CODEGEN--\":6928:6934   */\n      dup6\n        /* \"--CODEGEN--\":6822:6942   */\n      jump(tag_119)\n    tag_182:\n        /* \"--CODEGEN--\":6814:6942   */\n      swap1\n      pop\n        /* \"--CODEGEN--\":6990:6999   */\n      dup2\n        /* \"--CODEGEN--\":6984:6988   */\n      dup2\n        /* \"--CODEGEN--\":6980:7000   */\n      sub\n        /* \"--CODEGEN--\":6975:6977   */\n      0x40\n        /* \"--CODEGEN--\":6964:6973   */\n      dup4\n        /* \"--CODEGEN--\":6960:6978   */\n      add\n        /* \"--CODEGEN--\":6953:7001   */\n      mstore\n        /* \"--CODEGEN--\":7015:7117   */\n      tag_183\n        /* \"--CODEGEN--\":7112:7116   */\n      dup2\n        /* \"--CODEGEN--\":7103:7109   */\n      dup5\n        /* \"--CODEGEN--\":7015:7117   */\n      jump(tag_105)\n    tag_183:\n        /* \"--CODEGEN--\":7007:7117   */\n      swap1\n      pop\n        /* \"--CODEGEN--\":6537:7127   */\n      swap5\n      swap4\n      pop\n      pop\n      pop\n      pop\n      jump\n        /* \"--CODEGEN--\":7134:7479   */\n    tag_30:\n      0x00\n        /* \"--CODEGEN--\":7294:7296   */\n      0x20\n        /* \"--CODEGEN--\":7283:7292   */\n      dup3\n        /* \"--CODEGEN--\":7279:7297   */\n      add\n        /* \"--CODEGEN--\":7271:7297   */\n      swap1\n      pop\n        /* \"--CODEGEN--\":7344:7353   */\n      dup2\n        /* \"--CODEGEN--\":7338:7342   */\n      dup2\n        /* \"--CODEGEN--\":7334:7354   */\n      sub\n        /* \"--CODEGEN--\":7330:7331   */\n      0x00\n        /* \"--CODEGEN--\":7319:7328   */\n      dup4\n        /* \"--CODEGEN--\":7315:7332   */\n      add\n        /* \"--CODEGEN--\":7308:7355   */\n      mstore\n        /* \"--CODEGEN--\":7369:7469   */\n      tag_185\n        /* \"--CODEGEN--\":7464:7468   */\n      dup2\n        /* \"--CODEGEN--\":7455:7461   */\n      dup5\n        /* \"--CODEGEN--\":7369:7469   */\n      jump(tag_169)\n    tag_185:\n        /* \"--CODEGEN--\":7361:7469   */\n      swap1\n      pop\n        /* \"--CODEGEN--\":7265:7479   */\n      swap3\n      swap2\n      pop\n      pop\n      jump\n        /* \"--CODEGEN--\":7486:7699   */\n    tag_11:\n      0x00\n        /* \"--CODEGEN--\":7604:7606   */\n      0x20\n        /* \"--CODEGEN--\":7593:7602   */\n      dup3\n        /* \"--CODEGEN--\":7589:7607   */\n      add\n        /* \"--CODEGEN--\":7581:7607   */\n      swap1\n      pop\n        /* \"--CODEGEN--\":7618:7689   */\n      tag_187\n        /* \"--CODEGEN--\":7686:7687   */\n      0x00\n        /* \"--CODEGEN--\":7675:7684   */\n      dup4\n        /* \"--CODEGEN--\":7671:7688   */\n      add\n        /* \"--CODEGEN--\":7662:7668   */\n      dup5\n        /* \"--CODEGEN--\":7618:7689   */\n      jump(tag_177)\n    tag_187:\n        /* \"--CODEGEN--\":7575:7699   */\n      swap3\n      swap2\n      pop\n      pop\n      jump\n        /* \"--CODEGEN--\":7706:8209   */\n    tag_17:\n      0x00\n        /* \"--CODEGEN--\":7890:7892   */\n      0x60\n        /* \"--CODEGEN--\":7879:7888   */\n      dup3\n        /* \"--CODEGEN--\":7875:7893   */\n      add\n        /* \"--CODEGEN--\":7867:7893   */\n      swap1\n      pop\n        /* \"--CODEGEN--\":7904:7975   */\n      tag_189\n        /* \"--CODEGEN--\":7972:7973   */\n      0x00\n        /* \"--CODEGEN--\":7961:7970   */\n      dup4\n        /* \"--CODEGEN--\":7957:7974   */\n      add\n        /* \"--CODEGEN--\":7948:7954   */\n      dup7\n        /* \"--CODEGEN--\":7904:7975   */\n      jump(tag_177)\n    tag_189:\n        /* \"--CODEGEN--\":8023:8032   */\n      dup2\n        /* \"--CODEGEN--\":8017:8021   */\n      dup2\n        /* \"--CODEGEN--\":8013:8033   */\n      sub\n        /* \"--CODEGEN--\":8008:8010   */\n      0x20\n        /* \"--CODEGEN--\":7997:8006   */\n      dup4\n        /* \"--CODEGEN--\":7993:8011   */\n      add\n        /* \"--CODEGEN--\":7986:8034   */\n      mstore\n        /* \"--CODEGEN--\":8048:8122   */\n      tag_190\n        /* \"--CODEGEN--\":8117:8121   */\n      dup2\n        /* \"--CODEGEN--\":8108:8114   */\n      dup6\n        /* \"--CODEGEN--\":8048:8122   */\n      jump(tag_162)\n    tag_190:\n        /* \"--CODEGEN--\":8040:8122   */\n      swap1\n      pop\n        /* \"--CODEGEN--\":8133:8199   */\n      tag_191\n        /* \"--CODEGEN--\":8195:8197   */\n      0x40\n        /* \"--CODEGEN--\":8184:8193   */\n      dup4\n        /* \"--CODEGEN--\":8180:8198   */\n      add\n        /* \"--CODEGEN--\":8171:8177   */\n      dup5\n        /* \"--CODEGEN--\":8133:8199   */\n      jump(tag_150)\n    tag_191:\n        /* \"--CODEGEN--\":7861:8209   */\n      swap5\n      swap4\n      pop\n      pop\n      pop\n      pop\n      jump\n        /* \"--CODEGEN--\":8216:8472   */\n    tag_77:\n      0x00\n        /* \"--CODEGEN--\":8278:8280   */\n      0x40\n        /* \"--CODEGEN--\":8272:8281   */\n      mload\n        /* \"--CODEGEN--\":8262:8281   */\n      swap1\n      pop\n        /* \"--CODEGEN--\":8316:8320   */\n      dup2\n        /* \"--CODEGEN--\":8308:8314   */\n      dup2\n        /* \"--CODEGEN--\":8304:8321   */\n      add\n        /* \"--CODEGEN--\":8415:8421   */\n      dup2\n        /* \"--CODEGEN--\":8403:8413   */\n      dup2\n        /* \"--CODEGEN--\":8400:8422   */\n      lt\n        /* \"--CODEGEN--\":8379:8397   */\n      0xffffffffffffffff\n        /* \"--CODEGEN--\":8367:8377   */\n      dup3\n        /* \"--CODEGEN--\":8364:8398   */\n      gt\n        /* \"--CODEGEN--\":8361:8423   */\n      or\n        /* \"--CODEGEN--\":8358:8360   */\n      iszero\n      tag_193\n      jumpi\n        /* \"--CODEGEN--\":8436:8437   */\n      0x00\n        /* \"--CODEGEN--\":8433:8434   */\n      dup1\n        /* \"--CODEGEN--\":8426:8438   */\n      revert\n        /* \"--CODEGEN--\":8358:8360   */\n    tag_193:\n        /* \"--CODEGEN--\":8456:8466   */\n      dup1\n        /* \"--CODEGEN--\":8452:8454   */\n      0x40\n        /* \"--CODEGEN--\":8445:8467   */\n      mstore\n        /* \"--CODEGEN--\":8256:8472   */\n      pop\n      swap2\n      swap1\n      pop\n      jump\n        /* \"--CODEGEN--\":8479:8801   */\n    tag_76:\n      0x00\n        /* \"--CODEGEN--\":8623:8641   */\n      0xffffffffffffffff\n        /* \"--CODEGEN--\":8615:8621   */\n      dup3\n        /* \"--CODEGEN--\":8612:8642   */\n      gt\n        /* \"--CODEGEN--\":8609:8611   */\n      iszero\n      tag_195\n      jumpi\n        /* \"--CODEGEN--\":8655:8656   */\n      0x00\n        /* \"--CODEGEN--\":8652:8653   */\n      dup1\n        /* \"--CODEGEN--\":8645:8657   */\n      revert\n        /* \"--CODEGEN--\":8609:8611   */\n    tag_195:\n        /* \"--CODEGEN--\":8722:8726   */\n      0x1f\n        /* \"--CODEGEN--\":8718:8727   */\n      not\n        /* \"--CODEGEN--\":8711:8715   */\n      0x1f\n        /* \"--CODEGEN--\":8703:8709   */\n      dup4\n        /* \"--CODEGEN--\":8699:8716   */\n      add\n        /* \"--CODEGEN--\":8695:8728   */\n      and\n        /* \"--CODEGEN--\":8687:8728   */\n      swap1\n      pop\n        /* \"--CODEGEN--\":8786:8790   */\n      0x20\n        /* \"--CODEGEN--\":8780:8784   */\n      dup2\n        /* \"--CODEGEN--\":8776:8791   */\n      add\n        /* \"--CODEGEN--\":8768:8791   */\n      swap1\n      pop\n        /* \"--CODEGEN--\":8546:8801   */\n      swap2\n      swap1\n      pop\n      jump\n        /* \"--CODEGEN--\":8808:8956   */\n    tag_112:\n      0x00\n        /* \"--CODEGEN--\":8891:8894   */\n      dup2\n        /* \"--CODEGEN--\":8883:8894   */\n      swap1\n      pop\n        /* \"--CODEGEN--\":8929:8933   */\n      0x20\n        /* \"--CODEGEN--\":8924:8927   */\n      dup3\n        /* \"--CODEGEN--\":8920:8934   */\n      add\n        /* \"--CODEGEN--\":8912:8934   */\n      swap1\n      pop\n        /* \"--CODEGEN--\":8877:8956   */\n      swap2\n      swap1\n      pop\n      jump\n        /* \"--CODEGEN--\":8963:9120   */\n    tag_126:\n      0x00\n        /* \"--CODEGEN--\":9055:9058   */\n      dup2\n        /* \"--CODEGEN--\":9047:9058   */\n      swap1\n      pop\n        /* \"--CODEGEN--\":9093:9097   */\n      0x20\n        /* \"--CODEGEN--\":9088:9091   */\n      dup3\n        /* \"--CODEGEN--\":9084:9098   */\n      add\n        /* \"--CODEGEN--\":9076:9098   */\n      swap1\n      pop\n        /* \"--CODEGEN--\":9041:9120   */\n      swap2\n      swap1\n      pop\n      jump\n        /* \"--CODEGEN--\":9127:9278   */\n    tag_140:\n      0x00\n        /* \"--CODEGEN--\":9213:9216   */\n      dup2\n        /* \"--CODEGEN--\":9205:9216   */\n      swap1\n      pop\n        /* \"--CODEGEN--\":9251:9255   */\n      0x20\n        /* \"--CODEGEN--\":9246:9249   */\n      dup3\n        /* \"--CODEGEN--\":9242:9256   */\n      add\n        /* \"--CODEGEN--\":9234:9256   */\n      swap1\n      pop\n        /* \"--CODEGEN--\":9199:9278   */\n      swap2\n      swap1\n      pop\n      jump\n        /* \"--CODEGEN--\":9285:9419   */\n    tag_108:\n      0x00\n        /* \"--CODEGEN--\":9391:9396   */\n      dup2\n        /* \"--CODEGEN--\":9385:9397   */\n      mload\n        /* \"--CODEGEN--\":9375:9397   */\n      swap1\n      pop\n        /* \"--CODEGEN--\":9356:9419   */\n      swap2\n      swap1\n      pop\n      jump\n        /* \"--CODEGEN--\":9426:9569   */\n    tag_122:\n      0x00\n        /* \"--CODEGEN--\":9541:9546   */\n      dup2\n        /* \"--CODEGEN--\":9535:9547   */\n      mload\n        /* \"--CODEGEN--\":9525:9547   */\n      swap1\n      pop\n        /* \"--CODEGEN--\":9506:9569   */\n      swap2\n      swap1\n      pop\n      jump\n        /* \"--CODEGEN--\":9576:9713   */\n    tag_136:\n      0x00\n        /* \"--CODEGEN--\":9685:9690   */\n      dup2\n        /* \"--CODEGEN--\":9679:9691   */\n      mload\n        /* \"--CODEGEN--\":9669:9691   */\n      swap1\n      pop\n        /* \"--CODEGEN--\":9650:9713   */\n      swap2\n      swap1\n      pop\n      jump\n        /* \"--CODEGEN--\":9720:9838   */\n    tag_155:\n      0x00\n        /* \"--CODEGEN--\":9810:9815   */\n      dup2\n        /* \"--CODEGEN--\":9804:9816   */\n      mload\n        /* \"--CODEGEN--\":9794:9816   */\n      swap1\n      pop\n        /* \"--CODEGEN--\":9775:9838   */\n      swap2\n      swap1\n      pop\n      jump\n        /* \"--CODEGEN--\":9845:9950   */\n    tag_118:\n      0x00\n        /* \"--CODEGEN--\":9940:9944   */\n      0x20\n        /* \"--CODEGEN--\":9935:9938   */\n      dup3\n        /* \"--CODEGEN--\":9931:9945   */\n      add\n        /* \"--CODEGEN--\":9923:9945   */\n      swap1\n      pop\n        /* \"--CODEGEN--\":9917:9950   */\n      swap2\n      swap1\n      pop\n      jump\n        /* \"--CODEGEN--\":9957:10071   */\n    tag_132:\n      0x00\n        /* \"--CODEGEN--\":10061:10065   */\n      0x20\n        /* \"--CODEGEN--\":10056:10059   */\n      dup3\n        /* \"--CODEGEN--\":10052:10066   */\n      add\n        /* \"--CODEGEN--\":10044:10066   */\n      swap1\n      pop\n        /* \"--CODEGEN--\":10038:10071   */\n      swap2\n      swap1\n      pop\n      jump\n        /* \"--CODEGEN--\":10078:10186   */\n    tag_146:\n      0x00\n        /* \"--CODEGEN--\":10176:10180   */\n      0x20\n        /* \"--CODEGEN--\":10171:10174   */\n      dup3\n        /* \"--CODEGEN--\":10167:10181   */\n      add\n        /* \"--CODEGEN--\":10159:10181   */\n      swap1\n      pop\n        /* \"--CODEGEN--\":10153:10186   */\n      swap2\n      swap1\n      pop\n      jump\n        /* \"--CODEGEN--\":10194:10369   */\n    tag_110:\n      0x00\n        /* \"--CODEGEN--\":10321:10327   */\n      dup3\n        /* \"--CODEGEN--\":10316:10319   */\n      dup3\n        /* \"--CODEGEN--\":10309:10328   */\n      mstore\n        /* \"--CODEGEN--\":10358:10362   */\n      0x20\n        /* \"--CODEGEN--\":10353:10356   */\n      dup3\n        /* \"--CODEGEN--\":10349:10363   */\n      add\n        /* \"--CODEGEN--\":10334:10363   */\n      swap1\n      pop\n        /* \"--CODEGEN--\":10302:10369   */\n      swap3\n      swap2\n      pop\n      pop\n      jump\n        /* \"--CODEGEN--\":10378:10562   */\n    tag_124:\n      0x00\n        /* \"--CODEGEN--\":10514:10520   */\n      dup3\n        /* \"--CODEGEN--\":10509:10512   */\n      dup3\n        /* \"--CODEGEN--\":10502:10521   */\n      mstore\n        /* \"--CODEGEN--\":10551:10555   */\n      0x20\n        /* \"--CODEGEN--\":10546:10549   */\n      dup3\n        /* \"--CODEGEN--\":10542:10556   */\n      add\n        /* \"--CODEGEN--\":10527:10556   */\n      swap1\n      pop\n        /* \"--CODEGEN--\":10495:10562   */\n      swap3\n      swap2\n      pop\n      pop\n      jump\n        /* \"--CODEGEN--\":10571:10749   */\n    tag_138:\n      0x00\n        /* \"--CODEGEN--\":10701:10707   */\n      dup3\n        /* \"--CODEGEN--\":10696:10699   */\n      dup3\n        /* \"--CODEGEN--\":10689:10708   */\n      mstore\n        /* \"--CODEGEN--\":10738:10742   */\n      0x20\n        /* \"--CODEGEN--\":10733:10736   */\n      dup3\n        /* \"--CODEGEN--\":10729:10743   */\n      add\n        /* \"--CODEGEN--\":10714:10743   */\n      swap1\n      pop\n        /* \"--CODEGEN--\":10682:10749   */\n      swap3\n      swap2\n      pop\n      pop\n      jump\n        /* \"--CODEGEN--\":10758:10911   */\n    tag_157:\n      0x00\n        /* \"--CODEGEN--\":10863:10869   */\n      dup3\n        /* \"--CODEGEN--\":10858:10861   */\n      dup3\n        /* \"--CODEGEN--\":10851:10870   */\n      mstore\n        /* \"--CODEGEN--\":10900:10904   */\n      0x20\n        /* \"--CODEGEN--\":10895:10898   */\n      dup3\n        /* \"--CODEGEN--\":10891:10905   */\n      add\n        /* \"--CODEGEN--\":10876:10905   */\n      swap1\n      pop\n        /* \"--CODEGEN--\":10844:10911   */\n      swap3\n      swap2\n      pop\n      pop\n      jump\n        /* \"--CODEGEN--\":10920:11083   */\n    tag_166:\n      0x00\n        /* \"--CODEGEN--\":11035:11041   */\n      dup3\n        /* \"--CODEGEN--\":11030:11033   */\n      dup3\n        /* \"--CODEGEN--\":11023:11042   */\n      mstore\n        /* \"--CODEGEN--\":11072:11076   */\n      0x20\n        /* \"--CODEGEN--\":11067:11070   */\n      dup3\n        /* \"--CODEGEN--\":11063:11077   */\n      add\n        /* \"--CODEGEN--\":11048:11077   */\n      swap1\n      pop\n        /* \"--CODEGEN--\":11016:11083   */\n      swap3\n      swap2\n      pop\n      pop\n      jump\n        /* \"--CODEGEN--\":11091:11176   */\n    tag_149:\n      0x00\n        /* \"--CODEGEN--\":11164:11169   */\n      dup2\n        /* \"--CODEGEN--\":11157:11170   */\n      iszero\n        /* \"--CODEGEN--\":11150:11171   */\n      iszero\n        /* \"--CODEGEN--\":11139:11171   */\n      swap1\n      pop\n        /* \"--CODEGEN--\":11133:11176   */\n      swap2\n      swap1\n      pop\n      jump\n        /* \"--CODEGEN--\":11183:11255   */\n    tag_176:\n      0x00\n        /* \"--CODEGEN--\":11245:11250   */\n      dup2\n        /* \"--CODEGEN--\":11234:11250   */\n      swap1\n      pop\n        /* \"--CODEGEN--\":11228:11255   */\n      swap2\n      swap1\n      pop\n      jump\n        /* \"--CODEGEN--\":11263:11408   */\n    tag_80:\n        /* \"--CODEGEN--\":11344:11350   */\n      dup3\n        /* \"--CODEGEN--\":11339:11342   */\n      dup2\n        /* \"--CODEGEN--\":11334:11337   */\n      dup4\n        /* \"--CODEGEN--\":11321:11351   */\n      calldatacopy\n        /* \"--CODEGEN--\":11400:11401   */\n      0x00\n        /* \"--CODEGEN--\":11391:11397   */\n      dup4\n        /* \"--CODEGEN--\":11386:11389   */\n      dup4\n        /* \"--CODEGEN--\":11382:11398   */\n      add\n        /* \"--CODEGEN--\":11375:11402   */\n      mstore\n        /* \"--CODEGEN--\":11314:11408   */\n      pop\n      pop\n      pop\n      jump\n        /* \"--CODEGEN--\":11417:11685   */\n    tag_159:\n        /* \"--CODEGEN--\":11482:11483   */\n      0x00\n        /* \"--CODEGEN--\":11489:11590   */\n    tag_215:\n        /* \"--CODEGEN--\":11503:11509   */\n      dup4\n        /* \"--CODEGEN--\":11500:11501   */\n      dup2\n        /* \"--CODEGEN--\":11497:11510   */\n      lt\n        /* \"--CODEGEN--\":11489:11590   */\n      iszero\n      tag_217\n      jumpi\n        /* \"--CODEGEN--\":11579:11580   */\n      dup1\n        /* \"--CODEGEN--\":11574:11577   */\n      dup3\n        /* \"--CODEGEN--\":11570:11581   */\n      add\n        /* \"--CODEGEN--\":11564:11582   */\n      mload\n        /* \"--CODEGEN--\":11560:11561   */\n      dup2\n        /* \"--CODEGEN--\":11555:11558   */\n      dup5\n        /* \"--CODEGEN--\":11551:11562   */\n      add\n        /* \"--CODEGEN--\":11544:11583   */\n      mstore\n        /* \"--CODEGEN--\":11525:11527   */\n      0x20\n        /* \"--CODEGEN--\":11522:11523   */\n      dup2\n        /* \"--CODEGEN--\":11518:11528   */\n      add\n        /* \"--CODEGEN--\":11513:11528   */\n      swap1\n      pop\n        /* \"--CODEGEN--\":11489:11590   */\n      jump(tag_215)\n    tag_217:\n        /* \"--CODEGEN--\":11605:11611   */\n      dup4\n        /* \"--CODEGEN--\":11602:11603   */\n      dup2\n        /* \"--CODEGEN--\":11599:11612   */\n      gt\n        /* \"--CODEGEN--\":11596:11598   */\n      iszero\n      tag_218\n      jumpi\n        /* \"--CODEGEN--\":11670:11671   */\n      0x00\n        /* \"--CODEGEN--\":11661:11667   */\n      dup5\n        /* \"--CODEGEN--\":11656:11659   */\n      dup5\n        /* \"--CODEGEN--\":11652:11668   */\n      add\n        /* \"--CODEGEN--\":11645:11672   */\n      mstore\n        /* \"--CODEGEN--\":11596:11598   */\n    tag_218:\n        /* \"--CODEGEN--\":11466:11685   */\n      pop\n      pop\n      pop\n      pop\n      jump\n        /* \"--CODEGEN--\":11693:11790   */\n    tag_161:\n      0x00\n        /* \"--CODEGEN--\":11781:11783   */\n      0x1f\n        /* \"--CODEGEN--\":11777:11784   */\n      not\n        /* \"--CODEGEN--\":11772:11774   */\n      0x1f\n        /* \"--CODEGEN--\":11765:11770   */\n      dup4\n        /* \"--CODEGEN--\":11761:11775   */\n      add\n        /* \"--CODEGEN--\":11757:11785   */\n      and\n        /* \"--CODEGEN--\":11747:11785   */\n      swap1\n      pop\n        /* \"--CODEGEN--\":11741:11790   */\n      swap2\n      swap1\n      pop\n      jump\n        /* \"--CODEGEN--\":11798:11909   */\n    tag_70:\n        /* \"--CODEGEN--\":11864:11885   */\n      tag_221\n        /* \"--CODEGEN--\":11879:11884   */\n      dup2\n        /* \"--CODEGEN--\":11864:11885   */\n      jump(tag_149)\n    tag_221:\n        /* \"--CODEGEN--\":11857:11862   */\n      dup2\n        /* \"--CODEGEN--\":11854:11886   */\n      eq\n        /* \"--CODEGEN--\":11844:11846   */\n      tag_222\n      jumpi\n        /* \"--CODEGEN--\":11900:11901   */\n      0x00\n        /* \"--CODEGEN--\":11897:11898   */\n      dup1\n        /* \"--CODEGEN--\":11890:11902   */\n      revert\n        /* \"--CODEGEN--\":11844:11846   */\n    tag_222:\n        /* \"--CODEGEN--\":11838:11909   */\n      pop\n      jump\n        /* \"--CODEGEN--\":11916:12033   */\n    tag_84:\n        /* \"--CODEGEN--\":11985:12009   */\n      tag_224\n        /* \"--CODEGEN--\":12003:12008   */\n      dup2\n        /* \"--CODEGEN--\":11985:12009   */\n      jump(tag_176)\n    tag_224:\n        /* \"--CODEGEN--\":11978:11983   */\n      dup2\n        /* \"--CODEGEN--\":11975:12010   */\n      eq\n        /* \"--CODEGEN--\":11965:11967   */\n      tag_225\n      jumpi\n        /* \"--CODEGEN--\":12024:12025   */\n      0x00\n        /* \"--CODEGEN--\":12021:12022   */\n      dup1\n        /* \"--CODEGEN--\":12014:12026   */\n      revert\n        /* \"--CODEGEN--\":11965:11967   */\n    tag_225:\n        /* \"--CODEGEN--\":11959:12033   */\n      pop\n      jump\n\n    auxdata: 0xa26469706673582212201b4d3ca99c7bafd4fb9167b50ebeba9df8cbd1488d78142ab1a150e97341658464736f6c63430006000033\n}\n",
				"bytecode": {
					"linkReferences": {},
					"object": "608060405234801561001057600080fd5b50600060018190555061005f6040518060400160405280600481526020017f566c61640000000000000000000000000000000000000000000000000000000081525060016100aa60201b60201c565b6100a56040518060400160405280600681526020017f4e6173747961000000000000000000000000000000000000000000000000000081525060006100aa60201b60201c565b6101e2565b60405180606001604052806001548152602001838152602001821515815250600080600154815260200190815260200160002060008201518160000155602082015181600101908051906020019061010392919061013d565b5060408201518160020160006101000a81548160ff0219169083151502179055509050506001600081548092919060010191905055505050565b828054600181600116156101000203166002900490600052602060002090601f016020900481019282601f1061017e57805160ff19168380011785556101ac565b828001600101855582156101ac579182015b828111156101ab578251825591602001919060010190610190565b5b5090506101b991906101bd565b5090565b6101df91905b808211156101db5760008160009055506001016101c3565b5090565b90565b610c60806101f16000396000f3fe608060405234801561001057600080fd5b50600436106100575760003560e01c806311aee3801461005c5780635daf08ca1461007a5780636f416d59146100ac57806392c68389146100cc578063f97698f8146100e8575b600080fd5b610064610118565b6040516100719190610a09565b60405180910390f35b610094600480360361008f91908101906106ff565b61011e565b6040516100a393929190610a24565b60405180910390f35b6100b46101ed565b6040516100c39392919061099b565b60405180910390f35b6100e660048036036100e191908101906106ab565b6103df565b005b61010260048036036100fd91908101906106ff565b610472565b60405161010f91906109e7565b60405180910390f35b60015481565b6000602052806000526040600020600091509050806000015490806001018054600181600116156101000203166002900480601f0160208091040260200160405190810160405280929190818152602001828054600181600116156101000203166002900480156101d05780601f106101a5576101008083540402835291602001916101d0565b820191906000526020600020905b8154815290600101906020018083116101b357829003601f168201915b5050505050908060020160009054906101000a900460ff16905083565b6060806060806001546040519080825280602002602001820160405280156102245781602001602082028038833980820191505090505b509050606060015460405190808252806020026020018201604052801561025f57816020015b606081526020019060019003908161024a5790505b50905060606001546040519080825280602002602001820160405280156102955781602001602082028038833980820191505090505b50905060008090505b6001548110156103cd576000806000838152602001908152602001600020905080600001548583815181106102cf57fe5b602002602001018181525050806001018054600181600116156101000203166002900480601f0160208091040260200160405190810160405280929190818152602001828054600181600116156101000203166002900480156103735780601f1061034857610100808354040283529160200191610373565b820191906000526020600020905b81548152906001019060200180831161035657829003601f168201915b505050505084838151811061038457fe5b60200260200101819052508060020160009054906101000a900460ff168383815181106103ad57fe5b60200260200101901515908115158152505050808060010191505061029e565b50828282955095509550505050909192565b604051806060016040528060015481526020018381526020018215158152506000806001548152602001908152602001600020600082015181600001556020820151816001019080519060200190610438929190610565565b5060408201518160020160006101000a81548160ff0219169083151502179055509050506001600081548092919060010191905055505050565b61047a6105e5565b60008083815260200190815260200160002060405180606001604052908160008201548152602001600182018054600181600116156101000203166002900480601f01602080910402602001604051908101604052809291908181526020018280546001816001161561010002031660029004801561053a5780601f1061050f5761010080835404028352916020019161053a565b820191906000526020600020905b81548152906001019060200180831161051d57829003601f168201915b505050505081526020016002820160009054906101000a900460ff1615151515815250509050919050565b828054600181600116156101000203166002900490600052602060002090601f016020900481019282601f106105a657805160ff19168380011785556105d4565b828001600101855582156105d4579182015b828111156105d35782518255916020019190600101906105b8565b5b5090506105e19190610608565b5090565b604051806060016040528060008152602001606081526020016000151581525090565b61062a91905b8082111561062657600081600090555060010161060e565b5090565b90565b60008135905061063c81610bfc565b92915050565b600082601f83011261065357600080fd5b813561066661066182610a8f565b610a62565b9150808252602083016020830185838301111561068257600080fd5b61068d838284610ba9565b50505092915050565b6000813590506106a581610c13565b92915050565b600080604083850312156106be57600080fd5b600083013567ffffffffffffffff8111156106d857600080fd5b6106e485828601610642565b92505060206106f58582860161062d565b9150509250929050565b60006020828403121561071157600080fd5b600061071f84828501610696565b91505092915050565b6000610734838361089d565b60208301905092915050565b600061074c83836108bb565b905092915050565b6000610760838361097d565b60208301905092915050565b600061077782610aeb565b6107818185610b3e565b935061078c83610abb565b8060005b838110156107bd5781516107a48882610728565b97506107af83610b17565b925050600181019050610790565b5085935050505092915050565b60006107d582610af6565b6107df8185610b4f565b9350836020820285016107f185610acb565b8060005b8581101561082d578484038952815161080e8582610740565b945061081983610b24565b925060208a019950506001810190506107f5565b50829750879550505050505092915050565b600061084a82610b01565b6108548185610b60565b935061085f83610adb565b8060005b838110156108905781516108778882610754565b975061088283610b31565b925050600181019050610863565b5085935050505092915050565b6108a681610b93565b82525050565b6108b581610b93565b82525050565b60006108c682610b0c565b6108d08185610b71565b93506108e0818560208601610bb8565b6108e981610beb565b840191505092915050565b60006108ff82610b0c565b6109098185610b82565b9350610919818560208601610bb8565b61092281610beb565b840191505092915050565b6000606083016000830151610945600086018261097d565b506020830151848203602086015261095d82826108bb565b9150506040830151610972604086018261089d565b508091505092915050565b61098681610b9f565b82525050565b61099581610b9f565b82525050565b600060608201905081810360008301526109b5818661083f565b905081810360208301526109c981856107ca565b905081810360408301526109dd818461076c565b9050949350505050565b60006020820190508181036000830152610a01818461092d565b905092915050565b6000602082019050610a1e600083018461098c565b92915050565b6000606082019050610a39600083018661098c565b8181036020830152610a4b81856108f4565b9050610a5a60408301846108ac565b949350505050565b6000604051905081810181811067ffffffffffffffff82111715610a8557600080fd5b8060405250919050565b600067ffffffffffffffff821115610aa657600080fd5b601f19601f8301169050602081019050919050565b6000819050602082019050919050565b6000819050602082019050919050565b6000819050602082019050919050565b600081519050919050565b600081519050919050565b600081519050919050565b600081519050919050565b6000602082019050919050565b6000602082019050919050565b6000602082019050919050565b600082825260208201905092915050565b600082825260208201905092915050565b600082825260208201905092915050565b600082825260208201905092915050565b600082825260208201905092915050565b60008115159050919050565b6000819050919050565b82818337600083830152505050565b60005b83811015610bd6578082015181840152602081019050610bbb565b83811115610be5576000848401525b50505050565b6000601f19601f8301169050919050565b610c0581610b93565b8114610c1057600080fd5b50565b610c1c81610b9f565b8114610c2757600080fd5b5056fea26469706673582212201b4d3ca99c7bafd4fb9167b50ebeba9df8cbd1488d78142ab1a150e97341658464736f6c63430006000033",
					"opcodes": "PUSH1 0x80 PUSH1 0x40 MSTORE CALLVALUE DUP1 ISZERO PUSH2 0x10 JUMPI PUSH1 0x0 DUP1 REVERT JUMPDEST POP PUSH1 0x0 PUSH1 0x1 DUP2 SWAP1 SSTORE POP PUSH2 0x5F PUSH1 0x40 MLOAD DUP1 PUSH1 0x40 ADD PUSH1 0x40 MSTORE DUP1 PUSH1 0x4 DUP2 MSTORE PUSH1 0x20 ADD PUSH32 0x566C616400000000000000000000000000000000000000000000000000000000 DUP2 MSTORE POP PUSH1 0x1 PUSH2 0xAA PUSH1 0x20 SHL PUSH1 0x20 SHR JUMP JUMPDEST PUSH2 0xA5 PUSH1 0x40 MLOAD DUP1 PUSH1 0x40 ADD PUSH1 0x40 MSTORE DUP1 PUSH1 0x6 DUP2 MSTORE PUSH1 0x20 ADD PUSH32 0x4E61737479610000000000000000000000000000000000000000000000000000 DUP2 MSTORE POP PUSH1 0x0 PUSH2 0xAA PUSH1 0x20 SHL PUSH1 0x20 SHR JUMP JUMPDEST PUSH2 0x1E2 JUMP JUMPDEST PUSH1 0x40 MLOAD DUP1 PUSH1 0x60 ADD PUSH1 0x40 MSTORE DUP1 PUSH1 0x1 SLOAD DUP2 MSTORE PUSH1 0x20 ADD DUP4 DUP2 MSTORE PUSH1 0x20 ADD DUP3 ISZERO ISZERO DUP2 MSTORE POP PUSH1 0x0 DUP1 PUSH1 0x1 SLOAD DUP2 MSTORE PUSH1 0x20 ADD SWAP1 DUP2 MSTORE PUSH1 0x20 ADD PUSH1 0x0 KECCAK256 PUSH1 0x0 DUP3 ADD MLOAD DUP2 PUSH1 0x0 ADD SSTORE PUSH1 0x20 DUP3 ADD MLOAD DUP2 PUSH1 0x1 ADD SWAP1 DUP1 MLOAD SWAP1 PUSH1 0x20 ADD SWAP1 PUSH2 0x103 SWAP3 SWAP2 SWAP1 PUSH2 0x13D JUMP JUMPDEST POP PUSH1 0x40 DUP3 ADD MLOAD DUP2 PUSH1 0x2 ADD PUSH1 0x0 PUSH2 0x100 EXP DUP2 SLOAD DUP2 PUSH1 0xFF MUL NOT AND SWAP1 DUP4 ISZERO ISZERO MUL OR SWAP1 SSTORE POP SWAP1 POP POP PUSH1 0x1 PUSH1 0x0 DUP2 SLOAD DUP1 SWAP3 SWAP2 SWAP1 PUSH1 0x1 ADD SWAP2 SWAP1 POP SSTORE POP POP POP JUMP JUMPDEST DUP3 DUP1 SLOAD PUSH1 0x1 DUP2 PUSH1 0x1 AND ISZERO PUSH2 0x100 MUL SUB AND PUSH1 0x2 SWAP1 DIV SWAP1 PUSH1 0x0 MSTORE PUSH1 0x20 PUSH1 0x0 KECCAK256 SWAP1 PUSH1 0x1F ADD PUSH1 0x20 SWAP1 DIV DUP2 ADD SWAP3 DUP3 PUSH1 0x1F LT PUSH2 0x17E JUMPI DUP1 MLOAD PUSH1 0xFF NOT AND DUP4 DUP1 ADD OR DUP6 SSTORE PUSH2 0x1AC JUMP JUMPDEST DUP3 DUP1 ADD PUSH1 0x1 ADD DUP6 SSTORE DUP3 ISZERO PUSH2 0x1AC JUMPI SWAP2 DUP3 ADD JUMPDEST DUP3 DUP2 GT ISZERO PUSH2 0x1AB JUMPI DUP3 MLOAD DUP3 SSTORE SWAP2 PUSH1 0x20 ADD SWAP2 SWAP1 PUSH1 0x1 ADD SWAP1 PUSH2 0x190 JUMP JUMPDEST JUMPDEST POP SWAP1 POP PUSH2 0x1B9 SWAP2 SWAP1 PUSH2 0x1BD JUMP JUMPDEST POP SWAP1 JUMP JUMPDEST PUSH2 0x1DF SWAP2 SWAP1 JUMPDEST DUP1 DUP3 GT ISZERO PUSH2 0x1DB JUMPI PUSH1 0x0 DUP2 PUSH1 0x0 SWAP1 SSTORE POP PUSH1 0x1 ADD PUSH2 0x1C3 JUMP JUMPDEST POP SWAP1 JUMP JUMPDEST SWAP1 JUMP JUMPDEST PUSH2 0xC60 DUP1 PUSH2 0x1F1 PUSH1 0x0 CODECOPY PUSH1 0x0 RETURN INVALID PUSH1 0x80 PUSH1 0x40 MSTORE CALLVALUE DUP1 ISZERO PUSH2 0x10 JUMPI PUSH1 0x0 DUP1 REVERT JUMPDEST POP PUSH1 0x4 CALLDATASIZE LT PUSH2 0x57 JUMPI PUSH1 0x0 CALLDATALOAD PUSH1 0xE0 SHR DUP1 PUSH4 0x11AEE380 EQ PUSH2 0x5C JUMPI DUP1 PUSH4 0x5DAF08CA EQ PUSH2 0x7A JUMPI DUP1 PUSH4 0x6F416D59 EQ PUSH2 0xAC JUMPI DUP1 PUSH4 0x92C68389 EQ PUSH2 0xCC JUMPI DUP1 PUSH4 0xF97698F8 EQ PUSH2 0xE8 JUMPI JUMPDEST PUSH1 0x0 DUP1 REVERT JUMPDEST PUSH2 0x64 PUSH2 0x118 JUMP JUMPDEST PUSH1 0x40 MLOAD PUSH2 0x71 SWAP2 SWAP1 PUSH2 0xA09 JUMP JUMPDEST PUSH1 0x40 MLOAD DUP1 SWAP2 SUB SWAP1 RETURN JUMPDEST PUSH2 0x94 PUSH1 0x4 DUP1 CALLDATASIZE SUB PUSH2 0x8F SWAP2 SWAP1 DUP2 ADD SWAP1 PUSH2 0x6FF JUMP JUMPDEST PUSH2 0x11E JUMP JUMPDEST PUSH1 0x40 MLOAD PUSH2 0xA3 SWAP4 SWAP3 SWAP2 SWAP1 PUSH2 0xA24 JUMP JUMPDEST PUSH1 0x40 MLOAD DUP1 SWAP2 SUB SWAP1 RETURN JUMPDEST PUSH2 0xB4 PUSH2 0x1ED JUMP JUMPDEST PUSH1 0x40 MLOAD PUSH2 0xC3 SWAP4 SWAP3 SWAP2 SWAP1 PUSH2 0x99B JUMP JUMPDEST PUSH1 0x40 MLOAD DUP1 SWAP2 SUB SWAP1 RETURN JUMPDEST PUSH2 0xE6 PUSH1 0x4 DUP1 CALLDATASIZE SUB PUSH2 0xE1 SWAP2 SWAP1 DUP2 ADD SWAP1 PUSH2 0x6AB JUMP JUMPDEST PUSH2 0x3DF JUMP JUMPDEST STOP JUMPDEST PUSH2 0x102 PUSH1 0x4 DUP1 CALLDATASIZE SUB PUSH2 0xFD SWAP2 SWAP1 DUP2 ADD SWAP1 PUSH2 0x6FF JUMP JUMPDEST PUSH2 0x472 JUMP JUMPDEST PUSH1 0x40 MLOAD PUSH2 0x10F SWAP2 SWAP1 PUSH2 0x9E7 JUMP JUMPDEST PUSH1 0x40 MLOAD DUP1 SWAP2 SUB SWAP1 RETURN JUMPDEST PUSH1 0x1 SLOAD DUP2 JUMP JUMPDEST PUSH1 0x0 PUSH1 0x20 MSTORE DUP1 PUSH1 0x0 MSTORE PUSH1 0x40 PUSH1 0x0 KECCAK256 PUSH1 0x0 SWAP2 POP SWAP1 POP DUP1 PUSH1 0x0 ADD SLOAD SWAP1 DUP1 PUSH1 0x1 ADD DUP1 SLOAD PUSH1 0x1 DUP2 PUSH1 0x1 AND ISZERO PUSH2 0x100 MUL SUB AND PUSH1 0x2 SWAP1 DIV DUP1 PUSH1 0x1F ADD PUSH1 0x20 DUP1 SWAP2 DIV MUL PUSH1 0x20 ADD PUSH1 0x40 MLOAD SWAP1 DUP2 ADD PUSH1 0x40 MSTORE DUP1 SWAP3 SWAP2 SWAP1 DUP2 DUP2 MSTORE PUSH1 0x20 ADD DUP3 DUP1 SLOAD PUSH1 0x1 DUP2 PUSH1 0x1 AND ISZERO PUSH2 0x100 MUL SUB AND PUSH1 0x2 SWAP1 DIV DUP1 ISZERO PUSH2 0x1D0 JUMPI DUP1 PUSH1 0x1F LT PUSH2 0x1A5 JUMPI PUSH2 0x100 DUP1 DUP4 SLOAD DIV MUL DUP4 MSTORE SWAP2 PUSH1 0x20 ADD SWAP2 PUSH2 0x1D0 JUMP JUMPDEST DUP3 ADD SWAP2 SWAP1 PUSH1 0x0 MSTORE PUSH1 0x20 PUSH1 0x0 KECCAK256 SWAP1 JUMPDEST DUP2 SLOAD DUP2 MSTORE SWAP1 PUSH1 0x1 ADD SWAP1 PUSH1 0x20 ADD DUP1 DUP4 GT PUSH2 0x1B3 JUMPI DUP3 SWAP1 SUB PUSH1 0x1F AND DUP3 ADD SWAP2 JUMPDEST POP POP POP POP POP SWAP1 DUP1 PUSH1 0x2 ADD PUSH1 0x0 SWAP1 SLOAD SWAP1 PUSH2 0x100 EXP SWAP1 DIV PUSH1 0xFF AND SWAP1 POP DUP4 JUMP JUMPDEST PUSH1 0x60 DUP1 PUSH1 0x60 DUP1 PUSH1 0x1 SLOAD PUSH1 0x40 MLOAD SWAP1 DUP1 DUP3 MSTORE DUP1 PUSH1 0x20 MUL PUSH1 0x20 ADD DUP3 ADD PUSH1 0x40 MSTORE DUP1 ISZERO PUSH2 0x224 JUMPI DUP2 PUSH1 0x20 ADD PUSH1 0x20 DUP3 MUL DUP1 CODESIZE DUP4 CODECOPY DUP1 DUP3 ADD SWAP2 POP POP SWAP1 POP JUMPDEST POP SWAP1 POP PUSH1 0x60 PUSH1 0x1 SLOAD PUSH1 0x40 MLOAD SWAP1 DUP1 DUP3 MSTORE DUP1 PUSH1 0x20 MUL PUSH1 0x20 ADD DUP3 ADD PUSH1 0x40 MSTORE DUP1 ISZERO PUSH2 0x25F JUMPI DUP2 PUSH1 0x20 ADD JUMPDEST PUSH1 0x60 DUP2 MSTORE PUSH1 0x20 ADD SWAP1 PUSH1 0x1 SWAP1 SUB SWAP1 DUP2 PUSH2 0x24A JUMPI SWAP1 POP JUMPDEST POP SWAP1 POP PUSH1 0x60 PUSH1 0x1 SLOAD PUSH1 0x40 MLOAD SWAP1 DUP1 DUP3 MSTORE DUP1 PUSH1 0x20 MUL PUSH1 0x20 ADD DUP3 ADD PUSH1 0x40 MSTORE DUP1 ISZERO PUSH2 0x295 JUMPI DUP2 PUSH1 0x20 ADD PUSH1 0x20 DUP3 MUL DUP1 CODESIZE DUP4 CODECOPY DUP1 DUP3 ADD SWAP2 POP POP SWAP1 POP JUMPDEST POP SWAP1 POP PUSH1 0x0 DUP1 SWAP1 POP JUMPDEST PUSH1 0x1 SLOAD DUP2 LT ISZERO PUSH2 0x3CD JUMPI PUSH1 0x0 DUP1 PUSH1 0x0 DUP4 DUP2 MSTORE PUSH1 0x20 ADD SWAP1 DUP2 MSTORE PUSH1 0x20 ADD PUSH1 0x0 KECCAK256 SWAP1 POP DUP1 PUSH1 0x0 ADD SLOAD DUP6 DUP4 DUP2 MLOAD DUP2 LT PUSH2 0x2CF JUMPI INVALID JUMPDEST PUSH1 0x20 MUL PUSH1 0x20 ADD ADD DUP2 DUP2 MSTORE POP POP DUP1 PUSH1 0x1 ADD DUP1 SLOAD PUSH1 0x1 DUP2 PUSH1 0x1 AND ISZERO PUSH2 0x100 MUL SUB AND PUSH1 0x2 SWAP1 DIV DUP1 PUSH1 0x1F ADD PUSH1 0x20 DUP1 SWAP2 DIV MUL PUSH1 0x20 ADD PUSH1 0x40 MLOAD SWAP1 DUP2 ADD PUSH1 0x40 MSTORE DUP1 SWAP3 SWAP2 SWAP1 DUP2 DUP2 MSTORE PUSH1 0x20 ADD DUP3 DUP1 SLOAD PUSH1 0x1 DUP2 PUSH1 0x1 AND ISZERO PUSH2 0x100 MUL SUB AND PUSH1 0x2 SWAP1 DIV DUP1 ISZERO PUSH2 0x373 JUMPI DUP1 PUSH1 0x1F LT PUSH2 0x348 JUMPI PUSH2 0x100 DUP1 DUP4 SLOAD DIV MUL DUP4 MSTORE SWAP2 PUSH1 0x20 ADD SWAP2 PUSH2 0x373 JUMP JUMPDEST DUP3 ADD SWAP2 SWAP1 PUSH1 0x0 MSTORE PUSH1 0x20 PUSH1 0x0 KECCAK256 SWAP1 JUMPDEST DUP2 SLOAD DUP2 MSTORE SWAP1 PUSH1 0x1 ADD SWAP1 PUSH1 0x20 ADD DUP1 DUP4 GT PUSH2 0x356 JUMPI DUP3 SWAP1 SUB PUSH1 0x1F AND DUP3 ADD SWAP2 JUMPDEST POP POP POP POP POP DUP5 DUP4 DUP2 MLOAD DUP2 LT PUSH2 0x384 JUMPI INVALID JUMPDEST PUSH1 0x20 MUL PUSH1 0x20 ADD ADD DUP2 SWAP1 MSTORE POP DUP1 PUSH1 0x2 ADD PUSH1 0x0 SWAP1 SLOAD SWAP1 PUSH2 0x100 EXP SWAP1 DIV PUSH1 0xFF AND DUP4 DUP4 DUP2 MLOAD DUP2 LT PUSH2 0x3AD JUMPI INVALID JUMPDEST PUSH1 0x20 MUL PUSH1 0x20 ADD ADD SWAP1 ISZERO ISZERO SWAP1 DUP2 ISZERO ISZERO DUP2 MSTORE POP POP POP DUP1 DUP1 PUSH1 0x1 ADD SWAP2 POP POP PUSH2 0x29E JUMP JUMPDEST POP DUP3 DUP3 DUP3 SWAP6 POP SWAP6 POP SWAP6 POP POP POP POP SWAP1 SWAP2 SWAP3 JUMP JUMPDEST PUSH1 0x40 MLOAD DUP1 PUSH1 0x60 ADD PUSH1 0x40 MSTORE DUP1 PUSH1 0x1 SLOAD DUP2 MSTORE PUSH1 0x20 ADD DUP4 DUP2 MSTORE PUSH1 0x20 ADD DUP3 ISZERO ISZERO DUP2 MSTORE POP PUSH1 0x0 DUP1 PUSH1 0x1 SLOAD DUP2 MSTORE PUSH1 0x20 ADD SWAP1 DUP2 MSTORE PUSH1 0x20 ADD PUSH1 0x0 KECCAK256 PUSH1 0x0 DUP3 ADD MLOAD DUP2 PUSH1 0x0 ADD SSTORE PUSH1 0x20 DUP3 ADD MLOAD DUP2 PUSH1 0x1 ADD SWAP1 DUP1 MLOAD SWAP1 PUSH1 0x20 ADD SWAP1 PUSH2 0x438 SWAP3 SWAP2 SWAP1 PUSH2 0x565 JUMP JUMPDEST POP PUSH1 0x40 DUP3 ADD MLOAD DUP2 PUSH1 0x2 ADD PUSH1 0x0 PUSH2 0x100 EXP DUP2 SLOAD DUP2 PUSH1 0xFF MUL NOT AND SWAP1 DUP4 ISZERO ISZERO MUL OR SWAP1 SSTORE POP SWAP1 POP POP PUSH1 0x1 PUSH1 0x0 DUP2 SLOAD DUP1 SWAP3 SWAP2 SWAP1 PUSH1 0x1 ADD SWAP2 SWAP1 POP SSTORE POP POP POP JUMP JUMPDEST PUSH2 0x47A PUSH2 0x5E5 JUMP JUMPDEST PUSH1 0x0 DUP1 DUP4 DUP2 MSTORE PUSH1 0x20 ADD SWAP1 DUP2 MSTORE PUSH1 0x20 ADD PUSH1 0x0 KECCAK256 PUSH1 0x40 MLOAD DUP1 PUSH1 0x60 ADD PUSH1 0x40 MSTORE SWAP1 DUP2 PUSH1 0x0 DUP3 ADD SLOAD DUP2 MSTORE PUSH1 0x20 ADD PUSH1 0x1 DUP3 ADD DUP1 SLOAD PUSH1 0x1 DUP2 PUSH1 0x1 AND ISZERO PUSH2 0x100 MUL SUB AND PUSH1 0x2 SWAP1 DIV DUP1 PUSH1 0x1F ADD PUSH1 0x20 DUP1 SWAP2 DIV MUL PUSH1 0x20 ADD PUSH1 0x40 MLOAD SWAP1 DUP2 ADD PUSH1 0x40 MSTORE DUP1 SWAP3 SWAP2 SWAP1 DUP2 DUP2 MSTORE PUSH1 0x20 ADD DUP3 DUP1 SLOAD PUSH1 0x1 DUP2 PUSH1 0x1 AND ISZERO PUSH2 0x100 MUL SUB AND PUSH1 0x2 SWAP1 DIV DUP1 ISZERO PUSH2 0x53A JUMPI DUP1 PUSH1 0x1F LT PUSH2 0x50F JUMPI PUSH2 0x100 DUP1 DUP4 SLOAD DIV MUL DUP4 MSTORE SWAP2 PUSH1 0x20 ADD SWAP2 PUSH2 0x53A JUMP JUMPDEST DUP3 ADD SWAP2 SWAP1 PUSH1 0x0 MSTORE PUSH1 0x20 PUSH1 0x0 KECCAK256 SWAP1 JUMPDEST DUP2 SLOAD DUP2 MSTORE SWAP1 PUSH1 0x1 ADD SWAP1 PUSH1 0x20 ADD DUP1 DUP4 GT PUSH2 0x51D JUMPI DUP3 SWAP1 SUB PUSH1 0x1F AND DUP3 ADD SWAP2 JUMPDEST POP POP POP POP POP DUP2 MSTORE PUSH1 0x20 ADD PUSH1 0x2 DUP3 ADD PUSH1 0x0 SWAP1 SLOAD SWAP1 PUSH2 0x100 EXP SWAP1 DIV PUSH1 0xFF AND ISZERO ISZERO ISZERO ISZERO DUP2 MSTORE POP POP SWAP1 POP SWAP2 SWAP1 POP JUMP JUMPDEST DUP3 DUP1 SLOAD PUSH1 0x1 DUP2 PUSH1 0x1 AND ISZERO PUSH2 0x100 MUL SUB AND PUSH1 0x2 SWAP1 DIV SWAP1 PUSH1 0x0 MSTORE PUSH1 0x20 PUSH1 0x0 KECCAK256 SWAP1 PUSH1 0x1F ADD PUSH1 0x20 SWAP1 DIV DUP2 ADD SWAP3 DUP3 PUSH1 0x1F LT PUSH2 0x5A6 JUMPI DUP1 MLOAD PUSH1 0xFF NOT AND DUP4 DUP1 ADD OR DUP6 SSTORE PUSH2 0x5D4 JUMP JUMPDEST DUP3 DUP1 ADD PUSH1 0x1 ADD DUP6 SSTORE DUP3 ISZERO PUSH2 0x5D4 JUMPI SWAP2 DUP3 ADD JUMPDEST DUP3 DUP2 GT ISZERO PUSH2 0x5D3 JUMPI DUP3 MLOAD DUP3 SSTORE SWAP2 PUSH1 0x20 ADD SWAP2 SWAP1 PUSH1 0x1 ADD SWAP1 PUSH2 0x5B8 JUMP JUMPDEST JUMPDEST POP SWAP1 POP PUSH2 0x5E1 SWAP2 SWAP1 PUSH2 0x608 JUMP JUMPDEST POP SWAP1 JUMP JUMPDEST PUSH1 0x40 MLOAD DUP1 PUSH1 0x60 ADD PUSH1 0x40 MSTORE DUP1 PUSH1 0x0 DUP2 MSTORE PUSH1 0x20 ADD PUSH1 0x60 DUP2 MSTORE PUSH1 0x20 ADD PUSH1 0x0 ISZERO ISZERO DUP2 MSTORE POP SWAP1 JUMP JUMPDEST PUSH2 0x62A SWAP2 SWAP1 JUMPDEST DUP1 DUP3 GT ISZERO PUSH2 0x626 JUMPI PUSH1 0x0 DUP2 PUSH1 0x0 SWAP1 SSTORE POP PUSH1 0x1 ADD PUSH2 0x60E JUMP JUMPDEST POP SWAP1 JUMP JUMPDEST SWAP1 JUMP JUMPDEST PUSH1 0x0 DUP2 CALLDATALOAD SWAP1 POP PUSH2 0x63C DUP2 PUSH2 0xBFC JUMP JUMPDEST SWAP3 SWAP2 POP POP JUMP JUMPDEST PUSH1 0x0 DUP3 PUSH1 0x1F DUP4 ADD SLT PUSH2 0x653 JUMPI PUSH1 0x0 DUP1 REVERT JUMPDEST DUP2 CALLDATALOAD PUSH2 0x666 PUSH2 0x661 DUP3 PUSH2 0xA8F JUMP JUMPDEST PUSH2 0xA62 JUMP JUMPDEST SWAP2 POP DUP1 DUP3 MSTORE PUSH1 0x20 DUP4 ADD PUSH1 0x20 DUP4 ADD DUP6 DUP4 DUP4 ADD GT ISZERO PUSH2 0x682 JUMPI PUSH1 0x0 DUP1 REVERT JUMPDEST PUSH2 0x68D DUP4 DUP3 DUP5 PUSH2 0xBA9 JUMP JUMPDEST POP POP POP SWAP3 SWAP2 POP POP JUMP JUMPDEST PUSH1 0x0 DUP2 CALLDATALOAD SWAP1 POP PUSH2 0x6A5 DUP2 PUSH2 0xC13 JUMP JUMPDEST SWAP3 SWAP2 POP POP JUMP JUMPDEST PUSH1 0x0 DUP1 PUSH1 0x40 DUP4 DUP6 SUB SLT ISZERO PUSH2 0x6BE JUMPI PUSH1 0x0 DUP1 REVERT JUMPDEST PUSH1 0x0 DUP4 ADD CALLDATALOAD PUSH8 0xFFFFFFFFFFFFFFFF DUP2 GT ISZERO PUSH2 0x6D8 JUMPI PUSH1 0x0 DUP1 REVERT JUMPDEST PUSH2 0x6E4 DUP6 DUP3 DUP7 ADD PUSH2 0x642 JUMP JUMPDEST SWAP3 POP POP PUSH1 0x20 PUSH2 0x6F5 DUP6 DUP3 DUP7 ADD PUSH2 0x62D JUMP JUMPDEST SWAP2 POP POP SWAP3 POP SWAP3 SWAP1 POP JUMP JUMPDEST PUSH1 0x0 PUSH1 0x20 DUP3 DUP5 SUB SLT ISZERO PUSH2 0x711 JUMPI PUSH1 0x0 DUP1 REVERT JUMPDEST PUSH1 0x0 PUSH2 0x71F DUP5 DUP3 DUP6 ADD PUSH2 0x696 JUMP JUMPDEST SWAP2 POP POP SWAP3 SWAP2 POP POP JUMP JUMPDEST PUSH1 0x0 PUSH2 0x734 DUP4 DUP4 PUSH2 0x89D JUMP JUMPDEST PUSH1 0x20 DUP4 ADD SWAP1 POP SWAP3 SWAP2 POP POP JUMP JUMPDEST PUSH1 0x0 PUSH2 0x74C DUP4 DUP4 PUSH2 0x8BB JUMP JUMPDEST SWAP1 POP SWAP3 SWAP2 POP POP JUMP JUMPDEST PUSH1 0x0 PUSH2 0x760 DUP4 DUP4 PUSH2 0x97D JUMP JUMPDEST PUSH1 0x20 DUP4 ADD SWAP1 POP SWAP3 SWAP2 POP POP JUMP JUMPDEST PUSH1 0x0 PUSH2 0x777 DUP3 PUSH2 0xAEB JUMP JUMPDEST PUSH2 0x781 DUP2 DUP6 PUSH2 0xB3E JUMP JUMPDEST SWAP4 POP PUSH2 0x78C DUP4 PUSH2 0xABB JUMP JUMPDEST DUP1 PUSH1 0x0 JUMPDEST DUP4 DUP2 LT ISZERO PUSH2 0x7BD JUMPI DUP2 MLOAD PUSH2 0x7A4 DUP9 DUP3 PUSH2 0x728 JUMP JUMPDEST SWAP8 POP PUSH2 0x7AF DUP4 PUSH2 0xB17 JUMP JUMPDEST SWAP3 POP POP PUSH1 0x1 DUP2 ADD SWAP1 POP PUSH2 0x790 JUMP JUMPDEST POP DUP6 SWAP4 POP POP POP POP SWAP3 SWAP2 POP POP JUMP JUMPDEST PUSH1 0x0 PUSH2 0x7D5 DUP3 PUSH2 0xAF6 JUMP JUMPDEST PUSH2 0x7DF DUP2 DUP6 PUSH2 0xB4F JUMP JUMPDEST SWAP4 POP DUP4 PUSH1 0x20 DUP3 MUL DUP6 ADD PUSH2 0x7F1 DUP6 PUSH2 0xACB JUMP JUMPDEST DUP1 PUSH1 0x0 JUMPDEST DUP6 DUP2 LT ISZERO PUSH2 0x82D JUMPI DUP5 DUP5 SUB DUP10 MSTORE DUP2 MLOAD PUSH2 0x80E DUP6 DUP3 PUSH2 0x740 JUMP JUMPDEST SWAP5 POP PUSH2 0x819 DUP4 PUSH2 0xB24 JUMP JUMPDEST SWAP3 POP PUSH1 0x20 DUP11 ADD SWAP10 POP POP PUSH1 0x1 DUP2 ADD SWAP1 POP PUSH2 0x7F5 JUMP JUMPDEST POP DUP3 SWAP8 POP DUP8 SWAP6 POP POP POP POP POP POP SWAP3 SWAP2 POP POP JUMP JUMPDEST PUSH1 0x0 PUSH2 0x84A DUP3 PUSH2 0xB01 JUMP JUMPDEST PUSH2 0x854 DUP2 DUP6 PUSH2 0xB60 JUMP JUMPDEST SWAP4 POP PUSH2 0x85F DUP4 PUSH2 0xADB JUMP JUMPDEST DUP1 PUSH1 0x0 JUMPDEST DUP4 DUP2 LT ISZERO PUSH2 0x890 JUMPI DUP2 MLOAD PUSH2 0x877 DUP9 DUP3 PUSH2 0x754 JUMP JUMPDEST SWAP8 POP PUSH2 0x882 DUP4 PUSH2 0xB31 JUMP JUMPDEST SWAP3 POP POP PUSH1 0x1 DUP2 ADD SWAP1 POP PUSH2 0x863 JUMP JUMPDEST POP DUP6 SWAP4 POP POP POP POP SWAP3 SWAP2 POP POP JUMP JUMPDEST PUSH2 0x8A6 DUP2 PUSH2 0xB93 JUMP JUMPDEST DUP3 MSTORE POP POP JUMP JUMPDEST PUSH2 0x8B5 DUP2 PUSH2 0xB93 JUMP JUMPDEST DUP3 MSTORE POP POP JUMP JUMPDEST PUSH1 0x0 PUSH2 0x8C6 DUP3 PUSH2 0xB0C JUMP JUMPDEST PUSH2 0x8D0 DUP2 DUP6 PUSH2 0xB71 JUMP JUMPDEST SWAP4 POP PUSH2 0x8E0 DUP2 DUP6 PUSH1 0x20 DUP7 ADD PUSH2 0xBB8 JUMP JUMPDEST PUSH2 0x8E9 DUP2 PUSH2 0xBEB JUMP JUMPDEST DUP5 ADD SWAP2 POP POP SWAP3 SWAP2 POP POP JUMP JUMPDEST PUSH1 0x0 PUSH2 0x8FF DUP3 PUSH2 0xB0C JUMP JUMPDEST PUSH2 0x909 DUP2 DUP6 PUSH2 0xB82 JUMP JUMPDEST SWAP4 POP PUSH2 0x919 DUP2 DUP6 PUSH1 0x20 DUP7 ADD PUSH2 0xBB8 JUMP JUMPDEST PUSH2 0x922 DUP2 PUSH2 0xBEB JUMP JUMPDEST DUP5 ADD SWAP2 POP POP SWAP3 SWAP2 POP POP JUMP JUMPDEST PUSH1 0x0 PUSH1 0x60 DUP4 ADD PUSH1 0x0 DUP4 ADD MLOAD PUSH2 0x945 PUSH1 0x0 DUP7 ADD DUP3 PUSH2 0x97D JUMP JUMPDEST POP PUSH1 0x20 DUP4 ADD MLOAD DUP5 DUP3 SUB PUSH1 0x20 DUP7 ADD MSTORE PUSH2 0x95D DUP3 DUP3 PUSH2 0x8BB JUMP JUMPDEST SWAP2 POP POP PUSH1 0x40 DUP4 ADD MLOAD PUSH2 0x972 PUSH1 0x40 DUP7 ADD DUP3 PUSH2 0x89D JUMP JUMPDEST POP DUP1 SWAP2 POP POP SWAP3 SWAP2 POP POP JUMP JUMPDEST PUSH2 0x986 DUP2 PUSH2 0xB9F JUMP JUMPDEST DUP3 MSTORE POP POP JUMP JUMPDEST PUSH2 0x995 DUP2 PUSH2 0xB9F JUMP JUMPDEST DUP3 MSTORE POP POP JUMP JUMPDEST PUSH1 0x0 PUSH1 0x60 DUP3 ADD SWAP1 POP DUP2 DUP2 SUB PUSH1 0x0 DUP4 ADD MSTORE PUSH2 0x9B5 DUP2 DUP7 PUSH2 0x83F JUMP JUMPDEST SWAP1 POP DUP2 DUP2 SUB PUSH1 0x20 DUP4 ADD MSTORE PUSH2 0x9C9 DUP2 DUP6 PUSH2 0x7CA JUMP JUMPDEST SWAP1 POP DUP2 DUP2 SUB PUSH1 0x40 DUP4 ADD MSTORE PUSH2 0x9DD DUP2 DUP5 PUSH2 0x76C JUMP JUMPDEST SWAP1 POP SWAP5 SWAP4 POP POP POP POP JUMP JUMPDEST PUSH1 0x0 PUSH1 0x20 DUP3 ADD SWAP1 POP DUP2 DUP2 SUB PUSH1 0x0 DUP4 ADD MSTORE PUSH2 0xA01 DUP2 DUP5 PUSH2 0x92D JUMP JUMPDEST SWAP1 POP SWAP3 SWAP2 POP POP JUMP JUMPDEST PUSH1 0x0 PUSH1 0x20 DUP3 ADD SWAP1 POP PUSH2 0xA1E PUSH1 0x0 DUP4 ADD DUP5 PUSH2 0x98C JUMP JUMPDEST SWAP3 SWAP2 POP POP JUMP JUMPDEST PUSH1 0x0 PUSH1 0x60 DUP3 ADD SWAP1 POP PUSH2 0xA39 PUSH1 0x0 DUP4 ADD DUP7 PUSH2 0x98C JUMP JUMPDEST DUP2 DUP2 SUB PUSH1 0x20 DUP4 ADD MSTORE PUSH2 0xA4B DUP2 DUP6 PUSH2 0x8F4 JUMP JUMPDEST SWAP1 POP PUSH2 0xA5A PUSH1 0x40 DUP4 ADD DUP5 PUSH2 0x8AC JUMP JUMPDEST SWAP5 SWAP4 POP POP POP POP JUMP JUMPDEST PUSH1 0x0 PUSH1 0x40 MLOAD SWAP1 POP DUP2 DUP2 ADD DUP2 DUP2 LT PUSH8 0xFFFFFFFFFFFFFFFF DUP3 GT OR ISZERO PUSH2 0xA85 JUMPI PUSH1 0x0 DUP1 REVERT JUMPDEST DUP1 PUSH1 0x40 MSTORE POP SWAP2 SWAP1 POP JUMP JUMPDEST PUSH1 0x0 PUSH8 0xFFFFFFFFFFFFFFFF DUP3 GT ISZERO PUSH2 0xAA6 JUMPI PUSH1 0x0 DUP1 REVERT JUMPDEST PUSH1 0x1F NOT PUSH1 0x1F DUP4 ADD AND SWAP1 POP PUSH1 0x20 DUP2 ADD SWAP1 POP SWAP2 SWAP1 POP JUMP JUMPDEST PUSH1 0x0 DUP2 SWAP1 POP PUSH1 0x20 DUP3 ADD SWAP1 POP SWAP2 SWAP1 POP JUMP JUMPDEST PUSH1 0x0 DUP2 SWAP1 POP PUSH1 0x20 DUP3 ADD SWAP1 POP SWAP2 SWAP1 POP JUMP JUMPDEST PUSH1 0x0 DUP2 SWAP1 POP PUSH1 0x20 DUP3 ADD SWAP1 POP SWAP2 SWAP1 POP JUMP JUMPDEST PUSH1 0x0 DUP2 MLOAD SWAP1 POP SWAP2 SWAP1 POP JUMP JUMPDEST PUSH1 0x0 DUP2 MLOAD SWAP1 POP SWAP2 SWAP1 POP JUMP JUMPDEST PUSH1 0x0 DUP2 MLOAD SWAP1 POP SWAP2 SWAP1 POP JUMP JUMPDEST PUSH1 0x0 DUP2 MLOAD SWAP1 POP SWAP2 SWAP1 POP JUMP JUMPDEST PUSH1 0x0 PUSH1 0x20 DUP3 ADD SWAP1 POP SWAP2 SWAP1 POP JUMP JUMPDEST PUSH1 0x0 PUSH1 0x20 DUP3 ADD SWAP1 POP SWAP2 SWAP1 POP JUMP JUMPDEST PUSH1 0x0 PUSH1 0x20 DUP3 ADD SWAP1 POP SWAP2 SWAP1 POP JUMP JUMPDEST PUSH1 0x0 DUP3 DUP3 MSTORE PUSH1 0x20 DUP3 ADD SWAP1 POP SWAP3 SWAP2 POP POP JUMP JUMPDEST PUSH1 0x0 DUP3 DUP3 MSTORE PUSH1 0x20 DUP3 ADD SWAP1 POP SWAP3 SWAP2 POP POP JUMP JUMPDEST PUSH1 0x0 DUP3 DUP3 MSTORE PUSH1 0x20 DUP3 ADD SWAP1 POP SWAP3 SWAP2 POP POP JUMP JUMPDEST PUSH1 0x0 DUP3 DUP3 MSTORE PUSH1 0x20 DUP3 ADD SWAP1 POP SWAP3 SWAP2 POP POP JUMP JUMPDEST PUSH1 0x0 DUP3 DUP3 MSTORE PUSH1 0x20 DUP3 ADD SWAP1 POP SWAP3 SWAP2 POP POP JUMP JUMPDEST PUSH1 0x0 DUP2 ISZERO ISZERO SWAP1 POP SWAP2 SWAP1 POP JUMP JUMPDEST PUSH1 0x0 DUP2 SWAP1 POP SWAP2 SWAP1 POP JUMP JUMPDEST DUP3 DUP2 DUP4 CALLDATACOPY PUSH1 0x0 DUP4 DUP4 ADD MSTORE POP POP POP JUMP JUMPDEST PUSH1 0x0 JUMPDEST DUP4 DUP2 LT ISZERO PUSH2 0xBD6 JUMPI DUP1 DUP3 ADD MLOAD DUP2 DUP5 ADD MSTORE PUSH1 0x20 DUP2 ADD SWAP1 POP PUSH2 0xBBB JUMP JUMPDEST DUP4 DUP2 GT ISZERO PUSH2 0xBE5 JUMPI PUSH1 0x0 DUP5 DUP5 ADD MSTORE JUMPDEST POP POP POP POP JUMP JUMPDEST PUSH1 0x0 PUSH1 0x1F NOT PUSH1 0x1F DUP4 ADD AND SWAP1 POP SWAP2 SWAP1 POP JUMP JUMPDEST PUSH2 0xC05 DUP2 PUSH2 0xB93 JUMP JUMPDEST DUP2 EQ PUSH2 0xC10 JUMPI PUSH1 0x0 DUP1 REVERT JUMPDEST POP JUMP JUMPDEST PUSH2 0xC1C DUP2 PUSH2 0xB9F JUMP JUMPDEST DUP2 EQ PUSH2 0xC27 JUMPI PUSH1 0x0 DUP1 REVERT JUMPDEST POP JUMP INVALID LOG2 PUSH5 0x6970667358 0x22 SLT KECCAK256 SHL 0x4D EXTCODECOPY 0xA9 SWAP13 PUSH28 0xAFD4FB9167B50EBEBA9DF8CBD1488D78142AB1A150E9734165846473 PUSH16 0x6C634300060000330000000000000000 "
				},
				"gasEstimates": {
					"creation": {
						"codeDepositCost": "633600",
						"executionCost": "infinite",
						"totalCost": "infinite"
					},
					"external": {
						"addMember(string,bool)": "infinite",
						"getMemberStructure(uint256)": "infinite",
						"getMemberValue()": "infinite",
						"memberCount()": "1107",
						"members(uint256)": "infinite"
					}
				},
				"methodIdentifiers": {
					"addMember(string,bool)": "92c68389",
					"getMemberStructure(uint256)": "f97698f8",
					"getMemberValue()": "6f416d59",
					"memberCount()": "11aee380",
					"members(uint256)": "5daf08ca"
				}
			},
			"storageLayout": {
				"storage": [
					{
						"astId": 13,
						"contract": "contracts/fun_stuff.sol:VoteSaving",
						"label": "members",
						"offset": 0,
						"slot": "0",
						"type": "t_mapping(t_uint256,t_struct(Member)9_storage)"
					},
					{
						"astId": 19,
						"contract": "contracts/fun_stuff.sol:VoteSaving",
						"label": "memberCount",
						"offset": 0,
						"slot": "1",
						"type": "t_uint256"
					}
				],
				"types": {
					"t_bool": {
						"encoding": "inplace",
						"label": "bool",
						"numberOfBytes": "1"
					},
					"t_mapping(t_uint256,t_struct(Member)9_storage)": {
						"encoding": "mapping",
						"key": "t_uint256",
						"label": "mapping(uint256 => struct VoteSaving.Member)",
						"numberOfBytes": "32",
						"value": "t_struct(Member)9_storage"
					},
					"t_string_storage": {
						"encoding": "bytes",
						"label": "string",
						"numberOfBytes": "32"
					},
					"t_struct(Member)9_storage": {
						"encoding": "inplace",
						"label": "struct VoteSaving.Member",
						"members": [
							{
								"astId": 4,
								"contract": "contracts/fun_stuff.sol:VoteSaving",
								"label": "id",
								"offset": 0,
								"slot": "0",
								"type": "t_uint256"
							},
							{
								"astId": 6,
								"contract": "contracts/fun_stuff.sol:VoteSaving",
								"label": "name",
								"offset": 0,
								"slot": "1",
								"type": "t_string_storage"
							},
							{
								"astId": 8,
								"contract": "contracts/fun_stuff.sol:VoteSaving",
								"label": "isVoted",
								"offset": 0,
								"slot": "2",
								"type": "t_bool"
							}
						],
						"numberOfBytes": "96"
					},
					"t_uint256": {
						"encoding": "inplace",
						"label": "uint256",
						"numberOfBytes": "32"
					}
				}
			},
			"userdoc": {
				"methods": {}
			}
		}
	}
}