{
	"contracts/prop_test.sol": {
		"Ballot": {
			"abi": [
				{
					"inputs": [
						{
							"internalType": "string[]",
							"name": "proposalNames",
							"type": "string[]"
						}
					],
					"name": "createBallot",
					"outputs": [],
					"stateMutability": "nonpayable",
					"type": "function"
				},
				{
					"inputs": [],
					"name": "getCreatorBallot",
					"outputs": [
						{
							"internalType": "address",
							"name": "",
							"type": "address"
						}
					],
					"stateMutability": "view",
					"type": "function"
				},
				{
					"inputs": [],
					"name": "getEndDate",
					"outputs": [
						{
							"internalType": "uint256",
							"name": "",
							"type": "uint256"
						}
					],
					"stateMutability": "view",
					"type": "function"
				},
				{
					"inputs": [
						{
							"internalType": "uint256",
							"name": "_proposalId",
							"type": "uint256"
						}
					],
					"name": "getProposalStructure",
					"outputs": [
						{
							"components": [
								{
									"internalType": "string",
									"name": "name",
									"type": "string"
								},
								{
									"internalType": "uint256",
									"name": "voteCount",
									"type": "uint256"
								}
							],
							"internalType": "struct Ballot.Proposal",
							"name": "",
							"type": "tuple"
						}
					],
					"stateMutability": "view",
					"type": "function"
				},
				{
					"inputs": [],
					"name": "getProposals",
					"outputs": [
						{
							"components": [
								{
									"internalType": "string",
									"name": "name",
									"type": "string"
								},
								{
									"internalType": "uint256",
									"name": "voteCount",
									"type": "uint256"
								}
							],
							"internalType": "struct Ballot.Proposal[]",
							"name": "",
							"type": "tuple[]"
						}
					],
					"stateMutability": "view",
					"type": "function"
				},
				{
					"inputs": [],
					"name": "getStartDate",
					"outputs": [
						{
							"internalType": "uint256",
							"name": "",
							"type": "uint256"
						}
					],
					"stateMutability": "view",
					"type": "function"
				},
				{
					"inputs": [],
					"name": "getnumOfProposals",
					"outputs": [
						{
							"internalType": "uint256",
							"name": "",
							"type": "uint256"
						}
					],
					"stateMutability": "view",
					"type": "function"
				},
				{
					"inputs": [
						{
							"internalType": "address",
							"name": "voter",
							"type": "address"
						}
					],
					"name": "giveRightToVote",
					"outputs": [],
					"stateMutability": "nonpayable",
					"type": "function"
				},
				{
					"inputs": [
						{
							"internalType": "uint256",
							"name": "",
							"type": "uint256"
						}
					],
					"name": "proposals",
					"outputs": [
						{
							"internalType": "string",
							"name": "name",
							"type": "string"
						},
						{
							"internalType": "uint256",
							"name": "voteCount",
							"type": "uint256"
						}
					],
					"stateMutability": "view",
					"type": "function"
				},
				{
					"inputs": [
						{
							"internalType": "uint256",
							"name": "proposal",
							"type": "uint256"
						}
					],
					"name": "vote",
					"outputs": [],
					"stateMutability": "nonpayable",
					"type": "function"
				},
				{
					"inputs": [
						{
							"internalType": "address",
							"name": "",
							"type": "address"
						}
					],
					"name": "voters",
					"outputs": [
						{
							"internalType": "uint256",
							"name": "weight",
							"type": "uint256"
						},
						{
							"internalType": "bool",
							"name": "voted",
							"type": "bool"
						},
						{
							"internalType": "address",
							"name": "delegate",
							"type": "address"
						},
						{
							"internalType": "uint256",
							"name": "vote",
							"type": "uint256"
						}
					],
					"stateMutability": "view",
					"type": "function"
				}
			],
			"devdoc": {
				"kind": "dev",
				"methods": {},
				"version": 1
			},
			"evm": {
				"assembly": "    /* \"contracts/prop_test.sol\":60:3640  contract Ballot {\r... */\n  mstore(0x40, 0x80)\n  callvalue\n  dup1\n  iszero\n  tag_1\n  jumpi\n  0x00\n  dup1\n  revert\ntag_1:\n  pop\n  dataSize(sub_0)\n  dup1\n  dataOffset(sub_0)\n  0x00\n  codecopy\n  0x00\n  return\nstop\n\nsub_0: assembly {\n        /* \"contracts/prop_test.sol\":60:3640  contract Ballot {\r... */\n      mstore(0x40, 0x80)\n      callvalue\n      dup1\n      iszero\n      tag_1\n      jumpi\n      0x00\n      dup1\n      revert\n    tag_1:\n      pop\n      jumpi(tag_2, lt(calldatasize, 0x04))\n      shr(0xe0, calldataload(0x00))\n      dup1\n      0x7a16fcb0\n      gt\n      tag_14\n      jumpi\n      dup1\n      0x7a16fcb0\n      eq\n      tag_8\n      jumpi\n      dup1\n      0x836bc692\n      eq\n      tag_9\n      jumpi\n      dup1\n      0x9e7b8d61\n      eq\n      tag_10\n      jumpi\n      dup1\n      0xa3ec138d\n      eq\n      tag_11\n      jumpi\n      dup1\n      0xb1356488\n      eq\n      tag_12\n      jumpi\n      dup1\n      0xe9d6c6da\n      eq\n      tag_13\n      jumpi\n      jump(tag_2)\n    tag_14:\n      dup1\n      0x0121b93f\n      eq\n      tag_3\n      jumpi\n      dup1\n      0x013cf08b\n      eq\n      tag_4\n      jumpi\n      dup1\n      0x0a82dcb1\n      eq\n      tag_5\n      jumpi\n      dup1\n      0x62564c48\n      eq\n      tag_6\n      jumpi\n      dup1\n      0x78f305c6\n      eq\n      tag_7\n      jumpi\n    tag_2:\n      0x00\n      dup1\n      revert\n        /* \"contracts/prop_test.sol\":2255:2644  function vote(uint proposal) public {\r... */\n    tag_3:\n      tag_15\n      0x04\n      dup1\n      calldatasize\n      sub\n      dup2\n      add\n      swap1\n      tag_16\n      swap2\n      swap1\n      tag_17\n      jump\t// in\n    tag_16:\n      tag_18\n      jump\t// in\n    tag_15:\n      stop\n        /* \"contracts/prop_test.sol\":865:892  Proposal[] public proposals */\n    tag_4:\n      tag_19\n      0x04\n      dup1\n      calldatasize\n      sub\n      dup2\n      add\n      swap1\n      tag_20\n      swap2\n      swap1\n      tag_17\n      jump\t// in\n    tag_20:\n      tag_21\n      jump\t// in\n    tag_19:\n      mload(0x40)\n      tag_22\n      swap3\n      swap2\n      swap1\n      tag_23\n      jump\t// in\n    tag_22:\n      mload(0x40)\n      dup1\n      swap2\n      sub\n      swap1\n      return\n        /* \"contracts/prop_test.sol\":2753:2847  function getnumOfProposals() public view returns(uint){\r... */\n    tag_5:\n      tag_24\n      tag_25\n      jump\t// in\n    tag_24:\n      mload(0x40)\n      tag_26\n      swap2\n      swap1\n      tag_27\n      jump\t// in\n    tag_26:\n      mload(0x40)\n      dup1\n      swap2\n      sub\n      swap1\n      return\n        /* \"contracts/prop_test.sol\":3056:3153  function getProposals() public view returns(Proposal[] memory){\r... */\n    tag_6:\n      tag_28\n      tag_29\n      jump\t// in\n    tag_28:\n      mload(0x40)\n      tag_30\n      swap2\n      swap1\n      tag_31\n      jump\t// in\n    tag_30:\n      mload(0x40)\n      dup1\n      swap2\n      sub\n      swap1\n      return\n        /* \"contracts/prop_test.sol\":3317:3401  function getStartDate() public view returns(uint){\r... */\n    tag_7:\n      tag_32\n      tag_33\n      jump\t// in\n    tag_32:\n      mload(0x40)\n      tag_34\n      swap2\n      swap1\n      tag_27\n      jump\t// in\n    tag_34:\n      mload(0x40)\n      dup1\n      swap2\n      sub\n      swap1\n      return\n        /* \"contracts/prop_test.sol\":2652:2745  function getCreatorBallot() public view returns(address){\r... */\n    tag_8:\n      tag_35\n      tag_36\n      jump\t// in\n    tag_35:\n      mload(0x40)\n      tag_37\n      swap2\n      swap1\n      tag_38\n      jump\t// in\n    tag_37:\n      mload(0x40)\n      dup1\n      swap2\n      sub\n      swap1\n      return\n        /* \"contracts/prop_test.sol\":901:1628  function createBallot(string[] memory proposalNames) public {\r... */\n    tag_9:\n      tag_39\n      0x04\n      dup1\n      calldatasize\n      sub\n      dup2\n      add\n      swap1\n      tag_40\n      swap2\n      swap1\n      tag_41\n      jump\t// in\n    tag_40:\n      tag_42\n      jump\t// in\n    tag_39:\n      stop\n        /* \"contracts/prop_test.sol\":1636:2218  function giveRightToVote(address voter) public {\r... */\n    tag_10:\n      tag_43\n      0x04\n      dup1\n      calldatasize\n      sub\n      dup2\n      add\n      swap1\n      tag_44\n      swap2\n      swap1\n      tag_45\n      jump\t// in\n    tag_44:\n      tag_46\n      jump\t// in\n    tag_43:\n      stop\n        /* \"contracts/prop_test.sol\":760:799  mapping(address => Voter) public voters */\n    tag_11:\n      tag_47\n      0x04\n      dup1\n      calldatasize\n      sub\n      dup2\n      add\n      swap1\n      tag_48\n      swap2\n      swap1\n      tag_45\n      jump\t// in\n    tag_48:\n      tag_49\n      jump\t// in\n    tag_47:\n      mload(0x40)\n      tag_50\n      swap5\n      swap4\n      swap3\n      swap2\n      swap1\n      tag_51\n      jump\t// in\n    tag_50:\n      mload(0x40)\n      dup1\n      swap2\n      sub\n      swap1\n      return\n        /* \"contracts/prop_test.sol\":3557:3637  function getEndDate() public view returns(uint){\r... */\n    tag_12:\n      tag_52\n      tag_53\n      jump\t// in\n    tag_52:\n      mload(0x40)\n      tag_54\n      swap2\n      swap1\n      tag_27\n      jump\t// in\n    tag_54:\n      mload(0x40)\n      dup1\n      swap2\n      sub\n      swap1\n      return\n        /* \"contracts/prop_test.sol\":2889:3021  function getProposalStructure(uint _proposalId) public view returns(Proposal memory){\r... */\n    tag_13:\n      tag_55\n      0x04\n      dup1\n      calldatasize\n      sub\n      dup2\n      add\n      swap1\n      tag_56\n      swap2\n      swap1\n      tag_17\n      jump\t// in\n    tag_56:\n      tag_57\n      jump\t// in\n    tag_55:\n      mload(0x40)\n      tag_58\n      swap2\n      swap1\n      tag_59\n      jump\t// in\n    tag_58:\n      mload(0x40)\n      dup1\n      swap2\n      sub\n      swap1\n      return\n        /* \"contracts/prop_test.sol\":2255:2644  function vote(uint proposal) public {\r... */\n    tag_18:\n        /* \"contracts/prop_test.sol\":2302:2322  Voter storage sender */\n      0x00\n        /* \"contracts/prop_test.sol\":2325:2331  voters */\n      0x04\n        /* \"contracts/prop_test.sol\":2325:2343  voters[msg.sender] */\n      0x00\n        /* \"contracts/prop_test.sol\":2332:2342  msg.sender */\n      caller\n        /* \"contracts/prop_test.sol\":2325:2343  voters[msg.sender] */\n      0xffffffffffffffffffffffffffffffffffffffff\n      and\n      0xffffffffffffffffffffffffffffffffffffffff\n      and\n      dup2\n      mstore\n      0x20\n      add\n      swap1\n      dup2\n      mstore\n      0x20\n      add\n      0x00\n      keccak256\n        /* \"contracts/prop_test.sol\":2302:2343  Voter storage sender = voters[msg.sender] */\n      swap1\n      pop\n        /* \"contracts/prop_test.sol\":2363:2369  sender */\n      dup1\n        /* \"contracts/prop_test.sol\":2363:2375  sender.voted */\n      0x01\n      add\n      0x00\n      swap1\n      sload\n      swap1\n      0x0100\n      exp\n      swap1\n      div\n      0xff\n      and\n        /* \"contracts/prop_test.sol\":2362:2375  !sender.voted */\n      iszero\n        /* \"contracts/prop_test.sol\":2354:2376  require(!sender.voted) */\n      tag_61\n      jumpi\n      0x00\n      dup1\n      revert\n    tag_61:\n        /* \"contracts/prop_test.sol\":2402:2406  true */\n      0x01\n        /* \"contracts/prop_test.sol\":2387:2393  sender */\n      dup2\n        /* \"contracts/prop_test.sol\":2387:2399  sender.voted */\n      0x01\n      add\n      0x00\n        /* \"contracts/prop_test.sol\":2387:2406  sender.voted = true */\n      0x0100\n      exp\n      dup2\n      sload\n      dup2\n      0xff\n      mul\n      not\n      and\n      swap1\n      dup4\n      iszero\n      iszero\n      mul\n      or\n      swap1\n      sstore\n      pop\n        /* \"contracts/prop_test.sol\":2431:2439  proposal */\n      dup2\n        /* \"contracts/prop_test.sol\":2417:2423  sender */\n      dup2\n        /* \"contracts/prop_test.sol\":2417:2428  sender.vote */\n      0x02\n      add\n        /* \"contracts/prop_test.sol\":2417:2439  sender.vote = proposal */\n      dup2\n      swap1\n      sstore\n      pop\n        /* \"contracts/prop_test.sol\":2623:2629  sender */\n      dup1\n        /* \"contracts/prop_test.sol\":2623:2636  sender.weight */\n      0x00\n      add\n      sload\n        /* \"contracts/prop_test.sol\":2590:2599  proposals */\n      0x05\n        /* \"contracts/prop_test.sol\":2600:2608  proposal */\n      dup4\n        /* \"contracts/prop_test.sol\":2590:2609  proposals[proposal] */\n      dup2\n      sload\n      dup2\n      lt\n      tag_62\n      jumpi\n      mstore(0x00, 0x4e487b7100000000000000000000000000000000000000000000000000000000)\n      mstore(0x04, 0x32)\n      revert(0x00, 0x24)\n    tag_62:\n      swap1\n      0x00\n      mstore\n      keccak256(0x00, 0x20)\n      swap1\n      0x02\n      mul\n      add\n        /* \"contracts/prop_test.sol\":2590:2619  proposals[proposal].voteCount */\n      0x01\n      add\n      0x00\n        /* \"contracts/prop_test.sol\":2590:2636  proposals[proposal].voteCount += sender.weight */\n      dup3\n      dup3\n      sload\n      tag_64\n      swap2\n      swap1\n      tag_65\n      jump\t// in\n    tag_64:\n      swap3\n      pop\n      pop\n      dup2\n      swap1\n      sstore\n      pop\n        /* \"contracts/prop_test.sol\":2255:2644  function vote(uint proposal) public {\r... */\n      pop\n      pop\n      jump\t// out\n        /* \"contracts/prop_test.sol\":865:892  Proposal[] public proposals */\n    tag_21:\n      0x05\n      dup2\n      dup2\n      sload\n      dup2\n      lt\n      tag_66\n      jumpi\n      0x00\n      dup1\n      revert\n    tag_66:\n      swap1\n      0x00\n      mstore\n      keccak256(0x00, 0x20)\n      swap1\n      0x02\n      mul\n      add\n      0x00\n      swap2\n      pop\n      swap1\n      pop\n      dup1\n      0x00\n      add\n      dup1\n      sload\n      tag_68\n      swap1\n      tag_69\n      jump\t// in\n    tag_68:\n      dup1\n      0x1f\n      add\n      0x20\n      dup1\n      swap2\n      div\n      mul\n      0x20\n      add\n      mload(0x40)\n      swap1\n      dup2\n      add\n      0x40\n      mstore\n      dup1\n      swap3\n      swap2\n      swap1\n      dup2\n      dup2\n      mstore\n      0x20\n      add\n      dup3\n      dup1\n      sload\n      tag_70\n      swap1\n      tag_69\n      jump\t// in\n    tag_70:\n      dup1\n      iszero\n      tag_71\n      jumpi\n      dup1\n      0x1f\n      lt\n      tag_72\n      jumpi\n      0x0100\n      dup1\n      dup4\n      sload\n      div\n      mul\n      dup4\n      mstore\n      swap2\n      0x20\n      add\n      swap2\n      jump(tag_71)\n    tag_72:\n      dup3\n      add\n      swap2\n      swap1\n      0x00\n      mstore\n      keccak256(0x00, 0x20)\n      swap1\n    tag_73:\n      dup2\n      sload\n      dup2\n      mstore\n      swap1\n      0x01\n      add\n      swap1\n      0x20\n      add\n      dup1\n      dup4\n      gt\n      tag_73\n      jumpi\n      dup3\n      swap1\n      sub\n      0x1f\n      and\n      dup3\n      add\n      swap2\n    tag_71:\n      pop\n      pop\n      pop\n      pop\n      pop\n      swap1\n      dup1\n      0x01\n      add\n      sload\n      swap1\n      pop\n      dup3\n      jump\t// out\n        /* \"contracts/prop_test.sol\":2753:2847  function getnumOfProposals() public view returns(uint){\r... */\n    tag_25:\n        /* \"contracts/prop_test.sol\":2802:2806  uint */\n      0x00\n        /* \"contracts/prop_test.sol\":2825:2839  numOfProposals */\n      sload(0x03)\n        /* \"contracts/prop_test.sol\":2818:2839  return numOfProposals */\n      swap1\n      pop\n        /* \"contracts/prop_test.sol\":2753:2847  function getnumOfProposals() public view returns(uint){\r... */\n      swap1\n      jump\t// out\n        /* \"contracts/prop_test.sol\":3056:3153  function getProposals() public view returns(Proposal[] memory){\r... */\n    tag_29:\n        /* \"contracts/prop_test.sol\":3100:3117  Proposal[] memory */\n      0x60\n        /* \"contracts/prop_test.sol\":3136:3145  proposals */\n      0x05\n        /* \"contracts/prop_test.sol\":3129:3145  return proposals */\n      dup1\n      sload\n      dup1\n      0x20\n      mul\n      0x20\n      add\n      mload(0x40)\n      swap1\n      dup2\n      add\n      0x40\n      mstore\n      dup1\n      swap3\n      swap2\n      swap1\n      dup2\n      dup2\n      mstore\n      0x20\n      add\n      0x00\n      swap1\n    tag_76:\n      dup3\n      dup3\n      lt\n      iszero\n      tag_77\n      jumpi\n      dup4\n      dup3\n      swap1\n      0x00\n      mstore\n      keccak256(0x00, 0x20)\n      swap1\n      0x02\n      mul\n      add\n      mload(0x40)\n      dup1\n      0x40\n      add\n      0x40\n      mstore\n      swap1\n      dup2\n      0x00\n      dup3\n      add\n      dup1\n      sload\n      tag_79\n      swap1\n      tag_69\n      jump\t// in\n    tag_79:\n      dup1\n      0x1f\n      add\n      0x20\n      dup1\n      swap2\n      div\n      mul\n      0x20\n      add\n      mload(0x40)\n      swap1\n      dup2\n      add\n      0x40\n      mstore\n      dup1\n      swap3\n      swap2\n      swap1\n      dup2\n      dup2\n      mstore\n      0x20\n      add\n      dup3\n      dup1\n      sload\n      tag_80\n      swap1\n      tag_69\n      jump\t// in\n    tag_80:\n      dup1\n      iszero\n      tag_81\n      jumpi\n      dup1\n      0x1f\n      lt\n      tag_82\n      jumpi\n      0x0100\n      dup1\n      dup4\n      sload\n      div\n      mul\n      dup4\n      mstore\n      swap2\n      0x20\n      add\n      swap2\n      jump(tag_81)\n    tag_82:\n      dup3\n      add\n      swap2\n      swap1\n      0x00\n      mstore\n      keccak256(0x00, 0x20)\n      swap1\n    tag_83:\n      dup2\n      sload\n      dup2\n      mstore\n      swap1\n      0x01\n      add\n      swap1\n      0x20\n      add\n      dup1\n      dup4\n      gt\n      tag_83\n      jumpi\n      dup3\n      swap1\n      sub\n      0x1f\n      and\n      dup3\n      add\n      swap2\n    tag_81:\n      pop\n      pop\n      pop\n      pop\n      pop\n      dup2\n      mstore\n      0x20\n      add\n      0x01\n      dup3\n      add\n      sload\n      dup2\n      mstore\n      pop\n      pop\n      dup2\n      mstore\n      0x20\n      add\n      swap1\n      0x01\n      add\n      swap1\n      jump(tag_76)\n    tag_77:\n      pop\n      pop\n      pop\n      pop\n      swap1\n      pop\n        /* \"contracts/prop_test.sol\":3056:3153  function getProposals() public view returns(Proposal[] memory){\r... */\n      swap1\n      jump\t// out\n        /* \"contracts/prop_test.sol\":3317:3401  function getStartDate() public view returns(uint){\r... */\n    tag_33:\n        /* \"contracts/prop_test.sol\":3361:3365  uint */\n      0x00\n        /* \"contracts/prop_test.sol\":3384:3393  startDate */\n      sload(0x01)\n        /* \"contracts/prop_test.sol\":3377:3393  return startDate */\n      swap1\n      pop\n        /* \"contracts/prop_test.sol\":3317:3401  function getStartDate() public view returns(uint){\r... */\n      swap1\n      jump\t// out\n        /* \"contracts/prop_test.sol\":2652:2745  function getCreatorBallot() public view returns(address){\r... */\n    tag_36:\n        /* \"contracts/prop_test.sol\":2700:2707  address */\n      0x00\n        /* \"contracts/prop_test.sol\":2726:2737  chairperson */\n      dup1\n      0x00\n      swap1\n      sload\n      swap1\n      0x0100\n      exp\n      swap1\n      div\n      0xffffffffffffffffffffffffffffffffffffffff\n      and\n        /* \"contracts/prop_test.sol\":2719:2737  return chairperson */\n      swap1\n      pop\n        /* \"contracts/prop_test.sol\":2652:2745  function getCreatorBallot() public view returns(address){\r... */\n      swap1\n      jump\t// out\n        /* \"contracts/prop_test.sol\":901:1628  function createBallot(string[] memory proposalNames) public {\r... */\n    tag_42:\n        /* \"contracts/prop_test.sol\":986:996  msg.sender */\n      caller\n        /* \"contracts/prop_test.sol\":972:983  chairperson */\n      0x00\n      dup1\n        /* \"contracts/prop_test.sol\":972:996  chairperson = msg.sender */\n      0x0100\n      exp\n      dup2\n      sload\n      dup2\n      0xffffffffffffffffffffffffffffffffffffffff\n      mul\n      not\n      and\n      swap1\n      dup4\n      0xffffffffffffffffffffffffffffffffffffffff\n      and\n      mul\n      or\n      swap1\n      sstore\n      pop\n        /* \"contracts/prop_test.sol\":1036:1037  1 */\n      0x01\n        /* \"contracts/prop_test.sol\":1007:1013  voters */\n      0x04\n        /* \"contracts/prop_test.sol\":1007:1026  voters[chairperson] */\n      0x00\n        /* \"contracts/prop_test.sol\":1014:1025  chairperson */\n      dup1\n      0x00\n      swap1\n      sload\n      swap1\n      0x0100\n      exp\n      swap1\n      div\n      0xffffffffffffffffffffffffffffffffffffffff\n      and\n        /* \"contracts/prop_test.sol\":1007:1026  voters[chairperson] */\n      0xffffffffffffffffffffffffffffffffffffffff\n      and\n      0xffffffffffffffffffffffffffffffffffffffff\n      and\n      dup2\n      mstore\n      0x20\n      add\n      swap1\n      dup2\n      mstore\n      0x20\n      add\n      0x00\n      keccak256\n        /* \"contracts/prop_test.sol\":1007:1033  voters[chairperson].weight */\n      0x00\n      add\n        /* \"contracts/prop_test.sol\":1007:1037  voters[chairperson].weight = 1 */\n      dup2\n      swap1\n      sstore\n      pop\n        /* \"contracts/prop_test.sol\":1050:1064  setStartDate() */\n      tag_87\n        /* \"contracts/prop_test.sol\":1050:1062  setStartDate */\n      tag_88\n        /* \"contracts/prop_test.sol\":1050:1064  setStartDate() */\n      jump\t// in\n    tag_87:\n        /* \"contracts/prop_test.sol\":1092:1105  proposalNames */\n      dup1\n        /* \"contracts/prop_test.sol\":1092:1112  proposalNames.length */\n      mload\n        /* \"contracts/prop_test.sol\":1075:1089  numOfProposals */\n      0x03\n        /* \"contracts/prop_test.sol\":1075:1112  numOfProposals = proposalNames.length */\n      dup2\n      swap1\n      sstore\n      pop\n        /* \"contracts/prop_test.sol\":1272:1278  uint i */\n      0x00\n        /* \"contracts/prop_test.sol\":1267:1621  for (uint i = 0; i < proposalNames.length; i++) {\r... */\n    tag_89:\n        /* \"contracts/prop_test.sol\":1288:1301  proposalNames */\n      dup2\n        /* \"contracts/prop_test.sol\":1288:1308  proposalNames.length */\n      mload\n        /* \"contracts/prop_test.sol\":1284:1285  i */\n      dup2\n        /* \"contracts/prop_test.sol\":1284:1308  i < proposalNames.length */\n      lt\n        /* \"contracts/prop_test.sol\":1267:1621  for (uint i = 0; i < proposalNames.length; i++) {\r... */\n      iszero\n      tag_90\n      jumpi\n        /* \"contracts/prop_test.sol\":1496:1505  proposals */\n      0x05\n        /* \"contracts/prop_test.sol\":1511:1608  Proposal({\r... */\n      mload(0x40)\n      dup1\n      0x40\n      add\n      0x40\n      mstore\n      dup1\n        /* \"contracts/prop_test.sol\":1545:1558  proposalNames */\n      dup5\n        /* \"contracts/prop_test.sol\":1559:1560  i */\n      dup5\n        /* \"contracts/prop_test.sol\":1545:1561  proposalNames[i] */\n      dup2\n      mload\n      dup2\n      lt\n      tag_92\n      jumpi\n      mstore(0x00, 0x4e487b7100000000000000000000000000000000000000000000000000000000)\n      mstore(0x04, 0x32)\n      revert(0x00, 0x24)\n    tag_92:\n      0x20\n      mul\n      0x20\n      add\n      add\n      mload\n        /* \"contracts/prop_test.sol\":1511:1608  Proposal({\r... */\n      dup2\n      mstore\n      0x20\n      add\n        /* \"contracts/prop_test.sol\":1591:1592  0 */\n      0x00\n        /* \"contracts/prop_test.sol\":1511:1608  Proposal({\r... */\n      dup2\n      mstore\n      pop\n        /* \"contracts/prop_test.sol\":1496:1609  proposals.push(Proposal({\r... */\n      swap1\n      dup1\n      0x01\n      dup2\n      sload\n      add\n      dup1\n      dup3\n      sstore\n      dup1\n      swap2\n      pop\n      pop\n      0x01\n      swap1\n      sub\n      swap1\n      0x00\n      mstore\n      keccak256(0x00, 0x20)\n      swap1\n      0x02\n      mul\n      add\n      0x00\n      swap1\n      swap2\n      swap1\n      swap2\n      swap1\n      swap2\n      pop\n      0x00\n      dup3\n      add\n      mload\n      dup2\n      0x00\n      add\n      swap1\n      dup1\n      mload\n      swap1\n      0x20\n      add\n      swap1\n      tag_94\n      swap3\n      swap2\n      swap1\n      tag_95\n      jump\t// in\n    tag_94:\n      pop\n      0x20\n      dup3\n      add\n      mload\n      dup2\n      0x01\n      add\n      sstore\n      pop\n      pop\n        /* \"contracts/prop_test.sol\":1310:1313  i++ */\n      dup1\n      dup1\n      tag_96\n      swap1\n      tag_97\n      jump\t// in\n    tag_96:\n      swap2\n      pop\n      pop\n        /* \"contracts/prop_test.sol\":1267:1621  for (uint i = 0; i < proposalNames.length; i++) {\r... */\n      jump(tag_89)\n    tag_90:\n      pop\n        /* \"contracts/prop_test.sol\":901:1628  function createBallot(string[] memory proposalNames) public {\r... */\n      pop\n      jump\t// out\n        /* \"contracts/prop_test.sol\":1636:2218  function giveRightToVote(address voter) public {\r... */\n    tag_46:\n        /* \"contracts/prop_test.sol\":2107:2118  chairperson */\n      0x00\n      dup1\n      sload\n      swap1\n      0x0100\n      exp\n      swap1\n      div\n      0xffffffffffffffffffffffffffffffffffffffff\n      and\n        /* \"contracts/prop_test.sol\":2093:2118  msg.sender == chairperson */\n      0xffffffffffffffffffffffffffffffffffffffff\n      and\n        /* \"contracts/prop_test.sol\":2093:2103  msg.sender */\n      caller\n        /* \"contracts/prop_test.sol\":2093:2118  msg.sender == chairperson */\n      0xffffffffffffffffffffffffffffffffffffffff\n      and\n      eq\n        /* \"contracts/prop_test.sol\":2092:2143  (msg.sender == chairperson) && !voters[voter].voted */\n      dup1\n      iszero\n      tag_99\n      jumpi\n      pop\n        /* \"contracts/prop_test.sol\":2124:2130  voters */\n      0x04\n        /* \"contracts/prop_test.sol\":2124:2137  voters[voter] */\n      0x00\n        /* \"contracts/prop_test.sol\":2131:2136  voter */\n      dup3\n        /* \"contracts/prop_test.sol\":2124:2137  voters[voter] */\n      0xffffffffffffffffffffffffffffffffffffffff\n      and\n      0xffffffffffffffffffffffffffffffffffffffff\n      and\n      dup2\n      mstore\n      0x20\n      add\n      swap1\n      dup2\n      mstore\n      0x20\n      add\n      0x00\n      keccak256\n        /* \"contracts/prop_test.sol\":2124:2143  voters[voter].voted */\n      0x01\n      add\n      0x00\n      swap1\n      sload\n      swap1\n      0x0100\n      exp\n      swap1\n      div\n      0xff\n      and\n        /* \"contracts/prop_test.sol\":2123:2143  !voters[voter].voted */\n      iszero\n        /* \"contracts/prop_test.sol\":2092:2143  (msg.sender == chairperson) && !voters[voter].voted */\n    tag_99:\n        /* \"contracts/prop_test.sol\":2092:2174  (msg.sender == chairperson) && !voters[voter].voted && (voters[voter].weight == 0) */\n      dup1\n      iszero\n      tag_100\n      jumpi\n      pop\n        /* \"contracts/prop_test.sol\":2172:2173  0 */\n      0x00\n        /* \"contracts/prop_test.sol\":2148:2154  voters */\n      0x04\n        /* \"contracts/prop_test.sol\":2148:2161  voters[voter] */\n      0x00\n        /* \"contracts/prop_test.sol\":2155:2160  voter */\n      dup4\n        /* \"contracts/prop_test.sol\":2148:2161  voters[voter] */\n      0xffffffffffffffffffffffffffffffffffffffff\n      and\n      0xffffffffffffffffffffffffffffffffffffffff\n      and\n      dup2\n      mstore\n      0x20\n      add\n      swap1\n      dup2\n      mstore\n      0x20\n      add\n      0x00\n      keccak256\n        /* \"contracts/prop_test.sol\":2148:2168  voters[voter].weight */\n      0x00\n      add\n      sload\n        /* \"contracts/prop_test.sol\":2148:2173  voters[voter].weight == 0 */\n      eq\n        /* \"contracts/prop_test.sol\":2092:2174  (msg.sender == chairperson) && !voters[voter].voted && (voters[voter].weight == 0) */\n    tag_100:\n        /* \"contracts/prop_test.sol\":2084:2175  require((msg.sender == chairperson) && !voters[voter].voted && (voters[voter].weight == 0)) */\n      tag_101\n      jumpi\n      0x00\n      dup1\n      revert\n    tag_101:\n        /* \"contracts/prop_test.sol\":2209:2210  1 */\n      0x01\n        /* \"contracts/prop_test.sol\":2186:2192  voters */\n      0x04\n        /* \"contracts/prop_test.sol\":2186:2199  voters[voter] */\n      0x00\n        /* \"contracts/prop_test.sol\":2193:2198  voter */\n      dup4\n        /* \"contracts/prop_test.sol\":2186:2199  voters[voter] */\n      0xffffffffffffffffffffffffffffffffffffffff\n      and\n      0xffffffffffffffffffffffffffffffffffffffff\n      and\n      dup2\n      mstore\n      0x20\n      add\n      swap1\n      dup2\n      mstore\n      0x20\n      add\n      0x00\n      keccak256\n        /* \"contracts/prop_test.sol\":2186:2206  voters[voter].weight */\n      0x00\n      add\n        /* \"contracts/prop_test.sol\":2186:2210  voters[voter].weight = 1 */\n      dup2\n      swap1\n      sstore\n      pop\n        /* \"contracts/prop_test.sol\":1636:2218  function giveRightToVote(address voter) public {\r... */\n      pop\n      jump\t// out\n        /* \"contracts/prop_test.sol\":760:799  mapping(address => Voter) public voters */\n    tag_49:\n      mstore(0x20, 0x04)\n      dup1\n      0x00\n      mstore\n      keccak256(0x00, 0x40)\n      0x00\n      swap2\n      pop\n      swap1\n      pop\n      dup1\n      0x00\n      add\n      sload\n      swap1\n      dup1\n      0x01\n      add\n      0x00\n      swap1\n      sload\n      swap1\n      0x0100\n      exp\n      swap1\n      div\n      0xff\n      and\n      swap1\n      dup1\n      0x01\n      add\n      0x01\n      swap1\n      sload\n      swap1\n      0x0100\n      exp\n      swap1\n      div\n      0xffffffffffffffffffffffffffffffffffffffff\n      and\n      swap1\n      dup1\n      0x02\n      add\n      sload\n      swap1\n      pop\n      dup5\n      jump\t// out\n        /* \"contracts/prop_test.sol\":3557:3637  function getEndDate() public view returns(uint){\r... */\n    tag_53:\n        /* \"contracts/prop_test.sol\":3599:3603  uint */\n      0x00\n        /* \"contracts/prop_test.sol\":3622:3629  endDate */\n      sload(0x02)\n        /* \"contracts/prop_test.sol\":3615:3629  return endDate */\n      swap1\n      pop\n        /* \"contracts/prop_test.sol\":3557:3637  function getEndDate() public view returns(uint){\r... */\n      swap1\n      jump\t// out\n        /* \"contracts/prop_test.sol\":2889:3021  function getProposalStructure(uint _proposalId) public view returns(Proposal memory){\r... */\n    tag_57:\n        /* \"contracts/prop_test.sol\":2957:2972  Proposal memory */\n      tag_103\n      tag_104\n      jump\t// in\n    tag_103:\n        /* \"contracts/prop_test.sol\":2991:3000  proposals */\n      0x05\n        /* \"contracts/prop_test.sol\":3001:3012  _proposalId */\n      dup3\n        /* \"contracts/prop_test.sol\":2991:3013  proposals[_proposalId] */\n      dup2\n      sload\n      dup2\n      lt\n      tag_106\n      jumpi\n      mstore(0x00, 0x4e487b7100000000000000000000000000000000000000000000000000000000)\n      mstore(0x04, 0x32)\n      revert(0x00, 0x24)\n    tag_106:\n      swap1\n      0x00\n      mstore\n      keccak256(0x00, 0x20)\n      swap1\n      0x02\n      mul\n      add\n        /* \"contracts/prop_test.sol\":2984:3013  return proposals[_proposalId] */\n      mload(0x40)\n      dup1\n      0x40\n      add\n      0x40\n      mstore\n      swap1\n      dup2\n      0x00\n      dup3\n      add\n      dup1\n      sload\n      tag_108\n      swap1\n      tag_69\n      jump\t// in\n    tag_108:\n      dup1\n      0x1f\n      add\n      0x20\n      dup1\n      swap2\n      div\n      mul\n      0x20\n      add\n      mload(0x40)\n      swap1\n      dup2\n      add\n      0x40\n      mstore\n      dup1\n      swap3\n      swap2\n      swap1\n      dup2\n      dup2\n      mstore\n      0x20\n      add\n      dup3\n      dup1\n      sload\n      tag_109\n      swap1\n      tag_69\n      jump\t// in\n    tag_109:\n      dup1\n      iszero\n      tag_110\n      jumpi\n      dup1\n      0x1f\n      lt\n      tag_111\n      jumpi\n      0x0100\n      dup1\n      dup4\n      sload\n      div\n      mul\n      dup4\n      mstore\n      swap2\n      0x20\n      add\n      swap2\n      jump(tag_110)\n    tag_111:\n      dup3\n      add\n      swap2\n      swap1\n      0x00\n      mstore\n      keccak256(0x00, 0x20)\n      swap1\n    tag_112:\n      dup2\n      sload\n      dup2\n      mstore\n      swap1\n      0x01\n      add\n      swap1\n      0x20\n      add\n      dup1\n      dup4\n      gt\n      tag_112\n      jumpi\n      dup3\n      swap1\n      sub\n      0x1f\n      and\n      dup3\n      add\n      swap2\n    tag_110:\n      pop\n      pop\n      pop\n      pop\n      pop\n      dup2\n      mstore\n      0x20\n      add\n      0x01\n      dup3\n      add\n      sload\n      dup2\n      mstore\n      pop\n      pop\n      swap1\n      pop\n        /* \"contracts/prop_test.sol\":2889:3021  function getProposalStructure(uint _proposalId) public view returns(Proposal memory){\r... */\n      swap2\n      swap1\n      pop\n      jump\t// out\n        /* \"contracts/prop_test.sol\":3197:3275  function setStartDate() internal{\r... */\n    tag_88:\n        /* \"contracts/prop_test.sol\":3252:3267  block.timestamp */\n      timestamp\n        /* \"contracts/prop_test.sol\":3240:3249  startDate */\n      0x01\n        /* \"contracts/prop_test.sol\":3240:3267  startDate = block.timestamp */\n      dup2\n      swap1\n      sstore\n      pop\n        /* \"contracts/prop_test.sol\":3197:3275  function setStartDate() internal{\r... */\n      jump\t// out\n    tag_95:\n      dup3\n      dup1\n      sload\n      tag_114\n      swap1\n      tag_69\n      jump\t// in\n    tag_114:\n      swap1\n      0x00\n      mstore\n      keccak256(0x00, 0x20)\n      swap1\n      0x1f\n      add\n      0x20\n      swap1\n      div\n      dup2\n      add\n      swap3\n      dup3\n      tag_116\n      jumpi\n      0x00\n      dup6\n      sstore\n      jump(tag_115)\n    tag_116:\n      dup3\n      0x1f\n      lt\n      tag_117\n      jumpi\n      dup1\n      mload\n      not(0xff)\n      and\n      dup4\n      dup1\n      add\n      or\n      dup6\n      sstore\n      jump(tag_115)\n    tag_117:\n      dup3\n      dup1\n      add\n      0x01\n      add\n      dup6\n      sstore\n      dup3\n      iszero\n      tag_115\n      jumpi\n      swap2\n      dup3\n      add\n    tag_118:\n      dup3\n      dup2\n      gt\n      iszero\n      tag_119\n      jumpi\n      dup3\n      mload\n      dup3\n      sstore\n      swap2\n      0x20\n      add\n      swap2\n      swap1\n      0x01\n      add\n      swap1\n      jump(tag_118)\n    tag_119:\n    tag_115:\n      pop\n      swap1\n      pop\n      tag_120\n      swap2\n      swap1\n      tag_121\n      jump\t// in\n    tag_120:\n      pop\n      swap1\n      jump\t// out\n    tag_104:\n      mload(0x40)\n      dup1\n      0x40\n      add\n      0x40\n      mstore\n      dup1\n      0x60\n      dup2\n      mstore\n      0x20\n      add\n      0x00\n      dup2\n      mstore\n      pop\n      swap1\n      jump\t// out\n    tag_121:\n    tag_122:\n      dup1\n      dup3\n      gt\n      iszero\n      tag_123\n      jumpi\n      0x00\n      dup2\n      0x00\n      swap1\n      sstore\n      pop\n      0x01\n      add\n      jump(tag_122)\n    tag_123:\n      pop\n      swap1\n      jump\t// out\n        /* \"#utility.yul\":23:638   */\n    tag_125:\n      0x00\n        /* \"#utility.yul\":154:244   */\n      tag_127\n        /* \"#utility.yul\":169:243   */\n      tag_128\n        /* \"#utility.yul\":236:242   */\n      dup5\n        /* \"#utility.yul\":169:243   */\n      tag_129\n      jump\t// in\n    tag_128:\n        /* \"#utility.yul\":154:244   */\n      tag_130\n      jump\t// in\n    tag_127:\n        /* \"#utility.yul\":145:244   */\n      swap1\n      pop\n        /* \"#utility.yul\":264:269   */\n      dup1\n        /* \"#utility.yul\":292:298   */\n      dup4\n        /* \"#utility.yul\":285:290   */\n      dup3\n        /* \"#utility.yul\":278:299   */\n      mstore\n        /* \"#utility.yul\":318:322   */\n      0x20\n        /* \"#utility.yul\":311:316   */\n      dup3\n        /* \"#utility.yul\":307:323   */\n      add\n        /* \"#utility.yul\":300:323   */\n      swap1\n      pop\n        /* \"#utility.yul\":343:349   */\n      dup3\n        /* \"#utility.yul\":374:375   */\n      0x00\n        /* \"#utility.yul\":359:632   */\n    tag_131:\n        /* \"#utility.yul\":384:390   */\n      dup6\n        /* \"#utility.yul\":381:382   */\n      dup2\n        /* \"#utility.yul\":378:391   */\n      lt\n        /* \"#utility.yul\":359:632   */\n      iszero\n      tag_133\n      jumpi\n        /* \"#utility.yul\":476:479   */\n      dup2\n        /* \"#utility.yul\":463:480   */\n      calldataload\n        /* \"#utility.yul\":455:461   */\n      dup6\n        /* \"#utility.yul\":451:481   */\n      add\n        /* \"#utility.yul\":506:553   */\n      tag_134\n        /* \"#utility.yul\":549:552   */\n      dup9\n        /* \"#utility.yul\":537:547   */\n      dup3\n        /* \"#utility.yul\":506:553   */\n      tag_135\n      jump\t// in\n    tag_134:\n        /* \"#utility.yul\":501:504   */\n      dup5\n        /* \"#utility.yul\":494:554   */\n      mstore\n        /* \"#utility.yul\":583:587   */\n      0x20\n        /* \"#utility.yul\":578:581   */\n      dup5\n        /* \"#utility.yul\":574:588   */\n      add\n        /* \"#utility.yul\":567:588   */\n      swap4\n      pop\n        /* \"#utility.yul\":617:621   */\n      0x20\n        /* \"#utility.yul\":612:615   */\n      dup4\n        /* \"#utility.yul\":608:622   */\n      add\n        /* \"#utility.yul\":601:622   */\n      swap3\n      pop\n        /* \"#utility.yul\":419:632   */\n      pop\n        /* \"#utility.yul\":406:407   */\n      0x01\n        /* \"#utility.yul\":403:404   */\n      dup2\n        /* \"#utility.yul\":399:408   */\n      add\n        /* \"#utility.yul\":394:408   */\n      swap1\n      pop\n        /* \"#utility.yul\":359:632   */\n      jump(tag_131)\n    tag_133:\n        /* \"#utility.yul\":363:377   */\n      pop\n        /* \"#utility.yul\":135:638   */\n      pop\n      pop\n      swap4\n      swap3\n      pop\n      pop\n      pop\n      jump\t// out\n        /* \"#utility.yul\":644:988   */\n    tag_136:\n      0x00\n        /* \"#utility.yul\":747:812   */\n      tag_138\n        /* \"#utility.yul\":762:811   */\n      tag_139\n        /* \"#utility.yul\":804:810   */\n      dup5\n        /* \"#utility.yul\":762:811   */\n      tag_140\n      jump\t// in\n    tag_139:\n        /* \"#utility.yul\":747:812   */\n      tag_130\n      jump\t// in\n    tag_138:\n        /* \"#utility.yul\":738:812   */\n      swap1\n      pop\n        /* \"#utility.yul\":835:841   */\n      dup3\n        /* \"#utility.yul\":828:833   */\n      dup2\n        /* \"#utility.yul\":821:842   */\n      mstore\n        /* \"#utility.yul\":873:877   */\n      0x20\n        /* \"#utility.yul\":866:871   */\n      dup2\n        /* \"#utility.yul\":862:878   */\n      add\n        /* \"#utility.yul\":911:914   */\n      dup5\n        /* \"#utility.yul\":902:908   */\n      dup5\n        /* \"#utility.yul\":897:900   */\n      dup5\n        /* \"#utility.yul\":893:909   */\n      add\n        /* \"#utility.yul\":890:915   */\n      gt\n        /* \"#utility.yul\":887:889   */\n      iszero\n      tag_141\n      jumpi\n        /* \"#utility.yul\":928:929   */\n      0x00\n        /* \"#utility.yul\":925:926   */\n      dup1\n        /* \"#utility.yul\":918:930   */\n      revert\n        /* \"#utility.yul\":887:889   */\n    tag_141:\n        /* \"#utility.yul\":941:982   */\n      tag_142\n        /* \"#utility.yul\":975:981   */\n      dup5\n        /* \"#utility.yul\":970:973   */\n      dup3\n        /* \"#utility.yul\":965:968   */\n      dup6\n        /* \"#utility.yul\":941:982   */\n      tag_143\n      jump\t// in\n    tag_142:\n        /* \"#utility.yul\":728:988   */\n      pop\n      swap4\n      swap3\n      pop\n      pop\n      pop\n      jump\t// out\n        /* \"#utility.yul\":994:1133   */\n    tag_144:\n      0x00\n        /* \"#utility.yul\":1078:1084   */\n      dup2\n        /* \"#utility.yul\":1065:1085   */\n      calldataload\n        /* \"#utility.yul\":1056:1085   */\n      swap1\n      pop\n        /* \"#utility.yul\":1094:1127   */\n      tag_146\n        /* \"#utility.yul\":1121:1126   */\n      dup2\n        /* \"#utility.yul\":1094:1127   */\n      tag_147\n      jump\t// in\n    tag_146:\n        /* \"#utility.yul\":1046:1133   */\n      swap3\n      swap2\n      pop\n      pop\n      jump\t// out\n        /* \"#utility.yul\":1155:1478   */\n    tag_148:\n      0x00\n        /* \"#utility.yul\":1285:1288   */\n      dup3\n        /* \"#utility.yul\":1278:1282   */\n      0x1f\n        /* \"#utility.yul\":1270:1276   */\n      dup4\n        /* \"#utility.yul\":1266:1283   */\n      add\n        /* \"#utility.yul\":1262:1289   */\n      slt\n        /* \"#utility.yul\":1252:1254   */\n      tag_150\n      jumpi\n        /* \"#utility.yul\":1303:1304   */\n      0x00\n        /* \"#utility.yul\":1300:1301   */\n      dup1\n        /* \"#utility.yul\":1293:1305   */\n      revert\n        /* \"#utility.yul\":1252:1254   */\n    tag_150:\n        /* \"#utility.yul\":1343:1349   */\n      dup2\n        /* \"#utility.yul\":1330:1350   */\n      calldataload\n        /* \"#utility.yul\":1368:1472   */\n      tag_151\n        /* \"#utility.yul\":1468:1471   */\n      dup5\n        /* \"#utility.yul\":1460:1466   */\n      dup3\n        /* \"#utility.yul\":1453:1457   */\n      0x20\n        /* \"#utility.yul\":1445:1451   */\n      dup7\n        /* \"#utility.yul\":1441:1458   */\n      add\n        /* \"#utility.yul\":1368:1472   */\n      tag_125\n      jump\t// in\n    tag_151:\n        /* \"#utility.yul\":1359:1472   */\n      swap2\n      pop\n        /* \"#utility.yul\":1242:1478   */\n      pop\n      swap3\n      swap2\n      pop\n      pop\n      jump\t// out\n        /* \"#utility.yul\":1498:1771   */\n    tag_135:\n      0x00\n        /* \"#utility.yul\":1603:1606   */\n      dup3\n        /* \"#utility.yul\":1596:1600   */\n      0x1f\n        /* \"#utility.yul\":1588:1594   */\n      dup4\n        /* \"#utility.yul\":1584:1601   */\n      add\n        /* \"#utility.yul\":1580:1607   */\n      slt\n        /* \"#utility.yul\":1570:1572   */\n      tag_153\n      jumpi\n        /* \"#utility.yul\":1621:1622   */\n      0x00\n        /* \"#utility.yul\":1618:1619   */\n      dup1\n        /* \"#utility.yul\":1611:1623   */\n      revert\n        /* \"#utility.yul\":1570:1572   */\n    tag_153:\n        /* \"#utility.yul\":1661:1667   */\n      dup2\n        /* \"#utility.yul\":1648:1668   */\n      calldataload\n        /* \"#utility.yul\":1686:1765   */\n      tag_154\n        /* \"#utility.yul\":1761:1764   */\n      dup5\n        /* \"#utility.yul\":1753:1759   */\n      dup3\n        /* \"#utility.yul\":1746:1750   */\n      0x20\n        /* \"#utility.yul\":1738:1744   */\n      dup7\n        /* \"#utility.yul\":1734:1751   */\n      add\n        /* \"#utility.yul\":1686:1765   */\n      tag_136\n      jump\t// in\n    tag_154:\n        /* \"#utility.yul\":1677:1765   */\n      swap2\n      pop\n        /* \"#utility.yul\":1560:1771   */\n      pop\n      swap3\n      swap2\n      pop\n      pop\n      jump\t// out\n        /* \"#utility.yul\":1777:1916   */\n    tag_155:\n      0x00\n        /* \"#utility.yul\":1861:1867   */\n      dup2\n        /* \"#utility.yul\":1848:1868   */\n      calldataload\n        /* \"#utility.yul\":1839:1868   */\n      swap1\n      pop\n        /* \"#utility.yul\":1877:1910   */\n      tag_157\n        /* \"#utility.yul\":1904:1909   */\n      dup2\n        /* \"#utility.yul\":1877:1910   */\n      tag_158\n      jump\t// in\n    tag_157:\n        /* \"#utility.yul\":1829:1916   */\n      swap3\n      swap2\n      pop\n      pop\n      jump\t// out\n        /* \"#utility.yul\":1922:2184   */\n    tag_45:\n      0x00\n        /* \"#utility.yul\":2030:2032   */\n      0x20\n        /* \"#utility.yul\":2018:2027   */\n      dup3\n        /* \"#utility.yul\":2009:2016   */\n      dup5\n        /* \"#utility.yul\":2005:2028   */\n      sub\n        /* \"#utility.yul\":2001:2033   */\n      slt\n        /* \"#utility.yul\":1998:2000   */\n      iszero\n      tag_160\n      jumpi\n        /* \"#utility.yul\":2046:2047   */\n      0x00\n        /* \"#utility.yul\":2043:2044   */\n      dup1\n        /* \"#utility.yul\":2036:2048   */\n      revert\n        /* \"#utility.yul\":1998:2000   */\n    tag_160:\n        /* \"#utility.yul\":2089:2090   */\n      0x00\n        /* \"#utility.yul\":2114:2167   */\n      tag_161\n        /* \"#utility.yul\":2159:2166   */\n      dup5\n        /* \"#utility.yul\":2150:2156   */\n      dup3\n        /* \"#utility.yul\":2139:2148   */\n      dup6\n        /* \"#utility.yul\":2135:2157   */\n      add\n        /* \"#utility.yul\":2114:2167   */\n      tag_144\n      jump\t// in\n    tag_161:\n        /* \"#utility.yul\":2104:2167   */\n      swap2\n      pop\n        /* \"#utility.yul\":2060:2177   */\n      pop\n        /* \"#utility.yul\":1988:2184   */\n      swap3\n      swap2\n      pop\n      pop\n      jump\t// out\n        /* \"#utility.yul\":2190:2615   */\n    tag_41:\n      0x00\n        /* \"#utility.yul\":2333:2335   */\n      0x20\n        /* \"#utility.yul\":2321:2330   */\n      dup3\n        /* \"#utility.yul\":2312:2319   */\n      dup5\n        /* \"#utility.yul\":2308:2331   */\n      sub\n        /* \"#utility.yul\":2304:2336   */\n      slt\n        /* \"#utility.yul\":2301:2303   */\n      iszero\n      tag_163\n      jumpi\n        /* \"#utility.yul\":2349:2350   */\n      0x00\n        /* \"#utility.yul\":2346:2347   */\n      dup1\n        /* \"#utility.yul\":2339:2351   */\n      revert\n        /* \"#utility.yul\":2301:2303   */\n    tag_163:\n        /* \"#utility.yul\":2420:2421   */\n      0x00\n        /* \"#utility.yul\":2409:2418   */\n      dup3\n        /* \"#utility.yul\":2405:2422   */\n      add\n        /* \"#utility.yul\":2392:2423   */\n      calldataload\n        /* \"#utility.yul\":2450:2468   */\n      0xffffffffffffffff\n        /* \"#utility.yul\":2442:2448   */\n      dup2\n        /* \"#utility.yul\":2439:2469   */\n      gt\n        /* \"#utility.yul\":2436:2438   */\n      iszero\n      tag_164\n      jumpi\n        /* \"#utility.yul\":2482:2483   */\n      0x00\n        /* \"#utility.yul\":2479:2480   */\n      dup1\n        /* \"#utility.yul\":2472:2484   */\n      revert\n        /* \"#utility.yul\":2436:2438   */\n    tag_164:\n        /* \"#utility.yul\":2510:2598   */\n      tag_165\n        /* \"#utility.yul\":2590:2597   */\n      dup5\n        /* \"#utility.yul\":2581:2587   */\n      dup3\n        /* \"#utility.yul\":2570:2579   */\n      dup6\n        /* \"#utility.yul\":2566:2588   */\n      add\n        /* \"#utility.yul\":2510:2598   */\n      tag_148\n      jump\t// in\n    tag_165:\n        /* \"#utility.yul\":2500:2598   */\n      swap2\n      pop\n        /* \"#utility.yul\":2363:2608   */\n      pop\n        /* \"#utility.yul\":2291:2615   */\n      swap3\n      swap2\n      pop\n      pop\n      jump\t// out\n        /* \"#utility.yul\":2621:2883   */\n    tag_17:\n      0x00\n        /* \"#utility.yul\":2729:2731   */\n      0x20\n        /* \"#utility.yul\":2717:2726   */\n      dup3\n        /* \"#utility.yul\":2708:2715   */\n      dup5\n        /* \"#utility.yul\":2704:2727   */\n      sub\n        /* \"#utility.yul\":2700:2732   */\n      slt\n        /* \"#utility.yul\":2697:2699   */\n      iszero\n      tag_167\n      jumpi\n        /* \"#utility.yul\":2745:2746   */\n      0x00\n        /* \"#utility.yul\":2742:2743   */\n      dup1\n        /* \"#utility.yul\":2735:2747   */\n      revert\n        /* \"#utility.yul\":2697:2699   */\n    tag_167:\n        /* \"#utility.yul\":2788:2789   */\n      0x00\n        /* \"#utility.yul\":2813:2866   */\n      tag_168\n        /* \"#utility.yul\":2858:2865   */\n      dup5\n        /* \"#utility.yul\":2849:2855   */\n      dup3\n        /* \"#utility.yul\":2838:2847   */\n      dup6\n        /* \"#utility.yul\":2834:2856   */\n      add\n        /* \"#utility.yul\":2813:2866   */\n      tag_155\n      jump\t// in\n    tag_168:\n        /* \"#utility.yul\":2803:2866   */\n      swap2\n      pop\n        /* \"#utility.yul\":2759:2876   */\n      pop\n        /* \"#utility.yul\":2687:2883   */\n      swap3\n      swap2\n      pop\n      pop\n      jump\t// out\n        /* \"#utility.yul\":2889:3141   */\n    tag_169:\n      0x00\n        /* \"#utility.yul\":3041:3135   */\n      tag_171\n        /* \"#utility.yul\":3131:3134   */\n      dup4\n        /* \"#utility.yul\":3123:3129   */\n      dup4\n        /* \"#utility.yul\":3041:3135   */\n      tag_172\n      jump\t// in\n    tag_171:\n        /* \"#utility.yul\":3027:3135   */\n      swap1\n      pop\n        /* \"#utility.yul\":3017:3141   */\n      swap3\n      swap2\n      pop\n      pop\n      jump\t// out\n        /* \"#utility.yul\":3147:3265   */\n    tag_173:\n        /* \"#utility.yul\":3234:3258   */\n      tag_175\n        /* \"#utility.yul\":3252:3257   */\n      dup2\n        /* \"#utility.yul\":3234:3258   */\n      tag_176\n      jump\t// in\n    tag_175:\n        /* \"#utility.yul\":3229:3232   */\n      dup3\n        /* \"#utility.yul\":3222:3259   */\n      mstore\n        /* \"#utility.yul\":3212:3265   */\n      pop\n      pop\n      jump\t// out\n        /* \"#utility.yul\":3331:4434   */\n    tag_177:\n      0x00\n        /* \"#utility.yul\":3527:3605   */\n      tag_179\n        /* \"#utility.yul\":3599:3604   */\n      dup3\n        /* \"#utility.yul\":3527:3605   */\n      tag_180\n      jump\t// in\n    tag_179:\n        /* \"#utility.yul\":3621:3731   */\n      tag_181\n        /* \"#utility.yul\":3724:3730   */\n      dup2\n        /* \"#utility.yul\":3719:3722   */\n      dup6\n        /* \"#utility.yul\":3621:3731   */\n      tag_182\n      jump\t// in\n    tag_181:\n        /* \"#utility.yul\":3614:3731   */\n      swap4\n      pop\n        /* \"#utility.yul\":3757:3760   */\n      dup4\n        /* \"#utility.yul\":3802:3806   */\n      0x20\n        /* \"#utility.yul\":3794:3800   */\n      dup3\n        /* \"#utility.yul\":3790:3807   */\n      mul\n        /* \"#utility.yul\":3785:3788   */\n      dup6\n        /* \"#utility.yul\":3781:3808   */\n      add\n        /* \"#utility.yul\":3832:3912   */\n      tag_183\n        /* \"#utility.yul\":3906:3911   */\n      dup6\n        /* \"#utility.yul\":3832:3912   */\n      tag_184\n      jump\t// in\n    tag_183:\n        /* \"#utility.yul\":3935:3942   */\n      dup1\n        /* \"#utility.yul\":3966:3967   */\n      0x00\n        /* \"#utility.yul\":3951:4389   */\n    tag_185:\n        /* \"#utility.yul\":3976:3982   */\n      dup6\n        /* \"#utility.yul\":3973:3974   */\n      dup2\n        /* \"#utility.yul\":3970:3983   */\n      lt\n        /* \"#utility.yul\":3951:4389   */\n      iszero\n      tag_187\n      jumpi\n        /* \"#utility.yul\":4047:4056   */\n      dup5\n        /* \"#utility.yul\":4041:4045   */\n      dup5\n        /* \"#utility.yul\":4037:4057   */\n      sub\n        /* \"#utility.yul\":4032:4035   */\n      dup10\n        /* \"#utility.yul\":4025:4058   */\n      mstore\n        /* \"#utility.yul\":4098:4104   */\n      dup2\n        /* \"#utility.yul\":4092:4105   */\n      mload\n        /* \"#utility.yul\":4126:4238   */\n      tag_188\n        /* \"#utility.yul\":4233:4237   */\n      dup6\n        /* \"#utility.yul\":4218:4231   */\n      dup3\n        /* \"#utility.yul\":4126:4238   */\n      tag_169\n      jump\t// in\n    tag_188:\n        /* \"#utility.yul\":4118:4238   */\n      swap5\n      pop\n        /* \"#utility.yul\":4261:4345   */\n      tag_189\n        /* \"#utility.yul\":4338:4344   */\n      dup4\n        /* \"#utility.yul\":4261:4345   */\n      tag_190\n      jump\t// in\n    tag_189:\n        /* \"#utility.yul\":4251:4345   */\n      swap3\n      pop\n        /* \"#utility.yul\":4374:4378   */\n      0x20\n        /* \"#utility.yul\":4369:4372   */\n      dup11\n        /* \"#utility.yul\":4365:4379   */\n      add\n        /* \"#utility.yul\":4358:4379   */\n      swap10\n      pop\n        /* \"#utility.yul\":4011:4389   */\n      pop\n        /* \"#utility.yul\":3998:3999   */\n      0x01\n        /* \"#utility.yul\":3995:3996   */\n      dup2\n        /* \"#utility.yul\":3991:4000   */\n      add\n        /* \"#utility.yul\":3986:4000   */\n      swap1\n      pop\n        /* \"#utility.yul\":3951:4389   */\n      jump(tag_185)\n    tag_187:\n        /* \"#utility.yul\":3955:3969   */\n      pop\n        /* \"#utility.yul\":4405:4409   */\n      dup3\n        /* \"#utility.yul\":4398:4409   */\n      swap8\n      pop\n        /* \"#utility.yul\":4425:4428   */\n      dup8\n        /* \"#utility.yul\":4418:4428   */\n      swap6\n      pop\n        /* \"#utility.yul\":3503:4434   */\n      pop\n      pop\n      pop\n      pop\n      pop\n      swap3\n      swap2\n      pop\n      pop\n      jump\t// out\n        /* \"#utility.yul\":4440:4549   */\n    tag_191:\n        /* \"#utility.yul\":4521:4542   */\n      tag_193\n        /* \"#utility.yul\":4536:4541   */\n      dup2\n        /* \"#utility.yul\":4521:4542   */\n      tag_194\n      jump\t// in\n    tag_193:\n        /* \"#utility.yul\":4516:4519   */\n      dup3\n        /* \"#utility.yul\":4509:4543   */\n      mstore\n        /* \"#utility.yul\":4499:4549   */\n      pop\n      pop\n      jump\t// out\n        /* \"#utility.yul\":4555:4899   */\n    tag_195:\n      0x00\n        /* \"#utility.yul\":4661:4700   */\n      tag_197\n        /* \"#utility.yul\":4694:4699   */\n      dup3\n        /* \"#utility.yul\":4661:4700   */\n      tag_198\n      jump\t// in\n    tag_197:\n        /* \"#utility.yul\":4716:4777   */\n      tag_199\n        /* \"#utility.yul\":4770:4776   */\n      dup2\n        /* \"#utility.yul\":4765:4768   */\n      dup6\n        /* \"#utility.yul\":4716:4777   */\n      tag_200\n      jump\t// in\n    tag_199:\n        /* \"#utility.yul\":4709:4777   */\n      swap4\n      pop\n        /* \"#utility.yul\":4786:4838   */\n      tag_201\n        /* \"#utility.yul\":4831:4837   */\n      dup2\n        /* \"#utility.yul\":4826:4829   */\n      dup6\n        /* \"#utility.yul\":4819:4823   */\n      0x20\n        /* \"#utility.yul\":4812:4817   */\n      dup7\n        /* \"#utility.yul\":4808:4824   */\n      add\n        /* \"#utility.yul\":4786:4838   */\n      tag_202\n      jump\t// in\n    tag_201:\n        /* \"#utility.yul\":4863:4892   */\n      tag_203\n        /* \"#utility.yul\":4885:4891   */\n      dup2\n        /* \"#utility.yul\":4863:4892   */\n      tag_204\n      jump\t// in\n    tag_203:\n        /* \"#utility.yul\":4858:4861   */\n      dup5\n        /* \"#utility.yul\":4854:4893   */\n      add\n        /* \"#utility.yul\":4847:4893   */\n      swap2\n      pop\n        /* \"#utility.yul\":4637:4899   */\n      pop\n      swap3\n      swap2\n      pop\n      pop\n      jump\t// out\n        /* \"#utility.yul\":4905:5269   */\n    tag_205:\n      0x00\n        /* \"#utility.yul\":5021:5060   */\n      tag_207\n        /* \"#utility.yul\":5054:5059   */\n      dup3\n        /* \"#utility.yul\":5021:5060   */\n      tag_198\n      jump\t// in\n    tag_207:\n        /* \"#utility.yul\":5076:5147   */\n      tag_208\n        /* \"#utility.yul\":5140:5146   */\n      dup2\n        /* \"#utility.yul\":5135:5138   */\n      dup6\n        /* \"#utility.yul\":5076:5147   */\n      tag_209\n      jump\t// in\n    tag_208:\n        /* \"#utility.yul\":5069:5147   */\n      swap4\n      pop\n        /* \"#utility.yul\":5156:5208   */\n      tag_210\n        /* \"#utility.yul\":5201:5207   */\n      dup2\n        /* \"#utility.yul\":5196:5199   */\n      dup6\n        /* \"#utility.yul\":5189:5193   */\n      0x20\n        /* \"#utility.yul\":5182:5187   */\n      dup7\n        /* \"#utility.yul\":5178:5194   */\n      add\n        /* \"#utility.yul\":5156:5208   */\n      tag_202\n      jump\t// in\n    tag_210:\n        /* \"#utility.yul\":5233:5262   */\n      tag_211\n        /* \"#utility.yul\":5255:5261   */\n      dup2\n        /* \"#utility.yul\":5233:5262   */\n      tag_204\n      jump\t// in\n    tag_211:\n        /* \"#utility.yul\":5228:5231   */\n      dup5\n        /* \"#utility.yul\":5224:5263   */\n      add\n        /* \"#utility.yul\":5217:5263   */\n      swap2\n      pop\n        /* \"#utility.yul\":4997:5269   */\n      pop\n      swap3\n      swap2\n      pop\n      pop\n      jump\t// out\n        /* \"#utility.yul\":5331:5930   */\n    tag_172:\n      0x00\n        /* \"#utility.yul\":5474:5478   */\n      0x40\n        /* \"#utility.yul\":5469:5472   */\n      dup4\n        /* \"#utility.yul\":5465:5479   */\n      add\n        /* \"#utility.yul\":5561:5565   */\n      0x00\n        /* \"#utility.yul\":5554:5559   */\n      dup4\n        /* \"#utility.yul\":5550:5566   */\n      add\n        /* \"#utility.yul\":5544:5567   */\n      mload\n        /* \"#utility.yul\":5614:5617   */\n      dup5\n        /* \"#utility.yul\":5608:5612   */\n      dup3\n        /* \"#utility.yul\":5604:5618   */\n      sub\n        /* \"#utility.yul\":5597:5601   */\n      0x00\n        /* \"#utility.yul\":5592:5595   */\n      dup7\n        /* \"#utility.yul\":5588:5602   */\n      add\n        /* \"#utility.yul\":5581:5619   */\n      mstore\n        /* \"#utility.yul\":5640:5713   */\n      tag_213\n        /* \"#utility.yul\":5708:5712   */\n      dup3\n        /* \"#utility.yul\":5694:5706   */\n      dup3\n        /* \"#utility.yul\":5640:5713   */\n      tag_195\n      jump\t// in\n    tag_213:\n        /* \"#utility.yul\":5632:5713   */\n      swap2\n      pop\n        /* \"#utility.yul\":5489:5724   */\n      pop\n        /* \"#utility.yul\":5811:5815   */\n      0x20\n        /* \"#utility.yul\":5804:5809   */\n      dup4\n        /* \"#utility.yul\":5800:5816   */\n      add\n        /* \"#utility.yul\":5794:5817   */\n      mload\n        /* \"#utility.yul\":5830:5893   */\n      tag_214\n        /* \"#utility.yul\":5887:5891   */\n      0x20\n        /* \"#utility.yul\":5882:5885   */\n      dup7\n        /* \"#utility.yul\":5878:5892   */\n      add\n        /* \"#utility.yul\":5864:5876   */\n      dup3\n        /* \"#utility.yul\":5830:5893   */\n      tag_215\n      jump\t// in\n    tag_214:\n        /* \"#utility.yul\":5734:5903   */\n      pop\n        /* \"#utility.yul\":5920:5924   */\n      dup1\n        /* \"#utility.yul\":5913:5924   */\n      swap2\n      pop\n        /* \"#utility.yul\":5443:5930   */\n      pop\n      swap3\n      swap2\n      pop\n      pop\n      jump\t// out\n        /* \"#utility.yul\":5992:6601   */\n    tag_216:\n      0x00\n        /* \"#utility.yul\":6145:6149   */\n      0x40\n        /* \"#utility.yul\":6140:6143   */\n      dup4\n        /* \"#utility.yul\":6136:6150   */\n      add\n        /* \"#utility.yul\":6232:6236   */\n      0x00\n        /* \"#utility.yul\":6225:6230   */\n      dup4\n        /* \"#utility.yul\":6221:6237   */\n      add\n        /* \"#utility.yul\":6215:6238   */\n      mload\n        /* \"#utility.yul\":6285:6288   */\n      dup5\n        /* \"#utility.yul\":6279:6283   */\n      dup3\n        /* \"#utility.yul\":6275:6289   */\n      sub\n        /* \"#utility.yul\":6268:6272   */\n      0x00\n        /* \"#utility.yul\":6263:6266   */\n      dup7\n        /* \"#utility.yul\":6259:6273   */\n      add\n        /* \"#utility.yul\":6252:6290   */\n      mstore\n        /* \"#utility.yul\":6311:6384   */\n      tag_218\n        /* \"#utility.yul\":6379:6383   */\n      dup3\n        /* \"#utility.yul\":6365:6377   */\n      dup3\n        /* \"#utility.yul\":6311:6384   */\n      tag_195\n      jump\t// in\n    tag_218:\n        /* \"#utility.yul\":6303:6384   */\n      swap2\n      pop\n        /* \"#utility.yul\":6160:6395   */\n      pop\n        /* \"#utility.yul\":6482:6486   */\n      0x20\n        /* \"#utility.yul\":6475:6480   */\n      dup4\n        /* \"#utility.yul\":6471:6487   */\n      add\n        /* \"#utility.yul\":6465:6488   */\n      mload\n        /* \"#utility.yul\":6501:6564   */\n      tag_219\n        /* \"#utility.yul\":6558:6562   */\n      0x20\n        /* \"#utility.yul\":6553:6556   */\n      dup7\n        /* \"#utility.yul\":6549:6563   */\n      add\n        /* \"#utility.yul\":6535:6547   */\n      dup3\n        /* \"#utility.yul\":6501:6564   */\n      tag_215\n      jump\t// in\n    tag_219:\n        /* \"#utility.yul\":6405:6574   */\n      pop\n        /* \"#utility.yul\":6591:6595   */\n      dup1\n        /* \"#utility.yul\":6584:6595   */\n      swap2\n      pop\n        /* \"#utility.yul\":6114:6601   */\n      pop\n      swap3\n      swap2\n      pop\n      pop\n      jump\t// out\n        /* \"#utility.yul\":6607:6715   */\n    tag_215:\n        /* \"#utility.yul\":6684:6708   */\n      tag_221\n        /* \"#utility.yul\":6702:6707   */\n      dup2\n        /* \"#utility.yul\":6684:6708   */\n      tag_222\n      jump\t// in\n    tag_221:\n        /* \"#utility.yul\":6679:6682   */\n      dup3\n        /* \"#utility.yul\":6672:6709   */\n      mstore\n        /* \"#utility.yul\":6662:6715   */\n      pop\n      pop\n      jump\t// out\n        /* \"#utility.yul\":6721:6839   */\n    tag_223:\n        /* \"#utility.yul\":6808:6832   */\n      tag_225\n        /* \"#utility.yul\":6826:6831   */\n      dup2\n        /* \"#utility.yul\":6808:6832   */\n      tag_222\n      jump\t// in\n    tag_225:\n        /* \"#utility.yul\":6803:6806   */\n      dup3\n        /* \"#utility.yul\":6796:6833   */\n      mstore\n        /* \"#utility.yul\":6786:6839   */\n      pop\n      pop\n      jump\t// out\n        /* \"#utility.yul\":6845:7067   */\n    tag_38:\n      0x00\n        /* \"#utility.yul\":6976:6978   */\n      0x20\n        /* \"#utility.yul\":6965:6974   */\n      dup3\n        /* \"#utility.yul\":6961:6979   */\n      add\n        /* \"#utility.yul\":6953:6979   */\n      swap1\n      pop\n        /* \"#utility.yul\":6989:7060   */\n      tag_227\n        /* \"#utility.yul\":7057:7058   */\n      0x00\n        /* \"#utility.yul\":7046:7055   */\n      dup4\n        /* \"#utility.yul\":7042:7059   */\n      add\n        /* \"#utility.yul\":7033:7039   */\n      dup5\n        /* \"#utility.yul\":6989:7060   */\n      tag_173\n      jump\t// in\n    tag_227:\n        /* \"#utility.yul\":6943:7067   */\n      swap3\n      swap2\n      pop\n      pop\n      jump\t// out\n        /* \"#utility.yul\":7073:7542   */\n    tag_31:\n      0x00\n        /* \"#utility.yul\":7302:7304   */\n      0x20\n        /* \"#utility.yul\":7291:7300   */\n      dup3\n        /* \"#utility.yul\":7287:7305   */\n      add\n        /* \"#utility.yul\":7279:7305   */\n      swap1\n      pop\n        /* \"#utility.yul\":7351:7360   */\n      dup2\n        /* \"#utility.yul\":7345:7349   */\n      dup2\n        /* \"#utility.yul\":7341:7361   */\n      sub\n        /* \"#utility.yul\":7337:7338   */\n      0x00\n        /* \"#utility.yul\":7326:7335   */\n      dup4\n        /* \"#utility.yul\":7322:7339   */\n      add\n        /* \"#utility.yul\":7315:7362   */\n      mstore\n        /* \"#utility.yul\":7379:7535   */\n      tag_229\n        /* \"#utility.yul\":7530:7534   */\n      dup2\n        /* \"#utility.yul\":7521:7527   */\n      dup5\n        /* \"#utility.yul\":7379:7535   */\n      tag_177\n      jump\t// in\n    tag_229:\n        /* \"#utility.yul\":7371:7535   */\n      swap1\n      pop\n        /* \"#utility.yul\":7269:7542   */\n      swap3\n      swap2\n      pop\n      pop\n      jump\t// out\n        /* \"#utility.yul\":7548:7971   */\n    tag_23:\n      0x00\n        /* \"#utility.yul\":7727:7729   */\n      0x40\n        /* \"#utility.yul\":7716:7725   */\n      dup3\n        /* \"#utility.yul\":7712:7730   */\n      add\n        /* \"#utility.yul\":7704:7730   */\n      swap1\n      pop\n        /* \"#utility.yul\":7776:7785   */\n      dup2\n        /* \"#utility.yul\":7770:7774   */\n      dup2\n        /* \"#utility.yul\":7766:7786   */\n      sub\n        /* \"#utility.yul\":7762:7763   */\n      0x00\n        /* \"#utility.yul\":7751:7760   */\n      dup4\n        /* \"#utility.yul\":7747:7764   */\n      add\n        /* \"#utility.yul\":7740:7787   */\n      mstore\n        /* \"#utility.yul\":7804:7882   */\n      tag_231\n        /* \"#utility.yul\":7877:7881   */\n      dup2\n        /* \"#utility.yul\":7868:7874   */\n      dup6\n        /* \"#utility.yul\":7804:7882   */\n      tag_205\n      jump\t// in\n    tag_231:\n        /* \"#utility.yul\":7796:7882   */\n      swap1\n      pop\n        /* \"#utility.yul\":7892:7964   */\n      tag_232\n        /* \"#utility.yul\":7960:7962   */\n      0x20\n        /* \"#utility.yul\":7949:7958   */\n      dup4\n        /* \"#utility.yul\":7945:7963   */\n      add\n        /* \"#utility.yul\":7936:7942   */\n      dup5\n        /* \"#utility.yul\":7892:7964   */\n      tag_223\n      jump\t// in\n    tag_232:\n        /* \"#utility.yul\":7694:7971   */\n      swap4\n      swap3\n      pop\n      pop\n      pop\n      jump\t// out\n        /* \"#utility.yul\":7977:8346   */\n    tag_59:\n      0x00\n        /* \"#utility.yul\":8156:8158   */\n      0x20\n        /* \"#utility.yul\":8145:8154   */\n      dup3\n        /* \"#utility.yul\":8141:8159   */\n      add\n        /* \"#utility.yul\":8133:8159   */\n      swap1\n      pop\n        /* \"#utility.yul\":8205:8214   */\n      dup2\n        /* \"#utility.yul\":8199:8203   */\n      dup2\n        /* \"#utility.yul\":8195:8215   */\n      sub\n        /* \"#utility.yul\":8191:8192   */\n      0x00\n        /* \"#utility.yul\":8180:8189   */\n      dup4\n        /* \"#utility.yul\":8176:8193   */\n      add\n        /* \"#utility.yul\":8169:8216   */\n      mstore\n        /* \"#utility.yul\":8233:8339   */\n      tag_234\n        /* \"#utility.yul\":8334:8338   */\n      dup2\n        /* \"#utility.yul\":8325:8331   */\n      dup5\n        /* \"#utility.yul\":8233:8339   */\n      tag_216\n      jump\t// in\n    tag_234:\n        /* \"#utility.yul\":8225:8339   */\n      swap1\n      pop\n        /* \"#utility.yul\":8123:8346   */\n      swap3\n      swap2\n      pop\n      pop\n      jump\t// out\n        /* \"#utility.yul\":8352:8574   */\n    tag_27:\n      0x00\n        /* \"#utility.yul\":8483:8485   */\n      0x20\n        /* \"#utility.yul\":8472:8481   */\n      dup3\n        /* \"#utility.yul\":8468:8486   */\n      add\n        /* \"#utility.yul\":8460:8486   */\n      swap1\n      pop\n        /* \"#utility.yul\":8496:8567   */\n      tag_236\n        /* \"#utility.yul\":8564:8565   */\n      0x00\n        /* \"#utility.yul\":8553:8562   */\n      dup4\n        /* \"#utility.yul\":8549:8566   */\n      add\n        /* \"#utility.yul\":8540:8546   */\n      dup5\n        /* \"#utility.yul\":8496:8567   */\n      tag_223\n      jump\t// in\n    tag_236:\n        /* \"#utility.yul\":8450:8574   */\n      swap3\n      swap2\n      pop\n      pop\n      jump\t// out\n        /* \"#utility.yul\":8580:9121   */\n    tag_51:\n      0x00\n        /* \"#utility.yul\":8789:8792   */\n      0x80\n        /* \"#utility.yul\":8778:8787   */\n      dup3\n        /* \"#utility.yul\":8774:8793   */\n      add\n        /* \"#utility.yul\":8766:8793   */\n      swap1\n      pop\n        /* \"#utility.yul\":8803:8874   */\n      tag_238\n        /* \"#utility.yul\":8871:8872   */\n      0x00\n        /* \"#utility.yul\":8860:8869   */\n      dup4\n        /* \"#utility.yul\":8856:8873   */\n      add\n        /* \"#utility.yul\":8847:8853   */\n      dup8\n        /* \"#utility.yul\":8803:8874   */\n      tag_223\n      jump\t// in\n    tag_238:\n        /* \"#utility.yul\":8884:8950   */\n      tag_239\n        /* \"#utility.yul\":8946:8948   */\n      0x20\n        /* \"#utility.yul\":8935:8944   */\n      dup4\n        /* \"#utility.yul\":8931:8949   */\n      add\n        /* \"#utility.yul\":8922:8928   */\n      dup7\n        /* \"#utility.yul\":8884:8950   */\n      tag_191\n      jump\t// in\n    tag_239:\n        /* \"#utility.yul\":8960:9032   */\n      tag_240\n        /* \"#utility.yul\":9028:9030   */\n      0x40\n        /* \"#utility.yul\":9017:9026   */\n      dup4\n        /* \"#utility.yul\":9013:9031   */\n      add\n        /* \"#utility.yul\":9004:9010   */\n      dup6\n        /* \"#utility.yul\":8960:9032   */\n      tag_173\n      jump\t// in\n    tag_240:\n        /* \"#utility.yul\":9042:9114   */\n      tag_241\n        /* \"#utility.yul\":9110:9112   */\n      0x60\n        /* \"#utility.yul\":9099:9108   */\n      dup4\n        /* \"#utility.yul\":9095:9113   */\n      add\n        /* \"#utility.yul\":9086:9092   */\n      dup5\n        /* \"#utility.yul\":9042:9114   */\n      tag_223\n      jump\t// in\n    tag_241:\n        /* \"#utility.yul\":8756:9121   */\n      swap6\n      swap5\n      pop\n      pop\n      pop\n      pop\n      pop\n      jump\t// out\n        /* \"#utility.yul\":9127:9410   */\n    tag_130:\n      0x00\n        /* \"#utility.yul\":9193:9195   */\n      0x40\n        /* \"#utility.yul\":9187:9196   */\n      mload\n        /* \"#utility.yul\":9177:9196   */\n      swap1\n      pop\n        /* \"#utility.yul\":9235:9239   */\n      dup2\n        /* \"#utility.yul\":9227:9233   */\n      dup2\n        /* \"#utility.yul\":9223:9240   */\n      add\n        /* \"#utility.yul\":9342:9348   */\n      dup2\n        /* \"#utility.yul\":9330:9340   */\n      dup2\n        /* \"#utility.yul\":9327:9349   */\n      lt\n        /* \"#utility.yul\":9306:9324   */\n      0xffffffffffffffff\n        /* \"#utility.yul\":9294:9304   */\n      dup3\n        /* \"#utility.yul\":9291:9325   */\n      gt\n        /* \"#utility.yul\":9288:9350   */\n      or\n        /* \"#utility.yul\":9285:9287   */\n      iszero\n      tag_243\n      jumpi\n        /* \"#utility.yul\":9353:9371   */\n      tag_244\n      tag_245\n      jump\t// in\n    tag_244:\n        /* \"#utility.yul\":9285:9287   */\n    tag_243:\n        /* \"#utility.yul\":9393:9403   */\n      dup1\n        /* \"#utility.yul\":9389:9391   */\n      0x40\n        /* \"#utility.yul\":9382:9404   */\n      mstore\n        /* \"#utility.yul\":9167:9410   */\n      pop\n      swap2\n      swap1\n      pop\n      jump\t// out\n        /* \"#utility.yul\":9416:9737   */\n    tag_129:\n      0x00\n        /* \"#utility.yul\":9593:9611   */\n      0xffffffffffffffff\n        /* \"#utility.yul\":9585:9591   */\n      dup3\n        /* \"#utility.yul\":9582:9612   */\n      gt\n        /* \"#utility.yul\":9579:9581   */\n      iszero\n      tag_247\n      jumpi\n        /* \"#utility.yul\":9615:9633   */\n      tag_248\n      tag_245\n      jump\t// in\n    tag_248:\n        /* \"#utility.yul\":9579:9581   */\n    tag_247:\n        /* \"#utility.yul\":9665:9669   */\n      0x20\n        /* \"#utility.yul\":9657:9663   */\n      dup3\n        /* \"#utility.yul\":9653:9670   */\n      mul\n        /* \"#utility.yul\":9645:9670   */\n      swap1\n      pop\n        /* \"#utility.yul\":9725:9729   */\n      0x20\n        /* \"#utility.yul\":9719:9723   */\n      dup2\n        /* \"#utility.yul\":9715:9730   */\n      add\n        /* \"#utility.yul\":9707:9730   */\n      swap1\n      pop\n        /* \"#utility.yul\":9508:9737   */\n      swap2\n      swap1\n      pop\n      jump\t// out\n        /* \"#utility.yul\":9743:10075   */\n    tag_140:\n      0x00\n        /* \"#utility.yul\":9895:9913   */\n      0xffffffffffffffff\n        /* \"#utility.yul\":9887:9893   */\n      dup3\n        /* \"#utility.yul\":9884:9914   */\n      gt\n        /* \"#utility.yul\":9881:9883   */\n      iszero\n      tag_250\n      jumpi\n        /* \"#utility.yul\":9917:9935   */\n      tag_251\n      tag_245\n      jump\t// in\n    tag_251:\n        /* \"#utility.yul\":9881:9883   */\n    tag_250:\n        /* \"#utility.yul\":10002:10006   */\n      0x1f\n        /* \"#utility.yul\":9998:10007   */\n      not\n        /* \"#utility.yul\":9991:9995   */\n      0x1f\n        /* \"#utility.yul\":9983:9989   */\n      dup4\n        /* \"#utility.yul\":9979:9996   */\n      add\n        /* \"#utility.yul\":9975:10008   */\n      and\n        /* \"#utility.yul\":9967:10008   */\n      swap1\n      pop\n        /* \"#utility.yul\":10063:10067   */\n      0x20\n        /* \"#utility.yul\":10057:10061   */\n      dup2\n        /* \"#utility.yul\":10053:10068   */\n      add\n        /* \"#utility.yul\":10045:10068   */\n      swap1\n      pop\n        /* \"#utility.yul\":9810:10075   */\n      swap2\n      swap1\n      pop\n      jump\t// out\n        /* \"#utility.yul\":10081:10237   */\n    tag_184:\n      0x00\n        /* \"#utility.yul\":10195:10198   */\n      dup2\n        /* \"#utility.yul\":10187:10198   */\n      swap1\n      pop\n        /* \"#utility.yul\":10225:10229   */\n      0x20\n        /* \"#utility.yul\":10220:10223   */\n      dup3\n        /* \"#utility.yul\":10216:10230   */\n      add\n        /* \"#utility.yul\":10208:10230   */\n      swap1\n      pop\n        /* \"#utility.yul\":10177:10237   */\n      swap2\n      swap1\n      pop\n      jump\t// out\n        /* \"#utility.yul\":10243:10381   */\n    tag_180:\n      0x00\n        /* \"#utility.yul\":10368:10373   */\n      dup2\n        /* \"#utility.yul\":10362:10374   */\n      mload\n        /* \"#utility.yul\":10352:10374   */\n      swap1\n      pop\n        /* \"#utility.yul\":10341:10381   */\n      swap2\n      swap1\n      pop\n      jump\t// out\n        /* \"#utility.yul\":10387:10486   */\n    tag_198:\n      0x00\n        /* \"#utility.yul\":10473:10478   */\n      dup2\n        /* \"#utility.yul\":10467:10479   */\n      mload\n        /* \"#utility.yul\":10457:10479   */\n      swap1\n      pop\n        /* \"#utility.yul\":10446:10486   */\n      swap2\n      swap1\n      pop\n      jump\t// out\n        /* \"#utility.yul\":10492:10629   */\n    tag_190:\n      0x00\n        /* \"#utility.yul\":10618:10622   */\n      0x20\n        /* \"#utility.yul\":10613:10616   */\n      dup3\n        /* \"#utility.yul\":10609:10623   */\n      add\n        /* \"#utility.yul\":10601:10623   */\n      swap1\n      pop\n        /* \"#utility.yul\":10591:10629   */\n      swap2\n      swap1\n      pop\n      jump\t// out\n        /* \"#utility.yul\":10635:10843   */\n    tag_182:\n      0x00\n        /* \"#utility.yul\":10792:10798   */\n      dup3\n        /* \"#utility.yul\":10787:10790   */\n      dup3\n        /* \"#utility.yul\":10780:10799   */\n      mstore\n        /* \"#utility.yul\":10832:10836   */\n      0x20\n        /* \"#utility.yul\":10827:10830   */\n      dup3\n        /* \"#utility.yul\":10823:10837   */\n      add\n        /* \"#utility.yul\":10808:10837   */\n      swap1\n      pop\n        /* \"#utility.yul\":10770:10843   */\n      swap3\n      swap2\n      pop\n      pop\n      jump\t// out\n        /* \"#utility.yul\":10849:11008   */\n    tag_200:\n      0x00\n        /* \"#utility.yul\":10957:10963   */\n      dup3\n        /* \"#utility.yul\":10952:10955   */\n      dup3\n        /* \"#utility.yul\":10945:10964   */\n      mstore\n        /* \"#utility.yul\":10997:11001   */\n      0x20\n        /* \"#utility.yul\":10992:10995   */\n      dup3\n        /* \"#utility.yul\":10988:11002   */\n      add\n        /* \"#utility.yul\":10973:11002   */\n      swap1\n      pop\n        /* \"#utility.yul\":10935:11008   */\n      swap3\n      swap2\n      pop\n      pop\n      jump\t// out\n        /* \"#utility.yul\":11014:11183   */\n    tag_209:\n      0x00\n        /* \"#utility.yul\":11132:11138   */\n      dup3\n        /* \"#utility.yul\":11127:11130   */\n      dup3\n        /* \"#utility.yul\":11120:11139   */\n      mstore\n        /* \"#utility.yul\":11172:11176   */\n      0x20\n        /* \"#utility.yul\":11167:11170   */\n      dup3\n        /* \"#utility.yul\":11163:11177   */\n      add\n        /* \"#utility.yul\":11148:11177   */\n      swap1\n      pop\n        /* \"#utility.yul\":11110:11183   */\n      swap3\n      swap2\n      pop\n      pop\n      jump\t// out\n        /* \"#utility.yul\":11189:11494   */\n    tag_65:\n      0x00\n        /* \"#utility.yul\":11248:11268   */\n      tag_260\n        /* \"#utility.yul\":11266:11267   */\n      dup3\n        /* \"#utility.yul\":11248:11268   */\n      tag_222\n      jump\t// in\n    tag_260:\n        /* \"#utility.yul\":11243:11268   */\n      swap2\n      pop\n        /* \"#utility.yul\":11282:11302   */\n      tag_261\n        /* \"#utility.yul\":11300:11301   */\n      dup4\n        /* \"#utility.yul\":11282:11302   */\n      tag_222\n      jump\t// in\n    tag_261:\n        /* \"#utility.yul\":11277:11302   */\n      swap3\n      pop\n        /* \"#utility.yul\":11436:11437   */\n      dup3\n        /* \"#utility.yul\":11368:11434   */\n      0xffffffffffffffffffffffffffffffffffffffffffffffffffffffffffffffff\n        /* \"#utility.yul\":11364:11438   */\n      sub\n        /* \"#utility.yul\":11361:11362   */\n      dup3\n        /* \"#utility.yul\":11358:11439   */\n      gt\n        /* \"#utility.yul\":11355:11357   */\n      iszero\n      tag_262\n      jumpi\n        /* \"#utility.yul\":11442:11460   */\n      tag_263\n      tag_264\n      jump\t// in\n    tag_263:\n        /* \"#utility.yul\":11355:11357   */\n    tag_262:\n        /* \"#utility.yul\":11486:11487   */\n      dup3\n        /* \"#utility.yul\":11483:11484   */\n      dup3\n        /* \"#utility.yul\":11479:11488   */\n      add\n        /* \"#utility.yul\":11472:11488   */\n      swap1\n      pop\n        /* \"#utility.yul\":11233:11494   */\n      swap3\n      swap2\n      pop\n      pop\n      jump\t// out\n        /* \"#utility.yul\":11500:11596   */\n    tag_176:\n      0x00\n        /* \"#utility.yul\":11566:11590   */\n      tag_266\n        /* \"#utility.yul\":11584:11589   */\n      dup3\n        /* \"#utility.yul\":11566:11590   */\n      tag_267\n      jump\t// in\n    tag_266:\n        /* \"#utility.yul\":11555:11590   */\n      swap1\n      pop\n        /* \"#utility.yul\":11545:11596   */\n      swap2\n      swap1\n      pop\n      jump\t// out\n        /* \"#utility.yul\":11602:11692   */\n    tag_194:\n      0x00\n        /* \"#utility.yul\":11679:11684   */\n      dup2\n        /* \"#utility.yul\":11672:11685   */\n      iszero\n        /* \"#utility.yul\":11665:11686   */\n      iszero\n        /* \"#utility.yul\":11654:11686   */\n      swap1\n      pop\n        /* \"#utility.yul\":11644:11692   */\n      swap2\n      swap1\n      pop\n      jump\t// out\n        /* \"#utility.yul\":11698:11824   */\n    tag_267:\n      0x00\n        /* \"#utility.yul\":11775:11817   */\n      0xffffffffffffffffffffffffffffffffffffffff\n        /* \"#utility.yul\":11768:11773   */\n      dup3\n        /* \"#utility.yul\":11764:11818   */\n      and\n        /* \"#utility.yul\":11753:11818   */\n      swap1\n      pop\n        /* \"#utility.yul\":11743:11824   */\n      swap2\n      swap1\n      pop\n      jump\t// out\n        /* \"#utility.yul\":11830:11907   */\n    tag_222:\n      0x00\n        /* \"#utility.yul\":11896:11901   */\n      dup2\n        /* \"#utility.yul\":11885:11901   */\n      swap1\n      pop\n        /* \"#utility.yul\":11875:11907   */\n      swap2\n      swap1\n      pop\n      jump\t// out\n        /* \"#utility.yul\":11913:12067   */\n    tag_143:\n        /* \"#utility.yul\":11997:12003   */\n      dup3\n        /* \"#utility.yul\":11992:11995   */\n      dup2\n        /* \"#utility.yul\":11987:11990   */\n      dup4\n        /* \"#utility.yul\":11974:12004   */\n      calldatacopy\n        /* \"#utility.yul\":12059:12060   */\n      0x00\n        /* \"#utility.yul\":12050:12056   */\n      dup4\n        /* \"#utility.yul\":12045:12048   */\n      dup4\n        /* \"#utility.yul\":12041:12057   */\n      add\n        /* \"#utility.yul\":12034:12061   */\n      mstore\n        /* \"#utility.yul\":11964:12067   */\n      pop\n      pop\n      pop\n      jump\t// out\n        /* \"#utility.yul\":12073:12380   */\n    tag_202:\n        /* \"#utility.yul\":12141:12142   */\n      0x00\n        /* \"#utility.yul\":12151:12264   */\n    tag_273:\n        /* \"#utility.yul\":12165:12171   */\n      dup4\n        /* \"#utility.yul\":12162:12163   */\n      dup2\n        /* \"#utility.yul\":12159:12172   */\n      lt\n        /* \"#utility.yul\":12151:12264   */\n      iszero\n      tag_275\n      jumpi\n        /* \"#utility.yul\":12250:12251   */\n      dup1\n        /* \"#utility.yul\":12245:12248   */\n      dup3\n        /* \"#utility.yul\":12241:12252   */\n      add\n        /* \"#utility.yul\":12235:12253   */\n      mload\n        /* \"#utility.yul\":12231:12232   */\n      dup2\n        /* \"#utility.yul\":12226:12229   */\n      dup5\n        /* \"#utility.yul\":12222:12233   */\n      add\n        /* \"#utility.yul\":12215:12254   */\n      mstore\n        /* \"#utility.yul\":12187:12189   */\n      0x20\n        /* \"#utility.yul\":12184:12185   */\n      dup2\n        /* \"#utility.yul\":12180:12190   */\n      add\n        /* \"#utility.yul\":12175:12190   */\n      swap1\n      pop\n        /* \"#utility.yul\":12151:12264   */\n      jump(tag_273)\n    tag_275:\n        /* \"#utility.yul\":12282:12288   */\n      dup4\n        /* \"#utility.yul\":12279:12280   */\n      dup2\n        /* \"#utility.yul\":12276:12289   */\n      gt\n        /* \"#utility.yul\":12273:12275   */\n      iszero\n      tag_276\n      jumpi\n        /* \"#utility.yul\":12362:12363   */\n      0x00\n        /* \"#utility.yul\":12353:12359   */\n      dup5\n        /* \"#utility.yul\":12348:12351   */\n      dup5\n        /* \"#utility.yul\":12344:12360   */\n      add\n        /* \"#utility.yul\":12337:12364   */\n      mstore\n        /* \"#utility.yul\":12273:12275   */\n    tag_276:\n        /* \"#utility.yul\":12122:12380   */\n      pop\n      pop\n      pop\n      pop\n      jump\t// out\n        /* \"#utility.yul\":12386:12706   */\n    tag_69:\n      0x00\n        /* \"#utility.yul\":12467:12468   */\n      0x02\n        /* \"#utility.yul\":12461:12465   */\n      dup3\n        /* \"#utility.yul\":12457:12469   */\n      div\n        /* \"#utility.yul\":12447:12469   */\n      swap1\n      pop\n        /* \"#utility.yul\":12514:12515   */\n      0x01\n        /* \"#utility.yul\":12508:12512   */\n      dup3\n        /* \"#utility.yul\":12504:12516   */\n      and\n        /* \"#utility.yul\":12535:12553   */\n      dup1\n        /* \"#utility.yul\":12525:12527   */\n      tag_278\n      jumpi\n        /* \"#utility.yul\":12591:12595   */\n      0x7f\n        /* \"#utility.yul\":12583:12589   */\n      dup3\n        /* \"#utility.yul\":12579:12596   */\n      and\n        /* \"#utility.yul\":12569:12596   */\n      swap2\n      pop\n        /* \"#utility.yul\":12525:12527   */\n    tag_278:\n        /* \"#utility.yul\":12653:12655   */\n      0x20\n        /* \"#utility.yul\":12645:12651   */\n      dup3\n        /* \"#utility.yul\":12642:12656   */\n      lt\n        /* \"#utility.yul\":12622:12640   */\n      dup2\n        /* \"#utility.yul\":12619:12657   */\n      eq\n        /* \"#utility.yul\":12616:12618   */\n      iszero\n      tag_279\n      jumpi\n        /* \"#utility.yul\":12672:12690   */\n      tag_280\n      tag_281\n      jump\t// in\n    tag_280:\n        /* \"#utility.yul\":12616:12618   */\n    tag_279:\n        /* \"#utility.yul\":12437:12706   */\n      pop\n      swap2\n      swap1\n      pop\n      jump\t// out\n        /* \"#utility.yul\":12712:12945   */\n    tag_97:\n      0x00\n        /* \"#utility.yul\":12774:12798   */\n      tag_283\n        /* \"#utility.yul\":12792:12797   */\n      dup3\n        /* \"#utility.yul\":12774:12798   */\n      tag_222\n      jump\t// in\n    tag_283:\n        /* \"#utility.yul\":12765:12798   */\n      swap2\n      pop\n        /* \"#utility.yul\":12820:12886   */\n      0xffffffffffffffffffffffffffffffffffffffffffffffffffffffffffffffff\n        /* \"#utility.yul\":12813:12818   */\n      dup3\n        /* \"#utility.yul\":12810:12887   */\n      eq\n        /* \"#utility.yul\":12807:12809   */\n      iszero\n      tag_284\n      jumpi\n        /* \"#utility.yul\":12890:12908   */\n      tag_285\n      tag_264\n      jump\t// in\n    tag_285:\n        /* \"#utility.yul\":12807:12809   */\n    tag_284:\n        /* \"#utility.yul\":12937:12938   */\n      0x01\n        /* \"#utility.yul\":12930:12935   */\n      dup3\n        /* \"#utility.yul\":12926:12939   */\n      add\n        /* \"#utility.yul\":12919:12939   */\n      swap1\n      pop\n        /* \"#utility.yul\":12755:12945   */\n      swap2\n      swap1\n      pop\n      jump\t// out\n        /* \"#utility.yul\":12951:13131   */\n    tag_264:\n        /* \"#utility.yul\":12999:13076   */\n      0x4e487b7100000000000000000000000000000000000000000000000000000000\n        /* \"#utility.yul\":12996:12997   */\n      0x00\n        /* \"#utility.yul\":12989:13077   */\n      mstore\n        /* \"#utility.yul\":13096:13100   */\n      0x11\n        /* \"#utility.yul\":13093:13094   */\n      0x04\n        /* \"#utility.yul\":13086:13101   */\n      mstore\n        /* \"#utility.yul\":13120:13124   */\n      0x24\n        /* \"#utility.yul\":13117:13118   */\n      0x00\n        /* \"#utility.yul\":13110:13125   */\n      revert\n        /* \"#utility.yul\":13137:13317   */\n    tag_281:\n        /* \"#utility.yul\":13185:13262   */\n      0x4e487b7100000000000000000000000000000000000000000000000000000000\n        /* \"#utility.yul\":13182:13183   */\n      0x00\n        /* \"#utility.yul\":13175:13263   */\n      mstore\n        /* \"#utility.yul\":13282:13286   */\n      0x22\n        /* \"#utility.yul\":13279:13280   */\n      0x04\n        /* \"#utility.yul\":13272:13287   */\n      mstore\n        /* \"#utility.yul\":13306:13310   */\n      0x24\n        /* \"#utility.yul\":13303:13304   */\n      0x00\n        /* \"#utility.yul\":13296:13311   */\n      revert\n        /* \"#utility.yul\":13323:13503   */\n    tag_245:\n        /* \"#utility.yul\":13371:13448   */\n      0x4e487b7100000000000000000000000000000000000000000000000000000000\n        /* \"#utility.yul\":13368:13369   */\n      0x00\n        /* \"#utility.yul\":13361:13449   */\n      mstore\n        /* \"#utility.yul\":13468:13472   */\n      0x41\n        /* \"#utility.yul\":13465:13466   */\n      0x04\n        /* \"#utility.yul\":13458:13473   */\n      mstore\n        /* \"#utility.yul\":13492:13496   */\n      0x24\n        /* \"#utility.yul\":13489:13490   */\n      0x00\n        /* \"#utility.yul\":13482:13497   */\n      revert\n        /* \"#utility.yul\":13509:13611   */\n    tag_204:\n      0x00\n        /* \"#utility.yul\":13601:13603   */\n      0x1f\n        /* \"#utility.yul\":13597:13604   */\n      not\n        /* \"#utility.yul\":13592:13594   */\n      0x1f\n        /* \"#utility.yul\":13585:13590   */\n      dup4\n        /* \"#utility.yul\":13581:13595   */\n      add\n        /* \"#utility.yul\":13577:13605   */\n      and\n        /* \"#utility.yul\":13567:13605   */\n      swap1\n      pop\n        /* \"#utility.yul\":13557:13611   */\n      swap2\n      swap1\n      pop\n      jump\t// out\n        /* \"#utility.yul\":13617:13739   */\n    tag_147:\n        /* \"#utility.yul\":13690:13714   */\n      tag_291\n        /* \"#utility.yul\":13708:13713   */\n      dup2\n        /* \"#utility.yul\":13690:13714   */\n      tag_176\n      jump\t// in\n    tag_291:\n        /* \"#utility.yul\":13683:13688   */\n      dup2\n        /* \"#utility.yul\":13680:13715   */\n      eq\n        /* \"#utility.yul\":13670:13672   */\n      tag_292\n      jumpi\n        /* \"#utility.yul\":13729:13730   */\n      0x00\n        /* \"#utility.yul\":13726:13727   */\n      dup1\n        /* \"#utility.yul\":13719:13731   */\n      revert\n        /* \"#utility.yul\":13670:13672   */\n    tag_292:\n        /* \"#utility.yul\":13660:13739   */\n      pop\n      jump\t// out\n        /* \"#utility.yul\":13745:13867   */\n    tag_158:\n        /* \"#utility.yul\":13818:13842   */\n      tag_294\n        /* \"#utility.yul\":13836:13841   */\n      dup2\n        /* \"#utility.yul\":13818:13842   */\n      tag_222\n      jump\t// in\n    tag_294:\n        /* \"#utility.yul\":13811:13816   */\n      dup2\n        /* \"#utility.yul\":13808:13843   */\n      eq\n        /* \"#utility.yul\":13798:13800   */\n      tag_295\n      jumpi\n        /* \"#utility.yul\":13857:13858   */\n      0x00\n        /* \"#utility.yul\":13854:13855   */\n      dup1\n        /* \"#utility.yul\":13847:13859   */\n      revert\n        /* \"#utility.yul\":13798:13800   */\n    tag_295:\n        /* \"#utility.yul\":13788:13867   */\n      pop\n      jump\t// out\n\n    auxdata: 0xa264697066735822122099dd89de6c57d6959533c1828ff9e428c5721b1714f36fac7005984e2d78bf5064736f6c63430008000033\n}\n",
				"bytecode": {
					"linkReferences": {},
					"object": "608060405234801561001057600080fd5b506111a6806100206000396000f3fe608060405234801561001057600080fd5b50600436106100a95760003560e01c80637a16fcb0116100715780637a16fcb014610155578063836bc692146101735780639e7b8d611461018f578063a3ec138d146101ab578063b1356488146101de578063e9d6c6da146101fc576100a9565b80630121b93f146100ae578063013cf08b146100ca5780630a82dcb1146100fb57806362564c481461011957806378f305c614610137575b600080fd5b6100c860048036038101906100c39190610b8d565b61022c565b005b6100e460048036038101906100df9190610b8d565b61031b565b6040516100f2929190610da4565b60405180910390f35b6101036103d7565b6040516101109190610df6565b60405180910390f35b6101216103e1565b60405161012e9190610d82565b60405180910390f35b61013f6104dc565b60405161014c9190610df6565b60405180910390f35b61015d6104e6565b60405161016a9190610d67565b60405180910390f35b61018d60048036038101906101889190610b4c565b61050f565b005b6101a960048036038101906101a49190610b23565b610695565b005b6101c560048036038101906101c09190610b23565b6107df565b6040516101d59493929190610e11565b60405180910390f35b6101e661083c565b6040516101f39190610df6565b60405180910390f35b61021660048036038101906102119190610b8d565b610846565b6040516102239190610dd4565b60405180910390f35b6000600460003373ffffffffffffffffffffffffffffffffffffffff1673ffffffffffffffffffffffffffffffffffffffff16815260200190815260200160002090508060010160009054906101000a900460ff161561028b57600080fd5b60018160010160006101000a81548160ff0219169083151502179055508181600201819055508060000154600583815481106102f0577f4e487b7100000000000000000000000000000000000000000000000000000000600052603260045260246000fd5b906000526020600020906002020160010160008282546103109190610f49565b925050819055505050565b6005818154811061032b57600080fd5b906000526020600020906002020160009150905080600001805461034e90611029565b80601f016020809104026020016040519081016040528092919081815260200182805461037a90611029565b80156103c75780601f1061039c576101008083540402835291602001916103c7565b820191906000526020600020905b8154815290600101906020018083116103aa57829003601f168201915b5050505050908060010154905082565b6000600354905090565b60606005805480602002602001604051908101604052809291908181526020016000905b828210156104d3578382906000526020600020906002020160405180604001604052908160008201805461043890611029565b80601f016020809104026020016040519081016040528092919081815260200182805461046490611029565b80156104b15780601f10610486576101008083540402835291602001916104b1565b820191906000526020600020905b81548152906001019060200180831161049457829003601f168201915b5050505050815260200160018201548152505081526020019060010190610405565b50505050905090565b6000600154905090565b60008060009054906101000a900473ffffffffffffffffffffffffffffffffffffffff16905090565b336000806101000a81548173ffffffffffffffffffffffffffffffffffffffff021916908373ffffffffffffffffffffffffffffffffffffffff1602179055506001600460008060009054906101000a900473ffffffffffffffffffffffffffffffffffffffff1673ffffffffffffffffffffffffffffffffffffffff1673ffffffffffffffffffffffffffffffffffffffff168152602001908152602001600020600001819055506105c0610944565b805160038190555060005b8151811015610691576005604051806040016040528084848151811061061a577f4e487b7100000000000000000000000000000000000000000000000000000000600052603260045260246000fd5b6020026020010151815260200160008152509080600181540180825580915050600190039060005260206000209060020201600090919091909150600082015181600001908051906020019061067192919061094d565b5060208201518160010155505080806106899061105b565b9150506105cb565b5050565b60008054906101000a900473ffffffffffffffffffffffffffffffffffffffff1673ffffffffffffffffffffffffffffffffffffffff163373ffffffffffffffffffffffffffffffffffffffff1614801561073d5750600460008273ffffffffffffffffffffffffffffffffffffffff1673ffffffffffffffffffffffffffffffffffffffff16815260200190815260200160002060010160009054906101000a900460ff16155b801561078b57506000600460008373ffffffffffffffffffffffffffffffffffffffff1673ffffffffffffffffffffffffffffffffffffffff16815260200190815260200160002060000154145b61079457600080fd5b6001600460008373ffffffffffffffffffffffffffffffffffffffff1673ffffffffffffffffffffffffffffffffffffffff1681526020019081526020016000206000018190555050565b60046020528060005260406000206000915090508060000154908060010160009054906101000a900460ff16908060010160019054906101000a900473ffffffffffffffffffffffffffffffffffffffff16908060020154905084565b6000600254905090565b61084e6109d3565b60058281548110610888577f4e487b7100000000000000000000000000000000000000000000000000000000600052603260045260246000fd5b90600052602060002090600202016040518060400160405290816000820180546108b190611029565b80601f01602080910402602001604051908101604052809291908181526020018280546108dd90611029565b801561092a5780601f106108ff5761010080835404028352916020019161092a565b820191906000526020600020905b81548152906001019060200180831161090d57829003601f168201915b505050505081526020016001820154815250509050919050565b42600181905550565b82805461095990611029565b90600052602060002090601f01602090048101928261097b57600085556109c2565b82601f1061099457805160ff19168380011785556109c2565b828001600101855582156109c2579182015b828111156109c15782518255916020019190600101906109a6565b5b5090506109cf91906109ed565b5090565b604051806040016040528060608152602001600081525090565b5b80821115610a065760008160009055506001016109ee565b5090565b6000610a1d610a1884610e87565b610e56565b9050808382526020820190508260005b85811015610a5d5781358501610a438882610ae4565b845260208401935060208301925050600181019050610a2d565b5050509392505050565b6000610a7a610a7584610eb3565b610e56565b905082815260208101848484011115610a9257600080fd5b610a9d848285610fe7565b509392505050565b600081359050610ab481611142565b92915050565b600082601f830112610acb57600080fd5b8135610adb848260208601610a0a565b91505092915050565b600082601f830112610af557600080fd5b8135610b05848260208601610a67565b91505092915050565b600081359050610b1d81611159565b92915050565b600060208284031215610b3557600080fd5b6000610b4384828501610aa5565b91505092915050565b600060208284031215610b5e57600080fd5b600082013567ffffffffffffffff811115610b7857600080fd5b610b8484828501610aba565b91505092915050565b600060208284031215610b9f57600080fd5b6000610bad84828501610b0e565b91505092915050565b6000610bc28383610ccf565b905092915050565b610bd381610f9f565b82525050565b6000610be482610ef3565b610bee8185610f16565b935083602082028501610c0085610ee3565b8060005b85811015610c3c5784840389528151610c1d8582610bb6565b9450610c2883610f09565b925060208a01995050600181019050610c04565b50829750879550505050505092915050565b610c5781610fb1565b82525050565b6000610c6882610efe565b610c728185610f27565b9350610c82818560208601610ff6565b610c8b81611131565b840191505092915050565b6000610ca182610efe565b610cab8185610f38565b9350610cbb818560208601610ff6565b610cc481611131565b840191505092915050565b60006040830160008301518482036000860152610cec8282610c5d565b9150506020830151610d016020860182610d49565b508091505092915050565b60006040830160008301518482036000860152610d298282610c5d565b9150506020830151610d3e6020860182610d49565b508091505092915050565b610d5281610fdd565b82525050565b610d6181610fdd565b82525050565b6000602082019050610d7c6000830184610bca565b92915050565b60006020820190508181036000830152610d9c8184610bd9565b905092915050565b60006040820190508181036000830152610dbe8185610c96565b9050610dcd6020830184610d58565b9392505050565b60006020820190508181036000830152610dee8184610d0c565b905092915050565b6000602082019050610e0b6000830184610d58565b92915050565b6000608082019050610e266000830187610d58565b610e336020830186610c4e565b610e406040830185610bca565b610e4d6060830184610d58565b95945050505050565b6000604051905081810181811067ffffffffffffffff82111715610e7d57610e7c611102565b5b8060405250919050565b600067ffffffffffffffff821115610ea257610ea1611102565b5b602082029050602081019050919050565b600067ffffffffffffffff821115610ece57610ecd611102565b5b601f19601f8301169050602081019050919050565b6000819050602082019050919050565b600081519050919050565b600081519050919050565b6000602082019050919050565b600082825260208201905092915050565b600082825260208201905092915050565b600082825260208201905092915050565b6000610f5482610fdd565b9150610f5f83610fdd565b9250827fffffffffffffffffffffffffffffffffffffffffffffffffffffffffffffffff03821115610f9457610f936110a4565b5b828201905092915050565b6000610faa82610fbd565b9050919050565b60008115159050919050565b600073ffffffffffffffffffffffffffffffffffffffff82169050919050565b6000819050919050565b82818337600083830152505050565b60005b83811015611014578082015181840152602081019050610ff9565b83811115611023576000848401525b50505050565b6000600282049050600182168061104157607f821691505b60208210811415611055576110546110d3565b5b50919050565b600061106682610fdd565b91507fffffffffffffffffffffffffffffffffffffffffffffffffffffffffffffffff821415611099576110986110a4565b5b600182019050919050565b7f4e487b7100000000000000000000000000000000000000000000000000000000600052601160045260246000fd5b7f4e487b7100000000000000000000000000000000000000000000000000000000600052602260045260246000fd5b7f4e487b7100000000000000000000000000000000000000000000000000000000600052604160045260246000fd5b6000601f19601f8301169050919050565b61114b81610f9f565b811461115657600080fd5b50565b61116281610fdd565b811461116d57600080fd5b5056fea264697066735822122099dd89de6c57d6959533c1828ff9e428c5721b1714f36fac7005984e2d78bf5064736f6c63430008000033",
					"opcodes": "PUSH1 0x80 PUSH1 0x40 MSTORE CALLVALUE DUP1 ISZERO PUSH2 0x10 JUMPI PUSH1 0x0 DUP1 REVERT JUMPDEST POP PUSH2 0x11A6 DUP1 PUSH2 0x20 PUSH1 0x0 CODECOPY PUSH1 0x0 RETURN INVALID PUSH1 0x80 PUSH1 0x40 MSTORE CALLVALUE DUP1 ISZERO PUSH2 0x10 JUMPI PUSH1 0x0 DUP1 REVERT JUMPDEST POP PUSH1 0x4 CALLDATASIZE LT PUSH2 0xA9 JUMPI PUSH1 0x0 CALLDATALOAD PUSH1 0xE0 SHR DUP1 PUSH4 0x7A16FCB0 GT PUSH2 0x71 JUMPI DUP1 PUSH4 0x7A16FCB0 EQ PUSH2 0x155 JUMPI DUP1 PUSH4 0x836BC692 EQ PUSH2 0x173 JUMPI DUP1 PUSH4 0x9E7B8D61 EQ PUSH2 0x18F JUMPI DUP1 PUSH4 0xA3EC138D EQ PUSH2 0x1AB JUMPI DUP1 PUSH4 0xB1356488 EQ PUSH2 0x1DE JUMPI DUP1 PUSH4 0xE9D6C6DA EQ PUSH2 0x1FC JUMPI PUSH2 0xA9 JUMP JUMPDEST DUP1 PUSH4 0x121B93F EQ PUSH2 0xAE JUMPI DUP1 PUSH4 0x13CF08B EQ PUSH2 0xCA JUMPI DUP1 PUSH4 0xA82DCB1 EQ PUSH2 0xFB JUMPI DUP1 PUSH4 0x62564C48 EQ PUSH2 0x119 JUMPI DUP1 PUSH4 0x78F305C6 EQ PUSH2 0x137 JUMPI JUMPDEST PUSH1 0x0 DUP1 REVERT JUMPDEST PUSH2 0xC8 PUSH1 0x4 DUP1 CALLDATASIZE SUB DUP2 ADD SWAP1 PUSH2 0xC3 SWAP2 SWAP1 PUSH2 0xB8D JUMP JUMPDEST PUSH2 0x22C JUMP JUMPDEST STOP JUMPDEST PUSH2 0xE4 PUSH1 0x4 DUP1 CALLDATASIZE SUB DUP2 ADD SWAP1 PUSH2 0xDF SWAP2 SWAP1 PUSH2 0xB8D JUMP JUMPDEST PUSH2 0x31B JUMP JUMPDEST PUSH1 0x40 MLOAD PUSH2 0xF2 SWAP3 SWAP2 SWAP1 PUSH2 0xDA4 JUMP JUMPDEST PUSH1 0x40 MLOAD DUP1 SWAP2 SUB SWAP1 RETURN JUMPDEST PUSH2 0x103 PUSH2 0x3D7 JUMP JUMPDEST PUSH1 0x40 MLOAD PUSH2 0x110 SWAP2 SWAP1 PUSH2 0xDF6 JUMP JUMPDEST PUSH1 0x40 MLOAD DUP1 SWAP2 SUB SWAP1 RETURN JUMPDEST PUSH2 0x121 PUSH2 0x3E1 JUMP JUMPDEST PUSH1 0x40 MLOAD PUSH2 0x12E SWAP2 SWAP1 PUSH2 0xD82 JUMP JUMPDEST PUSH1 0x40 MLOAD DUP1 SWAP2 SUB SWAP1 RETURN JUMPDEST PUSH2 0x13F PUSH2 0x4DC JUMP JUMPDEST PUSH1 0x40 MLOAD PUSH2 0x14C SWAP2 SWAP1 PUSH2 0xDF6 JUMP JUMPDEST PUSH1 0x40 MLOAD DUP1 SWAP2 SUB SWAP1 RETURN JUMPDEST PUSH2 0x15D PUSH2 0x4E6 JUMP JUMPDEST PUSH1 0x40 MLOAD PUSH2 0x16A SWAP2 SWAP1 PUSH2 0xD67 JUMP JUMPDEST PUSH1 0x40 MLOAD DUP1 SWAP2 SUB SWAP1 RETURN JUMPDEST PUSH2 0x18D PUSH1 0x4 DUP1 CALLDATASIZE SUB DUP2 ADD SWAP1 PUSH2 0x188 SWAP2 SWAP1 PUSH2 0xB4C JUMP JUMPDEST PUSH2 0x50F JUMP JUMPDEST STOP JUMPDEST PUSH2 0x1A9 PUSH1 0x4 DUP1 CALLDATASIZE SUB DUP2 ADD SWAP1 PUSH2 0x1A4 SWAP2 SWAP1 PUSH2 0xB23 JUMP JUMPDEST PUSH2 0x695 JUMP JUMPDEST STOP JUMPDEST PUSH2 0x1C5 PUSH1 0x4 DUP1 CALLDATASIZE SUB DUP2 ADD SWAP1 PUSH2 0x1C0 SWAP2 SWAP1 PUSH2 0xB23 JUMP JUMPDEST PUSH2 0x7DF JUMP JUMPDEST PUSH1 0x40 MLOAD PUSH2 0x1D5 SWAP5 SWAP4 SWAP3 SWAP2 SWAP1 PUSH2 0xE11 JUMP JUMPDEST PUSH1 0x40 MLOAD DUP1 SWAP2 SUB SWAP1 RETURN JUMPDEST PUSH2 0x1E6 PUSH2 0x83C JUMP JUMPDEST PUSH1 0x40 MLOAD PUSH2 0x1F3 SWAP2 SWAP1 PUSH2 0xDF6 JUMP JUMPDEST PUSH1 0x40 MLOAD DUP1 SWAP2 SUB SWAP1 RETURN JUMPDEST PUSH2 0x216 PUSH1 0x4 DUP1 CALLDATASIZE SUB DUP2 ADD SWAP1 PUSH2 0x211 SWAP2 SWAP1 PUSH2 0xB8D JUMP JUMPDEST PUSH2 0x846 JUMP JUMPDEST PUSH1 0x40 MLOAD PUSH2 0x223 SWAP2 SWAP1 PUSH2 0xDD4 JUMP JUMPDEST PUSH1 0x40 MLOAD DUP1 SWAP2 SUB SWAP1 RETURN JUMPDEST PUSH1 0x0 PUSH1 0x4 PUSH1 0x0 CALLER PUSH20 0xFFFFFFFFFFFFFFFFFFFFFFFFFFFFFFFFFFFFFFFF AND PUSH20 0xFFFFFFFFFFFFFFFFFFFFFFFFFFFFFFFFFFFFFFFF AND DUP2 MSTORE PUSH1 0x20 ADD SWAP1 DUP2 MSTORE PUSH1 0x20 ADD PUSH1 0x0 KECCAK256 SWAP1 POP DUP1 PUSH1 0x1 ADD PUSH1 0x0 SWAP1 SLOAD SWAP1 PUSH2 0x100 EXP SWAP1 DIV PUSH1 0xFF AND ISZERO PUSH2 0x28B JUMPI PUSH1 0x0 DUP1 REVERT JUMPDEST PUSH1 0x1 DUP2 PUSH1 0x1 ADD PUSH1 0x0 PUSH2 0x100 EXP DUP2 SLOAD DUP2 PUSH1 0xFF MUL NOT AND SWAP1 DUP4 ISZERO ISZERO MUL OR SWAP1 SSTORE POP DUP2 DUP2 PUSH1 0x2 ADD DUP2 SWAP1 SSTORE POP DUP1 PUSH1 0x0 ADD SLOAD PUSH1 0x5 DUP4 DUP2 SLOAD DUP2 LT PUSH2 0x2F0 JUMPI PUSH32 0x4E487B7100000000000000000000000000000000000000000000000000000000 PUSH1 0x0 MSTORE PUSH1 0x32 PUSH1 0x4 MSTORE PUSH1 0x24 PUSH1 0x0 REVERT JUMPDEST SWAP1 PUSH1 0x0 MSTORE PUSH1 0x20 PUSH1 0x0 KECCAK256 SWAP1 PUSH1 0x2 MUL ADD PUSH1 0x1 ADD PUSH1 0x0 DUP3 DUP3 SLOAD PUSH2 0x310 SWAP2 SWAP1 PUSH2 0xF49 JUMP JUMPDEST SWAP3 POP POP DUP2 SWAP1 SSTORE POP POP POP JUMP JUMPDEST PUSH1 0x5 DUP2 DUP2 SLOAD DUP2 LT PUSH2 0x32B JUMPI PUSH1 0x0 DUP1 REVERT JUMPDEST SWAP1 PUSH1 0x0 MSTORE PUSH1 0x20 PUSH1 0x0 KECCAK256 SWAP1 PUSH1 0x2 MUL ADD PUSH1 0x0 SWAP2 POP SWAP1 POP DUP1 PUSH1 0x0 ADD DUP1 SLOAD PUSH2 0x34E SWAP1 PUSH2 0x1029 JUMP JUMPDEST DUP1 PUSH1 0x1F ADD PUSH1 0x20 DUP1 SWAP2 DIV MUL PUSH1 0x20 ADD PUSH1 0x40 MLOAD SWAP1 DUP2 ADD PUSH1 0x40 MSTORE DUP1 SWAP3 SWAP2 SWAP1 DUP2 DUP2 MSTORE PUSH1 0x20 ADD DUP3 DUP1 SLOAD PUSH2 0x37A SWAP1 PUSH2 0x1029 JUMP JUMPDEST DUP1 ISZERO PUSH2 0x3C7 JUMPI DUP1 PUSH1 0x1F LT PUSH2 0x39C JUMPI PUSH2 0x100 DUP1 DUP4 SLOAD DIV MUL DUP4 MSTORE SWAP2 PUSH1 0x20 ADD SWAP2 PUSH2 0x3C7 JUMP JUMPDEST DUP3 ADD SWAP2 SWAP1 PUSH1 0x0 MSTORE PUSH1 0x20 PUSH1 0x0 KECCAK256 SWAP1 JUMPDEST DUP2 SLOAD DUP2 MSTORE SWAP1 PUSH1 0x1 ADD SWAP1 PUSH1 0x20 ADD DUP1 DUP4 GT PUSH2 0x3AA JUMPI DUP3 SWAP1 SUB PUSH1 0x1F AND DUP3 ADD SWAP2 JUMPDEST POP POP POP POP POP SWAP1 DUP1 PUSH1 0x1 ADD SLOAD SWAP1 POP DUP3 JUMP JUMPDEST PUSH1 0x0 PUSH1 0x3 SLOAD SWAP1 POP SWAP1 JUMP JUMPDEST PUSH1 0x60 PUSH1 0x5 DUP1 SLOAD DUP1 PUSH1 0x20 MUL PUSH1 0x20 ADD PUSH1 0x40 MLOAD SWAP1 DUP2 ADD PUSH1 0x40 MSTORE DUP1 SWAP3 SWAP2 SWAP1 DUP2 DUP2 MSTORE PUSH1 0x20 ADD PUSH1 0x0 SWAP1 JUMPDEST DUP3 DUP3 LT ISZERO PUSH2 0x4D3 JUMPI DUP4 DUP3 SWAP1 PUSH1 0x0 MSTORE PUSH1 0x20 PUSH1 0x0 KECCAK256 SWAP1 PUSH1 0x2 MUL ADD PUSH1 0x40 MLOAD DUP1 PUSH1 0x40 ADD PUSH1 0x40 MSTORE SWAP1 DUP2 PUSH1 0x0 DUP3 ADD DUP1 SLOAD PUSH2 0x438 SWAP1 PUSH2 0x1029 JUMP JUMPDEST DUP1 PUSH1 0x1F ADD PUSH1 0x20 DUP1 SWAP2 DIV MUL PUSH1 0x20 ADD PUSH1 0x40 MLOAD SWAP1 DUP2 ADD PUSH1 0x40 MSTORE DUP1 SWAP3 SWAP2 SWAP1 DUP2 DUP2 MSTORE PUSH1 0x20 ADD DUP3 DUP1 SLOAD PUSH2 0x464 SWAP1 PUSH2 0x1029 JUMP JUMPDEST DUP1 ISZERO PUSH2 0x4B1 JUMPI DUP1 PUSH1 0x1F LT PUSH2 0x486 JUMPI PUSH2 0x100 DUP1 DUP4 SLOAD DIV MUL DUP4 MSTORE SWAP2 PUSH1 0x20 ADD SWAP2 PUSH2 0x4B1 JUMP JUMPDEST DUP3 ADD SWAP2 SWAP1 PUSH1 0x0 MSTORE PUSH1 0x20 PUSH1 0x0 KECCAK256 SWAP1 JUMPDEST DUP2 SLOAD DUP2 MSTORE SWAP1 PUSH1 0x1 ADD SWAP1 PUSH1 0x20 ADD DUP1 DUP4 GT PUSH2 0x494 JUMPI DUP3 SWAP1 SUB PUSH1 0x1F AND DUP3 ADD SWAP2 JUMPDEST POP POP POP POP POP DUP2 MSTORE PUSH1 0x20 ADD PUSH1 0x1 DUP3 ADD SLOAD DUP2 MSTORE POP POP DUP2 MSTORE PUSH1 0x20 ADD SWAP1 PUSH1 0x1 ADD SWAP1 PUSH2 0x405 JUMP JUMPDEST POP POP POP POP SWAP1 POP SWAP1 JUMP JUMPDEST PUSH1 0x0 PUSH1 0x1 SLOAD SWAP1 POP SWAP1 JUMP JUMPDEST PUSH1 0x0 DUP1 PUSH1 0x0 SWAP1 SLOAD SWAP1 PUSH2 0x100 EXP SWAP1 DIV PUSH20 0xFFFFFFFFFFFFFFFFFFFFFFFFFFFFFFFFFFFFFFFF AND SWAP1 POP SWAP1 JUMP JUMPDEST CALLER PUSH1 0x0 DUP1 PUSH2 0x100 EXP DUP2 SLOAD DUP2 PUSH20 0xFFFFFFFFFFFFFFFFFFFFFFFFFFFFFFFFFFFFFFFF MUL NOT AND SWAP1 DUP4 PUSH20 0xFFFFFFFFFFFFFFFFFFFFFFFFFFFFFFFFFFFFFFFF AND MUL OR SWAP1 SSTORE POP PUSH1 0x1 PUSH1 0x4 PUSH1 0x0 DUP1 PUSH1 0x0 SWAP1 SLOAD SWAP1 PUSH2 0x100 EXP SWAP1 DIV PUSH20 0xFFFFFFFFFFFFFFFFFFFFFFFFFFFFFFFFFFFFFFFF AND PUSH20 0xFFFFFFFFFFFFFFFFFFFFFFFFFFFFFFFFFFFFFFFF AND PUSH20 0xFFFFFFFFFFFFFFFFFFFFFFFFFFFFFFFFFFFFFFFF AND DUP2 MSTORE PUSH1 0x20 ADD SWAP1 DUP2 MSTORE PUSH1 0x20 ADD PUSH1 0x0 KECCAK256 PUSH1 0x0 ADD DUP2 SWAP1 SSTORE POP PUSH2 0x5C0 PUSH2 0x944 JUMP JUMPDEST DUP1 MLOAD PUSH1 0x3 DUP2 SWAP1 SSTORE POP PUSH1 0x0 JUMPDEST DUP2 MLOAD DUP2 LT ISZERO PUSH2 0x691 JUMPI PUSH1 0x5 PUSH1 0x40 MLOAD DUP1 PUSH1 0x40 ADD PUSH1 0x40 MSTORE DUP1 DUP5 DUP5 DUP2 MLOAD DUP2 LT PUSH2 0x61A JUMPI PUSH32 0x4E487B7100000000000000000000000000000000000000000000000000000000 PUSH1 0x0 MSTORE PUSH1 0x32 PUSH1 0x4 MSTORE PUSH1 0x24 PUSH1 0x0 REVERT JUMPDEST PUSH1 0x20 MUL PUSH1 0x20 ADD ADD MLOAD DUP2 MSTORE PUSH1 0x20 ADD PUSH1 0x0 DUP2 MSTORE POP SWAP1 DUP1 PUSH1 0x1 DUP2 SLOAD ADD DUP1 DUP3 SSTORE DUP1 SWAP2 POP POP PUSH1 0x1 SWAP1 SUB SWAP1 PUSH1 0x0 MSTORE PUSH1 0x20 PUSH1 0x0 KECCAK256 SWAP1 PUSH1 0x2 MUL ADD PUSH1 0x0 SWAP1 SWAP2 SWAP1 SWAP2 SWAP1 SWAP2 POP PUSH1 0x0 DUP3 ADD MLOAD DUP2 PUSH1 0x0 ADD SWAP1 DUP1 MLOAD SWAP1 PUSH1 0x20 ADD SWAP1 PUSH2 0x671 SWAP3 SWAP2 SWAP1 PUSH2 0x94D JUMP JUMPDEST POP PUSH1 0x20 DUP3 ADD MLOAD DUP2 PUSH1 0x1 ADD SSTORE POP POP DUP1 DUP1 PUSH2 0x689 SWAP1 PUSH2 0x105B JUMP JUMPDEST SWAP2 POP POP PUSH2 0x5CB JUMP JUMPDEST POP POP JUMP JUMPDEST PUSH1 0x0 DUP1 SLOAD SWAP1 PUSH2 0x100 EXP SWAP1 DIV PUSH20 0xFFFFFFFFFFFFFFFFFFFFFFFFFFFFFFFFFFFFFFFF AND PUSH20 0xFFFFFFFFFFFFFFFFFFFFFFFFFFFFFFFFFFFFFFFF AND CALLER PUSH20 0xFFFFFFFFFFFFFFFFFFFFFFFFFFFFFFFFFFFFFFFF AND EQ DUP1 ISZERO PUSH2 0x73D JUMPI POP PUSH1 0x4 PUSH1 0x0 DUP3 PUSH20 0xFFFFFFFFFFFFFFFFFFFFFFFFFFFFFFFFFFFFFFFF AND PUSH20 0xFFFFFFFFFFFFFFFFFFFFFFFFFFFFFFFFFFFFFFFF AND DUP2 MSTORE PUSH1 0x20 ADD SWAP1 DUP2 MSTORE PUSH1 0x20 ADD PUSH1 0x0 KECCAK256 PUSH1 0x1 ADD PUSH1 0x0 SWAP1 SLOAD SWAP1 PUSH2 0x100 EXP SWAP1 DIV PUSH1 0xFF AND ISZERO JUMPDEST DUP1 ISZERO PUSH2 0x78B JUMPI POP PUSH1 0x0 PUSH1 0x4 PUSH1 0x0 DUP4 PUSH20 0xFFFFFFFFFFFFFFFFFFFFFFFFFFFFFFFFFFFFFFFF AND PUSH20 0xFFFFFFFFFFFFFFFFFFFFFFFFFFFFFFFFFFFFFFFF AND DUP2 MSTORE PUSH1 0x20 ADD SWAP1 DUP2 MSTORE PUSH1 0x20 ADD PUSH1 0x0 KECCAK256 PUSH1 0x0 ADD SLOAD EQ JUMPDEST PUSH2 0x794 JUMPI PUSH1 0x0 DUP1 REVERT JUMPDEST PUSH1 0x1 PUSH1 0x4 PUSH1 0x0 DUP4 PUSH20 0xFFFFFFFFFFFFFFFFFFFFFFFFFFFFFFFFFFFFFFFF AND PUSH20 0xFFFFFFFFFFFFFFFFFFFFFFFFFFFFFFFFFFFFFFFF AND DUP2 MSTORE PUSH1 0x20 ADD SWAP1 DUP2 MSTORE PUSH1 0x20 ADD PUSH1 0x0 KECCAK256 PUSH1 0x0 ADD DUP2 SWAP1 SSTORE POP POP JUMP JUMPDEST PUSH1 0x4 PUSH1 0x20 MSTORE DUP1 PUSH1 0x0 MSTORE PUSH1 0x40 PUSH1 0x0 KECCAK256 PUSH1 0x0 SWAP2 POP SWAP1 POP DUP1 PUSH1 0x0 ADD SLOAD SWAP1 DUP1 PUSH1 0x1 ADD PUSH1 0x0 SWAP1 SLOAD SWAP1 PUSH2 0x100 EXP SWAP1 DIV PUSH1 0xFF AND SWAP1 DUP1 PUSH1 0x1 ADD PUSH1 0x1 SWAP1 SLOAD SWAP1 PUSH2 0x100 EXP SWAP1 DIV PUSH20 0xFFFFFFFFFFFFFFFFFFFFFFFFFFFFFFFFFFFFFFFF AND SWAP1 DUP1 PUSH1 0x2 ADD SLOAD SWAP1 POP DUP5 JUMP JUMPDEST PUSH1 0x0 PUSH1 0x2 SLOAD SWAP1 POP SWAP1 JUMP JUMPDEST PUSH2 0x84E PUSH2 0x9D3 JUMP JUMPDEST PUSH1 0x5 DUP3 DUP2 SLOAD DUP2 LT PUSH2 0x888 JUMPI PUSH32 0x4E487B7100000000000000000000000000000000000000000000000000000000 PUSH1 0x0 MSTORE PUSH1 0x32 PUSH1 0x4 MSTORE PUSH1 0x24 PUSH1 0x0 REVERT JUMPDEST SWAP1 PUSH1 0x0 MSTORE PUSH1 0x20 PUSH1 0x0 KECCAK256 SWAP1 PUSH1 0x2 MUL ADD PUSH1 0x40 MLOAD DUP1 PUSH1 0x40 ADD PUSH1 0x40 MSTORE SWAP1 DUP2 PUSH1 0x0 DUP3 ADD DUP1 SLOAD PUSH2 0x8B1 SWAP1 PUSH2 0x1029 JUMP JUMPDEST DUP1 PUSH1 0x1F ADD PUSH1 0x20 DUP1 SWAP2 DIV MUL PUSH1 0x20 ADD PUSH1 0x40 MLOAD SWAP1 DUP2 ADD PUSH1 0x40 MSTORE DUP1 SWAP3 SWAP2 SWAP1 DUP2 DUP2 MSTORE PUSH1 0x20 ADD DUP3 DUP1 SLOAD PUSH2 0x8DD SWAP1 PUSH2 0x1029 JUMP JUMPDEST DUP1 ISZERO PUSH2 0x92A JUMPI DUP1 PUSH1 0x1F LT PUSH2 0x8FF JUMPI PUSH2 0x100 DUP1 DUP4 SLOAD DIV MUL DUP4 MSTORE SWAP2 PUSH1 0x20 ADD SWAP2 PUSH2 0x92A JUMP JUMPDEST DUP3 ADD SWAP2 SWAP1 PUSH1 0x0 MSTORE PUSH1 0x20 PUSH1 0x0 KECCAK256 SWAP1 JUMPDEST DUP2 SLOAD DUP2 MSTORE SWAP1 PUSH1 0x1 ADD SWAP1 PUSH1 0x20 ADD DUP1 DUP4 GT PUSH2 0x90D JUMPI DUP3 SWAP1 SUB PUSH1 0x1F AND DUP3 ADD SWAP2 JUMPDEST POP POP POP POP POP DUP2 MSTORE PUSH1 0x20 ADD PUSH1 0x1 DUP3 ADD SLOAD DUP2 MSTORE POP POP SWAP1 POP SWAP2 SWAP1 POP JUMP JUMPDEST TIMESTAMP PUSH1 0x1 DUP2 SWAP1 SSTORE POP JUMP JUMPDEST DUP3 DUP1 SLOAD PUSH2 0x959 SWAP1 PUSH2 0x1029 JUMP JUMPDEST SWAP1 PUSH1 0x0 MSTORE PUSH1 0x20 PUSH1 0x0 KECCAK256 SWAP1 PUSH1 0x1F ADD PUSH1 0x20 SWAP1 DIV DUP2 ADD SWAP3 DUP3 PUSH2 0x97B JUMPI PUSH1 0x0 DUP6 SSTORE PUSH2 0x9C2 JUMP JUMPDEST DUP3 PUSH1 0x1F LT PUSH2 0x994 JUMPI DUP1 MLOAD PUSH1 0xFF NOT AND DUP4 DUP1 ADD OR DUP6 SSTORE PUSH2 0x9C2 JUMP JUMPDEST DUP3 DUP1 ADD PUSH1 0x1 ADD DUP6 SSTORE DUP3 ISZERO PUSH2 0x9C2 JUMPI SWAP2 DUP3 ADD JUMPDEST DUP3 DUP2 GT ISZERO PUSH2 0x9C1 JUMPI DUP3 MLOAD DUP3 SSTORE SWAP2 PUSH1 0x20 ADD SWAP2 SWAP1 PUSH1 0x1 ADD SWAP1 PUSH2 0x9A6 JUMP JUMPDEST JUMPDEST POP SWAP1 POP PUSH2 0x9CF SWAP2 SWAP1 PUSH2 0x9ED JUMP JUMPDEST POP SWAP1 JUMP JUMPDEST PUSH1 0x40 MLOAD DUP1 PUSH1 0x40 ADD PUSH1 0x40 MSTORE DUP1 PUSH1 0x60 DUP2 MSTORE PUSH1 0x20 ADD PUSH1 0x0 DUP2 MSTORE POP SWAP1 JUMP JUMPDEST JUMPDEST DUP1 DUP3 GT ISZERO PUSH2 0xA06 JUMPI PUSH1 0x0 DUP2 PUSH1 0x0 SWAP1 SSTORE POP PUSH1 0x1 ADD PUSH2 0x9EE JUMP JUMPDEST POP SWAP1 JUMP JUMPDEST PUSH1 0x0 PUSH2 0xA1D PUSH2 0xA18 DUP5 PUSH2 0xE87 JUMP JUMPDEST PUSH2 0xE56 JUMP JUMPDEST SWAP1 POP DUP1 DUP4 DUP3 MSTORE PUSH1 0x20 DUP3 ADD SWAP1 POP DUP3 PUSH1 0x0 JUMPDEST DUP6 DUP2 LT ISZERO PUSH2 0xA5D JUMPI DUP2 CALLDATALOAD DUP6 ADD PUSH2 0xA43 DUP9 DUP3 PUSH2 0xAE4 JUMP JUMPDEST DUP5 MSTORE PUSH1 0x20 DUP5 ADD SWAP4 POP PUSH1 0x20 DUP4 ADD SWAP3 POP POP PUSH1 0x1 DUP2 ADD SWAP1 POP PUSH2 0xA2D JUMP JUMPDEST POP POP POP SWAP4 SWAP3 POP POP POP JUMP JUMPDEST PUSH1 0x0 PUSH2 0xA7A PUSH2 0xA75 DUP5 PUSH2 0xEB3 JUMP JUMPDEST PUSH2 0xE56 JUMP JUMPDEST SWAP1 POP DUP3 DUP2 MSTORE PUSH1 0x20 DUP2 ADD DUP5 DUP5 DUP5 ADD GT ISZERO PUSH2 0xA92 JUMPI PUSH1 0x0 DUP1 REVERT JUMPDEST PUSH2 0xA9D DUP5 DUP3 DUP6 PUSH2 0xFE7 JUMP JUMPDEST POP SWAP4 SWAP3 POP POP POP JUMP JUMPDEST PUSH1 0x0 DUP2 CALLDATALOAD SWAP1 POP PUSH2 0xAB4 DUP2 PUSH2 0x1142 JUMP JUMPDEST SWAP3 SWAP2 POP POP JUMP JUMPDEST PUSH1 0x0 DUP3 PUSH1 0x1F DUP4 ADD SLT PUSH2 0xACB JUMPI PUSH1 0x0 DUP1 REVERT JUMPDEST DUP2 CALLDATALOAD PUSH2 0xADB DUP5 DUP3 PUSH1 0x20 DUP7 ADD PUSH2 0xA0A JUMP JUMPDEST SWAP2 POP POP SWAP3 SWAP2 POP POP JUMP JUMPDEST PUSH1 0x0 DUP3 PUSH1 0x1F DUP4 ADD SLT PUSH2 0xAF5 JUMPI PUSH1 0x0 DUP1 REVERT JUMPDEST DUP2 CALLDATALOAD PUSH2 0xB05 DUP5 DUP3 PUSH1 0x20 DUP7 ADD PUSH2 0xA67 JUMP JUMPDEST SWAP2 POP POP SWAP3 SWAP2 POP POP JUMP JUMPDEST PUSH1 0x0 DUP2 CALLDATALOAD SWAP1 POP PUSH2 0xB1D DUP2 PUSH2 0x1159 JUMP JUMPDEST SWAP3 SWAP2 POP POP JUMP JUMPDEST PUSH1 0x0 PUSH1 0x20 DUP3 DUP5 SUB SLT ISZERO PUSH2 0xB35 JUMPI PUSH1 0x0 DUP1 REVERT JUMPDEST PUSH1 0x0 PUSH2 0xB43 DUP5 DUP3 DUP6 ADD PUSH2 0xAA5 JUMP JUMPDEST SWAP2 POP POP SWAP3 SWAP2 POP POP JUMP JUMPDEST PUSH1 0x0 PUSH1 0x20 DUP3 DUP5 SUB SLT ISZERO PUSH2 0xB5E JUMPI PUSH1 0x0 DUP1 REVERT JUMPDEST PUSH1 0x0 DUP3 ADD CALLDATALOAD PUSH8 0xFFFFFFFFFFFFFFFF DUP2 GT ISZERO PUSH2 0xB78 JUMPI PUSH1 0x0 DUP1 REVERT JUMPDEST PUSH2 0xB84 DUP5 DUP3 DUP6 ADD PUSH2 0xABA JUMP JUMPDEST SWAP2 POP POP SWAP3 SWAP2 POP POP JUMP JUMPDEST PUSH1 0x0 PUSH1 0x20 DUP3 DUP5 SUB SLT ISZERO PUSH2 0xB9F JUMPI PUSH1 0x0 DUP1 REVERT JUMPDEST PUSH1 0x0 PUSH2 0xBAD DUP5 DUP3 DUP6 ADD PUSH2 0xB0E JUMP JUMPDEST SWAP2 POP POP SWAP3 SWAP2 POP POP JUMP JUMPDEST PUSH1 0x0 PUSH2 0xBC2 DUP4 DUP4 PUSH2 0xCCF JUMP JUMPDEST SWAP1 POP SWAP3 SWAP2 POP POP JUMP JUMPDEST PUSH2 0xBD3 DUP2 PUSH2 0xF9F JUMP JUMPDEST DUP3 MSTORE POP POP JUMP JUMPDEST PUSH1 0x0 PUSH2 0xBE4 DUP3 PUSH2 0xEF3 JUMP JUMPDEST PUSH2 0xBEE DUP2 DUP6 PUSH2 0xF16 JUMP JUMPDEST SWAP4 POP DUP4 PUSH1 0x20 DUP3 MUL DUP6 ADD PUSH2 0xC00 DUP6 PUSH2 0xEE3 JUMP JUMPDEST DUP1 PUSH1 0x0 JUMPDEST DUP6 DUP2 LT ISZERO PUSH2 0xC3C JUMPI DUP5 DUP5 SUB DUP10 MSTORE DUP2 MLOAD PUSH2 0xC1D DUP6 DUP3 PUSH2 0xBB6 JUMP JUMPDEST SWAP5 POP PUSH2 0xC28 DUP4 PUSH2 0xF09 JUMP JUMPDEST SWAP3 POP PUSH1 0x20 DUP11 ADD SWAP10 POP POP PUSH1 0x1 DUP2 ADD SWAP1 POP PUSH2 0xC04 JUMP JUMPDEST POP DUP3 SWAP8 POP DUP8 SWAP6 POP POP POP POP POP POP SWAP3 SWAP2 POP POP JUMP JUMPDEST PUSH2 0xC57 DUP2 PUSH2 0xFB1 JUMP JUMPDEST DUP3 MSTORE POP POP JUMP JUMPDEST PUSH1 0x0 PUSH2 0xC68 DUP3 PUSH2 0xEFE JUMP JUMPDEST PUSH2 0xC72 DUP2 DUP6 PUSH2 0xF27 JUMP JUMPDEST SWAP4 POP PUSH2 0xC82 DUP2 DUP6 PUSH1 0x20 DUP7 ADD PUSH2 0xFF6 JUMP JUMPDEST PUSH2 0xC8B DUP2 PUSH2 0x1131 JUMP JUMPDEST DUP5 ADD SWAP2 POP POP SWAP3 SWAP2 POP POP JUMP JUMPDEST PUSH1 0x0 PUSH2 0xCA1 DUP3 PUSH2 0xEFE JUMP JUMPDEST PUSH2 0xCAB DUP2 DUP6 PUSH2 0xF38 JUMP JUMPDEST SWAP4 POP PUSH2 0xCBB DUP2 DUP6 PUSH1 0x20 DUP7 ADD PUSH2 0xFF6 JUMP JUMPDEST PUSH2 0xCC4 DUP2 PUSH2 0x1131 JUMP JUMPDEST DUP5 ADD SWAP2 POP POP SWAP3 SWAP2 POP POP JUMP JUMPDEST PUSH1 0x0 PUSH1 0x40 DUP4 ADD PUSH1 0x0 DUP4 ADD MLOAD DUP5 DUP3 SUB PUSH1 0x0 DUP7 ADD MSTORE PUSH2 0xCEC DUP3 DUP3 PUSH2 0xC5D JUMP JUMPDEST SWAP2 POP POP PUSH1 0x20 DUP4 ADD MLOAD PUSH2 0xD01 PUSH1 0x20 DUP7 ADD DUP3 PUSH2 0xD49 JUMP JUMPDEST POP DUP1 SWAP2 POP POP SWAP3 SWAP2 POP POP JUMP JUMPDEST PUSH1 0x0 PUSH1 0x40 DUP4 ADD PUSH1 0x0 DUP4 ADD MLOAD DUP5 DUP3 SUB PUSH1 0x0 DUP7 ADD MSTORE PUSH2 0xD29 DUP3 DUP3 PUSH2 0xC5D JUMP JUMPDEST SWAP2 POP POP PUSH1 0x20 DUP4 ADD MLOAD PUSH2 0xD3E PUSH1 0x20 DUP7 ADD DUP3 PUSH2 0xD49 JUMP JUMPDEST POP DUP1 SWAP2 POP POP SWAP3 SWAP2 POP POP JUMP JUMPDEST PUSH2 0xD52 DUP2 PUSH2 0xFDD JUMP JUMPDEST DUP3 MSTORE POP POP JUMP JUMPDEST PUSH2 0xD61 DUP2 PUSH2 0xFDD JUMP JUMPDEST DUP3 MSTORE POP POP JUMP JUMPDEST PUSH1 0x0 PUSH1 0x20 DUP3 ADD SWAP1 POP PUSH2 0xD7C PUSH1 0x0 DUP4 ADD DUP5 PUSH2 0xBCA JUMP JUMPDEST SWAP3 SWAP2 POP POP JUMP JUMPDEST PUSH1 0x0 PUSH1 0x20 DUP3 ADD SWAP1 POP DUP2 DUP2 SUB PUSH1 0x0 DUP4 ADD MSTORE PUSH2 0xD9C DUP2 DUP5 PUSH2 0xBD9 JUMP JUMPDEST SWAP1 POP SWAP3 SWAP2 POP POP JUMP JUMPDEST PUSH1 0x0 PUSH1 0x40 DUP3 ADD SWAP1 POP DUP2 DUP2 SUB PUSH1 0x0 DUP4 ADD MSTORE PUSH2 0xDBE DUP2 DUP6 PUSH2 0xC96 JUMP JUMPDEST SWAP1 POP PUSH2 0xDCD PUSH1 0x20 DUP4 ADD DUP5 PUSH2 0xD58 JUMP JUMPDEST SWAP4 SWAP3 POP POP POP JUMP JUMPDEST PUSH1 0x0 PUSH1 0x20 DUP3 ADD SWAP1 POP DUP2 DUP2 SUB PUSH1 0x0 DUP4 ADD MSTORE PUSH2 0xDEE DUP2 DUP5 PUSH2 0xD0C JUMP JUMPDEST SWAP1 POP SWAP3 SWAP2 POP POP JUMP JUMPDEST PUSH1 0x0 PUSH1 0x20 DUP3 ADD SWAP1 POP PUSH2 0xE0B PUSH1 0x0 DUP4 ADD DUP5 PUSH2 0xD58 JUMP JUMPDEST SWAP3 SWAP2 POP POP JUMP JUMPDEST PUSH1 0x0 PUSH1 0x80 DUP3 ADD SWAP1 POP PUSH2 0xE26 PUSH1 0x0 DUP4 ADD DUP8 PUSH2 0xD58 JUMP JUMPDEST PUSH2 0xE33 PUSH1 0x20 DUP4 ADD DUP7 PUSH2 0xC4E JUMP JUMPDEST PUSH2 0xE40 PUSH1 0x40 DUP4 ADD DUP6 PUSH2 0xBCA JUMP JUMPDEST PUSH2 0xE4D PUSH1 0x60 DUP4 ADD DUP5 PUSH2 0xD58 JUMP JUMPDEST SWAP6 SWAP5 POP POP POP POP POP JUMP JUMPDEST PUSH1 0x0 PUSH1 0x40 MLOAD SWAP1 POP DUP2 DUP2 ADD DUP2 DUP2 LT PUSH8 0xFFFFFFFFFFFFFFFF DUP3 GT OR ISZERO PUSH2 0xE7D JUMPI PUSH2 0xE7C PUSH2 0x1102 JUMP JUMPDEST JUMPDEST DUP1 PUSH1 0x40 MSTORE POP SWAP2 SWAP1 POP JUMP JUMPDEST PUSH1 0x0 PUSH8 0xFFFFFFFFFFFFFFFF DUP3 GT ISZERO PUSH2 0xEA2 JUMPI PUSH2 0xEA1 PUSH2 0x1102 JUMP JUMPDEST JUMPDEST PUSH1 0x20 DUP3 MUL SWAP1 POP PUSH1 0x20 DUP2 ADD SWAP1 POP SWAP2 SWAP1 POP JUMP JUMPDEST PUSH1 0x0 PUSH8 0xFFFFFFFFFFFFFFFF DUP3 GT ISZERO PUSH2 0xECE JUMPI PUSH2 0xECD PUSH2 0x1102 JUMP JUMPDEST JUMPDEST PUSH1 0x1F NOT PUSH1 0x1F DUP4 ADD AND SWAP1 POP PUSH1 0x20 DUP2 ADD SWAP1 POP SWAP2 SWAP1 POP JUMP JUMPDEST PUSH1 0x0 DUP2 SWAP1 POP PUSH1 0x20 DUP3 ADD SWAP1 POP SWAP2 SWAP1 POP JUMP JUMPDEST PUSH1 0x0 DUP2 MLOAD SWAP1 POP SWAP2 SWAP1 POP JUMP JUMPDEST PUSH1 0x0 DUP2 MLOAD SWAP1 POP SWAP2 SWAP1 POP JUMP JUMPDEST PUSH1 0x0 PUSH1 0x20 DUP3 ADD SWAP1 POP SWAP2 SWAP1 POP JUMP JUMPDEST PUSH1 0x0 DUP3 DUP3 MSTORE PUSH1 0x20 DUP3 ADD SWAP1 POP SWAP3 SWAP2 POP POP JUMP JUMPDEST PUSH1 0x0 DUP3 DUP3 MSTORE PUSH1 0x20 DUP3 ADD SWAP1 POP SWAP3 SWAP2 POP POP JUMP JUMPDEST PUSH1 0x0 DUP3 DUP3 MSTORE PUSH1 0x20 DUP3 ADD SWAP1 POP SWAP3 SWAP2 POP POP JUMP JUMPDEST PUSH1 0x0 PUSH2 0xF54 DUP3 PUSH2 0xFDD JUMP JUMPDEST SWAP2 POP PUSH2 0xF5F DUP4 PUSH2 0xFDD JUMP JUMPDEST SWAP3 POP DUP3 PUSH32 0xFFFFFFFFFFFFFFFFFFFFFFFFFFFFFFFFFFFFFFFFFFFFFFFFFFFFFFFFFFFFFFFF SUB DUP3 GT ISZERO PUSH2 0xF94 JUMPI PUSH2 0xF93 PUSH2 0x10A4 JUMP JUMPDEST JUMPDEST DUP3 DUP3 ADD SWAP1 POP SWAP3 SWAP2 POP POP JUMP JUMPDEST PUSH1 0x0 PUSH2 0xFAA DUP3 PUSH2 0xFBD JUMP JUMPDEST SWAP1 POP SWAP2 SWAP1 POP JUMP JUMPDEST PUSH1 0x0 DUP2 ISZERO ISZERO SWAP1 POP SWAP2 SWAP1 POP JUMP JUMPDEST PUSH1 0x0 PUSH20 0xFFFFFFFFFFFFFFFFFFFFFFFFFFFFFFFFFFFFFFFF DUP3 AND SWAP1 POP SWAP2 SWAP1 POP JUMP JUMPDEST PUSH1 0x0 DUP2 SWAP1 POP SWAP2 SWAP1 POP JUMP JUMPDEST DUP3 DUP2 DUP4 CALLDATACOPY PUSH1 0x0 DUP4 DUP4 ADD MSTORE POP POP POP JUMP JUMPDEST PUSH1 0x0 JUMPDEST DUP4 DUP2 LT ISZERO PUSH2 0x1014 JUMPI DUP1 DUP3 ADD MLOAD DUP2 DUP5 ADD MSTORE PUSH1 0x20 DUP2 ADD SWAP1 POP PUSH2 0xFF9 JUMP JUMPDEST DUP4 DUP2 GT ISZERO PUSH2 0x1023 JUMPI PUSH1 0x0 DUP5 DUP5 ADD MSTORE JUMPDEST POP POP POP POP JUMP JUMPDEST PUSH1 0x0 PUSH1 0x2 DUP3 DIV SWAP1 POP PUSH1 0x1 DUP3 AND DUP1 PUSH2 0x1041 JUMPI PUSH1 0x7F DUP3 AND SWAP2 POP JUMPDEST PUSH1 0x20 DUP3 LT DUP2 EQ ISZERO PUSH2 0x1055 JUMPI PUSH2 0x1054 PUSH2 0x10D3 JUMP JUMPDEST JUMPDEST POP SWAP2 SWAP1 POP JUMP JUMPDEST PUSH1 0x0 PUSH2 0x1066 DUP3 PUSH2 0xFDD JUMP JUMPDEST SWAP2 POP PUSH32 0xFFFFFFFFFFFFFFFFFFFFFFFFFFFFFFFFFFFFFFFFFFFFFFFFFFFFFFFFFFFFFFFF DUP3 EQ ISZERO PUSH2 0x1099 JUMPI PUSH2 0x1098 PUSH2 0x10A4 JUMP JUMPDEST JUMPDEST PUSH1 0x1 DUP3 ADD SWAP1 POP SWAP2 SWAP1 POP JUMP JUMPDEST PUSH32 0x4E487B7100000000000000000000000000000000000000000000000000000000 PUSH1 0x0 MSTORE PUSH1 0x11 PUSH1 0x4 MSTORE PUSH1 0x24 PUSH1 0x0 REVERT JUMPDEST PUSH32 0x4E487B7100000000000000000000000000000000000000000000000000000000 PUSH1 0x0 MSTORE PUSH1 0x22 PUSH1 0x4 MSTORE PUSH1 0x24 PUSH1 0x0 REVERT JUMPDEST PUSH32 0x4E487B7100000000000000000000000000000000000000000000000000000000 PUSH1 0x0 MSTORE PUSH1 0x41 PUSH1 0x4 MSTORE PUSH1 0x24 PUSH1 0x0 REVERT JUMPDEST PUSH1 0x0 PUSH1 0x1F NOT PUSH1 0x1F DUP4 ADD AND SWAP1 POP SWAP2 SWAP1 POP JUMP JUMPDEST PUSH2 0x114B DUP2 PUSH2 0xF9F JUMP JUMPDEST DUP2 EQ PUSH2 0x1156 JUMPI PUSH1 0x0 DUP1 REVERT JUMPDEST POP JUMP JUMPDEST PUSH2 0x1162 DUP2 PUSH2 0xFDD JUMP JUMPDEST DUP2 EQ PUSH2 0x116D JUMPI PUSH1 0x0 DUP1 REVERT JUMPDEST POP JUMP INVALID LOG2 PUSH5 0x6970667358 0x22 SLT KECCAK256 SWAP10 0xDD DUP10 0xDE PUSH13 0x57D6959533C1828FF9E428C572 SHL OR EQ RETURN PUSH16 0xAC7005984E2D78BF5064736F6C634300 ADDMOD STOP STOP CALLER "
				},
				"gasEstimates": {
					"creation": {
						"codeDepositCost": "903600",
						"executionCost": "942",
						"totalCost": "904542"
					},
					"external": {
						"createBallot(string[])": "infinite",
						"getCreatorBallot()": "1222",
						"getEndDate()": "1225",
						"getProposalStructure(uint256)": "infinite",
						"getProposals()": "infinite",
						"getStartDate()": "1226",
						"getnumOfProposals()": "1182",
						"giveRightToVote(address)": "23363",
						"proposals(uint256)": "infinite",
						"vote(uint256)": "infinite",
						"voters(address)": "infinite"
					},
					"internal": {
						"setEndDate()": "infinite",
						"setStartDate()": "20022"
					}
				},
				"methodIdentifiers": {
					"createBallot(string[])": "836bc692",
					"getCreatorBallot()": "7a16fcb0",
					"getEndDate()": "b1356488",
					"getProposalStructure(uint256)": "e9d6c6da",
					"getProposals()": "62564c48",
					"getStartDate()": "78f305c6",
					"getnumOfProposals()": "0a82dcb1",
					"giveRightToVote(address)": "9e7b8d61",
					"proposals(uint256)": "013cf08b",
					"vote(uint256)": "0121b93f",
					"voters(address)": "a3ec138d"
				}
			},
			"storageLayout": {
				"storage": [
					{
						"astId": 3,
						"contract": "contracts/prop_test.sol:Ballot",
						"label": "chairperson",
						"offset": 0,
						"slot": "0",
						"type": "t_address"
					},
					{
						"astId": 5,
						"contract": "contracts/prop_test.sol:Ballot",
						"label": "startDate",
						"offset": 0,
						"slot": "1",
						"type": "t_uint256"
					},
					{
						"astId": 7,
						"contract": "contracts/prop_test.sol:Ballot",
						"label": "endDate",
						"offset": 0,
						"slot": "2",
						"type": "t_uint256"
					},
					{
						"astId": 9,
						"contract": "contracts/prop_test.sol:Ballot",
						"label": "numOfProposals",
						"offset": 0,
						"slot": "3",
						"type": "t_uint256"
					},
					{
						"astId": 28,
						"contract": "contracts/prop_test.sol:Ballot",
						"label": "voters",
						"offset": 0,
						"slot": "4",
						"type": "t_mapping(t_address,t_struct(Voter)18_storage)"
					},
					{
						"astId": 32,
						"contract": "contracts/prop_test.sol:Ballot",
						"label": "proposals",
						"offset": 0,
						"slot": "5",
						"type": "t_array(t_struct(Proposal)23_storage)dyn_storage"
					}
				],
				"types": {
					"t_address": {
						"encoding": "inplace",
						"label": "address",
						"numberOfBytes": "20"
					},
					"t_array(t_struct(Proposal)23_storage)dyn_storage": {
						"base": "t_struct(Proposal)23_storage",
						"encoding": "dynamic_array",
						"label": "struct Ballot.Proposal[]",
						"numberOfBytes": "32"
					},
					"t_bool": {
						"encoding": "inplace",
						"label": "bool",
						"numberOfBytes": "1"
					},
					"t_mapping(t_address,t_struct(Voter)18_storage)": {
						"encoding": "mapping",
						"key": "t_address",
						"label": "mapping(address => struct Ballot.Voter)",
						"numberOfBytes": "32",
						"value": "t_struct(Voter)18_storage"
					},
					"t_string_storage": {
						"encoding": "bytes",
						"label": "string",
						"numberOfBytes": "32"
					},
					"t_struct(Proposal)23_storage": {
						"encoding": "inplace",
						"label": "struct Ballot.Proposal",
						"members": [
							{
								"astId": 20,
								"contract": "contracts/prop_test.sol:Ballot",
								"label": "name",
								"offset": 0,
								"slot": "0",
								"type": "t_string_storage"
							},
							{
								"astId": 22,
								"contract": "contracts/prop_test.sol:Ballot",
								"label": "voteCount",
								"offset": 0,
								"slot": "1",
								"type": "t_uint256"
							}
						],
						"numberOfBytes": "64"
					},
					"t_struct(Voter)18_storage": {
						"encoding": "inplace",
						"label": "struct Ballot.Voter",
						"members": [
							{
								"astId": 11,
								"contract": "contracts/prop_test.sol:Ballot",
								"label": "weight",
								"offset": 0,
								"slot": "0",
								"type": "t_uint256"
							},
							{
								"astId": 13,
								"contract": "contracts/prop_test.sol:Ballot",
								"label": "voted",
								"offset": 0,
								"slot": "1",
								"type": "t_bool"
							},
							{
								"astId": 15,
								"contract": "contracts/prop_test.sol:Ballot",
								"label": "delegate",
								"offset": 1,
								"slot": "1",
								"type": "t_address"
							},
							{
								"astId": 17,
								"contract": "contracts/prop_test.sol:Ballot",
								"label": "vote",
								"offset": 0,
								"slot": "2",
								"type": "t_uint256"
							}
						],
						"numberOfBytes": "96"
					},
					"t_uint256": {
						"encoding": "inplace",
						"label": "uint256",
						"numberOfBytes": "32"
					}
				}
			},
			"userdoc": {
				"kind": "user",
				"methods": {},
				"version": 1
			}
		}
	}
}