{
	"contracts/prop_test.sol": {
		"Ballot": {
			"abi": [
				{
					"inputs": [],
					"name": "chairperson",
					"outputs": [
						{
							"internalType": "address",
							"name": "",
							"type": "address"
						}
					],
					"stateMutability": "view",
					"type": "function"
				},
				{
					"inputs": [
						{
							"internalType": "string[]",
							"name": "proposalNames",
							"type": "string[]"
						}
					],
					"name": "createBallot",
					"outputs": [],
					"stateMutability": "nonpayable",
					"type": "function"
				},
				{
					"inputs": [],
					"name": "getTime",
					"outputs": [
						{
							"internalType": "uint256",
							"name": "",
							"type": "uint256"
						}
					],
					"stateMutability": "view",
					"type": "function"
				},
				{
					"inputs": [
						{
							"internalType": "address",
							"name": "voter",
							"type": "address"
						}
					],
					"name": "giveRightToVote",
					"outputs": [],
					"stateMutability": "nonpayable",
					"type": "function"
				},
				{
					"inputs": [
						{
							"internalType": "uint256",
							"name": "",
							"type": "uint256"
						}
					],
					"name": "proposals",
					"outputs": [
						{
							"internalType": "string",
							"name": "name",
							"type": "string"
						},
						{
							"internalType": "uint256",
							"name": "voteCount",
							"type": "uint256"
						}
					],
					"stateMutability": "view",
					"type": "function"
				},
				{
					"inputs": [],
					"name": "setTime",
					"outputs": [],
					"stateMutability": "nonpayable",
					"type": "function"
				},
				{
					"inputs": [
						{
							"internalType": "uint256",
							"name": "proposal",
							"type": "uint256"
						}
					],
					"name": "vote",
					"outputs": [],
					"stateMutability": "nonpayable",
					"type": "function"
				},
				{
					"inputs": [
						{
							"internalType": "address",
							"name": "",
							"type": "address"
						}
					],
					"name": "voters",
					"outputs": [
						{
							"internalType": "uint256",
							"name": "weight",
							"type": "uint256"
						},
						{
							"internalType": "bool",
							"name": "voted",
							"type": "bool"
						},
						{
							"internalType": "address",
							"name": "delegate",
							"type": "address"
						},
						{
							"internalType": "uint256",
							"name": "vote",
							"type": "uint256"
						}
					],
					"stateMutability": "view",
					"type": "function"
				}
			],
			"devdoc": {
				"kind": "dev",
				"methods": {},
				"version": 1
			},
			"evm": {
				"assembly": "    /* \"contracts/prop_test.sol\":60:2750  contract Ballot {\r... */\n  mstore(0x40, 0x80)\n  callvalue\n  dup1\n  iszero\n  tag_1\n  jumpi\n  0x00\n  dup1\n  revert\ntag_1:\n  pop\n  dataSize(sub_0)\n  dup1\n  dataOffset(sub_0)\n  0x00\n  codecopy\n  0x00\n  return\nstop\n\nsub_0: assembly {\n        /* \"contracts/prop_test.sol\":60:2750  contract Ballot {\r... */\n      mstore(0x40, 0x80)\n      callvalue\n      dup1\n      iszero\n      tag_1\n      jumpi\n      0x00\n      dup1\n      revert\n    tag_1:\n      pop\n      jumpi(tag_2, lt(calldatasize, 0x04))\n      shr(0xe0, calldataload(0x00))\n      dup1\n      0x836bc692\n      gt\n      tag_11\n      jumpi\n      dup1\n      0x836bc692\n      eq\n      tag_7\n      jumpi\n      dup1\n      0x9e7b8d61\n      eq\n      tag_8\n      jumpi\n      dup1\n      0xa3ec138d\n      eq\n      tag_9\n      jumpi\n      dup1\n      0xd9276a49\n      eq\n      tag_10\n      jumpi\n      jump(tag_2)\n    tag_11:\n      dup1\n      0x0121b93f\n      eq\n      tag_3\n      jumpi\n      dup1\n      0x013cf08b\n      eq\n      tag_4\n      jumpi\n      dup1\n      0x2e4176cf\n      eq\n      tag_5\n      jumpi\n      dup1\n      0x557ed1ba\n      eq\n      tag_6\n      jumpi\n    tag_2:\n      0x00\n      dup1\n      revert\n        /* \"contracts/prop_test.sol\":2098:2487  function vote(uint proposal) public {\r... */\n    tag_3:\n      tag_12\n      0x04\n      dup1\n      calldatasize\n      sub\n      dup2\n      add\n      swap1\n      tag_13\n      swap2\n      swap1\n      tag_14\n      jump\t// in\n    tag_13:\n      tag_15\n      jump\t// in\n    tag_12:\n      stop\n        /* \"contracts/prop_test.sol\":812:839  Proposal[] public proposals */\n    tag_4:\n      tag_16\n      0x04\n      dup1\n      calldatasize\n      sub\n      dup2\n      add\n      swap1\n      tag_17\n      swap2\n      swap1\n      tag_14\n      jump\t// in\n    tag_17:\n      tag_18\n      jump\t// in\n    tag_16:\n      mload(0x40)\n      tag_19\n      swap3\n      swap2\n      swap1\n      tag_20\n      jump\t// in\n    tag_19:\n      mload(0x40)\n      dup1\n      swap2\n      sub\n      swap1\n      return\n        /* \"contracts/prop_test.sol\":569:595  address public chairperson */\n    tag_5:\n      tag_21\n      tag_22\n      jump\t// in\n    tag_21:\n      mload(0x40)\n      tag_23\n      swap2\n      swap1\n      tag_24\n      jump\t// in\n    tag_23:\n      mload(0x40)\n      dup1\n      swap2\n      sub\n      swap1\n      return\n        /* \"contracts/prop_test.sol\":2668:2747  function getTime() public view returns(uint){\r... */\n    tag_6:\n      tag_25\n      tag_26\n      jump\t// in\n    tag_25:\n      mload(0x40)\n      tag_27\n      swap2\n      swap1\n      tag_28\n      jump\t// in\n    tag_27:\n      mload(0x40)\n      dup1\n      swap2\n      sub\n      swap1\n      return\n        /* \"contracts/prop_test.sol\":848:1500  function createBallot(string[] memory proposalNames) public {\r... */\n    tag_7:\n      tag_29\n      0x04\n      dup1\n      calldatasize\n      sub\n      dup2\n      add\n      swap1\n      tag_30\n      swap2\n      swap1\n      tag_31\n      jump\t// in\n    tag_30:\n      tag_32\n      jump\t// in\n    tag_29:\n      stop\n        /* \"contracts/prop_test.sol\":1508:2090  function giveRightToVote(address voter) public {\r... */\n    tag_8:\n      tag_33\n      0x04\n      dup1\n      calldatasize\n      sub\n      dup2\n      add\n      swap1\n      tag_34\n      swap2\n      swap1\n      tag_35\n      jump\t// in\n    tag_34:\n      tag_36\n      jump\t// in\n    tag_33:\n      stop\n        /* \"contracts/prop_test.sol\":707:746  mapping(address => Voter) public voters */\n    tag_9:\n      tag_37\n      0x04\n      dup1\n      calldatasize\n      sub\n      dup2\n      add\n      swap1\n      tag_38\n      swap2\n      swap1\n      tag_35\n      jump\t// in\n    tag_38:\n      tag_39\n      jump\t// in\n    tag_37:\n      mload(0x40)\n      tag_40\n      swap5\n      swap4\n      swap3\n      swap2\n      swap1\n      tag_41\n      jump\t// in\n    tag_40:\n      mload(0x40)\n      dup1\n      swap2\n      sub\n      swap1\n      return\n        /* \"contracts/prop_test.sol\":2497:2568  function setTime() public{\r... */\n    tag_10:\n      tag_42\n      tag_43\n      jump\t// in\n    tag_42:\n      stop\n        /* \"contracts/prop_test.sol\":2098:2487  function vote(uint proposal) public {\r... */\n    tag_15:\n        /* \"contracts/prop_test.sol\":2145:2165  Voter storage sender */\n      0x00\n        /* \"contracts/prop_test.sol\":2168:2174  voters */\n      0x03\n        /* \"contracts/prop_test.sol\":2168:2186  voters[msg.sender] */\n      0x00\n        /* \"contracts/prop_test.sol\":2175:2185  msg.sender */\n      caller\n        /* \"contracts/prop_test.sol\":2168:2186  voters[msg.sender] */\n      0xffffffffffffffffffffffffffffffffffffffff\n      and\n      0xffffffffffffffffffffffffffffffffffffffff\n      and\n      dup2\n      mstore\n      0x20\n      add\n      swap1\n      dup2\n      mstore\n      0x20\n      add\n      0x00\n      keccak256\n        /* \"contracts/prop_test.sol\":2145:2186  Voter storage sender = voters[msg.sender] */\n      swap1\n      pop\n        /* \"contracts/prop_test.sol\":2206:2212  sender */\n      dup1\n        /* \"contracts/prop_test.sol\":2206:2218  sender.voted */\n      0x01\n      add\n      0x00\n      swap1\n      sload\n      swap1\n      0x0100\n      exp\n      swap1\n      div\n      0xff\n      and\n        /* \"contracts/prop_test.sol\":2205:2218  !sender.voted */\n      iszero\n        /* \"contracts/prop_test.sol\":2197:2219  require(!sender.voted) */\n      tag_45\n      jumpi\n      0x00\n      dup1\n      revert\n    tag_45:\n        /* \"contracts/prop_test.sol\":2245:2249  true */\n      0x01\n        /* \"contracts/prop_test.sol\":2230:2236  sender */\n      dup2\n        /* \"contracts/prop_test.sol\":2230:2242  sender.voted */\n      0x01\n      add\n      0x00\n        /* \"contracts/prop_test.sol\":2230:2249  sender.voted = true */\n      0x0100\n      exp\n      dup2\n      sload\n      dup2\n      0xff\n      mul\n      not\n      and\n      swap1\n      dup4\n      iszero\n      iszero\n      mul\n      or\n      swap1\n      sstore\n      pop\n        /* \"contracts/prop_test.sol\":2274:2282  proposal */\n      dup2\n        /* \"contracts/prop_test.sol\":2260:2266  sender */\n      dup2\n        /* \"contracts/prop_test.sol\":2260:2271  sender.vote */\n      0x02\n      add\n        /* \"contracts/prop_test.sol\":2260:2282  sender.vote = proposal */\n      dup2\n      swap1\n      sstore\n      pop\n        /* \"contracts/prop_test.sol\":2466:2472  sender */\n      dup1\n        /* \"contracts/prop_test.sol\":2466:2479  sender.weight */\n      0x00\n      add\n      sload\n        /* \"contracts/prop_test.sol\":2433:2442  proposals */\n      0x04\n        /* \"contracts/prop_test.sol\":2443:2451  proposal */\n      dup4\n        /* \"contracts/prop_test.sol\":2433:2452  proposals[proposal] */\n      dup2\n      sload\n      dup2\n      lt\n      tag_46\n      jumpi\n      mstore(0x00, 0x4e487b7100000000000000000000000000000000000000000000000000000000)\n      mstore(0x04, 0x32)\n      revert(0x00, 0x24)\n    tag_46:\n      swap1\n      0x00\n      mstore\n      keccak256(0x00, 0x20)\n      swap1\n      0x02\n      mul\n      add\n        /* \"contracts/prop_test.sol\":2433:2462  proposals[proposal].voteCount */\n      0x01\n      add\n      0x00\n        /* \"contracts/prop_test.sol\":2433:2479  proposals[proposal].voteCount += sender.weight */\n      dup3\n      dup3\n      sload\n      tag_48\n      swap2\n      swap1\n      tag_49\n      jump\t// in\n    tag_48:\n      swap3\n      pop\n      pop\n      dup2\n      swap1\n      sstore\n      pop\n        /* \"contracts/prop_test.sol\":2098:2487  function vote(uint proposal) public {\r... */\n      pop\n      pop\n      jump\t// out\n        /* \"contracts/prop_test.sol\":812:839  Proposal[] public proposals */\n    tag_18:\n      0x04\n      dup2\n      dup2\n      sload\n      dup2\n      lt\n      tag_50\n      jumpi\n      0x00\n      dup1\n      revert\n    tag_50:\n      swap1\n      0x00\n      mstore\n      keccak256(0x00, 0x20)\n      swap1\n      0x02\n      mul\n      add\n      0x00\n      swap2\n      pop\n      swap1\n      pop\n      dup1\n      0x00\n      add\n      dup1\n      sload\n      tag_52\n      swap1\n      tag_53\n      jump\t// in\n    tag_52:\n      dup1\n      0x1f\n      add\n      0x20\n      dup1\n      swap2\n      div\n      mul\n      0x20\n      add\n      mload(0x40)\n      swap1\n      dup2\n      add\n      0x40\n      mstore\n      dup1\n      swap3\n      swap2\n      swap1\n      dup2\n      dup2\n      mstore\n      0x20\n      add\n      dup3\n      dup1\n      sload\n      tag_54\n      swap1\n      tag_53\n      jump\t// in\n    tag_54:\n      dup1\n      iszero\n      tag_55\n      jumpi\n      dup1\n      0x1f\n      lt\n      tag_56\n      jumpi\n      0x0100\n      dup1\n      dup4\n      sload\n      div\n      mul\n      dup4\n      mstore\n      swap2\n      0x20\n      add\n      swap2\n      jump(tag_55)\n    tag_56:\n      dup3\n      add\n      swap2\n      swap1\n      0x00\n      mstore\n      keccak256(0x00, 0x20)\n      swap1\n    tag_57:\n      dup2\n      sload\n      dup2\n      mstore\n      swap1\n      0x01\n      add\n      swap1\n      0x20\n      add\n      dup1\n      dup4\n      gt\n      tag_57\n      jumpi\n      dup3\n      swap1\n      sub\n      0x1f\n      and\n      dup3\n      add\n      swap2\n    tag_55:\n      pop\n      pop\n      pop\n      pop\n      pop\n      swap1\n      dup1\n      0x01\n      add\n      sload\n      swap1\n      pop\n      dup3\n      jump\t// out\n        /* \"contracts/prop_test.sol\":569:595  address public chairperson */\n    tag_22:\n      0x02\n      0x00\n      swap1\n      sload\n      swap1\n      0x0100\n      exp\n      swap1\n      div\n      0xffffffffffffffffffffffffffffffffffffffff\n      and\n      dup2\n      jump\t// out\n        /* \"contracts/prop_test.sol\":2668:2747  function getTime() public view returns(uint){\r... */\n    tag_26:\n        /* \"contracts/prop_test.sol\":2707:2711  uint */\n      0x00\n        /* \"contracts/prop_test.sol\":2730:2739  startDate */\n      dup1\n      sload\n        /* \"contracts/prop_test.sol\":2723:2739  return startDate */\n      swap1\n      pop\n        /* \"contracts/prop_test.sol\":2668:2747  function getTime() public view returns(uint){\r... */\n      swap1\n      jump\t// out\n        /* \"contracts/prop_test.sol\":848:1500  function createBallot(string[] memory proposalNames) public {\r... */\n    tag_32:\n        /* \"contracts/prop_test.sol\":933:943  msg.sender */\n      caller\n        /* \"contracts/prop_test.sol\":919:930  chairperson */\n      0x02\n      0x00\n        /* \"contracts/prop_test.sol\":919:943  chairperson = msg.sender */\n      0x0100\n      exp\n      dup2\n      sload\n      dup2\n      0xffffffffffffffffffffffffffffffffffffffff\n      mul\n      not\n      and\n      swap1\n      dup4\n      0xffffffffffffffffffffffffffffffffffffffff\n      and\n      mul\n      or\n      swap1\n      sstore\n      pop\n        /* \"contracts/prop_test.sol\":983:984  1 */\n      0x01\n        /* \"contracts/prop_test.sol\":954:960  voters */\n      0x03\n        /* \"contracts/prop_test.sol\":954:973  voters[chairperson] */\n      0x00\n        /* \"contracts/prop_test.sol\":961:972  chairperson */\n      0x02\n      0x00\n      swap1\n      sload\n      swap1\n      0x0100\n      exp\n      swap1\n      div\n      0xffffffffffffffffffffffffffffffffffffffff\n      and\n        /* \"contracts/prop_test.sol\":954:973  voters[chairperson] */\n      0xffffffffffffffffffffffffffffffffffffffff\n      and\n      0xffffffffffffffffffffffffffffffffffffffff\n      and\n      dup2\n      mstore\n      0x20\n      add\n      swap1\n      dup2\n      mstore\n      0x20\n      add\n      0x00\n      keccak256\n        /* \"contracts/prop_test.sol\":954:980  voters[chairperson].weight */\n      0x00\n      add\n        /* \"contracts/prop_test.sol\":954:984  voters[chairperson].weight = 1 */\n      dup2\n      swap1\n      sstore\n      pop\n        /* \"contracts/prop_test.sol\":1144:1150  uint i */\n      0x00\n        /* \"contracts/prop_test.sol\":1139:1493  for (uint i = 0; i < proposalNames.length; i++) {\r... */\n    tag_60:\n        /* \"contracts/prop_test.sol\":1160:1173  proposalNames */\n      dup2\n        /* \"contracts/prop_test.sol\":1160:1180  proposalNames.length */\n      mload\n        /* \"contracts/prop_test.sol\":1156:1157  i */\n      dup2\n        /* \"contracts/prop_test.sol\":1156:1180  i < proposalNames.length */\n      lt\n        /* \"contracts/prop_test.sol\":1139:1493  for (uint i = 0; i < proposalNames.length; i++) {\r... */\n      iszero\n      tag_61\n      jumpi\n        /* \"contracts/prop_test.sol\":1368:1377  proposals */\n      0x04\n        /* \"contracts/prop_test.sol\":1383:1480  Proposal({\r... */\n      mload(0x40)\n      dup1\n      0x40\n      add\n      0x40\n      mstore\n      dup1\n        /* \"contracts/prop_test.sol\":1417:1430  proposalNames */\n      dup5\n        /* \"contracts/prop_test.sol\":1431:1432  i */\n      dup5\n        /* \"contracts/prop_test.sol\":1417:1433  proposalNames[i] */\n      dup2\n      mload\n      dup2\n      lt\n      tag_63\n      jumpi\n      mstore(0x00, 0x4e487b7100000000000000000000000000000000000000000000000000000000)\n      mstore(0x04, 0x32)\n      revert(0x00, 0x24)\n    tag_63:\n      0x20\n      mul\n      0x20\n      add\n      add\n      mload\n        /* \"contracts/prop_test.sol\":1383:1480  Proposal({\r... */\n      dup2\n      mstore\n      0x20\n      add\n        /* \"contracts/prop_test.sol\":1463:1464  0 */\n      0x00\n        /* \"contracts/prop_test.sol\":1383:1480  Proposal({\r... */\n      dup2\n      mstore\n      pop\n        /* \"contracts/prop_test.sol\":1368:1481  proposals.push(Proposal({\r... */\n      swap1\n      dup1\n      0x01\n      dup2\n      sload\n      add\n      dup1\n      dup3\n      sstore\n      dup1\n      swap2\n      pop\n      pop\n      0x01\n      swap1\n      sub\n      swap1\n      0x00\n      mstore\n      keccak256(0x00, 0x20)\n      swap1\n      0x02\n      mul\n      add\n      0x00\n      swap1\n      swap2\n      swap1\n      swap2\n      swap1\n      swap2\n      pop\n      0x00\n      dup3\n      add\n      mload\n      dup2\n      0x00\n      add\n      swap1\n      dup1\n      mload\n      swap1\n      0x20\n      add\n      swap1\n      tag_65\n      swap3\n      swap2\n      swap1\n      tag_66\n      jump\t// in\n    tag_65:\n      pop\n      0x20\n      dup3\n      add\n      mload\n      dup2\n      0x01\n      add\n      sstore\n      pop\n      pop\n        /* \"contracts/prop_test.sol\":1182:1185  i++ */\n      dup1\n      dup1\n      tag_67\n      swap1\n      tag_68\n      jump\t// in\n    tag_67:\n      swap2\n      pop\n      pop\n        /* \"contracts/prop_test.sol\":1139:1493  for (uint i = 0; i < proposalNames.length; i++) {\r... */\n      jump(tag_60)\n    tag_61:\n      pop\n        /* \"contracts/prop_test.sol\":848:1500  function createBallot(string[] memory proposalNames) public {\r... */\n      pop\n      jump\t// out\n        /* \"contracts/prop_test.sol\":1508:2090  function giveRightToVote(address voter) public {\r... */\n    tag_36:\n        /* \"contracts/prop_test.sol\":1979:1990  chairperson */\n      0x02\n      0x00\n      swap1\n      sload\n      swap1\n      0x0100\n      exp\n      swap1\n      div\n      0xffffffffffffffffffffffffffffffffffffffff\n      and\n        /* \"contracts/prop_test.sol\":1965:1990  msg.sender == chairperson */\n      0xffffffffffffffffffffffffffffffffffffffff\n      and\n        /* \"contracts/prop_test.sol\":1965:1975  msg.sender */\n      caller\n        /* \"contracts/prop_test.sol\":1965:1990  msg.sender == chairperson */\n      0xffffffffffffffffffffffffffffffffffffffff\n      and\n      eq\n        /* \"contracts/prop_test.sol\":1964:2015  (msg.sender == chairperson) && !voters[voter].voted */\n      dup1\n      iszero\n      tag_70\n      jumpi\n      pop\n        /* \"contracts/prop_test.sol\":1996:2002  voters */\n      0x03\n        /* \"contracts/prop_test.sol\":1996:2009  voters[voter] */\n      0x00\n        /* \"contracts/prop_test.sol\":2003:2008  voter */\n      dup3\n        /* \"contracts/prop_test.sol\":1996:2009  voters[voter] */\n      0xffffffffffffffffffffffffffffffffffffffff\n      and\n      0xffffffffffffffffffffffffffffffffffffffff\n      and\n      dup2\n      mstore\n      0x20\n      add\n      swap1\n      dup2\n      mstore\n      0x20\n      add\n      0x00\n      keccak256\n        /* \"contracts/prop_test.sol\":1996:2015  voters[voter].voted */\n      0x01\n      add\n      0x00\n      swap1\n      sload\n      swap1\n      0x0100\n      exp\n      swap1\n      div\n      0xff\n      and\n        /* \"contracts/prop_test.sol\":1995:2015  !voters[voter].voted */\n      iszero\n        /* \"contracts/prop_test.sol\":1964:2015  (msg.sender == chairperson) && !voters[voter].voted */\n    tag_70:\n        /* \"contracts/prop_test.sol\":1964:2046  (msg.sender == chairperson) && !voters[voter].voted && (voters[voter].weight == 0) */\n      dup1\n      iszero\n      tag_71\n      jumpi\n      pop\n        /* \"contracts/prop_test.sol\":2044:2045  0 */\n      0x00\n        /* \"contracts/prop_test.sol\":2020:2026  voters */\n      0x03\n        /* \"contracts/prop_test.sol\":2020:2033  voters[voter] */\n      0x00\n        /* \"contracts/prop_test.sol\":2027:2032  voter */\n      dup4\n        /* \"contracts/prop_test.sol\":2020:2033  voters[voter] */\n      0xffffffffffffffffffffffffffffffffffffffff\n      and\n      0xffffffffffffffffffffffffffffffffffffffff\n      and\n      dup2\n      mstore\n      0x20\n      add\n      swap1\n      dup2\n      mstore\n      0x20\n      add\n      0x00\n      keccak256\n        /* \"contracts/prop_test.sol\":2020:2040  voters[voter].weight */\n      0x00\n      add\n      sload\n        /* \"contracts/prop_test.sol\":2020:2045  voters[voter].weight == 0 */\n      eq\n        /* \"contracts/prop_test.sol\":1964:2046  (msg.sender == chairperson) && !voters[voter].voted && (voters[voter].weight == 0) */\n    tag_71:\n        /* \"contracts/prop_test.sol\":1956:2047  require((msg.sender == chairperson) && !voters[voter].voted && (voters[voter].weight == 0)) */\n      tag_72\n      jumpi\n      0x00\n      dup1\n      revert\n    tag_72:\n        /* \"contracts/prop_test.sol\":2081:2082  1 */\n      0x01\n        /* \"contracts/prop_test.sol\":2058:2064  voters */\n      0x03\n        /* \"contracts/prop_test.sol\":2058:2071  voters[voter] */\n      0x00\n        /* \"contracts/prop_test.sol\":2065:2070  voter */\n      dup4\n        /* \"contracts/prop_test.sol\":2058:2071  voters[voter] */\n      0xffffffffffffffffffffffffffffffffffffffff\n      and\n      0xffffffffffffffffffffffffffffffffffffffff\n      and\n      dup2\n      mstore\n      0x20\n      add\n      swap1\n      dup2\n      mstore\n      0x20\n      add\n      0x00\n      keccak256\n        /* \"contracts/prop_test.sol\":2058:2078  voters[voter].weight */\n      0x00\n      add\n        /* \"contracts/prop_test.sol\":2058:2082  voters[voter].weight = 1 */\n      dup2\n      swap1\n      sstore\n      pop\n        /* \"contracts/prop_test.sol\":1508:2090  function giveRightToVote(address voter) public {\r... */\n      pop\n      jump\t// out\n        /* \"contracts/prop_test.sol\":707:746  mapping(address => Voter) public voters */\n    tag_39:\n      mstore(0x20, 0x03)\n      dup1\n      0x00\n      mstore\n      keccak256(0x00, 0x40)\n      0x00\n      swap2\n      pop\n      swap1\n      pop\n      dup1\n      0x00\n      add\n      sload\n      swap1\n      dup1\n      0x01\n      add\n      0x00\n      swap1\n      sload\n      swap1\n      0x0100\n      exp\n      swap1\n      div\n      0xff\n      and\n      swap1\n      dup1\n      0x01\n      add\n      0x01\n      swap1\n      sload\n      swap1\n      0x0100\n      exp\n      swap1\n      div\n      0xffffffffffffffffffffffffffffffffffffffff\n      and\n      swap1\n      dup1\n      0x02\n      add\n      sload\n      swap1\n      pop\n      dup5\n      jump\t// out\n        /* \"contracts/prop_test.sol\":2497:2568  function setTime() public{\r... */\n    tag_43:\n        /* \"contracts/prop_test.sol\":2545:2560  block.timestamp */\n      timestamp\n        /* \"contracts/prop_test.sol\":2533:2542  startDate */\n      0x00\n        /* \"contracts/prop_test.sol\":2533:2560  startDate = block.timestamp */\n      dup2\n      swap1\n      sstore\n      pop\n        /* \"contracts/prop_test.sol\":2497:2568  function setTime() public{\r... */\n      jump\t// out\n    tag_66:\n      dup3\n      dup1\n      sload\n      tag_74\n      swap1\n      tag_53\n      jump\t// in\n    tag_74:\n      swap1\n      0x00\n      mstore\n      keccak256(0x00, 0x20)\n      swap1\n      0x1f\n      add\n      0x20\n      swap1\n      div\n      dup2\n      add\n      swap3\n      dup3\n      tag_76\n      jumpi\n      0x00\n      dup6\n      sstore\n      jump(tag_75)\n    tag_76:\n      dup3\n      0x1f\n      lt\n      tag_77\n      jumpi\n      dup1\n      mload\n      not(0xff)\n      and\n      dup4\n      dup1\n      add\n      or\n      dup6\n      sstore\n      jump(tag_75)\n    tag_77:\n      dup3\n      dup1\n      add\n      0x01\n      add\n      dup6\n      sstore\n      dup3\n      iszero\n      tag_75\n      jumpi\n      swap2\n      dup3\n      add\n    tag_78:\n      dup3\n      dup2\n      gt\n      iszero\n      tag_79\n      jumpi\n      dup3\n      mload\n      dup3\n      sstore\n      swap2\n      0x20\n      add\n      swap2\n      swap1\n      0x01\n      add\n      swap1\n      jump(tag_78)\n    tag_79:\n    tag_75:\n      pop\n      swap1\n      pop\n      tag_80\n      swap2\n      swap1\n      tag_81\n      jump\t// in\n    tag_80:\n      pop\n      swap1\n      jump\t// out\n    tag_81:\n    tag_82:\n      dup1\n      dup3\n      gt\n      iszero\n      tag_83\n      jumpi\n      0x00\n      dup2\n      0x00\n      swap1\n      sstore\n      pop\n      0x01\n      add\n      jump(tag_82)\n    tag_83:\n      pop\n      swap1\n      jump\t// out\n        /* \"#utility.yul\":23:638   */\n    tag_85:\n      0x00\n        /* \"#utility.yul\":154:244   */\n      tag_87\n        /* \"#utility.yul\":169:243   */\n      tag_88\n        /* \"#utility.yul\":236:242   */\n      dup5\n        /* \"#utility.yul\":169:243   */\n      tag_89\n      jump\t// in\n    tag_88:\n        /* \"#utility.yul\":154:244   */\n      tag_90\n      jump\t// in\n    tag_87:\n        /* \"#utility.yul\":145:244   */\n      swap1\n      pop\n        /* \"#utility.yul\":264:269   */\n      dup1\n        /* \"#utility.yul\":292:298   */\n      dup4\n        /* \"#utility.yul\":285:290   */\n      dup3\n        /* \"#utility.yul\":278:299   */\n      mstore\n        /* \"#utility.yul\":318:322   */\n      0x20\n        /* \"#utility.yul\":311:316   */\n      dup3\n        /* \"#utility.yul\":307:323   */\n      add\n        /* \"#utility.yul\":300:323   */\n      swap1\n      pop\n        /* \"#utility.yul\":343:349   */\n      dup3\n        /* \"#utility.yul\":374:375   */\n      0x00\n        /* \"#utility.yul\":359:632   */\n    tag_91:\n        /* \"#utility.yul\":384:390   */\n      dup6\n        /* \"#utility.yul\":381:382   */\n      dup2\n        /* \"#utility.yul\":378:391   */\n      lt\n        /* \"#utility.yul\":359:632   */\n      iszero\n      tag_93\n      jumpi\n        /* \"#utility.yul\":476:479   */\n      dup2\n        /* \"#utility.yul\":463:480   */\n      calldataload\n        /* \"#utility.yul\":455:461   */\n      dup6\n        /* \"#utility.yul\":451:481   */\n      add\n        /* \"#utility.yul\":506:553   */\n      tag_94\n        /* \"#utility.yul\":549:552   */\n      dup9\n        /* \"#utility.yul\":537:547   */\n      dup3\n        /* \"#utility.yul\":506:553   */\n      tag_95\n      jump\t// in\n    tag_94:\n        /* \"#utility.yul\":501:504   */\n      dup5\n        /* \"#utility.yul\":494:554   */\n      mstore\n        /* \"#utility.yul\":583:587   */\n      0x20\n        /* \"#utility.yul\":578:581   */\n      dup5\n        /* \"#utility.yul\":574:588   */\n      add\n        /* \"#utility.yul\":567:588   */\n      swap4\n      pop\n        /* \"#utility.yul\":617:621   */\n      0x20\n        /* \"#utility.yul\":612:615   */\n      dup4\n        /* \"#utility.yul\":608:622   */\n      add\n        /* \"#utility.yul\":601:622   */\n      swap3\n      pop\n        /* \"#utility.yul\":419:632   */\n      pop\n        /* \"#utility.yul\":406:407   */\n      0x01\n        /* \"#utility.yul\":403:404   */\n      dup2\n        /* \"#utility.yul\":399:408   */\n      add\n        /* \"#utility.yul\":394:408   */\n      swap1\n      pop\n        /* \"#utility.yul\":359:632   */\n      jump(tag_91)\n    tag_93:\n        /* \"#utility.yul\":363:377   */\n      pop\n        /* \"#utility.yul\":135:638   */\n      pop\n      pop\n      swap4\n      swap3\n      pop\n      pop\n      pop\n      jump\t// out\n        /* \"#utility.yul\":644:988   */\n    tag_96:\n      0x00\n        /* \"#utility.yul\":747:812   */\n      tag_98\n        /* \"#utility.yul\":762:811   */\n      tag_99\n        /* \"#utility.yul\":804:810   */\n      dup5\n        /* \"#utility.yul\":762:811   */\n      tag_100\n      jump\t// in\n    tag_99:\n        /* \"#utility.yul\":747:812   */\n      tag_90\n      jump\t// in\n    tag_98:\n        /* \"#utility.yul\":738:812   */\n      swap1\n      pop\n        /* \"#utility.yul\":835:841   */\n      dup3\n        /* \"#utility.yul\":828:833   */\n      dup2\n        /* \"#utility.yul\":821:842   */\n      mstore\n        /* \"#utility.yul\":873:877   */\n      0x20\n        /* \"#utility.yul\":866:871   */\n      dup2\n        /* \"#utility.yul\":862:878   */\n      add\n        /* \"#utility.yul\":911:914   */\n      dup5\n        /* \"#utility.yul\":902:908   */\n      dup5\n        /* \"#utility.yul\":897:900   */\n      dup5\n        /* \"#utility.yul\":893:909   */\n      add\n        /* \"#utility.yul\":890:915   */\n      gt\n        /* \"#utility.yul\":887:889   */\n      iszero\n      tag_101\n      jumpi\n        /* \"#utility.yul\":928:929   */\n      0x00\n        /* \"#utility.yul\":925:926   */\n      dup1\n        /* \"#utility.yul\":918:930   */\n      revert\n        /* \"#utility.yul\":887:889   */\n    tag_101:\n        /* \"#utility.yul\":941:982   */\n      tag_102\n        /* \"#utility.yul\":975:981   */\n      dup5\n        /* \"#utility.yul\":970:973   */\n      dup3\n        /* \"#utility.yul\":965:968   */\n      dup6\n        /* \"#utility.yul\":941:982   */\n      tag_103\n      jump\t// in\n    tag_102:\n        /* \"#utility.yul\":728:988   */\n      pop\n      swap4\n      swap3\n      pop\n      pop\n      pop\n      jump\t// out\n        /* \"#utility.yul\":994:1133   */\n    tag_104:\n      0x00\n        /* \"#utility.yul\":1078:1084   */\n      dup2\n        /* \"#utility.yul\":1065:1085   */\n      calldataload\n        /* \"#utility.yul\":1056:1085   */\n      swap1\n      pop\n        /* \"#utility.yul\":1094:1127   */\n      tag_106\n        /* \"#utility.yul\":1121:1126   */\n      dup2\n        /* \"#utility.yul\":1094:1127   */\n      tag_107\n      jump\t// in\n    tag_106:\n        /* \"#utility.yul\":1046:1133   */\n      swap3\n      swap2\n      pop\n      pop\n      jump\t// out\n        /* \"#utility.yul\":1155:1478   */\n    tag_108:\n      0x00\n        /* \"#utility.yul\":1285:1288   */\n      dup3\n        /* \"#utility.yul\":1278:1282   */\n      0x1f\n        /* \"#utility.yul\":1270:1276   */\n      dup4\n        /* \"#utility.yul\":1266:1283   */\n      add\n        /* \"#utility.yul\":1262:1289   */\n      slt\n        /* \"#utility.yul\":1252:1254   */\n      tag_110\n      jumpi\n        /* \"#utility.yul\":1303:1304   */\n      0x00\n        /* \"#utility.yul\":1300:1301   */\n      dup1\n        /* \"#utility.yul\":1293:1305   */\n      revert\n        /* \"#utility.yul\":1252:1254   */\n    tag_110:\n        /* \"#utility.yul\":1343:1349   */\n      dup2\n        /* \"#utility.yul\":1330:1350   */\n      calldataload\n        /* \"#utility.yul\":1368:1472   */\n      tag_111\n        /* \"#utility.yul\":1468:1471   */\n      dup5\n        /* \"#utility.yul\":1460:1466   */\n      dup3\n        /* \"#utility.yul\":1453:1457   */\n      0x20\n        /* \"#utility.yul\":1445:1451   */\n      dup7\n        /* \"#utility.yul\":1441:1458   */\n      add\n        /* \"#utility.yul\":1368:1472   */\n      tag_85\n      jump\t// in\n    tag_111:\n        /* \"#utility.yul\":1359:1472   */\n      swap2\n      pop\n        /* \"#utility.yul\":1242:1478   */\n      pop\n      swap3\n      swap2\n      pop\n      pop\n      jump\t// out\n        /* \"#utility.yul\":1498:1771   */\n    tag_95:\n      0x00\n        /* \"#utility.yul\":1603:1606   */\n      dup3\n        /* \"#utility.yul\":1596:1600   */\n      0x1f\n        /* \"#utility.yul\":1588:1594   */\n      dup4\n        /* \"#utility.yul\":1584:1601   */\n      add\n        /* \"#utility.yul\":1580:1607   */\n      slt\n        /* \"#utility.yul\":1570:1572   */\n      tag_113\n      jumpi\n        /* \"#utility.yul\":1621:1622   */\n      0x00\n        /* \"#utility.yul\":1618:1619   */\n      dup1\n        /* \"#utility.yul\":1611:1623   */\n      revert\n        /* \"#utility.yul\":1570:1572   */\n    tag_113:\n        /* \"#utility.yul\":1661:1667   */\n      dup2\n        /* \"#utility.yul\":1648:1668   */\n      calldataload\n        /* \"#utility.yul\":1686:1765   */\n      tag_114\n        /* \"#utility.yul\":1761:1764   */\n      dup5\n        /* \"#utility.yul\":1753:1759   */\n      dup3\n        /* \"#utility.yul\":1746:1750   */\n      0x20\n        /* \"#utility.yul\":1738:1744   */\n      dup7\n        /* \"#utility.yul\":1734:1751   */\n      add\n        /* \"#utility.yul\":1686:1765   */\n      tag_96\n      jump\t// in\n    tag_114:\n        /* \"#utility.yul\":1677:1765   */\n      swap2\n      pop\n        /* \"#utility.yul\":1560:1771   */\n      pop\n      swap3\n      swap2\n      pop\n      pop\n      jump\t// out\n        /* \"#utility.yul\":1777:1916   */\n    tag_115:\n      0x00\n        /* \"#utility.yul\":1861:1867   */\n      dup2\n        /* \"#utility.yul\":1848:1868   */\n      calldataload\n        /* \"#utility.yul\":1839:1868   */\n      swap1\n      pop\n        /* \"#utility.yul\":1877:1910   */\n      tag_117\n        /* \"#utility.yul\":1904:1909   */\n      dup2\n        /* \"#utility.yul\":1877:1910   */\n      tag_118\n      jump\t// in\n    tag_117:\n        /* \"#utility.yul\":1829:1916   */\n      swap3\n      swap2\n      pop\n      pop\n      jump\t// out\n        /* \"#utility.yul\":1922:2184   */\n    tag_35:\n      0x00\n        /* \"#utility.yul\":2030:2032   */\n      0x20\n        /* \"#utility.yul\":2018:2027   */\n      dup3\n        /* \"#utility.yul\":2009:2016   */\n      dup5\n        /* \"#utility.yul\":2005:2028   */\n      sub\n        /* \"#utility.yul\":2001:2033   */\n      slt\n        /* \"#utility.yul\":1998:2000   */\n      iszero\n      tag_120\n      jumpi\n        /* \"#utility.yul\":2046:2047   */\n      0x00\n        /* \"#utility.yul\":2043:2044   */\n      dup1\n        /* \"#utility.yul\":2036:2048   */\n      revert\n        /* \"#utility.yul\":1998:2000   */\n    tag_120:\n        /* \"#utility.yul\":2089:2090   */\n      0x00\n        /* \"#utility.yul\":2114:2167   */\n      tag_121\n        /* \"#utility.yul\":2159:2166   */\n      dup5\n        /* \"#utility.yul\":2150:2156   */\n      dup3\n        /* \"#utility.yul\":2139:2148   */\n      dup6\n        /* \"#utility.yul\":2135:2157   */\n      add\n        /* \"#utility.yul\":2114:2167   */\n      tag_104\n      jump\t// in\n    tag_121:\n        /* \"#utility.yul\":2104:2167   */\n      swap2\n      pop\n        /* \"#utility.yul\":2060:2177   */\n      pop\n        /* \"#utility.yul\":1988:2184   */\n      swap3\n      swap2\n      pop\n      pop\n      jump\t// out\n        /* \"#utility.yul\":2190:2615   */\n    tag_31:\n      0x00\n        /* \"#utility.yul\":2333:2335   */\n      0x20\n        /* \"#utility.yul\":2321:2330   */\n      dup3\n        /* \"#utility.yul\":2312:2319   */\n      dup5\n        /* \"#utility.yul\":2308:2331   */\n      sub\n        /* \"#utility.yul\":2304:2336   */\n      slt\n        /* \"#utility.yul\":2301:2303   */\n      iszero\n      tag_123\n      jumpi\n        /* \"#utility.yul\":2349:2350   */\n      0x00\n        /* \"#utility.yul\":2346:2347   */\n      dup1\n        /* \"#utility.yul\":2339:2351   */\n      revert\n        /* \"#utility.yul\":2301:2303   */\n    tag_123:\n        /* \"#utility.yul\":2420:2421   */\n      0x00\n        /* \"#utility.yul\":2409:2418   */\n      dup3\n        /* \"#utility.yul\":2405:2422   */\n      add\n        /* \"#utility.yul\":2392:2423   */\n      calldataload\n        /* \"#utility.yul\":2450:2468   */\n      0xffffffffffffffff\n        /* \"#utility.yul\":2442:2448   */\n      dup2\n        /* \"#utility.yul\":2439:2469   */\n      gt\n        /* \"#utility.yul\":2436:2438   */\n      iszero\n      tag_124\n      jumpi\n        /* \"#utility.yul\":2482:2483   */\n      0x00\n        /* \"#utility.yul\":2479:2480   */\n      dup1\n        /* \"#utility.yul\":2472:2484   */\n      revert\n        /* \"#utility.yul\":2436:2438   */\n    tag_124:\n        /* \"#utility.yul\":2510:2598   */\n      tag_125\n        /* \"#utility.yul\":2590:2597   */\n      dup5\n        /* \"#utility.yul\":2581:2587   */\n      dup3\n        /* \"#utility.yul\":2570:2579   */\n      dup6\n        /* \"#utility.yul\":2566:2588   */\n      add\n        /* \"#utility.yul\":2510:2598   */\n      tag_108\n      jump\t// in\n    tag_125:\n        /* \"#utility.yul\":2500:2598   */\n      swap2\n      pop\n        /* \"#utility.yul\":2363:2608   */\n      pop\n        /* \"#utility.yul\":2291:2615   */\n      swap3\n      swap2\n      pop\n      pop\n      jump\t// out\n        /* \"#utility.yul\":2621:2883   */\n    tag_14:\n      0x00\n        /* \"#utility.yul\":2729:2731   */\n      0x20\n        /* \"#utility.yul\":2717:2726   */\n      dup3\n        /* \"#utility.yul\":2708:2715   */\n      dup5\n        /* \"#utility.yul\":2704:2727   */\n      sub\n        /* \"#utility.yul\":2700:2732   */\n      slt\n        /* \"#utility.yul\":2697:2699   */\n      iszero\n      tag_127\n      jumpi\n        /* \"#utility.yul\":2745:2746   */\n      0x00\n        /* \"#utility.yul\":2742:2743   */\n      dup1\n        /* \"#utility.yul\":2735:2747   */\n      revert\n        /* \"#utility.yul\":2697:2699   */\n    tag_127:\n        /* \"#utility.yul\":2788:2789   */\n      0x00\n        /* \"#utility.yul\":2813:2866   */\n      tag_128\n        /* \"#utility.yul\":2858:2865   */\n      dup5\n        /* \"#utility.yul\":2849:2855   */\n      dup3\n        /* \"#utility.yul\":2838:2847   */\n      dup6\n        /* \"#utility.yul\":2834:2856   */\n      add\n        /* \"#utility.yul\":2813:2866   */\n      tag_115\n      jump\t// in\n    tag_128:\n        /* \"#utility.yul\":2803:2866   */\n      swap2\n      pop\n        /* \"#utility.yul\":2759:2876   */\n      pop\n        /* \"#utility.yul\":2687:2883   */\n      swap3\n      swap2\n      pop\n      pop\n      jump\t// out\n        /* \"#utility.yul\":2889:3007   */\n    tag_129:\n        /* \"#utility.yul\":2976:3000   */\n      tag_131\n        /* \"#utility.yul\":2994:2999   */\n      dup2\n        /* \"#utility.yul\":2976:3000   */\n      tag_132\n      jump\t// in\n    tag_131:\n        /* \"#utility.yul\":2971:2974   */\n      dup3\n        /* \"#utility.yul\":2964:3001   */\n      mstore\n        /* \"#utility.yul\":2954:3007   */\n      pop\n      pop\n      jump\t// out\n        /* \"#utility.yul\":3013:3122   */\n    tag_133:\n        /* \"#utility.yul\":3094:3115   */\n      tag_135\n        /* \"#utility.yul\":3109:3114   */\n      dup2\n        /* \"#utility.yul\":3094:3115   */\n      tag_136\n      jump\t// in\n    tag_135:\n        /* \"#utility.yul\":3089:3092   */\n      dup3\n        /* \"#utility.yul\":3082:3116   */\n      mstore\n        /* \"#utility.yul\":3072:3122   */\n      pop\n      pop\n      jump\t// out\n        /* \"#utility.yul\":3128:3492   */\n    tag_137:\n      0x00\n        /* \"#utility.yul\":3244:3283   */\n      tag_139\n        /* \"#utility.yul\":3277:3282   */\n      dup3\n        /* \"#utility.yul\":3244:3283   */\n      tag_140\n      jump\t// in\n    tag_139:\n        /* \"#utility.yul\":3299:3370   */\n      tag_141\n        /* \"#utility.yul\":3363:3369   */\n      dup2\n        /* \"#utility.yul\":3358:3361   */\n      dup6\n        /* \"#utility.yul\":3299:3370   */\n      tag_142\n      jump\t// in\n    tag_141:\n        /* \"#utility.yul\":3292:3370   */\n      swap4\n      pop\n        /* \"#utility.yul\":3379:3431   */\n      tag_143\n        /* \"#utility.yul\":3424:3430   */\n      dup2\n        /* \"#utility.yul\":3419:3422   */\n      dup6\n        /* \"#utility.yul\":3412:3416   */\n      0x20\n        /* \"#utility.yul\":3405:3410   */\n      dup7\n        /* \"#utility.yul\":3401:3417   */\n      add\n        /* \"#utility.yul\":3379:3431   */\n      tag_144\n      jump\t// in\n    tag_143:\n        /* \"#utility.yul\":3456:3485   */\n      tag_145\n        /* \"#utility.yul\":3478:3484   */\n      dup2\n        /* \"#utility.yul\":3456:3485   */\n      tag_146\n      jump\t// in\n    tag_145:\n        /* \"#utility.yul\":3451:3454   */\n      dup5\n        /* \"#utility.yul\":3447:3486   */\n      add\n        /* \"#utility.yul\":3440:3486   */\n      swap2\n      pop\n        /* \"#utility.yul\":3220:3492   */\n      pop\n      swap3\n      swap2\n      pop\n      pop\n      jump\t// out\n        /* \"#utility.yul\":3498:3616   */\n    tag_147:\n        /* \"#utility.yul\":3585:3609   */\n      tag_149\n        /* \"#utility.yul\":3603:3608   */\n      dup2\n        /* \"#utility.yul\":3585:3609   */\n      tag_150\n      jump\t// in\n    tag_149:\n        /* \"#utility.yul\":3580:3583   */\n      dup3\n        /* \"#utility.yul\":3573:3610   */\n      mstore\n        /* \"#utility.yul\":3563:3616   */\n      pop\n      pop\n      jump\t// out\n        /* \"#utility.yul\":3622:3844   */\n    tag_24:\n      0x00\n        /* \"#utility.yul\":3753:3755   */\n      0x20\n        /* \"#utility.yul\":3742:3751   */\n      dup3\n        /* \"#utility.yul\":3738:3756   */\n      add\n        /* \"#utility.yul\":3730:3756   */\n      swap1\n      pop\n        /* \"#utility.yul\":3766:3837   */\n      tag_152\n        /* \"#utility.yul\":3834:3835   */\n      0x00\n        /* \"#utility.yul\":3823:3832   */\n      dup4\n        /* \"#utility.yul\":3819:3836   */\n      add\n        /* \"#utility.yul\":3810:3816   */\n      dup5\n        /* \"#utility.yul\":3766:3837   */\n      tag_129\n      jump\t// in\n    tag_152:\n        /* \"#utility.yul\":3720:3844   */\n      swap3\n      swap2\n      pop\n      pop\n      jump\t// out\n        /* \"#utility.yul\":3850:4273   */\n    tag_20:\n      0x00\n        /* \"#utility.yul\":4029:4031   */\n      0x40\n        /* \"#utility.yul\":4018:4027   */\n      dup3\n        /* \"#utility.yul\":4014:4032   */\n      add\n        /* \"#utility.yul\":4006:4032   */\n      swap1\n      pop\n        /* \"#utility.yul\":4078:4087   */\n      dup2\n        /* \"#utility.yul\":4072:4076   */\n      dup2\n        /* \"#utility.yul\":4068:4088   */\n      sub\n        /* \"#utility.yul\":4064:4065   */\n      0x00\n        /* \"#utility.yul\":4053:4062   */\n      dup4\n        /* \"#utility.yul\":4049:4066   */\n      add\n        /* \"#utility.yul\":4042:4089   */\n      mstore\n        /* \"#utility.yul\":4106:4184   */\n      tag_154\n        /* \"#utility.yul\":4179:4183   */\n      dup2\n        /* \"#utility.yul\":4170:4176   */\n      dup6\n        /* \"#utility.yul\":4106:4184   */\n      tag_137\n      jump\t// in\n    tag_154:\n        /* \"#utility.yul\":4098:4184   */\n      swap1\n      pop\n        /* \"#utility.yul\":4194:4266   */\n      tag_155\n        /* \"#utility.yul\":4262:4264   */\n      0x20\n        /* \"#utility.yul\":4251:4260   */\n      dup4\n        /* \"#utility.yul\":4247:4265   */\n      add\n        /* \"#utility.yul\":4238:4244   */\n      dup5\n        /* \"#utility.yul\":4194:4266   */\n      tag_147\n      jump\t// in\n    tag_155:\n        /* \"#utility.yul\":3996:4273   */\n      swap4\n      swap3\n      pop\n      pop\n      pop\n      jump\t// out\n        /* \"#utility.yul\":4279:4501   */\n    tag_28:\n      0x00\n        /* \"#utility.yul\":4410:4412   */\n      0x20\n        /* \"#utility.yul\":4399:4408   */\n      dup3\n        /* \"#utility.yul\":4395:4413   */\n      add\n        /* \"#utility.yul\":4387:4413   */\n      swap1\n      pop\n        /* \"#utility.yul\":4423:4494   */\n      tag_157\n        /* \"#utility.yul\":4491:4492   */\n      0x00\n        /* \"#utility.yul\":4480:4489   */\n      dup4\n        /* \"#utility.yul\":4476:4493   */\n      add\n        /* \"#utility.yul\":4467:4473   */\n      dup5\n        /* \"#utility.yul\":4423:4494   */\n      tag_147\n      jump\t// in\n    tag_157:\n        /* \"#utility.yul\":4377:4501   */\n      swap3\n      swap2\n      pop\n      pop\n      jump\t// out\n        /* \"#utility.yul\":4507:5048   */\n    tag_41:\n      0x00\n        /* \"#utility.yul\":4716:4719   */\n      0x80\n        /* \"#utility.yul\":4705:4714   */\n      dup3\n        /* \"#utility.yul\":4701:4720   */\n      add\n        /* \"#utility.yul\":4693:4720   */\n      swap1\n      pop\n        /* \"#utility.yul\":4730:4801   */\n      tag_159\n        /* \"#utility.yul\":4798:4799   */\n      0x00\n        /* \"#utility.yul\":4787:4796   */\n      dup4\n        /* \"#utility.yul\":4783:4800   */\n      add\n        /* \"#utility.yul\":4774:4780   */\n      dup8\n        /* \"#utility.yul\":4730:4801   */\n      tag_147\n      jump\t// in\n    tag_159:\n        /* \"#utility.yul\":4811:4877   */\n      tag_160\n        /* \"#utility.yul\":4873:4875   */\n      0x20\n        /* \"#utility.yul\":4862:4871   */\n      dup4\n        /* \"#utility.yul\":4858:4876   */\n      add\n        /* \"#utility.yul\":4849:4855   */\n      dup7\n        /* \"#utility.yul\":4811:4877   */\n      tag_133\n      jump\t// in\n    tag_160:\n        /* \"#utility.yul\":4887:4959   */\n      tag_161\n        /* \"#utility.yul\":4955:4957   */\n      0x40\n        /* \"#utility.yul\":4944:4953   */\n      dup4\n        /* \"#utility.yul\":4940:4958   */\n      add\n        /* \"#utility.yul\":4931:4937   */\n      dup6\n        /* \"#utility.yul\":4887:4959   */\n      tag_129\n      jump\t// in\n    tag_161:\n        /* \"#utility.yul\":4969:5041   */\n      tag_162\n        /* \"#utility.yul\":5037:5039   */\n      0x60\n        /* \"#utility.yul\":5026:5035   */\n      dup4\n        /* \"#utility.yul\":5022:5040   */\n      add\n        /* \"#utility.yul\":5013:5019   */\n      dup5\n        /* \"#utility.yul\":4969:5041   */\n      tag_147\n      jump\t// in\n    tag_162:\n        /* \"#utility.yul\":4683:5048   */\n      swap6\n      swap5\n      pop\n      pop\n      pop\n      pop\n      pop\n      jump\t// out\n        /* \"#utility.yul\":5054:5337   */\n    tag_90:\n      0x00\n        /* \"#utility.yul\":5120:5122   */\n      0x40\n        /* \"#utility.yul\":5114:5123   */\n      mload\n        /* \"#utility.yul\":5104:5123   */\n      swap1\n      pop\n        /* \"#utility.yul\":5162:5166   */\n      dup2\n        /* \"#utility.yul\":5154:5160   */\n      dup2\n        /* \"#utility.yul\":5150:5167   */\n      add\n        /* \"#utility.yul\":5269:5275   */\n      dup2\n        /* \"#utility.yul\":5257:5267   */\n      dup2\n        /* \"#utility.yul\":5254:5276   */\n      lt\n        /* \"#utility.yul\":5233:5251   */\n      0xffffffffffffffff\n        /* \"#utility.yul\":5221:5231   */\n      dup3\n        /* \"#utility.yul\":5218:5252   */\n      gt\n        /* \"#utility.yul\":5215:5277   */\n      or\n        /* \"#utility.yul\":5212:5214   */\n      iszero\n      tag_164\n      jumpi\n        /* \"#utility.yul\":5280:5298   */\n      tag_165\n      tag_166\n      jump\t// in\n    tag_165:\n        /* \"#utility.yul\":5212:5214   */\n    tag_164:\n        /* \"#utility.yul\":5320:5330   */\n      dup1\n        /* \"#utility.yul\":5316:5318   */\n      0x40\n        /* \"#utility.yul\":5309:5331   */\n      mstore\n        /* \"#utility.yul\":5094:5337   */\n      pop\n      swap2\n      swap1\n      pop\n      jump\t// out\n        /* \"#utility.yul\":5343:5664   */\n    tag_89:\n      0x00\n        /* \"#utility.yul\":5520:5538   */\n      0xffffffffffffffff\n        /* \"#utility.yul\":5512:5518   */\n      dup3\n        /* \"#utility.yul\":5509:5539   */\n      gt\n        /* \"#utility.yul\":5506:5508   */\n      iszero\n      tag_168\n      jumpi\n        /* \"#utility.yul\":5542:5560   */\n      tag_169\n      tag_166\n      jump\t// in\n    tag_169:\n        /* \"#utility.yul\":5506:5508   */\n    tag_168:\n        /* \"#utility.yul\":5592:5596   */\n      0x20\n        /* \"#utility.yul\":5584:5590   */\n      dup3\n        /* \"#utility.yul\":5580:5597   */\n      mul\n        /* \"#utility.yul\":5572:5597   */\n      swap1\n      pop\n        /* \"#utility.yul\":5652:5656   */\n      0x20\n        /* \"#utility.yul\":5646:5650   */\n      dup2\n        /* \"#utility.yul\":5642:5657   */\n      add\n        /* \"#utility.yul\":5634:5657   */\n      swap1\n      pop\n        /* \"#utility.yul\":5435:5664   */\n      swap2\n      swap1\n      pop\n      jump\t// out\n        /* \"#utility.yul\":5670:6002   */\n    tag_100:\n      0x00\n        /* \"#utility.yul\":5822:5840   */\n      0xffffffffffffffff\n        /* \"#utility.yul\":5814:5820   */\n      dup3\n        /* \"#utility.yul\":5811:5841   */\n      gt\n        /* \"#utility.yul\":5808:5810   */\n      iszero\n      tag_171\n      jumpi\n        /* \"#utility.yul\":5844:5862   */\n      tag_172\n      tag_166\n      jump\t// in\n    tag_172:\n        /* \"#utility.yul\":5808:5810   */\n    tag_171:\n        /* \"#utility.yul\":5929:5933   */\n      0x1f\n        /* \"#utility.yul\":5925:5934   */\n      not\n        /* \"#utility.yul\":5918:5922   */\n      0x1f\n        /* \"#utility.yul\":5910:5916   */\n      dup4\n        /* \"#utility.yul\":5906:5923   */\n      add\n        /* \"#utility.yul\":5902:5935   */\n      and\n        /* \"#utility.yul\":5894:5935   */\n      swap1\n      pop\n        /* \"#utility.yul\":5990:5994   */\n      0x20\n        /* \"#utility.yul\":5984:5988   */\n      dup2\n        /* \"#utility.yul\":5980:5995   */\n      add\n        /* \"#utility.yul\":5972:5995   */\n      swap1\n      pop\n        /* \"#utility.yul\":5737:6002   */\n      swap2\n      swap1\n      pop\n      jump\t// out\n        /* \"#utility.yul\":6008:6107   */\n    tag_140:\n      0x00\n        /* \"#utility.yul\":6094:6099   */\n      dup2\n        /* \"#utility.yul\":6088:6100   */\n      mload\n        /* \"#utility.yul\":6078:6100   */\n      swap1\n      pop\n        /* \"#utility.yul\":6067:6107   */\n      swap2\n      swap1\n      pop\n      jump\t// out\n        /* \"#utility.yul\":6113:6282   */\n    tag_142:\n      0x00\n        /* \"#utility.yul\":6231:6237   */\n      dup3\n        /* \"#utility.yul\":6226:6229   */\n      dup3\n        /* \"#utility.yul\":6219:6238   */\n      mstore\n        /* \"#utility.yul\":6271:6275   */\n      0x20\n        /* \"#utility.yul\":6266:6269   */\n      dup3\n        /* \"#utility.yul\":6262:6276   */\n      add\n        /* \"#utility.yul\":6247:6276   */\n      swap1\n      pop\n        /* \"#utility.yul\":6209:6282   */\n      swap3\n      swap2\n      pop\n      pop\n      jump\t// out\n        /* \"#utility.yul\":6288:6593   */\n    tag_49:\n      0x00\n        /* \"#utility.yul\":6347:6367   */\n      tag_176\n        /* \"#utility.yul\":6365:6366   */\n      dup3\n        /* \"#utility.yul\":6347:6367   */\n      tag_150\n      jump\t// in\n    tag_176:\n        /* \"#utility.yul\":6342:6367   */\n      swap2\n      pop\n        /* \"#utility.yul\":6381:6401   */\n      tag_177\n        /* \"#utility.yul\":6399:6400   */\n      dup4\n        /* \"#utility.yul\":6381:6401   */\n      tag_150\n      jump\t// in\n    tag_177:\n        /* \"#utility.yul\":6376:6401   */\n      swap3\n      pop\n        /* \"#utility.yul\":6535:6536   */\n      dup3\n        /* \"#utility.yul\":6467:6533   */\n      0xffffffffffffffffffffffffffffffffffffffffffffffffffffffffffffffff\n        /* \"#utility.yul\":6463:6537   */\n      sub\n        /* \"#utility.yul\":6460:6461   */\n      dup3\n        /* \"#utility.yul\":6457:6538   */\n      gt\n        /* \"#utility.yul\":6454:6456   */\n      iszero\n      tag_178\n      jumpi\n        /* \"#utility.yul\":6541:6559   */\n      tag_179\n      tag_180\n      jump\t// in\n    tag_179:\n        /* \"#utility.yul\":6454:6456   */\n    tag_178:\n        /* \"#utility.yul\":6585:6586   */\n      dup3\n        /* \"#utility.yul\":6582:6583   */\n      dup3\n        /* \"#utility.yul\":6578:6587   */\n      add\n        /* \"#utility.yul\":6571:6587   */\n      swap1\n      pop\n        /* \"#utility.yul\":6332:6593   */\n      swap3\n      swap2\n      pop\n      pop\n      jump\t// out\n        /* \"#utility.yul\":6599:6695   */\n    tag_132:\n      0x00\n        /* \"#utility.yul\":6665:6689   */\n      tag_182\n        /* \"#utility.yul\":6683:6688   */\n      dup3\n        /* \"#utility.yul\":6665:6689   */\n      tag_183\n      jump\t// in\n    tag_182:\n        /* \"#utility.yul\":6654:6689   */\n      swap1\n      pop\n        /* \"#utility.yul\":6644:6695   */\n      swap2\n      swap1\n      pop\n      jump\t// out\n        /* \"#utility.yul\":6701:6791   */\n    tag_136:\n      0x00\n        /* \"#utility.yul\":6778:6783   */\n      dup2\n        /* \"#utility.yul\":6771:6784   */\n      iszero\n        /* \"#utility.yul\":6764:6785   */\n      iszero\n        /* \"#utility.yul\":6753:6785   */\n      swap1\n      pop\n        /* \"#utility.yul\":6743:6791   */\n      swap2\n      swap1\n      pop\n      jump\t// out\n        /* \"#utility.yul\":6797:6923   */\n    tag_183:\n      0x00\n        /* \"#utility.yul\":6874:6916   */\n      0xffffffffffffffffffffffffffffffffffffffff\n        /* \"#utility.yul\":6867:6872   */\n      dup3\n        /* \"#utility.yul\":6863:6917   */\n      and\n        /* \"#utility.yul\":6852:6917   */\n      swap1\n      pop\n        /* \"#utility.yul\":6842:6923   */\n      swap2\n      swap1\n      pop\n      jump\t// out\n        /* \"#utility.yul\":6929:7006   */\n    tag_150:\n      0x00\n        /* \"#utility.yul\":6995:7000   */\n      dup2\n        /* \"#utility.yul\":6984:7000   */\n      swap1\n      pop\n        /* \"#utility.yul\":6974:7006   */\n      swap2\n      swap1\n      pop\n      jump\t// out\n        /* \"#utility.yul\":7012:7166   */\n    tag_103:\n        /* \"#utility.yul\":7096:7102   */\n      dup3\n        /* \"#utility.yul\":7091:7094   */\n      dup2\n        /* \"#utility.yul\":7086:7089   */\n      dup4\n        /* \"#utility.yul\":7073:7103   */\n      calldatacopy\n        /* \"#utility.yul\":7158:7159   */\n      0x00\n        /* \"#utility.yul\":7149:7155   */\n      dup4\n        /* \"#utility.yul\":7144:7147   */\n      dup4\n        /* \"#utility.yul\":7140:7156   */\n      add\n        /* \"#utility.yul\":7133:7160   */\n      mstore\n        /* \"#utility.yul\":7063:7166   */\n      pop\n      pop\n      pop\n      jump\t// out\n        /* \"#utility.yul\":7172:7479   */\n    tag_144:\n        /* \"#utility.yul\":7240:7241   */\n      0x00\n        /* \"#utility.yul\":7250:7363   */\n    tag_189:\n        /* \"#utility.yul\":7264:7270   */\n      dup4\n        /* \"#utility.yul\":7261:7262   */\n      dup2\n        /* \"#utility.yul\":7258:7271   */\n      lt\n        /* \"#utility.yul\":7250:7363   */\n      iszero\n      tag_191\n      jumpi\n        /* \"#utility.yul\":7349:7350   */\n      dup1\n        /* \"#utility.yul\":7344:7347   */\n      dup3\n        /* \"#utility.yul\":7340:7351   */\n      add\n        /* \"#utility.yul\":7334:7352   */\n      mload\n        /* \"#utility.yul\":7330:7331   */\n      dup2\n        /* \"#utility.yul\":7325:7328   */\n      dup5\n        /* \"#utility.yul\":7321:7332   */\n      add\n        /* \"#utility.yul\":7314:7353   */\n      mstore\n        /* \"#utility.yul\":7286:7288   */\n      0x20\n        /* \"#utility.yul\":7283:7284   */\n      dup2\n        /* \"#utility.yul\":7279:7289   */\n      add\n        /* \"#utility.yul\":7274:7289   */\n      swap1\n      pop\n        /* \"#utility.yul\":7250:7363   */\n      jump(tag_189)\n    tag_191:\n        /* \"#utility.yul\":7381:7387   */\n      dup4\n        /* \"#utility.yul\":7378:7379   */\n      dup2\n        /* \"#utility.yul\":7375:7388   */\n      gt\n        /* \"#utility.yul\":7372:7374   */\n      iszero\n      tag_192\n      jumpi\n        /* \"#utility.yul\":7461:7462   */\n      0x00\n        /* \"#utility.yul\":7452:7458   */\n      dup5\n        /* \"#utility.yul\":7447:7450   */\n      dup5\n        /* \"#utility.yul\":7443:7459   */\n      add\n        /* \"#utility.yul\":7436:7463   */\n      mstore\n        /* \"#utility.yul\":7372:7374   */\n    tag_192:\n        /* \"#utility.yul\":7221:7479   */\n      pop\n      pop\n      pop\n      pop\n      jump\t// out\n        /* \"#utility.yul\":7485:7805   */\n    tag_53:\n      0x00\n        /* \"#utility.yul\":7566:7567   */\n      0x02\n        /* \"#utility.yul\":7560:7564   */\n      dup3\n        /* \"#utility.yul\":7556:7568   */\n      div\n        /* \"#utility.yul\":7546:7568   */\n      swap1\n      pop\n        /* \"#utility.yul\":7613:7614   */\n      0x01\n        /* \"#utility.yul\":7607:7611   */\n      dup3\n        /* \"#utility.yul\":7603:7615   */\n      and\n        /* \"#utility.yul\":7634:7652   */\n      dup1\n        /* \"#utility.yul\":7624:7626   */\n      tag_194\n      jumpi\n        /* \"#utility.yul\":7690:7694   */\n      0x7f\n        /* \"#utility.yul\":7682:7688   */\n      dup3\n        /* \"#utility.yul\":7678:7695   */\n      and\n        /* \"#utility.yul\":7668:7695   */\n      swap2\n      pop\n        /* \"#utility.yul\":7624:7626   */\n    tag_194:\n        /* \"#utility.yul\":7752:7754   */\n      0x20\n        /* \"#utility.yul\":7744:7750   */\n      dup3\n        /* \"#utility.yul\":7741:7755   */\n      lt\n        /* \"#utility.yul\":7721:7739   */\n      dup2\n        /* \"#utility.yul\":7718:7756   */\n      eq\n        /* \"#utility.yul\":7715:7717   */\n      iszero\n      tag_195\n      jumpi\n        /* \"#utility.yul\":7771:7789   */\n      tag_196\n      tag_197\n      jump\t// in\n    tag_196:\n        /* \"#utility.yul\":7715:7717   */\n    tag_195:\n        /* \"#utility.yul\":7536:7805   */\n      pop\n      swap2\n      swap1\n      pop\n      jump\t// out\n        /* \"#utility.yul\":7811:8044   */\n    tag_68:\n      0x00\n        /* \"#utility.yul\":7873:7897   */\n      tag_199\n        /* \"#utility.yul\":7891:7896   */\n      dup3\n        /* \"#utility.yul\":7873:7897   */\n      tag_150\n      jump\t// in\n    tag_199:\n        /* \"#utility.yul\":7864:7897   */\n      swap2\n      pop\n        /* \"#utility.yul\":7919:7985   */\n      0xffffffffffffffffffffffffffffffffffffffffffffffffffffffffffffffff\n        /* \"#utility.yul\":7912:7917   */\n      dup3\n        /* \"#utility.yul\":7909:7986   */\n      eq\n        /* \"#utility.yul\":7906:7908   */\n      iszero\n      tag_200\n      jumpi\n        /* \"#utility.yul\":7989:8007   */\n      tag_201\n      tag_180\n      jump\t// in\n    tag_201:\n        /* \"#utility.yul\":7906:7908   */\n    tag_200:\n        /* \"#utility.yul\":8036:8037   */\n      0x01\n        /* \"#utility.yul\":8029:8034   */\n      dup3\n        /* \"#utility.yul\":8025:8038   */\n      add\n        /* \"#utility.yul\":8018:8038   */\n      swap1\n      pop\n        /* \"#utility.yul\":7854:8044   */\n      swap2\n      swap1\n      pop\n      jump\t// out\n        /* \"#utility.yul\":8050:8230   */\n    tag_180:\n        /* \"#utility.yul\":8098:8175   */\n      0x4e487b7100000000000000000000000000000000000000000000000000000000\n        /* \"#utility.yul\":8095:8096   */\n      0x00\n        /* \"#utility.yul\":8088:8176   */\n      mstore\n        /* \"#utility.yul\":8195:8199   */\n      0x11\n        /* \"#utility.yul\":8192:8193   */\n      0x04\n        /* \"#utility.yul\":8185:8200   */\n      mstore\n        /* \"#utility.yul\":8219:8223   */\n      0x24\n        /* \"#utility.yul\":8216:8217   */\n      0x00\n        /* \"#utility.yul\":8209:8224   */\n      revert\n        /* \"#utility.yul\":8236:8416   */\n    tag_197:\n        /* \"#utility.yul\":8284:8361   */\n      0x4e487b7100000000000000000000000000000000000000000000000000000000\n        /* \"#utility.yul\":8281:8282   */\n      0x00\n        /* \"#utility.yul\":8274:8362   */\n      mstore\n        /* \"#utility.yul\":8381:8385   */\n      0x22\n        /* \"#utility.yul\":8378:8379   */\n      0x04\n        /* \"#utility.yul\":8371:8386   */\n      mstore\n        /* \"#utility.yul\":8405:8409   */\n      0x24\n        /* \"#utility.yul\":8402:8403   */\n      0x00\n        /* \"#utility.yul\":8395:8410   */\n      revert\n        /* \"#utility.yul\":8422:8602   */\n    tag_166:\n        /* \"#utility.yul\":8470:8547   */\n      0x4e487b7100000000000000000000000000000000000000000000000000000000\n        /* \"#utility.yul\":8467:8468   */\n      0x00\n        /* \"#utility.yul\":8460:8548   */\n      mstore\n        /* \"#utility.yul\":8567:8571   */\n      0x41\n        /* \"#utility.yul\":8564:8565   */\n      0x04\n        /* \"#utility.yul\":8557:8572   */\n      mstore\n        /* \"#utility.yul\":8591:8595   */\n      0x24\n        /* \"#utility.yul\":8588:8589   */\n      0x00\n        /* \"#utility.yul\":8581:8596   */\n      revert\n        /* \"#utility.yul\":8608:8710   */\n    tag_146:\n      0x00\n        /* \"#utility.yul\":8700:8702   */\n      0x1f\n        /* \"#utility.yul\":8696:8703   */\n      not\n        /* \"#utility.yul\":8691:8693   */\n      0x1f\n        /* \"#utility.yul\":8684:8689   */\n      dup4\n        /* \"#utility.yul\":8680:8694   */\n      add\n        /* \"#utility.yul\":8676:8704   */\n      and\n        /* \"#utility.yul\":8666:8704   */\n      swap1\n      pop\n        /* \"#utility.yul\":8656:8710   */\n      swap2\n      swap1\n      pop\n      jump\t// out\n        /* \"#utility.yul\":8716:8838   */\n    tag_107:\n        /* \"#utility.yul\":8789:8813   */\n      tag_207\n        /* \"#utility.yul\":8807:8812   */\n      dup2\n        /* \"#utility.yul\":8789:8813   */\n      tag_132\n      jump\t// in\n    tag_207:\n        /* \"#utility.yul\":8782:8787   */\n      dup2\n        /* \"#utility.yul\":8779:8814   */\n      eq\n        /* \"#utility.yul\":8769:8771   */\n      tag_208\n      jumpi\n        /* \"#utility.yul\":8828:8829   */\n      0x00\n        /* \"#utility.yul\":8825:8826   */\n      dup1\n        /* \"#utility.yul\":8818:8830   */\n      revert\n        /* \"#utility.yul\":8769:8771   */\n    tag_208:\n        /* \"#utility.yul\":8759:8838   */\n      pop\n      jump\t// out\n        /* \"#utility.yul\":8844:8966   */\n    tag_118:\n        /* \"#utility.yul\":8917:8941   */\n      tag_210\n        /* \"#utility.yul\":8935:8940   */\n      dup2\n        /* \"#utility.yul\":8917:8941   */\n      tag_150\n      jump\t// in\n    tag_210:\n        /* \"#utility.yul\":8910:8915   */\n      dup2\n        /* \"#utility.yul\":8907:8942   */\n      eq\n        /* \"#utility.yul\":8897:8899   */\n      tag_211\n      jumpi\n        /* \"#utility.yul\":8956:8957   */\n      0x00\n        /* \"#utility.yul\":8953:8954   */\n      dup1\n        /* \"#utility.yul\":8946:8958   */\n      revert\n        /* \"#utility.yul\":8897:8899   */\n    tag_211:\n        /* \"#utility.yul\":8887:8966   */\n      pop\n      jump\t// out\n\n    auxdata: 0xa2646970667358221220c0c9e8049715630795bf53e60f4ab6d1041785337e6b09c5af214825700cad3f64736f6c63430008000033\n}\n",
				"bytecode": {
					"linkReferences": {},
					"object": "608060405234801561001057600080fd5b50610cf5806100206000396000f3fe608060405234801561001057600080fd5b50600436106100885760003560e01c8063836bc6921161005b578063836bc692146101165780639e7b8d6114610132578063a3ec138d1461014e578063d9276a491461018157610088565b80630121b93f1461008d578063013cf08b146100a95780632e4176cf146100da578063557ed1ba146100f8575b600080fd5b6100a760048036038101906100a291906108b5565b61018b565b005b6100c360048036038101906100be91906108b5565b61027a565b6040516100d192919061095f565b60405180910390f35b6100e2610336565b6040516100ef9190610944565b60405180910390f35b61010061035c565b60405161010d919061098f565b60405180910390f35b610130600480360381019061012b9190610874565b610365565b005b61014c6004803603810190610147919061084b565b6104dd565b005b6101686004803603810190610163919061084b565b610629565b60405161017894939291906109aa565b60405180910390f35b610189610686565b005b6000600360003373ffffffffffffffffffffffffffffffffffffffff1673ffffffffffffffffffffffffffffffffffffffff16815260200190815260200160002090508060010160009054906101000a900460ff16156101ea57600080fd5b60018160010160006101000a81548160ff02191690831515021790555081816002018190555080600001546004838154811061024f577f4e487b7100000000000000000000000000000000000000000000000000000000600052603260045260246000fd5b9060005260206000209060020201600101600082825461026f9190610a98565b925050819055505050565b6004818154811061028a57600080fd5b90600052602060002090600202016000915090508060000180546102ad90610b78565b80601f01602080910402602001604051908101604052809291908181526020018280546102d990610b78565b80156103265780601f106102fb57610100808354040283529160200191610326565b820191906000526020600020905b81548152906001019060200180831161030957829003601f168201915b5050505050908060010154905082565b600260009054906101000a900473ffffffffffffffffffffffffffffffffffffffff1681565b60008054905090565b33600260006101000a81548173ffffffffffffffffffffffffffffffffffffffff021916908373ffffffffffffffffffffffffffffffffffffffff160217905550600160036000600260009054906101000a900473ffffffffffffffffffffffffffffffffffffffff1673ffffffffffffffffffffffffffffffffffffffff1673ffffffffffffffffffffffffffffffffffffffff1681526020019081526020016000206000018190555060005b81518110156104d95760046040518060400160405280848481518110610462577f4e487b7100000000000000000000000000000000000000000000000000000000600052603260045260246000fd5b602002602001015181526020016000815250908060018154018082558091505060019003906000526020600020906002020160009091909190915060008201518160000190805190602001906104b992919061068f565b5060208201518160010155505080806104d190610baa565b915050610413565b5050565b600260009054906101000a900473ffffffffffffffffffffffffffffffffffffffff1673ffffffffffffffffffffffffffffffffffffffff163373ffffffffffffffffffffffffffffffffffffffff161480156105875750600360008273ffffffffffffffffffffffffffffffffffffffff1673ffffffffffffffffffffffffffffffffffffffff16815260200190815260200160002060010160009054906101000a900460ff16155b80156105d557506000600360008373ffffffffffffffffffffffffffffffffffffffff1673ffffffffffffffffffffffffffffffffffffffff16815260200190815260200160002060000154145b6105de57600080fd5b6001600360008373ffffffffffffffffffffffffffffffffffffffff1673ffffffffffffffffffffffffffffffffffffffff1681526020019081526020016000206000018190555050565b60036020528060005260406000206000915090508060000154908060010160009054906101000a900460ff16908060010160019054906101000a900473ffffffffffffffffffffffffffffffffffffffff16908060020154905084565b42600081905550565b82805461069b90610b78565b90600052602060002090601f0160209004810192826106bd5760008555610704565b82601f106106d657805160ff1916838001178555610704565b82800160010185558215610704579182015b828111156107035782518255916020019190600101906106e8565b5b5090506107119190610715565b5090565b5b8082111561072e576000816000905550600101610716565b5090565b600061074561074084610a20565b6109ef565b9050808382526020820190508260005b85811015610785578135850161076b888261080c565b845260208401935060208301925050600181019050610755565b5050509392505050565b60006107a261079d84610a4c565b6109ef565b9050828152602081018484840111156107ba57600080fd5b6107c5848285610b36565b509392505050565b6000813590506107dc81610c91565b92915050565b600082601f8301126107f357600080fd5b8135610803848260208601610732565b91505092915050565b600082601f83011261081d57600080fd5b813561082d84826020860161078f565b91505092915050565b60008135905061084581610ca8565b92915050565b60006020828403121561085d57600080fd5b600061086b848285016107cd565b91505092915050565b60006020828403121561088657600080fd5b600082013567ffffffffffffffff8111156108a057600080fd5b6108ac848285016107e2565b91505092915050565b6000602082840312156108c757600080fd5b60006108d584828501610836565b91505092915050565b6108e781610aee565b82525050565b6108f681610b00565b82525050565b600061090782610a7c565b6109118185610a87565b9350610921818560208601610b45565b61092a81610c80565b840191505092915050565b61093e81610b2c565b82525050565b600060208201905061095960008301846108de565b92915050565b6000604082019050818103600083015261097981856108fc565b90506109886020830184610935565b9392505050565b60006020820190506109a46000830184610935565b92915050565b60006080820190506109bf6000830187610935565b6109cc60208301866108ed565b6109d960408301856108de565b6109e66060830184610935565b95945050505050565b6000604051905081810181811067ffffffffffffffff82111715610a1657610a15610c51565b5b8060405250919050565b600067ffffffffffffffff821115610a3b57610a3a610c51565b5b602082029050602081019050919050565b600067ffffffffffffffff821115610a6757610a66610c51565b5b601f19601f8301169050602081019050919050565b600081519050919050565b600082825260208201905092915050565b6000610aa382610b2c565b9150610aae83610b2c565b9250827fffffffffffffffffffffffffffffffffffffffffffffffffffffffffffffffff03821115610ae357610ae2610bf3565b5b828201905092915050565b6000610af982610b0c565b9050919050565b60008115159050919050565b600073ffffffffffffffffffffffffffffffffffffffff82169050919050565b6000819050919050565b82818337600083830152505050565b60005b83811015610b63578082015181840152602081019050610b48565b83811115610b72576000848401525b50505050565b60006002820490506001821680610b9057607f821691505b60208210811415610ba457610ba3610c22565b5b50919050565b6000610bb582610b2c565b91507fffffffffffffffffffffffffffffffffffffffffffffffffffffffffffffffff821415610be857610be7610bf3565b5b600182019050919050565b7f4e487b7100000000000000000000000000000000000000000000000000000000600052601160045260246000fd5b7f4e487b7100000000000000000000000000000000000000000000000000000000600052602260045260246000fd5b7f4e487b7100000000000000000000000000000000000000000000000000000000600052604160045260246000fd5b6000601f19601f8301169050919050565b610c9a81610aee565b8114610ca557600080fd5b50565b610cb181610b2c565b8114610cbc57600080fd5b5056fea2646970667358221220c0c9e8049715630795bf53e60f4ab6d1041785337e6b09c5af214825700cad3f64736f6c63430008000033",
					"opcodes": "PUSH1 0x80 PUSH1 0x40 MSTORE CALLVALUE DUP1 ISZERO PUSH2 0x10 JUMPI PUSH1 0x0 DUP1 REVERT JUMPDEST POP PUSH2 0xCF5 DUP1 PUSH2 0x20 PUSH1 0x0 CODECOPY PUSH1 0x0 RETURN INVALID PUSH1 0x80 PUSH1 0x40 MSTORE CALLVALUE DUP1 ISZERO PUSH2 0x10 JUMPI PUSH1 0x0 DUP1 REVERT JUMPDEST POP PUSH1 0x4 CALLDATASIZE LT PUSH2 0x88 JUMPI PUSH1 0x0 CALLDATALOAD PUSH1 0xE0 SHR DUP1 PUSH4 0x836BC692 GT PUSH2 0x5B JUMPI DUP1 PUSH4 0x836BC692 EQ PUSH2 0x116 JUMPI DUP1 PUSH4 0x9E7B8D61 EQ PUSH2 0x132 JUMPI DUP1 PUSH4 0xA3EC138D EQ PUSH2 0x14E JUMPI DUP1 PUSH4 0xD9276A49 EQ PUSH2 0x181 JUMPI PUSH2 0x88 JUMP JUMPDEST DUP1 PUSH4 0x121B93F EQ PUSH2 0x8D JUMPI DUP1 PUSH4 0x13CF08B EQ PUSH2 0xA9 JUMPI DUP1 PUSH4 0x2E4176CF EQ PUSH2 0xDA JUMPI DUP1 PUSH4 0x557ED1BA EQ PUSH2 0xF8 JUMPI JUMPDEST PUSH1 0x0 DUP1 REVERT JUMPDEST PUSH2 0xA7 PUSH1 0x4 DUP1 CALLDATASIZE SUB DUP2 ADD SWAP1 PUSH2 0xA2 SWAP2 SWAP1 PUSH2 0x8B5 JUMP JUMPDEST PUSH2 0x18B JUMP JUMPDEST STOP JUMPDEST PUSH2 0xC3 PUSH1 0x4 DUP1 CALLDATASIZE SUB DUP2 ADD SWAP1 PUSH2 0xBE SWAP2 SWAP1 PUSH2 0x8B5 JUMP JUMPDEST PUSH2 0x27A JUMP JUMPDEST PUSH1 0x40 MLOAD PUSH2 0xD1 SWAP3 SWAP2 SWAP1 PUSH2 0x95F JUMP JUMPDEST PUSH1 0x40 MLOAD DUP1 SWAP2 SUB SWAP1 RETURN JUMPDEST PUSH2 0xE2 PUSH2 0x336 JUMP JUMPDEST PUSH1 0x40 MLOAD PUSH2 0xEF SWAP2 SWAP1 PUSH2 0x944 JUMP JUMPDEST PUSH1 0x40 MLOAD DUP1 SWAP2 SUB SWAP1 RETURN JUMPDEST PUSH2 0x100 PUSH2 0x35C JUMP JUMPDEST PUSH1 0x40 MLOAD PUSH2 0x10D SWAP2 SWAP1 PUSH2 0x98F JUMP JUMPDEST PUSH1 0x40 MLOAD DUP1 SWAP2 SUB SWAP1 RETURN JUMPDEST PUSH2 0x130 PUSH1 0x4 DUP1 CALLDATASIZE SUB DUP2 ADD SWAP1 PUSH2 0x12B SWAP2 SWAP1 PUSH2 0x874 JUMP JUMPDEST PUSH2 0x365 JUMP JUMPDEST STOP JUMPDEST PUSH2 0x14C PUSH1 0x4 DUP1 CALLDATASIZE SUB DUP2 ADD SWAP1 PUSH2 0x147 SWAP2 SWAP1 PUSH2 0x84B JUMP JUMPDEST PUSH2 0x4DD JUMP JUMPDEST STOP JUMPDEST PUSH2 0x168 PUSH1 0x4 DUP1 CALLDATASIZE SUB DUP2 ADD SWAP1 PUSH2 0x163 SWAP2 SWAP1 PUSH2 0x84B JUMP JUMPDEST PUSH2 0x629 JUMP JUMPDEST PUSH1 0x40 MLOAD PUSH2 0x178 SWAP5 SWAP4 SWAP3 SWAP2 SWAP1 PUSH2 0x9AA JUMP JUMPDEST PUSH1 0x40 MLOAD DUP1 SWAP2 SUB SWAP1 RETURN JUMPDEST PUSH2 0x189 PUSH2 0x686 JUMP JUMPDEST STOP JUMPDEST PUSH1 0x0 PUSH1 0x3 PUSH1 0x0 CALLER PUSH20 0xFFFFFFFFFFFFFFFFFFFFFFFFFFFFFFFFFFFFFFFF AND PUSH20 0xFFFFFFFFFFFFFFFFFFFFFFFFFFFFFFFFFFFFFFFF AND DUP2 MSTORE PUSH1 0x20 ADD SWAP1 DUP2 MSTORE PUSH1 0x20 ADD PUSH1 0x0 KECCAK256 SWAP1 POP DUP1 PUSH1 0x1 ADD PUSH1 0x0 SWAP1 SLOAD SWAP1 PUSH2 0x100 EXP SWAP1 DIV PUSH1 0xFF AND ISZERO PUSH2 0x1EA JUMPI PUSH1 0x0 DUP1 REVERT JUMPDEST PUSH1 0x1 DUP2 PUSH1 0x1 ADD PUSH1 0x0 PUSH2 0x100 EXP DUP2 SLOAD DUP2 PUSH1 0xFF MUL NOT AND SWAP1 DUP4 ISZERO ISZERO MUL OR SWAP1 SSTORE POP DUP2 DUP2 PUSH1 0x2 ADD DUP2 SWAP1 SSTORE POP DUP1 PUSH1 0x0 ADD SLOAD PUSH1 0x4 DUP4 DUP2 SLOAD DUP2 LT PUSH2 0x24F JUMPI PUSH32 0x4E487B7100000000000000000000000000000000000000000000000000000000 PUSH1 0x0 MSTORE PUSH1 0x32 PUSH1 0x4 MSTORE PUSH1 0x24 PUSH1 0x0 REVERT JUMPDEST SWAP1 PUSH1 0x0 MSTORE PUSH1 0x20 PUSH1 0x0 KECCAK256 SWAP1 PUSH1 0x2 MUL ADD PUSH1 0x1 ADD PUSH1 0x0 DUP3 DUP3 SLOAD PUSH2 0x26F SWAP2 SWAP1 PUSH2 0xA98 JUMP JUMPDEST SWAP3 POP POP DUP2 SWAP1 SSTORE POP POP POP JUMP JUMPDEST PUSH1 0x4 DUP2 DUP2 SLOAD DUP2 LT PUSH2 0x28A JUMPI PUSH1 0x0 DUP1 REVERT JUMPDEST SWAP1 PUSH1 0x0 MSTORE PUSH1 0x20 PUSH1 0x0 KECCAK256 SWAP1 PUSH1 0x2 MUL ADD PUSH1 0x0 SWAP2 POP SWAP1 POP DUP1 PUSH1 0x0 ADD DUP1 SLOAD PUSH2 0x2AD SWAP1 PUSH2 0xB78 JUMP JUMPDEST DUP1 PUSH1 0x1F ADD PUSH1 0x20 DUP1 SWAP2 DIV MUL PUSH1 0x20 ADD PUSH1 0x40 MLOAD SWAP1 DUP2 ADD PUSH1 0x40 MSTORE DUP1 SWAP3 SWAP2 SWAP1 DUP2 DUP2 MSTORE PUSH1 0x20 ADD DUP3 DUP1 SLOAD PUSH2 0x2D9 SWAP1 PUSH2 0xB78 JUMP JUMPDEST DUP1 ISZERO PUSH2 0x326 JUMPI DUP1 PUSH1 0x1F LT PUSH2 0x2FB JUMPI PUSH2 0x100 DUP1 DUP4 SLOAD DIV MUL DUP4 MSTORE SWAP2 PUSH1 0x20 ADD SWAP2 PUSH2 0x326 JUMP JUMPDEST DUP3 ADD SWAP2 SWAP1 PUSH1 0x0 MSTORE PUSH1 0x20 PUSH1 0x0 KECCAK256 SWAP1 JUMPDEST DUP2 SLOAD DUP2 MSTORE SWAP1 PUSH1 0x1 ADD SWAP1 PUSH1 0x20 ADD DUP1 DUP4 GT PUSH2 0x309 JUMPI DUP3 SWAP1 SUB PUSH1 0x1F AND DUP3 ADD SWAP2 JUMPDEST POP POP POP POP POP SWAP1 DUP1 PUSH1 0x1 ADD SLOAD SWAP1 POP DUP3 JUMP JUMPDEST PUSH1 0x2 PUSH1 0x0 SWAP1 SLOAD SWAP1 PUSH2 0x100 EXP SWAP1 DIV PUSH20 0xFFFFFFFFFFFFFFFFFFFFFFFFFFFFFFFFFFFFFFFF AND DUP2 JUMP JUMPDEST PUSH1 0x0 DUP1 SLOAD SWAP1 POP SWAP1 JUMP JUMPDEST CALLER PUSH1 0x2 PUSH1 0x0 PUSH2 0x100 EXP DUP2 SLOAD DUP2 PUSH20 0xFFFFFFFFFFFFFFFFFFFFFFFFFFFFFFFFFFFFFFFF MUL NOT AND SWAP1 DUP4 PUSH20 0xFFFFFFFFFFFFFFFFFFFFFFFFFFFFFFFFFFFFFFFF AND MUL OR SWAP1 SSTORE POP PUSH1 0x1 PUSH1 0x3 PUSH1 0x0 PUSH1 0x2 PUSH1 0x0 SWAP1 SLOAD SWAP1 PUSH2 0x100 EXP SWAP1 DIV PUSH20 0xFFFFFFFFFFFFFFFFFFFFFFFFFFFFFFFFFFFFFFFF AND PUSH20 0xFFFFFFFFFFFFFFFFFFFFFFFFFFFFFFFFFFFFFFFF AND PUSH20 0xFFFFFFFFFFFFFFFFFFFFFFFFFFFFFFFFFFFFFFFF AND DUP2 MSTORE PUSH1 0x20 ADD SWAP1 DUP2 MSTORE PUSH1 0x20 ADD PUSH1 0x0 KECCAK256 PUSH1 0x0 ADD DUP2 SWAP1 SSTORE POP PUSH1 0x0 JUMPDEST DUP2 MLOAD DUP2 LT ISZERO PUSH2 0x4D9 JUMPI PUSH1 0x4 PUSH1 0x40 MLOAD DUP1 PUSH1 0x40 ADD PUSH1 0x40 MSTORE DUP1 DUP5 DUP5 DUP2 MLOAD DUP2 LT PUSH2 0x462 JUMPI PUSH32 0x4E487B7100000000000000000000000000000000000000000000000000000000 PUSH1 0x0 MSTORE PUSH1 0x32 PUSH1 0x4 MSTORE PUSH1 0x24 PUSH1 0x0 REVERT JUMPDEST PUSH1 0x20 MUL PUSH1 0x20 ADD ADD MLOAD DUP2 MSTORE PUSH1 0x20 ADD PUSH1 0x0 DUP2 MSTORE POP SWAP1 DUP1 PUSH1 0x1 DUP2 SLOAD ADD DUP1 DUP3 SSTORE DUP1 SWAP2 POP POP PUSH1 0x1 SWAP1 SUB SWAP1 PUSH1 0x0 MSTORE PUSH1 0x20 PUSH1 0x0 KECCAK256 SWAP1 PUSH1 0x2 MUL ADD PUSH1 0x0 SWAP1 SWAP2 SWAP1 SWAP2 SWAP1 SWAP2 POP PUSH1 0x0 DUP3 ADD MLOAD DUP2 PUSH1 0x0 ADD SWAP1 DUP1 MLOAD SWAP1 PUSH1 0x20 ADD SWAP1 PUSH2 0x4B9 SWAP3 SWAP2 SWAP1 PUSH2 0x68F JUMP JUMPDEST POP PUSH1 0x20 DUP3 ADD MLOAD DUP2 PUSH1 0x1 ADD SSTORE POP POP DUP1 DUP1 PUSH2 0x4D1 SWAP1 PUSH2 0xBAA JUMP JUMPDEST SWAP2 POP POP PUSH2 0x413 JUMP JUMPDEST POP POP JUMP JUMPDEST PUSH1 0x2 PUSH1 0x0 SWAP1 SLOAD SWAP1 PUSH2 0x100 EXP SWAP1 DIV PUSH20 0xFFFFFFFFFFFFFFFFFFFFFFFFFFFFFFFFFFFFFFFF AND PUSH20 0xFFFFFFFFFFFFFFFFFFFFFFFFFFFFFFFFFFFFFFFF AND CALLER PUSH20 0xFFFFFFFFFFFFFFFFFFFFFFFFFFFFFFFFFFFFFFFF AND EQ DUP1 ISZERO PUSH2 0x587 JUMPI POP PUSH1 0x3 PUSH1 0x0 DUP3 PUSH20 0xFFFFFFFFFFFFFFFFFFFFFFFFFFFFFFFFFFFFFFFF AND PUSH20 0xFFFFFFFFFFFFFFFFFFFFFFFFFFFFFFFFFFFFFFFF AND DUP2 MSTORE PUSH1 0x20 ADD SWAP1 DUP2 MSTORE PUSH1 0x20 ADD PUSH1 0x0 KECCAK256 PUSH1 0x1 ADD PUSH1 0x0 SWAP1 SLOAD SWAP1 PUSH2 0x100 EXP SWAP1 DIV PUSH1 0xFF AND ISZERO JUMPDEST DUP1 ISZERO PUSH2 0x5D5 JUMPI POP PUSH1 0x0 PUSH1 0x3 PUSH1 0x0 DUP4 PUSH20 0xFFFFFFFFFFFFFFFFFFFFFFFFFFFFFFFFFFFFFFFF AND PUSH20 0xFFFFFFFFFFFFFFFFFFFFFFFFFFFFFFFFFFFFFFFF AND DUP2 MSTORE PUSH1 0x20 ADD SWAP1 DUP2 MSTORE PUSH1 0x20 ADD PUSH1 0x0 KECCAK256 PUSH1 0x0 ADD SLOAD EQ JUMPDEST PUSH2 0x5DE JUMPI PUSH1 0x0 DUP1 REVERT JUMPDEST PUSH1 0x1 PUSH1 0x3 PUSH1 0x0 DUP4 PUSH20 0xFFFFFFFFFFFFFFFFFFFFFFFFFFFFFFFFFFFFFFFF AND PUSH20 0xFFFFFFFFFFFFFFFFFFFFFFFFFFFFFFFFFFFFFFFF AND DUP2 MSTORE PUSH1 0x20 ADD SWAP1 DUP2 MSTORE PUSH1 0x20 ADD PUSH1 0x0 KECCAK256 PUSH1 0x0 ADD DUP2 SWAP1 SSTORE POP POP JUMP JUMPDEST PUSH1 0x3 PUSH1 0x20 MSTORE DUP1 PUSH1 0x0 MSTORE PUSH1 0x40 PUSH1 0x0 KECCAK256 PUSH1 0x0 SWAP2 POP SWAP1 POP DUP1 PUSH1 0x0 ADD SLOAD SWAP1 DUP1 PUSH1 0x1 ADD PUSH1 0x0 SWAP1 SLOAD SWAP1 PUSH2 0x100 EXP SWAP1 DIV PUSH1 0xFF AND SWAP1 DUP1 PUSH1 0x1 ADD PUSH1 0x1 SWAP1 SLOAD SWAP1 PUSH2 0x100 EXP SWAP1 DIV PUSH20 0xFFFFFFFFFFFFFFFFFFFFFFFFFFFFFFFFFFFFFFFF AND SWAP1 DUP1 PUSH1 0x2 ADD SLOAD SWAP1 POP DUP5 JUMP JUMPDEST TIMESTAMP PUSH1 0x0 DUP2 SWAP1 SSTORE POP JUMP JUMPDEST DUP3 DUP1 SLOAD PUSH2 0x69B SWAP1 PUSH2 0xB78 JUMP JUMPDEST SWAP1 PUSH1 0x0 MSTORE PUSH1 0x20 PUSH1 0x0 KECCAK256 SWAP1 PUSH1 0x1F ADD PUSH1 0x20 SWAP1 DIV DUP2 ADD SWAP3 DUP3 PUSH2 0x6BD JUMPI PUSH1 0x0 DUP6 SSTORE PUSH2 0x704 JUMP JUMPDEST DUP3 PUSH1 0x1F LT PUSH2 0x6D6 JUMPI DUP1 MLOAD PUSH1 0xFF NOT AND DUP4 DUP1 ADD OR DUP6 SSTORE PUSH2 0x704 JUMP JUMPDEST DUP3 DUP1 ADD PUSH1 0x1 ADD DUP6 SSTORE DUP3 ISZERO PUSH2 0x704 JUMPI SWAP2 DUP3 ADD JUMPDEST DUP3 DUP2 GT ISZERO PUSH2 0x703 JUMPI DUP3 MLOAD DUP3 SSTORE SWAP2 PUSH1 0x20 ADD SWAP2 SWAP1 PUSH1 0x1 ADD SWAP1 PUSH2 0x6E8 JUMP JUMPDEST JUMPDEST POP SWAP1 POP PUSH2 0x711 SWAP2 SWAP1 PUSH2 0x715 JUMP JUMPDEST POP SWAP1 JUMP JUMPDEST JUMPDEST DUP1 DUP3 GT ISZERO PUSH2 0x72E JUMPI PUSH1 0x0 DUP2 PUSH1 0x0 SWAP1 SSTORE POP PUSH1 0x1 ADD PUSH2 0x716 JUMP JUMPDEST POP SWAP1 JUMP JUMPDEST PUSH1 0x0 PUSH2 0x745 PUSH2 0x740 DUP5 PUSH2 0xA20 JUMP JUMPDEST PUSH2 0x9EF JUMP JUMPDEST SWAP1 POP DUP1 DUP4 DUP3 MSTORE PUSH1 0x20 DUP3 ADD SWAP1 POP DUP3 PUSH1 0x0 JUMPDEST DUP6 DUP2 LT ISZERO PUSH2 0x785 JUMPI DUP2 CALLDATALOAD DUP6 ADD PUSH2 0x76B DUP9 DUP3 PUSH2 0x80C JUMP JUMPDEST DUP5 MSTORE PUSH1 0x20 DUP5 ADD SWAP4 POP PUSH1 0x20 DUP4 ADD SWAP3 POP POP PUSH1 0x1 DUP2 ADD SWAP1 POP PUSH2 0x755 JUMP JUMPDEST POP POP POP SWAP4 SWAP3 POP POP POP JUMP JUMPDEST PUSH1 0x0 PUSH2 0x7A2 PUSH2 0x79D DUP5 PUSH2 0xA4C JUMP JUMPDEST PUSH2 0x9EF JUMP JUMPDEST SWAP1 POP DUP3 DUP2 MSTORE PUSH1 0x20 DUP2 ADD DUP5 DUP5 DUP5 ADD GT ISZERO PUSH2 0x7BA JUMPI PUSH1 0x0 DUP1 REVERT JUMPDEST PUSH2 0x7C5 DUP5 DUP3 DUP6 PUSH2 0xB36 JUMP JUMPDEST POP SWAP4 SWAP3 POP POP POP JUMP JUMPDEST PUSH1 0x0 DUP2 CALLDATALOAD SWAP1 POP PUSH2 0x7DC DUP2 PUSH2 0xC91 JUMP JUMPDEST SWAP3 SWAP2 POP POP JUMP JUMPDEST PUSH1 0x0 DUP3 PUSH1 0x1F DUP4 ADD SLT PUSH2 0x7F3 JUMPI PUSH1 0x0 DUP1 REVERT JUMPDEST DUP2 CALLDATALOAD PUSH2 0x803 DUP5 DUP3 PUSH1 0x20 DUP7 ADD PUSH2 0x732 JUMP JUMPDEST SWAP2 POP POP SWAP3 SWAP2 POP POP JUMP JUMPDEST PUSH1 0x0 DUP3 PUSH1 0x1F DUP4 ADD SLT PUSH2 0x81D JUMPI PUSH1 0x0 DUP1 REVERT JUMPDEST DUP2 CALLDATALOAD PUSH2 0x82D DUP5 DUP3 PUSH1 0x20 DUP7 ADD PUSH2 0x78F JUMP JUMPDEST SWAP2 POP POP SWAP3 SWAP2 POP POP JUMP JUMPDEST PUSH1 0x0 DUP2 CALLDATALOAD SWAP1 POP PUSH2 0x845 DUP2 PUSH2 0xCA8 JUMP JUMPDEST SWAP3 SWAP2 POP POP JUMP JUMPDEST PUSH1 0x0 PUSH1 0x20 DUP3 DUP5 SUB SLT ISZERO PUSH2 0x85D JUMPI PUSH1 0x0 DUP1 REVERT JUMPDEST PUSH1 0x0 PUSH2 0x86B DUP5 DUP3 DUP6 ADD PUSH2 0x7CD JUMP JUMPDEST SWAP2 POP POP SWAP3 SWAP2 POP POP JUMP JUMPDEST PUSH1 0x0 PUSH1 0x20 DUP3 DUP5 SUB SLT ISZERO PUSH2 0x886 JUMPI PUSH1 0x0 DUP1 REVERT JUMPDEST PUSH1 0x0 DUP3 ADD CALLDATALOAD PUSH8 0xFFFFFFFFFFFFFFFF DUP2 GT ISZERO PUSH2 0x8A0 JUMPI PUSH1 0x0 DUP1 REVERT JUMPDEST PUSH2 0x8AC DUP5 DUP3 DUP6 ADD PUSH2 0x7E2 JUMP JUMPDEST SWAP2 POP POP SWAP3 SWAP2 POP POP JUMP JUMPDEST PUSH1 0x0 PUSH1 0x20 DUP3 DUP5 SUB SLT ISZERO PUSH2 0x8C7 JUMPI PUSH1 0x0 DUP1 REVERT JUMPDEST PUSH1 0x0 PUSH2 0x8D5 DUP5 DUP3 DUP6 ADD PUSH2 0x836 JUMP JUMPDEST SWAP2 POP POP SWAP3 SWAP2 POP POP JUMP JUMPDEST PUSH2 0x8E7 DUP2 PUSH2 0xAEE JUMP JUMPDEST DUP3 MSTORE POP POP JUMP JUMPDEST PUSH2 0x8F6 DUP2 PUSH2 0xB00 JUMP JUMPDEST DUP3 MSTORE POP POP JUMP JUMPDEST PUSH1 0x0 PUSH2 0x907 DUP3 PUSH2 0xA7C JUMP JUMPDEST PUSH2 0x911 DUP2 DUP6 PUSH2 0xA87 JUMP JUMPDEST SWAP4 POP PUSH2 0x921 DUP2 DUP6 PUSH1 0x20 DUP7 ADD PUSH2 0xB45 JUMP JUMPDEST PUSH2 0x92A DUP2 PUSH2 0xC80 JUMP JUMPDEST DUP5 ADD SWAP2 POP POP SWAP3 SWAP2 POP POP JUMP JUMPDEST PUSH2 0x93E DUP2 PUSH2 0xB2C JUMP JUMPDEST DUP3 MSTORE POP POP JUMP JUMPDEST PUSH1 0x0 PUSH1 0x20 DUP3 ADD SWAP1 POP PUSH2 0x959 PUSH1 0x0 DUP4 ADD DUP5 PUSH2 0x8DE JUMP JUMPDEST SWAP3 SWAP2 POP POP JUMP JUMPDEST PUSH1 0x0 PUSH1 0x40 DUP3 ADD SWAP1 POP DUP2 DUP2 SUB PUSH1 0x0 DUP4 ADD MSTORE PUSH2 0x979 DUP2 DUP6 PUSH2 0x8FC JUMP JUMPDEST SWAP1 POP PUSH2 0x988 PUSH1 0x20 DUP4 ADD DUP5 PUSH2 0x935 JUMP JUMPDEST SWAP4 SWAP3 POP POP POP JUMP JUMPDEST PUSH1 0x0 PUSH1 0x20 DUP3 ADD SWAP1 POP PUSH2 0x9A4 PUSH1 0x0 DUP4 ADD DUP5 PUSH2 0x935 JUMP JUMPDEST SWAP3 SWAP2 POP POP JUMP JUMPDEST PUSH1 0x0 PUSH1 0x80 DUP3 ADD SWAP1 POP PUSH2 0x9BF PUSH1 0x0 DUP4 ADD DUP8 PUSH2 0x935 JUMP JUMPDEST PUSH2 0x9CC PUSH1 0x20 DUP4 ADD DUP7 PUSH2 0x8ED JUMP JUMPDEST PUSH2 0x9D9 PUSH1 0x40 DUP4 ADD DUP6 PUSH2 0x8DE JUMP JUMPDEST PUSH2 0x9E6 PUSH1 0x60 DUP4 ADD DUP5 PUSH2 0x935 JUMP JUMPDEST SWAP6 SWAP5 POP POP POP POP POP JUMP JUMPDEST PUSH1 0x0 PUSH1 0x40 MLOAD SWAP1 POP DUP2 DUP2 ADD DUP2 DUP2 LT PUSH8 0xFFFFFFFFFFFFFFFF DUP3 GT OR ISZERO PUSH2 0xA16 JUMPI PUSH2 0xA15 PUSH2 0xC51 JUMP JUMPDEST JUMPDEST DUP1 PUSH1 0x40 MSTORE POP SWAP2 SWAP1 POP JUMP JUMPDEST PUSH1 0x0 PUSH8 0xFFFFFFFFFFFFFFFF DUP3 GT ISZERO PUSH2 0xA3B JUMPI PUSH2 0xA3A PUSH2 0xC51 JUMP JUMPDEST JUMPDEST PUSH1 0x20 DUP3 MUL SWAP1 POP PUSH1 0x20 DUP2 ADD SWAP1 POP SWAP2 SWAP1 POP JUMP JUMPDEST PUSH1 0x0 PUSH8 0xFFFFFFFFFFFFFFFF DUP3 GT ISZERO PUSH2 0xA67 JUMPI PUSH2 0xA66 PUSH2 0xC51 JUMP JUMPDEST JUMPDEST PUSH1 0x1F NOT PUSH1 0x1F DUP4 ADD AND SWAP1 POP PUSH1 0x20 DUP2 ADD SWAP1 POP SWAP2 SWAP1 POP JUMP JUMPDEST PUSH1 0x0 DUP2 MLOAD SWAP1 POP SWAP2 SWAP1 POP JUMP JUMPDEST PUSH1 0x0 DUP3 DUP3 MSTORE PUSH1 0x20 DUP3 ADD SWAP1 POP SWAP3 SWAP2 POP POP JUMP JUMPDEST PUSH1 0x0 PUSH2 0xAA3 DUP3 PUSH2 0xB2C JUMP JUMPDEST SWAP2 POP PUSH2 0xAAE DUP4 PUSH2 0xB2C JUMP JUMPDEST SWAP3 POP DUP3 PUSH32 0xFFFFFFFFFFFFFFFFFFFFFFFFFFFFFFFFFFFFFFFFFFFFFFFFFFFFFFFFFFFFFFFF SUB DUP3 GT ISZERO PUSH2 0xAE3 JUMPI PUSH2 0xAE2 PUSH2 0xBF3 JUMP JUMPDEST JUMPDEST DUP3 DUP3 ADD SWAP1 POP SWAP3 SWAP2 POP POP JUMP JUMPDEST PUSH1 0x0 PUSH2 0xAF9 DUP3 PUSH2 0xB0C JUMP JUMPDEST SWAP1 POP SWAP2 SWAP1 POP JUMP JUMPDEST PUSH1 0x0 DUP2 ISZERO ISZERO SWAP1 POP SWAP2 SWAP1 POP JUMP JUMPDEST PUSH1 0x0 PUSH20 0xFFFFFFFFFFFFFFFFFFFFFFFFFFFFFFFFFFFFFFFF DUP3 AND SWAP1 POP SWAP2 SWAP1 POP JUMP JUMPDEST PUSH1 0x0 DUP2 SWAP1 POP SWAP2 SWAP1 POP JUMP JUMPDEST DUP3 DUP2 DUP4 CALLDATACOPY PUSH1 0x0 DUP4 DUP4 ADD MSTORE POP POP POP JUMP JUMPDEST PUSH1 0x0 JUMPDEST DUP4 DUP2 LT ISZERO PUSH2 0xB63 JUMPI DUP1 DUP3 ADD MLOAD DUP2 DUP5 ADD MSTORE PUSH1 0x20 DUP2 ADD SWAP1 POP PUSH2 0xB48 JUMP JUMPDEST DUP4 DUP2 GT ISZERO PUSH2 0xB72 JUMPI PUSH1 0x0 DUP5 DUP5 ADD MSTORE JUMPDEST POP POP POP POP JUMP JUMPDEST PUSH1 0x0 PUSH1 0x2 DUP3 DIV SWAP1 POP PUSH1 0x1 DUP3 AND DUP1 PUSH2 0xB90 JUMPI PUSH1 0x7F DUP3 AND SWAP2 POP JUMPDEST PUSH1 0x20 DUP3 LT DUP2 EQ ISZERO PUSH2 0xBA4 JUMPI PUSH2 0xBA3 PUSH2 0xC22 JUMP JUMPDEST JUMPDEST POP SWAP2 SWAP1 POP JUMP JUMPDEST PUSH1 0x0 PUSH2 0xBB5 DUP3 PUSH2 0xB2C JUMP JUMPDEST SWAP2 POP PUSH32 0xFFFFFFFFFFFFFFFFFFFFFFFFFFFFFFFFFFFFFFFFFFFFFFFFFFFFFFFFFFFFFFFF DUP3 EQ ISZERO PUSH2 0xBE8 JUMPI PUSH2 0xBE7 PUSH2 0xBF3 JUMP JUMPDEST JUMPDEST PUSH1 0x1 DUP3 ADD SWAP1 POP SWAP2 SWAP1 POP JUMP JUMPDEST PUSH32 0x4E487B7100000000000000000000000000000000000000000000000000000000 PUSH1 0x0 MSTORE PUSH1 0x11 PUSH1 0x4 MSTORE PUSH1 0x24 PUSH1 0x0 REVERT JUMPDEST PUSH32 0x4E487B7100000000000000000000000000000000000000000000000000000000 PUSH1 0x0 MSTORE PUSH1 0x22 PUSH1 0x4 MSTORE PUSH1 0x24 PUSH1 0x0 REVERT JUMPDEST PUSH32 0x4E487B7100000000000000000000000000000000000000000000000000000000 PUSH1 0x0 MSTORE PUSH1 0x41 PUSH1 0x4 MSTORE PUSH1 0x24 PUSH1 0x0 REVERT JUMPDEST PUSH1 0x0 PUSH1 0x1F NOT PUSH1 0x1F DUP4 ADD AND SWAP1 POP SWAP2 SWAP1 POP JUMP JUMPDEST PUSH2 0xC9A DUP2 PUSH2 0xAEE JUMP JUMPDEST DUP2 EQ PUSH2 0xCA5 JUMPI PUSH1 0x0 DUP1 REVERT JUMPDEST POP JUMP JUMPDEST PUSH2 0xCB1 DUP2 PUSH2 0xB2C JUMP JUMPDEST DUP2 EQ PUSH2 0xCBC JUMPI PUSH1 0x0 DUP1 REVERT JUMPDEST POP JUMP INVALID LOG2 PUSH5 0x6970667358 0x22 SLT KECCAK256 0xC0 0xC9 0xE8 DIV SWAP8 ISZERO PUSH4 0x795BF53 0xE6 0xF 0x4A 0xB6 0xD1 DIV OR DUP6 CALLER PUSH31 0x6B09C5AF214825700CAD3F64736F6C63430008000033000000000000000000 "
				},
				"gasEstimates": {
					"creation": {
						"codeDepositCost": "663400",
						"executionCost": "696",
						"totalCost": "664096"
					},
					"external": {
						"chairperson()": "1259",
						"createBallot(string[])": "infinite",
						"getTime()": "1204",
						"giveRightToVote(address)": "23344",
						"proposals(uint256)": "infinite",
						"setTime()": "20223",
						"vote(uint256)": "infinite",
						"voters(address)": "infinite"
					}
				},
				"methodIdentifiers": {
					"chairperson()": "2e4176cf",
					"createBallot(string[])": "836bc692",
					"getTime()": "557ed1ba",
					"giveRightToVote(address)": "9e7b8d61",
					"proposals(uint256)": "013cf08b",
					"setTime()": "d9276a49",
					"vote(uint256)": "0121b93f",
					"voters(address)": "a3ec138d"
				}
			},
			"storageLayout": {
				"storage": [
					{
						"astId": 3,
						"contract": "contracts/prop_test.sol:Ballot",
						"label": "startDate",
						"offset": 0,
						"slot": "0",
						"type": "t_uint256"
					},
					{
						"astId": 5,
						"contract": "contracts/prop_test.sol:Ballot",
						"label": "endDate",
						"offset": 0,
						"slot": "1",
						"type": "t_uint256"
					},
					{
						"astId": 21,
						"contract": "contracts/prop_test.sol:Ballot",
						"label": "chairperson",
						"offset": 0,
						"slot": "2",
						"type": "t_address"
					},
					{
						"astId": 26,
						"contract": "contracts/prop_test.sol:Ballot",
						"label": "voters",
						"offset": 0,
						"slot": "3",
						"type": "t_mapping(t_address,t_struct(Voter)14_storage)"
					},
					{
						"astId": 30,
						"contract": "contracts/prop_test.sol:Ballot",
						"label": "proposals",
						"offset": 0,
						"slot": "4",
						"type": "t_array(t_struct(Proposal)19_storage)dyn_storage"
					}
				],
				"types": {
					"t_address": {
						"encoding": "inplace",
						"label": "address",
						"numberOfBytes": "20"
					},
					"t_array(t_struct(Proposal)19_storage)dyn_storage": {
						"base": "t_struct(Proposal)19_storage",
						"encoding": "dynamic_array",
						"label": "struct Ballot.Proposal[]",
						"numberOfBytes": "32"
					},
					"t_bool": {
						"encoding": "inplace",
						"label": "bool",
						"numberOfBytes": "1"
					},
					"t_mapping(t_address,t_struct(Voter)14_storage)": {
						"encoding": "mapping",
						"key": "t_address",
						"label": "mapping(address => struct Ballot.Voter)",
						"numberOfBytes": "32",
						"value": "t_struct(Voter)14_storage"
					},
					"t_string_storage": {
						"encoding": "bytes",
						"label": "string",
						"numberOfBytes": "32"
					},
					"t_struct(Proposal)19_storage": {
						"encoding": "inplace",
						"label": "struct Ballot.Proposal",
						"members": [
							{
								"astId": 16,
								"contract": "contracts/prop_test.sol:Ballot",
								"label": "name",
								"offset": 0,
								"slot": "0",
								"type": "t_string_storage"
							},
							{
								"astId": 18,
								"contract": "contracts/prop_test.sol:Ballot",
								"label": "voteCount",
								"offset": 0,
								"slot": "1",
								"type": "t_uint256"
							}
						],
						"numberOfBytes": "64"
					},
					"t_struct(Voter)14_storage": {
						"encoding": "inplace",
						"label": "struct Ballot.Voter",
						"members": [
							{
								"astId": 7,
								"contract": "contracts/prop_test.sol:Ballot",
								"label": "weight",
								"offset": 0,
								"slot": "0",
								"type": "t_uint256"
							},
							{
								"astId": 9,
								"contract": "contracts/prop_test.sol:Ballot",
								"label": "voted",
								"offset": 0,
								"slot": "1",
								"type": "t_bool"
							},
							{
								"astId": 11,
								"contract": "contracts/prop_test.sol:Ballot",
								"label": "delegate",
								"offset": 1,
								"slot": "1",
								"type": "t_address"
							},
							{
								"astId": 13,
								"contract": "contracts/prop_test.sol:Ballot",
								"label": "vote",
								"offset": 0,
								"slot": "2",
								"type": "t_uint256"
							}
						],
						"numberOfBytes": "96"
					},
					"t_uint256": {
						"encoding": "inplace",
						"label": "uint256",
						"numberOfBytes": "32"
					}
				}
			},
			"userdoc": {
				"kind": "user",
				"methods": {},
				"version": 1
			}
		}
	}
}