{
	"contracts/prop_test.sol": {
		"Ballot": {
			"abi": [
				{
					"inputs": [],
					"name": "chairperson",
					"outputs": [
						{
							"internalType": "address",
							"name": "",
							"type": "address"
						}
					],
					"stateMutability": "view",
					"type": "function"
				},
				{
					"inputs": [
						{
							"internalType": "string[]",
							"name": "proposalNames",
							"type": "string[]"
						}
					],
					"name": "createBallot",
					"outputs": [],
					"stateMutability": "nonpayable",
					"type": "function"
				},
				{
					"inputs": [],
					"name": "endDate",
					"outputs": [
						{
							"internalType": "uint256",
							"name": "",
							"type": "uint256"
						}
					],
					"stateMutability": "view",
					"type": "function"
				},
				{
					"inputs": [],
					"name": "getEndDate",
					"outputs": [
						{
							"internalType": "uint256",
							"name": "",
							"type": "uint256"
						}
					],
					"stateMutability": "view",
					"type": "function"
				},
				{
					"inputs": [],
					"name": "getStartDate",
					"outputs": [
						{
							"internalType": "uint256",
							"name": "",
							"type": "uint256"
						}
					],
					"stateMutability": "view",
					"type": "function"
				},
				{
					"inputs": [
						{
							"internalType": "address",
							"name": "voter",
							"type": "address"
						}
					],
					"name": "giveRightToVote",
					"outputs": [],
					"stateMutability": "nonpayable",
					"type": "function"
				},
				{
					"inputs": [],
					"name": "numOfProposals",
					"outputs": [
						{
							"internalType": "uint256",
							"name": "",
							"type": "uint256"
						}
					],
					"stateMutability": "view",
					"type": "function"
				},
				{
					"inputs": [
						{
							"internalType": "uint256",
							"name": "",
							"type": "uint256"
						}
					],
					"name": "proposals",
					"outputs": [
						{
							"internalType": "string",
							"name": "name",
							"type": "string"
						},
						{
							"internalType": "uint256",
							"name": "voteCount",
							"type": "uint256"
						}
					],
					"stateMutability": "view",
					"type": "function"
				},
				{
					"inputs": [],
					"name": "startDate",
					"outputs": [
						{
							"internalType": "uint256",
							"name": "",
							"type": "uint256"
						}
					],
					"stateMutability": "view",
					"type": "function"
				},
				{
					"inputs": [
						{
							"internalType": "uint256",
							"name": "proposal",
							"type": "uint256"
						}
					],
					"name": "vote",
					"outputs": [],
					"stateMutability": "nonpayable",
					"type": "function"
				},
				{
					"inputs": [
						{
							"internalType": "address",
							"name": "",
							"type": "address"
						}
					],
					"name": "voters",
					"outputs": [
						{
							"internalType": "uint256",
							"name": "weight",
							"type": "uint256"
						},
						{
							"internalType": "bool",
							"name": "voted",
							"type": "bool"
						},
						{
							"internalType": "address",
							"name": "delegate",
							"type": "address"
						},
						{
							"internalType": "uint256",
							"name": "vote",
							"type": "uint256"
						}
					],
					"stateMutability": "view",
					"type": "function"
				}
			],
			"devdoc": {
				"kind": "dev",
				"methods": {},
				"version": 1
			},
			"evm": {
				"assembly": "    /* \"contracts/prop_test.sol\":60:2970  contract Ballot {\r... */\n  mstore(0x40, 0x80)\n  callvalue\n  dup1\n  iszero\n  tag_1\n  jumpi\n  0x00\n  dup1\n  revert\ntag_1:\n  pop\n  dataSize(sub_0)\n  dup1\n  dataOffset(sub_0)\n  0x00\n  codecopy\n  0x00\n  return\nstop\n\nsub_0: assembly {\n        /* \"contracts/prop_test.sol\":60:2970  contract Ballot {\r... */\n      mstore(0x40, 0x80)\n      callvalue\n      dup1\n      iszero\n      tag_1\n      jumpi\n      0x00\n      dup1\n      revert\n    tag_1:\n      pop\n      jumpi(tag_2, lt(calldatasize, 0x04))\n      shr(0xe0, calldataload(0x00))\n      dup1\n      0x78f305c6\n      gt\n      tag_14\n      jumpi\n      dup1\n      0x78f305c6\n      eq\n      tag_8\n      jumpi\n      dup1\n      0x836bc692\n      eq\n      tag_9\n      jumpi\n      dup1\n      0x9e7b8d61\n      eq\n      tag_10\n      jumpi\n      dup1\n      0xa3ec138d\n      eq\n      tag_11\n      jumpi\n      dup1\n      0xb1356488\n      eq\n      tag_12\n      jumpi\n      dup1\n      0xc24a0f8b\n      eq\n      tag_13\n      jumpi\n      jump(tag_2)\n    tag_14:\n      dup1\n      0x0121b93f\n      eq\n      tag_3\n      jumpi\n      dup1\n      0x013cf08b\n      eq\n      tag_4\n      jumpi\n      dup1\n      0x0b97bc86\n      eq\n      tag_5\n      jumpi\n      dup1\n      0x2e4176cf\n      eq\n      tag_6\n      jumpi\n      dup1\n      0x5f570253\n      eq\n      tag_7\n      jumpi\n    tag_2:\n      0x00\n      dup1\n      revert\n        /* \"contracts/prop_test.sol\":2218:2607  function vote(uint proposal) public {\r... */\n    tag_3:\n      tag_15\n      0x04\n      dup1\n      calldatasize\n      sub\n      dup2\n      add\n      swap1\n      tag_16\n      swap2\n      swap1\n      tag_17\n      jump\t// in\n    tag_16:\n      tag_18\n      jump\t// in\n    tag_15:\n      stop\n        /* \"contracts/prop_test.sol\":857:884  Proposal[] public proposals */\n    tag_4:\n      tag_19\n      0x04\n      dup1\n      calldatasize\n      sub\n      dup2\n      add\n      swap1\n      tag_20\n      swap2\n      swap1\n      tag_17\n      jump\t// in\n    tag_20:\n      tag_21\n      jump\t// in\n    tag_19:\n      mload(0x40)\n      tag_22\n      swap3\n      swap2\n      swap1\n      tag_23\n      jump\t// in\n    tag_22:\n      mload(0x40)\n      dup1\n      swap2\n      sub\n      swap1\n      return\n        /* \"contracts/prop_test.sol\":118:139  uint public startDate */\n    tag_5:\n      tag_24\n      tag_25\n      jump\t// in\n    tag_24:\n      mload(0x40)\n      tag_26\n      swap2\n      swap1\n      tag_27\n      jump\t// in\n    tag_26:\n      mload(0x40)\n      dup1\n      swap2\n      sub\n      swap1\n      return\n        /* \"contracts/prop_test.sol\":85:111  address public chairperson */\n    tag_6:\n      tag_28\n      tag_29\n      jump\t// in\n    tag_28:\n      mload(0x40)\n      tag_30\n      swap2\n      swap1\n      tag_31\n      jump\t// in\n    tag_30:\n      mload(0x40)\n      dup1\n      swap2\n      sub\n      swap1\n      return\n        /* \"contracts/prop_test.sol\":172:198  uint public numOfProposals */\n    tag_7:\n      tag_32\n      tag_33\n      jump\t// in\n    tag_32:\n      mload(0x40)\n      tag_34\n      swap2\n      swap1\n      tag_27\n      jump\t// in\n    tag_34:\n      mload(0x40)\n      dup1\n      swap2\n      sub\n      swap1\n      return\n        /* \"contracts/prop_test.sol\":2707:2791  function getStartDate() public view returns(uint){\r... */\n    tag_8:\n      tag_35\n      tag_36\n      jump\t// in\n    tag_35:\n      mload(0x40)\n      tag_37\n      swap2\n      swap1\n      tag_27\n      jump\t// in\n    tag_37:\n      mload(0x40)\n      dup1\n      swap2\n      sub\n      swap1\n      return\n        /* \"contracts/prop_test.sol\":893:1620  function createBallot(string[] memory proposalNames) public {\r... */\n    tag_9:\n      tag_38\n      0x04\n      dup1\n      calldatasize\n      sub\n      dup2\n      add\n      swap1\n      tag_39\n      swap2\n      swap1\n      tag_40\n      jump\t// in\n    tag_39:\n      tag_41\n      jump\t// in\n    tag_38:\n      stop\n        /* \"contracts/prop_test.sol\":1628:2210  function giveRightToVote(address voter) public {\r... */\n    tag_10:\n      tag_42\n      0x04\n      dup1\n      calldatasize\n      sub\n      dup2\n      add\n      swap1\n      tag_43\n      swap2\n      swap1\n      tag_44\n      jump\t// in\n    tag_43:\n      tag_45\n      jump\t// in\n    tag_42:\n      stop\n        /* \"contracts/prop_test.sol\":752:791  mapping(address => Voter) public voters */\n    tag_11:\n      tag_46\n      0x04\n      dup1\n      calldatasize\n      sub\n      dup2\n      add\n      swap1\n      tag_47\n      swap2\n      swap1\n      tag_44\n      jump\t// in\n    tag_47:\n      tag_48\n      jump\t// in\n    tag_46:\n      mload(0x40)\n      tag_49\n      swap5\n      swap4\n      swap3\n      swap2\n      swap1\n      tag_50\n      jump\t// in\n    tag_49:\n      mload(0x40)\n      dup1\n      swap2\n      sub\n      swap1\n      return\n        /* \"contracts/prop_test.sol\":2881:2961  function getEndDate() public view returns(uint){\r... */\n    tag_12:\n      tag_51\n      tag_52\n      jump\t// in\n    tag_51:\n      mload(0x40)\n      tag_53\n      swap2\n      swap1\n      tag_27\n      jump\t// in\n    tag_53:\n      mload(0x40)\n      dup1\n      swap2\n      sub\n      swap1\n      return\n        /* \"contracts/prop_test.sol\":146:165  uint public endDate */\n    tag_13:\n      tag_54\n      tag_55\n      jump\t// in\n    tag_54:\n      mload(0x40)\n      tag_56\n      swap2\n      swap1\n      tag_27\n      jump\t// in\n    tag_56:\n      mload(0x40)\n      dup1\n      swap2\n      sub\n      swap1\n      return\n        /* \"contracts/prop_test.sol\":2218:2607  function vote(uint proposal) public {\r... */\n    tag_18:\n        /* \"contracts/prop_test.sol\":2265:2285  Voter storage sender */\n      0x00\n        /* \"contracts/prop_test.sol\":2288:2294  voters */\n      0x04\n        /* \"contracts/prop_test.sol\":2288:2306  voters[msg.sender] */\n      0x00\n        /* \"contracts/prop_test.sol\":2295:2305  msg.sender */\n      caller\n        /* \"contracts/prop_test.sol\":2288:2306  voters[msg.sender] */\n      0xffffffffffffffffffffffffffffffffffffffff\n      and\n      0xffffffffffffffffffffffffffffffffffffffff\n      and\n      dup2\n      mstore\n      0x20\n      add\n      swap1\n      dup2\n      mstore\n      0x20\n      add\n      0x00\n      keccak256\n        /* \"contracts/prop_test.sol\":2265:2306  Voter storage sender = voters[msg.sender] */\n      swap1\n      pop\n        /* \"contracts/prop_test.sol\":2326:2332  sender */\n      dup1\n        /* \"contracts/prop_test.sol\":2326:2338  sender.voted */\n      0x01\n      add\n      0x00\n      swap1\n      sload\n      swap1\n      0x0100\n      exp\n      swap1\n      div\n      0xff\n      and\n        /* \"contracts/prop_test.sol\":2325:2338  !sender.voted */\n      iszero\n        /* \"contracts/prop_test.sol\":2317:2339  require(!sender.voted) */\n      tag_58\n      jumpi\n      0x00\n      dup1\n      revert\n    tag_58:\n        /* \"contracts/prop_test.sol\":2365:2369  true */\n      0x01\n        /* \"contracts/prop_test.sol\":2350:2356  sender */\n      dup2\n        /* \"contracts/prop_test.sol\":2350:2362  sender.voted */\n      0x01\n      add\n      0x00\n        /* \"contracts/prop_test.sol\":2350:2369  sender.voted = true */\n      0x0100\n      exp\n      dup2\n      sload\n      dup2\n      0xff\n      mul\n      not\n      and\n      swap1\n      dup4\n      iszero\n      iszero\n      mul\n      or\n      swap1\n      sstore\n      pop\n        /* \"contracts/prop_test.sol\":2394:2402  proposal */\n      dup2\n        /* \"contracts/prop_test.sol\":2380:2386  sender */\n      dup2\n        /* \"contracts/prop_test.sol\":2380:2391  sender.vote */\n      0x02\n      add\n        /* \"contracts/prop_test.sol\":2380:2402  sender.vote = proposal */\n      dup2\n      swap1\n      sstore\n      pop\n        /* \"contracts/prop_test.sol\":2586:2592  sender */\n      dup1\n        /* \"contracts/prop_test.sol\":2586:2599  sender.weight */\n      0x00\n      add\n      sload\n        /* \"contracts/prop_test.sol\":2553:2562  proposals */\n      0x05\n        /* \"contracts/prop_test.sol\":2563:2571  proposal */\n      dup4\n        /* \"contracts/prop_test.sol\":2553:2572  proposals[proposal] */\n      dup2\n      sload\n      dup2\n      lt\n      tag_59\n      jumpi\n      mstore(0x00, 0x4e487b7100000000000000000000000000000000000000000000000000000000)\n      mstore(0x04, 0x32)\n      revert(0x00, 0x24)\n    tag_59:\n      swap1\n      0x00\n      mstore\n      keccak256(0x00, 0x20)\n      swap1\n      0x02\n      mul\n      add\n        /* \"contracts/prop_test.sol\":2553:2582  proposals[proposal].voteCount */\n      0x01\n      add\n      0x00\n        /* \"contracts/prop_test.sol\":2553:2599  proposals[proposal].voteCount += sender.weight */\n      dup3\n      dup3\n      sload\n      tag_61\n      swap2\n      swap1\n      tag_62\n      jump\t// in\n    tag_61:\n      swap3\n      pop\n      pop\n      dup2\n      swap1\n      sstore\n      pop\n        /* \"contracts/prop_test.sol\":2218:2607  function vote(uint proposal) public {\r... */\n      pop\n      pop\n      jump\t// out\n        /* \"contracts/prop_test.sol\":857:884  Proposal[] public proposals */\n    tag_21:\n      0x05\n      dup2\n      dup2\n      sload\n      dup2\n      lt\n      tag_63\n      jumpi\n      0x00\n      dup1\n      revert\n    tag_63:\n      swap1\n      0x00\n      mstore\n      keccak256(0x00, 0x20)\n      swap1\n      0x02\n      mul\n      add\n      0x00\n      swap2\n      pop\n      swap1\n      pop\n      dup1\n      0x00\n      add\n      dup1\n      sload\n      tag_65\n      swap1\n      tag_66\n      jump\t// in\n    tag_65:\n      dup1\n      0x1f\n      add\n      0x20\n      dup1\n      swap2\n      div\n      mul\n      0x20\n      add\n      mload(0x40)\n      swap1\n      dup2\n      add\n      0x40\n      mstore\n      dup1\n      swap3\n      swap2\n      swap1\n      dup2\n      dup2\n      mstore\n      0x20\n      add\n      dup3\n      dup1\n      sload\n      tag_67\n      swap1\n      tag_66\n      jump\t// in\n    tag_67:\n      dup1\n      iszero\n      tag_68\n      jumpi\n      dup1\n      0x1f\n      lt\n      tag_69\n      jumpi\n      0x0100\n      dup1\n      dup4\n      sload\n      div\n      mul\n      dup4\n      mstore\n      swap2\n      0x20\n      add\n      swap2\n      jump(tag_68)\n    tag_69:\n      dup3\n      add\n      swap2\n      swap1\n      0x00\n      mstore\n      keccak256(0x00, 0x20)\n      swap1\n    tag_70:\n      dup2\n      sload\n      dup2\n      mstore\n      swap1\n      0x01\n      add\n      swap1\n      0x20\n      add\n      dup1\n      dup4\n      gt\n      tag_70\n      jumpi\n      dup3\n      swap1\n      sub\n      0x1f\n      and\n      dup3\n      add\n      swap2\n    tag_68:\n      pop\n      pop\n      pop\n      pop\n      pop\n      swap1\n      dup1\n      0x01\n      add\n      sload\n      swap1\n      pop\n      dup3\n      jump\t// out\n        /* \"contracts/prop_test.sol\":118:139  uint public startDate */\n    tag_25:\n      sload(0x01)\n      dup2\n      jump\t// out\n        /* \"contracts/prop_test.sol\":85:111  address public chairperson */\n    tag_29:\n      0x00\n      dup1\n      sload\n      swap1\n      0x0100\n      exp\n      swap1\n      div\n      0xffffffffffffffffffffffffffffffffffffffff\n      and\n      dup2\n      jump\t// out\n        /* \"contracts/prop_test.sol\":172:198  uint public numOfProposals */\n    tag_33:\n      sload(0x03)\n      dup2\n      jump\t// out\n        /* \"contracts/prop_test.sol\":2707:2791  function getStartDate() public view returns(uint){\r... */\n    tag_36:\n        /* \"contracts/prop_test.sol\":2751:2755  uint */\n      0x00\n        /* \"contracts/prop_test.sol\":2774:2783  startDate */\n      sload(0x01)\n        /* \"contracts/prop_test.sol\":2767:2783  return startDate */\n      swap1\n      pop\n        /* \"contracts/prop_test.sol\":2707:2791  function getStartDate() public view returns(uint){\r... */\n      swap1\n      jump\t// out\n        /* \"contracts/prop_test.sol\":893:1620  function createBallot(string[] memory proposalNames) public {\r... */\n    tag_41:\n        /* \"contracts/prop_test.sol\":978:988  msg.sender */\n      caller\n        /* \"contracts/prop_test.sol\":964:975  chairperson */\n      0x00\n      dup1\n        /* \"contracts/prop_test.sol\":964:988  chairperson = msg.sender */\n      0x0100\n      exp\n      dup2\n      sload\n      dup2\n      0xffffffffffffffffffffffffffffffffffffffff\n      mul\n      not\n      and\n      swap1\n      dup4\n      0xffffffffffffffffffffffffffffffffffffffff\n      and\n      mul\n      or\n      swap1\n      sstore\n      pop\n        /* \"contracts/prop_test.sol\":1028:1029  1 */\n      0x01\n        /* \"contracts/prop_test.sol\":999:1005  voters */\n      0x04\n        /* \"contracts/prop_test.sol\":999:1018  voters[chairperson] */\n      0x00\n        /* \"contracts/prop_test.sol\":1006:1017  chairperson */\n      dup1\n      0x00\n      swap1\n      sload\n      swap1\n      0x0100\n      exp\n      swap1\n      div\n      0xffffffffffffffffffffffffffffffffffffffff\n      and\n        /* \"contracts/prop_test.sol\":999:1018  voters[chairperson] */\n      0xffffffffffffffffffffffffffffffffffffffff\n      and\n      0xffffffffffffffffffffffffffffffffffffffff\n      and\n      dup2\n      mstore\n      0x20\n      add\n      swap1\n      dup2\n      mstore\n      0x20\n      add\n      0x00\n      keccak256\n        /* \"contracts/prop_test.sol\":999:1025  voters[chairperson].weight */\n      0x00\n      add\n        /* \"contracts/prop_test.sol\":999:1029  voters[chairperson].weight = 1 */\n      dup2\n      swap1\n      sstore\n      pop\n        /* \"contracts/prop_test.sol\":1042:1056  setStartDate() */\n      tag_73\n        /* \"contracts/prop_test.sol\":1042:1054  setStartDate */\n      tag_74\n        /* \"contracts/prop_test.sol\":1042:1056  setStartDate() */\n      jump\t// in\n    tag_73:\n        /* \"contracts/prop_test.sol\":1084:1097  proposalNames */\n      dup1\n        /* \"contracts/prop_test.sol\":1084:1104  proposalNames.length */\n      mload\n        /* \"contracts/prop_test.sol\":1067:1081  numOfProposals */\n      0x03\n        /* \"contracts/prop_test.sol\":1067:1104  numOfProposals = proposalNames.length */\n      dup2\n      swap1\n      sstore\n      pop\n        /* \"contracts/prop_test.sol\":1264:1270  uint i */\n      0x00\n        /* \"contracts/prop_test.sol\":1259:1613  for (uint i = 0; i < proposalNames.length; i++) {\r... */\n    tag_75:\n        /* \"contracts/prop_test.sol\":1280:1293  proposalNames */\n      dup2\n        /* \"contracts/prop_test.sol\":1280:1300  proposalNames.length */\n      mload\n        /* \"contracts/prop_test.sol\":1276:1277  i */\n      dup2\n        /* \"contracts/prop_test.sol\":1276:1300  i < proposalNames.length */\n      lt\n        /* \"contracts/prop_test.sol\":1259:1613  for (uint i = 0; i < proposalNames.length; i++) {\r... */\n      iszero\n      tag_76\n      jumpi\n        /* \"contracts/prop_test.sol\":1488:1497  proposals */\n      0x05\n        /* \"contracts/prop_test.sol\":1503:1600  Proposal({\r... */\n      mload(0x40)\n      dup1\n      0x40\n      add\n      0x40\n      mstore\n      dup1\n        /* \"contracts/prop_test.sol\":1537:1550  proposalNames */\n      dup5\n        /* \"contracts/prop_test.sol\":1551:1552  i */\n      dup5\n        /* \"contracts/prop_test.sol\":1537:1553  proposalNames[i] */\n      dup2\n      mload\n      dup2\n      lt\n      tag_78\n      jumpi\n      mstore(0x00, 0x4e487b7100000000000000000000000000000000000000000000000000000000)\n      mstore(0x04, 0x32)\n      revert(0x00, 0x24)\n    tag_78:\n      0x20\n      mul\n      0x20\n      add\n      add\n      mload\n        /* \"contracts/prop_test.sol\":1503:1600  Proposal({\r... */\n      dup2\n      mstore\n      0x20\n      add\n        /* \"contracts/prop_test.sol\":1583:1584  0 */\n      0x00\n        /* \"contracts/prop_test.sol\":1503:1600  Proposal({\r... */\n      dup2\n      mstore\n      pop\n        /* \"contracts/prop_test.sol\":1488:1601  proposals.push(Proposal({\r... */\n      swap1\n      dup1\n      0x01\n      dup2\n      sload\n      add\n      dup1\n      dup3\n      sstore\n      dup1\n      swap2\n      pop\n      pop\n      0x01\n      swap1\n      sub\n      swap1\n      0x00\n      mstore\n      keccak256(0x00, 0x20)\n      swap1\n      0x02\n      mul\n      add\n      0x00\n      swap1\n      swap2\n      swap1\n      swap2\n      swap1\n      swap2\n      pop\n      0x00\n      dup3\n      add\n      mload\n      dup2\n      0x00\n      add\n      swap1\n      dup1\n      mload\n      swap1\n      0x20\n      add\n      swap1\n      tag_80\n      swap3\n      swap2\n      swap1\n      tag_81\n      jump\t// in\n    tag_80:\n      pop\n      0x20\n      dup3\n      add\n      mload\n      dup2\n      0x01\n      add\n      sstore\n      pop\n      pop\n        /* \"contracts/prop_test.sol\":1302:1305  i++ */\n      dup1\n      dup1\n      tag_82\n      swap1\n      tag_83\n      jump\t// in\n    tag_82:\n      swap2\n      pop\n      pop\n        /* \"contracts/prop_test.sol\":1259:1613  for (uint i = 0; i < proposalNames.length; i++) {\r... */\n      jump(tag_75)\n    tag_76:\n      pop\n        /* \"contracts/prop_test.sol\":893:1620  function createBallot(string[] memory proposalNames) public {\r... */\n      pop\n      jump\t// out\n        /* \"contracts/prop_test.sol\":1628:2210  function giveRightToVote(address voter) public {\r... */\n    tag_45:\n        /* \"contracts/prop_test.sol\":2099:2110  chairperson */\n      0x00\n      dup1\n      sload\n      swap1\n      0x0100\n      exp\n      swap1\n      div\n      0xffffffffffffffffffffffffffffffffffffffff\n      and\n        /* \"contracts/prop_test.sol\":2085:2110  msg.sender == chairperson */\n      0xffffffffffffffffffffffffffffffffffffffff\n      and\n        /* \"contracts/prop_test.sol\":2085:2095  msg.sender */\n      caller\n        /* \"contracts/prop_test.sol\":2085:2110  msg.sender == chairperson */\n      0xffffffffffffffffffffffffffffffffffffffff\n      and\n      eq\n        /* \"contracts/prop_test.sol\":2084:2135  (msg.sender == chairperson) && !voters[voter].voted */\n      dup1\n      iszero\n      tag_85\n      jumpi\n      pop\n        /* \"contracts/prop_test.sol\":2116:2122  voters */\n      0x04\n        /* \"contracts/prop_test.sol\":2116:2129  voters[voter] */\n      0x00\n        /* \"contracts/prop_test.sol\":2123:2128  voter */\n      dup3\n        /* \"contracts/prop_test.sol\":2116:2129  voters[voter] */\n      0xffffffffffffffffffffffffffffffffffffffff\n      and\n      0xffffffffffffffffffffffffffffffffffffffff\n      and\n      dup2\n      mstore\n      0x20\n      add\n      swap1\n      dup2\n      mstore\n      0x20\n      add\n      0x00\n      keccak256\n        /* \"contracts/prop_test.sol\":2116:2135  voters[voter].voted */\n      0x01\n      add\n      0x00\n      swap1\n      sload\n      swap1\n      0x0100\n      exp\n      swap1\n      div\n      0xff\n      and\n        /* \"contracts/prop_test.sol\":2115:2135  !voters[voter].voted */\n      iszero\n        /* \"contracts/prop_test.sol\":2084:2135  (msg.sender == chairperson) && !voters[voter].voted */\n    tag_85:\n        /* \"contracts/prop_test.sol\":2084:2166  (msg.sender == chairperson) && !voters[voter].voted && (voters[voter].weight == 0) */\n      dup1\n      iszero\n      tag_86\n      jumpi\n      pop\n        /* \"contracts/prop_test.sol\":2164:2165  0 */\n      0x00\n        /* \"contracts/prop_test.sol\":2140:2146  voters */\n      0x04\n        /* \"contracts/prop_test.sol\":2140:2153  voters[voter] */\n      0x00\n        /* \"contracts/prop_test.sol\":2147:2152  voter */\n      dup4\n        /* \"contracts/prop_test.sol\":2140:2153  voters[voter] */\n      0xffffffffffffffffffffffffffffffffffffffff\n      and\n      0xffffffffffffffffffffffffffffffffffffffff\n      and\n      dup2\n      mstore\n      0x20\n      add\n      swap1\n      dup2\n      mstore\n      0x20\n      add\n      0x00\n      keccak256\n        /* \"contracts/prop_test.sol\":2140:2160  voters[voter].weight */\n      0x00\n      add\n      sload\n        /* \"contracts/prop_test.sol\":2140:2165  voters[voter].weight == 0 */\n      eq\n        /* \"contracts/prop_test.sol\":2084:2166  (msg.sender == chairperson) && !voters[voter].voted && (voters[voter].weight == 0) */\n    tag_86:\n        /* \"contracts/prop_test.sol\":2076:2167  require((msg.sender == chairperson) && !voters[voter].voted && (voters[voter].weight == 0)) */\n      tag_87\n      jumpi\n      0x00\n      dup1\n      revert\n    tag_87:\n        /* \"contracts/prop_test.sol\":2201:2202  1 */\n      0x01\n        /* \"contracts/prop_test.sol\":2178:2184  voters */\n      0x04\n        /* \"contracts/prop_test.sol\":2178:2191  voters[voter] */\n      0x00\n        /* \"contracts/prop_test.sol\":2185:2190  voter */\n      dup4\n        /* \"contracts/prop_test.sol\":2178:2191  voters[voter] */\n      0xffffffffffffffffffffffffffffffffffffffff\n      and\n      0xffffffffffffffffffffffffffffffffffffffff\n      and\n      dup2\n      mstore\n      0x20\n      add\n      swap1\n      dup2\n      mstore\n      0x20\n      add\n      0x00\n      keccak256\n        /* \"contracts/prop_test.sol\":2178:2198  voters[voter].weight */\n      0x00\n      add\n        /* \"contracts/prop_test.sol\":2178:2202  voters[voter].weight = 1 */\n      dup2\n      swap1\n      sstore\n      pop\n        /* \"contracts/prop_test.sol\":1628:2210  function giveRightToVote(address voter) public {\r... */\n      pop\n      jump\t// out\n        /* \"contracts/prop_test.sol\":752:791  mapping(address => Voter) public voters */\n    tag_48:\n      mstore(0x20, 0x04)\n      dup1\n      0x00\n      mstore\n      keccak256(0x00, 0x40)\n      0x00\n      swap2\n      pop\n      swap1\n      pop\n      dup1\n      0x00\n      add\n      sload\n      swap1\n      dup1\n      0x01\n      add\n      0x00\n      swap1\n      sload\n      swap1\n      0x0100\n      exp\n      swap1\n      div\n      0xff\n      and\n      swap1\n      dup1\n      0x01\n      add\n      0x01\n      swap1\n      sload\n      swap1\n      0x0100\n      exp\n      swap1\n      div\n      0xffffffffffffffffffffffffffffffffffffffff\n      and\n      swap1\n      dup1\n      0x02\n      add\n      sload\n      swap1\n      pop\n      dup5\n      jump\t// out\n        /* \"contracts/prop_test.sol\":2881:2961  function getEndDate() public view returns(uint){\r... */\n    tag_52:\n        /* \"contracts/prop_test.sol\":2923:2927  uint */\n      0x00\n        /* \"contracts/prop_test.sol\":2946:2953  endDate */\n      sload(0x02)\n        /* \"contracts/prop_test.sol\":2939:2953  return endDate */\n      swap1\n      pop\n        /* \"contracts/prop_test.sol\":2881:2961  function getEndDate() public view returns(uint){\r... */\n      swap1\n      jump\t// out\n        /* \"contracts/prop_test.sol\":146:165  uint public endDate */\n    tag_55:\n      sload(0x02)\n      dup2\n      jump\t// out\n        /* \"contracts/prop_test.sol\":2617:2695  function setStartDate() internal{\r... */\n    tag_74:\n        /* \"contracts/prop_test.sol\":2672:2687  block.timestamp */\n      timestamp\n        /* \"contracts/prop_test.sol\":2660:2669  startDate */\n      0x01\n        /* \"contracts/prop_test.sol\":2660:2687  startDate = block.timestamp */\n      dup2\n      swap1\n      sstore\n      pop\n        /* \"contracts/prop_test.sol\":2617:2695  function setStartDate() internal{\r... */\n      jump\t// out\n    tag_81:\n      dup3\n      dup1\n      sload\n      tag_90\n      swap1\n      tag_66\n      jump\t// in\n    tag_90:\n      swap1\n      0x00\n      mstore\n      keccak256(0x00, 0x20)\n      swap1\n      0x1f\n      add\n      0x20\n      swap1\n      div\n      dup2\n      add\n      swap3\n      dup3\n      tag_92\n      jumpi\n      0x00\n      dup6\n      sstore\n      jump(tag_91)\n    tag_92:\n      dup3\n      0x1f\n      lt\n      tag_93\n      jumpi\n      dup1\n      mload\n      not(0xff)\n      and\n      dup4\n      dup1\n      add\n      or\n      dup6\n      sstore\n      jump(tag_91)\n    tag_93:\n      dup3\n      dup1\n      add\n      0x01\n      add\n      dup6\n      sstore\n      dup3\n      iszero\n      tag_91\n      jumpi\n      swap2\n      dup3\n      add\n    tag_94:\n      dup3\n      dup2\n      gt\n      iszero\n      tag_95\n      jumpi\n      dup3\n      mload\n      dup3\n      sstore\n      swap2\n      0x20\n      add\n      swap2\n      swap1\n      0x01\n      add\n      swap1\n      jump(tag_94)\n    tag_95:\n    tag_91:\n      pop\n      swap1\n      pop\n      tag_96\n      swap2\n      swap1\n      tag_97\n      jump\t// in\n    tag_96:\n      pop\n      swap1\n      jump\t// out\n    tag_97:\n    tag_98:\n      dup1\n      dup3\n      gt\n      iszero\n      tag_99\n      jumpi\n      0x00\n      dup2\n      0x00\n      swap1\n      sstore\n      pop\n      0x01\n      add\n      jump(tag_98)\n    tag_99:\n      pop\n      swap1\n      jump\t// out\n        /* \"#utility.yul\":23:638   */\n    tag_101:\n      0x00\n        /* \"#utility.yul\":154:244   */\n      tag_103\n        /* \"#utility.yul\":169:243   */\n      tag_104\n        /* \"#utility.yul\":236:242   */\n      dup5\n        /* \"#utility.yul\":169:243   */\n      tag_105\n      jump\t// in\n    tag_104:\n        /* \"#utility.yul\":154:244   */\n      tag_106\n      jump\t// in\n    tag_103:\n        /* \"#utility.yul\":145:244   */\n      swap1\n      pop\n        /* \"#utility.yul\":264:269   */\n      dup1\n        /* \"#utility.yul\":292:298   */\n      dup4\n        /* \"#utility.yul\":285:290   */\n      dup3\n        /* \"#utility.yul\":278:299   */\n      mstore\n        /* \"#utility.yul\":318:322   */\n      0x20\n        /* \"#utility.yul\":311:316   */\n      dup3\n        /* \"#utility.yul\":307:323   */\n      add\n        /* \"#utility.yul\":300:323   */\n      swap1\n      pop\n        /* \"#utility.yul\":343:349   */\n      dup3\n        /* \"#utility.yul\":374:375   */\n      0x00\n        /* \"#utility.yul\":359:632   */\n    tag_107:\n        /* \"#utility.yul\":384:390   */\n      dup6\n        /* \"#utility.yul\":381:382   */\n      dup2\n        /* \"#utility.yul\":378:391   */\n      lt\n        /* \"#utility.yul\":359:632   */\n      iszero\n      tag_109\n      jumpi\n        /* \"#utility.yul\":476:479   */\n      dup2\n        /* \"#utility.yul\":463:480   */\n      calldataload\n        /* \"#utility.yul\":455:461   */\n      dup6\n        /* \"#utility.yul\":451:481   */\n      add\n        /* \"#utility.yul\":506:553   */\n      tag_110\n        /* \"#utility.yul\":549:552   */\n      dup9\n        /* \"#utility.yul\":537:547   */\n      dup3\n        /* \"#utility.yul\":506:553   */\n      tag_111\n      jump\t// in\n    tag_110:\n        /* \"#utility.yul\":501:504   */\n      dup5\n        /* \"#utility.yul\":494:554   */\n      mstore\n        /* \"#utility.yul\":583:587   */\n      0x20\n        /* \"#utility.yul\":578:581   */\n      dup5\n        /* \"#utility.yul\":574:588   */\n      add\n        /* \"#utility.yul\":567:588   */\n      swap4\n      pop\n        /* \"#utility.yul\":617:621   */\n      0x20\n        /* \"#utility.yul\":612:615   */\n      dup4\n        /* \"#utility.yul\":608:622   */\n      add\n        /* \"#utility.yul\":601:622   */\n      swap3\n      pop\n        /* \"#utility.yul\":419:632   */\n      pop\n        /* \"#utility.yul\":406:407   */\n      0x01\n        /* \"#utility.yul\":403:404   */\n      dup2\n        /* \"#utility.yul\":399:408   */\n      add\n        /* \"#utility.yul\":394:408   */\n      swap1\n      pop\n        /* \"#utility.yul\":359:632   */\n      jump(tag_107)\n    tag_109:\n        /* \"#utility.yul\":363:377   */\n      pop\n        /* \"#utility.yul\":135:638   */\n      pop\n      pop\n      swap4\n      swap3\n      pop\n      pop\n      pop\n      jump\t// out\n        /* \"#utility.yul\":644:988   */\n    tag_112:\n      0x00\n        /* \"#utility.yul\":747:812   */\n      tag_114\n        /* \"#utility.yul\":762:811   */\n      tag_115\n        /* \"#utility.yul\":804:810   */\n      dup5\n        /* \"#utility.yul\":762:811   */\n      tag_116\n      jump\t// in\n    tag_115:\n        /* \"#utility.yul\":747:812   */\n      tag_106\n      jump\t// in\n    tag_114:\n        /* \"#utility.yul\":738:812   */\n      swap1\n      pop\n        /* \"#utility.yul\":835:841   */\n      dup3\n        /* \"#utility.yul\":828:833   */\n      dup2\n        /* \"#utility.yul\":821:842   */\n      mstore\n        /* \"#utility.yul\":873:877   */\n      0x20\n        /* \"#utility.yul\":866:871   */\n      dup2\n        /* \"#utility.yul\":862:878   */\n      add\n        /* \"#utility.yul\":911:914   */\n      dup5\n        /* \"#utility.yul\":902:908   */\n      dup5\n        /* \"#utility.yul\":897:900   */\n      dup5\n        /* \"#utility.yul\":893:909   */\n      add\n        /* \"#utility.yul\":890:915   */\n      gt\n        /* \"#utility.yul\":887:889   */\n      iszero\n      tag_117\n      jumpi\n        /* \"#utility.yul\":928:929   */\n      0x00\n        /* \"#utility.yul\":925:926   */\n      dup1\n        /* \"#utility.yul\":918:930   */\n      revert\n        /* \"#utility.yul\":887:889   */\n    tag_117:\n        /* \"#utility.yul\":941:982   */\n      tag_118\n        /* \"#utility.yul\":975:981   */\n      dup5\n        /* \"#utility.yul\":970:973   */\n      dup3\n        /* \"#utility.yul\":965:968   */\n      dup6\n        /* \"#utility.yul\":941:982   */\n      tag_119\n      jump\t// in\n    tag_118:\n        /* \"#utility.yul\":728:988   */\n      pop\n      swap4\n      swap3\n      pop\n      pop\n      pop\n      jump\t// out\n        /* \"#utility.yul\":994:1133   */\n    tag_120:\n      0x00\n        /* \"#utility.yul\":1078:1084   */\n      dup2\n        /* \"#utility.yul\":1065:1085   */\n      calldataload\n        /* \"#utility.yul\":1056:1085   */\n      swap1\n      pop\n        /* \"#utility.yul\":1094:1127   */\n      tag_122\n        /* \"#utility.yul\":1121:1126   */\n      dup2\n        /* \"#utility.yul\":1094:1127   */\n      tag_123\n      jump\t// in\n    tag_122:\n        /* \"#utility.yul\":1046:1133   */\n      swap3\n      swap2\n      pop\n      pop\n      jump\t// out\n        /* \"#utility.yul\":1155:1478   */\n    tag_124:\n      0x00\n        /* \"#utility.yul\":1285:1288   */\n      dup3\n        /* \"#utility.yul\":1278:1282   */\n      0x1f\n        /* \"#utility.yul\":1270:1276   */\n      dup4\n        /* \"#utility.yul\":1266:1283   */\n      add\n        /* \"#utility.yul\":1262:1289   */\n      slt\n        /* \"#utility.yul\":1252:1254   */\n      tag_126\n      jumpi\n        /* \"#utility.yul\":1303:1304   */\n      0x00\n        /* \"#utility.yul\":1300:1301   */\n      dup1\n        /* \"#utility.yul\":1293:1305   */\n      revert\n        /* \"#utility.yul\":1252:1254   */\n    tag_126:\n        /* \"#utility.yul\":1343:1349   */\n      dup2\n        /* \"#utility.yul\":1330:1350   */\n      calldataload\n        /* \"#utility.yul\":1368:1472   */\n      tag_127\n        /* \"#utility.yul\":1468:1471   */\n      dup5\n        /* \"#utility.yul\":1460:1466   */\n      dup3\n        /* \"#utility.yul\":1453:1457   */\n      0x20\n        /* \"#utility.yul\":1445:1451   */\n      dup7\n        /* \"#utility.yul\":1441:1458   */\n      add\n        /* \"#utility.yul\":1368:1472   */\n      tag_101\n      jump\t// in\n    tag_127:\n        /* \"#utility.yul\":1359:1472   */\n      swap2\n      pop\n        /* \"#utility.yul\":1242:1478   */\n      pop\n      swap3\n      swap2\n      pop\n      pop\n      jump\t// out\n        /* \"#utility.yul\":1498:1771   */\n    tag_111:\n      0x00\n        /* \"#utility.yul\":1603:1606   */\n      dup3\n        /* \"#utility.yul\":1596:1600   */\n      0x1f\n        /* \"#utility.yul\":1588:1594   */\n      dup4\n        /* \"#utility.yul\":1584:1601   */\n      add\n        /* \"#utility.yul\":1580:1607   */\n      slt\n        /* \"#utility.yul\":1570:1572   */\n      tag_129\n      jumpi\n        /* \"#utility.yul\":1621:1622   */\n      0x00\n        /* \"#utility.yul\":1618:1619   */\n      dup1\n        /* \"#utility.yul\":1611:1623   */\n      revert\n        /* \"#utility.yul\":1570:1572   */\n    tag_129:\n        /* \"#utility.yul\":1661:1667   */\n      dup2\n        /* \"#utility.yul\":1648:1668   */\n      calldataload\n        /* \"#utility.yul\":1686:1765   */\n      tag_130\n        /* \"#utility.yul\":1761:1764   */\n      dup5\n        /* \"#utility.yul\":1753:1759   */\n      dup3\n        /* \"#utility.yul\":1746:1750   */\n      0x20\n        /* \"#utility.yul\":1738:1744   */\n      dup7\n        /* \"#utility.yul\":1734:1751   */\n      add\n        /* \"#utility.yul\":1686:1765   */\n      tag_112\n      jump\t// in\n    tag_130:\n        /* \"#utility.yul\":1677:1765   */\n      swap2\n      pop\n        /* \"#utility.yul\":1560:1771   */\n      pop\n      swap3\n      swap2\n      pop\n      pop\n      jump\t// out\n        /* \"#utility.yul\":1777:1916   */\n    tag_131:\n      0x00\n        /* \"#utility.yul\":1861:1867   */\n      dup2\n        /* \"#utility.yul\":1848:1868   */\n      calldataload\n        /* \"#utility.yul\":1839:1868   */\n      swap1\n      pop\n        /* \"#utility.yul\":1877:1910   */\n      tag_133\n        /* \"#utility.yul\":1904:1909   */\n      dup2\n        /* \"#utility.yul\":1877:1910   */\n      tag_134\n      jump\t// in\n    tag_133:\n        /* \"#utility.yul\":1829:1916   */\n      swap3\n      swap2\n      pop\n      pop\n      jump\t// out\n        /* \"#utility.yul\":1922:2184   */\n    tag_44:\n      0x00\n        /* \"#utility.yul\":2030:2032   */\n      0x20\n        /* \"#utility.yul\":2018:2027   */\n      dup3\n        /* \"#utility.yul\":2009:2016   */\n      dup5\n        /* \"#utility.yul\":2005:2028   */\n      sub\n        /* \"#utility.yul\":2001:2033   */\n      slt\n        /* \"#utility.yul\":1998:2000   */\n      iszero\n      tag_136\n      jumpi\n        /* \"#utility.yul\":2046:2047   */\n      0x00\n        /* \"#utility.yul\":2043:2044   */\n      dup1\n        /* \"#utility.yul\":2036:2048   */\n      revert\n        /* \"#utility.yul\":1998:2000   */\n    tag_136:\n        /* \"#utility.yul\":2089:2090   */\n      0x00\n        /* \"#utility.yul\":2114:2167   */\n      tag_137\n        /* \"#utility.yul\":2159:2166   */\n      dup5\n        /* \"#utility.yul\":2150:2156   */\n      dup3\n        /* \"#utility.yul\":2139:2148   */\n      dup6\n        /* \"#utility.yul\":2135:2157   */\n      add\n        /* \"#utility.yul\":2114:2167   */\n      tag_120\n      jump\t// in\n    tag_137:\n        /* \"#utility.yul\":2104:2167   */\n      swap2\n      pop\n        /* \"#utility.yul\":2060:2177   */\n      pop\n        /* \"#utility.yul\":1988:2184   */\n      swap3\n      swap2\n      pop\n      pop\n      jump\t// out\n        /* \"#utility.yul\":2190:2615   */\n    tag_40:\n      0x00\n        /* \"#utility.yul\":2333:2335   */\n      0x20\n        /* \"#utility.yul\":2321:2330   */\n      dup3\n        /* \"#utility.yul\":2312:2319   */\n      dup5\n        /* \"#utility.yul\":2308:2331   */\n      sub\n        /* \"#utility.yul\":2304:2336   */\n      slt\n        /* \"#utility.yul\":2301:2303   */\n      iszero\n      tag_139\n      jumpi\n        /* \"#utility.yul\":2349:2350   */\n      0x00\n        /* \"#utility.yul\":2346:2347   */\n      dup1\n        /* \"#utility.yul\":2339:2351   */\n      revert\n        /* \"#utility.yul\":2301:2303   */\n    tag_139:\n        /* \"#utility.yul\":2420:2421   */\n      0x00\n        /* \"#utility.yul\":2409:2418   */\n      dup3\n        /* \"#utility.yul\":2405:2422   */\n      add\n        /* \"#utility.yul\":2392:2423   */\n      calldataload\n        /* \"#utility.yul\":2450:2468   */\n      0xffffffffffffffff\n        /* \"#utility.yul\":2442:2448   */\n      dup2\n        /* \"#utility.yul\":2439:2469   */\n      gt\n        /* \"#utility.yul\":2436:2438   */\n      iszero\n      tag_140\n      jumpi\n        /* \"#utility.yul\":2482:2483   */\n      0x00\n        /* \"#utility.yul\":2479:2480   */\n      dup1\n        /* \"#utility.yul\":2472:2484   */\n      revert\n        /* \"#utility.yul\":2436:2438   */\n    tag_140:\n        /* \"#utility.yul\":2510:2598   */\n      tag_141\n        /* \"#utility.yul\":2590:2597   */\n      dup5\n        /* \"#utility.yul\":2581:2587   */\n      dup3\n        /* \"#utility.yul\":2570:2579   */\n      dup6\n        /* \"#utility.yul\":2566:2588   */\n      add\n        /* \"#utility.yul\":2510:2598   */\n      tag_124\n      jump\t// in\n    tag_141:\n        /* \"#utility.yul\":2500:2598   */\n      swap2\n      pop\n        /* \"#utility.yul\":2363:2608   */\n      pop\n        /* \"#utility.yul\":2291:2615   */\n      swap3\n      swap2\n      pop\n      pop\n      jump\t// out\n        /* \"#utility.yul\":2621:2883   */\n    tag_17:\n      0x00\n        /* \"#utility.yul\":2729:2731   */\n      0x20\n        /* \"#utility.yul\":2717:2726   */\n      dup3\n        /* \"#utility.yul\":2708:2715   */\n      dup5\n        /* \"#utility.yul\":2704:2727   */\n      sub\n        /* \"#utility.yul\":2700:2732   */\n      slt\n        /* \"#utility.yul\":2697:2699   */\n      iszero\n      tag_143\n      jumpi\n        /* \"#utility.yul\":2745:2746   */\n      0x00\n        /* \"#utility.yul\":2742:2743   */\n      dup1\n        /* \"#utility.yul\":2735:2747   */\n      revert\n        /* \"#utility.yul\":2697:2699   */\n    tag_143:\n        /* \"#utility.yul\":2788:2789   */\n      0x00\n        /* \"#utility.yul\":2813:2866   */\n      tag_144\n        /* \"#utility.yul\":2858:2865   */\n      dup5\n        /* \"#utility.yul\":2849:2855   */\n      dup3\n        /* \"#utility.yul\":2838:2847   */\n      dup6\n        /* \"#utility.yul\":2834:2856   */\n      add\n        /* \"#utility.yul\":2813:2866   */\n      tag_131\n      jump\t// in\n    tag_144:\n        /* \"#utility.yul\":2803:2866   */\n      swap2\n      pop\n        /* \"#utility.yul\":2759:2876   */\n      pop\n        /* \"#utility.yul\":2687:2883   */\n      swap3\n      swap2\n      pop\n      pop\n      jump\t// out\n        /* \"#utility.yul\":2889:3007   */\n    tag_145:\n        /* \"#utility.yul\":2976:3000   */\n      tag_147\n        /* \"#utility.yul\":2994:2999   */\n      dup2\n        /* \"#utility.yul\":2976:3000   */\n      tag_148\n      jump\t// in\n    tag_147:\n        /* \"#utility.yul\":2971:2974   */\n      dup3\n        /* \"#utility.yul\":2964:3001   */\n      mstore\n        /* \"#utility.yul\":2954:3007   */\n      pop\n      pop\n      jump\t// out\n        /* \"#utility.yul\":3013:3122   */\n    tag_149:\n        /* \"#utility.yul\":3094:3115   */\n      tag_151\n        /* \"#utility.yul\":3109:3114   */\n      dup2\n        /* \"#utility.yul\":3094:3115   */\n      tag_152\n      jump\t// in\n    tag_151:\n        /* \"#utility.yul\":3089:3092   */\n      dup3\n        /* \"#utility.yul\":3082:3116   */\n      mstore\n        /* \"#utility.yul\":3072:3122   */\n      pop\n      pop\n      jump\t// out\n        /* \"#utility.yul\":3128:3492   */\n    tag_153:\n      0x00\n        /* \"#utility.yul\":3244:3283   */\n      tag_155\n        /* \"#utility.yul\":3277:3282   */\n      dup3\n        /* \"#utility.yul\":3244:3283   */\n      tag_156\n      jump\t// in\n    tag_155:\n        /* \"#utility.yul\":3299:3370   */\n      tag_157\n        /* \"#utility.yul\":3363:3369   */\n      dup2\n        /* \"#utility.yul\":3358:3361   */\n      dup6\n        /* \"#utility.yul\":3299:3370   */\n      tag_158\n      jump\t// in\n    tag_157:\n        /* \"#utility.yul\":3292:3370   */\n      swap4\n      pop\n        /* \"#utility.yul\":3379:3431   */\n      tag_159\n        /* \"#utility.yul\":3424:3430   */\n      dup2\n        /* \"#utility.yul\":3419:3422   */\n      dup6\n        /* \"#utility.yul\":3412:3416   */\n      0x20\n        /* \"#utility.yul\":3405:3410   */\n      dup7\n        /* \"#utility.yul\":3401:3417   */\n      add\n        /* \"#utility.yul\":3379:3431   */\n      tag_160\n      jump\t// in\n    tag_159:\n        /* \"#utility.yul\":3456:3485   */\n      tag_161\n        /* \"#utility.yul\":3478:3484   */\n      dup2\n        /* \"#utility.yul\":3456:3485   */\n      tag_162\n      jump\t// in\n    tag_161:\n        /* \"#utility.yul\":3451:3454   */\n      dup5\n        /* \"#utility.yul\":3447:3486   */\n      add\n        /* \"#utility.yul\":3440:3486   */\n      swap2\n      pop\n        /* \"#utility.yul\":3220:3492   */\n      pop\n      swap3\n      swap2\n      pop\n      pop\n      jump\t// out\n        /* \"#utility.yul\":3498:3616   */\n    tag_163:\n        /* \"#utility.yul\":3585:3609   */\n      tag_165\n        /* \"#utility.yul\":3603:3608   */\n      dup2\n        /* \"#utility.yul\":3585:3609   */\n      tag_166\n      jump\t// in\n    tag_165:\n        /* \"#utility.yul\":3580:3583   */\n      dup3\n        /* \"#utility.yul\":3573:3610   */\n      mstore\n        /* \"#utility.yul\":3563:3616   */\n      pop\n      pop\n      jump\t// out\n        /* \"#utility.yul\":3622:3844   */\n    tag_31:\n      0x00\n        /* \"#utility.yul\":3753:3755   */\n      0x20\n        /* \"#utility.yul\":3742:3751   */\n      dup3\n        /* \"#utility.yul\":3738:3756   */\n      add\n        /* \"#utility.yul\":3730:3756   */\n      swap1\n      pop\n        /* \"#utility.yul\":3766:3837   */\n      tag_168\n        /* \"#utility.yul\":3834:3835   */\n      0x00\n        /* \"#utility.yul\":3823:3832   */\n      dup4\n        /* \"#utility.yul\":3819:3836   */\n      add\n        /* \"#utility.yul\":3810:3816   */\n      dup5\n        /* \"#utility.yul\":3766:3837   */\n      tag_145\n      jump\t// in\n    tag_168:\n        /* \"#utility.yul\":3720:3844   */\n      swap3\n      swap2\n      pop\n      pop\n      jump\t// out\n        /* \"#utility.yul\":3850:4273   */\n    tag_23:\n      0x00\n        /* \"#utility.yul\":4029:4031   */\n      0x40\n        /* \"#utility.yul\":4018:4027   */\n      dup3\n        /* \"#utility.yul\":4014:4032   */\n      add\n        /* \"#utility.yul\":4006:4032   */\n      swap1\n      pop\n        /* \"#utility.yul\":4078:4087   */\n      dup2\n        /* \"#utility.yul\":4072:4076   */\n      dup2\n        /* \"#utility.yul\":4068:4088   */\n      sub\n        /* \"#utility.yul\":4064:4065   */\n      0x00\n        /* \"#utility.yul\":4053:4062   */\n      dup4\n        /* \"#utility.yul\":4049:4066   */\n      add\n        /* \"#utility.yul\":4042:4089   */\n      mstore\n        /* \"#utility.yul\":4106:4184   */\n      tag_170\n        /* \"#utility.yul\":4179:4183   */\n      dup2\n        /* \"#utility.yul\":4170:4176   */\n      dup6\n        /* \"#utility.yul\":4106:4184   */\n      tag_153\n      jump\t// in\n    tag_170:\n        /* \"#utility.yul\":4098:4184   */\n      swap1\n      pop\n        /* \"#utility.yul\":4194:4266   */\n      tag_171\n        /* \"#utility.yul\":4262:4264   */\n      0x20\n        /* \"#utility.yul\":4251:4260   */\n      dup4\n        /* \"#utility.yul\":4247:4265   */\n      add\n        /* \"#utility.yul\":4238:4244   */\n      dup5\n        /* \"#utility.yul\":4194:4266   */\n      tag_163\n      jump\t// in\n    tag_171:\n        /* \"#utility.yul\":3996:4273   */\n      swap4\n      swap3\n      pop\n      pop\n      pop\n      jump\t// out\n        /* \"#utility.yul\":4279:4501   */\n    tag_27:\n      0x00\n        /* \"#utility.yul\":4410:4412   */\n      0x20\n        /* \"#utility.yul\":4399:4408   */\n      dup3\n        /* \"#utility.yul\":4395:4413   */\n      add\n        /* \"#utility.yul\":4387:4413   */\n      swap1\n      pop\n        /* \"#utility.yul\":4423:4494   */\n      tag_173\n        /* \"#utility.yul\":4491:4492   */\n      0x00\n        /* \"#utility.yul\":4480:4489   */\n      dup4\n        /* \"#utility.yul\":4476:4493   */\n      add\n        /* \"#utility.yul\":4467:4473   */\n      dup5\n        /* \"#utility.yul\":4423:4494   */\n      tag_163\n      jump\t// in\n    tag_173:\n        /* \"#utility.yul\":4377:4501   */\n      swap3\n      swap2\n      pop\n      pop\n      jump\t// out\n        /* \"#utility.yul\":4507:5048   */\n    tag_50:\n      0x00\n        /* \"#utility.yul\":4716:4719   */\n      0x80\n        /* \"#utility.yul\":4705:4714   */\n      dup3\n        /* \"#utility.yul\":4701:4720   */\n      add\n        /* \"#utility.yul\":4693:4720   */\n      swap1\n      pop\n        /* \"#utility.yul\":4730:4801   */\n      tag_175\n        /* \"#utility.yul\":4798:4799   */\n      0x00\n        /* \"#utility.yul\":4787:4796   */\n      dup4\n        /* \"#utility.yul\":4783:4800   */\n      add\n        /* \"#utility.yul\":4774:4780   */\n      dup8\n        /* \"#utility.yul\":4730:4801   */\n      tag_163\n      jump\t// in\n    tag_175:\n        /* \"#utility.yul\":4811:4877   */\n      tag_176\n        /* \"#utility.yul\":4873:4875   */\n      0x20\n        /* \"#utility.yul\":4862:4871   */\n      dup4\n        /* \"#utility.yul\":4858:4876   */\n      add\n        /* \"#utility.yul\":4849:4855   */\n      dup7\n        /* \"#utility.yul\":4811:4877   */\n      tag_149\n      jump\t// in\n    tag_176:\n        /* \"#utility.yul\":4887:4959   */\n      tag_177\n        /* \"#utility.yul\":4955:4957   */\n      0x40\n        /* \"#utility.yul\":4944:4953   */\n      dup4\n        /* \"#utility.yul\":4940:4958   */\n      add\n        /* \"#utility.yul\":4931:4937   */\n      dup6\n        /* \"#utility.yul\":4887:4959   */\n      tag_145\n      jump\t// in\n    tag_177:\n        /* \"#utility.yul\":4969:5041   */\n      tag_178\n        /* \"#utility.yul\":5037:5039   */\n      0x60\n        /* \"#utility.yul\":5026:5035   */\n      dup4\n        /* \"#utility.yul\":5022:5040   */\n      add\n        /* \"#utility.yul\":5013:5019   */\n      dup5\n        /* \"#utility.yul\":4969:5041   */\n      tag_163\n      jump\t// in\n    tag_178:\n        /* \"#utility.yul\":4683:5048   */\n      swap6\n      swap5\n      pop\n      pop\n      pop\n      pop\n      pop\n      jump\t// out\n        /* \"#utility.yul\":5054:5337   */\n    tag_106:\n      0x00\n        /* \"#utility.yul\":5120:5122   */\n      0x40\n        /* \"#utility.yul\":5114:5123   */\n      mload\n        /* \"#utility.yul\":5104:5123   */\n      swap1\n      pop\n        /* \"#utility.yul\":5162:5166   */\n      dup2\n        /* \"#utility.yul\":5154:5160   */\n      dup2\n        /* \"#utility.yul\":5150:5167   */\n      add\n        /* \"#utility.yul\":5269:5275   */\n      dup2\n        /* \"#utility.yul\":5257:5267   */\n      dup2\n        /* \"#utility.yul\":5254:5276   */\n      lt\n        /* \"#utility.yul\":5233:5251   */\n      0xffffffffffffffff\n        /* \"#utility.yul\":5221:5231   */\n      dup3\n        /* \"#utility.yul\":5218:5252   */\n      gt\n        /* \"#utility.yul\":5215:5277   */\n      or\n        /* \"#utility.yul\":5212:5214   */\n      iszero\n      tag_180\n      jumpi\n        /* \"#utility.yul\":5280:5298   */\n      tag_181\n      tag_182\n      jump\t// in\n    tag_181:\n        /* \"#utility.yul\":5212:5214   */\n    tag_180:\n        /* \"#utility.yul\":5320:5330   */\n      dup1\n        /* \"#utility.yul\":5316:5318   */\n      0x40\n        /* \"#utility.yul\":5309:5331   */\n      mstore\n        /* \"#utility.yul\":5094:5337   */\n      pop\n      swap2\n      swap1\n      pop\n      jump\t// out\n        /* \"#utility.yul\":5343:5664   */\n    tag_105:\n      0x00\n        /* \"#utility.yul\":5520:5538   */\n      0xffffffffffffffff\n        /* \"#utility.yul\":5512:5518   */\n      dup3\n        /* \"#utility.yul\":5509:5539   */\n      gt\n        /* \"#utility.yul\":5506:5508   */\n      iszero\n      tag_184\n      jumpi\n        /* \"#utility.yul\":5542:5560   */\n      tag_185\n      tag_182\n      jump\t// in\n    tag_185:\n        /* \"#utility.yul\":5506:5508   */\n    tag_184:\n        /* \"#utility.yul\":5592:5596   */\n      0x20\n        /* \"#utility.yul\":5584:5590   */\n      dup3\n        /* \"#utility.yul\":5580:5597   */\n      mul\n        /* \"#utility.yul\":5572:5597   */\n      swap1\n      pop\n        /* \"#utility.yul\":5652:5656   */\n      0x20\n        /* \"#utility.yul\":5646:5650   */\n      dup2\n        /* \"#utility.yul\":5642:5657   */\n      add\n        /* \"#utility.yul\":5634:5657   */\n      swap1\n      pop\n        /* \"#utility.yul\":5435:5664   */\n      swap2\n      swap1\n      pop\n      jump\t// out\n        /* \"#utility.yul\":5670:6002   */\n    tag_116:\n      0x00\n        /* \"#utility.yul\":5822:5840   */\n      0xffffffffffffffff\n        /* \"#utility.yul\":5814:5820   */\n      dup3\n        /* \"#utility.yul\":5811:5841   */\n      gt\n        /* \"#utility.yul\":5808:5810   */\n      iszero\n      tag_187\n      jumpi\n        /* \"#utility.yul\":5844:5862   */\n      tag_188\n      tag_182\n      jump\t// in\n    tag_188:\n        /* \"#utility.yul\":5808:5810   */\n    tag_187:\n        /* \"#utility.yul\":5929:5933   */\n      0x1f\n        /* \"#utility.yul\":5925:5934   */\n      not\n        /* \"#utility.yul\":5918:5922   */\n      0x1f\n        /* \"#utility.yul\":5910:5916   */\n      dup4\n        /* \"#utility.yul\":5906:5923   */\n      add\n        /* \"#utility.yul\":5902:5935   */\n      and\n        /* \"#utility.yul\":5894:5935   */\n      swap1\n      pop\n        /* \"#utility.yul\":5990:5994   */\n      0x20\n        /* \"#utility.yul\":5984:5988   */\n      dup2\n        /* \"#utility.yul\":5980:5995   */\n      add\n        /* \"#utility.yul\":5972:5995   */\n      swap1\n      pop\n        /* \"#utility.yul\":5737:6002   */\n      swap2\n      swap1\n      pop\n      jump\t// out\n        /* \"#utility.yul\":6008:6107   */\n    tag_156:\n      0x00\n        /* \"#utility.yul\":6094:6099   */\n      dup2\n        /* \"#utility.yul\":6088:6100   */\n      mload\n        /* \"#utility.yul\":6078:6100   */\n      swap1\n      pop\n        /* \"#utility.yul\":6067:6107   */\n      swap2\n      swap1\n      pop\n      jump\t// out\n        /* \"#utility.yul\":6113:6282   */\n    tag_158:\n      0x00\n        /* \"#utility.yul\":6231:6237   */\n      dup3\n        /* \"#utility.yul\":6226:6229   */\n      dup3\n        /* \"#utility.yul\":6219:6238   */\n      mstore\n        /* \"#utility.yul\":6271:6275   */\n      0x20\n        /* \"#utility.yul\":6266:6269   */\n      dup3\n        /* \"#utility.yul\":6262:6276   */\n      add\n        /* \"#utility.yul\":6247:6276   */\n      swap1\n      pop\n        /* \"#utility.yul\":6209:6282   */\n      swap3\n      swap2\n      pop\n      pop\n      jump\t// out\n        /* \"#utility.yul\":6288:6593   */\n    tag_62:\n      0x00\n        /* \"#utility.yul\":6347:6367   */\n      tag_192\n        /* \"#utility.yul\":6365:6366   */\n      dup3\n        /* \"#utility.yul\":6347:6367   */\n      tag_166\n      jump\t// in\n    tag_192:\n        /* \"#utility.yul\":6342:6367   */\n      swap2\n      pop\n        /* \"#utility.yul\":6381:6401   */\n      tag_193\n        /* \"#utility.yul\":6399:6400   */\n      dup4\n        /* \"#utility.yul\":6381:6401   */\n      tag_166\n      jump\t// in\n    tag_193:\n        /* \"#utility.yul\":6376:6401   */\n      swap3\n      pop\n        /* \"#utility.yul\":6535:6536   */\n      dup3\n        /* \"#utility.yul\":6467:6533   */\n      0xffffffffffffffffffffffffffffffffffffffffffffffffffffffffffffffff\n        /* \"#utility.yul\":6463:6537   */\n      sub\n        /* \"#utility.yul\":6460:6461   */\n      dup3\n        /* \"#utility.yul\":6457:6538   */\n      gt\n        /* \"#utility.yul\":6454:6456   */\n      iszero\n      tag_194\n      jumpi\n        /* \"#utility.yul\":6541:6559   */\n      tag_195\n      tag_196\n      jump\t// in\n    tag_195:\n        /* \"#utility.yul\":6454:6456   */\n    tag_194:\n        /* \"#utility.yul\":6585:6586   */\n      dup3\n        /* \"#utility.yul\":6582:6583   */\n      dup3\n        /* \"#utility.yul\":6578:6587   */\n      add\n        /* \"#utility.yul\":6571:6587   */\n      swap1\n      pop\n        /* \"#utility.yul\":6332:6593   */\n      swap3\n      swap2\n      pop\n      pop\n      jump\t// out\n        /* \"#utility.yul\":6599:6695   */\n    tag_148:\n      0x00\n        /* \"#utility.yul\":6665:6689   */\n      tag_198\n        /* \"#utility.yul\":6683:6688   */\n      dup3\n        /* \"#utility.yul\":6665:6689   */\n      tag_199\n      jump\t// in\n    tag_198:\n        /* \"#utility.yul\":6654:6689   */\n      swap1\n      pop\n        /* \"#utility.yul\":6644:6695   */\n      swap2\n      swap1\n      pop\n      jump\t// out\n        /* \"#utility.yul\":6701:6791   */\n    tag_152:\n      0x00\n        /* \"#utility.yul\":6778:6783   */\n      dup2\n        /* \"#utility.yul\":6771:6784   */\n      iszero\n        /* \"#utility.yul\":6764:6785   */\n      iszero\n        /* \"#utility.yul\":6753:6785   */\n      swap1\n      pop\n        /* \"#utility.yul\":6743:6791   */\n      swap2\n      swap1\n      pop\n      jump\t// out\n        /* \"#utility.yul\":6797:6923   */\n    tag_199:\n      0x00\n        /* \"#utility.yul\":6874:6916   */\n      0xffffffffffffffffffffffffffffffffffffffff\n        /* \"#utility.yul\":6867:6872   */\n      dup3\n        /* \"#utility.yul\":6863:6917   */\n      and\n        /* \"#utility.yul\":6852:6917   */\n      swap1\n      pop\n        /* \"#utility.yul\":6842:6923   */\n      swap2\n      swap1\n      pop\n      jump\t// out\n        /* \"#utility.yul\":6929:7006   */\n    tag_166:\n      0x00\n        /* \"#utility.yul\":6995:7000   */\n      dup2\n        /* \"#utility.yul\":6984:7000   */\n      swap1\n      pop\n        /* \"#utility.yul\":6974:7006   */\n      swap2\n      swap1\n      pop\n      jump\t// out\n        /* \"#utility.yul\":7012:7166   */\n    tag_119:\n        /* \"#utility.yul\":7096:7102   */\n      dup3\n        /* \"#utility.yul\":7091:7094   */\n      dup2\n        /* \"#utility.yul\":7086:7089   */\n      dup4\n        /* \"#utility.yul\":7073:7103   */\n      calldatacopy\n        /* \"#utility.yul\":7158:7159   */\n      0x00\n        /* \"#utility.yul\":7149:7155   */\n      dup4\n        /* \"#utility.yul\":7144:7147   */\n      dup4\n        /* \"#utility.yul\":7140:7156   */\n      add\n        /* \"#utility.yul\":7133:7160   */\n      mstore\n        /* \"#utility.yul\":7063:7166   */\n      pop\n      pop\n      pop\n      jump\t// out\n        /* \"#utility.yul\":7172:7479   */\n    tag_160:\n        /* \"#utility.yul\":7240:7241   */\n      0x00\n        /* \"#utility.yul\":7250:7363   */\n    tag_205:\n        /* \"#utility.yul\":7264:7270   */\n      dup4\n        /* \"#utility.yul\":7261:7262   */\n      dup2\n        /* \"#utility.yul\":7258:7271   */\n      lt\n        /* \"#utility.yul\":7250:7363   */\n      iszero\n      tag_207\n      jumpi\n        /* \"#utility.yul\":7349:7350   */\n      dup1\n        /* \"#utility.yul\":7344:7347   */\n      dup3\n        /* \"#utility.yul\":7340:7351   */\n      add\n        /* \"#utility.yul\":7334:7352   */\n      mload\n        /* \"#utility.yul\":7330:7331   */\n      dup2\n        /* \"#utility.yul\":7325:7328   */\n      dup5\n        /* \"#utility.yul\":7321:7332   */\n      add\n        /* \"#utility.yul\":7314:7353   */\n      mstore\n        /* \"#utility.yul\":7286:7288   */\n      0x20\n        /* \"#utility.yul\":7283:7284   */\n      dup2\n        /* \"#utility.yul\":7279:7289   */\n      add\n        /* \"#utility.yul\":7274:7289   */\n      swap1\n      pop\n        /* \"#utility.yul\":7250:7363   */\n      jump(tag_205)\n    tag_207:\n        /* \"#utility.yul\":7381:7387   */\n      dup4\n        /* \"#utility.yul\":7378:7379   */\n      dup2\n        /* \"#utility.yul\":7375:7388   */\n      gt\n        /* \"#utility.yul\":7372:7374   */\n      iszero\n      tag_208\n      jumpi\n        /* \"#utility.yul\":7461:7462   */\n      0x00\n        /* \"#utility.yul\":7452:7458   */\n      dup5\n        /* \"#utility.yul\":7447:7450   */\n      dup5\n        /* \"#utility.yul\":7443:7459   */\n      add\n        /* \"#utility.yul\":7436:7463   */\n      mstore\n        /* \"#utility.yul\":7372:7374   */\n    tag_208:\n        /* \"#utility.yul\":7221:7479   */\n      pop\n      pop\n      pop\n      pop\n      jump\t// out\n        /* \"#utility.yul\":7485:7805   */\n    tag_66:\n      0x00\n        /* \"#utility.yul\":7566:7567   */\n      0x02\n        /* \"#utility.yul\":7560:7564   */\n      dup3\n        /* \"#utility.yul\":7556:7568   */\n      div\n        /* \"#utility.yul\":7546:7568   */\n      swap1\n      pop\n        /* \"#utility.yul\":7613:7614   */\n      0x01\n        /* \"#utility.yul\":7607:7611   */\n      dup3\n        /* \"#utility.yul\":7603:7615   */\n      and\n        /* \"#utility.yul\":7634:7652   */\n      dup1\n        /* \"#utility.yul\":7624:7626   */\n      tag_210\n      jumpi\n        /* \"#utility.yul\":7690:7694   */\n      0x7f\n        /* \"#utility.yul\":7682:7688   */\n      dup3\n        /* \"#utility.yul\":7678:7695   */\n      and\n        /* \"#utility.yul\":7668:7695   */\n      swap2\n      pop\n        /* \"#utility.yul\":7624:7626   */\n    tag_210:\n        /* \"#utility.yul\":7752:7754   */\n      0x20\n        /* \"#utility.yul\":7744:7750   */\n      dup3\n        /* \"#utility.yul\":7741:7755   */\n      lt\n        /* \"#utility.yul\":7721:7739   */\n      dup2\n        /* \"#utility.yul\":7718:7756   */\n      eq\n        /* \"#utility.yul\":7715:7717   */\n      iszero\n      tag_211\n      jumpi\n        /* \"#utility.yul\":7771:7789   */\n      tag_212\n      tag_213\n      jump\t// in\n    tag_212:\n        /* \"#utility.yul\":7715:7717   */\n    tag_211:\n        /* \"#utility.yul\":7536:7805   */\n      pop\n      swap2\n      swap1\n      pop\n      jump\t// out\n        /* \"#utility.yul\":7811:8044   */\n    tag_83:\n      0x00\n        /* \"#utility.yul\":7873:7897   */\n      tag_215\n        /* \"#utility.yul\":7891:7896   */\n      dup3\n        /* \"#utility.yul\":7873:7897   */\n      tag_166\n      jump\t// in\n    tag_215:\n        /* \"#utility.yul\":7864:7897   */\n      swap2\n      pop\n        /* \"#utility.yul\":7919:7985   */\n      0xffffffffffffffffffffffffffffffffffffffffffffffffffffffffffffffff\n        /* \"#utility.yul\":7912:7917   */\n      dup3\n        /* \"#utility.yul\":7909:7986   */\n      eq\n        /* \"#utility.yul\":7906:7908   */\n      iszero\n      tag_216\n      jumpi\n        /* \"#utility.yul\":7989:8007   */\n      tag_217\n      tag_196\n      jump\t// in\n    tag_217:\n        /* \"#utility.yul\":7906:7908   */\n    tag_216:\n        /* \"#utility.yul\":8036:8037   */\n      0x01\n        /* \"#utility.yul\":8029:8034   */\n      dup3\n        /* \"#utility.yul\":8025:8038   */\n      add\n        /* \"#utility.yul\":8018:8038   */\n      swap1\n      pop\n        /* \"#utility.yul\":7854:8044   */\n      swap2\n      swap1\n      pop\n      jump\t// out\n        /* \"#utility.yul\":8050:8230   */\n    tag_196:\n        /* \"#utility.yul\":8098:8175   */\n      0x4e487b7100000000000000000000000000000000000000000000000000000000\n        /* \"#utility.yul\":8095:8096   */\n      0x00\n        /* \"#utility.yul\":8088:8176   */\n      mstore\n        /* \"#utility.yul\":8195:8199   */\n      0x11\n        /* \"#utility.yul\":8192:8193   */\n      0x04\n        /* \"#utility.yul\":8185:8200   */\n      mstore\n        /* \"#utility.yul\":8219:8223   */\n      0x24\n        /* \"#utility.yul\":8216:8217   */\n      0x00\n        /* \"#utility.yul\":8209:8224   */\n      revert\n        /* \"#utility.yul\":8236:8416   */\n    tag_213:\n        /* \"#utility.yul\":8284:8361   */\n      0x4e487b7100000000000000000000000000000000000000000000000000000000\n        /* \"#utility.yul\":8281:8282   */\n      0x00\n        /* \"#utility.yul\":8274:8362   */\n      mstore\n        /* \"#utility.yul\":8381:8385   */\n      0x22\n        /* \"#utility.yul\":8378:8379   */\n      0x04\n        /* \"#utility.yul\":8371:8386   */\n      mstore\n        /* \"#utility.yul\":8405:8409   */\n      0x24\n        /* \"#utility.yul\":8402:8403   */\n      0x00\n        /* \"#utility.yul\":8395:8410   */\n      revert\n        /* \"#utility.yul\":8422:8602   */\n    tag_182:\n        /* \"#utility.yul\":8470:8547   */\n      0x4e487b7100000000000000000000000000000000000000000000000000000000\n        /* \"#utility.yul\":8467:8468   */\n      0x00\n        /* \"#utility.yul\":8460:8548   */\n      mstore\n        /* \"#utility.yul\":8567:8571   */\n      0x41\n        /* \"#utility.yul\":8564:8565   */\n      0x04\n        /* \"#utility.yul\":8557:8572   */\n      mstore\n        /* \"#utility.yul\":8591:8595   */\n      0x24\n        /* \"#utility.yul\":8588:8589   */\n      0x00\n        /* \"#utility.yul\":8581:8596   */\n      revert\n        /* \"#utility.yul\":8608:8710   */\n    tag_162:\n      0x00\n        /* \"#utility.yul\":8700:8702   */\n      0x1f\n        /* \"#utility.yul\":8696:8703   */\n      not\n        /* \"#utility.yul\":8691:8693   */\n      0x1f\n        /* \"#utility.yul\":8684:8689   */\n      dup4\n        /* \"#utility.yul\":8680:8694   */\n      add\n        /* \"#utility.yul\":8676:8704   */\n      and\n        /* \"#utility.yul\":8666:8704   */\n      swap1\n      pop\n        /* \"#utility.yul\":8656:8710   */\n      swap2\n      swap1\n      pop\n      jump\t// out\n        /* \"#utility.yul\":8716:8838   */\n    tag_123:\n        /* \"#utility.yul\":8789:8813   */\n      tag_223\n        /* \"#utility.yul\":8807:8812   */\n      dup2\n        /* \"#utility.yul\":8789:8813   */\n      tag_148\n      jump\t// in\n    tag_223:\n        /* \"#utility.yul\":8782:8787   */\n      dup2\n        /* \"#utility.yul\":8779:8814   */\n      eq\n        /* \"#utility.yul\":8769:8771   */\n      tag_224\n      jumpi\n        /* \"#utility.yul\":8828:8829   */\n      0x00\n        /* \"#utility.yul\":8825:8826   */\n      dup1\n        /* \"#utility.yul\":8818:8830   */\n      revert\n        /* \"#utility.yul\":8769:8771   */\n    tag_224:\n        /* \"#utility.yul\":8759:8838   */\n      pop\n      jump\t// out\n        /* \"#utility.yul\":8844:8966   */\n    tag_134:\n        /* \"#utility.yul\":8917:8941   */\n      tag_226\n        /* \"#utility.yul\":8935:8940   */\n      dup2\n        /* \"#utility.yul\":8917:8941   */\n      tag_166\n      jump\t// in\n    tag_226:\n        /* \"#utility.yul\":8910:8915   */\n      dup2\n        /* \"#utility.yul\":8907:8942   */\n      eq\n        /* \"#utility.yul\":8897:8899   */\n      tag_227\n      jumpi\n        /* \"#utility.yul\":8956:8957   */\n      0x00\n        /* \"#utility.yul\":8953:8954   */\n      dup1\n        /* \"#utility.yul\":8946:8958   */\n      revert\n        /* \"#utility.yul\":8897:8899   */\n    tag_227:\n        /* \"#utility.yul\":8887:8966   */\n      pop\n      jump\t// out\n\n    auxdata: 0xa2646970667358221220a71ad830c8b2265d1939ad2923edfc210efb7416aa1bd91e81bc935f4f072dce64736f6c63430008000033\n}\n",
				"bytecode": {
					"linkReferences": {},
					"object": "608060405234801561001057600080fd5b50610dab806100206000396000f3fe608060405234801561001057600080fd5b50600436106100a95760003560e01c806378f305c61161007157806378f305c614610155578063836bc692146101735780639e7b8d611461018f578063a3ec138d146101ab578063b1356488146101de578063c24a0f8b146101fc576100a9565b80630121b93f146100ae578063013cf08b146100ca5780630b97bc86146100fb5780632e4176cf146101195780635f57025314610137575b600080fd5b6100c860048036038101906100c3919061096b565b61021a565b005b6100e460048036038101906100df919061096b565b610309565b6040516100f2929190610a15565b60405180910390f35b6101036103c5565b6040516101109190610a45565b60405180910390f35b6101216103cb565b60405161012e91906109fa565b60405180910390f35b61013f6103ef565b60405161014c9190610a45565b60405180910390f35b61015d6103f5565b60405161016a9190610a45565b60405180910390f35b61018d6004803603810190610188919061092a565b6103ff565b005b6101a960048036038101906101a49190610901565b610585565b005b6101c560048036038101906101c09190610901565b6106cf565b6040516101d59493929190610a60565b60405180910390f35b6101e661072c565b6040516101f39190610a45565b60405180910390f35b610204610736565b6040516102119190610a45565b60405180910390f35b6000600460003373ffffffffffffffffffffffffffffffffffffffff1673ffffffffffffffffffffffffffffffffffffffff16815260200190815260200160002090508060010160009054906101000a900460ff161561027957600080fd5b60018160010160006101000a81548160ff0219169083151502179055508181600201819055508060000154600583815481106102de577f4e487b7100000000000000000000000000000000000000000000000000000000600052603260045260246000fd5b906000526020600020906002020160010160008282546102fe9190610b4e565b925050819055505050565b6005818154811061031957600080fd5b906000526020600020906002020160009150905080600001805461033c90610c2e565b80601f016020809104026020016040519081016040528092919081815260200182805461036890610c2e565b80156103b55780601f1061038a576101008083540402835291602001916103b5565b820191906000526020600020905b81548152906001019060200180831161039857829003601f168201915b5050505050908060010154905082565b60015481565b60008054906101000a900473ffffffffffffffffffffffffffffffffffffffff1681565b60035481565b6000600154905090565b336000806101000a81548173ffffffffffffffffffffffffffffffffffffffff021916908373ffffffffffffffffffffffffffffffffffffffff1602179055506001600460008060009054906101000a900473ffffffffffffffffffffffffffffffffffffffff1673ffffffffffffffffffffffffffffffffffffffff1673ffffffffffffffffffffffffffffffffffffffff168152602001908152602001600020600001819055506104b061073c565b805160038190555060005b8151811015610581576005604051806040016040528084848151811061050a577f4e487b7100000000000000000000000000000000000000000000000000000000600052603260045260246000fd5b60200260200101518152602001600081525090806001815401808255809150506001900390600052602060002090600202016000909190919091506000820151816000019080519060200190610561929190610745565b50602082015181600101555050808061057990610c60565b9150506104bb565b5050565b60008054906101000a900473ffffffffffffffffffffffffffffffffffffffff1673ffffffffffffffffffffffffffffffffffffffff163373ffffffffffffffffffffffffffffffffffffffff1614801561062d5750600460008273ffffffffffffffffffffffffffffffffffffffff1673ffffffffffffffffffffffffffffffffffffffff16815260200190815260200160002060010160009054906101000a900460ff16155b801561067b57506000600460008373ffffffffffffffffffffffffffffffffffffffff1673ffffffffffffffffffffffffffffffffffffffff16815260200190815260200160002060000154145b61068457600080fd5b6001600460008373ffffffffffffffffffffffffffffffffffffffff1673ffffffffffffffffffffffffffffffffffffffff1681526020019081526020016000206000018190555050565b60046020528060005260406000206000915090508060000154908060010160009054906101000a900460ff16908060010160019054906101000a900473ffffffffffffffffffffffffffffffffffffffff16908060020154905084565b6000600254905090565b60025481565b42600181905550565b82805461075190610c2e565b90600052602060002090601f01602090048101928261077357600085556107ba565b82601f1061078c57805160ff19168380011785556107ba565b828001600101855582156107ba579182015b828111156107b957825182559160200191906001019061079e565b5b5090506107c791906107cb565b5090565b5b808211156107e45760008160009055506001016107cc565b5090565b60006107fb6107f684610ad6565b610aa5565b9050808382526020820190508260005b8581101561083b578135850161082188826108c2565b84526020840193506020830192505060018101905061080b565b5050509392505050565b600061085861085384610b02565b610aa5565b90508281526020810184848401111561087057600080fd5b61087b848285610bec565b509392505050565b60008135905061089281610d47565b92915050565b600082601f8301126108a957600080fd5b81356108b98482602086016107e8565b91505092915050565b600082601f8301126108d357600080fd5b81356108e3848260208601610845565b91505092915050565b6000813590506108fb81610d5e565b92915050565b60006020828403121561091357600080fd5b600061092184828501610883565b91505092915050565b60006020828403121561093c57600080fd5b600082013567ffffffffffffffff81111561095657600080fd5b61096284828501610898565b91505092915050565b60006020828403121561097d57600080fd5b600061098b848285016108ec565b91505092915050565b61099d81610ba4565b82525050565b6109ac81610bb6565b82525050565b60006109bd82610b32565b6109c78185610b3d565b93506109d7818560208601610bfb565b6109e081610d36565b840191505092915050565b6109f481610be2565b82525050565b6000602082019050610a0f6000830184610994565b92915050565b60006040820190508181036000830152610a2f81856109b2565b9050610a3e60208301846109eb565b9392505050565b6000602082019050610a5a60008301846109eb565b92915050565b6000608082019050610a7560008301876109eb565b610a8260208301866109a3565b610a8f6040830185610994565b610a9c60608301846109eb565b95945050505050565b6000604051905081810181811067ffffffffffffffff82111715610acc57610acb610d07565b5b8060405250919050565b600067ffffffffffffffff821115610af157610af0610d07565b5b602082029050602081019050919050565b600067ffffffffffffffff821115610b1d57610b1c610d07565b5b601f19601f8301169050602081019050919050565b600081519050919050565b600082825260208201905092915050565b6000610b5982610be2565b9150610b6483610be2565b9250827fffffffffffffffffffffffffffffffffffffffffffffffffffffffffffffffff03821115610b9957610b98610ca9565b5b828201905092915050565b6000610baf82610bc2565b9050919050565b60008115159050919050565b600073ffffffffffffffffffffffffffffffffffffffff82169050919050565b6000819050919050565b82818337600083830152505050565b60005b83811015610c19578082015181840152602081019050610bfe565b83811115610c28576000848401525b50505050565b60006002820490506001821680610c4657607f821691505b60208210811415610c5a57610c59610cd8565b5b50919050565b6000610c6b82610be2565b91507fffffffffffffffffffffffffffffffffffffffffffffffffffffffffffffffff821415610c9e57610c9d610ca9565b5b600182019050919050565b7f4e487b7100000000000000000000000000000000000000000000000000000000600052601160045260246000fd5b7f4e487b7100000000000000000000000000000000000000000000000000000000600052602260045260246000fd5b7f4e487b7100000000000000000000000000000000000000000000000000000000600052604160045260246000fd5b6000601f19601f8301169050919050565b610d5081610ba4565b8114610d5b57600080fd5b50565b610d6781610be2565b8114610d7257600080fd5b5056fea2646970667358221220a71ad830c8b2265d1939ad2923edfc210efb7416aa1bd91e81bc935f4f072dce64736f6c63430008000033",
					"opcodes": "PUSH1 0x80 PUSH1 0x40 MSTORE CALLVALUE DUP1 ISZERO PUSH2 0x10 JUMPI PUSH1 0x0 DUP1 REVERT JUMPDEST POP PUSH2 0xDAB DUP1 PUSH2 0x20 PUSH1 0x0 CODECOPY PUSH1 0x0 RETURN INVALID PUSH1 0x80 PUSH1 0x40 MSTORE CALLVALUE DUP1 ISZERO PUSH2 0x10 JUMPI PUSH1 0x0 DUP1 REVERT JUMPDEST POP PUSH1 0x4 CALLDATASIZE LT PUSH2 0xA9 JUMPI PUSH1 0x0 CALLDATALOAD PUSH1 0xE0 SHR DUP1 PUSH4 0x78F305C6 GT PUSH2 0x71 JUMPI DUP1 PUSH4 0x78F305C6 EQ PUSH2 0x155 JUMPI DUP1 PUSH4 0x836BC692 EQ PUSH2 0x173 JUMPI DUP1 PUSH4 0x9E7B8D61 EQ PUSH2 0x18F JUMPI DUP1 PUSH4 0xA3EC138D EQ PUSH2 0x1AB JUMPI DUP1 PUSH4 0xB1356488 EQ PUSH2 0x1DE JUMPI DUP1 PUSH4 0xC24A0F8B EQ PUSH2 0x1FC JUMPI PUSH2 0xA9 JUMP JUMPDEST DUP1 PUSH4 0x121B93F EQ PUSH2 0xAE JUMPI DUP1 PUSH4 0x13CF08B EQ PUSH2 0xCA JUMPI DUP1 PUSH4 0xB97BC86 EQ PUSH2 0xFB JUMPI DUP1 PUSH4 0x2E4176CF EQ PUSH2 0x119 JUMPI DUP1 PUSH4 0x5F570253 EQ PUSH2 0x137 JUMPI JUMPDEST PUSH1 0x0 DUP1 REVERT JUMPDEST PUSH2 0xC8 PUSH1 0x4 DUP1 CALLDATASIZE SUB DUP2 ADD SWAP1 PUSH2 0xC3 SWAP2 SWAP1 PUSH2 0x96B JUMP JUMPDEST PUSH2 0x21A JUMP JUMPDEST STOP JUMPDEST PUSH2 0xE4 PUSH1 0x4 DUP1 CALLDATASIZE SUB DUP2 ADD SWAP1 PUSH2 0xDF SWAP2 SWAP1 PUSH2 0x96B JUMP JUMPDEST PUSH2 0x309 JUMP JUMPDEST PUSH1 0x40 MLOAD PUSH2 0xF2 SWAP3 SWAP2 SWAP1 PUSH2 0xA15 JUMP JUMPDEST PUSH1 0x40 MLOAD DUP1 SWAP2 SUB SWAP1 RETURN JUMPDEST PUSH2 0x103 PUSH2 0x3C5 JUMP JUMPDEST PUSH1 0x40 MLOAD PUSH2 0x110 SWAP2 SWAP1 PUSH2 0xA45 JUMP JUMPDEST PUSH1 0x40 MLOAD DUP1 SWAP2 SUB SWAP1 RETURN JUMPDEST PUSH2 0x121 PUSH2 0x3CB JUMP JUMPDEST PUSH1 0x40 MLOAD PUSH2 0x12E SWAP2 SWAP1 PUSH2 0x9FA JUMP JUMPDEST PUSH1 0x40 MLOAD DUP1 SWAP2 SUB SWAP1 RETURN JUMPDEST PUSH2 0x13F PUSH2 0x3EF JUMP JUMPDEST PUSH1 0x40 MLOAD PUSH2 0x14C SWAP2 SWAP1 PUSH2 0xA45 JUMP JUMPDEST PUSH1 0x40 MLOAD DUP1 SWAP2 SUB SWAP1 RETURN JUMPDEST PUSH2 0x15D PUSH2 0x3F5 JUMP JUMPDEST PUSH1 0x40 MLOAD PUSH2 0x16A SWAP2 SWAP1 PUSH2 0xA45 JUMP JUMPDEST PUSH1 0x40 MLOAD DUP1 SWAP2 SUB SWAP1 RETURN JUMPDEST PUSH2 0x18D PUSH1 0x4 DUP1 CALLDATASIZE SUB DUP2 ADD SWAP1 PUSH2 0x188 SWAP2 SWAP1 PUSH2 0x92A JUMP JUMPDEST PUSH2 0x3FF JUMP JUMPDEST STOP JUMPDEST PUSH2 0x1A9 PUSH1 0x4 DUP1 CALLDATASIZE SUB DUP2 ADD SWAP1 PUSH2 0x1A4 SWAP2 SWAP1 PUSH2 0x901 JUMP JUMPDEST PUSH2 0x585 JUMP JUMPDEST STOP JUMPDEST PUSH2 0x1C5 PUSH1 0x4 DUP1 CALLDATASIZE SUB DUP2 ADD SWAP1 PUSH2 0x1C0 SWAP2 SWAP1 PUSH2 0x901 JUMP JUMPDEST PUSH2 0x6CF JUMP JUMPDEST PUSH1 0x40 MLOAD PUSH2 0x1D5 SWAP5 SWAP4 SWAP3 SWAP2 SWAP1 PUSH2 0xA60 JUMP JUMPDEST PUSH1 0x40 MLOAD DUP1 SWAP2 SUB SWAP1 RETURN JUMPDEST PUSH2 0x1E6 PUSH2 0x72C JUMP JUMPDEST PUSH1 0x40 MLOAD PUSH2 0x1F3 SWAP2 SWAP1 PUSH2 0xA45 JUMP JUMPDEST PUSH1 0x40 MLOAD DUP1 SWAP2 SUB SWAP1 RETURN JUMPDEST PUSH2 0x204 PUSH2 0x736 JUMP JUMPDEST PUSH1 0x40 MLOAD PUSH2 0x211 SWAP2 SWAP1 PUSH2 0xA45 JUMP JUMPDEST PUSH1 0x40 MLOAD DUP1 SWAP2 SUB SWAP1 RETURN JUMPDEST PUSH1 0x0 PUSH1 0x4 PUSH1 0x0 CALLER PUSH20 0xFFFFFFFFFFFFFFFFFFFFFFFFFFFFFFFFFFFFFFFF AND PUSH20 0xFFFFFFFFFFFFFFFFFFFFFFFFFFFFFFFFFFFFFFFF AND DUP2 MSTORE PUSH1 0x20 ADD SWAP1 DUP2 MSTORE PUSH1 0x20 ADD PUSH1 0x0 KECCAK256 SWAP1 POP DUP1 PUSH1 0x1 ADD PUSH1 0x0 SWAP1 SLOAD SWAP1 PUSH2 0x100 EXP SWAP1 DIV PUSH1 0xFF AND ISZERO PUSH2 0x279 JUMPI PUSH1 0x0 DUP1 REVERT JUMPDEST PUSH1 0x1 DUP2 PUSH1 0x1 ADD PUSH1 0x0 PUSH2 0x100 EXP DUP2 SLOAD DUP2 PUSH1 0xFF MUL NOT AND SWAP1 DUP4 ISZERO ISZERO MUL OR SWAP1 SSTORE POP DUP2 DUP2 PUSH1 0x2 ADD DUP2 SWAP1 SSTORE POP DUP1 PUSH1 0x0 ADD SLOAD PUSH1 0x5 DUP4 DUP2 SLOAD DUP2 LT PUSH2 0x2DE JUMPI PUSH32 0x4E487B7100000000000000000000000000000000000000000000000000000000 PUSH1 0x0 MSTORE PUSH1 0x32 PUSH1 0x4 MSTORE PUSH1 0x24 PUSH1 0x0 REVERT JUMPDEST SWAP1 PUSH1 0x0 MSTORE PUSH1 0x20 PUSH1 0x0 KECCAK256 SWAP1 PUSH1 0x2 MUL ADD PUSH1 0x1 ADD PUSH1 0x0 DUP3 DUP3 SLOAD PUSH2 0x2FE SWAP2 SWAP1 PUSH2 0xB4E JUMP JUMPDEST SWAP3 POP POP DUP2 SWAP1 SSTORE POP POP POP JUMP JUMPDEST PUSH1 0x5 DUP2 DUP2 SLOAD DUP2 LT PUSH2 0x319 JUMPI PUSH1 0x0 DUP1 REVERT JUMPDEST SWAP1 PUSH1 0x0 MSTORE PUSH1 0x20 PUSH1 0x0 KECCAK256 SWAP1 PUSH1 0x2 MUL ADD PUSH1 0x0 SWAP2 POP SWAP1 POP DUP1 PUSH1 0x0 ADD DUP1 SLOAD PUSH2 0x33C SWAP1 PUSH2 0xC2E JUMP JUMPDEST DUP1 PUSH1 0x1F ADD PUSH1 0x20 DUP1 SWAP2 DIV MUL PUSH1 0x20 ADD PUSH1 0x40 MLOAD SWAP1 DUP2 ADD PUSH1 0x40 MSTORE DUP1 SWAP3 SWAP2 SWAP1 DUP2 DUP2 MSTORE PUSH1 0x20 ADD DUP3 DUP1 SLOAD PUSH2 0x368 SWAP1 PUSH2 0xC2E JUMP JUMPDEST DUP1 ISZERO PUSH2 0x3B5 JUMPI DUP1 PUSH1 0x1F LT PUSH2 0x38A JUMPI PUSH2 0x100 DUP1 DUP4 SLOAD DIV MUL DUP4 MSTORE SWAP2 PUSH1 0x20 ADD SWAP2 PUSH2 0x3B5 JUMP JUMPDEST DUP3 ADD SWAP2 SWAP1 PUSH1 0x0 MSTORE PUSH1 0x20 PUSH1 0x0 KECCAK256 SWAP1 JUMPDEST DUP2 SLOAD DUP2 MSTORE SWAP1 PUSH1 0x1 ADD SWAP1 PUSH1 0x20 ADD DUP1 DUP4 GT PUSH2 0x398 JUMPI DUP3 SWAP1 SUB PUSH1 0x1F AND DUP3 ADD SWAP2 JUMPDEST POP POP POP POP POP SWAP1 DUP1 PUSH1 0x1 ADD SLOAD SWAP1 POP DUP3 JUMP JUMPDEST PUSH1 0x1 SLOAD DUP2 JUMP JUMPDEST PUSH1 0x0 DUP1 SLOAD SWAP1 PUSH2 0x100 EXP SWAP1 DIV PUSH20 0xFFFFFFFFFFFFFFFFFFFFFFFFFFFFFFFFFFFFFFFF AND DUP2 JUMP JUMPDEST PUSH1 0x3 SLOAD DUP2 JUMP JUMPDEST PUSH1 0x0 PUSH1 0x1 SLOAD SWAP1 POP SWAP1 JUMP JUMPDEST CALLER PUSH1 0x0 DUP1 PUSH2 0x100 EXP DUP2 SLOAD DUP2 PUSH20 0xFFFFFFFFFFFFFFFFFFFFFFFFFFFFFFFFFFFFFFFF MUL NOT AND SWAP1 DUP4 PUSH20 0xFFFFFFFFFFFFFFFFFFFFFFFFFFFFFFFFFFFFFFFF AND MUL OR SWAP1 SSTORE POP PUSH1 0x1 PUSH1 0x4 PUSH1 0x0 DUP1 PUSH1 0x0 SWAP1 SLOAD SWAP1 PUSH2 0x100 EXP SWAP1 DIV PUSH20 0xFFFFFFFFFFFFFFFFFFFFFFFFFFFFFFFFFFFFFFFF AND PUSH20 0xFFFFFFFFFFFFFFFFFFFFFFFFFFFFFFFFFFFFFFFF AND PUSH20 0xFFFFFFFFFFFFFFFFFFFFFFFFFFFFFFFFFFFFFFFF AND DUP2 MSTORE PUSH1 0x20 ADD SWAP1 DUP2 MSTORE PUSH1 0x20 ADD PUSH1 0x0 KECCAK256 PUSH1 0x0 ADD DUP2 SWAP1 SSTORE POP PUSH2 0x4B0 PUSH2 0x73C JUMP JUMPDEST DUP1 MLOAD PUSH1 0x3 DUP2 SWAP1 SSTORE POP PUSH1 0x0 JUMPDEST DUP2 MLOAD DUP2 LT ISZERO PUSH2 0x581 JUMPI PUSH1 0x5 PUSH1 0x40 MLOAD DUP1 PUSH1 0x40 ADD PUSH1 0x40 MSTORE DUP1 DUP5 DUP5 DUP2 MLOAD DUP2 LT PUSH2 0x50A JUMPI PUSH32 0x4E487B7100000000000000000000000000000000000000000000000000000000 PUSH1 0x0 MSTORE PUSH1 0x32 PUSH1 0x4 MSTORE PUSH1 0x24 PUSH1 0x0 REVERT JUMPDEST PUSH1 0x20 MUL PUSH1 0x20 ADD ADD MLOAD DUP2 MSTORE PUSH1 0x20 ADD PUSH1 0x0 DUP2 MSTORE POP SWAP1 DUP1 PUSH1 0x1 DUP2 SLOAD ADD DUP1 DUP3 SSTORE DUP1 SWAP2 POP POP PUSH1 0x1 SWAP1 SUB SWAP1 PUSH1 0x0 MSTORE PUSH1 0x20 PUSH1 0x0 KECCAK256 SWAP1 PUSH1 0x2 MUL ADD PUSH1 0x0 SWAP1 SWAP2 SWAP1 SWAP2 SWAP1 SWAP2 POP PUSH1 0x0 DUP3 ADD MLOAD DUP2 PUSH1 0x0 ADD SWAP1 DUP1 MLOAD SWAP1 PUSH1 0x20 ADD SWAP1 PUSH2 0x561 SWAP3 SWAP2 SWAP1 PUSH2 0x745 JUMP JUMPDEST POP PUSH1 0x20 DUP3 ADD MLOAD DUP2 PUSH1 0x1 ADD SSTORE POP POP DUP1 DUP1 PUSH2 0x579 SWAP1 PUSH2 0xC60 JUMP JUMPDEST SWAP2 POP POP PUSH2 0x4BB JUMP JUMPDEST POP POP JUMP JUMPDEST PUSH1 0x0 DUP1 SLOAD SWAP1 PUSH2 0x100 EXP SWAP1 DIV PUSH20 0xFFFFFFFFFFFFFFFFFFFFFFFFFFFFFFFFFFFFFFFF AND PUSH20 0xFFFFFFFFFFFFFFFFFFFFFFFFFFFFFFFFFFFFFFFF AND CALLER PUSH20 0xFFFFFFFFFFFFFFFFFFFFFFFFFFFFFFFFFFFFFFFF AND EQ DUP1 ISZERO PUSH2 0x62D JUMPI POP PUSH1 0x4 PUSH1 0x0 DUP3 PUSH20 0xFFFFFFFFFFFFFFFFFFFFFFFFFFFFFFFFFFFFFFFF AND PUSH20 0xFFFFFFFFFFFFFFFFFFFFFFFFFFFFFFFFFFFFFFFF AND DUP2 MSTORE PUSH1 0x20 ADD SWAP1 DUP2 MSTORE PUSH1 0x20 ADD PUSH1 0x0 KECCAK256 PUSH1 0x1 ADD PUSH1 0x0 SWAP1 SLOAD SWAP1 PUSH2 0x100 EXP SWAP1 DIV PUSH1 0xFF AND ISZERO JUMPDEST DUP1 ISZERO PUSH2 0x67B JUMPI POP PUSH1 0x0 PUSH1 0x4 PUSH1 0x0 DUP4 PUSH20 0xFFFFFFFFFFFFFFFFFFFFFFFFFFFFFFFFFFFFFFFF AND PUSH20 0xFFFFFFFFFFFFFFFFFFFFFFFFFFFFFFFFFFFFFFFF AND DUP2 MSTORE PUSH1 0x20 ADD SWAP1 DUP2 MSTORE PUSH1 0x20 ADD PUSH1 0x0 KECCAK256 PUSH1 0x0 ADD SLOAD EQ JUMPDEST PUSH2 0x684 JUMPI PUSH1 0x0 DUP1 REVERT JUMPDEST PUSH1 0x1 PUSH1 0x4 PUSH1 0x0 DUP4 PUSH20 0xFFFFFFFFFFFFFFFFFFFFFFFFFFFFFFFFFFFFFFFF AND PUSH20 0xFFFFFFFFFFFFFFFFFFFFFFFFFFFFFFFFFFFFFFFF AND DUP2 MSTORE PUSH1 0x20 ADD SWAP1 DUP2 MSTORE PUSH1 0x20 ADD PUSH1 0x0 KECCAK256 PUSH1 0x0 ADD DUP2 SWAP1 SSTORE POP POP JUMP JUMPDEST PUSH1 0x4 PUSH1 0x20 MSTORE DUP1 PUSH1 0x0 MSTORE PUSH1 0x40 PUSH1 0x0 KECCAK256 PUSH1 0x0 SWAP2 POP SWAP1 POP DUP1 PUSH1 0x0 ADD SLOAD SWAP1 DUP1 PUSH1 0x1 ADD PUSH1 0x0 SWAP1 SLOAD SWAP1 PUSH2 0x100 EXP SWAP1 DIV PUSH1 0xFF AND SWAP1 DUP1 PUSH1 0x1 ADD PUSH1 0x1 SWAP1 SLOAD SWAP1 PUSH2 0x100 EXP SWAP1 DIV PUSH20 0xFFFFFFFFFFFFFFFFFFFFFFFFFFFFFFFFFFFFFFFF AND SWAP1 DUP1 PUSH1 0x2 ADD SLOAD SWAP1 POP DUP5 JUMP JUMPDEST PUSH1 0x0 PUSH1 0x2 SLOAD SWAP1 POP SWAP1 JUMP JUMPDEST PUSH1 0x2 SLOAD DUP2 JUMP JUMPDEST TIMESTAMP PUSH1 0x1 DUP2 SWAP1 SSTORE POP JUMP JUMPDEST DUP3 DUP1 SLOAD PUSH2 0x751 SWAP1 PUSH2 0xC2E JUMP JUMPDEST SWAP1 PUSH1 0x0 MSTORE PUSH1 0x20 PUSH1 0x0 KECCAK256 SWAP1 PUSH1 0x1F ADD PUSH1 0x20 SWAP1 DIV DUP2 ADD SWAP3 DUP3 PUSH2 0x773 JUMPI PUSH1 0x0 DUP6 SSTORE PUSH2 0x7BA JUMP JUMPDEST DUP3 PUSH1 0x1F LT PUSH2 0x78C JUMPI DUP1 MLOAD PUSH1 0xFF NOT AND DUP4 DUP1 ADD OR DUP6 SSTORE PUSH2 0x7BA JUMP JUMPDEST DUP3 DUP1 ADD PUSH1 0x1 ADD DUP6 SSTORE DUP3 ISZERO PUSH2 0x7BA JUMPI SWAP2 DUP3 ADD JUMPDEST DUP3 DUP2 GT ISZERO PUSH2 0x7B9 JUMPI DUP3 MLOAD DUP3 SSTORE SWAP2 PUSH1 0x20 ADD SWAP2 SWAP1 PUSH1 0x1 ADD SWAP1 PUSH2 0x79E JUMP JUMPDEST JUMPDEST POP SWAP1 POP PUSH2 0x7C7 SWAP2 SWAP1 PUSH2 0x7CB JUMP JUMPDEST POP SWAP1 JUMP JUMPDEST JUMPDEST DUP1 DUP3 GT ISZERO PUSH2 0x7E4 JUMPI PUSH1 0x0 DUP2 PUSH1 0x0 SWAP1 SSTORE POP PUSH1 0x1 ADD PUSH2 0x7CC JUMP JUMPDEST POP SWAP1 JUMP JUMPDEST PUSH1 0x0 PUSH2 0x7FB PUSH2 0x7F6 DUP5 PUSH2 0xAD6 JUMP JUMPDEST PUSH2 0xAA5 JUMP JUMPDEST SWAP1 POP DUP1 DUP4 DUP3 MSTORE PUSH1 0x20 DUP3 ADD SWAP1 POP DUP3 PUSH1 0x0 JUMPDEST DUP6 DUP2 LT ISZERO PUSH2 0x83B JUMPI DUP2 CALLDATALOAD DUP6 ADD PUSH2 0x821 DUP9 DUP3 PUSH2 0x8C2 JUMP JUMPDEST DUP5 MSTORE PUSH1 0x20 DUP5 ADD SWAP4 POP PUSH1 0x20 DUP4 ADD SWAP3 POP POP PUSH1 0x1 DUP2 ADD SWAP1 POP PUSH2 0x80B JUMP JUMPDEST POP POP POP SWAP4 SWAP3 POP POP POP JUMP JUMPDEST PUSH1 0x0 PUSH2 0x858 PUSH2 0x853 DUP5 PUSH2 0xB02 JUMP JUMPDEST PUSH2 0xAA5 JUMP JUMPDEST SWAP1 POP DUP3 DUP2 MSTORE PUSH1 0x20 DUP2 ADD DUP5 DUP5 DUP5 ADD GT ISZERO PUSH2 0x870 JUMPI PUSH1 0x0 DUP1 REVERT JUMPDEST PUSH2 0x87B DUP5 DUP3 DUP6 PUSH2 0xBEC JUMP JUMPDEST POP SWAP4 SWAP3 POP POP POP JUMP JUMPDEST PUSH1 0x0 DUP2 CALLDATALOAD SWAP1 POP PUSH2 0x892 DUP2 PUSH2 0xD47 JUMP JUMPDEST SWAP3 SWAP2 POP POP JUMP JUMPDEST PUSH1 0x0 DUP3 PUSH1 0x1F DUP4 ADD SLT PUSH2 0x8A9 JUMPI PUSH1 0x0 DUP1 REVERT JUMPDEST DUP2 CALLDATALOAD PUSH2 0x8B9 DUP5 DUP3 PUSH1 0x20 DUP7 ADD PUSH2 0x7E8 JUMP JUMPDEST SWAP2 POP POP SWAP3 SWAP2 POP POP JUMP JUMPDEST PUSH1 0x0 DUP3 PUSH1 0x1F DUP4 ADD SLT PUSH2 0x8D3 JUMPI PUSH1 0x0 DUP1 REVERT JUMPDEST DUP2 CALLDATALOAD PUSH2 0x8E3 DUP5 DUP3 PUSH1 0x20 DUP7 ADD PUSH2 0x845 JUMP JUMPDEST SWAP2 POP POP SWAP3 SWAP2 POP POP JUMP JUMPDEST PUSH1 0x0 DUP2 CALLDATALOAD SWAP1 POP PUSH2 0x8FB DUP2 PUSH2 0xD5E JUMP JUMPDEST SWAP3 SWAP2 POP POP JUMP JUMPDEST PUSH1 0x0 PUSH1 0x20 DUP3 DUP5 SUB SLT ISZERO PUSH2 0x913 JUMPI PUSH1 0x0 DUP1 REVERT JUMPDEST PUSH1 0x0 PUSH2 0x921 DUP5 DUP3 DUP6 ADD PUSH2 0x883 JUMP JUMPDEST SWAP2 POP POP SWAP3 SWAP2 POP POP JUMP JUMPDEST PUSH1 0x0 PUSH1 0x20 DUP3 DUP5 SUB SLT ISZERO PUSH2 0x93C JUMPI PUSH1 0x0 DUP1 REVERT JUMPDEST PUSH1 0x0 DUP3 ADD CALLDATALOAD PUSH8 0xFFFFFFFFFFFFFFFF DUP2 GT ISZERO PUSH2 0x956 JUMPI PUSH1 0x0 DUP1 REVERT JUMPDEST PUSH2 0x962 DUP5 DUP3 DUP6 ADD PUSH2 0x898 JUMP JUMPDEST SWAP2 POP POP SWAP3 SWAP2 POP POP JUMP JUMPDEST PUSH1 0x0 PUSH1 0x20 DUP3 DUP5 SUB SLT ISZERO PUSH2 0x97D JUMPI PUSH1 0x0 DUP1 REVERT JUMPDEST PUSH1 0x0 PUSH2 0x98B DUP5 DUP3 DUP6 ADD PUSH2 0x8EC JUMP JUMPDEST SWAP2 POP POP SWAP3 SWAP2 POP POP JUMP JUMPDEST PUSH2 0x99D DUP2 PUSH2 0xBA4 JUMP JUMPDEST DUP3 MSTORE POP POP JUMP JUMPDEST PUSH2 0x9AC DUP2 PUSH2 0xBB6 JUMP JUMPDEST DUP3 MSTORE POP POP JUMP JUMPDEST PUSH1 0x0 PUSH2 0x9BD DUP3 PUSH2 0xB32 JUMP JUMPDEST PUSH2 0x9C7 DUP2 DUP6 PUSH2 0xB3D JUMP JUMPDEST SWAP4 POP PUSH2 0x9D7 DUP2 DUP6 PUSH1 0x20 DUP7 ADD PUSH2 0xBFB JUMP JUMPDEST PUSH2 0x9E0 DUP2 PUSH2 0xD36 JUMP JUMPDEST DUP5 ADD SWAP2 POP POP SWAP3 SWAP2 POP POP JUMP JUMPDEST PUSH2 0x9F4 DUP2 PUSH2 0xBE2 JUMP JUMPDEST DUP3 MSTORE POP POP JUMP JUMPDEST PUSH1 0x0 PUSH1 0x20 DUP3 ADD SWAP1 POP PUSH2 0xA0F PUSH1 0x0 DUP4 ADD DUP5 PUSH2 0x994 JUMP JUMPDEST SWAP3 SWAP2 POP POP JUMP JUMPDEST PUSH1 0x0 PUSH1 0x40 DUP3 ADD SWAP1 POP DUP2 DUP2 SUB PUSH1 0x0 DUP4 ADD MSTORE PUSH2 0xA2F DUP2 DUP6 PUSH2 0x9B2 JUMP JUMPDEST SWAP1 POP PUSH2 0xA3E PUSH1 0x20 DUP4 ADD DUP5 PUSH2 0x9EB JUMP JUMPDEST SWAP4 SWAP3 POP POP POP JUMP JUMPDEST PUSH1 0x0 PUSH1 0x20 DUP3 ADD SWAP1 POP PUSH2 0xA5A PUSH1 0x0 DUP4 ADD DUP5 PUSH2 0x9EB JUMP JUMPDEST SWAP3 SWAP2 POP POP JUMP JUMPDEST PUSH1 0x0 PUSH1 0x80 DUP3 ADD SWAP1 POP PUSH2 0xA75 PUSH1 0x0 DUP4 ADD DUP8 PUSH2 0x9EB JUMP JUMPDEST PUSH2 0xA82 PUSH1 0x20 DUP4 ADD DUP7 PUSH2 0x9A3 JUMP JUMPDEST PUSH2 0xA8F PUSH1 0x40 DUP4 ADD DUP6 PUSH2 0x994 JUMP JUMPDEST PUSH2 0xA9C PUSH1 0x60 DUP4 ADD DUP5 PUSH2 0x9EB JUMP JUMPDEST SWAP6 SWAP5 POP POP POP POP POP JUMP JUMPDEST PUSH1 0x0 PUSH1 0x40 MLOAD SWAP1 POP DUP2 DUP2 ADD DUP2 DUP2 LT PUSH8 0xFFFFFFFFFFFFFFFF DUP3 GT OR ISZERO PUSH2 0xACC JUMPI PUSH2 0xACB PUSH2 0xD07 JUMP JUMPDEST JUMPDEST DUP1 PUSH1 0x40 MSTORE POP SWAP2 SWAP1 POP JUMP JUMPDEST PUSH1 0x0 PUSH8 0xFFFFFFFFFFFFFFFF DUP3 GT ISZERO PUSH2 0xAF1 JUMPI PUSH2 0xAF0 PUSH2 0xD07 JUMP JUMPDEST JUMPDEST PUSH1 0x20 DUP3 MUL SWAP1 POP PUSH1 0x20 DUP2 ADD SWAP1 POP SWAP2 SWAP1 POP JUMP JUMPDEST PUSH1 0x0 PUSH8 0xFFFFFFFFFFFFFFFF DUP3 GT ISZERO PUSH2 0xB1D JUMPI PUSH2 0xB1C PUSH2 0xD07 JUMP JUMPDEST JUMPDEST PUSH1 0x1F NOT PUSH1 0x1F DUP4 ADD AND SWAP1 POP PUSH1 0x20 DUP2 ADD SWAP1 POP SWAP2 SWAP1 POP JUMP JUMPDEST PUSH1 0x0 DUP2 MLOAD SWAP1 POP SWAP2 SWAP1 POP JUMP JUMPDEST PUSH1 0x0 DUP3 DUP3 MSTORE PUSH1 0x20 DUP3 ADD SWAP1 POP SWAP3 SWAP2 POP POP JUMP JUMPDEST PUSH1 0x0 PUSH2 0xB59 DUP3 PUSH2 0xBE2 JUMP JUMPDEST SWAP2 POP PUSH2 0xB64 DUP4 PUSH2 0xBE2 JUMP JUMPDEST SWAP3 POP DUP3 PUSH32 0xFFFFFFFFFFFFFFFFFFFFFFFFFFFFFFFFFFFFFFFFFFFFFFFFFFFFFFFFFFFFFFFF SUB DUP3 GT ISZERO PUSH2 0xB99 JUMPI PUSH2 0xB98 PUSH2 0xCA9 JUMP JUMPDEST JUMPDEST DUP3 DUP3 ADD SWAP1 POP SWAP3 SWAP2 POP POP JUMP JUMPDEST PUSH1 0x0 PUSH2 0xBAF DUP3 PUSH2 0xBC2 JUMP JUMPDEST SWAP1 POP SWAP2 SWAP1 POP JUMP JUMPDEST PUSH1 0x0 DUP2 ISZERO ISZERO SWAP1 POP SWAP2 SWAP1 POP JUMP JUMPDEST PUSH1 0x0 PUSH20 0xFFFFFFFFFFFFFFFFFFFFFFFFFFFFFFFFFFFFFFFF DUP3 AND SWAP1 POP SWAP2 SWAP1 POP JUMP JUMPDEST PUSH1 0x0 DUP2 SWAP1 POP SWAP2 SWAP1 POP JUMP JUMPDEST DUP3 DUP2 DUP4 CALLDATACOPY PUSH1 0x0 DUP4 DUP4 ADD MSTORE POP POP POP JUMP JUMPDEST PUSH1 0x0 JUMPDEST DUP4 DUP2 LT ISZERO PUSH2 0xC19 JUMPI DUP1 DUP3 ADD MLOAD DUP2 DUP5 ADD MSTORE PUSH1 0x20 DUP2 ADD SWAP1 POP PUSH2 0xBFE JUMP JUMPDEST DUP4 DUP2 GT ISZERO PUSH2 0xC28 JUMPI PUSH1 0x0 DUP5 DUP5 ADD MSTORE JUMPDEST POP POP POP POP JUMP JUMPDEST PUSH1 0x0 PUSH1 0x2 DUP3 DIV SWAP1 POP PUSH1 0x1 DUP3 AND DUP1 PUSH2 0xC46 JUMPI PUSH1 0x7F DUP3 AND SWAP2 POP JUMPDEST PUSH1 0x20 DUP3 LT DUP2 EQ ISZERO PUSH2 0xC5A JUMPI PUSH2 0xC59 PUSH2 0xCD8 JUMP JUMPDEST JUMPDEST POP SWAP2 SWAP1 POP JUMP JUMPDEST PUSH1 0x0 PUSH2 0xC6B DUP3 PUSH2 0xBE2 JUMP JUMPDEST SWAP2 POP PUSH32 0xFFFFFFFFFFFFFFFFFFFFFFFFFFFFFFFFFFFFFFFFFFFFFFFFFFFFFFFFFFFFFFFF DUP3 EQ ISZERO PUSH2 0xC9E JUMPI PUSH2 0xC9D PUSH2 0xCA9 JUMP JUMPDEST JUMPDEST PUSH1 0x1 DUP3 ADD SWAP1 POP SWAP2 SWAP1 POP JUMP JUMPDEST PUSH32 0x4E487B7100000000000000000000000000000000000000000000000000000000 PUSH1 0x0 MSTORE PUSH1 0x11 PUSH1 0x4 MSTORE PUSH1 0x24 PUSH1 0x0 REVERT JUMPDEST PUSH32 0x4E487B7100000000000000000000000000000000000000000000000000000000 PUSH1 0x0 MSTORE PUSH1 0x22 PUSH1 0x4 MSTORE PUSH1 0x24 PUSH1 0x0 REVERT JUMPDEST PUSH32 0x4E487B7100000000000000000000000000000000000000000000000000000000 PUSH1 0x0 MSTORE PUSH1 0x41 PUSH1 0x4 MSTORE PUSH1 0x24 PUSH1 0x0 REVERT JUMPDEST PUSH1 0x0 PUSH1 0x1F NOT PUSH1 0x1F DUP4 ADD AND SWAP1 POP SWAP2 SWAP1 POP JUMP JUMPDEST PUSH2 0xD50 DUP2 PUSH2 0xBA4 JUMP JUMPDEST DUP2 EQ PUSH2 0xD5B JUMPI PUSH1 0x0 DUP1 REVERT JUMPDEST POP JUMP JUMPDEST PUSH2 0xD67 DUP2 PUSH2 0xBE2 JUMP JUMPDEST DUP2 EQ PUSH2 0xD72 JUMPI PUSH1 0x0 DUP1 REVERT JUMPDEST POP JUMP INVALID LOG2 PUSH5 0x6970667358 0x22 SLT KECCAK256 0xA7 BYTE 0xD8 ADDRESS 0xC8 0xB2 0x26 0x5D NOT CODECOPY 0xAD 0x29 0x23 0xED 0xFC 0x21 0xE 0xFB PUSH21 0x16AA1BD91E81BC935F4F072DCE64736F6C63430008 STOP STOP CALLER "
				},
				"gasEstimates": {
					"creation": {
						"codeDepositCost": "699800",
						"executionCost": "734",
						"totalCost": "700534"
					},
					"external": {
						"chairperson()": "1278",
						"createBallot(string[])": "infinite",
						"endDate()": "1239",
						"getEndDate()": "1225",
						"getStartDate()": "1137",
						"giveRightToVote(address)": "23363",
						"numOfProposals()": "1218",
						"proposals(uint256)": "infinite",
						"startDate()": "1174",
						"vote(uint256)": "infinite",
						"voters(address)": "infinite"
					},
					"internal": {
						"setEndDate()": "infinite",
						"setStartDate()": "20022"
					}
				},
				"methodIdentifiers": {
					"chairperson()": "2e4176cf",
					"createBallot(string[])": "836bc692",
					"endDate()": "c24a0f8b",
					"getEndDate()": "b1356488",
					"getStartDate()": "78f305c6",
					"giveRightToVote(address)": "9e7b8d61",
					"numOfProposals()": "5f570253",
					"proposals(uint256)": "013cf08b",
					"startDate()": "0b97bc86",
					"vote(uint256)": "0121b93f",
					"voters(address)": "a3ec138d"
				}
			},
			"storageLayout": {
				"storage": [
					{
						"astId": 3,
						"contract": "contracts/prop_test.sol:Ballot",
						"label": "chairperson",
						"offset": 0,
						"slot": "0",
						"type": "t_address"
					},
					{
						"astId": 5,
						"contract": "contracts/prop_test.sol:Ballot",
						"label": "startDate",
						"offset": 0,
						"slot": "1",
						"type": "t_uint256"
					},
					{
						"astId": 7,
						"contract": "contracts/prop_test.sol:Ballot",
						"label": "endDate",
						"offset": 0,
						"slot": "2",
						"type": "t_uint256"
					},
					{
						"astId": 9,
						"contract": "contracts/prop_test.sol:Ballot",
						"label": "numOfProposals",
						"offset": 0,
						"slot": "3",
						"type": "t_uint256"
					},
					{
						"astId": 28,
						"contract": "contracts/prop_test.sol:Ballot",
						"label": "voters",
						"offset": 0,
						"slot": "4",
						"type": "t_mapping(t_address,t_struct(Voter)18_storage)"
					},
					{
						"astId": 32,
						"contract": "contracts/prop_test.sol:Ballot",
						"label": "proposals",
						"offset": 0,
						"slot": "5",
						"type": "t_array(t_struct(Proposal)23_storage)dyn_storage"
					}
				],
				"types": {
					"t_address": {
						"encoding": "inplace",
						"label": "address",
						"numberOfBytes": "20"
					},
					"t_array(t_struct(Proposal)23_storage)dyn_storage": {
						"base": "t_struct(Proposal)23_storage",
						"encoding": "dynamic_array",
						"label": "struct Ballot.Proposal[]",
						"numberOfBytes": "32"
					},
					"t_bool": {
						"encoding": "inplace",
						"label": "bool",
						"numberOfBytes": "1"
					},
					"t_mapping(t_address,t_struct(Voter)18_storage)": {
						"encoding": "mapping",
						"key": "t_address",
						"label": "mapping(address => struct Ballot.Voter)",
						"numberOfBytes": "32",
						"value": "t_struct(Voter)18_storage"
					},
					"t_string_storage": {
						"encoding": "bytes",
						"label": "string",
						"numberOfBytes": "32"
					},
					"t_struct(Proposal)23_storage": {
						"encoding": "inplace",
						"label": "struct Ballot.Proposal",
						"members": [
							{
								"astId": 20,
								"contract": "contracts/prop_test.sol:Ballot",
								"label": "name",
								"offset": 0,
								"slot": "0",
								"type": "t_string_storage"
							},
							{
								"astId": 22,
								"contract": "contracts/prop_test.sol:Ballot",
								"label": "voteCount",
								"offset": 0,
								"slot": "1",
								"type": "t_uint256"
							}
						],
						"numberOfBytes": "64"
					},
					"t_struct(Voter)18_storage": {
						"encoding": "inplace",
						"label": "struct Ballot.Voter",
						"members": [
							{
								"astId": 11,
								"contract": "contracts/prop_test.sol:Ballot",
								"label": "weight",
								"offset": 0,
								"slot": "0",
								"type": "t_uint256"
							},
							{
								"astId": 13,
								"contract": "contracts/prop_test.sol:Ballot",
								"label": "voted",
								"offset": 0,
								"slot": "1",
								"type": "t_bool"
							},
							{
								"astId": 15,
								"contract": "contracts/prop_test.sol:Ballot",
								"label": "delegate",
								"offset": 1,
								"slot": "1",
								"type": "t_address"
							},
							{
								"astId": 17,
								"contract": "contracts/prop_test.sol:Ballot",
								"label": "vote",
								"offset": 0,
								"slot": "2",
								"type": "t_uint256"
							}
						],
						"numberOfBytes": "96"
					},
					"t_uint256": {
						"encoding": "inplace",
						"label": "uint256",
						"numberOfBytes": "32"
					}
				}
			},
			"userdoc": {
				"kind": "user",
				"methods": {},
				"version": 1
			}
		}
	}
}