{
	"contracts/proposal.sol": {
		"TestProposal": {
			"abi": [
				{
					"inputs": [
						{
							"internalType": "uint256",
							"name": "_proposalId",
							"type": "uint256"
						}
					],
					"name": "getProposalStructure",
					"outputs": [
						{
							"components": [
								{
									"internalType": "uint256",
									"name": "proposalId",
									"type": "uint256"
								},
								{
									"internalType": "uint256",
									"name": "proposalStatus",
									"type": "uint256"
								},
								{
									"internalType": "uint256",
									"name": "proposalCreator",
									"type": "uint256"
								}
							],
							"internalType": "struct TestProposal.Proposal",
							"name": "",
							"type": "tuple"
						}
					],
					"stateMutability": "view",
					"type": "function"
				},
				{
					"inputs": [
						{
							"internalType": "uint256",
							"name": "",
							"type": "uint256"
						}
					],
					"name": "proposals",
					"outputs": [
						{
							"internalType": "uint256",
							"name": "proposalId",
							"type": "uint256"
						},
						{
							"internalType": "uint256",
							"name": "proposalStatus",
							"type": "uint256"
						},
						{
							"internalType": "uint256",
							"name": "proposalCreator",
							"type": "uint256"
						}
					],
					"stateMutability": "view",
					"type": "function"
				}
			],
			"devdoc": {
				"methods": {}
			},
			"evm": {
				"assembly": "    /* \"contracts/proposal.sol\":95:757  contract TestProposal {\r... */\n  mstore(0x40, 0x80)\n  callvalue\n    /* \"--CODEGEN--\":8:17   */\n  dup1\n    /* \"--CODEGEN--\":5:7   */\n  iszero\n  tag_1\n  jumpi\n    /* \"--CODEGEN--\":30:31   */\n  0x00\n    /* \"--CODEGEN--\":27:28   */\n  dup1\n    /* \"--CODEGEN--\":20:32   */\n  revert\n    /* \"--CODEGEN--\":5:7   */\ntag_1:\n    /* \"contracts/proposal.sol\":95:757  contract TestProposal {\r... */\n  pop\n  dataSize(sub_0)\n  dup1\n  dataOffset(sub_0)\n  0x00\n  codecopy\n  0x00\n  return\nstop\n\nsub_0: assembly {\n        /* \"contracts/proposal.sol\":95:757  contract TestProposal {\r... */\n      mstore(0x40, 0x80)\n      callvalue\n        /* \"--CODEGEN--\":8:17   */\n      dup1\n        /* \"--CODEGEN--\":5:7   */\n      iszero\n      tag_1\n      jumpi\n        /* \"--CODEGEN--\":30:31   */\n      0x00\n        /* \"--CODEGEN--\":27:28   */\n      dup1\n        /* \"--CODEGEN--\":20:32   */\n      revert\n        /* \"--CODEGEN--\":5:7   */\n    tag_1:\n        /* \"contracts/proposal.sol\":95:757  contract TestProposal {\r... */\n      pop\n      jumpi(tag_2, lt(calldatasize, 0x04))\n      shr(0xe0, calldataload(0x00))\n      dup1\n      0x013cf08b\n      eq\n      tag_3\n      jumpi\n      dup1\n      0xe9d6c6da\n      eq\n      tag_4\n      jumpi\n    tag_2:\n      0x00\n      dup1\n      revert\n        /* \"contracts/proposal.sol\":340:383  mapping (uint => Proposal) public proposals */\n    tag_3:\n      tag_5\n      0x04\n      dup1\n      calldatasize\n      sub\n      tag_6\n      swap2\n      swap1\n      dup2\n      add\n      swap1\n      jump(tag_7)\n    tag_6:\n      tag_8\n      jump\t// in\n    tag_5:\n      mload(0x40)\n      tag_9\n      swap4\n      swap3\n      swap2\n      swap1\n      jump(tag_10)\n    tag_9:\n      mload(0x40)\n      dup1\n      swap2\n      sub\n      swap1\n      return\n        /* \"contracts/proposal.sol\":430:562  function getProposalStructure(uint _proposalId) public view returns(Proposal memory){\r... */\n    tag_4:\n      tag_11\n      0x04\n      dup1\n      calldatasize\n      sub\n      tag_12\n      swap2\n      swap1\n      dup2\n      add\n      swap1\n      jump(tag_7)\n    tag_12:\n      tag_13\n      jump\t// in\n    tag_11:\n      mload(0x40)\n      tag_14\n      swap2\n      swap1\n      jump(tag_15)\n    tag_14:\n      mload(0x40)\n      dup1\n      swap2\n      sub\n      swap1\n      return\n        /* \"contracts/proposal.sol\":340:383  mapping (uint => Proposal) public proposals */\n    tag_8:\n      mstore(0x20, 0x00)\n      dup1\n      0x00\n      mstore\n      keccak256(0x00, 0x40)\n      0x00\n      swap2\n      pop\n      swap1\n      pop\n      dup1\n      0x00\n      add\n      sload\n      swap1\n      dup1\n      0x01\n      add\n      sload\n      swap1\n      dup1\n      0x02\n      add\n      sload\n      swap1\n      pop\n      dup4\n      jump\t// out\n        /* \"contracts/proposal.sol\":430:562  function getProposalStructure(uint _proposalId) public view returns(Proposal memory){\r... */\n    tag_13:\n        /* \"contracts/proposal.sol\":498:513  Proposal memory */\n      tag_16\n      tag_17\n      jump\t// in\n    tag_16:\n        /* \"contracts/proposal.sol\":532:541  proposals */\n      0x00\n        /* \"contracts/proposal.sol\":532:554  proposals[_proposalId] */\n      dup1\n        /* \"contracts/proposal.sol\":542:553  _proposalId */\n      dup4\n        /* \"contracts/proposal.sol\":532:554  proposals[_proposalId] */\n      dup2\n      mstore\n      0x20\n      add\n      swap1\n      dup2\n      mstore\n      0x20\n      add\n      0x00\n      keccak256\n        /* \"contracts/proposal.sol\":525:554  return proposals[_proposalId] */\n      mload(0x40)\n      dup1\n      0x60\n      add\n      0x40\n      mstore\n      swap1\n      dup2\n      0x00\n      dup3\n      add\n      sload\n      dup2\n      mstore\n      0x20\n      add\n      0x01\n      dup3\n      add\n      sload\n      dup2\n      mstore\n      0x20\n      add\n      0x02\n      dup3\n      add\n      sload\n      dup2\n      mstore\n      pop\n      pop\n      swap1\n      pop\n        /* \"contracts/proposal.sol\":430:562  function getProposalStructure(uint _proposalId) public view returns(Proposal memory){\r... */\n      swap2\n      swap1\n      pop\n      jump\t// out\n        /* \"contracts/proposal.sol\":95:757  contract TestProposal {\r... */\n    tag_17:\n      mload(0x40)\n      dup1\n      0x60\n      add\n      0x40\n      mstore\n      dup1\n      0x00\n      dup2\n      mstore\n      0x20\n      add\n      0x00\n      dup2\n      mstore\n      0x20\n      add\n      0x00\n      dup2\n      mstore\n      pop\n      swap1\n      jump\t// out\n        /* \"--CODEGEN--\":5:135   */\n    tag_20:\n      0x00\n        /* \"--CODEGEN--\":85:91   */\n      dup2\n        /* \"--CODEGEN--\":72:92   */\n      calldataload\n        /* \"--CODEGEN--\":63:92   */\n      swap1\n      pop\n        /* \"--CODEGEN--\":97:130   */\n      tag_22\n        /* \"--CODEGEN--\":124:129   */\n      dup2\n        /* \"--CODEGEN--\":97:130   */\n      jump(tag_23)\n    tag_22:\n        /* \"--CODEGEN--\":57:135   */\n      swap3\n      swap2\n      pop\n      pop\n      jump\n        /* \"--CODEGEN--\":142:383   */\n    tag_7:\n      0x00\n        /* \"--CODEGEN--\":246:248   */\n      0x20\n        /* \"--CODEGEN--\":234:243   */\n      dup3\n        /* \"--CODEGEN--\":225:232   */\n      dup5\n        /* \"--CODEGEN--\":221:244   */\n      sub\n        /* \"--CODEGEN--\":217:249   */\n      slt\n        /* \"--CODEGEN--\":214:216   */\n      iszero\n      tag_25\n      jumpi\n        /* \"--CODEGEN--\":262:263   */\n      0x00\n        /* \"--CODEGEN--\":259:260   */\n      dup1\n        /* \"--CODEGEN--\":252:264   */\n      revert\n        /* \"--CODEGEN--\":214:216   */\n    tag_25:\n        /* \"--CODEGEN--\":297:298   */\n      0x00\n        /* \"--CODEGEN--\":314:367   */\n      tag_26\n        /* \"--CODEGEN--\":359:366   */\n      dup5\n        /* \"--CODEGEN--\":350:356   */\n      dup3\n        /* \"--CODEGEN--\":339:348   */\n      dup6\n        /* \"--CODEGEN--\":335:357   */\n      add\n        /* \"--CODEGEN--\":314:367   */\n      jump(tag_20)\n    tag_26:\n        /* \"--CODEGEN--\":304:367   */\n      swap2\n      pop\n        /* \"--CODEGEN--\":276:373   */\n      pop\n        /* \"--CODEGEN--\":208:383   */\n      swap3\n      swap2\n      pop\n      pop\n      jump\n        /* \"--CODEGEN--\":457:1110   */\n    tag_27:\n        /* \"--CODEGEN--\":596:600   */\n      0x60\n        /* \"--CODEGEN--\":591:594   */\n      dup3\n        /* \"--CODEGEN--\":587:601   */\n      add\n        /* \"--CODEGEN--\":685:689   */\n      0x00\n        /* \"--CODEGEN--\":678:683   */\n      dup3\n        /* \"--CODEGEN--\":674:690   */\n      add\n        /* \"--CODEGEN--\":668:691   */\n      mload\n        /* \"--CODEGEN--\":697:760   */\n      tag_29\n        /* \"--CODEGEN--\":754:758   */\n      0x00\n        /* \"--CODEGEN--\":749:752   */\n      dup6\n        /* \"--CODEGEN--\":745:759   */\n      add\n        /* \"--CODEGEN--\":731:743   */\n      dup3\n        /* \"--CODEGEN--\":697:760   */\n      jump(tag_30)\n    tag_29:\n        /* \"--CODEGEN--\":616:766   */\n      pop\n        /* \"--CODEGEN--\":849:853   */\n      0x20\n        /* \"--CODEGEN--\":842:847   */\n      dup3\n        /* \"--CODEGEN--\":838:854   */\n      add\n        /* \"--CODEGEN--\":832:855   */\n      mload\n        /* \"--CODEGEN--\":861:924   */\n      tag_31\n        /* \"--CODEGEN--\":918:922   */\n      0x20\n        /* \"--CODEGEN--\":913:916   */\n      dup6\n        /* \"--CODEGEN--\":909:923   */\n      add\n        /* \"--CODEGEN--\":895:907   */\n      dup3\n        /* \"--CODEGEN--\":861:924   */\n      jump(tag_30)\n    tag_31:\n        /* \"--CODEGEN--\":776:930   */\n      pop\n        /* \"--CODEGEN--\":1014:1018   */\n      0x40\n        /* \"--CODEGEN--\":1007:1012   */\n      dup3\n        /* \"--CODEGEN--\":1003:1019   */\n      add\n        /* \"--CODEGEN--\":997:1020   */\n      mload\n        /* \"--CODEGEN--\":1026:1089   */\n      tag_32\n        /* \"--CODEGEN--\":1083:1087   */\n      0x40\n        /* \"--CODEGEN--\":1078:1081   */\n      dup6\n        /* \"--CODEGEN--\":1074:1088   */\n      add\n        /* \"--CODEGEN--\":1060:1072   */\n      dup3\n        /* \"--CODEGEN--\":1026:1089   */\n      jump(tag_30)\n    tag_32:\n        /* \"--CODEGEN--\":940:1095   */\n      pop\n        /* \"--CODEGEN--\":569:1110   */\n      pop\n      pop\n      pop\n      jump\n        /* \"--CODEGEN--\":1117:1220   */\n    tag_30:\n        /* \"--CODEGEN--\":1190:1214   */\n      tag_34\n        /* \"--CODEGEN--\":1208:1213   */\n      dup2\n        /* \"--CODEGEN--\":1190:1214   */\n      jump(tag_35)\n    tag_34:\n        /* \"--CODEGEN--\":1185:1188   */\n      dup3\n        /* \"--CODEGEN--\":1178:1215   */\n      mstore\n        /* \"--CODEGEN--\":1172:1220   */\n      pop\n      pop\n      jump\n        /* \"--CODEGEN--\":1227:1340   */\n    tag_36:\n        /* \"--CODEGEN--\":1310:1334   */\n      tag_38\n        /* \"--CODEGEN--\":1328:1333   */\n      dup2\n        /* \"--CODEGEN--\":1310:1334   */\n      jump(tag_35)\n    tag_38:\n        /* \"--CODEGEN--\":1305:1308   */\n      dup3\n        /* \"--CODEGEN--\":1298:1335   */\n      mstore\n        /* \"--CODEGEN--\":1292:1340   */\n      pop\n      pop\n      jump\n        /* \"--CODEGEN--\":1347:1652   */\n    tag_15:\n      0x00\n        /* \"--CODEGEN--\":1511:1513   */\n      0x60\n        /* \"--CODEGEN--\":1500:1509   */\n      dup3\n        /* \"--CODEGEN--\":1496:1514   */\n      add\n        /* \"--CODEGEN--\":1488:1514   */\n      swap1\n      pop\n        /* \"--CODEGEN--\":1525:1642   */\n      tag_40\n        /* \"--CODEGEN--\":1639:1640   */\n      0x00\n        /* \"--CODEGEN--\":1628:1637   */\n      dup4\n        /* \"--CODEGEN--\":1624:1641   */\n      add\n        /* \"--CODEGEN--\":1615:1621   */\n      dup5\n        /* \"--CODEGEN--\":1525:1642   */\n      jump(tag_27)\n    tag_40:\n        /* \"--CODEGEN--\":1482:1652   */\n      swap3\n      swap2\n      pop\n      pop\n      jump\n        /* \"--CODEGEN--\":1659:2094   */\n    tag_10:\n      0x00\n        /* \"--CODEGEN--\":1833:1835   */\n      0x60\n        /* \"--CODEGEN--\":1822:1831   */\n      dup3\n        /* \"--CODEGEN--\":1818:1836   */\n      add\n        /* \"--CODEGEN--\":1810:1836   */\n      swap1\n      pop\n        /* \"--CODEGEN--\":1847:1918   */\n      tag_42\n        /* \"--CODEGEN--\":1915:1916   */\n      0x00\n        /* \"--CODEGEN--\":1904:1913   */\n      dup4\n        /* \"--CODEGEN--\":1900:1917   */\n      add\n        /* \"--CODEGEN--\":1891:1897   */\n      dup7\n        /* \"--CODEGEN--\":1847:1918   */\n      jump(tag_36)\n    tag_42:\n        /* \"--CODEGEN--\":1929:2001   */\n      tag_43\n        /* \"--CODEGEN--\":1997:1999   */\n      0x20\n        /* \"--CODEGEN--\":1986:1995   */\n      dup4\n        /* \"--CODEGEN--\":1982:2000   */\n      add\n        /* \"--CODEGEN--\":1973:1979   */\n      dup6\n        /* \"--CODEGEN--\":1929:2001   */\n      jump(tag_36)\n    tag_43:\n        /* \"--CODEGEN--\":2012:2084   */\n      tag_44\n        /* \"--CODEGEN--\":2080:2082   */\n      0x40\n        /* \"--CODEGEN--\":2069:2078   */\n      dup4\n        /* \"--CODEGEN--\":2065:2083   */\n      add\n        /* \"--CODEGEN--\":2056:2062   */\n      dup5\n        /* \"--CODEGEN--\":2012:2084   */\n      jump(tag_36)\n    tag_44:\n        /* \"--CODEGEN--\":1804:2094   */\n      swap5\n      swap4\n      pop\n      pop\n      pop\n      pop\n      jump\n        /* \"--CODEGEN--\":2101:2173   */\n    tag_35:\n      0x00\n        /* \"--CODEGEN--\":2163:2168   */\n      dup2\n        /* \"--CODEGEN--\":2152:2168   */\n      swap1\n      pop\n        /* \"--CODEGEN--\":2146:2173   */\n      swap2\n      swap1\n      pop\n      jump\n        /* \"--CODEGEN--\":2180:2297   */\n    tag_23:\n        /* \"--CODEGEN--\":2249:2273   */\n      tag_47\n        /* \"--CODEGEN--\":2267:2272   */\n      dup2\n        /* \"--CODEGEN--\":2249:2273   */\n      jump(tag_35)\n    tag_47:\n        /* \"--CODEGEN--\":2242:2247   */\n      dup2\n        /* \"--CODEGEN--\":2239:2274   */\n      eq\n        /* \"--CODEGEN--\":2229:2231   */\n      tag_48\n      jumpi\n        /* \"--CODEGEN--\":2288:2289   */\n      0x00\n        /* \"--CODEGEN--\":2285:2286   */\n      dup1\n        /* \"--CODEGEN--\":2278:2290   */\n      revert\n        /* \"--CODEGEN--\":2229:2231   */\n    tag_48:\n        /* \"--CODEGEN--\":2223:2297   */\n      pop\n      jump\n\n    auxdata: 0xa2646970667358221220a65f1466065c59de853c68a9a8a4c1eee126e6f3c2cddabc54bf7e9ced2e3a3a64736f6c63430006000033\n}\n",
				"bytecode": {
					"linkReferences": {},
					"object": "608060405234801561001057600080fd5b50610279806100206000396000f3fe608060405234801561001057600080fd5b50600436106100365760003560e01c8063013cf08b1461003b578063e9d6c6da1461006d575b600080fd5b61005560048036036100509190810190610147565b61009d565b604051610064939291906101eb565b60405180910390f35b61008760048036036100829190810190610147565b6100c7565b60405161009491906101d0565b60405180910390f35b60006020528060005260406000206000915090508060000154908060010154908060020154905083565b6100cf610111565b60008083815260200190815260200160002060405180606001604052908160008201548152602001600182015481526020016002820154815250509050919050565b60405180606001604052806000815260200160008152602001600081525090565b6000813590506101418161022c565b92915050565b60006020828403121561015957600080fd5b600061016784828501610132565b91505092915050565b60608201600082015161018660008501826101b2565b50602082015161019960208501826101b2565b5060408201516101ac60408501826101b2565b50505050565b6101bb81610222565b82525050565b6101ca81610222565b82525050565b60006060820190506101e56000830184610170565b92915050565b600060608201905061020060008301866101c1565b61020d60208301856101c1565b61021a60408301846101c1565b949350505050565b6000819050919050565b61023581610222565b811461024057600080fd5b5056fea2646970667358221220a65f1466065c59de853c68a9a8a4c1eee126e6f3c2cddabc54bf7e9ced2e3a3a64736f6c63430006000033",
					"opcodes": "PUSH1 0x80 PUSH1 0x40 MSTORE CALLVALUE DUP1 ISZERO PUSH2 0x10 JUMPI PUSH1 0x0 DUP1 REVERT JUMPDEST POP PUSH2 0x279 DUP1 PUSH2 0x20 PUSH1 0x0 CODECOPY PUSH1 0x0 RETURN INVALID PUSH1 0x80 PUSH1 0x40 MSTORE CALLVALUE DUP1 ISZERO PUSH2 0x10 JUMPI PUSH1 0x0 DUP1 REVERT JUMPDEST POP PUSH1 0x4 CALLDATASIZE LT PUSH2 0x36 JUMPI PUSH1 0x0 CALLDATALOAD PUSH1 0xE0 SHR DUP1 PUSH4 0x13CF08B EQ PUSH2 0x3B JUMPI DUP1 PUSH4 0xE9D6C6DA EQ PUSH2 0x6D JUMPI JUMPDEST PUSH1 0x0 DUP1 REVERT JUMPDEST PUSH2 0x55 PUSH1 0x4 DUP1 CALLDATASIZE SUB PUSH2 0x50 SWAP2 SWAP1 DUP2 ADD SWAP1 PUSH2 0x147 JUMP JUMPDEST PUSH2 0x9D JUMP JUMPDEST PUSH1 0x40 MLOAD PUSH2 0x64 SWAP4 SWAP3 SWAP2 SWAP1 PUSH2 0x1EB JUMP JUMPDEST PUSH1 0x40 MLOAD DUP1 SWAP2 SUB SWAP1 RETURN JUMPDEST PUSH2 0x87 PUSH1 0x4 DUP1 CALLDATASIZE SUB PUSH2 0x82 SWAP2 SWAP1 DUP2 ADD SWAP1 PUSH2 0x147 JUMP JUMPDEST PUSH2 0xC7 JUMP JUMPDEST PUSH1 0x40 MLOAD PUSH2 0x94 SWAP2 SWAP1 PUSH2 0x1D0 JUMP JUMPDEST PUSH1 0x40 MLOAD DUP1 SWAP2 SUB SWAP1 RETURN JUMPDEST PUSH1 0x0 PUSH1 0x20 MSTORE DUP1 PUSH1 0x0 MSTORE PUSH1 0x40 PUSH1 0x0 KECCAK256 PUSH1 0x0 SWAP2 POP SWAP1 POP DUP1 PUSH1 0x0 ADD SLOAD SWAP1 DUP1 PUSH1 0x1 ADD SLOAD SWAP1 DUP1 PUSH1 0x2 ADD SLOAD SWAP1 POP DUP4 JUMP JUMPDEST PUSH2 0xCF PUSH2 0x111 JUMP JUMPDEST PUSH1 0x0 DUP1 DUP4 DUP2 MSTORE PUSH1 0x20 ADD SWAP1 DUP2 MSTORE PUSH1 0x20 ADD PUSH1 0x0 KECCAK256 PUSH1 0x40 MLOAD DUP1 PUSH1 0x60 ADD PUSH1 0x40 MSTORE SWAP1 DUP2 PUSH1 0x0 DUP3 ADD SLOAD DUP2 MSTORE PUSH1 0x20 ADD PUSH1 0x1 DUP3 ADD SLOAD DUP2 MSTORE PUSH1 0x20 ADD PUSH1 0x2 DUP3 ADD SLOAD DUP2 MSTORE POP POP SWAP1 POP SWAP2 SWAP1 POP JUMP JUMPDEST PUSH1 0x40 MLOAD DUP1 PUSH1 0x60 ADD PUSH1 0x40 MSTORE DUP1 PUSH1 0x0 DUP2 MSTORE PUSH1 0x20 ADD PUSH1 0x0 DUP2 MSTORE PUSH1 0x20 ADD PUSH1 0x0 DUP2 MSTORE POP SWAP1 JUMP JUMPDEST PUSH1 0x0 DUP2 CALLDATALOAD SWAP1 POP PUSH2 0x141 DUP2 PUSH2 0x22C JUMP JUMPDEST SWAP3 SWAP2 POP POP JUMP JUMPDEST PUSH1 0x0 PUSH1 0x20 DUP3 DUP5 SUB SLT ISZERO PUSH2 0x159 JUMPI PUSH1 0x0 DUP1 REVERT JUMPDEST PUSH1 0x0 PUSH2 0x167 DUP5 DUP3 DUP6 ADD PUSH2 0x132 JUMP JUMPDEST SWAP2 POP POP SWAP3 SWAP2 POP POP JUMP JUMPDEST PUSH1 0x60 DUP3 ADD PUSH1 0x0 DUP3 ADD MLOAD PUSH2 0x186 PUSH1 0x0 DUP6 ADD DUP3 PUSH2 0x1B2 JUMP JUMPDEST POP PUSH1 0x20 DUP3 ADD MLOAD PUSH2 0x199 PUSH1 0x20 DUP6 ADD DUP3 PUSH2 0x1B2 JUMP JUMPDEST POP PUSH1 0x40 DUP3 ADD MLOAD PUSH2 0x1AC PUSH1 0x40 DUP6 ADD DUP3 PUSH2 0x1B2 JUMP JUMPDEST POP POP POP POP JUMP JUMPDEST PUSH2 0x1BB DUP2 PUSH2 0x222 JUMP JUMPDEST DUP3 MSTORE POP POP JUMP JUMPDEST PUSH2 0x1CA DUP2 PUSH2 0x222 JUMP JUMPDEST DUP3 MSTORE POP POP JUMP JUMPDEST PUSH1 0x0 PUSH1 0x60 DUP3 ADD SWAP1 POP PUSH2 0x1E5 PUSH1 0x0 DUP4 ADD DUP5 PUSH2 0x170 JUMP JUMPDEST SWAP3 SWAP2 POP POP JUMP JUMPDEST PUSH1 0x0 PUSH1 0x60 DUP3 ADD SWAP1 POP PUSH2 0x200 PUSH1 0x0 DUP4 ADD DUP7 PUSH2 0x1C1 JUMP JUMPDEST PUSH2 0x20D PUSH1 0x20 DUP4 ADD DUP6 PUSH2 0x1C1 JUMP JUMPDEST PUSH2 0x21A PUSH1 0x40 DUP4 ADD DUP5 PUSH2 0x1C1 JUMP JUMPDEST SWAP5 SWAP4 POP POP POP POP JUMP JUMPDEST PUSH1 0x0 DUP2 SWAP1 POP SWAP2 SWAP1 POP JUMP JUMPDEST PUSH2 0x235 DUP2 PUSH2 0x222 JUMP JUMPDEST DUP2 EQ PUSH2 0x240 JUMPI PUSH1 0x0 DUP1 REVERT JUMPDEST POP JUMP INVALID LOG2 PUSH5 0x6970667358 0x22 SLT KECCAK256 0xA6 0x5F EQ PUSH7 0x65C59DE853C68 0xA9 0xA8 LOG4 0xC1 0xEE 0xE1 0x26 0xE6 RETURN 0xC2 0xCD 0xDA 0xBC SLOAD 0xBF PUSH31 0x9CED2E3A3A64736F6C63430006000033000000000000000000000000000000 "
				},
				"gasEstimates": {
					"creation": {
						"codeDepositCost": "126600",
						"executionCost": "171",
						"totalCost": "126771"
					},
					"external": {
						"getProposalStructure(uint256)": "infinite",
						"proposals(uint256)": "infinite"
					}
				},
				"methodIdentifiers": {
					"getProposalStructure(uint256)": "e9d6c6da",
					"proposals(uint256)": "013cf08b"
				}
			},
			"storageLayout": {
				"storage": [
					{
						"astId": 13,
						"contract": "contracts/proposal.sol:TestProposal",
						"label": "proposals",
						"offset": 0,
						"slot": "0",
						"type": "t_mapping(t_uint256,t_struct(Proposal)9_storage)"
					}
				],
				"types": {
					"t_mapping(t_uint256,t_struct(Proposal)9_storage)": {
						"encoding": "mapping",
						"key": "t_uint256",
						"label": "mapping(uint256 => struct TestProposal.Proposal)",
						"numberOfBytes": "32",
						"value": "t_struct(Proposal)9_storage"
					},
					"t_struct(Proposal)9_storage": {
						"encoding": "inplace",
						"label": "struct TestProposal.Proposal",
						"members": [
							{
								"astId": 4,
								"contract": "contracts/proposal.sol:TestProposal",
								"label": "proposalId",
								"offset": 0,
								"slot": "0",
								"type": "t_uint256"
							},
							{
								"astId": 6,
								"contract": "contracts/proposal.sol:TestProposal",
								"label": "proposalStatus",
								"offset": 0,
								"slot": "1",
								"type": "t_uint256"
							},
							{
								"astId": 8,
								"contract": "contracts/proposal.sol:TestProposal",
								"label": "proposalCreator",
								"offset": 0,
								"slot": "2",
								"type": "t_uint256"
							}
						],
						"numberOfBytes": "96"
					},
					"t_uint256": {
						"encoding": "inplace",
						"label": "uint256",
						"numberOfBytes": "32"
					}
				}
			},
			"userdoc": {
				"methods": {}
			}
		}
	}
}