{
	"contracts/fun_stuff.sol": {
		"VoteSaving": {
			"abi": [
				{
					"inputs": [],
					"stateMutability": "nonpayable",
					"type": "constructor"
				},
				{
					"anonymous": false,
					"inputs": [
						{
							"indexed": true,
							"internalType": "uint256",
							"name": "_memberId",
							"type": "uint256"
						}
					],
					"name": "savingEvent",
					"type": "event"
				},
				{
					"inputs": [
						{
							"internalType": "string",
							"name": "_name",
							"type": "string"
						},
						{
							"internalType": "bool",
							"name": "_isVote",
							"type": "bool"
						}
					],
					"name": "addMember",
					"outputs": [],
					"stateMutability": "nonpayable",
					"type": "function"
				},
				{
					"inputs": [],
					"name": "getCountOfVoted",
					"outputs": [],
					"stateMutability": "nonpayable",
					"type": "function"
				},
				{
					"inputs": [
						{
							"internalType": "uint256",
							"name": "_memberId",
							"type": "uint256"
						}
					],
					"name": "getMemberStructure",
					"outputs": [
						{
							"components": [
								{
									"internalType": "uint256",
									"name": "id",
									"type": "uint256"
								},
								{
									"internalType": "string",
									"name": "name",
									"type": "string"
								},
								{
									"internalType": "bool",
									"name": "isVoted",
									"type": "bool"
								}
							],
							"internalType": "struct VoteSaving.Member",
							"name": "",
							"type": "tuple"
						}
					],
					"stateMutability": "view",
					"type": "function"
				},
				{
					"inputs": [],
					"name": "getMemberValue",
					"outputs": [
						{
							"internalType": "uint256[]",
							"name": "",
							"type": "uint256[]"
						},
						{
							"internalType": "string[]",
							"name": "",
							"type": "string[]"
						},
						{
							"internalType": "bool[]",
							"name": "",
							"type": "bool[]"
						}
					],
					"stateMutability": "view",
					"type": "function"
				},
				{
					"inputs": [],
					"name": "memberCount",
					"outputs": [
						{
							"internalType": "uint256",
							"name": "",
							"type": "uint256"
						}
					],
					"stateMutability": "view",
					"type": "function"
				},
				{
					"inputs": [
						{
							"internalType": "uint256",
							"name": "",
							"type": "uint256"
						}
					],
					"name": "members",
					"outputs": [
						{
							"internalType": "uint256",
							"name": "id",
							"type": "uint256"
						},
						{
							"internalType": "string",
							"name": "name",
							"type": "string"
						},
						{
							"internalType": "bool",
							"name": "isVoted",
							"type": "bool"
						}
					],
					"stateMutability": "view",
					"type": "function"
				},
				{
					"inputs": [
						{
							"internalType": "uint256",
							"name": "_memberId",
							"type": "uint256"
						},
						{
							"internalType": "bool",
							"name": "_isVote",
							"type": "bool"
						}
					],
					"name": "setVote",
					"outputs": [],
					"stateMutability": "nonpayable",
					"type": "function"
				},
				{
					"inputs": [],
					"name": "votedCount",
					"outputs": [
						{
							"internalType": "uint256",
							"name": "",
							"type": "uint256"
						}
					],
					"stateMutability": "view",
					"type": "function"
				}
			],
			"devdoc": {
				"methods": {}
			},
			"evm": {
				"assembly": "    /* \"contracts/fun_stuff.sol\":95:1974  contract VoteSaving {\r... */\n  mstore(0x40, 0x80)\n    /* \"contracts/fun_stuff.sol\":369:714  constructor() public {\r... */\n  callvalue\n    /* \"--CODEGEN--\":8:17   */\n  dup1\n    /* \"--CODEGEN--\":5:7   */\n  iszero\n  tag_1\n  jumpi\n    /* \"--CODEGEN--\":30:31   */\n  0x00\n    /* \"--CODEGEN--\":27:28   */\n  dup1\n    /* \"--CODEGEN--\":20:32   */\n  revert\n    /* \"--CODEGEN--\":5:7   */\ntag_1:\n    /* \"contracts/fun_stuff.sol\":369:714  constructor() public {\r... */\n  pop\n    /* \"contracts/fun_stuff.sol\":415:416  0 */\n  0x00\n    /* \"contracts/fun_stuff.sol\":401:412  memberCount */\n  0x01\n    /* \"contracts/fun_stuff.sol\":401:416  memberCount = 0 */\n  dup2\n  swap1\n  sstore\n  pop\n    /* \"contracts/fun_stuff.sol\":427:450  addMember(\"Vlad\", true) */\n  tag_4\n  mload(0x40)\n  dup1\n  0x40\n  add\n  0x40\n  mstore\n  dup1\n  0x04\n  dup2\n  mstore\n  0x20\n  add\n  0x566c616400000000000000000000000000000000000000000000000000000000\n  dup2\n  mstore\n  pop\n    /* \"contracts/fun_stuff.sol\":445:449  true */\n  0x01\n    /* \"contracts/fun_stuff.sol\":427:436  addMember */\n  shl(0x20, tag_5)\n    /* \"contracts/fun_stuff.sol\":427:450  addMember(\"Vlad\", true) */\n  0x20\n  shr\n  jump\t// in\ntag_4:\n    /* \"contracts/fun_stuff.sol\":461:487  addMember(\"Nastya\", false) */\n  tag_6\n  mload(0x40)\n  dup1\n  0x40\n  add\n  0x40\n  mstore\n  dup1\n  0x06\n  dup2\n  mstore\n  0x20\n  add\n  0x4e61737479610000000000000000000000000000000000000000000000000000\n  dup2\n  mstore\n  pop\n    /* \"contracts/fun_stuff.sol\":481:486  false */\n  0x00\n    /* \"contracts/fun_stuff.sol\":461:470  addMember */\n  shl(0x20, tag_5)\n    /* \"contracts/fun_stuff.sol\":461:487  addMember(\"Nastya\", false) */\n  0x20\n  shr\n  jump\t// in\ntag_6:\n    /* \"contracts/fun_stuff.sol\":498:522  addMember(\"Vlad1\", true) */\n  tag_7\n  mload(0x40)\n  dup1\n  0x40\n  add\n  0x40\n  mstore\n  dup1\n  0x05\n  dup2\n  mstore\n  0x20\n  add\n  0x566c616431000000000000000000000000000000000000000000000000000000\n  dup2\n  mstore\n  pop\n    /* \"contracts/fun_stuff.sol\":517:521  true */\n  0x01\n    /* \"contracts/fun_stuff.sol\":498:507  addMember */\n  shl(0x20, tag_5)\n    /* \"contracts/fun_stuff.sol\":498:522  addMember(\"Vlad1\", true) */\n  0x20\n  shr\n  jump\t// in\ntag_7:\n    /* \"contracts/fun_stuff.sol\":533:560  addMember(\"Nastya2\", false) */\n  tag_8\n  mload(0x40)\n  dup1\n  0x40\n  add\n  0x40\n  mstore\n  dup1\n  0x07\n  dup2\n  mstore\n  0x20\n  add\n  0x4e61737479613200000000000000000000000000000000000000000000000000\n  dup2\n  mstore\n  pop\n    /* \"contracts/fun_stuff.sol\":554:559  false */\n  0x00\n    /* \"contracts/fun_stuff.sol\":533:542  addMember */\n  shl(0x20, tag_5)\n    /* \"contracts/fun_stuff.sol\":533:560  addMember(\"Nastya2\", false) */\n  0x20\n  shr\n  jump\t// in\ntag_8:\n    /* \"contracts/fun_stuff.sol\":571:595  addMember(\"Vlad3\", true) */\n  tag_9\n  mload(0x40)\n  dup1\n  0x40\n  add\n  0x40\n  mstore\n  dup1\n  0x05\n  dup2\n  mstore\n  0x20\n  add\n  0x566c616433000000000000000000000000000000000000000000000000000000\n  dup2\n  mstore\n  pop\n    /* \"contracts/fun_stuff.sol\":590:594  true */\n  0x01\n    /* \"contracts/fun_stuff.sol\":571:580  addMember */\n  shl(0x20, tag_5)\n    /* \"contracts/fun_stuff.sol\":571:595  addMember(\"Vlad3\", true) */\n  0x20\n  shr\n  jump\t// in\ntag_9:\n    /* \"contracts/fun_stuff.sol\":606:633  addMember(\"Nastya4\", false) */\n  tag_10\n  mload(0x40)\n  dup1\n  0x40\n  add\n  0x40\n  mstore\n  dup1\n  0x07\n  dup2\n  mstore\n  0x20\n  add\n  0x4e61737479613400000000000000000000000000000000000000000000000000\n  dup2\n  mstore\n  pop\n    /* \"contracts/fun_stuff.sol\":627:632  false */\n  0x00\n    /* \"contracts/fun_stuff.sol\":606:615  addMember */\n  shl(0x20, tag_5)\n    /* \"contracts/fun_stuff.sol\":606:633  addMember(\"Nastya4\", false) */\n  0x20\n  shr\n  jump\t// in\ntag_10:\n    /* \"contracts/fun_stuff.sol\":644:668  addMember(\"Vlad5\", true) */\n  tag_11\n  mload(0x40)\n  dup1\n  0x40\n  add\n  0x40\n  mstore\n  dup1\n  0x05\n  dup2\n  mstore\n  0x20\n  add\n  0x566c616435000000000000000000000000000000000000000000000000000000\n  dup2\n  mstore\n  pop\n    /* \"contracts/fun_stuff.sol\":663:667  true */\n  0x01\n    /* \"contracts/fun_stuff.sol\":644:653  addMember */\n  shl(0x20, tag_5)\n    /* \"contracts/fun_stuff.sol\":644:668  addMember(\"Vlad5\", true) */\n  0x20\n  shr\n  jump\t// in\ntag_11:\n    /* \"contracts/fun_stuff.sol\":679:706  addMember(\"Nastya6\", false) */\n  tag_12\n  mload(0x40)\n  dup1\n  0x40\n  add\n  0x40\n  mstore\n  dup1\n  0x07\n  dup2\n  mstore\n  0x20\n  add\n  0x4e61737479613600000000000000000000000000000000000000000000000000\n  dup2\n  mstore\n  pop\n    /* \"contracts/fun_stuff.sol\":700:705  false */\n  0x00\n    /* \"contracts/fun_stuff.sol\":679:688  addMember */\n  shl(0x20, tag_5)\n    /* \"contracts/fun_stuff.sol\":679:706  addMember(\"Nastya6\", false) */\n  0x20\n  shr\n  jump\t// in\ntag_12:\n    /* \"contracts/fun_stuff.sol\":95:1974  contract VoteSaving {\r... */\n  jump(tag_13)\n    /* \"contracts/fun_stuff.sol\":722:884  function addMember(string memory _name, bool _isVote) public {\r... */\ntag_5:\n    /* \"contracts/fun_stuff.sol\":817:852  Member(memberCount, _name, _isVote) */\n  mload(0x40)\n  dup1\n  0x60\n  add\n  0x40\n  mstore\n  dup1\n    /* \"contracts/fun_stuff.sol\":824:835  memberCount */\n  sload(0x01)\n    /* \"contracts/fun_stuff.sol\":817:852  Member(memberCount, _name, _isVote) */\n  dup2\n  mstore\n  0x20\n  add\n    /* \"contracts/fun_stuff.sol\":837:842  _name */\n  dup4\n    /* \"contracts/fun_stuff.sol\":817:852  Member(memberCount, _name, _isVote) */\n  dup2\n  mstore\n  0x20\n  add\n    /* \"contracts/fun_stuff.sol\":844:851  _isVote */\n  dup3\n    /* \"contracts/fun_stuff.sol\":817:852  Member(memberCount, _name, _isVote) */\n  iszero\n  iszero\n  dup2\n  mstore\n  pop\n    /* \"contracts/fun_stuff.sol\":794:801  members */\n  0x00\n    /* \"contracts/fun_stuff.sol\":794:814  members[memberCount] */\n  dup1\n    /* \"contracts/fun_stuff.sol\":802:813  memberCount */\n  sload(0x01)\n    /* \"contracts/fun_stuff.sol\":794:814  members[memberCount] */\n  dup2\n  mstore\n  0x20\n  add\n  swap1\n  dup2\n  mstore\n  0x20\n  add\n  0x00\n  keccak256\n    /* \"contracts/fun_stuff.sol\":794:852  members[memberCount] = Member(memberCount, _name, _isVote) */\n  0x00\n  dup3\n  add\n  mload\n  dup2\n  0x00\n  add\n  sstore\n  0x20\n  dup3\n  add\n  mload\n  dup2\n  0x01\n  add\n  swap1\n  dup1\n  mload\n  swap1\n  0x20\n  add\n  swap1\n  tag_15\n  swap3\n  swap2\n  swap1\n  tag_16\n  jump\t// in\ntag_15:\n  pop\n  0x40\n  dup3\n  add\n  mload\n  dup2\n  0x02\n  add\n  exp(0x0100, 0x00)\n  dup2\n  sload\n  dup2\n  0xff\n  mul\n  not\n  and\n  swap1\n  dup4\n  iszero\n  iszero\n  mul\n  or\n  swap1\n  sstore\n  pop\n  swap1\n  pop\n  pop\n    /* \"contracts/fun_stuff.sol\":863:874  memberCount */\n  0x01\n  0x00\n    /* \"contracts/fun_stuff.sol\":863:876  memberCount++ */\n  dup2\n  sload\n  dup1\n  swap3\n  swap2\n  swap1\n  0x01\n  add\n  swap2\n  swap1\n  pop\n  sstore\n  pop\n    /* \"contracts/fun_stuff.sol\":722:884  function addMember(string memory _name, bool _isVote) public {\r... */\n  pop\n  pop\n  jump\t// out\n    /* \"contracts/fun_stuff.sol\":95:1974  contract VoteSaving {\r... */\ntag_16:\n  dup3\n  dup1\n  sload\n  0x01\n  dup2\n  0x01\n  and\n  iszero\n  0x0100\n  mul\n  sub\n  and\n  0x02\n  swap1\n  div\n  swap1\n  0x00\n  mstore\n  keccak256(0x00, 0x20)\n  swap1\n  0x1f\n  add\n  0x20\n  swap1\n  div\n  dup2\n  add\n  swap3\n  dup3\n  0x1f\n  lt\n  tag_18\n  jumpi\n  dup1\n  mload\n  not(0xff)\n  and\n  dup4\n  dup1\n  add\n  or\n  dup6\n  sstore\n  jump(tag_17)\ntag_18:\n  dup3\n  dup1\n  add\n  0x01\n  add\n  dup6\n  sstore\n  dup3\n  iszero\n  tag_17\n  jumpi\n  swap2\n  dup3\n  add\ntag_19:\n  dup3\n  dup2\n  gt\n  iszero\n  tag_20\n  jumpi\n  dup3\n  mload\n  dup3\n  sstore\n  swap2\n  0x20\n  add\n  swap2\n  swap1\n  0x01\n  add\n  swap1\n  jump(tag_19)\ntag_20:\ntag_17:\n  pop\n  swap1\n  pop\n  tag_21\n  swap2\n  swap1\n  tag_22\n  jump\t// in\ntag_21:\n  pop\n  swap1\n  jump\t// out\ntag_22:\n  tag_23\n  swap2\n  swap1\ntag_24:\n  dup1\n  dup3\n  gt\n  iszero\n  tag_25\n  jumpi\n  0x00\n  dup2\n  0x00\n  swap1\n  sstore\n  pop\n  0x01\n  add\n  jump(tag_24)\ntag_25:\n  pop\n  swap1\n  jump\ntag_23:\n  swap1\n  jump\t// out\ntag_13:\n  dataSize(sub_0)\n  dup1\n  dataOffset(sub_0)\n  0x00\n  codecopy\n  0x00\n  return\nstop\n\nsub_0: assembly {\n        /* \"contracts/fun_stuff.sol\":95:1974  contract VoteSaving {\r... */\n      mstore(0x40, 0x80)\n      callvalue\n        /* \"--CODEGEN--\":8:17   */\n      dup1\n        /* \"--CODEGEN--\":5:7   */\n      iszero\n      tag_1\n      jumpi\n        /* \"--CODEGEN--\":30:31   */\n      0x00\n        /* \"--CODEGEN--\":27:28   */\n      dup1\n        /* \"--CODEGEN--\":20:32   */\n      revert\n        /* \"--CODEGEN--\":5:7   */\n    tag_1:\n        /* \"contracts/fun_stuff.sol\":95:1974  contract VoteSaving {\r... */\n      pop\n      jumpi(tag_2, lt(calldatasize, 0x04))\n      shr(0xe0, calldataload(0x00))\n      dup1\n      0x93d6bb5e\n      gt\n      tag_11\n      jumpi\n      dup1\n      0x93d6bb5e\n      eq\n      tag_7\n      jumpi\n      dup1\n      0xd3516b7e\n      eq\n      tag_8\n      jumpi\n      dup1\n      0xf0232d0a\n      eq\n      tag_9\n      jumpi\n      dup1\n      0xf97698f8\n      eq\n      tag_10\n      jumpi\n      jump(tag_2)\n    tag_11:\n      dup1\n      0x11aee380\n      eq\n      tag_3\n      jumpi\n      dup1\n      0x5daf08ca\n      eq\n      tag_4\n      jumpi\n      dup1\n      0x6f416d59\n      eq\n      tag_5\n      jumpi\n      dup1\n      0x92c68389\n      eq\n      tag_6\n      jumpi\n    tag_2:\n      0x00\n      dup1\n      revert\n        /* \"contracts/fun_stuff.sol\":308:331  uint public memberCount */\n    tag_3:\n      tag_12\n      tag_13\n      jump\t// in\n    tag_12:\n      mload(0x40)\n      tag_14\n      swap2\n      swap1\n      jump(tag_15)\n    tag_14:\n      mload(0x40)\n      dup1\n      swap2\n      sub\n      swap1\n      return\n        /* \"contracts/fun_stuff.sol\":214:253  mapping (uint => Member) public members */\n    tag_4:\n      tag_16\n      0x04\n      dup1\n      calldatasize\n      sub\n      tag_17\n      swap2\n      swap1\n      dup2\n      add\n      swap1\n      jump(tag_18)\n    tag_17:\n      tag_19\n      jump\t// in\n    tag_16:\n      mload(0x40)\n      tag_20\n      swap4\n      swap3\n      swap2\n      swap1\n      jump(tag_21)\n    tag_20:\n      mload(0x40)\n      dup1\n      swap2\n      sub\n      swap1\n      return\n        /* \"contracts/fun_stuff.sol\":1425:1966  function getMemberValue() public view returns(uint[] memory, string[] memory, bool[] memory) {\r... */\n    tag_5:\n      tag_22\n      tag_23\n      jump\t// in\n    tag_22:\n      mload(0x40)\n      tag_24\n      swap4\n      swap3\n      swap2\n      swap1\n      jump(tag_25)\n    tag_24:\n      mload(0x40)\n      dup1\n      swap2\n      sub\n      swap1\n      return\n        /* \"contracts/fun_stuff.sol\":722:884  function addMember(string memory _name, bool _isVote) public {\r... */\n    tag_6:\n      tag_26\n      0x04\n      dup1\n      calldatasize\n      sub\n      tag_27\n      swap2\n      swap1\n      dup2\n      add\n      swap1\n      jump(tag_28)\n    tag_27:\n      tag_29\n      jump\t// in\n    tag_26:\n      stop\n        /* \"contracts/fun_stuff.sol\":1009:1205  function getCountOfVoted() public {\r... */\n    tag_7:\n      tag_30\n      tag_31\n      jump\t// in\n    tag_30:\n      stop\n        /* \"contracts/fun_stuff.sol\":892:1001  function setVote(uint _memberId, bool _isVote) public {\r... */\n    tag_8:\n      tag_32\n      0x04\n      dup1\n      calldatasize\n      sub\n      tag_33\n      swap2\n      swap1\n      dup2\n      add\n      swap1\n      jump(tag_34)\n    tag_33:\n      tag_35\n      jump\t// in\n    tag_32:\n      stop\n        /* \"contracts/fun_stuff.sol\":338:360  uint public votedCount */\n    tag_9:\n      tag_36\n      tag_37\n      jump\t// in\n    tag_36:\n      mload(0x40)\n      tag_38\n      swap2\n      swap1\n      jump(tag_15)\n    tag_38:\n      mload(0x40)\n      dup1\n      swap2\n      sub\n      swap1\n      return\n        /* \"contracts/fun_stuff.sol\":1255:1377  function getMemberStructure(uint _memberId) public view returns(Member memory){\r... */\n    tag_10:\n      tag_39\n      0x04\n      dup1\n      calldatasize\n      sub\n      tag_40\n      swap2\n      swap1\n      dup2\n      add\n      swap1\n      jump(tag_18)\n    tag_40:\n      tag_41\n      jump\t// in\n    tag_39:\n      mload(0x40)\n      tag_42\n      swap2\n      swap1\n      jump(tag_43)\n    tag_42:\n      mload(0x40)\n      dup1\n      swap2\n      sub\n      swap1\n      return\n        /* \"contracts/fun_stuff.sol\":308:331  uint public memberCount */\n    tag_13:\n      sload(0x01)\n      dup2\n      jump\t// out\n        /* \"contracts/fun_stuff.sol\":214:253  mapping (uint => Member) public members */\n    tag_19:\n      mstore(0x20, 0x00)\n      dup1\n      0x00\n      mstore\n      keccak256(0x00, 0x40)\n      0x00\n      swap2\n      pop\n      swap1\n      pop\n      dup1\n      0x00\n      add\n      sload\n      swap1\n      dup1\n      0x01\n      add\n      dup1\n      sload\n      0x01\n      dup2\n      0x01\n      and\n      iszero\n      0x0100\n      mul\n      sub\n      and\n      0x02\n      swap1\n      div\n      dup1\n      0x1f\n      add\n      0x20\n      dup1\n      swap2\n      div\n      mul\n      0x20\n      add\n      mload(0x40)\n      swap1\n      dup2\n      add\n      0x40\n      mstore\n      dup1\n      swap3\n      swap2\n      swap1\n      dup2\n      dup2\n      mstore\n      0x20\n      add\n      dup3\n      dup1\n      sload\n      0x01\n      dup2\n      0x01\n      and\n      iszero\n      0x0100\n      mul\n      sub\n      and\n      0x02\n      swap1\n      div\n      dup1\n      iszero\n      tag_44\n      jumpi\n      dup1\n      0x1f\n      lt\n      tag_45\n      jumpi\n      0x0100\n      dup1\n      dup4\n      sload\n      div\n      mul\n      dup4\n      mstore\n      swap2\n      0x20\n      add\n      swap2\n      jump(tag_44)\n    tag_45:\n      dup3\n      add\n      swap2\n      swap1\n      0x00\n      mstore\n      keccak256(0x00, 0x20)\n      swap1\n    tag_46:\n      dup2\n      sload\n      dup2\n      mstore\n      swap1\n      0x01\n      add\n      swap1\n      0x20\n      add\n      dup1\n      dup4\n      gt\n      tag_46\n      jumpi\n      dup3\n      swap1\n      sub\n      0x1f\n      and\n      dup3\n      add\n      swap2\n    tag_44:\n      pop\n      pop\n      pop\n      pop\n      pop\n      swap1\n      dup1\n      0x02\n      add\n      0x00\n      swap1\n      sload\n      swap1\n      0x0100\n      exp\n      swap1\n      div\n      0xff\n      and\n      swap1\n      pop\n      dup4\n      jump\t// out\n        /* \"contracts/fun_stuff.sol\":1425:1966  function getMemberValue() public view returns(uint[] memory, string[] memory, bool[] memory) {\r... */\n    tag_23:\n        /* \"contracts/fun_stuff.sol\":1471:1484  uint[] memory */\n      0x60\n        /* \"contracts/fun_stuff.sol\":1486:1501  string[] memory */\n      dup1\n        /* \"contracts/fun_stuff.sol\":1503:1516  bool[] memory */\n      0x60\n        /* \"contracts/fun_stuff.sol\":1529:1550  uint[]      memory id */\n      dup1\n        /* \"contracts/fun_stuff.sol\":1564:1575  memberCount */\n      sload(0x01)\n        /* \"contracts/fun_stuff.sol\":1553:1576  new uint[](memberCount) */\n      mload(0x40)\n      swap1\n      dup1\n      dup3\n      mstore\n      dup1\n      0x20\n      mul\n      0x20\n      add\n      dup3\n      add\n      0x40\n      mstore\n      dup1\n      iszero\n      tag_48\n      jumpi\n      dup2\n      0x20\n      add\n        /* \"--CODEGEN--\":29:31   */\n      0x20\n        /* \"--CODEGEN--\":21:27   */\n      dup3\n        /* \"--CODEGEN--\":17:32   */\n      mul\n        /* \"--CODEGEN--\":117:121   */\n      dup1\n        /* \"--CODEGEN--\":105:115   */\n      codesize\n        /* \"--CODEGEN--\":97:103   */\n      dup4\n        /* \"--CODEGEN--\":88:122   */\n      codecopy\n        /* \"--CODEGEN--\":148:152   */\n      dup1\n        /* \"--CODEGEN--\":140:146   */\n      dup3\n        /* \"--CODEGEN--\":136:153   */\n      add\n        /* \"--CODEGEN--\":126:153   */\n      swap2\n      pop\n        /* \"--CODEGEN--\":0:157   */\n      pop\n        /* \"contracts/fun_stuff.sol\":1553:1576  new uint[](memberCount) */\n      swap1\n      pop\n    tag_48:\n      pop\n        /* \"contracts/fun_stuff.sol\":1529:1576  uint[]      memory id = new uint[](memberCount) */\n      swap1\n      pop\n        /* \"contracts/fun_stuff.sol\":1587:1610  string[]    memory name */\n      0x60\n        /* \"contracts/fun_stuff.sol\":1626:1637  memberCount */\n      sload(0x01)\n        /* \"contracts/fun_stuff.sol\":1613:1638  new string[](memberCount) */\n      mload(0x40)\n      swap1\n      dup1\n      dup3\n      mstore\n      dup1\n      0x20\n      mul\n      0x20\n      add\n      dup3\n      add\n      0x40\n      mstore\n      dup1\n      iszero\n      tag_49\n      jumpi\n      dup2\n      0x20\n      add\n    tag_50:\n      0x60\n      dup2\n      mstore\n      0x20\n      add\n      swap1\n      0x01\n      swap1\n      sub\n      swap1\n      dup2\n      tag_50\n      jumpi\n      swap1\n      pop\n    tag_49:\n      pop\n        /* \"contracts/fun_stuff.sol\":1587:1638  string[]    memory name = new string[](memberCount) */\n      swap1\n      pop\n        /* \"contracts/fun_stuff.sol\":1649:1675  bool[]      memory isVoted */\n      0x60\n        /* \"contracts/fun_stuff.sol\":1689:1700  memberCount */\n      sload(0x01)\n        /* \"contracts/fun_stuff.sol\":1678:1701  new bool[](memberCount) */\n      mload(0x40)\n      swap1\n      dup1\n      dup3\n      mstore\n      dup1\n      0x20\n      mul\n      0x20\n      add\n      dup3\n      add\n      0x40\n      mstore\n      dup1\n      iszero\n      tag_51\n      jumpi\n      dup2\n      0x20\n      add\n        /* \"--CODEGEN--\":29:31   */\n      0x20\n        /* \"--CODEGEN--\":21:27   */\n      dup3\n        /* \"--CODEGEN--\":17:32   */\n      mul\n        /* \"--CODEGEN--\":117:121   */\n      dup1\n        /* \"--CODEGEN--\":105:115   */\n      codesize\n        /* \"--CODEGEN--\":97:103   */\n      dup4\n        /* \"--CODEGEN--\":88:122   */\n      codecopy\n        /* \"--CODEGEN--\":148:152   */\n      dup1\n        /* \"--CODEGEN--\":140:146   */\n      dup3\n        /* \"--CODEGEN--\":136:153   */\n      add\n        /* \"--CODEGEN--\":126:153   */\n      swap2\n      pop\n        /* \"--CODEGEN--\":0:157   */\n      pop\n        /* \"contracts/fun_stuff.sol\":1678:1701  new bool[](memberCount) */\n      swap1\n      pop\n    tag_51:\n      pop\n        /* \"contracts/fun_stuff.sol\":1649:1701  bool[]      memory isVoted = new bool[](memberCount) */\n      swap1\n      pop\n        /* \"contracts/fun_stuff.sol\":1717:1723  uint i */\n      0x00\n        /* \"contracts/fun_stuff.sol\":1726:1727  0 */\n      dup1\n        /* \"contracts/fun_stuff.sol\":1717:1727  uint i = 0 */\n      swap1\n      pop\n        /* \"contracts/fun_stuff.sol\":1712:1922  for (uint i = 0; i < memberCount; i++) {\r... */\n    tag_52:\n        /* \"contracts/fun_stuff.sol\":1733:1744  memberCount */\n      sload(0x01)\n        /* \"contracts/fun_stuff.sol\":1729:1730  i */\n      dup2\n        /* \"contracts/fun_stuff.sol\":1729:1744  i < memberCount */\n      lt\n        /* \"contracts/fun_stuff.sol\":1712:1922  for (uint i = 0; i < memberCount; i++) {\r... */\n      iszero\n      tag_53\n      jumpi\n        /* \"contracts/fun_stuff.sol\":1766:1787  Member storage member */\n      0x00\n        /* \"contracts/fun_stuff.sol\":1790:1797  members */\n      dup1\n        /* \"contracts/fun_stuff.sol\":1790:1800  members[i] */\n      0x00\n        /* \"contracts/fun_stuff.sol\":1798:1799  i */\n      dup4\n        /* \"contracts/fun_stuff.sol\":1790:1800  members[i] */\n      dup2\n      mstore\n      0x20\n      add\n      swap1\n      dup2\n      mstore\n      0x20\n      add\n      0x00\n      keccak256\n        /* \"contracts/fun_stuff.sol\":1766:1800  Member storage member = members[i] */\n      swap1\n      pop\n        /* \"contracts/fun_stuff.sol\":1823:1829  member */\n      dup1\n        /* \"contracts/fun_stuff.sol\":1823:1832  member.id */\n      0x00\n      add\n      sload\n        /* \"contracts/fun_stuff.sol\":1815:1817  id */\n      dup6\n        /* \"contracts/fun_stuff.sol\":1818:1819  i */\n      dup4\n        /* \"contracts/fun_stuff.sol\":1815:1820  id[i] */\n      dup2\n      mload\n      dup2\n      lt\n      tag_55\n      jumpi\n      invalid\n    tag_55:\n      0x20\n      mul\n      0x20\n      add\n      add\n        /* \"contracts/fun_stuff.sol\":1815:1832  id[i] = member.id */\n      dup2\n      dup2\n      mstore\n      pop\n      pop\n        /* \"contracts/fun_stuff.sol\":1857:1863  member */\n      dup1\n        /* \"contracts/fun_stuff.sol\":1857:1868  member.name */\n      0x01\n      add\n        /* \"contracts/fun_stuff.sol\":1847:1868  name[i] = member.name */\n      dup1\n      sload\n      0x01\n      dup2\n      0x01\n      and\n      iszero\n      0x0100\n      mul\n      sub\n      and\n      0x02\n      swap1\n      div\n      dup1\n      0x1f\n      add\n      0x20\n      dup1\n      swap2\n      div\n      mul\n      0x20\n      add\n      mload(0x40)\n      swap1\n      dup2\n      add\n      0x40\n      mstore\n      dup1\n      swap3\n      swap2\n      swap1\n      dup2\n      dup2\n      mstore\n      0x20\n      add\n      dup3\n      dup1\n      sload\n      0x01\n      dup2\n      0x01\n      and\n      iszero\n      0x0100\n      mul\n      sub\n      and\n      0x02\n      swap1\n      div\n      dup1\n      iszero\n      tag_56\n      jumpi\n      dup1\n      0x1f\n      lt\n      tag_57\n      jumpi\n      0x0100\n      dup1\n      dup4\n      sload\n      div\n      mul\n      dup4\n      mstore\n      swap2\n      0x20\n      add\n      swap2\n      jump(tag_56)\n    tag_57:\n      dup3\n      add\n      swap2\n      swap1\n      0x00\n      mstore\n      keccak256(0x00, 0x20)\n      swap1\n    tag_58:\n      dup2\n      sload\n      dup2\n      mstore\n      swap1\n      0x01\n      add\n      swap1\n      0x20\n      add\n      dup1\n      dup4\n      gt\n      tag_58\n      jumpi\n      dup3\n      swap1\n      sub\n      0x1f\n      and\n      dup3\n      add\n      swap2\n    tag_56:\n      pop\n      pop\n      pop\n      pop\n      pop\n        /* \"contracts/fun_stuff.sol\":1847:1851  name */\n      dup5\n        /* \"contracts/fun_stuff.sol\":1852:1853  i */\n      dup4\n        /* \"contracts/fun_stuff.sol\":1847:1854  name[i] */\n      dup2\n      mload\n      dup2\n      lt\n      tag_59\n      jumpi\n      invalid\n    tag_59:\n      0x20\n      mul\n      0x20\n      add\n      add\n        /* \"contracts/fun_stuff.sol\":1847:1868  name[i] = member.name */\n      dup2\n      swap1\n      mstore\n      pop\n        /* \"contracts/fun_stuff.sol\":1896:1902  member */\n      dup1\n        /* \"contracts/fun_stuff.sol\":1896:1910  member.isVoted */\n      0x02\n      add\n      0x00\n      swap1\n      sload\n      swap1\n      0x0100\n      exp\n      swap1\n      div\n      0xff\n      and\n        /* \"contracts/fun_stuff.sol\":1883:1890  isVoted */\n      dup4\n        /* \"contracts/fun_stuff.sol\":1891:1892  i */\n      dup4\n        /* \"contracts/fun_stuff.sol\":1883:1893  isVoted[i] */\n      dup2\n      mload\n      dup2\n      lt\n      tag_60\n      jumpi\n      invalid\n    tag_60:\n      0x20\n      mul\n      0x20\n      add\n      add\n        /* \"contracts/fun_stuff.sol\":1883:1910  isVoted[i] = member.isVoted */\n      swap1\n      iszero\n      iszero\n      swap1\n      dup2\n      iszero\n      iszero\n      dup2\n      mstore\n      pop\n      pop\n        /* \"contracts/fun_stuff.sol\":1712:1922  for (uint i = 0; i < memberCount; i++) {\r... */\n      pop\n        /* \"contracts/fun_stuff.sol\":1746:1749  i++ */\n      dup1\n      dup1\n      0x01\n      add\n      swap2\n      pop\n      pop\n        /* \"contracts/fun_stuff.sol\":1712:1922  for (uint i = 0; i < memberCount; i++) {\r... */\n      jump(tag_52)\n    tag_53:\n      pop\n        /* \"contracts/fun_stuff.sol\":1940:1942  id */\n      dup3\n        /* \"contracts/fun_stuff.sol\":1944:1948  name */\n      dup3\n        /* \"contracts/fun_stuff.sol\":1950:1957  isVoted */\n      dup3\n        /* \"contracts/fun_stuff.sol\":1932:1958  return (id, name, isVoted) */\n      swap6\n      pop\n      swap6\n      pop\n      swap6\n      pop\n      pop\n      pop\n      pop\n        /* \"contracts/fun_stuff.sol\":1425:1966  function getMemberValue() public view returns(uint[] memory, string[] memory, bool[] memory) {\r... */\n      swap1\n      swap2\n      swap3\n      jump\t// out\n        /* \"contracts/fun_stuff.sol\":722:884  function addMember(string memory _name, bool _isVote) public {\r... */\n    tag_29:\n        /* \"contracts/fun_stuff.sol\":817:852  Member(memberCount, _name, _isVote) */\n      mload(0x40)\n      dup1\n      0x60\n      add\n      0x40\n      mstore\n      dup1\n        /* \"contracts/fun_stuff.sol\":824:835  memberCount */\n      sload(0x01)\n        /* \"contracts/fun_stuff.sol\":817:852  Member(memberCount, _name, _isVote) */\n      dup2\n      mstore\n      0x20\n      add\n        /* \"contracts/fun_stuff.sol\":837:842  _name */\n      dup4\n        /* \"contracts/fun_stuff.sol\":817:852  Member(memberCount, _name, _isVote) */\n      dup2\n      mstore\n      0x20\n      add\n        /* \"contracts/fun_stuff.sol\":844:851  _isVote */\n      dup3\n        /* \"contracts/fun_stuff.sol\":817:852  Member(memberCount, _name, _isVote) */\n      iszero\n      iszero\n      dup2\n      mstore\n      pop\n        /* \"contracts/fun_stuff.sol\":794:801  members */\n      0x00\n        /* \"contracts/fun_stuff.sol\":794:814  members[memberCount] */\n      dup1\n        /* \"contracts/fun_stuff.sol\":802:813  memberCount */\n      sload(0x01)\n        /* \"contracts/fun_stuff.sol\":794:814  members[memberCount] */\n      dup2\n      mstore\n      0x20\n      add\n      swap1\n      dup2\n      mstore\n      0x20\n      add\n      0x00\n      keccak256\n        /* \"contracts/fun_stuff.sol\":794:852  members[memberCount] = Member(memberCount, _name, _isVote) */\n      0x00\n      dup3\n      add\n      mload\n      dup2\n      0x00\n      add\n      sstore\n      0x20\n      dup3\n      add\n      mload\n      dup2\n      0x01\n      add\n      swap1\n      dup1\n      mload\n      swap1\n      0x20\n      add\n      swap1\n      tag_62\n      swap3\n      swap2\n      swap1\n      tag_63\n      jump\t// in\n    tag_62:\n      pop\n      0x40\n      dup3\n      add\n      mload\n      dup2\n      0x02\n      add\n      exp(0x0100, 0x00)\n      dup2\n      sload\n      dup2\n      0xff\n      mul\n      not\n      and\n      swap1\n      dup4\n      iszero\n      iszero\n      mul\n      or\n      swap1\n      sstore\n      pop\n      swap1\n      pop\n      pop\n        /* \"contracts/fun_stuff.sol\":863:874  memberCount */\n      0x01\n      0x00\n        /* \"contracts/fun_stuff.sol\":863:876  memberCount++ */\n      dup2\n      sload\n      dup1\n      swap3\n      swap2\n      swap1\n      0x01\n      add\n      swap2\n      swap1\n      pop\n      sstore\n      pop\n        /* \"contracts/fun_stuff.sol\":722:884  function addMember(string memory _name, bool _isVote) public {\r... */\n      pop\n      pop\n      jump\t// out\n        /* \"contracts/fun_stuff.sol\":1009:1205  function getCountOfVoted() public {\r... */\n    tag_31:\n        /* \"contracts/fun_stuff.sol\":1059:1065  uint i */\n      0x00\n        /* \"contracts/fun_stuff.sol\":1068:1069  0 */\n      dup1\n        /* \"contracts/fun_stuff.sol\":1059:1069  uint i = 0 */\n      swap1\n      pop\n        /* \"contracts/fun_stuff.sol\":1054:1198  for (uint i = 0; i < memberCount; i++) {\r... */\n    tag_65:\n        /* \"contracts/fun_stuff.sol\":1075:1086  memberCount */\n      sload(0x01)\n        /* \"contracts/fun_stuff.sol\":1071:1072  i */\n      dup2\n        /* \"contracts/fun_stuff.sol\":1071:1086  i < memberCount */\n      lt\n        /* \"contracts/fun_stuff.sol\":1054:1198  for (uint i = 0; i < memberCount; i++) {\r... */\n      iszero\n      tag_66\n      jumpi\n        /* \"contracts/fun_stuff.sol\":1134:1138  true */\n      0x01\n        /* \"contracts/fun_stuff.sol\":1112:1138  members[i].isVoted == true */\n      iszero\n      iszero\n        /* \"contracts/fun_stuff.sol\":1112:1119  members */\n      0x00\n        /* \"contracts/fun_stuff.sol\":1112:1122  members[i] */\n      dup1\n        /* \"contracts/fun_stuff.sol\":1120:1121  i */\n      dup4\n        /* \"contracts/fun_stuff.sol\":1112:1122  members[i] */\n      dup2\n      mstore\n      0x20\n      add\n      swap1\n      dup2\n      mstore\n      0x20\n      add\n      0x00\n      keccak256\n        /* \"contracts/fun_stuff.sol\":1112:1130  members[i].isVoted */\n      0x02\n      add\n      0x00\n      swap1\n      sload\n      swap1\n      0x0100\n      exp\n      swap1\n      div\n      0xff\n      and\n        /* \"contracts/fun_stuff.sol\":1112:1138  members[i].isVoted == true */\n      iszero\n      iszero\n      eq\n        /* \"contracts/fun_stuff.sol\":1108:1187  if (members[i].isVoted == true) {\r... */\n      iszero\n      tag_68\n      jumpi\n        /* \"contracts/fun_stuff.sol\":1159:1169  votedCount */\n      0x02\n      0x00\n        /* \"contracts/fun_stuff.sol\":1159:1171  votedCount++ */\n      dup2\n      sload\n      dup1\n      swap3\n      swap2\n      swap1\n      0x01\n      add\n      swap2\n      swap1\n      pop\n      sstore\n      pop\n        /* \"contracts/fun_stuff.sol\":1108:1187  if (members[i].isVoted == true) {\r... */\n    tag_68:\n        /* \"contracts/fun_stuff.sol\":1088:1091  i++ */\n      dup1\n      dup1\n      0x01\n      add\n      swap2\n      pop\n      pop\n        /* \"contracts/fun_stuff.sol\":1054:1198  for (uint i = 0; i < memberCount; i++) {\r... */\n      jump(tag_65)\n    tag_66:\n      pop\n        /* \"contracts/fun_stuff.sol\":1009:1205  function getCountOfVoted() public {\r... */\n      jump\t// out\n        /* \"contracts/fun_stuff.sol\":892:1001  function setVote(uint _memberId, bool _isVote) public {\r... */\n    tag_35:\n        /* \"contracts/fun_stuff.sol\":986:993  _isVote */\n      dup1\n        /* \"contracts/fun_stuff.sol\":957:964  members */\n      0x00\n        /* \"contracts/fun_stuff.sol\":957:975  members[_memberId] */\n      dup1\n        /* \"contracts/fun_stuff.sol\":965:974  _memberId */\n      dup5\n        /* \"contracts/fun_stuff.sol\":957:975  members[_memberId] */\n      dup2\n      mstore\n      0x20\n      add\n      swap1\n      dup2\n      mstore\n      0x20\n      add\n      0x00\n      keccak256\n        /* \"contracts/fun_stuff.sol\":957:983  members[_memberId].isVoted */\n      0x02\n      add\n      0x00\n        /* \"contracts/fun_stuff.sol\":957:993  members[_memberId].isVoted = _isVote */\n      0x0100\n      exp\n      dup2\n      sload\n      dup2\n      0xff\n      mul\n      not\n      and\n      swap1\n      dup4\n      iszero\n      iszero\n      mul\n      or\n      swap1\n      sstore\n      pop\n        /* \"contracts/fun_stuff.sol\":892:1001  function setVote(uint _memberId, bool _isVote) public {\r... */\n      pop\n      pop\n      jump\t// out\n        /* \"contracts/fun_stuff.sol\":338:360  uint public votedCount */\n    tag_37:\n      sload(0x02)\n      dup2\n      jump\t// out\n        /* \"contracts/fun_stuff.sol\":1255:1377  function getMemberStructure(uint _memberId) public view returns(Member memory){\r... */\n    tag_41:\n        /* \"contracts/fun_stuff.sol\":1319:1332  Member memory */\n      tag_70\n      tag_71\n      jump\t// in\n    tag_70:\n        /* \"contracts/fun_stuff.sol\":1351:1358  members */\n      0x00\n        /* \"contracts/fun_stuff.sol\":1351:1369  members[_memberId] */\n      dup1\n        /* \"contracts/fun_stuff.sol\":1359:1368  _memberId */\n      dup4\n        /* \"contracts/fun_stuff.sol\":1351:1369  members[_memberId] */\n      dup2\n      mstore\n      0x20\n      add\n      swap1\n      dup2\n      mstore\n      0x20\n      add\n      0x00\n      keccak256\n        /* \"contracts/fun_stuff.sol\":1344:1369  return members[_memberId] */\n      mload(0x40)\n      dup1\n      0x60\n      add\n      0x40\n      mstore\n      swap1\n      dup2\n      0x00\n      dup3\n      add\n      sload\n      dup2\n      mstore\n      0x20\n      add\n      0x01\n      dup3\n      add\n      dup1\n      sload\n      0x01\n      dup2\n      0x01\n      and\n      iszero\n      0x0100\n      mul\n      sub\n      and\n      0x02\n      swap1\n      div\n      dup1\n      0x1f\n      add\n      0x20\n      dup1\n      swap2\n      div\n      mul\n      0x20\n      add\n      mload(0x40)\n      swap1\n      dup2\n      add\n      0x40\n      mstore\n      dup1\n      swap3\n      swap2\n      swap1\n      dup2\n      dup2\n      mstore\n      0x20\n      add\n      dup3\n      dup1\n      sload\n      0x01\n      dup2\n      0x01\n      and\n      iszero\n      0x0100\n      mul\n      sub\n      and\n      0x02\n      swap1\n      div\n      dup1\n      iszero\n      tag_73\n      jumpi\n      dup1\n      0x1f\n      lt\n      tag_74\n      jumpi\n      0x0100\n      dup1\n      dup4\n      sload\n      div\n      mul\n      dup4\n      mstore\n      swap2\n      0x20\n      add\n      swap2\n      jump(tag_73)\n    tag_74:\n      dup3\n      add\n      swap2\n      swap1\n      0x00\n      mstore\n      keccak256(0x00, 0x20)\n      swap1\n    tag_75:\n      dup2\n      sload\n      dup2\n      mstore\n      swap1\n      0x01\n      add\n      swap1\n      0x20\n      add\n      dup1\n      dup4\n      gt\n      tag_75\n      jumpi\n      dup3\n      swap1\n      sub\n      0x1f\n      and\n      dup3\n      add\n      swap2\n    tag_73:\n      pop\n      pop\n      pop\n      pop\n      pop\n      dup2\n      mstore\n      0x20\n      add\n      0x02\n      dup3\n      add\n      0x00\n      swap1\n      sload\n      swap1\n      0x0100\n      exp\n      swap1\n      div\n      0xff\n      and\n      iszero\n      iszero\n      iszero\n      iszero\n      dup2\n      mstore\n      pop\n      pop\n      swap1\n      pop\n        /* \"contracts/fun_stuff.sol\":1255:1377  function getMemberStructure(uint _memberId) public view returns(Member memory){\r... */\n      swap2\n      swap1\n      pop\n      jump\t// out\n        /* \"contracts/fun_stuff.sol\":95:1974  contract VoteSaving {\r... */\n    tag_63:\n      dup3\n      dup1\n      sload\n      0x01\n      dup2\n      0x01\n      and\n      iszero\n      0x0100\n      mul\n      sub\n      and\n      0x02\n      swap1\n      div\n      swap1\n      0x00\n      mstore\n      keccak256(0x00, 0x20)\n      swap1\n      0x1f\n      add\n      0x20\n      swap1\n      div\n      dup2\n      add\n      swap3\n      dup3\n      0x1f\n      lt\n      tag_77\n      jumpi\n      dup1\n      mload\n      not(0xff)\n      and\n      dup4\n      dup1\n      add\n      or\n      dup6\n      sstore\n      jump(tag_76)\n    tag_77:\n      dup3\n      dup1\n      add\n      0x01\n      add\n      dup6\n      sstore\n      dup3\n      iszero\n      tag_76\n      jumpi\n      swap2\n      dup3\n      add\n    tag_78:\n      dup3\n      dup2\n      gt\n      iszero\n      tag_79\n      jumpi\n      dup3\n      mload\n      dup3\n      sstore\n      swap2\n      0x20\n      add\n      swap2\n      swap1\n      0x01\n      add\n      swap1\n      jump(tag_78)\n    tag_79:\n    tag_76:\n      pop\n      swap1\n      pop\n      tag_80\n      swap2\n      swap1\n      tag_81\n      jump\t// in\n    tag_80:\n      pop\n      swap1\n      jump\t// out\n    tag_71:\n      mload(0x40)\n      dup1\n      0x60\n      add\n      0x40\n      mstore\n      dup1\n      0x00\n      dup2\n      mstore\n      0x20\n      add\n      0x60\n      dup2\n      mstore\n      0x20\n      add\n      iszero(iszero(0x00))\n      dup2\n      mstore\n      pop\n      swap1\n      jump\t// out\n    tag_81:\n      tag_82\n      swap2\n      swap1\n    tag_83:\n      dup1\n      dup3\n      gt\n      iszero\n      tag_84\n      jumpi\n      0x00\n      dup2\n      0x00\n      swap1\n      sstore\n      pop\n      0x01\n      add\n      jump(tag_83)\n    tag_84:\n      pop\n      swap1\n      jump\n    tag_82:\n      swap1\n      jump\t// out\n        /* \"--CODEGEN--\":5:129   */\n    tag_86:\n      0x00\n        /* \"--CODEGEN--\":82:88   */\n      dup2\n        /* \"--CODEGEN--\":69:89   */\n      calldataload\n        /* \"--CODEGEN--\":60:89   */\n      swap1\n      pop\n        /* \"--CODEGEN--\":94:124   */\n      tag_88\n        /* \"--CODEGEN--\":118:123   */\n      dup2\n        /* \"--CODEGEN--\":94:124   */\n      jump(tag_89)\n    tag_88:\n        /* \"--CODEGEN--\":54:129   */\n      swap3\n      swap2\n      pop\n      pop\n      jump\n        /* \"--CODEGEN--\":137:579   */\n    tag_90:\n      0x00\n        /* \"--CODEGEN--\":239:242   */\n      dup3\n        /* \"--CODEGEN--\":232:236   */\n      0x1f\n        /* \"--CODEGEN--\":224:230   */\n      dup4\n        /* \"--CODEGEN--\":220:237   */\n      add\n        /* \"--CODEGEN--\":216:243   */\n      slt\n        /* \"--CODEGEN--\":206:208   */\n      tag_92\n      jumpi\n        /* \"--CODEGEN--\":257:258   */\n      0x00\n        /* \"--CODEGEN--\":254:255   */\n      dup1\n        /* \"--CODEGEN--\":247:259   */\n      revert\n        /* \"--CODEGEN--\":206:208   */\n    tag_92:\n        /* \"--CODEGEN--\":294:300   */\n      dup2\n        /* \"--CODEGEN--\":281:301   */\n      calldataload\n        /* \"--CODEGEN--\":316:381   */\n      tag_93\n        /* \"--CODEGEN--\":331:380   */\n      tag_94\n        /* \"--CODEGEN--\":373:379   */\n      dup3\n        /* \"--CODEGEN--\":331:380   */\n      jump(tag_95)\n    tag_94:\n        /* \"--CODEGEN--\":316:381   */\n      jump(tag_96)\n    tag_93:\n        /* \"--CODEGEN--\":307:381   */\n      swap2\n      pop\n        /* \"--CODEGEN--\":401:407   */\n      dup1\n        /* \"--CODEGEN--\":394:399   */\n      dup3\n        /* \"--CODEGEN--\":387:408   */\n      mstore\n        /* \"--CODEGEN--\":437:441   */\n      0x20\n        /* \"--CODEGEN--\":429:435   */\n      dup4\n        /* \"--CODEGEN--\":425:442   */\n      add\n        /* \"--CODEGEN--\":470:474   */\n      0x20\n        /* \"--CODEGEN--\":463:468   */\n      dup4\n        /* \"--CODEGEN--\":459:475   */\n      add\n        /* \"--CODEGEN--\":505:508   */\n      dup6\n        /* \"--CODEGEN--\":496:502   */\n      dup4\n        /* \"--CODEGEN--\":491:494   */\n      dup4\n        /* \"--CODEGEN--\":487:503   */\n      add\n        /* \"--CODEGEN--\":484:509   */\n      gt\n        /* \"--CODEGEN--\":481:483   */\n      iszero\n      tag_97\n      jumpi\n        /* \"--CODEGEN--\":522:523   */\n      0x00\n        /* \"--CODEGEN--\":519:520   */\n      dup1\n        /* \"--CODEGEN--\":512:524   */\n      revert\n        /* \"--CODEGEN--\":481:483   */\n    tag_97:\n        /* \"--CODEGEN--\":532:573   */\n      tag_98\n        /* \"--CODEGEN--\":566:572   */\n      dup4\n        /* \"--CODEGEN--\":561:564   */\n      dup3\n        /* \"--CODEGEN--\":556:559   */\n      dup5\n        /* \"--CODEGEN--\":532:573   */\n      jump(tag_99)\n    tag_98:\n        /* \"--CODEGEN--\":199:579   */\n      pop\n      pop\n      pop\n      swap3\n      swap2\n      pop\n      pop\n      jump\n        /* \"--CODEGEN--\":587:717   */\n    tag_100:\n      0x00\n        /* \"--CODEGEN--\":667:673   */\n      dup2\n        /* \"--CODEGEN--\":654:674   */\n      calldataload\n        /* \"--CODEGEN--\":645:674   */\n      swap1\n      pop\n        /* \"--CODEGEN--\":679:712   */\n      tag_102\n        /* \"--CODEGEN--\":706:711   */\n      dup2\n        /* \"--CODEGEN--\":679:712   */\n      jump(tag_103)\n    tag_102:\n        /* \"--CODEGEN--\":639:717   */\n      swap3\n      swap2\n      pop\n      pop\n      jump\n        /* \"--CODEGEN--\":724:1190   */\n    tag_28:\n      0x00\n      dup1\n        /* \"--CODEGEN--\":852:854   */\n      0x40\n        /* \"--CODEGEN--\":840:849   */\n      dup4\n        /* \"--CODEGEN--\":831:838   */\n      dup6\n        /* \"--CODEGEN--\":827:850   */\n      sub\n        /* \"--CODEGEN--\":823:855   */\n      slt\n        /* \"--CODEGEN--\":820:822   */\n      iszero\n      tag_105\n      jumpi\n        /* \"--CODEGEN--\":868:869   */\n      0x00\n        /* \"--CODEGEN--\":865:866   */\n      dup1\n        /* \"--CODEGEN--\":858:870   */\n      revert\n        /* \"--CODEGEN--\":820:822   */\n    tag_105:\n        /* \"--CODEGEN--\":931:932   */\n      0x00\n        /* \"--CODEGEN--\":920:929   */\n      dup4\n        /* \"--CODEGEN--\":916:933   */\n      add\n        /* \"--CODEGEN--\":903:934   */\n      calldataload\n        /* \"--CODEGEN--\":954:972   */\n      0xffffffffffffffff\n        /* \"--CODEGEN--\":946:952   */\n      dup2\n        /* \"--CODEGEN--\":943:973   */\n      gt\n        /* \"--CODEGEN--\":940:942   */\n      iszero\n      tag_106\n      jumpi\n        /* \"--CODEGEN--\":986:987   */\n      0x00\n        /* \"--CODEGEN--\":983:984   */\n      dup1\n        /* \"--CODEGEN--\":976:988   */\n      revert\n        /* \"--CODEGEN--\":940:942   */\n    tag_106:\n        /* \"--CODEGEN--\":1006:1069   */\n      tag_107\n        /* \"--CODEGEN--\":1061:1068   */\n      dup6\n        /* \"--CODEGEN--\":1052:1058   */\n      dup3\n        /* \"--CODEGEN--\":1041:1050   */\n      dup7\n        /* \"--CODEGEN--\":1037:1059   */\n      add\n        /* \"--CODEGEN--\":1006:1069   */\n      jump(tag_90)\n    tag_107:\n        /* \"--CODEGEN--\":996:1069   */\n      swap3\n      pop\n        /* \"--CODEGEN--\":882:1075   */\n      pop\n        /* \"--CODEGEN--\":1106:1108   */\n      0x20\n        /* \"--CODEGEN--\":1124:1174   */\n      tag_108\n        /* \"--CODEGEN--\":1166:1173   */\n      dup6\n        /* \"--CODEGEN--\":1157:1163   */\n      dup3\n        /* \"--CODEGEN--\":1146:1155   */\n      dup7\n        /* \"--CODEGEN--\":1142:1164   */\n      add\n        /* \"--CODEGEN--\":1124:1174   */\n      jump(tag_86)\n    tag_108:\n        /* \"--CODEGEN--\":1114:1174   */\n      swap2\n      pop\n        /* \"--CODEGEN--\":1085:1180   */\n      pop\n        /* \"--CODEGEN--\":814:1190   */\n      swap3\n      pop\n      swap3\n      swap1\n      pop\n      jump\n        /* \"--CODEGEN--\":1197:1438   */\n    tag_18:\n      0x00\n        /* \"--CODEGEN--\":1301:1303   */\n      0x20\n        /* \"--CODEGEN--\":1289:1298   */\n      dup3\n        /* \"--CODEGEN--\":1280:1287   */\n      dup5\n        /* \"--CODEGEN--\":1276:1299   */\n      sub\n        /* \"--CODEGEN--\":1272:1304   */\n      slt\n        /* \"--CODEGEN--\":1269:1271   */\n      iszero\n      tag_110\n      jumpi\n        /* \"--CODEGEN--\":1317:1318   */\n      0x00\n        /* \"--CODEGEN--\":1314:1315   */\n      dup1\n        /* \"--CODEGEN--\":1307:1319   */\n      revert\n        /* \"--CODEGEN--\":1269:1271   */\n    tag_110:\n        /* \"--CODEGEN--\":1352:1353   */\n      0x00\n        /* \"--CODEGEN--\":1369:1422   */\n      tag_111\n        /* \"--CODEGEN--\":1414:1421   */\n      dup5\n        /* \"--CODEGEN--\":1405:1411   */\n      dup3\n        /* \"--CODEGEN--\":1394:1403   */\n      dup6\n        /* \"--CODEGEN--\":1390:1412   */\n      add\n        /* \"--CODEGEN--\":1369:1422   */\n      jump(tag_100)\n    tag_111:\n        /* \"--CODEGEN--\":1359:1422   */\n      swap2\n      pop\n        /* \"--CODEGEN--\":1331:1428   */\n      pop\n        /* \"--CODEGEN--\":1263:1438   */\n      swap3\n      swap2\n      pop\n      pop\n      jump\n        /* \"--CODEGEN--\":1445:1805   */\n    tag_34:\n      0x00\n      dup1\n        /* \"--CODEGEN--\":1563:1565   */\n      0x40\n        /* \"--CODEGEN--\":1551:1560   */\n      dup4\n        /* \"--CODEGEN--\":1542:1549   */\n      dup6\n        /* \"--CODEGEN--\":1538:1561   */\n      sub\n        /* \"--CODEGEN--\":1534:1566   */\n      slt\n        /* \"--CODEGEN--\":1531:1533   */\n      iszero\n      tag_113\n      jumpi\n        /* \"--CODEGEN--\":1579:1580   */\n      0x00\n        /* \"--CODEGEN--\":1576:1577   */\n      dup1\n        /* \"--CODEGEN--\":1569:1581   */\n      revert\n        /* \"--CODEGEN--\":1531:1533   */\n    tag_113:\n        /* \"--CODEGEN--\":1614:1615   */\n      0x00\n        /* \"--CODEGEN--\":1631:1684   */\n      tag_114\n        /* \"--CODEGEN--\":1676:1683   */\n      dup6\n        /* \"--CODEGEN--\":1667:1673   */\n      dup3\n        /* \"--CODEGEN--\":1656:1665   */\n      dup7\n        /* \"--CODEGEN--\":1652:1674   */\n      add\n        /* \"--CODEGEN--\":1631:1684   */\n      jump(tag_100)\n    tag_114:\n        /* \"--CODEGEN--\":1621:1684   */\n      swap3\n      pop\n        /* \"--CODEGEN--\":1593:1690   */\n      pop\n        /* \"--CODEGEN--\":1721:1723   */\n      0x20\n        /* \"--CODEGEN--\":1739:1789   */\n      tag_115\n        /* \"--CODEGEN--\":1781:1788   */\n      dup6\n        /* \"--CODEGEN--\":1772:1778   */\n      dup3\n        /* \"--CODEGEN--\":1761:1770   */\n      dup7\n        /* \"--CODEGEN--\":1757:1779   */\n      add\n        /* \"--CODEGEN--\":1739:1789   */\n      jump(tag_86)\n    tag_115:\n        /* \"--CODEGEN--\":1729:1789   */\n      swap2\n      pop\n        /* \"--CODEGEN--\":1700:1795   */\n      pop\n        /* \"--CODEGEN--\":1525:1805   */\n      swap3\n      pop\n      swap3\n      swap1\n      pop\n      jump\n        /* \"--CODEGEN--\":1813:1974   */\n    tag_116:\n      0x00\n        /* \"--CODEGEN--\":1894:1934   */\n      tag_118\n        /* \"--CODEGEN--\":1930:1933   */\n      dup4\n        /* \"--CODEGEN--\":1922:1928   */\n      dup4\n        /* \"--CODEGEN--\":1894:1934   */\n      jump(tag_119)\n    tag_118:\n        /* \"--CODEGEN--\":1963:1967   */\n      0x20\n        /* \"--CODEGEN--\":1958:1961   */\n      dup4\n        /* \"--CODEGEN--\":1954:1968   */\n      add\n        /* \"--CODEGEN--\":1940:1968   */\n      swap1\n      pop\n        /* \"--CODEGEN--\":1887:1974   */\n      swap3\n      swap2\n      pop\n      pop\n      jump\n        /* \"--CODEGEN--\":1983:2164   */\n    tag_120:\n      0x00\n        /* \"--CODEGEN--\":2096:2158   */\n      tag_122\n        /* \"--CODEGEN--\":2154:2157   */\n      dup4\n        /* \"--CODEGEN--\":2146:2152   */\n      dup4\n        /* \"--CODEGEN--\":2096:2158   */\n      jump(tag_123)\n    tag_122:\n        /* \"--CODEGEN--\":2082:2158   */\n      swap1\n      pop\n        /* \"--CODEGEN--\":2075:2164   */\n      swap3\n      swap2\n      pop\n      pop\n      jump\n        /* \"--CODEGEN--\":2173:2346   */\n    tag_124:\n      0x00\n        /* \"--CODEGEN--\":2260:2306   */\n      tag_126\n        /* \"--CODEGEN--\":2302:2305   */\n      dup4\n        /* \"--CODEGEN--\":2294:2300   */\n      dup4\n        /* \"--CODEGEN--\":2260:2306   */\n      jump(tag_127)\n    tag_126:\n        /* \"--CODEGEN--\":2335:2339   */\n      0x20\n        /* \"--CODEGEN--\":2330:2333   */\n      dup4\n        /* \"--CODEGEN--\":2326:2340   */\n      add\n        /* \"--CODEGEN--\":2312:2340   */\n      swap1\n      pop\n        /* \"--CODEGEN--\":2253:2346   */\n      swap3\n      swap2\n      pop\n      pop\n      jump\n        /* \"--CODEGEN--\":2379:3045   */\n    tag_128:\n      0x00\n        /* \"--CODEGEN--\":2518:2569   */\n      tag_130\n        /* \"--CODEGEN--\":2563:2568   */\n      dup3\n        /* \"--CODEGEN--\":2518:2569   */\n      jump(tag_131)\n    tag_130:\n        /* \"--CODEGEN--\":2582:2665   */\n      tag_132\n        /* \"--CODEGEN--\":2658:2664   */\n      dup2\n        /* \"--CODEGEN--\":2653:2656   */\n      dup6\n        /* \"--CODEGEN--\":2582:2665   */\n      jump(tag_133)\n    tag_132:\n        /* \"--CODEGEN--\":2575:2665   */\n      swap4\n      pop\n        /* \"--CODEGEN--\":2686:2739   */\n      tag_134\n        /* \"--CODEGEN--\":2733:2738   */\n      dup4\n        /* \"--CODEGEN--\":2686:2739   */\n      jump(tag_135)\n    tag_134:\n        /* \"--CODEGEN--\":2759:2766   */\n      dup1\n        /* \"--CODEGEN--\":2787:2788   */\n      0x00\n        /* \"--CODEGEN--\":2772:3023   */\n    tag_136:\n        /* \"--CODEGEN--\":2797:2803   */\n      dup4\n        /* \"--CODEGEN--\":2794:2795   */\n      dup2\n        /* \"--CODEGEN--\":2791:2804   */\n      lt\n        /* \"--CODEGEN--\":2772:3023   */\n      iszero\n      tag_138\n      jumpi\n        /* \"--CODEGEN--\":2864:2870   */\n      dup2\n        /* \"--CODEGEN--\":2858:2871   */\n      mload\n        /* \"--CODEGEN--\":2885:2942   */\n      tag_139\n        /* \"--CODEGEN--\":2938:2941   */\n      dup9\n        /* \"--CODEGEN--\":2923:2936   */\n      dup3\n        /* \"--CODEGEN--\":2885:2942   */\n      jump(tag_116)\n    tag_139:\n        /* \"--CODEGEN--\":2878:2942   */\n      swap8\n      pop\n        /* \"--CODEGEN--\":2959:3016   */\n      tag_140\n        /* \"--CODEGEN--\":3009:3015   */\n      dup4\n        /* \"--CODEGEN--\":2959:3016   */\n      jump(tag_141)\n    tag_140:\n        /* \"--CODEGEN--\":2949:3016   */\n      swap3\n      pop\n        /* \"--CODEGEN--\":2829:3023   */\n      pop\n        /* \"--CODEGEN--\":2819:2820   */\n      0x01\n        /* \"--CODEGEN--\":2816:2817   */\n      dup2\n        /* \"--CODEGEN--\":2812:2821   */\n      add\n        /* \"--CODEGEN--\":2807:2821   */\n      swap1\n      pop\n        /* \"--CODEGEN--\":2772:3023   */\n      jump(tag_136)\n    tag_138:\n        /* \"--CODEGEN--\":2776:2790   */\n      pop\n        /* \"--CODEGEN--\":3036:3039   */\n      dup6\n        /* \"--CODEGEN--\":3029:3039   */\n      swap4\n      pop\n        /* \"--CODEGEN--\":2497:3045   */\n      pop\n      pop\n      pop\n      swap3\n      swap2\n      pop\n      pop\n      jump\n        /* \"--CODEGEN--\":3082:3978   */\n    tag_142:\n      0x00\n        /* \"--CODEGEN--\":3239:3299   */\n      tag_144\n        /* \"--CODEGEN--\":3293:3298   */\n      dup3\n        /* \"--CODEGEN--\":3239:3299   */\n      jump(tag_145)\n    tag_144:\n        /* \"--CODEGEN--\":3312:3404   */\n      tag_146\n        /* \"--CODEGEN--\":3397:3403   */\n      dup2\n        /* \"--CODEGEN--\":3392:3395   */\n      dup6\n        /* \"--CODEGEN--\":3312:3404   */\n      jump(tag_147)\n    tag_146:\n        /* \"--CODEGEN--\":3305:3404   */\n      swap4\n      pop\n        /* \"--CODEGEN--\":3427:3430   */\n      dup4\n        /* \"--CODEGEN--\":3469:3473   */\n      0x20\n        /* \"--CODEGEN--\":3461:3467   */\n      dup3\n        /* \"--CODEGEN--\":3457:3474   */\n      mul\n        /* \"--CODEGEN--\":3452:3455   */\n      dup6\n        /* \"--CODEGEN--\":3448:3475   */\n      add\n        /* \"--CODEGEN--\":3496:3558   */\n      tag_148\n        /* \"--CODEGEN--\":3552:3557   */\n      dup6\n        /* \"--CODEGEN--\":3496:3558   */\n      jump(tag_149)\n    tag_148:\n        /* \"--CODEGEN--\":3578:3585   */\n      dup1\n        /* \"--CODEGEN--\":3606:3607   */\n      0x00\n        /* \"--CODEGEN--\":3591:3939   */\n    tag_150:\n        /* \"--CODEGEN--\":3616:3622   */\n      dup6\n        /* \"--CODEGEN--\":3613:3614   */\n      dup2\n        /* \"--CODEGEN--\":3610:3623   */\n      lt\n        /* \"--CODEGEN--\":3591:3939   */\n      iszero\n      tag_152\n      jumpi\n        /* \"--CODEGEN--\":3678:3687   */\n      dup5\n        /* \"--CODEGEN--\":3672:3676   */\n      dup5\n        /* \"--CODEGEN--\":3668:3688   */\n      sub\n        /* \"--CODEGEN--\":3663:3666   */\n      dup10\n        /* \"--CODEGEN--\":3656:3689   */\n      mstore\n        /* \"--CODEGEN--\":3723:3729   */\n      dup2\n        /* \"--CODEGEN--\":3717:3730   */\n      mload\n        /* \"--CODEGEN--\":3745:3821   */\n      tag_153\n        /* \"--CODEGEN--\":3816:3820   */\n      dup6\n        /* \"--CODEGEN--\":3801:3814   */\n      dup3\n        /* \"--CODEGEN--\":3745:3821   */\n      jump(tag_120)\n    tag_153:\n        /* \"--CODEGEN--\":3737:3821   */\n      swap5\n      pop\n        /* \"--CODEGEN--\":3838:3904   */\n      tag_154\n        /* \"--CODEGEN--\":3897:3903   */\n      dup4\n        /* \"--CODEGEN--\":3838:3904   */\n      jump(tag_155)\n    tag_154:\n        /* \"--CODEGEN--\":3828:3904   */\n      swap3\n      pop\n        /* \"--CODEGEN--\":3927:3931   */\n      0x20\n        /* \"--CODEGEN--\":3922:3925   */\n      dup11\n        /* \"--CODEGEN--\":3918:3932   */\n      add\n        /* \"--CODEGEN--\":3911:3932   */\n      swap10\n      pop\n        /* \"--CODEGEN--\":3648:3939   */\n      pop\n        /* \"--CODEGEN--\":3638:3639   */\n      0x01\n        /* \"--CODEGEN--\":3635:3636   */\n      dup2\n        /* \"--CODEGEN--\":3631:3640   */\n      add\n        /* \"--CODEGEN--\":3626:3640   */\n      swap1\n      pop\n        /* \"--CODEGEN--\":3591:3939   */\n      jump(tag_150)\n    tag_152:\n        /* \"--CODEGEN--\":3595:3609   */\n      pop\n        /* \"--CODEGEN--\":3952:3956   */\n      dup3\n        /* \"--CODEGEN--\":3945:3956   */\n      swap8\n      pop\n        /* \"--CODEGEN--\":3969:3972   */\n      dup8\n        /* \"--CODEGEN--\":3962:3972   */\n      swap6\n      pop\n        /* \"--CODEGEN--\":3218:3978   */\n      pop\n      pop\n      pop\n      pop\n      pop\n      swap3\n      swap2\n      pop\n      pop\n      jump\n        /* \"--CODEGEN--\":4017:4707   */\n    tag_156:\n      0x00\n        /* \"--CODEGEN--\":4162:4216   */\n      tag_158\n        /* \"--CODEGEN--\":4210:4215   */\n      dup3\n        /* \"--CODEGEN--\":4162:4216   */\n      jump(tag_159)\n    tag_158:\n        /* \"--CODEGEN--\":4229:4315   */\n      tag_160\n        /* \"--CODEGEN--\":4308:4314   */\n      dup2\n        /* \"--CODEGEN--\":4303:4306   */\n      dup6\n        /* \"--CODEGEN--\":4229:4315   */\n      jump(tag_161)\n    tag_160:\n        /* \"--CODEGEN--\":4222:4315   */\n      swap4\n      pop\n        /* \"--CODEGEN--\":4336:4392   */\n      tag_162\n        /* \"--CODEGEN--\":4386:4391   */\n      dup4\n        /* \"--CODEGEN--\":4336:4392   */\n      jump(tag_163)\n    tag_162:\n        /* \"--CODEGEN--\":4412:4419   */\n      dup1\n        /* \"--CODEGEN--\":4440:4441   */\n      0x00\n        /* \"--CODEGEN--\":4425:4685   */\n    tag_164:\n        /* \"--CODEGEN--\":4450:4456   */\n      dup4\n        /* \"--CODEGEN--\":4447:4448   */\n      dup2\n        /* \"--CODEGEN--\":4444:4457   */\n      lt\n        /* \"--CODEGEN--\":4425:4685   */\n      iszero\n      tag_166\n      jumpi\n        /* \"--CODEGEN--\":4517:4523   */\n      dup2\n        /* \"--CODEGEN--\":4511:4524   */\n      mload\n        /* \"--CODEGEN--\":4538:4601   */\n      tag_167\n        /* \"--CODEGEN--\":4597:4600   */\n      dup9\n        /* \"--CODEGEN--\":4582:4595   */\n      dup3\n        /* \"--CODEGEN--\":4538:4601   */\n      jump(tag_124)\n    tag_167:\n        /* \"--CODEGEN--\":4531:4601   */\n      swap8\n      pop\n        /* \"--CODEGEN--\":4618:4678   */\n      tag_168\n        /* \"--CODEGEN--\":4671:4677   */\n      dup4\n        /* \"--CODEGEN--\":4618:4678   */\n      jump(tag_169)\n    tag_168:\n        /* \"--CODEGEN--\":4608:4678   */\n      swap3\n      pop\n        /* \"--CODEGEN--\":4482:4685   */\n      pop\n        /* \"--CODEGEN--\":4472:4473   */\n      0x01\n        /* \"--CODEGEN--\":4469:4470   */\n      dup2\n        /* \"--CODEGEN--\":4465:4474   */\n      add\n        /* \"--CODEGEN--\":4460:4474   */\n      swap1\n      pop\n        /* \"--CODEGEN--\":4425:4685   */\n      jump(tag_164)\n    tag_166:\n        /* \"--CODEGEN--\":4429:4443   */\n      pop\n        /* \"--CODEGEN--\":4698:4701   */\n      dup6\n        /* \"--CODEGEN--\":4691:4701   */\n      swap4\n      pop\n        /* \"--CODEGEN--\":4141:4707   */\n      pop\n      pop\n      pop\n      swap3\n      swap2\n      pop\n      pop\n      jump\n        /* \"--CODEGEN--\":4715:4809   */\n    tag_119:\n        /* \"--CODEGEN--\":4782:4803   */\n      tag_171\n        /* \"--CODEGEN--\":4797:4802   */\n      dup2\n        /* \"--CODEGEN--\":4782:4803   */\n      jump(tag_172)\n    tag_171:\n        /* \"--CODEGEN--\":4777:4780   */\n      dup3\n        /* \"--CODEGEN--\":4770:4804   */\n      mstore\n        /* \"--CODEGEN--\":4764:4809   */\n      pop\n      pop\n      jump\n        /* \"--CODEGEN--\":4816:4920   */\n    tag_173:\n        /* \"--CODEGEN--\":4893:4914   */\n      tag_175\n        /* \"--CODEGEN--\":4908:4913   */\n      dup2\n        /* \"--CODEGEN--\":4893:4914   */\n      jump(tag_172)\n    tag_175:\n        /* \"--CODEGEN--\":4888:4891   */\n      dup3\n        /* \"--CODEGEN--\":4881:4915   */\n      mstore\n        /* \"--CODEGEN--\":4875:4920   */\n      pop\n      pop\n      jump\n        /* \"--CODEGEN--\":4927:5246   */\n    tag_123:\n      0x00\n        /* \"--CODEGEN--\":5025:5060   */\n      tag_177\n        /* \"--CODEGEN--\":5054:5059   */\n      dup3\n        /* \"--CODEGEN--\":5025:5060   */\n      jump(tag_178)\n    tag_177:\n        /* \"--CODEGEN--\":5072:5133   */\n      tag_179\n        /* \"--CODEGEN--\":5126:5132   */\n      dup2\n        /* \"--CODEGEN--\":5121:5124   */\n      dup6\n        /* \"--CODEGEN--\":5072:5133   */\n      jump(tag_180)\n    tag_179:\n        /* \"--CODEGEN--\":5065:5133   */\n      swap4\n      pop\n        /* \"--CODEGEN--\":5138:5190   */\n      tag_181\n        /* \"--CODEGEN--\":5183:5189   */\n      dup2\n        /* \"--CODEGEN--\":5178:5181   */\n      dup6\n        /* \"--CODEGEN--\":5171:5175   */\n      0x20\n        /* \"--CODEGEN--\":5164:5169   */\n      dup7\n        /* \"--CODEGEN--\":5160:5176   */\n      add\n        /* \"--CODEGEN--\":5138:5190   */\n      jump(tag_182)\n    tag_181:\n        /* \"--CODEGEN--\":5211:5240   */\n      tag_183\n        /* \"--CODEGEN--\":5233:5239   */\n      dup2\n        /* \"--CODEGEN--\":5211:5240   */\n      jump(tag_184)\n    tag_183:\n        /* \"--CODEGEN--\":5206:5209   */\n      dup5\n        /* \"--CODEGEN--\":5202:5241   */\n      add\n        /* \"--CODEGEN--\":5195:5241   */\n      swap2\n      pop\n        /* \"--CODEGEN--\":5005:5246   */\n      pop\n      swap3\n      swap2\n      pop\n      pop\n      jump\n        /* \"--CODEGEN--\":5253:5592   */\n    tag_185:\n      0x00\n        /* \"--CODEGEN--\":5361:5396   */\n      tag_187\n        /* \"--CODEGEN--\":5390:5395   */\n      dup3\n        /* \"--CODEGEN--\":5361:5396   */\n      jump(tag_178)\n    tag_187:\n        /* \"--CODEGEN--\":5408:5479   */\n      tag_188\n        /* \"--CODEGEN--\":5472:5478   */\n      dup2\n        /* \"--CODEGEN--\":5467:5470   */\n      dup6\n        /* \"--CODEGEN--\":5408:5479   */\n      jump(tag_189)\n    tag_188:\n        /* \"--CODEGEN--\":5401:5479   */\n      swap4\n      pop\n        /* \"--CODEGEN--\":5484:5536   */\n      tag_190\n        /* \"--CODEGEN--\":5529:5535   */\n      dup2\n        /* \"--CODEGEN--\":5524:5527   */\n      dup6\n        /* \"--CODEGEN--\":5517:5521   */\n      0x20\n        /* \"--CODEGEN--\":5510:5515   */\n      dup7\n        /* \"--CODEGEN--\":5506:5522   */\n      add\n        /* \"--CODEGEN--\":5484:5536   */\n      jump(tag_182)\n    tag_190:\n        /* \"--CODEGEN--\":5557:5586   */\n      tag_191\n        /* \"--CODEGEN--\":5579:5585   */\n      dup2\n        /* \"--CODEGEN--\":5557:5586   */\n      jump(tag_184)\n    tag_191:\n        /* \"--CODEGEN--\":5552:5555   */\n      dup5\n        /* \"--CODEGEN--\":5548:5587   */\n      add\n        /* \"--CODEGEN--\":5541:5587   */\n      swap2\n      pop\n        /* \"--CODEGEN--\":5341:5592   */\n      pop\n      swap3\n      swap2\n      pop\n      pop\n      jump\n        /* \"--CODEGEN--\":5658:6366   */\n    tag_192:\n      0x00\n        /* \"--CODEGEN--\":5801:5805   */\n      0x60\n        /* \"--CODEGEN--\":5796:5799   */\n      dup4\n        /* \"--CODEGEN--\":5792:5806   */\n      add\n        /* \"--CODEGEN--\":5882:5886   */\n      0x00\n        /* \"--CODEGEN--\":5875:5880   */\n      dup4\n        /* \"--CODEGEN--\":5871:5887   */\n      add\n        /* \"--CODEGEN--\":5865:5888   */\n      mload\n        /* \"--CODEGEN--\":5894:5957   */\n      tag_194\n        /* \"--CODEGEN--\":5951:5955   */\n      0x00\n        /* \"--CODEGEN--\":5946:5949   */\n      dup7\n        /* \"--CODEGEN--\":5942:5956   */\n      add\n        /* \"--CODEGEN--\":5928:5940   */\n      dup3\n        /* \"--CODEGEN--\":5894:5957   */\n      jump(tag_127)\n    tag_194:\n        /* \"--CODEGEN--\":5821:5963   */\n      pop\n        /* \"--CODEGEN--\":6036:6040   */\n      0x20\n        /* \"--CODEGEN--\":6029:6034   */\n      dup4\n        /* \"--CODEGEN--\":6025:6041   */\n      add\n        /* \"--CODEGEN--\":6019:6042   */\n      mload\n        /* \"--CODEGEN--\":6088:6091   */\n      dup5\n        /* \"--CODEGEN--\":6082:6086   */\n      dup3\n        /* \"--CODEGEN--\":6078:6092   */\n      sub\n        /* \"--CODEGEN--\":6071:6075   */\n      0x20\n        /* \"--CODEGEN--\":6066:6069   */\n      dup7\n        /* \"--CODEGEN--\":6062:6076   */\n      add\n        /* \"--CODEGEN--\":6055:6093   */\n      mstore\n        /* \"--CODEGEN--\":6108:6177   */\n      tag_195\n        /* \"--CODEGEN--\":6172:6176   */\n      dup3\n        /* \"--CODEGEN--\":6158:6170   */\n      dup3\n        /* \"--CODEGEN--\":6108:6177   */\n      jump(tag_123)\n    tag_195:\n        /* \"--CODEGEN--\":6100:6177   */\n      swap2\n      pop\n        /* \"--CODEGEN--\":5973:6189   */\n      pop\n        /* \"--CODEGEN--\":6265:6269   */\n      0x40\n        /* \"--CODEGEN--\":6258:6263   */\n      dup4\n        /* \"--CODEGEN--\":6254:6270   */\n      add\n        /* \"--CODEGEN--\":6248:6271   */\n      mload\n        /* \"--CODEGEN--\":6277:6334   */\n      tag_196\n        /* \"--CODEGEN--\":6328:6332   */\n      0x40\n        /* \"--CODEGEN--\":6323:6326   */\n      dup7\n        /* \"--CODEGEN--\":6319:6333   */\n      add\n        /* \"--CODEGEN--\":6305:6317   */\n      dup3\n        /* \"--CODEGEN--\":6277:6334   */\n      jump(tag_119)\n    tag_196:\n        /* \"--CODEGEN--\":6199:6340   */\n      pop\n        /* \"--CODEGEN--\":6357:6361   */\n      dup1\n        /* \"--CODEGEN--\":6350:6361   */\n      swap2\n      pop\n        /* \"--CODEGEN--\":5774:6366   */\n      pop\n      swap3\n      swap2\n      pop\n      pop\n      jump\n        /* \"--CODEGEN--\":6373:6476   */\n    tag_127:\n        /* \"--CODEGEN--\":6446:6470   */\n      tag_198\n        /* \"--CODEGEN--\":6464:6469   */\n      dup2\n        /* \"--CODEGEN--\":6446:6470   */\n      jump(tag_199)\n    tag_198:\n        /* \"--CODEGEN--\":6441:6444   */\n      dup3\n        /* \"--CODEGEN--\":6434:6471   */\n      mstore\n        /* \"--CODEGEN--\":6428:6476   */\n      pop\n      pop\n      jump\n        /* \"--CODEGEN--\":6483:6596   */\n    tag_200:\n        /* \"--CODEGEN--\":6566:6590   */\n      tag_202\n        /* \"--CODEGEN--\":6584:6589   */\n      dup2\n        /* \"--CODEGEN--\":6566:6590   */\n      jump(tag_199)\n    tag_202:\n        /* \"--CODEGEN--\":6561:6564   */\n      dup3\n        /* \"--CODEGEN--\":6554:6591   */\n      mstore\n        /* \"--CODEGEN--\":6548:6596   */\n      pop\n      pop\n      jump\n        /* \"--CODEGEN--\":6603:7494   */\n    tag_25:\n      0x00\n        /* \"--CODEGEN--\":6933:6935   */\n      0x60\n        /* \"--CODEGEN--\":6922:6931   */\n      dup3\n        /* \"--CODEGEN--\":6918:6936   */\n      add\n        /* \"--CODEGEN--\":6910:6936   */\n      swap1\n      pop\n        /* \"--CODEGEN--\":6983:6992   */\n      dup2\n        /* \"--CODEGEN--\":6977:6981   */\n      dup2\n        /* \"--CODEGEN--\":6973:6993   */\n      sub\n        /* \"--CODEGEN--\":6969:6970   */\n      0x00\n        /* \"--CODEGEN--\":6958:6967   */\n      dup4\n        /* \"--CODEGEN--\":6954:6971   */\n      add\n        /* \"--CODEGEN--\":6947:6994   */\n      mstore\n        /* \"--CODEGEN--\":7008:7116   */\n      tag_204\n        /* \"--CODEGEN--\":7111:7115   */\n      dup2\n        /* \"--CODEGEN--\":7102:7108   */\n      dup7\n        /* \"--CODEGEN--\":7008:7116   */\n      jump(tag_156)\n    tag_204:\n        /* \"--CODEGEN--\":7000:7116   */\n      swap1\n      pop\n        /* \"--CODEGEN--\":7164:7173   */\n      dup2\n        /* \"--CODEGEN--\":7158:7162   */\n      dup2\n        /* \"--CODEGEN--\":7154:7174   */\n      sub\n        /* \"--CODEGEN--\":7149:7151   */\n      0x20\n        /* \"--CODEGEN--\":7138:7147   */\n      dup4\n        /* \"--CODEGEN--\":7134:7152   */\n      add\n        /* \"--CODEGEN--\":7127:7175   */\n      mstore\n        /* \"--CODEGEN--\":7189:7309   */\n      tag_205\n        /* \"--CODEGEN--\":7304:7308   */\n      dup2\n        /* \"--CODEGEN--\":7295:7301   */\n      dup6\n        /* \"--CODEGEN--\":7189:7309   */\n      jump(tag_142)\n    tag_205:\n        /* \"--CODEGEN--\":7181:7309   */\n      swap1\n      pop\n        /* \"--CODEGEN--\":7357:7366   */\n      dup2\n        /* \"--CODEGEN--\":7351:7355   */\n      dup2\n        /* \"--CODEGEN--\":7347:7367   */\n      sub\n        /* \"--CODEGEN--\":7342:7344   */\n      0x40\n        /* \"--CODEGEN--\":7331:7340   */\n      dup4\n        /* \"--CODEGEN--\":7327:7345   */\n      add\n        /* \"--CODEGEN--\":7320:7368   */\n      mstore\n        /* \"--CODEGEN--\":7382:7484   */\n      tag_206\n        /* \"--CODEGEN--\":7479:7483   */\n      dup2\n        /* \"--CODEGEN--\":7470:7476   */\n      dup5\n        /* \"--CODEGEN--\":7382:7484   */\n      jump(tag_128)\n    tag_206:\n        /* \"--CODEGEN--\":7374:7484   */\n      swap1\n      pop\n        /* \"--CODEGEN--\":6904:7494   */\n      swap5\n      swap4\n      pop\n      pop\n      pop\n      pop\n      jump\n        /* \"--CODEGEN--\":7501:7846   */\n    tag_43:\n      0x00\n        /* \"--CODEGEN--\":7661:7663   */\n      0x20\n        /* \"--CODEGEN--\":7650:7659   */\n      dup3\n        /* \"--CODEGEN--\":7646:7664   */\n      add\n        /* \"--CODEGEN--\":7638:7664   */\n      swap1\n      pop\n        /* \"--CODEGEN--\":7711:7720   */\n      dup2\n        /* \"--CODEGEN--\":7705:7709   */\n      dup2\n        /* \"--CODEGEN--\":7701:7721   */\n      sub\n        /* \"--CODEGEN--\":7697:7698   */\n      0x00\n        /* \"--CODEGEN--\":7686:7695   */\n      dup4\n        /* \"--CODEGEN--\":7682:7699   */\n      add\n        /* \"--CODEGEN--\":7675:7722   */\n      mstore\n        /* \"--CODEGEN--\":7736:7836   */\n      tag_208\n        /* \"--CODEGEN--\":7831:7835   */\n      dup2\n        /* \"--CODEGEN--\":7822:7828   */\n      dup5\n        /* \"--CODEGEN--\":7736:7836   */\n      jump(tag_192)\n    tag_208:\n        /* \"--CODEGEN--\":7728:7836   */\n      swap1\n      pop\n        /* \"--CODEGEN--\":7632:7846   */\n      swap3\n      swap2\n      pop\n      pop\n      jump\n        /* \"--CODEGEN--\":7853:8066   */\n    tag_15:\n      0x00\n        /* \"--CODEGEN--\":7971:7973   */\n      0x20\n        /* \"--CODEGEN--\":7960:7969   */\n      dup3\n        /* \"--CODEGEN--\":7956:7974   */\n      add\n        /* \"--CODEGEN--\":7948:7974   */\n      swap1\n      pop\n        /* \"--CODEGEN--\":7985:8056   */\n      tag_210\n        /* \"--CODEGEN--\":8053:8054   */\n      0x00\n        /* \"--CODEGEN--\":8042:8051   */\n      dup4\n        /* \"--CODEGEN--\":8038:8055   */\n      add\n        /* \"--CODEGEN--\":8029:8035   */\n      dup5\n        /* \"--CODEGEN--\":7985:8056   */\n      jump(tag_200)\n    tag_210:\n        /* \"--CODEGEN--\":7942:8066   */\n      swap3\n      swap2\n      pop\n      pop\n      jump\n        /* \"--CODEGEN--\":8073:8576   */\n    tag_21:\n      0x00\n        /* \"--CODEGEN--\":8257:8259   */\n      0x60\n        /* \"--CODEGEN--\":8246:8255   */\n      dup3\n        /* \"--CODEGEN--\":8242:8260   */\n      add\n        /* \"--CODEGEN--\":8234:8260   */\n      swap1\n      pop\n        /* \"--CODEGEN--\":8271:8342   */\n      tag_212\n        /* \"--CODEGEN--\":8339:8340   */\n      0x00\n        /* \"--CODEGEN--\":8328:8337   */\n      dup4\n        /* \"--CODEGEN--\":8324:8341   */\n      add\n        /* \"--CODEGEN--\":8315:8321   */\n      dup7\n        /* \"--CODEGEN--\":8271:8342   */\n      jump(tag_200)\n    tag_212:\n        /* \"--CODEGEN--\":8390:8399   */\n      dup2\n        /* \"--CODEGEN--\":8384:8388   */\n      dup2\n        /* \"--CODEGEN--\":8380:8400   */\n      sub\n        /* \"--CODEGEN--\":8375:8377   */\n      0x20\n        /* \"--CODEGEN--\":8364:8373   */\n      dup4\n        /* \"--CODEGEN--\":8360:8378   */\n      add\n        /* \"--CODEGEN--\":8353:8401   */\n      mstore\n        /* \"--CODEGEN--\":8415:8489   */\n      tag_213\n        /* \"--CODEGEN--\":8484:8488   */\n      dup2\n        /* \"--CODEGEN--\":8475:8481   */\n      dup6\n        /* \"--CODEGEN--\":8415:8489   */\n      jump(tag_185)\n    tag_213:\n        /* \"--CODEGEN--\":8407:8489   */\n      swap1\n      pop\n        /* \"--CODEGEN--\":8500:8566   */\n      tag_214\n        /* \"--CODEGEN--\":8562:8564   */\n      0x40\n        /* \"--CODEGEN--\":8551:8560   */\n      dup4\n        /* \"--CODEGEN--\":8547:8565   */\n      add\n        /* \"--CODEGEN--\":8538:8544   */\n      dup5\n        /* \"--CODEGEN--\":8500:8566   */\n      jump(tag_173)\n    tag_214:\n        /* \"--CODEGEN--\":8228:8576   */\n      swap5\n      swap4\n      pop\n      pop\n      pop\n      pop\n      jump\n        /* \"--CODEGEN--\":8583:8839   */\n    tag_96:\n      0x00\n        /* \"--CODEGEN--\":8645:8647   */\n      0x40\n        /* \"--CODEGEN--\":8639:8648   */\n      mload\n        /* \"--CODEGEN--\":8629:8648   */\n      swap1\n      pop\n        /* \"--CODEGEN--\":8683:8687   */\n      dup2\n        /* \"--CODEGEN--\":8675:8681   */\n      dup2\n        /* \"--CODEGEN--\":8671:8688   */\n      add\n        /* \"--CODEGEN--\":8782:8788   */\n      dup2\n        /* \"--CODEGEN--\":8770:8780   */\n      dup2\n        /* \"--CODEGEN--\":8767:8789   */\n      lt\n        /* \"--CODEGEN--\":8746:8764   */\n      0xffffffffffffffff\n        /* \"--CODEGEN--\":8734:8744   */\n      dup3\n        /* \"--CODEGEN--\":8731:8765   */\n      gt\n        /* \"--CODEGEN--\":8728:8790   */\n      or\n        /* \"--CODEGEN--\":8725:8727   */\n      iszero\n      tag_216\n      jumpi\n        /* \"--CODEGEN--\":8803:8804   */\n      0x00\n        /* \"--CODEGEN--\":8800:8801   */\n      dup1\n        /* \"--CODEGEN--\":8793:8805   */\n      revert\n        /* \"--CODEGEN--\":8725:8727   */\n    tag_216:\n        /* \"--CODEGEN--\":8823:8833   */\n      dup1\n        /* \"--CODEGEN--\":8819:8821   */\n      0x40\n        /* \"--CODEGEN--\":8812:8834   */\n      mstore\n        /* \"--CODEGEN--\":8623:8839   */\n      pop\n      swap2\n      swap1\n      pop\n      jump\n        /* \"--CODEGEN--\":8846:9168   */\n    tag_95:\n      0x00\n        /* \"--CODEGEN--\":8990:9008   */\n      0xffffffffffffffff\n        /* \"--CODEGEN--\":8982:8988   */\n      dup3\n        /* \"--CODEGEN--\":8979:9009   */\n      gt\n        /* \"--CODEGEN--\":8976:8978   */\n      iszero\n      tag_218\n      jumpi\n        /* \"--CODEGEN--\":9022:9023   */\n      0x00\n        /* \"--CODEGEN--\":9019:9020   */\n      dup1\n        /* \"--CODEGEN--\":9012:9024   */\n      revert\n        /* \"--CODEGEN--\":8976:8978   */\n    tag_218:\n        /* \"--CODEGEN--\":9089:9093   */\n      0x1f\n        /* \"--CODEGEN--\":9085:9094   */\n      not\n        /* \"--CODEGEN--\":9078:9082   */\n      0x1f\n        /* \"--CODEGEN--\":9070:9076   */\n      dup4\n        /* \"--CODEGEN--\":9066:9083   */\n      add\n        /* \"--CODEGEN--\":9062:9095   */\n      and\n        /* \"--CODEGEN--\":9054:9095   */\n      swap1\n      pop\n        /* \"--CODEGEN--\":9153:9157   */\n      0x20\n        /* \"--CODEGEN--\":9147:9151   */\n      dup2\n        /* \"--CODEGEN--\":9143:9158   */\n      add\n        /* \"--CODEGEN--\":9135:9158   */\n      swap1\n      pop\n        /* \"--CODEGEN--\":8913:9168   */\n      swap2\n      swap1\n      pop\n      jump\n        /* \"--CODEGEN--\":9175:9323   */\n    tag_135:\n      0x00\n        /* \"--CODEGEN--\":9258:9261   */\n      dup2\n        /* \"--CODEGEN--\":9250:9261   */\n      swap1\n      pop\n        /* \"--CODEGEN--\":9296:9300   */\n      0x20\n        /* \"--CODEGEN--\":9291:9294   */\n      dup3\n        /* \"--CODEGEN--\":9287:9301   */\n      add\n        /* \"--CODEGEN--\":9279:9301   */\n      swap1\n      pop\n        /* \"--CODEGEN--\":9244:9323   */\n      swap2\n      swap1\n      pop\n      jump\n        /* \"--CODEGEN--\":9330:9487   */\n    tag_149:\n      0x00\n        /* \"--CODEGEN--\":9422:9425   */\n      dup2\n        /* \"--CODEGEN--\":9414:9425   */\n      swap1\n      pop\n        /* \"--CODEGEN--\":9460:9464   */\n      0x20\n        /* \"--CODEGEN--\":9455:9458   */\n      dup3\n        /* \"--CODEGEN--\":9451:9465   */\n      add\n        /* \"--CODEGEN--\":9443:9465   */\n      swap1\n      pop\n        /* \"--CODEGEN--\":9408:9487   */\n      swap2\n      swap1\n      pop\n      jump\n        /* \"--CODEGEN--\":9494:9645   */\n    tag_163:\n      0x00\n        /* \"--CODEGEN--\":9580:9583   */\n      dup2\n        /* \"--CODEGEN--\":9572:9583   */\n      swap1\n      pop\n        /* \"--CODEGEN--\":9618:9622   */\n      0x20\n        /* \"--CODEGEN--\":9613:9616   */\n      dup3\n        /* \"--CODEGEN--\":9609:9623   */\n      add\n        /* \"--CODEGEN--\":9601:9623   */\n      swap1\n      pop\n        /* \"--CODEGEN--\":9566:9645   */\n      swap2\n      swap1\n      pop\n      jump\n        /* \"--CODEGEN--\":9652:9786   */\n    tag_131:\n      0x00\n        /* \"--CODEGEN--\":9758:9763   */\n      dup2\n        /* \"--CODEGEN--\":9752:9764   */\n      mload\n        /* \"--CODEGEN--\":9742:9764   */\n      swap1\n      pop\n        /* \"--CODEGEN--\":9723:9786   */\n      swap2\n      swap1\n      pop\n      jump\n        /* \"--CODEGEN--\":9793:9936   */\n    tag_145:\n      0x00\n        /* \"--CODEGEN--\":9908:9913   */\n      dup2\n        /* \"--CODEGEN--\":9902:9914   */\n      mload\n        /* \"--CODEGEN--\":9892:9914   */\n      swap1\n      pop\n        /* \"--CODEGEN--\":9873:9936   */\n      swap2\n      swap1\n      pop\n      jump\n        /* \"--CODEGEN--\":9943:10080   */\n    tag_159:\n      0x00\n        /* \"--CODEGEN--\":10052:10057   */\n      dup2\n        /* \"--CODEGEN--\":10046:10058   */\n      mload\n        /* \"--CODEGEN--\":10036:10058   */\n      swap1\n      pop\n        /* \"--CODEGEN--\":10017:10080   */\n      swap2\n      swap1\n      pop\n      jump\n        /* \"--CODEGEN--\":10087:10205   */\n    tag_178:\n      0x00\n        /* \"--CODEGEN--\":10177:10182   */\n      dup2\n        /* \"--CODEGEN--\":10171:10183   */\n      mload\n        /* \"--CODEGEN--\":10161:10183   */\n      swap1\n      pop\n        /* \"--CODEGEN--\":10142:10205   */\n      swap2\n      swap1\n      pop\n      jump\n        /* \"--CODEGEN--\":10212:10317   */\n    tag_141:\n      0x00\n        /* \"--CODEGEN--\":10307:10311   */\n      0x20\n        /* \"--CODEGEN--\":10302:10305   */\n      dup3\n        /* \"--CODEGEN--\":10298:10312   */\n      add\n        /* \"--CODEGEN--\":10290:10312   */\n      swap1\n      pop\n        /* \"--CODEGEN--\":10284:10317   */\n      swap2\n      swap1\n      pop\n      jump\n        /* \"--CODEGEN--\":10324:10438   */\n    tag_155:\n      0x00\n        /* \"--CODEGEN--\":10428:10432   */\n      0x20\n        /* \"--CODEGEN--\":10423:10426   */\n      dup3\n        /* \"--CODEGEN--\":10419:10433   */\n      add\n        /* \"--CODEGEN--\":10411:10433   */\n      swap1\n      pop\n        /* \"--CODEGEN--\":10405:10438   */\n      swap2\n      swap1\n      pop\n      jump\n        /* \"--CODEGEN--\":10445:10553   */\n    tag_169:\n      0x00\n        /* \"--CODEGEN--\":10543:10547   */\n      0x20\n        /* \"--CODEGEN--\":10538:10541   */\n      dup3\n        /* \"--CODEGEN--\":10534:10548   */\n      add\n        /* \"--CODEGEN--\":10526:10548   */\n      swap1\n      pop\n        /* \"--CODEGEN--\":10520:10553   */\n      swap2\n      swap1\n      pop\n      jump\n        /* \"--CODEGEN--\":10561:10736   */\n    tag_133:\n      0x00\n        /* \"--CODEGEN--\":10688:10694   */\n      dup3\n        /* \"--CODEGEN--\":10683:10686   */\n      dup3\n        /* \"--CODEGEN--\":10676:10695   */\n      mstore\n        /* \"--CODEGEN--\":10725:10729   */\n      0x20\n        /* \"--CODEGEN--\":10720:10723   */\n      dup3\n        /* \"--CODEGEN--\":10716:10730   */\n      add\n        /* \"--CODEGEN--\":10701:10730   */\n      swap1\n      pop\n        /* \"--CODEGEN--\":10669:10736   */\n      swap3\n      swap2\n      pop\n      pop\n      jump\n        /* \"--CODEGEN--\":10745:10929   */\n    tag_147:\n      0x00\n        /* \"--CODEGEN--\":10881:10887   */\n      dup3\n        /* \"--CODEGEN--\":10876:10879   */\n      dup3\n        /* \"--CODEGEN--\":10869:10888   */\n      mstore\n        /* \"--CODEGEN--\":10918:10922   */\n      0x20\n        /* \"--CODEGEN--\":10913:10916   */\n      dup3\n        /* \"--CODEGEN--\":10909:10923   */\n      add\n        /* \"--CODEGEN--\":10894:10923   */\n      swap1\n      pop\n        /* \"--CODEGEN--\":10862:10929   */\n      swap3\n      swap2\n      pop\n      pop\n      jump\n        /* \"--CODEGEN--\":10938:11116   */\n    tag_161:\n      0x00\n        /* \"--CODEGEN--\":11068:11074   */\n      dup3\n        /* \"--CODEGEN--\":11063:11066   */\n      dup3\n        /* \"--CODEGEN--\":11056:11075   */\n      mstore\n        /* \"--CODEGEN--\":11105:11109   */\n      0x20\n        /* \"--CODEGEN--\":11100:11103   */\n      dup3\n        /* \"--CODEGEN--\":11096:11110   */\n      add\n        /* \"--CODEGEN--\":11081:11110   */\n      swap1\n      pop\n        /* \"--CODEGEN--\":11049:11116   */\n      swap3\n      swap2\n      pop\n      pop\n      jump\n        /* \"--CODEGEN--\":11125:11278   */\n    tag_180:\n      0x00\n        /* \"--CODEGEN--\":11230:11236   */\n      dup3\n        /* \"--CODEGEN--\":11225:11228   */\n      dup3\n        /* \"--CODEGEN--\":11218:11237   */\n      mstore\n        /* \"--CODEGEN--\":11267:11271   */\n      0x20\n        /* \"--CODEGEN--\":11262:11265   */\n      dup3\n        /* \"--CODEGEN--\":11258:11272   */\n      add\n        /* \"--CODEGEN--\":11243:11272   */\n      swap1\n      pop\n        /* \"--CODEGEN--\":11211:11278   */\n      swap3\n      swap2\n      pop\n      pop\n      jump\n        /* \"--CODEGEN--\":11287:11450   */\n    tag_189:\n      0x00\n        /* \"--CODEGEN--\":11402:11408   */\n      dup3\n        /* \"--CODEGEN--\":11397:11400   */\n      dup3\n        /* \"--CODEGEN--\":11390:11409   */\n      mstore\n        /* \"--CODEGEN--\":11439:11443   */\n      0x20\n        /* \"--CODEGEN--\":11434:11437   */\n      dup3\n        /* \"--CODEGEN--\":11430:11444   */\n      add\n        /* \"--CODEGEN--\":11415:11444   */\n      swap1\n      pop\n        /* \"--CODEGEN--\":11383:11450   */\n      swap3\n      swap2\n      pop\n      pop\n      jump\n        /* \"--CODEGEN--\":11458:11543   */\n    tag_172:\n      0x00\n        /* \"--CODEGEN--\":11531:11536   */\n      dup2\n        /* \"--CODEGEN--\":11524:11537   */\n      iszero\n        /* \"--CODEGEN--\":11517:11538   */\n      iszero\n        /* \"--CODEGEN--\":11506:11538   */\n      swap1\n      pop\n        /* \"--CODEGEN--\":11500:11543   */\n      swap2\n      swap1\n      pop\n      jump\n        /* \"--CODEGEN--\":11550:11622   */\n    tag_199:\n      0x00\n        /* \"--CODEGEN--\":11612:11617   */\n      dup2\n        /* \"--CODEGEN--\":11601:11617   */\n      swap1\n      pop\n        /* \"--CODEGEN--\":11595:11622   */\n      swap2\n      swap1\n      pop\n      jump\n        /* \"--CODEGEN--\":11630:11775   */\n    tag_99:\n        /* \"--CODEGEN--\":11711:11717   */\n      dup3\n        /* \"--CODEGEN--\":11706:11709   */\n      dup2\n        /* \"--CODEGEN--\":11701:11704   */\n      dup4\n        /* \"--CODEGEN--\":11688:11718   */\n      calldatacopy\n        /* \"--CODEGEN--\":11767:11768   */\n      0x00\n        /* \"--CODEGEN--\":11758:11764   */\n      dup4\n        /* \"--CODEGEN--\":11753:11756   */\n      dup4\n        /* \"--CODEGEN--\":11749:11765   */\n      add\n        /* \"--CODEGEN--\":11742:11769   */\n      mstore\n        /* \"--CODEGEN--\":11681:11775   */\n      pop\n      pop\n      pop\n      jump\n        /* \"--CODEGEN--\":11784:12052   */\n    tag_182:\n        /* \"--CODEGEN--\":11849:11850   */\n      0x00\n        /* \"--CODEGEN--\":11856:11957   */\n    tag_238:\n        /* \"--CODEGEN--\":11870:11876   */\n      dup4\n        /* \"--CODEGEN--\":11867:11868   */\n      dup2\n        /* \"--CODEGEN--\":11864:11877   */\n      lt\n        /* \"--CODEGEN--\":11856:11957   */\n      iszero\n      tag_240\n      jumpi\n        /* \"--CODEGEN--\":11946:11947   */\n      dup1\n        /* \"--CODEGEN--\":11941:11944   */\n      dup3\n        /* \"--CODEGEN--\":11937:11948   */\n      add\n        /* \"--CODEGEN--\":11931:11949   */\n      mload\n        /* \"--CODEGEN--\":11927:11928   */\n      dup2\n        /* \"--CODEGEN--\":11922:11925   */\n      dup5\n        /* \"--CODEGEN--\":11918:11929   */\n      add\n        /* \"--CODEGEN--\":11911:11950   */\n      mstore\n        /* \"--CODEGEN--\":11892:11894   */\n      0x20\n        /* \"--CODEGEN--\":11889:11890   */\n      dup2\n        /* \"--CODEGEN--\":11885:11895   */\n      add\n        /* \"--CODEGEN--\":11880:11895   */\n      swap1\n      pop\n        /* \"--CODEGEN--\":11856:11957   */\n      jump(tag_238)\n    tag_240:\n        /* \"--CODEGEN--\":11972:11978   */\n      dup4\n        /* \"--CODEGEN--\":11969:11970   */\n      dup2\n        /* \"--CODEGEN--\":11966:11979   */\n      gt\n        /* \"--CODEGEN--\":11963:11965   */\n      iszero\n      tag_241\n      jumpi\n        /* \"--CODEGEN--\":12037:12038   */\n      0x00\n        /* \"--CODEGEN--\":12028:12034   */\n      dup5\n        /* \"--CODEGEN--\":12023:12026   */\n      dup5\n        /* \"--CODEGEN--\":12019:12035   */\n      add\n        /* \"--CODEGEN--\":12012:12039   */\n      mstore\n        /* \"--CODEGEN--\":11963:11965   */\n    tag_241:\n        /* \"--CODEGEN--\":11833:12052   */\n      pop\n      pop\n      pop\n      pop\n      jump\n        /* \"--CODEGEN--\":12060:12157   */\n    tag_184:\n      0x00\n        /* \"--CODEGEN--\":12148:12150   */\n      0x1f\n        /* \"--CODEGEN--\":12144:12151   */\n      not\n        /* \"--CODEGEN--\":12139:12141   */\n      0x1f\n        /* \"--CODEGEN--\":12132:12137   */\n      dup4\n        /* \"--CODEGEN--\":12128:12142   */\n      add\n        /* \"--CODEGEN--\":12124:12152   */\n      and\n        /* \"--CODEGEN--\":12114:12152   */\n      swap1\n      pop\n        /* \"--CODEGEN--\":12108:12157   */\n      swap2\n      swap1\n      pop\n      jump\n        /* \"--CODEGEN--\":12165:12276   */\n    tag_89:\n        /* \"--CODEGEN--\":12231:12252   */\n      tag_244\n        /* \"--CODEGEN--\":12246:12251   */\n      dup2\n        /* \"--CODEGEN--\":12231:12252   */\n      jump(tag_172)\n    tag_244:\n        /* \"--CODEGEN--\":12224:12229   */\n      dup2\n        /* \"--CODEGEN--\":12221:12253   */\n      eq\n        /* \"--CODEGEN--\":12211:12213   */\n      tag_245\n      jumpi\n        /* \"--CODEGEN--\":12267:12268   */\n      0x00\n        /* \"--CODEGEN--\":12264:12265   */\n      dup1\n        /* \"--CODEGEN--\":12257:12269   */\n      revert\n        /* \"--CODEGEN--\":12211:12213   */\n    tag_245:\n        /* \"--CODEGEN--\":12205:12276   */\n      pop\n      jump\n        /* \"--CODEGEN--\":12283:12400   */\n    tag_103:\n        /* \"--CODEGEN--\":12352:12376   */\n      tag_247\n        /* \"--CODEGEN--\":12370:12375   */\n      dup2\n        /* \"--CODEGEN--\":12352:12376   */\n      jump(tag_199)\n    tag_247:\n        /* \"--CODEGEN--\":12345:12350   */\n      dup2\n        /* \"--CODEGEN--\":12342:12377   */\n      eq\n        /* \"--CODEGEN--\":12332:12334   */\n      tag_248\n      jumpi\n        /* \"--CODEGEN--\":12391:12392   */\n      0x00\n        /* \"--CODEGEN--\":12388:12389   */\n      dup1\n        /* \"--CODEGEN--\":12381:12393   */\n      revert\n        /* \"--CODEGEN--\":12332:12334   */\n    tag_248:\n        /* \"--CODEGEN--\":12326:12400   */\n      pop\n      jump\n\n    auxdata: 0xa264697066735822122066b5c7820a6f84c3fd839eaf85c6cdf3403b90e979a7c7e07303dfffd332a7f064736f6c63430006000033\n}\n",
				"bytecode": {
					"linkReferences": {},
					"object": "60806040523480156200001157600080fd5b506000600181905550620000626040518060400160405280600481526020017f566c61640000000000000000000000000000000000000000000000000000000081525060016200026060201b60201c565b620000aa6040518060400160405280600681526020017f4e6173747961000000000000000000000000000000000000000000000000000081525060006200026060201b60201c565b620000f26040518060400160405280600581526020017f566c61643100000000000000000000000000000000000000000000000000000081525060016200026060201b60201c565b6200013a6040518060400160405280600781526020017f4e6173747961320000000000000000000000000000000000000000000000000081525060006200026060201b60201c565b620001826040518060400160405280600581526020017f566c61643300000000000000000000000000000000000000000000000000000081525060016200026060201b60201c565b620001ca6040518060400160405280600781526020017f4e6173747961340000000000000000000000000000000000000000000000000081525060006200026060201b60201c565b620002126040518060400160405280600581526020017f566c61643500000000000000000000000000000000000000000000000000000081525060016200026060201b60201c565b6200025a6040518060400160405280600781526020017f4e6173747961360000000000000000000000000000000000000000000000000081525060006200026060201b60201c565b620003a4565b604051806060016040528060015481526020018381526020018215158152506000806001548152602001908152602001600020600082015181600001556020820151816001019080519060200190620002bb929190620002f5565b5060408201518160020160006101000a81548160ff0219169083151502179055509050506001600081548092919060010191905055505050565b828054600181600116156101000203166002900490600052602060002090601f016020900481019282601f106200033857805160ff191683800117855562000369565b8280016001018555821562000369579182015b82811115620003685782518255916020019190600101906200034b565b5b5090506200037891906200037c565b5090565b620003a191905b808211156200039d57600081600090555060010162000383565b5090565b90565b610daa80620003b46000396000f3fe608060405234801561001057600080fd5b50600436106100885760003560e01c806393d6bb5e1161005b57806393d6bb5e14610119578063d3516b7e14610123578063f0232d0a1461013f578063f97698f81461015d57610088565b806311aee3801461008d5780635daf08ca146100ab5780636f416d59146100dd57806392c68389146100fd575b600080fd5b61009561018d565b6040516100a29190610b53565b60405180910390f35b6100c560048036036100c0919081019061080d565b610193565b6040516100d493929190610b6e565b60405180910390f35b6100e5610262565b6040516100f493929190610ae5565b60405180910390f35b610117600480360361011291908101906107b9565b610454565b005b6101216104e7565b005b61013d60048036036101389190810190610836565b610549565b005b61014761057a565b6040516101549190610b53565b60405180910390f35b6101776004803603610172919081019061080d565b610580565b6040516101849190610b31565b60405180910390f35b60015481565b6000602052806000526040600020600091509050806000015490806001018054600181600116156101000203166002900480601f0160208091040260200160405190810160405280929190818152602001828054600181600116156101000203166002900480156102455780601f1061021a57610100808354040283529160200191610245565b820191906000526020600020905b81548152906001019060200180831161022857829003601f168201915b5050505050908060020160009054906101000a900460ff16905083565b6060806060806001546040519080825280602002602001820160405280156102995781602001602082028038833980820191505090505b50905060606001546040519080825280602002602001820160405280156102d457816020015b60608152602001906001900390816102bf5790505b509050606060015460405190808252806020026020018201604052801561030a5781602001602082028038833980820191505090505b50905060008090505b6001548110156104425760008060008381526020019081526020016000209050806000015485838151811061034457fe5b602002602001018181525050806001018054600181600116156101000203166002900480601f0160208091040260200160405190810160405280929190818152602001828054600181600116156101000203166002900480156103e85780601f106103bd576101008083540402835291602001916103e8565b820191906000526020600020905b8154815290600101906020018083116103cb57829003601f168201915b50505050508483815181106103f957fe5b60200260200101819052508060020160009054906101000a900460ff1683838151811061042257fe5b602002602001019015159081151581525050508080600101915050610313565b50828282955095509550505050909192565b6040518060600160405280600154815260200183815260200182151581525060008060015481526020019081526020016000206000820151816000015560208201518160010190805190602001906104ad929190610673565b5060408201518160020160006101000a81548160ff0219169083151502179055509050506001600081548092919060010191905055505050565b60008090505b600154811015610546576001151560008083815260200190815260200160002060020160009054906101000a900460ff1615151415610539576002600081548092919060010191905055505b80806001019150506104ed565b50565b8060008084815260200190815260200160002060020160006101000a81548160ff0219169083151502179055505050565b60025481565b6105886106f3565b60008083815260200190815260200160002060405180606001604052908160008201548152602001600182018054600181600116156101000203166002900480601f0160208091040260200160405190810160405280929190818152602001828054600181600116156101000203166002900480156106485780601f1061061d57610100808354040283529160200191610648565b820191906000526020600020905b81548152906001019060200180831161062b57829003601f168201915b505050505081526020016002820160009054906101000a900460ff1615151515815250509050919050565b828054600181600116156101000203166002900490600052602060002090601f016020900481019282601f106106b457805160ff19168380011785556106e2565b828001600101855582156106e2579182015b828111156106e15782518255916020019190600101906106c6565b5b5090506106ef9190610716565b5090565b604051806060016040528060008152602001606081526020016000151581525090565b61073891905b8082111561073457600081600090555060010161071c565b5090565b90565b60008135905061074a81610d46565b92915050565b600082601f83011261076157600080fd5b813561077461076f82610bd9565b610bac565b9150808252602083016020830185838301111561079057600080fd5b61079b838284610cf3565b50505092915050565b6000813590506107b381610d5d565b92915050565b600080604083850312156107cc57600080fd5b600083013567ffffffffffffffff8111156107e657600080fd5b6107f285828601610750565b92505060206108038582860161073b565b9150509250929050565b60006020828403121561081f57600080fd5b600061082d848285016107a4565b91505092915050565b6000806040838503121561084957600080fd5b6000610857858286016107a4565b92505060206108688582860161073b565b9150509250929050565b600061087e83836109e7565b60208301905092915050565b60006108968383610a05565b905092915050565b60006108aa8383610ac7565b60208301905092915050565b60006108c182610c35565b6108cb8185610c88565b93506108d683610c05565b8060005b838110156109075781516108ee8882610872565b97506108f983610c61565b9250506001810190506108da565b5085935050505092915050565b600061091f82610c40565b6109298185610c99565b93508360208202850161093b85610c15565b8060005b858110156109775784840389528151610958858261088a565b945061096383610c6e565b925060208a0199505060018101905061093f565b50829750879550505050505092915050565b600061099482610c4b565b61099e8185610caa565b93506109a983610c25565b8060005b838110156109da5781516109c1888261089e565b97506109cc83610c7b565b9250506001810190506109ad565b5085935050505092915050565b6109f081610cdd565b82525050565b6109ff81610cdd565b82525050565b6000610a1082610c56565b610a1a8185610cbb565b9350610a2a818560208601610d02565b610a3381610d35565b840191505092915050565b6000610a4982610c56565b610a538185610ccc565b9350610a63818560208601610d02565b610a6c81610d35565b840191505092915050565b6000606083016000830151610a8f6000860182610ac7565b5060208301518482036020860152610aa78282610a05565b9150506040830151610abc60408601826109e7565b508091505092915050565b610ad081610ce9565b82525050565b610adf81610ce9565b82525050565b60006060820190508181036000830152610aff8186610989565b90508181036020830152610b138185610914565b90508181036040830152610b2781846108b6565b9050949350505050565b60006020820190508181036000830152610b4b8184610a77565b905092915050565b6000602082019050610b686000830184610ad6565b92915050565b6000606082019050610b836000830186610ad6565b8181036020830152610b958185610a3e565b9050610ba460408301846109f6565b949350505050565b6000604051905081810181811067ffffffffffffffff82111715610bcf57600080fd5b8060405250919050565b600067ffffffffffffffff821115610bf057600080fd5b601f19601f8301169050602081019050919050565b6000819050602082019050919050565b6000819050602082019050919050565b6000819050602082019050919050565b600081519050919050565b600081519050919050565b600081519050919050565b600081519050919050565b6000602082019050919050565b6000602082019050919050565b6000602082019050919050565b600082825260208201905092915050565b600082825260208201905092915050565b600082825260208201905092915050565b600082825260208201905092915050565b600082825260208201905092915050565b60008115159050919050565b6000819050919050565b82818337600083830152505050565b60005b83811015610d20578082015181840152602081019050610d05565b83811115610d2f576000848401525b50505050565b6000601f19601f8301169050919050565b610d4f81610cdd565b8114610d5a57600080fd5b50565b610d6681610ce9565b8114610d7157600080fd5b5056fea264697066735822122066b5c7820a6f84c3fd839eaf85c6cdf3403b90e979a7c7e07303dfffd332a7f064736f6c63430006000033",
					"opcodes": "PUSH1 0x80 PUSH1 0x40 MSTORE CALLVALUE DUP1 ISZERO PUSH3 0x11 JUMPI PUSH1 0x0 DUP1 REVERT JUMPDEST POP PUSH1 0x0 PUSH1 0x1 DUP2 SWAP1 SSTORE POP PUSH3 0x62 PUSH1 0x40 MLOAD DUP1 PUSH1 0x40 ADD PUSH1 0x40 MSTORE DUP1 PUSH1 0x4 DUP2 MSTORE PUSH1 0x20 ADD PUSH32 0x566C616400000000000000000000000000000000000000000000000000000000 DUP2 MSTORE POP PUSH1 0x1 PUSH3 0x260 PUSH1 0x20 SHL PUSH1 0x20 SHR JUMP JUMPDEST PUSH3 0xAA PUSH1 0x40 MLOAD DUP1 PUSH1 0x40 ADD PUSH1 0x40 MSTORE DUP1 PUSH1 0x6 DUP2 MSTORE PUSH1 0x20 ADD PUSH32 0x4E61737479610000000000000000000000000000000000000000000000000000 DUP2 MSTORE POP PUSH1 0x0 PUSH3 0x260 PUSH1 0x20 SHL PUSH1 0x20 SHR JUMP JUMPDEST PUSH3 0xF2 PUSH1 0x40 MLOAD DUP1 PUSH1 0x40 ADD PUSH1 0x40 MSTORE DUP1 PUSH1 0x5 DUP2 MSTORE PUSH1 0x20 ADD PUSH32 0x566C616431000000000000000000000000000000000000000000000000000000 DUP2 MSTORE POP PUSH1 0x1 PUSH3 0x260 PUSH1 0x20 SHL PUSH1 0x20 SHR JUMP JUMPDEST PUSH3 0x13A PUSH1 0x40 MLOAD DUP1 PUSH1 0x40 ADD PUSH1 0x40 MSTORE DUP1 PUSH1 0x7 DUP2 MSTORE PUSH1 0x20 ADD PUSH32 0x4E61737479613200000000000000000000000000000000000000000000000000 DUP2 MSTORE POP PUSH1 0x0 PUSH3 0x260 PUSH1 0x20 SHL PUSH1 0x20 SHR JUMP JUMPDEST PUSH3 0x182 PUSH1 0x40 MLOAD DUP1 PUSH1 0x40 ADD PUSH1 0x40 MSTORE DUP1 PUSH1 0x5 DUP2 MSTORE PUSH1 0x20 ADD PUSH32 0x566C616433000000000000000000000000000000000000000000000000000000 DUP2 MSTORE POP PUSH1 0x1 PUSH3 0x260 PUSH1 0x20 SHL PUSH1 0x20 SHR JUMP JUMPDEST PUSH3 0x1CA PUSH1 0x40 MLOAD DUP1 PUSH1 0x40 ADD PUSH1 0x40 MSTORE DUP1 PUSH1 0x7 DUP2 MSTORE PUSH1 0x20 ADD PUSH32 0x4E61737479613400000000000000000000000000000000000000000000000000 DUP2 MSTORE POP PUSH1 0x0 PUSH3 0x260 PUSH1 0x20 SHL PUSH1 0x20 SHR JUMP JUMPDEST PUSH3 0x212 PUSH1 0x40 MLOAD DUP1 PUSH1 0x40 ADD PUSH1 0x40 MSTORE DUP1 PUSH1 0x5 DUP2 MSTORE PUSH1 0x20 ADD PUSH32 0x566C616435000000000000000000000000000000000000000000000000000000 DUP2 MSTORE POP PUSH1 0x1 PUSH3 0x260 PUSH1 0x20 SHL PUSH1 0x20 SHR JUMP JUMPDEST PUSH3 0x25A PUSH1 0x40 MLOAD DUP1 PUSH1 0x40 ADD PUSH1 0x40 MSTORE DUP1 PUSH1 0x7 DUP2 MSTORE PUSH1 0x20 ADD PUSH32 0x4E61737479613600000000000000000000000000000000000000000000000000 DUP2 MSTORE POP PUSH1 0x0 PUSH3 0x260 PUSH1 0x20 SHL PUSH1 0x20 SHR JUMP JUMPDEST PUSH3 0x3A4 JUMP JUMPDEST PUSH1 0x40 MLOAD DUP1 PUSH1 0x60 ADD PUSH1 0x40 MSTORE DUP1 PUSH1 0x1 SLOAD DUP2 MSTORE PUSH1 0x20 ADD DUP4 DUP2 MSTORE PUSH1 0x20 ADD DUP3 ISZERO ISZERO DUP2 MSTORE POP PUSH1 0x0 DUP1 PUSH1 0x1 SLOAD DUP2 MSTORE PUSH1 0x20 ADD SWAP1 DUP2 MSTORE PUSH1 0x20 ADD PUSH1 0x0 KECCAK256 PUSH1 0x0 DUP3 ADD MLOAD DUP2 PUSH1 0x0 ADD SSTORE PUSH1 0x20 DUP3 ADD MLOAD DUP2 PUSH1 0x1 ADD SWAP1 DUP1 MLOAD SWAP1 PUSH1 0x20 ADD SWAP1 PUSH3 0x2BB SWAP3 SWAP2 SWAP1 PUSH3 0x2F5 JUMP JUMPDEST POP PUSH1 0x40 DUP3 ADD MLOAD DUP2 PUSH1 0x2 ADD PUSH1 0x0 PUSH2 0x100 EXP DUP2 SLOAD DUP2 PUSH1 0xFF MUL NOT AND SWAP1 DUP4 ISZERO ISZERO MUL OR SWAP1 SSTORE POP SWAP1 POP POP PUSH1 0x1 PUSH1 0x0 DUP2 SLOAD DUP1 SWAP3 SWAP2 SWAP1 PUSH1 0x1 ADD SWAP2 SWAP1 POP SSTORE POP POP POP JUMP JUMPDEST DUP3 DUP1 SLOAD PUSH1 0x1 DUP2 PUSH1 0x1 AND ISZERO PUSH2 0x100 MUL SUB AND PUSH1 0x2 SWAP1 DIV SWAP1 PUSH1 0x0 MSTORE PUSH1 0x20 PUSH1 0x0 KECCAK256 SWAP1 PUSH1 0x1F ADD PUSH1 0x20 SWAP1 DIV DUP2 ADD SWAP3 DUP3 PUSH1 0x1F LT PUSH3 0x338 JUMPI DUP1 MLOAD PUSH1 0xFF NOT AND DUP4 DUP1 ADD OR DUP6 SSTORE PUSH3 0x369 JUMP JUMPDEST DUP3 DUP1 ADD PUSH1 0x1 ADD DUP6 SSTORE DUP3 ISZERO PUSH3 0x369 JUMPI SWAP2 DUP3 ADD JUMPDEST DUP3 DUP2 GT ISZERO PUSH3 0x368 JUMPI DUP3 MLOAD DUP3 SSTORE SWAP2 PUSH1 0x20 ADD SWAP2 SWAP1 PUSH1 0x1 ADD SWAP1 PUSH3 0x34B JUMP JUMPDEST JUMPDEST POP SWAP1 POP PUSH3 0x378 SWAP2 SWAP1 PUSH3 0x37C JUMP JUMPDEST POP SWAP1 JUMP JUMPDEST PUSH3 0x3A1 SWAP2 SWAP1 JUMPDEST DUP1 DUP3 GT ISZERO PUSH3 0x39D JUMPI PUSH1 0x0 DUP2 PUSH1 0x0 SWAP1 SSTORE POP PUSH1 0x1 ADD PUSH3 0x383 JUMP JUMPDEST POP SWAP1 JUMP JUMPDEST SWAP1 JUMP JUMPDEST PUSH2 0xDAA DUP1 PUSH3 0x3B4 PUSH1 0x0 CODECOPY PUSH1 0x0 RETURN INVALID PUSH1 0x80 PUSH1 0x40 MSTORE CALLVALUE DUP1 ISZERO PUSH2 0x10 JUMPI PUSH1 0x0 DUP1 REVERT JUMPDEST POP PUSH1 0x4 CALLDATASIZE LT PUSH2 0x88 JUMPI PUSH1 0x0 CALLDATALOAD PUSH1 0xE0 SHR DUP1 PUSH4 0x93D6BB5E GT PUSH2 0x5B JUMPI DUP1 PUSH4 0x93D6BB5E EQ PUSH2 0x119 JUMPI DUP1 PUSH4 0xD3516B7E EQ PUSH2 0x123 JUMPI DUP1 PUSH4 0xF0232D0A EQ PUSH2 0x13F JUMPI DUP1 PUSH4 0xF97698F8 EQ PUSH2 0x15D JUMPI PUSH2 0x88 JUMP JUMPDEST DUP1 PUSH4 0x11AEE380 EQ PUSH2 0x8D JUMPI DUP1 PUSH4 0x5DAF08CA EQ PUSH2 0xAB JUMPI DUP1 PUSH4 0x6F416D59 EQ PUSH2 0xDD JUMPI DUP1 PUSH4 0x92C68389 EQ PUSH2 0xFD JUMPI JUMPDEST PUSH1 0x0 DUP1 REVERT JUMPDEST PUSH2 0x95 PUSH2 0x18D JUMP JUMPDEST PUSH1 0x40 MLOAD PUSH2 0xA2 SWAP2 SWAP1 PUSH2 0xB53 JUMP JUMPDEST PUSH1 0x40 MLOAD DUP1 SWAP2 SUB SWAP1 RETURN JUMPDEST PUSH2 0xC5 PUSH1 0x4 DUP1 CALLDATASIZE SUB PUSH2 0xC0 SWAP2 SWAP1 DUP2 ADD SWAP1 PUSH2 0x80D JUMP JUMPDEST PUSH2 0x193 JUMP JUMPDEST PUSH1 0x40 MLOAD PUSH2 0xD4 SWAP4 SWAP3 SWAP2 SWAP1 PUSH2 0xB6E JUMP JUMPDEST PUSH1 0x40 MLOAD DUP1 SWAP2 SUB SWAP1 RETURN JUMPDEST PUSH2 0xE5 PUSH2 0x262 JUMP JUMPDEST PUSH1 0x40 MLOAD PUSH2 0xF4 SWAP4 SWAP3 SWAP2 SWAP1 PUSH2 0xAE5 JUMP JUMPDEST PUSH1 0x40 MLOAD DUP1 SWAP2 SUB SWAP1 RETURN JUMPDEST PUSH2 0x117 PUSH1 0x4 DUP1 CALLDATASIZE SUB PUSH2 0x112 SWAP2 SWAP1 DUP2 ADD SWAP1 PUSH2 0x7B9 JUMP JUMPDEST PUSH2 0x454 JUMP JUMPDEST STOP JUMPDEST PUSH2 0x121 PUSH2 0x4E7 JUMP JUMPDEST STOP JUMPDEST PUSH2 0x13D PUSH1 0x4 DUP1 CALLDATASIZE SUB PUSH2 0x138 SWAP2 SWAP1 DUP2 ADD SWAP1 PUSH2 0x836 JUMP JUMPDEST PUSH2 0x549 JUMP JUMPDEST STOP JUMPDEST PUSH2 0x147 PUSH2 0x57A JUMP JUMPDEST PUSH1 0x40 MLOAD PUSH2 0x154 SWAP2 SWAP1 PUSH2 0xB53 JUMP JUMPDEST PUSH1 0x40 MLOAD DUP1 SWAP2 SUB SWAP1 RETURN JUMPDEST PUSH2 0x177 PUSH1 0x4 DUP1 CALLDATASIZE SUB PUSH2 0x172 SWAP2 SWAP1 DUP2 ADD SWAP1 PUSH2 0x80D JUMP JUMPDEST PUSH2 0x580 JUMP JUMPDEST PUSH1 0x40 MLOAD PUSH2 0x184 SWAP2 SWAP1 PUSH2 0xB31 JUMP JUMPDEST PUSH1 0x40 MLOAD DUP1 SWAP2 SUB SWAP1 RETURN JUMPDEST PUSH1 0x1 SLOAD DUP2 JUMP JUMPDEST PUSH1 0x0 PUSH1 0x20 MSTORE DUP1 PUSH1 0x0 MSTORE PUSH1 0x40 PUSH1 0x0 KECCAK256 PUSH1 0x0 SWAP2 POP SWAP1 POP DUP1 PUSH1 0x0 ADD SLOAD SWAP1 DUP1 PUSH1 0x1 ADD DUP1 SLOAD PUSH1 0x1 DUP2 PUSH1 0x1 AND ISZERO PUSH2 0x100 MUL SUB AND PUSH1 0x2 SWAP1 DIV DUP1 PUSH1 0x1F ADD PUSH1 0x20 DUP1 SWAP2 DIV MUL PUSH1 0x20 ADD PUSH1 0x40 MLOAD SWAP1 DUP2 ADD PUSH1 0x40 MSTORE DUP1 SWAP3 SWAP2 SWAP1 DUP2 DUP2 MSTORE PUSH1 0x20 ADD DUP3 DUP1 SLOAD PUSH1 0x1 DUP2 PUSH1 0x1 AND ISZERO PUSH2 0x100 MUL SUB AND PUSH1 0x2 SWAP1 DIV DUP1 ISZERO PUSH2 0x245 JUMPI DUP1 PUSH1 0x1F LT PUSH2 0x21A JUMPI PUSH2 0x100 DUP1 DUP4 SLOAD DIV MUL DUP4 MSTORE SWAP2 PUSH1 0x20 ADD SWAP2 PUSH2 0x245 JUMP JUMPDEST DUP3 ADD SWAP2 SWAP1 PUSH1 0x0 MSTORE PUSH1 0x20 PUSH1 0x0 KECCAK256 SWAP1 JUMPDEST DUP2 SLOAD DUP2 MSTORE SWAP1 PUSH1 0x1 ADD SWAP1 PUSH1 0x20 ADD DUP1 DUP4 GT PUSH2 0x228 JUMPI DUP3 SWAP1 SUB PUSH1 0x1F AND DUP3 ADD SWAP2 JUMPDEST POP POP POP POP POP SWAP1 DUP1 PUSH1 0x2 ADD PUSH1 0x0 SWAP1 SLOAD SWAP1 PUSH2 0x100 EXP SWAP1 DIV PUSH1 0xFF AND SWAP1 POP DUP4 JUMP JUMPDEST PUSH1 0x60 DUP1 PUSH1 0x60 DUP1 PUSH1 0x1 SLOAD PUSH1 0x40 MLOAD SWAP1 DUP1 DUP3 MSTORE DUP1 PUSH1 0x20 MUL PUSH1 0x20 ADD DUP3 ADD PUSH1 0x40 MSTORE DUP1 ISZERO PUSH2 0x299 JUMPI DUP2 PUSH1 0x20 ADD PUSH1 0x20 DUP3 MUL DUP1 CODESIZE DUP4 CODECOPY DUP1 DUP3 ADD SWAP2 POP POP SWAP1 POP JUMPDEST POP SWAP1 POP PUSH1 0x60 PUSH1 0x1 SLOAD PUSH1 0x40 MLOAD SWAP1 DUP1 DUP3 MSTORE DUP1 PUSH1 0x20 MUL PUSH1 0x20 ADD DUP3 ADD PUSH1 0x40 MSTORE DUP1 ISZERO PUSH2 0x2D4 JUMPI DUP2 PUSH1 0x20 ADD JUMPDEST PUSH1 0x60 DUP2 MSTORE PUSH1 0x20 ADD SWAP1 PUSH1 0x1 SWAP1 SUB SWAP1 DUP2 PUSH2 0x2BF JUMPI SWAP1 POP JUMPDEST POP SWAP1 POP PUSH1 0x60 PUSH1 0x1 SLOAD PUSH1 0x40 MLOAD SWAP1 DUP1 DUP3 MSTORE DUP1 PUSH1 0x20 MUL PUSH1 0x20 ADD DUP3 ADD PUSH1 0x40 MSTORE DUP1 ISZERO PUSH2 0x30A JUMPI DUP2 PUSH1 0x20 ADD PUSH1 0x20 DUP3 MUL DUP1 CODESIZE DUP4 CODECOPY DUP1 DUP3 ADD SWAP2 POP POP SWAP1 POP JUMPDEST POP SWAP1 POP PUSH1 0x0 DUP1 SWAP1 POP JUMPDEST PUSH1 0x1 SLOAD DUP2 LT ISZERO PUSH2 0x442 JUMPI PUSH1 0x0 DUP1 PUSH1 0x0 DUP4 DUP2 MSTORE PUSH1 0x20 ADD SWAP1 DUP2 MSTORE PUSH1 0x20 ADD PUSH1 0x0 KECCAK256 SWAP1 POP DUP1 PUSH1 0x0 ADD SLOAD DUP6 DUP4 DUP2 MLOAD DUP2 LT PUSH2 0x344 JUMPI INVALID JUMPDEST PUSH1 0x20 MUL PUSH1 0x20 ADD ADD DUP2 DUP2 MSTORE POP POP DUP1 PUSH1 0x1 ADD DUP1 SLOAD PUSH1 0x1 DUP2 PUSH1 0x1 AND ISZERO PUSH2 0x100 MUL SUB AND PUSH1 0x2 SWAP1 DIV DUP1 PUSH1 0x1F ADD PUSH1 0x20 DUP1 SWAP2 DIV MUL PUSH1 0x20 ADD PUSH1 0x40 MLOAD SWAP1 DUP2 ADD PUSH1 0x40 MSTORE DUP1 SWAP3 SWAP2 SWAP1 DUP2 DUP2 MSTORE PUSH1 0x20 ADD DUP3 DUP1 SLOAD PUSH1 0x1 DUP2 PUSH1 0x1 AND ISZERO PUSH2 0x100 MUL SUB AND PUSH1 0x2 SWAP1 DIV DUP1 ISZERO PUSH2 0x3E8 JUMPI DUP1 PUSH1 0x1F LT PUSH2 0x3BD JUMPI PUSH2 0x100 DUP1 DUP4 SLOAD DIV MUL DUP4 MSTORE SWAP2 PUSH1 0x20 ADD SWAP2 PUSH2 0x3E8 JUMP JUMPDEST DUP3 ADD SWAP2 SWAP1 PUSH1 0x0 MSTORE PUSH1 0x20 PUSH1 0x0 KECCAK256 SWAP1 JUMPDEST DUP2 SLOAD DUP2 MSTORE SWAP1 PUSH1 0x1 ADD SWAP1 PUSH1 0x20 ADD DUP1 DUP4 GT PUSH2 0x3CB JUMPI DUP3 SWAP1 SUB PUSH1 0x1F AND DUP3 ADD SWAP2 JUMPDEST POP POP POP POP POP DUP5 DUP4 DUP2 MLOAD DUP2 LT PUSH2 0x3F9 JUMPI INVALID JUMPDEST PUSH1 0x20 MUL PUSH1 0x20 ADD ADD DUP2 SWAP1 MSTORE POP DUP1 PUSH1 0x2 ADD PUSH1 0x0 SWAP1 SLOAD SWAP1 PUSH2 0x100 EXP SWAP1 DIV PUSH1 0xFF AND DUP4 DUP4 DUP2 MLOAD DUP2 LT PUSH2 0x422 JUMPI INVALID JUMPDEST PUSH1 0x20 MUL PUSH1 0x20 ADD ADD SWAP1 ISZERO ISZERO SWAP1 DUP2 ISZERO ISZERO DUP2 MSTORE POP POP POP DUP1 DUP1 PUSH1 0x1 ADD SWAP2 POP POP PUSH2 0x313 JUMP JUMPDEST POP DUP3 DUP3 DUP3 SWAP6 POP SWAP6 POP SWAP6 POP POP POP POP SWAP1 SWAP2 SWAP3 JUMP JUMPDEST PUSH1 0x40 MLOAD DUP1 PUSH1 0x60 ADD PUSH1 0x40 MSTORE DUP1 PUSH1 0x1 SLOAD DUP2 MSTORE PUSH1 0x20 ADD DUP4 DUP2 MSTORE PUSH1 0x20 ADD DUP3 ISZERO ISZERO DUP2 MSTORE POP PUSH1 0x0 DUP1 PUSH1 0x1 SLOAD DUP2 MSTORE PUSH1 0x20 ADD SWAP1 DUP2 MSTORE PUSH1 0x20 ADD PUSH1 0x0 KECCAK256 PUSH1 0x0 DUP3 ADD MLOAD DUP2 PUSH1 0x0 ADD SSTORE PUSH1 0x20 DUP3 ADD MLOAD DUP2 PUSH1 0x1 ADD SWAP1 DUP1 MLOAD SWAP1 PUSH1 0x20 ADD SWAP1 PUSH2 0x4AD SWAP3 SWAP2 SWAP1 PUSH2 0x673 JUMP JUMPDEST POP PUSH1 0x40 DUP3 ADD MLOAD DUP2 PUSH1 0x2 ADD PUSH1 0x0 PUSH2 0x100 EXP DUP2 SLOAD DUP2 PUSH1 0xFF MUL NOT AND SWAP1 DUP4 ISZERO ISZERO MUL OR SWAP1 SSTORE POP SWAP1 POP POP PUSH1 0x1 PUSH1 0x0 DUP2 SLOAD DUP1 SWAP3 SWAP2 SWAP1 PUSH1 0x1 ADD SWAP2 SWAP1 POP SSTORE POP POP POP JUMP JUMPDEST PUSH1 0x0 DUP1 SWAP1 POP JUMPDEST PUSH1 0x1 SLOAD DUP2 LT ISZERO PUSH2 0x546 JUMPI PUSH1 0x1 ISZERO ISZERO PUSH1 0x0 DUP1 DUP4 DUP2 MSTORE PUSH1 0x20 ADD SWAP1 DUP2 MSTORE PUSH1 0x20 ADD PUSH1 0x0 KECCAK256 PUSH1 0x2 ADD PUSH1 0x0 SWAP1 SLOAD SWAP1 PUSH2 0x100 EXP SWAP1 DIV PUSH1 0xFF AND ISZERO ISZERO EQ ISZERO PUSH2 0x539 JUMPI PUSH1 0x2 PUSH1 0x0 DUP2 SLOAD DUP1 SWAP3 SWAP2 SWAP1 PUSH1 0x1 ADD SWAP2 SWAP1 POP SSTORE POP JUMPDEST DUP1 DUP1 PUSH1 0x1 ADD SWAP2 POP POP PUSH2 0x4ED JUMP JUMPDEST POP JUMP JUMPDEST DUP1 PUSH1 0x0 DUP1 DUP5 DUP2 MSTORE PUSH1 0x20 ADD SWAP1 DUP2 MSTORE PUSH1 0x20 ADD PUSH1 0x0 KECCAK256 PUSH1 0x2 ADD PUSH1 0x0 PUSH2 0x100 EXP DUP2 SLOAD DUP2 PUSH1 0xFF MUL NOT AND SWAP1 DUP4 ISZERO ISZERO MUL OR SWAP1 SSTORE POP POP POP JUMP JUMPDEST PUSH1 0x2 SLOAD DUP2 JUMP JUMPDEST PUSH2 0x588 PUSH2 0x6F3 JUMP JUMPDEST PUSH1 0x0 DUP1 DUP4 DUP2 MSTORE PUSH1 0x20 ADD SWAP1 DUP2 MSTORE PUSH1 0x20 ADD PUSH1 0x0 KECCAK256 PUSH1 0x40 MLOAD DUP1 PUSH1 0x60 ADD PUSH1 0x40 MSTORE SWAP1 DUP2 PUSH1 0x0 DUP3 ADD SLOAD DUP2 MSTORE PUSH1 0x20 ADD PUSH1 0x1 DUP3 ADD DUP1 SLOAD PUSH1 0x1 DUP2 PUSH1 0x1 AND ISZERO PUSH2 0x100 MUL SUB AND PUSH1 0x2 SWAP1 DIV DUP1 PUSH1 0x1F ADD PUSH1 0x20 DUP1 SWAP2 DIV MUL PUSH1 0x20 ADD PUSH1 0x40 MLOAD SWAP1 DUP2 ADD PUSH1 0x40 MSTORE DUP1 SWAP3 SWAP2 SWAP1 DUP2 DUP2 MSTORE PUSH1 0x20 ADD DUP3 DUP1 SLOAD PUSH1 0x1 DUP2 PUSH1 0x1 AND ISZERO PUSH2 0x100 MUL SUB AND PUSH1 0x2 SWAP1 DIV DUP1 ISZERO PUSH2 0x648 JUMPI DUP1 PUSH1 0x1F LT PUSH2 0x61D JUMPI PUSH2 0x100 DUP1 DUP4 SLOAD DIV MUL DUP4 MSTORE SWAP2 PUSH1 0x20 ADD SWAP2 PUSH2 0x648 JUMP JUMPDEST DUP3 ADD SWAP2 SWAP1 PUSH1 0x0 MSTORE PUSH1 0x20 PUSH1 0x0 KECCAK256 SWAP1 JUMPDEST DUP2 SLOAD DUP2 MSTORE SWAP1 PUSH1 0x1 ADD SWAP1 PUSH1 0x20 ADD DUP1 DUP4 GT PUSH2 0x62B JUMPI DUP3 SWAP1 SUB PUSH1 0x1F AND DUP3 ADD SWAP2 JUMPDEST POP POP POP POP POP DUP2 MSTORE PUSH1 0x20 ADD PUSH1 0x2 DUP3 ADD PUSH1 0x0 SWAP1 SLOAD SWAP1 PUSH2 0x100 EXP SWAP1 DIV PUSH1 0xFF AND ISZERO ISZERO ISZERO ISZERO DUP2 MSTORE POP POP SWAP1 POP SWAP2 SWAP1 POP JUMP JUMPDEST DUP3 DUP1 SLOAD PUSH1 0x1 DUP2 PUSH1 0x1 AND ISZERO PUSH2 0x100 MUL SUB AND PUSH1 0x2 SWAP1 DIV SWAP1 PUSH1 0x0 MSTORE PUSH1 0x20 PUSH1 0x0 KECCAK256 SWAP1 PUSH1 0x1F ADD PUSH1 0x20 SWAP1 DIV DUP2 ADD SWAP3 DUP3 PUSH1 0x1F LT PUSH2 0x6B4 JUMPI DUP1 MLOAD PUSH1 0xFF NOT AND DUP4 DUP1 ADD OR DUP6 SSTORE PUSH2 0x6E2 JUMP JUMPDEST DUP3 DUP1 ADD PUSH1 0x1 ADD DUP6 SSTORE DUP3 ISZERO PUSH2 0x6E2 JUMPI SWAP2 DUP3 ADD JUMPDEST DUP3 DUP2 GT ISZERO PUSH2 0x6E1 JUMPI DUP3 MLOAD DUP3 SSTORE SWAP2 PUSH1 0x20 ADD SWAP2 SWAP1 PUSH1 0x1 ADD SWAP1 PUSH2 0x6C6 JUMP JUMPDEST JUMPDEST POP SWAP1 POP PUSH2 0x6EF SWAP2 SWAP1 PUSH2 0x716 JUMP JUMPDEST POP SWAP1 JUMP JUMPDEST PUSH1 0x40 MLOAD DUP1 PUSH1 0x60 ADD PUSH1 0x40 MSTORE DUP1 PUSH1 0x0 DUP2 MSTORE PUSH1 0x20 ADD PUSH1 0x60 DUP2 MSTORE PUSH1 0x20 ADD PUSH1 0x0 ISZERO ISZERO DUP2 MSTORE POP SWAP1 JUMP JUMPDEST PUSH2 0x738 SWAP2 SWAP1 JUMPDEST DUP1 DUP3 GT ISZERO PUSH2 0x734 JUMPI PUSH1 0x0 DUP2 PUSH1 0x0 SWAP1 SSTORE POP PUSH1 0x1 ADD PUSH2 0x71C JUMP JUMPDEST POP SWAP1 JUMP JUMPDEST SWAP1 JUMP JUMPDEST PUSH1 0x0 DUP2 CALLDATALOAD SWAP1 POP PUSH2 0x74A DUP2 PUSH2 0xD46 JUMP JUMPDEST SWAP3 SWAP2 POP POP JUMP JUMPDEST PUSH1 0x0 DUP3 PUSH1 0x1F DUP4 ADD SLT PUSH2 0x761 JUMPI PUSH1 0x0 DUP1 REVERT JUMPDEST DUP2 CALLDATALOAD PUSH2 0x774 PUSH2 0x76F DUP3 PUSH2 0xBD9 JUMP JUMPDEST PUSH2 0xBAC JUMP JUMPDEST SWAP2 POP DUP1 DUP3 MSTORE PUSH1 0x20 DUP4 ADD PUSH1 0x20 DUP4 ADD DUP6 DUP4 DUP4 ADD GT ISZERO PUSH2 0x790 JUMPI PUSH1 0x0 DUP1 REVERT JUMPDEST PUSH2 0x79B DUP4 DUP3 DUP5 PUSH2 0xCF3 JUMP JUMPDEST POP POP POP SWAP3 SWAP2 POP POP JUMP JUMPDEST PUSH1 0x0 DUP2 CALLDATALOAD SWAP1 POP PUSH2 0x7B3 DUP2 PUSH2 0xD5D JUMP JUMPDEST SWAP3 SWAP2 POP POP JUMP JUMPDEST PUSH1 0x0 DUP1 PUSH1 0x40 DUP4 DUP6 SUB SLT ISZERO PUSH2 0x7CC JUMPI PUSH1 0x0 DUP1 REVERT JUMPDEST PUSH1 0x0 DUP4 ADD CALLDATALOAD PUSH8 0xFFFFFFFFFFFFFFFF DUP2 GT ISZERO PUSH2 0x7E6 JUMPI PUSH1 0x0 DUP1 REVERT JUMPDEST PUSH2 0x7F2 DUP6 DUP3 DUP7 ADD PUSH2 0x750 JUMP JUMPDEST SWAP3 POP POP PUSH1 0x20 PUSH2 0x803 DUP6 DUP3 DUP7 ADD PUSH2 0x73B JUMP JUMPDEST SWAP2 POP POP SWAP3 POP SWAP3 SWAP1 POP JUMP JUMPDEST PUSH1 0x0 PUSH1 0x20 DUP3 DUP5 SUB SLT ISZERO PUSH2 0x81F JUMPI PUSH1 0x0 DUP1 REVERT JUMPDEST PUSH1 0x0 PUSH2 0x82D DUP5 DUP3 DUP6 ADD PUSH2 0x7A4 JUMP JUMPDEST SWAP2 POP POP SWAP3 SWAP2 POP POP JUMP JUMPDEST PUSH1 0x0 DUP1 PUSH1 0x40 DUP4 DUP6 SUB SLT ISZERO PUSH2 0x849 JUMPI PUSH1 0x0 DUP1 REVERT JUMPDEST PUSH1 0x0 PUSH2 0x857 DUP6 DUP3 DUP7 ADD PUSH2 0x7A4 JUMP JUMPDEST SWAP3 POP POP PUSH1 0x20 PUSH2 0x868 DUP6 DUP3 DUP7 ADD PUSH2 0x73B JUMP JUMPDEST SWAP2 POP POP SWAP3 POP SWAP3 SWAP1 POP JUMP JUMPDEST PUSH1 0x0 PUSH2 0x87E DUP4 DUP4 PUSH2 0x9E7 JUMP JUMPDEST PUSH1 0x20 DUP4 ADD SWAP1 POP SWAP3 SWAP2 POP POP JUMP JUMPDEST PUSH1 0x0 PUSH2 0x896 DUP4 DUP4 PUSH2 0xA05 JUMP JUMPDEST SWAP1 POP SWAP3 SWAP2 POP POP JUMP JUMPDEST PUSH1 0x0 PUSH2 0x8AA DUP4 DUP4 PUSH2 0xAC7 JUMP JUMPDEST PUSH1 0x20 DUP4 ADD SWAP1 POP SWAP3 SWAP2 POP POP JUMP JUMPDEST PUSH1 0x0 PUSH2 0x8C1 DUP3 PUSH2 0xC35 JUMP JUMPDEST PUSH2 0x8CB DUP2 DUP6 PUSH2 0xC88 JUMP JUMPDEST SWAP4 POP PUSH2 0x8D6 DUP4 PUSH2 0xC05 JUMP JUMPDEST DUP1 PUSH1 0x0 JUMPDEST DUP4 DUP2 LT ISZERO PUSH2 0x907 JUMPI DUP2 MLOAD PUSH2 0x8EE DUP9 DUP3 PUSH2 0x872 JUMP JUMPDEST SWAP8 POP PUSH2 0x8F9 DUP4 PUSH2 0xC61 JUMP JUMPDEST SWAP3 POP POP PUSH1 0x1 DUP2 ADD SWAP1 POP PUSH2 0x8DA JUMP JUMPDEST POP DUP6 SWAP4 POP POP POP POP SWAP3 SWAP2 POP POP JUMP JUMPDEST PUSH1 0x0 PUSH2 0x91F DUP3 PUSH2 0xC40 JUMP JUMPDEST PUSH2 0x929 DUP2 DUP6 PUSH2 0xC99 JUMP JUMPDEST SWAP4 POP DUP4 PUSH1 0x20 DUP3 MUL DUP6 ADD PUSH2 0x93B DUP6 PUSH2 0xC15 JUMP JUMPDEST DUP1 PUSH1 0x0 JUMPDEST DUP6 DUP2 LT ISZERO PUSH2 0x977 JUMPI DUP5 DUP5 SUB DUP10 MSTORE DUP2 MLOAD PUSH2 0x958 DUP6 DUP3 PUSH2 0x88A JUMP JUMPDEST SWAP5 POP PUSH2 0x963 DUP4 PUSH2 0xC6E JUMP JUMPDEST SWAP3 POP PUSH1 0x20 DUP11 ADD SWAP10 POP POP PUSH1 0x1 DUP2 ADD SWAP1 POP PUSH2 0x93F JUMP JUMPDEST POP DUP3 SWAP8 POP DUP8 SWAP6 POP POP POP POP POP POP SWAP3 SWAP2 POP POP JUMP JUMPDEST PUSH1 0x0 PUSH2 0x994 DUP3 PUSH2 0xC4B JUMP JUMPDEST PUSH2 0x99E DUP2 DUP6 PUSH2 0xCAA JUMP JUMPDEST SWAP4 POP PUSH2 0x9A9 DUP4 PUSH2 0xC25 JUMP JUMPDEST DUP1 PUSH1 0x0 JUMPDEST DUP4 DUP2 LT ISZERO PUSH2 0x9DA JUMPI DUP2 MLOAD PUSH2 0x9C1 DUP9 DUP3 PUSH2 0x89E JUMP JUMPDEST SWAP8 POP PUSH2 0x9CC DUP4 PUSH2 0xC7B JUMP JUMPDEST SWAP3 POP POP PUSH1 0x1 DUP2 ADD SWAP1 POP PUSH2 0x9AD JUMP JUMPDEST POP DUP6 SWAP4 POP POP POP POP SWAP3 SWAP2 POP POP JUMP JUMPDEST PUSH2 0x9F0 DUP2 PUSH2 0xCDD JUMP JUMPDEST DUP3 MSTORE POP POP JUMP JUMPDEST PUSH2 0x9FF DUP2 PUSH2 0xCDD JUMP JUMPDEST DUP3 MSTORE POP POP JUMP JUMPDEST PUSH1 0x0 PUSH2 0xA10 DUP3 PUSH2 0xC56 JUMP JUMPDEST PUSH2 0xA1A DUP2 DUP6 PUSH2 0xCBB JUMP JUMPDEST SWAP4 POP PUSH2 0xA2A DUP2 DUP6 PUSH1 0x20 DUP7 ADD PUSH2 0xD02 JUMP JUMPDEST PUSH2 0xA33 DUP2 PUSH2 0xD35 JUMP JUMPDEST DUP5 ADD SWAP2 POP POP SWAP3 SWAP2 POP POP JUMP JUMPDEST PUSH1 0x0 PUSH2 0xA49 DUP3 PUSH2 0xC56 JUMP JUMPDEST PUSH2 0xA53 DUP2 DUP6 PUSH2 0xCCC JUMP JUMPDEST SWAP4 POP PUSH2 0xA63 DUP2 DUP6 PUSH1 0x20 DUP7 ADD PUSH2 0xD02 JUMP JUMPDEST PUSH2 0xA6C DUP2 PUSH2 0xD35 JUMP JUMPDEST DUP5 ADD SWAP2 POP POP SWAP3 SWAP2 POP POP JUMP JUMPDEST PUSH1 0x0 PUSH1 0x60 DUP4 ADD PUSH1 0x0 DUP4 ADD MLOAD PUSH2 0xA8F PUSH1 0x0 DUP7 ADD DUP3 PUSH2 0xAC7 JUMP JUMPDEST POP PUSH1 0x20 DUP4 ADD MLOAD DUP5 DUP3 SUB PUSH1 0x20 DUP7 ADD MSTORE PUSH2 0xAA7 DUP3 DUP3 PUSH2 0xA05 JUMP JUMPDEST SWAP2 POP POP PUSH1 0x40 DUP4 ADD MLOAD PUSH2 0xABC PUSH1 0x40 DUP7 ADD DUP3 PUSH2 0x9E7 JUMP JUMPDEST POP DUP1 SWAP2 POP POP SWAP3 SWAP2 POP POP JUMP JUMPDEST PUSH2 0xAD0 DUP2 PUSH2 0xCE9 JUMP JUMPDEST DUP3 MSTORE POP POP JUMP JUMPDEST PUSH2 0xADF DUP2 PUSH2 0xCE9 JUMP JUMPDEST DUP3 MSTORE POP POP JUMP JUMPDEST PUSH1 0x0 PUSH1 0x60 DUP3 ADD SWAP1 POP DUP2 DUP2 SUB PUSH1 0x0 DUP4 ADD MSTORE PUSH2 0xAFF DUP2 DUP7 PUSH2 0x989 JUMP JUMPDEST SWAP1 POP DUP2 DUP2 SUB PUSH1 0x20 DUP4 ADD MSTORE PUSH2 0xB13 DUP2 DUP6 PUSH2 0x914 JUMP JUMPDEST SWAP1 POP DUP2 DUP2 SUB PUSH1 0x40 DUP4 ADD MSTORE PUSH2 0xB27 DUP2 DUP5 PUSH2 0x8B6 JUMP JUMPDEST SWAP1 POP SWAP5 SWAP4 POP POP POP POP JUMP JUMPDEST PUSH1 0x0 PUSH1 0x20 DUP3 ADD SWAP1 POP DUP2 DUP2 SUB PUSH1 0x0 DUP4 ADD MSTORE PUSH2 0xB4B DUP2 DUP5 PUSH2 0xA77 JUMP JUMPDEST SWAP1 POP SWAP3 SWAP2 POP POP JUMP JUMPDEST PUSH1 0x0 PUSH1 0x20 DUP3 ADD SWAP1 POP PUSH2 0xB68 PUSH1 0x0 DUP4 ADD DUP5 PUSH2 0xAD6 JUMP JUMPDEST SWAP3 SWAP2 POP POP JUMP JUMPDEST PUSH1 0x0 PUSH1 0x60 DUP3 ADD SWAP1 POP PUSH2 0xB83 PUSH1 0x0 DUP4 ADD DUP7 PUSH2 0xAD6 JUMP JUMPDEST DUP2 DUP2 SUB PUSH1 0x20 DUP4 ADD MSTORE PUSH2 0xB95 DUP2 DUP6 PUSH2 0xA3E JUMP JUMPDEST SWAP1 POP PUSH2 0xBA4 PUSH1 0x40 DUP4 ADD DUP5 PUSH2 0x9F6 JUMP JUMPDEST SWAP5 SWAP4 POP POP POP POP JUMP JUMPDEST PUSH1 0x0 PUSH1 0x40 MLOAD SWAP1 POP DUP2 DUP2 ADD DUP2 DUP2 LT PUSH8 0xFFFFFFFFFFFFFFFF DUP3 GT OR ISZERO PUSH2 0xBCF JUMPI PUSH1 0x0 DUP1 REVERT JUMPDEST DUP1 PUSH1 0x40 MSTORE POP SWAP2 SWAP1 POP JUMP JUMPDEST PUSH1 0x0 PUSH8 0xFFFFFFFFFFFFFFFF DUP3 GT ISZERO PUSH2 0xBF0 JUMPI PUSH1 0x0 DUP1 REVERT JUMPDEST PUSH1 0x1F NOT PUSH1 0x1F DUP4 ADD AND SWAP1 POP PUSH1 0x20 DUP2 ADD SWAP1 POP SWAP2 SWAP1 POP JUMP JUMPDEST PUSH1 0x0 DUP2 SWAP1 POP PUSH1 0x20 DUP3 ADD SWAP1 POP SWAP2 SWAP1 POP JUMP JUMPDEST PUSH1 0x0 DUP2 SWAP1 POP PUSH1 0x20 DUP3 ADD SWAP1 POP SWAP2 SWAP1 POP JUMP JUMPDEST PUSH1 0x0 DUP2 SWAP1 POP PUSH1 0x20 DUP3 ADD SWAP1 POP SWAP2 SWAP1 POP JUMP JUMPDEST PUSH1 0x0 DUP2 MLOAD SWAP1 POP SWAP2 SWAP1 POP JUMP JUMPDEST PUSH1 0x0 DUP2 MLOAD SWAP1 POP SWAP2 SWAP1 POP JUMP JUMPDEST PUSH1 0x0 DUP2 MLOAD SWAP1 POP SWAP2 SWAP1 POP JUMP JUMPDEST PUSH1 0x0 DUP2 MLOAD SWAP1 POP SWAP2 SWAP1 POP JUMP JUMPDEST PUSH1 0x0 PUSH1 0x20 DUP3 ADD SWAP1 POP SWAP2 SWAP1 POP JUMP JUMPDEST PUSH1 0x0 PUSH1 0x20 DUP3 ADD SWAP1 POP SWAP2 SWAP1 POP JUMP JUMPDEST PUSH1 0x0 PUSH1 0x20 DUP3 ADD SWAP1 POP SWAP2 SWAP1 POP JUMP JUMPDEST PUSH1 0x0 DUP3 DUP3 MSTORE PUSH1 0x20 DUP3 ADD SWAP1 POP SWAP3 SWAP2 POP POP JUMP JUMPDEST PUSH1 0x0 DUP3 DUP3 MSTORE PUSH1 0x20 DUP3 ADD SWAP1 POP SWAP3 SWAP2 POP POP JUMP JUMPDEST PUSH1 0x0 DUP3 DUP3 MSTORE PUSH1 0x20 DUP3 ADD SWAP1 POP SWAP3 SWAP2 POP POP JUMP JUMPDEST PUSH1 0x0 DUP3 DUP3 MSTORE PUSH1 0x20 DUP3 ADD SWAP1 POP SWAP3 SWAP2 POP POP JUMP JUMPDEST PUSH1 0x0 DUP3 DUP3 MSTORE PUSH1 0x20 DUP3 ADD SWAP1 POP SWAP3 SWAP2 POP POP JUMP JUMPDEST PUSH1 0x0 DUP2 ISZERO ISZERO SWAP1 POP SWAP2 SWAP1 POP JUMP JUMPDEST PUSH1 0x0 DUP2 SWAP1 POP SWAP2 SWAP1 POP JUMP JUMPDEST DUP3 DUP2 DUP4 CALLDATACOPY PUSH1 0x0 DUP4 DUP4 ADD MSTORE POP POP POP JUMP JUMPDEST PUSH1 0x0 JUMPDEST DUP4 DUP2 LT ISZERO PUSH2 0xD20 JUMPI DUP1 DUP3 ADD MLOAD DUP2 DUP5 ADD MSTORE PUSH1 0x20 DUP2 ADD SWAP1 POP PUSH2 0xD05 JUMP JUMPDEST DUP4 DUP2 GT ISZERO PUSH2 0xD2F JUMPI PUSH1 0x0 DUP5 DUP5 ADD MSTORE JUMPDEST POP POP POP POP JUMP JUMPDEST PUSH1 0x0 PUSH1 0x1F NOT PUSH1 0x1F DUP4 ADD AND SWAP1 POP SWAP2 SWAP1 POP JUMP JUMPDEST PUSH2 0xD4F DUP2 PUSH2 0xCDD JUMP JUMPDEST DUP2 EQ PUSH2 0xD5A JUMPI PUSH1 0x0 DUP1 REVERT JUMPDEST POP JUMP JUMPDEST PUSH2 0xD66 DUP2 PUSH2 0xCE9 JUMP JUMPDEST DUP2 EQ PUSH2 0xD71 JUMPI PUSH1 0x0 DUP1 REVERT JUMPDEST POP JUMP INVALID LOG2 PUSH5 0x6970667358 0x22 SLT KECCAK256 PUSH7 0xB5C7820A6F84C3 REVERT DUP4 SWAP15 0xAF DUP6 0xC6 0xCD RETURN BLOCKHASH EXTCODESIZE SWAP1 0xE9 PUSH26 0xA7C7E07303DFFFD332A7F064736F6C6343000600003300000000 "
				},
				"gasEstimates": {
					"creation": {
						"codeDepositCost": "699600",
						"executionCost": "infinite",
						"totalCost": "infinite"
					},
					"external": {
						"addMember(string,bool)": "infinite",
						"getCountOfVoted()": "infinite",
						"getMemberStructure(uint256)": "infinite",
						"getMemberValue()": "infinite",
						"memberCount()": "1130",
						"members(uint256)": "infinite",
						"setVote(uint256,bool)": "21558",
						"votedCount()": "1173"
					}
				},
				"methodIdentifiers": {
					"addMember(string,bool)": "92c68389",
					"getCountOfVoted()": "93d6bb5e",
					"getMemberStructure(uint256)": "f97698f8",
					"getMemberValue()": "6f416d59",
					"memberCount()": "11aee380",
					"members(uint256)": "5daf08ca",
					"setVote(uint256,bool)": "d3516b7e",
					"votedCount()": "f0232d0a"
				}
			},
			"storageLayout": {
				"storage": [
					{
						"astId": 13,
						"contract": "contracts/fun_stuff.sol:VoteSaving",
						"label": "members",
						"offset": 0,
						"slot": "0",
						"type": "t_mapping(t_uint256,t_struct(Member)9_storage)"
					},
					{
						"astId": 19,
						"contract": "contracts/fun_stuff.sol:VoteSaving",
						"label": "memberCount",
						"offset": 0,
						"slot": "1",
						"type": "t_uint256"
					},
					{
						"astId": 21,
						"contract": "contracts/fun_stuff.sol:VoteSaving",
						"label": "votedCount",
						"offset": 0,
						"slot": "2",
						"type": "t_uint256"
					}
				],
				"types": {
					"t_bool": {
						"encoding": "inplace",
						"label": "bool",
						"numberOfBytes": "1"
					},
					"t_mapping(t_uint256,t_struct(Member)9_storage)": {
						"encoding": "mapping",
						"key": "t_uint256",
						"label": "mapping(uint256 => struct VoteSaving.Member)",
						"numberOfBytes": "32",
						"value": "t_struct(Member)9_storage"
					},
					"t_string_storage": {
						"encoding": "bytes",
						"label": "string",
						"numberOfBytes": "32"
					},
					"t_struct(Member)9_storage": {
						"encoding": "inplace",
						"label": "struct VoteSaving.Member",
						"members": [
							{
								"astId": 4,
								"contract": "contracts/fun_stuff.sol:VoteSaving",
								"label": "id",
								"offset": 0,
								"slot": "0",
								"type": "t_uint256"
							},
							{
								"astId": 6,
								"contract": "contracts/fun_stuff.sol:VoteSaving",
								"label": "name",
								"offset": 0,
								"slot": "1",
								"type": "t_string_storage"
							},
							{
								"astId": 8,
								"contract": "contracts/fun_stuff.sol:VoteSaving",
								"label": "isVoted",
								"offset": 0,
								"slot": "2",
								"type": "t_bool"
							}
						],
						"numberOfBytes": "96"
					},
					"t_uint256": {
						"encoding": "inplace",
						"label": "uint256",
						"numberOfBytes": "32"
					}
				}
			},
			"userdoc": {
				"methods": {}
			}
		}
	}
}