{
	"contracts/prop_test.sol": {
		"Ballot": {
			"abi": [
				{
					"inputs": [],
					"name": "chairperson",
					"outputs": [
						{
							"internalType": "address",
							"name": "",
							"type": "address"
						}
					],
					"stateMutability": "view",
					"type": "function"
				},
				{
					"inputs": [
						{
							"internalType": "string[]",
							"name": "proposalNames",
							"type": "string[]"
						}
					],
					"name": "createBallot",
					"outputs": [],
					"stateMutability": "nonpayable",
					"type": "function"
				},
				{
					"inputs": [
						{
							"internalType": "address",
							"name": "voter",
							"type": "address"
						}
					],
					"name": "giveRightToVote",
					"outputs": [],
					"stateMutability": "nonpayable",
					"type": "function"
				},
				{
					"inputs": [
						{
							"internalType": "uint256",
							"name": "",
							"type": "uint256"
						}
					],
					"name": "proposals",
					"outputs": [
						{
							"internalType": "string",
							"name": "name",
							"type": "string"
						},
						{
							"internalType": "uint256",
							"name": "voteCount",
							"type": "uint256"
						}
					],
					"stateMutability": "view",
					"type": "function"
				},
				{
					"inputs": [
						{
							"internalType": "uint256",
							"name": "_time",
							"type": "uint256"
						}
					],
					"name": "setTime",
					"outputs": [],
					"stateMutability": "nonpayable",
					"type": "function"
				},
				{
					"inputs": [
						{
							"internalType": "uint256",
							"name": "proposal",
							"type": "uint256"
						}
					],
					"name": "vote",
					"outputs": [],
					"stateMutability": "nonpayable",
					"type": "function"
				},
				{
					"inputs": [
						{
							"internalType": "address",
							"name": "",
							"type": "address"
						}
					],
					"name": "voters",
					"outputs": [
						{
							"internalType": "uint256",
							"name": "weight",
							"type": "uint256"
						},
						{
							"internalType": "bool",
							"name": "voted",
							"type": "bool"
						},
						{
							"internalType": "address",
							"name": "delegate",
							"type": "address"
						},
						{
							"internalType": "uint256",
							"name": "vote",
							"type": "uint256"
						}
					],
					"stateMutability": "view",
					"type": "function"
				}
			],
			"devdoc": {
				"kind": "dev",
				"methods": {},
				"version": 1
			},
			"evm": {
				"assembly": "    /* \"contracts/prop_test.sol\":60:2550  contract Ballot {\r... */\n  mstore(0x40, 0x80)\n  callvalue\n  dup1\n  iszero\n  tag_1\n  jumpi\n  0x00\n  dup1\n  revert\ntag_1:\n  pop\n  dataSize(sub_0)\n  dup1\n  dataOffset(sub_0)\n  0x00\n  codecopy\n  0x00\n  return\nstop\n\nsub_0: assembly {\n        /* \"contracts/prop_test.sol\":60:2550  contract Ballot {\r... */\n      mstore(0x40, 0x80)\n      callvalue\n      dup1\n      iszero\n      tag_1\n      jumpi\n      0x00\n      dup1\n      revert\n    tag_1:\n      pop\n      jumpi(tag_2, lt(calldatasize, 0x04))\n      shr(0xe0, calldataload(0x00))\n      dup1\n      0x3beb26c4\n      gt\n      tag_10\n      jumpi\n      dup1\n      0x3beb26c4\n      eq\n      tag_6\n      jumpi\n      dup1\n      0x836bc692\n      eq\n      tag_7\n      jumpi\n      dup1\n      0x9e7b8d61\n      eq\n      tag_8\n      jumpi\n      dup1\n      0xa3ec138d\n      eq\n      tag_9\n      jumpi\n      jump(tag_2)\n    tag_10:\n      dup1\n      0x0121b93f\n      eq\n      tag_3\n      jumpi\n      dup1\n      0x013cf08b\n      eq\n      tag_4\n      jumpi\n      dup1\n      0x2e4176cf\n      eq\n      tag_5\n      jumpi\n    tag_2:\n      0x00\n      dup1\n      revert\n        /* \"contracts/prop_test.sol\":2079:2468  function vote(uint proposal) public {\r... */\n    tag_3:\n      tag_11\n      0x04\n      dup1\n      calldatasize\n      sub\n      dup2\n      add\n      swap1\n      tag_12\n      swap2\n      swap1\n      tag_13\n      jump\t// in\n    tag_12:\n      tag_14\n      jump\t// in\n    tag_11:\n      stop\n        /* \"contracts/prop_test.sol\":793:820  Proposal[] public proposals */\n    tag_4:\n      tag_15\n      0x04\n      dup1\n      calldatasize\n      sub\n      dup2\n      add\n      swap1\n      tag_16\n      swap2\n      swap1\n      tag_13\n      jump\t// in\n    tag_16:\n      tag_17\n      jump\t// in\n    tag_15:\n      mload(0x40)\n      tag_18\n      swap3\n      swap2\n      swap1\n      tag_19\n      jump\t// in\n    tag_18:\n      mload(0x40)\n      dup1\n      swap2\n      sub\n      swap1\n      return\n        /* \"contracts/prop_test.sol\":550:576  address public chairperson */\n    tag_5:\n      tag_20\n      tag_21\n      jump\t// in\n    tag_20:\n      mload(0x40)\n      tag_22\n      swap2\n      swap1\n      tag_23\n      jump\t// in\n    tag_22:\n      mload(0x40)\n      dup1\n      swap2\n      sub\n      swap1\n      return\n        /* \"contracts/prop_test.sol\":2476:2547  function setTime(uint _time) public{\r... */\n    tag_6:\n      tag_24\n      0x04\n      dup1\n      calldatasize\n      sub\n      dup2\n      add\n      swap1\n      tag_25\n      swap2\n      swap1\n      tag_13\n      jump\t// in\n    tag_25:\n      tag_26\n      jump\t// in\n    tag_24:\n      stop\n        /* \"contracts/prop_test.sol\":829:1481  function createBallot(string[] memory proposalNames) public {\r... */\n    tag_7:\n      tag_27\n      0x04\n      dup1\n      calldatasize\n      sub\n      dup2\n      add\n      swap1\n      tag_28\n      swap2\n      swap1\n      tag_29\n      jump\t// in\n    tag_28:\n      tag_30\n      jump\t// in\n    tag_27:\n      stop\n        /* \"contracts/prop_test.sol\":1489:2071  function giveRightToVote(address voter) public {\r... */\n    tag_8:\n      tag_31\n      0x04\n      dup1\n      calldatasize\n      sub\n      dup2\n      add\n      swap1\n      tag_32\n      swap2\n      swap1\n      tag_33\n      jump\t// in\n    tag_32:\n      tag_34\n      jump\t// in\n    tag_31:\n      stop\n        /* \"contracts/prop_test.sol\":688:727  mapping(address => Voter) public voters */\n    tag_9:\n      tag_35\n      0x04\n      dup1\n      calldatasize\n      sub\n      dup2\n      add\n      swap1\n      tag_36\n      swap2\n      swap1\n      tag_33\n      jump\t// in\n    tag_36:\n      tag_37\n      jump\t// in\n    tag_35:\n      mload(0x40)\n      tag_38\n      swap5\n      swap4\n      swap3\n      swap2\n      swap1\n      tag_39\n      jump\t// in\n    tag_38:\n      mload(0x40)\n      dup1\n      swap2\n      sub\n      swap1\n      return\n        /* \"contracts/prop_test.sol\":2079:2468  function vote(uint proposal) public {\r... */\n    tag_14:\n        /* \"contracts/prop_test.sol\":2126:2146  Voter storage sender */\n      0x00\n        /* \"contracts/prop_test.sol\":2149:2155  voters */\n      0x02\n        /* \"contracts/prop_test.sol\":2149:2167  voters[msg.sender] */\n      0x00\n        /* \"contracts/prop_test.sol\":2156:2166  msg.sender */\n      caller\n        /* \"contracts/prop_test.sol\":2149:2167  voters[msg.sender] */\n      0xffffffffffffffffffffffffffffffffffffffff\n      and\n      0xffffffffffffffffffffffffffffffffffffffff\n      and\n      dup2\n      mstore\n      0x20\n      add\n      swap1\n      dup2\n      mstore\n      0x20\n      add\n      0x00\n      keccak256\n        /* \"contracts/prop_test.sol\":2126:2167  Voter storage sender = voters[msg.sender] */\n      swap1\n      pop\n        /* \"contracts/prop_test.sol\":2187:2193  sender */\n      dup1\n        /* \"contracts/prop_test.sol\":2187:2199  sender.voted */\n      0x01\n      add\n      0x00\n      swap1\n      sload\n      swap1\n      0x0100\n      exp\n      swap1\n      div\n      0xff\n      and\n        /* \"contracts/prop_test.sol\":2186:2199  !sender.voted */\n      iszero\n        /* \"contracts/prop_test.sol\":2178:2200  require(!sender.voted) */\n      tag_41\n      jumpi\n      0x00\n      dup1\n      revert\n    tag_41:\n        /* \"contracts/prop_test.sol\":2226:2230  true */\n      0x01\n        /* \"contracts/prop_test.sol\":2211:2217  sender */\n      dup2\n        /* \"contracts/prop_test.sol\":2211:2223  sender.voted */\n      0x01\n      add\n      0x00\n        /* \"contracts/prop_test.sol\":2211:2230  sender.voted = true */\n      0x0100\n      exp\n      dup2\n      sload\n      dup2\n      0xff\n      mul\n      not\n      and\n      swap1\n      dup4\n      iszero\n      iszero\n      mul\n      or\n      swap1\n      sstore\n      pop\n        /* \"contracts/prop_test.sol\":2255:2263  proposal */\n      dup2\n        /* \"contracts/prop_test.sol\":2241:2247  sender */\n      dup2\n        /* \"contracts/prop_test.sol\":2241:2252  sender.vote */\n      0x02\n      add\n        /* \"contracts/prop_test.sol\":2241:2263  sender.vote = proposal */\n      dup2\n      swap1\n      sstore\n      pop\n        /* \"contracts/prop_test.sol\":2447:2453  sender */\n      dup1\n        /* \"contracts/prop_test.sol\":2447:2460  sender.weight */\n      0x00\n      add\n      sload\n        /* \"contracts/prop_test.sol\":2414:2423  proposals */\n      0x03\n        /* \"contracts/prop_test.sol\":2424:2432  proposal */\n      dup4\n        /* \"contracts/prop_test.sol\":2414:2433  proposals[proposal] */\n      dup2\n      sload\n      dup2\n      lt\n      tag_42\n      jumpi\n      mstore(0x00, 0x4e487b7100000000000000000000000000000000000000000000000000000000)\n      mstore(0x04, 0x32)\n      revert(0x00, 0x24)\n    tag_42:\n      swap1\n      0x00\n      mstore\n      keccak256(0x00, 0x20)\n      swap1\n      0x02\n      mul\n      add\n        /* \"contracts/prop_test.sol\":2414:2443  proposals[proposal].voteCount */\n      0x01\n      add\n      0x00\n        /* \"contracts/prop_test.sol\":2414:2460  proposals[proposal].voteCount += sender.weight */\n      dup3\n      dup3\n      sload\n      tag_44\n      swap2\n      swap1\n      tag_45\n      jump\t// in\n    tag_44:\n      swap3\n      pop\n      pop\n      dup2\n      swap1\n      sstore\n      pop\n        /* \"contracts/prop_test.sol\":2079:2468  function vote(uint proposal) public {\r... */\n      pop\n      pop\n      jump\t// out\n        /* \"contracts/prop_test.sol\":793:820  Proposal[] public proposals */\n    tag_17:\n      0x03\n      dup2\n      dup2\n      sload\n      dup2\n      lt\n      tag_46\n      jumpi\n      0x00\n      dup1\n      revert\n    tag_46:\n      swap1\n      0x00\n      mstore\n      keccak256(0x00, 0x20)\n      swap1\n      0x02\n      mul\n      add\n      0x00\n      swap2\n      pop\n      swap1\n      pop\n      dup1\n      0x00\n      add\n      dup1\n      sload\n      tag_48\n      swap1\n      tag_49\n      jump\t// in\n    tag_48:\n      dup1\n      0x1f\n      add\n      0x20\n      dup1\n      swap2\n      div\n      mul\n      0x20\n      add\n      mload(0x40)\n      swap1\n      dup2\n      add\n      0x40\n      mstore\n      dup1\n      swap3\n      swap2\n      swap1\n      dup2\n      dup2\n      mstore\n      0x20\n      add\n      dup3\n      dup1\n      sload\n      tag_50\n      swap1\n      tag_49\n      jump\t// in\n    tag_50:\n      dup1\n      iszero\n      tag_51\n      jumpi\n      dup1\n      0x1f\n      lt\n      tag_52\n      jumpi\n      0x0100\n      dup1\n      dup4\n      sload\n      div\n      mul\n      dup4\n      mstore\n      swap2\n      0x20\n      add\n      swap2\n      jump(tag_51)\n    tag_52:\n      dup3\n      add\n      swap2\n      swap1\n      0x00\n      mstore\n      keccak256(0x00, 0x20)\n      swap1\n    tag_53:\n      dup2\n      sload\n      dup2\n      mstore\n      swap1\n      0x01\n      add\n      swap1\n      0x20\n      add\n      dup1\n      dup4\n      gt\n      tag_53\n      jumpi\n      dup3\n      swap1\n      sub\n      0x1f\n      and\n      dup3\n      add\n      swap2\n    tag_51:\n      pop\n      pop\n      pop\n      pop\n      pop\n      swap1\n      dup1\n      0x01\n      add\n      sload\n      swap1\n      pop\n      dup3\n      jump\t// out\n        /* \"contracts/prop_test.sol\":550:576  address public chairperson */\n    tag_21:\n      0x01\n      0x00\n      swap1\n      sload\n      swap1\n      0x0100\n      exp\n      swap1\n      div\n      0xffffffffffffffffffffffffffffffffffffffff\n      and\n      dup2\n      jump\t// out\n        /* \"contracts/prop_test.sol\":2476:2547  function setTime(uint _time) public{\r... */\n    tag_26:\n        /* \"contracts/prop_test.sol\":2534:2539  _time */\n      dup1\n        /* \"contracts/prop_test.sol\":2522:2531  startDate */\n      0x00\n        /* \"contracts/prop_test.sol\":2522:2539  startDate = _time */\n      dup2\n      swap1\n      sstore\n      pop\n        /* \"contracts/prop_test.sol\":2476:2547  function setTime(uint _time) public{\r... */\n      pop\n      jump\t// out\n        /* \"contracts/prop_test.sol\":829:1481  function createBallot(string[] memory proposalNames) public {\r... */\n    tag_30:\n        /* \"contracts/prop_test.sol\":914:924  msg.sender */\n      caller\n        /* \"contracts/prop_test.sol\":900:911  chairperson */\n      0x01\n      0x00\n        /* \"contracts/prop_test.sol\":900:924  chairperson = msg.sender */\n      0x0100\n      exp\n      dup2\n      sload\n      dup2\n      0xffffffffffffffffffffffffffffffffffffffff\n      mul\n      not\n      and\n      swap1\n      dup4\n      0xffffffffffffffffffffffffffffffffffffffff\n      and\n      mul\n      or\n      swap1\n      sstore\n      pop\n        /* \"contracts/prop_test.sol\":964:965  1 */\n      0x01\n        /* \"contracts/prop_test.sol\":935:941  voters */\n      0x02\n        /* \"contracts/prop_test.sol\":935:954  voters[chairperson] */\n      0x00\n        /* \"contracts/prop_test.sol\":942:953  chairperson */\n      0x01\n      0x00\n      swap1\n      sload\n      swap1\n      0x0100\n      exp\n      swap1\n      div\n      0xffffffffffffffffffffffffffffffffffffffff\n      and\n        /* \"contracts/prop_test.sol\":935:954  voters[chairperson] */\n      0xffffffffffffffffffffffffffffffffffffffff\n      and\n      0xffffffffffffffffffffffffffffffffffffffff\n      and\n      dup2\n      mstore\n      0x20\n      add\n      swap1\n      dup2\n      mstore\n      0x20\n      add\n      0x00\n      keccak256\n        /* \"contracts/prop_test.sol\":935:961  voters[chairperson].weight */\n      0x00\n      add\n        /* \"contracts/prop_test.sol\":935:965  voters[chairperson].weight = 1 */\n      dup2\n      swap1\n      sstore\n      pop\n        /* \"contracts/prop_test.sol\":1125:1131  uint i */\n      0x00\n        /* \"contracts/prop_test.sol\":1120:1474  for (uint i = 0; i < proposalNames.length; i++) {\r... */\n    tag_56:\n        /* \"contracts/prop_test.sol\":1141:1154  proposalNames */\n      dup2\n        /* \"contracts/prop_test.sol\":1141:1161  proposalNames.length */\n      mload\n        /* \"contracts/prop_test.sol\":1137:1138  i */\n      dup2\n        /* \"contracts/prop_test.sol\":1137:1161  i < proposalNames.length */\n      lt\n        /* \"contracts/prop_test.sol\":1120:1474  for (uint i = 0; i < proposalNames.length; i++) {\r... */\n      iszero\n      tag_57\n      jumpi\n        /* \"contracts/prop_test.sol\":1349:1358  proposals */\n      0x03\n        /* \"contracts/prop_test.sol\":1364:1461  Proposal({\r... */\n      mload(0x40)\n      dup1\n      0x40\n      add\n      0x40\n      mstore\n      dup1\n        /* \"contracts/prop_test.sol\":1398:1411  proposalNames */\n      dup5\n        /* \"contracts/prop_test.sol\":1412:1413  i */\n      dup5\n        /* \"contracts/prop_test.sol\":1398:1414  proposalNames[i] */\n      dup2\n      mload\n      dup2\n      lt\n      tag_59\n      jumpi\n      mstore(0x00, 0x4e487b7100000000000000000000000000000000000000000000000000000000)\n      mstore(0x04, 0x32)\n      revert(0x00, 0x24)\n    tag_59:\n      0x20\n      mul\n      0x20\n      add\n      add\n      mload\n        /* \"contracts/prop_test.sol\":1364:1461  Proposal({\r... */\n      dup2\n      mstore\n      0x20\n      add\n        /* \"contracts/prop_test.sol\":1444:1445  0 */\n      0x00\n        /* \"contracts/prop_test.sol\":1364:1461  Proposal({\r... */\n      dup2\n      mstore\n      pop\n        /* \"contracts/prop_test.sol\":1349:1462  proposals.push(Proposal({\r... */\n      swap1\n      dup1\n      0x01\n      dup2\n      sload\n      add\n      dup1\n      dup3\n      sstore\n      dup1\n      swap2\n      pop\n      pop\n      0x01\n      swap1\n      sub\n      swap1\n      0x00\n      mstore\n      keccak256(0x00, 0x20)\n      swap1\n      0x02\n      mul\n      add\n      0x00\n      swap1\n      swap2\n      swap1\n      swap2\n      swap1\n      swap2\n      pop\n      0x00\n      dup3\n      add\n      mload\n      dup2\n      0x00\n      add\n      swap1\n      dup1\n      mload\n      swap1\n      0x20\n      add\n      swap1\n      tag_61\n      swap3\n      swap2\n      swap1\n      tag_62\n      jump\t// in\n    tag_61:\n      pop\n      0x20\n      dup3\n      add\n      mload\n      dup2\n      0x01\n      add\n      sstore\n      pop\n      pop\n        /* \"contracts/prop_test.sol\":1163:1166  i++ */\n      dup1\n      dup1\n      tag_63\n      swap1\n      tag_64\n      jump\t// in\n    tag_63:\n      swap2\n      pop\n      pop\n        /* \"contracts/prop_test.sol\":1120:1474  for (uint i = 0; i < proposalNames.length; i++) {\r... */\n      jump(tag_56)\n    tag_57:\n      pop\n        /* \"contracts/prop_test.sol\":829:1481  function createBallot(string[] memory proposalNames) public {\r... */\n      pop\n      jump\t// out\n        /* \"contracts/prop_test.sol\":1489:2071  function giveRightToVote(address voter) public {\r... */\n    tag_34:\n        /* \"contracts/prop_test.sol\":1960:1971  chairperson */\n      0x01\n      0x00\n      swap1\n      sload\n      swap1\n      0x0100\n      exp\n      swap1\n      div\n      0xffffffffffffffffffffffffffffffffffffffff\n      and\n        /* \"contracts/prop_test.sol\":1946:1971  msg.sender == chairperson */\n      0xffffffffffffffffffffffffffffffffffffffff\n      and\n        /* \"contracts/prop_test.sol\":1946:1956  msg.sender */\n      caller\n        /* \"contracts/prop_test.sol\":1946:1971  msg.sender == chairperson */\n      0xffffffffffffffffffffffffffffffffffffffff\n      and\n      eq\n        /* \"contracts/prop_test.sol\":1945:1996  (msg.sender == chairperson) && !voters[voter].voted */\n      dup1\n      iszero\n      tag_66\n      jumpi\n      pop\n        /* \"contracts/prop_test.sol\":1977:1983  voters */\n      0x02\n        /* \"contracts/prop_test.sol\":1977:1990  voters[voter] */\n      0x00\n        /* \"contracts/prop_test.sol\":1984:1989  voter */\n      dup3\n        /* \"contracts/prop_test.sol\":1977:1990  voters[voter] */\n      0xffffffffffffffffffffffffffffffffffffffff\n      and\n      0xffffffffffffffffffffffffffffffffffffffff\n      and\n      dup2\n      mstore\n      0x20\n      add\n      swap1\n      dup2\n      mstore\n      0x20\n      add\n      0x00\n      keccak256\n        /* \"contracts/prop_test.sol\":1977:1996  voters[voter].voted */\n      0x01\n      add\n      0x00\n      swap1\n      sload\n      swap1\n      0x0100\n      exp\n      swap1\n      div\n      0xff\n      and\n        /* \"contracts/prop_test.sol\":1976:1996  !voters[voter].voted */\n      iszero\n        /* \"contracts/prop_test.sol\":1945:1996  (msg.sender == chairperson) && !voters[voter].voted */\n    tag_66:\n        /* \"contracts/prop_test.sol\":1945:2027  (msg.sender == chairperson) && !voters[voter].voted && (voters[voter].weight == 0) */\n      dup1\n      iszero\n      tag_67\n      jumpi\n      pop\n        /* \"contracts/prop_test.sol\":2025:2026  0 */\n      0x00\n        /* \"contracts/prop_test.sol\":2001:2007  voters */\n      0x02\n        /* \"contracts/prop_test.sol\":2001:2014  voters[voter] */\n      0x00\n        /* \"contracts/prop_test.sol\":2008:2013  voter */\n      dup4\n        /* \"contracts/prop_test.sol\":2001:2014  voters[voter] */\n      0xffffffffffffffffffffffffffffffffffffffff\n      and\n      0xffffffffffffffffffffffffffffffffffffffff\n      and\n      dup2\n      mstore\n      0x20\n      add\n      swap1\n      dup2\n      mstore\n      0x20\n      add\n      0x00\n      keccak256\n        /* \"contracts/prop_test.sol\":2001:2021  voters[voter].weight */\n      0x00\n      add\n      sload\n        /* \"contracts/prop_test.sol\":2001:2026  voters[voter].weight == 0 */\n      eq\n        /* \"contracts/prop_test.sol\":1945:2027  (msg.sender == chairperson) && !voters[voter].voted && (voters[voter].weight == 0) */\n    tag_67:\n        /* \"contracts/prop_test.sol\":1937:2028  require((msg.sender == chairperson) && !voters[voter].voted && (voters[voter].weight == 0)) */\n      tag_68\n      jumpi\n      0x00\n      dup1\n      revert\n    tag_68:\n        /* \"contracts/prop_test.sol\":2062:2063  1 */\n      0x01\n        /* \"contracts/prop_test.sol\":2039:2045  voters */\n      0x02\n        /* \"contracts/prop_test.sol\":2039:2052  voters[voter] */\n      0x00\n        /* \"contracts/prop_test.sol\":2046:2051  voter */\n      dup4\n        /* \"contracts/prop_test.sol\":2039:2052  voters[voter] */\n      0xffffffffffffffffffffffffffffffffffffffff\n      and\n      0xffffffffffffffffffffffffffffffffffffffff\n      and\n      dup2\n      mstore\n      0x20\n      add\n      swap1\n      dup2\n      mstore\n      0x20\n      add\n      0x00\n      keccak256\n        /* \"contracts/prop_test.sol\":2039:2059  voters[voter].weight */\n      0x00\n      add\n        /* \"contracts/prop_test.sol\":2039:2063  voters[voter].weight = 1 */\n      dup2\n      swap1\n      sstore\n      pop\n        /* \"contracts/prop_test.sol\":1489:2071  function giveRightToVote(address voter) public {\r... */\n      pop\n      jump\t// out\n        /* \"contracts/prop_test.sol\":688:727  mapping(address => Voter) public voters */\n    tag_37:\n      mstore(0x20, 0x02)\n      dup1\n      0x00\n      mstore\n      keccak256(0x00, 0x40)\n      0x00\n      swap2\n      pop\n      swap1\n      pop\n      dup1\n      0x00\n      add\n      sload\n      swap1\n      dup1\n      0x01\n      add\n      0x00\n      swap1\n      sload\n      swap1\n      0x0100\n      exp\n      swap1\n      div\n      0xff\n      and\n      swap1\n      dup1\n      0x01\n      add\n      0x01\n      swap1\n      sload\n      swap1\n      0x0100\n      exp\n      swap1\n      div\n      0xffffffffffffffffffffffffffffffffffffffff\n      and\n      swap1\n      dup1\n      0x02\n      add\n      sload\n      swap1\n      pop\n      dup5\n      jump\t// out\n    tag_62:\n      dup3\n      dup1\n      sload\n      tag_69\n      swap1\n      tag_49\n      jump\t// in\n    tag_69:\n      swap1\n      0x00\n      mstore\n      keccak256(0x00, 0x20)\n      swap1\n      0x1f\n      add\n      0x20\n      swap1\n      div\n      dup2\n      add\n      swap3\n      dup3\n      tag_71\n      jumpi\n      0x00\n      dup6\n      sstore\n      jump(tag_70)\n    tag_71:\n      dup3\n      0x1f\n      lt\n      tag_72\n      jumpi\n      dup1\n      mload\n      not(0xff)\n      and\n      dup4\n      dup1\n      add\n      or\n      dup6\n      sstore\n      jump(tag_70)\n    tag_72:\n      dup3\n      dup1\n      add\n      0x01\n      add\n      dup6\n      sstore\n      dup3\n      iszero\n      tag_70\n      jumpi\n      swap2\n      dup3\n      add\n    tag_73:\n      dup3\n      dup2\n      gt\n      iszero\n      tag_74\n      jumpi\n      dup3\n      mload\n      dup3\n      sstore\n      swap2\n      0x20\n      add\n      swap2\n      swap1\n      0x01\n      add\n      swap1\n      jump(tag_73)\n    tag_74:\n    tag_70:\n      pop\n      swap1\n      pop\n      tag_75\n      swap2\n      swap1\n      tag_76\n      jump\t// in\n    tag_75:\n      pop\n      swap1\n      jump\t// out\n    tag_76:\n    tag_77:\n      dup1\n      dup3\n      gt\n      iszero\n      tag_78\n      jumpi\n      0x00\n      dup2\n      0x00\n      swap1\n      sstore\n      pop\n      0x01\n      add\n      jump(tag_77)\n    tag_78:\n      pop\n      swap1\n      jump\t// out\n        /* \"#utility.yul\":23:638   */\n    tag_80:\n      0x00\n        /* \"#utility.yul\":154:244   */\n      tag_82\n        /* \"#utility.yul\":169:243   */\n      tag_83\n        /* \"#utility.yul\":236:242   */\n      dup5\n        /* \"#utility.yul\":169:243   */\n      tag_84\n      jump\t// in\n    tag_83:\n        /* \"#utility.yul\":154:244   */\n      tag_85\n      jump\t// in\n    tag_82:\n        /* \"#utility.yul\":145:244   */\n      swap1\n      pop\n        /* \"#utility.yul\":264:269   */\n      dup1\n        /* \"#utility.yul\":292:298   */\n      dup4\n        /* \"#utility.yul\":285:290   */\n      dup3\n        /* \"#utility.yul\":278:299   */\n      mstore\n        /* \"#utility.yul\":318:322   */\n      0x20\n        /* \"#utility.yul\":311:316   */\n      dup3\n        /* \"#utility.yul\":307:323   */\n      add\n        /* \"#utility.yul\":300:323   */\n      swap1\n      pop\n        /* \"#utility.yul\":343:349   */\n      dup3\n        /* \"#utility.yul\":374:375   */\n      0x00\n        /* \"#utility.yul\":359:632   */\n    tag_86:\n        /* \"#utility.yul\":384:390   */\n      dup6\n        /* \"#utility.yul\":381:382   */\n      dup2\n        /* \"#utility.yul\":378:391   */\n      lt\n        /* \"#utility.yul\":359:632   */\n      iszero\n      tag_88\n      jumpi\n        /* \"#utility.yul\":476:479   */\n      dup2\n        /* \"#utility.yul\":463:480   */\n      calldataload\n        /* \"#utility.yul\":455:461   */\n      dup6\n        /* \"#utility.yul\":451:481   */\n      add\n        /* \"#utility.yul\":506:553   */\n      tag_89\n        /* \"#utility.yul\":549:552   */\n      dup9\n        /* \"#utility.yul\":537:547   */\n      dup3\n        /* \"#utility.yul\":506:553   */\n      tag_90\n      jump\t// in\n    tag_89:\n        /* \"#utility.yul\":501:504   */\n      dup5\n        /* \"#utility.yul\":494:554   */\n      mstore\n        /* \"#utility.yul\":583:587   */\n      0x20\n        /* \"#utility.yul\":578:581   */\n      dup5\n        /* \"#utility.yul\":574:588   */\n      add\n        /* \"#utility.yul\":567:588   */\n      swap4\n      pop\n        /* \"#utility.yul\":617:621   */\n      0x20\n        /* \"#utility.yul\":612:615   */\n      dup4\n        /* \"#utility.yul\":608:622   */\n      add\n        /* \"#utility.yul\":601:622   */\n      swap3\n      pop\n        /* \"#utility.yul\":419:632   */\n      pop\n        /* \"#utility.yul\":406:407   */\n      0x01\n        /* \"#utility.yul\":403:404   */\n      dup2\n        /* \"#utility.yul\":399:408   */\n      add\n        /* \"#utility.yul\":394:408   */\n      swap1\n      pop\n        /* \"#utility.yul\":359:632   */\n      jump(tag_86)\n    tag_88:\n        /* \"#utility.yul\":363:377   */\n      pop\n        /* \"#utility.yul\":135:638   */\n      pop\n      pop\n      swap4\n      swap3\n      pop\n      pop\n      pop\n      jump\t// out\n        /* \"#utility.yul\":644:988   */\n    tag_91:\n      0x00\n        /* \"#utility.yul\":747:812   */\n      tag_93\n        /* \"#utility.yul\":762:811   */\n      tag_94\n        /* \"#utility.yul\":804:810   */\n      dup5\n        /* \"#utility.yul\":762:811   */\n      tag_95\n      jump\t// in\n    tag_94:\n        /* \"#utility.yul\":747:812   */\n      tag_85\n      jump\t// in\n    tag_93:\n        /* \"#utility.yul\":738:812   */\n      swap1\n      pop\n        /* \"#utility.yul\":835:841   */\n      dup3\n        /* \"#utility.yul\":828:833   */\n      dup2\n        /* \"#utility.yul\":821:842   */\n      mstore\n        /* \"#utility.yul\":873:877   */\n      0x20\n        /* \"#utility.yul\":866:871   */\n      dup2\n        /* \"#utility.yul\":862:878   */\n      add\n        /* \"#utility.yul\":911:914   */\n      dup5\n        /* \"#utility.yul\":902:908   */\n      dup5\n        /* \"#utility.yul\":897:900   */\n      dup5\n        /* \"#utility.yul\":893:909   */\n      add\n        /* \"#utility.yul\":890:915   */\n      gt\n        /* \"#utility.yul\":887:889   */\n      iszero\n      tag_96\n      jumpi\n        /* \"#utility.yul\":928:929   */\n      0x00\n        /* \"#utility.yul\":925:926   */\n      dup1\n        /* \"#utility.yul\":918:930   */\n      revert\n        /* \"#utility.yul\":887:889   */\n    tag_96:\n        /* \"#utility.yul\":941:982   */\n      tag_97\n        /* \"#utility.yul\":975:981   */\n      dup5\n        /* \"#utility.yul\":970:973   */\n      dup3\n        /* \"#utility.yul\":965:968   */\n      dup6\n        /* \"#utility.yul\":941:982   */\n      tag_98\n      jump\t// in\n    tag_97:\n        /* \"#utility.yul\":728:988   */\n      pop\n      swap4\n      swap3\n      pop\n      pop\n      pop\n      jump\t// out\n        /* \"#utility.yul\":994:1133   */\n    tag_99:\n      0x00\n        /* \"#utility.yul\":1078:1084   */\n      dup2\n        /* \"#utility.yul\":1065:1085   */\n      calldataload\n        /* \"#utility.yul\":1056:1085   */\n      swap1\n      pop\n        /* \"#utility.yul\":1094:1127   */\n      tag_101\n        /* \"#utility.yul\":1121:1126   */\n      dup2\n        /* \"#utility.yul\":1094:1127   */\n      tag_102\n      jump\t// in\n    tag_101:\n        /* \"#utility.yul\":1046:1133   */\n      swap3\n      swap2\n      pop\n      pop\n      jump\t// out\n        /* \"#utility.yul\":1155:1478   */\n    tag_103:\n      0x00\n        /* \"#utility.yul\":1285:1288   */\n      dup3\n        /* \"#utility.yul\":1278:1282   */\n      0x1f\n        /* \"#utility.yul\":1270:1276   */\n      dup4\n        /* \"#utility.yul\":1266:1283   */\n      add\n        /* \"#utility.yul\":1262:1289   */\n      slt\n        /* \"#utility.yul\":1252:1254   */\n      tag_105\n      jumpi\n        /* \"#utility.yul\":1303:1304   */\n      0x00\n        /* \"#utility.yul\":1300:1301   */\n      dup1\n        /* \"#utility.yul\":1293:1305   */\n      revert\n        /* \"#utility.yul\":1252:1254   */\n    tag_105:\n        /* \"#utility.yul\":1343:1349   */\n      dup2\n        /* \"#utility.yul\":1330:1350   */\n      calldataload\n        /* \"#utility.yul\":1368:1472   */\n      tag_106\n        /* \"#utility.yul\":1468:1471   */\n      dup5\n        /* \"#utility.yul\":1460:1466   */\n      dup3\n        /* \"#utility.yul\":1453:1457   */\n      0x20\n        /* \"#utility.yul\":1445:1451   */\n      dup7\n        /* \"#utility.yul\":1441:1458   */\n      add\n        /* \"#utility.yul\":1368:1472   */\n      tag_80\n      jump\t// in\n    tag_106:\n        /* \"#utility.yul\":1359:1472   */\n      swap2\n      pop\n        /* \"#utility.yul\":1242:1478   */\n      pop\n      swap3\n      swap2\n      pop\n      pop\n      jump\t// out\n        /* \"#utility.yul\":1498:1771   */\n    tag_90:\n      0x00\n        /* \"#utility.yul\":1603:1606   */\n      dup3\n        /* \"#utility.yul\":1596:1600   */\n      0x1f\n        /* \"#utility.yul\":1588:1594   */\n      dup4\n        /* \"#utility.yul\":1584:1601   */\n      add\n        /* \"#utility.yul\":1580:1607   */\n      slt\n        /* \"#utility.yul\":1570:1572   */\n      tag_108\n      jumpi\n        /* \"#utility.yul\":1621:1622   */\n      0x00\n        /* \"#utility.yul\":1618:1619   */\n      dup1\n        /* \"#utility.yul\":1611:1623   */\n      revert\n        /* \"#utility.yul\":1570:1572   */\n    tag_108:\n        /* \"#utility.yul\":1661:1667   */\n      dup2\n        /* \"#utility.yul\":1648:1668   */\n      calldataload\n        /* \"#utility.yul\":1686:1765   */\n      tag_109\n        /* \"#utility.yul\":1761:1764   */\n      dup5\n        /* \"#utility.yul\":1753:1759   */\n      dup3\n        /* \"#utility.yul\":1746:1750   */\n      0x20\n        /* \"#utility.yul\":1738:1744   */\n      dup7\n        /* \"#utility.yul\":1734:1751   */\n      add\n        /* \"#utility.yul\":1686:1765   */\n      tag_91\n      jump\t// in\n    tag_109:\n        /* \"#utility.yul\":1677:1765   */\n      swap2\n      pop\n        /* \"#utility.yul\":1560:1771   */\n      pop\n      swap3\n      swap2\n      pop\n      pop\n      jump\t// out\n        /* \"#utility.yul\":1777:1916   */\n    tag_110:\n      0x00\n        /* \"#utility.yul\":1861:1867   */\n      dup2\n        /* \"#utility.yul\":1848:1868   */\n      calldataload\n        /* \"#utility.yul\":1839:1868   */\n      swap1\n      pop\n        /* \"#utility.yul\":1877:1910   */\n      tag_112\n        /* \"#utility.yul\":1904:1909   */\n      dup2\n        /* \"#utility.yul\":1877:1910   */\n      tag_113\n      jump\t// in\n    tag_112:\n        /* \"#utility.yul\":1829:1916   */\n      swap3\n      swap2\n      pop\n      pop\n      jump\t// out\n        /* \"#utility.yul\":1922:2184   */\n    tag_33:\n      0x00\n        /* \"#utility.yul\":2030:2032   */\n      0x20\n        /* \"#utility.yul\":2018:2027   */\n      dup3\n        /* \"#utility.yul\":2009:2016   */\n      dup5\n        /* \"#utility.yul\":2005:2028   */\n      sub\n        /* \"#utility.yul\":2001:2033   */\n      slt\n        /* \"#utility.yul\":1998:2000   */\n      iszero\n      tag_115\n      jumpi\n        /* \"#utility.yul\":2046:2047   */\n      0x00\n        /* \"#utility.yul\":2043:2044   */\n      dup1\n        /* \"#utility.yul\":2036:2048   */\n      revert\n        /* \"#utility.yul\":1998:2000   */\n    tag_115:\n        /* \"#utility.yul\":2089:2090   */\n      0x00\n        /* \"#utility.yul\":2114:2167   */\n      tag_116\n        /* \"#utility.yul\":2159:2166   */\n      dup5\n        /* \"#utility.yul\":2150:2156   */\n      dup3\n        /* \"#utility.yul\":2139:2148   */\n      dup6\n        /* \"#utility.yul\":2135:2157   */\n      add\n        /* \"#utility.yul\":2114:2167   */\n      tag_99\n      jump\t// in\n    tag_116:\n        /* \"#utility.yul\":2104:2167   */\n      swap2\n      pop\n        /* \"#utility.yul\":2060:2177   */\n      pop\n        /* \"#utility.yul\":1988:2184   */\n      swap3\n      swap2\n      pop\n      pop\n      jump\t// out\n        /* \"#utility.yul\":2190:2615   */\n    tag_29:\n      0x00\n        /* \"#utility.yul\":2333:2335   */\n      0x20\n        /* \"#utility.yul\":2321:2330   */\n      dup3\n        /* \"#utility.yul\":2312:2319   */\n      dup5\n        /* \"#utility.yul\":2308:2331   */\n      sub\n        /* \"#utility.yul\":2304:2336   */\n      slt\n        /* \"#utility.yul\":2301:2303   */\n      iszero\n      tag_118\n      jumpi\n        /* \"#utility.yul\":2349:2350   */\n      0x00\n        /* \"#utility.yul\":2346:2347   */\n      dup1\n        /* \"#utility.yul\":2339:2351   */\n      revert\n        /* \"#utility.yul\":2301:2303   */\n    tag_118:\n        /* \"#utility.yul\":2420:2421   */\n      0x00\n        /* \"#utility.yul\":2409:2418   */\n      dup3\n        /* \"#utility.yul\":2405:2422   */\n      add\n        /* \"#utility.yul\":2392:2423   */\n      calldataload\n        /* \"#utility.yul\":2450:2468   */\n      0xffffffffffffffff\n        /* \"#utility.yul\":2442:2448   */\n      dup2\n        /* \"#utility.yul\":2439:2469   */\n      gt\n        /* \"#utility.yul\":2436:2438   */\n      iszero\n      tag_119\n      jumpi\n        /* \"#utility.yul\":2482:2483   */\n      0x00\n        /* \"#utility.yul\":2479:2480   */\n      dup1\n        /* \"#utility.yul\":2472:2484   */\n      revert\n        /* \"#utility.yul\":2436:2438   */\n    tag_119:\n        /* \"#utility.yul\":2510:2598   */\n      tag_120\n        /* \"#utility.yul\":2590:2597   */\n      dup5\n        /* \"#utility.yul\":2581:2587   */\n      dup3\n        /* \"#utility.yul\":2570:2579   */\n      dup6\n        /* \"#utility.yul\":2566:2588   */\n      add\n        /* \"#utility.yul\":2510:2598   */\n      tag_103\n      jump\t// in\n    tag_120:\n        /* \"#utility.yul\":2500:2598   */\n      swap2\n      pop\n        /* \"#utility.yul\":2363:2608   */\n      pop\n        /* \"#utility.yul\":2291:2615   */\n      swap3\n      swap2\n      pop\n      pop\n      jump\t// out\n        /* \"#utility.yul\":2621:2883   */\n    tag_13:\n      0x00\n        /* \"#utility.yul\":2729:2731   */\n      0x20\n        /* \"#utility.yul\":2717:2726   */\n      dup3\n        /* \"#utility.yul\":2708:2715   */\n      dup5\n        /* \"#utility.yul\":2704:2727   */\n      sub\n        /* \"#utility.yul\":2700:2732   */\n      slt\n        /* \"#utility.yul\":2697:2699   */\n      iszero\n      tag_122\n      jumpi\n        /* \"#utility.yul\":2745:2746   */\n      0x00\n        /* \"#utility.yul\":2742:2743   */\n      dup1\n        /* \"#utility.yul\":2735:2747   */\n      revert\n        /* \"#utility.yul\":2697:2699   */\n    tag_122:\n        /* \"#utility.yul\":2788:2789   */\n      0x00\n        /* \"#utility.yul\":2813:2866   */\n      tag_123\n        /* \"#utility.yul\":2858:2865   */\n      dup5\n        /* \"#utility.yul\":2849:2855   */\n      dup3\n        /* \"#utility.yul\":2838:2847   */\n      dup6\n        /* \"#utility.yul\":2834:2856   */\n      add\n        /* \"#utility.yul\":2813:2866   */\n      tag_110\n      jump\t// in\n    tag_123:\n        /* \"#utility.yul\":2803:2866   */\n      swap2\n      pop\n        /* \"#utility.yul\":2759:2876   */\n      pop\n        /* \"#utility.yul\":2687:2883   */\n      swap3\n      swap2\n      pop\n      pop\n      jump\t// out\n        /* \"#utility.yul\":2889:3007   */\n    tag_124:\n        /* \"#utility.yul\":2976:3000   */\n      tag_126\n        /* \"#utility.yul\":2994:2999   */\n      dup2\n        /* \"#utility.yul\":2976:3000   */\n      tag_127\n      jump\t// in\n    tag_126:\n        /* \"#utility.yul\":2971:2974   */\n      dup3\n        /* \"#utility.yul\":2964:3001   */\n      mstore\n        /* \"#utility.yul\":2954:3007   */\n      pop\n      pop\n      jump\t// out\n        /* \"#utility.yul\":3013:3122   */\n    tag_128:\n        /* \"#utility.yul\":3094:3115   */\n      tag_130\n        /* \"#utility.yul\":3109:3114   */\n      dup2\n        /* \"#utility.yul\":3094:3115   */\n      tag_131\n      jump\t// in\n    tag_130:\n        /* \"#utility.yul\":3089:3092   */\n      dup3\n        /* \"#utility.yul\":3082:3116   */\n      mstore\n        /* \"#utility.yul\":3072:3122   */\n      pop\n      pop\n      jump\t// out\n        /* \"#utility.yul\":3128:3492   */\n    tag_132:\n      0x00\n        /* \"#utility.yul\":3244:3283   */\n      tag_134\n        /* \"#utility.yul\":3277:3282   */\n      dup3\n        /* \"#utility.yul\":3244:3283   */\n      tag_135\n      jump\t// in\n    tag_134:\n        /* \"#utility.yul\":3299:3370   */\n      tag_136\n        /* \"#utility.yul\":3363:3369   */\n      dup2\n        /* \"#utility.yul\":3358:3361   */\n      dup6\n        /* \"#utility.yul\":3299:3370   */\n      tag_137\n      jump\t// in\n    tag_136:\n        /* \"#utility.yul\":3292:3370   */\n      swap4\n      pop\n        /* \"#utility.yul\":3379:3431   */\n      tag_138\n        /* \"#utility.yul\":3424:3430   */\n      dup2\n        /* \"#utility.yul\":3419:3422   */\n      dup6\n        /* \"#utility.yul\":3412:3416   */\n      0x20\n        /* \"#utility.yul\":3405:3410   */\n      dup7\n        /* \"#utility.yul\":3401:3417   */\n      add\n        /* \"#utility.yul\":3379:3431   */\n      tag_139\n      jump\t// in\n    tag_138:\n        /* \"#utility.yul\":3456:3485   */\n      tag_140\n        /* \"#utility.yul\":3478:3484   */\n      dup2\n        /* \"#utility.yul\":3456:3485   */\n      tag_141\n      jump\t// in\n    tag_140:\n        /* \"#utility.yul\":3451:3454   */\n      dup5\n        /* \"#utility.yul\":3447:3486   */\n      add\n        /* \"#utility.yul\":3440:3486   */\n      swap2\n      pop\n        /* \"#utility.yul\":3220:3492   */\n      pop\n      swap3\n      swap2\n      pop\n      pop\n      jump\t// out\n        /* \"#utility.yul\":3498:3616   */\n    tag_142:\n        /* \"#utility.yul\":3585:3609   */\n      tag_144\n        /* \"#utility.yul\":3603:3608   */\n      dup2\n        /* \"#utility.yul\":3585:3609   */\n      tag_145\n      jump\t// in\n    tag_144:\n        /* \"#utility.yul\":3580:3583   */\n      dup3\n        /* \"#utility.yul\":3573:3610   */\n      mstore\n        /* \"#utility.yul\":3563:3616   */\n      pop\n      pop\n      jump\t// out\n        /* \"#utility.yul\":3622:3844   */\n    tag_23:\n      0x00\n        /* \"#utility.yul\":3753:3755   */\n      0x20\n        /* \"#utility.yul\":3742:3751   */\n      dup3\n        /* \"#utility.yul\":3738:3756   */\n      add\n        /* \"#utility.yul\":3730:3756   */\n      swap1\n      pop\n        /* \"#utility.yul\":3766:3837   */\n      tag_147\n        /* \"#utility.yul\":3834:3835   */\n      0x00\n        /* \"#utility.yul\":3823:3832   */\n      dup4\n        /* \"#utility.yul\":3819:3836   */\n      add\n        /* \"#utility.yul\":3810:3816   */\n      dup5\n        /* \"#utility.yul\":3766:3837   */\n      tag_124\n      jump\t// in\n    tag_147:\n        /* \"#utility.yul\":3720:3844   */\n      swap3\n      swap2\n      pop\n      pop\n      jump\t// out\n        /* \"#utility.yul\":3850:4273   */\n    tag_19:\n      0x00\n        /* \"#utility.yul\":4029:4031   */\n      0x40\n        /* \"#utility.yul\":4018:4027   */\n      dup3\n        /* \"#utility.yul\":4014:4032   */\n      add\n        /* \"#utility.yul\":4006:4032   */\n      swap1\n      pop\n        /* \"#utility.yul\":4078:4087   */\n      dup2\n        /* \"#utility.yul\":4072:4076   */\n      dup2\n        /* \"#utility.yul\":4068:4088   */\n      sub\n        /* \"#utility.yul\":4064:4065   */\n      0x00\n        /* \"#utility.yul\":4053:4062   */\n      dup4\n        /* \"#utility.yul\":4049:4066   */\n      add\n        /* \"#utility.yul\":4042:4089   */\n      mstore\n        /* \"#utility.yul\":4106:4184   */\n      tag_149\n        /* \"#utility.yul\":4179:4183   */\n      dup2\n        /* \"#utility.yul\":4170:4176   */\n      dup6\n        /* \"#utility.yul\":4106:4184   */\n      tag_132\n      jump\t// in\n    tag_149:\n        /* \"#utility.yul\":4098:4184   */\n      swap1\n      pop\n        /* \"#utility.yul\":4194:4266   */\n      tag_150\n        /* \"#utility.yul\":4262:4264   */\n      0x20\n        /* \"#utility.yul\":4251:4260   */\n      dup4\n        /* \"#utility.yul\":4247:4265   */\n      add\n        /* \"#utility.yul\":4238:4244   */\n      dup5\n        /* \"#utility.yul\":4194:4266   */\n      tag_142\n      jump\t// in\n    tag_150:\n        /* \"#utility.yul\":3996:4273   */\n      swap4\n      swap3\n      pop\n      pop\n      pop\n      jump\t// out\n        /* \"#utility.yul\":4279:4820   */\n    tag_39:\n      0x00\n        /* \"#utility.yul\":4488:4491   */\n      0x80\n        /* \"#utility.yul\":4477:4486   */\n      dup3\n        /* \"#utility.yul\":4473:4492   */\n      add\n        /* \"#utility.yul\":4465:4492   */\n      swap1\n      pop\n        /* \"#utility.yul\":4502:4573   */\n      tag_152\n        /* \"#utility.yul\":4570:4571   */\n      0x00\n        /* \"#utility.yul\":4559:4568   */\n      dup4\n        /* \"#utility.yul\":4555:4572   */\n      add\n        /* \"#utility.yul\":4546:4552   */\n      dup8\n        /* \"#utility.yul\":4502:4573   */\n      tag_142\n      jump\t// in\n    tag_152:\n        /* \"#utility.yul\":4583:4649   */\n      tag_153\n        /* \"#utility.yul\":4645:4647   */\n      0x20\n        /* \"#utility.yul\":4634:4643   */\n      dup4\n        /* \"#utility.yul\":4630:4648   */\n      add\n        /* \"#utility.yul\":4621:4627   */\n      dup7\n        /* \"#utility.yul\":4583:4649   */\n      tag_128\n      jump\t// in\n    tag_153:\n        /* \"#utility.yul\":4659:4731   */\n      tag_154\n        /* \"#utility.yul\":4727:4729   */\n      0x40\n        /* \"#utility.yul\":4716:4725   */\n      dup4\n        /* \"#utility.yul\":4712:4730   */\n      add\n        /* \"#utility.yul\":4703:4709   */\n      dup6\n        /* \"#utility.yul\":4659:4731   */\n      tag_124\n      jump\t// in\n    tag_154:\n        /* \"#utility.yul\":4741:4813   */\n      tag_155\n        /* \"#utility.yul\":4809:4811   */\n      0x60\n        /* \"#utility.yul\":4798:4807   */\n      dup4\n        /* \"#utility.yul\":4794:4812   */\n      add\n        /* \"#utility.yul\":4785:4791   */\n      dup5\n        /* \"#utility.yul\":4741:4813   */\n      tag_142\n      jump\t// in\n    tag_155:\n        /* \"#utility.yul\":4455:4820   */\n      swap6\n      swap5\n      pop\n      pop\n      pop\n      pop\n      pop\n      jump\t// out\n        /* \"#utility.yul\":4826:5109   */\n    tag_85:\n      0x00\n        /* \"#utility.yul\":4892:4894   */\n      0x40\n        /* \"#utility.yul\":4886:4895   */\n      mload\n        /* \"#utility.yul\":4876:4895   */\n      swap1\n      pop\n        /* \"#utility.yul\":4934:4938   */\n      dup2\n        /* \"#utility.yul\":4926:4932   */\n      dup2\n        /* \"#utility.yul\":4922:4939   */\n      add\n        /* \"#utility.yul\":5041:5047   */\n      dup2\n        /* \"#utility.yul\":5029:5039   */\n      dup2\n        /* \"#utility.yul\":5026:5048   */\n      lt\n        /* \"#utility.yul\":5005:5023   */\n      0xffffffffffffffff\n        /* \"#utility.yul\":4993:5003   */\n      dup3\n        /* \"#utility.yul\":4990:5024   */\n      gt\n        /* \"#utility.yul\":4987:5049   */\n      or\n        /* \"#utility.yul\":4984:4986   */\n      iszero\n      tag_157\n      jumpi\n        /* \"#utility.yul\":5052:5070   */\n      tag_158\n      tag_159\n      jump\t// in\n    tag_158:\n        /* \"#utility.yul\":4984:4986   */\n    tag_157:\n        /* \"#utility.yul\":5092:5102   */\n      dup1\n        /* \"#utility.yul\":5088:5090   */\n      0x40\n        /* \"#utility.yul\":5081:5103   */\n      mstore\n        /* \"#utility.yul\":4866:5109   */\n      pop\n      swap2\n      swap1\n      pop\n      jump\t// out\n        /* \"#utility.yul\":5115:5436   */\n    tag_84:\n      0x00\n        /* \"#utility.yul\":5292:5310   */\n      0xffffffffffffffff\n        /* \"#utility.yul\":5284:5290   */\n      dup3\n        /* \"#utility.yul\":5281:5311   */\n      gt\n        /* \"#utility.yul\":5278:5280   */\n      iszero\n      tag_161\n      jumpi\n        /* \"#utility.yul\":5314:5332   */\n      tag_162\n      tag_159\n      jump\t// in\n    tag_162:\n        /* \"#utility.yul\":5278:5280   */\n    tag_161:\n        /* \"#utility.yul\":5364:5368   */\n      0x20\n        /* \"#utility.yul\":5356:5362   */\n      dup3\n        /* \"#utility.yul\":5352:5369   */\n      mul\n        /* \"#utility.yul\":5344:5369   */\n      swap1\n      pop\n        /* \"#utility.yul\":5424:5428   */\n      0x20\n        /* \"#utility.yul\":5418:5422   */\n      dup2\n        /* \"#utility.yul\":5414:5429   */\n      add\n        /* \"#utility.yul\":5406:5429   */\n      swap1\n      pop\n        /* \"#utility.yul\":5207:5436   */\n      swap2\n      swap1\n      pop\n      jump\t// out\n        /* \"#utility.yul\":5442:5774   */\n    tag_95:\n      0x00\n        /* \"#utility.yul\":5594:5612   */\n      0xffffffffffffffff\n        /* \"#utility.yul\":5586:5592   */\n      dup3\n        /* \"#utility.yul\":5583:5613   */\n      gt\n        /* \"#utility.yul\":5580:5582   */\n      iszero\n      tag_164\n      jumpi\n        /* \"#utility.yul\":5616:5634   */\n      tag_165\n      tag_159\n      jump\t// in\n    tag_165:\n        /* \"#utility.yul\":5580:5582   */\n    tag_164:\n        /* \"#utility.yul\":5701:5705   */\n      0x1f\n        /* \"#utility.yul\":5697:5706   */\n      not\n        /* \"#utility.yul\":5690:5694   */\n      0x1f\n        /* \"#utility.yul\":5682:5688   */\n      dup4\n        /* \"#utility.yul\":5678:5695   */\n      add\n        /* \"#utility.yul\":5674:5707   */\n      and\n        /* \"#utility.yul\":5666:5707   */\n      swap1\n      pop\n        /* \"#utility.yul\":5762:5766   */\n      0x20\n        /* \"#utility.yul\":5756:5760   */\n      dup2\n        /* \"#utility.yul\":5752:5767   */\n      add\n        /* \"#utility.yul\":5744:5767   */\n      swap1\n      pop\n        /* \"#utility.yul\":5509:5774   */\n      swap2\n      swap1\n      pop\n      jump\t// out\n        /* \"#utility.yul\":5780:5879   */\n    tag_135:\n      0x00\n        /* \"#utility.yul\":5866:5871   */\n      dup2\n        /* \"#utility.yul\":5860:5872   */\n      mload\n        /* \"#utility.yul\":5850:5872   */\n      swap1\n      pop\n        /* \"#utility.yul\":5839:5879   */\n      swap2\n      swap1\n      pop\n      jump\t// out\n        /* \"#utility.yul\":5885:6054   */\n    tag_137:\n      0x00\n        /* \"#utility.yul\":6003:6009   */\n      dup3\n        /* \"#utility.yul\":5998:6001   */\n      dup3\n        /* \"#utility.yul\":5991:6010   */\n      mstore\n        /* \"#utility.yul\":6043:6047   */\n      0x20\n        /* \"#utility.yul\":6038:6041   */\n      dup3\n        /* \"#utility.yul\":6034:6048   */\n      add\n        /* \"#utility.yul\":6019:6048   */\n      swap1\n      pop\n        /* \"#utility.yul\":5981:6054   */\n      swap3\n      swap2\n      pop\n      pop\n      jump\t// out\n        /* \"#utility.yul\":6060:6365   */\n    tag_45:\n      0x00\n        /* \"#utility.yul\":6119:6139   */\n      tag_169\n        /* \"#utility.yul\":6137:6138   */\n      dup3\n        /* \"#utility.yul\":6119:6139   */\n      tag_145\n      jump\t// in\n    tag_169:\n        /* \"#utility.yul\":6114:6139   */\n      swap2\n      pop\n        /* \"#utility.yul\":6153:6173   */\n      tag_170\n        /* \"#utility.yul\":6171:6172   */\n      dup4\n        /* \"#utility.yul\":6153:6173   */\n      tag_145\n      jump\t// in\n    tag_170:\n        /* \"#utility.yul\":6148:6173   */\n      swap3\n      pop\n        /* \"#utility.yul\":6307:6308   */\n      dup3\n        /* \"#utility.yul\":6239:6305   */\n      0xffffffffffffffffffffffffffffffffffffffffffffffffffffffffffffffff\n        /* \"#utility.yul\":6235:6309   */\n      sub\n        /* \"#utility.yul\":6232:6233   */\n      dup3\n        /* \"#utility.yul\":6229:6310   */\n      gt\n        /* \"#utility.yul\":6226:6228   */\n      iszero\n      tag_171\n      jumpi\n        /* \"#utility.yul\":6313:6331   */\n      tag_172\n      tag_173\n      jump\t// in\n    tag_172:\n        /* \"#utility.yul\":6226:6228   */\n    tag_171:\n        /* \"#utility.yul\":6357:6358   */\n      dup3\n        /* \"#utility.yul\":6354:6355   */\n      dup3\n        /* \"#utility.yul\":6350:6359   */\n      add\n        /* \"#utility.yul\":6343:6359   */\n      swap1\n      pop\n        /* \"#utility.yul\":6104:6365   */\n      swap3\n      swap2\n      pop\n      pop\n      jump\t// out\n        /* \"#utility.yul\":6371:6467   */\n    tag_127:\n      0x00\n        /* \"#utility.yul\":6437:6461   */\n      tag_175\n        /* \"#utility.yul\":6455:6460   */\n      dup3\n        /* \"#utility.yul\":6437:6461   */\n      tag_176\n      jump\t// in\n    tag_175:\n        /* \"#utility.yul\":6426:6461   */\n      swap1\n      pop\n        /* \"#utility.yul\":6416:6467   */\n      swap2\n      swap1\n      pop\n      jump\t// out\n        /* \"#utility.yul\":6473:6563   */\n    tag_131:\n      0x00\n        /* \"#utility.yul\":6550:6555   */\n      dup2\n        /* \"#utility.yul\":6543:6556   */\n      iszero\n        /* \"#utility.yul\":6536:6557   */\n      iszero\n        /* \"#utility.yul\":6525:6557   */\n      swap1\n      pop\n        /* \"#utility.yul\":6515:6563   */\n      swap2\n      swap1\n      pop\n      jump\t// out\n        /* \"#utility.yul\":6569:6695   */\n    tag_176:\n      0x00\n        /* \"#utility.yul\":6646:6688   */\n      0xffffffffffffffffffffffffffffffffffffffff\n        /* \"#utility.yul\":6639:6644   */\n      dup3\n        /* \"#utility.yul\":6635:6689   */\n      and\n        /* \"#utility.yul\":6624:6689   */\n      swap1\n      pop\n        /* \"#utility.yul\":6614:6695   */\n      swap2\n      swap1\n      pop\n      jump\t// out\n        /* \"#utility.yul\":6701:6778   */\n    tag_145:\n      0x00\n        /* \"#utility.yul\":6767:6772   */\n      dup2\n        /* \"#utility.yul\":6756:6772   */\n      swap1\n      pop\n        /* \"#utility.yul\":6746:6778   */\n      swap2\n      swap1\n      pop\n      jump\t// out\n        /* \"#utility.yul\":6784:6938   */\n    tag_98:\n        /* \"#utility.yul\":6868:6874   */\n      dup3\n        /* \"#utility.yul\":6863:6866   */\n      dup2\n        /* \"#utility.yul\":6858:6861   */\n      dup4\n        /* \"#utility.yul\":6845:6875   */\n      calldatacopy\n        /* \"#utility.yul\":6930:6931   */\n      0x00\n        /* \"#utility.yul\":6921:6927   */\n      dup4\n        /* \"#utility.yul\":6916:6919   */\n      dup4\n        /* \"#utility.yul\":6912:6928   */\n      add\n        /* \"#utility.yul\":6905:6932   */\n      mstore\n        /* \"#utility.yul\":6835:6938   */\n      pop\n      pop\n      pop\n      jump\t// out\n        /* \"#utility.yul\":6944:7251   */\n    tag_139:\n        /* \"#utility.yul\":7012:7013   */\n      0x00\n        /* \"#utility.yul\":7022:7135   */\n    tag_182:\n        /* \"#utility.yul\":7036:7042   */\n      dup4\n        /* \"#utility.yul\":7033:7034   */\n      dup2\n        /* \"#utility.yul\":7030:7043   */\n      lt\n        /* \"#utility.yul\":7022:7135   */\n      iszero\n      tag_184\n      jumpi\n        /* \"#utility.yul\":7121:7122   */\n      dup1\n        /* \"#utility.yul\":7116:7119   */\n      dup3\n        /* \"#utility.yul\":7112:7123   */\n      add\n        /* \"#utility.yul\":7106:7124   */\n      mload\n        /* \"#utility.yul\":7102:7103   */\n      dup2\n        /* \"#utility.yul\":7097:7100   */\n      dup5\n        /* \"#utility.yul\":7093:7104   */\n      add\n        /* \"#utility.yul\":7086:7125   */\n      mstore\n        /* \"#utility.yul\":7058:7060   */\n      0x20\n        /* \"#utility.yul\":7055:7056   */\n      dup2\n        /* \"#utility.yul\":7051:7061   */\n      add\n        /* \"#utility.yul\":7046:7061   */\n      swap1\n      pop\n        /* \"#utility.yul\":7022:7135   */\n      jump(tag_182)\n    tag_184:\n        /* \"#utility.yul\":7153:7159   */\n      dup4\n        /* \"#utility.yul\":7150:7151   */\n      dup2\n        /* \"#utility.yul\":7147:7160   */\n      gt\n        /* \"#utility.yul\":7144:7146   */\n      iszero\n      tag_185\n      jumpi\n        /* \"#utility.yul\":7233:7234   */\n      0x00\n        /* \"#utility.yul\":7224:7230   */\n      dup5\n        /* \"#utility.yul\":7219:7222   */\n      dup5\n        /* \"#utility.yul\":7215:7231   */\n      add\n        /* \"#utility.yul\":7208:7235   */\n      mstore\n        /* \"#utility.yul\":7144:7146   */\n    tag_185:\n        /* \"#utility.yul\":6993:7251   */\n      pop\n      pop\n      pop\n      pop\n      jump\t// out\n        /* \"#utility.yul\":7257:7577   */\n    tag_49:\n      0x00\n        /* \"#utility.yul\":7338:7339   */\n      0x02\n        /* \"#utility.yul\":7332:7336   */\n      dup3\n        /* \"#utility.yul\":7328:7340   */\n      div\n        /* \"#utility.yul\":7318:7340   */\n      swap1\n      pop\n        /* \"#utility.yul\":7385:7386   */\n      0x01\n        /* \"#utility.yul\":7379:7383   */\n      dup3\n        /* \"#utility.yul\":7375:7387   */\n      and\n        /* \"#utility.yul\":7406:7424   */\n      dup1\n        /* \"#utility.yul\":7396:7398   */\n      tag_187\n      jumpi\n        /* \"#utility.yul\":7462:7466   */\n      0x7f\n        /* \"#utility.yul\":7454:7460   */\n      dup3\n        /* \"#utility.yul\":7450:7467   */\n      and\n        /* \"#utility.yul\":7440:7467   */\n      swap2\n      pop\n        /* \"#utility.yul\":7396:7398   */\n    tag_187:\n        /* \"#utility.yul\":7524:7526   */\n      0x20\n        /* \"#utility.yul\":7516:7522   */\n      dup3\n        /* \"#utility.yul\":7513:7527   */\n      lt\n        /* \"#utility.yul\":7493:7511   */\n      dup2\n        /* \"#utility.yul\":7490:7528   */\n      eq\n        /* \"#utility.yul\":7487:7489   */\n      iszero\n      tag_188\n      jumpi\n        /* \"#utility.yul\":7543:7561   */\n      tag_189\n      tag_190\n      jump\t// in\n    tag_189:\n        /* \"#utility.yul\":7487:7489   */\n    tag_188:\n        /* \"#utility.yul\":7308:7577   */\n      pop\n      swap2\n      swap1\n      pop\n      jump\t// out\n        /* \"#utility.yul\":7583:7816   */\n    tag_64:\n      0x00\n        /* \"#utility.yul\":7645:7669   */\n      tag_192\n        /* \"#utility.yul\":7663:7668   */\n      dup3\n        /* \"#utility.yul\":7645:7669   */\n      tag_145\n      jump\t// in\n    tag_192:\n        /* \"#utility.yul\":7636:7669   */\n      swap2\n      pop\n        /* \"#utility.yul\":7691:7757   */\n      0xffffffffffffffffffffffffffffffffffffffffffffffffffffffffffffffff\n        /* \"#utility.yul\":7684:7689   */\n      dup3\n        /* \"#utility.yul\":7681:7758   */\n      eq\n        /* \"#utility.yul\":7678:7680   */\n      iszero\n      tag_193\n      jumpi\n        /* \"#utility.yul\":7761:7779   */\n      tag_194\n      tag_173\n      jump\t// in\n    tag_194:\n        /* \"#utility.yul\":7678:7680   */\n    tag_193:\n        /* \"#utility.yul\":7808:7809   */\n      0x01\n        /* \"#utility.yul\":7801:7806   */\n      dup3\n        /* \"#utility.yul\":7797:7810   */\n      add\n        /* \"#utility.yul\":7790:7810   */\n      swap1\n      pop\n        /* \"#utility.yul\":7626:7816   */\n      swap2\n      swap1\n      pop\n      jump\t// out\n        /* \"#utility.yul\":7822:8002   */\n    tag_173:\n        /* \"#utility.yul\":7870:7947   */\n      0x4e487b7100000000000000000000000000000000000000000000000000000000\n        /* \"#utility.yul\":7867:7868   */\n      0x00\n        /* \"#utility.yul\":7860:7948   */\n      mstore\n        /* \"#utility.yul\":7967:7971   */\n      0x11\n        /* \"#utility.yul\":7964:7965   */\n      0x04\n        /* \"#utility.yul\":7957:7972   */\n      mstore\n        /* \"#utility.yul\":7991:7995   */\n      0x24\n        /* \"#utility.yul\":7988:7989   */\n      0x00\n        /* \"#utility.yul\":7981:7996   */\n      revert\n        /* \"#utility.yul\":8008:8188   */\n    tag_190:\n        /* \"#utility.yul\":8056:8133   */\n      0x4e487b7100000000000000000000000000000000000000000000000000000000\n        /* \"#utility.yul\":8053:8054   */\n      0x00\n        /* \"#utility.yul\":8046:8134   */\n      mstore\n        /* \"#utility.yul\":8153:8157   */\n      0x22\n        /* \"#utility.yul\":8150:8151   */\n      0x04\n        /* \"#utility.yul\":8143:8158   */\n      mstore\n        /* \"#utility.yul\":8177:8181   */\n      0x24\n        /* \"#utility.yul\":8174:8175   */\n      0x00\n        /* \"#utility.yul\":8167:8182   */\n      revert\n        /* \"#utility.yul\":8194:8374   */\n    tag_159:\n        /* \"#utility.yul\":8242:8319   */\n      0x4e487b7100000000000000000000000000000000000000000000000000000000\n        /* \"#utility.yul\":8239:8240   */\n      0x00\n        /* \"#utility.yul\":8232:8320   */\n      mstore\n        /* \"#utility.yul\":8339:8343   */\n      0x41\n        /* \"#utility.yul\":8336:8337   */\n      0x04\n        /* \"#utility.yul\":8329:8344   */\n      mstore\n        /* \"#utility.yul\":8363:8367   */\n      0x24\n        /* \"#utility.yul\":8360:8361   */\n      0x00\n        /* \"#utility.yul\":8353:8368   */\n      revert\n        /* \"#utility.yul\":8380:8482   */\n    tag_141:\n      0x00\n        /* \"#utility.yul\":8472:8474   */\n      0x1f\n        /* \"#utility.yul\":8468:8475   */\n      not\n        /* \"#utility.yul\":8463:8465   */\n      0x1f\n        /* \"#utility.yul\":8456:8461   */\n      dup4\n        /* \"#utility.yul\":8452:8466   */\n      add\n        /* \"#utility.yul\":8448:8476   */\n      and\n        /* \"#utility.yul\":8438:8476   */\n      swap1\n      pop\n        /* \"#utility.yul\":8428:8482   */\n      swap2\n      swap1\n      pop\n      jump\t// out\n        /* \"#utility.yul\":8488:8610   */\n    tag_102:\n        /* \"#utility.yul\":8561:8585   */\n      tag_200\n        /* \"#utility.yul\":8579:8584   */\n      dup2\n        /* \"#utility.yul\":8561:8585   */\n      tag_127\n      jump\t// in\n    tag_200:\n        /* \"#utility.yul\":8554:8559   */\n      dup2\n        /* \"#utility.yul\":8551:8586   */\n      eq\n        /* \"#utility.yul\":8541:8543   */\n      tag_201\n      jumpi\n        /* \"#utility.yul\":8600:8601   */\n      0x00\n        /* \"#utility.yul\":8597:8598   */\n      dup1\n        /* \"#utility.yul\":8590:8602   */\n      revert\n        /* \"#utility.yul\":8541:8543   */\n    tag_201:\n        /* \"#utility.yul\":8531:8610   */\n      pop\n      jump\t// out\n        /* \"#utility.yul\":8616:8738   */\n    tag_113:\n        /* \"#utility.yul\":8689:8713   */\n      tag_203\n        /* \"#utility.yul\":8707:8712   */\n      dup2\n        /* \"#utility.yul\":8689:8713   */\n      tag_145\n      jump\t// in\n    tag_203:\n        /* \"#utility.yul\":8682:8687   */\n      dup2\n        /* \"#utility.yul\":8679:8714   */\n      eq\n        /* \"#utility.yul\":8669:8671   */\n      tag_204\n      jumpi\n        /* \"#utility.yul\":8728:8729   */\n      0x00\n        /* \"#utility.yul\":8725:8726   */\n      dup1\n        /* \"#utility.yul\":8718:8730   */\n      revert\n        /* \"#utility.yul\":8669:8671   */\n    tag_204:\n        /* \"#utility.yul\":8659:8738   */\n      pop\n      jump\t// out\n\n    auxdata: 0xa26469706673582212200a1a14387e285a5ad17e083eceab43180e4af585a5898296eeb03bac82481ad864736f6c63430008000033\n}\n",
				"bytecode": {
					"linkReferences": {},
					"object": "608060405234801561001057600080fd5b50610cbb806100206000396000f3fe608060405234801561001057600080fd5b506004361061007d5760003560e01c80633beb26c41161005b5780633beb26c4146100ed578063836bc692146101095780639e7b8d6114610125578063a3ec138d146101415761007d565b80630121b93f14610082578063013cf08b1461009e5780632e4176cf146100cf575b600080fd5b61009c60048036038101906100979190610896565b610174565b005b6100b860048036038101906100b39190610896565b610263565b6040516100c6929190610940565b60405180910390f35b6100d761031f565b6040516100e49190610925565b60405180910390f35b61010760048036038101906101029190610896565b610345565b005b610123600480360381019061011e9190610855565b61034f565b005b61013f600480360381019061013a919061082c565b6104c7565b005b61015b6004803603810190610156919061082c565b610613565b60405161016b9493929190610970565b60405180910390f35b6000600260003373ffffffffffffffffffffffffffffffffffffffff1673ffffffffffffffffffffffffffffffffffffffff16815260200190815260200160002090508060010160009054906101000a900460ff16156101d357600080fd5b60018160010160006101000a81548160ff021916908315150217905550818160020181905550806000015460038381548110610238577f4e487b7100000000000000000000000000000000000000000000000000000000600052603260045260246000fd5b906000526020600020906002020160010160008282546102589190610a5e565b925050819055505050565b6003818154811061027357600080fd5b906000526020600020906002020160009150905080600001805461029690610b3e565b80601f01602080910402602001604051908101604052809291908181526020018280546102c290610b3e565b801561030f5780601f106102e45761010080835404028352916020019161030f565b820191906000526020600020905b8154815290600101906020018083116102f257829003601f168201915b5050505050908060010154905082565b600160009054906101000a900473ffffffffffffffffffffffffffffffffffffffff1681565b8060008190555050565b33600160006101000a81548173ffffffffffffffffffffffffffffffffffffffff021916908373ffffffffffffffffffffffffffffffffffffffff160217905550600160026000600160009054906101000a900473ffffffffffffffffffffffffffffffffffffffff1673ffffffffffffffffffffffffffffffffffffffff1673ffffffffffffffffffffffffffffffffffffffff1681526020019081526020016000206000018190555060005b81518110156104c3576003604051806040016040528084848151811061044c577f4e487b7100000000000000000000000000000000000000000000000000000000600052603260045260246000fd5b602002602001015181526020016000815250908060018154018082558091505060019003906000526020600020906002020160009091909190915060008201518160000190805190602001906104a3929190610670565b5060208201518160010155505080806104bb90610b70565b9150506103fd565b5050565b600160009054906101000a900473ffffffffffffffffffffffffffffffffffffffff1673ffffffffffffffffffffffffffffffffffffffff163373ffffffffffffffffffffffffffffffffffffffff161480156105715750600260008273ffffffffffffffffffffffffffffffffffffffff1673ffffffffffffffffffffffffffffffffffffffff16815260200190815260200160002060010160009054906101000a900460ff16155b80156105bf57506000600260008373ffffffffffffffffffffffffffffffffffffffff1673ffffffffffffffffffffffffffffffffffffffff16815260200190815260200160002060000154145b6105c857600080fd5b6001600260008373ffffffffffffffffffffffffffffffffffffffff1673ffffffffffffffffffffffffffffffffffffffff1681526020019081526020016000206000018190555050565b60026020528060005260406000206000915090508060000154908060010160009054906101000a900460ff16908060010160019054906101000a900473ffffffffffffffffffffffffffffffffffffffff16908060020154905084565b82805461067c90610b3e565b90600052602060002090601f01602090048101928261069e57600085556106e5565b82601f106106b757805160ff19168380011785556106e5565b828001600101855582156106e5579182015b828111156106e45782518255916020019190600101906106c9565b5b5090506106f291906106f6565b5090565b5b8082111561070f5760008160009055506001016106f7565b5090565b6000610726610721846109e6565b6109b5565b9050808382526020820190508260005b85811015610766578135850161074c88826107ed565b845260208401935060208301925050600181019050610736565b5050509392505050565b600061078361077e84610a12565b6109b5565b90508281526020810184848401111561079b57600080fd5b6107a6848285610afc565b509392505050565b6000813590506107bd81610c57565b92915050565b600082601f8301126107d457600080fd5b81356107e4848260208601610713565b91505092915050565b600082601f8301126107fe57600080fd5b813561080e848260208601610770565b91505092915050565b60008135905061082681610c6e565b92915050565b60006020828403121561083e57600080fd5b600061084c848285016107ae565b91505092915050565b60006020828403121561086757600080fd5b600082013567ffffffffffffffff81111561088157600080fd5b61088d848285016107c3565b91505092915050565b6000602082840312156108a857600080fd5b60006108b684828501610817565b91505092915050565b6108c881610ab4565b82525050565b6108d781610ac6565b82525050565b60006108e882610a42565b6108f28185610a4d565b9350610902818560208601610b0b565b61090b81610c46565b840191505092915050565b61091f81610af2565b82525050565b600060208201905061093a60008301846108bf565b92915050565b6000604082019050818103600083015261095a81856108dd565b90506109696020830184610916565b9392505050565b60006080820190506109856000830187610916565b61099260208301866108ce565b61099f60408301856108bf565b6109ac6060830184610916565b95945050505050565b6000604051905081810181811067ffffffffffffffff821117156109dc576109db610c17565b5b8060405250919050565b600067ffffffffffffffff821115610a0157610a00610c17565b5b602082029050602081019050919050565b600067ffffffffffffffff821115610a2d57610a2c610c17565b5b601f19601f8301169050602081019050919050565b600081519050919050565b600082825260208201905092915050565b6000610a6982610af2565b9150610a7483610af2565b9250827fffffffffffffffffffffffffffffffffffffffffffffffffffffffffffffffff03821115610aa957610aa8610bb9565b5b828201905092915050565b6000610abf82610ad2565b9050919050565b60008115159050919050565b600073ffffffffffffffffffffffffffffffffffffffff82169050919050565b6000819050919050565b82818337600083830152505050565b60005b83811015610b29578082015181840152602081019050610b0e565b83811115610b38576000848401525b50505050565b60006002820490506001821680610b5657607f821691505b60208210811415610b6a57610b69610be8565b5b50919050565b6000610b7b82610af2565b91507fffffffffffffffffffffffffffffffffffffffffffffffffffffffffffffffff821415610bae57610bad610bb9565b5b600182019050919050565b7f4e487b7100000000000000000000000000000000000000000000000000000000600052601160045260246000fd5b7f4e487b7100000000000000000000000000000000000000000000000000000000600052602260045260246000fd5b7f4e487b7100000000000000000000000000000000000000000000000000000000600052604160045260246000fd5b6000601f19601f8301169050919050565b610c6081610ab4565b8114610c6b57600080fd5b50565b610c7781610af2565b8114610c8257600080fd5b5056fea26469706673582212200a1a14387e285a5ad17e083eceab43180e4af585a5898296eeb03bac82481ad864736f6c63430008000033",
					"opcodes": "PUSH1 0x80 PUSH1 0x40 MSTORE CALLVALUE DUP1 ISZERO PUSH2 0x10 JUMPI PUSH1 0x0 DUP1 REVERT JUMPDEST POP PUSH2 0xCBB DUP1 PUSH2 0x20 PUSH1 0x0 CODECOPY PUSH1 0x0 RETURN INVALID PUSH1 0x80 PUSH1 0x40 MSTORE CALLVALUE DUP1 ISZERO PUSH2 0x10 JUMPI PUSH1 0x0 DUP1 REVERT JUMPDEST POP PUSH1 0x4 CALLDATASIZE LT PUSH2 0x7D JUMPI PUSH1 0x0 CALLDATALOAD PUSH1 0xE0 SHR DUP1 PUSH4 0x3BEB26C4 GT PUSH2 0x5B JUMPI DUP1 PUSH4 0x3BEB26C4 EQ PUSH2 0xED JUMPI DUP1 PUSH4 0x836BC692 EQ PUSH2 0x109 JUMPI DUP1 PUSH4 0x9E7B8D61 EQ PUSH2 0x125 JUMPI DUP1 PUSH4 0xA3EC138D EQ PUSH2 0x141 JUMPI PUSH2 0x7D JUMP JUMPDEST DUP1 PUSH4 0x121B93F EQ PUSH2 0x82 JUMPI DUP1 PUSH4 0x13CF08B EQ PUSH2 0x9E JUMPI DUP1 PUSH4 0x2E4176CF EQ PUSH2 0xCF JUMPI JUMPDEST PUSH1 0x0 DUP1 REVERT JUMPDEST PUSH2 0x9C PUSH1 0x4 DUP1 CALLDATASIZE SUB DUP2 ADD SWAP1 PUSH2 0x97 SWAP2 SWAP1 PUSH2 0x896 JUMP JUMPDEST PUSH2 0x174 JUMP JUMPDEST STOP JUMPDEST PUSH2 0xB8 PUSH1 0x4 DUP1 CALLDATASIZE SUB DUP2 ADD SWAP1 PUSH2 0xB3 SWAP2 SWAP1 PUSH2 0x896 JUMP JUMPDEST PUSH2 0x263 JUMP JUMPDEST PUSH1 0x40 MLOAD PUSH2 0xC6 SWAP3 SWAP2 SWAP1 PUSH2 0x940 JUMP JUMPDEST PUSH1 0x40 MLOAD DUP1 SWAP2 SUB SWAP1 RETURN JUMPDEST PUSH2 0xD7 PUSH2 0x31F JUMP JUMPDEST PUSH1 0x40 MLOAD PUSH2 0xE4 SWAP2 SWAP1 PUSH2 0x925 JUMP JUMPDEST PUSH1 0x40 MLOAD DUP1 SWAP2 SUB SWAP1 RETURN JUMPDEST PUSH2 0x107 PUSH1 0x4 DUP1 CALLDATASIZE SUB DUP2 ADD SWAP1 PUSH2 0x102 SWAP2 SWAP1 PUSH2 0x896 JUMP JUMPDEST PUSH2 0x345 JUMP JUMPDEST STOP JUMPDEST PUSH2 0x123 PUSH1 0x4 DUP1 CALLDATASIZE SUB DUP2 ADD SWAP1 PUSH2 0x11E SWAP2 SWAP1 PUSH2 0x855 JUMP JUMPDEST PUSH2 0x34F JUMP JUMPDEST STOP JUMPDEST PUSH2 0x13F PUSH1 0x4 DUP1 CALLDATASIZE SUB DUP2 ADD SWAP1 PUSH2 0x13A SWAP2 SWAP1 PUSH2 0x82C JUMP JUMPDEST PUSH2 0x4C7 JUMP JUMPDEST STOP JUMPDEST PUSH2 0x15B PUSH1 0x4 DUP1 CALLDATASIZE SUB DUP2 ADD SWAP1 PUSH2 0x156 SWAP2 SWAP1 PUSH2 0x82C JUMP JUMPDEST PUSH2 0x613 JUMP JUMPDEST PUSH1 0x40 MLOAD PUSH2 0x16B SWAP5 SWAP4 SWAP3 SWAP2 SWAP1 PUSH2 0x970 JUMP JUMPDEST PUSH1 0x40 MLOAD DUP1 SWAP2 SUB SWAP1 RETURN JUMPDEST PUSH1 0x0 PUSH1 0x2 PUSH1 0x0 CALLER PUSH20 0xFFFFFFFFFFFFFFFFFFFFFFFFFFFFFFFFFFFFFFFF AND PUSH20 0xFFFFFFFFFFFFFFFFFFFFFFFFFFFFFFFFFFFFFFFF AND DUP2 MSTORE PUSH1 0x20 ADD SWAP1 DUP2 MSTORE PUSH1 0x20 ADD PUSH1 0x0 KECCAK256 SWAP1 POP DUP1 PUSH1 0x1 ADD PUSH1 0x0 SWAP1 SLOAD SWAP1 PUSH2 0x100 EXP SWAP1 DIV PUSH1 0xFF AND ISZERO PUSH2 0x1D3 JUMPI PUSH1 0x0 DUP1 REVERT JUMPDEST PUSH1 0x1 DUP2 PUSH1 0x1 ADD PUSH1 0x0 PUSH2 0x100 EXP DUP2 SLOAD DUP2 PUSH1 0xFF MUL NOT AND SWAP1 DUP4 ISZERO ISZERO MUL OR SWAP1 SSTORE POP DUP2 DUP2 PUSH1 0x2 ADD DUP2 SWAP1 SSTORE POP DUP1 PUSH1 0x0 ADD SLOAD PUSH1 0x3 DUP4 DUP2 SLOAD DUP2 LT PUSH2 0x238 JUMPI PUSH32 0x4E487B7100000000000000000000000000000000000000000000000000000000 PUSH1 0x0 MSTORE PUSH1 0x32 PUSH1 0x4 MSTORE PUSH1 0x24 PUSH1 0x0 REVERT JUMPDEST SWAP1 PUSH1 0x0 MSTORE PUSH1 0x20 PUSH1 0x0 KECCAK256 SWAP1 PUSH1 0x2 MUL ADD PUSH1 0x1 ADD PUSH1 0x0 DUP3 DUP3 SLOAD PUSH2 0x258 SWAP2 SWAP1 PUSH2 0xA5E JUMP JUMPDEST SWAP3 POP POP DUP2 SWAP1 SSTORE POP POP POP JUMP JUMPDEST PUSH1 0x3 DUP2 DUP2 SLOAD DUP2 LT PUSH2 0x273 JUMPI PUSH1 0x0 DUP1 REVERT JUMPDEST SWAP1 PUSH1 0x0 MSTORE PUSH1 0x20 PUSH1 0x0 KECCAK256 SWAP1 PUSH1 0x2 MUL ADD PUSH1 0x0 SWAP2 POP SWAP1 POP DUP1 PUSH1 0x0 ADD DUP1 SLOAD PUSH2 0x296 SWAP1 PUSH2 0xB3E JUMP JUMPDEST DUP1 PUSH1 0x1F ADD PUSH1 0x20 DUP1 SWAP2 DIV MUL PUSH1 0x20 ADD PUSH1 0x40 MLOAD SWAP1 DUP2 ADD PUSH1 0x40 MSTORE DUP1 SWAP3 SWAP2 SWAP1 DUP2 DUP2 MSTORE PUSH1 0x20 ADD DUP3 DUP1 SLOAD PUSH2 0x2C2 SWAP1 PUSH2 0xB3E JUMP JUMPDEST DUP1 ISZERO PUSH2 0x30F JUMPI DUP1 PUSH1 0x1F LT PUSH2 0x2E4 JUMPI PUSH2 0x100 DUP1 DUP4 SLOAD DIV MUL DUP4 MSTORE SWAP2 PUSH1 0x20 ADD SWAP2 PUSH2 0x30F JUMP JUMPDEST DUP3 ADD SWAP2 SWAP1 PUSH1 0x0 MSTORE PUSH1 0x20 PUSH1 0x0 KECCAK256 SWAP1 JUMPDEST DUP2 SLOAD DUP2 MSTORE SWAP1 PUSH1 0x1 ADD SWAP1 PUSH1 0x20 ADD DUP1 DUP4 GT PUSH2 0x2F2 JUMPI DUP3 SWAP1 SUB PUSH1 0x1F AND DUP3 ADD SWAP2 JUMPDEST POP POP POP POP POP SWAP1 DUP1 PUSH1 0x1 ADD SLOAD SWAP1 POP DUP3 JUMP JUMPDEST PUSH1 0x1 PUSH1 0x0 SWAP1 SLOAD SWAP1 PUSH2 0x100 EXP SWAP1 DIV PUSH20 0xFFFFFFFFFFFFFFFFFFFFFFFFFFFFFFFFFFFFFFFF AND DUP2 JUMP JUMPDEST DUP1 PUSH1 0x0 DUP2 SWAP1 SSTORE POP POP JUMP JUMPDEST CALLER PUSH1 0x1 PUSH1 0x0 PUSH2 0x100 EXP DUP2 SLOAD DUP2 PUSH20 0xFFFFFFFFFFFFFFFFFFFFFFFFFFFFFFFFFFFFFFFF MUL NOT AND SWAP1 DUP4 PUSH20 0xFFFFFFFFFFFFFFFFFFFFFFFFFFFFFFFFFFFFFFFF AND MUL OR SWAP1 SSTORE POP PUSH1 0x1 PUSH1 0x2 PUSH1 0x0 PUSH1 0x1 PUSH1 0x0 SWAP1 SLOAD SWAP1 PUSH2 0x100 EXP SWAP1 DIV PUSH20 0xFFFFFFFFFFFFFFFFFFFFFFFFFFFFFFFFFFFFFFFF AND PUSH20 0xFFFFFFFFFFFFFFFFFFFFFFFFFFFFFFFFFFFFFFFF AND PUSH20 0xFFFFFFFFFFFFFFFFFFFFFFFFFFFFFFFFFFFFFFFF AND DUP2 MSTORE PUSH1 0x20 ADD SWAP1 DUP2 MSTORE PUSH1 0x20 ADD PUSH1 0x0 KECCAK256 PUSH1 0x0 ADD DUP2 SWAP1 SSTORE POP PUSH1 0x0 JUMPDEST DUP2 MLOAD DUP2 LT ISZERO PUSH2 0x4C3 JUMPI PUSH1 0x3 PUSH1 0x40 MLOAD DUP1 PUSH1 0x40 ADD PUSH1 0x40 MSTORE DUP1 DUP5 DUP5 DUP2 MLOAD DUP2 LT PUSH2 0x44C JUMPI PUSH32 0x4E487B7100000000000000000000000000000000000000000000000000000000 PUSH1 0x0 MSTORE PUSH1 0x32 PUSH1 0x4 MSTORE PUSH1 0x24 PUSH1 0x0 REVERT JUMPDEST PUSH1 0x20 MUL PUSH1 0x20 ADD ADD MLOAD DUP2 MSTORE PUSH1 0x20 ADD PUSH1 0x0 DUP2 MSTORE POP SWAP1 DUP1 PUSH1 0x1 DUP2 SLOAD ADD DUP1 DUP3 SSTORE DUP1 SWAP2 POP POP PUSH1 0x1 SWAP1 SUB SWAP1 PUSH1 0x0 MSTORE PUSH1 0x20 PUSH1 0x0 KECCAK256 SWAP1 PUSH1 0x2 MUL ADD PUSH1 0x0 SWAP1 SWAP2 SWAP1 SWAP2 SWAP1 SWAP2 POP PUSH1 0x0 DUP3 ADD MLOAD DUP2 PUSH1 0x0 ADD SWAP1 DUP1 MLOAD SWAP1 PUSH1 0x20 ADD SWAP1 PUSH2 0x4A3 SWAP3 SWAP2 SWAP1 PUSH2 0x670 JUMP JUMPDEST POP PUSH1 0x20 DUP3 ADD MLOAD DUP2 PUSH1 0x1 ADD SSTORE POP POP DUP1 DUP1 PUSH2 0x4BB SWAP1 PUSH2 0xB70 JUMP JUMPDEST SWAP2 POP POP PUSH2 0x3FD JUMP JUMPDEST POP POP JUMP JUMPDEST PUSH1 0x1 PUSH1 0x0 SWAP1 SLOAD SWAP1 PUSH2 0x100 EXP SWAP1 DIV PUSH20 0xFFFFFFFFFFFFFFFFFFFFFFFFFFFFFFFFFFFFFFFF AND PUSH20 0xFFFFFFFFFFFFFFFFFFFFFFFFFFFFFFFFFFFFFFFF AND CALLER PUSH20 0xFFFFFFFFFFFFFFFFFFFFFFFFFFFFFFFFFFFFFFFF AND EQ DUP1 ISZERO PUSH2 0x571 JUMPI POP PUSH1 0x2 PUSH1 0x0 DUP3 PUSH20 0xFFFFFFFFFFFFFFFFFFFFFFFFFFFFFFFFFFFFFFFF AND PUSH20 0xFFFFFFFFFFFFFFFFFFFFFFFFFFFFFFFFFFFFFFFF AND DUP2 MSTORE PUSH1 0x20 ADD SWAP1 DUP2 MSTORE PUSH1 0x20 ADD PUSH1 0x0 KECCAK256 PUSH1 0x1 ADD PUSH1 0x0 SWAP1 SLOAD SWAP1 PUSH2 0x100 EXP SWAP1 DIV PUSH1 0xFF AND ISZERO JUMPDEST DUP1 ISZERO PUSH2 0x5BF JUMPI POP PUSH1 0x0 PUSH1 0x2 PUSH1 0x0 DUP4 PUSH20 0xFFFFFFFFFFFFFFFFFFFFFFFFFFFFFFFFFFFFFFFF AND PUSH20 0xFFFFFFFFFFFFFFFFFFFFFFFFFFFFFFFFFFFFFFFF AND DUP2 MSTORE PUSH1 0x20 ADD SWAP1 DUP2 MSTORE PUSH1 0x20 ADD PUSH1 0x0 KECCAK256 PUSH1 0x0 ADD SLOAD EQ JUMPDEST PUSH2 0x5C8 JUMPI PUSH1 0x0 DUP1 REVERT JUMPDEST PUSH1 0x1 PUSH1 0x2 PUSH1 0x0 DUP4 PUSH20 0xFFFFFFFFFFFFFFFFFFFFFFFFFFFFFFFFFFFFFFFF AND PUSH20 0xFFFFFFFFFFFFFFFFFFFFFFFFFFFFFFFFFFFFFFFF AND DUP2 MSTORE PUSH1 0x20 ADD SWAP1 DUP2 MSTORE PUSH1 0x20 ADD PUSH1 0x0 KECCAK256 PUSH1 0x0 ADD DUP2 SWAP1 SSTORE POP POP JUMP JUMPDEST PUSH1 0x2 PUSH1 0x20 MSTORE DUP1 PUSH1 0x0 MSTORE PUSH1 0x40 PUSH1 0x0 KECCAK256 PUSH1 0x0 SWAP2 POP SWAP1 POP DUP1 PUSH1 0x0 ADD SLOAD SWAP1 DUP1 PUSH1 0x1 ADD PUSH1 0x0 SWAP1 SLOAD SWAP1 PUSH2 0x100 EXP SWAP1 DIV PUSH1 0xFF AND SWAP1 DUP1 PUSH1 0x1 ADD PUSH1 0x1 SWAP1 SLOAD SWAP1 PUSH2 0x100 EXP SWAP1 DIV PUSH20 0xFFFFFFFFFFFFFFFFFFFFFFFFFFFFFFFFFFFFFFFF AND SWAP1 DUP1 PUSH1 0x2 ADD SLOAD SWAP1 POP DUP5 JUMP JUMPDEST DUP3 DUP1 SLOAD PUSH2 0x67C SWAP1 PUSH2 0xB3E JUMP JUMPDEST SWAP1 PUSH1 0x0 MSTORE PUSH1 0x20 PUSH1 0x0 KECCAK256 SWAP1 PUSH1 0x1F ADD PUSH1 0x20 SWAP1 DIV DUP2 ADD SWAP3 DUP3 PUSH2 0x69E JUMPI PUSH1 0x0 DUP6 SSTORE PUSH2 0x6E5 JUMP JUMPDEST DUP3 PUSH1 0x1F LT PUSH2 0x6B7 JUMPI DUP1 MLOAD PUSH1 0xFF NOT AND DUP4 DUP1 ADD OR DUP6 SSTORE PUSH2 0x6E5 JUMP JUMPDEST DUP3 DUP1 ADD PUSH1 0x1 ADD DUP6 SSTORE DUP3 ISZERO PUSH2 0x6E5 JUMPI SWAP2 DUP3 ADD JUMPDEST DUP3 DUP2 GT ISZERO PUSH2 0x6E4 JUMPI DUP3 MLOAD DUP3 SSTORE SWAP2 PUSH1 0x20 ADD SWAP2 SWAP1 PUSH1 0x1 ADD SWAP1 PUSH2 0x6C9 JUMP JUMPDEST JUMPDEST POP SWAP1 POP PUSH2 0x6F2 SWAP2 SWAP1 PUSH2 0x6F6 JUMP JUMPDEST POP SWAP1 JUMP JUMPDEST JUMPDEST DUP1 DUP3 GT ISZERO PUSH2 0x70F JUMPI PUSH1 0x0 DUP2 PUSH1 0x0 SWAP1 SSTORE POP PUSH1 0x1 ADD PUSH2 0x6F7 JUMP JUMPDEST POP SWAP1 JUMP JUMPDEST PUSH1 0x0 PUSH2 0x726 PUSH2 0x721 DUP5 PUSH2 0x9E6 JUMP JUMPDEST PUSH2 0x9B5 JUMP JUMPDEST SWAP1 POP DUP1 DUP4 DUP3 MSTORE PUSH1 0x20 DUP3 ADD SWAP1 POP DUP3 PUSH1 0x0 JUMPDEST DUP6 DUP2 LT ISZERO PUSH2 0x766 JUMPI DUP2 CALLDATALOAD DUP6 ADD PUSH2 0x74C DUP9 DUP3 PUSH2 0x7ED JUMP JUMPDEST DUP5 MSTORE PUSH1 0x20 DUP5 ADD SWAP4 POP PUSH1 0x20 DUP4 ADD SWAP3 POP POP PUSH1 0x1 DUP2 ADD SWAP1 POP PUSH2 0x736 JUMP JUMPDEST POP POP POP SWAP4 SWAP3 POP POP POP JUMP JUMPDEST PUSH1 0x0 PUSH2 0x783 PUSH2 0x77E DUP5 PUSH2 0xA12 JUMP JUMPDEST PUSH2 0x9B5 JUMP JUMPDEST SWAP1 POP DUP3 DUP2 MSTORE PUSH1 0x20 DUP2 ADD DUP5 DUP5 DUP5 ADD GT ISZERO PUSH2 0x79B JUMPI PUSH1 0x0 DUP1 REVERT JUMPDEST PUSH2 0x7A6 DUP5 DUP3 DUP6 PUSH2 0xAFC JUMP JUMPDEST POP SWAP4 SWAP3 POP POP POP JUMP JUMPDEST PUSH1 0x0 DUP2 CALLDATALOAD SWAP1 POP PUSH2 0x7BD DUP2 PUSH2 0xC57 JUMP JUMPDEST SWAP3 SWAP2 POP POP JUMP JUMPDEST PUSH1 0x0 DUP3 PUSH1 0x1F DUP4 ADD SLT PUSH2 0x7D4 JUMPI PUSH1 0x0 DUP1 REVERT JUMPDEST DUP2 CALLDATALOAD PUSH2 0x7E4 DUP5 DUP3 PUSH1 0x20 DUP7 ADD PUSH2 0x713 JUMP JUMPDEST SWAP2 POP POP SWAP3 SWAP2 POP POP JUMP JUMPDEST PUSH1 0x0 DUP3 PUSH1 0x1F DUP4 ADD SLT PUSH2 0x7FE JUMPI PUSH1 0x0 DUP1 REVERT JUMPDEST DUP2 CALLDATALOAD PUSH2 0x80E DUP5 DUP3 PUSH1 0x20 DUP7 ADD PUSH2 0x770 JUMP JUMPDEST SWAP2 POP POP SWAP3 SWAP2 POP POP JUMP JUMPDEST PUSH1 0x0 DUP2 CALLDATALOAD SWAP1 POP PUSH2 0x826 DUP2 PUSH2 0xC6E JUMP JUMPDEST SWAP3 SWAP2 POP POP JUMP JUMPDEST PUSH1 0x0 PUSH1 0x20 DUP3 DUP5 SUB SLT ISZERO PUSH2 0x83E JUMPI PUSH1 0x0 DUP1 REVERT JUMPDEST PUSH1 0x0 PUSH2 0x84C DUP5 DUP3 DUP6 ADD PUSH2 0x7AE JUMP JUMPDEST SWAP2 POP POP SWAP3 SWAP2 POP POP JUMP JUMPDEST PUSH1 0x0 PUSH1 0x20 DUP3 DUP5 SUB SLT ISZERO PUSH2 0x867 JUMPI PUSH1 0x0 DUP1 REVERT JUMPDEST PUSH1 0x0 DUP3 ADD CALLDATALOAD PUSH8 0xFFFFFFFFFFFFFFFF DUP2 GT ISZERO PUSH2 0x881 JUMPI PUSH1 0x0 DUP1 REVERT JUMPDEST PUSH2 0x88D DUP5 DUP3 DUP6 ADD PUSH2 0x7C3 JUMP JUMPDEST SWAP2 POP POP SWAP3 SWAP2 POP POP JUMP JUMPDEST PUSH1 0x0 PUSH1 0x20 DUP3 DUP5 SUB SLT ISZERO PUSH2 0x8A8 JUMPI PUSH1 0x0 DUP1 REVERT JUMPDEST PUSH1 0x0 PUSH2 0x8B6 DUP5 DUP3 DUP6 ADD PUSH2 0x817 JUMP JUMPDEST SWAP2 POP POP SWAP3 SWAP2 POP POP JUMP JUMPDEST PUSH2 0x8C8 DUP2 PUSH2 0xAB4 JUMP JUMPDEST DUP3 MSTORE POP POP JUMP JUMPDEST PUSH2 0x8D7 DUP2 PUSH2 0xAC6 JUMP JUMPDEST DUP3 MSTORE POP POP JUMP JUMPDEST PUSH1 0x0 PUSH2 0x8E8 DUP3 PUSH2 0xA42 JUMP JUMPDEST PUSH2 0x8F2 DUP2 DUP6 PUSH2 0xA4D JUMP JUMPDEST SWAP4 POP PUSH2 0x902 DUP2 DUP6 PUSH1 0x20 DUP7 ADD PUSH2 0xB0B JUMP JUMPDEST PUSH2 0x90B DUP2 PUSH2 0xC46 JUMP JUMPDEST DUP5 ADD SWAP2 POP POP SWAP3 SWAP2 POP POP JUMP JUMPDEST PUSH2 0x91F DUP2 PUSH2 0xAF2 JUMP JUMPDEST DUP3 MSTORE POP POP JUMP JUMPDEST PUSH1 0x0 PUSH1 0x20 DUP3 ADD SWAP1 POP PUSH2 0x93A PUSH1 0x0 DUP4 ADD DUP5 PUSH2 0x8BF JUMP JUMPDEST SWAP3 SWAP2 POP POP JUMP JUMPDEST PUSH1 0x0 PUSH1 0x40 DUP3 ADD SWAP1 POP DUP2 DUP2 SUB PUSH1 0x0 DUP4 ADD MSTORE PUSH2 0x95A DUP2 DUP6 PUSH2 0x8DD JUMP JUMPDEST SWAP1 POP PUSH2 0x969 PUSH1 0x20 DUP4 ADD DUP5 PUSH2 0x916 JUMP JUMPDEST SWAP4 SWAP3 POP POP POP JUMP JUMPDEST PUSH1 0x0 PUSH1 0x80 DUP3 ADD SWAP1 POP PUSH2 0x985 PUSH1 0x0 DUP4 ADD DUP8 PUSH2 0x916 JUMP JUMPDEST PUSH2 0x992 PUSH1 0x20 DUP4 ADD DUP7 PUSH2 0x8CE JUMP JUMPDEST PUSH2 0x99F PUSH1 0x40 DUP4 ADD DUP6 PUSH2 0x8BF JUMP JUMPDEST PUSH2 0x9AC PUSH1 0x60 DUP4 ADD DUP5 PUSH2 0x916 JUMP JUMPDEST SWAP6 SWAP5 POP POP POP POP POP JUMP JUMPDEST PUSH1 0x0 PUSH1 0x40 MLOAD SWAP1 POP DUP2 DUP2 ADD DUP2 DUP2 LT PUSH8 0xFFFFFFFFFFFFFFFF DUP3 GT OR ISZERO PUSH2 0x9DC JUMPI PUSH2 0x9DB PUSH2 0xC17 JUMP JUMPDEST JUMPDEST DUP1 PUSH1 0x40 MSTORE POP SWAP2 SWAP1 POP JUMP JUMPDEST PUSH1 0x0 PUSH8 0xFFFFFFFFFFFFFFFF DUP3 GT ISZERO PUSH2 0xA01 JUMPI PUSH2 0xA00 PUSH2 0xC17 JUMP JUMPDEST JUMPDEST PUSH1 0x20 DUP3 MUL SWAP1 POP PUSH1 0x20 DUP2 ADD SWAP1 POP SWAP2 SWAP1 POP JUMP JUMPDEST PUSH1 0x0 PUSH8 0xFFFFFFFFFFFFFFFF DUP3 GT ISZERO PUSH2 0xA2D JUMPI PUSH2 0xA2C PUSH2 0xC17 JUMP JUMPDEST JUMPDEST PUSH1 0x1F NOT PUSH1 0x1F DUP4 ADD AND SWAP1 POP PUSH1 0x20 DUP2 ADD SWAP1 POP SWAP2 SWAP1 POP JUMP JUMPDEST PUSH1 0x0 DUP2 MLOAD SWAP1 POP SWAP2 SWAP1 POP JUMP JUMPDEST PUSH1 0x0 DUP3 DUP3 MSTORE PUSH1 0x20 DUP3 ADD SWAP1 POP SWAP3 SWAP2 POP POP JUMP JUMPDEST PUSH1 0x0 PUSH2 0xA69 DUP3 PUSH2 0xAF2 JUMP JUMPDEST SWAP2 POP PUSH2 0xA74 DUP4 PUSH2 0xAF2 JUMP JUMPDEST SWAP3 POP DUP3 PUSH32 0xFFFFFFFFFFFFFFFFFFFFFFFFFFFFFFFFFFFFFFFFFFFFFFFFFFFFFFFFFFFFFFFF SUB DUP3 GT ISZERO PUSH2 0xAA9 JUMPI PUSH2 0xAA8 PUSH2 0xBB9 JUMP JUMPDEST JUMPDEST DUP3 DUP3 ADD SWAP1 POP SWAP3 SWAP2 POP POP JUMP JUMPDEST PUSH1 0x0 PUSH2 0xABF DUP3 PUSH2 0xAD2 JUMP JUMPDEST SWAP1 POP SWAP2 SWAP1 POP JUMP JUMPDEST PUSH1 0x0 DUP2 ISZERO ISZERO SWAP1 POP SWAP2 SWAP1 POP JUMP JUMPDEST PUSH1 0x0 PUSH20 0xFFFFFFFFFFFFFFFFFFFFFFFFFFFFFFFFFFFFFFFF DUP3 AND SWAP1 POP SWAP2 SWAP1 POP JUMP JUMPDEST PUSH1 0x0 DUP2 SWAP1 POP SWAP2 SWAP1 POP JUMP JUMPDEST DUP3 DUP2 DUP4 CALLDATACOPY PUSH1 0x0 DUP4 DUP4 ADD MSTORE POP POP POP JUMP JUMPDEST PUSH1 0x0 JUMPDEST DUP4 DUP2 LT ISZERO PUSH2 0xB29 JUMPI DUP1 DUP3 ADD MLOAD DUP2 DUP5 ADD MSTORE PUSH1 0x20 DUP2 ADD SWAP1 POP PUSH2 0xB0E JUMP JUMPDEST DUP4 DUP2 GT ISZERO PUSH2 0xB38 JUMPI PUSH1 0x0 DUP5 DUP5 ADD MSTORE JUMPDEST POP POP POP POP JUMP JUMPDEST PUSH1 0x0 PUSH1 0x2 DUP3 DIV SWAP1 POP PUSH1 0x1 DUP3 AND DUP1 PUSH2 0xB56 JUMPI PUSH1 0x7F DUP3 AND SWAP2 POP JUMPDEST PUSH1 0x20 DUP3 LT DUP2 EQ ISZERO PUSH2 0xB6A JUMPI PUSH2 0xB69 PUSH2 0xBE8 JUMP JUMPDEST JUMPDEST POP SWAP2 SWAP1 POP JUMP JUMPDEST PUSH1 0x0 PUSH2 0xB7B DUP3 PUSH2 0xAF2 JUMP JUMPDEST SWAP2 POP PUSH32 0xFFFFFFFFFFFFFFFFFFFFFFFFFFFFFFFFFFFFFFFFFFFFFFFFFFFFFFFFFFFFFFFF DUP3 EQ ISZERO PUSH2 0xBAE JUMPI PUSH2 0xBAD PUSH2 0xBB9 JUMP JUMPDEST JUMPDEST PUSH1 0x1 DUP3 ADD SWAP1 POP SWAP2 SWAP1 POP JUMP JUMPDEST PUSH32 0x4E487B7100000000000000000000000000000000000000000000000000000000 PUSH1 0x0 MSTORE PUSH1 0x11 PUSH1 0x4 MSTORE PUSH1 0x24 PUSH1 0x0 REVERT JUMPDEST PUSH32 0x4E487B7100000000000000000000000000000000000000000000000000000000 PUSH1 0x0 MSTORE PUSH1 0x22 PUSH1 0x4 MSTORE PUSH1 0x24 PUSH1 0x0 REVERT JUMPDEST PUSH32 0x4E487B7100000000000000000000000000000000000000000000000000000000 PUSH1 0x0 MSTORE PUSH1 0x41 PUSH1 0x4 MSTORE PUSH1 0x24 PUSH1 0x0 REVERT JUMPDEST PUSH1 0x0 PUSH1 0x1F NOT PUSH1 0x1F DUP4 ADD AND SWAP1 POP SWAP2 SWAP1 POP JUMP JUMPDEST PUSH2 0xC60 DUP2 PUSH2 0xAB4 JUMP JUMPDEST DUP2 EQ PUSH2 0xC6B JUMPI PUSH1 0x0 DUP1 REVERT JUMPDEST POP JUMP JUMPDEST PUSH2 0xC77 DUP2 PUSH2 0xAF2 JUMP JUMPDEST DUP2 EQ PUSH2 0xC82 JUMPI PUSH1 0x0 DUP1 REVERT JUMPDEST POP JUMP INVALID LOG2 PUSH5 0x6970667358 0x22 SLT KECCAK256 EXP BYTE EQ CODESIZE PUSH31 0x285A5AD17E083ECEAB43180E4AF585A5898296EEB03BAC82481AD864736F6C PUSH4 0x43000800 STOP CALLER "
				},
				"gasEstimates": {
					"creation": {
						"codeDepositCost": "651800",
						"executionCost": "683",
						"totalCost": "652483"
					},
					"external": {
						"chairperson()": "1259",
						"createBallot(string[])": "infinite",
						"giveRightToVote(address)": "23366",
						"proposals(uint256)": "infinite",
						"setTime(uint256)": "20420",
						"vote(uint256)": "infinite",
						"voters(address)": "infinite"
					}
				},
				"methodIdentifiers": {
					"chairperson()": "2e4176cf",
					"createBallot(string[])": "836bc692",
					"giveRightToVote(address)": "9e7b8d61",
					"proposals(uint256)": "013cf08b",
					"setTime(uint256)": "3beb26c4",
					"vote(uint256)": "0121b93f",
					"voters(address)": "a3ec138d"
				}
			},
			"storageLayout": {
				"storage": [
					{
						"astId": 3,
						"contract": "contracts/prop_test.sol:Ballot",
						"label": "startDate",
						"offset": 0,
						"slot": "0",
						"type": "t_uint256"
					},
					{
						"astId": 19,
						"contract": "contracts/prop_test.sol:Ballot",
						"label": "chairperson",
						"offset": 0,
						"slot": "1",
						"type": "t_address"
					},
					{
						"astId": 24,
						"contract": "contracts/prop_test.sol:Ballot",
						"label": "voters",
						"offset": 0,
						"slot": "2",
						"type": "t_mapping(t_address,t_struct(Voter)12_storage)"
					},
					{
						"astId": 28,
						"contract": "contracts/prop_test.sol:Ballot",
						"label": "proposals",
						"offset": 0,
						"slot": "3",
						"type": "t_array(t_struct(Proposal)17_storage)dyn_storage"
					}
				],
				"types": {
					"t_address": {
						"encoding": "inplace",
						"label": "address",
						"numberOfBytes": "20"
					},
					"t_array(t_struct(Proposal)17_storage)dyn_storage": {
						"base": "t_struct(Proposal)17_storage",
						"encoding": "dynamic_array",
						"label": "struct Ballot.Proposal[]",
						"numberOfBytes": "32"
					},
					"t_bool": {
						"encoding": "inplace",
						"label": "bool",
						"numberOfBytes": "1"
					},
					"t_mapping(t_address,t_struct(Voter)12_storage)": {
						"encoding": "mapping",
						"key": "t_address",
						"label": "mapping(address => struct Ballot.Voter)",
						"numberOfBytes": "32",
						"value": "t_struct(Voter)12_storage"
					},
					"t_string_storage": {
						"encoding": "bytes",
						"label": "string",
						"numberOfBytes": "32"
					},
					"t_struct(Proposal)17_storage": {
						"encoding": "inplace",
						"label": "struct Ballot.Proposal",
						"members": [
							{
								"astId": 14,
								"contract": "contracts/prop_test.sol:Ballot",
								"label": "name",
								"offset": 0,
								"slot": "0",
								"type": "t_string_storage"
							},
							{
								"astId": 16,
								"contract": "contracts/prop_test.sol:Ballot",
								"label": "voteCount",
								"offset": 0,
								"slot": "1",
								"type": "t_uint256"
							}
						],
						"numberOfBytes": "64"
					},
					"t_struct(Voter)12_storage": {
						"encoding": "inplace",
						"label": "struct Ballot.Voter",
						"members": [
							{
								"astId": 5,
								"contract": "contracts/prop_test.sol:Ballot",
								"label": "weight",
								"offset": 0,
								"slot": "0",
								"type": "t_uint256"
							},
							{
								"astId": 7,
								"contract": "contracts/prop_test.sol:Ballot",
								"label": "voted",
								"offset": 0,
								"slot": "1",
								"type": "t_bool"
							},
							{
								"astId": 9,
								"contract": "contracts/prop_test.sol:Ballot",
								"label": "delegate",
								"offset": 1,
								"slot": "1",
								"type": "t_address"
							},
							{
								"astId": 11,
								"contract": "contracts/prop_test.sol:Ballot",
								"label": "vote",
								"offset": 0,
								"slot": "2",
								"type": "t_uint256"
							}
						],
						"numberOfBytes": "96"
					},
					"t_uint256": {
						"encoding": "inplace",
						"label": "uint256",
						"numberOfBytes": "32"
					}
				}
			},
			"userdoc": {
				"kind": "user",
				"methods": {},
				"version": 1
			}
		}
	}
}