{
	"contracts/prop_test.sol": {
		"Ballot": {
			"abi": [
				{
					"inputs": [],
					"name": "chairperson",
					"outputs": [
						{
							"internalType": "address",
							"name": "",
							"type": "address"
						}
					],
					"stateMutability": "view",
					"type": "function"
				},
				{
					"inputs": [
						{
							"internalType": "bytes32[]",
							"name": "proposalNames",
							"type": "bytes32[]"
						}
					],
					"name": "createBallot",
					"outputs": [],
					"stateMutability": "nonpayable",
					"type": "function"
				},
				{
					"inputs": [
						{
							"internalType": "address",
							"name": "voter",
							"type": "address"
						}
					],
					"name": "giveRightToVote",
					"outputs": [],
					"stateMutability": "nonpayable",
					"type": "function"
				},
				{
					"inputs": [
						{
							"internalType": "uint256",
							"name": "",
							"type": "uint256"
						}
					],
					"name": "proposals",
					"outputs": [
						{
							"internalType": "bytes32",
							"name": "name",
							"type": "bytes32"
						},
						{
							"internalType": "uint256",
							"name": "voteCount",
							"type": "uint256"
						}
					],
					"stateMutability": "view",
					"type": "function"
				},
				{
					"inputs": [
						{
							"internalType": "uint256",
							"name": "proposal",
							"type": "uint256"
						}
					],
					"name": "vote",
					"outputs": [],
					"stateMutability": "nonpayable",
					"type": "function"
				},
				{
					"inputs": [
						{
							"internalType": "address",
							"name": "",
							"type": "address"
						}
					],
					"name": "voters",
					"outputs": [
						{
							"internalType": "uint256",
							"name": "weight",
							"type": "uint256"
						},
						{
							"internalType": "bool",
							"name": "voted",
							"type": "bool"
						},
						{
							"internalType": "address",
							"name": "delegate",
							"type": "address"
						},
						{
							"internalType": "uint256",
							"name": "vote",
							"type": "uint256"
						}
					],
					"stateMutability": "view",
					"type": "function"
				}
			],
			"devdoc": {
				"kind": "dev",
				"methods": {},
				"version": 1
			},
			"evm": {
				"assembly": "    /* \"contracts/prop_test.sol\":60:2448  contract Ballot {\r... */\n  mstore(0x40, 0x80)\n  callvalue\n  dup1\n  iszero\n  tag_1\n  jumpi\n  0x00\n  dup1\n  revert\ntag_1:\n  pop\n  dataSize(sub_0)\n  dup1\n  dataOffset(sub_0)\n  0x00\n  codecopy\n  0x00\n  return\nstop\n\nsub_0: assembly {\n        /* \"contracts/prop_test.sol\":60:2448  contract Ballot {\r... */\n      mstore(0x40, 0x80)\n      callvalue\n      dup1\n      iszero\n      tag_1\n      jumpi\n      0x00\n      dup1\n      revert\n    tag_1:\n      pop\n      jumpi(tag_2, lt(calldatasize, 0x04))\n      shr(0xe0, calldataload(0x00))\n      dup1\n      0x0121b93f\n      eq\n      tag_3\n      jumpi\n      dup1\n      0x013cf08b\n      eq\n      tag_4\n      jumpi\n      dup1\n      0x2e4176cf\n      eq\n      tag_5\n      jumpi\n      dup1\n      0x9e7b8d61\n      eq\n      tag_6\n      jumpi\n      dup1\n      0xa3ec138d\n      eq\n      tag_7\n      jumpi\n      dup1\n      0xe35c9384\n      eq\n      tag_8\n      jumpi\n    tag_2:\n      0x00\n      dup1\n      revert\n        /* \"contracts/prop_test.sol\":2056:2445  function vote(uint proposal) public {\r... */\n    tag_3:\n      tag_9\n      0x04\n      dup1\n      calldatasize\n      sub\n      dup2\n      add\n      swap1\n      tag_10\n      swap2\n      swap1\n      tag_11\n      jump\t// in\n    tag_10:\n      tag_12\n      jump\t// in\n    tag_9:\n      stop\n        /* \"contracts/prop_test.sol\":769:796  Proposal[] public proposals */\n    tag_4:\n      tag_13\n      0x04\n      dup1\n      calldatasize\n      sub\n      dup2\n      add\n      swap1\n      tag_14\n      swap2\n      swap1\n      tag_11\n      jump\t// in\n    tag_14:\n      tag_15\n      jump\t// in\n    tag_13:\n      mload(0x40)\n      tag_16\n      swap3\n      swap2\n      swap1\n      tag_17\n      jump\t// in\n    tag_16:\n      mload(0x40)\n      dup1\n      swap2\n      sub\n      swap1\n      return\n        /* \"contracts/prop_test.sol\":526:552  address public chairperson */\n    tag_5:\n      tag_18\n      tag_19\n      jump\t// in\n    tag_18:\n      mload(0x40)\n      tag_20\n      swap2\n      swap1\n      tag_21\n      jump\t// in\n    tag_20:\n      mload(0x40)\n      dup1\n      swap2\n      sub\n      swap1\n      return\n        /* \"contracts/prop_test.sol\":1466:2048  function giveRightToVote(address voter) public {\r... */\n    tag_6:\n      tag_22\n      0x04\n      dup1\n      calldatasize\n      sub\n      dup2\n      add\n      swap1\n      tag_23\n      swap2\n      swap1\n      tag_24\n      jump\t// in\n    tag_23:\n      tag_25\n      jump\t// in\n    tag_22:\n      stop\n        /* \"contracts/prop_test.sol\":664:703  mapping(address => Voter) public voters */\n    tag_7:\n      tag_26\n      0x04\n      dup1\n      calldatasize\n      sub\n      dup2\n      add\n      swap1\n      tag_27\n      swap2\n      swap1\n      tag_24\n      jump\t// in\n    tag_27:\n      tag_28\n      jump\t// in\n    tag_26:\n      mload(0x40)\n      tag_29\n      swap5\n      swap4\n      swap3\n      swap2\n      swap1\n      tag_30\n      jump\t// in\n    tag_29:\n      mload(0x40)\n      dup1\n      swap2\n      sub\n      swap1\n      return\n        /* \"contracts/prop_test.sol\":805:1458  function createBallot(bytes32[] memory proposalNames) public {\r... */\n    tag_8:\n      tag_31\n      0x04\n      dup1\n      calldatasize\n      sub\n      dup2\n      add\n      swap1\n      tag_32\n      swap2\n      swap1\n      tag_33\n      jump\t// in\n    tag_32:\n      tag_34\n      jump\t// in\n    tag_31:\n      stop\n        /* \"contracts/prop_test.sol\":2056:2445  function vote(uint proposal) public {\r... */\n    tag_12:\n        /* \"contracts/prop_test.sol\":2103:2123  Voter storage sender */\n      0x00\n        /* \"contracts/prop_test.sol\":2126:2132  voters */\n      0x01\n        /* \"contracts/prop_test.sol\":2126:2144  voters[msg.sender] */\n      0x00\n        /* \"contracts/prop_test.sol\":2133:2143  msg.sender */\n      caller\n        /* \"contracts/prop_test.sol\":2126:2144  voters[msg.sender] */\n      0xffffffffffffffffffffffffffffffffffffffff\n      and\n      0xffffffffffffffffffffffffffffffffffffffff\n      and\n      dup2\n      mstore\n      0x20\n      add\n      swap1\n      dup2\n      mstore\n      0x20\n      add\n      0x00\n      keccak256\n        /* \"contracts/prop_test.sol\":2103:2144  Voter storage sender = voters[msg.sender] */\n      swap1\n      pop\n        /* \"contracts/prop_test.sol\":2164:2170  sender */\n      dup1\n        /* \"contracts/prop_test.sol\":2164:2176  sender.voted */\n      0x01\n      add\n      0x00\n      swap1\n      sload\n      swap1\n      0x0100\n      exp\n      swap1\n      div\n      0xff\n      and\n        /* \"contracts/prop_test.sol\":2163:2176  !sender.voted */\n      iszero\n        /* \"contracts/prop_test.sol\":2155:2177  require(!sender.voted) */\n      tag_36\n      jumpi\n      0x00\n      dup1\n      revert\n    tag_36:\n        /* \"contracts/prop_test.sol\":2203:2207  true */\n      0x01\n        /* \"contracts/prop_test.sol\":2188:2194  sender */\n      dup2\n        /* \"contracts/prop_test.sol\":2188:2200  sender.voted */\n      0x01\n      add\n      0x00\n        /* \"contracts/prop_test.sol\":2188:2207  sender.voted = true */\n      0x0100\n      exp\n      dup2\n      sload\n      dup2\n      0xff\n      mul\n      not\n      and\n      swap1\n      dup4\n      iszero\n      iszero\n      mul\n      or\n      swap1\n      sstore\n      pop\n        /* \"contracts/prop_test.sol\":2232:2240  proposal */\n      dup2\n        /* \"contracts/prop_test.sol\":2218:2224  sender */\n      dup2\n        /* \"contracts/prop_test.sol\":2218:2229  sender.vote */\n      0x02\n      add\n        /* \"contracts/prop_test.sol\":2218:2240  sender.vote = proposal */\n      dup2\n      swap1\n      sstore\n      pop\n        /* \"contracts/prop_test.sol\":2424:2430  sender */\n      dup1\n        /* \"contracts/prop_test.sol\":2424:2437  sender.weight */\n      0x00\n      add\n      sload\n        /* \"contracts/prop_test.sol\":2391:2400  proposals */\n      0x02\n        /* \"contracts/prop_test.sol\":2401:2409  proposal */\n      dup4\n        /* \"contracts/prop_test.sol\":2391:2410  proposals[proposal] */\n      dup2\n      sload\n      dup2\n      lt\n      tag_37\n      jumpi\n      mstore(0x00, 0x4e487b7100000000000000000000000000000000000000000000000000000000)\n      mstore(0x04, 0x32)\n      revert(0x00, 0x24)\n    tag_37:\n      swap1\n      0x00\n      mstore\n      keccak256(0x00, 0x20)\n      swap1\n      0x02\n      mul\n      add\n        /* \"contracts/prop_test.sol\":2391:2420  proposals[proposal].voteCount */\n      0x01\n      add\n      0x00\n        /* \"contracts/prop_test.sol\":2391:2437  proposals[proposal].voteCount += sender.weight */\n      dup3\n      dup3\n      sload\n      tag_39\n      swap2\n      swap1\n      tag_40\n      jump\t// in\n    tag_39:\n      swap3\n      pop\n      pop\n      dup2\n      swap1\n      sstore\n      pop\n        /* \"contracts/prop_test.sol\":2056:2445  function vote(uint proposal) public {\r... */\n      pop\n      pop\n      jump\t// out\n        /* \"contracts/prop_test.sol\":769:796  Proposal[] public proposals */\n    tag_15:\n      0x02\n      dup2\n      dup2\n      sload\n      dup2\n      lt\n      tag_41\n      jumpi\n      0x00\n      dup1\n      revert\n    tag_41:\n      swap1\n      0x00\n      mstore\n      keccak256(0x00, 0x20)\n      swap1\n      0x02\n      mul\n      add\n      0x00\n      swap2\n      pop\n      swap1\n      pop\n      dup1\n      0x00\n      add\n      sload\n      swap1\n      dup1\n      0x01\n      add\n      sload\n      swap1\n      pop\n      dup3\n      jump\t// out\n        /* \"contracts/prop_test.sol\":526:552  address public chairperson */\n    tag_19:\n      0x00\n      dup1\n      sload\n      swap1\n      0x0100\n      exp\n      swap1\n      div\n      0xffffffffffffffffffffffffffffffffffffffff\n      and\n      dup2\n      jump\t// out\n        /* \"contracts/prop_test.sol\":1466:2048  function giveRightToVote(address voter) public {\r... */\n    tag_25:\n        /* \"contracts/prop_test.sol\":1937:1948  chairperson */\n      0x00\n      dup1\n      sload\n      swap1\n      0x0100\n      exp\n      swap1\n      div\n      0xffffffffffffffffffffffffffffffffffffffff\n      and\n        /* \"contracts/prop_test.sol\":1923:1948  msg.sender == chairperson */\n      0xffffffffffffffffffffffffffffffffffffffff\n      and\n        /* \"contracts/prop_test.sol\":1923:1933  msg.sender */\n      caller\n        /* \"contracts/prop_test.sol\":1923:1948  msg.sender == chairperson */\n      0xffffffffffffffffffffffffffffffffffffffff\n      and\n      eq\n        /* \"contracts/prop_test.sol\":1922:1973  (msg.sender == chairperson) && !voters[voter].voted */\n      dup1\n      iszero\n      tag_44\n      jumpi\n      pop\n        /* \"contracts/prop_test.sol\":1954:1960  voters */\n      0x01\n        /* \"contracts/prop_test.sol\":1954:1967  voters[voter] */\n      0x00\n        /* \"contracts/prop_test.sol\":1961:1966  voter */\n      dup3\n        /* \"contracts/prop_test.sol\":1954:1967  voters[voter] */\n      0xffffffffffffffffffffffffffffffffffffffff\n      and\n      0xffffffffffffffffffffffffffffffffffffffff\n      and\n      dup2\n      mstore\n      0x20\n      add\n      swap1\n      dup2\n      mstore\n      0x20\n      add\n      0x00\n      keccak256\n        /* \"contracts/prop_test.sol\":1954:1973  voters[voter].voted */\n      0x01\n      add\n      0x00\n      swap1\n      sload\n      swap1\n      0x0100\n      exp\n      swap1\n      div\n      0xff\n      and\n        /* \"contracts/prop_test.sol\":1953:1973  !voters[voter].voted */\n      iszero\n        /* \"contracts/prop_test.sol\":1922:1973  (msg.sender == chairperson) && !voters[voter].voted */\n    tag_44:\n        /* \"contracts/prop_test.sol\":1922:2004  (msg.sender == chairperson) && !voters[voter].voted && (voters[voter].weight == 0) */\n      dup1\n      iszero\n      tag_45\n      jumpi\n      pop\n        /* \"contracts/prop_test.sol\":2002:2003  0 */\n      0x00\n        /* \"contracts/prop_test.sol\":1978:1984  voters */\n      0x01\n        /* \"contracts/prop_test.sol\":1978:1991  voters[voter] */\n      0x00\n        /* \"contracts/prop_test.sol\":1985:1990  voter */\n      dup4\n        /* \"contracts/prop_test.sol\":1978:1991  voters[voter] */\n      0xffffffffffffffffffffffffffffffffffffffff\n      and\n      0xffffffffffffffffffffffffffffffffffffffff\n      and\n      dup2\n      mstore\n      0x20\n      add\n      swap1\n      dup2\n      mstore\n      0x20\n      add\n      0x00\n      keccak256\n        /* \"contracts/prop_test.sol\":1978:1998  voters[voter].weight */\n      0x00\n      add\n      sload\n        /* \"contracts/prop_test.sol\":1978:2003  voters[voter].weight == 0 */\n      eq\n        /* \"contracts/prop_test.sol\":1922:2004  (msg.sender == chairperson) && !voters[voter].voted && (voters[voter].weight == 0) */\n    tag_45:\n        /* \"contracts/prop_test.sol\":1914:2005  require((msg.sender == chairperson) && !voters[voter].voted && (voters[voter].weight == 0)) */\n      tag_46\n      jumpi\n      0x00\n      dup1\n      revert\n    tag_46:\n        /* \"contracts/prop_test.sol\":2039:2040  1 */\n      0x01\n        /* \"contracts/prop_test.sol\":2016:2022  voters */\n      dup1\n        /* \"contracts/prop_test.sol\":2016:2029  voters[voter] */\n      0x00\n        /* \"contracts/prop_test.sol\":2023:2028  voter */\n      dup4\n        /* \"contracts/prop_test.sol\":2016:2029  voters[voter] */\n      0xffffffffffffffffffffffffffffffffffffffff\n      and\n      0xffffffffffffffffffffffffffffffffffffffff\n      and\n      dup2\n      mstore\n      0x20\n      add\n      swap1\n      dup2\n      mstore\n      0x20\n      add\n      0x00\n      keccak256\n        /* \"contracts/prop_test.sol\":2016:2036  voters[voter].weight */\n      0x00\n      add\n        /* \"contracts/prop_test.sol\":2016:2040  voters[voter].weight = 1 */\n      dup2\n      swap1\n      sstore\n      pop\n        /* \"contracts/prop_test.sol\":1466:2048  function giveRightToVote(address voter) public {\r... */\n      pop\n      jump\t// out\n        /* \"contracts/prop_test.sol\":664:703  mapping(address => Voter) public voters */\n    tag_28:\n      mstore(0x20, 0x01)\n      dup1\n      0x00\n      mstore\n      keccak256(0x00, 0x40)\n      0x00\n      swap2\n      pop\n      swap1\n      pop\n      dup1\n      0x00\n      add\n      sload\n      swap1\n      dup1\n      0x01\n      add\n      0x00\n      swap1\n      sload\n      swap1\n      0x0100\n      exp\n      swap1\n      div\n      0xff\n      and\n      swap1\n      dup1\n      0x01\n      add\n      0x01\n      swap1\n      sload\n      swap1\n      0x0100\n      exp\n      swap1\n      div\n      0xffffffffffffffffffffffffffffffffffffffff\n      and\n      swap1\n      dup1\n      0x02\n      add\n      sload\n      swap1\n      pop\n      dup5\n      jump\t// out\n        /* \"contracts/prop_test.sol\":805:1458  function createBallot(bytes32[] memory proposalNames) public {\r... */\n    tag_34:\n        /* \"contracts/prop_test.sol\":891:901  msg.sender */\n      caller\n        /* \"contracts/prop_test.sol\":877:888  chairperson */\n      0x00\n      dup1\n        /* \"contracts/prop_test.sol\":877:901  chairperson = msg.sender */\n      0x0100\n      exp\n      dup2\n      sload\n      dup2\n      0xffffffffffffffffffffffffffffffffffffffff\n      mul\n      not\n      and\n      swap1\n      dup4\n      0xffffffffffffffffffffffffffffffffffffffff\n      and\n      mul\n      or\n      swap1\n      sstore\n      pop\n        /* \"contracts/prop_test.sol\":941:942  1 */\n      0x01\n        /* \"contracts/prop_test.sol\":912:918  voters */\n      dup1\n        /* \"contracts/prop_test.sol\":912:931  voters[chairperson] */\n      0x00\n        /* \"contracts/prop_test.sol\":919:930  chairperson */\n      dup1\n      0x00\n      swap1\n      sload\n      swap1\n      0x0100\n      exp\n      swap1\n      div\n      0xffffffffffffffffffffffffffffffffffffffff\n      and\n        /* \"contracts/prop_test.sol\":912:931  voters[chairperson] */\n      0xffffffffffffffffffffffffffffffffffffffff\n      and\n      0xffffffffffffffffffffffffffffffffffffffff\n      and\n      dup2\n      mstore\n      0x20\n      add\n      swap1\n      dup2\n      mstore\n      0x20\n      add\n      0x00\n      keccak256\n        /* \"contracts/prop_test.sol\":912:938  voters[chairperson].weight */\n      0x00\n      add\n        /* \"contracts/prop_test.sol\":912:942  voters[chairperson].weight = 1 */\n      dup2\n      swap1\n      sstore\n      pop\n        /* \"contracts/prop_test.sol\":1102:1108  uint i */\n      0x00\n        /* \"contracts/prop_test.sol\":1097:1451  for (uint i = 0; i < proposalNames.length; i++) {\r... */\n    tag_48:\n        /* \"contracts/prop_test.sol\":1118:1131  proposalNames */\n      dup2\n        /* \"contracts/prop_test.sol\":1118:1138  proposalNames.length */\n      mload\n        /* \"contracts/prop_test.sol\":1114:1115  i */\n      dup2\n        /* \"contracts/prop_test.sol\":1114:1138  i < proposalNames.length */\n      lt\n        /* \"contracts/prop_test.sol\":1097:1451  for (uint i = 0; i < proposalNames.length; i++) {\r... */\n      iszero\n      tag_49\n      jumpi\n        /* \"contracts/prop_test.sol\":1326:1335  proposals */\n      0x02\n        /* \"contracts/prop_test.sol\":1341:1438  Proposal({\r... */\n      mload(0x40)\n      dup1\n      0x40\n      add\n      0x40\n      mstore\n      dup1\n        /* \"contracts/prop_test.sol\":1375:1388  proposalNames */\n      dup5\n        /* \"contracts/prop_test.sol\":1389:1390  i */\n      dup5\n        /* \"contracts/prop_test.sol\":1375:1391  proposalNames[i] */\n      dup2\n      mload\n      dup2\n      lt\n      tag_51\n      jumpi\n      mstore(0x00, 0x4e487b7100000000000000000000000000000000000000000000000000000000)\n      mstore(0x04, 0x32)\n      revert(0x00, 0x24)\n    tag_51:\n      0x20\n      mul\n      0x20\n      add\n      add\n      mload\n        /* \"contracts/prop_test.sol\":1341:1438  Proposal({\r... */\n      dup2\n      mstore\n      0x20\n      add\n        /* \"contracts/prop_test.sol\":1421:1422  0 */\n      0x00\n        /* \"contracts/prop_test.sol\":1341:1438  Proposal({\r... */\n      dup2\n      mstore\n      pop\n        /* \"contracts/prop_test.sol\":1326:1439  proposals.push(Proposal({\r... */\n      swap1\n      dup1\n      0x01\n      dup2\n      sload\n      add\n      dup1\n      dup3\n      sstore\n      dup1\n      swap2\n      pop\n      pop\n      0x01\n      swap1\n      sub\n      swap1\n      0x00\n      mstore\n      keccak256(0x00, 0x20)\n      swap1\n      0x02\n      mul\n      add\n      0x00\n      swap1\n      swap2\n      swap1\n      swap2\n      swap1\n      swap2\n      pop\n      0x00\n      dup3\n      add\n      mload\n      dup2\n      0x00\n      add\n      sstore\n      0x20\n      dup3\n      add\n      mload\n      dup2\n      0x01\n      add\n      sstore\n      pop\n      pop\n        /* \"contracts/prop_test.sol\":1140:1143  i++ */\n      dup1\n      dup1\n      tag_53\n      swap1\n      tag_54\n      jump\t// in\n    tag_53:\n      swap2\n      pop\n      pop\n        /* \"contracts/prop_test.sol\":1097:1451  for (uint i = 0; i < proposalNames.length; i++) {\r... */\n      jump(tag_48)\n    tag_49:\n      pop\n        /* \"contracts/prop_test.sol\":805:1458  function createBallot(bytes32[] memory proposalNames) public {\r... */\n      pop\n      jump\t// out\n        /* \"#utility.yul\":24:646   */\n    tag_56:\n      0x00\n        /* \"#utility.yul\":145:225   */\n      tag_58\n        /* \"#utility.yul\":160:224   */\n      tag_59\n        /* \"#utility.yul\":217:223   */\n      dup5\n        /* \"#utility.yul\":160:224   */\n      tag_60\n      jump\t// in\n    tag_59:\n        /* \"#utility.yul\":145:225   */\n      tag_61\n      jump\t// in\n    tag_58:\n        /* \"#utility.yul\":136:225   */\n      swap1\n      pop\n        /* \"#utility.yul\":245:250   */\n      dup1\n        /* \"#utility.yul\":273:279   */\n      dup4\n        /* \"#utility.yul\":266:271   */\n      dup3\n        /* \"#utility.yul\":259:280   */\n      mstore\n        /* \"#utility.yul\":299:303   */\n      0x20\n        /* \"#utility.yul\":292:297   */\n      dup3\n        /* \"#utility.yul\":288:304   */\n      add\n        /* \"#utility.yul\":281:304   */\n      swap1\n      pop\n        /* \"#utility.yul\":324:330   */\n      dup3\n        /* \"#utility.yul\":374:377   */\n      dup6\n        /* \"#utility.yul\":366:370   */\n      0x20\n        /* \"#utility.yul\":358:364   */\n      dup7\n        /* \"#utility.yul\":354:371   */\n      mul\n        /* \"#utility.yul\":349:352   */\n      dup3\n        /* \"#utility.yul\":345:372   */\n      add\n        /* \"#utility.yul\":342:378   */\n      gt\n        /* \"#utility.yul\":339:341   */\n      iszero\n      tag_62\n      jumpi\n        /* \"#utility.yul\":391:392   */\n      0x00\n        /* \"#utility.yul\":388:389   */\n      dup1\n        /* \"#utility.yul\":381:393   */\n      revert\n        /* \"#utility.yul\":339:341   */\n    tag_62:\n        /* \"#utility.yul\":419:420   */\n      0x00\n        /* \"#utility.yul\":404:640   */\n    tag_63:\n        /* \"#utility.yul\":429:435   */\n      dup6\n        /* \"#utility.yul\":426:427   */\n      dup2\n        /* \"#utility.yul\":423:436   */\n      lt\n        /* \"#utility.yul\":404:640   */\n      iszero\n      tag_65\n      jumpi\n        /* \"#utility.yul\":496:499   */\n      dup2\n        /* \"#utility.yul\":524:561   */\n      tag_66\n        /* \"#utility.yul\":557:560   */\n      dup9\n        /* \"#utility.yul\":545:555   */\n      dup3\n        /* \"#utility.yul\":524:561   */\n      tag_67\n      jump\t// in\n    tag_66:\n        /* \"#utility.yul\":519:522   */\n      dup5\n        /* \"#utility.yul\":512:562   */\n      mstore\n        /* \"#utility.yul\":591:595   */\n      0x20\n        /* \"#utility.yul\":586:589   */\n      dup5\n        /* \"#utility.yul\":582:596   */\n      add\n        /* \"#utility.yul\":575:596   */\n      swap4\n      pop\n        /* \"#utility.yul\":625:629   */\n      0x20\n        /* \"#utility.yul\":620:623   */\n      dup4\n        /* \"#utility.yul\":616:630   */\n      add\n        /* \"#utility.yul\":609:630   */\n      swap3\n      pop\n        /* \"#utility.yul\":464:640   */\n      pop\n        /* \"#utility.yul\":451:452   */\n      0x01\n        /* \"#utility.yul\":448:449   */\n      dup2\n        /* \"#utility.yul\":444:453   */\n      add\n        /* \"#utility.yul\":439:453   */\n      swap1\n      pop\n        /* \"#utility.yul\":404:640   */\n      jump(tag_63)\n    tag_65:\n        /* \"#utility.yul\":408:422   */\n      pop\n        /* \"#utility.yul\":126:646   */\n      pop\n      pop\n      swap4\n      swap3\n      pop\n      pop\n      pop\n      jump\t// out\n        /* \"#utility.yul\":652:791   */\n    tag_68:\n      0x00\n        /* \"#utility.yul\":736:742   */\n      dup2\n        /* \"#utility.yul\":723:743   */\n      calldataload\n        /* \"#utility.yul\":714:743   */\n      swap1\n      pop\n        /* \"#utility.yul\":752:785   */\n      tag_70\n        /* \"#utility.yul\":779:784   */\n      dup2\n        /* \"#utility.yul\":752:785   */\n      tag_71\n      jump\t// in\n    tag_70:\n        /* \"#utility.yul\":704:791   */\n      swap3\n      swap2\n      pop\n      pop\n      jump\t// out\n        /* \"#utility.yul\":814:1117   */\n    tag_72:\n      0x00\n        /* \"#utility.yul\":934:937   */\n      dup3\n        /* \"#utility.yul\":927:931   */\n      0x1f\n        /* \"#utility.yul\":919:925   */\n      dup4\n        /* \"#utility.yul\":915:932   */\n      add\n        /* \"#utility.yul\":911:938   */\n      slt\n        /* \"#utility.yul\":901:903   */\n      tag_74\n      jumpi\n        /* \"#utility.yul\":952:953   */\n      0x00\n        /* \"#utility.yul\":949:950   */\n      dup1\n        /* \"#utility.yul\":942:954   */\n      revert\n        /* \"#utility.yul\":901:903   */\n    tag_74:\n        /* \"#utility.yul\":992:998   */\n      dup2\n        /* \"#utility.yul\":979:999   */\n      calldataload\n        /* \"#utility.yul\":1017:1111   */\n      tag_75\n        /* \"#utility.yul\":1107:1110   */\n      dup5\n        /* \"#utility.yul\":1099:1105   */\n      dup3\n        /* \"#utility.yul\":1092:1096   */\n      0x20\n        /* \"#utility.yul\":1084:1090   */\n      dup7\n        /* \"#utility.yul\":1080:1097   */\n      add\n        /* \"#utility.yul\":1017:1111   */\n      tag_56\n      jump\t// in\n    tag_75:\n        /* \"#utility.yul\":1008:1111   */\n      swap2\n      pop\n        /* \"#utility.yul\":891:1117   */\n      pop\n      swap3\n      swap2\n      pop\n      pop\n      jump\t// out\n        /* \"#utility.yul\":1123:1262   */\n    tag_67:\n      0x00\n        /* \"#utility.yul\":1207:1213   */\n      dup2\n        /* \"#utility.yul\":1194:1214   */\n      calldataload\n        /* \"#utility.yul\":1185:1214   */\n      swap1\n      pop\n        /* \"#utility.yul\":1223:1256   */\n      tag_77\n        /* \"#utility.yul\":1250:1255   */\n      dup2\n        /* \"#utility.yul\":1223:1256   */\n      tag_78\n      jump\t// in\n    tag_77:\n        /* \"#utility.yul\":1175:1262   */\n      swap3\n      swap2\n      pop\n      pop\n      jump\t// out\n        /* \"#utility.yul\":1268:1407   */\n    tag_79:\n      0x00\n        /* \"#utility.yul\":1352:1358   */\n      dup2\n        /* \"#utility.yul\":1339:1359   */\n      calldataload\n        /* \"#utility.yul\":1330:1359   */\n      swap1\n      pop\n        /* \"#utility.yul\":1368:1401   */\n      tag_81\n        /* \"#utility.yul\":1395:1400   */\n      dup2\n        /* \"#utility.yul\":1368:1401   */\n      tag_82\n      jump\t// in\n    tag_81:\n        /* \"#utility.yul\":1320:1407   */\n      swap3\n      swap2\n      pop\n      pop\n      jump\t// out\n        /* \"#utility.yul\":1413:1675   */\n    tag_24:\n      0x00\n        /* \"#utility.yul\":1521:1523   */\n      0x20\n        /* \"#utility.yul\":1509:1518   */\n      dup3\n        /* \"#utility.yul\":1500:1507   */\n      dup5\n        /* \"#utility.yul\":1496:1519   */\n      sub\n        /* \"#utility.yul\":1492:1524   */\n      slt\n        /* \"#utility.yul\":1489:1491   */\n      iszero\n      tag_84\n      jumpi\n        /* \"#utility.yul\":1537:1538   */\n      0x00\n        /* \"#utility.yul\":1534:1535   */\n      dup1\n        /* \"#utility.yul\":1527:1539   */\n      revert\n        /* \"#utility.yul\":1489:1491   */\n    tag_84:\n        /* \"#utility.yul\":1580:1581   */\n      0x00\n        /* \"#utility.yul\":1605:1658   */\n      tag_85\n        /* \"#utility.yul\":1650:1657   */\n      dup5\n        /* \"#utility.yul\":1641:1647   */\n      dup3\n        /* \"#utility.yul\":1630:1639   */\n      dup6\n        /* \"#utility.yul\":1626:1648   */\n      add\n        /* \"#utility.yul\":1605:1658   */\n      tag_68\n      jump\t// in\n    tag_85:\n        /* \"#utility.yul\":1595:1658   */\n      swap2\n      pop\n        /* \"#utility.yul\":1551:1668   */\n      pop\n        /* \"#utility.yul\":1479:1675   */\n      swap3\n      swap2\n      pop\n      pop\n      jump\t// out\n        /* \"#utility.yul\":1681:2086   */\n    tag_33:\n      0x00\n        /* \"#utility.yul\":1814:1816   */\n      0x20\n        /* \"#utility.yul\":1802:1811   */\n      dup3\n        /* \"#utility.yul\":1793:1800   */\n      dup5\n        /* \"#utility.yul\":1789:1812   */\n      sub\n        /* \"#utility.yul\":1785:1817   */\n      slt\n        /* \"#utility.yul\":1782:1784   */\n      iszero\n      tag_87\n      jumpi\n        /* \"#utility.yul\":1830:1831   */\n      0x00\n        /* \"#utility.yul\":1827:1828   */\n      dup1\n        /* \"#utility.yul\":1820:1832   */\n      revert\n        /* \"#utility.yul\":1782:1784   */\n    tag_87:\n        /* \"#utility.yul\":1901:1902   */\n      0x00\n        /* \"#utility.yul\":1890:1899   */\n      dup3\n        /* \"#utility.yul\":1886:1903   */\n      add\n        /* \"#utility.yul\":1873:1904   */\n      calldataload\n        /* \"#utility.yul\":1931:1949   */\n      0xffffffffffffffff\n        /* \"#utility.yul\":1923:1929   */\n      dup2\n        /* \"#utility.yul\":1920:1950   */\n      gt\n        /* \"#utility.yul\":1917:1919   */\n      iszero\n      tag_88\n      jumpi\n        /* \"#utility.yul\":1963:1964   */\n      0x00\n        /* \"#utility.yul\":1960:1961   */\n      dup1\n        /* \"#utility.yul\":1953:1965   */\n      revert\n        /* \"#utility.yul\":1917:1919   */\n    tag_88:\n        /* \"#utility.yul\":1991:2069   */\n      tag_89\n        /* \"#utility.yul\":2061:2068   */\n      dup5\n        /* \"#utility.yul\":2052:2058   */\n      dup3\n        /* \"#utility.yul\":2041:2050   */\n      dup6\n        /* \"#utility.yul\":2037:2059   */\n      add\n        /* \"#utility.yul\":1991:2069   */\n      tag_72\n      jump\t// in\n    tag_89:\n        /* \"#utility.yul\":1981:2069   */\n      swap2\n      pop\n        /* \"#utility.yul\":1844:2079   */\n      pop\n        /* \"#utility.yul\":1772:2086   */\n      swap3\n      swap2\n      pop\n      pop\n      jump\t// out\n        /* \"#utility.yul\":2092:2354   */\n    tag_11:\n      0x00\n        /* \"#utility.yul\":2200:2202   */\n      0x20\n        /* \"#utility.yul\":2188:2197   */\n      dup3\n        /* \"#utility.yul\":2179:2186   */\n      dup5\n        /* \"#utility.yul\":2175:2198   */\n      sub\n        /* \"#utility.yul\":2171:2203   */\n      slt\n        /* \"#utility.yul\":2168:2170   */\n      iszero\n      tag_91\n      jumpi\n        /* \"#utility.yul\":2216:2217   */\n      0x00\n        /* \"#utility.yul\":2213:2214   */\n      dup1\n        /* \"#utility.yul\":2206:2218   */\n      revert\n        /* \"#utility.yul\":2168:2170   */\n    tag_91:\n        /* \"#utility.yul\":2259:2260   */\n      0x00\n        /* \"#utility.yul\":2284:2337   */\n      tag_92\n        /* \"#utility.yul\":2329:2336   */\n      dup5\n        /* \"#utility.yul\":2320:2326   */\n      dup3\n        /* \"#utility.yul\":2309:2318   */\n      dup6\n        /* \"#utility.yul\":2305:2327   */\n      add\n        /* \"#utility.yul\":2284:2337   */\n      tag_79\n      jump\t// in\n    tag_92:\n        /* \"#utility.yul\":2274:2337   */\n      swap2\n      pop\n        /* \"#utility.yul\":2230:2347   */\n      pop\n        /* \"#utility.yul\":2158:2354   */\n      swap3\n      swap2\n      pop\n      pop\n      jump\t// out\n        /* \"#utility.yul\":2360:2478   */\n    tag_93:\n        /* \"#utility.yul\":2447:2471   */\n      tag_95\n        /* \"#utility.yul\":2465:2470   */\n      dup2\n        /* \"#utility.yul\":2447:2471   */\n      tag_96\n      jump\t// in\n    tag_95:\n        /* \"#utility.yul\":2442:2445   */\n      dup3\n        /* \"#utility.yul\":2435:2472   */\n      mstore\n        /* \"#utility.yul\":2425:2478   */\n      pop\n      pop\n      jump\t// out\n        /* \"#utility.yul\":2484:2593   */\n    tag_97:\n        /* \"#utility.yul\":2565:2586   */\n      tag_99\n        /* \"#utility.yul\":2580:2585   */\n      dup2\n        /* \"#utility.yul\":2565:2586   */\n      tag_100\n      jump\t// in\n    tag_99:\n        /* \"#utility.yul\":2560:2563   */\n      dup3\n        /* \"#utility.yul\":2553:2587   */\n      mstore\n        /* \"#utility.yul\":2543:2593   */\n      pop\n      pop\n      jump\t// out\n        /* \"#utility.yul\":2599:2717   */\n    tag_101:\n        /* \"#utility.yul\":2686:2710   */\n      tag_103\n        /* \"#utility.yul\":2704:2709   */\n      dup2\n        /* \"#utility.yul\":2686:2710   */\n      tag_104\n      jump\t// in\n    tag_103:\n        /* \"#utility.yul\":2681:2684   */\n      dup3\n        /* \"#utility.yul\":2674:2711   */\n      mstore\n        /* \"#utility.yul\":2664:2717   */\n      pop\n      pop\n      jump\t// out\n        /* \"#utility.yul\":2723:2841   */\n    tag_105:\n        /* \"#utility.yul\":2810:2834   */\n      tag_107\n        /* \"#utility.yul\":2828:2833   */\n      dup2\n        /* \"#utility.yul\":2810:2834   */\n      tag_108\n      jump\t// in\n    tag_107:\n        /* \"#utility.yul\":2805:2808   */\n      dup3\n        /* \"#utility.yul\":2798:2835   */\n      mstore\n        /* \"#utility.yul\":2788:2841   */\n      pop\n      pop\n      jump\t// out\n        /* \"#utility.yul\":2847:3069   */\n    tag_21:\n      0x00\n        /* \"#utility.yul\":2978:2980   */\n      0x20\n        /* \"#utility.yul\":2967:2976   */\n      dup3\n        /* \"#utility.yul\":2963:2981   */\n      add\n        /* \"#utility.yul\":2955:2981   */\n      swap1\n      pop\n        /* \"#utility.yul\":2991:3062   */\n      tag_110\n        /* \"#utility.yul\":3059:3060   */\n      0x00\n        /* \"#utility.yul\":3048:3057   */\n      dup4\n        /* \"#utility.yul\":3044:3061   */\n      add\n        /* \"#utility.yul\":3035:3041   */\n      dup5\n        /* \"#utility.yul\":2991:3062   */\n      tag_93\n      jump\t// in\n    tag_110:\n        /* \"#utility.yul\":2945:3069   */\n      swap3\n      swap2\n      pop\n      pop\n      jump\t// out\n        /* \"#utility.yul\":3075:3407   */\n    tag_17:\n      0x00\n        /* \"#utility.yul\":3234:3236   */\n      0x40\n        /* \"#utility.yul\":3223:3232   */\n      dup3\n        /* \"#utility.yul\":3219:3237   */\n      add\n        /* \"#utility.yul\":3211:3237   */\n      swap1\n      pop\n        /* \"#utility.yul\":3247:3318   */\n      tag_112\n        /* \"#utility.yul\":3315:3316   */\n      0x00\n        /* \"#utility.yul\":3304:3313   */\n      dup4\n        /* \"#utility.yul\":3300:3317   */\n      add\n        /* \"#utility.yul\":3291:3297   */\n      dup6\n        /* \"#utility.yul\":3247:3318   */\n      tag_101\n      jump\t// in\n    tag_112:\n        /* \"#utility.yul\":3328:3400   */\n      tag_113\n        /* \"#utility.yul\":3396:3398   */\n      0x20\n        /* \"#utility.yul\":3385:3394   */\n      dup4\n        /* \"#utility.yul\":3381:3399   */\n      add\n        /* \"#utility.yul\":3372:3378   */\n      dup5\n        /* \"#utility.yul\":3328:3400   */\n      tag_105\n      jump\t// in\n    tag_113:\n        /* \"#utility.yul\":3201:3407   */\n      swap4\n      swap3\n      pop\n      pop\n      pop\n      jump\t// out\n        /* \"#utility.yul\":3413:3954   */\n    tag_30:\n      0x00\n        /* \"#utility.yul\":3622:3625   */\n      0x80\n        /* \"#utility.yul\":3611:3620   */\n      dup3\n        /* \"#utility.yul\":3607:3626   */\n      add\n        /* \"#utility.yul\":3599:3626   */\n      swap1\n      pop\n        /* \"#utility.yul\":3636:3707   */\n      tag_115\n        /* \"#utility.yul\":3704:3705   */\n      0x00\n        /* \"#utility.yul\":3693:3702   */\n      dup4\n        /* \"#utility.yul\":3689:3706   */\n      add\n        /* \"#utility.yul\":3680:3686   */\n      dup8\n        /* \"#utility.yul\":3636:3707   */\n      tag_105\n      jump\t// in\n    tag_115:\n        /* \"#utility.yul\":3717:3783   */\n      tag_116\n        /* \"#utility.yul\":3779:3781   */\n      0x20\n        /* \"#utility.yul\":3768:3777   */\n      dup4\n        /* \"#utility.yul\":3764:3782   */\n      add\n        /* \"#utility.yul\":3755:3761   */\n      dup7\n        /* \"#utility.yul\":3717:3783   */\n      tag_97\n      jump\t// in\n    tag_116:\n        /* \"#utility.yul\":3793:3865   */\n      tag_117\n        /* \"#utility.yul\":3861:3863   */\n      0x40\n        /* \"#utility.yul\":3850:3859   */\n      dup4\n        /* \"#utility.yul\":3846:3864   */\n      add\n        /* \"#utility.yul\":3837:3843   */\n      dup6\n        /* \"#utility.yul\":3793:3865   */\n      tag_93\n      jump\t// in\n    tag_117:\n        /* \"#utility.yul\":3875:3947   */\n      tag_118\n        /* \"#utility.yul\":3943:3945   */\n      0x60\n        /* \"#utility.yul\":3932:3941   */\n      dup4\n        /* \"#utility.yul\":3928:3946   */\n      add\n        /* \"#utility.yul\":3919:3925   */\n      dup5\n        /* \"#utility.yul\":3875:3947   */\n      tag_105\n      jump\t// in\n    tag_118:\n        /* \"#utility.yul\":3589:3954   */\n      swap6\n      swap5\n      pop\n      pop\n      pop\n      pop\n      pop\n      jump\t// out\n        /* \"#utility.yul\":3960:4243   */\n    tag_61:\n      0x00\n        /* \"#utility.yul\":4026:4028   */\n      0x40\n        /* \"#utility.yul\":4020:4029   */\n      mload\n        /* \"#utility.yul\":4010:4029   */\n      swap1\n      pop\n        /* \"#utility.yul\":4068:4072   */\n      dup2\n        /* \"#utility.yul\":4060:4066   */\n      dup2\n        /* \"#utility.yul\":4056:4073   */\n      add\n        /* \"#utility.yul\":4175:4181   */\n      dup2\n        /* \"#utility.yul\":4163:4173   */\n      dup2\n        /* \"#utility.yul\":4160:4182   */\n      lt\n        /* \"#utility.yul\":4139:4157   */\n      0xffffffffffffffff\n        /* \"#utility.yul\":4127:4137   */\n      dup3\n        /* \"#utility.yul\":4124:4158   */\n      gt\n        /* \"#utility.yul\":4121:4183   */\n      or\n        /* \"#utility.yul\":4118:4120   */\n      iszero\n      tag_120\n      jumpi\n        /* \"#utility.yul\":4186:4204   */\n      tag_121\n      tag_122\n      jump\t// in\n    tag_121:\n        /* \"#utility.yul\":4118:4120   */\n    tag_120:\n        /* \"#utility.yul\":4226:4236   */\n      dup1\n        /* \"#utility.yul\":4222:4224   */\n      0x40\n        /* \"#utility.yul\":4215:4237   */\n      mstore\n        /* \"#utility.yul\":4000:4243   */\n      pop\n      swap2\n      swap1\n      pop\n      jump\t// out\n        /* \"#utility.yul\":4249:4560   */\n    tag_60:\n      0x00\n        /* \"#utility.yul\":4416:4434   */\n      0xffffffffffffffff\n        /* \"#utility.yul\":4408:4414   */\n      dup3\n        /* \"#utility.yul\":4405:4435   */\n      gt\n        /* \"#utility.yul\":4402:4404   */\n      iszero\n      tag_124\n      jumpi\n        /* \"#utility.yul\":4438:4456   */\n      tag_125\n      tag_122\n      jump\t// in\n    tag_125:\n        /* \"#utility.yul\":4402:4404   */\n    tag_124:\n        /* \"#utility.yul\":4488:4492   */\n      0x20\n        /* \"#utility.yul\":4480:4486   */\n      dup3\n        /* \"#utility.yul\":4476:4493   */\n      mul\n        /* \"#utility.yul\":4468:4493   */\n      swap1\n      pop\n        /* \"#utility.yul\":4548:4552   */\n      0x20\n        /* \"#utility.yul\":4542:4546   */\n      dup2\n        /* \"#utility.yul\":4538:4553   */\n      add\n        /* \"#utility.yul\":4530:4553   */\n      swap1\n      pop\n        /* \"#utility.yul\":4331:4560   */\n      swap2\n      swap1\n      pop\n      jump\t// out\n        /* \"#utility.yul\":4566:4871   */\n    tag_40:\n      0x00\n        /* \"#utility.yul\":4625:4645   */\n      tag_127\n        /* \"#utility.yul\":4643:4644   */\n      dup3\n        /* \"#utility.yul\":4625:4645   */\n      tag_108\n      jump\t// in\n    tag_127:\n        /* \"#utility.yul\":4620:4645   */\n      swap2\n      pop\n        /* \"#utility.yul\":4659:4679   */\n      tag_128\n        /* \"#utility.yul\":4677:4678   */\n      dup4\n        /* \"#utility.yul\":4659:4679   */\n      tag_108\n      jump\t// in\n    tag_128:\n        /* \"#utility.yul\":4654:4679   */\n      swap3\n      pop\n        /* \"#utility.yul\":4813:4814   */\n      dup3\n        /* \"#utility.yul\":4745:4811   */\n      0xffffffffffffffffffffffffffffffffffffffffffffffffffffffffffffffff\n        /* \"#utility.yul\":4741:4815   */\n      sub\n        /* \"#utility.yul\":4738:4739   */\n      dup3\n        /* \"#utility.yul\":4735:4816   */\n      gt\n        /* \"#utility.yul\":4732:4734   */\n      iszero\n      tag_129\n      jumpi\n        /* \"#utility.yul\":4819:4837   */\n      tag_130\n      tag_131\n      jump\t// in\n    tag_130:\n        /* \"#utility.yul\":4732:4734   */\n    tag_129:\n        /* \"#utility.yul\":4863:4864   */\n      dup3\n        /* \"#utility.yul\":4860:4861   */\n      dup3\n        /* \"#utility.yul\":4856:4865   */\n      add\n        /* \"#utility.yul\":4849:4865   */\n      swap1\n      pop\n        /* \"#utility.yul\":4610:4871   */\n      swap3\n      swap2\n      pop\n      pop\n      jump\t// out\n        /* \"#utility.yul\":4877:4973   */\n    tag_96:\n      0x00\n        /* \"#utility.yul\":4943:4967   */\n      tag_133\n        /* \"#utility.yul\":4961:4966   */\n      dup3\n        /* \"#utility.yul\":4943:4967   */\n      tag_134\n      jump\t// in\n    tag_133:\n        /* \"#utility.yul\":4932:4967   */\n      swap1\n      pop\n        /* \"#utility.yul\":4922:4973   */\n      swap2\n      swap1\n      pop\n      jump\t// out\n        /* \"#utility.yul\":4979:5069   */\n    tag_100:\n      0x00\n        /* \"#utility.yul\":5056:5061   */\n      dup2\n        /* \"#utility.yul\":5049:5062   */\n      iszero\n        /* \"#utility.yul\":5042:5063   */\n      iszero\n        /* \"#utility.yul\":5031:5063   */\n      swap1\n      pop\n        /* \"#utility.yul\":5021:5069   */\n      swap2\n      swap1\n      pop\n      jump\t// out\n        /* \"#utility.yul\":5075:5152   */\n    tag_104:\n      0x00\n        /* \"#utility.yul\":5141:5146   */\n      dup2\n        /* \"#utility.yul\":5130:5146   */\n      swap1\n      pop\n        /* \"#utility.yul\":5120:5152   */\n      swap2\n      swap1\n      pop\n      jump\t// out\n        /* \"#utility.yul\":5158:5284   */\n    tag_134:\n      0x00\n        /* \"#utility.yul\":5235:5277   */\n      0xffffffffffffffffffffffffffffffffffffffff\n        /* \"#utility.yul\":5228:5233   */\n      dup3\n        /* \"#utility.yul\":5224:5278   */\n      and\n        /* \"#utility.yul\":5213:5278   */\n      swap1\n      pop\n        /* \"#utility.yul\":5203:5284   */\n      swap2\n      swap1\n      pop\n      jump\t// out\n        /* \"#utility.yul\":5290:5367   */\n    tag_108:\n      0x00\n        /* \"#utility.yul\":5356:5361   */\n      dup2\n        /* \"#utility.yul\":5345:5361   */\n      swap1\n      pop\n        /* \"#utility.yul\":5335:5367   */\n      swap2\n      swap1\n      pop\n      jump\t// out\n        /* \"#utility.yul\":5373:5606   */\n    tag_54:\n      0x00\n        /* \"#utility.yul\":5435:5459   */\n      tag_140\n        /* \"#utility.yul\":5453:5458   */\n      dup3\n        /* \"#utility.yul\":5435:5459   */\n      tag_108\n      jump\t// in\n    tag_140:\n        /* \"#utility.yul\":5426:5459   */\n      swap2\n      pop\n        /* \"#utility.yul\":5481:5547   */\n      0xffffffffffffffffffffffffffffffffffffffffffffffffffffffffffffffff\n        /* \"#utility.yul\":5474:5479   */\n      dup3\n        /* \"#utility.yul\":5471:5548   */\n      eq\n        /* \"#utility.yul\":5468:5470   */\n      iszero\n      tag_141\n      jumpi\n        /* \"#utility.yul\":5551:5569   */\n      tag_142\n      tag_131\n      jump\t// in\n    tag_142:\n        /* \"#utility.yul\":5468:5470   */\n    tag_141:\n        /* \"#utility.yul\":5598:5599   */\n      0x01\n        /* \"#utility.yul\":5591:5596   */\n      dup3\n        /* \"#utility.yul\":5587:5600   */\n      add\n        /* \"#utility.yul\":5580:5600   */\n      swap1\n      pop\n        /* \"#utility.yul\":5416:5606   */\n      swap2\n      swap1\n      pop\n      jump\t// out\n        /* \"#utility.yul\":5612:5792   */\n    tag_131:\n        /* \"#utility.yul\":5660:5737   */\n      0x4e487b7100000000000000000000000000000000000000000000000000000000\n        /* \"#utility.yul\":5657:5658   */\n      0x00\n        /* \"#utility.yul\":5650:5738   */\n      mstore\n        /* \"#utility.yul\":5757:5761   */\n      0x11\n        /* \"#utility.yul\":5754:5755   */\n      0x04\n        /* \"#utility.yul\":5747:5762   */\n      mstore\n        /* \"#utility.yul\":5781:5785   */\n      0x24\n        /* \"#utility.yul\":5778:5779   */\n      0x00\n        /* \"#utility.yul\":5771:5786   */\n      revert\n        /* \"#utility.yul\":5798:5978   */\n    tag_122:\n        /* \"#utility.yul\":5846:5923   */\n      0x4e487b7100000000000000000000000000000000000000000000000000000000\n        /* \"#utility.yul\":5843:5844   */\n      0x00\n        /* \"#utility.yul\":5836:5924   */\n      mstore\n        /* \"#utility.yul\":5943:5947   */\n      0x41\n        /* \"#utility.yul\":5940:5941   */\n      0x04\n        /* \"#utility.yul\":5933:5948   */\n      mstore\n        /* \"#utility.yul\":5967:5971   */\n      0x24\n        /* \"#utility.yul\":5964:5965   */\n      0x00\n        /* \"#utility.yul\":5957:5972   */\n      revert\n        /* \"#utility.yul\":5984:6106   */\n    tag_71:\n        /* \"#utility.yul\":6057:6081   */\n      tag_146\n        /* \"#utility.yul\":6075:6080   */\n      dup2\n        /* \"#utility.yul\":6057:6081   */\n      tag_96\n      jump\t// in\n    tag_146:\n        /* \"#utility.yul\":6050:6055   */\n      dup2\n        /* \"#utility.yul\":6047:6082   */\n      eq\n        /* \"#utility.yul\":6037:6039   */\n      tag_147\n      jumpi\n        /* \"#utility.yul\":6096:6097   */\n      0x00\n        /* \"#utility.yul\":6093:6094   */\n      dup1\n        /* \"#utility.yul\":6086:6098   */\n      revert\n        /* \"#utility.yul\":6037:6039   */\n    tag_147:\n        /* \"#utility.yul\":6027:6106   */\n      pop\n      jump\t// out\n        /* \"#utility.yul\":6112:6234   */\n    tag_78:\n        /* \"#utility.yul\":6185:6209   */\n      tag_149\n        /* \"#utility.yul\":6203:6208   */\n      dup2\n        /* \"#utility.yul\":6185:6209   */\n      tag_104\n      jump\t// in\n    tag_149:\n        /* \"#utility.yul\":6178:6183   */\n      dup2\n        /* \"#utility.yul\":6175:6210   */\n      eq\n        /* \"#utility.yul\":6165:6167   */\n      tag_150\n      jumpi\n        /* \"#utility.yul\":6224:6225   */\n      0x00\n        /* \"#utility.yul\":6221:6222   */\n      dup1\n        /* \"#utility.yul\":6214:6226   */\n      revert\n        /* \"#utility.yul\":6165:6167   */\n    tag_150:\n        /* \"#utility.yul\":6155:6234   */\n      pop\n      jump\t// out\n        /* \"#utility.yul\":6240:6362   */\n    tag_82:\n        /* \"#utility.yul\":6313:6337   */\n      tag_152\n        /* \"#utility.yul\":6331:6336   */\n      dup2\n        /* \"#utility.yul\":6313:6337   */\n      tag_108\n      jump\t// in\n    tag_152:\n        /* \"#utility.yul\":6306:6311   */\n      dup2\n        /* \"#utility.yul\":6303:6338   */\n      eq\n        /* \"#utility.yul\":6293:6295   */\n      tag_153\n      jumpi\n        /* \"#utility.yul\":6352:6353   */\n      0x00\n        /* \"#utility.yul\":6349:6350   */\n      dup1\n        /* \"#utility.yul\":6342:6354   */\n      revert\n        /* \"#utility.yul\":6293:6295   */\n    tag_153:\n        /* \"#utility.yul\":6283:6362   */\n      pop\n      jump\t// out\n\n    auxdata: 0xa26469706673582212200e2f3f98d693630c61f622df30078a9c3667a2dc35de41b347f6fc1eb48932af64736f6c63430008000033\n}\n",
				"bytecode": {
					"linkReferences": {},
					"object": "608060405234801561001057600080fd5b506109e0806100206000396000f3fe608060405234801561001057600080fd5b50600436106100625760003560e01c80630121b93f14610067578063013cf08b146100835780632e4176cf146100b45780639e7b8d61146100d2578063a3ec138d146100ee578063e35c938414610121575b600080fd5b610081600480360381019061007c91906106cb565b61013d565b005b61009d600480360381019061009891906106cb565b61022c565b6040516100ab92919061074b565b60405180910390f35b6100bc610260565b6040516100c99190610730565b60405180910390f35b6100ec60048036038101906100e79190610661565b610284565b005b61010860048036038101906101039190610661565b6103cd565b6040516101189493929190610774565b60405180910390f35b61013b6004803603810190610136919061068a565b61042a565b005b6000600160003373ffffffffffffffffffffffffffffffffffffffff1673ffffffffffffffffffffffffffffffffffffffff16815260200190815260200160002090508060010160009054906101000a900460ff161561019c57600080fd5b60018160010160006101000a81548160ff021916908315150217905550818160020181905550806000015460028381548110610201577f4e487b7100000000000000000000000000000000000000000000000000000000600052603260045260246000fd5b906000526020600020906002020160010160008282546102219190610816565b925050819055505050565b6002818154811061023c57600080fd5b90600052602060002090600202016000915090508060000154908060010154905082565b60008054906101000a900473ffffffffffffffffffffffffffffffffffffffff1681565b60008054906101000a900473ffffffffffffffffffffffffffffffffffffffff1673ffffffffffffffffffffffffffffffffffffffff163373ffffffffffffffffffffffffffffffffffffffff1614801561032c5750600160008273ffffffffffffffffffffffffffffffffffffffff1673ffffffffffffffffffffffffffffffffffffffff16815260200190815260200160002060010160009054906101000a900460ff16155b801561037a57506000600160008373ffffffffffffffffffffffffffffffffffffffff1673ffffffffffffffffffffffffffffffffffffffff16815260200190815260200160002060000154145b61038357600080fd5b60018060008373ffffffffffffffffffffffffffffffffffffffff1673ffffffffffffffffffffffffffffffffffffffff1681526020019081526020016000206000018190555050565b60016020528060005260406000206000915090508060000154908060010160009054906101000a900460ff16908060010160019054906101000a900473ffffffffffffffffffffffffffffffffffffffff16908060020154905084565b336000806101000a81548173ffffffffffffffffffffffffffffffffffffffff021916908373ffffffffffffffffffffffffffffffffffffffff16021790555060018060008060009054906101000a900473ffffffffffffffffffffffffffffffffffffffff1673ffffffffffffffffffffffffffffffffffffffff1673ffffffffffffffffffffffffffffffffffffffff1681526020019081526020016000206000018190555060005b81518110156105885760026040518060400160405280848481518110610524577f4e487b7100000000000000000000000000000000000000000000000000000000600052603260045260246000fd5b6020026020010151815260200160008152509080600181540180825580915050600190039060005260206000209060020201600090919091909150600082015181600001556020820151816001015550508080610580906108be565b9150506104d5565b5050565b600061059f61059a846107ea565b6107b9565b905080838252602082019050828560208602820111156105be57600080fd5b60005b858110156105ee57816105d48882610637565b8452602084019350602083019250506001810190506105c1565b5050509392505050565b60008135905061060781610965565b92915050565b600082601f83011261061e57600080fd5b813561062e84826020860161058c565b91505092915050565b6000813590506106468161097c565b92915050565b60008135905061065b81610993565b92915050565b60006020828403121561067357600080fd5b6000610681848285016105f8565b91505092915050565b60006020828403121561069c57600080fd5b600082013567ffffffffffffffff8111156106b657600080fd5b6106c28482850161060d565b91505092915050565b6000602082840312156106dd57600080fd5b60006106eb8482850161064c565b91505092915050565b6106fd8161086c565b82525050565b61070c8161087e565b82525050565b61071b8161088a565b82525050565b61072a816108b4565b82525050565b600060208201905061074560008301846106f4565b92915050565b60006040820190506107606000830185610712565b61076d6020830184610721565b9392505050565b60006080820190506107896000830187610721565b6107966020830186610703565b6107a360408301856106f4565b6107b06060830184610721565b95945050505050565b6000604051905081810181811067ffffffffffffffff821117156107e0576107df610936565b5b8060405250919050565b600067ffffffffffffffff82111561080557610804610936565b5b602082029050602081019050919050565b6000610821826108b4565b915061082c836108b4565b9250827fffffffffffffffffffffffffffffffffffffffffffffffffffffffffffffffff0382111561086157610860610907565b5b828201905092915050565b600061087782610894565b9050919050565b60008115159050919050565b6000819050919050565b600073ffffffffffffffffffffffffffffffffffffffff82169050919050565b6000819050919050565b60006108c9826108b4565b91507fffffffffffffffffffffffffffffffffffffffffffffffffffffffffffffffff8214156108fc576108fb610907565b5b600182019050919050565b7f4e487b7100000000000000000000000000000000000000000000000000000000600052601160045260246000fd5b7f4e487b7100000000000000000000000000000000000000000000000000000000600052604160045260246000fd5b61096e8161086c565b811461097957600080fd5b50565b6109858161088a565b811461099057600080fd5b50565b61099c816108b4565b81146109a757600080fd5b5056fea26469706673582212200e2f3f98d693630c61f622df30078a9c3667a2dc35de41b347f6fc1eb48932af64736f6c63430008000033",
					"opcodes": "PUSH1 0x80 PUSH1 0x40 MSTORE CALLVALUE DUP1 ISZERO PUSH2 0x10 JUMPI PUSH1 0x0 DUP1 REVERT JUMPDEST POP PUSH2 0x9E0 DUP1 PUSH2 0x20 PUSH1 0x0 CODECOPY PUSH1 0x0 RETURN INVALID PUSH1 0x80 PUSH1 0x40 MSTORE CALLVALUE DUP1 ISZERO PUSH2 0x10 JUMPI PUSH1 0x0 DUP1 REVERT JUMPDEST POP PUSH1 0x4 CALLDATASIZE LT PUSH2 0x62 JUMPI PUSH1 0x0 CALLDATALOAD PUSH1 0xE0 SHR DUP1 PUSH4 0x121B93F EQ PUSH2 0x67 JUMPI DUP1 PUSH4 0x13CF08B EQ PUSH2 0x83 JUMPI DUP1 PUSH4 0x2E4176CF EQ PUSH2 0xB4 JUMPI DUP1 PUSH4 0x9E7B8D61 EQ PUSH2 0xD2 JUMPI DUP1 PUSH4 0xA3EC138D EQ PUSH2 0xEE JUMPI DUP1 PUSH4 0xE35C9384 EQ PUSH2 0x121 JUMPI JUMPDEST PUSH1 0x0 DUP1 REVERT JUMPDEST PUSH2 0x81 PUSH1 0x4 DUP1 CALLDATASIZE SUB DUP2 ADD SWAP1 PUSH2 0x7C SWAP2 SWAP1 PUSH2 0x6CB JUMP JUMPDEST PUSH2 0x13D JUMP JUMPDEST STOP JUMPDEST PUSH2 0x9D PUSH1 0x4 DUP1 CALLDATASIZE SUB DUP2 ADD SWAP1 PUSH2 0x98 SWAP2 SWAP1 PUSH2 0x6CB JUMP JUMPDEST PUSH2 0x22C JUMP JUMPDEST PUSH1 0x40 MLOAD PUSH2 0xAB SWAP3 SWAP2 SWAP1 PUSH2 0x74B JUMP JUMPDEST PUSH1 0x40 MLOAD DUP1 SWAP2 SUB SWAP1 RETURN JUMPDEST PUSH2 0xBC PUSH2 0x260 JUMP JUMPDEST PUSH1 0x40 MLOAD PUSH2 0xC9 SWAP2 SWAP1 PUSH2 0x730 JUMP JUMPDEST PUSH1 0x40 MLOAD DUP1 SWAP2 SUB SWAP1 RETURN JUMPDEST PUSH2 0xEC PUSH1 0x4 DUP1 CALLDATASIZE SUB DUP2 ADD SWAP1 PUSH2 0xE7 SWAP2 SWAP1 PUSH2 0x661 JUMP JUMPDEST PUSH2 0x284 JUMP JUMPDEST STOP JUMPDEST PUSH2 0x108 PUSH1 0x4 DUP1 CALLDATASIZE SUB DUP2 ADD SWAP1 PUSH2 0x103 SWAP2 SWAP1 PUSH2 0x661 JUMP JUMPDEST PUSH2 0x3CD JUMP JUMPDEST PUSH1 0x40 MLOAD PUSH2 0x118 SWAP5 SWAP4 SWAP3 SWAP2 SWAP1 PUSH2 0x774 JUMP JUMPDEST PUSH1 0x40 MLOAD DUP1 SWAP2 SUB SWAP1 RETURN JUMPDEST PUSH2 0x13B PUSH1 0x4 DUP1 CALLDATASIZE SUB DUP2 ADD SWAP1 PUSH2 0x136 SWAP2 SWAP1 PUSH2 0x68A JUMP JUMPDEST PUSH2 0x42A JUMP JUMPDEST STOP JUMPDEST PUSH1 0x0 PUSH1 0x1 PUSH1 0x0 CALLER PUSH20 0xFFFFFFFFFFFFFFFFFFFFFFFFFFFFFFFFFFFFFFFF AND PUSH20 0xFFFFFFFFFFFFFFFFFFFFFFFFFFFFFFFFFFFFFFFF AND DUP2 MSTORE PUSH1 0x20 ADD SWAP1 DUP2 MSTORE PUSH1 0x20 ADD PUSH1 0x0 KECCAK256 SWAP1 POP DUP1 PUSH1 0x1 ADD PUSH1 0x0 SWAP1 SLOAD SWAP1 PUSH2 0x100 EXP SWAP1 DIV PUSH1 0xFF AND ISZERO PUSH2 0x19C JUMPI PUSH1 0x0 DUP1 REVERT JUMPDEST PUSH1 0x1 DUP2 PUSH1 0x1 ADD PUSH1 0x0 PUSH2 0x100 EXP DUP2 SLOAD DUP2 PUSH1 0xFF MUL NOT AND SWAP1 DUP4 ISZERO ISZERO MUL OR SWAP1 SSTORE POP DUP2 DUP2 PUSH1 0x2 ADD DUP2 SWAP1 SSTORE POP DUP1 PUSH1 0x0 ADD SLOAD PUSH1 0x2 DUP4 DUP2 SLOAD DUP2 LT PUSH2 0x201 JUMPI PUSH32 0x4E487B7100000000000000000000000000000000000000000000000000000000 PUSH1 0x0 MSTORE PUSH1 0x32 PUSH1 0x4 MSTORE PUSH1 0x24 PUSH1 0x0 REVERT JUMPDEST SWAP1 PUSH1 0x0 MSTORE PUSH1 0x20 PUSH1 0x0 KECCAK256 SWAP1 PUSH1 0x2 MUL ADD PUSH1 0x1 ADD PUSH1 0x0 DUP3 DUP3 SLOAD PUSH2 0x221 SWAP2 SWAP1 PUSH2 0x816 JUMP JUMPDEST SWAP3 POP POP DUP2 SWAP1 SSTORE POP POP POP JUMP JUMPDEST PUSH1 0x2 DUP2 DUP2 SLOAD DUP2 LT PUSH2 0x23C JUMPI PUSH1 0x0 DUP1 REVERT JUMPDEST SWAP1 PUSH1 0x0 MSTORE PUSH1 0x20 PUSH1 0x0 KECCAK256 SWAP1 PUSH1 0x2 MUL ADD PUSH1 0x0 SWAP2 POP SWAP1 POP DUP1 PUSH1 0x0 ADD SLOAD SWAP1 DUP1 PUSH1 0x1 ADD SLOAD SWAP1 POP DUP3 JUMP JUMPDEST PUSH1 0x0 DUP1 SLOAD SWAP1 PUSH2 0x100 EXP SWAP1 DIV PUSH20 0xFFFFFFFFFFFFFFFFFFFFFFFFFFFFFFFFFFFFFFFF AND DUP2 JUMP JUMPDEST PUSH1 0x0 DUP1 SLOAD SWAP1 PUSH2 0x100 EXP SWAP1 DIV PUSH20 0xFFFFFFFFFFFFFFFFFFFFFFFFFFFFFFFFFFFFFFFF AND PUSH20 0xFFFFFFFFFFFFFFFFFFFFFFFFFFFFFFFFFFFFFFFF AND CALLER PUSH20 0xFFFFFFFFFFFFFFFFFFFFFFFFFFFFFFFFFFFFFFFF AND EQ DUP1 ISZERO PUSH2 0x32C JUMPI POP PUSH1 0x1 PUSH1 0x0 DUP3 PUSH20 0xFFFFFFFFFFFFFFFFFFFFFFFFFFFFFFFFFFFFFFFF AND PUSH20 0xFFFFFFFFFFFFFFFFFFFFFFFFFFFFFFFFFFFFFFFF AND DUP2 MSTORE PUSH1 0x20 ADD SWAP1 DUP2 MSTORE PUSH1 0x20 ADD PUSH1 0x0 KECCAK256 PUSH1 0x1 ADD PUSH1 0x0 SWAP1 SLOAD SWAP1 PUSH2 0x100 EXP SWAP1 DIV PUSH1 0xFF AND ISZERO JUMPDEST DUP1 ISZERO PUSH2 0x37A JUMPI POP PUSH1 0x0 PUSH1 0x1 PUSH1 0x0 DUP4 PUSH20 0xFFFFFFFFFFFFFFFFFFFFFFFFFFFFFFFFFFFFFFFF AND PUSH20 0xFFFFFFFFFFFFFFFFFFFFFFFFFFFFFFFFFFFFFFFF AND DUP2 MSTORE PUSH1 0x20 ADD SWAP1 DUP2 MSTORE PUSH1 0x20 ADD PUSH1 0x0 KECCAK256 PUSH1 0x0 ADD SLOAD EQ JUMPDEST PUSH2 0x383 JUMPI PUSH1 0x0 DUP1 REVERT JUMPDEST PUSH1 0x1 DUP1 PUSH1 0x0 DUP4 PUSH20 0xFFFFFFFFFFFFFFFFFFFFFFFFFFFFFFFFFFFFFFFF AND PUSH20 0xFFFFFFFFFFFFFFFFFFFFFFFFFFFFFFFFFFFFFFFF AND DUP2 MSTORE PUSH1 0x20 ADD SWAP1 DUP2 MSTORE PUSH1 0x20 ADD PUSH1 0x0 KECCAK256 PUSH1 0x0 ADD DUP2 SWAP1 SSTORE POP POP JUMP JUMPDEST PUSH1 0x1 PUSH1 0x20 MSTORE DUP1 PUSH1 0x0 MSTORE PUSH1 0x40 PUSH1 0x0 KECCAK256 PUSH1 0x0 SWAP2 POP SWAP1 POP DUP1 PUSH1 0x0 ADD SLOAD SWAP1 DUP1 PUSH1 0x1 ADD PUSH1 0x0 SWAP1 SLOAD SWAP1 PUSH2 0x100 EXP SWAP1 DIV PUSH1 0xFF AND SWAP1 DUP1 PUSH1 0x1 ADD PUSH1 0x1 SWAP1 SLOAD SWAP1 PUSH2 0x100 EXP SWAP1 DIV PUSH20 0xFFFFFFFFFFFFFFFFFFFFFFFFFFFFFFFFFFFFFFFF AND SWAP1 DUP1 PUSH1 0x2 ADD SLOAD SWAP1 POP DUP5 JUMP JUMPDEST CALLER PUSH1 0x0 DUP1 PUSH2 0x100 EXP DUP2 SLOAD DUP2 PUSH20 0xFFFFFFFFFFFFFFFFFFFFFFFFFFFFFFFFFFFFFFFF MUL NOT AND SWAP1 DUP4 PUSH20 0xFFFFFFFFFFFFFFFFFFFFFFFFFFFFFFFFFFFFFFFF AND MUL OR SWAP1 SSTORE POP PUSH1 0x1 DUP1 PUSH1 0x0 DUP1 PUSH1 0x0 SWAP1 SLOAD SWAP1 PUSH2 0x100 EXP SWAP1 DIV PUSH20 0xFFFFFFFFFFFFFFFFFFFFFFFFFFFFFFFFFFFFFFFF AND PUSH20 0xFFFFFFFFFFFFFFFFFFFFFFFFFFFFFFFFFFFFFFFF AND PUSH20 0xFFFFFFFFFFFFFFFFFFFFFFFFFFFFFFFFFFFFFFFF AND DUP2 MSTORE PUSH1 0x20 ADD SWAP1 DUP2 MSTORE PUSH1 0x20 ADD PUSH1 0x0 KECCAK256 PUSH1 0x0 ADD DUP2 SWAP1 SSTORE POP PUSH1 0x0 JUMPDEST DUP2 MLOAD DUP2 LT ISZERO PUSH2 0x588 JUMPI PUSH1 0x2 PUSH1 0x40 MLOAD DUP1 PUSH1 0x40 ADD PUSH1 0x40 MSTORE DUP1 DUP5 DUP5 DUP2 MLOAD DUP2 LT PUSH2 0x524 JUMPI PUSH32 0x4E487B7100000000000000000000000000000000000000000000000000000000 PUSH1 0x0 MSTORE PUSH1 0x32 PUSH1 0x4 MSTORE PUSH1 0x24 PUSH1 0x0 REVERT JUMPDEST PUSH1 0x20 MUL PUSH1 0x20 ADD ADD MLOAD DUP2 MSTORE PUSH1 0x20 ADD PUSH1 0x0 DUP2 MSTORE POP SWAP1 DUP1 PUSH1 0x1 DUP2 SLOAD ADD DUP1 DUP3 SSTORE DUP1 SWAP2 POP POP PUSH1 0x1 SWAP1 SUB SWAP1 PUSH1 0x0 MSTORE PUSH1 0x20 PUSH1 0x0 KECCAK256 SWAP1 PUSH1 0x2 MUL ADD PUSH1 0x0 SWAP1 SWAP2 SWAP1 SWAP2 SWAP1 SWAP2 POP PUSH1 0x0 DUP3 ADD MLOAD DUP2 PUSH1 0x0 ADD SSTORE PUSH1 0x20 DUP3 ADD MLOAD DUP2 PUSH1 0x1 ADD SSTORE POP POP DUP1 DUP1 PUSH2 0x580 SWAP1 PUSH2 0x8BE JUMP JUMPDEST SWAP2 POP POP PUSH2 0x4D5 JUMP JUMPDEST POP POP JUMP JUMPDEST PUSH1 0x0 PUSH2 0x59F PUSH2 0x59A DUP5 PUSH2 0x7EA JUMP JUMPDEST PUSH2 0x7B9 JUMP JUMPDEST SWAP1 POP DUP1 DUP4 DUP3 MSTORE PUSH1 0x20 DUP3 ADD SWAP1 POP DUP3 DUP6 PUSH1 0x20 DUP7 MUL DUP3 ADD GT ISZERO PUSH2 0x5BE JUMPI PUSH1 0x0 DUP1 REVERT JUMPDEST PUSH1 0x0 JUMPDEST DUP6 DUP2 LT ISZERO PUSH2 0x5EE JUMPI DUP2 PUSH2 0x5D4 DUP9 DUP3 PUSH2 0x637 JUMP JUMPDEST DUP5 MSTORE PUSH1 0x20 DUP5 ADD SWAP4 POP PUSH1 0x20 DUP4 ADD SWAP3 POP POP PUSH1 0x1 DUP2 ADD SWAP1 POP PUSH2 0x5C1 JUMP JUMPDEST POP POP POP SWAP4 SWAP3 POP POP POP JUMP JUMPDEST PUSH1 0x0 DUP2 CALLDATALOAD SWAP1 POP PUSH2 0x607 DUP2 PUSH2 0x965 JUMP JUMPDEST SWAP3 SWAP2 POP POP JUMP JUMPDEST PUSH1 0x0 DUP3 PUSH1 0x1F DUP4 ADD SLT PUSH2 0x61E JUMPI PUSH1 0x0 DUP1 REVERT JUMPDEST DUP2 CALLDATALOAD PUSH2 0x62E DUP5 DUP3 PUSH1 0x20 DUP7 ADD PUSH2 0x58C JUMP JUMPDEST SWAP2 POP POP SWAP3 SWAP2 POP POP JUMP JUMPDEST PUSH1 0x0 DUP2 CALLDATALOAD SWAP1 POP PUSH2 0x646 DUP2 PUSH2 0x97C JUMP JUMPDEST SWAP3 SWAP2 POP POP JUMP JUMPDEST PUSH1 0x0 DUP2 CALLDATALOAD SWAP1 POP PUSH2 0x65B DUP2 PUSH2 0x993 JUMP JUMPDEST SWAP3 SWAP2 POP POP JUMP JUMPDEST PUSH1 0x0 PUSH1 0x20 DUP3 DUP5 SUB SLT ISZERO PUSH2 0x673 JUMPI PUSH1 0x0 DUP1 REVERT JUMPDEST PUSH1 0x0 PUSH2 0x681 DUP5 DUP3 DUP6 ADD PUSH2 0x5F8 JUMP JUMPDEST SWAP2 POP POP SWAP3 SWAP2 POP POP JUMP JUMPDEST PUSH1 0x0 PUSH1 0x20 DUP3 DUP5 SUB SLT ISZERO PUSH2 0x69C JUMPI PUSH1 0x0 DUP1 REVERT JUMPDEST PUSH1 0x0 DUP3 ADD CALLDATALOAD PUSH8 0xFFFFFFFFFFFFFFFF DUP2 GT ISZERO PUSH2 0x6B6 JUMPI PUSH1 0x0 DUP1 REVERT JUMPDEST PUSH2 0x6C2 DUP5 DUP3 DUP6 ADD PUSH2 0x60D JUMP JUMPDEST SWAP2 POP POP SWAP3 SWAP2 POP POP JUMP JUMPDEST PUSH1 0x0 PUSH1 0x20 DUP3 DUP5 SUB SLT ISZERO PUSH2 0x6DD JUMPI PUSH1 0x0 DUP1 REVERT JUMPDEST PUSH1 0x0 PUSH2 0x6EB DUP5 DUP3 DUP6 ADD PUSH2 0x64C JUMP JUMPDEST SWAP2 POP POP SWAP3 SWAP2 POP POP JUMP JUMPDEST PUSH2 0x6FD DUP2 PUSH2 0x86C JUMP JUMPDEST DUP3 MSTORE POP POP JUMP JUMPDEST PUSH2 0x70C DUP2 PUSH2 0x87E JUMP JUMPDEST DUP3 MSTORE POP POP JUMP JUMPDEST PUSH2 0x71B DUP2 PUSH2 0x88A JUMP JUMPDEST DUP3 MSTORE POP POP JUMP JUMPDEST PUSH2 0x72A DUP2 PUSH2 0x8B4 JUMP JUMPDEST DUP3 MSTORE POP POP JUMP JUMPDEST PUSH1 0x0 PUSH1 0x20 DUP3 ADD SWAP1 POP PUSH2 0x745 PUSH1 0x0 DUP4 ADD DUP5 PUSH2 0x6F4 JUMP JUMPDEST SWAP3 SWAP2 POP POP JUMP JUMPDEST PUSH1 0x0 PUSH1 0x40 DUP3 ADD SWAP1 POP PUSH2 0x760 PUSH1 0x0 DUP4 ADD DUP6 PUSH2 0x712 JUMP JUMPDEST PUSH2 0x76D PUSH1 0x20 DUP4 ADD DUP5 PUSH2 0x721 JUMP JUMPDEST SWAP4 SWAP3 POP POP POP JUMP JUMPDEST PUSH1 0x0 PUSH1 0x80 DUP3 ADD SWAP1 POP PUSH2 0x789 PUSH1 0x0 DUP4 ADD DUP8 PUSH2 0x721 JUMP JUMPDEST PUSH2 0x796 PUSH1 0x20 DUP4 ADD DUP7 PUSH2 0x703 JUMP JUMPDEST PUSH2 0x7A3 PUSH1 0x40 DUP4 ADD DUP6 PUSH2 0x6F4 JUMP JUMPDEST PUSH2 0x7B0 PUSH1 0x60 DUP4 ADD DUP5 PUSH2 0x721 JUMP JUMPDEST SWAP6 SWAP5 POP POP POP POP POP JUMP JUMPDEST PUSH1 0x0 PUSH1 0x40 MLOAD SWAP1 POP DUP2 DUP2 ADD DUP2 DUP2 LT PUSH8 0xFFFFFFFFFFFFFFFF DUP3 GT OR ISZERO PUSH2 0x7E0 JUMPI PUSH2 0x7DF PUSH2 0x936 JUMP JUMPDEST JUMPDEST DUP1 PUSH1 0x40 MSTORE POP SWAP2 SWAP1 POP JUMP JUMPDEST PUSH1 0x0 PUSH8 0xFFFFFFFFFFFFFFFF DUP3 GT ISZERO PUSH2 0x805 JUMPI PUSH2 0x804 PUSH2 0x936 JUMP JUMPDEST JUMPDEST PUSH1 0x20 DUP3 MUL SWAP1 POP PUSH1 0x20 DUP2 ADD SWAP1 POP SWAP2 SWAP1 POP JUMP JUMPDEST PUSH1 0x0 PUSH2 0x821 DUP3 PUSH2 0x8B4 JUMP JUMPDEST SWAP2 POP PUSH2 0x82C DUP4 PUSH2 0x8B4 JUMP JUMPDEST SWAP3 POP DUP3 PUSH32 0xFFFFFFFFFFFFFFFFFFFFFFFFFFFFFFFFFFFFFFFFFFFFFFFFFFFFFFFFFFFFFFFF SUB DUP3 GT ISZERO PUSH2 0x861 JUMPI PUSH2 0x860 PUSH2 0x907 JUMP JUMPDEST JUMPDEST DUP3 DUP3 ADD SWAP1 POP SWAP3 SWAP2 POP POP JUMP JUMPDEST PUSH1 0x0 PUSH2 0x877 DUP3 PUSH2 0x894 JUMP JUMPDEST SWAP1 POP SWAP2 SWAP1 POP JUMP JUMPDEST PUSH1 0x0 DUP2 ISZERO ISZERO SWAP1 POP SWAP2 SWAP1 POP JUMP JUMPDEST PUSH1 0x0 DUP2 SWAP1 POP SWAP2 SWAP1 POP JUMP JUMPDEST PUSH1 0x0 PUSH20 0xFFFFFFFFFFFFFFFFFFFFFFFFFFFFFFFFFFFFFFFF DUP3 AND SWAP1 POP SWAP2 SWAP1 POP JUMP JUMPDEST PUSH1 0x0 DUP2 SWAP1 POP SWAP2 SWAP1 POP JUMP JUMPDEST PUSH1 0x0 PUSH2 0x8C9 DUP3 PUSH2 0x8B4 JUMP JUMPDEST SWAP2 POP PUSH32 0xFFFFFFFFFFFFFFFFFFFFFFFFFFFFFFFFFFFFFFFFFFFFFFFFFFFFFFFFFFFFFFFF DUP3 EQ ISZERO PUSH2 0x8FC JUMPI PUSH2 0x8FB PUSH2 0x907 JUMP JUMPDEST JUMPDEST PUSH1 0x1 DUP3 ADD SWAP1 POP SWAP2 SWAP1 POP JUMP JUMPDEST PUSH32 0x4E487B7100000000000000000000000000000000000000000000000000000000 PUSH1 0x0 MSTORE PUSH1 0x11 PUSH1 0x4 MSTORE PUSH1 0x24 PUSH1 0x0 REVERT JUMPDEST PUSH32 0x4E487B7100000000000000000000000000000000000000000000000000000000 PUSH1 0x0 MSTORE PUSH1 0x41 PUSH1 0x4 MSTORE PUSH1 0x24 PUSH1 0x0 REVERT JUMPDEST PUSH2 0x96E DUP2 PUSH2 0x86C JUMP JUMPDEST DUP2 EQ PUSH2 0x979 JUMPI PUSH1 0x0 DUP1 REVERT JUMPDEST POP JUMP JUMPDEST PUSH2 0x985 DUP2 PUSH2 0x88A JUMP JUMPDEST DUP2 EQ PUSH2 0x990 JUMPI PUSH1 0x0 DUP1 REVERT JUMPDEST POP JUMP JUMPDEST PUSH2 0x99C DUP2 PUSH2 0x8B4 JUMP JUMPDEST DUP2 EQ PUSH2 0x9A7 JUMPI PUSH1 0x0 DUP1 REVERT JUMPDEST POP JUMP INVALID LOG2 PUSH5 0x6970667358 0x22 SLT KECCAK256 0xE 0x2F EXTCODEHASH SWAP9 0xD6 SWAP4 PUSH4 0xC61F622 0xDF ADDRESS SMOD DUP11 SWAP13 CALLDATASIZE PUSH8 0xA2DC35DE41B347F6 0xFC 0x1E 0xB4 DUP10 ORIGIN 0xAF PUSH5 0x736F6C6343 STOP ADDMOD STOP STOP CALLER "
				},
				"gasEstimates": {
					"creation": {
						"codeDepositCost": "505600",
						"executionCost": "537",
						"totalCost": "506137"
					},
					"external": {
						"chairperson()": "1233",
						"createBallot(bytes32[])": "infinite",
						"giveRightToVote(address)": "23363",
						"proposals(uint256)": "infinite",
						"vote(uint256)": "infinite",
						"voters(address)": "infinite"
					}
				},
				"methodIdentifiers": {
					"chairperson()": "2e4176cf",
					"createBallot(bytes32[])": "e35c9384",
					"giveRightToVote(address)": "9e7b8d61",
					"proposals(uint256)": "013cf08b",
					"vote(uint256)": "0121b93f",
					"voters(address)": "a3ec138d"
				}
			},
			"storageLayout": {
				"storage": [
					{
						"astId": 17,
						"contract": "contracts/prop_test.sol:Ballot",
						"label": "chairperson",
						"offset": 0,
						"slot": "0",
						"type": "t_address"
					},
					{
						"astId": 22,
						"contract": "contracts/prop_test.sol:Ballot",
						"label": "voters",
						"offset": 0,
						"slot": "1",
						"type": "t_mapping(t_address,t_struct(Voter)10_storage)"
					},
					{
						"astId": 26,
						"contract": "contracts/prop_test.sol:Ballot",
						"label": "proposals",
						"offset": 0,
						"slot": "2",
						"type": "t_array(t_struct(Proposal)15_storage)dyn_storage"
					}
				],
				"types": {
					"t_address": {
						"encoding": "inplace",
						"label": "address",
						"numberOfBytes": "20"
					},
					"t_array(t_struct(Proposal)15_storage)dyn_storage": {
						"base": "t_struct(Proposal)15_storage",
						"encoding": "dynamic_array",
						"label": "struct Ballot.Proposal[]",
						"numberOfBytes": "32"
					},
					"t_bool": {
						"encoding": "inplace",
						"label": "bool",
						"numberOfBytes": "1"
					},
					"t_bytes32": {
						"encoding": "inplace",
						"label": "bytes32",
						"numberOfBytes": "32"
					},
					"t_mapping(t_address,t_struct(Voter)10_storage)": {
						"encoding": "mapping",
						"key": "t_address",
						"label": "mapping(address => struct Ballot.Voter)",
						"numberOfBytes": "32",
						"value": "t_struct(Voter)10_storage"
					},
					"t_struct(Proposal)15_storage": {
						"encoding": "inplace",
						"label": "struct Ballot.Proposal",
						"members": [
							{
								"astId": 12,
								"contract": "contracts/prop_test.sol:Ballot",
								"label": "name",
								"offset": 0,
								"slot": "0",
								"type": "t_bytes32"
							},
							{
								"astId": 14,
								"contract": "contracts/prop_test.sol:Ballot",
								"label": "voteCount",
								"offset": 0,
								"slot": "1",
								"type": "t_uint256"
							}
						],
						"numberOfBytes": "64"
					},
					"t_struct(Voter)10_storage": {
						"encoding": "inplace",
						"label": "struct Ballot.Voter",
						"members": [
							{
								"astId": 3,
								"contract": "contracts/prop_test.sol:Ballot",
								"label": "weight",
								"offset": 0,
								"slot": "0",
								"type": "t_uint256"
							},
							{
								"astId": 5,
								"contract": "contracts/prop_test.sol:Ballot",
								"label": "voted",
								"offset": 0,
								"slot": "1",
								"type": "t_bool"
							},
							{
								"astId": 7,
								"contract": "contracts/prop_test.sol:Ballot",
								"label": "delegate",
								"offset": 1,
								"slot": "1",
								"type": "t_address"
							},
							{
								"astId": 9,
								"contract": "contracts/prop_test.sol:Ballot",
								"label": "vote",
								"offset": 0,
								"slot": "2",
								"type": "t_uint256"
							}
						],
						"numberOfBytes": "96"
					},
					"t_uint256": {
						"encoding": "inplace",
						"label": "uint256",
						"numberOfBytes": "32"
					}
				}
			},
			"userdoc": {
				"kind": "user",
				"methods": {},
				"version": 1
			}
		}
	}
}