{
	"contracts/proposal.sol": {
		"TestProposal": {
			"abi": [
				{
					"anonymous": false,
					"inputs": [
						{
							"indexed": true,
							"internalType": "uint256",
							"name": "_proposalId",
							"type": "uint256"
						}
					],
					"name": "savingEvent",
					"type": "event"
				},
				{
					"inputs": [
						{
							"internalType": "uint256",
							"name": "_proposalId",
							"type": "uint256"
						},
						{
							"internalType": "uint256",
							"name": "_proposalStatus",
							"type": "uint256"
						},
						{
							"internalType": "address",
							"name": "_proposalCreator",
							"type": "address"
						}
					],
					"name": "addProposal",
					"outputs": [],
					"stateMutability": "nonpayable",
					"type": "function"
				},
				{
					"inputs": [],
					"name": "proposalCount",
					"outputs": [
						{
							"internalType": "uint256",
							"name": "",
							"type": "uint256"
						}
					],
					"stateMutability": "view",
					"type": "function"
				},
				{
					"inputs": [
						{
							"internalType": "uint256",
							"name": "",
							"type": "uint256"
						}
					],
					"name": "proposals",
					"outputs": [
						{
							"internalType": "uint256",
							"name": "proposalId",
							"type": "uint256"
						},
						{
							"internalType": "uint256",
							"name": "proposalStatus",
							"type": "uint256"
						},
						{
							"internalType": "address",
							"name": "proposalCreator",
							"type": "address"
						}
					],
					"stateMutability": "view",
					"type": "function"
				}
			],
			"devdoc": {
				"methods": {}
			},
			"evm": {
				"assembly": "    /* \"contracts/proposal.sol\":95:1202  contract TestProposal {\r... */\n  mstore(0x40, 0x80)\n  callvalue\n    /* \"--CODEGEN--\":8:17   */\n  dup1\n    /* \"--CODEGEN--\":5:7   */\n  iszero\n  tag_1\n  jumpi\n    /* \"--CODEGEN--\":30:31   */\n  0x00\n    /* \"--CODEGEN--\":27:28   */\n  dup1\n    /* \"--CODEGEN--\":20:32   */\n  revert\n    /* \"--CODEGEN--\":5:7   */\ntag_1:\n    /* \"contracts/proposal.sol\":95:1202  contract TestProposal {\r... */\n  pop\n  dataSize(sub_0)\n  dup1\n  dataOffset(sub_0)\n  0x00\n  codecopy\n  0x00\n  return\nstop\n\nsub_0: assembly {\n        /* \"contracts/proposal.sol\":95:1202  contract TestProposal {\r... */\n      mstore(0x40, 0x80)\n      callvalue\n        /* \"--CODEGEN--\":8:17   */\n      dup1\n        /* \"--CODEGEN--\":5:7   */\n      iszero\n      tag_1\n      jumpi\n        /* \"--CODEGEN--\":30:31   */\n      0x00\n        /* \"--CODEGEN--\":27:28   */\n      dup1\n        /* \"--CODEGEN--\":20:32   */\n      revert\n        /* \"--CODEGEN--\":5:7   */\n    tag_1:\n        /* \"contracts/proposal.sol\":95:1202  contract TestProposal {\r... */\n      pop\n      jumpi(tag_2, lt(calldatasize, 0x04))\n      shr(0xe0, calldataload(0x00))\n      dup1\n      0x013cf08b\n      eq\n      tag_3\n      jumpi\n      dup1\n      0x59be7fbe\n      eq\n      tag_4\n      jumpi\n      dup1\n      0xda35c664\n      eq\n      tag_5\n      jumpi\n    tag_2:\n      0x00\n      dup1\n      revert\n        /* \"contracts/proposal.sol\":435:478  mapping (uint => Proposal) public proposals */\n    tag_3:\n      tag_6\n      0x04\n      dup1\n      calldatasize\n      sub\n      tag_7\n      swap2\n      swap1\n      dup2\n      add\n      swap1\n      jump(tag_8)\n    tag_7:\n      tag_9\n      jump\t// in\n    tag_6:\n      mload(0x40)\n      tag_10\n      swap4\n      swap3\n      swap2\n      swap1\n      jump(tag_11)\n    tag_10:\n      mload(0x40)\n      dup1\n      swap2\n      sub\n      swap1\n      return\n        /* \"contracts/proposal.sol\":791:1013  function addProposal(uint _proposalId, uint _proposalStatus, address _proposalCreator) public {\r... */\n    tag_4:\n      tag_12\n      0x04\n      dup1\n      calldatasize\n      sub\n      tag_13\n      swap2\n      swap1\n      dup2\n      add\n      swap1\n      jump(tag_14)\n    tag_13:\n      tag_15\n      jump\t// in\n    tag_12:\n      stop\n        /* \"contracts/proposal.sol\":535:560  uint public proposalCount */\n    tag_5:\n      tag_16\n      tag_17\n      jump\t// in\n    tag_16:\n      mload(0x40)\n      tag_18\n      swap2\n      swap1\n      jump(tag_19)\n    tag_18:\n      mload(0x40)\n      dup1\n      swap2\n      sub\n      swap1\n      return\n        /* \"contracts/proposal.sol\":435:478  mapping (uint => Proposal) public proposals */\n    tag_9:\n      mstore(0x20, 0x00)\n      dup1\n      0x00\n      mstore\n      keccak256(0x00, 0x40)\n      0x00\n      swap2\n      pop\n      swap1\n      pop\n      dup1\n      0x00\n      add\n      sload\n      swap1\n      dup1\n      0x01\n      add\n      sload\n      swap1\n      dup1\n      0x02\n      add\n      0x00\n      swap1\n      sload\n      swap1\n      0x0100\n      exp\n      swap1\n      div\n      0xffffffffffffffffffffffffffffffffffffffff\n      and\n      swap1\n      pop\n      dup4\n      jump\t// out\n        /* \"contracts/proposal.sol\":791:1013  function addProposal(uint _proposalId, uint _proposalStatus, address _proposalCreator) public {\r... */\n    tag_15:\n        /* \"contracts/proposal.sol\":923:979  Proposal(_proposalId, _proposalStatus, _proposalCreator) */\n      mload(0x40)\n      dup1\n      0x60\n      add\n      0x40\n      mstore\n      dup1\n        /* \"contracts/proposal.sol\":932:943  _proposalId */\n      dup5\n        /* \"contracts/proposal.sol\":923:979  Proposal(_proposalId, _proposalStatus, _proposalCreator) */\n      dup2\n      mstore\n      0x20\n      add\n        /* \"contracts/proposal.sol\":945:960  _proposalStatus */\n      dup4\n        /* \"contracts/proposal.sol\":923:979  Proposal(_proposalId, _proposalStatus, _proposalCreator) */\n      dup2\n      mstore\n      0x20\n      add\n        /* \"contracts/proposal.sol\":962:978  _proposalCreator */\n      dup3\n        /* \"contracts/proposal.sol\":923:979  Proposal(_proposalId, _proposalStatus, _proposalCreator) */\n      0xffffffffffffffffffffffffffffffffffffffff\n      and\n      dup2\n      mstore\n      pop\n        /* \"contracts/proposal.sol\":896:905  proposals */\n      0x00\n        /* \"contracts/proposal.sol\":896:920  proposals[proposalCount] */\n      dup1\n        /* \"contracts/proposal.sol\":906:919  proposalCount */\n      sload(0x01)\n        /* \"contracts/proposal.sol\":896:920  proposals[proposalCount] */\n      dup2\n      mstore\n      0x20\n      add\n      swap1\n      dup2\n      mstore\n      0x20\n      add\n      0x00\n      keccak256\n        /* \"contracts/proposal.sol\":896:979  proposals[proposalCount] = Proposal(_proposalId, _proposalStatus, _proposalCreator) */\n      0x00\n      dup3\n      add\n      mload\n      dup2\n      0x00\n      add\n      sstore\n      0x20\n      dup3\n      add\n      mload\n      dup2\n      0x01\n      add\n      sstore\n      0x40\n      dup3\n      add\n      mload\n      dup2\n      0x02\n      add\n      exp(0x0100, 0x00)\n      dup2\n      sload\n      dup2\n      0xffffffffffffffffffffffffffffffffffffffff\n      mul\n      not\n      and\n      swap1\n      dup4\n      0xffffffffffffffffffffffffffffffffffffffff\n      and\n      mul\n      or\n      swap1\n      sstore\n      pop\n      swap1\n      pop\n      pop\n        /* \"contracts/proposal.sol\":990:1003  proposalCount */\n      0x01\n      0x00\n        /* \"contracts/proposal.sol\":990:1005  proposalCount++ */\n      dup2\n      sload\n      dup1\n      swap3\n      swap2\n      swap1\n      0x01\n      add\n      swap2\n      swap1\n      pop\n      sstore\n      pop\n        /* \"contracts/proposal.sol\":791:1013  function addProposal(uint _proposalId, uint _proposalStatus, address _proposalCreator) public {\r... */\n      pop\n      pop\n      pop\n      jump\t// out\n        /* \"contracts/proposal.sol\":535:560  uint public proposalCount */\n    tag_17:\n      sload(0x01)\n      dup2\n      jump\t// out\n        /* \"--CODEGEN--\":5:135   */\n    tag_22:\n      0x00\n        /* \"--CODEGEN--\":85:91   */\n      dup2\n        /* \"--CODEGEN--\":72:92   */\n      calldataload\n        /* \"--CODEGEN--\":63:92   */\n      swap1\n      pop\n        /* \"--CODEGEN--\":97:130   */\n      tag_24\n        /* \"--CODEGEN--\":124:129   */\n      dup2\n        /* \"--CODEGEN--\":97:130   */\n      jump(tag_25)\n    tag_24:\n        /* \"--CODEGEN--\":57:135   */\n      swap3\n      swap2\n      pop\n      pop\n      jump\n        /* \"--CODEGEN--\":142:272   */\n    tag_26:\n      0x00\n        /* \"--CODEGEN--\":222:228   */\n      dup2\n        /* \"--CODEGEN--\":209:229   */\n      calldataload\n        /* \"--CODEGEN--\":200:229   */\n      swap1\n      pop\n        /* \"--CODEGEN--\":234:267   */\n      tag_28\n        /* \"--CODEGEN--\":261:266   */\n      dup2\n        /* \"--CODEGEN--\":234:267   */\n      jump(tag_29)\n    tag_28:\n        /* \"--CODEGEN--\":194:272   */\n      swap3\n      swap2\n      pop\n      pop\n      jump\n        /* \"--CODEGEN--\":279:520   */\n    tag_8:\n      0x00\n        /* \"--CODEGEN--\":383:385   */\n      0x20\n        /* \"--CODEGEN--\":371:380   */\n      dup3\n        /* \"--CODEGEN--\":362:369   */\n      dup5\n        /* \"--CODEGEN--\":358:381   */\n      sub\n        /* \"--CODEGEN--\":354:386   */\n      slt\n        /* \"--CODEGEN--\":351:353   */\n      iszero\n      tag_31\n      jumpi\n        /* \"--CODEGEN--\":399:400   */\n      0x00\n        /* \"--CODEGEN--\":396:397   */\n      dup1\n        /* \"--CODEGEN--\":389:401   */\n      revert\n        /* \"--CODEGEN--\":351:353   */\n    tag_31:\n        /* \"--CODEGEN--\":434:435   */\n      0x00\n        /* \"--CODEGEN--\":451:504   */\n      tag_32\n        /* \"--CODEGEN--\":496:503   */\n      dup5\n        /* \"--CODEGEN--\":487:493   */\n      dup3\n        /* \"--CODEGEN--\":476:485   */\n      dup6\n        /* \"--CODEGEN--\":472:494   */\n      add\n        /* \"--CODEGEN--\":451:504   */\n      jump(tag_26)\n    tag_32:\n        /* \"--CODEGEN--\":441:504   */\n      swap2\n      pop\n        /* \"--CODEGEN--\":413:510   */\n      pop\n        /* \"--CODEGEN--\":345:520   */\n      swap3\n      swap2\n      pop\n      pop\n      jump\n        /* \"--CODEGEN--\":527:1018   */\n    tag_14:\n      0x00\n      dup1\n      0x00\n        /* \"--CODEGEN--\":665:667   */\n      0x60\n        /* \"--CODEGEN--\":653:662   */\n      dup5\n        /* \"--CODEGEN--\":644:651   */\n      dup7\n        /* \"--CODEGEN--\":640:663   */\n      sub\n        /* \"--CODEGEN--\":636:668   */\n      slt\n        /* \"--CODEGEN--\":633:635   */\n      iszero\n      tag_34\n      jumpi\n        /* \"--CODEGEN--\":681:682   */\n      0x00\n        /* \"--CODEGEN--\":678:679   */\n      dup1\n        /* \"--CODEGEN--\":671:683   */\n      revert\n        /* \"--CODEGEN--\":633:635   */\n    tag_34:\n        /* \"--CODEGEN--\":716:717   */\n      0x00\n        /* \"--CODEGEN--\":733:786   */\n      tag_35\n        /* \"--CODEGEN--\":778:785   */\n      dup7\n        /* \"--CODEGEN--\":769:775   */\n      dup3\n        /* \"--CODEGEN--\":758:767   */\n      dup8\n        /* \"--CODEGEN--\":754:776   */\n      add\n        /* \"--CODEGEN--\":733:786   */\n      jump(tag_26)\n    tag_35:\n        /* \"--CODEGEN--\":723:786   */\n      swap4\n      pop\n        /* \"--CODEGEN--\":695:792   */\n      pop\n        /* \"--CODEGEN--\":823:825   */\n      0x20\n        /* \"--CODEGEN--\":841:894   */\n      tag_36\n        /* \"--CODEGEN--\":886:893   */\n      dup7\n        /* \"--CODEGEN--\":877:883   */\n      dup3\n        /* \"--CODEGEN--\":866:875   */\n      dup8\n        /* \"--CODEGEN--\":862:884   */\n      add\n        /* \"--CODEGEN--\":841:894   */\n      jump(tag_26)\n    tag_36:\n        /* \"--CODEGEN--\":831:894   */\n      swap3\n      pop\n        /* \"--CODEGEN--\":802:900   */\n      pop\n        /* \"--CODEGEN--\":931:933   */\n      0x40\n        /* \"--CODEGEN--\":949:1002   */\n      tag_37\n        /* \"--CODEGEN--\":994:1001   */\n      dup7\n        /* \"--CODEGEN--\":985:991   */\n      dup3\n        /* \"--CODEGEN--\":974:983   */\n      dup8\n        /* \"--CODEGEN--\":970:992   */\n      add\n        /* \"--CODEGEN--\":949:1002   */\n      jump(tag_22)\n    tag_37:\n        /* \"--CODEGEN--\":939:1002   */\n      swap2\n      pop\n        /* \"--CODEGEN--\":910:1008   */\n      pop\n        /* \"--CODEGEN--\":627:1018   */\n      swap3\n      pop\n      swap3\n      pop\n      swap3\n      jump\n        /* \"--CODEGEN--\":1025:1138   */\n    tag_38:\n        /* \"--CODEGEN--\":1108:1132   */\n      tag_40\n        /* \"--CODEGEN--\":1126:1131   */\n      dup2\n        /* \"--CODEGEN--\":1108:1132   */\n      jump(tag_41)\n    tag_40:\n        /* \"--CODEGEN--\":1103:1106   */\n      dup3\n        /* \"--CODEGEN--\":1096:1133   */\n      mstore\n        /* \"--CODEGEN--\":1090:1138   */\n      pop\n      pop\n      jump\n        /* \"--CODEGEN--\":1145:1258   */\n    tag_42:\n        /* \"--CODEGEN--\":1228:1252   */\n      tag_44\n        /* \"--CODEGEN--\":1246:1251   */\n      dup2\n        /* \"--CODEGEN--\":1228:1252   */\n      jump(tag_45)\n    tag_44:\n        /* \"--CODEGEN--\":1223:1226   */\n      dup3\n        /* \"--CODEGEN--\":1216:1253   */\n      mstore\n        /* \"--CODEGEN--\":1210:1258   */\n      pop\n      pop\n      jump\n        /* \"--CODEGEN--\":1265:1478   */\n    tag_19:\n      0x00\n        /* \"--CODEGEN--\":1383:1385   */\n      0x20\n        /* \"--CODEGEN--\":1372:1381   */\n      dup3\n        /* \"--CODEGEN--\":1368:1386   */\n      add\n        /* \"--CODEGEN--\":1360:1386   */\n      swap1\n      pop\n        /* \"--CODEGEN--\":1397:1468   */\n      tag_47\n        /* \"--CODEGEN--\":1465:1466   */\n      0x00\n        /* \"--CODEGEN--\":1454:1463   */\n      dup4\n        /* \"--CODEGEN--\":1450:1467   */\n      add\n        /* \"--CODEGEN--\":1441:1447   */\n      dup5\n        /* \"--CODEGEN--\":1397:1468   */\n      jump(tag_42)\n    tag_47:\n        /* \"--CODEGEN--\":1354:1478   */\n      swap3\n      swap2\n      pop\n      pop\n      jump\n        /* \"--CODEGEN--\":1485:1920   */\n    tag_11:\n      0x00\n        /* \"--CODEGEN--\":1659:1661   */\n      0x60\n        /* \"--CODEGEN--\":1648:1657   */\n      dup3\n        /* \"--CODEGEN--\":1644:1662   */\n      add\n        /* \"--CODEGEN--\":1636:1662   */\n      swap1\n      pop\n        /* \"--CODEGEN--\":1673:1744   */\n      tag_49\n        /* \"--CODEGEN--\":1741:1742   */\n      0x00\n        /* \"--CODEGEN--\":1730:1739   */\n      dup4\n        /* \"--CODEGEN--\":1726:1743   */\n      add\n        /* \"--CODEGEN--\":1717:1723   */\n      dup7\n        /* \"--CODEGEN--\":1673:1744   */\n      jump(tag_42)\n    tag_49:\n        /* \"--CODEGEN--\":1755:1827   */\n      tag_50\n        /* \"--CODEGEN--\":1823:1825   */\n      0x20\n        /* \"--CODEGEN--\":1812:1821   */\n      dup4\n        /* \"--CODEGEN--\":1808:1826   */\n      add\n        /* \"--CODEGEN--\":1799:1805   */\n      dup6\n        /* \"--CODEGEN--\":1755:1827   */\n      jump(tag_42)\n    tag_50:\n        /* \"--CODEGEN--\":1838:1910   */\n      tag_51\n        /* \"--CODEGEN--\":1906:1908   */\n      0x40\n        /* \"--CODEGEN--\":1895:1904   */\n      dup4\n        /* \"--CODEGEN--\":1891:1909   */\n      add\n        /* \"--CODEGEN--\":1882:1888   */\n      dup5\n        /* \"--CODEGEN--\":1838:1910   */\n      jump(tag_38)\n    tag_51:\n        /* \"--CODEGEN--\":1630:1920   */\n      swap5\n      swap4\n      pop\n      pop\n      pop\n      pop\n      jump\n        /* \"--CODEGEN--\":1927:2018   */\n    tag_41:\n      0x00\n        /* \"--CODEGEN--\":1989:2013   */\n      tag_53\n        /* \"--CODEGEN--\":2007:2012   */\n      dup3\n        /* \"--CODEGEN--\":1989:2013   */\n      jump(tag_54)\n    tag_53:\n        /* \"--CODEGEN--\":1978:2013   */\n      swap1\n      pop\n        /* \"--CODEGEN--\":1972:2018   */\n      swap2\n      swap1\n      pop\n      jump\n        /* \"--CODEGEN--\":2025:2146   */\n    tag_54:\n      0x00\n        /* \"--CODEGEN--\":2098:2140   */\n      0xffffffffffffffffffffffffffffffffffffffff\n        /* \"--CODEGEN--\":2091:2096   */\n      dup3\n        /* \"--CODEGEN--\":2087:2141   */\n      and\n        /* \"--CODEGEN--\":2076:2141   */\n      swap1\n      pop\n        /* \"--CODEGEN--\":2070:2146   */\n      swap2\n      swap1\n      pop\n      jump\n        /* \"--CODEGEN--\":2153:2225   */\n    tag_45:\n      0x00\n        /* \"--CODEGEN--\":2215:2220   */\n      dup2\n        /* \"--CODEGEN--\":2204:2220   */\n      swap1\n      pop\n        /* \"--CODEGEN--\":2198:2225   */\n      swap2\n      swap1\n      pop\n      jump\n        /* \"--CODEGEN--\":2232:2349   */\n    tag_25:\n        /* \"--CODEGEN--\":2301:2325   */\n      tag_58\n        /* \"--CODEGEN--\":2319:2324   */\n      dup2\n        /* \"--CODEGEN--\":2301:2325   */\n      jump(tag_41)\n    tag_58:\n        /* \"--CODEGEN--\":2294:2299   */\n      dup2\n        /* \"--CODEGEN--\":2291:2326   */\n      eq\n        /* \"--CODEGEN--\":2281:2283   */\n      tag_59\n      jumpi\n        /* \"--CODEGEN--\":2340:2341   */\n      0x00\n        /* \"--CODEGEN--\":2337:2338   */\n      dup1\n        /* \"--CODEGEN--\":2330:2342   */\n      revert\n        /* \"--CODEGEN--\":2281:2283   */\n    tag_59:\n        /* \"--CODEGEN--\":2275:2349   */\n      pop\n      jump\n        /* \"--CODEGEN--\":2356:2473   */\n    tag_29:\n        /* \"--CODEGEN--\":2425:2449   */\n      tag_61\n        /* \"--CODEGEN--\":2443:2448   */\n      dup2\n        /* \"--CODEGEN--\":2425:2449   */\n      jump(tag_45)\n    tag_61:\n        /* \"--CODEGEN--\":2418:2423   */\n      dup2\n        /* \"--CODEGEN--\":2415:2450   */\n      eq\n        /* \"--CODEGEN--\":2405:2407   */\n      tag_62\n      jumpi\n        /* \"--CODEGEN--\":2464:2465   */\n      0x00\n        /* \"--CODEGEN--\":2461:2462   */\n      dup1\n        /* \"--CODEGEN--\":2454:2466   */\n      revert\n        /* \"--CODEGEN--\":2405:2407   */\n    tag_62:\n        /* \"--CODEGEN--\":2399:2473   */\n      pop\n      jump\n\n    auxdata: 0xa26469706673582212204dc4be0d7c2e8d0c0379e525caf7d54ef4f89063dcb767997cc96b5fd10bcd7464736f6c63430006000033\n}\n",
				"bytecode": {
					"linkReferences": {},
					"object": "608060405234801561001057600080fd5b5061036e806100206000396000f3fe608060405234801561001057600080fd5b50600436106100415760003560e01c8063013cf08b1461004657806359be7fbe14610078578063da35c66414610094575b600080fd5b610060600480360361005b91908101906101e6565b6100b2565b60405161006f93929190610297565b60405180910390f35b610092600480360361008d919081019061020f565b6100fc565b005b61009c6101b6565b6040516100a9919061027c565b60405180910390f35b60006020528060005260406000206000915090508060000154908060010154908060020160009054906101000a900473ffffffffffffffffffffffffffffffffffffffff16905083565b60405180606001604052808481526020018381526020018273ffffffffffffffffffffffffffffffffffffffff168152506000806001548152602001908152602001600020600082015181600001556020820151816001015560408201518160020160006101000a81548173ffffffffffffffffffffffffffffffffffffffff021916908373ffffffffffffffffffffffffffffffffffffffff160217905550905050600160008154809291906001019190505550505050565b60015481565b6000813590506101cb8161030a565b92915050565b6000813590506101e081610321565b92915050565b6000602082840312156101f857600080fd5b6000610206848285016101d1565b91505092915050565b60008060006060848603121561022457600080fd5b6000610232868287016101d1565b9350506020610243868287016101d1565b9250506040610254868287016101bc565b9150509250925092565b610267816102ce565b82525050565b61027681610300565b82525050565b6000602082019050610291600083018461026d565b92915050565b60006060820190506102ac600083018661026d565b6102b9602083018561026d565b6102c6604083018461025e565b949350505050565b60006102d9826102e0565b9050919050565b600073ffffffffffffffffffffffffffffffffffffffff82169050919050565b6000819050919050565b610313816102ce565b811461031e57600080fd5b50565b61032a81610300565b811461033557600080fd5b5056fea26469706673582212204dc4be0d7c2e8d0c0379e525caf7d54ef4f89063dcb767997cc96b5fd10bcd7464736f6c63430006000033",
					"opcodes": "PUSH1 0x80 PUSH1 0x40 MSTORE CALLVALUE DUP1 ISZERO PUSH2 0x10 JUMPI PUSH1 0x0 DUP1 REVERT JUMPDEST POP PUSH2 0x36E DUP1 PUSH2 0x20 PUSH1 0x0 CODECOPY PUSH1 0x0 RETURN INVALID PUSH1 0x80 PUSH1 0x40 MSTORE CALLVALUE DUP1 ISZERO PUSH2 0x10 JUMPI PUSH1 0x0 DUP1 REVERT JUMPDEST POP PUSH1 0x4 CALLDATASIZE LT PUSH2 0x41 JUMPI PUSH1 0x0 CALLDATALOAD PUSH1 0xE0 SHR DUP1 PUSH4 0x13CF08B EQ PUSH2 0x46 JUMPI DUP1 PUSH4 0x59BE7FBE EQ PUSH2 0x78 JUMPI DUP1 PUSH4 0xDA35C664 EQ PUSH2 0x94 JUMPI JUMPDEST PUSH1 0x0 DUP1 REVERT JUMPDEST PUSH2 0x60 PUSH1 0x4 DUP1 CALLDATASIZE SUB PUSH2 0x5B SWAP2 SWAP1 DUP2 ADD SWAP1 PUSH2 0x1E6 JUMP JUMPDEST PUSH2 0xB2 JUMP JUMPDEST PUSH1 0x40 MLOAD PUSH2 0x6F SWAP4 SWAP3 SWAP2 SWAP1 PUSH2 0x297 JUMP JUMPDEST PUSH1 0x40 MLOAD DUP1 SWAP2 SUB SWAP1 RETURN JUMPDEST PUSH2 0x92 PUSH1 0x4 DUP1 CALLDATASIZE SUB PUSH2 0x8D SWAP2 SWAP1 DUP2 ADD SWAP1 PUSH2 0x20F JUMP JUMPDEST PUSH2 0xFC JUMP JUMPDEST STOP JUMPDEST PUSH2 0x9C PUSH2 0x1B6 JUMP JUMPDEST PUSH1 0x40 MLOAD PUSH2 0xA9 SWAP2 SWAP1 PUSH2 0x27C JUMP JUMPDEST PUSH1 0x40 MLOAD DUP1 SWAP2 SUB SWAP1 RETURN JUMPDEST PUSH1 0x0 PUSH1 0x20 MSTORE DUP1 PUSH1 0x0 MSTORE PUSH1 0x40 PUSH1 0x0 KECCAK256 PUSH1 0x0 SWAP2 POP SWAP1 POP DUP1 PUSH1 0x0 ADD SLOAD SWAP1 DUP1 PUSH1 0x1 ADD SLOAD SWAP1 DUP1 PUSH1 0x2 ADD PUSH1 0x0 SWAP1 SLOAD SWAP1 PUSH2 0x100 EXP SWAP1 DIV PUSH20 0xFFFFFFFFFFFFFFFFFFFFFFFFFFFFFFFFFFFFFFFF AND SWAP1 POP DUP4 JUMP JUMPDEST PUSH1 0x40 MLOAD DUP1 PUSH1 0x60 ADD PUSH1 0x40 MSTORE DUP1 DUP5 DUP2 MSTORE PUSH1 0x20 ADD DUP4 DUP2 MSTORE PUSH1 0x20 ADD DUP3 PUSH20 0xFFFFFFFFFFFFFFFFFFFFFFFFFFFFFFFFFFFFFFFF AND DUP2 MSTORE POP PUSH1 0x0 DUP1 PUSH1 0x1 SLOAD DUP2 MSTORE PUSH1 0x20 ADD SWAP1 DUP2 MSTORE PUSH1 0x20 ADD PUSH1 0x0 KECCAK256 PUSH1 0x0 DUP3 ADD MLOAD DUP2 PUSH1 0x0 ADD SSTORE PUSH1 0x20 DUP3 ADD MLOAD DUP2 PUSH1 0x1 ADD SSTORE PUSH1 0x40 DUP3 ADD MLOAD DUP2 PUSH1 0x2 ADD PUSH1 0x0 PUSH2 0x100 EXP DUP2 SLOAD DUP2 PUSH20 0xFFFFFFFFFFFFFFFFFFFFFFFFFFFFFFFFFFFFFFFF MUL NOT AND SWAP1 DUP4 PUSH20 0xFFFFFFFFFFFFFFFFFFFFFFFFFFFFFFFFFFFFFFFF AND MUL OR SWAP1 SSTORE POP SWAP1 POP POP PUSH1 0x1 PUSH1 0x0 DUP2 SLOAD DUP1 SWAP3 SWAP2 SWAP1 PUSH1 0x1 ADD SWAP2 SWAP1 POP SSTORE POP POP POP POP JUMP JUMPDEST PUSH1 0x1 SLOAD DUP2 JUMP JUMPDEST PUSH1 0x0 DUP2 CALLDATALOAD SWAP1 POP PUSH2 0x1CB DUP2 PUSH2 0x30A JUMP JUMPDEST SWAP3 SWAP2 POP POP JUMP JUMPDEST PUSH1 0x0 DUP2 CALLDATALOAD SWAP1 POP PUSH2 0x1E0 DUP2 PUSH2 0x321 JUMP JUMPDEST SWAP3 SWAP2 POP POP JUMP JUMPDEST PUSH1 0x0 PUSH1 0x20 DUP3 DUP5 SUB SLT ISZERO PUSH2 0x1F8 JUMPI PUSH1 0x0 DUP1 REVERT JUMPDEST PUSH1 0x0 PUSH2 0x206 DUP5 DUP3 DUP6 ADD PUSH2 0x1D1 JUMP JUMPDEST SWAP2 POP POP SWAP3 SWAP2 POP POP JUMP JUMPDEST PUSH1 0x0 DUP1 PUSH1 0x0 PUSH1 0x60 DUP5 DUP7 SUB SLT ISZERO PUSH2 0x224 JUMPI PUSH1 0x0 DUP1 REVERT JUMPDEST PUSH1 0x0 PUSH2 0x232 DUP7 DUP3 DUP8 ADD PUSH2 0x1D1 JUMP JUMPDEST SWAP4 POP POP PUSH1 0x20 PUSH2 0x243 DUP7 DUP3 DUP8 ADD PUSH2 0x1D1 JUMP JUMPDEST SWAP3 POP POP PUSH1 0x40 PUSH2 0x254 DUP7 DUP3 DUP8 ADD PUSH2 0x1BC JUMP JUMPDEST SWAP2 POP POP SWAP3 POP SWAP3 POP SWAP3 JUMP JUMPDEST PUSH2 0x267 DUP2 PUSH2 0x2CE JUMP JUMPDEST DUP3 MSTORE POP POP JUMP JUMPDEST PUSH2 0x276 DUP2 PUSH2 0x300 JUMP JUMPDEST DUP3 MSTORE POP POP JUMP JUMPDEST PUSH1 0x0 PUSH1 0x20 DUP3 ADD SWAP1 POP PUSH2 0x291 PUSH1 0x0 DUP4 ADD DUP5 PUSH2 0x26D JUMP JUMPDEST SWAP3 SWAP2 POP POP JUMP JUMPDEST PUSH1 0x0 PUSH1 0x60 DUP3 ADD SWAP1 POP PUSH2 0x2AC PUSH1 0x0 DUP4 ADD DUP7 PUSH2 0x26D JUMP JUMPDEST PUSH2 0x2B9 PUSH1 0x20 DUP4 ADD DUP6 PUSH2 0x26D JUMP JUMPDEST PUSH2 0x2C6 PUSH1 0x40 DUP4 ADD DUP5 PUSH2 0x25E JUMP JUMPDEST SWAP5 SWAP4 POP POP POP POP JUMP JUMPDEST PUSH1 0x0 PUSH2 0x2D9 DUP3 PUSH2 0x2E0 JUMP JUMPDEST SWAP1 POP SWAP2 SWAP1 POP JUMP JUMPDEST PUSH1 0x0 PUSH20 0xFFFFFFFFFFFFFFFFFFFFFFFFFFFFFFFFFFFFFFFF DUP3 AND SWAP1 POP SWAP2 SWAP1 POP JUMP JUMPDEST PUSH1 0x0 DUP2 SWAP1 POP SWAP2 SWAP1 POP JUMP JUMPDEST PUSH2 0x313 DUP2 PUSH2 0x2CE JUMP JUMPDEST DUP2 EQ PUSH2 0x31E JUMPI PUSH1 0x0 DUP1 REVERT JUMPDEST POP JUMP JUMPDEST PUSH2 0x32A DUP2 PUSH2 0x300 JUMP JUMPDEST DUP2 EQ PUSH2 0x335 JUMPI PUSH1 0x0 DUP1 REVERT JUMPDEST POP JUMP INVALID LOG2 PUSH5 0x6970667358 0x22 SLT KECCAK256 0x4D 0xC4 0xBE 0xD PUSH29 0x2E8D0C0379E525CAF7D54EF4F89063DCB767997CC96B5FD10BCD746473 PUSH16 0x6C634300060000330000000000000000 "
				},
				"gasEstimates": {
					"creation": {
						"codeDepositCost": "175600",
						"executionCost": "220",
						"totalCost": "175820"
					},
					"external": {
						"addProposal(uint256,uint256,address)": "infinite",
						"proposalCount()": "1151",
						"proposals(uint256)": "infinite"
					}
				},
				"methodIdentifiers": {
					"addProposal(uint256,uint256,address)": "59be7fbe",
					"proposalCount()": "da35c664",
					"proposals(uint256)": "013cf08b"
				}
			},
			"storageLayout": {
				"storage": [
					{
						"astId": 20,
						"contract": "contracts/proposal.sol:TestProposal",
						"label": "proposals",
						"offset": 0,
						"slot": "0",
						"type": "t_mapping(t_uint256,t_struct(Proposal)9_storage)"
					},
					{
						"astId": 26,
						"contract": "contracts/proposal.sol:TestProposal",
						"label": "proposalCount",
						"offset": 0,
						"slot": "1",
						"type": "t_uint256"
					}
				],
				"types": {
					"t_address": {
						"encoding": "inplace",
						"label": "address",
						"numberOfBytes": "20"
					},
					"t_mapping(t_uint256,t_struct(Proposal)9_storage)": {
						"encoding": "mapping",
						"key": "t_uint256",
						"label": "mapping(uint256 => struct TestProposal.Proposal)",
						"numberOfBytes": "32",
						"value": "t_struct(Proposal)9_storage"
					},
					"t_struct(Proposal)9_storage": {
						"encoding": "inplace",
						"label": "struct TestProposal.Proposal",
						"members": [
							{
								"astId": 4,
								"contract": "contracts/proposal.sol:TestProposal",
								"label": "proposalId",
								"offset": 0,
								"slot": "0",
								"type": "t_uint256"
							},
							{
								"astId": 6,
								"contract": "contracts/proposal.sol:TestProposal",
								"label": "proposalStatus",
								"offset": 0,
								"slot": "1",
								"type": "t_uint256"
							},
							{
								"astId": 8,
								"contract": "contracts/proposal.sol:TestProposal",
								"label": "proposalCreator",
								"offset": 0,
								"slot": "2",
								"type": "t_address"
							}
						],
						"numberOfBytes": "96"
					},
					"t_uint256": {
						"encoding": "inplace",
						"label": "uint256",
						"numberOfBytes": "32"
					}
				}
			},
			"userdoc": {
				"methods": {}
			}
		}
	}
}