{
	"contracts/proposal.sol": {
		"TestProposal": {
			"abi": [
				{
					"inputs": [],
					"stateMutability": "nonpayable",
					"type": "constructor"
				},
				{
					"inputs": [
						{
							"internalType": "uint256",
							"name": "_proposalId",
							"type": "uint256"
						},
						{
							"internalType": "uint256",
							"name": "_proposalStatus",
							"type": "uint256"
						},
						{
							"internalType": "address",
							"name": "_proposalCreator",
							"type": "address"
						},
						{
							"internalType": "uint256",
							"name": "_proposalNumOfOptions",
							"type": "uint256"
						}
					],
					"name": "addProposal",
					"outputs": [],
					"stateMutability": "nonpayable",
					"type": "function"
				},
				{
					"inputs": [
						{
							"internalType": "uint256",
							"name": "_proposalId",
							"type": "uint256"
						}
					],
					"name": "getProposalStructure",
					"outputs": [
						{
							"components": [
								{
									"internalType": "uint256",
									"name": "proposalId",
									"type": "uint256"
								},
								{
									"internalType": "uint256",
									"name": "proposalStatus",
									"type": "uint256"
								},
								{
									"internalType": "address",
									"name": "proposalCreator",
									"type": "address"
								},
								{
									"internalType": "uint256",
									"name": "proposalNumOfOptions",
									"type": "uint256"
								}
							],
							"internalType": "struct TestProposal.Proposal",
							"name": "",
							"type": "tuple"
						}
					],
					"stateMutability": "view",
					"type": "function"
				},
				{
					"inputs": [],
					"name": "proposalCount",
					"outputs": [
						{
							"internalType": "uint256",
							"name": "",
							"type": "uint256"
						}
					],
					"stateMutability": "view",
					"type": "function"
				},
				{
					"inputs": [
						{
							"internalType": "uint256",
							"name": "",
							"type": "uint256"
						}
					],
					"name": "proposals",
					"outputs": [
						{
							"internalType": "uint256",
							"name": "proposalId",
							"type": "uint256"
						},
						{
							"internalType": "uint256",
							"name": "proposalStatus",
							"type": "uint256"
						},
						{
							"internalType": "address",
							"name": "proposalCreator",
							"type": "address"
						},
						{
							"internalType": "uint256",
							"name": "proposalNumOfOptions",
							"type": "uint256"
						}
					],
					"stateMutability": "view",
					"type": "function"
				},
				{
					"inputs": [
						{
							"internalType": "string",
							"name": "options",
							"type": "string"
						}
					],
					"name": "smt",
					"outputs": [],
					"stateMutability": "nonpayable",
					"type": "function"
				}
			],
			"devdoc": {
				"kind": "dev",
				"methods": {},
				"version": 1
			},
			"evm": {
				"assembly": "    /* \"contracts/proposal.sol\":229:1959  contract TestProposal {\r... */\n  mstore(0x40, 0x80)\n    /* \"contracts/proposal.sol\":776:908  constructor() public {\r... */\n  callvalue\n  dup1\n  iszero\n  tag_1\n  jumpi\n  0x00\n  dup1\n  revert\ntag_1:\n  pop\n    /* \"contracts/proposal.sol\":824:825  0 */\n  0x00\n    /* \"contracts/proposal.sol\":808:821  proposalCount */\n  0x01\n    /* \"contracts/proposal.sol\":808:825  proposalCount = 0 */\n  dup2\n  swap1\n  sstore\n  pop\n    /* \"contracts/proposal.sol\":836:900  addProposal(1, 1, 0xB5dea2661dfa4b8f0aaE8Bc1F583369D927c3b06, 3) */\n  tag_4\n    /* \"contracts/proposal.sol\":848:849  1 */\n  0x01\n    /* \"contracts/proposal.sol\":851:852  1 */\n  dup1\n    /* \"contracts/proposal.sol\":854:896  0xB5dea2661dfa4b8f0aaE8Bc1F583369D927c3b06 */\n  0xb5dea2661dfa4b8f0aae8bc1f583369d927c3b06\n    /* \"contracts/proposal.sol\":898:899  3 */\n  0x03\n    /* \"contracts/proposal.sol\":836:847  addProposal */\n  shl(0x20, tag_5)\n    /* \"contracts/proposal.sol\":836:900  addProposal(1, 1, 0xB5dea2661dfa4b8f0aaE8Bc1F583369D927c3b06, 3) */\n  0x20\n  shr\n  jump\t// in\ntag_4:\n    /* \"contracts/proposal.sol\":229:1959  contract TestProposal {\r... */\n  jump(tag_6)\n    /* \"contracts/proposal.sol\":916:1189  function addProposal(uint _proposalId, uint _proposalStatus, address _proposalCreator, uint _proposalNumOfOptions) public {\r... */\ntag_5:\n    /* \"contracts/proposal.sol\":1076:1155  Proposal(_proposalId, _proposalStatus, _proposalCreator, _proposalNumOfOptions) */\n  mload(0x40)\n  dup1\n  0x80\n  add\n  0x40\n  mstore\n  dup1\n    /* \"contracts/proposal.sol\":1085:1096  _proposalId */\n  dup6\n    /* \"contracts/proposal.sol\":1076:1155  Proposal(_proposalId, _proposalStatus, _proposalCreator, _proposalNumOfOptions) */\n  dup2\n  mstore\n  0x20\n  add\n    /* \"contracts/proposal.sol\":1098:1113  _proposalStatus */\n  dup5\n    /* \"contracts/proposal.sol\":1076:1155  Proposal(_proposalId, _proposalStatus, _proposalCreator, _proposalNumOfOptions) */\n  dup2\n  mstore\n  0x20\n  add\n    /* \"contracts/proposal.sol\":1115:1131  _proposalCreator */\n  dup4\n    /* \"contracts/proposal.sol\":1076:1155  Proposal(_proposalId, _proposalStatus, _proposalCreator, _proposalNumOfOptions) */\n  0xffffffffffffffffffffffffffffffffffffffff\n  and\n  dup2\n  mstore\n  0x20\n  add\n    /* \"contracts/proposal.sol\":1133:1154  _proposalNumOfOptions */\n  dup3\n    /* \"contracts/proposal.sol\":1076:1155  Proposal(_proposalId, _proposalStatus, _proposalCreator, _proposalNumOfOptions) */\n  dup2\n  mstore\n  pop\n    /* \"contracts/proposal.sol\":1049:1058  proposals */\n  0x00\n    /* \"contracts/proposal.sol\":1049:1073  proposals[proposalCount] */\n  dup1\n    /* \"contracts/proposal.sol\":1059:1072  proposalCount */\n  sload(0x01)\n    /* \"contracts/proposal.sol\":1049:1073  proposals[proposalCount] */\n  dup2\n  mstore\n  0x20\n  add\n  swap1\n  dup2\n  mstore\n  0x20\n  add\n  0x00\n  keccak256\n    /* \"contracts/proposal.sol\":1049:1155  proposals[proposalCount] = Proposal(_proposalId, _proposalStatus, _proposalCreator, _proposalNumOfOptions) */\n  0x00\n  dup3\n  add\n  mload\n  dup2\n  0x00\n  add\n  sstore\n  0x20\n  dup3\n  add\n  mload\n  dup2\n  0x01\n  add\n  sstore\n  0x40\n  dup3\n  add\n  mload\n  dup2\n  0x02\n  add\n  exp(0x0100, 0x00)\n  dup2\n  sload\n  dup2\n  0xffffffffffffffffffffffffffffffffffffffff\n  mul\n  not\n  and\n  swap1\n  dup4\n  0xffffffffffffffffffffffffffffffffffffffff\n  and\n  mul\n  or\n  swap1\n  sstore\n  pop\n  0x60\n  dup3\n  add\n  mload\n  dup2\n  0x03\n  add\n  sstore\n  swap1\n  pop\n  pop\n    /* \"contracts/proposal.sol\":1166:1179  proposalCount */\n  0x01\n  0x00\n    /* \"contracts/proposal.sol\":1166:1181  proposalCount++ */\n  dup2\n  sload\n  dup1\n  swap3\n  swap2\n  swap1\n  tag_8\n  swap1\n  tag_9\n  jump\t// in\ntag_8:\n  swap2\n  swap1\n  pop\n  sstore\n  pop\n    /* \"contracts/proposal.sol\":916:1189  function addProposal(uint _proposalId, uint _proposalStatus, address _proposalCreator, uint _proposalNumOfOptions) public {\r... */\n  pop\n  pop\n  pop\n  pop\n  jump\t// out\n    /* \"#utility.yul\":7:84   */\ntag_11:\n  0x00\n    /* \"#utility.yul\":73:78   */\n  dup2\n    /* \"#utility.yul\":62:78   */\n  swap1\n  pop\n    /* \"#utility.yul\":52:84   */\n  swap2\n  swap1\n  pop\n  jump\t// out\n    /* \"#utility.yul\":90:323   */\ntag_9:\n  0x00\n    /* \"#utility.yul\":152:176   */\n  tag_14\n    /* \"#utility.yul\":170:175   */\n  dup3\n    /* \"#utility.yul\":152:176   */\n  tag_11\n  jump\t// in\ntag_14:\n    /* \"#utility.yul\":143:176   */\n  swap2\n  pop\n    /* \"#utility.yul\":198:264   */\n  0xffffffffffffffffffffffffffffffffffffffffffffffffffffffffffffffff\n    /* \"#utility.yul\":191:196   */\n  dup3\n    /* \"#utility.yul\":188:265   */\n  eq\n    /* \"#utility.yul\":185:187   */\n  iszero\n  tag_15\n  jumpi\n    /* \"#utility.yul\":268:286   */\n  tag_16\n  tag_17\n  jump\t// in\ntag_16:\n    /* \"#utility.yul\":185:187   */\ntag_15:\n    /* \"#utility.yul\":315:316   */\n  0x01\n    /* \"#utility.yul\":308:313   */\n  dup3\n    /* \"#utility.yul\":304:317   */\n  add\n    /* \"#utility.yul\":297:317   */\n  swap1\n  pop\n    /* \"#utility.yul\":133:323   */\n  swap2\n  swap1\n  pop\n  jump\t// out\n    /* \"#utility.yul\":329:509   */\ntag_17:\n    /* \"#utility.yul\":377:454   */\n  0x4e487b7100000000000000000000000000000000000000000000000000000000\n    /* \"#utility.yul\":374:375   */\n  0x00\n    /* \"#utility.yul\":367:455   */\n  mstore\n    /* \"#utility.yul\":474:478   */\n  0x11\n    /* \"#utility.yul\":471:472   */\n  0x04\n    /* \"#utility.yul\":464:479   */\n  mstore\n    /* \"#utility.yul\":498:502   */\n  0x24\n    /* \"#utility.yul\":495:496   */\n  0x00\n    /* \"#utility.yul\":488:503   */\n  revert\n    /* \"contracts/proposal.sol\":229:1959  contract TestProposal {\r... */\ntag_6:\n  dataSize(sub_0)\n  dup1\n  dataOffset(sub_0)\n  0x00\n  codecopy\n  0x00\n  return\nstop\n\nsub_0: assembly {\n        /* \"contracts/proposal.sol\":229:1959  contract TestProposal {\r... */\n      mstore(0x40, 0x80)\n      callvalue\n      dup1\n      iszero\n      tag_1\n      jumpi\n      0x00\n      dup1\n      revert\n    tag_1:\n      pop\n      jumpi(tag_2, lt(calldatasize, 0x04))\n      shr(0xe0, calldataload(0x00))\n      dup1\n      0x013cf08b\n      eq\n      tag_3\n      jumpi\n      dup1\n      0x96caabb8\n      eq\n      tag_4\n      jumpi\n      dup1\n      0xcae455ee\n      eq\n      tag_5\n      jumpi\n      dup1\n      0xda35c664\n      eq\n      tag_6\n      jumpi\n      dup1\n      0xe9d6c6da\n      eq\n      tag_7\n      jumpi\n    tag_2:\n      0x00\n      dup1\n      revert\n        /* \"contracts/proposal.sol\":639:682  mapping (uint => Proposal) public proposals */\n    tag_3:\n      tag_8\n      0x04\n      dup1\n      calldatasize\n      sub\n      dup2\n      add\n      swap1\n      tag_9\n      swap2\n      swap1\n      tag_10\n      jump\t// in\n    tag_9:\n      tag_11\n      jump\t// in\n    tag_8:\n      mload(0x40)\n      tag_12\n      swap5\n      swap4\n      swap3\n      swap2\n      swap1\n      tag_13\n      jump\t// in\n    tag_12:\n      mload(0x40)\n      dup1\n      swap2\n      sub\n      swap1\n      return\n        /* \"contracts/proposal.sol\":1371:1955  function smt(string memory options) public {                                               \r... */\n    tag_4:\n      tag_14\n      0x04\n      dup1\n      calldatasize\n      sub\n      dup2\n      add\n      swap1\n      tag_15\n      swap2\n      swap1\n      tag_16\n      jump\t// in\n    tag_15:\n      tag_17\n      jump\t// in\n    tag_14:\n      stop\n        /* \"contracts/proposal.sol\":916:1189  function addProposal(uint _proposalId, uint _proposalStatus, address _proposalCreator, uint _proposalNumOfOptions) public {\r... */\n    tag_5:\n      tag_18\n      0x04\n      dup1\n      calldatasize\n      sub\n      dup2\n      add\n      swap1\n      tag_19\n      swap2\n      swap1\n      tag_20\n      jump\t// in\n    tag_19:\n      tag_21\n      jump\t// in\n    tag_18:\n      stop\n        /* \"contracts/proposal.sol\":742:767  uint public proposalCount */\n    tag_6:\n      tag_22\n      tag_23\n      jump\t// in\n    tag_22:\n      mload(0x40)\n      tag_24\n      swap2\n      swap1\n      tag_25\n      jump\t// in\n    tag_24:\n      mload(0x40)\n      dup1\n      swap2\n      sub\n      swap1\n      return\n        /* \"contracts/proposal.sol\":1197:1329  function getProposalStructure(uint _proposalId) public view returns(Proposal memory){\r... */\n    tag_7:\n      tag_26\n      0x04\n      dup1\n      calldatasize\n      sub\n      dup2\n      add\n      swap1\n      tag_27\n      swap2\n      swap1\n      tag_10\n      jump\t// in\n    tag_27:\n      tag_28\n      jump\t// in\n    tag_26:\n      mload(0x40)\n      tag_29\n      swap2\n      swap1\n      tag_30\n      jump\t// in\n    tag_29:\n      mload(0x40)\n      dup1\n      swap2\n      sub\n      swap1\n      return\n        /* \"contracts/proposal.sol\":639:682  mapping (uint => Proposal) public proposals */\n    tag_11:\n      mstore(0x20, 0x00)\n      dup1\n      0x00\n      mstore\n      keccak256(0x00, 0x40)\n      0x00\n      swap2\n      pop\n      swap1\n      pop\n      dup1\n      0x00\n      add\n      sload\n      swap1\n      dup1\n      0x01\n      add\n      sload\n      swap1\n      dup1\n      0x02\n      add\n      0x00\n      swap1\n      sload\n      swap1\n      0x0100\n      exp\n      swap1\n      div\n      0xffffffffffffffffffffffffffffffffffffffff\n      and\n      swap1\n      dup1\n      0x03\n      add\n      sload\n      swap1\n      pop\n      dup5\n      jump\t// out\n        /* \"contracts/proposal.sol\":1371:1955  function smt(string memory options) public {                                               \r... */\n    tag_17:\n        /* \"contracts/proposal.sol\":1472:1494  strings.slice memory s */\n      0x00\n        /* \"contracts/proposal.sol\":1497:1526  \"This-Is-A-Problem\".toSlice() */\n      tag_32\n        /* \"contracts/proposal.sol\":1497:1524  \"This-Is-A-Problem\".toSlice */\n      mload(0x40)\n      dup1\n      0x40\n      add\n      0x40\n      mstore\n      dup1\n      0x11\n      dup2\n      mstore\n      0x20\n      add\n      0x546869732d49732d412d50726f626c656d000000000000000000000000000000\n      dup2\n      mstore\n      pop\n      tag_33\n        /* \"contracts/proposal.sol\":1497:1526  \"This-Is-A-Problem\".toSlice() */\n      jump\t// in\n    tag_32:\n        /* \"contracts/proposal.sol\":1472:1526  strings.slice memory s = \"This-Is-A-Problem\".toSlice() */\n      swap1\n      pop\n        /* \"contracts/proposal.sol\":1553:1579  strings.slice memory delim */\n      0x00\n        /* \"contracts/proposal.sol\":1582:1595  \"-\".toSlice() */\n      tag_34\n        /* \"contracts/proposal.sol\":1582:1593  \"-\".toSlice */\n      mload(0x40)\n      dup1\n      0x40\n      add\n      0x40\n      mstore\n      dup1\n      0x01\n      dup2\n      mstore\n      0x20\n      add\n      0x2d00000000000000000000000000000000000000000000000000000000000000\n      dup2\n      mstore\n      pop\n      tag_33\n        /* \"contracts/proposal.sol\":1582:1595  \"-\".toSlice() */\n      jump\t// in\n    tag_34:\n        /* \"contracts/proposal.sol\":1553:1595  strings.slice memory delim = \"-\".toSlice() */\n      swap1\n      pop\n        /* \"contracts/proposal.sol\":1634:1655  string[] memory parts */\n      0x00\n        /* \"contracts/proposal.sol\":1671:1685  s.count(delim) */\n      tag_35\n        /* \"contracts/proposal.sol\":1679:1684  delim */\n      dup3\n        /* \"contracts/proposal.sol\":1671:1672  s */\n      dup5\n        /* \"contracts/proposal.sol\":1671:1678  s.count */\n      tag_36\n      swap1\n        /* \"contracts/proposal.sol\":1671:1685  s.count(delim) */\n      swap2\n      swap1\n      0xffffffff\n      and\n      jump\t// in\n    tag_35:\n        /* \"contracts/proposal.sol\":1658:1686  new string[](s.count(delim)) */\n      0xffffffffffffffff\n      dup2\n      gt\n      iszero\n      tag_37\n      jumpi\n      mstore(0x00, 0x4e487b7100000000000000000000000000000000000000000000000000000000)\n      mstore(0x04, 0x41)\n      revert(0x00, 0x24)\n    tag_37:\n      mload(0x40)\n      swap1\n      dup1\n      dup3\n      mstore\n      dup1\n      0x20\n      mul\n      0x20\n      add\n      dup3\n      add\n      0x40\n      mstore\n      dup1\n      iszero\n      tag_38\n      jumpi\n      dup2\n      0x20\n      add\n    tag_39:\n      0x60\n      dup2\n      mstore\n      0x20\n      add\n      swap1\n      0x01\n      swap1\n      sub\n      swap1\n      dup2\n      tag_39\n      jumpi\n      swap1\n      pop\n    tag_38:\n      pop\n        /* \"contracts/proposal.sol\":1634:1686  string[] memory parts = new string[](s.count(delim)) */\n      swap1\n      pop\n        /* \"contracts/proposal.sol\":1720:1726  uint i */\n      0x00\n        /* \"contracts/proposal.sol\":1715:1878  for (uint i = 0; i < parts.length; i++) {                              \r... */\n    tag_40:\n        /* \"contracts/proposal.sol\":1736:1741  parts */\n      dup2\n        /* \"contracts/proposal.sol\":1736:1748  parts.length */\n      mload\n        /* \"contracts/proposal.sol\":1732:1733  i */\n      dup2\n        /* \"contracts/proposal.sol\":1732:1748  i < parts.length */\n      lt\n        /* \"contracts/proposal.sol\":1715:1878  for (uint i = 0; i < parts.length; i++) {                              \r... */\n      iszero\n      tag_41\n      jumpi\n        /* \"contracts/proposal.sol\":1810:1835  s.split(delim).toString() */\n      tag_43\n        /* \"contracts/proposal.sol\":1810:1824  s.split(delim) */\n      tag_44\n        /* \"contracts/proposal.sol\":1818:1823  delim */\n      dup5\n        /* \"contracts/proposal.sol\":1810:1811  s */\n      dup7\n        /* \"contracts/proposal.sol\":1810:1817  s.split */\n      tag_45\n      swap1\n        /* \"contracts/proposal.sol\":1810:1824  s.split(delim) */\n      swap2\n      swap1\n      0xffffffff\n      and\n      jump\t// in\n    tag_44:\n        /* \"contracts/proposal.sol\":1810:1833  s.split(delim).toString */\n      tag_46\n        /* \"contracts/proposal.sol\":1810:1835  s.split(delim).toString() */\n      jump\t// in\n    tag_43:\n        /* \"contracts/proposal.sol\":1799:1804  parts */\n      dup3\n        /* \"contracts/proposal.sol\":1805:1806  i */\n      dup3\n        /* \"contracts/proposal.sol\":1799:1807  parts[i] */\n      dup2\n      mload\n      dup2\n      lt\n      tag_47\n      jumpi\n      mstore(0x00, 0x4e487b7100000000000000000000000000000000000000000000000000000000)\n      mstore(0x04, 0x32)\n      revert(0x00, 0x24)\n    tag_47:\n      0x20\n      mul\n      0x20\n      add\n      add\n        /* \"contracts/proposal.sol\":1799:1835  parts[i] = s.split(delim).toString() */\n      dup2\n      swap1\n      mstore\n      pop\n        /* \"contracts/proposal.sol\":1750:1753  i++ */\n      dup1\n      dup1\n      tag_48\n      swap1\n      tag_49\n      jump\t// in\n    tag_48:\n      swap2\n      pop\n      pop\n        /* \"contracts/proposal.sol\":1715:1878  for (uint i = 0; i < parts.length; i++) {                              \r... */\n      jump(tag_40)\n    tag_41:\n      pop\n        /* \"contracts/proposal.sol\":1371:1955  function smt(string memory options) public {                                               \r... */\n      pop\n      pop\n      pop\n      pop\n      jump\t// out\n        /* \"contracts/proposal.sol\":916:1189  function addProposal(uint _proposalId, uint _proposalStatus, address _proposalCreator, uint _proposalNumOfOptions) public {\r... */\n    tag_21:\n        /* \"contracts/proposal.sol\":1076:1155  Proposal(_proposalId, _proposalStatus, _proposalCreator, _proposalNumOfOptions) */\n      mload(0x40)\n      dup1\n      0x80\n      add\n      0x40\n      mstore\n      dup1\n        /* \"contracts/proposal.sol\":1085:1096  _proposalId */\n      dup6\n        /* \"contracts/proposal.sol\":1076:1155  Proposal(_proposalId, _proposalStatus, _proposalCreator, _proposalNumOfOptions) */\n      dup2\n      mstore\n      0x20\n      add\n        /* \"contracts/proposal.sol\":1098:1113  _proposalStatus */\n      dup5\n        /* \"contracts/proposal.sol\":1076:1155  Proposal(_proposalId, _proposalStatus, _proposalCreator, _proposalNumOfOptions) */\n      dup2\n      mstore\n      0x20\n      add\n        /* \"contracts/proposal.sol\":1115:1131  _proposalCreator */\n      dup4\n        /* \"contracts/proposal.sol\":1076:1155  Proposal(_proposalId, _proposalStatus, _proposalCreator, _proposalNumOfOptions) */\n      0xffffffffffffffffffffffffffffffffffffffff\n      and\n      dup2\n      mstore\n      0x20\n      add\n        /* \"contracts/proposal.sol\":1133:1154  _proposalNumOfOptions */\n      dup3\n        /* \"contracts/proposal.sol\":1076:1155  Proposal(_proposalId, _proposalStatus, _proposalCreator, _proposalNumOfOptions) */\n      dup2\n      mstore\n      pop\n        /* \"contracts/proposal.sol\":1049:1058  proposals */\n      0x00\n        /* \"contracts/proposal.sol\":1049:1073  proposals[proposalCount] */\n      dup1\n        /* \"contracts/proposal.sol\":1059:1072  proposalCount */\n      sload(0x01)\n        /* \"contracts/proposal.sol\":1049:1073  proposals[proposalCount] */\n      dup2\n      mstore\n      0x20\n      add\n      swap1\n      dup2\n      mstore\n      0x20\n      add\n      0x00\n      keccak256\n        /* \"contracts/proposal.sol\":1049:1155  proposals[proposalCount] = Proposal(_proposalId, _proposalStatus, _proposalCreator, _proposalNumOfOptions) */\n      0x00\n      dup3\n      add\n      mload\n      dup2\n      0x00\n      add\n      sstore\n      0x20\n      dup3\n      add\n      mload\n      dup2\n      0x01\n      add\n      sstore\n      0x40\n      dup3\n      add\n      mload\n      dup2\n      0x02\n      add\n      exp(0x0100, 0x00)\n      dup2\n      sload\n      dup2\n      0xffffffffffffffffffffffffffffffffffffffff\n      mul\n      not\n      and\n      swap1\n      dup4\n      0xffffffffffffffffffffffffffffffffffffffff\n      and\n      mul\n      or\n      swap1\n      sstore\n      pop\n      0x60\n      dup3\n      add\n      mload\n      dup2\n      0x03\n      add\n      sstore\n      swap1\n      pop\n      pop\n        /* \"contracts/proposal.sol\":1166:1179  proposalCount */\n      0x01\n      0x00\n        /* \"contracts/proposal.sol\":1166:1181  proposalCount++ */\n      dup2\n      sload\n      dup1\n      swap3\n      swap2\n      swap1\n      tag_51\n      swap1\n      tag_49\n      jump\t// in\n    tag_51:\n      swap2\n      swap1\n      pop\n      sstore\n      pop\n        /* \"contracts/proposal.sol\":916:1189  function addProposal(uint _proposalId, uint _proposalStatus, address _proposalCreator, uint _proposalNumOfOptions) public {\r... */\n      pop\n      pop\n      pop\n      pop\n      jump\t// out\n        /* \"contracts/proposal.sol\":742:767  uint public proposalCount */\n    tag_23:\n      sload(0x01)\n      dup2\n      jump\t// out\n        /* \"contracts/proposal.sol\":1197:1329  function getProposalStructure(uint _proposalId) public view returns(Proposal memory){\r... */\n    tag_28:\n        /* \"contracts/proposal.sol\":1265:1280  Proposal memory */\n      tag_52\n      tag_53\n      jump\t// in\n    tag_52:\n        /* \"contracts/proposal.sol\":1299:1308  proposals */\n      0x00\n        /* \"contracts/proposal.sol\":1299:1321  proposals[_proposalId] */\n      dup1\n        /* \"contracts/proposal.sol\":1309:1320  _proposalId */\n      dup4\n        /* \"contracts/proposal.sol\":1299:1321  proposals[_proposalId] */\n      dup2\n      mstore\n      0x20\n      add\n      swap1\n      dup2\n      mstore\n      0x20\n      add\n      0x00\n      keccak256\n        /* \"contracts/proposal.sol\":1292:1321  return proposals[_proposalId] */\n      mload(0x40)\n      dup1\n      0x80\n      add\n      0x40\n      mstore\n      swap1\n      dup2\n      0x00\n      dup3\n      add\n      sload\n      dup2\n      mstore\n      0x20\n      add\n      0x01\n      dup3\n      add\n      sload\n      dup2\n      mstore\n      0x20\n      add\n      0x02\n      dup3\n      add\n      0x00\n      swap1\n      sload\n      swap1\n      0x0100\n      exp\n      swap1\n      div\n      0xffffffffffffffffffffffffffffffffffffffff\n      and\n      0xffffffffffffffffffffffffffffffffffffffff\n      and\n      0xffffffffffffffffffffffffffffffffffffffff\n      and\n      dup2\n      mstore\n      0x20\n      add\n      0x03\n      dup3\n      add\n      sload\n      dup2\n      mstore\n      pop\n      pop\n      swap1\n      pop\n        /* \"contracts/proposal.sol\":1197:1329  function getProposalStructure(uint _proposalId) public view returns(Proposal memory){\r... */\n      swap2\n      swap1\n      pop\n      jump\t// out\n        /* \"https://github.com/Arachnid/solidity-stringutils/blob/master/src/strings.sol\":2904:3114  function toSlice(string memory self) internal pure returns (slice memory) {... */\n    tag_33:\n        /* \"https://github.com/Arachnid/solidity-stringutils/blob/master/src/strings.sol\":2964:2976  slice memory */\n      tag_55\n      tag_56\n      jump\t// in\n    tag_55:\n        /* \"https://github.com/Arachnid/solidity-stringutils/blob/master/src/strings.sol\":2988:2996  uint ptr */\n      0x00\n        /* \"https://github.com/Arachnid/solidity-stringutils/blob/master/src/strings.sol\":3046:3050  0x20 */\n      0x20\n        /* \"https://github.com/Arachnid/solidity-stringutils/blob/master/src/strings.sol\":3040:3044  self */\n      dup4\n        /* \"https://github.com/Arachnid/solidity-stringutils/blob/master/src/strings.sol\":3036:3051  add(self, 0x20) */\n      add\n        /* \"https://github.com/Arachnid/solidity-stringutils/blob/master/src/strings.sol\":3029:3051  ptr := add(self, 0x20) */\n      swap1\n      pop\n        /* \"https://github.com/Arachnid/solidity-stringutils/blob/master/src/strings.sol\":3077:3107  slice(bytes(self).length, ptr) */\n      mload(0x40)\n      dup1\n      0x40\n      add\n      0x40\n      mstore\n      dup1\n        /* \"https://github.com/Arachnid/solidity-stringutils/blob/master/src/strings.sol\":3089:3093  self */\n      dup5\n        /* \"https://github.com/Arachnid/solidity-stringutils/blob/master/src/strings.sol\":3083:3101  bytes(self).length */\n      mload\n        /* \"https://github.com/Arachnid/solidity-stringutils/blob/master/src/strings.sol\":3077:3107  slice(bytes(self).length, ptr) */\n      dup2\n      mstore\n      0x20\n      add\n        /* \"https://github.com/Arachnid/solidity-stringutils/blob/master/src/strings.sol\":3103:3106  ptr */\n      dup3\n        /* \"https://github.com/Arachnid/solidity-stringutils/blob/master/src/strings.sol\":3077:3107  slice(bytes(self).length, ptr) */\n      dup2\n      mstore\n      pop\n        /* \"https://github.com/Arachnid/solidity-stringutils/blob/master/src/strings.sol\":3070:3107  return slice(bytes(self).length, ptr) */\n      swap2\n      pop\n      pop\n        /* \"https://github.com/Arachnid/solidity-stringutils/blob/master/src/strings.sol\":2904:3114  function toSlice(string memory self) internal pure returns (slice memory) {... */\n      swap2\n      swap1\n      pop\n      jump\t// out\n        /* \"https://github.com/Arachnid/solidity-stringutils/blob/master/src/strings.sol\":23194:23558  function count(slice memory self, slice memory needle) internal pure returns (uint cnt) {... */\n    tag_36:\n        /* \"https://github.com/Arachnid/solidity-stringutils/blob/master/src/strings.sol\":23272:23280  uint cnt */\n      0x00\n        /* \"https://github.com/Arachnid/solidity-stringutils/blob/master/src/strings.sol\":23292:23300  uint ptr */\n      dup1\n        /* \"https://github.com/Arachnid/solidity-stringutils/blob/master/src/strings.sol\":23361:23367  needle */\n      dup3\n        /* \"https://github.com/Arachnid/solidity-stringutils/blob/master/src/strings.sol\":23361:23372  needle._len */\n      0x00\n      add\n      mload\n        /* \"https://github.com/Arachnid/solidity-stringutils/blob/master/src/strings.sol\":23303:23358  findPtr(self._len, self._ptr, needle._len, needle._ptr) */\n      tag_59\n        /* \"https://github.com/Arachnid/solidity-stringutils/blob/master/src/strings.sol\":23311:23315  self */\n      dup6\n        /* \"https://github.com/Arachnid/solidity-stringutils/blob/master/src/strings.sol\":23311:23320  self._len */\n      0x00\n      add\n      mload\n        /* \"https://github.com/Arachnid/solidity-stringutils/blob/master/src/strings.sol\":23322:23326  self */\n      dup7\n        /* \"https://github.com/Arachnid/solidity-stringutils/blob/master/src/strings.sol\":23322:23331  self._ptr */\n      0x20\n      add\n      mload\n        /* \"https://github.com/Arachnid/solidity-stringutils/blob/master/src/strings.sol\":23333:23339  needle */\n      dup7\n        /* \"https://github.com/Arachnid/solidity-stringutils/blob/master/src/strings.sol\":23333:23344  needle._len */\n      0x00\n      add\n      mload\n        /* \"https://github.com/Arachnid/solidity-stringutils/blob/master/src/strings.sol\":23346:23352  needle */\n      dup8\n        /* \"https://github.com/Arachnid/solidity-stringutils/blob/master/src/strings.sol\":23346:23357  needle._ptr */\n      0x20\n      add\n      mload\n        /* \"https://github.com/Arachnid/solidity-stringutils/blob/master/src/strings.sol\":23303:23310  findPtr */\n      tag_60\n        /* \"https://github.com/Arachnid/solidity-stringutils/blob/master/src/strings.sol\":23303:23358  findPtr(self._len, self._ptr, needle._len, needle._ptr) */\n      jump\t// in\n    tag_59:\n        /* \"https://github.com/Arachnid/solidity-stringutils/blob/master/src/strings.sol\":23303:23372  findPtr(self._len, self._ptr, needle._len, needle._ptr) + needle._len */\n      tag_61\n      swap2\n      swap1\n      tag_62\n      jump\t// in\n    tag_61:\n        /* \"https://github.com/Arachnid/solidity-stringutils/blob/master/src/strings.sol\":23292:23372  uint ptr = findPtr(self._len, self._ptr, needle._len, needle._ptr) + needle._len */\n      swap1\n      pop\n        /* \"https://github.com/Arachnid/solidity-stringutils/blob/master/src/strings.sol\":23382:23552  while (ptr <= self._ptr + self._len) {... */\n    tag_63:\n        /* \"https://github.com/Arachnid/solidity-stringutils/blob/master/src/strings.sol\":23408:23412  self */\n      dup4\n        /* \"https://github.com/Arachnid/solidity-stringutils/blob/master/src/strings.sol\":23408:23417  self._len */\n      0x00\n      add\n      mload\n        /* \"https://github.com/Arachnid/solidity-stringutils/blob/master/src/strings.sol\":23396:23400  self */\n      dup5\n        /* \"https://github.com/Arachnid/solidity-stringutils/blob/master/src/strings.sol\":23396:23405  self._ptr */\n      0x20\n      add\n      mload\n        /* \"https://github.com/Arachnid/solidity-stringutils/blob/master/src/strings.sol\":23396:23417  self._ptr + self._len */\n      tag_65\n      swap2\n      swap1\n      tag_62\n      jump\t// in\n    tag_65:\n        /* \"https://github.com/Arachnid/solidity-stringutils/blob/master/src/strings.sol\":23389:23392  ptr */\n      dup2\n        /* \"https://github.com/Arachnid/solidity-stringutils/blob/master/src/strings.sol\":23389:23417  ptr <= self._ptr + self._len */\n      gt\n        /* \"https://github.com/Arachnid/solidity-stringutils/blob/master/src/strings.sol\":23382:23552  while (ptr <= self._ptr + self._len) {... */\n      tag_64\n      jumpi\n        /* \"https://github.com/Arachnid/solidity-stringutils/blob/master/src/strings.sol\":23433:23438  cnt++ */\n      dup2\n      dup1\n      tag_66\n      swap1\n      tag_49\n      jump\t// in\n    tag_66:\n      swap3\n      pop\n      pop\n        /* \"https://github.com/Arachnid/solidity-stringutils/blob/master/src/strings.sol\":23530:23536  needle */\n      dup3\n        /* \"https://github.com/Arachnid/solidity-stringutils/blob/master/src/strings.sol\":23530:23541  needle._len */\n      0x00\n      add\n      mload\n        /* \"https://github.com/Arachnid/solidity-stringutils/blob/master/src/strings.sol\":23458:23527  findPtr(self._len - (ptr - self._ptr), ptr, needle._len, needle._ptr) */\n      tag_67\n        /* \"https://github.com/Arachnid/solidity-stringutils/blob/master/src/strings.sol\":23485:23489  self */\n      dup6\n        /* \"https://github.com/Arachnid/solidity-stringutils/blob/master/src/strings.sol\":23485:23494  self._ptr */\n      0x20\n      add\n      mload\n        /* \"https://github.com/Arachnid/solidity-stringutils/blob/master/src/strings.sol\":23479:23482  ptr */\n      dup4\n        /* \"https://github.com/Arachnid/solidity-stringutils/blob/master/src/strings.sol\":23479:23494  ptr - self._ptr */\n      tag_68\n      swap2\n      swap1\n      tag_69\n      jump\t// in\n    tag_68:\n        /* \"https://github.com/Arachnid/solidity-stringutils/blob/master/src/strings.sol\":23466:23470  self */\n      dup7\n        /* \"https://github.com/Arachnid/solidity-stringutils/blob/master/src/strings.sol\":23466:23475  self._len */\n      0x00\n      add\n      mload\n        /* \"https://github.com/Arachnid/solidity-stringutils/blob/master/src/strings.sol\":23466:23495  self._len - (ptr - self._ptr) */\n      tag_70\n      swap2\n      swap1\n      tag_69\n      jump\t// in\n    tag_70:\n        /* \"https://github.com/Arachnid/solidity-stringutils/blob/master/src/strings.sol\":23497:23500  ptr */\n      dup4\n        /* \"https://github.com/Arachnid/solidity-stringutils/blob/master/src/strings.sol\":23502:23508  needle */\n      dup7\n        /* \"https://github.com/Arachnid/solidity-stringutils/blob/master/src/strings.sol\":23502:23513  needle._len */\n      0x00\n      add\n      mload\n        /* \"https://github.com/Arachnid/solidity-stringutils/blob/master/src/strings.sol\":23515:23521  needle */\n      dup8\n        /* \"https://github.com/Arachnid/solidity-stringutils/blob/master/src/strings.sol\":23515:23526  needle._ptr */\n      0x20\n      add\n      mload\n        /* \"https://github.com/Arachnid/solidity-stringutils/blob/master/src/strings.sol\":23458:23465  findPtr */\n      tag_60\n        /* \"https://github.com/Arachnid/solidity-stringutils/blob/master/src/strings.sol\":23458:23527  findPtr(self._len - (ptr - self._ptr), ptr, needle._len, needle._ptr) */\n      jump\t// in\n    tag_67:\n        /* \"https://github.com/Arachnid/solidity-stringutils/blob/master/src/strings.sol\":23458:23541  findPtr(self._len - (ptr - self._ptr), ptr, needle._len, needle._ptr) + needle._len */\n      tag_71\n      swap2\n      swap1\n      tag_62\n      jump\t// in\n    tag_71:\n        /* \"https://github.com/Arachnid/solidity-stringutils/blob/master/src/strings.sol\":23452:23541  ptr = findPtr(self._len - (ptr - self._ptr), ptr, needle._len, needle._ptr) + needle._len */\n      swap1\n      pop\n        /* \"https://github.com/Arachnid/solidity-stringutils/blob/master/src/strings.sol\":23382:23552  while (ptr <= self._ptr + self._len) {... */\n      jump(tag_63)\n    tag_64:\n        /* \"https://github.com/Arachnid/solidity-stringutils/blob/master/src/strings.sol\":23194:23558  function count(slice memory self, slice memory needle) internal pure returns (uint cnt) {... */\n      pop\n      swap3\n      swap2\n      pop\n      pop\n      jump\t// out\n        /* \"https://github.com/Arachnid/solidity-stringutils/blob/master/src/strings.sol\":21208:21349  function split(slice memory self, slice memory needle) internal pure returns (slice memory token) {... */\n    tag_45:\n        /* \"https://github.com/Arachnid/solidity-stringutils/blob/master/src/strings.sol\":21286:21304  slice memory token */\n      tag_72\n      tag_56\n      jump\t// in\n    tag_72:\n        /* \"https://github.com/Arachnid/solidity-stringutils/blob/master/src/strings.sol\":21316:21342  split(self, needle, token) */\n      tag_74\n        /* \"https://github.com/Arachnid/solidity-stringutils/blob/master/src/strings.sol\":21322:21326  self */\n      dup4\n        /* \"https://github.com/Arachnid/solidity-stringutils/blob/master/src/strings.sol\":21328:21334  needle */\n      dup4\n        /* \"https://github.com/Arachnid/solidity-stringutils/blob/master/src/strings.sol\":21336:21341  token */\n      dup4\n        /* \"https://github.com/Arachnid/solidity-stringutils/blob/master/src/strings.sol\":21316:21321  split */\n      tag_75\n        /* \"https://github.com/Arachnid/solidity-stringutils/blob/master/src/strings.sol\":21316:21342  split(self, needle, token) */\n      jump\t// in\n    tag_74:\n      pop\n        /* \"https://github.com/Arachnid/solidity-stringutils/blob/master/src/strings.sol\":21208:21349  function split(slice memory self, slice memory needle) internal pure returns (slice memory token) {... */\n      swap3\n      swap2\n      pop\n      pop\n      jump\t// out\n        /* \"https://github.com/Arachnid/solidity-stringutils/blob/master/src/strings.sol\":5286:5551  function toString(slice memory self) internal pure returns (string memory) {... */\n    tag_46:\n        /* \"https://github.com/Arachnid/solidity-stringutils/blob/master/src/strings.sol\":5346:5359  string memory */\n      0x60\n        /* \"https://github.com/Arachnid/solidity-stringutils/blob/master/src/strings.sol\":5371:5388  string memory ret */\n      0x00\n        /* \"https://github.com/Arachnid/solidity-stringutils/blob/master/src/strings.sol\":5402:5406  self */\n      dup3\n        /* \"https://github.com/Arachnid/solidity-stringutils/blob/master/src/strings.sol\":5402:5411  self._len */\n      0x00\n      add\n      mload\n        /* \"https://github.com/Arachnid/solidity-stringutils/blob/master/src/strings.sol\":5391:5412  new string(self._len) */\n      0xffffffffffffffff\n      dup2\n      gt\n      iszero\n      tag_77\n      jumpi\n      mstore(0x00, 0x4e487b7100000000000000000000000000000000000000000000000000000000)\n      mstore(0x04, 0x41)\n      revert(0x00, 0x24)\n    tag_77:\n      mload(0x40)\n      swap1\n      dup1\n      dup3\n      mstore\n      dup1\n      0x1f\n      add\n      not(0x1f)\n      and\n      0x20\n      add\n      dup3\n      add\n      0x40\n      mstore\n      dup1\n      iszero\n      tag_78\n      jumpi\n      dup2\n      0x20\n      add\n      0x01\n      dup3\n      mul\n      dup1\n      calldatasize\n      dup4\n      calldatacopy\n      dup1\n      dup3\n      add\n      swap2\n      pop\n      pop\n      swap1\n      pop\n    tag_78:\n      pop\n        /* \"https://github.com/Arachnid/solidity-stringutils/blob/master/src/strings.sol\":5371:5412  string memory ret = new string(self._len) */\n      swap1\n      pop\n        /* \"https://github.com/Arachnid/solidity-stringutils/blob/master/src/strings.sol\":5422:5433  uint retptr */\n      0x00\n        /* \"https://github.com/Arachnid/solidity-stringutils/blob/master/src/strings.sol\":5473:5475  32 */\n      0x20\n        /* \"https://github.com/Arachnid/solidity-stringutils/blob/master/src/strings.sol\":5468:5471  ret */\n      dup3\n        /* \"https://github.com/Arachnid/solidity-stringutils/blob/master/src/strings.sol\":5464:5476  add(ret, 32) */\n      add\n        /* \"https://github.com/Arachnid/solidity-stringutils/blob/master/src/strings.sol\":5454:5476  retptr := add(ret, 32) */\n      swap1\n      pop\n        /* \"https://github.com/Arachnid/solidity-stringutils/blob/master/src/strings.sol\":5488:5524  memcpy(retptr, self._ptr, self._len) */\n      tag_79\n        /* \"https://github.com/Arachnid/solidity-stringutils/blob/master/src/strings.sol\":5495:5501  retptr */\n      dup2\n        /* \"https://github.com/Arachnid/solidity-stringutils/blob/master/src/strings.sol\":5503:5507  self */\n      dup6\n        /* \"https://github.com/Arachnid/solidity-stringutils/blob/master/src/strings.sol\":5503:5512  self._ptr */\n      0x20\n      add\n      mload\n        /* \"https://github.com/Arachnid/solidity-stringutils/blob/master/src/strings.sol\":5514:5518  self */\n      dup7\n        /* \"https://github.com/Arachnid/solidity-stringutils/blob/master/src/strings.sol\":5514:5523  self._len */\n      0x00\n      add\n      mload\n        /* \"https://github.com/Arachnid/solidity-stringutils/blob/master/src/strings.sol\":5488:5494  memcpy */\n      tag_80\n        /* \"https://github.com/Arachnid/solidity-stringutils/blob/master/src/strings.sol\":5488:5524  memcpy(retptr, self._ptr, self._len) */\n      jump\t// in\n    tag_79:\n        /* \"https://github.com/Arachnid/solidity-stringutils/blob/master/src/strings.sol\":5541:5544  ret */\n      dup2\n        /* \"https://github.com/Arachnid/solidity-stringutils/blob/master/src/strings.sol\":5534:5544  return ret */\n      swap3\n      pop\n      pop\n      pop\n        /* \"https://github.com/Arachnid/solidity-stringutils/blob/master/src/strings.sol\":5286:5551  function toString(slice memory self) internal pure returns (string memory) {... */\n      swap2\n      swap1\n      pop\n      jump\t// out\n        /* \"https://github.com/Arachnid/solidity-stringutils/blob/master/src/strings.sol\":15477:16930  function findPtr(uint selflen, uint selfptr, uint needlelen, uint needleptr) private pure returns (uint) {... */\n    tag_60:\n        /* \"https://github.com/Arachnid/solidity-stringutils/blob/master/src/strings.sol\":15576:15580  uint */\n      0x00\n        /* \"https://github.com/Arachnid/solidity-stringutils/blob/master/src/strings.sol\":15592:15600  uint ptr */\n      dup1\n        /* \"https://github.com/Arachnid/solidity-stringutils/blob/master/src/strings.sol\":15603:15610  selfptr */\n      dup5\n        /* \"https://github.com/Arachnid/solidity-stringutils/blob/master/src/strings.sol\":15592:15610  uint ptr = selfptr */\n      swap1\n      pop\n        /* \"https://github.com/Arachnid/solidity-stringutils/blob/master/src/strings.sol\":15620:15628  uint idx */\n      0x00\n        /* \"https://github.com/Arachnid/solidity-stringutils/blob/master/src/strings.sol\":15656:15663  selflen */\n      dup7\n        /* \"https://github.com/Arachnid/solidity-stringutils/blob/master/src/strings.sol\":15643:15652  needlelen */\n      dup6\n        /* \"https://github.com/Arachnid/solidity-stringutils/blob/master/src/strings.sol\":15643:15663  needlelen <= selflen */\n      gt\n        /* \"https://github.com/Arachnid/solidity-stringutils/blob/master/src/strings.sol\":15639:16890  if (needlelen <= selflen) {... */\n      tag_82\n      jumpi\n        /* \"https://github.com/Arachnid/solidity-stringutils/blob/master/src/strings.sol\":15696:15698  32 */\n      0x20\n        /* \"https://github.com/Arachnid/solidity-stringutils/blob/master/src/strings.sol\":15683:15692  needlelen */\n      dup6\n        /* \"https://github.com/Arachnid/solidity-stringutils/blob/master/src/strings.sol\":15683:15698  needlelen <= 32 */\n      gt\n        /* \"https://github.com/Arachnid/solidity-stringutils/blob/master/src/strings.sol\":15679:16880  if (needlelen <= 32) {... */\n      tag_83\n      jumpi\n        /* \"https://github.com/Arachnid/solidity-stringutils/blob/master/src/strings.sol\":15718:15730  bytes32 mask */\n      0x00\n        /* \"https://github.com/Arachnid/solidity-stringutils/blob/master/src/strings.sol\":15764:15765  0 */\n      dup1\n        /* \"https://github.com/Arachnid/solidity-stringutils/blob/master/src/strings.sol\":15752:15761  needlelen */\n      dup7\n        /* \"https://github.com/Arachnid/solidity-stringutils/blob/master/src/strings.sol\":15752:15765  needlelen > 0 */\n      gt\n        /* \"https://github.com/Arachnid/solidity-stringutils/blob/master/src/strings.sol\":15748:15858  if (needlelen > 0) {... */\n      iszero\n      tag_84\n      jumpi\n        /* \"https://github.com/Arachnid/solidity-stringutils/blob/master/src/strings.sol\":15836:15837  1 */\n      0x01\n        /* \"https://github.com/Arachnid/solidity-stringutils/blob/master/src/strings.sol\":15822:15831  needlelen */\n      dup7\n        /* \"https://github.com/Arachnid/solidity-stringutils/blob/master/src/strings.sol\":15817:15819  32 */\n      0x20\n        /* \"https://github.com/Arachnid/solidity-stringutils/blob/master/src/strings.sol\":15817:15831  32 - needlelen */\n      tag_85\n      swap2\n      swap1\n      tag_69\n      jump\t// in\n    tag_85:\n        /* \"https://github.com/Arachnid/solidity-stringutils/blob/master/src/strings.sol\":15812:15813  8 */\n      0x08\n        /* \"https://github.com/Arachnid/solidity-stringutils/blob/master/src/strings.sol\":15812:15832  8 * (32 - needlelen) */\n      tag_86\n      swap2\n      swap1\n      tag_87\n      jump\t// in\n    tag_86:\n        /* \"https://github.com/Arachnid/solidity-stringutils/blob/master/src/strings.sol\":15806:15807  2 */\n      0x02\n        /* \"https://github.com/Arachnid/solidity-stringutils/blob/master/src/strings.sol\":15806:15833  2 ** (8 * (32 - needlelen)) */\n      tag_88\n      swap2\n      swap1\n      tag_89\n      jump\t// in\n    tag_88:\n        /* \"https://github.com/Arachnid/solidity-stringutils/blob/master/src/strings.sol\":15806:15837  2 ** (8 * (32 - needlelen)) - 1 */\n      tag_90\n      swap2\n      swap1\n      tag_69\n      jump\t// in\n    tag_90:\n        /* \"https://github.com/Arachnid/solidity-stringutils/blob/master/src/strings.sol\":15804:15838  ~(2 ** (8 * (32 - needlelen)) - 1) */\n      not\n        /* \"https://github.com/Arachnid/solidity-stringutils/blob/master/src/strings.sol\":15796:15839  bytes32(~(2 ** (8 * (32 - needlelen)) - 1)) */\n      0x00\n      shl\n        /* \"https://github.com/Arachnid/solidity-stringutils/blob/master/src/strings.sol\":15789:15839  mask = bytes32(~(2 ** (8 * (32 - needlelen)) - 1)) */\n      swap1\n      pop\n        /* \"https://github.com/Arachnid/solidity-stringutils/blob/master/src/strings.sol\":15748:15858  if (needlelen > 0) {... */\n    tag_84:\n        /* \"https://github.com/Arachnid/solidity-stringutils/blob/master/src/strings.sol\":15876:15894  bytes32 needledata */\n      0x00\n        /* \"https://github.com/Arachnid/solidity-stringutils/blob/master/src/strings.sol\":15959:15963  mask */\n      dup2\n        /* \"https://github.com/Arachnid/solidity-stringutils/blob/master/src/strings.sol\":15947:15956  needleptr */\n      dup7\n        /* \"https://github.com/Arachnid/solidity-stringutils/blob/master/src/strings.sol\":15941:15957  mload(needleptr) */\n      mload\n        /* \"https://github.com/Arachnid/solidity-stringutils/blob/master/src/strings.sol\":15937:15964  and(mload(needleptr), mask) */\n      and\n        /* \"https://github.com/Arachnid/solidity-stringutils/blob/master/src/strings.sol\":15923:15964  needledata := and(mload(needleptr), mask) */\n      swap1\n      pop\n        /* \"https://github.com/Arachnid/solidity-stringutils/blob/master/src/strings.sol\":15984:15992  uint end */\n      0x00\n        /* \"https://github.com/Arachnid/solidity-stringutils/blob/master/src/strings.sol\":16015:16024  needlelen */\n      dup8\n        /* \"https://github.com/Arachnid/solidity-stringutils/blob/master/src/strings.sol\":16005:16012  selflen */\n      dup11\n        /* \"https://github.com/Arachnid/solidity-stringutils/blob/master/src/strings.sol\":15995:16002  selfptr */\n      dup11\n        /* \"https://github.com/Arachnid/solidity-stringutils/blob/master/src/strings.sol\":15995:16012  selfptr + selflen */\n      tag_91\n      swap2\n      swap1\n      tag_62\n      jump\t// in\n    tag_91:\n        /* \"https://github.com/Arachnid/solidity-stringutils/blob/master/src/strings.sol\":15995:16024  selfptr + selflen - needlelen */\n      tag_92\n      swap2\n      swap1\n      tag_69\n      jump\t// in\n    tag_92:\n        /* \"https://github.com/Arachnid/solidity-stringutils/blob/master/src/strings.sol\":15984:16024  uint end = selfptr + selflen - needlelen */\n      swap1\n      pop\n        /* \"https://github.com/Arachnid/solidity-stringutils/blob/master/src/strings.sol\":16042:16057  bytes32 ptrdata */\n      0x00\n        /* \"https://github.com/Arachnid/solidity-stringutils/blob/master/src/strings.sol\":16113:16117  mask */\n      dup4\n        /* \"https://github.com/Arachnid/solidity-stringutils/blob/master/src/strings.sol\":16107:16110  ptr */\n      dup7\n        /* \"https://github.com/Arachnid/solidity-stringutils/blob/master/src/strings.sol\":16101:16111  mload(ptr) */\n      mload\n        /* \"https://github.com/Arachnid/solidity-stringutils/blob/master/src/strings.sol\":16097:16118  and(mload(ptr), mask) */\n      and\n        /* \"https://github.com/Arachnid/solidity-stringutils/blob/master/src/strings.sol\":16086:16118  ptrdata := and(mload(ptr), mask) */\n      swap1\n      pop\n        /* \"https://github.com/Arachnid/solidity-stringutils/blob/master/src/strings.sol\":16138:16366  while (ptrdata != needledata) {... */\n    tag_93:\n        /* \"https://github.com/Arachnid/solidity-stringutils/blob/master/src/strings.sol\":16156:16166  needledata */\n      dup3\n        /* \"https://github.com/Arachnid/solidity-stringutils/blob/master/src/strings.sol\":16145:16152  ptrdata */\n      dup2\n        /* \"https://github.com/Arachnid/solidity-stringutils/blob/master/src/strings.sol\":16145:16166  ptrdata != needledata */\n      eq\n        /* \"https://github.com/Arachnid/solidity-stringutils/blob/master/src/strings.sol\":16138:16366  while (ptrdata != needledata) {... */\n      tag_94\n      jumpi\n        /* \"https://github.com/Arachnid/solidity-stringutils/blob/master/src/strings.sol\":16201:16204  end */\n      dup2\n        /* \"https://github.com/Arachnid/solidity-stringutils/blob/master/src/strings.sol\":16194:16197  ptr */\n      dup7\n        /* \"https://github.com/Arachnid/solidity-stringutils/blob/master/src/strings.sol\":16194:16204  ptr >= end */\n      lt\n        /* \"https://github.com/Arachnid/solidity-stringutils/blob/master/src/strings.sol\":16190:16254  if (ptr >= end)... */\n      tag_95\n      jumpi\n        /* \"https://github.com/Arachnid/solidity-stringutils/blob/master/src/strings.sol\":16247:16254  selflen */\n      dup11\n        /* \"https://github.com/Arachnid/solidity-stringutils/blob/master/src/strings.sol\":16237:16244  selfptr */\n      dup11\n        /* \"https://github.com/Arachnid/solidity-stringutils/blob/master/src/strings.sol\":16237:16254  selfptr + selflen */\n      tag_96\n      swap2\n      swap1\n      tag_62\n      jump\t// in\n    tag_96:\n        /* \"https://github.com/Arachnid/solidity-stringutils/blob/master/src/strings.sol\":16230:16254  return selfptr + selflen */\n      swap7\n      pop\n      pop\n      pop\n      pop\n      pop\n      pop\n      pop\n      jump(tag_81)\n        /* \"https://github.com/Arachnid/solidity-stringutils/blob/master/src/strings.sol\":16190:16254  if (ptr >= end)... */\n    tag_95:\n        /* \"https://github.com/Arachnid/solidity-stringutils/blob/master/src/strings.sol\":16276:16281  ptr++ */\n      dup6\n      dup1\n      tag_97\n      swap1\n      tag_49\n      jump\t// in\n    tag_97:\n      swap7\n      pop\n      pop\n        /* \"https://github.com/Arachnid/solidity-stringutils/blob/master/src/strings.sol\":16341:16345  mask */\n      dup4\n        /* \"https://github.com/Arachnid/solidity-stringutils/blob/master/src/strings.sol\":16335:16338  ptr */\n      dup7\n        /* \"https://github.com/Arachnid/solidity-stringutils/blob/master/src/strings.sol\":16329:16339  mload(ptr) */\n      mload\n        /* \"https://github.com/Arachnid/solidity-stringutils/blob/master/src/strings.sol\":16325:16346  and(mload(ptr), mask) */\n      and\n        /* \"https://github.com/Arachnid/solidity-stringutils/blob/master/src/strings.sol\":16314:16346  ptrdata := and(mload(ptr), mask) */\n      swap1\n      pop\n        /* \"https://github.com/Arachnid/solidity-stringutils/blob/master/src/strings.sol\":16312:16348  { ptrdata := and(mload(ptr), mask) } */\n      jump(tag_93)\n    tag_94:\n        /* \"https://github.com/Arachnid/solidity-stringutils/blob/master/src/strings.sol\":16390:16393  ptr */\n      dup6\n        /* \"https://github.com/Arachnid/solidity-stringutils/blob/master/src/strings.sol\":16383:16393  return ptr */\n      swap7\n      pop\n      pop\n      pop\n      pop\n      pop\n      pop\n      pop\n      jump(tag_81)\n        /* \"https://github.com/Arachnid/solidity-stringutils/blob/master/src/strings.sol\":15679:16880  if (needlelen <= 32) {... */\n    tag_83:\n        /* \"https://github.com/Arachnid/solidity-stringutils/blob/master/src/strings.sol\":16481:16493  bytes32 hash */\n      0x00\n        /* \"https://github.com/Arachnid/solidity-stringutils/blob/master/src/strings.sol\":16551:16560  needlelen */\n      dup6\n        /* \"https://github.com/Arachnid/solidity-stringutils/blob/master/src/strings.sol\":16540:16549  needleptr */\n      dup6\n        /* \"https://github.com/Arachnid/solidity-stringutils/blob/master/src/strings.sol\":16530:16561  keccak256(needleptr, needlelen) */\n      keccak256\n        /* \"https://github.com/Arachnid/solidity-stringutils/blob/master/src/strings.sol\":16522:16561  hash := keccak256(needleptr, needlelen) */\n      swap1\n      pop\n        /* \"https://github.com/Arachnid/solidity-stringutils/blob/master/src/strings.sol\":16592:16593  0 */\n      0x00\n        /* \"https://github.com/Arachnid/solidity-stringutils/blob/master/src/strings.sol\":16586:16593  idx = 0 */\n      swap2\n      pop\n        /* \"https://github.com/Arachnid/solidity-stringutils/blob/master/src/strings.sol\":16581:16866  for (idx = 0; idx <= selflen - needlelen; idx++) {... */\n    tag_99:\n        /* \"https://github.com/Arachnid/solidity-stringutils/blob/master/src/strings.sol\":16612:16621  needlelen */\n      dup6\n        /* \"https://github.com/Arachnid/solidity-stringutils/blob/master/src/strings.sol\":16602:16609  selflen */\n      dup9\n        /* \"https://github.com/Arachnid/solidity-stringutils/blob/master/src/strings.sol\":16602:16621  selflen - needlelen */\n      tag_102\n      swap2\n      swap1\n      tag_69\n      jump\t// in\n    tag_102:\n        /* \"https://github.com/Arachnid/solidity-stringutils/blob/master/src/strings.sol\":16595:16598  idx */\n      dup3\n        /* \"https://github.com/Arachnid/solidity-stringutils/blob/master/src/strings.sol\":16595:16621  idx <= selflen - needlelen */\n      gt\n        /* \"https://github.com/Arachnid/solidity-stringutils/blob/master/src/strings.sol\":16581:16866  for (idx = 0; idx <= selflen - needlelen; idx++) {... */\n      tag_100\n      jumpi\n        /* \"https://github.com/Arachnid/solidity-stringutils/blob/master/src/strings.sol\":16652:16668  bytes32 testHash */\n      0x00\n        /* \"https://github.com/Arachnid/solidity-stringutils/blob/master/src/strings.sol\":16728:16737  needlelen */\n      dup7\n        /* \"https://github.com/Arachnid/solidity-stringutils/blob/master/src/strings.sol\":16723:16726  ptr */\n      dup5\n        /* \"https://github.com/Arachnid/solidity-stringutils/blob/master/src/strings.sol\":16713:16738  keccak256(ptr, needlelen) */\n      keccak256\n        /* \"https://github.com/Arachnid/solidity-stringutils/blob/master/src/strings.sol\":16701:16738  testHash := keccak256(ptr, needlelen) */\n      swap1\n      pop\n        /* \"https://github.com/Arachnid/solidity-stringutils/blob/master/src/strings.sol\":16773:16781  testHash */\n      dup1\n        /* \"https://github.com/Arachnid/solidity-stringutils/blob/master/src/strings.sol\":16765:16769  hash */\n      dup3\n        /* \"https://github.com/Arachnid/solidity-stringutils/blob/master/src/strings.sol\":16765:16781  hash == testHash */\n      eq\n        /* \"https://github.com/Arachnid/solidity-stringutils/blob/master/src/strings.sol\":16761:16817  if (hash == testHash)... */\n      iszero\n      tag_103\n      jumpi\n        /* \"https://github.com/Arachnid/solidity-stringutils/blob/master/src/strings.sol\":16814:16817  ptr */\n      dup4\n        /* \"https://github.com/Arachnid/solidity-stringutils/blob/master/src/strings.sol\":16807:16817  return ptr */\n      swap5\n      pop\n      pop\n      pop\n      pop\n      pop\n      jump(tag_81)\n        /* \"https://github.com/Arachnid/solidity-stringutils/blob/master/src/strings.sol\":16761:16817  if (hash == testHash)... */\n    tag_103:\n        /* \"https://github.com/Arachnid/solidity-stringutils/blob/master/src/strings.sol\":16846:16847  1 */\n      0x01\n        /* \"https://github.com/Arachnid/solidity-stringutils/blob/master/src/strings.sol\":16839:16847  ptr += 1 */\n      dup5\n      tag_104\n      swap2\n      swap1\n      tag_62\n      jump\t// in\n    tag_104:\n      swap4\n      pop\n        /* \"https://github.com/Arachnid/solidity-stringutils/blob/master/src/strings.sol\":16581:16866  for (idx = 0; idx <= selflen - needlelen; idx++) {... */\n      pop\n        /* \"https://github.com/Arachnid/solidity-stringutils/blob/master/src/strings.sol\":16623:16628  idx++ */\n      dup2\n      dup1\n      tag_105\n      swap1\n      tag_49\n      jump\t// in\n    tag_105:\n      swap3\n      pop\n      pop\n        /* \"https://github.com/Arachnid/solidity-stringutils/blob/master/src/strings.sol\":16581:16866  for (idx = 0; idx <= selflen - needlelen; idx++) {... */\n      jump(tag_99)\n    tag_100:\n        /* \"https://github.com/Arachnid/solidity-stringutils/blob/master/src/strings.sol\":15679:16880  if (needlelen <= 32) {... */\n      pop\n        /* \"https://github.com/Arachnid/solidity-stringutils/blob/master/src/strings.sol\":15639:16890  if (needlelen <= selflen) {... */\n    tag_82:\n        /* \"https://github.com/Arachnid/solidity-stringutils/blob/master/src/strings.sol\":16916:16923  selflen */\n      dup7\n        /* \"https://github.com/Arachnid/solidity-stringutils/blob/master/src/strings.sol\":16906:16913  selfptr */\n      dup7\n        /* \"https://github.com/Arachnid/solidity-stringutils/blob/master/src/strings.sol\":16906:16923  selfptr + selflen */\n      tag_106\n      swap2\n      swap1\n      tag_62\n      jump\t// in\n    tag_106:\n        /* \"https://github.com/Arachnid/solidity-stringutils/blob/master/src/strings.sol\":16899:16923  return selfptr + selflen */\n      swap3\n      pop\n      pop\n      pop\n        /* \"https://github.com/Arachnid/solidity-stringutils/blob/master/src/strings.sol\":15477:16930  function findPtr(uint selflen, uint selfptr, uint needlelen, uint needleptr) private pure returns (uint) {... */\n    tag_81:\n      swap5\n      swap4\n      pop\n      pop\n      pop\n      pop\n      jump\t// out\n        /* \"https://github.com/Arachnid/solidity-stringutils/blob/master/src/strings.sol\":20233:20737  function split(slice memory self, slice memory needle, slice memory token) internal pure returns (slice memory) {... */\n    tag_75:\n        /* \"https://github.com/Arachnid/solidity-stringutils/blob/master/src/strings.sol\":20331:20343  slice memory */\n      tag_107\n      tag_56\n      jump\t// in\n    tag_107:\n        /* \"https://github.com/Arachnid/solidity-stringutils/blob/master/src/strings.sol\":20355:20363  uint ptr */\n      0x00\n        /* \"https://github.com/Arachnid/solidity-stringutils/blob/master/src/strings.sol\":20366:20421  findPtr(self._len, self._ptr, needle._len, needle._ptr) */\n      tag_109\n        /* \"https://github.com/Arachnid/solidity-stringutils/blob/master/src/strings.sol\":20374:20378  self */\n      dup6\n        /* \"https://github.com/Arachnid/solidity-stringutils/blob/master/src/strings.sol\":20374:20383  self._len */\n      0x00\n      add\n      mload\n        /* \"https://github.com/Arachnid/solidity-stringutils/blob/master/src/strings.sol\":20385:20389  self */\n      dup7\n        /* \"https://github.com/Arachnid/solidity-stringutils/blob/master/src/strings.sol\":20385:20394  self._ptr */\n      0x20\n      add\n      mload\n        /* \"https://github.com/Arachnid/solidity-stringutils/blob/master/src/strings.sol\":20396:20402  needle */\n      dup7\n        /* \"https://github.com/Arachnid/solidity-stringutils/blob/master/src/strings.sol\":20396:20407  needle._len */\n      0x00\n      add\n      mload\n        /* \"https://github.com/Arachnid/solidity-stringutils/blob/master/src/strings.sol\":20409:20415  needle */\n      dup8\n        /* \"https://github.com/Arachnid/solidity-stringutils/blob/master/src/strings.sol\":20409:20420  needle._ptr */\n      0x20\n      add\n      mload\n        /* \"https://github.com/Arachnid/solidity-stringutils/blob/master/src/strings.sol\":20366:20373  findPtr */\n      tag_60\n        /* \"https://github.com/Arachnid/solidity-stringutils/blob/master/src/strings.sol\":20366:20421  findPtr(self._len, self._ptr, needle._len, needle._ptr) */\n      jump\t// in\n    tag_109:\n        /* \"https://github.com/Arachnid/solidity-stringutils/blob/master/src/strings.sol\":20355:20421  uint ptr = findPtr(self._len, self._ptr, needle._len, needle._ptr) */\n      swap1\n      pop\n        /* \"https://github.com/Arachnid/solidity-stringutils/blob/master/src/strings.sol\":20444:20448  self */\n      dup5\n        /* \"https://github.com/Arachnid/solidity-stringutils/blob/master/src/strings.sol\":20444:20453  self._ptr */\n      0x20\n      add\n      mload\n        /* \"https://github.com/Arachnid/solidity-stringutils/blob/master/src/strings.sol\":20431:20436  token */\n      dup4\n        /* \"https://github.com/Arachnid/solidity-stringutils/blob/master/src/strings.sol\":20431:20441  token._ptr */\n      0x20\n      add\n        /* \"https://github.com/Arachnid/solidity-stringutils/blob/master/src/strings.sol\":20431:20453  token._ptr = self._ptr */\n      dup2\n      dup2\n      mstore\n      pop\n      pop\n        /* \"https://github.com/Arachnid/solidity-stringutils/blob/master/src/strings.sol\":20482:20486  self */\n      dup5\n        /* \"https://github.com/Arachnid/solidity-stringutils/blob/master/src/strings.sol\":20482:20491  self._ptr */\n      0x20\n      add\n      mload\n        /* \"https://github.com/Arachnid/solidity-stringutils/blob/master/src/strings.sol\":20476:20479  ptr */\n      dup2\n        /* \"https://github.com/Arachnid/solidity-stringutils/blob/master/src/strings.sol\":20476:20491  ptr - self._ptr */\n      tag_110\n      swap2\n      swap1\n      tag_69\n      jump\t// in\n    tag_110:\n        /* \"https://github.com/Arachnid/solidity-stringutils/blob/master/src/strings.sol\":20463:20468  token */\n      dup4\n        /* \"https://github.com/Arachnid/solidity-stringutils/blob/master/src/strings.sol\":20463:20473  token._len */\n      0x00\n      add\n        /* \"https://github.com/Arachnid/solidity-stringutils/blob/master/src/strings.sol\":20463:20491  token._len = ptr - self._ptr */\n      dup2\n      dup2\n      mstore\n      pop\n      pop\n        /* \"https://github.com/Arachnid/solidity-stringutils/blob/master/src/strings.sol\":20524:20528  self */\n      dup5\n        /* \"https://github.com/Arachnid/solidity-stringutils/blob/master/src/strings.sol\":20524:20533  self._len */\n      0x00\n      add\n      mload\n        /* \"https://github.com/Arachnid/solidity-stringutils/blob/master/src/strings.sol\":20512:20516  self */\n      dup6\n        /* \"https://github.com/Arachnid/solidity-stringutils/blob/master/src/strings.sol\":20512:20521  self._ptr */\n      0x20\n      add\n      mload\n        /* \"https://github.com/Arachnid/solidity-stringutils/blob/master/src/strings.sol\":20512:20533  self._ptr + self._len */\n      tag_111\n      swap2\n      swap1\n      tag_62\n      jump\t// in\n    tag_111:\n        /* \"https://github.com/Arachnid/solidity-stringutils/blob/master/src/strings.sol\":20505:20508  ptr */\n      dup2\n        /* \"https://github.com/Arachnid/solidity-stringutils/blob/master/src/strings.sol\":20505:20533  ptr == self._ptr + self._len */\n      eq\n        /* \"https://github.com/Arachnid/solidity-stringutils/blob/master/src/strings.sol\":20501:20709  if (ptr == self._ptr + self._len) {... */\n      iszero\n      tag_112\n      jumpi\n        /* \"https://github.com/Arachnid/solidity-stringutils/blob/master/src/strings.sol\":20586:20587  0 */\n      0x00\n        /* \"https://github.com/Arachnid/solidity-stringutils/blob/master/src/strings.sol\":20574:20578  self */\n      dup6\n        /* \"https://github.com/Arachnid/solidity-stringutils/blob/master/src/strings.sol\":20574:20583  self._len */\n      0x00\n      add\n        /* \"https://github.com/Arachnid/solidity-stringutils/blob/master/src/strings.sol\":20574:20587  self._len = 0 */\n      dup2\n      dup2\n      mstore\n      pop\n      pop\n        /* \"https://github.com/Arachnid/solidity-stringutils/blob/master/src/strings.sol\":20501:20709  if (ptr == self._ptr + self._len) {... */\n      jump(tag_113)\n    tag_112:\n        /* \"https://github.com/Arachnid/solidity-stringutils/blob/master/src/strings.sol\":20644:20650  needle */\n      dup4\n        /* \"https://github.com/Arachnid/solidity-stringutils/blob/master/src/strings.sol\":20644:20655  needle._len */\n      0x00\n      add\n      mload\n        /* \"https://github.com/Arachnid/solidity-stringutils/blob/master/src/strings.sol\":20631:20636  token */\n      dup4\n        /* \"https://github.com/Arachnid/solidity-stringutils/blob/master/src/strings.sol\":20631:20641  token._len */\n      0x00\n      add\n      mload\n        /* \"https://github.com/Arachnid/solidity-stringutils/blob/master/src/strings.sol\":20631:20655  token._len + needle._len */\n      tag_114\n      swap2\n      swap1\n      tag_62\n      jump\t// in\n    tag_114:\n        /* \"https://github.com/Arachnid/solidity-stringutils/blob/master/src/strings.sol\":20618:20622  self */\n      dup6\n        /* \"https://github.com/Arachnid/solidity-stringutils/blob/master/src/strings.sol\":20618:20627  self._len */\n      0x00\n      add\n        /* \"https://github.com/Arachnid/solidity-stringutils/blob/master/src/strings.sol\":20618:20655  self._len -= token._len + needle._len */\n      dup2\n      dup2\n      mload\n      tag_115\n      swap2\n      swap1\n      tag_69\n      jump\t// in\n    tag_115:\n      swap2\n      pop\n      dup2\n      dup2\n      mstore\n      pop\n      pop\n        /* \"https://github.com/Arachnid/solidity-stringutils/blob/master/src/strings.sol\":20687:20693  needle */\n      dup4\n        /* \"https://github.com/Arachnid/solidity-stringutils/blob/master/src/strings.sol\":20687:20698  needle._len */\n      0x00\n      add\n      mload\n        /* \"https://github.com/Arachnid/solidity-stringutils/blob/master/src/strings.sol\":20681:20684  ptr */\n      dup2\n        /* \"https://github.com/Arachnid/solidity-stringutils/blob/master/src/strings.sol\":20681:20698  ptr + needle._len */\n      tag_116\n      swap2\n      swap1\n      tag_62\n      jump\t// in\n    tag_116:\n        /* \"https://github.com/Arachnid/solidity-stringutils/blob/master/src/strings.sol\":20669:20673  self */\n      dup6\n        /* \"https://github.com/Arachnid/solidity-stringutils/blob/master/src/strings.sol\":20669:20678  self._ptr */\n      0x20\n      add\n        /* \"https://github.com/Arachnid/solidity-stringutils/blob/master/src/strings.sol\":20669:20698  self._ptr = ptr + needle._len */\n      dup2\n      dup2\n      mstore\n      pop\n      pop\n        /* \"https://github.com/Arachnid/solidity-stringutils/blob/master/src/strings.sol\":20501:20709  if (ptr == self._ptr + self._len) {... */\n    tag_113:\n        /* \"https://github.com/Arachnid/solidity-stringutils/blob/master/src/strings.sol\":20725:20730  token */\n      dup3\n        /* \"https://github.com/Arachnid/solidity-stringutils/blob/master/src/strings.sol\":20718:20730  return token */\n      swap2\n      pop\n      pop\n        /* \"https://github.com/Arachnid/solidity-stringutils/blob/master/src/strings.sol\":20233:20737  function split(slice memory self, slice memory needle, slice memory token) internal pure returns (slice memory) {... */\n      swap4\n      swap3\n      pop\n      pop\n      pop\n      jump\t// out\n        /* \"https://github.com/Arachnid/solidity-stringutils/blob/master/src/strings.sol\":2088:2704  function memcpy(uint dest, uint src, uint len) private pure {... */\n    tag_80:\n        /* \"https://github.com/Arachnid/solidity-stringutils/blob/master/src/strings.sol\":2208:2372  for(; len >= 32; len -= 32) {... */\n    tag_118:\n        /* \"https://github.com/Arachnid/solidity-stringutils/blob/master/src/strings.sol\":2221:2223  32 */\n      0x20\n        /* \"https://github.com/Arachnid/solidity-stringutils/blob/master/src/strings.sol\":2214:2217  len */\n      dup2\n        /* \"https://github.com/Arachnid/solidity-stringutils/blob/master/src/strings.sol\":2214:2223  len >= 32 */\n      lt\n        /* \"https://github.com/Arachnid/solidity-stringutils/blob/master/src/strings.sol\":2208:2372  for(; len >= 32; len -= 32) {... */\n      tag_119\n      jumpi\n        /* \"https://github.com/Arachnid/solidity-stringutils/blob/master/src/strings.sol\":2296:2299  src */\n      dup2\n        /* \"https://github.com/Arachnid/solidity-stringutils/blob/master/src/strings.sol\":2290:2300  mload(src) */\n      mload\n        /* \"https://github.com/Arachnid/solidity-stringutils/blob/master/src/strings.sol\":2284:2288  dest */\n      dup4\n        /* \"https://github.com/Arachnid/solidity-stringutils/blob/master/src/strings.sol\":2277:2301  mstore(dest, mload(src)) */\n      mstore\n        /* \"https://github.com/Arachnid/solidity-stringutils/blob/master/src/strings.sol\":2336:2338  32 */\n      0x20\n        /* \"https://github.com/Arachnid/solidity-stringutils/blob/master/src/strings.sol\":2328:2338  dest += 32 */\n      dup4\n      tag_121\n      swap2\n      swap1\n      tag_62\n      jump\t// in\n    tag_121:\n      swap3\n      pop\n        /* \"https://github.com/Arachnid/solidity-stringutils/blob/master/src/strings.sol\":2359:2361  32 */\n      0x20\n        /* \"https://github.com/Arachnid/solidity-stringutils/blob/master/src/strings.sol\":2352:2361  src += 32 */\n      dup3\n      tag_122\n      swap2\n      swap1\n      tag_62\n      jump\t// in\n    tag_122:\n      swap2\n      pop\n        /* \"https://github.com/Arachnid/solidity-stringutils/blob/master/src/strings.sol\":2232:2234  32 */\n      0x20\n        /* \"https://github.com/Arachnid/solidity-stringutils/blob/master/src/strings.sol\":2225:2234  len -= 32 */\n      dup2\n      tag_123\n      swap2\n      swap1\n      tag_69\n      jump\t// in\n    tag_123:\n      swap1\n      pop\n        /* \"https://github.com/Arachnid/solidity-stringutils/blob/master/src/strings.sol\":2208:2372  for(; len >= 32; len -= 32) {... */\n      jump(tag_118)\n    tag_119:\n        /* \"https://github.com/Arachnid/solidity-stringutils/blob/master/src/strings.sol\":2414:2423  uint mask */\n      0x00\n        /* \"https://github.com/Arachnid/solidity-stringutils/blob/master/src/strings.sol\":2426:2440  type(uint).max */\n      0xffffffffffffffffffffffffffffffffffffffffffffffffffffffffffffffff\n        /* \"https://github.com/Arachnid/solidity-stringutils/blob/master/src/strings.sol\":2414:2440  uint mask = type(uint).max */\n      swap1\n      pop\n        /* \"https://github.com/Arachnid/solidity-stringutils/blob/master/src/strings.sol\":2460:2461  0 */\n      0x00\n        /* \"https://github.com/Arachnid/solidity-stringutils/blob/master/src/strings.sol\":2454:2457  len */\n      dup3\n        /* \"https://github.com/Arachnid/solidity-stringutils/blob/master/src/strings.sol\":2454:2461  len > 0 */\n      gt\n        /* \"https://github.com/Arachnid/solidity-stringutils/blob/master/src/strings.sol\":2450:2516  if (len > 0) {... */\n      iszero\n      tag_124\n      jumpi\n        /* \"https://github.com/Arachnid/solidity-stringutils/blob/master/src/strings.sol\":2504:2505  1 */\n      0x01\n        /* \"https://github.com/Arachnid/solidity-stringutils/blob/master/src/strings.sol\":2497:2500  len */\n      dup3\n        /* \"https://github.com/Arachnid/solidity-stringutils/blob/master/src/strings.sol\":2492:2494  32 */\n      0x20\n        /* \"https://github.com/Arachnid/solidity-stringutils/blob/master/src/strings.sol\":2492:2500  32 - len */\n      tag_125\n      swap2\n      swap1\n      tag_69\n      jump\t// in\n    tag_125:\n        /* \"https://github.com/Arachnid/solidity-stringutils/blob/master/src/strings.sol\":2484:2487  256 */\n      0x0100\n        /* \"https://github.com/Arachnid/solidity-stringutils/blob/master/src/strings.sol\":2484:2501  256 ** (32 - len) */\n      tag_126\n      swap2\n      swap1\n      tag_89\n      jump\t// in\n    tag_126:\n        /* \"https://github.com/Arachnid/solidity-stringutils/blob/master/src/strings.sol\":2484:2505  256 ** (32 - len) - 1 */\n      tag_127\n      swap2\n      swap1\n      tag_69\n      jump\t// in\n    tag_127:\n        /* \"https://github.com/Arachnid/solidity-stringutils/blob/master/src/strings.sol\":2477:2505  mask = 256 ** (32 - len) - 1 */\n      swap1\n      pop\n        /* \"https://github.com/Arachnid/solidity-stringutils/blob/master/src/strings.sol\":2450:2516  if (len > 0) {... */\n    tag_124:\n        /* \"https://github.com/Arachnid/solidity-stringutils/blob/master/src/strings.sol\":2583:2587  mask */\n      dup1\n        /* \"https://github.com/Arachnid/solidity-stringutils/blob/master/src/strings.sol\":2579:2588  not(mask) */\n      not\n        /* \"https://github.com/Arachnid/solidity-stringutils/blob/master/src/strings.sol\":2573:2576  src */\n      dup4\n        /* \"https://github.com/Arachnid/solidity-stringutils/blob/master/src/strings.sol\":2567:2577  mload(src) */\n      mload\n        /* \"https://github.com/Arachnid/solidity-stringutils/blob/master/src/strings.sol\":2563:2589  and(mload(src), not(mask)) */\n      and\n        /* \"https://github.com/Arachnid/solidity-stringutils/blob/master/src/strings.sol\":2635:2639  mask */\n      dup2\n        /* \"https://github.com/Arachnid/solidity-stringutils/blob/master/src/strings.sol\":2628:2632  dest */\n      dup6\n        /* \"https://github.com/Arachnid/solidity-stringutils/blob/master/src/strings.sol\":2622:2633  mload(dest) */\n      mload\n        /* \"https://github.com/Arachnid/solidity-stringutils/blob/master/src/strings.sol\":2618:2640  and(mload(dest), mask) */\n      and\n        /* \"https://github.com/Arachnid/solidity-stringutils/blob/master/src/strings.sol\":2679:2686  srcpart */\n      dup2\n        /* \"https://github.com/Arachnid/solidity-stringutils/blob/master/src/strings.sol\":2669:2677  destpart */\n      dup2\n        /* \"https://github.com/Arachnid/solidity-stringutils/blob/master/src/strings.sol\":2666:2687  or(destpart, srcpart) */\n      or\n        /* \"https://github.com/Arachnid/solidity-stringutils/blob/master/src/strings.sol\":2660:2664  dest */\n      dup7\n        /* \"https://github.com/Arachnid/solidity-stringutils/blob/master/src/strings.sol\":2653:2688  mstore(dest, or(destpart, srcpart)) */\n      mstore\n        /* \"https://github.com/Arachnid/solidity-stringutils/blob/master/src/strings.sol\":2534:2698  {... */\n      pop\n      pop\n      pop\n      pop\n      pop\n      pop\n      jump\t// out\n    tag_53:\n      mload(0x40)\n      dup1\n      0x80\n      add\n      0x40\n      mstore\n      dup1\n      0x00\n      dup2\n      mstore\n      0x20\n      add\n      0x00\n      dup2\n      mstore\n      0x20\n      add\n      and(0xffffffffffffffffffffffffffffffffffffffff, 0x00)\n      dup2\n      mstore\n      0x20\n      add\n      0x00\n      dup2\n      mstore\n      pop\n      swap1\n      jump\t// out\n    tag_56:\n      mload(0x40)\n      dup1\n      0x40\n      add\n      0x40\n      mstore\n      dup1\n      0x00\n      dup2\n      mstore\n      0x20\n      add\n      0x00\n      dup2\n      mstore\n      pop\n      swap1\n      jump\t// out\n        /* \"#utility.yul\":7:351   */\n    tag_129:\n      0x00\n        /* \"#utility.yul\":110:175   */\n      tag_131\n        /* \"#utility.yul\":125:174   */\n      tag_132\n        /* \"#utility.yul\":167:173   */\n      dup5\n        /* \"#utility.yul\":125:174   */\n      tag_133\n      jump\t// in\n    tag_132:\n        /* \"#utility.yul\":110:175   */\n      tag_134\n      jump\t// in\n    tag_131:\n        /* \"#utility.yul\":101:175   */\n      swap1\n      pop\n        /* \"#utility.yul\":198:204   */\n      dup3\n        /* \"#utility.yul\":191:196   */\n      dup2\n        /* \"#utility.yul\":184:205   */\n      mstore\n        /* \"#utility.yul\":236:240   */\n      0x20\n        /* \"#utility.yul\":229:234   */\n      dup2\n        /* \"#utility.yul\":225:241   */\n      add\n        /* \"#utility.yul\":274:277   */\n      dup5\n        /* \"#utility.yul\":265:271   */\n      dup5\n        /* \"#utility.yul\":260:263   */\n      dup5\n        /* \"#utility.yul\":256:272   */\n      add\n        /* \"#utility.yul\":253:278   */\n      gt\n        /* \"#utility.yul\":250:252   */\n      iszero\n      tag_135\n      jumpi\n        /* \"#utility.yul\":291:292   */\n      0x00\n        /* \"#utility.yul\":288:289   */\n      dup1\n        /* \"#utility.yul\":281:293   */\n      revert\n        /* \"#utility.yul\":250:252   */\n    tag_135:\n        /* \"#utility.yul\":304:345   */\n      tag_136\n        /* \"#utility.yul\":338:344   */\n      dup5\n        /* \"#utility.yul\":333:336   */\n      dup3\n        /* \"#utility.yul\":328:331   */\n      dup6\n        /* \"#utility.yul\":304:345   */\n      tag_137\n      jump\t// in\n    tag_136:\n        /* \"#utility.yul\":91:351   */\n      pop\n      swap4\n      swap3\n      pop\n      pop\n      pop\n      jump\t// out\n        /* \"#utility.yul\":357:496   */\n    tag_138:\n      0x00\n        /* \"#utility.yul\":441:447   */\n      dup2\n        /* \"#utility.yul\":428:448   */\n      calldataload\n        /* \"#utility.yul\":419:448   */\n      swap1\n      pop\n        /* \"#utility.yul\":457:490   */\n      tag_140\n        /* \"#utility.yul\":484:489   */\n      dup2\n        /* \"#utility.yul\":457:490   */\n      tag_141\n      jump\t// in\n    tag_140:\n        /* \"#utility.yul\":409:496   */\n      swap3\n      swap2\n      pop\n      pop\n      jump\t// out\n        /* \"#utility.yul\":516:789   */\n    tag_142:\n      0x00\n        /* \"#utility.yul\":621:624   */\n      dup3\n        /* \"#utility.yul\":614:618   */\n      0x1f\n        /* \"#utility.yul\":606:612   */\n      dup4\n        /* \"#utility.yul\":602:619   */\n      add\n        /* \"#utility.yul\":598:625   */\n      slt\n        /* \"#utility.yul\":588:590   */\n      tag_144\n      jumpi\n        /* \"#utility.yul\":639:640   */\n      0x00\n        /* \"#utility.yul\":636:637   */\n      dup1\n        /* \"#utility.yul\":629:641   */\n      revert\n        /* \"#utility.yul\":588:590   */\n    tag_144:\n        /* \"#utility.yul\":679:685   */\n      dup2\n        /* \"#utility.yul\":666:686   */\n      calldataload\n        /* \"#utility.yul\":704:783   */\n      tag_145\n        /* \"#utility.yul\":779:782   */\n      dup5\n        /* \"#utility.yul\":771:777   */\n      dup3\n        /* \"#utility.yul\":764:768   */\n      0x20\n        /* \"#utility.yul\":756:762   */\n      dup7\n        /* \"#utility.yul\":752:769   */\n      add\n        /* \"#utility.yul\":704:783   */\n      tag_129\n      jump\t// in\n    tag_145:\n        /* \"#utility.yul\":695:783   */\n      swap2\n      pop\n        /* \"#utility.yul\":578:789   */\n      pop\n      swap3\n      swap2\n      pop\n      pop\n      jump\t// out\n        /* \"#utility.yul\":795:934   */\n    tag_146:\n      0x00\n        /* \"#utility.yul\":879:885   */\n      dup2\n        /* \"#utility.yul\":866:886   */\n      calldataload\n        /* \"#utility.yul\":857:886   */\n      swap1\n      pop\n        /* \"#utility.yul\":895:928   */\n      tag_148\n        /* \"#utility.yul\":922:927   */\n      dup2\n        /* \"#utility.yul\":895:928   */\n      tag_149\n      jump\t// in\n    tag_148:\n        /* \"#utility.yul\":847:934   */\n      swap3\n      swap2\n      pop\n      pop\n      jump\t// out\n        /* \"#utility.yul\":940:1315   */\n    tag_16:\n      0x00\n        /* \"#utility.yul\":1058:1060   */\n      0x20\n        /* \"#utility.yul\":1046:1055   */\n      dup3\n        /* \"#utility.yul\":1037:1044   */\n      dup5\n        /* \"#utility.yul\":1033:1056   */\n      sub\n        /* \"#utility.yul\":1029:1061   */\n      slt\n        /* \"#utility.yul\":1026:1028   */\n      iszero\n      tag_151\n      jumpi\n        /* \"#utility.yul\":1074:1075   */\n      0x00\n        /* \"#utility.yul\":1071:1072   */\n      dup1\n        /* \"#utility.yul\":1064:1076   */\n      revert\n        /* \"#utility.yul\":1026:1028   */\n    tag_151:\n        /* \"#utility.yul\":1145:1146   */\n      0x00\n        /* \"#utility.yul\":1134:1143   */\n      dup3\n        /* \"#utility.yul\":1130:1147   */\n      add\n        /* \"#utility.yul\":1117:1148   */\n      calldataload\n        /* \"#utility.yul\":1175:1193   */\n      0xffffffffffffffff\n        /* \"#utility.yul\":1167:1173   */\n      dup2\n        /* \"#utility.yul\":1164:1194   */\n      gt\n        /* \"#utility.yul\":1161:1163   */\n      iszero\n      tag_152\n      jumpi\n        /* \"#utility.yul\":1207:1208   */\n      0x00\n        /* \"#utility.yul\":1204:1205   */\n      dup1\n        /* \"#utility.yul\":1197:1209   */\n      revert\n        /* \"#utility.yul\":1161:1163   */\n    tag_152:\n        /* \"#utility.yul\":1235:1298   */\n      tag_153\n        /* \"#utility.yul\":1290:1297   */\n      dup5\n        /* \"#utility.yul\":1281:1287   */\n      dup3\n        /* \"#utility.yul\":1270:1279   */\n      dup6\n        /* \"#utility.yul\":1266:1288   */\n      add\n        /* \"#utility.yul\":1235:1298   */\n      tag_142\n      jump\t// in\n    tag_153:\n        /* \"#utility.yul\":1225:1298   */\n      swap2\n      pop\n        /* \"#utility.yul\":1088:1308   */\n      pop\n        /* \"#utility.yul\":1016:1315   */\n      swap3\n      swap2\n      pop\n      pop\n      jump\t// out\n        /* \"#utility.yul\":1321:1583   */\n    tag_10:\n      0x00\n        /* \"#utility.yul\":1429:1431   */\n      0x20\n        /* \"#utility.yul\":1417:1426   */\n      dup3\n        /* \"#utility.yul\":1408:1415   */\n      dup5\n        /* \"#utility.yul\":1404:1427   */\n      sub\n        /* \"#utility.yul\":1400:1432   */\n      slt\n        /* \"#utility.yul\":1397:1399   */\n      iszero\n      tag_155\n      jumpi\n        /* \"#utility.yul\":1445:1446   */\n      0x00\n        /* \"#utility.yul\":1442:1443   */\n      dup1\n        /* \"#utility.yul\":1435:1447   */\n      revert\n        /* \"#utility.yul\":1397:1399   */\n    tag_155:\n        /* \"#utility.yul\":1488:1489   */\n      0x00\n        /* \"#utility.yul\":1513:1566   */\n      tag_156\n        /* \"#utility.yul\":1558:1565   */\n      dup5\n        /* \"#utility.yul\":1549:1555   */\n      dup3\n        /* \"#utility.yul\":1538:1547   */\n      dup6\n        /* \"#utility.yul\":1534:1556   */\n      add\n        /* \"#utility.yul\":1513:1566   */\n      tag_146\n      jump\t// in\n    tag_156:\n        /* \"#utility.yul\":1503:1566   */\n      swap2\n      pop\n        /* \"#utility.yul\":1459:1576   */\n      pop\n        /* \"#utility.yul\":1387:1583   */\n      swap3\n      swap2\n      pop\n      pop\n      jump\t// out\n        /* \"#utility.yul\":1589:2287   */\n    tag_20:\n      0x00\n      dup1\n      0x00\n      dup1\n        /* \"#utility.yul\":1748:1751   */\n      0x80\n        /* \"#utility.yul\":1736:1745   */\n      dup6\n        /* \"#utility.yul\":1727:1734   */\n      dup8\n        /* \"#utility.yul\":1723:1746   */\n      sub\n        /* \"#utility.yul\":1719:1752   */\n      slt\n        /* \"#utility.yul\":1716:1718   */\n      iszero\n      tag_158\n      jumpi\n        /* \"#utility.yul\":1765:1766   */\n      0x00\n        /* \"#utility.yul\":1762:1763   */\n      dup1\n        /* \"#utility.yul\":1755:1767   */\n      revert\n        /* \"#utility.yul\":1716:1718   */\n    tag_158:\n        /* \"#utility.yul\":1808:1809   */\n      0x00\n        /* \"#utility.yul\":1833:1886   */\n      tag_159\n        /* \"#utility.yul\":1878:1885   */\n      dup8\n        /* \"#utility.yul\":1869:1875   */\n      dup3\n        /* \"#utility.yul\":1858:1867   */\n      dup9\n        /* \"#utility.yul\":1854:1876   */\n      add\n        /* \"#utility.yul\":1833:1886   */\n      tag_146\n      jump\t// in\n    tag_159:\n        /* \"#utility.yul\":1823:1886   */\n      swap5\n      pop\n        /* \"#utility.yul\":1779:1896   */\n      pop\n        /* \"#utility.yul\":1935:1937   */\n      0x20\n        /* \"#utility.yul\":1961:2014   */\n      tag_160\n        /* \"#utility.yul\":2006:2013   */\n      dup8\n        /* \"#utility.yul\":1997:2003   */\n      dup3\n        /* \"#utility.yul\":1986:1995   */\n      dup9\n        /* \"#utility.yul\":1982:2004   */\n      add\n        /* \"#utility.yul\":1961:2014   */\n      tag_146\n      jump\t// in\n    tag_160:\n        /* \"#utility.yul\":1951:2014   */\n      swap4\n      pop\n        /* \"#utility.yul\":1906:2024   */\n      pop\n        /* \"#utility.yul\":2063:2065   */\n      0x40\n        /* \"#utility.yul\":2089:2142   */\n      tag_161\n        /* \"#utility.yul\":2134:2141   */\n      dup8\n        /* \"#utility.yul\":2125:2131   */\n      dup3\n        /* \"#utility.yul\":2114:2123   */\n      dup9\n        /* \"#utility.yul\":2110:2132   */\n      add\n        /* \"#utility.yul\":2089:2142   */\n      tag_138\n      jump\t// in\n    tag_161:\n        /* \"#utility.yul\":2079:2142   */\n      swap3\n      pop\n        /* \"#utility.yul\":2034:2152   */\n      pop\n        /* \"#utility.yul\":2191:2193   */\n      0x60\n        /* \"#utility.yul\":2217:2270   */\n      tag_162\n        /* \"#utility.yul\":2262:2269   */\n      dup8\n        /* \"#utility.yul\":2253:2259   */\n      dup3\n        /* \"#utility.yul\":2242:2251   */\n      dup9\n        /* \"#utility.yul\":2238:2260   */\n      add\n        /* \"#utility.yul\":2217:2270   */\n      tag_146\n      jump\t// in\n    tag_162:\n        /* \"#utility.yul\":2207:2270   */\n      swap2\n      pop\n        /* \"#utility.yul\":2162:2280   */\n      pop\n        /* \"#utility.yul\":1706:2287   */\n      swap3\n      swap6\n      swap2\n      swap5\n      pop\n      swap3\n      pop\n      jump\t// out\n        /* \"#utility.yul\":2293:2401   */\n    tag_163:\n        /* \"#utility.yul\":2370:2394   */\n      tag_165\n        /* \"#utility.yul\":2388:2393   */\n      dup2\n        /* \"#utility.yul\":2370:2394   */\n      tag_166\n      jump\t// in\n    tag_165:\n        /* \"#utility.yul\":2365:2368   */\n      dup3\n        /* \"#utility.yul\":2358:2395   */\n      mstore\n        /* \"#utility.yul\":2348:2401   */\n      pop\n      pop\n      jump\t// out\n        /* \"#utility.yul\":2407:2525   */\n    tag_167:\n        /* \"#utility.yul\":2494:2518   */\n      tag_169\n        /* \"#utility.yul\":2512:2517   */\n      dup2\n        /* \"#utility.yul\":2494:2518   */\n      tag_166\n      jump\t// in\n    tag_169:\n        /* \"#utility.yul\":2489:2492   */\n      dup3\n        /* \"#utility.yul\":2482:2519   */\n      mstore\n        /* \"#utility.yul\":2472:2525   */\n      pop\n      pop\n      jump\t// out\n        /* \"#utility.yul\":2599:3495   */\n    tag_170:\n        /* \"#utility.yul\":2744:2748   */\n      0x80\n        /* \"#utility.yul\":2739:2742   */\n      dup3\n        /* \"#utility.yul\":2735:2749   */\n      add\n        /* \"#utility.yul\":2837:2841   */\n      0x00\n        /* \"#utility.yul\":2830:2835   */\n      dup3\n        /* \"#utility.yul\":2826:2842   */\n      add\n        /* \"#utility.yul\":2820:2843   */\n      mload\n        /* \"#utility.yul\":2856:2919   */\n      tag_172\n        /* \"#utility.yul\":2913:2917   */\n      0x00\n        /* \"#utility.yul\":2908:2911   */\n      dup6\n        /* \"#utility.yul\":2904:2918   */\n      add\n        /* \"#utility.yul\":2890:2902   */\n      dup3\n        /* \"#utility.yul\":2856:2919   */\n      tag_173\n      jump\t// in\n    tag_172:\n        /* \"#utility.yul\":2759:2929   */\n      pop\n        /* \"#utility.yul\":3021:3025   */\n      0x20\n        /* \"#utility.yul\":3014:3019   */\n      dup3\n        /* \"#utility.yul\":3010:3026   */\n      add\n        /* \"#utility.yul\":3004:3027   */\n      mload\n        /* \"#utility.yul\":3040:3103   */\n      tag_174\n        /* \"#utility.yul\":3097:3101   */\n      0x20\n        /* \"#utility.yul\":3092:3095   */\n      dup6\n        /* \"#utility.yul\":3088:3102   */\n      add\n        /* \"#utility.yul\":3074:3086   */\n      dup3\n        /* \"#utility.yul\":3040:3103   */\n      tag_173\n      jump\t// in\n    tag_174:\n        /* \"#utility.yul\":2939:3113   */\n      pop\n        /* \"#utility.yul\":3206:3210   */\n      0x40\n        /* \"#utility.yul\":3199:3204   */\n      dup3\n        /* \"#utility.yul\":3195:3211   */\n      add\n        /* \"#utility.yul\":3189:3212   */\n      mload\n        /* \"#utility.yul\":3225:3288   */\n      tag_175\n        /* \"#utility.yul\":3282:3286   */\n      0x40\n        /* \"#utility.yul\":3277:3280   */\n      dup6\n        /* \"#utility.yul\":3273:3287   */\n      add\n        /* \"#utility.yul\":3259:3271   */\n      dup3\n        /* \"#utility.yul\":3225:3288   */\n      tag_163\n      jump\t// in\n    tag_175:\n        /* \"#utility.yul\":3123:3298   */\n      pop\n        /* \"#utility.yul\":3396:3400   */\n      0x60\n        /* \"#utility.yul\":3389:3394   */\n      dup3\n        /* \"#utility.yul\":3385:3401   */\n      add\n        /* \"#utility.yul\":3379:3402   */\n      mload\n        /* \"#utility.yul\":3415:3478   */\n      tag_176\n        /* \"#utility.yul\":3472:3476   */\n      0x60\n        /* \"#utility.yul\":3467:3470   */\n      dup6\n        /* \"#utility.yul\":3463:3477   */\n      add\n        /* \"#utility.yul\":3449:3461   */\n      dup3\n        /* \"#utility.yul\":3415:3478   */\n      tag_173\n      jump\t// in\n    tag_176:\n        /* \"#utility.yul\":3308:3488   */\n      pop\n        /* \"#utility.yul\":2713:3495   */\n      pop\n      pop\n      pop\n      jump\t// out\n        /* \"#utility.yul\":3501:3609   */\n    tag_173:\n        /* \"#utility.yul\":3578:3602   */\n      tag_178\n        /* \"#utility.yul\":3596:3601   */\n      dup2\n        /* \"#utility.yul\":3578:3602   */\n      tag_179\n      jump\t// in\n    tag_178:\n        /* \"#utility.yul\":3573:3576   */\n      dup3\n        /* \"#utility.yul\":3566:3603   */\n      mstore\n        /* \"#utility.yul\":3556:3609   */\n      pop\n      pop\n      jump\t// out\n        /* \"#utility.yul\":3615:3733   */\n    tag_180:\n        /* \"#utility.yul\":3702:3726   */\n      tag_182\n        /* \"#utility.yul\":3720:3725   */\n      dup2\n        /* \"#utility.yul\":3702:3726   */\n      tag_179\n      jump\t// in\n    tag_182:\n        /* \"#utility.yul\":3697:3700   */\n      dup3\n        /* \"#utility.yul\":3690:3727   */\n      mstore\n        /* \"#utility.yul\":3680:3733   */\n      pop\n      pop\n      jump\t// out\n        /* \"#utility.yul\":3739:4058   */\n    tag_30:\n      0x00\n        /* \"#utility.yul\":3918:3921   */\n      0x80\n        /* \"#utility.yul\":3907:3916   */\n      dup3\n        /* \"#utility.yul\":3903:3922   */\n      add\n        /* \"#utility.yul\":3895:3922   */\n      swap1\n      pop\n        /* \"#utility.yul\":3932:4051   */\n      tag_184\n        /* \"#utility.yul\":4048:4049   */\n      0x00\n        /* \"#utility.yul\":4037:4046   */\n      dup4\n        /* \"#utility.yul\":4033:4050   */\n      add\n        /* \"#utility.yul\":4024:4030   */\n      dup5\n        /* \"#utility.yul\":3932:4051   */\n      tag_170\n      jump\t// in\n    tag_184:\n        /* \"#utility.yul\":3885:4058   */\n      swap3\n      swap2\n      pop\n      pop\n      jump\t// out\n        /* \"#utility.yul\":4064:4286   */\n    tag_25:\n      0x00\n        /* \"#utility.yul\":4195:4197   */\n      0x20\n        /* \"#utility.yul\":4184:4193   */\n      dup3\n        /* \"#utility.yul\":4180:4198   */\n      add\n        /* \"#utility.yul\":4172:4198   */\n      swap1\n      pop\n        /* \"#utility.yul\":4208:4279   */\n      tag_186\n        /* \"#utility.yul\":4276:4277   */\n      0x00\n        /* \"#utility.yul\":4265:4274   */\n      dup4\n        /* \"#utility.yul\":4261:4278   */\n      add\n        /* \"#utility.yul\":4252:4258   */\n      dup5\n        /* \"#utility.yul\":4208:4279   */\n      tag_180\n      jump\t// in\n    tag_186:\n        /* \"#utility.yul\":4162:4286   */\n      swap3\n      swap2\n      pop\n      pop\n      jump\t// out\n        /* \"#utility.yul\":4292:4845   */\n    tag_13:\n      0x00\n        /* \"#utility.yul\":4507:4510   */\n      0x80\n        /* \"#utility.yul\":4496:4505   */\n      dup3\n        /* \"#utility.yul\":4492:4511   */\n      add\n        /* \"#utility.yul\":4484:4511   */\n      swap1\n      pop\n        /* \"#utility.yul\":4521:4592   */\n      tag_188\n        /* \"#utility.yul\":4589:4590   */\n      0x00\n        /* \"#utility.yul\":4578:4587   */\n      dup4\n        /* \"#utility.yul\":4574:4591   */\n      add\n        /* \"#utility.yul\":4565:4571   */\n      dup8\n        /* \"#utility.yul\":4521:4592   */\n      tag_180\n      jump\t// in\n    tag_188:\n        /* \"#utility.yul\":4602:4674   */\n      tag_189\n        /* \"#utility.yul\":4670:4672   */\n      0x20\n        /* \"#utility.yul\":4659:4668   */\n      dup4\n        /* \"#utility.yul\":4655:4673   */\n      add\n        /* \"#utility.yul\":4646:4652   */\n      dup7\n        /* \"#utility.yul\":4602:4674   */\n      tag_180\n      jump\t// in\n    tag_189:\n        /* \"#utility.yul\":4684:4756   */\n      tag_190\n        /* \"#utility.yul\":4752:4754   */\n      0x40\n        /* \"#utility.yul\":4741:4750   */\n      dup4\n        /* \"#utility.yul\":4737:4755   */\n      add\n        /* \"#utility.yul\":4728:4734   */\n      dup6\n        /* \"#utility.yul\":4684:4756   */\n      tag_167\n      jump\t// in\n    tag_190:\n        /* \"#utility.yul\":4766:4838   */\n      tag_191\n        /* \"#utility.yul\":4834:4836   */\n      0x60\n        /* \"#utility.yul\":4823:4832   */\n      dup4\n        /* \"#utility.yul\":4819:4837   */\n      add\n        /* \"#utility.yul\":4810:4816   */\n      dup5\n        /* \"#utility.yul\":4766:4838   */\n      tag_180\n      jump\t// in\n    tag_191:\n        /* \"#utility.yul\":4474:4845   */\n      swap6\n      swap5\n      pop\n      pop\n      pop\n      pop\n      pop\n      jump\t// out\n        /* \"#utility.yul\":4851:5134   */\n    tag_134:\n      0x00\n        /* \"#utility.yul\":4917:4919   */\n      0x40\n        /* \"#utility.yul\":4911:4920   */\n      mload\n        /* \"#utility.yul\":4901:4920   */\n      swap1\n      pop\n        /* \"#utility.yul\":4959:4963   */\n      dup2\n        /* \"#utility.yul\":4951:4957   */\n      dup2\n        /* \"#utility.yul\":4947:4964   */\n      add\n        /* \"#utility.yul\":5066:5072   */\n      dup2\n        /* \"#utility.yul\":5054:5064   */\n      dup2\n        /* \"#utility.yul\":5051:5073   */\n      lt\n        /* \"#utility.yul\":5030:5048   */\n      0xffffffffffffffff\n        /* \"#utility.yul\":5018:5028   */\n      dup3\n        /* \"#utility.yul\":5015:5049   */\n      gt\n        /* \"#utility.yul\":5012:5074   */\n      or\n        /* \"#utility.yul\":5009:5011   */\n      iszero\n      tag_193\n      jumpi\n        /* \"#utility.yul\":5077:5095   */\n      tag_194\n      tag_195\n      jump\t// in\n    tag_194:\n        /* \"#utility.yul\":5009:5011   */\n    tag_193:\n        /* \"#utility.yul\":5117:5127   */\n      dup1\n        /* \"#utility.yul\":5113:5115   */\n      0x40\n        /* \"#utility.yul\":5106:5128   */\n      mstore\n        /* \"#utility.yul\":4891:5134   */\n      pop\n      swap2\n      swap1\n      pop\n      jump\t// out\n        /* \"#utility.yul\":5140:5472   */\n    tag_133:\n      0x00\n        /* \"#utility.yul\":5292:5310   */\n      0xffffffffffffffff\n        /* \"#utility.yul\":5284:5290   */\n      dup3\n        /* \"#utility.yul\":5281:5311   */\n      gt\n        /* \"#utility.yul\":5278:5280   */\n      iszero\n      tag_197\n      jumpi\n        /* \"#utility.yul\":5314:5332   */\n      tag_198\n      tag_195\n      jump\t// in\n    tag_198:\n        /* \"#utility.yul\":5278:5280   */\n    tag_197:\n        /* \"#utility.yul\":5399:5403   */\n      0x1f\n        /* \"#utility.yul\":5395:5404   */\n      not\n        /* \"#utility.yul\":5388:5392   */\n      0x1f\n        /* \"#utility.yul\":5380:5386   */\n      dup4\n        /* \"#utility.yul\":5376:5393   */\n      add\n        /* \"#utility.yul\":5372:5405   */\n      and\n        /* \"#utility.yul\":5364:5405   */\n      swap1\n      pop\n        /* \"#utility.yul\":5460:5464   */\n      0x20\n        /* \"#utility.yul\":5454:5458   */\n      dup2\n        /* \"#utility.yul\":5450:5465   */\n      add\n        /* \"#utility.yul\":5442:5465   */\n      swap1\n      pop\n        /* \"#utility.yul\":5207:5472   */\n      swap2\n      swap1\n      pop\n      jump\t// out\n        /* \"#utility.yul\":5478:5783   */\n    tag_62:\n      0x00\n        /* \"#utility.yul\":5537:5557   */\n      tag_200\n        /* \"#utility.yul\":5555:5556   */\n      dup3\n        /* \"#utility.yul\":5537:5557   */\n      tag_179\n      jump\t// in\n    tag_200:\n        /* \"#utility.yul\":5532:5557   */\n      swap2\n      pop\n        /* \"#utility.yul\":5571:5591   */\n      tag_201\n        /* \"#utility.yul\":5589:5590   */\n      dup4\n        /* \"#utility.yul\":5571:5591   */\n      tag_179\n      jump\t// in\n    tag_201:\n        /* \"#utility.yul\":5566:5591   */\n      swap3\n      pop\n        /* \"#utility.yul\":5725:5726   */\n      dup3\n        /* \"#utility.yul\":5657:5723   */\n      0xffffffffffffffffffffffffffffffffffffffffffffffffffffffffffffffff\n        /* \"#utility.yul\":5653:5727   */\n      sub\n        /* \"#utility.yul\":5650:5651   */\n      dup3\n        /* \"#utility.yul\":5647:5728   */\n      gt\n        /* \"#utility.yul\":5644:5646   */\n      iszero\n      tag_202\n      jumpi\n        /* \"#utility.yul\":5731:5749   */\n      tag_203\n      tag_204\n      jump\t// in\n    tag_203:\n        /* \"#utility.yul\":5644:5646   */\n    tag_202:\n        /* \"#utility.yul\":5775:5776   */\n      dup3\n        /* \"#utility.yul\":5772:5773   */\n      dup3\n        /* \"#utility.yul\":5768:5777   */\n      add\n        /* \"#utility.yul\":5761:5777   */\n      swap1\n      pop\n        /* \"#utility.yul\":5522:5783   */\n      swap3\n      swap2\n      pop\n      pop\n      jump\t// out\n        /* \"#utility.yul\":5789:6637   */\n    tag_205:\n      0x00\n      dup1\n        /* \"#utility.yul\":5881:5887   */\n      dup3\n        /* \"#utility.yul\":5872:5887   */\n      swap2\n      pop\n        /* \"#utility.yul\":5905:5910   */\n      dup4\n        /* \"#utility.yul\":5896:5910   */\n      swap1\n      pop\n        /* \"#utility.yul\":5919:6631   */\n    tag_207:\n        /* \"#utility.yul\":5940:5941   */\n      0x01\n        /* \"#utility.yul\":5930:5938   */\n      dup6\n        /* \"#utility.yul\":5927:5942   */\n      gt\n        /* \"#utility.yul\":5919:6631   */\n      iszero\n      tag_209\n      jumpi\n        /* \"#utility.yul\":6035:6039   */\n      dup1\n        /* \"#utility.yul\":6030:6033   */\n      dup7\n        /* \"#utility.yul\":6026:6040   */\n      div\n        /* \"#utility.yul\":6020:6024   */\n      dup2\n        /* \"#utility.yul\":6017:6041   */\n      gt\n        /* \"#utility.yul\":6014:6016   */\n      iszero\n      tag_210\n      jumpi\n        /* \"#utility.yul\":6044:6062   */\n      tag_211\n      tag_204\n      jump\t// in\n    tag_211:\n        /* \"#utility.yul\":6014:6016   */\n    tag_210:\n        /* \"#utility.yul\":6094:6095   */\n      0x01\n        /* \"#utility.yul\":6084:6092   */\n      dup6\n        /* \"#utility.yul\":6080:6096   */\n      and\n        /* \"#utility.yul\":6077:6079   */\n      iszero\n      tag_212\n      jumpi\n        /* \"#utility.yul\":6509:6513   */\n      dup1\n        /* \"#utility.yul\":6502:6507   */\n      dup3\n        /* \"#utility.yul\":6498:6514   */\n      mul\n        /* \"#utility.yul\":6489:6514   */\n      swap2\n      pop\n        /* \"#utility.yul\":6077:6079   */\n    tag_212:\n        /* \"#utility.yul\":6559:6563   */\n      dup1\n        /* \"#utility.yul\":6553:6557   */\n      dup2\n        /* \"#utility.yul\":6549:6564   */\n      mul\n        /* \"#utility.yul\":6541:6564   */\n      swap1\n      pop\n        /* \"#utility.yul\":6589:6621   */\n      tag_213\n        /* \"#utility.yul\":6612:6620   */\n      dup6\n        /* \"#utility.yul\":6589:6621   */\n      tag_214\n      jump\t// in\n    tag_213:\n        /* \"#utility.yul\":6577:6621   */\n      swap5\n      pop\n        /* \"#utility.yul\":5919:6631   */\n      jump(tag_207)\n    tag_209:\n        /* \"#utility.yul\":5862:6637   */\n      swap5\n      pop\n      swap5\n      swap3\n      pop\n      pop\n      pop\n      jump\t// out\n        /* \"#utility.yul\":6643:6928   */\n    tag_89:\n      0x00\n        /* \"#utility.yul\":6727:6750   */\n      tag_216\n        /* \"#utility.yul\":6745:6749   */\n      dup3\n        /* \"#utility.yul\":6727:6750   */\n      tag_179\n      jump\t// in\n    tag_216:\n        /* \"#utility.yul\":6719:6750   */\n      swap2\n      pop\n        /* \"#utility.yul\":6771:6798   */\n      tag_217\n        /* \"#utility.yul\":6789:6797   */\n      dup4\n        /* \"#utility.yul\":6771:6798   */\n      tag_179\n      jump\t// in\n    tag_217:\n        /* \"#utility.yul\":6759:6798   */\n      swap3\n      pop\n        /* \"#utility.yul\":6817:6921   */\n      tag_218\n        /* \"#utility.yul\":6854:6920   */\n      0xffffffffffffffffffffffffffffffffffffffffffffffffffffffffffffffff\n        /* \"#utility.yul\":6844:6852   */\n      dup5\n        /* \"#utility.yul\":6838:6842   */\n      dup5\n        /* \"#utility.yul\":6817:6921   */\n      tag_219\n      jump\t// in\n    tag_218:\n        /* \"#utility.yul\":6808:6921   */\n      swap1\n      pop\n        /* \"#utility.yul\":6709:6928   */\n      swap3\n      swap2\n      pop\n      pop\n      jump\t// out\n        /* \"#utility.yul\":6934:8007   */\n    tag_219:\n      0x00\n        /* \"#utility.yul\":7179:7187   */\n      dup3\n        /* \"#utility.yul\":7169:7171   */\n      tag_221\n      jumpi\n        /* \"#utility.yul\":7200:7201   */\n      0x01\n        /* \"#utility.yul\":7191:7201   */\n      swap1\n      pop\n        /* \"#utility.yul\":7202:7207   */\n      jump(tag_220)\n        /* \"#utility.yul\":7169:7171   */\n    tag_221:\n        /* \"#utility.yul\":7228:7232   */\n      dup2\n        /* \"#utility.yul\":7218:7220   */\n      tag_222\n      jumpi\n        /* \"#utility.yul\":7245:7246   */\n      0x00\n        /* \"#utility.yul\":7236:7246   */\n      swap1\n      pop\n        /* \"#utility.yul\":7247:7252   */\n      jump(tag_220)\n        /* \"#utility.yul\":7218:7220   */\n    tag_222:\n        /* \"#utility.yul\":7314:7318   */\n      dup2\n        /* \"#utility.yul\":7362:7363   */\n      0x01\n        /* \"#utility.yul\":7357:7384   */\n      dup2\n      eq\n      tag_224\n      jumpi\n        /* \"#utility.yul\":7398:7399   */\n      0x02\n        /* \"#utility.yul\":7393:7584   */\n      dup2\n      eq\n      tag_225\n      jumpi\n        /* \"#utility.yul\":7307:7584   */\n      jump(tag_223)\n        /* \"#utility.yul\":7357:7384   */\n    tag_224:\n        /* \"#utility.yul\":7375:7376   */\n      0x01\n        /* \"#utility.yul\":7366:7376   */\n      swap2\n      pop\n        /* \"#utility.yul\":7377:7382   */\n      pop\n      jump(tag_220)\n        /* \"#utility.yul\":7393:7584   */\n    tag_225:\n        /* \"#utility.yul\":7438:7441   */\n      0xff\n        /* \"#utility.yul\":7428:7436   */\n      dup5\n        /* \"#utility.yul\":7425:7442   */\n      gt\n        /* \"#utility.yul\":7422:7424   */\n      iszero\n      tag_226\n      jumpi\n        /* \"#utility.yul\":7445:7463   */\n      tag_227\n      tag_204\n      jump\t// in\n    tag_227:\n        /* \"#utility.yul\":7422:7424   */\n    tag_226:\n        /* \"#utility.yul\":7494:7502   */\n      dup4\n        /* \"#utility.yul\":7491:7492   */\n      0x02\n        /* \"#utility.yul\":7487:7503   */\n      exp\n        /* \"#utility.yul\":7478:7503   */\n      swap2\n      pop\n        /* \"#utility.yul\":7529:7532   */\n      dup5\n        /* \"#utility.yul\":7522:7527   */\n      dup3\n        /* \"#utility.yul\":7519:7533   */\n      gt\n        /* \"#utility.yul\":7516:7518   */\n      iszero\n      tag_228\n      jumpi\n        /* \"#utility.yul\":7536:7554   */\n      tag_229\n      tag_204\n      jump\t// in\n    tag_229:\n        /* \"#utility.yul\":7516:7518   */\n    tag_228:\n        /* \"#utility.yul\":7569:7574   */\n      pop\n      jump(tag_220)\n        /* \"#utility.yul\":7307:7584   */\n    tag_223:\n      pop\n        /* \"#utility.yul\":7693:7695   */\n      0x20\n        /* \"#utility.yul\":7683:7691   */\n      dup4\n        /* \"#utility.yul\":7680:7696   */\n      lt\n        /* \"#utility.yul\":7674:7677   */\n      0x0133\n        /* \"#utility.yul\":7668:7672   */\n      dup4\n        /* \"#utility.yul\":7665:7678   */\n      lt\n        /* \"#utility.yul\":7661:7697   */\n      and\n        /* \"#utility.yul\":7643:7645   */\n      0x4e\n        /* \"#utility.yul\":7633:7641   */\n      dup5\n        /* \"#utility.yul\":7630:7646   */\n      lt\n        /* \"#utility.yul\":7625:7627   */\n      0x0b\n        /* \"#utility.yul\":7619:7623   */\n      dup5\n        /* \"#utility.yul\":7616:7628   */\n      lt\n        /* \"#utility.yul\":7612:7647   */\n      and\n        /* \"#utility.yul\":7596:7707   */\n      or\n        /* \"#utility.yul\":7593:7595   */\n      iszero\n      tag_230\n      jumpi\n        /* \"#utility.yul\":7749:7757   */\n      dup3\n        /* \"#utility.yul\":7743:7747   */\n      dup3\n        /* \"#utility.yul\":7739:7758   */\n      exp\n        /* \"#utility.yul\":7730:7758   */\n      swap1\n      pop\n        /* \"#utility.yul\":7784:7787   */\n      dup4\n        /* \"#utility.yul\":7777:7782   */\n      dup2\n        /* \"#utility.yul\":7774:7788   */\n      gt\n        /* \"#utility.yul\":7771:7773   */\n      iszero\n      tag_231\n      jumpi\n        /* \"#utility.yul\":7791:7809   */\n      tag_232\n      tag_204\n      jump\t// in\n    tag_232:\n        /* \"#utility.yul\":7771:7773   */\n    tag_231:\n        /* \"#utility.yul\":7824:7829   */\n      jump(tag_220)\n        /* \"#utility.yul\":7593:7595   */\n    tag_230:\n        /* \"#utility.yul\":7864:7906   */\n      tag_233\n        /* \"#utility.yul\":7902:7905   */\n      dup5\n        /* \"#utility.yul\":7892:7900   */\n      dup5\n        /* \"#utility.yul\":7886:7890   */\n      dup5\n        /* \"#utility.yul\":7883:7884   */\n      0x01\n        /* \"#utility.yul\":7864:7906   */\n      tag_205\n      jump\t// in\n    tag_233:\n        /* \"#utility.yul\":7849:7906   */\n      swap3\n      pop\n      swap1\n      pop\n        /* \"#utility.yul\":7938:7942   */\n      dup2\n        /* \"#utility.yul\":7933:7936   */\n      dup5\n        /* \"#utility.yul\":7929:7943   */\n      div\n        /* \"#utility.yul\":7922:7927   */\n      dup2\n        /* \"#utility.yul\":7919:7944   */\n      gt\n        /* \"#utility.yul\":7916:7918   */\n      iszero\n      tag_234\n      jumpi\n        /* \"#utility.yul\":7947:7965   */\n      tag_235\n      tag_204\n      jump\t// in\n    tag_235:\n        /* \"#utility.yul\":7916:7918   */\n    tag_234:\n        /* \"#utility.yul\":7996:8000   */\n      dup2\n        /* \"#utility.yul\":7989:7994   */\n      dup2\n        /* \"#utility.yul\":7985:8001   */\n      mul\n        /* \"#utility.yul\":7976:8001   */\n      swap1\n      pop\n        /* \"#utility.yul\":6994:8007   */\n    tag_220:\n      swap4\n      swap3\n      pop\n      pop\n      pop\n      jump\t// out\n        /* \"#utility.yul\":8013:8361   */\n    tag_87:\n      0x00\n        /* \"#utility.yul\":8076:8096   */\n      tag_237\n        /* \"#utility.yul\":8094:8095   */\n      dup3\n        /* \"#utility.yul\":8076:8096   */\n      tag_179\n      jump\t// in\n    tag_237:\n        /* \"#utility.yul\":8071:8096   */\n      swap2\n      pop\n        /* \"#utility.yul\":8110:8130   */\n      tag_238\n        /* \"#utility.yul\":8128:8129   */\n      dup4\n        /* \"#utility.yul\":8110:8130   */\n      tag_179\n      jump\t// in\n    tag_238:\n        /* \"#utility.yul\":8105:8130   */\n      swap3\n      pop\n        /* \"#utility.yul\":8298:8299   */\n      dup2\n        /* \"#utility.yul\":8230:8296   */\n      0xffffffffffffffffffffffffffffffffffffffffffffffffffffffffffffffff\n        /* \"#utility.yul\":8226:8300   */\n      div\n        /* \"#utility.yul\":8223:8224   */\n      dup4\n        /* \"#utility.yul\":8220:8301   */\n      gt\n        /* \"#utility.yul\":8215:8216   */\n      dup3\n        /* \"#utility.yul\":8208:8217   */\n      iszero\n        /* \"#utility.yul\":8201:8218   */\n      iszero\n        /* \"#utility.yul\":8197:8302   */\n      and\n        /* \"#utility.yul\":8194:8196   */\n      iszero\n      tag_239\n      jumpi\n        /* \"#utility.yul\":8305:8323   */\n      tag_240\n      tag_204\n      jump\t// in\n    tag_240:\n        /* \"#utility.yul\":8194:8196   */\n    tag_239:\n        /* \"#utility.yul\":8353:8354   */\n      dup3\n        /* \"#utility.yul\":8350:8351   */\n      dup3\n        /* \"#utility.yul\":8346:8355   */\n      mul\n        /* \"#utility.yul\":8335:8355   */\n      swap1\n      pop\n        /* \"#utility.yul\":8061:8361   */\n      swap3\n      swap2\n      pop\n      pop\n      jump\t// out\n        /* \"#utility.yul\":8367:8558   */\n    tag_69:\n      0x00\n        /* \"#utility.yul\":8427:8447   */\n      tag_242\n        /* \"#utility.yul\":8445:8446   */\n      dup3\n        /* \"#utility.yul\":8427:8447   */\n      tag_179\n      jump\t// in\n    tag_242:\n        /* \"#utility.yul\":8422:8447   */\n      swap2\n      pop\n        /* \"#utility.yul\":8461:8481   */\n      tag_243\n        /* \"#utility.yul\":8479:8480   */\n      dup4\n        /* \"#utility.yul\":8461:8481   */\n      tag_179\n      jump\t// in\n    tag_243:\n        /* \"#utility.yul\":8456:8481   */\n      swap3\n      pop\n        /* \"#utility.yul\":8500:8501   */\n      dup3\n        /* \"#utility.yul\":8497:8498   */\n      dup3\n        /* \"#utility.yul\":8494:8502   */\n      lt\n        /* \"#utility.yul\":8491:8493   */\n      iszero\n      tag_244\n      jumpi\n        /* \"#utility.yul\":8505:8523   */\n      tag_245\n      tag_204\n      jump\t// in\n    tag_245:\n        /* \"#utility.yul\":8491:8493   */\n    tag_244:\n        /* \"#utility.yul\":8550:8551   */\n      dup3\n        /* \"#utility.yul\":8547:8548   */\n      dup3\n        /* \"#utility.yul\":8543:8552   */\n      sub\n        /* \"#utility.yul\":8535:8552   */\n      swap1\n      pop\n        /* \"#utility.yul\":8412:8558   */\n      swap3\n      swap2\n      pop\n      pop\n      jump\t// out\n        /* \"#utility.yul\":8564:8660   */\n    tag_166:\n      0x00\n        /* \"#utility.yul\":8630:8654   */\n      tag_247\n        /* \"#utility.yul\":8648:8653   */\n      dup3\n        /* \"#utility.yul\":8630:8654   */\n      tag_248\n      jump\t// in\n    tag_247:\n        /* \"#utility.yul\":8619:8654   */\n      swap1\n      pop\n        /* \"#utility.yul\":8609:8660   */\n      swap2\n      swap1\n      pop\n      jump\t// out\n        /* \"#utility.yul\":8666:8792   */\n    tag_248:\n      0x00\n        /* \"#utility.yul\":8743:8785   */\n      0xffffffffffffffffffffffffffffffffffffffff\n        /* \"#utility.yul\":8736:8741   */\n      dup3\n        /* \"#utility.yul\":8732:8786   */\n      and\n        /* \"#utility.yul\":8721:8786   */\n      swap1\n      pop\n        /* \"#utility.yul\":8711:8792   */\n      swap2\n      swap1\n      pop\n      jump\t// out\n        /* \"#utility.yul\":8798:8875   */\n    tag_179:\n      0x00\n        /* \"#utility.yul\":8864:8869   */\n      dup2\n        /* \"#utility.yul\":8853:8869   */\n      swap1\n      pop\n        /* \"#utility.yul\":8843:8875   */\n      swap2\n      swap1\n      pop\n      jump\t// out\n        /* \"#utility.yul\":8881:9035   */\n    tag_137:\n        /* \"#utility.yul\":8965:8971   */\n      dup3\n        /* \"#utility.yul\":8960:8963   */\n      dup2\n        /* \"#utility.yul\":8955:8958   */\n      dup4\n        /* \"#utility.yul\":8942:8972   */\n      calldatacopy\n        /* \"#utility.yul\":9027:9028   */\n      0x00\n        /* \"#utility.yul\":9018:9024   */\n      dup4\n        /* \"#utility.yul\":9013:9016   */\n      dup4\n        /* \"#utility.yul\":9009:9025   */\n      add\n        /* \"#utility.yul\":9002:9029   */\n      mstore\n        /* \"#utility.yul\":8932:9035   */\n      pop\n      pop\n      pop\n      jump\t// out\n        /* \"#utility.yul\":9041:9274   */\n    tag_49:\n      0x00\n        /* \"#utility.yul\":9103:9127   */\n      tag_253\n        /* \"#utility.yul\":9121:9126   */\n      dup3\n        /* \"#utility.yul\":9103:9127   */\n      tag_179\n      jump\t// in\n    tag_253:\n        /* \"#utility.yul\":9094:9127   */\n      swap2\n      pop\n        /* \"#utility.yul\":9149:9215   */\n      0xffffffffffffffffffffffffffffffffffffffffffffffffffffffffffffffff\n        /* \"#utility.yul\":9142:9147   */\n      dup3\n        /* \"#utility.yul\":9139:9216   */\n      eq\n        /* \"#utility.yul\":9136:9138   */\n      iszero\n      tag_254\n      jumpi\n        /* \"#utility.yul\":9219:9237   */\n      tag_255\n      tag_204\n      jump\t// in\n    tag_255:\n        /* \"#utility.yul\":9136:9138   */\n    tag_254:\n        /* \"#utility.yul\":9266:9267   */\n      0x01\n        /* \"#utility.yul\":9259:9264   */\n      dup3\n        /* \"#utility.yul\":9255:9268   */\n      add\n        /* \"#utility.yul\":9248:9268   */\n      swap1\n      pop\n        /* \"#utility.yul\":9084:9274   */\n      swap2\n      swap1\n      pop\n      jump\t// out\n        /* \"#utility.yul\":9280:9460   */\n    tag_204:\n        /* \"#utility.yul\":9328:9405   */\n      0x4e487b7100000000000000000000000000000000000000000000000000000000\n        /* \"#utility.yul\":9325:9326   */\n      0x00\n        /* \"#utility.yul\":9318:9406   */\n      mstore\n        /* \"#utility.yul\":9425:9429   */\n      0x11\n        /* \"#utility.yul\":9422:9423   */\n      0x04\n        /* \"#utility.yul\":9415:9430   */\n      mstore\n        /* \"#utility.yul\":9449:9453   */\n      0x24\n        /* \"#utility.yul\":9446:9447   */\n      0x00\n        /* \"#utility.yul\":9439:9454   */\n      revert\n        /* \"#utility.yul\":9466:9646   */\n    tag_195:\n        /* \"#utility.yul\":9514:9591   */\n      0x4e487b7100000000000000000000000000000000000000000000000000000000\n        /* \"#utility.yul\":9511:9512   */\n      0x00\n        /* \"#utility.yul\":9504:9592   */\n      mstore\n        /* \"#utility.yul\":9611:9615   */\n      0x41\n        /* \"#utility.yul\":9608:9609   */\n      0x04\n        /* \"#utility.yul\":9601:9616   */\n      mstore\n        /* \"#utility.yul\":9635:9639   */\n      0x24\n        /* \"#utility.yul\":9632:9633   */\n      0x00\n        /* \"#utility.yul\":9625:9640   */\n      revert\n        /* \"#utility.yul\":9652:9754   */\n    tag_214:\n      0x00\n        /* \"#utility.yul\":9741:9746   */\n      dup2\n        /* \"#utility.yul\":9738:9739   */\n      0x01\n        /* \"#utility.yul\":9734:9747   */\n      shr\n        /* \"#utility.yul\":9713:9747   */\n      swap1\n      pop\n        /* \"#utility.yul\":9703:9754   */\n      swap2\n      swap1\n      pop\n      jump\t// out\n        /* \"#utility.yul\":9760:9882   */\n    tag_141:\n        /* \"#utility.yul\":9833:9857   */\n      tag_260\n        /* \"#utility.yul\":9851:9856   */\n      dup2\n        /* \"#utility.yul\":9833:9857   */\n      tag_166\n      jump\t// in\n    tag_260:\n        /* \"#utility.yul\":9826:9831   */\n      dup2\n        /* \"#utility.yul\":9823:9858   */\n      eq\n        /* \"#utility.yul\":9813:9815   */\n      tag_261\n      jumpi\n        /* \"#utility.yul\":9872:9873   */\n      0x00\n        /* \"#utility.yul\":9869:9870   */\n      dup1\n        /* \"#utility.yul\":9862:9874   */\n      revert\n        /* \"#utility.yul\":9813:9815   */\n    tag_261:\n        /* \"#utility.yul\":9803:9882   */\n      pop\n      jump\t// out\n        /* \"#utility.yul\":9888:10010   */\n    tag_149:\n        /* \"#utility.yul\":9961:9985   */\n      tag_263\n        /* \"#utility.yul\":9979:9984   */\n      dup2\n        /* \"#utility.yul\":9961:9985   */\n      tag_179\n      jump\t// in\n    tag_263:\n        /* \"#utility.yul\":9954:9959   */\n      dup2\n        /* \"#utility.yul\":9951:9986   */\n      eq\n        /* \"#utility.yul\":9941:9943   */\n      tag_264\n      jumpi\n        /* \"#utility.yul\":10000:10001   */\n      0x00\n        /* \"#utility.yul\":9997:9998   */\n      dup1\n        /* \"#utility.yul\":9990:10002   */\n      revert\n        /* \"#utility.yul\":9941:9943   */\n    tag_264:\n        /* \"#utility.yul\":9931:10010   */\n      pop\n      jump\t// out\n\n    auxdata: 0xa2646970667358221220bc772b71e211e73f4c387ea3bde13a4566d7e801f5a8096183834a6d7d985d2e64736f6c63430008000033\n}\n",
				"bytecode": {
					"linkReferences": {},
					"object": "608060405234801561001057600080fd5b50600060018190555061004160018073b5dea2661dfa4b8f0aae8bc1f583369d927c3b06600361004660201b60201c565b610199565b60405180608001604052808581526020018481526020018373ffffffffffffffffffffffffffffffffffffffff168152602001828152506000806001548152602001908152602001600020600082015181600001556020820151816001015560408201518160020160006101000a81548173ffffffffffffffffffffffffffffffffffffffff021916908373ffffffffffffffffffffffffffffffffffffffff160217905550606082015181600301559050506001600081548092919061010c90610121565b919050555050505050565b6000819050919050565b600061012c82610117565b91507fffffffffffffffffffffffffffffffffffffffffffffffffffffffffffffffff82141561015f5761015e61016a565b5b600182019050919050565b7f4e487b7100000000000000000000000000000000000000000000000000000000600052601160045260246000fd5b610f9e806101a86000396000f3fe608060405234801561001057600080fd5b50600436106100575760003560e01c8063013cf08b1461005c57806396caabb81461008f578063cae455ee146100ab578063da35c664146100c7578063e9d6c6da146100e5575b600080fd5b610076600480360381019061007191906109ed565b610115565b6040516100869493929190610b40565b60405180910390f35b6100a960048036038101906100a491906109ac565b610165565b005b6100c560048036038101906100c09190610a16565b6102f8565b005b6100cf6103c9565b6040516100dc9190610b25565b60405180910390f35b6100ff60048036038101906100fa91906109ed565b6103cf565b60405161010c9190610b0a565b60405180910390f35b60006020528060005260406000206000915090508060000154908060010154908060020160009054906101000a900473ffffffffffffffffffffffffffffffffffffffff16908060030154905084565b60006101a56040518060400160405280601181526020017f546869732d49732d412d50726f626c656d00000000000000000000000000000081525061046f565b905060006101e76040518060400160405280600181526020017f2d0000000000000000000000000000000000000000000000000000000000000081525061046f565b905060006101fe828461049d90919063ffffffff16565b67ffffffffffffffff81111561023d577f4e487b7100000000000000000000000000000000000000000000000000000000600052604160045260246000fd5b60405190808252806020026020018201604052801561027057816020015b606081526020019060019003908161025b5790505b50905060005b81518110156102f15761029a610295848661054590919063ffffffff16565b61055f565b8282815181106102d3577f4e487b7100000000000000000000000000000000000000000000000000000000600052603260045260246000fd5b602002602001018190525080806102e990610e86565b915050610276565b5050505050565b60405180608001604052808581526020018481526020018373ffffffffffffffffffffffffffffffffffffffff168152602001828152506000806001548152602001908152602001600020600082015181600001556020820151816001015560408201518160020160006101000a81548173ffffffffffffffffffffffffffffffffffffffff021916908373ffffffffffffffffffffffffffffffffffffffff16021790555060608201518160030155905050600160008154809291906103be90610e86565b919050555050505050565b60015481565b6103d76108c2565b60008083815260200190815260200160002060405180608001604052908160008201548152602001600182015481526020016002820160009054906101000a900473ffffffffffffffffffffffffffffffffffffffff1673ffffffffffffffffffffffffffffffffffffffff1673ffffffffffffffffffffffffffffffffffffffff1681526020016003820154815250509050919050565b610477610900565b600060208301905060405180604001604052808451815260200182815250915050919050565b60008082600001516104c18560000151866020015186600001518760200151610601565b6104cb9190610be6565b90505b836000015184602001516104e29190610be6565b811161053e5781806104f390610e86565b925050826000015161052d85602001518361050e9190610e07565b866000015161051d9190610e07565b8386600001518760200151610601565b6105379190610be6565b90506104ce565b5092915050565b61054d610900565b61055883838361074b565b5092915050565b60606000826000015167ffffffffffffffff8111156105a7577f4e487b7100000000000000000000000000000000000000000000000000000000600052604160045260246000fd5b6040519080825280601f01601f1916602001820160405280156105d95781602001600182028036833780820191505090505b50905060006020820190506105f78185602001518660000151610816565b8192505050919050565b600080849050600086851161073257602085116106d45760008086111561065a5760018660206106319190610e07565b600861063d9190610dad565b60026106499190610c8f565b6106539190610e07565b1960001b90505b60008186511690506000878a8a6106719190610be6565b61067b9190610e07565b905060008386511690505b8281146106c6578186106106ad578a8a6106a09190610be6565b9650505050505050610743565b85806106b890610e86565b965050838651169050610686565b859650505050505050610743565b60008585209050600091505b85886106ec9190610e07565b821161073057600086842090508082141561070d5783945050505050610743565b60018461071a9190610be6565b935050818061072890610e86565b9250506106e0565b505b868661073e9190610be6565b925050505b949350505050565b610753610900565b60006107718560000151866020015186600001518760200151610601565b905084602001518360200181815250508460200151816107919190610e07565b836000018181525050846000015185602001516107ae9190610be6565b8114156107c557600085600001818152505061080b565b836000015183600001516107d99190610be6565b856000018181516107ea9190610e07565b915081815250508360000151816108019190610be6565b8560200181815250505b829150509392505050565b5b6020811061085557815183526020836108309190610be6565b925060208261083f9190610be6565b915060208161084e9190610e07565b9050610817565b60007fffffffffffffffffffffffffffffffffffffffffffffffffffffffffffffffff905060008211156108ac5760018260206108929190610e07565b61010061089f9190610c8f565b6108a99190610e07565b90505b8019835116818551168181178652505050505050565b60405180608001604052806000815260200160008152602001600073ffffffffffffffffffffffffffffffffffffffff168152602001600081525090565b604051806040016040528060008152602001600081525090565b600061092d61092884610bb6565b610b85565b90508281526020810184848401111561094557600080fd5b610950848285610e77565b509392505050565b60008135905061096781610f3a565b92915050565b600082601f83011261097e57600080fd5b813561098e84826020860161091a565b91505092915050565b6000813590506109a681610f51565b92915050565b6000602082840312156109be57600080fd5b600082013567ffffffffffffffff8111156109d857600080fd5b6109e48482850161096d565b91505092915050565b6000602082840312156109ff57600080fd5b6000610a0d84828501610997565b91505092915050565b60008060008060808587031215610a2c57600080fd5b6000610a3a87828801610997565b9450506020610a4b87828801610997565b9350506040610a5c87828801610958565b9250506060610a6d87828801610997565b91505092959194509250565b610a8281610e3b565b82525050565b610a9181610e3b565b82525050565b608082016000820151610aad6000850182610aec565b506020820151610ac06020850182610aec565b506040820151610ad36040850182610a79565b506060820151610ae66060850182610aec565b50505050565b610af581610e6d565b82525050565b610b0481610e6d565b82525050565b6000608082019050610b1f6000830184610a97565b92915050565b6000602082019050610b3a6000830184610afb565b92915050565b6000608082019050610b556000830187610afb565b610b626020830186610afb565b610b6f6040830185610a88565b610b7c6060830184610afb565b95945050505050565b6000604051905081810181811067ffffffffffffffff82111715610bac57610bab610efe565b5b8060405250919050565b600067ffffffffffffffff821115610bd157610bd0610efe565b5b601f19601f8301169050602081019050919050565b6000610bf182610e6d565b9150610bfc83610e6d565b9250827fffffffffffffffffffffffffffffffffffffffffffffffffffffffffffffffff03821115610c3157610c30610ecf565b5b828201905092915050565b6000808291508390505b6001851115610c8657808604811115610c6257610c61610ecf565b5b6001851615610c715780820291505b8081029050610c7f85610f2d565b9450610c46565b94509492505050565b6000610c9a82610e6d565b9150610ca583610e6d565b9250610cd27fffffffffffffffffffffffffffffffffffffffffffffffffffffffffffffffff8484610cda565b905092915050565b600082610cea5760019050610da6565b81610cf85760009050610da6565b8160018114610d0e5760028114610d1857610d47565b6001915050610da6565b60ff841115610d2a57610d29610ecf565b5b8360020a915084821115610d4157610d40610ecf565b5b50610da6565b5060208310610133831016604e8410600b8410161715610d7c5782820a905083811115610d7757610d76610ecf565b5b610da6565b610d898484846001610c3c565b92509050818404811115610da057610d9f610ecf565b5b81810290505b9392505050565b6000610db882610e6d565b9150610dc383610e6d565b9250817fffffffffffffffffffffffffffffffffffffffffffffffffffffffffffffffff0483118215151615610dfc57610dfb610ecf565b5b828202905092915050565b6000610e1282610e6d565b9150610e1d83610e6d565b925082821015610e3057610e2f610ecf565b5b828203905092915050565b6000610e4682610e4d565b9050919050565b600073ffffffffffffffffffffffffffffffffffffffff82169050919050565b6000819050919050565b82818337600083830152505050565b6000610e9182610e6d565b91507fffffffffffffffffffffffffffffffffffffffffffffffffffffffffffffffff821415610ec457610ec3610ecf565b5b600182019050919050565b7f4e487b7100000000000000000000000000000000000000000000000000000000600052601160045260246000fd5b7f4e487b7100000000000000000000000000000000000000000000000000000000600052604160045260246000fd5b60008160011c9050919050565b610f4381610e3b565b8114610f4e57600080fd5b50565b610f5a81610e6d565b8114610f6557600080fd5b5056fea2646970667358221220bc772b71e211e73f4c387ea3bde13a4566d7e801f5a8096183834a6d7d985d2e64736f6c63430008000033",
					"opcodes": "PUSH1 0x80 PUSH1 0x40 MSTORE CALLVALUE DUP1 ISZERO PUSH2 0x10 JUMPI PUSH1 0x0 DUP1 REVERT JUMPDEST POP PUSH1 0x0 PUSH1 0x1 DUP2 SWAP1 SSTORE POP PUSH2 0x41 PUSH1 0x1 DUP1 PUSH20 0xB5DEA2661DFA4B8F0AAE8BC1F583369D927C3B06 PUSH1 0x3 PUSH2 0x46 PUSH1 0x20 SHL PUSH1 0x20 SHR JUMP JUMPDEST PUSH2 0x199 JUMP JUMPDEST PUSH1 0x40 MLOAD DUP1 PUSH1 0x80 ADD PUSH1 0x40 MSTORE DUP1 DUP6 DUP2 MSTORE PUSH1 0x20 ADD DUP5 DUP2 MSTORE PUSH1 0x20 ADD DUP4 PUSH20 0xFFFFFFFFFFFFFFFFFFFFFFFFFFFFFFFFFFFFFFFF AND DUP2 MSTORE PUSH1 0x20 ADD DUP3 DUP2 MSTORE POP PUSH1 0x0 DUP1 PUSH1 0x1 SLOAD DUP2 MSTORE PUSH1 0x20 ADD SWAP1 DUP2 MSTORE PUSH1 0x20 ADD PUSH1 0x0 KECCAK256 PUSH1 0x0 DUP3 ADD MLOAD DUP2 PUSH1 0x0 ADD SSTORE PUSH1 0x20 DUP3 ADD MLOAD DUP2 PUSH1 0x1 ADD SSTORE PUSH1 0x40 DUP3 ADD MLOAD DUP2 PUSH1 0x2 ADD PUSH1 0x0 PUSH2 0x100 EXP DUP2 SLOAD DUP2 PUSH20 0xFFFFFFFFFFFFFFFFFFFFFFFFFFFFFFFFFFFFFFFF MUL NOT AND SWAP1 DUP4 PUSH20 0xFFFFFFFFFFFFFFFFFFFFFFFFFFFFFFFFFFFFFFFF AND MUL OR SWAP1 SSTORE POP PUSH1 0x60 DUP3 ADD MLOAD DUP2 PUSH1 0x3 ADD SSTORE SWAP1 POP POP PUSH1 0x1 PUSH1 0x0 DUP2 SLOAD DUP1 SWAP3 SWAP2 SWAP1 PUSH2 0x10C SWAP1 PUSH2 0x121 JUMP JUMPDEST SWAP2 SWAP1 POP SSTORE POP POP POP POP POP JUMP JUMPDEST PUSH1 0x0 DUP2 SWAP1 POP SWAP2 SWAP1 POP JUMP JUMPDEST PUSH1 0x0 PUSH2 0x12C DUP3 PUSH2 0x117 JUMP JUMPDEST SWAP2 POP PUSH32 0xFFFFFFFFFFFFFFFFFFFFFFFFFFFFFFFFFFFFFFFFFFFFFFFFFFFFFFFFFFFFFFFF DUP3 EQ ISZERO PUSH2 0x15F JUMPI PUSH2 0x15E PUSH2 0x16A JUMP JUMPDEST JUMPDEST PUSH1 0x1 DUP3 ADD SWAP1 POP SWAP2 SWAP1 POP JUMP JUMPDEST PUSH32 0x4E487B7100000000000000000000000000000000000000000000000000000000 PUSH1 0x0 MSTORE PUSH1 0x11 PUSH1 0x4 MSTORE PUSH1 0x24 PUSH1 0x0 REVERT JUMPDEST PUSH2 0xF9E DUP1 PUSH2 0x1A8 PUSH1 0x0 CODECOPY PUSH1 0x0 RETURN INVALID PUSH1 0x80 PUSH1 0x40 MSTORE CALLVALUE DUP1 ISZERO PUSH2 0x10 JUMPI PUSH1 0x0 DUP1 REVERT JUMPDEST POP PUSH1 0x4 CALLDATASIZE LT PUSH2 0x57 JUMPI PUSH1 0x0 CALLDATALOAD PUSH1 0xE0 SHR DUP1 PUSH4 0x13CF08B EQ PUSH2 0x5C JUMPI DUP1 PUSH4 0x96CAABB8 EQ PUSH2 0x8F JUMPI DUP1 PUSH4 0xCAE455EE EQ PUSH2 0xAB JUMPI DUP1 PUSH4 0xDA35C664 EQ PUSH2 0xC7 JUMPI DUP1 PUSH4 0xE9D6C6DA EQ PUSH2 0xE5 JUMPI JUMPDEST PUSH1 0x0 DUP1 REVERT JUMPDEST PUSH2 0x76 PUSH1 0x4 DUP1 CALLDATASIZE SUB DUP2 ADD SWAP1 PUSH2 0x71 SWAP2 SWAP1 PUSH2 0x9ED JUMP JUMPDEST PUSH2 0x115 JUMP JUMPDEST PUSH1 0x40 MLOAD PUSH2 0x86 SWAP5 SWAP4 SWAP3 SWAP2 SWAP1 PUSH2 0xB40 JUMP JUMPDEST PUSH1 0x40 MLOAD DUP1 SWAP2 SUB SWAP1 RETURN JUMPDEST PUSH2 0xA9 PUSH1 0x4 DUP1 CALLDATASIZE SUB DUP2 ADD SWAP1 PUSH2 0xA4 SWAP2 SWAP1 PUSH2 0x9AC JUMP JUMPDEST PUSH2 0x165 JUMP JUMPDEST STOP JUMPDEST PUSH2 0xC5 PUSH1 0x4 DUP1 CALLDATASIZE SUB DUP2 ADD SWAP1 PUSH2 0xC0 SWAP2 SWAP1 PUSH2 0xA16 JUMP JUMPDEST PUSH2 0x2F8 JUMP JUMPDEST STOP JUMPDEST PUSH2 0xCF PUSH2 0x3C9 JUMP JUMPDEST PUSH1 0x40 MLOAD PUSH2 0xDC SWAP2 SWAP1 PUSH2 0xB25 JUMP JUMPDEST PUSH1 0x40 MLOAD DUP1 SWAP2 SUB SWAP1 RETURN JUMPDEST PUSH2 0xFF PUSH1 0x4 DUP1 CALLDATASIZE SUB DUP2 ADD SWAP1 PUSH2 0xFA SWAP2 SWAP1 PUSH2 0x9ED JUMP JUMPDEST PUSH2 0x3CF JUMP JUMPDEST PUSH1 0x40 MLOAD PUSH2 0x10C SWAP2 SWAP1 PUSH2 0xB0A JUMP JUMPDEST PUSH1 0x40 MLOAD DUP1 SWAP2 SUB SWAP1 RETURN JUMPDEST PUSH1 0x0 PUSH1 0x20 MSTORE DUP1 PUSH1 0x0 MSTORE PUSH1 0x40 PUSH1 0x0 KECCAK256 PUSH1 0x0 SWAP2 POP SWAP1 POP DUP1 PUSH1 0x0 ADD SLOAD SWAP1 DUP1 PUSH1 0x1 ADD SLOAD SWAP1 DUP1 PUSH1 0x2 ADD PUSH1 0x0 SWAP1 SLOAD SWAP1 PUSH2 0x100 EXP SWAP1 DIV PUSH20 0xFFFFFFFFFFFFFFFFFFFFFFFFFFFFFFFFFFFFFFFF AND SWAP1 DUP1 PUSH1 0x3 ADD SLOAD SWAP1 POP DUP5 JUMP JUMPDEST PUSH1 0x0 PUSH2 0x1A5 PUSH1 0x40 MLOAD DUP1 PUSH1 0x40 ADD PUSH1 0x40 MSTORE DUP1 PUSH1 0x11 DUP2 MSTORE PUSH1 0x20 ADD PUSH32 0x546869732D49732D412D50726F626C656D000000000000000000000000000000 DUP2 MSTORE POP PUSH2 0x46F JUMP JUMPDEST SWAP1 POP PUSH1 0x0 PUSH2 0x1E7 PUSH1 0x40 MLOAD DUP1 PUSH1 0x40 ADD PUSH1 0x40 MSTORE DUP1 PUSH1 0x1 DUP2 MSTORE PUSH1 0x20 ADD PUSH32 0x2D00000000000000000000000000000000000000000000000000000000000000 DUP2 MSTORE POP PUSH2 0x46F JUMP JUMPDEST SWAP1 POP PUSH1 0x0 PUSH2 0x1FE DUP3 DUP5 PUSH2 0x49D SWAP1 SWAP2 SWAP1 PUSH4 0xFFFFFFFF AND JUMP JUMPDEST PUSH8 0xFFFFFFFFFFFFFFFF DUP2 GT ISZERO PUSH2 0x23D JUMPI PUSH32 0x4E487B7100000000000000000000000000000000000000000000000000000000 PUSH1 0x0 MSTORE PUSH1 0x41 PUSH1 0x4 MSTORE PUSH1 0x24 PUSH1 0x0 REVERT JUMPDEST PUSH1 0x40 MLOAD SWAP1 DUP1 DUP3 MSTORE DUP1 PUSH1 0x20 MUL PUSH1 0x20 ADD DUP3 ADD PUSH1 0x40 MSTORE DUP1 ISZERO PUSH2 0x270 JUMPI DUP2 PUSH1 0x20 ADD JUMPDEST PUSH1 0x60 DUP2 MSTORE PUSH1 0x20 ADD SWAP1 PUSH1 0x1 SWAP1 SUB SWAP1 DUP2 PUSH2 0x25B JUMPI SWAP1 POP JUMPDEST POP SWAP1 POP PUSH1 0x0 JUMPDEST DUP2 MLOAD DUP2 LT ISZERO PUSH2 0x2F1 JUMPI PUSH2 0x29A PUSH2 0x295 DUP5 DUP7 PUSH2 0x545 SWAP1 SWAP2 SWAP1 PUSH4 0xFFFFFFFF AND JUMP JUMPDEST PUSH2 0x55F JUMP JUMPDEST DUP3 DUP3 DUP2 MLOAD DUP2 LT PUSH2 0x2D3 JUMPI PUSH32 0x4E487B7100000000000000000000000000000000000000000000000000000000 PUSH1 0x0 MSTORE PUSH1 0x32 PUSH1 0x4 MSTORE PUSH1 0x24 PUSH1 0x0 REVERT JUMPDEST PUSH1 0x20 MUL PUSH1 0x20 ADD ADD DUP2 SWAP1 MSTORE POP DUP1 DUP1 PUSH2 0x2E9 SWAP1 PUSH2 0xE86 JUMP JUMPDEST SWAP2 POP POP PUSH2 0x276 JUMP JUMPDEST POP POP POP POP POP JUMP JUMPDEST PUSH1 0x40 MLOAD DUP1 PUSH1 0x80 ADD PUSH1 0x40 MSTORE DUP1 DUP6 DUP2 MSTORE PUSH1 0x20 ADD DUP5 DUP2 MSTORE PUSH1 0x20 ADD DUP4 PUSH20 0xFFFFFFFFFFFFFFFFFFFFFFFFFFFFFFFFFFFFFFFF AND DUP2 MSTORE PUSH1 0x20 ADD DUP3 DUP2 MSTORE POP PUSH1 0x0 DUP1 PUSH1 0x1 SLOAD DUP2 MSTORE PUSH1 0x20 ADD SWAP1 DUP2 MSTORE PUSH1 0x20 ADD PUSH1 0x0 KECCAK256 PUSH1 0x0 DUP3 ADD MLOAD DUP2 PUSH1 0x0 ADD SSTORE PUSH1 0x20 DUP3 ADD MLOAD DUP2 PUSH1 0x1 ADD SSTORE PUSH1 0x40 DUP3 ADD MLOAD DUP2 PUSH1 0x2 ADD PUSH1 0x0 PUSH2 0x100 EXP DUP2 SLOAD DUP2 PUSH20 0xFFFFFFFFFFFFFFFFFFFFFFFFFFFFFFFFFFFFFFFF MUL NOT AND SWAP1 DUP4 PUSH20 0xFFFFFFFFFFFFFFFFFFFFFFFFFFFFFFFFFFFFFFFF AND MUL OR SWAP1 SSTORE POP PUSH1 0x60 DUP3 ADD MLOAD DUP2 PUSH1 0x3 ADD SSTORE SWAP1 POP POP PUSH1 0x1 PUSH1 0x0 DUP2 SLOAD DUP1 SWAP3 SWAP2 SWAP1 PUSH2 0x3BE SWAP1 PUSH2 0xE86 JUMP JUMPDEST SWAP2 SWAP1 POP SSTORE POP POP POP POP POP JUMP JUMPDEST PUSH1 0x1 SLOAD DUP2 JUMP JUMPDEST PUSH2 0x3D7 PUSH2 0x8C2 JUMP JUMPDEST PUSH1 0x0 DUP1 DUP4 DUP2 MSTORE PUSH1 0x20 ADD SWAP1 DUP2 MSTORE PUSH1 0x20 ADD PUSH1 0x0 KECCAK256 PUSH1 0x40 MLOAD DUP1 PUSH1 0x80 ADD PUSH1 0x40 MSTORE SWAP1 DUP2 PUSH1 0x0 DUP3 ADD SLOAD DUP2 MSTORE PUSH1 0x20 ADD PUSH1 0x1 DUP3 ADD SLOAD DUP2 MSTORE PUSH1 0x20 ADD PUSH1 0x2 DUP3 ADD PUSH1 0x0 SWAP1 SLOAD SWAP1 PUSH2 0x100 EXP SWAP1 DIV PUSH20 0xFFFFFFFFFFFFFFFFFFFFFFFFFFFFFFFFFFFFFFFF AND PUSH20 0xFFFFFFFFFFFFFFFFFFFFFFFFFFFFFFFFFFFFFFFF AND PUSH20 0xFFFFFFFFFFFFFFFFFFFFFFFFFFFFFFFFFFFFFFFF AND DUP2 MSTORE PUSH1 0x20 ADD PUSH1 0x3 DUP3 ADD SLOAD DUP2 MSTORE POP POP SWAP1 POP SWAP2 SWAP1 POP JUMP JUMPDEST PUSH2 0x477 PUSH2 0x900 JUMP JUMPDEST PUSH1 0x0 PUSH1 0x20 DUP4 ADD SWAP1 POP PUSH1 0x40 MLOAD DUP1 PUSH1 0x40 ADD PUSH1 0x40 MSTORE DUP1 DUP5 MLOAD DUP2 MSTORE PUSH1 0x20 ADD DUP3 DUP2 MSTORE POP SWAP2 POP POP SWAP2 SWAP1 POP JUMP JUMPDEST PUSH1 0x0 DUP1 DUP3 PUSH1 0x0 ADD MLOAD PUSH2 0x4C1 DUP6 PUSH1 0x0 ADD MLOAD DUP7 PUSH1 0x20 ADD MLOAD DUP7 PUSH1 0x0 ADD MLOAD DUP8 PUSH1 0x20 ADD MLOAD PUSH2 0x601 JUMP JUMPDEST PUSH2 0x4CB SWAP2 SWAP1 PUSH2 0xBE6 JUMP JUMPDEST SWAP1 POP JUMPDEST DUP4 PUSH1 0x0 ADD MLOAD DUP5 PUSH1 0x20 ADD MLOAD PUSH2 0x4E2 SWAP2 SWAP1 PUSH2 0xBE6 JUMP JUMPDEST DUP2 GT PUSH2 0x53E JUMPI DUP2 DUP1 PUSH2 0x4F3 SWAP1 PUSH2 0xE86 JUMP JUMPDEST SWAP3 POP POP DUP3 PUSH1 0x0 ADD MLOAD PUSH2 0x52D DUP6 PUSH1 0x20 ADD MLOAD DUP4 PUSH2 0x50E SWAP2 SWAP1 PUSH2 0xE07 JUMP JUMPDEST DUP7 PUSH1 0x0 ADD MLOAD PUSH2 0x51D SWAP2 SWAP1 PUSH2 0xE07 JUMP JUMPDEST DUP4 DUP7 PUSH1 0x0 ADD MLOAD DUP8 PUSH1 0x20 ADD MLOAD PUSH2 0x601 JUMP JUMPDEST PUSH2 0x537 SWAP2 SWAP1 PUSH2 0xBE6 JUMP JUMPDEST SWAP1 POP PUSH2 0x4CE JUMP JUMPDEST POP SWAP3 SWAP2 POP POP JUMP JUMPDEST PUSH2 0x54D PUSH2 0x900 JUMP JUMPDEST PUSH2 0x558 DUP4 DUP4 DUP4 PUSH2 0x74B JUMP JUMPDEST POP SWAP3 SWAP2 POP POP JUMP JUMPDEST PUSH1 0x60 PUSH1 0x0 DUP3 PUSH1 0x0 ADD MLOAD PUSH8 0xFFFFFFFFFFFFFFFF DUP2 GT ISZERO PUSH2 0x5A7 JUMPI PUSH32 0x4E487B7100000000000000000000000000000000000000000000000000000000 PUSH1 0x0 MSTORE PUSH1 0x41 PUSH1 0x4 MSTORE PUSH1 0x24 PUSH1 0x0 REVERT JUMPDEST PUSH1 0x40 MLOAD SWAP1 DUP1 DUP3 MSTORE DUP1 PUSH1 0x1F ADD PUSH1 0x1F NOT AND PUSH1 0x20 ADD DUP3 ADD PUSH1 0x40 MSTORE DUP1 ISZERO PUSH2 0x5D9 JUMPI DUP2 PUSH1 0x20 ADD PUSH1 0x1 DUP3 MUL DUP1 CALLDATASIZE DUP4 CALLDATACOPY DUP1 DUP3 ADD SWAP2 POP POP SWAP1 POP JUMPDEST POP SWAP1 POP PUSH1 0x0 PUSH1 0x20 DUP3 ADD SWAP1 POP PUSH2 0x5F7 DUP2 DUP6 PUSH1 0x20 ADD MLOAD DUP7 PUSH1 0x0 ADD MLOAD PUSH2 0x816 JUMP JUMPDEST DUP2 SWAP3 POP POP POP SWAP2 SWAP1 POP JUMP JUMPDEST PUSH1 0x0 DUP1 DUP5 SWAP1 POP PUSH1 0x0 DUP7 DUP6 GT PUSH2 0x732 JUMPI PUSH1 0x20 DUP6 GT PUSH2 0x6D4 JUMPI PUSH1 0x0 DUP1 DUP7 GT ISZERO PUSH2 0x65A JUMPI PUSH1 0x1 DUP7 PUSH1 0x20 PUSH2 0x631 SWAP2 SWAP1 PUSH2 0xE07 JUMP JUMPDEST PUSH1 0x8 PUSH2 0x63D SWAP2 SWAP1 PUSH2 0xDAD JUMP JUMPDEST PUSH1 0x2 PUSH2 0x649 SWAP2 SWAP1 PUSH2 0xC8F JUMP JUMPDEST PUSH2 0x653 SWAP2 SWAP1 PUSH2 0xE07 JUMP JUMPDEST NOT PUSH1 0x0 SHL SWAP1 POP JUMPDEST PUSH1 0x0 DUP2 DUP7 MLOAD AND SWAP1 POP PUSH1 0x0 DUP8 DUP11 DUP11 PUSH2 0x671 SWAP2 SWAP1 PUSH2 0xBE6 JUMP JUMPDEST PUSH2 0x67B SWAP2 SWAP1 PUSH2 0xE07 JUMP JUMPDEST SWAP1 POP PUSH1 0x0 DUP4 DUP7 MLOAD AND SWAP1 POP JUMPDEST DUP3 DUP2 EQ PUSH2 0x6C6 JUMPI DUP2 DUP7 LT PUSH2 0x6AD JUMPI DUP11 DUP11 PUSH2 0x6A0 SWAP2 SWAP1 PUSH2 0xBE6 JUMP JUMPDEST SWAP7 POP POP POP POP POP POP POP PUSH2 0x743 JUMP JUMPDEST DUP6 DUP1 PUSH2 0x6B8 SWAP1 PUSH2 0xE86 JUMP JUMPDEST SWAP7 POP POP DUP4 DUP7 MLOAD AND SWAP1 POP PUSH2 0x686 JUMP JUMPDEST DUP6 SWAP7 POP POP POP POP POP POP POP PUSH2 0x743 JUMP JUMPDEST PUSH1 0x0 DUP6 DUP6 KECCAK256 SWAP1 POP PUSH1 0x0 SWAP2 POP JUMPDEST DUP6 DUP9 PUSH2 0x6EC SWAP2 SWAP1 PUSH2 0xE07 JUMP JUMPDEST DUP3 GT PUSH2 0x730 JUMPI PUSH1 0x0 DUP7 DUP5 KECCAK256 SWAP1 POP DUP1 DUP3 EQ ISZERO PUSH2 0x70D JUMPI DUP4 SWAP5 POP POP POP POP POP PUSH2 0x743 JUMP JUMPDEST PUSH1 0x1 DUP5 PUSH2 0x71A SWAP2 SWAP1 PUSH2 0xBE6 JUMP JUMPDEST SWAP4 POP POP DUP2 DUP1 PUSH2 0x728 SWAP1 PUSH2 0xE86 JUMP JUMPDEST SWAP3 POP POP PUSH2 0x6E0 JUMP JUMPDEST POP JUMPDEST DUP7 DUP7 PUSH2 0x73E SWAP2 SWAP1 PUSH2 0xBE6 JUMP JUMPDEST SWAP3 POP POP POP JUMPDEST SWAP5 SWAP4 POP POP POP POP JUMP JUMPDEST PUSH2 0x753 PUSH2 0x900 JUMP JUMPDEST PUSH1 0x0 PUSH2 0x771 DUP6 PUSH1 0x0 ADD MLOAD DUP7 PUSH1 0x20 ADD MLOAD DUP7 PUSH1 0x0 ADD MLOAD DUP8 PUSH1 0x20 ADD MLOAD PUSH2 0x601 JUMP JUMPDEST SWAP1 POP DUP5 PUSH1 0x20 ADD MLOAD DUP4 PUSH1 0x20 ADD DUP2 DUP2 MSTORE POP POP DUP5 PUSH1 0x20 ADD MLOAD DUP2 PUSH2 0x791 SWAP2 SWAP1 PUSH2 0xE07 JUMP JUMPDEST DUP4 PUSH1 0x0 ADD DUP2 DUP2 MSTORE POP POP DUP5 PUSH1 0x0 ADD MLOAD DUP6 PUSH1 0x20 ADD MLOAD PUSH2 0x7AE SWAP2 SWAP1 PUSH2 0xBE6 JUMP JUMPDEST DUP2 EQ ISZERO PUSH2 0x7C5 JUMPI PUSH1 0x0 DUP6 PUSH1 0x0 ADD DUP2 DUP2 MSTORE POP POP PUSH2 0x80B JUMP JUMPDEST DUP4 PUSH1 0x0 ADD MLOAD DUP4 PUSH1 0x0 ADD MLOAD PUSH2 0x7D9 SWAP2 SWAP1 PUSH2 0xBE6 JUMP JUMPDEST DUP6 PUSH1 0x0 ADD DUP2 DUP2 MLOAD PUSH2 0x7EA SWAP2 SWAP1 PUSH2 0xE07 JUMP JUMPDEST SWAP2 POP DUP2 DUP2 MSTORE POP POP DUP4 PUSH1 0x0 ADD MLOAD DUP2 PUSH2 0x801 SWAP2 SWAP1 PUSH2 0xBE6 JUMP JUMPDEST DUP6 PUSH1 0x20 ADD DUP2 DUP2 MSTORE POP POP JUMPDEST DUP3 SWAP2 POP POP SWAP4 SWAP3 POP POP POP JUMP JUMPDEST JUMPDEST PUSH1 0x20 DUP2 LT PUSH2 0x855 JUMPI DUP2 MLOAD DUP4 MSTORE PUSH1 0x20 DUP4 PUSH2 0x830 SWAP2 SWAP1 PUSH2 0xBE6 JUMP JUMPDEST SWAP3 POP PUSH1 0x20 DUP3 PUSH2 0x83F SWAP2 SWAP1 PUSH2 0xBE6 JUMP JUMPDEST SWAP2 POP PUSH1 0x20 DUP2 PUSH2 0x84E SWAP2 SWAP1 PUSH2 0xE07 JUMP JUMPDEST SWAP1 POP PUSH2 0x817 JUMP JUMPDEST PUSH1 0x0 PUSH32 0xFFFFFFFFFFFFFFFFFFFFFFFFFFFFFFFFFFFFFFFFFFFFFFFFFFFFFFFFFFFFFFFF SWAP1 POP PUSH1 0x0 DUP3 GT ISZERO PUSH2 0x8AC JUMPI PUSH1 0x1 DUP3 PUSH1 0x20 PUSH2 0x892 SWAP2 SWAP1 PUSH2 0xE07 JUMP JUMPDEST PUSH2 0x100 PUSH2 0x89F SWAP2 SWAP1 PUSH2 0xC8F JUMP JUMPDEST PUSH2 0x8A9 SWAP2 SWAP1 PUSH2 0xE07 JUMP JUMPDEST SWAP1 POP JUMPDEST DUP1 NOT DUP4 MLOAD AND DUP2 DUP6 MLOAD AND DUP2 DUP2 OR DUP7 MSTORE POP POP POP POP POP POP JUMP JUMPDEST PUSH1 0x40 MLOAD DUP1 PUSH1 0x80 ADD PUSH1 0x40 MSTORE DUP1 PUSH1 0x0 DUP2 MSTORE PUSH1 0x20 ADD PUSH1 0x0 DUP2 MSTORE PUSH1 0x20 ADD PUSH1 0x0 PUSH20 0xFFFFFFFFFFFFFFFFFFFFFFFFFFFFFFFFFFFFFFFF AND DUP2 MSTORE PUSH1 0x20 ADD PUSH1 0x0 DUP2 MSTORE POP SWAP1 JUMP JUMPDEST PUSH1 0x40 MLOAD DUP1 PUSH1 0x40 ADD PUSH1 0x40 MSTORE DUP1 PUSH1 0x0 DUP2 MSTORE PUSH1 0x20 ADD PUSH1 0x0 DUP2 MSTORE POP SWAP1 JUMP JUMPDEST PUSH1 0x0 PUSH2 0x92D PUSH2 0x928 DUP5 PUSH2 0xBB6 JUMP JUMPDEST PUSH2 0xB85 JUMP JUMPDEST SWAP1 POP DUP3 DUP2 MSTORE PUSH1 0x20 DUP2 ADD DUP5 DUP5 DUP5 ADD GT ISZERO PUSH2 0x945 JUMPI PUSH1 0x0 DUP1 REVERT JUMPDEST PUSH2 0x950 DUP5 DUP3 DUP6 PUSH2 0xE77 JUMP JUMPDEST POP SWAP4 SWAP3 POP POP POP JUMP JUMPDEST PUSH1 0x0 DUP2 CALLDATALOAD SWAP1 POP PUSH2 0x967 DUP2 PUSH2 0xF3A JUMP JUMPDEST SWAP3 SWAP2 POP POP JUMP JUMPDEST PUSH1 0x0 DUP3 PUSH1 0x1F DUP4 ADD SLT PUSH2 0x97E JUMPI PUSH1 0x0 DUP1 REVERT JUMPDEST DUP2 CALLDATALOAD PUSH2 0x98E DUP5 DUP3 PUSH1 0x20 DUP7 ADD PUSH2 0x91A JUMP JUMPDEST SWAP2 POP POP SWAP3 SWAP2 POP POP JUMP JUMPDEST PUSH1 0x0 DUP2 CALLDATALOAD SWAP1 POP PUSH2 0x9A6 DUP2 PUSH2 0xF51 JUMP JUMPDEST SWAP3 SWAP2 POP POP JUMP JUMPDEST PUSH1 0x0 PUSH1 0x20 DUP3 DUP5 SUB SLT ISZERO PUSH2 0x9BE JUMPI PUSH1 0x0 DUP1 REVERT JUMPDEST PUSH1 0x0 DUP3 ADD CALLDATALOAD PUSH8 0xFFFFFFFFFFFFFFFF DUP2 GT ISZERO PUSH2 0x9D8 JUMPI PUSH1 0x0 DUP1 REVERT JUMPDEST PUSH2 0x9E4 DUP5 DUP3 DUP6 ADD PUSH2 0x96D JUMP JUMPDEST SWAP2 POP POP SWAP3 SWAP2 POP POP JUMP JUMPDEST PUSH1 0x0 PUSH1 0x20 DUP3 DUP5 SUB SLT ISZERO PUSH2 0x9FF JUMPI PUSH1 0x0 DUP1 REVERT JUMPDEST PUSH1 0x0 PUSH2 0xA0D DUP5 DUP3 DUP6 ADD PUSH2 0x997 JUMP JUMPDEST SWAP2 POP POP SWAP3 SWAP2 POP POP JUMP JUMPDEST PUSH1 0x0 DUP1 PUSH1 0x0 DUP1 PUSH1 0x80 DUP6 DUP8 SUB SLT ISZERO PUSH2 0xA2C JUMPI PUSH1 0x0 DUP1 REVERT JUMPDEST PUSH1 0x0 PUSH2 0xA3A DUP8 DUP3 DUP9 ADD PUSH2 0x997 JUMP JUMPDEST SWAP5 POP POP PUSH1 0x20 PUSH2 0xA4B DUP8 DUP3 DUP9 ADD PUSH2 0x997 JUMP JUMPDEST SWAP4 POP POP PUSH1 0x40 PUSH2 0xA5C DUP8 DUP3 DUP9 ADD PUSH2 0x958 JUMP JUMPDEST SWAP3 POP POP PUSH1 0x60 PUSH2 0xA6D DUP8 DUP3 DUP9 ADD PUSH2 0x997 JUMP JUMPDEST SWAP2 POP POP SWAP3 SWAP6 SWAP2 SWAP5 POP SWAP3 POP JUMP JUMPDEST PUSH2 0xA82 DUP2 PUSH2 0xE3B JUMP JUMPDEST DUP3 MSTORE POP POP JUMP JUMPDEST PUSH2 0xA91 DUP2 PUSH2 0xE3B JUMP JUMPDEST DUP3 MSTORE POP POP JUMP JUMPDEST PUSH1 0x80 DUP3 ADD PUSH1 0x0 DUP3 ADD MLOAD PUSH2 0xAAD PUSH1 0x0 DUP6 ADD DUP3 PUSH2 0xAEC JUMP JUMPDEST POP PUSH1 0x20 DUP3 ADD MLOAD PUSH2 0xAC0 PUSH1 0x20 DUP6 ADD DUP3 PUSH2 0xAEC JUMP JUMPDEST POP PUSH1 0x40 DUP3 ADD MLOAD PUSH2 0xAD3 PUSH1 0x40 DUP6 ADD DUP3 PUSH2 0xA79 JUMP JUMPDEST POP PUSH1 0x60 DUP3 ADD MLOAD PUSH2 0xAE6 PUSH1 0x60 DUP6 ADD DUP3 PUSH2 0xAEC JUMP JUMPDEST POP POP POP POP JUMP JUMPDEST PUSH2 0xAF5 DUP2 PUSH2 0xE6D JUMP JUMPDEST DUP3 MSTORE POP POP JUMP JUMPDEST PUSH2 0xB04 DUP2 PUSH2 0xE6D JUMP JUMPDEST DUP3 MSTORE POP POP JUMP JUMPDEST PUSH1 0x0 PUSH1 0x80 DUP3 ADD SWAP1 POP PUSH2 0xB1F PUSH1 0x0 DUP4 ADD DUP5 PUSH2 0xA97 JUMP JUMPDEST SWAP3 SWAP2 POP POP JUMP JUMPDEST PUSH1 0x0 PUSH1 0x20 DUP3 ADD SWAP1 POP PUSH2 0xB3A PUSH1 0x0 DUP4 ADD DUP5 PUSH2 0xAFB JUMP JUMPDEST SWAP3 SWAP2 POP POP JUMP JUMPDEST PUSH1 0x0 PUSH1 0x80 DUP3 ADD SWAP1 POP PUSH2 0xB55 PUSH1 0x0 DUP4 ADD DUP8 PUSH2 0xAFB JUMP JUMPDEST PUSH2 0xB62 PUSH1 0x20 DUP4 ADD DUP7 PUSH2 0xAFB JUMP JUMPDEST PUSH2 0xB6F PUSH1 0x40 DUP4 ADD DUP6 PUSH2 0xA88 JUMP JUMPDEST PUSH2 0xB7C PUSH1 0x60 DUP4 ADD DUP5 PUSH2 0xAFB JUMP JUMPDEST SWAP6 SWAP5 POP POP POP POP POP JUMP JUMPDEST PUSH1 0x0 PUSH1 0x40 MLOAD SWAP1 POP DUP2 DUP2 ADD DUP2 DUP2 LT PUSH8 0xFFFFFFFFFFFFFFFF DUP3 GT OR ISZERO PUSH2 0xBAC JUMPI PUSH2 0xBAB PUSH2 0xEFE JUMP JUMPDEST JUMPDEST DUP1 PUSH1 0x40 MSTORE POP SWAP2 SWAP1 POP JUMP JUMPDEST PUSH1 0x0 PUSH8 0xFFFFFFFFFFFFFFFF DUP3 GT ISZERO PUSH2 0xBD1 JUMPI PUSH2 0xBD0 PUSH2 0xEFE JUMP JUMPDEST JUMPDEST PUSH1 0x1F NOT PUSH1 0x1F DUP4 ADD AND SWAP1 POP PUSH1 0x20 DUP2 ADD SWAP1 POP SWAP2 SWAP1 POP JUMP JUMPDEST PUSH1 0x0 PUSH2 0xBF1 DUP3 PUSH2 0xE6D JUMP JUMPDEST SWAP2 POP PUSH2 0xBFC DUP4 PUSH2 0xE6D JUMP JUMPDEST SWAP3 POP DUP3 PUSH32 0xFFFFFFFFFFFFFFFFFFFFFFFFFFFFFFFFFFFFFFFFFFFFFFFFFFFFFFFFFFFFFFFF SUB DUP3 GT ISZERO PUSH2 0xC31 JUMPI PUSH2 0xC30 PUSH2 0xECF JUMP JUMPDEST JUMPDEST DUP3 DUP3 ADD SWAP1 POP SWAP3 SWAP2 POP POP JUMP JUMPDEST PUSH1 0x0 DUP1 DUP3 SWAP2 POP DUP4 SWAP1 POP JUMPDEST PUSH1 0x1 DUP6 GT ISZERO PUSH2 0xC86 JUMPI DUP1 DUP7 DIV DUP2 GT ISZERO PUSH2 0xC62 JUMPI PUSH2 0xC61 PUSH2 0xECF JUMP JUMPDEST JUMPDEST PUSH1 0x1 DUP6 AND ISZERO PUSH2 0xC71 JUMPI DUP1 DUP3 MUL SWAP2 POP JUMPDEST DUP1 DUP2 MUL SWAP1 POP PUSH2 0xC7F DUP6 PUSH2 0xF2D JUMP JUMPDEST SWAP5 POP PUSH2 0xC46 JUMP JUMPDEST SWAP5 POP SWAP5 SWAP3 POP POP POP JUMP JUMPDEST PUSH1 0x0 PUSH2 0xC9A DUP3 PUSH2 0xE6D JUMP JUMPDEST SWAP2 POP PUSH2 0xCA5 DUP4 PUSH2 0xE6D JUMP JUMPDEST SWAP3 POP PUSH2 0xCD2 PUSH32 0xFFFFFFFFFFFFFFFFFFFFFFFFFFFFFFFFFFFFFFFFFFFFFFFFFFFFFFFFFFFFFFFF DUP5 DUP5 PUSH2 0xCDA JUMP JUMPDEST SWAP1 POP SWAP3 SWAP2 POP POP JUMP JUMPDEST PUSH1 0x0 DUP3 PUSH2 0xCEA JUMPI PUSH1 0x1 SWAP1 POP PUSH2 0xDA6 JUMP JUMPDEST DUP2 PUSH2 0xCF8 JUMPI PUSH1 0x0 SWAP1 POP PUSH2 0xDA6 JUMP JUMPDEST DUP2 PUSH1 0x1 DUP2 EQ PUSH2 0xD0E JUMPI PUSH1 0x2 DUP2 EQ PUSH2 0xD18 JUMPI PUSH2 0xD47 JUMP JUMPDEST PUSH1 0x1 SWAP2 POP POP PUSH2 0xDA6 JUMP JUMPDEST PUSH1 0xFF DUP5 GT ISZERO PUSH2 0xD2A JUMPI PUSH2 0xD29 PUSH2 0xECF JUMP JUMPDEST JUMPDEST DUP4 PUSH1 0x2 EXP SWAP2 POP DUP5 DUP3 GT ISZERO PUSH2 0xD41 JUMPI PUSH2 0xD40 PUSH2 0xECF JUMP JUMPDEST JUMPDEST POP PUSH2 0xDA6 JUMP JUMPDEST POP PUSH1 0x20 DUP4 LT PUSH2 0x133 DUP4 LT AND PUSH1 0x4E DUP5 LT PUSH1 0xB DUP5 LT AND OR ISZERO PUSH2 0xD7C JUMPI DUP3 DUP3 EXP SWAP1 POP DUP4 DUP2 GT ISZERO PUSH2 0xD77 JUMPI PUSH2 0xD76 PUSH2 0xECF JUMP JUMPDEST JUMPDEST PUSH2 0xDA6 JUMP JUMPDEST PUSH2 0xD89 DUP5 DUP5 DUP5 PUSH1 0x1 PUSH2 0xC3C JUMP JUMPDEST SWAP3 POP SWAP1 POP DUP2 DUP5 DIV DUP2 GT ISZERO PUSH2 0xDA0 JUMPI PUSH2 0xD9F PUSH2 0xECF JUMP JUMPDEST JUMPDEST DUP2 DUP2 MUL SWAP1 POP JUMPDEST SWAP4 SWAP3 POP POP POP JUMP JUMPDEST PUSH1 0x0 PUSH2 0xDB8 DUP3 PUSH2 0xE6D JUMP JUMPDEST SWAP2 POP PUSH2 0xDC3 DUP4 PUSH2 0xE6D JUMP JUMPDEST SWAP3 POP DUP2 PUSH32 0xFFFFFFFFFFFFFFFFFFFFFFFFFFFFFFFFFFFFFFFFFFFFFFFFFFFFFFFFFFFFFFFF DIV DUP4 GT DUP3 ISZERO ISZERO AND ISZERO PUSH2 0xDFC JUMPI PUSH2 0xDFB PUSH2 0xECF JUMP JUMPDEST JUMPDEST DUP3 DUP3 MUL SWAP1 POP SWAP3 SWAP2 POP POP JUMP JUMPDEST PUSH1 0x0 PUSH2 0xE12 DUP3 PUSH2 0xE6D JUMP JUMPDEST SWAP2 POP PUSH2 0xE1D DUP4 PUSH2 0xE6D JUMP JUMPDEST SWAP3 POP DUP3 DUP3 LT ISZERO PUSH2 0xE30 JUMPI PUSH2 0xE2F PUSH2 0xECF JUMP JUMPDEST JUMPDEST DUP3 DUP3 SUB SWAP1 POP SWAP3 SWAP2 POP POP JUMP JUMPDEST PUSH1 0x0 PUSH2 0xE46 DUP3 PUSH2 0xE4D JUMP JUMPDEST SWAP1 POP SWAP2 SWAP1 POP JUMP JUMPDEST PUSH1 0x0 PUSH20 0xFFFFFFFFFFFFFFFFFFFFFFFFFFFFFFFFFFFFFFFF DUP3 AND SWAP1 POP SWAP2 SWAP1 POP JUMP JUMPDEST PUSH1 0x0 DUP2 SWAP1 POP SWAP2 SWAP1 POP JUMP JUMPDEST DUP3 DUP2 DUP4 CALLDATACOPY PUSH1 0x0 DUP4 DUP4 ADD MSTORE POP POP POP JUMP JUMPDEST PUSH1 0x0 PUSH2 0xE91 DUP3 PUSH2 0xE6D JUMP JUMPDEST SWAP2 POP PUSH32 0xFFFFFFFFFFFFFFFFFFFFFFFFFFFFFFFFFFFFFFFFFFFFFFFFFFFFFFFFFFFFFFFF DUP3 EQ ISZERO PUSH2 0xEC4 JUMPI PUSH2 0xEC3 PUSH2 0xECF JUMP JUMPDEST JUMPDEST PUSH1 0x1 DUP3 ADD SWAP1 POP SWAP2 SWAP1 POP JUMP JUMPDEST PUSH32 0x4E487B7100000000000000000000000000000000000000000000000000000000 PUSH1 0x0 MSTORE PUSH1 0x11 PUSH1 0x4 MSTORE PUSH1 0x24 PUSH1 0x0 REVERT JUMPDEST PUSH32 0x4E487B7100000000000000000000000000000000000000000000000000000000 PUSH1 0x0 MSTORE PUSH1 0x41 PUSH1 0x4 MSTORE PUSH1 0x24 PUSH1 0x0 REVERT JUMPDEST PUSH1 0x0 DUP2 PUSH1 0x1 SHR SWAP1 POP SWAP2 SWAP1 POP JUMP JUMPDEST PUSH2 0xF43 DUP2 PUSH2 0xE3B JUMP JUMPDEST DUP2 EQ PUSH2 0xF4E JUMPI PUSH1 0x0 DUP1 REVERT JUMPDEST POP JUMP JUMPDEST PUSH2 0xF5A DUP2 PUSH2 0xE6D JUMP JUMPDEST DUP2 EQ PUSH2 0xF65 JUMPI PUSH1 0x0 DUP1 REVERT JUMPDEST POP JUMP INVALID LOG2 PUSH5 0x6970667358 0x22 SLT KECCAK256 0xBC PUSH24 0x2B71E211E73F4C387EA3BDE13A4566D7E801F5A809618383 0x4A PUSH14 0x7D985D2E64736F6C634300080000 CALLER "
				},
				"gasEstimates": {
					"creation": {
						"codeDepositCost": "799600",
						"executionCost": "infinite",
						"totalCost": "infinite"
					},
					"external": {
						"addProposal(uint256,uint256,address,uint256)": "infinite",
						"getProposalStructure(uint256)": "infinite",
						"proposalCount()": "1173",
						"proposals(uint256)": "infinite",
						"smt(string)": "infinite"
					}
				},
				"methodIdentifiers": {
					"addProposal(uint256,uint256,address,uint256)": "cae455ee",
					"getProposalStructure(uint256)": "e9d6c6da",
					"proposalCount()": "da35c664",
					"proposals(uint256)": "013cf08b",
					"smt(string)": "96caabb8"
				}
			},
			"storageLayout": {
				"storage": [
					{
						"astId": 26,
						"contract": "contracts/proposal.sol:TestProposal",
						"label": "proposals",
						"offset": 0,
						"slot": "0",
						"type": "t_mapping(t_uint256,t_struct(Proposal)14_storage)"
					},
					{
						"astId": 28,
						"contract": "contracts/proposal.sol:TestProposal",
						"label": "proposalCount",
						"offset": 0,
						"slot": "1",
						"type": "t_uint256"
					}
				],
				"types": {
					"t_address": {
						"encoding": "inplace",
						"label": "address",
						"numberOfBytes": "20"
					},
					"t_mapping(t_uint256,t_struct(Proposal)14_storage)": {
						"encoding": "mapping",
						"key": "t_uint256",
						"label": "mapping(uint256 => struct TestProposal.Proposal)",
						"numberOfBytes": "32",
						"value": "t_struct(Proposal)14_storage"
					},
					"t_struct(Proposal)14_storage": {
						"encoding": "inplace",
						"label": "struct TestProposal.Proposal",
						"members": [
							{
								"astId": 7,
								"contract": "contracts/proposal.sol:TestProposal",
								"label": "proposalId",
								"offset": 0,
								"slot": "0",
								"type": "t_uint256"
							},
							{
								"astId": 9,
								"contract": "contracts/proposal.sol:TestProposal",
								"label": "proposalStatus",
								"offset": 0,
								"slot": "1",
								"type": "t_uint256"
							},
							{
								"astId": 11,
								"contract": "contracts/proposal.sol:TestProposal",
								"label": "proposalCreator",
								"offset": 0,
								"slot": "2",
								"type": "t_address"
							},
							{
								"astId": 13,
								"contract": "contracts/proposal.sol:TestProposal",
								"label": "proposalNumOfOptions",
								"offset": 0,
								"slot": "3",
								"type": "t_uint256"
							}
						],
						"numberOfBytes": "128"
					},
					"t_uint256": {
						"encoding": "inplace",
						"label": "uint256",
						"numberOfBytes": "32"
					}
				}
			},
			"userdoc": {
				"kind": "user",
				"methods": {},
				"version": 1
			}
		}
	}
}