{
	"contracts/shit.sol": {
		"StructArrayInitWrong": {
			"abi": [
				{
					"inputs": [
						{
							"internalType": "string",
							"name": "_option",
							"type": "string"
						},
						{
							"internalType": "uint256",
							"name": "_num",
							"type": "uint256"
						}
					],
					"name": "createOptions",
					"outputs": [],
					"stateMutability": "nonpayable",
					"type": "function"
				},
				{
					"inputs": [
						{
							"internalType": "uint256",
							"name": "_optionid",
							"type": "uint256"
						}
					],
					"name": "getOptionStructure",
					"outputs": [
						{
							"components": [
								{
									"internalType": "uint256",
									"name": "id",
									"type": "uint256"
								},
								{
									"internalType": "string[]",
									"name": "name",
									"type": "string[]"
								},
								{
									"internalType": "uint256",
									"name": "num",
									"type": "uint256"
								}
							],
							"internalType": "struct StructArrayInitWrong.Option",
							"name": "",
							"type": "tuple"
						}
					],
					"stateMutability": "view",
					"type": "function"
				},
				{
					"inputs": [
						{
							"internalType": "uint256",
							"name": "_num",
							"type": "uint256"
						}
					],
					"name": "getResultOptions",
					"outputs": [
						{
							"components": [
								{
									"internalType": "uint256",
									"name": "id",
									"type": "uint256"
								},
								{
									"internalType": "string[]",
									"name": "name",
									"type": "string[]"
								},
								{
									"internalType": "uint256",
									"name": "num",
									"type": "uint256"
								}
							],
							"internalType": "struct StructArrayInitWrong.Option",
							"name": "",
							"type": "tuple"
						}
					],
					"stateMutability": "view",
					"type": "function"
				},
				{
					"inputs": [],
					"name": "optionCount",
					"outputs": [
						{
							"internalType": "uint256",
							"name": "",
							"type": "uint256"
						}
					],
					"stateMutability": "view",
					"type": "function"
				}
			],
			"devdoc": {
				"kind": "dev",
				"methods": {},
				"version": 1
			},
			"evm": {
				"assembly": "    /* \"contracts/shit.sol\":95:1930  contract StructArrayInitWrong {\r... */\n  mstore(0x40, 0x80)\n  callvalue\n  dup1\n  iszero\n  tag_1\n  jumpi\n  0x00\n  dup1\n  revert\ntag_1:\n  pop\n  dataSize(sub_0)\n  dup1\n  dataOffset(sub_0)\n  0x00\n  codecopy\n  0x00\n  return\nstop\n\nsub_0: assembly {\n        /* \"contracts/shit.sol\":95:1930  contract StructArrayInitWrong {\r... */\n      mstore(0x40, 0x80)\n      callvalue\n      dup1\n      iszero\n      tag_1\n      jumpi\n      0x00\n      dup1\n      revert\n    tag_1:\n      pop\n      jumpi(tag_2, lt(calldatasize, 0x04))\n      shr(0xe0, calldataload(0x00))\n      dup1\n      0xa92f01e7\n      eq\n      tag_3\n      jumpi\n      dup1\n      0xbb8247c5\n      eq\n      tag_4\n      jumpi\n      dup1\n      0xe32fe90b\n      eq\n      tag_5\n      jumpi\n      dup1\n      0xf804128c\n      eq\n      tag_6\n      jumpi\n    tag_2:\n      0x00\n      dup1\n      revert\n        /* \"contracts/shit.sol\":1444:1566  function getOptionStructure(uint _optionid) public view returns(Option memory){\r... */\n    tag_3:\n      tag_7\n      0x04\n      dup1\n      calldatasize\n      sub\n      dup2\n      add\n      swap1\n      tag_8\n      swap2\n      swap1\n      tag_9\n      jump\t// in\n    tag_8:\n      tag_10\n      jump\t// in\n    tag_7:\n      mload(0x40)\n      tag_11\n      swap2\n      swap1\n      tag_12\n      jump\t// in\n    tag_11:\n      mload(0x40)\n      dup1\n      swap2\n      sub\n      swap1\n      return\n        /* \"contracts/shit.sol\":1574:1684  function getResultOptions(uint _num) public view returns(Option memory){\r... */\n    tag_4:\n      tag_13\n      0x04\n      dup1\n      calldatasize\n      sub\n      dup2\n      add\n      swap1\n      tag_14\n      swap2\n      swap1\n      tag_9\n      jump\t// in\n    tag_14:\n      tag_15\n      jump\t// in\n    tag_13:\n      mload(0x40)\n      tag_16\n      swap2\n      swap1\n      tag_12\n      jump\t// in\n    tag_16:\n      mload(0x40)\n      dup1\n      swap2\n      sub\n      swap1\n      return\n        /* \"contracts/shit.sol\":386:409  uint public optionCount */\n    tag_5:\n      tag_17\n      tag_18\n      jump\t// in\n    tag_17:\n      mload(0x40)\n      tag_19\n      swap2\n      swap1\n      tag_20\n      jump\t// in\n    tag_19:\n      mload(0x40)\n      dup1\n      swap2\n      sub\n      swap1\n      return\n        /* \"contracts/shit.sol\":418:1009  function createOptions(string memory _option, uint _num) public {\r... */\n    tag_6:\n      tag_21\n      0x04\n      dup1\n      calldatasize\n      sub\n      dup2\n      add\n      swap1\n      tag_22\n      swap2\n      swap1\n      tag_23\n      jump\t// in\n    tag_22:\n      tag_24\n      jump\t// in\n    tag_21:\n      stop\n        /* \"contracts/shit.sol\":1444:1566  function getOptionStructure(uint _optionid) public view returns(Option memory){\r... */\n    tag_10:\n        /* \"contracts/shit.sol\":1508:1521  Option memory */\n      tag_25\n      tag_26\n      jump\t// in\n    tag_25:\n        /* \"contracts/shit.sol\":1540:1547  options */\n      0x00\n        /* \"contracts/shit.sol\":1548:1557  _optionid */\n      dup3\n        /* \"contracts/shit.sol\":1540:1558  options[_optionid] */\n      dup2\n      sload\n      dup2\n      lt\n      tag_28\n      jumpi\n      mstore(0x00, 0x4e487b7100000000000000000000000000000000000000000000000000000000)\n      mstore(0x04, 0x32)\n      revert(0x00, 0x24)\n    tag_28:\n      swap1\n      0x00\n      mstore\n      keccak256(0x00, 0x20)\n      swap1\n      0x03\n      mul\n      add\n        /* \"contracts/shit.sol\":1533:1558  return options[_optionid] */\n      mload(0x40)\n      dup1\n      0x60\n      add\n      0x40\n      mstore\n      swap1\n      dup2\n      0x00\n      dup3\n      add\n      sload\n      dup2\n      mstore\n      0x20\n      add\n      0x01\n      dup3\n      add\n      dup1\n      sload\n      dup1\n      0x20\n      mul\n      0x20\n      add\n      mload(0x40)\n      swap1\n      dup2\n      add\n      0x40\n      mstore\n      dup1\n      swap3\n      swap2\n      swap1\n      dup2\n      dup2\n      mstore\n      0x20\n      add\n      0x00\n      swap1\n    tag_30:\n      dup3\n      dup3\n      lt\n      iszero\n      tag_31\n      jumpi\n      dup4\n      dup3\n      swap1\n      0x00\n      mstore\n      keccak256(0x00, 0x20)\n      add\n      dup1\n      sload\n      tag_33\n      swap1\n      tag_34\n      jump\t// in\n    tag_33:\n      dup1\n      0x1f\n      add\n      0x20\n      dup1\n      swap2\n      div\n      mul\n      0x20\n      add\n      mload(0x40)\n      swap1\n      dup2\n      add\n      0x40\n      mstore\n      dup1\n      swap3\n      swap2\n      swap1\n      dup2\n      dup2\n      mstore\n      0x20\n      add\n      dup3\n      dup1\n      sload\n      tag_35\n      swap1\n      tag_34\n      jump\t// in\n    tag_35:\n      dup1\n      iszero\n      tag_36\n      jumpi\n      dup1\n      0x1f\n      lt\n      tag_37\n      jumpi\n      0x0100\n      dup1\n      dup4\n      sload\n      div\n      mul\n      dup4\n      mstore\n      swap2\n      0x20\n      add\n      swap2\n      jump(tag_36)\n    tag_37:\n      dup3\n      add\n      swap2\n      swap1\n      0x00\n      mstore\n      keccak256(0x00, 0x20)\n      swap1\n    tag_38:\n      dup2\n      sload\n      dup2\n      mstore\n      swap1\n      0x01\n      add\n      swap1\n      0x20\n      add\n      dup1\n      dup4\n      gt\n      tag_38\n      jumpi\n      dup3\n      swap1\n      sub\n      0x1f\n      and\n      dup3\n      add\n      swap2\n    tag_36:\n      pop\n      pop\n      pop\n      pop\n      pop\n      dup2\n      mstore\n      0x20\n      add\n      swap1\n      0x01\n      add\n      swap1\n      jump(tag_30)\n    tag_31:\n      pop\n      pop\n      pop\n      pop\n      dup2\n      mstore\n      0x20\n      add\n      0x02\n      dup3\n      add\n      sload\n      dup2\n      mstore\n      pop\n      pop\n      swap1\n      pop\n        /* \"contracts/shit.sol\":1444:1566  function getOptionStructure(uint _optionid) public view returns(Option memory){\r... */\n      swap2\n      swap1\n      pop\n      jump\t// out\n        /* \"contracts/shit.sol\":1574:1684  function getResultOptions(uint _num) public view returns(Option memory){\r... */\n    tag_15:\n        /* \"contracts/shit.sol\":1631:1644  Option memory */\n      tag_39\n      tag_26\n      jump\t// in\n    tag_39:\n        /* \"contracts/shit.sol\":1663:1670  options */\n      0x00\n        /* \"contracts/shit.sol\":1671:1675  _num */\n      dup3\n        /* \"contracts/shit.sol\":1663:1676  options[_num] */\n      dup2\n      sload\n      dup2\n      lt\n      tag_41\n      jumpi\n      mstore(0x00, 0x4e487b7100000000000000000000000000000000000000000000000000000000)\n      mstore(0x04, 0x32)\n      revert(0x00, 0x24)\n    tag_41:\n      swap1\n      0x00\n      mstore\n      keccak256(0x00, 0x20)\n      swap1\n      0x03\n      mul\n      add\n        /* \"contracts/shit.sol\":1656:1676  return options[_num] */\n      mload(0x40)\n      dup1\n      0x60\n      add\n      0x40\n      mstore\n      swap1\n      dup2\n      0x00\n      dup3\n      add\n      sload\n      dup2\n      mstore\n      0x20\n      add\n      0x01\n      dup3\n      add\n      dup1\n      sload\n      dup1\n      0x20\n      mul\n      0x20\n      add\n      mload(0x40)\n      swap1\n      dup2\n      add\n      0x40\n      mstore\n      dup1\n      swap3\n      swap2\n      swap1\n      dup2\n      dup2\n      mstore\n      0x20\n      add\n      0x00\n      swap1\n    tag_43:\n      dup3\n      dup3\n      lt\n      iszero\n      tag_44\n      jumpi\n      dup4\n      dup3\n      swap1\n      0x00\n      mstore\n      keccak256(0x00, 0x20)\n      add\n      dup1\n      sload\n      tag_46\n      swap1\n      tag_34\n      jump\t// in\n    tag_46:\n      dup1\n      0x1f\n      add\n      0x20\n      dup1\n      swap2\n      div\n      mul\n      0x20\n      add\n      mload(0x40)\n      swap1\n      dup2\n      add\n      0x40\n      mstore\n      dup1\n      swap3\n      swap2\n      swap1\n      dup2\n      dup2\n      mstore\n      0x20\n      add\n      dup3\n      dup1\n      sload\n      tag_47\n      swap1\n      tag_34\n      jump\t// in\n    tag_47:\n      dup1\n      iszero\n      tag_48\n      jumpi\n      dup1\n      0x1f\n      lt\n      tag_49\n      jumpi\n      0x0100\n      dup1\n      dup4\n      sload\n      div\n      mul\n      dup4\n      mstore\n      swap2\n      0x20\n      add\n      swap2\n      jump(tag_48)\n    tag_49:\n      dup3\n      add\n      swap2\n      swap1\n      0x00\n      mstore\n      keccak256(0x00, 0x20)\n      swap1\n    tag_50:\n      dup2\n      sload\n      dup2\n      mstore\n      swap1\n      0x01\n      add\n      swap1\n      0x20\n      add\n      dup1\n      dup4\n      gt\n      tag_50\n      jumpi\n      dup3\n      swap1\n      sub\n      0x1f\n      and\n      dup3\n      add\n      swap2\n    tag_48:\n      pop\n      pop\n      pop\n      pop\n      pop\n      dup2\n      mstore\n      0x20\n      add\n      swap1\n      0x01\n      add\n      swap1\n      jump(tag_43)\n    tag_44:\n      pop\n      pop\n      pop\n      pop\n      dup2\n      mstore\n      0x20\n      add\n      0x02\n      dup3\n      add\n      sload\n      dup2\n      mstore\n      pop\n      pop\n      swap1\n      pop\n        /* \"contracts/shit.sol\":1574:1684  function getResultOptions(uint _num) public view returns(Option memory){\r... */\n      swap2\n      swap1\n      pop\n      jump\t// out\n        /* \"contracts/shit.sol\":386:409  uint public optionCount */\n    tag_18:\n      sload(0x03)\n      dup2\n      jump\t// out\n        /* \"contracts/shit.sol\":418:1009  function createOptions(string memory _option, uint _num) public {\r... */\n    tag_24:\n        /* \"contracts/shit.sol\":593:596  nms */\n      0x01\n        /* \"contracts/shit.sol\":602:609  _option */\n      dup3\n        /* \"contracts/shit.sol\":593:610  nms.push(_option) */\n      swap1\n      dup1\n      0x01\n      dup2\n      sload\n      add\n      dup1\n      dup3\n      sstore\n      dup1\n      swap2\n      pop\n      pop\n      0x01\n      swap1\n      sub\n      swap1\n      0x00\n      mstore\n      keccak256(0x00, 0x20)\n      add\n      0x00\n      swap1\n      swap2\n      swap1\n      swap2\n      swap1\n      swap2\n      pop\n      swap1\n      dup1\n      mload\n      swap1\n      0x20\n      add\n      swap1\n      tag_53\n      swap3\n      swap2\n      swap1\n      tag_54\n      jump\t// in\n    tag_53:\n      pop\n        /* \"contracts/shit.sol\":631:807  while (optionCount <= _num-1){\r... */\n    tag_55:\n        /* \"contracts/shit.sol\":658:659  1 */\n      0x01\n        /* \"contracts/shit.sol\":653:657  _num */\n      dup2\n        /* \"contracts/shit.sol\":653:659  _num-1 */\n      tag_57\n      swap2\n      swap1\n      tag_58\n      jump\t// in\n    tag_57:\n        /* \"contracts/shit.sol\":638:649  optionCount */\n      sload(0x03)\n        /* \"contracts/shit.sol\":638:659  optionCount <= _num-1 */\n      gt\n        /* \"contracts/shit.sol\":631:807  while (optionCount <= _num-1){\r... */\n      tag_56\n      jumpi\n        /* \"contracts/shit.sol\":675:695  Option memory option */\n      0x00\n        /* \"contracts/shit.sol\":698:728  Option(optionCount, nms, _num) */\n      mload(0x40)\n      dup1\n      0x60\n      add\n      0x40\n      mstore\n      dup1\n        /* \"contracts/shit.sol\":705:716  optionCount */\n      sload(0x03)\n        /* \"contracts/shit.sol\":698:728  Option(optionCount, nms, _num) */\n      dup2\n      mstore\n      0x20\n      add\n        /* \"contracts/shit.sol\":718:721  nms */\n      0x01\n        /* \"contracts/shit.sol\":698:728  Option(optionCount, nms, _num) */\n      dup1\n      sload\n      dup1\n      0x20\n      mul\n      0x20\n      add\n      mload(0x40)\n      swap1\n      dup2\n      add\n      0x40\n      mstore\n      dup1\n      swap3\n      swap2\n      swap1\n      dup2\n      dup2\n      mstore\n      0x20\n      add\n      0x00\n      swap1\n    tag_59:\n      dup3\n      dup3\n      lt\n      iszero\n      tag_60\n      jumpi\n      dup4\n      dup3\n      swap1\n      0x00\n      mstore\n      keccak256(0x00, 0x20)\n      add\n      dup1\n      sload\n      tag_62\n      swap1\n      tag_34\n      jump\t// in\n    tag_62:\n      dup1\n      0x1f\n      add\n      0x20\n      dup1\n      swap2\n      div\n      mul\n      0x20\n      add\n      mload(0x40)\n      swap1\n      dup2\n      add\n      0x40\n      mstore\n      dup1\n      swap3\n      swap2\n      swap1\n      dup2\n      dup2\n      mstore\n      0x20\n      add\n      dup3\n      dup1\n      sload\n      tag_63\n      swap1\n      tag_34\n      jump\t// in\n    tag_63:\n      dup1\n      iszero\n      tag_64\n      jumpi\n      dup1\n      0x1f\n      lt\n      tag_65\n      jumpi\n      0x0100\n      dup1\n      dup4\n      sload\n      div\n      mul\n      dup4\n      mstore\n      swap2\n      0x20\n      add\n      swap2\n      jump(tag_64)\n    tag_65:\n      dup3\n      add\n      swap2\n      swap1\n      0x00\n      mstore\n      keccak256(0x00, 0x20)\n      swap1\n    tag_66:\n      dup2\n      sload\n      dup2\n      mstore\n      swap1\n      0x01\n      add\n      swap1\n      0x20\n      add\n      dup1\n      dup4\n      gt\n      tag_66\n      jumpi\n      dup3\n      swap1\n      sub\n      0x1f\n      and\n      dup3\n      add\n      swap2\n    tag_64:\n      pop\n      pop\n      pop\n      pop\n      pop\n      dup2\n      mstore\n      0x20\n      add\n      swap1\n      0x01\n      add\n      swap1\n      jump(tag_59)\n    tag_60:\n      pop\n      pop\n      pop\n      pop\n      dup2\n      mstore\n      0x20\n      add\n        /* \"contracts/shit.sol\":723:727  _num */\n      dup4\n        /* \"contracts/shit.sol\":698:728  Option(optionCount, nms, _num) */\n      dup2\n      mstore\n      pop\n        /* \"contracts/shit.sol\":675:728  Option memory option = Option(optionCount, nms, _num) */\n      swap1\n      pop\n        /* \"contracts/shit.sol\":747:754  options */\n      0x00\n        /* \"contracts/shit.sol\":760:766  option */\n      dup2\n        /* \"contracts/shit.sol\":747:767  options.push(option) */\n      swap1\n      dup1\n      0x01\n      dup2\n      sload\n      add\n      dup1\n      dup3\n      sstore\n      dup1\n      swap2\n      pop\n      pop\n      0x01\n      swap1\n      sub\n      swap1\n      0x00\n      mstore\n      keccak256(0x00, 0x20)\n      swap1\n      0x03\n      mul\n      add\n      0x00\n      swap1\n      swap2\n      swap1\n      swap2\n      swap1\n      swap2\n      pop\n      0x00\n      dup3\n      add\n      mload\n      dup2\n      0x00\n      add\n      sstore\n      0x20\n      dup3\n      add\n      mload\n      dup2\n      0x01\n      add\n      swap1\n      dup1\n      mload\n      swap1\n      0x20\n      add\n      swap1\n      tag_68\n      swap3\n      swap2\n      swap1\n      tag_69\n      jump\t// in\n    tag_68:\n      pop\n      0x40\n      dup3\n      add\n      mload\n      dup2\n      0x02\n      add\n      sstore\n      pop\n      pop\n        /* \"contracts/shit.sol\":782:793  optionCount */\n      0x03\n      0x00\n        /* \"contracts/shit.sol\":782:795  optionCount++ */\n      dup2\n      sload\n      dup1\n      swap3\n      swap2\n      swap1\n      tag_70\n      swap1\n      tag_71\n      jump\t// in\n    tag_70:\n      swap2\n      swap1\n      pop\n      sstore\n      pop\n        /* \"contracts/shit.sol\":631:807  while (optionCount <= _num-1){\r... */\n      pop\n      jump(tag_55)\n    tag_56:\n        /* \"contracts/shit.sol\":418:1009  function createOptions(string memory _option, uint _num) public {\r... */\n      pop\n      pop\n      jump\t// out\n    tag_26:\n      mload(0x40)\n      dup1\n      0x60\n      add\n      0x40\n      mstore\n      dup1\n      0x00\n      dup2\n      mstore\n      0x20\n      add\n      0x60\n      dup2\n      mstore\n      0x20\n      add\n      0x00\n      dup2\n      mstore\n      pop\n      swap1\n      jump\t// out\n    tag_54:\n      dup3\n      dup1\n      sload\n      tag_72\n      swap1\n      tag_34\n      jump\t// in\n    tag_72:\n      swap1\n      0x00\n      mstore\n      keccak256(0x00, 0x20)\n      swap1\n      0x1f\n      add\n      0x20\n      swap1\n      div\n      dup2\n      add\n      swap3\n      dup3\n      tag_74\n      jumpi\n      0x00\n      dup6\n      sstore\n      jump(tag_73)\n    tag_74:\n      dup3\n      0x1f\n      lt\n      tag_75\n      jumpi\n      dup1\n      mload\n      not(0xff)\n      and\n      dup4\n      dup1\n      add\n      or\n      dup6\n      sstore\n      jump(tag_73)\n    tag_75:\n      dup3\n      dup1\n      add\n      0x01\n      add\n      dup6\n      sstore\n      dup3\n      iszero\n      tag_73\n      jumpi\n      swap2\n      dup3\n      add\n    tag_76:\n      dup3\n      dup2\n      gt\n      iszero\n      tag_77\n      jumpi\n      dup3\n      mload\n      dup3\n      sstore\n      swap2\n      0x20\n      add\n      swap2\n      swap1\n      0x01\n      add\n      swap1\n      jump(tag_76)\n    tag_77:\n    tag_73:\n      pop\n      swap1\n      pop\n      tag_78\n      swap2\n      swap1\n      tag_79\n      jump\t// in\n    tag_78:\n      pop\n      swap1\n      jump\t// out\n    tag_69:\n      dup3\n      dup1\n      sload\n      dup3\n      dup3\n      sstore\n      swap1\n      0x00\n      mstore\n      keccak256(0x00, 0x20)\n      swap1\n      dup2\n      add\n      swap3\n      dup3\n      iszero\n      tag_80\n      jumpi\n      swap2\n      0x20\n      mul\n      dup3\n      add\n    tag_81:\n      dup3\n      dup2\n      gt\n      iszero\n      tag_82\n      jumpi\n      dup3\n      mload\n      dup3\n      swap1\n      dup1\n      mload\n      swap1\n      0x20\n      add\n      swap1\n      tag_83\n      swap3\n      swap2\n      swap1\n      tag_54\n      jump\t// in\n    tag_83:\n      pop\n      swap2\n      0x20\n      add\n      swap2\n      swap1\n      0x01\n      add\n      swap1\n      jump(tag_81)\n    tag_82:\n    tag_80:\n      pop\n      swap1\n      pop\n      tag_84\n      swap2\n      swap1\n      tag_85\n      jump\t// in\n    tag_84:\n      pop\n      swap1\n      jump\t// out\n    tag_79:\n    tag_86:\n      dup1\n      dup3\n      gt\n      iszero\n      tag_87\n      jumpi\n      0x00\n      dup2\n      0x00\n      swap1\n      sstore\n      pop\n      0x01\n      add\n      jump(tag_86)\n    tag_87:\n      pop\n      swap1\n      jump\t// out\n    tag_85:\n    tag_88:\n      dup1\n      dup3\n      gt\n      iszero\n      tag_89\n      jumpi\n      0x00\n      dup2\n      dup2\n      tag_90\n      swap2\n      swap1\n      tag_91\n      jump\t// in\n    tag_90:\n      pop\n      0x01\n      add\n      jump(tag_88)\n    tag_89:\n      pop\n      swap1\n      jump\t// out\n    tag_91:\n      pop\n      dup1\n      sload\n      tag_92\n      swap1\n      tag_34\n      jump\t// in\n    tag_92:\n      0x00\n      dup3\n      sstore\n      dup1\n      0x1f\n      lt\n      tag_94\n      jumpi\n      pop\n      jump(tag_93)\n    tag_94:\n      0x1f\n      add\n      0x20\n      swap1\n      div\n      swap1\n      0x00\n      mstore\n      keccak256(0x00, 0x20)\n      swap1\n      dup2\n      add\n      swap1\n      tag_95\n      swap2\n      swap1\n      tag_79\n      jump\t// in\n    tag_95:\n    tag_93:\n      pop\n      jump\t// out\n        /* \"#utility.yul\":7:351   */\n    tag_97:\n      0x00\n        /* \"#utility.yul\":110:175   */\n      tag_99\n        /* \"#utility.yul\":125:174   */\n      tag_100\n        /* \"#utility.yul\":167:173   */\n      dup5\n        /* \"#utility.yul\":125:174   */\n      tag_101\n      jump\t// in\n    tag_100:\n        /* \"#utility.yul\":110:175   */\n      tag_102\n      jump\t// in\n    tag_99:\n        /* \"#utility.yul\":101:175   */\n      swap1\n      pop\n        /* \"#utility.yul\":198:204   */\n      dup3\n        /* \"#utility.yul\":191:196   */\n      dup2\n        /* \"#utility.yul\":184:205   */\n      mstore\n        /* \"#utility.yul\":236:240   */\n      0x20\n        /* \"#utility.yul\":229:234   */\n      dup2\n        /* \"#utility.yul\":225:241   */\n      add\n        /* \"#utility.yul\":274:277   */\n      dup5\n        /* \"#utility.yul\":265:271   */\n      dup5\n        /* \"#utility.yul\":260:263   */\n      dup5\n        /* \"#utility.yul\":256:272   */\n      add\n        /* \"#utility.yul\":253:278   */\n      gt\n        /* \"#utility.yul\":250:252   */\n      iszero\n      tag_103\n      jumpi\n        /* \"#utility.yul\":291:292   */\n      0x00\n        /* \"#utility.yul\":288:289   */\n      dup1\n        /* \"#utility.yul\":281:293   */\n      revert\n        /* \"#utility.yul\":250:252   */\n    tag_103:\n        /* \"#utility.yul\":304:345   */\n      tag_104\n        /* \"#utility.yul\":338:344   */\n      dup5\n        /* \"#utility.yul\":333:336   */\n      dup3\n        /* \"#utility.yul\":328:331   */\n      dup6\n        /* \"#utility.yul\":304:345   */\n      tag_105\n      jump\t// in\n    tag_104:\n        /* \"#utility.yul\":91:351   */\n      pop\n      swap4\n      swap3\n      pop\n      pop\n      pop\n      jump\t// out\n        /* \"#utility.yul\":371:644   */\n    tag_106:\n      0x00\n        /* \"#utility.yul\":476:479   */\n      dup3\n        /* \"#utility.yul\":469:473   */\n      0x1f\n        /* \"#utility.yul\":461:467   */\n      dup4\n        /* \"#utility.yul\":457:474   */\n      add\n        /* \"#utility.yul\":453:480   */\n      slt\n        /* \"#utility.yul\":443:445   */\n      tag_108\n      jumpi\n        /* \"#utility.yul\":494:495   */\n      0x00\n        /* \"#utility.yul\":491:492   */\n      dup1\n        /* \"#utility.yul\":484:496   */\n      revert\n        /* \"#utility.yul\":443:445   */\n    tag_108:\n        /* \"#utility.yul\":534:540   */\n      dup2\n        /* \"#utility.yul\":521:541   */\n      calldataload\n        /* \"#utility.yul\":559:638   */\n      tag_109\n        /* \"#utility.yul\":634:637   */\n      dup5\n        /* \"#utility.yul\":626:632   */\n      dup3\n        /* \"#utility.yul\":619:623   */\n      0x20\n        /* \"#utility.yul\":611:617   */\n      dup7\n        /* \"#utility.yul\":607:624   */\n      add\n        /* \"#utility.yul\":559:638   */\n      tag_97\n      jump\t// in\n    tag_109:\n        /* \"#utility.yul\":550:638   */\n      swap2\n      pop\n        /* \"#utility.yul\":433:644   */\n      pop\n      swap3\n      swap2\n      pop\n      pop\n      jump\t// out\n        /* \"#utility.yul\":650:789   */\n    tag_110:\n      0x00\n        /* \"#utility.yul\":734:740   */\n      dup2\n        /* \"#utility.yul\":721:741   */\n      calldataload\n        /* \"#utility.yul\":712:741   */\n      swap1\n      pop\n        /* \"#utility.yul\":750:783   */\n      tag_112\n        /* \"#utility.yul\":777:782   */\n      dup2\n        /* \"#utility.yul\":750:783   */\n      tag_113\n      jump\t// in\n    tag_112:\n        /* \"#utility.yul\":702:789   */\n      swap3\n      swap2\n      pop\n      pop\n      jump\t// out\n        /* \"#utility.yul\":795:1315   */\n    tag_23:\n      0x00\n      dup1\n        /* \"#utility.yul\":930:932   */\n      0x40\n        /* \"#utility.yul\":918:927   */\n      dup4\n        /* \"#utility.yul\":909:916   */\n      dup6\n        /* \"#utility.yul\":905:928   */\n      sub\n        /* \"#utility.yul\":901:933   */\n      slt\n        /* \"#utility.yul\":898:900   */\n      iszero\n      tag_115\n      jumpi\n        /* \"#utility.yul\":946:947   */\n      0x00\n        /* \"#utility.yul\":943:944   */\n      dup1\n        /* \"#utility.yul\":936:948   */\n      revert\n        /* \"#utility.yul\":898:900   */\n    tag_115:\n        /* \"#utility.yul\":1017:1018   */\n      0x00\n        /* \"#utility.yul\":1006:1015   */\n      dup4\n        /* \"#utility.yul\":1002:1019   */\n      add\n        /* \"#utility.yul\":989:1020   */\n      calldataload\n        /* \"#utility.yul\":1047:1065   */\n      0xffffffffffffffff\n        /* \"#utility.yul\":1039:1045   */\n      dup2\n        /* \"#utility.yul\":1036:1066   */\n      gt\n        /* \"#utility.yul\":1033:1035   */\n      iszero\n      tag_116\n      jumpi\n        /* \"#utility.yul\":1079:1080   */\n      0x00\n        /* \"#utility.yul\":1076:1077   */\n      dup1\n        /* \"#utility.yul\":1069:1081   */\n      revert\n        /* \"#utility.yul\":1033:1035   */\n    tag_116:\n        /* \"#utility.yul\":1107:1170   */\n      tag_117\n        /* \"#utility.yul\":1162:1169   */\n      dup6\n        /* \"#utility.yul\":1153:1159   */\n      dup3\n        /* \"#utility.yul\":1142:1151   */\n      dup7\n        /* \"#utility.yul\":1138:1160   */\n      add\n        /* \"#utility.yul\":1107:1170   */\n      tag_106\n      jump\t// in\n    tag_117:\n        /* \"#utility.yul\":1097:1170   */\n      swap3\n      pop\n        /* \"#utility.yul\":960:1180   */\n      pop\n        /* \"#utility.yul\":1219:1221   */\n      0x20\n        /* \"#utility.yul\":1245:1298   */\n      tag_118\n        /* \"#utility.yul\":1290:1297   */\n      dup6\n        /* \"#utility.yul\":1281:1287   */\n      dup3\n        /* \"#utility.yul\":1270:1279   */\n      dup7\n        /* \"#utility.yul\":1266:1288   */\n      add\n        /* \"#utility.yul\":1245:1298   */\n      tag_110\n      jump\t// in\n    tag_118:\n        /* \"#utility.yul\":1235:1298   */\n      swap2\n      pop\n        /* \"#utility.yul\":1190:1308   */\n      pop\n        /* \"#utility.yul\":888:1315   */\n      swap3\n      pop\n      swap3\n      swap1\n      pop\n      jump\t// out\n        /* \"#utility.yul\":1321:1583   */\n    tag_9:\n      0x00\n        /* \"#utility.yul\":1429:1431   */\n      0x20\n        /* \"#utility.yul\":1417:1426   */\n      dup3\n        /* \"#utility.yul\":1408:1415   */\n      dup5\n        /* \"#utility.yul\":1404:1427   */\n      sub\n        /* \"#utility.yul\":1400:1432   */\n      slt\n        /* \"#utility.yul\":1397:1399   */\n      iszero\n      tag_120\n      jumpi\n        /* \"#utility.yul\":1445:1446   */\n      0x00\n        /* \"#utility.yul\":1442:1443   */\n      dup1\n        /* \"#utility.yul\":1435:1447   */\n      revert\n        /* \"#utility.yul\":1397:1399   */\n    tag_120:\n        /* \"#utility.yul\":1488:1489   */\n      0x00\n        /* \"#utility.yul\":1513:1566   */\n      tag_121\n        /* \"#utility.yul\":1558:1565   */\n      dup5\n        /* \"#utility.yul\":1549:1555   */\n      dup3\n        /* \"#utility.yul\":1538:1547   */\n      dup6\n        /* \"#utility.yul\":1534:1556   */\n      add\n        /* \"#utility.yul\":1513:1566   */\n      tag_110\n      jump\t// in\n    tag_121:\n        /* \"#utility.yul\":1503:1566   */\n      swap2\n      pop\n        /* \"#utility.yul\":1459:1576   */\n      pop\n        /* \"#utility.yul\":1387:1583   */\n      swap3\n      swap2\n      pop\n      pop\n      jump\t// out\n        /* \"#utility.yul\":1589:1785   */\n    tag_122:\n      0x00\n        /* \"#utility.yul\":1713:1779   */\n      tag_124\n        /* \"#utility.yul\":1775:1778   */\n      dup4\n        /* \"#utility.yul\":1767:1773   */\n      dup4\n        /* \"#utility.yul\":1713:1779   */\n      tag_125\n      jump\t// in\n    tag_124:\n        /* \"#utility.yul\":1699:1779   */\n      swap1\n      pop\n        /* \"#utility.yul\":1689:1785   */\n      swap3\n      swap2\n      pop\n      pop\n      jump\t// out\n        /* \"#utility.yul\":1819:2790   */\n    tag_126:\n      0x00\n        /* \"#utility.yul\":1977:2041   */\n      tag_128\n        /* \"#utility.yul\":2035:2040   */\n      dup3\n        /* \"#utility.yul\":1977:2041   */\n      tag_129\n      jump\t// in\n    tag_128:\n        /* \"#utility.yul\":2057:2143   */\n      tag_130\n        /* \"#utility.yul\":2136:2142   */\n      dup2\n        /* \"#utility.yul\":2131:2134   */\n      dup6\n        /* \"#utility.yul\":2057:2143   */\n      tag_131\n      jump\t// in\n    tag_130:\n        /* \"#utility.yul\":2050:2143   */\n      swap4\n      pop\n        /* \"#utility.yul\":2169:2172   */\n      dup4\n        /* \"#utility.yul\":2214:2218   */\n      0x20\n        /* \"#utility.yul\":2206:2212   */\n      dup3\n        /* \"#utility.yul\":2202:2219   */\n      mul\n        /* \"#utility.yul\":2197:2200   */\n      dup6\n        /* \"#utility.yul\":2193:2220   */\n      add\n        /* \"#utility.yul\":2244:2310   */\n      tag_132\n        /* \"#utility.yul\":2304:2309   */\n      dup6\n        /* \"#utility.yul\":2244:2310   */\n      tag_133\n      jump\t// in\n    tag_132:\n        /* \"#utility.yul\":2333:2340   */\n      dup1\n        /* \"#utility.yul\":2364:2365   */\n      0x00\n        /* \"#utility.yul\":2349:2745   */\n    tag_134:\n        /* \"#utility.yul\":2374:2380   */\n      dup6\n        /* \"#utility.yul\":2371:2372   */\n      dup2\n        /* \"#utility.yul\":2368:2381   */\n      lt\n        /* \"#utility.yul\":2349:2745   */\n      iszero\n      tag_136\n      jumpi\n        /* \"#utility.yul\":2445:2454   */\n      dup5\n        /* \"#utility.yul\":2439:2443   */\n      dup5\n        /* \"#utility.yul\":2435:2455   */\n      sub\n        /* \"#utility.yul\":2430:2433   */\n      dup10\n        /* \"#utility.yul\":2423:2456   */\n      mstore\n        /* \"#utility.yul\":2496:2502   */\n      dup2\n        /* \"#utility.yul\":2490:2503   */\n      mload\n        /* \"#utility.yul\":2524:2608   */\n      tag_137\n        /* \"#utility.yul\":2603:2607   */\n      dup6\n        /* \"#utility.yul\":2588:2601   */\n      dup3\n        /* \"#utility.yul\":2524:2608   */\n      tag_122\n      jump\t// in\n    tag_137:\n        /* \"#utility.yul\":2516:2608   */\n      swap5\n      pop\n        /* \"#utility.yul\":2631:2701   */\n      tag_138\n        /* \"#utility.yul\":2694:2700   */\n      dup4\n        /* \"#utility.yul\":2631:2701   */\n      tag_139\n      jump\t// in\n    tag_138:\n        /* \"#utility.yul\":2621:2701   */\n      swap3\n      pop\n        /* \"#utility.yul\":2730:2734   */\n      0x20\n        /* \"#utility.yul\":2725:2728   */\n      dup11\n        /* \"#utility.yul\":2721:2735   */\n      add\n        /* \"#utility.yul\":2714:2735   */\n      swap10\n      pop\n        /* \"#utility.yul\":2409:2745   */\n      pop\n        /* \"#utility.yul\":2396:2397   */\n      0x01\n        /* \"#utility.yul\":2393:2394   */\n      dup2\n        /* \"#utility.yul\":2389:2398   */\n      add\n        /* \"#utility.yul\":2384:2398   */\n      swap1\n      pop\n        /* \"#utility.yul\":2349:2745   */\n      jump(tag_134)\n    tag_136:\n        /* \"#utility.yul\":2353:2367   */\n      pop\n        /* \"#utility.yul\":2761:2765   */\n      dup3\n        /* \"#utility.yul\":2754:2765   */\n      swap8\n      pop\n        /* \"#utility.yul\":2781:2784   */\n      dup8\n        /* \"#utility.yul\":2774:2784   */\n      swap6\n      pop\n        /* \"#utility.yul\":1953:2790   */\n      pop\n      pop\n      pop\n      pop\n      pop\n      swap3\n      swap2\n      pop\n      pop\n      jump\t// out\n        /* \"#utility.yul\":2796:3140   */\n    tag_125:\n      0x00\n        /* \"#utility.yul\":2902:2941   */\n      tag_141\n        /* \"#utility.yul\":2935:2940   */\n      dup3\n        /* \"#utility.yul\":2902:2941   */\n      tag_142\n      jump\t// in\n    tag_141:\n        /* \"#utility.yul\":2957:3018   */\n      tag_143\n        /* \"#utility.yul\":3011:3017   */\n      dup2\n        /* \"#utility.yul\":3006:3009   */\n      dup6\n        /* \"#utility.yul\":2957:3018   */\n      tag_144\n      jump\t// in\n    tag_143:\n        /* \"#utility.yul\":2950:3018   */\n      swap4\n      pop\n        /* \"#utility.yul\":3027:3079   */\n      tag_145\n        /* \"#utility.yul\":3072:3078   */\n      dup2\n        /* \"#utility.yul\":3067:3070   */\n      dup6\n        /* \"#utility.yul\":3060:3064   */\n      0x20\n        /* \"#utility.yul\":3053:3058   */\n      dup7\n        /* \"#utility.yul\":3049:3065   */\n      add\n        /* \"#utility.yul\":3027:3079   */\n      tag_146\n      jump\t// in\n    tag_145:\n        /* \"#utility.yul\":3104:3133   */\n      tag_147\n        /* \"#utility.yul\":3126:3132   */\n      dup2\n        /* \"#utility.yul\":3104:3133   */\n      tag_148\n      jump\t// in\n    tag_147:\n        /* \"#utility.yul\":3099:3102   */\n      dup5\n        /* \"#utility.yul\":3095:3134   */\n      add\n        /* \"#utility.yul\":3088:3134   */\n      swap2\n      pop\n        /* \"#utility.yul\":2878:3140   */\n      pop\n      swap3\n      swap2\n      pop\n      pop\n      jump\t// out\n        /* \"#utility.yul\":3226:4047   */\n    tag_149:\n      0x00\n        /* \"#utility.yul\":3375:3379   */\n      0x60\n        /* \"#utility.yul\":3370:3373   */\n      dup4\n        /* \"#utility.yul\":3366:3380   */\n      add\n        /* \"#utility.yul\":3460:3464   */\n      0x00\n        /* \"#utility.yul\":3453:3458   */\n      dup4\n        /* \"#utility.yul\":3449:3465   */\n      add\n        /* \"#utility.yul\":3443:3466   */\n      mload\n        /* \"#utility.yul\":3479:3542   */\n      tag_151\n        /* \"#utility.yul\":3536:3540   */\n      0x00\n        /* \"#utility.yul\":3531:3534   */\n      dup7\n        /* \"#utility.yul\":3527:3541   */\n      add\n        /* \"#utility.yul\":3513:3525   */\n      dup3\n        /* \"#utility.yul\":3479:3542   */\n      tag_152\n      jump\t// in\n    tag_151:\n        /* \"#utility.yul\":3390:3552   */\n      pop\n        /* \"#utility.yul\":3634:3638   */\n      0x20\n        /* \"#utility.yul\":3627:3632   */\n      dup4\n        /* \"#utility.yul\":3623:3639   */\n      add\n        /* \"#utility.yul\":3617:3640   */\n      mload\n        /* \"#utility.yul\":3687:3690   */\n      dup5\n        /* \"#utility.yul\":3681:3685   */\n      dup3\n        /* \"#utility.yul\":3677:3691   */\n      sub\n        /* \"#utility.yul\":3670:3674   */\n      0x20\n        /* \"#utility.yul\":3665:3668   */\n      dup7\n        /* \"#utility.yul\":3661:3675   */\n      add\n        /* \"#utility.yul\":3654:3692   */\n      mstore\n        /* \"#utility.yul\":3713:3836   */\n      tag_153\n        /* \"#utility.yul\":3831:3835   */\n      dup3\n        /* \"#utility.yul\":3817:3829   */\n      dup3\n        /* \"#utility.yul\":3713:3836   */\n      tag_126\n      jump\t// in\n    tag_153:\n        /* \"#utility.yul\":3705:3836   */\n      swap2\n      pop\n        /* \"#utility.yul\":3562:3847   */\n      pop\n        /* \"#utility.yul\":3928:3932   */\n      0x40\n        /* \"#utility.yul\":3921:3926   */\n      dup4\n        /* \"#utility.yul\":3917:3933   */\n      add\n        /* \"#utility.yul\":3911:3934   */\n      mload\n        /* \"#utility.yul\":3947:4010   */\n      tag_154\n        /* \"#utility.yul\":4004:4008   */\n      0x40\n        /* \"#utility.yul\":3999:4002   */\n      dup7\n        /* \"#utility.yul\":3995:4009   */\n      add\n        /* \"#utility.yul\":3981:3993   */\n      dup3\n        /* \"#utility.yul\":3947:4010   */\n      tag_152\n      jump\t// in\n    tag_154:\n        /* \"#utility.yul\":3857:4020   */\n      pop\n        /* \"#utility.yul\":4037:4041   */\n      dup1\n        /* \"#utility.yul\":4030:4041   */\n      swap2\n      pop\n        /* \"#utility.yul\":3344:4047   */\n      pop\n      swap3\n      swap2\n      pop\n      pop\n      jump\t// out\n        /* \"#utility.yul\":4053:4161   */\n    tag_152:\n        /* \"#utility.yul\":4130:4154   */\n      tag_156\n        /* \"#utility.yul\":4148:4153   */\n      dup2\n        /* \"#utility.yul\":4130:4154   */\n      tag_157\n      jump\t// in\n    tag_156:\n        /* \"#utility.yul\":4125:4128   */\n      dup3\n        /* \"#utility.yul\":4118:4155   */\n      mstore\n        /* \"#utility.yul\":4108:4161   */\n      pop\n      pop\n      jump\t// out\n        /* \"#utility.yul\":4167:4285   */\n    tag_158:\n        /* \"#utility.yul\":4254:4278   */\n      tag_160\n        /* \"#utility.yul\":4272:4277   */\n      dup2\n        /* \"#utility.yul\":4254:4278   */\n      tag_157\n      jump\t// in\n    tag_160:\n        /* \"#utility.yul\":4249:4252   */\n      dup3\n        /* \"#utility.yul\":4242:4279   */\n      mstore\n        /* \"#utility.yul\":4232:4285   */\n      pop\n      pop\n      jump\t// out\n        /* \"#utility.yul\":4291:4652   */\n    tag_12:\n      0x00\n        /* \"#utility.yul\":4466:4468   */\n      0x20\n        /* \"#utility.yul\":4455:4464   */\n      dup3\n        /* \"#utility.yul\":4451:4469   */\n      add\n        /* \"#utility.yul\":4443:4469   */\n      swap1\n      pop\n        /* \"#utility.yul\":4515:4524   */\n      dup2\n        /* \"#utility.yul\":4509:4513   */\n      dup2\n        /* \"#utility.yul\":4505:4525   */\n      sub\n        /* \"#utility.yul\":4501:4502   */\n      0x00\n        /* \"#utility.yul\":4490:4499   */\n      dup4\n        /* \"#utility.yul\":4486:4503   */\n      add\n        /* \"#utility.yul\":4479:4526   */\n      mstore\n        /* \"#utility.yul\":4543:4645   */\n      tag_162\n        /* \"#utility.yul\":4640:4644   */\n      dup2\n        /* \"#utility.yul\":4631:4637   */\n      dup5\n        /* \"#utility.yul\":4543:4645   */\n      tag_149\n      jump\t// in\n    tag_162:\n        /* \"#utility.yul\":4535:4645   */\n      swap1\n      pop\n        /* \"#utility.yul\":4433:4652   */\n      swap3\n      swap2\n      pop\n      pop\n      jump\t// out\n        /* \"#utility.yul\":4658:4880   */\n    tag_20:\n      0x00\n        /* \"#utility.yul\":4789:4791   */\n      0x20\n        /* \"#utility.yul\":4778:4787   */\n      dup3\n        /* \"#utility.yul\":4774:4792   */\n      add\n        /* \"#utility.yul\":4766:4792   */\n      swap1\n      pop\n        /* \"#utility.yul\":4802:4873   */\n      tag_164\n        /* \"#utility.yul\":4870:4871   */\n      0x00\n        /* \"#utility.yul\":4859:4868   */\n      dup4\n        /* \"#utility.yul\":4855:4872   */\n      add\n        /* \"#utility.yul\":4846:4852   */\n      dup5\n        /* \"#utility.yul\":4802:4873   */\n      tag_158\n      jump\t// in\n    tag_164:\n        /* \"#utility.yul\":4756:4880   */\n      swap3\n      swap2\n      pop\n      pop\n      jump\t// out\n        /* \"#utility.yul\":4886:5169   */\n    tag_102:\n      0x00\n        /* \"#utility.yul\":4952:4954   */\n      0x40\n        /* \"#utility.yul\":4946:4955   */\n      mload\n        /* \"#utility.yul\":4936:4955   */\n      swap1\n      pop\n        /* \"#utility.yul\":4994:4998   */\n      dup2\n        /* \"#utility.yul\":4986:4992   */\n      dup2\n        /* \"#utility.yul\":4982:4999   */\n      add\n        /* \"#utility.yul\":5101:5107   */\n      dup2\n        /* \"#utility.yul\":5089:5099   */\n      dup2\n        /* \"#utility.yul\":5086:5108   */\n      lt\n        /* \"#utility.yul\":5065:5083   */\n      0xffffffffffffffff\n        /* \"#utility.yul\":5053:5063   */\n      dup3\n        /* \"#utility.yul\":5050:5084   */\n      gt\n        /* \"#utility.yul\":5047:5109   */\n      or\n        /* \"#utility.yul\":5044:5046   */\n      iszero\n      tag_166\n      jumpi\n        /* \"#utility.yul\":5112:5130   */\n      tag_167\n      tag_168\n      jump\t// in\n    tag_167:\n        /* \"#utility.yul\":5044:5046   */\n    tag_166:\n        /* \"#utility.yul\":5152:5162   */\n      dup1\n        /* \"#utility.yul\":5148:5150   */\n      0x40\n        /* \"#utility.yul\":5141:5163   */\n      mstore\n        /* \"#utility.yul\":4926:5169   */\n      pop\n      swap2\n      swap1\n      pop\n      jump\t// out\n        /* \"#utility.yul\":5175:5507   */\n    tag_101:\n      0x00\n        /* \"#utility.yul\":5327:5345   */\n      0xffffffffffffffff\n        /* \"#utility.yul\":5319:5325   */\n      dup3\n        /* \"#utility.yul\":5316:5346   */\n      gt\n        /* \"#utility.yul\":5313:5315   */\n      iszero\n      tag_170\n      jumpi\n        /* \"#utility.yul\":5349:5367   */\n      tag_171\n      tag_168\n      jump\t// in\n    tag_171:\n        /* \"#utility.yul\":5313:5315   */\n    tag_170:\n        /* \"#utility.yul\":5434:5438   */\n      0x1f\n        /* \"#utility.yul\":5430:5439   */\n      not\n        /* \"#utility.yul\":5423:5427   */\n      0x1f\n        /* \"#utility.yul\":5415:5421   */\n      dup4\n        /* \"#utility.yul\":5411:5428   */\n      add\n        /* \"#utility.yul\":5407:5440   */\n      and\n        /* \"#utility.yul\":5399:5440   */\n      swap1\n      pop\n        /* \"#utility.yul\":5495:5499   */\n      0x20\n        /* \"#utility.yul\":5489:5493   */\n      dup2\n        /* \"#utility.yul\":5485:5500   */\n      add\n        /* \"#utility.yul\":5477:5500   */\n      swap1\n      pop\n        /* \"#utility.yul\":5242:5507   */\n      swap2\n      swap1\n      pop\n      jump\t// out\n        /* \"#utility.yul\":5513:5655   */\n    tag_133:\n      0x00\n        /* \"#utility.yul\":5613:5616   */\n      dup2\n        /* \"#utility.yul\":5605:5616   */\n      swap1\n      pop\n        /* \"#utility.yul\":5643:5647   */\n      0x20\n        /* \"#utility.yul\":5638:5641   */\n      dup3\n        /* \"#utility.yul\":5634:5648   */\n      add\n        /* \"#utility.yul\":5626:5648   */\n      swap1\n      pop\n        /* \"#utility.yul\":5595:5655   */\n      swap2\n      swap1\n      pop\n      jump\t// out\n        /* \"#utility.yul\":5661:5785   */\n    tag_129:\n      0x00\n        /* \"#utility.yul\":5772:5777   */\n      dup2\n        /* \"#utility.yul\":5766:5778   */\n      mload\n        /* \"#utility.yul\":5756:5778   */\n      swap1\n      pop\n        /* \"#utility.yul\":5745:5785   */\n      swap2\n      swap1\n      pop\n      jump\t// out\n        /* \"#utility.yul\":5791:5890   */\n    tag_142:\n      0x00\n        /* \"#utility.yul\":5877:5882   */\n      dup2\n        /* \"#utility.yul\":5871:5883   */\n      mload\n        /* \"#utility.yul\":5861:5883   */\n      swap1\n      pop\n        /* \"#utility.yul\":5850:5890   */\n      swap2\n      swap1\n      pop\n      jump\t// out\n        /* \"#utility.yul\":5896:6019   */\n    tag_139:\n      0x00\n        /* \"#utility.yul\":6008:6012   */\n      0x20\n        /* \"#utility.yul\":6003:6006   */\n      dup3\n        /* \"#utility.yul\":5999:6013   */\n      add\n        /* \"#utility.yul\":5991:6013   */\n      swap1\n      pop\n        /* \"#utility.yul\":5981:6019   */\n      swap2\n      swap1\n      pop\n      jump\t// out\n        /* \"#utility.yul\":6025:6209   */\n    tag_131:\n      0x00\n        /* \"#utility.yul\":6158:6164   */\n      dup3\n        /* \"#utility.yul\":6153:6156   */\n      dup3\n        /* \"#utility.yul\":6146:6165   */\n      mstore\n        /* \"#utility.yul\":6198:6202   */\n      0x20\n        /* \"#utility.yul\":6193:6196   */\n      dup3\n        /* \"#utility.yul\":6189:6203   */\n      add\n        /* \"#utility.yul\":6174:6203   */\n      swap1\n      pop\n        /* \"#utility.yul\":6136:6209   */\n      swap3\n      swap2\n      pop\n      pop\n      jump\t// out\n        /* \"#utility.yul\":6215:6374   */\n    tag_144:\n      0x00\n        /* \"#utility.yul\":6323:6329   */\n      dup3\n        /* \"#utility.yul\":6318:6321   */\n      dup3\n        /* \"#utility.yul\":6311:6330   */\n      mstore\n        /* \"#utility.yul\":6363:6367   */\n      0x20\n        /* \"#utility.yul\":6358:6361   */\n      dup3\n        /* \"#utility.yul\":6354:6368   */\n      add\n        /* \"#utility.yul\":6339:6368   */\n      swap1\n      pop\n        /* \"#utility.yul\":6301:6374   */\n      swap3\n      swap2\n      pop\n      pop\n      jump\t// out\n        /* \"#utility.yul\":6380:6571   */\n    tag_58:\n      0x00\n        /* \"#utility.yul\":6440:6460   */\n      tag_179\n        /* \"#utility.yul\":6458:6459   */\n      dup3\n        /* \"#utility.yul\":6440:6460   */\n      tag_157\n      jump\t// in\n    tag_179:\n        /* \"#utility.yul\":6435:6460   */\n      swap2\n      pop\n        /* \"#utility.yul\":6474:6494   */\n      tag_180\n        /* \"#utility.yul\":6492:6493   */\n      dup4\n        /* \"#utility.yul\":6474:6494   */\n      tag_157\n      jump\t// in\n    tag_180:\n        /* \"#utility.yul\":6469:6494   */\n      swap3\n      pop\n        /* \"#utility.yul\":6513:6514   */\n      dup3\n        /* \"#utility.yul\":6510:6511   */\n      dup3\n        /* \"#utility.yul\":6507:6515   */\n      lt\n        /* \"#utility.yul\":6504:6506   */\n      iszero\n      tag_181\n      jumpi\n        /* \"#utility.yul\":6518:6536   */\n      tag_182\n      tag_183\n      jump\t// in\n    tag_182:\n        /* \"#utility.yul\":6504:6506   */\n    tag_181:\n        /* \"#utility.yul\":6563:6564   */\n      dup3\n        /* \"#utility.yul\":6560:6561   */\n      dup3\n        /* \"#utility.yul\":6556:6565   */\n      sub\n        /* \"#utility.yul\":6548:6565   */\n      swap1\n      pop\n        /* \"#utility.yul\":6425:6571   */\n      swap3\n      swap2\n      pop\n      pop\n      jump\t// out\n        /* \"#utility.yul\":6577:6654   */\n    tag_157:\n      0x00\n        /* \"#utility.yul\":6643:6648   */\n      dup2\n        /* \"#utility.yul\":6632:6648   */\n      swap1\n      pop\n        /* \"#utility.yul\":6622:6654   */\n      swap2\n      swap1\n      pop\n      jump\t// out\n        /* \"#utility.yul\":6660:6814   */\n    tag_105:\n        /* \"#utility.yul\":6744:6750   */\n      dup3\n        /* \"#utility.yul\":6739:6742   */\n      dup2\n        /* \"#utility.yul\":6734:6737   */\n      dup4\n        /* \"#utility.yul\":6721:6751   */\n      calldatacopy\n        /* \"#utility.yul\":6806:6807   */\n      0x00\n        /* \"#utility.yul\":6797:6803   */\n      dup4\n        /* \"#utility.yul\":6792:6795   */\n      dup4\n        /* \"#utility.yul\":6788:6804   */\n      add\n        /* \"#utility.yul\":6781:6808   */\n      mstore\n        /* \"#utility.yul\":6711:6814   */\n      pop\n      pop\n      pop\n      jump\t// out\n        /* \"#utility.yul\":6820:7127   */\n    tag_146:\n        /* \"#utility.yul\":6888:6889   */\n      0x00\n        /* \"#utility.yul\":6898:7011   */\n    tag_187:\n        /* \"#utility.yul\":6912:6918   */\n      dup4\n        /* \"#utility.yul\":6909:6910   */\n      dup2\n        /* \"#utility.yul\":6906:6919   */\n      lt\n        /* \"#utility.yul\":6898:7011   */\n      iszero\n      tag_189\n      jumpi\n        /* \"#utility.yul\":6997:6998   */\n      dup1\n        /* \"#utility.yul\":6992:6995   */\n      dup3\n        /* \"#utility.yul\":6988:6999   */\n      add\n        /* \"#utility.yul\":6982:7000   */\n      mload\n        /* \"#utility.yul\":6978:6979   */\n      dup2\n        /* \"#utility.yul\":6973:6976   */\n      dup5\n        /* \"#utility.yul\":6969:6980   */\n      add\n        /* \"#utility.yul\":6962:7001   */\n      mstore\n        /* \"#utility.yul\":6934:6936   */\n      0x20\n        /* \"#utility.yul\":6931:6932   */\n      dup2\n        /* \"#utility.yul\":6927:6937   */\n      add\n        /* \"#utility.yul\":6922:6937   */\n      swap1\n      pop\n        /* \"#utility.yul\":6898:7011   */\n      jump(tag_187)\n    tag_189:\n        /* \"#utility.yul\":7029:7035   */\n      dup4\n        /* \"#utility.yul\":7026:7027   */\n      dup2\n        /* \"#utility.yul\":7023:7036   */\n      gt\n        /* \"#utility.yul\":7020:7022   */\n      iszero\n      tag_190\n      jumpi\n        /* \"#utility.yul\":7109:7110   */\n      0x00\n        /* \"#utility.yul\":7100:7106   */\n      dup5\n        /* \"#utility.yul\":7095:7098   */\n      dup5\n        /* \"#utility.yul\":7091:7107   */\n      add\n        /* \"#utility.yul\":7084:7111   */\n      mstore\n        /* \"#utility.yul\":7020:7022   */\n    tag_190:\n        /* \"#utility.yul\":6869:7127   */\n      pop\n      pop\n      pop\n      pop\n      jump\t// out\n        /* \"#utility.yul\":7133:7453   */\n    tag_34:\n      0x00\n        /* \"#utility.yul\":7214:7215   */\n      0x02\n        /* \"#utility.yul\":7208:7212   */\n      dup3\n        /* \"#utility.yul\":7204:7216   */\n      div\n        /* \"#utility.yul\":7194:7216   */\n      swap1\n      pop\n        /* \"#utility.yul\":7261:7262   */\n      0x01\n        /* \"#utility.yul\":7255:7259   */\n      dup3\n        /* \"#utility.yul\":7251:7263   */\n      and\n        /* \"#utility.yul\":7282:7300   */\n      dup1\n        /* \"#utility.yul\":7272:7274   */\n      tag_192\n      jumpi\n        /* \"#utility.yul\":7338:7342   */\n      0x7f\n        /* \"#utility.yul\":7330:7336   */\n      dup3\n        /* \"#utility.yul\":7326:7343   */\n      and\n        /* \"#utility.yul\":7316:7343   */\n      swap2\n      pop\n        /* \"#utility.yul\":7272:7274   */\n    tag_192:\n        /* \"#utility.yul\":7400:7402   */\n      0x20\n        /* \"#utility.yul\":7392:7398   */\n      dup3\n        /* \"#utility.yul\":7389:7403   */\n      lt\n        /* \"#utility.yul\":7369:7387   */\n      dup2\n        /* \"#utility.yul\":7366:7404   */\n      eq\n        /* \"#utility.yul\":7363:7365   */\n      iszero\n      tag_193\n      jumpi\n        /* \"#utility.yul\":7419:7437   */\n      tag_194\n      tag_195\n      jump\t// in\n    tag_194:\n        /* \"#utility.yul\":7363:7365   */\n    tag_193:\n        /* \"#utility.yul\":7184:7453   */\n      pop\n      swap2\n      swap1\n      pop\n      jump\t// out\n        /* \"#utility.yul\":7459:7692   */\n    tag_71:\n      0x00\n        /* \"#utility.yul\":7521:7545   */\n      tag_197\n        /* \"#utility.yul\":7539:7544   */\n      dup3\n        /* \"#utility.yul\":7521:7545   */\n      tag_157\n      jump\t// in\n    tag_197:\n        /* \"#utility.yul\":7512:7545   */\n      swap2\n      pop\n        /* \"#utility.yul\":7567:7633   */\n      0xffffffffffffffffffffffffffffffffffffffffffffffffffffffffffffffff\n        /* \"#utility.yul\":7560:7565   */\n      dup3\n        /* \"#utility.yul\":7557:7634   */\n      eq\n        /* \"#utility.yul\":7554:7556   */\n      iszero\n      tag_198\n      jumpi\n        /* \"#utility.yul\":7637:7655   */\n      tag_199\n      tag_183\n      jump\t// in\n    tag_199:\n        /* \"#utility.yul\":7554:7556   */\n    tag_198:\n        /* \"#utility.yul\":7684:7685   */\n      0x01\n        /* \"#utility.yul\":7677:7682   */\n      dup3\n        /* \"#utility.yul\":7673:7686   */\n      add\n        /* \"#utility.yul\":7666:7686   */\n      swap1\n      pop\n        /* \"#utility.yul\":7502:7692   */\n      swap2\n      swap1\n      pop\n      jump\t// out\n        /* \"#utility.yul\":7698:7878   */\n    tag_183:\n        /* \"#utility.yul\":7746:7823   */\n      0x4e487b7100000000000000000000000000000000000000000000000000000000\n        /* \"#utility.yul\":7743:7744   */\n      0x00\n        /* \"#utility.yul\":7736:7824   */\n      mstore\n        /* \"#utility.yul\":7843:7847   */\n      0x11\n        /* \"#utility.yul\":7840:7841   */\n      0x04\n        /* \"#utility.yul\":7833:7848   */\n      mstore\n        /* \"#utility.yul\":7867:7871   */\n      0x24\n        /* \"#utility.yul\":7864:7865   */\n      0x00\n        /* \"#utility.yul\":7857:7872   */\n      revert\n        /* \"#utility.yul\":7884:8064   */\n    tag_195:\n        /* \"#utility.yul\":7932:8009   */\n      0x4e487b7100000000000000000000000000000000000000000000000000000000\n        /* \"#utility.yul\":7929:7930   */\n      0x00\n        /* \"#utility.yul\":7922:8010   */\n      mstore\n        /* \"#utility.yul\":8029:8033   */\n      0x22\n        /* \"#utility.yul\":8026:8027   */\n      0x04\n        /* \"#utility.yul\":8019:8034   */\n      mstore\n        /* \"#utility.yul\":8053:8057   */\n      0x24\n        /* \"#utility.yul\":8050:8051   */\n      0x00\n        /* \"#utility.yul\":8043:8058   */\n      revert\n        /* \"#utility.yul\":8070:8250   */\n    tag_168:\n        /* \"#utility.yul\":8118:8195   */\n      0x4e487b7100000000000000000000000000000000000000000000000000000000\n        /* \"#utility.yul\":8115:8116   */\n      0x00\n        /* \"#utility.yul\":8108:8196   */\n      mstore\n        /* \"#utility.yul\":8215:8219   */\n      0x41\n        /* \"#utility.yul\":8212:8213   */\n      0x04\n        /* \"#utility.yul\":8205:8220   */\n      mstore\n        /* \"#utility.yul\":8239:8243   */\n      0x24\n        /* \"#utility.yul\":8236:8237   */\n      0x00\n        /* \"#utility.yul\":8229:8244   */\n      revert\n        /* \"#utility.yul\":8256:8358   */\n    tag_148:\n      0x00\n        /* \"#utility.yul\":8348:8350   */\n      0x1f\n        /* \"#utility.yul\":8344:8351   */\n      not\n        /* \"#utility.yul\":8339:8341   */\n      0x1f\n        /* \"#utility.yul\":8332:8337   */\n      dup4\n        /* \"#utility.yul\":8328:8342   */\n      add\n        /* \"#utility.yul\":8324:8352   */\n      and\n        /* \"#utility.yul\":8314:8352   */\n      swap1\n      pop\n        /* \"#utility.yul\":8304:8358   */\n      swap2\n      swap1\n      pop\n      jump\t// out\n        /* \"#utility.yul\":8364:8486   */\n    tag_113:\n        /* \"#utility.yul\":8437:8461   */\n      tag_205\n        /* \"#utility.yul\":8455:8460   */\n      dup2\n        /* \"#utility.yul\":8437:8461   */\n      tag_157\n      jump\t// in\n    tag_205:\n        /* \"#utility.yul\":8430:8435   */\n      dup2\n        /* \"#utility.yul\":8427:8462   */\n      eq\n        /* \"#utility.yul\":8417:8419   */\n      tag_206\n      jumpi\n        /* \"#utility.yul\":8476:8477   */\n      0x00\n        /* \"#utility.yul\":8473:8474   */\n      dup1\n        /* \"#utility.yul\":8466:8478   */\n      revert\n        /* \"#utility.yul\":8417:8419   */\n    tag_206:\n        /* \"#utility.yul\":8407:8486   */\n      pop\n      jump\t// out\n\n    auxdata: 0xa264697066735822122043cb452d95686382daf616f966b77ad2235463c84f33ee694445abb395f98fd864736f6c63430008000033\n}\n",
				"bytecode": {
					"linkReferences": {},
					"object": "608060405234801561001057600080fd5b50610bdf806100206000396000f3fe608060405234801561001057600080fd5b506004361061004c5760003560e01c8063a92f01e714610051578063bb8247c514610081578063e32fe90b146100b1578063f804128c146100cf575b600080fd5b61006b600480360381019061006691906107ad565b6100eb565b6040516100789190610906565b60405180910390f35b61009b600480360381019061009691906107ad565b61023a565b6040516100a89190610906565b60405180910390f35b6100b9610389565b6040516100c69190610928565b60405180910390f35b6100e960048036038101906100e49190610759565b61038f565b005b6100f3610554565b6000828154811061012d577f4e487b7100000000000000000000000000000000000000000000000000000000600052603260045260246000fd5b90600052602060002090600302016040518060600160405290816000820154815260200160018201805480602002602001604051908101604052809291908181526020016000905b8282101561022157838290600052602060002001805461019490610a79565b80601f01602080910402602001604051908101604052809291908181526020018280546101c090610a79565b801561020d5780601f106101e25761010080835404028352916020019161020d565b820191906000526020600020905b8154815290600101906020018083116101f057829003601f168201915b505050505081526020019060010190610175565b5050505081526020016002820154815250509050919050565b610242610554565b6000828154811061027c577f4e487b7100000000000000000000000000000000000000000000000000000000600052603260045260246000fd5b90600052602060002090600302016040518060600160405290816000820154815260200160018201805480602002602001604051908101604052809291908181526020016000905b828210156103705783829060005260206000200180546102e390610a79565b80601f016020809104026020016040519081016040528092919081815260200182805461030f90610a79565b801561035c5780601f106103315761010080835404028352916020019161035c565b820191906000526020600020905b81548152906001019060200180831161033f57829003601f168201915b5050505050815260200190600101906102c4565b5050505081526020016002820154815250509050919050565b60035481565b6001829080600181540180825580915050600190039060005260206000200160009091909190915090805190602001906103ca929190610575565b505b6001816103d991906109f9565b60035411610550576000604051806060016040528060035481526020016001805480602002602001604051908101604052809291908181526020016000905b828210156104c457838290600052602060002001805461043790610a79565b80601f016020809104026020016040519081016040528092919081815260200182805461046390610a79565b80156104b05780601f10610485576101008083540402835291602001916104b0565b820191906000526020600020905b81548152906001019060200180831161049357829003601f168201915b505050505081526020019060010190610418565b50505050815260200183815250905060008190806001815401808255809150506001900390600052602060002090600302016000909190919091506000820151816000015560208201518160010190805190602001906105259291906105fb565b506040820151816002015550506003600081548092919061054590610aab565b9190505550506103cc565b5050565b60405180606001604052806000815260200160608152602001600081525090565b82805461058190610a79565b90600052602060002090601f0160209004810192826105a357600085556105ea565b82601f106105bc57805160ff19168380011785556105ea565b828001600101855582156105ea579182015b828111156105e95782518255916020019190600101906105ce565b5b5090506105f7919061065b565b5090565b82805482825590600052602060002090810192821561064a579160200282015b82811115610649578251829080519060200190610639929190610575565b509160200191906001019061061b565b5b5090506106579190610678565b5090565b5b8082111561067457600081600090555060010161065c565b5090565b5b80821115610698576000818161068f919061069c565b50600101610679565b5090565b5080546106a890610a79565b6000825580601f106106ba57506106d9565b601f0160209004906000526020600020908101906106d8919061065b565b5b50565b60006106ef6106ea84610974565b610943565b90508281526020810184848401111561070757600080fd5b610712848285610a37565b509392505050565b600082601f83011261072b57600080fd5b813561073b8482602086016106dc565b91505092915050565b60008135905061075381610b92565b92915050565b6000806040838503121561076c57600080fd5b600083013567ffffffffffffffff81111561078657600080fd5b6107928582860161071a565b92505060206107a385828601610744565b9150509250929050565b6000602082840312156107bf57600080fd5b60006107cd84828501610744565b91505092915050565b60006107e2838361085f565b905092915050565b60006107f5826109b4565b6107ff81856109d7565b935083602082028501610811856109a4565b8060005b8581101561084d578484038952815161082e85826107d6565b9450610839836109ca565b925060208a01995050600181019050610815565b50829750879550505050505092915050565b600061086a826109bf565b61087481856109e8565b9350610884818560208601610a46565b61088d81610b81565b840191505092915050565b60006060830160008301516108b060008601826108e8565b50602083015184820360208601526108c882826107ea565b91505060408301516108dd60408601826108e8565b508091505092915050565b6108f181610a2d565b82525050565b61090081610a2d565b82525050565b600060208201905081810360008301526109208184610898565b905092915050565b600060208201905061093d60008301846108f7565b92915050565b6000604051905081810181811067ffffffffffffffff8211171561096a57610969610b52565b5b8060405250919050565b600067ffffffffffffffff82111561098f5761098e610b52565b5b601f19601f8301169050602081019050919050565b6000819050602082019050919050565b600081519050919050565b600081519050919050565b6000602082019050919050565b600082825260208201905092915050565b600082825260208201905092915050565b6000610a0482610a2d565b9150610a0f83610a2d565b925082821015610a2257610a21610af4565b5b828203905092915050565b6000819050919050565b82818337600083830152505050565b60005b83811015610a64578082015181840152602081019050610a49565b83811115610a73576000848401525b50505050565b60006002820490506001821680610a9157607f821691505b60208210811415610aa557610aa4610b23565b5b50919050565b6000610ab682610a2d565b91507fffffffffffffffffffffffffffffffffffffffffffffffffffffffffffffffff821415610ae957610ae8610af4565b5b600182019050919050565b7f4e487b7100000000000000000000000000000000000000000000000000000000600052601160045260246000fd5b7f4e487b7100000000000000000000000000000000000000000000000000000000600052602260045260246000fd5b7f4e487b7100000000000000000000000000000000000000000000000000000000600052604160045260246000fd5b6000601f19601f8301169050919050565b610b9b81610a2d565b8114610ba657600080fd5b5056fea264697066735822122043cb452d95686382daf616f966b77ad2235463c84f33ee694445abb395f98fd864736f6c63430008000033",
					"opcodes": "PUSH1 0x80 PUSH1 0x40 MSTORE CALLVALUE DUP1 ISZERO PUSH2 0x10 JUMPI PUSH1 0x0 DUP1 REVERT JUMPDEST POP PUSH2 0xBDF DUP1 PUSH2 0x20 PUSH1 0x0 CODECOPY PUSH1 0x0 RETURN INVALID PUSH1 0x80 PUSH1 0x40 MSTORE CALLVALUE DUP1 ISZERO PUSH2 0x10 JUMPI PUSH1 0x0 DUP1 REVERT JUMPDEST POP PUSH1 0x4 CALLDATASIZE LT PUSH2 0x4C JUMPI PUSH1 0x0 CALLDATALOAD PUSH1 0xE0 SHR DUP1 PUSH4 0xA92F01E7 EQ PUSH2 0x51 JUMPI DUP1 PUSH4 0xBB8247C5 EQ PUSH2 0x81 JUMPI DUP1 PUSH4 0xE32FE90B EQ PUSH2 0xB1 JUMPI DUP1 PUSH4 0xF804128C EQ PUSH2 0xCF JUMPI JUMPDEST PUSH1 0x0 DUP1 REVERT JUMPDEST PUSH2 0x6B PUSH1 0x4 DUP1 CALLDATASIZE SUB DUP2 ADD SWAP1 PUSH2 0x66 SWAP2 SWAP1 PUSH2 0x7AD JUMP JUMPDEST PUSH2 0xEB JUMP JUMPDEST PUSH1 0x40 MLOAD PUSH2 0x78 SWAP2 SWAP1 PUSH2 0x906 JUMP JUMPDEST PUSH1 0x40 MLOAD DUP1 SWAP2 SUB SWAP1 RETURN JUMPDEST PUSH2 0x9B PUSH1 0x4 DUP1 CALLDATASIZE SUB DUP2 ADD SWAP1 PUSH2 0x96 SWAP2 SWAP1 PUSH2 0x7AD JUMP JUMPDEST PUSH2 0x23A JUMP JUMPDEST PUSH1 0x40 MLOAD PUSH2 0xA8 SWAP2 SWAP1 PUSH2 0x906 JUMP JUMPDEST PUSH1 0x40 MLOAD DUP1 SWAP2 SUB SWAP1 RETURN JUMPDEST PUSH2 0xB9 PUSH2 0x389 JUMP JUMPDEST PUSH1 0x40 MLOAD PUSH2 0xC6 SWAP2 SWAP1 PUSH2 0x928 JUMP JUMPDEST PUSH1 0x40 MLOAD DUP1 SWAP2 SUB SWAP1 RETURN JUMPDEST PUSH2 0xE9 PUSH1 0x4 DUP1 CALLDATASIZE SUB DUP2 ADD SWAP1 PUSH2 0xE4 SWAP2 SWAP1 PUSH2 0x759 JUMP JUMPDEST PUSH2 0x38F JUMP JUMPDEST STOP JUMPDEST PUSH2 0xF3 PUSH2 0x554 JUMP JUMPDEST PUSH1 0x0 DUP3 DUP2 SLOAD DUP2 LT PUSH2 0x12D JUMPI PUSH32 0x4E487B7100000000000000000000000000000000000000000000000000000000 PUSH1 0x0 MSTORE PUSH1 0x32 PUSH1 0x4 MSTORE PUSH1 0x24 PUSH1 0x0 REVERT JUMPDEST SWAP1 PUSH1 0x0 MSTORE PUSH1 0x20 PUSH1 0x0 KECCAK256 SWAP1 PUSH1 0x3 MUL ADD PUSH1 0x40 MLOAD DUP1 PUSH1 0x60 ADD PUSH1 0x40 MSTORE SWAP1 DUP2 PUSH1 0x0 DUP3 ADD SLOAD DUP2 MSTORE PUSH1 0x20 ADD PUSH1 0x1 DUP3 ADD DUP1 SLOAD DUP1 PUSH1 0x20 MUL PUSH1 0x20 ADD PUSH1 0x40 MLOAD SWAP1 DUP2 ADD PUSH1 0x40 MSTORE DUP1 SWAP3 SWAP2 SWAP1 DUP2 DUP2 MSTORE PUSH1 0x20 ADD PUSH1 0x0 SWAP1 JUMPDEST DUP3 DUP3 LT ISZERO PUSH2 0x221 JUMPI DUP4 DUP3 SWAP1 PUSH1 0x0 MSTORE PUSH1 0x20 PUSH1 0x0 KECCAK256 ADD DUP1 SLOAD PUSH2 0x194 SWAP1 PUSH2 0xA79 JUMP JUMPDEST DUP1 PUSH1 0x1F ADD PUSH1 0x20 DUP1 SWAP2 DIV MUL PUSH1 0x20 ADD PUSH1 0x40 MLOAD SWAP1 DUP2 ADD PUSH1 0x40 MSTORE DUP1 SWAP3 SWAP2 SWAP1 DUP2 DUP2 MSTORE PUSH1 0x20 ADD DUP3 DUP1 SLOAD PUSH2 0x1C0 SWAP1 PUSH2 0xA79 JUMP JUMPDEST DUP1 ISZERO PUSH2 0x20D JUMPI DUP1 PUSH1 0x1F LT PUSH2 0x1E2 JUMPI PUSH2 0x100 DUP1 DUP4 SLOAD DIV MUL DUP4 MSTORE SWAP2 PUSH1 0x20 ADD SWAP2 PUSH2 0x20D JUMP JUMPDEST DUP3 ADD SWAP2 SWAP1 PUSH1 0x0 MSTORE PUSH1 0x20 PUSH1 0x0 KECCAK256 SWAP1 JUMPDEST DUP2 SLOAD DUP2 MSTORE SWAP1 PUSH1 0x1 ADD SWAP1 PUSH1 0x20 ADD DUP1 DUP4 GT PUSH2 0x1F0 JUMPI DUP3 SWAP1 SUB PUSH1 0x1F AND DUP3 ADD SWAP2 JUMPDEST POP POP POP POP POP DUP2 MSTORE PUSH1 0x20 ADD SWAP1 PUSH1 0x1 ADD SWAP1 PUSH2 0x175 JUMP JUMPDEST POP POP POP POP DUP2 MSTORE PUSH1 0x20 ADD PUSH1 0x2 DUP3 ADD SLOAD DUP2 MSTORE POP POP SWAP1 POP SWAP2 SWAP1 POP JUMP JUMPDEST PUSH2 0x242 PUSH2 0x554 JUMP JUMPDEST PUSH1 0x0 DUP3 DUP2 SLOAD DUP2 LT PUSH2 0x27C JUMPI PUSH32 0x4E487B7100000000000000000000000000000000000000000000000000000000 PUSH1 0x0 MSTORE PUSH1 0x32 PUSH1 0x4 MSTORE PUSH1 0x24 PUSH1 0x0 REVERT JUMPDEST SWAP1 PUSH1 0x0 MSTORE PUSH1 0x20 PUSH1 0x0 KECCAK256 SWAP1 PUSH1 0x3 MUL ADD PUSH1 0x40 MLOAD DUP1 PUSH1 0x60 ADD PUSH1 0x40 MSTORE SWAP1 DUP2 PUSH1 0x0 DUP3 ADD SLOAD DUP2 MSTORE PUSH1 0x20 ADD PUSH1 0x1 DUP3 ADD DUP1 SLOAD DUP1 PUSH1 0x20 MUL PUSH1 0x20 ADD PUSH1 0x40 MLOAD SWAP1 DUP2 ADD PUSH1 0x40 MSTORE DUP1 SWAP3 SWAP2 SWAP1 DUP2 DUP2 MSTORE PUSH1 0x20 ADD PUSH1 0x0 SWAP1 JUMPDEST DUP3 DUP3 LT ISZERO PUSH2 0x370 JUMPI DUP4 DUP3 SWAP1 PUSH1 0x0 MSTORE PUSH1 0x20 PUSH1 0x0 KECCAK256 ADD DUP1 SLOAD PUSH2 0x2E3 SWAP1 PUSH2 0xA79 JUMP JUMPDEST DUP1 PUSH1 0x1F ADD PUSH1 0x20 DUP1 SWAP2 DIV MUL PUSH1 0x20 ADD PUSH1 0x40 MLOAD SWAP1 DUP2 ADD PUSH1 0x40 MSTORE DUP1 SWAP3 SWAP2 SWAP1 DUP2 DUP2 MSTORE PUSH1 0x20 ADD DUP3 DUP1 SLOAD PUSH2 0x30F SWAP1 PUSH2 0xA79 JUMP JUMPDEST DUP1 ISZERO PUSH2 0x35C JUMPI DUP1 PUSH1 0x1F LT PUSH2 0x331 JUMPI PUSH2 0x100 DUP1 DUP4 SLOAD DIV MUL DUP4 MSTORE SWAP2 PUSH1 0x20 ADD SWAP2 PUSH2 0x35C JUMP JUMPDEST DUP3 ADD SWAP2 SWAP1 PUSH1 0x0 MSTORE PUSH1 0x20 PUSH1 0x0 KECCAK256 SWAP1 JUMPDEST DUP2 SLOAD DUP2 MSTORE SWAP1 PUSH1 0x1 ADD SWAP1 PUSH1 0x20 ADD DUP1 DUP4 GT PUSH2 0x33F JUMPI DUP3 SWAP1 SUB PUSH1 0x1F AND DUP3 ADD SWAP2 JUMPDEST POP POP POP POP POP DUP2 MSTORE PUSH1 0x20 ADD SWAP1 PUSH1 0x1 ADD SWAP1 PUSH2 0x2C4 JUMP JUMPDEST POP POP POP POP DUP2 MSTORE PUSH1 0x20 ADD PUSH1 0x2 DUP3 ADD SLOAD DUP2 MSTORE POP POP SWAP1 POP SWAP2 SWAP1 POP JUMP JUMPDEST PUSH1 0x3 SLOAD DUP2 JUMP JUMPDEST PUSH1 0x1 DUP3 SWAP1 DUP1 PUSH1 0x1 DUP2 SLOAD ADD DUP1 DUP3 SSTORE DUP1 SWAP2 POP POP PUSH1 0x1 SWAP1 SUB SWAP1 PUSH1 0x0 MSTORE PUSH1 0x20 PUSH1 0x0 KECCAK256 ADD PUSH1 0x0 SWAP1 SWAP2 SWAP1 SWAP2 SWAP1 SWAP2 POP SWAP1 DUP1 MLOAD SWAP1 PUSH1 0x20 ADD SWAP1 PUSH2 0x3CA SWAP3 SWAP2 SWAP1 PUSH2 0x575 JUMP JUMPDEST POP JUMPDEST PUSH1 0x1 DUP2 PUSH2 0x3D9 SWAP2 SWAP1 PUSH2 0x9F9 JUMP JUMPDEST PUSH1 0x3 SLOAD GT PUSH2 0x550 JUMPI PUSH1 0x0 PUSH1 0x40 MLOAD DUP1 PUSH1 0x60 ADD PUSH1 0x40 MSTORE DUP1 PUSH1 0x3 SLOAD DUP2 MSTORE PUSH1 0x20 ADD PUSH1 0x1 DUP1 SLOAD DUP1 PUSH1 0x20 MUL PUSH1 0x20 ADD PUSH1 0x40 MLOAD SWAP1 DUP2 ADD PUSH1 0x40 MSTORE DUP1 SWAP3 SWAP2 SWAP1 DUP2 DUP2 MSTORE PUSH1 0x20 ADD PUSH1 0x0 SWAP1 JUMPDEST DUP3 DUP3 LT ISZERO PUSH2 0x4C4 JUMPI DUP4 DUP3 SWAP1 PUSH1 0x0 MSTORE PUSH1 0x20 PUSH1 0x0 KECCAK256 ADD DUP1 SLOAD PUSH2 0x437 SWAP1 PUSH2 0xA79 JUMP JUMPDEST DUP1 PUSH1 0x1F ADD PUSH1 0x20 DUP1 SWAP2 DIV MUL PUSH1 0x20 ADD PUSH1 0x40 MLOAD SWAP1 DUP2 ADD PUSH1 0x40 MSTORE DUP1 SWAP3 SWAP2 SWAP1 DUP2 DUP2 MSTORE PUSH1 0x20 ADD DUP3 DUP1 SLOAD PUSH2 0x463 SWAP1 PUSH2 0xA79 JUMP JUMPDEST DUP1 ISZERO PUSH2 0x4B0 JUMPI DUP1 PUSH1 0x1F LT PUSH2 0x485 JUMPI PUSH2 0x100 DUP1 DUP4 SLOAD DIV MUL DUP4 MSTORE SWAP2 PUSH1 0x20 ADD SWAP2 PUSH2 0x4B0 JUMP JUMPDEST DUP3 ADD SWAP2 SWAP1 PUSH1 0x0 MSTORE PUSH1 0x20 PUSH1 0x0 KECCAK256 SWAP1 JUMPDEST DUP2 SLOAD DUP2 MSTORE SWAP1 PUSH1 0x1 ADD SWAP1 PUSH1 0x20 ADD DUP1 DUP4 GT PUSH2 0x493 JUMPI DUP3 SWAP1 SUB PUSH1 0x1F AND DUP3 ADD SWAP2 JUMPDEST POP POP POP POP POP DUP2 MSTORE PUSH1 0x20 ADD SWAP1 PUSH1 0x1 ADD SWAP1 PUSH2 0x418 JUMP JUMPDEST POP POP POP POP DUP2 MSTORE PUSH1 0x20 ADD DUP4 DUP2 MSTORE POP SWAP1 POP PUSH1 0x0 DUP2 SWAP1 DUP1 PUSH1 0x1 DUP2 SLOAD ADD DUP1 DUP3 SSTORE DUP1 SWAP2 POP POP PUSH1 0x1 SWAP1 SUB SWAP1 PUSH1 0x0 MSTORE PUSH1 0x20 PUSH1 0x0 KECCAK256 SWAP1 PUSH1 0x3 MUL ADD PUSH1 0x0 SWAP1 SWAP2 SWAP1 SWAP2 SWAP1 SWAP2 POP PUSH1 0x0 DUP3 ADD MLOAD DUP2 PUSH1 0x0 ADD SSTORE PUSH1 0x20 DUP3 ADD MLOAD DUP2 PUSH1 0x1 ADD SWAP1 DUP1 MLOAD SWAP1 PUSH1 0x20 ADD SWAP1 PUSH2 0x525 SWAP3 SWAP2 SWAP1 PUSH2 0x5FB JUMP JUMPDEST POP PUSH1 0x40 DUP3 ADD MLOAD DUP2 PUSH1 0x2 ADD SSTORE POP POP PUSH1 0x3 PUSH1 0x0 DUP2 SLOAD DUP1 SWAP3 SWAP2 SWAP1 PUSH2 0x545 SWAP1 PUSH2 0xAAB JUMP JUMPDEST SWAP2 SWAP1 POP SSTORE POP POP PUSH2 0x3CC JUMP JUMPDEST POP POP JUMP JUMPDEST PUSH1 0x40 MLOAD DUP1 PUSH1 0x60 ADD PUSH1 0x40 MSTORE DUP1 PUSH1 0x0 DUP2 MSTORE PUSH1 0x20 ADD PUSH1 0x60 DUP2 MSTORE PUSH1 0x20 ADD PUSH1 0x0 DUP2 MSTORE POP SWAP1 JUMP JUMPDEST DUP3 DUP1 SLOAD PUSH2 0x581 SWAP1 PUSH2 0xA79 JUMP JUMPDEST SWAP1 PUSH1 0x0 MSTORE PUSH1 0x20 PUSH1 0x0 KECCAK256 SWAP1 PUSH1 0x1F ADD PUSH1 0x20 SWAP1 DIV DUP2 ADD SWAP3 DUP3 PUSH2 0x5A3 JUMPI PUSH1 0x0 DUP6 SSTORE PUSH2 0x5EA JUMP JUMPDEST DUP3 PUSH1 0x1F LT PUSH2 0x5BC JUMPI DUP1 MLOAD PUSH1 0xFF NOT AND DUP4 DUP1 ADD OR DUP6 SSTORE PUSH2 0x5EA JUMP JUMPDEST DUP3 DUP1 ADD PUSH1 0x1 ADD DUP6 SSTORE DUP3 ISZERO PUSH2 0x5EA JUMPI SWAP2 DUP3 ADD JUMPDEST DUP3 DUP2 GT ISZERO PUSH2 0x5E9 JUMPI DUP3 MLOAD DUP3 SSTORE SWAP2 PUSH1 0x20 ADD SWAP2 SWAP1 PUSH1 0x1 ADD SWAP1 PUSH2 0x5CE JUMP JUMPDEST JUMPDEST POP SWAP1 POP PUSH2 0x5F7 SWAP2 SWAP1 PUSH2 0x65B JUMP JUMPDEST POP SWAP1 JUMP JUMPDEST DUP3 DUP1 SLOAD DUP3 DUP3 SSTORE SWAP1 PUSH1 0x0 MSTORE PUSH1 0x20 PUSH1 0x0 KECCAK256 SWAP1 DUP2 ADD SWAP3 DUP3 ISZERO PUSH2 0x64A JUMPI SWAP2 PUSH1 0x20 MUL DUP3 ADD JUMPDEST DUP3 DUP2 GT ISZERO PUSH2 0x649 JUMPI DUP3 MLOAD DUP3 SWAP1 DUP1 MLOAD SWAP1 PUSH1 0x20 ADD SWAP1 PUSH2 0x639 SWAP3 SWAP2 SWAP1 PUSH2 0x575 JUMP JUMPDEST POP SWAP2 PUSH1 0x20 ADD SWAP2 SWAP1 PUSH1 0x1 ADD SWAP1 PUSH2 0x61B JUMP JUMPDEST JUMPDEST POP SWAP1 POP PUSH2 0x657 SWAP2 SWAP1 PUSH2 0x678 JUMP JUMPDEST POP SWAP1 JUMP JUMPDEST JUMPDEST DUP1 DUP3 GT ISZERO PUSH2 0x674 JUMPI PUSH1 0x0 DUP2 PUSH1 0x0 SWAP1 SSTORE POP PUSH1 0x1 ADD PUSH2 0x65C JUMP JUMPDEST POP SWAP1 JUMP JUMPDEST JUMPDEST DUP1 DUP3 GT ISZERO PUSH2 0x698 JUMPI PUSH1 0x0 DUP2 DUP2 PUSH2 0x68F SWAP2 SWAP1 PUSH2 0x69C JUMP JUMPDEST POP PUSH1 0x1 ADD PUSH2 0x679 JUMP JUMPDEST POP SWAP1 JUMP JUMPDEST POP DUP1 SLOAD PUSH2 0x6A8 SWAP1 PUSH2 0xA79 JUMP JUMPDEST PUSH1 0x0 DUP3 SSTORE DUP1 PUSH1 0x1F LT PUSH2 0x6BA JUMPI POP PUSH2 0x6D9 JUMP JUMPDEST PUSH1 0x1F ADD PUSH1 0x20 SWAP1 DIV SWAP1 PUSH1 0x0 MSTORE PUSH1 0x20 PUSH1 0x0 KECCAK256 SWAP1 DUP2 ADD SWAP1 PUSH2 0x6D8 SWAP2 SWAP1 PUSH2 0x65B JUMP JUMPDEST JUMPDEST POP JUMP JUMPDEST PUSH1 0x0 PUSH2 0x6EF PUSH2 0x6EA DUP5 PUSH2 0x974 JUMP JUMPDEST PUSH2 0x943 JUMP JUMPDEST SWAP1 POP DUP3 DUP2 MSTORE PUSH1 0x20 DUP2 ADD DUP5 DUP5 DUP5 ADD GT ISZERO PUSH2 0x707 JUMPI PUSH1 0x0 DUP1 REVERT JUMPDEST PUSH2 0x712 DUP5 DUP3 DUP6 PUSH2 0xA37 JUMP JUMPDEST POP SWAP4 SWAP3 POP POP POP JUMP JUMPDEST PUSH1 0x0 DUP3 PUSH1 0x1F DUP4 ADD SLT PUSH2 0x72B JUMPI PUSH1 0x0 DUP1 REVERT JUMPDEST DUP2 CALLDATALOAD PUSH2 0x73B DUP5 DUP3 PUSH1 0x20 DUP7 ADD PUSH2 0x6DC JUMP JUMPDEST SWAP2 POP POP SWAP3 SWAP2 POP POP JUMP JUMPDEST PUSH1 0x0 DUP2 CALLDATALOAD SWAP1 POP PUSH2 0x753 DUP2 PUSH2 0xB92 JUMP JUMPDEST SWAP3 SWAP2 POP POP JUMP JUMPDEST PUSH1 0x0 DUP1 PUSH1 0x40 DUP4 DUP6 SUB SLT ISZERO PUSH2 0x76C JUMPI PUSH1 0x0 DUP1 REVERT JUMPDEST PUSH1 0x0 DUP4 ADD CALLDATALOAD PUSH8 0xFFFFFFFFFFFFFFFF DUP2 GT ISZERO PUSH2 0x786 JUMPI PUSH1 0x0 DUP1 REVERT JUMPDEST PUSH2 0x792 DUP6 DUP3 DUP7 ADD PUSH2 0x71A JUMP JUMPDEST SWAP3 POP POP PUSH1 0x20 PUSH2 0x7A3 DUP6 DUP3 DUP7 ADD PUSH2 0x744 JUMP JUMPDEST SWAP2 POP POP SWAP3 POP SWAP3 SWAP1 POP JUMP JUMPDEST PUSH1 0x0 PUSH1 0x20 DUP3 DUP5 SUB SLT ISZERO PUSH2 0x7BF JUMPI PUSH1 0x0 DUP1 REVERT JUMPDEST PUSH1 0x0 PUSH2 0x7CD DUP5 DUP3 DUP6 ADD PUSH2 0x744 JUMP JUMPDEST SWAP2 POP POP SWAP3 SWAP2 POP POP JUMP JUMPDEST PUSH1 0x0 PUSH2 0x7E2 DUP4 DUP4 PUSH2 0x85F JUMP JUMPDEST SWAP1 POP SWAP3 SWAP2 POP POP JUMP JUMPDEST PUSH1 0x0 PUSH2 0x7F5 DUP3 PUSH2 0x9B4 JUMP JUMPDEST PUSH2 0x7FF DUP2 DUP6 PUSH2 0x9D7 JUMP JUMPDEST SWAP4 POP DUP4 PUSH1 0x20 DUP3 MUL DUP6 ADD PUSH2 0x811 DUP6 PUSH2 0x9A4 JUMP JUMPDEST DUP1 PUSH1 0x0 JUMPDEST DUP6 DUP2 LT ISZERO PUSH2 0x84D JUMPI DUP5 DUP5 SUB DUP10 MSTORE DUP2 MLOAD PUSH2 0x82E DUP6 DUP3 PUSH2 0x7D6 JUMP JUMPDEST SWAP5 POP PUSH2 0x839 DUP4 PUSH2 0x9CA JUMP JUMPDEST SWAP3 POP PUSH1 0x20 DUP11 ADD SWAP10 POP POP PUSH1 0x1 DUP2 ADD SWAP1 POP PUSH2 0x815 JUMP JUMPDEST POP DUP3 SWAP8 POP DUP8 SWAP6 POP POP POP POP POP POP SWAP3 SWAP2 POP POP JUMP JUMPDEST PUSH1 0x0 PUSH2 0x86A DUP3 PUSH2 0x9BF JUMP JUMPDEST PUSH2 0x874 DUP2 DUP6 PUSH2 0x9E8 JUMP JUMPDEST SWAP4 POP PUSH2 0x884 DUP2 DUP6 PUSH1 0x20 DUP7 ADD PUSH2 0xA46 JUMP JUMPDEST PUSH2 0x88D DUP2 PUSH2 0xB81 JUMP JUMPDEST DUP5 ADD SWAP2 POP POP SWAP3 SWAP2 POP POP JUMP JUMPDEST PUSH1 0x0 PUSH1 0x60 DUP4 ADD PUSH1 0x0 DUP4 ADD MLOAD PUSH2 0x8B0 PUSH1 0x0 DUP7 ADD DUP3 PUSH2 0x8E8 JUMP JUMPDEST POP PUSH1 0x20 DUP4 ADD MLOAD DUP5 DUP3 SUB PUSH1 0x20 DUP7 ADD MSTORE PUSH2 0x8C8 DUP3 DUP3 PUSH2 0x7EA JUMP JUMPDEST SWAP2 POP POP PUSH1 0x40 DUP4 ADD MLOAD PUSH2 0x8DD PUSH1 0x40 DUP7 ADD DUP3 PUSH2 0x8E8 JUMP JUMPDEST POP DUP1 SWAP2 POP POP SWAP3 SWAP2 POP POP JUMP JUMPDEST PUSH2 0x8F1 DUP2 PUSH2 0xA2D JUMP JUMPDEST DUP3 MSTORE POP POP JUMP JUMPDEST PUSH2 0x900 DUP2 PUSH2 0xA2D JUMP JUMPDEST DUP3 MSTORE POP POP JUMP JUMPDEST PUSH1 0x0 PUSH1 0x20 DUP3 ADD SWAP1 POP DUP2 DUP2 SUB PUSH1 0x0 DUP4 ADD MSTORE PUSH2 0x920 DUP2 DUP5 PUSH2 0x898 JUMP JUMPDEST SWAP1 POP SWAP3 SWAP2 POP POP JUMP JUMPDEST PUSH1 0x0 PUSH1 0x20 DUP3 ADD SWAP1 POP PUSH2 0x93D PUSH1 0x0 DUP4 ADD DUP5 PUSH2 0x8F7 JUMP JUMPDEST SWAP3 SWAP2 POP POP JUMP JUMPDEST PUSH1 0x0 PUSH1 0x40 MLOAD SWAP1 POP DUP2 DUP2 ADD DUP2 DUP2 LT PUSH8 0xFFFFFFFFFFFFFFFF DUP3 GT OR ISZERO PUSH2 0x96A JUMPI PUSH2 0x969 PUSH2 0xB52 JUMP JUMPDEST JUMPDEST DUP1 PUSH1 0x40 MSTORE POP SWAP2 SWAP1 POP JUMP JUMPDEST PUSH1 0x0 PUSH8 0xFFFFFFFFFFFFFFFF DUP3 GT ISZERO PUSH2 0x98F JUMPI PUSH2 0x98E PUSH2 0xB52 JUMP JUMPDEST JUMPDEST PUSH1 0x1F NOT PUSH1 0x1F DUP4 ADD AND SWAP1 POP PUSH1 0x20 DUP2 ADD SWAP1 POP SWAP2 SWAP1 POP JUMP JUMPDEST PUSH1 0x0 DUP2 SWAP1 POP PUSH1 0x20 DUP3 ADD SWAP1 POP SWAP2 SWAP1 POP JUMP JUMPDEST PUSH1 0x0 DUP2 MLOAD SWAP1 POP SWAP2 SWAP1 POP JUMP JUMPDEST PUSH1 0x0 DUP2 MLOAD SWAP1 POP SWAP2 SWAP1 POP JUMP JUMPDEST PUSH1 0x0 PUSH1 0x20 DUP3 ADD SWAP1 POP SWAP2 SWAP1 POP JUMP JUMPDEST PUSH1 0x0 DUP3 DUP3 MSTORE PUSH1 0x20 DUP3 ADD SWAP1 POP SWAP3 SWAP2 POP POP JUMP JUMPDEST PUSH1 0x0 DUP3 DUP3 MSTORE PUSH1 0x20 DUP3 ADD SWAP1 POP SWAP3 SWAP2 POP POP JUMP JUMPDEST PUSH1 0x0 PUSH2 0xA04 DUP3 PUSH2 0xA2D JUMP JUMPDEST SWAP2 POP PUSH2 0xA0F DUP4 PUSH2 0xA2D JUMP JUMPDEST SWAP3 POP DUP3 DUP3 LT ISZERO PUSH2 0xA22 JUMPI PUSH2 0xA21 PUSH2 0xAF4 JUMP JUMPDEST JUMPDEST DUP3 DUP3 SUB SWAP1 POP SWAP3 SWAP2 POP POP JUMP JUMPDEST PUSH1 0x0 DUP2 SWAP1 POP SWAP2 SWAP1 POP JUMP JUMPDEST DUP3 DUP2 DUP4 CALLDATACOPY PUSH1 0x0 DUP4 DUP4 ADD MSTORE POP POP POP JUMP JUMPDEST PUSH1 0x0 JUMPDEST DUP4 DUP2 LT ISZERO PUSH2 0xA64 JUMPI DUP1 DUP3 ADD MLOAD DUP2 DUP5 ADD MSTORE PUSH1 0x20 DUP2 ADD SWAP1 POP PUSH2 0xA49 JUMP JUMPDEST DUP4 DUP2 GT ISZERO PUSH2 0xA73 JUMPI PUSH1 0x0 DUP5 DUP5 ADD MSTORE JUMPDEST POP POP POP POP JUMP JUMPDEST PUSH1 0x0 PUSH1 0x2 DUP3 DIV SWAP1 POP PUSH1 0x1 DUP3 AND DUP1 PUSH2 0xA91 JUMPI PUSH1 0x7F DUP3 AND SWAP2 POP JUMPDEST PUSH1 0x20 DUP3 LT DUP2 EQ ISZERO PUSH2 0xAA5 JUMPI PUSH2 0xAA4 PUSH2 0xB23 JUMP JUMPDEST JUMPDEST POP SWAP2 SWAP1 POP JUMP JUMPDEST PUSH1 0x0 PUSH2 0xAB6 DUP3 PUSH2 0xA2D JUMP JUMPDEST SWAP2 POP PUSH32 0xFFFFFFFFFFFFFFFFFFFFFFFFFFFFFFFFFFFFFFFFFFFFFFFFFFFFFFFFFFFFFFFF DUP3 EQ ISZERO PUSH2 0xAE9 JUMPI PUSH2 0xAE8 PUSH2 0xAF4 JUMP JUMPDEST JUMPDEST PUSH1 0x1 DUP3 ADD SWAP1 POP SWAP2 SWAP1 POP JUMP JUMPDEST PUSH32 0x4E487B7100000000000000000000000000000000000000000000000000000000 PUSH1 0x0 MSTORE PUSH1 0x11 PUSH1 0x4 MSTORE PUSH1 0x24 PUSH1 0x0 REVERT JUMPDEST PUSH32 0x4E487B7100000000000000000000000000000000000000000000000000000000 PUSH1 0x0 MSTORE PUSH1 0x22 PUSH1 0x4 MSTORE PUSH1 0x24 PUSH1 0x0 REVERT JUMPDEST PUSH32 0x4E487B7100000000000000000000000000000000000000000000000000000000 PUSH1 0x0 MSTORE PUSH1 0x41 PUSH1 0x4 MSTORE PUSH1 0x24 PUSH1 0x0 REVERT JUMPDEST PUSH1 0x0 PUSH1 0x1F NOT PUSH1 0x1F DUP4 ADD AND SWAP1 POP SWAP2 SWAP1 POP JUMP JUMPDEST PUSH2 0xB9B DUP2 PUSH2 0xA2D JUMP JUMPDEST DUP2 EQ PUSH2 0xBA6 JUMPI PUSH1 0x0 DUP1 REVERT JUMPDEST POP JUMP INVALID LOG2 PUSH5 0x6970667358 0x22 SLT KECCAK256 NUMBER 0xCB GASLIMIT 0x2D SWAP6 PUSH9 0x6382DAF616F966B77A 0xD2 0x23 SLOAD PUSH4 0xC84F33EE PUSH10 0x4445ABB395F98FD86473 PUSH16 0x6C634300080000330000000000000000 "
				},
				"gasEstimates": {
					"creation": {
						"codeDepositCost": "607800",
						"executionCost": "638",
						"totalCost": "608438"
					},
					"external": {
						"createOptions(string,uint256)": "infinite",
						"getOptionStructure(uint256)": "infinite",
						"getResultOptions(uint256)": "infinite",
						"optionCount()": "1151"
					}
				},
				"methodIdentifiers": {
					"createOptions(string,uint256)": "f804128c",
					"getOptionStructure(uint256)": "a92f01e7",
					"getResultOptions(uint256)": "bb8247c5",
					"optionCount()": "e32fe90b"
				}
			},
			"storageLayout": {
				"storage": [
					{
						"astId": 14,
						"contract": "contracts/shit.sol:StructArrayInitWrong",
						"label": "options",
						"offset": 0,
						"slot": "0",
						"type": "t_array(t_struct(Option)10_storage)dyn_storage"
					},
					{
						"astId": 17,
						"contract": "contracts/shit.sol:StructArrayInitWrong",
						"label": "nms",
						"offset": 0,
						"slot": "1",
						"type": "t_array(t_string_storage)dyn_storage"
					},
					{
						"astId": 20,
						"contract": "contracts/shit.sol:StructArrayInitWrong",
						"label": "adr",
						"offset": 0,
						"slot": "2",
						"type": "t_array(t_address)dyn_storage"
					},
					{
						"astId": 22,
						"contract": "contracts/shit.sol:StructArrayInitWrong",
						"label": "optionCount",
						"offset": 0,
						"slot": "3",
						"type": "t_uint256"
					}
				],
				"types": {
					"t_address": {
						"encoding": "inplace",
						"label": "address",
						"numberOfBytes": "20"
					},
					"t_array(t_address)dyn_storage": {
						"base": "t_address",
						"encoding": "dynamic_array",
						"label": "address[]",
						"numberOfBytes": "32"
					},
					"t_array(t_string_storage)dyn_storage": {
						"base": "t_string_storage",
						"encoding": "dynamic_array",
						"label": "string[]",
						"numberOfBytes": "32"
					},
					"t_array(t_struct(Option)10_storage)dyn_storage": {
						"base": "t_struct(Option)10_storage",
						"encoding": "dynamic_array",
						"label": "struct StructArrayInitWrong.Option[]",
						"numberOfBytes": "32"
					},
					"t_string_storage": {
						"encoding": "bytes",
						"label": "string",
						"numberOfBytes": "32"
					},
					"t_struct(Option)10_storage": {
						"encoding": "inplace",
						"label": "struct StructArrayInitWrong.Option",
						"members": [
							{
								"astId": 4,
								"contract": "contracts/shit.sol:StructArrayInitWrong",
								"label": "id",
								"offset": 0,
								"slot": "0",
								"type": "t_uint256"
							},
							{
								"astId": 7,
								"contract": "contracts/shit.sol:StructArrayInitWrong",
								"label": "name",
								"offset": 0,
								"slot": "1",
								"type": "t_array(t_string_storage)dyn_storage"
							},
							{
								"astId": 9,
								"contract": "contracts/shit.sol:StructArrayInitWrong",
								"label": "num",
								"offset": 0,
								"slot": "2",
								"type": "t_uint256"
							}
						],
						"numberOfBytes": "96"
					},
					"t_uint256": {
						"encoding": "inplace",
						"label": "uint256",
						"numberOfBytes": "32"
					}
				}
			},
			"userdoc": {
				"kind": "user",
				"methods": {},
				"version": 1
			}
		}
	}
}