{
	"contracts/proposal.sol": {
		"TestProposal": {
			"abi": [
				{
					"inputs": [],
					"stateMutability": "nonpayable",
					"type": "constructor"
				},
				{
					"inputs": [
						{
							"internalType": "uint256",
							"name": "_proposalId",
							"type": "uint256"
						},
						{
							"internalType": "uint256",
							"name": "_proposalStatus",
							"type": "uint256"
						},
						{
							"internalType": "address",
							"name": "_proposalCreator",
							"type": "address"
						},
						{
							"internalType": "uint256",
							"name": "_proposalNumOfOptions",
							"type": "uint256"
						}
					],
					"name": "addProposal",
					"outputs": [],
					"stateMutability": "nonpayable",
					"type": "function"
				},
				{
					"inputs": [],
					"name": "getOprions",
					"outputs": [
						{
							"internalType": "string[]",
							"name": "",
							"type": "string[]"
						}
					],
					"stateMutability": "view",
					"type": "function"
				},
				{
					"inputs": [
						{
							"internalType": "uint256",
							"name": "_proposalId",
							"type": "uint256"
						}
					],
					"name": "getProposalStructure",
					"outputs": [
						{
							"components": [
								{
									"internalType": "uint256",
									"name": "proposalId",
									"type": "uint256"
								},
								{
									"internalType": "uint256",
									"name": "proposalStatus",
									"type": "uint256"
								},
								{
									"internalType": "address",
									"name": "proposalCreator",
									"type": "address"
								},
								{
									"internalType": "uint256",
									"name": "proposalNumOfOptions",
									"type": "uint256"
								}
							],
							"internalType": "struct TestProposal.Proposal",
							"name": "",
							"type": "tuple"
						}
					],
					"stateMutability": "view",
					"type": "function"
				},
				{
					"inputs": [
						{
							"internalType": "uint256",
							"name": "",
							"type": "uint256"
						}
					],
					"name": "opopop",
					"outputs": [
						{
							"internalType": "string",
							"name": "",
							"type": "string"
						}
					],
					"stateMutability": "view",
					"type": "function"
				},
				{
					"inputs": [],
					"name": "proposalCount",
					"outputs": [
						{
							"internalType": "uint256",
							"name": "",
							"type": "uint256"
						}
					],
					"stateMutability": "view",
					"type": "function"
				},
				{
					"inputs": [
						{
							"internalType": "uint256",
							"name": "",
							"type": "uint256"
						}
					],
					"name": "proposals",
					"outputs": [
						{
							"internalType": "uint256",
							"name": "proposalId",
							"type": "uint256"
						},
						{
							"internalType": "uint256",
							"name": "proposalStatus",
							"type": "uint256"
						},
						{
							"internalType": "address",
							"name": "proposalCreator",
							"type": "address"
						},
						{
							"internalType": "uint256",
							"name": "proposalNumOfOptions",
							"type": "uint256"
						}
					],
					"stateMutability": "view",
					"type": "function"
				},
				{
					"inputs": [
						{
							"internalType": "string",
							"name": "_options",
							"type": "string"
						}
					],
					"name": "smt",
					"outputs": [],
					"stateMutability": "nonpayable",
					"type": "function"
				}
			],
			"devdoc": {
				"kind": "dev",
				"methods": {},
				"version": 1
			},
			"evm": {
				"assembly": "    /* \"contracts/proposal.sol\":229:2083  contract TestProposal {\r... */\n  mstore(0x40, 0x80)\n    /* \"contracts/proposal.sol\":776:908  constructor() public {\r... */\n  callvalue\n  dup1\n  iszero\n  tag_1\n  jumpi\n  0x00\n  dup1\n  revert\ntag_1:\n  pop\n    /* \"contracts/proposal.sol\":824:825  0 */\n  0x00\n    /* \"contracts/proposal.sol\":808:821  proposalCount */\n  0x01\n    /* \"contracts/proposal.sol\":808:825  proposalCount = 0 */\n  dup2\n  swap1\n  sstore\n  pop\n    /* \"contracts/proposal.sol\":836:900  addProposal(1, 1, 0xB5dea2661dfa4b8f0aaE8Bc1F583369D927c3b06, 3) */\n  tag_4\n    /* \"contracts/proposal.sol\":848:849  1 */\n  0x01\n    /* \"contracts/proposal.sol\":851:852  1 */\n  dup1\n    /* \"contracts/proposal.sol\":854:896  0xB5dea2661dfa4b8f0aaE8Bc1F583369D927c3b06 */\n  0xb5dea2661dfa4b8f0aae8bc1f583369d927c3b06\n    /* \"contracts/proposal.sol\":898:899  3 */\n  0x03\n    /* \"contracts/proposal.sol\":836:847  addProposal */\n  shl(0x20, tag_5)\n    /* \"contracts/proposal.sol\":836:900  addProposal(1, 1, 0xB5dea2661dfa4b8f0aaE8Bc1F583369D927c3b06, 3) */\n  0x20\n  shr\n  jump\t// in\ntag_4:\n    /* \"contracts/proposal.sol\":229:2083  contract TestProposal {\r... */\n  jump(tag_6)\n    /* \"contracts/proposal.sol\":916:1189  function addProposal(uint _proposalId, uint _proposalStatus, address _proposalCreator, uint _proposalNumOfOptions) public {\r... */\ntag_5:\n    /* \"contracts/proposal.sol\":1076:1155  Proposal(_proposalId, _proposalStatus, _proposalCreator, _proposalNumOfOptions) */\n  mload(0x40)\n  dup1\n  0x80\n  add\n  0x40\n  mstore\n  dup1\n    /* \"contracts/proposal.sol\":1085:1096  _proposalId */\n  dup6\n    /* \"contracts/proposal.sol\":1076:1155  Proposal(_proposalId, _proposalStatus, _proposalCreator, _proposalNumOfOptions) */\n  dup2\n  mstore\n  0x20\n  add\n    /* \"contracts/proposal.sol\":1098:1113  _proposalStatus */\n  dup5\n    /* \"contracts/proposal.sol\":1076:1155  Proposal(_proposalId, _proposalStatus, _proposalCreator, _proposalNumOfOptions) */\n  dup2\n  mstore\n  0x20\n  add\n    /* \"contracts/proposal.sol\":1115:1131  _proposalCreator */\n  dup4\n    /* \"contracts/proposal.sol\":1076:1155  Proposal(_proposalId, _proposalStatus, _proposalCreator, _proposalNumOfOptions) */\n  0xffffffffffffffffffffffffffffffffffffffff\n  and\n  dup2\n  mstore\n  0x20\n  add\n    /* \"contracts/proposal.sol\":1133:1154  _proposalNumOfOptions */\n  dup3\n    /* \"contracts/proposal.sol\":1076:1155  Proposal(_proposalId, _proposalStatus, _proposalCreator, _proposalNumOfOptions) */\n  dup2\n  mstore\n  pop\n    /* \"contracts/proposal.sol\":1049:1058  proposals */\n  0x00\n    /* \"contracts/proposal.sol\":1049:1073  proposals[proposalCount] */\n  dup1\n    /* \"contracts/proposal.sol\":1059:1072  proposalCount */\n  sload(0x01)\n    /* \"contracts/proposal.sol\":1049:1073  proposals[proposalCount] */\n  dup2\n  mstore\n  0x20\n  add\n  swap1\n  dup2\n  mstore\n  0x20\n  add\n  0x00\n  keccak256\n    /* \"contracts/proposal.sol\":1049:1155  proposals[proposalCount] = Proposal(_proposalId, _proposalStatus, _proposalCreator, _proposalNumOfOptions) */\n  0x00\n  dup3\n  add\n  mload\n  dup2\n  0x00\n  add\n  sstore\n  0x20\n  dup3\n  add\n  mload\n  dup2\n  0x01\n  add\n  sstore\n  0x40\n  dup3\n  add\n  mload\n  dup2\n  0x02\n  add\n  exp(0x0100, 0x00)\n  dup2\n  sload\n  dup2\n  0xffffffffffffffffffffffffffffffffffffffff\n  mul\n  not\n  and\n  swap1\n  dup4\n  0xffffffffffffffffffffffffffffffffffffffff\n  and\n  mul\n  or\n  swap1\n  sstore\n  pop\n  0x60\n  dup3\n  add\n  mload\n  dup2\n  0x03\n  add\n  sstore\n  swap1\n  pop\n  pop\n    /* \"contracts/proposal.sol\":1166:1179  proposalCount */\n  0x01\n  0x00\n    /* \"contracts/proposal.sol\":1166:1181  proposalCount++ */\n  dup2\n  sload\n  dup1\n  swap3\n  swap2\n  swap1\n  tag_8\n  swap1\n  tag_9\n  jump\t// in\ntag_8:\n  swap2\n  swap1\n  pop\n  sstore\n  pop\n    /* \"contracts/proposal.sol\":916:1189  function addProposal(uint _proposalId, uint _proposalStatus, address _proposalCreator, uint _proposalNumOfOptions) public {\r... */\n  pop\n  pop\n  pop\n  pop\n  jump\t// out\n    /* \"#utility.yul\":7:84   */\ntag_11:\n  0x00\n    /* \"#utility.yul\":73:78   */\n  dup2\n    /* \"#utility.yul\":62:78   */\n  swap1\n  pop\n    /* \"#utility.yul\":52:84   */\n  swap2\n  swap1\n  pop\n  jump\t// out\n    /* \"#utility.yul\":90:323   */\ntag_9:\n  0x00\n    /* \"#utility.yul\":152:176   */\n  tag_14\n    /* \"#utility.yul\":170:175   */\n  dup3\n    /* \"#utility.yul\":152:176   */\n  tag_11\n  jump\t// in\ntag_14:\n    /* \"#utility.yul\":143:176   */\n  swap2\n  pop\n    /* \"#utility.yul\":198:264   */\n  0xffffffffffffffffffffffffffffffffffffffffffffffffffffffffffffffff\n    /* \"#utility.yul\":191:196   */\n  dup3\n    /* \"#utility.yul\":188:265   */\n  eq\n    /* \"#utility.yul\":185:187   */\n  iszero\n  tag_15\n  jumpi\n    /* \"#utility.yul\":268:286   */\n  tag_16\n  tag_17\n  jump\t// in\ntag_16:\n    /* \"#utility.yul\":185:187   */\ntag_15:\n    /* \"#utility.yul\":315:316   */\n  0x01\n    /* \"#utility.yul\":308:313   */\n  dup3\n    /* \"#utility.yul\":304:317   */\n  add\n    /* \"#utility.yul\":297:317   */\n  swap1\n  pop\n    /* \"#utility.yul\":133:323   */\n  swap2\n  swap1\n  pop\n  jump\t// out\n    /* \"#utility.yul\":329:509   */\ntag_17:\n    /* \"#utility.yul\":377:454   */\n  0x4e487b7100000000000000000000000000000000000000000000000000000000\n    /* \"#utility.yul\":374:375   */\n  0x00\n    /* \"#utility.yul\":367:455   */\n  mstore\n    /* \"#utility.yul\":474:478   */\n  0x11\n    /* \"#utility.yul\":471:472   */\n  0x04\n    /* \"#utility.yul\":464:479   */\n  mstore\n    /* \"#utility.yul\":498:502   */\n  0x24\n    /* \"#utility.yul\":495:496   */\n  0x00\n    /* \"#utility.yul\":488:503   */\n  revert\n    /* \"contracts/proposal.sol\":229:2083  contract TestProposal {\r... */\ntag_6:\n  dataSize(sub_0)\n  dup1\n  dataOffset(sub_0)\n  0x00\n  codecopy\n  0x00\n  return\nstop\n\nsub_0: assembly {\n        /* \"contracts/proposal.sol\":229:2083  contract TestProposal {\r... */\n      mstore(0x40, 0x80)\n      callvalue\n      dup1\n      iszero\n      tag_1\n      jumpi\n      0x00\n      dup1\n      revert\n    tag_1:\n      pop\n      jumpi(tag_2, lt(calldatasize, 0x04))\n      shr(0xe0, calldataload(0x00))\n      dup1\n      0xb723a32c\n      gt\n      tag_10\n      jumpi\n      dup1\n      0xb723a32c\n      eq\n      tag_6\n      jumpi\n      dup1\n      0xcae455ee\n      eq\n      tag_7\n      jumpi\n      dup1\n      0xda35c664\n      eq\n      tag_8\n      jumpi\n      dup1\n      0xe9d6c6da\n      eq\n      tag_9\n      jumpi\n      jump(tag_2)\n    tag_10:\n      dup1\n      0x013cf08b\n      eq\n      tag_3\n      jumpi\n      dup1\n      0x32fc40be\n      eq\n      tag_4\n      jumpi\n      dup1\n      0x96caabb8\n      eq\n      tag_5\n      jumpi\n    tag_2:\n      0x00\n      dup1\n      revert\n        /* \"contracts/proposal.sol\":639:682  mapping (uint => Proposal) public proposals */\n    tag_3:\n      tag_11\n      0x04\n      dup1\n      calldatasize\n      sub\n      dup2\n      add\n      swap1\n      tag_12\n      swap2\n      swap1\n      tag_13\n      jump\t// in\n    tag_12:\n      tag_14\n      jump\t// in\n    tag_11:\n      mload(0x40)\n      tag_15\n      swap5\n      swap4\n      swap3\n      swap2\n      swap1\n      tag_16\n      jump\t// in\n    tag_15:\n      mload(0x40)\n      dup1\n      swap2\n      sub\n      swap1\n      return\n        /* \"contracts/proposal.sol\":1400:1490  function getOprions() public view returns(string[] memory){\r... */\n    tag_4:\n      tag_17\n      tag_18\n      jump\t// in\n    tag_17:\n      mload(0x40)\n      tag_19\n      swap2\n      swap1\n      tag_20\n      jump\t// in\n    tag_19:\n      mload(0x40)\n      dup1\n      swap2\n      sub\n      swap1\n      return\n        /* \"contracts/proposal.sol\":1498:2079  function smt(string memory _options) public {                                               \r... */\n    tag_5:\n      tag_21\n      0x04\n      dup1\n      calldatasize\n      sub\n      dup2\n      add\n      swap1\n      tag_22\n      swap2\n      swap1\n      tag_23\n      jump\t// in\n    tag_22:\n      tag_24\n      jump\t// in\n    tag_21:\n      stop\n        /* \"contracts/proposal.sol\":1369:1391  string[] public opopop */\n    tag_6:\n      tag_25\n      0x04\n      dup1\n      calldatasize\n      sub\n      dup2\n      add\n      swap1\n      tag_26\n      swap2\n      swap1\n      tag_13\n      jump\t// in\n    tag_26:\n      tag_27\n      jump\t// in\n    tag_25:\n      mload(0x40)\n      tag_28\n      swap2\n      swap1\n      tag_29\n      jump\t// in\n    tag_28:\n      mload(0x40)\n      dup1\n      swap2\n      sub\n      swap1\n      return\n        /* \"contracts/proposal.sol\":916:1189  function addProposal(uint _proposalId, uint _proposalStatus, address _proposalCreator, uint _proposalNumOfOptions) public {\r... */\n    tag_7:\n      tag_30\n      0x04\n      dup1\n      calldatasize\n      sub\n      dup2\n      add\n      swap1\n      tag_31\n      swap2\n      swap1\n      tag_32\n      jump\t// in\n    tag_31:\n      tag_33\n      jump\t// in\n    tag_30:\n      stop\n        /* \"contracts/proposal.sol\":742:767  uint public proposalCount */\n    tag_8:\n      tag_34\n      tag_35\n      jump\t// in\n    tag_34:\n      mload(0x40)\n      tag_36\n      swap2\n      swap1\n      tag_37\n      jump\t// in\n    tag_36:\n      mload(0x40)\n      dup1\n      swap2\n      sub\n      swap1\n      return\n        /* \"contracts/proposal.sol\":1197:1329  function getProposalStructure(uint _proposalId) public view returns(Proposal memory){\r... */\n    tag_9:\n      tag_38\n      0x04\n      dup1\n      calldatasize\n      sub\n      dup2\n      add\n      swap1\n      tag_39\n      swap2\n      swap1\n      tag_13\n      jump\t// in\n    tag_39:\n      tag_40\n      jump\t// in\n    tag_38:\n      mload(0x40)\n      tag_41\n      swap2\n      swap1\n      tag_42\n      jump\t// in\n    tag_41:\n      mload(0x40)\n      dup1\n      swap2\n      sub\n      swap1\n      return\n        /* \"contracts/proposal.sol\":639:682  mapping (uint => Proposal) public proposals */\n    tag_14:\n      mstore(0x20, 0x00)\n      dup1\n      0x00\n      mstore\n      keccak256(0x00, 0x40)\n      0x00\n      swap2\n      pop\n      swap1\n      pop\n      dup1\n      0x00\n      add\n      sload\n      swap1\n      dup1\n      0x01\n      add\n      sload\n      swap1\n      dup1\n      0x02\n      add\n      0x00\n      swap1\n      sload\n      swap1\n      0x0100\n      exp\n      swap1\n      div\n      0xffffffffffffffffffffffffffffffffffffffff\n      and\n      swap1\n      dup1\n      0x03\n      add\n      sload\n      swap1\n      pop\n      dup5\n      jump\t// out\n        /* \"contracts/proposal.sol\":1400:1490  function getOprions() public view returns(string[] memory){\r... */\n    tag_18:\n        /* \"contracts/proposal.sol\":1442:1457  string[] memory */\n      0x60\n        /* \"contracts/proposal.sol\":1476:1482  opopop */\n      0x02\n        /* \"contracts/proposal.sol\":1469:1482  return opopop */\n      dup1\n      sload\n      dup1\n      0x20\n      mul\n      0x20\n      add\n      mload(0x40)\n      swap1\n      dup2\n      add\n      0x40\n      mstore\n      dup1\n      swap3\n      swap2\n      swap1\n      dup2\n      dup2\n      mstore\n      0x20\n      add\n      0x00\n      swap1\n    tag_44:\n      dup3\n      dup3\n      lt\n      iszero\n      tag_45\n      jumpi\n      dup4\n      dup3\n      swap1\n      0x00\n      mstore\n      keccak256(0x00, 0x20)\n      add\n      dup1\n      sload\n      tag_47\n      swap1\n      tag_48\n      jump\t// in\n    tag_47:\n      dup1\n      0x1f\n      add\n      0x20\n      dup1\n      swap2\n      div\n      mul\n      0x20\n      add\n      mload(0x40)\n      swap1\n      dup2\n      add\n      0x40\n      mstore\n      dup1\n      swap3\n      swap2\n      swap1\n      dup2\n      dup2\n      mstore\n      0x20\n      add\n      dup3\n      dup1\n      sload\n      tag_49\n      swap1\n      tag_48\n      jump\t// in\n    tag_49:\n      dup1\n      iszero\n      tag_50\n      jumpi\n      dup1\n      0x1f\n      lt\n      tag_51\n      jumpi\n      0x0100\n      dup1\n      dup4\n      sload\n      div\n      mul\n      dup4\n      mstore\n      swap2\n      0x20\n      add\n      swap2\n      jump(tag_50)\n    tag_51:\n      dup3\n      add\n      swap2\n      swap1\n      0x00\n      mstore\n      keccak256(0x00, 0x20)\n      swap1\n    tag_52:\n      dup2\n      sload\n      dup2\n      mstore\n      swap1\n      0x01\n      add\n      swap1\n      0x20\n      add\n      dup1\n      dup4\n      gt\n      tag_52\n      jumpi\n      dup3\n      swap1\n      sub\n      0x1f\n      and\n      dup3\n      add\n      swap2\n    tag_50:\n      pop\n      pop\n      pop\n      pop\n      pop\n      dup2\n      mstore\n      0x20\n      add\n      swap1\n      0x01\n      add\n      swap1\n      jump(tag_44)\n    tag_45:\n      pop\n      pop\n      pop\n      pop\n      swap1\n      pop\n        /* \"contracts/proposal.sol\":1400:1490  function getOprions() public view returns(string[] memory){\r... */\n      swap1\n      jump\t// out\n        /* \"contracts/proposal.sol\":1498:2079  function smt(string memory _options) public {                                               \r... */\n    tag_24:\n        /* \"contracts/proposal.sol\":1600:1622  strings.slice memory s */\n      0x00\n        /* \"contracts/proposal.sol\":1625:1643  _options.toSlice() */\n      tag_54\n        /* \"contracts/proposal.sol\":1625:1633  _options */\n      dup3\n        /* \"contracts/proposal.sol\":1625:1641  _options.toSlice */\n      tag_55\n        /* \"contracts/proposal.sol\":1625:1643  _options.toSlice() */\n      jump\t// in\n    tag_54:\n        /* \"contracts/proposal.sol\":1600:1643  strings.slice memory s = _options.toSlice() */\n      swap1\n      pop\n        /* \"contracts/proposal.sol\":1670:1696  strings.slice memory delim */\n      0x00\n        /* \"contracts/proposal.sol\":1699:1712  \"-\".toSlice() */\n      tag_56\n        /* \"contracts/proposal.sol\":1699:1710  \"-\".toSlice */\n      mload(0x40)\n      dup1\n      0x40\n      add\n      0x40\n      mstore\n      dup1\n      0x01\n      dup2\n      mstore\n      0x20\n      add\n      0x2d00000000000000000000000000000000000000000000000000000000000000\n      dup2\n      mstore\n      pop\n      tag_55\n        /* \"contracts/proposal.sol\":1699:1712  \"-\".toSlice() */\n      jump\t// in\n    tag_56:\n        /* \"contracts/proposal.sol\":1670:1712  strings.slice memory delim = \"-\".toSlice() */\n      swap1\n      pop\n        /* \"contracts/proposal.sol\":1751:1772  string[] memory parts */\n      0x00\n        /* \"contracts/proposal.sol\":1803:1804  1 */\n      0x01\n        /* \"contracts/proposal.sol\":1788:1802  s.count(delim) */\n      tag_57\n        /* \"contracts/proposal.sol\":1796:1801  delim */\n      dup4\n        /* \"contracts/proposal.sol\":1788:1789  s */\n      dup6\n        /* \"contracts/proposal.sol\":1788:1795  s.count */\n      tag_58\n      swap1\n        /* \"contracts/proposal.sol\":1788:1802  s.count(delim) */\n      swap2\n      swap1\n      0xffffffff\n      and\n      jump\t// in\n    tag_57:\n        /* \"contracts/proposal.sol\":1788:1804  s.count(delim)+1 */\n      tag_59\n      swap2\n      swap1\n      tag_60\n      jump\t// in\n    tag_59:\n        /* \"contracts/proposal.sol\":1775:1805  new string[](s.count(delim)+1) */\n      0xffffffffffffffff\n      dup2\n      gt\n      iszero\n      tag_61\n      jumpi\n      mstore(0x00, 0x4e487b7100000000000000000000000000000000000000000000000000000000)\n      mstore(0x04, 0x41)\n      revert(0x00, 0x24)\n    tag_61:\n      mload(0x40)\n      swap1\n      dup1\n      dup3\n      mstore\n      dup1\n      0x20\n      mul\n      0x20\n      add\n      dup3\n      add\n      0x40\n      mstore\n      dup1\n      iszero\n      tag_62\n      jumpi\n      dup2\n      0x20\n      add\n    tag_63:\n      0x60\n      dup2\n      mstore\n      0x20\n      add\n      swap1\n      0x01\n      swap1\n      sub\n      swap1\n      dup2\n      tag_63\n      jumpi\n      swap1\n      pop\n    tag_62:\n      pop\n        /* \"contracts/proposal.sol\":1751:1805  string[] memory parts = new string[](s.count(delim)+1) */\n      swap1\n      pop\n        /* \"contracts/proposal.sol\":1839:1845  uint i */\n      0x00\n        /* \"contracts/proposal.sol\":1834:2003  for (uint i = 0; i < parts.length; i++) {                              \r... */\n    tag_64:\n        /* \"contracts/proposal.sol\":1855:1860  parts */\n      dup2\n        /* \"contracts/proposal.sol\":1855:1867  parts.length */\n      mload\n        /* \"contracts/proposal.sol\":1851:1852  i */\n      dup2\n        /* \"contracts/proposal.sol\":1851:1867  i < parts.length */\n      lt\n        /* \"contracts/proposal.sol\":1834:2003  for (uint i = 0; i < parts.length; i++) {                              \r... */\n      iszero\n      tag_65\n      jumpi\n        /* \"contracts/proposal.sol\":1930:1955  s.split(delim).toString() */\n      tag_67\n        /* \"contracts/proposal.sol\":1930:1944  s.split(delim) */\n      tag_68\n        /* \"contracts/proposal.sol\":1938:1943  delim */\n      dup5\n        /* \"contracts/proposal.sol\":1930:1931  s */\n      dup7\n        /* \"contracts/proposal.sol\":1930:1937  s.split */\n      tag_69\n      swap1\n        /* \"contracts/proposal.sol\":1930:1944  s.split(delim) */\n      swap2\n      swap1\n      0xffffffff\n      and\n      jump\t// in\n    tag_68:\n        /* \"contracts/proposal.sol\":1930:1953  s.split(delim).toString */\n      tag_70\n        /* \"contracts/proposal.sol\":1930:1955  s.split(delim).toString() */\n      jump\t// in\n    tag_67:\n        /* \"contracts/proposal.sol\":1919:1924  parts */\n      dup3\n        /* \"contracts/proposal.sol\":1925:1926  i */\n      dup3\n        /* \"contracts/proposal.sol\":1919:1927  parts[i] */\n      dup2\n      mload\n      dup2\n      lt\n      tag_71\n      jumpi\n      mstore(0x00, 0x4e487b7100000000000000000000000000000000000000000000000000000000)\n      mstore(0x04, 0x32)\n      revert(0x00, 0x24)\n    tag_71:\n      0x20\n      mul\n      0x20\n      add\n      add\n        /* \"contracts/proposal.sol\":1919:1955  parts[i] = s.split(delim).toString() */\n      dup2\n      swap1\n      mstore\n      pop\n        /* \"contracts/proposal.sol\":1970:1976  opopop */\n      0x02\n        /* \"contracts/proposal.sol\":1982:1987  parts */\n      dup3\n        /* \"contracts/proposal.sol\":1988:1989  i */\n      dup3\n        /* \"contracts/proposal.sol\":1982:1990  parts[i] */\n      dup2\n      mload\n      dup2\n      lt\n      tag_72\n      jumpi\n      mstore(0x00, 0x4e487b7100000000000000000000000000000000000000000000000000000000)\n      mstore(0x04, 0x32)\n      revert(0x00, 0x24)\n    tag_72:\n      0x20\n      mul\n      0x20\n      add\n      add\n      mload\n        /* \"contracts/proposal.sol\":1970:1991  opopop.push(parts[i]) */\n      swap1\n      dup1\n      0x01\n      dup2\n      sload\n      add\n      dup1\n      dup3\n      sstore\n      dup1\n      swap2\n      pop\n      pop\n      0x01\n      swap1\n      sub\n      swap1\n      0x00\n      mstore\n      keccak256(0x00, 0x20)\n      add\n      0x00\n      swap1\n      swap2\n      swap1\n      swap2\n      swap1\n      swap2\n      pop\n      swap1\n      dup1\n      mload\n      swap1\n      0x20\n      add\n      swap1\n      tag_74\n      swap3\n      swap2\n      swap1\n      tag_75\n      jump\t// in\n    tag_74:\n      pop\n        /* \"contracts/proposal.sol\":1869:1872  i++ */\n      dup1\n      dup1\n      tag_76\n      swap1\n      tag_77\n      jump\t// in\n    tag_76:\n      swap2\n      pop\n      pop\n        /* \"contracts/proposal.sol\":1834:2003  for (uint i = 0; i < parts.length; i++) {                              \r... */\n      jump(tag_64)\n    tag_65:\n      pop\n        /* \"contracts/proposal.sol\":1498:2079  function smt(string memory _options) public {                                               \r... */\n      pop\n      pop\n      pop\n      pop\n      jump\t// out\n        /* \"contracts/proposal.sol\":1369:1391  string[] public opopop */\n    tag_27:\n      0x02\n      dup2\n      dup2\n      sload\n      dup2\n      lt\n      tag_78\n      jumpi\n      0x00\n      dup1\n      revert\n    tag_78:\n      swap1\n      0x00\n      mstore\n      keccak256(0x00, 0x20)\n      add\n      0x00\n      swap2\n      pop\n      swap1\n      pop\n      dup1\n      sload\n      tag_80\n      swap1\n      tag_48\n      jump\t// in\n    tag_80:\n      dup1\n      0x1f\n      add\n      0x20\n      dup1\n      swap2\n      div\n      mul\n      0x20\n      add\n      mload(0x40)\n      swap1\n      dup2\n      add\n      0x40\n      mstore\n      dup1\n      swap3\n      swap2\n      swap1\n      dup2\n      dup2\n      mstore\n      0x20\n      add\n      dup3\n      dup1\n      sload\n      tag_81\n      swap1\n      tag_48\n      jump\t// in\n    tag_81:\n      dup1\n      iszero\n      tag_82\n      jumpi\n      dup1\n      0x1f\n      lt\n      tag_83\n      jumpi\n      0x0100\n      dup1\n      dup4\n      sload\n      div\n      mul\n      dup4\n      mstore\n      swap2\n      0x20\n      add\n      swap2\n      jump(tag_82)\n    tag_83:\n      dup3\n      add\n      swap2\n      swap1\n      0x00\n      mstore\n      keccak256(0x00, 0x20)\n      swap1\n    tag_84:\n      dup2\n      sload\n      dup2\n      mstore\n      swap1\n      0x01\n      add\n      swap1\n      0x20\n      add\n      dup1\n      dup4\n      gt\n      tag_84\n      jumpi\n      dup3\n      swap1\n      sub\n      0x1f\n      and\n      dup3\n      add\n      swap2\n    tag_82:\n      pop\n      pop\n      pop\n      pop\n      pop\n      dup2\n      jump\t// out\n        /* \"contracts/proposal.sol\":916:1189  function addProposal(uint _proposalId, uint _proposalStatus, address _proposalCreator, uint _proposalNumOfOptions) public {\r... */\n    tag_33:\n        /* \"contracts/proposal.sol\":1076:1155  Proposal(_proposalId, _proposalStatus, _proposalCreator, _proposalNumOfOptions) */\n      mload(0x40)\n      dup1\n      0x80\n      add\n      0x40\n      mstore\n      dup1\n        /* \"contracts/proposal.sol\":1085:1096  _proposalId */\n      dup6\n        /* \"contracts/proposal.sol\":1076:1155  Proposal(_proposalId, _proposalStatus, _proposalCreator, _proposalNumOfOptions) */\n      dup2\n      mstore\n      0x20\n      add\n        /* \"contracts/proposal.sol\":1098:1113  _proposalStatus */\n      dup5\n        /* \"contracts/proposal.sol\":1076:1155  Proposal(_proposalId, _proposalStatus, _proposalCreator, _proposalNumOfOptions) */\n      dup2\n      mstore\n      0x20\n      add\n        /* \"contracts/proposal.sol\":1115:1131  _proposalCreator */\n      dup4\n        /* \"contracts/proposal.sol\":1076:1155  Proposal(_proposalId, _proposalStatus, _proposalCreator, _proposalNumOfOptions) */\n      0xffffffffffffffffffffffffffffffffffffffff\n      and\n      dup2\n      mstore\n      0x20\n      add\n        /* \"contracts/proposal.sol\":1133:1154  _proposalNumOfOptions */\n      dup3\n        /* \"contracts/proposal.sol\":1076:1155  Proposal(_proposalId, _proposalStatus, _proposalCreator, _proposalNumOfOptions) */\n      dup2\n      mstore\n      pop\n        /* \"contracts/proposal.sol\":1049:1058  proposals */\n      0x00\n        /* \"contracts/proposal.sol\":1049:1073  proposals[proposalCount] */\n      dup1\n        /* \"contracts/proposal.sol\":1059:1072  proposalCount */\n      sload(0x01)\n        /* \"contracts/proposal.sol\":1049:1073  proposals[proposalCount] */\n      dup2\n      mstore\n      0x20\n      add\n      swap1\n      dup2\n      mstore\n      0x20\n      add\n      0x00\n      keccak256\n        /* \"contracts/proposal.sol\":1049:1155  proposals[proposalCount] = Proposal(_proposalId, _proposalStatus, _proposalCreator, _proposalNumOfOptions) */\n      0x00\n      dup3\n      add\n      mload\n      dup2\n      0x00\n      add\n      sstore\n      0x20\n      dup3\n      add\n      mload\n      dup2\n      0x01\n      add\n      sstore\n      0x40\n      dup3\n      add\n      mload\n      dup2\n      0x02\n      add\n      exp(0x0100, 0x00)\n      dup2\n      sload\n      dup2\n      0xffffffffffffffffffffffffffffffffffffffff\n      mul\n      not\n      and\n      swap1\n      dup4\n      0xffffffffffffffffffffffffffffffffffffffff\n      and\n      mul\n      or\n      swap1\n      sstore\n      pop\n      0x60\n      dup3\n      add\n      mload\n      dup2\n      0x03\n      add\n      sstore\n      swap1\n      pop\n      pop\n        /* \"contracts/proposal.sol\":1166:1179  proposalCount */\n      0x01\n      0x00\n        /* \"contracts/proposal.sol\":1166:1181  proposalCount++ */\n      dup2\n      sload\n      dup1\n      swap3\n      swap2\n      swap1\n      tag_86\n      swap1\n      tag_77\n      jump\t// in\n    tag_86:\n      swap2\n      swap1\n      pop\n      sstore\n      pop\n        /* \"contracts/proposal.sol\":916:1189  function addProposal(uint _proposalId, uint _proposalStatus, address _proposalCreator, uint _proposalNumOfOptions) public {\r... */\n      pop\n      pop\n      pop\n      pop\n      jump\t// out\n        /* \"contracts/proposal.sol\":742:767  uint public proposalCount */\n    tag_35:\n      sload(0x01)\n      dup2\n      jump\t// out\n        /* \"contracts/proposal.sol\":1197:1329  function getProposalStructure(uint _proposalId) public view returns(Proposal memory){\r... */\n    tag_40:\n        /* \"contracts/proposal.sol\":1265:1280  Proposal memory */\n      tag_87\n      tag_88\n      jump\t// in\n    tag_87:\n        /* \"contracts/proposal.sol\":1299:1308  proposals */\n      0x00\n        /* \"contracts/proposal.sol\":1299:1321  proposals[_proposalId] */\n      dup1\n        /* \"contracts/proposal.sol\":1309:1320  _proposalId */\n      dup4\n        /* \"contracts/proposal.sol\":1299:1321  proposals[_proposalId] */\n      dup2\n      mstore\n      0x20\n      add\n      swap1\n      dup2\n      mstore\n      0x20\n      add\n      0x00\n      keccak256\n        /* \"contracts/proposal.sol\":1292:1321  return proposals[_proposalId] */\n      mload(0x40)\n      dup1\n      0x80\n      add\n      0x40\n      mstore\n      swap1\n      dup2\n      0x00\n      dup3\n      add\n      sload\n      dup2\n      mstore\n      0x20\n      add\n      0x01\n      dup3\n      add\n      sload\n      dup2\n      mstore\n      0x20\n      add\n      0x02\n      dup3\n      add\n      0x00\n      swap1\n      sload\n      swap1\n      0x0100\n      exp\n      swap1\n      div\n      0xffffffffffffffffffffffffffffffffffffffff\n      and\n      0xffffffffffffffffffffffffffffffffffffffff\n      and\n      0xffffffffffffffffffffffffffffffffffffffff\n      and\n      dup2\n      mstore\n      0x20\n      add\n      0x03\n      dup3\n      add\n      sload\n      dup2\n      mstore\n      pop\n      pop\n      swap1\n      pop\n        /* \"contracts/proposal.sol\":1197:1329  function getProposalStructure(uint _proposalId) public view returns(Proposal memory){\r... */\n      swap2\n      swap1\n      pop\n      jump\t// out\n        /* \"https://github.com/Arachnid/solidity-stringutils/blob/master/src/strings.sol\":2904:3114  function toSlice(string memory self) internal pure returns (slice memory) {... */\n    tag_55:\n        /* \"https://github.com/Arachnid/solidity-stringutils/blob/master/src/strings.sol\":2964:2976  slice memory */\n      tag_90\n      tag_91\n      jump\t// in\n    tag_90:\n        /* \"https://github.com/Arachnid/solidity-stringutils/blob/master/src/strings.sol\":2988:2996  uint ptr */\n      0x00\n        /* \"https://github.com/Arachnid/solidity-stringutils/blob/master/src/strings.sol\":3046:3050  0x20 */\n      0x20\n        /* \"https://github.com/Arachnid/solidity-stringutils/blob/master/src/strings.sol\":3040:3044  self */\n      dup4\n        /* \"https://github.com/Arachnid/solidity-stringutils/blob/master/src/strings.sol\":3036:3051  add(self, 0x20) */\n      add\n        /* \"https://github.com/Arachnid/solidity-stringutils/blob/master/src/strings.sol\":3029:3051  ptr := add(self, 0x20) */\n      swap1\n      pop\n        /* \"https://github.com/Arachnid/solidity-stringutils/blob/master/src/strings.sol\":3077:3107  slice(bytes(self).length, ptr) */\n      mload(0x40)\n      dup1\n      0x40\n      add\n      0x40\n      mstore\n      dup1\n        /* \"https://github.com/Arachnid/solidity-stringutils/blob/master/src/strings.sol\":3089:3093  self */\n      dup5\n        /* \"https://github.com/Arachnid/solidity-stringutils/blob/master/src/strings.sol\":3083:3101  bytes(self).length */\n      mload\n        /* \"https://github.com/Arachnid/solidity-stringutils/blob/master/src/strings.sol\":3077:3107  slice(bytes(self).length, ptr) */\n      dup2\n      mstore\n      0x20\n      add\n        /* \"https://github.com/Arachnid/solidity-stringutils/blob/master/src/strings.sol\":3103:3106  ptr */\n      dup3\n        /* \"https://github.com/Arachnid/solidity-stringutils/blob/master/src/strings.sol\":3077:3107  slice(bytes(self).length, ptr) */\n      dup2\n      mstore\n      pop\n        /* \"https://github.com/Arachnid/solidity-stringutils/blob/master/src/strings.sol\":3070:3107  return slice(bytes(self).length, ptr) */\n      swap2\n      pop\n      pop\n        /* \"https://github.com/Arachnid/solidity-stringutils/blob/master/src/strings.sol\":2904:3114  function toSlice(string memory self) internal pure returns (slice memory) {... */\n      swap2\n      swap1\n      pop\n      jump\t// out\n        /* \"https://github.com/Arachnid/solidity-stringutils/blob/master/src/strings.sol\":23194:23558  function count(slice memory self, slice memory needle) internal pure returns (uint cnt) {... */\n    tag_58:\n        /* \"https://github.com/Arachnid/solidity-stringutils/blob/master/src/strings.sol\":23272:23280  uint cnt */\n      0x00\n        /* \"https://github.com/Arachnid/solidity-stringutils/blob/master/src/strings.sol\":23292:23300  uint ptr */\n      dup1\n        /* \"https://github.com/Arachnid/solidity-stringutils/blob/master/src/strings.sol\":23361:23367  needle */\n      dup3\n        /* \"https://github.com/Arachnid/solidity-stringutils/blob/master/src/strings.sol\":23361:23372  needle._len */\n      0x00\n      add\n      mload\n        /* \"https://github.com/Arachnid/solidity-stringutils/blob/master/src/strings.sol\":23303:23358  findPtr(self._len, self._ptr, needle._len, needle._ptr) */\n      tag_94\n        /* \"https://github.com/Arachnid/solidity-stringutils/blob/master/src/strings.sol\":23311:23315  self */\n      dup6\n        /* \"https://github.com/Arachnid/solidity-stringutils/blob/master/src/strings.sol\":23311:23320  self._len */\n      0x00\n      add\n      mload\n        /* \"https://github.com/Arachnid/solidity-stringutils/blob/master/src/strings.sol\":23322:23326  self */\n      dup7\n        /* \"https://github.com/Arachnid/solidity-stringutils/blob/master/src/strings.sol\":23322:23331  self._ptr */\n      0x20\n      add\n      mload\n        /* \"https://github.com/Arachnid/solidity-stringutils/blob/master/src/strings.sol\":23333:23339  needle */\n      dup7\n        /* \"https://github.com/Arachnid/solidity-stringutils/blob/master/src/strings.sol\":23333:23344  needle._len */\n      0x00\n      add\n      mload\n        /* \"https://github.com/Arachnid/solidity-stringutils/blob/master/src/strings.sol\":23346:23352  needle */\n      dup8\n        /* \"https://github.com/Arachnid/solidity-stringutils/blob/master/src/strings.sol\":23346:23357  needle._ptr */\n      0x20\n      add\n      mload\n        /* \"https://github.com/Arachnid/solidity-stringutils/blob/master/src/strings.sol\":23303:23310  findPtr */\n      tag_95\n        /* \"https://github.com/Arachnid/solidity-stringutils/blob/master/src/strings.sol\":23303:23358  findPtr(self._len, self._ptr, needle._len, needle._ptr) */\n      jump\t// in\n    tag_94:\n        /* \"https://github.com/Arachnid/solidity-stringutils/blob/master/src/strings.sol\":23303:23372  findPtr(self._len, self._ptr, needle._len, needle._ptr) + needle._len */\n      tag_96\n      swap2\n      swap1\n      tag_60\n      jump\t// in\n    tag_96:\n        /* \"https://github.com/Arachnid/solidity-stringutils/blob/master/src/strings.sol\":23292:23372  uint ptr = findPtr(self._len, self._ptr, needle._len, needle._ptr) + needle._len */\n      swap1\n      pop\n        /* \"https://github.com/Arachnid/solidity-stringutils/blob/master/src/strings.sol\":23382:23552  while (ptr <= self._ptr + self._len) {... */\n    tag_97:\n        /* \"https://github.com/Arachnid/solidity-stringutils/blob/master/src/strings.sol\":23408:23412  self */\n      dup4\n        /* \"https://github.com/Arachnid/solidity-stringutils/blob/master/src/strings.sol\":23408:23417  self._len */\n      0x00\n      add\n      mload\n        /* \"https://github.com/Arachnid/solidity-stringutils/blob/master/src/strings.sol\":23396:23400  self */\n      dup5\n        /* \"https://github.com/Arachnid/solidity-stringutils/blob/master/src/strings.sol\":23396:23405  self._ptr */\n      0x20\n      add\n      mload\n        /* \"https://github.com/Arachnid/solidity-stringutils/blob/master/src/strings.sol\":23396:23417  self._ptr + self._len */\n      tag_99\n      swap2\n      swap1\n      tag_60\n      jump\t// in\n    tag_99:\n        /* \"https://github.com/Arachnid/solidity-stringutils/blob/master/src/strings.sol\":23389:23392  ptr */\n      dup2\n        /* \"https://github.com/Arachnid/solidity-stringutils/blob/master/src/strings.sol\":23389:23417  ptr <= self._ptr + self._len */\n      gt\n        /* \"https://github.com/Arachnid/solidity-stringutils/blob/master/src/strings.sol\":23382:23552  while (ptr <= self._ptr + self._len) {... */\n      tag_98\n      jumpi\n        /* \"https://github.com/Arachnid/solidity-stringutils/blob/master/src/strings.sol\":23433:23438  cnt++ */\n      dup2\n      dup1\n      tag_100\n      swap1\n      tag_77\n      jump\t// in\n    tag_100:\n      swap3\n      pop\n      pop\n        /* \"https://github.com/Arachnid/solidity-stringutils/blob/master/src/strings.sol\":23530:23536  needle */\n      dup3\n        /* \"https://github.com/Arachnid/solidity-stringutils/blob/master/src/strings.sol\":23530:23541  needle._len */\n      0x00\n      add\n      mload\n        /* \"https://github.com/Arachnid/solidity-stringutils/blob/master/src/strings.sol\":23458:23527  findPtr(self._len - (ptr - self._ptr), ptr, needle._len, needle._ptr) */\n      tag_101\n        /* \"https://github.com/Arachnid/solidity-stringutils/blob/master/src/strings.sol\":23485:23489  self */\n      dup6\n        /* \"https://github.com/Arachnid/solidity-stringutils/blob/master/src/strings.sol\":23485:23494  self._ptr */\n      0x20\n      add\n      mload\n        /* \"https://github.com/Arachnid/solidity-stringutils/blob/master/src/strings.sol\":23479:23482  ptr */\n      dup4\n        /* \"https://github.com/Arachnid/solidity-stringutils/blob/master/src/strings.sol\":23479:23494  ptr - self._ptr */\n      tag_102\n      swap2\n      swap1\n      tag_103\n      jump\t// in\n    tag_102:\n        /* \"https://github.com/Arachnid/solidity-stringutils/blob/master/src/strings.sol\":23466:23470  self */\n      dup7\n        /* \"https://github.com/Arachnid/solidity-stringutils/blob/master/src/strings.sol\":23466:23475  self._len */\n      0x00\n      add\n      mload\n        /* \"https://github.com/Arachnid/solidity-stringutils/blob/master/src/strings.sol\":23466:23495  self._len - (ptr - self._ptr) */\n      tag_104\n      swap2\n      swap1\n      tag_103\n      jump\t// in\n    tag_104:\n        /* \"https://github.com/Arachnid/solidity-stringutils/blob/master/src/strings.sol\":23497:23500  ptr */\n      dup4\n        /* \"https://github.com/Arachnid/solidity-stringutils/blob/master/src/strings.sol\":23502:23508  needle */\n      dup7\n        /* \"https://github.com/Arachnid/solidity-stringutils/blob/master/src/strings.sol\":23502:23513  needle._len */\n      0x00\n      add\n      mload\n        /* \"https://github.com/Arachnid/solidity-stringutils/blob/master/src/strings.sol\":23515:23521  needle */\n      dup8\n        /* \"https://github.com/Arachnid/solidity-stringutils/blob/master/src/strings.sol\":23515:23526  needle._ptr */\n      0x20\n      add\n      mload\n        /* \"https://github.com/Arachnid/solidity-stringutils/blob/master/src/strings.sol\":23458:23465  findPtr */\n      tag_95\n        /* \"https://github.com/Arachnid/solidity-stringutils/blob/master/src/strings.sol\":23458:23527  findPtr(self._len - (ptr - self._ptr), ptr, needle._len, needle._ptr) */\n      jump\t// in\n    tag_101:\n        /* \"https://github.com/Arachnid/solidity-stringutils/blob/master/src/strings.sol\":23458:23541  findPtr(self._len - (ptr - self._ptr), ptr, needle._len, needle._ptr) + needle._len */\n      tag_105\n      swap2\n      swap1\n      tag_60\n      jump\t// in\n    tag_105:\n        /* \"https://github.com/Arachnid/solidity-stringutils/blob/master/src/strings.sol\":23452:23541  ptr = findPtr(self._len - (ptr - self._ptr), ptr, needle._len, needle._ptr) + needle._len */\n      swap1\n      pop\n        /* \"https://github.com/Arachnid/solidity-stringutils/blob/master/src/strings.sol\":23382:23552  while (ptr <= self._ptr + self._len) {... */\n      jump(tag_97)\n    tag_98:\n        /* \"https://github.com/Arachnid/solidity-stringutils/blob/master/src/strings.sol\":23194:23558  function count(slice memory self, slice memory needle) internal pure returns (uint cnt) {... */\n      pop\n      swap3\n      swap2\n      pop\n      pop\n      jump\t// out\n        /* \"https://github.com/Arachnid/solidity-stringutils/blob/master/src/strings.sol\":21208:21349  function split(slice memory self, slice memory needle) internal pure returns (slice memory token) {... */\n    tag_69:\n        /* \"https://github.com/Arachnid/solidity-stringutils/blob/master/src/strings.sol\":21286:21304  slice memory token */\n      tag_106\n      tag_91\n      jump\t// in\n    tag_106:\n        /* \"https://github.com/Arachnid/solidity-stringutils/blob/master/src/strings.sol\":21316:21342  split(self, needle, token) */\n      tag_108\n        /* \"https://github.com/Arachnid/solidity-stringutils/blob/master/src/strings.sol\":21322:21326  self */\n      dup4\n        /* \"https://github.com/Arachnid/solidity-stringutils/blob/master/src/strings.sol\":21328:21334  needle */\n      dup4\n        /* \"https://github.com/Arachnid/solidity-stringutils/blob/master/src/strings.sol\":21336:21341  token */\n      dup4\n        /* \"https://github.com/Arachnid/solidity-stringutils/blob/master/src/strings.sol\":21316:21321  split */\n      tag_109\n        /* \"https://github.com/Arachnid/solidity-stringutils/blob/master/src/strings.sol\":21316:21342  split(self, needle, token) */\n      jump\t// in\n    tag_108:\n      pop\n        /* \"https://github.com/Arachnid/solidity-stringutils/blob/master/src/strings.sol\":21208:21349  function split(slice memory self, slice memory needle) internal pure returns (slice memory token) {... */\n      swap3\n      swap2\n      pop\n      pop\n      jump\t// out\n        /* \"https://github.com/Arachnid/solidity-stringutils/blob/master/src/strings.sol\":5286:5551  function toString(slice memory self) internal pure returns (string memory) {... */\n    tag_70:\n        /* \"https://github.com/Arachnid/solidity-stringutils/blob/master/src/strings.sol\":5346:5359  string memory */\n      0x60\n        /* \"https://github.com/Arachnid/solidity-stringutils/blob/master/src/strings.sol\":5371:5388  string memory ret */\n      0x00\n        /* \"https://github.com/Arachnid/solidity-stringutils/blob/master/src/strings.sol\":5402:5406  self */\n      dup3\n        /* \"https://github.com/Arachnid/solidity-stringutils/blob/master/src/strings.sol\":5402:5411  self._len */\n      0x00\n      add\n      mload\n        /* \"https://github.com/Arachnid/solidity-stringutils/blob/master/src/strings.sol\":5391:5412  new string(self._len) */\n      0xffffffffffffffff\n      dup2\n      gt\n      iszero\n      tag_111\n      jumpi\n      mstore(0x00, 0x4e487b7100000000000000000000000000000000000000000000000000000000)\n      mstore(0x04, 0x41)\n      revert(0x00, 0x24)\n    tag_111:\n      mload(0x40)\n      swap1\n      dup1\n      dup3\n      mstore\n      dup1\n      0x1f\n      add\n      not(0x1f)\n      and\n      0x20\n      add\n      dup3\n      add\n      0x40\n      mstore\n      dup1\n      iszero\n      tag_112\n      jumpi\n      dup2\n      0x20\n      add\n      0x01\n      dup3\n      mul\n      dup1\n      calldatasize\n      dup4\n      calldatacopy\n      dup1\n      dup3\n      add\n      swap2\n      pop\n      pop\n      swap1\n      pop\n    tag_112:\n      pop\n        /* \"https://github.com/Arachnid/solidity-stringutils/blob/master/src/strings.sol\":5371:5412  string memory ret = new string(self._len) */\n      swap1\n      pop\n        /* \"https://github.com/Arachnid/solidity-stringutils/blob/master/src/strings.sol\":5422:5433  uint retptr */\n      0x00\n        /* \"https://github.com/Arachnid/solidity-stringutils/blob/master/src/strings.sol\":5473:5475  32 */\n      0x20\n        /* \"https://github.com/Arachnid/solidity-stringutils/blob/master/src/strings.sol\":5468:5471  ret */\n      dup3\n        /* \"https://github.com/Arachnid/solidity-stringutils/blob/master/src/strings.sol\":5464:5476  add(ret, 32) */\n      add\n        /* \"https://github.com/Arachnid/solidity-stringutils/blob/master/src/strings.sol\":5454:5476  retptr := add(ret, 32) */\n      swap1\n      pop\n        /* \"https://github.com/Arachnid/solidity-stringutils/blob/master/src/strings.sol\":5488:5524  memcpy(retptr, self._ptr, self._len) */\n      tag_113\n        /* \"https://github.com/Arachnid/solidity-stringutils/blob/master/src/strings.sol\":5495:5501  retptr */\n      dup2\n        /* \"https://github.com/Arachnid/solidity-stringutils/blob/master/src/strings.sol\":5503:5507  self */\n      dup6\n        /* \"https://github.com/Arachnid/solidity-stringutils/blob/master/src/strings.sol\":5503:5512  self._ptr */\n      0x20\n      add\n      mload\n        /* \"https://github.com/Arachnid/solidity-stringutils/blob/master/src/strings.sol\":5514:5518  self */\n      dup7\n        /* \"https://github.com/Arachnid/solidity-stringutils/blob/master/src/strings.sol\":5514:5523  self._len */\n      0x00\n      add\n      mload\n        /* \"https://github.com/Arachnid/solidity-stringutils/blob/master/src/strings.sol\":5488:5494  memcpy */\n      tag_114\n        /* \"https://github.com/Arachnid/solidity-stringutils/blob/master/src/strings.sol\":5488:5524  memcpy(retptr, self._ptr, self._len) */\n      jump\t// in\n    tag_113:\n        /* \"https://github.com/Arachnid/solidity-stringutils/blob/master/src/strings.sol\":5541:5544  ret */\n      dup2\n        /* \"https://github.com/Arachnid/solidity-stringutils/blob/master/src/strings.sol\":5534:5544  return ret */\n      swap3\n      pop\n      pop\n      pop\n        /* \"https://github.com/Arachnid/solidity-stringutils/blob/master/src/strings.sol\":5286:5551  function toString(slice memory self) internal pure returns (string memory) {... */\n      swap2\n      swap1\n      pop\n      jump\t// out\n        /* \"https://github.com/Arachnid/solidity-stringutils/blob/master/src/strings.sol\":15477:16930  function findPtr(uint selflen, uint selfptr, uint needlelen, uint needleptr) private pure returns (uint) {... */\n    tag_95:\n        /* \"https://github.com/Arachnid/solidity-stringutils/blob/master/src/strings.sol\":15576:15580  uint */\n      0x00\n        /* \"https://github.com/Arachnid/solidity-stringutils/blob/master/src/strings.sol\":15592:15600  uint ptr */\n      dup1\n        /* \"https://github.com/Arachnid/solidity-stringutils/blob/master/src/strings.sol\":15603:15610  selfptr */\n      dup5\n        /* \"https://github.com/Arachnid/solidity-stringutils/blob/master/src/strings.sol\":15592:15610  uint ptr = selfptr */\n      swap1\n      pop\n        /* \"https://github.com/Arachnid/solidity-stringutils/blob/master/src/strings.sol\":15620:15628  uint idx */\n      0x00\n        /* \"https://github.com/Arachnid/solidity-stringutils/blob/master/src/strings.sol\":15656:15663  selflen */\n      dup7\n        /* \"https://github.com/Arachnid/solidity-stringutils/blob/master/src/strings.sol\":15643:15652  needlelen */\n      dup6\n        /* \"https://github.com/Arachnid/solidity-stringutils/blob/master/src/strings.sol\":15643:15663  needlelen <= selflen */\n      gt\n        /* \"https://github.com/Arachnid/solidity-stringutils/blob/master/src/strings.sol\":15639:16890  if (needlelen <= selflen) {... */\n      tag_116\n      jumpi\n        /* \"https://github.com/Arachnid/solidity-stringutils/blob/master/src/strings.sol\":15696:15698  32 */\n      0x20\n        /* \"https://github.com/Arachnid/solidity-stringutils/blob/master/src/strings.sol\":15683:15692  needlelen */\n      dup6\n        /* \"https://github.com/Arachnid/solidity-stringutils/blob/master/src/strings.sol\":15683:15698  needlelen <= 32 */\n      gt\n        /* \"https://github.com/Arachnid/solidity-stringutils/blob/master/src/strings.sol\":15679:16880  if (needlelen <= 32) {... */\n      tag_117\n      jumpi\n        /* \"https://github.com/Arachnid/solidity-stringutils/blob/master/src/strings.sol\":15718:15730  bytes32 mask */\n      0x00\n        /* \"https://github.com/Arachnid/solidity-stringutils/blob/master/src/strings.sol\":15764:15765  0 */\n      dup1\n        /* \"https://github.com/Arachnid/solidity-stringutils/blob/master/src/strings.sol\":15752:15761  needlelen */\n      dup7\n        /* \"https://github.com/Arachnid/solidity-stringutils/blob/master/src/strings.sol\":15752:15765  needlelen > 0 */\n      gt\n        /* \"https://github.com/Arachnid/solidity-stringutils/blob/master/src/strings.sol\":15748:15858  if (needlelen > 0) {... */\n      iszero\n      tag_118\n      jumpi\n        /* \"https://github.com/Arachnid/solidity-stringutils/blob/master/src/strings.sol\":15836:15837  1 */\n      0x01\n        /* \"https://github.com/Arachnid/solidity-stringutils/blob/master/src/strings.sol\":15822:15831  needlelen */\n      dup7\n        /* \"https://github.com/Arachnid/solidity-stringutils/blob/master/src/strings.sol\":15817:15819  32 */\n      0x20\n        /* \"https://github.com/Arachnid/solidity-stringutils/blob/master/src/strings.sol\":15817:15831  32 - needlelen */\n      tag_119\n      swap2\n      swap1\n      tag_103\n      jump\t// in\n    tag_119:\n        /* \"https://github.com/Arachnid/solidity-stringutils/blob/master/src/strings.sol\":15812:15813  8 */\n      0x08\n        /* \"https://github.com/Arachnid/solidity-stringutils/blob/master/src/strings.sol\":15812:15832  8 * (32 - needlelen) */\n      tag_120\n      swap2\n      swap1\n      tag_121\n      jump\t// in\n    tag_120:\n        /* \"https://github.com/Arachnid/solidity-stringutils/blob/master/src/strings.sol\":15806:15807  2 */\n      0x02\n        /* \"https://github.com/Arachnid/solidity-stringutils/blob/master/src/strings.sol\":15806:15833  2 ** (8 * (32 - needlelen)) */\n      tag_122\n      swap2\n      swap1\n      tag_123\n      jump\t// in\n    tag_122:\n        /* \"https://github.com/Arachnid/solidity-stringutils/blob/master/src/strings.sol\":15806:15837  2 ** (8 * (32 - needlelen)) - 1 */\n      tag_124\n      swap2\n      swap1\n      tag_103\n      jump\t// in\n    tag_124:\n        /* \"https://github.com/Arachnid/solidity-stringutils/blob/master/src/strings.sol\":15804:15838  ~(2 ** (8 * (32 - needlelen)) - 1) */\n      not\n        /* \"https://github.com/Arachnid/solidity-stringutils/blob/master/src/strings.sol\":15796:15839  bytes32(~(2 ** (8 * (32 - needlelen)) - 1)) */\n      0x00\n      shl\n        /* \"https://github.com/Arachnid/solidity-stringutils/blob/master/src/strings.sol\":15789:15839  mask = bytes32(~(2 ** (8 * (32 - needlelen)) - 1)) */\n      swap1\n      pop\n        /* \"https://github.com/Arachnid/solidity-stringutils/blob/master/src/strings.sol\":15748:15858  if (needlelen > 0) {... */\n    tag_118:\n        /* \"https://github.com/Arachnid/solidity-stringutils/blob/master/src/strings.sol\":15876:15894  bytes32 needledata */\n      0x00\n        /* \"https://github.com/Arachnid/solidity-stringutils/blob/master/src/strings.sol\":15959:15963  mask */\n      dup2\n        /* \"https://github.com/Arachnid/solidity-stringutils/blob/master/src/strings.sol\":15947:15956  needleptr */\n      dup7\n        /* \"https://github.com/Arachnid/solidity-stringutils/blob/master/src/strings.sol\":15941:15957  mload(needleptr) */\n      mload\n        /* \"https://github.com/Arachnid/solidity-stringutils/blob/master/src/strings.sol\":15937:15964  and(mload(needleptr), mask) */\n      and\n        /* \"https://github.com/Arachnid/solidity-stringutils/blob/master/src/strings.sol\":15923:15964  needledata := and(mload(needleptr), mask) */\n      swap1\n      pop\n        /* \"https://github.com/Arachnid/solidity-stringutils/blob/master/src/strings.sol\":15984:15992  uint end */\n      0x00\n        /* \"https://github.com/Arachnid/solidity-stringutils/blob/master/src/strings.sol\":16015:16024  needlelen */\n      dup8\n        /* \"https://github.com/Arachnid/solidity-stringutils/blob/master/src/strings.sol\":16005:16012  selflen */\n      dup11\n        /* \"https://github.com/Arachnid/solidity-stringutils/blob/master/src/strings.sol\":15995:16002  selfptr */\n      dup11\n        /* \"https://github.com/Arachnid/solidity-stringutils/blob/master/src/strings.sol\":15995:16012  selfptr + selflen */\n      tag_125\n      swap2\n      swap1\n      tag_60\n      jump\t// in\n    tag_125:\n        /* \"https://github.com/Arachnid/solidity-stringutils/blob/master/src/strings.sol\":15995:16024  selfptr + selflen - needlelen */\n      tag_126\n      swap2\n      swap1\n      tag_103\n      jump\t// in\n    tag_126:\n        /* \"https://github.com/Arachnid/solidity-stringutils/blob/master/src/strings.sol\":15984:16024  uint end = selfptr + selflen - needlelen */\n      swap1\n      pop\n        /* \"https://github.com/Arachnid/solidity-stringutils/blob/master/src/strings.sol\":16042:16057  bytes32 ptrdata */\n      0x00\n        /* \"https://github.com/Arachnid/solidity-stringutils/blob/master/src/strings.sol\":16113:16117  mask */\n      dup4\n        /* \"https://github.com/Arachnid/solidity-stringutils/blob/master/src/strings.sol\":16107:16110  ptr */\n      dup7\n        /* \"https://github.com/Arachnid/solidity-stringutils/blob/master/src/strings.sol\":16101:16111  mload(ptr) */\n      mload\n        /* \"https://github.com/Arachnid/solidity-stringutils/blob/master/src/strings.sol\":16097:16118  and(mload(ptr), mask) */\n      and\n        /* \"https://github.com/Arachnid/solidity-stringutils/blob/master/src/strings.sol\":16086:16118  ptrdata := and(mload(ptr), mask) */\n      swap1\n      pop\n        /* \"https://github.com/Arachnid/solidity-stringutils/blob/master/src/strings.sol\":16138:16366  while (ptrdata != needledata) {... */\n    tag_127:\n        /* \"https://github.com/Arachnid/solidity-stringutils/blob/master/src/strings.sol\":16156:16166  needledata */\n      dup3\n        /* \"https://github.com/Arachnid/solidity-stringutils/blob/master/src/strings.sol\":16145:16152  ptrdata */\n      dup2\n        /* \"https://github.com/Arachnid/solidity-stringutils/blob/master/src/strings.sol\":16145:16166  ptrdata != needledata */\n      eq\n        /* \"https://github.com/Arachnid/solidity-stringutils/blob/master/src/strings.sol\":16138:16366  while (ptrdata != needledata) {... */\n      tag_128\n      jumpi\n        /* \"https://github.com/Arachnid/solidity-stringutils/blob/master/src/strings.sol\":16201:16204  end */\n      dup2\n        /* \"https://github.com/Arachnid/solidity-stringutils/blob/master/src/strings.sol\":16194:16197  ptr */\n      dup7\n        /* \"https://github.com/Arachnid/solidity-stringutils/blob/master/src/strings.sol\":16194:16204  ptr >= end */\n      lt\n        /* \"https://github.com/Arachnid/solidity-stringutils/blob/master/src/strings.sol\":16190:16254  if (ptr >= end)... */\n      tag_129\n      jumpi\n        /* \"https://github.com/Arachnid/solidity-stringutils/blob/master/src/strings.sol\":16247:16254  selflen */\n      dup11\n        /* \"https://github.com/Arachnid/solidity-stringutils/blob/master/src/strings.sol\":16237:16244  selfptr */\n      dup11\n        /* \"https://github.com/Arachnid/solidity-stringutils/blob/master/src/strings.sol\":16237:16254  selfptr + selflen */\n      tag_130\n      swap2\n      swap1\n      tag_60\n      jump\t// in\n    tag_130:\n        /* \"https://github.com/Arachnid/solidity-stringutils/blob/master/src/strings.sol\":16230:16254  return selfptr + selflen */\n      swap7\n      pop\n      pop\n      pop\n      pop\n      pop\n      pop\n      pop\n      jump(tag_115)\n        /* \"https://github.com/Arachnid/solidity-stringutils/blob/master/src/strings.sol\":16190:16254  if (ptr >= end)... */\n    tag_129:\n        /* \"https://github.com/Arachnid/solidity-stringutils/blob/master/src/strings.sol\":16276:16281  ptr++ */\n      dup6\n      dup1\n      tag_131\n      swap1\n      tag_77\n      jump\t// in\n    tag_131:\n      swap7\n      pop\n      pop\n        /* \"https://github.com/Arachnid/solidity-stringutils/blob/master/src/strings.sol\":16341:16345  mask */\n      dup4\n        /* \"https://github.com/Arachnid/solidity-stringutils/blob/master/src/strings.sol\":16335:16338  ptr */\n      dup7\n        /* \"https://github.com/Arachnid/solidity-stringutils/blob/master/src/strings.sol\":16329:16339  mload(ptr) */\n      mload\n        /* \"https://github.com/Arachnid/solidity-stringutils/blob/master/src/strings.sol\":16325:16346  and(mload(ptr), mask) */\n      and\n        /* \"https://github.com/Arachnid/solidity-stringutils/blob/master/src/strings.sol\":16314:16346  ptrdata := and(mload(ptr), mask) */\n      swap1\n      pop\n        /* \"https://github.com/Arachnid/solidity-stringutils/blob/master/src/strings.sol\":16312:16348  { ptrdata := and(mload(ptr), mask) } */\n      jump(tag_127)\n    tag_128:\n        /* \"https://github.com/Arachnid/solidity-stringutils/blob/master/src/strings.sol\":16390:16393  ptr */\n      dup6\n        /* \"https://github.com/Arachnid/solidity-stringutils/blob/master/src/strings.sol\":16383:16393  return ptr */\n      swap7\n      pop\n      pop\n      pop\n      pop\n      pop\n      pop\n      pop\n      jump(tag_115)\n        /* \"https://github.com/Arachnid/solidity-stringutils/blob/master/src/strings.sol\":15679:16880  if (needlelen <= 32) {... */\n    tag_117:\n        /* \"https://github.com/Arachnid/solidity-stringutils/blob/master/src/strings.sol\":16481:16493  bytes32 hash */\n      0x00\n        /* \"https://github.com/Arachnid/solidity-stringutils/blob/master/src/strings.sol\":16551:16560  needlelen */\n      dup6\n        /* \"https://github.com/Arachnid/solidity-stringutils/blob/master/src/strings.sol\":16540:16549  needleptr */\n      dup6\n        /* \"https://github.com/Arachnid/solidity-stringutils/blob/master/src/strings.sol\":16530:16561  keccak256(needleptr, needlelen) */\n      keccak256\n        /* \"https://github.com/Arachnid/solidity-stringutils/blob/master/src/strings.sol\":16522:16561  hash := keccak256(needleptr, needlelen) */\n      swap1\n      pop\n        /* \"https://github.com/Arachnid/solidity-stringutils/blob/master/src/strings.sol\":16592:16593  0 */\n      0x00\n        /* \"https://github.com/Arachnid/solidity-stringutils/blob/master/src/strings.sol\":16586:16593  idx = 0 */\n      swap2\n      pop\n        /* \"https://github.com/Arachnid/solidity-stringutils/blob/master/src/strings.sol\":16581:16866  for (idx = 0; idx <= selflen - needlelen; idx++) {... */\n    tag_133:\n        /* \"https://github.com/Arachnid/solidity-stringutils/blob/master/src/strings.sol\":16612:16621  needlelen */\n      dup6\n        /* \"https://github.com/Arachnid/solidity-stringutils/blob/master/src/strings.sol\":16602:16609  selflen */\n      dup9\n        /* \"https://github.com/Arachnid/solidity-stringutils/blob/master/src/strings.sol\":16602:16621  selflen - needlelen */\n      tag_136\n      swap2\n      swap1\n      tag_103\n      jump\t// in\n    tag_136:\n        /* \"https://github.com/Arachnid/solidity-stringutils/blob/master/src/strings.sol\":16595:16598  idx */\n      dup3\n        /* \"https://github.com/Arachnid/solidity-stringutils/blob/master/src/strings.sol\":16595:16621  idx <= selflen - needlelen */\n      gt\n        /* \"https://github.com/Arachnid/solidity-stringutils/blob/master/src/strings.sol\":16581:16866  for (idx = 0; idx <= selflen - needlelen; idx++) {... */\n      tag_134\n      jumpi\n        /* \"https://github.com/Arachnid/solidity-stringutils/blob/master/src/strings.sol\":16652:16668  bytes32 testHash */\n      0x00\n        /* \"https://github.com/Arachnid/solidity-stringutils/blob/master/src/strings.sol\":16728:16737  needlelen */\n      dup7\n        /* \"https://github.com/Arachnid/solidity-stringutils/blob/master/src/strings.sol\":16723:16726  ptr */\n      dup5\n        /* \"https://github.com/Arachnid/solidity-stringutils/blob/master/src/strings.sol\":16713:16738  keccak256(ptr, needlelen) */\n      keccak256\n        /* \"https://github.com/Arachnid/solidity-stringutils/blob/master/src/strings.sol\":16701:16738  testHash := keccak256(ptr, needlelen) */\n      swap1\n      pop\n        /* \"https://github.com/Arachnid/solidity-stringutils/blob/master/src/strings.sol\":16773:16781  testHash */\n      dup1\n        /* \"https://github.com/Arachnid/solidity-stringutils/blob/master/src/strings.sol\":16765:16769  hash */\n      dup3\n        /* \"https://github.com/Arachnid/solidity-stringutils/blob/master/src/strings.sol\":16765:16781  hash == testHash */\n      eq\n        /* \"https://github.com/Arachnid/solidity-stringutils/blob/master/src/strings.sol\":16761:16817  if (hash == testHash)... */\n      iszero\n      tag_137\n      jumpi\n        /* \"https://github.com/Arachnid/solidity-stringutils/blob/master/src/strings.sol\":16814:16817  ptr */\n      dup4\n        /* \"https://github.com/Arachnid/solidity-stringutils/blob/master/src/strings.sol\":16807:16817  return ptr */\n      swap5\n      pop\n      pop\n      pop\n      pop\n      pop\n      jump(tag_115)\n        /* \"https://github.com/Arachnid/solidity-stringutils/blob/master/src/strings.sol\":16761:16817  if (hash == testHash)... */\n    tag_137:\n        /* \"https://github.com/Arachnid/solidity-stringutils/blob/master/src/strings.sol\":16846:16847  1 */\n      0x01\n        /* \"https://github.com/Arachnid/solidity-stringutils/blob/master/src/strings.sol\":16839:16847  ptr += 1 */\n      dup5\n      tag_138\n      swap2\n      swap1\n      tag_60\n      jump\t// in\n    tag_138:\n      swap4\n      pop\n        /* \"https://github.com/Arachnid/solidity-stringutils/blob/master/src/strings.sol\":16581:16866  for (idx = 0; idx <= selflen - needlelen; idx++) {... */\n      pop\n        /* \"https://github.com/Arachnid/solidity-stringutils/blob/master/src/strings.sol\":16623:16628  idx++ */\n      dup2\n      dup1\n      tag_139\n      swap1\n      tag_77\n      jump\t// in\n    tag_139:\n      swap3\n      pop\n      pop\n        /* \"https://github.com/Arachnid/solidity-stringutils/blob/master/src/strings.sol\":16581:16866  for (idx = 0; idx <= selflen - needlelen; idx++) {... */\n      jump(tag_133)\n    tag_134:\n        /* \"https://github.com/Arachnid/solidity-stringutils/blob/master/src/strings.sol\":15679:16880  if (needlelen <= 32) {... */\n      pop\n        /* \"https://github.com/Arachnid/solidity-stringutils/blob/master/src/strings.sol\":15639:16890  if (needlelen <= selflen) {... */\n    tag_116:\n        /* \"https://github.com/Arachnid/solidity-stringutils/blob/master/src/strings.sol\":16916:16923  selflen */\n      dup7\n        /* \"https://github.com/Arachnid/solidity-stringutils/blob/master/src/strings.sol\":16906:16913  selfptr */\n      dup7\n        /* \"https://github.com/Arachnid/solidity-stringutils/blob/master/src/strings.sol\":16906:16923  selfptr + selflen */\n      tag_140\n      swap2\n      swap1\n      tag_60\n      jump\t// in\n    tag_140:\n        /* \"https://github.com/Arachnid/solidity-stringutils/blob/master/src/strings.sol\":16899:16923  return selfptr + selflen */\n      swap3\n      pop\n      pop\n      pop\n        /* \"https://github.com/Arachnid/solidity-stringutils/blob/master/src/strings.sol\":15477:16930  function findPtr(uint selflen, uint selfptr, uint needlelen, uint needleptr) private pure returns (uint) {... */\n    tag_115:\n      swap5\n      swap4\n      pop\n      pop\n      pop\n      pop\n      jump\t// out\n        /* \"https://github.com/Arachnid/solidity-stringutils/blob/master/src/strings.sol\":20233:20737  function split(slice memory self, slice memory needle, slice memory token) internal pure returns (slice memory) {... */\n    tag_109:\n        /* \"https://github.com/Arachnid/solidity-stringutils/blob/master/src/strings.sol\":20331:20343  slice memory */\n      tag_141\n      tag_91\n      jump\t// in\n    tag_141:\n        /* \"https://github.com/Arachnid/solidity-stringutils/blob/master/src/strings.sol\":20355:20363  uint ptr */\n      0x00\n        /* \"https://github.com/Arachnid/solidity-stringutils/blob/master/src/strings.sol\":20366:20421  findPtr(self._len, self._ptr, needle._len, needle._ptr) */\n      tag_143\n        /* \"https://github.com/Arachnid/solidity-stringutils/blob/master/src/strings.sol\":20374:20378  self */\n      dup6\n        /* \"https://github.com/Arachnid/solidity-stringutils/blob/master/src/strings.sol\":20374:20383  self._len */\n      0x00\n      add\n      mload\n        /* \"https://github.com/Arachnid/solidity-stringutils/blob/master/src/strings.sol\":20385:20389  self */\n      dup7\n        /* \"https://github.com/Arachnid/solidity-stringutils/blob/master/src/strings.sol\":20385:20394  self._ptr */\n      0x20\n      add\n      mload\n        /* \"https://github.com/Arachnid/solidity-stringutils/blob/master/src/strings.sol\":20396:20402  needle */\n      dup7\n        /* \"https://github.com/Arachnid/solidity-stringutils/blob/master/src/strings.sol\":20396:20407  needle._len */\n      0x00\n      add\n      mload\n        /* \"https://github.com/Arachnid/solidity-stringutils/blob/master/src/strings.sol\":20409:20415  needle */\n      dup8\n        /* \"https://github.com/Arachnid/solidity-stringutils/blob/master/src/strings.sol\":20409:20420  needle._ptr */\n      0x20\n      add\n      mload\n        /* \"https://github.com/Arachnid/solidity-stringutils/blob/master/src/strings.sol\":20366:20373  findPtr */\n      tag_95\n        /* \"https://github.com/Arachnid/solidity-stringutils/blob/master/src/strings.sol\":20366:20421  findPtr(self._len, self._ptr, needle._len, needle._ptr) */\n      jump\t// in\n    tag_143:\n        /* \"https://github.com/Arachnid/solidity-stringutils/blob/master/src/strings.sol\":20355:20421  uint ptr = findPtr(self._len, self._ptr, needle._len, needle._ptr) */\n      swap1\n      pop\n        /* \"https://github.com/Arachnid/solidity-stringutils/blob/master/src/strings.sol\":20444:20448  self */\n      dup5\n        /* \"https://github.com/Arachnid/solidity-stringutils/blob/master/src/strings.sol\":20444:20453  self._ptr */\n      0x20\n      add\n      mload\n        /* \"https://github.com/Arachnid/solidity-stringutils/blob/master/src/strings.sol\":20431:20436  token */\n      dup4\n        /* \"https://github.com/Arachnid/solidity-stringutils/blob/master/src/strings.sol\":20431:20441  token._ptr */\n      0x20\n      add\n        /* \"https://github.com/Arachnid/solidity-stringutils/blob/master/src/strings.sol\":20431:20453  token._ptr = self._ptr */\n      dup2\n      dup2\n      mstore\n      pop\n      pop\n        /* \"https://github.com/Arachnid/solidity-stringutils/blob/master/src/strings.sol\":20482:20486  self */\n      dup5\n        /* \"https://github.com/Arachnid/solidity-stringutils/blob/master/src/strings.sol\":20482:20491  self._ptr */\n      0x20\n      add\n      mload\n        /* \"https://github.com/Arachnid/solidity-stringutils/blob/master/src/strings.sol\":20476:20479  ptr */\n      dup2\n        /* \"https://github.com/Arachnid/solidity-stringutils/blob/master/src/strings.sol\":20476:20491  ptr - self._ptr */\n      tag_144\n      swap2\n      swap1\n      tag_103\n      jump\t// in\n    tag_144:\n        /* \"https://github.com/Arachnid/solidity-stringutils/blob/master/src/strings.sol\":20463:20468  token */\n      dup4\n        /* \"https://github.com/Arachnid/solidity-stringutils/blob/master/src/strings.sol\":20463:20473  token._len */\n      0x00\n      add\n        /* \"https://github.com/Arachnid/solidity-stringutils/blob/master/src/strings.sol\":20463:20491  token._len = ptr - self._ptr */\n      dup2\n      dup2\n      mstore\n      pop\n      pop\n        /* \"https://github.com/Arachnid/solidity-stringutils/blob/master/src/strings.sol\":20524:20528  self */\n      dup5\n        /* \"https://github.com/Arachnid/solidity-stringutils/blob/master/src/strings.sol\":20524:20533  self._len */\n      0x00\n      add\n      mload\n        /* \"https://github.com/Arachnid/solidity-stringutils/blob/master/src/strings.sol\":20512:20516  self */\n      dup6\n        /* \"https://github.com/Arachnid/solidity-stringutils/blob/master/src/strings.sol\":20512:20521  self._ptr */\n      0x20\n      add\n      mload\n        /* \"https://github.com/Arachnid/solidity-stringutils/blob/master/src/strings.sol\":20512:20533  self._ptr + self._len */\n      tag_145\n      swap2\n      swap1\n      tag_60\n      jump\t// in\n    tag_145:\n        /* \"https://github.com/Arachnid/solidity-stringutils/blob/master/src/strings.sol\":20505:20508  ptr */\n      dup2\n        /* \"https://github.com/Arachnid/solidity-stringutils/blob/master/src/strings.sol\":20505:20533  ptr == self._ptr + self._len */\n      eq\n        /* \"https://github.com/Arachnid/solidity-stringutils/blob/master/src/strings.sol\":20501:20709  if (ptr == self._ptr + self._len) {... */\n      iszero\n      tag_146\n      jumpi\n        /* \"https://github.com/Arachnid/solidity-stringutils/blob/master/src/strings.sol\":20586:20587  0 */\n      0x00\n        /* \"https://github.com/Arachnid/solidity-stringutils/blob/master/src/strings.sol\":20574:20578  self */\n      dup6\n        /* \"https://github.com/Arachnid/solidity-stringutils/blob/master/src/strings.sol\":20574:20583  self._len */\n      0x00\n      add\n        /* \"https://github.com/Arachnid/solidity-stringutils/blob/master/src/strings.sol\":20574:20587  self._len = 0 */\n      dup2\n      dup2\n      mstore\n      pop\n      pop\n        /* \"https://github.com/Arachnid/solidity-stringutils/blob/master/src/strings.sol\":20501:20709  if (ptr == self._ptr + self._len) {... */\n      jump(tag_147)\n    tag_146:\n        /* \"https://github.com/Arachnid/solidity-stringutils/blob/master/src/strings.sol\":20644:20650  needle */\n      dup4\n        /* \"https://github.com/Arachnid/solidity-stringutils/blob/master/src/strings.sol\":20644:20655  needle._len */\n      0x00\n      add\n      mload\n        /* \"https://github.com/Arachnid/solidity-stringutils/blob/master/src/strings.sol\":20631:20636  token */\n      dup4\n        /* \"https://github.com/Arachnid/solidity-stringutils/blob/master/src/strings.sol\":20631:20641  token._len */\n      0x00\n      add\n      mload\n        /* \"https://github.com/Arachnid/solidity-stringutils/blob/master/src/strings.sol\":20631:20655  token._len + needle._len */\n      tag_148\n      swap2\n      swap1\n      tag_60\n      jump\t// in\n    tag_148:\n        /* \"https://github.com/Arachnid/solidity-stringutils/blob/master/src/strings.sol\":20618:20622  self */\n      dup6\n        /* \"https://github.com/Arachnid/solidity-stringutils/blob/master/src/strings.sol\":20618:20627  self._len */\n      0x00\n      add\n        /* \"https://github.com/Arachnid/solidity-stringutils/blob/master/src/strings.sol\":20618:20655  self._len -= token._len + needle._len */\n      dup2\n      dup2\n      mload\n      tag_149\n      swap2\n      swap1\n      tag_103\n      jump\t// in\n    tag_149:\n      swap2\n      pop\n      dup2\n      dup2\n      mstore\n      pop\n      pop\n        /* \"https://github.com/Arachnid/solidity-stringutils/blob/master/src/strings.sol\":20687:20693  needle */\n      dup4\n        /* \"https://github.com/Arachnid/solidity-stringutils/blob/master/src/strings.sol\":20687:20698  needle._len */\n      0x00\n      add\n      mload\n        /* \"https://github.com/Arachnid/solidity-stringutils/blob/master/src/strings.sol\":20681:20684  ptr */\n      dup2\n        /* \"https://github.com/Arachnid/solidity-stringutils/blob/master/src/strings.sol\":20681:20698  ptr + needle._len */\n      tag_150\n      swap2\n      swap1\n      tag_60\n      jump\t// in\n    tag_150:\n        /* \"https://github.com/Arachnid/solidity-stringutils/blob/master/src/strings.sol\":20669:20673  self */\n      dup6\n        /* \"https://github.com/Arachnid/solidity-stringutils/blob/master/src/strings.sol\":20669:20678  self._ptr */\n      0x20\n      add\n        /* \"https://github.com/Arachnid/solidity-stringutils/blob/master/src/strings.sol\":20669:20698  self._ptr = ptr + needle._len */\n      dup2\n      dup2\n      mstore\n      pop\n      pop\n        /* \"https://github.com/Arachnid/solidity-stringutils/blob/master/src/strings.sol\":20501:20709  if (ptr == self._ptr + self._len) {... */\n    tag_147:\n        /* \"https://github.com/Arachnid/solidity-stringutils/blob/master/src/strings.sol\":20725:20730  token */\n      dup3\n        /* \"https://github.com/Arachnid/solidity-stringutils/blob/master/src/strings.sol\":20718:20730  return token */\n      swap2\n      pop\n      pop\n        /* \"https://github.com/Arachnid/solidity-stringutils/blob/master/src/strings.sol\":20233:20737  function split(slice memory self, slice memory needle, slice memory token) internal pure returns (slice memory) {... */\n      swap4\n      swap3\n      pop\n      pop\n      pop\n      jump\t// out\n        /* \"https://github.com/Arachnid/solidity-stringutils/blob/master/src/strings.sol\":2088:2704  function memcpy(uint dest, uint src, uint len) private pure {... */\n    tag_114:\n        /* \"https://github.com/Arachnid/solidity-stringutils/blob/master/src/strings.sol\":2208:2372  for(; len >= 32; len -= 32) {... */\n    tag_152:\n        /* \"https://github.com/Arachnid/solidity-stringutils/blob/master/src/strings.sol\":2221:2223  32 */\n      0x20\n        /* \"https://github.com/Arachnid/solidity-stringutils/blob/master/src/strings.sol\":2214:2217  len */\n      dup2\n        /* \"https://github.com/Arachnid/solidity-stringutils/blob/master/src/strings.sol\":2214:2223  len >= 32 */\n      lt\n        /* \"https://github.com/Arachnid/solidity-stringutils/blob/master/src/strings.sol\":2208:2372  for(; len >= 32; len -= 32) {... */\n      tag_153\n      jumpi\n        /* \"https://github.com/Arachnid/solidity-stringutils/blob/master/src/strings.sol\":2296:2299  src */\n      dup2\n        /* \"https://github.com/Arachnid/solidity-stringutils/blob/master/src/strings.sol\":2290:2300  mload(src) */\n      mload\n        /* \"https://github.com/Arachnid/solidity-stringutils/blob/master/src/strings.sol\":2284:2288  dest */\n      dup4\n        /* \"https://github.com/Arachnid/solidity-stringutils/blob/master/src/strings.sol\":2277:2301  mstore(dest, mload(src)) */\n      mstore\n        /* \"https://github.com/Arachnid/solidity-stringutils/blob/master/src/strings.sol\":2336:2338  32 */\n      0x20\n        /* \"https://github.com/Arachnid/solidity-stringutils/blob/master/src/strings.sol\":2328:2338  dest += 32 */\n      dup4\n      tag_155\n      swap2\n      swap1\n      tag_60\n      jump\t// in\n    tag_155:\n      swap3\n      pop\n        /* \"https://github.com/Arachnid/solidity-stringutils/blob/master/src/strings.sol\":2359:2361  32 */\n      0x20\n        /* \"https://github.com/Arachnid/solidity-stringutils/blob/master/src/strings.sol\":2352:2361  src += 32 */\n      dup3\n      tag_156\n      swap2\n      swap1\n      tag_60\n      jump\t// in\n    tag_156:\n      swap2\n      pop\n        /* \"https://github.com/Arachnid/solidity-stringutils/blob/master/src/strings.sol\":2232:2234  32 */\n      0x20\n        /* \"https://github.com/Arachnid/solidity-stringutils/blob/master/src/strings.sol\":2225:2234  len -= 32 */\n      dup2\n      tag_157\n      swap2\n      swap1\n      tag_103\n      jump\t// in\n    tag_157:\n      swap1\n      pop\n        /* \"https://github.com/Arachnid/solidity-stringutils/blob/master/src/strings.sol\":2208:2372  for(; len >= 32; len -= 32) {... */\n      jump(tag_152)\n    tag_153:\n        /* \"https://github.com/Arachnid/solidity-stringutils/blob/master/src/strings.sol\":2414:2423  uint mask */\n      0x00\n        /* \"https://github.com/Arachnid/solidity-stringutils/blob/master/src/strings.sol\":2426:2440  type(uint).max */\n      0xffffffffffffffffffffffffffffffffffffffffffffffffffffffffffffffff\n        /* \"https://github.com/Arachnid/solidity-stringutils/blob/master/src/strings.sol\":2414:2440  uint mask = type(uint).max */\n      swap1\n      pop\n        /* \"https://github.com/Arachnid/solidity-stringutils/blob/master/src/strings.sol\":2460:2461  0 */\n      0x00\n        /* \"https://github.com/Arachnid/solidity-stringutils/blob/master/src/strings.sol\":2454:2457  len */\n      dup3\n        /* \"https://github.com/Arachnid/solidity-stringutils/blob/master/src/strings.sol\":2454:2461  len > 0 */\n      gt\n        /* \"https://github.com/Arachnid/solidity-stringutils/blob/master/src/strings.sol\":2450:2516  if (len > 0) {... */\n      iszero\n      tag_158\n      jumpi\n        /* \"https://github.com/Arachnid/solidity-stringutils/blob/master/src/strings.sol\":2504:2505  1 */\n      0x01\n        /* \"https://github.com/Arachnid/solidity-stringutils/blob/master/src/strings.sol\":2497:2500  len */\n      dup3\n        /* \"https://github.com/Arachnid/solidity-stringutils/blob/master/src/strings.sol\":2492:2494  32 */\n      0x20\n        /* \"https://github.com/Arachnid/solidity-stringutils/blob/master/src/strings.sol\":2492:2500  32 - len */\n      tag_159\n      swap2\n      swap1\n      tag_103\n      jump\t// in\n    tag_159:\n        /* \"https://github.com/Arachnid/solidity-stringutils/blob/master/src/strings.sol\":2484:2487  256 */\n      0x0100\n        /* \"https://github.com/Arachnid/solidity-stringutils/blob/master/src/strings.sol\":2484:2501  256 ** (32 - len) */\n      tag_160\n      swap2\n      swap1\n      tag_123\n      jump\t// in\n    tag_160:\n        /* \"https://github.com/Arachnid/solidity-stringutils/blob/master/src/strings.sol\":2484:2505  256 ** (32 - len) - 1 */\n      tag_161\n      swap2\n      swap1\n      tag_103\n      jump\t// in\n    tag_161:\n        /* \"https://github.com/Arachnid/solidity-stringutils/blob/master/src/strings.sol\":2477:2505  mask = 256 ** (32 - len) - 1 */\n      swap1\n      pop\n        /* \"https://github.com/Arachnid/solidity-stringutils/blob/master/src/strings.sol\":2450:2516  if (len > 0) {... */\n    tag_158:\n        /* \"https://github.com/Arachnid/solidity-stringutils/blob/master/src/strings.sol\":2583:2587  mask */\n      dup1\n        /* \"https://github.com/Arachnid/solidity-stringutils/blob/master/src/strings.sol\":2579:2588  not(mask) */\n      not\n        /* \"https://github.com/Arachnid/solidity-stringutils/blob/master/src/strings.sol\":2573:2576  src */\n      dup4\n        /* \"https://github.com/Arachnid/solidity-stringutils/blob/master/src/strings.sol\":2567:2577  mload(src) */\n      mload\n        /* \"https://github.com/Arachnid/solidity-stringutils/blob/master/src/strings.sol\":2563:2589  and(mload(src), not(mask)) */\n      and\n        /* \"https://github.com/Arachnid/solidity-stringutils/blob/master/src/strings.sol\":2635:2639  mask */\n      dup2\n        /* \"https://github.com/Arachnid/solidity-stringutils/blob/master/src/strings.sol\":2628:2632  dest */\n      dup6\n        /* \"https://github.com/Arachnid/solidity-stringutils/blob/master/src/strings.sol\":2622:2633  mload(dest) */\n      mload\n        /* \"https://github.com/Arachnid/solidity-stringutils/blob/master/src/strings.sol\":2618:2640  and(mload(dest), mask) */\n      and\n        /* \"https://github.com/Arachnid/solidity-stringutils/blob/master/src/strings.sol\":2679:2686  srcpart */\n      dup2\n        /* \"https://github.com/Arachnid/solidity-stringutils/blob/master/src/strings.sol\":2669:2677  destpart */\n      dup2\n        /* \"https://github.com/Arachnid/solidity-stringutils/blob/master/src/strings.sol\":2666:2687  or(destpart, srcpart) */\n      or\n        /* \"https://github.com/Arachnid/solidity-stringutils/blob/master/src/strings.sol\":2660:2664  dest */\n      dup7\n        /* \"https://github.com/Arachnid/solidity-stringutils/blob/master/src/strings.sol\":2653:2688  mstore(dest, or(destpart, srcpart)) */\n      mstore\n        /* \"https://github.com/Arachnid/solidity-stringutils/blob/master/src/strings.sol\":2534:2698  {... */\n      pop\n      pop\n      pop\n      pop\n      pop\n      pop\n      jump\t// out\n    tag_75:\n      dup3\n      dup1\n      sload\n      tag_162\n      swap1\n      tag_48\n      jump\t// in\n    tag_162:\n      swap1\n      0x00\n      mstore\n      keccak256(0x00, 0x20)\n      swap1\n      0x1f\n      add\n      0x20\n      swap1\n      div\n      dup2\n      add\n      swap3\n      dup3\n      tag_164\n      jumpi\n      0x00\n      dup6\n      sstore\n      jump(tag_163)\n    tag_164:\n      dup3\n      0x1f\n      lt\n      tag_165\n      jumpi\n      dup1\n      mload\n      not(0xff)\n      and\n      dup4\n      dup1\n      add\n      or\n      dup6\n      sstore\n      jump(tag_163)\n    tag_165:\n      dup3\n      dup1\n      add\n      0x01\n      add\n      dup6\n      sstore\n      dup3\n      iszero\n      tag_163\n      jumpi\n      swap2\n      dup3\n      add\n    tag_166:\n      dup3\n      dup2\n      gt\n      iszero\n      tag_167\n      jumpi\n      dup3\n      mload\n      dup3\n      sstore\n      swap2\n      0x20\n      add\n      swap2\n      swap1\n      0x01\n      add\n      swap1\n      jump(tag_166)\n    tag_167:\n    tag_163:\n      pop\n      swap1\n      pop\n      tag_168\n      swap2\n      swap1\n      tag_169\n      jump\t// in\n    tag_168:\n      pop\n      swap1\n      jump\t// out\n    tag_88:\n      mload(0x40)\n      dup1\n      0x80\n      add\n      0x40\n      mstore\n      dup1\n      0x00\n      dup2\n      mstore\n      0x20\n      add\n      0x00\n      dup2\n      mstore\n      0x20\n      add\n      and(0xffffffffffffffffffffffffffffffffffffffff, 0x00)\n      dup2\n      mstore\n      0x20\n      add\n      0x00\n      dup2\n      mstore\n      pop\n      swap1\n      jump\t// out\n    tag_91:\n      mload(0x40)\n      dup1\n      0x40\n      add\n      0x40\n      mstore\n      dup1\n      0x00\n      dup2\n      mstore\n      0x20\n      add\n      0x00\n      dup2\n      mstore\n      pop\n      swap1\n      jump\t// out\n    tag_169:\n    tag_170:\n      dup1\n      dup3\n      gt\n      iszero\n      tag_171\n      jumpi\n      0x00\n      dup2\n      0x00\n      swap1\n      sstore\n      pop\n      0x01\n      add\n      jump(tag_170)\n    tag_171:\n      pop\n      swap1\n      jump\t// out\n        /* \"#utility.yul\":7:351   */\n    tag_173:\n      0x00\n        /* \"#utility.yul\":110:175   */\n      tag_175\n        /* \"#utility.yul\":125:174   */\n      tag_176\n        /* \"#utility.yul\":167:173   */\n      dup5\n        /* \"#utility.yul\":125:174   */\n      tag_177\n      jump\t// in\n    tag_176:\n        /* \"#utility.yul\":110:175   */\n      tag_178\n      jump\t// in\n    tag_175:\n        /* \"#utility.yul\":101:175   */\n      swap1\n      pop\n        /* \"#utility.yul\":198:204   */\n      dup3\n        /* \"#utility.yul\":191:196   */\n      dup2\n        /* \"#utility.yul\":184:205   */\n      mstore\n        /* \"#utility.yul\":236:240   */\n      0x20\n        /* \"#utility.yul\":229:234   */\n      dup2\n        /* \"#utility.yul\":225:241   */\n      add\n        /* \"#utility.yul\":274:277   */\n      dup5\n        /* \"#utility.yul\":265:271   */\n      dup5\n        /* \"#utility.yul\":260:263   */\n      dup5\n        /* \"#utility.yul\":256:272   */\n      add\n        /* \"#utility.yul\":253:278   */\n      gt\n        /* \"#utility.yul\":250:252   */\n      iszero\n      tag_179\n      jumpi\n        /* \"#utility.yul\":291:292   */\n      0x00\n        /* \"#utility.yul\":288:289   */\n      dup1\n        /* \"#utility.yul\":281:293   */\n      revert\n        /* \"#utility.yul\":250:252   */\n    tag_179:\n        /* \"#utility.yul\":304:345   */\n      tag_180\n        /* \"#utility.yul\":338:344   */\n      dup5\n        /* \"#utility.yul\":333:336   */\n      dup3\n        /* \"#utility.yul\":328:331   */\n      dup6\n        /* \"#utility.yul\":304:345   */\n      tag_181\n      jump\t// in\n    tag_180:\n        /* \"#utility.yul\":91:351   */\n      pop\n      swap4\n      swap3\n      pop\n      pop\n      pop\n      jump\t// out\n        /* \"#utility.yul\":357:496   */\n    tag_182:\n      0x00\n        /* \"#utility.yul\":441:447   */\n      dup2\n        /* \"#utility.yul\":428:448   */\n      calldataload\n        /* \"#utility.yul\":419:448   */\n      swap1\n      pop\n        /* \"#utility.yul\":457:490   */\n      tag_184\n        /* \"#utility.yul\":484:489   */\n      dup2\n        /* \"#utility.yul\":457:490   */\n      tag_185\n      jump\t// in\n    tag_184:\n        /* \"#utility.yul\":409:496   */\n      swap3\n      swap2\n      pop\n      pop\n      jump\t// out\n        /* \"#utility.yul\":516:789   */\n    tag_186:\n      0x00\n        /* \"#utility.yul\":621:624   */\n      dup3\n        /* \"#utility.yul\":614:618   */\n      0x1f\n        /* \"#utility.yul\":606:612   */\n      dup4\n        /* \"#utility.yul\":602:619   */\n      add\n        /* \"#utility.yul\":598:625   */\n      slt\n        /* \"#utility.yul\":588:590   */\n      tag_188\n      jumpi\n        /* \"#utility.yul\":639:640   */\n      0x00\n        /* \"#utility.yul\":636:637   */\n      dup1\n        /* \"#utility.yul\":629:641   */\n      revert\n        /* \"#utility.yul\":588:590   */\n    tag_188:\n        /* \"#utility.yul\":679:685   */\n      dup2\n        /* \"#utility.yul\":666:686   */\n      calldataload\n        /* \"#utility.yul\":704:783   */\n      tag_189\n        /* \"#utility.yul\":779:782   */\n      dup5\n        /* \"#utility.yul\":771:777   */\n      dup3\n        /* \"#utility.yul\":764:768   */\n      0x20\n        /* \"#utility.yul\":756:762   */\n      dup7\n        /* \"#utility.yul\":752:769   */\n      add\n        /* \"#utility.yul\":704:783   */\n      tag_173\n      jump\t// in\n    tag_189:\n        /* \"#utility.yul\":695:783   */\n      swap2\n      pop\n        /* \"#utility.yul\":578:789   */\n      pop\n      swap3\n      swap2\n      pop\n      pop\n      jump\t// out\n        /* \"#utility.yul\":795:934   */\n    tag_190:\n      0x00\n        /* \"#utility.yul\":879:885   */\n      dup2\n        /* \"#utility.yul\":866:886   */\n      calldataload\n        /* \"#utility.yul\":857:886   */\n      swap1\n      pop\n        /* \"#utility.yul\":895:928   */\n      tag_192\n        /* \"#utility.yul\":922:927   */\n      dup2\n        /* \"#utility.yul\":895:928   */\n      tag_193\n      jump\t// in\n    tag_192:\n        /* \"#utility.yul\":847:934   */\n      swap3\n      swap2\n      pop\n      pop\n      jump\t// out\n        /* \"#utility.yul\":940:1315   */\n    tag_23:\n      0x00\n        /* \"#utility.yul\":1058:1060   */\n      0x20\n        /* \"#utility.yul\":1046:1055   */\n      dup3\n        /* \"#utility.yul\":1037:1044   */\n      dup5\n        /* \"#utility.yul\":1033:1056   */\n      sub\n        /* \"#utility.yul\":1029:1061   */\n      slt\n        /* \"#utility.yul\":1026:1028   */\n      iszero\n      tag_195\n      jumpi\n        /* \"#utility.yul\":1074:1075   */\n      0x00\n        /* \"#utility.yul\":1071:1072   */\n      dup1\n        /* \"#utility.yul\":1064:1076   */\n      revert\n        /* \"#utility.yul\":1026:1028   */\n    tag_195:\n        /* \"#utility.yul\":1145:1146   */\n      0x00\n        /* \"#utility.yul\":1134:1143   */\n      dup3\n        /* \"#utility.yul\":1130:1147   */\n      add\n        /* \"#utility.yul\":1117:1148   */\n      calldataload\n        /* \"#utility.yul\":1175:1193   */\n      0xffffffffffffffff\n        /* \"#utility.yul\":1167:1173   */\n      dup2\n        /* \"#utility.yul\":1164:1194   */\n      gt\n        /* \"#utility.yul\":1161:1163   */\n      iszero\n      tag_196\n      jumpi\n        /* \"#utility.yul\":1207:1208   */\n      0x00\n        /* \"#utility.yul\":1204:1205   */\n      dup1\n        /* \"#utility.yul\":1197:1209   */\n      revert\n        /* \"#utility.yul\":1161:1163   */\n    tag_196:\n        /* \"#utility.yul\":1235:1298   */\n      tag_197\n        /* \"#utility.yul\":1290:1297   */\n      dup5\n        /* \"#utility.yul\":1281:1287   */\n      dup3\n        /* \"#utility.yul\":1270:1279   */\n      dup6\n        /* \"#utility.yul\":1266:1288   */\n      add\n        /* \"#utility.yul\":1235:1298   */\n      tag_186\n      jump\t// in\n    tag_197:\n        /* \"#utility.yul\":1225:1298   */\n      swap2\n      pop\n        /* \"#utility.yul\":1088:1308   */\n      pop\n        /* \"#utility.yul\":1016:1315   */\n      swap3\n      swap2\n      pop\n      pop\n      jump\t// out\n        /* \"#utility.yul\":1321:1583   */\n    tag_13:\n      0x00\n        /* \"#utility.yul\":1429:1431   */\n      0x20\n        /* \"#utility.yul\":1417:1426   */\n      dup3\n        /* \"#utility.yul\":1408:1415   */\n      dup5\n        /* \"#utility.yul\":1404:1427   */\n      sub\n        /* \"#utility.yul\":1400:1432   */\n      slt\n        /* \"#utility.yul\":1397:1399   */\n      iszero\n      tag_199\n      jumpi\n        /* \"#utility.yul\":1445:1446   */\n      0x00\n        /* \"#utility.yul\":1442:1443   */\n      dup1\n        /* \"#utility.yul\":1435:1447   */\n      revert\n        /* \"#utility.yul\":1397:1399   */\n    tag_199:\n        /* \"#utility.yul\":1488:1489   */\n      0x00\n        /* \"#utility.yul\":1513:1566   */\n      tag_200\n        /* \"#utility.yul\":1558:1565   */\n      dup5\n        /* \"#utility.yul\":1549:1555   */\n      dup3\n        /* \"#utility.yul\":1538:1547   */\n      dup6\n        /* \"#utility.yul\":1534:1556   */\n      add\n        /* \"#utility.yul\":1513:1566   */\n      tag_190\n      jump\t// in\n    tag_200:\n        /* \"#utility.yul\":1503:1566   */\n      swap2\n      pop\n        /* \"#utility.yul\":1459:1576   */\n      pop\n        /* \"#utility.yul\":1387:1583   */\n      swap3\n      swap2\n      pop\n      pop\n      jump\t// out\n        /* \"#utility.yul\":1589:2287   */\n    tag_32:\n      0x00\n      dup1\n      0x00\n      dup1\n        /* \"#utility.yul\":1748:1751   */\n      0x80\n        /* \"#utility.yul\":1736:1745   */\n      dup6\n        /* \"#utility.yul\":1727:1734   */\n      dup8\n        /* \"#utility.yul\":1723:1746   */\n      sub\n        /* \"#utility.yul\":1719:1752   */\n      slt\n        /* \"#utility.yul\":1716:1718   */\n      iszero\n      tag_202\n      jumpi\n        /* \"#utility.yul\":1765:1766   */\n      0x00\n        /* \"#utility.yul\":1762:1763   */\n      dup1\n        /* \"#utility.yul\":1755:1767   */\n      revert\n        /* \"#utility.yul\":1716:1718   */\n    tag_202:\n        /* \"#utility.yul\":1808:1809   */\n      0x00\n        /* \"#utility.yul\":1833:1886   */\n      tag_203\n        /* \"#utility.yul\":1878:1885   */\n      dup8\n        /* \"#utility.yul\":1869:1875   */\n      dup3\n        /* \"#utility.yul\":1858:1867   */\n      dup9\n        /* \"#utility.yul\":1854:1876   */\n      add\n        /* \"#utility.yul\":1833:1886   */\n      tag_190\n      jump\t// in\n    tag_203:\n        /* \"#utility.yul\":1823:1886   */\n      swap5\n      pop\n        /* \"#utility.yul\":1779:1896   */\n      pop\n        /* \"#utility.yul\":1935:1937   */\n      0x20\n        /* \"#utility.yul\":1961:2014   */\n      tag_204\n        /* \"#utility.yul\":2006:2013   */\n      dup8\n        /* \"#utility.yul\":1997:2003   */\n      dup3\n        /* \"#utility.yul\":1986:1995   */\n      dup9\n        /* \"#utility.yul\":1982:2004   */\n      add\n        /* \"#utility.yul\":1961:2014   */\n      tag_190\n      jump\t// in\n    tag_204:\n        /* \"#utility.yul\":1951:2014   */\n      swap4\n      pop\n        /* \"#utility.yul\":1906:2024   */\n      pop\n        /* \"#utility.yul\":2063:2065   */\n      0x40\n        /* \"#utility.yul\":2089:2142   */\n      tag_205\n        /* \"#utility.yul\":2134:2141   */\n      dup8\n        /* \"#utility.yul\":2125:2131   */\n      dup3\n        /* \"#utility.yul\":2114:2123   */\n      dup9\n        /* \"#utility.yul\":2110:2132   */\n      add\n        /* \"#utility.yul\":2089:2142   */\n      tag_182\n      jump\t// in\n    tag_205:\n        /* \"#utility.yul\":2079:2142   */\n      swap3\n      pop\n        /* \"#utility.yul\":2034:2152   */\n      pop\n        /* \"#utility.yul\":2191:2193   */\n      0x60\n        /* \"#utility.yul\":2217:2270   */\n      tag_206\n        /* \"#utility.yul\":2262:2269   */\n      dup8\n        /* \"#utility.yul\":2253:2259   */\n      dup3\n        /* \"#utility.yul\":2242:2251   */\n      dup9\n        /* \"#utility.yul\":2238:2260   */\n      add\n        /* \"#utility.yul\":2217:2270   */\n      tag_190\n      jump\t// in\n    tag_206:\n        /* \"#utility.yul\":2207:2270   */\n      swap2\n      pop\n        /* \"#utility.yul\":2162:2280   */\n      pop\n        /* \"#utility.yul\":1706:2287   */\n      swap3\n      swap6\n      swap2\n      swap5\n      pop\n      swap3\n      pop\n      jump\t// out\n        /* \"#utility.yul\":2293:2489   */\n    tag_207:\n      0x00\n        /* \"#utility.yul\":2417:2483   */\n      tag_209\n        /* \"#utility.yul\":2479:2482   */\n      dup4\n        /* \"#utility.yul\":2471:2477   */\n      dup4\n        /* \"#utility.yul\":2417:2483   */\n      tag_210\n      jump\t// in\n    tag_209:\n        /* \"#utility.yul\":2403:2483   */\n      swap1\n      pop\n        /* \"#utility.yul\":2393:2489   */\n      swap3\n      swap2\n      pop\n      pop\n      jump\t// out\n        /* \"#utility.yul\":2495:2603   */\n    tag_211:\n        /* \"#utility.yul\":2572:2596   */\n      tag_213\n        /* \"#utility.yul\":2590:2595   */\n      dup2\n        /* \"#utility.yul\":2572:2596   */\n      tag_214\n      jump\t// in\n    tag_213:\n        /* \"#utility.yul\":2567:2570   */\n      dup3\n        /* \"#utility.yul\":2560:2597   */\n      mstore\n        /* \"#utility.yul\":2550:2603   */\n      pop\n      pop\n      jump\t// out\n        /* \"#utility.yul\":2609:2727   */\n    tag_215:\n        /* \"#utility.yul\":2696:2720   */\n      tag_217\n        /* \"#utility.yul\":2714:2719   */\n      dup2\n        /* \"#utility.yul\":2696:2720   */\n      tag_214\n      jump\t// in\n    tag_217:\n        /* \"#utility.yul\":2691:2694   */\n      dup3\n        /* \"#utility.yul\":2684:2721   */\n      mstore\n        /* \"#utility.yul\":2674:2727   */\n      pop\n      pop\n      jump\t// out\n        /* \"#utility.yul\":2761:3752   */\n    tag_218:\n      0x00\n        /* \"#utility.yul\":2929:2993   */\n      tag_220\n        /* \"#utility.yul\":2987:2992   */\n      dup3\n        /* \"#utility.yul\":2929:2993   */\n      tag_221\n      jump\t// in\n    tag_220:\n        /* \"#utility.yul\":3009:3105   */\n      tag_222\n        /* \"#utility.yul\":3098:3104   */\n      dup2\n        /* \"#utility.yul\":3093:3096   */\n      dup6\n        /* \"#utility.yul\":3009:3105   */\n      tag_223\n      jump\t// in\n    tag_222:\n        /* \"#utility.yul\":3002:3105   */\n      swap4\n      pop\n        /* \"#utility.yul\":3131:3134   */\n      dup4\n        /* \"#utility.yul\":3176:3180   */\n      0x20\n        /* \"#utility.yul\":3168:3174   */\n      dup3\n        /* \"#utility.yul\":3164:3181   */\n      mul\n        /* \"#utility.yul\":3159:3162   */\n      dup6\n        /* \"#utility.yul\":3155:3182   */\n      add\n        /* \"#utility.yul\":3206:3272   */\n      tag_224\n        /* \"#utility.yul\":3266:3271   */\n      dup6\n        /* \"#utility.yul\":3206:3272   */\n      tag_225\n      jump\t// in\n    tag_224:\n        /* \"#utility.yul\":3295:3302   */\n      dup1\n        /* \"#utility.yul\":3326:3327   */\n      0x00\n        /* \"#utility.yul\":3311:3707   */\n    tag_226:\n        /* \"#utility.yul\":3336:3342   */\n      dup6\n        /* \"#utility.yul\":3333:3334   */\n      dup2\n        /* \"#utility.yul\":3330:3343   */\n      lt\n        /* \"#utility.yul\":3311:3707   */\n      iszero\n      tag_228\n      jumpi\n        /* \"#utility.yul\":3407:3416   */\n      dup5\n        /* \"#utility.yul\":3401:3405   */\n      dup5\n        /* \"#utility.yul\":3397:3417   */\n      sub\n        /* \"#utility.yul\":3392:3395   */\n      dup10\n        /* \"#utility.yul\":3385:3418   */\n      mstore\n        /* \"#utility.yul\":3458:3464   */\n      dup2\n        /* \"#utility.yul\":3452:3465   */\n      mload\n        /* \"#utility.yul\":3486:3570   */\n      tag_229\n        /* \"#utility.yul\":3565:3569   */\n      dup6\n        /* \"#utility.yul\":3550:3563   */\n      dup3\n        /* \"#utility.yul\":3486:3570   */\n      tag_207\n      jump\t// in\n    tag_229:\n        /* \"#utility.yul\":3478:3570   */\n      swap5\n      pop\n        /* \"#utility.yul\":3593:3663   */\n      tag_230\n        /* \"#utility.yul\":3656:3662   */\n      dup4\n        /* \"#utility.yul\":3593:3663   */\n      tag_231\n      jump\t// in\n    tag_230:\n        /* \"#utility.yul\":3583:3663   */\n      swap3\n      pop\n        /* \"#utility.yul\":3692:3696   */\n      0x20\n        /* \"#utility.yul\":3687:3690   */\n      dup11\n        /* \"#utility.yul\":3683:3697   */\n      add\n        /* \"#utility.yul\":3676:3697   */\n      swap10\n      pop\n        /* \"#utility.yul\":3371:3707   */\n      pop\n        /* \"#utility.yul\":3358:3359   */\n      0x01\n        /* \"#utility.yul\":3355:3356   */\n      dup2\n        /* \"#utility.yul\":3351:3360   */\n      add\n        /* \"#utility.yul\":3346:3360   */\n      swap1\n      pop\n        /* \"#utility.yul\":3311:3707   */\n      jump(tag_226)\n    tag_228:\n        /* \"#utility.yul\":3315:3329   */\n      pop\n        /* \"#utility.yul\":3723:3727   */\n      dup3\n        /* \"#utility.yul\":3716:3727   */\n      swap8\n      pop\n        /* \"#utility.yul\":3743:3746   */\n      dup8\n        /* \"#utility.yul\":3736:3746   */\n      swap6\n      pop\n        /* \"#utility.yul\":2905:3752   */\n      pop\n      pop\n      pop\n      pop\n      pop\n      swap3\n      swap2\n      pop\n      pop\n      jump\t// out\n        /* \"#utility.yul\":3758:4102   */\n    tag_210:\n      0x00\n        /* \"#utility.yul\":3864:3903   */\n      tag_233\n        /* \"#utility.yul\":3897:3902   */\n      dup3\n        /* \"#utility.yul\":3864:3903   */\n      tag_234\n      jump\t// in\n    tag_233:\n        /* \"#utility.yul\":3919:3980   */\n      tag_235\n        /* \"#utility.yul\":3973:3979   */\n      dup2\n        /* \"#utility.yul\":3968:3971   */\n      dup6\n        /* \"#utility.yul\":3919:3980   */\n      tag_236\n      jump\t// in\n    tag_235:\n        /* \"#utility.yul\":3912:3980   */\n      swap4\n      pop\n        /* \"#utility.yul\":3989:4041   */\n      tag_237\n        /* \"#utility.yul\":4034:4040   */\n      dup2\n        /* \"#utility.yul\":4029:4032   */\n      dup6\n        /* \"#utility.yul\":4022:4026   */\n      0x20\n        /* \"#utility.yul\":4015:4020   */\n      dup7\n        /* \"#utility.yul\":4011:4027   */\n      add\n        /* \"#utility.yul\":3989:4041   */\n      tag_238\n      jump\t// in\n    tag_237:\n        /* \"#utility.yul\":4066:4095   */\n      tag_239\n        /* \"#utility.yul\":4088:4094   */\n      dup2\n        /* \"#utility.yul\":4066:4095   */\n      tag_240\n      jump\t// in\n    tag_239:\n        /* \"#utility.yul\":4061:4064   */\n      dup5\n        /* \"#utility.yul\":4057:4096   */\n      add\n        /* \"#utility.yul\":4050:4096   */\n      swap2\n      pop\n        /* \"#utility.yul\":3840:4102   */\n      pop\n      swap3\n      swap2\n      pop\n      pop\n      jump\t// out\n        /* \"#utility.yul\":4108:4472   */\n    tag_241:\n      0x00\n        /* \"#utility.yul\":4224:4263   */\n      tag_243\n        /* \"#utility.yul\":4257:4262   */\n      dup3\n        /* \"#utility.yul\":4224:4263   */\n      tag_234\n      jump\t// in\n    tag_243:\n        /* \"#utility.yul\":4279:4350   */\n      tag_244\n        /* \"#utility.yul\":4343:4349   */\n      dup2\n        /* \"#utility.yul\":4338:4341   */\n      dup6\n        /* \"#utility.yul\":4279:4350   */\n      tag_245\n      jump\t// in\n    tag_244:\n        /* \"#utility.yul\":4272:4350   */\n      swap4\n      pop\n        /* \"#utility.yul\":4359:4411   */\n      tag_246\n        /* \"#utility.yul\":4404:4410   */\n      dup2\n        /* \"#utility.yul\":4399:4402   */\n      dup6\n        /* \"#utility.yul\":4392:4396   */\n      0x20\n        /* \"#utility.yul\":4385:4390   */\n      dup7\n        /* \"#utility.yul\":4381:4397   */\n      add\n        /* \"#utility.yul\":4359:4411   */\n      tag_238\n      jump\t// in\n    tag_246:\n        /* \"#utility.yul\":4436:4465   */\n      tag_247\n        /* \"#utility.yul\":4458:4464   */\n      dup2\n        /* \"#utility.yul\":4436:4465   */\n      tag_240\n      jump\t// in\n    tag_247:\n        /* \"#utility.yul\":4431:4434   */\n      dup5\n        /* \"#utility.yul\":4427:4466   */\n      add\n        /* \"#utility.yul\":4420:4466   */\n      swap2\n      pop\n        /* \"#utility.yul\":4200:4472   */\n      pop\n      swap3\n      swap2\n      pop\n      pop\n      jump\t// out\n        /* \"#utility.yul\":4546:5442   */\n    tag_248:\n        /* \"#utility.yul\":4691:4695   */\n      0x80\n        /* \"#utility.yul\":4686:4689   */\n      dup3\n        /* \"#utility.yul\":4682:4696   */\n      add\n        /* \"#utility.yul\":4784:4788   */\n      0x00\n        /* \"#utility.yul\":4777:4782   */\n      dup3\n        /* \"#utility.yul\":4773:4789   */\n      add\n        /* \"#utility.yul\":4767:4790   */\n      mload\n        /* \"#utility.yul\":4803:4866   */\n      tag_250\n        /* \"#utility.yul\":4860:4864   */\n      0x00\n        /* \"#utility.yul\":4855:4858   */\n      dup6\n        /* \"#utility.yul\":4851:4865   */\n      add\n        /* \"#utility.yul\":4837:4849   */\n      dup3\n        /* \"#utility.yul\":4803:4866   */\n      tag_251\n      jump\t// in\n    tag_250:\n        /* \"#utility.yul\":4706:4876   */\n      pop\n        /* \"#utility.yul\":4968:4972   */\n      0x20\n        /* \"#utility.yul\":4961:4966   */\n      dup3\n        /* \"#utility.yul\":4957:4973   */\n      add\n        /* \"#utility.yul\":4951:4974   */\n      mload\n        /* \"#utility.yul\":4987:5050   */\n      tag_252\n        /* \"#utility.yul\":5044:5048   */\n      0x20\n        /* \"#utility.yul\":5039:5042   */\n      dup6\n        /* \"#utility.yul\":5035:5049   */\n      add\n        /* \"#utility.yul\":5021:5033   */\n      dup3\n        /* \"#utility.yul\":4987:5050   */\n      tag_251\n      jump\t// in\n    tag_252:\n        /* \"#utility.yul\":4886:5060   */\n      pop\n        /* \"#utility.yul\":5153:5157   */\n      0x40\n        /* \"#utility.yul\":5146:5151   */\n      dup3\n        /* \"#utility.yul\":5142:5158   */\n      add\n        /* \"#utility.yul\":5136:5159   */\n      mload\n        /* \"#utility.yul\":5172:5235   */\n      tag_253\n        /* \"#utility.yul\":5229:5233   */\n      0x40\n        /* \"#utility.yul\":5224:5227   */\n      dup6\n        /* \"#utility.yul\":5220:5234   */\n      add\n        /* \"#utility.yul\":5206:5218   */\n      dup3\n        /* \"#utility.yul\":5172:5235   */\n      tag_211\n      jump\t// in\n    tag_253:\n        /* \"#utility.yul\":5070:5245   */\n      pop\n        /* \"#utility.yul\":5343:5347   */\n      0x60\n        /* \"#utility.yul\":5336:5341   */\n      dup3\n        /* \"#utility.yul\":5332:5348   */\n      add\n        /* \"#utility.yul\":5326:5349   */\n      mload\n        /* \"#utility.yul\":5362:5425   */\n      tag_254\n        /* \"#utility.yul\":5419:5423   */\n      0x60\n        /* \"#utility.yul\":5414:5417   */\n      dup6\n        /* \"#utility.yul\":5410:5424   */\n      add\n        /* \"#utility.yul\":5396:5408   */\n      dup3\n        /* \"#utility.yul\":5362:5425   */\n      tag_251\n      jump\t// in\n    tag_254:\n        /* \"#utility.yul\":5255:5435   */\n      pop\n        /* \"#utility.yul\":4660:5442   */\n      pop\n      pop\n      pop\n      jump\t// out\n        /* \"#utility.yul\":5448:5556   */\n    tag_251:\n        /* \"#utility.yul\":5525:5549   */\n      tag_256\n        /* \"#utility.yul\":5543:5548   */\n      dup2\n        /* \"#utility.yul\":5525:5549   */\n      tag_257\n      jump\t// in\n    tag_256:\n        /* \"#utility.yul\":5520:5523   */\n      dup3\n        /* \"#utility.yul\":5513:5550   */\n      mstore\n        /* \"#utility.yul\":5503:5556   */\n      pop\n      pop\n      jump\t// out\n        /* \"#utility.yul\":5562:5680   */\n    tag_258:\n        /* \"#utility.yul\":5649:5673   */\n      tag_260\n        /* \"#utility.yul\":5667:5672   */\n      dup2\n        /* \"#utility.yul\":5649:5673   */\n      tag_257\n      jump\t// in\n    tag_260:\n        /* \"#utility.yul\":5644:5647   */\n      dup3\n        /* \"#utility.yul\":5637:5674   */\n      mstore\n        /* \"#utility.yul\":5627:5680   */\n      pop\n      pop\n      jump\t// out\n        /* \"#utility.yul\":5686:6099   */\n    tag_20:\n      0x00\n        /* \"#utility.yul\":5887:5889   */\n      0x20\n        /* \"#utility.yul\":5876:5885   */\n      dup3\n        /* \"#utility.yul\":5872:5890   */\n      add\n        /* \"#utility.yul\":5864:5890   */\n      swap1\n      pop\n        /* \"#utility.yul\":5936:5945   */\n      dup2\n        /* \"#utility.yul\":5930:5934   */\n      dup2\n        /* \"#utility.yul\":5926:5946   */\n      sub\n        /* \"#utility.yul\":5922:5923   */\n      0x00\n        /* \"#utility.yul\":5911:5920   */\n      dup4\n        /* \"#utility.yul\":5907:5924   */\n      add\n        /* \"#utility.yul\":5900:5947   */\n      mstore\n        /* \"#utility.yul\":5964:6092   */\n      tag_262\n        /* \"#utility.yul\":6087:6091   */\n      dup2\n        /* \"#utility.yul\":6078:6084   */\n      dup5\n        /* \"#utility.yul\":5964:6092   */\n      tag_218\n      jump\t// in\n    tag_262:\n        /* \"#utility.yul\":5956:6092   */\n      swap1\n      pop\n        /* \"#utility.yul\":5854:6099   */\n      swap3\n      swap2\n      pop\n      pop\n      jump\t// out\n        /* \"#utility.yul\":6105:6418   */\n    tag_29:\n      0x00\n        /* \"#utility.yul\":6256:6258   */\n      0x20\n        /* \"#utility.yul\":6245:6254   */\n      dup3\n        /* \"#utility.yul\":6241:6259   */\n      add\n        /* \"#utility.yul\":6233:6259   */\n      swap1\n      pop\n        /* \"#utility.yul\":6305:6314   */\n      dup2\n        /* \"#utility.yul\":6299:6303   */\n      dup2\n        /* \"#utility.yul\":6295:6315   */\n      sub\n        /* \"#utility.yul\":6291:6292   */\n      0x00\n        /* \"#utility.yul\":6280:6289   */\n      dup4\n        /* \"#utility.yul\":6276:6293   */\n      add\n        /* \"#utility.yul\":6269:6316   */\n      mstore\n        /* \"#utility.yul\":6333:6411   */\n      tag_264\n        /* \"#utility.yul\":6406:6410   */\n      dup2\n        /* \"#utility.yul\":6397:6403   */\n      dup5\n        /* \"#utility.yul\":6333:6411   */\n      tag_241\n      jump\t// in\n    tag_264:\n        /* \"#utility.yul\":6325:6411   */\n      swap1\n      pop\n        /* \"#utility.yul\":6223:6418   */\n      swap3\n      swap2\n      pop\n      pop\n      jump\t// out\n        /* \"#utility.yul\":6424:6743   */\n    tag_42:\n      0x00\n        /* \"#utility.yul\":6603:6606   */\n      0x80\n        /* \"#utility.yul\":6592:6601   */\n      dup3\n        /* \"#utility.yul\":6588:6607   */\n      add\n        /* \"#utility.yul\":6580:6607   */\n      swap1\n      pop\n        /* \"#utility.yul\":6617:6736   */\n      tag_266\n        /* \"#utility.yul\":6733:6734   */\n      0x00\n        /* \"#utility.yul\":6722:6731   */\n      dup4\n        /* \"#utility.yul\":6718:6735   */\n      add\n        /* \"#utility.yul\":6709:6715   */\n      dup5\n        /* \"#utility.yul\":6617:6736   */\n      tag_248\n      jump\t// in\n    tag_266:\n        /* \"#utility.yul\":6570:6743   */\n      swap3\n      swap2\n      pop\n      pop\n      jump\t// out\n        /* \"#utility.yul\":6749:6971   */\n    tag_37:\n      0x00\n        /* \"#utility.yul\":6880:6882   */\n      0x20\n        /* \"#utility.yul\":6869:6878   */\n      dup3\n        /* \"#utility.yul\":6865:6883   */\n      add\n        /* \"#utility.yul\":6857:6883   */\n      swap1\n      pop\n        /* \"#utility.yul\":6893:6964   */\n      tag_268\n        /* \"#utility.yul\":6961:6962   */\n      0x00\n        /* \"#utility.yul\":6950:6959   */\n      dup4\n        /* \"#utility.yul\":6946:6963   */\n      add\n        /* \"#utility.yul\":6937:6943   */\n      dup5\n        /* \"#utility.yul\":6893:6964   */\n      tag_258\n      jump\t// in\n    tag_268:\n        /* \"#utility.yul\":6847:6971   */\n      swap3\n      swap2\n      pop\n      pop\n      jump\t// out\n        /* \"#utility.yul\":6977:7530   */\n    tag_16:\n      0x00\n        /* \"#utility.yul\":7192:7195   */\n      0x80\n        /* \"#utility.yul\":7181:7190   */\n      dup3\n        /* \"#utility.yul\":7177:7196   */\n      add\n        /* \"#utility.yul\":7169:7196   */\n      swap1\n      pop\n        /* \"#utility.yul\":7206:7277   */\n      tag_270\n        /* \"#utility.yul\":7274:7275   */\n      0x00\n        /* \"#utility.yul\":7263:7272   */\n      dup4\n        /* \"#utility.yul\":7259:7276   */\n      add\n        /* \"#utility.yul\":7250:7256   */\n      dup8\n        /* \"#utility.yul\":7206:7277   */\n      tag_258\n      jump\t// in\n    tag_270:\n        /* \"#utility.yul\":7287:7359   */\n      tag_271\n        /* \"#utility.yul\":7355:7357   */\n      0x20\n        /* \"#utility.yul\":7344:7353   */\n      dup4\n        /* \"#utility.yul\":7340:7358   */\n      add\n        /* \"#utility.yul\":7331:7337   */\n      dup7\n        /* \"#utility.yul\":7287:7359   */\n      tag_258\n      jump\t// in\n    tag_271:\n        /* \"#utility.yul\":7369:7441   */\n      tag_272\n        /* \"#utility.yul\":7437:7439   */\n      0x40\n        /* \"#utility.yul\":7426:7435   */\n      dup4\n        /* \"#utility.yul\":7422:7440   */\n      add\n        /* \"#utility.yul\":7413:7419   */\n      dup6\n        /* \"#utility.yul\":7369:7441   */\n      tag_215\n      jump\t// in\n    tag_272:\n        /* \"#utility.yul\":7451:7523   */\n      tag_273\n        /* \"#utility.yul\":7519:7521   */\n      0x60\n        /* \"#utility.yul\":7508:7517   */\n      dup4\n        /* \"#utility.yul\":7504:7522   */\n      add\n        /* \"#utility.yul\":7495:7501   */\n      dup5\n        /* \"#utility.yul\":7451:7523   */\n      tag_258\n      jump\t// in\n    tag_273:\n        /* \"#utility.yul\":7159:7530   */\n      swap6\n      swap5\n      pop\n      pop\n      pop\n      pop\n      pop\n      jump\t// out\n        /* \"#utility.yul\":7536:7819   */\n    tag_178:\n      0x00\n        /* \"#utility.yul\":7602:7604   */\n      0x40\n        /* \"#utility.yul\":7596:7605   */\n      mload\n        /* \"#utility.yul\":7586:7605   */\n      swap1\n      pop\n        /* \"#utility.yul\":7644:7648   */\n      dup2\n        /* \"#utility.yul\":7636:7642   */\n      dup2\n        /* \"#utility.yul\":7632:7649   */\n      add\n        /* \"#utility.yul\":7751:7757   */\n      dup2\n        /* \"#utility.yul\":7739:7749   */\n      dup2\n        /* \"#utility.yul\":7736:7758   */\n      lt\n        /* \"#utility.yul\":7715:7733   */\n      0xffffffffffffffff\n        /* \"#utility.yul\":7703:7713   */\n      dup3\n        /* \"#utility.yul\":7700:7734   */\n      gt\n        /* \"#utility.yul\":7697:7759   */\n      or\n        /* \"#utility.yul\":7694:7696   */\n      iszero\n      tag_275\n      jumpi\n        /* \"#utility.yul\":7762:7780   */\n      tag_276\n      tag_277\n      jump\t// in\n    tag_276:\n        /* \"#utility.yul\":7694:7696   */\n    tag_275:\n        /* \"#utility.yul\":7802:7812   */\n      dup1\n        /* \"#utility.yul\":7798:7800   */\n      0x40\n        /* \"#utility.yul\":7791:7813   */\n      mstore\n        /* \"#utility.yul\":7576:7819   */\n      pop\n      swap2\n      swap1\n      pop\n      jump\t// out\n        /* \"#utility.yul\":7825:8157   */\n    tag_177:\n      0x00\n        /* \"#utility.yul\":7977:7995   */\n      0xffffffffffffffff\n        /* \"#utility.yul\":7969:7975   */\n      dup3\n        /* \"#utility.yul\":7966:7996   */\n      gt\n        /* \"#utility.yul\":7963:7965   */\n      iszero\n      tag_279\n      jumpi\n        /* \"#utility.yul\":7999:8017   */\n      tag_280\n      tag_277\n      jump\t// in\n    tag_280:\n        /* \"#utility.yul\":7963:7965   */\n    tag_279:\n        /* \"#utility.yul\":8084:8088   */\n      0x1f\n        /* \"#utility.yul\":8080:8089   */\n      not\n        /* \"#utility.yul\":8073:8077   */\n      0x1f\n        /* \"#utility.yul\":8065:8071   */\n      dup4\n        /* \"#utility.yul\":8061:8078   */\n      add\n        /* \"#utility.yul\":8057:8090   */\n      and\n        /* \"#utility.yul\":8049:8090   */\n      swap1\n      pop\n        /* \"#utility.yul\":8145:8149   */\n      0x20\n        /* \"#utility.yul\":8139:8143   */\n      dup2\n        /* \"#utility.yul\":8135:8150   */\n      add\n        /* \"#utility.yul\":8127:8150   */\n      swap1\n      pop\n        /* \"#utility.yul\":7892:8157   */\n      swap2\n      swap1\n      pop\n      jump\t// out\n        /* \"#utility.yul\":8163:8305   */\n    tag_225:\n      0x00\n        /* \"#utility.yul\":8263:8266   */\n      dup2\n        /* \"#utility.yul\":8255:8266   */\n      swap1\n      pop\n        /* \"#utility.yul\":8293:8297   */\n      0x20\n        /* \"#utility.yul\":8288:8291   */\n      dup3\n        /* \"#utility.yul\":8284:8298   */\n      add\n        /* \"#utility.yul\":8276:8298   */\n      swap1\n      pop\n        /* \"#utility.yul\":8245:8305   */\n      swap2\n      swap1\n      pop\n      jump\t// out\n        /* \"#utility.yul\":8311:8435   */\n    tag_221:\n      0x00\n        /* \"#utility.yul\":8422:8427   */\n      dup2\n        /* \"#utility.yul\":8416:8428   */\n      mload\n        /* \"#utility.yul\":8406:8428   */\n      swap1\n      pop\n        /* \"#utility.yul\":8395:8435   */\n      swap2\n      swap1\n      pop\n      jump\t// out\n        /* \"#utility.yul\":8441:8540   */\n    tag_234:\n      0x00\n        /* \"#utility.yul\":8527:8532   */\n      dup2\n        /* \"#utility.yul\":8521:8533   */\n      mload\n        /* \"#utility.yul\":8511:8533   */\n      swap1\n      pop\n        /* \"#utility.yul\":8500:8540   */\n      swap2\n      swap1\n      pop\n      jump\t// out\n        /* \"#utility.yul\":8546:8669   */\n    tag_231:\n      0x00\n        /* \"#utility.yul\":8658:8662   */\n      0x20\n        /* \"#utility.yul\":8653:8656   */\n      dup3\n        /* \"#utility.yul\":8649:8663   */\n      add\n        /* \"#utility.yul\":8641:8663   */\n      swap1\n      pop\n        /* \"#utility.yul\":8631:8669   */\n      swap2\n      swap1\n      pop\n      jump\t// out\n        /* \"#utility.yul\":8675:8869   */\n    tag_223:\n      0x00\n        /* \"#utility.yul\":8818:8824   */\n      dup3\n        /* \"#utility.yul\":8813:8816   */\n      dup3\n        /* \"#utility.yul\":8806:8825   */\n      mstore\n        /* \"#utility.yul\":8858:8862   */\n      0x20\n        /* \"#utility.yul\":8853:8856   */\n      dup3\n        /* \"#utility.yul\":8849:8863   */\n      add\n        /* \"#utility.yul\":8834:8863   */\n      swap1\n      pop\n        /* \"#utility.yul\":8796:8869   */\n      swap3\n      swap2\n      pop\n      pop\n      jump\t// out\n        /* \"#utility.yul\":8875:9034   */\n    tag_236:\n      0x00\n        /* \"#utility.yul\":8983:8989   */\n      dup3\n        /* \"#utility.yul\":8978:8981   */\n      dup3\n        /* \"#utility.yul\":8971:8990   */\n      mstore\n        /* \"#utility.yul\":9023:9027   */\n      0x20\n        /* \"#utility.yul\":9018:9021   */\n      dup3\n        /* \"#utility.yul\":9014:9028   */\n      add\n        /* \"#utility.yul\":8999:9028   */\n      swap1\n      pop\n        /* \"#utility.yul\":8961:9034   */\n      swap3\n      swap2\n      pop\n      pop\n      jump\t// out\n        /* \"#utility.yul\":9040:9209   */\n    tag_245:\n      0x00\n        /* \"#utility.yul\":9158:9164   */\n      dup3\n        /* \"#utility.yul\":9153:9156   */\n      dup3\n        /* \"#utility.yul\":9146:9165   */\n      mstore\n        /* \"#utility.yul\":9198:9202   */\n      0x20\n        /* \"#utility.yul\":9193:9196   */\n      dup3\n        /* \"#utility.yul\":9189:9203   */\n      add\n        /* \"#utility.yul\":9174:9203   */\n      swap1\n      pop\n        /* \"#utility.yul\":9136:9209   */\n      swap3\n      swap2\n      pop\n      pop\n      jump\t// out\n        /* \"#utility.yul\":9215:9520   */\n    tag_60:\n      0x00\n        /* \"#utility.yul\":9274:9294   */\n      tag_289\n        /* \"#utility.yul\":9292:9293   */\n      dup3\n        /* \"#utility.yul\":9274:9294   */\n      tag_257\n      jump\t// in\n    tag_289:\n        /* \"#utility.yul\":9269:9294   */\n      swap2\n      pop\n        /* \"#utility.yul\":9308:9328   */\n      tag_290\n        /* \"#utility.yul\":9326:9327   */\n      dup4\n        /* \"#utility.yul\":9308:9328   */\n      tag_257\n      jump\t// in\n    tag_290:\n        /* \"#utility.yul\":9303:9328   */\n      swap3\n      pop\n        /* \"#utility.yul\":9462:9463   */\n      dup3\n        /* \"#utility.yul\":9394:9460   */\n      0xffffffffffffffffffffffffffffffffffffffffffffffffffffffffffffffff\n        /* \"#utility.yul\":9390:9464   */\n      sub\n        /* \"#utility.yul\":9387:9388   */\n      dup3\n        /* \"#utility.yul\":9384:9465   */\n      gt\n        /* \"#utility.yul\":9381:9383   */\n      iszero\n      tag_291\n      jumpi\n        /* \"#utility.yul\":9468:9486   */\n      tag_292\n      tag_293\n      jump\t// in\n    tag_292:\n        /* \"#utility.yul\":9381:9383   */\n    tag_291:\n        /* \"#utility.yul\":9512:9513   */\n      dup3\n        /* \"#utility.yul\":9509:9510   */\n      dup3\n        /* \"#utility.yul\":9505:9514   */\n      add\n        /* \"#utility.yul\":9498:9514   */\n      swap1\n      pop\n        /* \"#utility.yul\":9259:9520   */\n      swap3\n      swap2\n      pop\n      pop\n      jump\t// out\n        /* \"#utility.yul\":9526:10374   */\n    tag_294:\n      0x00\n      dup1\n        /* \"#utility.yul\":9618:9624   */\n      dup3\n        /* \"#utility.yul\":9609:9624   */\n      swap2\n      pop\n        /* \"#utility.yul\":9642:9647   */\n      dup4\n        /* \"#utility.yul\":9633:9647   */\n      swap1\n      pop\n        /* \"#utility.yul\":9656:10368   */\n    tag_296:\n        /* \"#utility.yul\":9677:9678   */\n      0x01\n        /* \"#utility.yul\":9667:9675   */\n      dup6\n        /* \"#utility.yul\":9664:9679   */\n      gt\n        /* \"#utility.yul\":9656:10368   */\n      iszero\n      tag_298\n      jumpi\n        /* \"#utility.yul\":9772:9776   */\n      dup1\n        /* \"#utility.yul\":9767:9770   */\n      dup7\n        /* \"#utility.yul\":9763:9777   */\n      div\n        /* \"#utility.yul\":9757:9761   */\n      dup2\n        /* \"#utility.yul\":9754:9778   */\n      gt\n        /* \"#utility.yul\":9751:9753   */\n      iszero\n      tag_299\n      jumpi\n        /* \"#utility.yul\":9781:9799   */\n      tag_300\n      tag_293\n      jump\t// in\n    tag_300:\n        /* \"#utility.yul\":9751:9753   */\n    tag_299:\n        /* \"#utility.yul\":9831:9832   */\n      0x01\n        /* \"#utility.yul\":9821:9829   */\n      dup6\n        /* \"#utility.yul\":9817:9833   */\n      and\n        /* \"#utility.yul\":9814:9816   */\n      iszero\n      tag_301\n      jumpi\n        /* \"#utility.yul\":10246:10250   */\n      dup1\n        /* \"#utility.yul\":10239:10244   */\n      dup3\n        /* \"#utility.yul\":10235:10251   */\n      mul\n        /* \"#utility.yul\":10226:10251   */\n      swap2\n      pop\n        /* \"#utility.yul\":9814:9816   */\n    tag_301:\n        /* \"#utility.yul\":10296:10300   */\n      dup1\n        /* \"#utility.yul\":10290:10294   */\n      dup2\n        /* \"#utility.yul\":10286:10301   */\n      mul\n        /* \"#utility.yul\":10278:10301   */\n      swap1\n      pop\n        /* \"#utility.yul\":10326:10358   */\n      tag_302\n        /* \"#utility.yul\":10349:10357   */\n      dup6\n        /* \"#utility.yul\":10326:10358   */\n      tag_303\n      jump\t// in\n    tag_302:\n        /* \"#utility.yul\":10314:10358   */\n      swap5\n      pop\n        /* \"#utility.yul\":9656:10368   */\n      jump(tag_296)\n    tag_298:\n        /* \"#utility.yul\":9599:10374   */\n      swap5\n      pop\n      swap5\n      swap3\n      pop\n      pop\n      pop\n      jump\t// out\n        /* \"#utility.yul\":10380:10665   */\n    tag_123:\n      0x00\n        /* \"#utility.yul\":10464:10487   */\n      tag_305\n        /* \"#utility.yul\":10482:10486   */\n      dup3\n        /* \"#utility.yul\":10464:10487   */\n      tag_257\n      jump\t// in\n    tag_305:\n        /* \"#utility.yul\":10456:10487   */\n      swap2\n      pop\n        /* \"#utility.yul\":10508:10535   */\n      tag_306\n        /* \"#utility.yul\":10526:10534   */\n      dup4\n        /* \"#utility.yul\":10508:10535   */\n      tag_257\n      jump\t// in\n    tag_306:\n        /* \"#utility.yul\":10496:10535   */\n      swap3\n      pop\n        /* \"#utility.yul\":10554:10658   */\n      tag_307\n        /* \"#utility.yul\":10591:10657   */\n      0xffffffffffffffffffffffffffffffffffffffffffffffffffffffffffffffff\n        /* \"#utility.yul\":10581:10589   */\n      dup5\n        /* \"#utility.yul\":10575:10579   */\n      dup5\n        /* \"#utility.yul\":10554:10658   */\n      tag_308\n      jump\t// in\n    tag_307:\n        /* \"#utility.yul\":10545:10658   */\n      swap1\n      pop\n        /* \"#utility.yul\":10446:10665   */\n      swap3\n      swap2\n      pop\n      pop\n      jump\t// out\n        /* \"#utility.yul\":10671:11744   */\n    tag_308:\n      0x00\n        /* \"#utility.yul\":10916:10924   */\n      dup3\n        /* \"#utility.yul\":10906:10908   */\n      tag_310\n      jumpi\n        /* \"#utility.yul\":10937:10938   */\n      0x01\n        /* \"#utility.yul\":10928:10938   */\n      swap1\n      pop\n        /* \"#utility.yul\":10939:10944   */\n      jump(tag_309)\n        /* \"#utility.yul\":10906:10908   */\n    tag_310:\n        /* \"#utility.yul\":10965:10969   */\n      dup2\n        /* \"#utility.yul\":10955:10957   */\n      tag_311\n      jumpi\n        /* \"#utility.yul\":10982:10983   */\n      0x00\n        /* \"#utility.yul\":10973:10983   */\n      swap1\n      pop\n        /* \"#utility.yul\":10984:10989   */\n      jump(tag_309)\n        /* \"#utility.yul\":10955:10957   */\n    tag_311:\n        /* \"#utility.yul\":11051:11055   */\n      dup2\n        /* \"#utility.yul\":11099:11100   */\n      0x01\n        /* \"#utility.yul\":11094:11121   */\n      dup2\n      eq\n      tag_313\n      jumpi\n        /* \"#utility.yul\":11135:11136   */\n      0x02\n        /* \"#utility.yul\":11130:11321   */\n      dup2\n      eq\n      tag_314\n      jumpi\n        /* \"#utility.yul\":11044:11321   */\n      jump(tag_312)\n        /* \"#utility.yul\":11094:11121   */\n    tag_313:\n        /* \"#utility.yul\":11112:11113   */\n      0x01\n        /* \"#utility.yul\":11103:11113   */\n      swap2\n      pop\n        /* \"#utility.yul\":11114:11119   */\n      pop\n      jump(tag_309)\n        /* \"#utility.yul\":11130:11321   */\n    tag_314:\n        /* \"#utility.yul\":11175:11178   */\n      0xff\n        /* \"#utility.yul\":11165:11173   */\n      dup5\n        /* \"#utility.yul\":11162:11179   */\n      gt\n        /* \"#utility.yul\":11159:11161   */\n      iszero\n      tag_315\n      jumpi\n        /* \"#utility.yul\":11182:11200   */\n      tag_316\n      tag_293\n      jump\t// in\n    tag_316:\n        /* \"#utility.yul\":11159:11161   */\n    tag_315:\n        /* \"#utility.yul\":11231:11239   */\n      dup4\n        /* \"#utility.yul\":11228:11229   */\n      0x02\n        /* \"#utility.yul\":11224:11240   */\n      exp\n        /* \"#utility.yul\":11215:11240   */\n      swap2\n      pop\n        /* \"#utility.yul\":11266:11269   */\n      dup5\n        /* \"#utility.yul\":11259:11264   */\n      dup3\n        /* \"#utility.yul\":11256:11270   */\n      gt\n        /* \"#utility.yul\":11253:11255   */\n      iszero\n      tag_317\n      jumpi\n        /* \"#utility.yul\":11273:11291   */\n      tag_318\n      tag_293\n      jump\t// in\n    tag_318:\n        /* \"#utility.yul\":11253:11255   */\n    tag_317:\n        /* \"#utility.yul\":11306:11311   */\n      pop\n      jump(tag_309)\n        /* \"#utility.yul\":11044:11321   */\n    tag_312:\n      pop\n        /* \"#utility.yul\":11430:11432   */\n      0x20\n        /* \"#utility.yul\":11420:11428   */\n      dup4\n        /* \"#utility.yul\":11417:11433   */\n      lt\n        /* \"#utility.yul\":11411:11414   */\n      0x0133\n        /* \"#utility.yul\":11405:11409   */\n      dup4\n        /* \"#utility.yul\":11402:11415   */\n      lt\n        /* \"#utility.yul\":11398:11434   */\n      and\n        /* \"#utility.yul\":11380:11382   */\n      0x4e\n        /* \"#utility.yul\":11370:11378   */\n      dup5\n        /* \"#utility.yul\":11367:11383   */\n      lt\n        /* \"#utility.yul\":11362:11364   */\n      0x0b\n        /* \"#utility.yul\":11356:11360   */\n      dup5\n        /* \"#utility.yul\":11353:11365   */\n      lt\n        /* \"#utility.yul\":11349:11384   */\n      and\n        /* \"#utility.yul\":11333:11444   */\n      or\n        /* \"#utility.yul\":11330:11332   */\n      iszero\n      tag_319\n      jumpi\n        /* \"#utility.yul\":11486:11494   */\n      dup3\n        /* \"#utility.yul\":11480:11484   */\n      dup3\n        /* \"#utility.yul\":11476:11495   */\n      exp\n        /* \"#utility.yul\":11467:11495   */\n      swap1\n      pop\n        /* \"#utility.yul\":11521:11524   */\n      dup4\n        /* \"#utility.yul\":11514:11519   */\n      dup2\n        /* \"#utility.yul\":11511:11525   */\n      gt\n        /* \"#utility.yul\":11508:11510   */\n      iszero\n      tag_320\n      jumpi\n        /* \"#utility.yul\":11528:11546   */\n      tag_321\n      tag_293\n      jump\t// in\n    tag_321:\n        /* \"#utility.yul\":11508:11510   */\n    tag_320:\n        /* \"#utility.yul\":11561:11566   */\n      jump(tag_309)\n        /* \"#utility.yul\":11330:11332   */\n    tag_319:\n        /* \"#utility.yul\":11601:11643   */\n      tag_322\n        /* \"#utility.yul\":11639:11642   */\n      dup5\n        /* \"#utility.yul\":11629:11637   */\n      dup5\n        /* \"#utility.yul\":11623:11627   */\n      dup5\n        /* \"#utility.yul\":11620:11621   */\n      0x01\n        /* \"#utility.yul\":11601:11643   */\n      tag_294\n      jump\t// in\n    tag_322:\n        /* \"#utility.yul\":11586:11643   */\n      swap3\n      pop\n      swap1\n      pop\n        /* \"#utility.yul\":11675:11679   */\n      dup2\n        /* \"#utility.yul\":11670:11673   */\n      dup5\n        /* \"#utility.yul\":11666:11680   */\n      div\n        /* \"#utility.yul\":11659:11664   */\n      dup2\n        /* \"#utility.yul\":11656:11681   */\n      gt\n        /* \"#utility.yul\":11653:11655   */\n      iszero\n      tag_323\n      jumpi\n        /* \"#utility.yul\":11684:11702   */\n      tag_324\n      tag_293\n      jump\t// in\n    tag_324:\n        /* \"#utility.yul\":11653:11655   */\n    tag_323:\n        /* \"#utility.yul\":11733:11737   */\n      dup2\n        /* \"#utility.yul\":11726:11731   */\n      dup2\n        /* \"#utility.yul\":11722:11738   */\n      mul\n        /* \"#utility.yul\":11713:11738   */\n      swap1\n      pop\n        /* \"#utility.yul\":10731:11744   */\n    tag_309:\n      swap4\n      swap3\n      pop\n      pop\n      pop\n      jump\t// out\n        /* \"#utility.yul\":11750:12098   */\n    tag_121:\n      0x00\n        /* \"#utility.yul\":11813:11833   */\n      tag_326\n        /* \"#utility.yul\":11831:11832   */\n      dup3\n        /* \"#utility.yul\":11813:11833   */\n      tag_257\n      jump\t// in\n    tag_326:\n        /* \"#utility.yul\":11808:11833   */\n      swap2\n      pop\n        /* \"#utility.yul\":11847:11867   */\n      tag_327\n        /* \"#utility.yul\":11865:11866   */\n      dup4\n        /* \"#utility.yul\":11847:11867   */\n      tag_257\n      jump\t// in\n    tag_327:\n        /* \"#utility.yul\":11842:11867   */\n      swap3\n      pop\n        /* \"#utility.yul\":12035:12036   */\n      dup2\n        /* \"#utility.yul\":11967:12033   */\n      0xffffffffffffffffffffffffffffffffffffffffffffffffffffffffffffffff\n        /* \"#utility.yul\":11963:12037   */\n      div\n        /* \"#utility.yul\":11960:11961   */\n      dup4\n        /* \"#utility.yul\":11957:12038   */\n      gt\n        /* \"#utility.yul\":11952:11953   */\n      dup3\n        /* \"#utility.yul\":11945:11954   */\n      iszero\n        /* \"#utility.yul\":11938:11955   */\n      iszero\n        /* \"#utility.yul\":11934:12039   */\n      and\n        /* \"#utility.yul\":11931:11933   */\n      iszero\n      tag_328\n      jumpi\n        /* \"#utility.yul\":12042:12060   */\n      tag_329\n      tag_293\n      jump\t// in\n    tag_329:\n        /* \"#utility.yul\":11931:11933   */\n    tag_328:\n        /* \"#utility.yul\":12090:12091   */\n      dup3\n        /* \"#utility.yul\":12087:12088   */\n      dup3\n        /* \"#utility.yul\":12083:12092   */\n      mul\n        /* \"#utility.yul\":12072:12092   */\n      swap1\n      pop\n        /* \"#utility.yul\":11798:12098   */\n      swap3\n      swap2\n      pop\n      pop\n      jump\t// out\n        /* \"#utility.yul\":12104:12295   */\n    tag_103:\n      0x00\n        /* \"#utility.yul\":12164:12184   */\n      tag_331\n        /* \"#utility.yul\":12182:12183   */\n      dup3\n        /* \"#utility.yul\":12164:12184   */\n      tag_257\n      jump\t// in\n    tag_331:\n        /* \"#utility.yul\":12159:12184   */\n      swap2\n      pop\n        /* \"#utility.yul\":12198:12218   */\n      tag_332\n        /* \"#utility.yul\":12216:12217   */\n      dup4\n        /* \"#utility.yul\":12198:12218   */\n      tag_257\n      jump\t// in\n    tag_332:\n        /* \"#utility.yul\":12193:12218   */\n      swap3\n      pop\n        /* \"#utility.yul\":12237:12238   */\n      dup3\n        /* \"#utility.yul\":12234:12235   */\n      dup3\n        /* \"#utility.yul\":12231:12239   */\n      lt\n        /* \"#utility.yul\":12228:12230   */\n      iszero\n      tag_333\n      jumpi\n        /* \"#utility.yul\":12242:12260   */\n      tag_334\n      tag_293\n      jump\t// in\n    tag_334:\n        /* \"#utility.yul\":12228:12230   */\n    tag_333:\n        /* \"#utility.yul\":12287:12288   */\n      dup3\n        /* \"#utility.yul\":12284:12285   */\n      dup3\n        /* \"#utility.yul\":12280:12289   */\n      sub\n        /* \"#utility.yul\":12272:12289   */\n      swap1\n      pop\n        /* \"#utility.yul\":12149:12295   */\n      swap3\n      swap2\n      pop\n      pop\n      jump\t// out\n        /* \"#utility.yul\":12301:12397   */\n    tag_214:\n      0x00\n        /* \"#utility.yul\":12367:12391   */\n      tag_336\n        /* \"#utility.yul\":12385:12390   */\n      dup3\n        /* \"#utility.yul\":12367:12391   */\n      tag_337\n      jump\t// in\n    tag_336:\n        /* \"#utility.yul\":12356:12391   */\n      swap1\n      pop\n        /* \"#utility.yul\":12346:12397   */\n      swap2\n      swap1\n      pop\n      jump\t// out\n        /* \"#utility.yul\":12403:12529   */\n    tag_337:\n      0x00\n        /* \"#utility.yul\":12480:12522   */\n      0xffffffffffffffffffffffffffffffffffffffff\n        /* \"#utility.yul\":12473:12478   */\n      dup3\n        /* \"#utility.yul\":12469:12523   */\n      and\n        /* \"#utility.yul\":12458:12523   */\n      swap1\n      pop\n        /* \"#utility.yul\":12448:12529   */\n      swap2\n      swap1\n      pop\n      jump\t// out\n        /* \"#utility.yul\":12535:12612   */\n    tag_257:\n      0x00\n        /* \"#utility.yul\":12601:12606   */\n      dup2\n        /* \"#utility.yul\":12590:12606   */\n      swap1\n      pop\n        /* \"#utility.yul\":12580:12612   */\n      swap2\n      swap1\n      pop\n      jump\t// out\n        /* \"#utility.yul\":12618:12772   */\n    tag_181:\n        /* \"#utility.yul\":12702:12708   */\n      dup3\n        /* \"#utility.yul\":12697:12700   */\n      dup2\n        /* \"#utility.yul\":12692:12695   */\n      dup4\n        /* \"#utility.yul\":12679:12709   */\n      calldatacopy\n        /* \"#utility.yul\":12764:12765   */\n      0x00\n        /* \"#utility.yul\":12755:12761   */\n      dup4\n        /* \"#utility.yul\":12750:12753   */\n      dup4\n        /* \"#utility.yul\":12746:12762   */\n      add\n        /* \"#utility.yul\":12739:12766   */\n      mstore\n        /* \"#utility.yul\":12669:12772   */\n      pop\n      pop\n      pop\n      jump\t// out\n        /* \"#utility.yul\":12778:13085   */\n    tag_238:\n        /* \"#utility.yul\":12846:12847   */\n      0x00\n        /* \"#utility.yul\":12856:12969   */\n    tag_342:\n        /* \"#utility.yul\":12870:12876   */\n      dup4\n        /* \"#utility.yul\":12867:12868   */\n      dup2\n        /* \"#utility.yul\":12864:12877   */\n      lt\n        /* \"#utility.yul\":12856:12969   */\n      iszero\n      tag_344\n      jumpi\n        /* \"#utility.yul\":12955:12956   */\n      dup1\n        /* \"#utility.yul\":12950:12953   */\n      dup3\n        /* \"#utility.yul\":12946:12957   */\n      add\n        /* \"#utility.yul\":12940:12958   */\n      mload\n        /* \"#utility.yul\":12936:12937   */\n      dup2\n        /* \"#utility.yul\":12931:12934   */\n      dup5\n        /* \"#utility.yul\":12927:12938   */\n      add\n        /* \"#utility.yul\":12920:12959   */\n      mstore\n        /* \"#utility.yul\":12892:12894   */\n      0x20\n        /* \"#utility.yul\":12889:12890   */\n      dup2\n        /* \"#utility.yul\":12885:12895   */\n      add\n        /* \"#utility.yul\":12880:12895   */\n      swap1\n      pop\n        /* \"#utility.yul\":12856:12969   */\n      jump(tag_342)\n    tag_344:\n        /* \"#utility.yul\":12987:12993   */\n      dup4\n        /* \"#utility.yul\":12984:12985   */\n      dup2\n        /* \"#utility.yul\":12981:12994   */\n      gt\n        /* \"#utility.yul\":12978:12980   */\n      iszero\n      tag_345\n      jumpi\n        /* \"#utility.yul\":13067:13068   */\n      0x00\n        /* \"#utility.yul\":13058:13064   */\n      dup5\n        /* \"#utility.yul\":13053:13056   */\n      dup5\n        /* \"#utility.yul\":13049:13065   */\n      add\n        /* \"#utility.yul\":13042:13069   */\n      mstore\n        /* \"#utility.yul\":12978:12980   */\n    tag_345:\n        /* \"#utility.yul\":12827:13085   */\n      pop\n      pop\n      pop\n      pop\n      jump\t// out\n        /* \"#utility.yul\":13091:13411   */\n    tag_48:\n      0x00\n        /* \"#utility.yul\":13172:13173   */\n      0x02\n        /* \"#utility.yul\":13166:13170   */\n      dup3\n        /* \"#utility.yul\":13162:13174   */\n      div\n        /* \"#utility.yul\":13152:13174   */\n      swap1\n      pop\n        /* \"#utility.yul\":13219:13220   */\n      0x01\n        /* \"#utility.yul\":13213:13217   */\n      dup3\n        /* \"#utility.yul\":13209:13221   */\n      and\n        /* \"#utility.yul\":13240:13258   */\n      dup1\n        /* \"#utility.yul\":13230:13232   */\n      tag_347\n      jumpi\n        /* \"#utility.yul\":13296:13300   */\n      0x7f\n        /* \"#utility.yul\":13288:13294   */\n      dup3\n        /* \"#utility.yul\":13284:13301   */\n      and\n        /* \"#utility.yul\":13274:13301   */\n      swap2\n      pop\n        /* \"#utility.yul\":13230:13232   */\n    tag_347:\n        /* \"#utility.yul\":13358:13360   */\n      0x20\n        /* \"#utility.yul\":13350:13356   */\n      dup3\n        /* \"#utility.yul\":13347:13361   */\n      lt\n        /* \"#utility.yul\":13327:13345   */\n      dup2\n        /* \"#utility.yul\":13324:13362   */\n      eq\n        /* \"#utility.yul\":13321:13323   */\n      iszero\n      tag_348\n      jumpi\n        /* \"#utility.yul\":13377:13395   */\n      tag_349\n      tag_350\n      jump\t// in\n    tag_349:\n        /* \"#utility.yul\":13321:13323   */\n    tag_348:\n        /* \"#utility.yul\":13142:13411   */\n      pop\n      swap2\n      swap1\n      pop\n      jump\t// out\n        /* \"#utility.yul\":13417:13650   */\n    tag_77:\n      0x00\n        /* \"#utility.yul\":13479:13503   */\n      tag_352\n        /* \"#utility.yul\":13497:13502   */\n      dup3\n        /* \"#utility.yul\":13479:13503   */\n      tag_257\n      jump\t// in\n    tag_352:\n        /* \"#utility.yul\":13470:13503   */\n      swap2\n      pop\n        /* \"#utility.yul\":13525:13591   */\n      0xffffffffffffffffffffffffffffffffffffffffffffffffffffffffffffffff\n        /* \"#utility.yul\":13518:13523   */\n      dup3\n        /* \"#utility.yul\":13515:13592   */\n      eq\n        /* \"#utility.yul\":13512:13514   */\n      iszero\n      tag_353\n      jumpi\n        /* \"#utility.yul\":13595:13613   */\n      tag_354\n      tag_293\n      jump\t// in\n    tag_354:\n        /* \"#utility.yul\":13512:13514   */\n    tag_353:\n        /* \"#utility.yul\":13642:13643   */\n      0x01\n        /* \"#utility.yul\":13635:13640   */\n      dup3\n        /* \"#utility.yul\":13631:13644   */\n      add\n        /* \"#utility.yul\":13624:13644   */\n      swap1\n      pop\n        /* \"#utility.yul\":13460:13650   */\n      swap2\n      swap1\n      pop\n      jump\t// out\n        /* \"#utility.yul\":13656:13836   */\n    tag_293:\n        /* \"#utility.yul\":13704:13781   */\n      0x4e487b7100000000000000000000000000000000000000000000000000000000\n        /* \"#utility.yul\":13701:13702   */\n      0x00\n        /* \"#utility.yul\":13694:13782   */\n      mstore\n        /* \"#utility.yul\":13801:13805   */\n      0x11\n        /* \"#utility.yul\":13798:13799   */\n      0x04\n        /* \"#utility.yul\":13791:13806   */\n      mstore\n        /* \"#utility.yul\":13825:13829   */\n      0x24\n        /* \"#utility.yul\":13822:13823   */\n      0x00\n        /* \"#utility.yul\":13815:13830   */\n      revert\n        /* \"#utility.yul\":13842:14022   */\n    tag_350:\n        /* \"#utility.yul\":13890:13967   */\n      0x4e487b7100000000000000000000000000000000000000000000000000000000\n        /* \"#utility.yul\":13887:13888   */\n      0x00\n        /* \"#utility.yul\":13880:13968   */\n      mstore\n        /* \"#utility.yul\":13987:13991   */\n      0x22\n        /* \"#utility.yul\":13984:13985   */\n      0x04\n        /* \"#utility.yul\":13977:13992   */\n      mstore\n        /* \"#utility.yul\":14011:14015   */\n      0x24\n        /* \"#utility.yul\":14008:14009   */\n      0x00\n        /* \"#utility.yul\":14001:14016   */\n      revert\n        /* \"#utility.yul\":14028:14208   */\n    tag_277:\n        /* \"#utility.yul\":14076:14153   */\n      0x4e487b7100000000000000000000000000000000000000000000000000000000\n        /* \"#utility.yul\":14073:14074   */\n      0x00\n        /* \"#utility.yul\":14066:14154   */\n      mstore\n        /* \"#utility.yul\":14173:14177   */\n      0x41\n        /* \"#utility.yul\":14170:14171   */\n      0x04\n        /* \"#utility.yul\":14163:14178   */\n      mstore\n        /* \"#utility.yul\":14197:14201   */\n      0x24\n        /* \"#utility.yul\":14194:14195   */\n      0x00\n        /* \"#utility.yul\":14187:14202   */\n      revert\n        /* \"#utility.yul\":14214:14316   */\n    tag_240:\n      0x00\n        /* \"#utility.yul\":14306:14308   */\n      0x1f\n        /* \"#utility.yul\":14302:14309   */\n      not\n        /* \"#utility.yul\":14297:14299   */\n      0x1f\n        /* \"#utility.yul\":14290:14295   */\n      dup4\n        /* \"#utility.yul\":14286:14300   */\n      add\n        /* \"#utility.yul\":14282:14310   */\n      and\n        /* \"#utility.yul\":14272:14310   */\n      swap1\n      pop\n        /* \"#utility.yul\":14262:14316   */\n      swap2\n      swap1\n      pop\n      jump\t// out\n        /* \"#utility.yul\":14322:14424   */\n    tag_303:\n      0x00\n        /* \"#utility.yul\":14411:14416   */\n      dup2\n        /* \"#utility.yul\":14408:14409   */\n      0x01\n        /* \"#utility.yul\":14404:14417   */\n      shr\n        /* \"#utility.yul\":14383:14417   */\n      swap1\n      pop\n        /* \"#utility.yul\":14373:14424   */\n      swap2\n      swap1\n      pop\n      jump\t// out\n        /* \"#utility.yul\":14430:14552   */\n    tag_185:\n        /* \"#utility.yul\":14503:14527   */\n      tag_361\n        /* \"#utility.yul\":14521:14526   */\n      dup2\n        /* \"#utility.yul\":14503:14527   */\n      tag_214\n      jump\t// in\n    tag_361:\n        /* \"#utility.yul\":14496:14501   */\n      dup2\n        /* \"#utility.yul\":14493:14528   */\n      eq\n        /* \"#utility.yul\":14483:14485   */\n      tag_362\n      jumpi\n        /* \"#utility.yul\":14542:14543   */\n      0x00\n        /* \"#utility.yul\":14539:14540   */\n      dup1\n        /* \"#utility.yul\":14532:14544   */\n      revert\n        /* \"#utility.yul\":14483:14485   */\n    tag_362:\n        /* \"#utility.yul\":14473:14552   */\n      pop\n      jump\t// out\n        /* \"#utility.yul\":14558:14680   */\n    tag_193:\n        /* \"#utility.yul\":14631:14655   */\n      tag_364\n        /* \"#utility.yul\":14649:14654   */\n      dup2\n        /* \"#utility.yul\":14631:14655   */\n      tag_257\n      jump\t// in\n    tag_364:\n        /* \"#utility.yul\":14624:14629   */\n      dup2\n        /* \"#utility.yul\":14621:14656   */\n      eq\n        /* \"#utility.yul\":14611:14613   */\n      tag_365\n      jumpi\n        /* \"#utility.yul\":14670:14671   */\n      0x00\n        /* \"#utility.yul\":14667:14668   */\n      dup1\n        /* \"#utility.yul\":14660:14672   */\n      revert\n        /* \"#utility.yul\":14611:14613   */\n    tag_365:\n        /* \"#utility.yul\":14601:14680   */\n      pop\n      jump\t// out\n\n    auxdata: 0xa2646970667358221220d23487b70d62663a0d2dfc3c0b524b0b00c93715f2a84a53f162998b3342c4d564736f6c63430008000033\n}\n",
				"bytecode": {
					"linkReferences": {},
					"object": "608060405234801561001057600080fd5b50600060018190555061004160018073b5dea2661dfa4b8f0aae8bc1f583369d927c3b06600361004660201b60201c565b610199565b60405180608001604052808581526020018481526020018373ffffffffffffffffffffffffffffffffffffffff168152602001828152506000806001548152602001908152602001600020600082015181600001556020820151816001015560408201518160020160006101000a81548173ffffffffffffffffffffffffffffffffffffffff021916908373ffffffffffffffffffffffffffffffffffffffff160217905550606082015181600301559050506001600081548092919061010c90610121565b919050555050505050565b6000819050919050565b600061012c82610117565b91507fffffffffffffffffffffffffffffffffffffffffffffffffffffffffffffffff82141561015f5761015e61016a565b5b600182019050919050565b7f4e487b7100000000000000000000000000000000000000000000000000000000600052601160045260246000fd5b6114d780620001a96000396000f3fe608060405234801561001057600080fd5b506004361061007d5760003560e01c8063b723a32c1161005b578063b723a32c146100ef578063cae455ee1461011f578063da35c6641461013b578063e9d6c6da146101595761007d565b8063013cf08b1461008257806332fc40be146100b557806396caabb8146100d3575b600080fd5b61009c60048036038101906100979190610cdc565b610189565b6040516100ac9493929190610f6e565b60405180910390f35b6100bd6101d9565b6040516100ca9190610ef4565b60405180910390f35b6100ed60048036038101906100e89190610c9b565b6102b2565b005b61010960048036038101906101049190610cdc565b610498565b6040516101169190610f16565b60405180910390f35b61013960048036038101906101349190610d05565b610544565b005b610143610615565b6040516101509190610f53565b60405180910390f35b610173600480360381019061016e9190610cdc565b61061b565b6040516101809190610f38565b60405180910390f35b60006020528060005260406000206000915090508060000154908060010154908060020160009054906101000a900473ffffffffffffffffffffffffffffffffffffffff16908060030154905084565b60606002805480602002602001604051908101604052809291908181526020016000905b828210156102a957838290600052602060002001805461021c9061134d565b80601f01602080910402602001604051908101604052809291908181526020018280546102489061134d565b80156102955780601f1061026a57610100808354040283529160200191610295565b820191906000526020600020905b81548152906001019060200180831161027857829003601f168201915b5050505050815260200190600101906101fd565b50505050905090565b60006102bd826106bb565b905060006102ff6040518060400160405280600181526020017f2d000000000000000000000000000000000000000000000000000000000000008152506106bb565b90506000600161031883856106e990919063ffffffff16565b610322919061107a565b67ffffffffffffffff811115610361577f4e487b7100000000000000000000000000000000000000000000000000000000600052604160045260246000fd5b60405190808252806020026020018201604052801561039457816020015b606081526020019060019003908161037f5790505b50905060005b8151811015610491576103be6103b9848661079190919063ffffffff16565b6107ab565b8282815181106103f7577f4e487b7100000000000000000000000000000000000000000000000000000000600052603260045260246000fd5b6020026020010181905250600282828151811061043d577f4e487b7100000000000000000000000000000000000000000000000000000000600052603260045260246000fd5b602002602001015190806001815401808255809150506001900390600052602060002001600090919091909150908051906020019061047d929190610b0e565b5080806104899061137f565b91505061039a565b5050505050565b600281815481106104a857600080fd5b9060005260206000200160009150905080546104c39061134d565b80601f01602080910402602001604051908101604052809291908181526020018280546104ef9061134d565b801561053c5780601f106105115761010080835404028352916020019161053c565b820191906000526020600020905b81548152906001019060200180831161051f57829003601f168201915b505050505081565b60405180608001604052808581526020018481526020018373ffffffffffffffffffffffffffffffffffffffff168152602001828152506000806001548152602001908152602001600020600082015181600001556020820151816001015560408201518160020160006101000a81548173ffffffffffffffffffffffffffffffffffffffff021916908373ffffffffffffffffffffffffffffffffffffffff160217905550606082015181600301559050506001600081548092919061060a9061137f565b919050555050505050565b60015481565b610623610b94565b60008083815260200190815260200160002060405180608001604052908160008201548152602001600182015481526020016002820160009054906101000a900473ffffffffffffffffffffffffffffffffffffffff1673ffffffffffffffffffffffffffffffffffffffff1673ffffffffffffffffffffffffffffffffffffffff1681526020016003820154815250509050919050565b6106c3610bd2565b600060208301905060405180604001604052808451815260200182815250915050919050565b600080826000015161070d856000015186602001518660000151876020015161084d565b610717919061107a565b90505b8360000151846020015161072e919061107a565b811161078a57818061073f9061137f565b925050826000015161077985602001518361075a919061129b565b8660000151610769919061129b565b838660000151876020015161084d565b610783919061107a565b905061071a565b5092915050565b610799610bd2565b6107a4838383610997565b5092915050565b60606000826000015167ffffffffffffffff8111156107f3577f4e487b7100000000000000000000000000000000000000000000000000000000600052604160045260246000fd5b6040519080825280601f01601f1916602001820160405280156108255781602001600182028036833780820191505090505b50905060006020820190506108438185602001518660000151610a62565b8192505050919050565b600080849050600086851161097e5760208511610920576000808611156108a657600186602061087d919061129b565b60086108899190611241565b60026108959190611123565b61089f919061129b565b1960001b90505b60008186511690506000878a8a6108bd919061107a565b6108c7919061129b565b905060008386511690505b828114610912578186106108f9578a8a6108ec919061107a565b965050505050505061098f565b85806109049061137f565b9650508386511690506108d2565b85965050505050505061098f565b60008585209050600091505b8588610938919061129b565b821161097c576000868420905080821415610959578394505050505061098f565b600184610966919061107a565b93505081806109749061137f565b92505061092c565b505b868661098a919061107a565b925050505b949350505050565b61099f610bd2565b60006109bd856000015186602001518660000151876020015161084d565b905084602001518360200181815250508460200151816109dd919061129b565b836000018181525050846000015185602001516109fa919061107a565b811415610a11576000856000018181525050610a57565b83600001518360000151610a25919061107a565b85600001818151610a36919061129b565b91508181525050836000015181610a4d919061107a565b8560200181815250505b829150509392505050565b5b60208110610aa15781518352602083610a7c919061107a565b9250602082610a8b919061107a565b9150602081610a9a919061129b565b9050610a63565b60007fffffffffffffffffffffffffffffffffffffffffffffffffffffffffffffffff90506000821115610af8576001826020610ade919061129b565b610100610aeb9190611123565b610af5919061129b565b90505b8019835116818551168181178652505050505050565b828054610b1a9061134d565b90600052602060002090601f016020900481019282610b3c5760008555610b83565b82601f10610b5557805160ff1916838001178555610b83565b82800160010185558215610b83579182015b82811115610b82578251825591602001919060010190610b67565b5b509050610b909190610bec565b5090565b60405180608001604052806000815260200160008152602001600073ffffffffffffffffffffffffffffffffffffffff168152602001600081525090565b604051806040016040528060008152602001600081525090565b5b80821115610c05576000816000905550600101610bed565b5090565b6000610c1c610c1784610fe4565b610fb3565b905082815260208101848484011115610c3457600080fd5b610c3f84828561130b565b509392505050565b600081359050610c5681611473565b92915050565b600082601f830112610c6d57600080fd5b8135610c7d848260208601610c09565b91505092915050565b600081359050610c958161148a565b92915050565b600060208284031215610cad57600080fd5b600082013567ffffffffffffffff811115610cc757600080fd5b610cd384828501610c5c565b91505092915050565b600060208284031215610cee57600080fd5b6000610cfc84828501610c86565b91505092915050565b60008060008060808587031215610d1b57600080fd5b6000610d2987828801610c86565b9450506020610d3a87828801610c86565b9350506040610d4b87828801610c47565b9250506060610d5c87828801610c86565b91505092959194509250565b6000610d748383610e0f565b905092915050565b610d85816112cf565b82525050565b610d94816112cf565b82525050565b6000610da582611024565b610daf8185611047565b935083602082028501610dc185611014565b8060005b85811015610dfd5784840389528151610dde8582610d68565b9450610de98361103a565b925060208a01995050600181019050610dc5565b50829750879550505050505092915050565b6000610e1a8261102f565b610e248185611058565b9350610e3481856020860161131a565b610e3d81611455565b840191505092915050565b6000610e538261102f565b610e5d8185611069565b9350610e6d81856020860161131a565b610e7681611455565b840191505092915050565b608082016000820151610e976000850182610ed6565b506020820151610eaa6020850182610ed6565b506040820151610ebd6040850182610d7c565b506060820151610ed06060850182610ed6565b50505050565b610edf81611301565b82525050565b610eee81611301565b82525050565b60006020820190508181036000830152610f0e8184610d9a565b905092915050565b60006020820190508181036000830152610f308184610e48565b905092915050565b6000608082019050610f4d6000830184610e81565b92915050565b6000602082019050610f686000830184610ee5565b92915050565b6000608082019050610f836000830187610ee5565b610f906020830186610ee5565b610f9d6040830185610d8b565b610faa6060830184610ee5565b95945050505050565b6000604051905081810181811067ffffffffffffffff82111715610fda57610fd9611426565b5b8060405250919050565b600067ffffffffffffffff821115610fff57610ffe611426565b5b601f19601f8301169050602081019050919050565b6000819050602082019050919050565b600081519050919050565b600081519050919050565b6000602082019050919050565b600082825260208201905092915050565b600082825260208201905092915050565b600082825260208201905092915050565b600061108582611301565b915061109083611301565b9250827fffffffffffffffffffffffffffffffffffffffffffffffffffffffffffffffff038211156110c5576110c46113c8565b5b828201905092915050565b6000808291508390505b600185111561111a578086048111156110f6576110f56113c8565b5b60018516156111055780820291505b808102905061111385611466565b94506110da565b94509492505050565b600061112e82611301565b915061113983611301565b92506111667fffffffffffffffffffffffffffffffffffffffffffffffffffffffffffffffff848461116e565b905092915050565b60008261117e576001905061123a565b8161118c576000905061123a565b81600181146111a257600281146111ac576111db565b600191505061123a565b60ff8411156111be576111bd6113c8565b5b8360020a9150848211156111d5576111d46113c8565b5b5061123a565b5060208310610133831016604e8410600b84101617156112105782820a90508381111561120b5761120a6113c8565b5b61123a565b61121d84848460016110d0565b92509050818404811115611234576112336113c8565b5b81810290505b9392505050565b600061124c82611301565b915061125783611301565b9250817fffffffffffffffffffffffffffffffffffffffffffffffffffffffffffffffff04831182151516156112905761128f6113c8565b5b828202905092915050565b60006112a682611301565b91506112b183611301565b9250828210156112c4576112c36113c8565b5b828203905092915050565b60006112da826112e1565b9050919050565b600073ffffffffffffffffffffffffffffffffffffffff82169050919050565b6000819050919050565b82818337600083830152505050565b60005b8381101561133857808201518184015260208101905061131d565b83811115611347576000848401525b50505050565b6000600282049050600182168061136557607f821691505b60208210811415611379576113786113f7565b5b50919050565b600061138a82611301565b91507fffffffffffffffffffffffffffffffffffffffffffffffffffffffffffffffff8214156113bd576113bc6113c8565b5b600182019050919050565b7f4e487b7100000000000000000000000000000000000000000000000000000000600052601160045260246000fd5b7f4e487b7100000000000000000000000000000000000000000000000000000000600052602260045260246000fd5b7f4e487b7100000000000000000000000000000000000000000000000000000000600052604160045260246000fd5b6000601f19601f8301169050919050565b60008160011c9050919050565b61147c816112cf565b811461148757600080fd5b50565b61149381611301565b811461149e57600080fd5b5056fea2646970667358221220d23487b70d62663a0d2dfc3c0b524b0b00c93715f2a84a53f162998b3342c4d564736f6c63430008000033",
					"opcodes": "PUSH1 0x80 PUSH1 0x40 MSTORE CALLVALUE DUP1 ISZERO PUSH2 0x10 JUMPI PUSH1 0x0 DUP1 REVERT JUMPDEST POP PUSH1 0x0 PUSH1 0x1 DUP2 SWAP1 SSTORE POP PUSH2 0x41 PUSH1 0x1 DUP1 PUSH20 0xB5DEA2661DFA4B8F0AAE8BC1F583369D927C3B06 PUSH1 0x3 PUSH2 0x46 PUSH1 0x20 SHL PUSH1 0x20 SHR JUMP JUMPDEST PUSH2 0x199 JUMP JUMPDEST PUSH1 0x40 MLOAD DUP1 PUSH1 0x80 ADD PUSH1 0x40 MSTORE DUP1 DUP6 DUP2 MSTORE PUSH1 0x20 ADD DUP5 DUP2 MSTORE PUSH1 0x20 ADD DUP4 PUSH20 0xFFFFFFFFFFFFFFFFFFFFFFFFFFFFFFFFFFFFFFFF AND DUP2 MSTORE PUSH1 0x20 ADD DUP3 DUP2 MSTORE POP PUSH1 0x0 DUP1 PUSH1 0x1 SLOAD DUP2 MSTORE PUSH1 0x20 ADD SWAP1 DUP2 MSTORE PUSH1 0x20 ADD PUSH1 0x0 KECCAK256 PUSH1 0x0 DUP3 ADD MLOAD DUP2 PUSH1 0x0 ADD SSTORE PUSH1 0x20 DUP3 ADD MLOAD DUP2 PUSH1 0x1 ADD SSTORE PUSH1 0x40 DUP3 ADD MLOAD DUP2 PUSH1 0x2 ADD PUSH1 0x0 PUSH2 0x100 EXP DUP2 SLOAD DUP2 PUSH20 0xFFFFFFFFFFFFFFFFFFFFFFFFFFFFFFFFFFFFFFFF MUL NOT AND SWAP1 DUP4 PUSH20 0xFFFFFFFFFFFFFFFFFFFFFFFFFFFFFFFFFFFFFFFF AND MUL OR SWAP1 SSTORE POP PUSH1 0x60 DUP3 ADD MLOAD DUP2 PUSH1 0x3 ADD SSTORE SWAP1 POP POP PUSH1 0x1 PUSH1 0x0 DUP2 SLOAD DUP1 SWAP3 SWAP2 SWAP1 PUSH2 0x10C SWAP1 PUSH2 0x121 JUMP JUMPDEST SWAP2 SWAP1 POP SSTORE POP POP POP POP POP JUMP JUMPDEST PUSH1 0x0 DUP2 SWAP1 POP SWAP2 SWAP1 POP JUMP JUMPDEST PUSH1 0x0 PUSH2 0x12C DUP3 PUSH2 0x117 JUMP JUMPDEST SWAP2 POP PUSH32 0xFFFFFFFFFFFFFFFFFFFFFFFFFFFFFFFFFFFFFFFFFFFFFFFFFFFFFFFFFFFFFFFF DUP3 EQ ISZERO PUSH2 0x15F JUMPI PUSH2 0x15E PUSH2 0x16A JUMP JUMPDEST JUMPDEST PUSH1 0x1 DUP3 ADD SWAP1 POP SWAP2 SWAP1 POP JUMP JUMPDEST PUSH32 0x4E487B7100000000000000000000000000000000000000000000000000000000 PUSH1 0x0 MSTORE PUSH1 0x11 PUSH1 0x4 MSTORE PUSH1 0x24 PUSH1 0x0 REVERT JUMPDEST PUSH2 0x14D7 DUP1 PUSH3 0x1A9 PUSH1 0x0 CODECOPY PUSH1 0x0 RETURN INVALID PUSH1 0x80 PUSH1 0x40 MSTORE CALLVALUE DUP1 ISZERO PUSH2 0x10 JUMPI PUSH1 0x0 DUP1 REVERT JUMPDEST POP PUSH1 0x4 CALLDATASIZE LT PUSH2 0x7D JUMPI PUSH1 0x0 CALLDATALOAD PUSH1 0xE0 SHR DUP1 PUSH4 0xB723A32C GT PUSH2 0x5B JUMPI DUP1 PUSH4 0xB723A32C EQ PUSH2 0xEF JUMPI DUP1 PUSH4 0xCAE455EE EQ PUSH2 0x11F JUMPI DUP1 PUSH4 0xDA35C664 EQ PUSH2 0x13B JUMPI DUP1 PUSH4 0xE9D6C6DA EQ PUSH2 0x159 JUMPI PUSH2 0x7D JUMP JUMPDEST DUP1 PUSH4 0x13CF08B EQ PUSH2 0x82 JUMPI DUP1 PUSH4 0x32FC40BE EQ PUSH2 0xB5 JUMPI DUP1 PUSH4 0x96CAABB8 EQ PUSH2 0xD3 JUMPI JUMPDEST PUSH1 0x0 DUP1 REVERT JUMPDEST PUSH2 0x9C PUSH1 0x4 DUP1 CALLDATASIZE SUB DUP2 ADD SWAP1 PUSH2 0x97 SWAP2 SWAP1 PUSH2 0xCDC JUMP JUMPDEST PUSH2 0x189 JUMP JUMPDEST PUSH1 0x40 MLOAD PUSH2 0xAC SWAP5 SWAP4 SWAP3 SWAP2 SWAP1 PUSH2 0xF6E JUMP JUMPDEST PUSH1 0x40 MLOAD DUP1 SWAP2 SUB SWAP1 RETURN JUMPDEST PUSH2 0xBD PUSH2 0x1D9 JUMP JUMPDEST PUSH1 0x40 MLOAD PUSH2 0xCA SWAP2 SWAP1 PUSH2 0xEF4 JUMP JUMPDEST PUSH1 0x40 MLOAD DUP1 SWAP2 SUB SWAP1 RETURN JUMPDEST PUSH2 0xED PUSH1 0x4 DUP1 CALLDATASIZE SUB DUP2 ADD SWAP1 PUSH2 0xE8 SWAP2 SWAP1 PUSH2 0xC9B JUMP JUMPDEST PUSH2 0x2B2 JUMP JUMPDEST STOP JUMPDEST PUSH2 0x109 PUSH1 0x4 DUP1 CALLDATASIZE SUB DUP2 ADD SWAP1 PUSH2 0x104 SWAP2 SWAP1 PUSH2 0xCDC JUMP JUMPDEST PUSH2 0x498 JUMP JUMPDEST PUSH1 0x40 MLOAD PUSH2 0x116 SWAP2 SWAP1 PUSH2 0xF16 JUMP JUMPDEST PUSH1 0x40 MLOAD DUP1 SWAP2 SUB SWAP1 RETURN JUMPDEST PUSH2 0x139 PUSH1 0x4 DUP1 CALLDATASIZE SUB DUP2 ADD SWAP1 PUSH2 0x134 SWAP2 SWAP1 PUSH2 0xD05 JUMP JUMPDEST PUSH2 0x544 JUMP JUMPDEST STOP JUMPDEST PUSH2 0x143 PUSH2 0x615 JUMP JUMPDEST PUSH1 0x40 MLOAD PUSH2 0x150 SWAP2 SWAP1 PUSH2 0xF53 JUMP JUMPDEST PUSH1 0x40 MLOAD DUP1 SWAP2 SUB SWAP1 RETURN JUMPDEST PUSH2 0x173 PUSH1 0x4 DUP1 CALLDATASIZE SUB DUP2 ADD SWAP1 PUSH2 0x16E SWAP2 SWAP1 PUSH2 0xCDC JUMP JUMPDEST PUSH2 0x61B JUMP JUMPDEST PUSH1 0x40 MLOAD PUSH2 0x180 SWAP2 SWAP1 PUSH2 0xF38 JUMP JUMPDEST PUSH1 0x40 MLOAD DUP1 SWAP2 SUB SWAP1 RETURN JUMPDEST PUSH1 0x0 PUSH1 0x20 MSTORE DUP1 PUSH1 0x0 MSTORE PUSH1 0x40 PUSH1 0x0 KECCAK256 PUSH1 0x0 SWAP2 POP SWAP1 POP DUP1 PUSH1 0x0 ADD SLOAD SWAP1 DUP1 PUSH1 0x1 ADD SLOAD SWAP1 DUP1 PUSH1 0x2 ADD PUSH1 0x0 SWAP1 SLOAD SWAP1 PUSH2 0x100 EXP SWAP1 DIV PUSH20 0xFFFFFFFFFFFFFFFFFFFFFFFFFFFFFFFFFFFFFFFF AND SWAP1 DUP1 PUSH1 0x3 ADD SLOAD SWAP1 POP DUP5 JUMP JUMPDEST PUSH1 0x60 PUSH1 0x2 DUP1 SLOAD DUP1 PUSH1 0x20 MUL PUSH1 0x20 ADD PUSH1 0x40 MLOAD SWAP1 DUP2 ADD PUSH1 0x40 MSTORE DUP1 SWAP3 SWAP2 SWAP1 DUP2 DUP2 MSTORE PUSH1 0x20 ADD PUSH1 0x0 SWAP1 JUMPDEST DUP3 DUP3 LT ISZERO PUSH2 0x2A9 JUMPI DUP4 DUP3 SWAP1 PUSH1 0x0 MSTORE PUSH1 0x20 PUSH1 0x0 KECCAK256 ADD DUP1 SLOAD PUSH2 0x21C SWAP1 PUSH2 0x134D JUMP JUMPDEST DUP1 PUSH1 0x1F ADD PUSH1 0x20 DUP1 SWAP2 DIV MUL PUSH1 0x20 ADD PUSH1 0x40 MLOAD SWAP1 DUP2 ADD PUSH1 0x40 MSTORE DUP1 SWAP3 SWAP2 SWAP1 DUP2 DUP2 MSTORE PUSH1 0x20 ADD DUP3 DUP1 SLOAD PUSH2 0x248 SWAP1 PUSH2 0x134D JUMP JUMPDEST DUP1 ISZERO PUSH2 0x295 JUMPI DUP1 PUSH1 0x1F LT PUSH2 0x26A JUMPI PUSH2 0x100 DUP1 DUP4 SLOAD DIV MUL DUP4 MSTORE SWAP2 PUSH1 0x20 ADD SWAP2 PUSH2 0x295 JUMP JUMPDEST DUP3 ADD SWAP2 SWAP1 PUSH1 0x0 MSTORE PUSH1 0x20 PUSH1 0x0 KECCAK256 SWAP1 JUMPDEST DUP2 SLOAD DUP2 MSTORE SWAP1 PUSH1 0x1 ADD SWAP1 PUSH1 0x20 ADD DUP1 DUP4 GT PUSH2 0x278 JUMPI DUP3 SWAP1 SUB PUSH1 0x1F AND DUP3 ADD SWAP2 JUMPDEST POP POP POP POP POP DUP2 MSTORE PUSH1 0x20 ADD SWAP1 PUSH1 0x1 ADD SWAP1 PUSH2 0x1FD JUMP JUMPDEST POP POP POP POP SWAP1 POP SWAP1 JUMP JUMPDEST PUSH1 0x0 PUSH2 0x2BD DUP3 PUSH2 0x6BB JUMP JUMPDEST SWAP1 POP PUSH1 0x0 PUSH2 0x2FF PUSH1 0x40 MLOAD DUP1 PUSH1 0x40 ADD PUSH1 0x40 MSTORE DUP1 PUSH1 0x1 DUP2 MSTORE PUSH1 0x20 ADD PUSH32 0x2D00000000000000000000000000000000000000000000000000000000000000 DUP2 MSTORE POP PUSH2 0x6BB JUMP JUMPDEST SWAP1 POP PUSH1 0x0 PUSH1 0x1 PUSH2 0x318 DUP4 DUP6 PUSH2 0x6E9 SWAP1 SWAP2 SWAP1 PUSH4 0xFFFFFFFF AND JUMP JUMPDEST PUSH2 0x322 SWAP2 SWAP1 PUSH2 0x107A JUMP JUMPDEST PUSH8 0xFFFFFFFFFFFFFFFF DUP2 GT ISZERO PUSH2 0x361 JUMPI PUSH32 0x4E487B7100000000000000000000000000000000000000000000000000000000 PUSH1 0x0 MSTORE PUSH1 0x41 PUSH1 0x4 MSTORE PUSH1 0x24 PUSH1 0x0 REVERT JUMPDEST PUSH1 0x40 MLOAD SWAP1 DUP1 DUP3 MSTORE DUP1 PUSH1 0x20 MUL PUSH1 0x20 ADD DUP3 ADD PUSH1 0x40 MSTORE DUP1 ISZERO PUSH2 0x394 JUMPI DUP2 PUSH1 0x20 ADD JUMPDEST PUSH1 0x60 DUP2 MSTORE PUSH1 0x20 ADD SWAP1 PUSH1 0x1 SWAP1 SUB SWAP1 DUP2 PUSH2 0x37F JUMPI SWAP1 POP JUMPDEST POP SWAP1 POP PUSH1 0x0 JUMPDEST DUP2 MLOAD DUP2 LT ISZERO PUSH2 0x491 JUMPI PUSH2 0x3BE PUSH2 0x3B9 DUP5 DUP7 PUSH2 0x791 SWAP1 SWAP2 SWAP1 PUSH4 0xFFFFFFFF AND JUMP JUMPDEST PUSH2 0x7AB JUMP JUMPDEST DUP3 DUP3 DUP2 MLOAD DUP2 LT PUSH2 0x3F7 JUMPI PUSH32 0x4E487B7100000000000000000000000000000000000000000000000000000000 PUSH1 0x0 MSTORE PUSH1 0x32 PUSH1 0x4 MSTORE PUSH1 0x24 PUSH1 0x0 REVERT JUMPDEST PUSH1 0x20 MUL PUSH1 0x20 ADD ADD DUP2 SWAP1 MSTORE POP PUSH1 0x2 DUP3 DUP3 DUP2 MLOAD DUP2 LT PUSH2 0x43D JUMPI PUSH32 0x4E487B7100000000000000000000000000000000000000000000000000000000 PUSH1 0x0 MSTORE PUSH1 0x32 PUSH1 0x4 MSTORE PUSH1 0x24 PUSH1 0x0 REVERT JUMPDEST PUSH1 0x20 MUL PUSH1 0x20 ADD ADD MLOAD SWAP1 DUP1 PUSH1 0x1 DUP2 SLOAD ADD DUP1 DUP3 SSTORE DUP1 SWAP2 POP POP PUSH1 0x1 SWAP1 SUB SWAP1 PUSH1 0x0 MSTORE PUSH1 0x20 PUSH1 0x0 KECCAK256 ADD PUSH1 0x0 SWAP1 SWAP2 SWAP1 SWAP2 SWAP1 SWAP2 POP SWAP1 DUP1 MLOAD SWAP1 PUSH1 0x20 ADD SWAP1 PUSH2 0x47D SWAP3 SWAP2 SWAP1 PUSH2 0xB0E JUMP JUMPDEST POP DUP1 DUP1 PUSH2 0x489 SWAP1 PUSH2 0x137F JUMP JUMPDEST SWAP2 POP POP PUSH2 0x39A JUMP JUMPDEST POP POP POP POP POP JUMP JUMPDEST PUSH1 0x2 DUP2 DUP2 SLOAD DUP2 LT PUSH2 0x4A8 JUMPI PUSH1 0x0 DUP1 REVERT JUMPDEST SWAP1 PUSH1 0x0 MSTORE PUSH1 0x20 PUSH1 0x0 KECCAK256 ADD PUSH1 0x0 SWAP2 POP SWAP1 POP DUP1 SLOAD PUSH2 0x4C3 SWAP1 PUSH2 0x134D JUMP JUMPDEST DUP1 PUSH1 0x1F ADD PUSH1 0x20 DUP1 SWAP2 DIV MUL PUSH1 0x20 ADD PUSH1 0x40 MLOAD SWAP1 DUP2 ADD PUSH1 0x40 MSTORE DUP1 SWAP3 SWAP2 SWAP1 DUP2 DUP2 MSTORE PUSH1 0x20 ADD DUP3 DUP1 SLOAD PUSH2 0x4EF SWAP1 PUSH2 0x134D JUMP JUMPDEST DUP1 ISZERO PUSH2 0x53C JUMPI DUP1 PUSH1 0x1F LT PUSH2 0x511 JUMPI PUSH2 0x100 DUP1 DUP4 SLOAD DIV MUL DUP4 MSTORE SWAP2 PUSH1 0x20 ADD SWAP2 PUSH2 0x53C JUMP JUMPDEST DUP3 ADD SWAP2 SWAP1 PUSH1 0x0 MSTORE PUSH1 0x20 PUSH1 0x0 KECCAK256 SWAP1 JUMPDEST DUP2 SLOAD DUP2 MSTORE SWAP1 PUSH1 0x1 ADD SWAP1 PUSH1 0x20 ADD DUP1 DUP4 GT PUSH2 0x51F JUMPI DUP3 SWAP1 SUB PUSH1 0x1F AND DUP3 ADD SWAP2 JUMPDEST POP POP POP POP POP DUP2 JUMP JUMPDEST PUSH1 0x40 MLOAD DUP1 PUSH1 0x80 ADD PUSH1 0x40 MSTORE DUP1 DUP6 DUP2 MSTORE PUSH1 0x20 ADD DUP5 DUP2 MSTORE PUSH1 0x20 ADD DUP4 PUSH20 0xFFFFFFFFFFFFFFFFFFFFFFFFFFFFFFFFFFFFFFFF AND DUP2 MSTORE PUSH1 0x20 ADD DUP3 DUP2 MSTORE POP PUSH1 0x0 DUP1 PUSH1 0x1 SLOAD DUP2 MSTORE PUSH1 0x20 ADD SWAP1 DUP2 MSTORE PUSH1 0x20 ADD PUSH1 0x0 KECCAK256 PUSH1 0x0 DUP3 ADD MLOAD DUP2 PUSH1 0x0 ADD SSTORE PUSH1 0x20 DUP3 ADD MLOAD DUP2 PUSH1 0x1 ADD SSTORE PUSH1 0x40 DUP3 ADD MLOAD DUP2 PUSH1 0x2 ADD PUSH1 0x0 PUSH2 0x100 EXP DUP2 SLOAD DUP2 PUSH20 0xFFFFFFFFFFFFFFFFFFFFFFFFFFFFFFFFFFFFFFFF MUL NOT AND SWAP1 DUP4 PUSH20 0xFFFFFFFFFFFFFFFFFFFFFFFFFFFFFFFFFFFFFFFF AND MUL OR SWAP1 SSTORE POP PUSH1 0x60 DUP3 ADD MLOAD DUP2 PUSH1 0x3 ADD SSTORE SWAP1 POP POP PUSH1 0x1 PUSH1 0x0 DUP2 SLOAD DUP1 SWAP3 SWAP2 SWAP1 PUSH2 0x60A SWAP1 PUSH2 0x137F JUMP JUMPDEST SWAP2 SWAP1 POP SSTORE POP POP POP POP POP JUMP JUMPDEST PUSH1 0x1 SLOAD DUP2 JUMP JUMPDEST PUSH2 0x623 PUSH2 0xB94 JUMP JUMPDEST PUSH1 0x0 DUP1 DUP4 DUP2 MSTORE PUSH1 0x20 ADD SWAP1 DUP2 MSTORE PUSH1 0x20 ADD PUSH1 0x0 KECCAK256 PUSH1 0x40 MLOAD DUP1 PUSH1 0x80 ADD PUSH1 0x40 MSTORE SWAP1 DUP2 PUSH1 0x0 DUP3 ADD SLOAD DUP2 MSTORE PUSH1 0x20 ADD PUSH1 0x1 DUP3 ADD SLOAD DUP2 MSTORE PUSH1 0x20 ADD PUSH1 0x2 DUP3 ADD PUSH1 0x0 SWAP1 SLOAD SWAP1 PUSH2 0x100 EXP SWAP1 DIV PUSH20 0xFFFFFFFFFFFFFFFFFFFFFFFFFFFFFFFFFFFFFFFF AND PUSH20 0xFFFFFFFFFFFFFFFFFFFFFFFFFFFFFFFFFFFFFFFF AND PUSH20 0xFFFFFFFFFFFFFFFFFFFFFFFFFFFFFFFFFFFFFFFF AND DUP2 MSTORE PUSH1 0x20 ADD PUSH1 0x3 DUP3 ADD SLOAD DUP2 MSTORE POP POP SWAP1 POP SWAP2 SWAP1 POP JUMP JUMPDEST PUSH2 0x6C3 PUSH2 0xBD2 JUMP JUMPDEST PUSH1 0x0 PUSH1 0x20 DUP4 ADD SWAP1 POP PUSH1 0x40 MLOAD DUP1 PUSH1 0x40 ADD PUSH1 0x40 MSTORE DUP1 DUP5 MLOAD DUP2 MSTORE PUSH1 0x20 ADD DUP3 DUP2 MSTORE POP SWAP2 POP POP SWAP2 SWAP1 POP JUMP JUMPDEST PUSH1 0x0 DUP1 DUP3 PUSH1 0x0 ADD MLOAD PUSH2 0x70D DUP6 PUSH1 0x0 ADD MLOAD DUP7 PUSH1 0x20 ADD MLOAD DUP7 PUSH1 0x0 ADD MLOAD DUP8 PUSH1 0x20 ADD MLOAD PUSH2 0x84D JUMP JUMPDEST PUSH2 0x717 SWAP2 SWAP1 PUSH2 0x107A JUMP JUMPDEST SWAP1 POP JUMPDEST DUP4 PUSH1 0x0 ADD MLOAD DUP5 PUSH1 0x20 ADD MLOAD PUSH2 0x72E SWAP2 SWAP1 PUSH2 0x107A JUMP JUMPDEST DUP2 GT PUSH2 0x78A JUMPI DUP2 DUP1 PUSH2 0x73F SWAP1 PUSH2 0x137F JUMP JUMPDEST SWAP3 POP POP DUP3 PUSH1 0x0 ADD MLOAD PUSH2 0x779 DUP6 PUSH1 0x20 ADD MLOAD DUP4 PUSH2 0x75A SWAP2 SWAP1 PUSH2 0x129B JUMP JUMPDEST DUP7 PUSH1 0x0 ADD MLOAD PUSH2 0x769 SWAP2 SWAP1 PUSH2 0x129B JUMP JUMPDEST DUP4 DUP7 PUSH1 0x0 ADD MLOAD DUP8 PUSH1 0x20 ADD MLOAD PUSH2 0x84D JUMP JUMPDEST PUSH2 0x783 SWAP2 SWAP1 PUSH2 0x107A JUMP JUMPDEST SWAP1 POP PUSH2 0x71A JUMP JUMPDEST POP SWAP3 SWAP2 POP POP JUMP JUMPDEST PUSH2 0x799 PUSH2 0xBD2 JUMP JUMPDEST PUSH2 0x7A4 DUP4 DUP4 DUP4 PUSH2 0x997 JUMP JUMPDEST POP SWAP3 SWAP2 POP POP JUMP JUMPDEST PUSH1 0x60 PUSH1 0x0 DUP3 PUSH1 0x0 ADD MLOAD PUSH8 0xFFFFFFFFFFFFFFFF DUP2 GT ISZERO PUSH2 0x7F3 JUMPI PUSH32 0x4E487B7100000000000000000000000000000000000000000000000000000000 PUSH1 0x0 MSTORE PUSH1 0x41 PUSH1 0x4 MSTORE PUSH1 0x24 PUSH1 0x0 REVERT JUMPDEST PUSH1 0x40 MLOAD SWAP1 DUP1 DUP3 MSTORE DUP1 PUSH1 0x1F ADD PUSH1 0x1F NOT AND PUSH1 0x20 ADD DUP3 ADD PUSH1 0x40 MSTORE DUP1 ISZERO PUSH2 0x825 JUMPI DUP2 PUSH1 0x20 ADD PUSH1 0x1 DUP3 MUL DUP1 CALLDATASIZE DUP4 CALLDATACOPY DUP1 DUP3 ADD SWAP2 POP POP SWAP1 POP JUMPDEST POP SWAP1 POP PUSH1 0x0 PUSH1 0x20 DUP3 ADD SWAP1 POP PUSH2 0x843 DUP2 DUP6 PUSH1 0x20 ADD MLOAD DUP7 PUSH1 0x0 ADD MLOAD PUSH2 0xA62 JUMP JUMPDEST DUP2 SWAP3 POP POP POP SWAP2 SWAP1 POP JUMP JUMPDEST PUSH1 0x0 DUP1 DUP5 SWAP1 POP PUSH1 0x0 DUP7 DUP6 GT PUSH2 0x97E JUMPI PUSH1 0x20 DUP6 GT PUSH2 0x920 JUMPI PUSH1 0x0 DUP1 DUP7 GT ISZERO PUSH2 0x8A6 JUMPI PUSH1 0x1 DUP7 PUSH1 0x20 PUSH2 0x87D SWAP2 SWAP1 PUSH2 0x129B JUMP JUMPDEST PUSH1 0x8 PUSH2 0x889 SWAP2 SWAP1 PUSH2 0x1241 JUMP JUMPDEST PUSH1 0x2 PUSH2 0x895 SWAP2 SWAP1 PUSH2 0x1123 JUMP JUMPDEST PUSH2 0x89F SWAP2 SWAP1 PUSH2 0x129B JUMP JUMPDEST NOT PUSH1 0x0 SHL SWAP1 POP JUMPDEST PUSH1 0x0 DUP2 DUP7 MLOAD AND SWAP1 POP PUSH1 0x0 DUP8 DUP11 DUP11 PUSH2 0x8BD SWAP2 SWAP1 PUSH2 0x107A JUMP JUMPDEST PUSH2 0x8C7 SWAP2 SWAP1 PUSH2 0x129B JUMP JUMPDEST SWAP1 POP PUSH1 0x0 DUP4 DUP7 MLOAD AND SWAP1 POP JUMPDEST DUP3 DUP2 EQ PUSH2 0x912 JUMPI DUP2 DUP7 LT PUSH2 0x8F9 JUMPI DUP11 DUP11 PUSH2 0x8EC SWAP2 SWAP1 PUSH2 0x107A JUMP JUMPDEST SWAP7 POP POP POP POP POP POP POP PUSH2 0x98F JUMP JUMPDEST DUP6 DUP1 PUSH2 0x904 SWAP1 PUSH2 0x137F JUMP JUMPDEST SWAP7 POP POP DUP4 DUP7 MLOAD AND SWAP1 POP PUSH2 0x8D2 JUMP JUMPDEST DUP6 SWAP7 POP POP POP POP POP POP POP PUSH2 0x98F JUMP JUMPDEST PUSH1 0x0 DUP6 DUP6 KECCAK256 SWAP1 POP PUSH1 0x0 SWAP2 POP JUMPDEST DUP6 DUP9 PUSH2 0x938 SWAP2 SWAP1 PUSH2 0x129B JUMP JUMPDEST DUP3 GT PUSH2 0x97C JUMPI PUSH1 0x0 DUP7 DUP5 KECCAK256 SWAP1 POP DUP1 DUP3 EQ ISZERO PUSH2 0x959 JUMPI DUP4 SWAP5 POP POP POP POP POP PUSH2 0x98F JUMP JUMPDEST PUSH1 0x1 DUP5 PUSH2 0x966 SWAP2 SWAP1 PUSH2 0x107A JUMP JUMPDEST SWAP4 POP POP DUP2 DUP1 PUSH2 0x974 SWAP1 PUSH2 0x137F JUMP JUMPDEST SWAP3 POP POP PUSH2 0x92C JUMP JUMPDEST POP JUMPDEST DUP7 DUP7 PUSH2 0x98A SWAP2 SWAP1 PUSH2 0x107A JUMP JUMPDEST SWAP3 POP POP POP JUMPDEST SWAP5 SWAP4 POP POP POP POP JUMP JUMPDEST PUSH2 0x99F PUSH2 0xBD2 JUMP JUMPDEST PUSH1 0x0 PUSH2 0x9BD DUP6 PUSH1 0x0 ADD MLOAD DUP7 PUSH1 0x20 ADD MLOAD DUP7 PUSH1 0x0 ADD MLOAD DUP8 PUSH1 0x20 ADD MLOAD PUSH2 0x84D JUMP JUMPDEST SWAP1 POP DUP5 PUSH1 0x20 ADD MLOAD DUP4 PUSH1 0x20 ADD DUP2 DUP2 MSTORE POP POP DUP5 PUSH1 0x20 ADD MLOAD DUP2 PUSH2 0x9DD SWAP2 SWAP1 PUSH2 0x129B JUMP JUMPDEST DUP4 PUSH1 0x0 ADD DUP2 DUP2 MSTORE POP POP DUP5 PUSH1 0x0 ADD MLOAD DUP6 PUSH1 0x20 ADD MLOAD PUSH2 0x9FA SWAP2 SWAP1 PUSH2 0x107A JUMP JUMPDEST DUP2 EQ ISZERO PUSH2 0xA11 JUMPI PUSH1 0x0 DUP6 PUSH1 0x0 ADD DUP2 DUP2 MSTORE POP POP PUSH2 0xA57 JUMP JUMPDEST DUP4 PUSH1 0x0 ADD MLOAD DUP4 PUSH1 0x0 ADD MLOAD PUSH2 0xA25 SWAP2 SWAP1 PUSH2 0x107A JUMP JUMPDEST DUP6 PUSH1 0x0 ADD DUP2 DUP2 MLOAD PUSH2 0xA36 SWAP2 SWAP1 PUSH2 0x129B JUMP JUMPDEST SWAP2 POP DUP2 DUP2 MSTORE POP POP DUP4 PUSH1 0x0 ADD MLOAD DUP2 PUSH2 0xA4D SWAP2 SWAP1 PUSH2 0x107A JUMP JUMPDEST DUP6 PUSH1 0x20 ADD DUP2 DUP2 MSTORE POP POP JUMPDEST DUP3 SWAP2 POP POP SWAP4 SWAP3 POP POP POP JUMP JUMPDEST JUMPDEST PUSH1 0x20 DUP2 LT PUSH2 0xAA1 JUMPI DUP2 MLOAD DUP4 MSTORE PUSH1 0x20 DUP4 PUSH2 0xA7C SWAP2 SWAP1 PUSH2 0x107A JUMP JUMPDEST SWAP3 POP PUSH1 0x20 DUP3 PUSH2 0xA8B SWAP2 SWAP1 PUSH2 0x107A JUMP JUMPDEST SWAP2 POP PUSH1 0x20 DUP2 PUSH2 0xA9A SWAP2 SWAP1 PUSH2 0x129B JUMP JUMPDEST SWAP1 POP PUSH2 0xA63 JUMP JUMPDEST PUSH1 0x0 PUSH32 0xFFFFFFFFFFFFFFFFFFFFFFFFFFFFFFFFFFFFFFFFFFFFFFFFFFFFFFFFFFFFFFFF SWAP1 POP PUSH1 0x0 DUP3 GT ISZERO PUSH2 0xAF8 JUMPI PUSH1 0x1 DUP3 PUSH1 0x20 PUSH2 0xADE SWAP2 SWAP1 PUSH2 0x129B JUMP JUMPDEST PUSH2 0x100 PUSH2 0xAEB SWAP2 SWAP1 PUSH2 0x1123 JUMP JUMPDEST PUSH2 0xAF5 SWAP2 SWAP1 PUSH2 0x129B JUMP JUMPDEST SWAP1 POP JUMPDEST DUP1 NOT DUP4 MLOAD AND DUP2 DUP6 MLOAD AND DUP2 DUP2 OR DUP7 MSTORE POP POP POP POP POP POP JUMP JUMPDEST DUP3 DUP1 SLOAD PUSH2 0xB1A SWAP1 PUSH2 0x134D JUMP JUMPDEST SWAP1 PUSH1 0x0 MSTORE PUSH1 0x20 PUSH1 0x0 KECCAK256 SWAP1 PUSH1 0x1F ADD PUSH1 0x20 SWAP1 DIV DUP2 ADD SWAP3 DUP3 PUSH2 0xB3C JUMPI PUSH1 0x0 DUP6 SSTORE PUSH2 0xB83 JUMP JUMPDEST DUP3 PUSH1 0x1F LT PUSH2 0xB55 JUMPI DUP1 MLOAD PUSH1 0xFF NOT AND DUP4 DUP1 ADD OR DUP6 SSTORE PUSH2 0xB83 JUMP JUMPDEST DUP3 DUP1 ADD PUSH1 0x1 ADD DUP6 SSTORE DUP3 ISZERO PUSH2 0xB83 JUMPI SWAP2 DUP3 ADD JUMPDEST DUP3 DUP2 GT ISZERO PUSH2 0xB82 JUMPI DUP3 MLOAD DUP3 SSTORE SWAP2 PUSH1 0x20 ADD SWAP2 SWAP1 PUSH1 0x1 ADD SWAP1 PUSH2 0xB67 JUMP JUMPDEST JUMPDEST POP SWAP1 POP PUSH2 0xB90 SWAP2 SWAP1 PUSH2 0xBEC JUMP JUMPDEST POP SWAP1 JUMP JUMPDEST PUSH1 0x40 MLOAD DUP1 PUSH1 0x80 ADD PUSH1 0x40 MSTORE DUP1 PUSH1 0x0 DUP2 MSTORE PUSH1 0x20 ADD PUSH1 0x0 DUP2 MSTORE PUSH1 0x20 ADD PUSH1 0x0 PUSH20 0xFFFFFFFFFFFFFFFFFFFFFFFFFFFFFFFFFFFFFFFF AND DUP2 MSTORE PUSH1 0x20 ADD PUSH1 0x0 DUP2 MSTORE POP SWAP1 JUMP JUMPDEST PUSH1 0x40 MLOAD DUP1 PUSH1 0x40 ADD PUSH1 0x40 MSTORE DUP1 PUSH1 0x0 DUP2 MSTORE PUSH1 0x20 ADD PUSH1 0x0 DUP2 MSTORE POP SWAP1 JUMP JUMPDEST JUMPDEST DUP1 DUP3 GT ISZERO PUSH2 0xC05 JUMPI PUSH1 0x0 DUP2 PUSH1 0x0 SWAP1 SSTORE POP PUSH1 0x1 ADD PUSH2 0xBED JUMP JUMPDEST POP SWAP1 JUMP JUMPDEST PUSH1 0x0 PUSH2 0xC1C PUSH2 0xC17 DUP5 PUSH2 0xFE4 JUMP JUMPDEST PUSH2 0xFB3 JUMP JUMPDEST SWAP1 POP DUP3 DUP2 MSTORE PUSH1 0x20 DUP2 ADD DUP5 DUP5 DUP5 ADD GT ISZERO PUSH2 0xC34 JUMPI PUSH1 0x0 DUP1 REVERT JUMPDEST PUSH2 0xC3F DUP5 DUP3 DUP6 PUSH2 0x130B JUMP JUMPDEST POP SWAP4 SWAP3 POP POP POP JUMP JUMPDEST PUSH1 0x0 DUP2 CALLDATALOAD SWAP1 POP PUSH2 0xC56 DUP2 PUSH2 0x1473 JUMP JUMPDEST SWAP3 SWAP2 POP POP JUMP JUMPDEST PUSH1 0x0 DUP3 PUSH1 0x1F DUP4 ADD SLT PUSH2 0xC6D JUMPI PUSH1 0x0 DUP1 REVERT JUMPDEST DUP2 CALLDATALOAD PUSH2 0xC7D DUP5 DUP3 PUSH1 0x20 DUP7 ADD PUSH2 0xC09 JUMP JUMPDEST SWAP2 POP POP SWAP3 SWAP2 POP POP JUMP JUMPDEST PUSH1 0x0 DUP2 CALLDATALOAD SWAP1 POP PUSH2 0xC95 DUP2 PUSH2 0x148A JUMP JUMPDEST SWAP3 SWAP2 POP POP JUMP JUMPDEST PUSH1 0x0 PUSH1 0x20 DUP3 DUP5 SUB SLT ISZERO PUSH2 0xCAD JUMPI PUSH1 0x0 DUP1 REVERT JUMPDEST PUSH1 0x0 DUP3 ADD CALLDATALOAD PUSH8 0xFFFFFFFFFFFFFFFF DUP2 GT ISZERO PUSH2 0xCC7 JUMPI PUSH1 0x0 DUP1 REVERT JUMPDEST PUSH2 0xCD3 DUP5 DUP3 DUP6 ADD PUSH2 0xC5C JUMP JUMPDEST SWAP2 POP POP SWAP3 SWAP2 POP POP JUMP JUMPDEST PUSH1 0x0 PUSH1 0x20 DUP3 DUP5 SUB SLT ISZERO PUSH2 0xCEE JUMPI PUSH1 0x0 DUP1 REVERT JUMPDEST PUSH1 0x0 PUSH2 0xCFC DUP5 DUP3 DUP6 ADD PUSH2 0xC86 JUMP JUMPDEST SWAP2 POP POP SWAP3 SWAP2 POP POP JUMP JUMPDEST PUSH1 0x0 DUP1 PUSH1 0x0 DUP1 PUSH1 0x80 DUP6 DUP8 SUB SLT ISZERO PUSH2 0xD1B JUMPI PUSH1 0x0 DUP1 REVERT JUMPDEST PUSH1 0x0 PUSH2 0xD29 DUP8 DUP3 DUP9 ADD PUSH2 0xC86 JUMP JUMPDEST SWAP5 POP POP PUSH1 0x20 PUSH2 0xD3A DUP8 DUP3 DUP9 ADD PUSH2 0xC86 JUMP JUMPDEST SWAP4 POP POP PUSH1 0x40 PUSH2 0xD4B DUP8 DUP3 DUP9 ADD PUSH2 0xC47 JUMP JUMPDEST SWAP3 POP POP PUSH1 0x60 PUSH2 0xD5C DUP8 DUP3 DUP9 ADD PUSH2 0xC86 JUMP JUMPDEST SWAP2 POP POP SWAP3 SWAP6 SWAP2 SWAP5 POP SWAP3 POP JUMP JUMPDEST PUSH1 0x0 PUSH2 0xD74 DUP4 DUP4 PUSH2 0xE0F JUMP JUMPDEST SWAP1 POP SWAP3 SWAP2 POP POP JUMP JUMPDEST PUSH2 0xD85 DUP2 PUSH2 0x12CF JUMP JUMPDEST DUP3 MSTORE POP POP JUMP JUMPDEST PUSH2 0xD94 DUP2 PUSH2 0x12CF JUMP JUMPDEST DUP3 MSTORE POP POP JUMP JUMPDEST PUSH1 0x0 PUSH2 0xDA5 DUP3 PUSH2 0x1024 JUMP JUMPDEST PUSH2 0xDAF DUP2 DUP6 PUSH2 0x1047 JUMP JUMPDEST SWAP4 POP DUP4 PUSH1 0x20 DUP3 MUL DUP6 ADD PUSH2 0xDC1 DUP6 PUSH2 0x1014 JUMP JUMPDEST DUP1 PUSH1 0x0 JUMPDEST DUP6 DUP2 LT ISZERO PUSH2 0xDFD JUMPI DUP5 DUP5 SUB DUP10 MSTORE DUP2 MLOAD PUSH2 0xDDE DUP6 DUP3 PUSH2 0xD68 JUMP JUMPDEST SWAP5 POP PUSH2 0xDE9 DUP4 PUSH2 0x103A JUMP JUMPDEST SWAP3 POP PUSH1 0x20 DUP11 ADD SWAP10 POP POP PUSH1 0x1 DUP2 ADD SWAP1 POP PUSH2 0xDC5 JUMP JUMPDEST POP DUP3 SWAP8 POP DUP8 SWAP6 POP POP POP POP POP POP SWAP3 SWAP2 POP POP JUMP JUMPDEST PUSH1 0x0 PUSH2 0xE1A DUP3 PUSH2 0x102F JUMP JUMPDEST PUSH2 0xE24 DUP2 DUP6 PUSH2 0x1058 JUMP JUMPDEST SWAP4 POP PUSH2 0xE34 DUP2 DUP6 PUSH1 0x20 DUP7 ADD PUSH2 0x131A JUMP JUMPDEST PUSH2 0xE3D DUP2 PUSH2 0x1455 JUMP JUMPDEST DUP5 ADD SWAP2 POP POP SWAP3 SWAP2 POP POP JUMP JUMPDEST PUSH1 0x0 PUSH2 0xE53 DUP3 PUSH2 0x102F JUMP JUMPDEST PUSH2 0xE5D DUP2 DUP6 PUSH2 0x1069 JUMP JUMPDEST SWAP4 POP PUSH2 0xE6D DUP2 DUP6 PUSH1 0x20 DUP7 ADD PUSH2 0x131A JUMP JUMPDEST PUSH2 0xE76 DUP2 PUSH2 0x1455 JUMP JUMPDEST DUP5 ADD SWAP2 POP POP SWAP3 SWAP2 POP POP JUMP JUMPDEST PUSH1 0x80 DUP3 ADD PUSH1 0x0 DUP3 ADD MLOAD PUSH2 0xE97 PUSH1 0x0 DUP6 ADD DUP3 PUSH2 0xED6 JUMP JUMPDEST POP PUSH1 0x20 DUP3 ADD MLOAD PUSH2 0xEAA PUSH1 0x20 DUP6 ADD DUP3 PUSH2 0xED6 JUMP JUMPDEST POP PUSH1 0x40 DUP3 ADD MLOAD PUSH2 0xEBD PUSH1 0x40 DUP6 ADD DUP3 PUSH2 0xD7C JUMP JUMPDEST POP PUSH1 0x60 DUP3 ADD MLOAD PUSH2 0xED0 PUSH1 0x60 DUP6 ADD DUP3 PUSH2 0xED6 JUMP JUMPDEST POP POP POP POP JUMP JUMPDEST PUSH2 0xEDF DUP2 PUSH2 0x1301 JUMP JUMPDEST DUP3 MSTORE POP POP JUMP JUMPDEST PUSH2 0xEEE DUP2 PUSH2 0x1301 JUMP JUMPDEST DUP3 MSTORE POP POP JUMP JUMPDEST PUSH1 0x0 PUSH1 0x20 DUP3 ADD SWAP1 POP DUP2 DUP2 SUB PUSH1 0x0 DUP4 ADD MSTORE PUSH2 0xF0E DUP2 DUP5 PUSH2 0xD9A JUMP JUMPDEST SWAP1 POP SWAP3 SWAP2 POP POP JUMP JUMPDEST PUSH1 0x0 PUSH1 0x20 DUP3 ADD SWAP1 POP DUP2 DUP2 SUB PUSH1 0x0 DUP4 ADD MSTORE PUSH2 0xF30 DUP2 DUP5 PUSH2 0xE48 JUMP JUMPDEST SWAP1 POP SWAP3 SWAP2 POP POP JUMP JUMPDEST PUSH1 0x0 PUSH1 0x80 DUP3 ADD SWAP1 POP PUSH2 0xF4D PUSH1 0x0 DUP4 ADD DUP5 PUSH2 0xE81 JUMP JUMPDEST SWAP3 SWAP2 POP POP JUMP JUMPDEST PUSH1 0x0 PUSH1 0x20 DUP3 ADD SWAP1 POP PUSH2 0xF68 PUSH1 0x0 DUP4 ADD DUP5 PUSH2 0xEE5 JUMP JUMPDEST SWAP3 SWAP2 POP POP JUMP JUMPDEST PUSH1 0x0 PUSH1 0x80 DUP3 ADD SWAP1 POP PUSH2 0xF83 PUSH1 0x0 DUP4 ADD DUP8 PUSH2 0xEE5 JUMP JUMPDEST PUSH2 0xF90 PUSH1 0x20 DUP4 ADD DUP7 PUSH2 0xEE5 JUMP JUMPDEST PUSH2 0xF9D PUSH1 0x40 DUP4 ADD DUP6 PUSH2 0xD8B JUMP JUMPDEST PUSH2 0xFAA PUSH1 0x60 DUP4 ADD DUP5 PUSH2 0xEE5 JUMP JUMPDEST SWAP6 SWAP5 POP POP POP POP POP JUMP JUMPDEST PUSH1 0x0 PUSH1 0x40 MLOAD SWAP1 POP DUP2 DUP2 ADD DUP2 DUP2 LT PUSH8 0xFFFFFFFFFFFFFFFF DUP3 GT OR ISZERO PUSH2 0xFDA JUMPI PUSH2 0xFD9 PUSH2 0x1426 JUMP JUMPDEST JUMPDEST DUP1 PUSH1 0x40 MSTORE POP SWAP2 SWAP1 POP JUMP JUMPDEST PUSH1 0x0 PUSH8 0xFFFFFFFFFFFFFFFF DUP3 GT ISZERO PUSH2 0xFFF JUMPI PUSH2 0xFFE PUSH2 0x1426 JUMP JUMPDEST JUMPDEST PUSH1 0x1F NOT PUSH1 0x1F DUP4 ADD AND SWAP1 POP PUSH1 0x20 DUP2 ADD SWAP1 POP SWAP2 SWAP1 POP JUMP JUMPDEST PUSH1 0x0 DUP2 SWAP1 POP PUSH1 0x20 DUP3 ADD SWAP1 POP SWAP2 SWAP1 POP JUMP JUMPDEST PUSH1 0x0 DUP2 MLOAD SWAP1 POP SWAP2 SWAP1 POP JUMP JUMPDEST PUSH1 0x0 DUP2 MLOAD SWAP1 POP SWAP2 SWAP1 POP JUMP JUMPDEST PUSH1 0x0 PUSH1 0x20 DUP3 ADD SWAP1 POP SWAP2 SWAP1 POP JUMP JUMPDEST PUSH1 0x0 DUP3 DUP3 MSTORE PUSH1 0x20 DUP3 ADD SWAP1 POP SWAP3 SWAP2 POP POP JUMP JUMPDEST PUSH1 0x0 DUP3 DUP3 MSTORE PUSH1 0x20 DUP3 ADD SWAP1 POP SWAP3 SWAP2 POP POP JUMP JUMPDEST PUSH1 0x0 DUP3 DUP3 MSTORE PUSH1 0x20 DUP3 ADD SWAP1 POP SWAP3 SWAP2 POP POP JUMP JUMPDEST PUSH1 0x0 PUSH2 0x1085 DUP3 PUSH2 0x1301 JUMP JUMPDEST SWAP2 POP PUSH2 0x1090 DUP4 PUSH2 0x1301 JUMP JUMPDEST SWAP3 POP DUP3 PUSH32 0xFFFFFFFFFFFFFFFFFFFFFFFFFFFFFFFFFFFFFFFFFFFFFFFFFFFFFFFFFFFFFFFF SUB DUP3 GT ISZERO PUSH2 0x10C5 JUMPI PUSH2 0x10C4 PUSH2 0x13C8 JUMP JUMPDEST JUMPDEST DUP3 DUP3 ADD SWAP1 POP SWAP3 SWAP2 POP POP JUMP JUMPDEST PUSH1 0x0 DUP1 DUP3 SWAP2 POP DUP4 SWAP1 POP JUMPDEST PUSH1 0x1 DUP6 GT ISZERO PUSH2 0x111A JUMPI DUP1 DUP7 DIV DUP2 GT ISZERO PUSH2 0x10F6 JUMPI PUSH2 0x10F5 PUSH2 0x13C8 JUMP JUMPDEST JUMPDEST PUSH1 0x1 DUP6 AND ISZERO PUSH2 0x1105 JUMPI DUP1 DUP3 MUL SWAP2 POP JUMPDEST DUP1 DUP2 MUL SWAP1 POP PUSH2 0x1113 DUP6 PUSH2 0x1466 JUMP JUMPDEST SWAP5 POP PUSH2 0x10DA JUMP JUMPDEST SWAP5 POP SWAP5 SWAP3 POP POP POP JUMP JUMPDEST PUSH1 0x0 PUSH2 0x112E DUP3 PUSH2 0x1301 JUMP JUMPDEST SWAP2 POP PUSH2 0x1139 DUP4 PUSH2 0x1301 JUMP JUMPDEST SWAP3 POP PUSH2 0x1166 PUSH32 0xFFFFFFFFFFFFFFFFFFFFFFFFFFFFFFFFFFFFFFFFFFFFFFFFFFFFFFFFFFFFFFFF DUP5 DUP5 PUSH2 0x116E JUMP JUMPDEST SWAP1 POP SWAP3 SWAP2 POP POP JUMP JUMPDEST PUSH1 0x0 DUP3 PUSH2 0x117E JUMPI PUSH1 0x1 SWAP1 POP PUSH2 0x123A JUMP JUMPDEST DUP2 PUSH2 0x118C JUMPI PUSH1 0x0 SWAP1 POP PUSH2 0x123A JUMP JUMPDEST DUP2 PUSH1 0x1 DUP2 EQ PUSH2 0x11A2 JUMPI PUSH1 0x2 DUP2 EQ PUSH2 0x11AC JUMPI PUSH2 0x11DB JUMP JUMPDEST PUSH1 0x1 SWAP2 POP POP PUSH2 0x123A JUMP JUMPDEST PUSH1 0xFF DUP5 GT ISZERO PUSH2 0x11BE JUMPI PUSH2 0x11BD PUSH2 0x13C8 JUMP JUMPDEST JUMPDEST DUP4 PUSH1 0x2 EXP SWAP2 POP DUP5 DUP3 GT ISZERO PUSH2 0x11D5 JUMPI PUSH2 0x11D4 PUSH2 0x13C8 JUMP JUMPDEST JUMPDEST POP PUSH2 0x123A JUMP JUMPDEST POP PUSH1 0x20 DUP4 LT PUSH2 0x133 DUP4 LT AND PUSH1 0x4E DUP5 LT PUSH1 0xB DUP5 LT AND OR ISZERO PUSH2 0x1210 JUMPI DUP3 DUP3 EXP SWAP1 POP DUP4 DUP2 GT ISZERO PUSH2 0x120B JUMPI PUSH2 0x120A PUSH2 0x13C8 JUMP JUMPDEST JUMPDEST PUSH2 0x123A JUMP JUMPDEST PUSH2 0x121D DUP5 DUP5 DUP5 PUSH1 0x1 PUSH2 0x10D0 JUMP JUMPDEST SWAP3 POP SWAP1 POP DUP2 DUP5 DIV DUP2 GT ISZERO PUSH2 0x1234 JUMPI PUSH2 0x1233 PUSH2 0x13C8 JUMP JUMPDEST JUMPDEST DUP2 DUP2 MUL SWAP1 POP JUMPDEST SWAP4 SWAP3 POP POP POP JUMP JUMPDEST PUSH1 0x0 PUSH2 0x124C DUP3 PUSH2 0x1301 JUMP JUMPDEST SWAP2 POP PUSH2 0x1257 DUP4 PUSH2 0x1301 JUMP JUMPDEST SWAP3 POP DUP2 PUSH32 0xFFFFFFFFFFFFFFFFFFFFFFFFFFFFFFFFFFFFFFFFFFFFFFFFFFFFFFFFFFFFFFFF DIV DUP4 GT DUP3 ISZERO ISZERO AND ISZERO PUSH2 0x1290 JUMPI PUSH2 0x128F PUSH2 0x13C8 JUMP JUMPDEST JUMPDEST DUP3 DUP3 MUL SWAP1 POP SWAP3 SWAP2 POP POP JUMP JUMPDEST PUSH1 0x0 PUSH2 0x12A6 DUP3 PUSH2 0x1301 JUMP JUMPDEST SWAP2 POP PUSH2 0x12B1 DUP4 PUSH2 0x1301 JUMP JUMPDEST SWAP3 POP DUP3 DUP3 LT ISZERO PUSH2 0x12C4 JUMPI PUSH2 0x12C3 PUSH2 0x13C8 JUMP JUMPDEST JUMPDEST DUP3 DUP3 SUB SWAP1 POP SWAP3 SWAP2 POP POP JUMP JUMPDEST PUSH1 0x0 PUSH2 0x12DA DUP3 PUSH2 0x12E1 JUMP JUMPDEST SWAP1 POP SWAP2 SWAP1 POP JUMP JUMPDEST PUSH1 0x0 PUSH20 0xFFFFFFFFFFFFFFFFFFFFFFFFFFFFFFFFFFFFFFFF DUP3 AND SWAP1 POP SWAP2 SWAP1 POP JUMP JUMPDEST PUSH1 0x0 DUP2 SWAP1 POP SWAP2 SWAP1 POP JUMP JUMPDEST DUP3 DUP2 DUP4 CALLDATACOPY PUSH1 0x0 DUP4 DUP4 ADD MSTORE POP POP POP JUMP JUMPDEST PUSH1 0x0 JUMPDEST DUP4 DUP2 LT ISZERO PUSH2 0x1338 JUMPI DUP1 DUP3 ADD MLOAD DUP2 DUP5 ADD MSTORE PUSH1 0x20 DUP2 ADD SWAP1 POP PUSH2 0x131D JUMP JUMPDEST DUP4 DUP2 GT ISZERO PUSH2 0x1347 JUMPI PUSH1 0x0 DUP5 DUP5 ADD MSTORE JUMPDEST POP POP POP POP JUMP JUMPDEST PUSH1 0x0 PUSH1 0x2 DUP3 DIV SWAP1 POP PUSH1 0x1 DUP3 AND DUP1 PUSH2 0x1365 JUMPI PUSH1 0x7F DUP3 AND SWAP2 POP JUMPDEST PUSH1 0x20 DUP3 LT DUP2 EQ ISZERO PUSH2 0x1379 JUMPI PUSH2 0x1378 PUSH2 0x13F7 JUMP JUMPDEST JUMPDEST POP SWAP2 SWAP1 POP JUMP JUMPDEST PUSH1 0x0 PUSH2 0x138A DUP3 PUSH2 0x1301 JUMP JUMPDEST SWAP2 POP PUSH32 0xFFFFFFFFFFFFFFFFFFFFFFFFFFFFFFFFFFFFFFFFFFFFFFFFFFFFFFFFFFFFFFFF DUP3 EQ ISZERO PUSH2 0x13BD JUMPI PUSH2 0x13BC PUSH2 0x13C8 JUMP JUMPDEST JUMPDEST PUSH1 0x1 DUP3 ADD SWAP1 POP SWAP2 SWAP1 POP JUMP JUMPDEST PUSH32 0x4E487B7100000000000000000000000000000000000000000000000000000000 PUSH1 0x0 MSTORE PUSH1 0x11 PUSH1 0x4 MSTORE PUSH1 0x24 PUSH1 0x0 REVERT JUMPDEST PUSH32 0x4E487B7100000000000000000000000000000000000000000000000000000000 PUSH1 0x0 MSTORE PUSH1 0x22 PUSH1 0x4 MSTORE PUSH1 0x24 PUSH1 0x0 REVERT JUMPDEST PUSH32 0x4E487B7100000000000000000000000000000000000000000000000000000000 PUSH1 0x0 MSTORE PUSH1 0x41 PUSH1 0x4 MSTORE PUSH1 0x24 PUSH1 0x0 REVERT JUMPDEST PUSH1 0x0 PUSH1 0x1F NOT PUSH1 0x1F DUP4 ADD AND SWAP1 POP SWAP2 SWAP1 POP JUMP JUMPDEST PUSH1 0x0 DUP2 PUSH1 0x1 SHR SWAP1 POP SWAP2 SWAP1 POP JUMP JUMPDEST PUSH2 0x147C DUP2 PUSH2 0x12CF JUMP JUMPDEST DUP2 EQ PUSH2 0x1487 JUMPI PUSH1 0x0 DUP1 REVERT JUMPDEST POP JUMP JUMPDEST PUSH2 0x1493 DUP2 PUSH2 0x1301 JUMP JUMPDEST DUP2 EQ PUSH2 0x149E JUMPI PUSH1 0x0 DUP1 REVERT JUMPDEST POP JUMP INVALID LOG2 PUSH5 0x6970667358 0x22 SLT KECCAK256 0xD2 CALLVALUE DUP8 0xB7 0xD PUSH3 0x663A0D 0x2D 0xFC EXTCODECOPY SIGNEXTEND MSTORE 0x4B SIGNEXTEND STOP 0xC9 CALLDATACOPY ISZERO CALLCODE 0xA8 0x4A MSTORE8 CALL PUSH3 0x998B33 TIMESTAMP 0xC4 0xD5 PUSH5 0x736F6C6343 STOP ADDMOD STOP STOP CALLER "
				},
				"gasEstimates": {
					"creation": {
						"codeDepositCost": "1067000",
						"executionCost": "infinite",
						"totalCost": "infinite"
					},
					"external": {
						"addProposal(uint256,uint256,address,uint256)": "infinite",
						"getOprions()": "infinite",
						"getProposalStructure(uint256)": "infinite",
						"opopop(uint256)": "infinite",
						"proposalCount()": "1173",
						"proposals(uint256)": "infinite",
						"smt(string)": "infinite"
					}
				},
				"methodIdentifiers": {
					"addProposal(uint256,uint256,address,uint256)": "cae455ee",
					"getOprions()": "32fc40be",
					"getProposalStructure(uint256)": "e9d6c6da",
					"opopop(uint256)": "b723a32c",
					"proposalCount()": "da35c664",
					"proposals(uint256)": "013cf08b",
					"smt(string)": "96caabb8"
				}
			},
			"storageLayout": {
				"storage": [
					{
						"astId": 26,
						"contract": "contracts/proposal.sol:TestProposal",
						"label": "proposals",
						"offset": 0,
						"slot": "0",
						"type": "t_mapping(t_uint256,t_struct(Proposal)14_storage)"
					},
					{
						"astId": 28,
						"contract": "contracts/proposal.sol:TestProposal",
						"label": "proposalCount",
						"offset": 0,
						"slot": "1",
						"type": "t_uint256"
					},
					{
						"astId": 85,
						"contract": "contracts/proposal.sol:TestProposal",
						"label": "opopop",
						"offset": 0,
						"slot": "2",
						"type": "t_array(t_string_storage)dyn_storage"
					}
				],
				"types": {
					"t_address": {
						"encoding": "inplace",
						"label": "address",
						"numberOfBytes": "20"
					},
					"t_array(t_string_storage)dyn_storage": {
						"base": "t_string_storage",
						"encoding": "dynamic_array",
						"label": "string[]",
						"numberOfBytes": "32"
					},
					"t_mapping(t_uint256,t_struct(Proposal)14_storage)": {
						"encoding": "mapping",
						"key": "t_uint256",
						"label": "mapping(uint256 => struct TestProposal.Proposal)",
						"numberOfBytes": "32",
						"value": "t_struct(Proposal)14_storage"
					},
					"t_string_storage": {
						"encoding": "bytes",
						"label": "string",
						"numberOfBytes": "32"
					},
					"t_struct(Proposal)14_storage": {
						"encoding": "inplace",
						"label": "struct TestProposal.Proposal",
						"members": [
							{
								"astId": 7,
								"contract": "contracts/proposal.sol:TestProposal",
								"label": "proposalId",
								"offset": 0,
								"slot": "0",
								"type": "t_uint256"
							},
							{
								"astId": 9,
								"contract": "contracts/proposal.sol:TestProposal",
								"label": "proposalStatus",
								"offset": 0,
								"slot": "1",
								"type": "t_uint256"
							},
							{
								"astId": 11,
								"contract": "contracts/proposal.sol:TestProposal",
								"label": "proposalCreator",
								"offset": 0,
								"slot": "2",
								"type": "t_address"
							},
							{
								"astId": 13,
								"contract": "contracts/proposal.sol:TestProposal",
								"label": "proposalNumOfOptions",
								"offset": 0,
								"slot": "3",
								"type": "t_uint256"
							}
						],
						"numberOfBytes": "128"
					},
					"t_uint256": {
						"encoding": "inplace",
						"label": "uint256",
						"numberOfBytes": "32"
					}
				}
			},
			"userdoc": {
				"kind": "user",
				"methods": {},
				"version": 1
			}
		}
	}
}