{
	"contracts/prop_test.sol": {
		"Ballot": {
			"abi": [
				{
					"inputs": [
						{
							"internalType": "bytes32[]",
							"name": "proposalNames",
							"type": "bytes32[]"
						}
					],
					"name": "Ballot1",
					"outputs": [],
					"stateMutability": "nonpayable",
					"type": "function"
				},
				{
					"inputs": [],
					"name": "chairperson",
					"outputs": [
						{
							"internalType": "address",
							"name": "",
							"type": "address"
						}
					],
					"stateMutability": "view",
					"type": "function"
				},
				{
					"inputs": [
						{
							"internalType": "address",
							"name": "to",
							"type": "address"
						}
					],
					"name": "delegate",
					"outputs": [],
					"stateMutability": "nonpayable",
					"type": "function"
				},
				{
					"inputs": [
						{
							"internalType": "address",
							"name": "voter",
							"type": "address"
						}
					],
					"name": "giveRightToVote",
					"outputs": [],
					"stateMutability": "nonpayable",
					"type": "function"
				},
				{
					"inputs": [
						{
							"internalType": "uint256",
							"name": "",
							"type": "uint256"
						}
					],
					"name": "proposals",
					"outputs": [
						{
							"internalType": "bytes32",
							"name": "name",
							"type": "bytes32"
						},
						{
							"internalType": "uint256",
							"name": "voteCount",
							"type": "uint256"
						}
					],
					"stateMutability": "view",
					"type": "function"
				},
				{
					"inputs": [
						{
							"internalType": "uint256",
							"name": "proposal",
							"type": "uint256"
						}
					],
					"name": "vote",
					"outputs": [],
					"stateMutability": "nonpayable",
					"type": "function"
				},
				{
					"inputs": [
						{
							"internalType": "address",
							"name": "",
							"type": "address"
						}
					],
					"name": "voters",
					"outputs": [
						{
							"internalType": "uint256",
							"name": "weight",
							"type": "uint256"
						},
						{
							"internalType": "bool",
							"name": "voted",
							"type": "bool"
						},
						{
							"internalType": "address",
							"name": "delegate",
							"type": "address"
						},
						{
							"internalType": "uint256",
							"name": "vote",
							"type": "uint256"
						}
					],
					"stateMutability": "view",
					"type": "function"
				}
			],
			"devdoc": {
				"kind": "dev",
				"methods": {},
				"version": 1
			},
			"evm": {
				"assembly": "    /* \"contracts/prop_test.sol\":60:4200  contract Ballot {\r... */\n  mstore(0x40, 0x80)\n  callvalue\n  dup1\n  iszero\n  tag_1\n  jumpi\n  0x00\n  dup1\n  revert\ntag_1:\n  pop\n  dataSize(sub_0)\n  dup1\n  dataOffset(sub_0)\n  0x00\n  codecopy\n  0x00\n  return\nstop\n\nsub_0: assembly {\n        /* \"contracts/prop_test.sol\":60:4200  contract Ballot {\r... */\n      mstore(0x40, 0x80)\n      callvalue\n      dup1\n      iszero\n      tag_1\n      jumpi\n      0x00\n      dup1\n      revert\n    tag_1:\n      pop\n      jumpi(tag_2, lt(calldatasize, 0x04))\n      shr(0xe0, calldataload(0x00))\n      dup1\n      0x5c19a95c\n      gt\n      tag_10\n      jumpi\n      dup1\n      0x5c19a95c\n      eq\n      tag_6\n      jumpi\n      dup1\n      0x9e7b8d61\n      eq\n      tag_7\n      jumpi\n      dup1\n      0xa3ec138d\n      eq\n      tag_8\n      jumpi\n      dup1\n      0xc106269c\n      eq\n      tag_9\n      jumpi\n      jump(tag_2)\n    tag_10:\n      dup1\n      0x0121b93f\n      eq\n      tag_3\n      jumpi\n      dup1\n      0x013cf08b\n      eq\n      tag_4\n      jumpi\n      dup1\n      0x2e4176cf\n      eq\n      tag_5\n      jumpi\n    tag_2:\n      0x00\n      dup1\n      revert\n        /* \"contracts/prop_test.sol\":3808:4197  function vote(uint proposal) public {\r... */\n    tag_3:\n      tag_11\n      0x04\n      dup1\n      calldatasize\n      sub\n      dup2\n      add\n      swap1\n      tag_12\n      swap2\n      swap1\n      tag_13\n      jump\t// in\n    tag_12:\n      tag_14\n      jump\t// in\n    tag_11:\n      stop\n        /* \"contracts/prop_test.sol\":769:796  Proposal[] public proposals */\n    tag_4:\n      tag_15\n      0x04\n      dup1\n      calldatasize\n      sub\n      dup2\n      add\n      swap1\n      tag_16\n      swap2\n      swap1\n      tag_13\n      jump\t// in\n    tag_16:\n      tag_17\n      jump\t// in\n    tag_15:\n      mload(0x40)\n      tag_18\n      swap3\n      swap2\n      swap1\n      tag_19\n      jump\t// in\n    tag_18:\n      mload(0x40)\n      dup1\n      swap2\n      sub\n      swap1\n      return\n        /* \"contracts/prop_test.sol\":526:552  address public chairperson */\n    tag_5:\n      tag_20\n      tag_21\n      jump\t// in\n    tag_20:\n      mload(0x40)\n      tag_22\n      swap2\n      swap1\n      tag_23\n      jump\t// in\n    tag_22:\n      mload(0x40)\n      dup1\n      swap2\n      sub\n      swap1\n      return\n        /* \"contracts/prop_test.sol\":2261:3692  function delegate(address to) public {\r... */\n    tag_6:\n      tag_24\n      0x04\n      dup1\n      calldatasize\n      sub\n      dup2\n      add\n      swap1\n      tag_25\n      swap2\n      swap1\n      tag_26\n      jump\t// in\n    tag_25:\n      tag_27\n      jump\t// in\n    tag_24:\n      stop\n        /* \"contracts/prop_test.sol\":1624:2206  function giveRightToVote(address voter) public {\r... */\n    tag_7:\n      tag_28\n      0x04\n      dup1\n      calldatasize\n      sub\n      dup2\n      add\n      swap1\n      tag_29\n      swap2\n      swap1\n      tag_26\n      jump\t// in\n    tag_29:\n      tag_30\n      jump\t// in\n    tag_28:\n      stop\n        /* \"contracts/prop_test.sol\":664:703  mapping(address => Voter) public voters */\n    tag_8:\n      tag_31\n      0x04\n      dup1\n      calldatasize\n      sub\n      dup2\n      add\n      swap1\n      tag_32\n      swap2\n      swap1\n      tag_26\n      jump\t// in\n    tag_32:\n      tag_33\n      jump\t// in\n    tag_31:\n      mload(0x40)\n      tag_34\n      swap5\n      swap4\n      swap3\n      swap2\n      swap1\n      tag_35\n      jump\t// in\n    tag_34:\n      mload(0x40)\n      dup1\n      swap2\n      sub\n      swap1\n      return\n        /* \"contracts/prop_test.sol\":868:1516  function Ballot1(bytes32[] memory proposalNames) public {\r... */\n    tag_9:\n      tag_36\n      0x04\n      dup1\n      calldatasize\n      sub\n      dup2\n      add\n      swap1\n      tag_37\n      swap2\n      swap1\n      tag_38\n      jump\t// in\n    tag_37:\n      tag_39\n      jump\t// in\n    tag_36:\n      stop\n        /* \"contracts/prop_test.sol\":3808:4197  function vote(uint proposal) public {\r... */\n    tag_14:\n        /* \"contracts/prop_test.sol\":3855:3875  Voter storage sender */\n      0x00\n        /* \"contracts/prop_test.sol\":3878:3884  voters */\n      0x01\n        /* \"contracts/prop_test.sol\":3878:3896  voters[msg.sender] */\n      0x00\n        /* \"contracts/prop_test.sol\":3885:3895  msg.sender */\n      caller\n        /* \"contracts/prop_test.sol\":3878:3896  voters[msg.sender] */\n      0xffffffffffffffffffffffffffffffffffffffff\n      and\n      0xffffffffffffffffffffffffffffffffffffffff\n      and\n      dup2\n      mstore\n      0x20\n      add\n      swap1\n      dup2\n      mstore\n      0x20\n      add\n      0x00\n      keccak256\n        /* \"contracts/prop_test.sol\":3855:3896  Voter storage sender = voters[msg.sender] */\n      swap1\n      pop\n        /* \"contracts/prop_test.sol\":3916:3922  sender */\n      dup1\n        /* \"contracts/prop_test.sol\":3916:3928  sender.voted */\n      0x01\n      add\n      0x00\n      swap1\n      sload\n      swap1\n      0x0100\n      exp\n      swap1\n      div\n      0xff\n      and\n        /* \"contracts/prop_test.sol\":3915:3928  !sender.voted */\n      iszero\n        /* \"contracts/prop_test.sol\":3907:3929  require(!sender.voted) */\n      tag_41\n      jumpi\n      0x00\n      dup1\n      revert\n    tag_41:\n        /* \"contracts/prop_test.sol\":3955:3959  true */\n      0x01\n        /* \"contracts/prop_test.sol\":3940:3946  sender */\n      dup2\n        /* \"contracts/prop_test.sol\":3940:3952  sender.voted */\n      0x01\n      add\n      0x00\n        /* \"contracts/prop_test.sol\":3940:3959  sender.voted = true */\n      0x0100\n      exp\n      dup2\n      sload\n      dup2\n      0xff\n      mul\n      not\n      and\n      swap1\n      dup4\n      iszero\n      iszero\n      mul\n      or\n      swap1\n      sstore\n      pop\n        /* \"contracts/prop_test.sol\":3984:3992  proposal */\n      dup2\n        /* \"contracts/prop_test.sol\":3970:3976  sender */\n      dup2\n        /* \"contracts/prop_test.sol\":3970:3981  sender.vote */\n      0x02\n      add\n        /* \"contracts/prop_test.sol\":3970:3992  sender.vote = proposal */\n      dup2\n      swap1\n      sstore\n      pop\n        /* \"contracts/prop_test.sol\":4176:4182  sender */\n      dup1\n        /* \"contracts/prop_test.sol\":4176:4189  sender.weight */\n      0x00\n      add\n      sload\n        /* \"contracts/prop_test.sol\":4143:4152  proposals */\n      0x02\n        /* \"contracts/prop_test.sol\":4153:4161  proposal */\n      dup4\n        /* \"contracts/prop_test.sol\":4143:4162  proposals[proposal] */\n      dup2\n      sload\n      dup2\n      lt\n      tag_42\n      jumpi\n      mstore(0x00, 0x4e487b7100000000000000000000000000000000000000000000000000000000)\n      mstore(0x04, 0x32)\n      revert(0x00, 0x24)\n    tag_42:\n      swap1\n      0x00\n      mstore\n      keccak256(0x00, 0x20)\n      swap1\n      0x02\n      mul\n      add\n        /* \"contracts/prop_test.sol\":4143:4172  proposals[proposal].voteCount */\n      0x01\n      add\n      0x00\n        /* \"contracts/prop_test.sol\":4143:4189  proposals[proposal].voteCount += sender.weight */\n      dup3\n      dup3\n      sload\n      tag_44\n      swap2\n      swap1\n      tag_45\n      jump\t// in\n    tag_44:\n      swap3\n      pop\n      pop\n      dup2\n      swap1\n      sstore\n      pop\n        /* \"contracts/prop_test.sol\":3808:4197  function vote(uint proposal) public {\r... */\n      pop\n      pop\n      jump\t// out\n        /* \"contracts/prop_test.sol\":769:796  Proposal[] public proposals */\n    tag_17:\n      0x02\n      dup2\n      dup2\n      sload\n      dup2\n      lt\n      tag_46\n      jumpi\n      0x00\n      dup1\n      revert\n    tag_46:\n      swap1\n      0x00\n      mstore\n      keccak256(0x00, 0x20)\n      swap1\n      0x02\n      mul\n      add\n      0x00\n      swap2\n      pop\n      swap1\n      pop\n      dup1\n      0x00\n      add\n      sload\n      swap1\n      dup1\n      0x01\n      add\n      sload\n      swap1\n      pop\n      dup3\n      jump\t// out\n        /* \"contracts/prop_test.sol\":526:552  address public chairperson */\n    tag_21:\n      0x00\n      dup1\n      sload\n      swap1\n      0x0100\n      exp\n      swap1\n      div\n      0xffffffffffffffffffffffffffffffffffffffff\n      and\n      dup2\n      jump\t// out\n        /* \"contracts/prop_test.sol\":2261:3692  function delegate(address to) public {\r... */\n    tag_27:\n        /* \"contracts/prop_test.sol\":2339:2359  Voter storage sender */\n      0x00\n        /* \"contracts/prop_test.sol\":2362:2368  voters */\n      0x01\n        /* \"contracts/prop_test.sol\":2362:2380  voters[msg.sender] */\n      0x00\n        /* \"contracts/prop_test.sol\":2369:2379  msg.sender */\n      caller\n        /* \"contracts/prop_test.sol\":2362:2380  voters[msg.sender] */\n      0xffffffffffffffffffffffffffffffffffffffff\n      and\n      0xffffffffffffffffffffffffffffffffffffffff\n      and\n      dup2\n      mstore\n      0x20\n      add\n      swap1\n      dup2\n      mstore\n      0x20\n      add\n      0x00\n      keccak256\n        /* \"contracts/prop_test.sol\":2339:2380  Voter storage sender = voters[msg.sender] */\n      swap1\n      pop\n        /* \"contracts/prop_test.sol\":2400:2406  sender */\n      dup1\n        /* \"contracts/prop_test.sol\":2400:2412  sender.voted */\n      0x01\n      add\n      0x00\n      swap1\n      sload\n      swap1\n      0x0100\n      exp\n      swap1\n      div\n      0xff\n      and\n        /* \"contracts/prop_test.sol\":2399:2412  !sender.voted */\n      iszero\n        /* \"contracts/prop_test.sol\":2391:2413  require(!sender.voted) */\n      tag_49\n      jumpi\n      0x00\n      dup1\n      revert\n    tag_49:\n        /* \"contracts/prop_test.sol\":2484:2494  msg.sender */\n      caller\n        /* \"contracts/prop_test.sol\":2478:2494  to != msg.sender */\n      0xffffffffffffffffffffffffffffffffffffffff\n      and\n        /* \"contracts/prop_test.sol\":2478:2480  to */\n      dup3\n        /* \"contracts/prop_test.sol\":2478:2494  to != msg.sender */\n      0xffffffffffffffffffffffffffffffffffffffff\n      and\n      eq\n      iszero\n        /* \"contracts/prop_test.sol\":2470:2495  require(to != msg.sender) */\n      tag_50\n      jumpi\n      0x00\n      dup1\n      revert\n    tag_50:\n        /* \"contracts/prop_test.sol\":2924:3123  while (voters[to].delegate != address(0)) {\r... */\n    tag_51:\n        /* \"contracts/prop_test.sol\":2962:2963  0 */\n      0x00\n        /* \"contracts/prop_test.sol\":2931:2964  voters[to].delegate != address(0) */\n      0xffffffffffffffffffffffffffffffffffffffff\n      and\n        /* \"contracts/prop_test.sol\":2931:2937  voters */\n      0x01\n        /* \"contracts/prop_test.sol\":2931:2941  voters[to] */\n      0x00\n        /* \"contracts/prop_test.sol\":2938:2940  to */\n      dup5\n        /* \"contracts/prop_test.sol\":2931:2941  voters[to] */\n      0xffffffffffffffffffffffffffffffffffffffff\n      and\n      0xffffffffffffffffffffffffffffffffffffffff\n      and\n      dup2\n      mstore\n      0x20\n      add\n      swap1\n      dup2\n      mstore\n      0x20\n      add\n      0x00\n      keccak256\n        /* \"contracts/prop_test.sol\":2931:2950  voters[to].delegate */\n      0x01\n      add\n      0x01\n      swap1\n      sload\n      swap1\n      0x0100\n      exp\n      swap1\n      div\n      0xffffffffffffffffffffffffffffffffffffffff\n      and\n        /* \"contracts/prop_test.sol\":2931:2964  voters[to].delegate != address(0) */\n      0xffffffffffffffffffffffffffffffffffffffff\n      and\n      eq\n        /* \"contracts/prop_test.sol\":2924:3123  while (voters[to].delegate != address(0)) {\r... */\n      tag_52\n      jumpi\n        /* \"contracts/prop_test.sol\":2986:2992  voters */\n      0x01\n        /* \"contracts/prop_test.sol\":2986:2996  voters[to] */\n      0x00\n        /* \"contracts/prop_test.sol\":2993:2995  to */\n      dup4\n        /* \"contracts/prop_test.sol\":2986:2996  voters[to] */\n      0xffffffffffffffffffffffffffffffffffffffff\n      and\n      0xffffffffffffffffffffffffffffffffffffffff\n      and\n      dup2\n      mstore\n      0x20\n      add\n      swap1\n      dup2\n      mstore\n      0x20\n      add\n      0x00\n      keccak256\n        /* \"contracts/prop_test.sol\":2986:3005  voters[to].delegate */\n      0x01\n      add\n      0x01\n      swap1\n      sload\n      swap1\n      0x0100\n      exp\n      swap1\n      div\n      0xffffffffffffffffffffffffffffffffffffffff\n      and\n        /* \"contracts/prop_test.sol\":2981:3005  to = voters[to].delegate */\n      swap2\n      pop\n        /* \"contracts/prop_test.sol\":3100:3110  msg.sender */\n      caller\n        /* \"contracts/prop_test.sol\":3094:3110  to != msg.sender */\n      0xffffffffffffffffffffffffffffffffffffffff\n      and\n        /* \"contracts/prop_test.sol\":3094:3096  to */\n      dup3\n        /* \"contracts/prop_test.sol\":3094:3110  to != msg.sender */\n      0xffffffffffffffffffffffffffffffffffffffff\n      and\n      eq\n      iszero\n        /* \"contracts/prop_test.sol\":3086:3111  require(to != msg.sender) */\n      tag_53\n      jumpi\n      0x00\n      dup1\n      revert\n    tag_53:\n        /* \"contracts/prop_test.sol\":2924:3123  while (voters[to].delegate != address(0)) {\r... */\n      jump(tag_51)\n    tag_52:\n        /* \"contracts/prop_test.sol\":3246:3250  true */\n      0x01\n        /* \"contracts/prop_test.sol\":3231:3237  sender */\n      dup2\n        /* \"contracts/prop_test.sol\":3231:3243  sender.voted */\n      0x01\n      add\n      0x00\n        /* \"contracts/prop_test.sol\":3231:3250  sender.voted = true */\n      0x0100\n      exp\n      dup2\n      sload\n      dup2\n      0xff\n      mul\n      not\n      and\n      swap1\n      dup4\n      iszero\n      iszero\n      mul\n      or\n      swap1\n      sstore\n      pop\n        /* \"contracts/prop_test.sol\":3279:3281  to */\n      dup2\n        /* \"contracts/prop_test.sol\":3261:3267  sender */\n      dup2\n        /* \"contracts/prop_test.sol\":3261:3276  sender.delegate */\n      0x01\n      add\n      0x01\n        /* \"contracts/prop_test.sol\":3261:3281  sender.delegate = to */\n      0x0100\n      exp\n      dup2\n      sload\n      dup2\n      0xffffffffffffffffffffffffffffffffffffffff\n      mul\n      not\n      and\n      swap1\n      dup4\n      0xffffffffffffffffffffffffffffffffffffffff\n      and\n      mul\n      or\n      swap1\n      sstore\n      pop\n        /* \"contracts/prop_test.sol\":3292:3314  Voter storage delegate */\n      0x00\n        /* \"contracts/prop_test.sol\":3317:3323  voters */\n      0x01\n        /* \"contracts/prop_test.sol\":3317:3327  voters[to] */\n      0x00\n        /* \"contracts/prop_test.sol\":3324:3326  to */\n      dup5\n        /* \"contracts/prop_test.sol\":3317:3327  voters[to] */\n      0xffffffffffffffffffffffffffffffffffffffff\n      and\n      0xffffffffffffffffffffffffffffffffffffffff\n      and\n      dup2\n      mstore\n      0x20\n      add\n      swap1\n      dup2\n      mstore\n      0x20\n      add\n      0x00\n      keccak256\n        /* \"contracts/prop_test.sol\":3292:3327  Voter storage delegate = voters[to] */\n      swap1\n      pop\n        /* \"contracts/prop_test.sol\":3342:3350  delegate */\n      dup1\n        /* \"contracts/prop_test.sol\":3342:3356  delegate.voted */\n      0x01\n      add\n      0x00\n      swap1\n      sload\n      swap1\n      0x0100\n      exp\n      swap1\n      div\n      0xff\n      and\n        /* \"contracts/prop_test.sol\":3338:3685  if (delegate.voted) {\r... */\n      iszero\n      tag_54\n      jumpi\n        /* \"contracts/prop_test.sol\":3510:3516  sender */\n      dup2\n        /* \"contracts/prop_test.sol\":3510:3523  sender.weight */\n      0x00\n      add\n      sload\n        /* \"contracts/prop_test.sol\":3472:3481  proposals */\n      0x02\n        /* \"contracts/prop_test.sol\":3482:3490  delegate */\n      dup3\n        /* \"contracts/prop_test.sol\":3482:3495  delegate.vote */\n      0x02\n      add\n      sload\n        /* \"contracts/prop_test.sol\":3472:3496  proposals[delegate.vote] */\n      dup2\n      sload\n      dup2\n      lt\n      tag_55\n      jumpi\n      mstore(0x00, 0x4e487b7100000000000000000000000000000000000000000000000000000000)\n      mstore(0x04, 0x32)\n      revert(0x00, 0x24)\n    tag_55:\n      swap1\n      0x00\n      mstore\n      keccak256(0x00, 0x20)\n      swap1\n      0x02\n      mul\n      add\n        /* \"contracts/prop_test.sol\":3472:3506  proposals[delegate.vote].voteCount */\n      0x01\n      add\n      0x00\n        /* \"contracts/prop_test.sol\":3472:3523  proposals[delegate.vote].voteCount += sender.weight */\n      dup3\n      dup3\n      sload\n      tag_57\n      swap2\n      swap1\n      tag_45\n      jump\t// in\n    tag_57:\n      swap3\n      pop\n      pop\n      dup2\n      swap1\n      sstore\n      pop\n        /* \"contracts/prop_test.sol\":3338:3685  if (delegate.voted) {\r... */\n      jump(tag_58)\n    tag_54:\n        /* \"contracts/prop_test.sol\":3660:3666  sender */\n      dup2\n        /* \"contracts/prop_test.sol\":3660:3673  sender.weight */\n      0x00\n      add\n      sload\n        /* \"contracts/prop_test.sol\":3641:3649  delegate */\n      dup2\n        /* \"contracts/prop_test.sol\":3641:3656  delegate.weight */\n      0x00\n      add\n      0x00\n        /* \"contracts/prop_test.sol\":3641:3673  delegate.weight += sender.weight */\n      dup3\n      dup3\n      sload\n      tag_59\n      swap2\n      swap1\n      tag_45\n      jump\t// in\n    tag_59:\n      swap3\n      pop\n      pop\n      dup2\n      swap1\n      sstore\n      pop\n        /* \"contracts/prop_test.sol\":3338:3685  if (delegate.voted) {\r... */\n    tag_58:\n        /* \"contracts/prop_test.sol\":2261:3692  function delegate(address to) public {\r... */\n      pop\n      pop\n      pop\n      jump\t// out\n        /* \"contracts/prop_test.sol\":1624:2206  function giveRightToVote(address voter) public {\r... */\n    tag_30:\n        /* \"contracts/prop_test.sol\":2095:2106  chairperson */\n      0x00\n      dup1\n      sload\n      swap1\n      0x0100\n      exp\n      swap1\n      div\n      0xffffffffffffffffffffffffffffffffffffffff\n      and\n        /* \"contracts/prop_test.sol\":2081:2106  msg.sender == chairperson */\n      0xffffffffffffffffffffffffffffffffffffffff\n      and\n        /* \"contracts/prop_test.sol\":2081:2091  msg.sender */\n      caller\n        /* \"contracts/prop_test.sol\":2081:2106  msg.sender == chairperson */\n      0xffffffffffffffffffffffffffffffffffffffff\n      and\n      eq\n        /* \"contracts/prop_test.sol\":2080:2131  (msg.sender == chairperson) && !voters[voter].voted */\n      dup1\n      iszero\n      tag_61\n      jumpi\n      pop\n        /* \"contracts/prop_test.sol\":2112:2118  voters */\n      0x01\n        /* \"contracts/prop_test.sol\":2112:2125  voters[voter] */\n      0x00\n        /* \"contracts/prop_test.sol\":2119:2124  voter */\n      dup3\n        /* \"contracts/prop_test.sol\":2112:2125  voters[voter] */\n      0xffffffffffffffffffffffffffffffffffffffff\n      and\n      0xffffffffffffffffffffffffffffffffffffffff\n      and\n      dup2\n      mstore\n      0x20\n      add\n      swap1\n      dup2\n      mstore\n      0x20\n      add\n      0x00\n      keccak256\n        /* \"contracts/prop_test.sol\":2112:2131  voters[voter].voted */\n      0x01\n      add\n      0x00\n      swap1\n      sload\n      swap1\n      0x0100\n      exp\n      swap1\n      div\n      0xff\n      and\n        /* \"contracts/prop_test.sol\":2111:2131  !voters[voter].voted */\n      iszero\n        /* \"contracts/prop_test.sol\":2080:2131  (msg.sender == chairperson) && !voters[voter].voted */\n    tag_61:\n        /* \"contracts/prop_test.sol\":2080:2162  (msg.sender == chairperson) && !voters[voter].voted && (voters[voter].weight == 0) */\n      dup1\n      iszero\n      tag_62\n      jumpi\n      pop\n        /* \"contracts/prop_test.sol\":2160:2161  0 */\n      0x00\n        /* \"contracts/prop_test.sol\":2136:2142  voters */\n      0x01\n        /* \"contracts/prop_test.sol\":2136:2149  voters[voter] */\n      0x00\n        /* \"contracts/prop_test.sol\":2143:2148  voter */\n      dup4\n        /* \"contracts/prop_test.sol\":2136:2149  voters[voter] */\n      0xffffffffffffffffffffffffffffffffffffffff\n      and\n      0xffffffffffffffffffffffffffffffffffffffff\n      and\n      dup2\n      mstore\n      0x20\n      add\n      swap1\n      dup2\n      mstore\n      0x20\n      add\n      0x00\n      keccak256\n        /* \"contracts/prop_test.sol\":2136:2156  voters[voter].weight */\n      0x00\n      add\n      sload\n        /* \"contracts/prop_test.sol\":2136:2161  voters[voter].weight == 0 */\n      eq\n        /* \"contracts/prop_test.sol\":2080:2162  (msg.sender == chairperson) && !voters[voter].voted && (voters[voter].weight == 0) */\n    tag_62:\n        /* \"contracts/prop_test.sol\":2072:2163  require((msg.sender == chairperson) && !voters[voter].voted && (voters[voter].weight == 0)) */\n      tag_63\n      jumpi\n      0x00\n      dup1\n      revert\n    tag_63:\n        /* \"contracts/prop_test.sol\":2197:2198  1 */\n      0x01\n        /* \"contracts/prop_test.sol\":2174:2180  voters */\n      dup1\n        /* \"contracts/prop_test.sol\":2174:2187  voters[voter] */\n      0x00\n        /* \"contracts/prop_test.sol\":2181:2186  voter */\n      dup4\n        /* \"contracts/prop_test.sol\":2174:2187  voters[voter] */\n      0xffffffffffffffffffffffffffffffffffffffff\n      and\n      0xffffffffffffffffffffffffffffffffffffffff\n      and\n      dup2\n      mstore\n      0x20\n      add\n      swap1\n      dup2\n      mstore\n      0x20\n      add\n      0x00\n      keccak256\n        /* \"contracts/prop_test.sol\":2174:2194  voters[voter].weight */\n      0x00\n      add\n        /* \"contracts/prop_test.sol\":2174:2198  voters[voter].weight = 1 */\n      dup2\n      swap1\n      sstore\n      pop\n        /* \"contracts/prop_test.sol\":1624:2206  function giveRightToVote(address voter) public {\r... */\n      pop\n      jump\t// out\n        /* \"contracts/prop_test.sol\":664:703  mapping(address => Voter) public voters */\n    tag_33:\n      mstore(0x20, 0x01)\n      dup1\n      0x00\n      mstore\n      keccak256(0x00, 0x40)\n      0x00\n      swap2\n      pop\n      swap1\n      pop\n      dup1\n      0x00\n      add\n      sload\n      swap1\n      dup1\n      0x01\n      add\n      0x00\n      swap1\n      sload\n      swap1\n      0x0100\n      exp\n      swap1\n      div\n      0xff\n      and\n      swap1\n      dup1\n      0x01\n      add\n      0x01\n      swap1\n      sload\n      swap1\n      0x0100\n      exp\n      swap1\n      div\n      0xffffffffffffffffffffffffffffffffffffffff\n      and\n      swap1\n      dup1\n      0x02\n      add\n      sload\n      swap1\n      pop\n      dup5\n      jump\t// out\n        /* \"contracts/prop_test.sol\":868:1516  function Ballot1(bytes32[] memory proposalNames) public {\r... */\n    tag_39:\n        /* \"contracts/prop_test.sol\":949:959  msg.sender */\n      caller\n        /* \"contracts/prop_test.sol\":935:946  chairperson */\n      0x00\n      dup1\n        /* \"contracts/prop_test.sol\":935:959  chairperson = msg.sender */\n      0x0100\n      exp\n      dup2\n      sload\n      dup2\n      0xffffffffffffffffffffffffffffffffffffffff\n      mul\n      not\n      and\n      swap1\n      dup4\n      0xffffffffffffffffffffffffffffffffffffffff\n      and\n      mul\n      or\n      swap1\n      sstore\n      pop\n        /* \"contracts/prop_test.sol\":999:1000  1 */\n      0x01\n        /* \"contracts/prop_test.sol\":970:976  voters */\n      dup1\n        /* \"contracts/prop_test.sol\":970:989  voters[chairperson] */\n      0x00\n        /* \"contracts/prop_test.sol\":977:988  chairperson */\n      dup1\n      0x00\n      swap1\n      sload\n      swap1\n      0x0100\n      exp\n      swap1\n      div\n      0xffffffffffffffffffffffffffffffffffffffff\n      and\n        /* \"contracts/prop_test.sol\":970:989  voters[chairperson] */\n      0xffffffffffffffffffffffffffffffffffffffff\n      and\n      0xffffffffffffffffffffffffffffffffffffffff\n      and\n      dup2\n      mstore\n      0x20\n      add\n      swap1\n      dup2\n      mstore\n      0x20\n      add\n      0x00\n      keccak256\n        /* \"contracts/prop_test.sol\":970:996  voters[chairperson].weight */\n      0x00\n      add\n        /* \"contracts/prop_test.sol\":970:1000  voters[chairperson].weight = 1 */\n      dup2\n      swap1\n      sstore\n      pop\n        /* \"contracts/prop_test.sol\":1160:1166  uint i */\n      0x00\n        /* \"contracts/prop_test.sol\":1155:1509  for (uint i = 0; i < proposalNames.length; i++) {\r... */\n    tag_65:\n        /* \"contracts/prop_test.sol\":1176:1189  proposalNames */\n      dup2\n        /* \"contracts/prop_test.sol\":1176:1196  proposalNames.length */\n      mload\n        /* \"contracts/prop_test.sol\":1172:1173  i */\n      dup2\n        /* \"contracts/prop_test.sol\":1172:1196  i < proposalNames.length */\n      lt\n        /* \"contracts/prop_test.sol\":1155:1509  for (uint i = 0; i < proposalNames.length; i++) {\r... */\n      iszero\n      tag_66\n      jumpi\n        /* \"contracts/prop_test.sol\":1384:1393  proposals */\n      0x02\n        /* \"contracts/prop_test.sol\":1399:1496  Proposal({\r... */\n      mload(0x40)\n      dup1\n      0x40\n      add\n      0x40\n      mstore\n      dup1\n        /* \"contracts/prop_test.sol\":1433:1446  proposalNames */\n      dup5\n        /* \"contracts/prop_test.sol\":1447:1448  i */\n      dup5\n        /* \"contracts/prop_test.sol\":1433:1449  proposalNames[i] */\n      dup2\n      mload\n      dup2\n      lt\n      tag_68\n      jumpi\n      mstore(0x00, 0x4e487b7100000000000000000000000000000000000000000000000000000000)\n      mstore(0x04, 0x32)\n      revert(0x00, 0x24)\n    tag_68:\n      0x20\n      mul\n      0x20\n      add\n      add\n      mload\n        /* \"contracts/prop_test.sol\":1399:1496  Proposal({\r... */\n      dup2\n      mstore\n      0x20\n      add\n        /* \"contracts/prop_test.sol\":1479:1480  0 */\n      0x00\n        /* \"contracts/prop_test.sol\":1399:1496  Proposal({\r... */\n      dup2\n      mstore\n      pop\n        /* \"contracts/prop_test.sol\":1384:1497  proposals.push(Proposal({\r... */\n      swap1\n      dup1\n      0x01\n      dup2\n      sload\n      add\n      dup1\n      dup3\n      sstore\n      dup1\n      swap2\n      pop\n      pop\n      0x01\n      swap1\n      sub\n      swap1\n      0x00\n      mstore\n      keccak256(0x00, 0x20)\n      swap1\n      0x02\n      mul\n      add\n      0x00\n      swap1\n      swap2\n      swap1\n      swap2\n      swap1\n      swap2\n      pop\n      0x00\n      dup3\n      add\n      mload\n      dup2\n      0x00\n      add\n      sstore\n      0x20\n      dup3\n      add\n      mload\n      dup2\n      0x01\n      add\n      sstore\n      pop\n      pop\n        /* \"contracts/prop_test.sol\":1198:1201  i++ */\n      dup1\n      dup1\n      tag_70\n      swap1\n      tag_71\n      jump\t// in\n    tag_70:\n      swap2\n      pop\n      pop\n        /* \"contracts/prop_test.sol\":1155:1509  for (uint i = 0; i < proposalNames.length; i++) {\r... */\n      jump(tag_65)\n    tag_66:\n      pop\n        /* \"contracts/prop_test.sol\":868:1516  function Ballot1(bytes32[] memory proposalNames) public {\r... */\n      pop\n      jump\t// out\n        /* \"#utility.yul\":24:646   */\n    tag_73:\n      0x00\n        /* \"#utility.yul\":145:225   */\n      tag_75\n        /* \"#utility.yul\":160:224   */\n      tag_76\n        /* \"#utility.yul\":217:223   */\n      dup5\n        /* \"#utility.yul\":160:224   */\n      tag_77\n      jump\t// in\n    tag_76:\n        /* \"#utility.yul\":145:225   */\n      tag_78\n      jump\t// in\n    tag_75:\n        /* \"#utility.yul\":136:225   */\n      swap1\n      pop\n        /* \"#utility.yul\":245:250   */\n      dup1\n        /* \"#utility.yul\":273:279   */\n      dup4\n        /* \"#utility.yul\":266:271   */\n      dup3\n        /* \"#utility.yul\":259:280   */\n      mstore\n        /* \"#utility.yul\":299:303   */\n      0x20\n        /* \"#utility.yul\":292:297   */\n      dup3\n        /* \"#utility.yul\":288:304   */\n      add\n        /* \"#utility.yul\":281:304   */\n      swap1\n      pop\n        /* \"#utility.yul\":324:330   */\n      dup3\n        /* \"#utility.yul\":374:377   */\n      dup6\n        /* \"#utility.yul\":366:370   */\n      0x20\n        /* \"#utility.yul\":358:364   */\n      dup7\n        /* \"#utility.yul\":354:371   */\n      mul\n        /* \"#utility.yul\":349:352   */\n      dup3\n        /* \"#utility.yul\":345:372   */\n      add\n        /* \"#utility.yul\":342:378   */\n      gt\n        /* \"#utility.yul\":339:341   */\n      iszero\n      tag_79\n      jumpi\n        /* \"#utility.yul\":391:392   */\n      0x00\n        /* \"#utility.yul\":388:389   */\n      dup1\n        /* \"#utility.yul\":381:393   */\n      revert\n        /* \"#utility.yul\":339:341   */\n    tag_79:\n        /* \"#utility.yul\":419:420   */\n      0x00\n        /* \"#utility.yul\":404:640   */\n    tag_80:\n        /* \"#utility.yul\":429:435   */\n      dup6\n        /* \"#utility.yul\":426:427   */\n      dup2\n        /* \"#utility.yul\":423:436   */\n      lt\n        /* \"#utility.yul\":404:640   */\n      iszero\n      tag_82\n      jumpi\n        /* \"#utility.yul\":496:499   */\n      dup2\n        /* \"#utility.yul\":524:561   */\n      tag_83\n        /* \"#utility.yul\":557:560   */\n      dup9\n        /* \"#utility.yul\":545:555   */\n      dup3\n        /* \"#utility.yul\":524:561   */\n      tag_84\n      jump\t// in\n    tag_83:\n        /* \"#utility.yul\":519:522   */\n      dup5\n        /* \"#utility.yul\":512:562   */\n      mstore\n        /* \"#utility.yul\":591:595   */\n      0x20\n        /* \"#utility.yul\":586:589   */\n      dup5\n        /* \"#utility.yul\":582:596   */\n      add\n        /* \"#utility.yul\":575:596   */\n      swap4\n      pop\n        /* \"#utility.yul\":625:629   */\n      0x20\n        /* \"#utility.yul\":620:623   */\n      dup4\n        /* \"#utility.yul\":616:630   */\n      add\n        /* \"#utility.yul\":609:630   */\n      swap3\n      pop\n        /* \"#utility.yul\":464:640   */\n      pop\n        /* \"#utility.yul\":451:452   */\n      0x01\n        /* \"#utility.yul\":448:449   */\n      dup2\n        /* \"#utility.yul\":444:453   */\n      add\n        /* \"#utility.yul\":439:453   */\n      swap1\n      pop\n        /* \"#utility.yul\":404:640   */\n      jump(tag_80)\n    tag_82:\n        /* \"#utility.yul\":408:422   */\n      pop\n        /* \"#utility.yul\":126:646   */\n      pop\n      pop\n      swap4\n      swap3\n      pop\n      pop\n      pop\n      jump\t// out\n        /* \"#utility.yul\":652:791   */\n    tag_85:\n      0x00\n        /* \"#utility.yul\":736:742   */\n      dup2\n        /* \"#utility.yul\":723:743   */\n      calldataload\n        /* \"#utility.yul\":714:743   */\n      swap1\n      pop\n        /* \"#utility.yul\":752:785   */\n      tag_87\n        /* \"#utility.yul\":779:784   */\n      dup2\n        /* \"#utility.yul\":752:785   */\n      tag_88\n      jump\t// in\n    tag_87:\n        /* \"#utility.yul\":704:791   */\n      swap3\n      swap2\n      pop\n      pop\n      jump\t// out\n        /* \"#utility.yul\":814:1117   */\n    tag_89:\n      0x00\n        /* \"#utility.yul\":934:937   */\n      dup3\n        /* \"#utility.yul\":927:931   */\n      0x1f\n        /* \"#utility.yul\":919:925   */\n      dup4\n        /* \"#utility.yul\":915:932   */\n      add\n        /* \"#utility.yul\":911:938   */\n      slt\n        /* \"#utility.yul\":901:903   */\n      tag_91\n      jumpi\n        /* \"#utility.yul\":952:953   */\n      0x00\n        /* \"#utility.yul\":949:950   */\n      dup1\n        /* \"#utility.yul\":942:954   */\n      revert\n        /* \"#utility.yul\":901:903   */\n    tag_91:\n        /* \"#utility.yul\":992:998   */\n      dup2\n        /* \"#utility.yul\":979:999   */\n      calldataload\n        /* \"#utility.yul\":1017:1111   */\n      tag_92\n        /* \"#utility.yul\":1107:1110   */\n      dup5\n        /* \"#utility.yul\":1099:1105   */\n      dup3\n        /* \"#utility.yul\":1092:1096   */\n      0x20\n        /* \"#utility.yul\":1084:1090   */\n      dup7\n        /* \"#utility.yul\":1080:1097   */\n      add\n        /* \"#utility.yul\":1017:1111   */\n      tag_73\n      jump\t// in\n    tag_92:\n        /* \"#utility.yul\":1008:1111   */\n      swap2\n      pop\n        /* \"#utility.yul\":891:1117   */\n      pop\n      swap3\n      swap2\n      pop\n      pop\n      jump\t// out\n        /* \"#utility.yul\":1123:1262   */\n    tag_84:\n      0x00\n        /* \"#utility.yul\":1207:1213   */\n      dup2\n        /* \"#utility.yul\":1194:1214   */\n      calldataload\n        /* \"#utility.yul\":1185:1214   */\n      swap1\n      pop\n        /* \"#utility.yul\":1223:1256   */\n      tag_94\n        /* \"#utility.yul\":1250:1255   */\n      dup2\n        /* \"#utility.yul\":1223:1256   */\n      tag_95\n      jump\t// in\n    tag_94:\n        /* \"#utility.yul\":1175:1262   */\n      swap3\n      swap2\n      pop\n      pop\n      jump\t// out\n        /* \"#utility.yul\":1268:1407   */\n    tag_96:\n      0x00\n        /* \"#utility.yul\":1352:1358   */\n      dup2\n        /* \"#utility.yul\":1339:1359   */\n      calldataload\n        /* \"#utility.yul\":1330:1359   */\n      swap1\n      pop\n        /* \"#utility.yul\":1368:1401   */\n      tag_98\n        /* \"#utility.yul\":1395:1400   */\n      dup2\n        /* \"#utility.yul\":1368:1401   */\n      tag_99\n      jump\t// in\n    tag_98:\n        /* \"#utility.yul\":1320:1407   */\n      swap3\n      swap2\n      pop\n      pop\n      jump\t// out\n        /* \"#utility.yul\":1413:1675   */\n    tag_26:\n      0x00\n        /* \"#utility.yul\":1521:1523   */\n      0x20\n        /* \"#utility.yul\":1509:1518   */\n      dup3\n        /* \"#utility.yul\":1500:1507   */\n      dup5\n        /* \"#utility.yul\":1496:1519   */\n      sub\n        /* \"#utility.yul\":1492:1524   */\n      slt\n        /* \"#utility.yul\":1489:1491   */\n      iszero\n      tag_101\n      jumpi\n        /* \"#utility.yul\":1537:1538   */\n      0x00\n        /* \"#utility.yul\":1534:1535   */\n      dup1\n        /* \"#utility.yul\":1527:1539   */\n      revert\n        /* \"#utility.yul\":1489:1491   */\n    tag_101:\n        /* \"#utility.yul\":1580:1581   */\n      0x00\n        /* \"#utility.yul\":1605:1658   */\n      tag_102\n        /* \"#utility.yul\":1650:1657   */\n      dup5\n        /* \"#utility.yul\":1641:1647   */\n      dup3\n        /* \"#utility.yul\":1630:1639   */\n      dup6\n        /* \"#utility.yul\":1626:1648   */\n      add\n        /* \"#utility.yul\":1605:1658   */\n      tag_85\n      jump\t// in\n    tag_102:\n        /* \"#utility.yul\":1595:1658   */\n      swap2\n      pop\n        /* \"#utility.yul\":1551:1668   */\n      pop\n        /* \"#utility.yul\":1479:1675   */\n      swap3\n      swap2\n      pop\n      pop\n      jump\t// out\n        /* \"#utility.yul\":1681:2086   */\n    tag_38:\n      0x00\n        /* \"#utility.yul\":1814:1816   */\n      0x20\n        /* \"#utility.yul\":1802:1811   */\n      dup3\n        /* \"#utility.yul\":1793:1800   */\n      dup5\n        /* \"#utility.yul\":1789:1812   */\n      sub\n        /* \"#utility.yul\":1785:1817   */\n      slt\n        /* \"#utility.yul\":1782:1784   */\n      iszero\n      tag_104\n      jumpi\n        /* \"#utility.yul\":1830:1831   */\n      0x00\n        /* \"#utility.yul\":1827:1828   */\n      dup1\n        /* \"#utility.yul\":1820:1832   */\n      revert\n        /* \"#utility.yul\":1782:1784   */\n    tag_104:\n        /* \"#utility.yul\":1901:1902   */\n      0x00\n        /* \"#utility.yul\":1890:1899   */\n      dup3\n        /* \"#utility.yul\":1886:1903   */\n      add\n        /* \"#utility.yul\":1873:1904   */\n      calldataload\n        /* \"#utility.yul\":1931:1949   */\n      0xffffffffffffffff\n        /* \"#utility.yul\":1923:1929   */\n      dup2\n        /* \"#utility.yul\":1920:1950   */\n      gt\n        /* \"#utility.yul\":1917:1919   */\n      iszero\n      tag_105\n      jumpi\n        /* \"#utility.yul\":1963:1964   */\n      0x00\n        /* \"#utility.yul\":1960:1961   */\n      dup1\n        /* \"#utility.yul\":1953:1965   */\n      revert\n        /* \"#utility.yul\":1917:1919   */\n    tag_105:\n        /* \"#utility.yul\":1991:2069   */\n      tag_106\n        /* \"#utility.yul\":2061:2068   */\n      dup5\n        /* \"#utility.yul\":2052:2058   */\n      dup3\n        /* \"#utility.yul\":2041:2050   */\n      dup6\n        /* \"#utility.yul\":2037:2059   */\n      add\n        /* \"#utility.yul\":1991:2069   */\n      tag_89\n      jump\t// in\n    tag_106:\n        /* \"#utility.yul\":1981:2069   */\n      swap2\n      pop\n        /* \"#utility.yul\":1844:2079   */\n      pop\n        /* \"#utility.yul\":1772:2086   */\n      swap3\n      swap2\n      pop\n      pop\n      jump\t// out\n        /* \"#utility.yul\":2092:2354   */\n    tag_13:\n      0x00\n        /* \"#utility.yul\":2200:2202   */\n      0x20\n        /* \"#utility.yul\":2188:2197   */\n      dup3\n        /* \"#utility.yul\":2179:2186   */\n      dup5\n        /* \"#utility.yul\":2175:2198   */\n      sub\n        /* \"#utility.yul\":2171:2203   */\n      slt\n        /* \"#utility.yul\":2168:2170   */\n      iszero\n      tag_108\n      jumpi\n        /* \"#utility.yul\":2216:2217   */\n      0x00\n        /* \"#utility.yul\":2213:2214   */\n      dup1\n        /* \"#utility.yul\":2206:2218   */\n      revert\n        /* \"#utility.yul\":2168:2170   */\n    tag_108:\n        /* \"#utility.yul\":2259:2260   */\n      0x00\n        /* \"#utility.yul\":2284:2337   */\n      tag_109\n        /* \"#utility.yul\":2329:2336   */\n      dup5\n        /* \"#utility.yul\":2320:2326   */\n      dup3\n        /* \"#utility.yul\":2309:2318   */\n      dup6\n        /* \"#utility.yul\":2305:2327   */\n      add\n        /* \"#utility.yul\":2284:2337   */\n      tag_96\n      jump\t// in\n    tag_109:\n        /* \"#utility.yul\":2274:2337   */\n      swap2\n      pop\n        /* \"#utility.yul\":2230:2347   */\n      pop\n        /* \"#utility.yul\":2158:2354   */\n      swap3\n      swap2\n      pop\n      pop\n      jump\t// out\n        /* \"#utility.yul\":2360:2478   */\n    tag_110:\n        /* \"#utility.yul\":2447:2471   */\n      tag_112\n        /* \"#utility.yul\":2465:2470   */\n      dup2\n        /* \"#utility.yul\":2447:2471   */\n      tag_113\n      jump\t// in\n    tag_112:\n        /* \"#utility.yul\":2442:2445   */\n      dup3\n        /* \"#utility.yul\":2435:2472   */\n      mstore\n        /* \"#utility.yul\":2425:2478   */\n      pop\n      pop\n      jump\t// out\n        /* \"#utility.yul\":2484:2593   */\n    tag_114:\n        /* \"#utility.yul\":2565:2586   */\n      tag_116\n        /* \"#utility.yul\":2580:2585   */\n      dup2\n        /* \"#utility.yul\":2565:2586   */\n      tag_117\n      jump\t// in\n    tag_116:\n        /* \"#utility.yul\":2560:2563   */\n      dup3\n        /* \"#utility.yul\":2553:2587   */\n      mstore\n        /* \"#utility.yul\":2543:2593   */\n      pop\n      pop\n      jump\t// out\n        /* \"#utility.yul\":2599:2717   */\n    tag_118:\n        /* \"#utility.yul\":2686:2710   */\n      tag_120\n        /* \"#utility.yul\":2704:2709   */\n      dup2\n        /* \"#utility.yul\":2686:2710   */\n      tag_121\n      jump\t// in\n    tag_120:\n        /* \"#utility.yul\":2681:2684   */\n      dup3\n        /* \"#utility.yul\":2674:2711   */\n      mstore\n        /* \"#utility.yul\":2664:2717   */\n      pop\n      pop\n      jump\t// out\n        /* \"#utility.yul\":2723:2841   */\n    tag_122:\n        /* \"#utility.yul\":2810:2834   */\n      tag_124\n        /* \"#utility.yul\":2828:2833   */\n      dup2\n        /* \"#utility.yul\":2810:2834   */\n      tag_125\n      jump\t// in\n    tag_124:\n        /* \"#utility.yul\":2805:2808   */\n      dup3\n        /* \"#utility.yul\":2798:2835   */\n      mstore\n        /* \"#utility.yul\":2788:2841   */\n      pop\n      pop\n      jump\t// out\n        /* \"#utility.yul\":2847:3069   */\n    tag_23:\n      0x00\n        /* \"#utility.yul\":2978:2980   */\n      0x20\n        /* \"#utility.yul\":2967:2976   */\n      dup3\n        /* \"#utility.yul\":2963:2981   */\n      add\n        /* \"#utility.yul\":2955:2981   */\n      swap1\n      pop\n        /* \"#utility.yul\":2991:3062   */\n      tag_127\n        /* \"#utility.yul\":3059:3060   */\n      0x00\n        /* \"#utility.yul\":3048:3057   */\n      dup4\n        /* \"#utility.yul\":3044:3061   */\n      add\n        /* \"#utility.yul\":3035:3041   */\n      dup5\n        /* \"#utility.yul\":2991:3062   */\n      tag_110\n      jump\t// in\n    tag_127:\n        /* \"#utility.yul\":2945:3069   */\n      swap3\n      swap2\n      pop\n      pop\n      jump\t// out\n        /* \"#utility.yul\":3075:3407   */\n    tag_19:\n      0x00\n        /* \"#utility.yul\":3234:3236   */\n      0x40\n        /* \"#utility.yul\":3223:3232   */\n      dup3\n        /* \"#utility.yul\":3219:3237   */\n      add\n        /* \"#utility.yul\":3211:3237   */\n      swap1\n      pop\n        /* \"#utility.yul\":3247:3318   */\n      tag_129\n        /* \"#utility.yul\":3315:3316   */\n      0x00\n        /* \"#utility.yul\":3304:3313   */\n      dup4\n        /* \"#utility.yul\":3300:3317   */\n      add\n        /* \"#utility.yul\":3291:3297   */\n      dup6\n        /* \"#utility.yul\":3247:3318   */\n      tag_118\n      jump\t// in\n    tag_129:\n        /* \"#utility.yul\":3328:3400   */\n      tag_130\n        /* \"#utility.yul\":3396:3398   */\n      0x20\n        /* \"#utility.yul\":3385:3394   */\n      dup4\n        /* \"#utility.yul\":3381:3399   */\n      add\n        /* \"#utility.yul\":3372:3378   */\n      dup5\n        /* \"#utility.yul\":3328:3400   */\n      tag_122\n      jump\t// in\n    tag_130:\n        /* \"#utility.yul\":3201:3407   */\n      swap4\n      swap3\n      pop\n      pop\n      pop\n      jump\t// out\n        /* \"#utility.yul\":3413:3954   */\n    tag_35:\n      0x00\n        /* \"#utility.yul\":3622:3625   */\n      0x80\n        /* \"#utility.yul\":3611:3620   */\n      dup3\n        /* \"#utility.yul\":3607:3626   */\n      add\n        /* \"#utility.yul\":3599:3626   */\n      swap1\n      pop\n        /* \"#utility.yul\":3636:3707   */\n      tag_132\n        /* \"#utility.yul\":3704:3705   */\n      0x00\n        /* \"#utility.yul\":3693:3702   */\n      dup4\n        /* \"#utility.yul\":3689:3706   */\n      add\n        /* \"#utility.yul\":3680:3686   */\n      dup8\n        /* \"#utility.yul\":3636:3707   */\n      tag_122\n      jump\t// in\n    tag_132:\n        /* \"#utility.yul\":3717:3783   */\n      tag_133\n        /* \"#utility.yul\":3779:3781   */\n      0x20\n        /* \"#utility.yul\":3768:3777   */\n      dup4\n        /* \"#utility.yul\":3764:3782   */\n      add\n        /* \"#utility.yul\":3755:3761   */\n      dup7\n        /* \"#utility.yul\":3717:3783   */\n      tag_114\n      jump\t// in\n    tag_133:\n        /* \"#utility.yul\":3793:3865   */\n      tag_134\n        /* \"#utility.yul\":3861:3863   */\n      0x40\n        /* \"#utility.yul\":3850:3859   */\n      dup4\n        /* \"#utility.yul\":3846:3864   */\n      add\n        /* \"#utility.yul\":3837:3843   */\n      dup6\n        /* \"#utility.yul\":3793:3865   */\n      tag_110\n      jump\t// in\n    tag_134:\n        /* \"#utility.yul\":3875:3947   */\n      tag_135\n        /* \"#utility.yul\":3943:3945   */\n      0x60\n        /* \"#utility.yul\":3932:3941   */\n      dup4\n        /* \"#utility.yul\":3928:3946   */\n      add\n        /* \"#utility.yul\":3919:3925   */\n      dup5\n        /* \"#utility.yul\":3875:3947   */\n      tag_122\n      jump\t// in\n    tag_135:\n        /* \"#utility.yul\":3589:3954   */\n      swap6\n      swap5\n      pop\n      pop\n      pop\n      pop\n      pop\n      jump\t// out\n        /* \"#utility.yul\":3960:4243   */\n    tag_78:\n      0x00\n        /* \"#utility.yul\":4026:4028   */\n      0x40\n        /* \"#utility.yul\":4020:4029   */\n      mload\n        /* \"#utility.yul\":4010:4029   */\n      swap1\n      pop\n        /* \"#utility.yul\":4068:4072   */\n      dup2\n        /* \"#utility.yul\":4060:4066   */\n      dup2\n        /* \"#utility.yul\":4056:4073   */\n      add\n        /* \"#utility.yul\":4175:4181   */\n      dup2\n        /* \"#utility.yul\":4163:4173   */\n      dup2\n        /* \"#utility.yul\":4160:4182   */\n      lt\n        /* \"#utility.yul\":4139:4157   */\n      0xffffffffffffffff\n        /* \"#utility.yul\":4127:4137   */\n      dup3\n        /* \"#utility.yul\":4124:4158   */\n      gt\n        /* \"#utility.yul\":4121:4183   */\n      or\n        /* \"#utility.yul\":4118:4120   */\n      iszero\n      tag_137\n      jumpi\n        /* \"#utility.yul\":4186:4204   */\n      tag_138\n      tag_139\n      jump\t// in\n    tag_138:\n        /* \"#utility.yul\":4118:4120   */\n    tag_137:\n        /* \"#utility.yul\":4226:4236   */\n      dup1\n        /* \"#utility.yul\":4222:4224   */\n      0x40\n        /* \"#utility.yul\":4215:4237   */\n      mstore\n        /* \"#utility.yul\":4000:4243   */\n      pop\n      swap2\n      swap1\n      pop\n      jump\t// out\n        /* \"#utility.yul\":4249:4560   */\n    tag_77:\n      0x00\n        /* \"#utility.yul\":4416:4434   */\n      0xffffffffffffffff\n        /* \"#utility.yul\":4408:4414   */\n      dup3\n        /* \"#utility.yul\":4405:4435   */\n      gt\n        /* \"#utility.yul\":4402:4404   */\n      iszero\n      tag_141\n      jumpi\n        /* \"#utility.yul\":4438:4456   */\n      tag_142\n      tag_139\n      jump\t// in\n    tag_142:\n        /* \"#utility.yul\":4402:4404   */\n    tag_141:\n        /* \"#utility.yul\":4488:4492   */\n      0x20\n        /* \"#utility.yul\":4480:4486   */\n      dup3\n        /* \"#utility.yul\":4476:4493   */\n      mul\n        /* \"#utility.yul\":4468:4493   */\n      swap1\n      pop\n        /* \"#utility.yul\":4548:4552   */\n      0x20\n        /* \"#utility.yul\":4542:4546   */\n      dup2\n        /* \"#utility.yul\":4538:4553   */\n      add\n        /* \"#utility.yul\":4530:4553   */\n      swap1\n      pop\n        /* \"#utility.yul\":4331:4560   */\n      swap2\n      swap1\n      pop\n      jump\t// out\n        /* \"#utility.yul\":4566:4871   */\n    tag_45:\n      0x00\n        /* \"#utility.yul\":4625:4645   */\n      tag_144\n        /* \"#utility.yul\":4643:4644   */\n      dup3\n        /* \"#utility.yul\":4625:4645   */\n      tag_125\n      jump\t// in\n    tag_144:\n        /* \"#utility.yul\":4620:4645   */\n      swap2\n      pop\n        /* \"#utility.yul\":4659:4679   */\n      tag_145\n        /* \"#utility.yul\":4677:4678   */\n      dup4\n        /* \"#utility.yul\":4659:4679   */\n      tag_125\n      jump\t// in\n    tag_145:\n        /* \"#utility.yul\":4654:4679   */\n      swap3\n      pop\n        /* \"#utility.yul\":4813:4814   */\n      dup3\n        /* \"#utility.yul\":4745:4811   */\n      0xffffffffffffffffffffffffffffffffffffffffffffffffffffffffffffffff\n        /* \"#utility.yul\":4741:4815   */\n      sub\n        /* \"#utility.yul\":4738:4739   */\n      dup3\n        /* \"#utility.yul\":4735:4816   */\n      gt\n        /* \"#utility.yul\":4732:4734   */\n      iszero\n      tag_146\n      jumpi\n        /* \"#utility.yul\":4819:4837   */\n      tag_147\n      tag_148\n      jump\t// in\n    tag_147:\n        /* \"#utility.yul\":4732:4734   */\n    tag_146:\n        /* \"#utility.yul\":4863:4864   */\n      dup3\n        /* \"#utility.yul\":4860:4861   */\n      dup3\n        /* \"#utility.yul\":4856:4865   */\n      add\n        /* \"#utility.yul\":4849:4865   */\n      swap1\n      pop\n        /* \"#utility.yul\":4610:4871   */\n      swap3\n      swap2\n      pop\n      pop\n      jump\t// out\n        /* \"#utility.yul\":4877:4973   */\n    tag_113:\n      0x00\n        /* \"#utility.yul\":4943:4967   */\n      tag_150\n        /* \"#utility.yul\":4961:4966   */\n      dup3\n        /* \"#utility.yul\":4943:4967   */\n      tag_151\n      jump\t// in\n    tag_150:\n        /* \"#utility.yul\":4932:4967   */\n      swap1\n      pop\n        /* \"#utility.yul\":4922:4973   */\n      swap2\n      swap1\n      pop\n      jump\t// out\n        /* \"#utility.yul\":4979:5069   */\n    tag_117:\n      0x00\n        /* \"#utility.yul\":5056:5061   */\n      dup2\n        /* \"#utility.yul\":5049:5062   */\n      iszero\n        /* \"#utility.yul\":5042:5063   */\n      iszero\n        /* \"#utility.yul\":5031:5063   */\n      swap1\n      pop\n        /* \"#utility.yul\":5021:5069   */\n      swap2\n      swap1\n      pop\n      jump\t// out\n        /* \"#utility.yul\":5075:5152   */\n    tag_121:\n      0x00\n        /* \"#utility.yul\":5141:5146   */\n      dup2\n        /* \"#utility.yul\":5130:5146   */\n      swap1\n      pop\n        /* \"#utility.yul\":5120:5152   */\n      swap2\n      swap1\n      pop\n      jump\t// out\n        /* \"#utility.yul\":5158:5284   */\n    tag_151:\n      0x00\n        /* \"#utility.yul\":5235:5277   */\n      0xffffffffffffffffffffffffffffffffffffffff\n        /* \"#utility.yul\":5228:5233   */\n      dup3\n        /* \"#utility.yul\":5224:5278   */\n      and\n        /* \"#utility.yul\":5213:5278   */\n      swap1\n      pop\n        /* \"#utility.yul\":5203:5284   */\n      swap2\n      swap1\n      pop\n      jump\t// out\n        /* \"#utility.yul\":5290:5367   */\n    tag_125:\n      0x00\n        /* \"#utility.yul\":5356:5361   */\n      dup2\n        /* \"#utility.yul\":5345:5361   */\n      swap1\n      pop\n        /* \"#utility.yul\":5335:5367   */\n      swap2\n      swap1\n      pop\n      jump\t// out\n        /* \"#utility.yul\":5373:5606   */\n    tag_71:\n      0x00\n        /* \"#utility.yul\":5435:5459   */\n      tag_157\n        /* \"#utility.yul\":5453:5458   */\n      dup3\n        /* \"#utility.yul\":5435:5459   */\n      tag_125\n      jump\t// in\n    tag_157:\n        /* \"#utility.yul\":5426:5459   */\n      swap2\n      pop\n        /* \"#utility.yul\":5481:5547   */\n      0xffffffffffffffffffffffffffffffffffffffffffffffffffffffffffffffff\n        /* \"#utility.yul\":5474:5479   */\n      dup3\n        /* \"#utility.yul\":5471:5548   */\n      eq\n        /* \"#utility.yul\":5468:5470   */\n      iszero\n      tag_158\n      jumpi\n        /* \"#utility.yul\":5551:5569   */\n      tag_159\n      tag_148\n      jump\t// in\n    tag_159:\n        /* \"#utility.yul\":5468:5470   */\n    tag_158:\n        /* \"#utility.yul\":5598:5599   */\n      0x01\n        /* \"#utility.yul\":5591:5596   */\n      dup3\n        /* \"#utility.yul\":5587:5600   */\n      add\n        /* \"#utility.yul\":5580:5600   */\n      swap1\n      pop\n        /* \"#utility.yul\":5416:5606   */\n      swap2\n      swap1\n      pop\n      jump\t// out\n        /* \"#utility.yul\":5612:5792   */\n    tag_148:\n        /* \"#utility.yul\":5660:5737   */\n      0x4e487b7100000000000000000000000000000000000000000000000000000000\n        /* \"#utility.yul\":5657:5658   */\n      0x00\n        /* \"#utility.yul\":5650:5738   */\n      mstore\n        /* \"#utility.yul\":5757:5761   */\n      0x11\n        /* \"#utility.yul\":5754:5755   */\n      0x04\n        /* \"#utility.yul\":5747:5762   */\n      mstore\n        /* \"#utility.yul\":5781:5785   */\n      0x24\n        /* \"#utility.yul\":5778:5779   */\n      0x00\n        /* \"#utility.yul\":5771:5786   */\n      revert\n        /* \"#utility.yul\":5798:5978   */\n    tag_139:\n        /* \"#utility.yul\":5846:5923   */\n      0x4e487b7100000000000000000000000000000000000000000000000000000000\n        /* \"#utility.yul\":5843:5844   */\n      0x00\n        /* \"#utility.yul\":5836:5924   */\n      mstore\n        /* \"#utility.yul\":5943:5947   */\n      0x41\n        /* \"#utility.yul\":5940:5941   */\n      0x04\n        /* \"#utility.yul\":5933:5948   */\n      mstore\n        /* \"#utility.yul\":5967:5971   */\n      0x24\n        /* \"#utility.yul\":5964:5965   */\n      0x00\n        /* \"#utility.yul\":5957:5972   */\n      revert\n        /* \"#utility.yul\":5984:6106   */\n    tag_88:\n        /* \"#utility.yul\":6057:6081   */\n      tag_163\n        /* \"#utility.yul\":6075:6080   */\n      dup2\n        /* \"#utility.yul\":6057:6081   */\n      tag_113\n      jump\t// in\n    tag_163:\n        /* \"#utility.yul\":6050:6055   */\n      dup2\n        /* \"#utility.yul\":6047:6082   */\n      eq\n        /* \"#utility.yul\":6037:6039   */\n      tag_164\n      jumpi\n        /* \"#utility.yul\":6096:6097   */\n      0x00\n        /* \"#utility.yul\":6093:6094   */\n      dup1\n        /* \"#utility.yul\":6086:6098   */\n      revert\n        /* \"#utility.yul\":6037:6039   */\n    tag_164:\n        /* \"#utility.yul\":6027:6106   */\n      pop\n      jump\t// out\n        /* \"#utility.yul\":6112:6234   */\n    tag_95:\n        /* \"#utility.yul\":6185:6209   */\n      tag_166\n        /* \"#utility.yul\":6203:6208   */\n      dup2\n        /* \"#utility.yul\":6185:6209   */\n      tag_121\n      jump\t// in\n    tag_166:\n        /* \"#utility.yul\":6178:6183   */\n      dup2\n        /* \"#utility.yul\":6175:6210   */\n      eq\n        /* \"#utility.yul\":6165:6167   */\n      tag_167\n      jumpi\n        /* \"#utility.yul\":6224:6225   */\n      0x00\n        /* \"#utility.yul\":6221:6222   */\n      dup1\n        /* \"#utility.yul\":6214:6226   */\n      revert\n        /* \"#utility.yul\":6165:6167   */\n    tag_167:\n        /* \"#utility.yul\":6155:6234   */\n      pop\n      jump\t// out\n        /* \"#utility.yul\":6240:6362   */\n    tag_99:\n        /* \"#utility.yul\":6313:6337   */\n      tag_169\n        /* \"#utility.yul\":6331:6336   */\n      dup2\n        /* \"#utility.yul\":6313:6337   */\n      tag_125\n      jump\t// in\n    tag_169:\n        /* \"#utility.yul\":6306:6311   */\n      dup2\n        /* \"#utility.yul\":6303:6338   */\n      eq\n        /* \"#utility.yul\":6293:6295   */\n      tag_170\n      jumpi\n        /* \"#utility.yul\":6352:6353   */\n      0x00\n        /* \"#utility.yul\":6349:6350   */\n      dup1\n        /* \"#utility.yul\":6342:6354   */\n      revert\n        /* \"#utility.yul\":6293:6295   */\n    tag_170:\n        /* \"#utility.yul\":6283:6362   */\n      pop\n      jump\t// out\n\n    auxdata: 0xa2646970667358221220a04eedbc82578074863b265e7a30e443632a5dd49038ea409a6b4cced9b1028864736f6c63430008000033\n}\n",
				"bytecode": {
					"linkReferences": {},
					"object": "608060405234801561001057600080fd5b50610d37806100206000396000f3fe608060405234801561001057600080fd5b506004361061007d5760003560e01c80635c19a95c1161005b5780635c19a95c146100ed5780639e7b8d6114610109578063a3ec138d14610125578063c106269c146101585761007d565b80630121b93f14610082578063013cf08b1461009e5780632e4176cf146100cf575b600080fd5b61009c60048036038101906100979190610a22565b610174565b005b6100b860048036038101906100b39190610a22565b610263565b6040516100c6929190610aa2565b60405180910390f35b6100d7610297565b6040516100e49190610a87565b60405180910390f35b610107600480360381019061010291906109b8565b6102bb565b005b610123600480360381019061011e91906109b8565b6105db565b005b61013f600480360381019061013a91906109b8565b610724565b60405161014f9493929190610acb565b60405180910390f35b610172600480360381019061016d91906109e1565b610781565b005b6000600160003373ffffffffffffffffffffffffffffffffffffffff1673ffffffffffffffffffffffffffffffffffffffff16815260200190815260200160002090508060010160009054906101000a900460ff16156101d357600080fd5b60018160010160006101000a81548160ff021916908315150217905550818160020181905550806000015460028381548110610238577f4e487b7100000000000000000000000000000000000000000000000000000000600052603260045260246000fd5b906000526020600020906002020160010160008282546102589190610b6d565b925050819055505050565b6002818154811061027357600080fd5b90600052602060002090600202016000915090508060000154908060010154905082565b60008054906101000a900473ffffffffffffffffffffffffffffffffffffffff1681565b6000600160003373ffffffffffffffffffffffffffffffffffffffff1673ffffffffffffffffffffffffffffffffffffffff16815260200190815260200160002090508060010160009054906101000a900460ff161561031a57600080fd5b3373ffffffffffffffffffffffffffffffffffffffff168273ffffffffffffffffffffffffffffffffffffffff16141561035357600080fd5b5b600073ffffffffffffffffffffffffffffffffffffffff16600160008473ffffffffffffffffffffffffffffffffffffffff1673ffffffffffffffffffffffffffffffffffffffff16815260200190815260200160002060010160019054906101000a900473ffffffffffffffffffffffffffffffffffffffff1673ffffffffffffffffffffffffffffffffffffffff161461048d57600160008373ffffffffffffffffffffffffffffffffffffffff1673ffffffffffffffffffffffffffffffffffffffff16815260200190815260200160002060010160019054906101000a900473ffffffffffffffffffffffffffffffffffffffff1691503373ffffffffffffffffffffffffffffffffffffffff168273ffffffffffffffffffffffffffffffffffffffff16141561048857600080fd5b610354565b60018160010160006101000a81548160ff021916908315150217905550818160010160016101000a81548173ffffffffffffffffffffffffffffffffffffffff021916908373ffffffffffffffffffffffffffffffffffffffff1602179055506000600160008473ffffffffffffffffffffffffffffffffffffffff1673ffffffffffffffffffffffffffffffffffffffff16815260200190815260200160002090508060010160009054906101000a900460ff16156105b6578160000154600282600201548154811061058a577f4e487b7100000000000000000000000000000000000000000000000000000000600052603260045260246000fd5b906000526020600020906002020160010160008282546105aa9190610b6d565b925050819055506105d6565b81600001548160000160008282546105ce9190610b6d565b925050819055505b505050565b60008054906101000a900473ffffffffffffffffffffffffffffffffffffffff1673ffffffffffffffffffffffffffffffffffffffff163373ffffffffffffffffffffffffffffffffffffffff161480156106835750600160008273ffffffffffffffffffffffffffffffffffffffff1673ffffffffffffffffffffffffffffffffffffffff16815260200190815260200160002060010160009054906101000a900460ff16155b80156106d157506000600160008373ffffffffffffffffffffffffffffffffffffffff1673ffffffffffffffffffffffffffffffffffffffff16815260200190815260200160002060000154145b6106da57600080fd5b60018060008373ffffffffffffffffffffffffffffffffffffffff1673ffffffffffffffffffffffffffffffffffffffff1681526020019081526020016000206000018190555050565b60016020528060005260406000206000915090508060000154908060010160009054906101000a900460ff16908060010160019054906101000a900473ffffffffffffffffffffffffffffffffffffffff16908060020154905084565b336000806101000a81548173ffffffffffffffffffffffffffffffffffffffff021916908373ffffffffffffffffffffffffffffffffffffffff16021790555060018060008060009054906101000a900473ffffffffffffffffffffffffffffffffffffffff1673ffffffffffffffffffffffffffffffffffffffff1673ffffffffffffffffffffffffffffffffffffffff1681526020019081526020016000206000018190555060005b81518110156108df576002604051806040016040528084848151811061087b577f4e487b7100000000000000000000000000000000000000000000000000000000600052603260045260246000fd5b60200260200101518152602001600081525090806001815401808255809150506001900390600052602060002090600202016000909190919091506000820151816000015560208201518160010155505080806108d790610c15565b91505061082c565b5050565b60006108f66108f184610b41565b610b10565b9050808382526020820190508285602086028201111561091557600080fd5b60005b85811015610945578161092b888261098e565b845260208401935060208301925050600181019050610918565b5050509392505050565b60008135905061095e81610cbc565b92915050565b600082601f83011261097557600080fd5b81356109858482602086016108e3565b91505092915050565b60008135905061099d81610cd3565b92915050565b6000813590506109b281610cea565b92915050565b6000602082840312156109ca57600080fd5b60006109d88482850161094f565b91505092915050565b6000602082840312156109f357600080fd5b600082013567ffffffffffffffff811115610a0d57600080fd5b610a1984828501610964565b91505092915050565b600060208284031215610a3457600080fd5b6000610a42848285016109a3565b91505092915050565b610a5481610bc3565b82525050565b610a6381610bd5565b82525050565b610a7281610be1565b82525050565b610a8181610c0b565b82525050565b6000602082019050610a9c6000830184610a4b565b92915050565b6000604082019050610ab76000830185610a69565b610ac46020830184610a78565b9392505050565b6000608082019050610ae06000830187610a78565b610aed6020830186610a5a565b610afa6040830185610a4b565b610b076060830184610a78565b95945050505050565b6000604051905081810181811067ffffffffffffffff82111715610b3757610b36610c8d565b5b8060405250919050565b600067ffffffffffffffff821115610b5c57610b5b610c8d565b5b602082029050602081019050919050565b6000610b7882610c0b565b9150610b8383610c0b565b9250827fffffffffffffffffffffffffffffffffffffffffffffffffffffffffffffffff03821115610bb857610bb7610c5e565b5b828201905092915050565b6000610bce82610beb565b9050919050565b60008115159050919050565b6000819050919050565b600073ffffffffffffffffffffffffffffffffffffffff82169050919050565b6000819050919050565b6000610c2082610c0b565b91507fffffffffffffffffffffffffffffffffffffffffffffffffffffffffffffffff821415610c5357610c52610c5e565b5b600182019050919050565b7f4e487b7100000000000000000000000000000000000000000000000000000000600052601160045260246000fd5b7f4e487b7100000000000000000000000000000000000000000000000000000000600052604160045260246000fd5b610cc581610bc3565b8114610cd057600080fd5b50565b610cdc81610be1565b8114610ce757600080fd5b50565b610cf381610c0b565b8114610cfe57600080fd5b5056fea2646970667358221220a04eedbc82578074863b265e7a30e443632a5dd49038ea409a6b4cced9b1028864736f6c63430008000033",
					"opcodes": "PUSH1 0x80 PUSH1 0x40 MSTORE CALLVALUE DUP1 ISZERO PUSH2 0x10 JUMPI PUSH1 0x0 DUP1 REVERT JUMPDEST POP PUSH2 0xD37 DUP1 PUSH2 0x20 PUSH1 0x0 CODECOPY PUSH1 0x0 RETURN INVALID PUSH1 0x80 PUSH1 0x40 MSTORE CALLVALUE DUP1 ISZERO PUSH2 0x10 JUMPI PUSH1 0x0 DUP1 REVERT JUMPDEST POP PUSH1 0x4 CALLDATASIZE LT PUSH2 0x7D JUMPI PUSH1 0x0 CALLDATALOAD PUSH1 0xE0 SHR DUP1 PUSH4 0x5C19A95C GT PUSH2 0x5B JUMPI DUP1 PUSH4 0x5C19A95C EQ PUSH2 0xED JUMPI DUP1 PUSH4 0x9E7B8D61 EQ PUSH2 0x109 JUMPI DUP1 PUSH4 0xA3EC138D EQ PUSH2 0x125 JUMPI DUP1 PUSH4 0xC106269C EQ PUSH2 0x158 JUMPI PUSH2 0x7D JUMP JUMPDEST DUP1 PUSH4 0x121B93F EQ PUSH2 0x82 JUMPI DUP1 PUSH4 0x13CF08B EQ PUSH2 0x9E JUMPI DUP1 PUSH4 0x2E4176CF EQ PUSH2 0xCF JUMPI JUMPDEST PUSH1 0x0 DUP1 REVERT JUMPDEST PUSH2 0x9C PUSH1 0x4 DUP1 CALLDATASIZE SUB DUP2 ADD SWAP1 PUSH2 0x97 SWAP2 SWAP1 PUSH2 0xA22 JUMP JUMPDEST PUSH2 0x174 JUMP JUMPDEST STOP JUMPDEST PUSH2 0xB8 PUSH1 0x4 DUP1 CALLDATASIZE SUB DUP2 ADD SWAP1 PUSH2 0xB3 SWAP2 SWAP1 PUSH2 0xA22 JUMP JUMPDEST PUSH2 0x263 JUMP JUMPDEST PUSH1 0x40 MLOAD PUSH2 0xC6 SWAP3 SWAP2 SWAP1 PUSH2 0xAA2 JUMP JUMPDEST PUSH1 0x40 MLOAD DUP1 SWAP2 SUB SWAP1 RETURN JUMPDEST PUSH2 0xD7 PUSH2 0x297 JUMP JUMPDEST PUSH1 0x40 MLOAD PUSH2 0xE4 SWAP2 SWAP1 PUSH2 0xA87 JUMP JUMPDEST PUSH1 0x40 MLOAD DUP1 SWAP2 SUB SWAP1 RETURN JUMPDEST PUSH2 0x107 PUSH1 0x4 DUP1 CALLDATASIZE SUB DUP2 ADD SWAP1 PUSH2 0x102 SWAP2 SWAP1 PUSH2 0x9B8 JUMP JUMPDEST PUSH2 0x2BB JUMP JUMPDEST STOP JUMPDEST PUSH2 0x123 PUSH1 0x4 DUP1 CALLDATASIZE SUB DUP2 ADD SWAP1 PUSH2 0x11E SWAP2 SWAP1 PUSH2 0x9B8 JUMP JUMPDEST PUSH2 0x5DB JUMP JUMPDEST STOP JUMPDEST PUSH2 0x13F PUSH1 0x4 DUP1 CALLDATASIZE SUB DUP2 ADD SWAP1 PUSH2 0x13A SWAP2 SWAP1 PUSH2 0x9B8 JUMP JUMPDEST PUSH2 0x724 JUMP JUMPDEST PUSH1 0x40 MLOAD PUSH2 0x14F SWAP5 SWAP4 SWAP3 SWAP2 SWAP1 PUSH2 0xACB JUMP JUMPDEST PUSH1 0x40 MLOAD DUP1 SWAP2 SUB SWAP1 RETURN JUMPDEST PUSH2 0x172 PUSH1 0x4 DUP1 CALLDATASIZE SUB DUP2 ADD SWAP1 PUSH2 0x16D SWAP2 SWAP1 PUSH2 0x9E1 JUMP JUMPDEST PUSH2 0x781 JUMP JUMPDEST STOP JUMPDEST PUSH1 0x0 PUSH1 0x1 PUSH1 0x0 CALLER PUSH20 0xFFFFFFFFFFFFFFFFFFFFFFFFFFFFFFFFFFFFFFFF AND PUSH20 0xFFFFFFFFFFFFFFFFFFFFFFFFFFFFFFFFFFFFFFFF AND DUP2 MSTORE PUSH1 0x20 ADD SWAP1 DUP2 MSTORE PUSH1 0x20 ADD PUSH1 0x0 KECCAK256 SWAP1 POP DUP1 PUSH1 0x1 ADD PUSH1 0x0 SWAP1 SLOAD SWAP1 PUSH2 0x100 EXP SWAP1 DIV PUSH1 0xFF AND ISZERO PUSH2 0x1D3 JUMPI PUSH1 0x0 DUP1 REVERT JUMPDEST PUSH1 0x1 DUP2 PUSH1 0x1 ADD PUSH1 0x0 PUSH2 0x100 EXP DUP2 SLOAD DUP2 PUSH1 0xFF MUL NOT AND SWAP1 DUP4 ISZERO ISZERO MUL OR SWAP1 SSTORE POP DUP2 DUP2 PUSH1 0x2 ADD DUP2 SWAP1 SSTORE POP DUP1 PUSH1 0x0 ADD SLOAD PUSH1 0x2 DUP4 DUP2 SLOAD DUP2 LT PUSH2 0x238 JUMPI PUSH32 0x4E487B7100000000000000000000000000000000000000000000000000000000 PUSH1 0x0 MSTORE PUSH1 0x32 PUSH1 0x4 MSTORE PUSH1 0x24 PUSH1 0x0 REVERT JUMPDEST SWAP1 PUSH1 0x0 MSTORE PUSH1 0x20 PUSH1 0x0 KECCAK256 SWAP1 PUSH1 0x2 MUL ADD PUSH1 0x1 ADD PUSH1 0x0 DUP3 DUP3 SLOAD PUSH2 0x258 SWAP2 SWAP1 PUSH2 0xB6D JUMP JUMPDEST SWAP3 POP POP DUP2 SWAP1 SSTORE POP POP POP JUMP JUMPDEST PUSH1 0x2 DUP2 DUP2 SLOAD DUP2 LT PUSH2 0x273 JUMPI PUSH1 0x0 DUP1 REVERT JUMPDEST SWAP1 PUSH1 0x0 MSTORE PUSH1 0x20 PUSH1 0x0 KECCAK256 SWAP1 PUSH1 0x2 MUL ADD PUSH1 0x0 SWAP2 POP SWAP1 POP DUP1 PUSH1 0x0 ADD SLOAD SWAP1 DUP1 PUSH1 0x1 ADD SLOAD SWAP1 POP DUP3 JUMP JUMPDEST PUSH1 0x0 DUP1 SLOAD SWAP1 PUSH2 0x100 EXP SWAP1 DIV PUSH20 0xFFFFFFFFFFFFFFFFFFFFFFFFFFFFFFFFFFFFFFFF AND DUP2 JUMP JUMPDEST PUSH1 0x0 PUSH1 0x1 PUSH1 0x0 CALLER PUSH20 0xFFFFFFFFFFFFFFFFFFFFFFFFFFFFFFFFFFFFFFFF AND PUSH20 0xFFFFFFFFFFFFFFFFFFFFFFFFFFFFFFFFFFFFFFFF AND DUP2 MSTORE PUSH1 0x20 ADD SWAP1 DUP2 MSTORE PUSH1 0x20 ADD PUSH1 0x0 KECCAK256 SWAP1 POP DUP1 PUSH1 0x1 ADD PUSH1 0x0 SWAP1 SLOAD SWAP1 PUSH2 0x100 EXP SWAP1 DIV PUSH1 0xFF AND ISZERO PUSH2 0x31A JUMPI PUSH1 0x0 DUP1 REVERT JUMPDEST CALLER PUSH20 0xFFFFFFFFFFFFFFFFFFFFFFFFFFFFFFFFFFFFFFFF AND DUP3 PUSH20 0xFFFFFFFFFFFFFFFFFFFFFFFFFFFFFFFFFFFFFFFF AND EQ ISZERO PUSH2 0x353 JUMPI PUSH1 0x0 DUP1 REVERT JUMPDEST JUMPDEST PUSH1 0x0 PUSH20 0xFFFFFFFFFFFFFFFFFFFFFFFFFFFFFFFFFFFFFFFF AND PUSH1 0x1 PUSH1 0x0 DUP5 PUSH20 0xFFFFFFFFFFFFFFFFFFFFFFFFFFFFFFFFFFFFFFFF AND PUSH20 0xFFFFFFFFFFFFFFFFFFFFFFFFFFFFFFFFFFFFFFFF AND DUP2 MSTORE PUSH1 0x20 ADD SWAP1 DUP2 MSTORE PUSH1 0x20 ADD PUSH1 0x0 KECCAK256 PUSH1 0x1 ADD PUSH1 0x1 SWAP1 SLOAD SWAP1 PUSH2 0x100 EXP SWAP1 DIV PUSH20 0xFFFFFFFFFFFFFFFFFFFFFFFFFFFFFFFFFFFFFFFF AND PUSH20 0xFFFFFFFFFFFFFFFFFFFFFFFFFFFFFFFFFFFFFFFF AND EQ PUSH2 0x48D JUMPI PUSH1 0x1 PUSH1 0x0 DUP4 PUSH20 0xFFFFFFFFFFFFFFFFFFFFFFFFFFFFFFFFFFFFFFFF AND PUSH20 0xFFFFFFFFFFFFFFFFFFFFFFFFFFFFFFFFFFFFFFFF AND DUP2 MSTORE PUSH1 0x20 ADD SWAP1 DUP2 MSTORE PUSH1 0x20 ADD PUSH1 0x0 KECCAK256 PUSH1 0x1 ADD PUSH1 0x1 SWAP1 SLOAD SWAP1 PUSH2 0x100 EXP SWAP1 DIV PUSH20 0xFFFFFFFFFFFFFFFFFFFFFFFFFFFFFFFFFFFFFFFF AND SWAP2 POP CALLER PUSH20 0xFFFFFFFFFFFFFFFFFFFFFFFFFFFFFFFFFFFFFFFF AND DUP3 PUSH20 0xFFFFFFFFFFFFFFFFFFFFFFFFFFFFFFFFFFFFFFFF AND EQ ISZERO PUSH2 0x488 JUMPI PUSH1 0x0 DUP1 REVERT JUMPDEST PUSH2 0x354 JUMP JUMPDEST PUSH1 0x1 DUP2 PUSH1 0x1 ADD PUSH1 0x0 PUSH2 0x100 EXP DUP2 SLOAD DUP2 PUSH1 0xFF MUL NOT AND SWAP1 DUP4 ISZERO ISZERO MUL OR SWAP1 SSTORE POP DUP2 DUP2 PUSH1 0x1 ADD PUSH1 0x1 PUSH2 0x100 EXP DUP2 SLOAD DUP2 PUSH20 0xFFFFFFFFFFFFFFFFFFFFFFFFFFFFFFFFFFFFFFFF MUL NOT AND SWAP1 DUP4 PUSH20 0xFFFFFFFFFFFFFFFFFFFFFFFFFFFFFFFFFFFFFFFF AND MUL OR SWAP1 SSTORE POP PUSH1 0x0 PUSH1 0x1 PUSH1 0x0 DUP5 PUSH20 0xFFFFFFFFFFFFFFFFFFFFFFFFFFFFFFFFFFFFFFFF AND PUSH20 0xFFFFFFFFFFFFFFFFFFFFFFFFFFFFFFFFFFFFFFFF AND DUP2 MSTORE PUSH1 0x20 ADD SWAP1 DUP2 MSTORE PUSH1 0x20 ADD PUSH1 0x0 KECCAK256 SWAP1 POP DUP1 PUSH1 0x1 ADD PUSH1 0x0 SWAP1 SLOAD SWAP1 PUSH2 0x100 EXP SWAP1 DIV PUSH1 0xFF AND ISZERO PUSH2 0x5B6 JUMPI DUP2 PUSH1 0x0 ADD SLOAD PUSH1 0x2 DUP3 PUSH1 0x2 ADD SLOAD DUP2 SLOAD DUP2 LT PUSH2 0x58A JUMPI PUSH32 0x4E487B7100000000000000000000000000000000000000000000000000000000 PUSH1 0x0 MSTORE PUSH1 0x32 PUSH1 0x4 MSTORE PUSH1 0x24 PUSH1 0x0 REVERT JUMPDEST SWAP1 PUSH1 0x0 MSTORE PUSH1 0x20 PUSH1 0x0 KECCAK256 SWAP1 PUSH1 0x2 MUL ADD PUSH1 0x1 ADD PUSH1 0x0 DUP3 DUP3 SLOAD PUSH2 0x5AA SWAP2 SWAP1 PUSH2 0xB6D JUMP JUMPDEST SWAP3 POP POP DUP2 SWAP1 SSTORE POP PUSH2 0x5D6 JUMP JUMPDEST DUP2 PUSH1 0x0 ADD SLOAD DUP2 PUSH1 0x0 ADD PUSH1 0x0 DUP3 DUP3 SLOAD PUSH2 0x5CE SWAP2 SWAP1 PUSH2 0xB6D JUMP JUMPDEST SWAP3 POP POP DUP2 SWAP1 SSTORE POP JUMPDEST POP POP POP JUMP JUMPDEST PUSH1 0x0 DUP1 SLOAD SWAP1 PUSH2 0x100 EXP SWAP1 DIV PUSH20 0xFFFFFFFFFFFFFFFFFFFFFFFFFFFFFFFFFFFFFFFF AND PUSH20 0xFFFFFFFFFFFFFFFFFFFFFFFFFFFFFFFFFFFFFFFF AND CALLER PUSH20 0xFFFFFFFFFFFFFFFFFFFFFFFFFFFFFFFFFFFFFFFF AND EQ DUP1 ISZERO PUSH2 0x683 JUMPI POP PUSH1 0x1 PUSH1 0x0 DUP3 PUSH20 0xFFFFFFFFFFFFFFFFFFFFFFFFFFFFFFFFFFFFFFFF AND PUSH20 0xFFFFFFFFFFFFFFFFFFFFFFFFFFFFFFFFFFFFFFFF AND DUP2 MSTORE PUSH1 0x20 ADD SWAP1 DUP2 MSTORE PUSH1 0x20 ADD PUSH1 0x0 KECCAK256 PUSH1 0x1 ADD PUSH1 0x0 SWAP1 SLOAD SWAP1 PUSH2 0x100 EXP SWAP1 DIV PUSH1 0xFF AND ISZERO JUMPDEST DUP1 ISZERO PUSH2 0x6D1 JUMPI POP PUSH1 0x0 PUSH1 0x1 PUSH1 0x0 DUP4 PUSH20 0xFFFFFFFFFFFFFFFFFFFFFFFFFFFFFFFFFFFFFFFF AND PUSH20 0xFFFFFFFFFFFFFFFFFFFFFFFFFFFFFFFFFFFFFFFF AND DUP2 MSTORE PUSH1 0x20 ADD SWAP1 DUP2 MSTORE PUSH1 0x20 ADD PUSH1 0x0 KECCAK256 PUSH1 0x0 ADD SLOAD EQ JUMPDEST PUSH2 0x6DA JUMPI PUSH1 0x0 DUP1 REVERT JUMPDEST PUSH1 0x1 DUP1 PUSH1 0x0 DUP4 PUSH20 0xFFFFFFFFFFFFFFFFFFFFFFFFFFFFFFFFFFFFFFFF AND PUSH20 0xFFFFFFFFFFFFFFFFFFFFFFFFFFFFFFFFFFFFFFFF AND DUP2 MSTORE PUSH1 0x20 ADD SWAP1 DUP2 MSTORE PUSH1 0x20 ADD PUSH1 0x0 KECCAK256 PUSH1 0x0 ADD DUP2 SWAP1 SSTORE POP POP JUMP JUMPDEST PUSH1 0x1 PUSH1 0x20 MSTORE DUP1 PUSH1 0x0 MSTORE PUSH1 0x40 PUSH1 0x0 KECCAK256 PUSH1 0x0 SWAP2 POP SWAP1 POP DUP1 PUSH1 0x0 ADD SLOAD SWAP1 DUP1 PUSH1 0x1 ADD PUSH1 0x0 SWAP1 SLOAD SWAP1 PUSH2 0x100 EXP SWAP1 DIV PUSH1 0xFF AND SWAP1 DUP1 PUSH1 0x1 ADD PUSH1 0x1 SWAP1 SLOAD SWAP1 PUSH2 0x100 EXP SWAP1 DIV PUSH20 0xFFFFFFFFFFFFFFFFFFFFFFFFFFFFFFFFFFFFFFFF AND SWAP1 DUP1 PUSH1 0x2 ADD SLOAD SWAP1 POP DUP5 JUMP JUMPDEST CALLER PUSH1 0x0 DUP1 PUSH2 0x100 EXP DUP2 SLOAD DUP2 PUSH20 0xFFFFFFFFFFFFFFFFFFFFFFFFFFFFFFFFFFFFFFFF MUL NOT AND SWAP1 DUP4 PUSH20 0xFFFFFFFFFFFFFFFFFFFFFFFFFFFFFFFFFFFFFFFF AND MUL OR SWAP1 SSTORE POP PUSH1 0x1 DUP1 PUSH1 0x0 DUP1 PUSH1 0x0 SWAP1 SLOAD SWAP1 PUSH2 0x100 EXP SWAP1 DIV PUSH20 0xFFFFFFFFFFFFFFFFFFFFFFFFFFFFFFFFFFFFFFFF AND PUSH20 0xFFFFFFFFFFFFFFFFFFFFFFFFFFFFFFFFFFFFFFFF AND PUSH20 0xFFFFFFFFFFFFFFFFFFFFFFFFFFFFFFFFFFFFFFFF AND DUP2 MSTORE PUSH1 0x20 ADD SWAP1 DUP2 MSTORE PUSH1 0x20 ADD PUSH1 0x0 KECCAK256 PUSH1 0x0 ADD DUP2 SWAP1 SSTORE POP PUSH1 0x0 JUMPDEST DUP2 MLOAD DUP2 LT ISZERO PUSH2 0x8DF JUMPI PUSH1 0x2 PUSH1 0x40 MLOAD DUP1 PUSH1 0x40 ADD PUSH1 0x40 MSTORE DUP1 DUP5 DUP5 DUP2 MLOAD DUP2 LT PUSH2 0x87B JUMPI PUSH32 0x4E487B7100000000000000000000000000000000000000000000000000000000 PUSH1 0x0 MSTORE PUSH1 0x32 PUSH1 0x4 MSTORE PUSH1 0x24 PUSH1 0x0 REVERT JUMPDEST PUSH1 0x20 MUL PUSH1 0x20 ADD ADD MLOAD DUP2 MSTORE PUSH1 0x20 ADD PUSH1 0x0 DUP2 MSTORE POP SWAP1 DUP1 PUSH1 0x1 DUP2 SLOAD ADD DUP1 DUP3 SSTORE DUP1 SWAP2 POP POP PUSH1 0x1 SWAP1 SUB SWAP1 PUSH1 0x0 MSTORE PUSH1 0x20 PUSH1 0x0 KECCAK256 SWAP1 PUSH1 0x2 MUL ADD PUSH1 0x0 SWAP1 SWAP2 SWAP1 SWAP2 SWAP1 SWAP2 POP PUSH1 0x0 DUP3 ADD MLOAD DUP2 PUSH1 0x0 ADD SSTORE PUSH1 0x20 DUP3 ADD MLOAD DUP2 PUSH1 0x1 ADD SSTORE POP POP DUP1 DUP1 PUSH2 0x8D7 SWAP1 PUSH2 0xC15 JUMP JUMPDEST SWAP2 POP POP PUSH2 0x82C JUMP JUMPDEST POP POP JUMP JUMPDEST PUSH1 0x0 PUSH2 0x8F6 PUSH2 0x8F1 DUP5 PUSH2 0xB41 JUMP JUMPDEST PUSH2 0xB10 JUMP JUMPDEST SWAP1 POP DUP1 DUP4 DUP3 MSTORE PUSH1 0x20 DUP3 ADD SWAP1 POP DUP3 DUP6 PUSH1 0x20 DUP7 MUL DUP3 ADD GT ISZERO PUSH2 0x915 JUMPI PUSH1 0x0 DUP1 REVERT JUMPDEST PUSH1 0x0 JUMPDEST DUP6 DUP2 LT ISZERO PUSH2 0x945 JUMPI DUP2 PUSH2 0x92B DUP9 DUP3 PUSH2 0x98E JUMP JUMPDEST DUP5 MSTORE PUSH1 0x20 DUP5 ADD SWAP4 POP PUSH1 0x20 DUP4 ADD SWAP3 POP POP PUSH1 0x1 DUP2 ADD SWAP1 POP PUSH2 0x918 JUMP JUMPDEST POP POP POP SWAP4 SWAP3 POP POP POP JUMP JUMPDEST PUSH1 0x0 DUP2 CALLDATALOAD SWAP1 POP PUSH2 0x95E DUP2 PUSH2 0xCBC JUMP JUMPDEST SWAP3 SWAP2 POP POP JUMP JUMPDEST PUSH1 0x0 DUP3 PUSH1 0x1F DUP4 ADD SLT PUSH2 0x975 JUMPI PUSH1 0x0 DUP1 REVERT JUMPDEST DUP2 CALLDATALOAD PUSH2 0x985 DUP5 DUP3 PUSH1 0x20 DUP7 ADD PUSH2 0x8E3 JUMP JUMPDEST SWAP2 POP POP SWAP3 SWAP2 POP POP JUMP JUMPDEST PUSH1 0x0 DUP2 CALLDATALOAD SWAP1 POP PUSH2 0x99D DUP2 PUSH2 0xCD3 JUMP JUMPDEST SWAP3 SWAP2 POP POP JUMP JUMPDEST PUSH1 0x0 DUP2 CALLDATALOAD SWAP1 POP PUSH2 0x9B2 DUP2 PUSH2 0xCEA JUMP JUMPDEST SWAP3 SWAP2 POP POP JUMP JUMPDEST PUSH1 0x0 PUSH1 0x20 DUP3 DUP5 SUB SLT ISZERO PUSH2 0x9CA JUMPI PUSH1 0x0 DUP1 REVERT JUMPDEST PUSH1 0x0 PUSH2 0x9D8 DUP5 DUP3 DUP6 ADD PUSH2 0x94F JUMP JUMPDEST SWAP2 POP POP SWAP3 SWAP2 POP POP JUMP JUMPDEST PUSH1 0x0 PUSH1 0x20 DUP3 DUP5 SUB SLT ISZERO PUSH2 0x9F3 JUMPI PUSH1 0x0 DUP1 REVERT JUMPDEST PUSH1 0x0 DUP3 ADD CALLDATALOAD PUSH8 0xFFFFFFFFFFFFFFFF DUP2 GT ISZERO PUSH2 0xA0D JUMPI PUSH1 0x0 DUP1 REVERT JUMPDEST PUSH2 0xA19 DUP5 DUP3 DUP6 ADD PUSH2 0x964 JUMP JUMPDEST SWAP2 POP POP SWAP3 SWAP2 POP POP JUMP JUMPDEST PUSH1 0x0 PUSH1 0x20 DUP3 DUP5 SUB SLT ISZERO PUSH2 0xA34 JUMPI PUSH1 0x0 DUP1 REVERT JUMPDEST PUSH1 0x0 PUSH2 0xA42 DUP5 DUP3 DUP6 ADD PUSH2 0x9A3 JUMP JUMPDEST SWAP2 POP POP SWAP3 SWAP2 POP POP JUMP JUMPDEST PUSH2 0xA54 DUP2 PUSH2 0xBC3 JUMP JUMPDEST DUP3 MSTORE POP POP JUMP JUMPDEST PUSH2 0xA63 DUP2 PUSH2 0xBD5 JUMP JUMPDEST DUP3 MSTORE POP POP JUMP JUMPDEST PUSH2 0xA72 DUP2 PUSH2 0xBE1 JUMP JUMPDEST DUP3 MSTORE POP POP JUMP JUMPDEST PUSH2 0xA81 DUP2 PUSH2 0xC0B JUMP JUMPDEST DUP3 MSTORE POP POP JUMP JUMPDEST PUSH1 0x0 PUSH1 0x20 DUP3 ADD SWAP1 POP PUSH2 0xA9C PUSH1 0x0 DUP4 ADD DUP5 PUSH2 0xA4B JUMP JUMPDEST SWAP3 SWAP2 POP POP JUMP JUMPDEST PUSH1 0x0 PUSH1 0x40 DUP3 ADD SWAP1 POP PUSH2 0xAB7 PUSH1 0x0 DUP4 ADD DUP6 PUSH2 0xA69 JUMP JUMPDEST PUSH2 0xAC4 PUSH1 0x20 DUP4 ADD DUP5 PUSH2 0xA78 JUMP JUMPDEST SWAP4 SWAP3 POP POP POP JUMP JUMPDEST PUSH1 0x0 PUSH1 0x80 DUP3 ADD SWAP1 POP PUSH2 0xAE0 PUSH1 0x0 DUP4 ADD DUP8 PUSH2 0xA78 JUMP JUMPDEST PUSH2 0xAED PUSH1 0x20 DUP4 ADD DUP7 PUSH2 0xA5A JUMP JUMPDEST PUSH2 0xAFA PUSH1 0x40 DUP4 ADD DUP6 PUSH2 0xA4B JUMP JUMPDEST PUSH2 0xB07 PUSH1 0x60 DUP4 ADD DUP5 PUSH2 0xA78 JUMP JUMPDEST SWAP6 SWAP5 POP POP POP POP POP JUMP JUMPDEST PUSH1 0x0 PUSH1 0x40 MLOAD SWAP1 POP DUP2 DUP2 ADD DUP2 DUP2 LT PUSH8 0xFFFFFFFFFFFFFFFF DUP3 GT OR ISZERO PUSH2 0xB37 JUMPI PUSH2 0xB36 PUSH2 0xC8D JUMP JUMPDEST JUMPDEST DUP1 PUSH1 0x40 MSTORE POP SWAP2 SWAP1 POP JUMP JUMPDEST PUSH1 0x0 PUSH8 0xFFFFFFFFFFFFFFFF DUP3 GT ISZERO PUSH2 0xB5C JUMPI PUSH2 0xB5B PUSH2 0xC8D JUMP JUMPDEST JUMPDEST PUSH1 0x20 DUP3 MUL SWAP1 POP PUSH1 0x20 DUP2 ADD SWAP1 POP SWAP2 SWAP1 POP JUMP JUMPDEST PUSH1 0x0 PUSH2 0xB78 DUP3 PUSH2 0xC0B JUMP JUMPDEST SWAP2 POP PUSH2 0xB83 DUP4 PUSH2 0xC0B JUMP JUMPDEST SWAP3 POP DUP3 PUSH32 0xFFFFFFFFFFFFFFFFFFFFFFFFFFFFFFFFFFFFFFFFFFFFFFFFFFFFFFFFFFFFFFFF SUB DUP3 GT ISZERO PUSH2 0xBB8 JUMPI PUSH2 0xBB7 PUSH2 0xC5E JUMP JUMPDEST JUMPDEST DUP3 DUP3 ADD SWAP1 POP SWAP3 SWAP2 POP POP JUMP JUMPDEST PUSH1 0x0 PUSH2 0xBCE DUP3 PUSH2 0xBEB JUMP JUMPDEST SWAP1 POP SWAP2 SWAP1 POP JUMP JUMPDEST PUSH1 0x0 DUP2 ISZERO ISZERO SWAP1 POP SWAP2 SWAP1 POP JUMP JUMPDEST PUSH1 0x0 DUP2 SWAP1 POP SWAP2 SWAP1 POP JUMP JUMPDEST PUSH1 0x0 PUSH20 0xFFFFFFFFFFFFFFFFFFFFFFFFFFFFFFFFFFFFFFFF DUP3 AND SWAP1 POP SWAP2 SWAP1 POP JUMP JUMPDEST PUSH1 0x0 DUP2 SWAP1 POP SWAP2 SWAP1 POP JUMP JUMPDEST PUSH1 0x0 PUSH2 0xC20 DUP3 PUSH2 0xC0B JUMP JUMPDEST SWAP2 POP PUSH32 0xFFFFFFFFFFFFFFFFFFFFFFFFFFFFFFFFFFFFFFFFFFFFFFFFFFFFFFFFFFFFFFFF DUP3 EQ ISZERO PUSH2 0xC53 JUMPI PUSH2 0xC52 PUSH2 0xC5E JUMP JUMPDEST JUMPDEST PUSH1 0x1 DUP3 ADD SWAP1 POP SWAP2 SWAP1 POP JUMP JUMPDEST PUSH32 0x4E487B7100000000000000000000000000000000000000000000000000000000 PUSH1 0x0 MSTORE PUSH1 0x11 PUSH1 0x4 MSTORE PUSH1 0x24 PUSH1 0x0 REVERT JUMPDEST PUSH32 0x4E487B7100000000000000000000000000000000000000000000000000000000 PUSH1 0x0 MSTORE PUSH1 0x41 PUSH1 0x4 MSTORE PUSH1 0x24 PUSH1 0x0 REVERT JUMPDEST PUSH2 0xCC5 DUP2 PUSH2 0xBC3 JUMP JUMPDEST DUP2 EQ PUSH2 0xCD0 JUMPI PUSH1 0x0 DUP1 REVERT JUMPDEST POP JUMP JUMPDEST PUSH2 0xCDC DUP2 PUSH2 0xBE1 JUMP JUMPDEST DUP2 EQ PUSH2 0xCE7 JUMPI PUSH1 0x0 DUP1 REVERT JUMPDEST POP JUMP JUMPDEST PUSH2 0xCF3 DUP2 PUSH2 0xC0B JUMP JUMPDEST DUP2 EQ PUSH2 0xCFE JUMPI PUSH1 0x0 DUP1 REVERT JUMPDEST POP JUMP INVALID LOG2 PUSH5 0x6970667358 0x22 SLT KECCAK256 LOG0 0x4E 0xED 0xBC DUP3 JUMPI DUP1 PUSH21 0x863B265E7A30E443632A5DD49038EA409A6B4CCED9 0xB1 MUL DUP9 PUSH5 0x736F6C6343 STOP ADDMOD STOP STOP CALLER "
				},
				"gasEstimates": {
					"creation": {
						"codeDepositCost": "676600",
						"executionCost": "708",
						"totalCost": "677308"
					},
					"external": {
						"Ballot1(bytes32[])": "infinite",
						"chairperson()": "1256",
						"delegate(address)": "infinite",
						"giveRightToVote(address)": "23341",
						"proposals(uint256)": "infinite",
						"vote(uint256)": "infinite",
						"voters(address)": "infinite"
					}
				},
				"methodIdentifiers": {
					"Ballot1(bytes32[])": "c106269c",
					"chairperson()": "2e4176cf",
					"delegate(address)": "5c19a95c",
					"giveRightToVote(address)": "9e7b8d61",
					"proposals(uint256)": "013cf08b",
					"vote(uint256)": "0121b93f",
					"voters(address)": "a3ec138d"
				}
			},
			"storageLayout": {
				"storage": [
					{
						"astId": 17,
						"contract": "contracts/prop_test.sol:Ballot",
						"label": "chairperson",
						"offset": 0,
						"slot": "0",
						"type": "t_address"
					},
					{
						"astId": 22,
						"contract": "contracts/prop_test.sol:Ballot",
						"label": "voters",
						"offset": 0,
						"slot": "1",
						"type": "t_mapping(t_address,t_struct(Voter)10_storage)"
					},
					{
						"astId": 26,
						"contract": "contracts/prop_test.sol:Ballot",
						"label": "proposals",
						"offset": 0,
						"slot": "2",
						"type": "t_array(t_struct(Proposal)15_storage)dyn_storage"
					}
				],
				"types": {
					"t_address": {
						"encoding": "inplace",
						"label": "address",
						"numberOfBytes": "20"
					},
					"t_array(t_struct(Proposal)15_storage)dyn_storage": {
						"base": "t_struct(Proposal)15_storage",
						"encoding": "dynamic_array",
						"label": "struct Ballot.Proposal[]",
						"numberOfBytes": "32"
					},
					"t_bool": {
						"encoding": "inplace",
						"label": "bool",
						"numberOfBytes": "1"
					},
					"t_bytes32": {
						"encoding": "inplace",
						"label": "bytes32",
						"numberOfBytes": "32"
					},
					"t_mapping(t_address,t_struct(Voter)10_storage)": {
						"encoding": "mapping",
						"key": "t_address",
						"label": "mapping(address => struct Ballot.Voter)",
						"numberOfBytes": "32",
						"value": "t_struct(Voter)10_storage"
					},
					"t_struct(Proposal)15_storage": {
						"encoding": "inplace",
						"label": "struct Ballot.Proposal",
						"members": [
							{
								"astId": 12,
								"contract": "contracts/prop_test.sol:Ballot",
								"label": "name",
								"offset": 0,
								"slot": "0",
								"type": "t_bytes32"
							},
							{
								"astId": 14,
								"contract": "contracts/prop_test.sol:Ballot",
								"label": "voteCount",
								"offset": 0,
								"slot": "1",
								"type": "t_uint256"
							}
						],
						"numberOfBytes": "64"
					},
					"t_struct(Voter)10_storage": {
						"encoding": "inplace",
						"label": "struct Ballot.Voter",
						"members": [
							{
								"astId": 3,
								"contract": "contracts/prop_test.sol:Ballot",
								"label": "weight",
								"offset": 0,
								"slot": "0",
								"type": "t_uint256"
							},
							{
								"astId": 5,
								"contract": "contracts/prop_test.sol:Ballot",
								"label": "voted",
								"offset": 0,
								"slot": "1",
								"type": "t_bool"
							},
							{
								"astId": 7,
								"contract": "contracts/prop_test.sol:Ballot",
								"label": "delegate",
								"offset": 1,
								"slot": "1",
								"type": "t_address"
							},
							{
								"astId": 9,
								"contract": "contracts/prop_test.sol:Ballot",
								"label": "vote",
								"offset": 0,
								"slot": "2",
								"type": "t_uint256"
							}
						],
						"numberOfBytes": "96"
					},
					"t_uint256": {
						"encoding": "inplace",
						"label": "uint256",
						"numberOfBytes": "32"
					}
				}
			},
			"userdoc": {
				"kind": "user",
				"methods": {
					"Ballot1(bytes32[])": {
						"notice": "Create a new ballot to choose one of `proposalNames`."
					},
					"delegate(address)": {
						"notice": "Delegate your vote to the voter `to`."
					},
					"vote(uint256)": {
						"notice": "Give your vote (including votes delegated to you) to proposal `proposals[proposal].name`."
					}
				},
				"version": 1
			}
		}
	}
}