{
	"contracts/fun_stuff.sol": {
		"VoteSaving": {
			"abi": [
				{
					"inputs": [],
					"stateMutability": "nonpayable",
					"type": "constructor"
				},
				{
					"anonymous": false,
					"inputs": [
						{
							"indexed": true,
							"internalType": "uint256",
							"name": "_memberId",
							"type": "uint256"
						}
					],
					"name": "savingEvent",
					"type": "event"
				},
				{
					"inputs": [
						{
							"internalType": "string",
							"name": "_name",
							"type": "string"
						},
						{
							"internalType": "bool",
							"name": "_isVote",
							"type": "bool"
						}
					],
					"name": "addMember",
					"outputs": [],
					"stateMutability": "nonpayable",
					"type": "function"
				},
				{
					"inputs": [
						{
							"internalType": "bool",
							"name": "_isVote",
							"type": "bool"
						}
					],
					"name": "getCountOfVoted",
					"outputs": [
						{
							"internalType": "uint256",
							"name": "",
							"type": "uint256"
						}
					],
					"stateMutability": "nonpayable",
					"type": "function"
				},
				{
					"inputs": [
						{
							"internalType": "uint256",
							"name": "_memberId",
							"type": "uint256"
						}
					],
					"name": "getMemberStructure",
					"outputs": [
						{
							"components": [
								{
									"internalType": "uint256",
									"name": "id",
									"type": "uint256"
								},
								{
									"internalType": "string",
									"name": "name",
									"type": "string"
								},
								{
									"internalType": "bool",
									"name": "isVoted",
									"type": "bool"
								}
							],
							"internalType": "struct VoteSaving.Member",
							"name": "",
							"type": "tuple"
						}
					],
					"stateMutability": "view",
					"type": "function"
				},
				{
					"inputs": [],
					"name": "getMemberValue",
					"outputs": [
						{
							"internalType": "uint256[]",
							"name": "",
							"type": "uint256[]"
						},
						{
							"internalType": "string[]",
							"name": "",
							"type": "string[]"
						},
						{
							"internalType": "bool[]",
							"name": "",
							"type": "bool[]"
						}
					],
					"stateMutability": "view",
					"type": "function"
				},
				{
					"inputs": [],
					"name": "memberCount",
					"outputs": [
						{
							"internalType": "uint256",
							"name": "",
							"type": "uint256"
						}
					],
					"stateMutability": "view",
					"type": "function"
				},
				{
					"inputs": [
						{
							"internalType": "uint256",
							"name": "",
							"type": "uint256"
						}
					],
					"name": "members",
					"outputs": [
						{
							"internalType": "uint256",
							"name": "id",
							"type": "uint256"
						},
						{
							"internalType": "string",
							"name": "name",
							"type": "string"
						},
						{
							"internalType": "bool",
							"name": "isVoted",
							"type": "bool"
						}
					],
					"stateMutability": "view",
					"type": "function"
				},
				{
					"inputs": [
						{
							"internalType": "uint256",
							"name": "_memberId",
							"type": "uint256"
						},
						{
							"internalType": "bool",
							"name": "_isVote",
							"type": "bool"
						}
					],
					"name": "setVote",
					"outputs": [],
					"stateMutability": "nonpayable",
					"type": "function"
				},
				{
					"inputs": [],
					"name": "votedCount",
					"outputs": [
						{
							"internalType": "uint256",
							"name": "",
							"type": "uint256"
						}
					],
					"stateMutability": "view",
					"type": "function"
				}
			],
			"devdoc": {
				"methods": {}
			},
			"evm": {
				"assembly": "    /* \"contracts/fun_stuff.sol\":95:2034  contract VoteSaving {\r... */\n  mstore(0x40, 0x80)\n    /* \"contracts/fun_stuff.sol\":363:364  0 */\n  0x00\n    /* \"contracts/fun_stuff.sol\":338:364  uint public votedCount = 0 */\n  0x02\n  sstore\n    /* \"contracts/fun_stuff.sol\":373:718  constructor() public {\r... */\n  callvalue\n    /* \"--CODEGEN--\":8:17   */\n  dup1\n    /* \"--CODEGEN--\":5:7   */\n  iszero\n  tag_1\n  jumpi\n    /* \"--CODEGEN--\":30:31   */\n  0x00\n    /* \"--CODEGEN--\":27:28   */\n  dup1\n    /* \"--CODEGEN--\":20:32   */\n  revert\n    /* \"--CODEGEN--\":5:7   */\ntag_1:\n    /* \"contracts/fun_stuff.sol\":373:718  constructor() public {\r... */\n  pop\n    /* \"contracts/fun_stuff.sol\":419:420  0 */\n  0x00\n    /* \"contracts/fun_stuff.sol\":405:416  memberCount */\n  0x01\n    /* \"contracts/fun_stuff.sol\":405:420  memberCount = 0 */\n  dup2\n  swap1\n  sstore\n  pop\n    /* \"contracts/fun_stuff.sol\":431:454  addMember(\"Vlad\", true) */\n  tag_4\n  mload(0x40)\n  dup1\n  0x40\n  add\n  0x40\n  mstore\n  dup1\n  0x04\n  dup2\n  mstore\n  0x20\n  add\n  0x566c616400000000000000000000000000000000000000000000000000000000\n  dup2\n  mstore\n  pop\n    /* \"contracts/fun_stuff.sol\":449:453  true */\n  0x01\n    /* \"contracts/fun_stuff.sol\":431:440  addMember */\n  shl(0x20, tag_5)\n    /* \"contracts/fun_stuff.sol\":431:454  addMember(\"Vlad\", true) */\n  0x20\n  shr\n  jump\t// in\ntag_4:\n    /* \"contracts/fun_stuff.sol\":465:491  addMember(\"Nastya\", false) */\n  tag_6\n  mload(0x40)\n  dup1\n  0x40\n  add\n  0x40\n  mstore\n  dup1\n  0x06\n  dup2\n  mstore\n  0x20\n  add\n  0x4e61737479610000000000000000000000000000000000000000000000000000\n  dup2\n  mstore\n  pop\n    /* \"contracts/fun_stuff.sol\":485:490  false */\n  0x00\n    /* \"contracts/fun_stuff.sol\":465:474  addMember */\n  shl(0x20, tag_5)\n    /* \"contracts/fun_stuff.sol\":465:491  addMember(\"Nastya\", false) */\n  0x20\n  shr\n  jump\t// in\ntag_6:\n    /* \"contracts/fun_stuff.sol\":502:526  addMember(\"Vlad1\", true) */\n  tag_7\n  mload(0x40)\n  dup1\n  0x40\n  add\n  0x40\n  mstore\n  dup1\n  0x05\n  dup2\n  mstore\n  0x20\n  add\n  0x566c616431000000000000000000000000000000000000000000000000000000\n  dup2\n  mstore\n  pop\n    /* \"contracts/fun_stuff.sol\":521:525  true */\n  0x01\n    /* \"contracts/fun_stuff.sol\":502:511  addMember */\n  shl(0x20, tag_5)\n    /* \"contracts/fun_stuff.sol\":502:526  addMember(\"Vlad1\", true) */\n  0x20\n  shr\n  jump\t// in\ntag_7:\n    /* \"contracts/fun_stuff.sol\":537:564  addMember(\"Nastya2\", false) */\n  tag_8\n  mload(0x40)\n  dup1\n  0x40\n  add\n  0x40\n  mstore\n  dup1\n  0x07\n  dup2\n  mstore\n  0x20\n  add\n  0x4e61737479613200000000000000000000000000000000000000000000000000\n  dup2\n  mstore\n  pop\n    /* \"contracts/fun_stuff.sol\":558:563  false */\n  0x00\n    /* \"contracts/fun_stuff.sol\":537:546  addMember */\n  shl(0x20, tag_5)\n    /* \"contracts/fun_stuff.sol\":537:564  addMember(\"Nastya2\", false) */\n  0x20\n  shr\n  jump\t// in\ntag_8:\n    /* \"contracts/fun_stuff.sol\":575:599  addMember(\"Vlad3\", true) */\n  tag_9\n  mload(0x40)\n  dup1\n  0x40\n  add\n  0x40\n  mstore\n  dup1\n  0x05\n  dup2\n  mstore\n  0x20\n  add\n  0x566c616433000000000000000000000000000000000000000000000000000000\n  dup2\n  mstore\n  pop\n    /* \"contracts/fun_stuff.sol\":594:598  true */\n  0x01\n    /* \"contracts/fun_stuff.sol\":575:584  addMember */\n  shl(0x20, tag_5)\n    /* \"contracts/fun_stuff.sol\":575:599  addMember(\"Vlad3\", true) */\n  0x20\n  shr\n  jump\t// in\ntag_9:\n    /* \"contracts/fun_stuff.sol\":610:637  addMember(\"Nastya4\", false) */\n  tag_10\n  mload(0x40)\n  dup1\n  0x40\n  add\n  0x40\n  mstore\n  dup1\n  0x07\n  dup2\n  mstore\n  0x20\n  add\n  0x4e61737479613400000000000000000000000000000000000000000000000000\n  dup2\n  mstore\n  pop\n    /* \"contracts/fun_stuff.sol\":631:636  false */\n  0x00\n    /* \"contracts/fun_stuff.sol\":610:619  addMember */\n  shl(0x20, tag_5)\n    /* \"contracts/fun_stuff.sol\":610:637  addMember(\"Nastya4\", false) */\n  0x20\n  shr\n  jump\t// in\ntag_10:\n    /* \"contracts/fun_stuff.sol\":648:672  addMember(\"Vlad5\", true) */\n  tag_11\n  mload(0x40)\n  dup1\n  0x40\n  add\n  0x40\n  mstore\n  dup1\n  0x05\n  dup2\n  mstore\n  0x20\n  add\n  0x566c616435000000000000000000000000000000000000000000000000000000\n  dup2\n  mstore\n  pop\n    /* \"contracts/fun_stuff.sol\":667:671  true */\n  0x01\n    /* \"contracts/fun_stuff.sol\":648:657  addMember */\n  shl(0x20, tag_5)\n    /* \"contracts/fun_stuff.sol\":648:672  addMember(\"Vlad5\", true) */\n  0x20\n  shr\n  jump\t// in\ntag_11:\n    /* \"contracts/fun_stuff.sol\":683:710  addMember(\"Nastya6\", false) */\n  tag_12\n  mload(0x40)\n  dup1\n  0x40\n  add\n  0x40\n  mstore\n  dup1\n  0x07\n  dup2\n  mstore\n  0x20\n  add\n  0x4e61737479613600000000000000000000000000000000000000000000000000\n  dup2\n  mstore\n  pop\n    /* \"contracts/fun_stuff.sol\":704:709  false */\n  0x00\n    /* \"contracts/fun_stuff.sol\":683:692  addMember */\n  shl(0x20, tag_5)\n    /* \"contracts/fun_stuff.sol\":683:710  addMember(\"Nastya6\", false) */\n  0x20\n  shr\n  jump\t// in\ntag_12:\n    /* \"contracts/fun_stuff.sol\":95:2034  contract VoteSaving {\r... */\n  jump(tag_13)\n    /* \"contracts/fun_stuff.sol\":726:888  function addMember(string memory _name, bool _isVote) public {\r... */\ntag_5:\n    /* \"contracts/fun_stuff.sol\":821:856  Member(memberCount, _name, _isVote) */\n  mload(0x40)\n  dup1\n  0x60\n  add\n  0x40\n  mstore\n  dup1\n    /* \"contracts/fun_stuff.sol\":828:839  memberCount */\n  sload(0x01)\n    /* \"contracts/fun_stuff.sol\":821:856  Member(memberCount, _name, _isVote) */\n  dup2\n  mstore\n  0x20\n  add\n    /* \"contracts/fun_stuff.sol\":841:846  _name */\n  dup4\n    /* \"contracts/fun_stuff.sol\":821:856  Member(memberCount, _name, _isVote) */\n  dup2\n  mstore\n  0x20\n  add\n    /* \"contracts/fun_stuff.sol\":848:855  _isVote */\n  dup3\n    /* \"contracts/fun_stuff.sol\":821:856  Member(memberCount, _name, _isVote) */\n  iszero\n  iszero\n  dup2\n  mstore\n  pop\n    /* \"contracts/fun_stuff.sol\":798:805  members */\n  0x00\n    /* \"contracts/fun_stuff.sol\":798:818  members[memberCount] */\n  dup1\n    /* \"contracts/fun_stuff.sol\":806:817  memberCount */\n  sload(0x01)\n    /* \"contracts/fun_stuff.sol\":798:818  members[memberCount] */\n  dup2\n  mstore\n  0x20\n  add\n  swap1\n  dup2\n  mstore\n  0x20\n  add\n  0x00\n  keccak256\n    /* \"contracts/fun_stuff.sol\":798:856  members[memberCount] = Member(memberCount, _name, _isVote) */\n  0x00\n  dup3\n  add\n  mload\n  dup2\n  0x00\n  add\n  sstore\n  0x20\n  dup3\n  add\n  mload\n  dup2\n  0x01\n  add\n  swap1\n  dup1\n  mload\n  swap1\n  0x20\n  add\n  swap1\n  tag_15\n  swap3\n  swap2\n  swap1\n  tag_16\n  jump\t// in\ntag_15:\n  pop\n  0x40\n  dup3\n  add\n  mload\n  dup2\n  0x02\n  add\n  exp(0x0100, 0x00)\n  dup2\n  sload\n  dup2\n  0xff\n  mul\n  not\n  and\n  swap1\n  dup4\n  iszero\n  iszero\n  mul\n  or\n  swap1\n  sstore\n  pop\n  swap1\n  pop\n  pop\n    /* \"contracts/fun_stuff.sol\":867:878  memberCount */\n  0x01\n  0x00\n    /* \"contracts/fun_stuff.sol\":867:880  memberCount++ */\n  dup2\n  sload\n  dup1\n  swap3\n  swap2\n  swap1\n  0x01\n  add\n  swap2\n  swap1\n  pop\n  sstore\n  pop\n    /* \"contracts/fun_stuff.sol\":726:888  function addMember(string memory _name, bool _isVote) public {\r... */\n  pop\n  pop\n  jump\t// out\n    /* \"contracts/fun_stuff.sol\":95:2034  contract VoteSaving {\r... */\ntag_16:\n  dup3\n  dup1\n  sload\n  0x01\n  dup2\n  0x01\n  and\n  iszero\n  0x0100\n  mul\n  sub\n  and\n  0x02\n  swap1\n  div\n  swap1\n  0x00\n  mstore\n  keccak256(0x00, 0x20)\n  swap1\n  0x1f\n  add\n  0x20\n  swap1\n  div\n  dup2\n  add\n  swap3\n  dup3\n  0x1f\n  lt\n  tag_18\n  jumpi\n  dup1\n  mload\n  not(0xff)\n  and\n  dup4\n  dup1\n  add\n  or\n  dup6\n  sstore\n  jump(tag_17)\ntag_18:\n  dup3\n  dup1\n  add\n  0x01\n  add\n  dup6\n  sstore\n  dup3\n  iszero\n  tag_17\n  jumpi\n  swap2\n  dup3\n  add\ntag_19:\n  dup3\n  dup2\n  gt\n  iszero\n  tag_20\n  jumpi\n  dup3\n  mload\n  dup3\n  sstore\n  swap2\n  0x20\n  add\n  swap2\n  swap1\n  0x01\n  add\n  swap1\n  jump(tag_19)\ntag_20:\ntag_17:\n  pop\n  swap1\n  pop\n  tag_21\n  swap2\n  swap1\n  tag_22\n  jump\t// in\ntag_21:\n  pop\n  swap1\n  jump\t// out\ntag_22:\n  tag_23\n  swap2\n  swap1\ntag_24:\n  dup1\n  dup3\n  gt\n  iszero\n  tag_25\n  jumpi\n  0x00\n  dup2\n  0x00\n  swap1\n  sstore\n  pop\n  0x01\n  add\n  jump(tag_24)\ntag_25:\n  pop\n  swap1\n  jump\ntag_23:\n  swap1\n  jump\t// out\ntag_13:\n  dataSize(sub_0)\n  dup1\n  dataOffset(sub_0)\n  0x00\n  codecopy\n  0x00\n  return\nstop\n\nsub_0: assembly {\n        /* \"contracts/fun_stuff.sol\":95:2034  contract VoteSaving {\r... */\n      mstore(0x40, 0x80)\n      callvalue\n        /* \"--CODEGEN--\":8:17   */\n      dup1\n        /* \"--CODEGEN--\":5:7   */\n      iszero\n      tag_1\n      jumpi\n        /* \"--CODEGEN--\":30:31   */\n      0x00\n        /* \"--CODEGEN--\":27:28   */\n      dup1\n        /* \"--CODEGEN--\":20:32   */\n      revert\n        /* \"--CODEGEN--\":5:7   */\n    tag_1:\n        /* \"contracts/fun_stuff.sol\":95:2034  contract VoteSaving {\r... */\n      pop\n      jumpi(tag_2, lt(calldatasize, 0x04))\n      shr(0xe0, calldataload(0x00))\n      dup1\n      0xab7a2015\n      gt\n      tag_11\n      jumpi\n      dup1\n      0xab7a2015\n      eq\n      tag_7\n      jumpi\n      dup1\n      0xd3516b7e\n      eq\n      tag_8\n      jumpi\n      dup1\n      0xf0232d0a\n      eq\n      tag_9\n      jumpi\n      dup1\n      0xf97698f8\n      eq\n      tag_10\n      jumpi\n      jump(tag_2)\n    tag_11:\n      dup1\n      0x11aee380\n      eq\n      tag_3\n      jumpi\n      dup1\n      0x5daf08ca\n      eq\n      tag_4\n      jumpi\n      dup1\n      0x6f416d59\n      eq\n      tag_5\n      jumpi\n      dup1\n      0x92c68389\n      eq\n      tag_6\n      jumpi\n    tag_2:\n      0x00\n      dup1\n      revert\n        /* \"contracts/fun_stuff.sol\":308:331  uint public memberCount */\n    tag_3:\n      tag_12\n      tag_13\n      jump\t// in\n    tag_12:\n      mload(0x40)\n      tag_14\n      swap2\n      swap1\n      jump(tag_15)\n    tag_14:\n      mload(0x40)\n      dup1\n      swap2\n      sub\n      swap1\n      return\n        /* \"contracts/fun_stuff.sol\":214:253  mapping (uint => Member) public members */\n    tag_4:\n      tag_16\n      0x04\n      dup1\n      calldatasize\n      sub\n      tag_17\n      swap2\n      swap1\n      dup2\n      add\n      swap1\n      jump(tag_18)\n    tag_17:\n      tag_19\n      jump\t// in\n    tag_16:\n      mload(0x40)\n      tag_20\n      swap4\n      swap3\n      swap2\n      swap1\n      jump(tag_21)\n    tag_20:\n      mload(0x40)\n      dup1\n      swap2\n      sub\n      swap1\n      return\n        /* \"contracts/fun_stuff.sol\":1485:2026  function getMemberValue() public view returns(uint[] memory, string[] memory, bool[] memory) {\r... */\n    tag_5:\n      tag_22\n      tag_23\n      jump\t// in\n    tag_22:\n      mload(0x40)\n      tag_24\n      swap4\n      swap3\n      swap2\n      swap1\n      jump(tag_25)\n    tag_24:\n      mload(0x40)\n      dup1\n      swap2\n      sub\n      swap1\n      return\n        /* \"contracts/fun_stuff.sol\":726:888  function addMember(string memory _name, bool _isVote) public {\r... */\n    tag_6:\n      tag_26\n      0x04\n      dup1\n      calldatasize\n      sub\n      tag_27\n      swap2\n      swap1\n      dup2\n      add\n      swap1\n      jump(tag_28)\n    tag_27:\n      tag_29\n      jump\t// in\n    tag_26:\n      stop\n        /* \"contracts/fun_stuff.sol\":1013:1265  function getCountOfVoted(bool _isVote) public returns(uint){\r... */\n    tag_7:\n      tag_30\n      0x04\n      dup1\n      calldatasize\n      sub\n      tag_31\n      swap2\n      swap1\n      dup2\n      add\n      swap1\n      jump(tag_32)\n    tag_31:\n      tag_33\n      jump\t// in\n    tag_30:\n      mload(0x40)\n      tag_34\n      swap2\n      swap1\n      jump(tag_15)\n    tag_34:\n      mload(0x40)\n      dup1\n      swap2\n      sub\n      swap1\n      return\n        /* \"contracts/fun_stuff.sol\":896:1005  function setVote(uint _memberId, bool _isVote) public {\r... */\n    tag_8:\n      tag_35\n      0x04\n      dup1\n      calldatasize\n      sub\n      tag_36\n      swap2\n      swap1\n      dup2\n      add\n      swap1\n      jump(tag_37)\n    tag_36:\n      tag_38\n      jump\t// in\n    tag_35:\n      stop\n        /* \"contracts/fun_stuff.sol\":338:364  uint public votedCount = 0 */\n    tag_9:\n      tag_39\n      tag_40\n      jump\t// in\n    tag_39:\n      mload(0x40)\n      tag_41\n      swap2\n      swap1\n      jump(tag_15)\n    tag_41:\n      mload(0x40)\n      dup1\n      swap2\n      sub\n      swap1\n      return\n        /* \"contracts/fun_stuff.sol\":1315:1437  function getMemberStructure(uint _memberId) public view returns(Member memory){\r... */\n    tag_10:\n      tag_42\n      0x04\n      dup1\n      calldatasize\n      sub\n      tag_43\n      swap2\n      swap1\n      dup2\n      add\n      swap1\n      jump(tag_18)\n    tag_43:\n      tag_44\n      jump\t// in\n    tag_42:\n      mload(0x40)\n      tag_45\n      swap2\n      swap1\n      jump(tag_46)\n    tag_45:\n      mload(0x40)\n      dup1\n      swap2\n      sub\n      swap1\n      return\n        /* \"contracts/fun_stuff.sol\":308:331  uint public memberCount */\n    tag_13:\n      sload(0x01)\n      dup2\n      jump\t// out\n        /* \"contracts/fun_stuff.sol\":214:253  mapping (uint => Member) public members */\n    tag_19:\n      mstore(0x20, 0x00)\n      dup1\n      0x00\n      mstore\n      keccak256(0x00, 0x40)\n      0x00\n      swap2\n      pop\n      swap1\n      pop\n      dup1\n      0x00\n      add\n      sload\n      swap1\n      dup1\n      0x01\n      add\n      dup1\n      sload\n      0x01\n      dup2\n      0x01\n      and\n      iszero\n      0x0100\n      mul\n      sub\n      and\n      0x02\n      swap1\n      div\n      dup1\n      0x1f\n      add\n      0x20\n      dup1\n      swap2\n      div\n      mul\n      0x20\n      add\n      mload(0x40)\n      swap1\n      dup2\n      add\n      0x40\n      mstore\n      dup1\n      swap3\n      swap2\n      swap1\n      dup2\n      dup2\n      mstore\n      0x20\n      add\n      dup3\n      dup1\n      sload\n      0x01\n      dup2\n      0x01\n      and\n      iszero\n      0x0100\n      mul\n      sub\n      and\n      0x02\n      swap1\n      div\n      dup1\n      iszero\n      tag_47\n      jumpi\n      dup1\n      0x1f\n      lt\n      tag_48\n      jumpi\n      0x0100\n      dup1\n      dup4\n      sload\n      div\n      mul\n      dup4\n      mstore\n      swap2\n      0x20\n      add\n      swap2\n      jump(tag_47)\n    tag_48:\n      dup3\n      add\n      swap2\n      swap1\n      0x00\n      mstore\n      keccak256(0x00, 0x20)\n      swap1\n    tag_49:\n      dup2\n      sload\n      dup2\n      mstore\n      swap1\n      0x01\n      add\n      swap1\n      0x20\n      add\n      dup1\n      dup4\n      gt\n      tag_49\n      jumpi\n      dup3\n      swap1\n      sub\n      0x1f\n      and\n      dup3\n      add\n      swap2\n    tag_47:\n      pop\n      pop\n      pop\n      pop\n      pop\n      swap1\n      dup1\n      0x02\n      add\n      0x00\n      swap1\n      sload\n      swap1\n      0x0100\n      exp\n      swap1\n      div\n      0xff\n      and\n      swap1\n      pop\n      dup4\n      jump\t// out\n        /* \"contracts/fun_stuff.sol\":1485:2026  function getMemberValue() public view returns(uint[] memory, string[] memory, bool[] memory) {\r... */\n    tag_23:\n        /* \"contracts/fun_stuff.sol\":1531:1544  uint[] memory */\n      0x60\n        /* \"contracts/fun_stuff.sol\":1546:1561  string[] memory */\n      dup1\n        /* \"contracts/fun_stuff.sol\":1563:1576  bool[] memory */\n      0x60\n        /* \"contracts/fun_stuff.sol\":1589:1610  uint[]      memory id */\n      dup1\n        /* \"contracts/fun_stuff.sol\":1624:1635  memberCount */\n      sload(0x01)\n        /* \"contracts/fun_stuff.sol\":1613:1636  new uint[](memberCount) */\n      mload(0x40)\n      swap1\n      dup1\n      dup3\n      mstore\n      dup1\n      0x20\n      mul\n      0x20\n      add\n      dup3\n      add\n      0x40\n      mstore\n      dup1\n      iszero\n      tag_51\n      jumpi\n      dup2\n      0x20\n      add\n        /* \"--CODEGEN--\":29:31   */\n      0x20\n        /* \"--CODEGEN--\":21:27   */\n      dup3\n        /* \"--CODEGEN--\":17:32   */\n      mul\n        /* \"--CODEGEN--\":117:121   */\n      dup1\n        /* \"--CODEGEN--\":105:115   */\n      codesize\n        /* \"--CODEGEN--\":97:103   */\n      dup4\n        /* \"--CODEGEN--\":88:122   */\n      codecopy\n        /* \"--CODEGEN--\":148:152   */\n      dup1\n        /* \"--CODEGEN--\":140:146   */\n      dup3\n        /* \"--CODEGEN--\":136:153   */\n      add\n        /* \"--CODEGEN--\":126:153   */\n      swap2\n      pop\n        /* \"--CODEGEN--\":0:157   */\n      pop\n        /* \"contracts/fun_stuff.sol\":1613:1636  new uint[](memberCount) */\n      swap1\n      pop\n    tag_51:\n      pop\n        /* \"contracts/fun_stuff.sol\":1589:1636  uint[]      memory id = new uint[](memberCount) */\n      swap1\n      pop\n        /* \"contracts/fun_stuff.sol\":1647:1670  string[]    memory name */\n      0x60\n        /* \"contracts/fun_stuff.sol\":1686:1697  memberCount */\n      sload(0x01)\n        /* \"contracts/fun_stuff.sol\":1673:1698  new string[](memberCount) */\n      mload(0x40)\n      swap1\n      dup1\n      dup3\n      mstore\n      dup1\n      0x20\n      mul\n      0x20\n      add\n      dup3\n      add\n      0x40\n      mstore\n      dup1\n      iszero\n      tag_52\n      jumpi\n      dup2\n      0x20\n      add\n    tag_53:\n      0x60\n      dup2\n      mstore\n      0x20\n      add\n      swap1\n      0x01\n      swap1\n      sub\n      swap1\n      dup2\n      tag_53\n      jumpi\n      swap1\n      pop\n    tag_52:\n      pop\n        /* \"contracts/fun_stuff.sol\":1647:1698  string[]    memory name = new string[](memberCount) */\n      swap1\n      pop\n        /* \"contracts/fun_stuff.sol\":1709:1735  bool[]      memory isVoted */\n      0x60\n        /* \"contracts/fun_stuff.sol\":1749:1760  memberCount */\n      sload(0x01)\n        /* \"contracts/fun_stuff.sol\":1738:1761  new bool[](memberCount) */\n      mload(0x40)\n      swap1\n      dup1\n      dup3\n      mstore\n      dup1\n      0x20\n      mul\n      0x20\n      add\n      dup3\n      add\n      0x40\n      mstore\n      dup1\n      iszero\n      tag_54\n      jumpi\n      dup2\n      0x20\n      add\n        /* \"--CODEGEN--\":29:31   */\n      0x20\n        /* \"--CODEGEN--\":21:27   */\n      dup3\n        /* \"--CODEGEN--\":17:32   */\n      mul\n        /* \"--CODEGEN--\":117:121   */\n      dup1\n        /* \"--CODEGEN--\":105:115   */\n      codesize\n        /* \"--CODEGEN--\":97:103   */\n      dup4\n        /* \"--CODEGEN--\":88:122   */\n      codecopy\n        /* \"--CODEGEN--\":148:152   */\n      dup1\n        /* \"--CODEGEN--\":140:146   */\n      dup3\n        /* \"--CODEGEN--\":136:153   */\n      add\n        /* \"--CODEGEN--\":126:153   */\n      swap2\n      pop\n        /* \"--CODEGEN--\":0:157   */\n      pop\n        /* \"contracts/fun_stuff.sol\":1738:1761  new bool[](memberCount) */\n      swap1\n      pop\n    tag_54:\n      pop\n        /* \"contracts/fun_stuff.sol\":1709:1761  bool[]      memory isVoted = new bool[](memberCount) */\n      swap1\n      pop\n        /* \"contracts/fun_stuff.sol\":1777:1783  uint i */\n      0x00\n        /* \"contracts/fun_stuff.sol\":1786:1787  0 */\n      dup1\n        /* \"contracts/fun_stuff.sol\":1777:1787  uint i = 0 */\n      swap1\n      pop\n        /* \"contracts/fun_stuff.sol\":1772:1982  for (uint i = 0; i < memberCount; i++) {\r... */\n    tag_55:\n        /* \"contracts/fun_stuff.sol\":1793:1804  memberCount */\n      sload(0x01)\n        /* \"contracts/fun_stuff.sol\":1789:1790  i */\n      dup2\n        /* \"contracts/fun_stuff.sol\":1789:1804  i < memberCount */\n      lt\n        /* \"contracts/fun_stuff.sol\":1772:1982  for (uint i = 0; i < memberCount; i++) {\r... */\n      iszero\n      tag_56\n      jumpi\n        /* \"contracts/fun_stuff.sol\":1826:1847  Member storage member */\n      0x00\n        /* \"contracts/fun_stuff.sol\":1850:1857  members */\n      dup1\n        /* \"contracts/fun_stuff.sol\":1850:1860  members[i] */\n      0x00\n        /* \"contracts/fun_stuff.sol\":1858:1859  i */\n      dup4\n        /* \"contracts/fun_stuff.sol\":1850:1860  members[i] */\n      dup2\n      mstore\n      0x20\n      add\n      swap1\n      dup2\n      mstore\n      0x20\n      add\n      0x00\n      keccak256\n        /* \"contracts/fun_stuff.sol\":1826:1860  Member storage member = members[i] */\n      swap1\n      pop\n        /* \"contracts/fun_stuff.sol\":1883:1889  member */\n      dup1\n        /* \"contracts/fun_stuff.sol\":1883:1892  member.id */\n      0x00\n      add\n      sload\n        /* \"contracts/fun_stuff.sol\":1875:1877  id */\n      dup6\n        /* \"contracts/fun_stuff.sol\":1878:1879  i */\n      dup4\n        /* \"contracts/fun_stuff.sol\":1875:1880  id[i] */\n      dup2\n      mload\n      dup2\n      lt\n      tag_58\n      jumpi\n      invalid\n    tag_58:\n      0x20\n      mul\n      0x20\n      add\n      add\n        /* \"contracts/fun_stuff.sol\":1875:1892  id[i] = member.id */\n      dup2\n      dup2\n      mstore\n      pop\n      pop\n        /* \"contracts/fun_stuff.sol\":1917:1923  member */\n      dup1\n        /* \"contracts/fun_stuff.sol\":1917:1928  member.name */\n      0x01\n      add\n        /* \"contracts/fun_stuff.sol\":1907:1928  name[i] = member.name */\n      dup1\n      sload\n      0x01\n      dup2\n      0x01\n      and\n      iszero\n      0x0100\n      mul\n      sub\n      and\n      0x02\n      swap1\n      div\n      dup1\n      0x1f\n      add\n      0x20\n      dup1\n      swap2\n      div\n      mul\n      0x20\n      add\n      mload(0x40)\n      swap1\n      dup2\n      add\n      0x40\n      mstore\n      dup1\n      swap3\n      swap2\n      swap1\n      dup2\n      dup2\n      mstore\n      0x20\n      add\n      dup3\n      dup1\n      sload\n      0x01\n      dup2\n      0x01\n      and\n      iszero\n      0x0100\n      mul\n      sub\n      and\n      0x02\n      swap1\n      div\n      dup1\n      iszero\n      tag_59\n      jumpi\n      dup1\n      0x1f\n      lt\n      tag_60\n      jumpi\n      0x0100\n      dup1\n      dup4\n      sload\n      div\n      mul\n      dup4\n      mstore\n      swap2\n      0x20\n      add\n      swap2\n      jump(tag_59)\n    tag_60:\n      dup3\n      add\n      swap2\n      swap1\n      0x00\n      mstore\n      keccak256(0x00, 0x20)\n      swap1\n    tag_61:\n      dup2\n      sload\n      dup2\n      mstore\n      swap1\n      0x01\n      add\n      swap1\n      0x20\n      add\n      dup1\n      dup4\n      gt\n      tag_61\n      jumpi\n      dup3\n      swap1\n      sub\n      0x1f\n      and\n      dup3\n      add\n      swap2\n    tag_59:\n      pop\n      pop\n      pop\n      pop\n      pop\n        /* \"contracts/fun_stuff.sol\":1907:1911  name */\n      dup5\n        /* \"contracts/fun_stuff.sol\":1912:1913  i */\n      dup4\n        /* \"contracts/fun_stuff.sol\":1907:1914  name[i] */\n      dup2\n      mload\n      dup2\n      lt\n      tag_62\n      jumpi\n      invalid\n    tag_62:\n      0x20\n      mul\n      0x20\n      add\n      add\n        /* \"contracts/fun_stuff.sol\":1907:1928  name[i] = member.name */\n      dup2\n      swap1\n      mstore\n      pop\n        /* \"contracts/fun_stuff.sol\":1956:1962  member */\n      dup1\n        /* \"contracts/fun_stuff.sol\":1956:1970  member.isVoted */\n      0x02\n      add\n      0x00\n      swap1\n      sload\n      swap1\n      0x0100\n      exp\n      swap1\n      div\n      0xff\n      and\n        /* \"contracts/fun_stuff.sol\":1943:1950  isVoted */\n      dup4\n        /* \"contracts/fun_stuff.sol\":1951:1952  i */\n      dup4\n        /* \"contracts/fun_stuff.sol\":1943:1953  isVoted[i] */\n      dup2\n      mload\n      dup2\n      lt\n      tag_63\n      jumpi\n      invalid\n    tag_63:\n      0x20\n      mul\n      0x20\n      add\n      add\n        /* \"contracts/fun_stuff.sol\":1943:1970  isVoted[i] = member.isVoted */\n      swap1\n      iszero\n      iszero\n      swap1\n      dup2\n      iszero\n      iszero\n      dup2\n      mstore\n      pop\n      pop\n        /* \"contracts/fun_stuff.sol\":1772:1982  for (uint i = 0; i < memberCount; i++) {\r... */\n      pop\n        /* \"contracts/fun_stuff.sol\":1806:1809  i++ */\n      dup1\n      dup1\n      0x01\n      add\n      swap2\n      pop\n      pop\n        /* \"contracts/fun_stuff.sol\":1772:1982  for (uint i = 0; i < memberCount; i++) {\r... */\n      jump(tag_55)\n    tag_56:\n      pop\n        /* \"contracts/fun_stuff.sol\":2000:2002  id */\n      dup3\n        /* \"contracts/fun_stuff.sol\":2004:2008  name */\n      dup3\n        /* \"contracts/fun_stuff.sol\":2010:2017  isVoted */\n      dup3\n        /* \"contracts/fun_stuff.sol\":1992:2018  return (id, name, isVoted) */\n      swap6\n      pop\n      swap6\n      pop\n      swap6\n      pop\n      pop\n      pop\n      pop\n        /* \"contracts/fun_stuff.sol\":1485:2026  function getMemberValue() public view returns(uint[] memory, string[] memory, bool[] memory) {\r... */\n      swap1\n      swap2\n      swap3\n      jump\t// out\n        /* \"contracts/fun_stuff.sol\":726:888  function addMember(string memory _name, bool _isVote) public {\r... */\n    tag_29:\n        /* \"contracts/fun_stuff.sol\":821:856  Member(memberCount, _name, _isVote) */\n      mload(0x40)\n      dup1\n      0x60\n      add\n      0x40\n      mstore\n      dup1\n        /* \"contracts/fun_stuff.sol\":828:839  memberCount */\n      sload(0x01)\n        /* \"contracts/fun_stuff.sol\":821:856  Member(memberCount, _name, _isVote) */\n      dup2\n      mstore\n      0x20\n      add\n        /* \"contracts/fun_stuff.sol\":841:846  _name */\n      dup4\n        /* \"contracts/fun_stuff.sol\":821:856  Member(memberCount, _name, _isVote) */\n      dup2\n      mstore\n      0x20\n      add\n        /* \"contracts/fun_stuff.sol\":848:855  _isVote */\n      dup3\n        /* \"contracts/fun_stuff.sol\":821:856  Member(memberCount, _name, _isVote) */\n      iszero\n      iszero\n      dup2\n      mstore\n      pop\n        /* \"contracts/fun_stuff.sol\":798:805  members */\n      0x00\n        /* \"contracts/fun_stuff.sol\":798:818  members[memberCount] */\n      dup1\n        /* \"contracts/fun_stuff.sol\":806:817  memberCount */\n      sload(0x01)\n        /* \"contracts/fun_stuff.sol\":798:818  members[memberCount] */\n      dup2\n      mstore\n      0x20\n      add\n      swap1\n      dup2\n      mstore\n      0x20\n      add\n      0x00\n      keccak256\n        /* \"contracts/fun_stuff.sol\":798:856  members[memberCount] = Member(memberCount, _name, _isVote) */\n      0x00\n      dup3\n      add\n      mload\n      dup2\n      0x00\n      add\n      sstore\n      0x20\n      dup3\n      add\n      mload\n      dup2\n      0x01\n      add\n      swap1\n      dup1\n      mload\n      swap1\n      0x20\n      add\n      swap1\n      tag_65\n      swap3\n      swap2\n      swap1\n      tag_66\n      jump\t// in\n    tag_65:\n      pop\n      0x40\n      dup3\n      add\n      mload\n      dup2\n      0x02\n      add\n      exp(0x0100, 0x00)\n      dup2\n      sload\n      dup2\n      0xff\n      mul\n      not\n      and\n      swap1\n      dup4\n      iszero\n      iszero\n      mul\n      or\n      swap1\n      sstore\n      pop\n      swap1\n      pop\n      pop\n        /* \"contracts/fun_stuff.sol\":867:878  memberCount */\n      0x01\n      0x00\n        /* \"contracts/fun_stuff.sol\":867:880  memberCount++ */\n      dup2\n      sload\n      dup1\n      swap3\n      swap2\n      swap1\n      0x01\n      add\n      swap2\n      swap1\n      pop\n      sstore\n      pop\n        /* \"contracts/fun_stuff.sol\":726:888  function addMember(string memory _name, bool _isVote) public {\r... */\n      pop\n      pop\n      jump\t// out\n        /* \"contracts/fun_stuff.sol\":1013:1265  function getCountOfVoted(bool _isVote) public returns(uint){\r... */\n    tag_33:\n        /* \"contracts/fun_stuff.sol\":1067:1071  uint */\n      0x00\n        /* \"contracts/fun_stuff.sol\":1088:1094  uint i */\n      dup1\n        /* \"contracts/fun_stuff.sol\":1097:1098  0 */\n      0x00\n        /* \"contracts/fun_stuff.sol\":1088:1098  uint i = 0 */\n      swap1\n      pop\n        /* \"contracts/fun_stuff.sol\":1083:1230  for (uint i = 0; i < memberCount; i++) {\r... */\n    tag_68:\n        /* \"contracts/fun_stuff.sol\":1104:1115  memberCount */\n      sload(0x01)\n        /* \"contracts/fun_stuff.sol\":1100:1101  i */\n      dup2\n        /* \"contracts/fun_stuff.sol\":1100:1115  i < memberCount */\n      lt\n        /* \"contracts/fun_stuff.sol\":1083:1230  for (uint i = 0; i < memberCount; i++) {\r... */\n      iszero\n      tag_69\n      jumpi\n        /* \"contracts/fun_stuff.sol\":1163:1170  _isVote */\n      dup3\n        /* \"contracts/fun_stuff.sol\":1141:1170  members[i].isVoted == _isVote */\n      iszero\n      iszero\n        /* \"contracts/fun_stuff.sol\":1141:1148  members */\n      0x00\n        /* \"contracts/fun_stuff.sol\":1141:1151  members[i] */\n      dup1\n        /* \"contracts/fun_stuff.sol\":1149:1150  i */\n      dup4\n        /* \"contracts/fun_stuff.sol\":1141:1151  members[i] */\n      dup2\n      mstore\n      0x20\n      add\n      swap1\n      dup2\n      mstore\n      0x20\n      add\n      0x00\n      keccak256\n        /* \"contracts/fun_stuff.sol\":1141:1159  members[i].isVoted */\n      0x02\n      add\n      0x00\n      swap1\n      sload\n      swap1\n      0x0100\n      exp\n      swap1\n      div\n      0xff\n      and\n        /* \"contracts/fun_stuff.sol\":1141:1170  members[i].isVoted == _isVote */\n      iszero\n      iszero\n      eq\n        /* \"contracts/fun_stuff.sol\":1137:1219  if (members[i].isVoted == _isVote) {\r... */\n      iszero\n      tag_71\n      jumpi\n        /* \"contracts/fun_stuff.sol\":1191:1201  votedCount */\n      0x02\n      0x00\n        /* \"contracts/fun_stuff.sol\":1191:1203  votedCount++ */\n      dup2\n      sload\n      dup1\n      swap3\n      swap2\n      swap1\n      0x01\n      add\n      swap2\n      swap1\n      pop\n      sstore\n      pop\n        /* \"contracts/fun_stuff.sol\":1137:1219  if (members[i].isVoted == _isVote) {\r... */\n    tag_71:\n        /* \"contracts/fun_stuff.sol\":1117:1120  i++ */\n      dup1\n      dup1\n      0x01\n      add\n      swap2\n      pop\n      pop\n        /* \"contracts/fun_stuff.sol\":1083:1230  for (uint i = 0; i < memberCount; i++) {\r... */\n      jump(tag_68)\n    tag_69:\n      pop\n        /* \"contracts/fun_stuff.sol\":1247:1257  votedCount */\n      sload(0x02)\n        /* \"contracts/fun_stuff.sol\":1240:1257  return votedCount */\n      swap1\n      pop\n        /* \"contracts/fun_stuff.sol\":1013:1265  function getCountOfVoted(bool _isVote) public returns(uint){\r... */\n      swap2\n      swap1\n      pop\n      jump\t// out\n        /* \"contracts/fun_stuff.sol\":896:1005  function setVote(uint _memberId, bool _isVote) public {\r... */\n    tag_38:\n        /* \"contracts/fun_stuff.sol\":990:997  _isVote */\n      dup1\n        /* \"contracts/fun_stuff.sol\":961:968  members */\n      0x00\n        /* \"contracts/fun_stuff.sol\":961:979  members[_memberId] */\n      dup1\n        /* \"contracts/fun_stuff.sol\":969:978  _memberId */\n      dup5\n        /* \"contracts/fun_stuff.sol\":961:979  members[_memberId] */\n      dup2\n      mstore\n      0x20\n      add\n      swap1\n      dup2\n      mstore\n      0x20\n      add\n      0x00\n      keccak256\n        /* \"contracts/fun_stuff.sol\":961:987  members[_memberId].isVoted */\n      0x02\n      add\n      0x00\n        /* \"contracts/fun_stuff.sol\":961:997  members[_memberId].isVoted = _isVote */\n      0x0100\n      exp\n      dup2\n      sload\n      dup2\n      0xff\n      mul\n      not\n      and\n      swap1\n      dup4\n      iszero\n      iszero\n      mul\n      or\n      swap1\n      sstore\n      pop\n        /* \"contracts/fun_stuff.sol\":896:1005  function setVote(uint _memberId, bool _isVote) public {\r... */\n      pop\n      pop\n      jump\t// out\n        /* \"contracts/fun_stuff.sol\":338:364  uint public votedCount = 0 */\n    tag_40:\n      sload(0x02)\n      dup2\n      jump\t// out\n        /* \"contracts/fun_stuff.sol\":1315:1437  function getMemberStructure(uint _memberId) public view returns(Member memory){\r... */\n    tag_44:\n        /* \"contracts/fun_stuff.sol\":1379:1392  Member memory */\n      tag_73\n      tag_74\n      jump\t// in\n    tag_73:\n        /* \"contracts/fun_stuff.sol\":1411:1418  members */\n      0x00\n        /* \"contracts/fun_stuff.sol\":1411:1429  members[_memberId] */\n      dup1\n        /* \"contracts/fun_stuff.sol\":1419:1428  _memberId */\n      dup4\n        /* \"contracts/fun_stuff.sol\":1411:1429  members[_memberId] */\n      dup2\n      mstore\n      0x20\n      add\n      swap1\n      dup2\n      mstore\n      0x20\n      add\n      0x00\n      keccak256\n        /* \"contracts/fun_stuff.sol\":1404:1429  return members[_memberId] */\n      mload(0x40)\n      dup1\n      0x60\n      add\n      0x40\n      mstore\n      swap1\n      dup2\n      0x00\n      dup3\n      add\n      sload\n      dup2\n      mstore\n      0x20\n      add\n      0x01\n      dup3\n      add\n      dup1\n      sload\n      0x01\n      dup2\n      0x01\n      and\n      iszero\n      0x0100\n      mul\n      sub\n      and\n      0x02\n      swap1\n      div\n      dup1\n      0x1f\n      add\n      0x20\n      dup1\n      swap2\n      div\n      mul\n      0x20\n      add\n      mload(0x40)\n      swap1\n      dup2\n      add\n      0x40\n      mstore\n      dup1\n      swap3\n      swap2\n      swap1\n      dup2\n      dup2\n      mstore\n      0x20\n      add\n      dup3\n      dup1\n      sload\n      0x01\n      dup2\n      0x01\n      and\n      iszero\n      0x0100\n      mul\n      sub\n      and\n      0x02\n      swap1\n      div\n      dup1\n      iszero\n      tag_76\n      jumpi\n      dup1\n      0x1f\n      lt\n      tag_77\n      jumpi\n      0x0100\n      dup1\n      dup4\n      sload\n      div\n      mul\n      dup4\n      mstore\n      swap2\n      0x20\n      add\n      swap2\n      jump(tag_76)\n    tag_77:\n      dup3\n      add\n      swap2\n      swap1\n      0x00\n      mstore\n      keccak256(0x00, 0x20)\n      swap1\n    tag_78:\n      dup2\n      sload\n      dup2\n      mstore\n      swap1\n      0x01\n      add\n      swap1\n      0x20\n      add\n      dup1\n      dup4\n      gt\n      tag_78\n      jumpi\n      dup3\n      swap1\n      sub\n      0x1f\n      and\n      dup3\n      add\n      swap2\n    tag_76:\n      pop\n      pop\n      pop\n      pop\n      pop\n      dup2\n      mstore\n      0x20\n      add\n      0x02\n      dup3\n      add\n      0x00\n      swap1\n      sload\n      swap1\n      0x0100\n      exp\n      swap1\n      div\n      0xff\n      and\n      iszero\n      iszero\n      iszero\n      iszero\n      dup2\n      mstore\n      pop\n      pop\n      swap1\n      pop\n        /* \"contracts/fun_stuff.sol\":1315:1437  function getMemberStructure(uint _memberId) public view returns(Member memory){\r... */\n      swap2\n      swap1\n      pop\n      jump\t// out\n        /* \"contracts/fun_stuff.sol\":95:2034  contract VoteSaving {\r... */\n    tag_66:\n      dup3\n      dup1\n      sload\n      0x01\n      dup2\n      0x01\n      and\n      iszero\n      0x0100\n      mul\n      sub\n      and\n      0x02\n      swap1\n      div\n      swap1\n      0x00\n      mstore\n      keccak256(0x00, 0x20)\n      swap1\n      0x1f\n      add\n      0x20\n      swap1\n      div\n      dup2\n      add\n      swap3\n      dup3\n      0x1f\n      lt\n      tag_80\n      jumpi\n      dup1\n      mload\n      not(0xff)\n      and\n      dup4\n      dup1\n      add\n      or\n      dup6\n      sstore\n      jump(tag_79)\n    tag_80:\n      dup3\n      dup1\n      add\n      0x01\n      add\n      dup6\n      sstore\n      dup3\n      iszero\n      tag_79\n      jumpi\n      swap2\n      dup3\n      add\n    tag_81:\n      dup3\n      dup2\n      gt\n      iszero\n      tag_82\n      jumpi\n      dup3\n      mload\n      dup3\n      sstore\n      swap2\n      0x20\n      add\n      swap2\n      swap1\n      0x01\n      add\n      swap1\n      jump(tag_81)\n    tag_82:\n    tag_79:\n      pop\n      swap1\n      pop\n      tag_83\n      swap2\n      swap1\n      tag_84\n      jump\t// in\n    tag_83:\n      pop\n      swap1\n      jump\t// out\n    tag_74:\n      mload(0x40)\n      dup1\n      0x60\n      add\n      0x40\n      mstore\n      dup1\n      0x00\n      dup2\n      mstore\n      0x20\n      add\n      0x60\n      dup2\n      mstore\n      0x20\n      add\n      iszero(iszero(0x00))\n      dup2\n      mstore\n      pop\n      swap1\n      jump\t// out\n    tag_84:\n      tag_85\n      swap2\n      swap1\n    tag_86:\n      dup1\n      dup3\n      gt\n      iszero\n      tag_87\n      jumpi\n      0x00\n      dup2\n      0x00\n      swap1\n      sstore\n      pop\n      0x01\n      add\n      jump(tag_86)\n    tag_87:\n      pop\n      swap1\n      jump\n    tag_85:\n      swap1\n      jump\t// out\n        /* \"--CODEGEN--\":5:129   */\n    tag_89:\n      0x00\n        /* \"--CODEGEN--\":82:88   */\n      dup2\n        /* \"--CODEGEN--\":69:89   */\n      calldataload\n        /* \"--CODEGEN--\":60:89   */\n      swap1\n      pop\n        /* \"--CODEGEN--\":94:124   */\n      tag_91\n        /* \"--CODEGEN--\":118:123   */\n      dup2\n        /* \"--CODEGEN--\":94:124   */\n      jump(tag_92)\n    tag_91:\n        /* \"--CODEGEN--\":54:129   */\n      swap3\n      swap2\n      pop\n      pop\n      jump\n        /* \"--CODEGEN--\":137:579   */\n    tag_93:\n      0x00\n        /* \"--CODEGEN--\":239:242   */\n      dup3\n        /* \"--CODEGEN--\":232:236   */\n      0x1f\n        /* \"--CODEGEN--\":224:230   */\n      dup4\n        /* \"--CODEGEN--\":220:237   */\n      add\n        /* \"--CODEGEN--\":216:243   */\n      slt\n        /* \"--CODEGEN--\":206:208   */\n      tag_95\n      jumpi\n        /* \"--CODEGEN--\":257:258   */\n      0x00\n        /* \"--CODEGEN--\":254:255   */\n      dup1\n        /* \"--CODEGEN--\":247:259   */\n      revert\n        /* \"--CODEGEN--\":206:208   */\n    tag_95:\n        /* \"--CODEGEN--\":294:300   */\n      dup2\n        /* \"--CODEGEN--\":281:301   */\n      calldataload\n        /* \"--CODEGEN--\":316:381   */\n      tag_96\n        /* \"--CODEGEN--\":331:380   */\n      tag_97\n        /* \"--CODEGEN--\":373:379   */\n      dup3\n        /* \"--CODEGEN--\":331:380   */\n      jump(tag_98)\n    tag_97:\n        /* \"--CODEGEN--\":316:381   */\n      jump(tag_99)\n    tag_96:\n        /* \"--CODEGEN--\":307:381   */\n      swap2\n      pop\n        /* \"--CODEGEN--\":401:407   */\n      dup1\n        /* \"--CODEGEN--\":394:399   */\n      dup3\n        /* \"--CODEGEN--\":387:408   */\n      mstore\n        /* \"--CODEGEN--\":437:441   */\n      0x20\n        /* \"--CODEGEN--\":429:435   */\n      dup4\n        /* \"--CODEGEN--\":425:442   */\n      add\n        /* \"--CODEGEN--\":470:474   */\n      0x20\n        /* \"--CODEGEN--\":463:468   */\n      dup4\n        /* \"--CODEGEN--\":459:475   */\n      add\n        /* \"--CODEGEN--\":505:508   */\n      dup6\n        /* \"--CODEGEN--\":496:502   */\n      dup4\n        /* \"--CODEGEN--\":491:494   */\n      dup4\n        /* \"--CODEGEN--\":487:503   */\n      add\n        /* \"--CODEGEN--\":484:509   */\n      gt\n        /* \"--CODEGEN--\":481:483   */\n      iszero\n      tag_100\n      jumpi\n        /* \"--CODEGEN--\":522:523   */\n      0x00\n        /* \"--CODEGEN--\":519:520   */\n      dup1\n        /* \"--CODEGEN--\":512:524   */\n      revert\n        /* \"--CODEGEN--\":481:483   */\n    tag_100:\n        /* \"--CODEGEN--\":532:573   */\n      tag_101\n        /* \"--CODEGEN--\":566:572   */\n      dup4\n        /* \"--CODEGEN--\":561:564   */\n      dup3\n        /* \"--CODEGEN--\":556:559   */\n      dup5\n        /* \"--CODEGEN--\":532:573   */\n      jump(tag_102)\n    tag_101:\n        /* \"--CODEGEN--\":199:579   */\n      pop\n      pop\n      pop\n      swap3\n      swap2\n      pop\n      pop\n      jump\n        /* \"--CODEGEN--\":587:717   */\n    tag_103:\n      0x00\n        /* \"--CODEGEN--\":667:673   */\n      dup2\n        /* \"--CODEGEN--\":654:674   */\n      calldataload\n        /* \"--CODEGEN--\":645:674   */\n      swap1\n      pop\n        /* \"--CODEGEN--\":679:712   */\n      tag_105\n        /* \"--CODEGEN--\":706:711   */\n      dup2\n        /* \"--CODEGEN--\":679:712   */\n      jump(tag_106)\n    tag_105:\n        /* \"--CODEGEN--\":639:717   */\n      swap3\n      swap2\n      pop\n      pop\n      jump\n        /* \"--CODEGEN--\":724:959   */\n    tag_32:\n      0x00\n        /* \"--CODEGEN--\":825:827   */\n      0x20\n        /* \"--CODEGEN--\":813:822   */\n      dup3\n        /* \"--CODEGEN--\":804:811   */\n      dup5\n        /* \"--CODEGEN--\":800:823   */\n      sub\n        /* \"--CODEGEN--\":796:828   */\n      slt\n        /* \"--CODEGEN--\":793:795   */\n      iszero\n      tag_108\n      jumpi\n        /* \"--CODEGEN--\":841:842   */\n      0x00\n        /* \"--CODEGEN--\":838:839   */\n      dup1\n        /* \"--CODEGEN--\":831:843   */\n      revert\n        /* \"--CODEGEN--\":793:795   */\n    tag_108:\n        /* \"--CODEGEN--\":876:877   */\n      0x00\n        /* \"--CODEGEN--\":893:943   */\n      tag_109\n        /* \"--CODEGEN--\":935:942   */\n      dup5\n        /* \"--CODEGEN--\":926:932   */\n      dup3\n        /* \"--CODEGEN--\":915:924   */\n      dup6\n        /* \"--CODEGEN--\":911:933   */\n      add\n        /* \"--CODEGEN--\":893:943   */\n      jump(tag_89)\n    tag_109:\n        /* \"--CODEGEN--\":883:943   */\n      swap2\n      pop\n        /* \"--CODEGEN--\":855:949   */\n      pop\n        /* \"--CODEGEN--\":787:959   */\n      swap3\n      swap2\n      pop\n      pop\n      jump\n        /* \"--CODEGEN--\":966:1432   */\n    tag_28:\n      0x00\n      dup1\n        /* \"--CODEGEN--\":1094:1096   */\n      0x40\n        /* \"--CODEGEN--\":1082:1091   */\n      dup4\n        /* \"--CODEGEN--\":1073:1080   */\n      dup6\n        /* \"--CODEGEN--\":1069:1092   */\n      sub\n        /* \"--CODEGEN--\":1065:1097   */\n      slt\n        /* \"--CODEGEN--\":1062:1064   */\n      iszero\n      tag_111\n      jumpi\n        /* \"--CODEGEN--\":1110:1111   */\n      0x00\n        /* \"--CODEGEN--\":1107:1108   */\n      dup1\n        /* \"--CODEGEN--\":1100:1112   */\n      revert\n        /* \"--CODEGEN--\":1062:1064   */\n    tag_111:\n        /* \"--CODEGEN--\":1173:1174   */\n      0x00\n        /* \"--CODEGEN--\":1162:1171   */\n      dup4\n        /* \"--CODEGEN--\":1158:1175   */\n      add\n        /* \"--CODEGEN--\":1145:1176   */\n      calldataload\n        /* \"--CODEGEN--\":1196:1214   */\n      0xffffffffffffffff\n        /* \"--CODEGEN--\":1188:1194   */\n      dup2\n        /* \"--CODEGEN--\":1185:1215   */\n      gt\n        /* \"--CODEGEN--\":1182:1184   */\n      iszero\n      tag_112\n      jumpi\n        /* \"--CODEGEN--\":1228:1229   */\n      0x00\n        /* \"--CODEGEN--\":1225:1226   */\n      dup1\n        /* \"--CODEGEN--\":1218:1230   */\n      revert\n        /* \"--CODEGEN--\":1182:1184   */\n    tag_112:\n        /* \"--CODEGEN--\":1248:1311   */\n      tag_113\n        /* \"--CODEGEN--\":1303:1310   */\n      dup6\n        /* \"--CODEGEN--\":1294:1300   */\n      dup3\n        /* \"--CODEGEN--\":1283:1292   */\n      dup7\n        /* \"--CODEGEN--\":1279:1301   */\n      add\n        /* \"--CODEGEN--\":1248:1311   */\n      jump(tag_93)\n    tag_113:\n        /* \"--CODEGEN--\":1238:1311   */\n      swap3\n      pop\n        /* \"--CODEGEN--\":1124:1317   */\n      pop\n        /* \"--CODEGEN--\":1348:1350   */\n      0x20\n        /* \"--CODEGEN--\":1366:1416   */\n      tag_114\n        /* \"--CODEGEN--\":1408:1415   */\n      dup6\n        /* \"--CODEGEN--\":1399:1405   */\n      dup3\n        /* \"--CODEGEN--\":1388:1397   */\n      dup7\n        /* \"--CODEGEN--\":1384:1406   */\n      add\n        /* \"--CODEGEN--\":1366:1416   */\n      jump(tag_89)\n    tag_114:\n        /* \"--CODEGEN--\":1356:1416   */\n      swap2\n      pop\n        /* \"--CODEGEN--\":1327:1422   */\n      pop\n        /* \"--CODEGEN--\":1056:1432   */\n      swap3\n      pop\n      swap3\n      swap1\n      pop\n      jump\n        /* \"--CODEGEN--\":1439:1680   */\n    tag_18:\n      0x00\n        /* \"--CODEGEN--\":1543:1545   */\n      0x20\n        /* \"--CODEGEN--\":1531:1540   */\n      dup3\n        /* \"--CODEGEN--\":1522:1529   */\n      dup5\n        /* \"--CODEGEN--\":1518:1541   */\n      sub\n        /* \"--CODEGEN--\":1514:1546   */\n      slt\n        /* \"--CODEGEN--\":1511:1513   */\n      iszero\n      tag_116\n      jumpi\n        /* \"--CODEGEN--\":1559:1560   */\n      0x00\n        /* \"--CODEGEN--\":1556:1557   */\n      dup1\n        /* \"--CODEGEN--\":1549:1561   */\n      revert\n        /* \"--CODEGEN--\":1511:1513   */\n    tag_116:\n        /* \"--CODEGEN--\":1594:1595   */\n      0x00\n        /* \"--CODEGEN--\":1611:1664   */\n      tag_117\n        /* \"--CODEGEN--\":1656:1663   */\n      dup5\n        /* \"--CODEGEN--\":1647:1653   */\n      dup3\n        /* \"--CODEGEN--\":1636:1645   */\n      dup6\n        /* \"--CODEGEN--\":1632:1654   */\n      add\n        /* \"--CODEGEN--\":1611:1664   */\n      jump(tag_103)\n    tag_117:\n        /* \"--CODEGEN--\":1601:1664   */\n      swap2\n      pop\n        /* \"--CODEGEN--\":1573:1670   */\n      pop\n        /* \"--CODEGEN--\":1505:1680   */\n      swap3\n      swap2\n      pop\n      pop\n      jump\n        /* \"--CODEGEN--\":1687:2047   */\n    tag_37:\n      0x00\n      dup1\n        /* \"--CODEGEN--\":1805:1807   */\n      0x40\n        /* \"--CODEGEN--\":1793:1802   */\n      dup4\n        /* \"--CODEGEN--\":1784:1791   */\n      dup6\n        /* \"--CODEGEN--\":1780:1803   */\n      sub\n        /* \"--CODEGEN--\":1776:1808   */\n      slt\n        /* \"--CODEGEN--\":1773:1775   */\n      iszero\n      tag_119\n      jumpi\n        /* \"--CODEGEN--\":1821:1822   */\n      0x00\n        /* \"--CODEGEN--\":1818:1819   */\n      dup1\n        /* \"--CODEGEN--\":1811:1823   */\n      revert\n        /* \"--CODEGEN--\":1773:1775   */\n    tag_119:\n        /* \"--CODEGEN--\":1856:1857   */\n      0x00\n        /* \"--CODEGEN--\":1873:1926   */\n      tag_120\n        /* \"--CODEGEN--\":1918:1925   */\n      dup6\n        /* \"--CODEGEN--\":1909:1915   */\n      dup3\n        /* \"--CODEGEN--\":1898:1907   */\n      dup7\n        /* \"--CODEGEN--\":1894:1916   */\n      add\n        /* \"--CODEGEN--\":1873:1926   */\n      jump(tag_103)\n    tag_120:\n        /* \"--CODEGEN--\":1863:1926   */\n      swap3\n      pop\n        /* \"--CODEGEN--\":1835:1932   */\n      pop\n        /* \"--CODEGEN--\":1963:1965   */\n      0x20\n        /* \"--CODEGEN--\":1981:2031   */\n      tag_121\n        /* \"--CODEGEN--\":2023:2030   */\n      dup6\n        /* \"--CODEGEN--\":2014:2020   */\n      dup3\n        /* \"--CODEGEN--\":2003:2012   */\n      dup7\n        /* \"--CODEGEN--\":1999:2021   */\n      add\n        /* \"--CODEGEN--\":1981:2031   */\n      jump(tag_89)\n    tag_121:\n        /* \"--CODEGEN--\":1971:2031   */\n      swap2\n      pop\n        /* \"--CODEGEN--\":1942:2037   */\n      pop\n        /* \"--CODEGEN--\":1767:2047   */\n      swap3\n      pop\n      swap3\n      swap1\n      pop\n      jump\n        /* \"--CODEGEN--\":2055:2216   */\n    tag_122:\n      0x00\n        /* \"--CODEGEN--\":2136:2176   */\n      tag_124\n        /* \"--CODEGEN--\":2172:2175   */\n      dup4\n        /* \"--CODEGEN--\":2164:2170   */\n      dup4\n        /* \"--CODEGEN--\":2136:2176   */\n      jump(tag_125)\n    tag_124:\n        /* \"--CODEGEN--\":2205:2209   */\n      0x20\n        /* \"--CODEGEN--\":2200:2203   */\n      dup4\n        /* \"--CODEGEN--\":2196:2210   */\n      add\n        /* \"--CODEGEN--\":2182:2210   */\n      swap1\n      pop\n        /* \"--CODEGEN--\":2129:2216   */\n      swap3\n      swap2\n      pop\n      pop\n      jump\n        /* \"--CODEGEN--\":2225:2406   */\n    tag_126:\n      0x00\n        /* \"--CODEGEN--\":2338:2400   */\n      tag_128\n        /* \"--CODEGEN--\":2396:2399   */\n      dup4\n        /* \"--CODEGEN--\":2388:2394   */\n      dup4\n        /* \"--CODEGEN--\":2338:2400   */\n      jump(tag_129)\n    tag_128:\n        /* \"--CODEGEN--\":2324:2400   */\n      swap1\n      pop\n        /* \"--CODEGEN--\":2317:2406   */\n      swap3\n      swap2\n      pop\n      pop\n      jump\n        /* \"--CODEGEN--\":2415:2588   */\n    tag_130:\n      0x00\n        /* \"--CODEGEN--\":2502:2548   */\n      tag_132\n        /* \"--CODEGEN--\":2544:2547   */\n      dup4\n        /* \"--CODEGEN--\":2536:2542   */\n      dup4\n        /* \"--CODEGEN--\":2502:2548   */\n      jump(tag_133)\n    tag_132:\n        /* \"--CODEGEN--\":2577:2581   */\n      0x20\n        /* \"--CODEGEN--\":2572:2575   */\n      dup4\n        /* \"--CODEGEN--\":2568:2582   */\n      add\n        /* \"--CODEGEN--\":2554:2582   */\n      swap1\n      pop\n        /* \"--CODEGEN--\":2495:2588   */\n      swap3\n      swap2\n      pop\n      pop\n      jump\n        /* \"--CODEGEN--\":2621:3287   */\n    tag_134:\n      0x00\n        /* \"--CODEGEN--\":2760:2811   */\n      tag_136\n        /* \"--CODEGEN--\":2805:2810   */\n      dup3\n        /* \"--CODEGEN--\":2760:2811   */\n      jump(tag_137)\n    tag_136:\n        /* \"--CODEGEN--\":2824:2907   */\n      tag_138\n        /* \"--CODEGEN--\":2900:2906   */\n      dup2\n        /* \"--CODEGEN--\":2895:2898   */\n      dup6\n        /* \"--CODEGEN--\":2824:2907   */\n      jump(tag_139)\n    tag_138:\n        /* \"--CODEGEN--\":2817:2907   */\n      swap4\n      pop\n        /* \"--CODEGEN--\":2928:2981   */\n      tag_140\n        /* \"--CODEGEN--\":2975:2980   */\n      dup4\n        /* \"--CODEGEN--\":2928:2981   */\n      jump(tag_141)\n    tag_140:\n        /* \"--CODEGEN--\":3001:3008   */\n      dup1\n        /* \"--CODEGEN--\":3029:3030   */\n      0x00\n        /* \"--CODEGEN--\":3014:3265   */\n    tag_142:\n        /* \"--CODEGEN--\":3039:3045   */\n      dup4\n        /* \"--CODEGEN--\":3036:3037   */\n      dup2\n        /* \"--CODEGEN--\":3033:3046   */\n      lt\n        /* \"--CODEGEN--\":3014:3265   */\n      iszero\n      tag_144\n      jumpi\n        /* \"--CODEGEN--\":3106:3112   */\n      dup2\n        /* \"--CODEGEN--\":3100:3113   */\n      mload\n        /* \"--CODEGEN--\":3127:3184   */\n      tag_145\n        /* \"--CODEGEN--\":3180:3183   */\n      dup9\n        /* \"--CODEGEN--\":3165:3178   */\n      dup3\n        /* \"--CODEGEN--\":3127:3184   */\n      jump(tag_122)\n    tag_145:\n        /* \"--CODEGEN--\":3120:3184   */\n      swap8\n      pop\n        /* \"--CODEGEN--\":3201:3258   */\n      tag_146\n        /* \"--CODEGEN--\":3251:3257   */\n      dup4\n        /* \"--CODEGEN--\":3201:3258   */\n      jump(tag_147)\n    tag_146:\n        /* \"--CODEGEN--\":3191:3258   */\n      swap3\n      pop\n        /* \"--CODEGEN--\":3071:3265   */\n      pop\n        /* \"--CODEGEN--\":3061:3062   */\n      0x01\n        /* \"--CODEGEN--\":3058:3059   */\n      dup2\n        /* \"--CODEGEN--\":3054:3063   */\n      add\n        /* \"--CODEGEN--\":3049:3063   */\n      swap1\n      pop\n        /* \"--CODEGEN--\":3014:3265   */\n      jump(tag_142)\n    tag_144:\n        /* \"--CODEGEN--\":3018:3032   */\n      pop\n        /* \"--CODEGEN--\":3278:3281   */\n      dup6\n        /* \"--CODEGEN--\":3271:3281   */\n      swap4\n      pop\n        /* \"--CODEGEN--\":2739:3287   */\n      pop\n      pop\n      pop\n      swap3\n      swap2\n      pop\n      pop\n      jump\n        /* \"--CODEGEN--\":3324:4220   */\n    tag_148:\n      0x00\n        /* \"--CODEGEN--\":3481:3541   */\n      tag_150\n        /* \"--CODEGEN--\":3535:3540   */\n      dup3\n        /* \"--CODEGEN--\":3481:3541   */\n      jump(tag_151)\n    tag_150:\n        /* \"--CODEGEN--\":3554:3646   */\n      tag_152\n        /* \"--CODEGEN--\":3639:3645   */\n      dup2\n        /* \"--CODEGEN--\":3634:3637   */\n      dup6\n        /* \"--CODEGEN--\":3554:3646   */\n      jump(tag_153)\n    tag_152:\n        /* \"--CODEGEN--\":3547:3646   */\n      swap4\n      pop\n        /* \"--CODEGEN--\":3669:3672   */\n      dup4\n        /* \"--CODEGEN--\":3711:3715   */\n      0x20\n        /* \"--CODEGEN--\":3703:3709   */\n      dup3\n        /* \"--CODEGEN--\":3699:3716   */\n      mul\n        /* \"--CODEGEN--\":3694:3697   */\n      dup6\n        /* \"--CODEGEN--\":3690:3717   */\n      add\n        /* \"--CODEGEN--\":3738:3800   */\n      tag_154\n        /* \"--CODEGEN--\":3794:3799   */\n      dup6\n        /* \"--CODEGEN--\":3738:3800   */\n      jump(tag_155)\n    tag_154:\n        /* \"--CODEGEN--\":3820:3827   */\n      dup1\n        /* \"--CODEGEN--\":3848:3849   */\n      0x00\n        /* \"--CODEGEN--\":3833:4181   */\n    tag_156:\n        /* \"--CODEGEN--\":3858:3864   */\n      dup6\n        /* \"--CODEGEN--\":3855:3856   */\n      dup2\n        /* \"--CODEGEN--\":3852:3865   */\n      lt\n        /* \"--CODEGEN--\":3833:4181   */\n      iszero\n      tag_158\n      jumpi\n        /* \"--CODEGEN--\":3920:3929   */\n      dup5\n        /* \"--CODEGEN--\":3914:3918   */\n      dup5\n        /* \"--CODEGEN--\":3910:3930   */\n      sub\n        /* \"--CODEGEN--\":3905:3908   */\n      dup10\n        /* \"--CODEGEN--\":3898:3931   */\n      mstore\n        /* \"--CODEGEN--\":3965:3971   */\n      dup2\n        /* \"--CODEGEN--\":3959:3972   */\n      mload\n        /* \"--CODEGEN--\":3987:4063   */\n      tag_159\n        /* \"--CODEGEN--\":4058:4062   */\n      dup6\n        /* \"--CODEGEN--\":4043:4056   */\n      dup3\n        /* \"--CODEGEN--\":3987:4063   */\n      jump(tag_126)\n    tag_159:\n        /* \"--CODEGEN--\":3979:4063   */\n      swap5\n      pop\n        /* \"--CODEGEN--\":4080:4146   */\n      tag_160\n        /* \"--CODEGEN--\":4139:4145   */\n      dup4\n        /* \"--CODEGEN--\":4080:4146   */\n      jump(tag_161)\n    tag_160:\n        /* \"--CODEGEN--\":4070:4146   */\n      swap3\n      pop\n        /* \"--CODEGEN--\":4169:4173   */\n      0x20\n        /* \"--CODEGEN--\":4164:4167   */\n      dup11\n        /* \"--CODEGEN--\":4160:4174   */\n      add\n        /* \"--CODEGEN--\":4153:4174   */\n      swap10\n      pop\n        /* \"--CODEGEN--\":3890:4181   */\n      pop\n        /* \"--CODEGEN--\":3880:3881   */\n      0x01\n        /* \"--CODEGEN--\":3877:3878   */\n      dup2\n        /* \"--CODEGEN--\":3873:3882   */\n      add\n        /* \"--CODEGEN--\":3868:3882   */\n      swap1\n      pop\n        /* \"--CODEGEN--\":3833:4181   */\n      jump(tag_156)\n    tag_158:\n        /* \"--CODEGEN--\":3837:3851   */\n      pop\n        /* \"--CODEGEN--\":4194:4198   */\n      dup3\n        /* \"--CODEGEN--\":4187:4198   */\n      swap8\n      pop\n        /* \"--CODEGEN--\":4211:4214   */\n      dup8\n        /* \"--CODEGEN--\":4204:4214   */\n      swap6\n      pop\n        /* \"--CODEGEN--\":3460:4220   */\n      pop\n      pop\n      pop\n      pop\n      pop\n      swap3\n      swap2\n      pop\n      pop\n      jump\n        /* \"--CODEGEN--\":4259:4949   */\n    tag_162:\n      0x00\n        /* \"--CODEGEN--\":4404:4458   */\n      tag_164\n        /* \"--CODEGEN--\":4452:4457   */\n      dup3\n        /* \"--CODEGEN--\":4404:4458   */\n      jump(tag_165)\n    tag_164:\n        /* \"--CODEGEN--\":4471:4557   */\n      tag_166\n        /* \"--CODEGEN--\":4550:4556   */\n      dup2\n        /* \"--CODEGEN--\":4545:4548   */\n      dup6\n        /* \"--CODEGEN--\":4471:4557   */\n      jump(tag_167)\n    tag_166:\n        /* \"--CODEGEN--\":4464:4557   */\n      swap4\n      pop\n        /* \"--CODEGEN--\":4578:4634   */\n      tag_168\n        /* \"--CODEGEN--\":4628:4633   */\n      dup4\n        /* \"--CODEGEN--\":4578:4634   */\n      jump(tag_169)\n    tag_168:\n        /* \"--CODEGEN--\":4654:4661   */\n      dup1\n        /* \"--CODEGEN--\":4682:4683   */\n      0x00\n        /* \"--CODEGEN--\":4667:4927   */\n    tag_170:\n        /* \"--CODEGEN--\":4692:4698   */\n      dup4\n        /* \"--CODEGEN--\":4689:4690   */\n      dup2\n        /* \"--CODEGEN--\":4686:4699   */\n      lt\n        /* \"--CODEGEN--\":4667:4927   */\n      iszero\n      tag_172\n      jumpi\n        /* \"--CODEGEN--\":4759:4765   */\n      dup2\n        /* \"--CODEGEN--\":4753:4766   */\n      mload\n        /* \"--CODEGEN--\":4780:4843   */\n      tag_173\n        /* \"--CODEGEN--\":4839:4842   */\n      dup9\n        /* \"--CODEGEN--\":4824:4837   */\n      dup3\n        /* \"--CODEGEN--\":4780:4843   */\n      jump(tag_130)\n    tag_173:\n        /* \"--CODEGEN--\":4773:4843   */\n      swap8\n      pop\n        /* \"--CODEGEN--\":4860:4920   */\n      tag_174\n        /* \"--CODEGEN--\":4913:4919   */\n      dup4\n        /* \"--CODEGEN--\":4860:4920   */\n      jump(tag_175)\n    tag_174:\n        /* \"--CODEGEN--\":4850:4920   */\n      swap3\n      pop\n        /* \"--CODEGEN--\":4724:4927   */\n      pop\n        /* \"--CODEGEN--\":4714:4715   */\n      0x01\n        /* \"--CODEGEN--\":4711:4712   */\n      dup2\n        /* \"--CODEGEN--\":4707:4716   */\n      add\n        /* \"--CODEGEN--\":4702:4716   */\n      swap1\n      pop\n        /* \"--CODEGEN--\":4667:4927   */\n      jump(tag_170)\n    tag_172:\n        /* \"--CODEGEN--\":4671:4685   */\n      pop\n        /* \"--CODEGEN--\":4940:4943   */\n      dup6\n        /* \"--CODEGEN--\":4933:4943   */\n      swap4\n      pop\n        /* \"--CODEGEN--\":4383:4949   */\n      pop\n      pop\n      pop\n      swap3\n      swap2\n      pop\n      pop\n      jump\n        /* \"--CODEGEN--\":4957:5051   */\n    tag_125:\n        /* \"--CODEGEN--\":5024:5045   */\n      tag_177\n        /* \"--CODEGEN--\":5039:5044   */\n      dup2\n        /* \"--CODEGEN--\":5024:5045   */\n      jump(tag_178)\n    tag_177:\n        /* \"--CODEGEN--\":5019:5022   */\n      dup3\n        /* \"--CODEGEN--\":5012:5046   */\n      mstore\n        /* \"--CODEGEN--\":5006:5051   */\n      pop\n      pop\n      jump\n        /* \"--CODEGEN--\":5058:5162   */\n    tag_179:\n        /* \"--CODEGEN--\":5135:5156   */\n      tag_181\n        /* \"--CODEGEN--\":5150:5155   */\n      dup2\n        /* \"--CODEGEN--\":5135:5156   */\n      jump(tag_178)\n    tag_181:\n        /* \"--CODEGEN--\":5130:5133   */\n      dup3\n        /* \"--CODEGEN--\":5123:5157   */\n      mstore\n        /* \"--CODEGEN--\":5117:5162   */\n      pop\n      pop\n      jump\n        /* \"--CODEGEN--\":5169:5488   */\n    tag_129:\n      0x00\n        /* \"--CODEGEN--\":5267:5302   */\n      tag_183\n        /* \"--CODEGEN--\":5296:5301   */\n      dup3\n        /* \"--CODEGEN--\":5267:5302   */\n      jump(tag_184)\n    tag_183:\n        /* \"--CODEGEN--\":5314:5375   */\n      tag_185\n        /* \"--CODEGEN--\":5368:5374   */\n      dup2\n        /* \"--CODEGEN--\":5363:5366   */\n      dup6\n        /* \"--CODEGEN--\":5314:5375   */\n      jump(tag_186)\n    tag_185:\n        /* \"--CODEGEN--\":5307:5375   */\n      swap4\n      pop\n        /* \"--CODEGEN--\":5380:5432   */\n      tag_187\n        /* \"--CODEGEN--\":5425:5431   */\n      dup2\n        /* \"--CODEGEN--\":5420:5423   */\n      dup6\n        /* \"--CODEGEN--\":5413:5417   */\n      0x20\n        /* \"--CODEGEN--\":5406:5411   */\n      dup7\n        /* \"--CODEGEN--\":5402:5418   */\n      add\n        /* \"--CODEGEN--\":5380:5432   */\n      jump(tag_188)\n    tag_187:\n        /* \"--CODEGEN--\":5453:5482   */\n      tag_189\n        /* \"--CODEGEN--\":5475:5481   */\n      dup2\n        /* \"--CODEGEN--\":5453:5482   */\n      jump(tag_190)\n    tag_189:\n        /* \"--CODEGEN--\":5448:5451   */\n      dup5\n        /* \"--CODEGEN--\":5444:5483   */\n      add\n        /* \"--CODEGEN--\":5437:5483   */\n      swap2\n      pop\n        /* \"--CODEGEN--\":5247:5488   */\n      pop\n      swap3\n      swap2\n      pop\n      pop\n      jump\n        /* \"--CODEGEN--\":5495:5834   */\n    tag_191:\n      0x00\n        /* \"--CODEGEN--\":5603:5638   */\n      tag_193\n        /* \"--CODEGEN--\":5632:5637   */\n      dup3\n        /* \"--CODEGEN--\":5603:5638   */\n      jump(tag_184)\n    tag_193:\n        /* \"--CODEGEN--\":5650:5721   */\n      tag_194\n        /* \"--CODEGEN--\":5714:5720   */\n      dup2\n        /* \"--CODEGEN--\":5709:5712   */\n      dup6\n        /* \"--CODEGEN--\":5650:5721   */\n      jump(tag_195)\n    tag_194:\n        /* \"--CODEGEN--\":5643:5721   */\n      swap4\n      pop\n        /* \"--CODEGEN--\":5726:5778   */\n      tag_196\n        /* \"--CODEGEN--\":5771:5777   */\n      dup2\n        /* \"--CODEGEN--\":5766:5769   */\n      dup6\n        /* \"--CODEGEN--\":5759:5763   */\n      0x20\n        /* \"--CODEGEN--\":5752:5757   */\n      dup7\n        /* \"--CODEGEN--\":5748:5764   */\n      add\n        /* \"--CODEGEN--\":5726:5778   */\n      jump(tag_188)\n    tag_196:\n        /* \"--CODEGEN--\":5799:5828   */\n      tag_197\n        /* \"--CODEGEN--\":5821:5827   */\n      dup2\n        /* \"--CODEGEN--\":5799:5828   */\n      jump(tag_190)\n    tag_197:\n        /* \"--CODEGEN--\":5794:5797   */\n      dup5\n        /* \"--CODEGEN--\":5790:5829   */\n      add\n        /* \"--CODEGEN--\":5783:5829   */\n      swap2\n      pop\n        /* \"--CODEGEN--\":5583:5834   */\n      pop\n      swap3\n      swap2\n      pop\n      pop\n      jump\n        /* \"--CODEGEN--\":5900:6608   */\n    tag_198:\n      0x00\n        /* \"--CODEGEN--\":6043:6047   */\n      0x60\n        /* \"--CODEGEN--\":6038:6041   */\n      dup4\n        /* \"--CODEGEN--\":6034:6048   */\n      add\n        /* \"--CODEGEN--\":6124:6128   */\n      0x00\n        /* \"--CODEGEN--\":6117:6122   */\n      dup4\n        /* \"--CODEGEN--\":6113:6129   */\n      add\n        /* \"--CODEGEN--\":6107:6130   */\n      mload\n        /* \"--CODEGEN--\":6136:6199   */\n      tag_200\n        /* \"--CODEGEN--\":6193:6197   */\n      0x00\n        /* \"--CODEGEN--\":6188:6191   */\n      dup7\n        /* \"--CODEGEN--\":6184:6198   */\n      add\n        /* \"--CODEGEN--\":6170:6182   */\n      dup3\n        /* \"--CODEGEN--\":6136:6199   */\n      jump(tag_133)\n    tag_200:\n        /* \"--CODEGEN--\":6063:6205   */\n      pop\n        /* \"--CODEGEN--\":6278:6282   */\n      0x20\n        /* \"--CODEGEN--\":6271:6276   */\n      dup4\n        /* \"--CODEGEN--\":6267:6283   */\n      add\n        /* \"--CODEGEN--\":6261:6284   */\n      mload\n        /* \"--CODEGEN--\":6330:6333   */\n      dup5\n        /* \"--CODEGEN--\":6324:6328   */\n      dup3\n        /* \"--CODEGEN--\":6320:6334   */\n      sub\n        /* \"--CODEGEN--\":6313:6317   */\n      0x20\n        /* \"--CODEGEN--\":6308:6311   */\n      dup7\n        /* \"--CODEGEN--\":6304:6318   */\n      add\n        /* \"--CODEGEN--\":6297:6335   */\n      mstore\n        /* \"--CODEGEN--\":6350:6419   */\n      tag_201\n        /* \"--CODEGEN--\":6414:6418   */\n      dup3\n        /* \"--CODEGEN--\":6400:6412   */\n      dup3\n        /* \"--CODEGEN--\":6350:6419   */\n      jump(tag_129)\n    tag_201:\n        /* \"--CODEGEN--\":6342:6419   */\n      swap2\n      pop\n        /* \"--CODEGEN--\":6215:6431   */\n      pop\n        /* \"--CODEGEN--\":6507:6511   */\n      0x40\n        /* \"--CODEGEN--\":6500:6505   */\n      dup4\n        /* \"--CODEGEN--\":6496:6512   */\n      add\n        /* \"--CODEGEN--\":6490:6513   */\n      mload\n        /* \"--CODEGEN--\":6519:6576   */\n      tag_202\n        /* \"--CODEGEN--\":6570:6574   */\n      0x40\n        /* \"--CODEGEN--\":6565:6568   */\n      dup7\n        /* \"--CODEGEN--\":6561:6575   */\n      add\n        /* \"--CODEGEN--\":6547:6559   */\n      dup3\n        /* \"--CODEGEN--\":6519:6576   */\n      jump(tag_125)\n    tag_202:\n        /* \"--CODEGEN--\":6441:6582   */\n      pop\n        /* \"--CODEGEN--\":6599:6603   */\n      dup1\n        /* \"--CODEGEN--\":6592:6603   */\n      swap2\n      pop\n        /* \"--CODEGEN--\":6016:6608   */\n      pop\n      swap3\n      swap2\n      pop\n      pop\n      jump\n        /* \"--CODEGEN--\":6615:6718   */\n    tag_133:\n        /* \"--CODEGEN--\":6688:6712   */\n      tag_204\n        /* \"--CODEGEN--\":6706:6711   */\n      dup2\n        /* \"--CODEGEN--\":6688:6712   */\n      jump(tag_205)\n    tag_204:\n        /* \"--CODEGEN--\":6683:6686   */\n      dup3\n        /* \"--CODEGEN--\":6676:6713   */\n      mstore\n        /* \"--CODEGEN--\":6670:6718   */\n      pop\n      pop\n      jump\n        /* \"--CODEGEN--\":6725:6838   */\n    tag_206:\n        /* \"--CODEGEN--\":6808:6832   */\n      tag_208\n        /* \"--CODEGEN--\":6826:6831   */\n      dup2\n        /* \"--CODEGEN--\":6808:6832   */\n      jump(tag_205)\n    tag_208:\n        /* \"--CODEGEN--\":6803:6806   */\n      dup3\n        /* \"--CODEGEN--\":6796:6833   */\n      mstore\n        /* \"--CODEGEN--\":6790:6838   */\n      pop\n      pop\n      jump\n        /* \"--CODEGEN--\":6845:7736   */\n    tag_25:\n      0x00\n        /* \"--CODEGEN--\":7175:7177   */\n      0x60\n        /* \"--CODEGEN--\":7164:7173   */\n      dup3\n        /* \"--CODEGEN--\":7160:7178   */\n      add\n        /* \"--CODEGEN--\":7152:7178   */\n      swap1\n      pop\n        /* \"--CODEGEN--\":7225:7234   */\n      dup2\n        /* \"--CODEGEN--\":7219:7223   */\n      dup2\n        /* \"--CODEGEN--\":7215:7235   */\n      sub\n        /* \"--CODEGEN--\":7211:7212   */\n      0x00\n        /* \"--CODEGEN--\":7200:7209   */\n      dup4\n        /* \"--CODEGEN--\":7196:7213   */\n      add\n        /* \"--CODEGEN--\":7189:7236   */\n      mstore\n        /* \"--CODEGEN--\":7250:7358   */\n      tag_210\n        /* \"--CODEGEN--\":7353:7357   */\n      dup2\n        /* \"--CODEGEN--\":7344:7350   */\n      dup7\n        /* \"--CODEGEN--\":7250:7358   */\n      jump(tag_162)\n    tag_210:\n        /* \"--CODEGEN--\":7242:7358   */\n      swap1\n      pop\n        /* \"--CODEGEN--\":7406:7415   */\n      dup2\n        /* \"--CODEGEN--\":7400:7404   */\n      dup2\n        /* \"--CODEGEN--\":7396:7416   */\n      sub\n        /* \"--CODEGEN--\":7391:7393   */\n      0x20\n        /* \"--CODEGEN--\":7380:7389   */\n      dup4\n        /* \"--CODEGEN--\":7376:7394   */\n      add\n        /* \"--CODEGEN--\":7369:7417   */\n      mstore\n        /* \"--CODEGEN--\":7431:7551   */\n      tag_211\n        /* \"--CODEGEN--\":7546:7550   */\n      dup2\n        /* \"--CODEGEN--\":7537:7543   */\n      dup6\n        /* \"--CODEGEN--\":7431:7551   */\n      jump(tag_148)\n    tag_211:\n        /* \"--CODEGEN--\":7423:7551   */\n      swap1\n      pop\n        /* \"--CODEGEN--\":7599:7608   */\n      dup2\n        /* \"--CODEGEN--\":7593:7597   */\n      dup2\n        /* \"--CODEGEN--\":7589:7609   */\n      sub\n        /* \"--CODEGEN--\":7584:7586   */\n      0x40\n        /* \"--CODEGEN--\":7573:7582   */\n      dup4\n        /* \"--CODEGEN--\":7569:7587   */\n      add\n        /* \"--CODEGEN--\":7562:7610   */\n      mstore\n        /* \"--CODEGEN--\":7624:7726   */\n      tag_212\n        /* \"--CODEGEN--\":7721:7725   */\n      dup2\n        /* \"--CODEGEN--\":7712:7718   */\n      dup5\n        /* \"--CODEGEN--\":7624:7726   */\n      jump(tag_134)\n    tag_212:\n        /* \"--CODEGEN--\":7616:7726   */\n      swap1\n      pop\n        /* \"--CODEGEN--\":7146:7736   */\n      swap5\n      swap4\n      pop\n      pop\n      pop\n      pop\n      jump\n        /* \"--CODEGEN--\":7743:8088   */\n    tag_46:\n      0x00\n        /* \"--CODEGEN--\":7903:7905   */\n      0x20\n        /* \"--CODEGEN--\":7892:7901   */\n      dup3\n        /* \"--CODEGEN--\":7888:7906   */\n      add\n        /* \"--CODEGEN--\":7880:7906   */\n      swap1\n      pop\n        /* \"--CODEGEN--\":7953:7962   */\n      dup2\n        /* \"--CODEGEN--\":7947:7951   */\n      dup2\n        /* \"--CODEGEN--\":7943:7963   */\n      sub\n        /* \"--CODEGEN--\":7939:7940   */\n      0x00\n        /* \"--CODEGEN--\":7928:7937   */\n      dup4\n        /* \"--CODEGEN--\":7924:7941   */\n      add\n        /* \"--CODEGEN--\":7917:7964   */\n      mstore\n        /* \"--CODEGEN--\":7978:8078   */\n      tag_214\n        /* \"--CODEGEN--\":8073:8077   */\n      dup2\n        /* \"--CODEGEN--\":8064:8070   */\n      dup5\n        /* \"--CODEGEN--\":7978:8078   */\n      jump(tag_198)\n    tag_214:\n        /* \"--CODEGEN--\":7970:8078   */\n      swap1\n      pop\n        /* \"--CODEGEN--\":7874:8088   */\n      swap3\n      swap2\n      pop\n      pop\n      jump\n        /* \"--CODEGEN--\":8095:8308   */\n    tag_15:\n      0x00\n        /* \"--CODEGEN--\":8213:8215   */\n      0x20\n        /* \"--CODEGEN--\":8202:8211   */\n      dup3\n        /* \"--CODEGEN--\":8198:8216   */\n      add\n        /* \"--CODEGEN--\":8190:8216   */\n      swap1\n      pop\n        /* \"--CODEGEN--\":8227:8298   */\n      tag_216\n        /* \"--CODEGEN--\":8295:8296   */\n      0x00\n        /* \"--CODEGEN--\":8284:8293   */\n      dup4\n        /* \"--CODEGEN--\":8280:8297   */\n      add\n        /* \"--CODEGEN--\":8271:8277   */\n      dup5\n        /* \"--CODEGEN--\":8227:8298   */\n      jump(tag_206)\n    tag_216:\n        /* \"--CODEGEN--\":8184:8308   */\n      swap3\n      swap2\n      pop\n      pop\n      jump\n        /* \"--CODEGEN--\":8315:8818   */\n    tag_21:\n      0x00\n        /* \"--CODEGEN--\":8499:8501   */\n      0x60\n        /* \"--CODEGEN--\":8488:8497   */\n      dup3\n        /* \"--CODEGEN--\":8484:8502   */\n      add\n        /* \"--CODEGEN--\":8476:8502   */\n      swap1\n      pop\n        /* \"--CODEGEN--\":8513:8584   */\n      tag_218\n        /* \"--CODEGEN--\":8581:8582   */\n      0x00\n        /* \"--CODEGEN--\":8570:8579   */\n      dup4\n        /* \"--CODEGEN--\":8566:8583   */\n      add\n        /* \"--CODEGEN--\":8557:8563   */\n      dup7\n        /* \"--CODEGEN--\":8513:8584   */\n      jump(tag_206)\n    tag_218:\n        /* \"--CODEGEN--\":8632:8641   */\n      dup2\n        /* \"--CODEGEN--\":8626:8630   */\n      dup2\n        /* \"--CODEGEN--\":8622:8642   */\n      sub\n        /* \"--CODEGEN--\":8617:8619   */\n      0x20\n        /* \"--CODEGEN--\":8606:8615   */\n      dup4\n        /* \"--CODEGEN--\":8602:8620   */\n      add\n        /* \"--CODEGEN--\":8595:8643   */\n      mstore\n        /* \"--CODEGEN--\":8657:8731   */\n      tag_219\n        /* \"--CODEGEN--\":8726:8730   */\n      dup2\n        /* \"--CODEGEN--\":8717:8723   */\n      dup6\n        /* \"--CODEGEN--\":8657:8731   */\n      jump(tag_191)\n    tag_219:\n        /* \"--CODEGEN--\":8649:8731   */\n      swap1\n      pop\n        /* \"--CODEGEN--\":8742:8808   */\n      tag_220\n        /* \"--CODEGEN--\":8804:8806   */\n      0x40\n        /* \"--CODEGEN--\":8793:8802   */\n      dup4\n        /* \"--CODEGEN--\":8789:8807   */\n      add\n        /* \"--CODEGEN--\":8780:8786   */\n      dup5\n        /* \"--CODEGEN--\":8742:8808   */\n      jump(tag_179)\n    tag_220:\n        /* \"--CODEGEN--\":8470:8818   */\n      swap5\n      swap4\n      pop\n      pop\n      pop\n      pop\n      jump\n        /* \"--CODEGEN--\":8825:9081   */\n    tag_99:\n      0x00\n        /* \"--CODEGEN--\":8887:8889   */\n      0x40\n        /* \"--CODEGEN--\":8881:8890   */\n      mload\n        /* \"--CODEGEN--\":8871:8890   */\n      swap1\n      pop\n        /* \"--CODEGEN--\":8925:8929   */\n      dup2\n        /* \"--CODEGEN--\":8917:8923   */\n      dup2\n        /* \"--CODEGEN--\":8913:8930   */\n      add\n        /* \"--CODEGEN--\":9024:9030   */\n      dup2\n        /* \"--CODEGEN--\":9012:9022   */\n      dup2\n        /* \"--CODEGEN--\":9009:9031   */\n      lt\n        /* \"--CODEGEN--\":8988:9006   */\n      0xffffffffffffffff\n        /* \"--CODEGEN--\":8976:8986   */\n      dup3\n        /* \"--CODEGEN--\":8973:9007   */\n      gt\n        /* \"--CODEGEN--\":8970:9032   */\n      or\n        /* \"--CODEGEN--\":8967:8969   */\n      iszero\n      tag_222\n      jumpi\n        /* \"--CODEGEN--\":9045:9046   */\n      0x00\n        /* \"--CODEGEN--\":9042:9043   */\n      dup1\n        /* \"--CODEGEN--\":9035:9047   */\n      revert\n        /* \"--CODEGEN--\":8967:8969   */\n    tag_222:\n        /* \"--CODEGEN--\":9065:9075   */\n      dup1\n        /* \"--CODEGEN--\":9061:9063   */\n      0x40\n        /* \"--CODEGEN--\":9054:9076   */\n      mstore\n        /* \"--CODEGEN--\":8865:9081   */\n      pop\n      swap2\n      swap1\n      pop\n      jump\n        /* \"--CODEGEN--\":9088:9410   */\n    tag_98:\n      0x00\n        /* \"--CODEGEN--\":9232:9250   */\n      0xffffffffffffffff\n        /* \"--CODEGEN--\":9224:9230   */\n      dup3\n        /* \"--CODEGEN--\":9221:9251   */\n      gt\n        /* \"--CODEGEN--\":9218:9220   */\n      iszero\n      tag_224\n      jumpi\n        /* \"--CODEGEN--\":9264:9265   */\n      0x00\n        /* \"--CODEGEN--\":9261:9262   */\n      dup1\n        /* \"--CODEGEN--\":9254:9266   */\n      revert\n        /* \"--CODEGEN--\":9218:9220   */\n    tag_224:\n        /* \"--CODEGEN--\":9331:9335   */\n      0x1f\n        /* \"--CODEGEN--\":9327:9336   */\n      not\n        /* \"--CODEGEN--\":9320:9324   */\n      0x1f\n        /* \"--CODEGEN--\":9312:9318   */\n      dup4\n        /* \"--CODEGEN--\":9308:9325   */\n      add\n        /* \"--CODEGEN--\":9304:9337   */\n      and\n        /* \"--CODEGEN--\":9296:9337   */\n      swap1\n      pop\n        /* \"--CODEGEN--\":9395:9399   */\n      0x20\n        /* \"--CODEGEN--\":9389:9393   */\n      dup2\n        /* \"--CODEGEN--\":9385:9400   */\n      add\n        /* \"--CODEGEN--\":9377:9400   */\n      swap1\n      pop\n        /* \"--CODEGEN--\":9155:9410   */\n      swap2\n      swap1\n      pop\n      jump\n        /* \"--CODEGEN--\":9417:9565   */\n    tag_141:\n      0x00\n        /* \"--CODEGEN--\":9500:9503   */\n      dup2\n        /* \"--CODEGEN--\":9492:9503   */\n      swap1\n      pop\n        /* \"--CODEGEN--\":9538:9542   */\n      0x20\n        /* \"--CODEGEN--\":9533:9536   */\n      dup3\n        /* \"--CODEGEN--\":9529:9543   */\n      add\n        /* \"--CODEGEN--\":9521:9543   */\n      swap1\n      pop\n        /* \"--CODEGEN--\":9486:9565   */\n      swap2\n      swap1\n      pop\n      jump\n        /* \"--CODEGEN--\":9572:9729   */\n    tag_155:\n      0x00\n        /* \"--CODEGEN--\":9664:9667   */\n      dup2\n        /* \"--CODEGEN--\":9656:9667   */\n      swap1\n      pop\n        /* \"--CODEGEN--\":9702:9706   */\n      0x20\n        /* \"--CODEGEN--\":9697:9700   */\n      dup3\n        /* \"--CODEGEN--\":9693:9707   */\n      add\n        /* \"--CODEGEN--\":9685:9707   */\n      swap1\n      pop\n        /* \"--CODEGEN--\":9650:9729   */\n      swap2\n      swap1\n      pop\n      jump\n        /* \"--CODEGEN--\":9736:9887   */\n    tag_169:\n      0x00\n        /* \"--CODEGEN--\":9822:9825   */\n      dup2\n        /* \"--CODEGEN--\":9814:9825   */\n      swap1\n      pop\n        /* \"--CODEGEN--\":9860:9864   */\n      0x20\n        /* \"--CODEGEN--\":9855:9858   */\n      dup3\n        /* \"--CODEGEN--\":9851:9865   */\n      add\n        /* \"--CODEGEN--\":9843:9865   */\n      swap1\n      pop\n        /* \"--CODEGEN--\":9808:9887   */\n      swap2\n      swap1\n      pop\n      jump\n        /* \"--CODEGEN--\":9894:10028   */\n    tag_137:\n      0x00\n        /* \"--CODEGEN--\":10000:10005   */\n      dup2\n        /* \"--CODEGEN--\":9994:10006   */\n      mload\n        /* \"--CODEGEN--\":9984:10006   */\n      swap1\n      pop\n        /* \"--CODEGEN--\":9965:10028   */\n      swap2\n      swap1\n      pop\n      jump\n        /* \"--CODEGEN--\":10035:10178   */\n    tag_151:\n      0x00\n        /* \"--CODEGEN--\":10150:10155   */\n      dup2\n        /* \"--CODEGEN--\":10144:10156   */\n      mload\n        /* \"--CODEGEN--\":10134:10156   */\n      swap1\n      pop\n        /* \"--CODEGEN--\":10115:10178   */\n      swap2\n      swap1\n      pop\n      jump\n        /* \"--CODEGEN--\":10185:10322   */\n    tag_165:\n      0x00\n        /* \"--CODEGEN--\":10294:10299   */\n      dup2\n        /* \"--CODEGEN--\":10288:10300   */\n      mload\n        /* \"--CODEGEN--\":10278:10300   */\n      swap1\n      pop\n        /* \"--CODEGEN--\":10259:10322   */\n      swap2\n      swap1\n      pop\n      jump\n        /* \"--CODEGEN--\":10329:10447   */\n    tag_184:\n      0x00\n        /* \"--CODEGEN--\":10419:10424   */\n      dup2\n        /* \"--CODEGEN--\":10413:10425   */\n      mload\n        /* \"--CODEGEN--\":10403:10425   */\n      swap1\n      pop\n        /* \"--CODEGEN--\":10384:10447   */\n      swap2\n      swap1\n      pop\n      jump\n        /* \"--CODEGEN--\":10454:10559   */\n    tag_147:\n      0x00\n        /* \"--CODEGEN--\":10549:10553   */\n      0x20\n        /* \"--CODEGEN--\":10544:10547   */\n      dup3\n        /* \"--CODEGEN--\":10540:10554   */\n      add\n        /* \"--CODEGEN--\":10532:10554   */\n      swap1\n      pop\n        /* \"--CODEGEN--\":10526:10559   */\n      swap2\n      swap1\n      pop\n      jump\n        /* \"--CODEGEN--\":10566:10680   */\n    tag_161:\n      0x00\n        /* \"--CODEGEN--\":10670:10674   */\n      0x20\n        /* \"--CODEGEN--\":10665:10668   */\n      dup3\n        /* \"--CODEGEN--\":10661:10675   */\n      add\n        /* \"--CODEGEN--\":10653:10675   */\n      swap1\n      pop\n        /* \"--CODEGEN--\":10647:10680   */\n      swap2\n      swap1\n      pop\n      jump\n        /* \"--CODEGEN--\":10687:10795   */\n    tag_175:\n      0x00\n        /* \"--CODEGEN--\":10785:10789   */\n      0x20\n        /* \"--CODEGEN--\":10780:10783   */\n      dup3\n        /* \"--CODEGEN--\":10776:10790   */\n      add\n        /* \"--CODEGEN--\":10768:10790   */\n      swap1\n      pop\n        /* \"--CODEGEN--\":10762:10795   */\n      swap2\n      swap1\n      pop\n      jump\n        /* \"--CODEGEN--\":10803:10978   */\n    tag_139:\n      0x00\n        /* \"--CODEGEN--\":10930:10936   */\n      dup3\n        /* \"--CODEGEN--\":10925:10928   */\n      dup3\n        /* \"--CODEGEN--\":10918:10937   */\n      mstore\n        /* \"--CODEGEN--\":10967:10971   */\n      0x20\n        /* \"--CODEGEN--\":10962:10965   */\n      dup3\n        /* \"--CODEGEN--\":10958:10972   */\n      add\n        /* \"--CODEGEN--\":10943:10972   */\n      swap1\n      pop\n        /* \"--CODEGEN--\":10911:10978   */\n      swap3\n      swap2\n      pop\n      pop\n      jump\n        /* \"--CODEGEN--\":10987:11171   */\n    tag_153:\n      0x00\n        /* \"--CODEGEN--\":11123:11129   */\n      dup3\n        /* \"--CODEGEN--\":11118:11121   */\n      dup3\n        /* \"--CODEGEN--\":11111:11130   */\n      mstore\n        /* \"--CODEGEN--\":11160:11164   */\n      0x20\n        /* \"--CODEGEN--\":11155:11158   */\n      dup3\n        /* \"--CODEGEN--\":11151:11165   */\n      add\n        /* \"--CODEGEN--\":11136:11165   */\n      swap1\n      pop\n        /* \"--CODEGEN--\":11104:11171   */\n      swap3\n      swap2\n      pop\n      pop\n      jump\n        /* \"--CODEGEN--\":11180:11358   */\n    tag_167:\n      0x00\n        /* \"--CODEGEN--\":11310:11316   */\n      dup3\n        /* \"--CODEGEN--\":11305:11308   */\n      dup3\n        /* \"--CODEGEN--\":11298:11317   */\n      mstore\n        /* \"--CODEGEN--\":11347:11351   */\n      0x20\n        /* \"--CODEGEN--\":11342:11345   */\n      dup3\n        /* \"--CODEGEN--\":11338:11352   */\n      add\n        /* \"--CODEGEN--\":11323:11352   */\n      swap1\n      pop\n        /* \"--CODEGEN--\":11291:11358   */\n      swap3\n      swap2\n      pop\n      pop\n      jump\n        /* \"--CODEGEN--\":11367:11520   */\n    tag_186:\n      0x00\n        /* \"--CODEGEN--\":11472:11478   */\n      dup3\n        /* \"--CODEGEN--\":11467:11470   */\n      dup3\n        /* \"--CODEGEN--\":11460:11479   */\n      mstore\n        /* \"--CODEGEN--\":11509:11513   */\n      0x20\n        /* \"--CODEGEN--\":11504:11507   */\n      dup3\n        /* \"--CODEGEN--\":11500:11514   */\n      add\n        /* \"--CODEGEN--\":11485:11514   */\n      swap1\n      pop\n        /* \"--CODEGEN--\":11453:11520   */\n      swap3\n      swap2\n      pop\n      pop\n      jump\n        /* \"--CODEGEN--\":11529:11692   */\n    tag_195:\n      0x00\n        /* \"--CODEGEN--\":11644:11650   */\n      dup3\n        /* \"--CODEGEN--\":11639:11642   */\n      dup3\n        /* \"--CODEGEN--\":11632:11651   */\n      mstore\n        /* \"--CODEGEN--\":11681:11685   */\n      0x20\n        /* \"--CODEGEN--\":11676:11679   */\n      dup3\n        /* \"--CODEGEN--\":11672:11686   */\n      add\n        /* \"--CODEGEN--\":11657:11686   */\n      swap1\n      pop\n        /* \"--CODEGEN--\":11625:11692   */\n      swap3\n      swap2\n      pop\n      pop\n      jump\n        /* \"--CODEGEN--\":11700:11785   */\n    tag_178:\n      0x00\n        /* \"--CODEGEN--\":11773:11778   */\n      dup2\n        /* \"--CODEGEN--\":11766:11779   */\n      iszero\n        /* \"--CODEGEN--\":11759:11780   */\n      iszero\n        /* \"--CODEGEN--\":11748:11780   */\n      swap1\n      pop\n        /* \"--CODEGEN--\":11742:11785   */\n      swap2\n      swap1\n      pop\n      jump\n        /* \"--CODEGEN--\":11792:11864   */\n    tag_205:\n      0x00\n        /* \"--CODEGEN--\":11854:11859   */\n      dup2\n        /* \"--CODEGEN--\":11843:11859   */\n      swap1\n      pop\n        /* \"--CODEGEN--\":11837:11864   */\n      swap2\n      swap1\n      pop\n      jump\n        /* \"--CODEGEN--\":11872:12017   */\n    tag_102:\n        /* \"--CODEGEN--\":11953:11959   */\n      dup3\n        /* \"--CODEGEN--\":11948:11951   */\n      dup2\n        /* \"--CODEGEN--\":11943:11946   */\n      dup4\n        /* \"--CODEGEN--\":11930:11960   */\n      calldatacopy\n        /* \"--CODEGEN--\":12009:12010   */\n      0x00\n        /* \"--CODEGEN--\":12000:12006   */\n      dup4\n        /* \"--CODEGEN--\":11995:11998   */\n      dup4\n        /* \"--CODEGEN--\":11991:12007   */\n      add\n        /* \"--CODEGEN--\":11984:12011   */\n      mstore\n        /* \"--CODEGEN--\":11923:12017   */\n      pop\n      pop\n      pop\n      jump\n        /* \"--CODEGEN--\":12026:12294   */\n    tag_188:\n        /* \"--CODEGEN--\":12091:12092   */\n      0x00\n        /* \"--CODEGEN--\":12098:12199   */\n    tag_244:\n        /* \"--CODEGEN--\":12112:12118   */\n      dup4\n        /* \"--CODEGEN--\":12109:12110   */\n      dup2\n        /* \"--CODEGEN--\":12106:12119   */\n      lt\n        /* \"--CODEGEN--\":12098:12199   */\n      iszero\n      tag_246\n      jumpi\n        /* \"--CODEGEN--\":12188:12189   */\n      dup1\n        /* \"--CODEGEN--\":12183:12186   */\n      dup3\n        /* \"--CODEGEN--\":12179:12190   */\n      add\n        /* \"--CODEGEN--\":12173:12191   */\n      mload\n        /* \"--CODEGEN--\":12169:12170   */\n      dup2\n        /* \"--CODEGEN--\":12164:12167   */\n      dup5\n        /* \"--CODEGEN--\":12160:12171   */\n      add\n        /* \"--CODEGEN--\":12153:12192   */\n      mstore\n        /* \"--CODEGEN--\":12134:12136   */\n      0x20\n        /* \"--CODEGEN--\":12131:12132   */\n      dup2\n        /* \"--CODEGEN--\":12127:12137   */\n      add\n        /* \"--CODEGEN--\":12122:12137   */\n      swap1\n      pop\n        /* \"--CODEGEN--\":12098:12199   */\n      jump(tag_244)\n    tag_246:\n        /* \"--CODEGEN--\":12214:12220   */\n      dup4\n        /* \"--CODEGEN--\":12211:12212   */\n      dup2\n        /* \"--CODEGEN--\":12208:12221   */\n      gt\n        /* \"--CODEGEN--\":12205:12207   */\n      iszero\n      tag_247\n      jumpi\n        /* \"--CODEGEN--\":12279:12280   */\n      0x00\n        /* \"--CODEGEN--\":12270:12276   */\n      dup5\n        /* \"--CODEGEN--\":12265:12268   */\n      dup5\n        /* \"--CODEGEN--\":12261:12277   */\n      add\n        /* \"--CODEGEN--\":12254:12281   */\n      mstore\n        /* \"--CODEGEN--\":12205:12207   */\n    tag_247:\n        /* \"--CODEGEN--\":12075:12294   */\n      pop\n      pop\n      pop\n      pop\n      jump\n        /* \"--CODEGEN--\":12302:12399   */\n    tag_190:\n      0x00\n        /* \"--CODEGEN--\":12390:12392   */\n      0x1f\n        /* \"--CODEGEN--\":12386:12393   */\n      not\n        /* \"--CODEGEN--\":12381:12383   */\n      0x1f\n        /* \"--CODEGEN--\":12374:12379   */\n      dup4\n        /* \"--CODEGEN--\":12370:12384   */\n      add\n        /* \"--CODEGEN--\":12366:12394   */\n      and\n        /* \"--CODEGEN--\":12356:12394   */\n      swap1\n      pop\n        /* \"--CODEGEN--\":12350:12399   */\n      swap2\n      swap1\n      pop\n      jump\n        /* \"--CODEGEN--\":12407:12518   */\n    tag_92:\n        /* \"--CODEGEN--\":12473:12494   */\n      tag_250\n        /* \"--CODEGEN--\":12488:12493   */\n      dup2\n        /* \"--CODEGEN--\":12473:12494   */\n      jump(tag_178)\n    tag_250:\n        /* \"--CODEGEN--\":12466:12471   */\n      dup2\n        /* \"--CODEGEN--\":12463:12495   */\n      eq\n        /* \"--CODEGEN--\":12453:12455   */\n      tag_251\n      jumpi\n        /* \"--CODEGEN--\":12509:12510   */\n      0x00\n        /* \"--CODEGEN--\":12506:12507   */\n      dup1\n        /* \"--CODEGEN--\":12499:12511   */\n      revert\n        /* \"--CODEGEN--\":12453:12455   */\n    tag_251:\n        /* \"--CODEGEN--\":12447:12518   */\n      pop\n      jump\n        /* \"--CODEGEN--\":12525:12642   */\n    tag_106:\n        /* \"--CODEGEN--\":12594:12618   */\n      tag_253\n        /* \"--CODEGEN--\":12612:12617   */\n      dup2\n        /* \"--CODEGEN--\":12594:12618   */\n      jump(tag_205)\n    tag_253:\n        /* \"--CODEGEN--\":12587:12592   */\n      dup2\n        /* \"--CODEGEN--\":12584:12619   */\n      eq\n        /* \"--CODEGEN--\":12574:12576   */\n      tag_254\n      jumpi\n        /* \"--CODEGEN--\":12633:12634   */\n      0x00\n        /* \"--CODEGEN--\":12630:12631   */\n      dup1\n        /* \"--CODEGEN--\":12623:12635   */\n      revert\n        /* \"--CODEGEN--\":12574:12576   */\n    tag_254:\n        /* \"--CODEGEN--\":12568:12642   */\n      pop\n      jump\n\n    auxdata: 0xa2646970667358221220eb02640d3cebf1131f31c5da45b89d4db55b6a4756a59d80f0f70314104ea3b064736f6c63430006000033\n}\n",
				"bytecode": {
					"linkReferences": {},
					"object": "608060405260006002553480156200001657600080fd5b506000600181905550620000676040518060400160405280600481526020017f566c61640000000000000000000000000000000000000000000000000000000081525060016200026560201b60201c565b620000af6040518060400160405280600681526020017f4e6173747961000000000000000000000000000000000000000000000000000081525060006200026560201b60201c565b620000f76040518060400160405280600581526020017f566c61643100000000000000000000000000000000000000000000000000000081525060016200026560201b60201c565b6200013f6040518060400160405280600781526020017f4e6173747961320000000000000000000000000000000000000000000000000081525060006200026560201b60201c565b620001876040518060400160405280600581526020017f566c61643300000000000000000000000000000000000000000000000000000081525060016200026560201b60201c565b620001cf6040518060400160405280600781526020017f4e6173747961340000000000000000000000000000000000000000000000000081525060006200026560201b60201c565b620002176040518060400160405280600581526020017f566c61643500000000000000000000000000000000000000000000000000000081525060016200026560201b60201c565b6200025f6040518060400160405280600781526020017f4e6173747961360000000000000000000000000000000000000000000000000081525060006200026560201b60201c565b620003a9565b604051806060016040528060015481526020018381526020018215158152506000806001548152602001908152602001600020600082015181600001556020820151816001019080519060200190620002c0929190620002fa565b5060408201518160020160006101000a81548160ff0219169083151502179055509050506001600081548092919060010191905055505050565b828054600181600116156101000203166002900490600052602060002090601f016020900481019282601f106200033d57805160ff19168380011785556200036e565b828001600101855582156200036e579182015b828111156200036d57825182559160200191906001019062000350565b5b5090506200037d919062000381565b5090565b620003a691905b80821115620003a257600081600090555060010162000388565b5090565b90565b610e0280620003b96000396000f3fe608060405234801561001057600080fd5b50600436106100885760003560e01c8063ab7a20151161005b578063ab7a201514610119578063d3516b7e14610149578063f0232d0a14610165578063f97698f81461018357610088565b806311aee3801461008d5780635daf08ca146100ab5780636f416d59146100dd57806392c68389146100fd575b600080fd5b6100956101b3565b6040516100a29190610bab565b60405180910390f35b6100c560048036036100c09190810190610865565b6101b9565b6040516100d493929190610bc6565b60405180910390f35b6100e5610288565b6040516100f493929190610b3d565b60405180910390f35b61011760048036036101129190810190610811565b61047a565b005b610133600480360361012e91908101906107e8565b61050d565b6040516101409190610bab565b60405180910390f35b610163600480360361015e919081019061088e565b610578565b005b61016d6105a9565b60405161017a9190610bab565b60405180910390f35b61019d60048036036101989190810190610865565b6105af565b6040516101aa9190610b89565b60405180910390f35b60015481565b6000602052806000526040600020600091509050806000015490806001018054600181600116156101000203166002900480601f01602080910402602001604051908101604052809291908181526020018280546001816001161561010002031660029004801561026b5780601f106102405761010080835404028352916020019161026b565b820191906000526020600020905b81548152906001019060200180831161024e57829003601f168201915b5050505050908060020160009054906101000a900460ff16905083565b6060806060806001546040519080825280602002602001820160405280156102bf5781602001602082028038833980820191505090505b50905060606001546040519080825280602002602001820160405280156102fa57816020015b60608152602001906001900390816102e55790505b50905060606001546040519080825280602002602001820160405280156103305781602001602082028038833980820191505090505b50905060008090505b6001548110156104685760008060008381526020019081526020016000209050806000015485838151811061036a57fe5b602002602001018181525050806001018054600181600116156101000203166002900480601f01602080910402602001604051908101604052809291908181526020018280546001816001161561010002031660029004801561040e5780601f106103e35761010080835404028352916020019161040e565b820191906000526020600020905b8154815290600101906020018083116103f157829003601f168201915b505050505084838151811061041f57fe5b60200260200101819052508060020160009054906101000a900460ff1683838151811061044857fe5b602002602001019015159081151581525050508080600101915050610339565b50828282955095509550505050909192565b6040518060600160405280600154815260200183815260200182151581525060008060015481526020019081526020016000206000820151816000015560208201518160010190805190602001906104d39291906106a2565b5060408201518160020160006101000a81548160ff0219169083151502179055509050506001600081548092919060010191905055505050565b600080600090505b60015481101561056d5782151560008083815260200190815260200160002060020160009054906101000a900460ff1615151415610560576002600081548092919060010191905055505b8080600101915050610515565b506002549050919050565b8060008084815260200190815260200160002060020160006101000a81548160ff0219169083151502179055505050565b60025481565b6105b7610722565b60008083815260200190815260200160002060405180606001604052908160008201548152602001600182018054600181600116156101000203166002900480601f0160208091040260200160405190810160405280929190818152602001828054600181600116156101000203166002900480156106775780601f1061064c57610100808354040283529160200191610677565b820191906000526020600020905b81548152906001019060200180831161065a57829003601f168201915b505050505081526020016002820160009054906101000a900460ff1615151515815250509050919050565b828054600181600116156101000203166002900490600052602060002090601f016020900481019282601f106106e357805160ff1916838001178555610711565b82800160010185558215610711579182015b828111156107105782518255916020019190600101906106f5565b5b50905061071e9190610745565b5090565b604051806060016040528060008152602001606081526020016000151581525090565b61076791905b8082111561076357600081600090555060010161074b565b5090565b90565b60008135905061077981610d9e565b92915050565b600082601f83011261079057600080fd5b81356107a361079e82610c31565b610c04565b915080825260208301602083018583830111156107bf57600080fd5b6107ca838284610d4b565b50505092915050565b6000813590506107e281610db5565b92915050565b6000602082840312156107fa57600080fd5b60006108088482850161076a565b91505092915050565b6000806040838503121561082457600080fd5b600083013567ffffffffffffffff81111561083e57600080fd5b61084a8582860161077f565b925050602061085b8582860161076a565b9150509250929050565b60006020828403121561087757600080fd5b6000610885848285016107d3565b91505092915050565b600080604083850312156108a157600080fd5b60006108af858286016107d3565b92505060206108c08582860161076a565b9150509250929050565b60006108d68383610a3f565b60208301905092915050565b60006108ee8383610a5d565b905092915050565b60006109028383610b1f565b60208301905092915050565b600061091982610c8d565b6109238185610ce0565b935061092e83610c5d565b8060005b8381101561095f57815161094688826108ca565b975061095183610cb9565b925050600181019050610932565b5085935050505092915050565b600061097782610c98565b6109818185610cf1565b93508360208202850161099385610c6d565b8060005b858110156109cf57848403895281516109b085826108e2565b94506109bb83610cc6565b925060208a01995050600181019050610997565b50829750879550505050505092915050565b60006109ec82610ca3565b6109f68185610d02565b9350610a0183610c7d565b8060005b83811015610a32578151610a1988826108f6565b9750610a2483610cd3565b925050600181019050610a05565b5085935050505092915050565b610a4881610d35565b82525050565b610a5781610d35565b82525050565b6000610a6882610cae565b610a728185610d13565b9350610a82818560208601610d5a565b610a8b81610d8d565b840191505092915050565b6000610aa182610cae565b610aab8185610d24565b9350610abb818560208601610d5a565b610ac481610d8d565b840191505092915050565b6000606083016000830151610ae76000860182610b1f565b5060208301518482036020860152610aff8282610a5d565b9150506040830151610b146040860182610a3f565b508091505092915050565b610b2881610d41565b82525050565b610b3781610d41565b82525050565b60006060820190508181036000830152610b5781866109e1565b90508181036020830152610b6b818561096c565b90508181036040830152610b7f818461090e565b9050949350505050565b60006020820190508181036000830152610ba38184610acf565b905092915050565b6000602082019050610bc06000830184610b2e565b92915050565b6000606082019050610bdb6000830186610b2e565b8181036020830152610bed8185610a96565b9050610bfc6040830184610a4e565b949350505050565b6000604051905081810181811067ffffffffffffffff82111715610c2757600080fd5b8060405250919050565b600067ffffffffffffffff821115610c4857600080fd5b601f19601f8301169050602081019050919050565b6000819050602082019050919050565b6000819050602082019050919050565b6000819050602082019050919050565b600081519050919050565b600081519050919050565b600081519050919050565b600081519050919050565b6000602082019050919050565b6000602082019050919050565b6000602082019050919050565b600082825260208201905092915050565b600082825260208201905092915050565b600082825260208201905092915050565b600082825260208201905092915050565b600082825260208201905092915050565b60008115159050919050565b6000819050919050565b82818337600083830152505050565b60005b83811015610d78578082015181840152602081019050610d5d565b83811115610d87576000848401525b50505050565b6000601f19601f8301169050919050565b610da781610d35565b8114610db257600080fd5b50565b610dbe81610d41565b8114610dc957600080fd5b5056fea2646970667358221220eb02640d3cebf1131f31c5da45b89d4db55b6a4756a59d80f0f70314104ea3b064736f6c63430006000033",
					"opcodes": "PUSH1 0x80 PUSH1 0x40 MSTORE PUSH1 0x0 PUSH1 0x2 SSTORE CALLVALUE DUP1 ISZERO PUSH3 0x16 JUMPI PUSH1 0x0 DUP1 REVERT JUMPDEST POP PUSH1 0x0 PUSH1 0x1 DUP2 SWAP1 SSTORE POP PUSH3 0x67 PUSH1 0x40 MLOAD DUP1 PUSH1 0x40 ADD PUSH1 0x40 MSTORE DUP1 PUSH1 0x4 DUP2 MSTORE PUSH1 0x20 ADD PUSH32 0x566C616400000000000000000000000000000000000000000000000000000000 DUP2 MSTORE POP PUSH1 0x1 PUSH3 0x265 PUSH1 0x20 SHL PUSH1 0x20 SHR JUMP JUMPDEST PUSH3 0xAF PUSH1 0x40 MLOAD DUP1 PUSH1 0x40 ADD PUSH1 0x40 MSTORE DUP1 PUSH1 0x6 DUP2 MSTORE PUSH1 0x20 ADD PUSH32 0x4E61737479610000000000000000000000000000000000000000000000000000 DUP2 MSTORE POP PUSH1 0x0 PUSH3 0x265 PUSH1 0x20 SHL PUSH1 0x20 SHR JUMP JUMPDEST PUSH3 0xF7 PUSH1 0x40 MLOAD DUP1 PUSH1 0x40 ADD PUSH1 0x40 MSTORE DUP1 PUSH1 0x5 DUP2 MSTORE PUSH1 0x20 ADD PUSH32 0x566C616431000000000000000000000000000000000000000000000000000000 DUP2 MSTORE POP PUSH1 0x1 PUSH3 0x265 PUSH1 0x20 SHL PUSH1 0x20 SHR JUMP JUMPDEST PUSH3 0x13F PUSH1 0x40 MLOAD DUP1 PUSH1 0x40 ADD PUSH1 0x40 MSTORE DUP1 PUSH1 0x7 DUP2 MSTORE PUSH1 0x20 ADD PUSH32 0x4E61737479613200000000000000000000000000000000000000000000000000 DUP2 MSTORE POP PUSH1 0x0 PUSH3 0x265 PUSH1 0x20 SHL PUSH1 0x20 SHR JUMP JUMPDEST PUSH3 0x187 PUSH1 0x40 MLOAD DUP1 PUSH1 0x40 ADD PUSH1 0x40 MSTORE DUP1 PUSH1 0x5 DUP2 MSTORE PUSH1 0x20 ADD PUSH32 0x566C616433000000000000000000000000000000000000000000000000000000 DUP2 MSTORE POP PUSH1 0x1 PUSH3 0x265 PUSH1 0x20 SHL PUSH1 0x20 SHR JUMP JUMPDEST PUSH3 0x1CF PUSH1 0x40 MLOAD DUP1 PUSH1 0x40 ADD PUSH1 0x40 MSTORE DUP1 PUSH1 0x7 DUP2 MSTORE PUSH1 0x20 ADD PUSH32 0x4E61737479613400000000000000000000000000000000000000000000000000 DUP2 MSTORE POP PUSH1 0x0 PUSH3 0x265 PUSH1 0x20 SHL PUSH1 0x20 SHR JUMP JUMPDEST PUSH3 0x217 PUSH1 0x40 MLOAD DUP1 PUSH1 0x40 ADD PUSH1 0x40 MSTORE DUP1 PUSH1 0x5 DUP2 MSTORE PUSH1 0x20 ADD PUSH32 0x566C616435000000000000000000000000000000000000000000000000000000 DUP2 MSTORE POP PUSH1 0x1 PUSH3 0x265 PUSH1 0x20 SHL PUSH1 0x20 SHR JUMP JUMPDEST PUSH3 0x25F PUSH1 0x40 MLOAD DUP1 PUSH1 0x40 ADD PUSH1 0x40 MSTORE DUP1 PUSH1 0x7 DUP2 MSTORE PUSH1 0x20 ADD PUSH32 0x4E61737479613600000000000000000000000000000000000000000000000000 DUP2 MSTORE POP PUSH1 0x0 PUSH3 0x265 PUSH1 0x20 SHL PUSH1 0x20 SHR JUMP JUMPDEST PUSH3 0x3A9 JUMP JUMPDEST PUSH1 0x40 MLOAD DUP1 PUSH1 0x60 ADD PUSH1 0x40 MSTORE DUP1 PUSH1 0x1 SLOAD DUP2 MSTORE PUSH1 0x20 ADD DUP4 DUP2 MSTORE PUSH1 0x20 ADD DUP3 ISZERO ISZERO DUP2 MSTORE POP PUSH1 0x0 DUP1 PUSH1 0x1 SLOAD DUP2 MSTORE PUSH1 0x20 ADD SWAP1 DUP2 MSTORE PUSH1 0x20 ADD PUSH1 0x0 KECCAK256 PUSH1 0x0 DUP3 ADD MLOAD DUP2 PUSH1 0x0 ADD SSTORE PUSH1 0x20 DUP3 ADD MLOAD DUP2 PUSH1 0x1 ADD SWAP1 DUP1 MLOAD SWAP1 PUSH1 0x20 ADD SWAP1 PUSH3 0x2C0 SWAP3 SWAP2 SWAP1 PUSH3 0x2FA JUMP JUMPDEST POP PUSH1 0x40 DUP3 ADD MLOAD DUP2 PUSH1 0x2 ADD PUSH1 0x0 PUSH2 0x100 EXP DUP2 SLOAD DUP2 PUSH1 0xFF MUL NOT AND SWAP1 DUP4 ISZERO ISZERO MUL OR SWAP1 SSTORE POP SWAP1 POP POP PUSH1 0x1 PUSH1 0x0 DUP2 SLOAD DUP1 SWAP3 SWAP2 SWAP1 PUSH1 0x1 ADD SWAP2 SWAP1 POP SSTORE POP POP POP JUMP JUMPDEST DUP3 DUP1 SLOAD PUSH1 0x1 DUP2 PUSH1 0x1 AND ISZERO PUSH2 0x100 MUL SUB AND PUSH1 0x2 SWAP1 DIV SWAP1 PUSH1 0x0 MSTORE PUSH1 0x20 PUSH1 0x0 KECCAK256 SWAP1 PUSH1 0x1F ADD PUSH1 0x20 SWAP1 DIV DUP2 ADD SWAP3 DUP3 PUSH1 0x1F LT PUSH3 0x33D JUMPI DUP1 MLOAD PUSH1 0xFF NOT AND DUP4 DUP1 ADD OR DUP6 SSTORE PUSH3 0x36E JUMP JUMPDEST DUP3 DUP1 ADD PUSH1 0x1 ADD DUP6 SSTORE DUP3 ISZERO PUSH3 0x36E JUMPI SWAP2 DUP3 ADD JUMPDEST DUP3 DUP2 GT ISZERO PUSH3 0x36D JUMPI DUP3 MLOAD DUP3 SSTORE SWAP2 PUSH1 0x20 ADD SWAP2 SWAP1 PUSH1 0x1 ADD SWAP1 PUSH3 0x350 JUMP JUMPDEST JUMPDEST POP SWAP1 POP PUSH3 0x37D SWAP2 SWAP1 PUSH3 0x381 JUMP JUMPDEST POP SWAP1 JUMP JUMPDEST PUSH3 0x3A6 SWAP2 SWAP1 JUMPDEST DUP1 DUP3 GT ISZERO PUSH3 0x3A2 JUMPI PUSH1 0x0 DUP2 PUSH1 0x0 SWAP1 SSTORE POP PUSH1 0x1 ADD PUSH3 0x388 JUMP JUMPDEST POP SWAP1 JUMP JUMPDEST SWAP1 JUMP JUMPDEST PUSH2 0xE02 DUP1 PUSH3 0x3B9 PUSH1 0x0 CODECOPY PUSH1 0x0 RETURN INVALID PUSH1 0x80 PUSH1 0x40 MSTORE CALLVALUE DUP1 ISZERO PUSH2 0x10 JUMPI PUSH1 0x0 DUP1 REVERT JUMPDEST POP PUSH1 0x4 CALLDATASIZE LT PUSH2 0x88 JUMPI PUSH1 0x0 CALLDATALOAD PUSH1 0xE0 SHR DUP1 PUSH4 0xAB7A2015 GT PUSH2 0x5B JUMPI DUP1 PUSH4 0xAB7A2015 EQ PUSH2 0x119 JUMPI DUP1 PUSH4 0xD3516B7E EQ PUSH2 0x149 JUMPI DUP1 PUSH4 0xF0232D0A EQ PUSH2 0x165 JUMPI DUP1 PUSH4 0xF97698F8 EQ PUSH2 0x183 JUMPI PUSH2 0x88 JUMP JUMPDEST DUP1 PUSH4 0x11AEE380 EQ PUSH2 0x8D JUMPI DUP1 PUSH4 0x5DAF08CA EQ PUSH2 0xAB JUMPI DUP1 PUSH4 0x6F416D59 EQ PUSH2 0xDD JUMPI DUP1 PUSH4 0x92C68389 EQ PUSH2 0xFD JUMPI JUMPDEST PUSH1 0x0 DUP1 REVERT JUMPDEST PUSH2 0x95 PUSH2 0x1B3 JUMP JUMPDEST PUSH1 0x40 MLOAD PUSH2 0xA2 SWAP2 SWAP1 PUSH2 0xBAB JUMP JUMPDEST PUSH1 0x40 MLOAD DUP1 SWAP2 SUB SWAP1 RETURN JUMPDEST PUSH2 0xC5 PUSH1 0x4 DUP1 CALLDATASIZE SUB PUSH2 0xC0 SWAP2 SWAP1 DUP2 ADD SWAP1 PUSH2 0x865 JUMP JUMPDEST PUSH2 0x1B9 JUMP JUMPDEST PUSH1 0x40 MLOAD PUSH2 0xD4 SWAP4 SWAP3 SWAP2 SWAP1 PUSH2 0xBC6 JUMP JUMPDEST PUSH1 0x40 MLOAD DUP1 SWAP2 SUB SWAP1 RETURN JUMPDEST PUSH2 0xE5 PUSH2 0x288 JUMP JUMPDEST PUSH1 0x40 MLOAD PUSH2 0xF4 SWAP4 SWAP3 SWAP2 SWAP1 PUSH2 0xB3D JUMP JUMPDEST PUSH1 0x40 MLOAD DUP1 SWAP2 SUB SWAP1 RETURN JUMPDEST PUSH2 0x117 PUSH1 0x4 DUP1 CALLDATASIZE SUB PUSH2 0x112 SWAP2 SWAP1 DUP2 ADD SWAP1 PUSH2 0x811 JUMP JUMPDEST PUSH2 0x47A JUMP JUMPDEST STOP JUMPDEST PUSH2 0x133 PUSH1 0x4 DUP1 CALLDATASIZE SUB PUSH2 0x12E SWAP2 SWAP1 DUP2 ADD SWAP1 PUSH2 0x7E8 JUMP JUMPDEST PUSH2 0x50D JUMP JUMPDEST PUSH1 0x40 MLOAD PUSH2 0x140 SWAP2 SWAP1 PUSH2 0xBAB JUMP JUMPDEST PUSH1 0x40 MLOAD DUP1 SWAP2 SUB SWAP1 RETURN JUMPDEST PUSH2 0x163 PUSH1 0x4 DUP1 CALLDATASIZE SUB PUSH2 0x15E SWAP2 SWAP1 DUP2 ADD SWAP1 PUSH2 0x88E JUMP JUMPDEST PUSH2 0x578 JUMP JUMPDEST STOP JUMPDEST PUSH2 0x16D PUSH2 0x5A9 JUMP JUMPDEST PUSH1 0x40 MLOAD PUSH2 0x17A SWAP2 SWAP1 PUSH2 0xBAB JUMP JUMPDEST PUSH1 0x40 MLOAD DUP1 SWAP2 SUB SWAP1 RETURN JUMPDEST PUSH2 0x19D PUSH1 0x4 DUP1 CALLDATASIZE SUB PUSH2 0x198 SWAP2 SWAP1 DUP2 ADD SWAP1 PUSH2 0x865 JUMP JUMPDEST PUSH2 0x5AF JUMP JUMPDEST PUSH1 0x40 MLOAD PUSH2 0x1AA SWAP2 SWAP1 PUSH2 0xB89 JUMP JUMPDEST PUSH1 0x40 MLOAD DUP1 SWAP2 SUB SWAP1 RETURN JUMPDEST PUSH1 0x1 SLOAD DUP2 JUMP JUMPDEST PUSH1 0x0 PUSH1 0x20 MSTORE DUP1 PUSH1 0x0 MSTORE PUSH1 0x40 PUSH1 0x0 KECCAK256 PUSH1 0x0 SWAP2 POP SWAP1 POP DUP1 PUSH1 0x0 ADD SLOAD SWAP1 DUP1 PUSH1 0x1 ADD DUP1 SLOAD PUSH1 0x1 DUP2 PUSH1 0x1 AND ISZERO PUSH2 0x100 MUL SUB AND PUSH1 0x2 SWAP1 DIV DUP1 PUSH1 0x1F ADD PUSH1 0x20 DUP1 SWAP2 DIV MUL PUSH1 0x20 ADD PUSH1 0x40 MLOAD SWAP1 DUP2 ADD PUSH1 0x40 MSTORE DUP1 SWAP3 SWAP2 SWAP1 DUP2 DUP2 MSTORE PUSH1 0x20 ADD DUP3 DUP1 SLOAD PUSH1 0x1 DUP2 PUSH1 0x1 AND ISZERO PUSH2 0x100 MUL SUB AND PUSH1 0x2 SWAP1 DIV DUP1 ISZERO PUSH2 0x26B JUMPI DUP1 PUSH1 0x1F LT PUSH2 0x240 JUMPI PUSH2 0x100 DUP1 DUP4 SLOAD DIV MUL DUP4 MSTORE SWAP2 PUSH1 0x20 ADD SWAP2 PUSH2 0x26B JUMP JUMPDEST DUP3 ADD SWAP2 SWAP1 PUSH1 0x0 MSTORE PUSH1 0x20 PUSH1 0x0 KECCAK256 SWAP1 JUMPDEST DUP2 SLOAD DUP2 MSTORE SWAP1 PUSH1 0x1 ADD SWAP1 PUSH1 0x20 ADD DUP1 DUP4 GT PUSH2 0x24E JUMPI DUP3 SWAP1 SUB PUSH1 0x1F AND DUP3 ADD SWAP2 JUMPDEST POP POP POP POP POP SWAP1 DUP1 PUSH1 0x2 ADD PUSH1 0x0 SWAP1 SLOAD SWAP1 PUSH2 0x100 EXP SWAP1 DIV PUSH1 0xFF AND SWAP1 POP DUP4 JUMP JUMPDEST PUSH1 0x60 DUP1 PUSH1 0x60 DUP1 PUSH1 0x1 SLOAD PUSH1 0x40 MLOAD SWAP1 DUP1 DUP3 MSTORE DUP1 PUSH1 0x20 MUL PUSH1 0x20 ADD DUP3 ADD PUSH1 0x40 MSTORE DUP1 ISZERO PUSH2 0x2BF JUMPI DUP2 PUSH1 0x20 ADD PUSH1 0x20 DUP3 MUL DUP1 CODESIZE DUP4 CODECOPY DUP1 DUP3 ADD SWAP2 POP POP SWAP1 POP JUMPDEST POP SWAP1 POP PUSH1 0x60 PUSH1 0x1 SLOAD PUSH1 0x40 MLOAD SWAP1 DUP1 DUP3 MSTORE DUP1 PUSH1 0x20 MUL PUSH1 0x20 ADD DUP3 ADD PUSH1 0x40 MSTORE DUP1 ISZERO PUSH2 0x2FA JUMPI DUP2 PUSH1 0x20 ADD JUMPDEST PUSH1 0x60 DUP2 MSTORE PUSH1 0x20 ADD SWAP1 PUSH1 0x1 SWAP1 SUB SWAP1 DUP2 PUSH2 0x2E5 JUMPI SWAP1 POP JUMPDEST POP SWAP1 POP PUSH1 0x60 PUSH1 0x1 SLOAD PUSH1 0x40 MLOAD SWAP1 DUP1 DUP3 MSTORE DUP1 PUSH1 0x20 MUL PUSH1 0x20 ADD DUP3 ADD PUSH1 0x40 MSTORE DUP1 ISZERO PUSH2 0x330 JUMPI DUP2 PUSH1 0x20 ADD PUSH1 0x20 DUP3 MUL DUP1 CODESIZE DUP4 CODECOPY DUP1 DUP3 ADD SWAP2 POP POP SWAP1 POP JUMPDEST POP SWAP1 POP PUSH1 0x0 DUP1 SWAP1 POP JUMPDEST PUSH1 0x1 SLOAD DUP2 LT ISZERO PUSH2 0x468 JUMPI PUSH1 0x0 DUP1 PUSH1 0x0 DUP4 DUP2 MSTORE PUSH1 0x20 ADD SWAP1 DUP2 MSTORE PUSH1 0x20 ADD PUSH1 0x0 KECCAK256 SWAP1 POP DUP1 PUSH1 0x0 ADD SLOAD DUP6 DUP4 DUP2 MLOAD DUP2 LT PUSH2 0x36A JUMPI INVALID JUMPDEST PUSH1 0x20 MUL PUSH1 0x20 ADD ADD DUP2 DUP2 MSTORE POP POP DUP1 PUSH1 0x1 ADD DUP1 SLOAD PUSH1 0x1 DUP2 PUSH1 0x1 AND ISZERO PUSH2 0x100 MUL SUB AND PUSH1 0x2 SWAP1 DIV DUP1 PUSH1 0x1F ADD PUSH1 0x20 DUP1 SWAP2 DIV MUL PUSH1 0x20 ADD PUSH1 0x40 MLOAD SWAP1 DUP2 ADD PUSH1 0x40 MSTORE DUP1 SWAP3 SWAP2 SWAP1 DUP2 DUP2 MSTORE PUSH1 0x20 ADD DUP3 DUP1 SLOAD PUSH1 0x1 DUP2 PUSH1 0x1 AND ISZERO PUSH2 0x100 MUL SUB AND PUSH1 0x2 SWAP1 DIV DUP1 ISZERO PUSH2 0x40E JUMPI DUP1 PUSH1 0x1F LT PUSH2 0x3E3 JUMPI PUSH2 0x100 DUP1 DUP4 SLOAD DIV MUL DUP4 MSTORE SWAP2 PUSH1 0x20 ADD SWAP2 PUSH2 0x40E JUMP JUMPDEST DUP3 ADD SWAP2 SWAP1 PUSH1 0x0 MSTORE PUSH1 0x20 PUSH1 0x0 KECCAK256 SWAP1 JUMPDEST DUP2 SLOAD DUP2 MSTORE SWAP1 PUSH1 0x1 ADD SWAP1 PUSH1 0x20 ADD DUP1 DUP4 GT PUSH2 0x3F1 JUMPI DUP3 SWAP1 SUB PUSH1 0x1F AND DUP3 ADD SWAP2 JUMPDEST POP POP POP POP POP DUP5 DUP4 DUP2 MLOAD DUP2 LT PUSH2 0x41F JUMPI INVALID JUMPDEST PUSH1 0x20 MUL PUSH1 0x20 ADD ADD DUP2 SWAP1 MSTORE POP DUP1 PUSH1 0x2 ADD PUSH1 0x0 SWAP1 SLOAD SWAP1 PUSH2 0x100 EXP SWAP1 DIV PUSH1 0xFF AND DUP4 DUP4 DUP2 MLOAD DUP2 LT PUSH2 0x448 JUMPI INVALID JUMPDEST PUSH1 0x20 MUL PUSH1 0x20 ADD ADD SWAP1 ISZERO ISZERO SWAP1 DUP2 ISZERO ISZERO DUP2 MSTORE POP POP POP DUP1 DUP1 PUSH1 0x1 ADD SWAP2 POP POP PUSH2 0x339 JUMP JUMPDEST POP DUP3 DUP3 DUP3 SWAP6 POP SWAP6 POP SWAP6 POP POP POP POP SWAP1 SWAP2 SWAP3 JUMP JUMPDEST PUSH1 0x40 MLOAD DUP1 PUSH1 0x60 ADD PUSH1 0x40 MSTORE DUP1 PUSH1 0x1 SLOAD DUP2 MSTORE PUSH1 0x20 ADD DUP4 DUP2 MSTORE PUSH1 0x20 ADD DUP3 ISZERO ISZERO DUP2 MSTORE POP PUSH1 0x0 DUP1 PUSH1 0x1 SLOAD DUP2 MSTORE PUSH1 0x20 ADD SWAP1 DUP2 MSTORE PUSH1 0x20 ADD PUSH1 0x0 KECCAK256 PUSH1 0x0 DUP3 ADD MLOAD DUP2 PUSH1 0x0 ADD SSTORE PUSH1 0x20 DUP3 ADD MLOAD DUP2 PUSH1 0x1 ADD SWAP1 DUP1 MLOAD SWAP1 PUSH1 0x20 ADD SWAP1 PUSH2 0x4D3 SWAP3 SWAP2 SWAP1 PUSH2 0x6A2 JUMP JUMPDEST POP PUSH1 0x40 DUP3 ADD MLOAD DUP2 PUSH1 0x2 ADD PUSH1 0x0 PUSH2 0x100 EXP DUP2 SLOAD DUP2 PUSH1 0xFF MUL NOT AND SWAP1 DUP4 ISZERO ISZERO MUL OR SWAP1 SSTORE POP SWAP1 POP POP PUSH1 0x1 PUSH1 0x0 DUP2 SLOAD DUP1 SWAP3 SWAP2 SWAP1 PUSH1 0x1 ADD SWAP2 SWAP1 POP SSTORE POP POP POP JUMP JUMPDEST PUSH1 0x0 DUP1 PUSH1 0x0 SWAP1 POP JUMPDEST PUSH1 0x1 SLOAD DUP2 LT ISZERO PUSH2 0x56D JUMPI DUP3 ISZERO ISZERO PUSH1 0x0 DUP1 DUP4 DUP2 MSTORE PUSH1 0x20 ADD SWAP1 DUP2 MSTORE PUSH1 0x20 ADD PUSH1 0x0 KECCAK256 PUSH1 0x2 ADD PUSH1 0x0 SWAP1 SLOAD SWAP1 PUSH2 0x100 EXP SWAP1 DIV PUSH1 0xFF AND ISZERO ISZERO EQ ISZERO PUSH2 0x560 JUMPI PUSH1 0x2 PUSH1 0x0 DUP2 SLOAD DUP1 SWAP3 SWAP2 SWAP1 PUSH1 0x1 ADD SWAP2 SWAP1 POP SSTORE POP JUMPDEST DUP1 DUP1 PUSH1 0x1 ADD SWAP2 POP POP PUSH2 0x515 JUMP JUMPDEST POP PUSH1 0x2 SLOAD SWAP1 POP SWAP2 SWAP1 POP JUMP JUMPDEST DUP1 PUSH1 0x0 DUP1 DUP5 DUP2 MSTORE PUSH1 0x20 ADD SWAP1 DUP2 MSTORE PUSH1 0x20 ADD PUSH1 0x0 KECCAK256 PUSH1 0x2 ADD PUSH1 0x0 PUSH2 0x100 EXP DUP2 SLOAD DUP2 PUSH1 0xFF MUL NOT AND SWAP1 DUP4 ISZERO ISZERO MUL OR SWAP1 SSTORE POP POP POP JUMP JUMPDEST PUSH1 0x2 SLOAD DUP2 JUMP JUMPDEST PUSH2 0x5B7 PUSH2 0x722 JUMP JUMPDEST PUSH1 0x0 DUP1 DUP4 DUP2 MSTORE PUSH1 0x20 ADD SWAP1 DUP2 MSTORE PUSH1 0x20 ADD PUSH1 0x0 KECCAK256 PUSH1 0x40 MLOAD DUP1 PUSH1 0x60 ADD PUSH1 0x40 MSTORE SWAP1 DUP2 PUSH1 0x0 DUP3 ADD SLOAD DUP2 MSTORE PUSH1 0x20 ADD PUSH1 0x1 DUP3 ADD DUP1 SLOAD PUSH1 0x1 DUP2 PUSH1 0x1 AND ISZERO PUSH2 0x100 MUL SUB AND PUSH1 0x2 SWAP1 DIV DUP1 PUSH1 0x1F ADD PUSH1 0x20 DUP1 SWAP2 DIV MUL PUSH1 0x20 ADD PUSH1 0x40 MLOAD SWAP1 DUP2 ADD PUSH1 0x40 MSTORE DUP1 SWAP3 SWAP2 SWAP1 DUP2 DUP2 MSTORE PUSH1 0x20 ADD DUP3 DUP1 SLOAD PUSH1 0x1 DUP2 PUSH1 0x1 AND ISZERO PUSH2 0x100 MUL SUB AND PUSH1 0x2 SWAP1 DIV DUP1 ISZERO PUSH2 0x677 JUMPI DUP1 PUSH1 0x1F LT PUSH2 0x64C JUMPI PUSH2 0x100 DUP1 DUP4 SLOAD DIV MUL DUP4 MSTORE SWAP2 PUSH1 0x20 ADD SWAP2 PUSH2 0x677 JUMP JUMPDEST DUP3 ADD SWAP2 SWAP1 PUSH1 0x0 MSTORE PUSH1 0x20 PUSH1 0x0 KECCAK256 SWAP1 JUMPDEST DUP2 SLOAD DUP2 MSTORE SWAP1 PUSH1 0x1 ADD SWAP1 PUSH1 0x20 ADD DUP1 DUP4 GT PUSH2 0x65A JUMPI DUP3 SWAP1 SUB PUSH1 0x1F AND DUP3 ADD SWAP2 JUMPDEST POP POP POP POP POP DUP2 MSTORE PUSH1 0x20 ADD PUSH1 0x2 DUP3 ADD PUSH1 0x0 SWAP1 SLOAD SWAP1 PUSH2 0x100 EXP SWAP1 DIV PUSH1 0xFF AND ISZERO ISZERO ISZERO ISZERO DUP2 MSTORE POP POP SWAP1 POP SWAP2 SWAP1 POP JUMP JUMPDEST DUP3 DUP1 SLOAD PUSH1 0x1 DUP2 PUSH1 0x1 AND ISZERO PUSH2 0x100 MUL SUB AND PUSH1 0x2 SWAP1 DIV SWAP1 PUSH1 0x0 MSTORE PUSH1 0x20 PUSH1 0x0 KECCAK256 SWAP1 PUSH1 0x1F ADD PUSH1 0x20 SWAP1 DIV DUP2 ADD SWAP3 DUP3 PUSH1 0x1F LT PUSH2 0x6E3 JUMPI DUP1 MLOAD PUSH1 0xFF NOT AND DUP4 DUP1 ADD OR DUP6 SSTORE PUSH2 0x711 JUMP JUMPDEST DUP3 DUP1 ADD PUSH1 0x1 ADD DUP6 SSTORE DUP3 ISZERO PUSH2 0x711 JUMPI SWAP2 DUP3 ADD JUMPDEST DUP3 DUP2 GT ISZERO PUSH2 0x710 JUMPI DUP3 MLOAD DUP3 SSTORE SWAP2 PUSH1 0x20 ADD SWAP2 SWAP1 PUSH1 0x1 ADD SWAP1 PUSH2 0x6F5 JUMP JUMPDEST JUMPDEST POP SWAP1 POP PUSH2 0x71E SWAP2 SWAP1 PUSH2 0x745 JUMP JUMPDEST POP SWAP1 JUMP JUMPDEST PUSH1 0x40 MLOAD DUP1 PUSH1 0x60 ADD PUSH1 0x40 MSTORE DUP1 PUSH1 0x0 DUP2 MSTORE PUSH1 0x20 ADD PUSH1 0x60 DUP2 MSTORE PUSH1 0x20 ADD PUSH1 0x0 ISZERO ISZERO DUP2 MSTORE POP SWAP1 JUMP JUMPDEST PUSH2 0x767 SWAP2 SWAP1 JUMPDEST DUP1 DUP3 GT ISZERO PUSH2 0x763 JUMPI PUSH1 0x0 DUP2 PUSH1 0x0 SWAP1 SSTORE POP PUSH1 0x1 ADD PUSH2 0x74B JUMP JUMPDEST POP SWAP1 JUMP JUMPDEST SWAP1 JUMP JUMPDEST PUSH1 0x0 DUP2 CALLDATALOAD SWAP1 POP PUSH2 0x779 DUP2 PUSH2 0xD9E JUMP JUMPDEST SWAP3 SWAP2 POP POP JUMP JUMPDEST PUSH1 0x0 DUP3 PUSH1 0x1F DUP4 ADD SLT PUSH2 0x790 JUMPI PUSH1 0x0 DUP1 REVERT JUMPDEST DUP2 CALLDATALOAD PUSH2 0x7A3 PUSH2 0x79E DUP3 PUSH2 0xC31 JUMP JUMPDEST PUSH2 0xC04 JUMP JUMPDEST SWAP2 POP DUP1 DUP3 MSTORE PUSH1 0x20 DUP4 ADD PUSH1 0x20 DUP4 ADD DUP6 DUP4 DUP4 ADD GT ISZERO PUSH2 0x7BF JUMPI PUSH1 0x0 DUP1 REVERT JUMPDEST PUSH2 0x7CA DUP4 DUP3 DUP5 PUSH2 0xD4B JUMP JUMPDEST POP POP POP SWAP3 SWAP2 POP POP JUMP JUMPDEST PUSH1 0x0 DUP2 CALLDATALOAD SWAP1 POP PUSH2 0x7E2 DUP2 PUSH2 0xDB5 JUMP JUMPDEST SWAP3 SWAP2 POP POP JUMP JUMPDEST PUSH1 0x0 PUSH1 0x20 DUP3 DUP5 SUB SLT ISZERO PUSH2 0x7FA JUMPI PUSH1 0x0 DUP1 REVERT JUMPDEST PUSH1 0x0 PUSH2 0x808 DUP5 DUP3 DUP6 ADD PUSH2 0x76A JUMP JUMPDEST SWAP2 POP POP SWAP3 SWAP2 POP POP JUMP JUMPDEST PUSH1 0x0 DUP1 PUSH1 0x40 DUP4 DUP6 SUB SLT ISZERO PUSH2 0x824 JUMPI PUSH1 0x0 DUP1 REVERT JUMPDEST PUSH1 0x0 DUP4 ADD CALLDATALOAD PUSH8 0xFFFFFFFFFFFFFFFF DUP2 GT ISZERO PUSH2 0x83E JUMPI PUSH1 0x0 DUP1 REVERT JUMPDEST PUSH2 0x84A DUP6 DUP3 DUP7 ADD PUSH2 0x77F JUMP JUMPDEST SWAP3 POP POP PUSH1 0x20 PUSH2 0x85B DUP6 DUP3 DUP7 ADD PUSH2 0x76A JUMP JUMPDEST SWAP2 POP POP SWAP3 POP SWAP3 SWAP1 POP JUMP JUMPDEST PUSH1 0x0 PUSH1 0x20 DUP3 DUP5 SUB SLT ISZERO PUSH2 0x877 JUMPI PUSH1 0x0 DUP1 REVERT JUMPDEST PUSH1 0x0 PUSH2 0x885 DUP5 DUP3 DUP6 ADD PUSH2 0x7D3 JUMP JUMPDEST SWAP2 POP POP SWAP3 SWAP2 POP POP JUMP JUMPDEST PUSH1 0x0 DUP1 PUSH1 0x40 DUP4 DUP6 SUB SLT ISZERO PUSH2 0x8A1 JUMPI PUSH1 0x0 DUP1 REVERT JUMPDEST PUSH1 0x0 PUSH2 0x8AF DUP6 DUP3 DUP7 ADD PUSH2 0x7D3 JUMP JUMPDEST SWAP3 POP POP PUSH1 0x20 PUSH2 0x8C0 DUP6 DUP3 DUP7 ADD PUSH2 0x76A JUMP JUMPDEST SWAP2 POP POP SWAP3 POP SWAP3 SWAP1 POP JUMP JUMPDEST PUSH1 0x0 PUSH2 0x8D6 DUP4 DUP4 PUSH2 0xA3F JUMP JUMPDEST PUSH1 0x20 DUP4 ADD SWAP1 POP SWAP3 SWAP2 POP POP JUMP JUMPDEST PUSH1 0x0 PUSH2 0x8EE DUP4 DUP4 PUSH2 0xA5D JUMP JUMPDEST SWAP1 POP SWAP3 SWAP2 POP POP JUMP JUMPDEST PUSH1 0x0 PUSH2 0x902 DUP4 DUP4 PUSH2 0xB1F JUMP JUMPDEST PUSH1 0x20 DUP4 ADD SWAP1 POP SWAP3 SWAP2 POP POP JUMP JUMPDEST PUSH1 0x0 PUSH2 0x919 DUP3 PUSH2 0xC8D JUMP JUMPDEST PUSH2 0x923 DUP2 DUP6 PUSH2 0xCE0 JUMP JUMPDEST SWAP4 POP PUSH2 0x92E DUP4 PUSH2 0xC5D JUMP JUMPDEST DUP1 PUSH1 0x0 JUMPDEST DUP4 DUP2 LT ISZERO PUSH2 0x95F JUMPI DUP2 MLOAD PUSH2 0x946 DUP9 DUP3 PUSH2 0x8CA JUMP JUMPDEST SWAP8 POP PUSH2 0x951 DUP4 PUSH2 0xCB9 JUMP JUMPDEST SWAP3 POP POP PUSH1 0x1 DUP2 ADD SWAP1 POP PUSH2 0x932 JUMP JUMPDEST POP DUP6 SWAP4 POP POP POP POP SWAP3 SWAP2 POP POP JUMP JUMPDEST PUSH1 0x0 PUSH2 0x977 DUP3 PUSH2 0xC98 JUMP JUMPDEST PUSH2 0x981 DUP2 DUP6 PUSH2 0xCF1 JUMP JUMPDEST SWAP4 POP DUP4 PUSH1 0x20 DUP3 MUL DUP6 ADD PUSH2 0x993 DUP6 PUSH2 0xC6D JUMP JUMPDEST DUP1 PUSH1 0x0 JUMPDEST DUP6 DUP2 LT ISZERO PUSH2 0x9CF JUMPI DUP5 DUP5 SUB DUP10 MSTORE DUP2 MLOAD PUSH2 0x9B0 DUP6 DUP3 PUSH2 0x8E2 JUMP JUMPDEST SWAP5 POP PUSH2 0x9BB DUP4 PUSH2 0xCC6 JUMP JUMPDEST SWAP3 POP PUSH1 0x20 DUP11 ADD SWAP10 POP POP PUSH1 0x1 DUP2 ADD SWAP1 POP PUSH2 0x997 JUMP JUMPDEST POP DUP3 SWAP8 POP DUP8 SWAP6 POP POP POP POP POP POP SWAP3 SWAP2 POP POP JUMP JUMPDEST PUSH1 0x0 PUSH2 0x9EC DUP3 PUSH2 0xCA3 JUMP JUMPDEST PUSH2 0x9F6 DUP2 DUP6 PUSH2 0xD02 JUMP JUMPDEST SWAP4 POP PUSH2 0xA01 DUP4 PUSH2 0xC7D JUMP JUMPDEST DUP1 PUSH1 0x0 JUMPDEST DUP4 DUP2 LT ISZERO PUSH2 0xA32 JUMPI DUP2 MLOAD PUSH2 0xA19 DUP9 DUP3 PUSH2 0x8F6 JUMP JUMPDEST SWAP8 POP PUSH2 0xA24 DUP4 PUSH2 0xCD3 JUMP JUMPDEST SWAP3 POP POP PUSH1 0x1 DUP2 ADD SWAP1 POP PUSH2 0xA05 JUMP JUMPDEST POP DUP6 SWAP4 POP POP POP POP SWAP3 SWAP2 POP POP JUMP JUMPDEST PUSH2 0xA48 DUP2 PUSH2 0xD35 JUMP JUMPDEST DUP3 MSTORE POP POP JUMP JUMPDEST PUSH2 0xA57 DUP2 PUSH2 0xD35 JUMP JUMPDEST DUP3 MSTORE POP POP JUMP JUMPDEST PUSH1 0x0 PUSH2 0xA68 DUP3 PUSH2 0xCAE JUMP JUMPDEST PUSH2 0xA72 DUP2 DUP6 PUSH2 0xD13 JUMP JUMPDEST SWAP4 POP PUSH2 0xA82 DUP2 DUP6 PUSH1 0x20 DUP7 ADD PUSH2 0xD5A JUMP JUMPDEST PUSH2 0xA8B DUP2 PUSH2 0xD8D JUMP JUMPDEST DUP5 ADD SWAP2 POP POP SWAP3 SWAP2 POP POP JUMP JUMPDEST PUSH1 0x0 PUSH2 0xAA1 DUP3 PUSH2 0xCAE JUMP JUMPDEST PUSH2 0xAAB DUP2 DUP6 PUSH2 0xD24 JUMP JUMPDEST SWAP4 POP PUSH2 0xABB DUP2 DUP6 PUSH1 0x20 DUP7 ADD PUSH2 0xD5A JUMP JUMPDEST PUSH2 0xAC4 DUP2 PUSH2 0xD8D JUMP JUMPDEST DUP5 ADD SWAP2 POP POP SWAP3 SWAP2 POP POP JUMP JUMPDEST PUSH1 0x0 PUSH1 0x60 DUP4 ADD PUSH1 0x0 DUP4 ADD MLOAD PUSH2 0xAE7 PUSH1 0x0 DUP7 ADD DUP3 PUSH2 0xB1F JUMP JUMPDEST POP PUSH1 0x20 DUP4 ADD MLOAD DUP5 DUP3 SUB PUSH1 0x20 DUP7 ADD MSTORE PUSH2 0xAFF DUP3 DUP3 PUSH2 0xA5D JUMP JUMPDEST SWAP2 POP POP PUSH1 0x40 DUP4 ADD MLOAD PUSH2 0xB14 PUSH1 0x40 DUP7 ADD DUP3 PUSH2 0xA3F JUMP JUMPDEST POP DUP1 SWAP2 POP POP SWAP3 SWAP2 POP POP JUMP JUMPDEST PUSH2 0xB28 DUP2 PUSH2 0xD41 JUMP JUMPDEST DUP3 MSTORE POP POP JUMP JUMPDEST PUSH2 0xB37 DUP2 PUSH2 0xD41 JUMP JUMPDEST DUP3 MSTORE POP POP JUMP JUMPDEST PUSH1 0x0 PUSH1 0x60 DUP3 ADD SWAP1 POP DUP2 DUP2 SUB PUSH1 0x0 DUP4 ADD MSTORE PUSH2 0xB57 DUP2 DUP7 PUSH2 0x9E1 JUMP JUMPDEST SWAP1 POP DUP2 DUP2 SUB PUSH1 0x20 DUP4 ADD MSTORE PUSH2 0xB6B DUP2 DUP6 PUSH2 0x96C JUMP JUMPDEST SWAP1 POP DUP2 DUP2 SUB PUSH1 0x40 DUP4 ADD MSTORE PUSH2 0xB7F DUP2 DUP5 PUSH2 0x90E JUMP JUMPDEST SWAP1 POP SWAP5 SWAP4 POP POP POP POP JUMP JUMPDEST PUSH1 0x0 PUSH1 0x20 DUP3 ADD SWAP1 POP DUP2 DUP2 SUB PUSH1 0x0 DUP4 ADD MSTORE PUSH2 0xBA3 DUP2 DUP5 PUSH2 0xACF JUMP JUMPDEST SWAP1 POP SWAP3 SWAP2 POP POP JUMP JUMPDEST PUSH1 0x0 PUSH1 0x20 DUP3 ADD SWAP1 POP PUSH2 0xBC0 PUSH1 0x0 DUP4 ADD DUP5 PUSH2 0xB2E JUMP JUMPDEST SWAP3 SWAP2 POP POP JUMP JUMPDEST PUSH1 0x0 PUSH1 0x60 DUP3 ADD SWAP1 POP PUSH2 0xBDB PUSH1 0x0 DUP4 ADD DUP7 PUSH2 0xB2E JUMP JUMPDEST DUP2 DUP2 SUB PUSH1 0x20 DUP4 ADD MSTORE PUSH2 0xBED DUP2 DUP6 PUSH2 0xA96 JUMP JUMPDEST SWAP1 POP PUSH2 0xBFC PUSH1 0x40 DUP4 ADD DUP5 PUSH2 0xA4E JUMP JUMPDEST SWAP5 SWAP4 POP POP POP POP JUMP JUMPDEST PUSH1 0x0 PUSH1 0x40 MLOAD SWAP1 POP DUP2 DUP2 ADD DUP2 DUP2 LT PUSH8 0xFFFFFFFFFFFFFFFF DUP3 GT OR ISZERO PUSH2 0xC27 JUMPI PUSH1 0x0 DUP1 REVERT JUMPDEST DUP1 PUSH1 0x40 MSTORE POP SWAP2 SWAP1 POP JUMP JUMPDEST PUSH1 0x0 PUSH8 0xFFFFFFFFFFFFFFFF DUP3 GT ISZERO PUSH2 0xC48 JUMPI PUSH1 0x0 DUP1 REVERT JUMPDEST PUSH1 0x1F NOT PUSH1 0x1F DUP4 ADD AND SWAP1 POP PUSH1 0x20 DUP2 ADD SWAP1 POP SWAP2 SWAP1 POP JUMP JUMPDEST PUSH1 0x0 DUP2 SWAP1 POP PUSH1 0x20 DUP3 ADD SWAP1 POP SWAP2 SWAP1 POP JUMP JUMPDEST PUSH1 0x0 DUP2 SWAP1 POP PUSH1 0x20 DUP3 ADD SWAP1 POP SWAP2 SWAP1 POP JUMP JUMPDEST PUSH1 0x0 DUP2 SWAP1 POP PUSH1 0x20 DUP3 ADD SWAP1 POP SWAP2 SWAP1 POP JUMP JUMPDEST PUSH1 0x0 DUP2 MLOAD SWAP1 POP SWAP2 SWAP1 POP JUMP JUMPDEST PUSH1 0x0 DUP2 MLOAD SWAP1 POP SWAP2 SWAP1 POP JUMP JUMPDEST PUSH1 0x0 DUP2 MLOAD SWAP1 POP SWAP2 SWAP1 POP JUMP JUMPDEST PUSH1 0x0 DUP2 MLOAD SWAP1 POP SWAP2 SWAP1 POP JUMP JUMPDEST PUSH1 0x0 PUSH1 0x20 DUP3 ADD SWAP1 POP SWAP2 SWAP1 POP JUMP JUMPDEST PUSH1 0x0 PUSH1 0x20 DUP3 ADD SWAP1 POP SWAP2 SWAP1 POP JUMP JUMPDEST PUSH1 0x0 PUSH1 0x20 DUP3 ADD SWAP1 POP SWAP2 SWAP1 POP JUMP JUMPDEST PUSH1 0x0 DUP3 DUP3 MSTORE PUSH1 0x20 DUP3 ADD SWAP1 POP SWAP3 SWAP2 POP POP JUMP JUMPDEST PUSH1 0x0 DUP3 DUP3 MSTORE PUSH1 0x20 DUP3 ADD SWAP1 POP SWAP3 SWAP2 POP POP JUMP JUMPDEST PUSH1 0x0 DUP3 DUP3 MSTORE PUSH1 0x20 DUP3 ADD SWAP1 POP SWAP3 SWAP2 POP POP JUMP JUMPDEST PUSH1 0x0 DUP3 DUP3 MSTORE PUSH1 0x20 DUP3 ADD SWAP1 POP SWAP3 SWAP2 POP POP JUMP JUMPDEST PUSH1 0x0 DUP3 DUP3 MSTORE PUSH1 0x20 DUP3 ADD SWAP1 POP SWAP3 SWAP2 POP POP JUMP JUMPDEST PUSH1 0x0 DUP2 ISZERO ISZERO SWAP1 POP SWAP2 SWAP1 POP JUMP JUMPDEST PUSH1 0x0 DUP2 SWAP1 POP SWAP2 SWAP1 POP JUMP JUMPDEST DUP3 DUP2 DUP4 CALLDATACOPY PUSH1 0x0 DUP4 DUP4 ADD MSTORE POP POP POP JUMP JUMPDEST PUSH1 0x0 JUMPDEST DUP4 DUP2 LT ISZERO PUSH2 0xD78 JUMPI DUP1 DUP3 ADD MLOAD DUP2 DUP5 ADD MSTORE PUSH1 0x20 DUP2 ADD SWAP1 POP PUSH2 0xD5D JUMP JUMPDEST DUP4 DUP2 GT ISZERO PUSH2 0xD87 JUMPI PUSH1 0x0 DUP5 DUP5 ADD MSTORE JUMPDEST POP POP POP POP JUMP JUMPDEST PUSH1 0x0 PUSH1 0x1F NOT PUSH1 0x1F DUP4 ADD AND SWAP1 POP SWAP2 SWAP1 POP JUMP JUMPDEST PUSH2 0xDA7 DUP2 PUSH2 0xD35 JUMP JUMPDEST DUP2 EQ PUSH2 0xDB2 JUMPI PUSH1 0x0 DUP1 REVERT JUMPDEST POP JUMP JUMPDEST PUSH2 0xDBE DUP2 PUSH2 0xD41 JUMP JUMPDEST DUP2 EQ PUSH2 0xDC9 JUMPI PUSH1 0x0 DUP1 REVERT JUMPDEST POP JUMP INVALID LOG2 PUSH5 0x6970667358 0x22 SLT KECCAK256 0xEB MUL PUSH5 0xD3CEBF113 0x1F BALANCE 0xC5 0xDA GASLIMIT 0xB8 SWAP14 0x4D 0xB5 JUMPDEST PUSH11 0x4756A59D80F0F70314104E LOG3 0xB0 PUSH5 0x736F6C6343 STOP MOD STOP STOP CALLER "
				},
				"gasEstimates": {
					"creation": {
						"codeDepositCost": "717200",
						"executionCost": "infinite",
						"totalCost": "infinite"
					},
					"external": {
						"addMember(string,bool)": "infinite",
						"getCountOfVoted(bool)": "infinite",
						"getMemberStructure(uint256)": "infinite",
						"getMemberValue()": "infinite",
						"memberCount()": "1130",
						"members(uint256)": "infinite",
						"setVote(uint256,bool)": "21558",
						"votedCount()": "1173"
					}
				},
				"methodIdentifiers": {
					"addMember(string,bool)": "92c68389",
					"getCountOfVoted(bool)": "ab7a2015",
					"getMemberStructure(uint256)": "f97698f8",
					"getMemberValue()": "6f416d59",
					"memberCount()": "11aee380",
					"members(uint256)": "5daf08ca",
					"setVote(uint256,bool)": "d3516b7e",
					"votedCount()": "f0232d0a"
				}
			},
			"storageLayout": {
				"storage": [
					{
						"astId": 13,
						"contract": "contracts/fun_stuff.sol:VoteSaving",
						"label": "members",
						"offset": 0,
						"slot": "0",
						"type": "t_mapping(t_uint256,t_struct(Member)9_storage)"
					},
					{
						"astId": 19,
						"contract": "contracts/fun_stuff.sol:VoteSaving",
						"label": "memberCount",
						"offset": 0,
						"slot": "1",
						"type": "t_uint256"
					},
					{
						"astId": 22,
						"contract": "contracts/fun_stuff.sol:VoteSaving",
						"label": "votedCount",
						"offset": 0,
						"slot": "2",
						"type": "t_uint256"
					}
				],
				"types": {
					"t_bool": {
						"encoding": "inplace",
						"label": "bool",
						"numberOfBytes": "1"
					},
					"t_mapping(t_uint256,t_struct(Member)9_storage)": {
						"encoding": "mapping",
						"key": "t_uint256",
						"label": "mapping(uint256 => struct VoteSaving.Member)",
						"numberOfBytes": "32",
						"value": "t_struct(Member)9_storage"
					},
					"t_string_storage": {
						"encoding": "bytes",
						"label": "string",
						"numberOfBytes": "32"
					},
					"t_struct(Member)9_storage": {
						"encoding": "inplace",
						"label": "struct VoteSaving.Member",
						"members": [
							{
								"astId": 4,
								"contract": "contracts/fun_stuff.sol:VoteSaving",
								"label": "id",
								"offset": 0,
								"slot": "0",
								"type": "t_uint256"
							},
							{
								"astId": 6,
								"contract": "contracts/fun_stuff.sol:VoteSaving",
								"label": "name",
								"offset": 0,
								"slot": "1",
								"type": "t_string_storage"
							},
							{
								"astId": 8,
								"contract": "contracts/fun_stuff.sol:VoteSaving",
								"label": "isVoted",
								"offset": 0,
								"slot": "2",
								"type": "t_bool"
							}
						],
						"numberOfBytes": "96"
					},
					"t_uint256": {
						"encoding": "inplace",
						"label": "uint256",
						"numberOfBytes": "32"
					}
				}
			},
			"userdoc": {
				"methods": {}
			}
		}
	}
}