{
	"contracts/shit.sol": {
		"StructArrayInitWrong": {
			"abi": [
				{
					"inputs": [
						{
							"internalType": "string",
							"name": "_option",
							"type": "string"
						}
					],
					"name": "createRoom",
					"outputs": [],
					"stateMutability": "nonpayable",
					"type": "function"
				},
				{
					"inputs": [],
					"name": "optionCount",
					"outputs": [
						{
							"internalType": "uint256",
							"name": "",
							"type": "uint256"
						}
					],
					"stateMutability": "view",
					"type": "function"
				}
			],
			"devdoc": {
				"kind": "dev",
				"methods": {},
				"version": 1
			},
			"evm": {
				"assembly": "    /* \"contracts/shit.sol\":95:1010  contract StructArrayInitWrong {\r... */\n  mstore(0x40, 0x80)\n  callvalue\n  dup1\n  iszero\n  tag_1\n  jumpi\n  0x00\n  dup1\n  revert\ntag_1:\n  pop\n  dataSize(sub_0)\n  dup1\n  dataOffset(sub_0)\n  0x00\n  codecopy\n  0x00\n  return\nstop\n\nsub_0: assembly {\n        /* \"contracts/shit.sol\":95:1010  contract StructArrayInitWrong {\r... */\n      mstore(0x40, 0x80)\n      callvalue\n      dup1\n      iszero\n      tag_1\n      jumpi\n      0x00\n      dup1\n      revert\n    tag_1:\n      pop\n      jumpi(tag_2, lt(calldatasize, 0x04))\n      shr(0xe0, calldataload(0x00))\n      dup1\n      0x7306d2dd\n      eq\n      tag_3\n      jumpi\n      dup1\n      0xe32fe90b\n      eq\n      tag_4\n      jumpi\n    tag_2:\n      0x00\n      dup1\n      revert\n        /* \"contracts/shit.sol\":399:770  function createRoom(string memory _option) public {\r... */\n    tag_3:\n      tag_5\n      0x04\n      dup1\n      calldatasize\n      sub\n      dup2\n      add\n      swap1\n      tag_6\n      swap2\n      swap1\n      tag_7\n      jump\t// in\n    tag_6:\n      tag_8\n      jump\t// in\n    tag_5:\n      stop\n        /* \"contracts/shit.sol\":367:390  uint public optionCount */\n    tag_4:\n      tag_9\n      tag_10\n      jump\t// in\n    tag_9:\n      mload(0x40)\n      tag_11\n      swap2\n      swap1\n      tag_12\n      jump\t// in\n    tag_11:\n      mload(0x40)\n      dup1\n      swap2\n      sub\n      swap1\n      return\n        /* \"contracts/shit.sol\":399:770  function createRoom(string memory _option) public {\r... */\n    tag_8:\n        /* \"contracts/shit.sol\":560:563  nms */\n      0x01\n        /* \"contracts/shit.sol\":569:576  _option */\n      dup2\n        /* \"contracts/shit.sol\":560:577  nms.push(_option) */\n      swap1\n      dup1\n      0x01\n      dup2\n      sload\n      add\n      dup1\n      dup3\n      sstore\n      dup1\n      swap2\n      pop\n      pop\n      0x01\n      swap1\n      sub\n      swap1\n      0x00\n      mstore\n      keccak256(0x00, 0x20)\n      add\n      0x00\n      swap1\n      swap2\n      swap1\n      swap2\n      swap1\n      swap2\n      pop\n      swap1\n      dup1\n      mload\n      swap1\n      0x20\n      add\n      swap1\n      tag_15\n      swap3\n      swap2\n      swap1\n      tag_16\n      jump\t// in\n    tag_15:\n      pop\n        /* \"contracts/shit.sol\":656:676  Option memory option */\n      0x00\n        /* \"contracts/shit.sol\":679:703  Option(optionCount, nms) */\n      mload(0x40)\n      dup1\n      0x40\n      add\n      0x40\n      mstore\n      dup1\n        /* \"contracts/shit.sol\":686:697  optionCount */\n      sload(0x03)\n        /* \"contracts/shit.sol\":679:703  Option(optionCount, nms) */\n      dup2\n      mstore\n      0x20\n      add\n        /* \"contracts/shit.sol\":699:702  nms */\n      0x01\n        /* \"contracts/shit.sol\":679:703  Option(optionCount, nms) */\n      dup1\n      sload\n      dup1\n      0x20\n      mul\n      0x20\n      add\n      mload(0x40)\n      swap1\n      dup2\n      add\n      0x40\n      mstore\n      dup1\n      swap3\n      swap2\n      swap1\n      dup2\n      dup2\n      mstore\n      0x20\n      add\n      0x00\n      swap1\n    tag_17:\n      dup3\n      dup3\n      lt\n      iszero\n      tag_18\n      jumpi\n      dup4\n      dup3\n      swap1\n      0x00\n      mstore\n      keccak256(0x00, 0x20)\n      add\n      dup1\n      sload\n      tag_20\n      swap1\n      tag_21\n      jump\t// in\n    tag_20:\n      dup1\n      0x1f\n      add\n      0x20\n      dup1\n      swap2\n      div\n      mul\n      0x20\n      add\n      mload(0x40)\n      swap1\n      dup2\n      add\n      0x40\n      mstore\n      dup1\n      swap3\n      swap2\n      swap1\n      dup2\n      dup2\n      mstore\n      0x20\n      add\n      dup3\n      dup1\n      sload\n      tag_22\n      swap1\n      tag_21\n      jump\t// in\n    tag_22:\n      dup1\n      iszero\n      tag_23\n      jumpi\n      dup1\n      0x1f\n      lt\n      tag_24\n      jumpi\n      0x0100\n      dup1\n      dup4\n      sload\n      div\n      mul\n      dup4\n      mstore\n      swap2\n      0x20\n      add\n      swap2\n      jump(tag_23)\n    tag_24:\n      dup3\n      add\n      swap2\n      swap1\n      0x00\n      mstore\n      keccak256(0x00, 0x20)\n      swap1\n    tag_25:\n      dup2\n      sload\n      dup2\n      mstore\n      swap1\n      0x01\n      add\n      swap1\n      0x20\n      add\n      dup1\n      dup4\n      gt\n      tag_25\n      jumpi\n      dup3\n      swap1\n      sub\n      0x1f\n      and\n      dup3\n      add\n      swap2\n    tag_23:\n      pop\n      pop\n      pop\n      pop\n      pop\n      dup2\n      mstore\n      0x20\n      add\n      swap1\n      0x01\n      add\n      swap1\n      jump(tag_17)\n    tag_18:\n      pop\n      pop\n      pop\n      pop\n      dup2\n      mstore\n      pop\n        /* \"contracts/shit.sol\":656:703  Option memory option = Option(optionCount, nms) */\n      swap1\n      pop\n        /* \"contracts/shit.sol\":718:725  options */\n      0x00\n        /* \"contracts/shit.sol\":731:737  option */\n      dup2\n        /* \"contracts/shit.sol\":718:738  options.push(option) */\n      swap1\n      dup1\n      0x01\n      dup2\n      sload\n      add\n      dup1\n      dup3\n      sstore\n      dup1\n      swap2\n      pop\n      pop\n      0x01\n      swap1\n      sub\n      swap1\n      0x00\n      mstore\n      keccak256(0x00, 0x20)\n      swap1\n      0x02\n      mul\n      add\n      0x00\n      swap1\n      swap2\n      swap1\n      swap2\n      swap1\n      swap2\n      pop\n      0x00\n      dup3\n      add\n      mload\n      dup2\n      0x00\n      add\n      sstore\n      0x20\n      dup3\n      add\n      mload\n      dup2\n      0x01\n      add\n      swap1\n      dup1\n      mload\n      swap1\n      0x20\n      add\n      swap1\n      tag_27\n      swap3\n      swap2\n      swap1\n      tag_28\n      jump\t// in\n    tag_27:\n      pop\n      pop\n      pop\n        /* \"contracts/shit.sol\":749:760  optionCount */\n      0x03\n      0x00\n        /* \"contracts/shit.sol\":749:762  optionCount++ */\n      dup2\n      sload\n      dup1\n      swap3\n      swap2\n      swap1\n      tag_29\n      swap1\n      tag_30\n      jump\t// in\n    tag_29:\n      swap2\n      swap1\n      pop\n      sstore\n      pop\n        /* \"contracts/shit.sol\":399:770  function createRoom(string memory _option) public {\r... */\n      pop\n      pop\n      jump\t// out\n        /* \"contracts/shit.sol\":367:390  uint public optionCount */\n    tag_10:\n      sload(0x03)\n      dup2\n      jump\t// out\n    tag_16:\n      dup3\n      dup1\n      sload\n      tag_31\n      swap1\n      tag_21\n      jump\t// in\n    tag_31:\n      swap1\n      0x00\n      mstore\n      keccak256(0x00, 0x20)\n      swap1\n      0x1f\n      add\n      0x20\n      swap1\n      div\n      dup2\n      add\n      swap3\n      dup3\n      tag_33\n      jumpi\n      0x00\n      dup6\n      sstore\n      jump(tag_32)\n    tag_33:\n      dup3\n      0x1f\n      lt\n      tag_34\n      jumpi\n      dup1\n      mload\n      not(0xff)\n      and\n      dup4\n      dup1\n      add\n      or\n      dup6\n      sstore\n      jump(tag_32)\n    tag_34:\n      dup3\n      dup1\n      add\n      0x01\n      add\n      dup6\n      sstore\n      dup3\n      iszero\n      tag_32\n      jumpi\n      swap2\n      dup3\n      add\n    tag_35:\n      dup3\n      dup2\n      gt\n      iszero\n      tag_36\n      jumpi\n      dup3\n      mload\n      dup3\n      sstore\n      swap2\n      0x20\n      add\n      swap2\n      swap1\n      0x01\n      add\n      swap1\n      jump(tag_35)\n    tag_36:\n    tag_32:\n      pop\n      swap1\n      pop\n      tag_37\n      swap2\n      swap1\n      tag_38\n      jump\t// in\n    tag_37:\n      pop\n      swap1\n      jump\t// out\n    tag_28:\n      dup3\n      dup1\n      sload\n      dup3\n      dup3\n      sstore\n      swap1\n      0x00\n      mstore\n      keccak256(0x00, 0x20)\n      swap1\n      dup2\n      add\n      swap3\n      dup3\n      iszero\n      tag_39\n      jumpi\n      swap2\n      0x20\n      mul\n      dup3\n      add\n    tag_40:\n      dup3\n      dup2\n      gt\n      iszero\n      tag_41\n      jumpi\n      dup3\n      mload\n      dup3\n      swap1\n      dup1\n      mload\n      swap1\n      0x20\n      add\n      swap1\n      tag_42\n      swap3\n      swap2\n      swap1\n      tag_16\n      jump\t// in\n    tag_42:\n      pop\n      swap2\n      0x20\n      add\n      swap2\n      swap1\n      0x01\n      add\n      swap1\n      jump(tag_40)\n    tag_41:\n    tag_39:\n      pop\n      swap1\n      pop\n      tag_43\n      swap2\n      swap1\n      tag_44\n      jump\t// in\n    tag_43:\n      pop\n      swap1\n      jump\t// out\n    tag_38:\n    tag_45:\n      dup1\n      dup3\n      gt\n      iszero\n      tag_46\n      jumpi\n      0x00\n      dup2\n      0x00\n      swap1\n      sstore\n      pop\n      0x01\n      add\n      jump(tag_45)\n    tag_46:\n      pop\n      swap1\n      jump\t// out\n    tag_44:\n    tag_47:\n      dup1\n      dup3\n      gt\n      iszero\n      tag_48\n      jumpi\n      0x00\n      dup2\n      dup2\n      tag_49\n      swap2\n      swap1\n      tag_50\n      jump\t// in\n    tag_49:\n      pop\n      0x01\n      add\n      jump(tag_47)\n    tag_48:\n      pop\n      swap1\n      jump\t// out\n    tag_50:\n      pop\n      dup1\n      sload\n      tag_51\n      swap1\n      tag_21\n      jump\t// in\n    tag_51:\n      0x00\n      dup3\n      sstore\n      dup1\n      0x1f\n      lt\n      tag_53\n      jumpi\n      pop\n      jump(tag_52)\n    tag_53:\n      0x1f\n      add\n      0x20\n      swap1\n      div\n      swap1\n      0x00\n      mstore\n      keccak256(0x00, 0x20)\n      swap1\n      dup2\n      add\n      swap1\n      tag_54\n      swap2\n      swap1\n      tag_38\n      jump\t// in\n    tag_54:\n    tag_52:\n      pop\n      jump\t// out\n        /* \"#utility.yul\":7:351   */\n    tag_56:\n      0x00\n        /* \"#utility.yul\":110:175   */\n      tag_58\n        /* \"#utility.yul\":125:174   */\n      tag_59\n        /* \"#utility.yul\":167:173   */\n      dup5\n        /* \"#utility.yul\":125:174   */\n      tag_60\n      jump\t// in\n    tag_59:\n        /* \"#utility.yul\":110:175   */\n      tag_61\n      jump\t// in\n    tag_58:\n        /* \"#utility.yul\":101:175   */\n      swap1\n      pop\n        /* \"#utility.yul\":198:204   */\n      dup3\n        /* \"#utility.yul\":191:196   */\n      dup2\n        /* \"#utility.yul\":184:205   */\n      mstore\n        /* \"#utility.yul\":236:240   */\n      0x20\n        /* \"#utility.yul\":229:234   */\n      dup2\n        /* \"#utility.yul\":225:241   */\n      add\n        /* \"#utility.yul\":274:277   */\n      dup5\n        /* \"#utility.yul\":265:271   */\n      dup5\n        /* \"#utility.yul\":260:263   */\n      dup5\n        /* \"#utility.yul\":256:272   */\n      add\n        /* \"#utility.yul\":253:278   */\n      gt\n        /* \"#utility.yul\":250:252   */\n      iszero\n      tag_62\n      jumpi\n        /* \"#utility.yul\":291:292   */\n      0x00\n        /* \"#utility.yul\":288:289   */\n      dup1\n        /* \"#utility.yul\":281:293   */\n      revert\n        /* \"#utility.yul\":250:252   */\n    tag_62:\n        /* \"#utility.yul\":304:345   */\n      tag_63\n        /* \"#utility.yul\":338:344   */\n      dup5\n        /* \"#utility.yul\":333:336   */\n      dup3\n        /* \"#utility.yul\":328:331   */\n      dup6\n        /* \"#utility.yul\":304:345   */\n      tag_64\n      jump\t// in\n    tag_63:\n        /* \"#utility.yul\":91:351   */\n      pop\n      swap4\n      swap3\n      pop\n      pop\n      pop\n      jump\t// out\n        /* \"#utility.yul\":371:644   */\n    tag_65:\n      0x00\n        /* \"#utility.yul\":476:479   */\n      dup3\n        /* \"#utility.yul\":469:473   */\n      0x1f\n        /* \"#utility.yul\":461:467   */\n      dup4\n        /* \"#utility.yul\":457:474   */\n      add\n        /* \"#utility.yul\":453:480   */\n      slt\n        /* \"#utility.yul\":443:445   */\n      tag_67\n      jumpi\n        /* \"#utility.yul\":494:495   */\n      0x00\n        /* \"#utility.yul\":491:492   */\n      dup1\n        /* \"#utility.yul\":484:496   */\n      revert\n        /* \"#utility.yul\":443:445   */\n    tag_67:\n        /* \"#utility.yul\":534:540   */\n      dup2\n        /* \"#utility.yul\":521:541   */\n      calldataload\n        /* \"#utility.yul\":559:638   */\n      tag_68\n        /* \"#utility.yul\":634:637   */\n      dup5\n        /* \"#utility.yul\":626:632   */\n      dup3\n        /* \"#utility.yul\":619:623   */\n      0x20\n        /* \"#utility.yul\":611:617   */\n      dup7\n        /* \"#utility.yul\":607:624   */\n      add\n        /* \"#utility.yul\":559:638   */\n      tag_56\n      jump\t// in\n    tag_68:\n        /* \"#utility.yul\":550:638   */\n      swap2\n      pop\n        /* \"#utility.yul\":433:644   */\n      pop\n      swap3\n      swap2\n      pop\n      pop\n      jump\t// out\n        /* \"#utility.yul\":650:1025   */\n    tag_7:\n      0x00\n        /* \"#utility.yul\":768:770   */\n      0x20\n        /* \"#utility.yul\":756:765   */\n      dup3\n        /* \"#utility.yul\":747:754   */\n      dup5\n        /* \"#utility.yul\":743:766   */\n      sub\n        /* \"#utility.yul\":739:771   */\n      slt\n        /* \"#utility.yul\":736:738   */\n      iszero\n      tag_70\n      jumpi\n        /* \"#utility.yul\":784:785   */\n      0x00\n        /* \"#utility.yul\":781:782   */\n      dup1\n        /* \"#utility.yul\":774:786   */\n      revert\n        /* \"#utility.yul\":736:738   */\n    tag_70:\n        /* \"#utility.yul\":855:856   */\n      0x00\n        /* \"#utility.yul\":844:853   */\n      dup3\n        /* \"#utility.yul\":840:857   */\n      add\n        /* \"#utility.yul\":827:858   */\n      calldataload\n        /* \"#utility.yul\":885:903   */\n      0xffffffffffffffff\n        /* \"#utility.yul\":877:883   */\n      dup2\n        /* \"#utility.yul\":874:904   */\n      gt\n        /* \"#utility.yul\":871:873   */\n      iszero\n      tag_71\n      jumpi\n        /* \"#utility.yul\":917:918   */\n      0x00\n        /* \"#utility.yul\":914:915   */\n      dup1\n        /* \"#utility.yul\":907:919   */\n      revert\n        /* \"#utility.yul\":871:873   */\n    tag_71:\n        /* \"#utility.yul\":945:1008   */\n      tag_72\n        /* \"#utility.yul\":1000:1007   */\n      dup5\n        /* \"#utility.yul\":991:997   */\n      dup3\n        /* \"#utility.yul\":980:989   */\n      dup6\n        /* \"#utility.yul\":976:998   */\n      add\n        /* \"#utility.yul\":945:1008   */\n      tag_65\n      jump\t// in\n    tag_72:\n        /* \"#utility.yul\":935:1008   */\n      swap2\n      pop\n        /* \"#utility.yul\":798:1018   */\n      pop\n        /* \"#utility.yul\":726:1025   */\n      swap3\n      swap2\n      pop\n      pop\n      jump\t// out\n        /* \"#utility.yul\":1031:1149   */\n    tag_73:\n        /* \"#utility.yul\":1118:1142   */\n      tag_75\n        /* \"#utility.yul\":1136:1141   */\n      dup2\n        /* \"#utility.yul\":1118:1142   */\n      tag_76\n      jump\t// in\n    tag_75:\n        /* \"#utility.yul\":1113:1116   */\n      dup3\n        /* \"#utility.yul\":1106:1143   */\n      mstore\n        /* \"#utility.yul\":1096:1149   */\n      pop\n      pop\n      jump\t// out\n        /* \"#utility.yul\":1155:1377   */\n    tag_12:\n      0x00\n        /* \"#utility.yul\":1286:1288   */\n      0x20\n        /* \"#utility.yul\":1275:1284   */\n      dup3\n        /* \"#utility.yul\":1271:1289   */\n      add\n        /* \"#utility.yul\":1263:1289   */\n      swap1\n      pop\n        /* \"#utility.yul\":1299:1370   */\n      tag_78\n        /* \"#utility.yul\":1367:1368   */\n      0x00\n        /* \"#utility.yul\":1356:1365   */\n      dup4\n        /* \"#utility.yul\":1352:1369   */\n      add\n        /* \"#utility.yul\":1343:1349   */\n      dup5\n        /* \"#utility.yul\":1299:1370   */\n      tag_73\n      jump\t// in\n    tag_78:\n        /* \"#utility.yul\":1253:1377   */\n      swap3\n      swap2\n      pop\n      pop\n      jump\t// out\n        /* \"#utility.yul\":1383:1666   */\n    tag_61:\n      0x00\n        /* \"#utility.yul\":1449:1451   */\n      0x40\n        /* \"#utility.yul\":1443:1452   */\n      mload\n        /* \"#utility.yul\":1433:1452   */\n      swap1\n      pop\n        /* \"#utility.yul\":1491:1495   */\n      dup2\n        /* \"#utility.yul\":1483:1489   */\n      dup2\n        /* \"#utility.yul\":1479:1496   */\n      add\n        /* \"#utility.yul\":1598:1604   */\n      dup2\n        /* \"#utility.yul\":1586:1596   */\n      dup2\n        /* \"#utility.yul\":1583:1605   */\n      lt\n        /* \"#utility.yul\":1562:1580   */\n      0xffffffffffffffff\n        /* \"#utility.yul\":1550:1560   */\n      dup3\n        /* \"#utility.yul\":1547:1581   */\n      gt\n        /* \"#utility.yul\":1544:1606   */\n      or\n        /* \"#utility.yul\":1541:1543   */\n      iszero\n      tag_80\n      jumpi\n        /* \"#utility.yul\":1609:1627   */\n      tag_81\n      tag_82\n      jump\t// in\n    tag_81:\n        /* \"#utility.yul\":1541:1543   */\n    tag_80:\n        /* \"#utility.yul\":1649:1659   */\n      dup1\n        /* \"#utility.yul\":1645:1647   */\n      0x40\n        /* \"#utility.yul\":1638:1660   */\n      mstore\n        /* \"#utility.yul\":1423:1666   */\n      pop\n      swap2\n      swap1\n      pop\n      jump\t// out\n        /* \"#utility.yul\":1672:2004   */\n    tag_60:\n      0x00\n        /* \"#utility.yul\":1824:1842   */\n      0xffffffffffffffff\n        /* \"#utility.yul\":1816:1822   */\n      dup3\n        /* \"#utility.yul\":1813:1843   */\n      gt\n        /* \"#utility.yul\":1810:1812   */\n      iszero\n      tag_84\n      jumpi\n        /* \"#utility.yul\":1846:1864   */\n      tag_85\n      tag_82\n      jump\t// in\n    tag_85:\n        /* \"#utility.yul\":1810:1812   */\n    tag_84:\n        /* \"#utility.yul\":1931:1935   */\n      0x1f\n        /* \"#utility.yul\":1927:1936   */\n      not\n        /* \"#utility.yul\":1920:1924   */\n      0x1f\n        /* \"#utility.yul\":1912:1918   */\n      dup4\n        /* \"#utility.yul\":1908:1925   */\n      add\n        /* \"#utility.yul\":1904:1937   */\n      and\n        /* \"#utility.yul\":1896:1937   */\n      swap1\n      pop\n        /* \"#utility.yul\":1992:1996   */\n      0x20\n        /* \"#utility.yul\":1986:1990   */\n      dup2\n        /* \"#utility.yul\":1982:1997   */\n      add\n        /* \"#utility.yul\":1974:1997   */\n      swap1\n      pop\n        /* \"#utility.yul\":1739:2004   */\n      swap2\n      swap1\n      pop\n      jump\t// out\n        /* \"#utility.yul\":2010:2087   */\n    tag_76:\n      0x00\n        /* \"#utility.yul\":2076:2081   */\n      dup2\n        /* \"#utility.yul\":2065:2081   */\n      swap1\n      pop\n        /* \"#utility.yul\":2055:2087   */\n      swap2\n      swap1\n      pop\n      jump\t// out\n        /* \"#utility.yul\":2093:2247   */\n    tag_64:\n        /* \"#utility.yul\":2177:2183   */\n      dup3\n        /* \"#utility.yul\":2172:2175   */\n      dup2\n        /* \"#utility.yul\":2167:2170   */\n      dup4\n        /* \"#utility.yul\":2154:2184   */\n      calldatacopy\n        /* \"#utility.yul\":2239:2240   */\n      0x00\n        /* \"#utility.yul\":2230:2236   */\n      dup4\n        /* \"#utility.yul\":2225:2228   */\n      dup4\n        /* \"#utility.yul\":2221:2237   */\n      add\n        /* \"#utility.yul\":2214:2241   */\n      mstore\n        /* \"#utility.yul\":2144:2247   */\n      pop\n      pop\n      pop\n      jump\t// out\n        /* \"#utility.yul\":2253:2573   */\n    tag_21:\n      0x00\n        /* \"#utility.yul\":2334:2335   */\n      0x02\n        /* \"#utility.yul\":2328:2332   */\n      dup3\n        /* \"#utility.yul\":2324:2336   */\n      div\n        /* \"#utility.yul\":2314:2336   */\n      swap1\n      pop\n        /* \"#utility.yul\":2381:2382   */\n      0x01\n        /* \"#utility.yul\":2375:2379   */\n      dup3\n        /* \"#utility.yul\":2371:2383   */\n      and\n        /* \"#utility.yul\":2402:2420   */\n      dup1\n        /* \"#utility.yul\":2392:2394   */\n      tag_89\n      jumpi\n        /* \"#utility.yul\":2458:2462   */\n      0x7f\n        /* \"#utility.yul\":2450:2456   */\n      dup3\n        /* \"#utility.yul\":2446:2463   */\n      and\n        /* \"#utility.yul\":2436:2463   */\n      swap2\n      pop\n        /* \"#utility.yul\":2392:2394   */\n    tag_89:\n        /* \"#utility.yul\":2520:2522   */\n      0x20\n        /* \"#utility.yul\":2512:2518   */\n      dup3\n        /* \"#utility.yul\":2509:2523   */\n      lt\n        /* \"#utility.yul\":2489:2507   */\n      dup2\n        /* \"#utility.yul\":2486:2524   */\n      eq\n        /* \"#utility.yul\":2483:2485   */\n      iszero\n      tag_90\n      jumpi\n        /* \"#utility.yul\":2539:2557   */\n      tag_91\n      tag_92\n      jump\t// in\n    tag_91:\n        /* \"#utility.yul\":2483:2485   */\n    tag_90:\n        /* \"#utility.yul\":2304:2573   */\n      pop\n      swap2\n      swap1\n      pop\n      jump\t// out\n        /* \"#utility.yul\":2579:2812   */\n    tag_30:\n      0x00\n        /* \"#utility.yul\":2641:2665   */\n      tag_94\n        /* \"#utility.yul\":2659:2664   */\n      dup3\n        /* \"#utility.yul\":2641:2665   */\n      tag_76\n      jump\t// in\n    tag_94:\n        /* \"#utility.yul\":2632:2665   */\n      swap2\n      pop\n        /* \"#utility.yul\":2687:2753   */\n      0xffffffffffffffffffffffffffffffffffffffffffffffffffffffffffffffff\n        /* \"#utility.yul\":2680:2685   */\n      dup3\n        /* \"#utility.yul\":2677:2754   */\n      eq\n        /* \"#utility.yul\":2674:2676   */\n      iszero\n      tag_95\n      jumpi\n        /* \"#utility.yul\":2757:2775   */\n      tag_96\n      tag_97\n      jump\t// in\n    tag_96:\n        /* \"#utility.yul\":2674:2676   */\n    tag_95:\n        /* \"#utility.yul\":2804:2805   */\n      0x01\n        /* \"#utility.yul\":2797:2802   */\n      dup3\n        /* \"#utility.yul\":2793:2806   */\n      add\n        /* \"#utility.yul\":2786:2806   */\n      swap1\n      pop\n        /* \"#utility.yul\":2622:2812   */\n      swap2\n      swap1\n      pop\n      jump\t// out\n        /* \"#utility.yul\":2818:2998   */\n    tag_97:\n        /* \"#utility.yul\":2866:2943   */\n      0x4e487b7100000000000000000000000000000000000000000000000000000000\n        /* \"#utility.yul\":2863:2864   */\n      0x00\n        /* \"#utility.yul\":2856:2944   */\n      mstore\n        /* \"#utility.yul\":2963:2967   */\n      0x11\n        /* \"#utility.yul\":2960:2961   */\n      0x04\n        /* \"#utility.yul\":2953:2968   */\n      mstore\n        /* \"#utility.yul\":2987:2991   */\n      0x24\n        /* \"#utility.yul\":2984:2985   */\n      0x00\n        /* \"#utility.yul\":2977:2992   */\n      revert\n        /* \"#utility.yul\":3004:3184   */\n    tag_92:\n        /* \"#utility.yul\":3052:3129   */\n      0x4e487b7100000000000000000000000000000000000000000000000000000000\n        /* \"#utility.yul\":3049:3050   */\n      0x00\n        /* \"#utility.yul\":3042:3130   */\n      mstore\n        /* \"#utility.yul\":3149:3153   */\n      0x22\n        /* \"#utility.yul\":3146:3147   */\n      0x04\n        /* \"#utility.yul\":3139:3154   */\n      mstore\n        /* \"#utility.yul\":3173:3177   */\n      0x24\n        /* \"#utility.yul\":3170:3171   */\n      0x00\n        /* \"#utility.yul\":3163:3178   */\n      revert\n        /* \"#utility.yul\":3190:3370   */\n    tag_82:\n        /* \"#utility.yul\":3238:3315   */\n      0x4e487b7100000000000000000000000000000000000000000000000000000000\n        /* \"#utility.yul\":3235:3236   */\n      0x00\n        /* \"#utility.yul\":3228:3316   */\n      mstore\n        /* \"#utility.yul\":3335:3339   */\n      0x41\n        /* \"#utility.yul\":3332:3333   */\n      0x04\n        /* \"#utility.yul\":3325:3340   */\n      mstore\n        /* \"#utility.yul\":3359:3363   */\n      0x24\n        /* \"#utility.yul\":3356:3357   */\n      0x00\n        /* \"#utility.yul\":3349:3364   */\n      revert\n\n    auxdata: 0xa26469706673582212200debd90c2a9b6559803ed0d48e2b745d55835e025c9dce31e03476ea30838bee64736f6c63430008000033\n}\n",
				"bytecode": {
					"linkReferences": {},
					"object": "608060405234801561001057600080fd5b50610606806100206000396000f3fe608060405234801561001057600080fd5b50600436106100365760003560e01c80637306d2dd1461003b578063e32fe90b14610057575b600080fd5b610055600480360381019061005091906103e3565b610075565b005b61005f61020e565b60405161006c9190610433565b60405180910390f35b6001819080600181540180825580915050600190039060005260206000200160009091909190915090805190602001906100b0929190610214565b506000604051806040016040528060035481526020016001805480602002602001604051908101604052809291908181526020016000905b82821015610194578382906000526020600020018054610107906104c8565b80601f0160208091040260200160405190810160405280929190818152602001828054610133906104c8565b80156101805780601f1061015557610100808354040283529160200191610180565b820191906000526020600020905b81548152906001019060200180831161016357829003601f168201915b5050505050815260200190600101906100e8565b50505050815250905060008190806001815401808255809150506001900390600052602060002090600202016000909190919091506000820151816000015560208201518160010190805190602001906101ef92919061029a565b50505060036000815480929190610205906104fa565b91905055505050565b60035481565b828054610220906104c8565b90600052602060002090601f0160209004810192826102425760008555610289565b82601f1061025b57805160ff1916838001178555610289565b82800160010185558215610289579182015b8281111561028857825182559160200191906001019061026d565b5b50905061029691906102fa565b5090565b8280548282559060005260206000209081019282156102e9579160200282015b828111156102e85782518290805190602001906102d8929190610214565b50916020019190600101906102ba565b5b5090506102f69190610317565b5090565b5b808211156103135760008160009055506001016102fb565b5090565b5b80821115610337576000818161032e919061033b565b50600101610318565b5090565b508054610347906104c8565b6000825580601f106103595750610378565b601f01602090049060005260206000209081019061037791906102fa565b5b50565b600061038e6103898461047f565b61044e565b9050828152602081018484840111156103a657600080fd5b6103b18482856104b9565b509392505050565b600082601f8301126103ca57600080fd5b81356103da84826020860161037b565b91505092915050565b6000602082840312156103f557600080fd5b600082013567ffffffffffffffff81111561040f57600080fd5b61041b848285016103b9565b91505092915050565b61042d816104af565b82525050565b60006020820190506104486000830184610424565b92915050565b6000604051905081810181811067ffffffffffffffff82111715610475576104746105a1565b5b8060405250919050565b600067ffffffffffffffff82111561049a576104996105a1565b5b601f19601f8301169050602081019050919050565b6000819050919050565b82818337600083830152505050565b600060028204905060018216806104e057607f821691505b602082108114156104f4576104f3610572565b5b50919050565b6000610505826104af565b91507fffffffffffffffffffffffffffffffffffffffffffffffffffffffffffffffff82141561053857610537610543565b5b600182019050919050565b7f4e487b7100000000000000000000000000000000000000000000000000000000600052601160045260246000fd5b7f4e487b7100000000000000000000000000000000000000000000000000000000600052602260045260246000fd5b7f4e487b7100000000000000000000000000000000000000000000000000000000600052604160045260246000fdfea26469706673582212200debd90c2a9b6559803ed0d48e2b745d55835e025c9dce31e03476ea30838bee64736f6c63430008000033",
					"opcodes": "PUSH1 0x80 PUSH1 0x40 MSTORE CALLVALUE DUP1 ISZERO PUSH2 0x10 JUMPI PUSH1 0x0 DUP1 REVERT JUMPDEST POP PUSH2 0x606 DUP1 PUSH2 0x20 PUSH1 0x0 CODECOPY PUSH1 0x0 RETURN INVALID PUSH1 0x80 PUSH1 0x40 MSTORE CALLVALUE DUP1 ISZERO PUSH2 0x10 JUMPI PUSH1 0x0 DUP1 REVERT JUMPDEST POP PUSH1 0x4 CALLDATASIZE LT PUSH2 0x36 JUMPI PUSH1 0x0 CALLDATALOAD PUSH1 0xE0 SHR DUP1 PUSH4 0x7306D2DD EQ PUSH2 0x3B JUMPI DUP1 PUSH4 0xE32FE90B EQ PUSH2 0x57 JUMPI JUMPDEST PUSH1 0x0 DUP1 REVERT JUMPDEST PUSH2 0x55 PUSH1 0x4 DUP1 CALLDATASIZE SUB DUP2 ADD SWAP1 PUSH2 0x50 SWAP2 SWAP1 PUSH2 0x3E3 JUMP JUMPDEST PUSH2 0x75 JUMP JUMPDEST STOP JUMPDEST PUSH2 0x5F PUSH2 0x20E JUMP JUMPDEST PUSH1 0x40 MLOAD PUSH2 0x6C SWAP2 SWAP1 PUSH2 0x433 JUMP JUMPDEST PUSH1 0x40 MLOAD DUP1 SWAP2 SUB SWAP1 RETURN JUMPDEST PUSH1 0x1 DUP2 SWAP1 DUP1 PUSH1 0x1 DUP2 SLOAD ADD DUP1 DUP3 SSTORE DUP1 SWAP2 POP POP PUSH1 0x1 SWAP1 SUB SWAP1 PUSH1 0x0 MSTORE PUSH1 0x20 PUSH1 0x0 KECCAK256 ADD PUSH1 0x0 SWAP1 SWAP2 SWAP1 SWAP2 SWAP1 SWAP2 POP SWAP1 DUP1 MLOAD SWAP1 PUSH1 0x20 ADD SWAP1 PUSH2 0xB0 SWAP3 SWAP2 SWAP1 PUSH2 0x214 JUMP JUMPDEST POP PUSH1 0x0 PUSH1 0x40 MLOAD DUP1 PUSH1 0x40 ADD PUSH1 0x40 MSTORE DUP1 PUSH1 0x3 SLOAD DUP2 MSTORE PUSH1 0x20 ADD PUSH1 0x1 DUP1 SLOAD DUP1 PUSH1 0x20 MUL PUSH1 0x20 ADD PUSH1 0x40 MLOAD SWAP1 DUP2 ADD PUSH1 0x40 MSTORE DUP1 SWAP3 SWAP2 SWAP1 DUP2 DUP2 MSTORE PUSH1 0x20 ADD PUSH1 0x0 SWAP1 JUMPDEST DUP3 DUP3 LT ISZERO PUSH2 0x194 JUMPI DUP4 DUP3 SWAP1 PUSH1 0x0 MSTORE PUSH1 0x20 PUSH1 0x0 KECCAK256 ADD DUP1 SLOAD PUSH2 0x107 SWAP1 PUSH2 0x4C8 JUMP JUMPDEST DUP1 PUSH1 0x1F ADD PUSH1 0x20 DUP1 SWAP2 DIV MUL PUSH1 0x20 ADD PUSH1 0x40 MLOAD SWAP1 DUP2 ADD PUSH1 0x40 MSTORE DUP1 SWAP3 SWAP2 SWAP1 DUP2 DUP2 MSTORE PUSH1 0x20 ADD DUP3 DUP1 SLOAD PUSH2 0x133 SWAP1 PUSH2 0x4C8 JUMP JUMPDEST DUP1 ISZERO PUSH2 0x180 JUMPI DUP1 PUSH1 0x1F LT PUSH2 0x155 JUMPI PUSH2 0x100 DUP1 DUP4 SLOAD DIV MUL DUP4 MSTORE SWAP2 PUSH1 0x20 ADD SWAP2 PUSH2 0x180 JUMP JUMPDEST DUP3 ADD SWAP2 SWAP1 PUSH1 0x0 MSTORE PUSH1 0x20 PUSH1 0x0 KECCAK256 SWAP1 JUMPDEST DUP2 SLOAD DUP2 MSTORE SWAP1 PUSH1 0x1 ADD SWAP1 PUSH1 0x20 ADD DUP1 DUP4 GT PUSH2 0x163 JUMPI DUP3 SWAP1 SUB PUSH1 0x1F AND DUP3 ADD SWAP2 JUMPDEST POP POP POP POP POP DUP2 MSTORE PUSH1 0x20 ADD SWAP1 PUSH1 0x1 ADD SWAP1 PUSH2 0xE8 JUMP JUMPDEST POP POP POP POP DUP2 MSTORE POP SWAP1 POP PUSH1 0x0 DUP2 SWAP1 DUP1 PUSH1 0x1 DUP2 SLOAD ADD DUP1 DUP3 SSTORE DUP1 SWAP2 POP POP PUSH1 0x1 SWAP1 SUB SWAP1 PUSH1 0x0 MSTORE PUSH1 0x20 PUSH1 0x0 KECCAK256 SWAP1 PUSH1 0x2 MUL ADD PUSH1 0x0 SWAP1 SWAP2 SWAP1 SWAP2 SWAP1 SWAP2 POP PUSH1 0x0 DUP3 ADD MLOAD DUP2 PUSH1 0x0 ADD SSTORE PUSH1 0x20 DUP3 ADD MLOAD DUP2 PUSH1 0x1 ADD SWAP1 DUP1 MLOAD SWAP1 PUSH1 0x20 ADD SWAP1 PUSH2 0x1EF SWAP3 SWAP2 SWAP1 PUSH2 0x29A JUMP JUMPDEST POP POP POP PUSH1 0x3 PUSH1 0x0 DUP2 SLOAD DUP1 SWAP3 SWAP2 SWAP1 PUSH2 0x205 SWAP1 PUSH2 0x4FA JUMP JUMPDEST SWAP2 SWAP1 POP SSTORE POP POP POP JUMP JUMPDEST PUSH1 0x3 SLOAD DUP2 JUMP JUMPDEST DUP3 DUP1 SLOAD PUSH2 0x220 SWAP1 PUSH2 0x4C8 JUMP JUMPDEST SWAP1 PUSH1 0x0 MSTORE PUSH1 0x20 PUSH1 0x0 KECCAK256 SWAP1 PUSH1 0x1F ADD PUSH1 0x20 SWAP1 DIV DUP2 ADD SWAP3 DUP3 PUSH2 0x242 JUMPI PUSH1 0x0 DUP6 SSTORE PUSH2 0x289 JUMP JUMPDEST DUP3 PUSH1 0x1F LT PUSH2 0x25B JUMPI DUP1 MLOAD PUSH1 0xFF NOT AND DUP4 DUP1 ADD OR DUP6 SSTORE PUSH2 0x289 JUMP JUMPDEST DUP3 DUP1 ADD PUSH1 0x1 ADD DUP6 SSTORE DUP3 ISZERO PUSH2 0x289 JUMPI SWAP2 DUP3 ADD JUMPDEST DUP3 DUP2 GT ISZERO PUSH2 0x288 JUMPI DUP3 MLOAD DUP3 SSTORE SWAP2 PUSH1 0x20 ADD SWAP2 SWAP1 PUSH1 0x1 ADD SWAP1 PUSH2 0x26D JUMP JUMPDEST JUMPDEST POP SWAP1 POP PUSH2 0x296 SWAP2 SWAP1 PUSH2 0x2FA JUMP JUMPDEST POP SWAP1 JUMP JUMPDEST DUP3 DUP1 SLOAD DUP3 DUP3 SSTORE SWAP1 PUSH1 0x0 MSTORE PUSH1 0x20 PUSH1 0x0 KECCAK256 SWAP1 DUP2 ADD SWAP3 DUP3 ISZERO PUSH2 0x2E9 JUMPI SWAP2 PUSH1 0x20 MUL DUP3 ADD JUMPDEST DUP3 DUP2 GT ISZERO PUSH2 0x2E8 JUMPI DUP3 MLOAD DUP3 SWAP1 DUP1 MLOAD SWAP1 PUSH1 0x20 ADD SWAP1 PUSH2 0x2D8 SWAP3 SWAP2 SWAP1 PUSH2 0x214 JUMP JUMPDEST POP SWAP2 PUSH1 0x20 ADD SWAP2 SWAP1 PUSH1 0x1 ADD SWAP1 PUSH2 0x2BA JUMP JUMPDEST JUMPDEST POP SWAP1 POP PUSH2 0x2F6 SWAP2 SWAP1 PUSH2 0x317 JUMP JUMPDEST POP SWAP1 JUMP JUMPDEST JUMPDEST DUP1 DUP3 GT ISZERO PUSH2 0x313 JUMPI PUSH1 0x0 DUP2 PUSH1 0x0 SWAP1 SSTORE POP PUSH1 0x1 ADD PUSH2 0x2FB JUMP JUMPDEST POP SWAP1 JUMP JUMPDEST JUMPDEST DUP1 DUP3 GT ISZERO PUSH2 0x337 JUMPI PUSH1 0x0 DUP2 DUP2 PUSH2 0x32E SWAP2 SWAP1 PUSH2 0x33B JUMP JUMPDEST POP PUSH1 0x1 ADD PUSH2 0x318 JUMP JUMPDEST POP SWAP1 JUMP JUMPDEST POP DUP1 SLOAD PUSH2 0x347 SWAP1 PUSH2 0x4C8 JUMP JUMPDEST PUSH1 0x0 DUP3 SSTORE DUP1 PUSH1 0x1F LT PUSH2 0x359 JUMPI POP PUSH2 0x378 JUMP JUMPDEST PUSH1 0x1F ADD PUSH1 0x20 SWAP1 DIV SWAP1 PUSH1 0x0 MSTORE PUSH1 0x20 PUSH1 0x0 KECCAK256 SWAP1 DUP2 ADD SWAP1 PUSH2 0x377 SWAP2 SWAP1 PUSH2 0x2FA JUMP JUMPDEST JUMPDEST POP JUMP JUMPDEST PUSH1 0x0 PUSH2 0x38E PUSH2 0x389 DUP5 PUSH2 0x47F JUMP JUMPDEST PUSH2 0x44E JUMP JUMPDEST SWAP1 POP DUP3 DUP2 MSTORE PUSH1 0x20 DUP2 ADD DUP5 DUP5 DUP5 ADD GT ISZERO PUSH2 0x3A6 JUMPI PUSH1 0x0 DUP1 REVERT JUMPDEST PUSH2 0x3B1 DUP5 DUP3 DUP6 PUSH2 0x4B9 JUMP JUMPDEST POP SWAP4 SWAP3 POP POP POP JUMP JUMPDEST PUSH1 0x0 DUP3 PUSH1 0x1F DUP4 ADD SLT PUSH2 0x3CA JUMPI PUSH1 0x0 DUP1 REVERT JUMPDEST DUP2 CALLDATALOAD PUSH2 0x3DA DUP5 DUP3 PUSH1 0x20 DUP7 ADD PUSH2 0x37B JUMP JUMPDEST SWAP2 POP POP SWAP3 SWAP2 POP POP JUMP JUMPDEST PUSH1 0x0 PUSH1 0x20 DUP3 DUP5 SUB SLT ISZERO PUSH2 0x3F5 JUMPI PUSH1 0x0 DUP1 REVERT JUMPDEST PUSH1 0x0 DUP3 ADD CALLDATALOAD PUSH8 0xFFFFFFFFFFFFFFFF DUP2 GT ISZERO PUSH2 0x40F JUMPI PUSH1 0x0 DUP1 REVERT JUMPDEST PUSH2 0x41B DUP5 DUP3 DUP6 ADD PUSH2 0x3B9 JUMP JUMPDEST SWAP2 POP POP SWAP3 SWAP2 POP POP JUMP JUMPDEST PUSH2 0x42D DUP2 PUSH2 0x4AF JUMP JUMPDEST DUP3 MSTORE POP POP JUMP JUMPDEST PUSH1 0x0 PUSH1 0x20 DUP3 ADD SWAP1 POP PUSH2 0x448 PUSH1 0x0 DUP4 ADD DUP5 PUSH2 0x424 JUMP JUMPDEST SWAP3 SWAP2 POP POP JUMP JUMPDEST PUSH1 0x0 PUSH1 0x40 MLOAD SWAP1 POP DUP2 DUP2 ADD DUP2 DUP2 LT PUSH8 0xFFFFFFFFFFFFFFFF DUP3 GT OR ISZERO PUSH2 0x475 JUMPI PUSH2 0x474 PUSH2 0x5A1 JUMP JUMPDEST JUMPDEST DUP1 PUSH1 0x40 MSTORE POP SWAP2 SWAP1 POP JUMP JUMPDEST PUSH1 0x0 PUSH8 0xFFFFFFFFFFFFFFFF DUP3 GT ISZERO PUSH2 0x49A JUMPI PUSH2 0x499 PUSH2 0x5A1 JUMP JUMPDEST JUMPDEST PUSH1 0x1F NOT PUSH1 0x1F DUP4 ADD AND SWAP1 POP PUSH1 0x20 DUP2 ADD SWAP1 POP SWAP2 SWAP1 POP JUMP JUMPDEST PUSH1 0x0 DUP2 SWAP1 POP SWAP2 SWAP1 POP JUMP JUMPDEST DUP3 DUP2 DUP4 CALLDATACOPY PUSH1 0x0 DUP4 DUP4 ADD MSTORE POP POP POP JUMP JUMPDEST PUSH1 0x0 PUSH1 0x2 DUP3 DIV SWAP1 POP PUSH1 0x1 DUP3 AND DUP1 PUSH2 0x4E0 JUMPI PUSH1 0x7F DUP3 AND SWAP2 POP JUMPDEST PUSH1 0x20 DUP3 LT DUP2 EQ ISZERO PUSH2 0x4F4 JUMPI PUSH2 0x4F3 PUSH2 0x572 JUMP JUMPDEST JUMPDEST POP SWAP2 SWAP1 POP JUMP JUMPDEST PUSH1 0x0 PUSH2 0x505 DUP3 PUSH2 0x4AF JUMP JUMPDEST SWAP2 POP PUSH32 0xFFFFFFFFFFFFFFFFFFFFFFFFFFFFFFFFFFFFFFFFFFFFFFFFFFFFFFFFFFFFFFFF DUP3 EQ ISZERO PUSH2 0x538 JUMPI PUSH2 0x537 PUSH2 0x543 JUMP JUMPDEST JUMPDEST PUSH1 0x1 DUP3 ADD SWAP1 POP SWAP2 SWAP1 POP JUMP JUMPDEST PUSH32 0x4E487B7100000000000000000000000000000000000000000000000000000000 PUSH1 0x0 MSTORE PUSH1 0x11 PUSH1 0x4 MSTORE PUSH1 0x24 PUSH1 0x0 REVERT JUMPDEST PUSH32 0x4E487B7100000000000000000000000000000000000000000000000000000000 PUSH1 0x0 MSTORE PUSH1 0x22 PUSH1 0x4 MSTORE PUSH1 0x24 PUSH1 0x0 REVERT JUMPDEST PUSH32 0x4E487B7100000000000000000000000000000000000000000000000000000000 PUSH1 0x0 MSTORE PUSH1 0x41 PUSH1 0x4 MSTORE PUSH1 0x24 PUSH1 0x0 REVERT INVALID LOG2 PUSH5 0x6970667358 0x22 SLT KECCAK256 0xD 0xEB 0xD9 0xC 0x2A SWAP12 PUSH6 0x59803ED0D48E 0x2B PUSH21 0x5D55835E025C9DCE31E03476EA30838BEE64736F6C PUSH4 0x43000800 STOP CALLER "
				},
				"gasEstimates": {
					"creation": {
						"codeDepositCost": "308400",
						"executionCost": "349",
						"totalCost": "308749"
					},
					"external": {
						"createRoom(string)": "infinite",
						"optionCount()": "1129"
					}
				},
				"methodIdentifiers": {
					"createRoom(string)": "7306d2dd",
					"optionCount()": "e32fe90b"
				}
			},
			"storageLayout": {
				"storage": [
					{
						"astId": 12,
						"contract": "contracts/shit.sol:StructArrayInitWrong",
						"label": "options",
						"offset": 0,
						"slot": "0",
						"type": "t_array(t_struct(Option)8_storage)dyn_storage"
					},
					{
						"astId": 15,
						"contract": "contracts/shit.sol:StructArrayInitWrong",
						"label": "nms",
						"offset": 0,
						"slot": "1",
						"type": "t_array(t_string_storage)dyn_storage"
					},
					{
						"astId": 18,
						"contract": "contracts/shit.sol:StructArrayInitWrong",
						"label": "adr",
						"offset": 0,
						"slot": "2",
						"type": "t_array(t_address)dyn_storage"
					},
					{
						"astId": 20,
						"contract": "contracts/shit.sol:StructArrayInitWrong",
						"label": "optionCount",
						"offset": 0,
						"slot": "3",
						"type": "t_uint256"
					}
				],
				"types": {
					"t_address": {
						"encoding": "inplace",
						"label": "address",
						"numberOfBytes": "20"
					},
					"t_array(t_address)dyn_storage": {
						"base": "t_address",
						"encoding": "dynamic_array",
						"label": "address[]",
						"numberOfBytes": "32"
					},
					"t_array(t_string_storage)dyn_storage": {
						"base": "t_string_storage",
						"encoding": "dynamic_array",
						"label": "string[]",
						"numberOfBytes": "32"
					},
					"t_array(t_struct(Option)8_storage)dyn_storage": {
						"base": "t_struct(Option)8_storage",
						"encoding": "dynamic_array",
						"label": "struct StructArrayInitWrong.Option[]",
						"numberOfBytes": "32"
					},
					"t_string_storage": {
						"encoding": "bytes",
						"label": "string",
						"numberOfBytes": "32"
					},
					"t_struct(Option)8_storage": {
						"encoding": "inplace",
						"label": "struct StructArrayInitWrong.Option",
						"members": [
							{
								"astId": 4,
								"contract": "contracts/shit.sol:StructArrayInitWrong",
								"label": "id",
								"offset": 0,
								"slot": "0",
								"type": "t_uint256"
							},
							{
								"astId": 7,
								"contract": "contracts/shit.sol:StructArrayInitWrong",
								"label": "name",
								"offset": 0,
								"slot": "1",
								"type": "t_array(t_string_storage)dyn_storage"
							}
						],
						"numberOfBytes": "64"
					},
					"t_uint256": {
						"encoding": "inplace",
						"label": "uint256",
						"numberOfBytes": "32"
					}
				}
			},
			"userdoc": {
				"kind": "user",
				"methods": {},
				"version": 1
			}
		}
	}
}