{
	"contracts/prop_test.sol": {
		"Ballot": {
			"abi": [
				{
					"inputs": [],
					"name": "chairperson",
					"outputs": [
						{
							"internalType": "address",
							"name": "",
							"type": "address"
						}
					],
					"stateMutability": "view",
					"type": "function"
				},
				{
					"inputs": [
						{
							"internalType": "string[]",
							"name": "proposalNames",
							"type": "string[]"
						}
					],
					"name": "createBallot",
					"outputs": [],
					"stateMutability": "nonpayable",
					"type": "function"
				},
				{
					"inputs": [],
					"name": "getEndDate",
					"outputs": [
						{
							"internalType": "uint256",
							"name": "",
							"type": "uint256"
						}
					],
					"stateMutability": "view",
					"type": "function"
				},
				{
					"inputs": [
						{
							"internalType": "uint256",
							"name": "_proposalId",
							"type": "uint256"
						}
					],
					"name": "getProposalStructure",
					"outputs": [
						{
							"components": [
								{
									"internalType": "string",
									"name": "name",
									"type": "string"
								},
								{
									"internalType": "uint256",
									"name": "voteCount",
									"type": "uint256"
								}
							],
							"internalType": "struct Ballot.Proposal",
							"name": "",
							"type": "tuple"
						}
					],
					"stateMutability": "view",
					"type": "function"
				},
				{
					"inputs": [],
					"name": "getStartDate",
					"outputs": [
						{
							"internalType": "uint256",
							"name": "",
							"type": "uint256"
						}
					],
					"stateMutability": "view",
					"type": "function"
				},
				{
					"inputs": [
						{
							"internalType": "address",
							"name": "voter",
							"type": "address"
						}
					],
					"name": "giveRightToVote",
					"outputs": [],
					"stateMutability": "nonpayable",
					"type": "function"
				},
				{
					"inputs": [],
					"name": "numOfProposals",
					"outputs": [
						{
							"internalType": "uint256",
							"name": "",
							"type": "uint256"
						}
					],
					"stateMutability": "view",
					"type": "function"
				},
				{
					"inputs": [
						{
							"internalType": "uint256",
							"name": "",
							"type": "uint256"
						}
					],
					"name": "proposals",
					"outputs": [
						{
							"internalType": "string",
							"name": "name",
							"type": "string"
						},
						{
							"internalType": "uint256",
							"name": "voteCount",
							"type": "uint256"
						}
					],
					"stateMutability": "view",
					"type": "function"
				},
				{
					"inputs": [
						{
							"internalType": "uint256",
							"name": "proposal",
							"type": "uint256"
						}
					],
					"name": "vote",
					"outputs": [],
					"stateMutability": "nonpayable",
					"type": "function"
				},
				{
					"inputs": [
						{
							"internalType": "address",
							"name": "",
							"type": "address"
						}
					],
					"name": "voters",
					"outputs": [
						{
							"internalType": "uint256",
							"name": "weight",
							"type": "uint256"
						},
						{
							"internalType": "bool",
							"name": "voted",
							"type": "bool"
						},
						{
							"internalType": "address",
							"name": "delegate",
							"type": "address"
						},
						{
							"internalType": "uint256",
							"name": "vote",
							"type": "uint256"
						}
					],
					"stateMutability": "view",
					"type": "function"
				}
			],
			"devdoc": {
				"kind": "dev",
				"methods": {},
				"version": 1
			},
			"evm": {
				"assembly": "    /* \"contracts/prop_test.sol\":60:3148  contract Ballot {\r... */\n  mstore(0x40, 0x80)\n  callvalue\n  dup1\n  iszero\n  tag_1\n  jumpi\n  0x00\n  dup1\n  revert\ntag_1:\n  pop\n  dataSize(sub_0)\n  dup1\n  dataOffset(sub_0)\n  0x00\n  codecopy\n  0x00\n  return\nstop\n\nsub_0: assembly {\n        /* \"contracts/prop_test.sol\":60:3148  contract Ballot {\r... */\n      mstore(0x40, 0x80)\n      callvalue\n      dup1\n      iszero\n      tag_1\n      jumpi\n      0x00\n      dup1\n      revert\n    tag_1:\n      pop\n      jumpi(tag_2, lt(calldatasize, 0x04))\n      shr(0xe0, calldataload(0x00))\n      dup1\n      0x836bc692\n      gt\n      tag_13\n      jumpi\n      dup1\n      0x836bc692\n      eq\n      tag_8\n      jumpi\n      dup1\n      0x9e7b8d61\n      eq\n      tag_9\n      jumpi\n      dup1\n      0xa3ec138d\n      eq\n      tag_10\n      jumpi\n      dup1\n      0xb1356488\n      eq\n      tag_11\n      jumpi\n      dup1\n      0xe9d6c6da\n      eq\n      tag_12\n      jumpi\n      jump(tag_2)\n    tag_13:\n      dup1\n      0x0121b93f\n      eq\n      tag_3\n      jumpi\n      dup1\n      0x013cf08b\n      eq\n      tag_4\n      jumpi\n      dup1\n      0x2e4176cf\n      eq\n      tag_5\n      jumpi\n      dup1\n      0x5f570253\n      eq\n      tag_6\n      jumpi\n      dup1\n      0x78f305c6\n      eq\n      tag_7\n      jumpi\n    tag_2:\n      0x00\n      dup1\n      revert\n        /* \"contracts/prop_test.sol\":2222:2611  function vote(uint proposal) public {\r... */\n    tag_3:\n      tag_14\n      0x04\n      dup1\n      calldatasize\n      sub\n      dup2\n      add\n      swap1\n      tag_15\n      swap2\n      swap1\n      tag_16\n      jump\t// in\n    tag_15:\n      tag_17\n      jump\t// in\n    tag_14:\n      stop\n        /* \"contracts/prop_test.sol\":861:888  Proposal[] public proposals */\n    tag_4:\n      tag_18\n      0x04\n      dup1\n      calldatasize\n      sub\n      dup2\n      add\n      swap1\n      tag_19\n      swap2\n      swap1\n      tag_16\n      jump\t// in\n    tag_19:\n      tag_20\n      jump\t// in\n    tag_18:\n      mload(0x40)\n      tag_21\n      swap3\n      swap2\n      swap1\n      tag_22\n      jump\t// in\n    tag_21:\n      mload(0x40)\n      dup1\n      swap2\n      sub\n      swap1\n      return\n        /* \"contracts/prop_test.sol\":85:111  address public chairperson */\n    tag_5:\n      tag_23\n      tag_24\n      jump\t// in\n    tag_23:\n      mload(0x40)\n      tag_25\n      swap2\n      swap1\n      tag_26\n      jump\t// in\n    tag_25:\n      mload(0x40)\n      dup1\n      swap2\n      sub\n      swap1\n      return\n        /* \"contracts/prop_test.sol\":176:202  uint public numOfProposals */\n    tag_6:\n      tag_27\n      tag_28\n      jump\t// in\n    tag_27:\n      mload(0x40)\n      tag_29\n      swap2\n      swap1\n      tag_30\n      jump\t// in\n    tag_29:\n      mload(0x40)\n      dup1\n      swap2\n      sub\n      swap1\n      return\n        /* \"contracts/prop_test.sol\":2885:2969  function getStartDate() public view returns(uint){\r... */\n    tag_7:\n      tag_31\n      tag_32\n      jump\t// in\n    tag_31:\n      mload(0x40)\n      tag_33\n      swap2\n      swap1\n      tag_30\n      jump\t// in\n    tag_33:\n      mload(0x40)\n      dup1\n      swap2\n      sub\n      swap1\n      return\n        /* \"contracts/prop_test.sol\":897:1624  function createBallot(string[] memory proposalNames) public {\r... */\n    tag_8:\n      tag_34\n      0x04\n      dup1\n      calldatasize\n      sub\n      dup2\n      add\n      swap1\n      tag_35\n      swap2\n      swap1\n      tag_36\n      jump\t// in\n    tag_35:\n      tag_37\n      jump\t// in\n    tag_34:\n      stop\n        /* \"contracts/prop_test.sol\":1632:2214  function giveRightToVote(address voter) public {\r... */\n    tag_9:\n      tag_38\n      0x04\n      dup1\n      calldatasize\n      sub\n      dup2\n      add\n      swap1\n      tag_39\n      swap2\n      swap1\n      tag_40\n      jump\t// in\n    tag_39:\n      tag_41\n      jump\t// in\n    tag_38:\n      stop\n        /* \"contracts/prop_test.sol\":756:795  mapping(address => Voter) public voters */\n    tag_10:\n      tag_42\n      0x04\n      dup1\n      calldatasize\n      sub\n      dup2\n      add\n      swap1\n      tag_43\n      swap2\n      swap1\n      tag_40\n      jump\t// in\n    tag_43:\n      tag_44\n      jump\t// in\n    tag_42:\n      mload(0x40)\n      tag_45\n      swap5\n      swap4\n      swap3\n      swap2\n      swap1\n      tag_46\n      jump\t// in\n    tag_45:\n      mload(0x40)\n      dup1\n      swap2\n      sub\n      swap1\n      return\n        /* \"contracts/prop_test.sol\":3059:3139  function getEndDate() public view returns(uint){\r... */\n    tag_11:\n      tag_47\n      tag_48\n      jump\t// in\n    tag_47:\n      mload(0x40)\n      tag_49\n      swap2\n      swap1\n      tag_30\n      jump\t// in\n    tag_49:\n      mload(0x40)\n      dup1\n      swap2\n      sub\n      swap1\n      return\n        /* \"contracts/prop_test.sol\":2655:2787  function getProposalStructure(uint _proposalId) public view returns(Proposal memory){\r... */\n    tag_12:\n      tag_50\n      0x04\n      dup1\n      calldatasize\n      sub\n      dup2\n      add\n      swap1\n      tag_51\n      swap2\n      swap1\n      tag_16\n      jump\t// in\n    tag_51:\n      tag_52\n      jump\t// in\n    tag_50:\n      mload(0x40)\n      tag_53\n      swap2\n      swap1\n      tag_54\n      jump\t// in\n    tag_53:\n      mload(0x40)\n      dup1\n      swap2\n      sub\n      swap1\n      return\n        /* \"contracts/prop_test.sol\":2222:2611  function vote(uint proposal) public {\r... */\n    tag_17:\n        /* \"contracts/prop_test.sol\":2269:2289  Voter storage sender */\n      0x00\n        /* \"contracts/prop_test.sol\":2292:2298  voters */\n      0x04\n        /* \"contracts/prop_test.sol\":2292:2310  voters[msg.sender] */\n      0x00\n        /* \"contracts/prop_test.sol\":2299:2309  msg.sender */\n      caller\n        /* \"contracts/prop_test.sol\":2292:2310  voters[msg.sender] */\n      0xffffffffffffffffffffffffffffffffffffffff\n      and\n      0xffffffffffffffffffffffffffffffffffffffff\n      and\n      dup2\n      mstore\n      0x20\n      add\n      swap1\n      dup2\n      mstore\n      0x20\n      add\n      0x00\n      keccak256\n        /* \"contracts/prop_test.sol\":2269:2310  Voter storage sender = voters[msg.sender] */\n      swap1\n      pop\n        /* \"contracts/prop_test.sol\":2330:2336  sender */\n      dup1\n        /* \"contracts/prop_test.sol\":2330:2342  sender.voted */\n      0x01\n      add\n      0x00\n      swap1\n      sload\n      swap1\n      0x0100\n      exp\n      swap1\n      div\n      0xff\n      and\n        /* \"contracts/prop_test.sol\":2329:2342  !sender.voted */\n      iszero\n        /* \"contracts/prop_test.sol\":2321:2343  require(!sender.voted) */\n      tag_56\n      jumpi\n      0x00\n      dup1\n      revert\n    tag_56:\n        /* \"contracts/prop_test.sol\":2369:2373  true */\n      0x01\n        /* \"contracts/prop_test.sol\":2354:2360  sender */\n      dup2\n        /* \"contracts/prop_test.sol\":2354:2366  sender.voted */\n      0x01\n      add\n      0x00\n        /* \"contracts/prop_test.sol\":2354:2373  sender.voted = true */\n      0x0100\n      exp\n      dup2\n      sload\n      dup2\n      0xff\n      mul\n      not\n      and\n      swap1\n      dup4\n      iszero\n      iszero\n      mul\n      or\n      swap1\n      sstore\n      pop\n        /* \"contracts/prop_test.sol\":2398:2406  proposal */\n      dup2\n        /* \"contracts/prop_test.sol\":2384:2390  sender */\n      dup2\n        /* \"contracts/prop_test.sol\":2384:2395  sender.vote */\n      0x02\n      add\n        /* \"contracts/prop_test.sol\":2384:2406  sender.vote = proposal */\n      dup2\n      swap1\n      sstore\n      pop\n        /* \"contracts/prop_test.sol\":2590:2596  sender */\n      dup1\n        /* \"contracts/prop_test.sol\":2590:2603  sender.weight */\n      0x00\n      add\n      sload\n        /* \"contracts/prop_test.sol\":2557:2566  proposals */\n      0x05\n        /* \"contracts/prop_test.sol\":2567:2575  proposal */\n      dup4\n        /* \"contracts/prop_test.sol\":2557:2576  proposals[proposal] */\n      dup2\n      sload\n      dup2\n      lt\n      tag_57\n      jumpi\n      mstore(0x00, 0x4e487b7100000000000000000000000000000000000000000000000000000000)\n      mstore(0x04, 0x32)\n      revert(0x00, 0x24)\n    tag_57:\n      swap1\n      0x00\n      mstore\n      keccak256(0x00, 0x20)\n      swap1\n      0x02\n      mul\n      add\n        /* \"contracts/prop_test.sol\":2557:2586  proposals[proposal].voteCount */\n      0x01\n      add\n      0x00\n        /* \"contracts/prop_test.sol\":2557:2603  proposals[proposal].voteCount += sender.weight */\n      dup3\n      dup3\n      sload\n      tag_59\n      swap2\n      swap1\n      tag_60\n      jump\t// in\n    tag_59:\n      swap3\n      pop\n      pop\n      dup2\n      swap1\n      sstore\n      pop\n        /* \"contracts/prop_test.sol\":2222:2611  function vote(uint proposal) public {\r... */\n      pop\n      pop\n      jump\t// out\n        /* \"contracts/prop_test.sol\":861:888  Proposal[] public proposals */\n    tag_20:\n      0x05\n      dup2\n      dup2\n      sload\n      dup2\n      lt\n      tag_61\n      jumpi\n      0x00\n      dup1\n      revert\n    tag_61:\n      swap1\n      0x00\n      mstore\n      keccak256(0x00, 0x20)\n      swap1\n      0x02\n      mul\n      add\n      0x00\n      swap2\n      pop\n      swap1\n      pop\n      dup1\n      0x00\n      add\n      dup1\n      sload\n      tag_63\n      swap1\n      tag_64\n      jump\t// in\n    tag_63:\n      dup1\n      0x1f\n      add\n      0x20\n      dup1\n      swap2\n      div\n      mul\n      0x20\n      add\n      mload(0x40)\n      swap1\n      dup2\n      add\n      0x40\n      mstore\n      dup1\n      swap3\n      swap2\n      swap1\n      dup2\n      dup2\n      mstore\n      0x20\n      add\n      dup3\n      dup1\n      sload\n      tag_65\n      swap1\n      tag_64\n      jump\t// in\n    tag_65:\n      dup1\n      iszero\n      tag_66\n      jumpi\n      dup1\n      0x1f\n      lt\n      tag_67\n      jumpi\n      0x0100\n      dup1\n      dup4\n      sload\n      div\n      mul\n      dup4\n      mstore\n      swap2\n      0x20\n      add\n      swap2\n      jump(tag_66)\n    tag_67:\n      dup3\n      add\n      swap2\n      swap1\n      0x00\n      mstore\n      keccak256(0x00, 0x20)\n      swap1\n    tag_68:\n      dup2\n      sload\n      dup2\n      mstore\n      swap1\n      0x01\n      add\n      swap1\n      0x20\n      add\n      dup1\n      dup4\n      gt\n      tag_68\n      jumpi\n      dup3\n      swap1\n      sub\n      0x1f\n      and\n      dup3\n      add\n      swap2\n    tag_66:\n      pop\n      pop\n      pop\n      pop\n      pop\n      swap1\n      dup1\n      0x01\n      add\n      sload\n      swap1\n      pop\n      dup3\n      jump\t// out\n        /* \"contracts/prop_test.sol\":85:111  address public chairperson */\n    tag_24:\n      0x00\n      dup1\n      sload\n      swap1\n      0x0100\n      exp\n      swap1\n      div\n      0xffffffffffffffffffffffffffffffffffffffff\n      and\n      dup2\n      jump\t// out\n        /* \"contracts/prop_test.sol\":176:202  uint public numOfProposals */\n    tag_28:\n      sload(0x03)\n      dup2\n      jump\t// out\n        /* \"contracts/prop_test.sol\":2885:2969  function getStartDate() public view returns(uint){\r... */\n    tag_32:\n        /* \"contracts/prop_test.sol\":2929:2933  uint */\n      0x00\n        /* \"contracts/prop_test.sol\":2952:2961  startDate */\n      sload(0x01)\n        /* \"contracts/prop_test.sol\":2945:2961  return startDate */\n      swap1\n      pop\n        /* \"contracts/prop_test.sol\":2885:2969  function getStartDate() public view returns(uint){\r... */\n      swap1\n      jump\t// out\n        /* \"contracts/prop_test.sol\":897:1624  function createBallot(string[] memory proposalNames) public {\r... */\n    tag_37:\n        /* \"contracts/prop_test.sol\":982:992  msg.sender */\n      caller\n        /* \"contracts/prop_test.sol\":968:979  chairperson */\n      0x00\n      dup1\n        /* \"contracts/prop_test.sol\":968:992  chairperson = msg.sender */\n      0x0100\n      exp\n      dup2\n      sload\n      dup2\n      0xffffffffffffffffffffffffffffffffffffffff\n      mul\n      not\n      and\n      swap1\n      dup4\n      0xffffffffffffffffffffffffffffffffffffffff\n      and\n      mul\n      or\n      swap1\n      sstore\n      pop\n        /* \"contracts/prop_test.sol\":1032:1033  1 */\n      0x01\n        /* \"contracts/prop_test.sol\":1003:1009  voters */\n      0x04\n        /* \"contracts/prop_test.sol\":1003:1022  voters[chairperson] */\n      0x00\n        /* \"contracts/prop_test.sol\":1010:1021  chairperson */\n      dup1\n      0x00\n      swap1\n      sload\n      swap1\n      0x0100\n      exp\n      swap1\n      div\n      0xffffffffffffffffffffffffffffffffffffffff\n      and\n        /* \"contracts/prop_test.sol\":1003:1022  voters[chairperson] */\n      0xffffffffffffffffffffffffffffffffffffffff\n      and\n      0xffffffffffffffffffffffffffffffffffffffff\n      and\n      dup2\n      mstore\n      0x20\n      add\n      swap1\n      dup2\n      mstore\n      0x20\n      add\n      0x00\n      keccak256\n        /* \"contracts/prop_test.sol\":1003:1029  voters[chairperson].weight */\n      0x00\n      add\n        /* \"contracts/prop_test.sol\":1003:1033  voters[chairperson].weight = 1 */\n      dup2\n      swap1\n      sstore\n      pop\n        /* \"contracts/prop_test.sol\":1046:1060  setStartDate() */\n      tag_71\n        /* \"contracts/prop_test.sol\":1046:1058  setStartDate */\n      tag_72\n        /* \"contracts/prop_test.sol\":1046:1060  setStartDate() */\n      jump\t// in\n    tag_71:\n        /* \"contracts/prop_test.sol\":1088:1101  proposalNames */\n      dup1\n        /* \"contracts/prop_test.sol\":1088:1108  proposalNames.length */\n      mload\n        /* \"contracts/prop_test.sol\":1071:1085  numOfProposals */\n      0x03\n        /* \"contracts/prop_test.sol\":1071:1108  numOfProposals = proposalNames.length */\n      dup2\n      swap1\n      sstore\n      pop\n        /* \"contracts/prop_test.sol\":1268:1274  uint i */\n      0x00\n        /* \"contracts/prop_test.sol\":1263:1617  for (uint i = 0; i < proposalNames.length; i++) {\r... */\n    tag_73:\n        /* \"contracts/prop_test.sol\":1284:1297  proposalNames */\n      dup2\n        /* \"contracts/prop_test.sol\":1284:1304  proposalNames.length */\n      mload\n        /* \"contracts/prop_test.sol\":1280:1281  i */\n      dup2\n        /* \"contracts/prop_test.sol\":1280:1304  i < proposalNames.length */\n      lt\n        /* \"contracts/prop_test.sol\":1263:1617  for (uint i = 0; i < proposalNames.length; i++) {\r... */\n      iszero\n      tag_74\n      jumpi\n        /* \"contracts/prop_test.sol\":1492:1501  proposals */\n      0x05\n        /* \"contracts/prop_test.sol\":1507:1604  Proposal({\r... */\n      mload(0x40)\n      dup1\n      0x40\n      add\n      0x40\n      mstore\n      dup1\n        /* \"contracts/prop_test.sol\":1541:1554  proposalNames */\n      dup5\n        /* \"contracts/prop_test.sol\":1555:1556  i */\n      dup5\n        /* \"contracts/prop_test.sol\":1541:1557  proposalNames[i] */\n      dup2\n      mload\n      dup2\n      lt\n      tag_76\n      jumpi\n      mstore(0x00, 0x4e487b7100000000000000000000000000000000000000000000000000000000)\n      mstore(0x04, 0x32)\n      revert(0x00, 0x24)\n    tag_76:\n      0x20\n      mul\n      0x20\n      add\n      add\n      mload\n        /* \"contracts/prop_test.sol\":1507:1604  Proposal({\r... */\n      dup2\n      mstore\n      0x20\n      add\n        /* \"contracts/prop_test.sol\":1587:1588  0 */\n      0x00\n        /* \"contracts/prop_test.sol\":1507:1604  Proposal({\r... */\n      dup2\n      mstore\n      pop\n        /* \"contracts/prop_test.sol\":1492:1605  proposals.push(Proposal({\r... */\n      swap1\n      dup1\n      0x01\n      dup2\n      sload\n      add\n      dup1\n      dup3\n      sstore\n      dup1\n      swap2\n      pop\n      pop\n      0x01\n      swap1\n      sub\n      swap1\n      0x00\n      mstore\n      keccak256(0x00, 0x20)\n      swap1\n      0x02\n      mul\n      add\n      0x00\n      swap1\n      swap2\n      swap1\n      swap2\n      swap1\n      swap2\n      pop\n      0x00\n      dup3\n      add\n      mload\n      dup2\n      0x00\n      add\n      swap1\n      dup1\n      mload\n      swap1\n      0x20\n      add\n      swap1\n      tag_78\n      swap3\n      swap2\n      swap1\n      tag_79\n      jump\t// in\n    tag_78:\n      pop\n      0x20\n      dup3\n      add\n      mload\n      dup2\n      0x01\n      add\n      sstore\n      pop\n      pop\n        /* \"contracts/prop_test.sol\":1306:1309  i++ */\n      dup1\n      dup1\n      tag_80\n      swap1\n      tag_81\n      jump\t// in\n    tag_80:\n      swap2\n      pop\n      pop\n        /* \"contracts/prop_test.sol\":1263:1617  for (uint i = 0; i < proposalNames.length; i++) {\r... */\n      jump(tag_73)\n    tag_74:\n      pop\n        /* \"contracts/prop_test.sol\":897:1624  function createBallot(string[] memory proposalNames) public {\r... */\n      pop\n      jump\t// out\n        /* \"contracts/prop_test.sol\":1632:2214  function giveRightToVote(address voter) public {\r... */\n    tag_41:\n        /* \"contracts/prop_test.sol\":2103:2114  chairperson */\n      0x00\n      dup1\n      sload\n      swap1\n      0x0100\n      exp\n      swap1\n      div\n      0xffffffffffffffffffffffffffffffffffffffff\n      and\n        /* \"contracts/prop_test.sol\":2089:2114  msg.sender == chairperson */\n      0xffffffffffffffffffffffffffffffffffffffff\n      and\n        /* \"contracts/prop_test.sol\":2089:2099  msg.sender */\n      caller\n        /* \"contracts/prop_test.sol\":2089:2114  msg.sender == chairperson */\n      0xffffffffffffffffffffffffffffffffffffffff\n      and\n      eq\n        /* \"contracts/prop_test.sol\":2088:2139  (msg.sender == chairperson) && !voters[voter].voted */\n      dup1\n      iszero\n      tag_83\n      jumpi\n      pop\n        /* \"contracts/prop_test.sol\":2120:2126  voters */\n      0x04\n        /* \"contracts/prop_test.sol\":2120:2133  voters[voter] */\n      0x00\n        /* \"contracts/prop_test.sol\":2127:2132  voter */\n      dup3\n        /* \"contracts/prop_test.sol\":2120:2133  voters[voter] */\n      0xffffffffffffffffffffffffffffffffffffffff\n      and\n      0xffffffffffffffffffffffffffffffffffffffff\n      and\n      dup2\n      mstore\n      0x20\n      add\n      swap1\n      dup2\n      mstore\n      0x20\n      add\n      0x00\n      keccak256\n        /* \"contracts/prop_test.sol\":2120:2139  voters[voter].voted */\n      0x01\n      add\n      0x00\n      swap1\n      sload\n      swap1\n      0x0100\n      exp\n      swap1\n      div\n      0xff\n      and\n        /* \"contracts/prop_test.sol\":2119:2139  !voters[voter].voted */\n      iszero\n        /* \"contracts/prop_test.sol\":2088:2139  (msg.sender == chairperson) && !voters[voter].voted */\n    tag_83:\n        /* \"contracts/prop_test.sol\":2088:2170  (msg.sender == chairperson) && !voters[voter].voted && (voters[voter].weight == 0) */\n      dup1\n      iszero\n      tag_84\n      jumpi\n      pop\n        /* \"contracts/prop_test.sol\":2168:2169  0 */\n      0x00\n        /* \"contracts/prop_test.sol\":2144:2150  voters */\n      0x04\n        /* \"contracts/prop_test.sol\":2144:2157  voters[voter] */\n      0x00\n        /* \"contracts/prop_test.sol\":2151:2156  voter */\n      dup4\n        /* \"contracts/prop_test.sol\":2144:2157  voters[voter] */\n      0xffffffffffffffffffffffffffffffffffffffff\n      and\n      0xffffffffffffffffffffffffffffffffffffffff\n      and\n      dup2\n      mstore\n      0x20\n      add\n      swap1\n      dup2\n      mstore\n      0x20\n      add\n      0x00\n      keccak256\n        /* \"contracts/prop_test.sol\":2144:2164  voters[voter].weight */\n      0x00\n      add\n      sload\n        /* \"contracts/prop_test.sol\":2144:2169  voters[voter].weight == 0 */\n      eq\n        /* \"contracts/prop_test.sol\":2088:2170  (msg.sender == chairperson) && !voters[voter].voted && (voters[voter].weight == 0) */\n    tag_84:\n        /* \"contracts/prop_test.sol\":2080:2171  require((msg.sender == chairperson) && !voters[voter].voted && (voters[voter].weight == 0)) */\n      tag_85\n      jumpi\n      0x00\n      dup1\n      revert\n    tag_85:\n        /* \"contracts/prop_test.sol\":2205:2206  1 */\n      0x01\n        /* \"contracts/prop_test.sol\":2182:2188  voters */\n      0x04\n        /* \"contracts/prop_test.sol\":2182:2195  voters[voter] */\n      0x00\n        /* \"contracts/prop_test.sol\":2189:2194  voter */\n      dup4\n        /* \"contracts/prop_test.sol\":2182:2195  voters[voter] */\n      0xffffffffffffffffffffffffffffffffffffffff\n      and\n      0xffffffffffffffffffffffffffffffffffffffff\n      and\n      dup2\n      mstore\n      0x20\n      add\n      swap1\n      dup2\n      mstore\n      0x20\n      add\n      0x00\n      keccak256\n        /* \"contracts/prop_test.sol\":2182:2202  voters[voter].weight */\n      0x00\n      add\n        /* \"contracts/prop_test.sol\":2182:2206  voters[voter].weight = 1 */\n      dup2\n      swap1\n      sstore\n      pop\n        /* \"contracts/prop_test.sol\":1632:2214  function giveRightToVote(address voter) public {\r... */\n      pop\n      jump\t// out\n        /* \"contracts/prop_test.sol\":756:795  mapping(address => Voter) public voters */\n    tag_44:\n      mstore(0x20, 0x04)\n      dup1\n      0x00\n      mstore\n      keccak256(0x00, 0x40)\n      0x00\n      swap2\n      pop\n      swap1\n      pop\n      dup1\n      0x00\n      add\n      sload\n      swap1\n      dup1\n      0x01\n      add\n      0x00\n      swap1\n      sload\n      swap1\n      0x0100\n      exp\n      swap1\n      div\n      0xff\n      and\n      swap1\n      dup1\n      0x01\n      add\n      0x01\n      swap1\n      sload\n      swap1\n      0x0100\n      exp\n      swap1\n      div\n      0xffffffffffffffffffffffffffffffffffffffff\n      and\n      swap1\n      dup1\n      0x02\n      add\n      sload\n      swap1\n      pop\n      dup5\n      jump\t// out\n        /* \"contracts/prop_test.sol\":3059:3139  function getEndDate() public view returns(uint){\r... */\n    tag_48:\n        /* \"contracts/prop_test.sol\":3101:3105  uint */\n      0x00\n        /* \"contracts/prop_test.sol\":3124:3131  endDate */\n      sload(0x02)\n        /* \"contracts/prop_test.sol\":3117:3131  return endDate */\n      swap1\n      pop\n        /* \"contracts/prop_test.sol\":3059:3139  function getEndDate() public view returns(uint){\r... */\n      swap1\n      jump\t// out\n        /* \"contracts/prop_test.sol\":2655:2787  function getProposalStructure(uint _proposalId) public view returns(Proposal memory){\r... */\n    tag_52:\n        /* \"contracts/prop_test.sol\":2723:2738  Proposal memory */\n      tag_87\n      tag_88\n      jump\t// in\n    tag_87:\n        /* \"contracts/prop_test.sol\":2757:2766  proposals */\n      0x05\n        /* \"contracts/prop_test.sol\":2767:2778  _proposalId */\n      dup3\n        /* \"contracts/prop_test.sol\":2757:2779  proposals[_proposalId] */\n      dup2\n      sload\n      dup2\n      lt\n      tag_90\n      jumpi\n      mstore(0x00, 0x4e487b7100000000000000000000000000000000000000000000000000000000)\n      mstore(0x04, 0x32)\n      revert(0x00, 0x24)\n    tag_90:\n      swap1\n      0x00\n      mstore\n      keccak256(0x00, 0x20)\n      swap1\n      0x02\n      mul\n      add\n        /* \"contracts/prop_test.sol\":2750:2779  return proposals[_proposalId] */\n      mload(0x40)\n      dup1\n      0x40\n      add\n      0x40\n      mstore\n      swap1\n      dup2\n      0x00\n      dup3\n      add\n      dup1\n      sload\n      tag_92\n      swap1\n      tag_64\n      jump\t// in\n    tag_92:\n      dup1\n      0x1f\n      add\n      0x20\n      dup1\n      swap2\n      div\n      mul\n      0x20\n      add\n      mload(0x40)\n      swap1\n      dup2\n      add\n      0x40\n      mstore\n      dup1\n      swap3\n      swap2\n      swap1\n      dup2\n      dup2\n      mstore\n      0x20\n      add\n      dup3\n      dup1\n      sload\n      tag_93\n      swap1\n      tag_64\n      jump\t// in\n    tag_93:\n      dup1\n      iszero\n      tag_94\n      jumpi\n      dup1\n      0x1f\n      lt\n      tag_95\n      jumpi\n      0x0100\n      dup1\n      dup4\n      sload\n      div\n      mul\n      dup4\n      mstore\n      swap2\n      0x20\n      add\n      swap2\n      jump(tag_94)\n    tag_95:\n      dup3\n      add\n      swap2\n      swap1\n      0x00\n      mstore\n      keccak256(0x00, 0x20)\n      swap1\n    tag_96:\n      dup2\n      sload\n      dup2\n      mstore\n      swap1\n      0x01\n      add\n      swap1\n      0x20\n      add\n      dup1\n      dup4\n      gt\n      tag_96\n      jumpi\n      dup3\n      swap1\n      sub\n      0x1f\n      and\n      dup3\n      add\n      swap2\n    tag_94:\n      pop\n      pop\n      pop\n      pop\n      pop\n      dup2\n      mstore\n      0x20\n      add\n      0x01\n      dup3\n      add\n      sload\n      dup2\n      mstore\n      pop\n      pop\n      swap1\n      pop\n        /* \"contracts/prop_test.sol\":2655:2787  function getProposalStructure(uint _proposalId) public view returns(Proposal memory){\r... */\n      swap2\n      swap1\n      pop\n      jump\t// out\n        /* \"contracts/prop_test.sol\":2795:2873  function setStartDate() internal{\r... */\n    tag_72:\n        /* \"contracts/prop_test.sol\":2850:2865  block.timestamp */\n      timestamp\n        /* \"contracts/prop_test.sol\":2838:2847  startDate */\n      0x01\n        /* \"contracts/prop_test.sol\":2838:2865  startDate = block.timestamp */\n      dup2\n      swap1\n      sstore\n      pop\n        /* \"contracts/prop_test.sol\":2795:2873  function setStartDate() internal{\r... */\n      jump\t// out\n    tag_79:\n      dup3\n      dup1\n      sload\n      tag_98\n      swap1\n      tag_64\n      jump\t// in\n    tag_98:\n      swap1\n      0x00\n      mstore\n      keccak256(0x00, 0x20)\n      swap1\n      0x1f\n      add\n      0x20\n      swap1\n      div\n      dup2\n      add\n      swap3\n      dup3\n      tag_100\n      jumpi\n      0x00\n      dup6\n      sstore\n      jump(tag_99)\n    tag_100:\n      dup3\n      0x1f\n      lt\n      tag_101\n      jumpi\n      dup1\n      mload\n      not(0xff)\n      and\n      dup4\n      dup1\n      add\n      or\n      dup6\n      sstore\n      jump(tag_99)\n    tag_101:\n      dup3\n      dup1\n      add\n      0x01\n      add\n      dup6\n      sstore\n      dup3\n      iszero\n      tag_99\n      jumpi\n      swap2\n      dup3\n      add\n    tag_102:\n      dup3\n      dup2\n      gt\n      iszero\n      tag_103\n      jumpi\n      dup3\n      mload\n      dup3\n      sstore\n      swap2\n      0x20\n      add\n      swap2\n      swap1\n      0x01\n      add\n      swap1\n      jump(tag_102)\n    tag_103:\n    tag_99:\n      pop\n      swap1\n      pop\n      tag_104\n      swap2\n      swap1\n      tag_105\n      jump\t// in\n    tag_104:\n      pop\n      swap1\n      jump\t// out\n    tag_88:\n      mload(0x40)\n      dup1\n      0x40\n      add\n      0x40\n      mstore\n      dup1\n      0x60\n      dup2\n      mstore\n      0x20\n      add\n      0x00\n      dup2\n      mstore\n      pop\n      swap1\n      jump\t// out\n    tag_105:\n    tag_106:\n      dup1\n      dup3\n      gt\n      iszero\n      tag_107\n      jumpi\n      0x00\n      dup2\n      0x00\n      swap1\n      sstore\n      pop\n      0x01\n      add\n      jump(tag_106)\n    tag_107:\n      pop\n      swap1\n      jump\t// out\n        /* \"#utility.yul\":23:638   */\n    tag_109:\n      0x00\n        /* \"#utility.yul\":154:244   */\n      tag_111\n        /* \"#utility.yul\":169:243   */\n      tag_112\n        /* \"#utility.yul\":236:242   */\n      dup5\n        /* \"#utility.yul\":169:243   */\n      tag_113\n      jump\t// in\n    tag_112:\n        /* \"#utility.yul\":154:244   */\n      tag_114\n      jump\t// in\n    tag_111:\n        /* \"#utility.yul\":145:244   */\n      swap1\n      pop\n        /* \"#utility.yul\":264:269   */\n      dup1\n        /* \"#utility.yul\":292:298   */\n      dup4\n        /* \"#utility.yul\":285:290   */\n      dup3\n        /* \"#utility.yul\":278:299   */\n      mstore\n        /* \"#utility.yul\":318:322   */\n      0x20\n        /* \"#utility.yul\":311:316   */\n      dup3\n        /* \"#utility.yul\":307:323   */\n      add\n        /* \"#utility.yul\":300:323   */\n      swap1\n      pop\n        /* \"#utility.yul\":343:349   */\n      dup3\n        /* \"#utility.yul\":374:375   */\n      0x00\n        /* \"#utility.yul\":359:632   */\n    tag_115:\n        /* \"#utility.yul\":384:390   */\n      dup6\n        /* \"#utility.yul\":381:382   */\n      dup2\n        /* \"#utility.yul\":378:391   */\n      lt\n        /* \"#utility.yul\":359:632   */\n      iszero\n      tag_117\n      jumpi\n        /* \"#utility.yul\":476:479   */\n      dup2\n        /* \"#utility.yul\":463:480   */\n      calldataload\n        /* \"#utility.yul\":455:461   */\n      dup6\n        /* \"#utility.yul\":451:481   */\n      add\n        /* \"#utility.yul\":506:553   */\n      tag_118\n        /* \"#utility.yul\":549:552   */\n      dup9\n        /* \"#utility.yul\":537:547   */\n      dup3\n        /* \"#utility.yul\":506:553   */\n      tag_119\n      jump\t// in\n    tag_118:\n        /* \"#utility.yul\":501:504   */\n      dup5\n        /* \"#utility.yul\":494:554   */\n      mstore\n        /* \"#utility.yul\":583:587   */\n      0x20\n        /* \"#utility.yul\":578:581   */\n      dup5\n        /* \"#utility.yul\":574:588   */\n      add\n        /* \"#utility.yul\":567:588   */\n      swap4\n      pop\n        /* \"#utility.yul\":617:621   */\n      0x20\n        /* \"#utility.yul\":612:615   */\n      dup4\n        /* \"#utility.yul\":608:622   */\n      add\n        /* \"#utility.yul\":601:622   */\n      swap3\n      pop\n        /* \"#utility.yul\":419:632   */\n      pop\n        /* \"#utility.yul\":406:407   */\n      0x01\n        /* \"#utility.yul\":403:404   */\n      dup2\n        /* \"#utility.yul\":399:408   */\n      add\n        /* \"#utility.yul\":394:408   */\n      swap1\n      pop\n        /* \"#utility.yul\":359:632   */\n      jump(tag_115)\n    tag_117:\n        /* \"#utility.yul\":363:377   */\n      pop\n        /* \"#utility.yul\":135:638   */\n      pop\n      pop\n      swap4\n      swap3\n      pop\n      pop\n      pop\n      jump\t// out\n        /* \"#utility.yul\":644:988   */\n    tag_120:\n      0x00\n        /* \"#utility.yul\":747:812   */\n      tag_122\n        /* \"#utility.yul\":762:811   */\n      tag_123\n        /* \"#utility.yul\":804:810   */\n      dup5\n        /* \"#utility.yul\":762:811   */\n      tag_124\n      jump\t// in\n    tag_123:\n        /* \"#utility.yul\":747:812   */\n      tag_114\n      jump\t// in\n    tag_122:\n        /* \"#utility.yul\":738:812   */\n      swap1\n      pop\n        /* \"#utility.yul\":835:841   */\n      dup3\n        /* \"#utility.yul\":828:833   */\n      dup2\n        /* \"#utility.yul\":821:842   */\n      mstore\n        /* \"#utility.yul\":873:877   */\n      0x20\n        /* \"#utility.yul\":866:871   */\n      dup2\n        /* \"#utility.yul\":862:878   */\n      add\n        /* \"#utility.yul\":911:914   */\n      dup5\n        /* \"#utility.yul\":902:908   */\n      dup5\n        /* \"#utility.yul\":897:900   */\n      dup5\n        /* \"#utility.yul\":893:909   */\n      add\n        /* \"#utility.yul\":890:915   */\n      gt\n        /* \"#utility.yul\":887:889   */\n      iszero\n      tag_125\n      jumpi\n        /* \"#utility.yul\":928:929   */\n      0x00\n        /* \"#utility.yul\":925:926   */\n      dup1\n        /* \"#utility.yul\":918:930   */\n      revert\n        /* \"#utility.yul\":887:889   */\n    tag_125:\n        /* \"#utility.yul\":941:982   */\n      tag_126\n        /* \"#utility.yul\":975:981   */\n      dup5\n        /* \"#utility.yul\":970:973   */\n      dup3\n        /* \"#utility.yul\":965:968   */\n      dup6\n        /* \"#utility.yul\":941:982   */\n      tag_127\n      jump\t// in\n    tag_126:\n        /* \"#utility.yul\":728:988   */\n      pop\n      swap4\n      swap3\n      pop\n      pop\n      pop\n      jump\t// out\n        /* \"#utility.yul\":994:1133   */\n    tag_128:\n      0x00\n        /* \"#utility.yul\":1078:1084   */\n      dup2\n        /* \"#utility.yul\":1065:1085   */\n      calldataload\n        /* \"#utility.yul\":1056:1085   */\n      swap1\n      pop\n        /* \"#utility.yul\":1094:1127   */\n      tag_130\n        /* \"#utility.yul\":1121:1126   */\n      dup2\n        /* \"#utility.yul\":1094:1127   */\n      tag_131\n      jump\t// in\n    tag_130:\n        /* \"#utility.yul\":1046:1133   */\n      swap3\n      swap2\n      pop\n      pop\n      jump\t// out\n        /* \"#utility.yul\":1155:1478   */\n    tag_132:\n      0x00\n        /* \"#utility.yul\":1285:1288   */\n      dup3\n        /* \"#utility.yul\":1278:1282   */\n      0x1f\n        /* \"#utility.yul\":1270:1276   */\n      dup4\n        /* \"#utility.yul\":1266:1283   */\n      add\n        /* \"#utility.yul\":1262:1289   */\n      slt\n        /* \"#utility.yul\":1252:1254   */\n      tag_134\n      jumpi\n        /* \"#utility.yul\":1303:1304   */\n      0x00\n        /* \"#utility.yul\":1300:1301   */\n      dup1\n        /* \"#utility.yul\":1293:1305   */\n      revert\n        /* \"#utility.yul\":1252:1254   */\n    tag_134:\n        /* \"#utility.yul\":1343:1349   */\n      dup2\n        /* \"#utility.yul\":1330:1350   */\n      calldataload\n        /* \"#utility.yul\":1368:1472   */\n      tag_135\n        /* \"#utility.yul\":1468:1471   */\n      dup5\n        /* \"#utility.yul\":1460:1466   */\n      dup3\n        /* \"#utility.yul\":1453:1457   */\n      0x20\n        /* \"#utility.yul\":1445:1451   */\n      dup7\n        /* \"#utility.yul\":1441:1458   */\n      add\n        /* \"#utility.yul\":1368:1472   */\n      tag_109\n      jump\t// in\n    tag_135:\n        /* \"#utility.yul\":1359:1472   */\n      swap2\n      pop\n        /* \"#utility.yul\":1242:1478   */\n      pop\n      swap3\n      swap2\n      pop\n      pop\n      jump\t// out\n        /* \"#utility.yul\":1498:1771   */\n    tag_119:\n      0x00\n        /* \"#utility.yul\":1603:1606   */\n      dup3\n        /* \"#utility.yul\":1596:1600   */\n      0x1f\n        /* \"#utility.yul\":1588:1594   */\n      dup4\n        /* \"#utility.yul\":1584:1601   */\n      add\n        /* \"#utility.yul\":1580:1607   */\n      slt\n        /* \"#utility.yul\":1570:1572   */\n      tag_137\n      jumpi\n        /* \"#utility.yul\":1621:1622   */\n      0x00\n        /* \"#utility.yul\":1618:1619   */\n      dup1\n        /* \"#utility.yul\":1611:1623   */\n      revert\n        /* \"#utility.yul\":1570:1572   */\n    tag_137:\n        /* \"#utility.yul\":1661:1667   */\n      dup2\n        /* \"#utility.yul\":1648:1668   */\n      calldataload\n        /* \"#utility.yul\":1686:1765   */\n      tag_138\n        /* \"#utility.yul\":1761:1764   */\n      dup5\n        /* \"#utility.yul\":1753:1759   */\n      dup3\n        /* \"#utility.yul\":1746:1750   */\n      0x20\n        /* \"#utility.yul\":1738:1744   */\n      dup7\n        /* \"#utility.yul\":1734:1751   */\n      add\n        /* \"#utility.yul\":1686:1765   */\n      tag_120\n      jump\t// in\n    tag_138:\n        /* \"#utility.yul\":1677:1765   */\n      swap2\n      pop\n        /* \"#utility.yul\":1560:1771   */\n      pop\n      swap3\n      swap2\n      pop\n      pop\n      jump\t// out\n        /* \"#utility.yul\":1777:1916   */\n    tag_139:\n      0x00\n        /* \"#utility.yul\":1861:1867   */\n      dup2\n        /* \"#utility.yul\":1848:1868   */\n      calldataload\n        /* \"#utility.yul\":1839:1868   */\n      swap1\n      pop\n        /* \"#utility.yul\":1877:1910   */\n      tag_141\n        /* \"#utility.yul\":1904:1909   */\n      dup2\n        /* \"#utility.yul\":1877:1910   */\n      tag_142\n      jump\t// in\n    tag_141:\n        /* \"#utility.yul\":1829:1916   */\n      swap3\n      swap2\n      pop\n      pop\n      jump\t// out\n        /* \"#utility.yul\":1922:2184   */\n    tag_40:\n      0x00\n        /* \"#utility.yul\":2030:2032   */\n      0x20\n        /* \"#utility.yul\":2018:2027   */\n      dup3\n        /* \"#utility.yul\":2009:2016   */\n      dup5\n        /* \"#utility.yul\":2005:2028   */\n      sub\n        /* \"#utility.yul\":2001:2033   */\n      slt\n        /* \"#utility.yul\":1998:2000   */\n      iszero\n      tag_144\n      jumpi\n        /* \"#utility.yul\":2046:2047   */\n      0x00\n        /* \"#utility.yul\":2043:2044   */\n      dup1\n        /* \"#utility.yul\":2036:2048   */\n      revert\n        /* \"#utility.yul\":1998:2000   */\n    tag_144:\n        /* \"#utility.yul\":2089:2090   */\n      0x00\n        /* \"#utility.yul\":2114:2167   */\n      tag_145\n        /* \"#utility.yul\":2159:2166   */\n      dup5\n        /* \"#utility.yul\":2150:2156   */\n      dup3\n        /* \"#utility.yul\":2139:2148   */\n      dup6\n        /* \"#utility.yul\":2135:2157   */\n      add\n        /* \"#utility.yul\":2114:2167   */\n      tag_128\n      jump\t// in\n    tag_145:\n        /* \"#utility.yul\":2104:2167   */\n      swap2\n      pop\n        /* \"#utility.yul\":2060:2177   */\n      pop\n        /* \"#utility.yul\":1988:2184   */\n      swap3\n      swap2\n      pop\n      pop\n      jump\t// out\n        /* \"#utility.yul\":2190:2615   */\n    tag_36:\n      0x00\n        /* \"#utility.yul\":2333:2335   */\n      0x20\n        /* \"#utility.yul\":2321:2330   */\n      dup3\n        /* \"#utility.yul\":2312:2319   */\n      dup5\n        /* \"#utility.yul\":2308:2331   */\n      sub\n        /* \"#utility.yul\":2304:2336   */\n      slt\n        /* \"#utility.yul\":2301:2303   */\n      iszero\n      tag_147\n      jumpi\n        /* \"#utility.yul\":2349:2350   */\n      0x00\n        /* \"#utility.yul\":2346:2347   */\n      dup1\n        /* \"#utility.yul\":2339:2351   */\n      revert\n        /* \"#utility.yul\":2301:2303   */\n    tag_147:\n        /* \"#utility.yul\":2420:2421   */\n      0x00\n        /* \"#utility.yul\":2409:2418   */\n      dup3\n        /* \"#utility.yul\":2405:2422   */\n      add\n        /* \"#utility.yul\":2392:2423   */\n      calldataload\n        /* \"#utility.yul\":2450:2468   */\n      0xffffffffffffffff\n        /* \"#utility.yul\":2442:2448   */\n      dup2\n        /* \"#utility.yul\":2439:2469   */\n      gt\n        /* \"#utility.yul\":2436:2438   */\n      iszero\n      tag_148\n      jumpi\n        /* \"#utility.yul\":2482:2483   */\n      0x00\n        /* \"#utility.yul\":2479:2480   */\n      dup1\n        /* \"#utility.yul\":2472:2484   */\n      revert\n        /* \"#utility.yul\":2436:2438   */\n    tag_148:\n        /* \"#utility.yul\":2510:2598   */\n      tag_149\n        /* \"#utility.yul\":2590:2597   */\n      dup5\n        /* \"#utility.yul\":2581:2587   */\n      dup3\n        /* \"#utility.yul\":2570:2579   */\n      dup6\n        /* \"#utility.yul\":2566:2588   */\n      add\n        /* \"#utility.yul\":2510:2598   */\n      tag_132\n      jump\t// in\n    tag_149:\n        /* \"#utility.yul\":2500:2598   */\n      swap2\n      pop\n        /* \"#utility.yul\":2363:2608   */\n      pop\n        /* \"#utility.yul\":2291:2615   */\n      swap3\n      swap2\n      pop\n      pop\n      jump\t// out\n        /* \"#utility.yul\":2621:2883   */\n    tag_16:\n      0x00\n        /* \"#utility.yul\":2729:2731   */\n      0x20\n        /* \"#utility.yul\":2717:2726   */\n      dup3\n        /* \"#utility.yul\":2708:2715   */\n      dup5\n        /* \"#utility.yul\":2704:2727   */\n      sub\n        /* \"#utility.yul\":2700:2732   */\n      slt\n        /* \"#utility.yul\":2697:2699   */\n      iszero\n      tag_151\n      jumpi\n        /* \"#utility.yul\":2745:2746   */\n      0x00\n        /* \"#utility.yul\":2742:2743   */\n      dup1\n        /* \"#utility.yul\":2735:2747   */\n      revert\n        /* \"#utility.yul\":2697:2699   */\n    tag_151:\n        /* \"#utility.yul\":2788:2789   */\n      0x00\n        /* \"#utility.yul\":2813:2866   */\n      tag_152\n        /* \"#utility.yul\":2858:2865   */\n      dup5\n        /* \"#utility.yul\":2849:2855   */\n      dup3\n        /* \"#utility.yul\":2838:2847   */\n      dup6\n        /* \"#utility.yul\":2834:2856   */\n      add\n        /* \"#utility.yul\":2813:2866   */\n      tag_139\n      jump\t// in\n    tag_152:\n        /* \"#utility.yul\":2803:2866   */\n      swap2\n      pop\n        /* \"#utility.yul\":2759:2876   */\n      pop\n        /* \"#utility.yul\":2687:2883   */\n      swap3\n      swap2\n      pop\n      pop\n      jump\t// out\n        /* \"#utility.yul\":2889:3007   */\n    tag_153:\n        /* \"#utility.yul\":2976:3000   */\n      tag_155\n        /* \"#utility.yul\":2994:2999   */\n      dup2\n        /* \"#utility.yul\":2976:3000   */\n      tag_156\n      jump\t// in\n    tag_155:\n        /* \"#utility.yul\":2971:2974   */\n      dup3\n        /* \"#utility.yul\":2964:3001   */\n      mstore\n        /* \"#utility.yul\":2954:3007   */\n      pop\n      pop\n      jump\t// out\n        /* \"#utility.yul\":3013:3122   */\n    tag_157:\n        /* \"#utility.yul\":3094:3115   */\n      tag_159\n        /* \"#utility.yul\":3109:3114   */\n      dup2\n        /* \"#utility.yul\":3094:3115   */\n      tag_160\n      jump\t// in\n    tag_159:\n        /* \"#utility.yul\":3089:3092   */\n      dup3\n        /* \"#utility.yul\":3082:3116   */\n      mstore\n        /* \"#utility.yul\":3072:3122   */\n      pop\n      pop\n      jump\t// out\n        /* \"#utility.yul\":3128:3472   */\n    tag_161:\n      0x00\n        /* \"#utility.yul\":3234:3273   */\n      tag_163\n        /* \"#utility.yul\":3267:3272   */\n      dup3\n        /* \"#utility.yul\":3234:3273   */\n      tag_164\n      jump\t// in\n    tag_163:\n        /* \"#utility.yul\":3289:3350   */\n      tag_165\n        /* \"#utility.yul\":3343:3349   */\n      dup2\n        /* \"#utility.yul\":3338:3341   */\n      dup6\n        /* \"#utility.yul\":3289:3350   */\n      tag_166\n      jump\t// in\n    tag_165:\n        /* \"#utility.yul\":3282:3350   */\n      swap4\n      pop\n        /* \"#utility.yul\":3359:3411   */\n      tag_167\n        /* \"#utility.yul\":3404:3410   */\n      dup2\n        /* \"#utility.yul\":3399:3402   */\n      dup6\n        /* \"#utility.yul\":3392:3396   */\n      0x20\n        /* \"#utility.yul\":3385:3390   */\n      dup7\n        /* \"#utility.yul\":3381:3397   */\n      add\n        /* \"#utility.yul\":3359:3411   */\n      tag_168\n      jump\t// in\n    tag_167:\n        /* \"#utility.yul\":3436:3465   */\n      tag_169\n        /* \"#utility.yul\":3458:3464   */\n      dup2\n        /* \"#utility.yul\":3436:3465   */\n      tag_170\n      jump\t// in\n    tag_169:\n        /* \"#utility.yul\":3431:3434   */\n      dup5\n        /* \"#utility.yul\":3427:3466   */\n      add\n        /* \"#utility.yul\":3420:3466   */\n      swap2\n      pop\n        /* \"#utility.yul\":3210:3472   */\n      pop\n      swap3\n      swap2\n      pop\n      pop\n      jump\t// out\n        /* \"#utility.yul\":3478:3842   */\n    tag_171:\n      0x00\n        /* \"#utility.yul\":3594:3633   */\n      tag_173\n        /* \"#utility.yul\":3627:3632   */\n      dup3\n        /* \"#utility.yul\":3594:3633   */\n      tag_164\n      jump\t// in\n    tag_173:\n        /* \"#utility.yul\":3649:3720   */\n      tag_174\n        /* \"#utility.yul\":3713:3719   */\n      dup2\n        /* \"#utility.yul\":3708:3711   */\n      dup6\n        /* \"#utility.yul\":3649:3720   */\n      tag_175\n      jump\t// in\n    tag_174:\n        /* \"#utility.yul\":3642:3720   */\n      swap4\n      pop\n        /* \"#utility.yul\":3729:3781   */\n      tag_176\n        /* \"#utility.yul\":3774:3780   */\n      dup2\n        /* \"#utility.yul\":3769:3772   */\n      dup6\n        /* \"#utility.yul\":3762:3766   */\n      0x20\n        /* \"#utility.yul\":3755:3760   */\n      dup7\n        /* \"#utility.yul\":3751:3767   */\n      add\n        /* \"#utility.yul\":3729:3781   */\n      tag_168\n      jump\t// in\n    tag_176:\n        /* \"#utility.yul\":3806:3835   */\n      tag_177\n        /* \"#utility.yul\":3828:3834   */\n      dup2\n        /* \"#utility.yul\":3806:3835   */\n      tag_170\n      jump\t// in\n    tag_177:\n        /* \"#utility.yul\":3801:3804   */\n      dup5\n        /* \"#utility.yul\":3797:3836   */\n      add\n        /* \"#utility.yul\":3790:3836   */\n      swap2\n      pop\n        /* \"#utility.yul\":3570:3842   */\n      pop\n      swap3\n      swap2\n      pop\n      pop\n      jump\t// out\n        /* \"#utility.yul\":3904:4513   */\n    tag_178:\n      0x00\n        /* \"#utility.yul\":4057:4061   */\n      0x40\n        /* \"#utility.yul\":4052:4055   */\n      dup4\n        /* \"#utility.yul\":4048:4062   */\n      add\n        /* \"#utility.yul\":4144:4148   */\n      0x00\n        /* \"#utility.yul\":4137:4142   */\n      dup4\n        /* \"#utility.yul\":4133:4149   */\n      add\n        /* \"#utility.yul\":4127:4150   */\n      mload\n        /* \"#utility.yul\":4197:4200   */\n      dup5\n        /* \"#utility.yul\":4191:4195   */\n      dup3\n        /* \"#utility.yul\":4187:4201   */\n      sub\n        /* \"#utility.yul\":4180:4184   */\n      0x00\n        /* \"#utility.yul\":4175:4178   */\n      dup7\n        /* \"#utility.yul\":4171:4185   */\n      add\n        /* \"#utility.yul\":4164:4202   */\n      mstore\n        /* \"#utility.yul\":4223:4296   */\n      tag_180\n        /* \"#utility.yul\":4291:4295   */\n      dup3\n        /* \"#utility.yul\":4277:4289   */\n      dup3\n        /* \"#utility.yul\":4223:4296   */\n      tag_161\n      jump\t// in\n    tag_180:\n        /* \"#utility.yul\":4215:4296   */\n      swap2\n      pop\n        /* \"#utility.yul\":4072:4307   */\n      pop\n        /* \"#utility.yul\":4394:4398   */\n      0x20\n        /* \"#utility.yul\":4387:4392   */\n      dup4\n        /* \"#utility.yul\":4383:4399   */\n      add\n        /* \"#utility.yul\":4377:4400   */\n      mload\n        /* \"#utility.yul\":4413:4476   */\n      tag_181\n        /* \"#utility.yul\":4470:4474   */\n      0x20\n        /* \"#utility.yul\":4465:4468   */\n      dup7\n        /* \"#utility.yul\":4461:4475   */\n      add\n        /* \"#utility.yul\":4447:4459   */\n      dup3\n        /* \"#utility.yul\":4413:4476   */\n      tag_182\n      jump\t// in\n    tag_181:\n        /* \"#utility.yul\":4317:4486   */\n      pop\n        /* \"#utility.yul\":4503:4507   */\n      dup1\n        /* \"#utility.yul\":4496:4507   */\n      swap2\n      pop\n        /* \"#utility.yul\":4026:4513   */\n      pop\n      swap3\n      swap2\n      pop\n      pop\n      jump\t// out\n        /* \"#utility.yul\":4519:4627   */\n    tag_182:\n        /* \"#utility.yul\":4596:4620   */\n      tag_184\n        /* \"#utility.yul\":4614:4619   */\n      dup2\n        /* \"#utility.yul\":4596:4620   */\n      tag_185\n      jump\t// in\n    tag_184:\n        /* \"#utility.yul\":4591:4594   */\n      dup3\n        /* \"#utility.yul\":4584:4621   */\n      mstore\n        /* \"#utility.yul\":4574:4627   */\n      pop\n      pop\n      jump\t// out\n        /* \"#utility.yul\":4633:4751   */\n    tag_186:\n        /* \"#utility.yul\":4720:4744   */\n      tag_188\n        /* \"#utility.yul\":4738:4743   */\n      dup2\n        /* \"#utility.yul\":4720:4744   */\n      tag_185\n      jump\t// in\n    tag_188:\n        /* \"#utility.yul\":4715:4718   */\n      dup3\n        /* \"#utility.yul\":4708:4745   */\n      mstore\n        /* \"#utility.yul\":4698:4751   */\n      pop\n      pop\n      jump\t// out\n        /* \"#utility.yul\":4757:4979   */\n    tag_26:\n      0x00\n        /* \"#utility.yul\":4888:4890   */\n      0x20\n        /* \"#utility.yul\":4877:4886   */\n      dup3\n        /* \"#utility.yul\":4873:4891   */\n      add\n        /* \"#utility.yul\":4865:4891   */\n      swap1\n      pop\n        /* \"#utility.yul\":4901:4972   */\n      tag_190\n        /* \"#utility.yul\":4969:4970   */\n      0x00\n        /* \"#utility.yul\":4958:4967   */\n      dup4\n        /* \"#utility.yul\":4954:4971   */\n      add\n        /* \"#utility.yul\":4945:4951   */\n      dup5\n        /* \"#utility.yul\":4901:4972   */\n      tag_153\n      jump\t// in\n    tag_190:\n        /* \"#utility.yul\":4855:4979   */\n      swap3\n      swap2\n      pop\n      pop\n      jump\t// out\n        /* \"#utility.yul\":4985:5408   */\n    tag_22:\n      0x00\n        /* \"#utility.yul\":5164:5166   */\n      0x40\n        /* \"#utility.yul\":5153:5162   */\n      dup3\n        /* \"#utility.yul\":5149:5167   */\n      add\n        /* \"#utility.yul\":5141:5167   */\n      swap1\n      pop\n        /* \"#utility.yul\":5213:5222   */\n      dup2\n        /* \"#utility.yul\":5207:5211   */\n      dup2\n        /* \"#utility.yul\":5203:5223   */\n      sub\n        /* \"#utility.yul\":5199:5200   */\n      0x00\n        /* \"#utility.yul\":5188:5197   */\n      dup4\n        /* \"#utility.yul\":5184:5201   */\n      add\n        /* \"#utility.yul\":5177:5224   */\n      mstore\n        /* \"#utility.yul\":5241:5319   */\n      tag_192\n        /* \"#utility.yul\":5314:5318   */\n      dup2\n        /* \"#utility.yul\":5305:5311   */\n      dup6\n        /* \"#utility.yul\":5241:5319   */\n      tag_171\n      jump\t// in\n    tag_192:\n        /* \"#utility.yul\":5233:5319   */\n      swap1\n      pop\n        /* \"#utility.yul\":5329:5401   */\n      tag_193\n        /* \"#utility.yul\":5397:5399   */\n      0x20\n        /* \"#utility.yul\":5386:5395   */\n      dup4\n        /* \"#utility.yul\":5382:5400   */\n      add\n        /* \"#utility.yul\":5373:5379   */\n      dup5\n        /* \"#utility.yul\":5329:5401   */\n      tag_186\n      jump\t// in\n    tag_193:\n        /* \"#utility.yul\":5131:5408   */\n      swap4\n      swap3\n      pop\n      pop\n      pop\n      jump\t// out\n        /* \"#utility.yul\":5414:5783   */\n    tag_54:\n      0x00\n        /* \"#utility.yul\":5593:5595   */\n      0x20\n        /* \"#utility.yul\":5582:5591   */\n      dup3\n        /* \"#utility.yul\":5578:5596   */\n      add\n        /* \"#utility.yul\":5570:5596   */\n      swap1\n      pop\n        /* \"#utility.yul\":5642:5651   */\n      dup2\n        /* \"#utility.yul\":5636:5640   */\n      dup2\n        /* \"#utility.yul\":5632:5652   */\n      sub\n        /* \"#utility.yul\":5628:5629   */\n      0x00\n        /* \"#utility.yul\":5617:5626   */\n      dup4\n        /* \"#utility.yul\":5613:5630   */\n      add\n        /* \"#utility.yul\":5606:5653   */\n      mstore\n        /* \"#utility.yul\":5670:5776   */\n      tag_195\n        /* \"#utility.yul\":5771:5775   */\n      dup2\n        /* \"#utility.yul\":5762:5768   */\n      dup5\n        /* \"#utility.yul\":5670:5776   */\n      tag_178\n      jump\t// in\n    tag_195:\n        /* \"#utility.yul\":5662:5776   */\n      swap1\n      pop\n        /* \"#utility.yul\":5560:5783   */\n      swap3\n      swap2\n      pop\n      pop\n      jump\t// out\n        /* \"#utility.yul\":5789:6011   */\n    tag_30:\n      0x00\n        /* \"#utility.yul\":5920:5922   */\n      0x20\n        /* \"#utility.yul\":5909:5918   */\n      dup3\n        /* \"#utility.yul\":5905:5923   */\n      add\n        /* \"#utility.yul\":5897:5923   */\n      swap1\n      pop\n        /* \"#utility.yul\":5933:6004   */\n      tag_197\n        /* \"#utility.yul\":6001:6002   */\n      0x00\n        /* \"#utility.yul\":5990:5999   */\n      dup4\n        /* \"#utility.yul\":5986:6003   */\n      add\n        /* \"#utility.yul\":5977:5983   */\n      dup5\n        /* \"#utility.yul\":5933:6004   */\n      tag_186\n      jump\t// in\n    tag_197:\n        /* \"#utility.yul\":5887:6011   */\n      swap3\n      swap2\n      pop\n      pop\n      jump\t// out\n        /* \"#utility.yul\":6017:6558   */\n    tag_46:\n      0x00\n        /* \"#utility.yul\":6226:6229   */\n      0x80\n        /* \"#utility.yul\":6215:6224   */\n      dup3\n        /* \"#utility.yul\":6211:6230   */\n      add\n        /* \"#utility.yul\":6203:6230   */\n      swap1\n      pop\n        /* \"#utility.yul\":6240:6311   */\n      tag_199\n        /* \"#utility.yul\":6308:6309   */\n      0x00\n        /* \"#utility.yul\":6297:6306   */\n      dup4\n        /* \"#utility.yul\":6293:6310   */\n      add\n        /* \"#utility.yul\":6284:6290   */\n      dup8\n        /* \"#utility.yul\":6240:6311   */\n      tag_186\n      jump\t// in\n    tag_199:\n        /* \"#utility.yul\":6321:6387   */\n      tag_200\n        /* \"#utility.yul\":6383:6385   */\n      0x20\n        /* \"#utility.yul\":6372:6381   */\n      dup4\n        /* \"#utility.yul\":6368:6386   */\n      add\n        /* \"#utility.yul\":6359:6365   */\n      dup7\n        /* \"#utility.yul\":6321:6387   */\n      tag_157\n      jump\t// in\n    tag_200:\n        /* \"#utility.yul\":6397:6469   */\n      tag_201\n        /* \"#utility.yul\":6465:6467   */\n      0x40\n        /* \"#utility.yul\":6454:6463   */\n      dup4\n        /* \"#utility.yul\":6450:6468   */\n      add\n        /* \"#utility.yul\":6441:6447   */\n      dup6\n        /* \"#utility.yul\":6397:6469   */\n      tag_153\n      jump\t// in\n    tag_201:\n        /* \"#utility.yul\":6479:6551   */\n      tag_202\n        /* \"#utility.yul\":6547:6549   */\n      0x60\n        /* \"#utility.yul\":6536:6545   */\n      dup4\n        /* \"#utility.yul\":6532:6550   */\n      add\n        /* \"#utility.yul\":6523:6529   */\n      dup5\n        /* \"#utility.yul\":6479:6551   */\n      tag_186\n      jump\t// in\n    tag_202:\n        /* \"#utility.yul\":6193:6558   */\n      swap6\n      swap5\n      pop\n      pop\n      pop\n      pop\n      pop\n      jump\t// out\n        /* \"#utility.yul\":6564:6847   */\n    tag_114:\n      0x00\n        /* \"#utility.yul\":6630:6632   */\n      0x40\n        /* \"#utility.yul\":6624:6633   */\n      mload\n        /* \"#utility.yul\":6614:6633   */\n      swap1\n      pop\n        /* \"#utility.yul\":6672:6676   */\n      dup2\n        /* \"#utility.yul\":6664:6670   */\n      dup2\n        /* \"#utility.yul\":6660:6677   */\n      add\n        /* \"#utility.yul\":6779:6785   */\n      dup2\n        /* \"#utility.yul\":6767:6777   */\n      dup2\n        /* \"#utility.yul\":6764:6786   */\n      lt\n        /* \"#utility.yul\":6743:6761   */\n      0xffffffffffffffff\n        /* \"#utility.yul\":6731:6741   */\n      dup3\n        /* \"#utility.yul\":6728:6762   */\n      gt\n        /* \"#utility.yul\":6725:6787   */\n      or\n        /* \"#utility.yul\":6722:6724   */\n      iszero\n      tag_204\n      jumpi\n        /* \"#utility.yul\":6790:6808   */\n      tag_205\n      tag_206\n      jump\t// in\n    tag_205:\n        /* \"#utility.yul\":6722:6724   */\n    tag_204:\n        /* \"#utility.yul\":6830:6840   */\n      dup1\n        /* \"#utility.yul\":6826:6828   */\n      0x40\n        /* \"#utility.yul\":6819:6841   */\n      mstore\n        /* \"#utility.yul\":6604:6847   */\n      pop\n      swap2\n      swap1\n      pop\n      jump\t// out\n        /* \"#utility.yul\":6853:7174   */\n    tag_113:\n      0x00\n        /* \"#utility.yul\":7030:7048   */\n      0xffffffffffffffff\n        /* \"#utility.yul\":7022:7028   */\n      dup3\n        /* \"#utility.yul\":7019:7049   */\n      gt\n        /* \"#utility.yul\":7016:7018   */\n      iszero\n      tag_208\n      jumpi\n        /* \"#utility.yul\":7052:7070   */\n      tag_209\n      tag_206\n      jump\t// in\n    tag_209:\n        /* \"#utility.yul\":7016:7018   */\n    tag_208:\n        /* \"#utility.yul\":7102:7106   */\n      0x20\n        /* \"#utility.yul\":7094:7100   */\n      dup3\n        /* \"#utility.yul\":7090:7107   */\n      mul\n        /* \"#utility.yul\":7082:7107   */\n      swap1\n      pop\n        /* \"#utility.yul\":7162:7166   */\n      0x20\n        /* \"#utility.yul\":7156:7160   */\n      dup2\n        /* \"#utility.yul\":7152:7167   */\n      add\n        /* \"#utility.yul\":7144:7167   */\n      swap1\n      pop\n        /* \"#utility.yul\":6945:7174   */\n      swap2\n      swap1\n      pop\n      jump\t// out\n        /* \"#utility.yul\":7180:7512   */\n    tag_124:\n      0x00\n        /* \"#utility.yul\":7332:7350   */\n      0xffffffffffffffff\n        /* \"#utility.yul\":7324:7330   */\n      dup3\n        /* \"#utility.yul\":7321:7351   */\n      gt\n        /* \"#utility.yul\":7318:7320   */\n      iszero\n      tag_211\n      jumpi\n        /* \"#utility.yul\":7354:7372   */\n      tag_212\n      tag_206\n      jump\t// in\n    tag_212:\n        /* \"#utility.yul\":7318:7320   */\n    tag_211:\n        /* \"#utility.yul\":7439:7443   */\n      0x1f\n        /* \"#utility.yul\":7435:7444   */\n      not\n        /* \"#utility.yul\":7428:7432   */\n      0x1f\n        /* \"#utility.yul\":7420:7426   */\n      dup4\n        /* \"#utility.yul\":7416:7433   */\n      add\n        /* \"#utility.yul\":7412:7445   */\n      and\n        /* \"#utility.yul\":7404:7445   */\n      swap1\n      pop\n        /* \"#utility.yul\":7500:7504   */\n      0x20\n        /* \"#utility.yul\":7494:7498   */\n      dup2\n        /* \"#utility.yul\":7490:7505   */\n      add\n        /* \"#utility.yul\":7482:7505   */\n      swap1\n      pop\n        /* \"#utility.yul\":7247:7512   */\n      swap2\n      swap1\n      pop\n      jump\t// out\n        /* \"#utility.yul\":7518:7617   */\n    tag_164:\n      0x00\n        /* \"#utility.yul\":7604:7609   */\n      dup2\n        /* \"#utility.yul\":7598:7610   */\n      mload\n        /* \"#utility.yul\":7588:7610   */\n      swap1\n      pop\n        /* \"#utility.yul\":7577:7617   */\n      swap2\n      swap1\n      pop\n      jump\t// out\n        /* \"#utility.yul\":7623:7782   */\n    tag_166:\n      0x00\n        /* \"#utility.yul\":7731:7737   */\n      dup3\n        /* \"#utility.yul\":7726:7729   */\n      dup3\n        /* \"#utility.yul\":7719:7738   */\n      mstore\n        /* \"#utility.yul\":7771:7775   */\n      0x20\n        /* \"#utility.yul\":7766:7769   */\n      dup3\n        /* \"#utility.yul\":7762:7776   */\n      add\n        /* \"#utility.yul\":7747:7776   */\n      swap1\n      pop\n        /* \"#utility.yul\":7709:7782   */\n      swap3\n      swap2\n      pop\n      pop\n      jump\t// out\n        /* \"#utility.yul\":7788:7957   */\n    tag_175:\n      0x00\n        /* \"#utility.yul\":7906:7912   */\n      dup3\n        /* \"#utility.yul\":7901:7904   */\n      dup3\n        /* \"#utility.yul\":7894:7913   */\n      mstore\n        /* \"#utility.yul\":7946:7950   */\n      0x20\n        /* \"#utility.yul\":7941:7944   */\n      dup3\n        /* \"#utility.yul\":7937:7951   */\n      add\n        /* \"#utility.yul\":7922:7951   */\n      swap1\n      pop\n        /* \"#utility.yul\":7884:7957   */\n      swap3\n      swap2\n      pop\n      pop\n      jump\t// out\n        /* \"#utility.yul\":7963:8268   */\n    tag_60:\n      0x00\n        /* \"#utility.yul\":8022:8042   */\n      tag_217\n        /* \"#utility.yul\":8040:8041   */\n      dup3\n        /* \"#utility.yul\":8022:8042   */\n      tag_185\n      jump\t// in\n    tag_217:\n        /* \"#utility.yul\":8017:8042   */\n      swap2\n      pop\n        /* \"#utility.yul\":8056:8076   */\n      tag_218\n        /* \"#utility.yul\":8074:8075   */\n      dup4\n        /* \"#utility.yul\":8056:8076   */\n      tag_185\n      jump\t// in\n    tag_218:\n        /* \"#utility.yul\":8051:8076   */\n      swap3\n      pop\n        /* \"#utility.yul\":8210:8211   */\n      dup3\n        /* \"#utility.yul\":8142:8208   */\n      0xffffffffffffffffffffffffffffffffffffffffffffffffffffffffffffffff\n        /* \"#utility.yul\":8138:8212   */\n      sub\n        /* \"#utility.yul\":8135:8136   */\n      dup3\n        /* \"#utility.yul\":8132:8213   */\n      gt\n        /* \"#utility.yul\":8129:8131   */\n      iszero\n      tag_219\n      jumpi\n        /* \"#utility.yul\":8216:8234   */\n      tag_220\n      tag_221\n      jump\t// in\n    tag_220:\n        /* \"#utility.yul\":8129:8131   */\n    tag_219:\n        /* \"#utility.yul\":8260:8261   */\n      dup3\n        /* \"#utility.yul\":8257:8258   */\n      dup3\n        /* \"#utility.yul\":8253:8262   */\n      add\n        /* \"#utility.yul\":8246:8262   */\n      swap1\n      pop\n        /* \"#utility.yul\":8007:8268   */\n      swap3\n      swap2\n      pop\n      pop\n      jump\t// out\n        /* \"#utility.yul\":8274:8370   */\n    tag_156:\n      0x00\n        /* \"#utility.yul\":8340:8364   */\n      tag_223\n        /* \"#utility.yul\":8358:8363   */\n      dup3\n        /* \"#utility.yul\":8340:8364   */\n      tag_224\n      jump\t// in\n    tag_223:\n        /* \"#utility.yul\":8329:8364   */\n      swap1\n      pop\n        /* \"#utility.yul\":8319:8370   */\n      swap2\n      swap1\n      pop\n      jump\t// out\n        /* \"#utility.yul\":8376:8466   */\n    tag_160:\n      0x00\n        /* \"#utility.yul\":8453:8458   */\n      dup2\n        /* \"#utility.yul\":8446:8459   */\n      iszero\n        /* \"#utility.yul\":8439:8460   */\n      iszero\n        /* \"#utility.yul\":8428:8460   */\n      swap1\n      pop\n        /* \"#utility.yul\":8418:8466   */\n      swap2\n      swap1\n      pop\n      jump\t// out\n        /* \"#utility.yul\":8472:8598   */\n    tag_224:\n      0x00\n        /* \"#utility.yul\":8549:8591   */\n      0xffffffffffffffffffffffffffffffffffffffff\n        /* \"#utility.yul\":8542:8547   */\n      dup3\n        /* \"#utility.yul\":8538:8592   */\n      and\n        /* \"#utility.yul\":8527:8592   */\n      swap1\n      pop\n        /* \"#utility.yul\":8517:8598   */\n      swap2\n      swap1\n      pop\n      jump\t// out\n        /* \"#utility.yul\":8604:8681   */\n    tag_185:\n      0x00\n        /* \"#utility.yul\":8670:8675   */\n      dup2\n        /* \"#utility.yul\":8659:8675   */\n      swap1\n      pop\n        /* \"#utility.yul\":8649:8681   */\n      swap2\n      swap1\n      pop\n      jump\t// out\n        /* \"#utility.yul\":8687:8841   */\n    tag_127:\n        /* \"#utility.yul\":8771:8777   */\n      dup3\n        /* \"#utility.yul\":8766:8769   */\n      dup2\n        /* \"#utility.yul\":8761:8764   */\n      dup4\n        /* \"#utility.yul\":8748:8778   */\n      calldatacopy\n        /* \"#utility.yul\":8833:8834   */\n      0x00\n        /* \"#utility.yul\":8824:8830   */\n      dup4\n        /* \"#utility.yul\":8819:8822   */\n      dup4\n        /* \"#utility.yul\":8815:8831   */\n      add\n        /* \"#utility.yul\":8808:8835   */\n      mstore\n        /* \"#utility.yul\":8738:8841   */\n      pop\n      pop\n      pop\n      jump\t// out\n        /* \"#utility.yul\":8847:9154   */\n    tag_168:\n        /* \"#utility.yul\":8915:8916   */\n      0x00\n        /* \"#utility.yul\":8925:9038   */\n    tag_230:\n        /* \"#utility.yul\":8939:8945   */\n      dup4\n        /* \"#utility.yul\":8936:8937   */\n      dup2\n        /* \"#utility.yul\":8933:8946   */\n      lt\n        /* \"#utility.yul\":8925:9038   */\n      iszero\n      tag_232\n      jumpi\n        /* \"#utility.yul\":9024:9025   */\n      dup1\n        /* \"#utility.yul\":9019:9022   */\n      dup3\n        /* \"#utility.yul\":9015:9026   */\n      add\n        /* \"#utility.yul\":9009:9027   */\n      mload\n        /* \"#utility.yul\":9005:9006   */\n      dup2\n        /* \"#utility.yul\":9000:9003   */\n      dup5\n        /* \"#utility.yul\":8996:9007   */\n      add\n        /* \"#utility.yul\":8989:9028   */\n      mstore\n        /* \"#utility.yul\":8961:8963   */\n      0x20\n        /* \"#utility.yul\":8958:8959   */\n      dup2\n        /* \"#utility.yul\":8954:8964   */\n      add\n        /* \"#utility.yul\":8949:8964   */\n      swap1\n      pop\n        /* \"#utility.yul\":8925:9038   */\n      jump(tag_230)\n    tag_232:\n        /* \"#utility.yul\":9056:9062   */\n      dup4\n        /* \"#utility.yul\":9053:9054   */\n      dup2\n        /* \"#utility.yul\":9050:9063   */\n      gt\n        /* \"#utility.yul\":9047:9049   */\n      iszero\n      tag_233\n      jumpi\n        /* \"#utility.yul\":9136:9137   */\n      0x00\n        /* \"#utility.yul\":9127:9133   */\n      dup5\n        /* \"#utility.yul\":9122:9125   */\n      dup5\n        /* \"#utility.yul\":9118:9134   */\n      add\n        /* \"#utility.yul\":9111:9138   */\n      mstore\n        /* \"#utility.yul\":9047:9049   */\n    tag_233:\n        /* \"#utility.yul\":8896:9154   */\n      pop\n      pop\n      pop\n      pop\n      jump\t// out\n        /* \"#utility.yul\":9160:9480   */\n    tag_64:\n      0x00\n        /* \"#utility.yul\":9241:9242   */\n      0x02\n        /* \"#utility.yul\":9235:9239   */\n      dup3\n        /* \"#utility.yul\":9231:9243   */\n      div\n        /* \"#utility.yul\":9221:9243   */\n      swap1\n      pop\n        /* \"#utility.yul\":9288:9289   */\n      0x01\n        /* \"#utility.yul\":9282:9286   */\n      dup3\n        /* \"#utility.yul\":9278:9290   */\n      and\n        /* \"#utility.yul\":9309:9327   */\n      dup1\n        /* \"#utility.yul\":9299:9301   */\n      tag_235\n      jumpi\n        /* \"#utility.yul\":9365:9369   */\n      0x7f\n        /* \"#utility.yul\":9357:9363   */\n      dup3\n        /* \"#utility.yul\":9353:9370   */\n      and\n        /* \"#utility.yul\":9343:9370   */\n      swap2\n      pop\n        /* \"#utility.yul\":9299:9301   */\n    tag_235:\n        /* \"#utility.yul\":9427:9429   */\n      0x20\n        /* \"#utility.yul\":9419:9425   */\n      dup3\n        /* \"#utility.yul\":9416:9430   */\n      lt\n        /* \"#utility.yul\":9396:9414   */\n      dup2\n        /* \"#utility.yul\":9393:9431   */\n      eq\n        /* \"#utility.yul\":9390:9392   */\n      iszero\n      tag_236\n      jumpi\n        /* \"#utility.yul\":9446:9464   */\n      tag_237\n      tag_238\n      jump\t// in\n    tag_237:\n        /* \"#utility.yul\":9390:9392   */\n    tag_236:\n        /* \"#utility.yul\":9211:9480   */\n      pop\n      swap2\n      swap1\n      pop\n      jump\t// out\n        /* \"#utility.yul\":9486:9719   */\n    tag_81:\n      0x00\n        /* \"#utility.yul\":9548:9572   */\n      tag_240\n        /* \"#utility.yul\":9566:9571   */\n      dup3\n        /* \"#utility.yul\":9548:9572   */\n      tag_185\n      jump\t// in\n    tag_240:\n        /* \"#utility.yul\":9539:9572   */\n      swap2\n      pop\n        /* \"#utility.yul\":9594:9660   */\n      0xffffffffffffffffffffffffffffffffffffffffffffffffffffffffffffffff\n        /* \"#utility.yul\":9587:9592   */\n      dup3\n        /* \"#utility.yul\":9584:9661   */\n      eq\n        /* \"#utility.yul\":9581:9583   */\n      iszero\n      tag_241\n      jumpi\n        /* \"#utility.yul\":9664:9682   */\n      tag_242\n      tag_221\n      jump\t// in\n    tag_242:\n        /* \"#utility.yul\":9581:9583   */\n    tag_241:\n        /* \"#utility.yul\":9711:9712   */\n      0x01\n        /* \"#utility.yul\":9704:9709   */\n      dup3\n        /* \"#utility.yul\":9700:9713   */\n      add\n        /* \"#utility.yul\":9693:9713   */\n      swap1\n      pop\n        /* \"#utility.yul\":9529:9719   */\n      swap2\n      swap1\n      pop\n      jump\t// out\n        /* \"#utility.yul\":9725:9905   */\n    tag_221:\n        /* \"#utility.yul\":9773:9850   */\n      0x4e487b7100000000000000000000000000000000000000000000000000000000\n        /* \"#utility.yul\":9770:9771   */\n      0x00\n        /* \"#utility.yul\":9763:9851   */\n      mstore\n        /* \"#utility.yul\":9870:9874   */\n      0x11\n        /* \"#utility.yul\":9867:9868   */\n      0x04\n        /* \"#utility.yul\":9860:9875   */\n      mstore\n        /* \"#utility.yul\":9894:9898   */\n      0x24\n        /* \"#utility.yul\":9891:9892   */\n      0x00\n        /* \"#utility.yul\":9884:9899   */\n      revert\n        /* \"#utility.yul\":9911:10091   */\n    tag_238:\n        /* \"#utility.yul\":9959:10036   */\n      0x4e487b7100000000000000000000000000000000000000000000000000000000\n        /* \"#utility.yul\":9956:9957   */\n      0x00\n        /* \"#utility.yul\":9949:10037   */\n      mstore\n        /* \"#utility.yul\":10056:10060   */\n      0x22\n        /* \"#utility.yul\":10053:10054   */\n      0x04\n        /* \"#utility.yul\":10046:10061   */\n      mstore\n        /* \"#utility.yul\":10080:10084   */\n      0x24\n        /* \"#utility.yul\":10077:10078   */\n      0x00\n        /* \"#utility.yul\":10070:10085   */\n      revert\n        /* \"#utility.yul\":10097:10277   */\n    tag_206:\n        /* \"#utility.yul\":10145:10222   */\n      0x4e487b7100000000000000000000000000000000000000000000000000000000\n        /* \"#utility.yul\":10142:10143   */\n      0x00\n        /* \"#utility.yul\":10135:10223   */\n      mstore\n        /* \"#utility.yul\":10242:10246   */\n      0x41\n        /* \"#utility.yul\":10239:10240   */\n      0x04\n        /* \"#utility.yul\":10232:10247   */\n      mstore\n        /* \"#utility.yul\":10266:10270   */\n      0x24\n        /* \"#utility.yul\":10263:10264   */\n      0x00\n        /* \"#utility.yul\":10256:10271   */\n      revert\n        /* \"#utility.yul\":10283:10385   */\n    tag_170:\n      0x00\n        /* \"#utility.yul\":10375:10377   */\n      0x1f\n        /* \"#utility.yul\":10371:10378   */\n      not\n        /* \"#utility.yul\":10366:10368   */\n      0x1f\n        /* \"#utility.yul\":10359:10364   */\n      dup4\n        /* \"#utility.yul\":10355:10369   */\n      add\n        /* \"#utility.yul\":10351:10379   */\n      and\n        /* \"#utility.yul\":10341:10379   */\n      swap1\n      pop\n        /* \"#utility.yul\":10331:10385   */\n      swap2\n      swap1\n      pop\n      jump\t// out\n        /* \"#utility.yul\":10391:10513   */\n    tag_131:\n        /* \"#utility.yul\":10464:10488   */\n      tag_248\n        /* \"#utility.yul\":10482:10487   */\n      dup2\n        /* \"#utility.yul\":10464:10488   */\n      tag_156\n      jump\t// in\n    tag_248:\n        /* \"#utility.yul\":10457:10462   */\n      dup2\n        /* \"#utility.yul\":10454:10489   */\n      eq\n        /* \"#utility.yul\":10444:10446   */\n      tag_249\n      jumpi\n        /* \"#utility.yul\":10503:10504   */\n      0x00\n        /* \"#utility.yul\":10500:10501   */\n      dup1\n        /* \"#utility.yul\":10493:10505   */\n      revert\n        /* \"#utility.yul\":10444:10446   */\n    tag_249:\n        /* \"#utility.yul\":10434:10513   */\n      pop\n      jump\t// out\n        /* \"#utility.yul\":10519:10641   */\n    tag_142:\n        /* \"#utility.yul\":10592:10616   */\n      tag_251\n        /* \"#utility.yul\":10610:10615   */\n      dup2\n        /* \"#utility.yul\":10592:10616   */\n      tag_185\n      jump\t// in\n    tag_251:\n        /* \"#utility.yul\":10585:10590   */\n      dup2\n        /* \"#utility.yul\":10582:10617   */\n      eq\n        /* \"#utility.yul\":10572:10574   */\n      tag_252\n      jumpi\n        /* \"#utility.yul\":10631:10632   */\n      0x00\n        /* \"#utility.yul\":10628:10629   */\n      dup1\n        /* \"#utility.yul\":10621:10633   */\n      revert\n        /* \"#utility.yul\":10572:10574   */\n    tag_252:\n        /* \"#utility.yul\":10562:10641   */\n      pop\n      jump\t// out\n\n    auxdata: 0xa26469706673582212204fa55e808ba7329885d2d0ea73e8258a371f0a1ad5a6ac8b75dfc209e1edb5f664736f6c63430008000033\n}\n",
				"bytecode": {
					"linkReferences": {},
					"object": "608060405234801561001057600080fd5b50610f58806100206000396000f3fe608060405234801561001057600080fd5b506004361061009e5760003560e01c8063836bc69211610066578063836bc6921461014a5780639e7b8d6114610166578063a3ec138d14610182578063b1356488146101b5578063e9d6c6da146101d35761009e565b80630121b93f146100a3578063013cf08b146100bf5780632e4176cf146100f05780635f5702531461010e57806378f305c61461012c575b600080fd5b6100bd60048036038101906100b89190610a60565b610203565b005b6100d960048036038101906100d49190610a60565b6102f2565b6040516100e7929190610b8f565b60405180910390f35b6100f86103ae565b6040516101059190610b74565b60405180910390f35b6101166103d2565b6040516101239190610be1565b60405180910390f35b6101346103d8565b6040516101419190610be1565b60405180910390f35b610164600480360381019061015f9190610a1f565b6103e2565b005b610180600480360381019061017b91906109f6565b610568565b005b61019c600480360381019061019791906109f6565b6106b2565b6040516101ac9493929190610bfc565b60405180910390f35b6101bd61070f565b6040516101ca9190610be1565b60405180910390f35b6101ed60048036038101906101e89190610a60565b610719565b6040516101fa9190610bbf565b60405180910390f35b6000600460003373ffffffffffffffffffffffffffffffffffffffff1673ffffffffffffffffffffffffffffffffffffffff16815260200190815260200160002090508060010160009054906101000a900460ff161561026257600080fd5b60018160010160006101000a81548160ff0219169083151502179055508181600201819055508060000154600583815481106102c7577f4e487b7100000000000000000000000000000000000000000000000000000000600052603260045260246000fd5b906000526020600020906002020160010160008282546102e79190610cfb565b925050819055505050565b6005818154811061030257600080fd5b906000526020600020906002020160009150905080600001805461032590610ddb565b80601f016020809104026020016040519081016040528092919081815260200182805461035190610ddb565b801561039e5780601f106103735761010080835404028352916020019161039e565b820191906000526020600020905b81548152906001019060200180831161038157829003601f168201915b5050505050908060010154905082565b60008054906101000a900473ffffffffffffffffffffffffffffffffffffffff1681565b60035481565b6000600154905090565b336000806101000a81548173ffffffffffffffffffffffffffffffffffffffff021916908373ffffffffffffffffffffffffffffffffffffffff1602179055506001600460008060009054906101000a900473ffffffffffffffffffffffffffffffffffffffff1673ffffffffffffffffffffffffffffffffffffffff1673ffffffffffffffffffffffffffffffffffffffff16815260200190815260200160002060000181905550610493610817565b805160038190555060005b815181101561056457600560405180604001604052808484815181106104ed577f4e487b7100000000000000000000000000000000000000000000000000000000600052603260045260246000fd5b60200260200101518152602001600081525090806001815401808255809150506001900390600052602060002090600202016000909190919091506000820151816000019080519060200190610544929190610820565b50602082015181600101555050808061055c90610e0d565b91505061049e565b5050565b60008054906101000a900473ffffffffffffffffffffffffffffffffffffffff1673ffffffffffffffffffffffffffffffffffffffff163373ffffffffffffffffffffffffffffffffffffffff161480156106105750600460008273ffffffffffffffffffffffffffffffffffffffff1673ffffffffffffffffffffffffffffffffffffffff16815260200190815260200160002060010160009054906101000a900460ff16155b801561065e57506000600460008373ffffffffffffffffffffffffffffffffffffffff1673ffffffffffffffffffffffffffffffffffffffff16815260200190815260200160002060000154145b61066757600080fd5b6001600460008373ffffffffffffffffffffffffffffffffffffffff1673ffffffffffffffffffffffffffffffffffffffff1681526020019081526020016000206000018190555050565b60046020528060005260406000206000915090508060000154908060010160009054906101000a900460ff16908060010160019054906101000a900473ffffffffffffffffffffffffffffffffffffffff16908060020154905084565b6000600254905090565b6107216108a6565b6005828154811061075b577f4e487b7100000000000000000000000000000000000000000000000000000000600052603260045260246000fd5b906000526020600020906002020160405180604001604052908160008201805461078490610ddb565b80601f01602080910402602001604051908101604052809291908181526020018280546107b090610ddb565b80156107fd5780601f106107d2576101008083540402835291602001916107fd565b820191906000526020600020905b8154815290600101906020018083116107e057829003601f168201915b505050505081526020016001820154815250509050919050565b42600181905550565b82805461082c90610ddb565b90600052602060002090601f01602090048101928261084e5760008555610895565b82601f1061086757805160ff1916838001178555610895565b82800160010185558215610895579182015b82811115610894578251825591602001919060010190610879565b5b5090506108a291906108c0565b5090565b604051806040016040528060608152602001600081525090565b5b808211156108d95760008160009055506001016108c1565b5090565b60006108f06108eb84610c72565b610c41565b9050808382526020820190508260005b85811015610930578135850161091688826109b7565b845260208401935060208301925050600181019050610900565b5050509392505050565b600061094d61094884610c9e565b610c41565b90508281526020810184848401111561096557600080fd5b610970848285610d99565b509392505050565b60008135905061098781610ef4565b92915050565b600082601f83011261099e57600080fd5b81356109ae8482602086016108dd565b91505092915050565b600082601f8301126109c857600080fd5b81356109d884826020860161093a565b91505092915050565b6000813590506109f081610f0b565b92915050565b600060208284031215610a0857600080fd5b6000610a1684828501610978565b91505092915050565b600060208284031215610a3157600080fd5b600082013567ffffffffffffffff811115610a4b57600080fd5b610a578482850161098d565b91505092915050565b600060208284031215610a7257600080fd5b6000610a80848285016109e1565b91505092915050565b610a9281610d51565b82525050565b610aa181610d63565b82525050565b6000610ab282610cce565b610abc8185610cd9565b9350610acc818560208601610da8565b610ad581610ee3565b840191505092915050565b6000610aeb82610cce565b610af58185610cea565b9350610b05818560208601610da8565b610b0e81610ee3565b840191505092915050565b60006040830160008301518482036000860152610b368282610aa7565b9150506020830151610b4b6020860182610b56565b508091505092915050565b610b5f81610d8f565b82525050565b610b6e81610d8f565b82525050565b6000602082019050610b896000830184610a89565b92915050565b60006040820190508181036000830152610ba98185610ae0565b9050610bb86020830184610b65565b9392505050565b60006020820190508181036000830152610bd98184610b19565b905092915050565b6000602082019050610bf66000830184610b65565b92915050565b6000608082019050610c116000830187610b65565b610c1e6020830186610a98565b610c2b6040830185610a89565b610c386060830184610b65565b95945050505050565b6000604051905081810181811067ffffffffffffffff82111715610c6857610c67610eb4565b5b8060405250919050565b600067ffffffffffffffff821115610c8d57610c8c610eb4565b5b602082029050602081019050919050565b600067ffffffffffffffff821115610cb957610cb8610eb4565b5b601f19601f8301169050602081019050919050565b600081519050919050565b600082825260208201905092915050565b600082825260208201905092915050565b6000610d0682610d8f565b9150610d1183610d8f565b9250827fffffffffffffffffffffffffffffffffffffffffffffffffffffffffffffffff03821115610d4657610d45610e56565b5b828201905092915050565b6000610d5c82610d6f565b9050919050565b60008115159050919050565b600073ffffffffffffffffffffffffffffffffffffffff82169050919050565b6000819050919050565b82818337600083830152505050565b60005b83811015610dc6578082015181840152602081019050610dab565b83811115610dd5576000848401525b50505050565b60006002820490506001821680610df357607f821691505b60208210811415610e0757610e06610e85565b5b50919050565b6000610e1882610d8f565b91507fffffffffffffffffffffffffffffffffffffffffffffffffffffffffffffffff821415610e4b57610e4a610e56565b5b600182019050919050565b7f4e487b7100000000000000000000000000000000000000000000000000000000600052601160045260246000fd5b7f4e487b7100000000000000000000000000000000000000000000000000000000600052602260045260246000fd5b7f4e487b7100000000000000000000000000000000000000000000000000000000600052604160045260246000fd5b6000601f19601f8301169050919050565b610efd81610d51565b8114610f0857600080fd5b50565b610f1481610d8f565b8114610f1f57600080fd5b5056fea26469706673582212204fa55e808ba7329885d2d0ea73e8258a371f0a1ad5a6ac8b75dfc209e1edb5f664736f6c63430008000033",
					"opcodes": "PUSH1 0x80 PUSH1 0x40 MSTORE CALLVALUE DUP1 ISZERO PUSH2 0x10 JUMPI PUSH1 0x0 DUP1 REVERT JUMPDEST POP PUSH2 0xF58 DUP1 PUSH2 0x20 PUSH1 0x0 CODECOPY PUSH1 0x0 RETURN INVALID PUSH1 0x80 PUSH1 0x40 MSTORE CALLVALUE DUP1 ISZERO PUSH2 0x10 JUMPI PUSH1 0x0 DUP1 REVERT JUMPDEST POP PUSH1 0x4 CALLDATASIZE LT PUSH2 0x9E JUMPI PUSH1 0x0 CALLDATALOAD PUSH1 0xE0 SHR DUP1 PUSH4 0x836BC692 GT PUSH2 0x66 JUMPI DUP1 PUSH4 0x836BC692 EQ PUSH2 0x14A JUMPI DUP1 PUSH4 0x9E7B8D61 EQ PUSH2 0x166 JUMPI DUP1 PUSH4 0xA3EC138D EQ PUSH2 0x182 JUMPI DUP1 PUSH4 0xB1356488 EQ PUSH2 0x1B5 JUMPI DUP1 PUSH4 0xE9D6C6DA EQ PUSH2 0x1D3 JUMPI PUSH2 0x9E JUMP JUMPDEST DUP1 PUSH4 0x121B93F EQ PUSH2 0xA3 JUMPI DUP1 PUSH4 0x13CF08B EQ PUSH2 0xBF JUMPI DUP1 PUSH4 0x2E4176CF EQ PUSH2 0xF0 JUMPI DUP1 PUSH4 0x5F570253 EQ PUSH2 0x10E JUMPI DUP1 PUSH4 0x78F305C6 EQ PUSH2 0x12C JUMPI JUMPDEST PUSH1 0x0 DUP1 REVERT JUMPDEST PUSH2 0xBD PUSH1 0x4 DUP1 CALLDATASIZE SUB DUP2 ADD SWAP1 PUSH2 0xB8 SWAP2 SWAP1 PUSH2 0xA60 JUMP JUMPDEST PUSH2 0x203 JUMP JUMPDEST STOP JUMPDEST PUSH2 0xD9 PUSH1 0x4 DUP1 CALLDATASIZE SUB DUP2 ADD SWAP1 PUSH2 0xD4 SWAP2 SWAP1 PUSH2 0xA60 JUMP JUMPDEST PUSH2 0x2F2 JUMP JUMPDEST PUSH1 0x40 MLOAD PUSH2 0xE7 SWAP3 SWAP2 SWAP1 PUSH2 0xB8F JUMP JUMPDEST PUSH1 0x40 MLOAD DUP1 SWAP2 SUB SWAP1 RETURN JUMPDEST PUSH2 0xF8 PUSH2 0x3AE JUMP JUMPDEST PUSH1 0x40 MLOAD PUSH2 0x105 SWAP2 SWAP1 PUSH2 0xB74 JUMP JUMPDEST PUSH1 0x40 MLOAD DUP1 SWAP2 SUB SWAP1 RETURN JUMPDEST PUSH2 0x116 PUSH2 0x3D2 JUMP JUMPDEST PUSH1 0x40 MLOAD PUSH2 0x123 SWAP2 SWAP1 PUSH2 0xBE1 JUMP JUMPDEST PUSH1 0x40 MLOAD DUP1 SWAP2 SUB SWAP1 RETURN JUMPDEST PUSH2 0x134 PUSH2 0x3D8 JUMP JUMPDEST PUSH1 0x40 MLOAD PUSH2 0x141 SWAP2 SWAP1 PUSH2 0xBE1 JUMP JUMPDEST PUSH1 0x40 MLOAD DUP1 SWAP2 SUB SWAP1 RETURN JUMPDEST PUSH2 0x164 PUSH1 0x4 DUP1 CALLDATASIZE SUB DUP2 ADD SWAP1 PUSH2 0x15F SWAP2 SWAP1 PUSH2 0xA1F JUMP JUMPDEST PUSH2 0x3E2 JUMP JUMPDEST STOP JUMPDEST PUSH2 0x180 PUSH1 0x4 DUP1 CALLDATASIZE SUB DUP2 ADD SWAP1 PUSH2 0x17B SWAP2 SWAP1 PUSH2 0x9F6 JUMP JUMPDEST PUSH2 0x568 JUMP JUMPDEST STOP JUMPDEST PUSH2 0x19C PUSH1 0x4 DUP1 CALLDATASIZE SUB DUP2 ADD SWAP1 PUSH2 0x197 SWAP2 SWAP1 PUSH2 0x9F6 JUMP JUMPDEST PUSH2 0x6B2 JUMP JUMPDEST PUSH1 0x40 MLOAD PUSH2 0x1AC SWAP5 SWAP4 SWAP3 SWAP2 SWAP1 PUSH2 0xBFC JUMP JUMPDEST PUSH1 0x40 MLOAD DUP1 SWAP2 SUB SWAP1 RETURN JUMPDEST PUSH2 0x1BD PUSH2 0x70F JUMP JUMPDEST PUSH1 0x40 MLOAD PUSH2 0x1CA SWAP2 SWAP1 PUSH2 0xBE1 JUMP JUMPDEST PUSH1 0x40 MLOAD DUP1 SWAP2 SUB SWAP1 RETURN JUMPDEST PUSH2 0x1ED PUSH1 0x4 DUP1 CALLDATASIZE SUB DUP2 ADD SWAP1 PUSH2 0x1E8 SWAP2 SWAP1 PUSH2 0xA60 JUMP JUMPDEST PUSH2 0x719 JUMP JUMPDEST PUSH1 0x40 MLOAD PUSH2 0x1FA SWAP2 SWAP1 PUSH2 0xBBF JUMP JUMPDEST PUSH1 0x40 MLOAD DUP1 SWAP2 SUB SWAP1 RETURN JUMPDEST PUSH1 0x0 PUSH1 0x4 PUSH1 0x0 CALLER PUSH20 0xFFFFFFFFFFFFFFFFFFFFFFFFFFFFFFFFFFFFFFFF AND PUSH20 0xFFFFFFFFFFFFFFFFFFFFFFFFFFFFFFFFFFFFFFFF AND DUP2 MSTORE PUSH1 0x20 ADD SWAP1 DUP2 MSTORE PUSH1 0x20 ADD PUSH1 0x0 KECCAK256 SWAP1 POP DUP1 PUSH1 0x1 ADD PUSH1 0x0 SWAP1 SLOAD SWAP1 PUSH2 0x100 EXP SWAP1 DIV PUSH1 0xFF AND ISZERO PUSH2 0x262 JUMPI PUSH1 0x0 DUP1 REVERT JUMPDEST PUSH1 0x1 DUP2 PUSH1 0x1 ADD PUSH1 0x0 PUSH2 0x100 EXP DUP2 SLOAD DUP2 PUSH1 0xFF MUL NOT AND SWAP1 DUP4 ISZERO ISZERO MUL OR SWAP1 SSTORE POP DUP2 DUP2 PUSH1 0x2 ADD DUP2 SWAP1 SSTORE POP DUP1 PUSH1 0x0 ADD SLOAD PUSH1 0x5 DUP4 DUP2 SLOAD DUP2 LT PUSH2 0x2C7 JUMPI PUSH32 0x4E487B7100000000000000000000000000000000000000000000000000000000 PUSH1 0x0 MSTORE PUSH1 0x32 PUSH1 0x4 MSTORE PUSH1 0x24 PUSH1 0x0 REVERT JUMPDEST SWAP1 PUSH1 0x0 MSTORE PUSH1 0x20 PUSH1 0x0 KECCAK256 SWAP1 PUSH1 0x2 MUL ADD PUSH1 0x1 ADD PUSH1 0x0 DUP3 DUP3 SLOAD PUSH2 0x2E7 SWAP2 SWAP1 PUSH2 0xCFB JUMP JUMPDEST SWAP3 POP POP DUP2 SWAP1 SSTORE POP POP POP JUMP JUMPDEST PUSH1 0x5 DUP2 DUP2 SLOAD DUP2 LT PUSH2 0x302 JUMPI PUSH1 0x0 DUP1 REVERT JUMPDEST SWAP1 PUSH1 0x0 MSTORE PUSH1 0x20 PUSH1 0x0 KECCAK256 SWAP1 PUSH1 0x2 MUL ADD PUSH1 0x0 SWAP2 POP SWAP1 POP DUP1 PUSH1 0x0 ADD DUP1 SLOAD PUSH2 0x325 SWAP1 PUSH2 0xDDB JUMP JUMPDEST DUP1 PUSH1 0x1F ADD PUSH1 0x20 DUP1 SWAP2 DIV MUL PUSH1 0x20 ADD PUSH1 0x40 MLOAD SWAP1 DUP2 ADD PUSH1 0x40 MSTORE DUP1 SWAP3 SWAP2 SWAP1 DUP2 DUP2 MSTORE PUSH1 0x20 ADD DUP3 DUP1 SLOAD PUSH2 0x351 SWAP1 PUSH2 0xDDB JUMP JUMPDEST DUP1 ISZERO PUSH2 0x39E JUMPI DUP1 PUSH1 0x1F LT PUSH2 0x373 JUMPI PUSH2 0x100 DUP1 DUP4 SLOAD DIV MUL DUP4 MSTORE SWAP2 PUSH1 0x20 ADD SWAP2 PUSH2 0x39E JUMP JUMPDEST DUP3 ADD SWAP2 SWAP1 PUSH1 0x0 MSTORE PUSH1 0x20 PUSH1 0x0 KECCAK256 SWAP1 JUMPDEST DUP2 SLOAD DUP2 MSTORE SWAP1 PUSH1 0x1 ADD SWAP1 PUSH1 0x20 ADD DUP1 DUP4 GT PUSH2 0x381 JUMPI DUP3 SWAP1 SUB PUSH1 0x1F AND DUP3 ADD SWAP2 JUMPDEST POP POP POP POP POP SWAP1 DUP1 PUSH1 0x1 ADD SLOAD SWAP1 POP DUP3 JUMP JUMPDEST PUSH1 0x0 DUP1 SLOAD SWAP1 PUSH2 0x100 EXP SWAP1 DIV PUSH20 0xFFFFFFFFFFFFFFFFFFFFFFFFFFFFFFFFFFFFFFFF AND DUP2 JUMP JUMPDEST PUSH1 0x3 SLOAD DUP2 JUMP JUMPDEST PUSH1 0x0 PUSH1 0x1 SLOAD SWAP1 POP SWAP1 JUMP JUMPDEST CALLER PUSH1 0x0 DUP1 PUSH2 0x100 EXP DUP2 SLOAD DUP2 PUSH20 0xFFFFFFFFFFFFFFFFFFFFFFFFFFFFFFFFFFFFFFFF MUL NOT AND SWAP1 DUP4 PUSH20 0xFFFFFFFFFFFFFFFFFFFFFFFFFFFFFFFFFFFFFFFF AND MUL OR SWAP1 SSTORE POP PUSH1 0x1 PUSH1 0x4 PUSH1 0x0 DUP1 PUSH1 0x0 SWAP1 SLOAD SWAP1 PUSH2 0x100 EXP SWAP1 DIV PUSH20 0xFFFFFFFFFFFFFFFFFFFFFFFFFFFFFFFFFFFFFFFF AND PUSH20 0xFFFFFFFFFFFFFFFFFFFFFFFFFFFFFFFFFFFFFFFF AND PUSH20 0xFFFFFFFFFFFFFFFFFFFFFFFFFFFFFFFFFFFFFFFF AND DUP2 MSTORE PUSH1 0x20 ADD SWAP1 DUP2 MSTORE PUSH1 0x20 ADD PUSH1 0x0 KECCAK256 PUSH1 0x0 ADD DUP2 SWAP1 SSTORE POP PUSH2 0x493 PUSH2 0x817 JUMP JUMPDEST DUP1 MLOAD PUSH1 0x3 DUP2 SWAP1 SSTORE POP PUSH1 0x0 JUMPDEST DUP2 MLOAD DUP2 LT ISZERO PUSH2 0x564 JUMPI PUSH1 0x5 PUSH1 0x40 MLOAD DUP1 PUSH1 0x40 ADD PUSH1 0x40 MSTORE DUP1 DUP5 DUP5 DUP2 MLOAD DUP2 LT PUSH2 0x4ED JUMPI PUSH32 0x4E487B7100000000000000000000000000000000000000000000000000000000 PUSH1 0x0 MSTORE PUSH1 0x32 PUSH1 0x4 MSTORE PUSH1 0x24 PUSH1 0x0 REVERT JUMPDEST PUSH1 0x20 MUL PUSH1 0x20 ADD ADD MLOAD DUP2 MSTORE PUSH1 0x20 ADD PUSH1 0x0 DUP2 MSTORE POP SWAP1 DUP1 PUSH1 0x1 DUP2 SLOAD ADD DUP1 DUP3 SSTORE DUP1 SWAP2 POP POP PUSH1 0x1 SWAP1 SUB SWAP1 PUSH1 0x0 MSTORE PUSH1 0x20 PUSH1 0x0 KECCAK256 SWAP1 PUSH1 0x2 MUL ADD PUSH1 0x0 SWAP1 SWAP2 SWAP1 SWAP2 SWAP1 SWAP2 POP PUSH1 0x0 DUP3 ADD MLOAD DUP2 PUSH1 0x0 ADD SWAP1 DUP1 MLOAD SWAP1 PUSH1 0x20 ADD SWAP1 PUSH2 0x544 SWAP3 SWAP2 SWAP1 PUSH2 0x820 JUMP JUMPDEST POP PUSH1 0x20 DUP3 ADD MLOAD DUP2 PUSH1 0x1 ADD SSTORE POP POP DUP1 DUP1 PUSH2 0x55C SWAP1 PUSH2 0xE0D JUMP JUMPDEST SWAP2 POP POP PUSH2 0x49E JUMP JUMPDEST POP POP JUMP JUMPDEST PUSH1 0x0 DUP1 SLOAD SWAP1 PUSH2 0x100 EXP SWAP1 DIV PUSH20 0xFFFFFFFFFFFFFFFFFFFFFFFFFFFFFFFFFFFFFFFF AND PUSH20 0xFFFFFFFFFFFFFFFFFFFFFFFFFFFFFFFFFFFFFFFF AND CALLER PUSH20 0xFFFFFFFFFFFFFFFFFFFFFFFFFFFFFFFFFFFFFFFF AND EQ DUP1 ISZERO PUSH2 0x610 JUMPI POP PUSH1 0x4 PUSH1 0x0 DUP3 PUSH20 0xFFFFFFFFFFFFFFFFFFFFFFFFFFFFFFFFFFFFFFFF AND PUSH20 0xFFFFFFFFFFFFFFFFFFFFFFFFFFFFFFFFFFFFFFFF AND DUP2 MSTORE PUSH1 0x20 ADD SWAP1 DUP2 MSTORE PUSH1 0x20 ADD PUSH1 0x0 KECCAK256 PUSH1 0x1 ADD PUSH1 0x0 SWAP1 SLOAD SWAP1 PUSH2 0x100 EXP SWAP1 DIV PUSH1 0xFF AND ISZERO JUMPDEST DUP1 ISZERO PUSH2 0x65E JUMPI POP PUSH1 0x0 PUSH1 0x4 PUSH1 0x0 DUP4 PUSH20 0xFFFFFFFFFFFFFFFFFFFFFFFFFFFFFFFFFFFFFFFF AND PUSH20 0xFFFFFFFFFFFFFFFFFFFFFFFFFFFFFFFFFFFFFFFF AND DUP2 MSTORE PUSH1 0x20 ADD SWAP1 DUP2 MSTORE PUSH1 0x20 ADD PUSH1 0x0 KECCAK256 PUSH1 0x0 ADD SLOAD EQ JUMPDEST PUSH2 0x667 JUMPI PUSH1 0x0 DUP1 REVERT JUMPDEST PUSH1 0x1 PUSH1 0x4 PUSH1 0x0 DUP4 PUSH20 0xFFFFFFFFFFFFFFFFFFFFFFFFFFFFFFFFFFFFFFFF AND PUSH20 0xFFFFFFFFFFFFFFFFFFFFFFFFFFFFFFFFFFFFFFFF AND DUP2 MSTORE PUSH1 0x20 ADD SWAP1 DUP2 MSTORE PUSH1 0x20 ADD PUSH1 0x0 KECCAK256 PUSH1 0x0 ADD DUP2 SWAP1 SSTORE POP POP JUMP JUMPDEST PUSH1 0x4 PUSH1 0x20 MSTORE DUP1 PUSH1 0x0 MSTORE PUSH1 0x40 PUSH1 0x0 KECCAK256 PUSH1 0x0 SWAP2 POP SWAP1 POP DUP1 PUSH1 0x0 ADD SLOAD SWAP1 DUP1 PUSH1 0x1 ADD PUSH1 0x0 SWAP1 SLOAD SWAP1 PUSH2 0x100 EXP SWAP1 DIV PUSH1 0xFF AND SWAP1 DUP1 PUSH1 0x1 ADD PUSH1 0x1 SWAP1 SLOAD SWAP1 PUSH2 0x100 EXP SWAP1 DIV PUSH20 0xFFFFFFFFFFFFFFFFFFFFFFFFFFFFFFFFFFFFFFFF AND SWAP1 DUP1 PUSH1 0x2 ADD SLOAD SWAP1 POP DUP5 JUMP JUMPDEST PUSH1 0x0 PUSH1 0x2 SLOAD SWAP1 POP SWAP1 JUMP JUMPDEST PUSH2 0x721 PUSH2 0x8A6 JUMP JUMPDEST PUSH1 0x5 DUP3 DUP2 SLOAD DUP2 LT PUSH2 0x75B JUMPI PUSH32 0x4E487B7100000000000000000000000000000000000000000000000000000000 PUSH1 0x0 MSTORE PUSH1 0x32 PUSH1 0x4 MSTORE PUSH1 0x24 PUSH1 0x0 REVERT JUMPDEST SWAP1 PUSH1 0x0 MSTORE PUSH1 0x20 PUSH1 0x0 KECCAK256 SWAP1 PUSH1 0x2 MUL ADD PUSH1 0x40 MLOAD DUP1 PUSH1 0x40 ADD PUSH1 0x40 MSTORE SWAP1 DUP2 PUSH1 0x0 DUP3 ADD DUP1 SLOAD PUSH2 0x784 SWAP1 PUSH2 0xDDB JUMP JUMPDEST DUP1 PUSH1 0x1F ADD PUSH1 0x20 DUP1 SWAP2 DIV MUL PUSH1 0x20 ADD PUSH1 0x40 MLOAD SWAP1 DUP2 ADD PUSH1 0x40 MSTORE DUP1 SWAP3 SWAP2 SWAP1 DUP2 DUP2 MSTORE PUSH1 0x20 ADD DUP3 DUP1 SLOAD PUSH2 0x7B0 SWAP1 PUSH2 0xDDB JUMP JUMPDEST DUP1 ISZERO PUSH2 0x7FD JUMPI DUP1 PUSH1 0x1F LT PUSH2 0x7D2 JUMPI PUSH2 0x100 DUP1 DUP4 SLOAD DIV MUL DUP4 MSTORE SWAP2 PUSH1 0x20 ADD SWAP2 PUSH2 0x7FD JUMP JUMPDEST DUP3 ADD SWAP2 SWAP1 PUSH1 0x0 MSTORE PUSH1 0x20 PUSH1 0x0 KECCAK256 SWAP1 JUMPDEST DUP2 SLOAD DUP2 MSTORE SWAP1 PUSH1 0x1 ADD SWAP1 PUSH1 0x20 ADD DUP1 DUP4 GT PUSH2 0x7E0 JUMPI DUP3 SWAP1 SUB PUSH1 0x1F AND DUP3 ADD SWAP2 JUMPDEST POP POP POP POP POP DUP2 MSTORE PUSH1 0x20 ADD PUSH1 0x1 DUP3 ADD SLOAD DUP2 MSTORE POP POP SWAP1 POP SWAP2 SWAP1 POP JUMP JUMPDEST TIMESTAMP PUSH1 0x1 DUP2 SWAP1 SSTORE POP JUMP JUMPDEST DUP3 DUP1 SLOAD PUSH2 0x82C SWAP1 PUSH2 0xDDB JUMP JUMPDEST SWAP1 PUSH1 0x0 MSTORE PUSH1 0x20 PUSH1 0x0 KECCAK256 SWAP1 PUSH1 0x1F ADD PUSH1 0x20 SWAP1 DIV DUP2 ADD SWAP3 DUP3 PUSH2 0x84E JUMPI PUSH1 0x0 DUP6 SSTORE PUSH2 0x895 JUMP JUMPDEST DUP3 PUSH1 0x1F LT PUSH2 0x867 JUMPI DUP1 MLOAD PUSH1 0xFF NOT AND DUP4 DUP1 ADD OR DUP6 SSTORE PUSH2 0x895 JUMP JUMPDEST DUP3 DUP1 ADD PUSH1 0x1 ADD DUP6 SSTORE DUP3 ISZERO PUSH2 0x895 JUMPI SWAP2 DUP3 ADD JUMPDEST DUP3 DUP2 GT ISZERO PUSH2 0x894 JUMPI DUP3 MLOAD DUP3 SSTORE SWAP2 PUSH1 0x20 ADD SWAP2 SWAP1 PUSH1 0x1 ADD SWAP1 PUSH2 0x879 JUMP JUMPDEST JUMPDEST POP SWAP1 POP PUSH2 0x8A2 SWAP2 SWAP1 PUSH2 0x8C0 JUMP JUMPDEST POP SWAP1 JUMP JUMPDEST PUSH1 0x40 MLOAD DUP1 PUSH1 0x40 ADD PUSH1 0x40 MSTORE DUP1 PUSH1 0x60 DUP2 MSTORE PUSH1 0x20 ADD PUSH1 0x0 DUP2 MSTORE POP SWAP1 JUMP JUMPDEST JUMPDEST DUP1 DUP3 GT ISZERO PUSH2 0x8D9 JUMPI PUSH1 0x0 DUP2 PUSH1 0x0 SWAP1 SSTORE POP PUSH1 0x1 ADD PUSH2 0x8C1 JUMP JUMPDEST POP SWAP1 JUMP JUMPDEST PUSH1 0x0 PUSH2 0x8F0 PUSH2 0x8EB DUP5 PUSH2 0xC72 JUMP JUMPDEST PUSH2 0xC41 JUMP JUMPDEST SWAP1 POP DUP1 DUP4 DUP3 MSTORE PUSH1 0x20 DUP3 ADD SWAP1 POP DUP3 PUSH1 0x0 JUMPDEST DUP6 DUP2 LT ISZERO PUSH2 0x930 JUMPI DUP2 CALLDATALOAD DUP6 ADD PUSH2 0x916 DUP9 DUP3 PUSH2 0x9B7 JUMP JUMPDEST DUP5 MSTORE PUSH1 0x20 DUP5 ADD SWAP4 POP PUSH1 0x20 DUP4 ADD SWAP3 POP POP PUSH1 0x1 DUP2 ADD SWAP1 POP PUSH2 0x900 JUMP JUMPDEST POP POP POP SWAP4 SWAP3 POP POP POP JUMP JUMPDEST PUSH1 0x0 PUSH2 0x94D PUSH2 0x948 DUP5 PUSH2 0xC9E JUMP JUMPDEST PUSH2 0xC41 JUMP JUMPDEST SWAP1 POP DUP3 DUP2 MSTORE PUSH1 0x20 DUP2 ADD DUP5 DUP5 DUP5 ADD GT ISZERO PUSH2 0x965 JUMPI PUSH1 0x0 DUP1 REVERT JUMPDEST PUSH2 0x970 DUP5 DUP3 DUP6 PUSH2 0xD99 JUMP JUMPDEST POP SWAP4 SWAP3 POP POP POP JUMP JUMPDEST PUSH1 0x0 DUP2 CALLDATALOAD SWAP1 POP PUSH2 0x987 DUP2 PUSH2 0xEF4 JUMP JUMPDEST SWAP3 SWAP2 POP POP JUMP JUMPDEST PUSH1 0x0 DUP3 PUSH1 0x1F DUP4 ADD SLT PUSH2 0x99E JUMPI PUSH1 0x0 DUP1 REVERT JUMPDEST DUP2 CALLDATALOAD PUSH2 0x9AE DUP5 DUP3 PUSH1 0x20 DUP7 ADD PUSH2 0x8DD JUMP JUMPDEST SWAP2 POP POP SWAP3 SWAP2 POP POP JUMP JUMPDEST PUSH1 0x0 DUP3 PUSH1 0x1F DUP4 ADD SLT PUSH2 0x9C8 JUMPI PUSH1 0x0 DUP1 REVERT JUMPDEST DUP2 CALLDATALOAD PUSH2 0x9D8 DUP5 DUP3 PUSH1 0x20 DUP7 ADD PUSH2 0x93A JUMP JUMPDEST SWAP2 POP POP SWAP3 SWAP2 POP POP JUMP JUMPDEST PUSH1 0x0 DUP2 CALLDATALOAD SWAP1 POP PUSH2 0x9F0 DUP2 PUSH2 0xF0B JUMP JUMPDEST SWAP3 SWAP2 POP POP JUMP JUMPDEST PUSH1 0x0 PUSH1 0x20 DUP3 DUP5 SUB SLT ISZERO PUSH2 0xA08 JUMPI PUSH1 0x0 DUP1 REVERT JUMPDEST PUSH1 0x0 PUSH2 0xA16 DUP5 DUP3 DUP6 ADD PUSH2 0x978 JUMP JUMPDEST SWAP2 POP POP SWAP3 SWAP2 POP POP JUMP JUMPDEST PUSH1 0x0 PUSH1 0x20 DUP3 DUP5 SUB SLT ISZERO PUSH2 0xA31 JUMPI PUSH1 0x0 DUP1 REVERT JUMPDEST PUSH1 0x0 DUP3 ADD CALLDATALOAD PUSH8 0xFFFFFFFFFFFFFFFF DUP2 GT ISZERO PUSH2 0xA4B JUMPI PUSH1 0x0 DUP1 REVERT JUMPDEST PUSH2 0xA57 DUP5 DUP3 DUP6 ADD PUSH2 0x98D JUMP JUMPDEST SWAP2 POP POP SWAP3 SWAP2 POP POP JUMP JUMPDEST PUSH1 0x0 PUSH1 0x20 DUP3 DUP5 SUB SLT ISZERO PUSH2 0xA72 JUMPI PUSH1 0x0 DUP1 REVERT JUMPDEST PUSH1 0x0 PUSH2 0xA80 DUP5 DUP3 DUP6 ADD PUSH2 0x9E1 JUMP JUMPDEST SWAP2 POP POP SWAP3 SWAP2 POP POP JUMP JUMPDEST PUSH2 0xA92 DUP2 PUSH2 0xD51 JUMP JUMPDEST DUP3 MSTORE POP POP JUMP JUMPDEST PUSH2 0xAA1 DUP2 PUSH2 0xD63 JUMP JUMPDEST DUP3 MSTORE POP POP JUMP JUMPDEST PUSH1 0x0 PUSH2 0xAB2 DUP3 PUSH2 0xCCE JUMP JUMPDEST PUSH2 0xABC DUP2 DUP6 PUSH2 0xCD9 JUMP JUMPDEST SWAP4 POP PUSH2 0xACC DUP2 DUP6 PUSH1 0x20 DUP7 ADD PUSH2 0xDA8 JUMP JUMPDEST PUSH2 0xAD5 DUP2 PUSH2 0xEE3 JUMP JUMPDEST DUP5 ADD SWAP2 POP POP SWAP3 SWAP2 POP POP JUMP JUMPDEST PUSH1 0x0 PUSH2 0xAEB DUP3 PUSH2 0xCCE JUMP JUMPDEST PUSH2 0xAF5 DUP2 DUP6 PUSH2 0xCEA JUMP JUMPDEST SWAP4 POP PUSH2 0xB05 DUP2 DUP6 PUSH1 0x20 DUP7 ADD PUSH2 0xDA8 JUMP JUMPDEST PUSH2 0xB0E DUP2 PUSH2 0xEE3 JUMP JUMPDEST DUP5 ADD SWAP2 POP POP SWAP3 SWAP2 POP POP JUMP JUMPDEST PUSH1 0x0 PUSH1 0x40 DUP4 ADD PUSH1 0x0 DUP4 ADD MLOAD DUP5 DUP3 SUB PUSH1 0x0 DUP7 ADD MSTORE PUSH2 0xB36 DUP3 DUP3 PUSH2 0xAA7 JUMP JUMPDEST SWAP2 POP POP PUSH1 0x20 DUP4 ADD MLOAD PUSH2 0xB4B PUSH1 0x20 DUP7 ADD DUP3 PUSH2 0xB56 JUMP JUMPDEST POP DUP1 SWAP2 POP POP SWAP3 SWAP2 POP POP JUMP JUMPDEST PUSH2 0xB5F DUP2 PUSH2 0xD8F JUMP JUMPDEST DUP3 MSTORE POP POP JUMP JUMPDEST PUSH2 0xB6E DUP2 PUSH2 0xD8F JUMP JUMPDEST DUP3 MSTORE POP POP JUMP JUMPDEST PUSH1 0x0 PUSH1 0x20 DUP3 ADD SWAP1 POP PUSH2 0xB89 PUSH1 0x0 DUP4 ADD DUP5 PUSH2 0xA89 JUMP JUMPDEST SWAP3 SWAP2 POP POP JUMP JUMPDEST PUSH1 0x0 PUSH1 0x40 DUP3 ADD SWAP1 POP DUP2 DUP2 SUB PUSH1 0x0 DUP4 ADD MSTORE PUSH2 0xBA9 DUP2 DUP6 PUSH2 0xAE0 JUMP JUMPDEST SWAP1 POP PUSH2 0xBB8 PUSH1 0x20 DUP4 ADD DUP5 PUSH2 0xB65 JUMP JUMPDEST SWAP4 SWAP3 POP POP POP JUMP JUMPDEST PUSH1 0x0 PUSH1 0x20 DUP3 ADD SWAP1 POP DUP2 DUP2 SUB PUSH1 0x0 DUP4 ADD MSTORE PUSH2 0xBD9 DUP2 DUP5 PUSH2 0xB19 JUMP JUMPDEST SWAP1 POP SWAP3 SWAP2 POP POP JUMP JUMPDEST PUSH1 0x0 PUSH1 0x20 DUP3 ADD SWAP1 POP PUSH2 0xBF6 PUSH1 0x0 DUP4 ADD DUP5 PUSH2 0xB65 JUMP JUMPDEST SWAP3 SWAP2 POP POP JUMP JUMPDEST PUSH1 0x0 PUSH1 0x80 DUP3 ADD SWAP1 POP PUSH2 0xC11 PUSH1 0x0 DUP4 ADD DUP8 PUSH2 0xB65 JUMP JUMPDEST PUSH2 0xC1E PUSH1 0x20 DUP4 ADD DUP7 PUSH2 0xA98 JUMP JUMPDEST PUSH2 0xC2B PUSH1 0x40 DUP4 ADD DUP6 PUSH2 0xA89 JUMP JUMPDEST PUSH2 0xC38 PUSH1 0x60 DUP4 ADD DUP5 PUSH2 0xB65 JUMP JUMPDEST SWAP6 SWAP5 POP POP POP POP POP JUMP JUMPDEST PUSH1 0x0 PUSH1 0x40 MLOAD SWAP1 POP DUP2 DUP2 ADD DUP2 DUP2 LT PUSH8 0xFFFFFFFFFFFFFFFF DUP3 GT OR ISZERO PUSH2 0xC68 JUMPI PUSH2 0xC67 PUSH2 0xEB4 JUMP JUMPDEST JUMPDEST DUP1 PUSH1 0x40 MSTORE POP SWAP2 SWAP1 POP JUMP JUMPDEST PUSH1 0x0 PUSH8 0xFFFFFFFFFFFFFFFF DUP3 GT ISZERO PUSH2 0xC8D JUMPI PUSH2 0xC8C PUSH2 0xEB4 JUMP JUMPDEST JUMPDEST PUSH1 0x20 DUP3 MUL SWAP1 POP PUSH1 0x20 DUP2 ADD SWAP1 POP SWAP2 SWAP1 POP JUMP JUMPDEST PUSH1 0x0 PUSH8 0xFFFFFFFFFFFFFFFF DUP3 GT ISZERO PUSH2 0xCB9 JUMPI PUSH2 0xCB8 PUSH2 0xEB4 JUMP JUMPDEST JUMPDEST PUSH1 0x1F NOT PUSH1 0x1F DUP4 ADD AND SWAP1 POP PUSH1 0x20 DUP2 ADD SWAP1 POP SWAP2 SWAP1 POP JUMP JUMPDEST PUSH1 0x0 DUP2 MLOAD SWAP1 POP SWAP2 SWAP1 POP JUMP JUMPDEST PUSH1 0x0 DUP3 DUP3 MSTORE PUSH1 0x20 DUP3 ADD SWAP1 POP SWAP3 SWAP2 POP POP JUMP JUMPDEST PUSH1 0x0 DUP3 DUP3 MSTORE PUSH1 0x20 DUP3 ADD SWAP1 POP SWAP3 SWAP2 POP POP JUMP JUMPDEST PUSH1 0x0 PUSH2 0xD06 DUP3 PUSH2 0xD8F JUMP JUMPDEST SWAP2 POP PUSH2 0xD11 DUP4 PUSH2 0xD8F JUMP JUMPDEST SWAP3 POP DUP3 PUSH32 0xFFFFFFFFFFFFFFFFFFFFFFFFFFFFFFFFFFFFFFFFFFFFFFFFFFFFFFFFFFFFFFFF SUB DUP3 GT ISZERO PUSH2 0xD46 JUMPI PUSH2 0xD45 PUSH2 0xE56 JUMP JUMPDEST JUMPDEST DUP3 DUP3 ADD SWAP1 POP SWAP3 SWAP2 POP POP JUMP JUMPDEST PUSH1 0x0 PUSH2 0xD5C DUP3 PUSH2 0xD6F JUMP JUMPDEST SWAP1 POP SWAP2 SWAP1 POP JUMP JUMPDEST PUSH1 0x0 DUP2 ISZERO ISZERO SWAP1 POP SWAP2 SWAP1 POP JUMP JUMPDEST PUSH1 0x0 PUSH20 0xFFFFFFFFFFFFFFFFFFFFFFFFFFFFFFFFFFFFFFFF DUP3 AND SWAP1 POP SWAP2 SWAP1 POP JUMP JUMPDEST PUSH1 0x0 DUP2 SWAP1 POP SWAP2 SWAP1 POP JUMP JUMPDEST DUP3 DUP2 DUP4 CALLDATACOPY PUSH1 0x0 DUP4 DUP4 ADD MSTORE POP POP POP JUMP JUMPDEST PUSH1 0x0 JUMPDEST DUP4 DUP2 LT ISZERO PUSH2 0xDC6 JUMPI DUP1 DUP3 ADD MLOAD DUP2 DUP5 ADD MSTORE PUSH1 0x20 DUP2 ADD SWAP1 POP PUSH2 0xDAB JUMP JUMPDEST DUP4 DUP2 GT ISZERO PUSH2 0xDD5 JUMPI PUSH1 0x0 DUP5 DUP5 ADD MSTORE JUMPDEST POP POP POP POP JUMP JUMPDEST PUSH1 0x0 PUSH1 0x2 DUP3 DIV SWAP1 POP PUSH1 0x1 DUP3 AND DUP1 PUSH2 0xDF3 JUMPI PUSH1 0x7F DUP3 AND SWAP2 POP JUMPDEST PUSH1 0x20 DUP3 LT DUP2 EQ ISZERO PUSH2 0xE07 JUMPI PUSH2 0xE06 PUSH2 0xE85 JUMP JUMPDEST JUMPDEST POP SWAP2 SWAP1 POP JUMP JUMPDEST PUSH1 0x0 PUSH2 0xE18 DUP3 PUSH2 0xD8F JUMP JUMPDEST SWAP2 POP PUSH32 0xFFFFFFFFFFFFFFFFFFFFFFFFFFFFFFFFFFFFFFFFFFFFFFFFFFFFFFFFFFFFFFFF DUP3 EQ ISZERO PUSH2 0xE4B JUMPI PUSH2 0xE4A PUSH2 0xE56 JUMP JUMPDEST JUMPDEST PUSH1 0x1 DUP3 ADD SWAP1 POP SWAP2 SWAP1 POP JUMP JUMPDEST PUSH32 0x4E487B7100000000000000000000000000000000000000000000000000000000 PUSH1 0x0 MSTORE PUSH1 0x11 PUSH1 0x4 MSTORE PUSH1 0x24 PUSH1 0x0 REVERT JUMPDEST PUSH32 0x4E487B7100000000000000000000000000000000000000000000000000000000 PUSH1 0x0 MSTORE PUSH1 0x22 PUSH1 0x4 MSTORE PUSH1 0x24 PUSH1 0x0 REVERT JUMPDEST PUSH32 0x4E487B7100000000000000000000000000000000000000000000000000000000 PUSH1 0x0 MSTORE PUSH1 0x41 PUSH1 0x4 MSTORE PUSH1 0x24 PUSH1 0x0 REVERT JUMPDEST PUSH1 0x0 PUSH1 0x1F NOT PUSH1 0x1F DUP4 ADD AND SWAP1 POP SWAP2 SWAP1 POP JUMP JUMPDEST PUSH2 0xEFD DUP2 PUSH2 0xD51 JUMP JUMPDEST DUP2 EQ PUSH2 0xF08 JUMPI PUSH1 0x0 DUP1 REVERT JUMPDEST POP JUMP JUMPDEST PUSH2 0xF14 DUP2 PUSH2 0xD8F JUMP JUMPDEST DUP2 EQ PUSH2 0xF1F JUMPI PUSH1 0x0 DUP1 REVERT JUMPDEST POP JUMP INVALID LOG2 PUSH5 0x6970667358 0x22 SLT KECCAK256 0x4F 0xA5 0x5E DUP1 DUP12 0xA7 ORIGIN SWAP9 DUP6 0xD2 0xD0 0xEA PUSH20 0xE8258A371F0A1AD5A6AC8B75DFC209E1EDB5F664 PUSH20 0x6F6C634300080000330000000000000000000000 "
				},
				"gasEstimates": {
					"creation": {
						"codeDepositCost": "785600",
						"executionCost": "818",
						"totalCost": "786418"
					},
					"external": {
						"chairperson()": "1256",
						"createBallot(string[])": "infinite",
						"getEndDate()": "1203",
						"getProposalStructure(uint256)": "infinite",
						"getStartDate()": "1226",
						"giveRightToVote(address)": "23341",
						"numOfProposals()": "1196",
						"proposals(uint256)": "infinite",
						"vote(uint256)": "infinite",
						"voters(address)": "infinite"
					},
					"internal": {
						"setEndDate()": "infinite",
						"setStartDate()": "20022"
					}
				},
				"methodIdentifiers": {
					"chairperson()": "2e4176cf",
					"createBallot(string[])": "836bc692",
					"getEndDate()": "b1356488",
					"getProposalStructure(uint256)": "e9d6c6da",
					"getStartDate()": "78f305c6",
					"giveRightToVote(address)": "9e7b8d61",
					"numOfProposals()": "5f570253",
					"proposals(uint256)": "013cf08b",
					"vote(uint256)": "0121b93f",
					"voters(address)": "a3ec138d"
				}
			},
			"storageLayout": {
				"storage": [
					{
						"astId": 3,
						"contract": "contracts/prop_test.sol:Ballot",
						"label": "chairperson",
						"offset": 0,
						"slot": "0",
						"type": "t_address"
					},
					{
						"astId": 5,
						"contract": "contracts/prop_test.sol:Ballot",
						"label": "startDate",
						"offset": 0,
						"slot": "1",
						"type": "t_uint256"
					},
					{
						"astId": 7,
						"contract": "contracts/prop_test.sol:Ballot",
						"label": "endDate",
						"offset": 0,
						"slot": "2",
						"type": "t_uint256"
					},
					{
						"astId": 9,
						"contract": "contracts/prop_test.sol:Ballot",
						"label": "numOfProposals",
						"offset": 0,
						"slot": "3",
						"type": "t_uint256"
					},
					{
						"astId": 28,
						"contract": "contracts/prop_test.sol:Ballot",
						"label": "voters",
						"offset": 0,
						"slot": "4",
						"type": "t_mapping(t_address,t_struct(Voter)18_storage)"
					},
					{
						"astId": 32,
						"contract": "contracts/prop_test.sol:Ballot",
						"label": "proposals",
						"offset": 0,
						"slot": "5",
						"type": "t_array(t_struct(Proposal)23_storage)dyn_storage"
					}
				],
				"types": {
					"t_address": {
						"encoding": "inplace",
						"label": "address",
						"numberOfBytes": "20"
					},
					"t_array(t_struct(Proposal)23_storage)dyn_storage": {
						"base": "t_struct(Proposal)23_storage",
						"encoding": "dynamic_array",
						"label": "struct Ballot.Proposal[]",
						"numberOfBytes": "32"
					},
					"t_bool": {
						"encoding": "inplace",
						"label": "bool",
						"numberOfBytes": "1"
					},
					"t_mapping(t_address,t_struct(Voter)18_storage)": {
						"encoding": "mapping",
						"key": "t_address",
						"label": "mapping(address => struct Ballot.Voter)",
						"numberOfBytes": "32",
						"value": "t_struct(Voter)18_storage"
					},
					"t_string_storage": {
						"encoding": "bytes",
						"label": "string",
						"numberOfBytes": "32"
					},
					"t_struct(Proposal)23_storage": {
						"encoding": "inplace",
						"label": "struct Ballot.Proposal",
						"members": [
							{
								"astId": 20,
								"contract": "contracts/prop_test.sol:Ballot",
								"label": "name",
								"offset": 0,
								"slot": "0",
								"type": "t_string_storage"
							},
							{
								"astId": 22,
								"contract": "contracts/prop_test.sol:Ballot",
								"label": "voteCount",
								"offset": 0,
								"slot": "1",
								"type": "t_uint256"
							}
						],
						"numberOfBytes": "64"
					},
					"t_struct(Voter)18_storage": {
						"encoding": "inplace",
						"label": "struct Ballot.Voter",
						"members": [
							{
								"astId": 11,
								"contract": "contracts/prop_test.sol:Ballot",
								"label": "weight",
								"offset": 0,
								"slot": "0",
								"type": "t_uint256"
							},
							{
								"astId": 13,
								"contract": "contracts/prop_test.sol:Ballot",
								"label": "voted",
								"offset": 0,
								"slot": "1",
								"type": "t_bool"
							},
							{
								"astId": 15,
								"contract": "contracts/prop_test.sol:Ballot",
								"label": "delegate",
								"offset": 1,
								"slot": "1",
								"type": "t_address"
							},
							{
								"astId": 17,
								"contract": "contracts/prop_test.sol:Ballot",
								"label": "vote",
								"offset": 0,
								"slot": "2",
								"type": "t_uint256"
							}
						],
						"numberOfBytes": "96"
					},
					"t_uint256": {
						"encoding": "inplace",
						"label": "uint256",
						"numberOfBytes": "32"
					}
				}
			},
			"userdoc": {
				"kind": "user",
				"methods": {},
				"version": 1
			}
		}
	}
}