{
	"contracts/fun_stuff.sol": {
		"VoteSaving": {
			"abi": [
				{
					"inputs": [],
					"stateMutability": "nonpayable",
					"type": "constructor"
				},
				{
					"anonymous": false,
					"inputs": [
						{
							"indexed": true,
							"internalType": "uint256",
							"name": "_memberId",
							"type": "uint256"
						}
					],
					"name": "savingEvent",
					"type": "event"
				},
				{
					"inputs": [
						{
							"internalType": "string",
							"name": "_name",
							"type": "string"
						},
						{
							"internalType": "bool",
							"name": "_isVote",
							"type": "bool"
						}
					],
					"name": "addMember",
					"outputs": [],
					"stateMutability": "nonpayable",
					"type": "function"
				},
				{
					"inputs": [
						{
							"internalType": "bool",
							"name": "_isVote",
							"type": "bool"
						}
					],
					"name": "getCountOfVoted",
					"outputs": [],
					"stateMutability": "nonpayable",
					"type": "function"
				},
				{
					"inputs": [
						{
							"internalType": "uint256",
							"name": "_memberId",
							"type": "uint256"
						}
					],
					"name": "getMemberStructure",
					"outputs": [
						{
							"components": [
								{
									"internalType": "uint256",
									"name": "id",
									"type": "uint256"
								},
								{
									"internalType": "string",
									"name": "name",
									"type": "string"
								},
								{
									"internalType": "bool",
									"name": "isVoted",
									"type": "bool"
								}
							],
							"internalType": "struct VoteSaving.Member",
							"name": "",
							"type": "tuple"
						}
					],
					"stateMutability": "view",
					"type": "function"
				},
				{
					"inputs": [],
					"name": "getMemberValue",
					"outputs": [
						{
							"internalType": "uint256[]",
							"name": "",
							"type": "uint256[]"
						},
						{
							"internalType": "string[]",
							"name": "",
							"type": "string[]"
						},
						{
							"internalType": "bool[]",
							"name": "",
							"type": "bool[]"
						}
					],
					"stateMutability": "view",
					"type": "function"
				},
				{
					"inputs": [],
					"name": "memberCount",
					"outputs": [
						{
							"internalType": "uint256",
							"name": "",
							"type": "uint256"
						}
					],
					"stateMutability": "view",
					"type": "function"
				},
				{
					"inputs": [
						{
							"internalType": "uint256",
							"name": "",
							"type": "uint256"
						}
					],
					"name": "members",
					"outputs": [
						{
							"internalType": "uint256",
							"name": "id",
							"type": "uint256"
						},
						{
							"internalType": "string",
							"name": "name",
							"type": "string"
						},
						{
							"internalType": "bool",
							"name": "isVoted",
							"type": "bool"
						}
					],
					"stateMutability": "view",
					"type": "function"
				},
				{
					"inputs": [
						{
							"internalType": "uint256",
							"name": "_memberId",
							"type": "uint256"
						},
						{
							"internalType": "bool",
							"name": "_isVote",
							"type": "bool"
						}
					],
					"name": "setVote",
					"outputs": [],
					"stateMutability": "nonpayable",
					"type": "function"
				},
				{
					"inputs": [],
					"name": "votedCount",
					"outputs": [
						{
							"internalType": "uint256",
							"name": "",
							"type": "uint256"
						}
					],
					"stateMutability": "view",
					"type": "function"
				}
			],
			"devdoc": {
				"methods": {}
			},
			"evm": {
				"assembly": "    /* \"contracts/fun_stuff.sol\":95:1989  contract VoteSaving {\r... */\n  mstore(0x40, 0x80)\n    /* \"contracts/fun_stuff.sol\":369:714  constructor() public {\r... */\n  callvalue\n    /* \"--CODEGEN--\":8:17   */\n  dup1\n    /* \"--CODEGEN--\":5:7   */\n  iszero\n  tag_1\n  jumpi\n    /* \"--CODEGEN--\":30:31   */\n  0x00\n    /* \"--CODEGEN--\":27:28   */\n  dup1\n    /* \"--CODEGEN--\":20:32   */\n  revert\n    /* \"--CODEGEN--\":5:7   */\ntag_1:\n    /* \"contracts/fun_stuff.sol\":369:714  constructor() public {\r... */\n  pop\n    /* \"contracts/fun_stuff.sol\":415:416  0 */\n  0x00\n    /* \"contracts/fun_stuff.sol\":401:412  memberCount */\n  0x01\n    /* \"contracts/fun_stuff.sol\":401:416  memberCount = 0 */\n  dup2\n  swap1\n  sstore\n  pop\n    /* \"contracts/fun_stuff.sol\":427:450  addMember(\"Vlad\", true) */\n  tag_4\n  mload(0x40)\n  dup1\n  0x40\n  add\n  0x40\n  mstore\n  dup1\n  0x04\n  dup2\n  mstore\n  0x20\n  add\n  0x566c616400000000000000000000000000000000000000000000000000000000\n  dup2\n  mstore\n  pop\n    /* \"contracts/fun_stuff.sol\":445:449  true */\n  0x01\n    /* \"contracts/fun_stuff.sol\":427:436  addMember */\n  shl(0x20, tag_5)\n    /* \"contracts/fun_stuff.sol\":427:450  addMember(\"Vlad\", true) */\n  0x20\n  shr\n  jump\t// in\ntag_4:\n    /* \"contracts/fun_stuff.sol\":461:487  addMember(\"Nastya\", false) */\n  tag_6\n  mload(0x40)\n  dup1\n  0x40\n  add\n  0x40\n  mstore\n  dup1\n  0x06\n  dup2\n  mstore\n  0x20\n  add\n  0x4e61737479610000000000000000000000000000000000000000000000000000\n  dup2\n  mstore\n  pop\n    /* \"contracts/fun_stuff.sol\":481:486  false */\n  0x00\n    /* \"contracts/fun_stuff.sol\":461:470  addMember */\n  shl(0x20, tag_5)\n    /* \"contracts/fun_stuff.sol\":461:487  addMember(\"Nastya\", false) */\n  0x20\n  shr\n  jump\t// in\ntag_6:\n    /* \"contracts/fun_stuff.sol\":498:522  addMember(\"Vlad1\", true) */\n  tag_7\n  mload(0x40)\n  dup1\n  0x40\n  add\n  0x40\n  mstore\n  dup1\n  0x05\n  dup2\n  mstore\n  0x20\n  add\n  0x566c616431000000000000000000000000000000000000000000000000000000\n  dup2\n  mstore\n  pop\n    /* \"contracts/fun_stuff.sol\":517:521  true */\n  0x01\n    /* \"contracts/fun_stuff.sol\":498:507  addMember */\n  shl(0x20, tag_5)\n    /* \"contracts/fun_stuff.sol\":498:522  addMember(\"Vlad1\", true) */\n  0x20\n  shr\n  jump\t// in\ntag_7:\n    /* \"contracts/fun_stuff.sol\":533:560  addMember(\"Nastya2\", false) */\n  tag_8\n  mload(0x40)\n  dup1\n  0x40\n  add\n  0x40\n  mstore\n  dup1\n  0x07\n  dup2\n  mstore\n  0x20\n  add\n  0x4e61737479613200000000000000000000000000000000000000000000000000\n  dup2\n  mstore\n  pop\n    /* \"contracts/fun_stuff.sol\":554:559  false */\n  0x00\n    /* \"contracts/fun_stuff.sol\":533:542  addMember */\n  shl(0x20, tag_5)\n    /* \"contracts/fun_stuff.sol\":533:560  addMember(\"Nastya2\", false) */\n  0x20\n  shr\n  jump\t// in\ntag_8:\n    /* \"contracts/fun_stuff.sol\":571:595  addMember(\"Vlad3\", true) */\n  tag_9\n  mload(0x40)\n  dup1\n  0x40\n  add\n  0x40\n  mstore\n  dup1\n  0x05\n  dup2\n  mstore\n  0x20\n  add\n  0x566c616433000000000000000000000000000000000000000000000000000000\n  dup2\n  mstore\n  pop\n    /* \"contracts/fun_stuff.sol\":590:594  true */\n  0x01\n    /* \"contracts/fun_stuff.sol\":571:580  addMember */\n  shl(0x20, tag_5)\n    /* \"contracts/fun_stuff.sol\":571:595  addMember(\"Vlad3\", true) */\n  0x20\n  shr\n  jump\t// in\ntag_9:\n    /* \"contracts/fun_stuff.sol\":606:633  addMember(\"Nastya4\", false) */\n  tag_10\n  mload(0x40)\n  dup1\n  0x40\n  add\n  0x40\n  mstore\n  dup1\n  0x07\n  dup2\n  mstore\n  0x20\n  add\n  0x4e61737479613400000000000000000000000000000000000000000000000000\n  dup2\n  mstore\n  pop\n    /* \"contracts/fun_stuff.sol\":627:632  false */\n  0x00\n    /* \"contracts/fun_stuff.sol\":606:615  addMember */\n  shl(0x20, tag_5)\n    /* \"contracts/fun_stuff.sol\":606:633  addMember(\"Nastya4\", false) */\n  0x20\n  shr\n  jump\t// in\ntag_10:\n    /* \"contracts/fun_stuff.sol\":644:668  addMember(\"Vlad5\", true) */\n  tag_11\n  mload(0x40)\n  dup1\n  0x40\n  add\n  0x40\n  mstore\n  dup1\n  0x05\n  dup2\n  mstore\n  0x20\n  add\n  0x566c616435000000000000000000000000000000000000000000000000000000\n  dup2\n  mstore\n  pop\n    /* \"contracts/fun_stuff.sol\":663:667  true */\n  0x01\n    /* \"contracts/fun_stuff.sol\":644:653  addMember */\n  shl(0x20, tag_5)\n    /* \"contracts/fun_stuff.sol\":644:668  addMember(\"Vlad5\", true) */\n  0x20\n  shr\n  jump\t// in\ntag_11:\n    /* \"contracts/fun_stuff.sol\":679:706  addMember(\"Nastya6\", false) */\n  tag_12\n  mload(0x40)\n  dup1\n  0x40\n  add\n  0x40\n  mstore\n  dup1\n  0x07\n  dup2\n  mstore\n  0x20\n  add\n  0x4e61737479613600000000000000000000000000000000000000000000000000\n  dup2\n  mstore\n  pop\n    /* \"contracts/fun_stuff.sol\":700:705  false */\n  0x00\n    /* \"contracts/fun_stuff.sol\":679:688  addMember */\n  shl(0x20, tag_5)\n    /* \"contracts/fun_stuff.sol\":679:706  addMember(\"Nastya6\", false) */\n  0x20\n  shr\n  jump\t// in\ntag_12:\n    /* \"contracts/fun_stuff.sol\":95:1989  contract VoteSaving {\r... */\n  jump(tag_13)\n    /* \"contracts/fun_stuff.sol\":722:884  function addMember(string memory _name, bool _isVote) public {\r... */\ntag_5:\n    /* \"contracts/fun_stuff.sol\":817:852  Member(memberCount, _name, _isVote) */\n  mload(0x40)\n  dup1\n  0x60\n  add\n  0x40\n  mstore\n  dup1\n    /* \"contracts/fun_stuff.sol\":824:835  memberCount */\n  sload(0x01)\n    /* \"contracts/fun_stuff.sol\":817:852  Member(memberCount, _name, _isVote) */\n  dup2\n  mstore\n  0x20\n  add\n    /* \"contracts/fun_stuff.sol\":837:842  _name */\n  dup4\n    /* \"contracts/fun_stuff.sol\":817:852  Member(memberCount, _name, _isVote) */\n  dup2\n  mstore\n  0x20\n  add\n    /* \"contracts/fun_stuff.sol\":844:851  _isVote */\n  dup3\n    /* \"contracts/fun_stuff.sol\":817:852  Member(memberCount, _name, _isVote) */\n  iszero\n  iszero\n  dup2\n  mstore\n  pop\n    /* \"contracts/fun_stuff.sol\":794:801  members */\n  0x00\n    /* \"contracts/fun_stuff.sol\":794:814  members[memberCount] */\n  dup1\n    /* \"contracts/fun_stuff.sol\":802:813  memberCount */\n  sload(0x01)\n    /* \"contracts/fun_stuff.sol\":794:814  members[memberCount] */\n  dup2\n  mstore\n  0x20\n  add\n  swap1\n  dup2\n  mstore\n  0x20\n  add\n  0x00\n  keccak256\n    /* \"contracts/fun_stuff.sol\":794:852  members[memberCount] = Member(memberCount, _name, _isVote) */\n  0x00\n  dup3\n  add\n  mload\n  dup2\n  0x00\n  add\n  sstore\n  0x20\n  dup3\n  add\n  mload\n  dup2\n  0x01\n  add\n  swap1\n  dup1\n  mload\n  swap1\n  0x20\n  add\n  swap1\n  tag_15\n  swap3\n  swap2\n  swap1\n  tag_16\n  jump\t// in\ntag_15:\n  pop\n  0x40\n  dup3\n  add\n  mload\n  dup2\n  0x02\n  add\n  exp(0x0100, 0x00)\n  dup2\n  sload\n  dup2\n  0xff\n  mul\n  not\n  and\n  swap1\n  dup4\n  iszero\n  iszero\n  mul\n  or\n  swap1\n  sstore\n  pop\n  swap1\n  pop\n  pop\n    /* \"contracts/fun_stuff.sol\":863:874  memberCount */\n  0x01\n  0x00\n    /* \"contracts/fun_stuff.sol\":863:876  memberCount++ */\n  dup2\n  sload\n  dup1\n  swap3\n  swap2\n  swap1\n  0x01\n  add\n  swap2\n  swap1\n  pop\n  sstore\n  pop\n    /* \"contracts/fun_stuff.sol\":722:884  function addMember(string memory _name, bool _isVote) public {\r... */\n  pop\n  pop\n  jump\t// out\n    /* \"contracts/fun_stuff.sol\":95:1989  contract VoteSaving {\r... */\ntag_16:\n  dup3\n  dup1\n  sload\n  0x01\n  dup2\n  0x01\n  and\n  iszero\n  0x0100\n  mul\n  sub\n  and\n  0x02\n  swap1\n  div\n  swap1\n  0x00\n  mstore\n  keccak256(0x00, 0x20)\n  swap1\n  0x1f\n  add\n  0x20\n  swap1\n  div\n  dup2\n  add\n  swap3\n  dup3\n  0x1f\n  lt\n  tag_18\n  jumpi\n  dup1\n  mload\n  not(0xff)\n  and\n  dup4\n  dup1\n  add\n  or\n  dup6\n  sstore\n  jump(tag_17)\ntag_18:\n  dup3\n  dup1\n  add\n  0x01\n  add\n  dup6\n  sstore\n  dup3\n  iszero\n  tag_17\n  jumpi\n  swap2\n  dup3\n  add\ntag_19:\n  dup3\n  dup2\n  gt\n  iszero\n  tag_20\n  jumpi\n  dup3\n  mload\n  dup3\n  sstore\n  swap2\n  0x20\n  add\n  swap2\n  swap1\n  0x01\n  add\n  swap1\n  jump(tag_19)\ntag_20:\ntag_17:\n  pop\n  swap1\n  pop\n  tag_21\n  swap2\n  swap1\n  tag_22\n  jump\t// in\ntag_21:\n  pop\n  swap1\n  jump\t// out\ntag_22:\n  tag_23\n  swap2\n  swap1\ntag_24:\n  dup1\n  dup3\n  gt\n  iszero\n  tag_25\n  jumpi\n  0x00\n  dup2\n  0x00\n  swap1\n  sstore\n  pop\n  0x01\n  add\n  jump(tag_24)\ntag_25:\n  pop\n  swap1\n  jump\ntag_23:\n  swap1\n  jump\t// out\ntag_13:\n  dataSize(sub_0)\n  dup1\n  dataOffset(sub_0)\n  0x00\n  codecopy\n  0x00\n  return\nstop\n\nsub_0: assembly {\n        /* \"contracts/fun_stuff.sol\":95:1989  contract VoteSaving {\r... */\n      mstore(0x40, 0x80)\n      callvalue\n        /* \"--CODEGEN--\":8:17   */\n      dup1\n        /* \"--CODEGEN--\":5:7   */\n      iszero\n      tag_1\n      jumpi\n        /* \"--CODEGEN--\":30:31   */\n      0x00\n        /* \"--CODEGEN--\":27:28   */\n      dup1\n        /* \"--CODEGEN--\":20:32   */\n      revert\n        /* \"--CODEGEN--\":5:7   */\n    tag_1:\n        /* \"contracts/fun_stuff.sol\":95:1989  contract VoteSaving {\r... */\n      pop\n      jumpi(tag_2, lt(calldatasize, 0x04))\n      shr(0xe0, calldataload(0x00))\n      dup1\n      0xab7a2015\n      gt\n      tag_11\n      jumpi\n      dup1\n      0xab7a2015\n      eq\n      tag_7\n      jumpi\n      dup1\n      0xd3516b7e\n      eq\n      tag_8\n      jumpi\n      dup1\n      0xf0232d0a\n      eq\n      tag_9\n      jumpi\n      dup1\n      0xf97698f8\n      eq\n      tag_10\n      jumpi\n      jump(tag_2)\n    tag_11:\n      dup1\n      0x11aee380\n      eq\n      tag_3\n      jumpi\n      dup1\n      0x5daf08ca\n      eq\n      tag_4\n      jumpi\n      dup1\n      0x6f416d59\n      eq\n      tag_5\n      jumpi\n      dup1\n      0x92c68389\n      eq\n      tag_6\n      jumpi\n    tag_2:\n      0x00\n      dup1\n      revert\n        /* \"contracts/fun_stuff.sol\":308:331  uint public memberCount */\n    tag_3:\n      tag_12\n      tag_13\n      jump\t// in\n    tag_12:\n      mload(0x40)\n      tag_14\n      swap2\n      swap1\n      jump(tag_15)\n    tag_14:\n      mload(0x40)\n      dup1\n      swap2\n      sub\n      swap1\n      return\n        /* \"contracts/fun_stuff.sol\":214:253  mapping (uint => Member) public members */\n    tag_4:\n      tag_16\n      0x04\n      dup1\n      calldatasize\n      sub\n      tag_17\n      swap2\n      swap1\n      dup2\n      add\n      swap1\n      jump(tag_18)\n    tag_17:\n      tag_19\n      jump\t// in\n    tag_16:\n      mload(0x40)\n      tag_20\n      swap4\n      swap3\n      swap2\n      swap1\n      jump(tag_21)\n    tag_20:\n      mload(0x40)\n      dup1\n      swap2\n      sub\n      swap1\n      return\n        /* \"contracts/fun_stuff.sol\":1440:1981  function getMemberValue() public view returns(uint[] memory, string[] memory, bool[] memory) {\r... */\n    tag_5:\n      tag_22\n      tag_23\n      jump\t// in\n    tag_22:\n      mload(0x40)\n      tag_24\n      swap4\n      swap3\n      swap2\n      swap1\n      jump(tag_25)\n    tag_24:\n      mload(0x40)\n      dup1\n      swap2\n      sub\n      swap1\n      return\n        /* \"contracts/fun_stuff.sol\":722:884  function addMember(string memory _name, bool _isVote) public {\r... */\n    tag_6:\n      tag_26\n      0x04\n      dup1\n      calldatasize\n      sub\n      tag_27\n      swap2\n      swap1\n      dup2\n      add\n      swap1\n      jump(tag_28)\n    tag_27:\n      tag_29\n      jump\t// in\n    tag_26:\n      stop\n        /* \"contracts/fun_stuff.sol\":1009:1220  function getCountOfVoted(bool _isVote) public {\r... */\n    tag_7:\n      tag_30\n      0x04\n      dup1\n      calldatasize\n      sub\n      tag_31\n      swap2\n      swap1\n      dup2\n      add\n      swap1\n      jump(tag_32)\n    tag_31:\n      tag_33\n      jump\t// in\n    tag_30:\n      stop\n        /* \"contracts/fun_stuff.sol\":892:1001  function setVote(uint _memberId, bool _isVote) public {\r... */\n    tag_8:\n      tag_34\n      0x04\n      dup1\n      calldatasize\n      sub\n      tag_35\n      swap2\n      swap1\n      dup2\n      add\n      swap1\n      jump(tag_36)\n    tag_35:\n      tag_37\n      jump\t// in\n    tag_34:\n      stop\n        /* \"contracts/fun_stuff.sol\":338:360  uint public votedCount */\n    tag_9:\n      tag_38\n      tag_39\n      jump\t// in\n    tag_38:\n      mload(0x40)\n      tag_40\n      swap2\n      swap1\n      jump(tag_15)\n    tag_40:\n      mload(0x40)\n      dup1\n      swap2\n      sub\n      swap1\n      return\n        /* \"contracts/fun_stuff.sol\":1270:1392  function getMemberStructure(uint _memberId) public view returns(Member memory){\r... */\n    tag_10:\n      tag_41\n      0x04\n      dup1\n      calldatasize\n      sub\n      tag_42\n      swap2\n      swap1\n      dup2\n      add\n      swap1\n      jump(tag_18)\n    tag_42:\n      tag_43\n      jump\t// in\n    tag_41:\n      mload(0x40)\n      tag_44\n      swap2\n      swap1\n      jump(tag_45)\n    tag_44:\n      mload(0x40)\n      dup1\n      swap2\n      sub\n      swap1\n      return\n        /* \"contracts/fun_stuff.sol\":308:331  uint public memberCount */\n    tag_13:\n      sload(0x01)\n      dup2\n      jump\t// out\n        /* \"contracts/fun_stuff.sol\":214:253  mapping (uint => Member) public members */\n    tag_19:\n      mstore(0x20, 0x00)\n      dup1\n      0x00\n      mstore\n      keccak256(0x00, 0x40)\n      0x00\n      swap2\n      pop\n      swap1\n      pop\n      dup1\n      0x00\n      add\n      sload\n      swap1\n      dup1\n      0x01\n      add\n      dup1\n      sload\n      0x01\n      dup2\n      0x01\n      and\n      iszero\n      0x0100\n      mul\n      sub\n      and\n      0x02\n      swap1\n      div\n      dup1\n      0x1f\n      add\n      0x20\n      dup1\n      swap2\n      div\n      mul\n      0x20\n      add\n      mload(0x40)\n      swap1\n      dup2\n      add\n      0x40\n      mstore\n      dup1\n      swap3\n      swap2\n      swap1\n      dup2\n      dup2\n      mstore\n      0x20\n      add\n      dup3\n      dup1\n      sload\n      0x01\n      dup2\n      0x01\n      and\n      iszero\n      0x0100\n      mul\n      sub\n      and\n      0x02\n      swap1\n      div\n      dup1\n      iszero\n      tag_46\n      jumpi\n      dup1\n      0x1f\n      lt\n      tag_47\n      jumpi\n      0x0100\n      dup1\n      dup4\n      sload\n      div\n      mul\n      dup4\n      mstore\n      swap2\n      0x20\n      add\n      swap2\n      jump(tag_46)\n    tag_47:\n      dup3\n      add\n      swap2\n      swap1\n      0x00\n      mstore\n      keccak256(0x00, 0x20)\n      swap1\n    tag_48:\n      dup2\n      sload\n      dup2\n      mstore\n      swap1\n      0x01\n      add\n      swap1\n      0x20\n      add\n      dup1\n      dup4\n      gt\n      tag_48\n      jumpi\n      dup3\n      swap1\n      sub\n      0x1f\n      and\n      dup3\n      add\n      swap2\n    tag_46:\n      pop\n      pop\n      pop\n      pop\n      pop\n      swap1\n      dup1\n      0x02\n      add\n      0x00\n      swap1\n      sload\n      swap1\n      0x0100\n      exp\n      swap1\n      div\n      0xff\n      and\n      swap1\n      pop\n      dup4\n      jump\t// out\n        /* \"contracts/fun_stuff.sol\":1440:1981  function getMemberValue() public view returns(uint[] memory, string[] memory, bool[] memory) {\r... */\n    tag_23:\n        /* \"contracts/fun_stuff.sol\":1486:1499  uint[] memory */\n      0x60\n        /* \"contracts/fun_stuff.sol\":1501:1516  string[] memory */\n      dup1\n        /* \"contracts/fun_stuff.sol\":1518:1531  bool[] memory */\n      0x60\n        /* \"contracts/fun_stuff.sol\":1544:1565  uint[]      memory id */\n      dup1\n        /* \"contracts/fun_stuff.sol\":1579:1590  memberCount */\n      sload(0x01)\n        /* \"contracts/fun_stuff.sol\":1568:1591  new uint[](memberCount) */\n      mload(0x40)\n      swap1\n      dup1\n      dup3\n      mstore\n      dup1\n      0x20\n      mul\n      0x20\n      add\n      dup3\n      add\n      0x40\n      mstore\n      dup1\n      iszero\n      tag_50\n      jumpi\n      dup2\n      0x20\n      add\n        /* \"--CODEGEN--\":29:31   */\n      0x20\n        /* \"--CODEGEN--\":21:27   */\n      dup3\n        /* \"--CODEGEN--\":17:32   */\n      mul\n        /* \"--CODEGEN--\":117:121   */\n      dup1\n        /* \"--CODEGEN--\":105:115   */\n      codesize\n        /* \"--CODEGEN--\":97:103   */\n      dup4\n        /* \"--CODEGEN--\":88:122   */\n      codecopy\n        /* \"--CODEGEN--\":148:152   */\n      dup1\n        /* \"--CODEGEN--\":140:146   */\n      dup3\n        /* \"--CODEGEN--\":136:153   */\n      add\n        /* \"--CODEGEN--\":126:153   */\n      swap2\n      pop\n        /* \"--CODEGEN--\":0:157   */\n      pop\n        /* \"contracts/fun_stuff.sol\":1568:1591  new uint[](memberCount) */\n      swap1\n      pop\n    tag_50:\n      pop\n        /* \"contracts/fun_stuff.sol\":1544:1591  uint[]      memory id = new uint[](memberCount) */\n      swap1\n      pop\n        /* \"contracts/fun_stuff.sol\":1602:1625  string[]    memory name */\n      0x60\n        /* \"contracts/fun_stuff.sol\":1641:1652  memberCount */\n      sload(0x01)\n        /* \"contracts/fun_stuff.sol\":1628:1653  new string[](memberCount) */\n      mload(0x40)\n      swap1\n      dup1\n      dup3\n      mstore\n      dup1\n      0x20\n      mul\n      0x20\n      add\n      dup3\n      add\n      0x40\n      mstore\n      dup1\n      iszero\n      tag_51\n      jumpi\n      dup2\n      0x20\n      add\n    tag_52:\n      0x60\n      dup2\n      mstore\n      0x20\n      add\n      swap1\n      0x01\n      swap1\n      sub\n      swap1\n      dup2\n      tag_52\n      jumpi\n      swap1\n      pop\n    tag_51:\n      pop\n        /* \"contracts/fun_stuff.sol\":1602:1653  string[]    memory name = new string[](memberCount) */\n      swap1\n      pop\n        /* \"contracts/fun_stuff.sol\":1664:1690  bool[]      memory isVoted */\n      0x60\n        /* \"contracts/fun_stuff.sol\":1704:1715  memberCount */\n      sload(0x01)\n        /* \"contracts/fun_stuff.sol\":1693:1716  new bool[](memberCount) */\n      mload(0x40)\n      swap1\n      dup1\n      dup3\n      mstore\n      dup1\n      0x20\n      mul\n      0x20\n      add\n      dup3\n      add\n      0x40\n      mstore\n      dup1\n      iszero\n      tag_53\n      jumpi\n      dup2\n      0x20\n      add\n        /* \"--CODEGEN--\":29:31   */\n      0x20\n        /* \"--CODEGEN--\":21:27   */\n      dup3\n        /* \"--CODEGEN--\":17:32   */\n      mul\n        /* \"--CODEGEN--\":117:121   */\n      dup1\n        /* \"--CODEGEN--\":105:115   */\n      codesize\n        /* \"--CODEGEN--\":97:103   */\n      dup4\n        /* \"--CODEGEN--\":88:122   */\n      codecopy\n        /* \"--CODEGEN--\":148:152   */\n      dup1\n        /* \"--CODEGEN--\":140:146   */\n      dup3\n        /* \"--CODEGEN--\":136:153   */\n      add\n        /* \"--CODEGEN--\":126:153   */\n      swap2\n      pop\n        /* \"--CODEGEN--\":0:157   */\n      pop\n        /* \"contracts/fun_stuff.sol\":1693:1716  new bool[](memberCount) */\n      swap1\n      pop\n    tag_53:\n      pop\n        /* \"contracts/fun_stuff.sol\":1664:1716  bool[]      memory isVoted = new bool[](memberCount) */\n      swap1\n      pop\n        /* \"contracts/fun_stuff.sol\":1732:1738  uint i */\n      0x00\n        /* \"contracts/fun_stuff.sol\":1741:1742  0 */\n      dup1\n        /* \"contracts/fun_stuff.sol\":1732:1742  uint i = 0 */\n      swap1\n      pop\n        /* \"contracts/fun_stuff.sol\":1727:1937  for (uint i = 0; i < memberCount; i++) {\r... */\n    tag_54:\n        /* \"contracts/fun_stuff.sol\":1748:1759  memberCount */\n      sload(0x01)\n        /* \"contracts/fun_stuff.sol\":1744:1745  i */\n      dup2\n        /* \"contracts/fun_stuff.sol\":1744:1759  i < memberCount */\n      lt\n        /* \"contracts/fun_stuff.sol\":1727:1937  for (uint i = 0; i < memberCount; i++) {\r... */\n      iszero\n      tag_55\n      jumpi\n        /* \"contracts/fun_stuff.sol\":1781:1802  Member storage member */\n      0x00\n        /* \"contracts/fun_stuff.sol\":1805:1812  members */\n      dup1\n        /* \"contracts/fun_stuff.sol\":1805:1815  members[i] */\n      0x00\n        /* \"contracts/fun_stuff.sol\":1813:1814  i */\n      dup4\n        /* \"contracts/fun_stuff.sol\":1805:1815  members[i] */\n      dup2\n      mstore\n      0x20\n      add\n      swap1\n      dup2\n      mstore\n      0x20\n      add\n      0x00\n      keccak256\n        /* \"contracts/fun_stuff.sol\":1781:1815  Member storage member = members[i] */\n      swap1\n      pop\n        /* \"contracts/fun_stuff.sol\":1838:1844  member */\n      dup1\n        /* \"contracts/fun_stuff.sol\":1838:1847  member.id */\n      0x00\n      add\n      sload\n        /* \"contracts/fun_stuff.sol\":1830:1832  id */\n      dup6\n        /* \"contracts/fun_stuff.sol\":1833:1834  i */\n      dup4\n        /* \"contracts/fun_stuff.sol\":1830:1835  id[i] */\n      dup2\n      mload\n      dup2\n      lt\n      tag_57\n      jumpi\n      invalid\n    tag_57:\n      0x20\n      mul\n      0x20\n      add\n      add\n        /* \"contracts/fun_stuff.sol\":1830:1847  id[i] = member.id */\n      dup2\n      dup2\n      mstore\n      pop\n      pop\n        /* \"contracts/fun_stuff.sol\":1872:1878  member */\n      dup1\n        /* \"contracts/fun_stuff.sol\":1872:1883  member.name */\n      0x01\n      add\n        /* \"contracts/fun_stuff.sol\":1862:1883  name[i] = member.name */\n      dup1\n      sload\n      0x01\n      dup2\n      0x01\n      and\n      iszero\n      0x0100\n      mul\n      sub\n      and\n      0x02\n      swap1\n      div\n      dup1\n      0x1f\n      add\n      0x20\n      dup1\n      swap2\n      div\n      mul\n      0x20\n      add\n      mload(0x40)\n      swap1\n      dup2\n      add\n      0x40\n      mstore\n      dup1\n      swap3\n      swap2\n      swap1\n      dup2\n      dup2\n      mstore\n      0x20\n      add\n      dup3\n      dup1\n      sload\n      0x01\n      dup2\n      0x01\n      and\n      iszero\n      0x0100\n      mul\n      sub\n      and\n      0x02\n      swap1\n      div\n      dup1\n      iszero\n      tag_58\n      jumpi\n      dup1\n      0x1f\n      lt\n      tag_59\n      jumpi\n      0x0100\n      dup1\n      dup4\n      sload\n      div\n      mul\n      dup4\n      mstore\n      swap2\n      0x20\n      add\n      swap2\n      jump(tag_58)\n    tag_59:\n      dup3\n      add\n      swap2\n      swap1\n      0x00\n      mstore\n      keccak256(0x00, 0x20)\n      swap1\n    tag_60:\n      dup2\n      sload\n      dup2\n      mstore\n      swap1\n      0x01\n      add\n      swap1\n      0x20\n      add\n      dup1\n      dup4\n      gt\n      tag_60\n      jumpi\n      dup3\n      swap1\n      sub\n      0x1f\n      and\n      dup3\n      add\n      swap2\n    tag_58:\n      pop\n      pop\n      pop\n      pop\n      pop\n        /* \"contracts/fun_stuff.sol\":1862:1866  name */\n      dup5\n        /* \"contracts/fun_stuff.sol\":1867:1868  i */\n      dup4\n        /* \"contracts/fun_stuff.sol\":1862:1869  name[i] */\n      dup2\n      mload\n      dup2\n      lt\n      tag_61\n      jumpi\n      invalid\n    tag_61:\n      0x20\n      mul\n      0x20\n      add\n      add\n        /* \"contracts/fun_stuff.sol\":1862:1883  name[i] = member.name */\n      dup2\n      swap1\n      mstore\n      pop\n        /* \"contracts/fun_stuff.sol\":1911:1917  member */\n      dup1\n        /* \"contracts/fun_stuff.sol\":1911:1925  member.isVoted */\n      0x02\n      add\n      0x00\n      swap1\n      sload\n      swap1\n      0x0100\n      exp\n      swap1\n      div\n      0xff\n      and\n        /* \"contracts/fun_stuff.sol\":1898:1905  isVoted */\n      dup4\n        /* \"contracts/fun_stuff.sol\":1906:1907  i */\n      dup4\n        /* \"contracts/fun_stuff.sol\":1898:1908  isVoted[i] */\n      dup2\n      mload\n      dup2\n      lt\n      tag_62\n      jumpi\n      invalid\n    tag_62:\n      0x20\n      mul\n      0x20\n      add\n      add\n        /* \"contracts/fun_stuff.sol\":1898:1925  isVoted[i] = member.isVoted */\n      swap1\n      iszero\n      iszero\n      swap1\n      dup2\n      iszero\n      iszero\n      dup2\n      mstore\n      pop\n      pop\n        /* \"contracts/fun_stuff.sol\":1727:1937  for (uint i = 0; i < memberCount; i++) {\r... */\n      pop\n        /* \"contracts/fun_stuff.sol\":1761:1764  i++ */\n      dup1\n      dup1\n      0x01\n      add\n      swap2\n      pop\n      pop\n        /* \"contracts/fun_stuff.sol\":1727:1937  for (uint i = 0; i < memberCount; i++) {\r... */\n      jump(tag_54)\n    tag_55:\n      pop\n        /* \"contracts/fun_stuff.sol\":1955:1957  id */\n      dup3\n        /* \"contracts/fun_stuff.sol\":1959:1963  name */\n      dup3\n        /* \"contracts/fun_stuff.sol\":1965:1972  isVoted */\n      dup3\n        /* \"contracts/fun_stuff.sol\":1947:1973  return (id, name, isVoted) */\n      swap6\n      pop\n      swap6\n      pop\n      swap6\n      pop\n      pop\n      pop\n      pop\n        /* \"contracts/fun_stuff.sol\":1440:1981  function getMemberValue() public view returns(uint[] memory, string[] memory, bool[] memory) {\r... */\n      swap1\n      swap2\n      swap3\n      jump\t// out\n        /* \"contracts/fun_stuff.sol\":722:884  function addMember(string memory _name, bool _isVote) public {\r... */\n    tag_29:\n        /* \"contracts/fun_stuff.sol\":817:852  Member(memberCount, _name, _isVote) */\n      mload(0x40)\n      dup1\n      0x60\n      add\n      0x40\n      mstore\n      dup1\n        /* \"contracts/fun_stuff.sol\":824:835  memberCount */\n      sload(0x01)\n        /* \"contracts/fun_stuff.sol\":817:852  Member(memberCount, _name, _isVote) */\n      dup2\n      mstore\n      0x20\n      add\n        /* \"contracts/fun_stuff.sol\":837:842  _name */\n      dup4\n        /* \"contracts/fun_stuff.sol\":817:852  Member(memberCount, _name, _isVote) */\n      dup2\n      mstore\n      0x20\n      add\n        /* \"contracts/fun_stuff.sol\":844:851  _isVote */\n      dup3\n        /* \"contracts/fun_stuff.sol\":817:852  Member(memberCount, _name, _isVote) */\n      iszero\n      iszero\n      dup2\n      mstore\n      pop\n        /* \"contracts/fun_stuff.sol\":794:801  members */\n      0x00\n        /* \"contracts/fun_stuff.sol\":794:814  members[memberCount] */\n      dup1\n        /* \"contracts/fun_stuff.sol\":802:813  memberCount */\n      sload(0x01)\n        /* \"contracts/fun_stuff.sol\":794:814  members[memberCount] */\n      dup2\n      mstore\n      0x20\n      add\n      swap1\n      dup2\n      mstore\n      0x20\n      add\n      0x00\n      keccak256\n        /* \"contracts/fun_stuff.sol\":794:852  members[memberCount] = Member(memberCount, _name, _isVote) */\n      0x00\n      dup3\n      add\n      mload\n      dup2\n      0x00\n      add\n      sstore\n      0x20\n      dup3\n      add\n      mload\n      dup2\n      0x01\n      add\n      swap1\n      dup1\n      mload\n      swap1\n      0x20\n      add\n      swap1\n      tag_64\n      swap3\n      swap2\n      swap1\n      tag_65\n      jump\t// in\n    tag_64:\n      pop\n      0x40\n      dup3\n      add\n      mload\n      dup2\n      0x02\n      add\n      exp(0x0100, 0x00)\n      dup2\n      sload\n      dup2\n      0xff\n      mul\n      not\n      and\n      swap1\n      dup4\n      iszero\n      iszero\n      mul\n      or\n      swap1\n      sstore\n      pop\n      swap1\n      pop\n      pop\n        /* \"contracts/fun_stuff.sol\":863:874  memberCount */\n      0x01\n      0x00\n        /* \"contracts/fun_stuff.sol\":863:876  memberCount++ */\n      dup2\n      sload\n      dup1\n      swap3\n      swap2\n      swap1\n      0x01\n      add\n      swap2\n      swap1\n      pop\n      sstore\n      pop\n        /* \"contracts/fun_stuff.sol\":722:884  function addMember(string memory _name, bool _isVote) public {\r... */\n      pop\n      pop\n      jump\t// out\n        /* \"contracts/fun_stuff.sol\":1009:1220  function getCountOfVoted(bool _isVote) public {\r... */\n    tag_33:\n        /* \"contracts/fun_stuff.sol\":1071:1077  uint i */\n      0x00\n        /* \"contracts/fun_stuff.sol\":1080:1081  0 */\n      dup1\n        /* \"contracts/fun_stuff.sol\":1071:1081  uint i = 0 */\n      swap1\n      pop\n        /* \"contracts/fun_stuff.sol\":1066:1213  for (uint i = 0; i < memberCount; i++) {\r... */\n    tag_67:\n        /* \"contracts/fun_stuff.sol\":1087:1098  memberCount */\n      sload(0x01)\n        /* \"contracts/fun_stuff.sol\":1083:1084  i */\n      dup2\n        /* \"contracts/fun_stuff.sol\":1083:1098  i < memberCount */\n      lt\n        /* \"contracts/fun_stuff.sol\":1066:1213  for (uint i = 0; i < memberCount; i++) {\r... */\n      iszero\n      tag_68\n      jumpi\n        /* \"contracts/fun_stuff.sol\":1146:1153  _isVote */\n      dup2\n        /* \"contracts/fun_stuff.sol\":1124:1153  members[i].isVoted == _isVote */\n      iszero\n      iszero\n        /* \"contracts/fun_stuff.sol\":1124:1131  members */\n      0x00\n        /* \"contracts/fun_stuff.sol\":1124:1134  members[i] */\n      dup1\n        /* \"contracts/fun_stuff.sol\":1132:1133  i */\n      dup4\n        /* \"contracts/fun_stuff.sol\":1124:1134  members[i] */\n      dup2\n      mstore\n      0x20\n      add\n      swap1\n      dup2\n      mstore\n      0x20\n      add\n      0x00\n      keccak256\n        /* \"contracts/fun_stuff.sol\":1124:1142  members[i].isVoted */\n      0x02\n      add\n      0x00\n      swap1\n      sload\n      swap1\n      0x0100\n      exp\n      swap1\n      div\n      0xff\n      and\n        /* \"contracts/fun_stuff.sol\":1124:1153  members[i].isVoted == _isVote */\n      iszero\n      iszero\n      eq\n        /* \"contracts/fun_stuff.sol\":1120:1202  if (members[i].isVoted == _isVote) {\r... */\n      iszero\n      tag_70\n      jumpi\n        /* \"contracts/fun_stuff.sol\":1174:1184  votedCount */\n      0x02\n      0x00\n        /* \"contracts/fun_stuff.sol\":1174:1186  votedCount++ */\n      dup2\n      sload\n      dup1\n      swap3\n      swap2\n      swap1\n      0x01\n      add\n      swap2\n      swap1\n      pop\n      sstore\n      pop\n        /* \"contracts/fun_stuff.sol\":1120:1202  if (members[i].isVoted == _isVote) {\r... */\n    tag_70:\n        /* \"contracts/fun_stuff.sol\":1100:1103  i++ */\n      dup1\n      dup1\n      0x01\n      add\n      swap2\n      pop\n      pop\n        /* \"contracts/fun_stuff.sol\":1066:1213  for (uint i = 0; i < memberCount; i++) {\r... */\n      jump(tag_67)\n    tag_68:\n      pop\n        /* \"contracts/fun_stuff.sol\":1009:1220  function getCountOfVoted(bool _isVote) public {\r... */\n      pop\n      jump\t// out\n        /* \"contracts/fun_stuff.sol\":892:1001  function setVote(uint _memberId, bool _isVote) public {\r... */\n    tag_37:\n        /* \"contracts/fun_stuff.sol\":986:993  _isVote */\n      dup1\n        /* \"contracts/fun_stuff.sol\":957:964  members */\n      0x00\n        /* \"contracts/fun_stuff.sol\":957:975  members[_memberId] */\n      dup1\n        /* \"contracts/fun_stuff.sol\":965:974  _memberId */\n      dup5\n        /* \"contracts/fun_stuff.sol\":957:975  members[_memberId] */\n      dup2\n      mstore\n      0x20\n      add\n      swap1\n      dup2\n      mstore\n      0x20\n      add\n      0x00\n      keccak256\n        /* \"contracts/fun_stuff.sol\":957:983  members[_memberId].isVoted */\n      0x02\n      add\n      0x00\n        /* \"contracts/fun_stuff.sol\":957:993  members[_memberId].isVoted = _isVote */\n      0x0100\n      exp\n      dup2\n      sload\n      dup2\n      0xff\n      mul\n      not\n      and\n      swap1\n      dup4\n      iszero\n      iszero\n      mul\n      or\n      swap1\n      sstore\n      pop\n        /* \"contracts/fun_stuff.sol\":892:1001  function setVote(uint _memberId, bool _isVote) public {\r... */\n      pop\n      pop\n      jump\t// out\n        /* \"contracts/fun_stuff.sol\":338:360  uint public votedCount */\n    tag_39:\n      sload(0x02)\n      dup2\n      jump\t// out\n        /* \"contracts/fun_stuff.sol\":1270:1392  function getMemberStructure(uint _memberId) public view returns(Member memory){\r... */\n    tag_43:\n        /* \"contracts/fun_stuff.sol\":1334:1347  Member memory */\n      tag_72\n      tag_73\n      jump\t// in\n    tag_72:\n        /* \"contracts/fun_stuff.sol\":1366:1373  members */\n      0x00\n        /* \"contracts/fun_stuff.sol\":1366:1384  members[_memberId] */\n      dup1\n        /* \"contracts/fun_stuff.sol\":1374:1383  _memberId */\n      dup4\n        /* \"contracts/fun_stuff.sol\":1366:1384  members[_memberId] */\n      dup2\n      mstore\n      0x20\n      add\n      swap1\n      dup2\n      mstore\n      0x20\n      add\n      0x00\n      keccak256\n        /* \"contracts/fun_stuff.sol\":1359:1384  return members[_memberId] */\n      mload(0x40)\n      dup1\n      0x60\n      add\n      0x40\n      mstore\n      swap1\n      dup2\n      0x00\n      dup3\n      add\n      sload\n      dup2\n      mstore\n      0x20\n      add\n      0x01\n      dup3\n      add\n      dup1\n      sload\n      0x01\n      dup2\n      0x01\n      and\n      iszero\n      0x0100\n      mul\n      sub\n      and\n      0x02\n      swap1\n      div\n      dup1\n      0x1f\n      add\n      0x20\n      dup1\n      swap2\n      div\n      mul\n      0x20\n      add\n      mload(0x40)\n      swap1\n      dup2\n      add\n      0x40\n      mstore\n      dup1\n      swap3\n      swap2\n      swap1\n      dup2\n      dup2\n      mstore\n      0x20\n      add\n      dup3\n      dup1\n      sload\n      0x01\n      dup2\n      0x01\n      and\n      iszero\n      0x0100\n      mul\n      sub\n      and\n      0x02\n      swap1\n      div\n      dup1\n      iszero\n      tag_75\n      jumpi\n      dup1\n      0x1f\n      lt\n      tag_76\n      jumpi\n      0x0100\n      dup1\n      dup4\n      sload\n      div\n      mul\n      dup4\n      mstore\n      swap2\n      0x20\n      add\n      swap2\n      jump(tag_75)\n    tag_76:\n      dup3\n      add\n      swap2\n      swap1\n      0x00\n      mstore\n      keccak256(0x00, 0x20)\n      swap1\n    tag_77:\n      dup2\n      sload\n      dup2\n      mstore\n      swap1\n      0x01\n      add\n      swap1\n      0x20\n      add\n      dup1\n      dup4\n      gt\n      tag_77\n      jumpi\n      dup3\n      swap1\n      sub\n      0x1f\n      and\n      dup3\n      add\n      swap2\n    tag_75:\n      pop\n      pop\n      pop\n      pop\n      pop\n      dup2\n      mstore\n      0x20\n      add\n      0x02\n      dup3\n      add\n      0x00\n      swap1\n      sload\n      swap1\n      0x0100\n      exp\n      swap1\n      div\n      0xff\n      and\n      iszero\n      iszero\n      iszero\n      iszero\n      dup2\n      mstore\n      pop\n      pop\n      swap1\n      pop\n        /* \"contracts/fun_stuff.sol\":1270:1392  function getMemberStructure(uint _memberId) public view returns(Member memory){\r... */\n      swap2\n      swap1\n      pop\n      jump\t// out\n        /* \"contracts/fun_stuff.sol\":95:1989  contract VoteSaving {\r... */\n    tag_65:\n      dup3\n      dup1\n      sload\n      0x01\n      dup2\n      0x01\n      and\n      iszero\n      0x0100\n      mul\n      sub\n      and\n      0x02\n      swap1\n      div\n      swap1\n      0x00\n      mstore\n      keccak256(0x00, 0x20)\n      swap1\n      0x1f\n      add\n      0x20\n      swap1\n      div\n      dup2\n      add\n      swap3\n      dup3\n      0x1f\n      lt\n      tag_79\n      jumpi\n      dup1\n      mload\n      not(0xff)\n      and\n      dup4\n      dup1\n      add\n      or\n      dup6\n      sstore\n      jump(tag_78)\n    tag_79:\n      dup3\n      dup1\n      add\n      0x01\n      add\n      dup6\n      sstore\n      dup3\n      iszero\n      tag_78\n      jumpi\n      swap2\n      dup3\n      add\n    tag_80:\n      dup3\n      dup2\n      gt\n      iszero\n      tag_81\n      jumpi\n      dup3\n      mload\n      dup3\n      sstore\n      swap2\n      0x20\n      add\n      swap2\n      swap1\n      0x01\n      add\n      swap1\n      jump(tag_80)\n    tag_81:\n    tag_78:\n      pop\n      swap1\n      pop\n      tag_82\n      swap2\n      swap1\n      tag_83\n      jump\t// in\n    tag_82:\n      pop\n      swap1\n      jump\t// out\n    tag_73:\n      mload(0x40)\n      dup1\n      0x60\n      add\n      0x40\n      mstore\n      dup1\n      0x00\n      dup2\n      mstore\n      0x20\n      add\n      0x60\n      dup2\n      mstore\n      0x20\n      add\n      iszero(iszero(0x00))\n      dup2\n      mstore\n      pop\n      swap1\n      jump\t// out\n    tag_83:\n      tag_84\n      swap2\n      swap1\n    tag_85:\n      dup1\n      dup3\n      gt\n      iszero\n      tag_86\n      jumpi\n      0x00\n      dup2\n      0x00\n      swap1\n      sstore\n      pop\n      0x01\n      add\n      jump(tag_85)\n    tag_86:\n      pop\n      swap1\n      jump\n    tag_84:\n      swap1\n      jump\t// out\n        /* \"--CODEGEN--\":5:129   */\n    tag_88:\n      0x00\n        /* \"--CODEGEN--\":82:88   */\n      dup2\n        /* \"--CODEGEN--\":69:89   */\n      calldataload\n        /* \"--CODEGEN--\":60:89   */\n      swap1\n      pop\n        /* \"--CODEGEN--\":94:124   */\n      tag_90\n        /* \"--CODEGEN--\":118:123   */\n      dup2\n        /* \"--CODEGEN--\":94:124   */\n      jump(tag_91)\n    tag_90:\n        /* \"--CODEGEN--\":54:129   */\n      swap3\n      swap2\n      pop\n      pop\n      jump\n        /* \"--CODEGEN--\":137:579   */\n    tag_92:\n      0x00\n        /* \"--CODEGEN--\":239:242   */\n      dup3\n        /* \"--CODEGEN--\":232:236   */\n      0x1f\n        /* \"--CODEGEN--\":224:230   */\n      dup4\n        /* \"--CODEGEN--\":220:237   */\n      add\n        /* \"--CODEGEN--\":216:243   */\n      slt\n        /* \"--CODEGEN--\":206:208   */\n      tag_94\n      jumpi\n        /* \"--CODEGEN--\":257:258   */\n      0x00\n        /* \"--CODEGEN--\":254:255   */\n      dup1\n        /* \"--CODEGEN--\":247:259   */\n      revert\n        /* \"--CODEGEN--\":206:208   */\n    tag_94:\n        /* \"--CODEGEN--\":294:300   */\n      dup2\n        /* \"--CODEGEN--\":281:301   */\n      calldataload\n        /* \"--CODEGEN--\":316:381   */\n      tag_95\n        /* \"--CODEGEN--\":331:380   */\n      tag_96\n        /* \"--CODEGEN--\":373:379   */\n      dup3\n        /* \"--CODEGEN--\":331:380   */\n      jump(tag_97)\n    tag_96:\n        /* \"--CODEGEN--\":316:381   */\n      jump(tag_98)\n    tag_95:\n        /* \"--CODEGEN--\":307:381   */\n      swap2\n      pop\n        /* \"--CODEGEN--\":401:407   */\n      dup1\n        /* \"--CODEGEN--\":394:399   */\n      dup3\n        /* \"--CODEGEN--\":387:408   */\n      mstore\n        /* \"--CODEGEN--\":437:441   */\n      0x20\n        /* \"--CODEGEN--\":429:435   */\n      dup4\n        /* \"--CODEGEN--\":425:442   */\n      add\n        /* \"--CODEGEN--\":470:474   */\n      0x20\n        /* \"--CODEGEN--\":463:468   */\n      dup4\n        /* \"--CODEGEN--\":459:475   */\n      add\n        /* \"--CODEGEN--\":505:508   */\n      dup6\n        /* \"--CODEGEN--\":496:502   */\n      dup4\n        /* \"--CODEGEN--\":491:494   */\n      dup4\n        /* \"--CODEGEN--\":487:503   */\n      add\n        /* \"--CODEGEN--\":484:509   */\n      gt\n        /* \"--CODEGEN--\":481:483   */\n      iszero\n      tag_99\n      jumpi\n        /* \"--CODEGEN--\":522:523   */\n      0x00\n        /* \"--CODEGEN--\":519:520   */\n      dup1\n        /* \"--CODEGEN--\":512:524   */\n      revert\n        /* \"--CODEGEN--\":481:483   */\n    tag_99:\n        /* \"--CODEGEN--\":532:573   */\n      tag_100\n        /* \"--CODEGEN--\":566:572   */\n      dup4\n        /* \"--CODEGEN--\":561:564   */\n      dup3\n        /* \"--CODEGEN--\":556:559   */\n      dup5\n        /* \"--CODEGEN--\":532:573   */\n      jump(tag_101)\n    tag_100:\n        /* \"--CODEGEN--\":199:579   */\n      pop\n      pop\n      pop\n      swap3\n      swap2\n      pop\n      pop\n      jump\n        /* \"--CODEGEN--\":587:717   */\n    tag_102:\n      0x00\n        /* \"--CODEGEN--\":667:673   */\n      dup2\n        /* \"--CODEGEN--\":654:674   */\n      calldataload\n        /* \"--CODEGEN--\":645:674   */\n      swap1\n      pop\n        /* \"--CODEGEN--\":679:712   */\n      tag_104\n        /* \"--CODEGEN--\":706:711   */\n      dup2\n        /* \"--CODEGEN--\":679:712   */\n      jump(tag_105)\n    tag_104:\n        /* \"--CODEGEN--\":639:717   */\n      swap3\n      swap2\n      pop\n      pop\n      jump\n        /* \"--CODEGEN--\":724:959   */\n    tag_32:\n      0x00\n        /* \"--CODEGEN--\":825:827   */\n      0x20\n        /* \"--CODEGEN--\":813:822   */\n      dup3\n        /* \"--CODEGEN--\":804:811   */\n      dup5\n        /* \"--CODEGEN--\":800:823   */\n      sub\n        /* \"--CODEGEN--\":796:828   */\n      slt\n        /* \"--CODEGEN--\":793:795   */\n      iszero\n      tag_107\n      jumpi\n        /* \"--CODEGEN--\":841:842   */\n      0x00\n        /* \"--CODEGEN--\":838:839   */\n      dup1\n        /* \"--CODEGEN--\":831:843   */\n      revert\n        /* \"--CODEGEN--\":793:795   */\n    tag_107:\n        /* \"--CODEGEN--\":876:877   */\n      0x00\n        /* \"--CODEGEN--\":893:943   */\n      tag_108\n        /* \"--CODEGEN--\":935:942   */\n      dup5\n        /* \"--CODEGEN--\":926:932   */\n      dup3\n        /* \"--CODEGEN--\":915:924   */\n      dup6\n        /* \"--CODEGEN--\":911:933   */\n      add\n        /* \"--CODEGEN--\":893:943   */\n      jump(tag_88)\n    tag_108:\n        /* \"--CODEGEN--\":883:943   */\n      swap2\n      pop\n        /* \"--CODEGEN--\":855:949   */\n      pop\n        /* \"--CODEGEN--\":787:959   */\n      swap3\n      swap2\n      pop\n      pop\n      jump\n        /* \"--CODEGEN--\":966:1432   */\n    tag_28:\n      0x00\n      dup1\n        /* \"--CODEGEN--\":1094:1096   */\n      0x40\n        /* \"--CODEGEN--\":1082:1091   */\n      dup4\n        /* \"--CODEGEN--\":1073:1080   */\n      dup6\n        /* \"--CODEGEN--\":1069:1092   */\n      sub\n        /* \"--CODEGEN--\":1065:1097   */\n      slt\n        /* \"--CODEGEN--\":1062:1064   */\n      iszero\n      tag_110\n      jumpi\n        /* \"--CODEGEN--\":1110:1111   */\n      0x00\n        /* \"--CODEGEN--\":1107:1108   */\n      dup1\n        /* \"--CODEGEN--\":1100:1112   */\n      revert\n        /* \"--CODEGEN--\":1062:1064   */\n    tag_110:\n        /* \"--CODEGEN--\":1173:1174   */\n      0x00\n        /* \"--CODEGEN--\":1162:1171   */\n      dup4\n        /* \"--CODEGEN--\":1158:1175   */\n      add\n        /* \"--CODEGEN--\":1145:1176   */\n      calldataload\n        /* \"--CODEGEN--\":1196:1214   */\n      0xffffffffffffffff\n        /* \"--CODEGEN--\":1188:1194   */\n      dup2\n        /* \"--CODEGEN--\":1185:1215   */\n      gt\n        /* \"--CODEGEN--\":1182:1184   */\n      iszero\n      tag_111\n      jumpi\n        /* \"--CODEGEN--\":1228:1229   */\n      0x00\n        /* \"--CODEGEN--\":1225:1226   */\n      dup1\n        /* \"--CODEGEN--\":1218:1230   */\n      revert\n        /* \"--CODEGEN--\":1182:1184   */\n    tag_111:\n        /* \"--CODEGEN--\":1248:1311   */\n      tag_112\n        /* \"--CODEGEN--\":1303:1310   */\n      dup6\n        /* \"--CODEGEN--\":1294:1300   */\n      dup3\n        /* \"--CODEGEN--\":1283:1292   */\n      dup7\n        /* \"--CODEGEN--\":1279:1301   */\n      add\n        /* \"--CODEGEN--\":1248:1311   */\n      jump(tag_92)\n    tag_112:\n        /* \"--CODEGEN--\":1238:1311   */\n      swap3\n      pop\n        /* \"--CODEGEN--\":1124:1317   */\n      pop\n        /* \"--CODEGEN--\":1348:1350   */\n      0x20\n        /* \"--CODEGEN--\":1366:1416   */\n      tag_113\n        /* \"--CODEGEN--\":1408:1415   */\n      dup6\n        /* \"--CODEGEN--\":1399:1405   */\n      dup3\n        /* \"--CODEGEN--\":1388:1397   */\n      dup7\n        /* \"--CODEGEN--\":1384:1406   */\n      add\n        /* \"--CODEGEN--\":1366:1416   */\n      jump(tag_88)\n    tag_113:\n        /* \"--CODEGEN--\":1356:1416   */\n      swap2\n      pop\n        /* \"--CODEGEN--\":1327:1422   */\n      pop\n        /* \"--CODEGEN--\":1056:1432   */\n      swap3\n      pop\n      swap3\n      swap1\n      pop\n      jump\n        /* \"--CODEGEN--\":1439:1680   */\n    tag_18:\n      0x00\n        /* \"--CODEGEN--\":1543:1545   */\n      0x20\n        /* \"--CODEGEN--\":1531:1540   */\n      dup3\n        /* \"--CODEGEN--\":1522:1529   */\n      dup5\n        /* \"--CODEGEN--\":1518:1541   */\n      sub\n        /* \"--CODEGEN--\":1514:1546   */\n      slt\n        /* \"--CODEGEN--\":1511:1513   */\n      iszero\n      tag_115\n      jumpi\n        /* \"--CODEGEN--\":1559:1560   */\n      0x00\n        /* \"--CODEGEN--\":1556:1557   */\n      dup1\n        /* \"--CODEGEN--\":1549:1561   */\n      revert\n        /* \"--CODEGEN--\":1511:1513   */\n    tag_115:\n        /* \"--CODEGEN--\":1594:1595   */\n      0x00\n        /* \"--CODEGEN--\":1611:1664   */\n      tag_116\n        /* \"--CODEGEN--\":1656:1663   */\n      dup5\n        /* \"--CODEGEN--\":1647:1653   */\n      dup3\n        /* \"--CODEGEN--\":1636:1645   */\n      dup6\n        /* \"--CODEGEN--\":1632:1654   */\n      add\n        /* \"--CODEGEN--\":1611:1664   */\n      jump(tag_102)\n    tag_116:\n        /* \"--CODEGEN--\":1601:1664   */\n      swap2\n      pop\n        /* \"--CODEGEN--\":1573:1670   */\n      pop\n        /* \"--CODEGEN--\":1505:1680   */\n      swap3\n      swap2\n      pop\n      pop\n      jump\n        /* \"--CODEGEN--\":1687:2047   */\n    tag_36:\n      0x00\n      dup1\n        /* \"--CODEGEN--\":1805:1807   */\n      0x40\n        /* \"--CODEGEN--\":1793:1802   */\n      dup4\n        /* \"--CODEGEN--\":1784:1791   */\n      dup6\n        /* \"--CODEGEN--\":1780:1803   */\n      sub\n        /* \"--CODEGEN--\":1776:1808   */\n      slt\n        /* \"--CODEGEN--\":1773:1775   */\n      iszero\n      tag_118\n      jumpi\n        /* \"--CODEGEN--\":1821:1822   */\n      0x00\n        /* \"--CODEGEN--\":1818:1819   */\n      dup1\n        /* \"--CODEGEN--\":1811:1823   */\n      revert\n        /* \"--CODEGEN--\":1773:1775   */\n    tag_118:\n        /* \"--CODEGEN--\":1856:1857   */\n      0x00\n        /* \"--CODEGEN--\":1873:1926   */\n      tag_119\n        /* \"--CODEGEN--\":1918:1925   */\n      dup6\n        /* \"--CODEGEN--\":1909:1915   */\n      dup3\n        /* \"--CODEGEN--\":1898:1907   */\n      dup7\n        /* \"--CODEGEN--\":1894:1916   */\n      add\n        /* \"--CODEGEN--\":1873:1926   */\n      jump(tag_102)\n    tag_119:\n        /* \"--CODEGEN--\":1863:1926   */\n      swap3\n      pop\n        /* \"--CODEGEN--\":1835:1932   */\n      pop\n        /* \"--CODEGEN--\":1963:1965   */\n      0x20\n        /* \"--CODEGEN--\":1981:2031   */\n      tag_120\n        /* \"--CODEGEN--\":2023:2030   */\n      dup6\n        /* \"--CODEGEN--\":2014:2020   */\n      dup3\n        /* \"--CODEGEN--\":2003:2012   */\n      dup7\n        /* \"--CODEGEN--\":1999:2021   */\n      add\n        /* \"--CODEGEN--\":1981:2031   */\n      jump(tag_88)\n    tag_120:\n        /* \"--CODEGEN--\":1971:2031   */\n      swap2\n      pop\n        /* \"--CODEGEN--\":1942:2037   */\n      pop\n        /* \"--CODEGEN--\":1767:2047   */\n      swap3\n      pop\n      swap3\n      swap1\n      pop\n      jump\n        /* \"--CODEGEN--\":2055:2216   */\n    tag_121:\n      0x00\n        /* \"--CODEGEN--\":2136:2176   */\n      tag_123\n        /* \"--CODEGEN--\":2172:2175   */\n      dup4\n        /* \"--CODEGEN--\":2164:2170   */\n      dup4\n        /* \"--CODEGEN--\":2136:2176   */\n      jump(tag_124)\n    tag_123:\n        /* \"--CODEGEN--\":2205:2209   */\n      0x20\n        /* \"--CODEGEN--\":2200:2203   */\n      dup4\n        /* \"--CODEGEN--\":2196:2210   */\n      add\n        /* \"--CODEGEN--\":2182:2210   */\n      swap1\n      pop\n        /* \"--CODEGEN--\":2129:2216   */\n      swap3\n      swap2\n      pop\n      pop\n      jump\n        /* \"--CODEGEN--\":2225:2406   */\n    tag_125:\n      0x00\n        /* \"--CODEGEN--\":2338:2400   */\n      tag_127\n        /* \"--CODEGEN--\":2396:2399   */\n      dup4\n        /* \"--CODEGEN--\":2388:2394   */\n      dup4\n        /* \"--CODEGEN--\":2338:2400   */\n      jump(tag_128)\n    tag_127:\n        /* \"--CODEGEN--\":2324:2400   */\n      swap1\n      pop\n        /* \"--CODEGEN--\":2317:2406   */\n      swap3\n      swap2\n      pop\n      pop\n      jump\n        /* \"--CODEGEN--\":2415:2588   */\n    tag_129:\n      0x00\n        /* \"--CODEGEN--\":2502:2548   */\n      tag_131\n        /* \"--CODEGEN--\":2544:2547   */\n      dup4\n        /* \"--CODEGEN--\":2536:2542   */\n      dup4\n        /* \"--CODEGEN--\":2502:2548   */\n      jump(tag_132)\n    tag_131:\n        /* \"--CODEGEN--\":2577:2581   */\n      0x20\n        /* \"--CODEGEN--\":2572:2575   */\n      dup4\n        /* \"--CODEGEN--\":2568:2582   */\n      add\n        /* \"--CODEGEN--\":2554:2582   */\n      swap1\n      pop\n        /* \"--CODEGEN--\":2495:2588   */\n      swap3\n      swap2\n      pop\n      pop\n      jump\n        /* \"--CODEGEN--\":2621:3287   */\n    tag_133:\n      0x00\n        /* \"--CODEGEN--\":2760:2811   */\n      tag_135\n        /* \"--CODEGEN--\":2805:2810   */\n      dup3\n        /* \"--CODEGEN--\":2760:2811   */\n      jump(tag_136)\n    tag_135:\n        /* \"--CODEGEN--\":2824:2907   */\n      tag_137\n        /* \"--CODEGEN--\":2900:2906   */\n      dup2\n        /* \"--CODEGEN--\":2895:2898   */\n      dup6\n        /* \"--CODEGEN--\":2824:2907   */\n      jump(tag_138)\n    tag_137:\n        /* \"--CODEGEN--\":2817:2907   */\n      swap4\n      pop\n        /* \"--CODEGEN--\":2928:2981   */\n      tag_139\n        /* \"--CODEGEN--\":2975:2980   */\n      dup4\n        /* \"--CODEGEN--\":2928:2981   */\n      jump(tag_140)\n    tag_139:\n        /* \"--CODEGEN--\":3001:3008   */\n      dup1\n        /* \"--CODEGEN--\":3029:3030   */\n      0x00\n        /* \"--CODEGEN--\":3014:3265   */\n    tag_141:\n        /* \"--CODEGEN--\":3039:3045   */\n      dup4\n        /* \"--CODEGEN--\":3036:3037   */\n      dup2\n        /* \"--CODEGEN--\":3033:3046   */\n      lt\n        /* \"--CODEGEN--\":3014:3265   */\n      iszero\n      tag_143\n      jumpi\n        /* \"--CODEGEN--\":3106:3112   */\n      dup2\n        /* \"--CODEGEN--\":3100:3113   */\n      mload\n        /* \"--CODEGEN--\":3127:3184   */\n      tag_144\n        /* \"--CODEGEN--\":3180:3183   */\n      dup9\n        /* \"--CODEGEN--\":3165:3178   */\n      dup3\n        /* \"--CODEGEN--\":3127:3184   */\n      jump(tag_121)\n    tag_144:\n        /* \"--CODEGEN--\":3120:3184   */\n      swap8\n      pop\n        /* \"--CODEGEN--\":3201:3258   */\n      tag_145\n        /* \"--CODEGEN--\":3251:3257   */\n      dup4\n        /* \"--CODEGEN--\":3201:3258   */\n      jump(tag_146)\n    tag_145:\n        /* \"--CODEGEN--\":3191:3258   */\n      swap3\n      pop\n        /* \"--CODEGEN--\":3071:3265   */\n      pop\n        /* \"--CODEGEN--\":3061:3062   */\n      0x01\n        /* \"--CODEGEN--\":3058:3059   */\n      dup2\n        /* \"--CODEGEN--\":3054:3063   */\n      add\n        /* \"--CODEGEN--\":3049:3063   */\n      swap1\n      pop\n        /* \"--CODEGEN--\":3014:3265   */\n      jump(tag_141)\n    tag_143:\n        /* \"--CODEGEN--\":3018:3032   */\n      pop\n        /* \"--CODEGEN--\":3278:3281   */\n      dup6\n        /* \"--CODEGEN--\":3271:3281   */\n      swap4\n      pop\n        /* \"--CODEGEN--\":2739:3287   */\n      pop\n      pop\n      pop\n      swap3\n      swap2\n      pop\n      pop\n      jump\n        /* \"--CODEGEN--\":3324:4220   */\n    tag_147:\n      0x00\n        /* \"--CODEGEN--\":3481:3541   */\n      tag_149\n        /* \"--CODEGEN--\":3535:3540   */\n      dup3\n        /* \"--CODEGEN--\":3481:3541   */\n      jump(tag_150)\n    tag_149:\n        /* \"--CODEGEN--\":3554:3646   */\n      tag_151\n        /* \"--CODEGEN--\":3639:3645   */\n      dup2\n        /* \"--CODEGEN--\":3634:3637   */\n      dup6\n        /* \"--CODEGEN--\":3554:3646   */\n      jump(tag_152)\n    tag_151:\n        /* \"--CODEGEN--\":3547:3646   */\n      swap4\n      pop\n        /* \"--CODEGEN--\":3669:3672   */\n      dup4\n        /* \"--CODEGEN--\":3711:3715   */\n      0x20\n        /* \"--CODEGEN--\":3703:3709   */\n      dup3\n        /* \"--CODEGEN--\":3699:3716   */\n      mul\n        /* \"--CODEGEN--\":3694:3697   */\n      dup6\n        /* \"--CODEGEN--\":3690:3717   */\n      add\n        /* \"--CODEGEN--\":3738:3800   */\n      tag_153\n        /* \"--CODEGEN--\":3794:3799   */\n      dup6\n        /* \"--CODEGEN--\":3738:3800   */\n      jump(tag_154)\n    tag_153:\n        /* \"--CODEGEN--\":3820:3827   */\n      dup1\n        /* \"--CODEGEN--\":3848:3849   */\n      0x00\n        /* \"--CODEGEN--\":3833:4181   */\n    tag_155:\n        /* \"--CODEGEN--\":3858:3864   */\n      dup6\n        /* \"--CODEGEN--\":3855:3856   */\n      dup2\n        /* \"--CODEGEN--\":3852:3865   */\n      lt\n        /* \"--CODEGEN--\":3833:4181   */\n      iszero\n      tag_157\n      jumpi\n        /* \"--CODEGEN--\":3920:3929   */\n      dup5\n        /* \"--CODEGEN--\":3914:3918   */\n      dup5\n        /* \"--CODEGEN--\":3910:3930   */\n      sub\n        /* \"--CODEGEN--\":3905:3908   */\n      dup10\n        /* \"--CODEGEN--\":3898:3931   */\n      mstore\n        /* \"--CODEGEN--\":3965:3971   */\n      dup2\n        /* \"--CODEGEN--\":3959:3972   */\n      mload\n        /* \"--CODEGEN--\":3987:4063   */\n      tag_158\n        /* \"--CODEGEN--\":4058:4062   */\n      dup6\n        /* \"--CODEGEN--\":4043:4056   */\n      dup3\n        /* \"--CODEGEN--\":3987:4063   */\n      jump(tag_125)\n    tag_158:\n        /* \"--CODEGEN--\":3979:4063   */\n      swap5\n      pop\n        /* \"--CODEGEN--\":4080:4146   */\n      tag_159\n        /* \"--CODEGEN--\":4139:4145   */\n      dup4\n        /* \"--CODEGEN--\":4080:4146   */\n      jump(tag_160)\n    tag_159:\n        /* \"--CODEGEN--\":4070:4146   */\n      swap3\n      pop\n        /* \"--CODEGEN--\":4169:4173   */\n      0x20\n        /* \"--CODEGEN--\":4164:4167   */\n      dup11\n        /* \"--CODEGEN--\":4160:4174   */\n      add\n        /* \"--CODEGEN--\":4153:4174   */\n      swap10\n      pop\n        /* \"--CODEGEN--\":3890:4181   */\n      pop\n        /* \"--CODEGEN--\":3880:3881   */\n      0x01\n        /* \"--CODEGEN--\":3877:3878   */\n      dup2\n        /* \"--CODEGEN--\":3873:3882   */\n      add\n        /* \"--CODEGEN--\":3868:3882   */\n      swap1\n      pop\n        /* \"--CODEGEN--\":3833:4181   */\n      jump(tag_155)\n    tag_157:\n        /* \"--CODEGEN--\":3837:3851   */\n      pop\n        /* \"--CODEGEN--\":4194:4198   */\n      dup3\n        /* \"--CODEGEN--\":4187:4198   */\n      swap8\n      pop\n        /* \"--CODEGEN--\":4211:4214   */\n      dup8\n        /* \"--CODEGEN--\":4204:4214   */\n      swap6\n      pop\n        /* \"--CODEGEN--\":3460:4220   */\n      pop\n      pop\n      pop\n      pop\n      pop\n      swap3\n      swap2\n      pop\n      pop\n      jump\n        /* \"--CODEGEN--\":4259:4949   */\n    tag_161:\n      0x00\n        /* \"--CODEGEN--\":4404:4458   */\n      tag_163\n        /* \"--CODEGEN--\":4452:4457   */\n      dup3\n        /* \"--CODEGEN--\":4404:4458   */\n      jump(tag_164)\n    tag_163:\n        /* \"--CODEGEN--\":4471:4557   */\n      tag_165\n        /* \"--CODEGEN--\":4550:4556   */\n      dup2\n        /* \"--CODEGEN--\":4545:4548   */\n      dup6\n        /* \"--CODEGEN--\":4471:4557   */\n      jump(tag_166)\n    tag_165:\n        /* \"--CODEGEN--\":4464:4557   */\n      swap4\n      pop\n        /* \"--CODEGEN--\":4578:4634   */\n      tag_167\n        /* \"--CODEGEN--\":4628:4633   */\n      dup4\n        /* \"--CODEGEN--\":4578:4634   */\n      jump(tag_168)\n    tag_167:\n        /* \"--CODEGEN--\":4654:4661   */\n      dup1\n        /* \"--CODEGEN--\":4682:4683   */\n      0x00\n        /* \"--CODEGEN--\":4667:4927   */\n    tag_169:\n        /* \"--CODEGEN--\":4692:4698   */\n      dup4\n        /* \"--CODEGEN--\":4689:4690   */\n      dup2\n        /* \"--CODEGEN--\":4686:4699   */\n      lt\n        /* \"--CODEGEN--\":4667:4927   */\n      iszero\n      tag_171\n      jumpi\n        /* \"--CODEGEN--\":4759:4765   */\n      dup2\n        /* \"--CODEGEN--\":4753:4766   */\n      mload\n        /* \"--CODEGEN--\":4780:4843   */\n      tag_172\n        /* \"--CODEGEN--\":4839:4842   */\n      dup9\n        /* \"--CODEGEN--\":4824:4837   */\n      dup3\n        /* \"--CODEGEN--\":4780:4843   */\n      jump(tag_129)\n    tag_172:\n        /* \"--CODEGEN--\":4773:4843   */\n      swap8\n      pop\n        /* \"--CODEGEN--\":4860:4920   */\n      tag_173\n        /* \"--CODEGEN--\":4913:4919   */\n      dup4\n        /* \"--CODEGEN--\":4860:4920   */\n      jump(tag_174)\n    tag_173:\n        /* \"--CODEGEN--\":4850:4920   */\n      swap3\n      pop\n        /* \"--CODEGEN--\":4724:4927   */\n      pop\n        /* \"--CODEGEN--\":4714:4715   */\n      0x01\n        /* \"--CODEGEN--\":4711:4712   */\n      dup2\n        /* \"--CODEGEN--\":4707:4716   */\n      add\n        /* \"--CODEGEN--\":4702:4716   */\n      swap1\n      pop\n        /* \"--CODEGEN--\":4667:4927   */\n      jump(tag_169)\n    tag_171:\n        /* \"--CODEGEN--\":4671:4685   */\n      pop\n        /* \"--CODEGEN--\":4940:4943   */\n      dup6\n        /* \"--CODEGEN--\":4933:4943   */\n      swap4\n      pop\n        /* \"--CODEGEN--\":4383:4949   */\n      pop\n      pop\n      pop\n      swap3\n      swap2\n      pop\n      pop\n      jump\n        /* \"--CODEGEN--\":4957:5051   */\n    tag_124:\n        /* \"--CODEGEN--\":5024:5045   */\n      tag_176\n        /* \"--CODEGEN--\":5039:5044   */\n      dup2\n        /* \"--CODEGEN--\":5024:5045   */\n      jump(tag_177)\n    tag_176:\n        /* \"--CODEGEN--\":5019:5022   */\n      dup3\n        /* \"--CODEGEN--\":5012:5046   */\n      mstore\n        /* \"--CODEGEN--\":5006:5051   */\n      pop\n      pop\n      jump\n        /* \"--CODEGEN--\":5058:5162   */\n    tag_178:\n        /* \"--CODEGEN--\":5135:5156   */\n      tag_180\n        /* \"--CODEGEN--\":5150:5155   */\n      dup2\n        /* \"--CODEGEN--\":5135:5156   */\n      jump(tag_177)\n    tag_180:\n        /* \"--CODEGEN--\":5130:5133   */\n      dup3\n        /* \"--CODEGEN--\":5123:5157   */\n      mstore\n        /* \"--CODEGEN--\":5117:5162   */\n      pop\n      pop\n      jump\n        /* \"--CODEGEN--\":5169:5488   */\n    tag_128:\n      0x00\n        /* \"--CODEGEN--\":5267:5302   */\n      tag_182\n        /* \"--CODEGEN--\":5296:5301   */\n      dup3\n        /* \"--CODEGEN--\":5267:5302   */\n      jump(tag_183)\n    tag_182:\n        /* \"--CODEGEN--\":5314:5375   */\n      tag_184\n        /* \"--CODEGEN--\":5368:5374   */\n      dup2\n        /* \"--CODEGEN--\":5363:5366   */\n      dup6\n        /* \"--CODEGEN--\":5314:5375   */\n      jump(tag_185)\n    tag_184:\n        /* \"--CODEGEN--\":5307:5375   */\n      swap4\n      pop\n        /* \"--CODEGEN--\":5380:5432   */\n      tag_186\n        /* \"--CODEGEN--\":5425:5431   */\n      dup2\n        /* \"--CODEGEN--\":5420:5423   */\n      dup6\n        /* \"--CODEGEN--\":5413:5417   */\n      0x20\n        /* \"--CODEGEN--\":5406:5411   */\n      dup7\n        /* \"--CODEGEN--\":5402:5418   */\n      add\n        /* \"--CODEGEN--\":5380:5432   */\n      jump(tag_187)\n    tag_186:\n        /* \"--CODEGEN--\":5453:5482   */\n      tag_188\n        /* \"--CODEGEN--\":5475:5481   */\n      dup2\n        /* \"--CODEGEN--\":5453:5482   */\n      jump(tag_189)\n    tag_188:\n        /* \"--CODEGEN--\":5448:5451   */\n      dup5\n        /* \"--CODEGEN--\":5444:5483   */\n      add\n        /* \"--CODEGEN--\":5437:5483   */\n      swap2\n      pop\n        /* \"--CODEGEN--\":5247:5488   */\n      pop\n      swap3\n      swap2\n      pop\n      pop\n      jump\n        /* \"--CODEGEN--\":5495:5834   */\n    tag_190:\n      0x00\n        /* \"--CODEGEN--\":5603:5638   */\n      tag_192\n        /* \"--CODEGEN--\":5632:5637   */\n      dup3\n        /* \"--CODEGEN--\":5603:5638   */\n      jump(tag_183)\n    tag_192:\n        /* \"--CODEGEN--\":5650:5721   */\n      tag_193\n        /* \"--CODEGEN--\":5714:5720   */\n      dup2\n        /* \"--CODEGEN--\":5709:5712   */\n      dup6\n        /* \"--CODEGEN--\":5650:5721   */\n      jump(tag_194)\n    tag_193:\n        /* \"--CODEGEN--\":5643:5721   */\n      swap4\n      pop\n        /* \"--CODEGEN--\":5726:5778   */\n      tag_195\n        /* \"--CODEGEN--\":5771:5777   */\n      dup2\n        /* \"--CODEGEN--\":5766:5769   */\n      dup6\n        /* \"--CODEGEN--\":5759:5763   */\n      0x20\n        /* \"--CODEGEN--\":5752:5757   */\n      dup7\n        /* \"--CODEGEN--\":5748:5764   */\n      add\n        /* \"--CODEGEN--\":5726:5778   */\n      jump(tag_187)\n    tag_195:\n        /* \"--CODEGEN--\":5799:5828   */\n      tag_196\n        /* \"--CODEGEN--\":5821:5827   */\n      dup2\n        /* \"--CODEGEN--\":5799:5828   */\n      jump(tag_189)\n    tag_196:\n        /* \"--CODEGEN--\":5794:5797   */\n      dup5\n        /* \"--CODEGEN--\":5790:5829   */\n      add\n        /* \"--CODEGEN--\":5783:5829   */\n      swap2\n      pop\n        /* \"--CODEGEN--\":5583:5834   */\n      pop\n      swap3\n      swap2\n      pop\n      pop\n      jump\n        /* \"--CODEGEN--\":5900:6608   */\n    tag_197:\n      0x00\n        /* \"--CODEGEN--\":6043:6047   */\n      0x60\n        /* \"--CODEGEN--\":6038:6041   */\n      dup4\n        /* \"--CODEGEN--\":6034:6048   */\n      add\n        /* \"--CODEGEN--\":6124:6128   */\n      0x00\n        /* \"--CODEGEN--\":6117:6122   */\n      dup4\n        /* \"--CODEGEN--\":6113:6129   */\n      add\n        /* \"--CODEGEN--\":6107:6130   */\n      mload\n        /* \"--CODEGEN--\":6136:6199   */\n      tag_199\n        /* \"--CODEGEN--\":6193:6197   */\n      0x00\n        /* \"--CODEGEN--\":6188:6191   */\n      dup7\n        /* \"--CODEGEN--\":6184:6198   */\n      add\n        /* \"--CODEGEN--\":6170:6182   */\n      dup3\n        /* \"--CODEGEN--\":6136:6199   */\n      jump(tag_132)\n    tag_199:\n        /* \"--CODEGEN--\":6063:6205   */\n      pop\n        /* \"--CODEGEN--\":6278:6282   */\n      0x20\n        /* \"--CODEGEN--\":6271:6276   */\n      dup4\n        /* \"--CODEGEN--\":6267:6283   */\n      add\n        /* \"--CODEGEN--\":6261:6284   */\n      mload\n        /* \"--CODEGEN--\":6330:6333   */\n      dup5\n        /* \"--CODEGEN--\":6324:6328   */\n      dup3\n        /* \"--CODEGEN--\":6320:6334   */\n      sub\n        /* \"--CODEGEN--\":6313:6317   */\n      0x20\n        /* \"--CODEGEN--\":6308:6311   */\n      dup7\n        /* \"--CODEGEN--\":6304:6318   */\n      add\n        /* \"--CODEGEN--\":6297:6335   */\n      mstore\n        /* \"--CODEGEN--\":6350:6419   */\n      tag_200\n        /* \"--CODEGEN--\":6414:6418   */\n      dup3\n        /* \"--CODEGEN--\":6400:6412   */\n      dup3\n        /* \"--CODEGEN--\":6350:6419   */\n      jump(tag_128)\n    tag_200:\n        /* \"--CODEGEN--\":6342:6419   */\n      swap2\n      pop\n        /* \"--CODEGEN--\":6215:6431   */\n      pop\n        /* \"--CODEGEN--\":6507:6511   */\n      0x40\n        /* \"--CODEGEN--\":6500:6505   */\n      dup4\n        /* \"--CODEGEN--\":6496:6512   */\n      add\n        /* \"--CODEGEN--\":6490:6513   */\n      mload\n        /* \"--CODEGEN--\":6519:6576   */\n      tag_201\n        /* \"--CODEGEN--\":6570:6574   */\n      0x40\n        /* \"--CODEGEN--\":6565:6568   */\n      dup7\n        /* \"--CODEGEN--\":6561:6575   */\n      add\n        /* \"--CODEGEN--\":6547:6559   */\n      dup3\n        /* \"--CODEGEN--\":6519:6576   */\n      jump(tag_124)\n    tag_201:\n        /* \"--CODEGEN--\":6441:6582   */\n      pop\n        /* \"--CODEGEN--\":6599:6603   */\n      dup1\n        /* \"--CODEGEN--\":6592:6603   */\n      swap2\n      pop\n        /* \"--CODEGEN--\":6016:6608   */\n      pop\n      swap3\n      swap2\n      pop\n      pop\n      jump\n        /* \"--CODEGEN--\":6615:6718   */\n    tag_132:\n        /* \"--CODEGEN--\":6688:6712   */\n      tag_203\n        /* \"--CODEGEN--\":6706:6711   */\n      dup2\n        /* \"--CODEGEN--\":6688:6712   */\n      jump(tag_204)\n    tag_203:\n        /* \"--CODEGEN--\":6683:6686   */\n      dup3\n        /* \"--CODEGEN--\":6676:6713   */\n      mstore\n        /* \"--CODEGEN--\":6670:6718   */\n      pop\n      pop\n      jump\n        /* \"--CODEGEN--\":6725:6838   */\n    tag_205:\n        /* \"--CODEGEN--\":6808:6832   */\n      tag_207\n        /* \"--CODEGEN--\":6826:6831   */\n      dup2\n        /* \"--CODEGEN--\":6808:6832   */\n      jump(tag_204)\n    tag_207:\n        /* \"--CODEGEN--\":6803:6806   */\n      dup3\n        /* \"--CODEGEN--\":6796:6833   */\n      mstore\n        /* \"--CODEGEN--\":6790:6838   */\n      pop\n      pop\n      jump\n        /* \"--CODEGEN--\":6845:7736   */\n    tag_25:\n      0x00\n        /* \"--CODEGEN--\":7175:7177   */\n      0x60\n        /* \"--CODEGEN--\":7164:7173   */\n      dup3\n        /* \"--CODEGEN--\":7160:7178   */\n      add\n        /* \"--CODEGEN--\":7152:7178   */\n      swap1\n      pop\n        /* \"--CODEGEN--\":7225:7234   */\n      dup2\n        /* \"--CODEGEN--\":7219:7223   */\n      dup2\n        /* \"--CODEGEN--\":7215:7235   */\n      sub\n        /* \"--CODEGEN--\":7211:7212   */\n      0x00\n        /* \"--CODEGEN--\":7200:7209   */\n      dup4\n        /* \"--CODEGEN--\":7196:7213   */\n      add\n        /* \"--CODEGEN--\":7189:7236   */\n      mstore\n        /* \"--CODEGEN--\":7250:7358   */\n      tag_209\n        /* \"--CODEGEN--\":7353:7357   */\n      dup2\n        /* \"--CODEGEN--\":7344:7350   */\n      dup7\n        /* \"--CODEGEN--\":7250:7358   */\n      jump(tag_161)\n    tag_209:\n        /* \"--CODEGEN--\":7242:7358   */\n      swap1\n      pop\n        /* \"--CODEGEN--\":7406:7415   */\n      dup2\n        /* \"--CODEGEN--\":7400:7404   */\n      dup2\n        /* \"--CODEGEN--\":7396:7416   */\n      sub\n        /* \"--CODEGEN--\":7391:7393   */\n      0x20\n        /* \"--CODEGEN--\":7380:7389   */\n      dup4\n        /* \"--CODEGEN--\":7376:7394   */\n      add\n        /* \"--CODEGEN--\":7369:7417   */\n      mstore\n        /* \"--CODEGEN--\":7431:7551   */\n      tag_210\n        /* \"--CODEGEN--\":7546:7550   */\n      dup2\n        /* \"--CODEGEN--\":7537:7543   */\n      dup6\n        /* \"--CODEGEN--\":7431:7551   */\n      jump(tag_147)\n    tag_210:\n        /* \"--CODEGEN--\":7423:7551   */\n      swap1\n      pop\n        /* \"--CODEGEN--\":7599:7608   */\n      dup2\n        /* \"--CODEGEN--\":7593:7597   */\n      dup2\n        /* \"--CODEGEN--\":7589:7609   */\n      sub\n        /* \"--CODEGEN--\":7584:7586   */\n      0x40\n        /* \"--CODEGEN--\":7573:7582   */\n      dup4\n        /* \"--CODEGEN--\":7569:7587   */\n      add\n        /* \"--CODEGEN--\":7562:7610   */\n      mstore\n        /* \"--CODEGEN--\":7624:7726   */\n      tag_211\n        /* \"--CODEGEN--\":7721:7725   */\n      dup2\n        /* \"--CODEGEN--\":7712:7718   */\n      dup5\n        /* \"--CODEGEN--\":7624:7726   */\n      jump(tag_133)\n    tag_211:\n        /* \"--CODEGEN--\":7616:7726   */\n      swap1\n      pop\n        /* \"--CODEGEN--\":7146:7736   */\n      swap5\n      swap4\n      pop\n      pop\n      pop\n      pop\n      jump\n        /* \"--CODEGEN--\":7743:8088   */\n    tag_45:\n      0x00\n        /* \"--CODEGEN--\":7903:7905   */\n      0x20\n        /* \"--CODEGEN--\":7892:7901   */\n      dup3\n        /* \"--CODEGEN--\":7888:7906   */\n      add\n        /* \"--CODEGEN--\":7880:7906   */\n      swap1\n      pop\n        /* \"--CODEGEN--\":7953:7962   */\n      dup2\n        /* \"--CODEGEN--\":7947:7951   */\n      dup2\n        /* \"--CODEGEN--\":7943:7963   */\n      sub\n        /* \"--CODEGEN--\":7939:7940   */\n      0x00\n        /* \"--CODEGEN--\":7928:7937   */\n      dup4\n        /* \"--CODEGEN--\":7924:7941   */\n      add\n        /* \"--CODEGEN--\":7917:7964   */\n      mstore\n        /* \"--CODEGEN--\":7978:8078   */\n      tag_213\n        /* \"--CODEGEN--\":8073:8077   */\n      dup2\n        /* \"--CODEGEN--\":8064:8070   */\n      dup5\n        /* \"--CODEGEN--\":7978:8078   */\n      jump(tag_197)\n    tag_213:\n        /* \"--CODEGEN--\":7970:8078   */\n      swap1\n      pop\n        /* \"--CODEGEN--\":7874:8088   */\n      swap3\n      swap2\n      pop\n      pop\n      jump\n        /* \"--CODEGEN--\":8095:8308   */\n    tag_15:\n      0x00\n        /* \"--CODEGEN--\":8213:8215   */\n      0x20\n        /* \"--CODEGEN--\":8202:8211   */\n      dup3\n        /* \"--CODEGEN--\":8198:8216   */\n      add\n        /* \"--CODEGEN--\":8190:8216   */\n      swap1\n      pop\n        /* \"--CODEGEN--\":8227:8298   */\n      tag_215\n        /* \"--CODEGEN--\":8295:8296   */\n      0x00\n        /* \"--CODEGEN--\":8284:8293   */\n      dup4\n        /* \"--CODEGEN--\":8280:8297   */\n      add\n        /* \"--CODEGEN--\":8271:8277   */\n      dup5\n        /* \"--CODEGEN--\":8227:8298   */\n      jump(tag_205)\n    tag_215:\n        /* \"--CODEGEN--\":8184:8308   */\n      swap3\n      swap2\n      pop\n      pop\n      jump\n        /* \"--CODEGEN--\":8315:8818   */\n    tag_21:\n      0x00\n        /* \"--CODEGEN--\":8499:8501   */\n      0x60\n        /* \"--CODEGEN--\":8488:8497   */\n      dup3\n        /* \"--CODEGEN--\":8484:8502   */\n      add\n        /* \"--CODEGEN--\":8476:8502   */\n      swap1\n      pop\n        /* \"--CODEGEN--\":8513:8584   */\n      tag_217\n        /* \"--CODEGEN--\":8581:8582   */\n      0x00\n        /* \"--CODEGEN--\":8570:8579   */\n      dup4\n        /* \"--CODEGEN--\":8566:8583   */\n      add\n        /* \"--CODEGEN--\":8557:8563   */\n      dup7\n        /* \"--CODEGEN--\":8513:8584   */\n      jump(tag_205)\n    tag_217:\n        /* \"--CODEGEN--\":8632:8641   */\n      dup2\n        /* \"--CODEGEN--\":8626:8630   */\n      dup2\n        /* \"--CODEGEN--\":8622:8642   */\n      sub\n        /* \"--CODEGEN--\":8617:8619   */\n      0x20\n        /* \"--CODEGEN--\":8606:8615   */\n      dup4\n        /* \"--CODEGEN--\":8602:8620   */\n      add\n        /* \"--CODEGEN--\":8595:8643   */\n      mstore\n        /* \"--CODEGEN--\":8657:8731   */\n      tag_218\n        /* \"--CODEGEN--\":8726:8730   */\n      dup2\n        /* \"--CODEGEN--\":8717:8723   */\n      dup6\n        /* \"--CODEGEN--\":8657:8731   */\n      jump(tag_190)\n    tag_218:\n        /* \"--CODEGEN--\":8649:8731   */\n      swap1\n      pop\n        /* \"--CODEGEN--\":8742:8808   */\n      tag_219\n        /* \"--CODEGEN--\":8804:8806   */\n      0x40\n        /* \"--CODEGEN--\":8793:8802   */\n      dup4\n        /* \"--CODEGEN--\":8789:8807   */\n      add\n        /* \"--CODEGEN--\":8780:8786   */\n      dup5\n        /* \"--CODEGEN--\":8742:8808   */\n      jump(tag_178)\n    tag_219:\n        /* \"--CODEGEN--\":8470:8818   */\n      swap5\n      swap4\n      pop\n      pop\n      pop\n      pop\n      jump\n        /* \"--CODEGEN--\":8825:9081   */\n    tag_98:\n      0x00\n        /* \"--CODEGEN--\":8887:8889   */\n      0x40\n        /* \"--CODEGEN--\":8881:8890   */\n      mload\n        /* \"--CODEGEN--\":8871:8890   */\n      swap1\n      pop\n        /* \"--CODEGEN--\":8925:8929   */\n      dup2\n        /* \"--CODEGEN--\":8917:8923   */\n      dup2\n        /* \"--CODEGEN--\":8913:8930   */\n      add\n        /* \"--CODEGEN--\":9024:9030   */\n      dup2\n        /* \"--CODEGEN--\":9012:9022   */\n      dup2\n        /* \"--CODEGEN--\":9009:9031   */\n      lt\n        /* \"--CODEGEN--\":8988:9006   */\n      0xffffffffffffffff\n        /* \"--CODEGEN--\":8976:8986   */\n      dup3\n        /* \"--CODEGEN--\":8973:9007   */\n      gt\n        /* \"--CODEGEN--\":8970:9032   */\n      or\n        /* \"--CODEGEN--\":8967:8969   */\n      iszero\n      tag_221\n      jumpi\n        /* \"--CODEGEN--\":9045:9046   */\n      0x00\n        /* \"--CODEGEN--\":9042:9043   */\n      dup1\n        /* \"--CODEGEN--\":9035:9047   */\n      revert\n        /* \"--CODEGEN--\":8967:8969   */\n    tag_221:\n        /* \"--CODEGEN--\":9065:9075   */\n      dup1\n        /* \"--CODEGEN--\":9061:9063   */\n      0x40\n        /* \"--CODEGEN--\":9054:9076   */\n      mstore\n        /* \"--CODEGEN--\":8865:9081   */\n      pop\n      swap2\n      swap1\n      pop\n      jump\n        /* \"--CODEGEN--\":9088:9410   */\n    tag_97:\n      0x00\n        /* \"--CODEGEN--\":9232:9250   */\n      0xffffffffffffffff\n        /* \"--CODEGEN--\":9224:9230   */\n      dup3\n        /* \"--CODEGEN--\":9221:9251   */\n      gt\n        /* \"--CODEGEN--\":9218:9220   */\n      iszero\n      tag_223\n      jumpi\n        /* \"--CODEGEN--\":9264:9265   */\n      0x00\n        /* \"--CODEGEN--\":9261:9262   */\n      dup1\n        /* \"--CODEGEN--\":9254:9266   */\n      revert\n        /* \"--CODEGEN--\":9218:9220   */\n    tag_223:\n        /* \"--CODEGEN--\":9331:9335   */\n      0x1f\n        /* \"--CODEGEN--\":9327:9336   */\n      not\n        /* \"--CODEGEN--\":9320:9324   */\n      0x1f\n        /* \"--CODEGEN--\":9312:9318   */\n      dup4\n        /* \"--CODEGEN--\":9308:9325   */\n      add\n        /* \"--CODEGEN--\":9304:9337   */\n      and\n        /* \"--CODEGEN--\":9296:9337   */\n      swap1\n      pop\n        /* \"--CODEGEN--\":9395:9399   */\n      0x20\n        /* \"--CODEGEN--\":9389:9393   */\n      dup2\n        /* \"--CODEGEN--\":9385:9400   */\n      add\n        /* \"--CODEGEN--\":9377:9400   */\n      swap1\n      pop\n        /* \"--CODEGEN--\":9155:9410   */\n      swap2\n      swap1\n      pop\n      jump\n        /* \"--CODEGEN--\":9417:9565   */\n    tag_140:\n      0x00\n        /* \"--CODEGEN--\":9500:9503   */\n      dup2\n        /* \"--CODEGEN--\":9492:9503   */\n      swap1\n      pop\n        /* \"--CODEGEN--\":9538:9542   */\n      0x20\n        /* \"--CODEGEN--\":9533:9536   */\n      dup3\n        /* \"--CODEGEN--\":9529:9543   */\n      add\n        /* \"--CODEGEN--\":9521:9543   */\n      swap1\n      pop\n        /* \"--CODEGEN--\":9486:9565   */\n      swap2\n      swap1\n      pop\n      jump\n        /* \"--CODEGEN--\":9572:9729   */\n    tag_154:\n      0x00\n        /* \"--CODEGEN--\":9664:9667   */\n      dup2\n        /* \"--CODEGEN--\":9656:9667   */\n      swap1\n      pop\n        /* \"--CODEGEN--\":9702:9706   */\n      0x20\n        /* \"--CODEGEN--\":9697:9700   */\n      dup3\n        /* \"--CODEGEN--\":9693:9707   */\n      add\n        /* \"--CODEGEN--\":9685:9707   */\n      swap1\n      pop\n        /* \"--CODEGEN--\":9650:9729   */\n      swap2\n      swap1\n      pop\n      jump\n        /* \"--CODEGEN--\":9736:9887   */\n    tag_168:\n      0x00\n        /* \"--CODEGEN--\":9822:9825   */\n      dup2\n        /* \"--CODEGEN--\":9814:9825   */\n      swap1\n      pop\n        /* \"--CODEGEN--\":9860:9864   */\n      0x20\n        /* \"--CODEGEN--\":9855:9858   */\n      dup3\n        /* \"--CODEGEN--\":9851:9865   */\n      add\n        /* \"--CODEGEN--\":9843:9865   */\n      swap1\n      pop\n        /* \"--CODEGEN--\":9808:9887   */\n      swap2\n      swap1\n      pop\n      jump\n        /* \"--CODEGEN--\":9894:10028   */\n    tag_136:\n      0x00\n        /* \"--CODEGEN--\":10000:10005   */\n      dup2\n        /* \"--CODEGEN--\":9994:10006   */\n      mload\n        /* \"--CODEGEN--\":9984:10006   */\n      swap1\n      pop\n        /* \"--CODEGEN--\":9965:10028   */\n      swap2\n      swap1\n      pop\n      jump\n        /* \"--CODEGEN--\":10035:10178   */\n    tag_150:\n      0x00\n        /* \"--CODEGEN--\":10150:10155   */\n      dup2\n        /* \"--CODEGEN--\":10144:10156   */\n      mload\n        /* \"--CODEGEN--\":10134:10156   */\n      swap1\n      pop\n        /* \"--CODEGEN--\":10115:10178   */\n      swap2\n      swap1\n      pop\n      jump\n        /* \"--CODEGEN--\":10185:10322   */\n    tag_164:\n      0x00\n        /* \"--CODEGEN--\":10294:10299   */\n      dup2\n        /* \"--CODEGEN--\":10288:10300   */\n      mload\n        /* \"--CODEGEN--\":10278:10300   */\n      swap1\n      pop\n        /* \"--CODEGEN--\":10259:10322   */\n      swap2\n      swap1\n      pop\n      jump\n        /* \"--CODEGEN--\":10329:10447   */\n    tag_183:\n      0x00\n        /* \"--CODEGEN--\":10419:10424   */\n      dup2\n        /* \"--CODEGEN--\":10413:10425   */\n      mload\n        /* \"--CODEGEN--\":10403:10425   */\n      swap1\n      pop\n        /* \"--CODEGEN--\":10384:10447   */\n      swap2\n      swap1\n      pop\n      jump\n        /* \"--CODEGEN--\":10454:10559   */\n    tag_146:\n      0x00\n        /* \"--CODEGEN--\":10549:10553   */\n      0x20\n        /* \"--CODEGEN--\":10544:10547   */\n      dup3\n        /* \"--CODEGEN--\":10540:10554   */\n      add\n        /* \"--CODEGEN--\":10532:10554   */\n      swap1\n      pop\n        /* \"--CODEGEN--\":10526:10559   */\n      swap2\n      swap1\n      pop\n      jump\n        /* \"--CODEGEN--\":10566:10680   */\n    tag_160:\n      0x00\n        /* \"--CODEGEN--\":10670:10674   */\n      0x20\n        /* \"--CODEGEN--\":10665:10668   */\n      dup3\n        /* \"--CODEGEN--\":10661:10675   */\n      add\n        /* \"--CODEGEN--\":10653:10675   */\n      swap1\n      pop\n        /* \"--CODEGEN--\":10647:10680   */\n      swap2\n      swap1\n      pop\n      jump\n        /* \"--CODEGEN--\":10687:10795   */\n    tag_174:\n      0x00\n        /* \"--CODEGEN--\":10785:10789   */\n      0x20\n        /* \"--CODEGEN--\":10780:10783   */\n      dup3\n        /* \"--CODEGEN--\":10776:10790   */\n      add\n        /* \"--CODEGEN--\":10768:10790   */\n      swap1\n      pop\n        /* \"--CODEGEN--\":10762:10795   */\n      swap2\n      swap1\n      pop\n      jump\n        /* \"--CODEGEN--\":10803:10978   */\n    tag_138:\n      0x00\n        /* \"--CODEGEN--\":10930:10936   */\n      dup3\n        /* \"--CODEGEN--\":10925:10928   */\n      dup3\n        /* \"--CODEGEN--\":10918:10937   */\n      mstore\n        /* \"--CODEGEN--\":10967:10971   */\n      0x20\n        /* \"--CODEGEN--\":10962:10965   */\n      dup3\n        /* \"--CODEGEN--\":10958:10972   */\n      add\n        /* \"--CODEGEN--\":10943:10972   */\n      swap1\n      pop\n        /* \"--CODEGEN--\":10911:10978   */\n      swap3\n      swap2\n      pop\n      pop\n      jump\n        /* \"--CODEGEN--\":10987:11171   */\n    tag_152:\n      0x00\n        /* \"--CODEGEN--\":11123:11129   */\n      dup3\n        /* \"--CODEGEN--\":11118:11121   */\n      dup3\n        /* \"--CODEGEN--\":11111:11130   */\n      mstore\n        /* \"--CODEGEN--\":11160:11164   */\n      0x20\n        /* \"--CODEGEN--\":11155:11158   */\n      dup3\n        /* \"--CODEGEN--\":11151:11165   */\n      add\n        /* \"--CODEGEN--\":11136:11165   */\n      swap1\n      pop\n        /* \"--CODEGEN--\":11104:11171   */\n      swap3\n      swap2\n      pop\n      pop\n      jump\n        /* \"--CODEGEN--\":11180:11358   */\n    tag_166:\n      0x00\n        /* \"--CODEGEN--\":11310:11316   */\n      dup3\n        /* \"--CODEGEN--\":11305:11308   */\n      dup3\n        /* \"--CODEGEN--\":11298:11317   */\n      mstore\n        /* \"--CODEGEN--\":11347:11351   */\n      0x20\n        /* \"--CODEGEN--\":11342:11345   */\n      dup3\n        /* \"--CODEGEN--\":11338:11352   */\n      add\n        /* \"--CODEGEN--\":11323:11352   */\n      swap1\n      pop\n        /* \"--CODEGEN--\":11291:11358   */\n      swap3\n      swap2\n      pop\n      pop\n      jump\n        /* \"--CODEGEN--\":11367:11520   */\n    tag_185:\n      0x00\n        /* \"--CODEGEN--\":11472:11478   */\n      dup3\n        /* \"--CODEGEN--\":11467:11470   */\n      dup3\n        /* \"--CODEGEN--\":11460:11479   */\n      mstore\n        /* \"--CODEGEN--\":11509:11513   */\n      0x20\n        /* \"--CODEGEN--\":11504:11507   */\n      dup3\n        /* \"--CODEGEN--\":11500:11514   */\n      add\n        /* \"--CODEGEN--\":11485:11514   */\n      swap1\n      pop\n        /* \"--CODEGEN--\":11453:11520   */\n      swap3\n      swap2\n      pop\n      pop\n      jump\n        /* \"--CODEGEN--\":11529:11692   */\n    tag_194:\n      0x00\n        /* \"--CODEGEN--\":11644:11650   */\n      dup3\n        /* \"--CODEGEN--\":11639:11642   */\n      dup3\n        /* \"--CODEGEN--\":11632:11651   */\n      mstore\n        /* \"--CODEGEN--\":11681:11685   */\n      0x20\n        /* \"--CODEGEN--\":11676:11679   */\n      dup3\n        /* \"--CODEGEN--\":11672:11686   */\n      add\n        /* \"--CODEGEN--\":11657:11686   */\n      swap1\n      pop\n        /* \"--CODEGEN--\":11625:11692   */\n      swap3\n      swap2\n      pop\n      pop\n      jump\n        /* \"--CODEGEN--\":11700:11785   */\n    tag_177:\n      0x00\n        /* \"--CODEGEN--\":11773:11778   */\n      dup2\n        /* \"--CODEGEN--\":11766:11779   */\n      iszero\n        /* \"--CODEGEN--\":11759:11780   */\n      iszero\n        /* \"--CODEGEN--\":11748:11780   */\n      swap1\n      pop\n        /* \"--CODEGEN--\":11742:11785   */\n      swap2\n      swap1\n      pop\n      jump\n        /* \"--CODEGEN--\":11792:11864   */\n    tag_204:\n      0x00\n        /* \"--CODEGEN--\":11854:11859   */\n      dup2\n        /* \"--CODEGEN--\":11843:11859   */\n      swap1\n      pop\n        /* \"--CODEGEN--\":11837:11864   */\n      swap2\n      swap1\n      pop\n      jump\n        /* \"--CODEGEN--\":11872:12017   */\n    tag_101:\n        /* \"--CODEGEN--\":11953:11959   */\n      dup3\n        /* \"--CODEGEN--\":11948:11951   */\n      dup2\n        /* \"--CODEGEN--\":11943:11946   */\n      dup4\n        /* \"--CODEGEN--\":11930:11960   */\n      calldatacopy\n        /* \"--CODEGEN--\":12009:12010   */\n      0x00\n        /* \"--CODEGEN--\":12000:12006   */\n      dup4\n        /* \"--CODEGEN--\":11995:11998   */\n      dup4\n        /* \"--CODEGEN--\":11991:12007   */\n      add\n        /* \"--CODEGEN--\":11984:12011   */\n      mstore\n        /* \"--CODEGEN--\":11923:12017   */\n      pop\n      pop\n      pop\n      jump\n        /* \"--CODEGEN--\":12026:12294   */\n    tag_187:\n        /* \"--CODEGEN--\":12091:12092   */\n      0x00\n        /* \"--CODEGEN--\":12098:12199   */\n    tag_243:\n        /* \"--CODEGEN--\":12112:12118   */\n      dup4\n        /* \"--CODEGEN--\":12109:12110   */\n      dup2\n        /* \"--CODEGEN--\":12106:12119   */\n      lt\n        /* \"--CODEGEN--\":12098:12199   */\n      iszero\n      tag_245\n      jumpi\n        /* \"--CODEGEN--\":12188:12189   */\n      dup1\n        /* \"--CODEGEN--\":12183:12186   */\n      dup3\n        /* \"--CODEGEN--\":12179:12190   */\n      add\n        /* \"--CODEGEN--\":12173:12191   */\n      mload\n        /* \"--CODEGEN--\":12169:12170   */\n      dup2\n        /* \"--CODEGEN--\":12164:12167   */\n      dup5\n        /* \"--CODEGEN--\":12160:12171   */\n      add\n        /* \"--CODEGEN--\":12153:12192   */\n      mstore\n        /* \"--CODEGEN--\":12134:12136   */\n      0x20\n        /* \"--CODEGEN--\":12131:12132   */\n      dup2\n        /* \"--CODEGEN--\":12127:12137   */\n      add\n        /* \"--CODEGEN--\":12122:12137   */\n      swap1\n      pop\n        /* \"--CODEGEN--\":12098:12199   */\n      jump(tag_243)\n    tag_245:\n        /* \"--CODEGEN--\":12214:12220   */\n      dup4\n        /* \"--CODEGEN--\":12211:12212   */\n      dup2\n        /* \"--CODEGEN--\":12208:12221   */\n      gt\n        /* \"--CODEGEN--\":12205:12207   */\n      iszero\n      tag_246\n      jumpi\n        /* \"--CODEGEN--\":12279:12280   */\n      0x00\n        /* \"--CODEGEN--\":12270:12276   */\n      dup5\n        /* \"--CODEGEN--\":12265:12268   */\n      dup5\n        /* \"--CODEGEN--\":12261:12277   */\n      add\n        /* \"--CODEGEN--\":12254:12281   */\n      mstore\n        /* \"--CODEGEN--\":12205:12207   */\n    tag_246:\n        /* \"--CODEGEN--\":12075:12294   */\n      pop\n      pop\n      pop\n      pop\n      jump\n        /* \"--CODEGEN--\":12302:12399   */\n    tag_189:\n      0x00\n        /* \"--CODEGEN--\":12390:12392   */\n      0x1f\n        /* \"--CODEGEN--\":12386:12393   */\n      not\n        /* \"--CODEGEN--\":12381:12383   */\n      0x1f\n        /* \"--CODEGEN--\":12374:12379   */\n      dup4\n        /* \"--CODEGEN--\":12370:12384   */\n      add\n        /* \"--CODEGEN--\":12366:12394   */\n      and\n        /* \"--CODEGEN--\":12356:12394   */\n      swap1\n      pop\n        /* \"--CODEGEN--\":12350:12399   */\n      swap2\n      swap1\n      pop\n      jump\n        /* \"--CODEGEN--\":12407:12518   */\n    tag_91:\n        /* \"--CODEGEN--\":12473:12494   */\n      tag_249\n        /* \"--CODEGEN--\":12488:12493   */\n      dup2\n        /* \"--CODEGEN--\":12473:12494   */\n      jump(tag_177)\n    tag_249:\n        /* \"--CODEGEN--\":12466:12471   */\n      dup2\n        /* \"--CODEGEN--\":12463:12495   */\n      eq\n        /* \"--CODEGEN--\":12453:12455   */\n      tag_250\n      jumpi\n        /* \"--CODEGEN--\":12509:12510   */\n      0x00\n        /* \"--CODEGEN--\":12506:12507   */\n      dup1\n        /* \"--CODEGEN--\":12499:12511   */\n      revert\n        /* \"--CODEGEN--\":12453:12455   */\n    tag_250:\n        /* \"--CODEGEN--\":12447:12518   */\n      pop\n      jump\n        /* \"--CODEGEN--\":12525:12642   */\n    tag_105:\n        /* \"--CODEGEN--\":12594:12618   */\n      tag_252\n        /* \"--CODEGEN--\":12612:12617   */\n      dup2\n        /* \"--CODEGEN--\":12594:12618   */\n      jump(tag_204)\n    tag_252:\n        /* \"--CODEGEN--\":12587:12592   */\n      dup2\n        /* \"--CODEGEN--\":12584:12619   */\n      eq\n        /* \"--CODEGEN--\":12574:12576   */\n      tag_253\n      jumpi\n        /* \"--CODEGEN--\":12633:12634   */\n      0x00\n        /* \"--CODEGEN--\":12630:12631   */\n      dup1\n        /* \"--CODEGEN--\":12623:12635   */\n      revert\n        /* \"--CODEGEN--\":12574:12576   */\n    tag_253:\n        /* \"--CODEGEN--\":12568:12642   */\n      pop\n      jump\n\n    auxdata: 0xa26469706673582212207ab87229be1dc9a4f3d872f51b83cfd9a70715b9a4a19019557bbb74ab246f9064736f6c63430006000033\n}\n",
				"bytecode": {
					"linkReferences": {},
					"object": "60806040523480156200001157600080fd5b506000600181905550620000626040518060400160405280600481526020017f566c61640000000000000000000000000000000000000000000000000000000081525060016200026060201b60201c565b620000aa6040518060400160405280600681526020017f4e6173747961000000000000000000000000000000000000000000000000000081525060006200026060201b60201c565b620000f26040518060400160405280600581526020017f566c61643100000000000000000000000000000000000000000000000000000081525060016200026060201b60201c565b6200013a6040518060400160405280600781526020017f4e6173747961320000000000000000000000000000000000000000000000000081525060006200026060201b60201c565b620001826040518060400160405280600581526020017f566c61643300000000000000000000000000000000000000000000000000000081525060016200026060201b60201c565b620001ca6040518060400160405280600781526020017f4e6173747961340000000000000000000000000000000000000000000000000081525060006200026060201b60201c565b620002126040518060400160405280600581526020017f566c61643500000000000000000000000000000000000000000000000000000081525060016200026060201b60201c565b6200025a6040518060400160405280600781526020017f4e6173747961360000000000000000000000000000000000000000000000000081525060006200026060201b60201c565b620003a4565b604051806060016040528060015481526020018381526020018215158152506000806001548152602001908152602001600020600082015181600001556020820151816001019080519060200190620002bb929190620002f5565b5060408201518160020160006101000a81548160ff0219169083151502179055509050506001600081548092919060010191905055505050565b828054600181600116156101000203166002900490600052602060002090601f016020900481019282601f106200033857805160ff191683800117855562000369565b8280016001018555821562000369579182015b82811115620003685782518255916020019190600101906200034b565b5b5090506200037891906200037c565b5090565b620003a191905b808211156200039d57600081600090555060010162000383565b5090565b90565b610de580620003b46000396000f3fe608060405234801561001057600080fd5b50600436106100885760003560e01c8063ab7a20151161005b578063ab7a201514610119578063d3516b7e14610135578063f0232d0a14610151578063f97698f81461016f57610088565b806311aee3801461008d5780635daf08ca146100ab5780636f416d59146100dd57806392c68389146100fd575b600080fd5b61009561019f565b6040516100a29190610b8e565b60405180910390f35b6100c560048036036100c09190810190610848565b6101a5565b6040516100d493929190610ba9565b60405180910390f35b6100e5610274565b6040516100f493929190610b20565b60405180910390f35b610117600480360361011291908101906107f4565b610466565b005b610133600480360361012e91908101906107cb565b6104f9565b005b61014f600480360361014a9190810190610871565b61055b565b005b61015961058c565b6040516101669190610b8e565b60405180910390f35b61018960048036036101849190810190610848565b610592565b6040516101969190610b6c565b60405180910390f35b60015481565b6000602052806000526040600020600091509050806000015490806001018054600181600116156101000203166002900480601f0160208091040260200160405190810160405280929190818152602001828054600181600116156101000203166002900480156102575780601f1061022c57610100808354040283529160200191610257565b820191906000526020600020905b81548152906001019060200180831161023a57829003601f168201915b5050505050908060020160009054906101000a900460ff16905083565b6060806060806001546040519080825280602002602001820160405280156102ab5781602001602082028038833980820191505090505b50905060606001546040519080825280602002602001820160405280156102e657816020015b60608152602001906001900390816102d15790505b509050606060015460405190808252806020026020018201604052801561031c5781602001602082028038833980820191505090505b50905060008090505b6001548110156104545760008060008381526020019081526020016000209050806000015485838151811061035657fe5b602002602001018181525050806001018054600181600116156101000203166002900480601f0160208091040260200160405190810160405280929190818152602001828054600181600116156101000203166002900480156103fa5780601f106103cf576101008083540402835291602001916103fa565b820191906000526020600020905b8154815290600101906020018083116103dd57829003601f168201915b505050505084838151811061040b57fe5b60200260200101819052508060020160009054906101000a900460ff1683838151811061043457fe5b602002602001019015159081151581525050508080600101915050610325565b50828282955095509550505050909192565b6040518060600160405280600154815260200183815260200182151581525060008060015481526020019081526020016000206000820151816000015560208201518160010190805190602001906104bf929190610685565b5060408201518160020160006101000a81548160ff0219169083151502179055509050506001600081548092919060010191905055505050565b60008090505b6001548110156105575781151560008083815260200190815260200160002060020160009054906101000a900460ff161515141561054a576002600081548092919060010191905055505b80806001019150506104ff565b5050565b8060008084815260200190815260200160002060020160006101000a81548160ff0219169083151502179055505050565b60025481565b61059a610705565b60008083815260200190815260200160002060405180606001604052908160008201548152602001600182018054600181600116156101000203166002900480601f01602080910402602001604051908101604052809291908181526020018280546001816001161561010002031660029004801561065a5780601f1061062f5761010080835404028352916020019161065a565b820191906000526020600020905b81548152906001019060200180831161063d57829003601f168201915b505050505081526020016002820160009054906101000a900460ff1615151515815250509050919050565b828054600181600116156101000203166002900490600052602060002090601f016020900481019282601f106106c657805160ff19168380011785556106f4565b828001600101855582156106f4579182015b828111156106f35782518255916020019190600101906106d8565b5b5090506107019190610728565b5090565b604051806060016040528060008152602001606081526020016000151581525090565b61074a91905b8082111561074657600081600090555060010161072e565b5090565b90565b60008135905061075c81610d81565b92915050565b600082601f83011261077357600080fd5b813561078661078182610c14565b610be7565b915080825260208301602083018583830111156107a257600080fd5b6107ad838284610d2e565b50505092915050565b6000813590506107c581610d98565b92915050565b6000602082840312156107dd57600080fd5b60006107eb8482850161074d565b91505092915050565b6000806040838503121561080757600080fd5b600083013567ffffffffffffffff81111561082157600080fd5b61082d85828601610762565b925050602061083e8582860161074d565b9150509250929050565b60006020828403121561085a57600080fd5b6000610868848285016107b6565b91505092915050565b6000806040838503121561088457600080fd5b6000610892858286016107b6565b92505060206108a38582860161074d565b9150509250929050565b60006108b98383610a22565b60208301905092915050565b60006108d18383610a40565b905092915050565b60006108e58383610b02565b60208301905092915050565b60006108fc82610c70565b6109068185610cc3565b935061091183610c40565b8060005b8381101561094257815161092988826108ad565b975061093483610c9c565b925050600181019050610915565b5085935050505092915050565b600061095a82610c7b565b6109648185610cd4565b93508360208202850161097685610c50565b8060005b858110156109b2578484038952815161099385826108c5565b945061099e83610ca9565b925060208a0199505060018101905061097a565b50829750879550505050505092915050565b60006109cf82610c86565b6109d98185610ce5565b93506109e483610c60565b8060005b83811015610a155781516109fc88826108d9565b9750610a0783610cb6565b9250506001810190506109e8565b5085935050505092915050565b610a2b81610d18565b82525050565b610a3a81610d18565b82525050565b6000610a4b82610c91565b610a558185610cf6565b9350610a65818560208601610d3d565b610a6e81610d70565b840191505092915050565b6000610a8482610c91565b610a8e8185610d07565b9350610a9e818560208601610d3d565b610aa781610d70565b840191505092915050565b6000606083016000830151610aca6000860182610b02565b5060208301518482036020860152610ae28282610a40565b9150506040830151610af76040860182610a22565b508091505092915050565b610b0b81610d24565b82525050565b610b1a81610d24565b82525050565b60006060820190508181036000830152610b3a81866109c4565b90508181036020830152610b4e818561094f565b90508181036040830152610b6281846108f1565b9050949350505050565b60006020820190508181036000830152610b868184610ab2565b905092915050565b6000602082019050610ba36000830184610b11565b92915050565b6000606082019050610bbe6000830186610b11565b8181036020830152610bd08185610a79565b9050610bdf6040830184610a31565b949350505050565b6000604051905081810181811067ffffffffffffffff82111715610c0a57600080fd5b8060405250919050565b600067ffffffffffffffff821115610c2b57600080fd5b601f19601f8301169050602081019050919050565b6000819050602082019050919050565b6000819050602082019050919050565b6000819050602082019050919050565b600081519050919050565b600081519050919050565b600081519050919050565b600081519050919050565b6000602082019050919050565b6000602082019050919050565b6000602082019050919050565b600082825260208201905092915050565b600082825260208201905092915050565b600082825260208201905092915050565b600082825260208201905092915050565b600082825260208201905092915050565b60008115159050919050565b6000819050919050565b82818337600083830152505050565b60005b83811015610d5b578082015181840152602081019050610d40565b83811115610d6a576000848401525b50505050565b6000601f19601f8301169050919050565b610d8a81610d18565b8114610d9557600080fd5b50565b610da181610d24565b8114610dac57600080fd5b5056fea26469706673582212207ab87229be1dc9a4f3d872f51b83cfd9a70715b9a4a19019557bbb74ab246f9064736f6c63430006000033",
					"opcodes": "PUSH1 0x80 PUSH1 0x40 MSTORE CALLVALUE DUP1 ISZERO PUSH3 0x11 JUMPI PUSH1 0x0 DUP1 REVERT JUMPDEST POP PUSH1 0x0 PUSH1 0x1 DUP2 SWAP1 SSTORE POP PUSH3 0x62 PUSH1 0x40 MLOAD DUP1 PUSH1 0x40 ADD PUSH1 0x40 MSTORE DUP1 PUSH1 0x4 DUP2 MSTORE PUSH1 0x20 ADD PUSH32 0x566C616400000000000000000000000000000000000000000000000000000000 DUP2 MSTORE POP PUSH1 0x1 PUSH3 0x260 PUSH1 0x20 SHL PUSH1 0x20 SHR JUMP JUMPDEST PUSH3 0xAA PUSH1 0x40 MLOAD DUP1 PUSH1 0x40 ADD PUSH1 0x40 MSTORE DUP1 PUSH1 0x6 DUP2 MSTORE PUSH1 0x20 ADD PUSH32 0x4E61737479610000000000000000000000000000000000000000000000000000 DUP2 MSTORE POP PUSH1 0x0 PUSH3 0x260 PUSH1 0x20 SHL PUSH1 0x20 SHR JUMP JUMPDEST PUSH3 0xF2 PUSH1 0x40 MLOAD DUP1 PUSH1 0x40 ADD PUSH1 0x40 MSTORE DUP1 PUSH1 0x5 DUP2 MSTORE PUSH1 0x20 ADD PUSH32 0x566C616431000000000000000000000000000000000000000000000000000000 DUP2 MSTORE POP PUSH1 0x1 PUSH3 0x260 PUSH1 0x20 SHL PUSH1 0x20 SHR JUMP JUMPDEST PUSH3 0x13A PUSH1 0x40 MLOAD DUP1 PUSH1 0x40 ADD PUSH1 0x40 MSTORE DUP1 PUSH1 0x7 DUP2 MSTORE PUSH1 0x20 ADD PUSH32 0x4E61737479613200000000000000000000000000000000000000000000000000 DUP2 MSTORE POP PUSH1 0x0 PUSH3 0x260 PUSH1 0x20 SHL PUSH1 0x20 SHR JUMP JUMPDEST PUSH3 0x182 PUSH1 0x40 MLOAD DUP1 PUSH1 0x40 ADD PUSH1 0x40 MSTORE DUP1 PUSH1 0x5 DUP2 MSTORE PUSH1 0x20 ADD PUSH32 0x566C616433000000000000000000000000000000000000000000000000000000 DUP2 MSTORE POP PUSH1 0x1 PUSH3 0x260 PUSH1 0x20 SHL PUSH1 0x20 SHR JUMP JUMPDEST PUSH3 0x1CA PUSH1 0x40 MLOAD DUP1 PUSH1 0x40 ADD PUSH1 0x40 MSTORE DUP1 PUSH1 0x7 DUP2 MSTORE PUSH1 0x20 ADD PUSH32 0x4E61737479613400000000000000000000000000000000000000000000000000 DUP2 MSTORE POP PUSH1 0x0 PUSH3 0x260 PUSH1 0x20 SHL PUSH1 0x20 SHR JUMP JUMPDEST PUSH3 0x212 PUSH1 0x40 MLOAD DUP1 PUSH1 0x40 ADD PUSH1 0x40 MSTORE DUP1 PUSH1 0x5 DUP2 MSTORE PUSH1 0x20 ADD PUSH32 0x566C616435000000000000000000000000000000000000000000000000000000 DUP2 MSTORE POP PUSH1 0x1 PUSH3 0x260 PUSH1 0x20 SHL PUSH1 0x20 SHR JUMP JUMPDEST PUSH3 0x25A PUSH1 0x40 MLOAD DUP1 PUSH1 0x40 ADD PUSH1 0x40 MSTORE DUP1 PUSH1 0x7 DUP2 MSTORE PUSH1 0x20 ADD PUSH32 0x4E61737479613600000000000000000000000000000000000000000000000000 DUP2 MSTORE POP PUSH1 0x0 PUSH3 0x260 PUSH1 0x20 SHL PUSH1 0x20 SHR JUMP JUMPDEST PUSH3 0x3A4 JUMP JUMPDEST PUSH1 0x40 MLOAD DUP1 PUSH1 0x60 ADD PUSH1 0x40 MSTORE DUP1 PUSH1 0x1 SLOAD DUP2 MSTORE PUSH1 0x20 ADD DUP4 DUP2 MSTORE PUSH1 0x20 ADD DUP3 ISZERO ISZERO DUP2 MSTORE POP PUSH1 0x0 DUP1 PUSH1 0x1 SLOAD DUP2 MSTORE PUSH1 0x20 ADD SWAP1 DUP2 MSTORE PUSH1 0x20 ADD PUSH1 0x0 KECCAK256 PUSH1 0x0 DUP3 ADD MLOAD DUP2 PUSH1 0x0 ADD SSTORE PUSH1 0x20 DUP3 ADD MLOAD DUP2 PUSH1 0x1 ADD SWAP1 DUP1 MLOAD SWAP1 PUSH1 0x20 ADD SWAP1 PUSH3 0x2BB SWAP3 SWAP2 SWAP1 PUSH3 0x2F5 JUMP JUMPDEST POP PUSH1 0x40 DUP3 ADD MLOAD DUP2 PUSH1 0x2 ADD PUSH1 0x0 PUSH2 0x100 EXP DUP2 SLOAD DUP2 PUSH1 0xFF MUL NOT AND SWAP1 DUP4 ISZERO ISZERO MUL OR SWAP1 SSTORE POP SWAP1 POP POP PUSH1 0x1 PUSH1 0x0 DUP2 SLOAD DUP1 SWAP3 SWAP2 SWAP1 PUSH1 0x1 ADD SWAP2 SWAP1 POP SSTORE POP POP POP JUMP JUMPDEST DUP3 DUP1 SLOAD PUSH1 0x1 DUP2 PUSH1 0x1 AND ISZERO PUSH2 0x100 MUL SUB AND PUSH1 0x2 SWAP1 DIV SWAP1 PUSH1 0x0 MSTORE PUSH1 0x20 PUSH1 0x0 KECCAK256 SWAP1 PUSH1 0x1F ADD PUSH1 0x20 SWAP1 DIV DUP2 ADD SWAP3 DUP3 PUSH1 0x1F LT PUSH3 0x338 JUMPI DUP1 MLOAD PUSH1 0xFF NOT AND DUP4 DUP1 ADD OR DUP6 SSTORE PUSH3 0x369 JUMP JUMPDEST DUP3 DUP1 ADD PUSH1 0x1 ADD DUP6 SSTORE DUP3 ISZERO PUSH3 0x369 JUMPI SWAP2 DUP3 ADD JUMPDEST DUP3 DUP2 GT ISZERO PUSH3 0x368 JUMPI DUP3 MLOAD DUP3 SSTORE SWAP2 PUSH1 0x20 ADD SWAP2 SWAP1 PUSH1 0x1 ADD SWAP1 PUSH3 0x34B JUMP JUMPDEST JUMPDEST POP SWAP1 POP PUSH3 0x378 SWAP2 SWAP1 PUSH3 0x37C JUMP JUMPDEST POP SWAP1 JUMP JUMPDEST PUSH3 0x3A1 SWAP2 SWAP1 JUMPDEST DUP1 DUP3 GT ISZERO PUSH3 0x39D JUMPI PUSH1 0x0 DUP2 PUSH1 0x0 SWAP1 SSTORE POP PUSH1 0x1 ADD PUSH3 0x383 JUMP JUMPDEST POP SWAP1 JUMP JUMPDEST SWAP1 JUMP JUMPDEST PUSH2 0xDE5 DUP1 PUSH3 0x3B4 PUSH1 0x0 CODECOPY PUSH1 0x0 RETURN INVALID PUSH1 0x80 PUSH1 0x40 MSTORE CALLVALUE DUP1 ISZERO PUSH2 0x10 JUMPI PUSH1 0x0 DUP1 REVERT JUMPDEST POP PUSH1 0x4 CALLDATASIZE LT PUSH2 0x88 JUMPI PUSH1 0x0 CALLDATALOAD PUSH1 0xE0 SHR DUP1 PUSH4 0xAB7A2015 GT PUSH2 0x5B JUMPI DUP1 PUSH4 0xAB7A2015 EQ PUSH2 0x119 JUMPI DUP1 PUSH4 0xD3516B7E EQ PUSH2 0x135 JUMPI DUP1 PUSH4 0xF0232D0A EQ PUSH2 0x151 JUMPI DUP1 PUSH4 0xF97698F8 EQ PUSH2 0x16F JUMPI PUSH2 0x88 JUMP JUMPDEST DUP1 PUSH4 0x11AEE380 EQ PUSH2 0x8D JUMPI DUP1 PUSH4 0x5DAF08CA EQ PUSH2 0xAB JUMPI DUP1 PUSH4 0x6F416D59 EQ PUSH2 0xDD JUMPI DUP1 PUSH4 0x92C68389 EQ PUSH2 0xFD JUMPI JUMPDEST PUSH1 0x0 DUP1 REVERT JUMPDEST PUSH2 0x95 PUSH2 0x19F JUMP JUMPDEST PUSH1 0x40 MLOAD PUSH2 0xA2 SWAP2 SWAP1 PUSH2 0xB8E JUMP JUMPDEST PUSH1 0x40 MLOAD DUP1 SWAP2 SUB SWAP1 RETURN JUMPDEST PUSH2 0xC5 PUSH1 0x4 DUP1 CALLDATASIZE SUB PUSH2 0xC0 SWAP2 SWAP1 DUP2 ADD SWAP1 PUSH2 0x848 JUMP JUMPDEST PUSH2 0x1A5 JUMP JUMPDEST PUSH1 0x40 MLOAD PUSH2 0xD4 SWAP4 SWAP3 SWAP2 SWAP1 PUSH2 0xBA9 JUMP JUMPDEST PUSH1 0x40 MLOAD DUP1 SWAP2 SUB SWAP1 RETURN JUMPDEST PUSH2 0xE5 PUSH2 0x274 JUMP JUMPDEST PUSH1 0x40 MLOAD PUSH2 0xF4 SWAP4 SWAP3 SWAP2 SWAP1 PUSH2 0xB20 JUMP JUMPDEST PUSH1 0x40 MLOAD DUP1 SWAP2 SUB SWAP1 RETURN JUMPDEST PUSH2 0x117 PUSH1 0x4 DUP1 CALLDATASIZE SUB PUSH2 0x112 SWAP2 SWAP1 DUP2 ADD SWAP1 PUSH2 0x7F4 JUMP JUMPDEST PUSH2 0x466 JUMP JUMPDEST STOP JUMPDEST PUSH2 0x133 PUSH1 0x4 DUP1 CALLDATASIZE SUB PUSH2 0x12E SWAP2 SWAP1 DUP2 ADD SWAP1 PUSH2 0x7CB JUMP JUMPDEST PUSH2 0x4F9 JUMP JUMPDEST STOP JUMPDEST PUSH2 0x14F PUSH1 0x4 DUP1 CALLDATASIZE SUB PUSH2 0x14A SWAP2 SWAP1 DUP2 ADD SWAP1 PUSH2 0x871 JUMP JUMPDEST PUSH2 0x55B JUMP JUMPDEST STOP JUMPDEST PUSH2 0x159 PUSH2 0x58C JUMP JUMPDEST PUSH1 0x40 MLOAD PUSH2 0x166 SWAP2 SWAP1 PUSH2 0xB8E JUMP JUMPDEST PUSH1 0x40 MLOAD DUP1 SWAP2 SUB SWAP1 RETURN JUMPDEST PUSH2 0x189 PUSH1 0x4 DUP1 CALLDATASIZE SUB PUSH2 0x184 SWAP2 SWAP1 DUP2 ADD SWAP1 PUSH2 0x848 JUMP JUMPDEST PUSH2 0x592 JUMP JUMPDEST PUSH1 0x40 MLOAD PUSH2 0x196 SWAP2 SWAP1 PUSH2 0xB6C JUMP JUMPDEST PUSH1 0x40 MLOAD DUP1 SWAP2 SUB SWAP1 RETURN JUMPDEST PUSH1 0x1 SLOAD DUP2 JUMP JUMPDEST PUSH1 0x0 PUSH1 0x20 MSTORE DUP1 PUSH1 0x0 MSTORE PUSH1 0x40 PUSH1 0x0 KECCAK256 PUSH1 0x0 SWAP2 POP SWAP1 POP DUP1 PUSH1 0x0 ADD SLOAD SWAP1 DUP1 PUSH1 0x1 ADD DUP1 SLOAD PUSH1 0x1 DUP2 PUSH1 0x1 AND ISZERO PUSH2 0x100 MUL SUB AND PUSH1 0x2 SWAP1 DIV DUP1 PUSH1 0x1F ADD PUSH1 0x20 DUP1 SWAP2 DIV MUL PUSH1 0x20 ADD PUSH1 0x40 MLOAD SWAP1 DUP2 ADD PUSH1 0x40 MSTORE DUP1 SWAP3 SWAP2 SWAP1 DUP2 DUP2 MSTORE PUSH1 0x20 ADD DUP3 DUP1 SLOAD PUSH1 0x1 DUP2 PUSH1 0x1 AND ISZERO PUSH2 0x100 MUL SUB AND PUSH1 0x2 SWAP1 DIV DUP1 ISZERO PUSH2 0x257 JUMPI DUP1 PUSH1 0x1F LT PUSH2 0x22C JUMPI PUSH2 0x100 DUP1 DUP4 SLOAD DIV MUL DUP4 MSTORE SWAP2 PUSH1 0x20 ADD SWAP2 PUSH2 0x257 JUMP JUMPDEST DUP3 ADD SWAP2 SWAP1 PUSH1 0x0 MSTORE PUSH1 0x20 PUSH1 0x0 KECCAK256 SWAP1 JUMPDEST DUP2 SLOAD DUP2 MSTORE SWAP1 PUSH1 0x1 ADD SWAP1 PUSH1 0x20 ADD DUP1 DUP4 GT PUSH2 0x23A JUMPI DUP3 SWAP1 SUB PUSH1 0x1F AND DUP3 ADD SWAP2 JUMPDEST POP POP POP POP POP SWAP1 DUP1 PUSH1 0x2 ADD PUSH1 0x0 SWAP1 SLOAD SWAP1 PUSH2 0x100 EXP SWAP1 DIV PUSH1 0xFF AND SWAP1 POP DUP4 JUMP JUMPDEST PUSH1 0x60 DUP1 PUSH1 0x60 DUP1 PUSH1 0x1 SLOAD PUSH1 0x40 MLOAD SWAP1 DUP1 DUP3 MSTORE DUP1 PUSH1 0x20 MUL PUSH1 0x20 ADD DUP3 ADD PUSH1 0x40 MSTORE DUP1 ISZERO PUSH2 0x2AB JUMPI DUP2 PUSH1 0x20 ADD PUSH1 0x20 DUP3 MUL DUP1 CODESIZE DUP4 CODECOPY DUP1 DUP3 ADD SWAP2 POP POP SWAP1 POP JUMPDEST POP SWAP1 POP PUSH1 0x60 PUSH1 0x1 SLOAD PUSH1 0x40 MLOAD SWAP1 DUP1 DUP3 MSTORE DUP1 PUSH1 0x20 MUL PUSH1 0x20 ADD DUP3 ADD PUSH1 0x40 MSTORE DUP1 ISZERO PUSH2 0x2E6 JUMPI DUP2 PUSH1 0x20 ADD JUMPDEST PUSH1 0x60 DUP2 MSTORE PUSH1 0x20 ADD SWAP1 PUSH1 0x1 SWAP1 SUB SWAP1 DUP2 PUSH2 0x2D1 JUMPI SWAP1 POP JUMPDEST POP SWAP1 POP PUSH1 0x60 PUSH1 0x1 SLOAD PUSH1 0x40 MLOAD SWAP1 DUP1 DUP3 MSTORE DUP1 PUSH1 0x20 MUL PUSH1 0x20 ADD DUP3 ADD PUSH1 0x40 MSTORE DUP1 ISZERO PUSH2 0x31C JUMPI DUP2 PUSH1 0x20 ADD PUSH1 0x20 DUP3 MUL DUP1 CODESIZE DUP4 CODECOPY DUP1 DUP3 ADD SWAP2 POP POP SWAP1 POP JUMPDEST POP SWAP1 POP PUSH1 0x0 DUP1 SWAP1 POP JUMPDEST PUSH1 0x1 SLOAD DUP2 LT ISZERO PUSH2 0x454 JUMPI PUSH1 0x0 DUP1 PUSH1 0x0 DUP4 DUP2 MSTORE PUSH1 0x20 ADD SWAP1 DUP2 MSTORE PUSH1 0x20 ADD PUSH1 0x0 KECCAK256 SWAP1 POP DUP1 PUSH1 0x0 ADD SLOAD DUP6 DUP4 DUP2 MLOAD DUP2 LT PUSH2 0x356 JUMPI INVALID JUMPDEST PUSH1 0x20 MUL PUSH1 0x20 ADD ADD DUP2 DUP2 MSTORE POP POP DUP1 PUSH1 0x1 ADD DUP1 SLOAD PUSH1 0x1 DUP2 PUSH1 0x1 AND ISZERO PUSH2 0x100 MUL SUB AND PUSH1 0x2 SWAP1 DIV DUP1 PUSH1 0x1F ADD PUSH1 0x20 DUP1 SWAP2 DIV MUL PUSH1 0x20 ADD PUSH1 0x40 MLOAD SWAP1 DUP2 ADD PUSH1 0x40 MSTORE DUP1 SWAP3 SWAP2 SWAP1 DUP2 DUP2 MSTORE PUSH1 0x20 ADD DUP3 DUP1 SLOAD PUSH1 0x1 DUP2 PUSH1 0x1 AND ISZERO PUSH2 0x100 MUL SUB AND PUSH1 0x2 SWAP1 DIV DUP1 ISZERO PUSH2 0x3FA JUMPI DUP1 PUSH1 0x1F LT PUSH2 0x3CF JUMPI PUSH2 0x100 DUP1 DUP4 SLOAD DIV MUL DUP4 MSTORE SWAP2 PUSH1 0x20 ADD SWAP2 PUSH2 0x3FA JUMP JUMPDEST DUP3 ADD SWAP2 SWAP1 PUSH1 0x0 MSTORE PUSH1 0x20 PUSH1 0x0 KECCAK256 SWAP1 JUMPDEST DUP2 SLOAD DUP2 MSTORE SWAP1 PUSH1 0x1 ADD SWAP1 PUSH1 0x20 ADD DUP1 DUP4 GT PUSH2 0x3DD JUMPI DUP3 SWAP1 SUB PUSH1 0x1F AND DUP3 ADD SWAP2 JUMPDEST POP POP POP POP POP DUP5 DUP4 DUP2 MLOAD DUP2 LT PUSH2 0x40B JUMPI INVALID JUMPDEST PUSH1 0x20 MUL PUSH1 0x20 ADD ADD DUP2 SWAP1 MSTORE POP DUP1 PUSH1 0x2 ADD PUSH1 0x0 SWAP1 SLOAD SWAP1 PUSH2 0x100 EXP SWAP1 DIV PUSH1 0xFF AND DUP4 DUP4 DUP2 MLOAD DUP2 LT PUSH2 0x434 JUMPI INVALID JUMPDEST PUSH1 0x20 MUL PUSH1 0x20 ADD ADD SWAP1 ISZERO ISZERO SWAP1 DUP2 ISZERO ISZERO DUP2 MSTORE POP POP POP DUP1 DUP1 PUSH1 0x1 ADD SWAP2 POP POP PUSH2 0x325 JUMP JUMPDEST POP DUP3 DUP3 DUP3 SWAP6 POP SWAP6 POP SWAP6 POP POP POP POP SWAP1 SWAP2 SWAP3 JUMP JUMPDEST PUSH1 0x40 MLOAD DUP1 PUSH1 0x60 ADD PUSH1 0x40 MSTORE DUP1 PUSH1 0x1 SLOAD DUP2 MSTORE PUSH1 0x20 ADD DUP4 DUP2 MSTORE PUSH1 0x20 ADD DUP3 ISZERO ISZERO DUP2 MSTORE POP PUSH1 0x0 DUP1 PUSH1 0x1 SLOAD DUP2 MSTORE PUSH1 0x20 ADD SWAP1 DUP2 MSTORE PUSH1 0x20 ADD PUSH1 0x0 KECCAK256 PUSH1 0x0 DUP3 ADD MLOAD DUP2 PUSH1 0x0 ADD SSTORE PUSH1 0x20 DUP3 ADD MLOAD DUP2 PUSH1 0x1 ADD SWAP1 DUP1 MLOAD SWAP1 PUSH1 0x20 ADD SWAP1 PUSH2 0x4BF SWAP3 SWAP2 SWAP1 PUSH2 0x685 JUMP JUMPDEST POP PUSH1 0x40 DUP3 ADD MLOAD DUP2 PUSH1 0x2 ADD PUSH1 0x0 PUSH2 0x100 EXP DUP2 SLOAD DUP2 PUSH1 0xFF MUL NOT AND SWAP1 DUP4 ISZERO ISZERO MUL OR SWAP1 SSTORE POP SWAP1 POP POP PUSH1 0x1 PUSH1 0x0 DUP2 SLOAD DUP1 SWAP3 SWAP2 SWAP1 PUSH1 0x1 ADD SWAP2 SWAP1 POP SSTORE POP POP POP JUMP JUMPDEST PUSH1 0x0 DUP1 SWAP1 POP JUMPDEST PUSH1 0x1 SLOAD DUP2 LT ISZERO PUSH2 0x557 JUMPI DUP2 ISZERO ISZERO PUSH1 0x0 DUP1 DUP4 DUP2 MSTORE PUSH1 0x20 ADD SWAP1 DUP2 MSTORE PUSH1 0x20 ADD PUSH1 0x0 KECCAK256 PUSH1 0x2 ADD PUSH1 0x0 SWAP1 SLOAD SWAP1 PUSH2 0x100 EXP SWAP1 DIV PUSH1 0xFF AND ISZERO ISZERO EQ ISZERO PUSH2 0x54A JUMPI PUSH1 0x2 PUSH1 0x0 DUP2 SLOAD DUP1 SWAP3 SWAP2 SWAP1 PUSH1 0x1 ADD SWAP2 SWAP1 POP SSTORE POP JUMPDEST DUP1 DUP1 PUSH1 0x1 ADD SWAP2 POP POP PUSH2 0x4FF JUMP JUMPDEST POP POP JUMP JUMPDEST DUP1 PUSH1 0x0 DUP1 DUP5 DUP2 MSTORE PUSH1 0x20 ADD SWAP1 DUP2 MSTORE PUSH1 0x20 ADD PUSH1 0x0 KECCAK256 PUSH1 0x2 ADD PUSH1 0x0 PUSH2 0x100 EXP DUP2 SLOAD DUP2 PUSH1 0xFF MUL NOT AND SWAP1 DUP4 ISZERO ISZERO MUL OR SWAP1 SSTORE POP POP POP JUMP JUMPDEST PUSH1 0x2 SLOAD DUP2 JUMP JUMPDEST PUSH2 0x59A PUSH2 0x705 JUMP JUMPDEST PUSH1 0x0 DUP1 DUP4 DUP2 MSTORE PUSH1 0x20 ADD SWAP1 DUP2 MSTORE PUSH1 0x20 ADD PUSH1 0x0 KECCAK256 PUSH1 0x40 MLOAD DUP1 PUSH1 0x60 ADD PUSH1 0x40 MSTORE SWAP1 DUP2 PUSH1 0x0 DUP3 ADD SLOAD DUP2 MSTORE PUSH1 0x20 ADD PUSH1 0x1 DUP3 ADD DUP1 SLOAD PUSH1 0x1 DUP2 PUSH1 0x1 AND ISZERO PUSH2 0x100 MUL SUB AND PUSH1 0x2 SWAP1 DIV DUP1 PUSH1 0x1F ADD PUSH1 0x20 DUP1 SWAP2 DIV MUL PUSH1 0x20 ADD PUSH1 0x40 MLOAD SWAP1 DUP2 ADD PUSH1 0x40 MSTORE DUP1 SWAP3 SWAP2 SWAP1 DUP2 DUP2 MSTORE PUSH1 0x20 ADD DUP3 DUP1 SLOAD PUSH1 0x1 DUP2 PUSH1 0x1 AND ISZERO PUSH2 0x100 MUL SUB AND PUSH1 0x2 SWAP1 DIV DUP1 ISZERO PUSH2 0x65A JUMPI DUP1 PUSH1 0x1F LT PUSH2 0x62F JUMPI PUSH2 0x100 DUP1 DUP4 SLOAD DIV MUL DUP4 MSTORE SWAP2 PUSH1 0x20 ADD SWAP2 PUSH2 0x65A JUMP JUMPDEST DUP3 ADD SWAP2 SWAP1 PUSH1 0x0 MSTORE PUSH1 0x20 PUSH1 0x0 KECCAK256 SWAP1 JUMPDEST DUP2 SLOAD DUP2 MSTORE SWAP1 PUSH1 0x1 ADD SWAP1 PUSH1 0x20 ADD DUP1 DUP4 GT PUSH2 0x63D JUMPI DUP3 SWAP1 SUB PUSH1 0x1F AND DUP3 ADD SWAP2 JUMPDEST POP POP POP POP POP DUP2 MSTORE PUSH1 0x20 ADD PUSH1 0x2 DUP3 ADD PUSH1 0x0 SWAP1 SLOAD SWAP1 PUSH2 0x100 EXP SWAP1 DIV PUSH1 0xFF AND ISZERO ISZERO ISZERO ISZERO DUP2 MSTORE POP POP SWAP1 POP SWAP2 SWAP1 POP JUMP JUMPDEST DUP3 DUP1 SLOAD PUSH1 0x1 DUP2 PUSH1 0x1 AND ISZERO PUSH2 0x100 MUL SUB AND PUSH1 0x2 SWAP1 DIV SWAP1 PUSH1 0x0 MSTORE PUSH1 0x20 PUSH1 0x0 KECCAK256 SWAP1 PUSH1 0x1F ADD PUSH1 0x20 SWAP1 DIV DUP2 ADD SWAP3 DUP3 PUSH1 0x1F LT PUSH2 0x6C6 JUMPI DUP1 MLOAD PUSH1 0xFF NOT AND DUP4 DUP1 ADD OR DUP6 SSTORE PUSH2 0x6F4 JUMP JUMPDEST DUP3 DUP1 ADD PUSH1 0x1 ADD DUP6 SSTORE DUP3 ISZERO PUSH2 0x6F4 JUMPI SWAP2 DUP3 ADD JUMPDEST DUP3 DUP2 GT ISZERO PUSH2 0x6F3 JUMPI DUP3 MLOAD DUP3 SSTORE SWAP2 PUSH1 0x20 ADD SWAP2 SWAP1 PUSH1 0x1 ADD SWAP1 PUSH2 0x6D8 JUMP JUMPDEST JUMPDEST POP SWAP1 POP PUSH2 0x701 SWAP2 SWAP1 PUSH2 0x728 JUMP JUMPDEST POP SWAP1 JUMP JUMPDEST PUSH1 0x40 MLOAD DUP1 PUSH1 0x60 ADD PUSH1 0x40 MSTORE DUP1 PUSH1 0x0 DUP2 MSTORE PUSH1 0x20 ADD PUSH1 0x60 DUP2 MSTORE PUSH1 0x20 ADD PUSH1 0x0 ISZERO ISZERO DUP2 MSTORE POP SWAP1 JUMP JUMPDEST PUSH2 0x74A SWAP2 SWAP1 JUMPDEST DUP1 DUP3 GT ISZERO PUSH2 0x746 JUMPI PUSH1 0x0 DUP2 PUSH1 0x0 SWAP1 SSTORE POP PUSH1 0x1 ADD PUSH2 0x72E JUMP JUMPDEST POP SWAP1 JUMP JUMPDEST SWAP1 JUMP JUMPDEST PUSH1 0x0 DUP2 CALLDATALOAD SWAP1 POP PUSH2 0x75C DUP2 PUSH2 0xD81 JUMP JUMPDEST SWAP3 SWAP2 POP POP JUMP JUMPDEST PUSH1 0x0 DUP3 PUSH1 0x1F DUP4 ADD SLT PUSH2 0x773 JUMPI PUSH1 0x0 DUP1 REVERT JUMPDEST DUP2 CALLDATALOAD PUSH2 0x786 PUSH2 0x781 DUP3 PUSH2 0xC14 JUMP JUMPDEST PUSH2 0xBE7 JUMP JUMPDEST SWAP2 POP DUP1 DUP3 MSTORE PUSH1 0x20 DUP4 ADD PUSH1 0x20 DUP4 ADD DUP6 DUP4 DUP4 ADD GT ISZERO PUSH2 0x7A2 JUMPI PUSH1 0x0 DUP1 REVERT JUMPDEST PUSH2 0x7AD DUP4 DUP3 DUP5 PUSH2 0xD2E JUMP JUMPDEST POP POP POP SWAP3 SWAP2 POP POP JUMP JUMPDEST PUSH1 0x0 DUP2 CALLDATALOAD SWAP1 POP PUSH2 0x7C5 DUP2 PUSH2 0xD98 JUMP JUMPDEST SWAP3 SWAP2 POP POP JUMP JUMPDEST PUSH1 0x0 PUSH1 0x20 DUP3 DUP5 SUB SLT ISZERO PUSH2 0x7DD JUMPI PUSH1 0x0 DUP1 REVERT JUMPDEST PUSH1 0x0 PUSH2 0x7EB DUP5 DUP3 DUP6 ADD PUSH2 0x74D JUMP JUMPDEST SWAP2 POP POP SWAP3 SWAP2 POP POP JUMP JUMPDEST PUSH1 0x0 DUP1 PUSH1 0x40 DUP4 DUP6 SUB SLT ISZERO PUSH2 0x807 JUMPI PUSH1 0x0 DUP1 REVERT JUMPDEST PUSH1 0x0 DUP4 ADD CALLDATALOAD PUSH8 0xFFFFFFFFFFFFFFFF DUP2 GT ISZERO PUSH2 0x821 JUMPI PUSH1 0x0 DUP1 REVERT JUMPDEST PUSH2 0x82D DUP6 DUP3 DUP7 ADD PUSH2 0x762 JUMP JUMPDEST SWAP3 POP POP PUSH1 0x20 PUSH2 0x83E DUP6 DUP3 DUP7 ADD PUSH2 0x74D JUMP JUMPDEST SWAP2 POP POP SWAP3 POP SWAP3 SWAP1 POP JUMP JUMPDEST PUSH1 0x0 PUSH1 0x20 DUP3 DUP5 SUB SLT ISZERO PUSH2 0x85A JUMPI PUSH1 0x0 DUP1 REVERT JUMPDEST PUSH1 0x0 PUSH2 0x868 DUP5 DUP3 DUP6 ADD PUSH2 0x7B6 JUMP JUMPDEST SWAP2 POP POP SWAP3 SWAP2 POP POP JUMP JUMPDEST PUSH1 0x0 DUP1 PUSH1 0x40 DUP4 DUP6 SUB SLT ISZERO PUSH2 0x884 JUMPI PUSH1 0x0 DUP1 REVERT JUMPDEST PUSH1 0x0 PUSH2 0x892 DUP6 DUP3 DUP7 ADD PUSH2 0x7B6 JUMP JUMPDEST SWAP3 POP POP PUSH1 0x20 PUSH2 0x8A3 DUP6 DUP3 DUP7 ADD PUSH2 0x74D JUMP JUMPDEST SWAP2 POP POP SWAP3 POP SWAP3 SWAP1 POP JUMP JUMPDEST PUSH1 0x0 PUSH2 0x8B9 DUP4 DUP4 PUSH2 0xA22 JUMP JUMPDEST PUSH1 0x20 DUP4 ADD SWAP1 POP SWAP3 SWAP2 POP POP JUMP JUMPDEST PUSH1 0x0 PUSH2 0x8D1 DUP4 DUP4 PUSH2 0xA40 JUMP JUMPDEST SWAP1 POP SWAP3 SWAP2 POP POP JUMP JUMPDEST PUSH1 0x0 PUSH2 0x8E5 DUP4 DUP4 PUSH2 0xB02 JUMP JUMPDEST PUSH1 0x20 DUP4 ADD SWAP1 POP SWAP3 SWAP2 POP POP JUMP JUMPDEST PUSH1 0x0 PUSH2 0x8FC DUP3 PUSH2 0xC70 JUMP JUMPDEST PUSH2 0x906 DUP2 DUP6 PUSH2 0xCC3 JUMP JUMPDEST SWAP4 POP PUSH2 0x911 DUP4 PUSH2 0xC40 JUMP JUMPDEST DUP1 PUSH1 0x0 JUMPDEST DUP4 DUP2 LT ISZERO PUSH2 0x942 JUMPI DUP2 MLOAD PUSH2 0x929 DUP9 DUP3 PUSH2 0x8AD JUMP JUMPDEST SWAP8 POP PUSH2 0x934 DUP4 PUSH2 0xC9C JUMP JUMPDEST SWAP3 POP POP PUSH1 0x1 DUP2 ADD SWAP1 POP PUSH2 0x915 JUMP JUMPDEST POP DUP6 SWAP4 POP POP POP POP SWAP3 SWAP2 POP POP JUMP JUMPDEST PUSH1 0x0 PUSH2 0x95A DUP3 PUSH2 0xC7B JUMP JUMPDEST PUSH2 0x964 DUP2 DUP6 PUSH2 0xCD4 JUMP JUMPDEST SWAP4 POP DUP4 PUSH1 0x20 DUP3 MUL DUP6 ADD PUSH2 0x976 DUP6 PUSH2 0xC50 JUMP JUMPDEST DUP1 PUSH1 0x0 JUMPDEST DUP6 DUP2 LT ISZERO PUSH2 0x9B2 JUMPI DUP5 DUP5 SUB DUP10 MSTORE DUP2 MLOAD PUSH2 0x993 DUP6 DUP3 PUSH2 0x8C5 JUMP JUMPDEST SWAP5 POP PUSH2 0x99E DUP4 PUSH2 0xCA9 JUMP JUMPDEST SWAP3 POP PUSH1 0x20 DUP11 ADD SWAP10 POP POP PUSH1 0x1 DUP2 ADD SWAP1 POP PUSH2 0x97A JUMP JUMPDEST POP DUP3 SWAP8 POP DUP8 SWAP6 POP POP POP POP POP POP SWAP3 SWAP2 POP POP JUMP JUMPDEST PUSH1 0x0 PUSH2 0x9CF DUP3 PUSH2 0xC86 JUMP JUMPDEST PUSH2 0x9D9 DUP2 DUP6 PUSH2 0xCE5 JUMP JUMPDEST SWAP4 POP PUSH2 0x9E4 DUP4 PUSH2 0xC60 JUMP JUMPDEST DUP1 PUSH1 0x0 JUMPDEST DUP4 DUP2 LT ISZERO PUSH2 0xA15 JUMPI DUP2 MLOAD PUSH2 0x9FC DUP9 DUP3 PUSH2 0x8D9 JUMP JUMPDEST SWAP8 POP PUSH2 0xA07 DUP4 PUSH2 0xCB6 JUMP JUMPDEST SWAP3 POP POP PUSH1 0x1 DUP2 ADD SWAP1 POP PUSH2 0x9E8 JUMP JUMPDEST POP DUP6 SWAP4 POP POP POP POP SWAP3 SWAP2 POP POP JUMP JUMPDEST PUSH2 0xA2B DUP2 PUSH2 0xD18 JUMP JUMPDEST DUP3 MSTORE POP POP JUMP JUMPDEST PUSH2 0xA3A DUP2 PUSH2 0xD18 JUMP JUMPDEST DUP3 MSTORE POP POP JUMP JUMPDEST PUSH1 0x0 PUSH2 0xA4B DUP3 PUSH2 0xC91 JUMP JUMPDEST PUSH2 0xA55 DUP2 DUP6 PUSH2 0xCF6 JUMP JUMPDEST SWAP4 POP PUSH2 0xA65 DUP2 DUP6 PUSH1 0x20 DUP7 ADD PUSH2 0xD3D JUMP JUMPDEST PUSH2 0xA6E DUP2 PUSH2 0xD70 JUMP JUMPDEST DUP5 ADD SWAP2 POP POP SWAP3 SWAP2 POP POP JUMP JUMPDEST PUSH1 0x0 PUSH2 0xA84 DUP3 PUSH2 0xC91 JUMP JUMPDEST PUSH2 0xA8E DUP2 DUP6 PUSH2 0xD07 JUMP JUMPDEST SWAP4 POP PUSH2 0xA9E DUP2 DUP6 PUSH1 0x20 DUP7 ADD PUSH2 0xD3D JUMP JUMPDEST PUSH2 0xAA7 DUP2 PUSH2 0xD70 JUMP JUMPDEST DUP5 ADD SWAP2 POP POP SWAP3 SWAP2 POP POP JUMP JUMPDEST PUSH1 0x0 PUSH1 0x60 DUP4 ADD PUSH1 0x0 DUP4 ADD MLOAD PUSH2 0xACA PUSH1 0x0 DUP7 ADD DUP3 PUSH2 0xB02 JUMP JUMPDEST POP PUSH1 0x20 DUP4 ADD MLOAD DUP5 DUP3 SUB PUSH1 0x20 DUP7 ADD MSTORE PUSH2 0xAE2 DUP3 DUP3 PUSH2 0xA40 JUMP JUMPDEST SWAP2 POP POP PUSH1 0x40 DUP4 ADD MLOAD PUSH2 0xAF7 PUSH1 0x40 DUP7 ADD DUP3 PUSH2 0xA22 JUMP JUMPDEST POP DUP1 SWAP2 POP POP SWAP3 SWAP2 POP POP JUMP JUMPDEST PUSH2 0xB0B DUP2 PUSH2 0xD24 JUMP JUMPDEST DUP3 MSTORE POP POP JUMP JUMPDEST PUSH2 0xB1A DUP2 PUSH2 0xD24 JUMP JUMPDEST DUP3 MSTORE POP POP JUMP JUMPDEST PUSH1 0x0 PUSH1 0x60 DUP3 ADD SWAP1 POP DUP2 DUP2 SUB PUSH1 0x0 DUP4 ADD MSTORE PUSH2 0xB3A DUP2 DUP7 PUSH2 0x9C4 JUMP JUMPDEST SWAP1 POP DUP2 DUP2 SUB PUSH1 0x20 DUP4 ADD MSTORE PUSH2 0xB4E DUP2 DUP6 PUSH2 0x94F JUMP JUMPDEST SWAP1 POP DUP2 DUP2 SUB PUSH1 0x40 DUP4 ADD MSTORE PUSH2 0xB62 DUP2 DUP5 PUSH2 0x8F1 JUMP JUMPDEST SWAP1 POP SWAP5 SWAP4 POP POP POP POP JUMP JUMPDEST PUSH1 0x0 PUSH1 0x20 DUP3 ADD SWAP1 POP DUP2 DUP2 SUB PUSH1 0x0 DUP4 ADD MSTORE PUSH2 0xB86 DUP2 DUP5 PUSH2 0xAB2 JUMP JUMPDEST SWAP1 POP SWAP3 SWAP2 POP POP JUMP JUMPDEST PUSH1 0x0 PUSH1 0x20 DUP3 ADD SWAP1 POP PUSH2 0xBA3 PUSH1 0x0 DUP4 ADD DUP5 PUSH2 0xB11 JUMP JUMPDEST SWAP3 SWAP2 POP POP JUMP JUMPDEST PUSH1 0x0 PUSH1 0x60 DUP3 ADD SWAP1 POP PUSH2 0xBBE PUSH1 0x0 DUP4 ADD DUP7 PUSH2 0xB11 JUMP JUMPDEST DUP2 DUP2 SUB PUSH1 0x20 DUP4 ADD MSTORE PUSH2 0xBD0 DUP2 DUP6 PUSH2 0xA79 JUMP JUMPDEST SWAP1 POP PUSH2 0xBDF PUSH1 0x40 DUP4 ADD DUP5 PUSH2 0xA31 JUMP JUMPDEST SWAP5 SWAP4 POP POP POP POP JUMP JUMPDEST PUSH1 0x0 PUSH1 0x40 MLOAD SWAP1 POP DUP2 DUP2 ADD DUP2 DUP2 LT PUSH8 0xFFFFFFFFFFFFFFFF DUP3 GT OR ISZERO PUSH2 0xC0A JUMPI PUSH1 0x0 DUP1 REVERT JUMPDEST DUP1 PUSH1 0x40 MSTORE POP SWAP2 SWAP1 POP JUMP JUMPDEST PUSH1 0x0 PUSH8 0xFFFFFFFFFFFFFFFF DUP3 GT ISZERO PUSH2 0xC2B JUMPI PUSH1 0x0 DUP1 REVERT JUMPDEST PUSH1 0x1F NOT PUSH1 0x1F DUP4 ADD AND SWAP1 POP PUSH1 0x20 DUP2 ADD SWAP1 POP SWAP2 SWAP1 POP JUMP JUMPDEST PUSH1 0x0 DUP2 SWAP1 POP PUSH1 0x20 DUP3 ADD SWAP1 POP SWAP2 SWAP1 POP JUMP JUMPDEST PUSH1 0x0 DUP2 SWAP1 POP PUSH1 0x20 DUP3 ADD SWAP1 POP SWAP2 SWAP1 POP JUMP JUMPDEST PUSH1 0x0 DUP2 SWAP1 POP PUSH1 0x20 DUP3 ADD SWAP1 POP SWAP2 SWAP1 POP JUMP JUMPDEST PUSH1 0x0 DUP2 MLOAD SWAP1 POP SWAP2 SWAP1 POP JUMP JUMPDEST PUSH1 0x0 DUP2 MLOAD SWAP1 POP SWAP2 SWAP1 POP JUMP JUMPDEST PUSH1 0x0 DUP2 MLOAD SWAP1 POP SWAP2 SWAP1 POP JUMP JUMPDEST PUSH1 0x0 DUP2 MLOAD SWAP1 POP SWAP2 SWAP1 POP JUMP JUMPDEST PUSH1 0x0 PUSH1 0x20 DUP3 ADD SWAP1 POP SWAP2 SWAP1 POP JUMP JUMPDEST PUSH1 0x0 PUSH1 0x20 DUP3 ADD SWAP1 POP SWAP2 SWAP1 POP JUMP JUMPDEST PUSH1 0x0 PUSH1 0x20 DUP3 ADD SWAP1 POP SWAP2 SWAP1 POP JUMP JUMPDEST PUSH1 0x0 DUP3 DUP3 MSTORE PUSH1 0x20 DUP3 ADD SWAP1 POP SWAP3 SWAP2 POP POP JUMP JUMPDEST PUSH1 0x0 DUP3 DUP3 MSTORE PUSH1 0x20 DUP3 ADD SWAP1 POP SWAP3 SWAP2 POP POP JUMP JUMPDEST PUSH1 0x0 DUP3 DUP3 MSTORE PUSH1 0x20 DUP3 ADD SWAP1 POP SWAP3 SWAP2 POP POP JUMP JUMPDEST PUSH1 0x0 DUP3 DUP3 MSTORE PUSH1 0x20 DUP3 ADD SWAP1 POP SWAP3 SWAP2 POP POP JUMP JUMPDEST PUSH1 0x0 DUP3 DUP3 MSTORE PUSH1 0x20 DUP3 ADD SWAP1 POP SWAP3 SWAP2 POP POP JUMP JUMPDEST PUSH1 0x0 DUP2 ISZERO ISZERO SWAP1 POP SWAP2 SWAP1 POP JUMP JUMPDEST PUSH1 0x0 DUP2 SWAP1 POP SWAP2 SWAP1 POP JUMP JUMPDEST DUP3 DUP2 DUP4 CALLDATACOPY PUSH1 0x0 DUP4 DUP4 ADD MSTORE POP POP POP JUMP JUMPDEST PUSH1 0x0 JUMPDEST DUP4 DUP2 LT ISZERO PUSH2 0xD5B JUMPI DUP1 DUP3 ADD MLOAD DUP2 DUP5 ADD MSTORE PUSH1 0x20 DUP2 ADD SWAP1 POP PUSH2 0xD40 JUMP JUMPDEST DUP4 DUP2 GT ISZERO PUSH2 0xD6A JUMPI PUSH1 0x0 DUP5 DUP5 ADD MSTORE JUMPDEST POP POP POP POP JUMP JUMPDEST PUSH1 0x0 PUSH1 0x1F NOT PUSH1 0x1F DUP4 ADD AND SWAP1 POP SWAP2 SWAP1 POP JUMP JUMPDEST PUSH2 0xD8A DUP2 PUSH2 0xD18 JUMP JUMPDEST DUP2 EQ PUSH2 0xD95 JUMPI PUSH1 0x0 DUP1 REVERT JUMPDEST POP JUMP JUMPDEST PUSH2 0xDA1 DUP2 PUSH2 0xD24 JUMP JUMPDEST DUP2 EQ PUSH2 0xDAC JUMPI PUSH1 0x0 DUP1 REVERT JUMPDEST POP JUMP INVALID LOG2 PUSH5 0x6970667358 0x22 SLT KECCAK256 PUSH27 0xB87229BE1DC9A4F3D872F51B83CFD9A70715B9A4A19019557BBB74 0xAB 0x24 PUSH16 0x9064736F6C6343000600003300000000 "
				},
				"gasEstimates": {
					"creation": {
						"codeDepositCost": "711400",
						"executionCost": "infinite",
						"totalCost": "infinite"
					},
					"external": {
						"addMember(string,bool)": "infinite",
						"getCountOfVoted(bool)": "infinite",
						"getMemberStructure(uint256)": "infinite",
						"getMemberValue()": "infinite",
						"memberCount()": "1130",
						"members(uint256)": "infinite",
						"setVote(uint256,bool)": "21558",
						"votedCount()": "1173"
					}
				},
				"methodIdentifiers": {
					"addMember(string,bool)": "92c68389",
					"getCountOfVoted(bool)": "ab7a2015",
					"getMemberStructure(uint256)": "f97698f8",
					"getMemberValue()": "6f416d59",
					"memberCount()": "11aee380",
					"members(uint256)": "5daf08ca",
					"setVote(uint256,bool)": "d3516b7e",
					"votedCount()": "f0232d0a"
				}
			},
			"storageLayout": {
				"storage": [
					{
						"astId": 13,
						"contract": "contracts/fun_stuff.sol:VoteSaving",
						"label": "members",
						"offset": 0,
						"slot": "0",
						"type": "t_mapping(t_uint256,t_struct(Member)9_storage)"
					},
					{
						"astId": 19,
						"contract": "contracts/fun_stuff.sol:VoteSaving",
						"label": "memberCount",
						"offset": 0,
						"slot": "1",
						"type": "t_uint256"
					},
					{
						"astId": 21,
						"contract": "contracts/fun_stuff.sol:VoteSaving",
						"label": "votedCount",
						"offset": 0,
						"slot": "2",
						"type": "t_uint256"
					}
				],
				"types": {
					"t_bool": {
						"encoding": "inplace",
						"label": "bool",
						"numberOfBytes": "1"
					},
					"t_mapping(t_uint256,t_struct(Member)9_storage)": {
						"encoding": "mapping",
						"key": "t_uint256",
						"label": "mapping(uint256 => struct VoteSaving.Member)",
						"numberOfBytes": "32",
						"value": "t_struct(Member)9_storage"
					},
					"t_string_storage": {
						"encoding": "bytes",
						"label": "string",
						"numberOfBytes": "32"
					},
					"t_struct(Member)9_storage": {
						"encoding": "inplace",
						"label": "struct VoteSaving.Member",
						"members": [
							{
								"astId": 4,
								"contract": "contracts/fun_stuff.sol:VoteSaving",
								"label": "id",
								"offset": 0,
								"slot": "0",
								"type": "t_uint256"
							},
							{
								"astId": 6,
								"contract": "contracts/fun_stuff.sol:VoteSaving",
								"label": "name",
								"offset": 0,
								"slot": "1",
								"type": "t_string_storage"
							},
							{
								"astId": 8,
								"contract": "contracts/fun_stuff.sol:VoteSaving",
								"label": "isVoted",
								"offset": 0,
								"slot": "2",
								"type": "t_bool"
							}
						],
						"numberOfBytes": "96"
					},
					"t_uint256": {
						"encoding": "inplace",
						"label": "uint256",
						"numberOfBytes": "32"
					}
				}
			},
			"userdoc": {
				"methods": {}
			}
		}
	}
}