{
	"contracts/fun_stuff.sol": {
		"VoteSaving": {
			"abi": [
				{
					"inputs": [],
					"stateMutability": "nonpayable",
					"type": "constructor"
				},
				{
					"anonymous": false,
					"inputs": [
						{
							"indexed": true,
							"internalType": "uint256",
							"name": "_memberId",
							"type": "uint256"
						}
					],
					"name": "savingEvent",
					"type": "event"
				},
				{
					"inputs": [
						{
							"internalType": "string",
							"name": "_name",
							"type": "string"
						},
						{
							"internalType": "bool",
							"name": "_isVote",
							"type": "bool"
						}
					],
					"name": "addMember",
					"outputs": [],
					"stateMutability": "nonpayable",
					"type": "function"
				},
				{
					"inputs": [
						{
							"internalType": "bool",
							"name": "_isVote",
							"type": "bool"
						}
					],
					"name": "getCountOfVoted",
					"outputs": [
						{
							"internalType": "uint256",
							"name": "",
							"type": "uint256"
						}
					],
					"stateMutability": "view",
					"type": "function"
				},
				{
					"inputs": [
						{
							"internalType": "uint256",
							"name": "_memberId",
							"type": "uint256"
						}
					],
					"name": "getMemberStructure",
					"outputs": [
						{
							"components": [
								{
									"internalType": "uint256",
									"name": "id",
									"type": "uint256"
								},
								{
									"internalType": "string",
									"name": "name",
									"type": "string"
								},
								{
									"internalType": "bool",
									"name": "isVoted",
									"type": "bool"
								}
							],
							"internalType": "struct VoteSaving.Member",
							"name": "",
							"type": "tuple"
						}
					],
					"stateMutability": "view",
					"type": "function"
				},
				{
					"inputs": [],
					"name": "getMemberValue",
					"outputs": [
						{
							"internalType": "uint256[]",
							"name": "",
							"type": "uint256[]"
						},
						{
							"internalType": "string[]",
							"name": "",
							"type": "string[]"
						},
						{
							"internalType": "bool[]",
							"name": "",
							"type": "bool[]"
						}
					],
					"stateMutability": "view",
					"type": "function"
				},
				{
					"inputs": [],
					"name": "memberCount",
					"outputs": [
						{
							"internalType": "uint256",
							"name": "",
							"type": "uint256"
						}
					],
					"stateMutability": "view",
					"type": "function"
				},
				{
					"inputs": [
						{
							"internalType": "uint256",
							"name": "",
							"type": "uint256"
						}
					],
					"name": "members",
					"outputs": [
						{
							"internalType": "uint256",
							"name": "id",
							"type": "uint256"
						},
						{
							"internalType": "string",
							"name": "name",
							"type": "string"
						},
						{
							"internalType": "bool",
							"name": "isVoted",
							"type": "bool"
						}
					],
					"stateMutability": "view",
					"type": "function"
				},
				{
					"inputs": [
						{
							"internalType": "uint256",
							"name": "_memberId",
							"type": "uint256"
						},
						{
							"internalType": "bool",
							"name": "_isVote",
							"type": "bool"
						}
					],
					"name": "setVote",
					"outputs": [],
					"stateMutability": "nonpayable",
					"type": "function"
				}
			],
			"devdoc": {
				"methods": {}
			},
			"evm": {
				"assembly": "    /* \"contracts/fun_stuff.sol\":95:2071  contract VoteSaving {\r... */\n  mstore(0x40, 0x80)\n    /* \"contracts/fun_stuff.sol\":340:685  constructor() public {\r... */\n  callvalue\n    /* \"--CODEGEN--\":8:17   */\n  dup1\n    /* \"--CODEGEN--\":5:7   */\n  iszero\n  tag_1\n  jumpi\n    /* \"--CODEGEN--\":30:31   */\n  0x00\n    /* \"--CODEGEN--\":27:28   */\n  dup1\n    /* \"--CODEGEN--\":20:32   */\n  revert\n    /* \"--CODEGEN--\":5:7   */\ntag_1:\n    /* \"contracts/fun_stuff.sol\":340:685  constructor() public {\r... */\n  pop\n    /* \"contracts/fun_stuff.sol\":386:387  0 */\n  0x00\n    /* \"contracts/fun_stuff.sol\":372:383  memberCount */\n  0x01\n    /* \"contracts/fun_stuff.sol\":372:387  memberCount = 0 */\n  dup2\n  swap1\n  sstore\n  pop\n    /* \"contracts/fun_stuff.sol\":398:421  addMember(\"Vlad\", true) */\n  tag_4\n  mload(0x40)\n  dup1\n  0x40\n  add\n  0x40\n  mstore\n  dup1\n  0x04\n  dup2\n  mstore\n  0x20\n  add\n  0x566c616400000000000000000000000000000000000000000000000000000000\n  dup2\n  mstore\n  pop\n    /* \"contracts/fun_stuff.sol\":416:420  true */\n  0x01\n    /* \"contracts/fun_stuff.sol\":398:407  addMember */\n  shl(0x20, tag_5)\n    /* \"contracts/fun_stuff.sol\":398:421  addMember(\"Vlad\", true) */\n  0x20\n  shr\n  jump\t// in\ntag_4:\n    /* \"contracts/fun_stuff.sol\":432:458  addMember(\"Nastya\", false) */\n  tag_6\n  mload(0x40)\n  dup1\n  0x40\n  add\n  0x40\n  mstore\n  dup1\n  0x06\n  dup2\n  mstore\n  0x20\n  add\n  0x4e61737479610000000000000000000000000000000000000000000000000000\n  dup2\n  mstore\n  pop\n    /* \"contracts/fun_stuff.sol\":452:457  false */\n  0x00\n    /* \"contracts/fun_stuff.sol\":432:441  addMember */\n  shl(0x20, tag_5)\n    /* \"contracts/fun_stuff.sol\":432:458  addMember(\"Nastya\", false) */\n  0x20\n  shr\n  jump\t// in\ntag_6:\n    /* \"contracts/fun_stuff.sol\":469:493  addMember(\"Vlad1\", true) */\n  tag_7\n  mload(0x40)\n  dup1\n  0x40\n  add\n  0x40\n  mstore\n  dup1\n  0x05\n  dup2\n  mstore\n  0x20\n  add\n  0x566c616431000000000000000000000000000000000000000000000000000000\n  dup2\n  mstore\n  pop\n    /* \"contracts/fun_stuff.sol\":488:492  true */\n  0x01\n    /* \"contracts/fun_stuff.sol\":469:478  addMember */\n  shl(0x20, tag_5)\n    /* \"contracts/fun_stuff.sol\":469:493  addMember(\"Vlad1\", true) */\n  0x20\n  shr\n  jump\t// in\ntag_7:\n    /* \"contracts/fun_stuff.sol\":504:531  addMember(\"Nastya2\", false) */\n  tag_8\n  mload(0x40)\n  dup1\n  0x40\n  add\n  0x40\n  mstore\n  dup1\n  0x07\n  dup2\n  mstore\n  0x20\n  add\n  0x4e61737479613200000000000000000000000000000000000000000000000000\n  dup2\n  mstore\n  pop\n    /* \"contracts/fun_stuff.sol\":525:530  false */\n  0x00\n    /* \"contracts/fun_stuff.sol\":504:513  addMember */\n  shl(0x20, tag_5)\n    /* \"contracts/fun_stuff.sol\":504:531  addMember(\"Nastya2\", false) */\n  0x20\n  shr\n  jump\t// in\ntag_8:\n    /* \"contracts/fun_stuff.sol\":542:566  addMember(\"Vlad3\", true) */\n  tag_9\n  mload(0x40)\n  dup1\n  0x40\n  add\n  0x40\n  mstore\n  dup1\n  0x05\n  dup2\n  mstore\n  0x20\n  add\n  0x566c616433000000000000000000000000000000000000000000000000000000\n  dup2\n  mstore\n  pop\n    /* \"contracts/fun_stuff.sol\":561:565  true */\n  0x01\n    /* \"contracts/fun_stuff.sol\":542:551  addMember */\n  shl(0x20, tag_5)\n    /* \"contracts/fun_stuff.sol\":542:566  addMember(\"Vlad3\", true) */\n  0x20\n  shr\n  jump\t// in\ntag_9:\n    /* \"contracts/fun_stuff.sol\":577:604  addMember(\"Nastya4\", false) */\n  tag_10\n  mload(0x40)\n  dup1\n  0x40\n  add\n  0x40\n  mstore\n  dup1\n  0x07\n  dup2\n  mstore\n  0x20\n  add\n  0x4e61737479613400000000000000000000000000000000000000000000000000\n  dup2\n  mstore\n  pop\n    /* \"contracts/fun_stuff.sol\":598:603  false */\n  0x00\n    /* \"contracts/fun_stuff.sol\":577:586  addMember */\n  shl(0x20, tag_5)\n    /* \"contracts/fun_stuff.sol\":577:604  addMember(\"Nastya4\", false) */\n  0x20\n  shr\n  jump\t// in\ntag_10:\n    /* \"contracts/fun_stuff.sol\":615:639  addMember(\"Vlad5\", true) */\n  tag_11\n  mload(0x40)\n  dup1\n  0x40\n  add\n  0x40\n  mstore\n  dup1\n  0x05\n  dup2\n  mstore\n  0x20\n  add\n  0x566c616435000000000000000000000000000000000000000000000000000000\n  dup2\n  mstore\n  pop\n    /* \"contracts/fun_stuff.sol\":634:638  true */\n  0x01\n    /* \"contracts/fun_stuff.sol\":615:624  addMember */\n  shl(0x20, tag_5)\n    /* \"contracts/fun_stuff.sol\":615:639  addMember(\"Vlad5\", true) */\n  0x20\n  shr\n  jump\t// in\ntag_11:\n    /* \"contracts/fun_stuff.sol\":650:677  addMember(\"Nastya6\", false) */\n  tag_12\n  mload(0x40)\n  dup1\n  0x40\n  add\n  0x40\n  mstore\n  dup1\n  0x07\n  dup2\n  mstore\n  0x20\n  add\n  0x4e61737479613600000000000000000000000000000000000000000000000000\n  dup2\n  mstore\n  pop\n    /* \"contracts/fun_stuff.sol\":671:676  false */\n  0x00\n    /* \"contracts/fun_stuff.sol\":650:659  addMember */\n  shl(0x20, tag_5)\n    /* \"contracts/fun_stuff.sol\":650:677  addMember(\"Nastya6\", false) */\n  0x20\n  shr\n  jump\t// in\ntag_12:\n    /* \"contracts/fun_stuff.sol\":95:2071  contract VoteSaving {\r... */\n  jump(tag_13)\n    /* \"contracts/fun_stuff.sol\":693:855  function addMember(string memory _name, bool _isVote) public {\r... */\ntag_5:\n    /* \"contracts/fun_stuff.sol\":788:823  Member(memberCount, _name, _isVote) */\n  mload(0x40)\n  dup1\n  0x60\n  add\n  0x40\n  mstore\n  dup1\n    /* \"contracts/fun_stuff.sol\":795:806  memberCount */\n  sload(0x01)\n    /* \"contracts/fun_stuff.sol\":788:823  Member(memberCount, _name, _isVote) */\n  dup2\n  mstore\n  0x20\n  add\n    /* \"contracts/fun_stuff.sol\":808:813  _name */\n  dup4\n    /* \"contracts/fun_stuff.sol\":788:823  Member(memberCount, _name, _isVote) */\n  dup2\n  mstore\n  0x20\n  add\n    /* \"contracts/fun_stuff.sol\":815:822  _isVote */\n  dup3\n    /* \"contracts/fun_stuff.sol\":788:823  Member(memberCount, _name, _isVote) */\n  iszero\n  iszero\n  dup2\n  mstore\n  pop\n    /* \"contracts/fun_stuff.sol\":765:772  members */\n  0x00\n    /* \"contracts/fun_stuff.sol\":765:785  members[memberCount] */\n  dup1\n    /* \"contracts/fun_stuff.sol\":773:784  memberCount */\n  sload(0x01)\n    /* \"contracts/fun_stuff.sol\":765:785  members[memberCount] */\n  dup2\n  mstore\n  0x20\n  add\n  swap1\n  dup2\n  mstore\n  0x20\n  add\n  0x00\n  keccak256\n    /* \"contracts/fun_stuff.sol\":765:823  members[memberCount] = Member(memberCount, _name, _isVote) */\n  0x00\n  dup3\n  add\n  mload\n  dup2\n  0x00\n  add\n  sstore\n  0x20\n  dup3\n  add\n  mload\n  dup2\n  0x01\n  add\n  swap1\n  dup1\n  mload\n  swap1\n  0x20\n  add\n  swap1\n  tag_15\n  swap3\n  swap2\n  swap1\n  tag_16\n  jump\t// in\ntag_15:\n  pop\n  0x40\n  dup3\n  add\n  mload\n  dup2\n  0x02\n  add\n  exp(0x0100, 0x00)\n  dup2\n  sload\n  dup2\n  0xff\n  mul\n  not\n  and\n  swap1\n  dup4\n  iszero\n  iszero\n  mul\n  or\n  swap1\n  sstore\n  pop\n  swap1\n  pop\n  pop\n    /* \"contracts/fun_stuff.sol\":834:845  memberCount */\n  0x01\n  0x00\n    /* \"contracts/fun_stuff.sol\":834:847  memberCount++ */\n  dup2\n  sload\n  dup1\n  swap3\n  swap2\n  swap1\n  0x01\n  add\n  swap2\n  swap1\n  pop\n  sstore\n  pop\n    /* \"contracts/fun_stuff.sol\":693:855  function addMember(string memory _name, bool _isVote) public {\r... */\n  pop\n  pop\n  jump\t// out\n    /* \"contracts/fun_stuff.sol\":95:2071  contract VoteSaving {\r... */\ntag_16:\n  dup3\n  dup1\n  sload\n  0x01\n  dup2\n  0x01\n  and\n  iszero\n  0x0100\n  mul\n  sub\n  and\n  0x02\n  swap1\n  div\n  swap1\n  0x00\n  mstore\n  keccak256(0x00, 0x20)\n  swap1\n  0x1f\n  add\n  0x20\n  swap1\n  div\n  dup2\n  add\n  swap3\n  dup3\n  0x1f\n  lt\n  tag_18\n  jumpi\n  dup1\n  mload\n  not(0xff)\n  and\n  dup4\n  dup1\n  add\n  or\n  dup6\n  sstore\n  jump(tag_17)\ntag_18:\n  dup3\n  dup1\n  add\n  0x01\n  add\n  dup6\n  sstore\n  dup3\n  iszero\n  tag_17\n  jumpi\n  swap2\n  dup3\n  add\ntag_19:\n  dup3\n  dup2\n  gt\n  iszero\n  tag_20\n  jumpi\n  dup3\n  mload\n  dup3\n  sstore\n  swap2\n  0x20\n  add\n  swap2\n  swap1\n  0x01\n  add\n  swap1\n  jump(tag_19)\ntag_20:\ntag_17:\n  pop\n  swap1\n  pop\n  tag_21\n  swap2\n  swap1\n  tag_22\n  jump\t// in\ntag_21:\n  pop\n  swap1\n  jump\t// out\ntag_22:\n  tag_23\n  swap2\n  swap1\ntag_24:\n  dup1\n  dup3\n  gt\n  iszero\n  tag_25\n  jumpi\n  0x00\n  dup2\n  0x00\n  swap1\n  sstore\n  pop\n  0x01\n  add\n  jump(tag_24)\ntag_25:\n  pop\n  swap1\n  jump\ntag_23:\n  swap1\n  jump\t// out\ntag_13:\n  dataSize(sub_0)\n  dup1\n  dataOffset(sub_0)\n  0x00\n  codecopy\n  0x00\n  return\nstop\n\nsub_0: assembly {\n        /* \"contracts/fun_stuff.sol\":95:2071  contract VoteSaving {\r... */\n      mstore(0x40, 0x80)\n      callvalue\n        /* \"--CODEGEN--\":8:17   */\n      dup1\n        /* \"--CODEGEN--\":5:7   */\n      iszero\n      tag_1\n      jumpi\n        /* \"--CODEGEN--\":30:31   */\n      0x00\n        /* \"--CODEGEN--\":27:28   */\n      dup1\n        /* \"--CODEGEN--\":20:32   */\n      revert\n        /* \"--CODEGEN--\":5:7   */\n    tag_1:\n        /* \"contracts/fun_stuff.sol\":95:2071  contract VoteSaving {\r... */\n      pop\n      jumpi(tag_2, lt(calldatasize, 0x04))\n      shr(0xe0, calldataload(0x00))\n      dup1\n      0x92c68389\n      gt\n      tag_10\n      jumpi\n      dup1\n      0x92c68389\n      eq\n      tag_6\n      jumpi\n      dup1\n      0xab7a2015\n      eq\n      tag_7\n      jumpi\n      dup1\n      0xd3516b7e\n      eq\n      tag_8\n      jumpi\n      dup1\n      0xf97698f8\n      eq\n      tag_9\n      jumpi\n      jump(tag_2)\n    tag_10:\n      dup1\n      0x11aee380\n      eq\n      tag_3\n      jumpi\n      dup1\n      0x5daf08ca\n      eq\n      tag_4\n      jumpi\n      dup1\n      0x6f416d59\n      eq\n      tag_5\n      jumpi\n    tag_2:\n      0x00\n      dup1\n      revert\n        /* \"contracts/fun_stuff.sol\":308:331  uint public memberCount */\n    tag_3:\n      tag_11\n      tag_12\n      jump\t// in\n    tag_11:\n      mload(0x40)\n      tag_13\n      swap2\n      swap1\n      jump(tag_14)\n    tag_13:\n      mload(0x40)\n      dup1\n      swap2\n      sub\n      swap1\n      return\n        /* \"contracts/fun_stuff.sol\":214:253  mapping (uint => Member) public members */\n    tag_4:\n      tag_15\n      0x04\n      dup1\n      calldatasize\n      sub\n      tag_16\n      swap2\n      swap1\n      dup2\n      add\n      swap1\n      jump(tag_17)\n    tag_16:\n      tag_18\n      jump\t// in\n    tag_15:\n      mload(0x40)\n      tag_19\n      swap4\n      swap3\n      swap2\n      swap1\n      jump(tag_20)\n    tag_19:\n      mload(0x40)\n      dup1\n      swap2\n      sub\n      swap1\n      return\n        /* \"contracts/fun_stuff.sol\":1522:2063  function getMemberValue() public view returns(uint[] memory, string[] memory, bool[] memory) {\r... */\n    tag_5:\n      tag_21\n      tag_22\n      jump\t// in\n    tag_21:\n      mload(0x40)\n      tag_23\n      swap4\n      swap3\n      swap2\n      swap1\n      jump(tag_24)\n    tag_23:\n      mload(0x40)\n      dup1\n      swap2\n      sub\n      swap1\n      return\n        /* \"contracts/fun_stuff.sol\":693:855  function addMember(string memory _name, bool _isVote) public {\r... */\n    tag_6:\n      tag_25\n      0x04\n      dup1\n      calldatasize\n      sub\n      tag_26\n      swap2\n      swap1\n      dup2\n      add\n      swap1\n      jump(tag_27)\n    tag_26:\n      tag_28\n      jump\t// in\n    tag_25:\n      stop\n        /* \"contracts/fun_stuff.sol\":1021:1308  function getCountOfVoted(bool _isVote) public view returns(uint){\r... */\n    tag_7:\n      tag_29\n      0x04\n      dup1\n      calldatasize\n      sub\n      tag_30\n      swap2\n      swap1\n      dup2\n      add\n      swap1\n      jump(tag_31)\n    tag_30:\n      tag_32\n      jump\t// in\n    tag_29:\n      mload(0x40)\n      tag_33\n      swap2\n      swap1\n      jump(tag_14)\n    tag_33:\n      mload(0x40)\n      dup1\n      swap2\n      sub\n      swap1\n      return\n        /* \"contracts/fun_stuff.sol\":863:972  function setVote(uint _memberId, bool _isVote) public {\r... */\n    tag_8:\n      tag_34\n      0x04\n      dup1\n      calldatasize\n      sub\n      tag_35\n      swap2\n      swap1\n      dup2\n      add\n      swap1\n      jump(tag_36)\n    tag_35:\n      tag_37\n      jump\t// in\n    tag_34:\n      stop\n        /* \"contracts/fun_stuff.sol\":1352:1474  function getMemberStructure(uint _memberId) public view returns(Member memory){\r... */\n    tag_9:\n      tag_38\n      0x04\n      dup1\n      calldatasize\n      sub\n      tag_39\n      swap2\n      swap1\n      dup2\n      add\n      swap1\n      jump(tag_17)\n    tag_39:\n      tag_40\n      jump\t// in\n    tag_38:\n      mload(0x40)\n      tag_41\n      swap2\n      swap1\n      jump(tag_42)\n    tag_41:\n      mload(0x40)\n      dup1\n      swap2\n      sub\n      swap1\n      return\n        /* \"contracts/fun_stuff.sol\":308:331  uint public memberCount */\n    tag_12:\n      sload(0x01)\n      dup2\n      jump\t// out\n        /* \"contracts/fun_stuff.sol\":214:253  mapping (uint => Member) public members */\n    tag_18:\n      mstore(0x20, 0x00)\n      dup1\n      0x00\n      mstore\n      keccak256(0x00, 0x40)\n      0x00\n      swap2\n      pop\n      swap1\n      pop\n      dup1\n      0x00\n      add\n      sload\n      swap1\n      dup1\n      0x01\n      add\n      dup1\n      sload\n      0x01\n      dup2\n      0x01\n      and\n      iszero\n      0x0100\n      mul\n      sub\n      and\n      0x02\n      swap1\n      div\n      dup1\n      0x1f\n      add\n      0x20\n      dup1\n      swap2\n      div\n      mul\n      0x20\n      add\n      mload(0x40)\n      swap1\n      dup2\n      add\n      0x40\n      mstore\n      dup1\n      swap3\n      swap2\n      swap1\n      dup2\n      dup2\n      mstore\n      0x20\n      add\n      dup3\n      dup1\n      sload\n      0x01\n      dup2\n      0x01\n      and\n      iszero\n      0x0100\n      mul\n      sub\n      and\n      0x02\n      swap1\n      div\n      dup1\n      iszero\n      tag_43\n      jumpi\n      dup1\n      0x1f\n      lt\n      tag_44\n      jumpi\n      0x0100\n      dup1\n      dup4\n      sload\n      div\n      mul\n      dup4\n      mstore\n      swap2\n      0x20\n      add\n      swap2\n      jump(tag_43)\n    tag_44:\n      dup3\n      add\n      swap2\n      swap1\n      0x00\n      mstore\n      keccak256(0x00, 0x20)\n      swap1\n    tag_45:\n      dup2\n      sload\n      dup2\n      mstore\n      swap1\n      0x01\n      add\n      swap1\n      0x20\n      add\n      dup1\n      dup4\n      gt\n      tag_45\n      jumpi\n      dup3\n      swap1\n      sub\n      0x1f\n      and\n      dup3\n      add\n      swap2\n    tag_43:\n      pop\n      pop\n      pop\n      pop\n      pop\n      swap1\n      dup1\n      0x02\n      add\n      0x00\n      swap1\n      sload\n      swap1\n      0x0100\n      exp\n      swap1\n      div\n      0xff\n      and\n      swap1\n      pop\n      dup4\n      jump\t// out\n        /* \"contracts/fun_stuff.sol\":1522:2063  function getMemberValue() public view returns(uint[] memory, string[] memory, bool[] memory) {\r... */\n    tag_22:\n        /* \"contracts/fun_stuff.sol\":1568:1581  uint[] memory */\n      0x60\n        /* \"contracts/fun_stuff.sol\":1583:1598  string[] memory */\n      dup1\n        /* \"contracts/fun_stuff.sol\":1600:1613  bool[] memory */\n      0x60\n        /* \"contracts/fun_stuff.sol\":1626:1647  uint[]      memory id */\n      dup1\n        /* \"contracts/fun_stuff.sol\":1661:1672  memberCount */\n      sload(0x01)\n        /* \"contracts/fun_stuff.sol\":1650:1673  new uint[](memberCount) */\n      mload(0x40)\n      swap1\n      dup1\n      dup3\n      mstore\n      dup1\n      0x20\n      mul\n      0x20\n      add\n      dup3\n      add\n      0x40\n      mstore\n      dup1\n      iszero\n      tag_47\n      jumpi\n      dup2\n      0x20\n      add\n        /* \"--CODEGEN--\":29:31   */\n      0x20\n        /* \"--CODEGEN--\":21:27   */\n      dup3\n        /* \"--CODEGEN--\":17:32   */\n      mul\n        /* \"--CODEGEN--\":117:121   */\n      dup1\n        /* \"--CODEGEN--\":105:115   */\n      codesize\n        /* \"--CODEGEN--\":97:103   */\n      dup4\n        /* \"--CODEGEN--\":88:122   */\n      codecopy\n        /* \"--CODEGEN--\":148:152   */\n      dup1\n        /* \"--CODEGEN--\":140:146   */\n      dup3\n        /* \"--CODEGEN--\":136:153   */\n      add\n        /* \"--CODEGEN--\":126:153   */\n      swap2\n      pop\n        /* \"--CODEGEN--\":0:157   */\n      pop\n        /* \"contracts/fun_stuff.sol\":1650:1673  new uint[](memberCount) */\n      swap1\n      pop\n    tag_47:\n      pop\n        /* \"contracts/fun_stuff.sol\":1626:1673  uint[]      memory id = new uint[](memberCount) */\n      swap1\n      pop\n        /* \"contracts/fun_stuff.sol\":1684:1707  string[]    memory name */\n      0x60\n        /* \"contracts/fun_stuff.sol\":1723:1734  memberCount */\n      sload(0x01)\n        /* \"contracts/fun_stuff.sol\":1710:1735  new string[](memberCount) */\n      mload(0x40)\n      swap1\n      dup1\n      dup3\n      mstore\n      dup1\n      0x20\n      mul\n      0x20\n      add\n      dup3\n      add\n      0x40\n      mstore\n      dup1\n      iszero\n      tag_48\n      jumpi\n      dup2\n      0x20\n      add\n    tag_49:\n      0x60\n      dup2\n      mstore\n      0x20\n      add\n      swap1\n      0x01\n      swap1\n      sub\n      swap1\n      dup2\n      tag_49\n      jumpi\n      swap1\n      pop\n    tag_48:\n      pop\n        /* \"contracts/fun_stuff.sol\":1684:1735  string[]    memory name = new string[](memberCount) */\n      swap1\n      pop\n        /* \"contracts/fun_stuff.sol\":1746:1772  bool[]      memory isVoted */\n      0x60\n        /* \"contracts/fun_stuff.sol\":1786:1797  memberCount */\n      sload(0x01)\n        /* \"contracts/fun_stuff.sol\":1775:1798  new bool[](memberCount) */\n      mload(0x40)\n      swap1\n      dup1\n      dup3\n      mstore\n      dup1\n      0x20\n      mul\n      0x20\n      add\n      dup3\n      add\n      0x40\n      mstore\n      dup1\n      iszero\n      tag_50\n      jumpi\n      dup2\n      0x20\n      add\n        /* \"--CODEGEN--\":29:31   */\n      0x20\n        /* \"--CODEGEN--\":21:27   */\n      dup3\n        /* \"--CODEGEN--\":17:32   */\n      mul\n        /* \"--CODEGEN--\":117:121   */\n      dup1\n        /* \"--CODEGEN--\":105:115   */\n      codesize\n        /* \"--CODEGEN--\":97:103   */\n      dup4\n        /* \"--CODEGEN--\":88:122   */\n      codecopy\n        /* \"--CODEGEN--\":148:152   */\n      dup1\n        /* \"--CODEGEN--\":140:146   */\n      dup3\n        /* \"--CODEGEN--\":136:153   */\n      add\n        /* \"--CODEGEN--\":126:153   */\n      swap2\n      pop\n        /* \"--CODEGEN--\":0:157   */\n      pop\n        /* \"contracts/fun_stuff.sol\":1775:1798  new bool[](memberCount) */\n      swap1\n      pop\n    tag_50:\n      pop\n        /* \"contracts/fun_stuff.sol\":1746:1798  bool[]      memory isVoted = new bool[](memberCount) */\n      swap1\n      pop\n        /* \"contracts/fun_stuff.sol\":1814:1820  uint i */\n      0x00\n        /* \"contracts/fun_stuff.sol\":1823:1824  0 */\n      dup1\n        /* \"contracts/fun_stuff.sol\":1814:1824  uint i = 0 */\n      swap1\n      pop\n        /* \"contracts/fun_stuff.sol\":1809:2019  for (uint i = 0; i < memberCount; i++) {\r... */\n    tag_51:\n        /* \"contracts/fun_stuff.sol\":1830:1841  memberCount */\n      sload(0x01)\n        /* \"contracts/fun_stuff.sol\":1826:1827  i */\n      dup2\n        /* \"contracts/fun_stuff.sol\":1826:1841  i < memberCount */\n      lt\n        /* \"contracts/fun_stuff.sol\":1809:2019  for (uint i = 0; i < memberCount; i++) {\r... */\n      iszero\n      tag_52\n      jumpi\n        /* \"contracts/fun_stuff.sol\":1863:1884  Member storage member */\n      0x00\n        /* \"contracts/fun_stuff.sol\":1887:1894  members */\n      dup1\n        /* \"contracts/fun_stuff.sol\":1887:1897  members[i] */\n      0x00\n        /* \"contracts/fun_stuff.sol\":1895:1896  i */\n      dup4\n        /* \"contracts/fun_stuff.sol\":1887:1897  members[i] */\n      dup2\n      mstore\n      0x20\n      add\n      swap1\n      dup2\n      mstore\n      0x20\n      add\n      0x00\n      keccak256\n        /* \"contracts/fun_stuff.sol\":1863:1897  Member storage member = members[i] */\n      swap1\n      pop\n        /* \"contracts/fun_stuff.sol\":1920:1926  member */\n      dup1\n        /* \"contracts/fun_stuff.sol\":1920:1929  member.id */\n      0x00\n      add\n      sload\n        /* \"contracts/fun_stuff.sol\":1912:1914  id */\n      dup6\n        /* \"contracts/fun_stuff.sol\":1915:1916  i */\n      dup4\n        /* \"contracts/fun_stuff.sol\":1912:1917  id[i] */\n      dup2\n      mload\n      dup2\n      lt\n      tag_54\n      jumpi\n      invalid\n    tag_54:\n      0x20\n      mul\n      0x20\n      add\n      add\n        /* \"contracts/fun_stuff.sol\":1912:1929  id[i] = member.id */\n      dup2\n      dup2\n      mstore\n      pop\n      pop\n        /* \"contracts/fun_stuff.sol\":1954:1960  member */\n      dup1\n        /* \"contracts/fun_stuff.sol\":1954:1965  member.name */\n      0x01\n      add\n        /* \"contracts/fun_stuff.sol\":1944:1965  name[i] = member.name */\n      dup1\n      sload\n      0x01\n      dup2\n      0x01\n      and\n      iszero\n      0x0100\n      mul\n      sub\n      and\n      0x02\n      swap1\n      div\n      dup1\n      0x1f\n      add\n      0x20\n      dup1\n      swap2\n      div\n      mul\n      0x20\n      add\n      mload(0x40)\n      swap1\n      dup2\n      add\n      0x40\n      mstore\n      dup1\n      swap3\n      swap2\n      swap1\n      dup2\n      dup2\n      mstore\n      0x20\n      add\n      dup3\n      dup1\n      sload\n      0x01\n      dup2\n      0x01\n      and\n      iszero\n      0x0100\n      mul\n      sub\n      and\n      0x02\n      swap1\n      div\n      dup1\n      iszero\n      tag_55\n      jumpi\n      dup1\n      0x1f\n      lt\n      tag_56\n      jumpi\n      0x0100\n      dup1\n      dup4\n      sload\n      div\n      mul\n      dup4\n      mstore\n      swap2\n      0x20\n      add\n      swap2\n      jump(tag_55)\n    tag_56:\n      dup3\n      add\n      swap2\n      swap1\n      0x00\n      mstore\n      keccak256(0x00, 0x20)\n      swap1\n    tag_57:\n      dup2\n      sload\n      dup2\n      mstore\n      swap1\n      0x01\n      add\n      swap1\n      0x20\n      add\n      dup1\n      dup4\n      gt\n      tag_57\n      jumpi\n      dup3\n      swap1\n      sub\n      0x1f\n      and\n      dup3\n      add\n      swap2\n    tag_55:\n      pop\n      pop\n      pop\n      pop\n      pop\n        /* \"contracts/fun_stuff.sol\":1944:1948  name */\n      dup5\n        /* \"contracts/fun_stuff.sol\":1949:1950  i */\n      dup4\n        /* \"contracts/fun_stuff.sol\":1944:1951  name[i] */\n      dup2\n      mload\n      dup2\n      lt\n      tag_58\n      jumpi\n      invalid\n    tag_58:\n      0x20\n      mul\n      0x20\n      add\n      add\n        /* \"contracts/fun_stuff.sol\":1944:1965  name[i] = member.name */\n      dup2\n      swap1\n      mstore\n      pop\n        /* \"contracts/fun_stuff.sol\":1993:1999  member */\n      dup1\n        /* \"contracts/fun_stuff.sol\":1993:2007  member.isVoted */\n      0x02\n      add\n      0x00\n      swap1\n      sload\n      swap1\n      0x0100\n      exp\n      swap1\n      div\n      0xff\n      and\n        /* \"contracts/fun_stuff.sol\":1980:1987  isVoted */\n      dup4\n        /* \"contracts/fun_stuff.sol\":1988:1989  i */\n      dup4\n        /* \"contracts/fun_stuff.sol\":1980:1990  isVoted[i] */\n      dup2\n      mload\n      dup2\n      lt\n      tag_59\n      jumpi\n      invalid\n    tag_59:\n      0x20\n      mul\n      0x20\n      add\n      add\n        /* \"contracts/fun_stuff.sol\":1980:2007  isVoted[i] = member.isVoted */\n      swap1\n      iszero\n      iszero\n      swap1\n      dup2\n      iszero\n      iszero\n      dup2\n      mstore\n      pop\n      pop\n        /* \"contracts/fun_stuff.sol\":1809:2019  for (uint i = 0; i < memberCount; i++) {\r... */\n      pop\n        /* \"contracts/fun_stuff.sol\":1843:1846  i++ */\n      dup1\n      dup1\n      0x01\n      add\n      swap2\n      pop\n      pop\n        /* \"contracts/fun_stuff.sol\":1809:2019  for (uint i = 0; i < memberCount; i++) {\r... */\n      jump(tag_51)\n    tag_52:\n      pop\n        /* \"contracts/fun_stuff.sol\":2037:2039  id */\n      dup3\n        /* \"contracts/fun_stuff.sol\":2041:2045  name */\n      dup3\n        /* \"contracts/fun_stuff.sol\":2047:2054  isVoted */\n      dup3\n        /* \"contracts/fun_stuff.sol\":2029:2055  return (id, name, isVoted) */\n      swap6\n      pop\n      swap6\n      pop\n      swap6\n      pop\n      pop\n      pop\n      pop\n        /* \"contracts/fun_stuff.sol\":1522:2063  function getMemberValue() public view returns(uint[] memory, string[] memory, bool[] memory) {\r... */\n      swap1\n      swap2\n      swap3\n      jump\t// out\n        /* \"contracts/fun_stuff.sol\":693:855  function addMember(string memory _name, bool _isVote) public {\r... */\n    tag_28:\n        /* \"contracts/fun_stuff.sol\":788:823  Member(memberCount, _name, _isVote) */\n      mload(0x40)\n      dup1\n      0x60\n      add\n      0x40\n      mstore\n      dup1\n        /* \"contracts/fun_stuff.sol\":795:806  memberCount */\n      sload(0x01)\n        /* \"contracts/fun_stuff.sol\":788:823  Member(memberCount, _name, _isVote) */\n      dup2\n      mstore\n      0x20\n      add\n        /* \"contracts/fun_stuff.sol\":808:813  _name */\n      dup4\n        /* \"contracts/fun_stuff.sol\":788:823  Member(memberCount, _name, _isVote) */\n      dup2\n      mstore\n      0x20\n      add\n        /* \"contracts/fun_stuff.sol\":815:822  _isVote */\n      dup3\n        /* \"contracts/fun_stuff.sol\":788:823  Member(memberCount, _name, _isVote) */\n      iszero\n      iszero\n      dup2\n      mstore\n      pop\n        /* \"contracts/fun_stuff.sol\":765:772  members */\n      0x00\n        /* \"contracts/fun_stuff.sol\":765:785  members[memberCount] */\n      dup1\n        /* \"contracts/fun_stuff.sol\":773:784  memberCount */\n      sload(0x01)\n        /* \"contracts/fun_stuff.sol\":765:785  members[memberCount] */\n      dup2\n      mstore\n      0x20\n      add\n      swap1\n      dup2\n      mstore\n      0x20\n      add\n      0x00\n      keccak256\n        /* \"contracts/fun_stuff.sol\":765:823  members[memberCount] = Member(memberCount, _name, _isVote) */\n      0x00\n      dup3\n      add\n      mload\n      dup2\n      0x00\n      add\n      sstore\n      0x20\n      dup3\n      add\n      mload\n      dup2\n      0x01\n      add\n      swap1\n      dup1\n      mload\n      swap1\n      0x20\n      add\n      swap1\n      tag_61\n      swap3\n      swap2\n      swap1\n      tag_62\n      jump\t// in\n    tag_61:\n      pop\n      0x40\n      dup3\n      add\n      mload\n      dup2\n      0x02\n      add\n      exp(0x0100, 0x00)\n      dup2\n      sload\n      dup2\n      0xff\n      mul\n      not\n      and\n      swap1\n      dup4\n      iszero\n      iszero\n      mul\n      or\n      swap1\n      sstore\n      pop\n      swap1\n      pop\n      pop\n        /* \"contracts/fun_stuff.sol\":834:845  memberCount */\n      0x01\n      0x00\n        /* \"contracts/fun_stuff.sol\":834:847  memberCount++ */\n      dup2\n      sload\n      dup1\n      swap3\n      swap2\n      swap1\n      0x01\n      add\n      swap2\n      swap1\n      pop\n      sstore\n      pop\n        /* \"contracts/fun_stuff.sol\":693:855  function addMember(string memory _name, bool _isVote) public {\r... */\n      pop\n      pop\n      jump\t// out\n        /* \"contracts/fun_stuff.sol\":1021:1308  function getCountOfVoted(bool _isVote) public view returns(uint){\r... */\n    tag_32:\n        /* \"contracts/fun_stuff.sol\":1080:1084  uint */\n      0x00\n        /* \"contracts/fun_stuff.sol\":1096:1111  uint votedCount */\n      dup1\n        /* \"contracts/fun_stuff.sol\":1114:1115  0 */\n      0x00\n        /* \"contracts/fun_stuff.sol\":1096:1115  uint votedCount = 0 */\n      swap1\n      pop\n        /* \"contracts/fun_stuff.sol\":1131:1137  uint i */\n      0x00\n        /* \"contracts/fun_stuff.sol\":1140:1141  0 */\n      dup1\n        /* \"contracts/fun_stuff.sol\":1131:1141  uint i = 0 */\n      swap1\n      pop\n        /* \"contracts/fun_stuff.sol\":1126:1273  for (uint i = 0; i < memberCount; i++) {\r... */\n    tag_64:\n        /* \"contracts/fun_stuff.sol\":1147:1158  memberCount */\n      sload(0x01)\n        /* \"contracts/fun_stuff.sol\":1143:1144  i */\n      dup2\n        /* \"contracts/fun_stuff.sol\":1143:1158  i < memberCount */\n      lt\n        /* \"contracts/fun_stuff.sol\":1126:1273  for (uint i = 0; i < memberCount; i++) {\r... */\n      iszero\n      tag_65\n      jumpi\n        /* \"contracts/fun_stuff.sol\":1206:1213  _isVote */\n      dup4\n        /* \"contracts/fun_stuff.sol\":1184:1213  members[i].isVoted == _isVote */\n      iszero\n      iszero\n        /* \"contracts/fun_stuff.sol\":1184:1191  members */\n      0x00\n        /* \"contracts/fun_stuff.sol\":1184:1194  members[i] */\n      dup1\n        /* \"contracts/fun_stuff.sol\":1192:1193  i */\n      dup4\n        /* \"contracts/fun_stuff.sol\":1184:1194  members[i] */\n      dup2\n      mstore\n      0x20\n      add\n      swap1\n      dup2\n      mstore\n      0x20\n      add\n      0x00\n      keccak256\n        /* \"contracts/fun_stuff.sol\":1184:1202  members[i].isVoted */\n      0x02\n      add\n      0x00\n      swap1\n      sload\n      swap1\n      0x0100\n      exp\n      swap1\n      div\n      0xff\n      and\n        /* \"contracts/fun_stuff.sol\":1184:1213  members[i].isVoted == _isVote */\n      iszero\n      iszero\n      eq\n        /* \"contracts/fun_stuff.sol\":1180:1262  if (members[i].isVoted == _isVote) {\r... */\n      iszero\n      tag_67\n      jumpi\n        /* \"contracts/fun_stuff.sol\":1234:1246  votedCount++ */\n      dup2\n      dup1\n      0x01\n      add\n      swap3\n      pop\n      pop\n        /* \"contracts/fun_stuff.sol\":1180:1262  if (members[i].isVoted == _isVote) {\r... */\n    tag_67:\n        /* \"contracts/fun_stuff.sol\":1160:1163  i++ */\n      dup1\n      dup1\n      0x01\n      add\n      swap2\n      pop\n      pop\n        /* \"contracts/fun_stuff.sol\":1126:1273  for (uint i = 0; i < memberCount; i++) {\r... */\n      jump(tag_64)\n    tag_65:\n      pop\n        /* \"contracts/fun_stuff.sol\":1290:1300  votedCount */\n      dup1\n        /* \"contracts/fun_stuff.sol\":1283:1300  return votedCount */\n      swap2\n      pop\n      pop\n        /* \"contracts/fun_stuff.sol\":1021:1308  function getCountOfVoted(bool _isVote) public view returns(uint){\r... */\n      swap2\n      swap1\n      pop\n      jump\t// out\n        /* \"contracts/fun_stuff.sol\":863:972  function setVote(uint _memberId, bool _isVote) public {\r... */\n    tag_37:\n        /* \"contracts/fun_stuff.sol\":957:964  _isVote */\n      dup1\n        /* \"contracts/fun_stuff.sol\":928:935  members */\n      0x00\n        /* \"contracts/fun_stuff.sol\":928:946  members[_memberId] */\n      dup1\n        /* \"contracts/fun_stuff.sol\":936:945  _memberId */\n      dup5\n        /* \"contracts/fun_stuff.sol\":928:946  members[_memberId] */\n      dup2\n      mstore\n      0x20\n      add\n      swap1\n      dup2\n      mstore\n      0x20\n      add\n      0x00\n      keccak256\n        /* \"contracts/fun_stuff.sol\":928:954  members[_memberId].isVoted */\n      0x02\n      add\n      0x00\n        /* \"contracts/fun_stuff.sol\":928:964  members[_memberId].isVoted = _isVote */\n      0x0100\n      exp\n      dup2\n      sload\n      dup2\n      0xff\n      mul\n      not\n      and\n      swap1\n      dup4\n      iszero\n      iszero\n      mul\n      or\n      swap1\n      sstore\n      pop\n        /* \"contracts/fun_stuff.sol\":863:972  function setVote(uint _memberId, bool _isVote) public {\r... */\n      pop\n      pop\n      jump\t// out\n        /* \"contracts/fun_stuff.sol\":1352:1474  function getMemberStructure(uint _memberId) public view returns(Member memory){\r... */\n    tag_40:\n        /* \"contracts/fun_stuff.sol\":1416:1429  Member memory */\n      tag_69\n      tag_70\n      jump\t// in\n    tag_69:\n        /* \"contracts/fun_stuff.sol\":1448:1455  members */\n      0x00\n        /* \"contracts/fun_stuff.sol\":1448:1466  members[_memberId] */\n      dup1\n        /* \"contracts/fun_stuff.sol\":1456:1465  _memberId */\n      dup4\n        /* \"contracts/fun_stuff.sol\":1448:1466  members[_memberId] */\n      dup2\n      mstore\n      0x20\n      add\n      swap1\n      dup2\n      mstore\n      0x20\n      add\n      0x00\n      keccak256\n        /* \"contracts/fun_stuff.sol\":1441:1466  return members[_memberId] */\n      mload(0x40)\n      dup1\n      0x60\n      add\n      0x40\n      mstore\n      swap1\n      dup2\n      0x00\n      dup3\n      add\n      sload\n      dup2\n      mstore\n      0x20\n      add\n      0x01\n      dup3\n      add\n      dup1\n      sload\n      0x01\n      dup2\n      0x01\n      and\n      iszero\n      0x0100\n      mul\n      sub\n      and\n      0x02\n      swap1\n      div\n      dup1\n      0x1f\n      add\n      0x20\n      dup1\n      swap2\n      div\n      mul\n      0x20\n      add\n      mload(0x40)\n      swap1\n      dup2\n      add\n      0x40\n      mstore\n      dup1\n      swap3\n      swap2\n      swap1\n      dup2\n      dup2\n      mstore\n      0x20\n      add\n      dup3\n      dup1\n      sload\n      0x01\n      dup2\n      0x01\n      and\n      iszero\n      0x0100\n      mul\n      sub\n      and\n      0x02\n      swap1\n      div\n      dup1\n      iszero\n      tag_72\n      jumpi\n      dup1\n      0x1f\n      lt\n      tag_73\n      jumpi\n      0x0100\n      dup1\n      dup4\n      sload\n      div\n      mul\n      dup4\n      mstore\n      swap2\n      0x20\n      add\n      swap2\n      jump(tag_72)\n    tag_73:\n      dup3\n      add\n      swap2\n      swap1\n      0x00\n      mstore\n      keccak256(0x00, 0x20)\n      swap1\n    tag_74:\n      dup2\n      sload\n      dup2\n      mstore\n      swap1\n      0x01\n      add\n      swap1\n      0x20\n      add\n      dup1\n      dup4\n      gt\n      tag_74\n      jumpi\n      dup3\n      swap1\n      sub\n      0x1f\n      and\n      dup3\n      add\n      swap2\n    tag_72:\n      pop\n      pop\n      pop\n      pop\n      pop\n      dup2\n      mstore\n      0x20\n      add\n      0x02\n      dup3\n      add\n      0x00\n      swap1\n      sload\n      swap1\n      0x0100\n      exp\n      swap1\n      div\n      0xff\n      and\n      iszero\n      iszero\n      iszero\n      iszero\n      dup2\n      mstore\n      pop\n      pop\n      swap1\n      pop\n        /* \"contracts/fun_stuff.sol\":1352:1474  function getMemberStructure(uint _memberId) public view returns(Member memory){\r... */\n      swap2\n      swap1\n      pop\n      jump\t// out\n        /* \"contracts/fun_stuff.sol\":95:2071  contract VoteSaving {\r... */\n    tag_62:\n      dup3\n      dup1\n      sload\n      0x01\n      dup2\n      0x01\n      and\n      iszero\n      0x0100\n      mul\n      sub\n      and\n      0x02\n      swap1\n      div\n      swap1\n      0x00\n      mstore\n      keccak256(0x00, 0x20)\n      swap1\n      0x1f\n      add\n      0x20\n      swap1\n      div\n      dup2\n      add\n      swap3\n      dup3\n      0x1f\n      lt\n      tag_76\n      jumpi\n      dup1\n      mload\n      not(0xff)\n      and\n      dup4\n      dup1\n      add\n      or\n      dup6\n      sstore\n      jump(tag_75)\n    tag_76:\n      dup3\n      dup1\n      add\n      0x01\n      add\n      dup6\n      sstore\n      dup3\n      iszero\n      tag_75\n      jumpi\n      swap2\n      dup3\n      add\n    tag_77:\n      dup3\n      dup2\n      gt\n      iszero\n      tag_78\n      jumpi\n      dup3\n      mload\n      dup3\n      sstore\n      swap2\n      0x20\n      add\n      swap2\n      swap1\n      0x01\n      add\n      swap1\n      jump(tag_77)\n    tag_78:\n    tag_75:\n      pop\n      swap1\n      pop\n      tag_79\n      swap2\n      swap1\n      tag_80\n      jump\t// in\n    tag_79:\n      pop\n      swap1\n      jump\t// out\n    tag_70:\n      mload(0x40)\n      dup1\n      0x60\n      add\n      0x40\n      mstore\n      dup1\n      0x00\n      dup2\n      mstore\n      0x20\n      add\n      0x60\n      dup2\n      mstore\n      0x20\n      add\n      iszero(iszero(0x00))\n      dup2\n      mstore\n      pop\n      swap1\n      jump\t// out\n    tag_80:\n      tag_81\n      swap2\n      swap1\n    tag_82:\n      dup1\n      dup3\n      gt\n      iszero\n      tag_83\n      jumpi\n      0x00\n      dup2\n      0x00\n      swap1\n      sstore\n      pop\n      0x01\n      add\n      jump(tag_82)\n    tag_83:\n      pop\n      swap1\n      jump\n    tag_81:\n      swap1\n      jump\t// out\n        /* \"--CODEGEN--\":5:129   */\n    tag_85:\n      0x00\n        /* \"--CODEGEN--\":82:88   */\n      dup2\n        /* \"--CODEGEN--\":69:89   */\n      calldataload\n        /* \"--CODEGEN--\":60:89   */\n      swap1\n      pop\n        /* \"--CODEGEN--\":94:124   */\n      tag_87\n        /* \"--CODEGEN--\":118:123   */\n      dup2\n        /* \"--CODEGEN--\":94:124   */\n      jump(tag_88)\n    tag_87:\n        /* \"--CODEGEN--\":54:129   */\n      swap3\n      swap2\n      pop\n      pop\n      jump\n        /* \"--CODEGEN--\":137:579   */\n    tag_89:\n      0x00\n        /* \"--CODEGEN--\":239:242   */\n      dup3\n        /* \"--CODEGEN--\":232:236   */\n      0x1f\n        /* \"--CODEGEN--\":224:230   */\n      dup4\n        /* \"--CODEGEN--\":220:237   */\n      add\n        /* \"--CODEGEN--\":216:243   */\n      slt\n        /* \"--CODEGEN--\":206:208   */\n      tag_91\n      jumpi\n        /* \"--CODEGEN--\":257:258   */\n      0x00\n        /* \"--CODEGEN--\":254:255   */\n      dup1\n        /* \"--CODEGEN--\":247:259   */\n      revert\n        /* \"--CODEGEN--\":206:208   */\n    tag_91:\n        /* \"--CODEGEN--\":294:300   */\n      dup2\n        /* \"--CODEGEN--\":281:301   */\n      calldataload\n        /* \"--CODEGEN--\":316:381   */\n      tag_92\n        /* \"--CODEGEN--\":331:380   */\n      tag_93\n        /* \"--CODEGEN--\":373:379   */\n      dup3\n        /* \"--CODEGEN--\":331:380   */\n      jump(tag_94)\n    tag_93:\n        /* \"--CODEGEN--\":316:381   */\n      jump(tag_95)\n    tag_92:\n        /* \"--CODEGEN--\":307:381   */\n      swap2\n      pop\n        /* \"--CODEGEN--\":401:407   */\n      dup1\n        /* \"--CODEGEN--\":394:399   */\n      dup3\n        /* \"--CODEGEN--\":387:408   */\n      mstore\n        /* \"--CODEGEN--\":437:441   */\n      0x20\n        /* \"--CODEGEN--\":429:435   */\n      dup4\n        /* \"--CODEGEN--\":425:442   */\n      add\n        /* \"--CODEGEN--\":470:474   */\n      0x20\n        /* \"--CODEGEN--\":463:468   */\n      dup4\n        /* \"--CODEGEN--\":459:475   */\n      add\n        /* \"--CODEGEN--\":505:508   */\n      dup6\n        /* \"--CODEGEN--\":496:502   */\n      dup4\n        /* \"--CODEGEN--\":491:494   */\n      dup4\n        /* \"--CODEGEN--\":487:503   */\n      add\n        /* \"--CODEGEN--\":484:509   */\n      gt\n        /* \"--CODEGEN--\":481:483   */\n      iszero\n      tag_96\n      jumpi\n        /* \"--CODEGEN--\":522:523   */\n      0x00\n        /* \"--CODEGEN--\":519:520   */\n      dup1\n        /* \"--CODEGEN--\":512:524   */\n      revert\n        /* \"--CODEGEN--\":481:483   */\n    tag_96:\n        /* \"--CODEGEN--\":532:573   */\n      tag_97\n        /* \"--CODEGEN--\":566:572   */\n      dup4\n        /* \"--CODEGEN--\":561:564   */\n      dup3\n        /* \"--CODEGEN--\":556:559   */\n      dup5\n        /* \"--CODEGEN--\":532:573   */\n      jump(tag_98)\n    tag_97:\n        /* \"--CODEGEN--\":199:579   */\n      pop\n      pop\n      pop\n      swap3\n      swap2\n      pop\n      pop\n      jump\n        /* \"--CODEGEN--\":587:717   */\n    tag_99:\n      0x00\n        /* \"--CODEGEN--\":667:673   */\n      dup2\n        /* \"--CODEGEN--\":654:674   */\n      calldataload\n        /* \"--CODEGEN--\":645:674   */\n      swap1\n      pop\n        /* \"--CODEGEN--\":679:712   */\n      tag_101\n        /* \"--CODEGEN--\":706:711   */\n      dup2\n        /* \"--CODEGEN--\":679:712   */\n      jump(tag_102)\n    tag_101:\n        /* \"--CODEGEN--\":639:717   */\n      swap3\n      swap2\n      pop\n      pop\n      jump\n        /* \"--CODEGEN--\":724:959   */\n    tag_31:\n      0x00\n        /* \"--CODEGEN--\":825:827   */\n      0x20\n        /* \"--CODEGEN--\":813:822   */\n      dup3\n        /* \"--CODEGEN--\":804:811   */\n      dup5\n        /* \"--CODEGEN--\":800:823   */\n      sub\n        /* \"--CODEGEN--\":796:828   */\n      slt\n        /* \"--CODEGEN--\":793:795   */\n      iszero\n      tag_104\n      jumpi\n        /* \"--CODEGEN--\":841:842   */\n      0x00\n        /* \"--CODEGEN--\":838:839   */\n      dup1\n        /* \"--CODEGEN--\":831:843   */\n      revert\n        /* \"--CODEGEN--\":793:795   */\n    tag_104:\n        /* \"--CODEGEN--\":876:877   */\n      0x00\n        /* \"--CODEGEN--\":893:943   */\n      tag_105\n        /* \"--CODEGEN--\":935:942   */\n      dup5\n        /* \"--CODEGEN--\":926:932   */\n      dup3\n        /* \"--CODEGEN--\":915:924   */\n      dup6\n        /* \"--CODEGEN--\":911:933   */\n      add\n        /* \"--CODEGEN--\":893:943   */\n      jump(tag_85)\n    tag_105:\n        /* \"--CODEGEN--\":883:943   */\n      swap2\n      pop\n        /* \"--CODEGEN--\":855:949   */\n      pop\n        /* \"--CODEGEN--\":787:959   */\n      swap3\n      swap2\n      pop\n      pop\n      jump\n        /* \"--CODEGEN--\":966:1432   */\n    tag_27:\n      0x00\n      dup1\n        /* \"--CODEGEN--\":1094:1096   */\n      0x40\n        /* \"--CODEGEN--\":1082:1091   */\n      dup4\n        /* \"--CODEGEN--\":1073:1080   */\n      dup6\n        /* \"--CODEGEN--\":1069:1092   */\n      sub\n        /* \"--CODEGEN--\":1065:1097   */\n      slt\n        /* \"--CODEGEN--\":1062:1064   */\n      iszero\n      tag_107\n      jumpi\n        /* \"--CODEGEN--\":1110:1111   */\n      0x00\n        /* \"--CODEGEN--\":1107:1108   */\n      dup1\n        /* \"--CODEGEN--\":1100:1112   */\n      revert\n        /* \"--CODEGEN--\":1062:1064   */\n    tag_107:\n        /* \"--CODEGEN--\":1173:1174   */\n      0x00\n        /* \"--CODEGEN--\":1162:1171   */\n      dup4\n        /* \"--CODEGEN--\":1158:1175   */\n      add\n        /* \"--CODEGEN--\":1145:1176   */\n      calldataload\n        /* \"--CODEGEN--\":1196:1214   */\n      0xffffffffffffffff\n        /* \"--CODEGEN--\":1188:1194   */\n      dup2\n        /* \"--CODEGEN--\":1185:1215   */\n      gt\n        /* \"--CODEGEN--\":1182:1184   */\n      iszero\n      tag_108\n      jumpi\n        /* \"--CODEGEN--\":1228:1229   */\n      0x00\n        /* \"--CODEGEN--\":1225:1226   */\n      dup1\n        /* \"--CODEGEN--\":1218:1230   */\n      revert\n        /* \"--CODEGEN--\":1182:1184   */\n    tag_108:\n        /* \"--CODEGEN--\":1248:1311   */\n      tag_109\n        /* \"--CODEGEN--\":1303:1310   */\n      dup6\n        /* \"--CODEGEN--\":1294:1300   */\n      dup3\n        /* \"--CODEGEN--\":1283:1292   */\n      dup7\n        /* \"--CODEGEN--\":1279:1301   */\n      add\n        /* \"--CODEGEN--\":1248:1311   */\n      jump(tag_89)\n    tag_109:\n        /* \"--CODEGEN--\":1238:1311   */\n      swap3\n      pop\n        /* \"--CODEGEN--\":1124:1317   */\n      pop\n        /* \"--CODEGEN--\":1348:1350   */\n      0x20\n        /* \"--CODEGEN--\":1366:1416   */\n      tag_110\n        /* \"--CODEGEN--\":1408:1415   */\n      dup6\n        /* \"--CODEGEN--\":1399:1405   */\n      dup3\n        /* \"--CODEGEN--\":1388:1397   */\n      dup7\n        /* \"--CODEGEN--\":1384:1406   */\n      add\n        /* \"--CODEGEN--\":1366:1416   */\n      jump(tag_85)\n    tag_110:\n        /* \"--CODEGEN--\":1356:1416   */\n      swap2\n      pop\n        /* \"--CODEGEN--\":1327:1422   */\n      pop\n        /* \"--CODEGEN--\":1056:1432   */\n      swap3\n      pop\n      swap3\n      swap1\n      pop\n      jump\n        /* \"--CODEGEN--\":1439:1680   */\n    tag_17:\n      0x00\n        /* \"--CODEGEN--\":1543:1545   */\n      0x20\n        /* \"--CODEGEN--\":1531:1540   */\n      dup3\n        /* \"--CODEGEN--\":1522:1529   */\n      dup5\n        /* \"--CODEGEN--\":1518:1541   */\n      sub\n        /* \"--CODEGEN--\":1514:1546   */\n      slt\n        /* \"--CODEGEN--\":1511:1513   */\n      iszero\n      tag_112\n      jumpi\n        /* \"--CODEGEN--\":1559:1560   */\n      0x00\n        /* \"--CODEGEN--\":1556:1557   */\n      dup1\n        /* \"--CODEGEN--\":1549:1561   */\n      revert\n        /* \"--CODEGEN--\":1511:1513   */\n    tag_112:\n        /* \"--CODEGEN--\":1594:1595   */\n      0x00\n        /* \"--CODEGEN--\":1611:1664   */\n      tag_113\n        /* \"--CODEGEN--\":1656:1663   */\n      dup5\n        /* \"--CODEGEN--\":1647:1653   */\n      dup3\n        /* \"--CODEGEN--\":1636:1645   */\n      dup6\n        /* \"--CODEGEN--\":1632:1654   */\n      add\n        /* \"--CODEGEN--\":1611:1664   */\n      jump(tag_99)\n    tag_113:\n        /* \"--CODEGEN--\":1601:1664   */\n      swap2\n      pop\n        /* \"--CODEGEN--\":1573:1670   */\n      pop\n        /* \"--CODEGEN--\":1505:1680   */\n      swap3\n      swap2\n      pop\n      pop\n      jump\n        /* \"--CODEGEN--\":1687:2047   */\n    tag_36:\n      0x00\n      dup1\n        /* \"--CODEGEN--\":1805:1807   */\n      0x40\n        /* \"--CODEGEN--\":1793:1802   */\n      dup4\n        /* \"--CODEGEN--\":1784:1791   */\n      dup6\n        /* \"--CODEGEN--\":1780:1803   */\n      sub\n        /* \"--CODEGEN--\":1776:1808   */\n      slt\n        /* \"--CODEGEN--\":1773:1775   */\n      iszero\n      tag_115\n      jumpi\n        /* \"--CODEGEN--\":1821:1822   */\n      0x00\n        /* \"--CODEGEN--\":1818:1819   */\n      dup1\n        /* \"--CODEGEN--\":1811:1823   */\n      revert\n        /* \"--CODEGEN--\":1773:1775   */\n    tag_115:\n        /* \"--CODEGEN--\":1856:1857   */\n      0x00\n        /* \"--CODEGEN--\":1873:1926   */\n      tag_116\n        /* \"--CODEGEN--\":1918:1925   */\n      dup6\n        /* \"--CODEGEN--\":1909:1915   */\n      dup3\n        /* \"--CODEGEN--\":1898:1907   */\n      dup7\n        /* \"--CODEGEN--\":1894:1916   */\n      add\n        /* \"--CODEGEN--\":1873:1926   */\n      jump(tag_99)\n    tag_116:\n        /* \"--CODEGEN--\":1863:1926   */\n      swap3\n      pop\n        /* \"--CODEGEN--\":1835:1932   */\n      pop\n        /* \"--CODEGEN--\":1963:1965   */\n      0x20\n        /* \"--CODEGEN--\":1981:2031   */\n      tag_117\n        /* \"--CODEGEN--\":2023:2030   */\n      dup6\n        /* \"--CODEGEN--\":2014:2020   */\n      dup3\n        /* \"--CODEGEN--\":2003:2012   */\n      dup7\n        /* \"--CODEGEN--\":1999:2021   */\n      add\n        /* \"--CODEGEN--\":1981:2031   */\n      jump(tag_85)\n    tag_117:\n        /* \"--CODEGEN--\":1971:2031   */\n      swap2\n      pop\n        /* \"--CODEGEN--\":1942:2037   */\n      pop\n        /* \"--CODEGEN--\":1767:2047   */\n      swap3\n      pop\n      swap3\n      swap1\n      pop\n      jump\n        /* \"--CODEGEN--\":2055:2216   */\n    tag_118:\n      0x00\n        /* \"--CODEGEN--\":2136:2176   */\n      tag_120\n        /* \"--CODEGEN--\":2172:2175   */\n      dup4\n        /* \"--CODEGEN--\":2164:2170   */\n      dup4\n        /* \"--CODEGEN--\":2136:2176   */\n      jump(tag_121)\n    tag_120:\n        /* \"--CODEGEN--\":2205:2209   */\n      0x20\n        /* \"--CODEGEN--\":2200:2203   */\n      dup4\n        /* \"--CODEGEN--\":2196:2210   */\n      add\n        /* \"--CODEGEN--\":2182:2210   */\n      swap1\n      pop\n        /* \"--CODEGEN--\":2129:2216   */\n      swap3\n      swap2\n      pop\n      pop\n      jump\n        /* \"--CODEGEN--\":2225:2406   */\n    tag_122:\n      0x00\n        /* \"--CODEGEN--\":2338:2400   */\n      tag_124\n        /* \"--CODEGEN--\":2396:2399   */\n      dup4\n        /* \"--CODEGEN--\":2388:2394   */\n      dup4\n        /* \"--CODEGEN--\":2338:2400   */\n      jump(tag_125)\n    tag_124:\n        /* \"--CODEGEN--\":2324:2400   */\n      swap1\n      pop\n        /* \"--CODEGEN--\":2317:2406   */\n      swap3\n      swap2\n      pop\n      pop\n      jump\n        /* \"--CODEGEN--\":2415:2588   */\n    tag_126:\n      0x00\n        /* \"--CODEGEN--\":2502:2548   */\n      tag_128\n        /* \"--CODEGEN--\":2544:2547   */\n      dup4\n        /* \"--CODEGEN--\":2536:2542   */\n      dup4\n        /* \"--CODEGEN--\":2502:2548   */\n      jump(tag_129)\n    tag_128:\n        /* \"--CODEGEN--\":2577:2581   */\n      0x20\n        /* \"--CODEGEN--\":2572:2575   */\n      dup4\n        /* \"--CODEGEN--\":2568:2582   */\n      add\n        /* \"--CODEGEN--\":2554:2582   */\n      swap1\n      pop\n        /* \"--CODEGEN--\":2495:2588   */\n      swap3\n      swap2\n      pop\n      pop\n      jump\n        /* \"--CODEGEN--\":2621:3287   */\n    tag_130:\n      0x00\n        /* \"--CODEGEN--\":2760:2811   */\n      tag_132\n        /* \"--CODEGEN--\":2805:2810   */\n      dup3\n        /* \"--CODEGEN--\":2760:2811   */\n      jump(tag_133)\n    tag_132:\n        /* \"--CODEGEN--\":2824:2907   */\n      tag_134\n        /* \"--CODEGEN--\":2900:2906   */\n      dup2\n        /* \"--CODEGEN--\":2895:2898   */\n      dup6\n        /* \"--CODEGEN--\":2824:2907   */\n      jump(tag_135)\n    tag_134:\n        /* \"--CODEGEN--\":2817:2907   */\n      swap4\n      pop\n        /* \"--CODEGEN--\":2928:2981   */\n      tag_136\n        /* \"--CODEGEN--\":2975:2980   */\n      dup4\n        /* \"--CODEGEN--\":2928:2981   */\n      jump(tag_137)\n    tag_136:\n        /* \"--CODEGEN--\":3001:3008   */\n      dup1\n        /* \"--CODEGEN--\":3029:3030   */\n      0x00\n        /* \"--CODEGEN--\":3014:3265   */\n    tag_138:\n        /* \"--CODEGEN--\":3039:3045   */\n      dup4\n        /* \"--CODEGEN--\":3036:3037   */\n      dup2\n        /* \"--CODEGEN--\":3033:3046   */\n      lt\n        /* \"--CODEGEN--\":3014:3265   */\n      iszero\n      tag_140\n      jumpi\n        /* \"--CODEGEN--\":3106:3112   */\n      dup2\n        /* \"--CODEGEN--\":3100:3113   */\n      mload\n        /* \"--CODEGEN--\":3127:3184   */\n      tag_141\n        /* \"--CODEGEN--\":3180:3183   */\n      dup9\n        /* \"--CODEGEN--\":3165:3178   */\n      dup3\n        /* \"--CODEGEN--\":3127:3184   */\n      jump(tag_118)\n    tag_141:\n        /* \"--CODEGEN--\":3120:3184   */\n      swap8\n      pop\n        /* \"--CODEGEN--\":3201:3258   */\n      tag_142\n        /* \"--CODEGEN--\":3251:3257   */\n      dup4\n        /* \"--CODEGEN--\":3201:3258   */\n      jump(tag_143)\n    tag_142:\n        /* \"--CODEGEN--\":3191:3258   */\n      swap3\n      pop\n        /* \"--CODEGEN--\":3071:3265   */\n      pop\n        /* \"--CODEGEN--\":3061:3062   */\n      0x01\n        /* \"--CODEGEN--\":3058:3059   */\n      dup2\n        /* \"--CODEGEN--\":3054:3063   */\n      add\n        /* \"--CODEGEN--\":3049:3063   */\n      swap1\n      pop\n        /* \"--CODEGEN--\":3014:3265   */\n      jump(tag_138)\n    tag_140:\n        /* \"--CODEGEN--\":3018:3032   */\n      pop\n        /* \"--CODEGEN--\":3278:3281   */\n      dup6\n        /* \"--CODEGEN--\":3271:3281   */\n      swap4\n      pop\n        /* \"--CODEGEN--\":2739:3287   */\n      pop\n      pop\n      pop\n      swap3\n      swap2\n      pop\n      pop\n      jump\n        /* \"--CODEGEN--\":3324:4220   */\n    tag_144:\n      0x00\n        /* \"--CODEGEN--\":3481:3541   */\n      tag_146\n        /* \"--CODEGEN--\":3535:3540   */\n      dup3\n        /* \"--CODEGEN--\":3481:3541   */\n      jump(tag_147)\n    tag_146:\n        /* \"--CODEGEN--\":3554:3646   */\n      tag_148\n        /* \"--CODEGEN--\":3639:3645   */\n      dup2\n        /* \"--CODEGEN--\":3634:3637   */\n      dup6\n        /* \"--CODEGEN--\":3554:3646   */\n      jump(tag_149)\n    tag_148:\n        /* \"--CODEGEN--\":3547:3646   */\n      swap4\n      pop\n        /* \"--CODEGEN--\":3669:3672   */\n      dup4\n        /* \"--CODEGEN--\":3711:3715   */\n      0x20\n        /* \"--CODEGEN--\":3703:3709   */\n      dup3\n        /* \"--CODEGEN--\":3699:3716   */\n      mul\n        /* \"--CODEGEN--\":3694:3697   */\n      dup6\n        /* \"--CODEGEN--\":3690:3717   */\n      add\n        /* \"--CODEGEN--\":3738:3800   */\n      tag_150\n        /* \"--CODEGEN--\":3794:3799   */\n      dup6\n        /* \"--CODEGEN--\":3738:3800   */\n      jump(tag_151)\n    tag_150:\n        /* \"--CODEGEN--\":3820:3827   */\n      dup1\n        /* \"--CODEGEN--\":3848:3849   */\n      0x00\n        /* \"--CODEGEN--\":3833:4181   */\n    tag_152:\n        /* \"--CODEGEN--\":3858:3864   */\n      dup6\n        /* \"--CODEGEN--\":3855:3856   */\n      dup2\n        /* \"--CODEGEN--\":3852:3865   */\n      lt\n        /* \"--CODEGEN--\":3833:4181   */\n      iszero\n      tag_154\n      jumpi\n        /* \"--CODEGEN--\":3920:3929   */\n      dup5\n        /* \"--CODEGEN--\":3914:3918   */\n      dup5\n        /* \"--CODEGEN--\":3910:3930   */\n      sub\n        /* \"--CODEGEN--\":3905:3908   */\n      dup10\n        /* \"--CODEGEN--\":3898:3931   */\n      mstore\n        /* \"--CODEGEN--\":3965:3971   */\n      dup2\n        /* \"--CODEGEN--\":3959:3972   */\n      mload\n        /* \"--CODEGEN--\":3987:4063   */\n      tag_155\n        /* \"--CODEGEN--\":4058:4062   */\n      dup6\n        /* \"--CODEGEN--\":4043:4056   */\n      dup3\n        /* \"--CODEGEN--\":3987:4063   */\n      jump(tag_122)\n    tag_155:\n        /* \"--CODEGEN--\":3979:4063   */\n      swap5\n      pop\n        /* \"--CODEGEN--\":4080:4146   */\n      tag_156\n        /* \"--CODEGEN--\":4139:4145   */\n      dup4\n        /* \"--CODEGEN--\":4080:4146   */\n      jump(tag_157)\n    tag_156:\n        /* \"--CODEGEN--\":4070:4146   */\n      swap3\n      pop\n        /* \"--CODEGEN--\":4169:4173   */\n      0x20\n        /* \"--CODEGEN--\":4164:4167   */\n      dup11\n        /* \"--CODEGEN--\":4160:4174   */\n      add\n        /* \"--CODEGEN--\":4153:4174   */\n      swap10\n      pop\n        /* \"--CODEGEN--\":3890:4181   */\n      pop\n        /* \"--CODEGEN--\":3880:3881   */\n      0x01\n        /* \"--CODEGEN--\":3877:3878   */\n      dup2\n        /* \"--CODEGEN--\":3873:3882   */\n      add\n        /* \"--CODEGEN--\":3868:3882   */\n      swap1\n      pop\n        /* \"--CODEGEN--\":3833:4181   */\n      jump(tag_152)\n    tag_154:\n        /* \"--CODEGEN--\":3837:3851   */\n      pop\n        /* \"--CODEGEN--\":4194:4198   */\n      dup3\n        /* \"--CODEGEN--\":4187:4198   */\n      swap8\n      pop\n        /* \"--CODEGEN--\":4211:4214   */\n      dup8\n        /* \"--CODEGEN--\":4204:4214   */\n      swap6\n      pop\n        /* \"--CODEGEN--\":3460:4220   */\n      pop\n      pop\n      pop\n      pop\n      pop\n      swap3\n      swap2\n      pop\n      pop\n      jump\n        /* \"--CODEGEN--\":4259:4949   */\n    tag_158:\n      0x00\n        /* \"--CODEGEN--\":4404:4458   */\n      tag_160\n        /* \"--CODEGEN--\":4452:4457   */\n      dup3\n        /* \"--CODEGEN--\":4404:4458   */\n      jump(tag_161)\n    tag_160:\n        /* \"--CODEGEN--\":4471:4557   */\n      tag_162\n        /* \"--CODEGEN--\":4550:4556   */\n      dup2\n        /* \"--CODEGEN--\":4545:4548   */\n      dup6\n        /* \"--CODEGEN--\":4471:4557   */\n      jump(tag_163)\n    tag_162:\n        /* \"--CODEGEN--\":4464:4557   */\n      swap4\n      pop\n        /* \"--CODEGEN--\":4578:4634   */\n      tag_164\n        /* \"--CODEGEN--\":4628:4633   */\n      dup4\n        /* \"--CODEGEN--\":4578:4634   */\n      jump(tag_165)\n    tag_164:\n        /* \"--CODEGEN--\":4654:4661   */\n      dup1\n        /* \"--CODEGEN--\":4682:4683   */\n      0x00\n        /* \"--CODEGEN--\":4667:4927   */\n    tag_166:\n        /* \"--CODEGEN--\":4692:4698   */\n      dup4\n        /* \"--CODEGEN--\":4689:4690   */\n      dup2\n        /* \"--CODEGEN--\":4686:4699   */\n      lt\n        /* \"--CODEGEN--\":4667:4927   */\n      iszero\n      tag_168\n      jumpi\n        /* \"--CODEGEN--\":4759:4765   */\n      dup2\n        /* \"--CODEGEN--\":4753:4766   */\n      mload\n        /* \"--CODEGEN--\":4780:4843   */\n      tag_169\n        /* \"--CODEGEN--\":4839:4842   */\n      dup9\n        /* \"--CODEGEN--\":4824:4837   */\n      dup3\n        /* \"--CODEGEN--\":4780:4843   */\n      jump(tag_126)\n    tag_169:\n        /* \"--CODEGEN--\":4773:4843   */\n      swap8\n      pop\n        /* \"--CODEGEN--\":4860:4920   */\n      tag_170\n        /* \"--CODEGEN--\":4913:4919   */\n      dup4\n        /* \"--CODEGEN--\":4860:4920   */\n      jump(tag_171)\n    tag_170:\n        /* \"--CODEGEN--\":4850:4920   */\n      swap3\n      pop\n        /* \"--CODEGEN--\":4724:4927   */\n      pop\n        /* \"--CODEGEN--\":4714:4715   */\n      0x01\n        /* \"--CODEGEN--\":4711:4712   */\n      dup2\n        /* \"--CODEGEN--\":4707:4716   */\n      add\n        /* \"--CODEGEN--\":4702:4716   */\n      swap1\n      pop\n        /* \"--CODEGEN--\":4667:4927   */\n      jump(tag_166)\n    tag_168:\n        /* \"--CODEGEN--\":4671:4685   */\n      pop\n        /* \"--CODEGEN--\":4940:4943   */\n      dup6\n        /* \"--CODEGEN--\":4933:4943   */\n      swap4\n      pop\n        /* \"--CODEGEN--\":4383:4949   */\n      pop\n      pop\n      pop\n      swap3\n      swap2\n      pop\n      pop\n      jump\n        /* \"--CODEGEN--\":4957:5051   */\n    tag_121:\n        /* \"--CODEGEN--\":5024:5045   */\n      tag_173\n        /* \"--CODEGEN--\":5039:5044   */\n      dup2\n        /* \"--CODEGEN--\":5024:5045   */\n      jump(tag_174)\n    tag_173:\n        /* \"--CODEGEN--\":5019:5022   */\n      dup3\n        /* \"--CODEGEN--\":5012:5046   */\n      mstore\n        /* \"--CODEGEN--\":5006:5051   */\n      pop\n      pop\n      jump\n        /* \"--CODEGEN--\":5058:5162   */\n    tag_175:\n        /* \"--CODEGEN--\":5135:5156   */\n      tag_177\n        /* \"--CODEGEN--\":5150:5155   */\n      dup2\n        /* \"--CODEGEN--\":5135:5156   */\n      jump(tag_174)\n    tag_177:\n        /* \"--CODEGEN--\":5130:5133   */\n      dup3\n        /* \"--CODEGEN--\":5123:5157   */\n      mstore\n        /* \"--CODEGEN--\":5117:5162   */\n      pop\n      pop\n      jump\n        /* \"--CODEGEN--\":5169:5488   */\n    tag_125:\n      0x00\n        /* \"--CODEGEN--\":5267:5302   */\n      tag_179\n        /* \"--CODEGEN--\":5296:5301   */\n      dup3\n        /* \"--CODEGEN--\":5267:5302   */\n      jump(tag_180)\n    tag_179:\n        /* \"--CODEGEN--\":5314:5375   */\n      tag_181\n        /* \"--CODEGEN--\":5368:5374   */\n      dup2\n        /* \"--CODEGEN--\":5363:5366   */\n      dup6\n        /* \"--CODEGEN--\":5314:5375   */\n      jump(tag_182)\n    tag_181:\n        /* \"--CODEGEN--\":5307:5375   */\n      swap4\n      pop\n        /* \"--CODEGEN--\":5380:5432   */\n      tag_183\n        /* \"--CODEGEN--\":5425:5431   */\n      dup2\n        /* \"--CODEGEN--\":5420:5423   */\n      dup6\n        /* \"--CODEGEN--\":5413:5417   */\n      0x20\n        /* \"--CODEGEN--\":5406:5411   */\n      dup7\n        /* \"--CODEGEN--\":5402:5418   */\n      add\n        /* \"--CODEGEN--\":5380:5432   */\n      jump(tag_184)\n    tag_183:\n        /* \"--CODEGEN--\":5453:5482   */\n      tag_185\n        /* \"--CODEGEN--\":5475:5481   */\n      dup2\n        /* \"--CODEGEN--\":5453:5482   */\n      jump(tag_186)\n    tag_185:\n        /* \"--CODEGEN--\":5448:5451   */\n      dup5\n        /* \"--CODEGEN--\":5444:5483   */\n      add\n        /* \"--CODEGEN--\":5437:5483   */\n      swap2\n      pop\n        /* \"--CODEGEN--\":5247:5488   */\n      pop\n      swap3\n      swap2\n      pop\n      pop\n      jump\n        /* \"--CODEGEN--\":5495:5834   */\n    tag_187:\n      0x00\n        /* \"--CODEGEN--\":5603:5638   */\n      tag_189\n        /* \"--CODEGEN--\":5632:5637   */\n      dup3\n        /* \"--CODEGEN--\":5603:5638   */\n      jump(tag_180)\n    tag_189:\n        /* \"--CODEGEN--\":5650:5721   */\n      tag_190\n        /* \"--CODEGEN--\":5714:5720   */\n      dup2\n        /* \"--CODEGEN--\":5709:5712   */\n      dup6\n        /* \"--CODEGEN--\":5650:5721   */\n      jump(tag_191)\n    tag_190:\n        /* \"--CODEGEN--\":5643:5721   */\n      swap4\n      pop\n        /* \"--CODEGEN--\":5726:5778   */\n      tag_192\n        /* \"--CODEGEN--\":5771:5777   */\n      dup2\n        /* \"--CODEGEN--\":5766:5769   */\n      dup6\n        /* \"--CODEGEN--\":5759:5763   */\n      0x20\n        /* \"--CODEGEN--\":5752:5757   */\n      dup7\n        /* \"--CODEGEN--\":5748:5764   */\n      add\n        /* \"--CODEGEN--\":5726:5778   */\n      jump(tag_184)\n    tag_192:\n        /* \"--CODEGEN--\":5799:5828   */\n      tag_193\n        /* \"--CODEGEN--\":5821:5827   */\n      dup2\n        /* \"--CODEGEN--\":5799:5828   */\n      jump(tag_186)\n    tag_193:\n        /* \"--CODEGEN--\":5794:5797   */\n      dup5\n        /* \"--CODEGEN--\":5790:5829   */\n      add\n        /* \"--CODEGEN--\":5783:5829   */\n      swap2\n      pop\n        /* \"--CODEGEN--\":5583:5834   */\n      pop\n      swap3\n      swap2\n      pop\n      pop\n      jump\n        /* \"--CODEGEN--\":5900:6608   */\n    tag_194:\n      0x00\n        /* \"--CODEGEN--\":6043:6047   */\n      0x60\n        /* \"--CODEGEN--\":6038:6041   */\n      dup4\n        /* \"--CODEGEN--\":6034:6048   */\n      add\n        /* \"--CODEGEN--\":6124:6128   */\n      0x00\n        /* \"--CODEGEN--\":6117:6122   */\n      dup4\n        /* \"--CODEGEN--\":6113:6129   */\n      add\n        /* \"--CODEGEN--\":6107:6130   */\n      mload\n        /* \"--CODEGEN--\":6136:6199   */\n      tag_196\n        /* \"--CODEGEN--\":6193:6197   */\n      0x00\n        /* \"--CODEGEN--\":6188:6191   */\n      dup7\n        /* \"--CODEGEN--\":6184:6198   */\n      add\n        /* \"--CODEGEN--\":6170:6182   */\n      dup3\n        /* \"--CODEGEN--\":6136:6199   */\n      jump(tag_129)\n    tag_196:\n        /* \"--CODEGEN--\":6063:6205   */\n      pop\n        /* \"--CODEGEN--\":6278:6282   */\n      0x20\n        /* \"--CODEGEN--\":6271:6276   */\n      dup4\n        /* \"--CODEGEN--\":6267:6283   */\n      add\n        /* \"--CODEGEN--\":6261:6284   */\n      mload\n        /* \"--CODEGEN--\":6330:6333   */\n      dup5\n        /* \"--CODEGEN--\":6324:6328   */\n      dup3\n        /* \"--CODEGEN--\":6320:6334   */\n      sub\n        /* \"--CODEGEN--\":6313:6317   */\n      0x20\n        /* \"--CODEGEN--\":6308:6311   */\n      dup7\n        /* \"--CODEGEN--\":6304:6318   */\n      add\n        /* \"--CODEGEN--\":6297:6335   */\n      mstore\n        /* \"--CODEGEN--\":6350:6419   */\n      tag_197\n        /* \"--CODEGEN--\":6414:6418   */\n      dup3\n        /* \"--CODEGEN--\":6400:6412   */\n      dup3\n        /* \"--CODEGEN--\":6350:6419   */\n      jump(tag_125)\n    tag_197:\n        /* \"--CODEGEN--\":6342:6419   */\n      swap2\n      pop\n        /* \"--CODEGEN--\":6215:6431   */\n      pop\n        /* \"--CODEGEN--\":6507:6511   */\n      0x40\n        /* \"--CODEGEN--\":6500:6505   */\n      dup4\n        /* \"--CODEGEN--\":6496:6512   */\n      add\n        /* \"--CODEGEN--\":6490:6513   */\n      mload\n        /* \"--CODEGEN--\":6519:6576   */\n      tag_198\n        /* \"--CODEGEN--\":6570:6574   */\n      0x40\n        /* \"--CODEGEN--\":6565:6568   */\n      dup7\n        /* \"--CODEGEN--\":6561:6575   */\n      add\n        /* \"--CODEGEN--\":6547:6559   */\n      dup3\n        /* \"--CODEGEN--\":6519:6576   */\n      jump(tag_121)\n    tag_198:\n        /* \"--CODEGEN--\":6441:6582   */\n      pop\n        /* \"--CODEGEN--\":6599:6603   */\n      dup1\n        /* \"--CODEGEN--\":6592:6603   */\n      swap2\n      pop\n        /* \"--CODEGEN--\":6016:6608   */\n      pop\n      swap3\n      swap2\n      pop\n      pop\n      jump\n        /* \"--CODEGEN--\":6615:6718   */\n    tag_129:\n        /* \"--CODEGEN--\":6688:6712   */\n      tag_200\n        /* \"--CODEGEN--\":6706:6711   */\n      dup2\n        /* \"--CODEGEN--\":6688:6712   */\n      jump(tag_201)\n    tag_200:\n        /* \"--CODEGEN--\":6683:6686   */\n      dup3\n        /* \"--CODEGEN--\":6676:6713   */\n      mstore\n        /* \"--CODEGEN--\":6670:6718   */\n      pop\n      pop\n      jump\n        /* \"--CODEGEN--\":6725:6838   */\n    tag_202:\n        /* \"--CODEGEN--\":6808:6832   */\n      tag_204\n        /* \"--CODEGEN--\":6826:6831   */\n      dup2\n        /* \"--CODEGEN--\":6808:6832   */\n      jump(tag_201)\n    tag_204:\n        /* \"--CODEGEN--\":6803:6806   */\n      dup3\n        /* \"--CODEGEN--\":6796:6833   */\n      mstore\n        /* \"--CODEGEN--\":6790:6838   */\n      pop\n      pop\n      jump\n        /* \"--CODEGEN--\":6845:7736   */\n    tag_24:\n      0x00\n        /* \"--CODEGEN--\":7175:7177   */\n      0x60\n        /* \"--CODEGEN--\":7164:7173   */\n      dup3\n        /* \"--CODEGEN--\":7160:7178   */\n      add\n        /* \"--CODEGEN--\":7152:7178   */\n      swap1\n      pop\n        /* \"--CODEGEN--\":7225:7234   */\n      dup2\n        /* \"--CODEGEN--\":7219:7223   */\n      dup2\n        /* \"--CODEGEN--\":7215:7235   */\n      sub\n        /* \"--CODEGEN--\":7211:7212   */\n      0x00\n        /* \"--CODEGEN--\":7200:7209   */\n      dup4\n        /* \"--CODEGEN--\":7196:7213   */\n      add\n        /* \"--CODEGEN--\":7189:7236   */\n      mstore\n        /* \"--CODEGEN--\":7250:7358   */\n      tag_206\n        /* \"--CODEGEN--\":7353:7357   */\n      dup2\n        /* \"--CODEGEN--\":7344:7350   */\n      dup7\n        /* \"--CODEGEN--\":7250:7358   */\n      jump(tag_158)\n    tag_206:\n        /* \"--CODEGEN--\":7242:7358   */\n      swap1\n      pop\n        /* \"--CODEGEN--\":7406:7415   */\n      dup2\n        /* \"--CODEGEN--\":7400:7404   */\n      dup2\n        /* \"--CODEGEN--\":7396:7416   */\n      sub\n        /* \"--CODEGEN--\":7391:7393   */\n      0x20\n        /* \"--CODEGEN--\":7380:7389   */\n      dup4\n        /* \"--CODEGEN--\":7376:7394   */\n      add\n        /* \"--CODEGEN--\":7369:7417   */\n      mstore\n        /* \"--CODEGEN--\":7431:7551   */\n      tag_207\n        /* \"--CODEGEN--\":7546:7550   */\n      dup2\n        /* \"--CODEGEN--\":7537:7543   */\n      dup6\n        /* \"--CODEGEN--\":7431:7551   */\n      jump(tag_144)\n    tag_207:\n        /* \"--CODEGEN--\":7423:7551   */\n      swap1\n      pop\n        /* \"--CODEGEN--\":7599:7608   */\n      dup2\n        /* \"--CODEGEN--\":7593:7597   */\n      dup2\n        /* \"--CODEGEN--\":7589:7609   */\n      sub\n        /* \"--CODEGEN--\":7584:7586   */\n      0x40\n        /* \"--CODEGEN--\":7573:7582   */\n      dup4\n        /* \"--CODEGEN--\":7569:7587   */\n      add\n        /* \"--CODEGEN--\":7562:7610   */\n      mstore\n        /* \"--CODEGEN--\":7624:7726   */\n      tag_208\n        /* \"--CODEGEN--\":7721:7725   */\n      dup2\n        /* \"--CODEGEN--\":7712:7718   */\n      dup5\n        /* \"--CODEGEN--\":7624:7726   */\n      jump(tag_130)\n    tag_208:\n        /* \"--CODEGEN--\":7616:7726   */\n      swap1\n      pop\n        /* \"--CODEGEN--\":7146:7736   */\n      swap5\n      swap4\n      pop\n      pop\n      pop\n      pop\n      jump\n        /* \"--CODEGEN--\":7743:8088   */\n    tag_42:\n      0x00\n        /* \"--CODEGEN--\":7903:7905   */\n      0x20\n        /* \"--CODEGEN--\":7892:7901   */\n      dup3\n        /* \"--CODEGEN--\":7888:7906   */\n      add\n        /* \"--CODEGEN--\":7880:7906   */\n      swap1\n      pop\n        /* \"--CODEGEN--\":7953:7962   */\n      dup2\n        /* \"--CODEGEN--\":7947:7951   */\n      dup2\n        /* \"--CODEGEN--\":7943:7963   */\n      sub\n        /* \"--CODEGEN--\":7939:7940   */\n      0x00\n        /* \"--CODEGEN--\":7928:7937   */\n      dup4\n        /* \"--CODEGEN--\":7924:7941   */\n      add\n        /* \"--CODEGEN--\":7917:7964   */\n      mstore\n        /* \"--CODEGEN--\":7978:8078   */\n      tag_210\n        /* \"--CODEGEN--\":8073:8077   */\n      dup2\n        /* \"--CODEGEN--\":8064:8070   */\n      dup5\n        /* \"--CODEGEN--\":7978:8078   */\n      jump(tag_194)\n    tag_210:\n        /* \"--CODEGEN--\":7970:8078   */\n      swap1\n      pop\n        /* \"--CODEGEN--\":7874:8088   */\n      swap3\n      swap2\n      pop\n      pop\n      jump\n        /* \"--CODEGEN--\":8095:8308   */\n    tag_14:\n      0x00\n        /* \"--CODEGEN--\":8213:8215   */\n      0x20\n        /* \"--CODEGEN--\":8202:8211   */\n      dup3\n        /* \"--CODEGEN--\":8198:8216   */\n      add\n        /* \"--CODEGEN--\":8190:8216   */\n      swap1\n      pop\n        /* \"--CODEGEN--\":8227:8298   */\n      tag_212\n        /* \"--CODEGEN--\":8295:8296   */\n      0x00\n        /* \"--CODEGEN--\":8284:8293   */\n      dup4\n        /* \"--CODEGEN--\":8280:8297   */\n      add\n        /* \"--CODEGEN--\":8271:8277   */\n      dup5\n        /* \"--CODEGEN--\":8227:8298   */\n      jump(tag_202)\n    tag_212:\n        /* \"--CODEGEN--\":8184:8308   */\n      swap3\n      swap2\n      pop\n      pop\n      jump\n        /* \"--CODEGEN--\":8315:8818   */\n    tag_20:\n      0x00\n        /* \"--CODEGEN--\":8499:8501   */\n      0x60\n        /* \"--CODEGEN--\":8488:8497   */\n      dup3\n        /* \"--CODEGEN--\":8484:8502   */\n      add\n        /* \"--CODEGEN--\":8476:8502   */\n      swap1\n      pop\n        /* \"--CODEGEN--\":8513:8584   */\n      tag_214\n        /* \"--CODEGEN--\":8581:8582   */\n      0x00\n        /* \"--CODEGEN--\":8570:8579   */\n      dup4\n        /* \"--CODEGEN--\":8566:8583   */\n      add\n        /* \"--CODEGEN--\":8557:8563   */\n      dup7\n        /* \"--CODEGEN--\":8513:8584   */\n      jump(tag_202)\n    tag_214:\n        /* \"--CODEGEN--\":8632:8641   */\n      dup2\n        /* \"--CODEGEN--\":8626:8630   */\n      dup2\n        /* \"--CODEGEN--\":8622:8642   */\n      sub\n        /* \"--CODEGEN--\":8617:8619   */\n      0x20\n        /* \"--CODEGEN--\":8606:8615   */\n      dup4\n        /* \"--CODEGEN--\":8602:8620   */\n      add\n        /* \"--CODEGEN--\":8595:8643   */\n      mstore\n        /* \"--CODEGEN--\":8657:8731   */\n      tag_215\n        /* \"--CODEGEN--\":8726:8730   */\n      dup2\n        /* \"--CODEGEN--\":8717:8723   */\n      dup6\n        /* \"--CODEGEN--\":8657:8731   */\n      jump(tag_187)\n    tag_215:\n        /* \"--CODEGEN--\":8649:8731   */\n      swap1\n      pop\n        /* \"--CODEGEN--\":8742:8808   */\n      tag_216\n        /* \"--CODEGEN--\":8804:8806   */\n      0x40\n        /* \"--CODEGEN--\":8793:8802   */\n      dup4\n        /* \"--CODEGEN--\":8789:8807   */\n      add\n        /* \"--CODEGEN--\":8780:8786   */\n      dup5\n        /* \"--CODEGEN--\":8742:8808   */\n      jump(tag_175)\n    tag_216:\n        /* \"--CODEGEN--\":8470:8818   */\n      swap5\n      swap4\n      pop\n      pop\n      pop\n      pop\n      jump\n        /* \"--CODEGEN--\":8825:9081   */\n    tag_95:\n      0x00\n        /* \"--CODEGEN--\":8887:8889   */\n      0x40\n        /* \"--CODEGEN--\":8881:8890   */\n      mload\n        /* \"--CODEGEN--\":8871:8890   */\n      swap1\n      pop\n        /* \"--CODEGEN--\":8925:8929   */\n      dup2\n        /* \"--CODEGEN--\":8917:8923   */\n      dup2\n        /* \"--CODEGEN--\":8913:8930   */\n      add\n        /* \"--CODEGEN--\":9024:9030   */\n      dup2\n        /* \"--CODEGEN--\":9012:9022   */\n      dup2\n        /* \"--CODEGEN--\":9009:9031   */\n      lt\n        /* \"--CODEGEN--\":8988:9006   */\n      0xffffffffffffffff\n        /* \"--CODEGEN--\":8976:8986   */\n      dup3\n        /* \"--CODEGEN--\":8973:9007   */\n      gt\n        /* \"--CODEGEN--\":8970:9032   */\n      or\n        /* \"--CODEGEN--\":8967:8969   */\n      iszero\n      tag_218\n      jumpi\n        /* \"--CODEGEN--\":9045:9046   */\n      0x00\n        /* \"--CODEGEN--\":9042:9043   */\n      dup1\n        /* \"--CODEGEN--\":9035:9047   */\n      revert\n        /* \"--CODEGEN--\":8967:8969   */\n    tag_218:\n        /* \"--CODEGEN--\":9065:9075   */\n      dup1\n        /* \"--CODEGEN--\":9061:9063   */\n      0x40\n        /* \"--CODEGEN--\":9054:9076   */\n      mstore\n        /* \"--CODEGEN--\":8865:9081   */\n      pop\n      swap2\n      swap1\n      pop\n      jump\n        /* \"--CODEGEN--\":9088:9410   */\n    tag_94:\n      0x00\n        /* \"--CODEGEN--\":9232:9250   */\n      0xffffffffffffffff\n        /* \"--CODEGEN--\":9224:9230   */\n      dup3\n        /* \"--CODEGEN--\":9221:9251   */\n      gt\n        /* \"--CODEGEN--\":9218:9220   */\n      iszero\n      tag_220\n      jumpi\n        /* \"--CODEGEN--\":9264:9265   */\n      0x00\n        /* \"--CODEGEN--\":9261:9262   */\n      dup1\n        /* \"--CODEGEN--\":9254:9266   */\n      revert\n        /* \"--CODEGEN--\":9218:9220   */\n    tag_220:\n        /* \"--CODEGEN--\":9331:9335   */\n      0x1f\n        /* \"--CODEGEN--\":9327:9336   */\n      not\n        /* \"--CODEGEN--\":9320:9324   */\n      0x1f\n        /* \"--CODEGEN--\":9312:9318   */\n      dup4\n        /* \"--CODEGEN--\":9308:9325   */\n      add\n        /* \"--CODEGEN--\":9304:9337   */\n      and\n        /* \"--CODEGEN--\":9296:9337   */\n      swap1\n      pop\n        /* \"--CODEGEN--\":9395:9399   */\n      0x20\n        /* \"--CODEGEN--\":9389:9393   */\n      dup2\n        /* \"--CODEGEN--\":9385:9400   */\n      add\n        /* \"--CODEGEN--\":9377:9400   */\n      swap1\n      pop\n        /* \"--CODEGEN--\":9155:9410   */\n      swap2\n      swap1\n      pop\n      jump\n        /* \"--CODEGEN--\":9417:9565   */\n    tag_137:\n      0x00\n        /* \"--CODEGEN--\":9500:9503   */\n      dup2\n        /* \"--CODEGEN--\":9492:9503   */\n      swap1\n      pop\n        /* \"--CODEGEN--\":9538:9542   */\n      0x20\n        /* \"--CODEGEN--\":9533:9536   */\n      dup3\n        /* \"--CODEGEN--\":9529:9543   */\n      add\n        /* \"--CODEGEN--\":9521:9543   */\n      swap1\n      pop\n        /* \"--CODEGEN--\":9486:9565   */\n      swap2\n      swap1\n      pop\n      jump\n        /* \"--CODEGEN--\":9572:9729   */\n    tag_151:\n      0x00\n        /* \"--CODEGEN--\":9664:9667   */\n      dup2\n        /* \"--CODEGEN--\":9656:9667   */\n      swap1\n      pop\n        /* \"--CODEGEN--\":9702:9706   */\n      0x20\n        /* \"--CODEGEN--\":9697:9700   */\n      dup3\n        /* \"--CODEGEN--\":9693:9707   */\n      add\n        /* \"--CODEGEN--\":9685:9707   */\n      swap1\n      pop\n        /* \"--CODEGEN--\":9650:9729   */\n      swap2\n      swap1\n      pop\n      jump\n        /* \"--CODEGEN--\":9736:9887   */\n    tag_165:\n      0x00\n        /* \"--CODEGEN--\":9822:9825   */\n      dup2\n        /* \"--CODEGEN--\":9814:9825   */\n      swap1\n      pop\n        /* \"--CODEGEN--\":9860:9864   */\n      0x20\n        /* \"--CODEGEN--\":9855:9858   */\n      dup3\n        /* \"--CODEGEN--\":9851:9865   */\n      add\n        /* \"--CODEGEN--\":9843:9865   */\n      swap1\n      pop\n        /* \"--CODEGEN--\":9808:9887   */\n      swap2\n      swap1\n      pop\n      jump\n        /* \"--CODEGEN--\":9894:10028   */\n    tag_133:\n      0x00\n        /* \"--CODEGEN--\":10000:10005   */\n      dup2\n        /* \"--CODEGEN--\":9994:10006   */\n      mload\n        /* \"--CODEGEN--\":9984:10006   */\n      swap1\n      pop\n        /* \"--CODEGEN--\":9965:10028   */\n      swap2\n      swap1\n      pop\n      jump\n        /* \"--CODEGEN--\":10035:10178   */\n    tag_147:\n      0x00\n        /* \"--CODEGEN--\":10150:10155   */\n      dup2\n        /* \"--CODEGEN--\":10144:10156   */\n      mload\n        /* \"--CODEGEN--\":10134:10156   */\n      swap1\n      pop\n        /* \"--CODEGEN--\":10115:10178   */\n      swap2\n      swap1\n      pop\n      jump\n        /* \"--CODEGEN--\":10185:10322   */\n    tag_161:\n      0x00\n        /* \"--CODEGEN--\":10294:10299   */\n      dup2\n        /* \"--CODEGEN--\":10288:10300   */\n      mload\n        /* \"--CODEGEN--\":10278:10300   */\n      swap1\n      pop\n        /* \"--CODEGEN--\":10259:10322   */\n      swap2\n      swap1\n      pop\n      jump\n        /* \"--CODEGEN--\":10329:10447   */\n    tag_180:\n      0x00\n        /* \"--CODEGEN--\":10419:10424   */\n      dup2\n        /* \"--CODEGEN--\":10413:10425   */\n      mload\n        /* \"--CODEGEN--\":10403:10425   */\n      swap1\n      pop\n        /* \"--CODEGEN--\":10384:10447   */\n      swap2\n      swap1\n      pop\n      jump\n        /* \"--CODEGEN--\":10454:10559   */\n    tag_143:\n      0x00\n        /* \"--CODEGEN--\":10549:10553   */\n      0x20\n        /* \"--CODEGEN--\":10544:10547   */\n      dup3\n        /* \"--CODEGEN--\":10540:10554   */\n      add\n        /* \"--CODEGEN--\":10532:10554   */\n      swap1\n      pop\n        /* \"--CODEGEN--\":10526:10559   */\n      swap2\n      swap1\n      pop\n      jump\n        /* \"--CODEGEN--\":10566:10680   */\n    tag_157:\n      0x00\n        /* \"--CODEGEN--\":10670:10674   */\n      0x20\n        /* \"--CODEGEN--\":10665:10668   */\n      dup3\n        /* \"--CODEGEN--\":10661:10675   */\n      add\n        /* \"--CODEGEN--\":10653:10675   */\n      swap1\n      pop\n        /* \"--CODEGEN--\":10647:10680   */\n      swap2\n      swap1\n      pop\n      jump\n        /* \"--CODEGEN--\":10687:10795   */\n    tag_171:\n      0x00\n        /* \"--CODEGEN--\":10785:10789   */\n      0x20\n        /* \"--CODEGEN--\":10780:10783   */\n      dup3\n        /* \"--CODEGEN--\":10776:10790   */\n      add\n        /* \"--CODEGEN--\":10768:10790   */\n      swap1\n      pop\n        /* \"--CODEGEN--\":10762:10795   */\n      swap2\n      swap1\n      pop\n      jump\n        /* \"--CODEGEN--\":10803:10978   */\n    tag_135:\n      0x00\n        /* \"--CODEGEN--\":10930:10936   */\n      dup3\n        /* \"--CODEGEN--\":10925:10928   */\n      dup3\n        /* \"--CODEGEN--\":10918:10937   */\n      mstore\n        /* \"--CODEGEN--\":10967:10971   */\n      0x20\n        /* \"--CODEGEN--\":10962:10965   */\n      dup3\n        /* \"--CODEGEN--\":10958:10972   */\n      add\n        /* \"--CODEGEN--\":10943:10972   */\n      swap1\n      pop\n        /* \"--CODEGEN--\":10911:10978   */\n      swap3\n      swap2\n      pop\n      pop\n      jump\n        /* \"--CODEGEN--\":10987:11171   */\n    tag_149:\n      0x00\n        /* \"--CODEGEN--\":11123:11129   */\n      dup3\n        /* \"--CODEGEN--\":11118:11121   */\n      dup3\n        /* \"--CODEGEN--\":11111:11130   */\n      mstore\n        /* \"--CODEGEN--\":11160:11164   */\n      0x20\n        /* \"--CODEGEN--\":11155:11158   */\n      dup3\n        /* \"--CODEGEN--\":11151:11165   */\n      add\n        /* \"--CODEGEN--\":11136:11165   */\n      swap1\n      pop\n        /* \"--CODEGEN--\":11104:11171   */\n      swap3\n      swap2\n      pop\n      pop\n      jump\n        /* \"--CODEGEN--\":11180:11358   */\n    tag_163:\n      0x00\n        /* \"--CODEGEN--\":11310:11316   */\n      dup3\n        /* \"--CODEGEN--\":11305:11308   */\n      dup3\n        /* \"--CODEGEN--\":11298:11317   */\n      mstore\n        /* \"--CODEGEN--\":11347:11351   */\n      0x20\n        /* \"--CODEGEN--\":11342:11345   */\n      dup3\n        /* \"--CODEGEN--\":11338:11352   */\n      add\n        /* \"--CODEGEN--\":11323:11352   */\n      swap1\n      pop\n        /* \"--CODEGEN--\":11291:11358   */\n      swap3\n      swap2\n      pop\n      pop\n      jump\n        /* \"--CODEGEN--\":11367:11520   */\n    tag_182:\n      0x00\n        /* \"--CODEGEN--\":11472:11478   */\n      dup3\n        /* \"--CODEGEN--\":11467:11470   */\n      dup3\n        /* \"--CODEGEN--\":11460:11479   */\n      mstore\n        /* \"--CODEGEN--\":11509:11513   */\n      0x20\n        /* \"--CODEGEN--\":11504:11507   */\n      dup3\n        /* \"--CODEGEN--\":11500:11514   */\n      add\n        /* \"--CODEGEN--\":11485:11514   */\n      swap1\n      pop\n        /* \"--CODEGEN--\":11453:11520   */\n      swap3\n      swap2\n      pop\n      pop\n      jump\n        /* \"--CODEGEN--\":11529:11692   */\n    tag_191:\n      0x00\n        /* \"--CODEGEN--\":11644:11650   */\n      dup3\n        /* \"--CODEGEN--\":11639:11642   */\n      dup3\n        /* \"--CODEGEN--\":11632:11651   */\n      mstore\n        /* \"--CODEGEN--\":11681:11685   */\n      0x20\n        /* \"--CODEGEN--\":11676:11679   */\n      dup3\n        /* \"--CODEGEN--\":11672:11686   */\n      add\n        /* \"--CODEGEN--\":11657:11686   */\n      swap1\n      pop\n        /* \"--CODEGEN--\":11625:11692   */\n      swap3\n      swap2\n      pop\n      pop\n      jump\n        /* \"--CODEGEN--\":11700:11785   */\n    tag_174:\n      0x00\n        /* \"--CODEGEN--\":11773:11778   */\n      dup2\n        /* \"--CODEGEN--\":11766:11779   */\n      iszero\n        /* \"--CODEGEN--\":11759:11780   */\n      iszero\n        /* \"--CODEGEN--\":11748:11780   */\n      swap1\n      pop\n        /* \"--CODEGEN--\":11742:11785   */\n      swap2\n      swap1\n      pop\n      jump\n        /* \"--CODEGEN--\":11792:11864   */\n    tag_201:\n      0x00\n        /* \"--CODEGEN--\":11854:11859   */\n      dup2\n        /* \"--CODEGEN--\":11843:11859   */\n      swap1\n      pop\n        /* \"--CODEGEN--\":11837:11864   */\n      swap2\n      swap1\n      pop\n      jump\n        /* \"--CODEGEN--\":11872:12017   */\n    tag_98:\n        /* \"--CODEGEN--\":11953:11959   */\n      dup3\n        /* \"--CODEGEN--\":11948:11951   */\n      dup2\n        /* \"--CODEGEN--\":11943:11946   */\n      dup4\n        /* \"--CODEGEN--\":11930:11960   */\n      calldatacopy\n        /* \"--CODEGEN--\":12009:12010   */\n      0x00\n        /* \"--CODEGEN--\":12000:12006   */\n      dup4\n        /* \"--CODEGEN--\":11995:11998   */\n      dup4\n        /* \"--CODEGEN--\":11991:12007   */\n      add\n        /* \"--CODEGEN--\":11984:12011   */\n      mstore\n        /* \"--CODEGEN--\":11923:12017   */\n      pop\n      pop\n      pop\n      jump\n        /* \"--CODEGEN--\":12026:12294   */\n    tag_184:\n        /* \"--CODEGEN--\":12091:12092   */\n      0x00\n        /* \"--CODEGEN--\":12098:12199   */\n    tag_240:\n        /* \"--CODEGEN--\":12112:12118   */\n      dup4\n        /* \"--CODEGEN--\":12109:12110   */\n      dup2\n        /* \"--CODEGEN--\":12106:12119   */\n      lt\n        /* \"--CODEGEN--\":12098:12199   */\n      iszero\n      tag_242\n      jumpi\n        /* \"--CODEGEN--\":12188:12189   */\n      dup1\n        /* \"--CODEGEN--\":12183:12186   */\n      dup3\n        /* \"--CODEGEN--\":12179:12190   */\n      add\n        /* \"--CODEGEN--\":12173:12191   */\n      mload\n        /* \"--CODEGEN--\":12169:12170   */\n      dup2\n        /* \"--CODEGEN--\":12164:12167   */\n      dup5\n        /* \"--CODEGEN--\":12160:12171   */\n      add\n        /* \"--CODEGEN--\":12153:12192   */\n      mstore\n        /* \"--CODEGEN--\":12134:12136   */\n      0x20\n        /* \"--CODEGEN--\":12131:12132   */\n      dup2\n        /* \"--CODEGEN--\":12127:12137   */\n      add\n        /* \"--CODEGEN--\":12122:12137   */\n      swap1\n      pop\n        /* \"--CODEGEN--\":12098:12199   */\n      jump(tag_240)\n    tag_242:\n        /* \"--CODEGEN--\":12214:12220   */\n      dup4\n        /* \"--CODEGEN--\":12211:12212   */\n      dup2\n        /* \"--CODEGEN--\":12208:12221   */\n      gt\n        /* \"--CODEGEN--\":12205:12207   */\n      iszero\n      tag_243\n      jumpi\n        /* \"--CODEGEN--\":12279:12280   */\n      0x00\n        /* \"--CODEGEN--\":12270:12276   */\n      dup5\n        /* \"--CODEGEN--\":12265:12268   */\n      dup5\n        /* \"--CODEGEN--\":12261:12277   */\n      add\n        /* \"--CODEGEN--\":12254:12281   */\n      mstore\n        /* \"--CODEGEN--\":12205:12207   */\n    tag_243:\n        /* \"--CODEGEN--\":12075:12294   */\n      pop\n      pop\n      pop\n      pop\n      jump\n        /* \"--CODEGEN--\":12302:12399   */\n    tag_186:\n      0x00\n        /* \"--CODEGEN--\":12390:12392   */\n      0x1f\n        /* \"--CODEGEN--\":12386:12393   */\n      not\n        /* \"--CODEGEN--\":12381:12383   */\n      0x1f\n        /* \"--CODEGEN--\":12374:12379   */\n      dup4\n        /* \"--CODEGEN--\":12370:12384   */\n      add\n        /* \"--CODEGEN--\":12366:12394   */\n      and\n        /* \"--CODEGEN--\":12356:12394   */\n      swap1\n      pop\n        /* \"--CODEGEN--\":12350:12399   */\n      swap2\n      swap1\n      pop\n      jump\n        /* \"--CODEGEN--\":12407:12518   */\n    tag_88:\n        /* \"--CODEGEN--\":12473:12494   */\n      tag_246\n        /* \"--CODEGEN--\":12488:12493   */\n      dup2\n        /* \"--CODEGEN--\":12473:12494   */\n      jump(tag_174)\n    tag_246:\n        /* \"--CODEGEN--\":12466:12471   */\n      dup2\n        /* \"--CODEGEN--\":12463:12495   */\n      eq\n        /* \"--CODEGEN--\":12453:12455   */\n      tag_247\n      jumpi\n        /* \"--CODEGEN--\":12509:12510   */\n      0x00\n        /* \"--CODEGEN--\":12506:12507   */\n      dup1\n        /* \"--CODEGEN--\":12499:12511   */\n      revert\n        /* \"--CODEGEN--\":12453:12455   */\n    tag_247:\n        /* \"--CODEGEN--\":12447:12518   */\n      pop\n      jump\n        /* \"--CODEGEN--\":12525:12642   */\n    tag_102:\n        /* \"--CODEGEN--\":12594:12618   */\n      tag_249\n        /* \"--CODEGEN--\":12612:12617   */\n      dup2\n        /* \"--CODEGEN--\":12594:12618   */\n      jump(tag_201)\n    tag_249:\n        /* \"--CODEGEN--\":12587:12592   */\n      dup2\n        /* \"--CODEGEN--\":12584:12619   */\n      eq\n        /* \"--CODEGEN--\":12574:12576   */\n      tag_250\n      jumpi\n        /* \"--CODEGEN--\":12633:12634   */\n      0x00\n        /* \"--CODEGEN--\":12630:12631   */\n      dup1\n        /* \"--CODEGEN--\":12623:12635   */\n      revert\n        /* \"--CODEGEN--\":12574:12576   */\n    tag_250:\n        /* \"--CODEGEN--\":12568:12642   */\n      pop\n      jump\n\n    auxdata: 0xa2646970667358221220ced2e8ead2c0a2d3b3df9084fa25f0e33dfba51497eb95fcbcb78a09de3a7c9864736f6c63430006000033\n}\n",
				"bytecode": {
					"linkReferences": {},
					"object": "60806040523480156200001157600080fd5b506000600181905550620000626040518060400160405280600481526020017f566c61640000000000000000000000000000000000000000000000000000000081525060016200026060201b60201c565b620000aa6040518060400160405280600681526020017f4e6173747961000000000000000000000000000000000000000000000000000081525060006200026060201b60201c565b620000f26040518060400160405280600581526020017f566c61643100000000000000000000000000000000000000000000000000000081525060016200026060201b60201c565b6200013a6040518060400160405280600781526020017f4e6173747961320000000000000000000000000000000000000000000000000081525060006200026060201b60201c565b620001826040518060400160405280600581526020017f566c61643300000000000000000000000000000000000000000000000000000081525060016200026060201b60201c565b620001ca6040518060400160405280600781526020017f4e6173747961340000000000000000000000000000000000000000000000000081525060006200026060201b60201c565b620002126040518060400160405280600581526020017f566c61643500000000000000000000000000000000000000000000000000000081525060016200026060201b60201c565b6200025a6040518060400160405280600781526020017f4e6173747961360000000000000000000000000000000000000000000000000081525060006200026060201b60201c565b620003a4565b604051806060016040528060015481526020018381526020018215158152506000806001548152602001908152602001600020600082015181600001556020820151816001019080519060200190620002bb929190620002f5565b5060408201518160020160006101000a81548160ff0219169083151502179055509050506001600081548092919060010191905055505050565b828054600181600116156101000203166002900490600052602060002090601f016020900481019282601f106200033857805160ff191683800117855562000369565b8280016001018555821562000369579182015b82811115620003685782518255916020019190600101906200034b565b5b5090506200037891906200037c565b5090565b620003a191905b808211156200039d57600081600090555060010162000383565b5090565b90565b610dcd80620003b46000396000f3fe608060405234801561001057600080fd5b506004361061007d5760003560e01c806392c683891161005b57806392c68389146100f2578063ab7a20151461010e578063d3516b7e1461013e578063f97698f81461015a5761007d565b806311aee380146100825780635daf08ca146100a05780636f416d59146100d2575b600080fd5b61008a61018a565b6040516100979190610b76565b60405180910390f35b6100ba60048036036100b59190810190610830565b610190565b6040516100c993929190610b91565b60405180910390f35b6100da61025f565b6040516100e993929190610b08565b60405180910390f35b61010c600480360361010791908101906107dc565b610451565b005b610128600480360361012391908101906107b3565b6104e4565b6040516101359190610b76565b60405180910390f35b61015860048036036101539190810190610859565b610549565b005b610174600480360361016f9190810190610830565b61057a565b6040516101819190610b54565b60405180910390f35b60015481565b6000602052806000526040600020600091509050806000015490806001018054600181600116156101000203166002900480601f0160208091040260200160405190810160405280929190818152602001828054600181600116156101000203166002900480156102425780601f1061021757610100808354040283529160200191610242565b820191906000526020600020905b81548152906001019060200180831161022557829003601f168201915b5050505050908060020160009054906101000a900460ff16905083565b6060806060806001546040519080825280602002602001820160405280156102965781602001602082028038833980820191505090505b50905060606001546040519080825280602002602001820160405280156102d157816020015b60608152602001906001900390816102bc5790505b50905060606001546040519080825280602002602001820160405280156103075781602001602082028038833980820191505090505b50905060008090505b60015481101561043f5760008060008381526020019081526020016000209050806000015485838151811061034157fe5b602002602001018181525050806001018054600181600116156101000203166002900480601f0160208091040260200160405190810160405280929190818152602001828054600181600116156101000203166002900480156103e55780601f106103ba576101008083540402835291602001916103e5565b820191906000526020600020905b8154815290600101906020018083116103c857829003601f168201915b50505050508483815181106103f657fe5b60200260200101819052508060020160009054906101000a900460ff1683838151811061041f57fe5b602002602001019015159081151581525050508080600101915050610310565b50828282955095509550505050909192565b6040518060600160405280600154815260200183815260200182151581525060008060015481526020019081526020016000206000820151816000015560208201518160010190805190602001906104aa92919061066d565b5060408201518160020160006101000a81548160ff0219169083151502179055509050506001600081548092919060010191905055505050565b6000806000905060008090505b60015481101561053f5783151560008083815260200190815260200160002060020160009054906101000a900460ff16151514156105325781806001019250505b80806001019150506104f1565b5080915050919050565b8060008084815260200190815260200160002060020160006101000a81548160ff0219169083151502179055505050565b6105826106ed565b60008083815260200190815260200160002060405180606001604052908160008201548152602001600182018054600181600116156101000203166002900480601f0160208091040260200160405190810160405280929190818152602001828054600181600116156101000203166002900480156106425780601f1061061757610100808354040283529160200191610642565b820191906000526020600020905b81548152906001019060200180831161062557829003601f168201915b505050505081526020016002820160009054906101000a900460ff1615151515815250509050919050565b828054600181600116156101000203166002900490600052602060002090601f016020900481019282601f106106ae57805160ff19168380011785556106dc565b828001600101855582156106dc579182015b828111156106db5782518255916020019190600101906106c0565b5b5090506106e99190610710565b5090565b604051806060016040528060008152602001606081526020016000151581525090565b61073291905b8082111561072e576000816000905550600101610716565b5090565b90565b60008135905061074481610d69565b92915050565b600082601f83011261075b57600080fd5b813561076e61076982610bfc565b610bcf565b9150808252602083016020830185838301111561078a57600080fd5b610795838284610d16565b50505092915050565b6000813590506107ad81610d80565b92915050565b6000602082840312156107c557600080fd5b60006107d384828501610735565b91505092915050565b600080604083850312156107ef57600080fd5b600083013567ffffffffffffffff81111561080957600080fd5b6108158582860161074a565b925050602061082685828601610735565b9150509250929050565b60006020828403121561084257600080fd5b60006108508482850161079e565b91505092915050565b6000806040838503121561086c57600080fd5b600061087a8582860161079e565b925050602061088b85828601610735565b9150509250929050565b60006108a18383610a0a565b60208301905092915050565b60006108b98383610a28565b905092915050565b60006108cd8383610aea565b60208301905092915050565b60006108e482610c58565b6108ee8185610cab565b93506108f983610c28565b8060005b8381101561092a5781516109118882610895565b975061091c83610c84565b9250506001810190506108fd565b5085935050505092915050565b600061094282610c63565b61094c8185610cbc565b93508360208202850161095e85610c38565b8060005b8581101561099a578484038952815161097b85826108ad565b945061098683610c91565b925060208a01995050600181019050610962565b50829750879550505050505092915050565b60006109b782610c6e565b6109c18185610ccd565b93506109cc83610c48565b8060005b838110156109fd5781516109e488826108c1565b97506109ef83610c9e565b9250506001810190506109d0565b5085935050505092915050565b610a1381610d00565b82525050565b610a2281610d00565b82525050565b6000610a3382610c79565b610a3d8185610cde565b9350610a4d818560208601610d25565b610a5681610d58565b840191505092915050565b6000610a6c82610c79565b610a768185610cef565b9350610a86818560208601610d25565b610a8f81610d58565b840191505092915050565b6000606083016000830151610ab26000860182610aea565b5060208301518482036020860152610aca8282610a28565b9150506040830151610adf6040860182610a0a565b508091505092915050565b610af381610d0c565b82525050565b610b0281610d0c565b82525050565b60006060820190508181036000830152610b2281866109ac565b90508181036020830152610b368185610937565b90508181036040830152610b4a81846108d9565b9050949350505050565b60006020820190508181036000830152610b6e8184610a9a565b905092915050565b6000602082019050610b8b6000830184610af9565b92915050565b6000606082019050610ba66000830186610af9565b8181036020830152610bb88185610a61565b9050610bc76040830184610a19565b949350505050565b6000604051905081810181811067ffffffffffffffff82111715610bf257600080fd5b8060405250919050565b600067ffffffffffffffff821115610c1357600080fd5b601f19601f8301169050602081019050919050565b6000819050602082019050919050565b6000819050602082019050919050565b6000819050602082019050919050565b600081519050919050565b600081519050919050565b600081519050919050565b600081519050919050565b6000602082019050919050565b6000602082019050919050565b6000602082019050919050565b600082825260208201905092915050565b600082825260208201905092915050565b600082825260208201905092915050565b600082825260208201905092915050565b600082825260208201905092915050565b60008115159050919050565b6000819050919050565b82818337600083830152505050565b60005b83811015610d43578082015181840152602081019050610d28565b83811115610d52576000848401525b50505050565b6000601f19601f8301169050919050565b610d7281610d00565b8114610d7d57600080fd5b50565b610d8981610d0c565b8114610d9457600080fd5b5056fea2646970667358221220ced2e8ead2c0a2d3b3df9084fa25f0e33dfba51497eb95fcbcb78a09de3a7c9864736f6c63430006000033",
					"opcodes": "PUSH1 0x80 PUSH1 0x40 MSTORE CALLVALUE DUP1 ISZERO PUSH3 0x11 JUMPI PUSH1 0x0 DUP1 REVERT JUMPDEST POP PUSH1 0x0 PUSH1 0x1 DUP2 SWAP1 SSTORE POP PUSH3 0x62 PUSH1 0x40 MLOAD DUP1 PUSH1 0x40 ADD PUSH1 0x40 MSTORE DUP1 PUSH1 0x4 DUP2 MSTORE PUSH1 0x20 ADD PUSH32 0x566C616400000000000000000000000000000000000000000000000000000000 DUP2 MSTORE POP PUSH1 0x1 PUSH3 0x260 PUSH1 0x20 SHL PUSH1 0x20 SHR JUMP JUMPDEST PUSH3 0xAA PUSH1 0x40 MLOAD DUP1 PUSH1 0x40 ADD PUSH1 0x40 MSTORE DUP1 PUSH1 0x6 DUP2 MSTORE PUSH1 0x20 ADD PUSH32 0x4E61737479610000000000000000000000000000000000000000000000000000 DUP2 MSTORE POP PUSH1 0x0 PUSH3 0x260 PUSH1 0x20 SHL PUSH1 0x20 SHR JUMP JUMPDEST PUSH3 0xF2 PUSH1 0x40 MLOAD DUP1 PUSH1 0x40 ADD PUSH1 0x40 MSTORE DUP1 PUSH1 0x5 DUP2 MSTORE PUSH1 0x20 ADD PUSH32 0x566C616431000000000000000000000000000000000000000000000000000000 DUP2 MSTORE POP PUSH1 0x1 PUSH3 0x260 PUSH1 0x20 SHL PUSH1 0x20 SHR JUMP JUMPDEST PUSH3 0x13A PUSH1 0x40 MLOAD DUP1 PUSH1 0x40 ADD PUSH1 0x40 MSTORE DUP1 PUSH1 0x7 DUP2 MSTORE PUSH1 0x20 ADD PUSH32 0x4E61737479613200000000000000000000000000000000000000000000000000 DUP2 MSTORE POP PUSH1 0x0 PUSH3 0x260 PUSH1 0x20 SHL PUSH1 0x20 SHR JUMP JUMPDEST PUSH3 0x182 PUSH1 0x40 MLOAD DUP1 PUSH1 0x40 ADD PUSH1 0x40 MSTORE DUP1 PUSH1 0x5 DUP2 MSTORE PUSH1 0x20 ADD PUSH32 0x566C616433000000000000000000000000000000000000000000000000000000 DUP2 MSTORE POP PUSH1 0x1 PUSH3 0x260 PUSH1 0x20 SHL PUSH1 0x20 SHR JUMP JUMPDEST PUSH3 0x1CA PUSH1 0x40 MLOAD DUP1 PUSH1 0x40 ADD PUSH1 0x40 MSTORE DUP1 PUSH1 0x7 DUP2 MSTORE PUSH1 0x20 ADD PUSH32 0x4E61737479613400000000000000000000000000000000000000000000000000 DUP2 MSTORE POP PUSH1 0x0 PUSH3 0x260 PUSH1 0x20 SHL PUSH1 0x20 SHR JUMP JUMPDEST PUSH3 0x212 PUSH1 0x40 MLOAD DUP1 PUSH1 0x40 ADD PUSH1 0x40 MSTORE DUP1 PUSH1 0x5 DUP2 MSTORE PUSH1 0x20 ADD PUSH32 0x566C616435000000000000000000000000000000000000000000000000000000 DUP2 MSTORE POP PUSH1 0x1 PUSH3 0x260 PUSH1 0x20 SHL PUSH1 0x20 SHR JUMP JUMPDEST PUSH3 0x25A PUSH1 0x40 MLOAD DUP1 PUSH1 0x40 ADD PUSH1 0x40 MSTORE DUP1 PUSH1 0x7 DUP2 MSTORE PUSH1 0x20 ADD PUSH32 0x4E61737479613600000000000000000000000000000000000000000000000000 DUP2 MSTORE POP PUSH1 0x0 PUSH3 0x260 PUSH1 0x20 SHL PUSH1 0x20 SHR JUMP JUMPDEST PUSH3 0x3A4 JUMP JUMPDEST PUSH1 0x40 MLOAD DUP1 PUSH1 0x60 ADD PUSH1 0x40 MSTORE DUP1 PUSH1 0x1 SLOAD DUP2 MSTORE PUSH1 0x20 ADD DUP4 DUP2 MSTORE PUSH1 0x20 ADD DUP3 ISZERO ISZERO DUP2 MSTORE POP PUSH1 0x0 DUP1 PUSH1 0x1 SLOAD DUP2 MSTORE PUSH1 0x20 ADD SWAP1 DUP2 MSTORE PUSH1 0x20 ADD PUSH1 0x0 KECCAK256 PUSH1 0x0 DUP3 ADD MLOAD DUP2 PUSH1 0x0 ADD SSTORE PUSH1 0x20 DUP3 ADD MLOAD DUP2 PUSH1 0x1 ADD SWAP1 DUP1 MLOAD SWAP1 PUSH1 0x20 ADD SWAP1 PUSH3 0x2BB SWAP3 SWAP2 SWAP1 PUSH3 0x2F5 JUMP JUMPDEST POP PUSH1 0x40 DUP3 ADD MLOAD DUP2 PUSH1 0x2 ADD PUSH1 0x0 PUSH2 0x100 EXP DUP2 SLOAD DUP2 PUSH1 0xFF MUL NOT AND SWAP1 DUP4 ISZERO ISZERO MUL OR SWAP1 SSTORE POP SWAP1 POP POP PUSH1 0x1 PUSH1 0x0 DUP2 SLOAD DUP1 SWAP3 SWAP2 SWAP1 PUSH1 0x1 ADD SWAP2 SWAP1 POP SSTORE POP POP POP JUMP JUMPDEST DUP3 DUP1 SLOAD PUSH1 0x1 DUP2 PUSH1 0x1 AND ISZERO PUSH2 0x100 MUL SUB AND PUSH1 0x2 SWAP1 DIV SWAP1 PUSH1 0x0 MSTORE PUSH1 0x20 PUSH1 0x0 KECCAK256 SWAP1 PUSH1 0x1F ADD PUSH1 0x20 SWAP1 DIV DUP2 ADD SWAP3 DUP3 PUSH1 0x1F LT PUSH3 0x338 JUMPI DUP1 MLOAD PUSH1 0xFF NOT AND DUP4 DUP1 ADD OR DUP6 SSTORE PUSH3 0x369 JUMP JUMPDEST DUP3 DUP1 ADD PUSH1 0x1 ADD DUP6 SSTORE DUP3 ISZERO PUSH3 0x369 JUMPI SWAP2 DUP3 ADD JUMPDEST DUP3 DUP2 GT ISZERO PUSH3 0x368 JUMPI DUP3 MLOAD DUP3 SSTORE SWAP2 PUSH1 0x20 ADD SWAP2 SWAP1 PUSH1 0x1 ADD SWAP1 PUSH3 0x34B JUMP JUMPDEST JUMPDEST POP SWAP1 POP PUSH3 0x378 SWAP2 SWAP1 PUSH3 0x37C JUMP JUMPDEST POP SWAP1 JUMP JUMPDEST PUSH3 0x3A1 SWAP2 SWAP1 JUMPDEST DUP1 DUP3 GT ISZERO PUSH3 0x39D JUMPI PUSH1 0x0 DUP2 PUSH1 0x0 SWAP1 SSTORE POP PUSH1 0x1 ADD PUSH3 0x383 JUMP JUMPDEST POP SWAP1 JUMP JUMPDEST SWAP1 JUMP JUMPDEST PUSH2 0xDCD DUP1 PUSH3 0x3B4 PUSH1 0x0 CODECOPY PUSH1 0x0 RETURN INVALID PUSH1 0x80 PUSH1 0x40 MSTORE CALLVALUE DUP1 ISZERO PUSH2 0x10 JUMPI PUSH1 0x0 DUP1 REVERT JUMPDEST POP PUSH1 0x4 CALLDATASIZE LT PUSH2 0x7D JUMPI PUSH1 0x0 CALLDATALOAD PUSH1 0xE0 SHR DUP1 PUSH4 0x92C68389 GT PUSH2 0x5B JUMPI DUP1 PUSH4 0x92C68389 EQ PUSH2 0xF2 JUMPI DUP1 PUSH4 0xAB7A2015 EQ PUSH2 0x10E JUMPI DUP1 PUSH4 0xD3516B7E EQ PUSH2 0x13E JUMPI DUP1 PUSH4 0xF97698F8 EQ PUSH2 0x15A JUMPI PUSH2 0x7D JUMP JUMPDEST DUP1 PUSH4 0x11AEE380 EQ PUSH2 0x82 JUMPI DUP1 PUSH4 0x5DAF08CA EQ PUSH2 0xA0 JUMPI DUP1 PUSH4 0x6F416D59 EQ PUSH2 0xD2 JUMPI JUMPDEST PUSH1 0x0 DUP1 REVERT JUMPDEST PUSH2 0x8A PUSH2 0x18A JUMP JUMPDEST PUSH1 0x40 MLOAD PUSH2 0x97 SWAP2 SWAP1 PUSH2 0xB76 JUMP JUMPDEST PUSH1 0x40 MLOAD DUP1 SWAP2 SUB SWAP1 RETURN JUMPDEST PUSH2 0xBA PUSH1 0x4 DUP1 CALLDATASIZE SUB PUSH2 0xB5 SWAP2 SWAP1 DUP2 ADD SWAP1 PUSH2 0x830 JUMP JUMPDEST PUSH2 0x190 JUMP JUMPDEST PUSH1 0x40 MLOAD PUSH2 0xC9 SWAP4 SWAP3 SWAP2 SWAP1 PUSH2 0xB91 JUMP JUMPDEST PUSH1 0x40 MLOAD DUP1 SWAP2 SUB SWAP1 RETURN JUMPDEST PUSH2 0xDA PUSH2 0x25F JUMP JUMPDEST PUSH1 0x40 MLOAD PUSH2 0xE9 SWAP4 SWAP3 SWAP2 SWAP1 PUSH2 0xB08 JUMP JUMPDEST PUSH1 0x40 MLOAD DUP1 SWAP2 SUB SWAP1 RETURN JUMPDEST PUSH2 0x10C PUSH1 0x4 DUP1 CALLDATASIZE SUB PUSH2 0x107 SWAP2 SWAP1 DUP2 ADD SWAP1 PUSH2 0x7DC JUMP JUMPDEST PUSH2 0x451 JUMP JUMPDEST STOP JUMPDEST PUSH2 0x128 PUSH1 0x4 DUP1 CALLDATASIZE SUB PUSH2 0x123 SWAP2 SWAP1 DUP2 ADD SWAP1 PUSH2 0x7B3 JUMP JUMPDEST PUSH2 0x4E4 JUMP JUMPDEST PUSH1 0x40 MLOAD PUSH2 0x135 SWAP2 SWAP1 PUSH2 0xB76 JUMP JUMPDEST PUSH1 0x40 MLOAD DUP1 SWAP2 SUB SWAP1 RETURN JUMPDEST PUSH2 0x158 PUSH1 0x4 DUP1 CALLDATASIZE SUB PUSH2 0x153 SWAP2 SWAP1 DUP2 ADD SWAP1 PUSH2 0x859 JUMP JUMPDEST PUSH2 0x549 JUMP JUMPDEST STOP JUMPDEST PUSH2 0x174 PUSH1 0x4 DUP1 CALLDATASIZE SUB PUSH2 0x16F SWAP2 SWAP1 DUP2 ADD SWAP1 PUSH2 0x830 JUMP JUMPDEST PUSH2 0x57A JUMP JUMPDEST PUSH1 0x40 MLOAD PUSH2 0x181 SWAP2 SWAP1 PUSH2 0xB54 JUMP JUMPDEST PUSH1 0x40 MLOAD DUP1 SWAP2 SUB SWAP1 RETURN JUMPDEST PUSH1 0x1 SLOAD DUP2 JUMP JUMPDEST PUSH1 0x0 PUSH1 0x20 MSTORE DUP1 PUSH1 0x0 MSTORE PUSH1 0x40 PUSH1 0x0 KECCAK256 PUSH1 0x0 SWAP2 POP SWAP1 POP DUP1 PUSH1 0x0 ADD SLOAD SWAP1 DUP1 PUSH1 0x1 ADD DUP1 SLOAD PUSH1 0x1 DUP2 PUSH1 0x1 AND ISZERO PUSH2 0x100 MUL SUB AND PUSH1 0x2 SWAP1 DIV DUP1 PUSH1 0x1F ADD PUSH1 0x20 DUP1 SWAP2 DIV MUL PUSH1 0x20 ADD PUSH1 0x40 MLOAD SWAP1 DUP2 ADD PUSH1 0x40 MSTORE DUP1 SWAP3 SWAP2 SWAP1 DUP2 DUP2 MSTORE PUSH1 0x20 ADD DUP3 DUP1 SLOAD PUSH1 0x1 DUP2 PUSH1 0x1 AND ISZERO PUSH2 0x100 MUL SUB AND PUSH1 0x2 SWAP1 DIV DUP1 ISZERO PUSH2 0x242 JUMPI DUP1 PUSH1 0x1F LT PUSH2 0x217 JUMPI PUSH2 0x100 DUP1 DUP4 SLOAD DIV MUL DUP4 MSTORE SWAP2 PUSH1 0x20 ADD SWAP2 PUSH2 0x242 JUMP JUMPDEST DUP3 ADD SWAP2 SWAP1 PUSH1 0x0 MSTORE PUSH1 0x20 PUSH1 0x0 KECCAK256 SWAP1 JUMPDEST DUP2 SLOAD DUP2 MSTORE SWAP1 PUSH1 0x1 ADD SWAP1 PUSH1 0x20 ADD DUP1 DUP4 GT PUSH2 0x225 JUMPI DUP3 SWAP1 SUB PUSH1 0x1F AND DUP3 ADD SWAP2 JUMPDEST POP POP POP POP POP SWAP1 DUP1 PUSH1 0x2 ADD PUSH1 0x0 SWAP1 SLOAD SWAP1 PUSH2 0x100 EXP SWAP1 DIV PUSH1 0xFF AND SWAP1 POP DUP4 JUMP JUMPDEST PUSH1 0x60 DUP1 PUSH1 0x60 DUP1 PUSH1 0x1 SLOAD PUSH1 0x40 MLOAD SWAP1 DUP1 DUP3 MSTORE DUP1 PUSH1 0x20 MUL PUSH1 0x20 ADD DUP3 ADD PUSH1 0x40 MSTORE DUP1 ISZERO PUSH2 0x296 JUMPI DUP2 PUSH1 0x20 ADD PUSH1 0x20 DUP3 MUL DUP1 CODESIZE DUP4 CODECOPY DUP1 DUP3 ADD SWAP2 POP POP SWAP1 POP JUMPDEST POP SWAP1 POP PUSH1 0x60 PUSH1 0x1 SLOAD PUSH1 0x40 MLOAD SWAP1 DUP1 DUP3 MSTORE DUP1 PUSH1 0x20 MUL PUSH1 0x20 ADD DUP3 ADD PUSH1 0x40 MSTORE DUP1 ISZERO PUSH2 0x2D1 JUMPI DUP2 PUSH1 0x20 ADD JUMPDEST PUSH1 0x60 DUP2 MSTORE PUSH1 0x20 ADD SWAP1 PUSH1 0x1 SWAP1 SUB SWAP1 DUP2 PUSH2 0x2BC JUMPI SWAP1 POP JUMPDEST POP SWAP1 POP PUSH1 0x60 PUSH1 0x1 SLOAD PUSH1 0x40 MLOAD SWAP1 DUP1 DUP3 MSTORE DUP1 PUSH1 0x20 MUL PUSH1 0x20 ADD DUP3 ADD PUSH1 0x40 MSTORE DUP1 ISZERO PUSH2 0x307 JUMPI DUP2 PUSH1 0x20 ADD PUSH1 0x20 DUP3 MUL DUP1 CODESIZE DUP4 CODECOPY DUP1 DUP3 ADD SWAP2 POP POP SWAP1 POP JUMPDEST POP SWAP1 POP PUSH1 0x0 DUP1 SWAP1 POP JUMPDEST PUSH1 0x1 SLOAD DUP2 LT ISZERO PUSH2 0x43F JUMPI PUSH1 0x0 DUP1 PUSH1 0x0 DUP4 DUP2 MSTORE PUSH1 0x20 ADD SWAP1 DUP2 MSTORE PUSH1 0x20 ADD PUSH1 0x0 KECCAK256 SWAP1 POP DUP1 PUSH1 0x0 ADD SLOAD DUP6 DUP4 DUP2 MLOAD DUP2 LT PUSH2 0x341 JUMPI INVALID JUMPDEST PUSH1 0x20 MUL PUSH1 0x20 ADD ADD DUP2 DUP2 MSTORE POP POP DUP1 PUSH1 0x1 ADD DUP1 SLOAD PUSH1 0x1 DUP2 PUSH1 0x1 AND ISZERO PUSH2 0x100 MUL SUB AND PUSH1 0x2 SWAP1 DIV DUP1 PUSH1 0x1F ADD PUSH1 0x20 DUP1 SWAP2 DIV MUL PUSH1 0x20 ADD PUSH1 0x40 MLOAD SWAP1 DUP2 ADD PUSH1 0x40 MSTORE DUP1 SWAP3 SWAP2 SWAP1 DUP2 DUP2 MSTORE PUSH1 0x20 ADD DUP3 DUP1 SLOAD PUSH1 0x1 DUP2 PUSH1 0x1 AND ISZERO PUSH2 0x100 MUL SUB AND PUSH1 0x2 SWAP1 DIV DUP1 ISZERO PUSH2 0x3E5 JUMPI DUP1 PUSH1 0x1F LT PUSH2 0x3BA JUMPI PUSH2 0x100 DUP1 DUP4 SLOAD DIV MUL DUP4 MSTORE SWAP2 PUSH1 0x20 ADD SWAP2 PUSH2 0x3E5 JUMP JUMPDEST DUP3 ADD SWAP2 SWAP1 PUSH1 0x0 MSTORE PUSH1 0x20 PUSH1 0x0 KECCAK256 SWAP1 JUMPDEST DUP2 SLOAD DUP2 MSTORE SWAP1 PUSH1 0x1 ADD SWAP1 PUSH1 0x20 ADD DUP1 DUP4 GT PUSH2 0x3C8 JUMPI DUP3 SWAP1 SUB PUSH1 0x1F AND DUP3 ADD SWAP2 JUMPDEST POP POP POP POP POP DUP5 DUP4 DUP2 MLOAD DUP2 LT PUSH2 0x3F6 JUMPI INVALID JUMPDEST PUSH1 0x20 MUL PUSH1 0x20 ADD ADD DUP2 SWAP1 MSTORE POP DUP1 PUSH1 0x2 ADD PUSH1 0x0 SWAP1 SLOAD SWAP1 PUSH2 0x100 EXP SWAP1 DIV PUSH1 0xFF AND DUP4 DUP4 DUP2 MLOAD DUP2 LT PUSH2 0x41F JUMPI INVALID JUMPDEST PUSH1 0x20 MUL PUSH1 0x20 ADD ADD SWAP1 ISZERO ISZERO SWAP1 DUP2 ISZERO ISZERO DUP2 MSTORE POP POP POP DUP1 DUP1 PUSH1 0x1 ADD SWAP2 POP POP PUSH2 0x310 JUMP JUMPDEST POP DUP3 DUP3 DUP3 SWAP6 POP SWAP6 POP SWAP6 POP POP POP POP SWAP1 SWAP2 SWAP3 JUMP JUMPDEST PUSH1 0x40 MLOAD DUP1 PUSH1 0x60 ADD PUSH1 0x40 MSTORE DUP1 PUSH1 0x1 SLOAD DUP2 MSTORE PUSH1 0x20 ADD DUP4 DUP2 MSTORE PUSH1 0x20 ADD DUP3 ISZERO ISZERO DUP2 MSTORE POP PUSH1 0x0 DUP1 PUSH1 0x1 SLOAD DUP2 MSTORE PUSH1 0x20 ADD SWAP1 DUP2 MSTORE PUSH1 0x20 ADD PUSH1 0x0 KECCAK256 PUSH1 0x0 DUP3 ADD MLOAD DUP2 PUSH1 0x0 ADD SSTORE PUSH1 0x20 DUP3 ADD MLOAD DUP2 PUSH1 0x1 ADD SWAP1 DUP1 MLOAD SWAP1 PUSH1 0x20 ADD SWAP1 PUSH2 0x4AA SWAP3 SWAP2 SWAP1 PUSH2 0x66D JUMP JUMPDEST POP PUSH1 0x40 DUP3 ADD MLOAD DUP2 PUSH1 0x2 ADD PUSH1 0x0 PUSH2 0x100 EXP DUP2 SLOAD DUP2 PUSH1 0xFF MUL NOT AND SWAP1 DUP4 ISZERO ISZERO MUL OR SWAP1 SSTORE POP SWAP1 POP POP PUSH1 0x1 PUSH1 0x0 DUP2 SLOAD DUP1 SWAP3 SWAP2 SWAP1 PUSH1 0x1 ADD SWAP2 SWAP1 POP SSTORE POP POP POP JUMP JUMPDEST PUSH1 0x0 DUP1 PUSH1 0x0 SWAP1 POP PUSH1 0x0 DUP1 SWAP1 POP JUMPDEST PUSH1 0x1 SLOAD DUP2 LT ISZERO PUSH2 0x53F JUMPI DUP4 ISZERO ISZERO PUSH1 0x0 DUP1 DUP4 DUP2 MSTORE PUSH1 0x20 ADD SWAP1 DUP2 MSTORE PUSH1 0x20 ADD PUSH1 0x0 KECCAK256 PUSH1 0x2 ADD PUSH1 0x0 SWAP1 SLOAD SWAP1 PUSH2 0x100 EXP SWAP1 DIV PUSH1 0xFF AND ISZERO ISZERO EQ ISZERO PUSH2 0x532 JUMPI DUP2 DUP1 PUSH1 0x1 ADD SWAP3 POP POP JUMPDEST DUP1 DUP1 PUSH1 0x1 ADD SWAP2 POP POP PUSH2 0x4F1 JUMP JUMPDEST POP DUP1 SWAP2 POP POP SWAP2 SWAP1 POP JUMP JUMPDEST DUP1 PUSH1 0x0 DUP1 DUP5 DUP2 MSTORE PUSH1 0x20 ADD SWAP1 DUP2 MSTORE PUSH1 0x20 ADD PUSH1 0x0 KECCAK256 PUSH1 0x2 ADD PUSH1 0x0 PUSH2 0x100 EXP DUP2 SLOAD DUP2 PUSH1 0xFF MUL NOT AND SWAP1 DUP4 ISZERO ISZERO MUL OR SWAP1 SSTORE POP POP POP JUMP JUMPDEST PUSH2 0x582 PUSH2 0x6ED JUMP JUMPDEST PUSH1 0x0 DUP1 DUP4 DUP2 MSTORE PUSH1 0x20 ADD SWAP1 DUP2 MSTORE PUSH1 0x20 ADD PUSH1 0x0 KECCAK256 PUSH1 0x40 MLOAD DUP1 PUSH1 0x60 ADD PUSH1 0x40 MSTORE SWAP1 DUP2 PUSH1 0x0 DUP3 ADD SLOAD DUP2 MSTORE PUSH1 0x20 ADD PUSH1 0x1 DUP3 ADD DUP1 SLOAD PUSH1 0x1 DUP2 PUSH1 0x1 AND ISZERO PUSH2 0x100 MUL SUB AND PUSH1 0x2 SWAP1 DIV DUP1 PUSH1 0x1F ADD PUSH1 0x20 DUP1 SWAP2 DIV MUL PUSH1 0x20 ADD PUSH1 0x40 MLOAD SWAP1 DUP2 ADD PUSH1 0x40 MSTORE DUP1 SWAP3 SWAP2 SWAP1 DUP2 DUP2 MSTORE PUSH1 0x20 ADD DUP3 DUP1 SLOAD PUSH1 0x1 DUP2 PUSH1 0x1 AND ISZERO PUSH2 0x100 MUL SUB AND PUSH1 0x2 SWAP1 DIV DUP1 ISZERO PUSH2 0x642 JUMPI DUP1 PUSH1 0x1F LT PUSH2 0x617 JUMPI PUSH2 0x100 DUP1 DUP4 SLOAD DIV MUL DUP4 MSTORE SWAP2 PUSH1 0x20 ADD SWAP2 PUSH2 0x642 JUMP JUMPDEST DUP3 ADD SWAP2 SWAP1 PUSH1 0x0 MSTORE PUSH1 0x20 PUSH1 0x0 KECCAK256 SWAP1 JUMPDEST DUP2 SLOAD DUP2 MSTORE SWAP1 PUSH1 0x1 ADD SWAP1 PUSH1 0x20 ADD DUP1 DUP4 GT PUSH2 0x625 JUMPI DUP3 SWAP1 SUB PUSH1 0x1F AND DUP3 ADD SWAP2 JUMPDEST POP POP POP POP POP DUP2 MSTORE PUSH1 0x20 ADD PUSH1 0x2 DUP3 ADD PUSH1 0x0 SWAP1 SLOAD SWAP1 PUSH2 0x100 EXP SWAP1 DIV PUSH1 0xFF AND ISZERO ISZERO ISZERO ISZERO DUP2 MSTORE POP POP SWAP1 POP SWAP2 SWAP1 POP JUMP JUMPDEST DUP3 DUP1 SLOAD PUSH1 0x1 DUP2 PUSH1 0x1 AND ISZERO PUSH2 0x100 MUL SUB AND PUSH1 0x2 SWAP1 DIV SWAP1 PUSH1 0x0 MSTORE PUSH1 0x20 PUSH1 0x0 KECCAK256 SWAP1 PUSH1 0x1F ADD PUSH1 0x20 SWAP1 DIV DUP2 ADD SWAP3 DUP3 PUSH1 0x1F LT PUSH2 0x6AE JUMPI DUP1 MLOAD PUSH1 0xFF NOT AND DUP4 DUP1 ADD OR DUP6 SSTORE PUSH2 0x6DC JUMP JUMPDEST DUP3 DUP1 ADD PUSH1 0x1 ADD DUP6 SSTORE DUP3 ISZERO PUSH2 0x6DC JUMPI SWAP2 DUP3 ADD JUMPDEST DUP3 DUP2 GT ISZERO PUSH2 0x6DB JUMPI DUP3 MLOAD DUP3 SSTORE SWAP2 PUSH1 0x20 ADD SWAP2 SWAP1 PUSH1 0x1 ADD SWAP1 PUSH2 0x6C0 JUMP JUMPDEST JUMPDEST POP SWAP1 POP PUSH2 0x6E9 SWAP2 SWAP1 PUSH2 0x710 JUMP JUMPDEST POP SWAP1 JUMP JUMPDEST PUSH1 0x40 MLOAD DUP1 PUSH1 0x60 ADD PUSH1 0x40 MSTORE DUP1 PUSH1 0x0 DUP2 MSTORE PUSH1 0x20 ADD PUSH1 0x60 DUP2 MSTORE PUSH1 0x20 ADD PUSH1 0x0 ISZERO ISZERO DUP2 MSTORE POP SWAP1 JUMP JUMPDEST PUSH2 0x732 SWAP2 SWAP1 JUMPDEST DUP1 DUP3 GT ISZERO PUSH2 0x72E JUMPI PUSH1 0x0 DUP2 PUSH1 0x0 SWAP1 SSTORE POP PUSH1 0x1 ADD PUSH2 0x716 JUMP JUMPDEST POP SWAP1 JUMP JUMPDEST SWAP1 JUMP JUMPDEST PUSH1 0x0 DUP2 CALLDATALOAD SWAP1 POP PUSH2 0x744 DUP2 PUSH2 0xD69 JUMP JUMPDEST SWAP3 SWAP2 POP POP JUMP JUMPDEST PUSH1 0x0 DUP3 PUSH1 0x1F DUP4 ADD SLT PUSH2 0x75B JUMPI PUSH1 0x0 DUP1 REVERT JUMPDEST DUP2 CALLDATALOAD PUSH2 0x76E PUSH2 0x769 DUP3 PUSH2 0xBFC JUMP JUMPDEST PUSH2 0xBCF JUMP JUMPDEST SWAP2 POP DUP1 DUP3 MSTORE PUSH1 0x20 DUP4 ADD PUSH1 0x20 DUP4 ADD DUP6 DUP4 DUP4 ADD GT ISZERO PUSH2 0x78A JUMPI PUSH1 0x0 DUP1 REVERT JUMPDEST PUSH2 0x795 DUP4 DUP3 DUP5 PUSH2 0xD16 JUMP JUMPDEST POP POP POP SWAP3 SWAP2 POP POP JUMP JUMPDEST PUSH1 0x0 DUP2 CALLDATALOAD SWAP1 POP PUSH2 0x7AD DUP2 PUSH2 0xD80 JUMP JUMPDEST SWAP3 SWAP2 POP POP JUMP JUMPDEST PUSH1 0x0 PUSH1 0x20 DUP3 DUP5 SUB SLT ISZERO PUSH2 0x7C5 JUMPI PUSH1 0x0 DUP1 REVERT JUMPDEST PUSH1 0x0 PUSH2 0x7D3 DUP5 DUP3 DUP6 ADD PUSH2 0x735 JUMP JUMPDEST SWAP2 POP POP SWAP3 SWAP2 POP POP JUMP JUMPDEST PUSH1 0x0 DUP1 PUSH1 0x40 DUP4 DUP6 SUB SLT ISZERO PUSH2 0x7EF JUMPI PUSH1 0x0 DUP1 REVERT JUMPDEST PUSH1 0x0 DUP4 ADD CALLDATALOAD PUSH8 0xFFFFFFFFFFFFFFFF DUP2 GT ISZERO PUSH2 0x809 JUMPI PUSH1 0x0 DUP1 REVERT JUMPDEST PUSH2 0x815 DUP6 DUP3 DUP7 ADD PUSH2 0x74A JUMP JUMPDEST SWAP3 POP POP PUSH1 0x20 PUSH2 0x826 DUP6 DUP3 DUP7 ADD PUSH2 0x735 JUMP JUMPDEST SWAP2 POP POP SWAP3 POP SWAP3 SWAP1 POP JUMP JUMPDEST PUSH1 0x0 PUSH1 0x20 DUP3 DUP5 SUB SLT ISZERO PUSH2 0x842 JUMPI PUSH1 0x0 DUP1 REVERT JUMPDEST PUSH1 0x0 PUSH2 0x850 DUP5 DUP3 DUP6 ADD PUSH2 0x79E JUMP JUMPDEST SWAP2 POP POP SWAP3 SWAP2 POP POP JUMP JUMPDEST PUSH1 0x0 DUP1 PUSH1 0x40 DUP4 DUP6 SUB SLT ISZERO PUSH2 0x86C JUMPI PUSH1 0x0 DUP1 REVERT JUMPDEST PUSH1 0x0 PUSH2 0x87A DUP6 DUP3 DUP7 ADD PUSH2 0x79E JUMP JUMPDEST SWAP3 POP POP PUSH1 0x20 PUSH2 0x88B DUP6 DUP3 DUP7 ADD PUSH2 0x735 JUMP JUMPDEST SWAP2 POP POP SWAP3 POP SWAP3 SWAP1 POP JUMP JUMPDEST PUSH1 0x0 PUSH2 0x8A1 DUP4 DUP4 PUSH2 0xA0A JUMP JUMPDEST PUSH1 0x20 DUP4 ADD SWAP1 POP SWAP3 SWAP2 POP POP JUMP JUMPDEST PUSH1 0x0 PUSH2 0x8B9 DUP4 DUP4 PUSH2 0xA28 JUMP JUMPDEST SWAP1 POP SWAP3 SWAP2 POP POP JUMP JUMPDEST PUSH1 0x0 PUSH2 0x8CD DUP4 DUP4 PUSH2 0xAEA JUMP JUMPDEST PUSH1 0x20 DUP4 ADD SWAP1 POP SWAP3 SWAP2 POP POP JUMP JUMPDEST PUSH1 0x0 PUSH2 0x8E4 DUP3 PUSH2 0xC58 JUMP JUMPDEST PUSH2 0x8EE DUP2 DUP6 PUSH2 0xCAB JUMP JUMPDEST SWAP4 POP PUSH2 0x8F9 DUP4 PUSH2 0xC28 JUMP JUMPDEST DUP1 PUSH1 0x0 JUMPDEST DUP4 DUP2 LT ISZERO PUSH2 0x92A JUMPI DUP2 MLOAD PUSH2 0x911 DUP9 DUP3 PUSH2 0x895 JUMP JUMPDEST SWAP8 POP PUSH2 0x91C DUP4 PUSH2 0xC84 JUMP JUMPDEST SWAP3 POP POP PUSH1 0x1 DUP2 ADD SWAP1 POP PUSH2 0x8FD JUMP JUMPDEST POP DUP6 SWAP4 POP POP POP POP SWAP3 SWAP2 POP POP JUMP JUMPDEST PUSH1 0x0 PUSH2 0x942 DUP3 PUSH2 0xC63 JUMP JUMPDEST PUSH2 0x94C DUP2 DUP6 PUSH2 0xCBC JUMP JUMPDEST SWAP4 POP DUP4 PUSH1 0x20 DUP3 MUL DUP6 ADD PUSH2 0x95E DUP6 PUSH2 0xC38 JUMP JUMPDEST DUP1 PUSH1 0x0 JUMPDEST DUP6 DUP2 LT ISZERO PUSH2 0x99A JUMPI DUP5 DUP5 SUB DUP10 MSTORE DUP2 MLOAD PUSH2 0x97B DUP6 DUP3 PUSH2 0x8AD JUMP JUMPDEST SWAP5 POP PUSH2 0x986 DUP4 PUSH2 0xC91 JUMP JUMPDEST SWAP3 POP PUSH1 0x20 DUP11 ADD SWAP10 POP POP PUSH1 0x1 DUP2 ADD SWAP1 POP PUSH2 0x962 JUMP JUMPDEST POP DUP3 SWAP8 POP DUP8 SWAP6 POP POP POP POP POP POP SWAP3 SWAP2 POP POP JUMP JUMPDEST PUSH1 0x0 PUSH2 0x9B7 DUP3 PUSH2 0xC6E JUMP JUMPDEST PUSH2 0x9C1 DUP2 DUP6 PUSH2 0xCCD JUMP JUMPDEST SWAP4 POP PUSH2 0x9CC DUP4 PUSH2 0xC48 JUMP JUMPDEST DUP1 PUSH1 0x0 JUMPDEST DUP4 DUP2 LT ISZERO PUSH2 0x9FD JUMPI DUP2 MLOAD PUSH2 0x9E4 DUP9 DUP3 PUSH2 0x8C1 JUMP JUMPDEST SWAP8 POP PUSH2 0x9EF DUP4 PUSH2 0xC9E JUMP JUMPDEST SWAP3 POP POP PUSH1 0x1 DUP2 ADD SWAP1 POP PUSH2 0x9D0 JUMP JUMPDEST POP DUP6 SWAP4 POP POP POP POP SWAP3 SWAP2 POP POP JUMP JUMPDEST PUSH2 0xA13 DUP2 PUSH2 0xD00 JUMP JUMPDEST DUP3 MSTORE POP POP JUMP JUMPDEST PUSH2 0xA22 DUP2 PUSH2 0xD00 JUMP JUMPDEST DUP3 MSTORE POP POP JUMP JUMPDEST PUSH1 0x0 PUSH2 0xA33 DUP3 PUSH2 0xC79 JUMP JUMPDEST PUSH2 0xA3D DUP2 DUP6 PUSH2 0xCDE JUMP JUMPDEST SWAP4 POP PUSH2 0xA4D DUP2 DUP6 PUSH1 0x20 DUP7 ADD PUSH2 0xD25 JUMP JUMPDEST PUSH2 0xA56 DUP2 PUSH2 0xD58 JUMP JUMPDEST DUP5 ADD SWAP2 POP POP SWAP3 SWAP2 POP POP JUMP JUMPDEST PUSH1 0x0 PUSH2 0xA6C DUP3 PUSH2 0xC79 JUMP JUMPDEST PUSH2 0xA76 DUP2 DUP6 PUSH2 0xCEF JUMP JUMPDEST SWAP4 POP PUSH2 0xA86 DUP2 DUP6 PUSH1 0x20 DUP7 ADD PUSH2 0xD25 JUMP JUMPDEST PUSH2 0xA8F DUP2 PUSH2 0xD58 JUMP JUMPDEST DUP5 ADD SWAP2 POP POP SWAP3 SWAP2 POP POP JUMP JUMPDEST PUSH1 0x0 PUSH1 0x60 DUP4 ADD PUSH1 0x0 DUP4 ADD MLOAD PUSH2 0xAB2 PUSH1 0x0 DUP7 ADD DUP3 PUSH2 0xAEA JUMP JUMPDEST POP PUSH1 0x20 DUP4 ADD MLOAD DUP5 DUP3 SUB PUSH1 0x20 DUP7 ADD MSTORE PUSH2 0xACA DUP3 DUP3 PUSH2 0xA28 JUMP JUMPDEST SWAP2 POP POP PUSH1 0x40 DUP4 ADD MLOAD PUSH2 0xADF PUSH1 0x40 DUP7 ADD DUP3 PUSH2 0xA0A JUMP JUMPDEST POP DUP1 SWAP2 POP POP SWAP3 SWAP2 POP POP JUMP JUMPDEST PUSH2 0xAF3 DUP2 PUSH2 0xD0C JUMP JUMPDEST DUP3 MSTORE POP POP JUMP JUMPDEST PUSH2 0xB02 DUP2 PUSH2 0xD0C JUMP JUMPDEST DUP3 MSTORE POP POP JUMP JUMPDEST PUSH1 0x0 PUSH1 0x60 DUP3 ADD SWAP1 POP DUP2 DUP2 SUB PUSH1 0x0 DUP4 ADD MSTORE PUSH2 0xB22 DUP2 DUP7 PUSH2 0x9AC JUMP JUMPDEST SWAP1 POP DUP2 DUP2 SUB PUSH1 0x20 DUP4 ADD MSTORE PUSH2 0xB36 DUP2 DUP6 PUSH2 0x937 JUMP JUMPDEST SWAP1 POP DUP2 DUP2 SUB PUSH1 0x40 DUP4 ADD MSTORE PUSH2 0xB4A DUP2 DUP5 PUSH2 0x8D9 JUMP JUMPDEST SWAP1 POP SWAP5 SWAP4 POP POP POP POP JUMP JUMPDEST PUSH1 0x0 PUSH1 0x20 DUP3 ADD SWAP1 POP DUP2 DUP2 SUB PUSH1 0x0 DUP4 ADD MSTORE PUSH2 0xB6E DUP2 DUP5 PUSH2 0xA9A JUMP JUMPDEST SWAP1 POP SWAP3 SWAP2 POP POP JUMP JUMPDEST PUSH1 0x0 PUSH1 0x20 DUP3 ADD SWAP1 POP PUSH2 0xB8B PUSH1 0x0 DUP4 ADD DUP5 PUSH2 0xAF9 JUMP JUMPDEST SWAP3 SWAP2 POP POP JUMP JUMPDEST PUSH1 0x0 PUSH1 0x60 DUP3 ADD SWAP1 POP PUSH2 0xBA6 PUSH1 0x0 DUP4 ADD DUP7 PUSH2 0xAF9 JUMP JUMPDEST DUP2 DUP2 SUB PUSH1 0x20 DUP4 ADD MSTORE PUSH2 0xBB8 DUP2 DUP6 PUSH2 0xA61 JUMP JUMPDEST SWAP1 POP PUSH2 0xBC7 PUSH1 0x40 DUP4 ADD DUP5 PUSH2 0xA19 JUMP JUMPDEST SWAP5 SWAP4 POP POP POP POP JUMP JUMPDEST PUSH1 0x0 PUSH1 0x40 MLOAD SWAP1 POP DUP2 DUP2 ADD DUP2 DUP2 LT PUSH8 0xFFFFFFFFFFFFFFFF DUP3 GT OR ISZERO PUSH2 0xBF2 JUMPI PUSH1 0x0 DUP1 REVERT JUMPDEST DUP1 PUSH1 0x40 MSTORE POP SWAP2 SWAP1 POP JUMP JUMPDEST PUSH1 0x0 PUSH8 0xFFFFFFFFFFFFFFFF DUP3 GT ISZERO PUSH2 0xC13 JUMPI PUSH1 0x0 DUP1 REVERT JUMPDEST PUSH1 0x1F NOT PUSH1 0x1F DUP4 ADD AND SWAP1 POP PUSH1 0x20 DUP2 ADD SWAP1 POP SWAP2 SWAP1 POP JUMP JUMPDEST PUSH1 0x0 DUP2 SWAP1 POP PUSH1 0x20 DUP3 ADD SWAP1 POP SWAP2 SWAP1 POP JUMP JUMPDEST PUSH1 0x0 DUP2 SWAP1 POP PUSH1 0x20 DUP3 ADD SWAP1 POP SWAP2 SWAP1 POP JUMP JUMPDEST PUSH1 0x0 DUP2 SWAP1 POP PUSH1 0x20 DUP3 ADD SWAP1 POP SWAP2 SWAP1 POP JUMP JUMPDEST PUSH1 0x0 DUP2 MLOAD SWAP1 POP SWAP2 SWAP1 POP JUMP JUMPDEST PUSH1 0x0 DUP2 MLOAD SWAP1 POP SWAP2 SWAP1 POP JUMP JUMPDEST PUSH1 0x0 DUP2 MLOAD SWAP1 POP SWAP2 SWAP1 POP JUMP JUMPDEST PUSH1 0x0 DUP2 MLOAD SWAP1 POP SWAP2 SWAP1 POP JUMP JUMPDEST PUSH1 0x0 PUSH1 0x20 DUP3 ADD SWAP1 POP SWAP2 SWAP1 POP JUMP JUMPDEST PUSH1 0x0 PUSH1 0x20 DUP3 ADD SWAP1 POP SWAP2 SWAP1 POP JUMP JUMPDEST PUSH1 0x0 PUSH1 0x20 DUP3 ADD SWAP1 POP SWAP2 SWAP1 POP JUMP JUMPDEST PUSH1 0x0 DUP3 DUP3 MSTORE PUSH1 0x20 DUP3 ADD SWAP1 POP SWAP3 SWAP2 POP POP JUMP JUMPDEST PUSH1 0x0 DUP3 DUP3 MSTORE PUSH1 0x20 DUP3 ADD SWAP1 POP SWAP3 SWAP2 POP POP JUMP JUMPDEST PUSH1 0x0 DUP3 DUP3 MSTORE PUSH1 0x20 DUP3 ADD SWAP1 POP SWAP3 SWAP2 POP POP JUMP JUMPDEST PUSH1 0x0 DUP3 DUP3 MSTORE PUSH1 0x20 DUP3 ADD SWAP1 POP SWAP3 SWAP2 POP POP JUMP JUMPDEST PUSH1 0x0 DUP3 DUP3 MSTORE PUSH1 0x20 DUP3 ADD SWAP1 POP SWAP3 SWAP2 POP POP JUMP JUMPDEST PUSH1 0x0 DUP2 ISZERO ISZERO SWAP1 POP SWAP2 SWAP1 POP JUMP JUMPDEST PUSH1 0x0 DUP2 SWAP1 POP SWAP2 SWAP1 POP JUMP JUMPDEST DUP3 DUP2 DUP4 CALLDATACOPY PUSH1 0x0 DUP4 DUP4 ADD MSTORE POP POP POP JUMP JUMPDEST PUSH1 0x0 JUMPDEST DUP4 DUP2 LT ISZERO PUSH2 0xD43 JUMPI DUP1 DUP3 ADD MLOAD DUP2 DUP5 ADD MSTORE PUSH1 0x20 DUP2 ADD SWAP1 POP PUSH2 0xD28 JUMP JUMPDEST DUP4 DUP2 GT ISZERO PUSH2 0xD52 JUMPI PUSH1 0x0 DUP5 DUP5 ADD MSTORE JUMPDEST POP POP POP POP JUMP JUMPDEST PUSH1 0x0 PUSH1 0x1F NOT PUSH1 0x1F DUP4 ADD AND SWAP1 POP SWAP2 SWAP1 POP JUMP JUMPDEST PUSH2 0xD72 DUP2 PUSH2 0xD00 JUMP JUMPDEST DUP2 EQ PUSH2 0xD7D JUMPI PUSH1 0x0 DUP1 REVERT JUMPDEST POP JUMP JUMPDEST PUSH2 0xD89 DUP2 PUSH2 0xD0C JUMP JUMPDEST DUP2 EQ PUSH2 0xD94 JUMPI PUSH1 0x0 DUP1 REVERT JUMPDEST POP JUMP INVALID LOG2 PUSH5 0x6970667358 0x22 SLT KECCAK256 0xCE 0xD2 0xE8 0xEA 0xD2 0xC0 LOG2 0xD3 0xB3 0xDF SWAP1 DUP5 STATICCALL 0x25 CREATE 0xE3 RETURNDATASIZE 0xFB 0xA5 EQ SWAP8 0xEB SWAP6 0xFC 0xBC 0xB7 DUP11 MULMOD 0xDE GASPRICE PUSH29 0x9864736F6C634300060000330000000000000000000000000000000000 "
				},
				"gasEstimates": {
					"creation": {
						"codeDepositCost": "706600",
						"executionCost": "infinite",
						"totalCost": "infinite"
					},
					"external": {
						"addMember(string,bool)": "infinite",
						"getCountOfVoted(bool)": "infinite",
						"getMemberStructure(uint256)": "infinite",
						"getMemberValue()": "infinite",
						"memberCount()": "1130",
						"members(uint256)": "infinite",
						"setVote(uint256,bool)": "21580"
					}
				},
				"methodIdentifiers": {
					"addMember(string,bool)": "92c68389",
					"getCountOfVoted(bool)": "ab7a2015",
					"getMemberStructure(uint256)": "f97698f8",
					"getMemberValue()": "6f416d59",
					"memberCount()": "11aee380",
					"members(uint256)": "5daf08ca",
					"setVote(uint256,bool)": "d3516b7e"
				}
			},
			"storageLayout": {
				"storage": [
					{
						"astId": 13,
						"contract": "contracts/fun_stuff.sol:VoteSaving",
						"label": "members",
						"offset": 0,
						"slot": "0",
						"type": "t_mapping(t_uint256,t_struct(Member)9_storage)"
					},
					{
						"astId": 19,
						"contract": "contracts/fun_stuff.sol:VoteSaving",
						"label": "memberCount",
						"offset": 0,
						"slot": "1",
						"type": "t_uint256"
					}
				],
				"types": {
					"t_bool": {
						"encoding": "inplace",
						"label": "bool",
						"numberOfBytes": "1"
					},
					"t_mapping(t_uint256,t_struct(Member)9_storage)": {
						"encoding": "mapping",
						"key": "t_uint256",
						"label": "mapping(uint256 => struct VoteSaving.Member)",
						"numberOfBytes": "32",
						"value": "t_struct(Member)9_storage"
					},
					"t_string_storage": {
						"encoding": "bytes",
						"label": "string",
						"numberOfBytes": "32"
					},
					"t_struct(Member)9_storage": {
						"encoding": "inplace",
						"label": "struct VoteSaving.Member",
						"members": [
							{
								"astId": 4,
								"contract": "contracts/fun_stuff.sol:VoteSaving",
								"label": "id",
								"offset": 0,
								"slot": "0",
								"type": "t_uint256"
							},
							{
								"astId": 6,
								"contract": "contracts/fun_stuff.sol:VoteSaving",
								"label": "name",
								"offset": 0,
								"slot": "1",
								"type": "t_string_storage"
							},
							{
								"astId": 8,
								"contract": "contracts/fun_stuff.sol:VoteSaving",
								"label": "isVoted",
								"offset": 0,
								"slot": "2",
								"type": "t_bool"
							}
						],
						"numberOfBytes": "96"
					},
					"t_uint256": {
						"encoding": "inplace",
						"label": "uint256",
						"numberOfBytes": "32"
					}
				}
			},
			"userdoc": {
				"methods": {}
			}
		}
	}
}