{
	"contracts/sandbox.sol": {
		"Bar": {
			"abi": [
				{
					"inputs": [
						{
							"internalType": "string",
							"name": "name",
							"type": "string"
						},
						{
							"internalType": "uint256",
							"name": "level",
							"type": "uint256"
						}
					],
					"name": "createUser",
					"outputs": [],
					"stateMutability": "nonpayable",
					"type": "function"
				},
				{
					"inputs": [],
					"name": "getAllUsers",
					"outputs": [
						{
							"internalType": "address[]",
							"name": "",
							"type": "address[]"
						}
					],
					"stateMutability": "view",
					"type": "function"
				},
				{
					"inputs": [
						{
							"internalType": "uint256",
							"name": "",
							"type": "uint256"
						}
					],
					"name": "userAddresses",
					"outputs": [
						{
							"internalType": "address",
							"name": "",
							"type": "address"
						}
					],
					"stateMutability": "view",
					"type": "function"
				}
			],
			"devdoc": {
				"kind": "dev",
				"methods": {},
				"version": 1
			},
			"evm": {
				"assembly": "    /* \"contracts/sandbox.sol\":95:762  contract Bar{\r... */\n  mstore(0x40, 0x80)\n  callvalue\n  dup1\n  iszero\n  tag_1\n  jumpi\n  0x00\n  dup1\n  revert\ntag_1:\n  pop\n  dataSize(sub_0)\n  dup1\n  dataOffset(sub_0)\n  0x00\n  codecopy\n  0x00\n  return\nstop\n\nsub_0: assembly {\n        /* \"contracts/sandbox.sol\":95:762  contract Bar{\r... */\n      mstore(0x40, 0x80)\n      callvalue\n      dup1\n      iszero\n      tag_1\n      jumpi\n      0x00\n      dup1\n      revert\n    tag_1:\n      pop\n      jumpi(tag_2, lt(calldatasize, 0x04))\n      shr(0xe0, calldataload(0x00))\n      dup1\n      0x121ef243\n      eq\n      tag_3\n      jumpi\n      dup1\n      0x502c9bd5\n      eq\n      tag_4\n      jumpi\n      dup1\n      0xe2842d79\n      eq\n      tag_5\n      jumpi\n    tag_2:\n      0x00\n      dup1\n      revert\n        /* \"contracts/sandbox.sol\":268:642  function createUser(string memory name, uint level) public {\r... */\n    tag_3:\n      tag_6\n      0x04\n      dup1\n      calldatasize\n      sub\n      dup2\n      add\n      swap1\n      tag_7\n      swap2\n      swap1\n      tag_8\n      jump\t// in\n    tag_7:\n      tag_9\n      jump\t// in\n    tag_6:\n      stop\n        /* \"contracts/sandbox.sol\":229:259  address[] public userAddresses */\n    tag_4:\n      tag_10\n      0x04\n      dup1\n      calldatasize\n      sub\n      dup2\n      add\n      swap1\n      tag_11\n      swap2\n      swap1\n      tag_12\n      jump\t// in\n    tag_11:\n      tag_13\n      jump\t// in\n    tag_10:\n      mload(0x40)\n      tag_14\n      swap2\n      swap1\n      tag_15\n      jump\t// in\n    tag_14:\n      mload(0x40)\n      dup1\n      swap2\n      sub\n      swap1\n      return\n        /* \"contracts/sandbox.sol\":654:757  function getAllUsers() external view returns (address[] memory) {\r... */\n    tag_5:\n      tag_16\n      tag_17\n      jump\t// in\n    tag_16:\n      mload(0x40)\n      tag_18\n      swap2\n      swap1\n      tag_19\n      jump\t// in\n    tag_18:\n      mload(0x40)\n      dup1\n      swap2\n      sub\n      swap1\n      return\n        /* \"contracts/sandbox.sol\":268:642  function createUser(string memory name, uint level) public {\r... */\n    tag_9:\n        /* \"contracts/sandbox.sol\":429:433  name */\n      dup2\n        /* \"contracts/sandbox.sol\":398:409  userStructs */\n      0x00\n        /* \"contracts/sandbox.sol\":398:421  userStructs[msg.sender] */\n      dup1\n        /* \"contracts/sandbox.sol\":410:420  msg.sender */\n      caller\n        /* \"contracts/sandbox.sol\":398:421  userStructs[msg.sender] */\n      0xffffffffffffffffffffffffffffffffffffffff\n      and\n      0xffffffffffffffffffffffffffffffffffffffff\n      and\n      dup2\n      mstore\n      0x20\n      add\n      swap1\n      dup2\n      mstore\n      0x20\n      add\n      0x00\n      keccak256\n        /* \"contracts/sandbox.sol\":398:426  userStructs[msg.sender].name */\n      0x00\n      add\n        /* \"contracts/sandbox.sol\":398:433  userStructs[msg.sender].name = name */\n      swap1\n      dup1\n      mload\n      swap1\n      0x20\n      add\n      swap1\n      tag_21\n      swap3\n      swap2\n      swap1\n      tag_22\n      jump\t// in\n    tag_21:\n      pop\n        /* \"contracts/sandbox.sol\":533:538  level */\n      dup1\n        /* \"contracts/sandbox.sol\":501:512  userStructs */\n      0x00\n        /* \"contracts/sandbox.sol\":501:524  userStructs[msg.sender] */\n      dup1\n        /* \"contracts/sandbox.sol\":513:523  msg.sender */\n      caller\n        /* \"contracts/sandbox.sol\":501:524  userStructs[msg.sender] */\n      0xffffffffffffffffffffffffffffffffffffffff\n      and\n      0xffffffffffffffffffffffffffffffffffffffff\n      and\n      dup2\n      mstore\n      0x20\n      add\n      swap1\n      dup2\n      mstore\n      0x20\n      add\n      0x00\n      keccak256\n        /* \"contracts/sandbox.sol\":501:530  userStructs[msg.sender].level */\n      0x01\n      add\n        /* \"contracts/sandbox.sol\":501:538  userStructs[msg.sender].level = level */\n      dup2\n      swap1\n      sstore\n      pop\n        /* \"contracts/sandbox.sol\":604:617  userAddresses */\n      0x01\n        /* \"contracts/sandbox.sol\":623:633  msg.sender */\n      caller\n        /* \"contracts/sandbox.sol\":604:634  userAddresses.push(msg.sender) */\n      swap1\n      dup1\n      0x01\n      dup2\n      sload\n      add\n      dup1\n      dup3\n      sstore\n      dup1\n      swap2\n      pop\n      pop\n      0x01\n      swap1\n      sub\n      swap1\n      0x00\n      mstore\n      keccak256(0x00, 0x20)\n      add\n      0x00\n      swap1\n      swap2\n      swap1\n      swap2\n      swap1\n      swap2\n      0x0100\n      exp\n      dup2\n      sload\n      dup2\n      0xffffffffffffffffffffffffffffffffffffffff\n      mul\n      not\n      and\n      swap1\n      dup4\n      0xffffffffffffffffffffffffffffffffffffffff\n      and\n      mul\n      or\n      swap1\n      sstore\n      pop\n        /* \"contracts/sandbox.sol\":268:642  function createUser(string memory name, uint level) public {\r... */\n      pop\n      pop\n      jump\t// out\n        /* \"contracts/sandbox.sol\":229:259  address[] public userAddresses */\n    tag_13:\n      0x01\n      dup2\n      dup2\n      sload\n      dup2\n      lt\n      tag_24\n      jumpi\n      0x00\n      dup1\n      revert\n    tag_24:\n      swap1\n      0x00\n      mstore\n      keccak256(0x00, 0x20)\n      add\n      0x00\n      swap2\n      pop\n      sload\n      swap1\n      0x0100\n      exp\n      swap1\n      div\n      0xffffffffffffffffffffffffffffffffffffffff\n      and\n      dup2\n      jump\t// out\n        /* \"contracts/sandbox.sol\":654:757  function getAllUsers() external view returns (address[] memory) {\r... */\n    tag_17:\n        /* \"contracts/sandbox.sol\":700:716  address[] memory */\n      0x60\n        /* \"contracts/sandbox.sol\":736:749  userAddresses */\n      0x01\n        /* \"contracts/sandbox.sol\":729:749  return userAddresses */\n      dup1\n      sload\n      dup1\n      0x20\n      mul\n      0x20\n      add\n      mload(0x40)\n      swap1\n      dup2\n      add\n      0x40\n      mstore\n      dup1\n      swap3\n      swap2\n      swap1\n      dup2\n      dup2\n      mstore\n      0x20\n      add\n      dup3\n      dup1\n      sload\n      dup1\n      iszero\n      tag_27\n      jumpi\n      0x20\n      mul\n      dup3\n      add\n      swap2\n      swap1\n      0x00\n      mstore\n      keccak256(0x00, 0x20)\n      swap1\n    tag_28:\n      dup2\n      0x00\n      swap1\n      sload\n      swap1\n      0x0100\n      exp\n      swap1\n      div\n      0xffffffffffffffffffffffffffffffffffffffff\n      and\n      0xffffffffffffffffffffffffffffffffffffffff\n      and\n      dup2\n      mstore\n      0x20\n      add\n      swap1\n      0x01\n      add\n      swap1\n      dup1\n      dup4\n      gt\n      tag_28\n      jumpi\n    tag_27:\n      pop\n      pop\n      pop\n      pop\n      pop\n      swap1\n      pop\n        /* \"contracts/sandbox.sol\":654:757  function getAllUsers() external view returns (address[] memory) {\r... */\n      swap1\n      jump\t// out\n    tag_22:\n      dup3\n      dup1\n      sload\n      tag_29\n      swap1\n      tag_30\n      jump\t// in\n    tag_29:\n      swap1\n      0x00\n      mstore\n      keccak256(0x00, 0x20)\n      swap1\n      0x1f\n      add\n      0x20\n      swap1\n      div\n      dup2\n      add\n      swap3\n      dup3\n      tag_32\n      jumpi\n      0x00\n      dup6\n      sstore\n      jump(tag_31)\n    tag_32:\n      dup3\n      0x1f\n      lt\n      tag_33\n      jumpi\n      dup1\n      mload\n      not(0xff)\n      and\n      dup4\n      dup1\n      add\n      or\n      dup6\n      sstore\n      jump(tag_31)\n    tag_33:\n      dup3\n      dup1\n      add\n      0x01\n      add\n      dup6\n      sstore\n      dup3\n      iszero\n      tag_31\n      jumpi\n      swap2\n      dup3\n      add\n    tag_34:\n      dup3\n      dup2\n      gt\n      iszero\n      tag_35\n      jumpi\n      dup3\n      mload\n      dup3\n      sstore\n      swap2\n      0x20\n      add\n      swap2\n      swap1\n      0x01\n      add\n      swap1\n      jump(tag_34)\n    tag_35:\n    tag_31:\n      pop\n      swap1\n      pop\n      tag_36\n      swap2\n      swap1\n      tag_37\n      jump\t// in\n    tag_36:\n      pop\n      swap1\n      jump\t// out\n    tag_37:\n    tag_38:\n      dup1\n      dup3\n      gt\n      iszero\n      tag_39\n      jumpi\n      0x00\n      dup2\n      0x00\n      swap1\n      sstore\n      pop\n      0x01\n      add\n      jump(tag_38)\n    tag_39:\n      pop\n      swap1\n      jump\t// out\n        /* \"#utility.yul\":7:351   */\n    tag_41:\n      0x00\n        /* \"#utility.yul\":110:175   */\n      tag_43\n        /* \"#utility.yul\":125:174   */\n      tag_44\n        /* \"#utility.yul\":167:173   */\n      dup5\n        /* \"#utility.yul\":125:174   */\n      tag_45\n      jump\t// in\n    tag_44:\n        /* \"#utility.yul\":110:175   */\n      tag_46\n      jump\t// in\n    tag_43:\n        /* \"#utility.yul\":101:175   */\n      swap1\n      pop\n        /* \"#utility.yul\":198:204   */\n      dup3\n        /* \"#utility.yul\":191:196   */\n      dup2\n        /* \"#utility.yul\":184:205   */\n      mstore\n        /* \"#utility.yul\":236:240   */\n      0x20\n        /* \"#utility.yul\":229:234   */\n      dup2\n        /* \"#utility.yul\":225:241   */\n      add\n        /* \"#utility.yul\":274:277   */\n      dup5\n        /* \"#utility.yul\":265:271   */\n      dup5\n        /* \"#utility.yul\":260:263   */\n      dup5\n        /* \"#utility.yul\":256:272   */\n      add\n        /* \"#utility.yul\":253:278   */\n      gt\n        /* \"#utility.yul\":250:252   */\n      iszero\n      tag_47\n      jumpi\n        /* \"#utility.yul\":291:292   */\n      0x00\n        /* \"#utility.yul\":288:289   */\n      dup1\n        /* \"#utility.yul\":281:293   */\n      revert\n        /* \"#utility.yul\":250:252   */\n    tag_47:\n        /* \"#utility.yul\":304:345   */\n      tag_48\n        /* \"#utility.yul\":338:344   */\n      dup5\n        /* \"#utility.yul\":333:336   */\n      dup3\n        /* \"#utility.yul\":328:331   */\n      dup6\n        /* \"#utility.yul\":304:345   */\n      tag_49\n      jump\t// in\n    tag_48:\n        /* \"#utility.yul\":91:351   */\n      pop\n      swap4\n      swap3\n      pop\n      pop\n      pop\n      jump\t// out\n        /* \"#utility.yul\":371:644   */\n    tag_50:\n      0x00\n        /* \"#utility.yul\":476:479   */\n      dup3\n        /* \"#utility.yul\":469:473   */\n      0x1f\n        /* \"#utility.yul\":461:467   */\n      dup4\n        /* \"#utility.yul\":457:474   */\n      add\n        /* \"#utility.yul\":453:480   */\n      slt\n        /* \"#utility.yul\":443:445   */\n      tag_52\n      jumpi\n        /* \"#utility.yul\":494:495   */\n      0x00\n        /* \"#utility.yul\":491:492   */\n      dup1\n        /* \"#utility.yul\":484:496   */\n      revert\n        /* \"#utility.yul\":443:445   */\n    tag_52:\n        /* \"#utility.yul\":534:540   */\n      dup2\n        /* \"#utility.yul\":521:541   */\n      calldataload\n        /* \"#utility.yul\":559:638   */\n      tag_53\n        /* \"#utility.yul\":634:637   */\n      dup5\n        /* \"#utility.yul\":626:632   */\n      dup3\n        /* \"#utility.yul\":619:623   */\n      0x20\n        /* \"#utility.yul\":611:617   */\n      dup7\n        /* \"#utility.yul\":607:624   */\n      add\n        /* \"#utility.yul\":559:638   */\n      tag_41\n      jump\t// in\n    tag_53:\n        /* \"#utility.yul\":550:638   */\n      swap2\n      pop\n        /* \"#utility.yul\":433:644   */\n      pop\n      swap3\n      swap2\n      pop\n      pop\n      jump\t// out\n        /* \"#utility.yul\":650:789   */\n    tag_54:\n      0x00\n        /* \"#utility.yul\":734:740   */\n      dup2\n        /* \"#utility.yul\":721:741   */\n      calldataload\n        /* \"#utility.yul\":712:741   */\n      swap1\n      pop\n        /* \"#utility.yul\":750:783   */\n      tag_56\n        /* \"#utility.yul\":777:782   */\n      dup2\n        /* \"#utility.yul\":750:783   */\n      tag_57\n      jump\t// in\n    tag_56:\n        /* \"#utility.yul\":702:789   */\n      swap3\n      swap2\n      pop\n      pop\n      jump\t// out\n        /* \"#utility.yul\":795:1315   */\n    tag_8:\n      0x00\n      dup1\n        /* \"#utility.yul\":930:932   */\n      0x40\n        /* \"#utility.yul\":918:927   */\n      dup4\n        /* \"#utility.yul\":909:916   */\n      dup6\n        /* \"#utility.yul\":905:928   */\n      sub\n        /* \"#utility.yul\":901:933   */\n      slt\n        /* \"#utility.yul\":898:900   */\n      iszero\n      tag_59\n      jumpi\n        /* \"#utility.yul\":946:947   */\n      0x00\n        /* \"#utility.yul\":943:944   */\n      dup1\n        /* \"#utility.yul\":936:948   */\n      revert\n        /* \"#utility.yul\":898:900   */\n    tag_59:\n        /* \"#utility.yul\":1017:1018   */\n      0x00\n        /* \"#utility.yul\":1006:1015   */\n      dup4\n        /* \"#utility.yul\":1002:1019   */\n      add\n        /* \"#utility.yul\":989:1020   */\n      calldataload\n        /* \"#utility.yul\":1047:1065   */\n      0xffffffffffffffff\n        /* \"#utility.yul\":1039:1045   */\n      dup2\n        /* \"#utility.yul\":1036:1066   */\n      gt\n        /* \"#utility.yul\":1033:1035   */\n      iszero\n      tag_60\n      jumpi\n        /* \"#utility.yul\":1079:1080   */\n      0x00\n        /* \"#utility.yul\":1076:1077   */\n      dup1\n        /* \"#utility.yul\":1069:1081   */\n      revert\n        /* \"#utility.yul\":1033:1035   */\n    tag_60:\n        /* \"#utility.yul\":1107:1170   */\n      tag_61\n        /* \"#utility.yul\":1162:1169   */\n      dup6\n        /* \"#utility.yul\":1153:1159   */\n      dup3\n        /* \"#utility.yul\":1142:1151   */\n      dup7\n        /* \"#utility.yul\":1138:1160   */\n      add\n        /* \"#utility.yul\":1107:1170   */\n      tag_50\n      jump\t// in\n    tag_61:\n        /* \"#utility.yul\":1097:1170   */\n      swap3\n      pop\n        /* \"#utility.yul\":960:1180   */\n      pop\n        /* \"#utility.yul\":1219:1221   */\n      0x20\n        /* \"#utility.yul\":1245:1298   */\n      tag_62\n        /* \"#utility.yul\":1290:1297   */\n      dup6\n        /* \"#utility.yul\":1281:1287   */\n      dup3\n        /* \"#utility.yul\":1270:1279   */\n      dup7\n        /* \"#utility.yul\":1266:1288   */\n      add\n        /* \"#utility.yul\":1245:1298   */\n      tag_54\n      jump\t// in\n    tag_62:\n        /* \"#utility.yul\":1235:1298   */\n      swap2\n      pop\n        /* \"#utility.yul\":1190:1308   */\n      pop\n        /* \"#utility.yul\":888:1315   */\n      swap3\n      pop\n      swap3\n      swap1\n      pop\n      jump\t// out\n        /* \"#utility.yul\":1321:1583   */\n    tag_12:\n      0x00\n        /* \"#utility.yul\":1429:1431   */\n      0x20\n        /* \"#utility.yul\":1417:1426   */\n      dup3\n        /* \"#utility.yul\":1408:1415   */\n      dup5\n        /* \"#utility.yul\":1404:1427   */\n      sub\n        /* \"#utility.yul\":1400:1432   */\n      slt\n        /* \"#utility.yul\":1397:1399   */\n      iszero\n      tag_64\n      jumpi\n        /* \"#utility.yul\":1445:1446   */\n      0x00\n        /* \"#utility.yul\":1442:1443   */\n      dup1\n        /* \"#utility.yul\":1435:1447   */\n      revert\n        /* \"#utility.yul\":1397:1399   */\n    tag_64:\n        /* \"#utility.yul\":1488:1489   */\n      0x00\n        /* \"#utility.yul\":1513:1566   */\n      tag_65\n        /* \"#utility.yul\":1558:1565   */\n      dup5\n        /* \"#utility.yul\":1549:1555   */\n      dup3\n        /* \"#utility.yul\":1538:1547   */\n      dup6\n        /* \"#utility.yul\":1534:1556   */\n      add\n        /* \"#utility.yul\":1513:1566   */\n      tag_54\n      jump\t// in\n    tag_65:\n        /* \"#utility.yul\":1503:1566   */\n      swap2\n      pop\n        /* \"#utility.yul\":1459:1576   */\n      pop\n        /* \"#utility.yul\":1387:1583   */\n      swap3\n      swap2\n      pop\n      pop\n      jump\t// out\n        /* \"#utility.yul\":1589:1768   */\n    tag_66:\n      0x00\n        /* \"#utility.yul\":1679:1725   */\n      tag_68\n        /* \"#utility.yul\":1721:1724   */\n      dup4\n        /* \"#utility.yul\":1713:1719   */\n      dup4\n        /* \"#utility.yul\":1679:1725   */\n      tag_69\n      jump\t// in\n    tag_68:\n        /* \"#utility.yul\":1757:1761   */\n      0x20\n        /* \"#utility.yul\":1752:1755   */\n      dup4\n        /* \"#utility.yul\":1748:1762   */\n      add\n        /* \"#utility.yul\":1734:1762   */\n      swap1\n      pop\n        /* \"#utility.yul\":1669:1768   */\n      swap3\n      swap2\n      pop\n      pop\n      jump\t// out\n        /* \"#utility.yul\":1774:1882   */\n    tag_69:\n        /* \"#utility.yul\":1851:1875   */\n      tag_71\n        /* \"#utility.yul\":1869:1874   */\n      dup2\n        /* \"#utility.yul\":1851:1875   */\n      tag_72\n      jump\t// in\n    tag_71:\n        /* \"#utility.yul\":1846:1849   */\n      dup3\n        /* \"#utility.yul\":1839:1876   */\n      mstore\n        /* \"#utility.yul\":1829:1882   */\n      pop\n      pop\n      jump\t// out\n        /* \"#utility.yul\":1888:2006   */\n    tag_73:\n        /* \"#utility.yul\":1975:1999   */\n      tag_75\n        /* \"#utility.yul\":1993:1998   */\n      dup2\n        /* \"#utility.yul\":1975:1999   */\n      tag_72\n      jump\t// in\n    tag_75:\n        /* \"#utility.yul\":1970:1973   */\n      dup3\n        /* \"#utility.yul\":1963:2000   */\n      mstore\n        /* \"#utility.yul\":1953:2006   */\n      pop\n      pop\n      jump\t// out\n        /* \"#utility.yul\":2042:2774   */\n    tag_76:\n      0x00\n        /* \"#utility.yul\":2190:2244   */\n      tag_78\n        /* \"#utility.yul\":2238:2243   */\n      dup3\n        /* \"#utility.yul\":2190:2244   */\n      tag_79\n      jump\t// in\n    tag_78:\n        /* \"#utility.yul\":2260:2346   */\n      tag_80\n        /* \"#utility.yul\":2339:2345   */\n      dup2\n        /* \"#utility.yul\":2334:2337   */\n      dup6\n        /* \"#utility.yul\":2260:2346   */\n      tag_81\n      jump\t// in\n    tag_80:\n        /* \"#utility.yul\":2253:2346   */\n      swap4\n      pop\n        /* \"#utility.yul\":2370:2426   */\n      tag_82\n        /* \"#utility.yul\":2420:2425   */\n      dup4\n        /* \"#utility.yul\":2370:2426   */\n      tag_83\n      jump\t// in\n    tag_82:\n        /* \"#utility.yul\":2449:2456   */\n      dup1\n        /* \"#utility.yul\":2480:2481   */\n      0x00\n        /* \"#utility.yul\":2465:2749   */\n    tag_84:\n        /* \"#utility.yul\":2490:2496   */\n      dup4\n        /* \"#utility.yul\":2487:2488   */\n      dup2\n        /* \"#utility.yul\":2484:2497   */\n      lt\n        /* \"#utility.yul\":2465:2749   */\n      iszero\n      tag_86\n      jumpi\n        /* \"#utility.yul\":2566:2572   */\n      dup2\n        /* \"#utility.yul\":2560:2573   */\n      mload\n        /* \"#utility.yul\":2593:2656   */\n      tag_87\n        /* \"#utility.yul\":2652:2655   */\n      dup9\n        /* \"#utility.yul\":2637:2650   */\n      dup3\n        /* \"#utility.yul\":2593:2656   */\n      tag_66\n      jump\t// in\n    tag_87:\n        /* \"#utility.yul\":2586:2656   */\n      swap8\n      pop\n        /* \"#utility.yul\":2679:2739   */\n      tag_88\n        /* \"#utility.yul\":2732:2738   */\n      dup4\n        /* \"#utility.yul\":2679:2739   */\n      tag_89\n      jump\t// in\n    tag_88:\n        /* \"#utility.yul\":2669:2739   */\n      swap3\n      pop\n        /* \"#utility.yul\":2525:2749   */\n      pop\n        /* \"#utility.yul\":2512:2513   */\n      0x01\n        /* \"#utility.yul\":2509:2510   */\n      dup2\n        /* \"#utility.yul\":2505:2514   */\n      add\n        /* \"#utility.yul\":2500:2514   */\n      swap1\n      pop\n        /* \"#utility.yul\":2465:2749   */\n      jump(tag_84)\n    tag_86:\n        /* \"#utility.yul\":2469:2483   */\n      pop\n        /* \"#utility.yul\":2765:2768   */\n      dup6\n        /* \"#utility.yul\":2758:2768   */\n      swap4\n      pop\n        /* \"#utility.yul\":2166:2774   */\n      pop\n      pop\n      pop\n      swap3\n      swap2\n      pop\n      pop\n      jump\t// out\n        /* \"#utility.yul\":2780:3002   */\n    tag_15:\n      0x00\n        /* \"#utility.yul\":2911:2913   */\n      0x20\n        /* \"#utility.yul\":2900:2909   */\n      dup3\n        /* \"#utility.yul\":2896:2914   */\n      add\n        /* \"#utility.yul\":2888:2914   */\n      swap1\n      pop\n        /* \"#utility.yul\":2924:2995   */\n      tag_91\n        /* \"#utility.yul\":2992:2993   */\n      0x00\n        /* \"#utility.yul\":2981:2990   */\n      dup4\n        /* \"#utility.yul\":2977:2994   */\n      add\n        /* \"#utility.yul\":2968:2974   */\n      dup5\n        /* \"#utility.yul\":2924:2995   */\n      tag_73\n      jump\t// in\n    tag_91:\n        /* \"#utility.yul\":2878:3002   */\n      swap3\n      swap2\n      pop\n      pop\n      jump\t// out\n        /* \"#utility.yul\":3008:3381   */\n    tag_19:\n      0x00\n        /* \"#utility.yul\":3189:3191   */\n      0x20\n        /* \"#utility.yul\":3178:3187   */\n      dup3\n        /* \"#utility.yul\":3174:3192   */\n      add\n        /* \"#utility.yul\":3166:3192   */\n      swap1\n      pop\n        /* \"#utility.yul\":3238:3247   */\n      dup2\n        /* \"#utility.yul\":3232:3236   */\n      dup2\n        /* \"#utility.yul\":3228:3248   */\n      sub\n        /* \"#utility.yul\":3224:3225   */\n      0x00\n        /* \"#utility.yul\":3213:3222   */\n      dup4\n        /* \"#utility.yul\":3209:3226   */\n      add\n        /* \"#utility.yul\":3202:3249   */\n      mstore\n        /* \"#utility.yul\":3266:3374   */\n      tag_93\n        /* \"#utility.yul\":3369:3373   */\n      dup2\n        /* \"#utility.yul\":3360:3366   */\n      dup5\n        /* \"#utility.yul\":3266:3374   */\n      tag_76\n      jump\t// in\n    tag_93:\n        /* \"#utility.yul\":3258:3374   */\n      swap1\n      pop\n        /* \"#utility.yul\":3156:3381   */\n      swap3\n      swap2\n      pop\n      pop\n      jump\t// out\n        /* \"#utility.yul\":3387:3670   */\n    tag_46:\n      0x00\n        /* \"#utility.yul\":3453:3455   */\n      0x40\n        /* \"#utility.yul\":3447:3456   */\n      mload\n        /* \"#utility.yul\":3437:3456   */\n      swap1\n      pop\n        /* \"#utility.yul\":3495:3499   */\n      dup2\n        /* \"#utility.yul\":3487:3493   */\n      dup2\n        /* \"#utility.yul\":3483:3500   */\n      add\n        /* \"#utility.yul\":3602:3608   */\n      dup2\n        /* \"#utility.yul\":3590:3600   */\n      dup2\n        /* \"#utility.yul\":3587:3609   */\n      lt\n        /* \"#utility.yul\":3566:3584   */\n      0xffffffffffffffff\n        /* \"#utility.yul\":3554:3564   */\n      dup3\n        /* \"#utility.yul\":3551:3585   */\n      gt\n        /* \"#utility.yul\":3548:3610   */\n      or\n        /* \"#utility.yul\":3545:3547   */\n      iszero\n      tag_95\n      jumpi\n        /* \"#utility.yul\":3613:3631   */\n      tag_96\n      tag_97\n      jump\t// in\n    tag_96:\n        /* \"#utility.yul\":3545:3547   */\n    tag_95:\n        /* \"#utility.yul\":3653:3663   */\n      dup1\n        /* \"#utility.yul\":3649:3651   */\n      0x40\n        /* \"#utility.yul\":3642:3664   */\n      mstore\n        /* \"#utility.yul\":3427:3670   */\n      pop\n      swap2\n      swap1\n      pop\n      jump\t// out\n        /* \"#utility.yul\":3676:4008   */\n    tag_45:\n      0x00\n        /* \"#utility.yul\":3828:3846   */\n      0xffffffffffffffff\n        /* \"#utility.yul\":3820:3826   */\n      dup3\n        /* \"#utility.yul\":3817:3847   */\n      gt\n        /* \"#utility.yul\":3814:3816   */\n      iszero\n      tag_99\n      jumpi\n        /* \"#utility.yul\":3850:3868   */\n      tag_100\n      tag_97\n      jump\t// in\n    tag_100:\n        /* \"#utility.yul\":3814:3816   */\n    tag_99:\n        /* \"#utility.yul\":3935:3939   */\n      0x1f\n        /* \"#utility.yul\":3931:3940   */\n      not\n        /* \"#utility.yul\":3924:3928   */\n      0x1f\n        /* \"#utility.yul\":3916:3922   */\n      dup4\n        /* \"#utility.yul\":3912:3929   */\n      add\n        /* \"#utility.yul\":3908:3941   */\n      and\n        /* \"#utility.yul\":3900:3941   */\n      swap1\n      pop\n        /* \"#utility.yul\":3996:4000   */\n      0x20\n        /* \"#utility.yul\":3990:3994   */\n      dup2\n        /* \"#utility.yul\":3986:4001   */\n      add\n        /* \"#utility.yul\":3978:4001   */\n      swap1\n      pop\n        /* \"#utility.yul\":3743:4008   */\n      swap2\n      swap1\n      pop\n      jump\t// out\n        /* \"#utility.yul\":4014:4146   */\n    tag_83:\n      0x00\n        /* \"#utility.yul\":4104:4107   */\n      dup2\n        /* \"#utility.yul\":4096:4107   */\n      swap1\n      pop\n        /* \"#utility.yul\":4134:4138   */\n      0x20\n        /* \"#utility.yul\":4129:4132   */\n      dup3\n        /* \"#utility.yul\":4125:4139   */\n      add\n        /* \"#utility.yul\":4117:4139   */\n      swap1\n      pop\n        /* \"#utility.yul\":4086:4146   */\n      swap2\n      swap1\n      pop\n      jump\t// out\n        /* \"#utility.yul\":4152:4266   */\n    tag_79:\n      0x00\n        /* \"#utility.yul\":4253:4258   */\n      dup2\n        /* \"#utility.yul\":4247:4259   */\n      mload\n        /* \"#utility.yul\":4237:4259   */\n      swap1\n      pop\n        /* \"#utility.yul\":4226:4266   */\n      swap2\n      swap1\n      pop\n      jump\t// out\n        /* \"#utility.yul\":4272:4385   */\n    tag_89:\n      0x00\n        /* \"#utility.yul\":4374:4378   */\n      0x20\n        /* \"#utility.yul\":4369:4372   */\n      dup3\n        /* \"#utility.yul\":4365:4379   */\n      add\n        /* \"#utility.yul\":4357:4379   */\n      swap1\n      pop\n        /* \"#utility.yul\":4347:4385   */\n      swap2\n      swap1\n      pop\n      jump\t// out\n        /* \"#utility.yul\":4391:4575   */\n    tag_81:\n      0x00\n        /* \"#utility.yul\":4524:4530   */\n      dup3\n        /* \"#utility.yul\":4519:4522   */\n      dup3\n        /* \"#utility.yul\":4512:4531   */\n      mstore\n        /* \"#utility.yul\":4564:4568   */\n      0x20\n        /* \"#utility.yul\":4559:4562   */\n      dup3\n        /* \"#utility.yul\":4555:4569   */\n      add\n        /* \"#utility.yul\":4540:4569   */\n      swap1\n      pop\n        /* \"#utility.yul\":4502:4575   */\n      swap3\n      swap2\n      pop\n      pop\n      jump\t// out\n        /* \"#utility.yul\":4581:4677   */\n    tag_72:\n      0x00\n        /* \"#utility.yul\":4647:4671   */\n      tag_106\n        /* \"#utility.yul\":4665:4670   */\n      dup3\n        /* \"#utility.yul\":4647:4671   */\n      tag_107\n      jump\t// in\n    tag_106:\n        /* \"#utility.yul\":4636:4671   */\n      swap1\n      pop\n        /* \"#utility.yul\":4626:4677   */\n      swap2\n      swap1\n      pop\n      jump\t// out\n        /* \"#utility.yul\":4683:4809   */\n    tag_107:\n      0x00\n        /* \"#utility.yul\":4760:4802   */\n      0xffffffffffffffffffffffffffffffffffffffff\n        /* \"#utility.yul\":4753:4758   */\n      dup3\n        /* \"#utility.yul\":4749:4803   */\n      and\n        /* \"#utility.yul\":4738:4803   */\n      swap1\n      pop\n        /* \"#utility.yul\":4728:4809   */\n      swap2\n      swap1\n      pop\n      jump\t// out\n        /* \"#utility.yul\":4815:4892   */\n    tag_109:\n      0x00\n        /* \"#utility.yul\":4881:4886   */\n      dup2\n        /* \"#utility.yul\":4870:4886   */\n      swap1\n      pop\n        /* \"#utility.yul\":4860:4892   */\n      swap2\n      swap1\n      pop\n      jump\t// out\n        /* \"#utility.yul\":4898:5052   */\n    tag_49:\n        /* \"#utility.yul\":4982:4988   */\n      dup3\n        /* \"#utility.yul\":4977:4980   */\n      dup2\n        /* \"#utility.yul\":4972:4975   */\n      dup4\n        /* \"#utility.yul\":4959:4989   */\n      calldatacopy\n        /* \"#utility.yul\":5044:5045   */\n      0x00\n        /* \"#utility.yul\":5035:5041   */\n      dup4\n        /* \"#utility.yul\":5030:5033   */\n      dup4\n        /* \"#utility.yul\":5026:5042   */\n      add\n        /* \"#utility.yul\":5019:5046   */\n      mstore\n        /* \"#utility.yul\":4949:5052   */\n      pop\n      pop\n      pop\n      jump\t// out\n        /* \"#utility.yul\":5058:5378   */\n    tag_30:\n      0x00\n        /* \"#utility.yul\":5139:5140   */\n      0x02\n        /* \"#utility.yul\":5133:5137   */\n      dup3\n        /* \"#utility.yul\":5129:5141   */\n      div\n        /* \"#utility.yul\":5119:5141   */\n      swap1\n      pop\n        /* \"#utility.yul\":5186:5187   */\n      0x01\n        /* \"#utility.yul\":5180:5184   */\n      dup3\n        /* \"#utility.yul\":5176:5188   */\n      and\n        /* \"#utility.yul\":5207:5225   */\n      dup1\n        /* \"#utility.yul\":5197:5199   */\n      tag_113\n      jumpi\n        /* \"#utility.yul\":5263:5267   */\n      0x7f\n        /* \"#utility.yul\":5255:5261   */\n      dup3\n        /* \"#utility.yul\":5251:5268   */\n      and\n        /* \"#utility.yul\":5241:5268   */\n      swap2\n      pop\n        /* \"#utility.yul\":5197:5199   */\n    tag_113:\n        /* \"#utility.yul\":5325:5327   */\n      0x20\n        /* \"#utility.yul\":5317:5323   */\n      dup3\n        /* \"#utility.yul\":5314:5328   */\n      lt\n        /* \"#utility.yul\":5294:5312   */\n      dup2\n        /* \"#utility.yul\":5291:5329   */\n      eq\n        /* \"#utility.yul\":5288:5290   */\n      iszero\n      tag_114\n      jumpi\n        /* \"#utility.yul\":5344:5362   */\n      tag_115\n      tag_116\n      jump\t// in\n    tag_115:\n        /* \"#utility.yul\":5288:5290   */\n    tag_114:\n        /* \"#utility.yul\":5109:5378   */\n      pop\n      swap2\n      swap1\n      pop\n      jump\t// out\n        /* \"#utility.yul\":5384:5564   */\n    tag_116:\n        /* \"#utility.yul\":5432:5509   */\n      0x4e487b7100000000000000000000000000000000000000000000000000000000\n        /* \"#utility.yul\":5429:5430   */\n      0x00\n        /* \"#utility.yul\":5422:5510   */\n      mstore\n        /* \"#utility.yul\":5529:5533   */\n      0x22\n        /* \"#utility.yul\":5526:5527   */\n      0x04\n        /* \"#utility.yul\":5519:5534   */\n      mstore\n        /* \"#utility.yul\":5553:5557   */\n      0x24\n        /* \"#utility.yul\":5550:5551   */\n      0x00\n        /* \"#utility.yul\":5543:5558   */\n      revert\n        /* \"#utility.yul\":5570:5750   */\n    tag_97:\n        /* \"#utility.yul\":5618:5695   */\n      0x4e487b7100000000000000000000000000000000000000000000000000000000\n        /* \"#utility.yul\":5615:5616   */\n      0x00\n        /* \"#utility.yul\":5608:5696   */\n      mstore\n        /* \"#utility.yul\":5715:5719   */\n      0x41\n        /* \"#utility.yul\":5712:5713   */\n      0x04\n        /* \"#utility.yul\":5705:5720   */\n      mstore\n        /* \"#utility.yul\":5739:5743   */\n      0x24\n        /* \"#utility.yul\":5736:5737   */\n      0x00\n        /* \"#utility.yul\":5729:5744   */\n      revert\n        /* \"#utility.yul\":5756:5878   */\n    tag_57:\n        /* \"#utility.yul\":5829:5853   */\n      tag_120\n        /* \"#utility.yul\":5847:5852   */\n      dup2\n        /* \"#utility.yul\":5829:5853   */\n      tag_109\n      jump\t// in\n    tag_120:\n        /* \"#utility.yul\":5822:5827   */\n      dup2\n        /* \"#utility.yul\":5819:5854   */\n      eq\n        /* \"#utility.yul\":5809:5811   */\n      tag_121\n      jumpi\n        /* \"#utility.yul\":5868:5869   */\n      0x00\n        /* \"#utility.yul\":5865:5866   */\n      dup1\n        /* \"#utility.yul\":5858:5870   */\n      revert\n        /* \"#utility.yul\":5809:5811   */\n    tag_121:\n        /* \"#utility.yul\":5799:5878   */\n      pop\n      jump\t// out\n\n    auxdata: 0xa26469706673582212207ef2cf8f21a3683ab9f30b250e94da45dbd90e8bc9760728b48ba33cd5f165b564736f6c63430008000033\n}\n",
				"bytecode": {
					"linkReferences": {},
					"object": "608060405234801561001057600080fd5b506106b0806100206000396000f3fe608060405234801561001057600080fd5b50600436106100415760003560e01c8063121ef24314610046578063502c9bd514610062578063e2842d7914610092575b600080fd5b610060600480360381019061005b91906103a0565b6100b0565b005b61007c600480360381019061007791906103f4565b6101b3565b60405161008991906104b1565b60405180910390f35b61009a6101f2565b6040516100a791906104cc565b60405180910390f35b816000803373ffffffffffffffffffffffffffffffffffffffff1673ffffffffffffffffffffffffffffffffffffffff1681526020019081526020016000206000019080519060200190610105929190610280565b50806000803373ffffffffffffffffffffffffffffffffffffffff1673ffffffffffffffffffffffffffffffffffffffff168152602001908152602001600020600101819055506001339080600181540180825580915050600190039060005260206000200160009091909190916101000a81548173ffffffffffffffffffffffffffffffffffffffff021916908373ffffffffffffffffffffffffffffffffffffffff1602179055505050565b600181815481106101c357600080fd5b906000526020600020016000915054906101000a900473ffffffffffffffffffffffffffffffffffffffff1681565b6060600180548060200260200160405190810160405280929190818152602001828054801561027657602002820191906000526020600020905b8160009054906101000a900473ffffffffffffffffffffffffffffffffffffffff1673ffffffffffffffffffffffffffffffffffffffff168152602001906001019080831161022c575b5050505050905090565b82805461028c906105d3565b90600052602060002090601f0160209004810192826102ae57600085556102f5565b82601f106102c757805160ff19168380011785556102f5565b828001600101855582156102f5579182015b828111156102f45782518255916020019190600101906102d9565b5b5090506103029190610306565b5090565b5b8082111561031f576000816000905550600101610307565b5090565b60006103366103318461051f565b6104ee565b90508281526020810184848401111561034e57600080fd5b6103598482856105c4565b509392505050565b600082601f83011261037257600080fd5b8135610382848260208601610323565b91505092915050565b60008135905061039a81610663565b92915050565b600080604083850312156103b357600080fd5b600083013567ffffffffffffffff8111156103cd57600080fd5b6103d985828601610361565b92505060206103ea8582860161038b565b9150509250929050565b60006020828403121561040657600080fd5b60006104148482850161038b565b91505092915050565b60006104298383610435565b60208301905092915050565b61043e81610588565b82525050565b61044d81610588565b82525050565b600061045e8261055f565b6104688185610577565b93506104738361054f565b8060005b838110156104a457815161048b888261041d565b97506104968361056a565b925050600181019050610477565b5085935050505092915050565b60006020820190506104c66000830184610444565b92915050565b600060208201905081810360008301526104e68184610453565b905092915050565b6000604051905081810181811067ffffffffffffffff8211171561051557610514610634565b5b8060405250919050565b600067ffffffffffffffff82111561053a57610539610634565b5b601f19601f8301169050602081019050919050565b6000819050602082019050919050565b600081519050919050565b6000602082019050919050565b600082825260208201905092915050565b60006105938261059a565b9050919050565b600073ffffffffffffffffffffffffffffffffffffffff82169050919050565b6000819050919050565b82818337600083830152505050565b600060028204905060018216806105eb57607f821691505b602082108114156105ff576105fe610605565b5b50919050565b7f4e487b7100000000000000000000000000000000000000000000000000000000600052602260045260246000fd5b7f4e487b7100000000000000000000000000000000000000000000000000000000600052604160045260246000fd5b61066c816105ba565b811461067757600080fd5b5056fea26469706673582212207ef2cf8f21a3683ab9f30b250e94da45dbd90e8bc9760728b48ba33cd5f165b564736f6c63430008000033",
					"opcodes": "PUSH1 0x80 PUSH1 0x40 MSTORE CALLVALUE DUP1 ISZERO PUSH2 0x10 JUMPI PUSH1 0x0 DUP1 REVERT JUMPDEST POP PUSH2 0x6B0 DUP1 PUSH2 0x20 PUSH1 0x0 CODECOPY PUSH1 0x0 RETURN INVALID PUSH1 0x80 PUSH1 0x40 MSTORE CALLVALUE DUP1 ISZERO PUSH2 0x10 JUMPI PUSH1 0x0 DUP1 REVERT JUMPDEST POP PUSH1 0x4 CALLDATASIZE LT PUSH2 0x41 JUMPI PUSH1 0x0 CALLDATALOAD PUSH1 0xE0 SHR DUP1 PUSH4 0x121EF243 EQ PUSH2 0x46 JUMPI DUP1 PUSH4 0x502C9BD5 EQ PUSH2 0x62 JUMPI DUP1 PUSH4 0xE2842D79 EQ PUSH2 0x92 JUMPI JUMPDEST PUSH1 0x0 DUP1 REVERT JUMPDEST PUSH2 0x60 PUSH1 0x4 DUP1 CALLDATASIZE SUB DUP2 ADD SWAP1 PUSH2 0x5B SWAP2 SWAP1 PUSH2 0x3A0 JUMP JUMPDEST PUSH2 0xB0 JUMP JUMPDEST STOP JUMPDEST PUSH2 0x7C PUSH1 0x4 DUP1 CALLDATASIZE SUB DUP2 ADD SWAP1 PUSH2 0x77 SWAP2 SWAP1 PUSH2 0x3F4 JUMP JUMPDEST PUSH2 0x1B3 JUMP JUMPDEST PUSH1 0x40 MLOAD PUSH2 0x89 SWAP2 SWAP1 PUSH2 0x4B1 JUMP JUMPDEST PUSH1 0x40 MLOAD DUP1 SWAP2 SUB SWAP1 RETURN JUMPDEST PUSH2 0x9A PUSH2 0x1F2 JUMP JUMPDEST PUSH1 0x40 MLOAD PUSH2 0xA7 SWAP2 SWAP1 PUSH2 0x4CC JUMP JUMPDEST PUSH1 0x40 MLOAD DUP1 SWAP2 SUB SWAP1 RETURN JUMPDEST DUP2 PUSH1 0x0 DUP1 CALLER PUSH20 0xFFFFFFFFFFFFFFFFFFFFFFFFFFFFFFFFFFFFFFFF AND PUSH20 0xFFFFFFFFFFFFFFFFFFFFFFFFFFFFFFFFFFFFFFFF AND DUP2 MSTORE PUSH1 0x20 ADD SWAP1 DUP2 MSTORE PUSH1 0x20 ADD PUSH1 0x0 KECCAK256 PUSH1 0x0 ADD SWAP1 DUP1 MLOAD SWAP1 PUSH1 0x20 ADD SWAP1 PUSH2 0x105 SWAP3 SWAP2 SWAP1 PUSH2 0x280 JUMP JUMPDEST POP DUP1 PUSH1 0x0 DUP1 CALLER PUSH20 0xFFFFFFFFFFFFFFFFFFFFFFFFFFFFFFFFFFFFFFFF AND PUSH20 0xFFFFFFFFFFFFFFFFFFFFFFFFFFFFFFFFFFFFFFFF AND DUP2 MSTORE PUSH1 0x20 ADD SWAP1 DUP2 MSTORE PUSH1 0x20 ADD PUSH1 0x0 KECCAK256 PUSH1 0x1 ADD DUP2 SWAP1 SSTORE POP PUSH1 0x1 CALLER SWAP1 DUP1 PUSH1 0x1 DUP2 SLOAD ADD DUP1 DUP3 SSTORE DUP1 SWAP2 POP POP PUSH1 0x1 SWAP1 SUB SWAP1 PUSH1 0x0 MSTORE PUSH1 0x20 PUSH1 0x0 KECCAK256 ADD PUSH1 0x0 SWAP1 SWAP2 SWAP1 SWAP2 SWAP1 SWAP2 PUSH2 0x100 EXP DUP2 SLOAD DUP2 PUSH20 0xFFFFFFFFFFFFFFFFFFFFFFFFFFFFFFFFFFFFFFFF MUL NOT AND SWAP1 DUP4 PUSH20 0xFFFFFFFFFFFFFFFFFFFFFFFFFFFFFFFFFFFFFFFF AND MUL OR SWAP1 SSTORE POP POP POP JUMP JUMPDEST PUSH1 0x1 DUP2 DUP2 SLOAD DUP2 LT PUSH2 0x1C3 JUMPI PUSH1 0x0 DUP1 REVERT JUMPDEST SWAP1 PUSH1 0x0 MSTORE PUSH1 0x20 PUSH1 0x0 KECCAK256 ADD PUSH1 0x0 SWAP2 POP SLOAD SWAP1 PUSH2 0x100 EXP SWAP1 DIV PUSH20 0xFFFFFFFFFFFFFFFFFFFFFFFFFFFFFFFFFFFFFFFF AND DUP2 JUMP JUMPDEST PUSH1 0x60 PUSH1 0x1 DUP1 SLOAD DUP1 PUSH1 0x20 MUL PUSH1 0x20 ADD PUSH1 0x40 MLOAD SWAP1 DUP2 ADD PUSH1 0x40 MSTORE DUP1 SWAP3 SWAP2 SWAP1 DUP2 DUP2 MSTORE PUSH1 0x20 ADD DUP3 DUP1 SLOAD DUP1 ISZERO PUSH2 0x276 JUMPI PUSH1 0x20 MUL DUP3 ADD SWAP2 SWAP1 PUSH1 0x0 MSTORE PUSH1 0x20 PUSH1 0x0 KECCAK256 SWAP1 JUMPDEST DUP2 PUSH1 0x0 SWAP1 SLOAD SWAP1 PUSH2 0x100 EXP SWAP1 DIV PUSH20 0xFFFFFFFFFFFFFFFFFFFFFFFFFFFFFFFFFFFFFFFF AND PUSH20 0xFFFFFFFFFFFFFFFFFFFFFFFFFFFFFFFFFFFFFFFF AND DUP2 MSTORE PUSH1 0x20 ADD SWAP1 PUSH1 0x1 ADD SWAP1 DUP1 DUP4 GT PUSH2 0x22C JUMPI JUMPDEST POP POP POP POP POP SWAP1 POP SWAP1 JUMP JUMPDEST DUP3 DUP1 SLOAD PUSH2 0x28C SWAP1 PUSH2 0x5D3 JUMP JUMPDEST SWAP1 PUSH1 0x0 MSTORE PUSH1 0x20 PUSH1 0x0 KECCAK256 SWAP1 PUSH1 0x1F ADD PUSH1 0x20 SWAP1 DIV DUP2 ADD SWAP3 DUP3 PUSH2 0x2AE JUMPI PUSH1 0x0 DUP6 SSTORE PUSH2 0x2F5 JUMP JUMPDEST DUP3 PUSH1 0x1F LT PUSH2 0x2C7 JUMPI DUP1 MLOAD PUSH1 0xFF NOT AND DUP4 DUP1 ADD OR DUP6 SSTORE PUSH2 0x2F5 JUMP JUMPDEST DUP3 DUP1 ADD PUSH1 0x1 ADD DUP6 SSTORE DUP3 ISZERO PUSH2 0x2F5 JUMPI SWAP2 DUP3 ADD JUMPDEST DUP3 DUP2 GT ISZERO PUSH2 0x2F4 JUMPI DUP3 MLOAD DUP3 SSTORE SWAP2 PUSH1 0x20 ADD SWAP2 SWAP1 PUSH1 0x1 ADD SWAP1 PUSH2 0x2D9 JUMP JUMPDEST JUMPDEST POP SWAP1 POP PUSH2 0x302 SWAP2 SWAP1 PUSH2 0x306 JUMP JUMPDEST POP SWAP1 JUMP JUMPDEST JUMPDEST DUP1 DUP3 GT ISZERO PUSH2 0x31F JUMPI PUSH1 0x0 DUP2 PUSH1 0x0 SWAP1 SSTORE POP PUSH1 0x1 ADD PUSH2 0x307 JUMP JUMPDEST POP SWAP1 JUMP JUMPDEST PUSH1 0x0 PUSH2 0x336 PUSH2 0x331 DUP5 PUSH2 0x51F JUMP JUMPDEST PUSH2 0x4EE JUMP JUMPDEST SWAP1 POP DUP3 DUP2 MSTORE PUSH1 0x20 DUP2 ADD DUP5 DUP5 DUP5 ADD GT ISZERO PUSH2 0x34E JUMPI PUSH1 0x0 DUP1 REVERT JUMPDEST PUSH2 0x359 DUP5 DUP3 DUP6 PUSH2 0x5C4 JUMP JUMPDEST POP SWAP4 SWAP3 POP POP POP JUMP JUMPDEST PUSH1 0x0 DUP3 PUSH1 0x1F DUP4 ADD SLT PUSH2 0x372 JUMPI PUSH1 0x0 DUP1 REVERT JUMPDEST DUP2 CALLDATALOAD PUSH2 0x382 DUP5 DUP3 PUSH1 0x20 DUP7 ADD PUSH2 0x323 JUMP JUMPDEST SWAP2 POP POP SWAP3 SWAP2 POP POP JUMP JUMPDEST PUSH1 0x0 DUP2 CALLDATALOAD SWAP1 POP PUSH2 0x39A DUP2 PUSH2 0x663 JUMP JUMPDEST SWAP3 SWAP2 POP POP JUMP JUMPDEST PUSH1 0x0 DUP1 PUSH1 0x40 DUP4 DUP6 SUB SLT ISZERO PUSH2 0x3B3 JUMPI PUSH1 0x0 DUP1 REVERT JUMPDEST PUSH1 0x0 DUP4 ADD CALLDATALOAD PUSH8 0xFFFFFFFFFFFFFFFF DUP2 GT ISZERO PUSH2 0x3CD JUMPI PUSH1 0x0 DUP1 REVERT JUMPDEST PUSH2 0x3D9 DUP6 DUP3 DUP7 ADD PUSH2 0x361 JUMP JUMPDEST SWAP3 POP POP PUSH1 0x20 PUSH2 0x3EA DUP6 DUP3 DUP7 ADD PUSH2 0x38B JUMP JUMPDEST SWAP2 POP POP SWAP3 POP SWAP3 SWAP1 POP JUMP JUMPDEST PUSH1 0x0 PUSH1 0x20 DUP3 DUP5 SUB SLT ISZERO PUSH2 0x406 JUMPI PUSH1 0x0 DUP1 REVERT JUMPDEST PUSH1 0x0 PUSH2 0x414 DUP5 DUP3 DUP6 ADD PUSH2 0x38B JUMP JUMPDEST SWAP2 POP POP SWAP3 SWAP2 POP POP JUMP JUMPDEST PUSH1 0x0 PUSH2 0x429 DUP4 DUP4 PUSH2 0x435 JUMP JUMPDEST PUSH1 0x20 DUP4 ADD SWAP1 POP SWAP3 SWAP2 POP POP JUMP JUMPDEST PUSH2 0x43E DUP2 PUSH2 0x588 JUMP JUMPDEST DUP3 MSTORE POP POP JUMP JUMPDEST PUSH2 0x44D DUP2 PUSH2 0x588 JUMP JUMPDEST DUP3 MSTORE POP POP JUMP JUMPDEST PUSH1 0x0 PUSH2 0x45E DUP3 PUSH2 0x55F JUMP JUMPDEST PUSH2 0x468 DUP2 DUP6 PUSH2 0x577 JUMP JUMPDEST SWAP4 POP PUSH2 0x473 DUP4 PUSH2 0x54F JUMP JUMPDEST DUP1 PUSH1 0x0 JUMPDEST DUP4 DUP2 LT ISZERO PUSH2 0x4A4 JUMPI DUP2 MLOAD PUSH2 0x48B DUP9 DUP3 PUSH2 0x41D JUMP JUMPDEST SWAP8 POP PUSH2 0x496 DUP4 PUSH2 0x56A JUMP JUMPDEST SWAP3 POP POP PUSH1 0x1 DUP2 ADD SWAP1 POP PUSH2 0x477 JUMP JUMPDEST POP DUP6 SWAP4 POP POP POP POP SWAP3 SWAP2 POP POP JUMP JUMPDEST PUSH1 0x0 PUSH1 0x20 DUP3 ADD SWAP1 POP PUSH2 0x4C6 PUSH1 0x0 DUP4 ADD DUP5 PUSH2 0x444 JUMP JUMPDEST SWAP3 SWAP2 POP POP JUMP JUMPDEST PUSH1 0x0 PUSH1 0x20 DUP3 ADD SWAP1 POP DUP2 DUP2 SUB PUSH1 0x0 DUP4 ADD MSTORE PUSH2 0x4E6 DUP2 DUP5 PUSH2 0x453 JUMP JUMPDEST SWAP1 POP SWAP3 SWAP2 POP POP JUMP JUMPDEST PUSH1 0x0 PUSH1 0x40 MLOAD SWAP1 POP DUP2 DUP2 ADD DUP2 DUP2 LT PUSH8 0xFFFFFFFFFFFFFFFF DUP3 GT OR ISZERO PUSH2 0x515 JUMPI PUSH2 0x514 PUSH2 0x634 JUMP JUMPDEST JUMPDEST DUP1 PUSH1 0x40 MSTORE POP SWAP2 SWAP1 POP JUMP JUMPDEST PUSH1 0x0 PUSH8 0xFFFFFFFFFFFFFFFF DUP3 GT ISZERO PUSH2 0x53A JUMPI PUSH2 0x539 PUSH2 0x634 JUMP JUMPDEST JUMPDEST PUSH1 0x1F NOT PUSH1 0x1F DUP4 ADD AND SWAP1 POP PUSH1 0x20 DUP2 ADD SWAP1 POP SWAP2 SWAP1 POP JUMP JUMPDEST PUSH1 0x0 DUP2 SWAP1 POP PUSH1 0x20 DUP3 ADD SWAP1 POP SWAP2 SWAP1 POP JUMP JUMPDEST PUSH1 0x0 DUP2 MLOAD SWAP1 POP SWAP2 SWAP1 POP JUMP JUMPDEST PUSH1 0x0 PUSH1 0x20 DUP3 ADD SWAP1 POP SWAP2 SWAP1 POP JUMP JUMPDEST PUSH1 0x0 DUP3 DUP3 MSTORE PUSH1 0x20 DUP3 ADD SWAP1 POP SWAP3 SWAP2 POP POP JUMP JUMPDEST PUSH1 0x0 PUSH2 0x593 DUP3 PUSH2 0x59A JUMP JUMPDEST SWAP1 POP SWAP2 SWAP1 POP JUMP JUMPDEST PUSH1 0x0 PUSH20 0xFFFFFFFFFFFFFFFFFFFFFFFFFFFFFFFFFFFFFFFF DUP3 AND SWAP1 POP SWAP2 SWAP1 POP JUMP JUMPDEST PUSH1 0x0 DUP2 SWAP1 POP SWAP2 SWAP1 POP JUMP JUMPDEST DUP3 DUP2 DUP4 CALLDATACOPY PUSH1 0x0 DUP4 DUP4 ADD MSTORE POP POP POP JUMP JUMPDEST PUSH1 0x0 PUSH1 0x2 DUP3 DIV SWAP1 POP PUSH1 0x1 DUP3 AND DUP1 PUSH2 0x5EB JUMPI PUSH1 0x7F DUP3 AND SWAP2 POP JUMPDEST PUSH1 0x20 DUP3 LT DUP2 EQ ISZERO PUSH2 0x5FF JUMPI PUSH2 0x5FE PUSH2 0x605 JUMP JUMPDEST JUMPDEST POP SWAP2 SWAP1 POP JUMP JUMPDEST PUSH32 0x4E487B7100000000000000000000000000000000000000000000000000000000 PUSH1 0x0 MSTORE PUSH1 0x22 PUSH1 0x4 MSTORE PUSH1 0x24 PUSH1 0x0 REVERT JUMPDEST PUSH32 0x4E487B7100000000000000000000000000000000000000000000000000000000 PUSH1 0x0 MSTORE PUSH1 0x41 PUSH1 0x4 MSTORE PUSH1 0x24 PUSH1 0x0 REVERT JUMPDEST PUSH2 0x66C DUP2 PUSH2 0x5BA JUMP JUMPDEST DUP2 EQ PUSH2 0x677 JUMPI PUSH1 0x0 DUP1 REVERT JUMPDEST POP JUMP INVALID LOG2 PUSH5 0x6970667358 0x22 SLT KECCAK256 PUSH31 0xF2CF8F21A3683AB9F30B250E94DA45DBD90E8BC9760728B48BA33CD5F165B5 PUSH5 0x736F6C6343 STOP ADDMOD STOP STOP CALLER "
				},
				"gasEstimates": {
					"creation": {
						"codeDepositCost": "342400",
						"executionCost": "380",
						"totalCost": "342780"
					},
					"external": {
						"createUser(string,uint256)": "infinite",
						"getAllUsers()": "infinite",
						"userAddresses(uint256)": "2356"
					}
				},
				"methodIdentifiers": {
					"createUser(string,uint256)": "121ef243",
					"getAllUsers()": "e2842d79",
					"userAddresses(uint256)": "502c9bd5"
				}
			},
			"storageLayout": {
				"storage": [
					{
						"astId": 12,
						"contract": "contracts/sandbox.sol:Bar",
						"label": "userStructs",
						"offset": 0,
						"slot": "0",
						"type": "t_mapping(t_address,t_struct(User)7_storage)"
					},
					{
						"astId": 15,
						"contract": "contracts/sandbox.sol:Bar",
						"label": "userAddresses",
						"offset": 0,
						"slot": "1",
						"type": "t_array(t_address)dyn_storage"
					}
				],
				"types": {
					"t_address": {
						"encoding": "inplace",
						"label": "address",
						"numberOfBytes": "20"
					},
					"t_array(t_address)dyn_storage": {
						"base": "t_address",
						"encoding": "dynamic_array",
						"label": "address[]",
						"numberOfBytes": "32"
					},
					"t_mapping(t_address,t_struct(User)7_storage)": {
						"encoding": "mapping",
						"key": "t_address",
						"label": "mapping(address => struct Bar.User)",
						"numberOfBytes": "32",
						"value": "t_struct(User)7_storage"
					},
					"t_string_storage": {
						"encoding": "bytes",
						"label": "string",
						"numberOfBytes": "32"
					},
					"t_struct(User)7_storage": {
						"encoding": "inplace",
						"label": "struct Bar.User",
						"members": [
							{
								"astId": 4,
								"contract": "contracts/sandbox.sol:Bar",
								"label": "name",
								"offset": 0,
								"slot": "0",
								"type": "t_string_storage"
							},
							{
								"astId": 6,
								"contract": "contracts/sandbox.sol:Bar",
								"label": "level",
								"offset": 0,
								"slot": "1",
								"type": "t_uint256"
							}
						],
						"numberOfBytes": "64"
					},
					"t_uint256": {
						"encoding": "inplace",
						"label": "uint256",
						"numberOfBytes": "32"
					}
				}
			},
			"userdoc": {
				"kind": "user",
				"methods": {},
				"version": 1
			}
		}
	}
}