{
	"contracts/sandbox.sol": {
		"StructArrayInitWrong": {
			"abi": [
				{
					"inputs": [
						{
							"internalType": "uint256",
							"name": "_room_nums",
							"type": "uint256"
						}
					],
					"name": "createRoom",
					"outputs": [],
					"stateMutability": "nonpayable",
					"type": "function"
				},
				{
					"inputs": [
						{
							"internalType": "uint256",
							"name": "_roomid",
							"type": "uint256"
						}
					],
					"name": "getRoomStructure",
					"outputs": [
						{
							"components": [
								{
									"internalType": "uint256",
									"name": "id",
									"type": "uint256"
								},
								{
									"internalType": "uint256[]",
									"name": "room_nums",
									"type": "uint256[]"
								}
							],
							"internalType": "struct StructArrayInitWrong.Room",
							"name": "",
							"type": "tuple"
						}
					],
					"stateMutability": "view",
					"type": "function"
				},
				{
					"inputs": [],
					"name": "roomCount",
					"outputs": [
						{
							"internalType": "uint256",
							"name": "",
							"type": "uint256"
						}
					],
					"stateMutability": "view",
					"type": "function"
				}
			],
			"devdoc": {
				"kind": "dev",
				"methods": {},
				"version": 1
			},
			"evm": {
				"assembly": "    /* \"contracts/sandbox.sol\":95:1093  contract StructArrayInitWrong {\r... */\n  mstore(0x40, 0x80)\n  callvalue\n  dup1\n  iszero\n  tag_1\n  jumpi\n  0x00\n  dup1\n  revert\ntag_1:\n  pop\n  dataSize(sub_0)\n  dup1\n  dataOffset(sub_0)\n  0x00\n  codecopy\n  0x00\n  return\nstop\n\nsub_0: assembly {\n        /* \"contracts/sandbox.sol\":95:1093  contract StructArrayInitWrong {\r... */\n      mstore(0x40, 0x80)\n      callvalue\n      dup1\n      iszero\n      tag_1\n      jumpi\n      0x00\n      dup1\n      revert\n    tag_1:\n      pop\n      jumpi(tag_2, lt(calldatasize, 0x04))\n      shr(0xe0, calldataload(0x00))\n      dup1\n      0x5b35f921\n      eq\n      tag_3\n      jumpi\n      dup1\n      0xbbba8257\n      eq\n      tag_4\n      jumpi\n      dup1\n      0xdf93a4e3\n      eq\n      tag_5\n      jumpi\n    tag_2:\n      0x00\n      dup1\n      revert\n        /* \"contracts/sandbox.sol\":978:1090  function getRoomStructure(uint _roomid) public view returns(Room memory){\r... */\n    tag_3:\n      tag_6\n      0x04\n      dup1\n      calldatasize\n      sub\n      dup2\n      add\n      swap1\n      tag_7\n      swap2\n      swap1\n      tag_8\n      jump\t// in\n    tag_7:\n      tag_9\n      jump\t// in\n    tag_6:\n      mload(0x40)\n      tag_10\n      swap2\n      swap1\n      tag_11\n      jump\t// in\n    tag_10:\n      mload(0x40)\n      dup1\n      swap2\n      sub\n      swap1\n      return\n        /* \"contracts/sandbox.sol\":397:862  function createRoom(uint _room_nums) public {\r... */\n    tag_4:\n      tag_12\n      0x04\n      dup1\n      calldatasize\n      sub\n      dup2\n      add\n      swap1\n      tag_13\n      swap2\n      swap1\n      tag_8\n      jump\t// in\n    tag_13:\n      tag_14\n      jump\t// in\n    tag_12:\n      stop\n        /* \"contracts/sandbox.sol\":367:388  uint public roomCount */\n    tag_5:\n      tag_15\n      tag_16\n      jump\t// in\n    tag_15:\n      mload(0x40)\n      tag_17\n      swap2\n      swap1\n      tag_18\n      jump\t// in\n    tag_17:\n      mload(0x40)\n      dup1\n      swap2\n      sub\n      swap1\n      return\n        /* \"contracts/sandbox.sol\":978:1090  function getRoomStructure(uint _roomid) public view returns(Room memory){\r... */\n    tag_9:\n        /* \"contracts/sandbox.sol\":1038:1049  Room memory */\n      tag_19\n      tag_20\n      jump\t// in\n    tag_19:\n        /* \"contracts/sandbox.sol\":1068:1073  rooms */\n      0x00\n        /* \"contracts/sandbox.sol\":1074:1081  _roomid */\n      dup3\n        /* \"contracts/sandbox.sol\":1068:1082  rooms[_roomid] */\n      dup2\n      sload\n      dup2\n      lt\n      tag_22\n      jumpi\n      mstore(0x00, 0x4e487b7100000000000000000000000000000000000000000000000000000000)\n      mstore(0x04, 0x32)\n      revert(0x00, 0x24)\n    tag_22:\n      swap1\n      0x00\n      mstore\n      keccak256(0x00, 0x20)\n      swap1\n      0x02\n      mul\n      add\n        /* \"contracts/sandbox.sol\":1061:1082  return rooms[_roomid] */\n      mload(0x40)\n      dup1\n      0x40\n      add\n      0x40\n      mstore\n      swap1\n      dup2\n      0x00\n      dup3\n      add\n      sload\n      dup2\n      mstore\n      0x20\n      add\n      0x01\n      dup3\n      add\n      dup1\n      sload\n      dup1\n      0x20\n      mul\n      0x20\n      add\n      mload(0x40)\n      swap1\n      dup2\n      add\n      0x40\n      mstore\n      dup1\n      swap3\n      swap2\n      swap1\n      dup2\n      dup2\n      mstore\n      0x20\n      add\n      dup3\n      dup1\n      sload\n      dup1\n      iszero\n      tag_24\n      jumpi\n      0x20\n      mul\n      dup3\n      add\n      swap2\n      swap1\n      0x00\n      mstore\n      keccak256(0x00, 0x20)\n      swap1\n    tag_25:\n      dup2\n      sload\n      dup2\n      mstore\n      0x20\n      add\n      swap1\n      0x01\n      add\n      swap1\n      dup1\n      dup4\n      gt\n      tag_25\n      jumpi\n    tag_24:\n      pop\n      pop\n      pop\n      pop\n      pop\n      dup2\n      mstore\n      pop\n      pop\n      swap1\n      pop\n        /* \"contracts/sandbox.sol\":978:1090  function getRoomStructure(uint _roomid) public view returns(Room memory){\r... */\n      swap2\n      swap1\n      pop\n      jump\t// out\n        /* \"contracts/sandbox.sol\":397:862  function createRoom(uint _room_nums) public {\r... */\n    tag_14:\n        /* \"contracts/sandbox.sol\":586:594  room_nms */\n      0x01\n        /* \"contracts/sandbox.sol\":600:610  _room_nums */\n      dup2\n        /* \"contracts/sandbox.sol\":586:611  room_nms.push(_room_nums) */\n      swap1\n      dup1\n      0x01\n      dup2\n      sload\n      add\n      dup1\n      dup3\n      sstore\n      dup1\n      swap2\n      pop\n      pop\n      0x01\n      swap1\n      sub\n      swap1\n      0x00\n      mstore\n      keccak256(0x00, 0x20)\n      add\n      0x00\n      swap1\n      swap2\n      swap1\n      swap2\n      swap1\n      swap2\n      pop\n      sstore\n        /* \"contracts/sandbox.sol\":622:630  room_nms */\n      0x01\n        /* \"contracts/sandbox.sol\":636:646  _room_nums */\n      dup2\n        /* \"contracts/sandbox.sol\":622:647  room_nms.push(_room_nums) */\n      swap1\n      dup1\n      0x01\n      dup2\n      sload\n      add\n      dup1\n      dup3\n      sstore\n      dup1\n      swap2\n      pop\n      pop\n      0x01\n      swap1\n      sub\n      swap1\n      0x00\n      mstore\n      keccak256(0x00, 0x20)\n      add\n      0x00\n      swap1\n      swap2\n      swap1\n      swap2\n      swap1\n      swap2\n      pop\n      sstore\n        /* \"contracts/sandbox.sol\":658:666  room_nms */\n      0x01\n        /* \"contracts/sandbox.sol\":672:682  _room_nums */\n      dup2\n        /* \"contracts/sandbox.sol\":658:683  room_nms.push(_room_nums) */\n      swap1\n      dup1\n      0x01\n      dup2\n      sload\n      add\n      dup1\n      dup3\n      sstore\n      dup1\n      swap2\n      pop\n      pop\n      0x01\n      swap1\n      sub\n      swap1\n      0x00\n      mstore\n      keccak256(0x00, 0x20)\n      add\n      0x00\n      swap1\n      swap2\n      swap1\n      swap2\n      swap1\n      swap2\n      pop\n      sstore\n        /* \"contracts/sandbox.sol\":704:720  Room memory room */\n      0x00\n        /* \"contracts/sandbox.sol\":723:748  Room(roomCount, room_nms) */\n      mload(0x40)\n      dup1\n      0x40\n      add\n      0x40\n      mstore\n      dup1\n        /* \"contracts/sandbox.sol\":728:737  roomCount */\n      sload(0x03)\n        /* \"contracts/sandbox.sol\":723:748  Room(roomCount, room_nms) */\n      dup2\n      mstore\n      0x20\n      add\n        /* \"contracts/sandbox.sol\":739:747  room_nms */\n      0x01\n        /* \"contracts/sandbox.sol\":723:748  Room(roomCount, room_nms) */\n      dup1\n      sload\n      dup1\n      0x20\n      mul\n      0x20\n      add\n      mload(0x40)\n      swap1\n      dup2\n      add\n      0x40\n      mstore\n      dup1\n      swap3\n      swap2\n      swap1\n      dup2\n      dup2\n      mstore\n      0x20\n      add\n      dup3\n      dup1\n      sload\n      dup1\n      iszero\n      tag_30\n      jumpi\n      0x20\n      mul\n      dup3\n      add\n      swap2\n      swap1\n      0x00\n      mstore\n      keccak256(0x00, 0x20)\n      swap1\n    tag_31:\n      dup2\n      sload\n      dup2\n      mstore\n      0x20\n      add\n      swap1\n      0x01\n      add\n      swap1\n      dup1\n      dup4\n      gt\n      tag_31\n      jumpi\n    tag_30:\n      pop\n      pop\n      pop\n      pop\n      pop\n      dup2\n      mstore\n      pop\n        /* \"contracts/sandbox.sol\":704:748  Room memory room = Room(roomCount, room_nms) */\n      swap1\n      pop\n        /* \"contracts/sandbox.sol\":816:821  rooms */\n      0x00\n        /* \"contracts/sandbox.sol\":827:831  room */\n      dup2\n        /* \"contracts/sandbox.sol\":816:832  rooms.push(room) */\n      swap1\n      dup1\n      0x01\n      dup2\n      sload\n      add\n      dup1\n      dup3\n      sstore\n      dup1\n      swap2\n      pop\n      pop\n      0x01\n      swap1\n      sub\n      swap1\n      0x00\n      mstore\n      keccak256(0x00, 0x20)\n      swap1\n      0x02\n      mul\n      add\n      0x00\n      swap1\n      swap2\n      swap1\n      swap2\n      swap1\n      swap2\n      pop\n      0x00\n      dup3\n      add\n      mload\n      dup2\n      0x00\n      add\n      sstore\n      0x20\n      dup3\n      add\n      mload\n      dup2\n      0x01\n      add\n      swap1\n      dup1\n      mload\n      swap1\n      0x20\n      add\n      swap1\n      tag_33\n      swap3\n      swap2\n      swap1\n      tag_34\n      jump\t// in\n    tag_33:\n      pop\n      pop\n      pop\n        /* \"contracts/sandbox.sol\":843:852  roomCount */\n      0x03\n      0x00\n        /* \"contracts/sandbox.sol\":843:854  roomCount++ */\n      dup2\n      sload\n      dup1\n      swap3\n      swap2\n      swap1\n      tag_35\n      swap1\n      tag_36\n      jump\t// in\n    tag_35:\n      swap2\n      swap1\n      pop\n      sstore\n      pop\n        /* \"contracts/sandbox.sol\":397:862  function createRoom(uint _room_nums) public {\r... */\n      pop\n      pop\n      jump\t// out\n        /* \"contracts/sandbox.sol\":367:388  uint public roomCount */\n    tag_16:\n      sload(0x03)\n      dup2\n      jump\t// out\n    tag_20:\n      mload(0x40)\n      dup1\n      0x40\n      add\n      0x40\n      mstore\n      dup1\n      0x00\n      dup2\n      mstore\n      0x20\n      add\n      0x60\n      dup2\n      mstore\n      pop\n      swap1\n      jump\t// out\n    tag_34:\n      dup3\n      dup1\n      sload\n      dup3\n      dup3\n      sstore\n      swap1\n      0x00\n      mstore\n      keccak256(0x00, 0x20)\n      swap1\n      dup2\n      add\n      swap3\n      dup3\n      iszero\n      tag_37\n      jumpi\n      swap2\n      0x20\n      mul\n      dup3\n      add\n    tag_38:\n      dup3\n      dup2\n      gt\n      iszero\n      tag_39\n      jumpi\n      dup3\n      mload\n      dup3\n      sstore\n      swap2\n      0x20\n      add\n      swap2\n      swap1\n      0x01\n      add\n      swap1\n      jump(tag_38)\n    tag_39:\n    tag_37:\n      pop\n      swap1\n      pop\n      tag_40\n      swap2\n      swap1\n      tag_41\n      jump\t// in\n    tag_40:\n      pop\n      swap1\n      jump\t// out\n    tag_41:\n    tag_42:\n      dup1\n      dup3\n      gt\n      iszero\n      tag_43\n      jumpi\n      0x00\n      dup2\n      0x00\n      swap1\n      sstore\n      pop\n      0x01\n      add\n      jump(tag_42)\n    tag_43:\n      pop\n      swap1\n      jump\t// out\n        /* \"#utility.yul\":7:146   */\n    tag_45:\n      0x00\n        /* \"#utility.yul\":91:97   */\n      dup2\n        /* \"#utility.yul\":78:98   */\n      calldataload\n        /* \"#utility.yul\":69:98   */\n      swap1\n      pop\n        /* \"#utility.yul\":107:140   */\n      tag_47\n        /* \"#utility.yul\":134:139   */\n      dup2\n        /* \"#utility.yul\":107:140   */\n      tag_48\n      jump\t// in\n    tag_47:\n        /* \"#utility.yul\":59:146   */\n      swap3\n      swap2\n      pop\n      pop\n      jump\t// out\n        /* \"#utility.yul\":152:414   */\n    tag_8:\n      0x00\n        /* \"#utility.yul\":260:262   */\n      0x20\n        /* \"#utility.yul\":248:257   */\n      dup3\n        /* \"#utility.yul\":239:246   */\n      dup5\n        /* \"#utility.yul\":235:258   */\n      sub\n        /* \"#utility.yul\":231:263   */\n      slt\n        /* \"#utility.yul\":228:230   */\n      iszero\n      tag_50\n      jumpi\n        /* \"#utility.yul\":276:277   */\n      0x00\n        /* \"#utility.yul\":273:274   */\n      dup1\n        /* \"#utility.yul\":266:278   */\n      revert\n        /* \"#utility.yul\":228:230   */\n    tag_50:\n        /* \"#utility.yul\":319:320   */\n      0x00\n        /* \"#utility.yul\":344:397   */\n      tag_51\n        /* \"#utility.yul\":389:396   */\n      dup5\n        /* \"#utility.yul\":380:386   */\n      dup3\n        /* \"#utility.yul\":369:378   */\n      dup6\n        /* \"#utility.yul\":365:387   */\n      add\n        /* \"#utility.yul\":344:397   */\n      tag_45\n      jump\t// in\n    tag_51:\n        /* \"#utility.yul\":334:397   */\n      swap2\n      pop\n        /* \"#utility.yul\":290:407   */\n      pop\n        /* \"#utility.yul\":218:414   */\n      swap3\n      swap2\n      pop\n      pop\n      jump\t// out\n        /* \"#utility.yul\":420:599   */\n    tag_52:\n      0x00\n        /* \"#utility.yul\":510:556   */\n      tag_54\n        /* \"#utility.yul\":552:555   */\n      dup4\n        /* \"#utility.yul\":544:550   */\n      dup4\n        /* \"#utility.yul\":510:556   */\n      tag_55\n      jump\t// in\n    tag_54:\n        /* \"#utility.yul\":588:592   */\n      0x20\n        /* \"#utility.yul\":583:586   */\n      dup4\n        /* \"#utility.yul\":579:593   */\n      add\n        /* \"#utility.yul\":565:593   */\n      swap1\n      pop\n        /* \"#utility.yul\":500:599   */\n      swap3\n      swap2\n      pop\n      pop\n      jump\t// out\n        /* \"#utility.yul\":635:1347   */\n    tag_56:\n      0x00\n        /* \"#utility.yul\":773:827   */\n      tag_58\n        /* \"#utility.yul\":821:826   */\n      dup3\n        /* \"#utility.yul\":773:827   */\n      tag_59\n      jump\t// in\n    tag_58:\n        /* \"#utility.yul\":843:919   */\n      tag_60\n        /* \"#utility.yul\":912:918   */\n      dup2\n        /* \"#utility.yul\":907:910   */\n      dup6\n        /* \"#utility.yul\":843:919   */\n      tag_61\n      jump\t// in\n    tag_60:\n        /* \"#utility.yul\":836:919   */\n      swap4\n      pop\n        /* \"#utility.yul\":943:999   */\n      tag_62\n        /* \"#utility.yul\":993:998   */\n      dup4\n        /* \"#utility.yul\":943:999   */\n      tag_63\n      jump\t// in\n    tag_62:\n        /* \"#utility.yul\":1022:1029   */\n      dup1\n        /* \"#utility.yul\":1053:1054   */\n      0x00\n        /* \"#utility.yul\":1038:1322   */\n    tag_64:\n        /* \"#utility.yul\":1063:1069   */\n      dup4\n        /* \"#utility.yul\":1060:1061   */\n      dup2\n        /* \"#utility.yul\":1057:1070   */\n      lt\n        /* \"#utility.yul\":1038:1322   */\n      iszero\n      tag_66\n      jumpi\n        /* \"#utility.yul\":1139:1145   */\n      dup2\n        /* \"#utility.yul\":1133:1146   */\n      mload\n        /* \"#utility.yul\":1166:1229   */\n      tag_67\n        /* \"#utility.yul\":1225:1228   */\n      dup9\n        /* \"#utility.yul\":1210:1223   */\n      dup3\n        /* \"#utility.yul\":1166:1229   */\n      tag_52\n      jump\t// in\n    tag_67:\n        /* \"#utility.yul\":1159:1229   */\n      swap8\n      pop\n        /* \"#utility.yul\":1252:1312   */\n      tag_68\n        /* \"#utility.yul\":1305:1311   */\n      dup4\n        /* \"#utility.yul\":1252:1312   */\n      tag_69\n      jump\t// in\n    tag_68:\n        /* \"#utility.yul\":1242:1312   */\n      swap3\n      pop\n        /* \"#utility.yul\":1098:1322   */\n      pop\n        /* \"#utility.yul\":1085:1086   */\n      0x01\n        /* \"#utility.yul\":1082:1083   */\n      dup2\n        /* \"#utility.yul\":1078:1087   */\n      add\n        /* \"#utility.yul\":1073:1087   */\n      swap1\n      pop\n        /* \"#utility.yul\":1038:1322   */\n      jump(tag_64)\n    tag_66:\n        /* \"#utility.yul\":1042:1056   */\n      pop\n        /* \"#utility.yul\":1338:1341   */\n      dup6\n        /* \"#utility.yul\":1331:1341   */\n      swap4\n      pop\n        /* \"#utility.yul\":749:1347   */\n      pop\n      pop\n      pop\n      swap3\n      swap2\n      pop\n      pop\n      jump\t// out\n        /* \"#utility.yul\":1429:2056   */\n    tag_70:\n      0x00\n        /* \"#utility.yul\":1572:1576   */\n      0x40\n        /* \"#utility.yul\":1567:1570   */\n      dup4\n        /* \"#utility.yul\":1563:1577   */\n      add\n        /* \"#utility.yul\":1657:1661   */\n      0x00\n        /* \"#utility.yul\":1650:1655   */\n      dup4\n        /* \"#utility.yul\":1646:1662   */\n      add\n        /* \"#utility.yul\":1640:1663   */\n      mload\n        /* \"#utility.yul\":1676:1739   */\n      tag_72\n        /* \"#utility.yul\":1733:1737   */\n      0x00\n        /* \"#utility.yul\":1728:1731   */\n      dup7\n        /* \"#utility.yul\":1724:1738   */\n      add\n        /* \"#utility.yul\":1710:1722   */\n      dup3\n        /* \"#utility.yul\":1676:1739   */\n      tag_55\n      jump\t// in\n    tag_72:\n        /* \"#utility.yul\":1587:1749   */\n      pop\n        /* \"#utility.yul\":1836:1840   */\n      0x20\n        /* \"#utility.yul\":1829:1834   */\n      dup4\n        /* \"#utility.yul\":1825:1841   */\n      add\n        /* \"#utility.yul\":1819:1842   */\n      mload\n        /* \"#utility.yul\":1889:1892   */\n      dup5\n        /* \"#utility.yul\":1883:1887   */\n      dup3\n        /* \"#utility.yul\":1879:1893   */\n      sub\n        /* \"#utility.yul\":1872:1876   */\n      0x20\n        /* \"#utility.yul\":1867:1870   */\n      dup7\n        /* \"#utility.yul\":1863:1877   */\n      add\n        /* \"#utility.yul\":1856:1894   */\n      mstore\n        /* \"#utility.yul\":1915:2018   */\n      tag_73\n        /* \"#utility.yul\":2013:2017   */\n      dup3\n        /* \"#utility.yul\":1999:2011   */\n      dup3\n        /* \"#utility.yul\":1915:2018   */\n      tag_56\n      jump\t// in\n    tag_73:\n        /* \"#utility.yul\":1907:2018   */\n      swap2\n      pop\n        /* \"#utility.yul\":1759:2029   */\n      pop\n        /* \"#utility.yul\":2046:2050   */\n      dup1\n        /* \"#utility.yul\":2039:2050   */\n      swap2\n      pop\n        /* \"#utility.yul\":1541:2056   */\n      pop\n      swap3\n      swap2\n      pop\n      pop\n      jump\t// out\n        /* \"#utility.yul\":2062:2170   */\n    tag_55:\n        /* \"#utility.yul\":2139:2163   */\n      tag_75\n        /* \"#utility.yul\":2157:2162   */\n      dup2\n        /* \"#utility.yul\":2139:2163   */\n      tag_76\n      jump\t// in\n    tag_75:\n        /* \"#utility.yul\":2134:2137   */\n      dup3\n        /* \"#utility.yul\":2127:2164   */\n      mstore\n        /* \"#utility.yul\":2117:2170   */\n      pop\n      pop\n      jump\t// out\n        /* \"#utility.yul\":2176:2294   */\n    tag_77:\n        /* \"#utility.yul\":2263:2287   */\n      tag_79\n        /* \"#utility.yul\":2281:2286   */\n      dup2\n        /* \"#utility.yul\":2263:2287   */\n      tag_76\n      jump\t// in\n    tag_79:\n        /* \"#utility.yul\":2258:2261   */\n      dup3\n        /* \"#utility.yul\":2251:2288   */\n      mstore\n        /* \"#utility.yul\":2241:2294   */\n      pop\n      pop\n      jump\t// out\n        /* \"#utility.yul\":2300:2649   */\n    tag_11:\n      0x00\n        /* \"#utility.yul\":2469:2471   */\n      0x20\n        /* \"#utility.yul\":2458:2467   */\n      dup3\n        /* \"#utility.yul\":2454:2472   */\n      add\n        /* \"#utility.yul\":2446:2472   */\n      swap1\n      pop\n        /* \"#utility.yul\":2518:2527   */\n      dup2\n        /* \"#utility.yul\":2512:2516   */\n      dup2\n        /* \"#utility.yul\":2508:2528   */\n      sub\n        /* \"#utility.yul\":2504:2505   */\n      0x00\n        /* \"#utility.yul\":2493:2502   */\n      dup4\n        /* \"#utility.yul\":2489:2506   */\n      add\n        /* \"#utility.yul\":2482:2529   */\n      mstore\n        /* \"#utility.yul\":2546:2642   */\n      tag_81\n        /* \"#utility.yul\":2637:2641   */\n      dup2\n        /* \"#utility.yul\":2628:2634   */\n      dup5\n        /* \"#utility.yul\":2546:2642   */\n      tag_70\n      jump\t// in\n    tag_81:\n        /* \"#utility.yul\":2538:2642   */\n      swap1\n      pop\n        /* \"#utility.yul\":2436:2649   */\n      swap3\n      swap2\n      pop\n      pop\n      jump\t// out\n        /* \"#utility.yul\":2655:2877   */\n    tag_18:\n      0x00\n        /* \"#utility.yul\":2786:2788   */\n      0x20\n        /* \"#utility.yul\":2775:2784   */\n      dup3\n        /* \"#utility.yul\":2771:2789   */\n      add\n        /* \"#utility.yul\":2763:2789   */\n      swap1\n      pop\n        /* \"#utility.yul\":2799:2870   */\n      tag_83\n        /* \"#utility.yul\":2867:2868   */\n      0x00\n        /* \"#utility.yul\":2856:2865   */\n      dup4\n        /* \"#utility.yul\":2852:2869   */\n      add\n        /* \"#utility.yul\":2843:2849   */\n      dup5\n        /* \"#utility.yul\":2799:2870   */\n      tag_77\n      jump\t// in\n    tag_83:\n        /* \"#utility.yul\":2753:2877   */\n      swap3\n      swap2\n      pop\n      pop\n      jump\t// out\n        /* \"#utility.yul\":2883:3015   */\n    tag_63:\n      0x00\n        /* \"#utility.yul\":2973:2976   */\n      dup2\n        /* \"#utility.yul\":2965:2976   */\n      swap1\n      pop\n        /* \"#utility.yul\":3003:3007   */\n      0x20\n        /* \"#utility.yul\":2998:3001   */\n      dup3\n        /* \"#utility.yul\":2994:3008   */\n      add\n        /* \"#utility.yul\":2986:3008   */\n      swap1\n      pop\n        /* \"#utility.yul\":2955:3015   */\n      swap2\n      swap1\n      pop\n      jump\t// out\n        /* \"#utility.yul\":3021:3135   */\n    tag_59:\n      0x00\n        /* \"#utility.yul\":3122:3127   */\n      dup2\n        /* \"#utility.yul\":3116:3128   */\n      mload\n        /* \"#utility.yul\":3106:3128   */\n      swap1\n      pop\n        /* \"#utility.yul\":3095:3135   */\n      swap2\n      swap1\n      pop\n      jump\t// out\n        /* \"#utility.yul\":3141:3254   */\n    tag_69:\n      0x00\n        /* \"#utility.yul\":3243:3247   */\n      0x20\n        /* \"#utility.yul\":3238:3241   */\n      dup3\n        /* \"#utility.yul\":3234:3248   */\n      add\n        /* \"#utility.yul\":3226:3248   */\n      swap1\n      pop\n        /* \"#utility.yul\":3216:3254   */\n      swap2\n      swap1\n      pop\n      jump\t// out\n        /* \"#utility.yul\":3260:3434   */\n    tag_61:\n      0x00\n        /* \"#utility.yul\":3383:3389   */\n      dup3\n        /* \"#utility.yul\":3378:3381   */\n      dup3\n        /* \"#utility.yul\":3371:3390   */\n      mstore\n        /* \"#utility.yul\":3423:3427   */\n      0x20\n        /* \"#utility.yul\":3418:3421   */\n      dup3\n        /* \"#utility.yul\":3414:3428   */\n      add\n        /* \"#utility.yul\":3399:3428   */\n      swap1\n      pop\n        /* \"#utility.yul\":3361:3434   */\n      swap3\n      swap2\n      pop\n      pop\n      jump\t// out\n        /* \"#utility.yul\":3440:3517   */\n    tag_76:\n      0x00\n        /* \"#utility.yul\":3506:3511   */\n      dup2\n        /* \"#utility.yul\":3495:3511   */\n      swap1\n      pop\n        /* \"#utility.yul\":3485:3517   */\n      swap2\n      swap1\n      pop\n      jump\t// out\n        /* \"#utility.yul\":3523:3756   */\n    tag_36:\n      0x00\n        /* \"#utility.yul\":3585:3609   */\n      tag_90\n        /* \"#utility.yul\":3603:3608   */\n      dup3\n        /* \"#utility.yul\":3585:3609   */\n      tag_76\n      jump\t// in\n    tag_90:\n        /* \"#utility.yul\":3576:3609   */\n      swap2\n      pop\n        /* \"#utility.yul\":3631:3697   */\n      0xffffffffffffffffffffffffffffffffffffffffffffffffffffffffffffffff\n        /* \"#utility.yul\":3624:3629   */\n      dup3\n        /* \"#utility.yul\":3621:3698   */\n      eq\n        /* \"#utility.yul\":3618:3620   */\n      iszero\n      tag_91\n      jumpi\n        /* \"#utility.yul\":3701:3719   */\n      tag_92\n      tag_93\n      jump\t// in\n    tag_92:\n        /* \"#utility.yul\":3618:3620   */\n    tag_91:\n        /* \"#utility.yul\":3748:3749   */\n      0x01\n        /* \"#utility.yul\":3741:3746   */\n      dup3\n        /* \"#utility.yul\":3737:3750   */\n      add\n        /* \"#utility.yul\":3730:3750   */\n      swap1\n      pop\n        /* \"#utility.yul\":3566:3756   */\n      swap2\n      swap1\n      pop\n      jump\t// out\n        /* \"#utility.yul\":3762:3942   */\n    tag_93:\n        /* \"#utility.yul\":3810:3887   */\n      0x4e487b7100000000000000000000000000000000000000000000000000000000\n        /* \"#utility.yul\":3807:3808   */\n      0x00\n        /* \"#utility.yul\":3800:3888   */\n      mstore\n        /* \"#utility.yul\":3907:3911   */\n      0x11\n        /* \"#utility.yul\":3904:3905   */\n      0x04\n        /* \"#utility.yul\":3897:3912   */\n      mstore\n        /* \"#utility.yul\":3931:3935   */\n      0x24\n        /* \"#utility.yul\":3928:3929   */\n      0x00\n        /* \"#utility.yul\":3921:3936   */\n      revert\n        /* \"#utility.yul\":3948:4070   */\n    tag_48:\n        /* \"#utility.yul\":4021:4045   */\n      tag_96\n        /* \"#utility.yul\":4039:4044   */\n      dup2\n        /* \"#utility.yul\":4021:4045   */\n      tag_76\n      jump\t// in\n    tag_96:\n        /* \"#utility.yul\":4014:4019   */\n      dup2\n        /* \"#utility.yul\":4011:4046   */\n      eq\n        /* \"#utility.yul\":4001:4003   */\n      tag_97\n      jumpi\n        /* \"#utility.yul\":4060:4061   */\n      0x00\n        /* \"#utility.yul\":4057:4058   */\n      dup1\n        /* \"#utility.yul\":4050:4062   */\n      revert\n        /* \"#utility.yul\":4001:4003   */\n    tag_97:\n        /* \"#utility.yul\":3991:4070   */\n      pop\n      jump\t// out\n\n    auxdata: 0xa264697066735822122064dcaf7d878388802b240f0a9863f2a69359f817af153fb121e5d2d3333d0dc264736f6c63430008000033\n}\n",
				"bytecode": {
					"linkReferences": {},
					"object": "608060405234801561001057600080fd5b506105a9806100206000396000f3fe608060405234801561001057600080fd5b50600436106100415760003560e01c80635b35f92114610046578063bbba825714610076578063df93a4e314610092575b600080fd5b610060600480360381019061005b919061036a565b6100b0565b60405161006d9190610464565b60405180910390f35b610090600480360381019061008b919061036a565b610174565b005b61009a6102cb565b6040516100a79190610486565b60405180910390f35b6100b86102d1565b600082815481106100f2577f4e487b7100000000000000000000000000000000000000000000000000000000600052603260045260246000fd5b9060005260206000209060020201604051806040016040529081600082015481526020016001820180548060200260200160405190810160405280929190818152602001828054801561016457602002820191906000526020600020905b815481526020019060010190808311610150575b5050505050815250509050919050565b600181908060018154018082558091505060019003906000526020600020016000909190919091505560018190806001815401808255809150506001900390600052602060002001600090919091909150556001819080600181540180825580915050600190039060005260206000200160009091909190915055600060405180604001604052806003548152602001600180548060200260200160405190810160405280929190818152602001828054801561025057602002820191906000526020600020905b81548152602001906001019080831161023c575b5050505050815250905060008190806001815401808255809150506001900390600052602060002090600202016000909190919091506000820151816000015560208201518160010190805190602001906102ac9291906102eb565b505050600360008154809291906102c2906104e4565b91905055505050565b60035481565b604051806040016040528060008152602001606081525090565b828054828255906000526020600020908101928215610327579160200282015b8281111561032657825182559160200191906001019061030b565b5b5090506103349190610338565b5090565b5b80821115610351576000816000905550600101610339565b5090565b6000813590506103648161055c565b92915050565b60006020828403121561037c57600080fd5b600061038a84828501610355565b91505092915050565b600061039f8383610446565b60208301905092915050565b60006103b6826104b1565b6103c081856104c9565b93506103cb836104a1565b8060005b838110156103fc5781516103e38882610393565b97506103ee836104bc565b9250506001810190506103cf565b5085935050505092915050565b60006040830160008301516104216000860182610446565b506020830151848203602086015261043982826103ab565b9150508091505092915050565b61044f816104da565b82525050565b61045e816104da565b82525050565b6000602082019050818103600083015261047e8184610409565b905092915050565b600060208201905061049b6000830184610455565b92915050565b6000819050602082019050919050565b600081519050919050565b6000602082019050919050565b600082825260208201905092915050565b6000819050919050565b60006104ef826104da565b91507fffffffffffffffffffffffffffffffffffffffffffffffffffffffffffffffff8214156105225761052161052d565b5b600182019050919050565b7f4e487b7100000000000000000000000000000000000000000000000000000000600052601160045260246000fd5b610565816104da565b811461057057600080fd5b5056fea264697066735822122064dcaf7d878388802b240f0a9863f2a69359f817af153fb121e5d2d3333d0dc264736f6c63430008000033",
					"opcodes": "PUSH1 0x80 PUSH1 0x40 MSTORE CALLVALUE DUP1 ISZERO PUSH2 0x10 JUMPI PUSH1 0x0 DUP1 REVERT JUMPDEST POP PUSH2 0x5A9 DUP1 PUSH2 0x20 PUSH1 0x0 CODECOPY PUSH1 0x0 RETURN INVALID PUSH1 0x80 PUSH1 0x40 MSTORE CALLVALUE DUP1 ISZERO PUSH2 0x10 JUMPI PUSH1 0x0 DUP1 REVERT JUMPDEST POP PUSH1 0x4 CALLDATASIZE LT PUSH2 0x41 JUMPI PUSH1 0x0 CALLDATALOAD PUSH1 0xE0 SHR DUP1 PUSH4 0x5B35F921 EQ PUSH2 0x46 JUMPI DUP1 PUSH4 0xBBBA8257 EQ PUSH2 0x76 JUMPI DUP1 PUSH4 0xDF93A4E3 EQ PUSH2 0x92 JUMPI JUMPDEST PUSH1 0x0 DUP1 REVERT JUMPDEST PUSH2 0x60 PUSH1 0x4 DUP1 CALLDATASIZE SUB DUP2 ADD SWAP1 PUSH2 0x5B SWAP2 SWAP1 PUSH2 0x36A JUMP JUMPDEST PUSH2 0xB0 JUMP JUMPDEST PUSH1 0x40 MLOAD PUSH2 0x6D SWAP2 SWAP1 PUSH2 0x464 JUMP JUMPDEST PUSH1 0x40 MLOAD DUP1 SWAP2 SUB SWAP1 RETURN JUMPDEST PUSH2 0x90 PUSH1 0x4 DUP1 CALLDATASIZE SUB DUP2 ADD SWAP1 PUSH2 0x8B SWAP2 SWAP1 PUSH2 0x36A JUMP JUMPDEST PUSH2 0x174 JUMP JUMPDEST STOP JUMPDEST PUSH2 0x9A PUSH2 0x2CB JUMP JUMPDEST PUSH1 0x40 MLOAD PUSH2 0xA7 SWAP2 SWAP1 PUSH2 0x486 JUMP JUMPDEST PUSH1 0x40 MLOAD DUP1 SWAP2 SUB SWAP1 RETURN JUMPDEST PUSH2 0xB8 PUSH2 0x2D1 JUMP JUMPDEST PUSH1 0x0 DUP3 DUP2 SLOAD DUP2 LT PUSH2 0xF2 JUMPI PUSH32 0x4E487B7100000000000000000000000000000000000000000000000000000000 PUSH1 0x0 MSTORE PUSH1 0x32 PUSH1 0x4 MSTORE PUSH1 0x24 PUSH1 0x0 REVERT JUMPDEST SWAP1 PUSH1 0x0 MSTORE PUSH1 0x20 PUSH1 0x0 KECCAK256 SWAP1 PUSH1 0x2 MUL ADD PUSH1 0x40 MLOAD DUP1 PUSH1 0x40 ADD PUSH1 0x40 MSTORE SWAP1 DUP2 PUSH1 0x0 DUP3 ADD SLOAD DUP2 MSTORE PUSH1 0x20 ADD PUSH1 0x1 DUP3 ADD DUP1 SLOAD DUP1 PUSH1 0x20 MUL PUSH1 0x20 ADD PUSH1 0x40 MLOAD SWAP1 DUP2 ADD PUSH1 0x40 MSTORE DUP1 SWAP3 SWAP2 SWAP1 DUP2 DUP2 MSTORE PUSH1 0x20 ADD DUP3 DUP1 SLOAD DUP1 ISZERO PUSH2 0x164 JUMPI PUSH1 0x20 MUL DUP3 ADD SWAP2 SWAP1 PUSH1 0x0 MSTORE PUSH1 0x20 PUSH1 0x0 KECCAK256 SWAP1 JUMPDEST DUP2 SLOAD DUP2 MSTORE PUSH1 0x20 ADD SWAP1 PUSH1 0x1 ADD SWAP1 DUP1 DUP4 GT PUSH2 0x150 JUMPI JUMPDEST POP POP POP POP POP DUP2 MSTORE POP POP SWAP1 POP SWAP2 SWAP1 POP JUMP JUMPDEST PUSH1 0x1 DUP2 SWAP1 DUP1 PUSH1 0x1 DUP2 SLOAD ADD DUP1 DUP3 SSTORE DUP1 SWAP2 POP POP PUSH1 0x1 SWAP1 SUB SWAP1 PUSH1 0x0 MSTORE PUSH1 0x20 PUSH1 0x0 KECCAK256 ADD PUSH1 0x0 SWAP1 SWAP2 SWAP1 SWAP2 SWAP1 SWAP2 POP SSTORE PUSH1 0x1 DUP2 SWAP1 DUP1 PUSH1 0x1 DUP2 SLOAD ADD DUP1 DUP3 SSTORE DUP1 SWAP2 POP POP PUSH1 0x1 SWAP1 SUB SWAP1 PUSH1 0x0 MSTORE PUSH1 0x20 PUSH1 0x0 KECCAK256 ADD PUSH1 0x0 SWAP1 SWAP2 SWAP1 SWAP2 SWAP1 SWAP2 POP SSTORE PUSH1 0x1 DUP2 SWAP1 DUP1 PUSH1 0x1 DUP2 SLOAD ADD DUP1 DUP3 SSTORE DUP1 SWAP2 POP POP PUSH1 0x1 SWAP1 SUB SWAP1 PUSH1 0x0 MSTORE PUSH1 0x20 PUSH1 0x0 KECCAK256 ADD PUSH1 0x0 SWAP1 SWAP2 SWAP1 SWAP2 SWAP1 SWAP2 POP SSTORE PUSH1 0x0 PUSH1 0x40 MLOAD DUP1 PUSH1 0x40 ADD PUSH1 0x40 MSTORE DUP1 PUSH1 0x3 SLOAD DUP2 MSTORE PUSH1 0x20 ADD PUSH1 0x1 DUP1 SLOAD DUP1 PUSH1 0x20 MUL PUSH1 0x20 ADD PUSH1 0x40 MLOAD SWAP1 DUP2 ADD PUSH1 0x40 MSTORE DUP1 SWAP3 SWAP2 SWAP1 DUP2 DUP2 MSTORE PUSH1 0x20 ADD DUP3 DUP1 SLOAD DUP1 ISZERO PUSH2 0x250 JUMPI PUSH1 0x20 MUL DUP3 ADD SWAP2 SWAP1 PUSH1 0x0 MSTORE PUSH1 0x20 PUSH1 0x0 KECCAK256 SWAP1 JUMPDEST DUP2 SLOAD DUP2 MSTORE PUSH1 0x20 ADD SWAP1 PUSH1 0x1 ADD SWAP1 DUP1 DUP4 GT PUSH2 0x23C JUMPI JUMPDEST POP POP POP POP POP DUP2 MSTORE POP SWAP1 POP PUSH1 0x0 DUP2 SWAP1 DUP1 PUSH1 0x1 DUP2 SLOAD ADD DUP1 DUP3 SSTORE DUP1 SWAP2 POP POP PUSH1 0x1 SWAP1 SUB SWAP1 PUSH1 0x0 MSTORE PUSH1 0x20 PUSH1 0x0 KECCAK256 SWAP1 PUSH1 0x2 MUL ADD PUSH1 0x0 SWAP1 SWAP2 SWAP1 SWAP2 SWAP1 SWAP2 POP PUSH1 0x0 DUP3 ADD MLOAD DUP2 PUSH1 0x0 ADD SSTORE PUSH1 0x20 DUP3 ADD MLOAD DUP2 PUSH1 0x1 ADD SWAP1 DUP1 MLOAD SWAP1 PUSH1 0x20 ADD SWAP1 PUSH2 0x2AC SWAP3 SWAP2 SWAP1 PUSH2 0x2EB JUMP JUMPDEST POP POP POP PUSH1 0x3 PUSH1 0x0 DUP2 SLOAD DUP1 SWAP3 SWAP2 SWAP1 PUSH2 0x2C2 SWAP1 PUSH2 0x4E4 JUMP JUMPDEST SWAP2 SWAP1 POP SSTORE POP POP POP JUMP JUMPDEST PUSH1 0x3 SLOAD DUP2 JUMP JUMPDEST PUSH1 0x40 MLOAD DUP1 PUSH1 0x40 ADD PUSH1 0x40 MSTORE DUP1 PUSH1 0x0 DUP2 MSTORE PUSH1 0x20 ADD PUSH1 0x60 DUP2 MSTORE POP SWAP1 JUMP JUMPDEST DUP3 DUP1 SLOAD DUP3 DUP3 SSTORE SWAP1 PUSH1 0x0 MSTORE PUSH1 0x20 PUSH1 0x0 KECCAK256 SWAP1 DUP2 ADD SWAP3 DUP3 ISZERO PUSH2 0x327 JUMPI SWAP2 PUSH1 0x20 MUL DUP3 ADD JUMPDEST DUP3 DUP2 GT ISZERO PUSH2 0x326 JUMPI DUP3 MLOAD DUP3 SSTORE SWAP2 PUSH1 0x20 ADD SWAP2 SWAP1 PUSH1 0x1 ADD SWAP1 PUSH2 0x30B JUMP JUMPDEST JUMPDEST POP SWAP1 POP PUSH2 0x334 SWAP2 SWAP1 PUSH2 0x338 JUMP JUMPDEST POP SWAP1 JUMP JUMPDEST JUMPDEST DUP1 DUP3 GT ISZERO PUSH2 0x351 JUMPI PUSH1 0x0 DUP2 PUSH1 0x0 SWAP1 SSTORE POP PUSH1 0x1 ADD PUSH2 0x339 JUMP JUMPDEST POP SWAP1 JUMP JUMPDEST PUSH1 0x0 DUP2 CALLDATALOAD SWAP1 POP PUSH2 0x364 DUP2 PUSH2 0x55C JUMP JUMPDEST SWAP3 SWAP2 POP POP JUMP JUMPDEST PUSH1 0x0 PUSH1 0x20 DUP3 DUP5 SUB SLT ISZERO PUSH2 0x37C JUMPI PUSH1 0x0 DUP1 REVERT JUMPDEST PUSH1 0x0 PUSH2 0x38A DUP5 DUP3 DUP6 ADD PUSH2 0x355 JUMP JUMPDEST SWAP2 POP POP SWAP3 SWAP2 POP POP JUMP JUMPDEST PUSH1 0x0 PUSH2 0x39F DUP4 DUP4 PUSH2 0x446 JUMP JUMPDEST PUSH1 0x20 DUP4 ADD SWAP1 POP SWAP3 SWAP2 POP POP JUMP JUMPDEST PUSH1 0x0 PUSH2 0x3B6 DUP3 PUSH2 0x4B1 JUMP JUMPDEST PUSH2 0x3C0 DUP2 DUP6 PUSH2 0x4C9 JUMP JUMPDEST SWAP4 POP PUSH2 0x3CB DUP4 PUSH2 0x4A1 JUMP JUMPDEST DUP1 PUSH1 0x0 JUMPDEST DUP4 DUP2 LT ISZERO PUSH2 0x3FC JUMPI DUP2 MLOAD PUSH2 0x3E3 DUP9 DUP3 PUSH2 0x393 JUMP JUMPDEST SWAP8 POP PUSH2 0x3EE DUP4 PUSH2 0x4BC JUMP JUMPDEST SWAP3 POP POP PUSH1 0x1 DUP2 ADD SWAP1 POP PUSH2 0x3CF JUMP JUMPDEST POP DUP6 SWAP4 POP POP POP POP SWAP3 SWAP2 POP POP JUMP JUMPDEST PUSH1 0x0 PUSH1 0x40 DUP4 ADD PUSH1 0x0 DUP4 ADD MLOAD PUSH2 0x421 PUSH1 0x0 DUP7 ADD DUP3 PUSH2 0x446 JUMP JUMPDEST POP PUSH1 0x20 DUP4 ADD MLOAD DUP5 DUP3 SUB PUSH1 0x20 DUP7 ADD MSTORE PUSH2 0x439 DUP3 DUP3 PUSH2 0x3AB JUMP JUMPDEST SWAP2 POP POP DUP1 SWAP2 POP POP SWAP3 SWAP2 POP POP JUMP JUMPDEST PUSH2 0x44F DUP2 PUSH2 0x4DA JUMP JUMPDEST DUP3 MSTORE POP POP JUMP JUMPDEST PUSH2 0x45E DUP2 PUSH2 0x4DA JUMP JUMPDEST DUP3 MSTORE POP POP JUMP JUMPDEST PUSH1 0x0 PUSH1 0x20 DUP3 ADD SWAP1 POP DUP2 DUP2 SUB PUSH1 0x0 DUP4 ADD MSTORE PUSH2 0x47E DUP2 DUP5 PUSH2 0x409 JUMP JUMPDEST SWAP1 POP SWAP3 SWAP2 POP POP JUMP JUMPDEST PUSH1 0x0 PUSH1 0x20 DUP3 ADD SWAP1 POP PUSH2 0x49B PUSH1 0x0 DUP4 ADD DUP5 PUSH2 0x455 JUMP JUMPDEST SWAP3 SWAP2 POP POP JUMP JUMPDEST PUSH1 0x0 DUP2 SWAP1 POP PUSH1 0x20 DUP3 ADD SWAP1 POP SWAP2 SWAP1 POP JUMP JUMPDEST PUSH1 0x0 DUP2 MLOAD SWAP1 POP SWAP2 SWAP1 POP JUMP JUMPDEST PUSH1 0x0 PUSH1 0x20 DUP3 ADD SWAP1 POP SWAP2 SWAP1 POP JUMP JUMPDEST PUSH1 0x0 DUP3 DUP3 MSTORE PUSH1 0x20 DUP3 ADD SWAP1 POP SWAP3 SWAP2 POP POP JUMP JUMPDEST PUSH1 0x0 DUP2 SWAP1 POP SWAP2 SWAP1 POP JUMP JUMPDEST PUSH1 0x0 PUSH2 0x4EF DUP3 PUSH2 0x4DA JUMP JUMPDEST SWAP2 POP PUSH32 0xFFFFFFFFFFFFFFFFFFFFFFFFFFFFFFFFFFFFFFFFFFFFFFFFFFFFFFFFFFFFFFFF DUP3 EQ ISZERO PUSH2 0x522 JUMPI PUSH2 0x521 PUSH2 0x52D JUMP JUMPDEST JUMPDEST PUSH1 0x1 DUP3 ADD SWAP1 POP SWAP2 SWAP1 POP JUMP JUMPDEST PUSH32 0x4E487B7100000000000000000000000000000000000000000000000000000000 PUSH1 0x0 MSTORE PUSH1 0x11 PUSH1 0x4 MSTORE PUSH1 0x24 PUSH1 0x0 REVERT JUMPDEST PUSH2 0x565 DUP2 PUSH2 0x4DA JUMP JUMPDEST DUP2 EQ PUSH2 0x570 JUMPI PUSH1 0x0 DUP1 REVERT JUMPDEST POP JUMP INVALID LOG2 PUSH5 0x6970667358 0x22 SLT KECCAK256 PUSH5 0xDCAF7D8783 DUP9 DUP1 0x2B 0x24 0xF EXP SWAP9 PUSH4 0xF2A69359 0xF8 OR 0xAF ISZERO EXTCODEHASH 0xB1 0x21 0xE5 0xD2 0xD3 CALLER RETURNDATASIZE 0xD 0xC2 PUSH5 0x736F6C6343 STOP ADDMOD STOP STOP CALLER "
				},
				"gasEstimates": {
					"creation": {
						"codeDepositCost": "289800",
						"executionCost": "331",
						"totalCost": "290131"
					},
					"external": {
						"createRoom(uint256)": "infinite",
						"getRoomStructure(uint256)": "infinite",
						"roomCount()": "1151"
					}
				},
				"methodIdentifiers": {
					"createRoom(uint256)": "bbba8257",
					"getRoomStructure(uint256)": "5b35f921",
					"roomCount()": "df93a4e3"
				}
			},
			"storageLayout": {
				"storage": [
					{
						"astId": 12,
						"contract": "contracts/sandbox.sol:StructArrayInitWrong",
						"label": "rooms",
						"offset": 0,
						"slot": "0",
						"type": "t_array(t_struct(Room)8_storage)dyn_storage"
					},
					{
						"astId": 15,
						"contract": "contracts/sandbox.sol:StructArrayInitWrong",
						"label": "room_nms",
						"offset": 0,
						"slot": "1",
						"type": "t_array(t_uint256)dyn_storage"
					},
					{
						"astId": 18,
						"contract": "contracts/sandbox.sol:StructArrayInitWrong",
						"label": "adr",
						"offset": 0,
						"slot": "2",
						"type": "t_array(t_address)dyn_storage"
					},
					{
						"astId": 20,
						"contract": "contracts/sandbox.sol:StructArrayInitWrong",
						"label": "roomCount",
						"offset": 0,
						"slot": "3",
						"type": "t_uint256"
					}
				],
				"types": {
					"t_address": {
						"encoding": "inplace",
						"label": "address",
						"numberOfBytes": "20"
					},
					"t_array(t_address)dyn_storage": {
						"base": "t_address",
						"encoding": "dynamic_array",
						"label": "address[]",
						"numberOfBytes": "32"
					},
					"t_array(t_struct(Room)8_storage)dyn_storage": {
						"base": "t_struct(Room)8_storage",
						"encoding": "dynamic_array",
						"label": "struct StructArrayInitWrong.Room[]",
						"numberOfBytes": "32"
					},
					"t_array(t_uint256)dyn_storage": {
						"base": "t_uint256",
						"encoding": "dynamic_array",
						"label": "uint256[]",
						"numberOfBytes": "32"
					},
					"t_struct(Room)8_storage": {
						"encoding": "inplace",
						"label": "struct StructArrayInitWrong.Room",
						"members": [
							{
								"astId": 4,
								"contract": "contracts/sandbox.sol:StructArrayInitWrong",
								"label": "id",
								"offset": 0,
								"slot": "0",
								"type": "t_uint256"
							},
							{
								"astId": 7,
								"contract": "contracts/sandbox.sol:StructArrayInitWrong",
								"label": "room_nums",
								"offset": 0,
								"slot": "1",
								"type": "t_array(t_uint256)dyn_storage"
							}
						],
						"numberOfBytes": "64"
					},
					"t_uint256": {
						"encoding": "inplace",
						"label": "uint256",
						"numberOfBytes": "32"
					}
				}
			},
			"userdoc": {
				"kind": "user",
				"methods": {},
				"version": 1
			}
		}
	}
}