{
	"contracts/sandbox.sol": {
		"MemoryArrayBuilding": {
			"abi": [
				{
					"inputs": [
						{
							"internalType": "address",
							"name": "_owner",
							"type": "address"
						}
					],
					"name": "getItemIDsByOwner",
					"outputs": [
						{
							"internalType": "uint256[]",
							"name": "",
							"type": "uint256[]"
						}
					],
					"stateMutability": "view",
					"type": "function"
				},
				{
					"inputs": [
						{
							"internalType": "uint256",
							"name": "",
							"type": "uint256"
						}
					],
					"name": "items",
					"outputs": [
						{
							"internalType": "string",
							"name": "name",
							"type": "string"
						},
						{
							"internalType": "string",
							"name": "category",
							"type": "string"
						},
						{
							"internalType": "address",
							"name": "owner",
							"type": "address"
						},
						{
							"internalType": "uint32",
							"name": "zipcode",
							"type": "uint32"
						},
						{
							"internalType": "uint32",
							"name": "price",
							"type": "uint32"
						}
					],
					"stateMutability": "view",
					"type": "function"
				},
				{
					"inputs": [
						{
							"internalType": "address",
							"name": "",
							"type": "address"
						}
					],
					"name": "ownerItemCount",
					"outputs": [
						{
							"internalType": "uint256",
							"name": "",
							"type": "uint256"
						}
					],
					"stateMutability": "view",
					"type": "function"
				}
			],
			"devdoc": {
				"kind": "dev",
				"methods": {},
				"version": 1
			},
			"evm": {
				"assembly": "    /* \"contracts/sandbox.sol\":95:771  contract MemoryArrayBuilding {\r... */\n  mstore(0x40, 0x80)\n  callvalue\n  dup1\n  iszero\n  tag_1\n  jumpi\n  0x00\n  dup1\n  revert\ntag_1:\n  pop\n  dataSize(sub_0)\n  dup1\n  dataOffset(sub_0)\n  0x00\n  codecopy\n  0x00\n  return\nstop\n\nsub_0: assembly {\n        /* \"contracts/sandbox.sol\":95:771  contract MemoryArrayBuilding {\r... */\n      mstore(0x40, 0x80)\n      callvalue\n      dup1\n      iszero\n      tag_1\n      jumpi\n      0x00\n      dup1\n      revert\n    tag_1:\n      pop\n      jumpi(tag_2, lt(calldatasize, 0x04))\n      shr(0xe0, calldataload(0x00))\n      dup1\n      0x4c798473\n      eq\n      tag_3\n      jumpi\n      dup1\n      0x4f377035\n      eq\n      tag_4\n      jumpi\n      dup1\n      0xbfb231d2\n      eq\n      tag_5\n      jumpi\n    tag_2:\n      0x00\n      dup1\n      revert\n        /* \"contracts/sandbox.sol\":309:355  mapping(address => uint) public ownerItemCount */\n    tag_3:\n      tag_6\n      0x04\n      dup1\n      calldatasize\n      sub\n      dup2\n      add\n      swap1\n      tag_7\n      swap2\n      swap1\n      tag_8\n      jump\t// in\n    tag_7:\n      tag_9\n      jump\t// in\n    tag_6:\n      mload(0x40)\n      tag_10\n      swap2\n      swap1\n      tag_11\n      jump\t// in\n    tag_10:\n      mload(0x40)\n      dup1\n      swap2\n      sub\n      swap1\n      return\n        /* \"contracts/sandbox.sol\":364:768  function getItemIDsByOwner(address _owner) public view returns (uint[] memory) {\r... */\n    tag_4:\n      tag_12\n      0x04\n      dup1\n      calldatasize\n      sub\n      dup2\n      add\n      swap1\n      tag_13\n      swap2\n      swap1\n      tag_8\n      jump\t// in\n    tag_13:\n      tag_14\n      jump\t// in\n    tag_12:\n      mload(0x40)\n      tag_15\n      swap2\n      swap1\n      tag_16\n      jump\t// in\n    tag_15:\n      mload(0x40)\n      dup1\n      swap2\n      sub\n      swap1\n      return\n        /* \"contracts/sandbox.sol\":281:300  Item[] public items */\n    tag_5:\n      tag_17\n      0x04\n      dup1\n      calldatasize\n      sub\n      dup2\n      add\n      swap1\n      tag_18\n      swap2\n      swap1\n      tag_19\n      jump\t// in\n    tag_18:\n      tag_20\n      jump\t// in\n    tag_17:\n      mload(0x40)\n      tag_21\n      swap6\n      swap5\n      swap4\n      swap3\n      swap2\n      swap1\n      tag_22\n      jump\t// in\n    tag_21:\n      mload(0x40)\n      dup1\n      swap2\n      sub\n      swap1\n      return\n        /* \"contracts/sandbox.sol\":309:355  mapping(address => uint) public ownerItemCount */\n    tag_9:\n      mstore(0x20, 0x01)\n      dup1\n      0x00\n      mstore\n      keccak256(0x00, 0x40)\n      0x00\n      swap2\n      pop\n      swap1\n      pop\n      sload\n      dup2\n      jump\t// out\n        /* \"contracts/sandbox.sol\":364:768  function getItemIDsByOwner(address _owner) public view returns (uint[] memory) {\r... */\n    tag_14:\n        /* \"contracts/sandbox.sol\":428:441  uint[] memory */\n      0x60\n        /* \"contracts/sandbox.sol\":454:474  uint[] memory result */\n      0x00\n        /* \"contracts/sandbox.sol\":488:502  ownerItemCount */\n      0x01\n        /* \"contracts/sandbox.sol\":488:510  ownerItemCount[_owner] */\n      0x00\n        /* \"contracts/sandbox.sol\":503:509  _owner */\n      dup5\n        /* \"contracts/sandbox.sol\":488:510  ownerItemCount[_owner] */\n      0xffffffffffffffffffffffffffffffffffffffff\n      and\n      0xffffffffffffffffffffffffffffffffffffffff\n      and\n      dup2\n      mstore\n      0x20\n      add\n      swap1\n      dup2\n      mstore\n      0x20\n      add\n      0x00\n      keccak256\n      sload\n        /* \"contracts/sandbox.sol\":477:511  new uint[](ownerItemCount[_owner]) */\n      0xffffffffffffffff\n      dup2\n      gt\n      iszero\n      tag_24\n      jumpi\n      mstore(0x00, 0x4e487b7100000000000000000000000000000000000000000000000000000000)\n      mstore(0x04, 0x41)\n      revert(0x00, 0x24)\n    tag_24:\n      mload(0x40)\n      swap1\n      dup1\n      dup3\n      mstore\n      dup1\n      0x20\n      mul\n      0x20\n      add\n      dup3\n      add\n      0x40\n      mstore\n      dup1\n      iszero\n      tag_25\n      jumpi\n      dup2\n      0x20\n      add\n      0x20\n      dup3\n      mul\n      dup1\n      calldatasize\n      dup4\n      calldatacopy\n      dup1\n      dup3\n      add\n      swap2\n      pop\n      pop\n      swap1\n      pop\n    tag_25:\n      pop\n        /* \"contracts/sandbox.sol\":454:511  uint[] memory result = new uint[](ownerItemCount[_owner]) */\n      swap1\n      pop\n        /* \"contracts/sandbox.sol\":522:534  uint counter */\n      0x00\n        /* \"contracts/sandbox.sol\":564:570  uint i */\n      dup1\n        /* \"contracts/sandbox.sol\":559:737  for (uint i = 0; i < items.length; i++) {\r... */\n    tag_26:\n        /* \"contracts/sandbox.sol\":580:585  items */\n      0x00\n        /* \"contracts/sandbox.sol\":580:592  items.length */\n      dup1\n      sload\n      swap1\n      pop\n        /* \"contracts/sandbox.sol\":576:577  i */\n      dup2\n        /* \"contracts/sandbox.sol\":576:592  i < items.length */\n      lt\n        /* \"contracts/sandbox.sol\":559:737  for (uint i = 0; i < items.length; i++) {\r... */\n      iszero\n      tag_27\n      jumpi\n        /* \"contracts/sandbox.sol\":636:642  _owner */\n      dup5\n        /* \"contracts/sandbox.sol\":618:642  items[i].owner == _owner */\n      0xffffffffffffffffffffffffffffffffffffffff\n      and\n        /* \"contracts/sandbox.sol\":618:623  items */\n      0x00\n        /* \"contracts/sandbox.sol\":624:625  i */\n      dup3\n        /* \"contracts/sandbox.sol\":618:626  items[i] */\n      dup2\n      sload\n      dup2\n      lt\n      tag_29\n      jumpi\n      mstore(0x00, 0x4e487b7100000000000000000000000000000000000000000000000000000000)\n      mstore(0x04, 0x32)\n      revert(0x00, 0x24)\n    tag_29:\n      swap1\n      0x00\n      mstore\n      keccak256(0x00, 0x20)\n      swap1\n      0x03\n      mul\n      add\n        /* \"contracts/sandbox.sol\":618:632  items[i].owner */\n      0x02\n      add\n      0x00\n      swap1\n      sload\n      swap1\n      0x0100\n      exp\n      swap1\n      div\n      0xffffffffffffffffffffffffffffffffffffffff\n      and\n        /* \"contracts/sandbox.sol\":618:642  items[i].owner == _owner */\n      0xffffffffffffffffffffffffffffffffffffffff\n      and\n      eq\n        /* \"contracts/sandbox.sol\":614:726  if (items[i].owner == _owner) {\r... */\n      iszero\n      tag_31\n      jumpi\n        /* \"contracts/sandbox.sol\":681:682  i */\n      dup1\n        /* \"contracts/sandbox.sol\":663:669  result */\n      dup4\n        /* \"contracts/sandbox.sol\":670:677  counter */\n      dup4\n        /* \"contracts/sandbox.sol\":663:678  result[counter] */\n      dup2\n      mload\n      dup2\n      lt\n      tag_32\n      jumpi\n      mstore(0x00, 0x4e487b7100000000000000000000000000000000000000000000000000000000)\n      mstore(0x04, 0x32)\n      revert(0x00, 0x24)\n    tag_32:\n      0x20\n      mul\n      0x20\n      add\n      add\n        /* \"contracts/sandbox.sol\":663:682  result[counter] = i */\n      dup2\n      dup2\n      mstore\n      pop\n      pop\n        /* \"contracts/sandbox.sol\":701:710  counter++ */\n      dup2\n      dup1\n      tag_33\n      swap1\n      tag_34\n      jump\t// in\n    tag_33:\n      swap3\n      pop\n      pop\n        /* \"contracts/sandbox.sol\":614:726  if (items[i].owner == _owner) {\r... */\n    tag_31:\n        /* \"contracts/sandbox.sol\":594:597  i++ */\n      dup1\n      dup1\n      tag_35\n      swap1\n      tag_34\n      jump\t// in\n    tag_35:\n      swap2\n      pop\n      pop\n        /* \"contracts/sandbox.sol\":559:737  for (uint i = 0; i < items.length; i++) {\r... */\n      jump(tag_26)\n    tag_27:\n      pop\n        /* \"contracts/sandbox.sol\":754:760  result */\n      dup2\n        /* \"contracts/sandbox.sol\":747:760  return result */\n      swap3\n      pop\n      pop\n      pop\n        /* \"contracts/sandbox.sol\":364:768  function getItemIDsByOwner(address _owner) public view returns (uint[] memory) {\r... */\n      swap2\n      swap1\n      pop\n      jump\t// out\n        /* \"contracts/sandbox.sol\":281:300  Item[] public items */\n    tag_20:\n      0x00\n      dup2\n      dup2\n      sload\n      dup2\n      lt\n      tag_36\n      jumpi\n      0x00\n      dup1\n      revert\n    tag_36:\n      swap1\n      0x00\n      mstore\n      keccak256(0x00, 0x20)\n      swap1\n      0x03\n      mul\n      add\n      0x00\n      swap2\n      pop\n      swap1\n      pop\n      dup1\n      0x00\n      add\n      dup1\n      sload\n      tag_38\n      swap1\n      tag_39\n      jump\t// in\n    tag_38:\n      dup1\n      0x1f\n      add\n      0x20\n      dup1\n      swap2\n      div\n      mul\n      0x20\n      add\n      mload(0x40)\n      swap1\n      dup2\n      add\n      0x40\n      mstore\n      dup1\n      swap3\n      swap2\n      swap1\n      dup2\n      dup2\n      mstore\n      0x20\n      add\n      dup3\n      dup1\n      sload\n      tag_40\n      swap1\n      tag_39\n      jump\t// in\n    tag_40:\n      dup1\n      iszero\n      tag_41\n      jumpi\n      dup1\n      0x1f\n      lt\n      tag_42\n      jumpi\n      0x0100\n      dup1\n      dup4\n      sload\n      div\n      mul\n      dup4\n      mstore\n      swap2\n      0x20\n      add\n      swap2\n      jump(tag_41)\n    tag_42:\n      dup3\n      add\n      swap2\n      swap1\n      0x00\n      mstore\n      keccak256(0x00, 0x20)\n      swap1\n    tag_43:\n      dup2\n      sload\n      dup2\n      mstore\n      swap1\n      0x01\n      add\n      swap1\n      0x20\n      add\n      dup1\n      dup4\n      gt\n      tag_43\n      jumpi\n      dup3\n      swap1\n      sub\n      0x1f\n      and\n      dup3\n      add\n      swap2\n    tag_41:\n      pop\n      pop\n      pop\n      pop\n      pop\n      swap1\n      dup1\n      0x01\n      add\n      dup1\n      sload\n      tag_44\n      swap1\n      tag_39\n      jump\t// in\n    tag_44:\n      dup1\n      0x1f\n      add\n      0x20\n      dup1\n      swap2\n      div\n      mul\n      0x20\n      add\n      mload(0x40)\n      swap1\n      dup2\n      add\n      0x40\n      mstore\n      dup1\n      swap3\n      swap2\n      swap1\n      dup2\n      dup2\n      mstore\n      0x20\n      add\n      dup3\n      dup1\n      sload\n      tag_45\n      swap1\n      tag_39\n      jump\t// in\n    tag_45:\n      dup1\n      iszero\n      tag_46\n      jumpi\n      dup1\n      0x1f\n      lt\n      tag_47\n      jumpi\n      0x0100\n      dup1\n      dup4\n      sload\n      div\n      mul\n      dup4\n      mstore\n      swap2\n      0x20\n      add\n      swap2\n      jump(tag_46)\n    tag_47:\n      dup3\n      add\n      swap2\n      swap1\n      0x00\n      mstore\n      keccak256(0x00, 0x20)\n      swap1\n    tag_48:\n      dup2\n      sload\n      dup2\n      mstore\n      swap1\n      0x01\n      add\n      swap1\n      0x20\n      add\n      dup1\n      dup4\n      gt\n      tag_48\n      jumpi\n      dup3\n      swap1\n      sub\n      0x1f\n      and\n      dup3\n      add\n      swap2\n    tag_46:\n      pop\n      pop\n      pop\n      pop\n      pop\n      swap1\n      dup1\n      0x02\n      add\n      0x00\n      swap1\n      sload\n      swap1\n      0x0100\n      exp\n      swap1\n      div\n      0xffffffffffffffffffffffffffffffffffffffff\n      and\n      swap1\n      dup1\n      0x02\n      add\n      0x14\n      swap1\n      sload\n      swap1\n      0x0100\n      exp\n      swap1\n      div\n      0xffffffff\n      and\n      swap1\n      dup1\n      0x02\n      add\n      0x18\n      swap1\n      sload\n      swap1\n      0x0100\n      exp\n      swap1\n      div\n      0xffffffff\n      and\n      swap1\n      pop\n      dup6\n      jump\t// out\n        /* \"#utility.yul\":7:146   */\n    tag_50:\n      0x00\n        /* \"#utility.yul\":91:97   */\n      dup2\n        /* \"#utility.yul\":78:98   */\n      calldataload\n        /* \"#utility.yul\":69:98   */\n      swap1\n      pop\n        /* \"#utility.yul\":107:140   */\n      tag_52\n        /* \"#utility.yul\":134:139   */\n      dup2\n        /* \"#utility.yul\":107:140   */\n      tag_53\n      jump\t// in\n    tag_52:\n        /* \"#utility.yul\":59:146   */\n      swap3\n      swap2\n      pop\n      pop\n      jump\t// out\n        /* \"#utility.yul\":152:291   */\n    tag_54:\n      0x00\n        /* \"#utility.yul\":236:242   */\n      dup2\n        /* \"#utility.yul\":223:243   */\n      calldataload\n        /* \"#utility.yul\":214:243   */\n      swap1\n      pop\n        /* \"#utility.yul\":252:285   */\n      tag_56\n        /* \"#utility.yul\":279:284   */\n      dup2\n        /* \"#utility.yul\":252:285   */\n      tag_57\n      jump\t// in\n    tag_56:\n        /* \"#utility.yul\":204:291   */\n      swap3\n      swap2\n      pop\n      pop\n      jump\t// out\n        /* \"#utility.yul\":297:559   */\n    tag_8:\n      0x00\n        /* \"#utility.yul\":405:407   */\n      0x20\n        /* \"#utility.yul\":393:402   */\n      dup3\n        /* \"#utility.yul\":384:391   */\n      dup5\n        /* \"#utility.yul\":380:403   */\n      sub\n        /* \"#utility.yul\":376:408   */\n      slt\n        /* \"#utility.yul\":373:375   */\n      iszero\n      tag_59\n      jumpi\n        /* \"#utility.yul\":421:422   */\n      0x00\n        /* \"#utility.yul\":418:419   */\n      dup1\n        /* \"#utility.yul\":411:423   */\n      revert\n        /* \"#utility.yul\":373:375   */\n    tag_59:\n        /* \"#utility.yul\":464:465   */\n      0x00\n        /* \"#utility.yul\":489:542   */\n      tag_60\n        /* \"#utility.yul\":534:541   */\n      dup5\n        /* \"#utility.yul\":525:531   */\n      dup3\n        /* \"#utility.yul\":514:523   */\n      dup6\n        /* \"#utility.yul\":510:532   */\n      add\n        /* \"#utility.yul\":489:542   */\n      tag_50\n      jump\t// in\n    tag_60:\n        /* \"#utility.yul\":479:542   */\n      swap2\n      pop\n        /* \"#utility.yul\":435:552   */\n      pop\n        /* \"#utility.yul\":363:559   */\n      swap3\n      swap2\n      pop\n      pop\n      jump\t// out\n        /* \"#utility.yul\":565:827   */\n    tag_19:\n      0x00\n        /* \"#utility.yul\":673:675   */\n      0x20\n        /* \"#utility.yul\":661:670   */\n      dup3\n        /* \"#utility.yul\":652:659   */\n      dup5\n        /* \"#utility.yul\":648:671   */\n      sub\n        /* \"#utility.yul\":644:676   */\n      slt\n        /* \"#utility.yul\":641:643   */\n      iszero\n      tag_62\n      jumpi\n        /* \"#utility.yul\":689:690   */\n      0x00\n        /* \"#utility.yul\":686:687   */\n      dup1\n        /* \"#utility.yul\":679:691   */\n      revert\n        /* \"#utility.yul\":641:643   */\n    tag_62:\n        /* \"#utility.yul\":732:733   */\n      0x00\n        /* \"#utility.yul\":757:810   */\n      tag_63\n        /* \"#utility.yul\":802:809   */\n      dup5\n        /* \"#utility.yul\":793:799   */\n      dup3\n        /* \"#utility.yul\":782:791   */\n      dup6\n        /* \"#utility.yul\":778:800   */\n      add\n        /* \"#utility.yul\":757:810   */\n      tag_54\n      jump\t// in\n    tag_63:\n        /* \"#utility.yul\":747:810   */\n      swap2\n      pop\n        /* \"#utility.yul\":703:820   */\n      pop\n        /* \"#utility.yul\":631:827   */\n      swap3\n      swap2\n      pop\n      pop\n      jump\t// out\n        /* \"#utility.yul\":833:1012   */\n    tag_64:\n      0x00\n        /* \"#utility.yul\":923:969   */\n      tag_66\n        /* \"#utility.yul\":965:968   */\n      dup4\n        /* \"#utility.yul\":957:963   */\n      dup4\n        /* \"#utility.yul\":923:969   */\n      tag_67\n      jump\t// in\n    tag_66:\n        /* \"#utility.yul\":1001:1005   */\n      0x20\n        /* \"#utility.yul\":996:999   */\n      dup4\n        /* \"#utility.yul\":992:1006   */\n      add\n        /* \"#utility.yul\":978:1006   */\n      swap1\n      pop\n        /* \"#utility.yul\":913:1012   */\n      swap3\n      swap2\n      pop\n      pop\n      jump\t// out\n        /* \"#utility.yul\":1018:1136   */\n    tag_68:\n        /* \"#utility.yul\":1105:1129   */\n      tag_70\n        /* \"#utility.yul\":1123:1128   */\n      dup2\n        /* \"#utility.yul\":1105:1129   */\n      tag_71\n      jump\t// in\n    tag_70:\n        /* \"#utility.yul\":1100:1103   */\n      dup3\n        /* \"#utility.yul\":1093:1130   */\n      mstore\n        /* \"#utility.yul\":1083:1136   */\n      pop\n      pop\n      jump\t// out\n        /* \"#utility.yul\":1172:1904   */\n    tag_72:\n      0x00\n        /* \"#utility.yul\":1320:1374   */\n      tag_74\n        /* \"#utility.yul\":1368:1373   */\n      dup3\n        /* \"#utility.yul\":1320:1374   */\n      tag_75\n      jump\t// in\n    tag_74:\n        /* \"#utility.yul\":1390:1476   */\n      tag_76\n        /* \"#utility.yul\":1469:1475   */\n      dup2\n        /* \"#utility.yul\":1464:1467   */\n      dup6\n        /* \"#utility.yul\":1390:1476   */\n      tag_77\n      jump\t// in\n    tag_76:\n        /* \"#utility.yul\":1383:1476   */\n      swap4\n      pop\n        /* \"#utility.yul\":1500:1556   */\n      tag_78\n        /* \"#utility.yul\":1550:1555   */\n      dup4\n        /* \"#utility.yul\":1500:1556   */\n      tag_79\n      jump\t// in\n    tag_78:\n        /* \"#utility.yul\":1579:1586   */\n      dup1\n        /* \"#utility.yul\":1610:1611   */\n      0x00\n        /* \"#utility.yul\":1595:1879   */\n    tag_80:\n        /* \"#utility.yul\":1620:1626   */\n      dup4\n        /* \"#utility.yul\":1617:1618   */\n      dup2\n        /* \"#utility.yul\":1614:1627   */\n      lt\n        /* \"#utility.yul\":1595:1879   */\n      iszero\n      tag_82\n      jumpi\n        /* \"#utility.yul\":1696:1702   */\n      dup2\n        /* \"#utility.yul\":1690:1703   */\n      mload\n        /* \"#utility.yul\":1723:1786   */\n      tag_83\n        /* \"#utility.yul\":1782:1785   */\n      dup9\n        /* \"#utility.yul\":1767:1780   */\n      dup3\n        /* \"#utility.yul\":1723:1786   */\n      tag_64\n      jump\t// in\n    tag_83:\n        /* \"#utility.yul\":1716:1786   */\n      swap8\n      pop\n        /* \"#utility.yul\":1809:1869   */\n      tag_84\n        /* \"#utility.yul\":1862:1868   */\n      dup4\n        /* \"#utility.yul\":1809:1869   */\n      tag_85\n      jump\t// in\n    tag_84:\n        /* \"#utility.yul\":1799:1869   */\n      swap3\n      pop\n        /* \"#utility.yul\":1655:1879   */\n      pop\n        /* \"#utility.yul\":1642:1643   */\n      0x01\n        /* \"#utility.yul\":1639:1640   */\n      dup2\n        /* \"#utility.yul\":1635:1644   */\n      add\n        /* \"#utility.yul\":1630:1644   */\n      swap1\n      pop\n        /* \"#utility.yul\":1595:1879   */\n      jump(tag_80)\n    tag_82:\n        /* \"#utility.yul\":1599:1613   */\n      pop\n        /* \"#utility.yul\":1895:1898   */\n      dup6\n        /* \"#utility.yul\":1888:1898   */\n      swap4\n      pop\n        /* \"#utility.yul\":1296:1904   */\n      pop\n      pop\n      pop\n      swap3\n      swap2\n      pop\n      pop\n      jump\t// out\n        /* \"#utility.yul\":1910:2274   */\n    tag_86:\n      0x00\n        /* \"#utility.yul\":2026:2065   */\n      tag_88\n        /* \"#utility.yul\":2059:2064   */\n      dup3\n        /* \"#utility.yul\":2026:2065   */\n      tag_89\n      jump\t// in\n    tag_88:\n        /* \"#utility.yul\":2081:2152   */\n      tag_90\n        /* \"#utility.yul\":2145:2151   */\n      dup2\n        /* \"#utility.yul\":2140:2143   */\n      dup6\n        /* \"#utility.yul\":2081:2152   */\n      tag_91\n      jump\t// in\n    tag_90:\n        /* \"#utility.yul\":2074:2152   */\n      swap4\n      pop\n        /* \"#utility.yul\":2161:2213   */\n      tag_92\n        /* \"#utility.yul\":2206:2212   */\n      dup2\n        /* \"#utility.yul\":2201:2204   */\n      dup6\n        /* \"#utility.yul\":2194:2198   */\n      0x20\n        /* \"#utility.yul\":2187:2192   */\n      dup7\n        /* \"#utility.yul\":2183:2199   */\n      add\n        /* \"#utility.yul\":2161:2213   */\n      tag_93\n      jump\t// in\n    tag_92:\n        /* \"#utility.yul\":2238:2267   */\n      tag_94\n        /* \"#utility.yul\":2260:2266   */\n      dup2\n        /* \"#utility.yul\":2238:2267   */\n      tag_95\n      jump\t// in\n    tag_94:\n        /* \"#utility.yul\":2233:2236   */\n      dup5\n        /* \"#utility.yul\":2229:2268   */\n      add\n        /* \"#utility.yul\":2222:2268   */\n      swap2\n      pop\n        /* \"#utility.yul\":2002:2274   */\n      pop\n      swap3\n      swap2\n      pop\n      pop\n      jump\t// out\n        /* \"#utility.yul\":2280:2388   */\n    tag_67:\n        /* \"#utility.yul\":2357:2381   */\n      tag_97\n        /* \"#utility.yul\":2375:2380   */\n      dup2\n        /* \"#utility.yul\":2357:2381   */\n      tag_98\n      jump\t// in\n    tag_97:\n        /* \"#utility.yul\":2352:2355   */\n      dup3\n        /* \"#utility.yul\":2345:2382   */\n      mstore\n        /* \"#utility.yul\":2335:2388   */\n      pop\n      pop\n      jump\t// out\n        /* \"#utility.yul\":2394:2512   */\n    tag_99:\n        /* \"#utility.yul\":2481:2505   */\n      tag_101\n        /* \"#utility.yul\":2499:2504   */\n      dup2\n        /* \"#utility.yul\":2481:2505   */\n      tag_98\n      jump\t// in\n    tag_101:\n        /* \"#utility.yul\":2476:2479   */\n      dup3\n        /* \"#utility.yul\":2469:2506   */\n      mstore\n        /* \"#utility.yul\":2459:2512   */\n      pop\n      pop\n      jump\t// out\n        /* \"#utility.yul\":2518:2633   */\n    tag_102:\n        /* \"#utility.yul\":2603:2626   */\n      tag_104\n        /* \"#utility.yul\":2620:2625   */\n      dup2\n        /* \"#utility.yul\":2603:2626   */\n      tag_105\n      jump\t// in\n    tag_104:\n        /* \"#utility.yul\":2598:2601   */\n      dup3\n        /* \"#utility.yul\":2591:2627   */\n      mstore\n        /* \"#utility.yul\":2581:2633   */\n      pop\n      pop\n      jump\t// out\n        /* \"#utility.yul\":2639:3012   */\n    tag_16:\n      0x00\n        /* \"#utility.yul\":2820:2822   */\n      0x20\n        /* \"#utility.yul\":2809:2818   */\n      dup3\n        /* \"#utility.yul\":2805:2823   */\n      add\n        /* \"#utility.yul\":2797:2823   */\n      swap1\n      pop\n        /* \"#utility.yul\":2869:2878   */\n      dup2\n        /* \"#utility.yul\":2863:2867   */\n      dup2\n        /* \"#utility.yul\":2859:2879   */\n      sub\n        /* \"#utility.yul\":2855:2856   */\n      0x00\n        /* \"#utility.yul\":2844:2853   */\n      dup4\n        /* \"#utility.yul\":2840:2857   */\n      add\n        /* \"#utility.yul\":2833:2880   */\n      mstore\n        /* \"#utility.yul\":2897:3005   */\n      tag_107\n        /* \"#utility.yul\":3000:3004   */\n      dup2\n        /* \"#utility.yul\":2991:2997   */\n      dup5\n        /* \"#utility.yul\":2897:3005   */\n      tag_72\n      jump\t// in\n    tag_107:\n        /* \"#utility.yul\":2889:3005   */\n      swap1\n      pop\n        /* \"#utility.yul\":2787:3012   */\n      swap3\n      swap2\n      pop\n      pop\n      jump\t// out\n        /* \"#utility.yul\":3018:3856   */\n    tag_22:\n      0x00\n        /* \"#utility.yul\":3297:3300   */\n      0xa0\n        /* \"#utility.yul\":3286:3295   */\n      dup3\n        /* \"#utility.yul\":3282:3301   */\n      add\n        /* \"#utility.yul\":3274:3301   */\n      swap1\n      pop\n        /* \"#utility.yul\":3347:3356   */\n      dup2\n        /* \"#utility.yul\":3341:3345   */\n      dup2\n        /* \"#utility.yul\":3337:3357   */\n      sub\n        /* \"#utility.yul\":3333:3334   */\n      0x00\n        /* \"#utility.yul\":3322:3331   */\n      dup4\n        /* \"#utility.yul\":3318:3335   */\n      add\n        /* \"#utility.yul\":3311:3358   */\n      mstore\n        /* \"#utility.yul\":3375:3453   */\n      tag_109\n        /* \"#utility.yul\":3448:3452   */\n      dup2\n        /* \"#utility.yul\":3439:3445   */\n      dup9\n        /* \"#utility.yul\":3375:3453   */\n      tag_86\n      jump\t// in\n    tag_109:\n        /* \"#utility.yul\":3367:3453   */\n      swap1\n      pop\n        /* \"#utility.yul\":3500:3509   */\n      dup2\n        /* \"#utility.yul\":3494:3498   */\n      dup2\n        /* \"#utility.yul\":3490:3510   */\n      sub\n        /* \"#utility.yul\":3485:3487   */\n      0x20\n        /* \"#utility.yul\":3474:3483   */\n      dup4\n        /* \"#utility.yul\":3470:3488   */\n      add\n        /* \"#utility.yul\":3463:3511   */\n      mstore\n        /* \"#utility.yul\":3528:3606   */\n      tag_110\n        /* \"#utility.yul\":3601:3605   */\n      dup2\n        /* \"#utility.yul\":3592:3598   */\n      dup8\n        /* \"#utility.yul\":3528:3606   */\n      tag_86\n      jump\t// in\n    tag_110:\n        /* \"#utility.yul\":3520:3606   */\n      swap1\n      pop\n        /* \"#utility.yul\":3616:3688   */\n      tag_111\n        /* \"#utility.yul\":3684:3686   */\n      0x40\n        /* \"#utility.yul\":3673:3682   */\n      dup4\n        /* \"#utility.yul\":3669:3687   */\n      add\n        /* \"#utility.yul\":3660:3666   */\n      dup7\n        /* \"#utility.yul\":3616:3688   */\n      tag_68\n      jump\t// in\n    tag_111:\n        /* \"#utility.yul\":3698:3768   */\n      tag_112\n        /* \"#utility.yul\":3764:3766   */\n      0x60\n        /* \"#utility.yul\":3753:3762   */\n      dup4\n        /* \"#utility.yul\":3749:3767   */\n      add\n        /* \"#utility.yul\":3740:3746   */\n      dup6\n        /* \"#utility.yul\":3698:3768   */\n      tag_102\n      jump\t// in\n    tag_112:\n        /* \"#utility.yul\":3778:3849   */\n      tag_113\n        /* \"#utility.yul\":3844:3847   */\n      0x80\n        /* \"#utility.yul\":3833:3842   */\n      dup4\n        /* \"#utility.yul\":3829:3848   */\n      add\n        /* \"#utility.yul\":3820:3826   */\n      dup5\n        /* \"#utility.yul\":3778:3849   */\n      tag_102\n      jump\t// in\n    tag_113:\n        /* \"#utility.yul\":3264:3856   */\n      swap7\n      swap6\n      pop\n      pop\n      pop\n      pop\n      pop\n      pop\n      jump\t// out\n        /* \"#utility.yul\":3862:4084   */\n    tag_11:\n      0x00\n        /* \"#utility.yul\":3993:3995   */\n      0x20\n        /* \"#utility.yul\":3982:3991   */\n      dup3\n        /* \"#utility.yul\":3978:3996   */\n      add\n        /* \"#utility.yul\":3970:3996   */\n      swap1\n      pop\n        /* \"#utility.yul\":4006:4077   */\n      tag_115\n        /* \"#utility.yul\":4074:4075   */\n      0x00\n        /* \"#utility.yul\":4063:4072   */\n      dup4\n        /* \"#utility.yul\":4059:4076   */\n      add\n        /* \"#utility.yul\":4050:4056   */\n      dup5\n        /* \"#utility.yul\":4006:4077   */\n      tag_99\n      jump\t// in\n    tag_115:\n        /* \"#utility.yul\":3960:4084   */\n      swap3\n      swap2\n      pop\n      pop\n      jump\t// out\n        /* \"#utility.yul\":4090:4222   */\n    tag_79:\n      0x00\n        /* \"#utility.yul\":4180:4183   */\n      dup2\n        /* \"#utility.yul\":4172:4183   */\n      swap1\n      pop\n        /* \"#utility.yul\":4210:4214   */\n      0x20\n        /* \"#utility.yul\":4205:4208   */\n      dup3\n        /* \"#utility.yul\":4201:4215   */\n      add\n        /* \"#utility.yul\":4193:4215   */\n      swap1\n      pop\n        /* \"#utility.yul\":4162:4222   */\n      swap2\n      swap1\n      pop\n      jump\t// out\n        /* \"#utility.yul\":4228:4342   */\n    tag_75:\n      0x00\n        /* \"#utility.yul\":4329:4334   */\n      dup2\n        /* \"#utility.yul\":4323:4335   */\n      mload\n        /* \"#utility.yul\":4313:4335   */\n      swap1\n      pop\n        /* \"#utility.yul\":4302:4342   */\n      swap2\n      swap1\n      pop\n      jump\t// out\n        /* \"#utility.yul\":4348:4447   */\n    tag_89:\n      0x00\n        /* \"#utility.yul\":4434:4439   */\n      dup2\n        /* \"#utility.yul\":4428:4440   */\n      mload\n        /* \"#utility.yul\":4418:4440   */\n      swap1\n      pop\n        /* \"#utility.yul\":4407:4447   */\n      swap2\n      swap1\n      pop\n      jump\t// out\n        /* \"#utility.yul\":4453:4566   */\n    tag_85:\n      0x00\n        /* \"#utility.yul\":4555:4559   */\n      0x20\n        /* \"#utility.yul\":4550:4553   */\n      dup3\n        /* \"#utility.yul\":4546:4560   */\n      add\n        /* \"#utility.yul\":4538:4560   */\n      swap1\n      pop\n        /* \"#utility.yul\":4528:4566   */\n      swap2\n      swap1\n      pop\n      jump\t// out\n        /* \"#utility.yul\":4572:4756   */\n    tag_77:\n      0x00\n        /* \"#utility.yul\":4705:4711   */\n      dup3\n        /* \"#utility.yul\":4700:4703   */\n      dup3\n        /* \"#utility.yul\":4693:4712   */\n      mstore\n        /* \"#utility.yul\":4745:4749   */\n      0x20\n        /* \"#utility.yul\":4740:4743   */\n      dup3\n        /* \"#utility.yul\":4736:4750   */\n      add\n        /* \"#utility.yul\":4721:4750   */\n      swap1\n      pop\n        /* \"#utility.yul\":4683:4756   */\n      swap3\n      swap2\n      pop\n      pop\n      jump\t// out\n        /* \"#utility.yul\":4762:4931   */\n    tag_91:\n      0x00\n        /* \"#utility.yul\":4880:4886   */\n      dup3\n        /* \"#utility.yul\":4875:4878   */\n      dup3\n        /* \"#utility.yul\":4868:4887   */\n      mstore\n        /* \"#utility.yul\":4920:4924   */\n      0x20\n        /* \"#utility.yul\":4915:4918   */\n      dup3\n        /* \"#utility.yul\":4911:4925   */\n      add\n        /* \"#utility.yul\":4896:4925   */\n      swap1\n      pop\n        /* \"#utility.yul\":4858:4931   */\n      swap3\n      swap2\n      pop\n      pop\n      jump\t// out\n        /* \"#utility.yul\":4937:5033   */\n    tag_71:\n      0x00\n        /* \"#utility.yul\":5003:5027   */\n      tag_123\n        /* \"#utility.yul\":5021:5026   */\n      dup3\n        /* \"#utility.yul\":5003:5027   */\n      tag_124\n      jump\t// in\n    tag_123:\n        /* \"#utility.yul\":4992:5027   */\n      swap1\n      pop\n        /* \"#utility.yul\":4982:5033   */\n      swap2\n      swap1\n      pop\n      jump\t// out\n        /* \"#utility.yul\":5039:5165   */\n    tag_124:\n      0x00\n        /* \"#utility.yul\":5116:5158   */\n      0xffffffffffffffffffffffffffffffffffffffff\n        /* \"#utility.yul\":5109:5114   */\n      dup3\n        /* \"#utility.yul\":5105:5159   */\n      and\n        /* \"#utility.yul\":5094:5159   */\n      swap1\n      pop\n        /* \"#utility.yul\":5084:5165   */\n      swap2\n      swap1\n      pop\n      jump\t// out\n        /* \"#utility.yul\":5171:5248   */\n    tag_98:\n      0x00\n        /* \"#utility.yul\":5237:5242   */\n      dup2\n        /* \"#utility.yul\":5226:5242   */\n      swap1\n      pop\n        /* \"#utility.yul\":5216:5248   */\n      swap2\n      swap1\n      pop\n      jump\t// out\n        /* \"#utility.yul\":5254:5347   */\n    tag_105:\n      0x00\n        /* \"#utility.yul\":5330:5340   */\n      0xffffffff\n        /* \"#utility.yul\":5323:5328   */\n      dup3\n        /* \"#utility.yul\":5319:5341   */\n      and\n        /* \"#utility.yul\":5308:5341   */\n      swap1\n      pop\n        /* \"#utility.yul\":5298:5347   */\n      swap2\n      swap1\n      pop\n      jump\t// out\n        /* \"#utility.yul\":5353:5660   */\n    tag_93:\n        /* \"#utility.yul\":5421:5422   */\n      0x00\n        /* \"#utility.yul\":5431:5544   */\n    tag_129:\n        /* \"#utility.yul\":5445:5451   */\n      dup4\n        /* \"#utility.yul\":5442:5443   */\n      dup2\n        /* \"#utility.yul\":5439:5452   */\n      lt\n        /* \"#utility.yul\":5431:5544   */\n      iszero\n      tag_131\n      jumpi\n        /* \"#utility.yul\":5530:5531   */\n      dup1\n        /* \"#utility.yul\":5525:5528   */\n      dup3\n        /* \"#utility.yul\":5521:5532   */\n      add\n        /* \"#utility.yul\":5515:5533   */\n      mload\n        /* \"#utility.yul\":5511:5512   */\n      dup2\n        /* \"#utility.yul\":5506:5509   */\n      dup5\n        /* \"#utility.yul\":5502:5513   */\n      add\n        /* \"#utility.yul\":5495:5534   */\n      mstore\n        /* \"#utility.yul\":5467:5469   */\n      0x20\n        /* \"#utility.yul\":5464:5465   */\n      dup2\n        /* \"#utility.yul\":5460:5470   */\n      add\n        /* \"#utility.yul\":5455:5470   */\n      swap1\n      pop\n        /* \"#utility.yul\":5431:5544   */\n      jump(tag_129)\n    tag_131:\n        /* \"#utility.yul\":5562:5568   */\n      dup4\n        /* \"#utility.yul\":5559:5560   */\n      dup2\n        /* \"#utility.yul\":5556:5569   */\n      gt\n        /* \"#utility.yul\":5553:5555   */\n      iszero\n      tag_132\n      jumpi\n        /* \"#utility.yul\":5642:5643   */\n      0x00\n        /* \"#utility.yul\":5633:5639   */\n      dup5\n        /* \"#utility.yul\":5628:5631   */\n      dup5\n        /* \"#utility.yul\":5624:5640   */\n      add\n        /* \"#utility.yul\":5617:5644   */\n      mstore\n        /* \"#utility.yul\":5553:5555   */\n    tag_132:\n        /* \"#utility.yul\":5402:5660   */\n      pop\n      pop\n      pop\n      pop\n      jump\t// out\n        /* \"#utility.yul\":5666:5986   */\n    tag_39:\n      0x00\n        /* \"#utility.yul\":5747:5748   */\n      0x02\n        /* \"#utility.yul\":5741:5745   */\n      dup3\n        /* \"#utility.yul\":5737:5749   */\n      div\n        /* \"#utility.yul\":5727:5749   */\n      swap1\n      pop\n        /* \"#utility.yul\":5794:5795   */\n      0x01\n        /* \"#utility.yul\":5788:5792   */\n      dup3\n        /* \"#utility.yul\":5784:5796   */\n      and\n        /* \"#utility.yul\":5815:5833   */\n      dup1\n        /* \"#utility.yul\":5805:5807   */\n      tag_134\n      jumpi\n        /* \"#utility.yul\":5871:5875   */\n      0x7f\n        /* \"#utility.yul\":5863:5869   */\n      dup3\n        /* \"#utility.yul\":5859:5876   */\n      and\n        /* \"#utility.yul\":5849:5876   */\n      swap2\n      pop\n        /* \"#utility.yul\":5805:5807   */\n    tag_134:\n        /* \"#utility.yul\":5933:5935   */\n      0x20\n        /* \"#utility.yul\":5925:5931   */\n      dup3\n        /* \"#utility.yul\":5922:5936   */\n      lt\n        /* \"#utility.yul\":5902:5920   */\n      dup2\n        /* \"#utility.yul\":5899:5937   */\n      eq\n        /* \"#utility.yul\":5896:5898   */\n      iszero\n      tag_135\n      jumpi\n        /* \"#utility.yul\":5952:5970   */\n      tag_136\n      tag_137\n      jump\t// in\n    tag_136:\n        /* \"#utility.yul\":5896:5898   */\n    tag_135:\n        /* \"#utility.yul\":5717:5986   */\n      pop\n      swap2\n      swap1\n      pop\n      jump\t// out\n        /* \"#utility.yul\":5992:6225   */\n    tag_34:\n      0x00\n        /* \"#utility.yul\":6054:6078   */\n      tag_139\n        /* \"#utility.yul\":6072:6077   */\n      dup3\n        /* \"#utility.yul\":6054:6078   */\n      tag_98\n      jump\t// in\n    tag_139:\n        /* \"#utility.yul\":6045:6078   */\n      swap2\n      pop\n        /* \"#utility.yul\":6100:6166   */\n      0xffffffffffffffffffffffffffffffffffffffffffffffffffffffffffffffff\n        /* \"#utility.yul\":6093:6098   */\n      dup3\n        /* \"#utility.yul\":6090:6167   */\n      eq\n        /* \"#utility.yul\":6087:6089   */\n      iszero\n      tag_140\n      jumpi\n        /* \"#utility.yul\":6170:6188   */\n      tag_141\n      tag_142\n      jump\t// in\n    tag_141:\n        /* \"#utility.yul\":6087:6089   */\n    tag_140:\n        /* \"#utility.yul\":6217:6218   */\n      0x01\n        /* \"#utility.yul\":6210:6215   */\n      dup3\n        /* \"#utility.yul\":6206:6219   */\n      add\n        /* \"#utility.yul\":6199:6219   */\n      swap1\n      pop\n        /* \"#utility.yul\":6035:6225   */\n      swap2\n      swap1\n      pop\n      jump\t// out\n        /* \"#utility.yul\":6231:6411   */\n    tag_142:\n        /* \"#utility.yul\":6279:6356   */\n      0x4e487b7100000000000000000000000000000000000000000000000000000000\n        /* \"#utility.yul\":6276:6277   */\n      0x00\n        /* \"#utility.yul\":6269:6357   */\n      mstore\n        /* \"#utility.yul\":6376:6380   */\n      0x11\n        /* \"#utility.yul\":6373:6374   */\n      0x04\n        /* \"#utility.yul\":6366:6381   */\n      mstore\n        /* \"#utility.yul\":6400:6404   */\n      0x24\n        /* \"#utility.yul\":6397:6398   */\n      0x00\n        /* \"#utility.yul\":6390:6405   */\n      revert\n        /* \"#utility.yul\":6417:6597   */\n    tag_137:\n        /* \"#utility.yul\":6465:6542   */\n      0x4e487b7100000000000000000000000000000000000000000000000000000000\n        /* \"#utility.yul\":6462:6463   */\n      0x00\n        /* \"#utility.yul\":6455:6543   */\n      mstore\n        /* \"#utility.yul\":6562:6566   */\n      0x22\n        /* \"#utility.yul\":6559:6560   */\n      0x04\n        /* \"#utility.yul\":6552:6567   */\n      mstore\n        /* \"#utility.yul\":6586:6590   */\n      0x24\n        /* \"#utility.yul\":6583:6584   */\n      0x00\n        /* \"#utility.yul\":6576:6591   */\n      revert\n        /* \"#utility.yul\":6603:6705   */\n    tag_95:\n      0x00\n        /* \"#utility.yul\":6695:6697   */\n      0x1f\n        /* \"#utility.yul\":6691:6698   */\n      not\n        /* \"#utility.yul\":6686:6688   */\n      0x1f\n        /* \"#utility.yul\":6679:6684   */\n      dup4\n        /* \"#utility.yul\":6675:6689   */\n      add\n        /* \"#utility.yul\":6671:6699   */\n      and\n        /* \"#utility.yul\":6661:6699   */\n      swap1\n      pop\n        /* \"#utility.yul\":6651:6705   */\n      swap2\n      swap1\n      pop\n      jump\t// out\n        /* \"#utility.yul\":6711:6833   */\n    tag_53:\n        /* \"#utility.yul\":6784:6808   */\n      tag_147\n        /* \"#utility.yul\":6802:6807   */\n      dup2\n        /* \"#utility.yul\":6784:6808   */\n      tag_71\n      jump\t// in\n    tag_147:\n        /* \"#utility.yul\":6777:6782   */\n      dup2\n        /* \"#utility.yul\":6774:6809   */\n      eq\n        /* \"#utility.yul\":6764:6766   */\n      tag_148\n      jumpi\n        /* \"#utility.yul\":6823:6824   */\n      0x00\n        /* \"#utility.yul\":6820:6821   */\n      dup1\n        /* \"#utility.yul\":6813:6825   */\n      revert\n        /* \"#utility.yul\":6764:6766   */\n    tag_148:\n        /* \"#utility.yul\":6754:6833   */\n      pop\n      jump\t// out\n        /* \"#utility.yul\":6839:6961   */\n    tag_57:\n        /* \"#utility.yul\":6912:6936   */\n      tag_150\n        /* \"#utility.yul\":6930:6935   */\n      dup2\n        /* \"#utility.yul\":6912:6936   */\n      tag_98\n      jump\t// in\n    tag_150:\n        /* \"#utility.yul\":6905:6910   */\n      dup2\n        /* \"#utility.yul\":6902:6937   */\n      eq\n        /* \"#utility.yul\":6892:6894   */\n      tag_151\n      jumpi\n        /* \"#utility.yul\":6951:6952   */\n      0x00\n        /* \"#utility.yul\":6948:6949   */\n      dup1\n        /* \"#utility.yul\":6941:6953   */\n      revert\n        /* \"#utility.yul\":6892:6894   */\n    tag_151:\n        /* \"#utility.yul\":6882:6961   */\n      pop\n      jump\t// out\n\n    auxdata: 0xa2646970667358221220c3973c98e301920facb205b941133516d20790a071820c481cedbdf18a08ebb964736f6c63430008000033\n}\n",
				"bytecode": {
					"linkReferences": {},
					"object": "608060405234801561001057600080fd5b50610886806100206000396000f3fe608060405234801561001057600080fd5b50600436106100415760003560e01c80634c798473146100465780634f37703514610076578063bfb231d2146100a6575b600080fd5b610060600480360381019061005b9190610489565b6100da565b60405161006d9190610649565b60405180910390f35b610090600480360381019061008b9190610489565b6100f2565b60405161009d91906105c6565b60405180910390f35b6100c060048036038101906100bb91906104b2565b6102c9565b6040516100d19594939291906105e8565b60405180910390f35b60016020528060005260406000206000915090505481565b60606000600160008473ffffffffffffffffffffffffffffffffffffffff1673ffffffffffffffffffffffffffffffffffffffff1681526020019081526020016000205467ffffffffffffffff811115610175577f4e487b7100000000000000000000000000000000000000000000000000000000600052604160045260246000fd5b6040519080825280602002602001820160405280156101a35781602001602082028036833780820191505090505b5090506000805b6000805490508110156102be578473ffffffffffffffffffffffffffffffffffffffff1660008281548110610208577f4e487b7100000000000000000000000000000000000000000000000000000000600052603260045260246000fd5b906000526020600020906003020160020160009054906101000a900473ffffffffffffffffffffffffffffffffffffffff1673ffffffffffffffffffffffffffffffffffffffff1614156102ab5780838381518110610290577f4e487b7100000000000000000000000000000000000000000000000000000000600052603260045260246000fd5b60200260200101818152505081806102a79061076a565b9250505b80806102b69061076a565b9150506101aa565b508192505050919050565b600081815481106102d957600080fd5b90600052602060002090600302016000915090508060000180546102fc90610738565b80601f016020809104026020016040519081016040528092919081815260200182805461032890610738565b80156103755780601f1061034a57610100808354040283529160200191610375565b820191906000526020600020905b81548152906001019060200180831161035857829003601f168201915b50505050509080600101805461038a90610738565b80601f01602080910402602001604051908101604052809291908181526020018280546103b690610738565b80156104035780601f106103d857610100808354040283529160200191610403565b820191906000526020600020905b8154815290600101906020018083116103e657829003601f168201915b5050505050908060020160009054906101000a900473ffffffffffffffffffffffffffffffffffffffff16908060020160149054906101000a900463ffffffff16908060020160189054906101000a900463ffffffff16905085565b60008135905061046e81610822565b92915050565b60008135905061048381610839565b92915050565b60006020828403121561049b57600080fd5b60006104a98482850161045f565b91505092915050565b6000602082840312156104c457600080fd5b60006104d284828501610474565b91505092915050565b60006104e78383610599565b60208301905092915050565b6104fc816106b9565b82525050565b600061050d82610674565b6105178185610697565b935061052283610664565b8060005b8381101561055357815161053a88826104db565b97506105458361068a565b925050600181019050610526565b5085935050505092915050565b600061056b8261067f565b61057581856106a8565b9350610585818560208601610705565b61058e81610811565b840191505092915050565b6105a2816106eb565b82525050565b6105b1816106eb565b82525050565b6105c0816106f5565b82525050565b600060208201905081810360008301526105e08184610502565b905092915050565b600060a08201905081810360008301526106028188610560565b905081810360208301526106168187610560565b905061062560408301866104f3565b61063260608301856105b7565b61063f60808301846105b7565b9695505050505050565b600060208201905061065e60008301846105a8565b92915050565b6000819050602082019050919050565b600081519050919050565b600081519050919050565b6000602082019050919050565b600082825260208201905092915050565b600082825260208201905092915050565b60006106c4826106cb565b9050919050565b600073ffffffffffffffffffffffffffffffffffffffff82169050919050565b6000819050919050565b600063ffffffff82169050919050565b60005b83811015610723578082015181840152602081019050610708565b83811115610732576000848401525b50505050565b6000600282049050600182168061075057607f821691505b60208210811415610764576107636107e2565b5b50919050565b6000610775826106eb565b91507fffffffffffffffffffffffffffffffffffffffffffffffffffffffffffffffff8214156107a8576107a76107b3565b5b600182019050919050565b7f4e487b7100000000000000000000000000000000000000000000000000000000600052601160045260246000fd5b7f4e487b7100000000000000000000000000000000000000000000000000000000600052602260045260246000fd5b6000601f19601f8301169050919050565b61082b816106b9565b811461083657600080fd5b50565b610842816106eb565b811461084d57600080fd5b5056fea2646970667358221220c3973c98e301920facb205b941133516d20790a071820c481cedbdf18a08ebb964736f6c63430008000033",
					"opcodes": "PUSH1 0x80 PUSH1 0x40 MSTORE CALLVALUE DUP1 ISZERO PUSH2 0x10 JUMPI PUSH1 0x0 DUP1 REVERT JUMPDEST POP PUSH2 0x886 DUP1 PUSH2 0x20 PUSH1 0x0 CODECOPY PUSH1 0x0 RETURN INVALID PUSH1 0x80 PUSH1 0x40 MSTORE CALLVALUE DUP1 ISZERO PUSH2 0x10 JUMPI PUSH1 0x0 DUP1 REVERT JUMPDEST POP PUSH1 0x4 CALLDATASIZE LT PUSH2 0x41 JUMPI PUSH1 0x0 CALLDATALOAD PUSH1 0xE0 SHR DUP1 PUSH4 0x4C798473 EQ PUSH2 0x46 JUMPI DUP1 PUSH4 0x4F377035 EQ PUSH2 0x76 JUMPI DUP1 PUSH4 0xBFB231D2 EQ PUSH2 0xA6 JUMPI JUMPDEST PUSH1 0x0 DUP1 REVERT JUMPDEST PUSH2 0x60 PUSH1 0x4 DUP1 CALLDATASIZE SUB DUP2 ADD SWAP1 PUSH2 0x5B SWAP2 SWAP1 PUSH2 0x489 JUMP JUMPDEST PUSH2 0xDA JUMP JUMPDEST PUSH1 0x40 MLOAD PUSH2 0x6D SWAP2 SWAP1 PUSH2 0x649 JUMP JUMPDEST PUSH1 0x40 MLOAD DUP1 SWAP2 SUB SWAP1 RETURN JUMPDEST PUSH2 0x90 PUSH1 0x4 DUP1 CALLDATASIZE SUB DUP2 ADD SWAP1 PUSH2 0x8B SWAP2 SWAP1 PUSH2 0x489 JUMP JUMPDEST PUSH2 0xF2 JUMP JUMPDEST PUSH1 0x40 MLOAD PUSH2 0x9D SWAP2 SWAP1 PUSH2 0x5C6 JUMP JUMPDEST PUSH1 0x40 MLOAD DUP1 SWAP2 SUB SWAP1 RETURN JUMPDEST PUSH2 0xC0 PUSH1 0x4 DUP1 CALLDATASIZE SUB DUP2 ADD SWAP1 PUSH2 0xBB SWAP2 SWAP1 PUSH2 0x4B2 JUMP JUMPDEST PUSH2 0x2C9 JUMP JUMPDEST PUSH1 0x40 MLOAD PUSH2 0xD1 SWAP6 SWAP5 SWAP4 SWAP3 SWAP2 SWAP1 PUSH2 0x5E8 JUMP JUMPDEST PUSH1 0x40 MLOAD DUP1 SWAP2 SUB SWAP1 RETURN JUMPDEST PUSH1 0x1 PUSH1 0x20 MSTORE DUP1 PUSH1 0x0 MSTORE PUSH1 0x40 PUSH1 0x0 KECCAK256 PUSH1 0x0 SWAP2 POP SWAP1 POP SLOAD DUP2 JUMP JUMPDEST PUSH1 0x60 PUSH1 0x0 PUSH1 0x1 PUSH1 0x0 DUP5 PUSH20 0xFFFFFFFFFFFFFFFFFFFFFFFFFFFFFFFFFFFFFFFF AND PUSH20 0xFFFFFFFFFFFFFFFFFFFFFFFFFFFFFFFFFFFFFFFF AND DUP2 MSTORE PUSH1 0x20 ADD SWAP1 DUP2 MSTORE PUSH1 0x20 ADD PUSH1 0x0 KECCAK256 SLOAD PUSH8 0xFFFFFFFFFFFFFFFF DUP2 GT ISZERO PUSH2 0x175 JUMPI PUSH32 0x4E487B7100000000000000000000000000000000000000000000000000000000 PUSH1 0x0 MSTORE PUSH1 0x41 PUSH1 0x4 MSTORE PUSH1 0x24 PUSH1 0x0 REVERT JUMPDEST PUSH1 0x40 MLOAD SWAP1 DUP1 DUP3 MSTORE DUP1 PUSH1 0x20 MUL PUSH1 0x20 ADD DUP3 ADD PUSH1 0x40 MSTORE DUP1 ISZERO PUSH2 0x1A3 JUMPI DUP2 PUSH1 0x20 ADD PUSH1 0x20 DUP3 MUL DUP1 CALLDATASIZE DUP4 CALLDATACOPY DUP1 DUP3 ADD SWAP2 POP POP SWAP1 POP JUMPDEST POP SWAP1 POP PUSH1 0x0 DUP1 JUMPDEST PUSH1 0x0 DUP1 SLOAD SWAP1 POP DUP2 LT ISZERO PUSH2 0x2BE JUMPI DUP5 PUSH20 0xFFFFFFFFFFFFFFFFFFFFFFFFFFFFFFFFFFFFFFFF AND PUSH1 0x0 DUP3 DUP2 SLOAD DUP2 LT PUSH2 0x208 JUMPI PUSH32 0x4E487B7100000000000000000000000000000000000000000000000000000000 PUSH1 0x0 MSTORE PUSH1 0x32 PUSH1 0x4 MSTORE PUSH1 0x24 PUSH1 0x0 REVERT JUMPDEST SWAP1 PUSH1 0x0 MSTORE PUSH1 0x20 PUSH1 0x0 KECCAK256 SWAP1 PUSH1 0x3 MUL ADD PUSH1 0x2 ADD PUSH1 0x0 SWAP1 SLOAD SWAP1 PUSH2 0x100 EXP SWAP1 DIV PUSH20 0xFFFFFFFFFFFFFFFFFFFFFFFFFFFFFFFFFFFFFFFF AND PUSH20 0xFFFFFFFFFFFFFFFFFFFFFFFFFFFFFFFFFFFFFFFF AND EQ ISZERO PUSH2 0x2AB JUMPI DUP1 DUP4 DUP4 DUP2 MLOAD DUP2 LT PUSH2 0x290 JUMPI PUSH32 0x4E487B7100000000000000000000000000000000000000000000000000000000 PUSH1 0x0 MSTORE PUSH1 0x32 PUSH1 0x4 MSTORE PUSH1 0x24 PUSH1 0x0 REVERT JUMPDEST PUSH1 0x20 MUL PUSH1 0x20 ADD ADD DUP2 DUP2 MSTORE POP POP DUP2 DUP1 PUSH2 0x2A7 SWAP1 PUSH2 0x76A JUMP JUMPDEST SWAP3 POP POP JUMPDEST DUP1 DUP1 PUSH2 0x2B6 SWAP1 PUSH2 0x76A JUMP JUMPDEST SWAP2 POP POP PUSH2 0x1AA JUMP JUMPDEST POP DUP2 SWAP3 POP POP POP SWAP2 SWAP1 POP JUMP JUMPDEST PUSH1 0x0 DUP2 DUP2 SLOAD DUP2 LT PUSH2 0x2D9 JUMPI PUSH1 0x0 DUP1 REVERT JUMPDEST SWAP1 PUSH1 0x0 MSTORE PUSH1 0x20 PUSH1 0x0 KECCAK256 SWAP1 PUSH1 0x3 MUL ADD PUSH1 0x0 SWAP2 POP SWAP1 POP DUP1 PUSH1 0x0 ADD DUP1 SLOAD PUSH2 0x2FC SWAP1 PUSH2 0x738 JUMP JUMPDEST DUP1 PUSH1 0x1F ADD PUSH1 0x20 DUP1 SWAP2 DIV MUL PUSH1 0x20 ADD PUSH1 0x40 MLOAD SWAP1 DUP2 ADD PUSH1 0x40 MSTORE DUP1 SWAP3 SWAP2 SWAP1 DUP2 DUP2 MSTORE PUSH1 0x20 ADD DUP3 DUP1 SLOAD PUSH2 0x328 SWAP1 PUSH2 0x738 JUMP JUMPDEST DUP1 ISZERO PUSH2 0x375 JUMPI DUP1 PUSH1 0x1F LT PUSH2 0x34A JUMPI PUSH2 0x100 DUP1 DUP4 SLOAD DIV MUL DUP4 MSTORE SWAP2 PUSH1 0x20 ADD SWAP2 PUSH2 0x375 JUMP JUMPDEST DUP3 ADD SWAP2 SWAP1 PUSH1 0x0 MSTORE PUSH1 0x20 PUSH1 0x0 KECCAK256 SWAP1 JUMPDEST DUP2 SLOAD DUP2 MSTORE SWAP1 PUSH1 0x1 ADD SWAP1 PUSH1 0x20 ADD DUP1 DUP4 GT PUSH2 0x358 JUMPI DUP3 SWAP1 SUB PUSH1 0x1F AND DUP3 ADD SWAP2 JUMPDEST POP POP POP POP POP SWAP1 DUP1 PUSH1 0x1 ADD DUP1 SLOAD PUSH2 0x38A SWAP1 PUSH2 0x738 JUMP JUMPDEST DUP1 PUSH1 0x1F ADD PUSH1 0x20 DUP1 SWAP2 DIV MUL PUSH1 0x20 ADD PUSH1 0x40 MLOAD SWAP1 DUP2 ADD PUSH1 0x40 MSTORE DUP1 SWAP3 SWAP2 SWAP1 DUP2 DUP2 MSTORE PUSH1 0x20 ADD DUP3 DUP1 SLOAD PUSH2 0x3B6 SWAP1 PUSH2 0x738 JUMP JUMPDEST DUP1 ISZERO PUSH2 0x403 JUMPI DUP1 PUSH1 0x1F LT PUSH2 0x3D8 JUMPI PUSH2 0x100 DUP1 DUP4 SLOAD DIV MUL DUP4 MSTORE SWAP2 PUSH1 0x20 ADD SWAP2 PUSH2 0x403 JUMP JUMPDEST DUP3 ADD SWAP2 SWAP1 PUSH1 0x0 MSTORE PUSH1 0x20 PUSH1 0x0 KECCAK256 SWAP1 JUMPDEST DUP2 SLOAD DUP2 MSTORE SWAP1 PUSH1 0x1 ADD SWAP1 PUSH1 0x20 ADD DUP1 DUP4 GT PUSH2 0x3E6 JUMPI DUP3 SWAP1 SUB PUSH1 0x1F AND DUP3 ADD SWAP2 JUMPDEST POP POP POP POP POP SWAP1 DUP1 PUSH1 0x2 ADD PUSH1 0x0 SWAP1 SLOAD SWAP1 PUSH2 0x100 EXP SWAP1 DIV PUSH20 0xFFFFFFFFFFFFFFFFFFFFFFFFFFFFFFFFFFFFFFFF AND SWAP1 DUP1 PUSH1 0x2 ADD PUSH1 0x14 SWAP1 SLOAD SWAP1 PUSH2 0x100 EXP SWAP1 DIV PUSH4 0xFFFFFFFF AND SWAP1 DUP1 PUSH1 0x2 ADD PUSH1 0x18 SWAP1 SLOAD SWAP1 PUSH2 0x100 EXP SWAP1 DIV PUSH4 0xFFFFFFFF AND SWAP1 POP DUP6 JUMP JUMPDEST PUSH1 0x0 DUP2 CALLDATALOAD SWAP1 POP PUSH2 0x46E DUP2 PUSH2 0x822 JUMP JUMPDEST SWAP3 SWAP2 POP POP JUMP JUMPDEST PUSH1 0x0 DUP2 CALLDATALOAD SWAP1 POP PUSH2 0x483 DUP2 PUSH2 0x839 JUMP JUMPDEST SWAP3 SWAP2 POP POP JUMP JUMPDEST PUSH1 0x0 PUSH1 0x20 DUP3 DUP5 SUB SLT ISZERO PUSH2 0x49B JUMPI PUSH1 0x0 DUP1 REVERT JUMPDEST PUSH1 0x0 PUSH2 0x4A9 DUP5 DUP3 DUP6 ADD PUSH2 0x45F JUMP JUMPDEST SWAP2 POP POP SWAP3 SWAP2 POP POP JUMP JUMPDEST PUSH1 0x0 PUSH1 0x20 DUP3 DUP5 SUB SLT ISZERO PUSH2 0x4C4 JUMPI PUSH1 0x0 DUP1 REVERT JUMPDEST PUSH1 0x0 PUSH2 0x4D2 DUP5 DUP3 DUP6 ADD PUSH2 0x474 JUMP JUMPDEST SWAP2 POP POP SWAP3 SWAP2 POP POP JUMP JUMPDEST PUSH1 0x0 PUSH2 0x4E7 DUP4 DUP4 PUSH2 0x599 JUMP JUMPDEST PUSH1 0x20 DUP4 ADD SWAP1 POP SWAP3 SWAP2 POP POP JUMP JUMPDEST PUSH2 0x4FC DUP2 PUSH2 0x6B9 JUMP JUMPDEST DUP3 MSTORE POP POP JUMP JUMPDEST PUSH1 0x0 PUSH2 0x50D DUP3 PUSH2 0x674 JUMP JUMPDEST PUSH2 0x517 DUP2 DUP6 PUSH2 0x697 JUMP JUMPDEST SWAP4 POP PUSH2 0x522 DUP4 PUSH2 0x664 JUMP JUMPDEST DUP1 PUSH1 0x0 JUMPDEST DUP4 DUP2 LT ISZERO PUSH2 0x553 JUMPI DUP2 MLOAD PUSH2 0x53A DUP9 DUP3 PUSH2 0x4DB JUMP JUMPDEST SWAP8 POP PUSH2 0x545 DUP4 PUSH2 0x68A JUMP JUMPDEST SWAP3 POP POP PUSH1 0x1 DUP2 ADD SWAP1 POP PUSH2 0x526 JUMP JUMPDEST POP DUP6 SWAP4 POP POP POP POP SWAP3 SWAP2 POP POP JUMP JUMPDEST PUSH1 0x0 PUSH2 0x56B DUP3 PUSH2 0x67F JUMP JUMPDEST PUSH2 0x575 DUP2 DUP6 PUSH2 0x6A8 JUMP JUMPDEST SWAP4 POP PUSH2 0x585 DUP2 DUP6 PUSH1 0x20 DUP7 ADD PUSH2 0x705 JUMP JUMPDEST PUSH2 0x58E DUP2 PUSH2 0x811 JUMP JUMPDEST DUP5 ADD SWAP2 POP POP SWAP3 SWAP2 POP POP JUMP JUMPDEST PUSH2 0x5A2 DUP2 PUSH2 0x6EB JUMP JUMPDEST DUP3 MSTORE POP POP JUMP JUMPDEST PUSH2 0x5B1 DUP2 PUSH2 0x6EB JUMP JUMPDEST DUP3 MSTORE POP POP JUMP JUMPDEST PUSH2 0x5C0 DUP2 PUSH2 0x6F5 JUMP JUMPDEST DUP3 MSTORE POP POP JUMP JUMPDEST PUSH1 0x0 PUSH1 0x20 DUP3 ADD SWAP1 POP DUP2 DUP2 SUB PUSH1 0x0 DUP4 ADD MSTORE PUSH2 0x5E0 DUP2 DUP5 PUSH2 0x502 JUMP JUMPDEST SWAP1 POP SWAP3 SWAP2 POP POP JUMP JUMPDEST PUSH1 0x0 PUSH1 0xA0 DUP3 ADD SWAP1 POP DUP2 DUP2 SUB PUSH1 0x0 DUP4 ADD MSTORE PUSH2 0x602 DUP2 DUP9 PUSH2 0x560 JUMP JUMPDEST SWAP1 POP DUP2 DUP2 SUB PUSH1 0x20 DUP4 ADD MSTORE PUSH2 0x616 DUP2 DUP8 PUSH2 0x560 JUMP JUMPDEST SWAP1 POP PUSH2 0x625 PUSH1 0x40 DUP4 ADD DUP7 PUSH2 0x4F3 JUMP JUMPDEST PUSH2 0x632 PUSH1 0x60 DUP4 ADD DUP6 PUSH2 0x5B7 JUMP JUMPDEST PUSH2 0x63F PUSH1 0x80 DUP4 ADD DUP5 PUSH2 0x5B7 JUMP JUMPDEST SWAP7 SWAP6 POP POP POP POP POP POP JUMP JUMPDEST PUSH1 0x0 PUSH1 0x20 DUP3 ADD SWAP1 POP PUSH2 0x65E PUSH1 0x0 DUP4 ADD DUP5 PUSH2 0x5A8 JUMP JUMPDEST SWAP3 SWAP2 POP POP JUMP JUMPDEST PUSH1 0x0 DUP2 SWAP1 POP PUSH1 0x20 DUP3 ADD SWAP1 POP SWAP2 SWAP1 POP JUMP JUMPDEST PUSH1 0x0 DUP2 MLOAD SWAP1 POP SWAP2 SWAP1 POP JUMP JUMPDEST PUSH1 0x0 DUP2 MLOAD SWAP1 POP SWAP2 SWAP1 POP JUMP JUMPDEST PUSH1 0x0 PUSH1 0x20 DUP3 ADD SWAP1 POP SWAP2 SWAP1 POP JUMP JUMPDEST PUSH1 0x0 DUP3 DUP3 MSTORE PUSH1 0x20 DUP3 ADD SWAP1 POP SWAP3 SWAP2 POP POP JUMP JUMPDEST PUSH1 0x0 DUP3 DUP3 MSTORE PUSH1 0x20 DUP3 ADD SWAP1 POP SWAP3 SWAP2 POP POP JUMP JUMPDEST PUSH1 0x0 PUSH2 0x6C4 DUP3 PUSH2 0x6CB JUMP JUMPDEST SWAP1 POP SWAP2 SWAP1 POP JUMP JUMPDEST PUSH1 0x0 PUSH20 0xFFFFFFFFFFFFFFFFFFFFFFFFFFFFFFFFFFFFFFFF DUP3 AND SWAP1 POP SWAP2 SWAP1 POP JUMP JUMPDEST PUSH1 0x0 DUP2 SWAP1 POP SWAP2 SWAP1 POP JUMP JUMPDEST PUSH1 0x0 PUSH4 0xFFFFFFFF DUP3 AND SWAP1 POP SWAP2 SWAP1 POP JUMP JUMPDEST PUSH1 0x0 JUMPDEST DUP4 DUP2 LT ISZERO PUSH2 0x723 JUMPI DUP1 DUP3 ADD MLOAD DUP2 DUP5 ADD MSTORE PUSH1 0x20 DUP2 ADD SWAP1 POP PUSH2 0x708 JUMP JUMPDEST DUP4 DUP2 GT ISZERO PUSH2 0x732 JUMPI PUSH1 0x0 DUP5 DUP5 ADD MSTORE JUMPDEST POP POP POP POP JUMP JUMPDEST PUSH1 0x0 PUSH1 0x2 DUP3 DIV SWAP1 POP PUSH1 0x1 DUP3 AND DUP1 PUSH2 0x750 JUMPI PUSH1 0x7F DUP3 AND SWAP2 POP JUMPDEST PUSH1 0x20 DUP3 LT DUP2 EQ ISZERO PUSH2 0x764 JUMPI PUSH2 0x763 PUSH2 0x7E2 JUMP JUMPDEST JUMPDEST POP SWAP2 SWAP1 POP JUMP JUMPDEST PUSH1 0x0 PUSH2 0x775 DUP3 PUSH2 0x6EB JUMP JUMPDEST SWAP2 POP PUSH32 0xFFFFFFFFFFFFFFFFFFFFFFFFFFFFFFFFFFFFFFFFFFFFFFFFFFFFFFFFFFFFFFFF DUP3 EQ ISZERO PUSH2 0x7A8 JUMPI PUSH2 0x7A7 PUSH2 0x7B3 JUMP JUMPDEST JUMPDEST PUSH1 0x1 DUP3 ADD SWAP1 POP SWAP2 SWAP1 POP JUMP JUMPDEST PUSH32 0x4E487B7100000000000000000000000000000000000000000000000000000000 PUSH1 0x0 MSTORE PUSH1 0x11 PUSH1 0x4 MSTORE PUSH1 0x24 PUSH1 0x0 REVERT JUMPDEST PUSH32 0x4E487B7100000000000000000000000000000000000000000000000000000000 PUSH1 0x0 MSTORE PUSH1 0x22 PUSH1 0x4 MSTORE PUSH1 0x24 PUSH1 0x0 REVERT JUMPDEST PUSH1 0x0 PUSH1 0x1F NOT PUSH1 0x1F DUP4 ADD AND SWAP1 POP SWAP2 SWAP1 POP JUMP JUMPDEST PUSH2 0x82B DUP2 PUSH2 0x6B9 JUMP JUMPDEST DUP2 EQ PUSH2 0x836 JUMPI PUSH1 0x0 DUP1 REVERT JUMPDEST POP JUMP JUMPDEST PUSH2 0x842 DUP2 PUSH2 0x6EB JUMP JUMPDEST DUP2 EQ PUSH2 0x84D JUMPI PUSH1 0x0 DUP1 REVERT JUMPDEST POP JUMP INVALID LOG2 PUSH5 0x6970667358 0x22 SLT KECCAK256 0xC3 SWAP8 EXTCODECOPY SWAP9 0xE3 ADD SWAP3 0xF 0xAC 0xB2 SDIV 0xB9 COINBASE SGT CALLDATALOAD AND 0xD2 SMOD SWAP1 LOG0 PUSH18 0x820C481CEDBDF18A08EBB964736F6C634300 ADDMOD STOP STOP CALLER "
				},
				"gasEstimates": {
					"creation": {
						"codeDepositCost": "436400",
						"executionCost": "474",
						"totalCost": "436874"
					},
					"external": {
						"getItemIDsByOwner(address)": "infinite",
						"items(uint256)": "infinite",
						"ownerItemCount(address)": "1492"
					}
				},
				"methodIdentifiers": {
					"getItemIDsByOwner(address)": "4f377035",
					"items(uint256)": "bfb231d2",
					"ownerItemCount(address)": "4c798473"
				}
			},
			"storageLayout": {
				"storage": [
					{
						"astId": 17,
						"contract": "contracts/sandbox.sol:MemoryArrayBuilding",
						"label": "items",
						"offset": 0,
						"slot": "0",
						"type": "t_array(t_struct(Item)13_storage)dyn_storage"
					},
					{
						"astId": 21,
						"contract": "contracts/sandbox.sol:MemoryArrayBuilding",
						"label": "ownerItemCount",
						"offset": 0,
						"slot": "1",
						"type": "t_mapping(t_address,t_uint256)"
					}
				],
				"types": {
					"t_address": {
						"encoding": "inplace",
						"label": "address",
						"numberOfBytes": "20"
					},
					"t_array(t_struct(Item)13_storage)dyn_storage": {
						"base": "t_struct(Item)13_storage",
						"encoding": "dynamic_array",
						"label": "struct MemoryArrayBuilding.Item[]",
						"numberOfBytes": "32"
					},
					"t_mapping(t_address,t_uint256)": {
						"encoding": "mapping",
						"key": "t_address",
						"label": "mapping(address => uint256)",
						"numberOfBytes": "32",
						"value": "t_uint256"
					},
					"t_string_storage": {
						"encoding": "bytes",
						"label": "string",
						"numberOfBytes": "32"
					},
					"t_struct(Item)13_storage": {
						"encoding": "inplace",
						"label": "struct MemoryArrayBuilding.Item",
						"members": [
							{
								"astId": 4,
								"contract": "contracts/sandbox.sol:MemoryArrayBuilding",
								"label": "name",
								"offset": 0,
								"slot": "0",
								"type": "t_string_storage"
							},
							{
								"astId": 6,
								"contract": "contracts/sandbox.sol:MemoryArrayBuilding",
								"label": "category",
								"offset": 0,
								"slot": "1",
								"type": "t_string_storage"
							},
							{
								"astId": 8,
								"contract": "contracts/sandbox.sol:MemoryArrayBuilding",
								"label": "owner",
								"offset": 0,
								"slot": "2",
								"type": "t_address"
							},
							{
								"astId": 10,
								"contract": "contracts/sandbox.sol:MemoryArrayBuilding",
								"label": "zipcode",
								"offset": 20,
								"slot": "2",
								"type": "t_uint32"
							},
							{
								"astId": 12,
								"contract": "contracts/sandbox.sol:MemoryArrayBuilding",
								"label": "price",
								"offset": 24,
								"slot": "2",
								"type": "t_uint32"
							}
						],
						"numberOfBytes": "96"
					},
					"t_uint256": {
						"encoding": "inplace",
						"label": "uint256",
						"numberOfBytes": "32"
					},
					"t_uint32": {
						"encoding": "inplace",
						"label": "uint32",
						"numberOfBytes": "4"
					}
				}
			},
			"userdoc": {
				"kind": "user",
				"methods": {},
				"version": 1
			}
		}
	}
}