{
	"contracts/sandbox.sol": {
		"Bar": {
			"abi": [
				{
					"inputs": [
						{
							"internalType": "uint256",
							"name": "id",
							"type": "uint256"
						},
						{
							"internalType": "uint256",
							"name": "_x",
							"type": "uint256"
						}
					],
					"name": "add",
					"outputs": [],
					"stateMutability": "nonpayable",
					"type": "function"
				},
				{
					"inputs": [
						{
							"internalType": "uint256",
							"name": "id",
							"type": "uint256"
						},
						{
							"internalType": "uint256",
							"name": "index",
							"type": "uint256"
						}
					],
					"name": "get",
					"outputs": [
						{
							"internalType": "uint256",
							"name": "",
							"type": "uint256"
						}
					],
					"stateMutability": "nonpayable",
					"type": "function"
				}
			],
			"devdoc": {
				"kind": "dev",
				"methods": {},
				"version": 1
			},
			"evm": {
				"assembly": "    /* \"contracts/sandbox.sol\":95:377  contract Bar{\r... */\n  mstore(0x40, 0x80)\n  callvalue\n  dup1\n  iszero\n  tag_1\n  jumpi\n  0x00\n  dup1\n  revert\ntag_1:\n  pop\n  dataSize(sub_0)\n  dup1\n  dataOffset(sub_0)\n  0x00\n  codecopy\n  0x00\n  return\nstop\n\nsub_0: assembly {\n        /* \"contracts/sandbox.sol\":95:377  contract Bar{\r... */\n      mstore(0x40, 0x80)\n      callvalue\n      dup1\n      iszero\n      tag_1\n      jumpi\n      0x00\n      dup1\n      revert\n    tag_1:\n      pop\n      jumpi(tag_2, lt(calldatasize, 0x04))\n      shr(0xe0, calldataload(0x00))\n      dup1\n      0x669e48aa\n      eq\n      tag_3\n      jumpi\n      dup1\n      0x771602f7\n      eq\n      tag_4\n      jumpi\n    tag_2:\n      0x00\n      dup1\n      revert\n        /* \"contracts/sandbox.sol\":278:374  function get(uint id, uint index) public returns(uint){\r... */\n    tag_3:\n      tag_5\n      0x04\n      dup1\n      calldatasize\n      sub\n      dup2\n      add\n      swap1\n      tag_6\n      swap2\n      swap1\n      tag_7\n      jump\t// in\n    tag_6:\n      tag_8\n      jump\t// in\n    tag_5:\n      mload(0x40)\n      tag_9\n      swap2\n      swap1\n      tag_10\n      jump\t// in\n    tag_9:\n      mload(0x40)\n      dup1\n      swap2\n      sub\n      swap1\n      return\n        /* \"contracts/sandbox.sol\":192:270  function add(uint id, uint _x) public {\r... */\n    tag_4:\n      tag_11\n      0x04\n      dup1\n      calldatasize\n      sub\n      dup2\n      add\n      swap1\n      tag_12\n      swap2\n      swap1\n      tag_7\n      jump\t// in\n    tag_12:\n      tag_13\n      jump\t// in\n    tag_11:\n      stop\n        /* \"contracts/sandbox.sol\":278:374  function get(uint id, uint index) public returns(uint){\r... */\n    tag_8:\n        /* \"contracts/sandbox.sol\":327:331  uint */\n      0x00\n        /* \"contracts/sandbox.sol\":350:353  foo */\n      dup1\n        /* \"contracts/sandbox.sol\":350:357  foo[id] */\n      0x00\n        /* \"contracts/sandbox.sol\":354:356  id */\n      dup5\n        /* \"contracts/sandbox.sol\":350:357  foo[id] */\n      dup2\n      mstore\n      0x20\n      add\n      swap1\n      dup2\n      mstore\n      0x20\n      add\n      0x00\n      keccak256\n        /* \"contracts/sandbox.sol\":358:363  index */\n      dup3\n        /* \"contracts/sandbox.sol\":350:364  foo[id][index] */\n      dup2\n      sload\n      dup2\n      lt\n      tag_15\n      jumpi\n      mstore(0x00, 0x4e487b7100000000000000000000000000000000000000000000000000000000)\n      mstore(0x04, 0x32)\n      revert(0x00, 0x24)\n    tag_15:\n      swap1\n      0x00\n      mstore\n      keccak256(0x00, 0x20)\n      add\n        /* \"contracts/sandbox.sol\":350:366  foo[id][index].x */\n      0x00\n      add\n      sload\n        /* \"contracts/sandbox.sol\":343:366  return foo[id][index].x */\n      swap1\n      pop\n        /* \"contracts/sandbox.sol\":278:374  function get(uint id, uint index) public returns(uint){\r... */\n      swap3\n      swap2\n      pop\n      pop\n      jump\t// out\n        /* \"contracts/sandbox.sol\":192:270  function add(uint id, uint _x) public {\r... */\n    tag_13:\n        /* \"contracts/sandbox.sol\":241:244  foo */\n      0x00\n        /* \"contracts/sandbox.sol\":241:248  foo[id] */\n      dup1\n        /* \"contracts/sandbox.sol\":245:247  id */\n      dup4\n        /* \"contracts/sandbox.sol\":241:248  foo[id] */\n      dup2\n      mstore\n      0x20\n      add\n      swap1\n      dup2\n      mstore\n      0x20\n      add\n      0x00\n      keccak256\n        /* \"contracts/sandbox.sol\":254:261  Foo(_x) */\n      mload(0x40)\n      dup1\n      0x20\n      add\n      0x40\n      mstore\n      dup1\n        /* \"contracts/sandbox.sol\":258:260  _x */\n      dup4\n        /* \"contracts/sandbox.sol\":254:261  Foo(_x) */\n      dup2\n      mstore\n      pop\n        /* \"contracts/sandbox.sol\":241:262  foo[id].push(Foo(_x)) */\n      swap1\n      dup1\n      0x01\n      dup2\n      sload\n      add\n      dup1\n      dup3\n      sstore\n      dup1\n      swap2\n      pop\n      pop\n      0x01\n      swap1\n      sub\n      swap1\n      0x00\n      mstore\n      keccak256(0x00, 0x20)\n      add\n      0x00\n      swap1\n      swap2\n      swap1\n      swap2\n      swap1\n      swap2\n      pop\n      0x00\n      dup3\n      add\n      mload\n      dup2\n      0x00\n      add\n      sstore\n      pop\n      pop\n        /* \"contracts/sandbox.sol\":192:270  function add(uint id, uint _x) public {\r... */\n      pop\n      pop\n      jump\t// out\n        /* \"#utility.yul\":7:146   */\n    tag_20:\n      0x00\n        /* \"#utility.yul\":91:97   */\n      dup2\n        /* \"#utility.yul\":78:98   */\n      calldataload\n        /* \"#utility.yul\":69:98   */\n      swap1\n      pop\n        /* \"#utility.yul\":107:140   */\n      tag_22\n        /* \"#utility.yul\":134:139   */\n      dup2\n        /* \"#utility.yul\":107:140   */\n      tag_23\n      jump\t// in\n    tag_22:\n        /* \"#utility.yul\":59:146   */\n      swap3\n      swap2\n      pop\n      pop\n      jump\t// out\n        /* \"#utility.yul\":152:559   */\n    tag_7:\n      0x00\n      dup1\n        /* \"#utility.yul\":277:279   */\n      0x40\n        /* \"#utility.yul\":265:274   */\n      dup4\n        /* \"#utility.yul\":256:263   */\n      dup6\n        /* \"#utility.yul\":252:275   */\n      sub\n        /* \"#utility.yul\":248:280   */\n      slt\n        /* \"#utility.yul\":245:247   */\n      iszero\n      tag_25\n      jumpi\n        /* \"#utility.yul\":293:294   */\n      0x00\n        /* \"#utility.yul\":290:291   */\n      dup1\n        /* \"#utility.yul\":283:295   */\n      revert\n        /* \"#utility.yul\":245:247   */\n    tag_25:\n        /* \"#utility.yul\":336:337   */\n      0x00\n        /* \"#utility.yul\":361:414   */\n      tag_26\n        /* \"#utility.yul\":406:413   */\n      dup6\n        /* \"#utility.yul\":397:403   */\n      dup3\n        /* \"#utility.yul\":386:395   */\n      dup7\n        /* \"#utility.yul\":382:404   */\n      add\n        /* \"#utility.yul\":361:414   */\n      tag_20\n      jump\t// in\n    tag_26:\n        /* \"#utility.yul\":351:414   */\n      swap3\n      pop\n        /* \"#utility.yul\":307:424   */\n      pop\n        /* \"#utility.yul\":463:465   */\n      0x20\n        /* \"#utility.yul\":489:542   */\n      tag_27\n        /* \"#utility.yul\":534:541   */\n      dup6\n        /* \"#utility.yul\":525:531   */\n      dup3\n        /* \"#utility.yul\":514:523   */\n      dup7\n        /* \"#utility.yul\":510:532   */\n      add\n        /* \"#utility.yul\":489:542   */\n      tag_20\n      jump\t// in\n    tag_27:\n        /* \"#utility.yul\":479:542   */\n      swap2\n      pop\n        /* \"#utility.yul\":434:552   */\n      pop\n        /* \"#utility.yul\":235:559   */\n      swap3\n      pop\n      swap3\n      swap1\n      pop\n      jump\t// out\n        /* \"#utility.yul\":565:683   */\n    tag_28:\n        /* \"#utility.yul\":652:676   */\n      tag_30\n        /* \"#utility.yul\":670:675   */\n      dup2\n        /* \"#utility.yul\":652:676   */\n      tag_31\n      jump\t// in\n    tag_30:\n        /* \"#utility.yul\":647:650   */\n      dup3\n        /* \"#utility.yul\":640:677   */\n      mstore\n        /* \"#utility.yul\":630:683   */\n      pop\n      pop\n      jump\t// out\n        /* \"#utility.yul\":689:911   */\n    tag_10:\n      0x00\n        /* \"#utility.yul\":820:822   */\n      0x20\n        /* \"#utility.yul\":809:818   */\n      dup3\n        /* \"#utility.yul\":805:823   */\n      add\n        /* \"#utility.yul\":797:823   */\n      swap1\n      pop\n        /* \"#utility.yul\":833:904   */\n      tag_33\n        /* \"#utility.yul\":901:902   */\n      0x00\n        /* \"#utility.yul\":890:899   */\n      dup4\n        /* \"#utility.yul\":886:903   */\n      add\n        /* \"#utility.yul\":877:883   */\n      dup5\n        /* \"#utility.yul\":833:904   */\n      tag_28\n      jump\t// in\n    tag_33:\n        /* \"#utility.yul\":787:911   */\n      swap3\n      swap2\n      pop\n      pop\n      jump\t// out\n        /* \"#utility.yul\":917:994   */\n    tag_31:\n      0x00\n        /* \"#utility.yul\":983:988   */\n      dup2\n        /* \"#utility.yul\":972:988   */\n      swap1\n      pop\n        /* \"#utility.yul\":962:994   */\n      swap2\n      swap1\n      pop\n      jump\t// out\n        /* \"#utility.yul\":1000:1122   */\n    tag_23:\n        /* \"#utility.yul\":1073:1097   */\n      tag_36\n        /* \"#utility.yul\":1091:1096   */\n      dup2\n        /* \"#utility.yul\":1073:1097   */\n      tag_31\n      jump\t// in\n    tag_36:\n        /* \"#utility.yul\":1066:1071   */\n      dup2\n        /* \"#utility.yul\":1063:1098   */\n      eq\n        /* \"#utility.yul\":1053:1055   */\n      tag_37\n      jumpi\n        /* \"#utility.yul\":1112:1113   */\n      0x00\n        /* \"#utility.yul\":1109:1110   */\n      dup1\n        /* \"#utility.yul\":1102:1114   */\n      revert\n        /* \"#utility.yul\":1053:1055   */\n    tag_37:\n        /* \"#utility.yul\":1043:1122   */\n      pop\n      jump\t// out\n\n    auxdata: 0xa2646970667358221220c3129bc2600103d2657dd3d9d5e273fea58278f1ee20bdc88c1ae701ea94e48a64736f6c63430008000033\n}\n",
				"bytecode": {
					"linkReferences": {},
					"object": "608060405234801561001057600080fd5b50610211806100206000396000f3fe608060405234801561001057600080fd5b50600436106100365760003560e01c8063669e48aa1461003b578063771602f71461006b575b600080fd5b61005560048036038101906100509190610154565b610087565b604051610062919061019f565b60405180910390f35b61008560048036038101906100809190610154565b6100e9565b005b600080600084815260200190815260200160002082815481106100d3577f4e487b7100000000000000000000000000000000000000000000000000000000600052603260045260246000fd5b9060005260206000200160000154905092915050565b600080838152602001908152602001600020604051806020016040528083815250908060018154018082558091505060019003906000526020600020016000909190919091506000820151816000015550505050565b60008135905061014e816101c4565b92915050565b6000806040838503121561016757600080fd5b60006101758582860161013f565b92505060206101868582860161013f565b9150509250929050565b610199816101ba565b82525050565b60006020820190506101b46000830184610190565b92915050565b6000819050919050565b6101cd816101ba565b81146101d857600080fd5b5056fea2646970667358221220c3129bc2600103d2657dd3d9d5e273fea58278f1ee20bdc88c1ae701ea94e48a64736f6c63430008000033",
					"opcodes": "PUSH1 0x80 PUSH1 0x40 MSTORE CALLVALUE DUP1 ISZERO PUSH2 0x10 JUMPI PUSH1 0x0 DUP1 REVERT JUMPDEST POP PUSH2 0x211 DUP1 PUSH2 0x20 PUSH1 0x0 CODECOPY PUSH1 0x0 RETURN INVALID PUSH1 0x80 PUSH1 0x40 MSTORE CALLVALUE DUP1 ISZERO PUSH2 0x10 JUMPI PUSH1 0x0 DUP1 REVERT JUMPDEST POP PUSH1 0x4 CALLDATASIZE LT PUSH2 0x36 JUMPI PUSH1 0x0 CALLDATALOAD PUSH1 0xE0 SHR DUP1 PUSH4 0x669E48AA EQ PUSH2 0x3B JUMPI DUP1 PUSH4 0x771602F7 EQ PUSH2 0x6B JUMPI JUMPDEST PUSH1 0x0 DUP1 REVERT JUMPDEST PUSH2 0x55 PUSH1 0x4 DUP1 CALLDATASIZE SUB DUP2 ADD SWAP1 PUSH2 0x50 SWAP2 SWAP1 PUSH2 0x154 JUMP JUMPDEST PUSH2 0x87 JUMP JUMPDEST PUSH1 0x40 MLOAD PUSH2 0x62 SWAP2 SWAP1 PUSH2 0x19F JUMP JUMPDEST PUSH1 0x40 MLOAD DUP1 SWAP2 SUB SWAP1 RETURN JUMPDEST PUSH2 0x85 PUSH1 0x4 DUP1 CALLDATASIZE SUB DUP2 ADD SWAP1 PUSH2 0x80 SWAP2 SWAP1 PUSH2 0x154 JUMP JUMPDEST PUSH2 0xE9 JUMP JUMPDEST STOP JUMPDEST PUSH1 0x0 DUP1 PUSH1 0x0 DUP5 DUP2 MSTORE PUSH1 0x20 ADD SWAP1 DUP2 MSTORE PUSH1 0x20 ADD PUSH1 0x0 KECCAK256 DUP3 DUP2 SLOAD DUP2 LT PUSH2 0xD3 JUMPI PUSH32 0x4E487B7100000000000000000000000000000000000000000000000000000000 PUSH1 0x0 MSTORE PUSH1 0x32 PUSH1 0x4 MSTORE PUSH1 0x24 PUSH1 0x0 REVERT JUMPDEST SWAP1 PUSH1 0x0 MSTORE PUSH1 0x20 PUSH1 0x0 KECCAK256 ADD PUSH1 0x0 ADD SLOAD SWAP1 POP SWAP3 SWAP2 POP POP JUMP JUMPDEST PUSH1 0x0 DUP1 DUP4 DUP2 MSTORE PUSH1 0x20 ADD SWAP1 DUP2 MSTORE PUSH1 0x20 ADD PUSH1 0x0 KECCAK256 PUSH1 0x40 MLOAD DUP1 PUSH1 0x20 ADD PUSH1 0x40 MSTORE DUP1 DUP4 DUP2 MSTORE POP SWAP1 DUP1 PUSH1 0x1 DUP2 SLOAD ADD DUP1 DUP3 SSTORE DUP1 SWAP2 POP POP PUSH1 0x1 SWAP1 SUB SWAP1 PUSH1 0x0 MSTORE PUSH1 0x20 PUSH1 0x0 KECCAK256 ADD PUSH1 0x0 SWAP1 SWAP2 SWAP1 SWAP2 SWAP1 SWAP2 POP PUSH1 0x0 DUP3 ADD MLOAD DUP2 PUSH1 0x0 ADD SSTORE POP POP POP POP JUMP JUMPDEST PUSH1 0x0 DUP2 CALLDATALOAD SWAP1 POP PUSH2 0x14E DUP2 PUSH2 0x1C4 JUMP JUMPDEST SWAP3 SWAP2 POP POP JUMP JUMPDEST PUSH1 0x0 DUP1 PUSH1 0x40 DUP4 DUP6 SUB SLT ISZERO PUSH2 0x167 JUMPI PUSH1 0x0 DUP1 REVERT JUMPDEST PUSH1 0x0 PUSH2 0x175 DUP6 DUP3 DUP7 ADD PUSH2 0x13F JUMP JUMPDEST SWAP3 POP POP PUSH1 0x20 PUSH2 0x186 DUP6 DUP3 DUP7 ADD PUSH2 0x13F JUMP JUMPDEST SWAP2 POP POP SWAP3 POP SWAP3 SWAP1 POP JUMP JUMPDEST PUSH2 0x199 DUP2 PUSH2 0x1BA JUMP JUMPDEST DUP3 MSTORE POP POP JUMP JUMPDEST PUSH1 0x0 PUSH1 0x20 DUP3 ADD SWAP1 POP PUSH2 0x1B4 PUSH1 0x0 DUP4 ADD DUP5 PUSH2 0x190 JUMP JUMPDEST SWAP3 SWAP2 POP POP JUMP JUMPDEST PUSH1 0x0 DUP2 SWAP1 POP SWAP2 SWAP1 POP JUMP JUMPDEST PUSH2 0x1CD DUP2 PUSH2 0x1BA JUMP JUMPDEST DUP2 EQ PUSH2 0x1D8 JUMPI PUSH1 0x0 DUP1 REVERT JUMPDEST POP JUMP INVALID LOG2 PUSH5 0x6970667358 0x22 SLT KECCAK256 0xC3 SLT SWAP12 0xC2 PUSH1 0x1 SUB 0xD2 PUSH6 0x7DD3D9D5E273 INVALID 0xA5 DUP3 PUSH25 0xF1EE20BDC88C1AE701EA94E48A64736F6C6343000800003300 "
				},
				"gasEstimates": {
					"creation": {
						"codeDepositCost": "105800",
						"executionCost": "153",
						"totalCost": "105953"
					},
					"external": {
						"add(uint256,uint256)": "infinite",
						"get(uint256,uint256)": "infinite"
					}
				},
				"methodIdentifiers": {
					"add(uint256,uint256)": "771602f7",
					"get(uint256,uint256)": "669e48aa"
				}
			},
			"storageLayout": {
				"storage": [
					{
						"astId": 11,
						"contract": "contracts/sandbox.sol:Bar",
						"label": "foo",
						"offset": 0,
						"slot": "0",
						"type": "t_mapping(t_uint256,t_array(t_struct(Foo)5_storage)dyn_storage)"
					}
				],
				"types": {
					"t_array(t_struct(Foo)5_storage)dyn_storage": {
						"base": "t_struct(Foo)5_storage",
						"encoding": "dynamic_array",
						"label": "struct Bar.Foo[]",
						"numberOfBytes": "32"
					},
					"t_mapping(t_uint256,t_array(t_struct(Foo)5_storage)dyn_storage)": {
						"encoding": "mapping",
						"key": "t_uint256",
						"label": "mapping(uint256 => struct Bar.Foo[])",
						"numberOfBytes": "32",
						"value": "t_array(t_struct(Foo)5_storage)dyn_storage"
					},
					"t_struct(Foo)5_storage": {
						"encoding": "inplace",
						"label": "struct Bar.Foo",
						"members": [
							{
								"astId": 4,
								"contract": "contracts/sandbox.sol:Bar",
								"label": "x",
								"offset": 0,
								"slot": "0",
								"type": "t_uint256"
							}
						],
						"numberOfBytes": "32"
					},
					"t_uint256": {
						"encoding": "inplace",
						"label": "uint256",
						"numberOfBytes": "32"
					}
				}
			},
			"userdoc": {
				"kind": "user",
				"methods": {},
				"version": 1
			}
		}
	}
}