{
	"contracts/proposal.sol": {
		"TestProposal": {
			"abi": [
				{
					"inputs": [],
					"stateMutability": "nonpayable",
					"type": "constructor"
				},
				{
					"inputs": [
						{
							"internalType": "uint256",
							"name": "_proposalId",
							"type": "uint256"
						},
						{
							"internalType": "uint256",
							"name": "_proposalStatus",
							"type": "uint256"
						},
						{
							"internalType": "address",
							"name": "_proposalCreator",
							"type": "address"
						},
						{
							"internalType": "uint256",
							"name": "_proposalNumOfOptions",
							"type": "uint256"
						},
						{
							"internalType": "string",
							"name": "_proposalOptions",
							"type": "string"
						}
					],
					"name": "addProposal",
					"outputs": [],
					"stateMutability": "nonpayable",
					"type": "function"
				},
				{
					"inputs": [],
					"name": "getOptions",
					"outputs": [
						{
							"internalType": "string[]",
							"name": "",
							"type": "string[]"
						}
					],
					"stateMutability": "view",
					"type": "function"
				},
				{
					"inputs": [
						{
							"internalType": "uint256",
							"name": "_proposalId",
							"type": "uint256"
						}
					],
					"name": "getProposalStructure",
					"outputs": [
						{
							"components": [
								{
									"internalType": "uint256",
									"name": "proposalId",
									"type": "uint256"
								},
								{
									"internalType": "uint256",
									"name": "proposalStatus",
									"type": "uint256"
								},
								{
									"internalType": "address",
									"name": "proposalCreator",
									"type": "address"
								},
								{
									"internalType": "uint256",
									"name": "proposalNumOfOptions",
									"type": "uint256"
								},
								{
									"internalType": "string",
									"name": "proposalOptions",
									"type": "string"
								}
							],
							"internalType": "struct TestProposal.Proposal",
							"name": "",
							"type": "tuple"
						}
					],
					"stateMutability": "view",
					"type": "function"
				},
				{
					"inputs": [
						{
							"internalType": "uint256",
							"name": "",
							"type": "uint256"
						}
					],
					"name": "opopop",
					"outputs": [
						{
							"internalType": "string",
							"name": "",
							"type": "string"
						}
					],
					"stateMutability": "view",
					"type": "function"
				},
				{
					"inputs": [],
					"name": "proposalCount",
					"outputs": [
						{
							"internalType": "uint256",
							"name": "",
							"type": "uint256"
						}
					],
					"stateMutability": "view",
					"type": "function"
				},
				{
					"inputs": [
						{
							"internalType": "uint256",
							"name": "",
							"type": "uint256"
						}
					],
					"name": "proposals",
					"outputs": [
						{
							"internalType": "uint256",
							"name": "proposalId",
							"type": "uint256"
						},
						{
							"internalType": "uint256",
							"name": "proposalStatus",
							"type": "uint256"
						},
						{
							"internalType": "address",
							"name": "proposalCreator",
							"type": "address"
						},
						{
							"internalType": "uint256",
							"name": "proposalNumOfOptions",
							"type": "uint256"
						},
						{
							"internalType": "string",
							"name": "proposalOptions",
							"type": "string"
						}
					],
					"stateMutability": "view",
					"type": "function"
				},
				{
					"inputs": [
						{
							"internalType": "string",
							"name": "_options",
							"type": "string"
						}
					],
					"name": "smt",
					"outputs": [],
					"stateMutability": "nonpayable",
					"type": "function"
				}
			],
			"devdoc": {
				"kind": "dev",
				"methods": {},
				"version": 1
			},
			"evm": {
				"assembly": "    /* \"contracts/proposal.sol\":229:2299  contract TestProposal {\r... */\n  mstore(0x40, 0x80)\n    /* \"contracts/proposal.sol\":809:956  constructor() public {\r... */\n  callvalue\n  dup1\n  iszero\n  tag_1\n  jumpi\n  0x00\n  dup1\n  revert\ntag_1:\n  pop\n    /* \"contracts/proposal.sol\":857:858  0 */\n  0x00\n    /* \"contracts/proposal.sol\":841:854  proposalCount */\n  0x01\n    /* \"contracts/proposal.sol\":841:858  proposalCount = 0 */\n  dup2\n  swap1\n  sstore\n  pop\n    /* \"contracts/proposal.sol\":869:948  addProposal(1, 1, 0xB5dea2661dfa4b8f0aaE8Bc1F583369D927c3b06, 3, \"op1-op2-op3\") */\n  tag_4\n    /* \"contracts/proposal.sol\":881:882  1 */\n  0x01\n    /* \"contracts/proposal.sol\":884:885  1 */\n  dup1\n    /* \"contracts/proposal.sol\":887:929  0xB5dea2661dfa4b8f0aaE8Bc1F583369D927c3b06 */\n  0xb5dea2661dfa4b8f0aae8bc1f583369d927c3b06\n    /* \"contracts/proposal.sol\":931:932  3 */\n  0x03\n    /* \"contracts/proposal.sol\":869:948  addProposal(1, 1, 0xB5dea2661dfa4b8f0aaE8Bc1F583369D927c3b06, 3, \"op1-op2-op3\") */\n  mload(0x40)\n  dup1\n  0x40\n  add\n  0x40\n  mstore\n  dup1\n  0x0b\n  dup2\n  mstore\n  0x20\n  add\n  0x6f70312d6f70322d6f7033000000000000000000000000000000000000000000\n  dup2\n  mstore\n  pop\n    /* \"contracts/proposal.sol\":869:880  addProposal */\n  shl(0x20, tag_5)\n    /* \"contracts/proposal.sol\":869:948  addProposal(1, 1, 0xB5dea2661dfa4b8f0aaE8Bc1F583369D927c3b06, 3, \"op1-op2-op3\") */\n  0x20\n  shr\n  jump\t// in\ntag_4:\n    /* \"contracts/proposal.sol\":229:2299  contract TestProposal {\r... */\n  jump(tag_6)\n    /* \"contracts/proposal.sol\":964:1287  function addProposal(uint _proposalId, uint _proposalStatus, address _proposalCreator, uint _proposalNumOfOptions, string memory _proposalOptions) public {\r... */\ntag_5:\n    /* \"contracts/proposal.sol\":1156:1253  Proposal(_proposalId, _proposalStatus, _proposalCreator, _proposalNumOfOptions, _proposalOptions) */\n  mload(0x40)\n  dup1\n  0xa0\n  add\n  0x40\n  mstore\n  dup1\n    /* \"contracts/proposal.sol\":1165:1176  _proposalId */\n  dup7\n    /* \"contracts/proposal.sol\":1156:1253  Proposal(_proposalId, _proposalStatus, _proposalCreator, _proposalNumOfOptions, _proposalOptions) */\n  dup2\n  mstore\n  0x20\n  add\n    /* \"contracts/proposal.sol\":1178:1193  _proposalStatus */\n  dup6\n    /* \"contracts/proposal.sol\":1156:1253  Proposal(_proposalId, _proposalStatus, _proposalCreator, _proposalNumOfOptions, _proposalOptions) */\n  dup2\n  mstore\n  0x20\n  add\n    /* \"contracts/proposal.sol\":1195:1211  _proposalCreator */\n  dup5\n    /* \"contracts/proposal.sol\":1156:1253  Proposal(_proposalId, _proposalStatus, _proposalCreator, _proposalNumOfOptions, _proposalOptions) */\n  0xffffffffffffffffffffffffffffffffffffffff\n  and\n  dup2\n  mstore\n  0x20\n  add\n    /* \"contracts/proposal.sol\":1213:1234  _proposalNumOfOptions */\n  dup4\n    /* \"contracts/proposal.sol\":1156:1253  Proposal(_proposalId, _proposalStatus, _proposalCreator, _proposalNumOfOptions, _proposalOptions) */\n  dup2\n  mstore\n  0x20\n  add\n    /* \"contracts/proposal.sol\":1236:1252  _proposalOptions */\n  dup3\n    /* \"contracts/proposal.sol\":1156:1253  Proposal(_proposalId, _proposalStatus, _proposalCreator, _proposalNumOfOptions, _proposalOptions) */\n  dup2\n  mstore\n  pop\n    /* \"contracts/proposal.sol\":1129:1138  proposals */\n  0x00\n    /* \"contracts/proposal.sol\":1129:1153  proposals[proposalCount] */\n  dup1\n    /* \"contracts/proposal.sol\":1139:1152  proposalCount */\n  sload(0x01)\n    /* \"contracts/proposal.sol\":1129:1153  proposals[proposalCount] */\n  dup2\n  mstore\n  0x20\n  add\n  swap1\n  dup2\n  mstore\n  0x20\n  add\n  0x00\n  keccak256\n    /* \"contracts/proposal.sol\":1129:1253  proposals[proposalCount] = Proposal(_proposalId, _proposalStatus, _proposalCreator, _proposalNumOfOptions, _proposalOptions) */\n  0x00\n  dup3\n  add\n  mload\n  dup2\n  0x00\n  add\n  sstore\n  0x20\n  dup3\n  add\n  mload\n  dup2\n  0x01\n  add\n  sstore\n  0x40\n  dup3\n  add\n  mload\n  dup2\n  0x02\n  add\n  exp(0x0100, 0x00)\n  dup2\n  sload\n  dup2\n  0xffffffffffffffffffffffffffffffffffffffff\n  mul\n  not\n  and\n  swap1\n  dup4\n  0xffffffffffffffffffffffffffffffffffffffff\n  and\n  mul\n  or\n  swap1\n  sstore\n  pop\n  0x60\n  dup3\n  add\n  mload\n  dup2\n  0x03\n  add\n  sstore\n  0x80\n  dup3\n  add\n  mload\n  dup2\n  0x04\n  add\n  swap1\n  dup1\n  mload\n  swap1\n  0x20\n  add\n  swap1\n  tag_8\n  swap3\n  swap2\n  swap1\n  tag_9\n  jump\t// in\ntag_8:\n  pop\n  swap1\n  pop\n  pop\n    /* \"contracts/proposal.sol\":1264:1277  proposalCount */\n  0x01\n  0x00\n    /* \"contracts/proposal.sol\":1264:1279  proposalCount++ */\n  dup2\n  sload\n  dup1\n  swap3\n  swap2\n  swap1\n  tag_10\n  swap1\n  tag_11\n  jump\t// in\ntag_10:\n  swap2\n  swap1\n  pop\n  sstore\n  pop\n    /* \"contracts/proposal.sol\":964:1287  function addProposal(uint _proposalId, uint _proposalStatus, address _proposalCreator, uint _proposalNumOfOptions, string memory _proposalOptions) public {\r... */\n  pop\n  pop\n  pop\n  pop\n  pop\n  jump\t// out\n    /* \"contracts/proposal.sol\":229:2299  contract TestProposal {\r... */\ntag_9:\n  dup3\n  dup1\n  sload\n  tag_12\n  swap1\n  tag_13\n  jump\t// in\ntag_12:\n  swap1\n  0x00\n  mstore\n  keccak256(0x00, 0x20)\n  swap1\n  0x1f\n  add\n  0x20\n  swap1\n  div\n  dup2\n  add\n  swap3\n  dup3\n  tag_15\n  jumpi\n  0x00\n  dup6\n  sstore\n  jump(tag_14)\ntag_15:\n  dup3\n  0x1f\n  lt\n  tag_16\n  jumpi\n  dup1\n  mload\n  not(0xff)\n  and\n  dup4\n  dup1\n  add\n  or\n  dup6\n  sstore\n  jump(tag_14)\ntag_16:\n  dup3\n  dup1\n  add\n  0x01\n  add\n  dup6\n  sstore\n  dup3\n  iszero\n  tag_14\n  jumpi\n  swap2\n  dup3\n  add\ntag_17:\n  dup3\n  dup2\n  gt\n  iszero\n  tag_18\n  jumpi\n  dup3\n  mload\n  dup3\n  sstore\n  swap2\n  0x20\n  add\n  swap2\n  swap1\n  0x01\n  add\n  swap1\n  jump(tag_17)\ntag_18:\ntag_14:\n  pop\n  swap1\n  pop\n  tag_19\n  swap2\n  swap1\n  tag_20\n  jump\t// in\ntag_19:\n  pop\n  swap1\n  jump\t// out\ntag_20:\ntag_21:\n  dup1\n  dup3\n  gt\n  iszero\n  tag_22\n  jumpi\n  0x00\n  dup2\n  0x00\n  swap1\n  sstore\n  pop\n  0x01\n  add\n  jump(tag_21)\ntag_22:\n  pop\n  swap1\n  jump\t// out\n    /* \"#utility.yul\":7:84   */\ntag_24:\n  0x00\n    /* \"#utility.yul\":73:78   */\n  dup2\n    /* \"#utility.yul\":62:78   */\n  swap1\n  pop\n    /* \"#utility.yul\":52:84   */\n  swap2\n  swap1\n  pop\n  jump\t// out\n    /* \"#utility.yul\":90:410   */\ntag_13:\n  0x00\n    /* \"#utility.yul\":171:172   */\n  0x02\n    /* \"#utility.yul\":165:169   */\n  dup3\n    /* \"#utility.yul\":161:173   */\n  div\n    /* \"#utility.yul\":151:173   */\n  swap1\n  pop\n    /* \"#utility.yul\":218:219   */\n  0x01\n    /* \"#utility.yul\":212:216   */\n  dup3\n    /* \"#utility.yul\":208:220   */\n  and\n    /* \"#utility.yul\":239:257   */\n  dup1\n    /* \"#utility.yul\":229:231   */\n  tag_27\n  jumpi\n    /* \"#utility.yul\":295:299   */\n  0x7f\n    /* \"#utility.yul\":287:293   */\n  dup3\n    /* \"#utility.yul\":283:300   */\n  and\n    /* \"#utility.yul\":273:300   */\n  swap2\n  pop\n    /* \"#utility.yul\":229:231   */\ntag_27:\n    /* \"#utility.yul\":357:359   */\n  0x20\n    /* \"#utility.yul\":349:355   */\n  dup3\n    /* \"#utility.yul\":346:360   */\n  lt\n    /* \"#utility.yul\":326:344   */\n  dup2\n    /* \"#utility.yul\":323:361   */\n  eq\n    /* \"#utility.yul\":320:322   */\n  iszero\n  tag_28\n  jumpi\n    /* \"#utility.yul\":376:394   */\n  tag_29\n  tag_30\n  jump\t// in\ntag_29:\n    /* \"#utility.yul\":320:322   */\ntag_28:\n    /* \"#utility.yul\":141:410   */\n  pop\n  swap2\n  swap1\n  pop\n  jump\t// out\n    /* \"#utility.yul\":416:649   */\ntag_11:\n  0x00\n    /* \"#utility.yul\":478:502   */\n  tag_32\n    /* \"#utility.yul\":496:501   */\n  dup3\n    /* \"#utility.yul\":478:502   */\n  tag_24\n  jump\t// in\ntag_32:\n    /* \"#utility.yul\":469:502   */\n  swap2\n  pop\n    /* \"#utility.yul\":524:590   */\n  0xffffffffffffffffffffffffffffffffffffffffffffffffffffffffffffffff\n    /* \"#utility.yul\":517:522   */\n  dup3\n    /* \"#utility.yul\":514:591   */\n  eq\n    /* \"#utility.yul\":511:513   */\n  iszero\n  tag_33\n  jumpi\n    /* \"#utility.yul\":594:612   */\n  tag_34\n  tag_35\n  jump\t// in\ntag_34:\n    /* \"#utility.yul\":511:513   */\ntag_33:\n    /* \"#utility.yul\":641:642   */\n  0x01\n    /* \"#utility.yul\":634:639   */\n  dup3\n    /* \"#utility.yul\":630:643   */\n  add\n    /* \"#utility.yul\":623:643   */\n  swap1\n  pop\n    /* \"#utility.yul\":459:649   */\n  swap2\n  swap1\n  pop\n  jump\t// out\n    /* \"#utility.yul\":655:835   */\ntag_35:\n    /* \"#utility.yul\":703:780   */\n  0x4e487b7100000000000000000000000000000000000000000000000000000000\n    /* \"#utility.yul\":700:701   */\n  0x00\n    /* \"#utility.yul\":693:781   */\n  mstore\n    /* \"#utility.yul\":800:804   */\n  0x11\n    /* \"#utility.yul\":797:798   */\n  0x04\n    /* \"#utility.yul\":790:805   */\n  mstore\n    /* \"#utility.yul\":824:828   */\n  0x24\n    /* \"#utility.yul\":821:822   */\n  0x00\n    /* \"#utility.yul\":814:829   */\n  revert\n    /* \"#utility.yul\":841:1021   */\ntag_30:\n    /* \"#utility.yul\":889:966   */\n  0x4e487b7100000000000000000000000000000000000000000000000000000000\n    /* \"#utility.yul\":886:887   */\n  0x00\n    /* \"#utility.yul\":879:967   */\n  mstore\n    /* \"#utility.yul\":986:990   */\n  0x22\n    /* \"#utility.yul\":983:984   */\n  0x04\n    /* \"#utility.yul\":976:991   */\n  mstore\n    /* \"#utility.yul\":1010:1014   */\n  0x24\n    /* \"#utility.yul\":1007:1008   */\n  0x00\n    /* \"#utility.yul\":1000:1015   */\n  revert\n    /* \"contracts/proposal.sol\":229:2299  contract TestProposal {\r... */\ntag_6:\n  dataSize(sub_0)\n  dup1\n  dataOffset(sub_0)\n  0x00\n  codecopy\n  0x00\n  return\nstop\n\nsub_0: assembly {\n        /* \"contracts/proposal.sol\":229:2299  contract TestProposal {\r... */\n      mstore(0x40, 0x80)\n      callvalue\n      dup1\n      iszero\n      tag_1\n      jumpi\n      0x00\n      dup1\n      revert\n    tag_1:\n      pop\n      jumpi(tag_2, lt(calldatasize, 0x04))\n      shr(0xe0, calldataload(0x00))\n      dup1\n      0xb723a32c\n      gt\n      tag_10\n      jumpi\n      dup1\n      0xb723a32c\n      eq\n      tag_6\n      jumpi\n      dup1\n      0xcc2ee196\n      eq\n      tag_7\n      jumpi\n      dup1\n      0xda35c664\n      eq\n      tag_8\n      jumpi\n      dup1\n      0xe9d6c6da\n      eq\n      tag_9\n      jumpi\n      jump(tag_2)\n    tag_10:\n      dup1\n      0x013cf08b\n      eq\n      tag_3\n      jumpi\n      dup1\n      0x96caabb8\n      eq\n      tag_4\n      jumpi\n      dup1\n      0xacddf707\n      eq\n      tag_5\n      jumpi\n    tag_2:\n      0x00\n      dup1\n      revert\n        /* \"contracts/proposal.sol\":672:715  mapping (uint => Proposal) public proposals */\n    tag_3:\n      tag_11\n      0x04\n      dup1\n      calldatasize\n      sub\n      dup2\n      add\n      swap1\n      tag_12\n      swap2\n      swap1\n      tag_13\n      jump\t// in\n    tag_12:\n      tag_14\n      jump\t// in\n    tag_11:\n      mload(0x40)\n      tag_15\n      swap6\n      swap5\n      swap4\n      swap3\n      swap2\n      swap1\n      tag_16\n      jump\t// in\n    tag_15:\n      mload(0x40)\n      dup1\n      swap2\n      sub\n      swap1\n      return\n        /* \"contracts/proposal.sol\":1714:2295  function smt(string memory _options) public {                                               \r... */\n    tag_4:\n      tag_17\n      0x04\n      dup1\n      calldatasize\n      sub\n      dup2\n      add\n      swap1\n      tag_18\n      swap2\n      swap1\n      tag_19\n      jump\t// in\n    tag_18:\n      tag_20\n      jump\t// in\n    tag_17:\n      stop\n        /* \"contracts/proposal.sol\":964:1287  function addProposal(uint _proposalId, uint _proposalStatus, address _proposalCreator, uint _proposalNumOfOptions, string memory _proposalOptions) public {\r... */\n    tag_5:\n      tag_21\n      0x04\n      dup1\n      calldatasize\n      sub\n      dup2\n      add\n      swap1\n      tag_22\n      swap2\n      swap1\n      tag_23\n      jump\t// in\n    tag_22:\n      tag_24\n      jump\t// in\n    tag_21:\n      stop\n        /* \"contracts/proposal.sol\":1585:1607  string[] public opopop */\n    tag_6:\n      tag_25\n      0x04\n      dup1\n      calldatasize\n      sub\n      dup2\n      add\n      swap1\n      tag_26\n      swap2\n      swap1\n      tag_13\n      jump\t// in\n    tag_26:\n      tag_27\n      jump\t// in\n    tag_25:\n      mload(0x40)\n      tag_28\n      swap2\n      swap1\n      tag_29\n      jump\t// in\n    tag_28:\n      mload(0x40)\n      dup1\n      swap2\n      sub\n      swap1\n      return\n        /* \"contracts/proposal.sol\":1616:1706  function getOptions() public view returns(string[] memory){\r... */\n    tag_7:\n      tag_30\n      tag_31\n      jump\t// in\n    tag_30:\n      mload(0x40)\n      tag_32\n      swap2\n      swap1\n      tag_33\n      jump\t// in\n    tag_32:\n      mload(0x40)\n      dup1\n      swap2\n      sub\n      swap1\n      return\n        /* \"contracts/proposal.sol\":775:800  uint public proposalCount */\n    tag_8:\n      tag_34\n      tag_35\n      jump\t// in\n    tag_34:\n      mload(0x40)\n      tag_36\n      swap2\n      swap1\n      tag_37\n      jump\t// in\n    tag_36:\n      mload(0x40)\n      dup1\n      swap2\n      sub\n      swap1\n      return\n        /* \"contracts/proposal.sol\":1295:1427  function getProposalStructure(uint _proposalId) public view returns(Proposal memory){\r... */\n    tag_9:\n      tag_38\n      0x04\n      dup1\n      calldatasize\n      sub\n      dup2\n      add\n      swap1\n      tag_39\n      swap2\n      swap1\n      tag_13\n      jump\t// in\n    tag_39:\n      tag_40\n      jump\t// in\n    tag_38:\n      mload(0x40)\n      tag_41\n      swap2\n      swap1\n      tag_42\n      jump\t// in\n    tag_41:\n      mload(0x40)\n      dup1\n      swap2\n      sub\n      swap1\n      return\n        /* \"contracts/proposal.sol\":672:715  mapping (uint => Proposal) public proposals */\n    tag_14:\n      mstore(0x20, 0x00)\n      dup1\n      0x00\n      mstore\n      keccak256(0x00, 0x40)\n      0x00\n      swap2\n      pop\n      swap1\n      pop\n      dup1\n      0x00\n      add\n      sload\n      swap1\n      dup1\n      0x01\n      add\n      sload\n      swap1\n      dup1\n      0x02\n      add\n      0x00\n      swap1\n      sload\n      swap1\n      0x0100\n      exp\n      swap1\n      div\n      0xffffffffffffffffffffffffffffffffffffffff\n      and\n      swap1\n      dup1\n      0x03\n      add\n      sload\n      swap1\n      dup1\n      0x04\n      add\n      dup1\n      sload\n      tag_43\n      swap1\n      tag_44\n      jump\t// in\n    tag_43:\n      dup1\n      0x1f\n      add\n      0x20\n      dup1\n      swap2\n      div\n      mul\n      0x20\n      add\n      mload(0x40)\n      swap1\n      dup2\n      add\n      0x40\n      mstore\n      dup1\n      swap3\n      swap2\n      swap1\n      dup2\n      dup2\n      mstore\n      0x20\n      add\n      dup3\n      dup1\n      sload\n      tag_45\n      swap1\n      tag_44\n      jump\t// in\n    tag_45:\n      dup1\n      iszero\n      tag_46\n      jumpi\n      dup1\n      0x1f\n      lt\n      tag_47\n      jumpi\n      0x0100\n      dup1\n      dup4\n      sload\n      div\n      mul\n      dup4\n      mstore\n      swap2\n      0x20\n      add\n      swap2\n      jump(tag_46)\n    tag_47:\n      dup3\n      add\n      swap2\n      swap1\n      0x00\n      mstore\n      keccak256(0x00, 0x20)\n      swap1\n    tag_48:\n      dup2\n      sload\n      dup2\n      mstore\n      swap1\n      0x01\n      add\n      swap1\n      0x20\n      add\n      dup1\n      dup4\n      gt\n      tag_48\n      jumpi\n      dup3\n      swap1\n      sub\n      0x1f\n      and\n      dup3\n      add\n      swap2\n    tag_46:\n      pop\n      pop\n      pop\n      pop\n      pop\n      swap1\n      pop\n      dup6\n      jump\t// out\n        /* \"contracts/proposal.sol\":1714:2295  function smt(string memory _options) public {                                               \r... */\n    tag_20:\n        /* \"contracts/proposal.sol\":1816:1838  strings.slice memory s */\n      0x00\n        /* \"contracts/proposal.sol\":1841:1859  _options.toSlice() */\n      tag_50\n        /* \"contracts/proposal.sol\":1841:1849  _options */\n      dup3\n        /* \"contracts/proposal.sol\":1841:1857  _options.toSlice */\n      tag_51\n        /* \"contracts/proposal.sol\":1841:1859  _options.toSlice() */\n      jump\t// in\n    tag_50:\n        /* \"contracts/proposal.sol\":1816:1859  strings.slice memory s = _options.toSlice() */\n      swap1\n      pop\n        /* \"contracts/proposal.sol\":1886:1912  strings.slice memory delim */\n      0x00\n        /* \"contracts/proposal.sol\":1915:1928  \"-\".toSlice() */\n      tag_52\n        /* \"contracts/proposal.sol\":1915:1926  \"-\".toSlice */\n      mload(0x40)\n      dup1\n      0x40\n      add\n      0x40\n      mstore\n      dup1\n      0x01\n      dup2\n      mstore\n      0x20\n      add\n      0x2d00000000000000000000000000000000000000000000000000000000000000\n      dup2\n      mstore\n      pop\n      tag_51\n        /* \"contracts/proposal.sol\":1915:1928  \"-\".toSlice() */\n      jump\t// in\n    tag_52:\n        /* \"contracts/proposal.sol\":1886:1928  strings.slice memory delim = \"-\".toSlice() */\n      swap1\n      pop\n        /* \"contracts/proposal.sol\":1967:1988  string[] memory parts */\n      0x00\n        /* \"contracts/proposal.sol\":2019:2020  1 */\n      0x01\n        /* \"contracts/proposal.sol\":2004:2018  s.count(delim) */\n      tag_53\n        /* \"contracts/proposal.sol\":2012:2017  delim */\n      dup4\n        /* \"contracts/proposal.sol\":2004:2005  s */\n      dup6\n        /* \"contracts/proposal.sol\":2004:2011  s.count */\n      tag_54\n      swap1\n        /* \"contracts/proposal.sol\":2004:2018  s.count(delim) */\n      swap2\n      swap1\n      0xffffffff\n      and\n      jump\t// in\n    tag_53:\n        /* \"contracts/proposal.sol\":2004:2020  s.count(delim)+1 */\n      tag_55\n      swap2\n      swap1\n      tag_56\n      jump\t// in\n    tag_55:\n        /* \"contracts/proposal.sol\":1991:2021  new string[](s.count(delim)+1) */\n      0xffffffffffffffff\n      dup2\n      gt\n      iszero\n      tag_57\n      jumpi\n      mstore(0x00, 0x4e487b7100000000000000000000000000000000000000000000000000000000)\n      mstore(0x04, 0x41)\n      revert(0x00, 0x24)\n    tag_57:\n      mload(0x40)\n      swap1\n      dup1\n      dup3\n      mstore\n      dup1\n      0x20\n      mul\n      0x20\n      add\n      dup3\n      add\n      0x40\n      mstore\n      dup1\n      iszero\n      tag_58\n      jumpi\n      dup2\n      0x20\n      add\n    tag_59:\n      0x60\n      dup2\n      mstore\n      0x20\n      add\n      swap1\n      0x01\n      swap1\n      sub\n      swap1\n      dup2\n      tag_59\n      jumpi\n      swap1\n      pop\n    tag_58:\n      pop\n        /* \"contracts/proposal.sol\":1967:2021  string[] memory parts = new string[](s.count(delim)+1) */\n      swap1\n      pop\n        /* \"contracts/proposal.sol\":2055:2061  uint i */\n      0x00\n        /* \"contracts/proposal.sol\":2050:2219  for (uint i = 0; i < parts.length; i++) {                              \r... */\n    tag_60:\n        /* \"contracts/proposal.sol\":2071:2076  parts */\n      dup2\n        /* \"contracts/proposal.sol\":2071:2083  parts.length */\n      mload\n        /* \"contracts/proposal.sol\":2067:2068  i */\n      dup2\n        /* \"contracts/proposal.sol\":2067:2083  i < parts.length */\n      lt\n        /* \"contracts/proposal.sol\":2050:2219  for (uint i = 0; i < parts.length; i++) {                              \r... */\n      iszero\n      tag_61\n      jumpi\n        /* \"contracts/proposal.sol\":2146:2171  s.split(delim).toString() */\n      tag_63\n        /* \"contracts/proposal.sol\":2146:2160  s.split(delim) */\n      tag_64\n        /* \"contracts/proposal.sol\":2154:2159  delim */\n      dup5\n        /* \"contracts/proposal.sol\":2146:2147  s */\n      dup7\n        /* \"contracts/proposal.sol\":2146:2153  s.split */\n      tag_65\n      swap1\n        /* \"contracts/proposal.sol\":2146:2160  s.split(delim) */\n      swap2\n      swap1\n      0xffffffff\n      and\n      jump\t// in\n    tag_64:\n        /* \"contracts/proposal.sol\":2146:2169  s.split(delim).toString */\n      tag_66\n        /* \"contracts/proposal.sol\":2146:2171  s.split(delim).toString() */\n      jump\t// in\n    tag_63:\n        /* \"contracts/proposal.sol\":2135:2140  parts */\n      dup3\n        /* \"contracts/proposal.sol\":2141:2142  i */\n      dup3\n        /* \"contracts/proposal.sol\":2135:2143  parts[i] */\n      dup2\n      mload\n      dup2\n      lt\n      tag_67\n      jumpi\n      mstore(0x00, 0x4e487b7100000000000000000000000000000000000000000000000000000000)\n      mstore(0x04, 0x32)\n      revert(0x00, 0x24)\n    tag_67:\n      0x20\n      mul\n      0x20\n      add\n      add\n        /* \"contracts/proposal.sol\":2135:2171  parts[i] = s.split(delim).toString() */\n      dup2\n      swap1\n      mstore\n      pop\n        /* \"contracts/proposal.sol\":2186:2192  opopop */\n      0x02\n        /* \"contracts/proposal.sol\":2198:2203  parts */\n      dup3\n        /* \"contracts/proposal.sol\":2204:2205  i */\n      dup3\n        /* \"contracts/proposal.sol\":2198:2206  parts[i] */\n      dup2\n      mload\n      dup2\n      lt\n      tag_68\n      jumpi\n      mstore(0x00, 0x4e487b7100000000000000000000000000000000000000000000000000000000)\n      mstore(0x04, 0x32)\n      revert(0x00, 0x24)\n    tag_68:\n      0x20\n      mul\n      0x20\n      add\n      add\n      mload\n        /* \"contracts/proposal.sol\":2186:2207  opopop.push(parts[i]) */\n      swap1\n      dup1\n      0x01\n      dup2\n      sload\n      add\n      dup1\n      dup3\n      sstore\n      dup1\n      swap2\n      pop\n      pop\n      0x01\n      swap1\n      sub\n      swap1\n      0x00\n      mstore\n      keccak256(0x00, 0x20)\n      add\n      0x00\n      swap1\n      swap2\n      swap1\n      swap2\n      swap1\n      swap2\n      pop\n      swap1\n      dup1\n      mload\n      swap1\n      0x20\n      add\n      swap1\n      tag_70\n      swap3\n      swap2\n      swap1\n      tag_71\n      jump\t// in\n    tag_70:\n      pop\n        /* \"contracts/proposal.sol\":2085:2088  i++ */\n      dup1\n      dup1\n      tag_72\n      swap1\n      tag_73\n      jump\t// in\n    tag_72:\n      swap2\n      pop\n      pop\n        /* \"contracts/proposal.sol\":2050:2219  for (uint i = 0; i < parts.length; i++) {                              \r... */\n      jump(tag_60)\n    tag_61:\n      pop\n        /* \"contracts/proposal.sol\":1714:2295  function smt(string memory _options) public {                                               \r... */\n      pop\n      pop\n      pop\n      pop\n      jump\t// out\n        /* \"contracts/proposal.sol\":964:1287  function addProposal(uint _proposalId, uint _proposalStatus, address _proposalCreator, uint _proposalNumOfOptions, string memory _proposalOptions) public {\r... */\n    tag_24:\n        /* \"contracts/proposal.sol\":1156:1253  Proposal(_proposalId, _proposalStatus, _proposalCreator, _proposalNumOfOptions, _proposalOptions) */\n      mload(0x40)\n      dup1\n      0xa0\n      add\n      0x40\n      mstore\n      dup1\n        /* \"contracts/proposal.sol\":1165:1176  _proposalId */\n      dup7\n        /* \"contracts/proposal.sol\":1156:1253  Proposal(_proposalId, _proposalStatus, _proposalCreator, _proposalNumOfOptions, _proposalOptions) */\n      dup2\n      mstore\n      0x20\n      add\n        /* \"contracts/proposal.sol\":1178:1193  _proposalStatus */\n      dup6\n        /* \"contracts/proposal.sol\":1156:1253  Proposal(_proposalId, _proposalStatus, _proposalCreator, _proposalNumOfOptions, _proposalOptions) */\n      dup2\n      mstore\n      0x20\n      add\n        /* \"contracts/proposal.sol\":1195:1211  _proposalCreator */\n      dup5\n        /* \"contracts/proposal.sol\":1156:1253  Proposal(_proposalId, _proposalStatus, _proposalCreator, _proposalNumOfOptions, _proposalOptions) */\n      0xffffffffffffffffffffffffffffffffffffffff\n      and\n      dup2\n      mstore\n      0x20\n      add\n        /* \"contracts/proposal.sol\":1213:1234  _proposalNumOfOptions */\n      dup4\n        /* \"contracts/proposal.sol\":1156:1253  Proposal(_proposalId, _proposalStatus, _proposalCreator, _proposalNumOfOptions, _proposalOptions) */\n      dup2\n      mstore\n      0x20\n      add\n        /* \"contracts/proposal.sol\":1236:1252  _proposalOptions */\n      dup3\n        /* \"contracts/proposal.sol\":1156:1253  Proposal(_proposalId, _proposalStatus, _proposalCreator, _proposalNumOfOptions, _proposalOptions) */\n      dup2\n      mstore\n      pop\n        /* \"contracts/proposal.sol\":1129:1138  proposals */\n      0x00\n        /* \"contracts/proposal.sol\":1129:1153  proposals[proposalCount] */\n      dup1\n        /* \"contracts/proposal.sol\":1139:1152  proposalCount */\n      sload(0x01)\n        /* \"contracts/proposal.sol\":1129:1153  proposals[proposalCount] */\n      dup2\n      mstore\n      0x20\n      add\n      swap1\n      dup2\n      mstore\n      0x20\n      add\n      0x00\n      keccak256\n        /* \"contracts/proposal.sol\":1129:1253  proposals[proposalCount] = Proposal(_proposalId, _proposalStatus, _proposalCreator, _proposalNumOfOptions, _proposalOptions) */\n      0x00\n      dup3\n      add\n      mload\n      dup2\n      0x00\n      add\n      sstore\n      0x20\n      dup3\n      add\n      mload\n      dup2\n      0x01\n      add\n      sstore\n      0x40\n      dup3\n      add\n      mload\n      dup2\n      0x02\n      add\n      exp(0x0100, 0x00)\n      dup2\n      sload\n      dup2\n      0xffffffffffffffffffffffffffffffffffffffff\n      mul\n      not\n      and\n      swap1\n      dup4\n      0xffffffffffffffffffffffffffffffffffffffff\n      and\n      mul\n      or\n      swap1\n      sstore\n      pop\n      0x60\n      dup3\n      add\n      mload\n      dup2\n      0x03\n      add\n      sstore\n      0x80\n      dup3\n      add\n      mload\n      dup2\n      0x04\n      add\n      swap1\n      dup1\n      mload\n      swap1\n      0x20\n      add\n      swap1\n      tag_75\n      swap3\n      swap2\n      swap1\n      tag_71\n      jump\t// in\n    tag_75:\n      pop\n      swap1\n      pop\n      pop\n        /* \"contracts/proposal.sol\":1264:1277  proposalCount */\n      0x01\n      0x00\n        /* \"contracts/proposal.sol\":1264:1279  proposalCount++ */\n      dup2\n      sload\n      dup1\n      swap3\n      swap2\n      swap1\n      tag_76\n      swap1\n      tag_73\n      jump\t// in\n    tag_76:\n      swap2\n      swap1\n      pop\n      sstore\n      pop\n        /* \"contracts/proposal.sol\":964:1287  function addProposal(uint _proposalId, uint _proposalStatus, address _proposalCreator, uint _proposalNumOfOptions, string memory _proposalOptions) public {\r... */\n      pop\n      pop\n      pop\n      pop\n      pop\n      jump\t// out\n        /* \"contracts/proposal.sol\":1585:1607  string[] public opopop */\n    tag_27:\n      0x02\n      dup2\n      dup2\n      sload\n      dup2\n      lt\n      tag_77\n      jumpi\n      0x00\n      dup1\n      revert\n    tag_77:\n      swap1\n      0x00\n      mstore\n      keccak256(0x00, 0x20)\n      add\n      0x00\n      swap2\n      pop\n      swap1\n      pop\n      dup1\n      sload\n      tag_79\n      swap1\n      tag_44\n      jump\t// in\n    tag_79:\n      dup1\n      0x1f\n      add\n      0x20\n      dup1\n      swap2\n      div\n      mul\n      0x20\n      add\n      mload(0x40)\n      swap1\n      dup2\n      add\n      0x40\n      mstore\n      dup1\n      swap3\n      swap2\n      swap1\n      dup2\n      dup2\n      mstore\n      0x20\n      add\n      dup3\n      dup1\n      sload\n      tag_80\n      swap1\n      tag_44\n      jump\t// in\n    tag_80:\n      dup1\n      iszero\n      tag_81\n      jumpi\n      dup1\n      0x1f\n      lt\n      tag_82\n      jumpi\n      0x0100\n      dup1\n      dup4\n      sload\n      div\n      mul\n      dup4\n      mstore\n      swap2\n      0x20\n      add\n      swap2\n      jump(tag_81)\n    tag_82:\n      dup3\n      add\n      swap2\n      swap1\n      0x00\n      mstore\n      keccak256(0x00, 0x20)\n      swap1\n    tag_83:\n      dup2\n      sload\n      dup2\n      mstore\n      swap1\n      0x01\n      add\n      swap1\n      0x20\n      add\n      dup1\n      dup4\n      gt\n      tag_83\n      jumpi\n      dup3\n      swap1\n      sub\n      0x1f\n      and\n      dup3\n      add\n      swap2\n    tag_81:\n      pop\n      pop\n      pop\n      pop\n      pop\n      dup2\n      jump\t// out\n        /* \"contracts/proposal.sol\":1616:1706  function getOptions() public view returns(string[] memory){\r... */\n    tag_31:\n        /* \"contracts/proposal.sol\":1658:1673  string[] memory */\n      0x60\n        /* \"contracts/proposal.sol\":1692:1698  opopop */\n      0x02\n        /* \"contracts/proposal.sol\":1685:1698  return opopop */\n      dup1\n      sload\n      dup1\n      0x20\n      mul\n      0x20\n      add\n      mload(0x40)\n      swap1\n      dup2\n      add\n      0x40\n      mstore\n      dup1\n      swap3\n      swap2\n      swap1\n      dup2\n      dup2\n      mstore\n      0x20\n      add\n      0x00\n      swap1\n    tag_85:\n      dup3\n      dup3\n      lt\n      iszero\n      tag_86\n      jumpi\n      dup4\n      dup3\n      swap1\n      0x00\n      mstore\n      keccak256(0x00, 0x20)\n      add\n      dup1\n      sload\n      tag_88\n      swap1\n      tag_44\n      jump\t// in\n    tag_88:\n      dup1\n      0x1f\n      add\n      0x20\n      dup1\n      swap2\n      div\n      mul\n      0x20\n      add\n      mload(0x40)\n      swap1\n      dup2\n      add\n      0x40\n      mstore\n      dup1\n      swap3\n      swap2\n      swap1\n      dup2\n      dup2\n      mstore\n      0x20\n      add\n      dup3\n      dup1\n      sload\n      tag_89\n      swap1\n      tag_44\n      jump\t// in\n    tag_89:\n      dup1\n      iszero\n      tag_90\n      jumpi\n      dup1\n      0x1f\n      lt\n      tag_91\n      jumpi\n      0x0100\n      dup1\n      dup4\n      sload\n      div\n      mul\n      dup4\n      mstore\n      swap2\n      0x20\n      add\n      swap2\n      jump(tag_90)\n    tag_91:\n      dup3\n      add\n      swap2\n      swap1\n      0x00\n      mstore\n      keccak256(0x00, 0x20)\n      swap1\n    tag_92:\n      dup2\n      sload\n      dup2\n      mstore\n      swap1\n      0x01\n      add\n      swap1\n      0x20\n      add\n      dup1\n      dup4\n      gt\n      tag_92\n      jumpi\n      dup3\n      swap1\n      sub\n      0x1f\n      and\n      dup3\n      add\n      swap2\n    tag_90:\n      pop\n      pop\n      pop\n      pop\n      pop\n      dup2\n      mstore\n      0x20\n      add\n      swap1\n      0x01\n      add\n      swap1\n      jump(tag_85)\n    tag_86:\n      pop\n      pop\n      pop\n      pop\n      swap1\n      pop\n        /* \"contracts/proposal.sol\":1616:1706  function getOptions() public view returns(string[] memory){\r... */\n      swap1\n      jump\t// out\n        /* \"contracts/proposal.sol\":775:800  uint public proposalCount */\n    tag_35:\n      sload(0x01)\n      dup2\n      jump\t// out\n        /* \"contracts/proposal.sol\":1295:1427  function getProposalStructure(uint _proposalId) public view returns(Proposal memory){\r... */\n    tag_40:\n        /* \"contracts/proposal.sol\":1363:1378  Proposal memory */\n      tag_93\n      tag_94\n      jump\t// in\n    tag_93:\n        /* \"contracts/proposal.sol\":1397:1406  proposals */\n      0x00\n        /* \"contracts/proposal.sol\":1397:1419  proposals[_proposalId] */\n      dup1\n        /* \"contracts/proposal.sol\":1407:1418  _proposalId */\n      dup4\n        /* \"contracts/proposal.sol\":1397:1419  proposals[_proposalId] */\n      dup2\n      mstore\n      0x20\n      add\n      swap1\n      dup2\n      mstore\n      0x20\n      add\n      0x00\n      keccak256\n        /* \"contracts/proposal.sol\":1390:1419  return proposals[_proposalId] */\n      mload(0x40)\n      dup1\n      0xa0\n      add\n      0x40\n      mstore\n      swap1\n      dup2\n      0x00\n      dup3\n      add\n      sload\n      dup2\n      mstore\n      0x20\n      add\n      0x01\n      dup3\n      add\n      sload\n      dup2\n      mstore\n      0x20\n      add\n      0x02\n      dup3\n      add\n      0x00\n      swap1\n      sload\n      swap1\n      0x0100\n      exp\n      swap1\n      div\n      0xffffffffffffffffffffffffffffffffffffffff\n      and\n      0xffffffffffffffffffffffffffffffffffffffff\n      and\n      0xffffffffffffffffffffffffffffffffffffffff\n      and\n      dup2\n      mstore\n      0x20\n      add\n      0x03\n      dup3\n      add\n      sload\n      dup2\n      mstore\n      0x20\n      add\n      0x04\n      dup3\n      add\n      dup1\n      sload\n      tag_96\n      swap1\n      tag_44\n      jump\t// in\n    tag_96:\n      dup1\n      0x1f\n      add\n      0x20\n      dup1\n      swap2\n      div\n      mul\n      0x20\n      add\n      mload(0x40)\n      swap1\n      dup2\n      add\n      0x40\n      mstore\n      dup1\n      swap3\n      swap2\n      swap1\n      dup2\n      dup2\n      mstore\n      0x20\n      add\n      dup3\n      dup1\n      sload\n      tag_97\n      swap1\n      tag_44\n      jump\t// in\n    tag_97:\n      dup1\n      iszero\n      tag_98\n      jumpi\n      dup1\n      0x1f\n      lt\n      tag_99\n      jumpi\n      0x0100\n      dup1\n      dup4\n      sload\n      div\n      mul\n      dup4\n      mstore\n      swap2\n      0x20\n      add\n      swap2\n      jump(tag_98)\n    tag_99:\n      dup3\n      add\n      swap2\n      swap1\n      0x00\n      mstore\n      keccak256(0x00, 0x20)\n      swap1\n    tag_100:\n      dup2\n      sload\n      dup2\n      mstore\n      swap1\n      0x01\n      add\n      swap1\n      0x20\n      add\n      dup1\n      dup4\n      gt\n      tag_100\n      jumpi\n      dup3\n      swap1\n      sub\n      0x1f\n      and\n      dup3\n      add\n      swap2\n    tag_98:\n      pop\n      pop\n      pop\n      pop\n      pop\n      dup2\n      mstore\n      pop\n      pop\n      swap1\n      pop\n        /* \"contracts/proposal.sol\":1295:1427  function getProposalStructure(uint _proposalId) public view returns(Proposal memory){\r... */\n      swap2\n      swap1\n      pop\n      jump\t// out\n        /* \"https://github.com/Arachnid/solidity-stringutils/blob/master/src/strings.sol\":2904:3114  function toSlice(string memory self) internal pure returns (slice memory) {... */\n    tag_51:\n        /* \"https://github.com/Arachnid/solidity-stringutils/blob/master/src/strings.sol\":2964:2976  slice memory */\n      tag_101\n      tag_102\n      jump\t// in\n    tag_101:\n        /* \"https://github.com/Arachnid/solidity-stringutils/blob/master/src/strings.sol\":2988:2996  uint ptr */\n      0x00\n        /* \"https://github.com/Arachnid/solidity-stringutils/blob/master/src/strings.sol\":3046:3050  0x20 */\n      0x20\n        /* \"https://github.com/Arachnid/solidity-stringutils/blob/master/src/strings.sol\":3040:3044  self */\n      dup4\n        /* \"https://github.com/Arachnid/solidity-stringutils/blob/master/src/strings.sol\":3036:3051  add(self, 0x20) */\n      add\n        /* \"https://github.com/Arachnid/solidity-stringutils/blob/master/src/strings.sol\":3029:3051  ptr := add(self, 0x20) */\n      swap1\n      pop\n        /* \"https://github.com/Arachnid/solidity-stringutils/blob/master/src/strings.sol\":3077:3107  slice(bytes(self).length, ptr) */\n      mload(0x40)\n      dup1\n      0x40\n      add\n      0x40\n      mstore\n      dup1\n        /* \"https://github.com/Arachnid/solidity-stringutils/blob/master/src/strings.sol\":3089:3093  self */\n      dup5\n        /* \"https://github.com/Arachnid/solidity-stringutils/blob/master/src/strings.sol\":3083:3101  bytes(self).length */\n      mload\n        /* \"https://github.com/Arachnid/solidity-stringutils/blob/master/src/strings.sol\":3077:3107  slice(bytes(self).length, ptr) */\n      dup2\n      mstore\n      0x20\n      add\n        /* \"https://github.com/Arachnid/solidity-stringutils/blob/master/src/strings.sol\":3103:3106  ptr */\n      dup3\n        /* \"https://github.com/Arachnid/solidity-stringutils/blob/master/src/strings.sol\":3077:3107  slice(bytes(self).length, ptr) */\n      dup2\n      mstore\n      pop\n        /* \"https://github.com/Arachnid/solidity-stringutils/blob/master/src/strings.sol\":3070:3107  return slice(bytes(self).length, ptr) */\n      swap2\n      pop\n      pop\n        /* \"https://github.com/Arachnid/solidity-stringutils/blob/master/src/strings.sol\":2904:3114  function toSlice(string memory self) internal pure returns (slice memory) {... */\n      swap2\n      swap1\n      pop\n      jump\t// out\n        /* \"https://github.com/Arachnid/solidity-stringutils/blob/master/src/strings.sol\":23194:23558  function count(slice memory self, slice memory needle) internal pure returns (uint cnt) {... */\n    tag_54:\n        /* \"https://github.com/Arachnid/solidity-stringutils/blob/master/src/strings.sol\":23272:23280  uint cnt */\n      0x00\n        /* \"https://github.com/Arachnid/solidity-stringutils/blob/master/src/strings.sol\":23292:23300  uint ptr */\n      dup1\n        /* \"https://github.com/Arachnid/solidity-stringutils/blob/master/src/strings.sol\":23361:23367  needle */\n      dup3\n        /* \"https://github.com/Arachnid/solidity-stringutils/blob/master/src/strings.sol\":23361:23372  needle._len */\n      0x00\n      add\n      mload\n        /* \"https://github.com/Arachnid/solidity-stringutils/blob/master/src/strings.sol\":23303:23358  findPtr(self._len, self._ptr, needle._len, needle._ptr) */\n      tag_105\n        /* \"https://github.com/Arachnid/solidity-stringutils/blob/master/src/strings.sol\":23311:23315  self */\n      dup6\n        /* \"https://github.com/Arachnid/solidity-stringutils/blob/master/src/strings.sol\":23311:23320  self._len */\n      0x00\n      add\n      mload\n        /* \"https://github.com/Arachnid/solidity-stringutils/blob/master/src/strings.sol\":23322:23326  self */\n      dup7\n        /* \"https://github.com/Arachnid/solidity-stringutils/blob/master/src/strings.sol\":23322:23331  self._ptr */\n      0x20\n      add\n      mload\n        /* \"https://github.com/Arachnid/solidity-stringutils/blob/master/src/strings.sol\":23333:23339  needle */\n      dup7\n        /* \"https://github.com/Arachnid/solidity-stringutils/blob/master/src/strings.sol\":23333:23344  needle._len */\n      0x00\n      add\n      mload\n        /* \"https://github.com/Arachnid/solidity-stringutils/blob/master/src/strings.sol\":23346:23352  needle */\n      dup8\n        /* \"https://github.com/Arachnid/solidity-stringutils/blob/master/src/strings.sol\":23346:23357  needle._ptr */\n      0x20\n      add\n      mload\n        /* \"https://github.com/Arachnid/solidity-stringutils/blob/master/src/strings.sol\":23303:23310  findPtr */\n      tag_106\n        /* \"https://github.com/Arachnid/solidity-stringutils/blob/master/src/strings.sol\":23303:23358  findPtr(self._len, self._ptr, needle._len, needle._ptr) */\n      jump\t// in\n    tag_105:\n        /* \"https://github.com/Arachnid/solidity-stringutils/blob/master/src/strings.sol\":23303:23372  findPtr(self._len, self._ptr, needle._len, needle._ptr) + needle._len */\n      tag_107\n      swap2\n      swap1\n      tag_56\n      jump\t// in\n    tag_107:\n        /* \"https://github.com/Arachnid/solidity-stringutils/blob/master/src/strings.sol\":23292:23372  uint ptr = findPtr(self._len, self._ptr, needle._len, needle._ptr) + needle._len */\n      swap1\n      pop\n        /* \"https://github.com/Arachnid/solidity-stringutils/blob/master/src/strings.sol\":23382:23552  while (ptr <= self._ptr + self._len) {... */\n    tag_108:\n        /* \"https://github.com/Arachnid/solidity-stringutils/blob/master/src/strings.sol\":23408:23412  self */\n      dup4\n        /* \"https://github.com/Arachnid/solidity-stringutils/blob/master/src/strings.sol\":23408:23417  self._len */\n      0x00\n      add\n      mload\n        /* \"https://github.com/Arachnid/solidity-stringutils/blob/master/src/strings.sol\":23396:23400  self */\n      dup5\n        /* \"https://github.com/Arachnid/solidity-stringutils/blob/master/src/strings.sol\":23396:23405  self._ptr */\n      0x20\n      add\n      mload\n        /* \"https://github.com/Arachnid/solidity-stringutils/blob/master/src/strings.sol\":23396:23417  self._ptr + self._len */\n      tag_110\n      swap2\n      swap1\n      tag_56\n      jump\t// in\n    tag_110:\n        /* \"https://github.com/Arachnid/solidity-stringutils/blob/master/src/strings.sol\":23389:23392  ptr */\n      dup2\n        /* \"https://github.com/Arachnid/solidity-stringutils/blob/master/src/strings.sol\":23389:23417  ptr <= self._ptr + self._len */\n      gt\n        /* \"https://github.com/Arachnid/solidity-stringutils/blob/master/src/strings.sol\":23382:23552  while (ptr <= self._ptr + self._len) {... */\n      tag_109\n      jumpi\n        /* \"https://github.com/Arachnid/solidity-stringutils/blob/master/src/strings.sol\":23433:23438  cnt++ */\n      dup2\n      dup1\n      tag_111\n      swap1\n      tag_73\n      jump\t// in\n    tag_111:\n      swap3\n      pop\n      pop\n        /* \"https://github.com/Arachnid/solidity-stringutils/blob/master/src/strings.sol\":23530:23536  needle */\n      dup3\n        /* \"https://github.com/Arachnid/solidity-stringutils/blob/master/src/strings.sol\":23530:23541  needle._len */\n      0x00\n      add\n      mload\n        /* \"https://github.com/Arachnid/solidity-stringutils/blob/master/src/strings.sol\":23458:23527  findPtr(self._len - (ptr - self._ptr), ptr, needle._len, needle._ptr) */\n      tag_112\n        /* \"https://github.com/Arachnid/solidity-stringutils/blob/master/src/strings.sol\":23485:23489  self */\n      dup6\n        /* \"https://github.com/Arachnid/solidity-stringutils/blob/master/src/strings.sol\":23485:23494  self._ptr */\n      0x20\n      add\n      mload\n        /* \"https://github.com/Arachnid/solidity-stringutils/blob/master/src/strings.sol\":23479:23482  ptr */\n      dup4\n        /* \"https://github.com/Arachnid/solidity-stringutils/blob/master/src/strings.sol\":23479:23494  ptr - self._ptr */\n      tag_113\n      swap2\n      swap1\n      tag_114\n      jump\t// in\n    tag_113:\n        /* \"https://github.com/Arachnid/solidity-stringutils/blob/master/src/strings.sol\":23466:23470  self */\n      dup7\n        /* \"https://github.com/Arachnid/solidity-stringutils/blob/master/src/strings.sol\":23466:23475  self._len */\n      0x00\n      add\n      mload\n        /* \"https://github.com/Arachnid/solidity-stringutils/blob/master/src/strings.sol\":23466:23495  self._len - (ptr - self._ptr) */\n      tag_115\n      swap2\n      swap1\n      tag_114\n      jump\t// in\n    tag_115:\n        /* \"https://github.com/Arachnid/solidity-stringutils/blob/master/src/strings.sol\":23497:23500  ptr */\n      dup4\n        /* \"https://github.com/Arachnid/solidity-stringutils/blob/master/src/strings.sol\":23502:23508  needle */\n      dup7\n        /* \"https://github.com/Arachnid/solidity-stringutils/blob/master/src/strings.sol\":23502:23513  needle._len */\n      0x00\n      add\n      mload\n        /* \"https://github.com/Arachnid/solidity-stringutils/blob/master/src/strings.sol\":23515:23521  needle */\n      dup8\n        /* \"https://github.com/Arachnid/solidity-stringutils/blob/master/src/strings.sol\":23515:23526  needle._ptr */\n      0x20\n      add\n      mload\n        /* \"https://github.com/Arachnid/solidity-stringutils/blob/master/src/strings.sol\":23458:23465  findPtr */\n      tag_106\n        /* \"https://github.com/Arachnid/solidity-stringutils/blob/master/src/strings.sol\":23458:23527  findPtr(self._len - (ptr - self._ptr), ptr, needle._len, needle._ptr) */\n      jump\t// in\n    tag_112:\n        /* \"https://github.com/Arachnid/solidity-stringutils/blob/master/src/strings.sol\":23458:23541  findPtr(self._len - (ptr - self._ptr), ptr, needle._len, needle._ptr) + needle._len */\n      tag_116\n      swap2\n      swap1\n      tag_56\n      jump\t// in\n    tag_116:\n        /* \"https://github.com/Arachnid/solidity-stringutils/blob/master/src/strings.sol\":23452:23541  ptr = findPtr(self._len - (ptr - self._ptr), ptr, needle._len, needle._ptr) + needle._len */\n      swap1\n      pop\n        /* \"https://github.com/Arachnid/solidity-stringutils/blob/master/src/strings.sol\":23382:23552  while (ptr <= self._ptr + self._len) {... */\n      jump(tag_108)\n    tag_109:\n        /* \"https://github.com/Arachnid/solidity-stringutils/blob/master/src/strings.sol\":23194:23558  function count(slice memory self, slice memory needle) internal pure returns (uint cnt) {... */\n      pop\n      swap3\n      swap2\n      pop\n      pop\n      jump\t// out\n        /* \"https://github.com/Arachnid/solidity-stringutils/blob/master/src/strings.sol\":21208:21349  function split(slice memory self, slice memory needle) internal pure returns (slice memory token) {... */\n    tag_65:\n        /* \"https://github.com/Arachnid/solidity-stringutils/blob/master/src/strings.sol\":21286:21304  slice memory token */\n      tag_117\n      tag_102\n      jump\t// in\n    tag_117:\n        /* \"https://github.com/Arachnid/solidity-stringutils/blob/master/src/strings.sol\":21316:21342  split(self, needle, token) */\n      tag_119\n        /* \"https://github.com/Arachnid/solidity-stringutils/blob/master/src/strings.sol\":21322:21326  self */\n      dup4\n        /* \"https://github.com/Arachnid/solidity-stringutils/blob/master/src/strings.sol\":21328:21334  needle */\n      dup4\n        /* \"https://github.com/Arachnid/solidity-stringutils/blob/master/src/strings.sol\":21336:21341  token */\n      dup4\n        /* \"https://github.com/Arachnid/solidity-stringutils/blob/master/src/strings.sol\":21316:21321  split */\n      tag_120\n        /* \"https://github.com/Arachnid/solidity-stringutils/blob/master/src/strings.sol\":21316:21342  split(self, needle, token) */\n      jump\t// in\n    tag_119:\n      pop\n        /* \"https://github.com/Arachnid/solidity-stringutils/blob/master/src/strings.sol\":21208:21349  function split(slice memory self, slice memory needle) internal pure returns (slice memory token) {... */\n      swap3\n      swap2\n      pop\n      pop\n      jump\t// out\n        /* \"https://github.com/Arachnid/solidity-stringutils/blob/master/src/strings.sol\":5286:5551  function toString(slice memory self) internal pure returns (string memory) {... */\n    tag_66:\n        /* \"https://github.com/Arachnid/solidity-stringutils/blob/master/src/strings.sol\":5346:5359  string memory */\n      0x60\n        /* \"https://github.com/Arachnid/solidity-stringutils/blob/master/src/strings.sol\":5371:5388  string memory ret */\n      0x00\n        /* \"https://github.com/Arachnid/solidity-stringutils/blob/master/src/strings.sol\":5402:5406  self */\n      dup3\n        /* \"https://github.com/Arachnid/solidity-stringutils/blob/master/src/strings.sol\":5402:5411  self._len */\n      0x00\n      add\n      mload\n        /* \"https://github.com/Arachnid/solidity-stringutils/blob/master/src/strings.sol\":5391:5412  new string(self._len) */\n      0xffffffffffffffff\n      dup2\n      gt\n      iszero\n      tag_122\n      jumpi\n      mstore(0x00, 0x4e487b7100000000000000000000000000000000000000000000000000000000)\n      mstore(0x04, 0x41)\n      revert(0x00, 0x24)\n    tag_122:\n      mload(0x40)\n      swap1\n      dup1\n      dup3\n      mstore\n      dup1\n      0x1f\n      add\n      not(0x1f)\n      and\n      0x20\n      add\n      dup3\n      add\n      0x40\n      mstore\n      dup1\n      iszero\n      tag_123\n      jumpi\n      dup2\n      0x20\n      add\n      0x01\n      dup3\n      mul\n      dup1\n      calldatasize\n      dup4\n      calldatacopy\n      dup1\n      dup3\n      add\n      swap2\n      pop\n      pop\n      swap1\n      pop\n    tag_123:\n      pop\n        /* \"https://github.com/Arachnid/solidity-stringutils/blob/master/src/strings.sol\":5371:5412  string memory ret = new string(self._len) */\n      swap1\n      pop\n        /* \"https://github.com/Arachnid/solidity-stringutils/blob/master/src/strings.sol\":5422:5433  uint retptr */\n      0x00\n        /* \"https://github.com/Arachnid/solidity-stringutils/blob/master/src/strings.sol\":5473:5475  32 */\n      0x20\n        /* \"https://github.com/Arachnid/solidity-stringutils/blob/master/src/strings.sol\":5468:5471  ret */\n      dup3\n        /* \"https://github.com/Arachnid/solidity-stringutils/blob/master/src/strings.sol\":5464:5476  add(ret, 32) */\n      add\n        /* \"https://github.com/Arachnid/solidity-stringutils/blob/master/src/strings.sol\":5454:5476  retptr := add(ret, 32) */\n      swap1\n      pop\n        /* \"https://github.com/Arachnid/solidity-stringutils/blob/master/src/strings.sol\":5488:5524  memcpy(retptr, self._ptr, self._len) */\n      tag_124\n        /* \"https://github.com/Arachnid/solidity-stringutils/blob/master/src/strings.sol\":5495:5501  retptr */\n      dup2\n        /* \"https://github.com/Arachnid/solidity-stringutils/blob/master/src/strings.sol\":5503:5507  self */\n      dup6\n        /* \"https://github.com/Arachnid/solidity-stringutils/blob/master/src/strings.sol\":5503:5512  self._ptr */\n      0x20\n      add\n      mload\n        /* \"https://github.com/Arachnid/solidity-stringutils/blob/master/src/strings.sol\":5514:5518  self */\n      dup7\n        /* \"https://github.com/Arachnid/solidity-stringutils/blob/master/src/strings.sol\":5514:5523  self._len */\n      0x00\n      add\n      mload\n        /* \"https://github.com/Arachnid/solidity-stringutils/blob/master/src/strings.sol\":5488:5494  memcpy */\n      tag_125\n        /* \"https://github.com/Arachnid/solidity-stringutils/blob/master/src/strings.sol\":5488:5524  memcpy(retptr, self._ptr, self._len) */\n      jump\t// in\n    tag_124:\n        /* \"https://github.com/Arachnid/solidity-stringutils/blob/master/src/strings.sol\":5541:5544  ret */\n      dup2\n        /* \"https://github.com/Arachnid/solidity-stringutils/blob/master/src/strings.sol\":5534:5544  return ret */\n      swap3\n      pop\n      pop\n      pop\n        /* \"https://github.com/Arachnid/solidity-stringutils/blob/master/src/strings.sol\":5286:5551  function toString(slice memory self) internal pure returns (string memory) {... */\n      swap2\n      swap1\n      pop\n      jump\t// out\n        /* \"https://github.com/Arachnid/solidity-stringutils/blob/master/src/strings.sol\":15477:16930  function findPtr(uint selflen, uint selfptr, uint needlelen, uint needleptr) private pure returns (uint) {... */\n    tag_106:\n        /* \"https://github.com/Arachnid/solidity-stringutils/blob/master/src/strings.sol\":15576:15580  uint */\n      0x00\n        /* \"https://github.com/Arachnid/solidity-stringutils/blob/master/src/strings.sol\":15592:15600  uint ptr */\n      dup1\n        /* \"https://github.com/Arachnid/solidity-stringutils/blob/master/src/strings.sol\":15603:15610  selfptr */\n      dup5\n        /* \"https://github.com/Arachnid/solidity-stringutils/blob/master/src/strings.sol\":15592:15610  uint ptr = selfptr */\n      swap1\n      pop\n        /* \"https://github.com/Arachnid/solidity-stringutils/blob/master/src/strings.sol\":15620:15628  uint idx */\n      0x00\n        /* \"https://github.com/Arachnid/solidity-stringutils/blob/master/src/strings.sol\":15656:15663  selflen */\n      dup7\n        /* \"https://github.com/Arachnid/solidity-stringutils/blob/master/src/strings.sol\":15643:15652  needlelen */\n      dup6\n        /* \"https://github.com/Arachnid/solidity-stringutils/blob/master/src/strings.sol\":15643:15663  needlelen <= selflen */\n      gt\n        /* \"https://github.com/Arachnid/solidity-stringutils/blob/master/src/strings.sol\":15639:16890  if (needlelen <= selflen) {... */\n      tag_127\n      jumpi\n        /* \"https://github.com/Arachnid/solidity-stringutils/blob/master/src/strings.sol\":15696:15698  32 */\n      0x20\n        /* \"https://github.com/Arachnid/solidity-stringutils/blob/master/src/strings.sol\":15683:15692  needlelen */\n      dup6\n        /* \"https://github.com/Arachnid/solidity-stringutils/blob/master/src/strings.sol\":15683:15698  needlelen <= 32 */\n      gt\n        /* \"https://github.com/Arachnid/solidity-stringutils/blob/master/src/strings.sol\":15679:16880  if (needlelen <= 32) {... */\n      tag_128\n      jumpi\n        /* \"https://github.com/Arachnid/solidity-stringutils/blob/master/src/strings.sol\":15718:15730  bytes32 mask */\n      0x00\n        /* \"https://github.com/Arachnid/solidity-stringutils/blob/master/src/strings.sol\":15764:15765  0 */\n      dup1\n        /* \"https://github.com/Arachnid/solidity-stringutils/blob/master/src/strings.sol\":15752:15761  needlelen */\n      dup7\n        /* \"https://github.com/Arachnid/solidity-stringutils/blob/master/src/strings.sol\":15752:15765  needlelen > 0 */\n      gt\n        /* \"https://github.com/Arachnid/solidity-stringutils/blob/master/src/strings.sol\":15748:15858  if (needlelen > 0) {... */\n      iszero\n      tag_129\n      jumpi\n        /* \"https://github.com/Arachnid/solidity-stringutils/blob/master/src/strings.sol\":15836:15837  1 */\n      0x01\n        /* \"https://github.com/Arachnid/solidity-stringutils/blob/master/src/strings.sol\":15822:15831  needlelen */\n      dup7\n        /* \"https://github.com/Arachnid/solidity-stringutils/blob/master/src/strings.sol\":15817:15819  32 */\n      0x20\n        /* \"https://github.com/Arachnid/solidity-stringutils/blob/master/src/strings.sol\":15817:15831  32 - needlelen */\n      tag_130\n      swap2\n      swap1\n      tag_114\n      jump\t// in\n    tag_130:\n        /* \"https://github.com/Arachnid/solidity-stringutils/blob/master/src/strings.sol\":15812:15813  8 */\n      0x08\n        /* \"https://github.com/Arachnid/solidity-stringutils/blob/master/src/strings.sol\":15812:15832  8 * (32 - needlelen) */\n      tag_131\n      swap2\n      swap1\n      tag_132\n      jump\t// in\n    tag_131:\n        /* \"https://github.com/Arachnid/solidity-stringutils/blob/master/src/strings.sol\":15806:15807  2 */\n      0x02\n        /* \"https://github.com/Arachnid/solidity-stringutils/blob/master/src/strings.sol\":15806:15833  2 ** (8 * (32 - needlelen)) */\n      tag_133\n      swap2\n      swap1\n      tag_134\n      jump\t// in\n    tag_133:\n        /* \"https://github.com/Arachnid/solidity-stringutils/blob/master/src/strings.sol\":15806:15837  2 ** (8 * (32 - needlelen)) - 1 */\n      tag_135\n      swap2\n      swap1\n      tag_114\n      jump\t// in\n    tag_135:\n        /* \"https://github.com/Arachnid/solidity-stringutils/blob/master/src/strings.sol\":15804:15838  ~(2 ** (8 * (32 - needlelen)) - 1) */\n      not\n        /* \"https://github.com/Arachnid/solidity-stringutils/blob/master/src/strings.sol\":15796:15839  bytes32(~(2 ** (8 * (32 - needlelen)) - 1)) */\n      0x00\n      shl\n        /* \"https://github.com/Arachnid/solidity-stringutils/blob/master/src/strings.sol\":15789:15839  mask = bytes32(~(2 ** (8 * (32 - needlelen)) - 1)) */\n      swap1\n      pop\n        /* \"https://github.com/Arachnid/solidity-stringutils/blob/master/src/strings.sol\":15748:15858  if (needlelen > 0) {... */\n    tag_129:\n        /* \"https://github.com/Arachnid/solidity-stringutils/blob/master/src/strings.sol\":15876:15894  bytes32 needledata */\n      0x00\n        /* \"https://github.com/Arachnid/solidity-stringutils/blob/master/src/strings.sol\":15959:15963  mask */\n      dup2\n        /* \"https://github.com/Arachnid/solidity-stringutils/blob/master/src/strings.sol\":15947:15956  needleptr */\n      dup7\n        /* \"https://github.com/Arachnid/solidity-stringutils/blob/master/src/strings.sol\":15941:15957  mload(needleptr) */\n      mload\n        /* \"https://github.com/Arachnid/solidity-stringutils/blob/master/src/strings.sol\":15937:15964  and(mload(needleptr), mask) */\n      and\n        /* \"https://github.com/Arachnid/solidity-stringutils/blob/master/src/strings.sol\":15923:15964  needledata := and(mload(needleptr), mask) */\n      swap1\n      pop\n        /* \"https://github.com/Arachnid/solidity-stringutils/blob/master/src/strings.sol\":15984:15992  uint end */\n      0x00\n        /* \"https://github.com/Arachnid/solidity-stringutils/blob/master/src/strings.sol\":16015:16024  needlelen */\n      dup8\n        /* \"https://github.com/Arachnid/solidity-stringutils/blob/master/src/strings.sol\":16005:16012  selflen */\n      dup11\n        /* \"https://github.com/Arachnid/solidity-stringutils/blob/master/src/strings.sol\":15995:16002  selfptr */\n      dup11\n        /* \"https://github.com/Arachnid/solidity-stringutils/blob/master/src/strings.sol\":15995:16012  selfptr + selflen */\n      tag_136\n      swap2\n      swap1\n      tag_56\n      jump\t// in\n    tag_136:\n        /* \"https://github.com/Arachnid/solidity-stringutils/blob/master/src/strings.sol\":15995:16024  selfptr + selflen - needlelen */\n      tag_137\n      swap2\n      swap1\n      tag_114\n      jump\t// in\n    tag_137:\n        /* \"https://github.com/Arachnid/solidity-stringutils/blob/master/src/strings.sol\":15984:16024  uint end = selfptr + selflen - needlelen */\n      swap1\n      pop\n        /* \"https://github.com/Arachnid/solidity-stringutils/blob/master/src/strings.sol\":16042:16057  bytes32 ptrdata */\n      0x00\n        /* \"https://github.com/Arachnid/solidity-stringutils/blob/master/src/strings.sol\":16113:16117  mask */\n      dup4\n        /* \"https://github.com/Arachnid/solidity-stringutils/blob/master/src/strings.sol\":16107:16110  ptr */\n      dup7\n        /* \"https://github.com/Arachnid/solidity-stringutils/blob/master/src/strings.sol\":16101:16111  mload(ptr) */\n      mload\n        /* \"https://github.com/Arachnid/solidity-stringutils/blob/master/src/strings.sol\":16097:16118  and(mload(ptr), mask) */\n      and\n        /* \"https://github.com/Arachnid/solidity-stringutils/blob/master/src/strings.sol\":16086:16118  ptrdata := and(mload(ptr), mask) */\n      swap1\n      pop\n        /* \"https://github.com/Arachnid/solidity-stringutils/blob/master/src/strings.sol\":16138:16366  while (ptrdata != needledata) {... */\n    tag_138:\n        /* \"https://github.com/Arachnid/solidity-stringutils/blob/master/src/strings.sol\":16156:16166  needledata */\n      dup3\n        /* \"https://github.com/Arachnid/solidity-stringutils/blob/master/src/strings.sol\":16145:16152  ptrdata */\n      dup2\n        /* \"https://github.com/Arachnid/solidity-stringutils/blob/master/src/strings.sol\":16145:16166  ptrdata != needledata */\n      eq\n        /* \"https://github.com/Arachnid/solidity-stringutils/blob/master/src/strings.sol\":16138:16366  while (ptrdata != needledata) {... */\n      tag_139\n      jumpi\n        /* \"https://github.com/Arachnid/solidity-stringutils/blob/master/src/strings.sol\":16201:16204  end */\n      dup2\n        /* \"https://github.com/Arachnid/solidity-stringutils/blob/master/src/strings.sol\":16194:16197  ptr */\n      dup7\n        /* \"https://github.com/Arachnid/solidity-stringutils/blob/master/src/strings.sol\":16194:16204  ptr >= end */\n      lt\n        /* \"https://github.com/Arachnid/solidity-stringutils/blob/master/src/strings.sol\":16190:16254  if (ptr >= end)... */\n      tag_140\n      jumpi\n        /* \"https://github.com/Arachnid/solidity-stringutils/blob/master/src/strings.sol\":16247:16254  selflen */\n      dup11\n        /* \"https://github.com/Arachnid/solidity-stringutils/blob/master/src/strings.sol\":16237:16244  selfptr */\n      dup11\n        /* \"https://github.com/Arachnid/solidity-stringutils/blob/master/src/strings.sol\":16237:16254  selfptr + selflen */\n      tag_141\n      swap2\n      swap1\n      tag_56\n      jump\t// in\n    tag_141:\n        /* \"https://github.com/Arachnid/solidity-stringutils/blob/master/src/strings.sol\":16230:16254  return selfptr + selflen */\n      swap7\n      pop\n      pop\n      pop\n      pop\n      pop\n      pop\n      pop\n      jump(tag_126)\n        /* \"https://github.com/Arachnid/solidity-stringutils/blob/master/src/strings.sol\":16190:16254  if (ptr >= end)... */\n    tag_140:\n        /* \"https://github.com/Arachnid/solidity-stringutils/blob/master/src/strings.sol\":16276:16281  ptr++ */\n      dup6\n      dup1\n      tag_142\n      swap1\n      tag_73\n      jump\t// in\n    tag_142:\n      swap7\n      pop\n      pop\n        /* \"https://github.com/Arachnid/solidity-stringutils/blob/master/src/strings.sol\":16341:16345  mask */\n      dup4\n        /* \"https://github.com/Arachnid/solidity-stringutils/blob/master/src/strings.sol\":16335:16338  ptr */\n      dup7\n        /* \"https://github.com/Arachnid/solidity-stringutils/blob/master/src/strings.sol\":16329:16339  mload(ptr) */\n      mload\n        /* \"https://github.com/Arachnid/solidity-stringutils/blob/master/src/strings.sol\":16325:16346  and(mload(ptr), mask) */\n      and\n        /* \"https://github.com/Arachnid/solidity-stringutils/blob/master/src/strings.sol\":16314:16346  ptrdata := and(mload(ptr), mask) */\n      swap1\n      pop\n        /* \"https://github.com/Arachnid/solidity-stringutils/blob/master/src/strings.sol\":16312:16348  { ptrdata := and(mload(ptr), mask) } */\n      jump(tag_138)\n    tag_139:\n        /* \"https://github.com/Arachnid/solidity-stringutils/blob/master/src/strings.sol\":16390:16393  ptr */\n      dup6\n        /* \"https://github.com/Arachnid/solidity-stringutils/blob/master/src/strings.sol\":16383:16393  return ptr */\n      swap7\n      pop\n      pop\n      pop\n      pop\n      pop\n      pop\n      pop\n      jump(tag_126)\n        /* \"https://github.com/Arachnid/solidity-stringutils/blob/master/src/strings.sol\":15679:16880  if (needlelen <= 32) {... */\n    tag_128:\n        /* \"https://github.com/Arachnid/solidity-stringutils/blob/master/src/strings.sol\":16481:16493  bytes32 hash */\n      0x00\n        /* \"https://github.com/Arachnid/solidity-stringutils/blob/master/src/strings.sol\":16551:16560  needlelen */\n      dup6\n        /* \"https://github.com/Arachnid/solidity-stringutils/blob/master/src/strings.sol\":16540:16549  needleptr */\n      dup6\n        /* \"https://github.com/Arachnid/solidity-stringutils/blob/master/src/strings.sol\":16530:16561  keccak256(needleptr, needlelen) */\n      keccak256\n        /* \"https://github.com/Arachnid/solidity-stringutils/blob/master/src/strings.sol\":16522:16561  hash := keccak256(needleptr, needlelen) */\n      swap1\n      pop\n        /* \"https://github.com/Arachnid/solidity-stringutils/blob/master/src/strings.sol\":16592:16593  0 */\n      0x00\n        /* \"https://github.com/Arachnid/solidity-stringutils/blob/master/src/strings.sol\":16586:16593  idx = 0 */\n      swap2\n      pop\n        /* \"https://github.com/Arachnid/solidity-stringutils/blob/master/src/strings.sol\":16581:16866  for (idx = 0; idx <= selflen - needlelen; idx++) {... */\n    tag_144:\n        /* \"https://github.com/Arachnid/solidity-stringutils/blob/master/src/strings.sol\":16612:16621  needlelen */\n      dup6\n        /* \"https://github.com/Arachnid/solidity-stringutils/blob/master/src/strings.sol\":16602:16609  selflen */\n      dup9\n        /* \"https://github.com/Arachnid/solidity-stringutils/blob/master/src/strings.sol\":16602:16621  selflen - needlelen */\n      tag_147\n      swap2\n      swap1\n      tag_114\n      jump\t// in\n    tag_147:\n        /* \"https://github.com/Arachnid/solidity-stringutils/blob/master/src/strings.sol\":16595:16598  idx */\n      dup3\n        /* \"https://github.com/Arachnid/solidity-stringutils/blob/master/src/strings.sol\":16595:16621  idx <= selflen - needlelen */\n      gt\n        /* \"https://github.com/Arachnid/solidity-stringutils/blob/master/src/strings.sol\":16581:16866  for (idx = 0; idx <= selflen - needlelen; idx++) {... */\n      tag_145\n      jumpi\n        /* \"https://github.com/Arachnid/solidity-stringutils/blob/master/src/strings.sol\":16652:16668  bytes32 testHash */\n      0x00\n        /* \"https://github.com/Arachnid/solidity-stringutils/blob/master/src/strings.sol\":16728:16737  needlelen */\n      dup7\n        /* \"https://github.com/Arachnid/solidity-stringutils/blob/master/src/strings.sol\":16723:16726  ptr */\n      dup5\n        /* \"https://github.com/Arachnid/solidity-stringutils/blob/master/src/strings.sol\":16713:16738  keccak256(ptr, needlelen) */\n      keccak256\n        /* \"https://github.com/Arachnid/solidity-stringutils/blob/master/src/strings.sol\":16701:16738  testHash := keccak256(ptr, needlelen) */\n      swap1\n      pop\n        /* \"https://github.com/Arachnid/solidity-stringutils/blob/master/src/strings.sol\":16773:16781  testHash */\n      dup1\n        /* \"https://github.com/Arachnid/solidity-stringutils/blob/master/src/strings.sol\":16765:16769  hash */\n      dup3\n        /* \"https://github.com/Arachnid/solidity-stringutils/blob/master/src/strings.sol\":16765:16781  hash == testHash */\n      eq\n        /* \"https://github.com/Arachnid/solidity-stringutils/blob/master/src/strings.sol\":16761:16817  if (hash == testHash)... */\n      iszero\n      tag_148\n      jumpi\n        /* \"https://github.com/Arachnid/solidity-stringutils/blob/master/src/strings.sol\":16814:16817  ptr */\n      dup4\n        /* \"https://github.com/Arachnid/solidity-stringutils/blob/master/src/strings.sol\":16807:16817  return ptr */\n      swap5\n      pop\n      pop\n      pop\n      pop\n      pop\n      jump(tag_126)\n        /* \"https://github.com/Arachnid/solidity-stringutils/blob/master/src/strings.sol\":16761:16817  if (hash == testHash)... */\n    tag_148:\n        /* \"https://github.com/Arachnid/solidity-stringutils/blob/master/src/strings.sol\":16846:16847  1 */\n      0x01\n        /* \"https://github.com/Arachnid/solidity-stringutils/blob/master/src/strings.sol\":16839:16847  ptr += 1 */\n      dup5\n      tag_149\n      swap2\n      swap1\n      tag_56\n      jump\t// in\n    tag_149:\n      swap4\n      pop\n        /* \"https://github.com/Arachnid/solidity-stringutils/blob/master/src/strings.sol\":16581:16866  for (idx = 0; idx <= selflen - needlelen; idx++) {... */\n      pop\n        /* \"https://github.com/Arachnid/solidity-stringutils/blob/master/src/strings.sol\":16623:16628  idx++ */\n      dup2\n      dup1\n      tag_150\n      swap1\n      tag_73\n      jump\t// in\n    tag_150:\n      swap3\n      pop\n      pop\n        /* \"https://github.com/Arachnid/solidity-stringutils/blob/master/src/strings.sol\":16581:16866  for (idx = 0; idx <= selflen - needlelen; idx++) {... */\n      jump(tag_144)\n    tag_145:\n        /* \"https://github.com/Arachnid/solidity-stringutils/blob/master/src/strings.sol\":15679:16880  if (needlelen <= 32) {... */\n      pop\n        /* \"https://github.com/Arachnid/solidity-stringutils/blob/master/src/strings.sol\":15639:16890  if (needlelen <= selflen) {... */\n    tag_127:\n        /* \"https://github.com/Arachnid/solidity-stringutils/blob/master/src/strings.sol\":16916:16923  selflen */\n      dup7\n        /* \"https://github.com/Arachnid/solidity-stringutils/blob/master/src/strings.sol\":16906:16913  selfptr */\n      dup7\n        /* \"https://github.com/Arachnid/solidity-stringutils/blob/master/src/strings.sol\":16906:16923  selfptr + selflen */\n      tag_151\n      swap2\n      swap1\n      tag_56\n      jump\t// in\n    tag_151:\n        /* \"https://github.com/Arachnid/solidity-stringutils/blob/master/src/strings.sol\":16899:16923  return selfptr + selflen */\n      swap3\n      pop\n      pop\n      pop\n        /* \"https://github.com/Arachnid/solidity-stringutils/blob/master/src/strings.sol\":15477:16930  function findPtr(uint selflen, uint selfptr, uint needlelen, uint needleptr) private pure returns (uint) {... */\n    tag_126:\n      swap5\n      swap4\n      pop\n      pop\n      pop\n      pop\n      jump\t// out\n        /* \"https://github.com/Arachnid/solidity-stringutils/blob/master/src/strings.sol\":20233:20737  function split(slice memory self, slice memory needle, slice memory token) internal pure returns (slice memory) {... */\n    tag_120:\n        /* \"https://github.com/Arachnid/solidity-stringutils/blob/master/src/strings.sol\":20331:20343  slice memory */\n      tag_152\n      tag_102\n      jump\t// in\n    tag_152:\n        /* \"https://github.com/Arachnid/solidity-stringutils/blob/master/src/strings.sol\":20355:20363  uint ptr */\n      0x00\n        /* \"https://github.com/Arachnid/solidity-stringutils/blob/master/src/strings.sol\":20366:20421  findPtr(self._len, self._ptr, needle._len, needle._ptr) */\n      tag_154\n        /* \"https://github.com/Arachnid/solidity-stringutils/blob/master/src/strings.sol\":20374:20378  self */\n      dup6\n        /* \"https://github.com/Arachnid/solidity-stringutils/blob/master/src/strings.sol\":20374:20383  self._len */\n      0x00\n      add\n      mload\n        /* \"https://github.com/Arachnid/solidity-stringutils/blob/master/src/strings.sol\":20385:20389  self */\n      dup7\n        /* \"https://github.com/Arachnid/solidity-stringutils/blob/master/src/strings.sol\":20385:20394  self._ptr */\n      0x20\n      add\n      mload\n        /* \"https://github.com/Arachnid/solidity-stringutils/blob/master/src/strings.sol\":20396:20402  needle */\n      dup7\n        /* \"https://github.com/Arachnid/solidity-stringutils/blob/master/src/strings.sol\":20396:20407  needle._len */\n      0x00\n      add\n      mload\n        /* \"https://github.com/Arachnid/solidity-stringutils/blob/master/src/strings.sol\":20409:20415  needle */\n      dup8\n        /* \"https://github.com/Arachnid/solidity-stringutils/blob/master/src/strings.sol\":20409:20420  needle._ptr */\n      0x20\n      add\n      mload\n        /* \"https://github.com/Arachnid/solidity-stringutils/blob/master/src/strings.sol\":20366:20373  findPtr */\n      tag_106\n        /* \"https://github.com/Arachnid/solidity-stringutils/blob/master/src/strings.sol\":20366:20421  findPtr(self._len, self._ptr, needle._len, needle._ptr) */\n      jump\t// in\n    tag_154:\n        /* \"https://github.com/Arachnid/solidity-stringutils/blob/master/src/strings.sol\":20355:20421  uint ptr = findPtr(self._len, self._ptr, needle._len, needle._ptr) */\n      swap1\n      pop\n        /* \"https://github.com/Arachnid/solidity-stringutils/blob/master/src/strings.sol\":20444:20448  self */\n      dup5\n        /* \"https://github.com/Arachnid/solidity-stringutils/blob/master/src/strings.sol\":20444:20453  self._ptr */\n      0x20\n      add\n      mload\n        /* \"https://github.com/Arachnid/solidity-stringutils/blob/master/src/strings.sol\":20431:20436  token */\n      dup4\n        /* \"https://github.com/Arachnid/solidity-stringutils/blob/master/src/strings.sol\":20431:20441  token._ptr */\n      0x20\n      add\n        /* \"https://github.com/Arachnid/solidity-stringutils/blob/master/src/strings.sol\":20431:20453  token._ptr = self._ptr */\n      dup2\n      dup2\n      mstore\n      pop\n      pop\n        /* \"https://github.com/Arachnid/solidity-stringutils/blob/master/src/strings.sol\":20482:20486  self */\n      dup5\n        /* \"https://github.com/Arachnid/solidity-stringutils/blob/master/src/strings.sol\":20482:20491  self._ptr */\n      0x20\n      add\n      mload\n        /* \"https://github.com/Arachnid/solidity-stringutils/blob/master/src/strings.sol\":20476:20479  ptr */\n      dup2\n        /* \"https://github.com/Arachnid/solidity-stringutils/blob/master/src/strings.sol\":20476:20491  ptr - self._ptr */\n      tag_155\n      swap2\n      swap1\n      tag_114\n      jump\t// in\n    tag_155:\n        /* \"https://github.com/Arachnid/solidity-stringutils/blob/master/src/strings.sol\":20463:20468  token */\n      dup4\n        /* \"https://github.com/Arachnid/solidity-stringutils/blob/master/src/strings.sol\":20463:20473  token._len */\n      0x00\n      add\n        /* \"https://github.com/Arachnid/solidity-stringutils/blob/master/src/strings.sol\":20463:20491  token._len = ptr - self._ptr */\n      dup2\n      dup2\n      mstore\n      pop\n      pop\n        /* \"https://github.com/Arachnid/solidity-stringutils/blob/master/src/strings.sol\":20524:20528  self */\n      dup5\n        /* \"https://github.com/Arachnid/solidity-stringutils/blob/master/src/strings.sol\":20524:20533  self._len */\n      0x00\n      add\n      mload\n        /* \"https://github.com/Arachnid/solidity-stringutils/blob/master/src/strings.sol\":20512:20516  self */\n      dup6\n        /* \"https://github.com/Arachnid/solidity-stringutils/blob/master/src/strings.sol\":20512:20521  self._ptr */\n      0x20\n      add\n      mload\n        /* \"https://github.com/Arachnid/solidity-stringutils/blob/master/src/strings.sol\":20512:20533  self._ptr + self._len */\n      tag_156\n      swap2\n      swap1\n      tag_56\n      jump\t// in\n    tag_156:\n        /* \"https://github.com/Arachnid/solidity-stringutils/blob/master/src/strings.sol\":20505:20508  ptr */\n      dup2\n        /* \"https://github.com/Arachnid/solidity-stringutils/blob/master/src/strings.sol\":20505:20533  ptr == self._ptr + self._len */\n      eq\n        /* \"https://github.com/Arachnid/solidity-stringutils/blob/master/src/strings.sol\":20501:20709  if (ptr == self._ptr + self._len) {... */\n      iszero\n      tag_157\n      jumpi\n        /* \"https://github.com/Arachnid/solidity-stringutils/blob/master/src/strings.sol\":20586:20587  0 */\n      0x00\n        /* \"https://github.com/Arachnid/solidity-stringutils/blob/master/src/strings.sol\":20574:20578  self */\n      dup6\n        /* \"https://github.com/Arachnid/solidity-stringutils/blob/master/src/strings.sol\":20574:20583  self._len */\n      0x00\n      add\n        /* \"https://github.com/Arachnid/solidity-stringutils/blob/master/src/strings.sol\":20574:20587  self._len = 0 */\n      dup2\n      dup2\n      mstore\n      pop\n      pop\n        /* \"https://github.com/Arachnid/solidity-stringutils/blob/master/src/strings.sol\":20501:20709  if (ptr == self._ptr + self._len) {... */\n      jump(tag_158)\n    tag_157:\n        /* \"https://github.com/Arachnid/solidity-stringutils/blob/master/src/strings.sol\":20644:20650  needle */\n      dup4\n        /* \"https://github.com/Arachnid/solidity-stringutils/blob/master/src/strings.sol\":20644:20655  needle._len */\n      0x00\n      add\n      mload\n        /* \"https://github.com/Arachnid/solidity-stringutils/blob/master/src/strings.sol\":20631:20636  token */\n      dup4\n        /* \"https://github.com/Arachnid/solidity-stringutils/blob/master/src/strings.sol\":20631:20641  token._len */\n      0x00\n      add\n      mload\n        /* \"https://github.com/Arachnid/solidity-stringutils/blob/master/src/strings.sol\":20631:20655  token._len + needle._len */\n      tag_159\n      swap2\n      swap1\n      tag_56\n      jump\t// in\n    tag_159:\n        /* \"https://github.com/Arachnid/solidity-stringutils/blob/master/src/strings.sol\":20618:20622  self */\n      dup6\n        /* \"https://github.com/Arachnid/solidity-stringutils/blob/master/src/strings.sol\":20618:20627  self._len */\n      0x00\n      add\n        /* \"https://github.com/Arachnid/solidity-stringutils/blob/master/src/strings.sol\":20618:20655  self._len -= token._len + needle._len */\n      dup2\n      dup2\n      mload\n      tag_160\n      swap2\n      swap1\n      tag_114\n      jump\t// in\n    tag_160:\n      swap2\n      pop\n      dup2\n      dup2\n      mstore\n      pop\n      pop\n        /* \"https://github.com/Arachnid/solidity-stringutils/blob/master/src/strings.sol\":20687:20693  needle */\n      dup4\n        /* \"https://github.com/Arachnid/solidity-stringutils/blob/master/src/strings.sol\":20687:20698  needle._len */\n      0x00\n      add\n      mload\n        /* \"https://github.com/Arachnid/solidity-stringutils/blob/master/src/strings.sol\":20681:20684  ptr */\n      dup2\n        /* \"https://github.com/Arachnid/solidity-stringutils/blob/master/src/strings.sol\":20681:20698  ptr + needle._len */\n      tag_161\n      swap2\n      swap1\n      tag_56\n      jump\t// in\n    tag_161:\n        /* \"https://github.com/Arachnid/solidity-stringutils/blob/master/src/strings.sol\":20669:20673  self */\n      dup6\n        /* \"https://github.com/Arachnid/solidity-stringutils/blob/master/src/strings.sol\":20669:20678  self._ptr */\n      0x20\n      add\n        /* \"https://github.com/Arachnid/solidity-stringutils/blob/master/src/strings.sol\":20669:20698  self._ptr = ptr + needle._len */\n      dup2\n      dup2\n      mstore\n      pop\n      pop\n        /* \"https://github.com/Arachnid/solidity-stringutils/blob/master/src/strings.sol\":20501:20709  if (ptr == self._ptr + self._len) {... */\n    tag_158:\n        /* \"https://github.com/Arachnid/solidity-stringutils/blob/master/src/strings.sol\":20725:20730  token */\n      dup3\n        /* \"https://github.com/Arachnid/solidity-stringutils/blob/master/src/strings.sol\":20718:20730  return token */\n      swap2\n      pop\n      pop\n        /* \"https://github.com/Arachnid/solidity-stringutils/blob/master/src/strings.sol\":20233:20737  function split(slice memory self, slice memory needle, slice memory token) internal pure returns (slice memory) {... */\n      swap4\n      swap3\n      pop\n      pop\n      pop\n      jump\t// out\n        /* \"https://github.com/Arachnid/solidity-stringutils/blob/master/src/strings.sol\":2088:2704  function memcpy(uint dest, uint src, uint len) private pure {... */\n    tag_125:\n        /* \"https://github.com/Arachnid/solidity-stringutils/blob/master/src/strings.sol\":2208:2372  for(; len >= 32; len -= 32) {... */\n    tag_163:\n        /* \"https://github.com/Arachnid/solidity-stringutils/blob/master/src/strings.sol\":2221:2223  32 */\n      0x20\n        /* \"https://github.com/Arachnid/solidity-stringutils/blob/master/src/strings.sol\":2214:2217  len */\n      dup2\n        /* \"https://github.com/Arachnid/solidity-stringutils/blob/master/src/strings.sol\":2214:2223  len >= 32 */\n      lt\n        /* \"https://github.com/Arachnid/solidity-stringutils/blob/master/src/strings.sol\":2208:2372  for(; len >= 32; len -= 32) {... */\n      tag_164\n      jumpi\n        /* \"https://github.com/Arachnid/solidity-stringutils/blob/master/src/strings.sol\":2296:2299  src */\n      dup2\n        /* \"https://github.com/Arachnid/solidity-stringutils/blob/master/src/strings.sol\":2290:2300  mload(src) */\n      mload\n        /* \"https://github.com/Arachnid/solidity-stringutils/blob/master/src/strings.sol\":2284:2288  dest */\n      dup4\n        /* \"https://github.com/Arachnid/solidity-stringutils/blob/master/src/strings.sol\":2277:2301  mstore(dest, mload(src)) */\n      mstore\n        /* \"https://github.com/Arachnid/solidity-stringutils/blob/master/src/strings.sol\":2336:2338  32 */\n      0x20\n        /* \"https://github.com/Arachnid/solidity-stringutils/blob/master/src/strings.sol\":2328:2338  dest += 32 */\n      dup4\n      tag_166\n      swap2\n      swap1\n      tag_56\n      jump\t// in\n    tag_166:\n      swap3\n      pop\n        /* \"https://github.com/Arachnid/solidity-stringutils/blob/master/src/strings.sol\":2359:2361  32 */\n      0x20\n        /* \"https://github.com/Arachnid/solidity-stringutils/blob/master/src/strings.sol\":2352:2361  src += 32 */\n      dup3\n      tag_167\n      swap2\n      swap1\n      tag_56\n      jump\t// in\n    tag_167:\n      swap2\n      pop\n        /* \"https://github.com/Arachnid/solidity-stringutils/blob/master/src/strings.sol\":2232:2234  32 */\n      0x20\n        /* \"https://github.com/Arachnid/solidity-stringutils/blob/master/src/strings.sol\":2225:2234  len -= 32 */\n      dup2\n      tag_168\n      swap2\n      swap1\n      tag_114\n      jump\t// in\n    tag_168:\n      swap1\n      pop\n        /* \"https://github.com/Arachnid/solidity-stringutils/blob/master/src/strings.sol\":2208:2372  for(; len >= 32; len -= 32) {... */\n      jump(tag_163)\n    tag_164:\n        /* \"https://github.com/Arachnid/solidity-stringutils/blob/master/src/strings.sol\":2414:2423  uint mask */\n      0x00\n        /* \"https://github.com/Arachnid/solidity-stringutils/blob/master/src/strings.sol\":2426:2440  type(uint).max */\n      0xffffffffffffffffffffffffffffffffffffffffffffffffffffffffffffffff\n        /* \"https://github.com/Arachnid/solidity-stringutils/blob/master/src/strings.sol\":2414:2440  uint mask = type(uint).max */\n      swap1\n      pop\n        /* \"https://github.com/Arachnid/solidity-stringutils/blob/master/src/strings.sol\":2460:2461  0 */\n      0x00\n        /* \"https://github.com/Arachnid/solidity-stringutils/blob/master/src/strings.sol\":2454:2457  len */\n      dup3\n        /* \"https://github.com/Arachnid/solidity-stringutils/blob/master/src/strings.sol\":2454:2461  len > 0 */\n      gt\n        /* \"https://github.com/Arachnid/solidity-stringutils/blob/master/src/strings.sol\":2450:2516  if (len > 0) {... */\n      iszero\n      tag_169\n      jumpi\n        /* \"https://github.com/Arachnid/solidity-stringutils/blob/master/src/strings.sol\":2504:2505  1 */\n      0x01\n        /* \"https://github.com/Arachnid/solidity-stringutils/blob/master/src/strings.sol\":2497:2500  len */\n      dup3\n        /* \"https://github.com/Arachnid/solidity-stringutils/blob/master/src/strings.sol\":2492:2494  32 */\n      0x20\n        /* \"https://github.com/Arachnid/solidity-stringutils/blob/master/src/strings.sol\":2492:2500  32 - len */\n      tag_170\n      swap2\n      swap1\n      tag_114\n      jump\t// in\n    tag_170:\n        /* \"https://github.com/Arachnid/solidity-stringutils/blob/master/src/strings.sol\":2484:2487  256 */\n      0x0100\n        /* \"https://github.com/Arachnid/solidity-stringutils/blob/master/src/strings.sol\":2484:2501  256 ** (32 - len) */\n      tag_171\n      swap2\n      swap1\n      tag_134\n      jump\t// in\n    tag_171:\n        /* \"https://github.com/Arachnid/solidity-stringutils/blob/master/src/strings.sol\":2484:2505  256 ** (32 - len) - 1 */\n      tag_172\n      swap2\n      swap1\n      tag_114\n      jump\t// in\n    tag_172:\n        /* \"https://github.com/Arachnid/solidity-stringutils/blob/master/src/strings.sol\":2477:2505  mask = 256 ** (32 - len) - 1 */\n      swap1\n      pop\n        /* \"https://github.com/Arachnid/solidity-stringutils/blob/master/src/strings.sol\":2450:2516  if (len > 0) {... */\n    tag_169:\n        /* \"https://github.com/Arachnid/solidity-stringutils/blob/master/src/strings.sol\":2583:2587  mask */\n      dup1\n        /* \"https://github.com/Arachnid/solidity-stringutils/blob/master/src/strings.sol\":2579:2588  not(mask) */\n      not\n        /* \"https://github.com/Arachnid/solidity-stringutils/blob/master/src/strings.sol\":2573:2576  src */\n      dup4\n        /* \"https://github.com/Arachnid/solidity-stringutils/blob/master/src/strings.sol\":2567:2577  mload(src) */\n      mload\n        /* \"https://github.com/Arachnid/solidity-stringutils/blob/master/src/strings.sol\":2563:2589  and(mload(src), not(mask)) */\n      and\n        /* \"https://github.com/Arachnid/solidity-stringutils/blob/master/src/strings.sol\":2635:2639  mask */\n      dup2\n        /* \"https://github.com/Arachnid/solidity-stringutils/blob/master/src/strings.sol\":2628:2632  dest */\n      dup6\n        /* \"https://github.com/Arachnid/solidity-stringutils/blob/master/src/strings.sol\":2622:2633  mload(dest) */\n      mload\n        /* \"https://github.com/Arachnid/solidity-stringutils/blob/master/src/strings.sol\":2618:2640  and(mload(dest), mask) */\n      and\n        /* \"https://github.com/Arachnid/solidity-stringutils/blob/master/src/strings.sol\":2679:2686  srcpart */\n      dup2\n        /* \"https://github.com/Arachnid/solidity-stringutils/blob/master/src/strings.sol\":2669:2677  destpart */\n      dup2\n        /* \"https://github.com/Arachnid/solidity-stringutils/blob/master/src/strings.sol\":2666:2687  or(destpart, srcpart) */\n      or\n        /* \"https://github.com/Arachnid/solidity-stringutils/blob/master/src/strings.sol\":2660:2664  dest */\n      dup7\n        /* \"https://github.com/Arachnid/solidity-stringutils/blob/master/src/strings.sol\":2653:2688  mstore(dest, or(destpart, srcpart)) */\n      mstore\n        /* \"https://github.com/Arachnid/solidity-stringutils/blob/master/src/strings.sol\":2534:2698  {... */\n      pop\n      pop\n      pop\n      pop\n      pop\n      pop\n      jump\t// out\n    tag_71:\n      dup3\n      dup1\n      sload\n      tag_173\n      swap1\n      tag_44\n      jump\t// in\n    tag_173:\n      swap1\n      0x00\n      mstore\n      keccak256(0x00, 0x20)\n      swap1\n      0x1f\n      add\n      0x20\n      swap1\n      div\n      dup2\n      add\n      swap3\n      dup3\n      tag_175\n      jumpi\n      0x00\n      dup6\n      sstore\n      jump(tag_174)\n    tag_175:\n      dup3\n      0x1f\n      lt\n      tag_176\n      jumpi\n      dup1\n      mload\n      not(0xff)\n      and\n      dup4\n      dup1\n      add\n      or\n      dup6\n      sstore\n      jump(tag_174)\n    tag_176:\n      dup3\n      dup1\n      add\n      0x01\n      add\n      dup6\n      sstore\n      dup3\n      iszero\n      tag_174\n      jumpi\n      swap2\n      dup3\n      add\n    tag_177:\n      dup3\n      dup2\n      gt\n      iszero\n      tag_178\n      jumpi\n      dup3\n      mload\n      dup3\n      sstore\n      swap2\n      0x20\n      add\n      swap2\n      swap1\n      0x01\n      add\n      swap1\n      jump(tag_177)\n    tag_178:\n    tag_174:\n      pop\n      swap1\n      pop\n      tag_179\n      swap2\n      swap1\n      tag_180\n      jump\t// in\n    tag_179:\n      pop\n      swap1\n      jump\t// out\n    tag_94:\n      mload(0x40)\n      dup1\n      0xa0\n      add\n      0x40\n      mstore\n      dup1\n      0x00\n      dup2\n      mstore\n      0x20\n      add\n      0x00\n      dup2\n      mstore\n      0x20\n      add\n      and(0xffffffffffffffffffffffffffffffffffffffff, 0x00)\n      dup2\n      mstore\n      0x20\n      add\n      0x00\n      dup2\n      mstore\n      0x20\n      add\n      0x60\n      dup2\n      mstore\n      pop\n      swap1\n      jump\t// out\n    tag_102:\n      mload(0x40)\n      dup1\n      0x40\n      add\n      0x40\n      mstore\n      dup1\n      0x00\n      dup2\n      mstore\n      0x20\n      add\n      0x00\n      dup2\n      mstore\n      pop\n      swap1\n      jump\t// out\n    tag_180:\n    tag_181:\n      dup1\n      dup3\n      gt\n      iszero\n      tag_182\n      jumpi\n      0x00\n      dup2\n      0x00\n      swap1\n      sstore\n      pop\n      0x01\n      add\n      jump(tag_181)\n    tag_182:\n      pop\n      swap1\n      jump\t// out\n        /* \"#utility.yul\":7:351   */\n    tag_184:\n      0x00\n        /* \"#utility.yul\":110:175   */\n      tag_186\n        /* \"#utility.yul\":125:174   */\n      tag_187\n        /* \"#utility.yul\":167:173   */\n      dup5\n        /* \"#utility.yul\":125:174   */\n      tag_188\n      jump\t// in\n    tag_187:\n        /* \"#utility.yul\":110:175   */\n      tag_189\n      jump\t// in\n    tag_186:\n        /* \"#utility.yul\":101:175   */\n      swap1\n      pop\n        /* \"#utility.yul\":198:204   */\n      dup3\n        /* \"#utility.yul\":191:196   */\n      dup2\n        /* \"#utility.yul\":184:205   */\n      mstore\n        /* \"#utility.yul\":236:240   */\n      0x20\n        /* \"#utility.yul\":229:234   */\n      dup2\n        /* \"#utility.yul\":225:241   */\n      add\n        /* \"#utility.yul\":274:277   */\n      dup5\n        /* \"#utility.yul\":265:271   */\n      dup5\n        /* \"#utility.yul\":260:263   */\n      dup5\n        /* \"#utility.yul\":256:272   */\n      add\n        /* \"#utility.yul\":253:278   */\n      gt\n        /* \"#utility.yul\":250:252   */\n      iszero\n      tag_190\n      jumpi\n        /* \"#utility.yul\":291:292   */\n      0x00\n        /* \"#utility.yul\":288:289   */\n      dup1\n        /* \"#utility.yul\":281:293   */\n      revert\n        /* \"#utility.yul\":250:252   */\n    tag_190:\n        /* \"#utility.yul\":304:345   */\n      tag_191\n        /* \"#utility.yul\":338:344   */\n      dup5\n        /* \"#utility.yul\":333:336   */\n      dup3\n        /* \"#utility.yul\":328:331   */\n      dup6\n        /* \"#utility.yul\":304:345   */\n      tag_192\n      jump\t// in\n    tag_191:\n        /* \"#utility.yul\":91:351   */\n      pop\n      swap4\n      swap3\n      pop\n      pop\n      pop\n      jump\t// out\n        /* \"#utility.yul\":357:496   */\n    tag_193:\n      0x00\n        /* \"#utility.yul\":441:447   */\n      dup2\n        /* \"#utility.yul\":428:448   */\n      calldataload\n        /* \"#utility.yul\":419:448   */\n      swap1\n      pop\n        /* \"#utility.yul\":457:490   */\n      tag_195\n        /* \"#utility.yul\":484:489   */\n      dup2\n        /* \"#utility.yul\":457:490   */\n      tag_196\n      jump\t// in\n    tag_195:\n        /* \"#utility.yul\":409:496   */\n      swap3\n      swap2\n      pop\n      pop\n      jump\t// out\n        /* \"#utility.yul\":516:789   */\n    tag_197:\n      0x00\n        /* \"#utility.yul\":621:624   */\n      dup3\n        /* \"#utility.yul\":614:618   */\n      0x1f\n        /* \"#utility.yul\":606:612   */\n      dup4\n        /* \"#utility.yul\":602:619   */\n      add\n        /* \"#utility.yul\":598:625   */\n      slt\n        /* \"#utility.yul\":588:590   */\n      tag_199\n      jumpi\n        /* \"#utility.yul\":639:640   */\n      0x00\n        /* \"#utility.yul\":636:637   */\n      dup1\n        /* \"#utility.yul\":629:641   */\n      revert\n        /* \"#utility.yul\":588:590   */\n    tag_199:\n        /* \"#utility.yul\":679:685   */\n      dup2\n        /* \"#utility.yul\":666:686   */\n      calldataload\n        /* \"#utility.yul\":704:783   */\n      tag_200\n        /* \"#utility.yul\":779:782   */\n      dup5\n        /* \"#utility.yul\":771:777   */\n      dup3\n        /* \"#utility.yul\":764:768   */\n      0x20\n        /* \"#utility.yul\":756:762   */\n      dup7\n        /* \"#utility.yul\":752:769   */\n      add\n        /* \"#utility.yul\":704:783   */\n      tag_184\n      jump\t// in\n    tag_200:\n        /* \"#utility.yul\":695:783   */\n      swap2\n      pop\n        /* \"#utility.yul\":578:789   */\n      pop\n      swap3\n      swap2\n      pop\n      pop\n      jump\t// out\n        /* \"#utility.yul\":795:934   */\n    tag_201:\n      0x00\n        /* \"#utility.yul\":879:885   */\n      dup2\n        /* \"#utility.yul\":866:886   */\n      calldataload\n        /* \"#utility.yul\":857:886   */\n      swap1\n      pop\n        /* \"#utility.yul\":895:928   */\n      tag_203\n        /* \"#utility.yul\":922:927   */\n      dup2\n        /* \"#utility.yul\":895:928   */\n      tag_204\n      jump\t// in\n    tag_203:\n        /* \"#utility.yul\":847:934   */\n      swap3\n      swap2\n      pop\n      pop\n      jump\t// out\n        /* \"#utility.yul\":940:1315   */\n    tag_19:\n      0x00\n        /* \"#utility.yul\":1058:1060   */\n      0x20\n        /* \"#utility.yul\":1046:1055   */\n      dup3\n        /* \"#utility.yul\":1037:1044   */\n      dup5\n        /* \"#utility.yul\":1033:1056   */\n      sub\n        /* \"#utility.yul\":1029:1061   */\n      slt\n        /* \"#utility.yul\":1026:1028   */\n      iszero\n      tag_206\n      jumpi\n        /* \"#utility.yul\":1074:1075   */\n      0x00\n        /* \"#utility.yul\":1071:1072   */\n      dup1\n        /* \"#utility.yul\":1064:1076   */\n      revert\n        /* \"#utility.yul\":1026:1028   */\n    tag_206:\n        /* \"#utility.yul\":1145:1146   */\n      0x00\n        /* \"#utility.yul\":1134:1143   */\n      dup3\n        /* \"#utility.yul\":1130:1147   */\n      add\n        /* \"#utility.yul\":1117:1148   */\n      calldataload\n        /* \"#utility.yul\":1175:1193   */\n      0xffffffffffffffff\n        /* \"#utility.yul\":1167:1173   */\n      dup2\n        /* \"#utility.yul\":1164:1194   */\n      gt\n        /* \"#utility.yul\":1161:1163   */\n      iszero\n      tag_207\n      jumpi\n        /* \"#utility.yul\":1207:1208   */\n      0x00\n        /* \"#utility.yul\":1204:1205   */\n      dup1\n        /* \"#utility.yul\":1197:1209   */\n      revert\n        /* \"#utility.yul\":1161:1163   */\n    tag_207:\n        /* \"#utility.yul\":1235:1298   */\n      tag_208\n        /* \"#utility.yul\":1290:1297   */\n      dup5\n        /* \"#utility.yul\":1281:1287   */\n      dup3\n        /* \"#utility.yul\":1270:1279   */\n      dup6\n        /* \"#utility.yul\":1266:1288   */\n      add\n        /* \"#utility.yul\":1235:1298   */\n      tag_197\n      jump\t// in\n    tag_208:\n        /* \"#utility.yul\":1225:1298   */\n      swap2\n      pop\n        /* \"#utility.yul\":1088:1308   */\n      pop\n        /* \"#utility.yul\":1016:1315   */\n      swap3\n      swap2\n      pop\n      pop\n      jump\t// out\n        /* \"#utility.yul\":1321:1583   */\n    tag_13:\n      0x00\n        /* \"#utility.yul\":1429:1431   */\n      0x20\n        /* \"#utility.yul\":1417:1426   */\n      dup3\n        /* \"#utility.yul\":1408:1415   */\n      dup5\n        /* \"#utility.yul\":1404:1427   */\n      sub\n        /* \"#utility.yul\":1400:1432   */\n      slt\n        /* \"#utility.yul\":1397:1399   */\n      iszero\n      tag_210\n      jumpi\n        /* \"#utility.yul\":1445:1446   */\n      0x00\n        /* \"#utility.yul\":1442:1443   */\n      dup1\n        /* \"#utility.yul\":1435:1447   */\n      revert\n        /* \"#utility.yul\":1397:1399   */\n    tag_210:\n        /* \"#utility.yul\":1488:1489   */\n      0x00\n        /* \"#utility.yul\":1513:1566   */\n      tag_211\n        /* \"#utility.yul\":1558:1565   */\n      dup5\n        /* \"#utility.yul\":1549:1555   */\n      dup3\n        /* \"#utility.yul\":1538:1547   */\n      dup6\n        /* \"#utility.yul\":1534:1556   */\n      add\n        /* \"#utility.yul\":1513:1566   */\n      tag_201\n      jump\t// in\n    tag_211:\n        /* \"#utility.yul\":1503:1566   */\n      swap2\n      pop\n        /* \"#utility.yul\":1459:1576   */\n      pop\n        /* \"#utility.yul\":1387:1583   */\n      swap3\n      swap2\n      pop\n      pop\n      jump\t// out\n        /* \"#utility.yul\":1589:2546   */\n    tag_23:\n      0x00\n      dup1\n      0x00\n      dup1\n      0x00\n        /* \"#utility.yul\":1775:1778   */\n      0xa0\n        /* \"#utility.yul\":1763:1772   */\n      dup7\n        /* \"#utility.yul\":1754:1761   */\n      dup9\n        /* \"#utility.yul\":1750:1773   */\n      sub\n        /* \"#utility.yul\":1746:1779   */\n      slt\n        /* \"#utility.yul\":1743:1745   */\n      iszero\n      tag_213\n      jumpi\n        /* \"#utility.yul\":1792:1793   */\n      0x00\n        /* \"#utility.yul\":1789:1790   */\n      dup1\n        /* \"#utility.yul\":1782:1794   */\n      revert\n        /* \"#utility.yul\":1743:1745   */\n    tag_213:\n        /* \"#utility.yul\":1835:1836   */\n      0x00\n        /* \"#utility.yul\":1860:1913   */\n      tag_214\n        /* \"#utility.yul\":1905:1912   */\n      dup9\n        /* \"#utility.yul\":1896:1902   */\n      dup3\n        /* \"#utility.yul\":1885:1894   */\n      dup10\n        /* \"#utility.yul\":1881:1903   */\n      add\n        /* \"#utility.yul\":1860:1913   */\n      tag_201\n      jump\t// in\n    tag_214:\n        /* \"#utility.yul\":1850:1913   */\n      swap6\n      pop\n        /* \"#utility.yul\":1806:1923   */\n      pop\n        /* \"#utility.yul\":1962:1964   */\n      0x20\n        /* \"#utility.yul\":1988:2041   */\n      tag_215\n        /* \"#utility.yul\":2033:2040   */\n      dup9\n        /* \"#utility.yul\":2024:2030   */\n      dup3\n        /* \"#utility.yul\":2013:2022   */\n      dup10\n        /* \"#utility.yul\":2009:2031   */\n      add\n        /* \"#utility.yul\":1988:2041   */\n      tag_201\n      jump\t// in\n    tag_215:\n        /* \"#utility.yul\":1978:2041   */\n      swap5\n      pop\n        /* \"#utility.yul\":1933:2051   */\n      pop\n        /* \"#utility.yul\":2090:2092   */\n      0x40\n        /* \"#utility.yul\":2116:2169   */\n      tag_216\n        /* \"#utility.yul\":2161:2168   */\n      dup9\n        /* \"#utility.yul\":2152:2158   */\n      dup3\n        /* \"#utility.yul\":2141:2150   */\n      dup10\n        /* \"#utility.yul\":2137:2159   */\n      add\n        /* \"#utility.yul\":2116:2169   */\n      tag_193\n      jump\t// in\n    tag_216:\n        /* \"#utility.yul\":2106:2169   */\n      swap4\n      pop\n        /* \"#utility.yul\":2061:2179   */\n      pop\n        /* \"#utility.yul\":2218:2220   */\n      0x60\n        /* \"#utility.yul\":2244:2297   */\n      tag_217\n        /* \"#utility.yul\":2289:2296   */\n      dup9\n        /* \"#utility.yul\":2280:2286   */\n      dup3\n        /* \"#utility.yul\":2269:2278   */\n      dup10\n        /* \"#utility.yul\":2265:2287   */\n      add\n        /* \"#utility.yul\":2244:2297   */\n      tag_201\n      jump\t// in\n    tag_217:\n        /* \"#utility.yul\":2234:2297   */\n      swap3\n      pop\n        /* \"#utility.yul\":2189:2307   */\n      pop\n        /* \"#utility.yul\":2374:2377   */\n      0x80\n        /* \"#utility.yul\":2363:2372   */\n      dup7\n        /* \"#utility.yul\":2359:2378   */\n      add\n        /* \"#utility.yul\":2346:2379   */\n      calldataload\n        /* \"#utility.yul\":2406:2424   */\n      0xffffffffffffffff\n        /* \"#utility.yul\":2398:2404   */\n      dup2\n        /* \"#utility.yul\":2395:2425   */\n      gt\n        /* \"#utility.yul\":2392:2394   */\n      iszero\n      tag_218\n      jumpi\n        /* \"#utility.yul\":2438:2439   */\n      0x00\n        /* \"#utility.yul\":2435:2436   */\n      dup1\n        /* \"#utility.yul\":2428:2440   */\n      revert\n        /* \"#utility.yul\":2392:2394   */\n    tag_218:\n        /* \"#utility.yul\":2466:2529   */\n      tag_219\n        /* \"#utility.yul\":2521:2528   */\n      dup9\n        /* \"#utility.yul\":2512:2518   */\n      dup3\n        /* \"#utility.yul\":2501:2510   */\n      dup10\n        /* \"#utility.yul\":2497:2519   */\n      add\n        /* \"#utility.yul\":2466:2529   */\n      tag_197\n      jump\t// in\n    tag_219:\n        /* \"#utility.yul\":2456:2529   */\n      swap2\n      pop\n        /* \"#utility.yul\":2317:2539   */\n      pop\n        /* \"#utility.yul\":1733:2546   */\n      swap3\n      swap6\n      pop\n      swap3\n      swap6\n      swap1\n      swap4\n      pop\n      jump\t// out\n        /* \"#utility.yul\":2552:2748   */\n    tag_220:\n      0x00\n        /* \"#utility.yul\":2676:2742   */\n      tag_222\n        /* \"#utility.yul\":2738:2741   */\n      dup4\n        /* \"#utility.yul\":2730:2736   */\n      dup4\n        /* \"#utility.yul\":2676:2742   */\n      tag_223\n      jump\t// in\n    tag_222:\n        /* \"#utility.yul\":2662:2742   */\n      swap1\n      pop\n        /* \"#utility.yul\":2652:2748   */\n      swap3\n      swap2\n      pop\n      pop\n      jump\t// out\n        /* \"#utility.yul\":2754:2862   */\n    tag_224:\n        /* \"#utility.yul\":2831:2855   */\n      tag_226\n        /* \"#utility.yul\":2849:2854   */\n      dup2\n        /* \"#utility.yul\":2831:2855   */\n      tag_227\n      jump\t// in\n    tag_226:\n        /* \"#utility.yul\":2826:2829   */\n      dup3\n        /* \"#utility.yul\":2819:2856   */\n      mstore\n        /* \"#utility.yul\":2809:2862   */\n      pop\n      pop\n      jump\t// out\n        /* \"#utility.yul\":2868:2986   */\n    tag_228:\n        /* \"#utility.yul\":2955:2979   */\n      tag_230\n        /* \"#utility.yul\":2973:2978   */\n      dup2\n        /* \"#utility.yul\":2955:2979   */\n      tag_227\n      jump\t// in\n    tag_230:\n        /* \"#utility.yul\":2950:2953   */\n      dup3\n        /* \"#utility.yul\":2943:2980   */\n      mstore\n        /* \"#utility.yul\":2933:2986   */\n      pop\n      pop\n      jump\t// out\n        /* \"#utility.yul\":3020:4011   */\n    tag_231:\n      0x00\n        /* \"#utility.yul\":3188:3252   */\n      tag_233\n        /* \"#utility.yul\":3246:3251   */\n      dup3\n        /* \"#utility.yul\":3188:3252   */\n      tag_234\n      jump\t// in\n    tag_233:\n        /* \"#utility.yul\":3268:3364   */\n      tag_235\n        /* \"#utility.yul\":3357:3363   */\n      dup2\n        /* \"#utility.yul\":3352:3355   */\n      dup6\n        /* \"#utility.yul\":3268:3364   */\n      tag_236\n      jump\t// in\n    tag_235:\n        /* \"#utility.yul\":3261:3364   */\n      swap4\n      pop\n        /* \"#utility.yul\":3390:3393   */\n      dup4\n        /* \"#utility.yul\":3435:3439   */\n      0x20\n        /* \"#utility.yul\":3427:3433   */\n      dup3\n        /* \"#utility.yul\":3423:3440   */\n      mul\n        /* \"#utility.yul\":3418:3421   */\n      dup6\n        /* \"#utility.yul\":3414:3441   */\n      add\n        /* \"#utility.yul\":3465:3531   */\n      tag_237\n        /* \"#utility.yul\":3525:3530   */\n      dup6\n        /* \"#utility.yul\":3465:3531   */\n      tag_238\n      jump\t// in\n    tag_237:\n        /* \"#utility.yul\":3554:3561   */\n      dup1\n        /* \"#utility.yul\":3585:3586   */\n      0x00\n        /* \"#utility.yul\":3570:3966   */\n    tag_239:\n        /* \"#utility.yul\":3595:3601   */\n      dup6\n        /* \"#utility.yul\":3592:3593   */\n      dup2\n        /* \"#utility.yul\":3589:3602   */\n      lt\n        /* \"#utility.yul\":3570:3966   */\n      iszero\n      tag_241\n      jumpi\n        /* \"#utility.yul\":3666:3675   */\n      dup5\n        /* \"#utility.yul\":3660:3664   */\n      dup5\n        /* \"#utility.yul\":3656:3676   */\n      sub\n        /* \"#utility.yul\":3651:3654   */\n      dup10\n        /* \"#utility.yul\":3644:3677   */\n      mstore\n        /* \"#utility.yul\":3717:3723   */\n      dup2\n        /* \"#utility.yul\":3711:3724   */\n      mload\n        /* \"#utility.yul\":3745:3829   */\n      tag_242\n        /* \"#utility.yul\":3824:3828   */\n      dup6\n        /* \"#utility.yul\":3809:3822   */\n      dup3\n        /* \"#utility.yul\":3745:3829   */\n      tag_220\n      jump\t// in\n    tag_242:\n        /* \"#utility.yul\":3737:3829   */\n      swap5\n      pop\n        /* \"#utility.yul\":3852:3922   */\n      tag_243\n        /* \"#utility.yul\":3915:3921   */\n      dup4\n        /* \"#utility.yul\":3852:3922   */\n      tag_244\n      jump\t// in\n    tag_243:\n        /* \"#utility.yul\":3842:3922   */\n      swap3\n      pop\n        /* \"#utility.yul\":3951:3955   */\n      0x20\n        /* \"#utility.yul\":3946:3949   */\n      dup11\n        /* \"#utility.yul\":3942:3956   */\n      add\n        /* \"#utility.yul\":3935:3956   */\n      swap10\n      pop\n        /* \"#utility.yul\":3630:3966   */\n      pop\n        /* \"#utility.yul\":3617:3618   */\n      0x01\n        /* \"#utility.yul\":3614:3615   */\n      dup2\n        /* \"#utility.yul\":3610:3619   */\n      add\n        /* \"#utility.yul\":3605:3619   */\n      swap1\n      pop\n        /* \"#utility.yul\":3570:3966   */\n      jump(tag_239)\n    tag_241:\n        /* \"#utility.yul\":3574:3588   */\n      pop\n        /* \"#utility.yul\":3982:3986   */\n      dup3\n        /* \"#utility.yul\":3975:3986   */\n      swap8\n      pop\n        /* \"#utility.yul\":4002:4005   */\n      dup8\n        /* \"#utility.yul\":3995:4005   */\n      swap6\n      pop\n        /* \"#utility.yul\":3164:4011   */\n      pop\n      pop\n      pop\n      pop\n      pop\n      swap3\n      swap2\n      pop\n      pop\n      jump\t// out\n        /* \"#utility.yul\":4017:4361   */\n    tag_223:\n      0x00\n        /* \"#utility.yul\":4123:4162   */\n      tag_246\n        /* \"#utility.yul\":4156:4161   */\n      dup3\n        /* \"#utility.yul\":4123:4162   */\n      tag_247\n      jump\t// in\n    tag_246:\n        /* \"#utility.yul\":4178:4239   */\n      tag_248\n        /* \"#utility.yul\":4232:4238   */\n      dup2\n        /* \"#utility.yul\":4227:4230   */\n      dup6\n        /* \"#utility.yul\":4178:4239   */\n      tag_249\n      jump\t// in\n    tag_248:\n        /* \"#utility.yul\":4171:4239   */\n      swap4\n      pop\n        /* \"#utility.yul\":4248:4300   */\n      tag_250\n        /* \"#utility.yul\":4293:4299   */\n      dup2\n        /* \"#utility.yul\":4288:4291   */\n      dup6\n        /* \"#utility.yul\":4281:4285   */\n      0x20\n        /* \"#utility.yul\":4274:4279   */\n      dup7\n        /* \"#utility.yul\":4270:4286   */\n      add\n        /* \"#utility.yul\":4248:4300   */\n      tag_251\n      jump\t// in\n    tag_250:\n        /* \"#utility.yul\":4325:4354   */\n      tag_252\n        /* \"#utility.yul\":4347:4353   */\n      dup2\n        /* \"#utility.yul\":4325:4354   */\n      tag_253\n      jump\t// in\n    tag_252:\n        /* \"#utility.yul\":4320:4323   */\n      dup5\n        /* \"#utility.yul\":4316:4355   */\n      add\n        /* \"#utility.yul\":4309:4355   */\n      swap2\n      pop\n        /* \"#utility.yul\":4099:4361   */\n      pop\n      swap3\n      swap2\n      pop\n      pop\n      jump\t// out\n        /* \"#utility.yul\":4367:4731   */\n    tag_254:\n      0x00\n        /* \"#utility.yul\":4483:4522   */\n      tag_256\n        /* \"#utility.yul\":4516:4521   */\n      dup3\n        /* \"#utility.yul\":4483:4522   */\n      tag_247\n      jump\t// in\n    tag_256:\n        /* \"#utility.yul\":4538:4609   */\n      tag_257\n        /* \"#utility.yul\":4602:4608   */\n      dup2\n        /* \"#utility.yul\":4597:4600   */\n      dup6\n        /* \"#utility.yul\":4538:4609   */\n      tag_258\n      jump\t// in\n    tag_257:\n        /* \"#utility.yul\":4531:4609   */\n      swap4\n      pop\n        /* \"#utility.yul\":4618:4670   */\n      tag_259\n        /* \"#utility.yul\":4663:4669   */\n      dup2\n        /* \"#utility.yul\":4658:4661   */\n      dup6\n        /* \"#utility.yul\":4651:4655   */\n      0x20\n        /* \"#utility.yul\":4644:4649   */\n      dup7\n        /* \"#utility.yul\":4640:4656   */\n      add\n        /* \"#utility.yul\":4618:4670   */\n      tag_251\n      jump\t// in\n    tag_259:\n        /* \"#utility.yul\":4695:4724   */\n      tag_260\n        /* \"#utility.yul\":4717:4723   */\n      dup2\n        /* \"#utility.yul\":4695:4724   */\n      tag_253\n      jump\t// in\n    tag_260:\n        /* \"#utility.yul\":4690:4693   */\n      dup5\n        /* \"#utility.yul\":4686:4725   */\n      add\n        /* \"#utility.yul\":4679:4725   */\n      swap2\n      pop\n        /* \"#utility.yul\":4459:4731   */\n      pop\n      swap3\n      swap2\n      pop\n      pop\n      jump\t// out\n        /* \"#utility.yul\":4805:5985   */\n    tag_261:\n      0x00\n        /* \"#utility.yul\":4958:4962   */\n      0xa0\n        /* \"#utility.yul\":4953:4956   */\n      dup4\n        /* \"#utility.yul\":4949:4963   */\n      add\n        /* \"#utility.yul\":5051:5055   */\n      0x00\n        /* \"#utility.yul\":5044:5049   */\n      dup4\n        /* \"#utility.yul\":5040:5056   */\n      add\n        /* \"#utility.yul\":5034:5057   */\n      mload\n        /* \"#utility.yul\":5070:5133   */\n      tag_263\n        /* \"#utility.yul\":5127:5131   */\n      0x00\n        /* \"#utility.yul\":5122:5125   */\n      dup7\n        /* \"#utility.yul\":5118:5132   */\n      add\n        /* \"#utility.yul\":5104:5116   */\n      dup3\n        /* \"#utility.yul\":5070:5133   */\n      tag_264\n      jump\t// in\n    tag_263:\n        /* \"#utility.yul\":4973:5143   */\n      pop\n        /* \"#utility.yul\":5235:5239   */\n      0x20\n        /* \"#utility.yul\":5228:5233   */\n      dup4\n        /* \"#utility.yul\":5224:5240   */\n      add\n        /* \"#utility.yul\":5218:5241   */\n      mload\n        /* \"#utility.yul\":5254:5317   */\n      tag_265\n        /* \"#utility.yul\":5311:5315   */\n      0x20\n        /* \"#utility.yul\":5306:5309   */\n      dup7\n        /* \"#utility.yul\":5302:5316   */\n      add\n        /* \"#utility.yul\":5288:5300   */\n      dup3\n        /* \"#utility.yul\":5254:5317   */\n      tag_264\n      jump\t// in\n    tag_265:\n        /* \"#utility.yul\":5153:5327   */\n      pop\n        /* \"#utility.yul\":5420:5424   */\n      0x40\n        /* \"#utility.yul\":5413:5418   */\n      dup4\n        /* \"#utility.yul\":5409:5425   */\n      add\n        /* \"#utility.yul\":5403:5426   */\n      mload\n        /* \"#utility.yul\":5439:5502   */\n      tag_266\n        /* \"#utility.yul\":5496:5500   */\n      0x40\n        /* \"#utility.yul\":5491:5494   */\n      dup7\n        /* \"#utility.yul\":5487:5501   */\n      add\n        /* \"#utility.yul\":5473:5485   */\n      dup3\n        /* \"#utility.yul\":5439:5502   */\n      tag_224\n      jump\t// in\n    tag_266:\n        /* \"#utility.yul\":5337:5512   */\n      pop\n        /* \"#utility.yul\":5610:5614   */\n      0x60\n        /* \"#utility.yul\":5603:5608   */\n      dup4\n        /* \"#utility.yul\":5599:5615   */\n      add\n        /* \"#utility.yul\":5593:5616   */\n      mload\n        /* \"#utility.yul\":5629:5692   */\n      tag_267\n        /* \"#utility.yul\":5686:5690   */\n      0x60\n        /* \"#utility.yul\":5681:5684   */\n      dup7\n        /* \"#utility.yul\":5677:5691   */\n      add\n        /* \"#utility.yul\":5663:5675   */\n      dup3\n        /* \"#utility.yul\":5629:5692   */\n      tag_264\n      jump\t// in\n    tag_267:\n        /* \"#utility.yul\":5522:5702   */\n      pop\n        /* \"#utility.yul\":5795:5799   */\n      0x80\n        /* \"#utility.yul\":5788:5793   */\n      dup4\n        /* \"#utility.yul\":5784:5800   */\n      add\n        /* \"#utility.yul\":5778:5801   */\n      mload\n        /* \"#utility.yul\":5848:5851   */\n      dup5\n        /* \"#utility.yul\":5842:5846   */\n      dup3\n        /* \"#utility.yul\":5838:5852   */\n      sub\n        /* \"#utility.yul\":5831:5835   */\n      0x80\n        /* \"#utility.yul\":5826:5829   */\n      dup7\n        /* \"#utility.yul\":5822:5836   */\n      add\n        /* \"#utility.yul\":5815:5853   */\n      mstore\n        /* \"#utility.yul\":5874:5947   */\n      tag_268\n        /* \"#utility.yul\":5942:5946   */\n      dup3\n        /* \"#utility.yul\":5928:5940   */\n      dup3\n        /* \"#utility.yul\":5874:5947   */\n      tag_223\n      jump\t// in\n    tag_268:\n        /* \"#utility.yul\":5866:5947   */\n      swap2\n      pop\n        /* \"#utility.yul\":5712:5958   */\n      pop\n        /* \"#utility.yul\":5975:5979   */\n      dup1\n        /* \"#utility.yul\":5968:5979   */\n      swap2\n      pop\n        /* \"#utility.yul\":4927:5985   */\n      pop\n      swap3\n      swap2\n      pop\n      pop\n      jump\t// out\n        /* \"#utility.yul\":5991:6099   */\n    tag_264:\n        /* \"#utility.yul\":6068:6092   */\n      tag_270\n        /* \"#utility.yul\":6086:6091   */\n      dup2\n        /* \"#utility.yul\":6068:6092   */\n      tag_271\n      jump\t// in\n    tag_270:\n        /* \"#utility.yul\":6063:6066   */\n      dup3\n        /* \"#utility.yul\":6056:6093   */\n      mstore\n        /* \"#utility.yul\":6046:6099   */\n      pop\n      pop\n      jump\t// out\n        /* \"#utility.yul\":6105:6223   */\n    tag_272:\n        /* \"#utility.yul\":6192:6216   */\n      tag_274\n        /* \"#utility.yul\":6210:6215   */\n      dup2\n        /* \"#utility.yul\":6192:6216   */\n      tag_271\n      jump\t// in\n    tag_274:\n        /* \"#utility.yul\":6187:6190   */\n      dup3\n        /* \"#utility.yul\":6180:6217   */\n      mstore\n        /* \"#utility.yul\":6170:6223   */\n      pop\n      pop\n      jump\t// out\n        /* \"#utility.yul\":6229:6642   */\n    tag_33:\n      0x00\n        /* \"#utility.yul\":6430:6432   */\n      0x20\n        /* \"#utility.yul\":6419:6428   */\n      dup3\n        /* \"#utility.yul\":6415:6433   */\n      add\n        /* \"#utility.yul\":6407:6433   */\n      swap1\n      pop\n        /* \"#utility.yul\":6479:6488   */\n      dup2\n        /* \"#utility.yul\":6473:6477   */\n      dup2\n        /* \"#utility.yul\":6469:6489   */\n      sub\n        /* \"#utility.yul\":6465:6466   */\n      0x00\n        /* \"#utility.yul\":6454:6463   */\n      dup4\n        /* \"#utility.yul\":6450:6467   */\n      add\n        /* \"#utility.yul\":6443:6490   */\n      mstore\n        /* \"#utility.yul\":6507:6635   */\n      tag_276\n        /* \"#utility.yul\":6630:6634   */\n      dup2\n        /* \"#utility.yul\":6621:6627   */\n      dup5\n        /* \"#utility.yul\":6507:6635   */\n      tag_231\n      jump\t// in\n    tag_276:\n        /* \"#utility.yul\":6499:6635   */\n      swap1\n      pop\n        /* \"#utility.yul\":6397:6642   */\n      swap3\n      swap2\n      pop\n      pop\n      jump\t// out\n        /* \"#utility.yul\":6648:6961   */\n    tag_29:\n      0x00\n        /* \"#utility.yul\":6799:6801   */\n      0x20\n        /* \"#utility.yul\":6788:6797   */\n      dup3\n        /* \"#utility.yul\":6784:6802   */\n      add\n        /* \"#utility.yul\":6776:6802   */\n      swap1\n      pop\n        /* \"#utility.yul\":6848:6857   */\n      dup2\n        /* \"#utility.yul\":6842:6846   */\n      dup2\n        /* \"#utility.yul\":6838:6858   */\n      sub\n        /* \"#utility.yul\":6834:6835   */\n      0x00\n        /* \"#utility.yul\":6823:6832   */\n      dup4\n        /* \"#utility.yul\":6819:6836   */\n      add\n        /* \"#utility.yul\":6812:6859   */\n      mstore\n        /* \"#utility.yul\":6876:6954   */\n      tag_278\n        /* \"#utility.yul\":6949:6953   */\n      dup2\n        /* \"#utility.yul\":6940:6946   */\n      dup5\n        /* \"#utility.yul\":6876:6954   */\n      tag_254\n      jump\t// in\n    tag_278:\n        /* \"#utility.yul\":6868:6954   */\n      swap1\n      pop\n        /* \"#utility.yul\":6766:6961   */\n      swap3\n      swap2\n      pop\n      pop\n      jump\t// out\n        /* \"#utility.yul\":6967:7336   */\n    tag_42:\n      0x00\n        /* \"#utility.yul\":7146:7148   */\n      0x20\n        /* \"#utility.yul\":7135:7144   */\n      dup3\n        /* \"#utility.yul\":7131:7149   */\n      add\n        /* \"#utility.yul\":7123:7149   */\n      swap1\n      pop\n        /* \"#utility.yul\":7195:7204   */\n      dup2\n        /* \"#utility.yul\":7189:7193   */\n      dup2\n        /* \"#utility.yul\":7185:7205   */\n      sub\n        /* \"#utility.yul\":7181:7182   */\n      0x00\n        /* \"#utility.yul\":7170:7179   */\n      dup4\n        /* \"#utility.yul\":7166:7183   */\n      add\n        /* \"#utility.yul\":7159:7206   */\n      mstore\n        /* \"#utility.yul\":7223:7329   */\n      tag_280\n        /* \"#utility.yul\":7324:7328   */\n      dup2\n        /* \"#utility.yul\":7315:7321   */\n      dup5\n        /* \"#utility.yul\":7223:7329   */\n      tag_261\n      jump\t// in\n    tag_280:\n        /* \"#utility.yul\":7215:7329   */\n      swap1\n      pop\n        /* \"#utility.yul\":7113:7336   */\n      swap3\n      swap2\n      pop\n      pop\n      jump\t// out\n        /* \"#utility.yul\":7342:7564   */\n    tag_37:\n      0x00\n        /* \"#utility.yul\":7473:7475   */\n      0x20\n        /* \"#utility.yul\":7462:7471   */\n      dup3\n        /* \"#utility.yul\":7458:7476   */\n      add\n        /* \"#utility.yul\":7450:7476   */\n      swap1\n      pop\n        /* \"#utility.yul\":7486:7557   */\n      tag_282\n        /* \"#utility.yul\":7554:7555   */\n      0x00\n        /* \"#utility.yul\":7543:7552   */\n      dup4\n        /* \"#utility.yul\":7539:7556   */\n      add\n        /* \"#utility.yul\":7530:7536   */\n      dup5\n        /* \"#utility.yul\":7486:7557   */\n      tag_272\n      jump\t// in\n    tag_282:\n        /* \"#utility.yul\":7440:7564   */\n      swap3\n      swap2\n      pop\n      pop\n      jump\t// out\n        /* \"#utility.yul\":7570:8325   */\n    tag_16:\n      0x00\n        /* \"#utility.yul\":7833:7836   */\n      0xa0\n        /* \"#utility.yul\":7822:7831   */\n      dup3\n        /* \"#utility.yul\":7818:7837   */\n      add\n        /* \"#utility.yul\":7810:7837   */\n      swap1\n      pop\n        /* \"#utility.yul\":7847:7918   */\n      tag_284\n        /* \"#utility.yul\":7915:7916   */\n      0x00\n        /* \"#utility.yul\":7904:7913   */\n      dup4\n        /* \"#utility.yul\":7900:7917   */\n      add\n        /* \"#utility.yul\":7891:7897   */\n      dup9\n        /* \"#utility.yul\":7847:7918   */\n      tag_272\n      jump\t// in\n    tag_284:\n        /* \"#utility.yul\":7928:8000   */\n      tag_285\n        /* \"#utility.yul\":7996:7998   */\n      0x20\n        /* \"#utility.yul\":7985:7994   */\n      dup4\n        /* \"#utility.yul\":7981:7999   */\n      add\n        /* \"#utility.yul\":7972:7978   */\n      dup8\n        /* \"#utility.yul\":7928:8000   */\n      tag_272\n      jump\t// in\n    tag_285:\n        /* \"#utility.yul\":8010:8082   */\n      tag_286\n        /* \"#utility.yul\":8078:8080   */\n      0x40\n        /* \"#utility.yul\":8067:8076   */\n      dup4\n        /* \"#utility.yul\":8063:8081   */\n      add\n        /* \"#utility.yul\":8054:8060   */\n      dup7\n        /* \"#utility.yul\":8010:8082   */\n      tag_228\n      jump\t// in\n    tag_286:\n        /* \"#utility.yul\":8092:8164   */\n      tag_287\n        /* \"#utility.yul\":8160:8162   */\n      0x60\n        /* \"#utility.yul\":8149:8158   */\n      dup4\n        /* \"#utility.yul\":8145:8163   */\n      add\n        /* \"#utility.yul\":8136:8142   */\n      dup6\n        /* \"#utility.yul\":8092:8164   */\n      tag_272\n      jump\t// in\n    tag_287:\n        /* \"#utility.yul\":8212:8221   */\n      dup2\n        /* \"#utility.yul\":8206:8210   */\n      dup2\n        /* \"#utility.yul\":8202:8222   */\n      sub\n        /* \"#utility.yul\":8196:8199   */\n      0x80\n        /* \"#utility.yul\":8185:8194   */\n      dup4\n        /* \"#utility.yul\":8181:8200   */\n      add\n        /* \"#utility.yul\":8174:8223   */\n      mstore\n        /* \"#utility.yul\":8240:8318   */\n      tag_288\n        /* \"#utility.yul\":8313:8317   */\n      dup2\n        /* \"#utility.yul\":8304:8310   */\n      dup5\n        /* \"#utility.yul\":8240:8318   */\n      tag_254\n      jump\t// in\n    tag_288:\n        /* \"#utility.yul\":8232:8318   */\n      swap1\n      pop\n        /* \"#utility.yul\":7800:8325   */\n      swap7\n      swap6\n      pop\n      pop\n      pop\n      pop\n      pop\n      pop\n      jump\t// out\n        /* \"#utility.yul\":8331:8614   */\n    tag_189:\n      0x00\n        /* \"#utility.yul\":8397:8399   */\n      0x40\n        /* \"#utility.yul\":8391:8400   */\n      mload\n        /* \"#utility.yul\":8381:8400   */\n      swap1\n      pop\n        /* \"#utility.yul\":8439:8443   */\n      dup2\n        /* \"#utility.yul\":8431:8437   */\n      dup2\n        /* \"#utility.yul\":8427:8444   */\n      add\n        /* \"#utility.yul\":8546:8552   */\n      dup2\n        /* \"#utility.yul\":8534:8544   */\n      dup2\n        /* \"#utility.yul\":8531:8553   */\n      lt\n        /* \"#utility.yul\":8510:8528   */\n      0xffffffffffffffff\n        /* \"#utility.yul\":8498:8508   */\n      dup3\n        /* \"#utility.yul\":8495:8529   */\n      gt\n        /* \"#utility.yul\":8492:8554   */\n      or\n        /* \"#utility.yul\":8489:8491   */\n      iszero\n      tag_290\n      jumpi\n        /* \"#utility.yul\":8557:8575   */\n      tag_291\n      tag_292\n      jump\t// in\n    tag_291:\n        /* \"#utility.yul\":8489:8491   */\n    tag_290:\n        /* \"#utility.yul\":8597:8607   */\n      dup1\n        /* \"#utility.yul\":8593:8595   */\n      0x40\n        /* \"#utility.yul\":8586:8608   */\n      mstore\n        /* \"#utility.yul\":8371:8614   */\n      pop\n      swap2\n      swap1\n      pop\n      jump\t// out\n        /* \"#utility.yul\":8620:8952   */\n    tag_188:\n      0x00\n        /* \"#utility.yul\":8772:8790   */\n      0xffffffffffffffff\n        /* \"#utility.yul\":8764:8770   */\n      dup3\n        /* \"#utility.yul\":8761:8791   */\n      gt\n        /* \"#utility.yul\":8758:8760   */\n      iszero\n      tag_294\n      jumpi\n        /* \"#utility.yul\":8794:8812   */\n      tag_295\n      tag_292\n      jump\t// in\n    tag_295:\n        /* \"#utility.yul\":8758:8760   */\n    tag_294:\n        /* \"#utility.yul\":8879:8883   */\n      0x1f\n        /* \"#utility.yul\":8875:8884   */\n      not\n        /* \"#utility.yul\":8868:8872   */\n      0x1f\n        /* \"#utility.yul\":8860:8866   */\n      dup4\n        /* \"#utility.yul\":8856:8873   */\n      add\n        /* \"#utility.yul\":8852:8885   */\n      and\n        /* \"#utility.yul\":8844:8885   */\n      swap1\n      pop\n        /* \"#utility.yul\":8940:8944   */\n      0x20\n        /* \"#utility.yul\":8934:8938   */\n      dup2\n        /* \"#utility.yul\":8930:8945   */\n      add\n        /* \"#utility.yul\":8922:8945   */\n      swap1\n      pop\n        /* \"#utility.yul\":8687:8952   */\n      swap2\n      swap1\n      pop\n      jump\t// out\n        /* \"#utility.yul\":8958:9100   */\n    tag_238:\n      0x00\n        /* \"#utility.yul\":9058:9061   */\n      dup2\n        /* \"#utility.yul\":9050:9061   */\n      swap1\n      pop\n        /* \"#utility.yul\":9088:9092   */\n      0x20\n        /* \"#utility.yul\":9083:9086   */\n      dup3\n        /* \"#utility.yul\":9079:9093   */\n      add\n        /* \"#utility.yul\":9071:9093   */\n      swap1\n      pop\n        /* \"#utility.yul\":9040:9100   */\n      swap2\n      swap1\n      pop\n      jump\t// out\n        /* \"#utility.yul\":9106:9230   */\n    tag_234:\n      0x00\n        /* \"#utility.yul\":9217:9222   */\n      dup2\n        /* \"#utility.yul\":9211:9223   */\n      mload\n        /* \"#utility.yul\":9201:9223   */\n      swap1\n      pop\n        /* \"#utility.yul\":9190:9230   */\n      swap2\n      swap1\n      pop\n      jump\t// out\n        /* \"#utility.yul\":9236:9335   */\n    tag_247:\n      0x00\n        /* \"#utility.yul\":9322:9327   */\n      dup2\n        /* \"#utility.yul\":9316:9328   */\n      mload\n        /* \"#utility.yul\":9306:9328   */\n      swap1\n      pop\n        /* \"#utility.yul\":9295:9335   */\n      swap2\n      swap1\n      pop\n      jump\t// out\n        /* \"#utility.yul\":9341:9464   */\n    tag_244:\n      0x00\n        /* \"#utility.yul\":9453:9457   */\n      0x20\n        /* \"#utility.yul\":9448:9451   */\n      dup3\n        /* \"#utility.yul\":9444:9458   */\n      add\n        /* \"#utility.yul\":9436:9458   */\n      swap1\n      pop\n        /* \"#utility.yul\":9426:9464   */\n      swap2\n      swap1\n      pop\n      jump\t// out\n        /* \"#utility.yul\":9470:9664   */\n    tag_236:\n      0x00\n        /* \"#utility.yul\":9613:9619   */\n      dup3\n        /* \"#utility.yul\":9608:9611   */\n      dup3\n        /* \"#utility.yul\":9601:9620   */\n      mstore\n        /* \"#utility.yul\":9653:9657   */\n      0x20\n        /* \"#utility.yul\":9648:9651   */\n      dup3\n        /* \"#utility.yul\":9644:9658   */\n      add\n        /* \"#utility.yul\":9629:9658   */\n      swap1\n      pop\n        /* \"#utility.yul\":9591:9664   */\n      swap3\n      swap2\n      pop\n      pop\n      jump\t// out\n        /* \"#utility.yul\":9670:9829   */\n    tag_249:\n      0x00\n        /* \"#utility.yul\":9778:9784   */\n      dup3\n        /* \"#utility.yul\":9773:9776   */\n      dup3\n        /* \"#utility.yul\":9766:9785   */\n      mstore\n        /* \"#utility.yul\":9818:9822   */\n      0x20\n        /* \"#utility.yul\":9813:9816   */\n      dup3\n        /* \"#utility.yul\":9809:9823   */\n      add\n        /* \"#utility.yul\":9794:9823   */\n      swap1\n      pop\n        /* \"#utility.yul\":9756:9829   */\n      swap3\n      swap2\n      pop\n      pop\n      jump\t// out\n        /* \"#utility.yul\":9835:10004   */\n    tag_258:\n      0x00\n        /* \"#utility.yul\":9953:9959   */\n      dup3\n        /* \"#utility.yul\":9948:9951   */\n      dup3\n        /* \"#utility.yul\":9941:9960   */\n      mstore\n        /* \"#utility.yul\":9993:9997   */\n      0x20\n        /* \"#utility.yul\":9988:9991   */\n      dup3\n        /* \"#utility.yul\":9984:9998   */\n      add\n        /* \"#utility.yul\":9969:9998   */\n      swap1\n      pop\n        /* \"#utility.yul\":9931:10004   */\n      swap3\n      swap2\n      pop\n      pop\n      jump\t// out\n        /* \"#utility.yul\":10010:10315   */\n    tag_56:\n      0x00\n        /* \"#utility.yul\":10069:10089   */\n      tag_304\n        /* \"#utility.yul\":10087:10088   */\n      dup3\n        /* \"#utility.yul\":10069:10089   */\n      tag_271\n      jump\t// in\n    tag_304:\n        /* \"#utility.yul\":10064:10089   */\n      swap2\n      pop\n        /* \"#utility.yul\":10103:10123   */\n      tag_305\n        /* \"#utility.yul\":10121:10122   */\n      dup4\n        /* \"#utility.yul\":10103:10123   */\n      tag_271\n      jump\t// in\n    tag_305:\n        /* \"#utility.yul\":10098:10123   */\n      swap3\n      pop\n        /* \"#utility.yul\":10257:10258   */\n      dup3\n        /* \"#utility.yul\":10189:10255   */\n      0xffffffffffffffffffffffffffffffffffffffffffffffffffffffffffffffff\n        /* \"#utility.yul\":10185:10259   */\n      sub\n        /* \"#utility.yul\":10182:10183   */\n      dup3\n        /* \"#utility.yul\":10179:10260   */\n      gt\n        /* \"#utility.yul\":10176:10178   */\n      iszero\n      tag_306\n      jumpi\n        /* \"#utility.yul\":10263:10281   */\n      tag_307\n      tag_308\n      jump\t// in\n    tag_307:\n        /* \"#utility.yul\":10176:10178   */\n    tag_306:\n        /* \"#utility.yul\":10307:10308   */\n      dup3\n        /* \"#utility.yul\":10304:10305   */\n      dup3\n        /* \"#utility.yul\":10300:10309   */\n      add\n        /* \"#utility.yul\":10293:10309   */\n      swap1\n      pop\n        /* \"#utility.yul\":10054:10315   */\n      swap3\n      swap2\n      pop\n      pop\n      jump\t// out\n        /* \"#utility.yul\":10321:11169   */\n    tag_309:\n      0x00\n      dup1\n        /* \"#utility.yul\":10413:10419   */\n      dup3\n        /* \"#utility.yul\":10404:10419   */\n      swap2\n      pop\n        /* \"#utility.yul\":10437:10442   */\n      dup4\n        /* \"#utility.yul\":10428:10442   */\n      swap1\n      pop\n        /* \"#utility.yul\":10451:11163   */\n    tag_311:\n        /* \"#utility.yul\":10472:10473   */\n      0x01\n        /* \"#utility.yul\":10462:10470   */\n      dup6\n        /* \"#utility.yul\":10459:10474   */\n      gt\n        /* \"#utility.yul\":10451:11163   */\n      iszero\n      tag_313\n      jumpi\n        /* \"#utility.yul\":10567:10571   */\n      dup1\n        /* \"#utility.yul\":10562:10565   */\n      dup7\n        /* \"#utility.yul\":10558:10572   */\n      div\n        /* \"#utility.yul\":10552:10556   */\n      dup2\n        /* \"#utility.yul\":10549:10573   */\n      gt\n        /* \"#utility.yul\":10546:10548   */\n      iszero\n      tag_314\n      jumpi\n        /* \"#utility.yul\":10576:10594   */\n      tag_315\n      tag_308\n      jump\t// in\n    tag_315:\n        /* \"#utility.yul\":10546:10548   */\n    tag_314:\n        /* \"#utility.yul\":10626:10627   */\n      0x01\n        /* \"#utility.yul\":10616:10624   */\n      dup6\n        /* \"#utility.yul\":10612:10628   */\n      and\n        /* \"#utility.yul\":10609:10611   */\n      iszero\n      tag_316\n      jumpi\n        /* \"#utility.yul\":11041:11045   */\n      dup1\n        /* \"#utility.yul\":11034:11039   */\n      dup3\n        /* \"#utility.yul\":11030:11046   */\n      mul\n        /* \"#utility.yul\":11021:11046   */\n      swap2\n      pop\n        /* \"#utility.yul\":10609:10611   */\n    tag_316:\n        /* \"#utility.yul\":11091:11095   */\n      dup1\n        /* \"#utility.yul\":11085:11089   */\n      dup2\n        /* \"#utility.yul\":11081:11096   */\n      mul\n        /* \"#utility.yul\":11073:11096   */\n      swap1\n      pop\n        /* \"#utility.yul\":11121:11153   */\n      tag_317\n        /* \"#utility.yul\":11144:11152   */\n      dup6\n        /* \"#utility.yul\":11121:11153   */\n      tag_318\n      jump\t// in\n    tag_317:\n        /* \"#utility.yul\":11109:11153   */\n      swap5\n      pop\n        /* \"#utility.yul\":10451:11163   */\n      jump(tag_311)\n    tag_313:\n        /* \"#utility.yul\":10394:11169   */\n      swap5\n      pop\n      swap5\n      swap3\n      pop\n      pop\n      pop\n      jump\t// out\n        /* \"#utility.yul\":11175:11460   */\n    tag_134:\n      0x00\n        /* \"#utility.yul\":11259:11282   */\n      tag_320\n        /* \"#utility.yul\":11277:11281   */\n      dup3\n        /* \"#utility.yul\":11259:11282   */\n      tag_271\n      jump\t// in\n    tag_320:\n        /* \"#utility.yul\":11251:11282   */\n      swap2\n      pop\n        /* \"#utility.yul\":11303:11330   */\n      tag_321\n        /* \"#utility.yul\":11321:11329   */\n      dup4\n        /* \"#utility.yul\":11303:11330   */\n      tag_271\n      jump\t// in\n    tag_321:\n        /* \"#utility.yul\":11291:11330   */\n      swap3\n      pop\n        /* \"#utility.yul\":11349:11453   */\n      tag_322\n        /* \"#utility.yul\":11386:11452   */\n      0xffffffffffffffffffffffffffffffffffffffffffffffffffffffffffffffff\n        /* \"#utility.yul\":11376:11384   */\n      dup5\n        /* \"#utility.yul\":11370:11374   */\n      dup5\n        /* \"#utility.yul\":11349:11453   */\n      tag_323\n      jump\t// in\n    tag_322:\n        /* \"#utility.yul\":11340:11453   */\n      swap1\n      pop\n        /* \"#utility.yul\":11241:11460   */\n      swap3\n      swap2\n      pop\n      pop\n      jump\t// out\n        /* \"#utility.yul\":11466:12539   */\n    tag_323:\n      0x00\n        /* \"#utility.yul\":11711:11719   */\n      dup3\n        /* \"#utility.yul\":11701:11703   */\n      tag_325\n      jumpi\n        /* \"#utility.yul\":11732:11733   */\n      0x01\n        /* \"#utility.yul\":11723:11733   */\n      swap1\n      pop\n        /* \"#utility.yul\":11734:11739   */\n      jump(tag_324)\n        /* \"#utility.yul\":11701:11703   */\n    tag_325:\n        /* \"#utility.yul\":11760:11764   */\n      dup2\n        /* \"#utility.yul\":11750:11752   */\n      tag_326\n      jumpi\n        /* \"#utility.yul\":11777:11778   */\n      0x00\n        /* \"#utility.yul\":11768:11778   */\n      swap1\n      pop\n        /* \"#utility.yul\":11779:11784   */\n      jump(tag_324)\n        /* \"#utility.yul\":11750:11752   */\n    tag_326:\n        /* \"#utility.yul\":11846:11850   */\n      dup2\n        /* \"#utility.yul\":11894:11895   */\n      0x01\n        /* \"#utility.yul\":11889:11916   */\n      dup2\n      eq\n      tag_328\n      jumpi\n        /* \"#utility.yul\":11930:11931   */\n      0x02\n        /* \"#utility.yul\":11925:12116   */\n      dup2\n      eq\n      tag_329\n      jumpi\n        /* \"#utility.yul\":11839:12116   */\n      jump(tag_327)\n        /* \"#utility.yul\":11889:11916   */\n    tag_328:\n        /* \"#utility.yul\":11907:11908   */\n      0x01\n        /* \"#utility.yul\":11898:11908   */\n      swap2\n      pop\n        /* \"#utility.yul\":11909:11914   */\n      pop\n      jump(tag_324)\n        /* \"#utility.yul\":11925:12116   */\n    tag_329:\n        /* \"#utility.yul\":11970:11973   */\n      0xff\n        /* \"#utility.yul\":11960:11968   */\n      dup5\n        /* \"#utility.yul\":11957:11974   */\n      gt\n        /* \"#utility.yul\":11954:11956   */\n      iszero\n      tag_330\n      jumpi\n        /* \"#utility.yul\":11977:11995   */\n      tag_331\n      tag_308\n      jump\t// in\n    tag_331:\n        /* \"#utility.yul\":11954:11956   */\n    tag_330:\n        /* \"#utility.yul\":12026:12034   */\n      dup4\n        /* \"#utility.yul\":12023:12024   */\n      0x02\n        /* \"#utility.yul\":12019:12035   */\n      exp\n        /* \"#utility.yul\":12010:12035   */\n      swap2\n      pop\n        /* \"#utility.yul\":12061:12064   */\n      dup5\n        /* \"#utility.yul\":12054:12059   */\n      dup3\n        /* \"#utility.yul\":12051:12065   */\n      gt\n        /* \"#utility.yul\":12048:12050   */\n      iszero\n      tag_332\n      jumpi\n        /* \"#utility.yul\":12068:12086   */\n      tag_333\n      tag_308\n      jump\t// in\n    tag_333:\n        /* \"#utility.yul\":12048:12050   */\n    tag_332:\n        /* \"#utility.yul\":12101:12106   */\n      pop\n      jump(tag_324)\n        /* \"#utility.yul\":11839:12116   */\n    tag_327:\n      pop\n        /* \"#utility.yul\":12225:12227   */\n      0x20\n        /* \"#utility.yul\":12215:12223   */\n      dup4\n        /* \"#utility.yul\":12212:12228   */\n      lt\n        /* \"#utility.yul\":12206:12209   */\n      0x0133\n        /* \"#utility.yul\":12200:12204   */\n      dup4\n        /* \"#utility.yul\":12197:12210   */\n      lt\n        /* \"#utility.yul\":12193:12229   */\n      and\n        /* \"#utility.yul\":12175:12177   */\n      0x4e\n        /* \"#utility.yul\":12165:12173   */\n      dup5\n        /* \"#utility.yul\":12162:12178   */\n      lt\n        /* \"#utility.yul\":12157:12159   */\n      0x0b\n        /* \"#utility.yul\":12151:12155   */\n      dup5\n        /* \"#utility.yul\":12148:12160   */\n      lt\n        /* \"#utility.yul\":12144:12179   */\n      and\n        /* \"#utility.yul\":12128:12239   */\n      or\n        /* \"#utility.yul\":12125:12127   */\n      iszero\n      tag_334\n      jumpi\n        /* \"#utility.yul\":12281:12289   */\n      dup3\n        /* \"#utility.yul\":12275:12279   */\n      dup3\n        /* \"#utility.yul\":12271:12290   */\n      exp\n        /* \"#utility.yul\":12262:12290   */\n      swap1\n      pop\n        /* \"#utility.yul\":12316:12319   */\n      dup4\n        /* \"#utility.yul\":12309:12314   */\n      dup2\n        /* \"#utility.yul\":12306:12320   */\n      gt\n        /* \"#utility.yul\":12303:12305   */\n      iszero\n      tag_335\n      jumpi\n        /* \"#utility.yul\":12323:12341   */\n      tag_336\n      tag_308\n      jump\t// in\n    tag_336:\n        /* \"#utility.yul\":12303:12305   */\n    tag_335:\n        /* \"#utility.yul\":12356:12361   */\n      jump(tag_324)\n        /* \"#utility.yul\":12125:12127   */\n    tag_334:\n        /* \"#utility.yul\":12396:12438   */\n      tag_337\n        /* \"#utility.yul\":12434:12437   */\n      dup5\n        /* \"#utility.yul\":12424:12432   */\n      dup5\n        /* \"#utility.yul\":12418:12422   */\n      dup5\n        /* \"#utility.yul\":12415:12416   */\n      0x01\n        /* \"#utility.yul\":12396:12438   */\n      tag_309\n      jump\t// in\n    tag_337:\n        /* \"#utility.yul\":12381:12438   */\n      swap3\n      pop\n      swap1\n      pop\n        /* \"#utility.yul\":12470:12474   */\n      dup2\n        /* \"#utility.yul\":12465:12468   */\n      dup5\n        /* \"#utility.yul\":12461:12475   */\n      div\n        /* \"#utility.yul\":12454:12459   */\n      dup2\n        /* \"#utility.yul\":12451:12476   */\n      gt\n        /* \"#utility.yul\":12448:12450   */\n      iszero\n      tag_338\n      jumpi\n        /* \"#utility.yul\":12479:12497   */\n      tag_339\n      tag_308\n      jump\t// in\n    tag_339:\n        /* \"#utility.yul\":12448:12450   */\n    tag_338:\n        /* \"#utility.yul\":12528:12532   */\n      dup2\n        /* \"#utility.yul\":12521:12526   */\n      dup2\n        /* \"#utility.yul\":12517:12533   */\n      mul\n        /* \"#utility.yul\":12508:12533   */\n      swap1\n      pop\n        /* \"#utility.yul\":11526:12539   */\n    tag_324:\n      swap4\n      swap3\n      pop\n      pop\n      pop\n      jump\t// out\n        /* \"#utility.yul\":12545:12893   */\n    tag_132:\n      0x00\n        /* \"#utility.yul\":12608:12628   */\n      tag_341\n        /* \"#utility.yul\":12626:12627   */\n      dup3\n        /* \"#utility.yul\":12608:12628   */\n      tag_271\n      jump\t// in\n    tag_341:\n        /* \"#utility.yul\":12603:12628   */\n      swap2\n      pop\n        /* \"#utility.yul\":12642:12662   */\n      tag_342\n        /* \"#utility.yul\":12660:12661   */\n      dup4\n        /* \"#utility.yul\":12642:12662   */\n      tag_271\n      jump\t// in\n    tag_342:\n        /* \"#utility.yul\":12637:12662   */\n      swap3\n      pop\n        /* \"#utility.yul\":12830:12831   */\n      dup2\n        /* \"#utility.yul\":12762:12828   */\n      0xffffffffffffffffffffffffffffffffffffffffffffffffffffffffffffffff\n        /* \"#utility.yul\":12758:12832   */\n      div\n        /* \"#utility.yul\":12755:12756   */\n      dup4\n        /* \"#utility.yul\":12752:12833   */\n      gt\n        /* \"#utility.yul\":12747:12748   */\n      dup3\n        /* \"#utility.yul\":12740:12749   */\n      iszero\n        /* \"#utility.yul\":12733:12750   */\n      iszero\n        /* \"#utility.yul\":12729:12834   */\n      and\n        /* \"#utility.yul\":12726:12728   */\n      iszero\n      tag_343\n      jumpi\n        /* \"#utility.yul\":12837:12855   */\n      tag_344\n      tag_308\n      jump\t// in\n    tag_344:\n        /* \"#utility.yul\":12726:12728   */\n    tag_343:\n        /* \"#utility.yul\":12885:12886   */\n      dup3\n        /* \"#utility.yul\":12882:12883   */\n      dup3\n        /* \"#utility.yul\":12878:12887   */\n      mul\n        /* \"#utility.yul\":12867:12887   */\n      swap1\n      pop\n        /* \"#utility.yul\":12593:12893   */\n      swap3\n      swap2\n      pop\n      pop\n      jump\t// out\n        /* \"#utility.yul\":12899:13090   */\n    tag_114:\n      0x00\n        /* \"#utility.yul\":12959:12979   */\n      tag_346\n        /* \"#utility.yul\":12977:12978   */\n      dup3\n        /* \"#utility.yul\":12959:12979   */\n      tag_271\n      jump\t// in\n    tag_346:\n        /* \"#utility.yul\":12954:12979   */\n      swap2\n      pop\n        /* \"#utility.yul\":12993:13013   */\n      tag_347\n        /* \"#utility.yul\":13011:13012   */\n      dup4\n        /* \"#utility.yul\":12993:13013   */\n      tag_271\n      jump\t// in\n    tag_347:\n        /* \"#utility.yul\":12988:13013   */\n      swap3\n      pop\n        /* \"#utility.yul\":13032:13033   */\n      dup3\n        /* \"#utility.yul\":13029:13030   */\n      dup3\n        /* \"#utility.yul\":13026:13034   */\n      lt\n        /* \"#utility.yul\":13023:13025   */\n      iszero\n      tag_348\n      jumpi\n        /* \"#utility.yul\":13037:13055   */\n      tag_349\n      tag_308\n      jump\t// in\n    tag_349:\n        /* \"#utility.yul\":13023:13025   */\n    tag_348:\n        /* \"#utility.yul\":13082:13083   */\n      dup3\n        /* \"#utility.yul\":13079:13080   */\n      dup3\n        /* \"#utility.yul\":13075:13084   */\n      sub\n        /* \"#utility.yul\":13067:13084   */\n      swap1\n      pop\n        /* \"#utility.yul\":12944:13090   */\n      swap3\n      swap2\n      pop\n      pop\n      jump\t// out\n        /* \"#utility.yul\":13096:13192   */\n    tag_227:\n      0x00\n        /* \"#utility.yul\":13162:13186   */\n      tag_351\n        /* \"#utility.yul\":13180:13185   */\n      dup3\n        /* \"#utility.yul\":13162:13186   */\n      tag_352\n      jump\t// in\n    tag_351:\n        /* \"#utility.yul\":13151:13186   */\n      swap1\n      pop\n        /* \"#utility.yul\":13141:13192   */\n      swap2\n      swap1\n      pop\n      jump\t// out\n        /* \"#utility.yul\":13198:13324   */\n    tag_352:\n      0x00\n        /* \"#utility.yul\":13275:13317   */\n      0xffffffffffffffffffffffffffffffffffffffff\n        /* \"#utility.yul\":13268:13273   */\n      dup3\n        /* \"#utility.yul\":13264:13318   */\n      and\n        /* \"#utility.yul\":13253:13318   */\n      swap1\n      pop\n        /* \"#utility.yul\":13243:13324   */\n      swap2\n      swap1\n      pop\n      jump\t// out\n        /* \"#utility.yul\":13330:13407   */\n    tag_271:\n      0x00\n        /* \"#utility.yul\":13396:13401   */\n      dup2\n        /* \"#utility.yul\":13385:13401   */\n      swap1\n      pop\n        /* \"#utility.yul\":13375:13407   */\n      swap2\n      swap1\n      pop\n      jump\t// out\n        /* \"#utility.yul\":13413:13567   */\n    tag_192:\n        /* \"#utility.yul\":13497:13503   */\n      dup3\n        /* \"#utility.yul\":13492:13495   */\n      dup2\n        /* \"#utility.yul\":13487:13490   */\n      dup4\n        /* \"#utility.yul\":13474:13504   */\n      calldatacopy\n        /* \"#utility.yul\":13559:13560   */\n      0x00\n        /* \"#utility.yul\":13550:13556   */\n      dup4\n        /* \"#utility.yul\":13545:13548   */\n      dup4\n        /* \"#utility.yul\":13541:13557   */\n      add\n        /* \"#utility.yul\":13534:13561   */\n      mstore\n        /* \"#utility.yul\":13464:13567   */\n      pop\n      pop\n      pop\n      jump\t// out\n        /* \"#utility.yul\":13573:13880   */\n    tag_251:\n        /* \"#utility.yul\":13641:13642   */\n      0x00\n        /* \"#utility.yul\":13651:13764   */\n    tag_357:\n        /* \"#utility.yul\":13665:13671   */\n      dup4\n        /* \"#utility.yul\":13662:13663   */\n      dup2\n        /* \"#utility.yul\":13659:13672   */\n      lt\n        /* \"#utility.yul\":13651:13764   */\n      iszero\n      tag_359\n      jumpi\n        /* \"#utility.yul\":13750:13751   */\n      dup1\n        /* \"#utility.yul\":13745:13748   */\n      dup3\n        /* \"#utility.yul\":13741:13752   */\n      add\n        /* \"#utility.yul\":13735:13753   */\n      mload\n        /* \"#utility.yul\":13731:13732   */\n      dup2\n        /* \"#utility.yul\":13726:13729   */\n      dup5\n        /* \"#utility.yul\":13722:13733   */\n      add\n        /* \"#utility.yul\":13715:13754   */\n      mstore\n        /* \"#utility.yul\":13687:13689   */\n      0x20\n        /* \"#utility.yul\":13684:13685   */\n      dup2\n        /* \"#utility.yul\":13680:13690   */\n      add\n        /* \"#utility.yul\":13675:13690   */\n      swap1\n      pop\n        /* \"#utility.yul\":13651:13764   */\n      jump(tag_357)\n    tag_359:\n        /* \"#utility.yul\":13782:13788   */\n      dup4\n        /* \"#utility.yul\":13779:13780   */\n      dup2\n        /* \"#utility.yul\":13776:13789   */\n      gt\n        /* \"#utility.yul\":13773:13775   */\n      iszero\n      tag_360\n      jumpi\n        /* \"#utility.yul\":13862:13863   */\n      0x00\n        /* \"#utility.yul\":13853:13859   */\n      dup5\n        /* \"#utility.yul\":13848:13851   */\n      dup5\n        /* \"#utility.yul\":13844:13860   */\n      add\n        /* \"#utility.yul\":13837:13864   */\n      mstore\n        /* \"#utility.yul\":13773:13775   */\n    tag_360:\n        /* \"#utility.yul\":13622:13880   */\n      pop\n      pop\n      pop\n      pop\n      jump\t// out\n        /* \"#utility.yul\":13886:14206   */\n    tag_44:\n      0x00\n        /* \"#utility.yul\":13967:13968   */\n      0x02\n        /* \"#utility.yul\":13961:13965   */\n      dup3\n        /* \"#utility.yul\":13957:13969   */\n      div\n        /* \"#utility.yul\":13947:13969   */\n      swap1\n      pop\n        /* \"#utility.yul\":14014:14015   */\n      0x01\n        /* \"#utility.yul\":14008:14012   */\n      dup3\n        /* \"#utility.yul\":14004:14016   */\n      and\n        /* \"#utility.yul\":14035:14053   */\n      dup1\n        /* \"#utility.yul\":14025:14027   */\n      tag_362\n      jumpi\n        /* \"#utility.yul\":14091:14095   */\n      0x7f\n        /* \"#utility.yul\":14083:14089   */\n      dup3\n        /* \"#utility.yul\":14079:14096   */\n      and\n        /* \"#utility.yul\":14069:14096   */\n      swap2\n      pop\n        /* \"#utility.yul\":14025:14027   */\n    tag_362:\n        /* \"#utility.yul\":14153:14155   */\n      0x20\n        /* \"#utility.yul\":14145:14151   */\n      dup3\n        /* \"#utility.yul\":14142:14156   */\n      lt\n        /* \"#utility.yul\":14122:14140   */\n      dup2\n        /* \"#utility.yul\":14119:14157   */\n      eq\n        /* \"#utility.yul\":14116:14118   */\n      iszero\n      tag_363\n      jumpi\n        /* \"#utility.yul\":14172:14190   */\n      tag_364\n      tag_365\n      jump\t// in\n    tag_364:\n        /* \"#utility.yul\":14116:14118   */\n    tag_363:\n        /* \"#utility.yul\":13937:14206   */\n      pop\n      swap2\n      swap1\n      pop\n      jump\t// out\n        /* \"#utility.yul\":14212:14445   */\n    tag_73:\n      0x00\n        /* \"#utility.yul\":14274:14298   */\n      tag_367\n        /* \"#utility.yul\":14292:14297   */\n      dup3\n        /* \"#utility.yul\":14274:14298   */\n      tag_271\n      jump\t// in\n    tag_367:\n        /* \"#utility.yul\":14265:14298   */\n      swap2\n      pop\n        /* \"#utility.yul\":14320:14386   */\n      0xffffffffffffffffffffffffffffffffffffffffffffffffffffffffffffffff\n        /* \"#utility.yul\":14313:14318   */\n      dup3\n        /* \"#utility.yul\":14310:14387   */\n      eq\n        /* \"#utility.yul\":14307:14309   */\n      iszero\n      tag_368\n      jumpi\n        /* \"#utility.yul\":14390:14408   */\n      tag_369\n      tag_308\n      jump\t// in\n    tag_369:\n        /* \"#utility.yul\":14307:14309   */\n    tag_368:\n        /* \"#utility.yul\":14437:14438   */\n      0x01\n        /* \"#utility.yul\":14430:14435   */\n      dup3\n        /* \"#utility.yul\":14426:14439   */\n      add\n        /* \"#utility.yul\":14419:14439   */\n      swap1\n      pop\n        /* \"#utility.yul\":14255:14445   */\n      swap2\n      swap1\n      pop\n      jump\t// out\n        /* \"#utility.yul\":14451:14631   */\n    tag_308:\n        /* \"#utility.yul\":14499:14576   */\n      0x4e487b7100000000000000000000000000000000000000000000000000000000\n        /* \"#utility.yul\":14496:14497   */\n      0x00\n        /* \"#utility.yul\":14489:14577   */\n      mstore\n        /* \"#utility.yul\":14596:14600   */\n      0x11\n        /* \"#utility.yul\":14593:14594   */\n      0x04\n        /* \"#utility.yul\":14586:14601   */\n      mstore\n        /* \"#utility.yul\":14620:14624   */\n      0x24\n        /* \"#utility.yul\":14617:14618   */\n      0x00\n        /* \"#utility.yul\":14610:14625   */\n      revert\n        /* \"#utility.yul\":14637:14817   */\n    tag_365:\n        /* \"#utility.yul\":14685:14762   */\n      0x4e487b7100000000000000000000000000000000000000000000000000000000\n        /* \"#utility.yul\":14682:14683   */\n      0x00\n        /* \"#utility.yul\":14675:14763   */\n      mstore\n        /* \"#utility.yul\":14782:14786   */\n      0x22\n        /* \"#utility.yul\":14779:14780   */\n      0x04\n        /* \"#utility.yul\":14772:14787   */\n      mstore\n        /* \"#utility.yul\":14806:14810   */\n      0x24\n        /* \"#utility.yul\":14803:14804   */\n      0x00\n        /* \"#utility.yul\":14796:14811   */\n      revert\n        /* \"#utility.yul\":14823:15003   */\n    tag_292:\n        /* \"#utility.yul\":14871:14948   */\n      0x4e487b7100000000000000000000000000000000000000000000000000000000\n        /* \"#utility.yul\":14868:14869   */\n      0x00\n        /* \"#utility.yul\":14861:14949   */\n      mstore\n        /* \"#utility.yul\":14968:14972   */\n      0x41\n        /* \"#utility.yul\":14965:14966   */\n      0x04\n        /* \"#utility.yul\":14958:14973   */\n      mstore\n        /* \"#utility.yul\":14992:14996   */\n      0x24\n        /* \"#utility.yul\":14989:14990   */\n      0x00\n        /* \"#utility.yul\":14982:14997   */\n      revert\n        /* \"#utility.yul\":15009:15111   */\n    tag_253:\n      0x00\n        /* \"#utility.yul\":15101:15103   */\n      0x1f\n        /* \"#utility.yul\":15097:15104   */\n      not\n        /* \"#utility.yul\":15092:15094   */\n      0x1f\n        /* \"#utility.yul\":15085:15090   */\n      dup4\n        /* \"#utility.yul\":15081:15095   */\n      add\n        /* \"#utility.yul\":15077:15105   */\n      and\n        /* \"#utility.yul\":15067:15105   */\n      swap1\n      pop\n        /* \"#utility.yul\":15057:15111   */\n      swap2\n      swap1\n      pop\n      jump\t// out\n        /* \"#utility.yul\":15117:15219   */\n    tag_318:\n      0x00\n        /* \"#utility.yul\":15206:15211   */\n      dup2\n        /* \"#utility.yul\":15203:15204   */\n      0x01\n        /* \"#utility.yul\":15199:15212   */\n      shr\n        /* \"#utility.yul\":15178:15212   */\n      swap1\n      pop\n        /* \"#utility.yul\":15168:15219   */\n      swap2\n      swap1\n      pop\n      jump\t// out\n        /* \"#utility.yul\":15225:15347   */\n    tag_196:\n        /* \"#utility.yul\":15298:15322   */\n      tag_376\n        /* \"#utility.yul\":15316:15321   */\n      dup2\n        /* \"#utility.yul\":15298:15322   */\n      tag_227\n      jump\t// in\n    tag_376:\n        /* \"#utility.yul\":15291:15296   */\n      dup2\n        /* \"#utility.yul\":15288:15323   */\n      eq\n        /* \"#utility.yul\":15278:15280   */\n      tag_377\n      jumpi\n        /* \"#utility.yul\":15337:15338   */\n      0x00\n        /* \"#utility.yul\":15334:15335   */\n      dup1\n        /* \"#utility.yul\":15327:15339   */\n      revert\n        /* \"#utility.yul\":15278:15280   */\n    tag_377:\n        /* \"#utility.yul\":15268:15347   */\n      pop\n      jump\t// out\n        /* \"#utility.yul\":15353:15475   */\n    tag_204:\n        /* \"#utility.yul\":15426:15450   */\n      tag_379\n        /* \"#utility.yul\":15444:15449   */\n      dup2\n        /* \"#utility.yul\":15426:15450   */\n      tag_271\n      jump\t// in\n    tag_379:\n        /* \"#utility.yul\":15419:15424   */\n      dup2\n        /* \"#utility.yul\":15416:15451   */\n      eq\n        /* \"#utility.yul\":15406:15408   */\n      tag_380\n      jumpi\n        /* \"#utility.yul\":15465:15466   */\n      0x00\n        /* \"#utility.yul\":15462:15463   */\n      dup1\n        /* \"#utility.yul\":15455:15467   */\n      revert\n        /* \"#utility.yul\":15406:15408   */\n    tag_380:\n        /* \"#utility.yul\":15396:15475   */\n      pop\n      jump\t// out\n\n    auxdata: 0xa26469706673582212201782877a32951921df95f76d2fb0efbe6ccfc22dc5e83a7fd14f449ae785932a64736f6c63430008000033\n}\n",
				"bytecode": {
					"linkReferences": {},
					"object": "60806040523480156200001157600080fd5b5060006001819055506200007a60018073b5dea2661dfa4b8f0aae8bc1f583369d927c3b0660036040518060400160405280600b81526020017f6f70312d6f70322d6f70330000000000000000000000000000000000000000008152506200008060201b60201c565b62000315565b6040518060a001604052808681526020018581526020018473ffffffffffffffffffffffffffffffffffffffff168152602001838152602001828152506000806001548152602001908152602001600020600082015181600001556020820151816001015560408201518160020160006101000a81548173ffffffffffffffffffffffffffffffffffffffff021916908373ffffffffffffffffffffffffffffffffffffffff1602179055506060820151816003015560808201518160040190805190602001906200015492919062000179565b50905050600160008154809291906200016d9062000269565b91905055505050505050565b828054620001879062000233565b90600052602060002090601f016020900481019282620001ab5760008555620001f7565b82601f10620001c657805160ff1916838001178555620001f7565b82800160010185558215620001f7579182015b82811115620001f6578251825591602001919060010190620001d9565b5b5090506200020691906200020a565b5090565b5b80821115620002255760008160009055506001016200020b565b5090565b6000819050919050565b600060028204905060018216806200024c57607f821691505b60208210811415620002635762000262620002e6565b5b50919050565b6000620002768262000229565b91507fffffffffffffffffffffffffffffffffffffffffffffffffffffffffffffffff821415620002ac57620002ab620002b7565b5b600182019050919050565b7f4e487b7100000000000000000000000000000000000000000000000000000000600052601160045260246000fd5b7f4e487b7100000000000000000000000000000000000000000000000000000000600052602260045260246000fd5b61168c80620003256000396000f3fe608060405234801561001057600080fd5b506004361061007d5760003560e01c8063b723a32c1161005b578063b723a32c146100ee578063cc2ee1961461011e578063da35c6641461013c578063e9d6c6da1461015a5761007d565b8063013cf08b1461008257806396caabb8146100b6578063acddf707146100d2575b600080fd5b61009c60048036038101906100979190610e28565b61018a565b6040516100ad95949392919061110e565b60405180910390f35b6100d060048036038101906100cb9190610de7565b610268565b005b6100ec60048036038101906100e79190610e51565b61044e565b005b61010860048036038101906101039190610e28565b610543565b60405161011591906110af565b60405180910390f35b6101266105ef565b604051610133919061108d565b60405180910390f35b6101446106c8565b60405161015191906110f3565b60405180910390f35b610174600480360381019061016f9190610e28565b6106ce565b60405161018191906110d1565b60405180910390f35b60006020528060005260406000206000915090508060000154908060010154908060020160009054906101000a900473ffffffffffffffffffffffffffffffffffffffff16908060030154908060040180546101e590611502565b80601f016020809104026020016040519081016040528092919081815260200182805461021190611502565b801561025e5780601f106102335761010080835404028352916020019161025e565b820191906000526020600020905b81548152906001019060200180831161024157829003601f168201915b5050505050905085565b600061027382610800565b905060006102b56040518060400160405280600181526020017f2d00000000000000000000000000000000000000000000000000000000000000815250610800565b9050600060016102ce838561082e90919063ffffffff16565b6102d8919061122f565b67ffffffffffffffff811115610317577f4e487b7100000000000000000000000000000000000000000000000000000000600052604160045260246000fd5b60405190808252806020026020018201604052801561034a57816020015b60608152602001906001900390816103355790505b50905060005b81518110156104475761037461036f84866108d690919063ffffffff16565b6108f0565b8282815181106103ad577f4e487b7100000000000000000000000000000000000000000000000000000000600052603260045260246000fd5b602002602001018190525060028282815181106103f3577f4e487b7100000000000000000000000000000000000000000000000000000000600052603260045260246000fd5b6020026020010151908060018154018082558091505060019003906000526020600020016000909190919091509080519060200190610433929190610c53565b50808061043f90611534565b915050610350565b5050505050565b6040518060a001604052808681526020018581526020018473ffffffffffffffffffffffffffffffffffffffff168152602001838152602001828152506000806001548152602001908152602001600020600082015181600001556020820151816001015560408201518160020160006101000a81548173ffffffffffffffffffffffffffffffffffffffff021916908373ffffffffffffffffffffffffffffffffffffffff160217905550606082015181600301556080820151816004019080519060200190610520929190610c53565b509050506001600081548092919061053790611534565b91905055505050505050565b6002818154811061055357600080fd5b90600052602060002001600091509050805461056e90611502565b80601f016020809104026020016040519081016040528092919081815260200182805461059a90611502565b80156105e75780601f106105bc576101008083540402835291602001916105e7565b820191906000526020600020905b8154815290600101906020018083116105ca57829003601f168201915b505050505081565b60606002805480602002602001604051908101604052809291908181526020016000905b828210156106bf57838290600052602060002001805461063290611502565b80601f016020809104026020016040519081016040528092919081815260200182805461065e90611502565b80156106ab5780601f10610680576101008083540402835291602001916106ab565b820191906000526020600020905b81548152906001019060200180831161068e57829003601f168201915b505050505081526020019060010190610613565b50505050905090565b60015481565b6106d6610cd9565b6000808381526020019081526020016000206040518060a001604052908160008201548152602001600182015481526020016002820160009054906101000a900473ffffffffffffffffffffffffffffffffffffffff1673ffffffffffffffffffffffffffffffffffffffff1673ffffffffffffffffffffffffffffffffffffffff1681526020016003820154815260200160048201805461077790611502565b80601f01602080910402602001604051908101604052809291908181526020018280546107a390611502565b80156107f05780601f106107c5576101008083540402835291602001916107f0565b820191906000526020600020905b8154815290600101906020018083116107d357829003601f168201915b5050505050815250509050919050565b610808610d1e565b600060208301905060405180604001604052808451815260200182815250915050919050565b60008082600001516108528560000151866020015186600001518760200151610992565b61085c919061122f565b90505b83600001518460200151610873919061122f565b81116108cf57818061088490611534565b92505082600001516108be85602001518361089f9190611450565b86600001516108ae9190611450565b8386600001518760200151610992565b6108c8919061122f565b905061085f565b5092915050565b6108de610d1e565b6108e9838383610adc565b5092915050565b60606000826000015167ffffffffffffffff811115610938577f4e487b7100000000000000000000000000000000000000000000000000000000600052604160045260246000fd5b6040519080825280601f01601f19166020018201604052801561096a5781602001600182028036833780820191505090505b50905060006020820190506109888185602001518660000151610ba7565b8192505050919050565b6000808490506000868511610ac35760208511610a65576000808611156109eb5760018660206109c29190611450565b60086109ce91906113f6565b60026109da91906112d8565b6109e49190611450565b1960001b90505b60008186511690506000878a8a610a02919061122f565b610a0c9190611450565b905060008386511690505b828114610a5757818610610a3e578a8a610a31919061122f565b9650505050505050610ad4565b8580610a4990611534565b965050838651169050610a17565b859650505050505050610ad4565b60008585209050600091505b8588610a7d9190611450565b8211610ac1576000868420905080821415610a9e5783945050505050610ad4565b600184610aab919061122f565b9350508180610ab990611534565b925050610a71565b505b8686610acf919061122f565b925050505b949350505050565b610ae4610d1e565b6000610b028560000151866020015186600001518760200151610992565b90508460200151836020018181525050846020015181610b229190611450565b83600001818152505084600001518560200151610b3f919061122f565b811415610b56576000856000018181525050610b9c565b83600001518360000151610b6a919061122f565b85600001818151610b7b9190611450565b91508181525050836000015181610b92919061122f565b8560200181815250505b829150509392505050565b5b60208110610be65781518352602083610bc1919061122f565b9250602082610bd0919061122f565b9150602081610bdf9190611450565b9050610ba8565b60007fffffffffffffffffffffffffffffffffffffffffffffffffffffffffffffffff90506000821115610c3d576001826020610c239190611450565b610100610c3091906112d8565b610c3a9190611450565b90505b8019835116818551168181178652505050505050565b828054610c5f90611502565b90600052602060002090601f016020900481019282610c815760008555610cc8565b82601f10610c9a57805160ff1916838001178555610cc8565b82800160010185558215610cc8579182015b82811115610cc7578251825591602001919060010190610cac565b5b509050610cd59190610d38565b5090565b6040518060a001604052806000815260200160008152602001600073ffffffffffffffffffffffffffffffffffffffff16815260200160008152602001606081525090565b604051806040016040528060008152602001600081525090565b5b80821115610d51576000816000905550600101610d39565b5090565b6000610d68610d6384611199565b611168565b905082815260208101848484011115610d8057600080fd5b610d8b8482856114c0565b509392505050565b600081359050610da281611628565b92915050565b600082601f830112610db957600080fd5b8135610dc9848260208601610d55565b91505092915050565b600081359050610de18161163f565b92915050565b600060208284031215610df957600080fd5b600082013567ffffffffffffffff811115610e1357600080fd5b610e1f84828501610da8565b91505092915050565b600060208284031215610e3a57600080fd5b6000610e4884828501610dd2565b91505092915050565b600080600080600060a08688031215610e6957600080fd5b6000610e7788828901610dd2565b9550506020610e8888828901610dd2565b9450506040610e9988828901610d93565b9350506060610eaa88828901610dd2565b925050608086013567ffffffffffffffff811115610ec757600080fd5b610ed388828901610da8565b9150509295509295909350565b6000610eec8383610f87565b905092915050565b610efd81611484565b82525050565b610f0c81611484565b82525050565b6000610f1d826111d9565b610f2781856111fc565b935083602082028501610f39856111c9565b8060005b85811015610f755784840389528151610f568582610ee0565b9450610f61836111ef565b925060208a01995050600181019050610f3d565b50829750879550505050505092915050565b6000610f92826111e4565b610f9c818561120d565b9350610fac8185602086016114cf565b610fb58161160a565b840191505092915050565b6000610fcb826111e4565b610fd5818561121e565b9350610fe58185602086016114cf565b610fee8161160a565b840191505092915050565b600060a083016000830151611011600086018261106f565b506020830151611024602086018261106f565b5060408301516110376040860182610ef4565b50606083015161104a606086018261106f565b50608083015184820360808601526110628282610f87565b9150508091505092915050565b611078816114b6565b82525050565b611087816114b6565b82525050565b600060208201905081810360008301526110a78184610f12565b905092915050565b600060208201905081810360008301526110c98184610fc0565b905092915050565b600060208201905081810360008301526110eb8184610ff9565b905092915050565b6000602082019050611108600083018461107e565b92915050565b600060a082019050611123600083018861107e565b611130602083018761107e565b61113d6040830186610f03565b61114a606083018561107e565b818103608083015261115c8184610fc0565b90509695505050505050565b6000604051905081810181811067ffffffffffffffff8211171561118f5761118e6115db565b5b8060405250919050565b600067ffffffffffffffff8211156111b4576111b36115db565b5b601f19601f8301169050602081019050919050565b6000819050602082019050919050565b600081519050919050565b600081519050919050565b6000602082019050919050565b600082825260208201905092915050565b600082825260208201905092915050565b600082825260208201905092915050565b600061123a826114b6565b9150611245836114b6565b9250827fffffffffffffffffffffffffffffffffffffffffffffffffffffffffffffffff0382111561127a5761127961157d565b5b828201905092915050565b6000808291508390505b60018511156112cf578086048111156112ab576112aa61157d565b5b60018516156112ba5780820291505b80810290506112c88561161b565b945061128f565b94509492505050565b60006112e3826114b6565b91506112ee836114b6565b925061131b7fffffffffffffffffffffffffffffffffffffffffffffffffffffffffffffffff8484611323565b905092915050565b60008261133357600190506113ef565b8161134157600090506113ef565b8160018114611357576002811461136157611390565b60019150506113ef565b60ff8411156113735761137261157d565b5b8360020a91508482111561138a5761138961157d565b5b506113ef565b5060208310610133831016604e8410600b84101617156113c55782820a9050838111156113c0576113bf61157d565b5b6113ef565b6113d28484846001611285565b925090508184048111156113e9576113e861157d565b5b81810290505b9392505050565b6000611401826114b6565b915061140c836114b6565b9250817fffffffffffffffffffffffffffffffffffffffffffffffffffffffffffffffff04831182151516156114455761144461157d565b5b828202905092915050565b600061145b826114b6565b9150611466836114b6565b9250828210156114795761147861157d565b5b828203905092915050565b600061148f82611496565b9050919050565b600073ffffffffffffffffffffffffffffffffffffffff82169050919050565b6000819050919050565b82818337600083830152505050565b60005b838110156114ed5780820151818401526020810190506114d2565b838111156114fc576000848401525b50505050565b6000600282049050600182168061151a57607f821691505b6020821081141561152e5761152d6115ac565b5b50919050565b600061153f826114b6565b91507fffffffffffffffffffffffffffffffffffffffffffffffffffffffffffffffff8214156115725761157161157d565b5b600182019050919050565b7f4e487b7100000000000000000000000000000000000000000000000000000000600052601160045260246000fd5b7f4e487b7100000000000000000000000000000000000000000000000000000000600052602260045260246000fd5b7f4e487b7100000000000000000000000000000000000000000000000000000000600052604160045260246000fd5b6000601f19601f8301169050919050565b60008160011c9050919050565b61163181611484565b811461163c57600080fd5b50565b611648816114b6565b811461165357600080fd5b5056fea26469706673582212201782877a32951921df95f76d2fb0efbe6ccfc22dc5e83a7fd14f449ae785932a64736f6c63430008000033",
					"opcodes": "PUSH1 0x80 PUSH1 0x40 MSTORE CALLVALUE DUP1 ISZERO PUSH3 0x11 JUMPI PUSH1 0x0 DUP1 REVERT JUMPDEST POP PUSH1 0x0 PUSH1 0x1 DUP2 SWAP1 SSTORE POP PUSH3 0x7A PUSH1 0x1 DUP1 PUSH20 0xB5DEA2661DFA4B8F0AAE8BC1F583369D927C3B06 PUSH1 0x3 PUSH1 0x40 MLOAD DUP1 PUSH1 0x40 ADD PUSH1 0x40 MSTORE DUP1 PUSH1 0xB DUP2 MSTORE PUSH1 0x20 ADD PUSH32 0x6F70312D6F70322D6F7033000000000000000000000000000000000000000000 DUP2 MSTORE POP PUSH3 0x80 PUSH1 0x20 SHL PUSH1 0x20 SHR JUMP JUMPDEST PUSH3 0x315 JUMP JUMPDEST PUSH1 0x40 MLOAD DUP1 PUSH1 0xA0 ADD PUSH1 0x40 MSTORE DUP1 DUP7 DUP2 MSTORE PUSH1 0x20 ADD DUP6 DUP2 MSTORE PUSH1 0x20 ADD DUP5 PUSH20 0xFFFFFFFFFFFFFFFFFFFFFFFFFFFFFFFFFFFFFFFF AND DUP2 MSTORE PUSH1 0x20 ADD DUP4 DUP2 MSTORE PUSH1 0x20 ADD DUP3 DUP2 MSTORE POP PUSH1 0x0 DUP1 PUSH1 0x1 SLOAD DUP2 MSTORE PUSH1 0x20 ADD SWAP1 DUP2 MSTORE PUSH1 0x20 ADD PUSH1 0x0 KECCAK256 PUSH1 0x0 DUP3 ADD MLOAD DUP2 PUSH1 0x0 ADD SSTORE PUSH1 0x20 DUP3 ADD MLOAD DUP2 PUSH1 0x1 ADD SSTORE PUSH1 0x40 DUP3 ADD MLOAD DUP2 PUSH1 0x2 ADD PUSH1 0x0 PUSH2 0x100 EXP DUP2 SLOAD DUP2 PUSH20 0xFFFFFFFFFFFFFFFFFFFFFFFFFFFFFFFFFFFFFFFF MUL NOT AND SWAP1 DUP4 PUSH20 0xFFFFFFFFFFFFFFFFFFFFFFFFFFFFFFFFFFFFFFFF AND MUL OR SWAP1 SSTORE POP PUSH1 0x60 DUP3 ADD MLOAD DUP2 PUSH1 0x3 ADD SSTORE PUSH1 0x80 DUP3 ADD MLOAD DUP2 PUSH1 0x4 ADD SWAP1 DUP1 MLOAD SWAP1 PUSH1 0x20 ADD SWAP1 PUSH3 0x154 SWAP3 SWAP2 SWAP1 PUSH3 0x179 JUMP JUMPDEST POP SWAP1 POP POP PUSH1 0x1 PUSH1 0x0 DUP2 SLOAD DUP1 SWAP3 SWAP2 SWAP1 PUSH3 0x16D SWAP1 PUSH3 0x269 JUMP JUMPDEST SWAP2 SWAP1 POP SSTORE POP POP POP POP POP POP JUMP JUMPDEST DUP3 DUP1 SLOAD PUSH3 0x187 SWAP1 PUSH3 0x233 JUMP JUMPDEST SWAP1 PUSH1 0x0 MSTORE PUSH1 0x20 PUSH1 0x0 KECCAK256 SWAP1 PUSH1 0x1F ADD PUSH1 0x20 SWAP1 DIV DUP2 ADD SWAP3 DUP3 PUSH3 0x1AB JUMPI PUSH1 0x0 DUP6 SSTORE PUSH3 0x1F7 JUMP JUMPDEST DUP3 PUSH1 0x1F LT PUSH3 0x1C6 JUMPI DUP1 MLOAD PUSH1 0xFF NOT AND DUP4 DUP1 ADD OR DUP6 SSTORE PUSH3 0x1F7 JUMP JUMPDEST DUP3 DUP1 ADD PUSH1 0x1 ADD DUP6 SSTORE DUP3 ISZERO PUSH3 0x1F7 JUMPI SWAP2 DUP3 ADD JUMPDEST DUP3 DUP2 GT ISZERO PUSH3 0x1F6 JUMPI DUP3 MLOAD DUP3 SSTORE SWAP2 PUSH1 0x20 ADD SWAP2 SWAP1 PUSH1 0x1 ADD SWAP1 PUSH3 0x1D9 JUMP JUMPDEST JUMPDEST POP SWAP1 POP PUSH3 0x206 SWAP2 SWAP1 PUSH3 0x20A JUMP JUMPDEST POP SWAP1 JUMP JUMPDEST JUMPDEST DUP1 DUP3 GT ISZERO PUSH3 0x225 JUMPI PUSH1 0x0 DUP2 PUSH1 0x0 SWAP1 SSTORE POP PUSH1 0x1 ADD PUSH3 0x20B JUMP JUMPDEST POP SWAP1 JUMP JUMPDEST PUSH1 0x0 DUP2 SWAP1 POP SWAP2 SWAP1 POP JUMP JUMPDEST PUSH1 0x0 PUSH1 0x2 DUP3 DIV SWAP1 POP PUSH1 0x1 DUP3 AND DUP1 PUSH3 0x24C JUMPI PUSH1 0x7F DUP3 AND SWAP2 POP JUMPDEST PUSH1 0x20 DUP3 LT DUP2 EQ ISZERO PUSH3 0x263 JUMPI PUSH3 0x262 PUSH3 0x2E6 JUMP JUMPDEST JUMPDEST POP SWAP2 SWAP1 POP JUMP JUMPDEST PUSH1 0x0 PUSH3 0x276 DUP3 PUSH3 0x229 JUMP JUMPDEST SWAP2 POP PUSH32 0xFFFFFFFFFFFFFFFFFFFFFFFFFFFFFFFFFFFFFFFFFFFFFFFFFFFFFFFFFFFFFFFF DUP3 EQ ISZERO PUSH3 0x2AC JUMPI PUSH3 0x2AB PUSH3 0x2B7 JUMP JUMPDEST JUMPDEST PUSH1 0x1 DUP3 ADD SWAP1 POP SWAP2 SWAP1 POP JUMP JUMPDEST PUSH32 0x4E487B7100000000000000000000000000000000000000000000000000000000 PUSH1 0x0 MSTORE PUSH1 0x11 PUSH1 0x4 MSTORE PUSH1 0x24 PUSH1 0x0 REVERT JUMPDEST PUSH32 0x4E487B7100000000000000000000000000000000000000000000000000000000 PUSH1 0x0 MSTORE PUSH1 0x22 PUSH1 0x4 MSTORE PUSH1 0x24 PUSH1 0x0 REVERT JUMPDEST PUSH2 0x168C DUP1 PUSH3 0x325 PUSH1 0x0 CODECOPY PUSH1 0x0 RETURN INVALID PUSH1 0x80 PUSH1 0x40 MSTORE CALLVALUE DUP1 ISZERO PUSH2 0x10 JUMPI PUSH1 0x0 DUP1 REVERT JUMPDEST POP PUSH1 0x4 CALLDATASIZE LT PUSH2 0x7D JUMPI PUSH1 0x0 CALLDATALOAD PUSH1 0xE0 SHR DUP1 PUSH4 0xB723A32C GT PUSH2 0x5B JUMPI DUP1 PUSH4 0xB723A32C EQ PUSH2 0xEE JUMPI DUP1 PUSH4 0xCC2EE196 EQ PUSH2 0x11E JUMPI DUP1 PUSH4 0xDA35C664 EQ PUSH2 0x13C JUMPI DUP1 PUSH4 0xE9D6C6DA EQ PUSH2 0x15A JUMPI PUSH2 0x7D JUMP JUMPDEST DUP1 PUSH4 0x13CF08B EQ PUSH2 0x82 JUMPI DUP1 PUSH4 0x96CAABB8 EQ PUSH2 0xB6 JUMPI DUP1 PUSH4 0xACDDF707 EQ PUSH2 0xD2 JUMPI JUMPDEST PUSH1 0x0 DUP1 REVERT JUMPDEST PUSH2 0x9C PUSH1 0x4 DUP1 CALLDATASIZE SUB DUP2 ADD SWAP1 PUSH2 0x97 SWAP2 SWAP1 PUSH2 0xE28 JUMP JUMPDEST PUSH2 0x18A JUMP JUMPDEST PUSH1 0x40 MLOAD PUSH2 0xAD SWAP6 SWAP5 SWAP4 SWAP3 SWAP2 SWAP1 PUSH2 0x110E JUMP JUMPDEST PUSH1 0x40 MLOAD DUP1 SWAP2 SUB SWAP1 RETURN JUMPDEST PUSH2 0xD0 PUSH1 0x4 DUP1 CALLDATASIZE SUB DUP2 ADD SWAP1 PUSH2 0xCB SWAP2 SWAP1 PUSH2 0xDE7 JUMP JUMPDEST PUSH2 0x268 JUMP JUMPDEST STOP JUMPDEST PUSH2 0xEC PUSH1 0x4 DUP1 CALLDATASIZE SUB DUP2 ADD SWAP1 PUSH2 0xE7 SWAP2 SWAP1 PUSH2 0xE51 JUMP JUMPDEST PUSH2 0x44E JUMP JUMPDEST STOP JUMPDEST PUSH2 0x108 PUSH1 0x4 DUP1 CALLDATASIZE SUB DUP2 ADD SWAP1 PUSH2 0x103 SWAP2 SWAP1 PUSH2 0xE28 JUMP JUMPDEST PUSH2 0x543 JUMP JUMPDEST PUSH1 0x40 MLOAD PUSH2 0x115 SWAP2 SWAP1 PUSH2 0x10AF JUMP JUMPDEST PUSH1 0x40 MLOAD DUP1 SWAP2 SUB SWAP1 RETURN JUMPDEST PUSH2 0x126 PUSH2 0x5EF JUMP JUMPDEST PUSH1 0x40 MLOAD PUSH2 0x133 SWAP2 SWAP1 PUSH2 0x108D JUMP JUMPDEST PUSH1 0x40 MLOAD DUP1 SWAP2 SUB SWAP1 RETURN JUMPDEST PUSH2 0x144 PUSH2 0x6C8 JUMP JUMPDEST PUSH1 0x40 MLOAD PUSH2 0x151 SWAP2 SWAP1 PUSH2 0x10F3 JUMP JUMPDEST PUSH1 0x40 MLOAD DUP1 SWAP2 SUB SWAP1 RETURN JUMPDEST PUSH2 0x174 PUSH1 0x4 DUP1 CALLDATASIZE SUB DUP2 ADD SWAP1 PUSH2 0x16F SWAP2 SWAP1 PUSH2 0xE28 JUMP JUMPDEST PUSH2 0x6CE JUMP JUMPDEST PUSH1 0x40 MLOAD PUSH2 0x181 SWAP2 SWAP1 PUSH2 0x10D1 JUMP JUMPDEST PUSH1 0x40 MLOAD DUP1 SWAP2 SUB SWAP1 RETURN JUMPDEST PUSH1 0x0 PUSH1 0x20 MSTORE DUP1 PUSH1 0x0 MSTORE PUSH1 0x40 PUSH1 0x0 KECCAK256 PUSH1 0x0 SWAP2 POP SWAP1 POP DUP1 PUSH1 0x0 ADD SLOAD SWAP1 DUP1 PUSH1 0x1 ADD SLOAD SWAP1 DUP1 PUSH1 0x2 ADD PUSH1 0x0 SWAP1 SLOAD SWAP1 PUSH2 0x100 EXP SWAP1 DIV PUSH20 0xFFFFFFFFFFFFFFFFFFFFFFFFFFFFFFFFFFFFFFFF AND SWAP1 DUP1 PUSH1 0x3 ADD SLOAD SWAP1 DUP1 PUSH1 0x4 ADD DUP1 SLOAD PUSH2 0x1E5 SWAP1 PUSH2 0x1502 JUMP JUMPDEST DUP1 PUSH1 0x1F ADD PUSH1 0x20 DUP1 SWAP2 DIV MUL PUSH1 0x20 ADD PUSH1 0x40 MLOAD SWAP1 DUP2 ADD PUSH1 0x40 MSTORE DUP1 SWAP3 SWAP2 SWAP1 DUP2 DUP2 MSTORE PUSH1 0x20 ADD DUP3 DUP1 SLOAD PUSH2 0x211 SWAP1 PUSH2 0x1502 JUMP JUMPDEST DUP1 ISZERO PUSH2 0x25E JUMPI DUP1 PUSH1 0x1F LT PUSH2 0x233 JUMPI PUSH2 0x100 DUP1 DUP4 SLOAD DIV MUL DUP4 MSTORE SWAP2 PUSH1 0x20 ADD SWAP2 PUSH2 0x25E JUMP JUMPDEST DUP3 ADD SWAP2 SWAP1 PUSH1 0x0 MSTORE PUSH1 0x20 PUSH1 0x0 KECCAK256 SWAP1 JUMPDEST DUP2 SLOAD DUP2 MSTORE SWAP1 PUSH1 0x1 ADD SWAP1 PUSH1 0x20 ADD DUP1 DUP4 GT PUSH2 0x241 JUMPI DUP3 SWAP1 SUB PUSH1 0x1F AND DUP3 ADD SWAP2 JUMPDEST POP POP POP POP POP SWAP1 POP DUP6 JUMP JUMPDEST PUSH1 0x0 PUSH2 0x273 DUP3 PUSH2 0x800 JUMP JUMPDEST SWAP1 POP PUSH1 0x0 PUSH2 0x2B5 PUSH1 0x40 MLOAD DUP1 PUSH1 0x40 ADD PUSH1 0x40 MSTORE DUP1 PUSH1 0x1 DUP2 MSTORE PUSH1 0x20 ADD PUSH32 0x2D00000000000000000000000000000000000000000000000000000000000000 DUP2 MSTORE POP PUSH2 0x800 JUMP JUMPDEST SWAP1 POP PUSH1 0x0 PUSH1 0x1 PUSH2 0x2CE DUP4 DUP6 PUSH2 0x82E SWAP1 SWAP2 SWAP1 PUSH4 0xFFFFFFFF AND JUMP JUMPDEST PUSH2 0x2D8 SWAP2 SWAP1 PUSH2 0x122F JUMP JUMPDEST PUSH8 0xFFFFFFFFFFFFFFFF DUP2 GT ISZERO PUSH2 0x317 JUMPI PUSH32 0x4E487B7100000000000000000000000000000000000000000000000000000000 PUSH1 0x0 MSTORE PUSH1 0x41 PUSH1 0x4 MSTORE PUSH1 0x24 PUSH1 0x0 REVERT JUMPDEST PUSH1 0x40 MLOAD SWAP1 DUP1 DUP3 MSTORE DUP1 PUSH1 0x20 MUL PUSH1 0x20 ADD DUP3 ADD PUSH1 0x40 MSTORE DUP1 ISZERO PUSH2 0x34A JUMPI DUP2 PUSH1 0x20 ADD JUMPDEST PUSH1 0x60 DUP2 MSTORE PUSH1 0x20 ADD SWAP1 PUSH1 0x1 SWAP1 SUB SWAP1 DUP2 PUSH2 0x335 JUMPI SWAP1 POP JUMPDEST POP SWAP1 POP PUSH1 0x0 JUMPDEST DUP2 MLOAD DUP2 LT ISZERO PUSH2 0x447 JUMPI PUSH2 0x374 PUSH2 0x36F DUP5 DUP7 PUSH2 0x8D6 SWAP1 SWAP2 SWAP1 PUSH4 0xFFFFFFFF AND JUMP JUMPDEST PUSH2 0x8F0 JUMP JUMPDEST DUP3 DUP3 DUP2 MLOAD DUP2 LT PUSH2 0x3AD JUMPI PUSH32 0x4E487B7100000000000000000000000000000000000000000000000000000000 PUSH1 0x0 MSTORE PUSH1 0x32 PUSH1 0x4 MSTORE PUSH1 0x24 PUSH1 0x0 REVERT JUMPDEST PUSH1 0x20 MUL PUSH1 0x20 ADD ADD DUP2 SWAP1 MSTORE POP PUSH1 0x2 DUP3 DUP3 DUP2 MLOAD DUP2 LT PUSH2 0x3F3 JUMPI PUSH32 0x4E487B7100000000000000000000000000000000000000000000000000000000 PUSH1 0x0 MSTORE PUSH1 0x32 PUSH1 0x4 MSTORE PUSH1 0x24 PUSH1 0x0 REVERT JUMPDEST PUSH1 0x20 MUL PUSH1 0x20 ADD ADD MLOAD SWAP1 DUP1 PUSH1 0x1 DUP2 SLOAD ADD DUP1 DUP3 SSTORE DUP1 SWAP2 POP POP PUSH1 0x1 SWAP1 SUB SWAP1 PUSH1 0x0 MSTORE PUSH1 0x20 PUSH1 0x0 KECCAK256 ADD PUSH1 0x0 SWAP1 SWAP2 SWAP1 SWAP2 SWAP1 SWAP2 POP SWAP1 DUP1 MLOAD SWAP1 PUSH1 0x20 ADD SWAP1 PUSH2 0x433 SWAP3 SWAP2 SWAP1 PUSH2 0xC53 JUMP JUMPDEST POP DUP1 DUP1 PUSH2 0x43F SWAP1 PUSH2 0x1534 JUMP JUMPDEST SWAP2 POP POP PUSH2 0x350 JUMP JUMPDEST POP POP POP POP POP JUMP JUMPDEST PUSH1 0x40 MLOAD DUP1 PUSH1 0xA0 ADD PUSH1 0x40 MSTORE DUP1 DUP7 DUP2 MSTORE PUSH1 0x20 ADD DUP6 DUP2 MSTORE PUSH1 0x20 ADD DUP5 PUSH20 0xFFFFFFFFFFFFFFFFFFFFFFFFFFFFFFFFFFFFFFFF AND DUP2 MSTORE PUSH1 0x20 ADD DUP4 DUP2 MSTORE PUSH1 0x20 ADD DUP3 DUP2 MSTORE POP PUSH1 0x0 DUP1 PUSH1 0x1 SLOAD DUP2 MSTORE PUSH1 0x20 ADD SWAP1 DUP2 MSTORE PUSH1 0x20 ADD PUSH1 0x0 KECCAK256 PUSH1 0x0 DUP3 ADD MLOAD DUP2 PUSH1 0x0 ADD SSTORE PUSH1 0x20 DUP3 ADD MLOAD DUP2 PUSH1 0x1 ADD SSTORE PUSH1 0x40 DUP3 ADD MLOAD DUP2 PUSH1 0x2 ADD PUSH1 0x0 PUSH2 0x100 EXP DUP2 SLOAD DUP2 PUSH20 0xFFFFFFFFFFFFFFFFFFFFFFFFFFFFFFFFFFFFFFFF MUL NOT AND SWAP1 DUP4 PUSH20 0xFFFFFFFFFFFFFFFFFFFFFFFFFFFFFFFFFFFFFFFF AND MUL OR SWAP1 SSTORE POP PUSH1 0x60 DUP3 ADD MLOAD DUP2 PUSH1 0x3 ADD SSTORE PUSH1 0x80 DUP3 ADD MLOAD DUP2 PUSH1 0x4 ADD SWAP1 DUP1 MLOAD SWAP1 PUSH1 0x20 ADD SWAP1 PUSH2 0x520 SWAP3 SWAP2 SWAP1 PUSH2 0xC53 JUMP JUMPDEST POP SWAP1 POP POP PUSH1 0x1 PUSH1 0x0 DUP2 SLOAD DUP1 SWAP3 SWAP2 SWAP1 PUSH2 0x537 SWAP1 PUSH2 0x1534 JUMP JUMPDEST SWAP2 SWAP1 POP SSTORE POP POP POP POP POP POP JUMP JUMPDEST PUSH1 0x2 DUP2 DUP2 SLOAD DUP2 LT PUSH2 0x553 JUMPI PUSH1 0x0 DUP1 REVERT JUMPDEST SWAP1 PUSH1 0x0 MSTORE PUSH1 0x20 PUSH1 0x0 KECCAK256 ADD PUSH1 0x0 SWAP2 POP SWAP1 POP DUP1 SLOAD PUSH2 0x56E SWAP1 PUSH2 0x1502 JUMP JUMPDEST DUP1 PUSH1 0x1F ADD PUSH1 0x20 DUP1 SWAP2 DIV MUL PUSH1 0x20 ADD PUSH1 0x40 MLOAD SWAP1 DUP2 ADD PUSH1 0x40 MSTORE DUP1 SWAP3 SWAP2 SWAP1 DUP2 DUP2 MSTORE PUSH1 0x20 ADD DUP3 DUP1 SLOAD PUSH2 0x59A SWAP1 PUSH2 0x1502 JUMP JUMPDEST DUP1 ISZERO PUSH2 0x5E7 JUMPI DUP1 PUSH1 0x1F LT PUSH2 0x5BC JUMPI PUSH2 0x100 DUP1 DUP4 SLOAD DIV MUL DUP4 MSTORE SWAP2 PUSH1 0x20 ADD SWAP2 PUSH2 0x5E7 JUMP JUMPDEST DUP3 ADD SWAP2 SWAP1 PUSH1 0x0 MSTORE PUSH1 0x20 PUSH1 0x0 KECCAK256 SWAP1 JUMPDEST DUP2 SLOAD DUP2 MSTORE SWAP1 PUSH1 0x1 ADD SWAP1 PUSH1 0x20 ADD DUP1 DUP4 GT PUSH2 0x5CA JUMPI DUP3 SWAP1 SUB PUSH1 0x1F AND DUP3 ADD SWAP2 JUMPDEST POP POP POP POP POP DUP2 JUMP JUMPDEST PUSH1 0x60 PUSH1 0x2 DUP1 SLOAD DUP1 PUSH1 0x20 MUL PUSH1 0x20 ADD PUSH1 0x40 MLOAD SWAP1 DUP2 ADD PUSH1 0x40 MSTORE DUP1 SWAP3 SWAP2 SWAP1 DUP2 DUP2 MSTORE PUSH1 0x20 ADD PUSH1 0x0 SWAP1 JUMPDEST DUP3 DUP3 LT ISZERO PUSH2 0x6BF JUMPI DUP4 DUP3 SWAP1 PUSH1 0x0 MSTORE PUSH1 0x20 PUSH1 0x0 KECCAK256 ADD DUP1 SLOAD PUSH2 0x632 SWAP1 PUSH2 0x1502 JUMP JUMPDEST DUP1 PUSH1 0x1F ADD PUSH1 0x20 DUP1 SWAP2 DIV MUL PUSH1 0x20 ADD PUSH1 0x40 MLOAD SWAP1 DUP2 ADD PUSH1 0x40 MSTORE DUP1 SWAP3 SWAP2 SWAP1 DUP2 DUP2 MSTORE PUSH1 0x20 ADD DUP3 DUP1 SLOAD PUSH2 0x65E SWAP1 PUSH2 0x1502 JUMP JUMPDEST DUP1 ISZERO PUSH2 0x6AB JUMPI DUP1 PUSH1 0x1F LT PUSH2 0x680 JUMPI PUSH2 0x100 DUP1 DUP4 SLOAD DIV MUL DUP4 MSTORE SWAP2 PUSH1 0x20 ADD SWAP2 PUSH2 0x6AB JUMP JUMPDEST DUP3 ADD SWAP2 SWAP1 PUSH1 0x0 MSTORE PUSH1 0x20 PUSH1 0x0 KECCAK256 SWAP1 JUMPDEST DUP2 SLOAD DUP2 MSTORE SWAP1 PUSH1 0x1 ADD SWAP1 PUSH1 0x20 ADD DUP1 DUP4 GT PUSH2 0x68E JUMPI DUP3 SWAP1 SUB PUSH1 0x1F AND DUP3 ADD SWAP2 JUMPDEST POP POP POP POP POP DUP2 MSTORE PUSH1 0x20 ADD SWAP1 PUSH1 0x1 ADD SWAP1 PUSH2 0x613 JUMP JUMPDEST POP POP POP POP SWAP1 POP SWAP1 JUMP JUMPDEST PUSH1 0x1 SLOAD DUP2 JUMP JUMPDEST PUSH2 0x6D6 PUSH2 0xCD9 JUMP JUMPDEST PUSH1 0x0 DUP1 DUP4 DUP2 MSTORE PUSH1 0x20 ADD SWAP1 DUP2 MSTORE PUSH1 0x20 ADD PUSH1 0x0 KECCAK256 PUSH1 0x40 MLOAD DUP1 PUSH1 0xA0 ADD PUSH1 0x40 MSTORE SWAP1 DUP2 PUSH1 0x0 DUP3 ADD SLOAD DUP2 MSTORE PUSH1 0x20 ADD PUSH1 0x1 DUP3 ADD SLOAD DUP2 MSTORE PUSH1 0x20 ADD PUSH1 0x2 DUP3 ADD PUSH1 0x0 SWAP1 SLOAD SWAP1 PUSH2 0x100 EXP SWAP1 DIV PUSH20 0xFFFFFFFFFFFFFFFFFFFFFFFFFFFFFFFFFFFFFFFF AND PUSH20 0xFFFFFFFFFFFFFFFFFFFFFFFFFFFFFFFFFFFFFFFF AND PUSH20 0xFFFFFFFFFFFFFFFFFFFFFFFFFFFFFFFFFFFFFFFF AND DUP2 MSTORE PUSH1 0x20 ADD PUSH1 0x3 DUP3 ADD SLOAD DUP2 MSTORE PUSH1 0x20 ADD PUSH1 0x4 DUP3 ADD DUP1 SLOAD PUSH2 0x777 SWAP1 PUSH2 0x1502 JUMP JUMPDEST DUP1 PUSH1 0x1F ADD PUSH1 0x20 DUP1 SWAP2 DIV MUL PUSH1 0x20 ADD PUSH1 0x40 MLOAD SWAP1 DUP2 ADD PUSH1 0x40 MSTORE DUP1 SWAP3 SWAP2 SWAP1 DUP2 DUP2 MSTORE PUSH1 0x20 ADD DUP3 DUP1 SLOAD PUSH2 0x7A3 SWAP1 PUSH2 0x1502 JUMP JUMPDEST DUP1 ISZERO PUSH2 0x7F0 JUMPI DUP1 PUSH1 0x1F LT PUSH2 0x7C5 JUMPI PUSH2 0x100 DUP1 DUP4 SLOAD DIV MUL DUP4 MSTORE SWAP2 PUSH1 0x20 ADD SWAP2 PUSH2 0x7F0 JUMP JUMPDEST DUP3 ADD SWAP2 SWAP1 PUSH1 0x0 MSTORE PUSH1 0x20 PUSH1 0x0 KECCAK256 SWAP1 JUMPDEST DUP2 SLOAD DUP2 MSTORE SWAP1 PUSH1 0x1 ADD SWAP1 PUSH1 0x20 ADD DUP1 DUP4 GT PUSH2 0x7D3 JUMPI DUP3 SWAP1 SUB PUSH1 0x1F AND DUP3 ADD SWAP2 JUMPDEST POP POP POP POP POP DUP2 MSTORE POP POP SWAP1 POP SWAP2 SWAP1 POP JUMP JUMPDEST PUSH2 0x808 PUSH2 0xD1E JUMP JUMPDEST PUSH1 0x0 PUSH1 0x20 DUP4 ADD SWAP1 POP PUSH1 0x40 MLOAD DUP1 PUSH1 0x40 ADD PUSH1 0x40 MSTORE DUP1 DUP5 MLOAD DUP2 MSTORE PUSH1 0x20 ADD DUP3 DUP2 MSTORE POP SWAP2 POP POP SWAP2 SWAP1 POP JUMP JUMPDEST PUSH1 0x0 DUP1 DUP3 PUSH1 0x0 ADD MLOAD PUSH2 0x852 DUP6 PUSH1 0x0 ADD MLOAD DUP7 PUSH1 0x20 ADD MLOAD DUP7 PUSH1 0x0 ADD MLOAD DUP8 PUSH1 0x20 ADD MLOAD PUSH2 0x992 JUMP JUMPDEST PUSH2 0x85C SWAP2 SWAP1 PUSH2 0x122F JUMP JUMPDEST SWAP1 POP JUMPDEST DUP4 PUSH1 0x0 ADD MLOAD DUP5 PUSH1 0x20 ADD MLOAD PUSH2 0x873 SWAP2 SWAP1 PUSH2 0x122F JUMP JUMPDEST DUP2 GT PUSH2 0x8CF JUMPI DUP2 DUP1 PUSH2 0x884 SWAP1 PUSH2 0x1534 JUMP JUMPDEST SWAP3 POP POP DUP3 PUSH1 0x0 ADD MLOAD PUSH2 0x8BE DUP6 PUSH1 0x20 ADD MLOAD DUP4 PUSH2 0x89F SWAP2 SWAP1 PUSH2 0x1450 JUMP JUMPDEST DUP7 PUSH1 0x0 ADD MLOAD PUSH2 0x8AE SWAP2 SWAP1 PUSH2 0x1450 JUMP JUMPDEST DUP4 DUP7 PUSH1 0x0 ADD MLOAD DUP8 PUSH1 0x20 ADD MLOAD PUSH2 0x992 JUMP JUMPDEST PUSH2 0x8C8 SWAP2 SWAP1 PUSH2 0x122F JUMP JUMPDEST SWAP1 POP PUSH2 0x85F JUMP JUMPDEST POP SWAP3 SWAP2 POP POP JUMP JUMPDEST PUSH2 0x8DE PUSH2 0xD1E JUMP JUMPDEST PUSH2 0x8E9 DUP4 DUP4 DUP4 PUSH2 0xADC JUMP JUMPDEST POP SWAP3 SWAP2 POP POP JUMP JUMPDEST PUSH1 0x60 PUSH1 0x0 DUP3 PUSH1 0x0 ADD MLOAD PUSH8 0xFFFFFFFFFFFFFFFF DUP2 GT ISZERO PUSH2 0x938 JUMPI PUSH32 0x4E487B7100000000000000000000000000000000000000000000000000000000 PUSH1 0x0 MSTORE PUSH1 0x41 PUSH1 0x4 MSTORE PUSH1 0x24 PUSH1 0x0 REVERT JUMPDEST PUSH1 0x40 MLOAD SWAP1 DUP1 DUP3 MSTORE DUP1 PUSH1 0x1F ADD PUSH1 0x1F NOT AND PUSH1 0x20 ADD DUP3 ADD PUSH1 0x40 MSTORE DUP1 ISZERO PUSH2 0x96A JUMPI DUP2 PUSH1 0x20 ADD PUSH1 0x1 DUP3 MUL DUP1 CALLDATASIZE DUP4 CALLDATACOPY DUP1 DUP3 ADD SWAP2 POP POP SWAP1 POP JUMPDEST POP SWAP1 POP PUSH1 0x0 PUSH1 0x20 DUP3 ADD SWAP1 POP PUSH2 0x988 DUP2 DUP6 PUSH1 0x20 ADD MLOAD DUP7 PUSH1 0x0 ADD MLOAD PUSH2 0xBA7 JUMP JUMPDEST DUP2 SWAP3 POP POP POP SWAP2 SWAP1 POP JUMP JUMPDEST PUSH1 0x0 DUP1 DUP5 SWAP1 POP PUSH1 0x0 DUP7 DUP6 GT PUSH2 0xAC3 JUMPI PUSH1 0x20 DUP6 GT PUSH2 0xA65 JUMPI PUSH1 0x0 DUP1 DUP7 GT ISZERO PUSH2 0x9EB JUMPI PUSH1 0x1 DUP7 PUSH1 0x20 PUSH2 0x9C2 SWAP2 SWAP1 PUSH2 0x1450 JUMP JUMPDEST PUSH1 0x8 PUSH2 0x9CE SWAP2 SWAP1 PUSH2 0x13F6 JUMP JUMPDEST PUSH1 0x2 PUSH2 0x9DA SWAP2 SWAP1 PUSH2 0x12D8 JUMP JUMPDEST PUSH2 0x9E4 SWAP2 SWAP1 PUSH2 0x1450 JUMP JUMPDEST NOT PUSH1 0x0 SHL SWAP1 POP JUMPDEST PUSH1 0x0 DUP2 DUP7 MLOAD AND SWAP1 POP PUSH1 0x0 DUP8 DUP11 DUP11 PUSH2 0xA02 SWAP2 SWAP1 PUSH2 0x122F JUMP JUMPDEST PUSH2 0xA0C SWAP2 SWAP1 PUSH2 0x1450 JUMP JUMPDEST SWAP1 POP PUSH1 0x0 DUP4 DUP7 MLOAD AND SWAP1 POP JUMPDEST DUP3 DUP2 EQ PUSH2 0xA57 JUMPI DUP2 DUP7 LT PUSH2 0xA3E JUMPI DUP11 DUP11 PUSH2 0xA31 SWAP2 SWAP1 PUSH2 0x122F JUMP JUMPDEST SWAP7 POP POP POP POP POP POP POP PUSH2 0xAD4 JUMP JUMPDEST DUP6 DUP1 PUSH2 0xA49 SWAP1 PUSH2 0x1534 JUMP JUMPDEST SWAP7 POP POP DUP4 DUP7 MLOAD AND SWAP1 POP PUSH2 0xA17 JUMP JUMPDEST DUP6 SWAP7 POP POP POP POP POP POP POP PUSH2 0xAD4 JUMP JUMPDEST PUSH1 0x0 DUP6 DUP6 KECCAK256 SWAP1 POP PUSH1 0x0 SWAP2 POP JUMPDEST DUP6 DUP9 PUSH2 0xA7D SWAP2 SWAP1 PUSH2 0x1450 JUMP JUMPDEST DUP3 GT PUSH2 0xAC1 JUMPI PUSH1 0x0 DUP7 DUP5 KECCAK256 SWAP1 POP DUP1 DUP3 EQ ISZERO PUSH2 0xA9E JUMPI DUP4 SWAP5 POP POP POP POP POP PUSH2 0xAD4 JUMP JUMPDEST PUSH1 0x1 DUP5 PUSH2 0xAAB SWAP2 SWAP1 PUSH2 0x122F JUMP JUMPDEST SWAP4 POP POP DUP2 DUP1 PUSH2 0xAB9 SWAP1 PUSH2 0x1534 JUMP JUMPDEST SWAP3 POP POP PUSH2 0xA71 JUMP JUMPDEST POP JUMPDEST DUP7 DUP7 PUSH2 0xACF SWAP2 SWAP1 PUSH2 0x122F JUMP JUMPDEST SWAP3 POP POP POP JUMPDEST SWAP5 SWAP4 POP POP POP POP JUMP JUMPDEST PUSH2 0xAE4 PUSH2 0xD1E JUMP JUMPDEST PUSH1 0x0 PUSH2 0xB02 DUP6 PUSH1 0x0 ADD MLOAD DUP7 PUSH1 0x20 ADD MLOAD DUP7 PUSH1 0x0 ADD MLOAD DUP8 PUSH1 0x20 ADD MLOAD PUSH2 0x992 JUMP JUMPDEST SWAP1 POP DUP5 PUSH1 0x20 ADD MLOAD DUP4 PUSH1 0x20 ADD DUP2 DUP2 MSTORE POP POP DUP5 PUSH1 0x20 ADD MLOAD DUP2 PUSH2 0xB22 SWAP2 SWAP1 PUSH2 0x1450 JUMP JUMPDEST DUP4 PUSH1 0x0 ADD DUP2 DUP2 MSTORE POP POP DUP5 PUSH1 0x0 ADD MLOAD DUP6 PUSH1 0x20 ADD MLOAD PUSH2 0xB3F SWAP2 SWAP1 PUSH2 0x122F JUMP JUMPDEST DUP2 EQ ISZERO PUSH2 0xB56 JUMPI PUSH1 0x0 DUP6 PUSH1 0x0 ADD DUP2 DUP2 MSTORE POP POP PUSH2 0xB9C JUMP JUMPDEST DUP4 PUSH1 0x0 ADD MLOAD DUP4 PUSH1 0x0 ADD MLOAD PUSH2 0xB6A SWAP2 SWAP1 PUSH2 0x122F JUMP JUMPDEST DUP6 PUSH1 0x0 ADD DUP2 DUP2 MLOAD PUSH2 0xB7B SWAP2 SWAP1 PUSH2 0x1450 JUMP JUMPDEST SWAP2 POP DUP2 DUP2 MSTORE POP POP DUP4 PUSH1 0x0 ADD MLOAD DUP2 PUSH2 0xB92 SWAP2 SWAP1 PUSH2 0x122F JUMP JUMPDEST DUP6 PUSH1 0x20 ADD DUP2 DUP2 MSTORE POP POP JUMPDEST DUP3 SWAP2 POP POP SWAP4 SWAP3 POP POP POP JUMP JUMPDEST JUMPDEST PUSH1 0x20 DUP2 LT PUSH2 0xBE6 JUMPI DUP2 MLOAD DUP4 MSTORE PUSH1 0x20 DUP4 PUSH2 0xBC1 SWAP2 SWAP1 PUSH2 0x122F JUMP JUMPDEST SWAP3 POP PUSH1 0x20 DUP3 PUSH2 0xBD0 SWAP2 SWAP1 PUSH2 0x122F JUMP JUMPDEST SWAP2 POP PUSH1 0x20 DUP2 PUSH2 0xBDF SWAP2 SWAP1 PUSH2 0x1450 JUMP JUMPDEST SWAP1 POP PUSH2 0xBA8 JUMP JUMPDEST PUSH1 0x0 PUSH32 0xFFFFFFFFFFFFFFFFFFFFFFFFFFFFFFFFFFFFFFFFFFFFFFFFFFFFFFFFFFFFFFFF SWAP1 POP PUSH1 0x0 DUP3 GT ISZERO PUSH2 0xC3D JUMPI PUSH1 0x1 DUP3 PUSH1 0x20 PUSH2 0xC23 SWAP2 SWAP1 PUSH2 0x1450 JUMP JUMPDEST PUSH2 0x100 PUSH2 0xC30 SWAP2 SWAP1 PUSH2 0x12D8 JUMP JUMPDEST PUSH2 0xC3A SWAP2 SWAP1 PUSH2 0x1450 JUMP JUMPDEST SWAP1 POP JUMPDEST DUP1 NOT DUP4 MLOAD AND DUP2 DUP6 MLOAD AND DUP2 DUP2 OR DUP7 MSTORE POP POP POP POP POP POP JUMP JUMPDEST DUP3 DUP1 SLOAD PUSH2 0xC5F SWAP1 PUSH2 0x1502 JUMP JUMPDEST SWAP1 PUSH1 0x0 MSTORE PUSH1 0x20 PUSH1 0x0 KECCAK256 SWAP1 PUSH1 0x1F ADD PUSH1 0x20 SWAP1 DIV DUP2 ADD SWAP3 DUP3 PUSH2 0xC81 JUMPI PUSH1 0x0 DUP6 SSTORE PUSH2 0xCC8 JUMP JUMPDEST DUP3 PUSH1 0x1F LT PUSH2 0xC9A JUMPI DUP1 MLOAD PUSH1 0xFF NOT AND DUP4 DUP1 ADD OR DUP6 SSTORE PUSH2 0xCC8 JUMP JUMPDEST DUP3 DUP1 ADD PUSH1 0x1 ADD DUP6 SSTORE DUP3 ISZERO PUSH2 0xCC8 JUMPI SWAP2 DUP3 ADD JUMPDEST DUP3 DUP2 GT ISZERO PUSH2 0xCC7 JUMPI DUP3 MLOAD DUP3 SSTORE SWAP2 PUSH1 0x20 ADD SWAP2 SWAP1 PUSH1 0x1 ADD SWAP1 PUSH2 0xCAC JUMP JUMPDEST JUMPDEST POP SWAP1 POP PUSH2 0xCD5 SWAP2 SWAP1 PUSH2 0xD38 JUMP JUMPDEST POP SWAP1 JUMP JUMPDEST PUSH1 0x40 MLOAD DUP1 PUSH1 0xA0 ADD PUSH1 0x40 MSTORE DUP1 PUSH1 0x0 DUP2 MSTORE PUSH1 0x20 ADD PUSH1 0x0 DUP2 MSTORE PUSH1 0x20 ADD PUSH1 0x0 PUSH20 0xFFFFFFFFFFFFFFFFFFFFFFFFFFFFFFFFFFFFFFFF AND DUP2 MSTORE PUSH1 0x20 ADD PUSH1 0x0 DUP2 MSTORE PUSH1 0x20 ADD PUSH1 0x60 DUP2 MSTORE POP SWAP1 JUMP JUMPDEST PUSH1 0x40 MLOAD DUP1 PUSH1 0x40 ADD PUSH1 0x40 MSTORE DUP1 PUSH1 0x0 DUP2 MSTORE PUSH1 0x20 ADD PUSH1 0x0 DUP2 MSTORE POP SWAP1 JUMP JUMPDEST JUMPDEST DUP1 DUP3 GT ISZERO PUSH2 0xD51 JUMPI PUSH1 0x0 DUP2 PUSH1 0x0 SWAP1 SSTORE POP PUSH1 0x1 ADD PUSH2 0xD39 JUMP JUMPDEST POP SWAP1 JUMP JUMPDEST PUSH1 0x0 PUSH2 0xD68 PUSH2 0xD63 DUP5 PUSH2 0x1199 JUMP JUMPDEST PUSH2 0x1168 JUMP JUMPDEST SWAP1 POP DUP3 DUP2 MSTORE PUSH1 0x20 DUP2 ADD DUP5 DUP5 DUP5 ADD GT ISZERO PUSH2 0xD80 JUMPI PUSH1 0x0 DUP1 REVERT JUMPDEST PUSH2 0xD8B DUP5 DUP3 DUP6 PUSH2 0x14C0 JUMP JUMPDEST POP SWAP4 SWAP3 POP POP POP JUMP JUMPDEST PUSH1 0x0 DUP2 CALLDATALOAD SWAP1 POP PUSH2 0xDA2 DUP2 PUSH2 0x1628 JUMP JUMPDEST SWAP3 SWAP2 POP POP JUMP JUMPDEST PUSH1 0x0 DUP3 PUSH1 0x1F DUP4 ADD SLT PUSH2 0xDB9 JUMPI PUSH1 0x0 DUP1 REVERT JUMPDEST DUP2 CALLDATALOAD PUSH2 0xDC9 DUP5 DUP3 PUSH1 0x20 DUP7 ADD PUSH2 0xD55 JUMP JUMPDEST SWAP2 POP POP SWAP3 SWAP2 POP POP JUMP JUMPDEST PUSH1 0x0 DUP2 CALLDATALOAD SWAP1 POP PUSH2 0xDE1 DUP2 PUSH2 0x163F JUMP JUMPDEST SWAP3 SWAP2 POP POP JUMP JUMPDEST PUSH1 0x0 PUSH1 0x20 DUP3 DUP5 SUB SLT ISZERO PUSH2 0xDF9 JUMPI PUSH1 0x0 DUP1 REVERT JUMPDEST PUSH1 0x0 DUP3 ADD CALLDATALOAD PUSH8 0xFFFFFFFFFFFFFFFF DUP2 GT ISZERO PUSH2 0xE13 JUMPI PUSH1 0x0 DUP1 REVERT JUMPDEST PUSH2 0xE1F DUP5 DUP3 DUP6 ADD PUSH2 0xDA8 JUMP JUMPDEST SWAP2 POP POP SWAP3 SWAP2 POP POP JUMP JUMPDEST PUSH1 0x0 PUSH1 0x20 DUP3 DUP5 SUB SLT ISZERO PUSH2 0xE3A JUMPI PUSH1 0x0 DUP1 REVERT JUMPDEST PUSH1 0x0 PUSH2 0xE48 DUP5 DUP3 DUP6 ADD PUSH2 0xDD2 JUMP JUMPDEST SWAP2 POP POP SWAP3 SWAP2 POP POP JUMP JUMPDEST PUSH1 0x0 DUP1 PUSH1 0x0 DUP1 PUSH1 0x0 PUSH1 0xA0 DUP7 DUP9 SUB SLT ISZERO PUSH2 0xE69 JUMPI PUSH1 0x0 DUP1 REVERT JUMPDEST PUSH1 0x0 PUSH2 0xE77 DUP9 DUP3 DUP10 ADD PUSH2 0xDD2 JUMP JUMPDEST SWAP6 POP POP PUSH1 0x20 PUSH2 0xE88 DUP9 DUP3 DUP10 ADD PUSH2 0xDD2 JUMP JUMPDEST SWAP5 POP POP PUSH1 0x40 PUSH2 0xE99 DUP9 DUP3 DUP10 ADD PUSH2 0xD93 JUMP JUMPDEST SWAP4 POP POP PUSH1 0x60 PUSH2 0xEAA DUP9 DUP3 DUP10 ADD PUSH2 0xDD2 JUMP JUMPDEST SWAP3 POP POP PUSH1 0x80 DUP7 ADD CALLDATALOAD PUSH8 0xFFFFFFFFFFFFFFFF DUP2 GT ISZERO PUSH2 0xEC7 JUMPI PUSH1 0x0 DUP1 REVERT JUMPDEST PUSH2 0xED3 DUP9 DUP3 DUP10 ADD PUSH2 0xDA8 JUMP JUMPDEST SWAP2 POP POP SWAP3 SWAP6 POP SWAP3 SWAP6 SWAP1 SWAP4 POP JUMP JUMPDEST PUSH1 0x0 PUSH2 0xEEC DUP4 DUP4 PUSH2 0xF87 JUMP JUMPDEST SWAP1 POP SWAP3 SWAP2 POP POP JUMP JUMPDEST PUSH2 0xEFD DUP2 PUSH2 0x1484 JUMP JUMPDEST DUP3 MSTORE POP POP JUMP JUMPDEST PUSH2 0xF0C DUP2 PUSH2 0x1484 JUMP JUMPDEST DUP3 MSTORE POP POP JUMP JUMPDEST PUSH1 0x0 PUSH2 0xF1D DUP3 PUSH2 0x11D9 JUMP JUMPDEST PUSH2 0xF27 DUP2 DUP6 PUSH2 0x11FC JUMP JUMPDEST SWAP4 POP DUP4 PUSH1 0x20 DUP3 MUL DUP6 ADD PUSH2 0xF39 DUP6 PUSH2 0x11C9 JUMP JUMPDEST DUP1 PUSH1 0x0 JUMPDEST DUP6 DUP2 LT ISZERO PUSH2 0xF75 JUMPI DUP5 DUP5 SUB DUP10 MSTORE DUP2 MLOAD PUSH2 0xF56 DUP6 DUP3 PUSH2 0xEE0 JUMP JUMPDEST SWAP5 POP PUSH2 0xF61 DUP4 PUSH2 0x11EF JUMP JUMPDEST SWAP3 POP PUSH1 0x20 DUP11 ADD SWAP10 POP POP PUSH1 0x1 DUP2 ADD SWAP1 POP PUSH2 0xF3D JUMP JUMPDEST POP DUP3 SWAP8 POP DUP8 SWAP6 POP POP POP POP POP POP SWAP3 SWAP2 POP POP JUMP JUMPDEST PUSH1 0x0 PUSH2 0xF92 DUP3 PUSH2 0x11E4 JUMP JUMPDEST PUSH2 0xF9C DUP2 DUP6 PUSH2 0x120D JUMP JUMPDEST SWAP4 POP PUSH2 0xFAC DUP2 DUP6 PUSH1 0x20 DUP7 ADD PUSH2 0x14CF JUMP JUMPDEST PUSH2 0xFB5 DUP2 PUSH2 0x160A JUMP JUMPDEST DUP5 ADD SWAP2 POP POP SWAP3 SWAP2 POP POP JUMP JUMPDEST PUSH1 0x0 PUSH2 0xFCB DUP3 PUSH2 0x11E4 JUMP JUMPDEST PUSH2 0xFD5 DUP2 DUP6 PUSH2 0x121E JUMP JUMPDEST SWAP4 POP PUSH2 0xFE5 DUP2 DUP6 PUSH1 0x20 DUP7 ADD PUSH2 0x14CF JUMP JUMPDEST PUSH2 0xFEE DUP2 PUSH2 0x160A JUMP JUMPDEST DUP5 ADD SWAP2 POP POP SWAP3 SWAP2 POP POP JUMP JUMPDEST PUSH1 0x0 PUSH1 0xA0 DUP4 ADD PUSH1 0x0 DUP4 ADD MLOAD PUSH2 0x1011 PUSH1 0x0 DUP7 ADD DUP3 PUSH2 0x106F JUMP JUMPDEST POP PUSH1 0x20 DUP4 ADD MLOAD PUSH2 0x1024 PUSH1 0x20 DUP7 ADD DUP3 PUSH2 0x106F JUMP JUMPDEST POP PUSH1 0x40 DUP4 ADD MLOAD PUSH2 0x1037 PUSH1 0x40 DUP7 ADD DUP3 PUSH2 0xEF4 JUMP JUMPDEST POP PUSH1 0x60 DUP4 ADD MLOAD PUSH2 0x104A PUSH1 0x60 DUP7 ADD DUP3 PUSH2 0x106F JUMP JUMPDEST POP PUSH1 0x80 DUP4 ADD MLOAD DUP5 DUP3 SUB PUSH1 0x80 DUP7 ADD MSTORE PUSH2 0x1062 DUP3 DUP3 PUSH2 0xF87 JUMP JUMPDEST SWAP2 POP POP DUP1 SWAP2 POP POP SWAP3 SWAP2 POP POP JUMP JUMPDEST PUSH2 0x1078 DUP2 PUSH2 0x14B6 JUMP JUMPDEST DUP3 MSTORE POP POP JUMP JUMPDEST PUSH2 0x1087 DUP2 PUSH2 0x14B6 JUMP JUMPDEST DUP3 MSTORE POP POP JUMP JUMPDEST PUSH1 0x0 PUSH1 0x20 DUP3 ADD SWAP1 POP DUP2 DUP2 SUB PUSH1 0x0 DUP4 ADD MSTORE PUSH2 0x10A7 DUP2 DUP5 PUSH2 0xF12 JUMP JUMPDEST SWAP1 POP SWAP3 SWAP2 POP POP JUMP JUMPDEST PUSH1 0x0 PUSH1 0x20 DUP3 ADD SWAP1 POP DUP2 DUP2 SUB PUSH1 0x0 DUP4 ADD MSTORE PUSH2 0x10C9 DUP2 DUP5 PUSH2 0xFC0 JUMP JUMPDEST SWAP1 POP SWAP3 SWAP2 POP POP JUMP JUMPDEST PUSH1 0x0 PUSH1 0x20 DUP3 ADD SWAP1 POP DUP2 DUP2 SUB PUSH1 0x0 DUP4 ADD MSTORE PUSH2 0x10EB DUP2 DUP5 PUSH2 0xFF9 JUMP JUMPDEST SWAP1 POP SWAP3 SWAP2 POP POP JUMP JUMPDEST PUSH1 0x0 PUSH1 0x20 DUP3 ADD SWAP1 POP PUSH2 0x1108 PUSH1 0x0 DUP4 ADD DUP5 PUSH2 0x107E JUMP JUMPDEST SWAP3 SWAP2 POP POP JUMP JUMPDEST PUSH1 0x0 PUSH1 0xA0 DUP3 ADD SWAP1 POP PUSH2 0x1123 PUSH1 0x0 DUP4 ADD DUP9 PUSH2 0x107E JUMP JUMPDEST PUSH2 0x1130 PUSH1 0x20 DUP4 ADD DUP8 PUSH2 0x107E JUMP JUMPDEST PUSH2 0x113D PUSH1 0x40 DUP4 ADD DUP7 PUSH2 0xF03 JUMP JUMPDEST PUSH2 0x114A PUSH1 0x60 DUP4 ADD DUP6 PUSH2 0x107E JUMP JUMPDEST DUP2 DUP2 SUB PUSH1 0x80 DUP4 ADD MSTORE PUSH2 0x115C DUP2 DUP5 PUSH2 0xFC0 JUMP JUMPDEST SWAP1 POP SWAP7 SWAP6 POP POP POP POP POP POP JUMP JUMPDEST PUSH1 0x0 PUSH1 0x40 MLOAD SWAP1 POP DUP2 DUP2 ADD DUP2 DUP2 LT PUSH8 0xFFFFFFFFFFFFFFFF DUP3 GT OR ISZERO PUSH2 0x118F JUMPI PUSH2 0x118E PUSH2 0x15DB JUMP JUMPDEST JUMPDEST DUP1 PUSH1 0x40 MSTORE POP SWAP2 SWAP1 POP JUMP JUMPDEST PUSH1 0x0 PUSH8 0xFFFFFFFFFFFFFFFF DUP3 GT ISZERO PUSH2 0x11B4 JUMPI PUSH2 0x11B3 PUSH2 0x15DB JUMP JUMPDEST JUMPDEST PUSH1 0x1F NOT PUSH1 0x1F DUP4 ADD AND SWAP1 POP PUSH1 0x20 DUP2 ADD SWAP1 POP SWAP2 SWAP1 POP JUMP JUMPDEST PUSH1 0x0 DUP2 SWAP1 POP PUSH1 0x20 DUP3 ADD SWAP1 POP SWAP2 SWAP1 POP JUMP JUMPDEST PUSH1 0x0 DUP2 MLOAD SWAP1 POP SWAP2 SWAP1 POP JUMP JUMPDEST PUSH1 0x0 DUP2 MLOAD SWAP1 POP SWAP2 SWAP1 POP JUMP JUMPDEST PUSH1 0x0 PUSH1 0x20 DUP3 ADD SWAP1 POP SWAP2 SWAP1 POP JUMP JUMPDEST PUSH1 0x0 DUP3 DUP3 MSTORE PUSH1 0x20 DUP3 ADD SWAP1 POP SWAP3 SWAP2 POP POP JUMP JUMPDEST PUSH1 0x0 DUP3 DUP3 MSTORE PUSH1 0x20 DUP3 ADD SWAP1 POP SWAP3 SWAP2 POP POP JUMP JUMPDEST PUSH1 0x0 DUP3 DUP3 MSTORE PUSH1 0x20 DUP3 ADD SWAP1 POP SWAP3 SWAP2 POP POP JUMP JUMPDEST PUSH1 0x0 PUSH2 0x123A DUP3 PUSH2 0x14B6 JUMP JUMPDEST SWAP2 POP PUSH2 0x1245 DUP4 PUSH2 0x14B6 JUMP JUMPDEST SWAP3 POP DUP3 PUSH32 0xFFFFFFFFFFFFFFFFFFFFFFFFFFFFFFFFFFFFFFFFFFFFFFFFFFFFFFFFFFFFFFFF SUB DUP3 GT ISZERO PUSH2 0x127A JUMPI PUSH2 0x1279 PUSH2 0x157D JUMP JUMPDEST JUMPDEST DUP3 DUP3 ADD SWAP1 POP SWAP3 SWAP2 POP POP JUMP JUMPDEST PUSH1 0x0 DUP1 DUP3 SWAP2 POP DUP4 SWAP1 POP JUMPDEST PUSH1 0x1 DUP6 GT ISZERO PUSH2 0x12CF JUMPI DUP1 DUP7 DIV DUP2 GT ISZERO PUSH2 0x12AB JUMPI PUSH2 0x12AA PUSH2 0x157D JUMP JUMPDEST JUMPDEST PUSH1 0x1 DUP6 AND ISZERO PUSH2 0x12BA JUMPI DUP1 DUP3 MUL SWAP2 POP JUMPDEST DUP1 DUP2 MUL SWAP1 POP PUSH2 0x12C8 DUP6 PUSH2 0x161B JUMP JUMPDEST SWAP5 POP PUSH2 0x128F JUMP JUMPDEST SWAP5 POP SWAP5 SWAP3 POP POP POP JUMP JUMPDEST PUSH1 0x0 PUSH2 0x12E3 DUP3 PUSH2 0x14B6 JUMP JUMPDEST SWAP2 POP PUSH2 0x12EE DUP4 PUSH2 0x14B6 JUMP JUMPDEST SWAP3 POP PUSH2 0x131B PUSH32 0xFFFFFFFFFFFFFFFFFFFFFFFFFFFFFFFFFFFFFFFFFFFFFFFFFFFFFFFFFFFFFFFF DUP5 DUP5 PUSH2 0x1323 JUMP JUMPDEST SWAP1 POP SWAP3 SWAP2 POP POP JUMP JUMPDEST PUSH1 0x0 DUP3 PUSH2 0x1333 JUMPI PUSH1 0x1 SWAP1 POP PUSH2 0x13EF JUMP JUMPDEST DUP2 PUSH2 0x1341 JUMPI PUSH1 0x0 SWAP1 POP PUSH2 0x13EF JUMP JUMPDEST DUP2 PUSH1 0x1 DUP2 EQ PUSH2 0x1357 JUMPI PUSH1 0x2 DUP2 EQ PUSH2 0x1361 JUMPI PUSH2 0x1390 JUMP JUMPDEST PUSH1 0x1 SWAP2 POP POP PUSH2 0x13EF JUMP JUMPDEST PUSH1 0xFF DUP5 GT ISZERO PUSH2 0x1373 JUMPI PUSH2 0x1372 PUSH2 0x157D JUMP JUMPDEST JUMPDEST DUP4 PUSH1 0x2 EXP SWAP2 POP DUP5 DUP3 GT ISZERO PUSH2 0x138A JUMPI PUSH2 0x1389 PUSH2 0x157D JUMP JUMPDEST JUMPDEST POP PUSH2 0x13EF JUMP JUMPDEST POP PUSH1 0x20 DUP4 LT PUSH2 0x133 DUP4 LT AND PUSH1 0x4E DUP5 LT PUSH1 0xB DUP5 LT AND OR ISZERO PUSH2 0x13C5 JUMPI DUP3 DUP3 EXP SWAP1 POP DUP4 DUP2 GT ISZERO PUSH2 0x13C0 JUMPI PUSH2 0x13BF PUSH2 0x157D JUMP JUMPDEST JUMPDEST PUSH2 0x13EF JUMP JUMPDEST PUSH2 0x13D2 DUP5 DUP5 DUP5 PUSH1 0x1 PUSH2 0x1285 JUMP JUMPDEST SWAP3 POP SWAP1 POP DUP2 DUP5 DIV DUP2 GT ISZERO PUSH2 0x13E9 JUMPI PUSH2 0x13E8 PUSH2 0x157D JUMP JUMPDEST JUMPDEST DUP2 DUP2 MUL SWAP1 POP JUMPDEST SWAP4 SWAP3 POP POP POP JUMP JUMPDEST PUSH1 0x0 PUSH2 0x1401 DUP3 PUSH2 0x14B6 JUMP JUMPDEST SWAP2 POP PUSH2 0x140C DUP4 PUSH2 0x14B6 JUMP JUMPDEST SWAP3 POP DUP2 PUSH32 0xFFFFFFFFFFFFFFFFFFFFFFFFFFFFFFFFFFFFFFFFFFFFFFFFFFFFFFFFFFFFFFFF DIV DUP4 GT DUP3 ISZERO ISZERO AND ISZERO PUSH2 0x1445 JUMPI PUSH2 0x1444 PUSH2 0x157D JUMP JUMPDEST JUMPDEST DUP3 DUP3 MUL SWAP1 POP SWAP3 SWAP2 POP POP JUMP JUMPDEST PUSH1 0x0 PUSH2 0x145B DUP3 PUSH2 0x14B6 JUMP JUMPDEST SWAP2 POP PUSH2 0x1466 DUP4 PUSH2 0x14B6 JUMP JUMPDEST SWAP3 POP DUP3 DUP3 LT ISZERO PUSH2 0x1479 JUMPI PUSH2 0x1478 PUSH2 0x157D JUMP JUMPDEST JUMPDEST DUP3 DUP3 SUB SWAP1 POP SWAP3 SWAP2 POP POP JUMP JUMPDEST PUSH1 0x0 PUSH2 0x148F DUP3 PUSH2 0x1496 JUMP JUMPDEST SWAP1 POP SWAP2 SWAP1 POP JUMP JUMPDEST PUSH1 0x0 PUSH20 0xFFFFFFFFFFFFFFFFFFFFFFFFFFFFFFFFFFFFFFFF DUP3 AND SWAP1 POP SWAP2 SWAP1 POP JUMP JUMPDEST PUSH1 0x0 DUP2 SWAP1 POP SWAP2 SWAP1 POP JUMP JUMPDEST DUP3 DUP2 DUP4 CALLDATACOPY PUSH1 0x0 DUP4 DUP4 ADD MSTORE POP POP POP JUMP JUMPDEST PUSH1 0x0 JUMPDEST DUP4 DUP2 LT ISZERO PUSH2 0x14ED JUMPI DUP1 DUP3 ADD MLOAD DUP2 DUP5 ADD MSTORE PUSH1 0x20 DUP2 ADD SWAP1 POP PUSH2 0x14D2 JUMP JUMPDEST DUP4 DUP2 GT ISZERO PUSH2 0x14FC JUMPI PUSH1 0x0 DUP5 DUP5 ADD MSTORE JUMPDEST POP POP POP POP JUMP JUMPDEST PUSH1 0x0 PUSH1 0x2 DUP3 DIV SWAP1 POP PUSH1 0x1 DUP3 AND DUP1 PUSH2 0x151A JUMPI PUSH1 0x7F DUP3 AND SWAP2 POP JUMPDEST PUSH1 0x20 DUP3 LT DUP2 EQ ISZERO PUSH2 0x152E JUMPI PUSH2 0x152D PUSH2 0x15AC JUMP JUMPDEST JUMPDEST POP SWAP2 SWAP1 POP JUMP JUMPDEST PUSH1 0x0 PUSH2 0x153F DUP3 PUSH2 0x14B6 JUMP JUMPDEST SWAP2 POP PUSH32 0xFFFFFFFFFFFFFFFFFFFFFFFFFFFFFFFFFFFFFFFFFFFFFFFFFFFFFFFFFFFFFFFF DUP3 EQ ISZERO PUSH2 0x1572 JUMPI PUSH2 0x1571 PUSH2 0x157D JUMP JUMPDEST JUMPDEST PUSH1 0x1 DUP3 ADD SWAP1 POP SWAP2 SWAP1 POP JUMP JUMPDEST PUSH32 0x4E487B7100000000000000000000000000000000000000000000000000000000 PUSH1 0x0 MSTORE PUSH1 0x11 PUSH1 0x4 MSTORE PUSH1 0x24 PUSH1 0x0 REVERT JUMPDEST PUSH32 0x4E487B7100000000000000000000000000000000000000000000000000000000 PUSH1 0x0 MSTORE PUSH1 0x22 PUSH1 0x4 MSTORE PUSH1 0x24 PUSH1 0x0 REVERT JUMPDEST PUSH32 0x4E487B7100000000000000000000000000000000000000000000000000000000 PUSH1 0x0 MSTORE PUSH1 0x41 PUSH1 0x4 MSTORE PUSH1 0x24 PUSH1 0x0 REVERT JUMPDEST PUSH1 0x0 PUSH1 0x1F NOT PUSH1 0x1F DUP4 ADD AND SWAP1 POP SWAP2 SWAP1 POP JUMP JUMPDEST PUSH1 0x0 DUP2 PUSH1 0x1 SHR SWAP1 POP SWAP2 SWAP1 POP JUMP JUMPDEST PUSH2 0x1631 DUP2 PUSH2 0x1484 JUMP JUMPDEST DUP2 EQ PUSH2 0x163C JUMPI PUSH1 0x0 DUP1 REVERT JUMPDEST POP JUMP JUMPDEST PUSH2 0x1648 DUP2 PUSH2 0x14B6 JUMP JUMPDEST DUP2 EQ PUSH2 0x1653 JUMPI PUSH1 0x0 DUP1 REVERT JUMPDEST POP JUMP INVALID LOG2 PUSH5 0x6970667358 0x22 SLT KECCAK256 OR DUP3 DUP8 PUSH27 0x32951921DF95F76D2FB0EFBE6CCFC22DC5E83A7FD14F449AE78593 0x2A PUSH5 0x736F6C6343 STOP ADDMOD STOP STOP CALLER "
				},
				"gasEstimates": {
					"creation": {
						"codeDepositCost": "1154400",
						"executionCost": "infinite",
						"totalCost": "infinite"
					},
					"external": {
						"addProposal(uint256,uint256,address,uint256,string)": "infinite",
						"getOptions()": "infinite",
						"getProposalStructure(uint256)": "infinite",
						"opopop(uint256)": "infinite",
						"proposalCount()": "1173",
						"proposals(uint256)": "infinite",
						"smt(string)": "infinite"
					}
				},
				"methodIdentifiers": {
					"addProposal(uint256,uint256,address,uint256,string)": "acddf707",
					"getOptions()": "cc2ee196",
					"getProposalStructure(uint256)": "e9d6c6da",
					"opopop(uint256)": "b723a32c",
					"proposalCount()": "da35c664",
					"proposals(uint256)": "013cf08b",
					"smt(string)": "96caabb8"
				}
			},
			"storageLayout": {
				"storage": [
					{
						"astId": 28,
						"contract": "contracts/proposal.sol:TestProposal",
						"label": "proposals",
						"offset": 0,
						"slot": "0",
						"type": "t_mapping(t_uint256,t_struct(Proposal)16_storage)"
					},
					{
						"astId": 30,
						"contract": "contracts/proposal.sol:TestProposal",
						"label": "proposalCount",
						"offset": 0,
						"slot": "1",
						"type": "t_uint256"
					},
					{
						"astId": 91,
						"contract": "contracts/proposal.sol:TestProposal",
						"label": "opopop",
						"offset": 0,
						"slot": "2",
						"type": "t_array(t_string_storage)dyn_storage"
					}
				],
				"types": {
					"t_address": {
						"encoding": "inplace",
						"label": "address",
						"numberOfBytes": "20"
					},
					"t_array(t_string_storage)dyn_storage": {
						"base": "t_string_storage",
						"encoding": "dynamic_array",
						"label": "string[]",
						"numberOfBytes": "32"
					},
					"t_mapping(t_uint256,t_struct(Proposal)16_storage)": {
						"encoding": "mapping",
						"key": "t_uint256",
						"label": "mapping(uint256 => struct TestProposal.Proposal)",
						"numberOfBytes": "32",
						"value": "t_struct(Proposal)16_storage"
					},
					"t_string_storage": {
						"encoding": "bytes",
						"label": "string",
						"numberOfBytes": "32"
					},
					"t_struct(Proposal)16_storage": {
						"encoding": "inplace",
						"label": "struct TestProposal.Proposal",
						"members": [
							{
								"astId": 7,
								"contract": "contracts/proposal.sol:TestProposal",
								"label": "proposalId",
								"offset": 0,
								"slot": "0",
								"type": "t_uint256"
							},
							{
								"astId": 9,
								"contract": "contracts/proposal.sol:TestProposal",
								"label": "proposalStatus",
								"offset": 0,
								"slot": "1",
								"type": "t_uint256"
							},
							{
								"astId": 11,
								"contract": "contracts/proposal.sol:TestProposal",
								"label": "proposalCreator",
								"offset": 0,
								"slot": "2",
								"type": "t_address"
							},
							{
								"astId": 13,
								"contract": "contracts/proposal.sol:TestProposal",
								"label": "proposalNumOfOptions",
								"offset": 0,
								"slot": "3",
								"type": "t_uint256"
							},
							{
								"astId": 15,
								"contract": "contracts/proposal.sol:TestProposal",
								"label": "proposalOptions",
								"offset": 0,
								"slot": "4",
								"type": "t_string_storage"
							}
						],
						"numberOfBytes": "160"
					},
					"t_uint256": {
						"encoding": "inplace",
						"label": "uint256",
						"numberOfBytes": "32"
					}
				}
			},
			"userdoc": {
				"kind": "user",
				"methods": {},
				"version": 1
			}
		}
	}
}