{
	"contracts/fun_stuff.sol": {
		"VoteSaving": {
			"abi": [
				{
					"inputs": [],
					"stateMutability": "nonpayable",
					"type": "constructor"
				},
				{
					"anonymous": false,
					"inputs": [
						{
							"indexed": true,
							"internalType": "uint256",
							"name": "_memberId",
							"type": "uint256"
						}
					],
					"name": "savingEvent",
					"type": "event"
				},
				{
					"inputs": [
						{
							"internalType": "string",
							"name": "_name",
							"type": "string"
						},
						{
							"internalType": "bool",
							"name": "_isVote",
							"type": "bool"
						}
					],
					"name": "addMember",
					"outputs": [],
					"stateMutability": "nonpayable",
					"type": "function"
				},
				{
					"inputs": [
						{
							"internalType": "bool",
							"name": "_isVote",
							"type": "bool"
						}
					],
					"name": "getCountOfVoted",
					"outputs": [
						{
							"internalType": "uint256",
							"name": "",
							"type": "uint256"
						}
					],
					"stateMutability": "view",
					"type": "function"
				},
				{
					"inputs": [
						{
							"internalType": "uint256",
							"name": "_memberId",
							"type": "uint256"
						}
					],
					"name": "getMemberStructure",
					"outputs": [
						{
							"components": [
								{
									"internalType": "uint256",
									"name": "id",
									"type": "uint256"
								},
								{
									"internalType": "string",
									"name": "name",
									"type": "string"
								},
								{
									"internalType": "bool",
									"name": "isVoted",
									"type": "bool"
								}
							],
							"internalType": "struct VoteSaving.Member",
							"name": "",
							"type": "tuple"
						}
					],
					"stateMutability": "view",
					"type": "function"
				},
				{
					"inputs": [],
					"name": "getMemberValue",
					"outputs": [
						{
							"internalType": "uint256[]",
							"name": "",
							"type": "uint256[]"
						},
						{
							"internalType": "string[]",
							"name": "",
							"type": "string[]"
						},
						{
							"internalType": "bool[]",
							"name": "",
							"type": "bool[]"
						}
					],
					"stateMutability": "view",
					"type": "function"
				},
				{
					"inputs": [
						{
							"internalType": "bool",
							"name": "_isVoted",
							"type": "bool"
						}
					],
					"name": "getVotedMember",
					"outputs": [
						{
							"components": [
								{
									"internalType": "uint256",
									"name": "id",
									"type": "uint256"
								},
								{
									"internalType": "string",
									"name": "name",
									"type": "string"
								},
								{
									"internalType": "bool",
									"name": "isVoted",
									"type": "bool"
								}
							],
							"internalType": "struct VoteSaving.Member[]",
							"name": "",
							"type": "tuple[]"
						}
					],
					"stateMutability": "view",
					"type": "function"
				},
				{
					"inputs": [],
					"name": "memberCount",
					"outputs": [
						{
							"internalType": "uint256",
							"name": "",
							"type": "uint256"
						}
					],
					"stateMutability": "view",
					"type": "function"
				},
				{
					"inputs": [
						{
							"internalType": "uint256",
							"name": "",
							"type": "uint256"
						}
					],
					"name": "members",
					"outputs": [
						{
							"internalType": "uint256",
							"name": "id",
							"type": "uint256"
						},
						{
							"internalType": "string",
							"name": "name",
							"type": "string"
						},
						{
							"internalType": "bool",
							"name": "isVoted",
							"type": "bool"
						}
					],
					"stateMutability": "view",
					"type": "function"
				},
				{
					"inputs": [
						{
							"internalType": "uint256",
							"name": "_memberId",
							"type": "uint256"
						},
						{
							"internalType": "bool",
							"name": "_isVote",
							"type": "bool"
						}
					],
					"name": "setVote",
					"outputs": [],
					"stateMutability": "nonpayable",
					"type": "function"
				},
				{
					"inputs": [
						{
							"internalType": "uint256",
							"name": "",
							"type": "uint256"
						}
					],
					"name": "votedMembers",
					"outputs": [
						{
							"internalType": "uint256",
							"name": "",
							"type": "uint256"
						}
					],
					"stateMutability": "view",
					"type": "function"
				}
			],
			"devdoc": {
				"methods": {}
			},
			"evm": {
				"assembly": "    /* \"contracts/fun_stuff.sol\":95:2706  contract VoteSaving {\r... */\n  mstore(0x40, 0x80)\n    /* \"contracts/fun_stuff.sol\":340:674  constructor() public {\r... */\n  callvalue\n    /* \"--CODEGEN--\":8:17   */\n  dup1\n    /* \"--CODEGEN--\":5:7   */\n  iszero\n  tag_1\n  jumpi\n    /* \"--CODEGEN--\":30:31   */\n  0x00\n    /* \"--CODEGEN--\":27:28   */\n  dup1\n    /* \"--CODEGEN--\":20:32   */\n  revert\n    /* \"--CODEGEN--\":5:7   */\ntag_1:\n    /* \"contracts/fun_stuff.sol\":340:674  constructor() public {\r... */\n  pop\n    /* \"contracts/fun_stuff.sol\":386:387  0 */\n  0x00\n    /* \"contracts/fun_stuff.sol\":372:383  memberCount */\n  0x01\n    /* \"contracts/fun_stuff.sol\":372:387  memberCount = 0 */\n  dup2\n  swap1\n  sstore\n  pop\n    /* \"contracts/fun_stuff.sol\":398:421  addMember(\"Vlad\", true) */\n  tag_4\n  mload(0x40)\n  dup1\n  0x40\n  add\n  0x40\n  mstore\n  dup1\n  0x04\n  dup2\n  mstore\n  0x20\n  add\n  0x566c616400000000000000000000000000000000000000000000000000000000\n  dup2\n  mstore\n  pop\n    /* \"contracts/fun_stuff.sol\":416:420  true */\n  0x01\n    /* \"contracts/fun_stuff.sol\":398:407  addMember */\n  shl(0x20, tag_5)\n    /* \"contracts/fun_stuff.sol\":398:421  addMember(\"Vlad\", true) */\n  0x20\n  shr\n  jump\t// in\ntag_4:\n    /* \"contracts/fun_stuff.sol\":432:455  addMember(\"Nika\", true) */\n  tag_6\n  mload(0x40)\n  dup1\n  0x40\n  add\n  0x40\n  mstore\n  dup1\n  0x04\n  dup2\n  mstore\n  0x20\n  add\n  0x4e696b6100000000000000000000000000000000000000000000000000000000\n  dup2\n  mstore\n  pop\n    /* \"contracts/fun_stuff.sol\":450:454  true */\n  0x01\n    /* \"contracts/fun_stuff.sol\":432:441  addMember */\n  shl(0x20, tag_5)\n    /* \"contracts/fun_stuff.sol\":432:455  addMember(\"Nika\", true) */\n  0x20\n  shr\n  jump\t// in\ntag_6:\n    /* \"contracts/fun_stuff.sol\":466:491  addMember(\"Nastya\", true) */\n  tag_7\n  mload(0x40)\n  dup1\n  0x40\n  add\n  0x40\n  mstore\n  dup1\n  0x06\n  dup2\n  mstore\n  0x20\n  add\n  0x4e61737479610000000000000000000000000000000000000000000000000000\n  dup2\n  mstore\n  pop\n    /* \"contracts/fun_stuff.sol\":486:490  true */\n  0x01\n    /* \"contracts/fun_stuff.sol\":466:475  addMember */\n  shl(0x20, tag_5)\n    /* \"contracts/fun_stuff.sol\":466:491  addMember(\"Nastya\", true) */\n  0x20\n  shr\n  jump\t// in\ntag_7:\n    /* \"contracts/fun_stuff.sol\":502:527  addMember(\"Danya\", false) */\n  tag_8\n  mload(0x40)\n  dup1\n  0x40\n  add\n  0x40\n  mstore\n  dup1\n  0x05\n  dup2\n  mstore\n  0x20\n  add\n  0x44616e7961000000000000000000000000000000000000000000000000000000\n  dup2\n  mstore\n  pop\n    /* \"contracts/fun_stuff.sol\":521:526  false */\n  0x00\n    /* \"contracts/fun_stuff.sol\":502:511  addMember */\n  shl(0x20, tag_5)\n    /* \"contracts/fun_stuff.sol\":502:527  addMember(\"Danya\", false) */\n  0x20\n  shr\n  jump\t// in\ntag_8:\n    /* \"contracts/fun_stuff.sol\":538:563  addMember(\"Gosha\", false) */\n  tag_9\n  mload(0x40)\n  dup1\n  0x40\n  add\n  0x40\n  mstore\n  dup1\n  0x05\n  dup2\n  mstore\n  0x20\n  add\n  0x476f736861000000000000000000000000000000000000000000000000000000\n  dup2\n  mstore\n  pop\n    /* \"contracts/fun_stuff.sol\":557:562  false */\n  0x00\n    /* \"contracts/fun_stuff.sol\":538:547  addMember */\n  shl(0x20, tag_5)\n    /* \"contracts/fun_stuff.sol\":538:563  addMember(\"Gosha\", false) */\n  0x20\n  shr\n  jump\t// in\ntag_9:\n    /* \"contracts/fun_stuff.sol\":574:598  addMember(\"Anya\", false) */\n  tag_10\n  mload(0x40)\n  dup1\n  0x40\n  add\n  0x40\n  mstore\n  dup1\n  0x04\n  dup2\n  mstore\n  0x20\n  add\n  0x416e796100000000000000000000000000000000000000000000000000000000\n  dup2\n  mstore\n  pop\n    /* \"contracts/fun_stuff.sol\":592:597  false */\n  0x00\n    /* \"contracts/fun_stuff.sol\":574:583  addMember */\n  shl(0x20, tag_5)\n    /* \"contracts/fun_stuff.sol\":574:598  addMember(\"Anya\", false) */\n  0x20\n  shr\n  jump\t// in\ntag_10:\n    /* \"contracts/fun_stuff.sol\":609:632  addMember(\"Lera\", true) */\n  tag_11\n  mload(0x40)\n  dup1\n  0x40\n  add\n  0x40\n  mstore\n  dup1\n  0x04\n  dup2\n  mstore\n  0x20\n  add\n  0x4c65726100000000000000000000000000000000000000000000000000000000\n  dup2\n  mstore\n  pop\n    /* \"contracts/fun_stuff.sol\":627:631  true */\n  0x01\n    /* \"contracts/fun_stuff.sol\":609:618  addMember */\n  shl(0x20, tag_5)\n    /* \"contracts/fun_stuff.sol\":609:632  addMember(\"Lera\", true) */\n  0x20\n  shr\n  jump\t// in\ntag_11:\n    /* \"contracts/fun_stuff.sol\":643:666  addMember(\"Vita\", true) */\n  tag_12\n  mload(0x40)\n  dup1\n  0x40\n  add\n  0x40\n  mstore\n  dup1\n  0x04\n  dup2\n  mstore\n  0x20\n  add\n  0x5669746100000000000000000000000000000000000000000000000000000000\n  dup2\n  mstore\n  pop\n    /* \"contracts/fun_stuff.sol\":661:665  true */\n  0x01\n    /* \"contracts/fun_stuff.sol\":643:652  addMember */\n  shl(0x20, tag_5)\n    /* \"contracts/fun_stuff.sol\":643:666  addMember(\"Vita\", true) */\n  0x20\n  shr\n  jump\t// in\ntag_12:\n    /* \"contracts/fun_stuff.sol\":95:2706  contract VoteSaving {\r... */\n  jump(tag_13)\n    /* \"contracts/fun_stuff.sol\":682:844  function addMember(string memory _name, bool _isVote) public {\r... */\ntag_5:\n    /* \"contracts/fun_stuff.sol\":777:812  Member(memberCount, _name, _isVote) */\n  mload(0x40)\n  dup1\n  0x60\n  add\n  0x40\n  mstore\n  dup1\n    /* \"contracts/fun_stuff.sol\":784:795  memberCount */\n  sload(0x01)\n    /* \"contracts/fun_stuff.sol\":777:812  Member(memberCount, _name, _isVote) */\n  dup2\n  mstore\n  0x20\n  add\n    /* \"contracts/fun_stuff.sol\":797:802  _name */\n  dup4\n    /* \"contracts/fun_stuff.sol\":777:812  Member(memberCount, _name, _isVote) */\n  dup2\n  mstore\n  0x20\n  add\n    /* \"contracts/fun_stuff.sol\":804:811  _isVote */\n  dup3\n    /* \"contracts/fun_stuff.sol\":777:812  Member(memberCount, _name, _isVote) */\n  iszero\n  iszero\n  dup2\n  mstore\n  pop\n    /* \"contracts/fun_stuff.sol\":754:761  members */\n  0x00\n    /* \"contracts/fun_stuff.sol\":754:774  members[memberCount] */\n  dup1\n    /* \"contracts/fun_stuff.sol\":762:773  memberCount */\n  sload(0x01)\n    /* \"contracts/fun_stuff.sol\":754:774  members[memberCount] */\n  dup2\n  mstore\n  0x20\n  add\n  swap1\n  dup2\n  mstore\n  0x20\n  add\n  0x00\n  keccak256\n    /* \"contracts/fun_stuff.sol\":754:812  members[memberCount] = Member(memberCount, _name, _isVote) */\n  0x00\n  dup3\n  add\n  mload\n  dup2\n  0x00\n  add\n  sstore\n  0x20\n  dup3\n  add\n  mload\n  dup2\n  0x01\n  add\n  swap1\n  dup1\n  mload\n  swap1\n  0x20\n  add\n  swap1\n  tag_15\n  swap3\n  swap2\n  swap1\n  tag_16\n  jump\t// in\ntag_15:\n  pop\n  0x40\n  dup3\n  add\n  mload\n  dup2\n  0x02\n  add\n  exp(0x0100, 0x00)\n  dup2\n  sload\n  dup2\n  0xff\n  mul\n  not\n  and\n  swap1\n  dup4\n  iszero\n  iszero\n  mul\n  or\n  swap1\n  sstore\n  pop\n  swap1\n  pop\n  pop\n    /* \"contracts/fun_stuff.sol\":823:834  memberCount */\n  0x01\n  0x00\n    /* \"contracts/fun_stuff.sol\":823:836  memberCount++ */\n  dup2\n  sload\n  dup1\n  swap3\n  swap2\n  swap1\n  0x01\n  add\n  swap2\n  swap1\n  pop\n  sstore\n  pop\n    /* \"contracts/fun_stuff.sol\":682:844  function addMember(string memory _name, bool _isVote) public {\r... */\n  pop\n  pop\n  jump\t// out\n    /* \"contracts/fun_stuff.sol\":95:2706  contract VoteSaving {\r... */\ntag_16:\n  dup3\n  dup1\n  sload\n  0x01\n  dup2\n  0x01\n  and\n  iszero\n  0x0100\n  mul\n  sub\n  and\n  0x02\n  swap1\n  div\n  swap1\n  0x00\n  mstore\n  keccak256(0x00, 0x20)\n  swap1\n  0x1f\n  add\n  0x20\n  swap1\n  div\n  dup2\n  add\n  swap3\n  dup3\n  0x1f\n  lt\n  tag_18\n  jumpi\n  dup1\n  mload\n  not(0xff)\n  and\n  dup4\n  dup1\n  add\n  or\n  dup6\n  sstore\n  jump(tag_17)\ntag_18:\n  dup3\n  dup1\n  add\n  0x01\n  add\n  dup6\n  sstore\n  dup3\n  iszero\n  tag_17\n  jumpi\n  swap2\n  dup3\n  add\ntag_19:\n  dup3\n  dup2\n  gt\n  iszero\n  tag_20\n  jumpi\n  dup3\n  mload\n  dup3\n  sstore\n  swap2\n  0x20\n  add\n  swap2\n  swap1\n  0x01\n  add\n  swap1\n  jump(tag_19)\ntag_20:\ntag_17:\n  pop\n  swap1\n  pop\n  tag_21\n  swap2\n  swap1\n  tag_22\n  jump\t// in\ntag_21:\n  pop\n  swap1\n  jump\t// out\ntag_22:\n  tag_23\n  swap2\n  swap1\ntag_24:\n  dup1\n  dup3\n  gt\n  iszero\n  tag_25\n  jumpi\n  0x00\n  dup2\n  0x00\n  swap1\n  sstore\n  pop\n  0x01\n  add\n  jump(tag_24)\ntag_25:\n  pop\n  swap1\n  jump\ntag_23:\n  swap1\n  jump\t// out\ntag_13:\n  dataSize(sub_0)\n  dup1\n  dataOffset(sub_0)\n  0x00\n  codecopy\n  0x00\n  return\nstop\n\nsub_0: assembly {\n        /* \"contracts/fun_stuff.sol\":95:2706  contract VoteSaving {\r... */\n      mstore(0x40, 0x80)\n      callvalue\n        /* \"--CODEGEN--\":8:17   */\n      dup1\n        /* \"--CODEGEN--\":5:7   */\n      iszero\n      tag_1\n      jumpi\n        /* \"--CODEGEN--\":30:31   */\n      0x00\n        /* \"--CODEGEN--\":27:28   */\n      dup1\n        /* \"--CODEGEN--\":20:32   */\n      revert\n        /* \"--CODEGEN--\":5:7   */\n    tag_1:\n        /* \"contracts/fun_stuff.sol\":95:2706  contract VoteSaving {\r... */\n      pop\n      jumpi(tag_2, lt(calldatasize, 0x04))\n      shr(0xe0, calldataload(0x00))\n      dup1\n      0x7f44982a\n      gt\n      tag_12\n      jumpi\n      dup1\n      0x7f44982a\n      eq\n      tag_7\n      jumpi\n      dup1\n      0x92c68389\n      eq\n      tag_8\n      jumpi\n      dup1\n      0xab7a2015\n      eq\n      tag_9\n      jumpi\n      dup1\n      0xd3516b7e\n      eq\n      tag_10\n      jumpi\n      dup1\n      0xf97698f8\n      eq\n      tag_11\n      jumpi\n      jump(tag_2)\n    tag_12:\n      dup1\n      0x11aee380\n      eq\n      tag_3\n      jumpi\n      dup1\n      0x18129c54\n      eq\n      tag_4\n      jumpi\n      dup1\n      0x5daf08ca\n      eq\n      tag_5\n      jumpi\n      dup1\n      0x6f416d59\n      eq\n      tag_6\n      jumpi\n    tag_2:\n      0x00\n      dup1\n      revert\n        /* \"contracts/fun_stuff.sol\":308:331  uint public memberCount */\n    tag_3:\n      tag_13\n      tag_14\n      jump\t// in\n    tag_13:\n      mload(0x40)\n      tag_15\n      swap2\n      swap1\n      jump(tag_16)\n    tag_15:\n      mload(0x40)\n      dup1\n      swap2\n      sub\n      swap1\n      return\n        /* \"contracts/fun_stuff.sol\":1343:1369  uint[] public votedMembers */\n    tag_4:\n      tag_17\n      0x04\n      dup1\n      calldatasize\n      sub\n      tag_18\n      swap2\n      swap1\n      dup2\n      add\n      swap1\n      jump(tag_19)\n    tag_18:\n      tag_20\n      jump\t// in\n    tag_17:\n      mload(0x40)\n      tag_21\n      swap2\n      swap1\n      jump(tag_16)\n    tag_21:\n      mload(0x40)\n      dup1\n      swap2\n      sub\n      swap1\n      return\n        /* \"contracts/fun_stuff.sol\":214:253  mapping (uint => Member) public members */\n    tag_5:\n      tag_22\n      0x04\n      dup1\n      calldatasize\n      sub\n      tag_23\n      swap2\n      swap1\n      dup2\n      add\n      swap1\n      jump(tag_19)\n    tag_23:\n      tag_24\n      jump\t// in\n    tag_22:\n      mload(0x40)\n      tag_25\n      swap4\n      swap3\n      swap2\n      swap1\n      jump(tag_26)\n    tag_25:\n      mload(0x40)\n      dup1\n      swap2\n      sub\n      swap1\n      return\n        /* \"contracts/fun_stuff.sol\":2157:2698  function getMemberValue() public view returns(uint[] memory, string[] memory, bool[] memory) {\r... */\n    tag_6:\n      tag_27\n      tag_28\n      jump\t// in\n    tag_27:\n      mload(0x40)\n      tag_29\n      swap4\n      swap3\n      swap2\n      swap1\n      jump(tag_30)\n    tag_29:\n      mload(0x40)\n      dup1\n      swap2\n      sub\n      swap1\n      return\n        /* \"contracts/fun_stuff.sol\":1376:1943  function getVotedMember(bool _isVoted) public view returns(Member[] memory){\r... */\n    tag_7:\n      tag_31\n      0x04\n      dup1\n      calldatasize\n      sub\n      tag_32\n      swap2\n      swap1\n      dup2\n      add\n      swap1\n      jump(tag_33)\n    tag_32:\n      tag_34\n      jump\t// in\n    tag_31:\n      mload(0x40)\n      tag_35\n      swap2\n      swap1\n      jump(tag_36)\n    tag_35:\n      mload(0x40)\n      dup1\n      swap2\n      sub\n      swap1\n      return\n        /* \"contracts/fun_stuff.sol\":682:844  function addMember(string memory _name, bool _isVote) public {\r... */\n    tag_8:\n      tag_37\n      0x04\n      dup1\n      calldatasize\n      sub\n      tag_38\n      swap2\n      swap1\n      dup2\n      add\n      swap1\n      jump(tag_39)\n    tag_38:\n      tag_40\n      jump\t// in\n    tag_37:\n      stop\n        /* \"contracts/fun_stuff.sol\":1048:1335  function getCountOfVoted(bool _isVote) public view returns(uint){\r... */\n    tag_9:\n      tag_41\n      0x04\n      dup1\n      calldatasize\n      sub\n      tag_42\n      swap2\n      swap1\n      dup2\n      add\n      swap1\n      jump(tag_33)\n    tag_42:\n      tag_43\n      jump\t// in\n    tag_41:\n      mload(0x40)\n      tag_44\n      swap2\n      swap1\n      jump(tag_16)\n    tag_44:\n      mload(0x40)\n      dup1\n      swap2\n      sub\n      swap1\n      return\n        /* \"contracts/fun_stuff.sol\":890:999  function setVote(uint _memberId, bool _isVote) public {\r... */\n    tag_10:\n      tag_45\n      0x04\n      dup1\n      calldatasize\n      sub\n      tag_46\n      swap2\n      swap1\n      dup2\n      add\n      swap1\n      jump(tag_47)\n    tag_46:\n      tag_48\n      jump\t// in\n    tag_45:\n      stop\n        /* \"contracts/fun_stuff.sol\":1987:2109  function getMemberStructure(uint _memberId) public view returns(Member memory){\r... */\n    tag_11:\n      tag_49\n      0x04\n      dup1\n      calldatasize\n      sub\n      tag_50\n      swap2\n      swap1\n      dup2\n      add\n      swap1\n      jump(tag_19)\n    tag_50:\n      tag_51\n      jump\t// in\n    tag_49:\n      mload(0x40)\n      tag_52\n      swap2\n      swap1\n      jump(tag_53)\n    tag_52:\n      mload(0x40)\n      dup1\n      swap2\n      sub\n      swap1\n      return\n        /* \"contracts/fun_stuff.sol\":308:331  uint public memberCount */\n    tag_14:\n      sload(0x01)\n      dup2\n      jump\t// out\n        /* \"contracts/fun_stuff.sol\":1343:1369  uint[] public votedMembers */\n    tag_20:\n      0x02\n      dup2\n      dup2\n      sload\n      dup2\n      lt\n      tag_54\n      jumpi\n      invalid\n    tag_54:\n      swap1\n      0x00\n      mstore\n      keccak256(0x00, 0x20)\n      add\n      0x00\n      swap2\n      pop\n      swap1\n      pop\n      sload\n      dup2\n      jump\t// out\n        /* \"contracts/fun_stuff.sol\":214:253  mapping (uint => Member) public members */\n    tag_24:\n      mstore(0x20, 0x00)\n      dup1\n      0x00\n      mstore\n      keccak256(0x00, 0x40)\n      0x00\n      swap2\n      pop\n      swap1\n      pop\n      dup1\n      0x00\n      add\n      sload\n      swap1\n      dup1\n      0x01\n      add\n      dup1\n      sload\n      0x01\n      dup2\n      0x01\n      and\n      iszero\n      0x0100\n      mul\n      sub\n      and\n      0x02\n      swap1\n      div\n      dup1\n      0x1f\n      add\n      0x20\n      dup1\n      swap2\n      div\n      mul\n      0x20\n      add\n      mload(0x40)\n      swap1\n      dup2\n      add\n      0x40\n      mstore\n      dup1\n      swap3\n      swap2\n      swap1\n      dup2\n      dup2\n      mstore\n      0x20\n      add\n      dup3\n      dup1\n      sload\n      0x01\n      dup2\n      0x01\n      and\n      iszero\n      0x0100\n      mul\n      sub\n      and\n      0x02\n      swap1\n      div\n      dup1\n      iszero\n      tag_56\n      jumpi\n      dup1\n      0x1f\n      lt\n      tag_57\n      jumpi\n      0x0100\n      dup1\n      dup4\n      sload\n      div\n      mul\n      dup4\n      mstore\n      swap2\n      0x20\n      add\n      swap2\n      jump(tag_56)\n    tag_57:\n      dup3\n      add\n      swap2\n      swap1\n      0x00\n      mstore\n      keccak256(0x00, 0x20)\n      swap1\n    tag_58:\n      dup2\n      sload\n      dup2\n      mstore\n      swap1\n      0x01\n      add\n      swap1\n      0x20\n      add\n      dup1\n      dup4\n      gt\n      tag_58\n      jumpi\n      dup3\n      swap1\n      sub\n      0x1f\n      and\n      dup3\n      add\n      swap2\n    tag_56:\n      pop\n      pop\n      pop\n      pop\n      pop\n      swap1\n      dup1\n      0x02\n      add\n      0x00\n      swap1\n      sload\n      swap1\n      0x0100\n      exp\n      swap1\n      div\n      0xff\n      and\n      swap1\n      pop\n      dup4\n      jump\t// out\n        /* \"contracts/fun_stuff.sol\":2157:2698  function getMemberValue() public view returns(uint[] memory, string[] memory, bool[] memory) {\r... */\n    tag_28:\n        /* \"contracts/fun_stuff.sol\":2203:2216  uint[] memory */\n      0x60\n        /* \"contracts/fun_stuff.sol\":2218:2233  string[] memory */\n      dup1\n        /* \"contracts/fun_stuff.sol\":2235:2248  bool[] memory */\n      0x60\n        /* \"contracts/fun_stuff.sol\":2261:2282  uint[]      memory id */\n      dup1\n        /* \"contracts/fun_stuff.sol\":2296:2307  memberCount */\n      sload(0x01)\n        /* \"contracts/fun_stuff.sol\":2285:2308  new uint[](memberCount) */\n      mload(0x40)\n      swap1\n      dup1\n      dup3\n      mstore\n      dup1\n      0x20\n      mul\n      0x20\n      add\n      dup3\n      add\n      0x40\n      mstore\n      dup1\n      iszero\n      tag_60\n      jumpi\n      dup2\n      0x20\n      add\n        /* \"--CODEGEN--\":29:31   */\n      0x20\n        /* \"--CODEGEN--\":21:27   */\n      dup3\n        /* \"--CODEGEN--\":17:32   */\n      mul\n        /* \"--CODEGEN--\":117:121   */\n      dup1\n        /* \"--CODEGEN--\":105:115   */\n      codesize\n        /* \"--CODEGEN--\":97:103   */\n      dup4\n        /* \"--CODEGEN--\":88:122   */\n      codecopy\n        /* \"--CODEGEN--\":148:152   */\n      dup1\n        /* \"--CODEGEN--\":140:146   */\n      dup3\n        /* \"--CODEGEN--\":136:153   */\n      add\n        /* \"--CODEGEN--\":126:153   */\n      swap2\n      pop\n        /* \"--CODEGEN--\":0:157   */\n      pop\n        /* \"contracts/fun_stuff.sol\":2285:2308  new uint[](memberCount) */\n      swap1\n      pop\n    tag_60:\n      pop\n        /* \"contracts/fun_stuff.sol\":2261:2308  uint[]      memory id = new uint[](memberCount) */\n      swap1\n      pop\n        /* \"contracts/fun_stuff.sol\":2319:2342  string[]    memory name */\n      0x60\n        /* \"contracts/fun_stuff.sol\":2358:2369  memberCount */\n      sload(0x01)\n        /* \"contracts/fun_stuff.sol\":2345:2370  new string[](memberCount) */\n      mload(0x40)\n      swap1\n      dup1\n      dup3\n      mstore\n      dup1\n      0x20\n      mul\n      0x20\n      add\n      dup3\n      add\n      0x40\n      mstore\n      dup1\n      iszero\n      tag_61\n      jumpi\n      dup2\n      0x20\n      add\n    tag_62:\n      0x60\n      dup2\n      mstore\n      0x20\n      add\n      swap1\n      0x01\n      swap1\n      sub\n      swap1\n      dup2\n      tag_62\n      jumpi\n      swap1\n      pop\n    tag_61:\n      pop\n        /* \"contracts/fun_stuff.sol\":2319:2370  string[]    memory name = new string[](memberCount) */\n      swap1\n      pop\n        /* \"contracts/fun_stuff.sol\":2381:2407  bool[]      memory isVoted */\n      0x60\n        /* \"contracts/fun_stuff.sol\":2421:2432  memberCount */\n      sload(0x01)\n        /* \"contracts/fun_stuff.sol\":2410:2433  new bool[](memberCount) */\n      mload(0x40)\n      swap1\n      dup1\n      dup3\n      mstore\n      dup1\n      0x20\n      mul\n      0x20\n      add\n      dup3\n      add\n      0x40\n      mstore\n      dup1\n      iszero\n      tag_63\n      jumpi\n      dup2\n      0x20\n      add\n        /* \"--CODEGEN--\":29:31   */\n      0x20\n        /* \"--CODEGEN--\":21:27   */\n      dup3\n        /* \"--CODEGEN--\":17:32   */\n      mul\n        /* \"--CODEGEN--\":117:121   */\n      dup1\n        /* \"--CODEGEN--\":105:115   */\n      codesize\n        /* \"--CODEGEN--\":97:103   */\n      dup4\n        /* \"--CODEGEN--\":88:122   */\n      codecopy\n        /* \"--CODEGEN--\":148:152   */\n      dup1\n        /* \"--CODEGEN--\":140:146   */\n      dup3\n        /* \"--CODEGEN--\":136:153   */\n      add\n        /* \"--CODEGEN--\":126:153   */\n      swap2\n      pop\n        /* \"--CODEGEN--\":0:157   */\n      pop\n        /* \"contracts/fun_stuff.sol\":2410:2433  new bool[](memberCount) */\n      swap1\n      pop\n    tag_63:\n      pop\n        /* \"contracts/fun_stuff.sol\":2381:2433  bool[]      memory isVoted = new bool[](memberCount) */\n      swap1\n      pop\n        /* \"contracts/fun_stuff.sol\":2449:2455  uint i */\n      0x00\n        /* \"contracts/fun_stuff.sol\":2458:2459  0 */\n      dup1\n        /* \"contracts/fun_stuff.sol\":2449:2459  uint i = 0 */\n      swap1\n      pop\n        /* \"contracts/fun_stuff.sol\":2444:2654  for (uint i = 0; i < memberCount; i++) {\r... */\n    tag_64:\n        /* \"contracts/fun_stuff.sol\":2465:2476  memberCount */\n      sload(0x01)\n        /* \"contracts/fun_stuff.sol\":2461:2462  i */\n      dup2\n        /* \"contracts/fun_stuff.sol\":2461:2476  i < memberCount */\n      lt\n        /* \"contracts/fun_stuff.sol\":2444:2654  for (uint i = 0; i < memberCount; i++) {\r... */\n      iszero\n      tag_65\n      jumpi\n        /* \"contracts/fun_stuff.sol\":2498:2519  Member storage member */\n      0x00\n        /* \"contracts/fun_stuff.sol\":2522:2529  members */\n      dup1\n        /* \"contracts/fun_stuff.sol\":2522:2532  members[i] */\n      0x00\n        /* \"contracts/fun_stuff.sol\":2530:2531  i */\n      dup4\n        /* \"contracts/fun_stuff.sol\":2522:2532  members[i] */\n      dup2\n      mstore\n      0x20\n      add\n      swap1\n      dup2\n      mstore\n      0x20\n      add\n      0x00\n      keccak256\n        /* \"contracts/fun_stuff.sol\":2498:2532  Member storage member = members[i] */\n      swap1\n      pop\n        /* \"contracts/fun_stuff.sol\":2555:2561  member */\n      dup1\n        /* \"contracts/fun_stuff.sol\":2555:2564  member.id */\n      0x00\n      add\n      sload\n        /* \"contracts/fun_stuff.sol\":2547:2549  id */\n      dup6\n        /* \"contracts/fun_stuff.sol\":2550:2551  i */\n      dup4\n        /* \"contracts/fun_stuff.sol\":2547:2552  id[i] */\n      dup2\n      mload\n      dup2\n      lt\n      tag_67\n      jumpi\n      invalid\n    tag_67:\n      0x20\n      mul\n      0x20\n      add\n      add\n        /* \"contracts/fun_stuff.sol\":2547:2564  id[i] = member.id */\n      dup2\n      dup2\n      mstore\n      pop\n      pop\n        /* \"contracts/fun_stuff.sol\":2589:2595  member */\n      dup1\n        /* \"contracts/fun_stuff.sol\":2589:2600  member.name */\n      0x01\n      add\n        /* \"contracts/fun_stuff.sol\":2579:2600  name[i] = member.name */\n      dup1\n      sload\n      0x01\n      dup2\n      0x01\n      and\n      iszero\n      0x0100\n      mul\n      sub\n      and\n      0x02\n      swap1\n      div\n      dup1\n      0x1f\n      add\n      0x20\n      dup1\n      swap2\n      div\n      mul\n      0x20\n      add\n      mload(0x40)\n      swap1\n      dup2\n      add\n      0x40\n      mstore\n      dup1\n      swap3\n      swap2\n      swap1\n      dup2\n      dup2\n      mstore\n      0x20\n      add\n      dup3\n      dup1\n      sload\n      0x01\n      dup2\n      0x01\n      and\n      iszero\n      0x0100\n      mul\n      sub\n      and\n      0x02\n      swap1\n      div\n      dup1\n      iszero\n      tag_68\n      jumpi\n      dup1\n      0x1f\n      lt\n      tag_69\n      jumpi\n      0x0100\n      dup1\n      dup4\n      sload\n      div\n      mul\n      dup4\n      mstore\n      swap2\n      0x20\n      add\n      swap2\n      jump(tag_68)\n    tag_69:\n      dup3\n      add\n      swap2\n      swap1\n      0x00\n      mstore\n      keccak256(0x00, 0x20)\n      swap1\n    tag_70:\n      dup2\n      sload\n      dup2\n      mstore\n      swap1\n      0x01\n      add\n      swap1\n      0x20\n      add\n      dup1\n      dup4\n      gt\n      tag_70\n      jumpi\n      dup3\n      swap1\n      sub\n      0x1f\n      and\n      dup3\n      add\n      swap2\n    tag_68:\n      pop\n      pop\n      pop\n      pop\n      pop\n        /* \"contracts/fun_stuff.sol\":2579:2583  name */\n      dup5\n        /* \"contracts/fun_stuff.sol\":2584:2585  i */\n      dup4\n        /* \"contracts/fun_stuff.sol\":2579:2586  name[i] */\n      dup2\n      mload\n      dup2\n      lt\n      tag_71\n      jumpi\n      invalid\n    tag_71:\n      0x20\n      mul\n      0x20\n      add\n      add\n        /* \"contracts/fun_stuff.sol\":2579:2600  name[i] = member.name */\n      dup2\n      swap1\n      mstore\n      pop\n        /* \"contracts/fun_stuff.sol\":2628:2634  member */\n      dup1\n        /* \"contracts/fun_stuff.sol\":2628:2642  member.isVoted */\n      0x02\n      add\n      0x00\n      swap1\n      sload\n      swap1\n      0x0100\n      exp\n      swap1\n      div\n      0xff\n      and\n        /* \"contracts/fun_stuff.sol\":2615:2622  isVoted */\n      dup4\n        /* \"contracts/fun_stuff.sol\":2623:2624  i */\n      dup4\n        /* \"contracts/fun_stuff.sol\":2615:2625  isVoted[i] */\n      dup2\n      mload\n      dup2\n      lt\n      tag_72\n      jumpi\n      invalid\n    tag_72:\n      0x20\n      mul\n      0x20\n      add\n      add\n        /* \"contracts/fun_stuff.sol\":2615:2642  isVoted[i] = member.isVoted */\n      swap1\n      iszero\n      iszero\n      swap1\n      dup2\n      iszero\n      iszero\n      dup2\n      mstore\n      pop\n      pop\n        /* \"contracts/fun_stuff.sol\":2444:2654  for (uint i = 0; i < memberCount; i++) {\r... */\n      pop\n        /* \"contracts/fun_stuff.sol\":2478:2481  i++ */\n      dup1\n      dup1\n      0x01\n      add\n      swap2\n      pop\n      pop\n        /* \"contracts/fun_stuff.sol\":2444:2654  for (uint i = 0; i < memberCount; i++) {\r... */\n      jump(tag_64)\n    tag_65:\n      pop\n        /* \"contracts/fun_stuff.sol\":2672:2674  id */\n      dup3\n        /* \"contracts/fun_stuff.sol\":2676:2680  name */\n      dup3\n        /* \"contracts/fun_stuff.sol\":2682:2689  isVoted */\n      dup3\n        /* \"contracts/fun_stuff.sol\":2664:2690  return (id, name, isVoted) */\n      swap6\n      pop\n      swap6\n      pop\n      swap6\n      pop\n      pop\n      pop\n      pop\n        /* \"contracts/fun_stuff.sol\":2157:2698  function getMemberValue() public view returns(uint[] memory, string[] memory, bool[] memory) {\r... */\n      swap1\n      swap2\n      swap3\n      jump\t// out\n        /* \"contracts/fun_stuff.sol\":1376:1943  function getVotedMember(bool _isVoted) public view returns(Member[] memory){\r... */\n    tag_34:\n        /* \"contracts/fun_stuff.sol\":1435:1450  Member[] memory */\n      0x60\n        /* \"contracts/fun_stuff.sol\":1462:1478  uint resultCount */\n      0x00\n        /* \"contracts/fun_stuff.sol\":1496:1502  uint i */\n      dup1\n        /* \"contracts/fun_stuff.sol\":1505:1506  0 */\n      0x00\n        /* \"contracts/fun_stuff.sol\":1496:1506  uint i = 0 */\n      swap1\n      pop\n        /* \"contracts/fun_stuff.sol\":1491:1640  for (uint i = 0; i < memberCount; i++) {\r... */\n    tag_74:\n        /* \"contracts/fun_stuff.sol\":1512:1523  memberCount */\n      sload(0x01)\n        /* \"contracts/fun_stuff.sol\":1508:1509  i */\n      dup2\n        /* \"contracts/fun_stuff.sol\":1508:1523  i < memberCount */\n      lt\n        /* \"contracts/fun_stuff.sol\":1491:1640  for (uint i = 0; i < memberCount; i++) {\r... */\n      iszero\n      tag_75\n      jumpi\n        /* \"contracts/fun_stuff.sol\":1571:1579  _isVoted */\n      dup4\n        /* \"contracts/fun_stuff.sol\":1549:1579  members[i].isVoted == _isVoted */\n      iszero\n      iszero\n        /* \"contracts/fun_stuff.sol\":1549:1556  members */\n      0x00\n        /* \"contracts/fun_stuff.sol\":1549:1559  members[i] */\n      dup1\n        /* \"contracts/fun_stuff.sol\":1557:1558  i */\n      dup4\n        /* \"contracts/fun_stuff.sol\":1549:1559  members[i] */\n      dup2\n      mstore\n      0x20\n      add\n      swap1\n      dup2\n      mstore\n      0x20\n      add\n      0x00\n      keccak256\n        /* \"contracts/fun_stuff.sol\":1549:1567  members[i].isVoted */\n      0x02\n      add\n      0x00\n      swap1\n      sload\n      swap1\n      0x0100\n      exp\n      swap1\n      div\n      0xff\n      and\n        /* \"contracts/fun_stuff.sol\":1549:1579  members[i].isVoted == _isVoted */\n      iszero\n      iszero\n      eq\n        /* \"contracts/fun_stuff.sol\":1545:1629  if (members[i].isVoted == _isVoted) {\r... */\n      iszero\n      tag_77\n      jumpi\n        /* \"contracts/fun_stuff.sol\":1600:1613  resultCount++ */\n      dup2\n      dup1\n      0x01\n      add\n      swap3\n      pop\n      pop\n        /* \"contracts/fun_stuff.sol\":1545:1629  if (members[i].isVoted == _isVoted) {\r... */\n    tag_77:\n        /* \"contracts/fun_stuff.sol\":1525:1528  i++ */\n      dup1\n      dup1\n      0x01\n      add\n      swap2\n      pop\n      pop\n        /* \"contracts/fun_stuff.sol\":1491:1640  for (uint i = 0; i < memberCount; i++) {\r... */\n      jump(tag_74)\n    tag_75:\n      pop\n        /* \"contracts/fun_stuff.sol\":1652:1674  Member[] memory result */\n      0x60\n        /* \"contracts/fun_stuff.sol\":1690:1701  resultCount */\n      dup2\n        /* \"contracts/fun_stuff.sol\":1677:1702  new Member[](resultCount) */\n      mload(0x40)\n      swap1\n      dup1\n      dup3\n      mstore\n      dup1\n      0x20\n      mul\n      0x20\n      add\n      dup3\n      add\n      0x40\n      mstore\n      dup1\n      iszero\n      tag_78\n      jumpi\n      dup2\n      0x20\n      add\n    tag_79:\n      tag_80\n      tag_81\n      jump\t// in\n    tag_80:\n      dup2\n      mstore\n      0x20\n      add\n      swap1\n      0x01\n      swap1\n      sub\n      swap1\n      dup2\n      tag_79\n      jumpi\n      swap1\n      pop\n    tag_78:\n      pop\n        /* \"contracts/fun_stuff.sol\":1652:1702  Member[] memory result = new Member[](resultCount) */\n      swap1\n      pop\n        /* \"contracts/fun_stuff.sol\":1713:1719  uint j */\n      0x00\n        /* \"contracts/fun_stuff.sol\":1735:1741  uint i */\n      dup1\n        /* \"contracts/fun_stuff.sol\":1744:1745  0 */\n      0x00\n        /* \"contracts/fun_stuff.sol\":1735:1745  uint i = 0 */\n      swap1\n      pop\n        /* \"contracts/fun_stuff.sol\":1730:1910  for (uint i = 0; i < memberCount; i++) {\r... */\n    tag_82:\n        /* \"contracts/fun_stuff.sol\":1751:1762  memberCount */\n      sload(0x01)\n        /* \"contracts/fun_stuff.sol\":1747:1748  i */\n      dup2\n        /* \"contracts/fun_stuff.sol\":1747:1762  i < memberCount */\n      lt\n        /* \"contracts/fun_stuff.sol\":1730:1910  for (uint i = 0; i < memberCount; i++) {\r... */\n      iszero\n      tag_83\n      jumpi\n        /* \"contracts/fun_stuff.sol\":1810:1818  _isVoted */\n      dup6\n        /* \"contracts/fun_stuff.sol\":1788:1818  members[i].isVoted == _isVoted */\n      iszero\n      iszero\n        /* \"contracts/fun_stuff.sol\":1788:1795  members */\n      0x00\n        /* \"contracts/fun_stuff.sol\":1788:1798  members[i] */\n      dup1\n        /* \"contracts/fun_stuff.sol\":1796:1797  i */\n      dup4\n        /* \"contracts/fun_stuff.sol\":1788:1798  members[i] */\n      dup2\n      mstore\n      0x20\n      add\n      swap1\n      dup2\n      mstore\n      0x20\n      add\n      0x00\n      keccak256\n        /* \"contracts/fun_stuff.sol\":1788:1806  members[i].isVoted */\n      0x02\n      add\n      0x00\n      swap1\n      sload\n      swap1\n      0x0100\n      exp\n      swap1\n      div\n      0xff\n      and\n        /* \"contracts/fun_stuff.sol\":1788:1818  members[i].isVoted == _isVoted */\n      iszero\n      iszero\n      eq\n        /* \"contracts/fun_stuff.sol\":1784:1899  if (members[i].isVoted == _isVoted) {\r... */\n      iszero\n      tag_85\n      jumpi\n        /* \"contracts/fun_stuff.sol\":1851:1858  members */\n      0x00\n        /* \"contracts/fun_stuff.sol\":1851:1861  members[i] */\n      dup1\n        /* \"contracts/fun_stuff.sol\":1859:1860  i */\n      dup3\n        /* \"contracts/fun_stuff.sol\":1851:1861  members[i] */\n      dup2\n      mstore\n      0x20\n      add\n      swap1\n      dup2\n      mstore\n      0x20\n      add\n      0x00\n      keccak256\n        /* \"contracts/fun_stuff.sol\":1839:1861  result[j] = members[i] */\n      mload(0x40)\n      dup1\n      0x60\n      add\n      0x40\n      mstore\n      swap1\n      dup2\n      0x00\n      dup3\n      add\n      sload\n      dup2\n      mstore\n      0x20\n      add\n      0x01\n      dup3\n      add\n      dup1\n      sload\n      0x01\n      dup2\n      0x01\n      and\n      iszero\n      0x0100\n      mul\n      sub\n      and\n      0x02\n      swap1\n      div\n      dup1\n      0x1f\n      add\n      0x20\n      dup1\n      swap2\n      div\n      mul\n      0x20\n      add\n      mload(0x40)\n      swap1\n      dup2\n      add\n      0x40\n      mstore\n      dup1\n      swap3\n      swap2\n      swap1\n      dup2\n      dup2\n      mstore\n      0x20\n      add\n      dup3\n      dup1\n      sload\n      0x01\n      dup2\n      0x01\n      and\n      iszero\n      0x0100\n      mul\n      sub\n      and\n      0x02\n      swap1\n      div\n      dup1\n      iszero\n      tag_86\n      jumpi\n      dup1\n      0x1f\n      lt\n      tag_87\n      jumpi\n      0x0100\n      dup1\n      dup4\n      sload\n      div\n      mul\n      dup4\n      mstore\n      swap2\n      0x20\n      add\n      swap2\n      jump(tag_86)\n    tag_87:\n      dup3\n      add\n      swap2\n      swap1\n      0x00\n      mstore\n      keccak256(0x00, 0x20)\n      swap1\n    tag_88:\n      dup2\n      sload\n      dup2\n      mstore\n      swap1\n      0x01\n      add\n      swap1\n      0x20\n      add\n      dup1\n      dup4\n      gt\n      tag_88\n      jumpi\n      dup3\n      swap1\n      sub\n      0x1f\n      and\n      dup3\n      add\n      swap2\n    tag_86:\n      pop\n      pop\n      pop\n      pop\n      pop\n      dup2\n      mstore\n      0x20\n      add\n      0x02\n      dup3\n      add\n      0x00\n      swap1\n      sload\n      swap1\n      0x0100\n      exp\n      swap1\n      div\n      0xff\n      and\n      iszero\n      iszero\n      iszero\n      iszero\n      dup2\n      mstore\n      pop\n      pop\n        /* \"contracts/fun_stuff.sol\":1839:1845  result */\n      dup4\n        /* \"contracts/fun_stuff.sol\":1846:1847  j */\n      dup4\n        /* \"contracts/fun_stuff.sol\":1839:1848  result[j] */\n      dup2\n      mload\n      dup2\n      lt\n      tag_89\n      jumpi\n      invalid\n    tag_89:\n      0x20\n      mul\n      0x20\n      add\n      add\n        /* \"contracts/fun_stuff.sol\":1839:1861  result[j] = members[i] */\n      dup2\n      swap1\n      mstore\n      pop\n        /* \"contracts/fun_stuff.sol\":1880:1883  j++ */\n      dup2\n      dup1\n      0x01\n      add\n      swap3\n      pop\n      pop\n        /* \"contracts/fun_stuff.sol\":1784:1899  if (members[i].isVoted == _isVoted) {\r... */\n    tag_85:\n        /* \"contracts/fun_stuff.sol\":1764:1767  i++ */\n      dup1\n      dup1\n      0x01\n      add\n      swap2\n      pop\n      pop\n        /* \"contracts/fun_stuff.sol\":1730:1910  for (uint i = 0; i < memberCount; i++) {\r... */\n      jump(tag_82)\n    tag_83:\n      pop\n        /* \"contracts/fun_stuff.sol\":1929:1935  result */\n      dup2\n        /* \"contracts/fun_stuff.sol\":1922:1935  return result */\n      swap4\n      pop\n      pop\n      pop\n      pop\n        /* \"contracts/fun_stuff.sol\":1376:1943  function getVotedMember(bool _isVoted) public view returns(Member[] memory){\r... */\n      swap2\n      swap1\n      pop\n      jump\t// out\n        /* \"contracts/fun_stuff.sol\":682:844  function addMember(string memory _name, bool _isVote) public {\r... */\n    tag_40:\n        /* \"contracts/fun_stuff.sol\":777:812  Member(memberCount, _name, _isVote) */\n      mload(0x40)\n      dup1\n      0x60\n      add\n      0x40\n      mstore\n      dup1\n        /* \"contracts/fun_stuff.sol\":784:795  memberCount */\n      sload(0x01)\n        /* \"contracts/fun_stuff.sol\":777:812  Member(memberCount, _name, _isVote) */\n      dup2\n      mstore\n      0x20\n      add\n        /* \"contracts/fun_stuff.sol\":797:802  _name */\n      dup4\n        /* \"contracts/fun_stuff.sol\":777:812  Member(memberCount, _name, _isVote) */\n      dup2\n      mstore\n      0x20\n      add\n        /* \"contracts/fun_stuff.sol\":804:811  _isVote */\n      dup3\n        /* \"contracts/fun_stuff.sol\":777:812  Member(memberCount, _name, _isVote) */\n      iszero\n      iszero\n      dup2\n      mstore\n      pop\n        /* \"contracts/fun_stuff.sol\":754:761  members */\n      0x00\n        /* \"contracts/fun_stuff.sol\":754:774  members[memberCount] */\n      dup1\n        /* \"contracts/fun_stuff.sol\":762:773  memberCount */\n      sload(0x01)\n        /* \"contracts/fun_stuff.sol\":754:774  members[memberCount] */\n      dup2\n      mstore\n      0x20\n      add\n      swap1\n      dup2\n      mstore\n      0x20\n      add\n      0x00\n      keccak256\n        /* \"contracts/fun_stuff.sol\":754:812  members[memberCount] = Member(memberCount, _name, _isVote) */\n      0x00\n      dup3\n      add\n      mload\n      dup2\n      0x00\n      add\n      sstore\n      0x20\n      dup3\n      add\n      mload\n      dup2\n      0x01\n      add\n      swap1\n      dup1\n      mload\n      swap1\n      0x20\n      add\n      swap1\n      tag_91\n      swap3\n      swap2\n      swap1\n      tag_92\n      jump\t// in\n    tag_91:\n      pop\n      0x40\n      dup3\n      add\n      mload\n      dup2\n      0x02\n      add\n      exp(0x0100, 0x00)\n      dup2\n      sload\n      dup2\n      0xff\n      mul\n      not\n      and\n      swap1\n      dup4\n      iszero\n      iszero\n      mul\n      or\n      swap1\n      sstore\n      pop\n      swap1\n      pop\n      pop\n        /* \"contracts/fun_stuff.sol\":823:834  memberCount */\n      0x01\n      0x00\n        /* \"contracts/fun_stuff.sol\":823:836  memberCount++ */\n      dup2\n      sload\n      dup1\n      swap3\n      swap2\n      swap1\n      0x01\n      add\n      swap2\n      swap1\n      pop\n      sstore\n      pop\n        /* \"contracts/fun_stuff.sol\":682:844  function addMember(string memory _name, bool _isVote) public {\r... */\n      pop\n      pop\n      jump\t// out\n        /* \"contracts/fun_stuff.sol\":1048:1335  function getCountOfVoted(bool _isVote) public view returns(uint){\r... */\n    tag_43:\n        /* \"contracts/fun_stuff.sol\":1107:1111  uint */\n      0x00\n        /* \"contracts/fun_stuff.sol\":1123:1138  uint votedCount */\n      dup1\n        /* \"contracts/fun_stuff.sol\":1141:1142  0 */\n      0x00\n        /* \"contracts/fun_stuff.sol\":1123:1142  uint votedCount = 0 */\n      swap1\n      pop\n        /* \"contracts/fun_stuff.sol\":1158:1164  uint i */\n      0x00\n        /* \"contracts/fun_stuff.sol\":1167:1168  0 */\n      dup1\n        /* \"contracts/fun_stuff.sol\":1158:1168  uint i = 0 */\n      swap1\n      pop\n        /* \"contracts/fun_stuff.sol\":1153:1300  for (uint i = 0; i < memberCount; i++) {\r... */\n    tag_94:\n        /* \"contracts/fun_stuff.sol\":1174:1185  memberCount */\n      sload(0x01)\n        /* \"contracts/fun_stuff.sol\":1170:1171  i */\n      dup2\n        /* \"contracts/fun_stuff.sol\":1170:1185  i < memberCount */\n      lt\n        /* \"contracts/fun_stuff.sol\":1153:1300  for (uint i = 0; i < memberCount; i++) {\r... */\n      iszero\n      tag_95\n      jumpi\n        /* \"contracts/fun_stuff.sol\":1233:1240  _isVote */\n      dup4\n        /* \"contracts/fun_stuff.sol\":1211:1240  members[i].isVoted == _isVote */\n      iszero\n      iszero\n        /* \"contracts/fun_stuff.sol\":1211:1218  members */\n      0x00\n        /* \"contracts/fun_stuff.sol\":1211:1221  members[i] */\n      dup1\n        /* \"contracts/fun_stuff.sol\":1219:1220  i */\n      dup4\n        /* \"contracts/fun_stuff.sol\":1211:1221  members[i] */\n      dup2\n      mstore\n      0x20\n      add\n      swap1\n      dup2\n      mstore\n      0x20\n      add\n      0x00\n      keccak256\n        /* \"contracts/fun_stuff.sol\":1211:1229  members[i].isVoted */\n      0x02\n      add\n      0x00\n      swap1\n      sload\n      swap1\n      0x0100\n      exp\n      swap1\n      div\n      0xff\n      and\n        /* \"contracts/fun_stuff.sol\":1211:1240  members[i].isVoted == _isVote */\n      iszero\n      iszero\n      eq\n        /* \"contracts/fun_stuff.sol\":1207:1289  if (members[i].isVoted == _isVote) {\r... */\n      iszero\n      tag_97\n      jumpi\n        /* \"contracts/fun_stuff.sol\":1261:1273  votedCount++ */\n      dup2\n      dup1\n      0x01\n      add\n      swap3\n      pop\n      pop\n        /* \"contracts/fun_stuff.sol\":1207:1289  if (members[i].isVoted == _isVote) {\r... */\n    tag_97:\n        /* \"contracts/fun_stuff.sol\":1187:1190  i++ */\n      dup1\n      dup1\n      0x01\n      add\n      swap2\n      pop\n      pop\n        /* \"contracts/fun_stuff.sol\":1153:1300  for (uint i = 0; i < memberCount; i++) {\r... */\n      jump(tag_94)\n    tag_95:\n      pop\n        /* \"contracts/fun_stuff.sol\":1317:1327  votedCount */\n      dup1\n        /* \"contracts/fun_stuff.sol\":1310:1327  return votedCount */\n      swap2\n      pop\n      pop\n        /* \"contracts/fun_stuff.sol\":1048:1335  function getCountOfVoted(bool _isVote) public view returns(uint){\r... */\n      swap2\n      swap1\n      pop\n      jump\t// out\n        /* \"contracts/fun_stuff.sol\":890:999  function setVote(uint _memberId, bool _isVote) public {\r... */\n    tag_48:\n        /* \"contracts/fun_stuff.sol\":984:991  _isVote */\n      dup1\n        /* \"contracts/fun_stuff.sol\":955:962  members */\n      0x00\n        /* \"contracts/fun_stuff.sol\":955:973  members[_memberId] */\n      dup1\n        /* \"contracts/fun_stuff.sol\":963:972  _memberId */\n      dup5\n        /* \"contracts/fun_stuff.sol\":955:973  members[_memberId] */\n      dup2\n      mstore\n      0x20\n      add\n      swap1\n      dup2\n      mstore\n      0x20\n      add\n      0x00\n      keccak256\n        /* \"contracts/fun_stuff.sol\":955:981  members[_memberId].isVoted */\n      0x02\n      add\n      0x00\n        /* \"contracts/fun_stuff.sol\":955:991  members[_memberId].isVoted = _isVote */\n      0x0100\n      exp\n      dup2\n      sload\n      dup2\n      0xff\n      mul\n      not\n      and\n      swap1\n      dup4\n      iszero\n      iszero\n      mul\n      or\n      swap1\n      sstore\n      pop\n        /* \"contracts/fun_stuff.sol\":890:999  function setVote(uint _memberId, bool _isVote) public {\r... */\n      pop\n      pop\n      jump\t// out\n        /* \"contracts/fun_stuff.sol\":1987:2109  function getMemberStructure(uint _memberId) public view returns(Member memory){\r... */\n    tag_51:\n        /* \"contracts/fun_stuff.sol\":2051:2064  Member memory */\n      tag_99\n      tag_100\n      jump\t// in\n    tag_99:\n        /* \"contracts/fun_stuff.sol\":2083:2090  members */\n      0x00\n        /* \"contracts/fun_stuff.sol\":2083:2101  members[_memberId] */\n      dup1\n        /* \"contracts/fun_stuff.sol\":2091:2100  _memberId */\n      dup4\n        /* \"contracts/fun_stuff.sol\":2083:2101  members[_memberId] */\n      dup2\n      mstore\n      0x20\n      add\n      swap1\n      dup2\n      mstore\n      0x20\n      add\n      0x00\n      keccak256\n        /* \"contracts/fun_stuff.sol\":2076:2101  return members[_memberId] */\n      mload(0x40)\n      dup1\n      0x60\n      add\n      0x40\n      mstore\n      swap1\n      dup2\n      0x00\n      dup3\n      add\n      sload\n      dup2\n      mstore\n      0x20\n      add\n      0x01\n      dup3\n      add\n      dup1\n      sload\n      0x01\n      dup2\n      0x01\n      and\n      iszero\n      0x0100\n      mul\n      sub\n      and\n      0x02\n      swap1\n      div\n      dup1\n      0x1f\n      add\n      0x20\n      dup1\n      swap2\n      div\n      mul\n      0x20\n      add\n      mload(0x40)\n      swap1\n      dup2\n      add\n      0x40\n      mstore\n      dup1\n      swap3\n      swap2\n      swap1\n      dup2\n      dup2\n      mstore\n      0x20\n      add\n      dup3\n      dup1\n      sload\n      0x01\n      dup2\n      0x01\n      and\n      iszero\n      0x0100\n      mul\n      sub\n      and\n      0x02\n      swap1\n      div\n      dup1\n      iszero\n      tag_102\n      jumpi\n      dup1\n      0x1f\n      lt\n      tag_103\n      jumpi\n      0x0100\n      dup1\n      dup4\n      sload\n      div\n      mul\n      dup4\n      mstore\n      swap2\n      0x20\n      add\n      swap2\n      jump(tag_102)\n    tag_103:\n      dup3\n      add\n      swap2\n      swap1\n      0x00\n      mstore\n      keccak256(0x00, 0x20)\n      swap1\n    tag_104:\n      dup2\n      sload\n      dup2\n      mstore\n      swap1\n      0x01\n      add\n      swap1\n      0x20\n      add\n      dup1\n      dup4\n      gt\n      tag_104\n      jumpi\n      dup3\n      swap1\n      sub\n      0x1f\n      and\n      dup3\n      add\n      swap2\n    tag_102:\n      pop\n      pop\n      pop\n      pop\n      pop\n      dup2\n      mstore\n      0x20\n      add\n      0x02\n      dup3\n      add\n      0x00\n      swap1\n      sload\n      swap1\n      0x0100\n      exp\n      swap1\n      div\n      0xff\n      and\n      iszero\n      iszero\n      iszero\n      iszero\n      dup2\n      mstore\n      pop\n      pop\n      swap1\n      pop\n        /* \"contracts/fun_stuff.sol\":1987:2109  function getMemberStructure(uint _memberId) public view returns(Member memory){\r... */\n      swap2\n      swap1\n      pop\n      jump\t// out\n        /* \"contracts/fun_stuff.sol\":95:2706  contract VoteSaving {\r... */\n    tag_81:\n      mload(0x40)\n      dup1\n      0x60\n      add\n      0x40\n      mstore\n      dup1\n      0x00\n      dup2\n      mstore\n      0x20\n      add\n      0x60\n      dup2\n      mstore\n      0x20\n      add\n      iszero(iszero(0x00))\n      dup2\n      mstore\n      pop\n      swap1\n      jump\t// out\n    tag_92:\n      dup3\n      dup1\n      sload\n      0x01\n      dup2\n      0x01\n      and\n      iszero\n      0x0100\n      mul\n      sub\n      and\n      0x02\n      swap1\n      div\n      swap1\n      0x00\n      mstore\n      keccak256(0x00, 0x20)\n      swap1\n      0x1f\n      add\n      0x20\n      swap1\n      div\n      dup2\n      add\n      swap3\n      dup3\n      0x1f\n      lt\n      tag_106\n      jumpi\n      dup1\n      mload\n      not(0xff)\n      and\n      dup4\n      dup1\n      add\n      or\n      dup6\n      sstore\n      jump(tag_105)\n    tag_106:\n      dup3\n      dup1\n      add\n      0x01\n      add\n      dup6\n      sstore\n      dup3\n      iszero\n      tag_105\n      jumpi\n      swap2\n      dup3\n      add\n    tag_107:\n      dup3\n      dup2\n      gt\n      iszero\n      tag_108\n      jumpi\n      dup3\n      mload\n      dup3\n      sstore\n      swap2\n      0x20\n      add\n      swap2\n      swap1\n      0x01\n      add\n      swap1\n      jump(tag_107)\n    tag_108:\n    tag_105:\n      pop\n      swap1\n      pop\n      tag_109\n      swap2\n      swap1\n      tag_110\n      jump\t// in\n    tag_109:\n      pop\n      swap1\n      jump\t// out\n    tag_100:\n      mload(0x40)\n      dup1\n      0x60\n      add\n      0x40\n      mstore\n      dup1\n      0x00\n      dup2\n      mstore\n      0x20\n      add\n      0x60\n      dup2\n      mstore\n      0x20\n      add\n      iszero(iszero(0x00))\n      dup2\n      mstore\n      pop\n      swap1\n      jump\t// out\n    tag_110:\n      tag_111\n      swap2\n      swap1\n    tag_112:\n      dup1\n      dup3\n      gt\n      iszero\n      tag_113\n      jumpi\n      0x00\n      dup2\n      0x00\n      swap1\n      sstore\n      pop\n      0x01\n      add\n      jump(tag_112)\n    tag_113:\n      pop\n      swap1\n      jump\n    tag_111:\n      swap1\n      jump\t// out\n        /* \"--CODEGEN--\":5:129   */\n    tag_115:\n      0x00\n        /* \"--CODEGEN--\":82:88   */\n      dup2\n        /* \"--CODEGEN--\":69:89   */\n      calldataload\n        /* \"--CODEGEN--\":60:89   */\n      swap1\n      pop\n        /* \"--CODEGEN--\":94:124   */\n      tag_117\n        /* \"--CODEGEN--\":118:123   */\n      dup2\n        /* \"--CODEGEN--\":94:124   */\n      jump(tag_118)\n    tag_117:\n        /* \"--CODEGEN--\":54:129   */\n      swap3\n      swap2\n      pop\n      pop\n      jump\n        /* \"--CODEGEN--\":137:579   */\n    tag_119:\n      0x00\n        /* \"--CODEGEN--\":239:242   */\n      dup3\n        /* \"--CODEGEN--\":232:236   */\n      0x1f\n        /* \"--CODEGEN--\":224:230   */\n      dup4\n        /* \"--CODEGEN--\":220:237   */\n      add\n        /* \"--CODEGEN--\":216:243   */\n      slt\n        /* \"--CODEGEN--\":206:208   */\n      tag_121\n      jumpi\n        /* \"--CODEGEN--\":257:258   */\n      0x00\n        /* \"--CODEGEN--\":254:255   */\n      dup1\n        /* \"--CODEGEN--\":247:259   */\n      revert\n        /* \"--CODEGEN--\":206:208   */\n    tag_121:\n        /* \"--CODEGEN--\":294:300   */\n      dup2\n        /* \"--CODEGEN--\":281:301   */\n      calldataload\n        /* \"--CODEGEN--\":316:381   */\n      tag_122\n        /* \"--CODEGEN--\":331:380   */\n      tag_123\n        /* \"--CODEGEN--\":373:379   */\n      dup3\n        /* \"--CODEGEN--\":331:380   */\n      jump(tag_124)\n    tag_123:\n        /* \"--CODEGEN--\":316:381   */\n      jump(tag_125)\n    tag_122:\n        /* \"--CODEGEN--\":307:381   */\n      swap2\n      pop\n        /* \"--CODEGEN--\":401:407   */\n      dup1\n        /* \"--CODEGEN--\":394:399   */\n      dup3\n        /* \"--CODEGEN--\":387:408   */\n      mstore\n        /* \"--CODEGEN--\":437:441   */\n      0x20\n        /* \"--CODEGEN--\":429:435   */\n      dup4\n        /* \"--CODEGEN--\":425:442   */\n      add\n        /* \"--CODEGEN--\":470:474   */\n      0x20\n        /* \"--CODEGEN--\":463:468   */\n      dup4\n        /* \"--CODEGEN--\":459:475   */\n      add\n        /* \"--CODEGEN--\":505:508   */\n      dup6\n        /* \"--CODEGEN--\":496:502   */\n      dup4\n        /* \"--CODEGEN--\":491:494   */\n      dup4\n        /* \"--CODEGEN--\":487:503   */\n      add\n        /* \"--CODEGEN--\":484:509   */\n      gt\n        /* \"--CODEGEN--\":481:483   */\n      iszero\n      tag_126\n      jumpi\n        /* \"--CODEGEN--\":522:523   */\n      0x00\n        /* \"--CODEGEN--\":519:520   */\n      dup1\n        /* \"--CODEGEN--\":512:524   */\n      revert\n        /* \"--CODEGEN--\":481:483   */\n    tag_126:\n        /* \"--CODEGEN--\":532:573   */\n      tag_127\n        /* \"--CODEGEN--\":566:572   */\n      dup4\n        /* \"--CODEGEN--\":561:564   */\n      dup3\n        /* \"--CODEGEN--\":556:559   */\n      dup5\n        /* \"--CODEGEN--\":532:573   */\n      jump(tag_128)\n    tag_127:\n        /* \"--CODEGEN--\":199:579   */\n      pop\n      pop\n      pop\n      swap3\n      swap2\n      pop\n      pop\n      jump\n        /* \"--CODEGEN--\":587:717   */\n    tag_129:\n      0x00\n        /* \"--CODEGEN--\":667:673   */\n      dup2\n        /* \"--CODEGEN--\":654:674   */\n      calldataload\n        /* \"--CODEGEN--\":645:674   */\n      swap1\n      pop\n        /* \"--CODEGEN--\":679:712   */\n      tag_131\n        /* \"--CODEGEN--\":706:711   */\n      dup2\n        /* \"--CODEGEN--\":679:712   */\n      jump(tag_132)\n    tag_131:\n        /* \"--CODEGEN--\":639:717   */\n      swap3\n      swap2\n      pop\n      pop\n      jump\n        /* \"--CODEGEN--\":724:959   */\n    tag_33:\n      0x00\n        /* \"--CODEGEN--\":825:827   */\n      0x20\n        /* \"--CODEGEN--\":813:822   */\n      dup3\n        /* \"--CODEGEN--\":804:811   */\n      dup5\n        /* \"--CODEGEN--\":800:823   */\n      sub\n        /* \"--CODEGEN--\":796:828   */\n      slt\n        /* \"--CODEGEN--\":793:795   */\n      iszero\n      tag_134\n      jumpi\n        /* \"--CODEGEN--\":841:842   */\n      0x00\n        /* \"--CODEGEN--\":838:839   */\n      dup1\n        /* \"--CODEGEN--\":831:843   */\n      revert\n        /* \"--CODEGEN--\":793:795   */\n    tag_134:\n        /* \"--CODEGEN--\":876:877   */\n      0x00\n        /* \"--CODEGEN--\":893:943   */\n      tag_135\n        /* \"--CODEGEN--\":935:942   */\n      dup5\n        /* \"--CODEGEN--\":926:932   */\n      dup3\n        /* \"--CODEGEN--\":915:924   */\n      dup6\n        /* \"--CODEGEN--\":911:933   */\n      add\n        /* \"--CODEGEN--\":893:943   */\n      jump(tag_115)\n    tag_135:\n        /* \"--CODEGEN--\":883:943   */\n      swap2\n      pop\n        /* \"--CODEGEN--\":855:949   */\n      pop\n        /* \"--CODEGEN--\":787:959   */\n      swap3\n      swap2\n      pop\n      pop\n      jump\n        /* \"--CODEGEN--\":966:1432   */\n    tag_39:\n      0x00\n      dup1\n        /* \"--CODEGEN--\":1094:1096   */\n      0x40\n        /* \"--CODEGEN--\":1082:1091   */\n      dup4\n        /* \"--CODEGEN--\":1073:1080   */\n      dup6\n        /* \"--CODEGEN--\":1069:1092   */\n      sub\n        /* \"--CODEGEN--\":1065:1097   */\n      slt\n        /* \"--CODEGEN--\":1062:1064   */\n      iszero\n      tag_137\n      jumpi\n        /* \"--CODEGEN--\":1110:1111   */\n      0x00\n        /* \"--CODEGEN--\":1107:1108   */\n      dup1\n        /* \"--CODEGEN--\":1100:1112   */\n      revert\n        /* \"--CODEGEN--\":1062:1064   */\n    tag_137:\n        /* \"--CODEGEN--\":1173:1174   */\n      0x00\n        /* \"--CODEGEN--\":1162:1171   */\n      dup4\n        /* \"--CODEGEN--\":1158:1175   */\n      add\n        /* \"--CODEGEN--\":1145:1176   */\n      calldataload\n        /* \"--CODEGEN--\":1196:1214   */\n      0xffffffffffffffff\n        /* \"--CODEGEN--\":1188:1194   */\n      dup2\n        /* \"--CODEGEN--\":1185:1215   */\n      gt\n        /* \"--CODEGEN--\":1182:1184   */\n      iszero\n      tag_138\n      jumpi\n        /* \"--CODEGEN--\":1228:1229   */\n      0x00\n        /* \"--CODEGEN--\":1225:1226   */\n      dup1\n        /* \"--CODEGEN--\":1218:1230   */\n      revert\n        /* \"--CODEGEN--\":1182:1184   */\n    tag_138:\n        /* \"--CODEGEN--\":1248:1311   */\n      tag_139\n        /* \"--CODEGEN--\":1303:1310   */\n      dup6\n        /* \"--CODEGEN--\":1294:1300   */\n      dup3\n        /* \"--CODEGEN--\":1283:1292   */\n      dup7\n        /* \"--CODEGEN--\":1279:1301   */\n      add\n        /* \"--CODEGEN--\":1248:1311   */\n      jump(tag_119)\n    tag_139:\n        /* \"--CODEGEN--\":1238:1311   */\n      swap3\n      pop\n        /* \"--CODEGEN--\":1124:1317   */\n      pop\n        /* \"--CODEGEN--\":1348:1350   */\n      0x20\n        /* \"--CODEGEN--\":1366:1416   */\n      tag_140\n        /* \"--CODEGEN--\":1408:1415   */\n      dup6\n        /* \"--CODEGEN--\":1399:1405   */\n      dup3\n        /* \"--CODEGEN--\":1388:1397   */\n      dup7\n        /* \"--CODEGEN--\":1384:1406   */\n      add\n        /* \"--CODEGEN--\":1366:1416   */\n      jump(tag_115)\n    tag_140:\n        /* \"--CODEGEN--\":1356:1416   */\n      swap2\n      pop\n        /* \"--CODEGEN--\":1327:1422   */\n      pop\n        /* \"--CODEGEN--\":1056:1432   */\n      swap3\n      pop\n      swap3\n      swap1\n      pop\n      jump\n        /* \"--CODEGEN--\":1439:1680   */\n    tag_19:\n      0x00\n        /* \"--CODEGEN--\":1543:1545   */\n      0x20\n        /* \"--CODEGEN--\":1531:1540   */\n      dup3\n        /* \"--CODEGEN--\":1522:1529   */\n      dup5\n        /* \"--CODEGEN--\":1518:1541   */\n      sub\n        /* \"--CODEGEN--\":1514:1546   */\n      slt\n        /* \"--CODEGEN--\":1511:1513   */\n      iszero\n      tag_142\n      jumpi\n        /* \"--CODEGEN--\":1559:1560   */\n      0x00\n        /* \"--CODEGEN--\":1556:1557   */\n      dup1\n        /* \"--CODEGEN--\":1549:1561   */\n      revert\n        /* \"--CODEGEN--\":1511:1513   */\n    tag_142:\n        /* \"--CODEGEN--\":1594:1595   */\n      0x00\n        /* \"--CODEGEN--\":1611:1664   */\n      tag_143\n        /* \"--CODEGEN--\":1656:1663   */\n      dup5\n        /* \"--CODEGEN--\":1647:1653   */\n      dup3\n        /* \"--CODEGEN--\":1636:1645   */\n      dup6\n        /* \"--CODEGEN--\":1632:1654   */\n      add\n        /* \"--CODEGEN--\":1611:1664   */\n      jump(tag_129)\n    tag_143:\n        /* \"--CODEGEN--\":1601:1664   */\n      swap2\n      pop\n        /* \"--CODEGEN--\":1573:1670   */\n      pop\n        /* \"--CODEGEN--\":1505:1680   */\n      swap3\n      swap2\n      pop\n      pop\n      jump\n        /* \"--CODEGEN--\":1687:2047   */\n    tag_47:\n      0x00\n      dup1\n        /* \"--CODEGEN--\":1805:1807   */\n      0x40\n        /* \"--CODEGEN--\":1793:1802   */\n      dup4\n        /* \"--CODEGEN--\":1784:1791   */\n      dup6\n        /* \"--CODEGEN--\":1780:1803   */\n      sub\n        /* \"--CODEGEN--\":1776:1808   */\n      slt\n        /* \"--CODEGEN--\":1773:1775   */\n      iszero\n      tag_145\n      jumpi\n        /* \"--CODEGEN--\":1821:1822   */\n      0x00\n        /* \"--CODEGEN--\":1818:1819   */\n      dup1\n        /* \"--CODEGEN--\":1811:1823   */\n      revert\n        /* \"--CODEGEN--\":1773:1775   */\n    tag_145:\n        /* \"--CODEGEN--\":1856:1857   */\n      0x00\n        /* \"--CODEGEN--\":1873:1926   */\n      tag_146\n        /* \"--CODEGEN--\":1918:1925   */\n      dup6\n        /* \"--CODEGEN--\":1909:1915   */\n      dup3\n        /* \"--CODEGEN--\":1898:1907   */\n      dup7\n        /* \"--CODEGEN--\":1894:1916   */\n      add\n        /* \"--CODEGEN--\":1873:1926   */\n      jump(tag_129)\n    tag_146:\n        /* \"--CODEGEN--\":1863:1926   */\n      swap3\n      pop\n        /* \"--CODEGEN--\":1835:1932   */\n      pop\n        /* \"--CODEGEN--\":1963:1965   */\n      0x20\n        /* \"--CODEGEN--\":1981:2031   */\n      tag_147\n        /* \"--CODEGEN--\":2023:2030   */\n      dup6\n        /* \"--CODEGEN--\":2014:2020   */\n      dup3\n        /* \"--CODEGEN--\":2003:2012   */\n      dup7\n        /* \"--CODEGEN--\":1999:2021   */\n      add\n        /* \"--CODEGEN--\":1981:2031   */\n      jump(tag_115)\n    tag_147:\n        /* \"--CODEGEN--\":1971:2031   */\n      swap2\n      pop\n        /* \"--CODEGEN--\":1942:2037   */\n      pop\n        /* \"--CODEGEN--\":1767:2047   */\n      swap3\n      pop\n      swap3\n      swap1\n      pop\n      jump\n        /* \"--CODEGEN--\":2055:2216   */\n    tag_148:\n      0x00\n        /* \"--CODEGEN--\":2136:2176   */\n      tag_150\n        /* \"--CODEGEN--\":2172:2175   */\n      dup4\n        /* \"--CODEGEN--\":2164:2170   */\n      dup4\n        /* \"--CODEGEN--\":2136:2176   */\n      jump(tag_151)\n    tag_150:\n        /* \"--CODEGEN--\":2205:2209   */\n      0x20\n        /* \"--CODEGEN--\":2200:2203   */\n      dup4\n        /* \"--CODEGEN--\":2196:2210   */\n      add\n        /* \"--CODEGEN--\":2182:2210   */\n      swap1\n      pop\n        /* \"--CODEGEN--\":2129:2216   */\n      swap3\n      swap2\n      pop\n      pop\n      jump\n        /* \"--CODEGEN--\":2225:2406   */\n    tag_152:\n      0x00\n        /* \"--CODEGEN--\":2338:2400   */\n      tag_154\n        /* \"--CODEGEN--\":2396:2399   */\n      dup4\n        /* \"--CODEGEN--\":2388:2394   */\n      dup4\n        /* \"--CODEGEN--\":2338:2400   */\n      jump(tag_155)\n    tag_154:\n        /* \"--CODEGEN--\":2324:2400   */\n      swap1\n      pop\n        /* \"--CODEGEN--\":2317:2406   */\n      swap3\n      swap2\n      pop\n      pop\n      jump\n        /* \"--CODEGEN--\":2415:2640   */\n    tag_156:\n      0x00\n        /* \"--CODEGEN--\":2550:2634   */\n      tag_158\n        /* \"--CODEGEN--\":2630:2633   */\n      dup4\n        /* \"--CODEGEN--\":2622:2628   */\n      dup4\n        /* \"--CODEGEN--\":2550:2634   */\n      jump(tag_159)\n    tag_158:\n        /* \"--CODEGEN--\":2536:2634   */\n      swap1\n      pop\n        /* \"--CODEGEN--\":2529:2640   */\n      swap3\n      swap2\n      pop\n      pop\n      jump\n        /* \"--CODEGEN--\":2649:2822   */\n    tag_160:\n      0x00\n        /* \"--CODEGEN--\":2736:2782   */\n      tag_162\n        /* \"--CODEGEN--\":2778:2781   */\n      dup4\n        /* \"--CODEGEN--\":2770:2776   */\n      dup4\n        /* \"--CODEGEN--\":2736:2782   */\n      jump(tag_163)\n    tag_162:\n        /* \"--CODEGEN--\":2811:2815   */\n      0x20\n        /* \"--CODEGEN--\":2806:2809   */\n      dup4\n        /* \"--CODEGEN--\":2802:2816   */\n      add\n        /* \"--CODEGEN--\":2788:2816   */\n      swap1\n      pop\n        /* \"--CODEGEN--\":2729:2822   */\n      swap3\n      swap2\n      pop\n      pop\n      jump\n        /* \"--CODEGEN--\":2855:3521   */\n    tag_164:\n      0x00\n        /* \"--CODEGEN--\":2994:3045   */\n      tag_166\n        /* \"--CODEGEN--\":3039:3044   */\n      dup3\n        /* \"--CODEGEN--\":2994:3045   */\n      jump(tag_167)\n    tag_166:\n        /* \"--CODEGEN--\":3058:3141   */\n      tag_168\n        /* \"--CODEGEN--\":3134:3140   */\n      dup2\n        /* \"--CODEGEN--\":3129:3132   */\n      dup6\n        /* \"--CODEGEN--\":3058:3141   */\n      jump(tag_169)\n    tag_168:\n        /* \"--CODEGEN--\":3051:3141   */\n      swap4\n      pop\n        /* \"--CODEGEN--\":3162:3215   */\n      tag_170\n        /* \"--CODEGEN--\":3209:3214   */\n      dup4\n        /* \"--CODEGEN--\":3162:3215   */\n      jump(tag_171)\n    tag_170:\n        /* \"--CODEGEN--\":3235:3242   */\n      dup1\n        /* \"--CODEGEN--\":3263:3264   */\n      0x00\n        /* \"--CODEGEN--\":3248:3499   */\n    tag_172:\n        /* \"--CODEGEN--\":3273:3279   */\n      dup4\n        /* \"--CODEGEN--\":3270:3271   */\n      dup2\n        /* \"--CODEGEN--\":3267:3280   */\n      lt\n        /* \"--CODEGEN--\":3248:3499   */\n      iszero\n      tag_174\n      jumpi\n        /* \"--CODEGEN--\":3340:3346   */\n      dup2\n        /* \"--CODEGEN--\":3334:3347   */\n      mload\n        /* \"--CODEGEN--\":3361:3418   */\n      tag_175\n        /* \"--CODEGEN--\":3414:3417   */\n      dup9\n        /* \"--CODEGEN--\":3399:3412   */\n      dup3\n        /* \"--CODEGEN--\":3361:3418   */\n      jump(tag_148)\n    tag_175:\n        /* \"--CODEGEN--\":3354:3418   */\n      swap8\n      pop\n        /* \"--CODEGEN--\":3435:3492   */\n      tag_176\n        /* \"--CODEGEN--\":3485:3491   */\n      dup4\n        /* \"--CODEGEN--\":3435:3492   */\n      jump(tag_177)\n    tag_176:\n        /* \"--CODEGEN--\":3425:3492   */\n      swap3\n      pop\n        /* \"--CODEGEN--\":3305:3499   */\n      pop\n        /* \"--CODEGEN--\":3295:3296   */\n      0x01\n        /* \"--CODEGEN--\":3292:3293   */\n      dup2\n        /* \"--CODEGEN--\":3288:3297   */\n      add\n        /* \"--CODEGEN--\":3283:3297   */\n      swap1\n      pop\n        /* \"--CODEGEN--\":3248:3499   */\n      jump(tag_172)\n    tag_174:\n        /* \"--CODEGEN--\":3252:3266   */\n      pop\n        /* \"--CODEGEN--\":3512:3515   */\n      dup6\n        /* \"--CODEGEN--\":3505:3515   */\n      swap4\n      pop\n        /* \"--CODEGEN--\":2973:3521   */\n      pop\n      pop\n      pop\n      swap3\n      swap2\n      pop\n      pop\n      jump\n        /* \"--CODEGEN--\":3558:4454   */\n    tag_178:\n      0x00\n        /* \"--CODEGEN--\":3715:3775   */\n      tag_180\n        /* \"--CODEGEN--\":3769:3774   */\n      dup3\n        /* \"--CODEGEN--\":3715:3775   */\n      jump(tag_181)\n    tag_180:\n        /* \"--CODEGEN--\":3788:3880   */\n      tag_182\n        /* \"--CODEGEN--\":3873:3879   */\n      dup2\n        /* \"--CODEGEN--\":3868:3871   */\n      dup6\n        /* \"--CODEGEN--\":3788:3880   */\n      jump(tag_183)\n    tag_182:\n        /* \"--CODEGEN--\":3781:3880   */\n      swap4\n      pop\n        /* \"--CODEGEN--\":3903:3906   */\n      dup4\n        /* \"--CODEGEN--\":3945:3949   */\n      0x20\n        /* \"--CODEGEN--\":3937:3943   */\n      dup3\n        /* \"--CODEGEN--\":3933:3950   */\n      mul\n        /* \"--CODEGEN--\":3928:3931   */\n      dup6\n        /* \"--CODEGEN--\":3924:3951   */\n      add\n        /* \"--CODEGEN--\":3972:4034   */\n      tag_184\n        /* \"--CODEGEN--\":4028:4033   */\n      dup6\n        /* \"--CODEGEN--\":3972:4034   */\n      jump(tag_185)\n    tag_184:\n        /* \"--CODEGEN--\":4054:4061   */\n      dup1\n        /* \"--CODEGEN--\":4082:4083   */\n      0x00\n        /* \"--CODEGEN--\":4067:4415   */\n    tag_186:\n        /* \"--CODEGEN--\":4092:4098   */\n      dup6\n        /* \"--CODEGEN--\":4089:4090   */\n      dup2\n        /* \"--CODEGEN--\":4086:4099   */\n      lt\n        /* \"--CODEGEN--\":4067:4415   */\n      iszero\n      tag_188\n      jumpi\n        /* \"--CODEGEN--\":4154:4163   */\n      dup5\n        /* \"--CODEGEN--\":4148:4152   */\n      dup5\n        /* \"--CODEGEN--\":4144:4164   */\n      sub\n        /* \"--CODEGEN--\":4139:4142   */\n      dup10\n        /* \"--CODEGEN--\":4132:4165   */\n      mstore\n        /* \"--CODEGEN--\":4199:4205   */\n      dup2\n        /* \"--CODEGEN--\":4193:4206   */\n      mload\n        /* \"--CODEGEN--\":4221:4297   */\n      tag_189\n        /* \"--CODEGEN--\":4292:4296   */\n      dup6\n        /* \"--CODEGEN--\":4277:4290   */\n      dup3\n        /* \"--CODEGEN--\":4221:4297   */\n      jump(tag_152)\n    tag_189:\n        /* \"--CODEGEN--\":4213:4297   */\n      swap5\n      pop\n        /* \"--CODEGEN--\":4314:4380   */\n      tag_190\n        /* \"--CODEGEN--\":4373:4379   */\n      dup4\n        /* \"--CODEGEN--\":4314:4380   */\n      jump(tag_191)\n    tag_190:\n        /* \"--CODEGEN--\":4304:4380   */\n      swap3\n      pop\n        /* \"--CODEGEN--\":4403:4407   */\n      0x20\n        /* \"--CODEGEN--\":4398:4401   */\n      dup11\n        /* \"--CODEGEN--\":4394:4408   */\n      add\n        /* \"--CODEGEN--\":4387:4408   */\n      swap10\n      pop\n        /* \"--CODEGEN--\":4124:4415   */\n      pop\n        /* \"--CODEGEN--\":4114:4115   */\n      0x01\n        /* \"--CODEGEN--\":4111:4112   */\n      dup2\n        /* \"--CODEGEN--\":4107:4116   */\n      add\n        /* \"--CODEGEN--\":4102:4116   */\n      swap1\n      pop\n        /* \"--CODEGEN--\":4067:4415   */\n      jump(tag_186)\n    tag_188:\n        /* \"--CODEGEN--\":4071:4085   */\n      pop\n        /* \"--CODEGEN--\":4428:4432   */\n      dup3\n        /* \"--CODEGEN--\":4421:4432   */\n      swap8\n      pop\n        /* \"--CODEGEN--\":4445:4448   */\n      dup8\n        /* \"--CODEGEN--\":4438:4448   */\n      swap6\n      pop\n        /* \"--CODEGEN--\":3694:4454   */\n      pop\n      pop\n      pop\n      pop\n      pop\n      swap3\n      swap2\n      pop\n      pop\n      jump\n        /* \"--CODEGEN--\":4527:5511   */\n    tag_192:\n      0x00\n        /* \"--CODEGEN--\":4706:4777   */\n      tag_194\n        /* \"--CODEGEN--\":4771:4776   */\n      dup3\n        /* \"--CODEGEN--\":4706:4777   */\n      jump(tag_195)\n    tag_194:\n        /* \"--CODEGEN--\":4790:4893   */\n      tag_196\n        /* \"--CODEGEN--\":4886:4892   */\n      dup2\n        /* \"--CODEGEN--\":4881:4884   */\n      dup6\n        /* \"--CODEGEN--\":4790:4893   */\n      jump(tag_197)\n    tag_196:\n        /* \"--CODEGEN--\":4783:4893   */\n      swap4\n      pop\n        /* \"--CODEGEN--\":4916:4919   */\n      dup4\n        /* \"--CODEGEN--\":4958:4962   */\n      0x20\n        /* \"--CODEGEN--\":4950:4956   */\n      dup3\n        /* \"--CODEGEN--\":4946:4963   */\n      mul\n        /* \"--CODEGEN--\":4941:4944   */\n      dup6\n        /* \"--CODEGEN--\":4937:4964   */\n      add\n        /* \"--CODEGEN--\":4985:5058   */\n      tag_198\n        /* \"--CODEGEN--\":5052:5057   */\n      dup6\n        /* \"--CODEGEN--\":4985:5058   */\n      jump(tag_199)\n    tag_198:\n        /* \"--CODEGEN--\":5078:5085   */\n      dup1\n        /* \"--CODEGEN--\":5106:5107   */\n      0x00\n        /* \"--CODEGEN--\":5091:5472   */\n    tag_200:\n        /* \"--CODEGEN--\":5116:5122   */\n      dup6\n        /* \"--CODEGEN--\":5113:5114   */\n      dup2\n        /* \"--CODEGEN--\":5110:5123   */\n      lt\n        /* \"--CODEGEN--\":5091:5472   */\n      iszero\n      tag_202\n      jumpi\n        /* \"--CODEGEN--\":5178:5187   */\n      dup5\n        /* \"--CODEGEN--\":5172:5176   */\n      dup5\n        /* \"--CODEGEN--\":5168:5188   */\n      sub\n        /* \"--CODEGEN--\":5163:5166   */\n      dup10\n        /* \"--CODEGEN--\":5156:5189   */\n      mstore\n        /* \"--CODEGEN--\":5223:5229   */\n      dup2\n        /* \"--CODEGEN--\":5217:5230   */\n      mload\n        /* \"--CODEGEN--\":5245:5343   */\n      tag_203\n        /* \"--CODEGEN--\":5338:5342   */\n      dup6\n        /* \"--CODEGEN--\":5323:5336   */\n      dup3\n        /* \"--CODEGEN--\":5245:5343   */\n      jump(tag_156)\n    tag_203:\n        /* \"--CODEGEN--\":5237:5343   */\n      swap5\n      pop\n        /* \"--CODEGEN--\":5360:5437   */\n      tag_204\n        /* \"--CODEGEN--\":5430:5436   */\n      dup4\n        /* \"--CODEGEN--\":5360:5437   */\n      jump(tag_205)\n    tag_204:\n        /* \"--CODEGEN--\":5350:5437   */\n      swap3\n      pop\n        /* \"--CODEGEN--\":5460:5464   */\n      0x20\n        /* \"--CODEGEN--\":5455:5458   */\n      dup11\n        /* \"--CODEGEN--\":5451:5465   */\n      add\n        /* \"--CODEGEN--\":5444:5465   */\n      swap10\n      pop\n        /* \"--CODEGEN--\":5148:5472   */\n      pop\n        /* \"--CODEGEN--\":5138:5139   */\n      0x01\n        /* \"--CODEGEN--\":5135:5136   */\n      dup2\n        /* \"--CODEGEN--\":5131:5140   */\n      add\n        /* \"--CODEGEN--\":5126:5140   */\n      swap1\n      pop\n        /* \"--CODEGEN--\":5091:5472   */\n      jump(tag_200)\n    tag_202:\n        /* \"--CODEGEN--\":5095:5109   */\n      pop\n        /* \"--CODEGEN--\":5485:5489   */\n      dup3\n        /* \"--CODEGEN--\":5478:5489   */\n      swap8\n      pop\n        /* \"--CODEGEN--\":5502:5505   */\n      dup8\n        /* \"--CODEGEN--\":5495:5505   */\n      swap6\n      pop\n        /* \"--CODEGEN--\":4685:5511   */\n      pop\n      pop\n      pop\n      pop\n      pop\n      swap3\n      swap2\n      pop\n      pop\n      jump\n        /* \"--CODEGEN--\":5550:6240   */\n    tag_206:\n      0x00\n        /* \"--CODEGEN--\":5695:5749   */\n      tag_208\n        /* \"--CODEGEN--\":5743:5748   */\n      dup3\n        /* \"--CODEGEN--\":5695:5749   */\n      jump(tag_209)\n    tag_208:\n        /* \"--CODEGEN--\":5762:5848   */\n      tag_210\n        /* \"--CODEGEN--\":5841:5847   */\n      dup2\n        /* \"--CODEGEN--\":5836:5839   */\n      dup6\n        /* \"--CODEGEN--\":5762:5848   */\n      jump(tag_211)\n    tag_210:\n        /* \"--CODEGEN--\":5755:5848   */\n      swap4\n      pop\n        /* \"--CODEGEN--\":5869:5925   */\n      tag_212\n        /* \"--CODEGEN--\":5919:5924   */\n      dup4\n        /* \"--CODEGEN--\":5869:5925   */\n      jump(tag_213)\n    tag_212:\n        /* \"--CODEGEN--\":5945:5952   */\n      dup1\n        /* \"--CODEGEN--\":5973:5974   */\n      0x00\n        /* \"--CODEGEN--\":5958:6218   */\n    tag_214:\n        /* \"--CODEGEN--\":5983:5989   */\n      dup4\n        /* \"--CODEGEN--\":5980:5981   */\n      dup2\n        /* \"--CODEGEN--\":5977:5990   */\n      lt\n        /* \"--CODEGEN--\":5958:6218   */\n      iszero\n      tag_216\n      jumpi\n        /* \"--CODEGEN--\":6050:6056   */\n      dup2\n        /* \"--CODEGEN--\":6044:6057   */\n      mload\n        /* \"--CODEGEN--\":6071:6134   */\n      tag_217\n        /* \"--CODEGEN--\":6130:6133   */\n      dup9\n        /* \"--CODEGEN--\":6115:6128   */\n      dup3\n        /* \"--CODEGEN--\":6071:6134   */\n      jump(tag_160)\n    tag_217:\n        /* \"--CODEGEN--\":6064:6134   */\n      swap8\n      pop\n        /* \"--CODEGEN--\":6151:6211   */\n      tag_218\n        /* \"--CODEGEN--\":6204:6210   */\n      dup4\n        /* \"--CODEGEN--\":6151:6211   */\n      jump(tag_219)\n    tag_218:\n        /* \"--CODEGEN--\":6141:6211   */\n      swap3\n      pop\n        /* \"--CODEGEN--\":6015:6218   */\n      pop\n        /* \"--CODEGEN--\":6005:6006   */\n      0x01\n        /* \"--CODEGEN--\":6002:6003   */\n      dup2\n        /* \"--CODEGEN--\":5998:6007   */\n      add\n        /* \"--CODEGEN--\":5993:6007   */\n      swap1\n      pop\n        /* \"--CODEGEN--\":5958:6218   */\n      jump(tag_214)\n    tag_216:\n        /* \"--CODEGEN--\":5962:5976   */\n      pop\n        /* \"--CODEGEN--\":6231:6234   */\n      dup6\n        /* \"--CODEGEN--\":6224:6234   */\n      swap4\n      pop\n        /* \"--CODEGEN--\":5674:6240   */\n      pop\n      pop\n      pop\n      swap3\n      swap2\n      pop\n      pop\n      jump\n        /* \"--CODEGEN--\":6248:6342   */\n    tag_151:\n        /* \"--CODEGEN--\":6315:6336   */\n      tag_221\n        /* \"--CODEGEN--\":6330:6335   */\n      dup2\n        /* \"--CODEGEN--\":6315:6336   */\n      jump(tag_222)\n    tag_221:\n        /* \"--CODEGEN--\":6310:6313   */\n      dup3\n        /* \"--CODEGEN--\":6303:6337   */\n      mstore\n        /* \"--CODEGEN--\":6297:6342   */\n      pop\n      pop\n      jump\n        /* \"--CODEGEN--\":6349:6453   */\n    tag_223:\n        /* \"--CODEGEN--\":6426:6447   */\n      tag_225\n        /* \"--CODEGEN--\":6441:6446   */\n      dup2\n        /* \"--CODEGEN--\":6426:6447   */\n      jump(tag_222)\n    tag_225:\n        /* \"--CODEGEN--\":6421:6424   */\n      dup3\n        /* \"--CODEGEN--\":6414:6448   */\n      mstore\n        /* \"--CODEGEN--\":6408:6453   */\n      pop\n      pop\n      jump\n        /* \"--CODEGEN--\":6460:6779   */\n    tag_155:\n      0x00\n        /* \"--CODEGEN--\":6558:6593   */\n      tag_227\n        /* \"--CODEGEN--\":6587:6592   */\n      dup3\n        /* \"--CODEGEN--\":6558:6593   */\n      jump(tag_228)\n    tag_227:\n        /* \"--CODEGEN--\":6605:6666   */\n      tag_229\n        /* \"--CODEGEN--\":6659:6665   */\n      dup2\n        /* \"--CODEGEN--\":6654:6657   */\n      dup6\n        /* \"--CODEGEN--\":6605:6666   */\n      jump(tag_230)\n    tag_229:\n        /* \"--CODEGEN--\":6598:6666   */\n      swap4\n      pop\n        /* \"--CODEGEN--\":6671:6723   */\n      tag_231\n        /* \"--CODEGEN--\":6716:6722   */\n      dup2\n        /* \"--CODEGEN--\":6711:6714   */\n      dup6\n        /* \"--CODEGEN--\":6704:6708   */\n      0x20\n        /* \"--CODEGEN--\":6697:6702   */\n      dup7\n        /* \"--CODEGEN--\":6693:6709   */\n      add\n        /* \"--CODEGEN--\":6671:6723   */\n      jump(tag_232)\n    tag_231:\n        /* \"--CODEGEN--\":6744:6773   */\n      tag_233\n        /* \"--CODEGEN--\":6766:6772   */\n      dup2\n        /* \"--CODEGEN--\":6744:6773   */\n      jump(tag_234)\n    tag_233:\n        /* \"--CODEGEN--\":6739:6742   */\n      dup5\n        /* \"--CODEGEN--\":6735:6774   */\n      add\n        /* \"--CODEGEN--\":6728:6774   */\n      swap2\n      pop\n        /* \"--CODEGEN--\":6538:6779   */\n      pop\n      swap3\n      swap2\n      pop\n      pop\n      jump\n        /* \"--CODEGEN--\":6786:7125   */\n    tag_235:\n      0x00\n        /* \"--CODEGEN--\":6894:6929   */\n      tag_237\n        /* \"--CODEGEN--\":6923:6928   */\n      dup3\n        /* \"--CODEGEN--\":6894:6929   */\n      jump(tag_228)\n    tag_237:\n        /* \"--CODEGEN--\":6941:7012   */\n      tag_238\n        /* \"--CODEGEN--\":7005:7011   */\n      dup2\n        /* \"--CODEGEN--\":7000:7003   */\n      dup6\n        /* \"--CODEGEN--\":6941:7012   */\n      jump(tag_239)\n    tag_238:\n        /* \"--CODEGEN--\":6934:7012   */\n      swap4\n      pop\n        /* \"--CODEGEN--\":7017:7069   */\n      tag_240\n        /* \"--CODEGEN--\":7062:7068   */\n      dup2\n        /* \"--CODEGEN--\":7057:7060   */\n      dup6\n        /* \"--CODEGEN--\":7050:7054   */\n      0x20\n        /* \"--CODEGEN--\":7043:7048   */\n      dup7\n        /* \"--CODEGEN--\":7039:7055   */\n      add\n        /* \"--CODEGEN--\":7017:7069   */\n      jump(tag_232)\n    tag_240:\n        /* \"--CODEGEN--\":7090:7119   */\n      tag_241\n        /* \"--CODEGEN--\":7112:7118   */\n      dup2\n        /* \"--CODEGEN--\":7090:7119   */\n      jump(tag_234)\n    tag_241:\n        /* \"--CODEGEN--\":7085:7088   */\n      dup5\n        /* \"--CODEGEN--\":7081:7120   */\n      add\n        /* \"--CODEGEN--\":7074:7120   */\n      swap2\n      pop\n        /* \"--CODEGEN--\":6874:7125   */\n      pop\n      swap3\n      swap2\n      pop\n      pop\n      jump\n        /* \"--CODEGEN--\":7191:7899   */\n    tag_242:\n      0x00\n        /* \"--CODEGEN--\":7334:7338   */\n      0x60\n        /* \"--CODEGEN--\":7329:7332   */\n      dup4\n        /* \"--CODEGEN--\":7325:7339   */\n      add\n        /* \"--CODEGEN--\":7415:7419   */\n      0x00\n        /* \"--CODEGEN--\":7408:7413   */\n      dup4\n        /* \"--CODEGEN--\":7404:7420   */\n      add\n        /* \"--CODEGEN--\":7398:7421   */\n      mload\n        /* \"--CODEGEN--\":7427:7490   */\n      tag_244\n        /* \"--CODEGEN--\":7484:7488   */\n      0x00\n        /* \"--CODEGEN--\":7479:7482   */\n      dup7\n        /* \"--CODEGEN--\":7475:7489   */\n      add\n        /* \"--CODEGEN--\":7461:7473   */\n      dup3\n        /* \"--CODEGEN--\":7427:7490   */\n      jump(tag_163)\n    tag_244:\n        /* \"--CODEGEN--\":7354:7496   */\n      pop\n        /* \"--CODEGEN--\":7569:7573   */\n      0x20\n        /* \"--CODEGEN--\":7562:7567   */\n      dup4\n        /* \"--CODEGEN--\":7558:7574   */\n      add\n        /* \"--CODEGEN--\":7552:7575   */\n      mload\n        /* \"--CODEGEN--\":7621:7624   */\n      dup5\n        /* \"--CODEGEN--\":7615:7619   */\n      dup3\n        /* \"--CODEGEN--\":7611:7625   */\n      sub\n        /* \"--CODEGEN--\":7604:7608   */\n      0x20\n        /* \"--CODEGEN--\":7599:7602   */\n      dup7\n        /* \"--CODEGEN--\":7595:7609   */\n      add\n        /* \"--CODEGEN--\":7588:7626   */\n      mstore\n        /* \"--CODEGEN--\":7641:7710   */\n      tag_245\n        /* \"--CODEGEN--\":7705:7709   */\n      dup3\n        /* \"--CODEGEN--\":7691:7703   */\n      dup3\n        /* \"--CODEGEN--\":7641:7710   */\n      jump(tag_155)\n    tag_245:\n        /* \"--CODEGEN--\":7633:7710   */\n      swap2\n      pop\n        /* \"--CODEGEN--\":7506:7722   */\n      pop\n        /* \"--CODEGEN--\":7798:7802   */\n      0x40\n        /* \"--CODEGEN--\":7791:7796   */\n      dup4\n        /* \"--CODEGEN--\":7787:7803   */\n      add\n        /* \"--CODEGEN--\":7781:7804   */\n      mload\n        /* \"--CODEGEN--\":7810:7867   */\n      tag_246\n        /* \"--CODEGEN--\":7861:7865   */\n      0x40\n        /* \"--CODEGEN--\":7856:7859   */\n      dup7\n        /* \"--CODEGEN--\":7852:7866   */\n      add\n        /* \"--CODEGEN--\":7838:7850   */\n      dup3\n        /* \"--CODEGEN--\":7810:7867   */\n      jump(tag_151)\n    tag_246:\n        /* \"--CODEGEN--\":7732:7873   */\n      pop\n        /* \"--CODEGEN--\":7890:7894   */\n      dup1\n        /* \"--CODEGEN--\":7883:7894   */\n      swap2\n      pop\n        /* \"--CODEGEN--\":7307:7899   */\n      pop\n      swap3\n      swap2\n      pop\n      pop\n      jump\n        /* \"--CODEGEN--\":7965:8659   */\n    tag_159:\n      0x00\n        /* \"--CODEGEN--\":8094:8098   */\n      0x60\n        /* \"--CODEGEN--\":8089:8092   */\n      dup4\n        /* \"--CODEGEN--\":8085:8099   */\n      add\n        /* \"--CODEGEN--\":8175:8179   */\n      0x00\n        /* \"--CODEGEN--\":8168:8173   */\n      dup4\n        /* \"--CODEGEN--\":8164:8180   */\n      add\n        /* \"--CODEGEN--\":8158:8181   */\n      mload\n        /* \"--CODEGEN--\":8187:8250   */\n      tag_248\n        /* \"--CODEGEN--\":8244:8248   */\n      0x00\n        /* \"--CODEGEN--\":8239:8242   */\n      dup7\n        /* \"--CODEGEN--\":8235:8249   */\n      add\n        /* \"--CODEGEN--\":8221:8233   */\n      dup3\n        /* \"--CODEGEN--\":8187:8250   */\n      jump(tag_163)\n    tag_248:\n        /* \"--CODEGEN--\":8114:8256   */\n      pop\n        /* \"--CODEGEN--\":8329:8333   */\n      0x20\n        /* \"--CODEGEN--\":8322:8327   */\n      dup4\n        /* \"--CODEGEN--\":8318:8334   */\n      add\n        /* \"--CODEGEN--\":8312:8335   */\n      mload\n        /* \"--CODEGEN--\":8381:8384   */\n      dup5\n        /* \"--CODEGEN--\":8375:8379   */\n      dup3\n        /* \"--CODEGEN--\":8371:8385   */\n      sub\n        /* \"--CODEGEN--\":8364:8368   */\n      0x20\n        /* \"--CODEGEN--\":8359:8362   */\n      dup7\n        /* \"--CODEGEN--\":8355:8369   */\n      add\n        /* \"--CODEGEN--\":8348:8386   */\n      mstore\n        /* \"--CODEGEN--\":8401:8470   */\n      tag_249\n        /* \"--CODEGEN--\":8465:8469   */\n      dup3\n        /* \"--CODEGEN--\":8451:8463   */\n      dup3\n        /* \"--CODEGEN--\":8401:8470   */\n      jump(tag_155)\n    tag_249:\n        /* \"--CODEGEN--\":8393:8470   */\n      swap2\n      pop\n        /* \"--CODEGEN--\":8266:8482   */\n      pop\n        /* \"--CODEGEN--\":8558:8562   */\n      0x40\n        /* \"--CODEGEN--\":8551:8556   */\n      dup4\n        /* \"--CODEGEN--\":8547:8563   */\n      add\n        /* \"--CODEGEN--\":8541:8564   */\n      mload\n        /* \"--CODEGEN--\":8570:8627   */\n      tag_250\n        /* \"--CODEGEN--\":8621:8625   */\n      0x40\n        /* \"--CODEGEN--\":8616:8619   */\n      dup7\n        /* \"--CODEGEN--\":8612:8626   */\n      add\n        /* \"--CODEGEN--\":8598:8610   */\n      dup3\n        /* \"--CODEGEN--\":8570:8627   */\n      jump(tag_151)\n    tag_250:\n        /* \"--CODEGEN--\":8492:8633   */\n      pop\n        /* \"--CODEGEN--\":8650:8654   */\n      dup1\n        /* \"--CODEGEN--\":8643:8654   */\n      swap2\n      pop\n        /* \"--CODEGEN--\":8067:8659   */\n      pop\n      swap3\n      swap2\n      pop\n      pop\n      jump\n        /* \"--CODEGEN--\":8666:8769   */\n    tag_163:\n        /* \"--CODEGEN--\":8739:8763   */\n      tag_252\n        /* \"--CODEGEN--\":8757:8762   */\n      dup2\n        /* \"--CODEGEN--\":8739:8763   */\n      jump(tag_253)\n    tag_252:\n        /* \"--CODEGEN--\":8734:8737   */\n      dup3\n        /* \"--CODEGEN--\":8727:8764   */\n      mstore\n        /* \"--CODEGEN--\":8721:8769   */\n      pop\n      pop\n      jump\n        /* \"--CODEGEN--\":8776:8889   */\n    tag_254:\n        /* \"--CODEGEN--\":8859:8883   */\n      tag_256\n        /* \"--CODEGEN--\":8877:8882   */\n      dup2\n        /* \"--CODEGEN--\":8859:8883   */\n      jump(tag_253)\n    tag_256:\n        /* \"--CODEGEN--\":8854:8857   */\n      dup3\n        /* \"--CODEGEN--\":8847:8884   */\n      mstore\n        /* \"--CODEGEN--\":8841:8889   */\n      pop\n      pop\n      jump\n        /* \"--CODEGEN--\":8896:9325   */\n    tag_36:\n      0x00\n        /* \"--CODEGEN--\":9098:9100   */\n      0x20\n        /* \"--CODEGEN--\":9087:9096   */\n      dup3\n        /* \"--CODEGEN--\":9083:9101   */\n      add\n        /* \"--CODEGEN--\":9075:9101   */\n      swap1\n      pop\n        /* \"--CODEGEN--\":9148:9157   */\n      dup2\n        /* \"--CODEGEN--\":9142:9146   */\n      dup2\n        /* \"--CODEGEN--\":9138:9158   */\n      sub\n        /* \"--CODEGEN--\":9134:9135   */\n      0x00\n        /* \"--CODEGEN--\":9123:9132   */\n      dup4\n        /* \"--CODEGEN--\":9119:9136   */\n      add\n        /* \"--CODEGEN--\":9112:9159   */\n      mstore\n        /* \"--CODEGEN--\":9173:9315   */\n      tag_258\n        /* \"--CODEGEN--\":9310:9314   */\n      dup2\n        /* \"--CODEGEN--\":9301:9307   */\n      dup5\n        /* \"--CODEGEN--\":9173:9315   */\n      jump(tag_192)\n    tag_258:\n        /* \"--CODEGEN--\":9165:9315   */\n      swap1\n      pop\n        /* \"--CODEGEN--\":9069:9325   */\n      swap3\n      swap2\n      pop\n      pop\n      jump\n        /* \"--CODEGEN--\":9332:10223   */\n    tag_30:\n      0x00\n        /* \"--CODEGEN--\":9662:9664   */\n      0x60\n        /* \"--CODEGEN--\":9651:9660   */\n      dup3\n        /* \"--CODEGEN--\":9647:9665   */\n      add\n        /* \"--CODEGEN--\":9639:9665   */\n      swap1\n      pop\n        /* \"--CODEGEN--\":9712:9721   */\n      dup2\n        /* \"--CODEGEN--\":9706:9710   */\n      dup2\n        /* \"--CODEGEN--\":9702:9722   */\n      sub\n        /* \"--CODEGEN--\":9698:9699   */\n      0x00\n        /* \"--CODEGEN--\":9687:9696   */\n      dup4\n        /* \"--CODEGEN--\":9683:9700   */\n      add\n        /* \"--CODEGEN--\":9676:9723   */\n      mstore\n        /* \"--CODEGEN--\":9737:9845   */\n      tag_260\n        /* \"--CODEGEN--\":9840:9844   */\n      dup2\n        /* \"--CODEGEN--\":9831:9837   */\n      dup7\n        /* \"--CODEGEN--\":9737:9845   */\n      jump(tag_206)\n    tag_260:\n        /* \"--CODEGEN--\":9729:9845   */\n      swap1\n      pop\n        /* \"--CODEGEN--\":9893:9902   */\n      dup2\n        /* \"--CODEGEN--\":9887:9891   */\n      dup2\n        /* \"--CODEGEN--\":9883:9903   */\n      sub\n        /* \"--CODEGEN--\":9878:9880   */\n      0x20\n        /* \"--CODEGEN--\":9867:9876   */\n      dup4\n        /* \"--CODEGEN--\":9863:9881   */\n      add\n        /* \"--CODEGEN--\":9856:9904   */\n      mstore\n        /* \"--CODEGEN--\":9918:10038   */\n      tag_261\n        /* \"--CODEGEN--\":10033:10037   */\n      dup2\n        /* \"--CODEGEN--\":10024:10030   */\n      dup6\n        /* \"--CODEGEN--\":9918:10038   */\n      jump(tag_178)\n    tag_261:\n        /* \"--CODEGEN--\":9910:10038   */\n      swap1\n      pop\n        /* \"--CODEGEN--\":10086:10095   */\n      dup2\n        /* \"--CODEGEN--\":10080:10084   */\n      dup2\n        /* \"--CODEGEN--\":10076:10096   */\n      sub\n        /* \"--CODEGEN--\":10071:10073   */\n      0x40\n        /* \"--CODEGEN--\":10060:10069   */\n      dup4\n        /* \"--CODEGEN--\":10056:10074   */\n      add\n        /* \"--CODEGEN--\":10049:10097   */\n      mstore\n        /* \"--CODEGEN--\":10111:10213   */\n      tag_262\n        /* \"--CODEGEN--\":10208:10212   */\n      dup2\n        /* \"--CODEGEN--\":10199:10205   */\n      dup5\n        /* \"--CODEGEN--\":10111:10213   */\n      jump(tag_164)\n    tag_262:\n        /* \"--CODEGEN--\":10103:10213   */\n      swap1\n      pop\n        /* \"--CODEGEN--\":9633:10223   */\n      swap5\n      swap4\n      pop\n      pop\n      pop\n      pop\n      jump\n        /* \"--CODEGEN--\":10230:10575   */\n    tag_53:\n      0x00\n        /* \"--CODEGEN--\":10390:10392   */\n      0x20\n        /* \"--CODEGEN--\":10379:10388   */\n      dup3\n        /* \"--CODEGEN--\":10375:10393   */\n      add\n        /* \"--CODEGEN--\":10367:10393   */\n      swap1\n      pop\n        /* \"--CODEGEN--\":10440:10449   */\n      dup2\n        /* \"--CODEGEN--\":10434:10438   */\n      dup2\n        /* \"--CODEGEN--\":10430:10450   */\n      sub\n        /* \"--CODEGEN--\":10426:10427   */\n      0x00\n        /* \"--CODEGEN--\":10415:10424   */\n      dup4\n        /* \"--CODEGEN--\":10411:10428   */\n      add\n        /* \"--CODEGEN--\":10404:10451   */\n      mstore\n        /* \"--CODEGEN--\":10465:10565   */\n      tag_264\n        /* \"--CODEGEN--\":10560:10564   */\n      dup2\n        /* \"--CODEGEN--\":10551:10557   */\n      dup5\n        /* \"--CODEGEN--\":10465:10565   */\n      jump(tag_242)\n    tag_264:\n        /* \"--CODEGEN--\":10457:10565   */\n      swap1\n      pop\n        /* \"--CODEGEN--\":10361:10575   */\n      swap3\n      swap2\n      pop\n      pop\n      jump\n        /* \"--CODEGEN--\":10582:10795   */\n    tag_16:\n      0x00\n        /* \"--CODEGEN--\":10700:10702   */\n      0x20\n        /* \"--CODEGEN--\":10689:10698   */\n      dup3\n        /* \"--CODEGEN--\":10685:10703   */\n      add\n        /* \"--CODEGEN--\":10677:10703   */\n      swap1\n      pop\n        /* \"--CODEGEN--\":10714:10785   */\n      tag_266\n        /* \"--CODEGEN--\":10782:10783   */\n      0x00\n        /* \"--CODEGEN--\":10771:10780   */\n      dup4\n        /* \"--CODEGEN--\":10767:10784   */\n      add\n        /* \"--CODEGEN--\":10758:10764   */\n      dup5\n        /* \"--CODEGEN--\":10714:10785   */\n      jump(tag_254)\n    tag_266:\n        /* \"--CODEGEN--\":10671:10795   */\n      swap3\n      swap2\n      pop\n      pop\n      jump\n        /* \"--CODEGEN--\":10802:11305   */\n    tag_26:\n      0x00\n        /* \"--CODEGEN--\":10986:10988   */\n      0x60\n        /* \"--CODEGEN--\":10975:10984   */\n      dup3\n        /* \"--CODEGEN--\":10971:10989   */\n      add\n        /* \"--CODEGEN--\":10963:10989   */\n      swap1\n      pop\n        /* \"--CODEGEN--\":11000:11071   */\n      tag_268\n        /* \"--CODEGEN--\":11068:11069   */\n      0x00\n        /* \"--CODEGEN--\":11057:11066   */\n      dup4\n        /* \"--CODEGEN--\":11053:11070   */\n      add\n        /* \"--CODEGEN--\":11044:11050   */\n      dup7\n        /* \"--CODEGEN--\":11000:11071   */\n      jump(tag_254)\n    tag_268:\n        /* \"--CODEGEN--\":11119:11128   */\n      dup2\n        /* \"--CODEGEN--\":11113:11117   */\n      dup2\n        /* \"--CODEGEN--\":11109:11129   */\n      sub\n        /* \"--CODEGEN--\":11104:11106   */\n      0x20\n        /* \"--CODEGEN--\":11093:11102   */\n      dup4\n        /* \"--CODEGEN--\":11089:11107   */\n      add\n        /* \"--CODEGEN--\":11082:11130   */\n      mstore\n        /* \"--CODEGEN--\":11144:11218   */\n      tag_269\n        /* \"--CODEGEN--\":11213:11217   */\n      dup2\n        /* \"--CODEGEN--\":11204:11210   */\n      dup6\n        /* \"--CODEGEN--\":11144:11218   */\n      jump(tag_235)\n    tag_269:\n        /* \"--CODEGEN--\":11136:11218   */\n      swap1\n      pop\n        /* \"--CODEGEN--\":11229:11295   */\n      tag_270\n        /* \"--CODEGEN--\":11291:11293   */\n      0x40\n        /* \"--CODEGEN--\":11280:11289   */\n      dup4\n        /* \"--CODEGEN--\":11276:11294   */\n      add\n        /* \"--CODEGEN--\":11267:11273   */\n      dup5\n        /* \"--CODEGEN--\":11229:11295   */\n      jump(tag_223)\n    tag_270:\n        /* \"--CODEGEN--\":10957:11305   */\n      swap5\n      swap4\n      pop\n      pop\n      pop\n      pop\n      jump\n        /* \"--CODEGEN--\":11312:11568   */\n    tag_125:\n      0x00\n        /* \"--CODEGEN--\":11374:11376   */\n      0x40\n        /* \"--CODEGEN--\":11368:11377   */\n      mload\n        /* \"--CODEGEN--\":11358:11377   */\n      swap1\n      pop\n        /* \"--CODEGEN--\":11412:11416   */\n      dup2\n        /* \"--CODEGEN--\":11404:11410   */\n      dup2\n        /* \"--CODEGEN--\":11400:11417   */\n      add\n        /* \"--CODEGEN--\":11511:11517   */\n      dup2\n        /* \"--CODEGEN--\":11499:11509   */\n      dup2\n        /* \"--CODEGEN--\":11496:11518   */\n      lt\n        /* \"--CODEGEN--\":11475:11493   */\n      0xffffffffffffffff\n        /* \"--CODEGEN--\":11463:11473   */\n      dup3\n        /* \"--CODEGEN--\":11460:11494   */\n      gt\n        /* \"--CODEGEN--\":11457:11519   */\n      or\n        /* \"--CODEGEN--\":11454:11456   */\n      iszero\n      tag_272\n      jumpi\n        /* \"--CODEGEN--\":11532:11533   */\n      0x00\n        /* \"--CODEGEN--\":11529:11530   */\n      dup1\n        /* \"--CODEGEN--\":11522:11534   */\n      revert\n        /* \"--CODEGEN--\":11454:11456   */\n    tag_272:\n        /* \"--CODEGEN--\":11552:11562   */\n      dup1\n        /* \"--CODEGEN--\":11548:11550   */\n      0x40\n        /* \"--CODEGEN--\":11541:11563   */\n      mstore\n        /* \"--CODEGEN--\":11352:11568   */\n      pop\n      swap2\n      swap1\n      pop\n      jump\n        /* \"--CODEGEN--\":11575:11897   */\n    tag_124:\n      0x00\n        /* \"--CODEGEN--\":11719:11737   */\n      0xffffffffffffffff\n        /* \"--CODEGEN--\":11711:11717   */\n      dup3\n        /* \"--CODEGEN--\":11708:11738   */\n      gt\n        /* \"--CODEGEN--\":11705:11707   */\n      iszero\n      tag_274\n      jumpi\n        /* \"--CODEGEN--\":11751:11752   */\n      0x00\n        /* \"--CODEGEN--\":11748:11749   */\n      dup1\n        /* \"--CODEGEN--\":11741:11753   */\n      revert\n        /* \"--CODEGEN--\":11705:11707   */\n    tag_274:\n        /* \"--CODEGEN--\":11818:11822   */\n      0x1f\n        /* \"--CODEGEN--\":11814:11823   */\n      not\n        /* \"--CODEGEN--\":11807:11811   */\n      0x1f\n        /* \"--CODEGEN--\":11799:11805   */\n      dup4\n        /* \"--CODEGEN--\":11795:11812   */\n      add\n        /* \"--CODEGEN--\":11791:11824   */\n      and\n        /* \"--CODEGEN--\":11783:11824   */\n      swap1\n      pop\n        /* \"--CODEGEN--\":11882:11886   */\n      0x20\n        /* \"--CODEGEN--\":11876:11880   */\n      dup2\n        /* \"--CODEGEN--\":11872:11887   */\n      add\n        /* \"--CODEGEN--\":11864:11887   */\n      swap1\n      pop\n        /* \"--CODEGEN--\":11642:11897   */\n      swap2\n      swap1\n      pop\n      jump\n        /* \"--CODEGEN--\":11904:12052   */\n    tag_171:\n      0x00\n        /* \"--CODEGEN--\":11987:11990   */\n      dup2\n        /* \"--CODEGEN--\":11979:11990   */\n      swap1\n      pop\n        /* \"--CODEGEN--\":12025:12029   */\n      0x20\n        /* \"--CODEGEN--\":12020:12023   */\n      dup3\n        /* \"--CODEGEN--\":12016:12030   */\n      add\n        /* \"--CODEGEN--\":12008:12030   */\n      swap1\n      pop\n        /* \"--CODEGEN--\":11973:12052   */\n      swap2\n      swap1\n      pop\n      jump\n        /* \"--CODEGEN--\":12059:12216   */\n    tag_185:\n      0x00\n        /* \"--CODEGEN--\":12151:12154   */\n      dup2\n        /* \"--CODEGEN--\":12143:12154   */\n      swap1\n      pop\n        /* \"--CODEGEN--\":12189:12193   */\n      0x20\n        /* \"--CODEGEN--\":12184:12187   */\n      dup3\n        /* \"--CODEGEN--\":12180:12194   */\n      add\n        /* \"--CODEGEN--\":12172:12194   */\n      swap1\n      pop\n        /* \"--CODEGEN--\":12137:12216   */\n      swap2\n      swap1\n      pop\n      jump\n        /* \"--CODEGEN--\":12223:12391   */\n    tag_199:\n      0x00\n        /* \"--CODEGEN--\":12326:12329   */\n      dup2\n        /* \"--CODEGEN--\":12318:12329   */\n      swap1\n      pop\n        /* \"--CODEGEN--\":12364:12368   */\n      0x20\n        /* \"--CODEGEN--\":12359:12362   */\n      dup3\n        /* \"--CODEGEN--\":12355:12369   */\n      add\n        /* \"--CODEGEN--\":12347:12369   */\n      swap1\n      pop\n        /* \"--CODEGEN--\":12312:12391   */\n      swap2\n      swap1\n      pop\n      jump\n        /* \"--CODEGEN--\":12398:12549   */\n    tag_213:\n      0x00\n        /* \"--CODEGEN--\":12484:12487   */\n      dup2\n        /* \"--CODEGEN--\":12476:12487   */\n      swap1\n      pop\n        /* \"--CODEGEN--\":12522:12526   */\n      0x20\n        /* \"--CODEGEN--\":12517:12520   */\n      dup3\n        /* \"--CODEGEN--\":12513:12527   */\n      add\n        /* \"--CODEGEN--\":12505:12527   */\n      swap1\n      pop\n        /* \"--CODEGEN--\":12470:12549   */\n      swap2\n      swap1\n      pop\n      jump\n        /* \"--CODEGEN--\":12556:12690   */\n    tag_167:\n      0x00\n        /* \"--CODEGEN--\":12662:12667   */\n      dup2\n        /* \"--CODEGEN--\":12656:12668   */\n      mload\n        /* \"--CODEGEN--\":12646:12668   */\n      swap1\n      pop\n        /* \"--CODEGEN--\":12627:12690   */\n      swap2\n      swap1\n      pop\n      jump\n        /* \"--CODEGEN--\":12697:12840   */\n    tag_181:\n      0x00\n        /* \"--CODEGEN--\":12812:12817   */\n      dup2\n        /* \"--CODEGEN--\":12806:12818   */\n      mload\n        /* \"--CODEGEN--\":12796:12818   */\n      swap1\n      pop\n        /* \"--CODEGEN--\":12777:12840   */\n      swap2\n      swap1\n      pop\n      jump\n        /* \"--CODEGEN--\":12847:13001   */\n    tag_195:\n      0x00\n        /* \"--CODEGEN--\":12973:12978   */\n      dup2\n        /* \"--CODEGEN--\":12967:12979   */\n      mload\n        /* \"--CODEGEN--\":12957:12979   */\n      swap1\n      pop\n        /* \"--CODEGEN--\":12938:13001   */\n      swap2\n      swap1\n      pop\n      jump\n        /* \"--CODEGEN--\":13008:13145   */\n    tag_209:\n      0x00\n        /* \"--CODEGEN--\":13117:13122   */\n      dup2\n        /* \"--CODEGEN--\":13111:13123   */\n      mload\n        /* \"--CODEGEN--\":13101:13123   */\n      swap1\n      pop\n        /* \"--CODEGEN--\":13082:13145   */\n      swap2\n      swap1\n      pop\n      jump\n        /* \"--CODEGEN--\":13152:13270   */\n    tag_228:\n      0x00\n        /* \"--CODEGEN--\":13242:13247   */\n      dup2\n        /* \"--CODEGEN--\":13236:13248   */\n      mload\n        /* \"--CODEGEN--\":13226:13248   */\n      swap1\n      pop\n        /* \"--CODEGEN--\":13207:13270   */\n      swap2\n      swap1\n      pop\n      jump\n        /* \"--CODEGEN--\":13277:13382   */\n    tag_177:\n      0x00\n        /* \"--CODEGEN--\":13372:13376   */\n      0x20\n        /* \"--CODEGEN--\":13367:13370   */\n      dup3\n        /* \"--CODEGEN--\":13363:13377   */\n      add\n        /* \"--CODEGEN--\":13355:13377   */\n      swap1\n      pop\n        /* \"--CODEGEN--\":13349:13382   */\n      swap2\n      swap1\n      pop\n      jump\n        /* \"--CODEGEN--\":13389:13503   */\n    tag_191:\n      0x00\n        /* \"--CODEGEN--\":13493:13497   */\n      0x20\n        /* \"--CODEGEN--\":13488:13491   */\n      dup3\n        /* \"--CODEGEN--\":13484:13498   */\n      add\n        /* \"--CODEGEN--\":13476:13498   */\n      swap1\n      pop\n        /* \"--CODEGEN--\":13470:13503   */\n      swap2\n      swap1\n      pop\n      jump\n        /* \"--CODEGEN--\":13510:13635   */\n    tag_205:\n      0x00\n        /* \"--CODEGEN--\":13625:13629   */\n      0x20\n        /* \"--CODEGEN--\":13620:13623   */\n      dup3\n        /* \"--CODEGEN--\":13616:13630   */\n      add\n        /* \"--CODEGEN--\":13608:13630   */\n      swap1\n      pop\n        /* \"--CODEGEN--\":13602:13635   */\n      swap2\n      swap1\n      pop\n      jump\n        /* \"--CODEGEN--\":13642:13750   */\n    tag_219:\n      0x00\n        /* \"--CODEGEN--\":13740:13744   */\n      0x20\n        /* \"--CODEGEN--\":13735:13738   */\n      dup3\n        /* \"--CODEGEN--\":13731:13745   */\n      add\n        /* \"--CODEGEN--\":13723:13745   */\n      swap1\n      pop\n        /* \"--CODEGEN--\":13717:13750   */\n      swap2\n      swap1\n      pop\n      jump\n        /* \"--CODEGEN--\":13758:13933   */\n    tag_169:\n      0x00\n        /* \"--CODEGEN--\":13885:13891   */\n      dup3\n        /* \"--CODEGEN--\":13880:13883   */\n      dup3\n        /* \"--CODEGEN--\":13873:13892   */\n      mstore\n        /* \"--CODEGEN--\":13922:13926   */\n      0x20\n        /* \"--CODEGEN--\":13917:13920   */\n      dup3\n        /* \"--CODEGEN--\":13913:13927   */\n      add\n        /* \"--CODEGEN--\":13898:13927   */\n      swap1\n      pop\n        /* \"--CODEGEN--\":13866:13933   */\n      swap3\n      swap2\n      pop\n      pop\n      jump\n        /* \"--CODEGEN--\":13942:14126   */\n    tag_183:\n      0x00\n        /* \"--CODEGEN--\":14078:14084   */\n      dup3\n        /* \"--CODEGEN--\":14073:14076   */\n      dup3\n        /* \"--CODEGEN--\":14066:14085   */\n      mstore\n        /* \"--CODEGEN--\":14115:14119   */\n      0x20\n        /* \"--CODEGEN--\":14110:14113   */\n      dup3\n        /* \"--CODEGEN--\":14106:14120   */\n      add\n        /* \"--CODEGEN--\":14091:14120   */\n      swap1\n      pop\n        /* \"--CODEGEN--\":14059:14126   */\n      swap3\n      swap2\n      pop\n      pop\n      jump\n        /* \"--CODEGEN--\":14135:14330   */\n    tag_197:\n      0x00\n        /* \"--CODEGEN--\":14282:14288   */\n      dup3\n        /* \"--CODEGEN--\":14277:14280   */\n      dup3\n        /* \"--CODEGEN--\":14270:14289   */\n      mstore\n        /* \"--CODEGEN--\":14319:14323   */\n      0x20\n        /* \"--CODEGEN--\":14314:14317   */\n      dup3\n        /* \"--CODEGEN--\":14310:14324   */\n      add\n        /* \"--CODEGEN--\":14295:14324   */\n      swap1\n      pop\n        /* \"--CODEGEN--\":14263:14330   */\n      swap3\n      swap2\n      pop\n      pop\n      jump\n        /* \"--CODEGEN--\":14339:14517   */\n    tag_211:\n      0x00\n        /* \"--CODEGEN--\":14469:14475   */\n      dup3\n        /* \"--CODEGEN--\":14464:14467   */\n      dup3\n        /* \"--CODEGEN--\":14457:14476   */\n      mstore\n        /* \"--CODEGEN--\":14506:14510   */\n      0x20\n        /* \"--CODEGEN--\":14501:14504   */\n      dup3\n        /* \"--CODEGEN--\":14497:14511   */\n      add\n        /* \"--CODEGEN--\":14482:14511   */\n      swap1\n      pop\n        /* \"--CODEGEN--\":14450:14517   */\n      swap3\n      swap2\n      pop\n      pop\n      jump\n        /* \"--CODEGEN--\":14526:14679   */\n    tag_230:\n      0x00\n        /* \"--CODEGEN--\":14631:14637   */\n      dup3\n        /* \"--CODEGEN--\":14626:14629   */\n      dup3\n        /* \"--CODEGEN--\":14619:14638   */\n      mstore\n        /* \"--CODEGEN--\":14668:14672   */\n      0x20\n        /* \"--CODEGEN--\":14663:14666   */\n      dup3\n        /* \"--CODEGEN--\":14659:14673   */\n      add\n        /* \"--CODEGEN--\":14644:14673   */\n      swap1\n      pop\n        /* \"--CODEGEN--\":14612:14679   */\n      swap3\n      swap2\n      pop\n      pop\n      jump\n        /* \"--CODEGEN--\":14688:14851   */\n    tag_239:\n      0x00\n        /* \"--CODEGEN--\":14803:14809   */\n      dup3\n        /* \"--CODEGEN--\":14798:14801   */\n      dup3\n        /* \"--CODEGEN--\":14791:14810   */\n      mstore\n        /* \"--CODEGEN--\":14840:14844   */\n      0x20\n        /* \"--CODEGEN--\":14835:14838   */\n      dup3\n        /* \"--CODEGEN--\":14831:14845   */\n      add\n        /* \"--CODEGEN--\":14816:14845   */\n      swap1\n      pop\n        /* \"--CODEGEN--\":14784:14851   */\n      swap3\n      swap2\n      pop\n      pop\n      jump\n        /* \"--CODEGEN--\":14859:14944   */\n    tag_222:\n      0x00\n        /* \"--CODEGEN--\":14932:14937   */\n      dup2\n        /* \"--CODEGEN--\":14925:14938   */\n      iszero\n        /* \"--CODEGEN--\":14918:14939   */\n      iszero\n        /* \"--CODEGEN--\":14907:14939   */\n      swap1\n      pop\n        /* \"--CODEGEN--\":14901:14944   */\n      swap2\n      swap1\n      pop\n      jump\n        /* \"--CODEGEN--\":14951:15023   */\n    tag_253:\n      0x00\n        /* \"--CODEGEN--\":15013:15018   */\n      dup2\n        /* \"--CODEGEN--\":15002:15018   */\n      swap1\n      pop\n        /* \"--CODEGEN--\":14996:15023   */\n      swap2\n      swap1\n      pop\n      jump\n        /* \"--CODEGEN--\":15031:15176   */\n    tag_128:\n        /* \"--CODEGEN--\":15112:15118   */\n      dup3\n        /* \"--CODEGEN--\":15107:15110   */\n      dup2\n        /* \"--CODEGEN--\":15102:15105   */\n      dup4\n        /* \"--CODEGEN--\":15089:15119   */\n      calldatacopy\n        /* \"--CODEGEN--\":15168:15169   */\n      0x00\n        /* \"--CODEGEN--\":15159:15165   */\n      dup4\n        /* \"--CODEGEN--\":15154:15157   */\n      dup4\n        /* \"--CODEGEN--\":15150:15166   */\n      add\n        /* \"--CODEGEN--\":15143:15170   */\n      mstore\n        /* \"--CODEGEN--\":15082:15176   */\n      pop\n      pop\n      pop\n      jump\n        /* \"--CODEGEN--\":15185:15453   */\n    tag_232:\n        /* \"--CODEGEN--\":15250:15251   */\n      0x00\n        /* \"--CODEGEN--\":15257:15358   */\n    tag_298:\n        /* \"--CODEGEN--\":15271:15277   */\n      dup4\n        /* \"--CODEGEN--\":15268:15269   */\n      dup2\n        /* \"--CODEGEN--\":15265:15278   */\n      lt\n        /* \"--CODEGEN--\":15257:15358   */\n      iszero\n      tag_300\n      jumpi\n        /* \"--CODEGEN--\":15347:15348   */\n      dup1\n        /* \"--CODEGEN--\":15342:15345   */\n      dup3\n        /* \"--CODEGEN--\":15338:15349   */\n      add\n        /* \"--CODEGEN--\":15332:15350   */\n      mload\n        /* \"--CODEGEN--\":15328:15329   */\n      dup2\n        /* \"--CODEGEN--\":15323:15326   */\n      dup5\n        /* \"--CODEGEN--\":15319:15330   */\n      add\n        /* \"--CODEGEN--\":15312:15351   */\n      mstore\n        /* \"--CODEGEN--\":15293:15295   */\n      0x20\n        /* \"--CODEGEN--\":15290:15291   */\n      dup2\n        /* \"--CODEGEN--\":15286:15296   */\n      add\n        /* \"--CODEGEN--\":15281:15296   */\n      swap1\n      pop\n        /* \"--CODEGEN--\":15257:15358   */\n      jump(tag_298)\n    tag_300:\n        /* \"--CODEGEN--\":15373:15379   */\n      dup4\n        /* \"--CODEGEN--\":15370:15371   */\n      dup2\n        /* \"--CODEGEN--\":15367:15380   */\n      gt\n        /* \"--CODEGEN--\":15364:15366   */\n      iszero\n      tag_301\n      jumpi\n        /* \"--CODEGEN--\":15438:15439   */\n      0x00\n        /* \"--CODEGEN--\":15429:15435   */\n      dup5\n        /* \"--CODEGEN--\":15424:15427   */\n      dup5\n        /* \"--CODEGEN--\":15420:15436   */\n      add\n        /* \"--CODEGEN--\":15413:15440   */\n      mstore\n        /* \"--CODEGEN--\":15364:15366   */\n    tag_301:\n        /* \"--CODEGEN--\":15234:15453   */\n      pop\n      pop\n      pop\n      pop\n      jump\n        /* \"--CODEGEN--\":15461:15558   */\n    tag_234:\n      0x00\n        /* \"--CODEGEN--\":15549:15551   */\n      0x1f\n        /* \"--CODEGEN--\":15545:15552   */\n      not\n        /* \"--CODEGEN--\":15540:15542   */\n      0x1f\n        /* \"--CODEGEN--\":15533:15538   */\n      dup4\n        /* \"--CODEGEN--\":15529:15543   */\n      add\n        /* \"--CODEGEN--\":15525:15553   */\n      and\n        /* \"--CODEGEN--\":15515:15553   */\n      swap1\n      pop\n        /* \"--CODEGEN--\":15509:15558   */\n      swap2\n      swap1\n      pop\n      jump\n        /* \"--CODEGEN--\":15566:15677   */\n    tag_118:\n        /* \"--CODEGEN--\":15632:15653   */\n      tag_304\n        /* \"--CODEGEN--\":15647:15652   */\n      dup2\n        /* \"--CODEGEN--\":15632:15653   */\n      jump(tag_222)\n    tag_304:\n        /* \"--CODEGEN--\":15625:15630   */\n      dup2\n        /* \"--CODEGEN--\":15622:15654   */\n      eq\n        /* \"--CODEGEN--\":15612:15614   */\n      tag_305\n      jumpi\n        /* \"--CODEGEN--\":15668:15669   */\n      0x00\n        /* \"--CODEGEN--\":15665:15666   */\n      dup1\n        /* \"--CODEGEN--\":15658:15670   */\n      revert\n        /* \"--CODEGEN--\":15612:15614   */\n    tag_305:\n        /* \"--CODEGEN--\":15606:15677   */\n      pop\n      jump\n        /* \"--CODEGEN--\":15684:15801   */\n    tag_132:\n        /* \"--CODEGEN--\":15753:15777   */\n      tag_307\n        /* \"--CODEGEN--\":15771:15776   */\n      dup2\n        /* \"--CODEGEN--\":15753:15777   */\n      jump(tag_253)\n    tag_307:\n        /* \"--CODEGEN--\":15746:15751   */\n      dup2\n        /* \"--CODEGEN--\":15743:15778   */\n      eq\n        /* \"--CODEGEN--\":15733:15735   */\n      tag_308\n      jumpi\n        /* \"--CODEGEN--\":15792:15793   */\n      0x00\n        /* \"--CODEGEN--\":15789:15790   */\n      dup1\n        /* \"--CODEGEN--\":15782:15794   */\n      revert\n        /* \"--CODEGEN--\":15733:15735   */\n    tag_308:\n        /* \"--CODEGEN--\":15727:15801   */\n      pop\n      jump\n\n    auxdata: 0xa2646970667358221220bde4cb66f842ca38eba3bbd27c3a3e82458fd14b1afabaa56b3baf4c5c87094d64736f6c63430006000033\n}\n",
				"bytecode": {
					"linkReferences": {},
					"object": "60806040523480156200001157600080fd5b506000600181905550620000626040518060400160405280600481526020017f566c61640000000000000000000000000000000000000000000000000000000081525060016200026060201b60201c565b620000aa6040518060400160405280600481526020017f4e696b610000000000000000000000000000000000000000000000000000000081525060016200026060201b60201c565b620000f26040518060400160405280600681526020017f4e6173747961000000000000000000000000000000000000000000000000000081525060016200026060201b60201c565b6200013a6040518060400160405280600581526020017f44616e796100000000000000000000000000000000000000000000000000000081525060006200026060201b60201c565b620001826040518060400160405280600581526020017f476f73686100000000000000000000000000000000000000000000000000000081525060006200026060201b60201c565b620001ca6040518060400160405280600481526020017f416e79610000000000000000000000000000000000000000000000000000000081525060006200026060201b60201c565b620002126040518060400160405280600481526020017f4c6572610000000000000000000000000000000000000000000000000000000081525060016200026060201b60201c565b6200025a6040518060400160405280600481526020017f566974610000000000000000000000000000000000000000000000000000000081525060016200026060201b60201c565b620003a4565b604051806060016040528060015481526020018381526020018215158152506000806001548152602001908152602001600020600082015181600001556020820151816001019080519060200190620002bb929190620002f5565b5060408201518160020160006101000a81548160ff0219169083151502179055509050506001600081548092919060010191905055505050565b828054600181600116156101000203166002900490600052602060002090601f016020900481019282601f106200033857805160ff191683800117855562000369565b8280016001018555821562000369579182015b82811115620003685782518255916020019190600101906200034b565b5b5090506200037891906200037c565b5090565b620003a191905b808211156200039d57600081600090555060010162000383565b5090565b90565b6111b080620003b46000396000f3fe608060405234801561001057600080fd5b50600436106100935760003560e01c80637f44982a116100665780637f44982a1461013857806392c6838914610168578063ab7a201514610184578063d3516b7e146101b4578063f97698f8146101d057610093565b806311aee3801461009857806318129c54146100b65780635daf08ca146100e65780636f416d5914610118575b600080fd5b6100a0610200565b6040516100ad9190610f20565b60405180910390f35b6100d060048036036100cb9190810190610adf565b610206565b6040516100dd9190610f20565b60405180910390f35b61010060048036036100fb9190810190610adf565b610227565b60405161010f93929190610f3b565b60405180910390f35b6101206102f6565b60405161012f93929190610eb2565b60405180910390f35b610152600480360361014d9190810190610a62565b6104e8565b60405161015f9190610e90565b60405180910390f35b610182600480360361017d9190810190610a8b565b6106dd565b005b61019e60048036036101999190810190610a62565b610770565b6040516101ab9190610f20565b60405180910390f35b6101ce60048036036101c99190810190610b08565b6107d5565b005b6101ea60048036036101e59190810190610adf565b610806565b6040516101f79190610efe565b60405180910390f35b60015481565b6002818154811061021357fe5b906000526020600020016000915090505481565b6000602052806000526040600020600091509050806000015490806001018054600181600116156101000203166002900480601f0160208091040260200160405190810160405280929190818152602001828054600181600116156101000203166002900480156102d95780601f106102ae576101008083540402835291602001916102d9565b820191906000526020600020905b8154815290600101906020018083116102bc57829003601f168201915b5050505050908060020160009054906101000a900460ff16905083565b60608060608060015460405190808252806020026020018201604052801561032d5781602001602082028038833980820191505090505b509050606060015460405190808252806020026020018201604052801561036857816020015b60608152602001906001900390816103535790505b509050606060015460405190808252806020026020018201604052801561039e5781602001602082028038833980820191505090505b50905060008090505b6001548110156104d6576000806000838152602001908152602001600020905080600001548583815181106103d857fe5b602002602001018181525050806001018054600181600116156101000203166002900480601f01602080910402602001604051908101604052809291908181526020018280546001816001161561010002031660029004801561047c5780601f106104515761010080835404028352916020019161047c565b820191906000526020600020905b81548152906001019060200180831161045f57829003601f168201915b505050505084838151811061048d57fe5b60200260200101819052508060020160009054906101000a900460ff168383815181106104b657fe5b6020026020010190151590811515815250505080806001019150506103a7565b50828282955095509550505050909192565b6060600080600090505b6001548110156105405783151560008083815260200190815260200160002060020160009054906101000a900460ff16151514156105335781806001019250505b80806001019150506104f2565b5060608160405190808252806020026020018201604052801561057d57816020015b61056a6108f9565b8152602001906001900390816105625790505b509050600080600090505b6001548110156106d15785151560008083815260200190815260200160002060020160009054906101000a900460ff16151514156106c45760008082815260200190815260200160002060405180606001604052908160008201548152602001600182018054600181600116156101000203166002900480601f0160208091040260200160405190810160405280929190818152602001828054600181600116156101000203166002900480156106805780601f1061065557610100808354040283529160200191610680565b820191906000526020600020905b81548152906001019060200180831161066357829003601f168201915b505050505081526020016002820160009054906101000a900460ff1615151515815250508383815181106106b057fe5b602002602001018190525081806001019250505b8080600101915050610588565b50819350505050919050565b60405180606001604052806001548152602001838152602001821515815250600080600154815260200190815260200160002060008201518160000155602082015181600101908051906020019061073692919061091c565b5060408201518160020160006101000a81548160ff0219169083151502179055509050506001600081548092919060010191905055505050565b6000806000905060008090505b6001548110156107cb5783151560008083815260200190815260200160002060020160009054906101000a900460ff16151514156107be5781806001019250505b808060010191505061077d565b5080915050919050565b8060008084815260200190815260200160002060020160006101000a81548160ff0219169083151502179055505050565b61080e61099c565b60008083815260200190815260200160002060405180606001604052908160008201548152602001600182018054600181600116156101000203166002900480601f0160208091040260200160405190810160405280929190818152602001828054600181600116156101000203166002900480156108ce5780601f106108a3576101008083540402835291602001916108ce565b820191906000526020600020905b8154815290600101906020018083116108b157829003601f168201915b505050505081526020016002820160009054906101000a900460ff1615151515815250509050919050565b604051806060016040528060008152602001606081526020016000151581525090565b828054600181600116156101000203166002900490600052602060002090601f016020900481019282601f1061095d57805160ff191683800117855561098b565b8280016001018555821561098b579182015b8281111561098a57825182559160200191906001019061096f565b5b50905061099891906109bf565b5090565b604051806060016040528060008152602001606081526020016000151581525090565b6109e191905b808211156109dd5760008160009055506001016109c5565b5090565b90565b6000813590506109f38161114c565b92915050565b600082601f830112610a0a57600080fd5b8135610a1d610a1882610fa6565b610f79565b91508082526020830160208301858383011115610a3957600080fd5b610a448382846110f9565b50505092915050565b600081359050610a5c81611163565b92915050565b600060208284031215610a7457600080fd5b6000610a82848285016109e4565b91505092915050565b60008060408385031215610a9e57600080fd5b600083013567ffffffffffffffff811115610ab857600080fd5b610ac4858286016109f9565b9250506020610ad5858286016109e4565b9150509250929050565b600060208284031215610af157600080fd5b6000610aff84828501610a4d565b91505092915050565b60008060408385031215610b1b57600080fd5b6000610b2985828601610a4d565b9250506020610b3a858286016109e4565b9150509250929050565b6000610b508383610d42565b60208301905092915050565b6000610b688383610d60565b905092915050565b6000610b7c8383610e22565b905092915050565b6000610b908383610e72565b60208301905092915050565b6000610ba782611012565b610bb1818561107d565b9350610bbc83610fd2565b8060005b83811015610bed578151610bd48882610b44565b9750610bdf83611049565b925050600181019050610bc0565b5085935050505092915050565b6000610c058261101d565b610c0f818561108e565b935083602082028501610c2185610fe2565b8060005b85811015610c5d5784840389528151610c3e8582610b5c565b9450610c4983611056565b925060208a01995050600181019050610c25565b50829750879550505050505092915050565b6000610c7a82611028565b610c84818561109f565b935083602082028501610c9685610ff2565b8060005b85811015610cd25784840389528151610cb38582610b70565b9450610cbe83611063565b925060208a01995050600181019050610c9a565b50829750879550505050505092915050565b6000610cef82611033565b610cf981856110b0565b9350610d0483611002565b8060005b83811015610d35578151610d1c8882610b84565b9750610d2783611070565b925050600181019050610d08565b5085935050505092915050565b610d4b816110e3565b82525050565b610d5a816110e3565b82525050565b6000610d6b8261103e565b610d7581856110c1565b9350610d85818560208601611108565b610d8e8161113b565b840191505092915050565b6000610da48261103e565b610dae81856110d2565b9350610dbe818560208601611108565b610dc78161113b565b840191505092915050565b6000606083016000830151610dea6000860182610e72565b5060208301518482036020860152610e028282610d60565b9150506040830151610e176040860182610d42565b508091505092915050565b6000606083016000830151610e3a6000860182610e72565b5060208301518482036020860152610e528282610d60565b9150506040830151610e676040860182610d42565b508091505092915050565b610e7b816110ef565b82525050565b610e8a816110ef565b82525050565b60006020820190508181036000830152610eaa8184610c6f565b905092915050565b60006060820190508181036000830152610ecc8186610ce4565b90508181036020830152610ee08185610bfa565b90508181036040830152610ef48184610b9c565b9050949350505050565b60006020820190508181036000830152610f188184610dd2565b905092915050565b6000602082019050610f356000830184610e81565b92915050565b6000606082019050610f506000830186610e81565b8181036020830152610f628185610d99565b9050610f716040830184610d51565b949350505050565b6000604051905081810181811067ffffffffffffffff82111715610f9c57600080fd5b8060405250919050565b600067ffffffffffffffff821115610fbd57600080fd5b601f19601f8301169050602081019050919050565b6000819050602082019050919050565b6000819050602082019050919050565b6000819050602082019050919050565b6000819050602082019050919050565b600081519050919050565b600081519050919050565b600081519050919050565b600081519050919050565b600081519050919050565b6000602082019050919050565b6000602082019050919050565b6000602082019050919050565b6000602082019050919050565b600082825260208201905092915050565b600082825260208201905092915050565b600082825260208201905092915050565b600082825260208201905092915050565b600082825260208201905092915050565b600082825260208201905092915050565b60008115159050919050565b6000819050919050565b82818337600083830152505050565b60005b8381101561112657808201518184015260208101905061110b565b83811115611135576000848401525b50505050565b6000601f19601f8301169050919050565b611155816110e3565b811461116057600080fd5b50565b61116c816110ef565b811461117757600080fd5b5056fea2646970667358221220bde4cb66f842ca38eba3bbd27c3a3e82458fd14b1afabaa56b3baf4c5c87094d64736f6c63430006000033",
					"opcodes": "PUSH1 0x80 PUSH1 0x40 MSTORE CALLVALUE DUP1 ISZERO PUSH3 0x11 JUMPI PUSH1 0x0 DUP1 REVERT JUMPDEST POP PUSH1 0x0 PUSH1 0x1 DUP2 SWAP1 SSTORE POP PUSH3 0x62 PUSH1 0x40 MLOAD DUP1 PUSH1 0x40 ADD PUSH1 0x40 MSTORE DUP1 PUSH1 0x4 DUP2 MSTORE PUSH1 0x20 ADD PUSH32 0x566C616400000000000000000000000000000000000000000000000000000000 DUP2 MSTORE POP PUSH1 0x1 PUSH3 0x260 PUSH1 0x20 SHL PUSH1 0x20 SHR JUMP JUMPDEST PUSH3 0xAA PUSH1 0x40 MLOAD DUP1 PUSH1 0x40 ADD PUSH1 0x40 MSTORE DUP1 PUSH1 0x4 DUP2 MSTORE PUSH1 0x20 ADD PUSH32 0x4E696B6100000000000000000000000000000000000000000000000000000000 DUP2 MSTORE POP PUSH1 0x1 PUSH3 0x260 PUSH1 0x20 SHL PUSH1 0x20 SHR JUMP JUMPDEST PUSH3 0xF2 PUSH1 0x40 MLOAD DUP1 PUSH1 0x40 ADD PUSH1 0x40 MSTORE DUP1 PUSH1 0x6 DUP2 MSTORE PUSH1 0x20 ADD PUSH32 0x4E61737479610000000000000000000000000000000000000000000000000000 DUP2 MSTORE POP PUSH1 0x1 PUSH3 0x260 PUSH1 0x20 SHL PUSH1 0x20 SHR JUMP JUMPDEST PUSH3 0x13A PUSH1 0x40 MLOAD DUP1 PUSH1 0x40 ADD PUSH1 0x40 MSTORE DUP1 PUSH1 0x5 DUP2 MSTORE PUSH1 0x20 ADD PUSH32 0x44616E7961000000000000000000000000000000000000000000000000000000 DUP2 MSTORE POP PUSH1 0x0 PUSH3 0x260 PUSH1 0x20 SHL PUSH1 0x20 SHR JUMP JUMPDEST PUSH3 0x182 PUSH1 0x40 MLOAD DUP1 PUSH1 0x40 ADD PUSH1 0x40 MSTORE DUP1 PUSH1 0x5 DUP2 MSTORE PUSH1 0x20 ADD PUSH32 0x476F736861000000000000000000000000000000000000000000000000000000 DUP2 MSTORE POP PUSH1 0x0 PUSH3 0x260 PUSH1 0x20 SHL PUSH1 0x20 SHR JUMP JUMPDEST PUSH3 0x1CA PUSH1 0x40 MLOAD DUP1 PUSH1 0x40 ADD PUSH1 0x40 MSTORE DUP1 PUSH1 0x4 DUP2 MSTORE PUSH1 0x20 ADD PUSH32 0x416E796100000000000000000000000000000000000000000000000000000000 DUP2 MSTORE POP PUSH1 0x0 PUSH3 0x260 PUSH1 0x20 SHL PUSH1 0x20 SHR JUMP JUMPDEST PUSH3 0x212 PUSH1 0x40 MLOAD DUP1 PUSH1 0x40 ADD PUSH1 0x40 MSTORE DUP1 PUSH1 0x4 DUP2 MSTORE PUSH1 0x20 ADD PUSH32 0x4C65726100000000000000000000000000000000000000000000000000000000 DUP2 MSTORE POP PUSH1 0x1 PUSH3 0x260 PUSH1 0x20 SHL PUSH1 0x20 SHR JUMP JUMPDEST PUSH3 0x25A PUSH1 0x40 MLOAD DUP1 PUSH1 0x40 ADD PUSH1 0x40 MSTORE DUP1 PUSH1 0x4 DUP2 MSTORE PUSH1 0x20 ADD PUSH32 0x5669746100000000000000000000000000000000000000000000000000000000 DUP2 MSTORE POP PUSH1 0x1 PUSH3 0x260 PUSH1 0x20 SHL PUSH1 0x20 SHR JUMP JUMPDEST PUSH3 0x3A4 JUMP JUMPDEST PUSH1 0x40 MLOAD DUP1 PUSH1 0x60 ADD PUSH1 0x40 MSTORE DUP1 PUSH1 0x1 SLOAD DUP2 MSTORE PUSH1 0x20 ADD DUP4 DUP2 MSTORE PUSH1 0x20 ADD DUP3 ISZERO ISZERO DUP2 MSTORE POP PUSH1 0x0 DUP1 PUSH1 0x1 SLOAD DUP2 MSTORE PUSH1 0x20 ADD SWAP1 DUP2 MSTORE PUSH1 0x20 ADD PUSH1 0x0 KECCAK256 PUSH1 0x0 DUP3 ADD MLOAD DUP2 PUSH1 0x0 ADD SSTORE PUSH1 0x20 DUP3 ADD MLOAD DUP2 PUSH1 0x1 ADD SWAP1 DUP1 MLOAD SWAP1 PUSH1 0x20 ADD SWAP1 PUSH3 0x2BB SWAP3 SWAP2 SWAP1 PUSH3 0x2F5 JUMP JUMPDEST POP PUSH1 0x40 DUP3 ADD MLOAD DUP2 PUSH1 0x2 ADD PUSH1 0x0 PUSH2 0x100 EXP DUP2 SLOAD DUP2 PUSH1 0xFF MUL NOT AND SWAP1 DUP4 ISZERO ISZERO MUL OR SWAP1 SSTORE POP SWAP1 POP POP PUSH1 0x1 PUSH1 0x0 DUP2 SLOAD DUP1 SWAP3 SWAP2 SWAP1 PUSH1 0x1 ADD SWAP2 SWAP1 POP SSTORE POP POP POP JUMP JUMPDEST DUP3 DUP1 SLOAD PUSH1 0x1 DUP2 PUSH1 0x1 AND ISZERO PUSH2 0x100 MUL SUB AND PUSH1 0x2 SWAP1 DIV SWAP1 PUSH1 0x0 MSTORE PUSH1 0x20 PUSH1 0x0 KECCAK256 SWAP1 PUSH1 0x1F ADD PUSH1 0x20 SWAP1 DIV DUP2 ADD SWAP3 DUP3 PUSH1 0x1F LT PUSH3 0x338 JUMPI DUP1 MLOAD PUSH1 0xFF NOT AND DUP4 DUP1 ADD OR DUP6 SSTORE PUSH3 0x369 JUMP JUMPDEST DUP3 DUP1 ADD PUSH1 0x1 ADD DUP6 SSTORE DUP3 ISZERO PUSH3 0x369 JUMPI SWAP2 DUP3 ADD JUMPDEST DUP3 DUP2 GT ISZERO PUSH3 0x368 JUMPI DUP3 MLOAD DUP3 SSTORE SWAP2 PUSH1 0x20 ADD SWAP2 SWAP1 PUSH1 0x1 ADD SWAP1 PUSH3 0x34B JUMP JUMPDEST JUMPDEST POP SWAP1 POP PUSH3 0x378 SWAP2 SWAP1 PUSH3 0x37C JUMP JUMPDEST POP SWAP1 JUMP JUMPDEST PUSH3 0x3A1 SWAP2 SWAP1 JUMPDEST DUP1 DUP3 GT ISZERO PUSH3 0x39D JUMPI PUSH1 0x0 DUP2 PUSH1 0x0 SWAP1 SSTORE POP PUSH1 0x1 ADD PUSH3 0x383 JUMP JUMPDEST POP SWAP1 JUMP JUMPDEST SWAP1 JUMP JUMPDEST PUSH2 0x11B0 DUP1 PUSH3 0x3B4 PUSH1 0x0 CODECOPY PUSH1 0x0 RETURN INVALID PUSH1 0x80 PUSH1 0x40 MSTORE CALLVALUE DUP1 ISZERO PUSH2 0x10 JUMPI PUSH1 0x0 DUP1 REVERT JUMPDEST POP PUSH1 0x4 CALLDATASIZE LT PUSH2 0x93 JUMPI PUSH1 0x0 CALLDATALOAD PUSH1 0xE0 SHR DUP1 PUSH4 0x7F44982A GT PUSH2 0x66 JUMPI DUP1 PUSH4 0x7F44982A EQ PUSH2 0x138 JUMPI DUP1 PUSH4 0x92C68389 EQ PUSH2 0x168 JUMPI DUP1 PUSH4 0xAB7A2015 EQ PUSH2 0x184 JUMPI DUP1 PUSH4 0xD3516B7E EQ PUSH2 0x1B4 JUMPI DUP1 PUSH4 0xF97698F8 EQ PUSH2 0x1D0 JUMPI PUSH2 0x93 JUMP JUMPDEST DUP1 PUSH4 0x11AEE380 EQ PUSH2 0x98 JUMPI DUP1 PUSH4 0x18129C54 EQ PUSH2 0xB6 JUMPI DUP1 PUSH4 0x5DAF08CA EQ PUSH2 0xE6 JUMPI DUP1 PUSH4 0x6F416D59 EQ PUSH2 0x118 JUMPI JUMPDEST PUSH1 0x0 DUP1 REVERT JUMPDEST PUSH2 0xA0 PUSH2 0x200 JUMP JUMPDEST PUSH1 0x40 MLOAD PUSH2 0xAD SWAP2 SWAP1 PUSH2 0xF20 JUMP JUMPDEST PUSH1 0x40 MLOAD DUP1 SWAP2 SUB SWAP1 RETURN JUMPDEST PUSH2 0xD0 PUSH1 0x4 DUP1 CALLDATASIZE SUB PUSH2 0xCB SWAP2 SWAP1 DUP2 ADD SWAP1 PUSH2 0xADF JUMP JUMPDEST PUSH2 0x206 JUMP JUMPDEST PUSH1 0x40 MLOAD PUSH2 0xDD SWAP2 SWAP1 PUSH2 0xF20 JUMP JUMPDEST PUSH1 0x40 MLOAD DUP1 SWAP2 SUB SWAP1 RETURN JUMPDEST PUSH2 0x100 PUSH1 0x4 DUP1 CALLDATASIZE SUB PUSH2 0xFB SWAP2 SWAP1 DUP2 ADD SWAP1 PUSH2 0xADF JUMP JUMPDEST PUSH2 0x227 JUMP JUMPDEST PUSH1 0x40 MLOAD PUSH2 0x10F SWAP4 SWAP3 SWAP2 SWAP1 PUSH2 0xF3B JUMP JUMPDEST PUSH1 0x40 MLOAD DUP1 SWAP2 SUB SWAP1 RETURN JUMPDEST PUSH2 0x120 PUSH2 0x2F6 JUMP JUMPDEST PUSH1 0x40 MLOAD PUSH2 0x12F SWAP4 SWAP3 SWAP2 SWAP1 PUSH2 0xEB2 JUMP JUMPDEST PUSH1 0x40 MLOAD DUP1 SWAP2 SUB SWAP1 RETURN JUMPDEST PUSH2 0x152 PUSH1 0x4 DUP1 CALLDATASIZE SUB PUSH2 0x14D SWAP2 SWAP1 DUP2 ADD SWAP1 PUSH2 0xA62 JUMP JUMPDEST PUSH2 0x4E8 JUMP JUMPDEST PUSH1 0x40 MLOAD PUSH2 0x15F SWAP2 SWAP1 PUSH2 0xE90 JUMP JUMPDEST PUSH1 0x40 MLOAD DUP1 SWAP2 SUB SWAP1 RETURN JUMPDEST PUSH2 0x182 PUSH1 0x4 DUP1 CALLDATASIZE SUB PUSH2 0x17D SWAP2 SWAP1 DUP2 ADD SWAP1 PUSH2 0xA8B JUMP JUMPDEST PUSH2 0x6DD JUMP JUMPDEST STOP JUMPDEST PUSH2 0x19E PUSH1 0x4 DUP1 CALLDATASIZE SUB PUSH2 0x199 SWAP2 SWAP1 DUP2 ADD SWAP1 PUSH2 0xA62 JUMP JUMPDEST PUSH2 0x770 JUMP JUMPDEST PUSH1 0x40 MLOAD PUSH2 0x1AB SWAP2 SWAP1 PUSH2 0xF20 JUMP JUMPDEST PUSH1 0x40 MLOAD DUP1 SWAP2 SUB SWAP1 RETURN JUMPDEST PUSH2 0x1CE PUSH1 0x4 DUP1 CALLDATASIZE SUB PUSH2 0x1C9 SWAP2 SWAP1 DUP2 ADD SWAP1 PUSH2 0xB08 JUMP JUMPDEST PUSH2 0x7D5 JUMP JUMPDEST STOP JUMPDEST PUSH2 0x1EA PUSH1 0x4 DUP1 CALLDATASIZE SUB PUSH2 0x1E5 SWAP2 SWAP1 DUP2 ADD SWAP1 PUSH2 0xADF JUMP JUMPDEST PUSH2 0x806 JUMP JUMPDEST PUSH1 0x40 MLOAD PUSH2 0x1F7 SWAP2 SWAP1 PUSH2 0xEFE JUMP JUMPDEST PUSH1 0x40 MLOAD DUP1 SWAP2 SUB SWAP1 RETURN JUMPDEST PUSH1 0x1 SLOAD DUP2 JUMP JUMPDEST PUSH1 0x2 DUP2 DUP2 SLOAD DUP2 LT PUSH2 0x213 JUMPI INVALID JUMPDEST SWAP1 PUSH1 0x0 MSTORE PUSH1 0x20 PUSH1 0x0 KECCAK256 ADD PUSH1 0x0 SWAP2 POP SWAP1 POP SLOAD DUP2 JUMP JUMPDEST PUSH1 0x0 PUSH1 0x20 MSTORE DUP1 PUSH1 0x0 MSTORE PUSH1 0x40 PUSH1 0x0 KECCAK256 PUSH1 0x0 SWAP2 POP SWAP1 POP DUP1 PUSH1 0x0 ADD SLOAD SWAP1 DUP1 PUSH1 0x1 ADD DUP1 SLOAD PUSH1 0x1 DUP2 PUSH1 0x1 AND ISZERO PUSH2 0x100 MUL SUB AND PUSH1 0x2 SWAP1 DIV DUP1 PUSH1 0x1F ADD PUSH1 0x20 DUP1 SWAP2 DIV MUL PUSH1 0x20 ADD PUSH1 0x40 MLOAD SWAP1 DUP2 ADD PUSH1 0x40 MSTORE DUP1 SWAP3 SWAP2 SWAP1 DUP2 DUP2 MSTORE PUSH1 0x20 ADD DUP3 DUP1 SLOAD PUSH1 0x1 DUP2 PUSH1 0x1 AND ISZERO PUSH2 0x100 MUL SUB AND PUSH1 0x2 SWAP1 DIV DUP1 ISZERO PUSH2 0x2D9 JUMPI DUP1 PUSH1 0x1F LT PUSH2 0x2AE JUMPI PUSH2 0x100 DUP1 DUP4 SLOAD DIV MUL DUP4 MSTORE SWAP2 PUSH1 0x20 ADD SWAP2 PUSH2 0x2D9 JUMP JUMPDEST DUP3 ADD SWAP2 SWAP1 PUSH1 0x0 MSTORE PUSH1 0x20 PUSH1 0x0 KECCAK256 SWAP1 JUMPDEST DUP2 SLOAD DUP2 MSTORE SWAP1 PUSH1 0x1 ADD SWAP1 PUSH1 0x20 ADD DUP1 DUP4 GT PUSH2 0x2BC JUMPI DUP3 SWAP1 SUB PUSH1 0x1F AND DUP3 ADD SWAP2 JUMPDEST POP POP POP POP POP SWAP1 DUP1 PUSH1 0x2 ADD PUSH1 0x0 SWAP1 SLOAD SWAP1 PUSH2 0x100 EXP SWAP1 DIV PUSH1 0xFF AND SWAP1 POP DUP4 JUMP JUMPDEST PUSH1 0x60 DUP1 PUSH1 0x60 DUP1 PUSH1 0x1 SLOAD PUSH1 0x40 MLOAD SWAP1 DUP1 DUP3 MSTORE DUP1 PUSH1 0x20 MUL PUSH1 0x20 ADD DUP3 ADD PUSH1 0x40 MSTORE DUP1 ISZERO PUSH2 0x32D JUMPI DUP2 PUSH1 0x20 ADD PUSH1 0x20 DUP3 MUL DUP1 CODESIZE DUP4 CODECOPY DUP1 DUP3 ADD SWAP2 POP POP SWAP1 POP JUMPDEST POP SWAP1 POP PUSH1 0x60 PUSH1 0x1 SLOAD PUSH1 0x40 MLOAD SWAP1 DUP1 DUP3 MSTORE DUP1 PUSH1 0x20 MUL PUSH1 0x20 ADD DUP3 ADD PUSH1 0x40 MSTORE DUP1 ISZERO PUSH2 0x368 JUMPI DUP2 PUSH1 0x20 ADD JUMPDEST PUSH1 0x60 DUP2 MSTORE PUSH1 0x20 ADD SWAP1 PUSH1 0x1 SWAP1 SUB SWAP1 DUP2 PUSH2 0x353 JUMPI SWAP1 POP JUMPDEST POP SWAP1 POP PUSH1 0x60 PUSH1 0x1 SLOAD PUSH1 0x40 MLOAD SWAP1 DUP1 DUP3 MSTORE DUP1 PUSH1 0x20 MUL PUSH1 0x20 ADD DUP3 ADD PUSH1 0x40 MSTORE DUP1 ISZERO PUSH2 0x39E JUMPI DUP2 PUSH1 0x20 ADD PUSH1 0x20 DUP3 MUL DUP1 CODESIZE DUP4 CODECOPY DUP1 DUP3 ADD SWAP2 POP POP SWAP1 POP JUMPDEST POP SWAP1 POP PUSH1 0x0 DUP1 SWAP1 POP JUMPDEST PUSH1 0x1 SLOAD DUP2 LT ISZERO PUSH2 0x4D6 JUMPI PUSH1 0x0 DUP1 PUSH1 0x0 DUP4 DUP2 MSTORE PUSH1 0x20 ADD SWAP1 DUP2 MSTORE PUSH1 0x20 ADD PUSH1 0x0 KECCAK256 SWAP1 POP DUP1 PUSH1 0x0 ADD SLOAD DUP6 DUP4 DUP2 MLOAD DUP2 LT PUSH2 0x3D8 JUMPI INVALID JUMPDEST PUSH1 0x20 MUL PUSH1 0x20 ADD ADD DUP2 DUP2 MSTORE POP POP DUP1 PUSH1 0x1 ADD DUP1 SLOAD PUSH1 0x1 DUP2 PUSH1 0x1 AND ISZERO PUSH2 0x100 MUL SUB AND PUSH1 0x2 SWAP1 DIV DUP1 PUSH1 0x1F ADD PUSH1 0x20 DUP1 SWAP2 DIV MUL PUSH1 0x20 ADD PUSH1 0x40 MLOAD SWAP1 DUP2 ADD PUSH1 0x40 MSTORE DUP1 SWAP3 SWAP2 SWAP1 DUP2 DUP2 MSTORE PUSH1 0x20 ADD DUP3 DUP1 SLOAD PUSH1 0x1 DUP2 PUSH1 0x1 AND ISZERO PUSH2 0x100 MUL SUB AND PUSH1 0x2 SWAP1 DIV DUP1 ISZERO PUSH2 0x47C JUMPI DUP1 PUSH1 0x1F LT PUSH2 0x451 JUMPI PUSH2 0x100 DUP1 DUP4 SLOAD DIV MUL DUP4 MSTORE SWAP2 PUSH1 0x20 ADD SWAP2 PUSH2 0x47C JUMP JUMPDEST DUP3 ADD SWAP2 SWAP1 PUSH1 0x0 MSTORE PUSH1 0x20 PUSH1 0x0 KECCAK256 SWAP1 JUMPDEST DUP2 SLOAD DUP2 MSTORE SWAP1 PUSH1 0x1 ADD SWAP1 PUSH1 0x20 ADD DUP1 DUP4 GT PUSH2 0x45F JUMPI DUP3 SWAP1 SUB PUSH1 0x1F AND DUP3 ADD SWAP2 JUMPDEST POP POP POP POP POP DUP5 DUP4 DUP2 MLOAD DUP2 LT PUSH2 0x48D JUMPI INVALID JUMPDEST PUSH1 0x20 MUL PUSH1 0x20 ADD ADD DUP2 SWAP1 MSTORE POP DUP1 PUSH1 0x2 ADD PUSH1 0x0 SWAP1 SLOAD SWAP1 PUSH2 0x100 EXP SWAP1 DIV PUSH1 0xFF AND DUP4 DUP4 DUP2 MLOAD DUP2 LT PUSH2 0x4B6 JUMPI INVALID JUMPDEST PUSH1 0x20 MUL PUSH1 0x20 ADD ADD SWAP1 ISZERO ISZERO SWAP1 DUP2 ISZERO ISZERO DUP2 MSTORE POP POP POP DUP1 DUP1 PUSH1 0x1 ADD SWAP2 POP POP PUSH2 0x3A7 JUMP JUMPDEST POP DUP3 DUP3 DUP3 SWAP6 POP SWAP6 POP SWAP6 POP POP POP POP SWAP1 SWAP2 SWAP3 JUMP JUMPDEST PUSH1 0x60 PUSH1 0x0 DUP1 PUSH1 0x0 SWAP1 POP JUMPDEST PUSH1 0x1 SLOAD DUP2 LT ISZERO PUSH2 0x540 JUMPI DUP4 ISZERO ISZERO PUSH1 0x0 DUP1 DUP4 DUP2 MSTORE PUSH1 0x20 ADD SWAP1 DUP2 MSTORE PUSH1 0x20 ADD PUSH1 0x0 KECCAK256 PUSH1 0x2 ADD PUSH1 0x0 SWAP1 SLOAD SWAP1 PUSH2 0x100 EXP SWAP1 DIV PUSH1 0xFF AND ISZERO ISZERO EQ ISZERO PUSH2 0x533 JUMPI DUP2 DUP1 PUSH1 0x1 ADD SWAP3 POP POP JUMPDEST DUP1 DUP1 PUSH1 0x1 ADD SWAP2 POP POP PUSH2 0x4F2 JUMP JUMPDEST POP PUSH1 0x60 DUP2 PUSH1 0x40 MLOAD SWAP1 DUP1 DUP3 MSTORE DUP1 PUSH1 0x20 MUL PUSH1 0x20 ADD DUP3 ADD PUSH1 0x40 MSTORE DUP1 ISZERO PUSH2 0x57D JUMPI DUP2 PUSH1 0x20 ADD JUMPDEST PUSH2 0x56A PUSH2 0x8F9 JUMP JUMPDEST DUP2 MSTORE PUSH1 0x20 ADD SWAP1 PUSH1 0x1 SWAP1 SUB SWAP1 DUP2 PUSH2 0x562 JUMPI SWAP1 POP JUMPDEST POP SWAP1 POP PUSH1 0x0 DUP1 PUSH1 0x0 SWAP1 POP JUMPDEST PUSH1 0x1 SLOAD DUP2 LT ISZERO PUSH2 0x6D1 JUMPI DUP6 ISZERO ISZERO PUSH1 0x0 DUP1 DUP4 DUP2 MSTORE PUSH1 0x20 ADD SWAP1 DUP2 MSTORE PUSH1 0x20 ADD PUSH1 0x0 KECCAK256 PUSH1 0x2 ADD PUSH1 0x0 SWAP1 SLOAD SWAP1 PUSH2 0x100 EXP SWAP1 DIV PUSH1 0xFF AND ISZERO ISZERO EQ ISZERO PUSH2 0x6C4 JUMPI PUSH1 0x0 DUP1 DUP3 DUP2 MSTORE PUSH1 0x20 ADD SWAP1 DUP2 MSTORE PUSH1 0x20 ADD PUSH1 0x0 KECCAK256 PUSH1 0x40 MLOAD DUP1 PUSH1 0x60 ADD PUSH1 0x40 MSTORE SWAP1 DUP2 PUSH1 0x0 DUP3 ADD SLOAD DUP2 MSTORE PUSH1 0x20 ADD PUSH1 0x1 DUP3 ADD DUP1 SLOAD PUSH1 0x1 DUP2 PUSH1 0x1 AND ISZERO PUSH2 0x100 MUL SUB AND PUSH1 0x2 SWAP1 DIV DUP1 PUSH1 0x1F ADD PUSH1 0x20 DUP1 SWAP2 DIV MUL PUSH1 0x20 ADD PUSH1 0x40 MLOAD SWAP1 DUP2 ADD PUSH1 0x40 MSTORE DUP1 SWAP3 SWAP2 SWAP1 DUP2 DUP2 MSTORE PUSH1 0x20 ADD DUP3 DUP1 SLOAD PUSH1 0x1 DUP2 PUSH1 0x1 AND ISZERO PUSH2 0x100 MUL SUB AND PUSH1 0x2 SWAP1 DIV DUP1 ISZERO PUSH2 0x680 JUMPI DUP1 PUSH1 0x1F LT PUSH2 0x655 JUMPI PUSH2 0x100 DUP1 DUP4 SLOAD DIV MUL DUP4 MSTORE SWAP2 PUSH1 0x20 ADD SWAP2 PUSH2 0x680 JUMP JUMPDEST DUP3 ADD SWAP2 SWAP1 PUSH1 0x0 MSTORE PUSH1 0x20 PUSH1 0x0 KECCAK256 SWAP1 JUMPDEST DUP2 SLOAD DUP2 MSTORE SWAP1 PUSH1 0x1 ADD SWAP1 PUSH1 0x20 ADD DUP1 DUP4 GT PUSH2 0x663 JUMPI DUP3 SWAP1 SUB PUSH1 0x1F AND DUP3 ADD SWAP2 JUMPDEST POP POP POP POP POP DUP2 MSTORE PUSH1 0x20 ADD PUSH1 0x2 DUP3 ADD PUSH1 0x0 SWAP1 SLOAD SWAP1 PUSH2 0x100 EXP SWAP1 DIV PUSH1 0xFF AND ISZERO ISZERO ISZERO ISZERO DUP2 MSTORE POP POP DUP4 DUP4 DUP2 MLOAD DUP2 LT PUSH2 0x6B0 JUMPI INVALID JUMPDEST PUSH1 0x20 MUL PUSH1 0x20 ADD ADD DUP2 SWAP1 MSTORE POP DUP2 DUP1 PUSH1 0x1 ADD SWAP3 POP POP JUMPDEST DUP1 DUP1 PUSH1 0x1 ADD SWAP2 POP POP PUSH2 0x588 JUMP JUMPDEST POP DUP2 SWAP4 POP POP POP POP SWAP2 SWAP1 POP JUMP JUMPDEST PUSH1 0x40 MLOAD DUP1 PUSH1 0x60 ADD PUSH1 0x40 MSTORE DUP1 PUSH1 0x1 SLOAD DUP2 MSTORE PUSH1 0x20 ADD DUP4 DUP2 MSTORE PUSH1 0x20 ADD DUP3 ISZERO ISZERO DUP2 MSTORE POP PUSH1 0x0 DUP1 PUSH1 0x1 SLOAD DUP2 MSTORE PUSH1 0x20 ADD SWAP1 DUP2 MSTORE PUSH1 0x20 ADD PUSH1 0x0 KECCAK256 PUSH1 0x0 DUP3 ADD MLOAD DUP2 PUSH1 0x0 ADD SSTORE PUSH1 0x20 DUP3 ADD MLOAD DUP2 PUSH1 0x1 ADD SWAP1 DUP1 MLOAD SWAP1 PUSH1 0x20 ADD SWAP1 PUSH2 0x736 SWAP3 SWAP2 SWAP1 PUSH2 0x91C JUMP JUMPDEST POP PUSH1 0x40 DUP3 ADD MLOAD DUP2 PUSH1 0x2 ADD PUSH1 0x0 PUSH2 0x100 EXP DUP2 SLOAD DUP2 PUSH1 0xFF MUL NOT AND SWAP1 DUP4 ISZERO ISZERO MUL OR SWAP1 SSTORE POP SWAP1 POP POP PUSH1 0x1 PUSH1 0x0 DUP2 SLOAD DUP1 SWAP3 SWAP2 SWAP1 PUSH1 0x1 ADD SWAP2 SWAP1 POP SSTORE POP POP POP JUMP JUMPDEST PUSH1 0x0 DUP1 PUSH1 0x0 SWAP1 POP PUSH1 0x0 DUP1 SWAP1 POP JUMPDEST PUSH1 0x1 SLOAD DUP2 LT ISZERO PUSH2 0x7CB JUMPI DUP4 ISZERO ISZERO PUSH1 0x0 DUP1 DUP4 DUP2 MSTORE PUSH1 0x20 ADD SWAP1 DUP2 MSTORE PUSH1 0x20 ADD PUSH1 0x0 KECCAK256 PUSH1 0x2 ADD PUSH1 0x0 SWAP1 SLOAD SWAP1 PUSH2 0x100 EXP SWAP1 DIV PUSH1 0xFF AND ISZERO ISZERO EQ ISZERO PUSH2 0x7BE JUMPI DUP2 DUP1 PUSH1 0x1 ADD SWAP3 POP POP JUMPDEST DUP1 DUP1 PUSH1 0x1 ADD SWAP2 POP POP PUSH2 0x77D JUMP JUMPDEST POP DUP1 SWAP2 POP POP SWAP2 SWAP1 POP JUMP JUMPDEST DUP1 PUSH1 0x0 DUP1 DUP5 DUP2 MSTORE PUSH1 0x20 ADD SWAP1 DUP2 MSTORE PUSH1 0x20 ADD PUSH1 0x0 KECCAK256 PUSH1 0x2 ADD PUSH1 0x0 PUSH2 0x100 EXP DUP2 SLOAD DUP2 PUSH1 0xFF MUL NOT AND SWAP1 DUP4 ISZERO ISZERO MUL OR SWAP1 SSTORE POP POP POP JUMP JUMPDEST PUSH2 0x80E PUSH2 0x99C JUMP JUMPDEST PUSH1 0x0 DUP1 DUP4 DUP2 MSTORE PUSH1 0x20 ADD SWAP1 DUP2 MSTORE PUSH1 0x20 ADD PUSH1 0x0 KECCAK256 PUSH1 0x40 MLOAD DUP1 PUSH1 0x60 ADD PUSH1 0x40 MSTORE SWAP1 DUP2 PUSH1 0x0 DUP3 ADD SLOAD DUP2 MSTORE PUSH1 0x20 ADD PUSH1 0x1 DUP3 ADD DUP1 SLOAD PUSH1 0x1 DUP2 PUSH1 0x1 AND ISZERO PUSH2 0x100 MUL SUB AND PUSH1 0x2 SWAP1 DIV DUP1 PUSH1 0x1F ADD PUSH1 0x20 DUP1 SWAP2 DIV MUL PUSH1 0x20 ADD PUSH1 0x40 MLOAD SWAP1 DUP2 ADD PUSH1 0x40 MSTORE DUP1 SWAP3 SWAP2 SWAP1 DUP2 DUP2 MSTORE PUSH1 0x20 ADD DUP3 DUP1 SLOAD PUSH1 0x1 DUP2 PUSH1 0x1 AND ISZERO PUSH2 0x100 MUL SUB AND PUSH1 0x2 SWAP1 DIV DUP1 ISZERO PUSH2 0x8CE JUMPI DUP1 PUSH1 0x1F LT PUSH2 0x8A3 JUMPI PUSH2 0x100 DUP1 DUP4 SLOAD DIV MUL DUP4 MSTORE SWAP2 PUSH1 0x20 ADD SWAP2 PUSH2 0x8CE JUMP JUMPDEST DUP3 ADD SWAP2 SWAP1 PUSH1 0x0 MSTORE PUSH1 0x20 PUSH1 0x0 KECCAK256 SWAP1 JUMPDEST DUP2 SLOAD DUP2 MSTORE SWAP1 PUSH1 0x1 ADD SWAP1 PUSH1 0x20 ADD DUP1 DUP4 GT PUSH2 0x8B1 JUMPI DUP3 SWAP1 SUB PUSH1 0x1F AND DUP3 ADD SWAP2 JUMPDEST POP POP POP POP POP DUP2 MSTORE PUSH1 0x20 ADD PUSH1 0x2 DUP3 ADD PUSH1 0x0 SWAP1 SLOAD SWAP1 PUSH2 0x100 EXP SWAP1 DIV PUSH1 0xFF AND ISZERO ISZERO ISZERO ISZERO DUP2 MSTORE POP POP SWAP1 POP SWAP2 SWAP1 POP JUMP JUMPDEST PUSH1 0x40 MLOAD DUP1 PUSH1 0x60 ADD PUSH1 0x40 MSTORE DUP1 PUSH1 0x0 DUP2 MSTORE PUSH1 0x20 ADD PUSH1 0x60 DUP2 MSTORE PUSH1 0x20 ADD PUSH1 0x0 ISZERO ISZERO DUP2 MSTORE POP SWAP1 JUMP JUMPDEST DUP3 DUP1 SLOAD PUSH1 0x1 DUP2 PUSH1 0x1 AND ISZERO PUSH2 0x100 MUL SUB AND PUSH1 0x2 SWAP1 DIV SWAP1 PUSH1 0x0 MSTORE PUSH1 0x20 PUSH1 0x0 KECCAK256 SWAP1 PUSH1 0x1F ADD PUSH1 0x20 SWAP1 DIV DUP2 ADD SWAP3 DUP3 PUSH1 0x1F LT PUSH2 0x95D JUMPI DUP1 MLOAD PUSH1 0xFF NOT AND DUP4 DUP1 ADD OR DUP6 SSTORE PUSH2 0x98B JUMP JUMPDEST DUP3 DUP1 ADD PUSH1 0x1 ADD DUP6 SSTORE DUP3 ISZERO PUSH2 0x98B JUMPI SWAP2 DUP3 ADD JUMPDEST DUP3 DUP2 GT ISZERO PUSH2 0x98A JUMPI DUP3 MLOAD DUP3 SSTORE SWAP2 PUSH1 0x20 ADD SWAP2 SWAP1 PUSH1 0x1 ADD SWAP1 PUSH2 0x96F JUMP JUMPDEST JUMPDEST POP SWAP1 POP PUSH2 0x998 SWAP2 SWAP1 PUSH2 0x9BF JUMP JUMPDEST POP SWAP1 JUMP JUMPDEST PUSH1 0x40 MLOAD DUP1 PUSH1 0x60 ADD PUSH1 0x40 MSTORE DUP1 PUSH1 0x0 DUP2 MSTORE PUSH1 0x20 ADD PUSH1 0x60 DUP2 MSTORE PUSH1 0x20 ADD PUSH1 0x0 ISZERO ISZERO DUP2 MSTORE POP SWAP1 JUMP JUMPDEST PUSH2 0x9E1 SWAP2 SWAP1 JUMPDEST DUP1 DUP3 GT ISZERO PUSH2 0x9DD JUMPI PUSH1 0x0 DUP2 PUSH1 0x0 SWAP1 SSTORE POP PUSH1 0x1 ADD PUSH2 0x9C5 JUMP JUMPDEST POP SWAP1 JUMP JUMPDEST SWAP1 JUMP JUMPDEST PUSH1 0x0 DUP2 CALLDATALOAD SWAP1 POP PUSH2 0x9F3 DUP2 PUSH2 0x114C JUMP JUMPDEST SWAP3 SWAP2 POP POP JUMP JUMPDEST PUSH1 0x0 DUP3 PUSH1 0x1F DUP4 ADD SLT PUSH2 0xA0A JUMPI PUSH1 0x0 DUP1 REVERT JUMPDEST DUP2 CALLDATALOAD PUSH2 0xA1D PUSH2 0xA18 DUP3 PUSH2 0xFA6 JUMP JUMPDEST PUSH2 0xF79 JUMP JUMPDEST SWAP2 POP DUP1 DUP3 MSTORE PUSH1 0x20 DUP4 ADD PUSH1 0x20 DUP4 ADD DUP6 DUP4 DUP4 ADD GT ISZERO PUSH2 0xA39 JUMPI PUSH1 0x0 DUP1 REVERT JUMPDEST PUSH2 0xA44 DUP4 DUP3 DUP5 PUSH2 0x10F9 JUMP JUMPDEST POP POP POP SWAP3 SWAP2 POP POP JUMP JUMPDEST PUSH1 0x0 DUP2 CALLDATALOAD SWAP1 POP PUSH2 0xA5C DUP2 PUSH2 0x1163 JUMP JUMPDEST SWAP3 SWAP2 POP POP JUMP JUMPDEST PUSH1 0x0 PUSH1 0x20 DUP3 DUP5 SUB SLT ISZERO PUSH2 0xA74 JUMPI PUSH1 0x0 DUP1 REVERT JUMPDEST PUSH1 0x0 PUSH2 0xA82 DUP5 DUP3 DUP6 ADD PUSH2 0x9E4 JUMP JUMPDEST SWAP2 POP POP SWAP3 SWAP2 POP POP JUMP JUMPDEST PUSH1 0x0 DUP1 PUSH1 0x40 DUP4 DUP6 SUB SLT ISZERO PUSH2 0xA9E JUMPI PUSH1 0x0 DUP1 REVERT JUMPDEST PUSH1 0x0 DUP4 ADD CALLDATALOAD PUSH8 0xFFFFFFFFFFFFFFFF DUP2 GT ISZERO PUSH2 0xAB8 JUMPI PUSH1 0x0 DUP1 REVERT JUMPDEST PUSH2 0xAC4 DUP6 DUP3 DUP7 ADD PUSH2 0x9F9 JUMP JUMPDEST SWAP3 POP POP PUSH1 0x20 PUSH2 0xAD5 DUP6 DUP3 DUP7 ADD PUSH2 0x9E4 JUMP JUMPDEST SWAP2 POP POP SWAP3 POP SWAP3 SWAP1 POP JUMP JUMPDEST PUSH1 0x0 PUSH1 0x20 DUP3 DUP5 SUB SLT ISZERO PUSH2 0xAF1 JUMPI PUSH1 0x0 DUP1 REVERT JUMPDEST PUSH1 0x0 PUSH2 0xAFF DUP5 DUP3 DUP6 ADD PUSH2 0xA4D JUMP JUMPDEST SWAP2 POP POP SWAP3 SWAP2 POP POP JUMP JUMPDEST PUSH1 0x0 DUP1 PUSH1 0x40 DUP4 DUP6 SUB SLT ISZERO PUSH2 0xB1B JUMPI PUSH1 0x0 DUP1 REVERT JUMPDEST PUSH1 0x0 PUSH2 0xB29 DUP6 DUP3 DUP7 ADD PUSH2 0xA4D JUMP JUMPDEST SWAP3 POP POP PUSH1 0x20 PUSH2 0xB3A DUP6 DUP3 DUP7 ADD PUSH2 0x9E4 JUMP JUMPDEST SWAP2 POP POP SWAP3 POP SWAP3 SWAP1 POP JUMP JUMPDEST PUSH1 0x0 PUSH2 0xB50 DUP4 DUP4 PUSH2 0xD42 JUMP JUMPDEST PUSH1 0x20 DUP4 ADD SWAP1 POP SWAP3 SWAP2 POP POP JUMP JUMPDEST PUSH1 0x0 PUSH2 0xB68 DUP4 DUP4 PUSH2 0xD60 JUMP JUMPDEST SWAP1 POP SWAP3 SWAP2 POP POP JUMP JUMPDEST PUSH1 0x0 PUSH2 0xB7C DUP4 DUP4 PUSH2 0xE22 JUMP JUMPDEST SWAP1 POP SWAP3 SWAP2 POP POP JUMP JUMPDEST PUSH1 0x0 PUSH2 0xB90 DUP4 DUP4 PUSH2 0xE72 JUMP JUMPDEST PUSH1 0x20 DUP4 ADD SWAP1 POP SWAP3 SWAP2 POP POP JUMP JUMPDEST PUSH1 0x0 PUSH2 0xBA7 DUP3 PUSH2 0x1012 JUMP JUMPDEST PUSH2 0xBB1 DUP2 DUP6 PUSH2 0x107D JUMP JUMPDEST SWAP4 POP PUSH2 0xBBC DUP4 PUSH2 0xFD2 JUMP JUMPDEST DUP1 PUSH1 0x0 JUMPDEST DUP4 DUP2 LT ISZERO PUSH2 0xBED JUMPI DUP2 MLOAD PUSH2 0xBD4 DUP9 DUP3 PUSH2 0xB44 JUMP JUMPDEST SWAP8 POP PUSH2 0xBDF DUP4 PUSH2 0x1049 JUMP JUMPDEST SWAP3 POP POP PUSH1 0x1 DUP2 ADD SWAP1 POP PUSH2 0xBC0 JUMP JUMPDEST POP DUP6 SWAP4 POP POP POP POP SWAP3 SWAP2 POP POP JUMP JUMPDEST PUSH1 0x0 PUSH2 0xC05 DUP3 PUSH2 0x101D JUMP JUMPDEST PUSH2 0xC0F DUP2 DUP6 PUSH2 0x108E JUMP JUMPDEST SWAP4 POP DUP4 PUSH1 0x20 DUP3 MUL DUP6 ADD PUSH2 0xC21 DUP6 PUSH2 0xFE2 JUMP JUMPDEST DUP1 PUSH1 0x0 JUMPDEST DUP6 DUP2 LT ISZERO PUSH2 0xC5D JUMPI DUP5 DUP5 SUB DUP10 MSTORE DUP2 MLOAD PUSH2 0xC3E DUP6 DUP3 PUSH2 0xB5C JUMP JUMPDEST SWAP5 POP PUSH2 0xC49 DUP4 PUSH2 0x1056 JUMP JUMPDEST SWAP3 POP PUSH1 0x20 DUP11 ADD SWAP10 POP POP PUSH1 0x1 DUP2 ADD SWAP1 POP PUSH2 0xC25 JUMP JUMPDEST POP DUP3 SWAP8 POP DUP8 SWAP6 POP POP POP POP POP POP SWAP3 SWAP2 POP POP JUMP JUMPDEST PUSH1 0x0 PUSH2 0xC7A DUP3 PUSH2 0x1028 JUMP JUMPDEST PUSH2 0xC84 DUP2 DUP6 PUSH2 0x109F JUMP JUMPDEST SWAP4 POP DUP4 PUSH1 0x20 DUP3 MUL DUP6 ADD PUSH2 0xC96 DUP6 PUSH2 0xFF2 JUMP JUMPDEST DUP1 PUSH1 0x0 JUMPDEST DUP6 DUP2 LT ISZERO PUSH2 0xCD2 JUMPI DUP5 DUP5 SUB DUP10 MSTORE DUP2 MLOAD PUSH2 0xCB3 DUP6 DUP3 PUSH2 0xB70 JUMP JUMPDEST SWAP5 POP PUSH2 0xCBE DUP4 PUSH2 0x1063 JUMP JUMPDEST SWAP3 POP PUSH1 0x20 DUP11 ADD SWAP10 POP POP PUSH1 0x1 DUP2 ADD SWAP1 POP PUSH2 0xC9A JUMP JUMPDEST POP DUP3 SWAP8 POP DUP8 SWAP6 POP POP POP POP POP POP SWAP3 SWAP2 POP POP JUMP JUMPDEST PUSH1 0x0 PUSH2 0xCEF DUP3 PUSH2 0x1033 JUMP JUMPDEST PUSH2 0xCF9 DUP2 DUP6 PUSH2 0x10B0 JUMP JUMPDEST SWAP4 POP PUSH2 0xD04 DUP4 PUSH2 0x1002 JUMP JUMPDEST DUP1 PUSH1 0x0 JUMPDEST DUP4 DUP2 LT ISZERO PUSH2 0xD35 JUMPI DUP2 MLOAD PUSH2 0xD1C DUP9 DUP3 PUSH2 0xB84 JUMP JUMPDEST SWAP8 POP PUSH2 0xD27 DUP4 PUSH2 0x1070 JUMP JUMPDEST SWAP3 POP POP PUSH1 0x1 DUP2 ADD SWAP1 POP PUSH2 0xD08 JUMP JUMPDEST POP DUP6 SWAP4 POP POP POP POP SWAP3 SWAP2 POP POP JUMP JUMPDEST PUSH2 0xD4B DUP2 PUSH2 0x10E3 JUMP JUMPDEST DUP3 MSTORE POP POP JUMP JUMPDEST PUSH2 0xD5A DUP2 PUSH2 0x10E3 JUMP JUMPDEST DUP3 MSTORE POP POP JUMP JUMPDEST PUSH1 0x0 PUSH2 0xD6B DUP3 PUSH2 0x103E JUMP JUMPDEST PUSH2 0xD75 DUP2 DUP6 PUSH2 0x10C1 JUMP JUMPDEST SWAP4 POP PUSH2 0xD85 DUP2 DUP6 PUSH1 0x20 DUP7 ADD PUSH2 0x1108 JUMP JUMPDEST PUSH2 0xD8E DUP2 PUSH2 0x113B JUMP JUMPDEST DUP5 ADD SWAP2 POP POP SWAP3 SWAP2 POP POP JUMP JUMPDEST PUSH1 0x0 PUSH2 0xDA4 DUP3 PUSH2 0x103E JUMP JUMPDEST PUSH2 0xDAE DUP2 DUP6 PUSH2 0x10D2 JUMP JUMPDEST SWAP4 POP PUSH2 0xDBE DUP2 DUP6 PUSH1 0x20 DUP7 ADD PUSH2 0x1108 JUMP JUMPDEST PUSH2 0xDC7 DUP2 PUSH2 0x113B JUMP JUMPDEST DUP5 ADD SWAP2 POP POP SWAP3 SWAP2 POP POP JUMP JUMPDEST PUSH1 0x0 PUSH1 0x60 DUP4 ADD PUSH1 0x0 DUP4 ADD MLOAD PUSH2 0xDEA PUSH1 0x0 DUP7 ADD DUP3 PUSH2 0xE72 JUMP JUMPDEST POP PUSH1 0x20 DUP4 ADD MLOAD DUP5 DUP3 SUB PUSH1 0x20 DUP7 ADD MSTORE PUSH2 0xE02 DUP3 DUP3 PUSH2 0xD60 JUMP JUMPDEST SWAP2 POP POP PUSH1 0x40 DUP4 ADD MLOAD PUSH2 0xE17 PUSH1 0x40 DUP7 ADD DUP3 PUSH2 0xD42 JUMP JUMPDEST POP DUP1 SWAP2 POP POP SWAP3 SWAP2 POP POP JUMP JUMPDEST PUSH1 0x0 PUSH1 0x60 DUP4 ADD PUSH1 0x0 DUP4 ADD MLOAD PUSH2 0xE3A PUSH1 0x0 DUP7 ADD DUP3 PUSH2 0xE72 JUMP JUMPDEST POP PUSH1 0x20 DUP4 ADD MLOAD DUP5 DUP3 SUB PUSH1 0x20 DUP7 ADD MSTORE PUSH2 0xE52 DUP3 DUP3 PUSH2 0xD60 JUMP JUMPDEST SWAP2 POP POP PUSH1 0x40 DUP4 ADD MLOAD PUSH2 0xE67 PUSH1 0x40 DUP7 ADD DUP3 PUSH2 0xD42 JUMP JUMPDEST POP DUP1 SWAP2 POP POP SWAP3 SWAP2 POP POP JUMP JUMPDEST PUSH2 0xE7B DUP2 PUSH2 0x10EF JUMP JUMPDEST DUP3 MSTORE POP POP JUMP JUMPDEST PUSH2 0xE8A DUP2 PUSH2 0x10EF JUMP JUMPDEST DUP3 MSTORE POP POP JUMP JUMPDEST PUSH1 0x0 PUSH1 0x20 DUP3 ADD SWAP1 POP DUP2 DUP2 SUB PUSH1 0x0 DUP4 ADD MSTORE PUSH2 0xEAA DUP2 DUP5 PUSH2 0xC6F JUMP JUMPDEST SWAP1 POP SWAP3 SWAP2 POP POP JUMP JUMPDEST PUSH1 0x0 PUSH1 0x60 DUP3 ADD SWAP1 POP DUP2 DUP2 SUB PUSH1 0x0 DUP4 ADD MSTORE PUSH2 0xECC DUP2 DUP7 PUSH2 0xCE4 JUMP JUMPDEST SWAP1 POP DUP2 DUP2 SUB PUSH1 0x20 DUP4 ADD MSTORE PUSH2 0xEE0 DUP2 DUP6 PUSH2 0xBFA JUMP JUMPDEST SWAP1 POP DUP2 DUP2 SUB PUSH1 0x40 DUP4 ADD MSTORE PUSH2 0xEF4 DUP2 DUP5 PUSH2 0xB9C JUMP JUMPDEST SWAP1 POP SWAP5 SWAP4 POP POP POP POP JUMP JUMPDEST PUSH1 0x0 PUSH1 0x20 DUP3 ADD SWAP1 POP DUP2 DUP2 SUB PUSH1 0x0 DUP4 ADD MSTORE PUSH2 0xF18 DUP2 DUP5 PUSH2 0xDD2 JUMP JUMPDEST SWAP1 POP SWAP3 SWAP2 POP POP JUMP JUMPDEST PUSH1 0x0 PUSH1 0x20 DUP3 ADD SWAP1 POP PUSH2 0xF35 PUSH1 0x0 DUP4 ADD DUP5 PUSH2 0xE81 JUMP JUMPDEST SWAP3 SWAP2 POP POP JUMP JUMPDEST PUSH1 0x0 PUSH1 0x60 DUP3 ADD SWAP1 POP PUSH2 0xF50 PUSH1 0x0 DUP4 ADD DUP7 PUSH2 0xE81 JUMP JUMPDEST DUP2 DUP2 SUB PUSH1 0x20 DUP4 ADD MSTORE PUSH2 0xF62 DUP2 DUP6 PUSH2 0xD99 JUMP JUMPDEST SWAP1 POP PUSH2 0xF71 PUSH1 0x40 DUP4 ADD DUP5 PUSH2 0xD51 JUMP JUMPDEST SWAP5 SWAP4 POP POP POP POP JUMP JUMPDEST PUSH1 0x0 PUSH1 0x40 MLOAD SWAP1 POP DUP2 DUP2 ADD DUP2 DUP2 LT PUSH8 0xFFFFFFFFFFFFFFFF DUP3 GT OR ISZERO PUSH2 0xF9C JUMPI PUSH1 0x0 DUP1 REVERT JUMPDEST DUP1 PUSH1 0x40 MSTORE POP SWAP2 SWAP1 POP JUMP JUMPDEST PUSH1 0x0 PUSH8 0xFFFFFFFFFFFFFFFF DUP3 GT ISZERO PUSH2 0xFBD JUMPI PUSH1 0x0 DUP1 REVERT JUMPDEST PUSH1 0x1F NOT PUSH1 0x1F DUP4 ADD AND SWAP1 POP PUSH1 0x20 DUP2 ADD SWAP1 POP SWAP2 SWAP1 POP JUMP JUMPDEST PUSH1 0x0 DUP2 SWAP1 POP PUSH1 0x20 DUP3 ADD SWAP1 POP SWAP2 SWAP1 POP JUMP JUMPDEST PUSH1 0x0 DUP2 SWAP1 POP PUSH1 0x20 DUP3 ADD SWAP1 POP SWAP2 SWAP1 POP JUMP JUMPDEST PUSH1 0x0 DUP2 SWAP1 POP PUSH1 0x20 DUP3 ADD SWAP1 POP SWAP2 SWAP1 POP JUMP JUMPDEST PUSH1 0x0 DUP2 SWAP1 POP PUSH1 0x20 DUP3 ADD SWAP1 POP SWAP2 SWAP1 POP JUMP JUMPDEST PUSH1 0x0 DUP2 MLOAD SWAP1 POP SWAP2 SWAP1 POP JUMP JUMPDEST PUSH1 0x0 DUP2 MLOAD SWAP1 POP SWAP2 SWAP1 POP JUMP JUMPDEST PUSH1 0x0 DUP2 MLOAD SWAP1 POP SWAP2 SWAP1 POP JUMP JUMPDEST PUSH1 0x0 DUP2 MLOAD SWAP1 POP SWAP2 SWAP1 POP JUMP JUMPDEST PUSH1 0x0 DUP2 MLOAD SWAP1 POP SWAP2 SWAP1 POP JUMP JUMPDEST PUSH1 0x0 PUSH1 0x20 DUP3 ADD SWAP1 POP SWAP2 SWAP1 POP JUMP JUMPDEST PUSH1 0x0 PUSH1 0x20 DUP3 ADD SWAP1 POP SWAP2 SWAP1 POP JUMP JUMPDEST PUSH1 0x0 PUSH1 0x20 DUP3 ADD SWAP1 POP SWAP2 SWAP1 POP JUMP JUMPDEST PUSH1 0x0 PUSH1 0x20 DUP3 ADD SWAP1 POP SWAP2 SWAP1 POP JUMP JUMPDEST PUSH1 0x0 DUP3 DUP3 MSTORE PUSH1 0x20 DUP3 ADD SWAP1 POP SWAP3 SWAP2 POP POP JUMP JUMPDEST PUSH1 0x0 DUP3 DUP3 MSTORE PUSH1 0x20 DUP3 ADD SWAP1 POP SWAP3 SWAP2 POP POP JUMP JUMPDEST PUSH1 0x0 DUP3 DUP3 MSTORE PUSH1 0x20 DUP3 ADD SWAP1 POP SWAP3 SWAP2 POP POP JUMP JUMPDEST PUSH1 0x0 DUP3 DUP3 MSTORE PUSH1 0x20 DUP3 ADD SWAP1 POP SWAP3 SWAP2 POP POP JUMP JUMPDEST PUSH1 0x0 DUP3 DUP3 MSTORE PUSH1 0x20 DUP3 ADD SWAP1 POP SWAP3 SWAP2 POP POP JUMP JUMPDEST PUSH1 0x0 DUP3 DUP3 MSTORE PUSH1 0x20 DUP3 ADD SWAP1 POP SWAP3 SWAP2 POP POP JUMP JUMPDEST PUSH1 0x0 DUP2 ISZERO ISZERO SWAP1 POP SWAP2 SWAP1 POP JUMP JUMPDEST PUSH1 0x0 DUP2 SWAP1 POP SWAP2 SWAP1 POP JUMP JUMPDEST DUP3 DUP2 DUP4 CALLDATACOPY PUSH1 0x0 DUP4 DUP4 ADD MSTORE POP POP POP JUMP JUMPDEST PUSH1 0x0 JUMPDEST DUP4 DUP2 LT ISZERO PUSH2 0x1126 JUMPI DUP1 DUP3 ADD MLOAD DUP2 DUP5 ADD MSTORE PUSH1 0x20 DUP2 ADD SWAP1 POP PUSH2 0x110B JUMP JUMPDEST DUP4 DUP2 GT ISZERO PUSH2 0x1135 JUMPI PUSH1 0x0 DUP5 DUP5 ADD MSTORE JUMPDEST POP POP POP POP JUMP JUMPDEST PUSH1 0x0 PUSH1 0x1F NOT PUSH1 0x1F DUP4 ADD AND SWAP1 POP SWAP2 SWAP1 POP JUMP JUMPDEST PUSH2 0x1155 DUP2 PUSH2 0x10E3 JUMP JUMPDEST DUP2 EQ PUSH2 0x1160 JUMPI PUSH1 0x0 DUP1 REVERT JUMPDEST POP JUMP JUMPDEST PUSH2 0x116C DUP2 PUSH2 0x10EF JUMP JUMPDEST DUP2 EQ PUSH2 0x1177 JUMPI PUSH1 0x0 DUP1 REVERT JUMPDEST POP JUMP INVALID LOG2 PUSH5 0x6970667358 0x22 SLT KECCAK256 0xBD 0xE4 0xCB PUSH7 0xF842CA38EBA3BB 0xD2 PUSH29 0x3A3E82458FD14B1AFABAA56B3BAF4C5C87094D64736F6C634300060000 CALLER "
				},
				"gasEstimates": {
					"creation": {
						"codeDepositCost": "905600",
						"executionCost": "infinite",
						"totalCost": "infinite"
					},
					"external": {
						"addMember(string,bool)": "infinite",
						"getCountOfVoted(bool)": "infinite",
						"getMemberStructure(uint256)": "infinite",
						"getMemberValue()": "infinite",
						"getVotedMember(bool)": "infinite",
						"memberCount()": "1130",
						"members(uint256)": "infinite",
						"setVote(uint256,bool)": "21602",
						"votedMembers(uint256)": "infinite"
					}
				},
				"methodIdentifiers": {
					"addMember(string,bool)": "92c68389",
					"getCountOfVoted(bool)": "ab7a2015",
					"getMemberStructure(uint256)": "f97698f8",
					"getMemberValue()": "6f416d59",
					"getVotedMember(bool)": "7f44982a",
					"memberCount()": "11aee380",
					"members(uint256)": "5daf08ca",
					"setVote(uint256,bool)": "d3516b7e",
					"votedMembers(uint256)": "18129c54"
				}
			},
			"storageLayout": {
				"storage": [
					{
						"astId": 13,
						"contract": "contracts/fun_stuff.sol:VoteSaving",
						"label": "members",
						"offset": 0,
						"slot": "0",
						"type": "t_mapping(t_uint256,t_struct(Member)9_storage)"
					},
					{
						"astId": 19,
						"contract": "contracts/fun_stuff.sol:VoteSaving",
						"label": "memberCount",
						"offset": 0,
						"slot": "1",
						"type": "t_uint256"
					},
					{
						"astId": 143,
						"contract": "contracts/fun_stuff.sol:VoteSaving",
						"label": "votedMembers",
						"offset": 0,
						"slot": "2",
						"type": "t_array(t_uint256)dyn_storage"
					}
				],
				"types": {
					"t_array(t_uint256)dyn_storage": {
						"base": "t_uint256",
						"encoding": "dynamic_array",
						"label": "uint256[]",
						"numberOfBytes": "32"
					},
					"t_bool": {
						"encoding": "inplace",
						"label": "bool",
						"numberOfBytes": "1"
					},
					"t_mapping(t_uint256,t_struct(Member)9_storage)": {
						"encoding": "mapping",
						"key": "t_uint256",
						"label": "mapping(uint256 => struct VoteSaving.Member)",
						"numberOfBytes": "32",
						"value": "t_struct(Member)9_storage"
					},
					"t_string_storage": {
						"encoding": "bytes",
						"label": "string",
						"numberOfBytes": "32"
					},
					"t_struct(Member)9_storage": {
						"encoding": "inplace",
						"label": "struct VoteSaving.Member",
						"members": [
							{
								"astId": 4,
								"contract": "contracts/fun_stuff.sol:VoteSaving",
								"label": "id",
								"offset": 0,
								"slot": "0",
								"type": "t_uint256"
							},
							{
								"astId": 6,
								"contract": "contracts/fun_stuff.sol:VoteSaving",
								"label": "name",
								"offset": 0,
								"slot": "1",
								"type": "t_string_storage"
							},
							{
								"astId": 8,
								"contract": "contracts/fun_stuff.sol:VoteSaving",
								"label": "isVoted",
								"offset": 0,
								"slot": "2",
								"type": "t_bool"
							}
						],
						"numberOfBytes": "96"
					},
					"t_uint256": {
						"encoding": "inplace",
						"label": "uint256",
						"numberOfBytes": "32"
					}
				}
			},
			"userdoc": {
				"methods": {}
			}
		}
	}
}