{
	"contracts/fun_stuff.sol": {
		"VoteSaving": {
			"abi": [
				{
					"inputs": [],
					"stateMutability": "nonpayable",
					"type": "constructor"
				},
				{
					"anonymous": false,
					"inputs": [
						{
							"indexed": true,
							"internalType": "uint256",
							"name": "_memberId",
							"type": "uint256"
						}
					],
					"name": "savingEvent",
					"type": "event"
				},
				{
					"inputs": [
						{
							"internalType": "string",
							"name": "_name",
							"type": "string"
						},
						{
							"internalType": "bool",
							"name": "_isVote",
							"type": "bool"
						}
					],
					"name": "addMember",
					"outputs": [],
					"stateMutability": "nonpayable",
					"type": "function"
				},
				{
					"inputs": [
						{
							"internalType": "uint256",
							"name": "_memberId",
							"type": "uint256"
						}
					],
					"name": "getMember",
					"outputs": [
						{
							"components": [
								{
									"internalType": "uint256",
									"name": "id",
									"type": "uint256"
								},
								{
									"internalType": "string",
									"name": "name",
									"type": "string"
								},
								{
									"internalType": "bool",
									"name": "isVoted",
									"type": "bool"
								}
							],
							"internalType": "struct VoteSaving.Member",
							"name": "",
							"type": "tuple"
						}
					],
					"stateMutability": "view",
					"type": "function"
				},
				{
					"inputs": [],
					"name": "memberCount",
					"outputs": [
						{
							"internalType": "uint256",
							"name": "",
							"type": "uint256"
						}
					],
					"stateMutability": "view",
					"type": "function"
				},
				{
					"inputs": [
						{
							"internalType": "uint256",
							"name": "",
							"type": "uint256"
						}
					],
					"name": "members",
					"outputs": [
						{
							"internalType": "uint256",
							"name": "id",
							"type": "uint256"
						},
						{
							"internalType": "string",
							"name": "name",
							"type": "string"
						},
						{
							"internalType": "bool",
							"name": "isVoted",
							"type": "bool"
						}
					],
					"stateMutability": "view",
					"type": "function"
				}
			],
			"devdoc": {
				"methods": {}
			},
			"evm": {
				"assembly": "    /* \"contracts/fun_stuff.sol\":95:762  contract VoteSaving {\r... */\n  mstore(0x40, 0x80)\n    /* \"contracts/fun_stuff.sol\":342:468  constructor() public {\r... */\n  callvalue\n    /* \"--CODEGEN--\":8:17   */\n  dup1\n    /* \"--CODEGEN--\":5:7   */\n  iszero\n  tag_1\n  jumpi\n    /* \"--CODEGEN--\":30:31   */\n  0x00\n    /* \"--CODEGEN--\":27:28   */\n  dup1\n    /* \"--CODEGEN--\":20:32   */\n  revert\n    /* \"--CODEGEN--\":5:7   */\ntag_1:\n    /* \"contracts/fun_stuff.sol\":342:468  constructor() public {\r... */\n  pop\n    /* \"contracts/fun_stuff.sol\":388:389  0 */\n  0x00\n    /* \"contracts/fun_stuff.sol\":374:385  memberCount */\n  0x01\n    /* \"contracts/fun_stuff.sol\":374:389  memberCount = 0 */\n  dup2\n  swap1\n  sstore\n  pop\n    /* \"contracts/fun_stuff.sol\":400:423  addMember(\"Vlad\", true) */\n  tag_4\n  mload(0x40)\n  dup1\n  0x40\n  add\n  0x40\n  mstore\n  dup1\n  0x04\n  dup2\n  mstore\n  0x20\n  add\n  0x566c616400000000000000000000000000000000000000000000000000000000\n  dup2\n  mstore\n  pop\n    /* \"contracts/fun_stuff.sol\":418:422  true */\n  0x01\n    /* \"contracts/fun_stuff.sol\":400:409  addMember */\n  shl(0x20, tag_5)\n    /* \"contracts/fun_stuff.sol\":400:423  addMember(\"Vlad\", true) */\n  0x20\n  shr\n  jump\t// in\ntag_4:\n    /* \"contracts/fun_stuff.sol\":434:460  addMember(\"Nastya\", false) */\n  tag_6\n  mload(0x40)\n  dup1\n  0x40\n  add\n  0x40\n  mstore\n  dup1\n  0x06\n  dup2\n  mstore\n  0x20\n  add\n  0x4e61737479610000000000000000000000000000000000000000000000000000\n  dup2\n  mstore\n  pop\n    /* \"contracts/fun_stuff.sol\":454:459  false */\n  0x00\n    /* \"contracts/fun_stuff.sol\":434:443  addMember */\n  shl(0x20, tag_5)\n    /* \"contracts/fun_stuff.sol\":434:460  addMember(\"Nastya\", false) */\n  0x20\n  shr\n  jump\t// in\ntag_6:\n    /* \"contracts/fun_stuff.sol\":95:762  contract VoteSaving {\r... */\n  jump(tag_7)\n    /* \"contracts/fun_stuff.sol\":476:638  function addMember(string memory _name, bool _isVote) public {\r... */\ntag_5:\n    /* \"contracts/fun_stuff.sol\":571:606  Member(memberCount, _name, _isVote) */\n  mload(0x40)\n  dup1\n  0x60\n  add\n  0x40\n  mstore\n  dup1\n    /* \"contracts/fun_stuff.sol\":578:589  memberCount */\n  sload(0x01)\n    /* \"contracts/fun_stuff.sol\":571:606  Member(memberCount, _name, _isVote) */\n  dup2\n  mstore\n  0x20\n  add\n    /* \"contracts/fun_stuff.sol\":591:596  _name */\n  dup4\n    /* \"contracts/fun_stuff.sol\":571:606  Member(memberCount, _name, _isVote) */\n  dup2\n  mstore\n  0x20\n  add\n    /* \"contracts/fun_stuff.sol\":598:605  _isVote */\n  dup3\n    /* \"contracts/fun_stuff.sol\":571:606  Member(memberCount, _name, _isVote) */\n  iszero\n  iszero\n  dup2\n  mstore\n  pop\n    /* \"contracts/fun_stuff.sol\":548:555  members */\n  0x00\n    /* \"contracts/fun_stuff.sol\":548:568  members[memberCount] */\n  dup1\n    /* \"contracts/fun_stuff.sol\":556:567  memberCount */\n  sload(0x01)\n    /* \"contracts/fun_stuff.sol\":548:568  members[memberCount] */\n  dup2\n  mstore\n  0x20\n  add\n  swap1\n  dup2\n  mstore\n  0x20\n  add\n  0x00\n  keccak256\n    /* \"contracts/fun_stuff.sol\":548:606  members[memberCount] = Member(memberCount, _name, _isVote) */\n  0x00\n  dup3\n  add\n  mload\n  dup2\n  0x00\n  add\n  sstore\n  0x20\n  dup3\n  add\n  mload\n  dup2\n  0x01\n  add\n  swap1\n  dup1\n  mload\n  swap1\n  0x20\n  add\n  swap1\n  tag_9\n  swap3\n  swap2\n  swap1\n  tag_10\n  jump\t// in\ntag_9:\n  pop\n  0x40\n  dup3\n  add\n  mload\n  dup2\n  0x02\n  add\n  exp(0x0100, 0x00)\n  dup2\n  sload\n  dup2\n  0xff\n  mul\n  not\n  and\n  swap1\n  dup4\n  iszero\n  iszero\n  mul\n  or\n  swap1\n  sstore\n  pop\n  swap1\n  pop\n  pop\n    /* \"contracts/fun_stuff.sol\":617:628  memberCount */\n  0x01\n  0x00\n    /* \"contracts/fun_stuff.sol\":617:630  memberCount++ */\n  dup2\n  sload\n  dup1\n  swap3\n  swap2\n  swap1\n  0x01\n  add\n  swap2\n  swap1\n  pop\n  sstore\n  pop\n    /* \"contracts/fun_stuff.sol\":476:638  function addMember(string memory _name, bool _isVote) public {\r... */\n  pop\n  pop\n  jump\t// out\n    /* \"contracts/fun_stuff.sol\":95:762  contract VoteSaving {\r... */\ntag_10:\n  dup3\n  dup1\n  sload\n  0x01\n  dup2\n  0x01\n  and\n  iszero\n  0x0100\n  mul\n  sub\n  and\n  0x02\n  swap1\n  div\n  swap1\n  0x00\n  mstore\n  keccak256(0x00, 0x20)\n  swap1\n  0x1f\n  add\n  0x20\n  swap1\n  div\n  dup2\n  add\n  swap3\n  dup3\n  0x1f\n  lt\n  tag_12\n  jumpi\n  dup1\n  mload\n  not(0xff)\n  and\n  dup4\n  dup1\n  add\n  or\n  dup6\n  sstore\n  jump(tag_11)\ntag_12:\n  dup3\n  dup1\n  add\n  0x01\n  add\n  dup6\n  sstore\n  dup3\n  iszero\n  tag_11\n  jumpi\n  swap2\n  dup3\n  add\ntag_13:\n  dup3\n  dup2\n  gt\n  iszero\n  tag_14\n  jumpi\n  dup3\n  mload\n  dup3\n  sstore\n  swap2\n  0x20\n  add\n  swap2\n  swap1\n  0x01\n  add\n  swap1\n  jump(tag_13)\ntag_14:\ntag_11:\n  pop\n  swap1\n  pop\n  tag_15\n  swap2\n  swap1\n  tag_16\n  jump\t// in\ntag_15:\n  pop\n  swap1\n  jump\t// out\ntag_16:\n  tag_17\n  swap2\n  swap1\ntag_18:\n  dup1\n  dup3\n  gt\n  iszero\n  tag_19\n  jumpi\n  0x00\n  dup2\n  0x00\n  swap1\n  sstore\n  pop\n  0x01\n  add\n  jump(tag_18)\ntag_19:\n  pop\n  swap1\n  jump\ntag_17:\n  swap1\n  jump\t// out\ntag_7:\n  dataSize(sub_0)\n  dup1\n  dataOffset(sub_0)\n  0x00\n  codecopy\n  0x00\n  return\nstop\n\nsub_0: assembly {\n        /* \"contracts/fun_stuff.sol\":95:762  contract VoteSaving {\r... */\n      mstore(0x40, 0x80)\n      callvalue\n        /* \"--CODEGEN--\":8:17   */\n      dup1\n        /* \"--CODEGEN--\":5:7   */\n      iszero\n      tag_1\n      jumpi\n        /* \"--CODEGEN--\":30:31   */\n      0x00\n        /* \"--CODEGEN--\":27:28   */\n      dup1\n        /* \"--CODEGEN--\":20:32   */\n      revert\n        /* \"--CODEGEN--\":5:7   */\n    tag_1:\n        /* \"contracts/fun_stuff.sol\":95:762  contract VoteSaving {\r... */\n      pop\n      jumpi(tag_2, lt(calldatasize, 0x04))\n      shr(0xe0, calldataload(0x00))\n      dup1\n      0x11aee380\n      eq\n      tag_3\n      jumpi\n      dup1\n      0x5daf08ca\n      eq\n      tag_4\n      jumpi\n      dup1\n      0x92c68389\n      eq\n      tag_5\n      jumpi\n      dup1\n      0xab3545e5\n      eq\n      tag_6\n      jumpi\n    tag_2:\n      0x00\n      dup1\n      revert\n        /* \"contracts/fun_stuff.sol\":308:331  uint public memberCount */\n    tag_3:\n      tag_7\n      tag_8\n      jump\t// in\n    tag_7:\n      mload(0x40)\n      tag_9\n      swap2\n      swap1\n      jump(tag_10)\n    tag_9:\n      mload(0x40)\n      dup1\n      swap2\n      sub\n      swap1\n      return\n        /* \"contracts/fun_stuff.sol\":214:253  mapping (uint => Member) public members */\n    tag_4:\n      tag_11\n      0x04\n      dup1\n      calldatasize\n      sub\n      tag_12\n      swap2\n      swap1\n      dup2\n      add\n      swap1\n      jump(tag_13)\n    tag_12:\n      tag_14\n      jump\t// in\n    tag_11:\n      mload(0x40)\n      tag_15\n      swap4\n      swap3\n      swap2\n      swap1\n      jump(tag_16)\n    tag_15:\n      mload(0x40)\n      dup1\n      swap2\n      sub\n      swap1\n      return\n        /* \"contracts/fun_stuff.sol\":476:638  function addMember(string memory _name, bool _isVote) public {\r... */\n    tag_5:\n      tag_17\n      0x04\n      dup1\n      calldatasize\n      sub\n      tag_18\n      swap2\n      swap1\n      dup2\n      add\n      swap1\n      jump(tag_19)\n    tag_18:\n      tag_20\n      jump\t// in\n    tag_17:\n      stop\n        /* \"contracts/fun_stuff.sol\":646:759  function getMember(uint _memberId) public view returns(Member memory){\r... */\n    tag_6:\n      tag_21\n      0x04\n      dup1\n      calldatasize\n      sub\n      tag_22\n      swap2\n      swap1\n      dup2\n      add\n      swap1\n      jump(tag_13)\n    tag_22:\n      tag_23\n      jump\t// in\n    tag_21:\n      mload(0x40)\n      tag_24\n      swap2\n      swap1\n      jump(tag_25)\n    tag_24:\n      mload(0x40)\n      dup1\n      swap2\n      sub\n      swap1\n      return\n        /* \"contracts/fun_stuff.sol\":308:331  uint public memberCount */\n    tag_8:\n      sload(0x01)\n      dup2\n      jump\t// out\n        /* \"contracts/fun_stuff.sol\":214:253  mapping (uint => Member) public members */\n    tag_14:\n      mstore(0x20, 0x00)\n      dup1\n      0x00\n      mstore\n      keccak256(0x00, 0x40)\n      0x00\n      swap2\n      pop\n      swap1\n      pop\n      dup1\n      0x00\n      add\n      sload\n      swap1\n      dup1\n      0x01\n      add\n      dup1\n      sload\n      0x01\n      dup2\n      0x01\n      and\n      iszero\n      0x0100\n      mul\n      sub\n      and\n      0x02\n      swap1\n      div\n      dup1\n      0x1f\n      add\n      0x20\n      dup1\n      swap2\n      div\n      mul\n      0x20\n      add\n      mload(0x40)\n      swap1\n      dup2\n      add\n      0x40\n      mstore\n      dup1\n      swap3\n      swap2\n      swap1\n      dup2\n      dup2\n      mstore\n      0x20\n      add\n      dup3\n      dup1\n      sload\n      0x01\n      dup2\n      0x01\n      and\n      iszero\n      0x0100\n      mul\n      sub\n      and\n      0x02\n      swap1\n      div\n      dup1\n      iszero\n      tag_26\n      jumpi\n      dup1\n      0x1f\n      lt\n      tag_27\n      jumpi\n      0x0100\n      dup1\n      dup4\n      sload\n      div\n      mul\n      dup4\n      mstore\n      swap2\n      0x20\n      add\n      swap2\n      jump(tag_26)\n    tag_27:\n      dup3\n      add\n      swap2\n      swap1\n      0x00\n      mstore\n      keccak256(0x00, 0x20)\n      swap1\n    tag_28:\n      dup2\n      sload\n      dup2\n      mstore\n      swap1\n      0x01\n      add\n      swap1\n      0x20\n      add\n      dup1\n      dup4\n      gt\n      tag_28\n      jumpi\n      dup3\n      swap1\n      sub\n      0x1f\n      and\n      dup3\n      add\n      swap2\n    tag_26:\n      pop\n      pop\n      pop\n      pop\n      pop\n      swap1\n      dup1\n      0x02\n      add\n      0x00\n      swap1\n      sload\n      swap1\n      0x0100\n      exp\n      swap1\n      div\n      0xff\n      and\n      swap1\n      pop\n      dup4\n      jump\t// out\n        /* \"contracts/fun_stuff.sol\":476:638  function addMember(string memory _name, bool _isVote) public {\r... */\n    tag_20:\n        /* \"contracts/fun_stuff.sol\":571:606  Member(memberCount, _name, _isVote) */\n      mload(0x40)\n      dup1\n      0x60\n      add\n      0x40\n      mstore\n      dup1\n        /* \"contracts/fun_stuff.sol\":578:589  memberCount */\n      sload(0x01)\n        /* \"contracts/fun_stuff.sol\":571:606  Member(memberCount, _name, _isVote) */\n      dup2\n      mstore\n      0x20\n      add\n        /* \"contracts/fun_stuff.sol\":591:596  _name */\n      dup4\n        /* \"contracts/fun_stuff.sol\":571:606  Member(memberCount, _name, _isVote) */\n      dup2\n      mstore\n      0x20\n      add\n        /* \"contracts/fun_stuff.sol\":598:605  _isVote */\n      dup3\n        /* \"contracts/fun_stuff.sol\":571:606  Member(memberCount, _name, _isVote) */\n      iszero\n      iszero\n      dup2\n      mstore\n      pop\n        /* \"contracts/fun_stuff.sol\":548:555  members */\n      0x00\n        /* \"contracts/fun_stuff.sol\":548:568  members[memberCount] */\n      dup1\n        /* \"contracts/fun_stuff.sol\":556:567  memberCount */\n      sload(0x01)\n        /* \"contracts/fun_stuff.sol\":548:568  members[memberCount] */\n      dup2\n      mstore\n      0x20\n      add\n      swap1\n      dup2\n      mstore\n      0x20\n      add\n      0x00\n      keccak256\n        /* \"contracts/fun_stuff.sol\":548:606  members[memberCount] = Member(memberCount, _name, _isVote) */\n      0x00\n      dup3\n      add\n      mload\n      dup2\n      0x00\n      add\n      sstore\n      0x20\n      dup3\n      add\n      mload\n      dup2\n      0x01\n      add\n      swap1\n      dup1\n      mload\n      swap1\n      0x20\n      add\n      swap1\n      tag_30\n      swap3\n      swap2\n      swap1\n      tag_31\n      jump\t// in\n    tag_30:\n      pop\n      0x40\n      dup3\n      add\n      mload\n      dup2\n      0x02\n      add\n      exp(0x0100, 0x00)\n      dup2\n      sload\n      dup2\n      0xff\n      mul\n      not\n      and\n      swap1\n      dup4\n      iszero\n      iszero\n      mul\n      or\n      swap1\n      sstore\n      pop\n      swap1\n      pop\n      pop\n        /* \"contracts/fun_stuff.sol\":617:628  memberCount */\n      0x01\n      0x00\n        /* \"contracts/fun_stuff.sol\":617:630  memberCount++ */\n      dup2\n      sload\n      dup1\n      swap3\n      swap2\n      swap1\n      0x01\n      add\n      swap2\n      swap1\n      pop\n      sstore\n      pop\n        /* \"contracts/fun_stuff.sol\":476:638  function addMember(string memory _name, bool _isVote) public {\r... */\n      pop\n      pop\n      jump\t// out\n        /* \"contracts/fun_stuff.sol\":646:759  function getMember(uint _memberId) public view returns(Member memory){\r... */\n    tag_23:\n        /* \"contracts/fun_stuff.sol\":701:714  Member memory */\n      tag_32\n      tag_33\n      jump\t// in\n    tag_32:\n        /* \"contracts/fun_stuff.sol\":733:740  members */\n      0x00\n        /* \"contracts/fun_stuff.sol\":733:751  members[_memberId] */\n      dup1\n        /* \"contracts/fun_stuff.sol\":741:750  _memberId */\n      dup4\n        /* \"contracts/fun_stuff.sol\":733:751  members[_memberId] */\n      dup2\n      mstore\n      0x20\n      add\n      swap1\n      dup2\n      mstore\n      0x20\n      add\n      0x00\n      keccak256\n        /* \"contracts/fun_stuff.sol\":726:751  return members[_memberId] */\n      mload(0x40)\n      dup1\n      0x60\n      add\n      0x40\n      mstore\n      swap1\n      dup2\n      0x00\n      dup3\n      add\n      sload\n      dup2\n      mstore\n      0x20\n      add\n      0x01\n      dup3\n      add\n      dup1\n      sload\n      0x01\n      dup2\n      0x01\n      and\n      iszero\n      0x0100\n      mul\n      sub\n      and\n      0x02\n      swap1\n      div\n      dup1\n      0x1f\n      add\n      0x20\n      dup1\n      swap2\n      div\n      mul\n      0x20\n      add\n      mload(0x40)\n      swap1\n      dup2\n      add\n      0x40\n      mstore\n      dup1\n      swap3\n      swap2\n      swap1\n      dup2\n      dup2\n      mstore\n      0x20\n      add\n      dup3\n      dup1\n      sload\n      0x01\n      dup2\n      0x01\n      and\n      iszero\n      0x0100\n      mul\n      sub\n      and\n      0x02\n      swap1\n      div\n      dup1\n      iszero\n      tag_35\n      jumpi\n      dup1\n      0x1f\n      lt\n      tag_36\n      jumpi\n      0x0100\n      dup1\n      dup4\n      sload\n      div\n      mul\n      dup4\n      mstore\n      swap2\n      0x20\n      add\n      swap2\n      jump(tag_35)\n    tag_36:\n      dup3\n      add\n      swap2\n      swap1\n      0x00\n      mstore\n      keccak256(0x00, 0x20)\n      swap1\n    tag_37:\n      dup2\n      sload\n      dup2\n      mstore\n      swap1\n      0x01\n      add\n      swap1\n      0x20\n      add\n      dup1\n      dup4\n      gt\n      tag_37\n      jumpi\n      dup3\n      swap1\n      sub\n      0x1f\n      and\n      dup3\n      add\n      swap2\n    tag_35:\n      pop\n      pop\n      pop\n      pop\n      pop\n      dup2\n      mstore\n      0x20\n      add\n      0x02\n      dup3\n      add\n      0x00\n      swap1\n      sload\n      swap1\n      0x0100\n      exp\n      swap1\n      div\n      0xff\n      and\n      iszero\n      iszero\n      iszero\n      iszero\n      dup2\n      mstore\n      pop\n      pop\n      swap1\n      pop\n        /* \"contracts/fun_stuff.sol\":646:759  function getMember(uint _memberId) public view returns(Member memory){\r... */\n      swap2\n      swap1\n      pop\n      jump\t// out\n        /* \"contracts/fun_stuff.sol\":95:762  contract VoteSaving {\r... */\n    tag_31:\n      dup3\n      dup1\n      sload\n      0x01\n      dup2\n      0x01\n      and\n      iszero\n      0x0100\n      mul\n      sub\n      and\n      0x02\n      swap1\n      div\n      swap1\n      0x00\n      mstore\n      keccak256(0x00, 0x20)\n      swap1\n      0x1f\n      add\n      0x20\n      swap1\n      div\n      dup2\n      add\n      swap3\n      dup3\n      0x1f\n      lt\n      tag_39\n      jumpi\n      dup1\n      mload\n      not(0xff)\n      and\n      dup4\n      dup1\n      add\n      or\n      dup6\n      sstore\n      jump(tag_38)\n    tag_39:\n      dup3\n      dup1\n      add\n      0x01\n      add\n      dup6\n      sstore\n      dup3\n      iszero\n      tag_38\n      jumpi\n      swap2\n      dup3\n      add\n    tag_40:\n      dup3\n      dup2\n      gt\n      iszero\n      tag_41\n      jumpi\n      dup3\n      mload\n      dup3\n      sstore\n      swap2\n      0x20\n      add\n      swap2\n      swap1\n      0x01\n      add\n      swap1\n      jump(tag_40)\n    tag_41:\n    tag_38:\n      pop\n      swap1\n      pop\n      tag_42\n      swap2\n      swap1\n      tag_43\n      jump\t// in\n    tag_42:\n      pop\n      swap1\n      jump\t// out\n    tag_33:\n      mload(0x40)\n      dup1\n      0x60\n      add\n      0x40\n      mstore\n      dup1\n      0x00\n      dup2\n      mstore\n      0x20\n      add\n      0x60\n      dup2\n      mstore\n      0x20\n      add\n      iszero(iszero(0x00))\n      dup2\n      mstore\n      pop\n      swap1\n      jump\t// out\n    tag_43:\n      tag_44\n      swap2\n      swap1\n    tag_45:\n      dup1\n      dup3\n      gt\n      iszero\n      tag_46\n      jumpi\n      0x00\n      dup2\n      0x00\n      swap1\n      sstore\n      pop\n      0x01\n      add\n      jump(tag_45)\n    tag_46:\n      pop\n      swap1\n      jump\n    tag_44:\n      swap1\n      jump\t// out\n        /* \"--CODEGEN--\":5:129   */\n    tag_48:\n      0x00\n        /* \"--CODEGEN--\":82:88   */\n      dup2\n        /* \"--CODEGEN--\":69:89   */\n      calldataload\n        /* \"--CODEGEN--\":60:89   */\n      swap1\n      pop\n        /* \"--CODEGEN--\":94:124   */\n      tag_50\n        /* \"--CODEGEN--\":118:123   */\n      dup2\n        /* \"--CODEGEN--\":94:124   */\n      jump(tag_51)\n    tag_50:\n        /* \"--CODEGEN--\":54:129   */\n      swap3\n      swap2\n      pop\n      pop\n      jump\n        /* \"--CODEGEN--\":137:579   */\n    tag_52:\n      0x00\n        /* \"--CODEGEN--\":239:242   */\n      dup3\n        /* \"--CODEGEN--\":232:236   */\n      0x1f\n        /* \"--CODEGEN--\":224:230   */\n      dup4\n        /* \"--CODEGEN--\":220:237   */\n      add\n        /* \"--CODEGEN--\":216:243   */\n      slt\n        /* \"--CODEGEN--\":206:208   */\n      tag_54\n      jumpi\n        /* \"--CODEGEN--\":257:258   */\n      0x00\n        /* \"--CODEGEN--\":254:255   */\n      dup1\n        /* \"--CODEGEN--\":247:259   */\n      revert\n        /* \"--CODEGEN--\":206:208   */\n    tag_54:\n        /* \"--CODEGEN--\":294:300   */\n      dup2\n        /* \"--CODEGEN--\":281:301   */\n      calldataload\n        /* \"--CODEGEN--\":316:381   */\n      tag_55\n        /* \"--CODEGEN--\":331:380   */\n      tag_56\n        /* \"--CODEGEN--\":373:379   */\n      dup3\n        /* \"--CODEGEN--\":331:380   */\n      jump(tag_57)\n    tag_56:\n        /* \"--CODEGEN--\":316:381   */\n      jump(tag_58)\n    tag_55:\n        /* \"--CODEGEN--\":307:381   */\n      swap2\n      pop\n        /* \"--CODEGEN--\":401:407   */\n      dup1\n        /* \"--CODEGEN--\":394:399   */\n      dup3\n        /* \"--CODEGEN--\":387:408   */\n      mstore\n        /* \"--CODEGEN--\":437:441   */\n      0x20\n        /* \"--CODEGEN--\":429:435   */\n      dup4\n        /* \"--CODEGEN--\":425:442   */\n      add\n        /* \"--CODEGEN--\":470:474   */\n      0x20\n        /* \"--CODEGEN--\":463:468   */\n      dup4\n        /* \"--CODEGEN--\":459:475   */\n      add\n        /* \"--CODEGEN--\":505:508   */\n      dup6\n        /* \"--CODEGEN--\":496:502   */\n      dup4\n        /* \"--CODEGEN--\":491:494   */\n      dup4\n        /* \"--CODEGEN--\":487:503   */\n      add\n        /* \"--CODEGEN--\":484:509   */\n      gt\n        /* \"--CODEGEN--\":481:483   */\n      iszero\n      tag_59\n      jumpi\n        /* \"--CODEGEN--\":522:523   */\n      0x00\n        /* \"--CODEGEN--\":519:520   */\n      dup1\n        /* \"--CODEGEN--\":512:524   */\n      revert\n        /* \"--CODEGEN--\":481:483   */\n    tag_59:\n        /* \"--CODEGEN--\":532:573   */\n      tag_60\n        /* \"--CODEGEN--\":566:572   */\n      dup4\n        /* \"--CODEGEN--\":561:564   */\n      dup3\n        /* \"--CODEGEN--\":556:559   */\n      dup5\n        /* \"--CODEGEN--\":532:573   */\n      jump(tag_61)\n    tag_60:\n        /* \"--CODEGEN--\":199:579   */\n      pop\n      pop\n      pop\n      swap3\n      swap2\n      pop\n      pop\n      jump\n        /* \"--CODEGEN--\":587:717   */\n    tag_62:\n      0x00\n        /* \"--CODEGEN--\":667:673   */\n      dup2\n        /* \"--CODEGEN--\":654:674   */\n      calldataload\n        /* \"--CODEGEN--\":645:674   */\n      swap1\n      pop\n        /* \"--CODEGEN--\":679:712   */\n      tag_64\n        /* \"--CODEGEN--\":706:711   */\n      dup2\n        /* \"--CODEGEN--\":679:712   */\n      jump(tag_65)\n    tag_64:\n        /* \"--CODEGEN--\":639:717   */\n      swap3\n      swap2\n      pop\n      pop\n      jump\n        /* \"--CODEGEN--\":724:1190   */\n    tag_19:\n      0x00\n      dup1\n        /* \"--CODEGEN--\":852:854   */\n      0x40\n        /* \"--CODEGEN--\":840:849   */\n      dup4\n        /* \"--CODEGEN--\":831:838   */\n      dup6\n        /* \"--CODEGEN--\":827:850   */\n      sub\n        /* \"--CODEGEN--\":823:855   */\n      slt\n        /* \"--CODEGEN--\":820:822   */\n      iszero\n      tag_67\n      jumpi\n        /* \"--CODEGEN--\":868:869   */\n      0x00\n        /* \"--CODEGEN--\":865:866   */\n      dup1\n        /* \"--CODEGEN--\":858:870   */\n      revert\n        /* \"--CODEGEN--\":820:822   */\n    tag_67:\n        /* \"--CODEGEN--\":931:932   */\n      0x00\n        /* \"--CODEGEN--\":920:929   */\n      dup4\n        /* \"--CODEGEN--\":916:933   */\n      add\n        /* \"--CODEGEN--\":903:934   */\n      calldataload\n        /* \"--CODEGEN--\":954:972   */\n      0xffffffffffffffff\n        /* \"--CODEGEN--\":946:952   */\n      dup2\n        /* \"--CODEGEN--\":943:973   */\n      gt\n        /* \"--CODEGEN--\":940:942   */\n      iszero\n      tag_68\n      jumpi\n        /* \"--CODEGEN--\":986:987   */\n      0x00\n        /* \"--CODEGEN--\":983:984   */\n      dup1\n        /* \"--CODEGEN--\":976:988   */\n      revert\n        /* \"--CODEGEN--\":940:942   */\n    tag_68:\n        /* \"--CODEGEN--\":1006:1069   */\n      tag_69\n        /* \"--CODEGEN--\":1061:1068   */\n      dup6\n        /* \"--CODEGEN--\":1052:1058   */\n      dup3\n        /* \"--CODEGEN--\":1041:1050   */\n      dup7\n        /* \"--CODEGEN--\":1037:1059   */\n      add\n        /* \"--CODEGEN--\":1006:1069   */\n      jump(tag_52)\n    tag_69:\n        /* \"--CODEGEN--\":996:1069   */\n      swap3\n      pop\n        /* \"--CODEGEN--\":882:1075   */\n      pop\n        /* \"--CODEGEN--\":1106:1108   */\n      0x20\n        /* \"--CODEGEN--\":1124:1174   */\n      tag_70\n        /* \"--CODEGEN--\":1166:1173   */\n      dup6\n        /* \"--CODEGEN--\":1157:1163   */\n      dup3\n        /* \"--CODEGEN--\":1146:1155   */\n      dup7\n        /* \"--CODEGEN--\":1142:1164   */\n      add\n        /* \"--CODEGEN--\":1124:1174   */\n      jump(tag_48)\n    tag_70:\n        /* \"--CODEGEN--\":1114:1174   */\n      swap2\n      pop\n        /* \"--CODEGEN--\":1085:1180   */\n      pop\n        /* \"--CODEGEN--\":814:1190   */\n      swap3\n      pop\n      swap3\n      swap1\n      pop\n      jump\n        /* \"--CODEGEN--\":1197:1438   */\n    tag_13:\n      0x00\n        /* \"--CODEGEN--\":1301:1303   */\n      0x20\n        /* \"--CODEGEN--\":1289:1298   */\n      dup3\n        /* \"--CODEGEN--\":1280:1287   */\n      dup5\n        /* \"--CODEGEN--\":1276:1299   */\n      sub\n        /* \"--CODEGEN--\":1272:1304   */\n      slt\n        /* \"--CODEGEN--\":1269:1271   */\n      iszero\n      tag_72\n      jumpi\n        /* \"--CODEGEN--\":1317:1318   */\n      0x00\n        /* \"--CODEGEN--\":1314:1315   */\n      dup1\n        /* \"--CODEGEN--\":1307:1319   */\n      revert\n        /* \"--CODEGEN--\":1269:1271   */\n    tag_72:\n        /* \"--CODEGEN--\":1352:1353   */\n      0x00\n        /* \"--CODEGEN--\":1369:1422   */\n      tag_73\n        /* \"--CODEGEN--\":1414:1421   */\n      dup5\n        /* \"--CODEGEN--\":1405:1411   */\n      dup3\n        /* \"--CODEGEN--\":1394:1403   */\n      dup6\n        /* \"--CODEGEN--\":1390:1412   */\n      add\n        /* \"--CODEGEN--\":1369:1422   */\n      jump(tag_62)\n    tag_73:\n        /* \"--CODEGEN--\":1359:1422   */\n      swap2\n      pop\n        /* \"--CODEGEN--\":1331:1428   */\n      pop\n        /* \"--CODEGEN--\":1263:1438   */\n      swap3\n      swap2\n      pop\n      pop\n      jump\n        /* \"--CODEGEN--\":1445:1539   */\n    tag_74:\n        /* \"--CODEGEN--\":1512:1533   */\n      tag_76\n        /* \"--CODEGEN--\":1527:1532   */\n      dup2\n        /* \"--CODEGEN--\":1512:1533   */\n      jump(tag_77)\n    tag_76:\n        /* \"--CODEGEN--\":1507:1510   */\n      dup3\n        /* \"--CODEGEN--\":1500:1534   */\n      mstore\n        /* \"--CODEGEN--\":1494:1539   */\n      pop\n      pop\n      jump\n        /* \"--CODEGEN--\":1546:1650   */\n    tag_78:\n        /* \"--CODEGEN--\":1623:1644   */\n      tag_80\n        /* \"--CODEGEN--\":1638:1643   */\n      dup2\n        /* \"--CODEGEN--\":1623:1644   */\n      jump(tag_77)\n    tag_80:\n        /* \"--CODEGEN--\":1618:1621   */\n      dup3\n        /* \"--CODEGEN--\":1611:1645   */\n      mstore\n        /* \"--CODEGEN--\":1605:1650   */\n      pop\n      pop\n      jump\n        /* \"--CODEGEN--\":1657:1976   */\n    tag_81:\n      0x00\n        /* \"--CODEGEN--\":1755:1790   */\n      tag_83\n        /* \"--CODEGEN--\":1784:1789   */\n      dup3\n        /* \"--CODEGEN--\":1755:1790   */\n      jump(tag_84)\n    tag_83:\n        /* \"--CODEGEN--\":1802:1863   */\n      tag_85\n        /* \"--CODEGEN--\":1856:1862   */\n      dup2\n        /* \"--CODEGEN--\":1851:1854   */\n      dup6\n        /* \"--CODEGEN--\":1802:1863   */\n      jump(tag_86)\n    tag_85:\n        /* \"--CODEGEN--\":1795:1863   */\n      swap4\n      pop\n        /* \"--CODEGEN--\":1868:1920   */\n      tag_87\n        /* \"--CODEGEN--\":1913:1919   */\n      dup2\n        /* \"--CODEGEN--\":1908:1911   */\n      dup6\n        /* \"--CODEGEN--\":1901:1905   */\n      0x20\n        /* \"--CODEGEN--\":1894:1899   */\n      dup7\n        /* \"--CODEGEN--\":1890:1906   */\n      add\n        /* \"--CODEGEN--\":1868:1920   */\n      jump(tag_88)\n    tag_87:\n        /* \"--CODEGEN--\":1941:1970   */\n      tag_89\n        /* \"--CODEGEN--\":1963:1969   */\n      dup2\n        /* \"--CODEGEN--\":1941:1970   */\n      jump(tag_90)\n    tag_89:\n        /* \"--CODEGEN--\":1936:1939   */\n      dup5\n        /* \"--CODEGEN--\":1932:1971   */\n      add\n        /* \"--CODEGEN--\":1925:1971   */\n      swap2\n      pop\n        /* \"--CODEGEN--\":1735:1976   */\n      pop\n      swap3\n      swap2\n      pop\n      pop\n      jump\n        /* \"--CODEGEN--\":1983:2322   */\n    tag_91:\n      0x00\n        /* \"--CODEGEN--\":2091:2126   */\n      tag_93\n        /* \"--CODEGEN--\":2120:2125   */\n      dup3\n        /* \"--CODEGEN--\":2091:2126   */\n      jump(tag_84)\n    tag_93:\n        /* \"--CODEGEN--\":2138:2209   */\n      tag_94\n        /* \"--CODEGEN--\":2202:2208   */\n      dup2\n        /* \"--CODEGEN--\":2197:2200   */\n      dup6\n        /* \"--CODEGEN--\":2138:2209   */\n      jump(tag_95)\n    tag_94:\n        /* \"--CODEGEN--\":2131:2209   */\n      swap4\n      pop\n        /* \"--CODEGEN--\":2214:2266   */\n      tag_96\n        /* \"--CODEGEN--\":2259:2265   */\n      dup2\n        /* \"--CODEGEN--\":2254:2257   */\n      dup6\n        /* \"--CODEGEN--\":2247:2251   */\n      0x20\n        /* \"--CODEGEN--\":2240:2245   */\n      dup7\n        /* \"--CODEGEN--\":2236:2252   */\n      add\n        /* \"--CODEGEN--\":2214:2266   */\n      jump(tag_88)\n    tag_96:\n        /* \"--CODEGEN--\":2287:2316   */\n      tag_97\n        /* \"--CODEGEN--\":2309:2315   */\n      dup2\n        /* \"--CODEGEN--\":2287:2316   */\n      jump(tag_90)\n    tag_97:\n        /* \"--CODEGEN--\":2282:2285   */\n      dup5\n        /* \"--CODEGEN--\":2278:2317   */\n      add\n        /* \"--CODEGEN--\":2271:2317   */\n      swap2\n      pop\n        /* \"--CODEGEN--\":2071:2322   */\n      pop\n      swap3\n      swap2\n      pop\n      pop\n      jump\n        /* \"--CODEGEN--\":2388:3096   */\n    tag_98:\n      0x00\n        /* \"--CODEGEN--\":2531:2535   */\n      0x60\n        /* \"--CODEGEN--\":2526:2529   */\n      dup4\n        /* \"--CODEGEN--\":2522:2536   */\n      add\n        /* \"--CODEGEN--\":2612:2616   */\n      0x00\n        /* \"--CODEGEN--\":2605:2610   */\n      dup4\n        /* \"--CODEGEN--\":2601:2617   */\n      add\n        /* \"--CODEGEN--\":2595:2618   */\n      mload\n        /* \"--CODEGEN--\":2624:2687   */\n      tag_100\n        /* \"--CODEGEN--\":2681:2685   */\n      0x00\n        /* \"--CODEGEN--\":2676:2679   */\n      dup7\n        /* \"--CODEGEN--\":2672:2686   */\n      add\n        /* \"--CODEGEN--\":2658:2670   */\n      dup3\n        /* \"--CODEGEN--\":2624:2687   */\n      jump(tag_101)\n    tag_100:\n        /* \"--CODEGEN--\":2551:2693   */\n      pop\n        /* \"--CODEGEN--\":2766:2770   */\n      0x20\n        /* \"--CODEGEN--\":2759:2764   */\n      dup4\n        /* \"--CODEGEN--\":2755:2771   */\n      add\n        /* \"--CODEGEN--\":2749:2772   */\n      mload\n        /* \"--CODEGEN--\":2818:2821   */\n      dup5\n        /* \"--CODEGEN--\":2812:2816   */\n      dup3\n        /* \"--CODEGEN--\":2808:2822   */\n      sub\n        /* \"--CODEGEN--\":2801:2805   */\n      0x20\n        /* \"--CODEGEN--\":2796:2799   */\n      dup7\n        /* \"--CODEGEN--\":2792:2806   */\n      add\n        /* \"--CODEGEN--\":2785:2823   */\n      mstore\n        /* \"--CODEGEN--\":2838:2907   */\n      tag_102\n        /* \"--CODEGEN--\":2902:2906   */\n      dup3\n        /* \"--CODEGEN--\":2888:2900   */\n      dup3\n        /* \"--CODEGEN--\":2838:2907   */\n      jump(tag_81)\n    tag_102:\n        /* \"--CODEGEN--\":2830:2907   */\n      swap2\n      pop\n        /* \"--CODEGEN--\":2703:2919   */\n      pop\n        /* \"--CODEGEN--\":2995:2999   */\n      0x40\n        /* \"--CODEGEN--\":2988:2993   */\n      dup4\n        /* \"--CODEGEN--\":2984:3000   */\n      add\n        /* \"--CODEGEN--\":2978:3001   */\n      mload\n        /* \"--CODEGEN--\":3007:3064   */\n      tag_103\n        /* \"--CODEGEN--\":3058:3062   */\n      0x40\n        /* \"--CODEGEN--\":3053:3056   */\n      dup7\n        /* \"--CODEGEN--\":3049:3063   */\n      add\n        /* \"--CODEGEN--\":3035:3047   */\n      dup3\n        /* \"--CODEGEN--\":3007:3064   */\n      jump(tag_74)\n    tag_103:\n        /* \"--CODEGEN--\":2929:3070   */\n      pop\n        /* \"--CODEGEN--\":3087:3091   */\n      dup1\n        /* \"--CODEGEN--\":3080:3091   */\n      swap2\n      pop\n        /* \"--CODEGEN--\":2504:3096   */\n      pop\n      swap3\n      swap2\n      pop\n      pop\n      jump\n        /* \"--CODEGEN--\":3103:3206   */\n    tag_101:\n        /* \"--CODEGEN--\":3176:3200   */\n      tag_105\n        /* \"--CODEGEN--\":3194:3199   */\n      dup2\n        /* \"--CODEGEN--\":3176:3200   */\n      jump(tag_106)\n    tag_105:\n        /* \"--CODEGEN--\":3171:3174   */\n      dup3\n        /* \"--CODEGEN--\":3164:3201   */\n      mstore\n        /* \"--CODEGEN--\":3158:3206   */\n      pop\n      pop\n      jump\n        /* \"--CODEGEN--\":3213:3326   */\n    tag_107:\n        /* \"--CODEGEN--\":3296:3320   */\n      tag_109\n        /* \"--CODEGEN--\":3314:3319   */\n      dup2\n        /* \"--CODEGEN--\":3296:3320   */\n      jump(tag_106)\n    tag_109:\n        /* \"--CODEGEN--\":3291:3294   */\n      dup3\n        /* \"--CODEGEN--\":3284:3321   */\n      mstore\n        /* \"--CODEGEN--\":3278:3326   */\n      pop\n      pop\n      jump\n        /* \"--CODEGEN--\":3333:3678   */\n    tag_25:\n      0x00\n        /* \"--CODEGEN--\":3493:3495   */\n      0x20\n        /* \"--CODEGEN--\":3482:3491   */\n      dup3\n        /* \"--CODEGEN--\":3478:3496   */\n      add\n        /* \"--CODEGEN--\":3470:3496   */\n      swap1\n      pop\n        /* \"--CODEGEN--\":3543:3552   */\n      dup2\n        /* \"--CODEGEN--\":3537:3541   */\n      dup2\n        /* \"--CODEGEN--\":3533:3553   */\n      sub\n        /* \"--CODEGEN--\":3529:3530   */\n      0x00\n        /* \"--CODEGEN--\":3518:3527   */\n      dup4\n        /* \"--CODEGEN--\":3514:3531   */\n      add\n        /* \"--CODEGEN--\":3507:3554   */\n      mstore\n        /* \"--CODEGEN--\":3568:3668   */\n      tag_111\n        /* \"--CODEGEN--\":3663:3667   */\n      dup2\n        /* \"--CODEGEN--\":3654:3660   */\n      dup5\n        /* \"--CODEGEN--\":3568:3668   */\n      jump(tag_98)\n    tag_111:\n        /* \"--CODEGEN--\":3560:3668   */\n      swap1\n      pop\n        /* \"--CODEGEN--\":3464:3678   */\n      swap3\n      swap2\n      pop\n      pop\n      jump\n        /* \"--CODEGEN--\":3685:3898   */\n    tag_10:\n      0x00\n        /* \"--CODEGEN--\":3803:3805   */\n      0x20\n        /* \"--CODEGEN--\":3792:3801   */\n      dup3\n        /* \"--CODEGEN--\":3788:3806   */\n      add\n        /* \"--CODEGEN--\":3780:3806   */\n      swap1\n      pop\n        /* \"--CODEGEN--\":3817:3888   */\n      tag_113\n        /* \"--CODEGEN--\":3885:3886   */\n      0x00\n        /* \"--CODEGEN--\":3874:3883   */\n      dup4\n        /* \"--CODEGEN--\":3870:3887   */\n      add\n        /* \"--CODEGEN--\":3861:3867   */\n      dup5\n        /* \"--CODEGEN--\":3817:3888   */\n      jump(tag_107)\n    tag_113:\n        /* \"--CODEGEN--\":3774:3898   */\n      swap3\n      swap2\n      pop\n      pop\n      jump\n        /* \"--CODEGEN--\":3905:4408   */\n    tag_16:\n      0x00\n        /* \"--CODEGEN--\":4089:4091   */\n      0x60\n        /* \"--CODEGEN--\":4078:4087   */\n      dup3\n        /* \"--CODEGEN--\":4074:4092   */\n      add\n        /* \"--CODEGEN--\":4066:4092   */\n      swap1\n      pop\n        /* \"--CODEGEN--\":4103:4174   */\n      tag_115\n        /* \"--CODEGEN--\":4171:4172   */\n      0x00\n        /* \"--CODEGEN--\":4160:4169   */\n      dup4\n        /* \"--CODEGEN--\":4156:4173   */\n      add\n        /* \"--CODEGEN--\":4147:4153   */\n      dup7\n        /* \"--CODEGEN--\":4103:4174   */\n      jump(tag_107)\n    tag_115:\n        /* \"--CODEGEN--\":4222:4231   */\n      dup2\n        /* \"--CODEGEN--\":4216:4220   */\n      dup2\n        /* \"--CODEGEN--\":4212:4232   */\n      sub\n        /* \"--CODEGEN--\":4207:4209   */\n      0x20\n        /* \"--CODEGEN--\":4196:4205   */\n      dup4\n        /* \"--CODEGEN--\":4192:4210   */\n      add\n        /* \"--CODEGEN--\":4185:4233   */\n      mstore\n        /* \"--CODEGEN--\":4247:4321   */\n      tag_116\n        /* \"--CODEGEN--\":4316:4320   */\n      dup2\n        /* \"--CODEGEN--\":4307:4313   */\n      dup6\n        /* \"--CODEGEN--\":4247:4321   */\n      jump(tag_91)\n    tag_116:\n        /* \"--CODEGEN--\":4239:4321   */\n      swap1\n      pop\n        /* \"--CODEGEN--\":4332:4398   */\n      tag_117\n        /* \"--CODEGEN--\":4394:4396   */\n      0x40\n        /* \"--CODEGEN--\":4383:4392   */\n      dup4\n        /* \"--CODEGEN--\":4379:4397   */\n      add\n        /* \"--CODEGEN--\":4370:4376   */\n      dup5\n        /* \"--CODEGEN--\":4332:4398   */\n      jump(tag_78)\n    tag_117:\n        /* \"--CODEGEN--\":4060:4408   */\n      swap5\n      swap4\n      pop\n      pop\n      pop\n      pop\n      jump\n        /* \"--CODEGEN--\":4415:4671   */\n    tag_58:\n      0x00\n        /* \"--CODEGEN--\":4477:4479   */\n      0x40\n        /* \"--CODEGEN--\":4471:4480   */\n      mload\n        /* \"--CODEGEN--\":4461:4480   */\n      swap1\n      pop\n        /* \"--CODEGEN--\":4515:4519   */\n      dup2\n        /* \"--CODEGEN--\":4507:4513   */\n      dup2\n        /* \"--CODEGEN--\":4503:4520   */\n      add\n        /* \"--CODEGEN--\":4614:4620   */\n      dup2\n        /* \"--CODEGEN--\":4602:4612   */\n      dup2\n        /* \"--CODEGEN--\":4599:4621   */\n      lt\n        /* \"--CODEGEN--\":4578:4596   */\n      0xffffffffffffffff\n        /* \"--CODEGEN--\":4566:4576   */\n      dup3\n        /* \"--CODEGEN--\":4563:4597   */\n      gt\n        /* \"--CODEGEN--\":4560:4622   */\n      or\n        /* \"--CODEGEN--\":4557:4559   */\n      iszero\n      tag_119\n      jumpi\n        /* \"--CODEGEN--\":4635:4636   */\n      0x00\n        /* \"--CODEGEN--\":4632:4633   */\n      dup1\n        /* \"--CODEGEN--\":4625:4637   */\n      revert\n        /* \"--CODEGEN--\":4557:4559   */\n    tag_119:\n        /* \"--CODEGEN--\":4655:4665   */\n      dup1\n        /* \"--CODEGEN--\":4651:4653   */\n      0x40\n        /* \"--CODEGEN--\":4644:4666   */\n      mstore\n        /* \"--CODEGEN--\":4455:4671   */\n      pop\n      swap2\n      swap1\n      pop\n      jump\n        /* \"--CODEGEN--\":4678:5000   */\n    tag_57:\n      0x00\n        /* \"--CODEGEN--\":4822:4840   */\n      0xffffffffffffffff\n        /* \"--CODEGEN--\":4814:4820   */\n      dup3\n        /* \"--CODEGEN--\":4811:4841   */\n      gt\n        /* \"--CODEGEN--\":4808:4810   */\n      iszero\n      tag_121\n      jumpi\n        /* \"--CODEGEN--\":4854:4855   */\n      0x00\n        /* \"--CODEGEN--\":4851:4852   */\n      dup1\n        /* \"--CODEGEN--\":4844:4856   */\n      revert\n        /* \"--CODEGEN--\":4808:4810   */\n    tag_121:\n        /* \"--CODEGEN--\":4921:4925   */\n      0x1f\n        /* \"--CODEGEN--\":4917:4926   */\n      not\n        /* \"--CODEGEN--\":4910:4914   */\n      0x1f\n        /* \"--CODEGEN--\":4902:4908   */\n      dup4\n        /* \"--CODEGEN--\":4898:4915   */\n      add\n        /* \"--CODEGEN--\":4894:4927   */\n      and\n        /* \"--CODEGEN--\":4886:4927   */\n      swap1\n      pop\n        /* \"--CODEGEN--\":4985:4989   */\n      0x20\n        /* \"--CODEGEN--\":4979:4983   */\n      dup2\n        /* \"--CODEGEN--\":4975:4990   */\n      add\n        /* \"--CODEGEN--\":4967:4990   */\n      swap1\n      pop\n        /* \"--CODEGEN--\":4745:5000   */\n      swap2\n      swap1\n      pop\n      jump\n        /* \"--CODEGEN--\":5007:5125   */\n    tag_84:\n      0x00\n        /* \"--CODEGEN--\":5097:5102   */\n      dup2\n        /* \"--CODEGEN--\":5091:5103   */\n      mload\n        /* \"--CODEGEN--\":5081:5103   */\n      swap1\n      pop\n        /* \"--CODEGEN--\":5062:5125   */\n      swap2\n      swap1\n      pop\n      jump\n        /* \"--CODEGEN--\":5133:5286   */\n    tag_86:\n      0x00\n        /* \"--CODEGEN--\":5238:5244   */\n      dup3\n        /* \"--CODEGEN--\":5233:5236   */\n      dup3\n        /* \"--CODEGEN--\":5226:5245   */\n      mstore\n        /* \"--CODEGEN--\":5275:5279   */\n      0x20\n        /* \"--CODEGEN--\":5270:5273   */\n      dup3\n        /* \"--CODEGEN--\":5266:5280   */\n      add\n        /* \"--CODEGEN--\":5251:5280   */\n      swap1\n      pop\n        /* \"--CODEGEN--\":5219:5286   */\n      swap3\n      swap2\n      pop\n      pop\n      jump\n        /* \"--CODEGEN--\":5295:5458   */\n    tag_95:\n      0x00\n        /* \"--CODEGEN--\":5410:5416   */\n      dup3\n        /* \"--CODEGEN--\":5405:5408   */\n      dup3\n        /* \"--CODEGEN--\":5398:5417   */\n      mstore\n        /* \"--CODEGEN--\":5447:5451   */\n      0x20\n        /* \"--CODEGEN--\":5442:5445   */\n      dup3\n        /* \"--CODEGEN--\":5438:5452   */\n      add\n        /* \"--CODEGEN--\":5423:5452   */\n      swap1\n      pop\n        /* \"--CODEGEN--\":5391:5458   */\n      swap3\n      swap2\n      pop\n      pop\n      jump\n        /* \"--CODEGEN--\":5466:5551   */\n    tag_77:\n      0x00\n        /* \"--CODEGEN--\":5539:5544   */\n      dup2\n        /* \"--CODEGEN--\":5532:5545   */\n      iszero\n        /* \"--CODEGEN--\":5525:5546   */\n      iszero\n        /* \"--CODEGEN--\":5514:5546   */\n      swap1\n      pop\n        /* \"--CODEGEN--\":5508:5551   */\n      swap2\n      swap1\n      pop\n      jump\n        /* \"--CODEGEN--\":5558:5630   */\n    tag_106:\n      0x00\n        /* \"--CODEGEN--\":5620:5625   */\n      dup2\n        /* \"--CODEGEN--\":5609:5625   */\n      swap1\n      pop\n        /* \"--CODEGEN--\":5603:5630   */\n      swap2\n      swap1\n      pop\n      jump\n        /* \"--CODEGEN--\":5638:5783   */\n    tag_61:\n        /* \"--CODEGEN--\":5719:5725   */\n      dup3\n        /* \"--CODEGEN--\":5714:5717   */\n      dup2\n        /* \"--CODEGEN--\":5709:5712   */\n      dup4\n        /* \"--CODEGEN--\":5696:5726   */\n      calldatacopy\n        /* \"--CODEGEN--\":5775:5776   */\n      0x00\n        /* \"--CODEGEN--\":5766:5772   */\n      dup4\n        /* \"--CODEGEN--\":5761:5764   */\n      dup4\n        /* \"--CODEGEN--\":5757:5773   */\n      add\n        /* \"--CODEGEN--\":5750:5777   */\n      mstore\n        /* \"--CODEGEN--\":5689:5783   */\n      pop\n      pop\n      pop\n      jump\n        /* \"--CODEGEN--\":5792:6060   */\n    tag_88:\n        /* \"--CODEGEN--\":5857:5858   */\n      0x00\n        /* \"--CODEGEN--\":5864:5965   */\n    tag_129:\n        /* \"--CODEGEN--\":5878:5884   */\n      dup4\n        /* \"--CODEGEN--\":5875:5876   */\n      dup2\n        /* \"--CODEGEN--\":5872:5885   */\n      lt\n        /* \"--CODEGEN--\":5864:5965   */\n      iszero\n      tag_131\n      jumpi\n        /* \"--CODEGEN--\":5954:5955   */\n      dup1\n        /* \"--CODEGEN--\":5949:5952   */\n      dup3\n        /* \"--CODEGEN--\":5945:5956   */\n      add\n        /* \"--CODEGEN--\":5939:5957   */\n      mload\n        /* \"--CODEGEN--\":5935:5936   */\n      dup2\n        /* \"--CODEGEN--\":5930:5933   */\n      dup5\n        /* \"--CODEGEN--\":5926:5937   */\n      add\n        /* \"--CODEGEN--\":5919:5958   */\n      mstore\n        /* \"--CODEGEN--\":5900:5902   */\n      0x20\n        /* \"--CODEGEN--\":5897:5898   */\n      dup2\n        /* \"--CODEGEN--\":5893:5903   */\n      add\n        /* \"--CODEGEN--\":5888:5903   */\n      swap1\n      pop\n        /* \"--CODEGEN--\":5864:5965   */\n      jump(tag_129)\n    tag_131:\n        /* \"--CODEGEN--\":5980:5986   */\n      dup4\n        /* \"--CODEGEN--\":5977:5978   */\n      dup2\n        /* \"--CODEGEN--\":5974:5987   */\n      gt\n        /* \"--CODEGEN--\":5971:5973   */\n      iszero\n      tag_132\n      jumpi\n        /* \"--CODEGEN--\":6045:6046   */\n      0x00\n        /* \"--CODEGEN--\":6036:6042   */\n      dup5\n        /* \"--CODEGEN--\":6031:6034   */\n      dup5\n        /* \"--CODEGEN--\":6027:6043   */\n      add\n        /* \"--CODEGEN--\":6020:6047   */\n      mstore\n        /* \"--CODEGEN--\":5971:5973   */\n    tag_132:\n        /* \"--CODEGEN--\":5841:6060   */\n      pop\n      pop\n      pop\n      pop\n      jump\n        /* \"--CODEGEN--\":6068:6165   */\n    tag_90:\n      0x00\n        /* \"--CODEGEN--\":6156:6158   */\n      0x1f\n        /* \"--CODEGEN--\":6152:6159   */\n      not\n        /* \"--CODEGEN--\":6147:6149   */\n      0x1f\n        /* \"--CODEGEN--\":6140:6145   */\n      dup4\n        /* \"--CODEGEN--\":6136:6150   */\n      add\n        /* \"--CODEGEN--\":6132:6160   */\n      and\n        /* \"--CODEGEN--\":6122:6160   */\n      swap1\n      pop\n        /* \"--CODEGEN--\":6116:6165   */\n      swap2\n      swap1\n      pop\n      jump\n        /* \"--CODEGEN--\":6173:6284   */\n    tag_51:\n        /* \"--CODEGEN--\":6239:6260   */\n      tag_135\n        /* \"--CODEGEN--\":6254:6259   */\n      dup2\n        /* \"--CODEGEN--\":6239:6260   */\n      jump(tag_77)\n    tag_135:\n        /* \"--CODEGEN--\":6232:6237   */\n      dup2\n        /* \"--CODEGEN--\":6229:6261   */\n      eq\n        /* \"--CODEGEN--\":6219:6221   */\n      tag_136\n      jumpi\n        /* \"--CODEGEN--\":6275:6276   */\n      0x00\n        /* \"--CODEGEN--\":6272:6273   */\n      dup1\n        /* \"--CODEGEN--\":6265:6277   */\n      revert\n        /* \"--CODEGEN--\":6219:6221   */\n    tag_136:\n        /* \"--CODEGEN--\":6213:6284   */\n      pop\n      jump\n        /* \"--CODEGEN--\":6291:6408   */\n    tag_65:\n        /* \"--CODEGEN--\":6360:6384   */\n      tag_138\n        /* \"--CODEGEN--\":6378:6383   */\n      dup2\n        /* \"--CODEGEN--\":6360:6384   */\n      jump(tag_106)\n    tag_138:\n        /* \"--CODEGEN--\":6353:6358   */\n      dup2\n        /* \"--CODEGEN--\":6350:6385   */\n      eq\n        /* \"--CODEGEN--\":6340:6342   */\n      tag_139\n      jumpi\n        /* \"--CODEGEN--\":6399:6400   */\n      0x00\n        /* \"--CODEGEN--\":6396:6397   */\n      dup1\n        /* \"--CODEGEN--\":6389:6401   */\n      revert\n        /* \"--CODEGEN--\":6340:6342   */\n    tag_139:\n        /* \"--CODEGEN--\":6334:6408   */\n      pop\n      jump\n\n    auxdata: 0xa2646970667358221220140995c514bec06b026cbf95d0c1208c98bcb5199f076d3cfbfea0831264c4cd64736f6c63430006000033\n}\n",
				"bytecode": {
					"linkReferences": {},
					"object": "608060405234801561001057600080fd5b50600060018190555061005f6040518060400160405280600481526020017f566c61640000000000000000000000000000000000000000000000000000000081525060016100aa60201b60201c565b6100a56040518060400160405280600681526020017f4e6173747961000000000000000000000000000000000000000000000000000081525060006100aa60201b60201c565b6101e2565b60405180606001604052806001548152602001838152602001821515815250600080600154815260200190815260200160002060008201518160000155602082015181600101908051906020019061010392919061013d565b5060408201518160020160006101000a81548160ff0219169083151502179055509050506001600081548092919060010191905055505050565b828054600181600116156101000203166002900490600052602060002090601f016020900481019282601f1061017e57805160ff19168380011785556101ac565b828001600101855582156101ac579182015b828111156101ab578251825591602001919060010190610190565b5b5090506101b991906101bd565b5090565b6101df91905b808211156101db5760008160009055506001016101c3565b5090565b90565b6107d7806101f16000396000f3fe608060405234801561001057600080fd5b506004361061004c5760003560e01c806311aee380146100515780635daf08ca1461006f57806392c68389146100a1578063ab3545e5146100bd575b600080fd5b6100596100ed565b604051610066919061062b565b60405180910390f35b610089600480360361008491908101906104e2565b6100f3565b60405161009893929190610646565b60405180910390f35b6100bb60048036036100b6919081019061048e565b6101c2565b005b6100d760048036036100d291908101906104e2565b610255565b6040516100e49190610609565b60405180910390f35b60015481565b6000602052806000526040600020600091509050806000015490806001018054600181600116156101000203166002900480601f0160208091040260200160405190810160405280929190818152602001828054600181600116156101000203166002900480156101a55780601f1061017a576101008083540402835291602001916101a5565b820191906000526020600020905b81548152906001019060200180831161018857829003601f168201915b5050505050908060020160009054906101000a900460ff16905083565b60405180606001604052806001548152602001838152602001821515815250600080600154815260200190815260200160002060008201518160000155602082015181600101908051906020019061021b929190610348565b5060408201518160020160006101000a81548160ff0219169083151502179055509050506001600081548092919060010191905055505050565b61025d6103c8565b60008083815260200190815260200160002060405180606001604052908160008201548152602001600182018054600181600116156101000203166002900480601f01602080910402602001604051908101604052809291908181526020018280546001816001161561010002031660029004801561031d5780601f106102f25761010080835404028352916020019161031d565b820191906000526020600020905b81548152906001019060200180831161030057829003601f168201915b505050505081526020016002820160009054906101000a900460ff1615151515815250509050919050565b828054600181600116156101000203166002900490600052602060002090601f016020900481019282601f1061038957805160ff19168380011785556103b7565b828001600101855582156103b7579182015b828111156103b657825182559160200191906001019061039b565b5b5090506103c491906103eb565b5090565b604051806060016040528060008152602001606081526020016000151581525090565b61040d91905b808211156104095760008160009055506001016103f1565b5090565b90565b60008135905061041f81610773565b92915050565b600082601f83011261043657600080fd5b8135610449610444826106b1565b610684565b9150808252602083016020830185838301111561046557600080fd5b610470838284610720565b50505092915050565b6000813590506104888161078a565b92915050565b600080604083850312156104a157600080fd5b600083013567ffffffffffffffff8111156104bb57600080fd5b6104c785828601610425565b92505060206104d885828601610410565b9150509250929050565b6000602082840312156104f457600080fd5b600061050284828501610479565b91505092915050565b6105148161070a565b82525050565b6105238161070a565b82525050565b6000610534826106dd565b61053e81856106e8565b935061054e81856020860161072f565b61055781610762565b840191505092915050565b600061056d826106dd565b61057781856106f9565b935061058781856020860161072f565b61059081610762565b840191505092915050565b60006060830160008301516105b360008601826105eb565b50602083015184820360208601526105cb8282610529565b91505060408301516105e0604086018261050b565b508091505092915050565b6105f481610716565b82525050565b61060381610716565b82525050565b60006020820190508181036000830152610623818461059b565b905092915050565b600060208201905061064060008301846105fa565b92915050565b600060608201905061065b60008301866105fa565b818103602083015261066d8185610562565b905061067c604083018461051a565b949350505050565b6000604051905081810181811067ffffffffffffffff821117156106a757600080fd5b8060405250919050565b600067ffffffffffffffff8211156106c857600080fd5b601f19601f8301169050602081019050919050565b600081519050919050565b600082825260208201905092915050565b600082825260208201905092915050565b60008115159050919050565b6000819050919050565b82818337600083830152505050565b60005b8381101561074d578082015181840152602081019050610732565b8381111561075c576000848401525b50505050565b6000601f19601f8301169050919050565b61077c8161070a565b811461078757600080fd5b50565b61079381610716565b811461079e57600080fd5b5056fea2646970667358221220140995c514bec06b026cbf95d0c1208c98bcb5199f076d3cfbfea0831264c4cd64736f6c63430006000033",
					"opcodes": "PUSH1 0x80 PUSH1 0x40 MSTORE CALLVALUE DUP1 ISZERO PUSH2 0x10 JUMPI PUSH1 0x0 DUP1 REVERT JUMPDEST POP PUSH1 0x0 PUSH1 0x1 DUP2 SWAP1 SSTORE POP PUSH2 0x5F PUSH1 0x40 MLOAD DUP1 PUSH1 0x40 ADD PUSH1 0x40 MSTORE DUP1 PUSH1 0x4 DUP2 MSTORE PUSH1 0x20 ADD PUSH32 0x566C616400000000000000000000000000000000000000000000000000000000 DUP2 MSTORE POP PUSH1 0x1 PUSH2 0xAA PUSH1 0x20 SHL PUSH1 0x20 SHR JUMP JUMPDEST PUSH2 0xA5 PUSH1 0x40 MLOAD DUP1 PUSH1 0x40 ADD PUSH1 0x40 MSTORE DUP1 PUSH1 0x6 DUP2 MSTORE PUSH1 0x20 ADD PUSH32 0x4E61737479610000000000000000000000000000000000000000000000000000 DUP2 MSTORE POP PUSH1 0x0 PUSH2 0xAA PUSH1 0x20 SHL PUSH1 0x20 SHR JUMP JUMPDEST PUSH2 0x1E2 JUMP JUMPDEST PUSH1 0x40 MLOAD DUP1 PUSH1 0x60 ADD PUSH1 0x40 MSTORE DUP1 PUSH1 0x1 SLOAD DUP2 MSTORE PUSH1 0x20 ADD DUP4 DUP2 MSTORE PUSH1 0x20 ADD DUP3 ISZERO ISZERO DUP2 MSTORE POP PUSH1 0x0 DUP1 PUSH1 0x1 SLOAD DUP2 MSTORE PUSH1 0x20 ADD SWAP1 DUP2 MSTORE PUSH1 0x20 ADD PUSH1 0x0 KECCAK256 PUSH1 0x0 DUP3 ADD MLOAD DUP2 PUSH1 0x0 ADD SSTORE PUSH1 0x20 DUP3 ADD MLOAD DUP2 PUSH1 0x1 ADD SWAP1 DUP1 MLOAD SWAP1 PUSH1 0x20 ADD SWAP1 PUSH2 0x103 SWAP3 SWAP2 SWAP1 PUSH2 0x13D JUMP JUMPDEST POP PUSH1 0x40 DUP3 ADD MLOAD DUP2 PUSH1 0x2 ADD PUSH1 0x0 PUSH2 0x100 EXP DUP2 SLOAD DUP2 PUSH1 0xFF MUL NOT AND SWAP1 DUP4 ISZERO ISZERO MUL OR SWAP1 SSTORE POP SWAP1 POP POP PUSH1 0x1 PUSH1 0x0 DUP2 SLOAD DUP1 SWAP3 SWAP2 SWAP1 PUSH1 0x1 ADD SWAP2 SWAP1 POP SSTORE POP POP POP JUMP JUMPDEST DUP3 DUP1 SLOAD PUSH1 0x1 DUP2 PUSH1 0x1 AND ISZERO PUSH2 0x100 MUL SUB AND PUSH1 0x2 SWAP1 DIV SWAP1 PUSH1 0x0 MSTORE PUSH1 0x20 PUSH1 0x0 KECCAK256 SWAP1 PUSH1 0x1F ADD PUSH1 0x20 SWAP1 DIV DUP2 ADD SWAP3 DUP3 PUSH1 0x1F LT PUSH2 0x17E JUMPI DUP1 MLOAD PUSH1 0xFF NOT AND DUP4 DUP1 ADD OR DUP6 SSTORE PUSH2 0x1AC JUMP JUMPDEST DUP3 DUP1 ADD PUSH1 0x1 ADD DUP6 SSTORE DUP3 ISZERO PUSH2 0x1AC JUMPI SWAP2 DUP3 ADD JUMPDEST DUP3 DUP2 GT ISZERO PUSH2 0x1AB JUMPI DUP3 MLOAD DUP3 SSTORE SWAP2 PUSH1 0x20 ADD SWAP2 SWAP1 PUSH1 0x1 ADD SWAP1 PUSH2 0x190 JUMP JUMPDEST JUMPDEST POP SWAP1 POP PUSH2 0x1B9 SWAP2 SWAP1 PUSH2 0x1BD JUMP JUMPDEST POP SWAP1 JUMP JUMPDEST PUSH2 0x1DF SWAP2 SWAP1 JUMPDEST DUP1 DUP3 GT ISZERO PUSH2 0x1DB JUMPI PUSH1 0x0 DUP2 PUSH1 0x0 SWAP1 SSTORE POP PUSH1 0x1 ADD PUSH2 0x1C3 JUMP JUMPDEST POP SWAP1 JUMP JUMPDEST SWAP1 JUMP JUMPDEST PUSH2 0x7D7 DUP1 PUSH2 0x1F1 PUSH1 0x0 CODECOPY PUSH1 0x0 RETURN INVALID PUSH1 0x80 PUSH1 0x40 MSTORE CALLVALUE DUP1 ISZERO PUSH2 0x10 JUMPI PUSH1 0x0 DUP1 REVERT JUMPDEST POP PUSH1 0x4 CALLDATASIZE LT PUSH2 0x4C JUMPI PUSH1 0x0 CALLDATALOAD PUSH1 0xE0 SHR DUP1 PUSH4 0x11AEE380 EQ PUSH2 0x51 JUMPI DUP1 PUSH4 0x5DAF08CA EQ PUSH2 0x6F JUMPI DUP1 PUSH4 0x92C68389 EQ PUSH2 0xA1 JUMPI DUP1 PUSH4 0xAB3545E5 EQ PUSH2 0xBD JUMPI JUMPDEST PUSH1 0x0 DUP1 REVERT JUMPDEST PUSH2 0x59 PUSH2 0xED JUMP JUMPDEST PUSH1 0x40 MLOAD PUSH2 0x66 SWAP2 SWAP1 PUSH2 0x62B JUMP JUMPDEST PUSH1 0x40 MLOAD DUP1 SWAP2 SUB SWAP1 RETURN JUMPDEST PUSH2 0x89 PUSH1 0x4 DUP1 CALLDATASIZE SUB PUSH2 0x84 SWAP2 SWAP1 DUP2 ADD SWAP1 PUSH2 0x4E2 JUMP JUMPDEST PUSH2 0xF3 JUMP JUMPDEST PUSH1 0x40 MLOAD PUSH2 0x98 SWAP4 SWAP3 SWAP2 SWAP1 PUSH2 0x646 JUMP JUMPDEST PUSH1 0x40 MLOAD DUP1 SWAP2 SUB SWAP1 RETURN JUMPDEST PUSH2 0xBB PUSH1 0x4 DUP1 CALLDATASIZE SUB PUSH2 0xB6 SWAP2 SWAP1 DUP2 ADD SWAP1 PUSH2 0x48E JUMP JUMPDEST PUSH2 0x1C2 JUMP JUMPDEST STOP JUMPDEST PUSH2 0xD7 PUSH1 0x4 DUP1 CALLDATASIZE SUB PUSH2 0xD2 SWAP2 SWAP1 DUP2 ADD SWAP1 PUSH2 0x4E2 JUMP JUMPDEST PUSH2 0x255 JUMP JUMPDEST PUSH1 0x40 MLOAD PUSH2 0xE4 SWAP2 SWAP1 PUSH2 0x609 JUMP JUMPDEST PUSH1 0x40 MLOAD DUP1 SWAP2 SUB SWAP1 RETURN JUMPDEST PUSH1 0x1 SLOAD DUP2 JUMP JUMPDEST PUSH1 0x0 PUSH1 0x20 MSTORE DUP1 PUSH1 0x0 MSTORE PUSH1 0x40 PUSH1 0x0 KECCAK256 PUSH1 0x0 SWAP2 POP SWAP1 POP DUP1 PUSH1 0x0 ADD SLOAD SWAP1 DUP1 PUSH1 0x1 ADD DUP1 SLOAD PUSH1 0x1 DUP2 PUSH1 0x1 AND ISZERO PUSH2 0x100 MUL SUB AND PUSH1 0x2 SWAP1 DIV DUP1 PUSH1 0x1F ADD PUSH1 0x20 DUP1 SWAP2 DIV MUL PUSH1 0x20 ADD PUSH1 0x40 MLOAD SWAP1 DUP2 ADD PUSH1 0x40 MSTORE DUP1 SWAP3 SWAP2 SWAP1 DUP2 DUP2 MSTORE PUSH1 0x20 ADD DUP3 DUP1 SLOAD PUSH1 0x1 DUP2 PUSH1 0x1 AND ISZERO PUSH2 0x100 MUL SUB AND PUSH1 0x2 SWAP1 DIV DUP1 ISZERO PUSH2 0x1A5 JUMPI DUP1 PUSH1 0x1F LT PUSH2 0x17A JUMPI PUSH2 0x100 DUP1 DUP4 SLOAD DIV MUL DUP4 MSTORE SWAP2 PUSH1 0x20 ADD SWAP2 PUSH2 0x1A5 JUMP JUMPDEST DUP3 ADD SWAP2 SWAP1 PUSH1 0x0 MSTORE PUSH1 0x20 PUSH1 0x0 KECCAK256 SWAP1 JUMPDEST DUP2 SLOAD DUP2 MSTORE SWAP1 PUSH1 0x1 ADD SWAP1 PUSH1 0x20 ADD DUP1 DUP4 GT PUSH2 0x188 JUMPI DUP3 SWAP1 SUB PUSH1 0x1F AND DUP3 ADD SWAP2 JUMPDEST POP POP POP POP POP SWAP1 DUP1 PUSH1 0x2 ADD PUSH1 0x0 SWAP1 SLOAD SWAP1 PUSH2 0x100 EXP SWAP1 DIV PUSH1 0xFF AND SWAP1 POP DUP4 JUMP JUMPDEST PUSH1 0x40 MLOAD DUP1 PUSH1 0x60 ADD PUSH1 0x40 MSTORE DUP1 PUSH1 0x1 SLOAD DUP2 MSTORE PUSH1 0x20 ADD DUP4 DUP2 MSTORE PUSH1 0x20 ADD DUP3 ISZERO ISZERO DUP2 MSTORE POP PUSH1 0x0 DUP1 PUSH1 0x1 SLOAD DUP2 MSTORE PUSH1 0x20 ADD SWAP1 DUP2 MSTORE PUSH1 0x20 ADD PUSH1 0x0 KECCAK256 PUSH1 0x0 DUP3 ADD MLOAD DUP2 PUSH1 0x0 ADD SSTORE PUSH1 0x20 DUP3 ADD MLOAD DUP2 PUSH1 0x1 ADD SWAP1 DUP1 MLOAD SWAP1 PUSH1 0x20 ADD SWAP1 PUSH2 0x21B SWAP3 SWAP2 SWAP1 PUSH2 0x348 JUMP JUMPDEST POP PUSH1 0x40 DUP3 ADD MLOAD DUP2 PUSH1 0x2 ADD PUSH1 0x0 PUSH2 0x100 EXP DUP2 SLOAD DUP2 PUSH1 0xFF MUL NOT AND SWAP1 DUP4 ISZERO ISZERO MUL OR SWAP1 SSTORE POP SWAP1 POP POP PUSH1 0x1 PUSH1 0x0 DUP2 SLOAD DUP1 SWAP3 SWAP2 SWAP1 PUSH1 0x1 ADD SWAP2 SWAP1 POP SSTORE POP POP POP JUMP JUMPDEST PUSH2 0x25D PUSH2 0x3C8 JUMP JUMPDEST PUSH1 0x0 DUP1 DUP4 DUP2 MSTORE PUSH1 0x20 ADD SWAP1 DUP2 MSTORE PUSH1 0x20 ADD PUSH1 0x0 KECCAK256 PUSH1 0x40 MLOAD DUP1 PUSH1 0x60 ADD PUSH1 0x40 MSTORE SWAP1 DUP2 PUSH1 0x0 DUP3 ADD SLOAD DUP2 MSTORE PUSH1 0x20 ADD PUSH1 0x1 DUP3 ADD DUP1 SLOAD PUSH1 0x1 DUP2 PUSH1 0x1 AND ISZERO PUSH2 0x100 MUL SUB AND PUSH1 0x2 SWAP1 DIV DUP1 PUSH1 0x1F ADD PUSH1 0x20 DUP1 SWAP2 DIV MUL PUSH1 0x20 ADD PUSH1 0x40 MLOAD SWAP1 DUP2 ADD PUSH1 0x40 MSTORE DUP1 SWAP3 SWAP2 SWAP1 DUP2 DUP2 MSTORE PUSH1 0x20 ADD DUP3 DUP1 SLOAD PUSH1 0x1 DUP2 PUSH1 0x1 AND ISZERO PUSH2 0x100 MUL SUB AND PUSH1 0x2 SWAP1 DIV DUP1 ISZERO PUSH2 0x31D JUMPI DUP1 PUSH1 0x1F LT PUSH2 0x2F2 JUMPI PUSH2 0x100 DUP1 DUP4 SLOAD DIV MUL DUP4 MSTORE SWAP2 PUSH1 0x20 ADD SWAP2 PUSH2 0x31D JUMP JUMPDEST DUP3 ADD SWAP2 SWAP1 PUSH1 0x0 MSTORE PUSH1 0x20 PUSH1 0x0 KECCAK256 SWAP1 JUMPDEST DUP2 SLOAD DUP2 MSTORE SWAP1 PUSH1 0x1 ADD SWAP1 PUSH1 0x20 ADD DUP1 DUP4 GT PUSH2 0x300 JUMPI DUP3 SWAP1 SUB PUSH1 0x1F AND DUP3 ADD SWAP2 JUMPDEST POP POP POP POP POP DUP2 MSTORE PUSH1 0x20 ADD PUSH1 0x2 DUP3 ADD PUSH1 0x0 SWAP1 SLOAD SWAP1 PUSH2 0x100 EXP SWAP1 DIV PUSH1 0xFF AND ISZERO ISZERO ISZERO ISZERO DUP2 MSTORE POP POP SWAP1 POP SWAP2 SWAP1 POP JUMP JUMPDEST DUP3 DUP1 SLOAD PUSH1 0x1 DUP2 PUSH1 0x1 AND ISZERO PUSH2 0x100 MUL SUB AND PUSH1 0x2 SWAP1 DIV SWAP1 PUSH1 0x0 MSTORE PUSH1 0x20 PUSH1 0x0 KECCAK256 SWAP1 PUSH1 0x1F ADD PUSH1 0x20 SWAP1 DIV DUP2 ADD SWAP3 DUP3 PUSH1 0x1F LT PUSH2 0x389 JUMPI DUP1 MLOAD PUSH1 0xFF NOT AND DUP4 DUP1 ADD OR DUP6 SSTORE PUSH2 0x3B7 JUMP JUMPDEST DUP3 DUP1 ADD PUSH1 0x1 ADD DUP6 SSTORE DUP3 ISZERO PUSH2 0x3B7 JUMPI SWAP2 DUP3 ADD JUMPDEST DUP3 DUP2 GT ISZERO PUSH2 0x3B6 JUMPI DUP3 MLOAD DUP3 SSTORE SWAP2 PUSH1 0x20 ADD SWAP2 SWAP1 PUSH1 0x1 ADD SWAP1 PUSH2 0x39B JUMP JUMPDEST JUMPDEST POP SWAP1 POP PUSH2 0x3C4 SWAP2 SWAP1 PUSH2 0x3EB JUMP JUMPDEST POP SWAP1 JUMP JUMPDEST PUSH1 0x40 MLOAD DUP1 PUSH1 0x60 ADD PUSH1 0x40 MSTORE DUP1 PUSH1 0x0 DUP2 MSTORE PUSH1 0x20 ADD PUSH1 0x60 DUP2 MSTORE PUSH1 0x20 ADD PUSH1 0x0 ISZERO ISZERO DUP2 MSTORE POP SWAP1 JUMP JUMPDEST PUSH2 0x40D SWAP2 SWAP1 JUMPDEST DUP1 DUP3 GT ISZERO PUSH2 0x409 JUMPI PUSH1 0x0 DUP2 PUSH1 0x0 SWAP1 SSTORE POP PUSH1 0x1 ADD PUSH2 0x3F1 JUMP JUMPDEST POP SWAP1 JUMP JUMPDEST SWAP1 JUMP JUMPDEST PUSH1 0x0 DUP2 CALLDATALOAD SWAP1 POP PUSH2 0x41F DUP2 PUSH2 0x773 JUMP JUMPDEST SWAP3 SWAP2 POP POP JUMP JUMPDEST PUSH1 0x0 DUP3 PUSH1 0x1F DUP4 ADD SLT PUSH2 0x436 JUMPI PUSH1 0x0 DUP1 REVERT JUMPDEST DUP2 CALLDATALOAD PUSH2 0x449 PUSH2 0x444 DUP3 PUSH2 0x6B1 JUMP JUMPDEST PUSH2 0x684 JUMP JUMPDEST SWAP2 POP DUP1 DUP3 MSTORE PUSH1 0x20 DUP4 ADD PUSH1 0x20 DUP4 ADD DUP6 DUP4 DUP4 ADD GT ISZERO PUSH2 0x465 JUMPI PUSH1 0x0 DUP1 REVERT JUMPDEST PUSH2 0x470 DUP4 DUP3 DUP5 PUSH2 0x720 JUMP JUMPDEST POP POP POP SWAP3 SWAP2 POP POP JUMP JUMPDEST PUSH1 0x0 DUP2 CALLDATALOAD SWAP1 POP PUSH2 0x488 DUP2 PUSH2 0x78A JUMP JUMPDEST SWAP3 SWAP2 POP POP JUMP JUMPDEST PUSH1 0x0 DUP1 PUSH1 0x40 DUP4 DUP6 SUB SLT ISZERO PUSH2 0x4A1 JUMPI PUSH1 0x0 DUP1 REVERT JUMPDEST PUSH1 0x0 DUP4 ADD CALLDATALOAD PUSH8 0xFFFFFFFFFFFFFFFF DUP2 GT ISZERO PUSH2 0x4BB JUMPI PUSH1 0x0 DUP1 REVERT JUMPDEST PUSH2 0x4C7 DUP6 DUP3 DUP7 ADD PUSH2 0x425 JUMP JUMPDEST SWAP3 POP POP PUSH1 0x20 PUSH2 0x4D8 DUP6 DUP3 DUP7 ADD PUSH2 0x410 JUMP JUMPDEST SWAP2 POP POP SWAP3 POP SWAP3 SWAP1 POP JUMP JUMPDEST PUSH1 0x0 PUSH1 0x20 DUP3 DUP5 SUB SLT ISZERO PUSH2 0x4F4 JUMPI PUSH1 0x0 DUP1 REVERT JUMPDEST PUSH1 0x0 PUSH2 0x502 DUP5 DUP3 DUP6 ADD PUSH2 0x479 JUMP JUMPDEST SWAP2 POP POP SWAP3 SWAP2 POP POP JUMP JUMPDEST PUSH2 0x514 DUP2 PUSH2 0x70A JUMP JUMPDEST DUP3 MSTORE POP POP JUMP JUMPDEST PUSH2 0x523 DUP2 PUSH2 0x70A JUMP JUMPDEST DUP3 MSTORE POP POP JUMP JUMPDEST PUSH1 0x0 PUSH2 0x534 DUP3 PUSH2 0x6DD JUMP JUMPDEST PUSH2 0x53E DUP2 DUP6 PUSH2 0x6E8 JUMP JUMPDEST SWAP4 POP PUSH2 0x54E DUP2 DUP6 PUSH1 0x20 DUP7 ADD PUSH2 0x72F JUMP JUMPDEST PUSH2 0x557 DUP2 PUSH2 0x762 JUMP JUMPDEST DUP5 ADD SWAP2 POP POP SWAP3 SWAP2 POP POP JUMP JUMPDEST PUSH1 0x0 PUSH2 0x56D DUP3 PUSH2 0x6DD JUMP JUMPDEST PUSH2 0x577 DUP2 DUP6 PUSH2 0x6F9 JUMP JUMPDEST SWAP4 POP PUSH2 0x587 DUP2 DUP6 PUSH1 0x20 DUP7 ADD PUSH2 0x72F JUMP JUMPDEST PUSH2 0x590 DUP2 PUSH2 0x762 JUMP JUMPDEST DUP5 ADD SWAP2 POP POP SWAP3 SWAP2 POP POP JUMP JUMPDEST PUSH1 0x0 PUSH1 0x60 DUP4 ADD PUSH1 0x0 DUP4 ADD MLOAD PUSH2 0x5B3 PUSH1 0x0 DUP7 ADD DUP3 PUSH2 0x5EB JUMP JUMPDEST POP PUSH1 0x20 DUP4 ADD MLOAD DUP5 DUP3 SUB PUSH1 0x20 DUP7 ADD MSTORE PUSH2 0x5CB DUP3 DUP3 PUSH2 0x529 JUMP JUMPDEST SWAP2 POP POP PUSH1 0x40 DUP4 ADD MLOAD PUSH2 0x5E0 PUSH1 0x40 DUP7 ADD DUP3 PUSH2 0x50B JUMP JUMPDEST POP DUP1 SWAP2 POP POP SWAP3 SWAP2 POP POP JUMP JUMPDEST PUSH2 0x5F4 DUP2 PUSH2 0x716 JUMP JUMPDEST DUP3 MSTORE POP POP JUMP JUMPDEST PUSH2 0x603 DUP2 PUSH2 0x716 JUMP JUMPDEST DUP3 MSTORE POP POP JUMP JUMPDEST PUSH1 0x0 PUSH1 0x20 DUP3 ADD SWAP1 POP DUP2 DUP2 SUB PUSH1 0x0 DUP4 ADD MSTORE PUSH2 0x623 DUP2 DUP5 PUSH2 0x59B JUMP JUMPDEST SWAP1 POP SWAP3 SWAP2 POP POP JUMP JUMPDEST PUSH1 0x0 PUSH1 0x20 DUP3 ADD SWAP1 POP PUSH2 0x640 PUSH1 0x0 DUP4 ADD DUP5 PUSH2 0x5FA JUMP JUMPDEST SWAP3 SWAP2 POP POP JUMP JUMPDEST PUSH1 0x0 PUSH1 0x60 DUP3 ADD SWAP1 POP PUSH2 0x65B PUSH1 0x0 DUP4 ADD DUP7 PUSH2 0x5FA JUMP JUMPDEST DUP2 DUP2 SUB PUSH1 0x20 DUP4 ADD MSTORE PUSH2 0x66D DUP2 DUP6 PUSH2 0x562 JUMP JUMPDEST SWAP1 POP PUSH2 0x67C PUSH1 0x40 DUP4 ADD DUP5 PUSH2 0x51A JUMP JUMPDEST SWAP5 SWAP4 POP POP POP POP JUMP JUMPDEST PUSH1 0x0 PUSH1 0x40 MLOAD SWAP1 POP DUP2 DUP2 ADD DUP2 DUP2 LT PUSH8 0xFFFFFFFFFFFFFFFF DUP3 GT OR ISZERO PUSH2 0x6A7 JUMPI PUSH1 0x0 DUP1 REVERT JUMPDEST DUP1 PUSH1 0x40 MSTORE POP SWAP2 SWAP1 POP JUMP JUMPDEST PUSH1 0x0 PUSH8 0xFFFFFFFFFFFFFFFF DUP3 GT ISZERO PUSH2 0x6C8 JUMPI PUSH1 0x0 DUP1 REVERT JUMPDEST PUSH1 0x1F NOT PUSH1 0x1F DUP4 ADD AND SWAP1 POP PUSH1 0x20 DUP2 ADD SWAP1 POP SWAP2 SWAP1 POP JUMP JUMPDEST PUSH1 0x0 DUP2 MLOAD SWAP1 POP SWAP2 SWAP1 POP JUMP JUMPDEST PUSH1 0x0 DUP3 DUP3 MSTORE PUSH1 0x20 DUP3 ADD SWAP1 POP SWAP3 SWAP2 POP POP JUMP JUMPDEST PUSH1 0x0 DUP3 DUP3 MSTORE PUSH1 0x20 DUP3 ADD SWAP1 POP SWAP3 SWAP2 POP POP JUMP JUMPDEST PUSH1 0x0 DUP2 ISZERO ISZERO SWAP1 POP SWAP2 SWAP1 POP JUMP JUMPDEST PUSH1 0x0 DUP2 SWAP1 POP SWAP2 SWAP1 POP JUMP JUMPDEST DUP3 DUP2 DUP4 CALLDATACOPY PUSH1 0x0 DUP4 DUP4 ADD MSTORE POP POP POP JUMP JUMPDEST PUSH1 0x0 JUMPDEST DUP4 DUP2 LT ISZERO PUSH2 0x74D JUMPI DUP1 DUP3 ADD MLOAD DUP2 DUP5 ADD MSTORE PUSH1 0x20 DUP2 ADD SWAP1 POP PUSH2 0x732 JUMP JUMPDEST DUP4 DUP2 GT ISZERO PUSH2 0x75C JUMPI PUSH1 0x0 DUP5 DUP5 ADD MSTORE JUMPDEST POP POP POP POP JUMP JUMPDEST PUSH1 0x0 PUSH1 0x1F NOT PUSH1 0x1F DUP4 ADD AND SWAP1 POP SWAP2 SWAP1 POP JUMP JUMPDEST PUSH2 0x77C DUP2 PUSH2 0x70A JUMP JUMPDEST DUP2 EQ PUSH2 0x787 JUMPI PUSH1 0x0 DUP1 REVERT JUMPDEST POP JUMP JUMPDEST PUSH2 0x793 DUP2 PUSH2 0x716 JUMP JUMPDEST DUP2 EQ PUSH2 0x79E JUMPI PUSH1 0x0 DUP1 REVERT JUMPDEST POP JUMP INVALID LOG2 PUSH5 0x6970667358 0x22 SLT KECCAK256 EQ MULMOD SWAP6 0xC5 EQ 0xBE 0xC0 PUSH12 0x26CBF95D0C1208C98BCB519 SWAP16 SMOD PUSH14 0x3CFBFEA0831264C4CD64736F6C63 NUMBER STOP MOD STOP STOP CALLER "
				},
				"gasEstimates": {
					"creation": {
						"codeDepositCost": "401400",
						"executionCost": "infinite",
						"totalCost": "infinite"
					},
					"external": {
						"addMember(string,bool)": "infinite",
						"getMember(uint256)": "infinite",
						"memberCount()": "1107",
						"members(uint256)": "infinite"
					}
				},
				"methodIdentifiers": {
					"addMember(string,bool)": "92c68389",
					"getMember(uint256)": "ab3545e5",
					"memberCount()": "11aee380",
					"members(uint256)": "5daf08ca"
				}
			},
			"storageLayout": {
				"storage": [
					{
						"astId": 13,
						"contract": "contracts/fun_stuff.sol:VoteSaving",
						"label": "members",
						"offset": 0,
						"slot": "0",
						"type": "t_mapping(t_uint256,t_struct(Member)9_storage)"
					},
					{
						"astId": 19,
						"contract": "contracts/fun_stuff.sol:VoteSaving",
						"label": "memberCount",
						"offset": 0,
						"slot": "1",
						"type": "t_uint256"
					}
				],
				"types": {
					"t_bool": {
						"encoding": "inplace",
						"label": "bool",
						"numberOfBytes": "1"
					},
					"t_mapping(t_uint256,t_struct(Member)9_storage)": {
						"encoding": "mapping",
						"key": "t_uint256",
						"label": "mapping(uint256 => struct VoteSaving.Member)",
						"numberOfBytes": "32",
						"value": "t_struct(Member)9_storage"
					},
					"t_string_storage": {
						"encoding": "bytes",
						"label": "string",
						"numberOfBytes": "32"
					},
					"t_struct(Member)9_storage": {
						"encoding": "inplace",
						"label": "struct VoteSaving.Member",
						"members": [
							{
								"astId": 4,
								"contract": "contracts/fun_stuff.sol:VoteSaving",
								"label": "id",
								"offset": 0,
								"slot": "0",
								"type": "t_uint256"
							},
							{
								"astId": 6,
								"contract": "contracts/fun_stuff.sol:VoteSaving",
								"label": "name",
								"offset": 0,
								"slot": "1",
								"type": "t_string_storage"
							},
							{
								"astId": 8,
								"contract": "contracts/fun_stuff.sol:VoteSaving",
								"label": "isVoted",
								"offset": 0,
								"slot": "2",
								"type": "t_bool"
							}
						],
						"numberOfBytes": "96"
					},
					"t_uint256": {
						"encoding": "inplace",
						"label": "uint256",
						"numberOfBytes": "32"
					}
				}
			},
			"userdoc": {
				"methods": {}
			}
		}
	}
}