{
	"contracts/visov_durku.sol": {
		"BallotFactory": {
			"abi": [
				{
					"inputs": [
						{
							"internalType": "uint256",
							"name": "",
							"type": "uint256"
						}
					],
					"name": "ballotArray",
					"outputs": [
						{
							"internalType": "contract Ballot",
							"name": "",
							"type": "address"
						}
					],
					"stateMutability": "view",
					"type": "function"
				},
				{
					"inputs": [
						{
							"internalType": "string[]",
							"name": "proposalNames",
							"type": "string[]"
						}
					],
					"name": "createBallot",
					"outputs": [],
					"stateMutability": "nonpayable",
					"type": "function"
				},
				{
					"inputs": [],
					"name": "createBallotContract",
					"outputs": [],
					"stateMutability": "nonpayable",
					"type": "function"
				},
				{
					"inputs": [],
					"name": "getCreatorBallot",
					"outputs": [
						{
							"internalType": "address",
							"name": "",
							"type": "address"
						}
					],
					"stateMutability": "view",
					"type": "function"
				},
				{
					"inputs": [],
					"name": "getEndDate",
					"outputs": [
						{
							"internalType": "uint256",
							"name": "",
							"type": "uint256"
						}
					],
					"stateMutability": "view",
					"type": "function"
				},
				{
					"inputs": [
						{
							"internalType": "uint256",
							"name": "_proposalId",
							"type": "uint256"
						}
					],
					"name": "getProposalStructure",
					"outputs": [
						{
							"components": [
								{
									"internalType": "string",
									"name": "name",
									"type": "string"
								},
								{
									"internalType": "uint256",
									"name": "voteCount",
									"type": "uint256"
								}
							],
							"internalType": "struct Ballot.Proposal",
							"name": "",
							"type": "tuple"
						}
					],
					"stateMutability": "view",
					"type": "function"
				},
				{
					"inputs": [],
					"name": "getProposals",
					"outputs": [
						{
							"components": [
								{
									"internalType": "string",
									"name": "name",
									"type": "string"
								},
								{
									"internalType": "uint256",
									"name": "voteCount",
									"type": "uint256"
								}
							],
							"internalType": "struct Ballot.Proposal[]",
							"name": "",
							"type": "tuple[]"
						}
					],
					"stateMutability": "view",
					"type": "function"
				},
				{
					"inputs": [],
					"name": "getStartDate",
					"outputs": [
						{
							"internalType": "uint256",
							"name": "",
							"type": "uint256"
						}
					],
					"stateMutability": "view",
					"type": "function"
				},
				{
					"inputs": [],
					"name": "getStatus",
					"outputs": [
						{
							"internalType": "uint256",
							"name": "",
							"type": "uint256"
						}
					],
					"stateMutability": "view",
					"type": "function"
				},
				{
					"inputs": [],
					"name": "getnumOfProposals",
					"outputs": [
						{
							"internalType": "uint256",
							"name": "",
							"type": "uint256"
						}
					],
					"stateMutability": "view",
					"type": "function"
				},
				{
					"inputs": [
						{
							"internalType": "address",
							"name": "voter",
							"type": "address"
						}
					],
					"name": "giveRightToVote",
					"outputs": [],
					"stateMutability": "nonpayable",
					"type": "function"
				},
				{
					"inputs": [
						{
							"internalType": "uint256",
							"name": "",
							"type": "uint256"
						}
					],
					"name": "proposals",
					"outputs": [
						{
							"internalType": "string",
							"name": "name",
							"type": "string"
						},
						{
							"internalType": "uint256",
							"name": "voteCount",
							"type": "uint256"
						}
					],
					"stateMutability": "view",
					"type": "function"
				},
				{
					"inputs": [],
					"name": "setEndDate",
					"outputs": [],
					"stateMutability": "nonpayable",
					"type": "function"
				},
				{
					"inputs": [],
					"name": "setStartDate",
					"outputs": [],
					"stateMutability": "nonpayable",
					"type": "function"
				},
				{
					"inputs": [
						{
							"internalType": "uint256",
							"name": "_status",
							"type": "uint256"
						}
					],
					"name": "setStatus",
					"outputs": [],
					"stateMutability": "nonpayable",
					"type": "function"
				},
				{
					"inputs": [
						{
							"internalType": "uint256",
							"name": "proposal",
							"type": "uint256"
						}
					],
					"name": "vote",
					"outputs": [],
					"stateMutability": "nonpayable",
					"type": "function"
				},
				{
					"inputs": [
						{
							"internalType": "address",
							"name": "",
							"type": "address"
						}
					],
					"name": "voters",
					"outputs": [
						{
							"internalType": "uint256",
							"name": "weight",
							"type": "uint256"
						},
						{
							"internalType": "bool",
							"name": "voted",
							"type": "bool"
						},
						{
							"internalType": "address",
							"name": "delegate",
							"type": "address"
						},
						{
							"internalType": "uint256",
							"name": "vote",
							"type": "uint256"
						}
					],
					"stateMutability": "view",
					"type": "function"
				},
				{
					"inputs": [],
					"name": "winnerName",
					"outputs": [
						{
							"internalType": "string",
							"name": "winnerName",
							"type": "string"
						}
					],
					"stateMutability": "view",
					"type": "function"
				},
				{
					"inputs": [],
					"name": "winningProposal",
					"outputs": [
						{
							"internalType": "uint256",
							"name": "winningProposal",
							"type": "uint256"
						}
					],
					"stateMutability": "view",
					"type": "function"
				}
			],
			"devdoc": {
				"kind": "dev",
				"methods": {},
				"version": 1
			},
			"evm": {
				"assembly": "    /* \"contracts/visov_durku.sol\":89:887  contract BallotFactory is Ballot {\r... */\n  mstore(0x40, 0x80)\n  callvalue\n  dup1\n  iszero\n  tag_1\n  jumpi\n  0x00\n  dup1\n  revert\ntag_1:\n  pop\n  dataSize(sub_0)\n  dup1\n  dataOffset(sub_0)\n  0x00\n  codecopy\n  0x00\n  return\nstop\n\nsub_0: assembly {\n        /* \"contracts/visov_durku.sol\":89:887  contract BallotFactory is Ballot {\r... */\n      mstore(0x40, 0x80)\n      callvalue\n      dup1\n      iszero\n      tag_1\n      jumpi\n      0x00\n      dup1\n      revert\n    tag_1:\n      pop\n      jumpi(tag_2, lt(calldatasize, 0x04))\n      shr(0xe0, calldataload(0x00))\n      dup1\n      0x7a16fcb0\n      gt\n      tag_22\n      jumpi\n      dup1\n      0x9e7b8d61\n      gt\n      tag_23\n      jumpi\n      dup1\n      0x9e7b8d61\n      eq\n      tag_17\n      jumpi\n      dup1\n      0xa3ec138d\n      eq\n      tag_18\n      jumpi\n      dup1\n      0xb1356488\n      eq\n      tag_19\n      jumpi\n      dup1\n      0xe2ba53f0\n      eq\n      tag_20\n      jumpi\n      dup1\n      0xe9d6c6da\n      eq\n      tag_21\n      jumpi\n      jump(tag_2)\n    tag_23:\n      dup1\n      0x7a16fcb0\n      eq\n      tag_12\n      jumpi\n      dup1\n      0x7c69710f\n      eq\n      tag_13\n      jumpi\n      dup1\n      0x836bc692\n      eq\n      tag_14\n      jumpi\n      dup1\n      0x86278e77\n      eq\n      tag_15\n      jumpi\n      dup1\n      0x962fafd0\n      eq\n      tag_16\n      jumpi\n      jump(tag_2)\n    tag_22:\n      dup1\n      0x609ff1bd\n      gt\n      tag_24\n      jumpi\n      dup1\n      0x609ff1bd\n      eq\n      tag_7\n      jumpi\n      dup1\n      0x62564c48\n      eq\n      tag_8\n      jumpi\n      dup1\n      0x643cb096\n      eq\n      tag_9\n      jumpi\n      dup1\n      0x69ba1a75\n      eq\n      tag_10\n      jumpi\n      dup1\n      0x78f305c6\n      eq\n      tag_11\n      jumpi\n      jump(tag_2)\n    tag_24:\n      dup1\n      0x0121b93f\n      eq\n      tag_3\n      jumpi\n      dup1\n      0x013cf08b\n      eq\n      tag_4\n      jumpi\n      dup1\n      0x0a82dcb1\n      eq\n      tag_5\n      jumpi\n      dup1\n      0x4e69d560\n      eq\n      tag_6\n      jumpi\n    tag_2:\n      0x00\n      dup1\n      revert\n        /* \"contracts/prop_test.sol\":2296:2685  function vote(uint proposal) public {\r... */\n    tag_3:\n      tag_25\n      0x04\n      dup1\n      calldatasize\n      sub\n      dup2\n      add\n      swap1\n      tag_26\n      swap2\n      swap1\n      tag_27\n      jump\t// in\n    tag_26:\n      tag_28\n      jump\t// in\n    tag_25:\n      stop\n        /* \"contracts/prop_test.sol\":906:933  Proposal[] public proposals */\n    tag_4:\n      tag_29\n      0x04\n      dup1\n      calldatasize\n      sub\n      dup2\n      add\n      swap1\n      tag_30\n      swap2\n      swap1\n      tag_27\n      jump\t// in\n    tag_30:\n      tag_31\n      jump\t// in\n    tag_29:\n      mload(0x40)\n      tag_32\n      swap3\n      swap2\n      swap1\n      tag_33\n      jump\t// in\n    tag_32:\n      mload(0x40)\n      dup1\n      swap2\n      sub\n      swap1\n      return\n        /* \"contracts/prop_test.sol\":3899:3993  function getnumOfProposals() public view returns(uint){\r... */\n    tag_5:\n      tag_34\n      tag_35\n      jump\t// in\n    tag_34:\n      mload(0x40)\n      tag_36\n      swap2\n      swap1\n      tag_37\n      jump\t// in\n    tag_36:\n      mload(0x40)\n      dup1\n      swap2\n      sub\n      swap1\n      return\n        /* \"contracts/prop_test.sol\":3779:3857  function getStatus() public view returns(uint){\r... */\n    tag_6:\n      tag_38\n      tag_39\n      jump\t// in\n    tag_38:\n      mload(0x40)\n      tag_40\n      swap2\n      swap1\n      tag_37\n      jump\t// in\n    tag_40:\n      mload(0x40)\n      dup1\n      swap2\n      sub\n      swap1\n      return\n        /* \"contracts/prop_test.sol\":2693:3047  function winningProposal() public view returns (uint winningProposal){\r... */\n    tag_7:\n      tag_41\n      tag_42\n      jump\t// in\n    tag_41:\n      mload(0x40)\n      tag_43\n      swap2\n      swap1\n      tag_37\n      jump\t// in\n    tag_43:\n      mload(0x40)\n      dup1\n      swap2\n      sub\n      swap1\n      return\n        /* \"contracts/prop_test.sol\":4202:4299  function getProposals() public view returns(Proposal[] memory){\r... */\n    tag_8:\n      tag_44\n      tag_45\n      jump\t// in\n    tag_44:\n      mload(0x40)\n      tag_46\n      swap2\n      swap1\n      tag_47\n      jump\t// in\n    tag_46:\n      mload(0x40)\n      dup1\n      swap2\n      sub\n      swap1\n      return\n        /* \"contracts/visov_durku.sol\":135:162  Ballot[] public ballotArray */\n    tag_9:\n      tag_48\n      0x04\n      dup1\n      calldatasize\n      sub\n      dup2\n      add\n      swap1\n      tag_49\n      swap2\n      swap1\n      tag_27\n      jump\t// in\n    tag_49:\n      tag_50\n      jump\t// in\n    tag_48:\n      mload(0x40)\n      tag_51\n      swap2\n      swap1\n      tag_52\n      jump\t// in\n    tag_51:\n      mload(0x40)\n      dup1\n      swap2\n      sub\n      swap1\n      return\n        /* \"contracts/prop_test.sol\":3662:3736  function setStatus(uint _status) public{\r... */\n    tag_10:\n      tag_53\n      0x04\n      dup1\n      calldatasize\n      sub\n      dup2\n      add\n      swap1\n      tag_54\n      swap2\n      swap1\n      tag_27\n      jump\t// in\n    tag_54:\n      tag_55\n      jump\t// in\n    tag_53:\n      stop\n        /* \"contracts/prop_test.sol\":4461:4545  function getStartDate() public view returns(uint){\r... */\n    tag_11:\n      tag_56\n      tag_57\n      jump\t// in\n    tag_56:\n      mload(0x40)\n      tag_58\n      swap2\n      swap1\n      tag_37\n      jump\t// in\n    tag_58:\n      mload(0x40)\n      dup1\n      swap2\n      sub\n      swap1\n      return\n        /* \"contracts/prop_test.sol\":3526:3619  function getCreatorBallot() public view returns(address){\r... */\n    tag_12:\n      tag_59\n      tag_60\n      jump\t// in\n    tag_59:\n      mload(0x40)\n      tag_61\n      swap2\n      swap1\n      tag_62\n      jump\t// in\n    tag_61:\n      mload(0x40)\n      dup1\n      swap2\n      sub\n      swap1\n      return\n        /* \"contracts/prop_test.sol\":4343:4419  function setStartDate() public{\r... */\n    tag_13:\n      tag_63\n      tag_64\n      jump\t// in\n    tag_63:\n      stop\n        /* \"contracts/prop_test.sol\":942:1669  function createBallot(string[] memory proposalNames) public {\r... */\n    tag_14:\n      tag_65\n      0x04\n      dup1\n      calldatasize\n      sub\n      dup2\n      add\n      swap1\n      tag_66\n      swap2\n      swap1\n      tag_67\n      jump\t// in\n    tag_66:\n      tag_68\n      jump\t// in\n    tag_65:\n      stop\n        /* \"contracts/prop_test.sol\":4587:4659  function setEndDate() public{\r... */\n    tag_15:\n      tag_69\n      tag_70\n      jump\t// in\n    tag_69:\n      stop\n        /* \"contracts/visov_durku.sol\":171:296  function createBallotContract() public {\r... */\n    tag_16:\n      tag_71\n      tag_72\n      jump\t// in\n    tag_71:\n      stop\n        /* \"contracts/prop_test.sol\":1677:2259  function giveRightToVote(address voter) public {\r... */\n    tag_17:\n      tag_73\n      0x04\n      dup1\n      calldatasize\n      sub\n      dup2\n      add\n      swap1\n      tag_74\n      swap2\n      swap1\n      tag_75\n      jump\t// in\n    tag_74:\n      tag_76\n      jump\t// in\n    tag_73:\n      stop\n        /* \"contracts/prop_test.sol\":801:840  mapping(address => Voter) public voters */\n    tag_18:\n      tag_77\n      0x04\n      dup1\n      calldatasize\n      sub\n      dup2\n      add\n      swap1\n      tag_78\n      swap2\n      swap1\n      tag_75\n      jump\t// in\n    tag_78:\n      tag_79\n      jump\t// in\n    tag_77:\n      mload(0x40)\n      tag_80\n      swap5\n      swap4\n      swap3\n      swap2\n      swap1\n      tag_81\n      jump\t// in\n    tag_80:\n      mload(0x40)\n      dup1\n      swap2\n      sub\n      swap1\n      return\n        /* \"contracts/prop_test.sol\":4699:4779  function getEndDate() public view returns(uint){\r... */\n    tag_19:\n      tag_82\n      tag_83\n      jump\t// in\n    tag_82:\n      mload(0x40)\n      tag_84\n      swap2\n      swap1\n      tag_37\n      jump\t// in\n    tag_84:\n      mload(0x40)\n      dup1\n      swap2\n      sub\n      swap1\n      return\n        /* \"contracts/prop_test.sol\":3216:3354  function winnerName() public view returns(string memory winnerName)\r... */\n    tag_20:\n      tag_85\n      tag_86\n      jump\t// in\n    tag_85:\n      mload(0x40)\n      tag_87\n      swap2\n      swap1\n      tag_88\n      jump\t// in\n    tag_87:\n      mload(0x40)\n      dup1\n      swap2\n      sub\n      swap1\n      return\n        /* \"contracts/prop_test.sol\":4035:4167  function getProposalStructure(uint _proposalId) public view returns(Proposal memory){\r... */\n    tag_21:\n      tag_89\n      0x04\n      dup1\n      calldatasize\n      sub\n      dup2\n      add\n      swap1\n      tag_90\n      swap2\n      swap1\n      tag_27\n      jump\t// in\n    tag_90:\n      tag_91\n      jump\t// in\n    tag_89:\n      mload(0x40)\n      tag_92\n      swap2\n      swap1\n      tag_93\n      jump\t// in\n    tag_92:\n      mload(0x40)\n      dup1\n      swap2\n      sub\n      swap1\n      return\n        /* \"contracts/prop_test.sol\":2296:2685  function vote(uint proposal) public {\r... */\n    tag_28:\n        /* \"contracts/prop_test.sol\":2343:2363  Voter storage sender */\n      0x00\n        /* \"contracts/prop_test.sol\":2366:2372  voters */\n      0x05\n        /* \"contracts/prop_test.sol\":2366:2384  voters[msg.sender] */\n      0x00\n        /* \"contracts/prop_test.sol\":2373:2383  msg.sender */\n      caller\n        /* \"contracts/prop_test.sol\":2366:2384  voters[msg.sender] */\n      0xffffffffffffffffffffffffffffffffffffffff\n      and\n      0xffffffffffffffffffffffffffffffffffffffff\n      and\n      dup2\n      mstore\n      0x20\n      add\n      swap1\n      dup2\n      mstore\n      0x20\n      add\n      0x00\n      keccak256\n        /* \"contracts/prop_test.sol\":2343:2384  Voter storage sender = voters[msg.sender] */\n      swap1\n      pop\n        /* \"contracts/prop_test.sol\":2404:2410  sender */\n      dup1\n        /* \"contracts/prop_test.sol\":2404:2416  sender.voted */\n      0x01\n      add\n      0x00\n      swap1\n      sload\n      swap1\n      0x0100\n      exp\n      swap1\n      div\n      0xff\n      and\n        /* \"contracts/prop_test.sol\":2403:2416  !sender.voted */\n      iszero\n        /* \"contracts/prop_test.sol\":2395:2417  require(!sender.voted) */\n      tag_95\n      jumpi\n      0x00\n      dup1\n      revert\n    tag_95:\n        /* \"contracts/prop_test.sol\":2443:2447  true */\n      0x01\n        /* \"contracts/prop_test.sol\":2428:2434  sender */\n      dup2\n        /* \"contracts/prop_test.sol\":2428:2440  sender.voted */\n      0x01\n      add\n      0x00\n        /* \"contracts/prop_test.sol\":2428:2447  sender.voted = true */\n      0x0100\n      exp\n      dup2\n      sload\n      dup2\n      0xff\n      mul\n      not\n      and\n      swap1\n      dup4\n      iszero\n      iszero\n      mul\n      or\n      swap1\n      sstore\n      pop\n        /* \"contracts/prop_test.sol\":2472:2480  proposal */\n      dup2\n        /* \"contracts/prop_test.sol\":2458:2464  sender */\n      dup2\n        /* \"contracts/prop_test.sol\":2458:2469  sender.vote */\n      0x02\n      add\n        /* \"contracts/prop_test.sol\":2458:2480  sender.vote = proposal */\n      dup2\n      swap1\n      sstore\n      pop\n        /* \"contracts/prop_test.sol\":2664:2670  sender */\n      dup1\n        /* \"contracts/prop_test.sol\":2664:2677  sender.weight */\n      0x00\n      add\n      sload\n        /* \"contracts/prop_test.sol\":2631:2640  proposals */\n      0x06\n        /* \"contracts/prop_test.sol\":2641:2649  proposal */\n      dup4\n        /* \"contracts/prop_test.sol\":2631:2650  proposals[proposal] */\n      dup2\n      sload\n      dup2\n      lt\n      tag_96\n      jumpi\n      mstore(0x00, 0x4e487b7100000000000000000000000000000000000000000000000000000000)\n      mstore(0x04, 0x32)\n      revert(0x00, 0x24)\n    tag_96:\n      swap1\n      0x00\n      mstore\n      keccak256(0x00, 0x20)\n      swap1\n      0x02\n      mul\n      add\n        /* \"contracts/prop_test.sol\":2631:2660  proposals[proposal].voteCount */\n      0x01\n      add\n      0x00\n        /* \"contracts/prop_test.sol\":2631:2677  proposals[proposal].voteCount += sender.weight */\n      dup3\n      dup3\n      sload\n      tag_98\n      swap2\n      swap1\n      tag_99\n      jump\t// in\n    tag_98:\n      swap3\n      pop\n      pop\n      dup2\n      swap1\n      sstore\n      pop\n        /* \"contracts/prop_test.sol\":2296:2685  function vote(uint proposal) public {\r... */\n      pop\n      pop\n      jump\t// out\n        /* \"contracts/prop_test.sol\":906:933  Proposal[] public proposals */\n    tag_31:\n      0x06\n      dup2\n      dup2\n      sload\n      dup2\n      lt\n      tag_100\n      jumpi\n      0x00\n      dup1\n      revert\n    tag_100:\n      swap1\n      0x00\n      mstore\n      keccak256(0x00, 0x20)\n      swap1\n      0x02\n      mul\n      add\n      0x00\n      swap2\n      pop\n      swap1\n      pop\n      dup1\n      0x00\n      add\n      dup1\n      sload\n      tag_102\n      swap1\n      tag_103\n      jump\t// in\n    tag_102:\n      dup1\n      0x1f\n      add\n      0x20\n      dup1\n      swap2\n      div\n      mul\n      0x20\n      add\n      mload(0x40)\n      swap1\n      dup2\n      add\n      0x40\n      mstore\n      dup1\n      swap3\n      swap2\n      swap1\n      dup2\n      dup2\n      mstore\n      0x20\n      add\n      dup3\n      dup1\n      sload\n      tag_104\n      swap1\n      tag_103\n      jump\t// in\n    tag_104:\n      dup1\n      iszero\n      tag_105\n      jumpi\n      dup1\n      0x1f\n      lt\n      tag_106\n      jumpi\n      0x0100\n      dup1\n      dup4\n      sload\n      div\n      mul\n      dup4\n      mstore\n      swap2\n      0x20\n      add\n      swap2\n      jump(tag_105)\n    tag_106:\n      dup3\n      add\n      swap2\n      swap1\n      0x00\n      mstore\n      keccak256(0x00, 0x20)\n      swap1\n    tag_107:\n      dup2\n      sload\n      dup2\n      mstore\n      swap1\n      0x01\n      add\n      swap1\n      0x20\n      add\n      dup1\n      dup4\n      gt\n      tag_107\n      jumpi\n      dup3\n      swap1\n      sub\n      0x1f\n      and\n      dup3\n      add\n      swap2\n    tag_105:\n      pop\n      pop\n      pop\n      pop\n      pop\n      swap1\n      dup1\n      0x01\n      add\n      sload\n      swap1\n      pop\n      dup3\n      jump\t// out\n        /* \"contracts/prop_test.sol\":3899:3993  function getnumOfProposals() public view returns(uint){\r... */\n    tag_35:\n        /* \"contracts/prop_test.sol\":3948:3952  uint */\n      0x00\n        /* \"contracts/prop_test.sol\":3971:3985  numOfProposals */\n      sload(0x04)\n        /* \"contracts/prop_test.sol\":3964:3985  return numOfProposals */\n      swap1\n      pop\n        /* \"contracts/prop_test.sol\":3899:3993  function getnumOfProposals() public view returns(uint){\r... */\n      swap1\n      jump\t// out\n        /* \"contracts/prop_test.sol\":3779:3857  function getStatus() public view returns(uint){\r... */\n    tag_39:\n        /* \"contracts/prop_test.sol\":3820:3824  uint */\n      0x00\n        /* \"contracts/prop_test.sol\":3843:3849  status */\n      sload(0x01)\n        /* \"contracts/prop_test.sol\":3836:3849  return status */\n      swap1\n      pop\n        /* \"contracts/prop_test.sol\":3779:3857  function getStatus() public view returns(uint){\r... */\n      swap1\n      jump\t// out\n        /* \"contracts/prop_test.sol\":2693:3047  function winningProposal() public view returns (uint winningProposal){\r... */\n    tag_42:\n        /* \"contracts/prop_test.sol\":2741:2761  uint winningProposal */\n      0x00\n        /* \"contracts/prop_test.sol\":2773:2794  uint winningVoteCount */\n      dup1\n        /* \"contracts/prop_test.sol\":2797:2798  0 */\n      0x00\n        /* \"contracts/prop_test.sol\":2773:2798  uint winningVoteCount = 0 */\n      swap1\n      pop\n        /* \"contracts/prop_test.sol\":2814:2820  uint p */\n      0x00\n        /* \"contracts/prop_test.sol\":2809:3040  for (uint p = 0; p < proposals.length; p++) {\r... */\n    tag_111:\n        /* \"contracts/prop_test.sol\":2830:2839  proposals */\n      0x06\n        /* \"contracts/prop_test.sol\":2830:2846  proposals.length */\n      dup1\n      sload\n      swap1\n      pop\n        /* \"contracts/prop_test.sol\":2826:2827  p */\n      dup2\n        /* \"contracts/prop_test.sol\":2826:2846  p < proposals.length */\n      lt\n        /* \"contracts/prop_test.sol\":2809:3040  for (uint p = 0; p < proposals.length; p++) {\r... */\n      iszero\n      tag_112\n      jumpi\n        /* \"contracts/prop_test.sol\":2897:2913  winningVoteCount */\n      dup2\n        /* \"contracts/prop_test.sol\":2872:2881  proposals */\n      0x06\n        /* \"contracts/prop_test.sol\":2882:2883  p */\n      dup3\n        /* \"contracts/prop_test.sol\":2872:2884  proposals[p] */\n      dup2\n      sload\n      dup2\n      lt\n      tag_114\n      jumpi\n      mstore(0x00, 0x4e487b7100000000000000000000000000000000000000000000000000000000)\n      mstore(0x04, 0x32)\n      revert(0x00, 0x24)\n    tag_114:\n      swap1\n      0x00\n      mstore\n      keccak256(0x00, 0x20)\n      swap1\n      0x02\n      mul\n      add\n        /* \"contracts/prop_test.sol\":2872:2894  proposals[p].voteCount */\n      0x01\n      add\n      sload\n        /* \"contracts/prop_test.sol\":2872:2913  proposals[p].voteCount > winningVoteCount */\n      gt\n        /* \"contracts/prop_test.sol\":2868:3029  if (proposals[p].voteCount > winningVoteCount) {\r... */\n      iszero\n      tag_116\n      jumpi\n        /* \"contracts/prop_test.sol\":2953:2962  proposals */\n      0x06\n        /* \"contracts/prop_test.sol\":2963:2964  p */\n      dup2\n        /* \"contracts/prop_test.sol\":2953:2965  proposals[p] */\n      dup2\n      sload\n      dup2\n      lt\n      tag_117\n      jumpi\n      mstore(0x00, 0x4e487b7100000000000000000000000000000000000000000000000000000000)\n      mstore(0x04, 0x32)\n      revert(0x00, 0x24)\n    tag_117:\n      swap1\n      0x00\n      mstore\n      keccak256(0x00, 0x20)\n      swap1\n      0x02\n      mul\n      add\n        /* \"contracts/prop_test.sol\":2953:2975  proposals[p].voteCount */\n      0x01\n      add\n      sload\n        /* \"contracts/prop_test.sol\":2934:2975  winningVoteCount = proposals[p].voteCount */\n      swap2\n      pop\n        /* \"contracts/prop_test.sol\":3012:3013  p */\n      dup1\n        /* \"contracts/prop_test.sol\":2994:3013  winningProposal = p */\n      swap3\n      pop\n        /* \"contracts/prop_test.sol\":2868:3029  if (proposals[p].voteCount > winningVoteCount) {\r... */\n    tag_116:\n        /* \"contracts/prop_test.sol\":2848:2851  p++ */\n      dup1\n      dup1\n      tag_119\n      swap1\n      tag_120\n      jump\t// in\n    tag_119:\n      swap2\n      pop\n      pop\n        /* \"contracts/prop_test.sol\":2809:3040  for (uint p = 0; p < proposals.length; p++) {\r... */\n      jump(tag_111)\n    tag_112:\n      pop\n        /* \"contracts/prop_test.sol\":2693:3047  function winningProposal() public view returns (uint winningProposal){\r... */\n      pop\n      swap1\n      jump\t// out\n        /* \"contracts/prop_test.sol\":4202:4299  function getProposals() public view returns(Proposal[] memory){\r... */\n    tag_45:\n        /* \"contracts/prop_test.sol\":4246:4263  Proposal[] memory */\n      0x60\n        /* \"contracts/prop_test.sol\":4282:4291  proposals */\n      0x06\n        /* \"contracts/prop_test.sol\":4275:4291  return proposals */\n      dup1\n      sload\n      dup1\n      0x20\n      mul\n      0x20\n      add\n      mload(0x40)\n      swap1\n      dup2\n      add\n      0x40\n      mstore\n      dup1\n      swap3\n      swap2\n      swap1\n      dup2\n      dup2\n      mstore\n      0x20\n      add\n      0x00\n      swap1\n    tag_122:\n      dup3\n      dup3\n      lt\n      iszero\n      tag_123\n      jumpi\n      dup4\n      dup3\n      swap1\n      0x00\n      mstore\n      keccak256(0x00, 0x20)\n      swap1\n      0x02\n      mul\n      add\n      mload(0x40)\n      dup1\n      0x40\n      add\n      0x40\n      mstore\n      swap1\n      dup2\n      0x00\n      dup3\n      add\n      dup1\n      sload\n      tag_125\n      swap1\n      tag_103\n      jump\t// in\n    tag_125:\n      dup1\n      0x1f\n      add\n      0x20\n      dup1\n      swap2\n      div\n      mul\n      0x20\n      add\n      mload(0x40)\n      swap1\n      dup2\n      add\n      0x40\n      mstore\n      dup1\n      swap3\n      swap2\n      swap1\n      dup2\n      dup2\n      mstore\n      0x20\n      add\n      dup3\n      dup1\n      sload\n      tag_126\n      swap1\n      tag_103\n      jump\t// in\n    tag_126:\n      dup1\n      iszero\n      tag_127\n      jumpi\n      dup1\n      0x1f\n      lt\n      tag_128\n      jumpi\n      0x0100\n      dup1\n      dup4\n      sload\n      div\n      mul\n      dup4\n      mstore\n      swap2\n      0x20\n      add\n      swap2\n      jump(tag_127)\n    tag_128:\n      dup3\n      add\n      swap2\n      swap1\n      0x00\n      mstore\n      keccak256(0x00, 0x20)\n      swap1\n    tag_129:\n      dup2\n      sload\n      dup2\n      mstore\n      swap1\n      0x01\n      add\n      swap1\n      0x20\n      add\n      dup1\n      dup4\n      gt\n      tag_129\n      jumpi\n      dup3\n      swap1\n      sub\n      0x1f\n      and\n      dup3\n      add\n      swap2\n    tag_127:\n      pop\n      pop\n      pop\n      pop\n      pop\n      dup2\n      mstore\n      0x20\n      add\n      0x01\n      dup3\n      add\n      sload\n      dup2\n      mstore\n      pop\n      pop\n      dup2\n      mstore\n      0x20\n      add\n      swap1\n      0x01\n      add\n      swap1\n      jump(tag_122)\n    tag_123:\n      pop\n      pop\n      pop\n      pop\n      swap1\n      pop\n        /* \"contracts/prop_test.sol\":4202:4299  function getProposals() public view returns(Proposal[] memory){\r... */\n      swap1\n      jump\t// out\n        /* \"contracts/visov_durku.sol\":135:162  Ballot[] public ballotArray */\n    tag_50:\n      0x07\n      dup2\n      dup2\n      sload\n      dup2\n      lt\n      tag_130\n      jumpi\n      0x00\n      dup1\n      revert\n    tag_130:\n      swap1\n      0x00\n      mstore\n      keccak256(0x00, 0x20)\n      add\n      0x00\n      swap2\n      pop\n      sload\n      swap1\n      0x0100\n      exp\n      swap1\n      div\n      0xffffffffffffffffffffffffffffffffffffffff\n      and\n      dup2\n      jump\t// out\n        /* \"contracts/prop_test.sol\":3662:3736  function setStatus(uint _status) public{\r... */\n    tag_55:\n        /* \"contracts/prop_test.sol\":3721:3728  _status */\n      dup1\n        /* \"contracts/prop_test.sol\":3712:3718  status */\n      0x01\n        /* \"contracts/prop_test.sol\":3712:3728  status = _status */\n      dup2\n      swap1\n      sstore\n      pop\n        /* \"contracts/prop_test.sol\":3662:3736  function setStatus(uint _status) public{\r... */\n      pop\n      jump\t// out\n        /* \"contracts/prop_test.sol\":4461:4545  function getStartDate() public view returns(uint){\r... */\n    tag_57:\n        /* \"contracts/prop_test.sol\":4505:4509  uint */\n      0x00\n        /* \"contracts/prop_test.sol\":4528:4537  startDate */\n      sload(0x02)\n        /* \"contracts/prop_test.sol\":4521:4537  return startDate */\n      swap1\n      pop\n        /* \"contracts/prop_test.sol\":4461:4545  function getStartDate() public view returns(uint){\r... */\n      swap1\n      jump\t// out\n        /* \"contracts/prop_test.sol\":3526:3619  function getCreatorBallot() public view returns(address){\r... */\n    tag_60:\n        /* \"contracts/prop_test.sol\":3574:3581  address */\n      0x00\n        /* \"contracts/prop_test.sol\":3600:3611  chairperson */\n      dup1\n      0x00\n      swap1\n      sload\n      swap1\n      0x0100\n      exp\n      swap1\n      div\n      0xffffffffffffffffffffffffffffffffffffffff\n      and\n        /* \"contracts/prop_test.sol\":3593:3611  return chairperson */\n      swap1\n      pop\n        /* \"contracts/prop_test.sol\":3526:3619  function getCreatorBallot() public view returns(address){\r... */\n      swap1\n      jump\t// out\n        /* \"contracts/prop_test.sol\":4343:4419  function setStartDate() public{\r... */\n    tag_64:\n        /* \"contracts/prop_test.sol\":4396:4411  block.timestamp */\n      timestamp\n        /* \"contracts/prop_test.sol\":4384:4393  startDate */\n      0x02\n        /* \"contracts/prop_test.sol\":4384:4411  startDate = block.timestamp */\n      dup2\n      swap1\n      sstore\n      pop\n        /* \"contracts/prop_test.sol\":4343:4419  function setStartDate() public{\r... */\n      jump\t// out\n        /* \"contracts/prop_test.sol\":942:1669  function createBallot(string[] memory proposalNames) public {\r... */\n    tag_68:\n        /* \"contracts/prop_test.sol\":1027:1037  msg.sender */\n      caller\n        /* \"contracts/prop_test.sol\":1013:1024  chairperson */\n      0x00\n      dup1\n        /* \"contracts/prop_test.sol\":1013:1037  chairperson = msg.sender */\n      0x0100\n      exp\n      dup2\n      sload\n      dup2\n      0xffffffffffffffffffffffffffffffffffffffff\n      mul\n      not\n      and\n      swap1\n      dup4\n      0xffffffffffffffffffffffffffffffffffffffff\n      and\n      mul\n      or\n      swap1\n      sstore\n      pop\n        /* \"contracts/prop_test.sol\":1077:1078  1 */\n      0x01\n        /* \"contracts/prop_test.sol\":1048:1054  voters */\n      0x05\n        /* \"contracts/prop_test.sol\":1048:1067  voters[chairperson] */\n      0x00\n        /* \"contracts/prop_test.sol\":1055:1066  chairperson */\n      dup1\n      0x00\n      swap1\n      sload\n      swap1\n      0x0100\n      exp\n      swap1\n      div\n      0xffffffffffffffffffffffffffffffffffffffff\n      and\n        /* \"contracts/prop_test.sol\":1048:1067  voters[chairperson] */\n      0xffffffffffffffffffffffffffffffffffffffff\n      and\n      0xffffffffffffffffffffffffffffffffffffffff\n      and\n      dup2\n      mstore\n      0x20\n      add\n      swap1\n      dup2\n      mstore\n      0x20\n      add\n      0x00\n      keccak256\n        /* \"contracts/prop_test.sol\":1048:1074  voters[chairperson].weight */\n      0x00\n      add\n        /* \"contracts/prop_test.sol\":1048:1078  voters[chairperson].weight = 1 */\n      dup2\n      swap1\n      sstore\n      pop\n        /* \"contracts/prop_test.sol\":1091:1105  setStartDate() */\n      tag_137\n        /* \"contracts/prop_test.sol\":1091:1103  setStartDate */\n      tag_64\n        /* \"contracts/prop_test.sol\":1091:1105  setStartDate() */\n      jump\t// in\n    tag_137:\n        /* \"contracts/prop_test.sol\":1133:1146  proposalNames */\n      dup1\n        /* \"contracts/prop_test.sol\":1133:1153  proposalNames.length */\n      mload\n        /* \"contracts/prop_test.sol\":1116:1130  numOfProposals */\n      0x04\n        /* \"contracts/prop_test.sol\":1116:1153  numOfProposals = proposalNames.length */\n      dup2\n      swap1\n      sstore\n      pop\n        /* \"contracts/prop_test.sol\":1313:1319  uint i */\n      0x00\n        /* \"contracts/prop_test.sol\":1308:1662  for (uint i = 0; i < proposalNames.length; i++) {\r... */\n    tag_138:\n        /* \"contracts/prop_test.sol\":1329:1342  proposalNames */\n      dup2\n        /* \"contracts/prop_test.sol\":1329:1349  proposalNames.length */\n      mload\n        /* \"contracts/prop_test.sol\":1325:1326  i */\n      dup2\n        /* \"contracts/prop_test.sol\":1325:1349  i < proposalNames.length */\n      lt\n        /* \"contracts/prop_test.sol\":1308:1662  for (uint i = 0; i < proposalNames.length; i++) {\r... */\n      iszero\n      tag_139\n      jumpi\n        /* \"contracts/prop_test.sol\":1537:1546  proposals */\n      0x06\n        /* \"contracts/prop_test.sol\":1552:1649  Proposal({\r... */\n      mload(0x40)\n      dup1\n      0x40\n      add\n      0x40\n      mstore\n      dup1\n        /* \"contracts/prop_test.sol\":1586:1599  proposalNames */\n      dup5\n        /* \"contracts/prop_test.sol\":1600:1601  i */\n      dup5\n        /* \"contracts/prop_test.sol\":1586:1602  proposalNames[i] */\n      dup2\n      mload\n      dup2\n      lt\n      tag_141\n      jumpi\n      mstore(0x00, 0x4e487b7100000000000000000000000000000000000000000000000000000000)\n      mstore(0x04, 0x32)\n      revert(0x00, 0x24)\n    tag_141:\n      0x20\n      mul\n      0x20\n      add\n      add\n      mload\n        /* \"contracts/prop_test.sol\":1552:1649  Proposal({\r... */\n      dup2\n      mstore\n      0x20\n      add\n        /* \"contracts/prop_test.sol\":1632:1633  0 */\n      0x00\n        /* \"contracts/prop_test.sol\":1552:1649  Proposal({\r... */\n      dup2\n      mstore\n      pop\n        /* \"contracts/prop_test.sol\":1537:1650  proposals.push(Proposal({\r... */\n      swap1\n      dup1\n      0x01\n      dup2\n      sload\n      add\n      dup1\n      dup3\n      sstore\n      dup1\n      swap2\n      pop\n      pop\n      0x01\n      swap1\n      sub\n      swap1\n      0x00\n      mstore\n      keccak256(0x00, 0x20)\n      swap1\n      0x02\n      mul\n      add\n      0x00\n      swap1\n      swap2\n      swap1\n      swap2\n      swap1\n      swap2\n      pop\n      0x00\n      dup3\n      add\n      mload\n      dup2\n      0x00\n      add\n      swap1\n      dup1\n      mload\n      swap1\n      0x20\n      add\n      swap1\n      tag_143\n      swap3\n      swap2\n      swap1\n      tag_144\n      jump\t// in\n    tag_143:\n      pop\n      0x20\n      dup3\n      add\n      mload\n      dup2\n      0x01\n      add\n      sstore\n      pop\n      pop\n        /* \"contracts/prop_test.sol\":1351:1354  i++ */\n      dup1\n      dup1\n      tag_145\n      swap1\n      tag_120\n      jump\t// in\n    tag_145:\n      swap2\n      pop\n      pop\n        /* \"contracts/prop_test.sol\":1308:1662  for (uint i = 0; i < proposalNames.length; i++) {\r... */\n      jump(tag_138)\n    tag_139:\n      pop\n        /* \"contracts/prop_test.sol\":942:1669  function createBallot(string[] memory proposalNames) public {\r... */\n      pop\n      jump\t// out\n        /* \"contracts/prop_test.sol\":4587:4659  function setEndDate() public{\r... */\n    tag_70:\n        /* \"contracts/prop_test.sol\":4636:4651  block.timestamp */\n      timestamp\n        /* \"contracts/prop_test.sol\":4626:4633  endDate */\n      0x03\n        /* \"contracts/prop_test.sol\":4626:4651  endDate = block.timestamp */\n      dup2\n      swap1\n      sstore\n      pop\n        /* \"contracts/prop_test.sol\":4587:4659  function setEndDate() public{\r... */\n      jump\t// out\n        /* \"contracts/visov_durku.sol\":171:296  function createBallotContract() public {\r... */\n    tag_72:\n        /* \"contracts/visov_durku.sol\":221:234  Ballot ballot */\n      0x00\n        /* \"contracts/visov_durku.sol\":237:249  new Ballot() */\n      mload(0x40)\n      tag_148\n      swap1\n      tag_149\n      jump\t// in\n    tag_148:\n      mload(0x40)\n      dup1\n      swap2\n      sub\n      swap1\n      0x00\n      create\n      dup1\n      iszero\n      dup1\n      iszero\n      tag_150\n      jumpi\n      returndatasize\n      0x00\n      dup1\n      returndatacopy\n      revert(0x00, returndatasize)\n    tag_150:\n      pop\n        /* \"contracts/visov_durku.sol\":221:249  Ballot ballot = new Ballot() */\n      swap1\n      pop\n        /* \"contracts/visov_durku.sol\":260:271  ballotArray */\n      0x07\n        /* \"contracts/visov_durku.sol\":277:283  ballot */\n      dup2\n        /* \"contracts/visov_durku.sol\":260:284  ballotArray.push(ballot) */\n      swap1\n      dup1\n      0x01\n      dup2\n      sload\n      add\n      dup1\n      dup3\n      sstore\n      dup1\n      swap2\n      pop\n      pop\n      0x01\n      swap1\n      sub\n      swap1\n      0x00\n      mstore\n      keccak256(0x00, 0x20)\n      add\n      0x00\n      swap1\n      swap2\n      swap1\n      swap2\n      swap1\n      swap2\n      0x0100\n      exp\n      dup2\n      sload\n      dup2\n      0xffffffffffffffffffffffffffffffffffffffff\n      mul\n      not\n      and\n      swap1\n      dup4\n      0xffffffffffffffffffffffffffffffffffffffff\n      and\n      mul\n      or\n      swap1\n      sstore\n      pop\n        /* \"contracts/visov_durku.sol\":171:296  function createBallotContract() public {\r... */\n      pop\n      jump\t// out\n        /* \"contracts/prop_test.sol\":1677:2259  function giveRightToVote(address voter) public {\r... */\n    tag_76:\n        /* \"contracts/prop_test.sol\":2148:2159  chairperson */\n      0x00\n      dup1\n      sload\n      swap1\n      0x0100\n      exp\n      swap1\n      div\n      0xffffffffffffffffffffffffffffffffffffffff\n      and\n        /* \"contracts/prop_test.sol\":2134:2159  msg.sender == chairperson */\n      0xffffffffffffffffffffffffffffffffffffffff\n      and\n        /* \"contracts/prop_test.sol\":2134:2144  msg.sender */\n      caller\n        /* \"contracts/prop_test.sol\":2134:2159  msg.sender == chairperson */\n      0xffffffffffffffffffffffffffffffffffffffff\n      and\n      eq\n        /* \"contracts/prop_test.sol\":2133:2184  (msg.sender == chairperson) && !voters[voter].voted */\n      dup1\n      iszero\n      tag_153\n      jumpi\n      pop\n        /* \"contracts/prop_test.sol\":2165:2171  voters */\n      0x05\n        /* \"contracts/prop_test.sol\":2165:2178  voters[voter] */\n      0x00\n        /* \"contracts/prop_test.sol\":2172:2177  voter */\n      dup3\n        /* \"contracts/prop_test.sol\":2165:2178  voters[voter] */\n      0xffffffffffffffffffffffffffffffffffffffff\n      and\n      0xffffffffffffffffffffffffffffffffffffffff\n      and\n      dup2\n      mstore\n      0x20\n      add\n      swap1\n      dup2\n      mstore\n      0x20\n      add\n      0x00\n      keccak256\n        /* \"contracts/prop_test.sol\":2165:2184  voters[voter].voted */\n      0x01\n      add\n      0x00\n      swap1\n      sload\n      swap1\n      0x0100\n      exp\n      swap1\n      div\n      0xff\n      and\n        /* \"contracts/prop_test.sol\":2164:2184  !voters[voter].voted */\n      iszero\n        /* \"contracts/prop_test.sol\":2133:2184  (msg.sender == chairperson) && !voters[voter].voted */\n    tag_153:\n        /* \"contracts/prop_test.sol\":2133:2215  (msg.sender == chairperson) && !voters[voter].voted && (voters[voter].weight == 0) */\n      dup1\n      iszero\n      tag_154\n      jumpi\n      pop\n        /* \"contracts/prop_test.sol\":2213:2214  0 */\n      0x00\n        /* \"contracts/prop_test.sol\":2189:2195  voters */\n      0x05\n        /* \"contracts/prop_test.sol\":2189:2202  voters[voter] */\n      0x00\n        /* \"contracts/prop_test.sol\":2196:2201  voter */\n      dup4\n        /* \"contracts/prop_test.sol\":2189:2202  voters[voter] */\n      0xffffffffffffffffffffffffffffffffffffffff\n      and\n      0xffffffffffffffffffffffffffffffffffffffff\n      and\n      dup2\n      mstore\n      0x20\n      add\n      swap1\n      dup2\n      mstore\n      0x20\n      add\n      0x00\n      keccak256\n        /* \"contracts/prop_test.sol\":2189:2209  voters[voter].weight */\n      0x00\n      add\n      sload\n        /* \"contracts/prop_test.sol\":2189:2214  voters[voter].weight == 0 */\n      eq\n        /* \"contracts/prop_test.sol\":2133:2215  (msg.sender == chairperson) && !voters[voter].voted && (voters[voter].weight == 0) */\n    tag_154:\n        /* \"contracts/prop_test.sol\":2125:2216  require((msg.sender == chairperson) && !voters[voter].voted && (voters[voter].weight == 0)) */\n      tag_155\n      jumpi\n      0x00\n      dup1\n      revert\n    tag_155:\n        /* \"contracts/prop_test.sol\":2250:2251  1 */\n      0x01\n        /* \"contracts/prop_test.sol\":2227:2233  voters */\n      0x05\n        /* \"contracts/prop_test.sol\":2227:2240  voters[voter] */\n      0x00\n        /* \"contracts/prop_test.sol\":2234:2239  voter */\n      dup4\n        /* \"contracts/prop_test.sol\":2227:2240  voters[voter] */\n      0xffffffffffffffffffffffffffffffffffffffff\n      and\n      0xffffffffffffffffffffffffffffffffffffffff\n      and\n      dup2\n      mstore\n      0x20\n      add\n      swap1\n      dup2\n      mstore\n      0x20\n      add\n      0x00\n      keccak256\n        /* \"contracts/prop_test.sol\":2227:2247  voters[voter].weight */\n      0x00\n      add\n        /* \"contracts/prop_test.sol\":2227:2251  voters[voter].weight = 1 */\n      dup2\n      swap1\n      sstore\n      pop\n        /* \"contracts/prop_test.sol\":1677:2259  function giveRightToVote(address voter) public {\r... */\n      pop\n      jump\t// out\n        /* \"contracts/prop_test.sol\":801:840  mapping(address => Voter) public voters */\n    tag_79:\n      mstore(0x20, 0x05)\n      dup1\n      0x00\n      mstore\n      keccak256(0x00, 0x40)\n      0x00\n      swap2\n      pop\n      swap1\n      pop\n      dup1\n      0x00\n      add\n      sload\n      swap1\n      dup1\n      0x01\n      add\n      0x00\n      swap1\n      sload\n      swap1\n      0x0100\n      exp\n      swap1\n      div\n      0xff\n      and\n      swap1\n      dup1\n      0x01\n      add\n      0x01\n      swap1\n      sload\n      swap1\n      0x0100\n      exp\n      swap1\n      div\n      0xffffffffffffffffffffffffffffffffffffffff\n      and\n      swap1\n      dup1\n      0x02\n      add\n      sload\n      swap1\n      pop\n      dup5\n      jump\t// out\n        /* \"contracts/prop_test.sol\":4699:4779  function getEndDate() public view returns(uint){\r... */\n    tag_83:\n        /* \"contracts/prop_test.sol\":4741:4745  uint */\n      0x00\n        /* \"contracts/prop_test.sol\":4764:4771  endDate */\n      sload(0x03)\n        /* \"contracts/prop_test.sol\":4757:4771  return endDate */\n      swap1\n      pop\n        /* \"contracts/prop_test.sol\":4699:4779  function getEndDate() public view returns(uint){\r... */\n      swap1\n      jump\t// out\n        /* \"contracts/prop_test.sol\":3216:3354  function winnerName() public view returns(string memory winnerName)\r... */\n    tag_86:\n        /* \"contracts/prop_test.sol\":3258:3282  string memory winnerName */\n      0x60\n        /* \"contracts/prop_test.sol\":3313:3322  proposals */\n      0x06\n        /* \"contracts/prop_test.sol\":3323:3340  winningProposal() */\n      tag_158\n        /* \"contracts/prop_test.sol\":3323:3338  winningProposal */\n      tag_42\n        /* \"contracts/prop_test.sol\":3323:3340  winningProposal() */\n      jump\t// in\n    tag_158:\n        /* \"contracts/prop_test.sol\":3313:3341  proposals[winningProposal()] */\n      dup2\n      sload\n      dup2\n      lt\n      tag_159\n      jumpi\n      mstore(0x00, 0x4e487b7100000000000000000000000000000000000000000000000000000000)\n      mstore(0x04, 0x32)\n      revert(0x00, 0x24)\n    tag_159:\n      swap1\n      0x00\n      mstore\n      keccak256(0x00, 0x20)\n      swap1\n      0x02\n      mul\n      add\n        /* \"contracts/prop_test.sol\":3313:3346  proposals[winningProposal()].name */\n      0x00\n      add\n        /* \"contracts/prop_test.sol\":3300:3346  winnerName = proposals[winningProposal()].name */\n      dup1\n      sload\n      tag_161\n      swap1\n      tag_103\n      jump\t// in\n    tag_161:\n      dup1\n      0x1f\n      add\n      0x20\n      dup1\n      swap2\n      div\n      mul\n      0x20\n      add\n      mload(0x40)\n      swap1\n      dup2\n      add\n      0x40\n      mstore\n      dup1\n      swap3\n      swap2\n      swap1\n      dup2\n      dup2\n      mstore\n      0x20\n      add\n      dup3\n      dup1\n      sload\n      tag_162\n      swap1\n      tag_103\n      jump\t// in\n    tag_162:\n      dup1\n      iszero\n      tag_163\n      jumpi\n      dup1\n      0x1f\n      lt\n      tag_164\n      jumpi\n      0x0100\n      dup1\n      dup4\n      sload\n      div\n      mul\n      dup4\n      mstore\n      swap2\n      0x20\n      add\n      swap2\n      jump(tag_163)\n    tag_164:\n      dup3\n      add\n      swap2\n      swap1\n      0x00\n      mstore\n      keccak256(0x00, 0x20)\n      swap1\n    tag_165:\n      dup2\n      sload\n      dup2\n      mstore\n      swap1\n      0x01\n      add\n      swap1\n      0x20\n      add\n      dup1\n      dup4\n      gt\n      tag_165\n      jumpi\n      dup3\n      swap1\n      sub\n      0x1f\n      and\n      dup3\n      add\n      swap2\n    tag_163:\n      pop\n      pop\n      pop\n      pop\n      pop\n      swap1\n      pop\n        /* \"contracts/prop_test.sol\":3216:3354  function winnerName() public view returns(string memory winnerName)\r... */\n      swap1\n      jump\t// out\n        /* \"contracts/prop_test.sol\":4035:4167  function getProposalStructure(uint _proposalId) public view returns(Proposal memory){\r... */\n    tag_91:\n        /* \"contracts/prop_test.sol\":4103:4118  Proposal memory */\n      tag_166\n      tag_167\n      jump\t// in\n    tag_166:\n        /* \"contracts/prop_test.sol\":4137:4146  proposals */\n      0x06\n        /* \"contracts/prop_test.sol\":4147:4158  _proposalId */\n      dup3\n        /* \"contracts/prop_test.sol\":4137:4159  proposals[_proposalId] */\n      dup2\n      sload\n      dup2\n      lt\n      tag_169\n      jumpi\n      mstore(0x00, 0x4e487b7100000000000000000000000000000000000000000000000000000000)\n      mstore(0x04, 0x32)\n      revert(0x00, 0x24)\n    tag_169:\n      swap1\n      0x00\n      mstore\n      keccak256(0x00, 0x20)\n      swap1\n      0x02\n      mul\n      add\n        /* \"contracts/prop_test.sol\":4130:4159  return proposals[_proposalId] */\n      mload(0x40)\n      dup1\n      0x40\n      add\n      0x40\n      mstore\n      swap1\n      dup2\n      0x00\n      dup3\n      add\n      dup1\n      sload\n      tag_171\n      swap1\n      tag_103\n      jump\t// in\n    tag_171:\n      dup1\n      0x1f\n      add\n      0x20\n      dup1\n      swap2\n      div\n      mul\n      0x20\n      add\n      mload(0x40)\n      swap1\n      dup2\n      add\n      0x40\n      mstore\n      dup1\n      swap3\n      swap2\n      swap1\n      dup2\n      dup2\n      mstore\n      0x20\n      add\n      dup3\n      dup1\n      sload\n      tag_172\n      swap1\n      tag_103\n      jump\t// in\n    tag_172:\n      dup1\n      iszero\n      tag_173\n      jumpi\n      dup1\n      0x1f\n      lt\n      tag_174\n      jumpi\n      0x0100\n      dup1\n      dup4\n      sload\n      div\n      mul\n      dup4\n      mstore\n      swap2\n      0x20\n      add\n      swap2\n      jump(tag_173)\n    tag_174:\n      dup3\n      add\n      swap2\n      swap1\n      0x00\n      mstore\n      keccak256(0x00, 0x20)\n      swap1\n    tag_175:\n      dup2\n      sload\n      dup2\n      mstore\n      swap1\n      0x01\n      add\n      swap1\n      0x20\n      add\n      dup1\n      dup4\n      gt\n      tag_175\n      jumpi\n      dup3\n      swap1\n      sub\n      0x1f\n      and\n      dup3\n      add\n      swap2\n    tag_173:\n      pop\n      pop\n      pop\n      pop\n      pop\n      dup2\n      mstore\n      0x20\n      add\n      0x01\n      dup3\n      add\n      sload\n      dup2\n      mstore\n      pop\n      pop\n      swap1\n      pop\n        /* \"contracts/prop_test.sol\":4035:4167  function getProposalStructure(uint _proposalId) public view returns(Proposal memory){\r... */\n      swap2\n      swap1\n      pop\n      jump\t// out\n    tag_144:\n      dup3\n      dup1\n      sload\n      tag_176\n      swap1\n      tag_103\n      jump\t// in\n    tag_176:\n      swap1\n      0x00\n      mstore\n      keccak256(0x00, 0x20)\n      swap1\n      0x1f\n      add\n      0x20\n      swap1\n      div\n      dup2\n      add\n      swap3\n      dup3\n      tag_178\n      jumpi\n      0x00\n      dup6\n      sstore\n      jump(tag_177)\n    tag_178:\n      dup3\n      0x1f\n      lt\n      tag_179\n      jumpi\n      dup1\n      mload\n      not(0xff)\n      and\n      dup4\n      dup1\n      add\n      or\n      dup6\n      sstore\n      jump(tag_177)\n    tag_179:\n      dup3\n      dup1\n      add\n      0x01\n      add\n      dup6\n      sstore\n      dup3\n      iszero\n      tag_177\n      jumpi\n      swap2\n      dup3\n      add\n    tag_180:\n      dup3\n      dup2\n      gt\n      iszero\n      tag_181\n      jumpi\n      dup3\n      mload\n      dup3\n      sstore\n      swap2\n      0x20\n      add\n      swap2\n      swap1\n      0x01\n      add\n      swap1\n      jump(tag_180)\n    tag_181:\n    tag_177:\n      pop\n      swap1\n      pop\n      tag_182\n      swap2\n      swap1\n      tag_183\n      jump\t// in\n    tag_182:\n      pop\n      swap1\n      jump\t// out\n    tag_149:\n      dataSize(sub_0)\n      dup1\n      dataOffset(sub_0)\n      dup4\n      codecopy\n      add\n      swap1\n      jump\t// out\n    tag_167:\n      mload(0x40)\n      dup1\n      0x40\n      add\n      0x40\n      mstore\n      dup1\n      0x60\n      dup2\n      mstore\n      0x20\n      add\n      0x00\n      dup2\n      mstore\n      pop\n      swap1\n      jump\t// out\n    tag_183:\n    tag_184:\n      dup1\n      dup3\n      gt\n      iszero\n      tag_185\n      jumpi\n      0x00\n      dup2\n      0x00\n      swap1\n      sstore\n      pop\n      0x01\n      add\n      jump(tag_184)\n    tag_185:\n      pop\n      swap1\n      jump\t// out\n        /* \"#utility.yul\":23:638   */\n    tag_187:\n      0x00\n        /* \"#utility.yul\":154:244   */\n      tag_189\n        /* \"#utility.yul\":169:243   */\n      tag_190\n        /* \"#utility.yul\":236:242   */\n      dup5\n        /* \"#utility.yul\":169:243   */\n      tag_191\n      jump\t// in\n    tag_190:\n        /* \"#utility.yul\":154:244   */\n      tag_192\n      jump\t// in\n    tag_189:\n        /* \"#utility.yul\":145:244   */\n      swap1\n      pop\n        /* \"#utility.yul\":264:269   */\n      dup1\n        /* \"#utility.yul\":292:298   */\n      dup4\n        /* \"#utility.yul\":285:290   */\n      dup3\n        /* \"#utility.yul\":278:299   */\n      mstore\n        /* \"#utility.yul\":318:322   */\n      0x20\n        /* \"#utility.yul\":311:316   */\n      dup3\n        /* \"#utility.yul\":307:323   */\n      add\n        /* \"#utility.yul\":300:323   */\n      swap1\n      pop\n        /* \"#utility.yul\":343:349   */\n      dup3\n        /* \"#utility.yul\":374:375   */\n      0x00\n        /* \"#utility.yul\":359:632   */\n    tag_193:\n        /* \"#utility.yul\":384:390   */\n      dup6\n        /* \"#utility.yul\":381:382   */\n      dup2\n        /* \"#utility.yul\":378:391   */\n      lt\n        /* \"#utility.yul\":359:632   */\n      iszero\n      tag_195\n      jumpi\n        /* \"#utility.yul\":476:479   */\n      dup2\n        /* \"#utility.yul\":463:480   */\n      calldataload\n        /* \"#utility.yul\":455:461   */\n      dup6\n        /* \"#utility.yul\":451:481   */\n      add\n        /* \"#utility.yul\":506:553   */\n      tag_196\n        /* \"#utility.yul\":549:552   */\n      dup9\n        /* \"#utility.yul\":537:547   */\n      dup3\n        /* \"#utility.yul\":506:553   */\n      tag_197\n      jump\t// in\n    tag_196:\n        /* \"#utility.yul\":501:504   */\n      dup5\n        /* \"#utility.yul\":494:554   */\n      mstore\n        /* \"#utility.yul\":583:587   */\n      0x20\n        /* \"#utility.yul\":578:581   */\n      dup5\n        /* \"#utility.yul\":574:588   */\n      add\n        /* \"#utility.yul\":567:588   */\n      swap4\n      pop\n        /* \"#utility.yul\":617:621   */\n      0x20\n        /* \"#utility.yul\":612:615   */\n      dup4\n        /* \"#utility.yul\":608:622   */\n      add\n        /* \"#utility.yul\":601:622   */\n      swap3\n      pop\n        /* \"#utility.yul\":419:632   */\n      pop\n        /* \"#utility.yul\":406:407   */\n      0x01\n        /* \"#utility.yul\":403:404   */\n      dup2\n        /* \"#utility.yul\":399:408   */\n      add\n        /* \"#utility.yul\":394:408   */\n      swap1\n      pop\n        /* \"#utility.yul\":359:632   */\n      jump(tag_193)\n    tag_195:\n        /* \"#utility.yul\":363:377   */\n      pop\n        /* \"#utility.yul\":135:638   */\n      pop\n      pop\n      swap4\n      swap3\n      pop\n      pop\n      pop\n      jump\t// out\n        /* \"#utility.yul\":644:988   */\n    tag_198:\n      0x00\n        /* \"#utility.yul\":747:812   */\n      tag_200\n        /* \"#utility.yul\":762:811   */\n      tag_201\n        /* \"#utility.yul\":804:810   */\n      dup5\n        /* \"#utility.yul\":762:811   */\n      tag_202\n      jump\t// in\n    tag_201:\n        /* \"#utility.yul\":747:812   */\n      tag_192\n      jump\t// in\n    tag_200:\n        /* \"#utility.yul\":738:812   */\n      swap1\n      pop\n        /* \"#utility.yul\":835:841   */\n      dup3\n        /* \"#utility.yul\":828:833   */\n      dup2\n        /* \"#utility.yul\":821:842   */\n      mstore\n        /* \"#utility.yul\":873:877   */\n      0x20\n        /* \"#utility.yul\":866:871   */\n      dup2\n        /* \"#utility.yul\":862:878   */\n      add\n        /* \"#utility.yul\":911:914   */\n      dup5\n        /* \"#utility.yul\":902:908   */\n      dup5\n        /* \"#utility.yul\":897:900   */\n      dup5\n        /* \"#utility.yul\":893:909   */\n      add\n        /* \"#utility.yul\":890:915   */\n      gt\n        /* \"#utility.yul\":887:889   */\n      iszero\n      tag_203\n      jumpi\n        /* \"#utility.yul\":928:929   */\n      0x00\n        /* \"#utility.yul\":925:926   */\n      dup1\n        /* \"#utility.yul\":918:930   */\n      revert\n        /* \"#utility.yul\":887:889   */\n    tag_203:\n        /* \"#utility.yul\":941:982   */\n      tag_204\n        /* \"#utility.yul\":975:981   */\n      dup5\n        /* \"#utility.yul\":970:973   */\n      dup3\n        /* \"#utility.yul\":965:968   */\n      dup6\n        /* \"#utility.yul\":941:982   */\n      tag_205\n      jump\t// in\n    tag_204:\n        /* \"#utility.yul\":728:988   */\n      pop\n      swap4\n      swap3\n      pop\n      pop\n      pop\n      jump\t// out\n        /* \"#utility.yul\":994:1133   */\n    tag_206:\n      0x00\n        /* \"#utility.yul\":1078:1084   */\n      dup2\n        /* \"#utility.yul\":1065:1085   */\n      calldataload\n        /* \"#utility.yul\":1056:1085   */\n      swap1\n      pop\n        /* \"#utility.yul\":1094:1127   */\n      tag_208\n        /* \"#utility.yul\":1121:1126   */\n      dup2\n        /* \"#utility.yul\":1094:1127   */\n      tag_209\n      jump\t// in\n    tag_208:\n        /* \"#utility.yul\":1046:1133   */\n      swap3\n      swap2\n      pop\n      pop\n      jump\t// out\n        /* \"#utility.yul\":1155:1478   */\n    tag_210:\n      0x00\n        /* \"#utility.yul\":1285:1288   */\n      dup3\n        /* \"#utility.yul\":1278:1282   */\n      0x1f\n        /* \"#utility.yul\":1270:1276   */\n      dup4\n        /* \"#utility.yul\":1266:1283   */\n      add\n        /* \"#utility.yul\":1262:1289   */\n      slt\n        /* \"#utility.yul\":1252:1254   */\n      tag_212\n      jumpi\n        /* \"#utility.yul\":1303:1304   */\n      0x00\n        /* \"#utility.yul\":1300:1301   */\n      dup1\n        /* \"#utility.yul\":1293:1305   */\n      revert\n        /* \"#utility.yul\":1252:1254   */\n    tag_212:\n        /* \"#utility.yul\":1343:1349   */\n      dup2\n        /* \"#utility.yul\":1330:1350   */\n      calldataload\n        /* \"#utility.yul\":1368:1472   */\n      tag_213\n        /* \"#utility.yul\":1468:1471   */\n      dup5\n        /* \"#utility.yul\":1460:1466   */\n      dup3\n        /* \"#utility.yul\":1453:1457   */\n      0x20\n        /* \"#utility.yul\":1445:1451   */\n      dup7\n        /* \"#utility.yul\":1441:1458   */\n      add\n        /* \"#utility.yul\":1368:1472   */\n      tag_187\n      jump\t// in\n    tag_213:\n        /* \"#utility.yul\":1359:1472   */\n      swap2\n      pop\n        /* \"#utility.yul\":1242:1478   */\n      pop\n      swap3\n      swap2\n      pop\n      pop\n      jump\t// out\n        /* \"#utility.yul\":1498:1771   */\n    tag_197:\n      0x00\n        /* \"#utility.yul\":1603:1606   */\n      dup3\n        /* \"#utility.yul\":1596:1600   */\n      0x1f\n        /* \"#utility.yul\":1588:1594   */\n      dup4\n        /* \"#utility.yul\":1584:1601   */\n      add\n        /* \"#utility.yul\":1580:1607   */\n      slt\n        /* \"#utility.yul\":1570:1572   */\n      tag_215\n      jumpi\n        /* \"#utility.yul\":1621:1622   */\n      0x00\n        /* \"#utility.yul\":1618:1619   */\n      dup1\n        /* \"#utility.yul\":1611:1623   */\n      revert\n        /* \"#utility.yul\":1570:1572   */\n    tag_215:\n        /* \"#utility.yul\":1661:1667   */\n      dup2\n        /* \"#utility.yul\":1648:1668   */\n      calldataload\n        /* \"#utility.yul\":1686:1765   */\n      tag_216\n        /* \"#utility.yul\":1761:1764   */\n      dup5\n        /* \"#utility.yul\":1753:1759   */\n      dup3\n        /* \"#utility.yul\":1746:1750   */\n      0x20\n        /* \"#utility.yul\":1738:1744   */\n      dup7\n        /* \"#utility.yul\":1734:1751   */\n      add\n        /* \"#utility.yul\":1686:1765   */\n      tag_198\n      jump\t// in\n    tag_216:\n        /* \"#utility.yul\":1677:1765   */\n      swap2\n      pop\n        /* \"#utility.yul\":1560:1771   */\n      pop\n      swap3\n      swap2\n      pop\n      pop\n      jump\t// out\n        /* \"#utility.yul\":1777:1916   */\n    tag_217:\n      0x00\n        /* \"#utility.yul\":1861:1867   */\n      dup2\n        /* \"#utility.yul\":1848:1868   */\n      calldataload\n        /* \"#utility.yul\":1839:1868   */\n      swap1\n      pop\n        /* \"#utility.yul\":1877:1910   */\n      tag_219\n        /* \"#utility.yul\":1904:1909   */\n      dup2\n        /* \"#utility.yul\":1877:1910   */\n      tag_220\n      jump\t// in\n    tag_219:\n        /* \"#utility.yul\":1829:1916   */\n      swap3\n      swap2\n      pop\n      pop\n      jump\t// out\n        /* \"#utility.yul\":1922:2184   */\n    tag_75:\n      0x00\n        /* \"#utility.yul\":2030:2032   */\n      0x20\n        /* \"#utility.yul\":2018:2027   */\n      dup3\n        /* \"#utility.yul\":2009:2016   */\n      dup5\n        /* \"#utility.yul\":2005:2028   */\n      sub\n        /* \"#utility.yul\":2001:2033   */\n      slt\n        /* \"#utility.yul\":1998:2000   */\n      iszero\n      tag_222\n      jumpi\n        /* \"#utility.yul\":2046:2047   */\n      0x00\n        /* \"#utility.yul\":2043:2044   */\n      dup1\n        /* \"#utility.yul\":2036:2048   */\n      revert\n        /* \"#utility.yul\":1998:2000   */\n    tag_222:\n        /* \"#utility.yul\":2089:2090   */\n      0x00\n        /* \"#utility.yul\":2114:2167   */\n      tag_223\n        /* \"#utility.yul\":2159:2166   */\n      dup5\n        /* \"#utility.yul\":2150:2156   */\n      dup3\n        /* \"#utility.yul\":2139:2148   */\n      dup6\n        /* \"#utility.yul\":2135:2157   */\n      add\n        /* \"#utility.yul\":2114:2167   */\n      tag_206\n      jump\t// in\n    tag_223:\n        /* \"#utility.yul\":2104:2167   */\n      swap2\n      pop\n        /* \"#utility.yul\":2060:2177   */\n      pop\n        /* \"#utility.yul\":1988:2184   */\n      swap3\n      swap2\n      pop\n      pop\n      jump\t// out\n        /* \"#utility.yul\":2190:2615   */\n    tag_67:\n      0x00\n        /* \"#utility.yul\":2333:2335   */\n      0x20\n        /* \"#utility.yul\":2321:2330   */\n      dup3\n        /* \"#utility.yul\":2312:2319   */\n      dup5\n        /* \"#utility.yul\":2308:2331   */\n      sub\n        /* \"#utility.yul\":2304:2336   */\n      slt\n        /* \"#utility.yul\":2301:2303   */\n      iszero\n      tag_225\n      jumpi\n        /* \"#utility.yul\":2349:2350   */\n      0x00\n        /* \"#utility.yul\":2346:2347   */\n      dup1\n        /* \"#utility.yul\":2339:2351   */\n      revert\n        /* \"#utility.yul\":2301:2303   */\n    tag_225:\n        /* \"#utility.yul\":2420:2421   */\n      0x00\n        /* \"#utility.yul\":2409:2418   */\n      dup3\n        /* \"#utility.yul\":2405:2422   */\n      add\n        /* \"#utility.yul\":2392:2423   */\n      calldataload\n        /* \"#utility.yul\":2450:2468   */\n      0xffffffffffffffff\n        /* \"#utility.yul\":2442:2448   */\n      dup2\n        /* \"#utility.yul\":2439:2469   */\n      gt\n        /* \"#utility.yul\":2436:2438   */\n      iszero\n      tag_226\n      jumpi\n        /* \"#utility.yul\":2482:2483   */\n      0x00\n        /* \"#utility.yul\":2479:2480   */\n      dup1\n        /* \"#utility.yul\":2472:2484   */\n      revert\n        /* \"#utility.yul\":2436:2438   */\n    tag_226:\n        /* \"#utility.yul\":2510:2598   */\n      tag_227\n        /* \"#utility.yul\":2590:2597   */\n      dup5\n        /* \"#utility.yul\":2581:2587   */\n      dup3\n        /* \"#utility.yul\":2570:2579   */\n      dup6\n        /* \"#utility.yul\":2566:2588   */\n      add\n        /* \"#utility.yul\":2510:2598   */\n      tag_210\n      jump\t// in\n    tag_227:\n        /* \"#utility.yul\":2500:2598   */\n      swap2\n      pop\n        /* \"#utility.yul\":2363:2608   */\n      pop\n        /* \"#utility.yul\":2291:2615   */\n      swap3\n      swap2\n      pop\n      pop\n      jump\t// out\n        /* \"#utility.yul\":2621:2883   */\n    tag_27:\n      0x00\n        /* \"#utility.yul\":2729:2731   */\n      0x20\n        /* \"#utility.yul\":2717:2726   */\n      dup3\n        /* \"#utility.yul\":2708:2715   */\n      dup5\n        /* \"#utility.yul\":2704:2727   */\n      sub\n        /* \"#utility.yul\":2700:2732   */\n      slt\n        /* \"#utility.yul\":2697:2699   */\n      iszero\n      tag_229\n      jumpi\n        /* \"#utility.yul\":2745:2746   */\n      0x00\n        /* \"#utility.yul\":2742:2743   */\n      dup1\n        /* \"#utility.yul\":2735:2747   */\n      revert\n        /* \"#utility.yul\":2697:2699   */\n    tag_229:\n        /* \"#utility.yul\":2788:2789   */\n      0x00\n        /* \"#utility.yul\":2813:2866   */\n      tag_230\n        /* \"#utility.yul\":2858:2865   */\n      dup5\n        /* \"#utility.yul\":2849:2855   */\n      dup3\n        /* \"#utility.yul\":2838:2847   */\n      dup6\n        /* \"#utility.yul\":2834:2856   */\n      add\n        /* \"#utility.yul\":2813:2866   */\n      tag_217\n      jump\t// in\n    tag_230:\n        /* \"#utility.yul\":2803:2866   */\n      swap2\n      pop\n        /* \"#utility.yul\":2759:2876   */\n      pop\n        /* \"#utility.yul\":2687:2883   */\n      swap3\n      swap2\n      pop\n      pop\n      jump\t// out\n        /* \"#utility.yul\":2889:3141   */\n    tag_231:\n      0x00\n        /* \"#utility.yul\":3041:3135   */\n      tag_233\n        /* \"#utility.yul\":3131:3134   */\n      dup4\n        /* \"#utility.yul\":3123:3129   */\n      dup4\n        /* \"#utility.yul\":3041:3135   */\n      tag_234\n      jump\t// in\n    tag_233:\n        /* \"#utility.yul\":3027:3135   */\n      swap1\n      pop\n        /* \"#utility.yul\":3017:3141   */\n      swap3\n      swap2\n      pop\n      pop\n      jump\t// out\n        /* \"#utility.yul\":3147:3265   */\n    tag_235:\n        /* \"#utility.yul\":3234:3258   */\n      tag_237\n        /* \"#utility.yul\":3252:3257   */\n      dup2\n        /* \"#utility.yul\":3234:3258   */\n      tag_238\n      jump\t// in\n    tag_237:\n        /* \"#utility.yul\":3229:3232   */\n      dup3\n        /* \"#utility.yul\":3222:3259   */\n      mstore\n        /* \"#utility.yul\":3212:3265   */\n      pop\n      pop\n      jump\t// out\n        /* \"#utility.yul\":3331:4434   */\n    tag_239:\n      0x00\n        /* \"#utility.yul\":3527:3605   */\n      tag_241\n        /* \"#utility.yul\":3599:3604   */\n      dup3\n        /* \"#utility.yul\":3527:3605   */\n      tag_242\n      jump\t// in\n    tag_241:\n        /* \"#utility.yul\":3621:3731   */\n      tag_243\n        /* \"#utility.yul\":3724:3730   */\n      dup2\n        /* \"#utility.yul\":3719:3722   */\n      dup6\n        /* \"#utility.yul\":3621:3731   */\n      tag_244\n      jump\t// in\n    tag_243:\n        /* \"#utility.yul\":3614:3731   */\n      swap4\n      pop\n        /* \"#utility.yul\":3757:3760   */\n      dup4\n        /* \"#utility.yul\":3802:3806   */\n      0x20\n        /* \"#utility.yul\":3794:3800   */\n      dup3\n        /* \"#utility.yul\":3790:3807   */\n      mul\n        /* \"#utility.yul\":3785:3788   */\n      dup6\n        /* \"#utility.yul\":3781:3808   */\n      add\n        /* \"#utility.yul\":3832:3912   */\n      tag_245\n        /* \"#utility.yul\":3906:3911   */\n      dup6\n        /* \"#utility.yul\":3832:3912   */\n      tag_246\n      jump\t// in\n    tag_245:\n        /* \"#utility.yul\":3935:3942   */\n      dup1\n        /* \"#utility.yul\":3966:3967   */\n      0x00\n        /* \"#utility.yul\":3951:4389   */\n    tag_247:\n        /* \"#utility.yul\":3976:3982   */\n      dup6\n        /* \"#utility.yul\":3973:3974   */\n      dup2\n        /* \"#utility.yul\":3970:3983   */\n      lt\n        /* \"#utility.yul\":3951:4389   */\n      iszero\n      tag_249\n      jumpi\n        /* \"#utility.yul\":4047:4056   */\n      dup5\n        /* \"#utility.yul\":4041:4045   */\n      dup5\n        /* \"#utility.yul\":4037:4057   */\n      sub\n        /* \"#utility.yul\":4032:4035   */\n      dup10\n        /* \"#utility.yul\":4025:4058   */\n      mstore\n        /* \"#utility.yul\":4098:4104   */\n      dup2\n        /* \"#utility.yul\":4092:4105   */\n      mload\n        /* \"#utility.yul\":4126:4238   */\n      tag_250\n        /* \"#utility.yul\":4233:4237   */\n      dup6\n        /* \"#utility.yul\":4218:4231   */\n      dup3\n        /* \"#utility.yul\":4126:4238   */\n      tag_231\n      jump\t// in\n    tag_250:\n        /* \"#utility.yul\":4118:4238   */\n      swap5\n      pop\n        /* \"#utility.yul\":4261:4345   */\n      tag_251\n        /* \"#utility.yul\":4338:4344   */\n      dup4\n        /* \"#utility.yul\":4261:4345   */\n      tag_252\n      jump\t// in\n    tag_251:\n        /* \"#utility.yul\":4251:4345   */\n      swap3\n      pop\n        /* \"#utility.yul\":4374:4378   */\n      0x20\n        /* \"#utility.yul\":4369:4372   */\n      dup11\n        /* \"#utility.yul\":4365:4379   */\n      add\n        /* \"#utility.yul\":4358:4379   */\n      swap10\n      pop\n        /* \"#utility.yul\":4011:4389   */\n      pop\n        /* \"#utility.yul\":3998:3999   */\n      0x01\n        /* \"#utility.yul\":3995:3996   */\n      dup2\n        /* \"#utility.yul\":3991:4000   */\n      add\n        /* \"#utility.yul\":3986:4000   */\n      swap1\n      pop\n        /* \"#utility.yul\":3951:4389   */\n      jump(tag_247)\n    tag_249:\n        /* \"#utility.yul\":3955:3969   */\n      pop\n        /* \"#utility.yul\":4405:4409   */\n      dup3\n        /* \"#utility.yul\":4398:4409   */\n      swap8\n      pop\n        /* \"#utility.yul\":4425:4428   */\n      dup8\n        /* \"#utility.yul\":4418:4428   */\n      swap6\n      pop\n        /* \"#utility.yul\":3503:4434   */\n      pop\n      pop\n      pop\n      pop\n      pop\n      swap3\n      swap2\n      pop\n      pop\n      jump\t// out\n        /* \"#utility.yul\":4440:4549   */\n    tag_253:\n        /* \"#utility.yul\":4521:4542   */\n      tag_255\n        /* \"#utility.yul\":4536:4541   */\n      dup2\n        /* \"#utility.yul\":4521:4542   */\n      tag_256\n      jump\t// in\n    tag_255:\n        /* \"#utility.yul\":4516:4519   */\n      dup3\n        /* \"#utility.yul\":4509:4543   */\n      mstore\n        /* \"#utility.yul\":4499:4549   */\n      pop\n      pop\n      jump\t// out\n        /* \"#utility.yul\":4555:4714   */\n    tag_257:\n        /* \"#utility.yul\":4656:4707   */\n      tag_259\n        /* \"#utility.yul\":4701:4706   */\n      dup2\n        /* \"#utility.yul\":4656:4707   */\n      tag_260\n      jump\t// in\n    tag_259:\n        /* \"#utility.yul\":4651:4654   */\n      dup3\n        /* \"#utility.yul\":4644:4708   */\n      mstore\n        /* \"#utility.yul\":4634:4714   */\n      pop\n      pop\n      jump\t// out\n        /* \"#utility.yul\":4720:5064   */\n    tag_261:\n      0x00\n        /* \"#utility.yul\":4826:4865   */\n      tag_263\n        /* \"#utility.yul\":4859:4864   */\n      dup3\n        /* \"#utility.yul\":4826:4865   */\n      tag_264\n      jump\t// in\n    tag_263:\n        /* \"#utility.yul\":4881:4942   */\n      tag_265\n        /* \"#utility.yul\":4935:4941   */\n      dup2\n        /* \"#utility.yul\":4930:4933   */\n      dup6\n        /* \"#utility.yul\":4881:4942   */\n      tag_266\n      jump\t// in\n    tag_265:\n        /* \"#utility.yul\":4874:4942   */\n      swap4\n      pop\n        /* \"#utility.yul\":4951:5003   */\n      tag_267\n        /* \"#utility.yul\":4996:5002   */\n      dup2\n        /* \"#utility.yul\":4991:4994   */\n      dup6\n        /* \"#utility.yul\":4984:4988   */\n      0x20\n        /* \"#utility.yul\":4977:4982   */\n      dup7\n        /* \"#utility.yul\":4973:4989   */\n      add\n        /* \"#utility.yul\":4951:5003   */\n      tag_268\n      jump\t// in\n    tag_267:\n        /* \"#utility.yul\":5028:5057   */\n      tag_269\n        /* \"#utility.yul\":5050:5056   */\n      dup2\n        /* \"#utility.yul\":5028:5057   */\n      tag_270\n      jump\t// in\n    tag_269:\n        /* \"#utility.yul\":5023:5026   */\n      dup5\n        /* \"#utility.yul\":5019:5058   */\n      add\n        /* \"#utility.yul\":5012:5058   */\n      swap2\n      pop\n        /* \"#utility.yul\":4802:5064   */\n      pop\n      swap3\n      swap2\n      pop\n      pop\n      jump\t// out\n        /* \"#utility.yul\":5070:5434   */\n    tag_271:\n      0x00\n        /* \"#utility.yul\":5186:5225   */\n      tag_273\n        /* \"#utility.yul\":5219:5224   */\n      dup3\n        /* \"#utility.yul\":5186:5225   */\n      tag_264\n      jump\t// in\n    tag_273:\n        /* \"#utility.yul\":5241:5312   */\n      tag_274\n        /* \"#utility.yul\":5305:5311   */\n      dup2\n        /* \"#utility.yul\":5300:5303   */\n      dup6\n        /* \"#utility.yul\":5241:5312   */\n      tag_275\n      jump\t// in\n    tag_274:\n        /* \"#utility.yul\":5234:5312   */\n      swap4\n      pop\n        /* \"#utility.yul\":5321:5373   */\n      tag_276\n        /* \"#utility.yul\":5366:5372   */\n      dup2\n        /* \"#utility.yul\":5361:5364   */\n      dup6\n        /* \"#utility.yul\":5354:5358   */\n      0x20\n        /* \"#utility.yul\":5347:5352   */\n      dup7\n        /* \"#utility.yul\":5343:5359   */\n      add\n        /* \"#utility.yul\":5321:5373   */\n      tag_268\n      jump\t// in\n    tag_276:\n        /* \"#utility.yul\":5398:5427   */\n      tag_277\n        /* \"#utility.yul\":5420:5426   */\n      dup2\n        /* \"#utility.yul\":5398:5427   */\n      tag_270\n      jump\t// in\n    tag_277:\n        /* \"#utility.yul\":5393:5396   */\n      dup5\n        /* \"#utility.yul\":5389:5428   */\n      add\n        /* \"#utility.yul\":5382:5428   */\n      swap2\n      pop\n        /* \"#utility.yul\":5162:5434   */\n      pop\n      swap3\n      swap2\n      pop\n      pop\n      jump\t// out\n        /* \"#utility.yul\":5496:6095   */\n    tag_234:\n      0x00\n        /* \"#utility.yul\":5639:5643   */\n      0x40\n        /* \"#utility.yul\":5634:5637   */\n      dup4\n        /* \"#utility.yul\":5630:5644   */\n      add\n        /* \"#utility.yul\":5726:5730   */\n      0x00\n        /* \"#utility.yul\":5719:5724   */\n      dup4\n        /* \"#utility.yul\":5715:5731   */\n      add\n        /* \"#utility.yul\":5709:5732   */\n      mload\n        /* \"#utility.yul\":5779:5782   */\n      dup5\n        /* \"#utility.yul\":5773:5777   */\n      dup3\n        /* \"#utility.yul\":5769:5783   */\n      sub\n        /* \"#utility.yul\":5762:5766   */\n      0x00\n        /* \"#utility.yul\":5757:5760   */\n      dup7\n        /* \"#utility.yul\":5753:5767   */\n      add\n        /* \"#utility.yul\":5746:5784   */\n      mstore\n        /* \"#utility.yul\":5805:5878   */\n      tag_279\n        /* \"#utility.yul\":5873:5877   */\n      dup3\n        /* \"#utility.yul\":5859:5871   */\n      dup3\n        /* \"#utility.yul\":5805:5878   */\n      tag_261\n      jump\t// in\n    tag_279:\n        /* \"#utility.yul\":5797:5878   */\n      swap2\n      pop\n        /* \"#utility.yul\":5654:5889   */\n      pop\n        /* \"#utility.yul\":5976:5980   */\n      0x20\n        /* \"#utility.yul\":5969:5974   */\n      dup4\n        /* \"#utility.yul\":5965:5981   */\n      add\n        /* \"#utility.yul\":5959:5982   */\n      mload\n        /* \"#utility.yul\":5995:6058   */\n      tag_280\n        /* \"#utility.yul\":6052:6056   */\n      0x20\n        /* \"#utility.yul\":6047:6050   */\n      dup7\n        /* \"#utility.yul\":6043:6057   */\n      add\n        /* \"#utility.yul\":6029:6041   */\n      dup3\n        /* \"#utility.yul\":5995:6058   */\n      tag_281\n      jump\t// in\n    tag_280:\n        /* \"#utility.yul\":5899:6068   */\n      pop\n        /* \"#utility.yul\":6085:6089   */\n      dup1\n        /* \"#utility.yul\":6078:6089   */\n      swap2\n      pop\n        /* \"#utility.yul\":5608:6095   */\n      pop\n      swap3\n      swap2\n      pop\n      pop\n      jump\t// out\n        /* \"#utility.yul\":6157:6766   */\n    tag_282:\n      0x00\n        /* \"#utility.yul\":6310:6314   */\n      0x40\n        /* \"#utility.yul\":6305:6308   */\n      dup4\n        /* \"#utility.yul\":6301:6315   */\n      add\n        /* \"#utility.yul\":6397:6401   */\n      0x00\n        /* \"#utility.yul\":6390:6395   */\n      dup4\n        /* \"#utility.yul\":6386:6402   */\n      add\n        /* \"#utility.yul\":6380:6403   */\n      mload\n        /* \"#utility.yul\":6450:6453   */\n      dup5\n        /* \"#utility.yul\":6444:6448   */\n      dup3\n        /* \"#utility.yul\":6440:6454   */\n      sub\n        /* \"#utility.yul\":6433:6437   */\n      0x00\n        /* \"#utility.yul\":6428:6431   */\n      dup7\n        /* \"#utility.yul\":6424:6438   */\n      add\n        /* \"#utility.yul\":6417:6455   */\n      mstore\n        /* \"#utility.yul\":6476:6549   */\n      tag_284\n        /* \"#utility.yul\":6544:6548   */\n      dup3\n        /* \"#utility.yul\":6530:6542   */\n      dup3\n        /* \"#utility.yul\":6476:6549   */\n      tag_261\n      jump\t// in\n    tag_284:\n        /* \"#utility.yul\":6468:6549   */\n      swap2\n      pop\n        /* \"#utility.yul\":6325:6560   */\n      pop\n        /* \"#utility.yul\":6647:6651   */\n      0x20\n        /* \"#utility.yul\":6640:6645   */\n      dup4\n        /* \"#utility.yul\":6636:6652   */\n      add\n        /* \"#utility.yul\":6630:6653   */\n      mload\n        /* \"#utility.yul\":6666:6729   */\n      tag_285\n        /* \"#utility.yul\":6723:6727   */\n      0x20\n        /* \"#utility.yul\":6718:6721   */\n      dup7\n        /* \"#utility.yul\":6714:6728   */\n      add\n        /* \"#utility.yul\":6700:6712   */\n      dup3\n        /* \"#utility.yul\":6666:6729   */\n      tag_281\n      jump\t// in\n    tag_285:\n        /* \"#utility.yul\":6570:6739   */\n      pop\n        /* \"#utility.yul\":6756:6760   */\n      dup1\n        /* \"#utility.yul\":6749:6760   */\n      swap2\n      pop\n        /* \"#utility.yul\":6279:6766   */\n      pop\n      swap3\n      swap2\n      pop\n      pop\n      jump\t// out\n        /* \"#utility.yul\":6772:6880   */\n    tag_281:\n        /* \"#utility.yul\":6849:6873   */\n      tag_287\n        /* \"#utility.yul\":6867:6872   */\n      dup2\n        /* \"#utility.yul\":6849:6873   */\n      tag_288\n      jump\t// in\n    tag_287:\n        /* \"#utility.yul\":6844:6847   */\n      dup3\n        /* \"#utility.yul\":6837:6874   */\n      mstore\n        /* \"#utility.yul\":6827:6880   */\n      pop\n      pop\n      jump\t// out\n        /* \"#utility.yul\":6886:7004   */\n    tag_289:\n        /* \"#utility.yul\":6973:6997   */\n      tag_291\n        /* \"#utility.yul\":6991:6996   */\n      dup2\n        /* \"#utility.yul\":6973:6997   */\n      tag_288\n      jump\t// in\n    tag_291:\n        /* \"#utility.yul\":6968:6971   */\n      dup3\n        /* \"#utility.yul\":6961:6998   */\n      mstore\n        /* \"#utility.yul\":6951:7004   */\n      pop\n      pop\n      jump\t// out\n        /* \"#utility.yul\":7010:7232   */\n    tag_62:\n      0x00\n        /* \"#utility.yul\":7141:7143   */\n      0x20\n        /* \"#utility.yul\":7130:7139   */\n      dup3\n        /* \"#utility.yul\":7126:7144   */\n      add\n        /* \"#utility.yul\":7118:7144   */\n      swap1\n      pop\n        /* \"#utility.yul\":7154:7225   */\n      tag_293\n        /* \"#utility.yul\":7222:7223   */\n      0x00\n        /* \"#utility.yul\":7211:7220   */\n      dup4\n        /* \"#utility.yul\":7207:7224   */\n      add\n        /* \"#utility.yul\":7198:7204   */\n      dup5\n        /* \"#utility.yul\":7154:7225   */\n      tag_235\n      jump\t// in\n    tag_293:\n        /* \"#utility.yul\":7108:7232   */\n      swap3\n      swap2\n      pop\n      pop\n      jump\t// out\n        /* \"#utility.yul\":7238:7707   */\n    tag_47:\n      0x00\n        /* \"#utility.yul\":7467:7469   */\n      0x20\n        /* \"#utility.yul\":7456:7465   */\n      dup3\n        /* \"#utility.yul\":7452:7470   */\n      add\n        /* \"#utility.yul\":7444:7470   */\n      swap1\n      pop\n        /* \"#utility.yul\":7516:7525   */\n      dup2\n        /* \"#utility.yul\":7510:7514   */\n      dup2\n        /* \"#utility.yul\":7506:7526   */\n      sub\n        /* \"#utility.yul\":7502:7503   */\n      0x00\n        /* \"#utility.yul\":7491:7500   */\n      dup4\n        /* \"#utility.yul\":7487:7504   */\n      add\n        /* \"#utility.yul\":7480:7527   */\n      mstore\n        /* \"#utility.yul\":7544:7700   */\n      tag_295\n        /* \"#utility.yul\":7695:7699   */\n      dup2\n        /* \"#utility.yul\":7686:7692   */\n      dup5\n        /* \"#utility.yul\":7544:7700   */\n      tag_239\n      jump\t// in\n    tag_295:\n        /* \"#utility.yul\":7536:7700   */\n      swap1\n      pop\n        /* \"#utility.yul\":7434:7707   */\n      swap3\n      swap2\n      pop\n      pop\n      jump\t// out\n        /* \"#utility.yul\":7713:7963   */\n    tag_52:\n      0x00\n        /* \"#utility.yul\":7858:7860   */\n      0x20\n        /* \"#utility.yul\":7847:7856   */\n      dup3\n        /* \"#utility.yul\":7843:7861   */\n      add\n        /* \"#utility.yul\":7835:7861   */\n      swap1\n      pop\n        /* \"#utility.yul\":7871:7956   */\n      tag_297\n        /* \"#utility.yul\":7953:7954   */\n      0x00\n        /* \"#utility.yul\":7942:7951   */\n      dup4\n        /* \"#utility.yul\":7938:7955   */\n      add\n        /* \"#utility.yul\":7929:7935   */\n      dup5\n        /* \"#utility.yul\":7871:7956   */\n      tag_257\n      jump\t// in\n    tag_297:\n        /* \"#utility.yul\":7825:7963   */\n      swap3\n      swap2\n      pop\n      pop\n      jump\t// out\n        /* \"#utility.yul\":7969:8282   */\n    tag_88:\n      0x00\n        /* \"#utility.yul\":8120:8122   */\n      0x20\n        /* \"#utility.yul\":8109:8118   */\n      dup3\n        /* \"#utility.yul\":8105:8123   */\n      add\n        /* \"#utility.yul\":8097:8123   */\n      swap1\n      pop\n        /* \"#utility.yul\":8169:8178   */\n      dup2\n        /* \"#utility.yul\":8163:8167   */\n      dup2\n        /* \"#utility.yul\":8159:8179   */\n      sub\n        /* \"#utility.yul\":8155:8156   */\n      0x00\n        /* \"#utility.yul\":8144:8153   */\n      dup4\n        /* \"#utility.yul\":8140:8157   */\n      add\n        /* \"#utility.yul\":8133:8180   */\n      mstore\n        /* \"#utility.yul\":8197:8275   */\n      tag_299\n        /* \"#utility.yul\":8270:8274   */\n      dup2\n        /* \"#utility.yul\":8261:8267   */\n      dup5\n        /* \"#utility.yul\":8197:8275   */\n      tag_271\n      jump\t// in\n    tag_299:\n        /* \"#utility.yul\":8189:8275   */\n      swap1\n      pop\n        /* \"#utility.yul\":8087:8282   */\n      swap3\n      swap2\n      pop\n      pop\n      jump\t// out\n        /* \"#utility.yul\":8288:8711   */\n    tag_33:\n      0x00\n        /* \"#utility.yul\":8467:8469   */\n      0x40\n        /* \"#utility.yul\":8456:8465   */\n      dup3\n        /* \"#utility.yul\":8452:8470   */\n      add\n        /* \"#utility.yul\":8444:8470   */\n      swap1\n      pop\n        /* \"#utility.yul\":8516:8525   */\n      dup2\n        /* \"#utility.yul\":8510:8514   */\n      dup2\n        /* \"#utility.yul\":8506:8526   */\n      sub\n        /* \"#utility.yul\":8502:8503   */\n      0x00\n        /* \"#utility.yul\":8491:8500   */\n      dup4\n        /* \"#utility.yul\":8487:8504   */\n      add\n        /* \"#utility.yul\":8480:8527   */\n      mstore\n        /* \"#utility.yul\":8544:8622   */\n      tag_301\n        /* \"#utility.yul\":8617:8621   */\n      dup2\n        /* \"#utility.yul\":8608:8614   */\n      dup6\n        /* \"#utility.yul\":8544:8622   */\n      tag_271\n      jump\t// in\n    tag_301:\n        /* \"#utility.yul\":8536:8622   */\n      swap1\n      pop\n        /* \"#utility.yul\":8632:8704   */\n      tag_302\n        /* \"#utility.yul\":8700:8702   */\n      0x20\n        /* \"#utility.yul\":8689:8698   */\n      dup4\n        /* \"#utility.yul\":8685:8703   */\n      add\n        /* \"#utility.yul\":8676:8682   */\n      dup5\n        /* \"#utility.yul\":8632:8704   */\n      tag_289\n      jump\t// in\n    tag_302:\n        /* \"#utility.yul\":8434:8711   */\n      swap4\n      swap3\n      pop\n      pop\n      pop\n      jump\t// out\n        /* \"#utility.yul\":8717:9086   */\n    tag_93:\n      0x00\n        /* \"#utility.yul\":8896:8898   */\n      0x20\n        /* \"#utility.yul\":8885:8894   */\n      dup3\n        /* \"#utility.yul\":8881:8899   */\n      add\n        /* \"#utility.yul\":8873:8899   */\n      swap1\n      pop\n        /* \"#utility.yul\":8945:8954   */\n      dup2\n        /* \"#utility.yul\":8939:8943   */\n      dup2\n        /* \"#utility.yul\":8935:8955   */\n      sub\n        /* \"#utility.yul\":8931:8932   */\n      0x00\n        /* \"#utility.yul\":8920:8929   */\n      dup4\n        /* \"#utility.yul\":8916:8933   */\n      add\n        /* \"#utility.yul\":8909:8956   */\n      mstore\n        /* \"#utility.yul\":8973:9079   */\n      tag_304\n        /* \"#utility.yul\":9074:9078   */\n      dup2\n        /* \"#utility.yul\":9065:9071   */\n      dup5\n        /* \"#utility.yul\":8973:9079   */\n      tag_282\n      jump\t// in\n    tag_304:\n        /* \"#utility.yul\":8965:9079   */\n      swap1\n      pop\n        /* \"#utility.yul\":8863:9086   */\n      swap3\n      swap2\n      pop\n      pop\n      jump\t// out\n        /* \"#utility.yul\":9092:9314   */\n    tag_37:\n      0x00\n        /* \"#utility.yul\":9223:9225   */\n      0x20\n        /* \"#utility.yul\":9212:9221   */\n      dup3\n        /* \"#utility.yul\":9208:9226   */\n      add\n        /* \"#utility.yul\":9200:9226   */\n      swap1\n      pop\n        /* \"#utility.yul\":9236:9307   */\n      tag_306\n        /* \"#utility.yul\":9304:9305   */\n      0x00\n        /* \"#utility.yul\":9293:9302   */\n      dup4\n        /* \"#utility.yul\":9289:9306   */\n      add\n        /* \"#utility.yul\":9280:9286   */\n      dup5\n        /* \"#utility.yul\":9236:9307   */\n      tag_289\n      jump\t// in\n    tag_306:\n        /* \"#utility.yul\":9190:9314   */\n      swap3\n      swap2\n      pop\n      pop\n      jump\t// out\n        /* \"#utility.yul\":9320:9861   */\n    tag_81:\n      0x00\n        /* \"#utility.yul\":9529:9532   */\n      0x80\n        /* \"#utility.yul\":9518:9527   */\n      dup3\n        /* \"#utility.yul\":9514:9533   */\n      add\n        /* \"#utility.yul\":9506:9533   */\n      swap1\n      pop\n        /* \"#utility.yul\":9543:9614   */\n      tag_308\n        /* \"#utility.yul\":9611:9612   */\n      0x00\n        /* \"#utility.yul\":9600:9609   */\n      dup4\n        /* \"#utility.yul\":9596:9613   */\n      add\n        /* \"#utility.yul\":9587:9593   */\n      dup8\n        /* \"#utility.yul\":9543:9614   */\n      tag_289\n      jump\t// in\n    tag_308:\n        /* \"#utility.yul\":9624:9690   */\n      tag_309\n        /* \"#utility.yul\":9686:9688   */\n      0x20\n        /* \"#utility.yul\":9675:9684   */\n      dup4\n        /* \"#utility.yul\":9671:9689   */\n      add\n        /* \"#utility.yul\":9662:9668   */\n      dup7\n        /* \"#utility.yul\":9624:9690   */\n      tag_253\n      jump\t// in\n    tag_309:\n        /* \"#utility.yul\":9700:9772   */\n      tag_310\n        /* \"#utility.yul\":9768:9770   */\n      0x40\n        /* \"#utility.yul\":9757:9766   */\n      dup4\n        /* \"#utility.yul\":9753:9771   */\n      add\n        /* \"#utility.yul\":9744:9750   */\n      dup6\n        /* \"#utility.yul\":9700:9772   */\n      tag_235\n      jump\t// in\n    tag_310:\n        /* \"#utility.yul\":9782:9854   */\n      tag_311\n        /* \"#utility.yul\":9850:9852   */\n      0x60\n        /* \"#utility.yul\":9839:9848   */\n      dup4\n        /* \"#utility.yul\":9835:9853   */\n      add\n        /* \"#utility.yul\":9826:9832   */\n      dup5\n        /* \"#utility.yul\":9782:9854   */\n      tag_289\n      jump\t// in\n    tag_311:\n        /* \"#utility.yul\":9496:9861   */\n      swap6\n      swap5\n      pop\n      pop\n      pop\n      pop\n      pop\n      jump\t// out\n        /* \"#utility.yul\":9867:10150   */\n    tag_192:\n      0x00\n        /* \"#utility.yul\":9933:9935   */\n      0x40\n        /* \"#utility.yul\":9927:9936   */\n      mload\n        /* \"#utility.yul\":9917:9936   */\n      swap1\n      pop\n        /* \"#utility.yul\":9975:9979   */\n      dup2\n        /* \"#utility.yul\":9967:9973   */\n      dup2\n        /* \"#utility.yul\":9963:9980   */\n      add\n        /* \"#utility.yul\":10082:10088   */\n      dup2\n        /* \"#utility.yul\":10070:10080   */\n      dup2\n        /* \"#utility.yul\":10067:10089   */\n      lt\n        /* \"#utility.yul\":10046:10064   */\n      0xffffffffffffffff\n        /* \"#utility.yul\":10034:10044   */\n      dup3\n        /* \"#utility.yul\":10031:10065   */\n      gt\n        /* \"#utility.yul\":10028:10090   */\n      or\n        /* \"#utility.yul\":10025:10027   */\n      iszero\n      tag_313\n      jumpi\n        /* \"#utility.yul\":10093:10111   */\n      tag_314\n      tag_315\n      jump\t// in\n    tag_314:\n        /* \"#utility.yul\":10025:10027   */\n    tag_313:\n        /* \"#utility.yul\":10133:10143   */\n      dup1\n        /* \"#utility.yul\":10129:10131   */\n      0x40\n        /* \"#utility.yul\":10122:10144   */\n      mstore\n        /* \"#utility.yul\":9907:10150   */\n      pop\n      swap2\n      swap1\n      pop\n      jump\t// out\n        /* \"#utility.yul\":10156:10477   */\n    tag_191:\n      0x00\n        /* \"#utility.yul\":10333:10351   */\n      0xffffffffffffffff\n        /* \"#utility.yul\":10325:10331   */\n      dup3\n        /* \"#utility.yul\":10322:10352   */\n      gt\n        /* \"#utility.yul\":10319:10321   */\n      iszero\n      tag_317\n      jumpi\n        /* \"#utility.yul\":10355:10373   */\n      tag_318\n      tag_315\n      jump\t// in\n    tag_318:\n        /* \"#utility.yul\":10319:10321   */\n    tag_317:\n        /* \"#utility.yul\":10405:10409   */\n      0x20\n        /* \"#utility.yul\":10397:10403   */\n      dup3\n        /* \"#utility.yul\":10393:10410   */\n      mul\n        /* \"#utility.yul\":10385:10410   */\n      swap1\n      pop\n        /* \"#utility.yul\":10465:10469   */\n      0x20\n        /* \"#utility.yul\":10459:10463   */\n      dup2\n        /* \"#utility.yul\":10455:10470   */\n      add\n        /* \"#utility.yul\":10447:10470   */\n      swap1\n      pop\n        /* \"#utility.yul\":10248:10477   */\n      swap2\n      swap1\n      pop\n      jump\t// out\n        /* \"#utility.yul\":10483:10815   */\n    tag_202:\n      0x00\n        /* \"#utility.yul\":10635:10653   */\n      0xffffffffffffffff\n        /* \"#utility.yul\":10627:10633   */\n      dup3\n        /* \"#utility.yul\":10624:10654   */\n      gt\n        /* \"#utility.yul\":10621:10623   */\n      iszero\n      tag_320\n      jumpi\n        /* \"#utility.yul\":10657:10675   */\n      tag_321\n      tag_315\n      jump\t// in\n    tag_321:\n        /* \"#utility.yul\":10621:10623   */\n    tag_320:\n        /* \"#utility.yul\":10742:10746   */\n      0x1f\n        /* \"#utility.yul\":10738:10747   */\n      not\n        /* \"#utility.yul\":10731:10735   */\n      0x1f\n        /* \"#utility.yul\":10723:10729   */\n      dup4\n        /* \"#utility.yul\":10719:10736   */\n      add\n        /* \"#utility.yul\":10715:10748   */\n      and\n        /* \"#utility.yul\":10707:10748   */\n      swap1\n      pop\n        /* \"#utility.yul\":10803:10807   */\n      0x20\n        /* \"#utility.yul\":10797:10801   */\n      dup2\n        /* \"#utility.yul\":10793:10808   */\n      add\n        /* \"#utility.yul\":10785:10808   */\n      swap1\n      pop\n        /* \"#utility.yul\":10550:10815   */\n      swap2\n      swap1\n      pop\n      jump\t// out\n        /* \"#utility.yul\":10821:10977   */\n    tag_246:\n      0x00\n        /* \"#utility.yul\":10935:10938   */\n      dup2\n        /* \"#utility.yul\":10927:10938   */\n      swap1\n      pop\n        /* \"#utility.yul\":10965:10969   */\n      0x20\n        /* \"#utility.yul\":10960:10963   */\n      dup3\n        /* \"#utility.yul\":10956:10970   */\n      add\n        /* \"#utility.yul\":10948:10970   */\n      swap1\n      pop\n        /* \"#utility.yul\":10917:10977   */\n      swap2\n      swap1\n      pop\n      jump\t// out\n        /* \"#utility.yul\":10983:11121   */\n    tag_242:\n      0x00\n        /* \"#utility.yul\":11108:11113   */\n      dup2\n        /* \"#utility.yul\":11102:11114   */\n      mload\n        /* \"#utility.yul\":11092:11114   */\n      swap1\n      pop\n        /* \"#utility.yul\":11081:11121   */\n      swap2\n      swap1\n      pop\n      jump\t// out\n        /* \"#utility.yul\":11127:11226   */\n    tag_264:\n      0x00\n        /* \"#utility.yul\":11213:11218   */\n      dup2\n        /* \"#utility.yul\":11207:11219   */\n      mload\n        /* \"#utility.yul\":11197:11219   */\n      swap1\n      pop\n        /* \"#utility.yul\":11186:11226   */\n      swap2\n      swap1\n      pop\n      jump\t// out\n        /* \"#utility.yul\":11232:11369   */\n    tag_252:\n      0x00\n        /* \"#utility.yul\":11358:11362   */\n      0x20\n        /* \"#utility.yul\":11353:11356   */\n      dup3\n        /* \"#utility.yul\":11349:11363   */\n      add\n        /* \"#utility.yul\":11341:11363   */\n      swap1\n      pop\n        /* \"#utility.yul\":11331:11369   */\n      swap2\n      swap1\n      pop\n      jump\t// out\n        /* \"#utility.yul\":11375:11583   */\n    tag_244:\n      0x00\n        /* \"#utility.yul\":11532:11538   */\n      dup3\n        /* \"#utility.yul\":11527:11530   */\n      dup3\n        /* \"#utility.yul\":11520:11539   */\n      mstore\n        /* \"#utility.yul\":11572:11576   */\n      0x20\n        /* \"#utility.yul\":11567:11570   */\n      dup3\n        /* \"#utility.yul\":11563:11577   */\n      add\n        /* \"#utility.yul\":11548:11577   */\n      swap1\n      pop\n        /* \"#utility.yul\":11510:11583   */\n      swap3\n      swap2\n      pop\n      pop\n      jump\t// out\n        /* \"#utility.yul\":11589:11748   */\n    tag_266:\n      0x00\n        /* \"#utility.yul\":11697:11703   */\n      dup3\n        /* \"#utility.yul\":11692:11695   */\n      dup3\n        /* \"#utility.yul\":11685:11704   */\n      mstore\n        /* \"#utility.yul\":11737:11741   */\n      0x20\n        /* \"#utility.yul\":11732:11735   */\n      dup3\n        /* \"#utility.yul\":11728:11742   */\n      add\n        /* \"#utility.yul\":11713:11742   */\n      swap1\n      pop\n        /* \"#utility.yul\":11675:11748   */\n      swap3\n      swap2\n      pop\n      pop\n      jump\t// out\n        /* \"#utility.yul\":11754:11923   */\n    tag_275:\n      0x00\n        /* \"#utility.yul\":11872:11878   */\n      dup3\n        /* \"#utility.yul\":11867:11870   */\n      dup3\n        /* \"#utility.yul\":11860:11879   */\n      mstore\n        /* \"#utility.yul\":11912:11916   */\n      0x20\n        /* \"#utility.yul\":11907:11910   */\n      dup3\n        /* \"#utility.yul\":11903:11917   */\n      add\n        /* \"#utility.yul\":11888:11917   */\n      swap1\n      pop\n        /* \"#utility.yul\":11850:11923   */\n      swap3\n      swap2\n      pop\n      pop\n      jump\t// out\n        /* \"#utility.yul\":11929:12234   */\n    tag_99:\n      0x00\n        /* \"#utility.yul\":11988:12008   */\n      tag_330\n        /* \"#utility.yul\":12006:12007   */\n      dup3\n        /* \"#utility.yul\":11988:12008   */\n      tag_288\n      jump\t// in\n    tag_330:\n        /* \"#utility.yul\":11983:12008   */\n      swap2\n      pop\n        /* \"#utility.yul\":12022:12042   */\n      tag_331\n        /* \"#utility.yul\":12040:12041   */\n      dup4\n        /* \"#utility.yul\":12022:12042   */\n      tag_288\n      jump\t// in\n    tag_331:\n        /* \"#utility.yul\":12017:12042   */\n      swap3\n      pop\n        /* \"#utility.yul\":12176:12177   */\n      dup3\n        /* \"#utility.yul\":12108:12174   */\n      0xffffffffffffffffffffffffffffffffffffffffffffffffffffffffffffffff\n        /* \"#utility.yul\":12104:12178   */\n      sub\n        /* \"#utility.yul\":12101:12102   */\n      dup3\n        /* \"#utility.yul\":12098:12179   */\n      gt\n        /* \"#utility.yul\":12095:12097   */\n      iszero\n      tag_332\n      jumpi\n        /* \"#utility.yul\":12182:12200   */\n      tag_333\n      tag_334\n      jump\t// in\n    tag_333:\n        /* \"#utility.yul\":12095:12097   */\n    tag_332:\n        /* \"#utility.yul\":12226:12227   */\n      dup3\n        /* \"#utility.yul\":12223:12224   */\n      dup3\n        /* \"#utility.yul\":12219:12228   */\n      add\n        /* \"#utility.yul\":12212:12228   */\n      swap1\n      pop\n        /* \"#utility.yul\":11973:12234   */\n      swap3\n      swap2\n      pop\n      pop\n      jump\t// out\n        /* \"#utility.yul\":12240:12336   */\n    tag_238:\n      0x00\n        /* \"#utility.yul\":12306:12330   */\n      tag_336\n        /* \"#utility.yul\":12324:12329   */\n      dup3\n        /* \"#utility.yul\":12306:12330   */\n      tag_337\n      jump\t// in\n    tag_336:\n        /* \"#utility.yul\":12295:12330   */\n      swap1\n      pop\n        /* \"#utility.yul\":12285:12336   */\n      swap2\n      swap1\n      pop\n      jump\t// out\n        /* \"#utility.yul\":12342:12432   */\n    tag_256:\n      0x00\n        /* \"#utility.yul\":12419:12424   */\n      dup2\n        /* \"#utility.yul\":12412:12425   */\n      iszero\n        /* \"#utility.yul\":12405:12426   */\n      iszero\n        /* \"#utility.yul\":12394:12426   */\n      swap1\n      pop\n        /* \"#utility.yul\":12384:12432   */\n      swap2\n      swap1\n      pop\n      jump\t// out\n        /* \"#utility.yul\":12438:12564   */\n    tag_337:\n      0x00\n        /* \"#utility.yul\":12515:12557   */\n      0xffffffffffffffffffffffffffffffffffffffff\n        /* \"#utility.yul\":12508:12513   */\n      dup3\n        /* \"#utility.yul\":12504:12558   */\n      and\n        /* \"#utility.yul\":12493:12558   */\n      swap1\n      pop\n        /* \"#utility.yul\":12483:12564   */\n      swap2\n      swap1\n      pop\n      jump\t// out\n        /* \"#utility.yul\":12570:12647   */\n    tag_288:\n      0x00\n        /* \"#utility.yul\":12636:12641   */\n      dup2\n        /* \"#utility.yul\":12625:12641   */\n      swap1\n      pop\n        /* \"#utility.yul\":12615:12647   */\n      swap2\n      swap1\n      pop\n      jump\t// out\n        /* \"#utility.yul\":12653:12807   */\n    tag_260:\n      0x00\n        /* \"#utility.yul\":12750:12801   */\n      tag_342\n        /* \"#utility.yul\":12795:12800   */\n      dup3\n        /* \"#utility.yul\":12750:12801   */\n      tag_343\n      jump\t// in\n    tag_342:\n        /* \"#utility.yul\":12737:12801   */\n      swap1\n      pop\n        /* \"#utility.yul\":12727:12807   */\n      swap2\n      swap1\n      pop\n      jump\t// out\n        /* \"#utility.yul\":12813:12940   */\n    tag_343:\n      0x00\n        /* \"#utility.yul\":12910:12934   */\n      tag_345\n        /* \"#utility.yul\":12928:12933   */\n      dup3\n        /* \"#utility.yul\":12910:12934   */\n      tag_337\n      jump\t// in\n    tag_345:\n        /* \"#utility.yul\":12897:12934   */\n      swap1\n      pop\n        /* \"#utility.yul\":12887:12940   */\n      swap2\n      swap1\n      pop\n      jump\t// out\n        /* \"#utility.yul\":12946:13100   */\n    tag_205:\n        /* \"#utility.yul\":13030:13036   */\n      dup3\n        /* \"#utility.yul\":13025:13028   */\n      dup2\n        /* \"#utility.yul\":13020:13023   */\n      dup4\n        /* \"#utility.yul\":13007:13037   */\n      calldatacopy\n        /* \"#utility.yul\":13092:13093   */\n      0x00\n        /* \"#utility.yul\":13083:13089   */\n      dup4\n        /* \"#utility.yul\":13078:13081   */\n      dup4\n        /* \"#utility.yul\":13074:13090   */\n      add\n        /* \"#utility.yul\":13067:13094   */\n      mstore\n        /* \"#utility.yul\":12997:13100   */\n      pop\n      pop\n      pop\n      jump\t// out\n        /* \"#utility.yul\":13106:13413   */\n    tag_268:\n        /* \"#utility.yul\":13174:13175   */\n      0x00\n        /* \"#utility.yul\":13184:13297   */\n    tag_348:\n        /* \"#utility.yul\":13198:13204   */\n      dup4\n        /* \"#utility.yul\":13195:13196   */\n      dup2\n        /* \"#utility.yul\":13192:13205   */\n      lt\n        /* \"#utility.yul\":13184:13297   */\n      iszero\n      tag_350\n      jumpi\n        /* \"#utility.yul\":13283:13284   */\n      dup1\n        /* \"#utility.yul\":13278:13281   */\n      dup3\n        /* \"#utility.yul\":13274:13285   */\n      add\n        /* \"#utility.yul\":13268:13286   */\n      mload\n        /* \"#utility.yul\":13264:13265   */\n      dup2\n        /* \"#utility.yul\":13259:13262   */\n      dup5\n        /* \"#utility.yul\":13255:13266   */\n      add\n        /* \"#utility.yul\":13248:13287   */\n      mstore\n        /* \"#utility.yul\":13220:13222   */\n      0x20\n        /* \"#utility.yul\":13217:13218   */\n      dup2\n        /* \"#utility.yul\":13213:13223   */\n      add\n        /* \"#utility.yul\":13208:13223   */\n      swap1\n      pop\n        /* \"#utility.yul\":13184:13297   */\n      jump(tag_348)\n    tag_350:\n        /* \"#utility.yul\":13315:13321   */\n      dup4\n        /* \"#utility.yul\":13312:13313   */\n      dup2\n        /* \"#utility.yul\":13309:13322   */\n      gt\n        /* \"#utility.yul\":13306:13308   */\n      iszero\n      tag_351\n      jumpi\n        /* \"#utility.yul\":13395:13396   */\n      0x00\n        /* \"#utility.yul\":13386:13392   */\n      dup5\n        /* \"#utility.yul\":13381:13384   */\n      dup5\n        /* \"#utility.yul\":13377:13393   */\n      add\n        /* \"#utility.yul\":13370:13397   */\n      mstore\n        /* \"#utility.yul\":13306:13308   */\n    tag_351:\n        /* \"#utility.yul\":13155:13413   */\n      pop\n      pop\n      pop\n      pop\n      jump\t// out\n        /* \"#utility.yul\":13419:13739   */\n    tag_103:\n      0x00\n        /* \"#utility.yul\":13500:13501   */\n      0x02\n        /* \"#utility.yul\":13494:13498   */\n      dup3\n        /* \"#utility.yul\":13490:13502   */\n      div\n        /* \"#utility.yul\":13480:13502   */\n      swap1\n      pop\n        /* \"#utility.yul\":13547:13548   */\n      0x01\n        /* \"#utility.yul\":13541:13545   */\n      dup3\n        /* \"#utility.yul\":13537:13549   */\n      and\n        /* \"#utility.yul\":13568:13586   */\n      dup1\n        /* \"#utility.yul\":13558:13560   */\n      tag_353\n      jumpi\n        /* \"#utility.yul\":13624:13628   */\n      0x7f\n        /* \"#utility.yul\":13616:13622   */\n      dup3\n        /* \"#utility.yul\":13612:13629   */\n      and\n        /* \"#utility.yul\":13602:13629   */\n      swap2\n      pop\n        /* \"#utility.yul\":13558:13560   */\n    tag_353:\n        /* \"#utility.yul\":13686:13688   */\n      0x20\n        /* \"#utility.yul\":13678:13684   */\n      dup3\n        /* \"#utility.yul\":13675:13689   */\n      lt\n        /* \"#utility.yul\":13655:13673   */\n      dup2\n        /* \"#utility.yul\":13652:13690   */\n      eq\n        /* \"#utility.yul\":13649:13651   */\n      iszero\n      tag_354\n      jumpi\n        /* \"#utility.yul\":13705:13723   */\n      tag_355\n      tag_356\n      jump\t// in\n    tag_355:\n        /* \"#utility.yul\":13649:13651   */\n    tag_354:\n        /* \"#utility.yul\":13470:13739   */\n      pop\n      swap2\n      swap1\n      pop\n      jump\t// out\n        /* \"#utility.yul\":13745:13978   */\n    tag_120:\n      0x00\n        /* \"#utility.yul\":13807:13831   */\n      tag_358\n        /* \"#utility.yul\":13825:13830   */\n      dup3\n        /* \"#utility.yul\":13807:13831   */\n      tag_288\n      jump\t// in\n    tag_358:\n        /* \"#utility.yul\":13798:13831   */\n      swap2\n      pop\n        /* \"#utility.yul\":13853:13919   */\n      0xffffffffffffffffffffffffffffffffffffffffffffffffffffffffffffffff\n        /* \"#utility.yul\":13846:13851   */\n      dup3\n        /* \"#utility.yul\":13843:13920   */\n      eq\n        /* \"#utility.yul\":13840:13842   */\n      iszero\n      tag_359\n      jumpi\n        /* \"#utility.yul\":13923:13941   */\n      tag_360\n      tag_334\n      jump\t// in\n    tag_360:\n        /* \"#utility.yul\":13840:13842   */\n    tag_359:\n        /* \"#utility.yul\":13970:13971   */\n      0x01\n        /* \"#utility.yul\":13963:13968   */\n      dup3\n        /* \"#utility.yul\":13959:13972   */\n      add\n        /* \"#utility.yul\":13952:13972   */\n      swap1\n      pop\n        /* \"#utility.yul\":13788:13978   */\n      swap2\n      swap1\n      pop\n      jump\t// out\n        /* \"#utility.yul\":13984:14164   */\n    tag_334:\n        /* \"#utility.yul\":14032:14109   */\n      0x4e487b7100000000000000000000000000000000000000000000000000000000\n        /* \"#utility.yul\":14029:14030   */\n      0x00\n        /* \"#utility.yul\":14022:14110   */\n      mstore\n        /* \"#utility.yul\":14129:14133   */\n      0x11\n        /* \"#utility.yul\":14126:14127   */\n      0x04\n        /* \"#utility.yul\":14119:14134   */\n      mstore\n        /* \"#utility.yul\":14153:14157   */\n      0x24\n        /* \"#utility.yul\":14150:14151   */\n      0x00\n        /* \"#utility.yul\":14143:14158   */\n      revert\n        /* \"#utility.yul\":14170:14350   */\n    tag_356:\n        /* \"#utility.yul\":14218:14295   */\n      0x4e487b7100000000000000000000000000000000000000000000000000000000\n        /* \"#utility.yul\":14215:14216   */\n      0x00\n        /* \"#utility.yul\":14208:14296   */\n      mstore\n        /* \"#utility.yul\":14315:14319   */\n      0x22\n        /* \"#utility.yul\":14312:14313   */\n      0x04\n        /* \"#utility.yul\":14305:14320   */\n      mstore\n        /* \"#utility.yul\":14339:14343   */\n      0x24\n        /* \"#utility.yul\":14336:14337   */\n      0x00\n        /* \"#utility.yul\":14329:14344   */\n      revert\n        /* \"#utility.yul\":14356:14536   */\n    tag_315:\n        /* \"#utility.yul\":14404:14481   */\n      0x4e487b7100000000000000000000000000000000000000000000000000000000\n        /* \"#utility.yul\":14401:14402   */\n      0x00\n        /* \"#utility.yul\":14394:14482   */\n      mstore\n        /* \"#utility.yul\":14501:14505   */\n      0x41\n        /* \"#utility.yul\":14498:14499   */\n      0x04\n        /* \"#utility.yul\":14491:14506   */\n      mstore\n        /* \"#utility.yul\":14525:14529   */\n      0x24\n        /* \"#utility.yul\":14522:14523   */\n      0x00\n        /* \"#utility.yul\":14515:14530   */\n      revert\n        /* \"#utility.yul\":14542:14644   */\n    tag_270:\n      0x00\n        /* \"#utility.yul\":14634:14636   */\n      0x1f\n        /* \"#utility.yul\":14630:14637   */\n      not\n        /* \"#utility.yul\":14625:14627   */\n      0x1f\n        /* \"#utility.yul\":14618:14623   */\n      dup4\n        /* \"#utility.yul\":14614:14628   */\n      add\n        /* \"#utility.yul\":14610:14638   */\n      and\n        /* \"#utility.yul\":14600:14638   */\n      swap1\n      pop\n        /* \"#utility.yul\":14590:14644   */\n      swap2\n      swap1\n      pop\n      jump\t// out\n        /* \"#utility.yul\":14650:14772   */\n    tag_209:\n        /* \"#utility.yul\":14723:14747   */\n      tag_366\n        /* \"#utility.yul\":14741:14746   */\n      dup2\n        /* \"#utility.yul\":14723:14747   */\n      tag_238\n      jump\t// in\n    tag_366:\n        /* \"#utility.yul\":14716:14721   */\n      dup2\n        /* \"#utility.yul\":14713:14748   */\n      eq\n        /* \"#utility.yul\":14703:14705   */\n      tag_367\n      jumpi\n        /* \"#utility.yul\":14762:14763   */\n      0x00\n        /* \"#utility.yul\":14759:14760   */\n      dup1\n        /* \"#utility.yul\":14752:14764   */\n      revert\n        /* \"#utility.yul\":14703:14705   */\n    tag_367:\n        /* \"#utility.yul\":14693:14772   */\n      pop\n      jump\t// out\n        /* \"#utility.yul\":14778:14900   */\n    tag_220:\n        /* \"#utility.yul\":14851:14875   */\n      tag_369\n        /* \"#utility.yul\":14869:14874   */\n      dup2\n        /* \"#utility.yul\":14851:14875   */\n      tag_288\n      jump\t// in\n    tag_369:\n        /* \"#utility.yul\":14844:14849   */\n      dup2\n        /* \"#utility.yul\":14841:14876   */\n      eq\n        /* \"#utility.yul\":14831:14833   */\n      tag_370\n      jumpi\n        /* \"#utility.yul\":14890:14891   */\n      0x00\n        /* \"#utility.yul\":14887:14888   */\n      dup1\n        /* \"#utility.yul\":14880:14892   */\n      revert\n        /* \"#utility.yul\":14831:14833   */\n    tag_370:\n        /* \"#utility.yul\":14821:14900   */\n      pop\n      jump\t// out\n    stop\n\n    sub_0: assembly {\n            /* \"contracts/prop_test.sol\":60:4782  contract Ballot {\r... */\n          mstore(0x40, 0x80)\n          callvalue\n          dup1\n          iszero\n          tag_1\n          jumpi\n          0x00\n          dup1\n          revert\n        tag_1:\n          pop\n          dataSize(sub_0)\n          dup1\n          dataOffset(sub_0)\n          0x00\n          codecopy\n          0x00\n          return\n        stop\n\n        sub_0: assembly {\n                /* \"contracts/prop_test.sol\":60:4782  contract Ballot {\r... */\n              mstore(0x40, 0x80)\n              callvalue\n              dup1\n              iszero\n              tag_1\n              jumpi\n              0x00\n              dup1\n              revert\n            tag_1:\n              pop\n              jumpi(tag_2, lt(calldatasize, 0x04))\n              shr(0xe0, calldataload(0x00))\n              dup1\n              0x7a16fcb0\n              gt\n              tag_20\n              jumpi\n              dup1\n              0x9e7b8d61\n              gt\n              tag_21\n              jumpi\n              dup1\n              0x9e7b8d61\n              eq\n              tag_15\n              jumpi\n              dup1\n              0xa3ec138d\n              eq\n              tag_16\n              jumpi\n              dup1\n              0xb1356488\n              eq\n              tag_17\n              jumpi\n              dup1\n              0xe2ba53f0\n              eq\n              tag_18\n              jumpi\n              dup1\n              0xe9d6c6da\n              eq\n              tag_19\n              jumpi\n              jump(tag_2)\n            tag_21:\n              dup1\n              0x7a16fcb0\n              eq\n              tag_11\n              jumpi\n              dup1\n              0x7c69710f\n              eq\n              tag_12\n              jumpi\n              dup1\n              0x836bc692\n              eq\n              tag_13\n              jumpi\n              dup1\n              0x86278e77\n              eq\n              tag_14\n              jumpi\n              jump(tag_2)\n            tag_20:\n              dup1\n              0x609ff1bd\n              gt\n              tag_22\n              jumpi\n              dup1\n              0x609ff1bd\n              eq\n              tag_7\n              jumpi\n              dup1\n              0x62564c48\n              eq\n              tag_8\n              jumpi\n              dup1\n              0x69ba1a75\n              eq\n              tag_9\n              jumpi\n              dup1\n              0x78f305c6\n              eq\n              tag_10\n              jumpi\n              jump(tag_2)\n            tag_22:\n              dup1\n              0x0121b93f\n              eq\n              tag_3\n              jumpi\n              dup1\n              0x013cf08b\n              eq\n              tag_4\n              jumpi\n              dup1\n              0x0a82dcb1\n              eq\n              tag_5\n              jumpi\n              dup1\n              0x4e69d560\n              eq\n              tag_6\n              jumpi\n            tag_2:\n              0x00\n              dup1\n              revert\n                /* \"contracts/prop_test.sol\":2296:2685  function vote(uint proposal) public {\r... */\n            tag_3:\n              tag_23\n              0x04\n              dup1\n              calldatasize\n              sub\n              dup2\n              add\n              swap1\n              tag_24\n              swap2\n              swap1\n              tag_25\n              jump\t// in\n            tag_24:\n              tag_26\n              jump\t// in\n            tag_23:\n              stop\n                /* \"contracts/prop_test.sol\":906:933  Proposal[] public proposals */\n            tag_4:\n              tag_27\n              0x04\n              dup1\n              calldatasize\n              sub\n              dup2\n              add\n              swap1\n              tag_28\n              swap2\n              swap1\n              tag_25\n              jump\t// in\n            tag_28:\n              tag_29\n              jump\t// in\n            tag_27:\n              mload(0x40)\n              tag_30\n              swap3\n              swap2\n              swap1\n              tag_31\n              jump\t// in\n            tag_30:\n              mload(0x40)\n              dup1\n              swap2\n              sub\n              swap1\n              return\n                /* \"contracts/prop_test.sol\":3899:3993  function getnumOfProposals() public view returns(uint){\r... */\n            tag_5:\n              tag_32\n              tag_33\n              jump\t// in\n            tag_32:\n              mload(0x40)\n              tag_34\n              swap2\n              swap1\n              tag_35\n              jump\t// in\n            tag_34:\n              mload(0x40)\n              dup1\n              swap2\n              sub\n              swap1\n              return\n                /* \"contracts/prop_test.sol\":3779:3857  function getStatus() public view returns(uint){\r... */\n            tag_6:\n              tag_36\n              tag_37\n              jump\t// in\n            tag_36:\n              mload(0x40)\n              tag_38\n              swap2\n              swap1\n              tag_35\n              jump\t// in\n            tag_38:\n              mload(0x40)\n              dup1\n              swap2\n              sub\n              swap1\n              return\n                /* \"contracts/prop_test.sol\":2693:3047  function winningProposal() public view returns (uint winningProposal){\r... */\n            tag_7:\n              tag_39\n              tag_40\n              jump\t// in\n            tag_39:\n              mload(0x40)\n              tag_41\n              swap2\n              swap1\n              tag_35\n              jump\t// in\n            tag_41:\n              mload(0x40)\n              dup1\n              swap2\n              sub\n              swap1\n              return\n                /* \"contracts/prop_test.sol\":4202:4299  function getProposals() public view returns(Proposal[] memory){\r... */\n            tag_8:\n              tag_42\n              tag_43\n              jump\t// in\n            tag_42:\n              mload(0x40)\n              tag_44\n              swap2\n              swap1\n              tag_45\n              jump\t// in\n            tag_44:\n              mload(0x40)\n              dup1\n              swap2\n              sub\n              swap1\n              return\n                /* \"contracts/prop_test.sol\":3662:3736  function setStatus(uint _status) public{\r... */\n            tag_9:\n              tag_46\n              0x04\n              dup1\n              calldatasize\n              sub\n              dup2\n              add\n              swap1\n              tag_47\n              swap2\n              swap1\n              tag_25\n              jump\t// in\n            tag_47:\n              tag_48\n              jump\t// in\n            tag_46:\n              stop\n                /* \"contracts/prop_test.sol\":4461:4545  function getStartDate() public view returns(uint){\r... */\n            tag_10:\n              tag_49\n              tag_50\n              jump\t// in\n            tag_49:\n              mload(0x40)\n              tag_51\n              swap2\n              swap1\n              tag_35\n              jump\t// in\n            tag_51:\n              mload(0x40)\n              dup1\n              swap2\n              sub\n              swap1\n              return\n                /* \"contracts/prop_test.sol\":3526:3619  function getCreatorBallot() public view returns(address){\r... */\n            tag_11:\n              tag_52\n              tag_53\n              jump\t// in\n            tag_52:\n              mload(0x40)\n              tag_54\n              swap2\n              swap1\n              tag_55\n              jump\t// in\n            tag_54:\n              mload(0x40)\n              dup1\n              swap2\n              sub\n              swap1\n              return\n                /* \"contracts/prop_test.sol\":4343:4419  function setStartDate() public{\r... */\n            tag_12:\n              tag_56\n              tag_57\n              jump\t// in\n            tag_56:\n              stop\n                /* \"contracts/prop_test.sol\":942:1669  function createBallot(string[] memory proposalNames) public {\r... */\n            tag_13:\n              tag_58\n              0x04\n              dup1\n              calldatasize\n              sub\n              dup2\n              add\n              swap1\n              tag_59\n              swap2\n              swap1\n              tag_60\n              jump\t// in\n            tag_59:\n              tag_61\n              jump\t// in\n            tag_58:\n              stop\n                /* \"contracts/prop_test.sol\":4587:4659  function setEndDate() public{\r... */\n            tag_14:\n              tag_62\n              tag_63\n              jump\t// in\n            tag_62:\n              stop\n                /* \"contracts/prop_test.sol\":1677:2259  function giveRightToVote(address voter) public {\r... */\n            tag_15:\n              tag_64\n              0x04\n              dup1\n              calldatasize\n              sub\n              dup2\n              add\n              swap1\n              tag_65\n              swap2\n              swap1\n              tag_66\n              jump\t// in\n            tag_65:\n              tag_67\n              jump\t// in\n            tag_64:\n              stop\n                /* \"contracts/prop_test.sol\":801:840  mapping(address => Voter) public voters */\n            tag_16:\n              tag_68\n              0x04\n              dup1\n              calldatasize\n              sub\n              dup2\n              add\n              swap1\n              tag_69\n              swap2\n              swap1\n              tag_66\n              jump\t// in\n            tag_69:\n              tag_70\n              jump\t// in\n            tag_68:\n              mload(0x40)\n              tag_71\n              swap5\n              swap4\n              swap3\n              swap2\n              swap1\n              tag_72\n              jump\t// in\n            tag_71:\n              mload(0x40)\n              dup1\n              swap2\n              sub\n              swap1\n              return\n                /* \"contracts/prop_test.sol\":4699:4779  function getEndDate() public view returns(uint){\r... */\n            tag_17:\n              tag_73\n              tag_74\n              jump\t// in\n            tag_73:\n              mload(0x40)\n              tag_75\n              swap2\n              swap1\n              tag_35\n              jump\t// in\n            tag_75:\n              mload(0x40)\n              dup1\n              swap2\n              sub\n              swap1\n              return\n                /* \"contracts/prop_test.sol\":3216:3354  function winnerName() public view returns(string memory winnerName)\r... */\n            tag_18:\n              tag_76\n              tag_77\n              jump\t// in\n            tag_76:\n              mload(0x40)\n              tag_78\n              swap2\n              swap1\n              tag_79\n              jump\t// in\n            tag_78:\n              mload(0x40)\n              dup1\n              swap2\n              sub\n              swap1\n              return\n                /* \"contracts/prop_test.sol\":4035:4167  function getProposalStructure(uint _proposalId) public view returns(Proposal memory){\r... */\n            tag_19:\n              tag_80\n              0x04\n              dup1\n              calldatasize\n              sub\n              dup2\n              add\n              swap1\n              tag_81\n              swap2\n              swap1\n              tag_25\n              jump\t// in\n            tag_81:\n              tag_82\n              jump\t// in\n            tag_80:\n              mload(0x40)\n              tag_83\n              swap2\n              swap1\n              tag_84\n              jump\t// in\n            tag_83:\n              mload(0x40)\n              dup1\n              swap2\n              sub\n              swap1\n              return\n                /* \"contracts/prop_test.sol\":2296:2685  function vote(uint proposal) public {\r... */\n            tag_26:\n                /* \"contracts/prop_test.sol\":2343:2363  Voter storage sender */\n              0x00\n                /* \"contracts/prop_test.sol\":2366:2372  voters */\n              0x05\n                /* \"contracts/prop_test.sol\":2366:2384  voters[msg.sender] */\n              0x00\n                /* \"contracts/prop_test.sol\":2373:2383  msg.sender */\n              caller\n                /* \"contracts/prop_test.sol\":2366:2384  voters[msg.sender] */\n              0xffffffffffffffffffffffffffffffffffffffff\n              and\n              0xffffffffffffffffffffffffffffffffffffffff\n              and\n              dup2\n              mstore\n              0x20\n              add\n              swap1\n              dup2\n              mstore\n              0x20\n              add\n              0x00\n              keccak256\n                /* \"contracts/prop_test.sol\":2343:2384  Voter storage sender = voters[msg.sender] */\n              swap1\n              pop\n                /* \"contracts/prop_test.sol\":2404:2410  sender */\n              dup1\n                /* \"contracts/prop_test.sol\":2404:2416  sender.voted */\n              0x01\n              add\n              0x00\n              swap1\n              sload\n              swap1\n              0x0100\n              exp\n              swap1\n              div\n              0xff\n              and\n                /* \"contracts/prop_test.sol\":2403:2416  !sender.voted */\n              iszero\n                /* \"contracts/prop_test.sol\":2395:2417  require(!sender.voted) */\n              tag_86\n              jumpi\n              0x00\n              dup1\n              revert\n            tag_86:\n                /* \"contracts/prop_test.sol\":2443:2447  true */\n              0x01\n                /* \"contracts/prop_test.sol\":2428:2434  sender */\n              dup2\n                /* \"contracts/prop_test.sol\":2428:2440  sender.voted */\n              0x01\n              add\n              0x00\n                /* \"contracts/prop_test.sol\":2428:2447  sender.voted = true */\n              0x0100\n              exp\n              dup2\n              sload\n              dup2\n              0xff\n              mul\n              not\n              and\n              swap1\n              dup4\n              iszero\n              iszero\n              mul\n              or\n              swap1\n              sstore\n              pop\n                /* \"contracts/prop_test.sol\":2472:2480  proposal */\n              dup2\n                /* \"contracts/prop_test.sol\":2458:2464  sender */\n              dup2\n                /* \"contracts/prop_test.sol\":2458:2469  sender.vote */\n              0x02\n              add\n                /* \"contracts/prop_test.sol\":2458:2480  sender.vote = proposal */\n              dup2\n              swap1\n              sstore\n              pop\n                /* \"contracts/prop_test.sol\":2664:2670  sender */\n              dup1\n                /* \"contracts/prop_test.sol\":2664:2677  sender.weight */\n              0x00\n              add\n              sload\n                /* \"contracts/prop_test.sol\":2631:2640  proposals */\n              0x06\n                /* \"contracts/prop_test.sol\":2641:2649  proposal */\n              dup4\n                /* \"contracts/prop_test.sol\":2631:2650  proposals[proposal] */\n              dup2\n              sload\n              dup2\n              lt\n              tag_87\n              jumpi\n              mstore(0x00, 0x4e487b7100000000000000000000000000000000000000000000000000000000)\n              mstore(0x04, 0x32)\n              revert(0x00, 0x24)\n            tag_87:\n              swap1\n              0x00\n              mstore\n              keccak256(0x00, 0x20)\n              swap1\n              0x02\n              mul\n              add\n                /* \"contracts/prop_test.sol\":2631:2660  proposals[proposal].voteCount */\n              0x01\n              add\n              0x00\n                /* \"contracts/prop_test.sol\":2631:2677  proposals[proposal].voteCount += sender.weight */\n              dup3\n              dup3\n              sload\n              tag_89\n              swap2\n              swap1\n              tag_90\n              jump\t// in\n            tag_89:\n              swap3\n              pop\n              pop\n              dup2\n              swap1\n              sstore\n              pop\n                /* \"contracts/prop_test.sol\":2296:2685  function vote(uint proposal) public {\r... */\n              pop\n              pop\n              jump\t// out\n                /* \"contracts/prop_test.sol\":906:933  Proposal[] public proposals */\n            tag_29:\n              0x06\n              dup2\n              dup2\n              sload\n              dup2\n              lt\n              tag_91\n              jumpi\n              0x00\n              dup1\n              revert\n            tag_91:\n              swap1\n              0x00\n              mstore\n              keccak256(0x00, 0x20)\n              swap1\n              0x02\n              mul\n              add\n              0x00\n              swap2\n              pop\n              swap1\n              pop\n              dup1\n              0x00\n              add\n              dup1\n              sload\n              tag_93\n              swap1\n              tag_94\n              jump\t// in\n            tag_93:\n              dup1\n              0x1f\n              add\n              0x20\n              dup1\n              swap2\n              div\n              mul\n              0x20\n              add\n              mload(0x40)\n              swap1\n              dup2\n              add\n              0x40\n              mstore\n              dup1\n              swap3\n              swap2\n              swap1\n              dup2\n              dup2\n              mstore\n              0x20\n              add\n              dup3\n              dup1\n              sload\n              tag_95\n              swap1\n              tag_94\n              jump\t// in\n            tag_95:\n              dup1\n              iszero\n              tag_96\n              jumpi\n              dup1\n              0x1f\n              lt\n              tag_97\n              jumpi\n              0x0100\n              dup1\n              dup4\n              sload\n              div\n              mul\n              dup4\n              mstore\n              swap2\n              0x20\n              add\n              swap2\n              jump(tag_96)\n            tag_97:\n              dup3\n              add\n              swap2\n              swap1\n              0x00\n              mstore\n              keccak256(0x00, 0x20)\n              swap1\n            tag_98:\n              dup2\n              sload\n              dup2\n              mstore\n              swap1\n              0x01\n              add\n              swap1\n              0x20\n              add\n              dup1\n              dup4\n              gt\n              tag_98\n              jumpi\n              dup3\n              swap1\n              sub\n              0x1f\n              and\n              dup3\n              add\n              swap2\n            tag_96:\n              pop\n              pop\n              pop\n              pop\n              pop\n              swap1\n              dup1\n              0x01\n              add\n              sload\n              swap1\n              pop\n              dup3\n              jump\t// out\n                /* \"contracts/prop_test.sol\":3899:3993  function getnumOfProposals() public view returns(uint){\r... */\n            tag_33:\n                /* \"contracts/prop_test.sol\":3948:3952  uint */\n              0x00\n                /* \"contracts/prop_test.sol\":3971:3985  numOfProposals */\n              sload(0x04)\n                /* \"contracts/prop_test.sol\":3964:3985  return numOfProposals */\n              swap1\n              pop\n                /* \"contracts/prop_test.sol\":3899:3993  function getnumOfProposals() public view returns(uint){\r... */\n              swap1\n              jump\t// out\n                /* \"contracts/prop_test.sol\":3779:3857  function getStatus() public view returns(uint){\r... */\n            tag_37:\n                /* \"contracts/prop_test.sol\":3820:3824  uint */\n              0x00\n                /* \"contracts/prop_test.sol\":3843:3849  status */\n              sload(0x01)\n                /* \"contracts/prop_test.sol\":3836:3849  return status */\n              swap1\n              pop\n                /* \"contracts/prop_test.sol\":3779:3857  function getStatus() public view returns(uint){\r... */\n              swap1\n              jump\t// out\n                /* \"contracts/prop_test.sol\":2693:3047  function winningProposal() public view returns (uint winningProposal){\r... */\n            tag_40:\n                /* \"contracts/prop_test.sol\":2741:2761  uint winningProposal */\n              0x00\n                /* \"contracts/prop_test.sol\":2773:2794  uint winningVoteCount */\n              dup1\n                /* \"contracts/prop_test.sol\":2797:2798  0 */\n              0x00\n                /* \"contracts/prop_test.sol\":2773:2798  uint winningVoteCount = 0 */\n              swap1\n              pop\n                /* \"contracts/prop_test.sol\":2814:2820  uint p */\n              0x00\n                /* \"contracts/prop_test.sol\":2809:3040  for (uint p = 0; p < proposals.length; p++) {\r... */\n            tag_102:\n                /* \"contracts/prop_test.sol\":2830:2839  proposals */\n              0x06\n                /* \"contracts/prop_test.sol\":2830:2846  proposals.length */\n              dup1\n              sload\n              swap1\n              pop\n                /* \"contracts/prop_test.sol\":2826:2827  p */\n              dup2\n                /* \"contracts/prop_test.sol\":2826:2846  p < proposals.length */\n              lt\n                /* \"contracts/prop_test.sol\":2809:3040  for (uint p = 0; p < proposals.length; p++) {\r... */\n              iszero\n              tag_103\n              jumpi\n                /* \"contracts/prop_test.sol\":2897:2913  winningVoteCount */\n              dup2\n                /* \"contracts/prop_test.sol\":2872:2881  proposals */\n              0x06\n                /* \"contracts/prop_test.sol\":2882:2883  p */\n              dup3\n                /* \"contracts/prop_test.sol\":2872:2884  proposals[p] */\n              dup2\n              sload\n              dup2\n              lt\n              tag_105\n              jumpi\n              mstore(0x00, 0x4e487b7100000000000000000000000000000000000000000000000000000000)\n              mstore(0x04, 0x32)\n              revert(0x00, 0x24)\n            tag_105:\n              swap1\n              0x00\n              mstore\n              keccak256(0x00, 0x20)\n              swap1\n              0x02\n              mul\n              add\n                /* \"contracts/prop_test.sol\":2872:2894  proposals[p].voteCount */\n              0x01\n              add\n              sload\n                /* \"contracts/prop_test.sol\":2872:2913  proposals[p].voteCount > winningVoteCount */\n              gt\n                /* \"contracts/prop_test.sol\":2868:3029  if (proposals[p].voteCount > winningVoteCount) {\r... */\n              iszero\n              tag_107\n              jumpi\n                /* \"contracts/prop_test.sol\":2953:2962  proposals */\n              0x06\n                /* \"contracts/prop_test.sol\":2963:2964  p */\n              dup2\n                /* \"contracts/prop_test.sol\":2953:2965  proposals[p] */\n              dup2\n              sload\n              dup2\n              lt\n              tag_108\n              jumpi\n              mstore(0x00, 0x4e487b7100000000000000000000000000000000000000000000000000000000)\n              mstore(0x04, 0x32)\n              revert(0x00, 0x24)\n            tag_108:\n              swap1\n              0x00\n              mstore\n              keccak256(0x00, 0x20)\n              swap1\n              0x02\n              mul\n              add\n                /* \"contracts/prop_test.sol\":2953:2975  proposals[p].voteCount */\n              0x01\n              add\n              sload\n                /* \"contracts/prop_test.sol\":2934:2975  winningVoteCount = proposals[p].voteCount */\n              swap2\n              pop\n                /* \"contracts/prop_test.sol\":3012:3013  p */\n              dup1\n                /* \"contracts/prop_test.sol\":2994:3013  winningProposal = p */\n              swap3\n              pop\n                /* \"contracts/prop_test.sol\":2868:3029  if (proposals[p].voteCount > winningVoteCount) {\r... */\n            tag_107:\n                /* \"contracts/prop_test.sol\":2848:2851  p++ */\n              dup1\n              dup1\n              tag_110\n              swap1\n              tag_111\n              jump\t// in\n            tag_110:\n              swap2\n              pop\n              pop\n                /* \"contracts/prop_test.sol\":2809:3040  for (uint p = 0; p < proposals.length; p++) {\r... */\n              jump(tag_102)\n            tag_103:\n              pop\n                /* \"contracts/prop_test.sol\":2693:3047  function winningProposal() public view returns (uint winningProposal){\r... */\n              pop\n              swap1\n              jump\t// out\n                /* \"contracts/prop_test.sol\":4202:4299  function getProposals() public view returns(Proposal[] memory){\r... */\n            tag_43:\n                /* \"contracts/prop_test.sol\":4246:4263  Proposal[] memory */\n              0x60\n                /* \"contracts/prop_test.sol\":4282:4291  proposals */\n              0x06\n                /* \"contracts/prop_test.sol\":4275:4291  return proposals */\n              dup1\n              sload\n              dup1\n              0x20\n              mul\n              0x20\n              add\n              mload(0x40)\n              swap1\n              dup2\n              add\n              0x40\n              mstore\n              dup1\n              swap3\n              swap2\n              swap1\n              dup2\n              dup2\n              mstore\n              0x20\n              add\n              0x00\n              swap1\n            tag_113:\n              dup3\n              dup3\n              lt\n              iszero\n              tag_114\n              jumpi\n              dup4\n              dup3\n              swap1\n              0x00\n              mstore\n              keccak256(0x00, 0x20)\n              swap1\n              0x02\n              mul\n              add\n              mload(0x40)\n              dup1\n              0x40\n              add\n              0x40\n              mstore\n              swap1\n              dup2\n              0x00\n              dup3\n              add\n              dup1\n              sload\n              tag_116\n              swap1\n              tag_94\n              jump\t// in\n            tag_116:\n              dup1\n              0x1f\n              add\n              0x20\n              dup1\n              swap2\n              div\n              mul\n              0x20\n              add\n              mload(0x40)\n              swap1\n              dup2\n              add\n              0x40\n              mstore\n              dup1\n              swap3\n              swap2\n              swap1\n              dup2\n              dup2\n              mstore\n              0x20\n              add\n              dup3\n              dup1\n              sload\n              tag_117\n              swap1\n              tag_94\n              jump\t// in\n            tag_117:\n              dup1\n              iszero\n              tag_118\n              jumpi\n              dup1\n              0x1f\n              lt\n              tag_119\n              jumpi\n              0x0100\n              dup1\n              dup4\n              sload\n              div\n              mul\n              dup4\n              mstore\n              swap2\n              0x20\n              add\n              swap2\n              jump(tag_118)\n            tag_119:\n              dup3\n              add\n              swap2\n              swap1\n              0x00\n              mstore\n              keccak256(0x00, 0x20)\n              swap1\n            tag_120:\n              dup2\n              sload\n              dup2\n              mstore\n              swap1\n              0x01\n              add\n              swap1\n              0x20\n              add\n              dup1\n              dup4\n              gt\n              tag_120\n              jumpi\n              dup3\n              swap1\n              sub\n              0x1f\n              and\n              dup3\n              add\n              swap2\n            tag_118:\n              pop\n              pop\n              pop\n              pop\n              pop\n              dup2\n              mstore\n              0x20\n              add\n              0x01\n              dup3\n              add\n              sload\n              dup2\n              mstore\n              pop\n              pop\n              dup2\n              mstore\n              0x20\n              add\n              swap1\n              0x01\n              add\n              swap1\n              jump(tag_113)\n            tag_114:\n              pop\n              pop\n              pop\n              pop\n              swap1\n              pop\n                /* \"contracts/prop_test.sol\":4202:4299  function getProposals() public view returns(Proposal[] memory){\r... */\n              swap1\n              jump\t// out\n                /* \"contracts/prop_test.sol\":3662:3736  function setStatus(uint _status) public{\r... */\n            tag_48:\n                /* \"contracts/prop_test.sol\":3721:3728  _status */\n              dup1\n                /* \"contracts/prop_test.sol\":3712:3718  status */\n              0x01\n                /* \"contracts/prop_test.sol\":3712:3728  status = _status */\n              dup2\n              swap1\n              sstore\n              pop\n                /* \"contracts/prop_test.sol\":3662:3736  function setStatus(uint _status) public{\r... */\n              pop\n              jump\t// out\n                /* \"contracts/prop_test.sol\":4461:4545  function getStartDate() public view returns(uint){\r... */\n            tag_50:\n                /* \"contracts/prop_test.sol\":4505:4509  uint */\n              0x00\n                /* \"contracts/prop_test.sol\":4528:4537  startDate */\n              sload(0x02)\n                /* \"contracts/prop_test.sol\":4521:4537  return startDate */\n              swap1\n              pop\n                /* \"contracts/prop_test.sol\":4461:4545  function getStartDate() public view returns(uint){\r... */\n              swap1\n              jump\t// out\n                /* \"contracts/prop_test.sol\":3526:3619  function getCreatorBallot() public view returns(address){\r... */\n            tag_53:\n                /* \"contracts/prop_test.sol\":3574:3581  address */\n              0x00\n                /* \"contracts/prop_test.sol\":3600:3611  chairperson */\n              dup1\n              0x00\n              swap1\n              sload\n              swap1\n              0x0100\n              exp\n              swap1\n              div\n              0xffffffffffffffffffffffffffffffffffffffff\n              and\n                /* \"contracts/prop_test.sol\":3593:3611  return chairperson */\n              swap1\n              pop\n                /* \"contracts/prop_test.sol\":3526:3619  function getCreatorBallot() public view returns(address){\r... */\n              swap1\n              jump\t// out\n                /* \"contracts/prop_test.sol\":4343:4419  function setStartDate() public{\r... */\n            tag_57:\n                /* \"contracts/prop_test.sol\":4396:4411  block.timestamp */\n              timestamp\n                /* \"contracts/prop_test.sol\":4384:4393  startDate */\n              0x02\n                /* \"contracts/prop_test.sol\":4384:4411  startDate = block.timestamp */\n              dup2\n              swap1\n              sstore\n              pop\n                /* \"contracts/prop_test.sol\":4343:4419  function setStartDate() public{\r... */\n              jump\t// out\n                /* \"contracts/prop_test.sol\":942:1669  function createBallot(string[] memory proposalNames) public {\r... */\n            tag_61:\n                /* \"contracts/prop_test.sol\":1027:1037  msg.sender */\n              caller\n                /* \"contracts/prop_test.sol\":1013:1024  chairperson */\n              0x00\n              dup1\n                /* \"contracts/prop_test.sol\":1013:1037  chairperson = msg.sender */\n              0x0100\n              exp\n              dup2\n              sload\n              dup2\n              0xffffffffffffffffffffffffffffffffffffffff\n              mul\n              not\n              and\n              swap1\n              dup4\n              0xffffffffffffffffffffffffffffffffffffffff\n              and\n              mul\n              or\n              swap1\n              sstore\n              pop\n                /* \"contracts/prop_test.sol\":1077:1078  1 */\n              0x01\n                /* \"contracts/prop_test.sol\":1048:1054  voters */\n              0x05\n                /* \"contracts/prop_test.sol\":1048:1067  voters[chairperson] */\n              0x00\n                /* \"contracts/prop_test.sol\":1055:1066  chairperson */\n              dup1\n              0x00\n              swap1\n              sload\n              swap1\n              0x0100\n              exp\n              swap1\n              div\n              0xffffffffffffffffffffffffffffffffffffffff\n              and\n                /* \"contracts/prop_test.sol\":1048:1067  voters[chairperson] */\n              0xffffffffffffffffffffffffffffffffffffffff\n              and\n              0xffffffffffffffffffffffffffffffffffffffff\n              and\n              dup2\n              mstore\n              0x20\n              add\n              swap1\n              dup2\n              mstore\n              0x20\n              add\n              0x00\n              keccak256\n                /* \"contracts/prop_test.sol\":1048:1074  voters[chairperson].weight */\n              0x00\n              add\n                /* \"contracts/prop_test.sol\":1048:1078  voters[chairperson].weight = 1 */\n              dup2\n              swap1\n              sstore\n              pop\n                /* \"contracts/prop_test.sol\":1091:1105  setStartDate() */\n              tag_126\n                /* \"contracts/prop_test.sol\":1091:1103  setStartDate */\n              tag_57\n                /* \"contracts/prop_test.sol\":1091:1105  setStartDate() */\n              jump\t// in\n            tag_126:\n                /* \"contracts/prop_test.sol\":1133:1146  proposalNames */\n              dup1\n                /* \"contracts/prop_test.sol\":1133:1153  proposalNames.length */\n              mload\n                /* \"contracts/prop_test.sol\":1116:1130  numOfProposals */\n              0x04\n                /* \"contracts/prop_test.sol\":1116:1153  numOfProposals = proposalNames.length */\n              dup2\n              swap1\n              sstore\n              pop\n                /* \"contracts/prop_test.sol\":1313:1319  uint i */\n              0x00\n                /* \"contracts/prop_test.sol\":1308:1662  for (uint i = 0; i < proposalNames.length; i++) {\r... */\n            tag_127:\n                /* \"contracts/prop_test.sol\":1329:1342  proposalNames */\n              dup2\n                /* \"contracts/prop_test.sol\":1329:1349  proposalNames.length */\n              mload\n                /* \"contracts/prop_test.sol\":1325:1326  i */\n              dup2\n                /* \"contracts/prop_test.sol\":1325:1349  i < proposalNames.length */\n              lt\n                /* \"contracts/prop_test.sol\":1308:1662  for (uint i = 0; i < proposalNames.length; i++) {\r... */\n              iszero\n              tag_128\n              jumpi\n                /* \"contracts/prop_test.sol\":1537:1546  proposals */\n              0x06\n                /* \"contracts/prop_test.sol\":1552:1649  Proposal({\r... */\n              mload(0x40)\n              dup1\n              0x40\n              add\n              0x40\n              mstore\n              dup1\n                /* \"contracts/prop_test.sol\":1586:1599  proposalNames */\n              dup5\n                /* \"contracts/prop_test.sol\":1600:1601  i */\n              dup5\n                /* \"contracts/prop_test.sol\":1586:1602  proposalNames[i] */\n              dup2\n              mload\n              dup2\n              lt\n              tag_130\n              jumpi\n              mstore(0x00, 0x4e487b7100000000000000000000000000000000000000000000000000000000)\n              mstore(0x04, 0x32)\n              revert(0x00, 0x24)\n            tag_130:\n              0x20\n              mul\n              0x20\n              add\n              add\n              mload\n                /* \"contracts/prop_test.sol\":1552:1649  Proposal({\r... */\n              dup2\n              mstore\n              0x20\n              add\n                /* \"contracts/prop_test.sol\":1632:1633  0 */\n              0x00\n                /* \"contracts/prop_test.sol\":1552:1649  Proposal({\r... */\n              dup2\n              mstore\n              pop\n                /* \"contracts/prop_test.sol\":1537:1650  proposals.push(Proposal({\r... */\n              swap1\n              dup1\n              0x01\n              dup2\n              sload\n              add\n              dup1\n              dup3\n              sstore\n              dup1\n              swap2\n              pop\n              pop\n              0x01\n              swap1\n              sub\n              swap1\n              0x00\n              mstore\n              keccak256(0x00, 0x20)\n              swap1\n              0x02\n              mul\n              add\n              0x00\n              swap1\n              swap2\n              swap1\n              swap2\n              swap1\n              swap2\n              pop\n              0x00\n              dup3\n              add\n              mload\n              dup2\n              0x00\n              add\n              swap1\n              dup1\n              mload\n              swap1\n              0x20\n              add\n              swap1\n              tag_132\n              swap3\n              swap2\n              swap1\n              tag_133\n              jump\t// in\n            tag_132:\n              pop\n              0x20\n              dup3\n              add\n              mload\n              dup2\n              0x01\n              add\n              sstore\n              pop\n              pop\n                /* \"contracts/prop_test.sol\":1351:1354  i++ */\n              dup1\n              dup1\n              tag_134\n              swap1\n              tag_111\n              jump\t// in\n            tag_134:\n              swap2\n              pop\n              pop\n                /* \"contracts/prop_test.sol\":1308:1662  for (uint i = 0; i < proposalNames.length; i++) {\r... */\n              jump(tag_127)\n            tag_128:\n              pop\n                /* \"contracts/prop_test.sol\":942:1669  function createBallot(string[] memory proposalNames) public {\r... */\n              pop\n              jump\t// out\n                /* \"contracts/prop_test.sol\":4587:4659  function setEndDate() public{\r... */\n            tag_63:\n                /* \"contracts/prop_test.sol\":4636:4651  block.timestamp */\n              timestamp\n                /* \"contracts/prop_test.sol\":4626:4633  endDate */\n              0x03\n                /* \"contracts/prop_test.sol\":4626:4651  endDate = block.timestamp */\n              dup2\n              swap1\n              sstore\n              pop\n                /* \"contracts/prop_test.sol\":4587:4659  function setEndDate() public{\r... */\n              jump\t// out\n                /* \"contracts/prop_test.sol\":1677:2259  function giveRightToVote(address voter) public {\r... */\n            tag_67:\n                /* \"contracts/prop_test.sol\":2148:2159  chairperson */\n              0x00\n              dup1\n              sload\n              swap1\n              0x0100\n              exp\n              swap1\n              div\n              0xffffffffffffffffffffffffffffffffffffffff\n              and\n                /* \"contracts/prop_test.sol\":2134:2159  msg.sender == chairperson */\n              0xffffffffffffffffffffffffffffffffffffffff\n              and\n                /* \"contracts/prop_test.sol\":2134:2144  msg.sender */\n              caller\n                /* \"contracts/prop_test.sol\":2134:2159  msg.sender == chairperson */\n              0xffffffffffffffffffffffffffffffffffffffff\n              and\n              eq\n                /* \"contracts/prop_test.sol\":2133:2184  (msg.sender == chairperson) && !voters[voter].voted */\n              dup1\n              iszero\n              tag_137\n              jumpi\n              pop\n                /* \"contracts/prop_test.sol\":2165:2171  voters */\n              0x05\n                /* \"contracts/prop_test.sol\":2165:2178  voters[voter] */\n              0x00\n                /* \"contracts/prop_test.sol\":2172:2177  voter */\n              dup3\n                /* \"contracts/prop_test.sol\":2165:2178  voters[voter] */\n              0xffffffffffffffffffffffffffffffffffffffff\n              and\n              0xffffffffffffffffffffffffffffffffffffffff\n              and\n              dup2\n              mstore\n              0x20\n              add\n              swap1\n              dup2\n              mstore\n              0x20\n              add\n              0x00\n              keccak256\n                /* \"contracts/prop_test.sol\":2165:2184  voters[voter].voted */\n              0x01\n              add\n              0x00\n              swap1\n              sload\n              swap1\n              0x0100\n              exp\n              swap1\n              div\n              0xff\n              and\n                /* \"contracts/prop_test.sol\":2164:2184  !voters[voter].voted */\n              iszero\n                /* \"contracts/prop_test.sol\":2133:2184  (msg.sender == chairperson) && !voters[voter].voted */\n            tag_137:\n                /* \"contracts/prop_test.sol\":2133:2215  (msg.sender == chairperson) && !voters[voter].voted && (voters[voter].weight == 0) */\n              dup1\n              iszero\n              tag_138\n              jumpi\n              pop\n                /* \"contracts/prop_test.sol\":2213:2214  0 */\n              0x00\n                /* \"contracts/prop_test.sol\":2189:2195  voters */\n              0x05\n                /* \"contracts/prop_test.sol\":2189:2202  voters[voter] */\n              0x00\n                /* \"contracts/prop_test.sol\":2196:2201  voter */\n              dup4\n                /* \"contracts/prop_test.sol\":2189:2202  voters[voter] */\n              0xffffffffffffffffffffffffffffffffffffffff\n              and\n              0xffffffffffffffffffffffffffffffffffffffff\n              and\n              dup2\n              mstore\n              0x20\n              add\n              swap1\n              dup2\n              mstore\n              0x20\n              add\n              0x00\n              keccak256\n                /* \"contracts/prop_test.sol\":2189:2209  voters[voter].weight */\n              0x00\n              add\n              sload\n                /* \"contracts/prop_test.sol\":2189:2214  voters[voter].weight == 0 */\n              eq\n                /* \"contracts/prop_test.sol\":2133:2215  (msg.sender == chairperson) && !voters[voter].voted && (voters[voter].weight == 0) */\n            tag_138:\n                /* \"contracts/prop_test.sol\":2125:2216  require((msg.sender == chairperson) && !voters[voter].voted && (voters[voter].weight == 0)) */\n              tag_139\n              jumpi\n              0x00\n              dup1\n              revert\n            tag_139:\n                /* \"contracts/prop_test.sol\":2250:2251  1 */\n              0x01\n                /* \"contracts/prop_test.sol\":2227:2233  voters */\n              0x05\n                /* \"contracts/prop_test.sol\":2227:2240  voters[voter] */\n              0x00\n                /* \"contracts/prop_test.sol\":2234:2239  voter */\n              dup4\n                /* \"contracts/prop_test.sol\":2227:2240  voters[voter] */\n              0xffffffffffffffffffffffffffffffffffffffff\n              and\n              0xffffffffffffffffffffffffffffffffffffffff\n              and\n              dup2\n              mstore\n              0x20\n              add\n              swap1\n              dup2\n              mstore\n              0x20\n              add\n              0x00\n              keccak256\n                /* \"contracts/prop_test.sol\":2227:2247  voters[voter].weight */\n              0x00\n              add\n                /* \"contracts/prop_test.sol\":2227:2251  voters[voter].weight = 1 */\n              dup2\n              swap1\n              sstore\n              pop\n                /* \"contracts/prop_test.sol\":1677:2259  function giveRightToVote(address voter) public {\r... */\n              pop\n              jump\t// out\n                /* \"contracts/prop_test.sol\":801:840  mapping(address => Voter) public voters */\n            tag_70:\n              mstore(0x20, 0x05)\n              dup1\n              0x00\n              mstore\n              keccak256(0x00, 0x40)\n              0x00\n              swap2\n              pop\n              swap1\n              pop\n              dup1\n              0x00\n              add\n              sload\n              swap1\n              dup1\n              0x01\n              add\n              0x00\n              swap1\n              sload\n              swap1\n              0x0100\n              exp\n              swap1\n              div\n              0xff\n              and\n              swap1\n              dup1\n              0x01\n              add\n              0x01\n              swap1\n              sload\n              swap1\n              0x0100\n              exp\n              swap1\n              div\n              0xffffffffffffffffffffffffffffffffffffffff\n              and\n              swap1\n              dup1\n              0x02\n              add\n              sload\n              swap1\n              pop\n              dup5\n              jump\t// out\n                /* \"contracts/prop_test.sol\":4699:4779  function getEndDate() public view returns(uint){\r... */\n            tag_74:\n                /* \"contracts/prop_test.sol\":4741:4745  uint */\n              0x00\n                /* \"contracts/prop_test.sol\":4764:4771  endDate */\n              sload(0x03)\n                /* \"contracts/prop_test.sol\":4757:4771  return endDate */\n              swap1\n              pop\n                /* \"contracts/prop_test.sol\":4699:4779  function getEndDate() public view returns(uint){\r... */\n              swap1\n              jump\t// out\n                /* \"contracts/prop_test.sol\":3216:3354  function winnerName() public view returns(string memory winnerName)\r... */\n            tag_77:\n                /* \"contracts/prop_test.sol\":3258:3282  string memory winnerName */\n              0x60\n                /* \"contracts/prop_test.sol\":3313:3322  proposals */\n              0x06\n                /* \"contracts/prop_test.sol\":3323:3340  winningProposal() */\n              tag_142\n                /* \"contracts/prop_test.sol\":3323:3338  winningProposal */\n              tag_40\n                /* \"contracts/prop_test.sol\":3323:3340  winningProposal() */\n              jump\t// in\n            tag_142:\n                /* \"contracts/prop_test.sol\":3313:3341  proposals[winningProposal()] */\n              dup2\n              sload\n              dup2\n              lt\n              tag_143\n              jumpi\n              mstore(0x00, 0x4e487b7100000000000000000000000000000000000000000000000000000000)\n              mstore(0x04, 0x32)\n              revert(0x00, 0x24)\n            tag_143:\n              swap1\n              0x00\n              mstore\n              keccak256(0x00, 0x20)\n              swap1\n              0x02\n              mul\n              add\n                /* \"contracts/prop_test.sol\":3313:3346  proposals[winningProposal()].name */\n              0x00\n              add\n                /* \"contracts/prop_test.sol\":3300:3346  winnerName = proposals[winningProposal()].name */\n              dup1\n              sload\n              tag_145\n              swap1\n              tag_94\n              jump\t// in\n            tag_145:\n              dup1\n              0x1f\n              add\n              0x20\n              dup1\n              swap2\n              div\n              mul\n              0x20\n              add\n              mload(0x40)\n              swap1\n              dup2\n              add\n              0x40\n              mstore\n              dup1\n              swap3\n              swap2\n              swap1\n              dup2\n              dup2\n              mstore\n              0x20\n              add\n              dup3\n              dup1\n              sload\n              tag_146\n              swap1\n              tag_94\n              jump\t// in\n            tag_146:\n              dup1\n              iszero\n              tag_147\n              jumpi\n              dup1\n              0x1f\n              lt\n              tag_148\n              jumpi\n              0x0100\n              dup1\n              dup4\n              sload\n              div\n              mul\n              dup4\n              mstore\n              swap2\n              0x20\n              add\n              swap2\n              jump(tag_147)\n            tag_148:\n              dup3\n              add\n              swap2\n              swap1\n              0x00\n              mstore\n              keccak256(0x00, 0x20)\n              swap1\n            tag_149:\n              dup2\n              sload\n              dup2\n              mstore\n              swap1\n              0x01\n              add\n              swap1\n              0x20\n              add\n              dup1\n              dup4\n              gt\n              tag_149\n              jumpi\n              dup3\n              swap1\n              sub\n              0x1f\n              and\n              dup3\n              add\n              swap2\n            tag_147:\n              pop\n              pop\n              pop\n              pop\n              pop\n              swap1\n              pop\n                /* \"contracts/prop_test.sol\":3216:3354  function winnerName() public view returns(string memory winnerName)\r... */\n              swap1\n              jump\t// out\n                /* \"contracts/prop_test.sol\":4035:4167  function getProposalStructure(uint _proposalId) public view returns(Proposal memory){\r... */\n            tag_82:\n                /* \"contracts/prop_test.sol\":4103:4118  Proposal memory */\n              tag_150\n              tag_151\n              jump\t// in\n            tag_150:\n                /* \"contracts/prop_test.sol\":4137:4146  proposals */\n              0x06\n                /* \"contracts/prop_test.sol\":4147:4158  _proposalId */\n              dup3\n                /* \"contracts/prop_test.sol\":4137:4159  proposals[_proposalId] */\n              dup2\n              sload\n              dup2\n              lt\n              tag_153\n              jumpi\n              mstore(0x00, 0x4e487b7100000000000000000000000000000000000000000000000000000000)\n              mstore(0x04, 0x32)\n              revert(0x00, 0x24)\n            tag_153:\n              swap1\n              0x00\n              mstore\n              keccak256(0x00, 0x20)\n              swap1\n              0x02\n              mul\n              add\n                /* \"contracts/prop_test.sol\":4130:4159  return proposals[_proposalId] */\n              mload(0x40)\n              dup1\n              0x40\n              add\n              0x40\n              mstore\n              swap1\n              dup2\n              0x00\n              dup3\n              add\n              dup1\n              sload\n              tag_155\n              swap1\n              tag_94\n              jump\t// in\n            tag_155:\n              dup1\n              0x1f\n              add\n              0x20\n              dup1\n              swap2\n              div\n              mul\n              0x20\n              add\n              mload(0x40)\n              swap1\n              dup2\n              add\n              0x40\n              mstore\n              dup1\n              swap3\n              swap2\n              swap1\n              dup2\n              dup2\n              mstore\n              0x20\n              add\n              dup3\n              dup1\n              sload\n              tag_156\n              swap1\n              tag_94\n              jump\t// in\n            tag_156:\n              dup1\n              iszero\n              tag_157\n              jumpi\n              dup1\n              0x1f\n              lt\n              tag_158\n              jumpi\n              0x0100\n              dup1\n              dup4\n              sload\n              div\n              mul\n              dup4\n              mstore\n              swap2\n              0x20\n              add\n              swap2\n              jump(tag_157)\n            tag_158:\n              dup3\n              add\n              swap2\n              swap1\n              0x00\n              mstore\n              keccak256(0x00, 0x20)\n              swap1\n            tag_159:\n              dup2\n              sload\n              dup2\n              mstore\n              swap1\n              0x01\n              add\n              swap1\n              0x20\n              add\n              dup1\n              dup4\n              gt\n              tag_159\n              jumpi\n              dup3\n              swap1\n              sub\n              0x1f\n              and\n              dup3\n              add\n              swap2\n            tag_157:\n              pop\n              pop\n              pop\n              pop\n              pop\n              dup2\n              mstore\n              0x20\n              add\n              0x01\n              dup3\n              add\n              sload\n              dup2\n              mstore\n              pop\n              pop\n              swap1\n              pop\n                /* \"contracts/prop_test.sol\":4035:4167  function getProposalStructure(uint _proposalId) public view returns(Proposal memory){\r... */\n              swap2\n              swap1\n              pop\n              jump\t// out\n            tag_133:\n              dup3\n              dup1\n              sload\n              tag_160\n              swap1\n              tag_94\n              jump\t// in\n            tag_160:\n              swap1\n              0x00\n              mstore\n              keccak256(0x00, 0x20)\n              swap1\n              0x1f\n              add\n              0x20\n              swap1\n              div\n              dup2\n              add\n              swap3\n              dup3\n              tag_162\n              jumpi\n              0x00\n              dup6\n              sstore\n              jump(tag_161)\n            tag_162:\n              dup3\n              0x1f\n              lt\n              tag_163\n              jumpi\n              dup1\n              mload\n              not(0xff)\n              and\n              dup4\n              dup1\n              add\n              or\n              dup6\n              sstore\n              jump(tag_161)\n            tag_163:\n              dup3\n              dup1\n              add\n              0x01\n              add\n              dup6\n              sstore\n              dup3\n              iszero\n              tag_161\n              jumpi\n              swap2\n              dup3\n              add\n            tag_164:\n              dup3\n              dup2\n              gt\n              iszero\n              tag_165\n              jumpi\n              dup3\n              mload\n              dup3\n              sstore\n              swap2\n              0x20\n              add\n              swap2\n              swap1\n              0x01\n              add\n              swap1\n              jump(tag_164)\n            tag_165:\n            tag_161:\n              pop\n              swap1\n              pop\n              tag_166\n              swap2\n              swap1\n              tag_167\n              jump\t// in\n            tag_166:\n              pop\n              swap1\n              jump\t// out\n            tag_151:\n              mload(0x40)\n              dup1\n              0x40\n              add\n              0x40\n              mstore\n              dup1\n              0x60\n              dup2\n              mstore\n              0x20\n              add\n              0x00\n              dup2\n              mstore\n              pop\n              swap1\n              jump\t// out\n            tag_167:\n            tag_168:\n              dup1\n              dup3\n              gt\n              iszero\n              tag_169\n              jumpi\n              0x00\n              dup2\n              0x00\n              swap1\n              sstore\n              pop\n              0x01\n              add\n              jump(tag_168)\n            tag_169:\n              pop\n              swap1\n              jump\t// out\n                /* \"#utility.yul\":23:638   */\n            tag_171:\n              0x00\n                /* \"#utility.yul\":154:244   */\n              tag_173\n                /* \"#utility.yul\":169:243   */\n              tag_174\n                /* \"#utility.yul\":236:242   */\n              dup5\n                /* \"#utility.yul\":169:243   */\n              tag_175\n              jump\t// in\n            tag_174:\n                /* \"#utility.yul\":154:244   */\n              tag_176\n              jump\t// in\n            tag_173:\n                /* \"#utility.yul\":145:244   */\n              swap1\n              pop\n                /* \"#utility.yul\":264:269   */\n              dup1\n                /* \"#utility.yul\":292:298   */\n              dup4\n                /* \"#utility.yul\":285:290   */\n              dup3\n                /* \"#utility.yul\":278:299   */\n              mstore\n                /* \"#utility.yul\":318:322   */\n              0x20\n                /* \"#utility.yul\":311:316   */\n              dup3\n                /* \"#utility.yul\":307:323   */\n              add\n                /* \"#utility.yul\":300:323   */\n              swap1\n              pop\n                /* \"#utility.yul\":343:349   */\n              dup3\n                /* \"#utility.yul\":374:375   */\n              0x00\n                /* \"#utility.yul\":359:632   */\n            tag_177:\n                /* \"#utility.yul\":384:390   */\n              dup6\n                /* \"#utility.yul\":381:382   */\n              dup2\n                /* \"#utility.yul\":378:391   */\n              lt\n                /* \"#utility.yul\":359:632   */\n              iszero\n              tag_179\n              jumpi\n                /* \"#utility.yul\":476:479   */\n              dup2\n                /* \"#utility.yul\":463:480   */\n              calldataload\n                /* \"#utility.yul\":455:461   */\n              dup6\n                /* \"#utility.yul\":451:481   */\n              add\n                /* \"#utility.yul\":506:553   */\n              tag_180\n                /* \"#utility.yul\":549:552   */\n              dup9\n                /* \"#utility.yul\":537:547   */\n              dup3\n                /* \"#utility.yul\":506:553   */\n              tag_181\n              jump\t// in\n            tag_180:\n                /* \"#utility.yul\":501:504   */\n              dup5\n                /* \"#utility.yul\":494:554   */\n              mstore\n                /* \"#utility.yul\":583:587   */\n              0x20\n                /* \"#utility.yul\":578:581   */\n              dup5\n                /* \"#utility.yul\":574:588   */\n              add\n                /* \"#utility.yul\":567:588   */\n              swap4\n              pop\n                /* \"#utility.yul\":617:621   */\n              0x20\n                /* \"#utility.yul\":612:615   */\n              dup4\n                /* \"#utility.yul\":608:622   */\n              add\n                /* \"#utility.yul\":601:622   */\n              swap3\n              pop\n                /* \"#utility.yul\":419:632   */\n              pop\n                /* \"#utility.yul\":406:407   */\n              0x01\n                /* \"#utility.yul\":403:404   */\n              dup2\n                /* \"#utility.yul\":399:408   */\n              add\n                /* \"#utility.yul\":394:408   */\n              swap1\n              pop\n                /* \"#utility.yul\":359:632   */\n              jump(tag_177)\n            tag_179:\n                /* \"#utility.yul\":363:377   */\n              pop\n                /* \"#utility.yul\":135:638   */\n              pop\n              pop\n              swap4\n              swap3\n              pop\n              pop\n              pop\n              jump\t// out\n                /* \"#utility.yul\":644:988   */\n            tag_182:\n              0x00\n                /* \"#utility.yul\":747:812   */\n              tag_184\n                /* \"#utility.yul\":762:811   */\n              tag_185\n                /* \"#utility.yul\":804:810   */\n              dup5\n                /* \"#utility.yul\":762:811   */\n              tag_186\n              jump\t// in\n            tag_185:\n                /* \"#utility.yul\":747:812   */\n              tag_176\n              jump\t// in\n            tag_184:\n                /* \"#utility.yul\":738:812   */\n              swap1\n              pop\n                /* \"#utility.yul\":835:841   */\n              dup3\n                /* \"#utility.yul\":828:833   */\n              dup2\n                /* \"#utility.yul\":821:842   */\n              mstore\n                /* \"#utility.yul\":873:877   */\n              0x20\n                /* \"#utility.yul\":866:871   */\n              dup2\n                /* \"#utility.yul\":862:878   */\n              add\n                /* \"#utility.yul\":911:914   */\n              dup5\n                /* \"#utility.yul\":902:908   */\n              dup5\n                /* \"#utility.yul\":897:900   */\n              dup5\n                /* \"#utility.yul\":893:909   */\n              add\n                /* \"#utility.yul\":890:915   */\n              gt\n                /* \"#utility.yul\":887:889   */\n              iszero\n              tag_187\n              jumpi\n                /* \"#utility.yul\":928:929   */\n              0x00\n                /* \"#utility.yul\":925:926   */\n              dup1\n                /* \"#utility.yul\":918:930   */\n              revert\n                /* \"#utility.yul\":887:889   */\n            tag_187:\n                /* \"#utility.yul\":941:982   */\n              tag_188\n                /* \"#utility.yul\":975:981   */\n              dup5\n                /* \"#utility.yul\":970:973   */\n              dup3\n                /* \"#utility.yul\":965:968   */\n              dup6\n                /* \"#utility.yul\":941:982   */\n              tag_189\n              jump\t// in\n            tag_188:\n                /* \"#utility.yul\":728:988   */\n              pop\n              swap4\n              swap3\n              pop\n              pop\n              pop\n              jump\t// out\n                /* \"#utility.yul\":994:1133   */\n            tag_190:\n              0x00\n                /* \"#utility.yul\":1078:1084   */\n              dup2\n                /* \"#utility.yul\":1065:1085   */\n              calldataload\n                /* \"#utility.yul\":1056:1085   */\n              swap1\n              pop\n                /* \"#utility.yul\":1094:1127   */\n              tag_192\n                /* \"#utility.yul\":1121:1126   */\n              dup2\n                /* \"#utility.yul\":1094:1127   */\n              tag_193\n              jump\t// in\n            tag_192:\n                /* \"#utility.yul\":1046:1133   */\n              swap3\n              swap2\n              pop\n              pop\n              jump\t// out\n                /* \"#utility.yul\":1155:1478   */\n            tag_194:\n              0x00\n                /* \"#utility.yul\":1285:1288   */\n              dup3\n                /* \"#utility.yul\":1278:1282   */\n              0x1f\n                /* \"#utility.yul\":1270:1276   */\n              dup4\n                /* \"#utility.yul\":1266:1283   */\n              add\n                /* \"#utility.yul\":1262:1289   */\n              slt\n                /* \"#utility.yul\":1252:1254   */\n              tag_196\n              jumpi\n                /* \"#utility.yul\":1303:1304   */\n              0x00\n                /* \"#utility.yul\":1300:1301   */\n              dup1\n                /* \"#utility.yul\":1293:1305   */\n              revert\n                /* \"#utility.yul\":1252:1254   */\n            tag_196:\n                /* \"#utility.yul\":1343:1349   */\n              dup2\n                /* \"#utility.yul\":1330:1350   */\n              calldataload\n                /* \"#utility.yul\":1368:1472   */\n              tag_197\n                /* \"#utility.yul\":1468:1471   */\n              dup5\n                /* \"#utility.yul\":1460:1466   */\n              dup3\n                /* \"#utility.yul\":1453:1457   */\n              0x20\n                /* \"#utility.yul\":1445:1451   */\n              dup7\n                /* \"#utility.yul\":1441:1458   */\n              add\n                /* \"#utility.yul\":1368:1472   */\n              tag_171\n              jump\t// in\n            tag_197:\n                /* \"#utility.yul\":1359:1472   */\n              swap2\n              pop\n                /* \"#utility.yul\":1242:1478   */\n              pop\n              swap3\n              swap2\n              pop\n              pop\n              jump\t// out\n                /* \"#utility.yul\":1498:1771   */\n            tag_181:\n              0x00\n                /* \"#utility.yul\":1603:1606   */\n              dup3\n                /* \"#utility.yul\":1596:1600   */\n              0x1f\n                /* \"#utility.yul\":1588:1594   */\n              dup4\n                /* \"#utility.yul\":1584:1601   */\n              add\n                /* \"#utility.yul\":1580:1607   */\n              slt\n                /* \"#utility.yul\":1570:1572   */\n              tag_199\n              jumpi\n                /* \"#utility.yul\":1621:1622   */\n              0x00\n                /* \"#utility.yul\":1618:1619   */\n              dup1\n                /* \"#utility.yul\":1611:1623   */\n              revert\n                /* \"#utility.yul\":1570:1572   */\n            tag_199:\n                /* \"#utility.yul\":1661:1667   */\n              dup2\n                /* \"#utility.yul\":1648:1668   */\n              calldataload\n                /* \"#utility.yul\":1686:1765   */\n              tag_200\n                /* \"#utility.yul\":1761:1764   */\n              dup5\n                /* \"#utility.yul\":1753:1759   */\n              dup3\n                /* \"#utility.yul\":1746:1750   */\n              0x20\n                /* \"#utility.yul\":1738:1744   */\n              dup7\n                /* \"#utility.yul\":1734:1751   */\n              add\n                /* \"#utility.yul\":1686:1765   */\n              tag_182\n              jump\t// in\n            tag_200:\n                /* \"#utility.yul\":1677:1765   */\n              swap2\n              pop\n                /* \"#utility.yul\":1560:1771   */\n              pop\n              swap3\n              swap2\n              pop\n              pop\n              jump\t// out\n                /* \"#utility.yul\":1777:1916   */\n            tag_201:\n              0x00\n                /* \"#utility.yul\":1861:1867   */\n              dup2\n                /* \"#utility.yul\":1848:1868   */\n              calldataload\n                /* \"#utility.yul\":1839:1868   */\n              swap1\n              pop\n                /* \"#utility.yul\":1877:1910   */\n              tag_203\n                /* \"#utility.yul\":1904:1909   */\n              dup2\n                /* \"#utility.yul\":1877:1910   */\n              tag_204\n              jump\t// in\n            tag_203:\n                /* \"#utility.yul\":1829:1916   */\n              swap3\n              swap2\n              pop\n              pop\n              jump\t// out\n                /* \"#utility.yul\":1922:2184   */\n            tag_66:\n              0x00\n                /* \"#utility.yul\":2030:2032   */\n              0x20\n                /* \"#utility.yul\":2018:2027   */\n              dup3\n                /* \"#utility.yul\":2009:2016   */\n              dup5\n                /* \"#utility.yul\":2005:2028   */\n              sub\n                /* \"#utility.yul\":2001:2033   */\n              slt\n                /* \"#utility.yul\":1998:2000   */\n              iszero\n              tag_206\n              jumpi\n                /* \"#utility.yul\":2046:2047   */\n              0x00\n                /* \"#utility.yul\":2043:2044   */\n              dup1\n                /* \"#utility.yul\":2036:2048   */\n              revert\n                /* \"#utility.yul\":1998:2000   */\n            tag_206:\n                /* \"#utility.yul\":2089:2090   */\n              0x00\n                /* \"#utility.yul\":2114:2167   */\n              tag_207\n                /* \"#utility.yul\":2159:2166   */\n              dup5\n                /* \"#utility.yul\":2150:2156   */\n              dup3\n                /* \"#utility.yul\":2139:2148   */\n              dup6\n                /* \"#utility.yul\":2135:2157   */\n              add\n                /* \"#utility.yul\":2114:2167   */\n              tag_190\n              jump\t// in\n            tag_207:\n                /* \"#utility.yul\":2104:2167   */\n              swap2\n              pop\n                /* \"#utility.yul\":2060:2177   */\n              pop\n                /* \"#utility.yul\":1988:2184   */\n              swap3\n              swap2\n              pop\n              pop\n              jump\t// out\n                /* \"#utility.yul\":2190:2615   */\n            tag_60:\n              0x00\n                /* \"#utility.yul\":2333:2335   */\n              0x20\n                /* \"#utility.yul\":2321:2330   */\n              dup3\n                /* \"#utility.yul\":2312:2319   */\n              dup5\n                /* \"#utility.yul\":2308:2331   */\n              sub\n                /* \"#utility.yul\":2304:2336   */\n              slt\n                /* \"#utility.yul\":2301:2303   */\n              iszero\n              tag_209\n              jumpi\n                /* \"#utility.yul\":2349:2350   */\n              0x00\n                /* \"#utility.yul\":2346:2347   */\n              dup1\n                /* \"#utility.yul\":2339:2351   */\n              revert\n                /* \"#utility.yul\":2301:2303   */\n            tag_209:\n                /* \"#utility.yul\":2420:2421   */\n              0x00\n                /* \"#utility.yul\":2409:2418   */\n              dup3\n                /* \"#utility.yul\":2405:2422   */\n              add\n                /* \"#utility.yul\":2392:2423   */\n              calldataload\n                /* \"#utility.yul\":2450:2468   */\n              0xffffffffffffffff\n                /* \"#utility.yul\":2442:2448   */\n              dup2\n                /* \"#utility.yul\":2439:2469   */\n              gt\n                /* \"#utility.yul\":2436:2438   */\n              iszero\n              tag_210\n              jumpi\n                /* \"#utility.yul\":2482:2483   */\n              0x00\n                /* \"#utility.yul\":2479:2480   */\n              dup1\n                /* \"#utility.yul\":2472:2484   */\n              revert\n                /* \"#utility.yul\":2436:2438   */\n            tag_210:\n                /* \"#utility.yul\":2510:2598   */\n              tag_211\n                /* \"#utility.yul\":2590:2597   */\n              dup5\n                /* \"#utility.yul\":2581:2587   */\n              dup3\n                /* \"#utility.yul\":2570:2579   */\n              dup6\n                /* \"#utility.yul\":2566:2588   */\n              add\n                /* \"#utility.yul\":2510:2598   */\n              tag_194\n              jump\t// in\n            tag_211:\n                /* \"#utility.yul\":2500:2598   */\n              swap2\n              pop\n                /* \"#utility.yul\":2363:2608   */\n              pop\n                /* \"#utility.yul\":2291:2615   */\n              swap3\n              swap2\n              pop\n              pop\n              jump\t// out\n                /* \"#utility.yul\":2621:2883   */\n            tag_25:\n              0x00\n                /* \"#utility.yul\":2729:2731   */\n              0x20\n                /* \"#utility.yul\":2717:2726   */\n              dup3\n                /* \"#utility.yul\":2708:2715   */\n              dup5\n                /* \"#utility.yul\":2704:2727   */\n              sub\n                /* \"#utility.yul\":2700:2732   */\n              slt\n                /* \"#utility.yul\":2697:2699   */\n              iszero\n              tag_213\n              jumpi\n                /* \"#utility.yul\":2745:2746   */\n              0x00\n                /* \"#utility.yul\":2742:2743   */\n              dup1\n                /* \"#utility.yul\":2735:2747   */\n              revert\n                /* \"#utility.yul\":2697:2699   */\n            tag_213:\n                /* \"#utility.yul\":2788:2789   */\n              0x00\n                /* \"#utility.yul\":2813:2866   */\n              tag_214\n                /* \"#utility.yul\":2858:2865   */\n              dup5\n                /* \"#utility.yul\":2849:2855   */\n              dup3\n                /* \"#utility.yul\":2838:2847   */\n              dup6\n                /* \"#utility.yul\":2834:2856   */\n              add\n                /* \"#utility.yul\":2813:2866   */\n              tag_201\n              jump\t// in\n            tag_214:\n                /* \"#utility.yul\":2803:2866   */\n              swap2\n              pop\n                /* \"#utility.yul\":2759:2876   */\n              pop\n                /* \"#utility.yul\":2687:2883   */\n              swap3\n              swap2\n              pop\n              pop\n              jump\t// out\n                /* \"#utility.yul\":2889:3141   */\n            tag_215:\n              0x00\n                /* \"#utility.yul\":3041:3135   */\n              tag_217\n                /* \"#utility.yul\":3131:3134   */\n              dup4\n                /* \"#utility.yul\":3123:3129   */\n              dup4\n                /* \"#utility.yul\":3041:3135   */\n              tag_218\n              jump\t// in\n            tag_217:\n                /* \"#utility.yul\":3027:3135   */\n              swap1\n              pop\n                /* \"#utility.yul\":3017:3141   */\n              swap3\n              swap2\n              pop\n              pop\n              jump\t// out\n                /* \"#utility.yul\":3147:3265   */\n            tag_219:\n                /* \"#utility.yul\":3234:3258   */\n              tag_221\n                /* \"#utility.yul\":3252:3257   */\n              dup2\n                /* \"#utility.yul\":3234:3258   */\n              tag_222\n              jump\t// in\n            tag_221:\n                /* \"#utility.yul\":3229:3232   */\n              dup3\n                /* \"#utility.yul\":3222:3259   */\n              mstore\n                /* \"#utility.yul\":3212:3265   */\n              pop\n              pop\n              jump\t// out\n                /* \"#utility.yul\":3331:4434   */\n            tag_223:\n              0x00\n                /* \"#utility.yul\":3527:3605   */\n              tag_225\n                /* \"#utility.yul\":3599:3604   */\n              dup3\n                /* \"#utility.yul\":3527:3605   */\n              tag_226\n              jump\t// in\n            tag_225:\n                /* \"#utility.yul\":3621:3731   */\n              tag_227\n                /* \"#utility.yul\":3724:3730   */\n              dup2\n                /* \"#utility.yul\":3719:3722   */\n              dup6\n                /* \"#utility.yul\":3621:3731   */\n              tag_228\n              jump\t// in\n            tag_227:\n                /* \"#utility.yul\":3614:3731   */\n              swap4\n              pop\n                /* \"#utility.yul\":3757:3760   */\n              dup4\n                /* \"#utility.yul\":3802:3806   */\n              0x20\n                /* \"#utility.yul\":3794:3800   */\n              dup3\n                /* \"#utility.yul\":3790:3807   */\n              mul\n                /* \"#utility.yul\":3785:3788   */\n              dup6\n                /* \"#utility.yul\":3781:3808   */\n              add\n                /* \"#utility.yul\":3832:3912   */\n              tag_229\n                /* \"#utility.yul\":3906:3911   */\n              dup6\n                /* \"#utility.yul\":3832:3912   */\n              tag_230\n              jump\t// in\n            tag_229:\n                /* \"#utility.yul\":3935:3942   */\n              dup1\n                /* \"#utility.yul\":3966:3967   */\n              0x00\n                /* \"#utility.yul\":3951:4389   */\n            tag_231:\n                /* \"#utility.yul\":3976:3982   */\n              dup6\n                /* \"#utility.yul\":3973:3974   */\n              dup2\n                /* \"#utility.yul\":3970:3983   */\n              lt\n                /* \"#utility.yul\":3951:4389   */\n              iszero\n              tag_233\n              jumpi\n                /* \"#utility.yul\":4047:4056   */\n              dup5\n                /* \"#utility.yul\":4041:4045   */\n              dup5\n                /* \"#utility.yul\":4037:4057   */\n              sub\n                /* \"#utility.yul\":4032:4035   */\n              dup10\n                /* \"#utility.yul\":4025:4058   */\n              mstore\n                /* \"#utility.yul\":4098:4104   */\n              dup2\n                /* \"#utility.yul\":4092:4105   */\n              mload\n                /* \"#utility.yul\":4126:4238   */\n              tag_234\n                /* \"#utility.yul\":4233:4237   */\n              dup6\n                /* \"#utility.yul\":4218:4231   */\n              dup3\n                /* \"#utility.yul\":4126:4238   */\n              tag_215\n              jump\t// in\n            tag_234:\n                /* \"#utility.yul\":4118:4238   */\n              swap5\n              pop\n                /* \"#utility.yul\":4261:4345   */\n              tag_235\n                /* \"#utility.yul\":4338:4344   */\n              dup4\n                /* \"#utility.yul\":4261:4345   */\n              tag_236\n              jump\t// in\n            tag_235:\n                /* \"#utility.yul\":4251:4345   */\n              swap3\n              pop\n                /* \"#utility.yul\":4374:4378   */\n              0x20\n                /* \"#utility.yul\":4369:4372   */\n              dup11\n                /* \"#utility.yul\":4365:4379   */\n              add\n                /* \"#utility.yul\":4358:4379   */\n              swap10\n              pop\n                /* \"#utility.yul\":4011:4389   */\n              pop\n                /* \"#utility.yul\":3998:3999   */\n              0x01\n                /* \"#utility.yul\":3995:3996   */\n              dup2\n                /* \"#utility.yul\":3991:4000   */\n              add\n                /* \"#utility.yul\":3986:4000   */\n              swap1\n              pop\n                /* \"#utility.yul\":3951:4389   */\n              jump(tag_231)\n            tag_233:\n                /* \"#utility.yul\":3955:3969   */\n              pop\n                /* \"#utility.yul\":4405:4409   */\n              dup3\n                /* \"#utility.yul\":4398:4409   */\n              swap8\n              pop\n                /* \"#utility.yul\":4425:4428   */\n              dup8\n                /* \"#utility.yul\":4418:4428   */\n              swap6\n              pop\n                /* \"#utility.yul\":3503:4434   */\n              pop\n              pop\n              pop\n              pop\n              pop\n              swap3\n              swap2\n              pop\n              pop\n              jump\t// out\n                /* \"#utility.yul\":4440:4549   */\n            tag_237:\n                /* \"#utility.yul\":4521:4542   */\n              tag_239\n                /* \"#utility.yul\":4536:4541   */\n              dup2\n                /* \"#utility.yul\":4521:4542   */\n              tag_240\n              jump\t// in\n            tag_239:\n                /* \"#utility.yul\":4516:4519   */\n              dup3\n                /* \"#utility.yul\":4509:4543   */\n              mstore\n                /* \"#utility.yul\":4499:4549   */\n              pop\n              pop\n              jump\t// out\n                /* \"#utility.yul\":4555:4899   */\n            tag_241:\n              0x00\n                /* \"#utility.yul\":4661:4700   */\n              tag_243\n                /* \"#utility.yul\":4694:4699   */\n              dup3\n                /* \"#utility.yul\":4661:4700   */\n              tag_244\n              jump\t// in\n            tag_243:\n                /* \"#utility.yul\":4716:4777   */\n              tag_245\n                /* \"#utility.yul\":4770:4776   */\n              dup2\n                /* \"#utility.yul\":4765:4768   */\n              dup6\n                /* \"#utility.yul\":4716:4777   */\n              tag_246\n              jump\t// in\n            tag_245:\n                /* \"#utility.yul\":4709:4777   */\n              swap4\n              pop\n                /* \"#utility.yul\":4786:4838   */\n              tag_247\n                /* \"#utility.yul\":4831:4837   */\n              dup2\n                /* \"#utility.yul\":4826:4829   */\n              dup6\n                /* \"#utility.yul\":4819:4823   */\n              0x20\n                /* \"#utility.yul\":4812:4817   */\n              dup7\n                /* \"#utility.yul\":4808:4824   */\n              add\n                /* \"#utility.yul\":4786:4838   */\n              tag_248\n              jump\t// in\n            tag_247:\n                /* \"#utility.yul\":4863:4892   */\n              tag_249\n                /* \"#utility.yul\":4885:4891   */\n              dup2\n                /* \"#utility.yul\":4863:4892   */\n              tag_250\n              jump\t// in\n            tag_249:\n                /* \"#utility.yul\":4858:4861   */\n              dup5\n                /* \"#utility.yul\":4854:4893   */\n              add\n                /* \"#utility.yul\":4847:4893   */\n              swap2\n              pop\n                /* \"#utility.yul\":4637:4899   */\n              pop\n              swap3\n              swap2\n              pop\n              pop\n              jump\t// out\n                /* \"#utility.yul\":4905:5269   */\n            tag_251:\n              0x00\n                /* \"#utility.yul\":5021:5060   */\n              tag_253\n                /* \"#utility.yul\":5054:5059   */\n              dup3\n                /* \"#utility.yul\":5021:5060   */\n              tag_244\n              jump\t// in\n            tag_253:\n                /* \"#utility.yul\":5076:5147   */\n              tag_254\n                /* \"#utility.yul\":5140:5146   */\n              dup2\n                /* \"#utility.yul\":5135:5138   */\n              dup6\n                /* \"#utility.yul\":5076:5147   */\n              tag_255\n              jump\t// in\n            tag_254:\n                /* \"#utility.yul\":5069:5147   */\n              swap4\n              pop\n                /* \"#utility.yul\":5156:5208   */\n              tag_256\n                /* \"#utility.yul\":5201:5207   */\n              dup2\n                /* \"#utility.yul\":5196:5199   */\n              dup6\n                /* \"#utility.yul\":5189:5193   */\n              0x20\n                /* \"#utility.yul\":5182:5187   */\n              dup7\n                /* \"#utility.yul\":5178:5194   */\n              add\n                /* \"#utility.yul\":5156:5208   */\n              tag_248\n              jump\t// in\n            tag_256:\n                /* \"#utility.yul\":5233:5262   */\n              tag_257\n                /* \"#utility.yul\":5255:5261   */\n              dup2\n                /* \"#utility.yul\":5233:5262   */\n              tag_250\n              jump\t// in\n            tag_257:\n                /* \"#utility.yul\":5228:5231   */\n              dup5\n                /* \"#utility.yul\":5224:5263   */\n              add\n                /* \"#utility.yul\":5217:5263   */\n              swap2\n              pop\n                /* \"#utility.yul\":4997:5269   */\n              pop\n              swap3\n              swap2\n              pop\n              pop\n              jump\t// out\n                /* \"#utility.yul\":5331:5930   */\n            tag_218:\n              0x00\n                /* \"#utility.yul\":5474:5478   */\n              0x40\n                /* \"#utility.yul\":5469:5472   */\n              dup4\n                /* \"#utility.yul\":5465:5479   */\n              add\n                /* \"#utility.yul\":5561:5565   */\n              0x00\n                /* \"#utility.yul\":5554:5559   */\n              dup4\n                /* \"#utility.yul\":5550:5566   */\n              add\n                /* \"#utility.yul\":5544:5567   */\n              mload\n                /* \"#utility.yul\":5614:5617   */\n              dup5\n                /* \"#utility.yul\":5608:5612   */\n              dup3\n                /* \"#utility.yul\":5604:5618   */\n              sub\n                /* \"#utility.yul\":5597:5601   */\n              0x00\n                /* \"#utility.yul\":5592:5595   */\n              dup7\n                /* \"#utility.yul\":5588:5602   */\n              add\n                /* \"#utility.yul\":5581:5619   */\n              mstore\n                /* \"#utility.yul\":5640:5713   */\n              tag_259\n                /* \"#utility.yul\":5708:5712   */\n              dup3\n                /* \"#utility.yul\":5694:5706   */\n              dup3\n                /* \"#utility.yul\":5640:5713   */\n              tag_241\n              jump\t// in\n            tag_259:\n                /* \"#utility.yul\":5632:5713   */\n              swap2\n              pop\n                /* \"#utility.yul\":5489:5724   */\n              pop\n                /* \"#utility.yul\":5811:5815   */\n              0x20\n                /* \"#utility.yul\":5804:5809   */\n              dup4\n                /* \"#utility.yul\":5800:5816   */\n              add\n                /* \"#utility.yul\":5794:5817   */\n              mload\n                /* \"#utility.yul\":5830:5893   */\n              tag_260\n                /* \"#utility.yul\":5887:5891   */\n              0x20\n                /* \"#utility.yul\":5882:5885   */\n              dup7\n                /* \"#utility.yul\":5878:5892   */\n              add\n                /* \"#utility.yul\":5864:5876   */\n              dup3\n                /* \"#utility.yul\":5830:5893   */\n              tag_261\n              jump\t// in\n            tag_260:\n                /* \"#utility.yul\":5734:5903   */\n              pop\n                /* \"#utility.yul\":5920:5924   */\n              dup1\n                /* \"#utility.yul\":5913:5924   */\n              swap2\n              pop\n                /* \"#utility.yul\":5443:5930   */\n              pop\n              swap3\n              swap2\n              pop\n              pop\n              jump\t// out\n                /* \"#utility.yul\":5992:6601   */\n            tag_262:\n              0x00\n                /* \"#utility.yul\":6145:6149   */\n              0x40\n                /* \"#utility.yul\":6140:6143   */\n              dup4\n                /* \"#utility.yul\":6136:6150   */\n              add\n                /* \"#utility.yul\":6232:6236   */\n              0x00\n                /* \"#utility.yul\":6225:6230   */\n              dup4\n                /* \"#utility.yul\":6221:6237   */\n              add\n                /* \"#utility.yul\":6215:6238   */\n              mload\n                /* \"#utility.yul\":6285:6288   */\n              dup5\n                /* \"#utility.yul\":6279:6283   */\n              dup3\n                /* \"#utility.yul\":6275:6289   */\n              sub\n                /* \"#utility.yul\":6268:6272   */\n              0x00\n                /* \"#utility.yul\":6263:6266   */\n              dup7\n                /* \"#utility.yul\":6259:6273   */\n              add\n                /* \"#utility.yul\":6252:6290   */\n              mstore\n                /* \"#utility.yul\":6311:6384   */\n              tag_264\n                /* \"#utility.yul\":6379:6383   */\n              dup3\n                /* \"#utility.yul\":6365:6377   */\n              dup3\n                /* \"#utility.yul\":6311:6384   */\n              tag_241\n              jump\t// in\n            tag_264:\n                /* \"#utility.yul\":6303:6384   */\n              swap2\n              pop\n                /* \"#utility.yul\":6160:6395   */\n              pop\n                /* \"#utility.yul\":6482:6486   */\n              0x20\n                /* \"#utility.yul\":6475:6480   */\n              dup4\n                /* \"#utility.yul\":6471:6487   */\n              add\n                /* \"#utility.yul\":6465:6488   */\n              mload\n                /* \"#utility.yul\":6501:6564   */\n              tag_265\n                /* \"#utility.yul\":6558:6562   */\n              0x20\n                /* \"#utility.yul\":6553:6556   */\n              dup7\n                /* \"#utility.yul\":6549:6563   */\n              add\n                /* \"#utility.yul\":6535:6547   */\n              dup3\n                /* \"#utility.yul\":6501:6564   */\n              tag_261\n              jump\t// in\n            tag_265:\n                /* \"#utility.yul\":6405:6574   */\n              pop\n                /* \"#utility.yul\":6591:6595   */\n              dup1\n                /* \"#utility.yul\":6584:6595   */\n              swap2\n              pop\n                /* \"#utility.yul\":6114:6601   */\n              pop\n              swap3\n              swap2\n              pop\n              pop\n              jump\t// out\n                /* \"#utility.yul\":6607:6715   */\n            tag_261:\n                /* \"#utility.yul\":6684:6708   */\n              tag_267\n                /* \"#utility.yul\":6702:6707   */\n              dup2\n                /* \"#utility.yul\":6684:6708   */\n              tag_268\n              jump\t// in\n            tag_267:\n                /* \"#utility.yul\":6679:6682   */\n              dup3\n                /* \"#utility.yul\":6672:6709   */\n              mstore\n                /* \"#utility.yul\":6662:6715   */\n              pop\n              pop\n              jump\t// out\n                /* \"#utility.yul\":6721:6839   */\n            tag_269:\n                /* \"#utility.yul\":6808:6832   */\n              tag_271\n                /* \"#utility.yul\":6826:6831   */\n              dup2\n                /* \"#utility.yul\":6808:6832   */\n              tag_268\n              jump\t// in\n            tag_271:\n                /* \"#utility.yul\":6803:6806   */\n              dup3\n                /* \"#utility.yul\":6796:6833   */\n              mstore\n                /* \"#utility.yul\":6786:6839   */\n              pop\n              pop\n              jump\t// out\n                /* \"#utility.yul\":6845:7067   */\n            tag_55:\n              0x00\n                /* \"#utility.yul\":6976:6978   */\n              0x20\n                /* \"#utility.yul\":6965:6974   */\n              dup3\n                /* \"#utility.yul\":6961:6979   */\n              add\n                /* \"#utility.yul\":6953:6979   */\n              swap1\n              pop\n                /* \"#utility.yul\":6989:7060   */\n              tag_273\n                /* \"#utility.yul\":7057:7058   */\n              0x00\n                /* \"#utility.yul\":7046:7055   */\n              dup4\n                /* \"#utility.yul\":7042:7059   */\n              add\n                /* \"#utility.yul\":7033:7039   */\n              dup5\n                /* \"#utility.yul\":6989:7060   */\n              tag_219\n              jump\t// in\n            tag_273:\n                /* \"#utility.yul\":6943:7067   */\n              swap3\n              swap2\n              pop\n              pop\n              jump\t// out\n                /* \"#utility.yul\":7073:7542   */\n            tag_45:\n              0x00\n                /* \"#utility.yul\":7302:7304   */\n              0x20\n                /* \"#utility.yul\":7291:7300   */\n              dup3\n                /* \"#utility.yul\":7287:7305   */\n              add\n                /* \"#utility.yul\":7279:7305   */\n              swap1\n              pop\n                /* \"#utility.yul\":7351:7360   */\n              dup2\n                /* \"#utility.yul\":7345:7349   */\n              dup2\n                /* \"#utility.yul\":7341:7361   */\n              sub\n                /* \"#utility.yul\":7337:7338   */\n              0x00\n                /* \"#utility.yul\":7326:7335   */\n              dup4\n                /* \"#utility.yul\":7322:7339   */\n              add\n                /* \"#utility.yul\":7315:7362   */\n              mstore\n                /* \"#utility.yul\":7379:7535   */\n              tag_275\n                /* \"#utility.yul\":7530:7534   */\n              dup2\n                /* \"#utility.yul\":7521:7527   */\n              dup5\n                /* \"#utility.yul\":7379:7535   */\n              tag_223\n              jump\t// in\n            tag_275:\n                /* \"#utility.yul\":7371:7535   */\n              swap1\n              pop\n                /* \"#utility.yul\":7269:7542   */\n              swap3\n              swap2\n              pop\n              pop\n              jump\t// out\n                /* \"#utility.yul\":7548:7861   */\n            tag_79:\n              0x00\n                /* \"#utility.yul\":7699:7701   */\n              0x20\n                /* \"#utility.yul\":7688:7697   */\n              dup3\n                /* \"#utility.yul\":7684:7702   */\n              add\n                /* \"#utility.yul\":7676:7702   */\n              swap1\n              pop\n                /* \"#utility.yul\":7748:7757   */\n              dup2\n                /* \"#utility.yul\":7742:7746   */\n              dup2\n                /* \"#utility.yul\":7738:7758   */\n              sub\n                /* \"#utility.yul\":7734:7735   */\n              0x00\n                /* \"#utility.yul\":7723:7732   */\n              dup4\n                /* \"#utility.yul\":7719:7736   */\n              add\n                /* \"#utility.yul\":7712:7759   */\n              mstore\n                /* \"#utility.yul\":7776:7854   */\n              tag_277\n                /* \"#utility.yul\":7849:7853   */\n              dup2\n                /* \"#utility.yul\":7840:7846   */\n              dup5\n                /* \"#utility.yul\":7776:7854   */\n              tag_251\n              jump\t// in\n            tag_277:\n                /* \"#utility.yul\":7768:7854   */\n              swap1\n              pop\n                /* \"#utility.yul\":7666:7861   */\n              swap3\n              swap2\n              pop\n              pop\n              jump\t// out\n                /* \"#utility.yul\":7867:8290   */\n            tag_31:\n              0x00\n                /* \"#utility.yul\":8046:8048   */\n              0x40\n                /* \"#utility.yul\":8035:8044   */\n              dup3\n                /* \"#utility.yul\":8031:8049   */\n              add\n                /* \"#utility.yul\":8023:8049   */\n              swap1\n              pop\n                /* \"#utility.yul\":8095:8104   */\n              dup2\n                /* \"#utility.yul\":8089:8093   */\n              dup2\n                /* \"#utility.yul\":8085:8105   */\n              sub\n                /* \"#utility.yul\":8081:8082   */\n              0x00\n                /* \"#utility.yul\":8070:8079   */\n              dup4\n                /* \"#utility.yul\":8066:8083   */\n              add\n                /* \"#utility.yul\":8059:8106   */\n              mstore\n                /* \"#utility.yul\":8123:8201   */\n              tag_279\n                /* \"#utility.yul\":8196:8200   */\n              dup2\n                /* \"#utility.yul\":8187:8193   */\n              dup6\n                /* \"#utility.yul\":8123:8201   */\n              tag_251\n              jump\t// in\n            tag_279:\n                /* \"#utility.yul\":8115:8201   */\n              swap1\n              pop\n                /* \"#utility.yul\":8211:8283   */\n              tag_280\n                /* \"#utility.yul\":8279:8281   */\n              0x20\n                /* \"#utility.yul\":8268:8277   */\n              dup4\n                /* \"#utility.yul\":8264:8282   */\n              add\n                /* \"#utility.yul\":8255:8261   */\n              dup5\n                /* \"#utility.yul\":8211:8283   */\n              tag_269\n              jump\t// in\n            tag_280:\n                /* \"#utility.yul\":8013:8290   */\n              swap4\n              swap3\n              pop\n              pop\n              pop\n              jump\t// out\n                /* \"#utility.yul\":8296:8665   */\n            tag_84:\n              0x00\n                /* \"#utility.yul\":8475:8477   */\n              0x20\n                /* \"#utility.yul\":8464:8473   */\n              dup3\n                /* \"#utility.yul\":8460:8478   */\n              add\n                /* \"#utility.yul\":8452:8478   */\n              swap1\n              pop\n                /* \"#utility.yul\":8524:8533   */\n              dup2\n                /* \"#utility.yul\":8518:8522   */\n              dup2\n                /* \"#utility.yul\":8514:8534   */\n              sub\n                /* \"#utility.yul\":8510:8511   */\n              0x00\n                /* \"#utility.yul\":8499:8508   */\n              dup4\n                /* \"#utility.yul\":8495:8512   */\n              add\n                /* \"#utility.yul\":8488:8535   */\n              mstore\n                /* \"#utility.yul\":8552:8658   */\n              tag_282\n                /* \"#utility.yul\":8653:8657   */\n              dup2\n                /* \"#utility.yul\":8644:8650   */\n              dup5\n                /* \"#utility.yul\":8552:8658   */\n              tag_262\n              jump\t// in\n            tag_282:\n                /* \"#utility.yul\":8544:8658   */\n              swap1\n              pop\n                /* \"#utility.yul\":8442:8665   */\n              swap3\n              swap2\n              pop\n              pop\n              jump\t// out\n                /* \"#utility.yul\":8671:8893   */\n            tag_35:\n              0x00\n                /* \"#utility.yul\":8802:8804   */\n              0x20\n                /* \"#utility.yul\":8791:8800   */\n              dup3\n                /* \"#utility.yul\":8787:8805   */\n              add\n                /* \"#utility.yul\":8779:8805   */\n              swap1\n              pop\n                /* \"#utility.yul\":8815:8886   */\n              tag_284\n                /* \"#utility.yul\":8883:8884   */\n              0x00\n                /* \"#utility.yul\":8872:8881   */\n              dup4\n                /* \"#utility.yul\":8868:8885   */\n              add\n                /* \"#utility.yul\":8859:8865   */\n              dup5\n                /* \"#utility.yul\":8815:8886   */\n              tag_269\n              jump\t// in\n            tag_284:\n                /* \"#utility.yul\":8769:8893   */\n              swap3\n              swap2\n              pop\n              pop\n              jump\t// out\n                /* \"#utility.yul\":8899:9440   */\n            tag_72:\n              0x00\n                /* \"#utility.yul\":9108:9111   */\n              0x80\n                /* \"#utility.yul\":9097:9106   */\n              dup3\n                /* \"#utility.yul\":9093:9112   */\n              add\n                /* \"#utility.yul\":9085:9112   */\n              swap1\n              pop\n                /* \"#utility.yul\":9122:9193   */\n              tag_286\n                /* \"#utility.yul\":9190:9191   */\n              0x00\n                /* \"#utility.yul\":9179:9188   */\n              dup4\n                /* \"#utility.yul\":9175:9192   */\n              add\n                /* \"#utility.yul\":9166:9172   */\n              dup8\n                /* \"#utility.yul\":9122:9193   */\n              tag_269\n              jump\t// in\n            tag_286:\n                /* \"#utility.yul\":9203:9269   */\n              tag_287\n                /* \"#utility.yul\":9265:9267   */\n              0x20\n                /* \"#utility.yul\":9254:9263   */\n              dup4\n                /* \"#utility.yul\":9250:9268   */\n              add\n                /* \"#utility.yul\":9241:9247   */\n              dup7\n                /* \"#utility.yul\":9203:9269   */\n              tag_237\n              jump\t// in\n            tag_287:\n                /* \"#utility.yul\":9279:9351   */\n              tag_288\n                /* \"#utility.yul\":9347:9349   */\n              0x40\n                /* \"#utility.yul\":9336:9345   */\n              dup4\n                /* \"#utility.yul\":9332:9350   */\n              add\n                /* \"#utility.yul\":9323:9329   */\n              dup6\n                /* \"#utility.yul\":9279:9351   */\n              tag_219\n              jump\t// in\n            tag_288:\n                /* \"#utility.yul\":9361:9433   */\n              tag_289\n                /* \"#utility.yul\":9429:9431   */\n              0x60\n                /* \"#utility.yul\":9418:9427   */\n              dup4\n                /* \"#utility.yul\":9414:9432   */\n              add\n                /* \"#utility.yul\":9405:9411   */\n              dup5\n                /* \"#utility.yul\":9361:9433   */\n              tag_269\n              jump\t// in\n            tag_289:\n                /* \"#utility.yul\":9075:9440   */\n              swap6\n              swap5\n              pop\n              pop\n              pop\n              pop\n              pop\n              jump\t// out\n                /* \"#utility.yul\":9446:9729   */\n            tag_176:\n              0x00\n                /* \"#utility.yul\":9512:9514   */\n              0x40\n                /* \"#utility.yul\":9506:9515   */\n              mload\n                /* \"#utility.yul\":9496:9515   */\n              swap1\n              pop\n                /* \"#utility.yul\":9554:9558   */\n              dup2\n                /* \"#utility.yul\":9546:9552   */\n              dup2\n                /* \"#utility.yul\":9542:9559   */\n              add\n                /* \"#utility.yul\":9661:9667   */\n              dup2\n                /* \"#utility.yul\":9649:9659   */\n              dup2\n                /* \"#utility.yul\":9646:9668   */\n              lt\n                /* \"#utility.yul\":9625:9643   */\n              0xffffffffffffffff\n                /* \"#utility.yul\":9613:9623   */\n              dup3\n                /* \"#utility.yul\":9610:9644   */\n              gt\n                /* \"#utility.yul\":9607:9669   */\n              or\n                /* \"#utility.yul\":9604:9606   */\n              iszero\n              tag_291\n              jumpi\n                /* \"#utility.yul\":9672:9690   */\n              tag_292\n              tag_293\n              jump\t// in\n            tag_292:\n                /* \"#utility.yul\":9604:9606   */\n            tag_291:\n                /* \"#utility.yul\":9712:9722   */\n              dup1\n                /* \"#utility.yul\":9708:9710   */\n              0x40\n                /* \"#utility.yul\":9701:9723   */\n              mstore\n                /* \"#utility.yul\":9486:9729   */\n              pop\n              swap2\n              swap1\n              pop\n              jump\t// out\n                /* \"#utility.yul\":9735:10056   */\n            tag_175:\n              0x00\n                /* \"#utility.yul\":9912:9930   */\n              0xffffffffffffffff\n                /* \"#utility.yul\":9904:9910   */\n              dup3\n                /* \"#utility.yul\":9901:9931   */\n              gt\n                /* \"#utility.yul\":9898:9900   */\n              iszero\n              tag_295\n              jumpi\n                /* \"#utility.yul\":9934:9952   */\n              tag_296\n              tag_293\n              jump\t// in\n            tag_296:\n                /* \"#utility.yul\":9898:9900   */\n            tag_295:\n                /* \"#utility.yul\":9984:9988   */\n              0x20\n                /* \"#utility.yul\":9976:9982   */\n              dup3\n                /* \"#utility.yul\":9972:9989   */\n              mul\n                /* \"#utility.yul\":9964:9989   */\n              swap1\n              pop\n                /* \"#utility.yul\":10044:10048   */\n              0x20\n                /* \"#utility.yul\":10038:10042   */\n              dup2\n                /* \"#utility.yul\":10034:10049   */\n              add\n                /* \"#utility.yul\":10026:10049   */\n              swap1\n              pop\n                /* \"#utility.yul\":9827:10056   */\n              swap2\n              swap1\n              pop\n              jump\t// out\n                /* \"#utility.yul\":10062:10394   */\n            tag_186:\n              0x00\n                /* \"#utility.yul\":10214:10232   */\n              0xffffffffffffffff\n                /* \"#utility.yul\":10206:10212   */\n              dup3\n                /* \"#utility.yul\":10203:10233   */\n              gt\n                /* \"#utility.yul\":10200:10202   */\n              iszero\n              tag_298\n              jumpi\n                /* \"#utility.yul\":10236:10254   */\n              tag_299\n              tag_293\n              jump\t// in\n            tag_299:\n                /* \"#utility.yul\":10200:10202   */\n            tag_298:\n                /* \"#utility.yul\":10321:10325   */\n              0x1f\n                /* \"#utility.yul\":10317:10326   */\n              not\n                /* \"#utility.yul\":10310:10314   */\n              0x1f\n                /* \"#utility.yul\":10302:10308   */\n              dup4\n                /* \"#utility.yul\":10298:10315   */\n              add\n                /* \"#utility.yul\":10294:10327   */\n              and\n                /* \"#utility.yul\":10286:10327   */\n              swap1\n              pop\n                /* \"#utility.yul\":10382:10386   */\n              0x20\n                /* \"#utility.yul\":10376:10380   */\n              dup2\n                /* \"#utility.yul\":10372:10387   */\n              add\n                /* \"#utility.yul\":10364:10387   */\n              swap1\n              pop\n                /* \"#utility.yul\":10129:10394   */\n              swap2\n              swap1\n              pop\n              jump\t// out\n                /* \"#utility.yul\":10400:10556   */\n            tag_230:\n              0x00\n                /* \"#utility.yul\":10514:10517   */\n              dup2\n                /* \"#utility.yul\":10506:10517   */\n              swap1\n              pop\n                /* \"#utility.yul\":10544:10548   */\n              0x20\n                /* \"#utility.yul\":10539:10542   */\n              dup3\n                /* \"#utility.yul\":10535:10549   */\n              add\n                /* \"#utility.yul\":10527:10549   */\n              swap1\n              pop\n                /* \"#utility.yul\":10496:10556   */\n              swap2\n              swap1\n              pop\n              jump\t// out\n                /* \"#utility.yul\":10562:10700   */\n            tag_226:\n              0x00\n                /* \"#utility.yul\":10687:10692   */\n              dup2\n                /* \"#utility.yul\":10681:10693   */\n              mload\n                /* \"#utility.yul\":10671:10693   */\n              swap1\n              pop\n                /* \"#utility.yul\":10660:10700   */\n              swap2\n              swap1\n              pop\n              jump\t// out\n                /* \"#utility.yul\":10706:10805   */\n            tag_244:\n              0x00\n                /* \"#utility.yul\":10792:10797   */\n              dup2\n                /* \"#utility.yul\":10786:10798   */\n              mload\n                /* \"#utility.yul\":10776:10798   */\n              swap1\n              pop\n                /* \"#utility.yul\":10765:10805   */\n              swap2\n              swap1\n              pop\n              jump\t// out\n                /* \"#utility.yul\":10811:10948   */\n            tag_236:\n              0x00\n                /* \"#utility.yul\":10937:10941   */\n              0x20\n                /* \"#utility.yul\":10932:10935   */\n              dup3\n                /* \"#utility.yul\":10928:10942   */\n              add\n                /* \"#utility.yul\":10920:10942   */\n              swap1\n              pop\n                /* \"#utility.yul\":10910:10948   */\n              swap2\n              swap1\n              pop\n              jump\t// out\n                /* \"#utility.yul\":10954:11162   */\n            tag_228:\n              0x00\n                /* \"#utility.yul\":11111:11117   */\n              dup3\n                /* \"#utility.yul\":11106:11109   */\n              dup3\n                /* \"#utility.yul\":11099:11118   */\n              mstore\n                /* \"#utility.yul\":11151:11155   */\n              0x20\n                /* \"#utility.yul\":11146:11149   */\n              dup3\n                /* \"#utility.yul\":11142:11156   */\n              add\n                /* \"#utility.yul\":11127:11156   */\n              swap1\n              pop\n                /* \"#utility.yul\":11089:11162   */\n              swap3\n              swap2\n              pop\n              pop\n              jump\t// out\n                /* \"#utility.yul\":11168:11327   */\n            tag_246:\n              0x00\n                /* \"#utility.yul\":11276:11282   */\n              dup3\n                /* \"#utility.yul\":11271:11274   */\n              dup3\n                /* \"#utility.yul\":11264:11283   */\n              mstore\n                /* \"#utility.yul\":11316:11320   */\n              0x20\n                /* \"#utility.yul\":11311:11314   */\n              dup3\n                /* \"#utility.yul\":11307:11321   */\n              add\n                /* \"#utility.yul\":11292:11321   */\n              swap1\n              pop\n                /* \"#utility.yul\":11254:11327   */\n              swap3\n              swap2\n              pop\n              pop\n              jump\t// out\n                /* \"#utility.yul\":11333:11502   */\n            tag_255:\n              0x00\n                /* \"#utility.yul\":11451:11457   */\n              dup3\n                /* \"#utility.yul\":11446:11449   */\n              dup3\n                /* \"#utility.yul\":11439:11458   */\n              mstore\n                /* \"#utility.yul\":11491:11495   */\n              0x20\n                /* \"#utility.yul\":11486:11489   */\n              dup3\n                /* \"#utility.yul\":11482:11496   */\n              add\n                /* \"#utility.yul\":11467:11496   */\n              swap1\n              pop\n                /* \"#utility.yul\":11429:11502   */\n              swap3\n              swap2\n              pop\n              pop\n              jump\t// out\n                /* \"#utility.yul\":11508:11813   */\n            tag_90:\n              0x00\n                /* \"#utility.yul\":11567:11587   */\n              tag_308\n                /* \"#utility.yul\":11585:11586   */\n              dup3\n                /* \"#utility.yul\":11567:11587   */\n              tag_268\n              jump\t// in\n            tag_308:\n                /* \"#utility.yul\":11562:11587   */\n              swap2\n              pop\n                /* \"#utility.yul\":11601:11621   */\n              tag_309\n                /* \"#utility.yul\":11619:11620   */\n              dup4\n                /* \"#utility.yul\":11601:11621   */\n              tag_268\n              jump\t// in\n            tag_309:\n                /* \"#utility.yul\":11596:11621   */\n              swap3\n              pop\n                /* \"#utility.yul\":11755:11756   */\n              dup3\n                /* \"#utility.yul\":11687:11753   */\n              0xffffffffffffffffffffffffffffffffffffffffffffffffffffffffffffffff\n                /* \"#utility.yul\":11683:11757   */\n              sub\n                /* \"#utility.yul\":11680:11681   */\n              dup3\n                /* \"#utility.yul\":11677:11758   */\n              gt\n                /* \"#utility.yul\":11674:11676   */\n              iszero\n              tag_310\n              jumpi\n                /* \"#utility.yul\":11761:11779   */\n              tag_311\n              tag_312\n              jump\t// in\n            tag_311:\n                /* \"#utility.yul\":11674:11676   */\n            tag_310:\n                /* \"#utility.yul\":11805:11806   */\n              dup3\n                /* \"#utility.yul\":11802:11803   */\n              dup3\n                /* \"#utility.yul\":11798:11807   */\n              add\n                /* \"#utility.yul\":11791:11807   */\n              swap1\n              pop\n                /* \"#utility.yul\":11552:11813   */\n              swap3\n              swap2\n              pop\n              pop\n              jump\t// out\n                /* \"#utility.yul\":11819:11915   */\n            tag_222:\n              0x00\n                /* \"#utility.yul\":11885:11909   */\n              tag_314\n                /* \"#utility.yul\":11903:11908   */\n              dup3\n                /* \"#utility.yul\":11885:11909   */\n              tag_315\n              jump\t// in\n            tag_314:\n                /* \"#utility.yul\":11874:11909   */\n              swap1\n              pop\n                /* \"#utility.yul\":11864:11915   */\n              swap2\n              swap1\n              pop\n              jump\t// out\n                /* \"#utility.yul\":11921:12011   */\n            tag_240:\n              0x00\n                /* \"#utility.yul\":11998:12003   */\n              dup2\n                /* \"#utility.yul\":11991:12004   */\n              iszero\n                /* \"#utility.yul\":11984:12005   */\n              iszero\n                /* \"#utility.yul\":11973:12005   */\n              swap1\n              pop\n                /* \"#utility.yul\":11963:12011   */\n              swap2\n              swap1\n              pop\n              jump\t// out\n                /* \"#utility.yul\":12017:12143   */\n            tag_315:\n              0x00\n                /* \"#utility.yul\":12094:12136   */\n              0xffffffffffffffffffffffffffffffffffffffff\n                /* \"#utility.yul\":12087:12092   */\n              dup3\n                /* \"#utility.yul\":12083:12137   */\n              and\n                /* \"#utility.yul\":12072:12137   */\n              swap1\n              pop\n                /* \"#utility.yul\":12062:12143   */\n              swap2\n              swap1\n              pop\n              jump\t// out\n                /* \"#utility.yul\":12149:12226   */\n            tag_268:\n              0x00\n                /* \"#utility.yul\":12215:12220   */\n              dup2\n                /* \"#utility.yul\":12204:12220   */\n              swap1\n              pop\n                /* \"#utility.yul\":12194:12226   */\n              swap2\n              swap1\n              pop\n              jump\t// out\n                /* \"#utility.yul\":12232:12386   */\n            tag_189:\n                /* \"#utility.yul\":12316:12322   */\n              dup3\n                /* \"#utility.yul\":12311:12314   */\n              dup2\n                /* \"#utility.yul\":12306:12309   */\n              dup4\n                /* \"#utility.yul\":12293:12323   */\n              calldatacopy\n                /* \"#utility.yul\":12378:12379   */\n              0x00\n                /* \"#utility.yul\":12369:12375   */\n              dup4\n                /* \"#utility.yul\":12364:12367   */\n              dup4\n                /* \"#utility.yul\":12360:12376   */\n              add\n                /* \"#utility.yul\":12353:12380   */\n              mstore\n                /* \"#utility.yul\":12283:12386   */\n              pop\n              pop\n              pop\n              jump\t// out\n                /* \"#utility.yul\":12392:12699   */\n            tag_248:\n                /* \"#utility.yul\":12460:12461   */\n              0x00\n                /* \"#utility.yul\":12470:12583   */\n            tag_321:\n                /* \"#utility.yul\":12484:12490   */\n              dup4\n                /* \"#utility.yul\":12481:12482   */\n              dup2\n                /* \"#utility.yul\":12478:12491   */\n              lt\n                /* \"#utility.yul\":12470:12583   */\n              iszero\n              tag_323\n              jumpi\n                /* \"#utility.yul\":12569:12570   */\n              dup1\n                /* \"#utility.yul\":12564:12567   */\n              dup3\n                /* \"#utility.yul\":12560:12571   */\n              add\n                /* \"#utility.yul\":12554:12572   */\n              mload\n                /* \"#utility.yul\":12550:12551   */\n              dup2\n                /* \"#utility.yul\":12545:12548   */\n              dup5\n                /* \"#utility.yul\":12541:12552   */\n              add\n                /* \"#utility.yul\":12534:12573   */\n              mstore\n                /* \"#utility.yul\":12506:12508   */\n              0x20\n                /* \"#utility.yul\":12503:12504   */\n              dup2\n                /* \"#utility.yul\":12499:12509   */\n              add\n                /* \"#utility.yul\":12494:12509   */\n              swap1\n              pop\n                /* \"#utility.yul\":12470:12583   */\n              jump(tag_321)\n            tag_323:\n                /* \"#utility.yul\":12601:12607   */\n              dup4\n                /* \"#utility.yul\":12598:12599   */\n              dup2\n                /* \"#utility.yul\":12595:12608   */\n              gt\n                /* \"#utility.yul\":12592:12594   */\n              iszero\n              tag_324\n              jumpi\n                /* \"#utility.yul\":12681:12682   */\n              0x00\n                /* \"#utility.yul\":12672:12678   */\n              dup5\n                /* \"#utility.yul\":12667:12670   */\n              dup5\n                /* \"#utility.yul\":12663:12679   */\n              add\n                /* \"#utility.yul\":12656:12683   */\n              mstore\n                /* \"#utility.yul\":12592:12594   */\n            tag_324:\n                /* \"#utility.yul\":12441:12699   */\n              pop\n              pop\n              pop\n              pop\n              jump\t// out\n                /* \"#utility.yul\":12705:13025   */\n            tag_94:\n              0x00\n                /* \"#utility.yul\":12786:12787   */\n              0x02\n                /* \"#utility.yul\":12780:12784   */\n              dup3\n                /* \"#utility.yul\":12776:12788   */\n              div\n                /* \"#utility.yul\":12766:12788   */\n              swap1\n              pop\n                /* \"#utility.yul\":12833:12834   */\n              0x01\n                /* \"#utility.yul\":12827:12831   */\n              dup3\n                /* \"#utility.yul\":12823:12835   */\n              and\n                /* \"#utility.yul\":12854:12872   */\n              dup1\n                /* \"#utility.yul\":12844:12846   */\n              tag_326\n              jumpi\n                /* \"#utility.yul\":12910:12914   */\n              0x7f\n                /* \"#utility.yul\":12902:12908   */\n              dup3\n                /* \"#utility.yul\":12898:12915   */\n              and\n                /* \"#utility.yul\":12888:12915   */\n              swap2\n              pop\n                /* \"#utility.yul\":12844:12846   */\n            tag_326:\n                /* \"#utility.yul\":12972:12974   */\n              0x20\n                /* \"#utility.yul\":12964:12970   */\n              dup3\n                /* \"#utility.yul\":12961:12975   */\n              lt\n                /* \"#utility.yul\":12941:12959   */\n              dup2\n                /* \"#utility.yul\":12938:12976   */\n              eq\n                /* \"#utility.yul\":12935:12937   */\n              iszero\n              tag_327\n              jumpi\n                /* \"#utility.yul\":12991:13009   */\n              tag_328\n              tag_329\n              jump\t// in\n            tag_328:\n                /* \"#utility.yul\":12935:12937   */\n            tag_327:\n                /* \"#utility.yul\":12756:13025   */\n              pop\n              swap2\n              swap1\n              pop\n              jump\t// out\n                /* \"#utility.yul\":13031:13264   */\n            tag_111:\n              0x00\n                /* \"#utility.yul\":13093:13117   */\n              tag_331\n                /* \"#utility.yul\":13111:13116   */\n              dup3\n                /* \"#utility.yul\":13093:13117   */\n              tag_268\n              jump\t// in\n            tag_331:\n                /* \"#utility.yul\":13084:13117   */\n              swap2\n              pop\n                /* \"#utility.yul\":13139:13205   */\n              0xffffffffffffffffffffffffffffffffffffffffffffffffffffffffffffffff\n                /* \"#utility.yul\":13132:13137   */\n              dup3\n                /* \"#utility.yul\":13129:13206   */\n              eq\n                /* \"#utility.yul\":13126:13128   */\n              iszero\n              tag_332\n              jumpi\n                /* \"#utility.yul\":13209:13227   */\n              tag_333\n              tag_312\n              jump\t// in\n            tag_333:\n                /* \"#utility.yul\":13126:13128   */\n            tag_332:\n                /* \"#utility.yul\":13256:13257   */\n              0x01\n                /* \"#utility.yul\":13249:13254   */\n              dup3\n                /* \"#utility.yul\":13245:13258   */\n              add\n                /* \"#utility.yul\":13238:13258   */\n              swap1\n              pop\n                /* \"#utility.yul\":13074:13264   */\n              swap2\n              swap1\n              pop\n              jump\t// out\n                /* \"#utility.yul\":13270:13450   */\n            tag_312:\n                /* \"#utility.yul\":13318:13395   */\n              0x4e487b7100000000000000000000000000000000000000000000000000000000\n                /* \"#utility.yul\":13315:13316   */\n              0x00\n                /* \"#utility.yul\":13308:13396   */\n              mstore\n                /* \"#utility.yul\":13415:13419   */\n              0x11\n                /* \"#utility.yul\":13412:13413   */\n              0x04\n                /* \"#utility.yul\":13405:13420   */\n              mstore\n                /* \"#utility.yul\":13439:13443   */\n              0x24\n                /* \"#utility.yul\":13436:13437   */\n              0x00\n                /* \"#utility.yul\":13429:13444   */\n              revert\n                /* \"#utility.yul\":13456:13636   */\n            tag_329:\n                /* \"#utility.yul\":13504:13581   */\n              0x4e487b7100000000000000000000000000000000000000000000000000000000\n                /* \"#utility.yul\":13501:13502   */\n              0x00\n                /* \"#utility.yul\":13494:13582   */\n              mstore\n                /* \"#utility.yul\":13601:13605   */\n              0x22\n                /* \"#utility.yul\":13598:13599   */\n              0x04\n                /* \"#utility.yul\":13591:13606   */\n              mstore\n                /* \"#utility.yul\":13625:13629   */\n              0x24\n                /* \"#utility.yul\":13622:13623   */\n              0x00\n                /* \"#utility.yul\":13615:13630   */\n              revert\n                /* \"#utility.yul\":13642:13822   */\n            tag_293:\n                /* \"#utility.yul\":13690:13767   */\n              0x4e487b7100000000000000000000000000000000000000000000000000000000\n                /* \"#utility.yul\":13687:13688   */\n              0x00\n                /* \"#utility.yul\":13680:13768   */\n              mstore\n                /* \"#utility.yul\":13787:13791   */\n              0x41\n                /* \"#utility.yul\":13784:13785   */\n              0x04\n                /* \"#utility.yul\":13777:13792   */\n              mstore\n                /* \"#utility.yul\":13811:13815   */\n              0x24\n                /* \"#utility.yul\":13808:13809   */\n              0x00\n                /* \"#utility.yul\":13801:13816   */\n              revert\n                /* \"#utility.yul\":13828:13930   */\n            tag_250:\n              0x00\n                /* \"#utility.yul\":13920:13922   */\n              0x1f\n                /* \"#utility.yul\":13916:13923   */\n              not\n                /* \"#utility.yul\":13911:13913   */\n              0x1f\n                /* \"#utility.yul\":13904:13909   */\n              dup4\n                /* \"#utility.yul\":13900:13914   */\n              add\n                /* \"#utility.yul\":13896:13924   */\n              and\n                /* \"#utility.yul\":13886:13924   */\n              swap1\n              pop\n                /* \"#utility.yul\":13876:13930   */\n              swap2\n              swap1\n              pop\n              jump\t// out\n                /* \"#utility.yul\":13936:14058   */\n            tag_193:\n                /* \"#utility.yul\":14009:14033   */\n              tag_339\n                /* \"#utility.yul\":14027:14032   */\n              dup2\n                /* \"#utility.yul\":14009:14033   */\n              tag_222\n              jump\t// in\n            tag_339:\n                /* \"#utility.yul\":14002:14007   */\n              dup2\n                /* \"#utility.yul\":13999:14034   */\n              eq\n                /* \"#utility.yul\":13989:13991   */\n              tag_340\n              jumpi\n                /* \"#utility.yul\":14048:14049   */\n              0x00\n                /* \"#utility.yul\":14045:14046   */\n              dup1\n                /* \"#utility.yul\":14038:14050   */\n              revert\n                /* \"#utility.yul\":13989:13991   */\n            tag_340:\n                /* \"#utility.yul\":13979:14058   */\n              pop\n              jump\t// out\n                /* \"#utility.yul\":14064:14186   */\n            tag_204:\n                /* \"#utility.yul\":14137:14161   */\n              tag_342\n                /* \"#utility.yul\":14155:14160   */\n              dup2\n                /* \"#utility.yul\":14137:14161   */\n              tag_268\n              jump\t// in\n            tag_342:\n                /* \"#utility.yul\":14130:14135   */\n              dup2\n                /* \"#utility.yul\":14127:14162   */\n              eq\n                /* \"#utility.yul\":14117:14119   */\n              tag_343\n              jumpi\n                /* \"#utility.yul\":14176:14177   */\n              0x00\n                /* \"#utility.yul\":14173:14174   */\n              dup1\n                /* \"#utility.yul\":14166:14178   */\n              revert\n                /* \"#utility.yul\":14117:14119   */\n            tag_343:\n                /* \"#utility.yul\":14107:14186   */\n              pop\n              jump\t// out\n\n            auxdata: 0xa26469706673582212204b6839f47f9b042e53c48d3eefa9b040645bafb3b53789525bc5d7b5282bc10764736f6c63430008000033\n        }\n    }\n\n    auxdata: 0xa264697066735822122024b0fd091f070868d8f0fed7d97e94a330350a4d34b6ffa594a62538ec71172164736f6c63430008000033\n}\n",
				"bytecode": {
					"linkReferences": {},
					"object": "608060405234801561001057600080fd5b50612aab806100206000396000f3fe608060405234801561001057600080fd5b50600436106101215760003560e01c80637a16fcb0116100ad5780639e7b8d61116100715780639e7b8d61146102ad578063a3ec138d146102c9578063b1356488146102fc578063e2ba53f01461031a578063e9d6c6da1461033857610121565b80637a16fcb0146102555780637c69710f14610273578063836bc6921461027d57806386278e7714610299578063962fafd0146102a357610121565b8063609ff1bd116100f4578063609ff1bd146101af57806362564c48146101cd578063643cb096146101eb57806369ba1a751461021b57806378f305c61461023757610121565b80630121b93f14610126578063013cf08b146101425780630a82dcb1146101735780634e69d56014610191575b600080fd5b610140600480360381019061013b9190610f7b565b610368565b005b61015c60048036038101906101579190610f7b565b610457565b60405161016a9291906111de565b60405180910390f35b61017b610513565b6040516101889190611230565b60405180910390f35b61019961051d565b6040516101a69190611230565b60405180910390f35b6101b7610527565b6040516101c49190611230565b60405180910390f35b6101d56105fb565b6040516101e2919061117f565b60405180910390f35b61020560048036038101906102009190610f7b565b6106f6565b60405161021291906111a1565b60405180910390f35b61023560048036038101906102309190610f7b565b610735565b005b61023f61073f565b60405161024c9190611230565b60405180910390f35b61025d610749565b60405161026a9190611164565b60405180910390f35b61027b610772565b005b61029760048036038101906102929190610f3a565b61077b565b005b6102a1610901565b005b6102ab61090a565b005b6102c760048036038101906102c29190610f11565b61099d565b005b6102e360048036038101906102de9190610f11565b610ae7565b6040516102f3949392919061124b565b60405180910390f35b610304610b44565b6040516103119190611230565b60405180910390f35b610322610b4e565b60405161032f91906111bc565b60405180910390f35b610352600480360381019061034d9190610f7b565b610c30565b60405161035f919061120e565b60405180910390f35b6000600560003373ffffffffffffffffffffffffffffffffffffffff1673ffffffffffffffffffffffffffffffffffffffff16815260200190815260200160002090508060010160009054906101000a900460ff16156103c757600080fd5b60018160010160006101000a81548160ff02191690831515021790555081816002018190555080600001546006838154811061042c577f4e487b7100000000000000000000000000000000000000000000000000000000600052603260045260246000fd5b9060005260206000209060020201600101600082825461044c9190611383565b925050819055505050565b6006818154811061046757600080fd5b906000526020600020906002020160009150905080600001805461048a90611487565b80601f01602080910402602001604051908101604052809291908181526020018280546104b690611487565b80156105035780601f106104d857610100808354040283529160200191610503565b820191906000526020600020905b8154815290600101906020018083116104e657829003601f168201915b5050505050908060010154905082565b6000600454905090565b6000600154905090565b6000806000905060005b6006805490508110156105f6578160068281548110610579577f4e487b7100000000000000000000000000000000000000000000000000000000600052603260045260246000fd5b90600052602060002090600202016001015411156105e357600681815481106105cb577f4e487b7100000000000000000000000000000000000000000000000000000000600052603260045260246000fd5b90600052602060002090600202016001015491508092505b80806105ee906114b9565b915050610531565b505090565b60606006805480602002602001604051908101604052809291908181526020016000905b828210156106ed578382906000526020600020906002020160405180604001604052908160008201805461065290611487565b80601f016020809104026020016040519081016040528092919081815260200182805461067e90611487565b80156106cb5780601f106106a0576101008083540402835291602001916106cb565b820191906000526020600020905b8154815290600101906020018083116106ae57829003601f168201915b505050505081526020016001820154815250508152602001906001019061061f565b50505050905090565b6007818154811061070657600080fd5b906000526020600020016000915054906101000a900473ffffffffffffffffffffffffffffffffffffffff1681565b8060018190555050565b6000600254905090565b60008060009054906101000a900473ffffffffffffffffffffffffffffffffffffffff16905090565b42600281905550565b336000806101000a81548173ffffffffffffffffffffffffffffffffffffffff021916908373ffffffffffffffffffffffffffffffffffffffff1602179055506001600560008060009054906101000a900473ffffffffffffffffffffffffffffffffffffffff1673ffffffffffffffffffffffffffffffffffffffff1673ffffffffffffffffffffffffffffffffffffffff1681526020019081526020016000206000018190555061082c610772565b805160048190555060005b81518110156108fd5760066040518060400160405280848481518110610886577f4e487b7100000000000000000000000000000000000000000000000000000000600052603260045260246000fd5b602002602001015181526020016000815250908060018154018082558091505060019003906000526020600020906002020160009091909190915060008201518160000190805190602001906108dd929190610d2e565b5060208201518160010155505080806108f5906114b9565b915050610837565b5050565b42600381905550565b600060405161091890610db4565b604051809103906000f080158015610934573d6000803e3d6000fd5b5090506007819080600181540180825580915050600190039060005260206000200160009091909190916101000a81548173ffffffffffffffffffffffffffffffffffffffff021916908373ffffffffffffffffffffffffffffffffffffffff16021790555050565b60008054906101000a900473ffffffffffffffffffffffffffffffffffffffff1673ffffffffffffffffffffffffffffffffffffffff163373ffffffffffffffffffffffffffffffffffffffff16148015610a455750600560008273ffffffffffffffffffffffffffffffffffffffff1673ffffffffffffffffffffffffffffffffffffffff16815260200190815260200160002060010160009054906101000a900460ff16155b8015610a9357506000600560008373ffffffffffffffffffffffffffffffffffffffff1673ffffffffffffffffffffffffffffffffffffffff16815260200190815260200160002060000154145b610a9c57600080fd5b6001600560008373ffffffffffffffffffffffffffffffffffffffff1673ffffffffffffffffffffffffffffffffffffffff1681526020019081526020016000206000018190555050565b60056020528060005260406000206000915090508060000154908060010160009054906101000a900460ff16908060010160019054906101000a900473ffffffffffffffffffffffffffffffffffffffff16908060020154905084565b6000600354905090565b60606006610b5a610527565b81548110610b91577f4e487b7100000000000000000000000000000000000000000000000000000000600052603260045260246000fd5b90600052602060002090600202016000018054610bad90611487565b80601f0160208091040260200160405190810160405280929190818152602001828054610bd990611487565b8015610c265780601f10610bfb57610100808354040283529160200191610c26565b820191906000526020600020905b815481529060010190602001808311610c0957829003601f168201915b5050505050905090565b610c38610dc1565b60068281548110610c72577f4e487b7100000000000000000000000000000000000000000000000000000000600052603260045260246000fd5b9060005260206000209060020201604051806040016040529081600082018054610c9b90611487565b80601f0160208091040260200160405190810160405280929190818152602001828054610cc790611487565b8015610d145780601f10610ce957610100808354040283529160200191610d14565b820191906000526020600020905b815481529060010190602001808311610cf757829003601f168201915b505050505081526020016001820154815250509050919050565b828054610d3a90611487565b90600052602060002090601f016020900481019282610d5c5760008555610da3565b82601f10610d7557805160ff1916838001178555610da3565b82800160010185558215610da3579182015b82811115610da2578251825591602001919060010190610d87565b5b509050610db09190610ddb565b5090565b6114a7806115cf83390190565b604051806040016040528060608152602001600081525090565b5b80821115610df4576000816000905550600101610ddc565b5090565b6000610e0b610e06846112c1565b611290565b9050808382526020820190508260005b85811015610e4b5781358501610e318882610ed2565b845260208401935060208301925050600181019050610e1b565b5050509392505050565b6000610e68610e63846112ed565b611290565b905082815260208101848484011115610e8057600080fd5b610e8b848285611445565b509392505050565b600081359050610ea2816115a0565b92915050565b600082601f830112610eb957600080fd5b8135610ec9848260208601610df8565b91505092915050565b600082601f830112610ee357600080fd5b8135610ef3848260208601610e55565b91505092915050565b600081359050610f0b816115b7565b92915050565b600060208284031215610f2357600080fd5b6000610f3184828501610e93565b91505092915050565b600060208284031215610f4c57600080fd5b600082013567ffffffffffffffff811115610f6657600080fd5b610f7284828501610ea8565b91505092915050565b600060208284031215610f8d57600080fd5b6000610f9b84828501610efc565b91505092915050565b6000610fb083836110cc565b905092915050565b610fc1816113d9565b82525050565b6000610fd28261132d565b610fdc8185611350565b935083602082028501610fee8561131d565b8060005b8581101561102a578484038952815161100b8582610fa4565b945061101683611343565b925060208a01995050600181019050610ff2565b50829750879550505050505092915050565b611045816113eb565b82525050565b61105481611421565b82525050565b600061106582611338565b61106f8185611361565b935061107f818560208601611454565b6110888161158f565b840191505092915050565b600061109e82611338565b6110a88185611372565b93506110b8818560208601611454565b6110c18161158f565b840191505092915050565b600060408301600083015184820360008601526110e9828261105a565b91505060208301516110fe6020860182611146565b508091505092915050565b60006040830160008301518482036000860152611126828261105a565b915050602083015161113b6020860182611146565b508091505092915050565b61114f81611417565b82525050565b61115e81611417565b82525050565b60006020820190506111796000830184610fb8565b92915050565b600060208201905081810360008301526111998184610fc7565b905092915050565b60006020820190506111b6600083018461104b565b92915050565b600060208201905081810360008301526111d68184611093565b905092915050565b600060408201905081810360008301526111f88185611093565b90506112076020830184611155565b9392505050565b600060208201905081810360008301526112288184611109565b905092915050565b60006020820190506112456000830184611155565b92915050565b60006080820190506112606000830187611155565b61126d602083018661103c565b61127a6040830185610fb8565b6112876060830184611155565b95945050505050565b6000604051905081810181811067ffffffffffffffff821117156112b7576112b6611560565b5b8060405250919050565b600067ffffffffffffffff8211156112dc576112db611560565b5b602082029050602081019050919050565b600067ffffffffffffffff82111561130857611307611560565b5b601f19601f8301169050602081019050919050565b6000819050602082019050919050565b600081519050919050565b600081519050919050565b6000602082019050919050565b600082825260208201905092915050565b600082825260208201905092915050565b600082825260208201905092915050565b600061138e82611417565b915061139983611417565b9250827fffffffffffffffffffffffffffffffffffffffffffffffffffffffffffffffff038211156113ce576113cd611502565b5b828201905092915050565b60006113e4826113f7565b9050919050565b60008115159050919050565b600073ffffffffffffffffffffffffffffffffffffffff82169050919050565b6000819050919050565b600061142c82611433565b9050919050565b600061143e826113f7565b9050919050565b82818337600083830152505050565b60005b83811015611472578082015181840152602081019050611457565b83811115611481576000848401525b50505050565b6000600282049050600182168061149f57607f821691505b602082108114156114b3576114b2611531565b5b50919050565b60006114c482611417565b91507fffffffffffffffffffffffffffffffffffffffffffffffffffffffffffffffff8214156114f7576114f6611502565b5b600182019050919050565b7f4e487b7100000000000000000000000000000000000000000000000000000000600052601160045260246000fd5b7f4e487b7100000000000000000000000000000000000000000000000000000000600052602260045260246000fd5b7f4e487b7100000000000000000000000000000000000000000000000000000000600052604160045260246000fd5b6000601f19601f8301169050919050565b6115a9816113d9565b81146115b457600080fd5b50565b6115c081611417565b81146115cb57600080fd5b5056fe608060405234801561001057600080fd5b50611487806100206000396000f3fe608060405234801561001057600080fd5b506004361061010b5760003560e01c80637a16fcb0116100a25780639e7b8d61116100715780639e7b8d611461025d578063a3ec138d14610279578063b1356488146102ac578063e2ba53f0146102ca578063e9d6c6da146102e85761010b565b80637a16fcb01461020f5780637c69710f1461022d578063836bc6921461023757806386278e77146102535761010b565b8063609ff1bd116100de578063609ff1bd1461019957806362564c48146101b757806369ba1a75146101d557806378f305c6146101f15761010b565b80630121b93f14610110578063013cf08b1461012c5780630a82dcb11461015d5780634e69d5601461017b575b600080fd5b61012a60048036038101906101259190610e4c565b610318565b005b61014660048036038101906101419190610e4c565b610407565b604051610154929190611085565b60405180910390f35b6101656104c3565b60405161017291906110d7565b60405180910390f35b6101836104cd565b60405161019091906110d7565b60405180910390f35b6101a16104d7565b6040516101ae91906110d7565b60405180910390f35b6101bf6105ab565b6040516101cc9190611041565b60405180910390f35b6101ef60048036038101906101ea9190610e4c565b6106a6565b005b6101f96106b0565b60405161020691906110d7565b60405180910390f35b6102176106ba565b6040516102249190611026565b60405180910390f35b6102356106e3565b005b610251600480360381019061024c9190610e0b565b6106ec565b005b61025b610872565b005b61027760048036038101906102729190610de2565b61087b565b005b610293600480360381019061028e9190610de2565b6109c5565b6040516102a394939291906110f2565b60405180910390f35b6102b4610a22565b6040516102c191906110d7565b60405180910390f35b6102d2610a2c565b6040516102df9190611063565b60405180910390f35b61030260048036038101906102fd9190610e4c565b610b0e565b60405161030f91906110b5565b60405180910390f35b6000600560003373ffffffffffffffffffffffffffffffffffffffff1673ffffffffffffffffffffffffffffffffffffffff16815260200190815260200160002090508060010160009054906101000a900460ff161561037757600080fd5b60018160010160006101000a81548160ff0219169083151502179055508181600201819055508060000154600683815481106103dc577f4e487b7100000000000000000000000000000000000000000000000000000000600052603260045260246000fd5b906000526020600020906002020160010160008282546103fc919061122a565b925050819055505050565b6006818154811061041757600080fd5b906000526020600020906002020160009150905080600001805461043a9061130a565b80601f01602080910402602001604051908101604052809291908181526020018280546104669061130a565b80156104b35780601f10610488576101008083540402835291602001916104b3565b820191906000526020600020905b81548152906001019060200180831161049657829003601f168201915b5050505050908060010154905082565b6000600454905090565b6000600154905090565b6000806000905060005b6006805490508110156105a6578160068281548110610529577f4e487b7100000000000000000000000000000000000000000000000000000000600052603260045260246000fd5b9060005260206000209060020201600101541115610593576006818154811061057b577f4e487b7100000000000000000000000000000000000000000000000000000000600052603260045260246000fd5b90600052602060002090600202016001015491508092505b808061059e9061133c565b9150506104e1565b505090565b60606006805480602002602001604051908101604052809291908181526020016000905b8282101561069d57838290600052602060002090600202016040518060400160405290816000820180546106029061130a565b80601f016020809104026020016040519081016040528092919081815260200182805461062e9061130a565b801561067b5780601f106106505761010080835404028352916020019161067b565b820191906000526020600020905b81548152906001019060200180831161065e57829003601f168201915b50505050508152602001600182015481525050815260200190600101906105cf565b50505050905090565b8060018190555050565b6000600254905090565b60008060009054906101000a900473ffffffffffffffffffffffffffffffffffffffff16905090565b42600281905550565b336000806101000a81548173ffffffffffffffffffffffffffffffffffffffff021916908373ffffffffffffffffffffffffffffffffffffffff1602179055506001600560008060009054906101000a900473ffffffffffffffffffffffffffffffffffffffff1673ffffffffffffffffffffffffffffffffffffffff1673ffffffffffffffffffffffffffffffffffffffff1681526020019081526020016000206000018190555061079d6106e3565b805160048190555060005b815181101561086e57600660405180604001604052808484815181106107f7577f4e487b7100000000000000000000000000000000000000000000000000000000600052603260045260246000fd5b6020026020010151815260200160008152509080600181540180825580915050600190039060005260206000209060020201600090919091909150600082015181600001908051906020019061084e929190610c0c565b5060208201518160010155505080806108669061133c565b9150506107a8565b5050565b42600381905550565b60008054906101000a900473ffffffffffffffffffffffffffffffffffffffff1673ffffffffffffffffffffffffffffffffffffffff163373ffffffffffffffffffffffffffffffffffffffff161480156109235750600560008273ffffffffffffffffffffffffffffffffffffffff1673ffffffffffffffffffffffffffffffffffffffff16815260200190815260200160002060010160009054906101000a900460ff16155b801561097157506000600560008373ffffffffffffffffffffffffffffffffffffffff1673ffffffffffffffffffffffffffffffffffffffff16815260200190815260200160002060000154145b61097a57600080fd5b6001600560008373ffffffffffffffffffffffffffffffffffffffff1673ffffffffffffffffffffffffffffffffffffffff1681526020019081526020016000206000018190555050565b60056020528060005260406000206000915090508060000154908060010160009054906101000a900460ff16908060010160019054906101000a900473ffffffffffffffffffffffffffffffffffffffff16908060020154905084565b6000600354905090565b60606006610a386104d7565b81548110610a6f577f4e487b7100000000000000000000000000000000000000000000000000000000600052603260045260246000fd5b90600052602060002090600202016000018054610a8b9061130a565b80601f0160208091040260200160405190810160405280929190818152602001828054610ab79061130a565b8015610b045780601f10610ad957610100808354040283529160200191610b04565b820191906000526020600020905b815481529060010190602001808311610ae757829003601f168201915b5050505050905090565b610b16610c92565b60068281548110610b50577f4e487b7100000000000000000000000000000000000000000000000000000000600052603260045260246000fd5b9060005260206000209060020201604051806040016040529081600082018054610b799061130a565b80601f0160208091040260200160405190810160405280929190818152602001828054610ba59061130a565b8015610bf25780601f10610bc757610100808354040283529160200191610bf2565b820191906000526020600020905b815481529060010190602001808311610bd557829003601f168201915b505050505081526020016001820154815250509050919050565b828054610c189061130a565b90600052602060002090601f016020900481019282610c3a5760008555610c81565b82601f10610c5357805160ff1916838001178555610c81565b82800160010185558215610c81579182015b82811115610c80578251825591602001919060010190610c65565b5b509050610c8e9190610cac565b5090565b604051806040016040528060608152602001600081525090565b5b80821115610cc5576000816000905550600101610cad565b5090565b6000610cdc610cd784611168565b611137565b9050808382526020820190508260005b85811015610d1c5781358501610d028882610da3565b845260208401935060208301925050600181019050610cec565b5050509392505050565b6000610d39610d3484611194565b611137565b905082815260208101848484011115610d5157600080fd5b610d5c8482856112c8565b509392505050565b600081359050610d7381611423565b92915050565b600082601f830112610d8a57600080fd5b8135610d9a848260208601610cc9565b91505092915050565b600082601f830112610db457600080fd5b8135610dc4848260208601610d26565b91505092915050565b600081359050610ddc8161143a565b92915050565b600060208284031215610df457600080fd5b6000610e0284828501610d64565b91505092915050565b600060208284031215610e1d57600080fd5b600082013567ffffffffffffffff811115610e3757600080fd5b610e4384828501610d79565b91505092915050565b600060208284031215610e5e57600080fd5b6000610e6c84828501610dcd565b91505092915050565b6000610e818383610f8e565b905092915050565b610e9281611280565b82525050565b6000610ea3826111d4565b610ead81856111f7565b935083602082028501610ebf856111c4565b8060005b85811015610efb5784840389528151610edc8582610e75565b9450610ee7836111ea565b925060208a01995050600181019050610ec3565b50829750879550505050505092915050565b610f1681611292565b82525050565b6000610f27826111df565b610f318185611208565b9350610f418185602086016112d7565b610f4a81611412565b840191505092915050565b6000610f60826111df565b610f6a8185611219565b9350610f7a8185602086016112d7565b610f8381611412565b840191505092915050565b60006040830160008301518482036000860152610fab8282610f1c565b9150506020830151610fc06020860182611008565b508091505092915050565b60006040830160008301518482036000860152610fe88282610f1c565b9150506020830151610ffd6020860182611008565b508091505092915050565b611011816112be565b82525050565b611020816112be565b82525050565b600060208201905061103b6000830184610e89565b92915050565b6000602082019050818103600083015261105b8184610e98565b905092915050565b6000602082019050818103600083015261107d8184610f55565b905092915050565b6000604082019050818103600083015261109f8185610f55565b90506110ae6020830184611017565b9392505050565b600060208201905081810360008301526110cf8184610fcb565b905092915050565b60006020820190506110ec6000830184611017565b92915050565b60006080820190506111076000830187611017565b6111146020830186610f0d565b6111216040830185610e89565b61112e6060830184611017565b95945050505050565b6000604051905081810181811067ffffffffffffffff8211171561115e5761115d6113e3565b5b8060405250919050565b600067ffffffffffffffff821115611183576111826113e3565b5b602082029050602081019050919050565b600067ffffffffffffffff8211156111af576111ae6113e3565b5b601f19601f8301169050602081019050919050565b6000819050602082019050919050565b600081519050919050565b600081519050919050565b6000602082019050919050565b600082825260208201905092915050565b600082825260208201905092915050565b600082825260208201905092915050565b6000611235826112be565b9150611240836112be565b9250827fffffffffffffffffffffffffffffffffffffffffffffffffffffffffffffffff0382111561127557611274611385565b5b828201905092915050565b600061128b8261129e565b9050919050565b60008115159050919050565b600073ffffffffffffffffffffffffffffffffffffffff82169050919050565b6000819050919050565b82818337600083830152505050565b60005b838110156112f55780820151818401526020810190506112da565b83811115611304576000848401525b50505050565b6000600282049050600182168061132257607f821691505b60208210811415611336576113356113b4565b5b50919050565b6000611347826112be565b91507fffffffffffffffffffffffffffffffffffffffffffffffffffffffffffffffff82141561137a57611379611385565b5b600182019050919050565b7f4e487b7100000000000000000000000000000000000000000000000000000000600052601160045260246000fd5b7f4e487b7100000000000000000000000000000000000000000000000000000000600052602260045260246000fd5b7f4e487b7100000000000000000000000000000000000000000000000000000000600052604160045260246000fd5b6000601f19601f8301169050919050565b61142c81611280565b811461143757600080fd5b50565b611443816112be565b811461144e57600080fd5b5056fea26469706673582212204b6839f47f9b042e53c48d3eefa9b040645bafb3b53789525bc5d7b5282bc10764736f6c63430008000033a264697066735822122024b0fd091f070868d8f0fed7d97e94a330350a4d34b6ffa594a62538ec71172164736f6c63430008000033",
					"opcodes": "PUSH1 0x80 PUSH1 0x40 MSTORE CALLVALUE DUP1 ISZERO PUSH2 0x10 JUMPI PUSH1 0x0 DUP1 REVERT JUMPDEST POP PUSH2 0x2AAB DUP1 PUSH2 0x20 PUSH1 0x0 CODECOPY PUSH1 0x0 RETURN INVALID PUSH1 0x80 PUSH1 0x40 MSTORE CALLVALUE DUP1 ISZERO PUSH2 0x10 JUMPI PUSH1 0x0 DUP1 REVERT JUMPDEST POP PUSH1 0x4 CALLDATASIZE LT PUSH2 0x121 JUMPI PUSH1 0x0 CALLDATALOAD PUSH1 0xE0 SHR DUP1 PUSH4 0x7A16FCB0 GT PUSH2 0xAD JUMPI DUP1 PUSH4 0x9E7B8D61 GT PUSH2 0x71 JUMPI DUP1 PUSH4 0x9E7B8D61 EQ PUSH2 0x2AD JUMPI DUP1 PUSH4 0xA3EC138D EQ PUSH2 0x2C9 JUMPI DUP1 PUSH4 0xB1356488 EQ PUSH2 0x2FC JUMPI DUP1 PUSH4 0xE2BA53F0 EQ PUSH2 0x31A JUMPI DUP1 PUSH4 0xE9D6C6DA EQ PUSH2 0x338 JUMPI PUSH2 0x121 JUMP JUMPDEST DUP1 PUSH4 0x7A16FCB0 EQ PUSH2 0x255 JUMPI DUP1 PUSH4 0x7C69710F EQ PUSH2 0x273 JUMPI DUP1 PUSH4 0x836BC692 EQ PUSH2 0x27D JUMPI DUP1 PUSH4 0x86278E77 EQ PUSH2 0x299 JUMPI DUP1 PUSH4 0x962FAFD0 EQ PUSH2 0x2A3 JUMPI PUSH2 0x121 JUMP JUMPDEST DUP1 PUSH4 0x609FF1BD GT PUSH2 0xF4 JUMPI DUP1 PUSH4 0x609FF1BD EQ PUSH2 0x1AF JUMPI DUP1 PUSH4 0x62564C48 EQ PUSH2 0x1CD JUMPI DUP1 PUSH4 0x643CB096 EQ PUSH2 0x1EB JUMPI DUP1 PUSH4 0x69BA1A75 EQ PUSH2 0x21B JUMPI DUP1 PUSH4 0x78F305C6 EQ PUSH2 0x237 JUMPI PUSH2 0x121 JUMP JUMPDEST DUP1 PUSH4 0x121B93F EQ PUSH2 0x126 JUMPI DUP1 PUSH4 0x13CF08B EQ PUSH2 0x142 JUMPI DUP1 PUSH4 0xA82DCB1 EQ PUSH2 0x173 JUMPI DUP1 PUSH4 0x4E69D560 EQ PUSH2 0x191 JUMPI JUMPDEST PUSH1 0x0 DUP1 REVERT JUMPDEST PUSH2 0x140 PUSH1 0x4 DUP1 CALLDATASIZE SUB DUP2 ADD SWAP1 PUSH2 0x13B SWAP2 SWAP1 PUSH2 0xF7B JUMP JUMPDEST PUSH2 0x368 JUMP JUMPDEST STOP JUMPDEST PUSH2 0x15C PUSH1 0x4 DUP1 CALLDATASIZE SUB DUP2 ADD SWAP1 PUSH2 0x157 SWAP2 SWAP1 PUSH2 0xF7B JUMP JUMPDEST PUSH2 0x457 JUMP JUMPDEST PUSH1 0x40 MLOAD PUSH2 0x16A SWAP3 SWAP2 SWAP1 PUSH2 0x11DE JUMP JUMPDEST PUSH1 0x40 MLOAD DUP1 SWAP2 SUB SWAP1 RETURN JUMPDEST PUSH2 0x17B PUSH2 0x513 JUMP JUMPDEST PUSH1 0x40 MLOAD PUSH2 0x188 SWAP2 SWAP1 PUSH2 0x1230 JUMP JUMPDEST PUSH1 0x40 MLOAD DUP1 SWAP2 SUB SWAP1 RETURN JUMPDEST PUSH2 0x199 PUSH2 0x51D JUMP JUMPDEST PUSH1 0x40 MLOAD PUSH2 0x1A6 SWAP2 SWAP1 PUSH2 0x1230 JUMP JUMPDEST PUSH1 0x40 MLOAD DUP1 SWAP2 SUB SWAP1 RETURN JUMPDEST PUSH2 0x1B7 PUSH2 0x527 JUMP JUMPDEST PUSH1 0x40 MLOAD PUSH2 0x1C4 SWAP2 SWAP1 PUSH2 0x1230 JUMP JUMPDEST PUSH1 0x40 MLOAD DUP1 SWAP2 SUB SWAP1 RETURN JUMPDEST PUSH2 0x1D5 PUSH2 0x5FB JUMP JUMPDEST PUSH1 0x40 MLOAD PUSH2 0x1E2 SWAP2 SWAP1 PUSH2 0x117F JUMP JUMPDEST PUSH1 0x40 MLOAD DUP1 SWAP2 SUB SWAP1 RETURN JUMPDEST PUSH2 0x205 PUSH1 0x4 DUP1 CALLDATASIZE SUB DUP2 ADD SWAP1 PUSH2 0x200 SWAP2 SWAP1 PUSH2 0xF7B JUMP JUMPDEST PUSH2 0x6F6 JUMP JUMPDEST PUSH1 0x40 MLOAD PUSH2 0x212 SWAP2 SWAP1 PUSH2 0x11A1 JUMP JUMPDEST PUSH1 0x40 MLOAD DUP1 SWAP2 SUB SWAP1 RETURN JUMPDEST PUSH2 0x235 PUSH1 0x4 DUP1 CALLDATASIZE SUB DUP2 ADD SWAP1 PUSH2 0x230 SWAP2 SWAP1 PUSH2 0xF7B JUMP JUMPDEST PUSH2 0x735 JUMP JUMPDEST STOP JUMPDEST PUSH2 0x23F PUSH2 0x73F JUMP JUMPDEST PUSH1 0x40 MLOAD PUSH2 0x24C SWAP2 SWAP1 PUSH2 0x1230 JUMP JUMPDEST PUSH1 0x40 MLOAD DUP1 SWAP2 SUB SWAP1 RETURN JUMPDEST PUSH2 0x25D PUSH2 0x749 JUMP JUMPDEST PUSH1 0x40 MLOAD PUSH2 0x26A SWAP2 SWAP1 PUSH2 0x1164 JUMP JUMPDEST PUSH1 0x40 MLOAD DUP1 SWAP2 SUB SWAP1 RETURN JUMPDEST PUSH2 0x27B PUSH2 0x772 JUMP JUMPDEST STOP JUMPDEST PUSH2 0x297 PUSH1 0x4 DUP1 CALLDATASIZE SUB DUP2 ADD SWAP1 PUSH2 0x292 SWAP2 SWAP1 PUSH2 0xF3A JUMP JUMPDEST PUSH2 0x77B JUMP JUMPDEST STOP JUMPDEST PUSH2 0x2A1 PUSH2 0x901 JUMP JUMPDEST STOP JUMPDEST PUSH2 0x2AB PUSH2 0x90A JUMP JUMPDEST STOP JUMPDEST PUSH2 0x2C7 PUSH1 0x4 DUP1 CALLDATASIZE SUB DUP2 ADD SWAP1 PUSH2 0x2C2 SWAP2 SWAP1 PUSH2 0xF11 JUMP JUMPDEST PUSH2 0x99D JUMP JUMPDEST STOP JUMPDEST PUSH2 0x2E3 PUSH1 0x4 DUP1 CALLDATASIZE SUB DUP2 ADD SWAP1 PUSH2 0x2DE SWAP2 SWAP1 PUSH2 0xF11 JUMP JUMPDEST PUSH2 0xAE7 JUMP JUMPDEST PUSH1 0x40 MLOAD PUSH2 0x2F3 SWAP5 SWAP4 SWAP3 SWAP2 SWAP1 PUSH2 0x124B JUMP JUMPDEST PUSH1 0x40 MLOAD DUP1 SWAP2 SUB SWAP1 RETURN JUMPDEST PUSH2 0x304 PUSH2 0xB44 JUMP JUMPDEST PUSH1 0x40 MLOAD PUSH2 0x311 SWAP2 SWAP1 PUSH2 0x1230 JUMP JUMPDEST PUSH1 0x40 MLOAD DUP1 SWAP2 SUB SWAP1 RETURN JUMPDEST PUSH2 0x322 PUSH2 0xB4E JUMP JUMPDEST PUSH1 0x40 MLOAD PUSH2 0x32F SWAP2 SWAP1 PUSH2 0x11BC JUMP JUMPDEST PUSH1 0x40 MLOAD DUP1 SWAP2 SUB SWAP1 RETURN JUMPDEST PUSH2 0x352 PUSH1 0x4 DUP1 CALLDATASIZE SUB DUP2 ADD SWAP1 PUSH2 0x34D SWAP2 SWAP1 PUSH2 0xF7B JUMP JUMPDEST PUSH2 0xC30 JUMP JUMPDEST PUSH1 0x40 MLOAD PUSH2 0x35F SWAP2 SWAP1 PUSH2 0x120E JUMP JUMPDEST PUSH1 0x40 MLOAD DUP1 SWAP2 SUB SWAP1 RETURN JUMPDEST PUSH1 0x0 PUSH1 0x5 PUSH1 0x0 CALLER PUSH20 0xFFFFFFFFFFFFFFFFFFFFFFFFFFFFFFFFFFFFFFFF AND PUSH20 0xFFFFFFFFFFFFFFFFFFFFFFFFFFFFFFFFFFFFFFFF AND DUP2 MSTORE PUSH1 0x20 ADD SWAP1 DUP2 MSTORE PUSH1 0x20 ADD PUSH1 0x0 KECCAK256 SWAP1 POP DUP1 PUSH1 0x1 ADD PUSH1 0x0 SWAP1 SLOAD SWAP1 PUSH2 0x100 EXP SWAP1 DIV PUSH1 0xFF AND ISZERO PUSH2 0x3C7 JUMPI PUSH1 0x0 DUP1 REVERT JUMPDEST PUSH1 0x1 DUP2 PUSH1 0x1 ADD PUSH1 0x0 PUSH2 0x100 EXP DUP2 SLOAD DUP2 PUSH1 0xFF MUL NOT AND SWAP1 DUP4 ISZERO ISZERO MUL OR SWAP1 SSTORE POP DUP2 DUP2 PUSH1 0x2 ADD DUP2 SWAP1 SSTORE POP DUP1 PUSH1 0x0 ADD SLOAD PUSH1 0x6 DUP4 DUP2 SLOAD DUP2 LT PUSH2 0x42C JUMPI PUSH32 0x4E487B7100000000000000000000000000000000000000000000000000000000 PUSH1 0x0 MSTORE PUSH1 0x32 PUSH1 0x4 MSTORE PUSH1 0x24 PUSH1 0x0 REVERT JUMPDEST SWAP1 PUSH1 0x0 MSTORE PUSH1 0x20 PUSH1 0x0 KECCAK256 SWAP1 PUSH1 0x2 MUL ADD PUSH1 0x1 ADD PUSH1 0x0 DUP3 DUP3 SLOAD PUSH2 0x44C SWAP2 SWAP1 PUSH2 0x1383 JUMP JUMPDEST SWAP3 POP POP DUP2 SWAP1 SSTORE POP POP POP JUMP JUMPDEST PUSH1 0x6 DUP2 DUP2 SLOAD DUP2 LT PUSH2 0x467 JUMPI PUSH1 0x0 DUP1 REVERT JUMPDEST SWAP1 PUSH1 0x0 MSTORE PUSH1 0x20 PUSH1 0x0 KECCAK256 SWAP1 PUSH1 0x2 MUL ADD PUSH1 0x0 SWAP2 POP SWAP1 POP DUP1 PUSH1 0x0 ADD DUP1 SLOAD PUSH2 0x48A SWAP1 PUSH2 0x1487 JUMP JUMPDEST DUP1 PUSH1 0x1F ADD PUSH1 0x20 DUP1 SWAP2 DIV MUL PUSH1 0x20 ADD PUSH1 0x40 MLOAD SWAP1 DUP2 ADD PUSH1 0x40 MSTORE DUP1 SWAP3 SWAP2 SWAP1 DUP2 DUP2 MSTORE PUSH1 0x20 ADD DUP3 DUP1 SLOAD PUSH2 0x4B6 SWAP1 PUSH2 0x1487 JUMP JUMPDEST DUP1 ISZERO PUSH2 0x503 JUMPI DUP1 PUSH1 0x1F LT PUSH2 0x4D8 JUMPI PUSH2 0x100 DUP1 DUP4 SLOAD DIV MUL DUP4 MSTORE SWAP2 PUSH1 0x20 ADD SWAP2 PUSH2 0x503 JUMP JUMPDEST DUP3 ADD SWAP2 SWAP1 PUSH1 0x0 MSTORE PUSH1 0x20 PUSH1 0x0 KECCAK256 SWAP1 JUMPDEST DUP2 SLOAD DUP2 MSTORE SWAP1 PUSH1 0x1 ADD SWAP1 PUSH1 0x20 ADD DUP1 DUP4 GT PUSH2 0x4E6 JUMPI DUP3 SWAP1 SUB PUSH1 0x1F AND DUP3 ADD SWAP2 JUMPDEST POP POP POP POP POP SWAP1 DUP1 PUSH1 0x1 ADD SLOAD SWAP1 POP DUP3 JUMP JUMPDEST PUSH1 0x0 PUSH1 0x4 SLOAD SWAP1 POP SWAP1 JUMP JUMPDEST PUSH1 0x0 PUSH1 0x1 SLOAD SWAP1 POP SWAP1 JUMP JUMPDEST PUSH1 0x0 DUP1 PUSH1 0x0 SWAP1 POP PUSH1 0x0 JUMPDEST PUSH1 0x6 DUP1 SLOAD SWAP1 POP DUP2 LT ISZERO PUSH2 0x5F6 JUMPI DUP2 PUSH1 0x6 DUP3 DUP2 SLOAD DUP2 LT PUSH2 0x579 JUMPI PUSH32 0x4E487B7100000000000000000000000000000000000000000000000000000000 PUSH1 0x0 MSTORE PUSH1 0x32 PUSH1 0x4 MSTORE PUSH1 0x24 PUSH1 0x0 REVERT JUMPDEST SWAP1 PUSH1 0x0 MSTORE PUSH1 0x20 PUSH1 0x0 KECCAK256 SWAP1 PUSH1 0x2 MUL ADD PUSH1 0x1 ADD SLOAD GT ISZERO PUSH2 0x5E3 JUMPI PUSH1 0x6 DUP2 DUP2 SLOAD DUP2 LT PUSH2 0x5CB JUMPI PUSH32 0x4E487B7100000000000000000000000000000000000000000000000000000000 PUSH1 0x0 MSTORE PUSH1 0x32 PUSH1 0x4 MSTORE PUSH1 0x24 PUSH1 0x0 REVERT JUMPDEST SWAP1 PUSH1 0x0 MSTORE PUSH1 0x20 PUSH1 0x0 KECCAK256 SWAP1 PUSH1 0x2 MUL ADD PUSH1 0x1 ADD SLOAD SWAP2 POP DUP1 SWAP3 POP JUMPDEST DUP1 DUP1 PUSH2 0x5EE SWAP1 PUSH2 0x14B9 JUMP JUMPDEST SWAP2 POP POP PUSH2 0x531 JUMP JUMPDEST POP POP SWAP1 JUMP JUMPDEST PUSH1 0x60 PUSH1 0x6 DUP1 SLOAD DUP1 PUSH1 0x20 MUL PUSH1 0x20 ADD PUSH1 0x40 MLOAD SWAP1 DUP2 ADD PUSH1 0x40 MSTORE DUP1 SWAP3 SWAP2 SWAP1 DUP2 DUP2 MSTORE PUSH1 0x20 ADD PUSH1 0x0 SWAP1 JUMPDEST DUP3 DUP3 LT ISZERO PUSH2 0x6ED JUMPI DUP4 DUP3 SWAP1 PUSH1 0x0 MSTORE PUSH1 0x20 PUSH1 0x0 KECCAK256 SWAP1 PUSH1 0x2 MUL ADD PUSH1 0x40 MLOAD DUP1 PUSH1 0x40 ADD PUSH1 0x40 MSTORE SWAP1 DUP2 PUSH1 0x0 DUP3 ADD DUP1 SLOAD PUSH2 0x652 SWAP1 PUSH2 0x1487 JUMP JUMPDEST DUP1 PUSH1 0x1F ADD PUSH1 0x20 DUP1 SWAP2 DIV MUL PUSH1 0x20 ADD PUSH1 0x40 MLOAD SWAP1 DUP2 ADD PUSH1 0x40 MSTORE DUP1 SWAP3 SWAP2 SWAP1 DUP2 DUP2 MSTORE PUSH1 0x20 ADD DUP3 DUP1 SLOAD PUSH2 0x67E SWAP1 PUSH2 0x1487 JUMP JUMPDEST DUP1 ISZERO PUSH2 0x6CB JUMPI DUP1 PUSH1 0x1F LT PUSH2 0x6A0 JUMPI PUSH2 0x100 DUP1 DUP4 SLOAD DIV MUL DUP4 MSTORE SWAP2 PUSH1 0x20 ADD SWAP2 PUSH2 0x6CB JUMP JUMPDEST DUP3 ADD SWAP2 SWAP1 PUSH1 0x0 MSTORE PUSH1 0x20 PUSH1 0x0 KECCAK256 SWAP1 JUMPDEST DUP2 SLOAD DUP2 MSTORE SWAP1 PUSH1 0x1 ADD SWAP1 PUSH1 0x20 ADD DUP1 DUP4 GT PUSH2 0x6AE JUMPI DUP3 SWAP1 SUB PUSH1 0x1F AND DUP3 ADD SWAP2 JUMPDEST POP POP POP POP POP DUP2 MSTORE PUSH1 0x20 ADD PUSH1 0x1 DUP3 ADD SLOAD DUP2 MSTORE POP POP DUP2 MSTORE PUSH1 0x20 ADD SWAP1 PUSH1 0x1 ADD SWAP1 PUSH2 0x61F JUMP JUMPDEST POP POP POP POP SWAP1 POP SWAP1 JUMP JUMPDEST PUSH1 0x7 DUP2 DUP2 SLOAD DUP2 LT PUSH2 0x706 JUMPI PUSH1 0x0 DUP1 REVERT JUMPDEST SWAP1 PUSH1 0x0 MSTORE PUSH1 0x20 PUSH1 0x0 KECCAK256 ADD PUSH1 0x0 SWAP2 POP SLOAD SWAP1 PUSH2 0x100 EXP SWAP1 DIV PUSH20 0xFFFFFFFFFFFFFFFFFFFFFFFFFFFFFFFFFFFFFFFF AND DUP2 JUMP JUMPDEST DUP1 PUSH1 0x1 DUP2 SWAP1 SSTORE POP POP JUMP JUMPDEST PUSH1 0x0 PUSH1 0x2 SLOAD SWAP1 POP SWAP1 JUMP JUMPDEST PUSH1 0x0 DUP1 PUSH1 0x0 SWAP1 SLOAD SWAP1 PUSH2 0x100 EXP SWAP1 DIV PUSH20 0xFFFFFFFFFFFFFFFFFFFFFFFFFFFFFFFFFFFFFFFF AND SWAP1 POP SWAP1 JUMP JUMPDEST TIMESTAMP PUSH1 0x2 DUP2 SWAP1 SSTORE POP JUMP JUMPDEST CALLER PUSH1 0x0 DUP1 PUSH2 0x100 EXP DUP2 SLOAD DUP2 PUSH20 0xFFFFFFFFFFFFFFFFFFFFFFFFFFFFFFFFFFFFFFFF MUL NOT AND SWAP1 DUP4 PUSH20 0xFFFFFFFFFFFFFFFFFFFFFFFFFFFFFFFFFFFFFFFF AND MUL OR SWAP1 SSTORE POP PUSH1 0x1 PUSH1 0x5 PUSH1 0x0 DUP1 PUSH1 0x0 SWAP1 SLOAD SWAP1 PUSH2 0x100 EXP SWAP1 DIV PUSH20 0xFFFFFFFFFFFFFFFFFFFFFFFFFFFFFFFFFFFFFFFF AND PUSH20 0xFFFFFFFFFFFFFFFFFFFFFFFFFFFFFFFFFFFFFFFF AND PUSH20 0xFFFFFFFFFFFFFFFFFFFFFFFFFFFFFFFFFFFFFFFF AND DUP2 MSTORE PUSH1 0x20 ADD SWAP1 DUP2 MSTORE PUSH1 0x20 ADD PUSH1 0x0 KECCAK256 PUSH1 0x0 ADD DUP2 SWAP1 SSTORE POP PUSH2 0x82C PUSH2 0x772 JUMP JUMPDEST DUP1 MLOAD PUSH1 0x4 DUP2 SWAP1 SSTORE POP PUSH1 0x0 JUMPDEST DUP2 MLOAD DUP2 LT ISZERO PUSH2 0x8FD JUMPI PUSH1 0x6 PUSH1 0x40 MLOAD DUP1 PUSH1 0x40 ADD PUSH1 0x40 MSTORE DUP1 DUP5 DUP5 DUP2 MLOAD DUP2 LT PUSH2 0x886 JUMPI PUSH32 0x4E487B7100000000000000000000000000000000000000000000000000000000 PUSH1 0x0 MSTORE PUSH1 0x32 PUSH1 0x4 MSTORE PUSH1 0x24 PUSH1 0x0 REVERT JUMPDEST PUSH1 0x20 MUL PUSH1 0x20 ADD ADD MLOAD DUP2 MSTORE PUSH1 0x20 ADD PUSH1 0x0 DUP2 MSTORE POP SWAP1 DUP1 PUSH1 0x1 DUP2 SLOAD ADD DUP1 DUP3 SSTORE DUP1 SWAP2 POP POP PUSH1 0x1 SWAP1 SUB SWAP1 PUSH1 0x0 MSTORE PUSH1 0x20 PUSH1 0x0 KECCAK256 SWAP1 PUSH1 0x2 MUL ADD PUSH1 0x0 SWAP1 SWAP2 SWAP1 SWAP2 SWAP1 SWAP2 POP PUSH1 0x0 DUP3 ADD MLOAD DUP2 PUSH1 0x0 ADD SWAP1 DUP1 MLOAD SWAP1 PUSH1 0x20 ADD SWAP1 PUSH2 0x8DD SWAP3 SWAP2 SWAP1 PUSH2 0xD2E JUMP JUMPDEST POP PUSH1 0x20 DUP3 ADD MLOAD DUP2 PUSH1 0x1 ADD SSTORE POP POP DUP1 DUP1 PUSH2 0x8F5 SWAP1 PUSH2 0x14B9 JUMP JUMPDEST SWAP2 POP POP PUSH2 0x837 JUMP JUMPDEST POP POP JUMP JUMPDEST TIMESTAMP PUSH1 0x3 DUP2 SWAP1 SSTORE POP JUMP JUMPDEST PUSH1 0x0 PUSH1 0x40 MLOAD PUSH2 0x918 SWAP1 PUSH2 0xDB4 JUMP JUMPDEST PUSH1 0x40 MLOAD DUP1 SWAP2 SUB SWAP1 PUSH1 0x0 CREATE DUP1 ISZERO DUP1 ISZERO PUSH2 0x934 JUMPI RETURNDATASIZE PUSH1 0x0 DUP1 RETURNDATACOPY RETURNDATASIZE PUSH1 0x0 REVERT JUMPDEST POP SWAP1 POP PUSH1 0x7 DUP2 SWAP1 DUP1 PUSH1 0x1 DUP2 SLOAD ADD DUP1 DUP3 SSTORE DUP1 SWAP2 POP POP PUSH1 0x1 SWAP1 SUB SWAP1 PUSH1 0x0 MSTORE PUSH1 0x20 PUSH1 0x0 KECCAK256 ADD PUSH1 0x0 SWAP1 SWAP2 SWAP1 SWAP2 SWAP1 SWAP2 PUSH2 0x100 EXP DUP2 SLOAD DUP2 PUSH20 0xFFFFFFFFFFFFFFFFFFFFFFFFFFFFFFFFFFFFFFFF MUL NOT AND SWAP1 DUP4 PUSH20 0xFFFFFFFFFFFFFFFFFFFFFFFFFFFFFFFFFFFFFFFF AND MUL OR SWAP1 SSTORE POP POP JUMP JUMPDEST PUSH1 0x0 DUP1 SLOAD SWAP1 PUSH2 0x100 EXP SWAP1 DIV PUSH20 0xFFFFFFFFFFFFFFFFFFFFFFFFFFFFFFFFFFFFFFFF AND PUSH20 0xFFFFFFFFFFFFFFFFFFFFFFFFFFFFFFFFFFFFFFFF AND CALLER PUSH20 0xFFFFFFFFFFFFFFFFFFFFFFFFFFFFFFFFFFFFFFFF AND EQ DUP1 ISZERO PUSH2 0xA45 JUMPI POP PUSH1 0x5 PUSH1 0x0 DUP3 PUSH20 0xFFFFFFFFFFFFFFFFFFFFFFFFFFFFFFFFFFFFFFFF AND PUSH20 0xFFFFFFFFFFFFFFFFFFFFFFFFFFFFFFFFFFFFFFFF AND DUP2 MSTORE PUSH1 0x20 ADD SWAP1 DUP2 MSTORE PUSH1 0x20 ADD PUSH1 0x0 KECCAK256 PUSH1 0x1 ADD PUSH1 0x0 SWAP1 SLOAD SWAP1 PUSH2 0x100 EXP SWAP1 DIV PUSH1 0xFF AND ISZERO JUMPDEST DUP1 ISZERO PUSH2 0xA93 JUMPI POP PUSH1 0x0 PUSH1 0x5 PUSH1 0x0 DUP4 PUSH20 0xFFFFFFFFFFFFFFFFFFFFFFFFFFFFFFFFFFFFFFFF AND PUSH20 0xFFFFFFFFFFFFFFFFFFFFFFFFFFFFFFFFFFFFFFFF AND DUP2 MSTORE PUSH1 0x20 ADD SWAP1 DUP2 MSTORE PUSH1 0x20 ADD PUSH1 0x0 KECCAK256 PUSH1 0x0 ADD SLOAD EQ JUMPDEST PUSH2 0xA9C JUMPI PUSH1 0x0 DUP1 REVERT JUMPDEST PUSH1 0x1 PUSH1 0x5 PUSH1 0x0 DUP4 PUSH20 0xFFFFFFFFFFFFFFFFFFFFFFFFFFFFFFFFFFFFFFFF AND PUSH20 0xFFFFFFFFFFFFFFFFFFFFFFFFFFFFFFFFFFFFFFFF AND DUP2 MSTORE PUSH1 0x20 ADD SWAP1 DUP2 MSTORE PUSH1 0x20 ADD PUSH1 0x0 KECCAK256 PUSH1 0x0 ADD DUP2 SWAP1 SSTORE POP POP JUMP JUMPDEST PUSH1 0x5 PUSH1 0x20 MSTORE DUP1 PUSH1 0x0 MSTORE PUSH1 0x40 PUSH1 0x0 KECCAK256 PUSH1 0x0 SWAP2 POP SWAP1 POP DUP1 PUSH1 0x0 ADD SLOAD SWAP1 DUP1 PUSH1 0x1 ADD PUSH1 0x0 SWAP1 SLOAD SWAP1 PUSH2 0x100 EXP SWAP1 DIV PUSH1 0xFF AND SWAP1 DUP1 PUSH1 0x1 ADD PUSH1 0x1 SWAP1 SLOAD SWAP1 PUSH2 0x100 EXP SWAP1 DIV PUSH20 0xFFFFFFFFFFFFFFFFFFFFFFFFFFFFFFFFFFFFFFFF AND SWAP1 DUP1 PUSH1 0x2 ADD SLOAD SWAP1 POP DUP5 JUMP JUMPDEST PUSH1 0x0 PUSH1 0x3 SLOAD SWAP1 POP SWAP1 JUMP JUMPDEST PUSH1 0x60 PUSH1 0x6 PUSH2 0xB5A PUSH2 0x527 JUMP JUMPDEST DUP2 SLOAD DUP2 LT PUSH2 0xB91 JUMPI PUSH32 0x4E487B7100000000000000000000000000000000000000000000000000000000 PUSH1 0x0 MSTORE PUSH1 0x32 PUSH1 0x4 MSTORE PUSH1 0x24 PUSH1 0x0 REVERT JUMPDEST SWAP1 PUSH1 0x0 MSTORE PUSH1 0x20 PUSH1 0x0 KECCAK256 SWAP1 PUSH1 0x2 MUL ADD PUSH1 0x0 ADD DUP1 SLOAD PUSH2 0xBAD SWAP1 PUSH2 0x1487 JUMP JUMPDEST DUP1 PUSH1 0x1F ADD PUSH1 0x20 DUP1 SWAP2 DIV MUL PUSH1 0x20 ADD PUSH1 0x40 MLOAD SWAP1 DUP2 ADD PUSH1 0x40 MSTORE DUP1 SWAP3 SWAP2 SWAP1 DUP2 DUP2 MSTORE PUSH1 0x20 ADD DUP3 DUP1 SLOAD PUSH2 0xBD9 SWAP1 PUSH2 0x1487 JUMP JUMPDEST DUP1 ISZERO PUSH2 0xC26 JUMPI DUP1 PUSH1 0x1F LT PUSH2 0xBFB JUMPI PUSH2 0x100 DUP1 DUP4 SLOAD DIV MUL DUP4 MSTORE SWAP2 PUSH1 0x20 ADD SWAP2 PUSH2 0xC26 JUMP JUMPDEST DUP3 ADD SWAP2 SWAP1 PUSH1 0x0 MSTORE PUSH1 0x20 PUSH1 0x0 KECCAK256 SWAP1 JUMPDEST DUP2 SLOAD DUP2 MSTORE SWAP1 PUSH1 0x1 ADD SWAP1 PUSH1 0x20 ADD DUP1 DUP4 GT PUSH2 0xC09 JUMPI DUP3 SWAP1 SUB PUSH1 0x1F AND DUP3 ADD SWAP2 JUMPDEST POP POP POP POP POP SWAP1 POP SWAP1 JUMP JUMPDEST PUSH2 0xC38 PUSH2 0xDC1 JUMP JUMPDEST PUSH1 0x6 DUP3 DUP2 SLOAD DUP2 LT PUSH2 0xC72 JUMPI PUSH32 0x4E487B7100000000000000000000000000000000000000000000000000000000 PUSH1 0x0 MSTORE PUSH1 0x32 PUSH1 0x4 MSTORE PUSH1 0x24 PUSH1 0x0 REVERT JUMPDEST SWAP1 PUSH1 0x0 MSTORE PUSH1 0x20 PUSH1 0x0 KECCAK256 SWAP1 PUSH1 0x2 MUL ADD PUSH1 0x40 MLOAD DUP1 PUSH1 0x40 ADD PUSH1 0x40 MSTORE SWAP1 DUP2 PUSH1 0x0 DUP3 ADD DUP1 SLOAD PUSH2 0xC9B SWAP1 PUSH2 0x1487 JUMP JUMPDEST DUP1 PUSH1 0x1F ADD PUSH1 0x20 DUP1 SWAP2 DIV MUL PUSH1 0x20 ADD PUSH1 0x40 MLOAD SWAP1 DUP2 ADD PUSH1 0x40 MSTORE DUP1 SWAP3 SWAP2 SWAP1 DUP2 DUP2 MSTORE PUSH1 0x20 ADD DUP3 DUP1 SLOAD PUSH2 0xCC7 SWAP1 PUSH2 0x1487 JUMP JUMPDEST DUP1 ISZERO PUSH2 0xD14 JUMPI DUP1 PUSH1 0x1F LT PUSH2 0xCE9 JUMPI PUSH2 0x100 DUP1 DUP4 SLOAD DIV MUL DUP4 MSTORE SWAP2 PUSH1 0x20 ADD SWAP2 PUSH2 0xD14 JUMP JUMPDEST DUP3 ADD SWAP2 SWAP1 PUSH1 0x0 MSTORE PUSH1 0x20 PUSH1 0x0 KECCAK256 SWAP1 JUMPDEST DUP2 SLOAD DUP2 MSTORE SWAP1 PUSH1 0x1 ADD SWAP1 PUSH1 0x20 ADD DUP1 DUP4 GT PUSH2 0xCF7 JUMPI DUP3 SWAP1 SUB PUSH1 0x1F AND DUP3 ADD SWAP2 JUMPDEST POP POP POP POP POP DUP2 MSTORE PUSH1 0x20 ADD PUSH1 0x1 DUP3 ADD SLOAD DUP2 MSTORE POP POP SWAP1 POP SWAP2 SWAP1 POP JUMP JUMPDEST DUP3 DUP1 SLOAD PUSH2 0xD3A SWAP1 PUSH2 0x1487 JUMP JUMPDEST SWAP1 PUSH1 0x0 MSTORE PUSH1 0x20 PUSH1 0x0 KECCAK256 SWAP1 PUSH1 0x1F ADD PUSH1 0x20 SWAP1 DIV DUP2 ADD SWAP3 DUP3 PUSH2 0xD5C JUMPI PUSH1 0x0 DUP6 SSTORE PUSH2 0xDA3 JUMP JUMPDEST DUP3 PUSH1 0x1F LT PUSH2 0xD75 JUMPI DUP1 MLOAD PUSH1 0xFF NOT AND DUP4 DUP1 ADD OR DUP6 SSTORE PUSH2 0xDA3 JUMP JUMPDEST DUP3 DUP1 ADD PUSH1 0x1 ADD DUP6 SSTORE DUP3 ISZERO PUSH2 0xDA3 JUMPI SWAP2 DUP3 ADD JUMPDEST DUP3 DUP2 GT ISZERO PUSH2 0xDA2 JUMPI DUP3 MLOAD DUP3 SSTORE SWAP2 PUSH1 0x20 ADD SWAP2 SWAP1 PUSH1 0x1 ADD SWAP1 PUSH2 0xD87 JUMP JUMPDEST JUMPDEST POP SWAP1 POP PUSH2 0xDB0 SWAP2 SWAP1 PUSH2 0xDDB JUMP JUMPDEST POP SWAP1 JUMP JUMPDEST PUSH2 0x14A7 DUP1 PUSH2 0x15CF DUP4 CODECOPY ADD SWAP1 JUMP JUMPDEST PUSH1 0x40 MLOAD DUP1 PUSH1 0x40 ADD PUSH1 0x40 MSTORE DUP1 PUSH1 0x60 DUP2 MSTORE PUSH1 0x20 ADD PUSH1 0x0 DUP2 MSTORE POP SWAP1 JUMP JUMPDEST JUMPDEST DUP1 DUP3 GT ISZERO PUSH2 0xDF4 JUMPI PUSH1 0x0 DUP2 PUSH1 0x0 SWAP1 SSTORE POP PUSH1 0x1 ADD PUSH2 0xDDC JUMP JUMPDEST POP SWAP1 JUMP JUMPDEST PUSH1 0x0 PUSH2 0xE0B PUSH2 0xE06 DUP5 PUSH2 0x12C1 JUMP JUMPDEST PUSH2 0x1290 JUMP JUMPDEST SWAP1 POP DUP1 DUP4 DUP3 MSTORE PUSH1 0x20 DUP3 ADD SWAP1 POP DUP3 PUSH1 0x0 JUMPDEST DUP6 DUP2 LT ISZERO PUSH2 0xE4B JUMPI DUP2 CALLDATALOAD DUP6 ADD PUSH2 0xE31 DUP9 DUP3 PUSH2 0xED2 JUMP JUMPDEST DUP5 MSTORE PUSH1 0x20 DUP5 ADD SWAP4 POP PUSH1 0x20 DUP4 ADD SWAP3 POP POP PUSH1 0x1 DUP2 ADD SWAP1 POP PUSH2 0xE1B JUMP JUMPDEST POP POP POP SWAP4 SWAP3 POP POP POP JUMP JUMPDEST PUSH1 0x0 PUSH2 0xE68 PUSH2 0xE63 DUP5 PUSH2 0x12ED JUMP JUMPDEST PUSH2 0x1290 JUMP JUMPDEST SWAP1 POP DUP3 DUP2 MSTORE PUSH1 0x20 DUP2 ADD DUP5 DUP5 DUP5 ADD GT ISZERO PUSH2 0xE80 JUMPI PUSH1 0x0 DUP1 REVERT JUMPDEST PUSH2 0xE8B DUP5 DUP3 DUP6 PUSH2 0x1445 JUMP JUMPDEST POP SWAP4 SWAP3 POP POP POP JUMP JUMPDEST PUSH1 0x0 DUP2 CALLDATALOAD SWAP1 POP PUSH2 0xEA2 DUP2 PUSH2 0x15A0 JUMP JUMPDEST SWAP3 SWAP2 POP POP JUMP JUMPDEST PUSH1 0x0 DUP3 PUSH1 0x1F DUP4 ADD SLT PUSH2 0xEB9 JUMPI PUSH1 0x0 DUP1 REVERT JUMPDEST DUP2 CALLDATALOAD PUSH2 0xEC9 DUP5 DUP3 PUSH1 0x20 DUP7 ADD PUSH2 0xDF8 JUMP JUMPDEST SWAP2 POP POP SWAP3 SWAP2 POP POP JUMP JUMPDEST PUSH1 0x0 DUP3 PUSH1 0x1F DUP4 ADD SLT PUSH2 0xEE3 JUMPI PUSH1 0x0 DUP1 REVERT JUMPDEST DUP2 CALLDATALOAD PUSH2 0xEF3 DUP5 DUP3 PUSH1 0x20 DUP7 ADD PUSH2 0xE55 JUMP JUMPDEST SWAP2 POP POP SWAP3 SWAP2 POP POP JUMP JUMPDEST PUSH1 0x0 DUP2 CALLDATALOAD SWAP1 POP PUSH2 0xF0B DUP2 PUSH2 0x15B7 JUMP JUMPDEST SWAP3 SWAP2 POP POP JUMP JUMPDEST PUSH1 0x0 PUSH1 0x20 DUP3 DUP5 SUB SLT ISZERO PUSH2 0xF23 JUMPI PUSH1 0x0 DUP1 REVERT JUMPDEST PUSH1 0x0 PUSH2 0xF31 DUP5 DUP3 DUP6 ADD PUSH2 0xE93 JUMP JUMPDEST SWAP2 POP POP SWAP3 SWAP2 POP POP JUMP JUMPDEST PUSH1 0x0 PUSH1 0x20 DUP3 DUP5 SUB SLT ISZERO PUSH2 0xF4C JUMPI PUSH1 0x0 DUP1 REVERT JUMPDEST PUSH1 0x0 DUP3 ADD CALLDATALOAD PUSH8 0xFFFFFFFFFFFFFFFF DUP2 GT ISZERO PUSH2 0xF66 JUMPI PUSH1 0x0 DUP1 REVERT JUMPDEST PUSH2 0xF72 DUP5 DUP3 DUP6 ADD PUSH2 0xEA8 JUMP JUMPDEST SWAP2 POP POP SWAP3 SWAP2 POP POP JUMP JUMPDEST PUSH1 0x0 PUSH1 0x20 DUP3 DUP5 SUB SLT ISZERO PUSH2 0xF8D JUMPI PUSH1 0x0 DUP1 REVERT JUMPDEST PUSH1 0x0 PUSH2 0xF9B DUP5 DUP3 DUP6 ADD PUSH2 0xEFC JUMP JUMPDEST SWAP2 POP POP SWAP3 SWAP2 POP POP JUMP JUMPDEST PUSH1 0x0 PUSH2 0xFB0 DUP4 DUP4 PUSH2 0x10CC JUMP JUMPDEST SWAP1 POP SWAP3 SWAP2 POP POP JUMP JUMPDEST PUSH2 0xFC1 DUP2 PUSH2 0x13D9 JUMP JUMPDEST DUP3 MSTORE POP POP JUMP JUMPDEST PUSH1 0x0 PUSH2 0xFD2 DUP3 PUSH2 0x132D JUMP JUMPDEST PUSH2 0xFDC DUP2 DUP6 PUSH2 0x1350 JUMP JUMPDEST SWAP4 POP DUP4 PUSH1 0x20 DUP3 MUL DUP6 ADD PUSH2 0xFEE DUP6 PUSH2 0x131D JUMP JUMPDEST DUP1 PUSH1 0x0 JUMPDEST DUP6 DUP2 LT ISZERO PUSH2 0x102A JUMPI DUP5 DUP5 SUB DUP10 MSTORE DUP2 MLOAD PUSH2 0x100B DUP6 DUP3 PUSH2 0xFA4 JUMP JUMPDEST SWAP5 POP PUSH2 0x1016 DUP4 PUSH2 0x1343 JUMP JUMPDEST SWAP3 POP PUSH1 0x20 DUP11 ADD SWAP10 POP POP PUSH1 0x1 DUP2 ADD SWAP1 POP PUSH2 0xFF2 JUMP JUMPDEST POP DUP3 SWAP8 POP DUP8 SWAP6 POP POP POP POP POP POP SWAP3 SWAP2 POP POP JUMP JUMPDEST PUSH2 0x1045 DUP2 PUSH2 0x13EB JUMP JUMPDEST DUP3 MSTORE POP POP JUMP JUMPDEST PUSH2 0x1054 DUP2 PUSH2 0x1421 JUMP JUMPDEST DUP3 MSTORE POP POP JUMP JUMPDEST PUSH1 0x0 PUSH2 0x1065 DUP3 PUSH2 0x1338 JUMP JUMPDEST PUSH2 0x106F DUP2 DUP6 PUSH2 0x1361 JUMP JUMPDEST SWAP4 POP PUSH2 0x107F DUP2 DUP6 PUSH1 0x20 DUP7 ADD PUSH2 0x1454 JUMP JUMPDEST PUSH2 0x1088 DUP2 PUSH2 0x158F JUMP JUMPDEST DUP5 ADD SWAP2 POP POP SWAP3 SWAP2 POP POP JUMP JUMPDEST PUSH1 0x0 PUSH2 0x109E DUP3 PUSH2 0x1338 JUMP JUMPDEST PUSH2 0x10A8 DUP2 DUP6 PUSH2 0x1372 JUMP JUMPDEST SWAP4 POP PUSH2 0x10B8 DUP2 DUP6 PUSH1 0x20 DUP7 ADD PUSH2 0x1454 JUMP JUMPDEST PUSH2 0x10C1 DUP2 PUSH2 0x158F JUMP JUMPDEST DUP5 ADD SWAP2 POP POP SWAP3 SWAP2 POP POP JUMP JUMPDEST PUSH1 0x0 PUSH1 0x40 DUP4 ADD PUSH1 0x0 DUP4 ADD MLOAD DUP5 DUP3 SUB PUSH1 0x0 DUP7 ADD MSTORE PUSH2 0x10E9 DUP3 DUP3 PUSH2 0x105A JUMP JUMPDEST SWAP2 POP POP PUSH1 0x20 DUP4 ADD MLOAD PUSH2 0x10FE PUSH1 0x20 DUP7 ADD DUP3 PUSH2 0x1146 JUMP JUMPDEST POP DUP1 SWAP2 POP POP SWAP3 SWAP2 POP POP JUMP JUMPDEST PUSH1 0x0 PUSH1 0x40 DUP4 ADD PUSH1 0x0 DUP4 ADD MLOAD DUP5 DUP3 SUB PUSH1 0x0 DUP7 ADD MSTORE PUSH2 0x1126 DUP3 DUP3 PUSH2 0x105A JUMP JUMPDEST SWAP2 POP POP PUSH1 0x20 DUP4 ADD MLOAD PUSH2 0x113B PUSH1 0x20 DUP7 ADD DUP3 PUSH2 0x1146 JUMP JUMPDEST POP DUP1 SWAP2 POP POP SWAP3 SWAP2 POP POP JUMP JUMPDEST PUSH2 0x114F DUP2 PUSH2 0x1417 JUMP JUMPDEST DUP3 MSTORE POP POP JUMP JUMPDEST PUSH2 0x115E DUP2 PUSH2 0x1417 JUMP JUMPDEST DUP3 MSTORE POP POP JUMP JUMPDEST PUSH1 0x0 PUSH1 0x20 DUP3 ADD SWAP1 POP PUSH2 0x1179 PUSH1 0x0 DUP4 ADD DUP5 PUSH2 0xFB8 JUMP JUMPDEST SWAP3 SWAP2 POP POP JUMP JUMPDEST PUSH1 0x0 PUSH1 0x20 DUP3 ADD SWAP1 POP DUP2 DUP2 SUB PUSH1 0x0 DUP4 ADD MSTORE PUSH2 0x1199 DUP2 DUP5 PUSH2 0xFC7 JUMP JUMPDEST SWAP1 POP SWAP3 SWAP2 POP POP JUMP JUMPDEST PUSH1 0x0 PUSH1 0x20 DUP3 ADD SWAP1 POP PUSH2 0x11B6 PUSH1 0x0 DUP4 ADD DUP5 PUSH2 0x104B JUMP JUMPDEST SWAP3 SWAP2 POP POP JUMP JUMPDEST PUSH1 0x0 PUSH1 0x20 DUP3 ADD SWAP1 POP DUP2 DUP2 SUB PUSH1 0x0 DUP4 ADD MSTORE PUSH2 0x11D6 DUP2 DUP5 PUSH2 0x1093 JUMP JUMPDEST SWAP1 POP SWAP3 SWAP2 POP POP JUMP JUMPDEST PUSH1 0x0 PUSH1 0x40 DUP3 ADD SWAP1 POP DUP2 DUP2 SUB PUSH1 0x0 DUP4 ADD MSTORE PUSH2 0x11F8 DUP2 DUP6 PUSH2 0x1093 JUMP JUMPDEST SWAP1 POP PUSH2 0x1207 PUSH1 0x20 DUP4 ADD DUP5 PUSH2 0x1155 JUMP JUMPDEST SWAP4 SWAP3 POP POP POP JUMP JUMPDEST PUSH1 0x0 PUSH1 0x20 DUP3 ADD SWAP1 POP DUP2 DUP2 SUB PUSH1 0x0 DUP4 ADD MSTORE PUSH2 0x1228 DUP2 DUP5 PUSH2 0x1109 JUMP JUMPDEST SWAP1 POP SWAP3 SWAP2 POP POP JUMP JUMPDEST PUSH1 0x0 PUSH1 0x20 DUP3 ADD SWAP1 POP PUSH2 0x1245 PUSH1 0x0 DUP4 ADD DUP5 PUSH2 0x1155 JUMP JUMPDEST SWAP3 SWAP2 POP POP JUMP JUMPDEST PUSH1 0x0 PUSH1 0x80 DUP3 ADD SWAP1 POP PUSH2 0x1260 PUSH1 0x0 DUP4 ADD DUP8 PUSH2 0x1155 JUMP JUMPDEST PUSH2 0x126D PUSH1 0x20 DUP4 ADD DUP7 PUSH2 0x103C JUMP JUMPDEST PUSH2 0x127A PUSH1 0x40 DUP4 ADD DUP6 PUSH2 0xFB8 JUMP JUMPDEST PUSH2 0x1287 PUSH1 0x60 DUP4 ADD DUP5 PUSH2 0x1155 JUMP JUMPDEST SWAP6 SWAP5 POP POP POP POP POP JUMP JUMPDEST PUSH1 0x0 PUSH1 0x40 MLOAD SWAP1 POP DUP2 DUP2 ADD DUP2 DUP2 LT PUSH8 0xFFFFFFFFFFFFFFFF DUP3 GT OR ISZERO PUSH2 0x12B7 JUMPI PUSH2 0x12B6 PUSH2 0x1560 JUMP JUMPDEST JUMPDEST DUP1 PUSH1 0x40 MSTORE POP SWAP2 SWAP1 POP JUMP JUMPDEST PUSH1 0x0 PUSH8 0xFFFFFFFFFFFFFFFF DUP3 GT ISZERO PUSH2 0x12DC JUMPI PUSH2 0x12DB PUSH2 0x1560 JUMP JUMPDEST JUMPDEST PUSH1 0x20 DUP3 MUL SWAP1 POP PUSH1 0x20 DUP2 ADD SWAP1 POP SWAP2 SWAP1 POP JUMP JUMPDEST PUSH1 0x0 PUSH8 0xFFFFFFFFFFFFFFFF DUP3 GT ISZERO PUSH2 0x1308 JUMPI PUSH2 0x1307 PUSH2 0x1560 JUMP JUMPDEST JUMPDEST PUSH1 0x1F NOT PUSH1 0x1F DUP4 ADD AND SWAP1 POP PUSH1 0x20 DUP2 ADD SWAP1 POP SWAP2 SWAP1 POP JUMP JUMPDEST PUSH1 0x0 DUP2 SWAP1 POP PUSH1 0x20 DUP3 ADD SWAP1 POP SWAP2 SWAP1 POP JUMP JUMPDEST PUSH1 0x0 DUP2 MLOAD SWAP1 POP SWAP2 SWAP1 POP JUMP JUMPDEST PUSH1 0x0 DUP2 MLOAD SWAP1 POP SWAP2 SWAP1 POP JUMP JUMPDEST PUSH1 0x0 PUSH1 0x20 DUP3 ADD SWAP1 POP SWAP2 SWAP1 POP JUMP JUMPDEST PUSH1 0x0 DUP3 DUP3 MSTORE PUSH1 0x20 DUP3 ADD SWAP1 POP SWAP3 SWAP2 POP POP JUMP JUMPDEST PUSH1 0x0 DUP3 DUP3 MSTORE PUSH1 0x20 DUP3 ADD SWAP1 POP SWAP3 SWAP2 POP POP JUMP JUMPDEST PUSH1 0x0 DUP3 DUP3 MSTORE PUSH1 0x20 DUP3 ADD SWAP1 POP SWAP3 SWAP2 POP POP JUMP JUMPDEST PUSH1 0x0 PUSH2 0x138E DUP3 PUSH2 0x1417 JUMP JUMPDEST SWAP2 POP PUSH2 0x1399 DUP4 PUSH2 0x1417 JUMP JUMPDEST SWAP3 POP DUP3 PUSH32 0xFFFFFFFFFFFFFFFFFFFFFFFFFFFFFFFFFFFFFFFFFFFFFFFFFFFFFFFFFFFFFFFF SUB DUP3 GT ISZERO PUSH2 0x13CE JUMPI PUSH2 0x13CD PUSH2 0x1502 JUMP JUMPDEST JUMPDEST DUP3 DUP3 ADD SWAP1 POP SWAP3 SWAP2 POP POP JUMP JUMPDEST PUSH1 0x0 PUSH2 0x13E4 DUP3 PUSH2 0x13F7 JUMP JUMPDEST SWAP1 POP SWAP2 SWAP1 POP JUMP JUMPDEST PUSH1 0x0 DUP2 ISZERO ISZERO SWAP1 POP SWAP2 SWAP1 POP JUMP JUMPDEST PUSH1 0x0 PUSH20 0xFFFFFFFFFFFFFFFFFFFFFFFFFFFFFFFFFFFFFFFF DUP3 AND SWAP1 POP SWAP2 SWAP1 POP JUMP JUMPDEST PUSH1 0x0 DUP2 SWAP1 POP SWAP2 SWAP1 POP JUMP JUMPDEST PUSH1 0x0 PUSH2 0x142C DUP3 PUSH2 0x1433 JUMP JUMPDEST SWAP1 POP SWAP2 SWAP1 POP JUMP JUMPDEST PUSH1 0x0 PUSH2 0x143E DUP3 PUSH2 0x13F7 JUMP JUMPDEST SWAP1 POP SWAP2 SWAP1 POP JUMP JUMPDEST DUP3 DUP2 DUP4 CALLDATACOPY PUSH1 0x0 DUP4 DUP4 ADD MSTORE POP POP POP JUMP JUMPDEST PUSH1 0x0 JUMPDEST DUP4 DUP2 LT ISZERO PUSH2 0x1472 JUMPI DUP1 DUP3 ADD MLOAD DUP2 DUP5 ADD MSTORE PUSH1 0x20 DUP2 ADD SWAP1 POP PUSH2 0x1457 JUMP JUMPDEST DUP4 DUP2 GT ISZERO PUSH2 0x1481 JUMPI PUSH1 0x0 DUP5 DUP5 ADD MSTORE JUMPDEST POP POP POP POP JUMP JUMPDEST PUSH1 0x0 PUSH1 0x2 DUP3 DIV SWAP1 POP PUSH1 0x1 DUP3 AND DUP1 PUSH2 0x149F JUMPI PUSH1 0x7F DUP3 AND SWAP2 POP JUMPDEST PUSH1 0x20 DUP3 LT DUP2 EQ ISZERO PUSH2 0x14B3 JUMPI PUSH2 0x14B2 PUSH2 0x1531 JUMP JUMPDEST JUMPDEST POP SWAP2 SWAP1 POP JUMP JUMPDEST PUSH1 0x0 PUSH2 0x14C4 DUP3 PUSH2 0x1417 JUMP JUMPDEST SWAP2 POP PUSH32 0xFFFFFFFFFFFFFFFFFFFFFFFFFFFFFFFFFFFFFFFFFFFFFFFFFFFFFFFFFFFFFFFF DUP3 EQ ISZERO PUSH2 0x14F7 JUMPI PUSH2 0x14F6 PUSH2 0x1502 JUMP JUMPDEST JUMPDEST PUSH1 0x1 DUP3 ADD SWAP1 POP SWAP2 SWAP1 POP JUMP JUMPDEST PUSH32 0x4E487B7100000000000000000000000000000000000000000000000000000000 PUSH1 0x0 MSTORE PUSH1 0x11 PUSH1 0x4 MSTORE PUSH1 0x24 PUSH1 0x0 REVERT JUMPDEST PUSH32 0x4E487B7100000000000000000000000000000000000000000000000000000000 PUSH1 0x0 MSTORE PUSH1 0x22 PUSH1 0x4 MSTORE PUSH1 0x24 PUSH1 0x0 REVERT JUMPDEST PUSH32 0x4E487B7100000000000000000000000000000000000000000000000000000000 PUSH1 0x0 MSTORE PUSH1 0x41 PUSH1 0x4 MSTORE PUSH1 0x24 PUSH1 0x0 REVERT JUMPDEST PUSH1 0x0 PUSH1 0x1F NOT PUSH1 0x1F DUP4 ADD AND SWAP1 POP SWAP2 SWAP1 POP JUMP JUMPDEST PUSH2 0x15A9 DUP2 PUSH2 0x13D9 JUMP JUMPDEST DUP2 EQ PUSH2 0x15B4 JUMPI PUSH1 0x0 DUP1 REVERT JUMPDEST POP JUMP JUMPDEST PUSH2 0x15C0 DUP2 PUSH2 0x1417 JUMP JUMPDEST DUP2 EQ PUSH2 0x15CB JUMPI PUSH1 0x0 DUP1 REVERT JUMPDEST POP JUMP INVALID PUSH1 0x80 PUSH1 0x40 MSTORE CALLVALUE DUP1 ISZERO PUSH2 0x10 JUMPI PUSH1 0x0 DUP1 REVERT JUMPDEST POP PUSH2 0x1487 DUP1 PUSH2 0x20 PUSH1 0x0 CODECOPY PUSH1 0x0 RETURN INVALID PUSH1 0x80 PUSH1 0x40 MSTORE CALLVALUE DUP1 ISZERO PUSH2 0x10 JUMPI PUSH1 0x0 DUP1 REVERT JUMPDEST POP PUSH1 0x4 CALLDATASIZE LT PUSH2 0x10B JUMPI PUSH1 0x0 CALLDATALOAD PUSH1 0xE0 SHR DUP1 PUSH4 0x7A16FCB0 GT PUSH2 0xA2 JUMPI DUP1 PUSH4 0x9E7B8D61 GT PUSH2 0x71 JUMPI DUP1 PUSH4 0x9E7B8D61 EQ PUSH2 0x25D JUMPI DUP1 PUSH4 0xA3EC138D EQ PUSH2 0x279 JUMPI DUP1 PUSH4 0xB1356488 EQ PUSH2 0x2AC JUMPI DUP1 PUSH4 0xE2BA53F0 EQ PUSH2 0x2CA JUMPI DUP1 PUSH4 0xE9D6C6DA EQ PUSH2 0x2E8 JUMPI PUSH2 0x10B JUMP JUMPDEST DUP1 PUSH4 0x7A16FCB0 EQ PUSH2 0x20F JUMPI DUP1 PUSH4 0x7C69710F EQ PUSH2 0x22D JUMPI DUP1 PUSH4 0x836BC692 EQ PUSH2 0x237 JUMPI DUP1 PUSH4 0x86278E77 EQ PUSH2 0x253 JUMPI PUSH2 0x10B JUMP JUMPDEST DUP1 PUSH4 0x609FF1BD GT PUSH2 0xDE JUMPI DUP1 PUSH4 0x609FF1BD EQ PUSH2 0x199 JUMPI DUP1 PUSH4 0x62564C48 EQ PUSH2 0x1B7 JUMPI DUP1 PUSH4 0x69BA1A75 EQ PUSH2 0x1D5 JUMPI DUP1 PUSH4 0x78F305C6 EQ PUSH2 0x1F1 JUMPI PUSH2 0x10B JUMP JUMPDEST DUP1 PUSH4 0x121B93F EQ PUSH2 0x110 JUMPI DUP1 PUSH4 0x13CF08B EQ PUSH2 0x12C JUMPI DUP1 PUSH4 0xA82DCB1 EQ PUSH2 0x15D JUMPI DUP1 PUSH4 0x4E69D560 EQ PUSH2 0x17B JUMPI JUMPDEST PUSH1 0x0 DUP1 REVERT JUMPDEST PUSH2 0x12A PUSH1 0x4 DUP1 CALLDATASIZE SUB DUP2 ADD SWAP1 PUSH2 0x125 SWAP2 SWAP1 PUSH2 0xE4C JUMP JUMPDEST PUSH2 0x318 JUMP JUMPDEST STOP JUMPDEST PUSH2 0x146 PUSH1 0x4 DUP1 CALLDATASIZE SUB DUP2 ADD SWAP1 PUSH2 0x141 SWAP2 SWAP1 PUSH2 0xE4C JUMP JUMPDEST PUSH2 0x407 JUMP JUMPDEST PUSH1 0x40 MLOAD PUSH2 0x154 SWAP3 SWAP2 SWAP1 PUSH2 0x1085 JUMP JUMPDEST PUSH1 0x40 MLOAD DUP1 SWAP2 SUB SWAP1 RETURN JUMPDEST PUSH2 0x165 PUSH2 0x4C3 JUMP JUMPDEST PUSH1 0x40 MLOAD PUSH2 0x172 SWAP2 SWAP1 PUSH2 0x10D7 JUMP JUMPDEST PUSH1 0x40 MLOAD DUP1 SWAP2 SUB SWAP1 RETURN JUMPDEST PUSH2 0x183 PUSH2 0x4CD JUMP JUMPDEST PUSH1 0x40 MLOAD PUSH2 0x190 SWAP2 SWAP1 PUSH2 0x10D7 JUMP JUMPDEST PUSH1 0x40 MLOAD DUP1 SWAP2 SUB SWAP1 RETURN JUMPDEST PUSH2 0x1A1 PUSH2 0x4D7 JUMP JUMPDEST PUSH1 0x40 MLOAD PUSH2 0x1AE SWAP2 SWAP1 PUSH2 0x10D7 JUMP JUMPDEST PUSH1 0x40 MLOAD DUP1 SWAP2 SUB SWAP1 RETURN JUMPDEST PUSH2 0x1BF PUSH2 0x5AB JUMP JUMPDEST PUSH1 0x40 MLOAD PUSH2 0x1CC SWAP2 SWAP1 PUSH2 0x1041 JUMP JUMPDEST PUSH1 0x40 MLOAD DUP1 SWAP2 SUB SWAP1 RETURN JUMPDEST PUSH2 0x1EF PUSH1 0x4 DUP1 CALLDATASIZE SUB DUP2 ADD SWAP1 PUSH2 0x1EA SWAP2 SWAP1 PUSH2 0xE4C JUMP JUMPDEST PUSH2 0x6A6 JUMP JUMPDEST STOP JUMPDEST PUSH2 0x1F9 PUSH2 0x6B0 JUMP JUMPDEST PUSH1 0x40 MLOAD PUSH2 0x206 SWAP2 SWAP1 PUSH2 0x10D7 JUMP JUMPDEST PUSH1 0x40 MLOAD DUP1 SWAP2 SUB SWAP1 RETURN JUMPDEST PUSH2 0x217 PUSH2 0x6BA JUMP JUMPDEST PUSH1 0x40 MLOAD PUSH2 0x224 SWAP2 SWAP1 PUSH2 0x1026 JUMP JUMPDEST PUSH1 0x40 MLOAD DUP1 SWAP2 SUB SWAP1 RETURN JUMPDEST PUSH2 0x235 PUSH2 0x6E3 JUMP JUMPDEST STOP JUMPDEST PUSH2 0x251 PUSH1 0x4 DUP1 CALLDATASIZE SUB DUP2 ADD SWAP1 PUSH2 0x24C SWAP2 SWAP1 PUSH2 0xE0B JUMP JUMPDEST PUSH2 0x6EC JUMP JUMPDEST STOP JUMPDEST PUSH2 0x25B PUSH2 0x872 JUMP JUMPDEST STOP JUMPDEST PUSH2 0x277 PUSH1 0x4 DUP1 CALLDATASIZE SUB DUP2 ADD SWAP1 PUSH2 0x272 SWAP2 SWAP1 PUSH2 0xDE2 JUMP JUMPDEST PUSH2 0x87B JUMP JUMPDEST STOP JUMPDEST PUSH2 0x293 PUSH1 0x4 DUP1 CALLDATASIZE SUB DUP2 ADD SWAP1 PUSH2 0x28E SWAP2 SWAP1 PUSH2 0xDE2 JUMP JUMPDEST PUSH2 0x9C5 JUMP JUMPDEST PUSH1 0x40 MLOAD PUSH2 0x2A3 SWAP5 SWAP4 SWAP3 SWAP2 SWAP1 PUSH2 0x10F2 JUMP JUMPDEST PUSH1 0x40 MLOAD DUP1 SWAP2 SUB SWAP1 RETURN JUMPDEST PUSH2 0x2B4 PUSH2 0xA22 JUMP JUMPDEST PUSH1 0x40 MLOAD PUSH2 0x2C1 SWAP2 SWAP1 PUSH2 0x10D7 JUMP JUMPDEST PUSH1 0x40 MLOAD DUP1 SWAP2 SUB SWAP1 RETURN JUMPDEST PUSH2 0x2D2 PUSH2 0xA2C JUMP JUMPDEST PUSH1 0x40 MLOAD PUSH2 0x2DF SWAP2 SWAP1 PUSH2 0x1063 JUMP JUMPDEST PUSH1 0x40 MLOAD DUP1 SWAP2 SUB SWAP1 RETURN JUMPDEST PUSH2 0x302 PUSH1 0x4 DUP1 CALLDATASIZE SUB DUP2 ADD SWAP1 PUSH2 0x2FD SWAP2 SWAP1 PUSH2 0xE4C JUMP JUMPDEST PUSH2 0xB0E JUMP JUMPDEST PUSH1 0x40 MLOAD PUSH2 0x30F SWAP2 SWAP1 PUSH2 0x10B5 JUMP JUMPDEST PUSH1 0x40 MLOAD DUP1 SWAP2 SUB SWAP1 RETURN JUMPDEST PUSH1 0x0 PUSH1 0x5 PUSH1 0x0 CALLER PUSH20 0xFFFFFFFFFFFFFFFFFFFFFFFFFFFFFFFFFFFFFFFF AND PUSH20 0xFFFFFFFFFFFFFFFFFFFFFFFFFFFFFFFFFFFFFFFF AND DUP2 MSTORE PUSH1 0x20 ADD SWAP1 DUP2 MSTORE PUSH1 0x20 ADD PUSH1 0x0 KECCAK256 SWAP1 POP DUP1 PUSH1 0x1 ADD PUSH1 0x0 SWAP1 SLOAD SWAP1 PUSH2 0x100 EXP SWAP1 DIV PUSH1 0xFF AND ISZERO PUSH2 0x377 JUMPI PUSH1 0x0 DUP1 REVERT JUMPDEST PUSH1 0x1 DUP2 PUSH1 0x1 ADD PUSH1 0x0 PUSH2 0x100 EXP DUP2 SLOAD DUP2 PUSH1 0xFF MUL NOT AND SWAP1 DUP4 ISZERO ISZERO MUL OR SWAP1 SSTORE POP DUP2 DUP2 PUSH1 0x2 ADD DUP2 SWAP1 SSTORE POP DUP1 PUSH1 0x0 ADD SLOAD PUSH1 0x6 DUP4 DUP2 SLOAD DUP2 LT PUSH2 0x3DC JUMPI PUSH32 0x4E487B7100000000000000000000000000000000000000000000000000000000 PUSH1 0x0 MSTORE PUSH1 0x32 PUSH1 0x4 MSTORE PUSH1 0x24 PUSH1 0x0 REVERT JUMPDEST SWAP1 PUSH1 0x0 MSTORE PUSH1 0x20 PUSH1 0x0 KECCAK256 SWAP1 PUSH1 0x2 MUL ADD PUSH1 0x1 ADD PUSH1 0x0 DUP3 DUP3 SLOAD PUSH2 0x3FC SWAP2 SWAP1 PUSH2 0x122A JUMP JUMPDEST SWAP3 POP POP DUP2 SWAP1 SSTORE POP POP POP JUMP JUMPDEST PUSH1 0x6 DUP2 DUP2 SLOAD DUP2 LT PUSH2 0x417 JUMPI PUSH1 0x0 DUP1 REVERT JUMPDEST SWAP1 PUSH1 0x0 MSTORE PUSH1 0x20 PUSH1 0x0 KECCAK256 SWAP1 PUSH1 0x2 MUL ADD PUSH1 0x0 SWAP2 POP SWAP1 POP DUP1 PUSH1 0x0 ADD DUP1 SLOAD PUSH2 0x43A SWAP1 PUSH2 0x130A JUMP JUMPDEST DUP1 PUSH1 0x1F ADD PUSH1 0x20 DUP1 SWAP2 DIV MUL PUSH1 0x20 ADD PUSH1 0x40 MLOAD SWAP1 DUP2 ADD PUSH1 0x40 MSTORE DUP1 SWAP3 SWAP2 SWAP1 DUP2 DUP2 MSTORE PUSH1 0x20 ADD DUP3 DUP1 SLOAD PUSH2 0x466 SWAP1 PUSH2 0x130A JUMP JUMPDEST DUP1 ISZERO PUSH2 0x4B3 JUMPI DUP1 PUSH1 0x1F LT PUSH2 0x488 JUMPI PUSH2 0x100 DUP1 DUP4 SLOAD DIV MUL DUP4 MSTORE SWAP2 PUSH1 0x20 ADD SWAP2 PUSH2 0x4B3 JUMP JUMPDEST DUP3 ADD SWAP2 SWAP1 PUSH1 0x0 MSTORE PUSH1 0x20 PUSH1 0x0 KECCAK256 SWAP1 JUMPDEST DUP2 SLOAD DUP2 MSTORE SWAP1 PUSH1 0x1 ADD SWAP1 PUSH1 0x20 ADD DUP1 DUP4 GT PUSH2 0x496 JUMPI DUP3 SWAP1 SUB PUSH1 0x1F AND DUP3 ADD SWAP2 JUMPDEST POP POP POP POP POP SWAP1 DUP1 PUSH1 0x1 ADD SLOAD SWAP1 POP DUP3 JUMP JUMPDEST PUSH1 0x0 PUSH1 0x4 SLOAD SWAP1 POP SWAP1 JUMP JUMPDEST PUSH1 0x0 PUSH1 0x1 SLOAD SWAP1 POP SWAP1 JUMP JUMPDEST PUSH1 0x0 DUP1 PUSH1 0x0 SWAP1 POP PUSH1 0x0 JUMPDEST PUSH1 0x6 DUP1 SLOAD SWAP1 POP DUP2 LT ISZERO PUSH2 0x5A6 JUMPI DUP2 PUSH1 0x6 DUP3 DUP2 SLOAD DUP2 LT PUSH2 0x529 JUMPI PUSH32 0x4E487B7100000000000000000000000000000000000000000000000000000000 PUSH1 0x0 MSTORE PUSH1 0x32 PUSH1 0x4 MSTORE PUSH1 0x24 PUSH1 0x0 REVERT JUMPDEST SWAP1 PUSH1 0x0 MSTORE PUSH1 0x20 PUSH1 0x0 KECCAK256 SWAP1 PUSH1 0x2 MUL ADD PUSH1 0x1 ADD SLOAD GT ISZERO PUSH2 0x593 JUMPI PUSH1 0x6 DUP2 DUP2 SLOAD DUP2 LT PUSH2 0x57B JUMPI PUSH32 0x4E487B7100000000000000000000000000000000000000000000000000000000 PUSH1 0x0 MSTORE PUSH1 0x32 PUSH1 0x4 MSTORE PUSH1 0x24 PUSH1 0x0 REVERT JUMPDEST SWAP1 PUSH1 0x0 MSTORE PUSH1 0x20 PUSH1 0x0 KECCAK256 SWAP1 PUSH1 0x2 MUL ADD PUSH1 0x1 ADD SLOAD SWAP2 POP DUP1 SWAP3 POP JUMPDEST DUP1 DUP1 PUSH2 0x59E SWAP1 PUSH2 0x133C JUMP JUMPDEST SWAP2 POP POP PUSH2 0x4E1 JUMP JUMPDEST POP POP SWAP1 JUMP JUMPDEST PUSH1 0x60 PUSH1 0x6 DUP1 SLOAD DUP1 PUSH1 0x20 MUL PUSH1 0x20 ADD PUSH1 0x40 MLOAD SWAP1 DUP2 ADD PUSH1 0x40 MSTORE DUP1 SWAP3 SWAP2 SWAP1 DUP2 DUP2 MSTORE PUSH1 0x20 ADD PUSH1 0x0 SWAP1 JUMPDEST DUP3 DUP3 LT ISZERO PUSH2 0x69D JUMPI DUP4 DUP3 SWAP1 PUSH1 0x0 MSTORE PUSH1 0x20 PUSH1 0x0 KECCAK256 SWAP1 PUSH1 0x2 MUL ADD PUSH1 0x40 MLOAD DUP1 PUSH1 0x40 ADD PUSH1 0x40 MSTORE SWAP1 DUP2 PUSH1 0x0 DUP3 ADD DUP1 SLOAD PUSH2 0x602 SWAP1 PUSH2 0x130A JUMP JUMPDEST DUP1 PUSH1 0x1F ADD PUSH1 0x20 DUP1 SWAP2 DIV MUL PUSH1 0x20 ADD PUSH1 0x40 MLOAD SWAP1 DUP2 ADD PUSH1 0x40 MSTORE DUP1 SWAP3 SWAP2 SWAP1 DUP2 DUP2 MSTORE PUSH1 0x20 ADD DUP3 DUP1 SLOAD PUSH2 0x62E SWAP1 PUSH2 0x130A JUMP JUMPDEST DUP1 ISZERO PUSH2 0x67B JUMPI DUP1 PUSH1 0x1F LT PUSH2 0x650 JUMPI PUSH2 0x100 DUP1 DUP4 SLOAD DIV MUL DUP4 MSTORE SWAP2 PUSH1 0x20 ADD SWAP2 PUSH2 0x67B JUMP JUMPDEST DUP3 ADD SWAP2 SWAP1 PUSH1 0x0 MSTORE PUSH1 0x20 PUSH1 0x0 KECCAK256 SWAP1 JUMPDEST DUP2 SLOAD DUP2 MSTORE SWAP1 PUSH1 0x1 ADD SWAP1 PUSH1 0x20 ADD DUP1 DUP4 GT PUSH2 0x65E JUMPI DUP3 SWAP1 SUB PUSH1 0x1F AND DUP3 ADD SWAP2 JUMPDEST POP POP POP POP POP DUP2 MSTORE PUSH1 0x20 ADD PUSH1 0x1 DUP3 ADD SLOAD DUP2 MSTORE POP POP DUP2 MSTORE PUSH1 0x20 ADD SWAP1 PUSH1 0x1 ADD SWAP1 PUSH2 0x5CF JUMP JUMPDEST POP POP POP POP SWAP1 POP SWAP1 JUMP JUMPDEST DUP1 PUSH1 0x1 DUP2 SWAP1 SSTORE POP POP JUMP JUMPDEST PUSH1 0x0 PUSH1 0x2 SLOAD SWAP1 POP SWAP1 JUMP JUMPDEST PUSH1 0x0 DUP1 PUSH1 0x0 SWAP1 SLOAD SWAP1 PUSH2 0x100 EXP SWAP1 DIV PUSH20 0xFFFFFFFFFFFFFFFFFFFFFFFFFFFFFFFFFFFFFFFF AND SWAP1 POP SWAP1 JUMP JUMPDEST TIMESTAMP PUSH1 0x2 DUP2 SWAP1 SSTORE POP JUMP JUMPDEST CALLER PUSH1 0x0 DUP1 PUSH2 0x100 EXP DUP2 SLOAD DUP2 PUSH20 0xFFFFFFFFFFFFFFFFFFFFFFFFFFFFFFFFFFFFFFFF MUL NOT AND SWAP1 DUP4 PUSH20 0xFFFFFFFFFFFFFFFFFFFFFFFFFFFFFFFFFFFFFFFF AND MUL OR SWAP1 SSTORE POP PUSH1 0x1 PUSH1 0x5 PUSH1 0x0 DUP1 PUSH1 0x0 SWAP1 SLOAD SWAP1 PUSH2 0x100 EXP SWAP1 DIV PUSH20 0xFFFFFFFFFFFFFFFFFFFFFFFFFFFFFFFFFFFFFFFF AND PUSH20 0xFFFFFFFFFFFFFFFFFFFFFFFFFFFFFFFFFFFFFFFF AND PUSH20 0xFFFFFFFFFFFFFFFFFFFFFFFFFFFFFFFFFFFFFFFF AND DUP2 MSTORE PUSH1 0x20 ADD SWAP1 DUP2 MSTORE PUSH1 0x20 ADD PUSH1 0x0 KECCAK256 PUSH1 0x0 ADD DUP2 SWAP1 SSTORE POP PUSH2 0x79D PUSH2 0x6E3 JUMP JUMPDEST DUP1 MLOAD PUSH1 0x4 DUP2 SWAP1 SSTORE POP PUSH1 0x0 JUMPDEST DUP2 MLOAD DUP2 LT ISZERO PUSH2 0x86E JUMPI PUSH1 0x6 PUSH1 0x40 MLOAD DUP1 PUSH1 0x40 ADD PUSH1 0x40 MSTORE DUP1 DUP5 DUP5 DUP2 MLOAD DUP2 LT PUSH2 0x7F7 JUMPI PUSH32 0x4E487B7100000000000000000000000000000000000000000000000000000000 PUSH1 0x0 MSTORE PUSH1 0x32 PUSH1 0x4 MSTORE PUSH1 0x24 PUSH1 0x0 REVERT JUMPDEST PUSH1 0x20 MUL PUSH1 0x20 ADD ADD MLOAD DUP2 MSTORE PUSH1 0x20 ADD PUSH1 0x0 DUP2 MSTORE POP SWAP1 DUP1 PUSH1 0x1 DUP2 SLOAD ADD DUP1 DUP3 SSTORE DUP1 SWAP2 POP POP PUSH1 0x1 SWAP1 SUB SWAP1 PUSH1 0x0 MSTORE PUSH1 0x20 PUSH1 0x0 KECCAK256 SWAP1 PUSH1 0x2 MUL ADD PUSH1 0x0 SWAP1 SWAP2 SWAP1 SWAP2 SWAP1 SWAP2 POP PUSH1 0x0 DUP3 ADD MLOAD DUP2 PUSH1 0x0 ADD SWAP1 DUP1 MLOAD SWAP1 PUSH1 0x20 ADD SWAP1 PUSH2 0x84E SWAP3 SWAP2 SWAP1 PUSH2 0xC0C JUMP JUMPDEST POP PUSH1 0x20 DUP3 ADD MLOAD DUP2 PUSH1 0x1 ADD SSTORE POP POP DUP1 DUP1 PUSH2 0x866 SWAP1 PUSH2 0x133C JUMP JUMPDEST SWAP2 POP POP PUSH2 0x7A8 JUMP JUMPDEST POP POP JUMP JUMPDEST TIMESTAMP PUSH1 0x3 DUP2 SWAP1 SSTORE POP JUMP JUMPDEST PUSH1 0x0 DUP1 SLOAD SWAP1 PUSH2 0x100 EXP SWAP1 DIV PUSH20 0xFFFFFFFFFFFFFFFFFFFFFFFFFFFFFFFFFFFFFFFF AND PUSH20 0xFFFFFFFFFFFFFFFFFFFFFFFFFFFFFFFFFFFFFFFF AND CALLER PUSH20 0xFFFFFFFFFFFFFFFFFFFFFFFFFFFFFFFFFFFFFFFF AND EQ DUP1 ISZERO PUSH2 0x923 JUMPI POP PUSH1 0x5 PUSH1 0x0 DUP3 PUSH20 0xFFFFFFFFFFFFFFFFFFFFFFFFFFFFFFFFFFFFFFFF AND PUSH20 0xFFFFFFFFFFFFFFFFFFFFFFFFFFFFFFFFFFFFFFFF AND DUP2 MSTORE PUSH1 0x20 ADD SWAP1 DUP2 MSTORE PUSH1 0x20 ADD PUSH1 0x0 KECCAK256 PUSH1 0x1 ADD PUSH1 0x0 SWAP1 SLOAD SWAP1 PUSH2 0x100 EXP SWAP1 DIV PUSH1 0xFF AND ISZERO JUMPDEST DUP1 ISZERO PUSH2 0x971 JUMPI POP PUSH1 0x0 PUSH1 0x5 PUSH1 0x0 DUP4 PUSH20 0xFFFFFFFFFFFFFFFFFFFFFFFFFFFFFFFFFFFFFFFF AND PUSH20 0xFFFFFFFFFFFFFFFFFFFFFFFFFFFFFFFFFFFFFFFF AND DUP2 MSTORE PUSH1 0x20 ADD SWAP1 DUP2 MSTORE PUSH1 0x20 ADD PUSH1 0x0 KECCAK256 PUSH1 0x0 ADD SLOAD EQ JUMPDEST PUSH2 0x97A JUMPI PUSH1 0x0 DUP1 REVERT JUMPDEST PUSH1 0x1 PUSH1 0x5 PUSH1 0x0 DUP4 PUSH20 0xFFFFFFFFFFFFFFFFFFFFFFFFFFFFFFFFFFFFFFFF AND PUSH20 0xFFFFFFFFFFFFFFFFFFFFFFFFFFFFFFFFFFFFFFFF AND DUP2 MSTORE PUSH1 0x20 ADD SWAP1 DUP2 MSTORE PUSH1 0x20 ADD PUSH1 0x0 KECCAK256 PUSH1 0x0 ADD DUP2 SWAP1 SSTORE POP POP JUMP JUMPDEST PUSH1 0x5 PUSH1 0x20 MSTORE DUP1 PUSH1 0x0 MSTORE PUSH1 0x40 PUSH1 0x0 KECCAK256 PUSH1 0x0 SWAP2 POP SWAP1 POP DUP1 PUSH1 0x0 ADD SLOAD SWAP1 DUP1 PUSH1 0x1 ADD PUSH1 0x0 SWAP1 SLOAD SWAP1 PUSH2 0x100 EXP SWAP1 DIV PUSH1 0xFF AND SWAP1 DUP1 PUSH1 0x1 ADD PUSH1 0x1 SWAP1 SLOAD SWAP1 PUSH2 0x100 EXP SWAP1 DIV PUSH20 0xFFFFFFFFFFFFFFFFFFFFFFFFFFFFFFFFFFFFFFFF AND SWAP1 DUP1 PUSH1 0x2 ADD SLOAD SWAP1 POP DUP5 JUMP JUMPDEST PUSH1 0x0 PUSH1 0x3 SLOAD SWAP1 POP SWAP1 JUMP JUMPDEST PUSH1 0x60 PUSH1 0x6 PUSH2 0xA38 PUSH2 0x4D7 JUMP JUMPDEST DUP2 SLOAD DUP2 LT PUSH2 0xA6F JUMPI PUSH32 0x4E487B7100000000000000000000000000000000000000000000000000000000 PUSH1 0x0 MSTORE PUSH1 0x32 PUSH1 0x4 MSTORE PUSH1 0x24 PUSH1 0x0 REVERT JUMPDEST SWAP1 PUSH1 0x0 MSTORE PUSH1 0x20 PUSH1 0x0 KECCAK256 SWAP1 PUSH1 0x2 MUL ADD PUSH1 0x0 ADD DUP1 SLOAD PUSH2 0xA8B SWAP1 PUSH2 0x130A JUMP JUMPDEST DUP1 PUSH1 0x1F ADD PUSH1 0x20 DUP1 SWAP2 DIV MUL PUSH1 0x20 ADD PUSH1 0x40 MLOAD SWAP1 DUP2 ADD PUSH1 0x40 MSTORE DUP1 SWAP3 SWAP2 SWAP1 DUP2 DUP2 MSTORE PUSH1 0x20 ADD DUP3 DUP1 SLOAD PUSH2 0xAB7 SWAP1 PUSH2 0x130A JUMP JUMPDEST DUP1 ISZERO PUSH2 0xB04 JUMPI DUP1 PUSH1 0x1F LT PUSH2 0xAD9 JUMPI PUSH2 0x100 DUP1 DUP4 SLOAD DIV MUL DUP4 MSTORE SWAP2 PUSH1 0x20 ADD SWAP2 PUSH2 0xB04 JUMP JUMPDEST DUP3 ADD SWAP2 SWAP1 PUSH1 0x0 MSTORE PUSH1 0x20 PUSH1 0x0 KECCAK256 SWAP1 JUMPDEST DUP2 SLOAD DUP2 MSTORE SWAP1 PUSH1 0x1 ADD SWAP1 PUSH1 0x20 ADD DUP1 DUP4 GT PUSH2 0xAE7 JUMPI DUP3 SWAP1 SUB PUSH1 0x1F AND DUP3 ADD SWAP2 JUMPDEST POP POP POP POP POP SWAP1 POP SWAP1 JUMP JUMPDEST PUSH2 0xB16 PUSH2 0xC92 JUMP JUMPDEST PUSH1 0x6 DUP3 DUP2 SLOAD DUP2 LT PUSH2 0xB50 JUMPI PUSH32 0x4E487B7100000000000000000000000000000000000000000000000000000000 PUSH1 0x0 MSTORE PUSH1 0x32 PUSH1 0x4 MSTORE PUSH1 0x24 PUSH1 0x0 REVERT JUMPDEST SWAP1 PUSH1 0x0 MSTORE PUSH1 0x20 PUSH1 0x0 KECCAK256 SWAP1 PUSH1 0x2 MUL ADD PUSH1 0x40 MLOAD DUP1 PUSH1 0x40 ADD PUSH1 0x40 MSTORE SWAP1 DUP2 PUSH1 0x0 DUP3 ADD DUP1 SLOAD PUSH2 0xB79 SWAP1 PUSH2 0x130A JUMP JUMPDEST DUP1 PUSH1 0x1F ADD PUSH1 0x20 DUP1 SWAP2 DIV MUL PUSH1 0x20 ADD PUSH1 0x40 MLOAD SWAP1 DUP2 ADD PUSH1 0x40 MSTORE DUP1 SWAP3 SWAP2 SWAP1 DUP2 DUP2 MSTORE PUSH1 0x20 ADD DUP3 DUP1 SLOAD PUSH2 0xBA5 SWAP1 PUSH2 0x130A JUMP JUMPDEST DUP1 ISZERO PUSH2 0xBF2 JUMPI DUP1 PUSH1 0x1F LT PUSH2 0xBC7 JUMPI PUSH2 0x100 DUP1 DUP4 SLOAD DIV MUL DUP4 MSTORE SWAP2 PUSH1 0x20 ADD SWAP2 PUSH2 0xBF2 JUMP JUMPDEST DUP3 ADD SWAP2 SWAP1 PUSH1 0x0 MSTORE PUSH1 0x20 PUSH1 0x0 KECCAK256 SWAP1 JUMPDEST DUP2 SLOAD DUP2 MSTORE SWAP1 PUSH1 0x1 ADD SWAP1 PUSH1 0x20 ADD DUP1 DUP4 GT PUSH2 0xBD5 JUMPI DUP3 SWAP1 SUB PUSH1 0x1F AND DUP3 ADD SWAP2 JUMPDEST POP POP POP POP POP DUP2 MSTORE PUSH1 0x20 ADD PUSH1 0x1 DUP3 ADD SLOAD DUP2 MSTORE POP POP SWAP1 POP SWAP2 SWAP1 POP JUMP JUMPDEST DUP3 DUP1 SLOAD PUSH2 0xC18 SWAP1 PUSH2 0x130A JUMP JUMPDEST SWAP1 PUSH1 0x0 MSTORE PUSH1 0x20 PUSH1 0x0 KECCAK256 SWAP1 PUSH1 0x1F ADD PUSH1 0x20 SWAP1 DIV DUP2 ADD SWAP3 DUP3 PUSH2 0xC3A JUMPI PUSH1 0x0 DUP6 SSTORE PUSH2 0xC81 JUMP JUMPDEST DUP3 PUSH1 0x1F LT PUSH2 0xC53 JUMPI DUP1 MLOAD PUSH1 0xFF NOT AND DUP4 DUP1 ADD OR DUP6 SSTORE PUSH2 0xC81 JUMP JUMPDEST DUP3 DUP1 ADD PUSH1 0x1 ADD DUP6 SSTORE DUP3 ISZERO PUSH2 0xC81 JUMPI SWAP2 DUP3 ADD JUMPDEST DUP3 DUP2 GT ISZERO PUSH2 0xC80 JUMPI DUP3 MLOAD DUP3 SSTORE SWAP2 PUSH1 0x20 ADD SWAP2 SWAP1 PUSH1 0x1 ADD SWAP1 PUSH2 0xC65 JUMP JUMPDEST JUMPDEST POP SWAP1 POP PUSH2 0xC8E SWAP2 SWAP1 PUSH2 0xCAC JUMP JUMPDEST POP SWAP1 JUMP JUMPDEST PUSH1 0x40 MLOAD DUP1 PUSH1 0x40 ADD PUSH1 0x40 MSTORE DUP1 PUSH1 0x60 DUP2 MSTORE PUSH1 0x20 ADD PUSH1 0x0 DUP2 MSTORE POP SWAP1 JUMP JUMPDEST JUMPDEST DUP1 DUP3 GT ISZERO PUSH2 0xCC5 JUMPI PUSH1 0x0 DUP2 PUSH1 0x0 SWAP1 SSTORE POP PUSH1 0x1 ADD PUSH2 0xCAD JUMP JUMPDEST POP SWAP1 JUMP JUMPDEST PUSH1 0x0 PUSH2 0xCDC PUSH2 0xCD7 DUP5 PUSH2 0x1168 JUMP JUMPDEST PUSH2 0x1137 JUMP JUMPDEST SWAP1 POP DUP1 DUP4 DUP3 MSTORE PUSH1 0x20 DUP3 ADD SWAP1 POP DUP3 PUSH1 0x0 JUMPDEST DUP6 DUP2 LT ISZERO PUSH2 0xD1C JUMPI DUP2 CALLDATALOAD DUP6 ADD PUSH2 0xD02 DUP9 DUP3 PUSH2 0xDA3 JUMP JUMPDEST DUP5 MSTORE PUSH1 0x20 DUP5 ADD SWAP4 POP PUSH1 0x20 DUP4 ADD SWAP3 POP POP PUSH1 0x1 DUP2 ADD SWAP1 POP PUSH2 0xCEC JUMP JUMPDEST POP POP POP SWAP4 SWAP3 POP POP POP JUMP JUMPDEST PUSH1 0x0 PUSH2 0xD39 PUSH2 0xD34 DUP5 PUSH2 0x1194 JUMP JUMPDEST PUSH2 0x1137 JUMP JUMPDEST SWAP1 POP DUP3 DUP2 MSTORE PUSH1 0x20 DUP2 ADD DUP5 DUP5 DUP5 ADD GT ISZERO PUSH2 0xD51 JUMPI PUSH1 0x0 DUP1 REVERT JUMPDEST PUSH2 0xD5C DUP5 DUP3 DUP6 PUSH2 0x12C8 JUMP JUMPDEST POP SWAP4 SWAP3 POP POP POP JUMP JUMPDEST PUSH1 0x0 DUP2 CALLDATALOAD SWAP1 POP PUSH2 0xD73 DUP2 PUSH2 0x1423 JUMP JUMPDEST SWAP3 SWAP2 POP POP JUMP JUMPDEST PUSH1 0x0 DUP3 PUSH1 0x1F DUP4 ADD SLT PUSH2 0xD8A JUMPI PUSH1 0x0 DUP1 REVERT JUMPDEST DUP2 CALLDATALOAD PUSH2 0xD9A DUP5 DUP3 PUSH1 0x20 DUP7 ADD PUSH2 0xCC9 JUMP JUMPDEST SWAP2 POP POP SWAP3 SWAP2 POP POP JUMP JUMPDEST PUSH1 0x0 DUP3 PUSH1 0x1F DUP4 ADD SLT PUSH2 0xDB4 JUMPI PUSH1 0x0 DUP1 REVERT JUMPDEST DUP2 CALLDATALOAD PUSH2 0xDC4 DUP5 DUP3 PUSH1 0x20 DUP7 ADD PUSH2 0xD26 JUMP JUMPDEST SWAP2 POP POP SWAP3 SWAP2 POP POP JUMP JUMPDEST PUSH1 0x0 DUP2 CALLDATALOAD SWAP1 POP PUSH2 0xDDC DUP2 PUSH2 0x143A JUMP JUMPDEST SWAP3 SWAP2 POP POP JUMP JUMPDEST PUSH1 0x0 PUSH1 0x20 DUP3 DUP5 SUB SLT ISZERO PUSH2 0xDF4 JUMPI PUSH1 0x0 DUP1 REVERT JUMPDEST PUSH1 0x0 PUSH2 0xE02 DUP5 DUP3 DUP6 ADD PUSH2 0xD64 JUMP JUMPDEST SWAP2 POP POP SWAP3 SWAP2 POP POP JUMP JUMPDEST PUSH1 0x0 PUSH1 0x20 DUP3 DUP5 SUB SLT ISZERO PUSH2 0xE1D JUMPI PUSH1 0x0 DUP1 REVERT JUMPDEST PUSH1 0x0 DUP3 ADD CALLDATALOAD PUSH8 0xFFFFFFFFFFFFFFFF DUP2 GT ISZERO PUSH2 0xE37 JUMPI PUSH1 0x0 DUP1 REVERT JUMPDEST PUSH2 0xE43 DUP5 DUP3 DUP6 ADD PUSH2 0xD79 JUMP JUMPDEST SWAP2 POP POP SWAP3 SWAP2 POP POP JUMP JUMPDEST PUSH1 0x0 PUSH1 0x20 DUP3 DUP5 SUB SLT ISZERO PUSH2 0xE5E JUMPI PUSH1 0x0 DUP1 REVERT JUMPDEST PUSH1 0x0 PUSH2 0xE6C DUP5 DUP3 DUP6 ADD PUSH2 0xDCD JUMP JUMPDEST SWAP2 POP POP SWAP3 SWAP2 POP POP JUMP JUMPDEST PUSH1 0x0 PUSH2 0xE81 DUP4 DUP4 PUSH2 0xF8E JUMP JUMPDEST SWAP1 POP SWAP3 SWAP2 POP POP JUMP JUMPDEST PUSH2 0xE92 DUP2 PUSH2 0x1280 JUMP JUMPDEST DUP3 MSTORE POP POP JUMP JUMPDEST PUSH1 0x0 PUSH2 0xEA3 DUP3 PUSH2 0x11D4 JUMP JUMPDEST PUSH2 0xEAD DUP2 DUP6 PUSH2 0x11F7 JUMP JUMPDEST SWAP4 POP DUP4 PUSH1 0x20 DUP3 MUL DUP6 ADD PUSH2 0xEBF DUP6 PUSH2 0x11C4 JUMP JUMPDEST DUP1 PUSH1 0x0 JUMPDEST DUP6 DUP2 LT ISZERO PUSH2 0xEFB JUMPI DUP5 DUP5 SUB DUP10 MSTORE DUP2 MLOAD PUSH2 0xEDC DUP6 DUP3 PUSH2 0xE75 JUMP JUMPDEST SWAP5 POP PUSH2 0xEE7 DUP4 PUSH2 0x11EA JUMP JUMPDEST SWAP3 POP PUSH1 0x20 DUP11 ADD SWAP10 POP POP PUSH1 0x1 DUP2 ADD SWAP1 POP PUSH2 0xEC3 JUMP JUMPDEST POP DUP3 SWAP8 POP DUP8 SWAP6 POP POP POP POP POP POP SWAP3 SWAP2 POP POP JUMP JUMPDEST PUSH2 0xF16 DUP2 PUSH2 0x1292 JUMP JUMPDEST DUP3 MSTORE POP POP JUMP JUMPDEST PUSH1 0x0 PUSH2 0xF27 DUP3 PUSH2 0x11DF JUMP JUMPDEST PUSH2 0xF31 DUP2 DUP6 PUSH2 0x1208 JUMP JUMPDEST SWAP4 POP PUSH2 0xF41 DUP2 DUP6 PUSH1 0x20 DUP7 ADD PUSH2 0x12D7 JUMP JUMPDEST PUSH2 0xF4A DUP2 PUSH2 0x1412 JUMP JUMPDEST DUP5 ADD SWAP2 POP POP SWAP3 SWAP2 POP POP JUMP JUMPDEST PUSH1 0x0 PUSH2 0xF60 DUP3 PUSH2 0x11DF JUMP JUMPDEST PUSH2 0xF6A DUP2 DUP6 PUSH2 0x1219 JUMP JUMPDEST SWAP4 POP PUSH2 0xF7A DUP2 DUP6 PUSH1 0x20 DUP7 ADD PUSH2 0x12D7 JUMP JUMPDEST PUSH2 0xF83 DUP2 PUSH2 0x1412 JUMP JUMPDEST DUP5 ADD SWAP2 POP POP SWAP3 SWAP2 POP POP JUMP JUMPDEST PUSH1 0x0 PUSH1 0x40 DUP4 ADD PUSH1 0x0 DUP4 ADD MLOAD DUP5 DUP3 SUB PUSH1 0x0 DUP7 ADD MSTORE PUSH2 0xFAB DUP3 DUP3 PUSH2 0xF1C JUMP JUMPDEST SWAP2 POP POP PUSH1 0x20 DUP4 ADD MLOAD PUSH2 0xFC0 PUSH1 0x20 DUP7 ADD DUP3 PUSH2 0x1008 JUMP JUMPDEST POP DUP1 SWAP2 POP POP SWAP3 SWAP2 POP POP JUMP JUMPDEST PUSH1 0x0 PUSH1 0x40 DUP4 ADD PUSH1 0x0 DUP4 ADD MLOAD DUP5 DUP3 SUB PUSH1 0x0 DUP7 ADD MSTORE PUSH2 0xFE8 DUP3 DUP3 PUSH2 0xF1C JUMP JUMPDEST SWAP2 POP POP PUSH1 0x20 DUP4 ADD MLOAD PUSH2 0xFFD PUSH1 0x20 DUP7 ADD DUP3 PUSH2 0x1008 JUMP JUMPDEST POP DUP1 SWAP2 POP POP SWAP3 SWAP2 POP POP JUMP JUMPDEST PUSH2 0x1011 DUP2 PUSH2 0x12BE JUMP JUMPDEST DUP3 MSTORE POP POP JUMP JUMPDEST PUSH2 0x1020 DUP2 PUSH2 0x12BE JUMP JUMPDEST DUP3 MSTORE POP POP JUMP JUMPDEST PUSH1 0x0 PUSH1 0x20 DUP3 ADD SWAP1 POP PUSH2 0x103B PUSH1 0x0 DUP4 ADD DUP5 PUSH2 0xE89 JUMP JUMPDEST SWAP3 SWAP2 POP POP JUMP JUMPDEST PUSH1 0x0 PUSH1 0x20 DUP3 ADD SWAP1 POP DUP2 DUP2 SUB PUSH1 0x0 DUP4 ADD MSTORE PUSH2 0x105B DUP2 DUP5 PUSH2 0xE98 JUMP JUMPDEST SWAP1 POP SWAP3 SWAP2 POP POP JUMP JUMPDEST PUSH1 0x0 PUSH1 0x20 DUP3 ADD SWAP1 POP DUP2 DUP2 SUB PUSH1 0x0 DUP4 ADD MSTORE PUSH2 0x107D DUP2 DUP5 PUSH2 0xF55 JUMP JUMPDEST SWAP1 POP SWAP3 SWAP2 POP POP JUMP JUMPDEST PUSH1 0x0 PUSH1 0x40 DUP3 ADD SWAP1 POP DUP2 DUP2 SUB PUSH1 0x0 DUP4 ADD MSTORE PUSH2 0x109F DUP2 DUP6 PUSH2 0xF55 JUMP JUMPDEST SWAP1 POP PUSH2 0x10AE PUSH1 0x20 DUP4 ADD DUP5 PUSH2 0x1017 JUMP JUMPDEST SWAP4 SWAP3 POP POP POP JUMP JUMPDEST PUSH1 0x0 PUSH1 0x20 DUP3 ADD SWAP1 POP DUP2 DUP2 SUB PUSH1 0x0 DUP4 ADD MSTORE PUSH2 0x10CF DUP2 DUP5 PUSH2 0xFCB JUMP JUMPDEST SWAP1 POP SWAP3 SWAP2 POP POP JUMP JUMPDEST PUSH1 0x0 PUSH1 0x20 DUP3 ADD SWAP1 POP PUSH2 0x10EC PUSH1 0x0 DUP4 ADD DUP5 PUSH2 0x1017 JUMP JUMPDEST SWAP3 SWAP2 POP POP JUMP JUMPDEST PUSH1 0x0 PUSH1 0x80 DUP3 ADD SWAP1 POP PUSH2 0x1107 PUSH1 0x0 DUP4 ADD DUP8 PUSH2 0x1017 JUMP JUMPDEST PUSH2 0x1114 PUSH1 0x20 DUP4 ADD DUP7 PUSH2 0xF0D JUMP JUMPDEST PUSH2 0x1121 PUSH1 0x40 DUP4 ADD DUP6 PUSH2 0xE89 JUMP JUMPDEST PUSH2 0x112E PUSH1 0x60 DUP4 ADD DUP5 PUSH2 0x1017 JUMP JUMPDEST SWAP6 SWAP5 POP POP POP POP POP JUMP JUMPDEST PUSH1 0x0 PUSH1 0x40 MLOAD SWAP1 POP DUP2 DUP2 ADD DUP2 DUP2 LT PUSH8 0xFFFFFFFFFFFFFFFF DUP3 GT OR ISZERO PUSH2 0x115E JUMPI PUSH2 0x115D PUSH2 0x13E3 JUMP JUMPDEST JUMPDEST DUP1 PUSH1 0x40 MSTORE POP SWAP2 SWAP1 POP JUMP JUMPDEST PUSH1 0x0 PUSH8 0xFFFFFFFFFFFFFFFF DUP3 GT ISZERO PUSH2 0x1183 JUMPI PUSH2 0x1182 PUSH2 0x13E3 JUMP JUMPDEST JUMPDEST PUSH1 0x20 DUP3 MUL SWAP1 POP PUSH1 0x20 DUP2 ADD SWAP1 POP SWAP2 SWAP1 POP JUMP JUMPDEST PUSH1 0x0 PUSH8 0xFFFFFFFFFFFFFFFF DUP3 GT ISZERO PUSH2 0x11AF JUMPI PUSH2 0x11AE PUSH2 0x13E3 JUMP JUMPDEST JUMPDEST PUSH1 0x1F NOT PUSH1 0x1F DUP4 ADD AND SWAP1 POP PUSH1 0x20 DUP2 ADD SWAP1 POP SWAP2 SWAP1 POP JUMP JUMPDEST PUSH1 0x0 DUP2 SWAP1 POP PUSH1 0x20 DUP3 ADD SWAP1 POP SWAP2 SWAP1 POP JUMP JUMPDEST PUSH1 0x0 DUP2 MLOAD SWAP1 POP SWAP2 SWAP1 POP JUMP JUMPDEST PUSH1 0x0 DUP2 MLOAD SWAP1 POP SWAP2 SWAP1 POP JUMP JUMPDEST PUSH1 0x0 PUSH1 0x20 DUP3 ADD SWAP1 POP SWAP2 SWAP1 POP JUMP JUMPDEST PUSH1 0x0 DUP3 DUP3 MSTORE PUSH1 0x20 DUP3 ADD SWAP1 POP SWAP3 SWAP2 POP POP JUMP JUMPDEST PUSH1 0x0 DUP3 DUP3 MSTORE PUSH1 0x20 DUP3 ADD SWAP1 POP SWAP3 SWAP2 POP POP JUMP JUMPDEST PUSH1 0x0 DUP3 DUP3 MSTORE PUSH1 0x20 DUP3 ADD SWAP1 POP SWAP3 SWAP2 POP POP JUMP JUMPDEST PUSH1 0x0 PUSH2 0x1235 DUP3 PUSH2 0x12BE JUMP JUMPDEST SWAP2 POP PUSH2 0x1240 DUP4 PUSH2 0x12BE JUMP JUMPDEST SWAP3 POP DUP3 PUSH32 0xFFFFFFFFFFFFFFFFFFFFFFFFFFFFFFFFFFFFFFFFFFFFFFFFFFFFFFFFFFFFFFFF SUB DUP3 GT ISZERO PUSH2 0x1275 JUMPI PUSH2 0x1274 PUSH2 0x1385 JUMP JUMPDEST JUMPDEST DUP3 DUP3 ADD SWAP1 POP SWAP3 SWAP2 POP POP JUMP JUMPDEST PUSH1 0x0 PUSH2 0x128B DUP3 PUSH2 0x129E JUMP JUMPDEST SWAP1 POP SWAP2 SWAP1 POP JUMP JUMPDEST PUSH1 0x0 DUP2 ISZERO ISZERO SWAP1 POP SWAP2 SWAP1 POP JUMP JUMPDEST PUSH1 0x0 PUSH20 0xFFFFFFFFFFFFFFFFFFFFFFFFFFFFFFFFFFFFFFFF DUP3 AND SWAP1 POP SWAP2 SWAP1 POP JUMP JUMPDEST PUSH1 0x0 DUP2 SWAP1 POP SWAP2 SWAP1 POP JUMP JUMPDEST DUP3 DUP2 DUP4 CALLDATACOPY PUSH1 0x0 DUP4 DUP4 ADD MSTORE POP POP POP JUMP JUMPDEST PUSH1 0x0 JUMPDEST DUP4 DUP2 LT ISZERO PUSH2 0x12F5 JUMPI DUP1 DUP3 ADD MLOAD DUP2 DUP5 ADD MSTORE PUSH1 0x20 DUP2 ADD SWAP1 POP PUSH2 0x12DA JUMP JUMPDEST DUP4 DUP2 GT ISZERO PUSH2 0x1304 JUMPI PUSH1 0x0 DUP5 DUP5 ADD MSTORE JUMPDEST POP POP POP POP JUMP JUMPDEST PUSH1 0x0 PUSH1 0x2 DUP3 DIV SWAP1 POP PUSH1 0x1 DUP3 AND DUP1 PUSH2 0x1322 JUMPI PUSH1 0x7F DUP3 AND SWAP2 POP JUMPDEST PUSH1 0x20 DUP3 LT DUP2 EQ ISZERO PUSH2 0x1336 JUMPI PUSH2 0x1335 PUSH2 0x13B4 JUMP JUMPDEST JUMPDEST POP SWAP2 SWAP1 POP JUMP JUMPDEST PUSH1 0x0 PUSH2 0x1347 DUP3 PUSH2 0x12BE JUMP JUMPDEST SWAP2 POP PUSH32 0xFFFFFFFFFFFFFFFFFFFFFFFFFFFFFFFFFFFFFFFFFFFFFFFFFFFFFFFFFFFFFFFF DUP3 EQ ISZERO PUSH2 0x137A JUMPI PUSH2 0x1379 PUSH2 0x1385 JUMP JUMPDEST JUMPDEST PUSH1 0x1 DUP3 ADD SWAP1 POP SWAP2 SWAP1 POP JUMP JUMPDEST PUSH32 0x4E487B7100000000000000000000000000000000000000000000000000000000 PUSH1 0x0 MSTORE PUSH1 0x11 PUSH1 0x4 MSTORE PUSH1 0x24 PUSH1 0x0 REVERT JUMPDEST PUSH32 0x4E487B7100000000000000000000000000000000000000000000000000000000 PUSH1 0x0 MSTORE PUSH1 0x22 PUSH1 0x4 MSTORE PUSH1 0x24 PUSH1 0x0 REVERT JUMPDEST PUSH32 0x4E487B7100000000000000000000000000000000000000000000000000000000 PUSH1 0x0 MSTORE PUSH1 0x41 PUSH1 0x4 MSTORE PUSH1 0x24 PUSH1 0x0 REVERT JUMPDEST PUSH1 0x0 PUSH1 0x1F NOT PUSH1 0x1F DUP4 ADD AND SWAP1 POP SWAP2 SWAP1 POP JUMP JUMPDEST PUSH2 0x142C DUP2 PUSH2 0x1280 JUMP JUMPDEST DUP2 EQ PUSH2 0x1437 JUMPI PUSH1 0x0 DUP1 REVERT JUMPDEST POP JUMP JUMPDEST PUSH2 0x1443 DUP2 PUSH2 0x12BE JUMP JUMPDEST DUP2 EQ PUSH2 0x144E JUMPI PUSH1 0x0 DUP1 REVERT JUMPDEST POP JUMP INVALID LOG2 PUSH5 0x6970667358 0x22 SLT KECCAK256 0x4B PUSH9 0x39F47F9B042E53C48D RETURNDATACOPY 0xEF 0xA9 0xB0 BLOCKHASH PUSH5 0x5BAFB3B537 DUP10 MSTORE JUMPDEST 0xC5 0xD7 0xB5 0x28 0x2B 0xC1 SMOD PUSH5 0x736F6C6343 STOP ADDMOD STOP STOP CALLER LOG2 PUSH5 0x6970667358 0x22 SLT KECCAK256 0x24 0xB0 REVERT MULMOD 0x1F SMOD ADDMOD PUSH9 0xD8F0FED7D97E94A330 CALLDATALOAD EXP 0x4D CALLVALUE 0xB6 SELFDESTRUCT 0xA5 SWAP5 0xA6 0x25 CODESIZE 0xEC PUSH18 0x172164736F6C634300080000330000000000 "
				},
				"gasEstimates": {
					"creation": {
						"codeDepositCost": "2184600",
						"executionCost": "2331",
						"totalCost": "2186931"
					},
					"external": {
						"ballotArray(uint256)": "2466",
						"createBallot(string[])": "infinite",
						"createBallotContract()": "infinite",
						"getCreatorBallot()": "1245",
						"getEndDate()": "1203",
						"getProposalStructure(uint256)": "infinite",
						"getProposals()": "infinite",
						"getStartDate()": "1248",
						"getStatus()": "1227",
						"getnumOfProposals()": "1205",
						"giveRightToVote(address)": "23341",
						"proposals(uint256)": "infinite",
						"setEndDate()": "20246",
						"setStartDate()": "20202",
						"setStatus(uint256)": "20509",
						"vote(uint256)": "infinite",
						"voters(address)": "infinite",
						"winnerName()": "infinite",
						"winningProposal()": "infinite"
					}
				},
				"methodIdentifiers": {
					"ballotArray(uint256)": "643cb096",
					"createBallot(string[])": "836bc692",
					"createBallotContract()": "962fafd0",
					"getCreatorBallot()": "7a16fcb0",
					"getEndDate()": "b1356488",
					"getProposalStructure(uint256)": "e9d6c6da",
					"getProposals()": "62564c48",
					"getStartDate()": "78f305c6",
					"getStatus()": "4e69d560",
					"getnumOfProposals()": "0a82dcb1",
					"giveRightToVote(address)": "9e7b8d61",
					"proposals(uint256)": "013cf08b",
					"setEndDate()": "86278e77",
					"setStartDate()": "7c69710f",
					"setStatus(uint256)": "69ba1a75",
					"vote(uint256)": "0121b93f",
					"voters(address)": "a3ec138d",
					"winnerName()": "e2ba53f0",
					"winningProposal()": "609ff1bd"
				}
			},
			"storageLayout": {
				"storage": [
					{
						"astId": 3,
						"contract": "contracts/visov_durku.sol:BallotFactory",
						"label": "chairperson",
						"offset": 0,
						"slot": "0",
						"type": "t_address"
					},
					{
						"astId": 5,
						"contract": "contracts/visov_durku.sol:BallotFactory",
						"label": "status",
						"offset": 0,
						"slot": "1",
						"type": "t_uint256"
					},
					{
						"astId": 7,
						"contract": "contracts/visov_durku.sol:BallotFactory",
						"label": "startDate",
						"offset": 0,
						"slot": "2",
						"type": "t_uint256"
					},
					{
						"astId": 9,
						"contract": "contracts/visov_durku.sol:BallotFactory",
						"label": "endDate",
						"offset": 0,
						"slot": "3",
						"type": "t_uint256"
					},
					{
						"astId": 11,
						"contract": "contracts/visov_durku.sol:BallotFactory",
						"label": "numOfProposals",
						"offset": 0,
						"slot": "4",
						"type": "t_uint256"
					},
					{
						"astId": 30,
						"contract": "contracts/visov_durku.sol:BallotFactory",
						"label": "voters",
						"offset": 0,
						"slot": "5",
						"type": "t_mapping(t_address,t_struct(Voter)20_storage)"
					},
					{
						"astId": 34,
						"contract": "contracts/visov_durku.sol:BallotFactory",
						"label": "proposals",
						"offset": 0,
						"slot": "6",
						"type": "t_array(t_struct(Proposal)25_storage)dyn_storage"
					},
					{
						"astId": 317,
						"contract": "contracts/visov_durku.sol:BallotFactory",
						"label": "ballotArray",
						"offset": 0,
						"slot": "7",
						"type": "t_array(t_contract(Ballot)308)dyn_storage"
					}
				],
				"types": {
					"t_address": {
						"encoding": "inplace",
						"label": "address",
						"numberOfBytes": "20"
					},
					"t_array(t_contract(Ballot)308)dyn_storage": {
						"base": "t_contract(Ballot)308",
						"encoding": "dynamic_array",
						"label": "contract Ballot[]",
						"numberOfBytes": "32"
					},
					"t_array(t_struct(Proposal)25_storage)dyn_storage": {
						"base": "t_struct(Proposal)25_storage",
						"encoding": "dynamic_array",
						"label": "struct Ballot.Proposal[]",
						"numberOfBytes": "32"
					},
					"t_bool": {
						"encoding": "inplace",
						"label": "bool",
						"numberOfBytes": "1"
					},
					"t_contract(Ballot)308": {
						"encoding": "inplace",
						"label": "contract Ballot",
						"numberOfBytes": "20"
					},
					"t_mapping(t_address,t_struct(Voter)20_storage)": {
						"encoding": "mapping",
						"key": "t_address",
						"label": "mapping(address => struct Ballot.Voter)",
						"numberOfBytes": "32",
						"value": "t_struct(Voter)20_storage"
					},
					"t_string_storage": {
						"encoding": "bytes",
						"label": "string",
						"numberOfBytes": "32"
					},
					"t_struct(Proposal)25_storage": {
						"encoding": "inplace",
						"label": "struct Ballot.Proposal",
						"members": [
							{
								"astId": 22,
								"contract": "contracts/visov_durku.sol:BallotFactory",
								"label": "name",
								"offset": 0,
								"slot": "0",
								"type": "t_string_storage"
							},
							{
								"astId": 24,
								"contract": "contracts/visov_durku.sol:BallotFactory",
								"label": "voteCount",
								"offset": 0,
								"slot": "1",
								"type": "t_uint256"
							}
						],
						"numberOfBytes": "64"
					},
					"t_struct(Voter)20_storage": {
						"encoding": "inplace",
						"label": "struct Ballot.Voter",
						"members": [
							{
								"astId": 13,
								"contract": "contracts/visov_durku.sol:BallotFactory",
								"label": "weight",
								"offset": 0,
								"slot": "0",
								"type": "t_uint256"
							},
							{
								"astId": 15,
								"contract": "contracts/visov_durku.sol:BallotFactory",
								"label": "voted",
								"offset": 0,
								"slot": "1",
								"type": "t_bool"
							},
							{
								"astId": 17,
								"contract": "contracts/visov_durku.sol:BallotFactory",
								"label": "delegate",
								"offset": 1,
								"slot": "1",
								"type": "t_address"
							},
							{
								"astId": 19,
								"contract": "contracts/visov_durku.sol:BallotFactory",
								"label": "vote",
								"offset": 0,
								"slot": "2",
								"type": "t_uint256"
							}
						],
						"numberOfBytes": "96"
					},
					"t_uint256": {
						"encoding": "inplace",
						"label": "uint256",
						"numberOfBytes": "32"
					}
				}
			},
			"userdoc": {
				"kind": "user",
				"methods": {},
				"version": 1
			}
		}
	}
}