{
	"contracts/visov_durku.sol": {
		"BallotFactory": {
			"abi": [
				{
					"inputs": [
						{
							"internalType": "uint256",
							"name": "",
							"type": "uint256"
						}
					],
					"name": "ballotArray",
					"outputs": [
						{
							"internalType": "contract Ballot",
							"name": "",
							"type": "address"
						}
					],
					"stateMutability": "view",
					"type": "function"
				},
				{
					"inputs": [
						{
							"internalType": "uint256",
							"name": "_ballotIndex",
							"type": "uint256"
						},
						{
							"internalType": "string[]",
							"name": "proposalNames",
							"type": "string[]"
						}
					],
					"name": "bfCreateBallot",
					"outputs": [],
					"stateMutability": "nonpayable",
					"type": "function"
				},
				{
					"inputs": [
						{
							"internalType": "uint256",
							"name": "_ballotIndex",
							"type": "uint256"
						}
					],
					"name": "bfGetCreatorBallot",
					"outputs": [
						{
							"internalType": "address",
							"name": "",
							"type": "address"
						}
					],
					"stateMutability": "view",
					"type": "function"
				},
				{
					"inputs": [
						{
							"internalType": "uint256",
							"name": "_ballotIndex",
							"type": "uint256"
						},
						{
							"internalType": "address",
							"name": "_voter",
							"type": "address"
						}
					],
					"name": "bfGiveRightToVote",
					"outputs": [],
					"stateMutability": "nonpayable",
					"type": "function"
				},
				{
					"inputs": [
						{
							"internalType": "uint256",
							"name": "_ballotIndex",
							"type": "uint256"
						},
						{
							"internalType": "uint256",
							"name": "_proposal",
							"type": "uint256"
						}
					],
					"name": "bfVote",
					"outputs": [],
					"stateMutability": "nonpayable",
					"type": "function"
				},
				{
					"inputs": [
						{
							"internalType": "uint256",
							"name": "_ballotIndex",
							"type": "uint256"
						}
					],
					"name": "bfWinningProposal",
					"outputs": [
						{
							"internalType": "uint256",
							"name": "winningProposal",
							"type": "uint256"
						}
					],
					"stateMutability": "view",
					"type": "function"
				},
				{
					"inputs": [
						{
							"internalType": "string[]",
							"name": "proposalNames",
							"type": "string[]"
						}
					],
					"name": "createBallot",
					"outputs": [],
					"stateMutability": "nonpayable",
					"type": "function"
				},
				{
					"inputs": [],
					"name": "createBallotContract",
					"outputs": [],
					"stateMutability": "nonpayable",
					"type": "function"
				},
				{
					"inputs": [],
					"name": "getCreatorBallot",
					"outputs": [
						{
							"internalType": "address",
							"name": "",
							"type": "address"
						}
					],
					"stateMutability": "view",
					"type": "function"
				},
				{
					"inputs": [],
					"name": "getEndDate",
					"outputs": [
						{
							"internalType": "uint256",
							"name": "",
							"type": "uint256"
						}
					],
					"stateMutability": "view",
					"type": "function"
				},
				{
					"inputs": [
						{
							"internalType": "uint256",
							"name": "_proposalId",
							"type": "uint256"
						}
					],
					"name": "getProposalStructure",
					"outputs": [
						{
							"components": [
								{
									"internalType": "string",
									"name": "name",
									"type": "string"
								},
								{
									"internalType": "uint256",
									"name": "voteCount",
									"type": "uint256"
								}
							],
							"internalType": "struct Ballot.Proposal",
							"name": "",
							"type": "tuple"
						}
					],
					"stateMutability": "view",
					"type": "function"
				},
				{
					"inputs": [],
					"name": "getProposals",
					"outputs": [
						{
							"components": [
								{
									"internalType": "string",
									"name": "name",
									"type": "string"
								},
								{
									"internalType": "uint256",
									"name": "voteCount",
									"type": "uint256"
								}
							],
							"internalType": "struct Ballot.Proposal[]",
							"name": "",
							"type": "tuple[]"
						}
					],
					"stateMutability": "view",
					"type": "function"
				},
				{
					"inputs": [],
					"name": "getStartDate",
					"outputs": [
						{
							"internalType": "uint256",
							"name": "",
							"type": "uint256"
						}
					],
					"stateMutability": "view",
					"type": "function"
				},
				{
					"inputs": [],
					"name": "getStatus",
					"outputs": [
						{
							"internalType": "uint256",
							"name": "",
							"type": "uint256"
						}
					],
					"stateMutability": "view",
					"type": "function"
				},
				{
					"inputs": [],
					"name": "getnumOfProposals",
					"outputs": [
						{
							"internalType": "uint256",
							"name": "",
							"type": "uint256"
						}
					],
					"stateMutability": "view",
					"type": "function"
				},
				{
					"inputs": [
						{
							"internalType": "address",
							"name": "voter",
							"type": "address"
						}
					],
					"name": "giveRightToVote",
					"outputs": [],
					"stateMutability": "nonpayable",
					"type": "function"
				},
				{
					"inputs": [
						{
							"internalType": "uint256",
							"name": "",
							"type": "uint256"
						}
					],
					"name": "proposals",
					"outputs": [
						{
							"internalType": "string",
							"name": "name",
							"type": "string"
						},
						{
							"internalType": "uint256",
							"name": "voteCount",
							"type": "uint256"
						}
					],
					"stateMutability": "view",
					"type": "function"
				},
				{
					"inputs": [],
					"name": "setEndDate",
					"outputs": [],
					"stateMutability": "nonpayable",
					"type": "function"
				},
				{
					"inputs": [
						{
							"internalType": "uint256",
							"name": "_status",
							"type": "uint256"
						}
					],
					"name": "setStatus",
					"outputs": [],
					"stateMutability": "nonpayable",
					"type": "function"
				},
				{
					"inputs": [
						{
							"internalType": "uint256",
							"name": "proposal",
							"type": "uint256"
						}
					],
					"name": "vote",
					"outputs": [],
					"stateMutability": "nonpayable",
					"type": "function"
				},
				{
					"inputs": [
						{
							"internalType": "address",
							"name": "",
							"type": "address"
						}
					],
					"name": "voters",
					"outputs": [
						{
							"internalType": "uint256",
							"name": "weight",
							"type": "uint256"
						},
						{
							"internalType": "bool",
							"name": "voted",
							"type": "bool"
						},
						{
							"internalType": "address",
							"name": "delegate",
							"type": "address"
						},
						{
							"internalType": "uint256",
							"name": "vote",
							"type": "uint256"
						}
					],
					"stateMutability": "view",
					"type": "function"
				},
				{
					"inputs": [],
					"name": "winnerName",
					"outputs": [
						{
							"internalType": "string",
							"name": "winnerName",
							"type": "string"
						}
					],
					"stateMutability": "view",
					"type": "function"
				},
				{
					"inputs": [],
					"name": "winningProposal",
					"outputs": [
						{
							"internalType": "uint256",
							"name": "winningProposal",
							"type": "uint256"
						}
					],
					"stateMutability": "view",
					"type": "function"
				}
			],
			"devdoc": {
				"kind": "dev",
				"methods": {},
				"version": 1
			},
			"evm": {
				"assembly": "    /* \"contracts/visov_durku.sol\":89:1754  contract BallotFactory is Ballot {\r... */\n  mstore(0x40, 0x80)\n  callvalue\n  dup1\n  iszero\n  tag_1\n  jumpi\n  0x00\n  dup1\n  revert\ntag_1:\n  pop\n  dataSize(sub_0)\n  dup1\n  dataOffset(sub_0)\n  0x00\n  codecopy\n  0x00\n  return\nstop\n\nsub_0: assembly {\n        /* \"contracts/visov_durku.sol\":89:1754  contract BallotFactory is Ballot {\r... */\n      mstore(0x40, 0x80)\n      callvalue\n      dup1\n      iszero\n      tag_1\n      jumpi\n      0x00\n      dup1\n      revert\n    tag_1:\n      pop\n      jumpi(tag_2, lt(calldatasize, 0x04))\n      shr(0xe0, calldataload(0x00))\n      dup1\n      0x78f305c6\n      gt\n      tag_26\n      jumpi\n      dup1\n      0xa3ec138d\n      gt\n      tag_27\n      jumpi\n      dup1\n      0xa3ec138d\n      eq\n      tag_20\n      jumpi\n      dup1\n      0xb1356488\n      eq\n      tag_21\n      jumpi\n      dup1\n      0xc285c0d3\n      eq\n      tag_22\n      jumpi\n      dup1\n      0xd7558d4b\n      eq\n      tag_23\n      jumpi\n      dup1\n      0xe2ba53f0\n      eq\n      tag_24\n      jumpi\n      dup1\n      0xe9d6c6da\n      eq\n      tag_25\n      jumpi\n      jump(tag_2)\n    tag_27:\n      dup1\n      0x78f305c6\n      eq\n      tag_14\n      jumpi\n      dup1\n      0x7a16fcb0\n      eq\n      tag_15\n      jumpi\n      dup1\n      0x836bc692\n      eq\n      tag_16\n      jumpi\n      dup1\n      0x86278e77\n      eq\n      tag_17\n      jumpi\n      dup1\n      0x962fafd0\n      eq\n      tag_18\n      jumpi\n      dup1\n      0x9e7b8d61\n      eq\n      tag_19\n      jumpi\n      jump(tag_2)\n    tag_26:\n      dup1\n      0x609ff1bd\n      gt\n      tag_28\n      jumpi\n      dup1\n      0x609ff1bd\n      eq\n      tag_8\n      jumpi\n      dup1\n      0x62564c48\n      eq\n      tag_9\n      jumpi\n      dup1\n      0x627c2367\n      eq\n      tag_10\n      jumpi\n      dup1\n      0x643cb096\n      eq\n      tag_11\n      jumpi\n      dup1\n      0x69ba1a75\n      eq\n      tag_12\n      jumpi\n      dup1\n      0x735d8b87\n      eq\n      tag_13\n      jumpi\n      jump(tag_2)\n    tag_28:\n      dup1\n      0x0121b93f\n      eq\n      tag_3\n      jumpi\n      dup1\n      0x013cf08b\n      eq\n      tag_4\n      jumpi\n      dup1\n      0x0a82dcb1\n      eq\n      tag_5\n      jumpi\n      dup1\n      0x2a8cdc4c\n      eq\n      tag_6\n      jumpi\n      dup1\n      0x4e69d560\n      eq\n      tag_7\n      jumpi\n    tag_2:\n      0x00\n      dup1\n      revert\n        /* \"contracts/prop_test.sol\":2270:2659  function vote(uint proposal) public {\r... */\n    tag_3:\n      tag_29\n      0x04\n      dup1\n      calldatasize\n      sub\n      dup2\n      add\n      swap1\n      tag_30\n      swap2\n      swap1\n      tag_31\n      jump\t// in\n    tag_30:\n      tag_32\n      jump\t// in\n    tag_29:\n      stop\n        /* \"contracts/prop_test.sol\":871:898  Proposal[] public proposals */\n    tag_4:\n      tag_33\n      0x04\n      dup1\n      calldatasize\n      sub\n      dup2\n      add\n      swap1\n      tag_34\n      swap2\n      swap1\n      tag_31\n      jump\t// in\n    tag_34:\n      tag_35\n      jump\t// in\n    tag_33:\n      mload(0x40)\n      tag_36\n      swap3\n      swap2\n      swap1\n      tag_37\n      jump\t// in\n    tag_36:\n      mload(0x40)\n      dup1\n      swap2\n      sub\n      swap1\n      return\n        /* \"contracts/prop_test.sol\":3869:3963  function getnumOfProposals() public view returns(uint){\r... */\n    tag_5:\n      tag_38\n      tag_39\n      jump\t// in\n    tag_38:\n      mload(0x40)\n      tag_40\n      swap2\n      swap1\n      tag_41\n      jump\t// in\n    tag_40:\n      mload(0x40)\n      dup1\n      swap2\n      sub\n      swap1\n      return\n        /* \"contracts/visov_durku.sol\":996:1163  function bfGetCreatorBallot(uint256 _ballotIndex) public view returns (address) {\r... */\n    tag_6:\n      tag_42\n      0x04\n      dup1\n      calldatasize\n      sub\n      dup2\n      add\n      swap1\n      tag_43\n      swap2\n      swap1\n      tag_31\n      jump\t// in\n    tag_43:\n      tag_44\n      jump\t// in\n    tag_42:\n      mload(0x40)\n      tag_45\n      swap2\n      swap1\n      tag_46\n      jump\t// in\n    tag_45:\n      mload(0x40)\n      dup1\n      swap2\n      sub\n      swap1\n      return\n        /* \"contracts/prop_test.sol\":3749:3827  function getStatus() public view returns(uint){\r... */\n    tag_7:\n      tag_47\n      tag_48\n      jump\t// in\n    tag_47:\n      mload(0x40)\n      tag_49\n      swap2\n      swap1\n      tag_41\n      jump\t// in\n    tag_49:\n      mload(0x40)\n      dup1\n      swap2\n      sub\n      swap1\n      return\n        /* \"contracts/prop_test.sol\":2667:3021  function winningProposal() public view returns (uint winningProposal){\r... */\n    tag_8:\n      tag_50\n      tag_51\n      jump\t// in\n    tag_50:\n      mload(0x40)\n      tag_52\n      swap2\n      swap1\n      tag_41\n      jump\t// in\n    tag_52:\n      mload(0x40)\n      dup1\n      swap2\n      sub\n      swap1\n      return\n        /* \"contracts/prop_test.sol\":4172:4269  function getProposals() public view returns(Proposal[] memory){\r... */\n    tag_9:\n      tag_53\n      tag_54\n      jump\t// in\n    tag_53:\n      mload(0x40)\n      tag_55\n      swap2\n      swap1\n      tag_56\n      jump\t// in\n    tag_55:\n      mload(0x40)\n      dup1\n      swap2\n      sub\n      swap1\n      return\n        /* \"contracts/visov_durku.sol\":657:802  function bfVote(uint256 _ballotIndex, uint _proposal) public {\r... */\n    tag_10:\n      tag_57\n      0x04\n      dup1\n      calldatasize\n      sub\n      dup2\n      add\n      swap1\n      tag_58\n      swap2\n      swap1\n      tag_59\n      jump\t// in\n    tag_58:\n      tag_60\n      jump\t// in\n    tag_57:\n      stop\n        /* \"contracts/visov_durku.sol\":135:162  Ballot[] public ballotArray */\n    tag_11:\n      tag_61\n      0x04\n      dup1\n      calldatasize\n      sub\n      dup2\n      add\n      swap1\n      tag_62\n      swap2\n      swap1\n      tag_31\n      jump\t// in\n    tag_62:\n      tag_63\n      jump\t// in\n    tag_61:\n      mload(0x40)\n      tag_64\n      swap2\n      swap1\n      tag_65\n      jump\t// in\n    tag_64:\n      mload(0x40)\n      dup1\n      swap2\n      sub\n      swap1\n      return\n        /* \"contracts/prop_test.sol\":3632:3706  function setStatus(uint _status) public{\r... */\n    tag_12:\n      tag_66\n      0x04\n      dup1\n      calldatasize\n      sub\n      dup2\n      add\n      swap1\n      tag_67\n      swap2\n      swap1\n      tag_31\n      jump\t// in\n    tag_67:\n      tag_68\n      jump\t// in\n    tag_66:\n      stop\n        /* \"contracts/visov_durku.sol\":304:477  function bfCreateBallot(uint256 _ballotIndex, string[] memory proposalNames) public {\r... */\n    tag_13:\n      tag_69\n      0x04\n      dup1\n      calldatasize\n      sub\n      dup2\n      add\n      swap1\n      tag_70\n      swap2\n      swap1\n      tag_71\n      jump\t// in\n    tag_70:\n      tag_72\n      jump\t// in\n    tag_69:\n      stop\n        /* \"contracts/prop_test.sol\":4434:4518  function getStartDate() public view returns(uint){\r... */\n    tag_14:\n      tag_73\n      tag_74\n      jump\t// in\n    tag_73:\n      mload(0x40)\n      tag_75\n      swap2\n      swap1\n      tag_41\n      jump\t// in\n    tag_75:\n      mload(0x40)\n      dup1\n      swap2\n      sub\n      swap1\n      return\n        /* \"contracts/prop_test.sol\":3500:3589  function getCreatorBallot() public view returns(address){\r... */\n    tag_15:\n      tag_76\n      tag_77\n      jump\t// in\n    tag_76:\n      mload(0x40)\n      tag_78\n      swap2\n      swap1\n      tag_46\n      jump\t// in\n    tag_78:\n      mload(0x40)\n      dup1\n      swap2\n      sub\n      swap1\n      return\n        /* \"contracts/prop_test.sol\":907:1647  function createBallot(string[] memory proposalNames) public {\r... */\n    tag_16:\n      tag_79\n      0x04\n      dup1\n      calldatasize\n      sub\n      dup2\n      add\n      swap1\n      tag_80\n      swap2\n      swap1\n      tag_81\n      jump\t// in\n    tag_80:\n      tag_82\n      jump\t// in\n    tag_79:\n      stop\n        /* \"contracts/prop_test.sol\":4560:4632  function setEndDate() public{\r... */\n    tag_17:\n      tag_83\n      tag_84\n      jump\t// in\n    tag_83:\n      stop\n        /* \"contracts/visov_durku.sol\":171:296  function createBallotContract() public {\r... */\n    tag_18:\n      tag_85\n      tag_86\n      jump\t// in\n    tag_85:\n      stop\n        /* \"contracts/prop_test.sol\":1655:2233  function giveRightToVote(address voter) public {\r... */\n    tag_19:\n      tag_87\n      0x04\n      dup1\n      calldatasize\n      sub\n      dup2\n      add\n      swap1\n      tag_88\n      swap2\n      swap1\n      tag_89\n      jump\t// in\n    tag_88:\n      tag_90\n      jump\t// in\n    tag_87:\n      stop\n        /* \"contracts/prop_test.sol\":766:805  mapping(address => Voter) public voters */\n    tag_20:\n      tag_91\n      0x04\n      dup1\n      calldatasize\n      sub\n      dup2\n      add\n      swap1\n      tag_92\n      swap2\n      swap1\n      tag_89\n      jump\t// in\n    tag_92:\n      tag_93\n      jump\t// in\n    tag_91:\n      mload(0x40)\n      tag_94\n      swap5\n      swap4\n      swap3\n      swap2\n      swap1\n      tag_95\n      jump\t// in\n    tag_94:\n      mload(0x40)\n      dup1\n      swap2\n      sub\n      swap1\n      return\n        /* \"contracts/prop_test.sol\":4672:4752  function getEndDate() public view returns(uint){\r... */\n    tag_21:\n      tag_96\n      tag_97\n      jump\t// in\n    tag_96:\n      mload(0x40)\n      tag_98\n      swap2\n      swap1\n      tag_41\n      jump\t// in\n    tag_98:\n      mload(0x40)\n      dup1\n      swap2\n      sub\n      swap1\n      return\n        /* \"contracts/visov_durku.sol\":485:649  function bfGiveRightToVote(uint256 _ballotIndex, address _voter) public {\r... */\n    tag_22:\n      tag_99\n      0x04\n      dup1\n      calldatasize\n      sub\n      dup2\n      add\n      swap1\n      tag_100\n      swap2\n      swap1\n      tag_101\n      jump\t// in\n    tag_100:\n      tag_102\n      jump\t// in\n    tag_99:\n      stop\n        /* \"contracts/visov_durku.sol\":810:988  function bfWinningProposal(uint256 _ballotIndex) public view returns (uint winningProposal) {\r... */\n    tag_23:\n      tag_103\n      0x04\n      dup1\n      calldatasize\n      sub\n      dup2\n      add\n      swap1\n      tag_104\n      swap2\n      swap1\n      tag_31\n      jump\t// in\n    tag_104:\n      tag_105\n      jump\t// in\n    tag_103:\n      mload(0x40)\n      tag_106\n      swap2\n      swap1\n      tag_41\n      jump\t// in\n    tag_106:\n      mload(0x40)\n      dup1\n      swap2\n      sub\n      swap1\n      return\n        /* \"contracts/prop_test.sol\":3190:3328  function winnerName() public view returns(string memory winnerName)\r... */\n    tag_24:\n      tag_107\n      tag_108\n      jump\t// in\n    tag_107:\n      mload(0x40)\n      tag_109\n      swap2\n      swap1\n      tag_110\n      jump\t// in\n    tag_109:\n      mload(0x40)\n      dup1\n      swap2\n      sub\n      swap1\n      return\n        /* \"contracts/prop_test.sol\":4005:4137  function getProposalStructure(uint _proposalId) public view returns(Proposal memory){\r... */\n    tag_25:\n      tag_111\n      0x04\n      dup1\n      calldatasize\n      sub\n      dup2\n      add\n      swap1\n      tag_112\n      swap2\n      swap1\n      tag_31\n      jump\t// in\n    tag_112:\n      tag_113\n      jump\t// in\n    tag_111:\n      mload(0x40)\n      tag_114\n      swap2\n      swap1\n      tag_115\n      jump\t// in\n    tag_114:\n      mload(0x40)\n      dup1\n      swap2\n      sub\n      swap1\n      return\n        /* \"contracts/prop_test.sol\":2270:2659  function vote(uint proposal) public {\r... */\n    tag_32:\n        /* \"contracts/prop_test.sol\":2317:2337  Voter storage sender */\n      0x00\n        /* \"contracts/prop_test.sol\":2340:2346  voters */\n      0x05\n        /* \"contracts/prop_test.sol\":2340:2358  voters[msg.sender] */\n      0x00\n        /* \"contracts/prop_test.sol\":2347:2357  msg.sender */\n      caller\n        /* \"contracts/prop_test.sol\":2340:2358  voters[msg.sender] */\n      0xffffffffffffffffffffffffffffffffffffffff\n      and\n      0xffffffffffffffffffffffffffffffffffffffff\n      and\n      dup2\n      mstore\n      0x20\n      add\n      swap1\n      dup2\n      mstore\n      0x20\n      add\n      0x00\n      keccak256\n        /* \"contracts/prop_test.sol\":2317:2358  Voter storage sender = voters[msg.sender] */\n      swap1\n      pop\n        /* \"contracts/prop_test.sol\":2378:2384  sender */\n      dup1\n        /* \"contracts/prop_test.sol\":2378:2390  sender.voted */\n      0x01\n      add\n      0x00\n      swap1\n      sload\n      swap1\n      0x0100\n      exp\n      swap1\n      div\n      0xff\n      and\n        /* \"contracts/prop_test.sol\":2377:2390  !sender.voted */\n      iszero\n        /* \"contracts/prop_test.sol\":2369:2391  require(!sender.voted) */\n      tag_117\n      jumpi\n      0x00\n      dup1\n      revert\n    tag_117:\n        /* \"contracts/prop_test.sol\":2417:2421  true */\n      0x01\n        /* \"contracts/prop_test.sol\":2402:2408  sender */\n      dup2\n        /* \"contracts/prop_test.sol\":2402:2414  sender.voted */\n      0x01\n      add\n      0x00\n        /* \"contracts/prop_test.sol\":2402:2421  sender.voted = true */\n      0x0100\n      exp\n      dup2\n      sload\n      dup2\n      0xff\n      mul\n      not\n      and\n      swap1\n      dup4\n      iszero\n      iszero\n      mul\n      or\n      swap1\n      sstore\n      pop\n        /* \"contracts/prop_test.sol\":2446:2454  proposal */\n      dup2\n        /* \"contracts/prop_test.sol\":2432:2438  sender */\n      dup2\n        /* \"contracts/prop_test.sol\":2432:2443  sender.vote */\n      0x02\n      add\n        /* \"contracts/prop_test.sol\":2432:2454  sender.vote = proposal */\n      dup2\n      swap1\n      sstore\n      pop\n        /* \"contracts/prop_test.sol\":2638:2644  sender */\n      dup1\n        /* \"contracts/prop_test.sol\":2638:2651  sender.weight */\n      0x00\n      add\n      sload\n        /* \"contracts/prop_test.sol\":2605:2614  proposals */\n      0x06\n        /* \"contracts/prop_test.sol\":2615:2623  proposal */\n      dup4\n        /* \"contracts/prop_test.sol\":2605:2624  proposals[proposal] */\n      dup2\n      sload\n      dup2\n      lt\n      tag_118\n      jumpi\n      mstore(0x00, 0x4e487b7100000000000000000000000000000000000000000000000000000000)\n      mstore(0x04, 0x32)\n      revert(0x00, 0x24)\n    tag_118:\n      swap1\n      0x00\n      mstore\n      keccak256(0x00, 0x20)\n      swap1\n      0x02\n      mul\n      add\n        /* \"contracts/prop_test.sol\":2605:2634  proposals[proposal].voteCount */\n      0x01\n      add\n      0x00\n        /* \"contracts/prop_test.sol\":2605:2651  proposals[proposal].voteCount += sender.weight */\n      dup3\n      dup3\n      sload\n      tag_120\n      swap2\n      swap1\n      tag_121\n      jump\t// in\n    tag_120:\n      swap3\n      pop\n      pop\n      dup2\n      swap1\n      sstore\n      pop\n        /* \"contracts/prop_test.sol\":2270:2659  function vote(uint proposal) public {\r... */\n      pop\n      pop\n      jump\t// out\n        /* \"contracts/prop_test.sol\":871:898  Proposal[] public proposals */\n    tag_35:\n      0x06\n      dup2\n      dup2\n      sload\n      dup2\n      lt\n      tag_122\n      jumpi\n      0x00\n      dup1\n      revert\n    tag_122:\n      swap1\n      0x00\n      mstore\n      keccak256(0x00, 0x20)\n      swap1\n      0x02\n      mul\n      add\n      0x00\n      swap2\n      pop\n      swap1\n      pop\n      dup1\n      0x00\n      add\n      dup1\n      sload\n      tag_124\n      swap1\n      tag_125\n      jump\t// in\n    tag_124:\n      dup1\n      0x1f\n      add\n      0x20\n      dup1\n      swap2\n      div\n      mul\n      0x20\n      add\n      mload(0x40)\n      swap1\n      dup2\n      add\n      0x40\n      mstore\n      dup1\n      swap3\n      swap2\n      swap1\n      dup2\n      dup2\n      mstore\n      0x20\n      add\n      dup3\n      dup1\n      sload\n      tag_126\n      swap1\n      tag_125\n      jump\t// in\n    tag_126:\n      dup1\n      iszero\n      tag_127\n      jumpi\n      dup1\n      0x1f\n      lt\n      tag_128\n      jumpi\n      0x0100\n      dup1\n      dup4\n      sload\n      div\n      mul\n      dup4\n      mstore\n      swap2\n      0x20\n      add\n      swap2\n      jump(tag_127)\n    tag_128:\n      dup3\n      add\n      swap2\n      swap1\n      0x00\n      mstore\n      keccak256(0x00, 0x20)\n      swap1\n    tag_129:\n      dup2\n      sload\n      dup2\n      mstore\n      swap1\n      0x01\n      add\n      swap1\n      0x20\n      add\n      dup1\n      dup4\n      gt\n      tag_129\n      jumpi\n      dup3\n      swap1\n      sub\n      0x1f\n      and\n      dup3\n      add\n      swap2\n    tag_127:\n      pop\n      pop\n      pop\n      pop\n      pop\n      swap1\n      dup1\n      0x01\n      add\n      sload\n      swap1\n      pop\n      dup3\n      jump\t// out\n        /* \"contracts/prop_test.sol\":3869:3963  function getnumOfProposals() public view returns(uint){\r... */\n    tag_39:\n        /* \"contracts/prop_test.sol\":3918:3922  uint */\n      0x00\n        /* \"contracts/prop_test.sol\":3941:3955  numOfProposals */\n      sload(0x04)\n        /* \"contracts/prop_test.sol\":3934:3955  return numOfProposals */\n      swap1\n      pop\n        /* \"contracts/prop_test.sol\":3869:3963  function getnumOfProposals() public view returns(uint){\r... */\n      swap1\n      jump\t// out\n        /* \"contracts/visov_durku.sol\":996:1163  function bfGetCreatorBallot(uint256 _ballotIndex) public view returns (address) {\r... */\n    tag_44:\n        /* \"contracts/visov_durku.sol\":1067:1074  address */\n      0x00\n        /* \"contracts/visov_durku.sol\":1109:1120  ballotArray */\n      0x07\n        /* \"contracts/visov_durku.sol\":1121:1133  _ballotIndex */\n      dup3\n        /* \"contracts/visov_durku.sol\":1109:1134  ballotArray[_ballotIndex] */\n      dup2\n      sload\n      dup2\n      lt\n      tag_132\n      jumpi\n      mstore(0x00, 0x4e487b7100000000000000000000000000000000000000000000000000000000)\n      mstore(0x04, 0x32)\n      revert(0x00, 0x24)\n    tag_132:\n      swap1\n      0x00\n      mstore\n      keccak256(0x00, 0x20)\n      add\n      0x00\n      swap1\n      sload\n      swap1\n      0x0100\n      exp\n      swap1\n      div\n      0xffffffffffffffffffffffffffffffffffffffff\n      and\n        /* \"contracts/visov_durku.sol\":1094:1153  Ballot(address(ballotArray[_ballotIndex])).getCreatorBallot */\n      0xffffffffffffffffffffffffffffffffffffffff\n      and\n      0x7a16fcb0\n        /* \"contracts/visov_durku.sol\":1094:1155  Ballot(address(ballotArray[_ballotIndex])).getCreatorBallot() */\n      mload(0x40)\n      dup2\n      0xffffffff\n      and\n      0xe0\n      shl\n      dup2\n      mstore\n      0x04\n      add\n      0x20\n      mload(0x40)\n      dup1\n      dup4\n      sub\n      dup2\n      dup7\n      dup1\n      extcodesize\n      iszero\n      dup1\n      iszero\n      tag_134\n      jumpi\n      0x00\n      dup1\n      revert\n    tag_134:\n      pop\n      gas\n      staticcall\n      iszero\n      dup1\n      iszero\n      tag_136\n      jumpi\n      returndatasize\n      0x00\n      dup1\n      returndatacopy\n      revert(0x00, returndatasize)\n    tag_136:\n      pop\n      pop\n      pop\n      pop\n      mload(0x40)\n      returndatasize\n      not(0x1f)\n      0x1f\n      dup3\n      add\n      and\n      dup3\n      add\n      dup1\n      0x40\n      mstore\n      pop\n      dup2\n      add\n      swap1\n      tag_137\n      swap2\n      swap1\n      tag_138\n      jump\t// in\n    tag_137:\n        /* \"contracts/visov_durku.sol\":1087:1155  return Ballot(address(ballotArray[_ballotIndex])).getCreatorBallot() */\n      swap1\n      pop\n        /* \"contracts/visov_durku.sol\":996:1163  function bfGetCreatorBallot(uint256 _ballotIndex) public view returns (address) {\r... */\n      swap2\n      swap1\n      pop\n      jump\t// out\n        /* \"contracts/prop_test.sol\":3749:3827  function getStatus() public view returns(uint){\r... */\n    tag_48:\n        /* \"contracts/prop_test.sol\":3790:3794  uint */\n      0x00\n        /* \"contracts/prop_test.sol\":3813:3819  status */\n      sload(0x01)\n        /* \"contracts/prop_test.sol\":3806:3819  return status */\n      swap1\n      pop\n        /* \"contracts/prop_test.sol\":3749:3827  function getStatus() public view returns(uint){\r... */\n      swap1\n      jump\t// out\n        /* \"contracts/prop_test.sol\":2667:3021  function winningProposal() public view returns (uint winningProposal){\r... */\n    tag_51:\n        /* \"contracts/prop_test.sol\":2715:2735  uint winningProposal */\n      0x00\n        /* \"contracts/prop_test.sol\":2747:2768  uint winningVoteCount */\n      dup1\n        /* \"contracts/prop_test.sol\":2771:2772  0 */\n      0x00\n        /* \"contracts/prop_test.sol\":2747:2772  uint winningVoteCount = 0 */\n      swap1\n      pop\n        /* \"contracts/prop_test.sol\":2788:2794  uint p */\n      0x00\n        /* \"contracts/prop_test.sol\":2783:3014  for (uint p = 0; p < proposals.length; p++) {\r... */\n    tag_141:\n        /* \"contracts/prop_test.sol\":2804:2813  proposals */\n      0x06\n        /* \"contracts/prop_test.sol\":2804:2820  proposals.length */\n      dup1\n      sload\n      swap1\n      pop\n        /* \"contracts/prop_test.sol\":2800:2801  p */\n      dup2\n        /* \"contracts/prop_test.sol\":2800:2820  p < proposals.length */\n      lt\n        /* \"contracts/prop_test.sol\":2783:3014  for (uint p = 0; p < proposals.length; p++) {\r... */\n      iszero\n      tag_142\n      jumpi\n        /* \"contracts/prop_test.sol\":2871:2887  winningVoteCount */\n      dup2\n        /* \"contracts/prop_test.sol\":2846:2855  proposals */\n      0x06\n        /* \"contracts/prop_test.sol\":2856:2857  p */\n      dup3\n        /* \"contracts/prop_test.sol\":2846:2858  proposals[p] */\n      dup2\n      sload\n      dup2\n      lt\n      tag_144\n      jumpi\n      mstore(0x00, 0x4e487b7100000000000000000000000000000000000000000000000000000000)\n      mstore(0x04, 0x32)\n      revert(0x00, 0x24)\n    tag_144:\n      swap1\n      0x00\n      mstore\n      keccak256(0x00, 0x20)\n      swap1\n      0x02\n      mul\n      add\n        /* \"contracts/prop_test.sol\":2846:2868  proposals[p].voteCount */\n      0x01\n      add\n      sload\n        /* \"contracts/prop_test.sol\":2846:2887  proposals[p].voteCount > winningVoteCount */\n      gt\n        /* \"contracts/prop_test.sol\":2842:3003  if (proposals[p].voteCount > winningVoteCount) {\r... */\n      iszero\n      tag_146\n      jumpi\n        /* \"contracts/prop_test.sol\":2927:2936  proposals */\n      0x06\n        /* \"contracts/prop_test.sol\":2937:2938  p */\n      dup2\n        /* \"contracts/prop_test.sol\":2927:2939  proposals[p] */\n      dup2\n      sload\n      dup2\n      lt\n      tag_147\n      jumpi\n      mstore(0x00, 0x4e487b7100000000000000000000000000000000000000000000000000000000)\n      mstore(0x04, 0x32)\n      revert(0x00, 0x24)\n    tag_147:\n      swap1\n      0x00\n      mstore\n      keccak256(0x00, 0x20)\n      swap1\n      0x02\n      mul\n      add\n        /* \"contracts/prop_test.sol\":2927:2949  proposals[p].voteCount */\n      0x01\n      add\n      sload\n        /* \"contracts/prop_test.sol\":2908:2949  winningVoteCount = proposals[p].voteCount */\n      swap2\n      pop\n        /* \"contracts/prop_test.sol\":2986:2987  p */\n      dup1\n        /* \"contracts/prop_test.sol\":2968:2987  winningProposal = p */\n      swap3\n      pop\n        /* \"contracts/prop_test.sol\":2842:3003  if (proposals[p].voteCount > winningVoteCount) {\r... */\n    tag_146:\n        /* \"contracts/prop_test.sol\":2822:2825  p++ */\n      dup1\n      dup1\n      tag_149\n      swap1\n      tag_150\n      jump\t// in\n    tag_149:\n      swap2\n      pop\n      pop\n        /* \"contracts/prop_test.sol\":2783:3014  for (uint p = 0; p < proposals.length; p++) {\r... */\n      jump(tag_141)\n    tag_142:\n      pop\n        /* \"contracts/prop_test.sol\":2667:3021  function winningProposal() public view returns (uint winningProposal){\r... */\n      pop\n      swap1\n      jump\t// out\n        /* \"contracts/prop_test.sol\":4172:4269  function getProposals() public view returns(Proposal[] memory){\r... */\n    tag_54:\n        /* \"contracts/prop_test.sol\":4216:4233  Proposal[] memory */\n      0x60\n        /* \"contracts/prop_test.sol\":4252:4261  proposals */\n      0x06\n        /* \"contracts/prop_test.sol\":4245:4261  return proposals */\n      dup1\n      sload\n      dup1\n      0x20\n      mul\n      0x20\n      add\n      mload(0x40)\n      swap1\n      dup2\n      add\n      0x40\n      mstore\n      dup1\n      swap3\n      swap2\n      swap1\n      dup2\n      dup2\n      mstore\n      0x20\n      add\n      0x00\n      swap1\n    tag_152:\n      dup3\n      dup3\n      lt\n      iszero\n      tag_153\n      jumpi\n      dup4\n      dup3\n      swap1\n      0x00\n      mstore\n      keccak256(0x00, 0x20)\n      swap1\n      0x02\n      mul\n      add\n      mload(0x40)\n      dup1\n      0x40\n      add\n      0x40\n      mstore\n      swap1\n      dup2\n      0x00\n      dup3\n      add\n      dup1\n      sload\n      tag_155\n      swap1\n      tag_125\n      jump\t// in\n    tag_155:\n      dup1\n      0x1f\n      add\n      0x20\n      dup1\n      swap2\n      div\n      mul\n      0x20\n      add\n      mload(0x40)\n      swap1\n      dup2\n      add\n      0x40\n      mstore\n      dup1\n      swap3\n      swap2\n      swap1\n      dup2\n      dup2\n      mstore\n      0x20\n      add\n      dup3\n      dup1\n      sload\n      tag_156\n      swap1\n      tag_125\n      jump\t// in\n    tag_156:\n      dup1\n      iszero\n      tag_157\n      jumpi\n      dup1\n      0x1f\n      lt\n      tag_158\n      jumpi\n      0x0100\n      dup1\n      dup4\n      sload\n      div\n      mul\n      dup4\n      mstore\n      swap2\n      0x20\n      add\n      swap2\n      jump(tag_157)\n    tag_158:\n      dup3\n      add\n      swap2\n      swap1\n      0x00\n      mstore\n      keccak256(0x00, 0x20)\n      swap1\n    tag_159:\n      dup2\n      sload\n      dup2\n      mstore\n      swap1\n      0x01\n      add\n      swap1\n      0x20\n      add\n      dup1\n      dup4\n      gt\n      tag_159\n      jumpi\n      dup3\n      swap1\n      sub\n      0x1f\n      and\n      dup3\n      add\n      swap2\n    tag_157:\n      pop\n      pop\n      pop\n      pop\n      pop\n      dup2\n      mstore\n      0x20\n      add\n      0x01\n      dup3\n      add\n      sload\n      dup2\n      mstore\n      pop\n      pop\n      dup2\n      mstore\n      0x20\n      add\n      swap1\n      0x01\n      add\n      swap1\n      jump(tag_152)\n    tag_153:\n      pop\n      pop\n      pop\n      pop\n      swap1\n      pop\n        /* \"contracts/prop_test.sol\":4172:4269  function getProposals() public view returns(Proposal[] memory){\r... */\n      swap1\n      jump\t// out\n        /* \"contracts/visov_durku.sol\":657:802  function bfVote(uint256 _ballotIndex, uint _proposal) public {\r... */\n    tag_60:\n        /* \"contracts/visov_durku.sol\":751:762  ballotArray */\n      0x07\n        /* \"contracts/visov_durku.sol\":763:775  _ballotIndex */\n      dup3\n        /* \"contracts/visov_durku.sol\":751:776  ballotArray[_ballotIndex] */\n      dup2\n      sload\n      dup2\n      lt\n      tag_161\n      jumpi\n      mstore(0x00, 0x4e487b7100000000000000000000000000000000000000000000000000000000)\n      mstore(0x04, 0x32)\n      revert(0x00, 0x24)\n    tag_161:\n      swap1\n      0x00\n      mstore\n      keccak256(0x00, 0x20)\n      add\n      0x00\n      swap1\n      sload\n      swap1\n      0x0100\n      exp\n      swap1\n      div\n      0xffffffffffffffffffffffffffffffffffffffff\n      and\n        /* \"contracts/visov_durku.sol\":736:783  Ballot(address(ballotArray[_ballotIndex])).vote */\n      0xffffffffffffffffffffffffffffffffffffffff\n      and\n      0x0121b93f\n        /* \"contracts/visov_durku.sol\":784:793  _proposal */\n      dup3\n        /* \"contracts/visov_durku.sol\":736:794  Ballot(address(ballotArray[_ballotIndex])).vote(_proposal) */\n      mload(0x40)\n      dup3\n      0xffffffff\n      and\n      0xe0\n      shl\n      dup2\n      mstore\n      0x04\n      add\n      tag_163\n      swap2\n      swap1\n      tag_41\n      jump\t// in\n    tag_163:\n      0x00\n      mload(0x40)\n      dup1\n      dup4\n      sub\n      dup2\n      0x00\n      dup8\n      dup1\n      extcodesize\n      iszero\n      dup1\n      iszero\n      tag_164\n      jumpi\n      0x00\n      dup1\n      revert\n    tag_164:\n      pop\n      gas\n      call\n      iszero\n      dup1\n      iszero\n      tag_166\n      jumpi\n      returndatasize\n      0x00\n      dup1\n      returndatacopy\n      revert(0x00, returndatasize)\n    tag_166:\n      pop\n      pop\n      pop\n      pop\n        /* \"contracts/visov_durku.sol\":657:802  function bfVote(uint256 _ballotIndex, uint _proposal) public {\r... */\n      pop\n      pop\n      jump\t// out\n        /* \"contracts/visov_durku.sol\":135:162  Ballot[] public ballotArray */\n    tag_63:\n      0x07\n      dup2\n      dup2\n      sload\n      dup2\n      lt\n      tag_167\n      jumpi\n      0x00\n      dup1\n      revert\n    tag_167:\n      swap1\n      0x00\n      mstore\n      keccak256(0x00, 0x20)\n      add\n      0x00\n      swap2\n      pop\n      sload\n      swap1\n      0x0100\n      exp\n      swap1\n      div\n      0xffffffffffffffffffffffffffffffffffffffff\n      and\n      dup2\n      jump\t// out\n        /* \"contracts/prop_test.sol\":3632:3706  function setStatus(uint _status) public{\r... */\n    tag_68:\n        /* \"contracts/prop_test.sol\":3691:3698  _status */\n      dup1\n        /* \"contracts/prop_test.sol\":3682:3688  status */\n      0x01\n        /* \"contracts/prop_test.sol\":3682:3698  status = _status */\n      dup2\n      swap1\n      sstore\n      pop\n        /* \"contracts/prop_test.sol\":3632:3706  function setStatus(uint _status) public{\r... */\n      pop\n      jump\t// out\n        /* \"contracts/visov_durku.sol\":304:477  function bfCreateBallot(uint256 _ballotIndex, string[] memory proposalNames) public {\r... */\n    tag_72:\n        /* \"contracts/visov_durku.sol\":414:425  ballotArray */\n      0x07\n        /* \"contracts/visov_durku.sol\":426:438  _ballotIndex */\n      dup3\n        /* \"contracts/visov_durku.sol\":414:439  ballotArray[_ballotIndex] */\n      dup2\n      sload\n      dup2\n      lt\n      tag_171\n      jumpi\n      mstore(0x00, 0x4e487b7100000000000000000000000000000000000000000000000000000000)\n      mstore(0x04, 0x32)\n      revert(0x00, 0x24)\n    tag_171:\n      swap1\n      0x00\n      mstore\n      keccak256(0x00, 0x20)\n      add\n      0x00\n      swap1\n      sload\n      swap1\n      0x0100\n      exp\n      swap1\n      div\n      0xffffffffffffffffffffffffffffffffffffffff\n      and\n        /* \"contracts/visov_durku.sol\":399:454  Ballot(address(ballotArray[_ballotIndex])).createBallot */\n      0xffffffffffffffffffffffffffffffffffffffff\n      and\n      0x836bc692\n        /* \"contracts/visov_durku.sol\":455:468  proposalNames */\n      dup3\n        /* \"contracts/visov_durku.sol\":399:469  Ballot(address(ballotArray[_ballotIndex])).createBallot(proposalNames) */\n      mload(0x40)\n      dup3\n      0xffffffff\n      and\n      0xe0\n      shl\n      dup2\n      mstore\n      0x04\n      add\n      tag_173\n      swap2\n      swap1\n      tag_174\n      jump\t// in\n    tag_173:\n      0x00\n      mload(0x40)\n      dup1\n      dup4\n      sub\n      dup2\n      0x00\n      dup8\n      dup1\n      extcodesize\n      iszero\n      dup1\n      iszero\n      tag_175\n      jumpi\n      0x00\n      dup1\n      revert\n    tag_175:\n      pop\n      gas\n      call\n      iszero\n      dup1\n      iszero\n      tag_177\n      jumpi\n      returndatasize\n      0x00\n      dup1\n      returndatacopy\n      revert(0x00, returndatasize)\n    tag_177:\n      pop\n      pop\n      pop\n      pop\n        /* \"contracts/visov_durku.sol\":304:477  function bfCreateBallot(uint256 _ballotIndex, string[] memory proposalNames) public {\r... */\n      pop\n      pop\n      jump\t// out\n        /* \"contracts/prop_test.sol\":4434:4518  function getStartDate() public view returns(uint){\r... */\n    tag_74:\n        /* \"contracts/prop_test.sol\":4478:4482  uint */\n      0x00\n        /* \"contracts/prop_test.sol\":4501:4510  startDate */\n      sload(0x02)\n        /* \"contracts/prop_test.sol\":4494:4510  return startDate */\n      swap1\n      pop\n        /* \"contracts/prop_test.sol\":4434:4518  function getStartDate() public view returns(uint){\r... */\n      swap1\n      jump\t// out\n        /* \"contracts/prop_test.sol\":3500:3589  function getCreatorBallot() public view returns(address){\r... */\n    tag_77:\n        /* \"contracts/prop_test.sol\":3548:3555  address */\n      0x00\n        /* \"contracts/prop_test.sol\":3574:3581  creator */\n      dup1\n      0x00\n      swap1\n      sload\n      swap1\n      0x0100\n      exp\n      swap1\n      div\n      0xffffffffffffffffffffffffffffffffffffffff\n      and\n        /* \"contracts/prop_test.sol\":3567:3581  return creator */\n      swap1\n      pop\n        /* \"contracts/prop_test.sol\":3500:3589  function getCreatorBallot() public view returns(address){\r... */\n      swap1\n      jump\t// out\n        /* \"contracts/prop_test.sol\":907:1647  function createBallot(string[] memory proposalNames) public {\r... */\n    tag_82:\n        /* \"contracts/prop_test.sol\":988:998  msg.sender */\n      caller\n        /* \"contracts/prop_test.sol\":978:985  creator */\n      0x00\n      dup1\n        /* \"contracts/prop_test.sol\":978:998  creator = msg.sender */\n      0x0100\n      exp\n      dup2\n      sload\n      dup2\n      0xffffffffffffffffffffffffffffffffffffffff\n      mul\n      not\n      and\n      swap1\n      dup4\n      0xffffffffffffffffffffffffffffffffffffffff\n      and\n      mul\n      or\n      swap1\n      sstore\n      pop\n        /* \"contracts/prop_test.sol\":1034:1035  1 */\n      0x01\n        /* \"contracts/prop_test.sol\":1009:1015  voters */\n      0x05\n        /* \"contracts/prop_test.sol\":1009:1024  voters[creator] */\n      0x00\n        /* \"contracts/prop_test.sol\":1016:1023  creator */\n      dup1\n      0x00\n      swap1\n      sload\n      swap1\n      0x0100\n      exp\n      swap1\n      div\n      0xffffffffffffffffffffffffffffffffffffffff\n      and\n        /* \"contracts/prop_test.sol\":1009:1024  voters[creator] */\n      0xffffffffffffffffffffffffffffffffffffffff\n      and\n      0xffffffffffffffffffffffffffffffffffffffff\n      and\n      dup2\n      mstore\n      0x20\n      add\n      swap1\n      dup2\n      mstore\n      0x20\n      add\n      0x00\n      keccak256\n        /* \"contracts/prop_test.sol\":1009:1031  voters[creator].weight */\n      0x00\n      add\n        /* \"contracts/prop_test.sol\":1009:1035  voters[creator].weight = 1 */\n      dup2\n      swap1\n      sstore\n      pop\n        /* \"contracts/prop_test.sol\":1057:1058  0 */\n      0x00\n        /* \"contracts/prop_test.sol\":1048:1054  status */\n      0x01\n        /* \"contracts/prop_test.sol\":1048:1058  status = 0 */\n      dup2\n      swap1\n      sstore\n      pop\n        /* \"contracts/prop_test.sol\":1069:1083  setStartDate() */\n      tag_181\n        /* \"contracts/prop_test.sol\":1069:1081  setStartDate */\n      tag_182\n        /* \"contracts/prop_test.sol\":1069:1083  setStartDate() */\n      jump\t// in\n    tag_181:\n        /* \"contracts/prop_test.sol\":1111:1124  proposalNames */\n      dup1\n        /* \"contracts/prop_test.sol\":1111:1131  proposalNames.length */\n      mload\n        /* \"contracts/prop_test.sol\":1094:1108  numOfProposals */\n      0x04\n        /* \"contracts/prop_test.sol\":1094:1131  numOfProposals = proposalNames.length */\n      dup2\n      swap1\n      sstore\n      pop\n        /* \"contracts/prop_test.sol\":1291:1297  uint i */\n      0x00\n        /* \"contracts/prop_test.sol\":1286:1640  for (uint i = 0; i < proposalNames.length; i++) {\r... */\n    tag_183:\n        /* \"contracts/prop_test.sol\":1307:1320  proposalNames */\n      dup2\n        /* \"contracts/prop_test.sol\":1307:1327  proposalNames.length */\n      mload\n        /* \"contracts/prop_test.sol\":1303:1304  i */\n      dup2\n        /* \"contracts/prop_test.sol\":1303:1327  i < proposalNames.length */\n      lt\n        /* \"contracts/prop_test.sol\":1286:1640  for (uint i = 0; i < proposalNames.length; i++) {\r... */\n      iszero\n      tag_184\n      jumpi\n        /* \"contracts/prop_test.sol\":1515:1524  proposals */\n      0x06\n        /* \"contracts/prop_test.sol\":1530:1627  Proposal({\r... */\n      mload(0x40)\n      dup1\n      0x40\n      add\n      0x40\n      mstore\n      dup1\n        /* \"contracts/prop_test.sol\":1564:1577  proposalNames */\n      dup5\n        /* \"contracts/prop_test.sol\":1578:1579  i */\n      dup5\n        /* \"contracts/prop_test.sol\":1564:1580  proposalNames[i] */\n      dup2\n      mload\n      dup2\n      lt\n      tag_186\n      jumpi\n      mstore(0x00, 0x4e487b7100000000000000000000000000000000000000000000000000000000)\n      mstore(0x04, 0x32)\n      revert(0x00, 0x24)\n    tag_186:\n      0x20\n      mul\n      0x20\n      add\n      add\n      mload\n        /* \"contracts/prop_test.sol\":1530:1627  Proposal({\r... */\n      dup2\n      mstore\n      0x20\n      add\n        /* \"contracts/prop_test.sol\":1610:1611  0 */\n      0x00\n        /* \"contracts/prop_test.sol\":1530:1627  Proposal({\r... */\n      dup2\n      mstore\n      pop\n        /* \"contracts/prop_test.sol\":1515:1628  proposals.push(Proposal({\r... */\n      swap1\n      dup1\n      0x01\n      dup2\n      sload\n      add\n      dup1\n      dup3\n      sstore\n      dup1\n      swap2\n      pop\n      pop\n      0x01\n      swap1\n      sub\n      swap1\n      0x00\n      mstore\n      keccak256(0x00, 0x20)\n      swap1\n      0x02\n      mul\n      add\n      0x00\n      swap1\n      swap2\n      swap1\n      swap2\n      swap1\n      swap2\n      pop\n      0x00\n      dup3\n      add\n      mload\n      dup2\n      0x00\n      add\n      swap1\n      dup1\n      mload\n      swap1\n      0x20\n      add\n      swap1\n      tag_188\n      swap3\n      swap2\n      swap1\n      tag_189\n      jump\t// in\n    tag_188:\n      pop\n      0x20\n      dup3\n      add\n      mload\n      dup2\n      0x01\n      add\n      sstore\n      pop\n      pop\n        /* \"contracts/prop_test.sol\":1329:1332  i++ */\n      dup1\n      dup1\n      tag_190\n      swap1\n      tag_150\n      jump\t// in\n    tag_190:\n      swap2\n      pop\n      pop\n        /* \"contracts/prop_test.sol\":1286:1640  for (uint i = 0; i < proposalNames.length; i++) {\r... */\n      jump(tag_183)\n    tag_184:\n      pop\n        /* \"contracts/prop_test.sol\":907:1647  function createBallot(string[] memory proposalNames) public {\r... */\n      pop\n      jump\t// out\n        /* \"contracts/prop_test.sol\":4560:4632  function setEndDate() public{\r... */\n    tag_84:\n        /* \"contracts/prop_test.sol\":4609:4624  block.timestamp */\n      timestamp\n        /* \"contracts/prop_test.sol\":4599:4606  endDate */\n      0x03\n        /* \"contracts/prop_test.sol\":4599:4624  endDate = block.timestamp */\n      dup2\n      swap1\n      sstore\n      pop\n        /* \"contracts/prop_test.sol\":4560:4632  function setEndDate() public{\r... */\n      jump\t// out\n        /* \"contracts/visov_durku.sol\":171:296  function createBallotContract() public {\r... */\n    tag_86:\n        /* \"contracts/visov_durku.sol\":221:234  Ballot ballot */\n      0x00\n        /* \"contracts/visov_durku.sol\":237:249  new Ballot() */\n      mload(0x40)\n      tag_193\n      swap1\n      tag_194\n      jump\t// in\n    tag_193:\n      mload(0x40)\n      dup1\n      swap2\n      sub\n      swap1\n      0x00\n      create\n      dup1\n      iszero\n      dup1\n      iszero\n      tag_195\n      jumpi\n      returndatasize\n      0x00\n      dup1\n      returndatacopy\n      revert(0x00, returndatasize)\n    tag_195:\n      pop\n        /* \"contracts/visov_durku.sol\":221:249  Ballot ballot = new Ballot() */\n      swap1\n      pop\n        /* \"contracts/visov_durku.sol\":260:271  ballotArray */\n      0x07\n        /* \"contracts/visov_durku.sol\":277:283  ballot */\n      dup2\n        /* \"contracts/visov_durku.sol\":260:284  ballotArray.push(ballot) */\n      swap1\n      dup1\n      0x01\n      dup2\n      sload\n      add\n      dup1\n      dup3\n      sstore\n      dup1\n      swap2\n      pop\n      pop\n      0x01\n      swap1\n      sub\n      swap1\n      0x00\n      mstore\n      keccak256(0x00, 0x20)\n      add\n      0x00\n      swap1\n      swap2\n      swap1\n      swap2\n      swap1\n      swap2\n      0x0100\n      exp\n      dup2\n      sload\n      dup2\n      0xffffffffffffffffffffffffffffffffffffffff\n      mul\n      not\n      and\n      swap1\n      dup4\n      0xffffffffffffffffffffffffffffffffffffffff\n      and\n      mul\n      or\n      swap1\n      sstore\n      pop\n        /* \"contracts/visov_durku.sol\":171:296  function createBallotContract() public {\r... */\n      pop\n      jump\t// out\n        /* \"contracts/prop_test.sol\":1655:2233  function giveRightToVote(address voter) public {\r... */\n    tag_90:\n        /* \"contracts/prop_test.sol\":2126:2133  creator */\n      0x00\n      dup1\n      sload\n      swap1\n      0x0100\n      exp\n      swap1\n      div\n      0xffffffffffffffffffffffffffffffffffffffff\n      and\n        /* \"contracts/prop_test.sol\":2112:2133  msg.sender == creator */\n      0xffffffffffffffffffffffffffffffffffffffff\n      and\n        /* \"contracts/prop_test.sol\":2112:2122  msg.sender */\n      caller\n        /* \"contracts/prop_test.sol\":2112:2133  msg.sender == creator */\n      0xffffffffffffffffffffffffffffffffffffffff\n      and\n      eq\n        /* \"contracts/prop_test.sol\":2111:2158  (msg.sender == creator) && !voters[voter].voted */\n      dup1\n      iszero\n      tag_198\n      jumpi\n      pop\n        /* \"contracts/prop_test.sol\":2139:2145  voters */\n      0x05\n        /* \"contracts/prop_test.sol\":2139:2152  voters[voter] */\n      0x00\n        /* \"contracts/prop_test.sol\":2146:2151  voter */\n      dup3\n        /* \"contracts/prop_test.sol\":2139:2152  voters[voter] */\n      0xffffffffffffffffffffffffffffffffffffffff\n      and\n      0xffffffffffffffffffffffffffffffffffffffff\n      and\n      dup2\n      mstore\n      0x20\n      add\n      swap1\n      dup2\n      mstore\n      0x20\n      add\n      0x00\n      keccak256\n        /* \"contracts/prop_test.sol\":2139:2158  voters[voter].voted */\n      0x01\n      add\n      0x00\n      swap1\n      sload\n      swap1\n      0x0100\n      exp\n      swap1\n      div\n      0xff\n      and\n        /* \"contracts/prop_test.sol\":2138:2158  !voters[voter].voted */\n      iszero\n        /* \"contracts/prop_test.sol\":2111:2158  (msg.sender == creator) && !voters[voter].voted */\n    tag_198:\n        /* \"contracts/prop_test.sol\":2111:2189  (msg.sender == creator) && !voters[voter].voted && (voters[voter].weight == 0) */\n      dup1\n      iszero\n      tag_199\n      jumpi\n      pop\n        /* \"contracts/prop_test.sol\":2187:2188  0 */\n      0x00\n        /* \"contracts/prop_test.sol\":2163:2169  voters */\n      0x05\n        /* \"contracts/prop_test.sol\":2163:2176  voters[voter] */\n      0x00\n        /* \"contracts/prop_test.sol\":2170:2175  voter */\n      dup4\n        /* \"contracts/prop_test.sol\":2163:2176  voters[voter] */\n      0xffffffffffffffffffffffffffffffffffffffff\n      and\n      0xffffffffffffffffffffffffffffffffffffffff\n      and\n      dup2\n      mstore\n      0x20\n      add\n      swap1\n      dup2\n      mstore\n      0x20\n      add\n      0x00\n      keccak256\n        /* \"contracts/prop_test.sol\":2163:2183  voters[voter].weight */\n      0x00\n      add\n      sload\n        /* \"contracts/prop_test.sol\":2163:2188  voters[voter].weight == 0 */\n      eq\n        /* \"contracts/prop_test.sol\":2111:2189  (msg.sender == creator) && !voters[voter].voted && (voters[voter].weight == 0) */\n    tag_199:\n        /* \"contracts/prop_test.sol\":2103:2190  require((msg.sender == creator) && !voters[voter].voted && (voters[voter].weight == 0)) */\n      tag_200\n      jumpi\n      0x00\n      dup1\n      revert\n    tag_200:\n        /* \"contracts/prop_test.sol\":2224:2225  1 */\n      0x01\n        /* \"contracts/prop_test.sol\":2201:2207  voters */\n      0x05\n        /* \"contracts/prop_test.sol\":2201:2214  voters[voter] */\n      0x00\n        /* \"contracts/prop_test.sol\":2208:2213  voter */\n      dup4\n        /* \"contracts/prop_test.sol\":2201:2214  voters[voter] */\n      0xffffffffffffffffffffffffffffffffffffffff\n      and\n      0xffffffffffffffffffffffffffffffffffffffff\n      and\n      dup2\n      mstore\n      0x20\n      add\n      swap1\n      dup2\n      mstore\n      0x20\n      add\n      0x00\n      keccak256\n        /* \"contracts/prop_test.sol\":2201:2221  voters[voter].weight */\n      0x00\n      add\n        /* \"contracts/prop_test.sol\":2201:2225  voters[voter].weight = 1 */\n      dup2\n      swap1\n      sstore\n      pop\n        /* \"contracts/prop_test.sol\":1655:2233  function giveRightToVote(address voter) public {\r... */\n      pop\n      jump\t// out\n        /* \"contracts/prop_test.sol\":766:805  mapping(address => Voter) public voters */\n    tag_93:\n      mstore(0x20, 0x05)\n      dup1\n      0x00\n      mstore\n      keccak256(0x00, 0x40)\n      0x00\n      swap2\n      pop\n      swap1\n      pop\n      dup1\n      0x00\n      add\n      sload\n      swap1\n      dup1\n      0x01\n      add\n      0x00\n      swap1\n      sload\n      swap1\n      0x0100\n      exp\n      swap1\n      div\n      0xff\n      and\n      swap1\n      dup1\n      0x01\n      add\n      0x01\n      swap1\n      sload\n      swap1\n      0x0100\n      exp\n      swap1\n      div\n      0xffffffffffffffffffffffffffffffffffffffff\n      and\n      swap1\n      dup1\n      0x02\n      add\n      sload\n      swap1\n      pop\n      dup5\n      jump\t// out\n        /* \"contracts/prop_test.sol\":4672:4752  function getEndDate() public view returns(uint){\r... */\n    tag_97:\n        /* \"contracts/prop_test.sol\":4714:4718  uint */\n      0x00\n        /* \"contracts/prop_test.sol\":4737:4744  endDate */\n      sload(0x03)\n        /* \"contracts/prop_test.sol\":4730:4744  return endDate */\n      swap1\n      pop\n        /* \"contracts/prop_test.sol\":4672:4752  function getEndDate() public view returns(uint){\r... */\n      swap1\n      jump\t// out\n        /* \"contracts/visov_durku.sol\":485:649  function bfGiveRightToVote(uint256 _ballotIndex, address _voter) public {\r... */\n    tag_102:\n        /* \"contracts/visov_durku.sol\":590:601  ballotArray */\n      0x07\n        /* \"contracts/visov_durku.sol\":602:614  _ballotIndex */\n      dup3\n        /* \"contracts/visov_durku.sol\":590:615  ballotArray[_ballotIndex] */\n      dup2\n      sload\n      dup2\n      lt\n      tag_203\n      jumpi\n      mstore(0x00, 0x4e487b7100000000000000000000000000000000000000000000000000000000)\n      mstore(0x04, 0x32)\n      revert(0x00, 0x24)\n    tag_203:\n      swap1\n      0x00\n      mstore\n      keccak256(0x00, 0x20)\n      add\n      0x00\n      swap1\n      sload\n      swap1\n      0x0100\n      exp\n      swap1\n      div\n      0xffffffffffffffffffffffffffffffffffffffff\n      and\n        /* \"contracts/visov_durku.sol\":575:633  Ballot(address(ballotArray[_ballotIndex])).giveRightToVote */\n      0xffffffffffffffffffffffffffffffffffffffff\n      and\n      0x9e7b8d61\n        /* \"contracts/visov_durku.sol\":634:640  _voter */\n      dup3\n        /* \"contracts/visov_durku.sol\":575:641  Ballot(address(ballotArray[_ballotIndex])).giveRightToVote(_voter) */\n      mload(0x40)\n      dup3\n      0xffffffff\n      and\n      0xe0\n      shl\n      dup2\n      mstore\n      0x04\n      add\n      tag_205\n      swap2\n      swap1\n      tag_46\n      jump\t// in\n    tag_205:\n      0x00\n      mload(0x40)\n      dup1\n      dup4\n      sub\n      dup2\n      0x00\n      dup8\n      dup1\n      extcodesize\n      iszero\n      dup1\n      iszero\n      tag_206\n      jumpi\n      0x00\n      dup1\n      revert\n    tag_206:\n      pop\n      gas\n      call\n      iszero\n      dup1\n      iszero\n      tag_208\n      jumpi\n      returndatasize\n      0x00\n      dup1\n      returndatacopy\n      revert(0x00, returndatasize)\n    tag_208:\n      pop\n      pop\n      pop\n      pop\n        /* \"contracts/visov_durku.sol\":485:649  function bfGiveRightToVote(uint256 _ballotIndex, address _voter) public {\r... */\n      pop\n      pop\n      jump\t// out\n        /* \"contracts/visov_durku.sol\":810:988  function bfWinningProposal(uint256 _ballotIndex) public view returns (uint winningProposal) {\r... */\n    tag_105:\n        /* \"contracts/visov_durku.sol\":880:900  uint winningProposal */\n      0x00\n        /* \"contracts/visov_durku.sol\":935:946  ballotArray */\n      0x07\n        /* \"contracts/visov_durku.sol\":947:959  _ballotIndex */\n      dup3\n        /* \"contracts/visov_durku.sol\":935:960  ballotArray[_ballotIndex] */\n      dup2\n      sload\n      dup2\n      lt\n      tag_210\n      jumpi\n      mstore(0x00, 0x4e487b7100000000000000000000000000000000000000000000000000000000)\n      mstore(0x04, 0x32)\n      revert(0x00, 0x24)\n    tag_210:\n      swap1\n      0x00\n      mstore\n      keccak256(0x00, 0x20)\n      add\n      0x00\n      swap1\n      sload\n      swap1\n      0x0100\n      exp\n      swap1\n      div\n      0xffffffffffffffffffffffffffffffffffffffff\n      and\n        /* \"contracts/visov_durku.sol\":920:978  Ballot(address(ballotArray[_ballotIndex])).winningProposal */\n      0xffffffffffffffffffffffffffffffffffffffff\n      and\n      0x609ff1bd\n        /* \"contracts/visov_durku.sol\":920:980  Ballot(address(ballotArray[_ballotIndex])).winningProposal() */\n      mload(0x40)\n      dup2\n      0xffffffff\n      and\n      0xe0\n      shl\n      dup2\n      mstore\n      0x04\n      add\n      0x20\n      mload(0x40)\n      dup1\n      dup4\n      sub\n      dup2\n      dup7\n      dup1\n      extcodesize\n      iszero\n      dup1\n      iszero\n      tag_212\n      jumpi\n      0x00\n      dup1\n      revert\n    tag_212:\n      pop\n      gas\n      staticcall\n      iszero\n      dup1\n      iszero\n      tag_214\n      jumpi\n      returndatasize\n      0x00\n      dup1\n      returndatacopy\n      revert(0x00, returndatasize)\n    tag_214:\n      pop\n      pop\n      pop\n      pop\n      mload(0x40)\n      returndatasize\n      not(0x1f)\n      0x1f\n      dup3\n      add\n      and\n      dup3\n      add\n      dup1\n      0x40\n      mstore\n      pop\n      dup2\n      add\n      swap1\n      tag_215\n      swap2\n      swap1\n      tag_216\n      jump\t// in\n    tag_215:\n        /* \"contracts/visov_durku.sol\":913:980  return Ballot(address(ballotArray[_ballotIndex])).winningProposal() */\n      swap1\n      pop\n        /* \"contracts/visov_durku.sol\":810:988  function bfWinningProposal(uint256 _ballotIndex) public view returns (uint winningProposal) {\r... */\n      swap2\n      swap1\n      pop\n      jump\t// out\n        /* \"contracts/prop_test.sol\":3190:3328  function winnerName() public view returns(string memory winnerName)\r... */\n    tag_108:\n        /* \"contracts/prop_test.sol\":3232:3256  string memory winnerName */\n      0x60\n        /* \"contracts/prop_test.sol\":3287:3296  proposals */\n      0x06\n        /* \"contracts/prop_test.sol\":3297:3314  winningProposal() */\n      tag_218\n        /* \"contracts/prop_test.sol\":3297:3312  winningProposal */\n      tag_51\n        /* \"contracts/prop_test.sol\":3297:3314  winningProposal() */\n      jump\t// in\n    tag_218:\n        /* \"contracts/prop_test.sol\":3287:3315  proposals[winningProposal()] */\n      dup2\n      sload\n      dup2\n      lt\n      tag_219\n      jumpi\n      mstore(0x00, 0x4e487b7100000000000000000000000000000000000000000000000000000000)\n      mstore(0x04, 0x32)\n      revert(0x00, 0x24)\n    tag_219:\n      swap1\n      0x00\n      mstore\n      keccak256(0x00, 0x20)\n      swap1\n      0x02\n      mul\n      add\n        /* \"contracts/prop_test.sol\":3287:3320  proposals[winningProposal()].name */\n      0x00\n      add\n        /* \"contracts/prop_test.sol\":3274:3320  winnerName = proposals[winningProposal()].name */\n      dup1\n      sload\n      tag_221\n      swap1\n      tag_125\n      jump\t// in\n    tag_221:\n      dup1\n      0x1f\n      add\n      0x20\n      dup1\n      swap2\n      div\n      mul\n      0x20\n      add\n      mload(0x40)\n      swap1\n      dup2\n      add\n      0x40\n      mstore\n      dup1\n      swap3\n      swap2\n      swap1\n      dup2\n      dup2\n      mstore\n      0x20\n      add\n      dup3\n      dup1\n      sload\n      tag_222\n      swap1\n      tag_125\n      jump\t// in\n    tag_222:\n      dup1\n      iszero\n      tag_223\n      jumpi\n      dup1\n      0x1f\n      lt\n      tag_224\n      jumpi\n      0x0100\n      dup1\n      dup4\n      sload\n      div\n      mul\n      dup4\n      mstore\n      swap2\n      0x20\n      add\n      swap2\n      jump(tag_223)\n    tag_224:\n      dup3\n      add\n      swap2\n      swap1\n      0x00\n      mstore\n      keccak256(0x00, 0x20)\n      swap1\n    tag_225:\n      dup2\n      sload\n      dup2\n      mstore\n      swap1\n      0x01\n      add\n      swap1\n      0x20\n      add\n      dup1\n      dup4\n      gt\n      tag_225\n      jumpi\n      dup3\n      swap1\n      sub\n      0x1f\n      and\n      dup3\n      add\n      swap2\n    tag_223:\n      pop\n      pop\n      pop\n      pop\n      pop\n      swap1\n      pop\n        /* \"contracts/prop_test.sol\":3190:3328  function winnerName() public view returns(string memory winnerName)\r... */\n      swap1\n      jump\t// out\n        /* \"contracts/prop_test.sol\":4005:4137  function getProposalStructure(uint _proposalId) public view returns(Proposal memory){\r... */\n    tag_113:\n        /* \"contracts/prop_test.sol\":4073:4088  Proposal memory */\n      tag_226\n      tag_227\n      jump\t// in\n    tag_226:\n        /* \"contracts/prop_test.sol\":4107:4116  proposals */\n      0x06\n        /* \"contracts/prop_test.sol\":4117:4128  _proposalId */\n      dup3\n        /* \"contracts/prop_test.sol\":4107:4129  proposals[_proposalId] */\n      dup2\n      sload\n      dup2\n      lt\n      tag_229\n      jumpi\n      mstore(0x00, 0x4e487b7100000000000000000000000000000000000000000000000000000000)\n      mstore(0x04, 0x32)\n      revert(0x00, 0x24)\n    tag_229:\n      swap1\n      0x00\n      mstore\n      keccak256(0x00, 0x20)\n      swap1\n      0x02\n      mul\n      add\n        /* \"contracts/prop_test.sol\":4100:4129  return proposals[_proposalId] */\n      mload(0x40)\n      dup1\n      0x40\n      add\n      0x40\n      mstore\n      swap1\n      dup2\n      0x00\n      dup3\n      add\n      dup1\n      sload\n      tag_231\n      swap1\n      tag_125\n      jump\t// in\n    tag_231:\n      dup1\n      0x1f\n      add\n      0x20\n      dup1\n      swap2\n      div\n      mul\n      0x20\n      add\n      mload(0x40)\n      swap1\n      dup2\n      add\n      0x40\n      mstore\n      dup1\n      swap3\n      swap2\n      swap1\n      dup2\n      dup2\n      mstore\n      0x20\n      add\n      dup3\n      dup1\n      sload\n      tag_232\n      swap1\n      tag_125\n      jump\t// in\n    tag_232:\n      dup1\n      iszero\n      tag_233\n      jumpi\n      dup1\n      0x1f\n      lt\n      tag_234\n      jumpi\n      0x0100\n      dup1\n      dup4\n      sload\n      div\n      mul\n      dup4\n      mstore\n      swap2\n      0x20\n      add\n      swap2\n      jump(tag_233)\n    tag_234:\n      dup3\n      add\n      swap2\n      swap1\n      0x00\n      mstore\n      keccak256(0x00, 0x20)\n      swap1\n    tag_235:\n      dup2\n      sload\n      dup2\n      mstore\n      swap1\n      0x01\n      add\n      swap1\n      0x20\n      add\n      dup1\n      dup4\n      gt\n      tag_235\n      jumpi\n      dup3\n      swap1\n      sub\n      0x1f\n      and\n      dup3\n      add\n      swap2\n    tag_233:\n      pop\n      pop\n      pop\n      pop\n      pop\n      dup2\n      mstore\n      0x20\n      add\n      0x01\n      dup3\n      add\n      sload\n      dup2\n      mstore\n      pop\n      pop\n      swap1\n      pop\n        /* \"contracts/prop_test.sol\":4005:4137  function getProposalStructure(uint _proposalId) public view returns(Proposal memory){\r... */\n      swap2\n      swap1\n      pop\n      jump\t// out\n        /* \"contracts/prop_test.sol\":4313:4392  function setStartDate() internal {\r... */\n    tag_182:\n        /* \"contracts/prop_test.sol\":4369:4384  block.timestamp */\n      timestamp\n        /* \"contracts/prop_test.sol\":4357:4366  startDate */\n      0x02\n        /* \"contracts/prop_test.sol\":4357:4384  startDate = block.timestamp */\n      dup2\n      swap1\n      sstore\n      pop\n        /* \"contracts/prop_test.sol\":4313:4392  function setStartDate() internal {\r... */\n      jump\t// out\n    tag_189:\n      dup3\n      dup1\n      sload\n      tag_237\n      swap1\n      tag_125\n      jump\t// in\n    tag_237:\n      swap1\n      0x00\n      mstore\n      keccak256(0x00, 0x20)\n      swap1\n      0x1f\n      add\n      0x20\n      swap1\n      div\n      dup2\n      add\n      swap3\n      dup3\n      tag_239\n      jumpi\n      0x00\n      dup6\n      sstore\n      jump(tag_238)\n    tag_239:\n      dup3\n      0x1f\n      lt\n      tag_240\n      jumpi\n      dup1\n      mload\n      not(0xff)\n      and\n      dup4\n      dup1\n      add\n      or\n      dup6\n      sstore\n      jump(tag_238)\n    tag_240:\n      dup3\n      dup1\n      add\n      0x01\n      add\n      dup6\n      sstore\n      dup3\n      iszero\n      tag_238\n      jumpi\n      swap2\n      dup3\n      add\n    tag_241:\n      dup3\n      dup2\n      gt\n      iszero\n      tag_242\n      jumpi\n      dup3\n      mload\n      dup3\n      sstore\n      swap2\n      0x20\n      add\n      swap2\n      swap1\n      0x01\n      add\n      swap1\n      jump(tag_241)\n    tag_242:\n    tag_238:\n      pop\n      swap1\n      pop\n      tag_243\n      swap2\n      swap1\n      tag_244\n      jump\t// in\n    tag_243:\n      pop\n      swap1\n      jump\t// out\n    tag_194:\n      dataSize(sub_0)\n      dup1\n      dataOffset(sub_0)\n      dup4\n      codecopy\n      add\n      swap1\n      jump\t// out\n    tag_227:\n      mload(0x40)\n      dup1\n      0x40\n      add\n      0x40\n      mstore\n      dup1\n      0x60\n      dup2\n      mstore\n      0x20\n      add\n      0x00\n      dup2\n      mstore\n      pop\n      swap1\n      jump\t// out\n    tag_244:\n    tag_245:\n      dup1\n      dup3\n      gt\n      iszero\n      tag_246\n      jumpi\n      0x00\n      dup2\n      0x00\n      swap1\n      sstore\n      pop\n      0x01\n      add\n      jump(tag_245)\n    tag_246:\n      pop\n      swap1\n      jump\t// out\n        /* \"#utility.yul\":23:638   */\n    tag_248:\n      0x00\n        /* \"#utility.yul\":154:244   */\n      tag_250\n        /* \"#utility.yul\":169:243   */\n      tag_251\n        /* \"#utility.yul\":236:242   */\n      dup5\n        /* \"#utility.yul\":169:243   */\n      tag_252\n      jump\t// in\n    tag_251:\n        /* \"#utility.yul\":154:244   */\n      tag_253\n      jump\t// in\n    tag_250:\n        /* \"#utility.yul\":145:244   */\n      swap1\n      pop\n        /* \"#utility.yul\":264:269   */\n      dup1\n        /* \"#utility.yul\":292:298   */\n      dup4\n        /* \"#utility.yul\":285:290   */\n      dup3\n        /* \"#utility.yul\":278:299   */\n      mstore\n        /* \"#utility.yul\":318:322   */\n      0x20\n        /* \"#utility.yul\":311:316   */\n      dup3\n        /* \"#utility.yul\":307:323   */\n      add\n        /* \"#utility.yul\":300:323   */\n      swap1\n      pop\n        /* \"#utility.yul\":343:349   */\n      dup3\n        /* \"#utility.yul\":374:375   */\n      0x00\n        /* \"#utility.yul\":359:632   */\n    tag_254:\n        /* \"#utility.yul\":384:390   */\n      dup6\n        /* \"#utility.yul\":381:382   */\n      dup2\n        /* \"#utility.yul\":378:391   */\n      lt\n        /* \"#utility.yul\":359:632   */\n      iszero\n      tag_256\n      jumpi\n        /* \"#utility.yul\":476:479   */\n      dup2\n        /* \"#utility.yul\":463:480   */\n      calldataload\n        /* \"#utility.yul\":455:461   */\n      dup6\n        /* \"#utility.yul\":451:481   */\n      add\n        /* \"#utility.yul\":506:553   */\n      tag_257\n        /* \"#utility.yul\":549:552   */\n      dup9\n        /* \"#utility.yul\":537:547   */\n      dup3\n        /* \"#utility.yul\":506:553   */\n      tag_258\n      jump\t// in\n    tag_257:\n        /* \"#utility.yul\":501:504   */\n      dup5\n        /* \"#utility.yul\":494:554   */\n      mstore\n        /* \"#utility.yul\":583:587   */\n      0x20\n        /* \"#utility.yul\":578:581   */\n      dup5\n        /* \"#utility.yul\":574:588   */\n      add\n        /* \"#utility.yul\":567:588   */\n      swap4\n      pop\n        /* \"#utility.yul\":617:621   */\n      0x20\n        /* \"#utility.yul\":612:615   */\n      dup4\n        /* \"#utility.yul\":608:622   */\n      add\n        /* \"#utility.yul\":601:622   */\n      swap3\n      pop\n        /* \"#utility.yul\":419:632   */\n      pop\n        /* \"#utility.yul\":406:407   */\n      0x01\n        /* \"#utility.yul\":403:404   */\n      dup2\n        /* \"#utility.yul\":399:408   */\n      add\n        /* \"#utility.yul\":394:408   */\n      swap1\n      pop\n        /* \"#utility.yul\":359:632   */\n      jump(tag_254)\n    tag_256:\n        /* \"#utility.yul\":363:377   */\n      pop\n        /* \"#utility.yul\":135:638   */\n      pop\n      pop\n      swap4\n      swap3\n      pop\n      pop\n      pop\n      jump\t// out\n        /* \"#utility.yul\":644:988   */\n    tag_259:\n      0x00\n        /* \"#utility.yul\":747:812   */\n      tag_261\n        /* \"#utility.yul\":762:811   */\n      tag_262\n        /* \"#utility.yul\":804:810   */\n      dup5\n        /* \"#utility.yul\":762:811   */\n      tag_263\n      jump\t// in\n    tag_262:\n        /* \"#utility.yul\":747:812   */\n      tag_253\n      jump\t// in\n    tag_261:\n        /* \"#utility.yul\":738:812   */\n      swap1\n      pop\n        /* \"#utility.yul\":835:841   */\n      dup3\n        /* \"#utility.yul\":828:833   */\n      dup2\n        /* \"#utility.yul\":821:842   */\n      mstore\n        /* \"#utility.yul\":873:877   */\n      0x20\n        /* \"#utility.yul\":866:871   */\n      dup2\n        /* \"#utility.yul\":862:878   */\n      add\n        /* \"#utility.yul\":911:914   */\n      dup5\n        /* \"#utility.yul\":902:908   */\n      dup5\n        /* \"#utility.yul\":897:900   */\n      dup5\n        /* \"#utility.yul\":893:909   */\n      add\n        /* \"#utility.yul\":890:915   */\n      gt\n        /* \"#utility.yul\":887:889   */\n      iszero\n      tag_264\n      jumpi\n        /* \"#utility.yul\":928:929   */\n      0x00\n        /* \"#utility.yul\":925:926   */\n      dup1\n        /* \"#utility.yul\":918:930   */\n      revert\n        /* \"#utility.yul\":887:889   */\n    tag_264:\n        /* \"#utility.yul\":941:982   */\n      tag_265\n        /* \"#utility.yul\":975:981   */\n      dup5\n        /* \"#utility.yul\":970:973   */\n      dup3\n        /* \"#utility.yul\":965:968   */\n      dup6\n        /* \"#utility.yul\":941:982   */\n      tag_266\n      jump\t// in\n    tag_265:\n        /* \"#utility.yul\":728:988   */\n      pop\n      swap4\n      swap3\n      pop\n      pop\n      pop\n      jump\t// out\n        /* \"#utility.yul\":994:1133   */\n    tag_267:\n      0x00\n        /* \"#utility.yul\":1078:1084   */\n      dup2\n        /* \"#utility.yul\":1065:1085   */\n      calldataload\n        /* \"#utility.yul\":1056:1085   */\n      swap1\n      pop\n        /* \"#utility.yul\":1094:1127   */\n      tag_269\n        /* \"#utility.yul\":1121:1126   */\n      dup2\n        /* \"#utility.yul\":1094:1127   */\n      tag_270\n      jump\t// in\n    tag_269:\n        /* \"#utility.yul\":1046:1133   */\n      swap3\n      swap2\n      pop\n      pop\n      jump\t// out\n        /* \"#utility.yul\":1139:1282   */\n    tag_271:\n      0x00\n        /* \"#utility.yul\":1227:1233   */\n      dup2\n        /* \"#utility.yul\":1221:1234   */\n      mload\n        /* \"#utility.yul\":1212:1234   */\n      swap1\n      pop\n        /* \"#utility.yul\":1243:1276   */\n      tag_273\n        /* \"#utility.yul\":1270:1275   */\n      dup2\n        /* \"#utility.yul\":1243:1276   */\n      tag_270\n      jump\t// in\n    tag_273:\n        /* \"#utility.yul\":1202:1282   */\n      swap3\n      swap2\n      pop\n      pop\n      jump\t// out\n        /* \"#utility.yul\":1304:1627   */\n    tag_274:\n      0x00\n        /* \"#utility.yul\":1434:1437   */\n      dup3\n        /* \"#utility.yul\":1427:1431   */\n      0x1f\n        /* \"#utility.yul\":1419:1425   */\n      dup4\n        /* \"#utility.yul\":1415:1432   */\n      add\n        /* \"#utility.yul\":1411:1438   */\n      slt\n        /* \"#utility.yul\":1401:1403   */\n      tag_276\n      jumpi\n        /* \"#utility.yul\":1452:1453   */\n      0x00\n        /* \"#utility.yul\":1449:1450   */\n      dup1\n        /* \"#utility.yul\":1442:1454   */\n      revert\n        /* \"#utility.yul\":1401:1403   */\n    tag_276:\n        /* \"#utility.yul\":1492:1498   */\n      dup2\n        /* \"#utility.yul\":1479:1499   */\n      calldataload\n        /* \"#utility.yul\":1517:1621   */\n      tag_277\n        /* \"#utility.yul\":1617:1620   */\n      dup5\n        /* \"#utility.yul\":1609:1615   */\n      dup3\n        /* \"#utility.yul\":1602:1606   */\n      0x20\n        /* \"#utility.yul\":1594:1600   */\n      dup7\n        /* \"#utility.yul\":1590:1607   */\n      add\n        /* \"#utility.yul\":1517:1621   */\n      tag_248\n      jump\t// in\n    tag_277:\n        /* \"#utility.yul\":1508:1621   */\n      swap2\n      pop\n        /* \"#utility.yul\":1391:1627   */\n      pop\n      swap3\n      swap2\n      pop\n      pop\n      jump\t// out\n        /* \"#utility.yul\":1647:1920   */\n    tag_258:\n      0x00\n        /* \"#utility.yul\":1752:1755   */\n      dup3\n        /* \"#utility.yul\":1745:1749   */\n      0x1f\n        /* \"#utility.yul\":1737:1743   */\n      dup4\n        /* \"#utility.yul\":1733:1750   */\n      add\n        /* \"#utility.yul\":1729:1756   */\n      slt\n        /* \"#utility.yul\":1719:1721   */\n      tag_279\n      jumpi\n        /* \"#utility.yul\":1770:1771   */\n      0x00\n        /* \"#utility.yul\":1767:1768   */\n      dup1\n        /* \"#utility.yul\":1760:1772   */\n      revert\n        /* \"#utility.yul\":1719:1721   */\n    tag_279:\n        /* \"#utility.yul\":1810:1816   */\n      dup2\n        /* \"#utility.yul\":1797:1817   */\n      calldataload\n        /* \"#utility.yul\":1835:1914   */\n      tag_280\n        /* \"#utility.yul\":1910:1913   */\n      dup5\n        /* \"#utility.yul\":1902:1908   */\n      dup3\n        /* \"#utility.yul\":1895:1899   */\n      0x20\n        /* \"#utility.yul\":1887:1893   */\n      dup7\n        /* \"#utility.yul\":1883:1900   */\n      add\n        /* \"#utility.yul\":1835:1914   */\n      tag_259\n      jump\t// in\n    tag_280:\n        /* \"#utility.yul\":1826:1914   */\n      swap2\n      pop\n        /* \"#utility.yul\":1709:1920   */\n      pop\n      swap3\n      swap2\n      pop\n      pop\n      jump\t// out\n        /* \"#utility.yul\":1926:2065   */\n    tag_281:\n      0x00\n        /* \"#utility.yul\":2010:2016   */\n      dup2\n        /* \"#utility.yul\":1997:2017   */\n      calldataload\n        /* \"#utility.yul\":1988:2017   */\n      swap1\n      pop\n        /* \"#utility.yul\":2026:2059   */\n      tag_283\n        /* \"#utility.yul\":2053:2058   */\n      dup2\n        /* \"#utility.yul\":2026:2059   */\n      tag_284\n      jump\t// in\n    tag_283:\n        /* \"#utility.yul\":1978:2065   */\n      swap3\n      swap2\n      pop\n      pop\n      jump\t// out\n        /* \"#utility.yul\":2071:2214   */\n    tag_285:\n      0x00\n        /* \"#utility.yul\":2159:2165   */\n      dup2\n        /* \"#utility.yul\":2153:2166   */\n      mload\n        /* \"#utility.yul\":2144:2166   */\n      swap1\n      pop\n        /* \"#utility.yul\":2175:2208   */\n      tag_287\n        /* \"#utility.yul\":2202:2207   */\n      dup2\n        /* \"#utility.yul\":2175:2208   */\n      tag_284\n      jump\t// in\n    tag_287:\n        /* \"#utility.yul\":2134:2214   */\n      swap3\n      swap2\n      pop\n      pop\n      jump\t// out\n        /* \"#utility.yul\":2220:2482   */\n    tag_89:\n      0x00\n        /* \"#utility.yul\":2328:2330   */\n      0x20\n        /* \"#utility.yul\":2316:2325   */\n      dup3\n        /* \"#utility.yul\":2307:2314   */\n      dup5\n        /* \"#utility.yul\":2303:2326   */\n      sub\n        /* \"#utility.yul\":2299:2331   */\n      slt\n        /* \"#utility.yul\":2296:2298   */\n      iszero\n      tag_289\n      jumpi\n        /* \"#utility.yul\":2344:2345   */\n      0x00\n        /* \"#utility.yul\":2341:2342   */\n      dup1\n        /* \"#utility.yul\":2334:2346   */\n      revert\n        /* \"#utility.yul\":2296:2298   */\n    tag_289:\n        /* \"#utility.yul\":2387:2388   */\n      0x00\n        /* \"#utility.yul\":2412:2465   */\n      tag_290\n        /* \"#utility.yul\":2457:2464   */\n      dup5\n        /* \"#utility.yul\":2448:2454   */\n      dup3\n        /* \"#utility.yul\":2437:2446   */\n      dup6\n        /* \"#utility.yul\":2433:2455   */\n      add\n        /* \"#utility.yul\":2412:2465   */\n      tag_267\n      jump\t// in\n    tag_290:\n        /* \"#utility.yul\":2402:2465   */\n      swap2\n      pop\n        /* \"#utility.yul\":2358:2475   */\n      pop\n        /* \"#utility.yul\":2286:2482   */\n      swap3\n      swap2\n      pop\n      pop\n      jump\t// out\n        /* \"#utility.yul\":2488:2772   */\n    tag_138:\n      0x00\n        /* \"#utility.yul\":2607:2609   */\n      0x20\n        /* \"#utility.yul\":2595:2604   */\n      dup3\n        /* \"#utility.yul\":2586:2593   */\n      dup5\n        /* \"#utility.yul\":2582:2605   */\n      sub\n        /* \"#utility.yul\":2578:2610   */\n      slt\n        /* \"#utility.yul\":2575:2577   */\n      iszero\n      tag_292\n      jumpi\n        /* \"#utility.yul\":2623:2624   */\n      0x00\n        /* \"#utility.yul\":2620:2621   */\n      dup1\n        /* \"#utility.yul\":2613:2625   */\n      revert\n        /* \"#utility.yul\":2575:2577   */\n    tag_292:\n        /* \"#utility.yul\":2666:2667   */\n      0x00\n        /* \"#utility.yul\":2691:2755   */\n      tag_293\n        /* \"#utility.yul\":2747:2754   */\n      dup5\n        /* \"#utility.yul\":2738:2744   */\n      dup3\n        /* \"#utility.yul\":2727:2736   */\n      dup6\n        /* \"#utility.yul\":2723:2745   */\n      add\n        /* \"#utility.yul\":2691:2755   */\n      tag_271\n      jump\t// in\n    tag_293:\n        /* \"#utility.yul\":2681:2755   */\n      swap2\n      pop\n        /* \"#utility.yul\":2637:2765   */\n      pop\n        /* \"#utility.yul\":2565:2772   */\n      swap3\n      swap2\n      pop\n      pop\n      jump\t// out\n        /* \"#utility.yul\":2778:3203   */\n    tag_81:\n      0x00\n        /* \"#utility.yul\":2921:2923   */\n      0x20\n        /* \"#utility.yul\":2909:2918   */\n      dup3\n        /* \"#utility.yul\":2900:2907   */\n      dup5\n        /* \"#utility.yul\":2896:2919   */\n      sub\n        /* \"#utility.yul\":2892:2924   */\n      slt\n        /* \"#utility.yul\":2889:2891   */\n      iszero\n      tag_295\n      jumpi\n        /* \"#utility.yul\":2937:2938   */\n      0x00\n        /* \"#utility.yul\":2934:2935   */\n      dup1\n        /* \"#utility.yul\":2927:2939   */\n      revert\n        /* \"#utility.yul\":2889:2891   */\n    tag_295:\n        /* \"#utility.yul\":3008:3009   */\n      0x00\n        /* \"#utility.yul\":2997:3006   */\n      dup3\n        /* \"#utility.yul\":2993:3010   */\n      add\n        /* \"#utility.yul\":2980:3011   */\n      calldataload\n        /* \"#utility.yul\":3038:3056   */\n      0xffffffffffffffff\n        /* \"#utility.yul\":3030:3036   */\n      dup2\n        /* \"#utility.yul\":3027:3057   */\n      gt\n        /* \"#utility.yul\":3024:3026   */\n      iszero\n      tag_296\n      jumpi\n        /* \"#utility.yul\":3070:3071   */\n      0x00\n        /* \"#utility.yul\":3067:3068   */\n      dup1\n        /* \"#utility.yul\":3060:3072   */\n      revert\n        /* \"#utility.yul\":3024:3026   */\n    tag_296:\n        /* \"#utility.yul\":3098:3186   */\n      tag_297\n        /* \"#utility.yul\":3178:3185   */\n      dup5\n        /* \"#utility.yul\":3169:3175   */\n      dup3\n        /* \"#utility.yul\":3158:3167   */\n      dup6\n        /* \"#utility.yul\":3154:3176   */\n      add\n        /* \"#utility.yul\":3098:3186   */\n      tag_274\n      jump\t// in\n    tag_297:\n        /* \"#utility.yul\":3088:3186   */\n      swap2\n      pop\n        /* \"#utility.yul\":2951:3196   */\n      pop\n        /* \"#utility.yul\":2879:3203   */\n      swap3\n      swap2\n      pop\n      pop\n      jump\t// out\n        /* \"#utility.yul\":3209:3471   */\n    tag_31:\n      0x00\n        /* \"#utility.yul\":3317:3319   */\n      0x20\n        /* \"#utility.yul\":3305:3314   */\n      dup3\n        /* \"#utility.yul\":3296:3303   */\n      dup5\n        /* \"#utility.yul\":3292:3315   */\n      sub\n        /* \"#utility.yul\":3288:3320   */\n      slt\n        /* \"#utility.yul\":3285:3287   */\n      iszero\n      tag_299\n      jumpi\n        /* \"#utility.yul\":3333:3334   */\n      0x00\n        /* \"#utility.yul\":3330:3331   */\n      dup1\n        /* \"#utility.yul\":3323:3335   */\n      revert\n        /* \"#utility.yul\":3285:3287   */\n    tag_299:\n        /* \"#utility.yul\":3376:3377   */\n      0x00\n        /* \"#utility.yul\":3401:3454   */\n      tag_300\n        /* \"#utility.yul\":3446:3453   */\n      dup5\n        /* \"#utility.yul\":3437:3443   */\n      dup3\n        /* \"#utility.yul\":3426:3435   */\n      dup6\n        /* \"#utility.yul\":3422:3444   */\n      add\n        /* \"#utility.yul\":3401:3454   */\n      tag_281\n      jump\t// in\n    tag_300:\n        /* \"#utility.yul\":3391:3454   */\n      swap2\n      pop\n        /* \"#utility.yul\":3347:3464   */\n      pop\n        /* \"#utility.yul\":3275:3471   */\n      swap3\n      swap2\n      pop\n      pop\n      jump\t// out\n        /* \"#utility.yul\":3477:3761   */\n    tag_216:\n      0x00\n        /* \"#utility.yul\":3596:3598   */\n      0x20\n        /* \"#utility.yul\":3584:3593   */\n      dup3\n        /* \"#utility.yul\":3575:3582   */\n      dup5\n        /* \"#utility.yul\":3571:3594   */\n      sub\n        /* \"#utility.yul\":3567:3599   */\n      slt\n        /* \"#utility.yul\":3564:3566   */\n      iszero\n      tag_302\n      jumpi\n        /* \"#utility.yul\":3612:3613   */\n      0x00\n        /* \"#utility.yul\":3609:3610   */\n      dup1\n        /* \"#utility.yul\":3602:3614   */\n      revert\n        /* \"#utility.yul\":3564:3566   */\n    tag_302:\n        /* \"#utility.yul\":3655:3656   */\n      0x00\n        /* \"#utility.yul\":3680:3744   */\n      tag_303\n        /* \"#utility.yul\":3736:3743   */\n      dup5\n        /* \"#utility.yul\":3727:3733   */\n      dup3\n        /* \"#utility.yul\":3716:3725   */\n      dup6\n        /* \"#utility.yul\":3712:3734   */\n      add\n        /* \"#utility.yul\":3680:3744   */\n      tag_285\n      jump\t// in\n    tag_303:\n        /* \"#utility.yul\":3670:3744   */\n      swap2\n      pop\n        /* \"#utility.yul\":3626:3754   */\n      pop\n        /* \"#utility.yul\":3554:3761   */\n      swap3\n      swap2\n      pop\n      pop\n      jump\t// out\n        /* \"#utility.yul\":3767:4174   */\n    tag_101:\n      0x00\n      dup1\n        /* \"#utility.yul\":3892:3894   */\n      0x40\n        /* \"#utility.yul\":3880:3889   */\n      dup4\n        /* \"#utility.yul\":3871:3878   */\n      dup6\n        /* \"#utility.yul\":3867:3890   */\n      sub\n        /* \"#utility.yul\":3863:3895   */\n      slt\n        /* \"#utility.yul\":3860:3862   */\n      iszero\n      tag_305\n      jumpi\n        /* \"#utility.yul\":3908:3909   */\n      0x00\n        /* \"#utility.yul\":3905:3906   */\n      dup1\n        /* \"#utility.yul\":3898:3910   */\n      revert\n        /* \"#utility.yul\":3860:3862   */\n    tag_305:\n        /* \"#utility.yul\":3951:3952   */\n      0x00\n        /* \"#utility.yul\":3976:4029   */\n      tag_306\n        /* \"#utility.yul\":4021:4028   */\n      dup6\n        /* \"#utility.yul\":4012:4018   */\n      dup3\n        /* \"#utility.yul\":4001:4010   */\n      dup7\n        /* \"#utility.yul\":3997:4019   */\n      add\n        /* \"#utility.yul\":3976:4029   */\n      tag_281\n      jump\t// in\n    tag_306:\n        /* \"#utility.yul\":3966:4029   */\n      swap3\n      pop\n        /* \"#utility.yul\":3922:4039   */\n      pop\n        /* \"#utility.yul\":4078:4080   */\n      0x20\n        /* \"#utility.yul\":4104:4157   */\n      tag_307\n        /* \"#utility.yul\":4149:4156   */\n      dup6\n        /* \"#utility.yul\":4140:4146   */\n      dup3\n        /* \"#utility.yul\":4129:4138   */\n      dup7\n        /* \"#utility.yul\":4125:4147   */\n      add\n        /* \"#utility.yul\":4104:4157   */\n      tag_267\n      jump\t// in\n    tag_307:\n        /* \"#utility.yul\":4094:4157   */\n      swap2\n      pop\n        /* \"#utility.yul\":4049:4167   */\n      pop\n        /* \"#utility.yul\":3850:4174   */\n      swap3\n      pop\n      swap3\n      swap1\n      pop\n      jump\t// out\n        /* \"#utility.yul\":4180:4750   */\n    tag_71:\n      0x00\n      dup1\n        /* \"#utility.yul\":4340:4342   */\n      0x40\n        /* \"#utility.yul\":4328:4337   */\n      dup4\n        /* \"#utility.yul\":4319:4326   */\n      dup6\n        /* \"#utility.yul\":4315:4338   */\n      sub\n        /* \"#utility.yul\":4311:4343   */\n      slt\n        /* \"#utility.yul\":4308:4310   */\n      iszero\n      tag_309\n      jumpi\n        /* \"#utility.yul\":4356:4357   */\n      0x00\n        /* \"#utility.yul\":4353:4354   */\n      dup1\n        /* \"#utility.yul\":4346:4358   */\n      revert\n        /* \"#utility.yul\":4308:4310   */\n    tag_309:\n        /* \"#utility.yul\":4399:4400   */\n      0x00\n        /* \"#utility.yul\":4424:4477   */\n      tag_310\n        /* \"#utility.yul\":4469:4476   */\n      dup6\n        /* \"#utility.yul\":4460:4466   */\n      dup3\n        /* \"#utility.yul\":4449:4458   */\n      dup7\n        /* \"#utility.yul\":4445:4467   */\n      add\n        /* \"#utility.yul\":4424:4477   */\n      tag_281\n      jump\t// in\n    tag_310:\n        /* \"#utility.yul\":4414:4477   */\n      swap3\n      pop\n        /* \"#utility.yul\":4370:4487   */\n      pop\n        /* \"#utility.yul\":4554:4556   */\n      0x20\n        /* \"#utility.yul\":4543:4552   */\n      dup4\n        /* \"#utility.yul\":4539:4557   */\n      add\n        /* \"#utility.yul\":4526:4558   */\n      calldataload\n        /* \"#utility.yul\":4585:4603   */\n      0xffffffffffffffff\n        /* \"#utility.yul\":4577:4583   */\n      dup2\n        /* \"#utility.yul\":4574:4604   */\n      gt\n        /* \"#utility.yul\":4571:4573   */\n      iszero\n      tag_311\n      jumpi\n        /* \"#utility.yul\":4617:4618   */\n      0x00\n        /* \"#utility.yul\":4614:4615   */\n      dup1\n        /* \"#utility.yul\":4607:4619   */\n      revert\n        /* \"#utility.yul\":4571:4573   */\n    tag_311:\n        /* \"#utility.yul\":4645:4733   */\n      tag_312\n        /* \"#utility.yul\":4725:4732   */\n      dup6\n        /* \"#utility.yul\":4716:4722   */\n      dup3\n        /* \"#utility.yul\":4705:4714   */\n      dup7\n        /* \"#utility.yul\":4701:4723   */\n      add\n        /* \"#utility.yul\":4645:4733   */\n      tag_274\n      jump\t// in\n    tag_312:\n        /* \"#utility.yul\":4635:4733   */\n      swap2\n      pop\n        /* \"#utility.yul\":4497:4743   */\n      pop\n        /* \"#utility.yul\":4298:4750   */\n      swap3\n      pop\n      swap3\n      swap1\n      pop\n      jump\t// out\n        /* \"#utility.yul\":4756:5163   */\n    tag_59:\n      0x00\n      dup1\n        /* \"#utility.yul\":4881:4883   */\n      0x40\n        /* \"#utility.yul\":4869:4878   */\n      dup4\n        /* \"#utility.yul\":4860:4867   */\n      dup6\n        /* \"#utility.yul\":4856:4879   */\n      sub\n        /* \"#utility.yul\":4852:4884   */\n      slt\n        /* \"#utility.yul\":4849:4851   */\n      iszero\n      tag_314\n      jumpi\n        /* \"#utility.yul\":4897:4898   */\n      0x00\n        /* \"#utility.yul\":4894:4895   */\n      dup1\n        /* \"#utility.yul\":4887:4899   */\n      revert\n        /* \"#utility.yul\":4849:4851   */\n    tag_314:\n        /* \"#utility.yul\":4940:4941   */\n      0x00\n        /* \"#utility.yul\":4965:5018   */\n      tag_315\n        /* \"#utility.yul\":5010:5017   */\n      dup6\n        /* \"#utility.yul\":5001:5007   */\n      dup3\n        /* \"#utility.yul\":4990:4999   */\n      dup7\n        /* \"#utility.yul\":4986:5008   */\n      add\n        /* \"#utility.yul\":4965:5018   */\n      tag_281\n      jump\t// in\n    tag_315:\n        /* \"#utility.yul\":4955:5018   */\n      swap3\n      pop\n        /* \"#utility.yul\":4911:5028   */\n      pop\n        /* \"#utility.yul\":5067:5069   */\n      0x20\n        /* \"#utility.yul\":5093:5146   */\n      tag_316\n        /* \"#utility.yul\":5138:5145   */\n      dup6\n        /* \"#utility.yul\":5129:5135   */\n      dup3\n        /* \"#utility.yul\":5118:5127   */\n      dup7\n        /* \"#utility.yul\":5114:5136   */\n      add\n        /* \"#utility.yul\":5093:5146   */\n      tag_281\n      jump\t// in\n    tag_316:\n        /* \"#utility.yul\":5083:5146   */\n      swap2\n      pop\n        /* \"#utility.yul\":5038:5156   */\n      pop\n        /* \"#utility.yul\":4839:5163   */\n      swap3\n      pop\n      swap3\n      swap1\n      pop\n      jump\t// out\n        /* \"#utility.yul\":5169:5365   */\n    tag_317:\n      0x00\n        /* \"#utility.yul\":5293:5359   */\n      tag_319\n        /* \"#utility.yul\":5355:5358   */\n      dup4\n        /* \"#utility.yul\":5347:5353   */\n      dup4\n        /* \"#utility.yul\":5293:5359   */\n      tag_320\n      jump\t// in\n    tag_319:\n        /* \"#utility.yul\":5279:5359   */\n      swap1\n      pop\n        /* \"#utility.yul\":5269:5365   */\n      swap3\n      swap2\n      pop\n      pop\n      jump\t// out\n        /* \"#utility.yul\":5371:5623   */\n    tag_321:\n      0x00\n        /* \"#utility.yul\":5523:5617   */\n      tag_323\n        /* \"#utility.yul\":5613:5616   */\n      dup4\n        /* \"#utility.yul\":5605:5611   */\n      dup4\n        /* \"#utility.yul\":5523:5617   */\n      tag_324\n      jump\t// in\n    tag_323:\n        /* \"#utility.yul\":5509:5617   */\n      swap1\n      pop\n        /* \"#utility.yul\":5499:5623   */\n      swap3\n      swap2\n      pop\n      pop\n      jump\t// out\n        /* \"#utility.yul\":5629:5747   */\n    tag_325:\n        /* \"#utility.yul\":5716:5740   */\n      tag_327\n        /* \"#utility.yul\":5734:5739   */\n      dup2\n        /* \"#utility.yul\":5716:5740   */\n      tag_328\n      jump\t// in\n    tag_327:\n        /* \"#utility.yul\":5711:5714   */\n      dup3\n        /* \"#utility.yul\":5704:5741   */\n      mstore\n        /* \"#utility.yul\":5694:5747   */\n      pop\n      pop\n      jump\t// out\n        /* \"#utility.yul\":5781:6772   */\n    tag_329:\n      0x00\n        /* \"#utility.yul\":5949:6013   */\n      tag_331\n        /* \"#utility.yul\":6007:6012   */\n      dup3\n        /* \"#utility.yul\":5949:6013   */\n      tag_332\n      jump\t// in\n    tag_331:\n        /* \"#utility.yul\":6029:6125   */\n      tag_333\n        /* \"#utility.yul\":6118:6124   */\n      dup2\n        /* \"#utility.yul\":6113:6116   */\n      dup6\n        /* \"#utility.yul\":6029:6125   */\n      tag_334\n      jump\t// in\n    tag_333:\n        /* \"#utility.yul\":6022:6125   */\n      swap4\n      pop\n        /* \"#utility.yul\":6151:6154   */\n      dup4\n        /* \"#utility.yul\":6196:6200   */\n      0x20\n        /* \"#utility.yul\":6188:6194   */\n      dup3\n        /* \"#utility.yul\":6184:6201   */\n      mul\n        /* \"#utility.yul\":6179:6182   */\n      dup6\n        /* \"#utility.yul\":6175:6202   */\n      add\n        /* \"#utility.yul\":6226:6292   */\n      tag_335\n        /* \"#utility.yul\":6286:6291   */\n      dup6\n        /* \"#utility.yul\":6226:6292   */\n      tag_336\n      jump\t// in\n    tag_335:\n        /* \"#utility.yul\":6315:6322   */\n      dup1\n        /* \"#utility.yul\":6346:6347   */\n      0x00\n        /* \"#utility.yul\":6331:6727   */\n    tag_337:\n        /* \"#utility.yul\":6356:6362   */\n      dup6\n        /* \"#utility.yul\":6353:6354   */\n      dup2\n        /* \"#utility.yul\":6350:6363   */\n      lt\n        /* \"#utility.yul\":6331:6727   */\n      iszero\n      tag_339\n      jumpi\n        /* \"#utility.yul\":6427:6436   */\n      dup5\n        /* \"#utility.yul\":6421:6425   */\n      dup5\n        /* \"#utility.yul\":6417:6437   */\n      sub\n        /* \"#utility.yul\":6412:6415   */\n      dup10\n        /* \"#utility.yul\":6405:6438   */\n      mstore\n        /* \"#utility.yul\":6478:6484   */\n      dup2\n        /* \"#utility.yul\":6472:6485   */\n      mload\n        /* \"#utility.yul\":6506:6590   */\n      tag_340\n        /* \"#utility.yul\":6585:6589   */\n      dup6\n        /* \"#utility.yul\":6570:6583   */\n      dup3\n        /* \"#utility.yul\":6506:6590   */\n      tag_317\n      jump\t// in\n    tag_340:\n        /* \"#utility.yul\":6498:6590   */\n      swap5\n      pop\n        /* \"#utility.yul\":6613:6683   */\n      tag_341\n        /* \"#utility.yul\":6676:6682   */\n      dup4\n        /* \"#utility.yul\":6613:6683   */\n      tag_342\n      jump\t// in\n    tag_341:\n        /* \"#utility.yul\":6603:6683   */\n      swap3\n      pop\n        /* \"#utility.yul\":6712:6716   */\n      0x20\n        /* \"#utility.yul\":6707:6710   */\n      dup11\n        /* \"#utility.yul\":6703:6717   */\n      add\n        /* \"#utility.yul\":6696:6717   */\n      swap10\n      pop\n        /* \"#utility.yul\":6391:6727   */\n      pop\n        /* \"#utility.yul\":6378:6379   */\n      0x01\n        /* \"#utility.yul\":6375:6376   */\n      dup2\n        /* \"#utility.yul\":6371:6380   */\n      add\n        /* \"#utility.yul\":6366:6380   */\n      swap1\n      pop\n        /* \"#utility.yul\":6331:6727   */\n      jump(tag_337)\n    tag_339:\n        /* \"#utility.yul\":6335:6349   */\n      pop\n        /* \"#utility.yul\":6743:6747   */\n      dup3\n        /* \"#utility.yul\":6736:6747   */\n      swap8\n      pop\n        /* \"#utility.yul\":6763:6766   */\n      dup8\n        /* \"#utility.yul\":6756:6766   */\n      swap6\n      pop\n        /* \"#utility.yul\":5925:6772   */\n      pop\n      pop\n      pop\n      pop\n      pop\n      swap3\n      swap2\n      pop\n      pop\n      jump\t// out\n        /* \"#utility.yul\":6838:7941   */\n    tag_343:\n      0x00\n        /* \"#utility.yul\":7034:7112   */\n      tag_345\n        /* \"#utility.yul\":7106:7111   */\n      dup3\n        /* \"#utility.yul\":7034:7112   */\n      tag_346\n      jump\t// in\n    tag_345:\n        /* \"#utility.yul\":7128:7238   */\n      tag_347\n        /* \"#utility.yul\":7231:7237   */\n      dup2\n        /* \"#utility.yul\":7226:7229   */\n      dup6\n        /* \"#utility.yul\":7128:7238   */\n      tag_348\n      jump\t// in\n    tag_347:\n        /* \"#utility.yul\":7121:7238   */\n      swap4\n      pop\n        /* \"#utility.yul\":7264:7267   */\n      dup4\n        /* \"#utility.yul\":7309:7313   */\n      0x20\n        /* \"#utility.yul\":7301:7307   */\n      dup3\n        /* \"#utility.yul\":7297:7314   */\n      mul\n        /* \"#utility.yul\":7292:7295   */\n      dup6\n        /* \"#utility.yul\":7288:7315   */\n      add\n        /* \"#utility.yul\":7339:7419   */\n      tag_349\n        /* \"#utility.yul\":7413:7418   */\n      dup6\n        /* \"#utility.yul\":7339:7419   */\n      tag_350\n      jump\t// in\n    tag_349:\n        /* \"#utility.yul\":7442:7449   */\n      dup1\n        /* \"#utility.yul\":7473:7474   */\n      0x00\n        /* \"#utility.yul\":7458:7896   */\n    tag_351:\n        /* \"#utility.yul\":7483:7489   */\n      dup6\n        /* \"#utility.yul\":7480:7481   */\n      dup2\n        /* \"#utility.yul\":7477:7490   */\n      lt\n        /* \"#utility.yul\":7458:7896   */\n      iszero\n      tag_353\n      jumpi\n        /* \"#utility.yul\":7554:7563   */\n      dup5\n        /* \"#utility.yul\":7548:7552   */\n      dup5\n        /* \"#utility.yul\":7544:7564   */\n      sub\n        /* \"#utility.yul\":7539:7542   */\n      dup10\n        /* \"#utility.yul\":7532:7565   */\n      mstore\n        /* \"#utility.yul\":7605:7611   */\n      dup2\n        /* \"#utility.yul\":7599:7612   */\n      mload\n        /* \"#utility.yul\":7633:7745   */\n      tag_354\n        /* \"#utility.yul\":7740:7744   */\n      dup6\n        /* \"#utility.yul\":7725:7738   */\n      dup3\n        /* \"#utility.yul\":7633:7745   */\n      tag_321\n      jump\t// in\n    tag_354:\n        /* \"#utility.yul\":7625:7745   */\n      swap5\n      pop\n        /* \"#utility.yul\":7768:7852   */\n      tag_355\n        /* \"#utility.yul\":7845:7851   */\n      dup4\n        /* \"#utility.yul\":7768:7852   */\n      tag_356\n      jump\t// in\n    tag_355:\n        /* \"#utility.yul\":7758:7852   */\n      swap3\n      pop\n        /* \"#utility.yul\":7881:7885   */\n      0x20\n        /* \"#utility.yul\":7876:7879   */\n      dup11\n        /* \"#utility.yul\":7872:7886   */\n      add\n        /* \"#utility.yul\":7865:7886   */\n      swap10\n      pop\n        /* \"#utility.yul\":7518:7896   */\n      pop\n        /* \"#utility.yul\":7505:7506   */\n      0x01\n        /* \"#utility.yul\":7502:7503   */\n      dup2\n        /* \"#utility.yul\":7498:7507   */\n      add\n        /* \"#utility.yul\":7493:7507   */\n      swap1\n      pop\n        /* \"#utility.yul\":7458:7896   */\n      jump(tag_351)\n    tag_353:\n        /* \"#utility.yul\":7462:7476   */\n      pop\n        /* \"#utility.yul\":7912:7916   */\n      dup3\n        /* \"#utility.yul\":7905:7916   */\n      swap8\n      pop\n        /* \"#utility.yul\":7932:7935   */\n      dup8\n        /* \"#utility.yul\":7925:7935   */\n      swap6\n      pop\n        /* \"#utility.yul\":7010:7941   */\n      pop\n      pop\n      pop\n      pop\n      pop\n      swap3\n      swap2\n      pop\n      pop\n      jump\t// out\n        /* \"#utility.yul\":7947:8056   */\n    tag_357:\n        /* \"#utility.yul\":8028:8049   */\n      tag_359\n        /* \"#utility.yul\":8043:8048   */\n      dup2\n        /* \"#utility.yul\":8028:8049   */\n      tag_360\n      jump\t// in\n    tag_359:\n        /* \"#utility.yul\":8023:8026   */\n      dup3\n        /* \"#utility.yul\":8016:8050   */\n      mstore\n        /* \"#utility.yul\":8006:8056   */\n      pop\n      pop\n      jump\t// out\n        /* \"#utility.yul\":8062:8221   */\n    tag_361:\n        /* \"#utility.yul\":8163:8214   */\n      tag_363\n        /* \"#utility.yul\":8208:8213   */\n      dup2\n        /* \"#utility.yul\":8163:8214   */\n      tag_364\n      jump\t// in\n    tag_363:\n        /* \"#utility.yul\":8158:8161   */\n      dup3\n        /* \"#utility.yul\":8151:8215   */\n      mstore\n        /* \"#utility.yul\":8141:8221   */\n      pop\n      pop\n      jump\t// out\n        /* \"#utility.yul\":8227:8571   */\n    tag_320:\n      0x00\n        /* \"#utility.yul\":8333:8372   */\n      tag_366\n        /* \"#utility.yul\":8366:8371   */\n      dup3\n        /* \"#utility.yul\":8333:8372   */\n      tag_367\n      jump\t// in\n    tag_366:\n        /* \"#utility.yul\":8388:8449   */\n      tag_368\n        /* \"#utility.yul\":8442:8448   */\n      dup2\n        /* \"#utility.yul\":8437:8440   */\n      dup6\n        /* \"#utility.yul\":8388:8449   */\n      tag_369\n      jump\t// in\n    tag_368:\n        /* \"#utility.yul\":8381:8449   */\n      swap4\n      pop\n        /* \"#utility.yul\":8458:8510   */\n      tag_370\n        /* \"#utility.yul\":8503:8509   */\n      dup2\n        /* \"#utility.yul\":8498:8501   */\n      dup6\n        /* \"#utility.yul\":8491:8495   */\n      0x20\n        /* \"#utility.yul\":8484:8489   */\n      dup7\n        /* \"#utility.yul\":8480:8496   */\n      add\n        /* \"#utility.yul\":8458:8510   */\n      tag_371\n      jump\t// in\n    tag_370:\n        /* \"#utility.yul\":8535:8564   */\n      tag_372\n        /* \"#utility.yul\":8557:8563   */\n      dup2\n        /* \"#utility.yul\":8535:8564   */\n      tag_373\n      jump\t// in\n    tag_372:\n        /* \"#utility.yul\":8530:8533   */\n      dup5\n        /* \"#utility.yul\":8526:8565   */\n      add\n        /* \"#utility.yul\":8519:8565   */\n      swap2\n      pop\n        /* \"#utility.yul\":8309:8571   */\n      pop\n      swap3\n      swap2\n      pop\n      pop\n      jump\t// out\n        /* \"#utility.yul\":8577:8941   */\n    tag_374:\n      0x00\n        /* \"#utility.yul\":8693:8732   */\n      tag_376\n        /* \"#utility.yul\":8726:8731   */\n      dup3\n        /* \"#utility.yul\":8693:8732   */\n      tag_367\n      jump\t// in\n    tag_376:\n        /* \"#utility.yul\":8748:8819   */\n      tag_377\n        /* \"#utility.yul\":8812:8818   */\n      dup2\n        /* \"#utility.yul\":8807:8810   */\n      dup6\n        /* \"#utility.yul\":8748:8819   */\n      tag_378\n      jump\t// in\n    tag_377:\n        /* \"#utility.yul\":8741:8819   */\n      swap4\n      pop\n        /* \"#utility.yul\":8828:8880   */\n      tag_379\n        /* \"#utility.yul\":8873:8879   */\n      dup2\n        /* \"#utility.yul\":8868:8871   */\n      dup6\n        /* \"#utility.yul\":8861:8865   */\n      0x20\n        /* \"#utility.yul\":8854:8859   */\n      dup7\n        /* \"#utility.yul\":8850:8866   */\n      add\n        /* \"#utility.yul\":8828:8880   */\n      tag_371\n      jump\t// in\n    tag_379:\n        /* \"#utility.yul\":8905:8934   */\n      tag_380\n        /* \"#utility.yul\":8927:8933   */\n      dup2\n        /* \"#utility.yul\":8905:8934   */\n      tag_373\n      jump\t// in\n    tag_380:\n        /* \"#utility.yul\":8900:8903   */\n      dup5\n        /* \"#utility.yul\":8896:8935   */\n      add\n        /* \"#utility.yul\":8889:8935   */\n      swap2\n      pop\n        /* \"#utility.yul\":8669:8941   */\n      pop\n      swap3\n      swap2\n      pop\n      pop\n      jump\t// out\n        /* \"#utility.yul\":9003:9602   */\n    tag_324:\n      0x00\n        /* \"#utility.yul\":9146:9150   */\n      0x40\n        /* \"#utility.yul\":9141:9144   */\n      dup4\n        /* \"#utility.yul\":9137:9151   */\n      add\n        /* \"#utility.yul\":9233:9237   */\n      0x00\n        /* \"#utility.yul\":9226:9231   */\n      dup4\n        /* \"#utility.yul\":9222:9238   */\n      add\n        /* \"#utility.yul\":9216:9239   */\n      mload\n        /* \"#utility.yul\":9286:9289   */\n      dup5\n        /* \"#utility.yul\":9280:9284   */\n      dup3\n        /* \"#utility.yul\":9276:9290   */\n      sub\n        /* \"#utility.yul\":9269:9273   */\n      0x00\n        /* \"#utility.yul\":9264:9267   */\n      dup7\n        /* \"#utility.yul\":9260:9274   */\n      add\n        /* \"#utility.yul\":9253:9291   */\n      mstore\n        /* \"#utility.yul\":9312:9385   */\n      tag_382\n        /* \"#utility.yul\":9380:9384   */\n      dup3\n        /* \"#utility.yul\":9366:9378   */\n      dup3\n        /* \"#utility.yul\":9312:9385   */\n      tag_320\n      jump\t// in\n    tag_382:\n        /* \"#utility.yul\":9304:9385   */\n      swap2\n      pop\n        /* \"#utility.yul\":9161:9396   */\n      pop\n        /* \"#utility.yul\":9483:9487   */\n      0x20\n        /* \"#utility.yul\":9476:9481   */\n      dup4\n        /* \"#utility.yul\":9472:9488   */\n      add\n        /* \"#utility.yul\":9466:9489   */\n      mload\n        /* \"#utility.yul\":9502:9565   */\n      tag_383\n        /* \"#utility.yul\":9559:9563   */\n      0x20\n        /* \"#utility.yul\":9554:9557   */\n      dup7\n        /* \"#utility.yul\":9550:9564   */\n      add\n        /* \"#utility.yul\":9536:9548   */\n      dup3\n        /* \"#utility.yul\":9502:9565   */\n      tag_384\n      jump\t// in\n    tag_383:\n        /* \"#utility.yul\":9406:9575   */\n      pop\n        /* \"#utility.yul\":9592:9596   */\n      dup1\n        /* \"#utility.yul\":9585:9596   */\n      swap2\n      pop\n        /* \"#utility.yul\":9115:9602   */\n      pop\n      swap3\n      swap2\n      pop\n      pop\n      jump\t// out\n        /* \"#utility.yul\":9664:10273   */\n    tag_385:\n      0x00\n        /* \"#utility.yul\":9817:9821   */\n      0x40\n        /* \"#utility.yul\":9812:9815   */\n      dup4\n        /* \"#utility.yul\":9808:9822   */\n      add\n        /* \"#utility.yul\":9904:9908   */\n      0x00\n        /* \"#utility.yul\":9897:9902   */\n      dup4\n        /* \"#utility.yul\":9893:9909   */\n      add\n        /* \"#utility.yul\":9887:9910   */\n      mload\n        /* \"#utility.yul\":9957:9960   */\n      dup5\n        /* \"#utility.yul\":9951:9955   */\n      dup3\n        /* \"#utility.yul\":9947:9961   */\n      sub\n        /* \"#utility.yul\":9940:9944   */\n      0x00\n        /* \"#utility.yul\":9935:9938   */\n      dup7\n        /* \"#utility.yul\":9931:9945   */\n      add\n        /* \"#utility.yul\":9924:9962   */\n      mstore\n        /* \"#utility.yul\":9983:10056   */\n      tag_387\n        /* \"#utility.yul\":10051:10055   */\n      dup3\n        /* \"#utility.yul\":10037:10049   */\n      dup3\n        /* \"#utility.yul\":9983:10056   */\n      tag_320\n      jump\t// in\n    tag_387:\n        /* \"#utility.yul\":9975:10056   */\n      swap2\n      pop\n        /* \"#utility.yul\":9832:10067   */\n      pop\n        /* \"#utility.yul\":10154:10158   */\n      0x20\n        /* \"#utility.yul\":10147:10152   */\n      dup4\n        /* \"#utility.yul\":10143:10159   */\n      add\n        /* \"#utility.yul\":10137:10160   */\n      mload\n        /* \"#utility.yul\":10173:10236   */\n      tag_388\n        /* \"#utility.yul\":10230:10234   */\n      0x20\n        /* \"#utility.yul\":10225:10228   */\n      dup7\n        /* \"#utility.yul\":10221:10235   */\n      add\n        /* \"#utility.yul\":10207:10219   */\n      dup3\n        /* \"#utility.yul\":10173:10236   */\n      tag_384\n      jump\t// in\n    tag_388:\n        /* \"#utility.yul\":10077:10246   */\n      pop\n        /* \"#utility.yul\":10263:10267   */\n      dup1\n        /* \"#utility.yul\":10256:10267   */\n      swap2\n      pop\n        /* \"#utility.yul\":9786:10273   */\n      pop\n      swap3\n      swap2\n      pop\n      pop\n      jump\t// out\n        /* \"#utility.yul\":10279:10387   */\n    tag_384:\n        /* \"#utility.yul\":10356:10380   */\n      tag_390\n        /* \"#utility.yul\":10374:10379   */\n      dup2\n        /* \"#utility.yul\":10356:10380   */\n      tag_391\n      jump\t// in\n    tag_390:\n        /* \"#utility.yul\":10351:10354   */\n      dup3\n        /* \"#utility.yul\":10344:10381   */\n      mstore\n        /* \"#utility.yul\":10334:10387   */\n      pop\n      pop\n      jump\t// out\n        /* \"#utility.yul\":10393:10511   */\n    tag_392:\n        /* \"#utility.yul\":10480:10504   */\n      tag_394\n        /* \"#utility.yul\":10498:10503   */\n      dup2\n        /* \"#utility.yul\":10480:10504   */\n      tag_391\n      jump\t// in\n    tag_394:\n        /* \"#utility.yul\":10475:10478   */\n      dup3\n        /* \"#utility.yul\":10468:10505   */\n      mstore\n        /* \"#utility.yul\":10458:10511   */\n      pop\n      pop\n      jump\t// out\n        /* \"#utility.yul\":10517:10739   */\n    tag_46:\n      0x00\n        /* \"#utility.yul\":10648:10650   */\n      0x20\n        /* \"#utility.yul\":10637:10646   */\n      dup3\n        /* \"#utility.yul\":10633:10651   */\n      add\n        /* \"#utility.yul\":10625:10651   */\n      swap1\n      pop\n        /* \"#utility.yul\":10661:10732   */\n      tag_396\n        /* \"#utility.yul\":10729:10730   */\n      0x00\n        /* \"#utility.yul\":10718:10727   */\n      dup4\n        /* \"#utility.yul\":10714:10731   */\n      add\n        /* \"#utility.yul\":10705:10711   */\n      dup5\n        /* \"#utility.yul\":10661:10732   */\n      tag_325\n      jump\t// in\n    tag_396:\n        /* \"#utility.yul\":10615:10739   */\n      swap3\n      swap2\n      pop\n      pop\n      jump\t// out\n        /* \"#utility.yul\":10745:11158   */\n    tag_174:\n      0x00\n        /* \"#utility.yul\":10946:10948   */\n      0x20\n        /* \"#utility.yul\":10935:10944   */\n      dup3\n        /* \"#utility.yul\":10931:10949   */\n      add\n        /* \"#utility.yul\":10923:10949   */\n      swap1\n      pop\n        /* \"#utility.yul\":10995:11004   */\n      dup2\n        /* \"#utility.yul\":10989:10993   */\n      dup2\n        /* \"#utility.yul\":10985:11005   */\n      sub\n        /* \"#utility.yul\":10981:10982   */\n      0x00\n        /* \"#utility.yul\":10970:10979   */\n      dup4\n        /* \"#utility.yul\":10966:10983   */\n      add\n        /* \"#utility.yul\":10959:11006   */\n      mstore\n        /* \"#utility.yul\":11023:11151   */\n      tag_398\n        /* \"#utility.yul\":11146:11150   */\n      dup2\n        /* \"#utility.yul\":11137:11143   */\n      dup5\n        /* \"#utility.yul\":11023:11151   */\n      tag_329\n      jump\t// in\n    tag_398:\n        /* \"#utility.yul\":11015:11151   */\n      swap1\n      pop\n        /* \"#utility.yul\":10913:11158   */\n      swap3\n      swap2\n      pop\n      pop\n      jump\t// out\n        /* \"#utility.yul\":11164:11633   */\n    tag_56:\n      0x00\n        /* \"#utility.yul\":11393:11395   */\n      0x20\n        /* \"#utility.yul\":11382:11391   */\n      dup3\n        /* \"#utility.yul\":11378:11396   */\n      add\n        /* \"#utility.yul\":11370:11396   */\n      swap1\n      pop\n        /* \"#utility.yul\":11442:11451   */\n      dup2\n        /* \"#utility.yul\":11436:11440   */\n      dup2\n        /* \"#utility.yul\":11432:11452   */\n      sub\n        /* \"#utility.yul\":11428:11429   */\n      0x00\n        /* \"#utility.yul\":11417:11426   */\n      dup4\n        /* \"#utility.yul\":11413:11430   */\n      add\n        /* \"#utility.yul\":11406:11453   */\n      mstore\n        /* \"#utility.yul\":11470:11626   */\n      tag_400\n        /* \"#utility.yul\":11621:11625   */\n      dup2\n        /* \"#utility.yul\":11612:11618   */\n      dup5\n        /* \"#utility.yul\":11470:11626   */\n      tag_343\n      jump\t// in\n    tag_400:\n        /* \"#utility.yul\":11462:11626   */\n      swap1\n      pop\n        /* \"#utility.yul\":11360:11633   */\n      swap3\n      swap2\n      pop\n      pop\n      jump\t// out\n        /* \"#utility.yul\":11639:11889   */\n    tag_65:\n      0x00\n        /* \"#utility.yul\":11784:11786   */\n      0x20\n        /* \"#utility.yul\":11773:11782   */\n      dup3\n        /* \"#utility.yul\":11769:11787   */\n      add\n        /* \"#utility.yul\":11761:11787   */\n      swap1\n      pop\n        /* \"#utility.yul\":11797:11882   */\n      tag_402\n        /* \"#utility.yul\":11879:11880   */\n      0x00\n        /* \"#utility.yul\":11868:11877   */\n      dup4\n        /* \"#utility.yul\":11864:11881   */\n      add\n        /* \"#utility.yul\":11855:11861   */\n      dup5\n        /* \"#utility.yul\":11797:11882   */\n      tag_361\n      jump\t// in\n    tag_402:\n        /* \"#utility.yul\":11751:11889   */\n      swap3\n      swap2\n      pop\n      pop\n      jump\t// out\n        /* \"#utility.yul\":11895:12208   */\n    tag_110:\n      0x00\n        /* \"#utility.yul\":12046:12048   */\n      0x20\n        /* \"#utility.yul\":12035:12044   */\n      dup3\n        /* \"#utility.yul\":12031:12049   */\n      add\n        /* \"#utility.yul\":12023:12049   */\n      swap1\n      pop\n        /* \"#utility.yul\":12095:12104   */\n      dup2\n        /* \"#utility.yul\":12089:12093   */\n      dup2\n        /* \"#utility.yul\":12085:12105   */\n      sub\n        /* \"#utility.yul\":12081:12082   */\n      0x00\n        /* \"#utility.yul\":12070:12079   */\n      dup4\n        /* \"#utility.yul\":12066:12083   */\n      add\n        /* \"#utility.yul\":12059:12106   */\n      mstore\n        /* \"#utility.yul\":12123:12201   */\n      tag_404\n        /* \"#utility.yul\":12196:12200   */\n      dup2\n        /* \"#utility.yul\":12187:12193   */\n      dup5\n        /* \"#utility.yul\":12123:12201   */\n      tag_374\n      jump\t// in\n    tag_404:\n        /* \"#utility.yul\":12115:12201   */\n      swap1\n      pop\n        /* \"#utility.yul\":12013:12208   */\n      swap3\n      swap2\n      pop\n      pop\n      jump\t// out\n        /* \"#utility.yul\":12214:12637   */\n    tag_37:\n      0x00\n        /* \"#utility.yul\":12393:12395   */\n      0x40\n        /* \"#utility.yul\":12382:12391   */\n      dup3\n        /* \"#utility.yul\":12378:12396   */\n      add\n        /* \"#utility.yul\":12370:12396   */\n      swap1\n      pop\n        /* \"#utility.yul\":12442:12451   */\n      dup2\n        /* \"#utility.yul\":12436:12440   */\n      dup2\n        /* \"#utility.yul\":12432:12452   */\n      sub\n        /* \"#utility.yul\":12428:12429   */\n      0x00\n        /* \"#utility.yul\":12417:12426   */\n      dup4\n        /* \"#utility.yul\":12413:12430   */\n      add\n        /* \"#utility.yul\":12406:12453   */\n      mstore\n        /* \"#utility.yul\":12470:12548   */\n      tag_406\n        /* \"#utility.yul\":12543:12547   */\n      dup2\n        /* \"#utility.yul\":12534:12540   */\n      dup6\n        /* \"#utility.yul\":12470:12548   */\n      tag_374\n      jump\t// in\n    tag_406:\n        /* \"#utility.yul\":12462:12548   */\n      swap1\n      pop\n        /* \"#utility.yul\":12558:12630   */\n      tag_407\n        /* \"#utility.yul\":12626:12628   */\n      0x20\n        /* \"#utility.yul\":12615:12624   */\n      dup4\n        /* \"#utility.yul\":12611:12629   */\n      add\n        /* \"#utility.yul\":12602:12608   */\n      dup5\n        /* \"#utility.yul\":12558:12630   */\n      tag_392\n      jump\t// in\n    tag_407:\n        /* \"#utility.yul\":12360:12637   */\n      swap4\n      swap3\n      pop\n      pop\n      pop\n      jump\t// out\n        /* \"#utility.yul\":12643:13012   */\n    tag_115:\n      0x00\n        /* \"#utility.yul\":12822:12824   */\n      0x20\n        /* \"#utility.yul\":12811:12820   */\n      dup3\n        /* \"#utility.yul\":12807:12825   */\n      add\n        /* \"#utility.yul\":12799:12825   */\n      swap1\n      pop\n        /* \"#utility.yul\":12871:12880   */\n      dup2\n        /* \"#utility.yul\":12865:12869   */\n      dup2\n        /* \"#utility.yul\":12861:12881   */\n      sub\n        /* \"#utility.yul\":12857:12858   */\n      0x00\n        /* \"#utility.yul\":12846:12855   */\n      dup4\n        /* \"#utility.yul\":12842:12859   */\n      add\n        /* \"#utility.yul\":12835:12882   */\n      mstore\n        /* \"#utility.yul\":12899:13005   */\n      tag_409\n        /* \"#utility.yul\":13000:13004   */\n      dup2\n        /* \"#utility.yul\":12991:12997   */\n      dup5\n        /* \"#utility.yul\":12899:13005   */\n      tag_385\n      jump\t// in\n    tag_409:\n        /* \"#utility.yul\":12891:13005   */\n      swap1\n      pop\n        /* \"#utility.yul\":12789:13012   */\n      swap3\n      swap2\n      pop\n      pop\n      jump\t// out\n        /* \"#utility.yul\":13018:13240   */\n    tag_41:\n      0x00\n        /* \"#utility.yul\":13149:13151   */\n      0x20\n        /* \"#utility.yul\":13138:13147   */\n      dup3\n        /* \"#utility.yul\":13134:13152   */\n      add\n        /* \"#utility.yul\":13126:13152   */\n      swap1\n      pop\n        /* \"#utility.yul\":13162:13233   */\n      tag_411\n        /* \"#utility.yul\":13230:13231   */\n      0x00\n        /* \"#utility.yul\":13219:13228   */\n      dup4\n        /* \"#utility.yul\":13215:13232   */\n      add\n        /* \"#utility.yul\":13206:13212   */\n      dup5\n        /* \"#utility.yul\":13162:13233   */\n      tag_392\n      jump\t// in\n    tag_411:\n        /* \"#utility.yul\":13116:13240   */\n      swap3\n      swap2\n      pop\n      pop\n      jump\t// out\n        /* \"#utility.yul\":13246:13787   */\n    tag_95:\n      0x00\n        /* \"#utility.yul\":13455:13458   */\n      0x80\n        /* \"#utility.yul\":13444:13453   */\n      dup3\n        /* \"#utility.yul\":13440:13459   */\n      add\n        /* \"#utility.yul\":13432:13459   */\n      swap1\n      pop\n        /* \"#utility.yul\":13469:13540   */\n      tag_413\n        /* \"#utility.yul\":13537:13538   */\n      0x00\n        /* \"#utility.yul\":13526:13535   */\n      dup4\n        /* \"#utility.yul\":13522:13539   */\n      add\n        /* \"#utility.yul\":13513:13519   */\n      dup8\n        /* \"#utility.yul\":13469:13540   */\n      tag_392\n      jump\t// in\n    tag_413:\n        /* \"#utility.yul\":13550:13616   */\n      tag_414\n        /* \"#utility.yul\":13612:13614   */\n      0x20\n        /* \"#utility.yul\":13601:13610   */\n      dup4\n        /* \"#utility.yul\":13597:13615   */\n      add\n        /* \"#utility.yul\":13588:13594   */\n      dup7\n        /* \"#utility.yul\":13550:13616   */\n      tag_357\n      jump\t// in\n    tag_414:\n        /* \"#utility.yul\":13626:13698   */\n      tag_415\n        /* \"#utility.yul\":13694:13696   */\n      0x40\n        /* \"#utility.yul\":13683:13692   */\n      dup4\n        /* \"#utility.yul\":13679:13697   */\n      add\n        /* \"#utility.yul\":13670:13676   */\n      dup6\n        /* \"#utility.yul\":13626:13698   */\n      tag_325\n      jump\t// in\n    tag_415:\n        /* \"#utility.yul\":13708:13780   */\n      tag_416\n        /* \"#utility.yul\":13776:13778   */\n      0x60\n        /* \"#utility.yul\":13765:13774   */\n      dup4\n        /* \"#utility.yul\":13761:13779   */\n      add\n        /* \"#utility.yul\":13752:13758   */\n      dup5\n        /* \"#utility.yul\":13708:13780   */\n      tag_392\n      jump\t// in\n    tag_416:\n        /* \"#utility.yul\":13422:13787   */\n      swap6\n      swap5\n      pop\n      pop\n      pop\n      pop\n      pop\n      jump\t// out\n        /* \"#utility.yul\":13793:14076   */\n    tag_253:\n      0x00\n        /* \"#utility.yul\":13859:13861   */\n      0x40\n        /* \"#utility.yul\":13853:13862   */\n      mload\n        /* \"#utility.yul\":13843:13862   */\n      swap1\n      pop\n        /* \"#utility.yul\":13901:13905   */\n      dup2\n        /* \"#utility.yul\":13893:13899   */\n      dup2\n        /* \"#utility.yul\":13889:13906   */\n      add\n        /* \"#utility.yul\":14008:14014   */\n      dup2\n        /* \"#utility.yul\":13996:14006   */\n      dup2\n        /* \"#utility.yul\":13993:14015   */\n      lt\n        /* \"#utility.yul\":13972:13990   */\n      0xffffffffffffffff\n        /* \"#utility.yul\":13960:13970   */\n      dup3\n        /* \"#utility.yul\":13957:13991   */\n      gt\n        /* \"#utility.yul\":13954:14016   */\n      or\n        /* \"#utility.yul\":13951:13953   */\n      iszero\n      tag_418\n      jumpi\n        /* \"#utility.yul\":14019:14037   */\n      tag_419\n      tag_420\n      jump\t// in\n    tag_419:\n        /* \"#utility.yul\":13951:13953   */\n    tag_418:\n        /* \"#utility.yul\":14059:14069   */\n      dup1\n        /* \"#utility.yul\":14055:14057   */\n      0x40\n        /* \"#utility.yul\":14048:14070   */\n      mstore\n        /* \"#utility.yul\":13833:14076   */\n      pop\n      swap2\n      swap1\n      pop\n      jump\t// out\n        /* \"#utility.yul\":14082:14403   */\n    tag_252:\n      0x00\n        /* \"#utility.yul\":14259:14277   */\n      0xffffffffffffffff\n        /* \"#utility.yul\":14251:14257   */\n      dup3\n        /* \"#utility.yul\":14248:14278   */\n      gt\n        /* \"#utility.yul\":14245:14247   */\n      iszero\n      tag_422\n      jumpi\n        /* \"#utility.yul\":14281:14299   */\n      tag_423\n      tag_420\n      jump\t// in\n    tag_423:\n        /* \"#utility.yul\":14245:14247   */\n    tag_422:\n        /* \"#utility.yul\":14331:14335   */\n      0x20\n        /* \"#utility.yul\":14323:14329   */\n      dup3\n        /* \"#utility.yul\":14319:14336   */\n      mul\n        /* \"#utility.yul\":14311:14336   */\n      swap1\n      pop\n        /* \"#utility.yul\":14391:14395   */\n      0x20\n        /* \"#utility.yul\":14385:14389   */\n      dup2\n        /* \"#utility.yul\":14381:14396   */\n      add\n        /* \"#utility.yul\":14373:14396   */\n      swap1\n      pop\n        /* \"#utility.yul\":14174:14403   */\n      swap2\n      swap1\n      pop\n      jump\t// out\n        /* \"#utility.yul\":14409:14741   */\n    tag_263:\n      0x00\n        /* \"#utility.yul\":14561:14579   */\n      0xffffffffffffffff\n        /* \"#utility.yul\":14553:14559   */\n      dup3\n        /* \"#utility.yul\":14550:14580   */\n      gt\n        /* \"#utility.yul\":14547:14549   */\n      iszero\n      tag_425\n      jumpi\n        /* \"#utility.yul\":14583:14601   */\n      tag_426\n      tag_420\n      jump\t// in\n    tag_426:\n        /* \"#utility.yul\":14547:14549   */\n    tag_425:\n        /* \"#utility.yul\":14668:14672   */\n      0x1f\n        /* \"#utility.yul\":14664:14673   */\n      not\n        /* \"#utility.yul\":14657:14661   */\n      0x1f\n        /* \"#utility.yul\":14649:14655   */\n      dup4\n        /* \"#utility.yul\":14645:14662   */\n      add\n        /* \"#utility.yul\":14641:14674   */\n      and\n        /* \"#utility.yul\":14633:14674   */\n      swap1\n      pop\n        /* \"#utility.yul\":14729:14733   */\n      0x20\n        /* \"#utility.yul\":14723:14727   */\n      dup2\n        /* \"#utility.yul\":14719:14734   */\n      add\n        /* \"#utility.yul\":14711:14734   */\n      swap1\n      pop\n        /* \"#utility.yul\":14476:14741   */\n      swap2\n      swap1\n      pop\n      jump\t// out\n        /* \"#utility.yul\":14747:14889   */\n    tag_336:\n      0x00\n        /* \"#utility.yul\":14847:14850   */\n      dup2\n        /* \"#utility.yul\":14839:14850   */\n      swap1\n      pop\n        /* \"#utility.yul\":14877:14881   */\n      0x20\n        /* \"#utility.yul\":14872:14875   */\n      dup3\n        /* \"#utility.yul\":14868:14882   */\n      add\n        /* \"#utility.yul\":14860:14882   */\n      swap1\n      pop\n        /* \"#utility.yul\":14829:14889   */\n      swap2\n      swap1\n      pop\n      jump\t// out\n        /* \"#utility.yul\":14895:15051   */\n    tag_350:\n      0x00\n        /* \"#utility.yul\":15009:15012   */\n      dup2\n        /* \"#utility.yul\":15001:15012   */\n      swap1\n      pop\n        /* \"#utility.yul\":15039:15043   */\n      0x20\n        /* \"#utility.yul\":15034:15037   */\n      dup3\n        /* \"#utility.yul\":15030:15044   */\n      add\n        /* \"#utility.yul\":15022:15044   */\n      swap1\n      pop\n        /* \"#utility.yul\":14991:15051   */\n      swap2\n      swap1\n      pop\n      jump\t// out\n        /* \"#utility.yul\":15057:15181   */\n    tag_332:\n      0x00\n        /* \"#utility.yul\":15168:15173   */\n      dup2\n        /* \"#utility.yul\":15162:15174   */\n      mload\n        /* \"#utility.yul\":15152:15174   */\n      swap1\n      pop\n        /* \"#utility.yul\":15141:15181   */\n      swap2\n      swap1\n      pop\n      jump\t// out\n        /* \"#utility.yul\":15187:15325   */\n    tag_346:\n      0x00\n        /* \"#utility.yul\":15312:15317   */\n      dup2\n        /* \"#utility.yul\":15306:15318   */\n      mload\n        /* \"#utility.yul\":15296:15318   */\n      swap1\n      pop\n        /* \"#utility.yul\":15285:15325   */\n      swap2\n      swap1\n      pop\n      jump\t// out\n        /* \"#utility.yul\":15331:15430   */\n    tag_367:\n      0x00\n        /* \"#utility.yul\":15417:15422   */\n      dup2\n        /* \"#utility.yul\":15411:15423   */\n      mload\n        /* \"#utility.yul\":15401:15423   */\n      swap1\n      pop\n        /* \"#utility.yul\":15390:15430   */\n      swap2\n      swap1\n      pop\n      jump\t// out\n        /* \"#utility.yul\":15436:15559   */\n    tag_342:\n      0x00\n        /* \"#utility.yul\":15548:15552   */\n      0x20\n        /* \"#utility.yul\":15543:15546   */\n      dup3\n        /* \"#utility.yul\":15539:15553   */\n      add\n        /* \"#utility.yul\":15531:15553   */\n      swap1\n      pop\n        /* \"#utility.yul\":15521:15559   */\n      swap2\n      swap1\n      pop\n      jump\t// out\n        /* \"#utility.yul\":15565:15702   */\n    tag_356:\n      0x00\n        /* \"#utility.yul\":15691:15695   */\n      0x20\n        /* \"#utility.yul\":15686:15689   */\n      dup3\n        /* \"#utility.yul\":15682:15696   */\n      add\n        /* \"#utility.yul\":15674:15696   */\n      swap1\n      pop\n        /* \"#utility.yul\":15664:15702   */\n      swap2\n      swap1\n      pop\n      jump\t// out\n        /* \"#utility.yul\":15708:15902   */\n    tag_334:\n      0x00\n        /* \"#utility.yul\":15851:15857   */\n      dup3\n        /* \"#utility.yul\":15846:15849   */\n      dup3\n        /* \"#utility.yul\":15839:15858   */\n      mstore\n        /* \"#utility.yul\":15891:15895   */\n      0x20\n        /* \"#utility.yul\":15886:15889   */\n      dup3\n        /* \"#utility.yul\":15882:15896   */\n      add\n        /* \"#utility.yul\":15867:15896   */\n      swap1\n      pop\n        /* \"#utility.yul\":15829:15902   */\n      swap3\n      swap2\n      pop\n      pop\n      jump\t// out\n        /* \"#utility.yul\":15908:16116   */\n    tag_348:\n      0x00\n        /* \"#utility.yul\":16065:16071   */\n      dup3\n        /* \"#utility.yul\":16060:16063   */\n      dup3\n        /* \"#utility.yul\":16053:16072   */\n      mstore\n        /* \"#utility.yul\":16105:16109   */\n      0x20\n        /* \"#utility.yul\":16100:16103   */\n      dup3\n        /* \"#utility.yul\":16096:16110   */\n      add\n        /* \"#utility.yul\":16081:16110   */\n      swap1\n      pop\n        /* \"#utility.yul\":16043:16116   */\n      swap3\n      swap2\n      pop\n      pop\n      jump\t// out\n        /* \"#utility.yul\":16122:16281   */\n    tag_369:\n      0x00\n        /* \"#utility.yul\":16230:16236   */\n      dup3\n        /* \"#utility.yul\":16225:16228   */\n      dup3\n        /* \"#utility.yul\":16218:16237   */\n      mstore\n        /* \"#utility.yul\":16270:16274   */\n      0x20\n        /* \"#utility.yul\":16265:16268   */\n      dup3\n        /* \"#utility.yul\":16261:16275   */\n      add\n        /* \"#utility.yul\":16246:16275   */\n      swap1\n      pop\n        /* \"#utility.yul\":16208:16281   */\n      swap3\n      swap2\n      pop\n      pop\n      jump\t// out\n        /* \"#utility.yul\":16287:16456   */\n    tag_378:\n      0x00\n        /* \"#utility.yul\":16405:16411   */\n      dup3\n        /* \"#utility.yul\":16400:16403   */\n      dup3\n        /* \"#utility.yul\":16393:16412   */\n      mstore\n        /* \"#utility.yul\":16445:16449   */\n      0x20\n        /* \"#utility.yul\":16440:16443   */\n      dup3\n        /* \"#utility.yul\":16436:16450   */\n      add\n        /* \"#utility.yul\":16421:16450   */\n      swap1\n      pop\n        /* \"#utility.yul\":16383:16456   */\n      swap3\n      swap2\n      pop\n      pop\n      jump\t// out\n        /* \"#utility.yul\":16462:16767   */\n    tag_121:\n      0x00\n        /* \"#utility.yul\":16521:16541   */\n      tag_439\n        /* \"#utility.yul\":16539:16540   */\n      dup3\n        /* \"#utility.yul\":16521:16541   */\n      tag_391\n      jump\t// in\n    tag_439:\n        /* \"#utility.yul\":16516:16541   */\n      swap2\n      pop\n        /* \"#utility.yul\":16555:16575   */\n      tag_440\n        /* \"#utility.yul\":16573:16574   */\n      dup4\n        /* \"#utility.yul\":16555:16575   */\n      tag_391\n      jump\t// in\n    tag_440:\n        /* \"#utility.yul\":16550:16575   */\n      swap3\n      pop\n        /* \"#utility.yul\":16709:16710   */\n      dup3\n        /* \"#utility.yul\":16641:16707   */\n      0xffffffffffffffffffffffffffffffffffffffffffffffffffffffffffffffff\n        /* \"#utility.yul\":16637:16711   */\n      sub\n        /* \"#utility.yul\":16634:16635   */\n      dup3\n        /* \"#utility.yul\":16631:16712   */\n      gt\n        /* \"#utility.yul\":16628:16630   */\n      iszero\n      tag_441\n      jumpi\n        /* \"#utility.yul\":16715:16733   */\n      tag_442\n      tag_443\n      jump\t// in\n    tag_442:\n        /* \"#utility.yul\":16628:16630   */\n    tag_441:\n        /* \"#utility.yul\":16759:16760   */\n      dup3\n        /* \"#utility.yul\":16756:16757   */\n      dup3\n        /* \"#utility.yul\":16752:16761   */\n      add\n        /* \"#utility.yul\":16745:16761   */\n      swap1\n      pop\n        /* \"#utility.yul\":16506:16767   */\n      swap3\n      swap2\n      pop\n      pop\n      jump\t// out\n        /* \"#utility.yul\":16773:16869   */\n    tag_328:\n      0x00\n        /* \"#utility.yul\":16839:16863   */\n      tag_445\n        /* \"#utility.yul\":16857:16862   */\n      dup3\n        /* \"#utility.yul\":16839:16863   */\n      tag_446\n      jump\t// in\n    tag_445:\n        /* \"#utility.yul\":16828:16863   */\n      swap1\n      pop\n        /* \"#utility.yul\":16818:16869   */\n      swap2\n      swap1\n      pop\n      jump\t// out\n        /* \"#utility.yul\":16875:16965   */\n    tag_360:\n      0x00\n        /* \"#utility.yul\":16952:16957   */\n      dup2\n        /* \"#utility.yul\":16945:16958   */\n      iszero\n        /* \"#utility.yul\":16938:16959   */\n      iszero\n        /* \"#utility.yul\":16927:16959   */\n      swap1\n      pop\n        /* \"#utility.yul\":16917:16965   */\n      swap2\n      swap1\n      pop\n      jump\t// out\n        /* \"#utility.yul\":16971:17097   */\n    tag_446:\n      0x00\n        /* \"#utility.yul\":17048:17090   */\n      0xffffffffffffffffffffffffffffffffffffffff\n        /* \"#utility.yul\":17041:17046   */\n      dup3\n        /* \"#utility.yul\":17037:17091   */\n      and\n        /* \"#utility.yul\":17026:17091   */\n      swap1\n      pop\n        /* \"#utility.yul\":17016:17097   */\n      swap2\n      swap1\n      pop\n      jump\t// out\n        /* \"#utility.yul\":17103:17180   */\n    tag_391:\n      0x00\n        /* \"#utility.yul\":17169:17174   */\n      dup2\n        /* \"#utility.yul\":17158:17174   */\n      swap1\n      pop\n        /* \"#utility.yul\":17148:17180   */\n      swap2\n      swap1\n      pop\n      jump\t// out\n        /* \"#utility.yul\":17186:17340   */\n    tag_364:\n      0x00\n        /* \"#utility.yul\":17283:17334   */\n      tag_451\n        /* \"#utility.yul\":17328:17333   */\n      dup3\n        /* \"#utility.yul\":17283:17334   */\n      tag_452\n      jump\t// in\n    tag_451:\n        /* \"#utility.yul\":17270:17334   */\n      swap1\n      pop\n        /* \"#utility.yul\":17260:17340   */\n      swap2\n      swap1\n      pop\n      jump\t// out\n        /* \"#utility.yul\":17346:17473   */\n    tag_452:\n      0x00\n        /* \"#utility.yul\":17443:17467   */\n      tag_454\n        /* \"#utility.yul\":17461:17466   */\n      dup3\n        /* \"#utility.yul\":17443:17467   */\n      tag_446\n      jump\t// in\n    tag_454:\n        /* \"#utility.yul\":17430:17467   */\n      swap1\n      pop\n        /* \"#utility.yul\":17420:17473   */\n      swap2\n      swap1\n      pop\n      jump\t// out\n        /* \"#utility.yul\":17479:17633   */\n    tag_266:\n        /* \"#utility.yul\":17563:17569   */\n      dup3\n        /* \"#utility.yul\":17558:17561   */\n      dup2\n        /* \"#utility.yul\":17553:17556   */\n      dup4\n        /* \"#utility.yul\":17540:17570   */\n      calldatacopy\n        /* \"#utility.yul\":17625:17626   */\n      0x00\n        /* \"#utility.yul\":17616:17622   */\n      dup4\n        /* \"#utility.yul\":17611:17614   */\n      dup4\n        /* \"#utility.yul\":17607:17623   */\n      add\n        /* \"#utility.yul\":17600:17627   */\n      mstore\n        /* \"#utility.yul\":17530:17633   */\n      pop\n      pop\n      pop\n      jump\t// out\n        /* \"#utility.yul\":17639:17946   */\n    tag_371:\n        /* \"#utility.yul\":17707:17708   */\n      0x00\n        /* \"#utility.yul\":17717:17830   */\n    tag_457:\n        /* \"#utility.yul\":17731:17737   */\n      dup4\n        /* \"#utility.yul\":17728:17729   */\n      dup2\n        /* \"#utility.yul\":17725:17738   */\n      lt\n        /* \"#utility.yul\":17717:17830   */\n      iszero\n      tag_459\n      jumpi\n        /* \"#utility.yul\":17816:17817   */\n      dup1\n        /* \"#utility.yul\":17811:17814   */\n      dup3\n        /* \"#utility.yul\":17807:17818   */\n      add\n        /* \"#utility.yul\":17801:17819   */\n      mload\n        /* \"#utility.yul\":17797:17798   */\n      dup2\n        /* \"#utility.yul\":17792:17795   */\n      dup5\n        /* \"#utility.yul\":17788:17799   */\n      add\n        /* \"#utility.yul\":17781:17820   */\n      mstore\n        /* \"#utility.yul\":17753:17755   */\n      0x20\n        /* \"#utility.yul\":17750:17751   */\n      dup2\n        /* \"#utility.yul\":17746:17756   */\n      add\n        /* \"#utility.yul\":17741:17756   */\n      swap1\n      pop\n        /* \"#utility.yul\":17717:17830   */\n      jump(tag_457)\n    tag_459:\n        /* \"#utility.yul\":17848:17854   */\n      dup4\n        /* \"#utility.yul\":17845:17846   */\n      dup2\n        /* \"#utility.yul\":17842:17855   */\n      gt\n        /* \"#utility.yul\":17839:17841   */\n      iszero\n      tag_460\n      jumpi\n        /* \"#utility.yul\":17928:17929   */\n      0x00\n        /* \"#utility.yul\":17919:17925   */\n      dup5\n        /* \"#utility.yul\":17914:17917   */\n      dup5\n        /* \"#utility.yul\":17910:17926   */\n      add\n        /* \"#utility.yul\":17903:17930   */\n      mstore\n        /* \"#utility.yul\":17839:17841   */\n    tag_460:\n        /* \"#utility.yul\":17688:17946   */\n      pop\n      pop\n      pop\n      pop\n      jump\t// out\n        /* \"#utility.yul\":17952:18272   */\n    tag_125:\n      0x00\n        /* \"#utility.yul\":18033:18034   */\n      0x02\n        /* \"#utility.yul\":18027:18031   */\n      dup3\n        /* \"#utility.yul\":18023:18035   */\n      div\n        /* \"#utility.yul\":18013:18035   */\n      swap1\n      pop\n        /* \"#utility.yul\":18080:18081   */\n      0x01\n        /* \"#utility.yul\":18074:18078   */\n      dup3\n        /* \"#utility.yul\":18070:18082   */\n      and\n        /* \"#utility.yul\":18101:18119   */\n      dup1\n        /* \"#utility.yul\":18091:18093   */\n      tag_462\n      jumpi\n        /* \"#utility.yul\":18157:18161   */\n      0x7f\n        /* \"#utility.yul\":18149:18155   */\n      dup3\n        /* \"#utility.yul\":18145:18162   */\n      and\n        /* \"#utility.yul\":18135:18162   */\n      swap2\n      pop\n        /* \"#utility.yul\":18091:18093   */\n    tag_462:\n        /* \"#utility.yul\":18219:18221   */\n      0x20\n        /* \"#utility.yul\":18211:18217   */\n      dup3\n        /* \"#utility.yul\":18208:18222   */\n      lt\n        /* \"#utility.yul\":18188:18206   */\n      dup2\n        /* \"#utility.yul\":18185:18223   */\n      eq\n        /* \"#utility.yul\":18182:18184   */\n      iszero\n      tag_463\n      jumpi\n        /* \"#utility.yul\":18238:18256   */\n      tag_464\n      tag_465\n      jump\t// in\n    tag_464:\n        /* \"#utility.yul\":18182:18184   */\n    tag_463:\n        /* \"#utility.yul\":18003:18272   */\n      pop\n      swap2\n      swap1\n      pop\n      jump\t// out\n        /* \"#utility.yul\":18278:18511   */\n    tag_150:\n      0x00\n        /* \"#utility.yul\":18340:18364   */\n      tag_467\n        /* \"#utility.yul\":18358:18363   */\n      dup3\n        /* \"#utility.yul\":18340:18364   */\n      tag_391\n      jump\t// in\n    tag_467:\n        /* \"#utility.yul\":18331:18364   */\n      swap2\n      pop\n        /* \"#utility.yul\":18386:18452   */\n      0xffffffffffffffffffffffffffffffffffffffffffffffffffffffffffffffff\n        /* \"#utility.yul\":18379:18384   */\n      dup3\n        /* \"#utility.yul\":18376:18453   */\n      eq\n        /* \"#utility.yul\":18373:18375   */\n      iszero\n      tag_468\n      jumpi\n        /* \"#utility.yul\":18456:18474   */\n      tag_469\n      tag_443\n      jump\t// in\n    tag_469:\n        /* \"#utility.yul\":18373:18375   */\n    tag_468:\n        /* \"#utility.yul\":18503:18504   */\n      0x01\n        /* \"#utility.yul\":18496:18501   */\n      dup3\n        /* \"#utility.yul\":18492:18505   */\n      add\n        /* \"#utility.yul\":18485:18505   */\n      swap1\n      pop\n        /* \"#utility.yul\":18321:18511   */\n      swap2\n      swap1\n      pop\n      jump\t// out\n        /* \"#utility.yul\":18517:18697   */\n    tag_443:\n        /* \"#utility.yul\":18565:18642   */\n      0x4e487b7100000000000000000000000000000000000000000000000000000000\n        /* \"#utility.yul\":18562:18563   */\n      0x00\n        /* \"#utility.yul\":18555:18643   */\n      mstore\n        /* \"#utility.yul\":18662:18666   */\n      0x11\n        /* \"#utility.yul\":18659:18660   */\n      0x04\n        /* \"#utility.yul\":18652:18667   */\n      mstore\n        /* \"#utility.yul\":18686:18690   */\n      0x24\n        /* \"#utility.yul\":18683:18684   */\n      0x00\n        /* \"#utility.yul\":18676:18691   */\n      revert\n        /* \"#utility.yul\":18703:18883   */\n    tag_465:\n        /* \"#utility.yul\":18751:18828   */\n      0x4e487b7100000000000000000000000000000000000000000000000000000000\n        /* \"#utility.yul\":18748:18749   */\n      0x00\n        /* \"#utility.yul\":18741:18829   */\n      mstore\n        /* \"#utility.yul\":18848:18852   */\n      0x22\n        /* \"#utility.yul\":18845:18846   */\n      0x04\n        /* \"#utility.yul\":18838:18853   */\n      mstore\n        /* \"#utility.yul\":18872:18876   */\n      0x24\n        /* \"#utility.yul\":18869:18870   */\n      0x00\n        /* \"#utility.yul\":18862:18877   */\n      revert\n        /* \"#utility.yul\":18889:19069   */\n    tag_420:\n        /* \"#utility.yul\":18937:19014   */\n      0x4e487b7100000000000000000000000000000000000000000000000000000000\n        /* \"#utility.yul\":18934:18935   */\n      0x00\n        /* \"#utility.yul\":18927:19015   */\n      mstore\n        /* \"#utility.yul\":19034:19038   */\n      0x41\n        /* \"#utility.yul\":19031:19032   */\n      0x04\n        /* \"#utility.yul\":19024:19039   */\n      mstore\n        /* \"#utility.yul\":19058:19062   */\n      0x24\n        /* \"#utility.yul\":19055:19056   */\n      0x00\n        /* \"#utility.yul\":19048:19063   */\n      revert\n        /* \"#utility.yul\":19075:19177   */\n    tag_373:\n      0x00\n        /* \"#utility.yul\":19167:19169   */\n      0x1f\n        /* \"#utility.yul\":19163:19170   */\n      not\n        /* \"#utility.yul\":19158:19160   */\n      0x1f\n        /* \"#utility.yul\":19151:19156   */\n      dup4\n        /* \"#utility.yul\":19147:19161   */\n      add\n        /* \"#utility.yul\":19143:19171   */\n      and\n        /* \"#utility.yul\":19133:19171   */\n      swap1\n      pop\n        /* \"#utility.yul\":19123:19177   */\n      swap2\n      swap1\n      pop\n      jump\t// out\n        /* \"#utility.yul\":19183:19305   */\n    tag_270:\n        /* \"#utility.yul\":19256:19280   */\n      tag_475\n        /* \"#utility.yul\":19274:19279   */\n      dup2\n        /* \"#utility.yul\":19256:19280   */\n      tag_328\n      jump\t// in\n    tag_475:\n        /* \"#utility.yul\":19249:19254   */\n      dup2\n        /* \"#utility.yul\":19246:19281   */\n      eq\n        /* \"#utility.yul\":19236:19238   */\n      tag_476\n      jumpi\n        /* \"#utility.yul\":19295:19296   */\n      0x00\n        /* \"#utility.yul\":19292:19293   */\n      dup1\n        /* \"#utility.yul\":19285:19297   */\n      revert\n        /* \"#utility.yul\":19236:19238   */\n    tag_476:\n        /* \"#utility.yul\":19226:19305   */\n      pop\n      jump\t// out\n        /* \"#utility.yul\":19311:19433   */\n    tag_284:\n        /* \"#utility.yul\":19384:19408   */\n      tag_478\n        /* \"#utility.yul\":19402:19407   */\n      dup2\n        /* \"#utility.yul\":19384:19408   */\n      tag_391\n      jump\t// in\n    tag_478:\n        /* \"#utility.yul\":19377:19382   */\n      dup2\n        /* \"#utility.yul\":19374:19409   */\n      eq\n        /* \"#utility.yul\":19364:19366   */\n      tag_479\n      jumpi\n        /* \"#utility.yul\":19423:19424   */\n      0x00\n        /* \"#utility.yul\":19420:19421   */\n      dup1\n        /* \"#utility.yul\":19413:19425   */\n      revert\n        /* \"#utility.yul\":19364:19366   */\n    tag_479:\n        /* \"#utility.yul\":19354:19433   */\n      pop\n      jump\t// out\n    stop\n\n    sub_0: assembly {\n            /* \"contracts/prop_test.sol\":60:4755  contract Ballot {\r... */\n          mstore(0x40, 0x80)\n          callvalue\n          dup1\n          iszero\n          tag_1\n          jumpi\n          0x00\n          dup1\n          revert\n        tag_1:\n          pop\n          dataSize(sub_0)\n          dup1\n          dataOffset(sub_0)\n          0x00\n          codecopy\n          0x00\n          return\n        stop\n\n        sub_0: assembly {\n                /* \"contracts/prop_test.sol\":60:4755  contract Ballot {\r... */\n              mstore(0x40, 0x80)\n              callvalue\n              dup1\n              iszero\n              tag_1\n              jumpi\n              0x00\n              dup1\n              revert\n            tag_1:\n              pop\n              jumpi(tag_2, lt(calldatasize, 0x04))\n              shr(0xe0, calldataload(0x00))\n              dup1\n              0x7a16fcb0\n              gt\n              tag_19\n              jumpi\n              dup1\n              0xa3ec138d\n              gt\n              tag_20\n              jumpi\n              dup1\n              0xa3ec138d\n              eq\n              tag_15\n              jumpi\n              dup1\n              0xb1356488\n              eq\n              tag_16\n              jumpi\n              dup1\n              0xe2ba53f0\n              eq\n              tag_17\n              jumpi\n              dup1\n              0xe9d6c6da\n              eq\n              tag_18\n              jumpi\n              jump(tag_2)\n            tag_20:\n              dup1\n              0x7a16fcb0\n              eq\n              tag_11\n              jumpi\n              dup1\n              0x836bc692\n              eq\n              tag_12\n              jumpi\n              dup1\n              0x86278e77\n              eq\n              tag_13\n              jumpi\n              dup1\n              0x9e7b8d61\n              eq\n              tag_14\n              jumpi\n              jump(tag_2)\n            tag_19:\n              dup1\n              0x609ff1bd\n              gt\n              tag_21\n              jumpi\n              dup1\n              0x609ff1bd\n              eq\n              tag_7\n              jumpi\n              dup1\n              0x62564c48\n              eq\n              tag_8\n              jumpi\n              dup1\n              0x69ba1a75\n              eq\n              tag_9\n              jumpi\n              dup1\n              0x78f305c6\n              eq\n              tag_10\n              jumpi\n              jump(tag_2)\n            tag_21:\n              dup1\n              0x0121b93f\n              eq\n              tag_3\n              jumpi\n              dup1\n              0x013cf08b\n              eq\n              tag_4\n              jumpi\n              dup1\n              0x0a82dcb1\n              eq\n              tag_5\n              jumpi\n              dup1\n              0x4e69d560\n              eq\n              tag_6\n              jumpi\n            tag_2:\n              0x00\n              dup1\n              revert\n                /* \"contracts/prop_test.sol\":2270:2659  function vote(uint proposal) public {\r... */\n            tag_3:\n              tag_22\n              0x04\n              dup1\n              calldatasize\n              sub\n              dup2\n              add\n              swap1\n              tag_23\n              swap2\n              swap1\n              tag_24\n              jump\t// in\n            tag_23:\n              tag_25\n              jump\t// in\n            tag_22:\n              stop\n                /* \"contracts/prop_test.sol\":871:898  Proposal[] public proposals */\n            tag_4:\n              tag_26\n              0x04\n              dup1\n              calldatasize\n              sub\n              dup2\n              add\n              swap1\n              tag_27\n              swap2\n              swap1\n              tag_24\n              jump\t// in\n            tag_27:\n              tag_28\n              jump\t// in\n            tag_26:\n              mload(0x40)\n              tag_29\n              swap3\n              swap2\n              swap1\n              tag_30\n              jump\t// in\n            tag_29:\n              mload(0x40)\n              dup1\n              swap2\n              sub\n              swap1\n              return\n                /* \"contracts/prop_test.sol\":3869:3963  function getnumOfProposals() public view returns(uint){\r... */\n            tag_5:\n              tag_31\n              tag_32\n              jump\t// in\n            tag_31:\n              mload(0x40)\n              tag_33\n              swap2\n              swap1\n              tag_34\n              jump\t// in\n            tag_33:\n              mload(0x40)\n              dup1\n              swap2\n              sub\n              swap1\n              return\n                /* \"contracts/prop_test.sol\":3749:3827  function getStatus() public view returns(uint){\r... */\n            tag_6:\n              tag_35\n              tag_36\n              jump\t// in\n            tag_35:\n              mload(0x40)\n              tag_37\n              swap2\n              swap1\n              tag_34\n              jump\t// in\n            tag_37:\n              mload(0x40)\n              dup1\n              swap2\n              sub\n              swap1\n              return\n                /* \"contracts/prop_test.sol\":2667:3021  function winningProposal() public view returns (uint winningProposal){\r... */\n            tag_7:\n              tag_38\n              tag_39\n              jump\t// in\n            tag_38:\n              mload(0x40)\n              tag_40\n              swap2\n              swap1\n              tag_34\n              jump\t// in\n            tag_40:\n              mload(0x40)\n              dup1\n              swap2\n              sub\n              swap1\n              return\n                /* \"contracts/prop_test.sol\":4172:4269  function getProposals() public view returns(Proposal[] memory){\r... */\n            tag_8:\n              tag_41\n              tag_42\n              jump\t// in\n            tag_41:\n              mload(0x40)\n              tag_43\n              swap2\n              swap1\n              tag_44\n              jump\t// in\n            tag_43:\n              mload(0x40)\n              dup1\n              swap2\n              sub\n              swap1\n              return\n                /* \"contracts/prop_test.sol\":3632:3706  function setStatus(uint _status) public{\r... */\n            tag_9:\n              tag_45\n              0x04\n              dup1\n              calldatasize\n              sub\n              dup2\n              add\n              swap1\n              tag_46\n              swap2\n              swap1\n              tag_24\n              jump\t// in\n            tag_46:\n              tag_47\n              jump\t// in\n            tag_45:\n              stop\n                /* \"contracts/prop_test.sol\":4434:4518  function getStartDate() public view returns(uint){\r... */\n            tag_10:\n              tag_48\n              tag_49\n              jump\t// in\n            tag_48:\n              mload(0x40)\n              tag_50\n              swap2\n              swap1\n              tag_34\n              jump\t// in\n            tag_50:\n              mload(0x40)\n              dup1\n              swap2\n              sub\n              swap1\n              return\n                /* \"contracts/prop_test.sol\":3500:3589  function getCreatorBallot() public view returns(address){\r... */\n            tag_11:\n              tag_51\n              tag_52\n              jump\t// in\n            tag_51:\n              mload(0x40)\n              tag_53\n              swap2\n              swap1\n              tag_54\n              jump\t// in\n            tag_53:\n              mload(0x40)\n              dup1\n              swap2\n              sub\n              swap1\n              return\n                /* \"contracts/prop_test.sol\":907:1647  function createBallot(string[] memory proposalNames) public {\r... */\n            tag_12:\n              tag_55\n              0x04\n              dup1\n              calldatasize\n              sub\n              dup2\n              add\n              swap1\n              tag_56\n              swap2\n              swap1\n              tag_57\n              jump\t// in\n            tag_56:\n              tag_58\n              jump\t// in\n            tag_55:\n              stop\n                /* \"contracts/prop_test.sol\":4560:4632  function setEndDate() public{\r... */\n            tag_13:\n              tag_59\n              tag_60\n              jump\t// in\n            tag_59:\n              stop\n                /* \"contracts/prop_test.sol\":1655:2233  function giveRightToVote(address voter) public {\r... */\n            tag_14:\n              tag_61\n              0x04\n              dup1\n              calldatasize\n              sub\n              dup2\n              add\n              swap1\n              tag_62\n              swap2\n              swap1\n              tag_63\n              jump\t// in\n            tag_62:\n              tag_64\n              jump\t// in\n            tag_61:\n              stop\n                /* \"contracts/prop_test.sol\":766:805  mapping(address => Voter) public voters */\n            tag_15:\n              tag_65\n              0x04\n              dup1\n              calldatasize\n              sub\n              dup2\n              add\n              swap1\n              tag_66\n              swap2\n              swap1\n              tag_63\n              jump\t// in\n            tag_66:\n              tag_67\n              jump\t// in\n            tag_65:\n              mload(0x40)\n              tag_68\n              swap5\n              swap4\n              swap3\n              swap2\n              swap1\n              tag_69\n              jump\t// in\n            tag_68:\n              mload(0x40)\n              dup1\n              swap2\n              sub\n              swap1\n              return\n                /* \"contracts/prop_test.sol\":4672:4752  function getEndDate() public view returns(uint){\r... */\n            tag_16:\n              tag_70\n              tag_71\n              jump\t// in\n            tag_70:\n              mload(0x40)\n              tag_72\n              swap2\n              swap1\n              tag_34\n              jump\t// in\n            tag_72:\n              mload(0x40)\n              dup1\n              swap2\n              sub\n              swap1\n              return\n                /* \"contracts/prop_test.sol\":3190:3328  function winnerName() public view returns(string memory winnerName)\r... */\n            tag_17:\n              tag_73\n              tag_74\n              jump\t// in\n            tag_73:\n              mload(0x40)\n              tag_75\n              swap2\n              swap1\n              tag_76\n              jump\t// in\n            tag_75:\n              mload(0x40)\n              dup1\n              swap2\n              sub\n              swap1\n              return\n                /* \"contracts/prop_test.sol\":4005:4137  function getProposalStructure(uint _proposalId) public view returns(Proposal memory){\r... */\n            tag_18:\n              tag_77\n              0x04\n              dup1\n              calldatasize\n              sub\n              dup2\n              add\n              swap1\n              tag_78\n              swap2\n              swap1\n              tag_24\n              jump\t// in\n            tag_78:\n              tag_79\n              jump\t// in\n            tag_77:\n              mload(0x40)\n              tag_80\n              swap2\n              swap1\n              tag_81\n              jump\t// in\n            tag_80:\n              mload(0x40)\n              dup1\n              swap2\n              sub\n              swap1\n              return\n                /* \"contracts/prop_test.sol\":2270:2659  function vote(uint proposal) public {\r... */\n            tag_25:\n                /* \"contracts/prop_test.sol\":2317:2337  Voter storage sender */\n              0x00\n                /* \"contracts/prop_test.sol\":2340:2346  voters */\n              0x05\n                /* \"contracts/prop_test.sol\":2340:2358  voters[msg.sender] */\n              0x00\n                /* \"contracts/prop_test.sol\":2347:2357  msg.sender */\n              caller\n                /* \"contracts/prop_test.sol\":2340:2358  voters[msg.sender] */\n              0xffffffffffffffffffffffffffffffffffffffff\n              and\n              0xffffffffffffffffffffffffffffffffffffffff\n              and\n              dup2\n              mstore\n              0x20\n              add\n              swap1\n              dup2\n              mstore\n              0x20\n              add\n              0x00\n              keccak256\n                /* \"contracts/prop_test.sol\":2317:2358  Voter storage sender = voters[msg.sender] */\n              swap1\n              pop\n                /* \"contracts/prop_test.sol\":2378:2384  sender */\n              dup1\n                /* \"contracts/prop_test.sol\":2378:2390  sender.voted */\n              0x01\n              add\n              0x00\n              swap1\n              sload\n              swap1\n              0x0100\n              exp\n              swap1\n              div\n              0xff\n              and\n                /* \"contracts/prop_test.sol\":2377:2390  !sender.voted */\n              iszero\n                /* \"contracts/prop_test.sol\":2369:2391  require(!sender.voted) */\n              tag_83\n              jumpi\n              0x00\n              dup1\n              revert\n            tag_83:\n                /* \"contracts/prop_test.sol\":2417:2421  true */\n              0x01\n                /* \"contracts/prop_test.sol\":2402:2408  sender */\n              dup2\n                /* \"contracts/prop_test.sol\":2402:2414  sender.voted */\n              0x01\n              add\n              0x00\n                /* \"contracts/prop_test.sol\":2402:2421  sender.voted = true */\n              0x0100\n              exp\n              dup2\n              sload\n              dup2\n              0xff\n              mul\n              not\n              and\n              swap1\n              dup4\n              iszero\n              iszero\n              mul\n              or\n              swap1\n              sstore\n              pop\n                /* \"contracts/prop_test.sol\":2446:2454  proposal */\n              dup2\n                /* \"contracts/prop_test.sol\":2432:2438  sender */\n              dup2\n                /* \"contracts/prop_test.sol\":2432:2443  sender.vote */\n              0x02\n              add\n                /* \"contracts/prop_test.sol\":2432:2454  sender.vote = proposal */\n              dup2\n              swap1\n              sstore\n              pop\n                /* \"contracts/prop_test.sol\":2638:2644  sender */\n              dup1\n                /* \"contracts/prop_test.sol\":2638:2651  sender.weight */\n              0x00\n              add\n              sload\n                /* \"contracts/prop_test.sol\":2605:2614  proposals */\n              0x06\n                /* \"contracts/prop_test.sol\":2615:2623  proposal */\n              dup4\n                /* \"contracts/prop_test.sol\":2605:2624  proposals[proposal] */\n              dup2\n              sload\n              dup2\n              lt\n              tag_84\n              jumpi\n              mstore(0x00, 0x4e487b7100000000000000000000000000000000000000000000000000000000)\n              mstore(0x04, 0x32)\n              revert(0x00, 0x24)\n            tag_84:\n              swap1\n              0x00\n              mstore\n              keccak256(0x00, 0x20)\n              swap1\n              0x02\n              mul\n              add\n                /* \"contracts/prop_test.sol\":2605:2634  proposals[proposal].voteCount */\n              0x01\n              add\n              0x00\n                /* \"contracts/prop_test.sol\":2605:2651  proposals[proposal].voteCount += sender.weight */\n              dup3\n              dup3\n              sload\n              tag_86\n              swap2\n              swap1\n              tag_87\n              jump\t// in\n            tag_86:\n              swap3\n              pop\n              pop\n              dup2\n              swap1\n              sstore\n              pop\n                /* \"contracts/prop_test.sol\":2270:2659  function vote(uint proposal) public {\r... */\n              pop\n              pop\n              jump\t// out\n                /* \"contracts/prop_test.sol\":871:898  Proposal[] public proposals */\n            tag_28:\n              0x06\n              dup2\n              dup2\n              sload\n              dup2\n              lt\n              tag_88\n              jumpi\n              0x00\n              dup1\n              revert\n            tag_88:\n              swap1\n              0x00\n              mstore\n              keccak256(0x00, 0x20)\n              swap1\n              0x02\n              mul\n              add\n              0x00\n              swap2\n              pop\n              swap1\n              pop\n              dup1\n              0x00\n              add\n              dup1\n              sload\n              tag_90\n              swap1\n              tag_91\n              jump\t// in\n            tag_90:\n              dup1\n              0x1f\n              add\n              0x20\n              dup1\n              swap2\n              div\n              mul\n              0x20\n              add\n              mload(0x40)\n              swap1\n              dup2\n              add\n              0x40\n              mstore\n              dup1\n              swap3\n              swap2\n              swap1\n              dup2\n              dup2\n              mstore\n              0x20\n              add\n              dup3\n              dup1\n              sload\n              tag_92\n              swap1\n              tag_91\n              jump\t// in\n            tag_92:\n              dup1\n              iszero\n              tag_93\n              jumpi\n              dup1\n              0x1f\n              lt\n              tag_94\n              jumpi\n              0x0100\n              dup1\n              dup4\n              sload\n              div\n              mul\n              dup4\n              mstore\n              swap2\n              0x20\n              add\n              swap2\n              jump(tag_93)\n            tag_94:\n              dup3\n              add\n              swap2\n              swap1\n              0x00\n              mstore\n              keccak256(0x00, 0x20)\n              swap1\n            tag_95:\n              dup2\n              sload\n              dup2\n              mstore\n              swap1\n              0x01\n              add\n              swap1\n              0x20\n              add\n              dup1\n              dup4\n              gt\n              tag_95\n              jumpi\n              dup3\n              swap1\n              sub\n              0x1f\n              and\n              dup3\n              add\n              swap2\n            tag_93:\n              pop\n              pop\n              pop\n              pop\n              pop\n              swap1\n              dup1\n              0x01\n              add\n              sload\n              swap1\n              pop\n              dup3\n              jump\t// out\n                /* \"contracts/prop_test.sol\":3869:3963  function getnumOfProposals() public view returns(uint){\r... */\n            tag_32:\n                /* \"contracts/prop_test.sol\":3918:3922  uint */\n              0x00\n                /* \"contracts/prop_test.sol\":3941:3955  numOfProposals */\n              sload(0x04)\n                /* \"contracts/prop_test.sol\":3934:3955  return numOfProposals */\n              swap1\n              pop\n                /* \"contracts/prop_test.sol\":3869:3963  function getnumOfProposals() public view returns(uint){\r... */\n              swap1\n              jump\t// out\n                /* \"contracts/prop_test.sol\":3749:3827  function getStatus() public view returns(uint){\r... */\n            tag_36:\n                /* \"contracts/prop_test.sol\":3790:3794  uint */\n              0x00\n                /* \"contracts/prop_test.sol\":3813:3819  status */\n              sload(0x01)\n                /* \"contracts/prop_test.sol\":3806:3819  return status */\n              swap1\n              pop\n                /* \"contracts/prop_test.sol\":3749:3827  function getStatus() public view returns(uint){\r... */\n              swap1\n              jump\t// out\n                /* \"contracts/prop_test.sol\":2667:3021  function winningProposal() public view returns (uint winningProposal){\r... */\n            tag_39:\n                /* \"contracts/prop_test.sol\":2715:2735  uint winningProposal */\n              0x00\n                /* \"contracts/prop_test.sol\":2747:2768  uint winningVoteCount */\n              dup1\n                /* \"contracts/prop_test.sol\":2771:2772  0 */\n              0x00\n                /* \"contracts/prop_test.sol\":2747:2772  uint winningVoteCount = 0 */\n              swap1\n              pop\n                /* \"contracts/prop_test.sol\":2788:2794  uint p */\n              0x00\n                /* \"contracts/prop_test.sol\":2783:3014  for (uint p = 0; p < proposals.length; p++) {\r... */\n            tag_99:\n                /* \"contracts/prop_test.sol\":2804:2813  proposals */\n              0x06\n                /* \"contracts/prop_test.sol\":2804:2820  proposals.length */\n              dup1\n              sload\n              swap1\n              pop\n                /* \"contracts/prop_test.sol\":2800:2801  p */\n              dup2\n                /* \"contracts/prop_test.sol\":2800:2820  p < proposals.length */\n              lt\n                /* \"contracts/prop_test.sol\":2783:3014  for (uint p = 0; p < proposals.length; p++) {\r... */\n              iszero\n              tag_100\n              jumpi\n                /* \"contracts/prop_test.sol\":2871:2887  winningVoteCount */\n              dup2\n                /* \"contracts/prop_test.sol\":2846:2855  proposals */\n              0x06\n                /* \"contracts/prop_test.sol\":2856:2857  p */\n              dup3\n                /* \"contracts/prop_test.sol\":2846:2858  proposals[p] */\n              dup2\n              sload\n              dup2\n              lt\n              tag_102\n              jumpi\n              mstore(0x00, 0x4e487b7100000000000000000000000000000000000000000000000000000000)\n              mstore(0x04, 0x32)\n              revert(0x00, 0x24)\n            tag_102:\n              swap1\n              0x00\n              mstore\n              keccak256(0x00, 0x20)\n              swap1\n              0x02\n              mul\n              add\n                /* \"contracts/prop_test.sol\":2846:2868  proposals[p].voteCount */\n              0x01\n              add\n              sload\n                /* \"contracts/prop_test.sol\":2846:2887  proposals[p].voteCount > winningVoteCount */\n              gt\n                /* \"contracts/prop_test.sol\":2842:3003  if (proposals[p].voteCount > winningVoteCount) {\r... */\n              iszero\n              tag_104\n              jumpi\n                /* \"contracts/prop_test.sol\":2927:2936  proposals */\n              0x06\n                /* \"contracts/prop_test.sol\":2937:2938  p */\n              dup2\n                /* \"contracts/prop_test.sol\":2927:2939  proposals[p] */\n              dup2\n              sload\n              dup2\n              lt\n              tag_105\n              jumpi\n              mstore(0x00, 0x4e487b7100000000000000000000000000000000000000000000000000000000)\n              mstore(0x04, 0x32)\n              revert(0x00, 0x24)\n            tag_105:\n              swap1\n              0x00\n              mstore\n              keccak256(0x00, 0x20)\n              swap1\n              0x02\n              mul\n              add\n                /* \"contracts/prop_test.sol\":2927:2949  proposals[p].voteCount */\n              0x01\n              add\n              sload\n                /* \"contracts/prop_test.sol\":2908:2949  winningVoteCount = proposals[p].voteCount */\n              swap2\n              pop\n                /* \"contracts/prop_test.sol\":2986:2987  p */\n              dup1\n                /* \"contracts/prop_test.sol\":2968:2987  winningProposal = p */\n              swap3\n              pop\n                /* \"contracts/prop_test.sol\":2842:3003  if (proposals[p].voteCount > winningVoteCount) {\r... */\n            tag_104:\n                /* \"contracts/prop_test.sol\":2822:2825  p++ */\n              dup1\n              dup1\n              tag_107\n              swap1\n              tag_108\n              jump\t// in\n            tag_107:\n              swap2\n              pop\n              pop\n                /* \"contracts/prop_test.sol\":2783:3014  for (uint p = 0; p < proposals.length; p++) {\r... */\n              jump(tag_99)\n            tag_100:\n              pop\n                /* \"contracts/prop_test.sol\":2667:3021  function winningProposal() public view returns (uint winningProposal){\r... */\n              pop\n              swap1\n              jump\t// out\n                /* \"contracts/prop_test.sol\":4172:4269  function getProposals() public view returns(Proposal[] memory){\r... */\n            tag_42:\n                /* \"contracts/prop_test.sol\":4216:4233  Proposal[] memory */\n              0x60\n                /* \"contracts/prop_test.sol\":4252:4261  proposals */\n              0x06\n                /* \"contracts/prop_test.sol\":4245:4261  return proposals */\n              dup1\n              sload\n              dup1\n              0x20\n              mul\n              0x20\n              add\n              mload(0x40)\n              swap1\n              dup2\n              add\n              0x40\n              mstore\n              dup1\n              swap3\n              swap2\n              swap1\n              dup2\n              dup2\n              mstore\n              0x20\n              add\n              0x00\n              swap1\n            tag_110:\n              dup3\n              dup3\n              lt\n              iszero\n              tag_111\n              jumpi\n              dup4\n              dup3\n              swap1\n              0x00\n              mstore\n              keccak256(0x00, 0x20)\n              swap1\n              0x02\n              mul\n              add\n              mload(0x40)\n              dup1\n              0x40\n              add\n              0x40\n              mstore\n              swap1\n              dup2\n              0x00\n              dup3\n              add\n              dup1\n              sload\n              tag_113\n              swap1\n              tag_91\n              jump\t// in\n            tag_113:\n              dup1\n              0x1f\n              add\n              0x20\n              dup1\n              swap2\n              div\n              mul\n              0x20\n              add\n              mload(0x40)\n              swap1\n              dup2\n              add\n              0x40\n              mstore\n              dup1\n              swap3\n              swap2\n              swap1\n              dup2\n              dup2\n              mstore\n              0x20\n              add\n              dup3\n              dup1\n              sload\n              tag_114\n              swap1\n              tag_91\n              jump\t// in\n            tag_114:\n              dup1\n              iszero\n              tag_115\n              jumpi\n              dup1\n              0x1f\n              lt\n              tag_116\n              jumpi\n              0x0100\n              dup1\n              dup4\n              sload\n              div\n              mul\n              dup4\n              mstore\n              swap2\n              0x20\n              add\n              swap2\n              jump(tag_115)\n            tag_116:\n              dup3\n              add\n              swap2\n              swap1\n              0x00\n              mstore\n              keccak256(0x00, 0x20)\n              swap1\n            tag_117:\n              dup2\n              sload\n              dup2\n              mstore\n              swap1\n              0x01\n              add\n              swap1\n              0x20\n              add\n              dup1\n              dup4\n              gt\n              tag_117\n              jumpi\n              dup3\n              swap1\n              sub\n              0x1f\n              and\n              dup3\n              add\n              swap2\n            tag_115:\n              pop\n              pop\n              pop\n              pop\n              pop\n              dup2\n              mstore\n              0x20\n              add\n              0x01\n              dup3\n              add\n              sload\n              dup2\n              mstore\n              pop\n              pop\n              dup2\n              mstore\n              0x20\n              add\n              swap1\n              0x01\n              add\n              swap1\n              jump(tag_110)\n            tag_111:\n              pop\n              pop\n              pop\n              pop\n              swap1\n              pop\n                /* \"contracts/prop_test.sol\":4172:4269  function getProposals() public view returns(Proposal[] memory){\r... */\n              swap1\n              jump\t// out\n                /* \"contracts/prop_test.sol\":3632:3706  function setStatus(uint _status) public{\r... */\n            tag_47:\n                /* \"contracts/prop_test.sol\":3691:3698  _status */\n              dup1\n                /* \"contracts/prop_test.sol\":3682:3688  status */\n              0x01\n                /* \"contracts/prop_test.sol\":3682:3698  status = _status */\n              dup2\n              swap1\n              sstore\n              pop\n                /* \"contracts/prop_test.sol\":3632:3706  function setStatus(uint _status) public{\r... */\n              pop\n              jump\t// out\n                /* \"contracts/prop_test.sol\":4434:4518  function getStartDate() public view returns(uint){\r... */\n            tag_49:\n                /* \"contracts/prop_test.sol\":4478:4482  uint */\n              0x00\n                /* \"contracts/prop_test.sol\":4501:4510  startDate */\n              sload(0x02)\n                /* \"contracts/prop_test.sol\":4494:4510  return startDate */\n              swap1\n              pop\n                /* \"contracts/prop_test.sol\":4434:4518  function getStartDate() public view returns(uint){\r... */\n              swap1\n              jump\t// out\n                /* \"contracts/prop_test.sol\":3500:3589  function getCreatorBallot() public view returns(address){\r... */\n            tag_52:\n                /* \"contracts/prop_test.sol\":3548:3555  address */\n              0x00\n                /* \"contracts/prop_test.sol\":3574:3581  creator */\n              dup1\n              0x00\n              swap1\n              sload\n              swap1\n              0x0100\n              exp\n              swap1\n              div\n              0xffffffffffffffffffffffffffffffffffffffff\n              and\n                /* \"contracts/prop_test.sol\":3567:3581  return creator */\n              swap1\n              pop\n                /* \"contracts/prop_test.sol\":3500:3589  function getCreatorBallot() public view returns(address){\r... */\n              swap1\n              jump\t// out\n                /* \"contracts/prop_test.sol\":907:1647  function createBallot(string[] memory proposalNames) public {\r... */\n            tag_58:\n                /* \"contracts/prop_test.sol\":988:998  msg.sender */\n              caller\n                /* \"contracts/prop_test.sol\":978:985  creator */\n              0x00\n              dup1\n                /* \"contracts/prop_test.sol\":978:998  creator = msg.sender */\n              0x0100\n              exp\n              dup2\n              sload\n              dup2\n              0xffffffffffffffffffffffffffffffffffffffff\n              mul\n              not\n              and\n              swap1\n              dup4\n              0xffffffffffffffffffffffffffffffffffffffff\n              and\n              mul\n              or\n              swap1\n              sstore\n              pop\n                /* \"contracts/prop_test.sol\":1034:1035  1 */\n              0x01\n                /* \"contracts/prop_test.sol\":1009:1015  voters */\n              0x05\n                /* \"contracts/prop_test.sol\":1009:1024  voters[creator] */\n              0x00\n                /* \"contracts/prop_test.sol\":1016:1023  creator */\n              dup1\n              0x00\n              swap1\n              sload\n              swap1\n              0x0100\n              exp\n              swap1\n              div\n              0xffffffffffffffffffffffffffffffffffffffff\n              and\n                /* \"contracts/prop_test.sol\":1009:1024  voters[creator] */\n              0xffffffffffffffffffffffffffffffffffffffff\n              and\n              0xffffffffffffffffffffffffffffffffffffffff\n              and\n              dup2\n              mstore\n              0x20\n              add\n              swap1\n              dup2\n              mstore\n              0x20\n              add\n              0x00\n              keccak256\n                /* \"contracts/prop_test.sol\":1009:1031  voters[creator].weight */\n              0x00\n              add\n                /* \"contracts/prop_test.sol\":1009:1035  voters[creator].weight = 1 */\n              dup2\n              swap1\n              sstore\n              pop\n                /* \"contracts/prop_test.sol\":1057:1058  0 */\n              0x00\n                /* \"contracts/prop_test.sol\":1048:1054  status */\n              0x01\n                /* \"contracts/prop_test.sol\":1048:1058  status = 0 */\n              dup2\n              swap1\n              sstore\n              pop\n                /* \"contracts/prop_test.sol\":1069:1083  setStartDate() */\n              tag_122\n                /* \"contracts/prop_test.sol\":1069:1081  setStartDate */\n              tag_123\n                /* \"contracts/prop_test.sol\":1069:1083  setStartDate() */\n              jump\t// in\n            tag_122:\n                /* \"contracts/prop_test.sol\":1111:1124  proposalNames */\n              dup1\n                /* \"contracts/prop_test.sol\":1111:1131  proposalNames.length */\n              mload\n                /* \"contracts/prop_test.sol\":1094:1108  numOfProposals */\n              0x04\n                /* \"contracts/prop_test.sol\":1094:1131  numOfProposals = proposalNames.length */\n              dup2\n              swap1\n              sstore\n              pop\n                /* \"contracts/prop_test.sol\":1291:1297  uint i */\n              0x00\n                /* \"contracts/prop_test.sol\":1286:1640  for (uint i = 0; i < proposalNames.length; i++) {\r... */\n            tag_124:\n                /* \"contracts/prop_test.sol\":1307:1320  proposalNames */\n              dup2\n                /* \"contracts/prop_test.sol\":1307:1327  proposalNames.length */\n              mload\n                /* \"contracts/prop_test.sol\":1303:1304  i */\n              dup2\n                /* \"contracts/prop_test.sol\":1303:1327  i < proposalNames.length */\n              lt\n                /* \"contracts/prop_test.sol\":1286:1640  for (uint i = 0; i < proposalNames.length; i++) {\r... */\n              iszero\n              tag_125\n              jumpi\n                /* \"contracts/prop_test.sol\":1515:1524  proposals */\n              0x06\n                /* \"contracts/prop_test.sol\":1530:1627  Proposal({\r... */\n              mload(0x40)\n              dup1\n              0x40\n              add\n              0x40\n              mstore\n              dup1\n                /* \"contracts/prop_test.sol\":1564:1577  proposalNames */\n              dup5\n                /* \"contracts/prop_test.sol\":1578:1579  i */\n              dup5\n                /* \"contracts/prop_test.sol\":1564:1580  proposalNames[i] */\n              dup2\n              mload\n              dup2\n              lt\n              tag_127\n              jumpi\n              mstore(0x00, 0x4e487b7100000000000000000000000000000000000000000000000000000000)\n              mstore(0x04, 0x32)\n              revert(0x00, 0x24)\n            tag_127:\n              0x20\n              mul\n              0x20\n              add\n              add\n              mload\n                /* \"contracts/prop_test.sol\":1530:1627  Proposal({\r... */\n              dup2\n              mstore\n              0x20\n              add\n                /* \"contracts/prop_test.sol\":1610:1611  0 */\n              0x00\n                /* \"contracts/prop_test.sol\":1530:1627  Proposal({\r... */\n              dup2\n              mstore\n              pop\n                /* \"contracts/prop_test.sol\":1515:1628  proposals.push(Proposal({\r... */\n              swap1\n              dup1\n              0x01\n              dup2\n              sload\n              add\n              dup1\n              dup3\n              sstore\n              dup1\n              swap2\n              pop\n              pop\n              0x01\n              swap1\n              sub\n              swap1\n              0x00\n              mstore\n              keccak256(0x00, 0x20)\n              swap1\n              0x02\n              mul\n              add\n              0x00\n              swap1\n              swap2\n              swap1\n              swap2\n              swap1\n              swap2\n              pop\n              0x00\n              dup3\n              add\n              mload\n              dup2\n              0x00\n              add\n              swap1\n              dup1\n              mload\n              swap1\n              0x20\n              add\n              swap1\n              tag_129\n              swap3\n              swap2\n              swap1\n              tag_130\n              jump\t// in\n            tag_129:\n              pop\n              0x20\n              dup3\n              add\n              mload\n              dup2\n              0x01\n              add\n              sstore\n              pop\n              pop\n                /* \"contracts/prop_test.sol\":1329:1332  i++ */\n              dup1\n              dup1\n              tag_131\n              swap1\n              tag_108\n              jump\t// in\n            tag_131:\n              swap2\n              pop\n              pop\n                /* \"contracts/prop_test.sol\":1286:1640  for (uint i = 0; i < proposalNames.length; i++) {\r... */\n              jump(tag_124)\n            tag_125:\n              pop\n                /* \"contracts/prop_test.sol\":907:1647  function createBallot(string[] memory proposalNames) public {\r... */\n              pop\n              jump\t// out\n                /* \"contracts/prop_test.sol\":4560:4632  function setEndDate() public{\r... */\n            tag_60:\n                /* \"contracts/prop_test.sol\":4609:4624  block.timestamp */\n              timestamp\n                /* \"contracts/prop_test.sol\":4599:4606  endDate */\n              0x03\n                /* \"contracts/prop_test.sol\":4599:4624  endDate = block.timestamp */\n              dup2\n              swap1\n              sstore\n              pop\n                /* \"contracts/prop_test.sol\":4560:4632  function setEndDate() public{\r... */\n              jump\t// out\n                /* \"contracts/prop_test.sol\":1655:2233  function giveRightToVote(address voter) public {\r... */\n            tag_64:\n                /* \"contracts/prop_test.sol\":2126:2133  creator */\n              0x00\n              dup1\n              sload\n              swap1\n              0x0100\n              exp\n              swap1\n              div\n              0xffffffffffffffffffffffffffffffffffffffff\n              and\n                /* \"contracts/prop_test.sol\":2112:2133  msg.sender == creator */\n              0xffffffffffffffffffffffffffffffffffffffff\n              and\n                /* \"contracts/prop_test.sol\":2112:2122  msg.sender */\n              caller\n                /* \"contracts/prop_test.sol\":2112:2133  msg.sender == creator */\n              0xffffffffffffffffffffffffffffffffffffffff\n              and\n              eq\n                /* \"contracts/prop_test.sol\":2111:2158  (msg.sender == creator) && !voters[voter].voted */\n              dup1\n              iszero\n              tag_134\n              jumpi\n              pop\n                /* \"contracts/prop_test.sol\":2139:2145  voters */\n              0x05\n                /* \"contracts/prop_test.sol\":2139:2152  voters[voter] */\n              0x00\n                /* \"contracts/prop_test.sol\":2146:2151  voter */\n              dup3\n                /* \"contracts/prop_test.sol\":2139:2152  voters[voter] */\n              0xffffffffffffffffffffffffffffffffffffffff\n              and\n              0xffffffffffffffffffffffffffffffffffffffff\n              and\n              dup2\n              mstore\n              0x20\n              add\n              swap1\n              dup2\n              mstore\n              0x20\n              add\n              0x00\n              keccak256\n                /* \"contracts/prop_test.sol\":2139:2158  voters[voter].voted */\n              0x01\n              add\n              0x00\n              swap1\n              sload\n              swap1\n              0x0100\n              exp\n              swap1\n              div\n              0xff\n              and\n                /* \"contracts/prop_test.sol\":2138:2158  !voters[voter].voted */\n              iszero\n                /* \"contracts/prop_test.sol\":2111:2158  (msg.sender == creator) && !voters[voter].voted */\n            tag_134:\n                /* \"contracts/prop_test.sol\":2111:2189  (msg.sender == creator) && !voters[voter].voted && (voters[voter].weight == 0) */\n              dup1\n              iszero\n              tag_135\n              jumpi\n              pop\n                /* \"contracts/prop_test.sol\":2187:2188  0 */\n              0x00\n                /* \"contracts/prop_test.sol\":2163:2169  voters */\n              0x05\n                /* \"contracts/prop_test.sol\":2163:2176  voters[voter] */\n              0x00\n                /* \"contracts/prop_test.sol\":2170:2175  voter */\n              dup4\n                /* \"contracts/prop_test.sol\":2163:2176  voters[voter] */\n              0xffffffffffffffffffffffffffffffffffffffff\n              and\n              0xffffffffffffffffffffffffffffffffffffffff\n              and\n              dup2\n              mstore\n              0x20\n              add\n              swap1\n              dup2\n              mstore\n              0x20\n              add\n              0x00\n              keccak256\n                /* \"contracts/prop_test.sol\":2163:2183  voters[voter].weight */\n              0x00\n              add\n              sload\n                /* \"contracts/prop_test.sol\":2163:2188  voters[voter].weight == 0 */\n              eq\n                /* \"contracts/prop_test.sol\":2111:2189  (msg.sender == creator) && !voters[voter].voted && (voters[voter].weight == 0) */\n            tag_135:\n                /* \"contracts/prop_test.sol\":2103:2190  require((msg.sender == creator) && !voters[voter].voted && (voters[voter].weight == 0)) */\n              tag_136\n              jumpi\n              0x00\n              dup1\n              revert\n            tag_136:\n                /* \"contracts/prop_test.sol\":2224:2225  1 */\n              0x01\n                /* \"contracts/prop_test.sol\":2201:2207  voters */\n              0x05\n                /* \"contracts/prop_test.sol\":2201:2214  voters[voter] */\n              0x00\n                /* \"contracts/prop_test.sol\":2208:2213  voter */\n              dup4\n                /* \"contracts/prop_test.sol\":2201:2214  voters[voter] */\n              0xffffffffffffffffffffffffffffffffffffffff\n              and\n              0xffffffffffffffffffffffffffffffffffffffff\n              and\n              dup2\n              mstore\n              0x20\n              add\n              swap1\n              dup2\n              mstore\n              0x20\n              add\n              0x00\n              keccak256\n                /* \"contracts/prop_test.sol\":2201:2221  voters[voter].weight */\n              0x00\n              add\n                /* \"contracts/prop_test.sol\":2201:2225  voters[voter].weight = 1 */\n              dup2\n              swap1\n              sstore\n              pop\n                /* \"contracts/prop_test.sol\":1655:2233  function giveRightToVote(address voter) public {\r... */\n              pop\n              jump\t// out\n                /* \"contracts/prop_test.sol\":766:805  mapping(address => Voter) public voters */\n            tag_67:\n              mstore(0x20, 0x05)\n              dup1\n              0x00\n              mstore\n              keccak256(0x00, 0x40)\n              0x00\n              swap2\n              pop\n              swap1\n              pop\n              dup1\n              0x00\n              add\n              sload\n              swap1\n              dup1\n              0x01\n              add\n              0x00\n              swap1\n              sload\n              swap1\n              0x0100\n              exp\n              swap1\n              div\n              0xff\n              and\n              swap1\n              dup1\n              0x01\n              add\n              0x01\n              swap1\n              sload\n              swap1\n              0x0100\n              exp\n              swap1\n              div\n              0xffffffffffffffffffffffffffffffffffffffff\n              and\n              swap1\n              dup1\n              0x02\n              add\n              sload\n              swap1\n              pop\n              dup5\n              jump\t// out\n                /* \"contracts/prop_test.sol\":4672:4752  function getEndDate() public view returns(uint){\r... */\n            tag_71:\n                /* \"contracts/prop_test.sol\":4714:4718  uint */\n              0x00\n                /* \"contracts/prop_test.sol\":4737:4744  endDate */\n              sload(0x03)\n                /* \"contracts/prop_test.sol\":4730:4744  return endDate */\n              swap1\n              pop\n                /* \"contracts/prop_test.sol\":4672:4752  function getEndDate() public view returns(uint){\r... */\n              swap1\n              jump\t// out\n                /* \"contracts/prop_test.sol\":3190:3328  function winnerName() public view returns(string memory winnerName)\r... */\n            tag_74:\n                /* \"contracts/prop_test.sol\":3232:3256  string memory winnerName */\n              0x60\n                /* \"contracts/prop_test.sol\":3287:3296  proposals */\n              0x06\n                /* \"contracts/prop_test.sol\":3297:3314  winningProposal() */\n              tag_139\n                /* \"contracts/prop_test.sol\":3297:3312  winningProposal */\n              tag_39\n                /* \"contracts/prop_test.sol\":3297:3314  winningProposal() */\n              jump\t// in\n            tag_139:\n                /* \"contracts/prop_test.sol\":3287:3315  proposals[winningProposal()] */\n              dup2\n              sload\n              dup2\n              lt\n              tag_140\n              jumpi\n              mstore(0x00, 0x4e487b7100000000000000000000000000000000000000000000000000000000)\n              mstore(0x04, 0x32)\n              revert(0x00, 0x24)\n            tag_140:\n              swap1\n              0x00\n              mstore\n              keccak256(0x00, 0x20)\n              swap1\n              0x02\n              mul\n              add\n                /* \"contracts/prop_test.sol\":3287:3320  proposals[winningProposal()].name */\n              0x00\n              add\n                /* \"contracts/prop_test.sol\":3274:3320  winnerName = proposals[winningProposal()].name */\n              dup1\n              sload\n              tag_142\n              swap1\n              tag_91\n              jump\t// in\n            tag_142:\n              dup1\n              0x1f\n              add\n              0x20\n              dup1\n              swap2\n              div\n              mul\n              0x20\n              add\n              mload(0x40)\n              swap1\n              dup2\n              add\n              0x40\n              mstore\n              dup1\n              swap3\n              swap2\n              swap1\n              dup2\n              dup2\n              mstore\n              0x20\n              add\n              dup3\n              dup1\n              sload\n              tag_143\n              swap1\n              tag_91\n              jump\t// in\n            tag_143:\n              dup1\n              iszero\n              tag_144\n              jumpi\n              dup1\n              0x1f\n              lt\n              tag_145\n              jumpi\n              0x0100\n              dup1\n              dup4\n              sload\n              div\n              mul\n              dup4\n              mstore\n              swap2\n              0x20\n              add\n              swap2\n              jump(tag_144)\n            tag_145:\n              dup3\n              add\n              swap2\n              swap1\n              0x00\n              mstore\n              keccak256(0x00, 0x20)\n              swap1\n            tag_146:\n              dup2\n              sload\n              dup2\n              mstore\n              swap1\n              0x01\n              add\n              swap1\n              0x20\n              add\n              dup1\n              dup4\n              gt\n              tag_146\n              jumpi\n              dup3\n              swap1\n              sub\n              0x1f\n              and\n              dup3\n              add\n              swap2\n            tag_144:\n              pop\n              pop\n              pop\n              pop\n              pop\n              swap1\n              pop\n                /* \"contracts/prop_test.sol\":3190:3328  function winnerName() public view returns(string memory winnerName)\r... */\n              swap1\n              jump\t// out\n                /* \"contracts/prop_test.sol\":4005:4137  function getProposalStructure(uint _proposalId) public view returns(Proposal memory){\r... */\n            tag_79:\n                /* \"contracts/prop_test.sol\":4073:4088  Proposal memory */\n              tag_147\n              tag_148\n              jump\t// in\n            tag_147:\n                /* \"contracts/prop_test.sol\":4107:4116  proposals */\n              0x06\n                /* \"contracts/prop_test.sol\":4117:4128  _proposalId */\n              dup3\n                /* \"contracts/prop_test.sol\":4107:4129  proposals[_proposalId] */\n              dup2\n              sload\n              dup2\n              lt\n              tag_150\n              jumpi\n              mstore(0x00, 0x4e487b7100000000000000000000000000000000000000000000000000000000)\n              mstore(0x04, 0x32)\n              revert(0x00, 0x24)\n            tag_150:\n              swap1\n              0x00\n              mstore\n              keccak256(0x00, 0x20)\n              swap1\n              0x02\n              mul\n              add\n                /* \"contracts/prop_test.sol\":4100:4129  return proposals[_proposalId] */\n              mload(0x40)\n              dup1\n              0x40\n              add\n              0x40\n              mstore\n              swap1\n              dup2\n              0x00\n              dup3\n              add\n              dup1\n              sload\n              tag_152\n              swap1\n              tag_91\n              jump\t// in\n            tag_152:\n              dup1\n              0x1f\n              add\n              0x20\n              dup1\n              swap2\n              div\n              mul\n              0x20\n              add\n              mload(0x40)\n              swap1\n              dup2\n              add\n              0x40\n              mstore\n              dup1\n              swap3\n              swap2\n              swap1\n              dup2\n              dup2\n              mstore\n              0x20\n              add\n              dup3\n              dup1\n              sload\n              tag_153\n              swap1\n              tag_91\n              jump\t// in\n            tag_153:\n              dup1\n              iszero\n              tag_154\n              jumpi\n              dup1\n              0x1f\n              lt\n              tag_155\n              jumpi\n              0x0100\n              dup1\n              dup4\n              sload\n              div\n              mul\n              dup4\n              mstore\n              swap2\n              0x20\n              add\n              swap2\n              jump(tag_154)\n            tag_155:\n              dup3\n              add\n              swap2\n              swap1\n              0x00\n              mstore\n              keccak256(0x00, 0x20)\n              swap1\n            tag_156:\n              dup2\n              sload\n              dup2\n              mstore\n              swap1\n              0x01\n              add\n              swap1\n              0x20\n              add\n              dup1\n              dup4\n              gt\n              tag_156\n              jumpi\n              dup3\n              swap1\n              sub\n              0x1f\n              and\n              dup3\n              add\n              swap2\n            tag_154:\n              pop\n              pop\n              pop\n              pop\n              pop\n              dup2\n              mstore\n              0x20\n              add\n              0x01\n              dup3\n              add\n              sload\n              dup2\n              mstore\n              pop\n              pop\n              swap1\n              pop\n                /* \"contracts/prop_test.sol\":4005:4137  function getProposalStructure(uint _proposalId) public view returns(Proposal memory){\r... */\n              swap2\n              swap1\n              pop\n              jump\t// out\n                /* \"contracts/prop_test.sol\":4313:4392  function setStartDate() internal {\r... */\n            tag_123:\n                /* \"contracts/prop_test.sol\":4369:4384  block.timestamp */\n              timestamp\n                /* \"contracts/prop_test.sol\":4357:4366  startDate */\n              0x02\n                /* \"contracts/prop_test.sol\":4357:4384  startDate = block.timestamp */\n              dup2\n              swap1\n              sstore\n              pop\n                /* \"contracts/prop_test.sol\":4313:4392  function setStartDate() internal {\r... */\n              jump\t// out\n            tag_130:\n              dup3\n              dup1\n              sload\n              tag_158\n              swap1\n              tag_91\n              jump\t// in\n            tag_158:\n              swap1\n              0x00\n              mstore\n              keccak256(0x00, 0x20)\n              swap1\n              0x1f\n              add\n              0x20\n              swap1\n              div\n              dup2\n              add\n              swap3\n              dup3\n              tag_160\n              jumpi\n              0x00\n              dup6\n              sstore\n              jump(tag_159)\n            tag_160:\n              dup3\n              0x1f\n              lt\n              tag_161\n              jumpi\n              dup1\n              mload\n              not(0xff)\n              and\n              dup4\n              dup1\n              add\n              or\n              dup6\n              sstore\n              jump(tag_159)\n            tag_161:\n              dup3\n              dup1\n              add\n              0x01\n              add\n              dup6\n              sstore\n              dup3\n              iszero\n              tag_159\n              jumpi\n              swap2\n              dup3\n              add\n            tag_162:\n              dup3\n              dup2\n              gt\n              iszero\n              tag_163\n              jumpi\n              dup3\n              mload\n              dup3\n              sstore\n              swap2\n              0x20\n              add\n              swap2\n              swap1\n              0x01\n              add\n              swap1\n              jump(tag_162)\n            tag_163:\n            tag_159:\n              pop\n              swap1\n              pop\n              tag_164\n              swap2\n              swap1\n              tag_165\n              jump\t// in\n            tag_164:\n              pop\n              swap1\n              jump\t// out\n            tag_148:\n              mload(0x40)\n              dup1\n              0x40\n              add\n              0x40\n              mstore\n              dup1\n              0x60\n              dup2\n              mstore\n              0x20\n              add\n              0x00\n              dup2\n              mstore\n              pop\n              swap1\n              jump\t// out\n            tag_165:\n            tag_166:\n              dup1\n              dup3\n              gt\n              iszero\n              tag_167\n              jumpi\n              0x00\n              dup2\n              0x00\n              swap1\n              sstore\n              pop\n              0x01\n              add\n              jump(tag_166)\n            tag_167:\n              pop\n              swap1\n              jump\t// out\n                /* \"#utility.yul\":23:638   */\n            tag_169:\n              0x00\n                /* \"#utility.yul\":154:244   */\n              tag_171\n                /* \"#utility.yul\":169:243   */\n              tag_172\n                /* \"#utility.yul\":236:242   */\n              dup5\n                /* \"#utility.yul\":169:243   */\n              tag_173\n              jump\t// in\n            tag_172:\n                /* \"#utility.yul\":154:244   */\n              tag_174\n              jump\t// in\n            tag_171:\n                /* \"#utility.yul\":145:244   */\n              swap1\n              pop\n                /* \"#utility.yul\":264:269   */\n              dup1\n                /* \"#utility.yul\":292:298   */\n              dup4\n                /* \"#utility.yul\":285:290   */\n              dup3\n                /* \"#utility.yul\":278:299   */\n              mstore\n                /* \"#utility.yul\":318:322   */\n              0x20\n                /* \"#utility.yul\":311:316   */\n              dup3\n                /* \"#utility.yul\":307:323   */\n              add\n                /* \"#utility.yul\":300:323   */\n              swap1\n              pop\n                /* \"#utility.yul\":343:349   */\n              dup3\n                /* \"#utility.yul\":374:375   */\n              0x00\n                /* \"#utility.yul\":359:632   */\n            tag_175:\n                /* \"#utility.yul\":384:390   */\n              dup6\n                /* \"#utility.yul\":381:382   */\n              dup2\n                /* \"#utility.yul\":378:391   */\n              lt\n                /* \"#utility.yul\":359:632   */\n              iszero\n              tag_177\n              jumpi\n                /* \"#utility.yul\":476:479   */\n              dup2\n                /* \"#utility.yul\":463:480   */\n              calldataload\n                /* \"#utility.yul\":455:461   */\n              dup6\n                /* \"#utility.yul\":451:481   */\n              add\n                /* \"#utility.yul\":506:553   */\n              tag_178\n                /* \"#utility.yul\":549:552   */\n              dup9\n                /* \"#utility.yul\":537:547   */\n              dup3\n                /* \"#utility.yul\":506:553   */\n              tag_179\n              jump\t// in\n            tag_178:\n                /* \"#utility.yul\":501:504   */\n              dup5\n                /* \"#utility.yul\":494:554   */\n              mstore\n                /* \"#utility.yul\":583:587   */\n              0x20\n                /* \"#utility.yul\":578:581   */\n              dup5\n                /* \"#utility.yul\":574:588   */\n              add\n                /* \"#utility.yul\":567:588   */\n              swap4\n              pop\n                /* \"#utility.yul\":617:621   */\n              0x20\n                /* \"#utility.yul\":612:615   */\n              dup4\n                /* \"#utility.yul\":608:622   */\n              add\n                /* \"#utility.yul\":601:622   */\n              swap3\n              pop\n                /* \"#utility.yul\":419:632   */\n              pop\n                /* \"#utility.yul\":406:407   */\n              0x01\n                /* \"#utility.yul\":403:404   */\n              dup2\n                /* \"#utility.yul\":399:408   */\n              add\n                /* \"#utility.yul\":394:408   */\n              swap1\n              pop\n                /* \"#utility.yul\":359:632   */\n              jump(tag_175)\n            tag_177:\n                /* \"#utility.yul\":363:377   */\n              pop\n                /* \"#utility.yul\":135:638   */\n              pop\n              pop\n              swap4\n              swap3\n              pop\n              pop\n              pop\n              jump\t// out\n                /* \"#utility.yul\":644:988   */\n            tag_180:\n              0x00\n                /* \"#utility.yul\":747:812   */\n              tag_182\n                /* \"#utility.yul\":762:811   */\n              tag_183\n                /* \"#utility.yul\":804:810   */\n              dup5\n                /* \"#utility.yul\":762:811   */\n              tag_184\n              jump\t// in\n            tag_183:\n                /* \"#utility.yul\":747:812   */\n              tag_174\n              jump\t// in\n            tag_182:\n                /* \"#utility.yul\":738:812   */\n              swap1\n              pop\n                /* \"#utility.yul\":835:841   */\n              dup3\n                /* \"#utility.yul\":828:833   */\n              dup2\n                /* \"#utility.yul\":821:842   */\n              mstore\n                /* \"#utility.yul\":873:877   */\n              0x20\n                /* \"#utility.yul\":866:871   */\n              dup2\n                /* \"#utility.yul\":862:878   */\n              add\n                /* \"#utility.yul\":911:914   */\n              dup5\n                /* \"#utility.yul\":902:908   */\n              dup5\n                /* \"#utility.yul\":897:900   */\n              dup5\n                /* \"#utility.yul\":893:909   */\n              add\n                /* \"#utility.yul\":890:915   */\n              gt\n                /* \"#utility.yul\":887:889   */\n              iszero\n              tag_185\n              jumpi\n                /* \"#utility.yul\":928:929   */\n              0x00\n                /* \"#utility.yul\":925:926   */\n              dup1\n                /* \"#utility.yul\":918:930   */\n              revert\n                /* \"#utility.yul\":887:889   */\n            tag_185:\n                /* \"#utility.yul\":941:982   */\n              tag_186\n                /* \"#utility.yul\":975:981   */\n              dup5\n                /* \"#utility.yul\":970:973   */\n              dup3\n                /* \"#utility.yul\":965:968   */\n              dup6\n                /* \"#utility.yul\":941:982   */\n              tag_187\n              jump\t// in\n            tag_186:\n                /* \"#utility.yul\":728:988   */\n              pop\n              swap4\n              swap3\n              pop\n              pop\n              pop\n              jump\t// out\n                /* \"#utility.yul\":994:1133   */\n            tag_188:\n              0x00\n                /* \"#utility.yul\":1078:1084   */\n              dup2\n                /* \"#utility.yul\":1065:1085   */\n              calldataload\n                /* \"#utility.yul\":1056:1085   */\n              swap1\n              pop\n                /* \"#utility.yul\":1094:1127   */\n              tag_190\n                /* \"#utility.yul\":1121:1126   */\n              dup2\n                /* \"#utility.yul\":1094:1127   */\n              tag_191\n              jump\t// in\n            tag_190:\n                /* \"#utility.yul\":1046:1133   */\n              swap3\n              swap2\n              pop\n              pop\n              jump\t// out\n                /* \"#utility.yul\":1155:1478   */\n            tag_192:\n              0x00\n                /* \"#utility.yul\":1285:1288   */\n              dup3\n                /* \"#utility.yul\":1278:1282   */\n              0x1f\n                /* \"#utility.yul\":1270:1276   */\n              dup4\n                /* \"#utility.yul\":1266:1283   */\n              add\n                /* \"#utility.yul\":1262:1289   */\n              slt\n                /* \"#utility.yul\":1252:1254   */\n              tag_194\n              jumpi\n                /* \"#utility.yul\":1303:1304   */\n              0x00\n                /* \"#utility.yul\":1300:1301   */\n              dup1\n                /* \"#utility.yul\":1293:1305   */\n              revert\n                /* \"#utility.yul\":1252:1254   */\n            tag_194:\n                /* \"#utility.yul\":1343:1349   */\n              dup2\n                /* \"#utility.yul\":1330:1350   */\n              calldataload\n                /* \"#utility.yul\":1368:1472   */\n              tag_195\n                /* \"#utility.yul\":1468:1471   */\n              dup5\n                /* \"#utility.yul\":1460:1466   */\n              dup3\n                /* \"#utility.yul\":1453:1457   */\n              0x20\n                /* \"#utility.yul\":1445:1451   */\n              dup7\n                /* \"#utility.yul\":1441:1458   */\n              add\n                /* \"#utility.yul\":1368:1472   */\n              tag_169\n              jump\t// in\n            tag_195:\n                /* \"#utility.yul\":1359:1472   */\n              swap2\n              pop\n                /* \"#utility.yul\":1242:1478   */\n              pop\n              swap3\n              swap2\n              pop\n              pop\n              jump\t// out\n                /* \"#utility.yul\":1498:1771   */\n            tag_179:\n              0x00\n                /* \"#utility.yul\":1603:1606   */\n              dup3\n                /* \"#utility.yul\":1596:1600   */\n              0x1f\n                /* \"#utility.yul\":1588:1594   */\n              dup4\n                /* \"#utility.yul\":1584:1601   */\n              add\n                /* \"#utility.yul\":1580:1607   */\n              slt\n                /* \"#utility.yul\":1570:1572   */\n              tag_197\n              jumpi\n                /* \"#utility.yul\":1621:1622   */\n              0x00\n                /* \"#utility.yul\":1618:1619   */\n              dup1\n                /* \"#utility.yul\":1611:1623   */\n              revert\n                /* \"#utility.yul\":1570:1572   */\n            tag_197:\n                /* \"#utility.yul\":1661:1667   */\n              dup2\n                /* \"#utility.yul\":1648:1668   */\n              calldataload\n                /* \"#utility.yul\":1686:1765   */\n              tag_198\n                /* \"#utility.yul\":1761:1764   */\n              dup5\n                /* \"#utility.yul\":1753:1759   */\n              dup3\n                /* \"#utility.yul\":1746:1750   */\n              0x20\n                /* \"#utility.yul\":1738:1744   */\n              dup7\n                /* \"#utility.yul\":1734:1751   */\n              add\n                /* \"#utility.yul\":1686:1765   */\n              tag_180\n              jump\t// in\n            tag_198:\n                /* \"#utility.yul\":1677:1765   */\n              swap2\n              pop\n                /* \"#utility.yul\":1560:1771   */\n              pop\n              swap3\n              swap2\n              pop\n              pop\n              jump\t// out\n                /* \"#utility.yul\":1777:1916   */\n            tag_199:\n              0x00\n                /* \"#utility.yul\":1861:1867   */\n              dup2\n                /* \"#utility.yul\":1848:1868   */\n              calldataload\n                /* \"#utility.yul\":1839:1868   */\n              swap1\n              pop\n                /* \"#utility.yul\":1877:1910   */\n              tag_201\n                /* \"#utility.yul\":1904:1909   */\n              dup2\n                /* \"#utility.yul\":1877:1910   */\n              tag_202\n              jump\t// in\n            tag_201:\n                /* \"#utility.yul\":1829:1916   */\n              swap3\n              swap2\n              pop\n              pop\n              jump\t// out\n                /* \"#utility.yul\":1922:2184   */\n            tag_63:\n              0x00\n                /* \"#utility.yul\":2030:2032   */\n              0x20\n                /* \"#utility.yul\":2018:2027   */\n              dup3\n                /* \"#utility.yul\":2009:2016   */\n              dup5\n                /* \"#utility.yul\":2005:2028   */\n              sub\n                /* \"#utility.yul\":2001:2033   */\n              slt\n                /* \"#utility.yul\":1998:2000   */\n              iszero\n              tag_204\n              jumpi\n                /* \"#utility.yul\":2046:2047   */\n              0x00\n                /* \"#utility.yul\":2043:2044   */\n              dup1\n                /* \"#utility.yul\":2036:2048   */\n              revert\n                /* \"#utility.yul\":1998:2000   */\n            tag_204:\n                /* \"#utility.yul\":2089:2090   */\n              0x00\n                /* \"#utility.yul\":2114:2167   */\n              tag_205\n                /* \"#utility.yul\":2159:2166   */\n              dup5\n                /* \"#utility.yul\":2150:2156   */\n              dup3\n                /* \"#utility.yul\":2139:2148   */\n              dup6\n                /* \"#utility.yul\":2135:2157   */\n              add\n                /* \"#utility.yul\":2114:2167   */\n              tag_188\n              jump\t// in\n            tag_205:\n                /* \"#utility.yul\":2104:2167   */\n              swap2\n              pop\n                /* \"#utility.yul\":2060:2177   */\n              pop\n                /* \"#utility.yul\":1988:2184   */\n              swap3\n              swap2\n              pop\n              pop\n              jump\t// out\n                /* \"#utility.yul\":2190:2615   */\n            tag_57:\n              0x00\n                /* \"#utility.yul\":2333:2335   */\n              0x20\n                /* \"#utility.yul\":2321:2330   */\n              dup3\n                /* \"#utility.yul\":2312:2319   */\n              dup5\n                /* \"#utility.yul\":2308:2331   */\n              sub\n                /* \"#utility.yul\":2304:2336   */\n              slt\n                /* \"#utility.yul\":2301:2303   */\n              iszero\n              tag_207\n              jumpi\n                /* \"#utility.yul\":2349:2350   */\n              0x00\n                /* \"#utility.yul\":2346:2347   */\n              dup1\n                /* \"#utility.yul\":2339:2351   */\n              revert\n                /* \"#utility.yul\":2301:2303   */\n            tag_207:\n                /* \"#utility.yul\":2420:2421   */\n              0x00\n                /* \"#utility.yul\":2409:2418   */\n              dup3\n                /* \"#utility.yul\":2405:2422   */\n              add\n                /* \"#utility.yul\":2392:2423   */\n              calldataload\n                /* \"#utility.yul\":2450:2468   */\n              0xffffffffffffffff\n                /* \"#utility.yul\":2442:2448   */\n              dup2\n                /* \"#utility.yul\":2439:2469   */\n              gt\n                /* \"#utility.yul\":2436:2438   */\n              iszero\n              tag_208\n              jumpi\n                /* \"#utility.yul\":2482:2483   */\n              0x00\n                /* \"#utility.yul\":2479:2480   */\n              dup1\n                /* \"#utility.yul\":2472:2484   */\n              revert\n                /* \"#utility.yul\":2436:2438   */\n            tag_208:\n                /* \"#utility.yul\":2510:2598   */\n              tag_209\n                /* \"#utility.yul\":2590:2597   */\n              dup5\n                /* \"#utility.yul\":2581:2587   */\n              dup3\n                /* \"#utility.yul\":2570:2579   */\n              dup6\n                /* \"#utility.yul\":2566:2588   */\n              add\n                /* \"#utility.yul\":2510:2598   */\n              tag_192\n              jump\t// in\n            tag_209:\n                /* \"#utility.yul\":2500:2598   */\n              swap2\n              pop\n                /* \"#utility.yul\":2363:2608   */\n              pop\n                /* \"#utility.yul\":2291:2615   */\n              swap3\n              swap2\n              pop\n              pop\n              jump\t// out\n                /* \"#utility.yul\":2621:2883   */\n            tag_24:\n              0x00\n                /* \"#utility.yul\":2729:2731   */\n              0x20\n                /* \"#utility.yul\":2717:2726   */\n              dup3\n                /* \"#utility.yul\":2708:2715   */\n              dup5\n                /* \"#utility.yul\":2704:2727   */\n              sub\n                /* \"#utility.yul\":2700:2732   */\n              slt\n                /* \"#utility.yul\":2697:2699   */\n              iszero\n              tag_211\n              jumpi\n                /* \"#utility.yul\":2745:2746   */\n              0x00\n                /* \"#utility.yul\":2742:2743   */\n              dup1\n                /* \"#utility.yul\":2735:2747   */\n              revert\n                /* \"#utility.yul\":2697:2699   */\n            tag_211:\n                /* \"#utility.yul\":2788:2789   */\n              0x00\n                /* \"#utility.yul\":2813:2866   */\n              tag_212\n                /* \"#utility.yul\":2858:2865   */\n              dup5\n                /* \"#utility.yul\":2849:2855   */\n              dup3\n                /* \"#utility.yul\":2838:2847   */\n              dup6\n                /* \"#utility.yul\":2834:2856   */\n              add\n                /* \"#utility.yul\":2813:2866   */\n              tag_199\n              jump\t// in\n            tag_212:\n                /* \"#utility.yul\":2803:2866   */\n              swap2\n              pop\n                /* \"#utility.yul\":2759:2876   */\n              pop\n                /* \"#utility.yul\":2687:2883   */\n              swap3\n              swap2\n              pop\n              pop\n              jump\t// out\n                /* \"#utility.yul\":2889:3141   */\n            tag_213:\n              0x00\n                /* \"#utility.yul\":3041:3135   */\n              tag_215\n                /* \"#utility.yul\":3131:3134   */\n              dup4\n                /* \"#utility.yul\":3123:3129   */\n              dup4\n                /* \"#utility.yul\":3041:3135   */\n              tag_216\n              jump\t// in\n            tag_215:\n                /* \"#utility.yul\":3027:3135   */\n              swap1\n              pop\n                /* \"#utility.yul\":3017:3141   */\n              swap3\n              swap2\n              pop\n              pop\n              jump\t// out\n                /* \"#utility.yul\":3147:3265   */\n            tag_217:\n                /* \"#utility.yul\":3234:3258   */\n              tag_219\n                /* \"#utility.yul\":3252:3257   */\n              dup2\n                /* \"#utility.yul\":3234:3258   */\n              tag_220\n              jump\t// in\n            tag_219:\n                /* \"#utility.yul\":3229:3232   */\n              dup3\n                /* \"#utility.yul\":3222:3259   */\n              mstore\n                /* \"#utility.yul\":3212:3265   */\n              pop\n              pop\n              jump\t// out\n                /* \"#utility.yul\":3331:4434   */\n            tag_221:\n              0x00\n                /* \"#utility.yul\":3527:3605   */\n              tag_223\n                /* \"#utility.yul\":3599:3604   */\n              dup3\n                /* \"#utility.yul\":3527:3605   */\n              tag_224\n              jump\t// in\n            tag_223:\n                /* \"#utility.yul\":3621:3731   */\n              tag_225\n                /* \"#utility.yul\":3724:3730   */\n              dup2\n                /* \"#utility.yul\":3719:3722   */\n              dup6\n                /* \"#utility.yul\":3621:3731   */\n              tag_226\n              jump\t// in\n            tag_225:\n                /* \"#utility.yul\":3614:3731   */\n              swap4\n              pop\n                /* \"#utility.yul\":3757:3760   */\n              dup4\n                /* \"#utility.yul\":3802:3806   */\n              0x20\n                /* \"#utility.yul\":3794:3800   */\n              dup3\n                /* \"#utility.yul\":3790:3807   */\n              mul\n                /* \"#utility.yul\":3785:3788   */\n              dup6\n                /* \"#utility.yul\":3781:3808   */\n              add\n                /* \"#utility.yul\":3832:3912   */\n              tag_227\n                /* \"#utility.yul\":3906:3911   */\n              dup6\n                /* \"#utility.yul\":3832:3912   */\n              tag_228\n              jump\t// in\n            tag_227:\n                /* \"#utility.yul\":3935:3942   */\n              dup1\n                /* \"#utility.yul\":3966:3967   */\n              0x00\n                /* \"#utility.yul\":3951:4389   */\n            tag_229:\n                /* \"#utility.yul\":3976:3982   */\n              dup6\n                /* \"#utility.yul\":3973:3974   */\n              dup2\n                /* \"#utility.yul\":3970:3983   */\n              lt\n                /* \"#utility.yul\":3951:4389   */\n              iszero\n              tag_231\n              jumpi\n                /* \"#utility.yul\":4047:4056   */\n              dup5\n                /* \"#utility.yul\":4041:4045   */\n              dup5\n                /* \"#utility.yul\":4037:4057   */\n              sub\n                /* \"#utility.yul\":4032:4035   */\n              dup10\n                /* \"#utility.yul\":4025:4058   */\n              mstore\n                /* \"#utility.yul\":4098:4104   */\n              dup2\n                /* \"#utility.yul\":4092:4105   */\n              mload\n                /* \"#utility.yul\":4126:4238   */\n              tag_232\n                /* \"#utility.yul\":4233:4237   */\n              dup6\n                /* \"#utility.yul\":4218:4231   */\n              dup3\n                /* \"#utility.yul\":4126:4238   */\n              tag_213\n              jump\t// in\n            tag_232:\n                /* \"#utility.yul\":4118:4238   */\n              swap5\n              pop\n                /* \"#utility.yul\":4261:4345   */\n              tag_233\n                /* \"#utility.yul\":4338:4344   */\n              dup4\n                /* \"#utility.yul\":4261:4345   */\n              tag_234\n              jump\t// in\n            tag_233:\n                /* \"#utility.yul\":4251:4345   */\n              swap3\n              pop\n                /* \"#utility.yul\":4374:4378   */\n              0x20\n                /* \"#utility.yul\":4369:4372   */\n              dup11\n                /* \"#utility.yul\":4365:4379   */\n              add\n                /* \"#utility.yul\":4358:4379   */\n              swap10\n              pop\n                /* \"#utility.yul\":4011:4389   */\n              pop\n                /* \"#utility.yul\":3998:3999   */\n              0x01\n                /* \"#utility.yul\":3995:3996   */\n              dup2\n                /* \"#utility.yul\":3991:4000   */\n              add\n                /* \"#utility.yul\":3986:4000   */\n              swap1\n              pop\n                /* \"#utility.yul\":3951:4389   */\n              jump(tag_229)\n            tag_231:\n                /* \"#utility.yul\":3955:3969   */\n              pop\n                /* \"#utility.yul\":4405:4409   */\n              dup3\n                /* \"#utility.yul\":4398:4409   */\n              swap8\n              pop\n                /* \"#utility.yul\":4425:4428   */\n              dup8\n                /* \"#utility.yul\":4418:4428   */\n              swap6\n              pop\n                /* \"#utility.yul\":3503:4434   */\n              pop\n              pop\n              pop\n              pop\n              pop\n              swap3\n              swap2\n              pop\n              pop\n              jump\t// out\n                /* \"#utility.yul\":4440:4549   */\n            tag_235:\n                /* \"#utility.yul\":4521:4542   */\n              tag_237\n                /* \"#utility.yul\":4536:4541   */\n              dup2\n                /* \"#utility.yul\":4521:4542   */\n              tag_238\n              jump\t// in\n            tag_237:\n                /* \"#utility.yul\":4516:4519   */\n              dup3\n                /* \"#utility.yul\":4509:4543   */\n              mstore\n                /* \"#utility.yul\":4499:4549   */\n              pop\n              pop\n              jump\t// out\n                /* \"#utility.yul\":4555:4899   */\n            tag_239:\n              0x00\n                /* \"#utility.yul\":4661:4700   */\n              tag_241\n                /* \"#utility.yul\":4694:4699   */\n              dup3\n                /* \"#utility.yul\":4661:4700   */\n              tag_242\n              jump\t// in\n            tag_241:\n                /* \"#utility.yul\":4716:4777   */\n              tag_243\n                /* \"#utility.yul\":4770:4776   */\n              dup2\n                /* \"#utility.yul\":4765:4768   */\n              dup6\n                /* \"#utility.yul\":4716:4777   */\n              tag_244\n              jump\t// in\n            tag_243:\n                /* \"#utility.yul\":4709:4777   */\n              swap4\n              pop\n                /* \"#utility.yul\":4786:4838   */\n              tag_245\n                /* \"#utility.yul\":4831:4837   */\n              dup2\n                /* \"#utility.yul\":4826:4829   */\n              dup6\n                /* \"#utility.yul\":4819:4823   */\n              0x20\n                /* \"#utility.yul\":4812:4817   */\n              dup7\n                /* \"#utility.yul\":4808:4824   */\n              add\n                /* \"#utility.yul\":4786:4838   */\n              tag_246\n              jump\t// in\n            tag_245:\n                /* \"#utility.yul\":4863:4892   */\n              tag_247\n                /* \"#utility.yul\":4885:4891   */\n              dup2\n                /* \"#utility.yul\":4863:4892   */\n              tag_248\n              jump\t// in\n            tag_247:\n                /* \"#utility.yul\":4858:4861   */\n              dup5\n                /* \"#utility.yul\":4854:4893   */\n              add\n                /* \"#utility.yul\":4847:4893   */\n              swap2\n              pop\n                /* \"#utility.yul\":4637:4899   */\n              pop\n              swap3\n              swap2\n              pop\n              pop\n              jump\t// out\n                /* \"#utility.yul\":4905:5269   */\n            tag_249:\n              0x00\n                /* \"#utility.yul\":5021:5060   */\n              tag_251\n                /* \"#utility.yul\":5054:5059   */\n              dup3\n                /* \"#utility.yul\":5021:5060   */\n              tag_242\n              jump\t// in\n            tag_251:\n                /* \"#utility.yul\":5076:5147   */\n              tag_252\n                /* \"#utility.yul\":5140:5146   */\n              dup2\n                /* \"#utility.yul\":5135:5138   */\n              dup6\n                /* \"#utility.yul\":5076:5147   */\n              tag_253\n              jump\t// in\n            tag_252:\n                /* \"#utility.yul\":5069:5147   */\n              swap4\n              pop\n                /* \"#utility.yul\":5156:5208   */\n              tag_254\n                /* \"#utility.yul\":5201:5207   */\n              dup2\n                /* \"#utility.yul\":5196:5199   */\n              dup6\n                /* \"#utility.yul\":5189:5193   */\n              0x20\n                /* \"#utility.yul\":5182:5187   */\n              dup7\n                /* \"#utility.yul\":5178:5194   */\n              add\n                /* \"#utility.yul\":5156:5208   */\n              tag_246\n              jump\t// in\n            tag_254:\n                /* \"#utility.yul\":5233:5262   */\n              tag_255\n                /* \"#utility.yul\":5255:5261   */\n              dup2\n                /* \"#utility.yul\":5233:5262   */\n              tag_248\n              jump\t// in\n            tag_255:\n                /* \"#utility.yul\":5228:5231   */\n              dup5\n                /* \"#utility.yul\":5224:5263   */\n              add\n                /* \"#utility.yul\":5217:5263   */\n              swap2\n              pop\n                /* \"#utility.yul\":4997:5269   */\n              pop\n              swap3\n              swap2\n              pop\n              pop\n              jump\t// out\n                /* \"#utility.yul\":5331:5930   */\n            tag_216:\n              0x00\n                /* \"#utility.yul\":5474:5478   */\n              0x40\n                /* \"#utility.yul\":5469:5472   */\n              dup4\n                /* \"#utility.yul\":5465:5479   */\n              add\n                /* \"#utility.yul\":5561:5565   */\n              0x00\n                /* \"#utility.yul\":5554:5559   */\n              dup4\n                /* \"#utility.yul\":5550:5566   */\n              add\n                /* \"#utility.yul\":5544:5567   */\n              mload\n                /* \"#utility.yul\":5614:5617   */\n              dup5\n                /* \"#utility.yul\":5608:5612   */\n              dup3\n                /* \"#utility.yul\":5604:5618   */\n              sub\n                /* \"#utility.yul\":5597:5601   */\n              0x00\n                /* \"#utility.yul\":5592:5595   */\n              dup7\n                /* \"#utility.yul\":5588:5602   */\n              add\n                /* \"#utility.yul\":5581:5619   */\n              mstore\n                /* \"#utility.yul\":5640:5713   */\n              tag_257\n                /* \"#utility.yul\":5708:5712   */\n              dup3\n                /* \"#utility.yul\":5694:5706   */\n              dup3\n                /* \"#utility.yul\":5640:5713   */\n              tag_239\n              jump\t// in\n            tag_257:\n                /* \"#utility.yul\":5632:5713   */\n              swap2\n              pop\n                /* \"#utility.yul\":5489:5724   */\n              pop\n                /* \"#utility.yul\":5811:5815   */\n              0x20\n                /* \"#utility.yul\":5804:5809   */\n              dup4\n                /* \"#utility.yul\":5800:5816   */\n              add\n                /* \"#utility.yul\":5794:5817   */\n              mload\n                /* \"#utility.yul\":5830:5893   */\n              tag_258\n                /* \"#utility.yul\":5887:5891   */\n              0x20\n                /* \"#utility.yul\":5882:5885   */\n              dup7\n                /* \"#utility.yul\":5878:5892   */\n              add\n                /* \"#utility.yul\":5864:5876   */\n              dup3\n                /* \"#utility.yul\":5830:5893   */\n              tag_259\n              jump\t// in\n            tag_258:\n                /* \"#utility.yul\":5734:5903   */\n              pop\n                /* \"#utility.yul\":5920:5924   */\n              dup1\n                /* \"#utility.yul\":5913:5924   */\n              swap2\n              pop\n                /* \"#utility.yul\":5443:5930   */\n              pop\n              swap3\n              swap2\n              pop\n              pop\n              jump\t// out\n                /* \"#utility.yul\":5992:6601   */\n            tag_260:\n              0x00\n                /* \"#utility.yul\":6145:6149   */\n              0x40\n                /* \"#utility.yul\":6140:6143   */\n              dup4\n                /* \"#utility.yul\":6136:6150   */\n              add\n                /* \"#utility.yul\":6232:6236   */\n              0x00\n                /* \"#utility.yul\":6225:6230   */\n              dup4\n                /* \"#utility.yul\":6221:6237   */\n              add\n                /* \"#utility.yul\":6215:6238   */\n              mload\n                /* \"#utility.yul\":6285:6288   */\n              dup5\n                /* \"#utility.yul\":6279:6283   */\n              dup3\n                /* \"#utility.yul\":6275:6289   */\n              sub\n                /* \"#utility.yul\":6268:6272   */\n              0x00\n                /* \"#utility.yul\":6263:6266   */\n              dup7\n                /* \"#utility.yul\":6259:6273   */\n              add\n                /* \"#utility.yul\":6252:6290   */\n              mstore\n                /* \"#utility.yul\":6311:6384   */\n              tag_262\n                /* \"#utility.yul\":6379:6383   */\n              dup3\n                /* \"#utility.yul\":6365:6377   */\n              dup3\n                /* \"#utility.yul\":6311:6384   */\n              tag_239\n              jump\t// in\n            tag_262:\n                /* \"#utility.yul\":6303:6384   */\n              swap2\n              pop\n                /* \"#utility.yul\":6160:6395   */\n              pop\n                /* \"#utility.yul\":6482:6486   */\n              0x20\n                /* \"#utility.yul\":6475:6480   */\n              dup4\n                /* \"#utility.yul\":6471:6487   */\n              add\n                /* \"#utility.yul\":6465:6488   */\n              mload\n                /* \"#utility.yul\":6501:6564   */\n              tag_263\n                /* \"#utility.yul\":6558:6562   */\n              0x20\n                /* \"#utility.yul\":6553:6556   */\n              dup7\n                /* \"#utility.yul\":6549:6563   */\n              add\n                /* \"#utility.yul\":6535:6547   */\n              dup3\n                /* \"#utility.yul\":6501:6564   */\n              tag_259\n              jump\t// in\n            tag_263:\n                /* \"#utility.yul\":6405:6574   */\n              pop\n                /* \"#utility.yul\":6591:6595   */\n              dup1\n                /* \"#utility.yul\":6584:6595   */\n              swap2\n              pop\n                /* \"#utility.yul\":6114:6601   */\n              pop\n              swap3\n              swap2\n              pop\n              pop\n              jump\t// out\n                /* \"#utility.yul\":6607:6715   */\n            tag_259:\n                /* \"#utility.yul\":6684:6708   */\n              tag_265\n                /* \"#utility.yul\":6702:6707   */\n              dup2\n                /* \"#utility.yul\":6684:6708   */\n              tag_266\n              jump\t// in\n            tag_265:\n                /* \"#utility.yul\":6679:6682   */\n              dup3\n                /* \"#utility.yul\":6672:6709   */\n              mstore\n                /* \"#utility.yul\":6662:6715   */\n              pop\n              pop\n              jump\t// out\n                /* \"#utility.yul\":6721:6839   */\n            tag_267:\n                /* \"#utility.yul\":6808:6832   */\n              tag_269\n                /* \"#utility.yul\":6826:6831   */\n              dup2\n                /* \"#utility.yul\":6808:6832   */\n              tag_266\n              jump\t// in\n            tag_269:\n                /* \"#utility.yul\":6803:6806   */\n              dup3\n                /* \"#utility.yul\":6796:6833   */\n              mstore\n                /* \"#utility.yul\":6786:6839   */\n              pop\n              pop\n              jump\t// out\n                /* \"#utility.yul\":6845:7067   */\n            tag_54:\n              0x00\n                /* \"#utility.yul\":6976:6978   */\n              0x20\n                /* \"#utility.yul\":6965:6974   */\n              dup3\n                /* \"#utility.yul\":6961:6979   */\n              add\n                /* \"#utility.yul\":6953:6979   */\n              swap1\n              pop\n                /* \"#utility.yul\":6989:7060   */\n              tag_271\n                /* \"#utility.yul\":7057:7058   */\n              0x00\n                /* \"#utility.yul\":7046:7055   */\n              dup4\n                /* \"#utility.yul\":7042:7059   */\n              add\n                /* \"#utility.yul\":7033:7039   */\n              dup5\n                /* \"#utility.yul\":6989:7060   */\n              tag_217\n              jump\t// in\n            tag_271:\n                /* \"#utility.yul\":6943:7067   */\n              swap3\n              swap2\n              pop\n              pop\n              jump\t// out\n                /* \"#utility.yul\":7073:7542   */\n            tag_44:\n              0x00\n                /* \"#utility.yul\":7302:7304   */\n              0x20\n                /* \"#utility.yul\":7291:7300   */\n              dup3\n                /* \"#utility.yul\":7287:7305   */\n              add\n                /* \"#utility.yul\":7279:7305   */\n              swap1\n              pop\n                /* \"#utility.yul\":7351:7360   */\n              dup2\n                /* \"#utility.yul\":7345:7349   */\n              dup2\n                /* \"#utility.yul\":7341:7361   */\n              sub\n                /* \"#utility.yul\":7337:7338   */\n              0x00\n                /* \"#utility.yul\":7326:7335   */\n              dup4\n                /* \"#utility.yul\":7322:7339   */\n              add\n                /* \"#utility.yul\":7315:7362   */\n              mstore\n                /* \"#utility.yul\":7379:7535   */\n              tag_273\n                /* \"#utility.yul\":7530:7534   */\n              dup2\n                /* \"#utility.yul\":7521:7527   */\n              dup5\n                /* \"#utility.yul\":7379:7535   */\n              tag_221\n              jump\t// in\n            tag_273:\n                /* \"#utility.yul\":7371:7535   */\n              swap1\n              pop\n                /* \"#utility.yul\":7269:7542   */\n              swap3\n              swap2\n              pop\n              pop\n              jump\t// out\n                /* \"#utility.yul\":7548:7861   */\n            tag_76:\n              0x00\n                /* \"#utility.yul\":7699:7701   */\n              0x20\n                /* \"#utility.yul\":7688:7697   */\n              dup3\n                /* \"#utility.yul\":7684:7702   */\n              add\n                /* \"#utility.yul\":7676:7702   */\n              swap1\n              pop\n                /* \"#utility.yul\":7748:7757   */\n              dup2\n                /* \"#utility.yul\":7742:7746   */\n              dup2\n                /* \"#utility.yul\":7738:7758   */\n              sub\n                /* \"#utility.yul\":7734:7735   */\n              0x00\n                /* \"#utility.yul\":7723:7732   */\n              dup4\n                /* \"#utility.yul\":7719:7736   */\n              add\n                /* \"#utility.yul\":7712:7759   */\n              mstore\n                /* \"#utility.yul\":7776:7854   */\n              tag_275\n                /* \"#utility.yul\":7849:7853   */\n              dup2\n                /* \"#utility.yul\":7840:7846   */\n              dup5\n                /* \"#utility.yul\":7776:7854   */\n              tag_249\n              jump\t// in\n            tag_275:\n                /* \"#utility.yul\":7768:7854   */\n              swap1\n              pop\n                /* \"#utility.yul\":7666:7861   */\n              swap3\n              swap2\n              pop\n              pop\n              jump\t// out\n                /* \"#utility.yul\":7867:8290   */\n            tag_30:\n              0x00\n                /* \"#utility.yul\":8046:8048   */\n              0x40\n                /* \"#utility.yul\":8035:8044   */\n              dup3\n                /* \"#utility.yul\":8031:8049   */\n              add\n                /* \"#utility.yul\":8023:8049   */\n              swap1\n              pop\n                /* \"#utility.yul\":8095:8104   */\n              dup2\n                /* \"#utility.yul\":8089:8093   */\n              dup2\n                /* \"#utility.yul\":8085:8105   */\n              sub\n                /* \"#utility.yul\":8081:8082   */\n              0x00\n                /* \"#utility.yul\":8070:8079   */\n              dup4\n                /* \"#utility.yul\":8066:8083   */\n              add\n                /* \"#utility.yul\":8059:8106   */\n              mstore\n                /* \"#utility.yul\":8123:8201   */\n              tag_277\n                /* \"#utility.yul\":8196:8200   */\n              dup2\n                /* \"#utility.yul\":8187:8193   */\n              dup6\n                /* \"#utility.yul\":8123:8201   */\n              tag_249\n              jump\t// in\n            tag_277:\n                /* \"#utility.yul\":8115:8201   */\n              swap1\n              pop\n                /* \"#utility.yul\":8211:8283   */\n              tag_278\n                /* \"#utility.yul\":8279:8281   */\n              0x20\n                /* \"#utility.yul\":8268:8277   */\n              dup4\n                /* \"#utility.yul\":8264:8282   */\n              add\n                /* \"#utility.yul\":8255:8261   */\n              dup5\n                /* \"#utility.yul\":8211:8283   */\n              tag_267\n              jump\t// in\n            tag_278:\n                /* \"#utility.yul\":8013:8290   */\n              swap4\n              swap3\n              pop\n              pop\n              pop\n              jump\t// out\n                /* \"#utility.yul\":8296:8665   */\n            tag_81:\n              0x00\n                /* \"#utility.yul\":8475:8477   */\n              0x20\n                /* \"#utility.yul\":8464:8473   */\n              dup3\n                /* \"#utility.yul\":8460:8478   */\n              add\n                /* \"#utility.yul\":8452:8478   */\n              swap1\n              pop\n                /* \"#utility.yul\":8524:8533   */\n              dup2\n                /* \"#utility.yul\":8518:8522   */\n              dup2\n                /* \"#utility.yul\":8514:8534   */\n              sub\n                /* \"#utility.yul\":8510:8511   */\n              0x00\n                /* \"#utility.yul\":8499:8508   */\n              dup4\n                /* \"#utility.yul\":8495:8512   */\n              add\n                /* \"#utility.yul\":8488:8535   */\n              mstore\n                /* \"#utility.yul\":8552:8658   */\n              tag_280\n                /* \"#utility.yul\":8653:8657   */\n              dup2\n                /* \"#utility.yul\":8644:8650   */\n              dup5\n                /* \"#utility.yul\":8552:8658   */\n              tag_260\n              jump\t// in\n            tag_280:\n                /* \"#utility.yul\":8544:8658   */\n              swap1\n              pop\n                /* \"#utility.yul\":8442:8665   */\n              swap3\n              swap2\n              pop\n              pop\n              jump\t// out\n                /* \"#utility.yul\":8671:8893   */\n            tag_34:\n              0x00\n                /* \"#utility.yul\":8802:8804   */\n              0x20\n                /* \"#utility.yul\":8791:8800   */\n              dup3\n                /* \"#utility.yul\":8787:8805   */\n              add\n                /* \"#utility.yul\":8779:8805   */\n              swap1\n              pop\n                /* \"#utility.yul\":8815:8886   */\n              tag_282\n                /* \"#utility.yul\":8883:8884   */\n              0x00\n                /* \"#utility.yul\":8872:8881   */\n              dup4\n                /* \"#utility.yul\":8868:8885   */\n              add\n                /* \"#utility.yul\":8859:8865   */\n              dup5\n                /* \"#utility.yul\":8815:8886   */\n              tag_267\n              jump\t// in\n            tag_282:\n                /* \"#utility.yul\":8769:8893   */\n              swap3\n              swap2\n              pop\n              pop\n              jump\t// out\n                /* \"#utility.yul\":8899:9440   */\n            tag_69:\n              0x00\n                /* \"#utility.yul\":9108:9111   */\n              0x80\n                /* \"#utility.yul\":9097:9106   */\n              dup3\n                /* \"#utility.yul\":9093:9112   */\n              add\n                /* \"#utility.yul\":9085:9112   */\n              swap1\n              pop\n                /* \"#utility.yul\":9122:9193   */\n              tag_284\n                /* \"#utility.yul\":9190:9191   */\n              0x00\n                /* \"#utility.yul\":9179:9188   */\n              dup4\n                /* \"#utility.yul\":9175:9192   */\n              add\n                /* \"#utility.yul\":9166:9172   */\n              dup8\n                /* \"#utility.yul\":9122:9193   */\n              tag_267\n              jump\t// in\n            tag_284:\n                /* \"#utility.yul\":9203:9269   */\n              tag_285\n                /* \"#utility.yul\":9265:9267   */\n              0x20\n                /* \"#utility.yul\":9254:9263   */\n              dup4\n                /* \"#utility.yul\":9250:9268   */\n              add\n                /* \"#utility.yul\":9241:9247   */\n              dup7\n                /* \"#utility.yul\":9203:9269   */\n              tag_235\n              jump\t// in\n            tag_285:\n                /* \"#utility.yul\":9279:9351   */\n              tag_286\n                /* \"#utility.yul\":9347:9349   */\n              0x40\n                /* \"#utility.yul\":9336:9345   */\n              dup4\n                /* \"#utility.yul\":9332:9350   */\n              add\n                /* \"#utility.yul\":9323:9329   */\n              dup6\n                /* \"#utility.yul\":9279:9351   */\n              tag_217\n              jump\t// in\n            tag_286:\n                /* \"#utility.yul\":9361:9433   */\n              tag_287\n                /* \"#utility.yul\":9429:9431   */\n              0x60\n                /* \"#utility.yul\":9418:9427   */\n              dup4\n                /* \"#utility.yul\":9414:9432   */\n              add\n                /* \"#utility.yul\":9405:9411   */\n              dup5\n                /* \"#utility.yul\":9361:9433   */\n              tag_267\n              jump\t// in\n            tag_287:\n                /* \"#utility.yul\":9075:9440   */\n              swap6\n              swap5\n              pop\n              pop\n              pop\n              pop\n              pop\n              jump\t// out\n                /* \"#utility.yul\":9446:9729   */\n            tag_174:\n              0x00\n                /* \"#utility.yul\":9512:9514   */\n              0x40\n                /* \"#utility.yul\":9506:9515   */\n              mload\n                /* \"#utility.yul\":9496:9515   */\n              swap1\n              pop\n                /* \"#utility.yul\":9554:9558   */\n              dup2\n                /* \"#utility.yul\":9546:9552   */\n              dup2\n                /* \"#utility.yul\":9542:9559   */\n              add\n                /* \"#utility.yul\":9661:9667   */\n              dup2\n                /* \"#utility.yul\":9649:9659   */\n              dup2\n                /* \"#utility.yul\":9646:9668   */\n              lt\n                /* \"#utility.yul\":9625:9643   */\n              0xffffffffffffffff\n                /* \"#utility.yul\":9613:9623   */\n              dup3\n                /* \"#utility.yul\":9610:9644   */\n              gt\n                /* \"#utility.yul\":9607:9669   */\n              or\n                /* \"#utility.yul\":9604:9606   */\n              iszero\n              tag_289\n              jumpi\n                /* \"#utility.yul\":9672:9690   */\n              tag_290\n              tag_291\n              jump\t// in\n            tag_290:\n                /* \"#utility.yul\":9604:9606   */\n            tag_289:\n                /* \"#utility.yul\":9712:9722   */\n              dup1\n                /* \"#utility.yul\":9708:9710   */\n              0x40\n                /* \"#utility.yul\":9701:9723   */\n              mstore\n                /* \"#utility.yul\":9486:9729   */\n              pop\n              swap2\n              swap1\n              pop\n              jump\t// out\n                /* \"#utility.yul\":9735:10056   */\n            tag_173:\n              0x00\n                /* \"#utility.yul\":9912:9930   */\n              0xffffffffffffffff\n                /* \"#utility.yul\":9904:9910   */\n              dup3\n                /* \"#utility.yul\":9901:9931   */\n              gt\n                /* \"#utility.yul\":9898:9900   */\n              iszero\n              tag_293\n              jumpi\n                /* \"#utility.yul\":9934:9952   */\n              tag_294\n              tag_291\n              jump\t// in\n            tag_294:\n                /* \"#utility.yul\":9898:9900   */\n            tag_293:\n                /* \"#utility.yul\":9984:9988   */\n              0x20\n                /* \"#utility.yul\":9976:9982   */\n              dup3\n                /* \"#utility.yul\":9972:9989   */\n              mul\n                /* \"#utility.yul\":9964:9989   */\n              swap1\n              pop\n                /* \"#utility.yul\":10044:10048   */\n              0x20\n                /* \"#utility.yul\":10038:10042   */\n              dup2\n                /* \"#utility.yul\":10034:10049   */\n              add\n                /* \"#utility.yul\":10026:10049   */\n              swap1\n              pop\n                /* \"#utility.yul\":9827:10056   */\n              swap2\n              swap1\n              pop\n              jump\t// out\n                /* \"#utility.yul\":10062:10394   */\n            tag_184:\n              0x00\n                /* \"#utility.yul\":10214:10232   */\n              0xffffffffffffffff\n                /* \"#utility.yul\":10206:10212   */\n              dup3\n                /* \"#utility.yul\":10203:10233   */\n              gt\n                /* \"#utility.yul\":10200:10202   */\n              iszero\n              tag_296\n              jumpi\n                /* \"#utility.yul\":10236:10254   */\n              tag_297\n              tag_291\n              jump\t// in\n            tag_297:\n                /* \"#utility.yul\":10200:10202   */\n            tag_296:\n                /* \"#utility.yul\":10321:10325   */\n              0x1f\n                /* \"#utility.yul\":10317:10326   */\n              not\n                /* \"#utility.yul\":10310:10314   */\n              0x1f\n                /* \"#utility.yul\":10302:10308   */\n              dup4\n                /* \"#utility.yul\":10298:10315   */\n              add\n                /* \"#utility.yul\":10294:10327   */\n              and\n                /* \"#utility.yul\":10286:10327   */\n              swap1\n              pop\n                /* \"#utility.yul\":10382:10386   */\n              0x20\n                /* \"#utility.yul\":10376:10380   */\n              dup2\n                /* \"#utility.yul\":10372:10387   */\n              add\n                /* \"#utility.yul\":10364:10387   */\n              swap1\n              pop\n                /* \"#utility.yul\":10129:10394   */\n              swap2\n              swap1\n              pop\n              jump\t// out\n                /* \"#utility.yul\":10400:10556   */\n            tag_228:\n              0x00\n                /* \"#utility.yul\":10514:10517   */\n              dup2\n                /* \"#utility.yul\":10506:10517   */\n              swap1\n              pop\n                /* \"#utility.yul\":10544:10548   */\n              0x20\n                /* \"#utility.yul\":10539:10542   */\n              dup3\n                /* \"#utility.yul\":10535:10549   */\n              add\n                /* \"#utility.yul\":10527:10549   */\n              swap1\n              pop\n                /* \"#utility.yul\":10496:10556   */\n              swap2\n              swap1\n              pop\n              jump\t// out\n                /* \"#utility.yul\":10562:10700   */\n            tag_224:\n              0x00\n                /* \"#utility.yul\":10687:10692   */\n              dup2\n                /* \"#utility.yul\":10681:10693   */\n              mload\n                /* \"#utility.yul\":10671:10693   */\n              swap1\n              pop\n                /* \"#utility.yul\":10660:10700   */\n              swap2\n              swap1\n              pop\n              jump\t// out\n                /* \"#utility.yul\":10706:10805   */\n            tag_242:\n              0x00\n                /* \"#utility.yul\":10792:10797   */\n              dup2\n                /* \"#utility.yul\":10786:10798   */\n              mload\n                /* \"#utility.yul\":10776:10798   */\n              swap1\n              pop\n                /* \"#utility.yul\":10765:10805   */\n              swap2\n              swap1\n              pop\n              jump\t// out\n                /* \"#utility.yul\":10811:10948   */\n            tag_234:\n              0x00\n                /* \"#utility.yul\":10937:10941   */\n              0x20\n                /* \"#utility.yul\":10932:10935   */\n              dup3\n                /* \"#utility.yul\":10928:10942   */\n              add\n                /* \"#utility.yul\":10920:10942   */\n              swap1\n              pop\n                /* \"#utility.yul\":10910:10948   */\n              swap2\n              swap1\n              pop\n              jump\t// out\n                /* \"#utility.yul\":10954:11162   */\n            tag_226:\n              0x00\n                /* \"#utility.yul\":11111:11117   */\n              dup3\n                /* \"#utility.yul\":11106:11109   */\n              dup3\n                /* \"#utility.yul\":11099:11118   */\n              mstore\n                /* \"#utility.yul\":11151:11155   */\n              0x20\n                /* \"#utility.yul\":11146:11149   */\n              dup3\n                /* \"#utility.yul\":11142:11156   */\n              add\n                /* \"#utility.yul\":11127:11156   */\n              swap1\n              pop\n                /* \"#utility.yul\":11089:11162   */\n              swap3\n              swap2\n              pop\n              pop\n              jump\t// out\n                /* \"#utility.yul\":11168:11327   */\n            tag_244:\n              0x00\n                /* \"#utility.yul\":11276:11282   */\n              dup3\n                /* \"#utility.yul\":11271:11274   */\n              dup3\n                /* \"#utility.yul\":11264:11283   */\n              mstore\n                /* \"#utility.yul\":11316:11320   */\n              0x20\n                /* \"#utility.yul\":11311:11314   */\n              dup3\n                /* \"#utility.yul\":11307:11321   */\n              add\n                /* \"#utility.yul\":11292:11321   */\n              swap1\n              pop\n                /* \"#utility.yul\":11254:11327   */\n              swap3\n              swap2\n              pop\n              pop\n              jump\t// out\n                /* \"#utility.yul\":11333:11502   */\n            tag_253:\n              0x00\n                /* \"#utility.yul\":11451:11457   */\n              dup3\n                /* \"#utility.yul\":11446:11449   */\n              dup3\n                /* \"#utility.yul\":11439:11458   */\n              mstore\n                /* \"#utility.yul\":11491:11495   */\n              0x20\n                /* \"#utility.yul\":11486:11489   */\n              dup3\n                /* \"#utility.yul\":11482:11496   */\n              add\n                /* \"#utility.yul\":11467:11496   */\n              swap1\n              pop\n                /* \"#utility.yul\":11429:11502   */\n              swap3\n              swap2\n              pop\n              pop\n              jump\t// out\n                /* \"#utility.yul\":11508:11813   */\n            tag_87:\n              0x00\n                /* \"#utility.yul\":11567:11587   */\n              tag_306\n                /* \"#utility.yul\":11585:11586   */\n              dup3\n                /* \"#utility.yul\":11567:11587   */\n              tag_266\n              jump\t// in\n            tag_306:\n                /* \"#utility.yul\":11562:11587   */\n              swap2\n              pop\n                /* \"#utility.yul\":11601:11621   */\n              tag_307\n                /* \"#utility.yul\":11619:11620   */\n              dup4\n                /* \"#utility.yul\":11601:11621   */\n              tag_266\n              jump\t// in\n            tag_307:\n                /* \"#utility.yul\":11596:11621   */\n              swap3\n              pop\n                /* \"#utility.yul\":11755:11756   */\n              dup3\n                /* \"#utility.yul\":11687:11753   */\n              0xffffffffffffffffffffffffffffffffffffffffffffffffffffffffffffffff\n                /* \"#utility.yul\":11683:11757   */\n              sub\n                /* \"#utility.yul\":11680:11681   */\n              dup3\n                /* \"#utility.yul\":11677:11758   */\n              gt\n                /* \"#utility.yul\":11674:11676   */\n              iszero\n              tag_308\n              jumpi\n                /* \"#utility.yul\":11761:11779   */\n              tag_309\n              tag_310\n              jump\t// in\n            tag_309:\n                /* \"#utility.yul\":11674:11676   */\n            tag_308:\n                /* \"#utility.yul\":11805:11806   */\n              dup3\n                /* \"#utility.yul\":11802:11803   */\n              dup3\n                /* \"#utility.yul\":11798:11807   */\n              add\n                /* \"#utility.yul\":11791:11807   */\n              swap1\n              pop\n                /* \"#utility.yul\":11552:11813   */\n              swap3\n              swap2\n              pop\n              pop\n              jump\t// out\n                /* \"#utility.yul\":11819:11915   */\n            tag_220:\n              0x00\n                /* \"#utility.yul\":11885:11909   */\n              tag_312\n                /* \"#utility.yul\":11903:11908   */\n              dup3\n                /* \"#utility.yul\":11885:11909   */\n              tag_313\n              jump\t// in\n            tag_312:\n                /* \"#utility.yul\":11874:11909   */\n              swap1\n              pop\n                /* \"#utility.yul\":11864:11915   */\n              swap2\n              swap1\n              pop\n              jump\t// out\n                /* \"#utility.yul\":11921:12011   */\n            tag_238:\n              0x00\n                /* \"#utility.yul\":11998:12003   */\n              dup2\n                /* \"#utility.yul\":11991:12004   */\n              iszero\n                /* \"#utility.yul\":11984:12005   */\n              iszero\n                /* \"#utility.yul\":11973:12005   */\n              swap1\n              pop\n                /* \"#utility.yul\":11963:12011   */\n              swap2\n              swap1\n              pop\n              jump\t// out\n                /* \"#utility.yul\":12017:12143   */\n            tag_313:\n              0x00\n                /* \"#utility.yul\":12094:12136   */\n              0xffffffffffffffffffffffffffffffffffffffff\n                /* \"#utility.yul\":12087:12092   */\n              dup3\n                /* \"#utility.yul\":12083:12137   */\n              and\n                /* \"#utility.yul\":12072:12137   */\n              swap1\n              pop\n                /* \"#utility.yul\":12062:12143   */\n              swap2\n              swap1\n              pop\n              jump\t// out\n                /* \"#utility.yul\":12149:12226   */\n            tag_266:\n              0x00\n                /* \"#utility.yul\":12215:12220   */\n              dup2\n                /* \"#utility.yul\":12204:12220   */\n              swap1\n              pop\n                /* \"#utility.yul\":12194:12226   */\n              swap2\n              swap1\n              pop\n              jump\t// out\n                /* \"#utility.yul\":12232:12386   */\n            tag_187:\n                /* \"#utility.yul\":12316:12322   */\n              dup3\n                /* \"#utility.yul\":12311:12314   */\n              dup2\n                /* \"#utility.yul\":12306:12309   */\n              dup4\n                /* \"#utility.yul\":12293:12323   */\n              calldatacopy\n                /* \"#utility.yul\":12378:12379   */\n              0x00\n                /* \"#utility.yul\":12369:12375   */\n              dup4\n                /* \"#utility.yul\":12364:12367   */\n              dup4\n                /* \"#utility.yul\":12360:12376   */\n              add\n                /* \"#utility.yul\":12353:12380   */\n              mstore\n                /* \"#utility.yul\":12283:12386   */\n              pop\n              pop\n              pop\n              jump\t// out\n                /* \"#utility.yul\":12392:12699   */\n            tag_246:\n                /* \"#utility.yul\":12460:12461   */\n              0x00\n                /* \"#utility.yul\":12470:12583   */\n            tag_319:\n                /* \"#utility.yul\":12484:12490   */\n              dup4\n                /* \"#utility.yul\":12481:12482   */\n              dup2\n                /* \"#utility.yul\":12478:12491   */\n              lt\n                /* \"#utility.yul\":12470:12583   */\n              iszero\n              tag_321\n              jumpi\n                /* \"#utility.yul\":12569:12570   */\n              dup1\n                /* \"#utility.yul\":12564:12567   */\n              dup3\n                /* \"#utility.yul\":12560:12571   */\n              add\n                /* \"#utility.yul\":12554:12572   */\n              mload\n                /* \"#utility.yul\":12550:12551   */\n              dup2\n                /* \"#utility.yul\":12545:12548   */\n              dup5\n                /* \"#utility.yul\":12541:12552   */\n              add\n                /* \"#utility.yul\":12534:12573   */\n              mstore\n                /* \"#utility.yul\":12506:12508   */\n              0x20\n                /* \"#utility.yul\":12503:12504   */\n              dup2\n                /* \"#utility.yul\":12499:12509   */\n              add\n                /* \"#utility.yul\":12494:12509   */\n              swap1\n              pop\n                /* \"#utility.yul\":12470:12583   */\n              jump(tag_319)\n            tag_321:\n                /* \"#utility.yul\":12601:12607   */\n              dup4\n                /* \"#utility.yul\":12598:12599   */\n              dup2\n                /* \"#utility.yul\":12595:12608   */\n              gt\n                /* \"#utility.yul\":12592:12594   */\n              iszero\n              tag_322\n              jumpi\n                /* \"#utility.yul\":12681:12682   */\n              0x00\n                /* \"#utility.yul\":12672:12678   */\n              dup5\n                /* \"#utility.yul\":12667:12670   */\n              dup5\n                /* \"#utility.yul\":12663:12679   */\n              add\n                /* \"#utility.yul\":12656:12683   */\n              mstore\n                /* \"#utility.yul\":12592:12594   */\n            tag_322:\n                /* \"#utility.yul\":12441:12699   */\n              pop\n              pop\n              pop\n              pop\n              jump\t// out\n                /* \"#utility.yul\":12705:13025   */\n            tag_91:\n              0x00\n                /* \"#utility.yul\":12786:12787   */\n              0x02\n                /* \"#utility.yul\":12780:12784   */\n              dup3\n                /* \"#utility.yul\":12776:12788   */\n              div\n                /* \"#utility.yul\":12766:12788   */\n              swap1\n              pop\n                /* \"#utility.yul\":12833:12834   */\n              0x01\n                /* \"#utility.yul\":12827:12831   */\n              dup3\n                /* \"#utility.yul\":12823:12835   */\n              and\n                /* \"#utility.yul\":12854:12872   */\n              dup1\n                /* \"#utility.yul\":12844:12846   */\n              tag_324\n              jumpi\n                /* \"#utility.yul\":12910:12914   */\n              0x7f\n                /* \"#utility.yul\":12902:12908   */\n              dup3\n                /* \"#utility.yul\":12898:12915   */\n              and\n                /* \"#utility.yul\":12888:12915   */\n              swap2\n              pop\n                /* \"#utility.yul\":12844:12846   */\n            tag_324:\n                /* \"#utility.yul\":12972:12974   */\n              0x20\n                /* \"#utility.yul\":12964:12970   */\n              dup3\n                /* \"#utility.yul\":12961:12975   */\n              lt\n                /* \"#utility.yul\":12941:12959   */\n              dup2\n                /* \"#utility.yul\":12938:12976   */\n              eq\n                /* \"#utility.yul\":12935:12937   */\n              iszero\n              tag_325\n              jumpi\n                /* \"#utility.yul\":12991:13009   */\n              tag_326\n              tag_327\n              jump\t// in\n            tag_326:\n                /* \"#utility.yul\":12935:12937   */\n            tag_325:\n                /* \"#utility.yul\":12756:13025   */\n              pop\n              swap2\n              swap1\n              pop\n              jump\t// out\n                /* \"#utility.yul\":13031:13264   */\n            tag_108:\n              0x00\n                /* \"#utility.yul\":13093:13117   */\n              tag_329\n                /* \"#utility.yul\":13111:13116   */\n              dup3\n                /* \"#utility.yul\":13093:13117   */\n              tag_266\n              jump\t// in\n            tag_329:\n                /* \"#utility.yul\":13084:13117   */\n              swap2\n              pop\n                /* \"#utility.yul\":13139:13205   */\n              0xffffffffffffffffffffffffffffffffffffffffffffffffffffffffffffffff\n                /* \"#utility.yul\":13132:13137   */\n              dup3\n                /* \"#utility.yul\":13129:13206   */\n              eq\n                /* \"#utility.yul\":13126:13128   */\n              iszero\n              tag_330\n              jumpi\n                /* \"#utility.yul\":13209:13227   */\n              tag_331\n              tag_310\n              jump\t// in\n            tag_331:\n                /* \"#utility.yul\":13126:13128   */\n            tag_330:\n                /* \"#utility.yul\":13256:13257   */\n              0x01\n                /* \"#utility.yul\":13249:13254   */\n              dup3\n                /* \"#utility.yul\":13245:13258   */\n              add\n                /* \"#utility.yul\":13238:13258   */\n              swap1\n              pop\n                /* \"#utility.yul\":13074:13264   */\n              swap2\n              swap1\n              pop\n              jump\t// out\n                /* \"#utility.yul\":13270:13450   */\n            tag_310:\n                /* \"#utility.yul\":13318:13395   */\n              0x4e487b7100000000000000000000000000000000000000000000000000000000\n                /* \"#utility.yul\":13315:13316   */\n              0x00\n                /* \"#utility.yul\":13308:13396   */\n              mstore\n                /* \"#utility.yul\":13415:13419   */\n              0x11\n                /* \"#utility.yul\":13412:13413   */\n              0x04\n                /* \"#utility.yul\":13405:13420   */\n              mstore\n                /* \"#utility.yul\":13439:13443   */\n              0x24\n                /* \"#utility.yul\":13436:13437   */\n              0x00\n                /* \"#utility.yul\":13429:13444   */\n              revert\n                /* \"#utility.yul\":13456:13636   */\n            tag_327:\n                /* \"#utility.yul\":13504:13581   */\n              0x4e487b7100000000000000000000000000000000000000000000000000000000\n                /* \"#utility.yul\":13501:13502   */\n              0x00\n                /* \"#utility.yul\":13494:13582   */\n              mstore\n                /* \"#utility.yul\":13601:13605   */\n              0x22\n                /* \"#utility.yul\":13598:13599   */\n              0x04\n                /* \"#utility.yul\":13591:13606   */\n              mstore\n                /* \"#utility.yul\":13625:13629   */\n              0x24\n                /* \"#utility.yul\":13622:13623   */\n              0x00\n                /* \"#utility.yul\":13615:13630   */\n              revert\n                /* \"#utility.yul\":13642:13822   */\n            tag_291:\n                /* \"#utility.yul\":13690:13767   */\n              0x4e487b7100000000000000000000000000000000000000000000000000000000\n                /* \"#utility.yul\":13687:13688   */\n              0x00\n                /* \"#utility.yul\":13680:13768   */\n              mstore\n                /* \"#utility.yul\":13787:13791   */\n              0x41\n                /* \"#utility.yul\":13784:13785   */\n              0x04\n                /* \"#utility.yul\":13777:13792   */\n              mstore\n                /* \"#utility.yul\":13811:13815   */\n              0x24\n                /* \"#utility.yul\":13808:13809   */\n              0x00\n                /* \"#utility.yul\":13801:13816   */\n              revert\n                /* \"#utility.yul\":13828:13930   */\n            tag_248:\n              0x00\n                /* \"#utility.yul\":13920:13922   */\n              0x1f\n                /* \"#utility.yul\":13916:13923   */\n              not\n                /* \"#utility.yul\":13911:13913   */\n              0x1f\n                /* \"#utility.yul\":13904:13909   */\n              dup4\n                /* \"#utility.yul\":13900:13914   */\n              add\n                /* \"#utility.yul\":13896:13924   */\n              and\n                /* \"#utility.yul\":13886:13924   */\n              swap1\n              pop\n                /* \"#utility.yul\":13876:13930   */\n              swap2\n              swap1\n              pop\n              jump\t// out\n                /* \"#utility.yul\":13936:14058   */\n            tag_191:\n                /* \"#utility.yul\":14009:14033   */\n              tag_337\n                /* \"#utility.yul\":14027:14032   */\n              dup2\n                /* \"#utility.yul\":14009:14033   */\n              tag_220\n              jump\t// in\n            tag_337:\n                /* \"#utility.yul\":14002:14007   */\n              dup2\n                /* \"#utility.yul\":13999:14034   */\n              eq\n                /* \"#utility.yul\":13989:13991   */\n              tag_338\n              jumpi\n                /* \"#utility.yul\":14048:14049   */\n              0x00\n                /* \"#utility.yul\":14045:14046   */\n              dup1\n                /* \"#utility.yul\":14038:14050   */\n              revert\n                /* \"#utility.yul\":13989:13991   */\n            tag_338:\n                /* \"#utility.yul\":13979:14058   */\n              pop\n              jump\t// out\n                /* \"#utility.yul\":14064:14186   */\n            tag_202:\n                /* \"#utility.yul\":14137:14161   */\n              tag_340\n                /* \"#utility.yul\":14155:14160   */\n              dup2\n                /* \"#utility.yul\":14137:14161   */\n              tag_266\n              jump\t// in\n            tag_340:\n                /* \"#utility.yul\":14130:14135   */\n              dup2\n                /* \"#utility.yul\":14127:14162   */\n              eq\n                /* \"#utility.yul\":14117:14119   */\n              tag_341\n              jumpi\n                /* \"#utility.yul\":14176:14177   */\n              0x00\n                /* \"#utility.yul\":14173:14174   */\n              dup1\n                /* \"#utility.yul\":14166:14178   */\n              revert\n                /* \"#utility.yul\":14117:14119   */\n            tag_341:\n                /* \"#utility.yul\":14107:14186   */\n              pop\n              jump\t// out\n\n            auxdata: 0xa264697066735822122019df581250950ad809f57433849780ce70b84029b1a804454accddc566cdad0564736f6c63430008000033\n        }\n    }\n\n    auxdata: 0xa2646970667358221220ba1382b01ae1c2ac422447ae1b3f8fad459ed0863ee1037d2deb5c73b78188f864736f6c63430008000033\n}\n",
				"bytecode": {
					"linkReferences": {},
					"object": "608060405234801561001057600080fd5b506131f7806100206000396000f3fe608060405234801561001057600080fd5b506004361061014d5760003560e01c806378f305c6116100c3578063a3ec138d1161007c578063a3ec138d14610353578063b135648814610386578063c285c0d3146103a4578063d7558d4b146103c0578063e2ba53f0146103f0578063e9d6c6da1461040e5761014d565b806378f305c6146102cb5780637a16fcb0146102e9578063836bc6921461030757806386278e7714610323578063962fafd01461032d5780639e7b8d61146103375761014d565b8063609ff1bd11610115578063609ff1bd1461020b57806362564c4814610229578063627c236714610247578063643cb0961461026357806369ba1a7514610293578063735d8b87146102af5761014d565b80630121b93f14610152578063013cf08b1461016e5780630a82dcb11461019f5780632a8cdc4c146101bd5780634e69d560146101ed575b600080fd5b61016c600480360381019061016791906114fb565b61043e565b005b610188600480360381019061018391906114fb565b61052d565b6040516101969291906118fe565b60405180910390f35b6101a76105e9565b6040516101b49190611950565b60405180910390f35b6101d760048036038101906101d291906114fb565b6105f3565b6040516101e49190611862565b60405180910390f35b6101f56106de565b6040516102029190611950565b60405180910390f35b6102136106e8565b6040516102209190611950565b60405180910390f35b6102316107bc565b60405161023e919061189f565b60405180910390f35b610261600480360381019061025c91906115dd565b6108b7565b005b61027d600480360381019061027891906114fb565b61098a565b60405161028a91906118c1565b60405180910390f35b6102ad60048036038101906102a891906114fb565b6109c9565b005b6102c960048036038101906102c49190611589565b6109d3565b005b6102d3610aa6565b6040516102e09190611950565b60405180910390f35b6102f1610ab0565b6040516102fe9190611862565b60405180910390f35b610321600480360381019061031c91906114ba565b610ad9565b005b61032b610c67565b005b610335610c70565b005b610351600480360381019061034c9190611468565b610d03565b005b61036d60048036038101906103689190611468565b610e4d565b60405161037d949392919061196b565b60405180910390f35b61038e610eaa565b60405161039b9190611950565b60405180910390f35b6103be60048036038101906103b9919061154d565b610eb4565b005b6103da60048036038101906103d591906114fb565b610f87565b6040516103e79190611950565b60405180910390f35b6103f8611072565b60405161040591906118dc565b60405180910390f35b610428600480360381019061042391906114fb565b611154565b604051610435919061192e565b60405180910390f35b6000600560003373ffffffffffffffffffffffffffffffffffffffff1673ffffffffffffffffffffffffffffffffffffffff16815260200190815260200160002090508060010160009054906101000a900460ff161561049d57600080fd5b60018160010160006101000a81548160ff021916908315150217905550818160020181905550806000015460068381548110610502577f4e487b7100000000000000000000000000000000000000000000000000000000600052603260045260246000fd5b906000526020600020906002020160010160008282546105229190611adc565b925050819055505050565b6006818154811061053d57600080fd5b906000526020600020906002020160009150905080600001805461056090611be0565b80601f016020809104026020016040519081016040528092919081815260200182805461058c90611be0565b80156105d95780601f106105ae576101008083540402835291602001916105d9565b820191906000526020600020905b8154815290600101906020018083116105bc57829003601f168201915b5050505050908060010154905082565b6000600454905090565b60006007828154811061062f577f4e487b7100000000000000000000000000000000000000000000000000000000600052603260045260246000fd5b9060005260206000200160009054906101000a900473ffffffffffffffffffffffffffffffffffffffff1673ffffffffffffffffffffffffffffffffffffffff16637a16fcb06040518163ffffffff1660e01b815260040160206040518083038186803b15801561069f57600080fd5b505afa1580156106b3573d6000803e3d6000fd5b505050506040513d601f19601f820116820180604052508101906106d79190611491565b9050919050565b6000600154905090565b6000806000905060005b6006805490508110156107b757816006828154811061073a577f4e487b7100000000000000000000000000000000000000000000000000000000600052603260045260246000fd5b90600052602060002090600202016001015411156107a4576006818154811061078c577f4e487b7100000000000000000000000000000000000000000000000000000000600052603260045260246000fd5b90600052602060002090600202016001015491508092505b80806107af90611c12565b9150506106f2565b505090565b60606006805480602002602001604051908101604052809291908181526020016000905b828210156108ae578382906000526020600020906002020160405180604001604052908160008201805461081390611be0565b80601f016020809104026020016040519081016040528092919081815260200182805461083f90611be0565b801561088c5780601f106108615761010080835404028352916020019161088c565b820191906000526020600020905b81548152906001019060200180831161086f57829003601f168201915b50505050508152602001600182015481525050815260200190600101906107e0565b50505050905090565b600782815481106108f1577f4e487b7100000000000000000000000000000000000000000000000000000000600052603260045260246000fd5b9060005260206000200160009054906101000a900473ffffffffffffffffffffffffffffffffffffffff1673ffffffffffffffffffffffffffffffffffffffff16630121b93f826040518263ffffffff1660e01b81526004016109549190611950565b600060405180830381600087803b15801561096e57600080fd5b505af1158015610982573d6000803e3d6000fd5b505050505050565b6007818154811061099a57600080fd5b906000526020600020016000915054906101000a900473ffffffffffffffffffffffffffffffffffffffff1681565b8060018190555050565b60078281548110610a0d577f4e487b7100000000000000000000000000000000000000000000000000000000600052603260045260246000fd5b9060005260206000200160009054906101000a900473ffffffffffffffffffffffffffffffffffffffff1673ffffffffffffffffffffffffffffffffffffffff1663836bc692826040518263ffffffff1660e01b8152600401610a70919061187d565b600060405180830381600087803b158015610a8a57600080fd5b505af1158015610a9e573d6000803e3d6000fd5b505050505050565b6000600254905090565b60008060009054906101000a900473ffffffffffffffffffffffffffffffffffffffff16905090565b336000806101000a81548173ffffffffffffffffffffffffffffffffffffffff021916908373ffffffffffffffffffffffffffffffffffffffff1602179055506001600560008060009054906101000a900473ffffffffffffffffffffffffffffffffffffffff1673ffffffffffffffffffffffffffffffffffffffff1673ffffffffffffffffffffffffffffffffffffffff168152602001908152602001600020600001819055506000600181905550610b92611252565b805160048190555060005b8151811015610c635760066040518060400160405280848481518110610bec577f4e487b7100000000000000000000000000000000000000000000000000000000600052603260045260246000fd5b60200260200101518152602001600081525090806001815401808255809150506001900390600052602060002090600202016000909190919091506000820151816000019080519060200190610c4392919061125b565b506020820151816001015550508080610c5b90611c12565b915050610b9d565b5050565b42600381905550565b6000604051610c7e906112e1565b604051809103906000f080158015610c9a573d6000803e3d6000fd5b5090506007819080600181540180825580915050600190039060005260206000200160009091909190916101000a81548173ffffffffffffffffffffffffffffffffffffffff021916908373ffffffffffffffffffffffffffffffffffffffff16021790555050565b60008054906101000a900473ffffffffffffffffffffffffffffffffffffffff1673ffffffffffffffffffffffffffffffffffffffff163373ffffffffffffffffffffffffffffffffffffffff16148015610dab5750600560008273ffffffffffffffffffffffffffffffffffffffff1673ffffffffffffffffffffffffffffffffffffffff16815260200190815260200160002060010160009054906101000a900460ff16155b8015610df957506000600560008373ffffffffffffffffffffffffffffffffffffffff1673ffffffffffffffffffffffffffffffffffffffff16815260200190815260200160002060000154145b610e0257600080fd5b6001600560008373ffffffffffffffffffffffffffffffffffffffff1673ffffffffffffffffffffffffffffffffffffffff1681526020019081526020016000206000018190555050565b60056020528060005260406000206000915090508060000154908060010160009054906101000a900460ff16908060010160019054906101000a900473ffffffffffffffffffffffffffffffffffffffff16908060020154905084565b6000600354905090565b60078281548110610eee577f4e487b7100000000000000000000000000000000000000000000000000000000600052603260045260246000fd5b9060005260206000200160009054906101000a900473ffffffffffffffffffffffffffffffffffffffff1673ffffffffffffffffffffffffffffffffffffffff16639e7b8d61826040518263ffffffff1660e01b8152600401610f519190611862565b600060405180830381600087803b158015610f6b57600080fd5b505af1158015610f7f573d6000803e3d6000fd5b505050505050565b600060078281548110610fc3577f4e487b7100000000000000000000000000000000000000000000000000000000600052603260045260246000fd5b9060005260206000200160009054906101000a900473ffffffffffffffffffffffffffffffffffffffff1673ffffffffffffffffffffffffffffffffffffffff1663609ff1bd6040518163ffffffff1660e01b815260040160206040518083038186803b15801561103357600080fd5b505afa158015611047573d6000803e3d6000fd5b505050506040513d601f19601f8201168201806040525081019061106b9190611524565b9050919050565b6060600661107e6106e8565b815481106110b5577f4e487b7100000000000000000000000000000000000000000000000000000000600052603260045260246000fd5b906000526020600020906002020160000180546110d190611be0565b80601f01602080910402602001604051908101604052809291908181526020018280546110fd90611be0565b801561114a5780601f1061111f5761010080835404028352916020019161114a565b820191906000526020600020905b81548152906001019060200180831161112d57829003601f168201915b5050505050905090565b61115c6112ee565b60068281548110611196577f4e487b7100000000000000000000000000000000000000000000000000000000600052603260045260246000fd5b90600052602060002090600202016040518060400160405290816000820180546111bf90611be0565b80601f01602080910402602001604051908101604052809291908181526020018280546111eb90611be0565b80156112385780601f1061120d57610100808354040283529160200191611238565b820191906000526020600020905b81548152906001019060200180831161121b57829003601f168201915b505050505081526020016001820154815250509050919050565b42600281905550565b82805461126790611be0565b90600052602060002090601f01602090048101928261128957600085556112d0565b82601f106112a257805160ff19168380011785556112d0565b828001600101855582156112d0579182015b828111156112cf5782518255916020019190600101906112b4565b5b5090506112dd9190611308565b5090565b61149a80611d2883390190565b604051806040016040528060608152602001600081525090565b5b80821115611321576000816000905550600101611309565b5090565b6000611338611333846119e1565b6119b0565b9050808382526020820190508260005b85811015611378578135850161135e8882611414565b845260208401935060208301925050600181019050611348565b5050509392505050565b600061139561139084611a0d565b6119b0565b9050828152602081018484840111156113ad57600080fd5b6113b8848285611b9e565b509392505050565b6000813590506113cf81611cf9565b92915050565b6000815190506113e481611cf9565b92915050565b600082601f8301126113fb57600080fd5b813561140b848260208601611325565b91505092915050565b600082601f83011261142557600080fd5b8135611435848260208601611382565b91505092915050565b60008135905061144d81611d10565b92915050565b60008151905061146281611d10565b92915050565b60006020828403121561147a57600080fd5b6000611488848285016113c0565b91505092915050565b6000602082840312156114a357600080fd5b60006114b1848285016113d5565b91505092915050565b6000602082840312156114cc57600080fd5b600082013567ffffffffffffffff8111156114e657600080fd5b6114f2848285016113ea565b91505092915050565b60006020828403121561150d57600080fd5b600061151b8482850161143e565b91505092915050565b60006020828403121561153657600080fd5b600061154484828501611453565b91505092915050565b6000806040838503121561156057600080fd5b600061156e8582860161143e565b925050602061157f858286016113c0565b9150509250929050565b6000806040838503121561159c57600080fd5b60006115aa8582860161143e565b925050602083013567ffffffffffffffff8111156115c757600080fd5b6115d3858286016113ea565b9150509250929050565b600080604083850312156115f057600080fd5b60006115fe8582860161143e565b925050602061160f8582860161143e565b9150509250929050565b60006116258383611758565b905092915050565b600061163983836117ca565b905092915050565b61164a81611b32565b82525050565b600061165b82611a5d565b6116658185611a98565b93508360208202850161167785611a3d565b8060005b858110156116b357848403895281516116948582611619565b945061169f83611a7e565b925060208a0199505060018101905061167b565b50829750879550505050505092915050565b60006116d082611a68565b6116da8185611aa9565b9350836020820285016116ec85611a4d565b8060005b858110156117285784840389528151611709858261162d565b945061171483611a8b565b925060208a019950506001810190506116f0565b50829750879550505050505092915050565b61174381611b44565b82525050565b61175281611b7a565b82525050565b600061176382611a73565b61176d8185611aba565b935061177d818560208601611bad565b61178681611ce8565b840191505092915050565b600061179c82611a73565b6117a68185611acb565b93506117b6818560208601611bad565b6117bf81611ce8565b840191505092915050565b600060408301600083015184820360008601526117e78282611758565b91505060208301516117fc6020860182611844565b508091505092915050565b600060408301600083015184820360008601526118248282611758565b91505060208301516118396020860182611844565b508091505092915050565b61184d81611b70565b82525050565b61185c81611b70565b82525050565b60006020820190506118776000830184611641565b92915050565b600060208201905081810360008301526118978184611650565b905092915050565b600060208201905081810360008301526118b981846116c5565b905092915050565b60006020820190506118d66000830184611749565b92915050565b600060208201905081810360008301526118f68184611791565b905092915050565b600060408201905081810360008301526119188185611791565b90506119276020830184611853565b9392505050565b600060208201905081810360008301526119488184611807565b905092915050565b60006020820190506119656000830184611853565b92915050565b60006080820190506119806000830187611853565b61198d602083018661173a565b61199a6040830185611641565b6119a76060830184611853565b95945050505050565b6000604051905081810181811067ffffffffffffffff821117156119d7576119d6611cb9565b5b8060405250919050565b600067ffffffffffffffff8211156119fc576119fb611cb9565b5b602082029050602081019050919050565b600067ffffffffffffffff821115611a2857611a27611cb9565b5b601f19601f8301169050602081019050919050565b6000819050602082019050919050565b6000819050602082019050919050565b600081519050919050565b600081519050919050565b600081519050919050565b6000602082019050919050565b6000602082019050919050565b600082825260208201905092915050565b600082825260208201905092915050565b600082825260208201905092915050565b600082825260208201905092915050565b6000611ae782611b70565b9150611af283611b70565b9250827fffffffffffffffffffffffffffffffffffffffffffffffffffffffffffffffff03821115611b2757611b26611c5b565b5b828201905092915050565b6000611b3d82611b50565b9050919050565b60008115159050919050565b600073ffffffffffffffffffffffffffffffffffffffff82169050919050565b6000819050919050565b6000611b8582611b8c565b9050919050565b6000611b9782611b50565b9050919050565b82818337600083830152505050565b60005b83811015611bcb578082015181840152602081019050611bb0565b83811115611bda576000848401525b50505050565b60006002820490506001821680611bf857607f821691505b60208210811415611c0c57611c0b611c8a565b5b50919050565b6000611c1d82611b70565b91507fffffffffffffffffffffffffffffffffffffffffffffffffffffffffffffffff821415611c5057611c4f611c5b565b5b600182019050919050565b7f4e487b7100000000000000000000000000000000000000000000000000000000600052601160045260246000fd5b7f4e487b7100000000000000000000000000000000000000000000000000000000600052602260045260246000fd5b7f4e487b7100000000000000000000000000000000000000000000000000000000600052604160045260246000fd5b6000601f19601f8301169050919050565b611d0281611b32565b8114611d0d57600080fd5b50565b611d1981611b70565b8114611d2457600080fd5b5056fe608060405234801561001057600080fd5b5061147a806100206000396000f3fe608060405234801561001057600080fd5b50600436106101005760003560e01c80637a16fcb011610097578063a3ec138d11610066578063a3ec138d14610264578063b135648814610297578063e2ba53f0146102b5578063e9d6c6da146102d357610100565b80637a16fcb014610204578063836bc6921461022257806386278e771461023e5780639e7b8d611461024857610100565b8063609ff1bd116100d3578063609ff1bd1461018e57806362564c48146101ac57806369ba1a75146101ca57806378f305c6146101e657610100565b80630121b93f14610105578063013cf08b146101215780630a82dcb1146101525780634e69d56014610170575b600080fd5b61011f600480360381019061011a9190610e3f565b610303565b005b61013b60048036038101906101369190610e3f565b6103f2565b604051610149929190611078565b60405180910390f35b61015a6104ae565b60405161016791906110ca565b60405180910390f35b6101786104b8565b60405161018591906110ca565b60405180910390f35b6101966104c2565b6040516101a391906110ca565b60405180910390f35b6101b4610596565b6040516101c19190611034565b60405180910390f35b6101e460048036038101906101df9190610e3f565b610691565b005b6101ee61069b565b6040516101fb91906110ca565b60405180910390f35b61020c6106a5565b6040516102199190611019565b60405180910390f35b61023c60048036038101906102379190610dfe565b6106ce565b005b61024661085c565b005b610262600480360381019061025d9190610dd5565b610865565b005b61027e60048036038101906102799190610dd5565b6109af565b60405161028e94939291906110e5565b60405180910390f35b61029f610a0c565b6040516102ac91906110ca565b60405180910390f35b6102bd610a16565b6040516102ca9190611056565b60405180910390f35b6102ed60048036038101906102e89190610e3f565b610af8565b6040516102fa91906110a8565b60405180910390f35b6000600560003373ffffffffffffffffffffffffffffffffffffffff1673ffffffffffffffffffffffffffffffffffffffff16815260200190815260200160002090508060010160009054906101000a900460ff161561036257600080fd5b60018160010160006101000a81548160ff0219169083151502179055508181600201819055508060000154600683815481106103c7577f4e487b7100000000000000000000000000000000000000000000000000000000600052603260045260246000fd5b906000526020600020906002020160010160008282546103e7919061121d565b925050819055505050565b6006818154811061040257600080fd5b9060005260206000209060020201600091509050806000018054610425906112fd565b80601f0160208091040260200160405190810160405280929190818152602001828054610451906112fd565b801561049e5780601f106104735761010080835404028352916020019161049e565b820191906000526020600020905b81548152906001019060200180831161048157829003601f168201915b5050505050908060010154905082565b6000600454905090565b6000600154905090565b6000806000905060005b600680549050811015610591578160068281548110610514577f4e487b7100000000000000000000000000000000000000000000000000000000600052603260045260246000fd5b906000526020600020906002020160010154111561057e5760068181548110610566577f4e487b7100000000000000000000000000000000000000000000000000000000600052603260045260246000fd5b90600052602060002090600202016001015491508092505b80806105899061132f565b9150506104cc565b505090565b60606006805480602002602001604051908101604052809291908181526020016000905b8282101561068857838290600052602060002090600202016040518060400160405290816000820180546105ed906112fd565b80601f0160208091040260200160405190810160405280929190818152602001828054610619906112fd565b80156106665780601f1061063b57610100808354040283529160200191610666565b820191906000526020600020905b81548152906001019060200180831161064957829003601f168201915b50505050508152602001600182015481525050815260200190600101906105ba565b50505050905090565b8060018190555050565b6000600254905090565b60008060009054906101000a900473ffffffffffffffffffffffffffffffffffffffff16905090565b336000806101000a81548173ffffffffffffffffffffffffffffffffffffffff021916908373ffffffffffffffffffffffffffffffffffffffff1602179055506001600560008060009054906101000a900473ffffffffffffffffffffffffffffffffffffffff1673ffffffffffffffffffffffffffffffffffffffff1673ffffffffffffffffffffffffffffffffffffffff168152602001908152602001600020600001819055506000600181905550610787610bf6565b805160048190555060005b815181101561085857600660405180604001604052808484815181106107e1577f4e487b7100000000000000000000000000000000000000000000000000000000600052603260045260246000fd5b60200260200101518152602001600081525090806001815401808255809150506001900390600052602060002090600202016000909190919091506000820151816000019080519060200190610838929190610bff565b5060208201518160010155505080806108509061132f565b915050610792565b5050565b42600381905550565b60008054906101000a900473ffffffffffffffffffffffffffffffffffffffff1673ffffffffffffffffffffffffffffffffffffffff163373ffffffffffffffffffffffffffffffffffffffff1614801561090d5750600560008273ffffffffffffffffffffffffffffffffffffffff1673ffffffffffffffffffffffffffffffffffffffff16815260200190815260200160002060010160009054906101000a900460ff16155b801561095b57506000600560008373ffffffffffffffffffffffffffffffffffffffff1673ffffffffffffffffffffffffffffffffffffffff16815260200190815260200160002060000154145b61096457600080fd5b6001600560008373ffffffffffffffffffffffffffffffffffffffff1673ffffffffffffffffffffffffffffffffffffffff1681526020019081526020016000206000018190555050565b60056020528060005260406000206000915090508060000154908060010160009054906101000a900460ff16908060010160019054906101000a900473ffffffffffffffffffffffffffffffffffffffff16908060020154905084565b6000600354905090565b60606006610a226104c2565b81548110610a59577f4e487b7100000000000000000000000000000000000000000000000000000000600052603260045260246000fd5b90600052602060002090600202016000018054610a75906112fd565b80601f0160208091040260200160405190810160405280929190818152602001828054610aa1906112fd565b8015610aee5780601f10610ac357610100808354040283529160200191610aee565b820191906000526020600020905b815481529060010190602001808311610ad157829003601f168201915b5050505050905090565b610b00610c85565b60068281548110610b3a577f4e487b7100000000000000000000000000000000000000000000000000000000600052603260045260246000fd5b9060005260206000209060020201604051806040016040529081600082018054610b63906112fd565b80601f0160208091040260200160405190810160405280929190818152602001828054610b8f906112fd565b8015610bdc5780601f10610bb157610100808354040283529160200191610bdc565b820191906000526020600020905b815481529060010190602001808311610bbf57829003601f168201915b505050505081526020016001820154815250509050919050565b42600281905550565b828054610c0b906112fd565b90600052602060002090601f016020900481019282610c2d5760008555610c74565b82601f10610c4657805160ff1916838001178555610c74565b82800160010185558215610c74579182015b82811115610c73578251825591602001919060010190610c58565b5b509050610c819190610c9f565b5090565b604051806040016040528060608152602001600081525090565b5b80821115610cb8576000816000905550600101610ca0565b5090565b6000610ccf610cca8461115b565b61112a565b9050808382526020820190508260005b85811015610d0f5781358501610cf58882610d96565b845260208401935060208301925050600181019050610cdf565b5050509392505050565b6000610d2c610d2784611187565b61112a565b905082815260208101848484011115610d4457600080fd5b610d4f8482856112bb565b509392505050565b600081359050610d6681611416565b92915050565b600082601f830112610d7d57600080fd5b8135610d8d848260208601610cbc565b91505092915050565b600082601f830112610da757600080fd5b8135610db7848260208601610d19565b91505092915050565b600081359050610dcf8161142d565b92915050565b600060208284031215610de757600080fd5b6000610df584828501610d57565b91505092915050565b600060208284031215610e1057600080fd5b600082013567ffffffffffffffff811115610e2a57600080fd5b610e3684828501610d6c565b91505092915050565b600060208284031215610e5157600080fd5b6000610e5f84828501610dc0565b91505092915050565b6000610e748383610f81565b905092915050565b610e8581611273565b82525050565b6000610e96826111c7565b610ea081856111ea565b935083602082028501610eb2856111b7565b8060005b85811015610eee5784840389528151610ecf8582610e68565b9450610eda836111dd565b925060208a01995050600181019050610eb6565b50829750879550505050505092915050565b610f0981611285565b82525050565b6000610f1a826111d2565b610f2481856111fb565b9350610f348185602086016112ca565b610f3d81611405565b840191505092915050565b6000610f53826111d2565b610f5d818561120c565b9350610f6d8185602086016112ca565b610f7681611405565b840191505092915050565b60006040830160008301518482036000860152610f9e8282610f0f565b9150506020830151610fb36020860182610ffb565b508091505092915050565b60006040830160008301518482036000860152610fdb8282610f0f565b9150506020830151610ff06020860182610ffb565b508091505092915050565b611004816112b1565b82525050565b611013816112b1565b82525050565b600060208201905061102e6000830184610e7c565b92915050565b6000602082019050818103600083015261104e8184610e8b565b905092915050565b600060208201905081810360008301526110708184610f48565b905092915050565b600060408201905081810360008301526110928185610f48565b90506110a1602083018461100a565b9392505050565b600060208201905081810360008301526110c28184610fbe565b905092915050565b60006020820190506110df600083018461100a565b92915050565b60006080820190506110fa600083018761100a565b6111076020830186610f00565b6111146040830185610e7c565b611121606083018461100a565b95945050505050565b6000604051905081810181811067ffffffffffffffff82111715611151576111506113d6565b5b8060405250919050565b600067ffffffffffffffff821115611176576111756113d6565b5b602082029050602081019050919050565b600067ffffffffffffffff8211156111a2576111a16113d6565b5b601f19601f8301169050602081019050919050565b6000819050602082019050919050565b600081519050919050565b600081519050919050565b6000602082019050919050565b600082825260208201905092915050565b600082825260208201905092915050565b600082825260208201905092915050565b6000611228826112b1565b9150611233836112b1565b9250827fffffffffffffffffffffffffffffffffffffffffffffffffffffffffffffffff0382111561126857611267611378565b5b828201905092915050565b600061127e82611291565b9050919050565b60008115159050919050565b600073ffffffffffffffffffffffffffffffffffffffff82169050919050565b6000819050919050565b82818337600083830152505050565b60005b838110156112e85780820151818401526020810190506112cd565b838111156112f7576000848401525b50505050565b6000600282049050600182168061131557607f821691505b60208210811415611329576113286113a7565b5b50919050565b600061133a826112b1565b91507fffffffffffffffffffffffffffffffffffffffffffffffffffffffffffffffff82141561136d5761136c611378565b5b600182019050919050565b7f4e487b7100000000000000000000000000000000000000000000000000000000600052601160045260246000fd5b7f4e487b7100000000000000000000000000000000000000000000000000000000600052602260045260246000fd5b7f4e487b7100000000000000000000000000000000000000000000000000000000600052604160045260246000fd5b6000601f19601f8301169050919050565b61141f81611273565b811461142a57600080fd5b50565b611436816112b1565b811461144157600080fd5b5056fea264697066735822122019df581250950ad809f57433849780ce70b84029b1a804454accddc566cdad0564736f6c63430008000033a2646970667358221220ba1382b01ae1c2ac422447ae1b3f8fad459ed0863ee1037d2deb5c73b78188f864736f6c63430008000033",
					"opcodes": "PUSH1 0x80 PUSH1 0x40 MSTORE CALLVALUE DUP1 ISZERO PUSH2 0x10 JUMPI PUSH1 0x0 DUP1 REVERT JUMPDEST POP PUSH2 0x31F7 DUP1 PUSH2 0x20 PUSH1 0x0 CODECOPY PUSH1 0x0 RETURN INVALID PUSH1 0x80 PUSH1 0x40 MSTORE CALLVALUE DUP1 ISZERO PUSH2 0x10 JUMPI PUSH1 0x0 DUP1 REVERT JUMPDEST POP PUSH1 0x4 CALLDATASIZE LT PUSH2 0x14D JUMPI PUSH1 0x0 CALLDATALOAD PUSH1 0xE0 SHR DUP1 PUSH4 0x78F305C6 GT PUSH2 0xC3 JUMPI DUP1 PUSH4 0xA3EC138D GT PUSH2 0x7C JUMPI DUP1 PUSH4 0xA3EC138D EQ PUSH2 0x353 JUMPI DUP1 PUSH4 0xB1356488 EQ PUSH2 0x386 JUMPI DUP1 PUSH4 0xC285C0D3 EQ PUSH2 0x3A4 JUMPI DUP1 PUSH4 0xD7558D4B EQ PUSH2 0x3C0 JUMPI DUP1 PUSH4 0xE2BA53F0 EQ PUSH2 0x3F0 JUMPI DUP1 PUSH4 0xE9D6C6DA EQ PUSH2 0x40E JUMPI PUSH2 0x14D JUMP JUMPDEST DUP1 PUSH4 0x78F305C6 EQ PUSH2 0x2CB JUMPI DUP1 PUSH4 0x7A16FCB0 EQ PUSH2 0x2E9 JUMPI DUP1 PUSH4 0x836BC692 EQ PUSH2 0x307 JUMPI DUP1 PUSH4 0x86278E77 EQ PUSH2 0x323 JUMPI DUP1 PUSH4 0x962FAFD0 EQ PUSH2 0x32D JUMPI DUP1 PUSH4 0x9E7B8D61 EQ PUSH2 0x337 JUMPI PUSH2 0x14D JUMP JUMPDEST DUP1 PUSH4 0x609FF1BD GT PUSH2 0x115 JUMPI DUP1 PUSH4 0x609FF1BD EQ PUSH2 0x20B JUMPI DUP1 PUSH4 0x62564C48 EQ PUSH2 0x229 JUMPI DUP1 PUSH4 0x627C2367 EQ PUSH2 0x247 JUMPI DUP1 PUSH4 0x643CB096 EQ PUSH2 0x263 JUMPI DUP1 PUSH4 0x69BA1A75 EQ PUSH2 0x293 JUMPI DUP1 PUSH4 0x735D8B87 EQ PUSH2 0x2AF JUMPI PUSH2 0x14D JUMP JUMPDEST DUP1 PUSH4 0x121B93F EQ PUSH2 0x152 JUMPI DUP1 PUSH4 0x13CF08B EQ PUSH2 0x16E JUMPI DUP1 PUSH4 0xA82DCB1 EQ PUSH2 0x19F JUMPI DUP1 PUSH4 0x2A8CDC4C EQ PUSH2 0x1BD JUMPI DUP1 PUSH4 0x4E69D560 EQ PUSH2 0x1ED JUMPI JUMPDEST PUSH1 0x0 DUP1 REVERT JUMPDEST PUSH2 0x16C PUSH1 0x4 DUP1 CALLDATASIZE SUB DUP2 ADD SWAP1 PUSH2 0x167 SWAP2 SWAP1 PUSH2 0x14FB JUMP JUMPDEST PUSH2 0x43E JUMP JUMPDEST STOP JUMPDEST PUSH2 0x188 PUSH1 0x4 DUP1 CALLDATASIZE SUB DUP2 ADD SWAP1 PUSH2 0x183 SWAP2 SWAP1 PUSH2 0x14FB JUMP JUMPDEST PUSH2 0x52D JUMP JUMPDEST PUSH1 0x40 MLOAD PUSH2 0x196 SWAP3 SWAP2 SWAP1 PUSH2 0x18FE JUMP JUMPDEST PUSH1 0x40 MLOAD DUP1 SWAP2 SUB SWAP1 RETURN JUMPDEST PUSH2 0x1A7 PUSH2 0x5E9 JUMP JUMPDEST PUSH1 0x40 MLOAD PUSH2 0x1B4 SWAP2 SWAP1 PUSH2 0x1950 JUMP JUMPDEST PUSH1 0x40 MLOAD DUP1 SWAP2 SUB SWAP1 RETURN JUMPDEST PUSH2 0x1D7 PUSH1 0x4 DUP1 CALLDATASIZE SUB DUP2 ADD SWAP1 PUSH2 0x1D2 SWAP2 SWAP1 PUSH2 0x14FB JUMP JUMPDEST PUSH2 0x5F3 JUMP JUMPDEST PUSH1 0x40 MLOAD PUSH2 0x1E4 SWAP2 SWAP1 PUSH2 0x1862 JUMP JUMPDEST PUSH1 0x40 MLOAD DUP1 SWAP2 SUB SWAP1 RETURN JUMPDEST PUSH2 0x1F5 PUSH2 0x6DE JUMP JUMPDEST PUSH1 0x40 MLOAD PUSH2 0x202 SWAP2 SWAP1 PUSH2 0x1950 JUMP JUMPDEST PUSH1 0x40 MLOAD DUP1 SWAP2 SUB SWAP1 RETURN JUMPDEST PUSH2 0x213 PUSH2 0x6E8 JUMP JUMPDEST PUSH1 0x40 MLOAD PUSH2 0x220 SWAP2 SWAP1 PUSH2 0x1950 JUMP JUMPDEST PUSH1 0x40 MLOAD DUP1 SWAP2 SUB SWAP1 RETURN JUMPDEST PUSH2 0x231 PUSH2 0x7BC JUMP JUMPDEST PUSH1 0x40 MLOAD PUSH2 0x23E SWAP2 SWAP1 PUSH2 0x189F JUMP JUMPDEST PUSH1 0x40 MLOAD DUP1 SWAP2 SUB SWAP1 RETURN JUMPDEST PUSH2 0x261 PUSH1 0x4 DUP1 CALLDATASIZE SUB DUP2 ADD SWAP1 PUSH2 0x25C SWAP2 SWAP1 PUSH2 0x15DD JUMP JUMPDEST PUSH2 0x8B7 JUMP JUMPDEST STOP JUMPDEST PUSH2 0x27D PUSH1 0x4 DUP1 CALLDATASIZE SUB DUP2 ADD SWAP1 PUSH2 0x278 SWAP2 SWAP1 PUSH2 0x14FB JUMP JUMPDEST PUSH2 0x98A JUMP JUMPDEST PUSH1 0x40 MLOAD PUSH2 0x28A SWAP2 SWAP1 PUSH2 0x18C1 JUMP JUMPDEST PUSH1 0x40 MLOAD DUP1 SWAP2 SUB SWAP1 RETURN JUMPDEST PUSH2 0x2AD PUSH1 0x4 DUP1 CALLDATASIZE SUB DUP2 ADD SWAP1 PUSH2 0x2A8 SWAP2 SWAP1 PUSH2 0x14FB JUMP JUMPDEST PUSH2 0x9C9 JUMP JUMPDEST STOP JUMPDEST PUSH2 0x2C9 PUSH1 0x4 DUP1 CALLDATASIZE SUB DUP2 ADD SWAP1 PUSH2 0x2C4 SWAP2 SWAP1 PUSH2 0x1589 JUMP JUMPDEST PUSH2 0x9D3 JUMP JUMPDEST STOP JUMPDEST PUSH2 0x2D3 PUSH2 0xAA6 JUMP JUMPDEST PUSH1 0x40 MLOAD PUSH2 0x2E0 SWAP2 SWAP1 PUSH2 0x1950 JUMP JUMPDEST PUSH1 0x40 MLOAD DUP1 SWAP2 SUB SWAP1 RETURN JUMPDEST PUSH2 0x2F1 PUSH2 0xAB0 JUMP JUMPDEST PUSH1 0x40 MLOAD PUSH2 0x2FE SWAP2 SWAP1 PUSH2 0x1862 JUMP JUMPDEST PUSH1 0x40 MLOAD DUP1 SWAP2 SUB SWAP1 RETURN JUMPDEST PUSH2 0x321 PUSH1 0x4 DUP1 CALLDATASIZE SUB DUP2 ADD SWAP1 PUSH2 0x31C SWAP2 SWAP1 PUSH2 0x14BA JUMP JUMPDEST PUSH2 0xAD9 JUMP JUMPDEST STOP JUMPDEST PUSH2 0x32B PUSH2 0xC67 JUMP JUMPDEST STOP JUMPDEST PUSH2 0x335 PUSH2 0xC70 JUMP JUMPDEST STOP JUMPDEST PUSH2 0x351 PUSH1 0x4 DUP1 CALLDATASIZE SUB DUP2 ADD SWAP1 PUSH2 0x34C SWAP2 SWAP1 PUSH2 0x1468 JUMP JUMPDEST PUSH2 0xD03 JUMP JUMPDEST STOP JUMPDEST PUSH2 0x36D PUSH1 0x4 DUP1 CALLDATASIZE SUB DUP2 ADD SWAP1 PUSH2 0x368 SWAP2 SWAP1 PUSH2 0x1468 JUMP JUMPDEST PUSH2 0xE4D JUMP JUMPDEST PUSH1 0x40 MLOAD PUSH2 0x37D SWAP5 SWAP4 SWAP3 SWAP2 SWAP1 PUSH2 0x196B JUMP JUMPDEST PUSH1 0x40 MLOAD DUP1 SWAP2 SUB SWAP1 RETURN JUMPDEST PUSH2 0x38E PUSH2 0xEAA JUMP JUMPDEST PUSH1 0x40 MLOAD PUSH2 0x39B SWAP2 SWAP1 PUSH2 0x1950 JUMP JUMPDEST PUSH1 0x40 MLOAD DUP1 SWAP2 SUB SWAP1 RETURN JUMPDEST PUSH2 0x3BE PUSH1 0x4 DUP1 CALLDATASIZE SUB DUP2 ADD SWAP1 PUSH2 0x3B9 SWAP2 SWAP1 PUSH2 0x154D JUMP JUMPDEST PUSH2 0xEB4 JUMP JUMPDEST STOP JUMPDEST PUSH2 0x3DA PUSH1 0x4 DUP1 CALLDATASIZE SUB DUP2 ADD SWAP1 PUSH2 0x3D5 SWAP2 SWAP1 PUSH2 0x14FB JUMP JUMPDEST PUSH2 0xF87 JUMP JUMPDEST PUSH1 0x40 MLOAD PUSH2 0x3E7 SWAP2 SWAP1 PUSH2 0x1950 JUMP JUMPDEST PUSH1 0x40 MLOAD DUP1 SWAP2 SUB SWAP1 RETURN JUMPDEST PUSH2 0x3F8 PUSH2 0x1072 JUMP JUMPDEST PUSH1 0x40 MLOAD PUSH2 0x405 SWAP2 SWAP1 PUSH2 0x18DC JUMP JUMPDEST PUSH1 0x40 MLOAD DUP1 SWAP2 SUB SWAP1 RETURN JUMPDEST PUSH2 0x428 PUSH1 0x4 DUP1 CALLDATASIZE SUB DUP2 ADD SWAP1 PUSH2 0x423 SWAP2 SWAP1 PUSH2 0x14FB JUMP JUMPDEST PUSH2 0x1154 JUMP JUMPDEST PUSH1 0x40 MLOAD PUSH2 0x435 SWAP2 SWAP1 PUSH2 0x192E JUMP JUMPDEST PUSH1 0x40 MLOAD DUP1 SWAP2 SUB SWAP1 RETURN JUMPDEST PUSH1 0x0 PUSH1 0x5 PUSH1 0x0 CALLER PUSH20 0xFFFFFFFFFFFFFFFFFFFFFFFFFFFFFFFFFFFFFFFF AND PUSH20 0xFFFFFFFFFFFFFFFFFFFFFFFFFFFFFFFFFFFFFFFF AND DUP2 MSTORE PUSH1 0x20 ADD SWAP1 DUP2 MSTORE PUSH1 0x20 ADD PUSH1 0x0 KECCAK256 SWAP1 POP DUP1 PUSH1 0x1 ADD PUSH1 0x0 SWAP1 SLOAD SWAP1 PUSH2 0x100 EXP SWAP1 DIV PUSH1 0xFF AND ISZERO PUSH2 0x49D JUMPI PUSH1 0x0 DUP1 REVERT JUMPDEST PUSH1 0x1 DUP2 PUSH1 0x1 ADD PUSH1 0x0 PUSH2 0x100 EXP DUP2 SLOAD DUP2 PUSH1 0xFF MUL NOT AND SWAP1 DUP4 ISZERO ISZERO MUL OR SWAP1 SSTORE POP DUP2 DUP2 PUSH1 0x2 ADD DUP2 SWAP1 SSTORE POP DUP1 PUSH1 0x0 ADD SLOAD PUSH1 0x6 DUP4 DUP2 SLOAD DUP2 LT PUSH2 0x502 JUMPI PUSH32 0x4E487B7100000000000000000000000000000000000000000000000000000000 PUSH1 0x0 MSTORE PUSH1 0x32 PUSH1 0x4 MSTORE PUSH1 0x24 PUSH1 0x0 REVERT JUMPDEST SWAP1 PUSH1 0x0 MSTORE PUSH1 0x20 PUSH1 0x0 KECCAK256 SWAP1 PUSH1 0x2 MUL ADD PUSH1 0x1 ADD PUSH1 0x0 DUP3 DUP3 SLOAD PUSH2 0x522 SWAP2 SWAP1 PUSH2 0x1ADC JUMP JUMPDEST SWAP3 POP POP DUP2 SWAP1 SSTORE POP POP POP JUMP JUMPDEST PUSH1 0x6 DUP2 DUP2 SLOAD DUP2 LT PUSH2 0x53D JUMPI PUSH1 0x0 DUP1 REVERT JUMPDEST SWAP1 PUSH1 0x0 MSTORE PUSH1 0x20 PUSH1 0x0 KECCAK256 SWAP1 PUSH1 0x2 MUL ADD PUSH1 0x0 SWAP2 POP SWAP1 POP DUP1 PUSH1 0x0 ADD DUP1 SLOAD PUSH2 0x560 SWAP1 PUSH2 0x1BE0 JUMP JUMPDEST DUP1 PUSH1 0x1F ADD PUSH1 0x20 DUP1 SWAP2 DIV MUL PUSH1 0x20 ADD PUSH1 0x40 MLOAD SWAP1 DUP2 ADD PUSH1 0x40 MSTORE DUP1 SWAP3 SWAP2 SWAP1 DUP2 DUP2 MSTORE PUSH1 0x20 ADD DUP3 DUP1 SLOAD PUSH2 0x58C SWAP1 PUSH2 0x1BE0 JUMP JUMPDEST DUP1 ISZERO PUSH2 0x5D9 JUMPI DUP1 PUSH1 0x1F LT PUSH2 0x5AE JUMPI PUSH2 0x100 DUP1 DUP4 SLOAD DIV MUL DUP4 MSTORE SWAP2 PUSH1 0x20 ADD SWAP2 PUSH2 0x5D9 JUMP JUMPDEST DUP3 ADD SWAP2 SWAP1 PUSH1 0x0 MSTORE PUSH1 0x20 PUSH1 0x0 KECCAK256 SWAP1 JUMPDEST DUP2 SLOAD DUP2 MSTORE SWAP1 PUSH1 0x1 ADD SWAP1 PUSH1 0x20 ADD DUP1 DUP4 GT PUSH2 0x5BC JUMPI DUP3 SWAP1 SUB PUSH1 0x1F AND DUP3 ADD SWAP2 JUMPDEST POP POP POP POP POP SWAP1 DUP1 PUSH1 0x1 ADD SLOAD SWAP1 POP DUP3 JUMP JUMPDEST PUSH1 0x0 PUSH1 0x4 SLOAD SWAP1 POP SWAP1 JUMP JUMPDEST PUSH1 0x0 PUSH1 0x7 DUP3 DUP2 SLOAD DUP2 LT PUSH2 0x62F JUMPI PUSH32 0x4E487B7100000000000000000000000000000000000000000000000000000000 PUSH1 0x0 MSTORE PUSH1 0x32 PUSH1 0x4 MSTORE PUSH1 0x24 PUSH1 0x0 REVERT JUMPDEST SWAP1 PUSH1 0x0 MSTORE PUSH1 0x20 PUSH1 0x0 KECCAK256 ADD PUSH1 0x0 SWAP1 SLOAD SWAP1 PUSH2 0x100 EXP SWAP1 DIV PUSH20 0xFFFFFFFFFFFFFFFFFFFFFFFFFFFFFFFFFFFFFFFF AND PUSH20 0xFFFFFFFFFFFFFFFFFFFFFFFFFFFFFFFFFFFFFFFF AND PUSH4 0x7A16FCB0 PUSH1 0x40 MLOAD DUP2 PUSH4 0xFFFFFFFF AND PUSH1 0xE0 SHL DUP2 MSTORE PUSH1 0x4 ADD PUSH1 0x20 PUSH1 0x40 MLOAD DUP1 DUP4 SUB DUP2 DUP7 DUP1 EXTCODESIZE ISZERO DUP1 ISZERO PUSH2 0x69F JUMPI PUSH1 0x0 DUP1 REVERT JUMPDEST POP GAS STATICCALL ISZERO DUP1 ISZERO PUSH2 0x6B3 JUMPI RETURNDATASIZE PUSH1 0x0 DUP1 RETURNDATACOPY RETURNDATASIZE PUSH1 0x0 REVERT JUMPDEST POP POP POP POP PUSH1 0x40 MLOAD RETURNDATASIZE PUSH1 0x1F NOT PUSH1 0x1F DUP3 ADD AND DUP3 ADD DUP1 PUSH1 0x40 MSTORE POP DUP2 ADD SWAP1 PUSH2 0x6D7 SWAP2 SWAP1 PUSH2 0x1491 JUMP JUMPDEST SWAP1 POP SWAP2 SWAP1 POP JUMP JUMPDEST PUSH1 0x0 PUSH1 0x1 SLOAD SWAP1 POP SWAP1 JUMP JUMPDEST PUSH1 0x0 DUP1 PUSH1 0x0 SWAP1 POP PUSH1 0x0 JUMPDEST PUSH1 0x6 DUP1 SLOAD SWAP1 POP DUP2 LT ISZERO PUSH2 0x7B7 JUMPI DUP2 PUSH1 0x6 DUP3 DUP2 SLOAD DUP2 LT PUSH2 0x73A JUMPI PUSH32 0x4E487B7100000000000000000000000000000000000000000000000000000000 PUSH1 0x0 MSTORE PUSH1 0x32 PUSH1 0x4 MSTORE PUSH1 0x24 PUSH1 0x0 REVERT JUMPDEST SWAP1 PUSH1 0x0 MSTORE PUSH1 0x20 PUSH1 0x0 KECCAK256 SWAP1 PUSH1 0x2 MUL ADD PUSH1 0x1 ADD SLOAD GT ISZERO PUSH2 0x7A4 JUMPI PUSH1 0x6 DUP2 DUP2 SLOAD DUP2 LT PUSH2 0x78C JUMPI PUSH32 0x4E487B7100000000000000000000000000000000000000000000000000000000 PUSH1 0x0 MSTORE PUSH1 0x32 PUSH1 0x4 MSTORE PUSH1 0x24 PUSH1 0x0 REVERT JUMPDEST SWAP1 PUSH1 0x0 MSTORE PUSH1 0x20 PUSH1 0x0 KECCAK256 SWAP1 PUSH1 0x2 MUL ADD PUSH1 0x1 ADD SLOAD SWAP2 POP DUP1 SWAP3 POP JUMPDEST DUP1 DUP1 PUSH2 0x7AF SWAP1 PUSH2 0x1C12 JUMP JUMPDEST SWAP2 POP POP PUSH2 0x6F2 JUMP JUMPDEST POP POP SWAP1 JUMP JUMPDEST PUSH1 0x60 PUSH1 0x6 DUP1 SLOAD DUP1 PUSH1 0x20 MUL PUSH1 0x20 ADD PUSH1 0x40 MLOAD SWAP1 DUP2 ADD PUSH1 0x40 MSTORE DUP1 SWAP3 SWAP2 SWAP1 DUP2 DUP2 MSTORE PUSH1 0x20 ADD PUSH1 0x0 SWAP1 JUMPDEST DUP3 DUP3 LT ISZERO PUSH2 0x8AE JUMPI DUP4 DUP3 SWAP1 PUSH1 0x0 MSTORE PUSH1 0x20 PUSH1 0x0 KECCAK256 SWAP1 PUSH1 0x2 MUL ADD PUSH1 0x40 MLOAD DUP1 PUSH1 0x40 ADD PUSH1 0x40 MSTORE SWAP1 DUP2 PUSH1 0x0 DUP3 ADD DUP1 SLOAD PUSH2 0x813 SWAP1 PUSH2 0x1BE0 JUMP JUMPDEST DUP1 PUSH1 0x1F ADD PUSH1 0x20 DUP1 SWAP2 DIV MUL PUSH1 0x20 ADD PUSH1 0x40 MLOAD SWAP1 DUP2 ADD PUSH1 0x40 MSTORE DUP1 SWAP3 SWAP2 SWAP1 DUP2 DUP2 MSTORE PUSH1 0x20 ADD DUP3 DUP1 SLOAD PUSH2 0x83F SWAP1 PUSH2 0x1BE0 JUMP JUMPDEST DUP1 ISZERO PUSH2 0x88C JUMPI DUP1 PUSH1 0x1F LT PUSH2 0x861 JUMPI PUSH2 0x100 DUP1 DUP4 SLOAD DIV MUL DUP4 MSTORE SWAP2 PUSH1 0x20 ADD SWAP2 PUSH2 0x88C JUMP JUMPDEST DUP3 ADD SWAP2 SWAP1 PUSH1 0x0 MSTORE PUSH1 0x20 PUSH1 0x0 KECCAK256 SWAP1 JUMPDEST DUP2 SLOAD DUP2 MSTORE SWAP1 PUSH1 0x1 ADD SWAP1 PUSH1 0x20 ADD DUP1 DUP4 GT PUSH2 0x86F JUMPI DUP3 SWAP1 SUB PUSH1 0x1F AND DUP3 ADD SWAP2 JUMPDEST POP POP POP POP POP DUP2 MSTORE PUSH1 0x20 ADD PUSH1 0x1 DUP3 ADD SLOAD DUP2 MSTORE POP POP DUP2 MSTORE PUSH1 0x20 ADD SWAP1 PUSH1 0x1 ADD SWAP1 PUSH2 0x7E0 JUMP JUMPDEST POP POP POP POP SWAP1 POP SWAP1 JUMP JUMPDEST PUSH1 0x7 DUP3 DUP2 SLOAD DUP2 LT PUSH2 0x8F1 JUMPI PUSH32 0x4E487B7100000000000000000000000000000000000000000000000000000000 PUSH1 0x0 MSTORE PUSH1 0x32 PUSH1 0x4 MSTORE PUSH1 0x24 PUSH1 0x0 REVERT JUMPDEST SWAP1 PUSH1 0x0 MSTORE PUSH1 0x20 PUSH1 0x0 KECCAK256 ADD PUSH1 0x0 SWAP1 SLOAD SWAP1 PUSH2 0x100 EXP SWAP1 DIV PUSH20 0xFFFFFFFFFFFFFFFFFFFFFFFFFFFFFFFFFFFFFFFF AND PUSH20 0xFFFFFFFFFFFFFFFFFFFFFFFFFFFFFFFFFFFFFFFF AND PUSH4 0x121B93F DUP3 PUSH1 0x40 MLOAD DUP3 PUSH4 0xFFFFFFFF AND PUSH1 0xE0 SHL DUP2 MSTORE PUSH1 0x4 ADD PUSH2 0x954 SWAP2 SWAP1 PUSH2 0x1950 JUMP JUMPDEST PUSH1 0x0 PUSH1 0x40 MLOAD DUP1 DUP4 SUB DUP2 PUSH1 0x0 DUP8 DUP1 EXTCODESIZE ISZERO DUP1 ISZERO PUSH2 0x96E JUMPI PUSH1 0x0 DUP1 REVERT JUMPDEST POP GAS CALL ISZERO DUP1 ISZERO PUSH2 0x982 JUMPI RETURNDATASIZE PUSH1 0x0 DUP1 RETURNDATACOPY RETURNDATASIZE PUSH1 0x0 REVERT JUMPDEST POP POP POP POP POP POP JUMP JUMPDEST PUSH1 0x7 DUP2 DUP2 SLOAD DUP2 LT PUSH2 0x99A JUMPI PUSH1 0x0 DUP1 REVERT JUMPDEST SWAP1 PUSH1 0x0 MSTORE PUSH1 0x20 PUSH1 0x0 KECCAK256 ADD PUSH1 0x0 SWAP2 POP SLOAD SWAP1 PUSH2 0x100 EXP SWAP1 DIV PUSH20 0xFFFFFFFFFFFFFFFFFFFFFFFFFFFFFFFFFFFFFFFF AND DUP2 JUMP JUMPDEST DUP1 PUSH1 0x1 DUP2 SWAP1 SSTORE POP POP JUMP JUMPDEST PUSH1 0x7 DUP3 DUP2 SLOAD DUP2 LT PUSH2 0xA0D JUMPI PUSH32 0x4E487B7100000000000000000000000000000000000000000000000000000000 PUSH1 0x0 MSTORE PUSH1 0x32 PUSH1 0x4 MSTORE PUSH1 0x24 PUSH1 0x0 REVERT JUMPDEST SWAP1 PUSH1 0x0 MSTORE PUSH1 0x20 PUSH1 0x0 KECCAK256 ADD PUSH1 0x0 SWAP1 SLOAD SWAP1 PUSH2 0x100 EXP SWAP1 DIV PUSH20 0xFFFFFFFFFFFFFFFFFFFFFFFFFFFFFFFFFFFFFFFF AND PUSH20 0xFFFFFFFFFFFFFFFFFFFFFFFFFFFFFFFFFFFFFFFF AND PUSH4 0x836BC692 DUP3 PUSH1 0x40 MLOAD DUP3 PUSH4 0xFFFFFFFF AND PUSH1 0xE0 SHL DUP2 MSTORE PUSH1 0x4 ADD PUSH2 0xA70 SWAP2 SWAP1 PUSH2 0x187D JUMP JUMPDEST PUSH1 0x0 PUSH1 0x40 MLOAD DUP1 DUP4 SUB DUP2 PUSH1 0x0 DUP8 DUP1 EXTCODESIZE ISZERO DUP1 ISZERO PUSH2 0xA8A JUMPI PUSH1 0x0 DUP1 REVERT JUMPDEST POP GAS CALL ISZERO DUP1 ISZERO PUSH2 0xA9E JUMPI RETURNDATASIZE PUSH1 0x0 DUP1 RETURNDATACOPY RETURNDATASIZE PUSH1 0x0 REVERT JUMPDEST POP POP POP POP POP POP JUMP JUMPDEST PUSH1 0x0 PUSH1 0x2 SLOAD SWAP1 POP SWAP1 JUMP JUMPDEST PUSH1 0x0 DUP1 PUSH1 0x0 SWAP1 SLOAD SWAP1 PUSH2 0x100 EXP SWAP1 DIV PUSH20 0xFFFFFFFFFFFFFFFFFFFFFFFFFFFFFFFFFFFFFFFF AND SWAP1 POP SWAP1 JUMP JUMPDEST CALLER PUSH1 0x0 DUP1 PUSH2 0x100 EXP DUP2 SLOAD DUP2 PUSH20 0xFFFFFFFFFFFFFFFFFFFFFFFFFFFFFFFFFFFFFFFF MUL NOT AND SWAP1 DUP4 PUSH20 0xFFFFFFFFFFFFFFFFFFFFFFFFFFFFFFFFFFFFFFFF AND MUL OR SWAP1 SSTORE POP PUSH1 0x1 PUSH1 0x5 PUSH1 0x0 DUP1 PUSH1 0x0 SWAP1 SLOAD SWAP1 PUSH2 0x100 EXP SWAP1 DIV PUSH20 0xFFFFFFFFFFFFFFFFFFFFFFFFFFFFFFFFFFFFFFFF AND PUSH20 0xFFFFFFFFFFFFFFFFFFFFFFFFFFFFFFFFFFFFFFFF AND PUSH20 0xFFFFFFFFFFFFFFFFFFFFFFFFFFFFFFFFFFFFFFFF AND DUP2 MSTORE PUSH1 0x20 ADD SWAP1 DUP2 MSTORE PUSH1 0x20 ADD PUSH1 0x0 KECCAK256 PUSH1 0x0 ADD DUP2 SWAP1 SSTORE POP PUSH1 0x0 PUSH1 0x1 DUP2 SWAP1 SSTORE POP PUSH2 0xB92 PUSH2 0x1252 JUMP JUMPDEST DUP1 MLOAD PUSH1 0x4 DUP2 SWAP1 SSTORE POP PUSH1 0x0 JUMPDEST DUP2 MLOAD DUP2 LT ISZERO PUSH2 0xC63 JUMPI PUSH1 0x6 PUSH1 0x40 MLOAD DUP1 PUSH1 0x40 ADD PUSH1 0x40 MSTORE DUP1 DUP5 DUP5 DUP2 MLOAD DUP2 LT PUSH2 0xBEC JUMPI PUSH32 0x4E487B7100000000000000000000000000000000000000000000000000000000 PUSH1 0x0 MSTORE PUSH1 0x32 PUSH1 0x4 MSTORE PUSH1 0x24 PUSH1 0x0 REVERT JUMPDEST PUSH1 0x20 MUL PUSH1 0x20 ADD ADD MLOAD DUP2 MSTORE PUSH1 0x20 ADD PUSH1 0x0 DUP2 MSTORE POP SWAP1 DUP1 PUSH1 0x1 DUP2 SLOAD ADD DUP1 DUP3 SSTORE DUP1 SWAP2 POP POP PUSH1 0x1 SWAP1 SUB SWAP1 PUSH1 0x0 MSTORE PUSH1 0x20 PUSH1 0x0 KECCAK256 SWAP1 PUSH1 0x2 MUL ADD PUSH1 0x0 SWAP1 SWAP2 SWAP1 SWAP2 SWAP1 SWAP2 POP PUSH1 0x0 DUP3 ADD MLOAD DUP2 PUSH1 0x0 ADD SWAP1 DUP1 MLOAD SWAP1 PUSH1 0x20 ADD SWAP1 PUSH2 0xC43 SWAP3 SWAP2 SWAP1 PUSH2 0x125B JUMP JUMPDEST POP PUSH1 0x20 DUP3 ADD MLOAD DUP2 PUSH1 0x1 ADD SSTORE POP POP DUP1 DUP1 PUSH2 0xC5B SWAP1 PUSH2 0x1C12 JUMP JUMPDEST SWAP2 POP POP PUSH2 0xB9D JUMP JUMPDEST POP POP JUMP JUMPDEST TIMESTAMP PUSH1 0x3 DUP2 SWAP1 SSTORE POP JUMP JUMPDEST PUSH1 0x0 PUSH1 0x40 MLOAD PUSH2 0xC7E SWAP1 PUSH2 0x12E1 JUMP JUMPDEST PUSH1 0x40 MLOAD DUP1 SWAP2 SUB SWAP1 PUSH1 0x0 CREATE DUP1 ISZERO DUP1 ISZERO PUSH2 0xC9A JUMPI RETURNDATASIZE PUSH1 0x0 DUP1 RETURNDATACOPY RETURNDATASIZE PUSH1 0x0 REVERT JUMPDEST POP SWAP1 POP PUSH1 0x7 DUP2 SWAP1 DUP1 PUSH1 0x1 DUP2 SLOAD ADD DUP1 DUP3 SSTORE DUP1 SWAP2 POP POP PUSH1 0x1 SWAP1 SUB SWAP1 PUSH1 0x0 MSTORE PUSH1 0x20 PUSH1 0x0 KECCAK256 ADD PUSH1 0x0 SWAP1 SWAP2 SWAP1 SWAP2 SWAP1 SWAP2 PUSH2 0x100 EXP DUP2 SLOAD DUP2 PUSH20 0xFFFFFFFFFFFFFFFFFFFFFFFFFFFFFFFFFFFFFFFF MUL NOT AND SWAP1 DUP4 PUSH20 0xFFFFFFFFFFFFFFFFFFFFFFFFFFFFFFFFFFFFFFFF AND MUL OR SWAP1 SSTORE POP POP JUMP JUMPDEST PUSH1 0x0 DUP1 SLOAD SWAP1 PUSH2 0x100 EXP SWAP1 DIV PUSH20 0xFFFFFFFFFFFFFFFFFFFFFFFFFFFFFFFFFFFFFFFF AND PUSH20 0xFFFFFFFFFFFFFFFFFFFFFFFFFFFFFFFFFFFFFFFF AND CALLER PUSH20 0xFFFFFFFFFFFFFFFFFFFFFFFFFFFFFFFFFFFFFFFF AND EQ DUP1 ISZERO PUSH2 0xDAB JUMPI POP PUSH1 0x5 PUSH1 0x0 DUP3 PUSH20 0xFFFFFFFFFFFFFFFFFFFFFFFFFFFFFFFFFFFFFFFF AND PUSH20 0xFFFFFFFFFFFFFFFFFFFFFFFFFFFFFFFFFFFFFFFF AND DUP2 MSTORE PUSH1 0x20 ADD SWAP1 DUP2 MSTORE PUSH1 0x20 ADD PUSH1 0x0 KECCAK256 PUSH1 0x1 ADD PUSH1 0x0 SWAP1 SLOAD SWAP1 PUSH2 0x100 EXP SWAP1 DIV PUSH1 0xFF AND ISZERO JUMPDEST DUP1 ISZERO PUSH2 0xDF9 JUMPI POP PUSH1 0x0 PUSH1 0x5 PUSH1 0x0 DUP4 PUSH20 0xFFFFFFFFFFFFFFFFFFFFFFFFFFFFFFFFFFFFFFFF AND PUSH20 0xFFFFFFFFFFFFFFFFFFFFFFFFFFFFFFFFFFFFFFFF AND DUP2 MSTORE PUSH1 0x20 ADD SWAP1 DUP2 MSTORE PUSH1 0x20 ADD PUSH1 0x0 KECCAK256 PUSH1 0x0 ADD SLOAD EQ JUMPDEST PUSH2 0xE02 JUMPI PUSH1 0x0 DUP1 REVERT JUMPDEST PUSH1 0x1 PUSH1 0x5 PUSH1 0x0 DUP4 PUSH20 0xFFFFFFFFFFFFFFFFFFFFFFFFFFFFFFFFFFFFFFFF AND PUSH20 0xFFFFFFFFFFFFFFFFFFFFFFFFFFFFFFFFFFFFFFFF AND DUP2 MSTORE PUSH1 0x20 ADD SWAP1 DUP2 MSTORE PUSH1 0x20 ADD PUSH1 0x0 KECCAK256 PUSH1 0x0 ADD DUP2 SWAP1 SSTORE POP POP JUMP JUMPDEST PUSH1 0x5 PUSH1 0x20 MSTORE DUP1 PUSH1 0x0 MSTORE PUSH1 0x40 PUSH1 0x0 KECCAK256 PUSH1 0x0 SWAP2 POP SWAP1 POP DUP1 PUSH1 0x0 ADD SLOAD SWAP1 DUP1 PUSH1 0x1 ADD PUSH1 0x0 SWAP1 SLOAD SWAP1 PUSH2 0x100 EXP SWAP1 DIV PUSH1 0xFF AND SWAP1 DUP1 PUSH1 0x1 ADD PUSH1 0x1 SWAP1 SLOAD SWAP1 PUSH2 0x100 EXP SWAP1 DIV PUSH20 0xFFFFFFFFFFFFFFFFFFFFFFFFFFFFFFFFFFFFFFFF AND SWAP1 DUP1 PUSH1 0x2 ADD SLOAD SWAP1 POP DUP5 JUMP JUMPDEST PUSH1 0x0 PUSH1 0x3 SLOAD SWAP1 POP SWAP1 JUMP JUMPDEST PUSH1 0x7 DUP3 DUP2 SLOAD DUP2 LT PUSH2 0xEEE JUMPI PUSH32 0x4E487B7100000000000000000000000000000000000000000000000000000000 PUSH1 0x0 MSTORE PUSH1 0x32 PUSH1 0x4 MSTORE PUSH1 0x24 PUSH1 0x0 REVERT JUMPDEST SWAP1 PUSH1 0x0 MSTORE PUSH1 0x20 PUSH1 0x0 KECCAK256 ADD PUSH1 0x0 SWAP1 SLOAD SWAP1 PUSH2 0x100 EXP SWAP1 DIV PUSH20 0xFFFFFFFFFFFFFFFFFFFFFFFFFFFFFFFFFFFFFFFF AND PUSH20 0xFFFFFFFFFFFFFFFFFFFFFFFFFFFFFFFFFFFFFFFF AND PUSH4 0x9E7B8D61 DUP3 PUSH1 0x40 MLOAD DUP3 PUSH4 0xFFFFFFFF AND PUSH1 0xE0 SHL DUP2 MSTORE PUSH1 0x4 ADD PUSH2 0xF51 SWAP2 SWAP1 PUSH2 0x1862 JUMP JUMPDEST PUSH1 0x0 PUSH1 0x40 MLOAD DUP1 DUP4 SUB DUP2 PUSH1 0x0 DUP8 DUP1 EXTCODESIZE ISZERO DUP1 ISZERO PUSH2 0xF6B JUMPI PUSH1 0x0 DUP1 REVERT JUMPDEST POP GAS CALL ISZERO DUP1 ISZERO PUSH2 0xF7F JUMPI RETURNDATASIZE PUSH1 0x0 DUP1 RETURNDATACOPY RETURNDATASIZE PUSH1 0x0 REVERT JUMPDEST POP POP POP POP POP POP JUMP JUMPDEST PUSH1 0x0 PUSH1 0x7 DUP3 DUP2 SLOAD DUP2 LT PUSH2 0xFC3 JUMPI PUSH32 0x4E487B7100000000000000000000000000000000000000000000000000000000 PUSH1 0x0 MSTORE PUSH1 0x32 PUSH1 0x4 MSTORE PUSH1 0x24 PUSH1 0x0 REVERT JUMPDEST SWAP1 PUSH1 0x0 MSTORE PUSH1 0x20 PUSH1 0x0 KECCAK256 ADD PUSH1 0x0 SWAP1 SLOAD SWAP1 PUSH2 0x100 EXP SWAP1 DIV PUSH20 0xFFFFFFFFFFFFFFFFFFFFFFFFFFFFFFFFFFFFFFFF AND PUSH20 0xFFFFFFFFFFFFFFFFFFFFFFFFFFFFFFFFFFFFFFFF AND PUSH4 0x609FF1BD PUSH1 0x40 MLOAD DUP2 PUSH4 0xFFFFFFFF AND PUSH1 0xE0 SHL DUP2 MSTORE PUSH1 0x4 ADD PUSH1 0x20 PUSH1 0x40 MLOAD DUP1 DUP4 SUB DUP2 DUP7 DUP1 EXTCODESIZE ISZERO DUP1 ISZERO PUSH2 0x1033 JUMPI PUSH1 0x0 DUP1 REVERT JUMPDEST POP GAS STATICCALL ISZERO DUP1 ISZERO PUSH2 0x1047 JUMPI RETURNDATASIZE PUSH1 0x0 DUP1 RETURNDATACOPY RETURNDATASIZE PUSH1 0x0 REVERT JUMPDEST POP POP POP POP PUSH1 0x40 MLOAD RETURNDATASIZE PUSH1 0x1F NOT PUSH1 0x1F DUP3 ADD AND DUP3 ADD DUP1 PUSH1 0x40 MSTORE POP DUP2 ADD SWAP1 PUSH2 0x106B SWAP2 SWAP1 PUSH2 0x1524 JUMP JUMPDEST SWAP1 POP SWAP2 SWAP1 POP JUMP JUMPDEST PUSH1 0x60 PUSH1 0x6 PUSH2 0x107E PUSH2 0x6E8 JUMP JUMPDEST DUP2 SLOAD DUP2 LT PUSH2 0x10B5 JUMPI PUSH32 0x4E487B7100000000000000000000000000000000000000000000000000000000 PUSH1 0x0 MSTORE PUSH1 0x32 PUSH1 0x4 MSTORE PUSH1 0x24 PUSH1 0x0 REVERT JUMPDEST SWAP1 PUSH1 0x0 MSTORE PUSH1 0x20 PUSH1 0x0 KECCAK256 SWAP1 PUSH1 0x2 MUL ADD PUSH1 0x0 ADD DUP1 SLOAD PUSH2 0x10D1 SWAP1 PUSH2 0x1BE0 JUMP JUMPDEST DUP1 PUSH1 0x1F ADD PUSH1 0x20 DUP1 SWAP2 DIV MUL PUSH1 0x20 ADD PUSH1 0x40 MLOAD SWAP1 DUP2 ADD PUSH1 0x40 MSTORE DUP1 SWAP3 SWAP2 SWAP1 DUP2 DUP2 MSTORE PUSH1 0x20 ADD DUP3 DUP1 SLOAD PUSH2 0x10FD SWAP1 PUSH2 0x1BE0 JUMP JUMPDEST DUP1 ISZERO PUSH2 0x114A JUMPI DUP1 PUSH1 0x1F LT PUSH2 0x111F JUMPI PUSH2 0x100 DUP1 DUP4 SLOAD DIV MUL DUP4 MSTORE SWAP2 PUSH1 0x20 ADD SWAP2 PUSH2 0x114A JUMP JUMPDEST DUP3 ADD SWAP2 SWAP1 PUSH1 0x0 MSTORE PUSH1 0x20 PUSH1 0x0 KECCAK256 SWAP1 JUMPDEST DUP2 SLOAD DUP2 MSTORE SWAP1 PUSH1 0x1 ADD SWAP1 PUSH1 0x20 ADD DUP1 DUP4 GT PUSH2 0x112D JUMPI DUP3 SWAP1 SUB PUSH1 0x1F AND DUP3 ADD SWAP2 JUMPDEST POP POP POP POP POP SWAP1 POP SWAP1 JUMP JUMPDEST PUSH2 0x115C PUSH2 0x12EE JUMP JUMPDEST PUSH1 0x6 DUP3 DUP2 SLOAD DUP2 LT PUSH2 0x1196 JUMPI PUSH32 0x4E487B7100000000000000000000000000000000000000000000000000000000 PUSH1 0x0 MSTORE PUSH1 0x32 PUSH1 0x4 MSTORE PUSH1 0x24 PUSH1 0x0 REVERT JUMPDEST SWAP1 PUSH1 0x0 MSTORE PUSH1 0x20 PUSH1 0x0 KECCAK256 SWAP1 PUSH1 0x2 MUL ADD PUSH1 0x40 MLOAD DUP1 PUSH1 0x40 ADD PUSH1 0x40 MSTORE SWAP1 DUP2 PUSH1 0x0 DUP3 ADD DUP1 SLOAD PUSH2 0x11BF SWAP1 PUSH2 0x1BE0 JUMP JUMPDEST DUP1 PUSH1 0x1F ADD PUSH1 0x20 DUP1 SWAP2 DIV MUL PUSH1 0x20 ADD PUSH1 0x40 MLOAD SWAP1 DUP2 ADD PUSH1 0x40 MSTORE DUP1 SWAP3 SWAP2 SWAP1 DUP2 DUP2 MSTORE PUSH1 0x20 ADD DUP3 DUP1 SLOAD PUSH2 0x11EB SWAP1 PUSH2 0x1BE0 JUMP JUMPDEST DUP1 ISZERO PUSH2 0x1238 JUMPI DUP1 PUSH1 0x1F LT PUSH2 0x120D JUMPI PUSH2 0x100 DUP1 DUP4 SLOAD DIV MUL DUP4 MSTORE SWAP2 PUSH1 0x20 ADD SWAP2 PUSH2 0x1238 JUMP JUMPDEST DUP3 ADD SWAP2 SWAP1 PUSH1 0x0 MSTORE PUSH1 0x20 PUSH1 0x0 KECCAK256 SWAP1 JUMPDEST DUP2 SLOAD DUP2 MSTORE SWAP1 PUSH1 0x1 ADD SWAP1 PUSH1 0x20 ADD DUP1 DUP4 GT PUSH2 0x121B JUMPI DUP3 SWAP1 SUB PUSH1 0x1F AND DUP3 ADD SWAP2 JUMPDEST POP POP POP POP POP DUP2 MSTORE PUSH1 0x20 ADD PUSH1 0x1 DUP3 ADD SLOAD DUP2 MSTORE POP POP SWAP1 POP SWAP2 SWAP1 POP JUMP JUMPDEST TIMESTAMP PUSH1 0x2 DUP2 SWAP1 SSTORE POP JUMP JUMPDEST DUP3 DUP1 SLOAD PUSH2 0x1267 SWAP1 PUSH2 0x1BE0 JUMP JUMPDEST SWAP1 PUSH1 0x0 MSTORE PUSH1 0x20 PUSH1 0x0 KECCAK256 SWAP1 PUSH1 0x1F ADD PUSH1 0x20 SWAP1 DIV DUP2 ADD SWAP3 DUP3 PUSH2 0x1289 JUMPI PUSH1 0x0 DUP6 SSTORE PUSH2 0x12D0 JUMP JUMPDEST DUP3 PUSH1 0x1F LT PUSH2 0x12A2 JUMPI DUP1 MLOAD PUSH1 0xFF NOT AND DUP4 DUP1 ADD OR DUP6 SSTORE PUSH2 0x12D0 JUMP JUMPDEST DUP3 DUP1 ADD PUSH1 0x1 ADD DUP6 SSTORE DUP3 ISZERO PUSH2 0x12D0 JUMPI SWAP2 DUP3 ADD JUMPDEST DUP3 DUP2 GT ISZERO PUSH2 0x12CF JUMPI DUP3 MLOAD DUP3 SSTORE SWAP2 PUSH1 0x20 ADD SWAP2 SWAP1 PUSH1 0x1 ADD SWAP1 PUSH2 0x12B4 JUMP JUMPDEST JUMPDEST POP SWAP1 POP PUSH2 0x12DD SWAP2 SWAP1 PUSH2 0x1308 JUMP JUMPDEST POP SWAP1 JUMP JUMPDEST PUSH2 0x149A DUP1 PUSH2 0x1D28 DUP4 CODECOPY ADD SWAP1 JUMP JUMPDEST PUSH1 0x40 MLOAD DUP1 PUSH1 0x40 ADD PUSH1 0x40 MSTORE DUP1 PUSH1 0x60 DUP2 MSTORE PUSH1 0x20 ADD PUSH1 0x0 DUP2 MSTORE POP SWAP1 JUMP JUMPDEST JUMPDEST DUP1 DUP3 GT ISZERO PUSH2 0x1321 JUMPI PUSH1 0x0 DUP2 PUSH1 0x0 SWAP1 SSTORE POP PUSH1 0x1 ADD PUSH2 0x1309 JUMP JUMPDEST POP SWAP1 JUMP JUMPDEST PUSH1 0x0 PUSH2 0x1338 PUSH2 0x1333 DUP5 PUSH2 0x19E1 JUMP JUMPDEST PUSH2 0x19B0 JUMP JUMPDEST SWAP1 POP DUP1 DUP4 DUP3 MSTORE PUSH1 0x20 DUP3 ADD SWAP1 POP DUP3 PUSH1 0x0 JUMPDEST DUP6 DUP2 LT ISZERO PUSH2 0x1378 JUMPI DUP2 CALLDATALOAD DUP6 ADD PUSH2 0x135E DUP9 DUP3 PUSH2 0x1414 JUMP JUMPDEST DUP5 MSTORE PUSH1 0x20 DUP5 ADD SWAP4 POP PUSH1 0x20 DUP4 ADD SWAP3 POP POP PUSH1 0x1 DUP2 ADD SWAP1 POP PUSH2 0x1348 JUMP JUMPDEST POP POP POP SWAP4 SWAP3 POP POP POP JUMP JUMPDEST PUSH1 0x0 PUSH2 0x1395 PUSH2 0x1390 DUP5 PUSH2 0x1A0D JUMP JUMPDEST PUSH2 0x19B0 JUMP JUMPDEST SWAP1 POP DUP3 DUP2 MSTORE PUSH1 0x20 DUP2 ADD DUP5 DUP5 DUP5 ADD GT ISZERO PUSH2 0x13AD JUMPI PUSH1 0x0 DUP1 REVERT JUMPDEST PUSH2 0x13B8 DUP5 DUP3 DUP6 PUSH2 0x1B9E JUMP JUMPDEST POP SWAP4 SWAP3 POP POP POP JUMP JUMPDEST PUSH1 0x0 DUP2 CALLDATALOAD SWAP1 POP PUSH2 0x13CF DUP2 PUSH2 0x1CF9 JUMP JUMPDEST SWAP3 SWAP2 POP POP JUMP JUMPDEST PUSH1 0x0 DUP2 MLOAD SWAP1 POP PUSH2 0x13E4 DUP2 PUSH2 0x1CF9 JUMP JUMPDEST SWAP3 SWAP2 POP POP JUMP JUMPDEST PUSH1 0x0 DUP3 PUSH1 0x1F DUP4 ADD SLT PUSH2 0x13FB JUMPI PUSH1 0x0 DUP1 REVERT JUMPDEST DUP2 CALLDATALOAD PUSH2 0x140B DUP5 DUP3 PUSH1 0x20 DUP7 ADD PUSH2 0x1325 JUMP JUMPDEST SWAP2 POP POP SWAP3 SWAP2 POP POP JUMP JUMPDEST PUSH1 0x0 DUP3 PUSH1 0x1F DUP4 ADD SLT PUSH2 0x1425 JUMPI PUSH1 0x0 DUP1 REVERT JUMPDEST DUP2 CALLDATALOAD PUSH2 0x1435 DUP5 DUP3 PUSH1 0x20 DUP7 ADD PUSH2 0x1382 JUMP JUMPDEST SWAP2 POP POP SWAP3 SWAP2 POP POP JUMP JUMPDEST PUSH1 0x0 DUP2 CALLDATALOAD SWAP1 POP PUSH2 0x144D DUP2 PUSH2 0x1D10 JUMP JUMPDEST SWAP3 SWAP2 POP POP JUMP JUMPDEST PUSH1 0x0 DUP2 MLOAD SWAP1 POP PUSH2 0x1462 DUP2 PUSH2 0x1D10 JUMP JUMPDEST SWAP3 SWAP2 POP POP JUMP JUMPDEST PUSH1 0x0 PUSH1 0x20 DUP3 DUP5 SUB SLT ISZERO PUSH2 0x147A JUMPI PUSH1 0x0 DUP1 REVERT JUMPDEST PUSH1 0x0 PUSH2 0x1488 DUP5 DUP3 DUP6 ADD PUSH2 0x13C0 JUMP JUMPDEST SWAP2 POP POP SWAP3 SWAP2 POP POP JUMP JUMPDEST PUSH1 0x0 PUSH1 0x20 DUP3 DUP5 SUB SLT ISZERO PUSH2 0x14A3 JUMPI PUSH1 0x0 DUP1 REVERT JUMPDEST PUSH1 0x0 PUSH2 0x14B1 DUP5 DUP3 DUP6 ADD PUSH2 0x13D5 JUMP JUMPDEST SWAP2 POP POP SWAP3 SWAP2 POP POP JUMP JUMPDEST PUSH1 0x0 PUSH1 0x20 DUP3 DUP5 SUB SLT ISZERO PUSH2 0x14CC JUMPI PUSH1 0x0 DUP1 REVERT JUMPDEST PUSH1 0x0 DUP3 ADD CALLDATALOAD PUSH8 0xFFFFFFFFFFFFFFFF DUP2 GT ISZERO PUSH2 0x14E6 JUMPI PUSH1 0x0 DUP1 REVERT JUMPDEST PUSH2 0x14F2 DUP5 DUP3 DUP6 ADD PUSH2 0x13EA JUMP JUMPDEST SWAP2 POP POP SWAP3 SWAP2 POP POP JUMP JUMPDEST PUSH1 0x0 PUSH1 0x20 DUP3 DUP5 SUB SLT ISZERO PUSH2 0x150D JUMPI PUSH1 0x0 DUP1 REVERT JUMPDEST PUSH1 0x0 PUSH2 0x151B DUP5 DUP3 DUP6 ADD PUSH2 0x143E JUMP JUMPDEST SWAP2 POP POP SWAP3 SWAP2 POP POP JUMP JUMPDEST PUSH1 0x0 PUSH1 0x20 DUP3 DUP5 SUB SLT ISZERO PUSH2 0x1536 JUMPI PUSH1 0x0 DUP1 REVERT JUMPDEST PUSH1 0x0 PUSH2 0x1544 DUP5 DUP3 DUP6 ADD PUSH2 0x1453 JUMP JUMPDEST SWAP2 POP POP SWAP3 SWAP2 POP POP JUMP JUMPDEST PUSH1 0x0 DUP1 PUSH1 0x40 DUP4 DUP6 SUB SLT ISZERO PUSH2 0x1560 JUMPI PUSH1 0x0 DUP1 REVERT JUMPDEST PUSH1 0x0 PUSH2 0x156E DUP6 DUP3 DUP7 ADD PUSH2 0x143E JUMP JUMPDEST SWAP3 POP POP PUSH1 0x20 PUSH2 0x157F DUP6 DUP3 DUP7 ADD PUSH2 0x13C0 JUMP JUMPDEST SWAP2 POP POP SWAP3 POP SWAP3 SWAP1 POP JUMP JUMPDEST PUSH1 0x0 DUP1 PUSH1 0x40 DUP4 DUP6 SUB SLT ISZERO PUSH2 0x159C JUMPI PUSH1 0x0 DUP1 REVERT JUMPDEST PUSH1 0x0 PUSH2 0x15AA DUP6 DUP3 DUP7 ADD PUSH2 0x143E JUMP JUMPDEST SWAP3 POP POP PUSH1 0x20 DUP4 ADD CALLDATALOAD PUSH8 0xFFFFFFFFFFFFFFFF DUP2 GT ISZERO PUSH2 0x15C7 JUMPI PUSH1 0x0 DUP1 REVERT JUMPDEST PUSH2 0x15D3 DUP6 DUP3 DUP7 ADD PUSH2 0x13EA JUMP JUMPDEST SWAP2 POP POP SWAP3 POP SWAP3 SWAP1 POP JUMP JUMPDEST PUSH1 0x0 DUP1 PUSH1 0x40 DUP4 DUP6 SUB SLT ISZERO PUSH2 0x15F0 JUMPI PUSH1 0x0 DUP1 REVERT JUMPDEST PUSH1 0x0 PUSH2 0x15FE DUP6 DUP3 DUP7 ADD PUSH2 0x143E JUMP JUMPDEST SWAP3 POP POP PUSH1 0x20 PUSH2 0x160F DUP6 DUP3 DUP7 ADD PUSH2 0x143E JUMP JUMPDEST SWAP2 POP POP SWAP3 POP SWAP3 SWAP1 POP JUMP JUMPDEST PUSH1 0x0 PUSH2 0x1625 DUP4 DUP4 PUSH2 0x1758 JUMP JUMPDEST SWAP1 POP SWAP3 SWAP2 POP POP JUMP JUMPDEST PUSH1 0x0 PUSH2 0x1639 DUP4 DUP4 PUSH2 0x17CA JUMP JUMPDEST SWAP1 POP SWAP3 SWAP2 POP POP JUMP JUMPDEST PUSH2 0x164A DUP2 PUSH2 0x1B32 JUMP JUMPDEST DUP3 MSTORE POP POP JUMP JUMPDEST PUSH1 0x0 PUSH2 0x165B DUP3 PUSH2 0x1A5D JUMP JUMPDEST PUSH2 0x1665 DUP2 DUP6 PUSH2 0x1A98 JUMP JUMPDEST SWAP4 POP DUP4 PUSH1 0x20 DUP3 MUL DUP6 ADD PUSH2 0x1677 DUP6 PUSH2 0x1A3D JUMP JUMPDEST DUP1 PUSH1 0x0 JUMPDEST DUP6 DUP2 LT ISZERO PUSH2 0x16B3 JUMPI DUP5 DUP5 SUB DUP10 MSTORE DUP2 MLOAD PUSH2 0x1694 DUP6 DUP3 PUSH2 0x1619 JUMP JUMPDEST SWAP5 POP PUSH2 0x169F DUP4 PUSH2 0x1A7E JUMP JUMPDEST SWAP3 POP PUSH1 0x20 DUP11 ADD SWAP10 POP POP PUSH1 0x1 DUP2 ADD SWAP1 POP PUSH2 0x167B JUMP JUMPDEST POP DUP3 SWAP8 POP DUP8 SWAP6 POP POP POP POP POP POP SWAP3 SWAP2 POP POP JUMP JUMPDEST PUSH1 0x0 PUSH2 0x16D0 DUP3 PUSH2 0x1A68 JUMP JUMPDEST PUSH2 0x16DA DUP2 DUP6 PUSH2 0x1AA9 JUMP JUMPDEST SWAP4 POP DUP4 PUSH1 0x20 DUP3 MUL DUP6 ADD PUSH2 0x16EC DUP6 PUSH2 0x1A4D JUMP JUMPDEST DUP1 PUSH1 0x0 JUMPDEST DUP6 DUP2 LT ISZERO PUSH2 0x1728 JUMPI DUP5 DUP5 SUB DUP10 MSTORE DUP2 MLOAD PUSH2 0x1709 DUP6 DUP3 PUSH2 0x162D JUMP JUMPDEST SWAP5 POP PUSH2 0x1714 DUP4 PUSH2 0x1A8B JUMP JUMPDEST SWAP3 POP PUSH1 0x20 DUP11 ADD SWAP10 POP POP PUSH1 0x1 DUP2 ADD SWAP1 POP PUSH2 0x16F0 JUMP JUMPDEST POP DUP3 SWAP8 POP DUP8 SWAP6 POP POP POP POP POP POP SWAP3 SWAP2 POP POP JUMP JUMPDEST PUSH2 0x1743 DUP2 PUSH2 0x1B44 JUMP JUMPDEST DUP3 MSTORE POP POP JUMP JUMPDEST PUSH2 0x1752 DUP2 PUSH2 0x1B7A JUMP JUMPDEST DUP3 MSTORE POP POP JUMP JUMPDEST PUSH1 0x0 PUSH2 0x1763 DUP3 PUSH2 0x1A73 JUMP JUMPDEST PUSH2 0x176D DUP2 DUP6 PUSH2 0x1ABA JUMP JUMPDEST SWAP4 POP PUSH2 0x177D DUP2 DUP6 PUSH1 0x20 DUP7 ADD PUSH2 0x1BAD JUMP JUMPDEST PUSH2 0x1786 DUP2 PUSH2 0x1CE8 JUMP JUMPDEST DUP5 ADD SWAP2 POP POP SWAP3 SWAP2 POP POP JUMP JUMPDEST PUSH1 0x0 PUSH2 0x179C DUP3 PUSH2 0x1A73 JUMP JUMPDEST PUSH2 0x17A6 DUP2 DUP6 PUSH2 0x1ACB JUMP JUMPDEST SWAP4 POP PUSH2 0x17B6 DUP2 DUP6 PUSH1 0x20 DUP7 ADD PUSH2 0x1BAD JUMP JUMPDEST PUSH2 0x17BF DUP2 PUSH2 0x1CE8 JUMP JUMPDEST DUP5 ADD SWAP2 POP POP SWAP3 SWAP2 POP POP JUMP JUMPDEST PUSH1 0x0 PUSH1 0x40 DUP4 ADD PUSH1 0x0 DUP4 ADD MLOAD DUP5 DUP3 SUB PUSH1 0x0 DUP7 ADD MSTORE PUSH2 0x17E7 DUP3 DUP3 PUSH2 0x1758 JUMP JUMPDEST SWAP2 POP POP PUSH1 0x20 DUP4 ADD MLOAD PUSH2 0x17FC PUSH1 0x20 DUP7 ADD DUP3 PUSH2 0x1844 JUMP JUMPDEST POP DUP1 SWAP2 POP POP SWAP3 SWAP2 POP POP JUMP JUMPDEST PUSH1 0x0 PUSH1 0x40 DUP4 ADD PUSH1 0x0 DUP4 ADD MLOAD DUP5 DUP3 SUB PUSH1 0x0 DUP7 ADD MSTORE PUSH2 0x1824 DUP3 DUP3 PUSH2 0x1758 JUMP JUMPDEST SWAP2 POP POP PUSH1 0x20 DUP4 ADD MLOAD PUSH2 0x1839 PUSH1 0x20 DUP7 ADD DUP3 PUSH2 0x1844 JUMP JUMPDEST POP DUP1 SWAP2 POP POP SWAP3 SWAP2 POP POP JUMP JUMPDEST PUSH2 0x184D DUP2 PUSH2 0x1B70 JUMP JUMPDEST DUP3 MSTORE POP POP JUMP JUMPDEST PUSH2 0x185C DUP2 PUSH2 0x1B70 JUMP JUMPDEST DUP3 MSTORE POP POP JUMP JUMPDEST PUSH1 0x0 PUSH1 0x20 DUP3 ADD SWAP1 POP PUSH2 0x1877 PUSH1 0x0 DUP4 ADD DUP5 PUSH2 0x1641 JUMP JUMPDEST SWAP3 SWAP2 POP POP JUMP JUMPDEST PUSH1 0x0 PUSH1 0x20 DUP3 ADD SWAP1 POP DUP2 DUP2 SUB PUSH1 0x0 DUP4 ADD MSTORE PUSH2 0x1897 DUP2 DUP5 PUSH2 0x1650 JUMP JUMPDEST SWAP1 POP SWAP3 SWAP2 POP POP JUMP JUMPDEST PUSH1 0x0 PUSH1 0x20 DUP3 ADD SWAP1 POP DUP2 DUP2 SUB PUSH1 0x0 DUP4 ADD MSTORE PUSH2 0x18B9 DUP2 DUP5 PUSH2 0x16C5 JUMP JUMPDEST SWAP1 POP SWAP3 SWAP2 POP POP JUMP JUMPDEST PUSH1 0x0 PUSH1 0x20 DUP3 ADD SWAP1 POP PUSH2 0x18D6 PUSH1 0x0 DUP4 ADD DUP5 PUSH2 0x1749 JUMP JUMPDEST SWAP3 SWAP2 POP POP JUMP JUMPDEST PUSH1 0x0 PUSH1 0x20 DUP3 ADD SWAP1 POP DUP2 DUP2 SUB PUSH1 0x0 DUP4 ADD MSTORE PUSH2 0x18F6 DUP2 DUP5 PUSH2 0x1791 JUMP JUMPDEST SWAP1 POP SWAP3 SWAP2 POP POP JUMP JUMPDEST PUSH1 0x0 PUSH1 0x40 DUP3 ADD SWAP1 POP DUP2 DUP2 SUB PUSH1 0x0 DUP4 ADD MSTORE PUSH2 0x1918 DUP2 DUP6 PUSH2 0x1791 JUMP JUMPDEST SWAP1 POP PUSH2 0x1927 PUSH1 0x20 DUP4 ADD DUP5 PUSH2 0x1853 JUMP JUMPDEST SWAP4 SWAP3 POP POP POP JUMP JUMPDEST PUSH1 0x0 PUSH1 0x20 DUP3 ADD SWAP1 POP DUP2 DUP2 SUB PUSH1 0x0 DUP4 ADD MSTORE PUSH2 0x1948 DUP2 DUP5 PUSH2 0x1807 JUMP JUMPDEST SWAP1 POP SWAP3 SWAP2 POP POP JUMP JUMPDEST PUSH1 0x0 PUSH1 0x20 DUP3 ADD SWAP1 POP PUSH2 0x1965 PUSH1 0x0 DUP4 ADD DUP5 PUSH2 0x1853 JUMP JUMPDEST SWAP3 SWAP2 POP POP JUMP JUMPDEST PUSH1 0x0 PUSH1 0x80 DUP3 ADD SWAP1 POP PUSH2 0x1980 PUSH1 0x0 DUP4 ADD DUP8 PUSH2 0x1853 JUMP JUMPDEST PUSH2 0x198D PUSH1 0x20 DUP4 ADD DUP7 PUSH2 0x173A JUMP JUMPDEST PUSH2 0x199A PUSH1 0x40 DUP4 ADD DUP6 PUSH2 0x1641 JUMP JUMPDEST PUSH2 0x19A7 PUSH1 0x60 DUP4 ADD DUP5 PUSH2 0x1853 JUMP JUMPDEST SWAP6 SWAP5 POP POP POP POP POP JUMP JUMPDEST PUSH1 0x0 PUSH1 0x40 MLOAD SWAP1 POP DUP2 DUP2 ADD DUP2 DUP2 LT PUSH8 0xFFFFFFFFFFFFFFFF DUP3 GT OR ISZERO PUSH2 0x19D7 JUMPI PUSH2 0x19D6 PUSH2 0x1CB9 JUMP JUMPDEST JUMPDEST DUP1 PUSH1 0x40 MSTORE POP SWAP2 SWAP1 POP JUMP JUMPDEST PUSH1 0x0 PUSH8 0xFFFFFFFFFFFFFFFF DUP3 GT ISZERO PUSH2 0x19FC JUMPI PUSH2 0x19FB PUSH2 0x1CB9 JUMP JUMPDEST JUMPDEST PUSH1 0x20 DUP3 MUL SWAP1 POP PUSH1 0x20 DUP2 ADD SWAP1 POP SWAP2 SWAP1 POP JUMP JUMPDEST PUSH1 0x0 PUSH8 0xFFFFFFFFFFFFFFFF DUP3 GT ISZERO PUSH2 0x1A28 JUMPI PUSH2 0x1A27 PUSH2 0x1CB9 JUMP JUMPDEST JUMPDEST PUSH1 0x1F NOT PUSH1 0x1F DUP4 ADD AND SWAP1 POP PUSH1 0x20 DUP2 ADD SWAP1 POP SWAP2 SWAP1 POP JUMP JUMPDEST PUSH1 0x0 DUP2 SWAP1 POP PUSH1 0x20 DUP3 ADD SWAP1 POP SWAP2 SWAP1 POP JUMP JUMPDEST PUSH1 0x0 DUP2 SWAP1 POP PUSH1 0x20 DUP3 ADD SWAP1 POP SWAP2 SWAP1 POP JUMP JUMPDEST PUSH1 0x0 DUP2 MLOAD SWAP1 POP SWAP2 SWAP1 POP JUMP JUMPDEST PUSH1 0x0 DUP2 MLOAD SWAP1 POP SWAP2 SWAP1 POP JUMP JUMPDEST PUSH1 0x0 DUP2 MLOAD SWAP1 POP SWAP2 SWAP1 POP JUMP JUMPDEST PUSH1 0x0 PUSH1 0x20 DUP3 ADD SWAP1 POP SWAP2 SWAP1 POP JUMP JUMPDEST PUSH1 0x0 PUSH1 0x20 DUP3 ADD SWAP1 POP SWAP2 SWAP1 POP JUMP JUMPDEST PUSH1 0x0 DUP3 DUP3 MSTORE PUSH1 0x20 DUP3 ADD SWAP1 POP SWAP3 SWAP2 POP POP JUMP JUMPDEST PUSH1 0x0 DUP3 DUP3 MSTORE PUSH1 0x20 DUP3 ADD SWAP1 POP SWAP3 SWAP2 POP POP JUMP JUMPDEST PUSH1 0x0 DUP3 DUP3 MSTORE PUSH1 0x20 DUP3 ADD SWAP1 POP SWAP3 SWAP2 POP POP JUMP JUMPDEST PUSH1 0x0 DUP3 DUP3 MSTORE PUSH1 0x20 DUP3 ADD SWAP1 POP SWAP3 SWAP2 POP POP JUMP JUMPDEST PUSH1 0x0 PUSH2 0x1AE7 DUP3 PUSH2 0x1B70 JUMP JUMPDEST SWAP2 POP PUSH2 0x1AF2 DUP4 PUSH2 0x1B70 JUMP JUMPDEST SWAP3 POP DUP3 PUSH32 0xFFFFFFFFFFFFFFFFFFFFFFFFFFFFFFFFFFFFFFFFFFFFFFFFFFFFFFFFFFFFFFFF SUB DUP3 GT ISZERO PUSH2 0x1B27 JUMPI PUSH2 0x1B26 PUSH2 0x1C5B JUMP JUMPDEST JUMPDEST DUP3 DUP3 ADD SWAP1 POP SWAP3 SWAP2 POP POP JUMP JUMPDEST PUSH1 0x0 PUSH2 0x1B3D DUP3 PUSH2 0x1B50 JUMP JUMPDEST SWAP1 POP SWAP2 SWAP1 POP JUMP JUMPDEST PUSH1 0x0 DUP2 ISZERO ISZERO SWAP1 POP SWAP2 SWAP1 POP JUMP JUMPDEST PUSH1 0x0 PUSH20 0xFFFFFFFFFFFFFFFFFFFFFFFFFFFFFFFFFFFFFFFF DUP3 AND SWAP1 POP SWAP2 SWAP1 POP JUMP JUMPDEST PUSH1 0x0 DUP2 SWAP1 POP SWAP2 SWAP1 POP JUMP JUMPDEST PUSH1 0x0 PUSH2 0x1B85 DUP3 PUSH2 0x1B8C JUMP JUMPDEST SWAP1 POP SWAP2 SWAP1 POP JUMP JUMPDEST PUSH1 0x0 PUSH2 0x1B97 DUP3 PUSH2 0x1B50 JUMP JUMPDEST SWAP1 POP SWAP2 SWAP1 POP JUMP JUMPDEST DUP3 DUP2 DUP4 CALLDATACOPY PUSH1 0x0 DUP4 DUP4 ADD MSTORE POP POP POP JUMP JUMPDEST PUSH1 0x0 JUMPDEST DUP4 DUP2 LT ISZERO PUSH2 0x1BCB JUMPI DUP1 DUP3 ADD MLOAD DUP2 DUP5 ADD MSTORE PUSH1 0x20 DUP2 ADD SWAP1 POP PUSH2 0x1BB0 JUMP JUMPDEST DUP4 DUP2 GT ISZERO PUSH2 0x1BDA JUMPI PUSH1 0x0 DUP5 DUP5 ADD MSTORE JUMPDEST POP POP POP POP JUMP JUMPDEST PUSH1 0x0 PUSH1 0x2 DUP3 DIV SWAP1 POP PUSH1 0x1 DUP3 AND DUP1 PUSH2 0x1BF8 JUMPI PUSH1 0x7F DUP3 AND SWAP2 POP JUMPDEST PUSH1 0x20 DUP3 LT DUP2 EQ ISZERO PUSH2 0x1C0C JUMPI PUSH2 0x1C0B PUSH2 0x1C8A JUMP JUMPDEST JUMPDEST POP SWAP2 SWAP1 POP JUMP JUMPDEST PUSH1 0x0 PUSH2 0x1C1D DUP3 PUSH2 0x1B70 JUMP JUMPDEST SWAP2 POP PUSH32 0xFFFFFFFFFFFFFFFFFFFFFFFFFFFFFFFFFFFFFFFFFFFFFFFFFFFFFFFFFFFFFFFF DUP3 EQ ISZERO PUSH2 0x1C50 JUMPI PUSH2 0x1C4F PUSH2 0x1C5B JUMP JUMPDEST JUMPDEST PUSH1 0x1 DUP3 ADD SWAP1 POP SWAP2 SWAP1 POP JUMP JUMPDEST PUSH32 0x4E487B7100000000000000000000000000000000000000000000000000000000 PUSH1 0x0 MSTORE PUSH1 0x11 PUSH1 0x4 MSTORE PUSH1 0x24 PUSH1 0x0 REVERT JUMPDEST PUSH32 0x4E487B7100000000000000000000000000000000000000000000000000000000 PUSH1 0x0 MSTORE PUSH1 0x22 PUSH1 0x4 MSTORE PUSH1 0x24 PUSH1 0x0 REVERT JUMPDEST PUSH32 0x4E487B7100000000000000000000000000000000000000000000000000000000 PUSH1 0x0 MSTORE PUSH1 0x41 PUSH1 0x4 MSTORE PUSH1 0x24 PUSH1 0x0 REVERT JUMPDEST PUSH1 0x0 PUSH1 0x1F NOT PUSH1 0x1F DUP4 ADD AND SWAP1 POP SWAP2 SWAP1 POP JUMP JUMPDEST PUSH2 0x1D02 DUP2 PUSH2 0x1B32 JUMP JUMPDEST DUP2 EQ PUSH2 0x1D0D JUMPI PUSH1 0x0 DUP1 REVERT JUMPDEST POP JUMP JUMPDEST PUSH2 0x1D19 DUP2 PUSH2 0x1B70 JUMP JUMPDEST DUP2 EQ PUSH2 0x1D24 JUMPI PUSH1 0x0 DUP1 REVERT JUMPDEST POP JUMP INVALID PUSH1 0x80 PUSH1 0x40 MSTORE CALLVALUE DUP1 ISZERO PUSH2 0x10 JUMPI PUSH1 0x0 DUP1 REVERT JUMPDEST POP PUSH2 0x147A DUP1 PUSH2 0x20 PUSH1 0x0 CODECOPY PUSH1 0x0 RETURN INVALID PUSH1 0x80 PUSH1 0x40 MSTORE CALLVALUE DUP1 ISZERO PUSH2 0x10 JUMPI PUSH1 0x0 DUP1 REVERT JUMPDEST POP PUSH1 0x4 CALLDATASIZE LT PUSH2 0x100 JUMPI PUSH1 0x0 CALLDATALOAD PUSH1 0xE0 SHR DUP1 PUSH4 0x7A16FCB0 GT PUSH2 0x97 JUMPI DUP1 PUSH4 0xA3EC138D GT PUSH2 0x66 JUMPI DUP1 PUSH4 0xA3EC138D EQ PUSH2 0x264 JUMPI DUP1 PUSH4 0xB1356488 EQ PUSH2 0x297 JUMPI DUP1 PUSH4 0xE2BA53F0 EQ PUSH2 0x2B5 JUMPI DUP1 PUSH4 0xE9D6C6DA EQ PUSH2 0x2D3 JUMPI PUSH2 0x100 JUMP JUMPDEST DUP1 PUSH4 0x7A16FCB0 EQ PUSH2 0x204 JUMPI DUP1 PUSH4 0x836BC692 EQ PUSH2 0x222 JUMPI DUP1 PUSH4 0x86278E77 EQ PUSH2 0x23E JUMPI DUP1 PUSH4 0x9E7B8D61 EQ PUSH2 0x248 JUMPI PUSH2 0x100 JUMP JUMPDEST DUP1 PUSH4 0x609FF1BD GT PUSH2 0xD3 JUMPI DUP1 PUSH4 0x609FF1BD EQ PUSH2 0x18E JUMPI DUP1 PUSH4 0x62564C48 EQ PUSH2 0x1AC JUMPI DUP1 PUSH4 0x69BA1A75 EQ PUSH2 0x1CA JUMPI DUP1 PUSH4 0x78F305C6 EQ PUSH2 0x1E6 JUMPI PUSH2 0x100 JUMP JUMPDEST DUP1 PUSH4 0x121B93F EQ PUSH2 0x105 JUMPI DUP1 PUSH4 0x13CF08B EQ PUSH2 0x121 JUMPI DUP1 PUSH4 0xA82DCB1 EQ PUSH2 0x152 JUMPI DUP1 PUSH4 0x4E69D560 EQ PUSH2 0x170 JUMPI JUMPDEST PUSH1 0x0 DUP1 REVERT JUMPDEST PUSH2 0x11F PUSH1 0x4 DUP1 CALLDATASIZE SUB DUP2 ADD SWAP1 PUSH2 0x11A SWAP2 SWAP1 PUSH2 0xE3F JUMP JUMPDEST PUSH2 0x303 JUMP JUMPDEST STOP JUMPDEST PUSH2 0x13B PUSH1 0x4 DUP1 CALLDATASIZE SUB DUP2 ADD SWAP1 PUSH2 0x136 SWAP2 SWAP1 PUSH2 0xE3F JUMP JUMPDEST PUSH2 0x3F2 JUMP JUMPDEST PUSH1 0x40 MLOAD PUSH2 0x149 SWAP3 SWAP2 SWAP1 PUSH2 0x1078 JUMP JUMPDEST PUSH1 0x40 MLOAD DUP1 SWAP2 SUB SWAP1 RETURN JUMPDEST PUSH2 0x15A PUSH2 0x4AE JUMP JUMPDEST PUSH1 0x40 MLOAD PUSH2 0x167 SWAP2 SWAP1 PUSH2 0x10CA JUMP JUMPDEST PUSH1 0x40 MLOAD DUP1 SWAP2 SUB SWAP1 RETURN JUMPDEST PUSH2 0x178 PUSH2 0x4B8 JUMP JUMPDEST PUSH1 0x40 MLOAD PUSH2 0x185 SWAP2 SWAP1 PUSH2 0x10CA JUMP JUMPDEST PUSH1 0x40 MLOAD DUP1 SWAP2 SUB SWAP1 RETURN JUMPDEST PUSH2 0x196 PUSH2 0x4C2 JUMP JUMPDEST PUSH1 0x40 MLOAD PUSH2 0x1A3 SWAP2 SWAP1 PUSH2 0x10CA JUMP JUMPDEST PUSH1 0x40 MLOAD DUP1 SWAP2 SUB SWAP1 RETURN JUMPDEST PUSH2 0x1B4 PUSH2 0x596 JUMP JUMPDEST PUSH1 0x40 MLOAD PUSH2 0x1C1 SWAP2 SWAP1 PUSH2 0x1034 JUMP JUMPDEST PUSH1 0x40 MLOAD DUP1 SWAP2 SUB SWAP1 RETURN JUMPDEST PUSH2 0x1E4 PUSH1 0x4 DUP1 CALLDATASIZE SUB DUP2 ADD SWAP1 PUSH2 0x1DF SWAP2 SWAP1 PUSH2 0xE3F JUMP JUMPDEST PUSH2 0x691 JUMP JUMPDEST STOP JUMPDEST PUSH2 0x1EE PUSH2 0x69B JUMP JUMPDEST PUSH1 0x40 MLOAD PUSH2 0x1FB SWAP2 SWAP1 PUSH2 0x10CA JUMP JUMPDEST PUSH1 0x40 MLOAD DUP1 SWAP2 SUB SWAP1 RETURN JUMPDEST PUSH2 0x20C PUSH2 0x6A5 JUMP JUMPDEST PUSH1 0x40 MLOAD PUSH2 0x219 SWAP2 SWAP1 PUSH2 0x1019 JUMP JUMPDEST PUSH1 0x40 MLOAD DUP1 SWAP2 SUB SWAP1 RETURN JUMPDEST PUSH2 0x23C PUSH1 0x4 DUP1 CALLDATASIZE SUB DUP2 ADD SWAP1 PUSH2 0x237 SWAP2 SWAP1 PUSH2 0xDFE JUMP JUMPDEST PUSH2 0x6CE JUMP JUMPDEST STOP JUMPDEST PUSH2 0x246 PUSH2 0x85C JUMP JUMPDEST STOP JUMPDEST PUSH2 0x262 PUSH1 0x4 DUP1 CALLDATASIZE SUB DUP2 ADD SWAP1 PUSH2 0x25D SWAP2 SWAP1 PUSH2 0xDD5 JUMP JUMPDEST PUSH2 0x865 JUMP JUMPDEST STOP JUMPDEST PUSH2 0x27E PUSH1 0x4 DUP1 CALLDATASIZE SUB DUP2 ADD SWAP1 PUSH2 0x279 SWAP2 SWAP1 PUSH2 0xDD5 JUMP JUMPDEST PUSH2 0x9AF JUMP JUMPDEST PUSH1 0x40 MLOAD PUSH2 0x28E SWAP5 SWAP4 SWAP3 SWAP2 SWAP1 PUSH2 0x10E5 JUMP JUMPDEST PUSH1 0x40 MLOAD DUP1 SWAP2 SUB SWAP1 RETURN JUMPDEST PUSH2 0x29F PUSH2 0xA0C JUMP JUMPDEST PUSH1 0x40 MLOAD PUSH2 0x2AC SWAP2 SWAP1 PUSH2 0x10CA JUMP JUMPDEST PUSH1 0x40 MLOAD DUP1 SWAP2 SUB SWAP1 RETURN JUMPDEST PUSH2 0x2BD PUSH2 0xA16 JUMP JUMPDEST PUSH1 0x40 MLOAD PUSH2 0x2CA SWAP2 SWAP1 PUSH2 0x1056 JUMP JUMPDEST PUSH1 0x40 MLOAD DUP1 SWAP2 SUB SWAP1 RETURN JUMPDEST PUSH2 0x2ED PUSH1 0x4 DUP1 CALLDATASIZE SUB DUP2 ADD SWAP1 PUSH2 0x2E8 SWAP2 SWAP1 PUSH2 0xE3F JUMP JUMPDEST PUSH2 0xAF8 JUMP JUMPDEST PUSH1 0x40 MLOAD PUSH2 0x2FA SWAP2 SWAP1 PUSH2 0x10A8 JUMP JUMPDEST PUSH1 0x40 MLOAD DUP1 SWAP2 SUB SWAP1 RETURN JUMPDEST PUSH1 0x0 PUSH1 0x5 PUSH1 0x0 CALLER PUSH20 0xFFFFFFFFFFFFFFFFFFFFFFFFFFFFFFFFFFFFFFFF AND PUSH20 0xFFFFFFFFFFFFFFFFFFFFFFFFFFFFFFFFFFFFFFFF AND DUP2 MSTORE PUSH1 0x20 ADD SWAP1 DUP2 MSTORE PUSH1 0x20 ADD PUSH1 0x0 KECCAK256 SWAP1 POP DUP1 PUSH1 0x1 ADD PUSH1 0x0 SWAP1 SLOAD SWAP1 PUSH2 0x100 EXP SWAP1 DIV PUSH1 0xFF AND ISZERO PUSH2 0x362 JUMPI PUSH1 0x0 DUP1 REVERT JUMPDEST PUSH1 0x1 DUP2 PUSH1 0x1 ADD PUSH1 0x0 PUSH2 0x100 EXP DUP2 SLOAD DUP2 PUSH1 0xFF MUL NOT AND SWAP1 DUP4 ISZERO ISZERO MUL OR SWAP1 SSTORE POP DUP2 DUP2 PUSH1 0x2 ADD DUP2 SWAP1 SSTORE POP DUP1 PUSH1 0x0 ADD SLOAD PUSH1 0x6 DUP4 DUP2 SLOAD DUP2 LT PUSH2 0x3C7 JUMPI PUSH32 0x4E487B7100000000000000000000000000000000000000000000000000000000 PUSH1 0x0 MSTORE PUSH1 0x32 PUSH1 0x4 MSTORE PUSH1 0x24 PUSH1 0x0 REVERT JUMPDEST SWAP1 PUSH1 0x0 MSTORE PUSH1 0x20 PUSH1 0x0 KECCAK256 SWAP1 PUSH1 0x2 MUL ADD PUSH1 0x1 ADD PUSH1 0x0 DUP3 DUP3 SLOAD PUSH2 0x3E7 SWAP2 SWAP1 PUSH2 0x121D JUMP JUMPDEST SWAP3 POP POP DUP2 SWAP1 SSTORE POP POP POP JUMP JUMPDEST PUSH1 0x6 DUP2 DUP2 SLOAD DUP2 LT PUSH2 0x402 JUMPI PUSH1 0x0 DUP1 REVERT JUMPDEST SWAP1 PUSH1 0x0 MSTORE PUSH1 0x20 PUSH1 0x0 KECCAK256 SWAP1 PUSH1 0x2 MUL ADD PUSH1 0x0 SWAP2 POP SWAP1 POP DUP1 PUSH1 0x0 ADD DUP1 SLOAD PUSH2 0x425 SWAP1 PUSH2 0x12FD JUMP JUMPDEST DUP1 PUSH1 0x1F ADD PUSH1 0x20 DUP1 SWAP2 DIV MUL PUSH1 0x20 ADD PUSH1 0x40 MLOAD SWAP1 DUP2 ADD PUSH1 0x40 MSTORE DUP1 SWAP3 SWAP2 SWAP1 DUP2 DUP2 MSTORE PUSH1 0x20 ADD DUP3 DUP1 SLOAD PUSH2 0x451 SWAP1 PUSH2 0x12FD JUMP JUMPDEST DUP1 ISZERO PUSH2 0x49E JUMPI DUP1 PUSH1 0x1F LT PUSH2 0x473 JUMPI PUSH2 0x100 DUP1 DUP4 SLOAD DIV MUL DUP4 MSTORE SWAP2 PUSH1 0x20 ADD SWAP2 PUSH2 0x49E JUMP JUMPDEST DUP3 ADD SWAP2 SWAP1 PUSH1 0x0 MSTORE PUSH1 0x20 PUSH1 0x0 KECCAK256 SWAP1 JUMPDEST DUP2 SLOAD DUP2 MSTORE SWAP1 PUSH1 0x1 ADD SWAP1 PUSH1 0x20 ADD DUP1 DUP4 GT PUSH2 0x481 JUMPI DUP3 SWAP1 SUB PUSH1 0x1F AND DUP3 ADD SWAP2 JUMPDEST POP POP POP POP POP SWAP1 DUP1 PUSH1 0x1 ADD SLOAD SWAP1 POP DUP3 JUMP JUMPDEST PUSH1 0x0 PUSH1 0x4 SLOAD SWAP1 POP SWAP1 JUMP JUMPDEST PUSH1 0x0 PUSH1 0x1 SLOAD SWAP1 POP SWAP1 JUMP JUMPDEST PUSH1 0x0 DUP1 PUSH1 0x0 SWAP1 POP PUSH1 0x0 JUMPDEST PUSH1 0x6 DUP1 SLOAD SWAP1 POP DUP2 LT ISZERO PUSH2 0x591 JUMPI DUP2 PUSH1 0x6 DUP3 DUP2 SLOAD DUP2 LT PUSH2 0x514 JUMPI PUSH32 0x4E487B7100000000000000000000000000000000000000000000000000000000 PUSH1 0x0 MSTORE PUSH1 0x32 PUSH1 0x4 MSTORE PUSH1 0x24 PUSH1 0x0 REVERT JUMPDEST SWAP1 PUSH1 0x0 MSTORE PUSH1 0x20 PUSH1 0x0 KECCAK256 SWAP1 PUSH1 0x2 MUL ADD PUSH1 0x1 ADD SLOAD GT ISZERO PUSH2 0x57E JUMPI PUSH1 0x6 DUP2 DUP2 SLOAD DUP2 LT PUSH2 0x566 JUMPI PUSH32 0x4E487B7100000000000000000000000000000000000000000000000000000000 PUSH1 0x0 MSTORE PUSH1 0x32 PUSH1 0x4 MSTORE PUSH1 0x24 PUSH1 0x0 REVERT JUMPDEST SWAP1 PUSH1 0x0 MSTORE PUSH1 0x20 PUSH1 0x0 KECCAK256 SWAP1 PUSH1 0x2 MUL ADD PUSH1 0x1 ADD SLOAD SWAP2 POP DUP1 SWAP3 POP JUMPDEST DUP1 DUP1 PUSH2 0x589 SWAP1 PUSH2 0x132F JUMP JUMPDEST SWAP2 POP POP PUSH2 0x4CC JUMP JUMPDEST POP POP SWAP1 JUMP JUMPDEST PUSH1 0x60 PUSH1 0x6 DUP1 SLOAD DUP1 PUSH1 0x20 MUL PUSH1 0x20 ADD PUSH1 0x40 MLOAD SWAP1 DUP2 ADD PUSH1 0x40 MSTORE DUP1 SWAP3 SWAP2 SWAP1 DUP2 DUP2 MSTORE PUSH1 0x20 ADD PUSH1 0x0 SWAP1 JUMPDEST DUP3 DUP3 LT ISZERO PUSH2 0x688 JUMPI DUP4 DUP3 SWAP1 PUSH1 0x0 MSTORE PUSH1 0x20 PUSH1 0x0 KECCAK256 SWAP1 PUSH1 0x2 MUL ADD PUSH1 0x40 MLOAD DUP1 PUSH1 0x40 ADD PUSH1 0x40 MSTORE SWAP1 DUP2 PUSH1 0x0 DUP3 ADD DUP1 SLOAD PUSH2 0x5ED SWAP1 PUSH2 0x12FD JUMP JUMPDEST DUP1 PUSH1 0x1F ADD PUSH1 0x20 DUP1 SWAP2 DIV MUL PUSH1 0x20 ADD PUSH1 0x40 MLOAD SWAP1 DUP2 ADD PUSH1 0x40 MSTORE DUP1 SWAP3 SWAP2 SWAP1 DUP2 DUP2 MSTORE PUSH1 0x20 ADD DUP3 DUP1 SLOAD PUSH2 0x619 SWAP1 PUSH2 0x12FD JUMP JUMPDEST DUP1 ISZERO PUSH2 0x666 JUMPI DUP1 PUSH1 0x1F LT PUSH2 0x63B JUMPI PUSH2 0x100 DUP1 DUP4 SLOAD DIV MUL DUP4 MSTORE SWAP2 PUSH1 0x20 ADD SWAP2 PUSH2 0x666 JUMP JUMPDEST DUP3 ADD SWAP2 SWAP1 PUSH1 0x0 MSTORE PUSH1 0x20 PUSH1 0x0 KECCAK256 SWAP1 JUMPDEST DUP2 SLOAD DUP2 MSTORE SWAP1 PUSH1 0x1 ADD SWAP1 PUSH1 0x20 ADD DUP1 DUP4 GT PUSH2 0x649 JUMPI DUP3 SWAP1 SUB PUSH1 0x1F AND DUP3 ADD SWAP2 JUMPDEST POP POP POP POP POP DUP2 MSTORE PUSH1 0x20 ADD PUSH1 0x1 DUP3 ADD SLOAD DUP2 MSTORE POP POP DUP2 MSTORE PUSH1 0x20 ADD SWAP1 PUSH1 0x1 ADD SWAP1 PUSH2 0x5BA JUMP JUMPDEST POP POP POP POP SWAP1 POP SWAP1 JUMP JUMPDEST DUP1 PUSH1 0x1 DUP2 SWAP1 SSTORE POP POP JUMP JUMPDEST PUSH1 0x0 PUSH1 0x2 SLOAD SWAP1 POP SWAP1 JUMP JUMPDEST PUSH1 0x0 DUP1 PUSH1 0x0 SWAP1 SLOAD SWAP1 PUSH2 0x100 EXP SWAP1 DIV PUSH20 0xFFFFFFFFFFFFFFFFFFFFFFFFFFFFFFFFFFFFFFFF AND SWAP1 POP SWAP1 JUMP JUMPDEST CALLER PUSH1 0x0 DUP1 PUSH2 0x100 EXP DUP2 SLOAD DUP2 PUSH20 0xFFFFFFFFFFFFFFFFFFFFFFFFFFFFFFFFFFFFFFFF MUL NOT AND SWAP1 DUP4 PUSH20 0xFFFFFFFFFFFFFFFFFFFFFFFFFFFFFFFFFFFFFFFF AND MUL OR SWAP1 SSTORE POP PUSH1 0x1 PUSH1 0x5 PUSH1 0x0 DUP1 PUSH1 0x0 SWAP1 SLOAD SWAP1 PUSH2 0x100 EXP SWAP1 DIV PUSH20 0xFFFFFFFFFFFFFFFFFFFFFFFFFFFFFFFFFFFFFFFF AND PUSH20 0xFFFFFFFFFFFFFFFFFFFFFFFFFFFFFFFFFFFFFFFF AND PUSH20 0xFFFFFFFFFFFFFFFFFFFFFFFFFFFFFFFFFFFFFFFF AND DUP2 MSTORE PUSH1 0x20 ADD SWAP1 DUP2 MSTORE PUSH1 0x20 ADD PUSH1 0x0 KECCAK256 PUSH1 0x0 ADD DUP2 SWAP1 SSTORE POP PUSH1 0x0 PUSH1 0x1 DUP2 SWAP1 SSTORE POP PUSH2 0x787 PUSH2 0xBF6 JUMP JUMPDEST DUP1 MLOAD PUSH1 0x4 DUP2 SWAP1 SSTORE POP PUSH1 0x0 JUMPDEST DUP2 MLOAD DUP2 LT ISZERO PUSH2 0x858 JUMPI PUSH1 0x6 PUSH1 0x40 MLOAD DUP1 PUSH1 0x40 ADD PUSH1 0x40 MSTORE DUP1 DUP5 DUP5 DUP2 MLOAD DUP2 LT PUSH2 0x7E1 JUMPI PUSH32 0x4E487B7100000000000000000000000000000000000000000000000000000000 PUSH1 0x0 MSTORE PUSH1 0x32 PUSH1 0x4 MSTORE PUSH1 0x24 PUSH1 0x0 REVERT JUMPDEST PUSH1 0x20 MUL PUSH1 0x20 ADD ADD MLOAD DUP2 MSTORE PUSH1 0x20 ADD PUSH1 0x0 DUP2 MSTORE POP SWAP1 DUP1 PUSH1 0x1 DUP2 SLOAD ADD DUP1 DUP3 SSTORE DUP1 SWAP2 POP POP PUSH1 0x1 SWAP1 SUB SWAP1 PUSH1 0x0 MSTORE PUSH1 0x20 PUSH1 0x0 KECCAK256 SWAP1 PUSH1 0x2 MUL ADD PUSH1 0x0 SWAP1 SWAP2 SWAP1 SWAP2 SWAP1 SWAP2 POP PUSH1 0x0 DUP3 ADD MLOAD DUP2 PUSH1 0x0 ADD SWAP1 DUP1 MLOAD SWAP1 PUSH1 0x20 ADD SWAP1 PUSH2 0x838 SWAP3 SWAP2 SWAP1 PUSH2 0xBFF JUMP JUMPDEST POP PUSH1 0x20 DUP3 ADD MLOAD DUP2 PUSH1 0x1 ADD SSTORE POP POP DUP1 DUP1 PUSH2 0x850 SWAP1 PUSH2 0x132F JUMP JUMPDEST SWAP2 POP POP PUSH2 0x792 JUMP JUMPDEST POP POP JUMP JUMPDEST TIMESTAMP PUSH1 0x3 DUP2 SWAP1 SSTORE POP JUMP JUMPDEST PUSH1 0x0 DUP1 SLOAD SWAP1 PUSH2 0x100 EXP SWAP1 DIV PUSH20 0xFFFFFFFFFFFFFFFFFFFFFFFFFFFFFFFFFFFFFFFF AND PUSH20 0xFFFFFFFFFFFFFFFFFFFFFFFFFFFFFFFFFFFFFFFF AND CALLER PUSH20 0xFFFFFFFFFFFFFFFFFFFFFFFFFFFFFFFFFFFFFFFF AND EQ DUP1 ISZERO PUSH2 0x90D JUMPI POP PUSH1 0x5 PUSH1 0x0 DUP3 PUSH20 0xFFFFFFFFFFFFFFFFFFFFFFFFFFFFFFFFFFFFFFFF AND PUSH20 0xFFFFFFFFFFFFFFFFFFFFFFFFFFFFFFFFFFFFFFFF AND DUP2 MSTORE PUSH1 0x20 ADD SWAP1 DUP2 MSTORE PUSH1 0x20 ADD PUSH1 0x0 KECCAK256 PUSH1 0x1 ADD PUSH1 0x0 SWAP1 SLOAD SWAP1 PUSH2 0x100 EXP SWAP1 DIV PUSH1 0xFF AND ISZERO JUMPDEST DUP1 ISZERO PUSH2 0x95B JUMPI POP PUSH1 0x0 PUSH1 0x5 PUSH1 0x0 DUP4 PUSH20 0xFFFFFFFFFFFFFFFFFFFFFFFFFFFFFFFFFFFFFFFF AND PUSH20 0xFFFFFFFFFFFFFFFFFFFFFFFFFFFFFFFFFFFFFFFF AND DUP2 MSTORE PUSH1 0x20 ADD SWAP1 DUP2 MSTORE PUSH1 0x20 ADD PUSH1 0x0 KECCAK256 PUSH1 0x0 ADD SLOAD EQ JUMPDEST PUSH2 0x964 JUMPI PUSH1 0x0 DUP1 REVERT JUMPDEST PUSH1 0x1 PUSH1 0x5 PUSH1 0x0 DUP4 PUSH20 0xFFFFFFFFFFFFFFFFFFFFFFFFFFFFFFFFFFFFFFFF AND PUSH20 0xFFFFFFFFFFFFFFFFFFFFFFFFFFFFFFFFFFFFFFFF AND DUP2 MSTORE PUSH1 0x20 ADD SWAP1 DUP2 MSTORE PUSH1 0x20 ADD PUSH1 0x0 KECCAK256 PUSH1 0x0 ADD DUP2 SWAP1 SSTORE POP POP JUMP JUMPDEST PUSH1 0x5 PUSH1 0x20 MSTORE DUP1 PUSH1 0x0 MSTORE PUSH1 0x40 PUSH1 0x0 KECCAK256 PUSH1 0x0 SWAP2 POP SWAP1 POP DUP1 PUSH1 0x0 ADD SLOAD SWAP1 DUP1 PUSH1 0x1 ADD PUSH1 0x0 SWAP1 SLOAD SWAP1 PUSH2 0x100 EXP SWAP1 DIV PUSH1 0xFF AND SWAP1 DUP1 PUSH1 0x1 ADD PUSH1 0x1 SWAP1 SLOAD SWAP1 PUSH2 0x100 EXP SWAP1 DIV PUSH20 0xFFFFFFFFFFFFFFFFFFFFFFFFFFFFFFFFFFFFFFFF AND SWAP1 DUP1 PUSH1 0x2 ADD SLOAD SWAP1 POP DUP5 JUMP JUMPDEST PUSH1 0x0 PUSH1 0x3 SLOAD SWAP1 POP SWAP1 JUMP JUMPDEST PUSH1 0x60 PUSH1 0x6 PUSH2 0xA22 PUSH2 0x4C2 JUMP JUMPDEST DUP2 SLOAD DUP2 LT PUSH2 0xA59 JUMPI PUSH32 0x4E487B7100000000000000000000000000000000000000000000000000000000 PUSH1 0x0 MSTORE PUSH1 0x32 PUSH1 0x4 MSTORE PUSH1 0x24 PUSH1 0x0 REVERT JUMPDEST SWAP1 PUSH1 0x0 MSTORE PUSH1 0x20 PUSH1 0x0 KECCAK256 SWAP1 PUSH1 0x2 MUL ADD PUSH1 0x0 ADD DUP1 SLOAD PUSH2 0xA75 SWAP1 PUSH2 0x12FD JUMP JUMPDEST DUP1 PUSH1 0x1F ADD PUSH1 0x20 DUP1 SWAP2 DIV MUL PUSH1 0x20 ADD PUSH1 0x40 MLOAD SWAP1 DUP2 ADD PUSH1 0x40 MSTORE DUP1 SWAP3 SWAP2 SWAP1 DUP2 DUP2 MSTORE PUSH1 0x20 ADD DUP3 DUP1 SLOAD PUSH2 0xAA1 SWAP1 PUSH2 0x12FD JUMP JUMPDEST DUP1 ISZERO PUSH2 0xAEE JUMPI DUP1 PUSH1 0x1F LT PUSH2 0xAC3 JUMPI PUSH2 0x100 DUP1 DUP4 SLOAD DIV MUL DUP4 MSTORE SWAP2 PUSH1 0x20 ADD SWAP2 PUSH2 0xAEE JUMP JUMPDEST DUP3 ADD SWAP2 SWAP1 PUSH1 0x0 MSTORE PUSH1 0x20 PUSH1 0x0 KECCAK256 SWAP1 JUMPDEST DUP2 SLOAD DUP2 MSTORE SWAP1 PUSH1 0x1 ADD SWAP1 PUSH1 0x20 ADD DUP1 DUP4 GT PUSH2 0xAD1 JUMPI DUP3 SWAP1 SUB PUSH1 0x1F AND DUP3 ADD SWAP2 JUMPDEST POP POP POP POP POP SWAP1 POP SWAP1 JUMP JUMPDEST PUSH2 0xB00 PUSH2 0xC85 JUMP JUMPDEST PUSH1 0x6 DUP3 DUP2 SLOAD DUP2 LT PUSH2 0xB3A JUMPI PUSH32 0x4E487B7100000000000000000000000000000000000000000000000000000000 PUSH1 0x0 MSTORE PUSH1 0x32 PUSH1 0x4 MSTORE PUSH1 0x24 PUSH1 0x0 REVERT JUMPDEST SWAP1 PUSH1 0x0 MSTORE PUSH1 0x20 PUSH1 0x0 KECCAK256 SWAP1 PUSH1 0x2 MUL ADD PUSH1 0x40 MLOAD DUP1 PUSH1 0x40 ADD PUSH1 0x40 MSTORE SWAP1 DUP2 PUSH1 0x0 DUP3 ADD DUP1 SLOAD PUSH2 0xB63 SWAP1 PUSH2 0x12FD JUMP JUMPDEST DUP1 PUSH1 0x1F ADD PUSH1 0x20 DUP1 SWAP2 DIV MUL PUSH1 0x20 ADD PUSH1 0x40 MLOAD SWAP1 DUP2 ADD PUSH1 0x40 MSTORE DUP1 SWAP3 SWAP2 SWAP1 DUP2 DUP2 MSTORE PUSH1 0x20 ADD DUP3 DUP1 SLOAD PUSH2 0xB8F SWAP1 PUSH2 0x12FD JUMP JUMPDEST DUP1 ISZERO PUSH2 0xBDC JUMPI DUP1 PUSH1 0x1F LT PUSH2 0xBB1 JUMPI PUSH2 0x100 DUP1 DUP4 SLOAD DIV MUL DUP4 MSTORE SWAP2 PUSH1 0x20 ADD SWAP2 PUSH2 0xBDC JUMP JUMPDEST DUP3 ADD SWAP2 SWAP1 PUSH1 0x0 MSTORE PUSH1 0x20 PUSH1 0x0 KECCAK256 SWAP1 JUMPDEST DUP2 SLOAD DUP2 MSTORE SWAP1 PUSH1 0x1 ADD SWAP1 PUSH1 0x20 ADD DUP1 DUP4 GT PUSH2 0xBBF JUMPI DUP3 SWAP1 SUB PUSH1 0x1F AND DUP3 ADD SWAP2 JUMPDEST POP POP POP POP POP DUP2 MSTORE PUSH1 0x20 ADD PUSH1 0x1 DUP3 ADD SLOAD DUP2 MSTORE POP POP SWAP1 POP SWAP2 SWAP1 POP JUMP JUMPDEST TIMESTAMP PUSH1 0x2 DUP2 SWAP1 SSTORE POP JUMP JUMPDEST DUP3 DUP1 SLOAD PUSH2 0xC0B SWAP1 PUSH2 0x12FD JUMP JUMPDEST SWAP1 PUSH1 0x0 MSTORE PUSH1 0x20 PUSH1 0x0 KECCAK256 SWAP1 PUSH1 0x1F ADD PUSH1 0x20 SWAP1 DIV DUP2 ADD SWAP3 DUP3 PUSH2 0xC2D JUMPI PUSH1 0x0 DUP6 SSTORE PUSH2 0xC74 JUMP JUMPDEST DUP3 PUSH1 0x1F LT PUSH2 0xC46 JUMPI DUP1 MLOAD PUSH1 0xFF NOT AND DUP4 DUP1 ADD OR DUP6 SSTORE PUSH2 0xC74 JUMP JUMPDEST DUP3 DUP1 ADD PUSH1 0x1 ADD DUP6 SSTORE DUP3 ISZERO PUSH2 0xC74 JUMPI SWAP2 DUP3 ADD JUMPDEST DUP3 DUP2 GT ISZERO PUSH2 0xC73 JUMPI DUP3 MLOAD DUP3 SSTORE SWAP2 PUSH1 0x20 ADD SWAP2 SWAP1 PUSH1 0x1 ADD SWAP1 PUSH2 0xC58 JUMP JUMPDEST JUMPDEST POP SWAP1 POP PUSH2 0xC81 SWAP2 SWAP1 PUSH2 0xC9F JUMP JUMPDEST POP SWAP1 JUMP JUMPDEST PUSH1 0x40 MLOAD DUP1 PUSH1 0x40 ADD PUSH1 0x40 MSTORE DUP1 PUSH1 0x60 DUP2 MSTORE PUSH1 0x20 ADD PUSH1 0x0 DUP2 MSTORE POP SWAP1 JUMP JUMPDEST JUMPDEST DUP1 DUP3 GT ISZERO PUSH2 0xCB8 JUMPI PUSH1 0x0 DUP2 PUSH1 0x0 SWAP1 SSTORE POP PUSH1 0x1 ADD PUSH2 0xCA0 JUMP JUMPDEST POP SWAP1 JUMP JUMPDEST PUSH1 0x0 PUSH2 0xCCF PUSH2 0xCCA DUP5 PUSH2 0x115B JUMP JUMPDEST PUSH2 0x112A JUMP JUMPDEST SWAP1 POP DUP1 DUP4 DUP3 MSTORE PUSH1 0x20 DUP3 ADD SWAP1 POP DUP3 PUSH1 0x0 JUMPDEST DUP6 DUP2 LT ISZERO PUSH2 0xD0F JUMPI DUP2 CALLDATALOAD DUP6 ADD PUSH2 0xCF5 DUP9 DUP3 PUSH2 0xD96 JUMP JUMPDEST DUP5 MSTORE PUSH1 0x20 DUP5 ADD SWAP4 POP PUSH1 0x20 DUP4 ADD SWAP3 POP POP PUSH1 0x1 DUP2 ADD SWAP1 POP PUSH2 0xCDF JUMP JUMPDEST POP POP POP SWAP4 SWAP3 POP POP POP JUMP JUMPDEST PUSH1 0x0 PUSH2 0xD2C PUSH2 0xD27 DUP5 PUSH2 0x1187 JUMP JUMPDEST PUSH2 0x112A JUMP JUMPDEST SWAP1 POP DUP3 DUP2 MSTORE PUSH1 0x20 DUP2 ADD DUP5 DUP5 DUP5 ADD GT ISZERO PUSH2 0xD44 JUMPI PUSH1 0x0 DUP1 REVERT JUMPDEST PUSH2 0xD4F DUP5 DUP3 DUP6 PUSH2 0x12BB JUMP JUMPDEST POP SWAP4 SWAP3 POP POP POP JUMP JUMPDEST PUSH1 0x0 DUP2 CALLDATALOAD SWAP1 POP PUSH2 0xD66 DUP2 PUSH2 0x1416 JUMP JUMPDEST SWAP3 SWAP2 POP POP JUMP JUMPDEST PUSH1 0x0 DUP3 PUSH1 0x1F DUP4 ADD SLT PUSH2 0xD7D JUMPI PUSH1 0x0 DUP1 REVERT JUMPDEST DUP2 CALLDATALOAD PUSH2 0xD8D DUP5 DUP3 PUSH1 0x20 DUP7 ADD PUSH2 0xCBC JUMP JUMPDEST SWAP2 POP POP SWAP3 SWAP2 POP POP JUMP JUMPDEST PUSH1 0x0 DUP3 PUSH1 0x1F DUP4 ADD SLT PUSH2 0xDA7 JUMPI PUSH1 0x0 DUP1 REVERT JUMPDEST DUP2 CALLDATALOAD PUSH2 0xDB7 DUP5 DUP3 PUSH1 0x20 DUP7 ADD PUSH2 0xD19 JUMP JUMPDEST SWAP2 POP POP SWAP3 SWAP2 POP POP JUMP JUMPDEST PUSH1 0x0 DUP2 CALLDATALOAD SWAP1 POP PUSH2 0xDCF DUP2 PUSH2 0x142D JUMP JUMPDEST SWAP3 SWAP2 POP POP JUMP JUMPDEST PUSH1 0x0 PUSH1 0x20 DUP3 DUP5 SUB SLT ISZERO PUSH2 0xDE7 JUMPI PUSH1 0x0 DUP1 REVERT JUMPDEST PUSH1 0x0 PUSH2 0xDF5 DUP5 DUP3 DUP6 ADD PUSH2 0xD57 JUMP JUMPDEST SWAP2 POP POP SWAP3 SWAP2 POP POP JUMP JUMPDEST PUSH1 0x0 PUSH1 0x20 DUP3 DUP5 SUB SLT ISZERO PUSH2 0xE10 JUMPI PUSH1 0x0 DUP1 REVERT JUMPDEST PUSH1 0x0 DUP3 ADD CALLDATALOAD PUSH8 0xFFFFFFFFFFFFFFFF DUP2 GT ISZERO PUSH2 0xE2A JUMPI PUSH1 0x0 DUP1 REVERT JUMPDEST PUSH2 0xE36 DUP5 DUP3 DUP6 ADD PUSH2 0xD6C JUMP JUMPDEST SWAP2 POP POP SWAP3 SWAP2 POP POP JUMP JUMPDEST PUSH1 0x0 PUSH1 0x20 DUP3 DUP5 SUB SLT ISZERO PUSH2 0xE51 JUMPI PUSH1 0x0 DUP1 REVERT JUMPDEST PUSH1 0x0 PUSH2 0xE5F DUP5 DUP3 DUP6 ADD PUSH2 0xDC0 JUMP JUMPDEST SWAP2 POP POP SWAP3 SWAP2 POP POP JUMP JUMPDEST PUSH1 0x0 PUSH2 0xE74 DUP4 DUP4 PUSH2 0xF81 JUMP JUMPDEST SWAP1 POP SWAP3 SWAP2 POP POP JUMP JUMPDEST PUSH2 0xE85 DUP2 PUSH2 0x1273 JUMP JUMPDEST DUP3 MSTORE POP POP JUMP JUMPDEST PUSH1 0x0 PUSH2 0xE96 DUP3 PUSH2 0x11C7 JUMP JUMPDEST PUSH2 0xEA0 DUP2 DUP6 PUSH2 0x11EA JUMP JUMPDEST SWAP4 POP DUP4 PUSH1 0x20 DUP3 MUL DUP6 ADD PUSH2 0xEB2 DUP6 PUSH2 0x11B7 JUMP JUMPDEST DUP1 PUSH1 0x0 JUMPDEST DUP6 DUP2 LT ISZERO PUSH2 0xEEE JUMPI DUP5 DUP5 SUB DUP10 MSTORE DUP2 MLOAD PUSH2 0xECF DUP6 DUP3 PUSH2 0xE68 JUMP JUMPDEST SWAP5 POP PUSH2 0xEDA DUP4 PUSH2 0x11DD JUMP JUMPDEST SWAP3 POP PUSH1 0x20 DUP11 ADD SWAP10 POP POP PUSH1 0x1 DUP2 ADD SWAP1 POP PUSH2 0xEB6 JUMP JUMPDEST POP DUP3 SWAP8 POP DUP8 SWAP6 POP POP POP POP POP POP SWAP3 SWAP2 POP POP JUMP JUMPDEST PUSH2 0xF09 DUP2 PUSH2 0x1285 JUMP JUMPDEST DUP3 MSTORE POP POP JUMP JUMPDEST PUSH1 0x0 PUSH2 0xF1A DUP3 PUSH2 0x11D2 JUMP JUMPDEST PUSH2 0xF24 DUP2 DUP6 PUSH2 0x11FB JUMP JUMPDEST SWAP4 POP PUSH2 0xF34 DUP2 DUP6 PUSH1 0x20 DUP7 ADD PUSH2 0x12CA JUMP JUMPDEST PUSH2 0xF3D DUP2 PUSH2 0x1405 JUMP JUMPDEST DUP5 ADD SWAP2 POP POP SWAP3 SWAP2 POP POP JUMP JUMPDEST PUSH1 0x0 PUSH2 0xF53 DUP3 PUSH2 0x11D2 JUMP JUMPDEST PUSH2 0xF5D DUP2 DUP6 PUSH2 0x120C JUMP JUMPDEST SWAP4 POP PUSH2 0xF6D DUP2 DUP6 PUSH1 0x20 DUP7 ADD PUSH2 0x12CA JUMP JUMPDEST PUSH2 0xF76 DUP2 PUSH2 0x1405 JUMP JUMPDEST DUP5 ADD SWAP2 POP POP SWAP3 SWAP2 POP POP JUMP JUMPDEST PUSH1 0x0 PUSH1 0x40 DUP4 ADD PUSH1 0x0 DUP4 ADD MLOAD DUP5 DUP3 SUB PUSH1 0x0 DUP7 ADD MSTORE PUSH2 0xF9E DUP3 DUP3 PUSH2 0xF0F JUMP JUMPDEST SWAP2 POP POP PUSH1 0x20 DUP4 ADD MLOAD PUSH2 0xFB3 PUSH1 0x20 DUP7 ADD DUP3 PUSH2 0xFFB JUMP JUMPDEST POP DUP1 SWAP2 POP POP SWAP3 SWAP2 POP POP JUMP JUMPDEST PUSH1 0x0 PUSH1 0x40 DUP4 ADD PUSH1 0x0 DUP4 ADD MLOAD DUP5 DUP3 SUB PUSH1 0x0 DUP7 ADD MSTORE PUSH2 0xFDB DUP3 DUP3 PUSH2 0xF0F JUMP JUMPDEST SWAP2 POP POP PUSH1 0x20 DUP4 ADD MLOAD PUSH2 0xFF0 PUSH1 0x20 DUP7 ADD DUP3 PUSH2 0xFFB JUMP JUMPDEST POP DUP1 SWAP2 POP POP SWAP3 SWAP2 POP POP JUMP JUMPDEST PUSH2 0x1004 DUP2 PUSH2 0x12B1 JUMP JUMPDEST DUP3 MSTORE POP POP JUMP JUMPDEST PUSH2 0x1013 DUP2 PUSH2 0x12B1 JUMP JUMPDEST DUP3 MSTORE POP POP JUMP JUMPDEST PUSH1 0x0 PUSH1 0x20 DUP3 ADD SWAP1 POP PUSH2 0x102E PUSH1 0x0 DUP4 ADD DUP5 PUSH2 0xE7C JUMP JUMPDEST SWAP3 SWAP2 POP POP JUMP JUMPDEST PUSH1 0x0 PUSH1 0x20 DUP3 ADD SWAP1 POP DUP2 DUP2 SUB PUSH1 0x0 DUP4 ADD MSTORE PUSH2 0x104E DUP2 DUP5 PUSH2 0xE8B JUMP JUMPDEST SWAP1 POP SWAP3 SWAP2 POP POP JUMP JUMPDEST PUSH1 0x0 PUSH1 0x20 DUP3 ADD SWAP1 POP DUP2 DUP2 SUB PUSH1 0x0 DUP4 ADD MSTORE PUSH2 0x1070 DUP2 DUP5 PUSH2 0xF48 JUMP JUMPDEST SWAP1 POP SWAP3 SWAP2 POP POP JUMP JUMPDEST PUSH1 0x0 PUSH1 0x40 DUP3 ADD SWAP1 POP DUP2 DUP2 SUB PUSH1 0x0 DUP4 ADD MSTORE PUSH2 0x1092 DUP2 DUP6 PUSH2 0xF48 JUMP JUMPDEST SWAP1 POP PUSH2 0x10A1 PUSH1 0x20 DUP4 ADD DUP5 PUSH2 0x100A JUMP JUMPDEST SWAP4 SWAP3 POP POP POP JUMP JUMPDEST PUSH1 0x0 PUSH1 0x20 DUP3 ADD SWAP1 POP DUP2 DUP2 SUB PUSH1 0x0 DUP4 ADD MSTORE PUSH2 0x10C2 DUP2 DUP5 PUSH2 0xFBE JUMP JUMPDEST SWAP1 POP SWAP3 SWAP2 POP POP JUMP JUMPDEST PUSH1 0x0 PUSH1 0x20 DUP3 ADD SWAP1 POP PUSH2 0x10DF PUSH1 0x0 DUP4 ADD DUP5 PUSH2 0x100A JUMP JUMPDEST SWAP3 SWAP2 POP POP JUMP JUMPDEST PUSH1 0x0 PUSH1 0x80 DUP3 ADD SWAP1 POP PUSH2 0x10FA PUSH1 0x0 DUP4 ADD DUP8 PUSH2 0x100A JUMP JUMPDEST PUSH2 0x1107 PUSH1 0x20 DUP4 ADD DUP7 PUSH2 0xF00 JUMP JUMPDEST PUSH2 0x1114 PUSH1 0x40 DUP4 ADD DUP6 PUSH2 0xE7C JUMP JUMPDEST PUSH2 0x1121 PUSH1 0x60 DUP4 ADD DUP5 PUSH2 0x100A JUMP JUMPDEST SWAP6 SWAP5 POP POP POP POP POP JUMP JUMPDEST PUSH1 0x0 PUSH1 0x40 MLOAD SWAP1 POP DUP2 DUP2 ADD DUP2 DUP2 LT PUSH8 0xFFFFFFFFFFFFFFFF DUP3 GT OR ISZERO PUSH2 0x1151 JUMPI PUSH2 0x1150 PUSH2 0x13D6 JUMP JUMPDEST JUMPDEST DUP1 PUSH1 0x40 MSTORE POP SWAP2 SWAP1 POP JUMP JUMPDEST PUSH1 0x0 PUSH8 0xFFFFFFFFFFFFFFFF DUP3 GT ISZERO PUSH2 0x1176 JUMPI PUSH2 0x1175 PUSH2 0x13D6 JUMP JUMPDEST JUMPDEST PUSH1 0x20 DUP3 MUL SWAP1 POP PUSH1 0x20 DUP2 ADD SWAP1 POP SWAP2 SWAP1 POP JUMP JUMPDEST PUSH1 0x0 PUSH8 0xFFFFFFFFFFFFFFFF DUP3 GT ISZERO PUSH2 0x11A2 JUMPI PUSH2 0x11A1 PUSH2 0x13D6 JUMP JUMPDEST JUMPDEST PUSH1 0x1F NOT PUSH1 0x1F DUP4 ADD AND SWAP1 POP PUSH1 0x20 DUP2 ADD SWAP1 POP SWAP2 SWAP1 POP JUMP JUMPDEST PUSH1 0x0 DUP2 SWAP1 POP PUSH1 0x20 DUP3 ADD SWAP1 POP SWAP2 SWAP1 POP JUMP JUMPDEST PUSH1 0x0 DUP2 MLOAD SWAP1 POP SWAP2 SWAP1 POP JUMP JUMPDEST PUSH1 0x0 DUP2 MLOAD SWAP1 POP SWAP2 SWAP1 POP JUMP JUMPDEST PUSH1 0x0 PUSH1 0x20 DUP3 ADD SWAP1 POP SWAP2 SWAP1 POP JUMP JUMPDEST PUSH1 0x0 DUP3 DUP3 MSTORE PUSH1 0x20 DUP3 ADD SWAP1 POP SWAP3 SWAP2 POP POP JUMP JUMPDEST PUSH1 0x0 DUP3 DUP3 MSTORE PUSH1 0x20 DUP3 ADD SWAP1 POP SWAP3 SWAP2 POP POP JUMP JUMPDEST PUSH1 0x0 DUP3 DUP3 MSTORE PUSH1 0x20 DUP3 ADD SWAP1 POP SWAP3 SWAP2 POP POP JUMP JUMPDEST PUSH1 0x0 PUSH2 0x1228 DUP3 PUSH2 0x12B1 JUMP JUMPDEST SWAP2 POP PUSH2 0x1233 DUP4 PUSH2 0x12B1 JUMP JUMPDEST SWAP3 POP DUP3 PUSH32 0xFFFFFFFFFFFFFFFFFFFFFFFFFFFFFFFFFFFFFFFFFFFFFFFFFFFFFFFFFFFFFFFF SUB DUP3 GT ISZERO PUSH2 0x1268 JUMPI PUSH2 0x1267 PUSH2 0x1378 JUMP JUMPDEST JUMPDEST DUP3 DUP3 ADD SWAP1 POP SWAP3 SWAP2 POP POP JUMP JUMPDEST PUSH1 0x0 PUSH2 0x127E DUP3 PUSH2 0x1291 JUMP JUMPDEST SWAP1 POP SWAP2 SWAP1 POP JUMP JUMPDEST PUSH1 0x0 DUP2 ISZERO ISZERO SWAP1 POP SWAP2 SWAP1 POP JUMP JUMPDEST PUSH1 0x0 PUSH20 0xFFFFFFFFFFFFFFFFFFFFFFFFFFFFFFFFFFFFFFFF DUP3 AND SWAP1 POP SWAP2 SWAP1 POP JUMP JUMPDEST PUSH1 0x0 DUP2 SWAP1 POP SWAP2 SWAP1 POP JUMP JUMPDEST DUP3 DUP2 DUP4 CALLDATACOPY PUSH1 0x0 DUP4 DUP4 ADD MSTORE POP POP POP JUMP JUMPDEST PUSH1 0x0 JUMPDEST DUP4 DUP2 LT ISZERO PUSH2 0x12E8 JUMPI DUP1 DUP3 ADD MLOAD DUP2 DUP5 ADD MSTORE PUSH1 0x20 DUP2 ADD SWAP1 POP PUSH2 0x12CD JUMP JUMPDEST DUP4 DUP2 GT ISZERO PUSH2 0x12F7 JUMPI PUSH1 0x0 DUP5 DUP5 ADD MSTORE JUMPDEST POP POP POP POP JUMP JUMPDEST PUSH1 0x0 PUSH1 0x2 DUP3 DIV SWAP1 POP PUSH1 0x1 DUP3 AND DUP1 PUSH2 0x1315 JUMPI PUSH1 0x7F DUP3 AND SWAP2 POP JUMPDEST PUSH1 0x20 DUP3 LT DUP2 EQ ISZERO PUSH2 0x1329 JUMPI PUSH2 0x1328 PUSH2 0x13A7 JUMP JUMPDEST JUMPDEST POP SWAP2 SWAP1 POP JUMP JUMPDEST PUSH1 0x0 PUSH2 0x133A DUP3 PUSH2 0x12B1 JUMP JUMPDEST SWAP2 POP PUSH32 0xFFFFFFFFFFFFFFFFFFFFFFFFFFFFFFFFFFFFFFFFFFFFFFFFFFFFFFFFFFFFFFFF DUP3 EQ ISZERO PUSH2 0x136D JUMPI PUSH2 0x136C PUSH2 0x1378 JUMP JUMPDEST JUMPDEST PUSH1 0x1 DUP3 ADD SWAP1 POP SWAP2 SWAP1 POP JUMP JUMPDEST PUSH32 0x4E487B7100000000000000000000000000000000000000000000000000000000 PUSH1 0x0 MSTORE PUSH1 0x11 PUSH1 0x4 MSTORE PUSH1 0x24 PUSH1 0x0 REVERT JUMPDEST PUSH32 0x4E487B7100000000000000000000000000000000000000000000000000000000 PUSH1 0x0 MSTORE PUSH1 0x22 PUSH1 0x4 MSTORE PUSH1 0x24 PUSH1 0x0 REVERT JUMPDEST PUSH32 0x4E487B7100000000000000000000000000000000000000000000000000000000 PUSH1 0x0 MSTORE PUSH1 0x41 PUSH1 0x4 MSTORE PUSH1 0x24 PUSH1 0x0 REVERT JUMPDEST PUSH1 0x0 PUSH1 0x1F NOT PUSH1 0x1F DUP4 ADD AND SWAP1 POP SWAP2 SWAP1 POP JUMP JUMPDEST PUSH2 0x141F DUP2 PUSH2 0x1273 JUMP JUMPDEST DUP2 EQ PUSH2 0x142A JUMPI PUSH1 0x0 DUP1 REVERT JUMPDEST POP JUMP JUMPDEST PUSH2 0x1436 DUP2 PUSH2 0x12B1 JUMP JUMPDEST DUP2 EQ PUSH2 0x1441 JUMPI PUSH1 0x0 DUP1 REVERT JUMPDEST POP JUMP INVALID LOG2 PUSH5 0x6970667358 0x22 SLT KECCAK256 NOT 0xDF PC SLT POP SWAP6 EXP 0xD8 MULMOD CREATE2 PUSH21 0x33849780CE70B84029B1A804454ACCDDC566CDAD05 PUSH5 0x736F6C6343 STOP ADDMOD STOP STOP CALLER LOG2 PUSH5 0x6970667358 0x22 SLT KECCAK256 0xBA SGT DUP3 0xB0 BYTE 0xE1 0xC2 0xAC TIMESTAMP 0x24 SELFBALANCE 0xAE SHL EXTCODEHASH DUP16 0xAD GASLIMIT SWAP15 0xD0 DUP7 RETURNDATACOPY 0xE1 SUB PUSH30 0x2DEB5C73B78188F864736F6C634300080000330000000000000000000000 "
				},
				"gasEstimates": {
					"creation": {
						"codeDepositCost": "2558200",
						"executionCost": "2763",
						"totalCost": "2560963"
					},
					"external": {
						"ballotArray(uint256)": "2488",
						"bfCreateBallot(uint256,string[])": "infinite",
						"bfGetCreatorBallot(uint256)": "infinite",
						"bfGiveRightToVote(uint256,address)": "infinite",
						"bfVote(uint256,uint256)": "infinite",
						"bfWinningProposal(uint256)": "infinite",
						"createBallot(string[])": "infinite",
						"createBallotContract()": "infinite",
						"getCreatorBallot()": "1267",
						"getEndDate()": "1181",
						"getProposalStructure(uint256)": "infinite",
						"getProposals()": "infinite",
						"getStartDate()": "1160",
						"getStatus()": "1249",
						"getnumOfProposals()": "1205",
						"giveRightToVote(address)": "23452",
						"proposals(uint256)": "infinite",
						"setEndDate()": "20246",
						"setStatus(uint256)": "20531",
						"vote(uint256)": "infinite",
						"voters(address)": "infinite",
						"winnerName()": "infinite",
						"winningProposal()": "infinite"
					}
				},
				"methodIdentifiers": {
					"ballotArray(uint256)": "643cb096",
					"bfCreateBallot(uint256,string[])": "735d8b87",
					"bfGetCreatorBallot(uint256)": "2a8cdc4c",
					"bfGiveRightToVote(uint256,address)": "c285c0d3",
					"bfVote(uint256,uint256)": "627c2367",
					"bfWinningProposal(uint256)": "d7558d4b",
					"createBallot(string[])": "836bc692",
					"createBallotContract()": "962fafd0",
					"getCreatorBallot()": "7a16fcb0",
					"getEndDate()": "b1356488",
					"getProposalStructure(uint256)": "e9d6c6da",
					"getProposals()": "62564c48",
					"getStartDate()": "78f305c6",
					"getStatus()": "4e69d560",
					"getnumOfProposals()": "0a82dcb1",
					"giveRightToVote(address)": "9e7b8d61",
					"proposals(uint256)": "013cf08b",
					"setEndDate()": "86278e77",
					"setStatus(uint256)": "69ba1a75",
					"vote(uint256)": "0121b93f",
					"voters(address)": "a3ec138d",
					"winnerName()": "e2ba53f0",
					"winningProposal()": "609ff1bd"
				}
			},
			"storageLayout": {
				"storage": [
					{
						"astId": 3,
						"contract": "contracts/visov_durku.sol:BallotFactory",
						"label": "creator",
						"offset": 0,
						"slot": "0",
						"type": "t_address"
					},
					{
						"astId": 5,
						"contract": "contracts/visov_durku.sol:BallotFactory",
						"label": "status",
						"offset": 0,
						"slot": "1",
						"type": "t_uint256"
					},
					{
						"astId": 7,
						"contract": "contracts/visov_durku.sol:BallotFactory",
						"label": "startDate",
						"offset": 0,
						"slot": "2",
						"type": "t_uint256"
					},
					{
						"astId": 9,
						"contract": "contracts/visov_durku.sol:BallotFactory",
						"label": "endDate",
						"offset": 0,
						"slot": "3",
						"type": "t_uint256"
					},
					{
						"astId": 11,
						"contract": "contracts/visov_durku.sol:BallotFactory",
						"label": "numOfProposals",
						"offset": 0,
						"slot": "4",
						"type": "t_uint256"
					},
					{
						"astId": 30,
						"contract": "contracts/visov_durku.sol:BallotFactory",
						"label": "voters",
						"offset": 0,
						"slot": "5",
						"type": "t_mapping(t_address,t_struct(Voter)20_storage)"
					},
					{
						"astId": 34,
						"contract": "contracts/visov_durku.sol:BallotFactory",
						"label": "proposals",
						"offset": 0,
						"slot": "6",
						"type": "t_array(t_struct(Proposal)25_storage)dyn_storage"
					},
					{
						"astId": 321,
						"contract": "contracts/visov_durku.sol:BallotFactory",
						"label": "ballotArray",
						"offset": 0,
						"slot": "7",
						"type": "t_array(t_contract(Ballot)312)dyn_storage"
					}
				],
				"types": {
					"t_address": {
						"encoding": "inplace",
						"label": "address",
						"numberOfBytes": "20"
					},
					"t_array(t_contract(Ballot)312)dyn_storage": {
						"base": "t_contract(Ballot)312",
						"encoding": "dynamic_array",
						"label": "contract Ballot[]",
						"numberOfBytes": "32"
					},
					"t_array(t_struct(Proposal)25_storage)dyn_storage": {
						"base": "t_struct(Proposal)25_storage",
						"encoding": "dynamic_array",
						"label": "struct Ballot.Proposal[]",
						"numberOfBytes": "32"
					},
					"t_bool": {
						"encoding": "inplace",
						"label": "bool",
						"numberOfBytes": "1"
					},
					"t_contract(Ballot)312": {
						"encoding": "inplace",
						"label": "contract Ballot",
						"numberOfBytes": "20"
					},
					"t_mapping(t_address,t_struct(Voter)20_storage)": {
						"encoding": "mapping",
						"key": "t_address",
						"label": "mapping(address => struct Ballot.Voter)",
						"numberOfBytes": "32",
						"value": "t_struct(Voter)20_storage"
					},
					"t_string_storage": {
						"encoding": "bytes",
						"label": "string",
						"numberOfBytes": "32"
					},
					"t_struct(Proposal)25_storage": {
						"encoding": "inplace",
						"label": "struct Ballot.Proposal",
						"members": [
							{
								"astId": 22,
								"contract": "contracts/visov_durku.sol:BallotFactory",
								"label": "name",
								"offset": 0,
								"slot": "0",
								"type": "t_string_storage"
							},
							{
								"astId": 24,
								"contract": "contracts/visov_durku.sol:BallotFactory",
								"label": "voteCount",
								"offset": 0,
								"slot": "1",
								"type": "t_uint256"
							}
						],
						"numberOfBytes": "64"
					},
					"t_struct(Voter)20_storage": {
						"encoding": "inplace",
						"label": "struct Ballot.Voter",
						"members": [
							{
								"astId": 13,
								"contract": "contracts/visov_durku.sol:BallotFactory",
								"label": "weight",
								"offset": 0,
								"slot": "0",
								"type": "t_uint256"
							},
							{
								"astId": 15,
								"contract": "contracts/visov_durku.sol:BallotFactory",
								"label": "voted",
								"offset": 0,
								"slot": "1",
								"type": "t_bool"
							},
							{
								"astId": 17,
								"contract": "contracts/visov_durku.sol:BallotFactory",
								"label": "delegate",
								"offset": 1,
								"slot": "1",
								"type": "t_address"
							},
							{
								"astId": 19,
								"contract": "contracts/visov_durku.sol:BallotFactory",
								"label": "vote",
								"offset": 0,
								"slot": "2",
								"type": "t_uint256"
							}
						],
						"numberOfBytes": "96"
					},
					"t_uint256": {
						"encoding": "inplace",
						"label": "uint256",
						"numberOfBytes": "32"
					}
				}
			},
			"userdoc": {
				"kind": "user",
				"methods": {},
				"version": 1
			}
		}
	}
}