{
	"contracts/shit.sol": {
		"StructArrayInitWrong": {
			"abi": [
				{
					"inputs": [
						{
							"internalType": "string",
							"name": "_option",
							"type": "string"
						}
					],
					"name": "createRoom",
					"outputs": [],
					"stateMutability": "nonpayable",
					"type": "function"
				},
				{
					"inputs": [
						{
							"internalType": "uint256",
							"name": "_optionid",
							"type": "uint256"
						}
					],
					"name": "getOptionStructure",
					"outputs": [
						{
							"components": [
								{
									"internalType": "uint256",
									"name": "id",
									"type": "uint256"
								},
								{
									"internalType": "string[]",
									"name": "name",
									"type": "string[]"
								}
							],
							"internalType": "struct StructArrayInitWrong.Option",
							"name": "",
							"type": "tuple"
						}
					],
					"stateMutability": "view",
					"type": "function"
				},
				{
					"inputs": [],
					"name": "optionCount",
					"outputs": [
						{
							"internalType": "uint256",
							"name": "",
							"type": "uint256"
						}
					],
					"stateMutability": "view",
					"type": "function"
				}
			],
			"devdoc": {
				"kind": "dev",
				"methods": {},
				"version": 1
			},
			"evm": {
				"assembly": "    /* \"contracts/shit.sol\":95:1140  contract StructArrayInitWrong {\r... */\n  mstore(0x40, 0x80)\n  callvalue\n  dup1\n  iszero\n  tag_1\n  jumpi\n  0x00\n  dup1\n  revert\ntag_1:\n  pop\n  dataSize(sub_0)\n  dup1\n  dataOffset(sub_0)\n  0x00\n  codecopy\n  0x00\n  return\nstop\n\nsub_0: assembly {\n        /* \"contracts/shit.sol\":95:1140  contract StructArrayInitWrong {\r... */\n      mstore(0x40, 0x80)\n      callvalue\n      dup1\n      iszero\n      tag_1\n      jumpi\n      0x00\n      dup1\n      revert\n    tag_1:\n      pop\n      jumpi(tag_2, lt(calldatasize, 0x04))\n      shr(0xe0, calldataload(0x00))\n      dup1\n      0x7306d2dd\n      eq\n      tag_3\n      jumpi\n      dup1\n      0xa92f01e7\n      eq\n      tag_4\n      jumpi\n      dup1\n      0xe32fe90b\n      eq\n      tag_5\n      jumpi\n    tag_2:\n      0x00\n      dup1\n      revert\n        /* \"contracts/shit.sol\":399:770  function createRoom(string memory _option) public {\r... */\n    tag_3:\n      tag_6\n      0x04\n      dup1\n      calldatasize\n      sub\n      dup2\n      add\n      swap1\n      tag_7\n      swap2\n      swap1\n      tag_8\n      jump\t// in\n    tag_7:\n      tag_9\n      jump\t// in\n    tag_6:\n      stop\n        /* \"contracts/shit.sol\":778:900  function getOptionStructure(uint _optionid) public view returns(Option memory){\r... */\n    tag_4:\n      tag_10\n      0x04\n      dup1\n      calldatasize\n      sub\n      dup2\n      add\n      swap1\n      tag_11\n      swap2\n      swap1\n      tag_12\n      jump\t// in\n    tag_11:\n      tag_13\n      jump\t// in\n    tag_10:\n      mload(0x40)\n      tag_14\n      swap2\n      swap1\n      tag_15\n      jump\t// in\n    tag_14:\n      mload(0x40)\n      dup1\n      swap2\n      sub\n      swap1\n      return\n        /* \"contracts/shit.sol\":367:390  uint public optionCount */\n    tag_5:\n      tag_16\n      tag_17\n      jump\t// in\n    tag_16:\n      mload(0x40)\n      tag_18\n      swap2\n      swap1\n      tag_19\n      jump\t// in\n    tag_18:\n      mload(0x40)\n      dup1\n      swap2\n      sub\n      swap1\n      return\n        /* \"contracts/shit.sol\":399:770  function createRoom(string memory _option) public {\r... */\n    tag_9:\n        /* \"contracts/shit.sol\":560:563  nms */\n      0x01\n        /* \"contracts/shit.sol\":569:576  _option */\n      dup2\n        /* \"contracts/shit.sol\":560:577  nms.push(_option) */\n      swap1\n      dup1\n      0x01\n      dup2\n      sload\n      add\n      dup1\n      dup3\n      sstore\n      dup1\n      swap2\n      pop\n      pop\n      0x01\n      swap1\n      sub\n      swap1\n      0x00\n      mstore\n      keccak256(0x00, 0x20)\n      add\n      0x00\n      swap1\n      swap2\n      swap1\n      swap2\n      swap1\n      swap2\n      pop\n      swap1\n      dup1\n      mload\n      swap1\n      0x20\n      add\n      swap1\n      tag_22\n      swap3\n      swap2\n      swap1\n      tag_23\n      jump\t// in\n    tag_22:\n      pop\n        /* \"contracts/shit.sol\":656:676  Option memory option */\n      0x00\n        /* \"contracts/shit.sol\":679:703  Option(optionCount, nms) */\n      mload(0x40)\n      dup1\n      0x40\n      add\n      0x40\n      mstore\n      dup1\n        /* \"contracts/shit.sol\":686:697  optionCount */\n      sload(0x03)\n        /* \"contracts/shit.sol\":679:703  Option(optionCount, nms) */\n      dup2\n      mstore\n      0x20\n      add\n        /* \"contracts/shit.sol\":699:702  nms */\n      0x01\n        /* \"contracts/shit.sol\":679:703  Option(optionCount, nms) */\n      dup1\n      sload\n      dup1\n      0x20\n      mul\n      0x20\n      add\n      mload(0x40)\n      swap1\n      dup2\n      add\n      0x40\n      mstore\n      dup1\n      swap3\n      swap2\n      swap1\n      dup2\n      dup2\n      mstore\n      0x20\n      add\n      0x00\n      swap1\n    tag_24:\n      dup3\n      dup3\n      lt\n      iszero\n      tag_25\n      jumpi\n      dup4\n      dup3\n      swap1\n      0x00\n      mstore\n      keccak256(0x00, 0x20)\n      add\n      dup1\n      sload\n      tag_27\n      swap1\n      tag_28\n      jump\t// in\n    tag_27:\n      dup1\n      0x1f\n      add\n      0x20\n      dup1\n      swap2\n      div\n      mul\n      0x20\n      add\n      mload(0x40)\n      swap1\n      dup2\n      add\n      0x40\n      mstore\n      dup1\n      swap3\n      swap2\n      swap1\n      dup2\n      dup2\n      mstore\n      0x20\n      add\n      dup3\n      dup1\n      sload\n      tag_29\n      swap1\n      tag_28\n      jump\t// in\n    tag_29:\n      dup1\n      iszero\n      tag_30\n      jumpi\n      dup1\n      0x1f\n      lt\n      tag_31\n      jumpi\n      0x0100\n      dup1\n      dup4\n      sload\n      div\n      mul\n      dup4\n      mstore\n      swap2\n      0x20\n      add\n      swap2\n      jump(tag_30)\n    tag_31:\n      dup3\n      add\n      swap2\n      swap1\n      0x00\n      mstore\n      keccak256(0x00, 0x20)\n      swap1\n    tag_32:\n      dup2\n      sload\n      dup2\n      mstore\n      swap1\n      0x01\n      add\n      swap1\n      0x20\n      add\n      dup1\n      dup4\n      gt\n      tag_32\n      jumpi\n      dup3\n      swap1\n      sub\n      0x1f\n      and\n      dup3\n      add\n      swap2\n    tag_30:\n      pop\n      pop\n      pop\n      pop\n      pop\n      dup2\n      mstore\n      0x20\n      add\n      swap1\n      0x01\n      add\n      swap1\n      jump(tag_24)\n    tag_25:\n      pop\n      pop\n      pop\n      pop\n      dup2\n      mstore\n      pop\n        /* \"contracts/shit.sol\":656:703  Option memory option = Option(optionCount, nms) */\n      swap1\n      pop\n        /* \"contracts/shit.sol\":718:725  options */\n      0x00\n        /* \"contracts/shit.sol\":731:737  option */\n      dup2\n        /* \"contracts/shit.sol\":718:738  options.push(option) */\n      swap1\n      dup1\n      0x01\n      dup2\n      sload\n      add\n      dup1\n      dup3\n      sstore\n      dup1\n      swap2\n      pop\n      pop\n      0x01\n      swap1\n      sub\n      swap1\n      0x00\n      mstore\n      keccak256(0x00, 0x20)\n      swap1\n      0x02\n      mul\n      add\n      0x00\n      swap1\n      swap2\n      swap1\n      swap2\n      swap1\n      swap2\n      pop\n      0x00\n      dup3\n      add\n      mload\n      dup2\n      0x00\n      add\n      sstore\n      0x20\n      dup3\n      add\n      mload\n      dup2\n      0x01\n      add\n      swap1\n      dup1\n      mload\n      swap1\n      0x20\n      add\n      swap1\n      tag_34\n      swap3\n      swap2\n      swap1\n      tag_35\n      jump\t// in\n    tag_34:\n      pop\n      pop\n      pop\n        /* \"contracts/shit.sol\":749:760  optionCount */\n      0x03\n      0x00\n        /* \"contracts/shit.sol\":749:762  optionCount++ */\n      dup2\n      sload\n      dup1\n      swap3\n      swap2\n      swap1\n      tag_36\n      swap1\n      tag_37\n      jump\t// in\n    tag_36:\n      swap2\n      swap1\n      pop\n      sstore\n      pop\n        /* \"contracts/shit.sol\":399:770  function createRoom(string memory _option) public {\r... */\n      pop\n      pop\n      jump\t// out\n        /* \"contracts/shit.sol\":778:900  function getOptionStructure(uint _optionid) public view returns(Option memory){\r... */\n    tag_13:\n        /* \"contracts/shit.sol\":842:855  Option memory */\n      tag_38\n      tag_39\n      jump\t// in\n    tag_38:\n        /* \"contracts/shit.sol\":874:881  options */\n      0x00\n        /* \"contracts/shit.sol\":882:891  _optionid */\n      dup3\n        /* \"contracts/shit.sol\":874:892  options[_optionid] */\n      dup2\n      sload\n      dup2\n      lt\n      tag_41\n      jumpi\n      mstore(0x00, 0x4e487b7100000000000000000000000000000000000000000000000000000000)\n      mstore(0x04, 0x32)\n      revert(0x00, 0x24)\n    tag_41:\n      swap1\n      0x00\n      mstore\n      keccak256(0x00, 0x20)\n      swap1\n      0x02\n      mul\n      add\n        /* \"contracts/shit.sol\":867:892  return options[_optionid] */\n      mload(0x40)\n      dup1\n      0x40\n      add\n      0x40\n      mstore\n      swap1\n      dup2\n      0x00\n      dup3\n      add\n      sload\n      dup2\n      mstore\n      0x20\n      add\n      0x01\n      dup3\n      add\n      dup1\n      sload\n      dup1\n      0x20\n      mul\n      0x20\n      add\n      mload(0x40)\n      swap1\n      dup2\n      add\n      0x40\n      mstore\n      dup1\n      swap3\n      swap2\n      swap1\n      dup2\n      dup2\n      mstore\n      0x20\n      add\n      0x00\n      swap1\n    tag_43:\n      dup3\n      dup3\n      lt\n      iszero\n      tag_44\n      jumpi\n      dup4\n      dup3\n      swap1\n      0x00\n      mstore\n      keccak256(0x00, 0x20)\n      add\n      dup1\n      sload\n      tag_46\n      swap1\n      tag_28\n      jump\t// in\n    tag_46:\n      dup1\n      0x1f\n      add\n      0x20\n      dup1\n      swap2\n      div\n      mul\n      0x20\n      add\n      mload(0x40)\n      swap1\n      dup2\n      add\n      0x40\n      mstore\n      dup1\n      swap3\n      swap2\n      swap1\n      dup2\n      dup2\n      mstore\n      0x20\n      add\n      dup3\n      dup1\n      sload\n      tag_47\n      swap1\n      tag_28\n      jump\t// in\n    tag_47:\n      dup1\n      iszero\n      tag_48\n      jumpi\n      dup1\n      0x1f\n      lt\n      tag_49\n      jumpi\n      0x0100\n      dup1\n      dup4\n      sload\n      div\n      mul\n      dup4\n      mstore\n      swap2\n      0x20\n      add\n      swap2\n      jump(tag_48)\n    tag_49:\n      dup3\n      add\n      swap2\n      swap1\n      0x00\n      mstore\n      keccak256(0x00, 0x20)\n      swap1\n    tag_50:\n      dup2\n      sload\n      dup2\n      mstore\n      swap1\n      0x01\n      add\n      swap1\n      0x20\n      add\n      dup1\n      dup4\n      gt\n      tag_50\n      jumpi\n      dup3\n      swap1\n      sub\n      0x1f\n      and\n      dup3\n      add\n      swap2\n    tag_48:\n      pop\n      pop\n      pop\n      pop\n      pop\n      dup2\n      mstore\n      0x20\n      add\n      swap1\n      0x01\n      add\n      swap1\n      jump(tag_43)\n    tag_44:\n      pop\n      pop\n      pop\n      pop\n      dup2\n      mstore\n      pop\n      pop\n      swap1\n      pop\n        /* \"contracts/shit.sol\":778:900  function getOptionStructure(uint _optionid) public view returns(Option memory){\r... */\n      swap2\n      swap1\n      pop\n      jump\t// out\n        /* \"contracts/shit.sol\":367:390  uint public optionCount */\n    tag_17:\n      sload(0x03)\n      dup2\n      jump\t// out\n    tag_23:\n      dup3\n      dup1\n      sload\n      tag_51\n      swap1\n      tag_28\n      jump\t// in\n    tag_51:\n      swap1\n      0x00\n      mstore\n      keccak256(0x00, 0x20)\n      swap1\n      0x1f\n      add\n      0x20\n      swap1\n      div\n      dup2\n      add\n      swap3\n      dup3\n      tag_53\n      jumpi\n      0x00\n      dup6\n      sstore\n      jump(tag_52)\n    tag_53:\n      dup3\n      0x1f\n      lt\n      tag_54\n      jumpi\n      dup1\n      mload\n      not(0xff)\n      and\n      dup4\n      dup1\n      add\n      or\n      dup6\n      sstore\n      jump(tag_52)\n    tag_54:\n      dup3\n      dup1\n      add\n      0x01\n      add\n      dup6\n      sstore\n      dup3\n      iszero\n      tag_52\n      jumpi\n      swap2\n      dup3\n      add\n    tag_55:\n      dup3\n      dup2\n      gt\n      iszero\n      tag_56\n      jumpi\n      dup3\n      mload\n      dup3\n      sstore\n      swap2\n      0x20\n      add\n      swap2\n      swap1\n      0x01\n      add\n      swap1\n      jump(tag_55)\n    tag_56:\n    tag_52:\n      pop\n      swap1\n      pop\n      tag_57\n      swap2\n      swap1\n      tag_58\n      jump\t// in\n    tag_57:\n      pop\n      swap1\n      jump\t// out\n    tag_35:\n      dup3\n      dup1\n      sload\n      dup3\n      dup3\n      sstore\n      swap1\n      0x00\n      mstore\n      keccak256(0x00, 0x20)\n      swap1\n      dup2\n      add\n      swap3\n      dup3\n      iszero\n      tag_59\n      jumpi\n      swap2\n      0x20\n      mul\n      dup3\n      add\n    tag_60:\n      dup3\n      dup2\n      gt\n      iszero\n      tag_61\n      jumpi\n      dup3\n      mload\n      dup3\n      swap1\n      dup1\n      mload\n      swap1\n      0x20\n      add\n      swap1\n      tag_62\n      swap3\n      swap2\n      swap1\n      tag_23\n      jump\t// in\n    tag_62:\n      pop\n      swap2\n      0x20\n      add\n      swap2\n      swap1\n      0x01\n      add\n      swap1\n      jump(tag_60)\n    tag_61:\n    tag_59:\n      pop\n      swap1\n      pop\n      tag_63\n      swap2\n      swap1\n      tag_64\n      jump\t// in\n    tag_63:\n      pop\n      swap1\n      jump\t// out\n    tag_39:\n      mload(0x40)\n      dup1\n      0x40\n      add\n      0x40\n      mstore\n      dup1\n      0x00\n      dup2\n      mstore\n      0x20\n      add\n      0x60\n      dup2\n      mstore\n      pop\n      swap1\n      jump\t// out\n    tag_58:\n    tag_65:\n      dup1\n      dup3\n      gt\n      iszero\n      tag_66\n      jumpi\n      0x00\n      dup2\n      0x00\n      swap1\n      sstore\n      pop\n      0x01\n      add\n      jump(tag_65)\n    tag_66:\n      pop\n      swap1\n      jump\t// out\n    tag_64:\n    tag_67:\n      dup1\n      dup3\n      gt\n      iszero\n      tag_68\n      jumpi\n      0x00\n      dup2\n      dup2\n      tag_69\n      swap2\n      swap1\n      tag_70\n      jump\t// in\n    tag_69:\n      pop\n      0x01\n      add\n      jump(tag_67)\n    tag_68:\n      pop\n      swap1\n      jump\t// out\n    tag_70:\n      pop\n      dup1\n      sload\n      tag_71\n      swap1\n      tag_28\n      jump\t// in\n    tag_71:\n      0x00\n      dup3\n      sstore\n      dup1\n      0x1f\n      lt\n      tag_73\n      jumpi\n      pop\n      jump(tag_72)\n    tag_73:\n      0x1f\n      add\n      0x20\n      swap1\n      div\n      swap1\n      0x00\n      mstore\n      keccak256(0x00, 0x20)\n      swap1\n      dup2\n      add\n      swap1\n      tag_74\n      swap2\n      swap1\n      tag_58\n      jump\t// in\n    tag_74:\n    tag_72:\n      pop\n      jump\t// out\n        /* \"#utility.yul\":7:351   */\n    tag_76:\n      0x00\n        /* \"#utility.yul\":110:175   */\n      tag_78\n        /* \"#utility.yul\":125:174   */\n      tag_79\n        /* \"#utility.yul\":167:173   */\n      dup5\n        /* \"#utility.yul\":125:174   */\n      tag_80\n      jump\t// in\n    tag_79:\n        /* \"#utility.yul\":110:175   */\n      tag_81\n      jump\t// in\n    tag_78:\n        /* \"#utility.yul\":101:175   */\n      swap1\n      pop\n        /* \"#utility.yul\":198:204   */\n      dup3\n        /* \"#utility.yul\":191:196   */\n      dup2\n        /* \"#utility.yul\":184:205   */\n      mstore\n        /* \"#utility.yul\":236:240   */\n      0x20\n        /* \"#utility.yul\":229:234   */\n      dup2\n        /* \"#utility.yul\":225:241   */\n      add\n        /* \"#utility.yul\":274:277   */\n      dup5\n        /* \"#utility.yul\":265:271   */\n      dup5\n        /* \"#utility.yul\":260:263   */\n      dup5\n        /* \"#utility.yul\":256:272   */\n      add\n        /* \"#utility.yul\":253:278   */\n      gt\n        /* \"#utility.yul\":250:252   */\n      iszero\n      tag_82\n      jumpi\n        /* \"#utility.yul\":291:292   */\n      0x00\n        /* \"#utility.yul\":288:289   */\n      dup1\n        /* \"#utility.yul\":281:293   */\n      revert\n        /* \"#utility.yul\":250:252   */\n    tag_82:\n        /* \"#utility.yul\":304:345   */\n      tag_83\n        /* \"#utility.yul\":338:344   */\n      dup5\n        /* \"#utility.yul\":333:336   */\n      dup3\n        /* \"#utility.yul\":328:331   */\n      dup6\n        /* \"#utility.yul\":304:345   */\n      tag_84\n      jump\t// in\n    tag_83:\n        /* \"#utility.yul\":91:351   */\n      pop\n      swap4\n      swap3\n      pop\n      pop\n      pop\n      jump\t// out\n        /* \"#utility.yul\":371:644   */\n    tag_85:\n      0x00\n        /* \"#utility.yul\":476:479   */\n      dup3\n        /* \"#utility.yul\":469:473   */\n      0x1f\n        /* \"#utility.yul\":461:467   */\n      dup4\n        /* \"#utility.yul\":457:474   */\n      add\n        /* \"#utility.yul\":453:480   */\n      slt\n        /* \"#utility.yul\":443:445   */\n      tag_87\n      jumpi\n        /* \"#utility.yul\":494:495   */\n      0x00\n        /* \"#utility.yul\":491:492   */\n      dup1\n        /* \"#utility.yul\":484:496   */\n      revert\n        /* \"#utility.yul\":443:445   */\n    tag_87:\n        /* \"#utility.yul\":534:540   */\n      dup2\n        /* \"#utility.yul\":521:541   */\n      calldataload\n        /* \"#utility.yul\":559:638   */\n      tag_88\n        /* \"#utility.yul\":634:637   */\n      dup5\n        /* \"#utility.yul\":626:632   */\n      dup3\n        /* \"#utility.yul\":619:623   */\n      0x20\n        /* \"#utility.yul\":611:617   */\n      dup7\n        /* \"#utility.yul\":607:624   */\n      add\n        /* \"#utility.yul\":559:638   */\n      tag_76\n      jump\t// in\n    tag_88:\n        /* \"#utility.yul\":550:638   */\n      swap2\n      pop\n        /* \"#utility.yul\":433:644   */\n      pop\n      swap3\n      swap2\n      pop\n      pop\n      jump\t// out\n        /* \"#utility.yul\":650:789   */\n    tag_89:\n      0x00\n        /* \"#utility.yul\":734:740   */\n      dup2\n        /* \"#utility.yul\":721:741   */\n      calldataload\n        /* \"#utility.yul\":712:741   */\n      swap1\n      pop\n        /* \"#utility.yul\":750:783   */\n      tag_91\n        /* \"#utility.yul\":777:782   */\n      dup2\n        /* \"#utility.yul\":750:783   */\n      tag_92\n      jump\t// in\n    tag_91:\n        /* \"#utility.yul\":702:789   */\n      swap3\n      swap2\n      pop\n      pop\n      jump\t// out\n        /* \"#utility.yul\":795:1170   */\n    tag_8:\n      0x00\n        /* \"#utility.yul\":913:915   */\n      0x20\n        /* \"#utility.yul\":901:910   */\n      dup3\n        /* \"#utility.yul\":892:899   */\n      dup5\n        /* \"#utility.yul\":888:911   */\n      sub\n        /* \"#utility.yul\":884:916   */\n      slt\n        /* \"#utility.yul\":881:883   */\n      iszero\n      tag_94\n      jumpi\n        /* \"#utility.yul\":929:930   */\n      0x00\n        /* \"#utility.yul\":926:927   */\n      dup1\n        /* \"#utility.yul\":919:931   */\n      revert\n        /* \"#utility.yul\":881:883   */\n    tag_94:\n        /* \"#utility.yul\":1000:1001   */\n      0x00\n        /* \"#utility.yul\":989:998   */\n      dup3\n        /* \"#utility.yul\":985:1002   */\n      add\n        /* \"#utility.yul\":972:1003   */\n      calldataload\n        /* \"#utility.yul\":1030:1048   */\n      0xffffffffffffffff\n        /* \"#utility.yul\":1022:1028   */\n      dup2\n        /* \"#utility.yul\":1019:1049   */\n      gt\n        /* \"#utility.yul\":1016:1018   */\n      iszero\n      tag_95\n      jumpi\n        /* \"#utility.yul\":1062:1063   */\n      0x00\n        /* \"#utility.yul\":1059:1060   */\n      dup1\n        /* \"#utility.yul\":1052:1064   */\n      revert\n        /* \"#utility.yul\":1016:1018   */\n    tag_95:\n        /* \"#utility.yul\":1090:1153   */\n      tag_96\n        /* \"#utility.yul\":1145:1152   */\n      dup5\n        /* \"#utility.yul\":1136:1142   */\n      dup3\n        /* \"#utility.yul\":1125:1134   */\n      dup6\n        /* \"#utility.yul\":1121:1143   */\n      add\n        /* \"#utility.yul\":1090:1153   */\n      tag_85\n      jump\t// in\n    tag_96:\n        /* \"#utility.yul\":1080:1153   */\n      swap2\n      pop\n        /* \"#utility.yul\":943:1163   */\n      pop\n        /* \"#utility.yul\":871:1170   */\n      swap3\n      swap2\n      pop\n      pop\n      jump\t// out\n        /* \"#utility.yul\":1176:1438   */\n    tag_12:\n      0x00\n        /* \"#utility.yul\":1284:1286   */\n      0x20\n        /* \"#utility.yul\":1272:1281   */\n      dup3\n        /* \"#utility.yul\":1263:1270   */\n      dup5\n        /* \"#utility.yul\":1259:1282   */\n      sub\n        /* \"#utility.yul\":1255:1287   */\n      slt\n        /* \"#utility.yul\":1252:1254   */\n      iszero\n      tag_98\n      jumpi\n        /* \"#utility.yul\":1300:1301   */\n      0x00\n        /* \"#utility.yul\":1297:1298   */\n      dup1\n        /* \"#utility.yul\":1290:1302   */\n      revert\n        /* \"#utility.yul\":1252:1254   */\n    tag_98:\n        /* \"#utility.yul\":1343:1344   */\n      0x00\n        /* \"#utility.yul\":1368:1421   */\n      tag_99\n        /* \"#utility.yul\":1413:1420   */\n      dup5\n        /* \"#utility.yul\":1404:1410   */\n      dup3\n        /* \"#utility.yul\":1393:1402   */\n      dup6\n        /* \"#utility.yul\":1389:1411   */\n      add\n        /* \"#utility.yul\":1368:1421   */\n      tag_89\n      jump\t// in\n    tag_99:\n        /* \"#utility.yul\":1358:1421   */\n      swap2\n      pop\n        /* \"#utility.yul\":1314:1431   */\n      pop\n        /* \"#utility.yul\":1242:1438   */\n      swap3\n      swap2\n      pop\n      pop\n      jump\t// out\n        /* \"#utility.yul\":1444:1640   */\n    tag_100:\n      0x00\n        /* \"#utility.yul\":1568:1634   */\n      tag_102\n        /* \"#utility.yul\":1630:1633   */\n      dup4\n        /* \"#utility.yul\":1622:1628   */\n      dup4\n        /* \"#utility.yul\":1568:1634   */\n      tag_103\n      jump\t// in\n    tag_102:\n        /* \"#utility.yul\":1554:1634   */\n      swap1\n      pop\n        /* \"#utility.yul\":1544:1640   */\n      swap3\n      swap2\n      pop\n      pop\n      jump\t// out\n        /* \"#utility.yul\":1674:2645   */\n    tag_104:\n      0x00\n        /* \"#utility.yul\":1832:1896   */\n      tag_106\n        /* \"#utility.yul\":1890:1895   */\n      dup3\n        /* \"#utility.yul\":1832:1896   */\n      tag_107\n      jump\t// in\n    tag_106:\n        /* \"#utility.yul\":1912:1998   */\n      tag_108\n        /* \"#utility.yul\":1991:1997   */\n      dup2\n        /* \"#utility.yul\":1986:1989   */\n      dup6\n        /* \"#utility.yul\":1912:1998   */\n      tag_109\n      jump\t// in\n    tag_108:\n        /* \"#utility.yul\":1905:1998   */\n      swap4\n      pop\n        /* \"#utility.yul\":2024:2027   */\n      dup4\n        /* \"#utility.yul\":2069:2073   */\n      0x20\n        /* \"#utility.yul\":2061:2067   */\n      dup3\n        /* \"#utility.yul\":2057:2074   */\n      mul\n        /* \"#utility.yul\":2052:2055   */\n      dup6\n        /* \"#utility.yul\":2048:2075   */\n      add\n        /* \"#utility.yul\":2099:2165   */\n      tag_110\n        /* \"#utility.yul\":2159:2164   */\n      dup6\n        /* \"#utility.yul\":2099:2165   */\n      tag_111\n      jump\t// in\n    tag_110:\n        /* \"#utility.yul\":2188:2195   */\n      dup1\n        /* \"#utility.yul\":2219:2220   */\n      0x00\n        /* \"#utility.yul\":2204:2600   */\n    tag_112:\n        /* \"#utility.yul\":2229:2235   */\n      dup6\n        /* \"#utility.yul\":2226:2227   */\n      dup2\n        /* \"#utility.yul\":2223:2236   */\n      lt\n        /* \"#utility.yul\":2204:2600   */\n      iszero\n      tag_114\n      jumpi\n        /* \"#utility.yul\":2300:2309   */\n      dup5\n        /* \"#utility.yul\":2294:2298   */\n      dup5\n        /* \"#utility.yul\":2290:2310   */\n      sub\n        /* \"#utility.yul\":2285:2288   */\n      dup10\n        /* \"#utility.yul\":2278:2311   */\n      mstore\n        /* \"#utility.yul\":2351:2357   */\n      dup2\n        /* \"#utility.yul\":2345:2358   */\n      mload\n        /* \"#utility.yul\":2379:2463   */\n      tag_115\n        /* \"#utility.yul\":2458:2462   */\n      dup6\n        /* \"#utility.yul\":2443:2456   */\n      dup3\n        /* \"#utility.yul\":2379:2463   */\n      tag_100\n      jump\t// in\n    tag_115:\n        /* \"#utility.yul\":2371:2463   */\n      swap5\n      pop\n        /* \"#utility.yul\":2486:2556   */\n      tag_116\n        /* \"#utility.yul\":2549:2555   */\n      dup4\n        /* \"#utility.yul\":2486:2556   */\n      tag_117\n      jump\t// in\n    tag_116:\n        /* \"#utility.yul\":2476:2556   */\n      swap3\n      pop\n        /* \"#utility.yul\":2585:2589   */\n      0x20\n        /* \"#utility.yul\":2580:2583   */\n      dup11\n        /* \"#utility.yul\":2576:2590   */\n      add\n        /* \"#utility.yul\":2569:2590   */\n      swap10\n      pop\n        /* \"#utility.yul\":2264:2600   */\n      pop\n        /* \"#utility.yul\":2251:2252   */\n      0x01\n        /* \"#utility.yul\":2248:2249   */\n      dup2\n        /* \"#utility.yul\":2244:2253   */\n      add\n        /* \"#utility.yul\":2239:2253   */\n      swap1\n      pop\n        /* \"#utility.yul\":2204:2600   */\n      jump(tag_112)\n    tag_114:\n        /* \"#utility.yul\":2208:2222   */\n      pop\n        /* \"#utility.yul\":2616:2620   */\n      dup3\n        /* \"#utility.yul\":2609:2620   */\n      swap8\n      pop\n        /* \"#utility.yul\":2636:2639   */\n      dup8\n        /* \"#utility.yul\":2629:2639   */\n      swap6\n      pop\n        /* \"#utility.yul\":1808:2645   */\n      pop\n      pop\n      pop\n      pop\n      pop\n      swap3\n      swap2\n      pop\n      pop\n      jump\t// out\n        /* \"#utility.yul\":2651:2995   */\n    tag_103:\n      0x00\n        /* \"#utility.yul\":2757:2796   */\n      tag_119\n        /* \"#utility.yul\":2790:2795   */\n      dup3\n        /* \"#utility.yul\":2757:2796   */\n      tag_120\n      jump\t// in\n    tag_119:\n        /* \"#utility.yul\":2812:2873   */\n      tag_121\n        /* \"#utility.yul\":2866:2872   */\n      dup2\n        /* \"#utility.yul\":2861:2864   */\n      dup6\n        /* \"#utility.yul\":2812:2873   */\n      tag_122\n      jump\t// in\n    tag_121:\n        /* \"#utility.yul\":2805:2873   */\n      swap4\n      pop\n        /* \"#utility.yul\":2882:2934   */\n      tag_123\n        /* \"#utility.yul\":2927:2933   */\n      dup2\n        /* \"#utility.yul\":2922:2925   */\n      dup6\n        /* \"#utility.yul\":2915:2919   */\n      0x20\n        /* \"#utility.yul\":2908:2913   */\n      dup7\n        /* \"#utility.yul\":2904:2920   */\n      add\n        /* \"#utility.yul\":2882:2934   */\n      tag_124\n      jump\t// in\n    tag_123:\n        /* \"#utility.yul\":2959:2988   */\n      tag_125\n        /* \"#utility.yul\":2981:2987   */\n      dup2\n        /* \"#utility.yul\":2959:2988   */\n      tag_126\n      jump\t// in\n    tag_125:\n        /* \"#utility.yul\":2954:2957   */\n      dup5\n        /* \"#utility.yul\":2950:2989   */\n      add\n        /* \"#utility.yul\":2943:2989   */\n      swap2\n      pop\n        /* \"#utility.yul\":2733:2995   */\n      pop\n      swap3\n      swap2\n      pop\n      pop\n      jump\t// out\n        /* \"#utility.yul\":3081:3727   */\n    tag_127:\n      0x00\n        /* \"#utility.yul\":3228:3232   */\n      0x40\n        /* \"#utility.yul\":3223:3226   */\n      dup4\n        /* \"#utility.yul\":3219:3233   */\n      add\n        /* \"#utility.yul\":3313:3317   */\n      0x00\n        /* \"#utility.yul\":3306:3311   */\n      dup4\n        /* \"#utility.yul\":3302:3318   */\n      add\n        /* \"#utility.yul\":3296:3319   */\n      mload\n        /* \"#utility.yul\":3332:3395   */\n      tag_129\n        /* \"#utility.yul\":3389:3393   */\n      0x00\n        /* \"#utility.yul\":3384:3387   */\n      dup7\n        /* \"#utility.yul\":3380:3394   */\n      add\n        /* \"#utility.yul\":3366:3378   */\n      dup3\n        /* \"#utility.yul\":3332:3395   */\n      tag_130\n      jump\t// in\n    tag_129:\n        /* \"#utility.yul\":3243:3405   */\n      pop\n        /* \"#utility.yul\":3487:3491   */\n      0x20\n        /* \"#utility.yul\":3480:3485   */\n      dup4\n        /* \"#utility.yul\":3476:3492   */\n      add\n        /* \"#utility.yul\":3470:3493   */\n      mload\n        /* \"#utility.yul\":3540:3543   */\n      dup5\n        /* \"#utility.yul\":3534:3538   */\n      dup3\n        /* \"#utility.yul\":3530:3544   */\n      sub\n        /* \"#utility.yul\":3523:3527   */\n      0x20\n        /* \"#utility.yul\":3518:3521   */\n      dup7\n        /* \"#utility.yul\":3514:3528   */\n      add\n        /* \"#utility.yul\":3507:3545   */\n      mstore\n        /* \"#utility.yul\":3566:3689   */\n      tag_131\n        /* \"#utility.yul\":3684:3688   */\n      dup3\n        /* \"#utility.yul\":3670:3682   */\n      dup3\n        /* \"#utility.yul\":3566:3689   */\n      tag_104\n      jump\t// in\n    tag_131:\n        /* \"#utility.yul\":3558:3689   */\n      swap2\n      pop\n        /* \"#utility.yul\":3415:3700   */\n      pop\n        /* \"#utility.yul\":3717:3721   */\n      dup1\n        /* \"#utility.yul\":3710:3721   */\n      swap2\n      pop\n        /* \"#utility.yul\":3197:3727   */\n      pop\n      swap3\n      swap2\n      pop\n      pop\n      jump\t// out\n        /* \"#utility.yul\":3733:3841   */\n    tag_130:\n        /* \"#utility.yul\":3810:3834   */\n      tag_133\n        /* \"#utility.yul\":3828:3833   */\n      dup2\n        /* \"#utility.yul\":3810:3834   */\n      tag_134\n      jump\t// in\n    tag_133:\n        /* \"#utility.yul\":3805:3808   */\n      dup3\n        /* \"#utility.yul\":3798:3835   */\n      mstore\n        /* \"#utility.yul\":3788:3841   */\n      pop\n      pop\n      jump\t// out\n        /* \"#utility.yul\":3847:3965   */\n    tag_135:\n        /* \"#utility.yul\":3934:3958   */\n      tag_137\n        /* \"#utility.yul\":3952:3957   */\n      dup2\n        /* \"#utility.yul\":3934:3958   */\n      tag_134\n      jump\t// in\n    tag_137:\n        /* \"#utility.yul\":3929:3932   */\n      dup3\n        /* \"#utility.yul\":3922:3959   */\n      mstore\n        /* \"#utility.yul\":3912:3965   */\n      pop\n      pop\n      jump\t// out\n        /* \"#utility.yul\":3971:4328   */\n    tag_15:\n      0x00\n        /* \"#utility.yul\":4144:4146   */\n      0x20\n        /* \"#utility.yul\":4133:4142   */\n      dup3\n        /* \"#utility.yul\":4129:4147   */\n      add\n        /* \"#utility.yul\":4121:4147   */\n      swap1\n      pop\n        /* \"#utility.yul\":4193:4202   */\n      dup2\n        /* \"#utility.yul\":4187:4191   */\n      dup2\n        /* \"#utility.yul\":4183:4203   */\n      sub\n        /* \"#utility.yul\":4179:4180   */\n      0x00\n        /* \"#utility.yul\":4168:4177   */\n      dup4\n        /* \"#utility.yul\":4164:4181   */\n      add\n        /* \"#utility.yul\":4157:4204   */\n      mstore\n        /* \"#utility.yul\":4221:4321   */\n      tag_139\n        /* \"#utility.yul\":4316:4320   */\n      dup2\n        /* \"#utility.yul\":4307:4313   */\n      dup5\n        /* \"#utility.yul\":4221:4321   */\n      tag_127\n      jump\t// in\n    tag_139:\n        /* \"#utility.yul\":4213:4321   */\n      swap1\n      pop\n        /* \"#utility.yul\":4111:4328   */\n      swap3\n      swap2\n      pop\n      pop\n      jump\t// out\n        /* \"#utility.yul\":4334:4556   */\n    tag_19:\n      0x00\n        /* \"#utility.yul\":4465:4467   */\n      0x20\n        /* \"#utility.yul\":4454:4463   */\n      dup3\n        /* \"#utility.yul\":4450:4468   */\n      add\n        /* \"#utility.yul\":4442:4468   */\n      swap1\n      pop\n        /* \"#utility.yul\":4478:4549   */\n      tag_141\n        /* \"#utility.yul\":4546:4547   */\n      0x00\n        /* \"#utility.yul\":4535:4544   */\n      dup4\n        /* \"#utility.yul\":4531:4548   */\n      add\n        /* \"#utility.yul\":4522:4528   */\n      dup5\n        /* \"#utility.yul\":4478:4549   */\n      tag_135\n      jump\t// in\n    tag_141:\n        /* \"#utility.yul\":4432:4556   */\n      swap3\n      swap2\n      pop\n      pop\n      jump\t// out\n        /* \"#utility.yul\":4562:4845   */\n    tag_81:\n      0x00\n        /* \"#utility.yul\":4628:4630   */\n      0x40\n        /* \"#utility.yul\":4622:4631   */\n      mload\n        /* \"#utility.yul\":4612:4631   */\n      swap1\n      pop\n        /* \"#utility.yul\":4670:4674   */\n      dup2\n        /* \"#utility.yul\":4662:4668   */\n      dup2\n        /* \"#utility.yul\":4658:4675   */\n      add\n        /* \"#utility.yul\":4777:4783   */\n      dup2\n        /* \"#utility.yul\":4765:4775   */\n      dup2\n        /* \"#utility.yul\":4762:4784   */\n      lt\n        /* \"#utility.yul\":4741:4759   */\n      0xffffffffffffffff\n        /* \"#utility.yul\":4729:4739   */\n      dup3\n        /* \"#utility.yul\":4726:4760   */\n      gt\n        /* \"#utility.yul\":4723:4785   */\n      or\n        /* \"#utility.yul\":4720:4722   */\n      iszero\n      tag_143\n      jumpi\n        /* \"#utility.yul\":4788:4806   */\n      tag_144\n      tag_145\n      jump\t// in\n    tag_144:\n        /* \"#utility.yul\":4720:4722   */\n    tag_143:\n        /* \"#utility.yul\":4828:4838   */\n      dup1\n        /* \"#utility.yul\":4824:4826   */\n      0x40\n        /* \"#utility.yul\":4817:4839   */\n      mstore\n        /* \"#utility.yul\":4602:4845   */\n      pop\n      swap2\n      swap1\n      pop\n      jump\t// out\n        /* \"#utility.yul\":4851:5183   */\n    tag_80:\n      0x00\n        /* \"#utility.yul\":5003:5021   */\n      0xffffffffffffffff\n        /* \"#utility.yul\":4995:5001   */\n      dup3\n        /* \"#utility.yul\":4992:5022   */\n      gt\n        /* \"#utility.yul\":4989:4991   */\n      iszero\n      tag_147\n      jumpi\n        /* \"#utility.yul\":5025:5043   */\n      tag_148\n      tag_145\n      jump\t// in\n    tag_148:\n        /* \"#utility.yul\":4989:4991   */\n    tag_147:\n        /* \"#utility.yul\":5110:5114   */\n      0x1f\n        /* \"#utility.yul\":5106:5115   */\n      not\n        /* \"#utility.yul\":5099:5103   */\n      0x1f\n        /* \"#utility.yul\":5091:5097   */\n      dup4\n        /* \"#utility.yul\":5087:5104   */\n      add\n        /* \"#utility.yul\":5083:5116   */\n      and\n        /* \"#utility.yul\":5075:5116   */\n      swap1\n      pop\n        /* \"#utility.yul\":5171:5175   */\n      0x20\n        /* \"#utility.yul\":5165:5169   */\n      dup2\n        /* \"#utility.yul\":5161:5176   */\n      add\n        /* \"#utility.yul\":5153:5176   */\n      swap1\n      pop\n        /* \"#utility.yul\":4918:5183   */\n      swap2\n      swap1\n      pop\n      jump\t// out\n        /* \"#utility.yul\":5189:5331   */\n    tag_111:\n      0x00\n        /* \"#utility.yul\":5289:5292   */\n      dup2\n        /* \"#utility.yul\":5281:5292   */\n      swap1\n      pop\n        /* \"#utility.yul\":5319:5323   */\n      0x20\n        /* \"#utility.yul\":5314:5317   */\n      dup3\n        /* \"#utility.yul\":5310:5324   */\n      add\n        /* \"#utility.yul\":5302:5324   */\n      swap1\n      pop\n        /* \"#utility.yul\":5271:5331   */\n      swap2\n      swap1\n      pop\n      jump\t// out\n        /* \"#utility.yul\":5337:5461   */\n    tag_107:\n      0x00\n        /* \"#utility.yul\":5448:5453   */\n      dup2\n        /* \"#utility.yul\":5442:5454   */\n      mload\n        /* \"#utility.yul\":5432:5454   */\n      swap1\n      pop\n        /* \"#utility.yul\":5421:5461   */\n      swap2\n      swap1\n      pop\n      jump\t// out\n        /* \"#utility.yul\":5467:5566   */\n    tag_120:\n      0x00\n        /* \"#utility.yul\":5553:5558   */\n      dup2\n        /* \"#utility.yul\":5547:5559   */\n      mload\n        /* \"#utility.yul\":5537:5559   */\n      swap1\n      pop\n        /* \"#utility.yul\":5526:5566   */\n      swap2\n      swap1\n      pop\n      jump\t// out\n        /* \"#utility.yul\":5572:5695   */\n    tag_117:\n      0x00\n        /* \"#utility.yul\":5684:5688   */\n      0x20\n        /* \"#utility.yul\":5679:5682   */\n      dup3\n        /* \"#utility.yul\":5675:5689   */\n      add\n        /* \"#utility.yul\":5667:5689   */\n      swap1\n      pop\n        /* \"#utility.yul\":5657:5695   */\n      swap2\n      swap1\n      pop\n      jump\t// out\n        /* \"#utility.yul\":5701:5885   */\n    tag_109:\n      0x00\n        /* \"#utility.yul\":5834:5840   */\n      dup3\n        /* \"#utility.yul\":5829:5832   */\n      dup3\n        /* \"#utility.yul\":5822:5841   */\n      mstore\n        /* \"#utility.yul\":5874:5878   */\n      0x20\n        /* \"#utility.yul\":5869:5872   */\n      dup3\n        /* \"#utility.yul\":5865:5879   */\n      add\n        /* \"#utility.yul\":5850:5879   */\n      swap1\n      pop\n        /* \"#utility.yul\":5812:5885   */\n      swap3\n      swap2\n      pop\n      pop\n      jump\t// out\n        /* \"#utility.yul\":5891:6050   */\n    tag_122:\n      0x00\n        /* \"#utility.yul\":5999:6005   */\n      dup3\n        /* \"#utility.yul\":5994:5997   */\n      dup3\n        /* \"#utility.yul\":5987:6006   */\n      mstore\n        /* \"#utility.yul\":6039:6043   */\n      0x20\n        /* \"#utility.yul\":6034:6037   */\n      dup3\n        /* \"#utility.yul\":6030:6044   */\n      add\n        /* \"#utility.yul\":6015:6044   */\n      swap1\n      pop\n        /* \"#utility.yul\":5977:6050   */\n      swap3\n      swap2\n      pop\n      pop\n      jump\t// out\n        /* \"#utility.yul\":6056:6133   */\n    tag_134:\n      0x00\n        /* \"#utility.yul\":6122:6127   */\n      dup2\n        /* \"#utility.yul\":6111:6127   */\n      swap1\n      pop\n        /* \"#utility.yul\":6101:6133   */\n      swap2\n      swap1\n      pop\n      jump\t// out\n        /* \"#utility.yul\":6139:6293   */\n    tag_84:\n        /* \"#utility.yul\":6223:6229   */\n      dup3\n        /* \"#utility.yul\":6218:6221   */\n      dup2\n        /* \"#utility.yul\":6213:6216   */\n      dup4\n        /* \"#utility.yul\":6200:6230   */\n      calldatacopy\n        /* \"#utility.yul\":6285:6286   */\n      0x00\n        /* \"#utility.yul\":6276:6282   */\n      dup4\n        /* \"#utility.yul\":6271:6274   */\n      dup4\n        /* \"#utility.yul\":6267:6283   */\n      add\n        /* \"#utility.yul\":6260:6287   */\n      mstore\n        /* \"#utility.yul\":6190:6293   */\n      pop\n      pop\n      pop\n      jump\t// out\n        /* \"#utility.yul\":6299:6606   */\n    tag_124:\n        /* \"#utility.yul\":6367:6368   */\n      0x00\n        /* \"#utility.yul\":6377:6490   */\n    tag_158:\n        /* \"#utility.yul\":6391:6397   */\n      dup4\n        /* \"#utility.yul\":6388:6389   */\n      dup2\n        /* \"#utility.yul\":6385:6398   */\n      lt\n        /* \"#utility.yul\":6377:6490   */\n      iszero\n      tag_160\n      jumpi\n        /* \"#utility.yul\":6476:6477   */\n      dup1\n        /* \"#utility.yul\":6471:6474   */\n      dup3\n        /* \"#utility.yul\":6467:6478   */\n      add\n        /* \"#utility.yul\":6461:6479   */\n      mload\n        /* \"#utility.yul\":6457:6458   */\n      dup2\n        /* \"#utility.yul\":6452:6455   */\n      dup5\n        /* \"#utility.yul\":6448:6459   */\n      add\n        /* \"#utility.yul\":6441:6480   */\n      mstore\n        /* \"#utility.yul\":6413:6415   */\n      0x20\n        /* \"#utility.yul\":6410:6411   */\n      dup2\n        /* \"#utility.yul\":6406:6416   */\n      add\n        /* \"#utility.yul\":6401:6416   */\n      swap1\n      pop\n        /* \"#utility.yul\":6377:6490   */\n      jump(tag_158)\n    tag_160:\n        /* \"#utility.yul\":6508:6514   */\n      dup4\n        /* \"#utility.yul\":6505:6506   */\n      dup2\n        /* \"#utility.yul\":6502:6515   */\n      gt\n        /* \"#utility.yul\":6499:6501   */\n      iszero\n      tag_161\n      jumpi\n        /* \"#utility.yul\":6588:6589   */\n      0x00\n        /* \"#utility.yul\":6579:6585   */\n      dup5\n        /* \"#utility.yul\":6574:6577   */\n      dup5\n        /* \"#utility.yul\":6570:6586   */\n      add\n        /* \"#utility.yul\":6563:6590   */\n      mstore\n        /* \"#utility.yul\":6499:6501   */\n    tag_161:\n        /* \"#utility.yul\":6348:6606   */\n      pop\n      pop\n      pop\n      pop\n      jump\t// out\n        /* \"#utility.yul\":6612:6932   */\n    tag_28:\n      0x00\n        /* \"#utility.yul\":6693:6694   */\n      0x02\n        /* \"#utility.yul\":6687:6691   */\n      dup3\n        /* \"#utility.yul\":6683:6695   */\n      div\n        /* \"#utility.yul\":6673:6695   */\n      swap1\n      pop\n        /* \"#utility.yul\":6740:6741   */\n      0x01\n        /* \"#utility.yul\":6734:6738   */\n      dup3\n        /* \"#utility.yul\":6730:6742   */\n      and\n        /* \"#utility.yul\":6761:6779   */\n      dup1\n        /* \"#utility.yul\":6751:6753   */\n      tag_163\n      jumpi\n        /* \"#utility.yul\":6817:6821   */\n      0x7f\n        /* \"#utility.yul\":6809:6815   */\n      dup3\n        /* \"#utility.yul\":6805:6822   */\n      and\n        /* \"#utility.yul\":6795:6822   */\n      swap2\n      pop\n        /* \"#utility.yul\":6751:6753   */\n    tag_163:\n        /* \"#utility.yul\":6879:6881   */\n      0x20\n        /* \"#utility.yul\":6871:6877   */\n      dup3\n        /* \"#utility.yul\":6868:6882   */\n      lt\n        /* \"#utility.yul\":6848:6866   */\n      dup2\n        /* \"#utility.yul\":6845:6883   */\n      eq\n        /* \"#utility.yul\":6842:6844   */\n      iszero\n      tag_164\n      jumpi\n        /* \"#utility.yul\":6898:6916   */\n      tag_165\n      tag_166\n      jump\t// in\n    tag_165:\n        /* \"#utility.yul\":6842:6844   */\n    tag_164:\n        /* \"#utility.yul\":6663:6932   */\n      pop\n      swap2\n      swap1\n      pop\n      jump\t// out\n        /* \"#utility.yul\":6938:7171   */\n    tag_37:\n      0x00\n        /* \"#utility.yul\":7000:7024   */\n      tag_168\n        /* \"#utility.yul\":7018:7023   */\n      dup3\n        /* \"#utility.yul\":7000:7024   */\n      tag_134\n      jump\t// in\n    tag_168:\n        /* \"#utility.yul\":6991:7024   */\n      swap2\n      pop\n        /* \"#utility.yul\":7046:7112   */\n      0xffffffffffffffffffffffffffffffffffffffffffffffffffffffffffffffff\n        /* \"#utility.yul\":7039:7044   */\n      dup3\n        /* \"#utility.yul\":7036:7113   */\n      eq\n        /* \"#utility.yul\":7033:7035   */\n      iszero\n      tag_169\n      jumpi\n        /* \"#utility.yul\":7116:7134   */\n      tag_170\n      tag_171\n      jump\t// in\n    tag_170:\n        /* \"#utility.yul\":7033:7035   */\n    tag_169:\n        /* \"#utility.yul\":7163:7164   */\n      0x01\n        /* \"#utility.yul\":7156:7161   */\n      dup3\n        /* \"#utility.yul\":7152:7165   */\n      add\n        /* \"#utility.yul\":7145:7165   */\n      swap1\n      pop\n        /* \"#utility.yul\":6981:7171   */\n      swap2\n      swap1\n      pop\n      jump\t// out\n        /* \"#utility.yul\":7177:7357   */\n    tag_171:\n        /* \"#utility.yul\":7225:7302   */\n      0x4e487b7100000000000000000000000000000000000000000000000000000000\n        /* \"#utility.yul\":7222:7223   */\n      0x00\n        /* \"#utility.yul\":7215:7303   */\n      mstore\n        /* \"#utility.yul\":7322:7326   */\n      0x11\n        /* \"#utility.yul\":7319:7320   */\n      0x04\n        /* \"#utility.yul\":7312:7327   */\n      mstore\n        /* \"#utility.yul\":7346:7350   */\n      0x24\n        /* \"#utility.yul\":7343:7344   */\n      0x00\n        /* \"#utility.yul\":7336:7351   */\n      revert\n        /* \"#utility.yul\":7363:7543   */\n    tag_166:\n        /* \"#utility.yul\":7411:7488   */\n      0x4e487b7100000000000000000000000000000000000000000000000000000000\n        /* \"#utility.yul\":7408:7409   */\n      0x00\n        /* \"#utility.yul\":7401:7489   */\n      mstore\n        /* \"#utility.yul\":7508:7512   */\n      0x22\n        /* \"#utility.yul\":7505:7506   */\n      0x04\n        /* \"#utility.yul\":7498:7513   */\n      mstore\n        /* \"#utility.yul\":7532:7536   */\n      0x24\n        /* \"#utility.yul\":7529:7530   */\n      0x00\n        /* \"#utility.yul\":7522:7537   */\n      revert\n        /* \"#utility.yul\":7549:7729   */\n    tag_145:\n        /* \"#utility.yul\":7597:7674   */\n      0x4e487b7100000000000000000000000000000000000000000000000000000000\n        /* \"#utility.yul\":7594:7595   */\n      0x00\n        /* \"#utility.yul\":7587:7675   */\n      mstore\n        /* \"#utility.yul\":7694:7698   */\n      0x41\n        /* \"#utility.yul\":7691:7692   */\n      0x04\n        /* \"#utility.yul\":7684:7699   */\n      mstore\n        /* \"#utility.yul\":7718:7722   */\n      0x24\n        /* \"#utility.yul\":7715:7716   */\n      0x00\n        /* \"#utility.yul\":7708:7723   */\n      revert\n        /* \"#utility.yul\":7735:7837   */\n    tag_126:\n      0x00\n        /* \"#utility.yul\":7827:7829   */\n      0x1f\n        /* \"#utility.yul\":7823:7830   */\n      not\n        /* \"#utility.yul\":7818:7820   */\n      0x1f\n        /* \"#utility.yul\":7811:7816   */\n      dup4\n        /* \"#utility.yul\":7807:7821   */\n      add\n        /* \"#utility.yul\":7803:7831   */\n      and\n        /* \"#utility.yul\":7793:7831   */\n      swap1\n      pop\n        /* \"#utility.yul\":7783:7837   */\n      swap2\n      swap1\n      pop\n      jump\t// out\n        /* \"#utility.yul\":7843:7965   */\n    tag_92:\n        /* \"#utility.yul\":7916:7940   */\n      tag_177\n        /* \"#utility.yul\":7934:7939   */\n      dup2\n        /* \"#utility.yul\":7916:7940   */\n      tag_134\n      jump\t// in\n    tag_177:\n        /* \"#utility.yul\":7909:7914   */\n      dup2\n        /* \"#utility.yul\":7906:7941   */\n      eq\n        /* \"#utility.yul\":7896:7898   */\n      tag_178\n      jumpi\n        /* \"#utility.yul\":7955:7956   */\n      0x00\n        /* \"#utility.yul\":7952:7953   */\n      dup1\n        /* \"#utility.yul\":7945:7957   */\n      revert\n        /* \"#utility.yul\":7896:7898   */\n    tag_178:\n        /* \"#utility.yul\":7886:7965   */\n      pop\n      jump\t// out\n\n    auxdata: 0xa2646970667358221220be94988311bb029fc68880d719f9286b5c3fa396dca4a1eebc7460d13bee735964736f6c63430008000033\n}\n",
				"bytecode": {
					"linkReferences": {},
					"object": "608060405234801561001057600080fd5b506109be806100206000396000f3fe608060405234801561001057600080fd5b50600436106100415760003560e01c80637306d2dd14610046578063a92f01e714610062578063e32fe90b14610092575b600080fd5b610060600480360381019061005b9190610592565b6100b0565b005b61007c600480360381019061007791906105d3565b610249565b6040516100899190610719565b60405180910390f35b61009a61038e565b6040516100a7919061073b565b60405180910390f35b6001819080600181540180825580915050600190039060005260206000200160009091909190915090805190602001906100eb929190610394565b506000604051806040016040528060035481526020016001805480602002602001604051908101604052809291908181526020016000905b828210156101cf57838290600052602060002001805461014290610858565b80601f016020809104026020016040519081016040528092919081815260200182805461016e90610858565b80156101bb5780601f10610190576101008083540402835291602001916101bb565b820191906000526020600020905b81548152906001019060200180831161019e57829003601f168201915b505050505081526020019060010190610123565b505050508152509050600081908060018154018082558091505060019003906000526020600020906002020160009091909190915060008201518160000155602082015181600101908051906020019061022a92919061041a565b505050600360008154809291906102409061088a565b91905055505050565b61025161047a565b6000828154811061028b577f4e487b7100000000000000000000000000000000000000000000000000000000600052603260045260246000fd5b90600052602060002090600202016040518060400160405290816000820154815260200160018201805480602002602001604051908101604052809291908181526020016000905b8282101561037f5783829060005260206000200180546102f290610858565b80601f016020809104026020016040519081016040528092919081815260200182805461031e90610858565b801561036b5780601f106103405761010080835404028352916020019161036b565b820191906000526020600020905b81548152906001019060200180831161034e57829003601f168201915b5050505050815260200190600101906102d3565b50505050815250509050919050565b60035481565b8280546103a090610858565b90600052602060002090601f0160209004810192826103c25760008555610409565b82601f106103db57805160ff1916838001178555610409565b82800160010185558215610409579182015b828111156104085782518255916020019190600101906103ed565b5b5090506104169190610494565b5090565b828054828255906000526020600020908101928215610469579160200282015b82811115610468578251829080519060200190610458929190610394565b509160200191906001019061043a565b5b50905061047691906104b1565b5090565b604051806040016040528060008152602001606081525090565b5b808211156104ad576000816000905550600101610495565b5090565b5b808211156104d157600081816104c891906104d5565b506001016104b2565b5090565b5080546104e190610858565b6000825580601f106104f35750610512565b601f0160209004906000526020600020908101906105119190610494565b5b50565b600061052861052384610787565b610756565b90508281526020810184848401111561054057600080fd5b61054b848285610816565b509392505050565b600082601f83011261056457600080fd5b8135610574848260208601610515565b91505092915050565b60008135905061058c81610971565b92915050565b6000602082840312156105a457600080fd5b600082013567ffffffffffffffff8111156105be57600080fd5b6105ca84828501610553565b91505092915050565b6000602082840312156105e557600080fd5b60006105f38482850161057d565b91505092915050565b60006106088383610685565b905092915050565b600061061b826107c7565b61062581856107ea565b935083602082028501610637856107b7565b8060005b85811015610673578484038952815161065485826105fc565b945061065f836107dd565b925060208a0199505060018101905061063b565b50829750879550505050505092915050565b6000610690826107d2565b61069a81856107fb565b93506106aa818560208601610825565b6106b381610960565b840191505092915050565b60006040830160008301516106d660008601826106fb565b50602083015184820360208601526106ee8282610610565b9150508091505092915050565b6107048161080c565b82525050565b6107138161080c565b82525050565b6000602082019050818103600083015261073381846106be565b905092915050565b6000602082019050610750600083018461070a565b92915050565b6000604051905081810181811067ffffffffffffffff8211171561077d5761077c610931565b5b8060405250919050565b600067ffffffffffffffff8211156107a2576107a1610931565b5b601f19601f8301169050602081019050919050565b6000819050602082019050919050565b600081519050919050565b600081519050919050565b6000602082019050919050565b600082825260208201905092915050565b600082825260208201905092915050565b6000819050919050565b82818337600083830152505050565b60005b83811015610843578082015181840152602081019050610828565b83811115610852576000848401525b50505050565b6000600282049050600182168061087057607f821691505b6020821081141561088457610883610902565b5b50919050565b60006108958261080c565b91507fffffffffffffffffffffffffffffffffffffffffffffffffffffffffffffffff8214156108c8576108c76108d3565b5b600182019050919050565b7f4e487b7100000000000000000000000000000000000000000000000000000000600052601160045260246000fd5b7f4e487b7100000000000000000000000000000000000000000000000000000000600052602260045260246000fd5b7f4e487b7100000000000000000000000000000000000000000000000000000000600052604160045260246000fd5b6000601f19601f8301169050919050565b61097a8161080c565b811461098557600080fd5b5056fea2646970667358221220be94988311bb029fc68880d719f9286b5c3fa396dca4a1eebc7460d13bee735964736f6c63430008000033",
					"opcodes": "PUSH1 0x80 PUSH1 0x40 MSTORE CALLVALUE DUP1 ISZERO PUSH2 0x10 JUMPI PUSH1 0x0 DUP1 REVERT JUMPDEST POP PUSH2 0x9BE DUP1 PUSH2 0x20 PUSH1 0x0 CODECOPY PUSH1 0x0 RETURN INVALID PUSH1 0x80 PUSH1 0x40 MSTORE CALLVALUE DUP1 ISZERO PUSH2 0x10 JUMPI PUSH1 0x0 DUP1 REVERT JUMPDEST POP PUSH1 0x4 CALLDATASIZE LT PUSH2 0x41 JUMPI PUSH1 0x0 CALLDATALOAD PUSH1 0xE0 SHR DUP1 PUSH4 0x7306D2DD EQ PUSH2 0x46 JUMPI DUP1 PUSH4 0xA92F01E7 EQ PUSH2 0x62 JUMPI DUP1 PUSH4 0xE32FE90B EQ PUSH2 0x92 JUMPI JUMPDEST PUSH1 0x0 DUP1 REVERT JUMPDEST PUSH2 0x60 PUSH1 0x4 DUP1 CALLDATASIZE SUB DUP2 ADD SWAP1 PUSH2 0x5B SWAP2 SWAP1 PUSH2 0x592 JUMP JUMPDEST PUSH2 0xB0 JUMP JUMPDEST STOP JUMPDEST PUSH2 0x7C PUSH1 0x4 DUP1 CALLDATASIZE SUB DUP2 ADD SWAP1 PUSH2 0x77 SWAP2 SWAP1 PUSH2 0x5D3 JUMP JUMPDEST PUSH2 0x249 JUMP JUMPDEST PUSH1 0x40 MLOAD PUSH2 0x89 SWAP2 SWAP1 PUSH2 0x719 JUMP JUMPDEST PUSH1 0x40 MLOAD DUP1 SWAP2 SUB SWAP1 RETURN JUMPDEST PUSH2 0x9A PUSH2 0x38E JUMP JUMPDEST PUSH1 0x40 MLOAD PUSH2 0xA7 SWAP2 SWAP1 PUSH2 0x73B JUMP JUMPDEST PUSH1 0x40 MLOAD DUP1 SWAP2 SUB SWAP1 RETURN JUMPDEST PUSH1 0x1 DUP2 SWAP1 DUP1 PUSH1 0x1 DUP2 SLOAD ADD DUP1 DUP3 SSTORE DUP1 SWAP2 POP POP PUSH1 0x1 SWAP1 SUB SWAP1 PUSH1 0x0 MSTORE PUSH1 0x20 PUSH1 0x0 KECCAK256 ADD PUSH1 0x0 SWAP1 SWAP2 SWAP1 SWAP2 SWAP1 SWAP2 POP SWAP1 DUP1 MLOAD SWAP1 PUSH1 0x20 ADD SWAP1 PUSH2 0xEB SWAP3 SWAP2 SWAP1 PUSH2 0x394 JUMP JUMPDEST POP PUSH1 0x0 PUSH1 0x40 MLOAD DUP1 PUSH1 0x40 ADD PUSH1 0x40 MSTORE DUP1 PUSH1 0x3 SLOAD DUP2 MSTORE PUSH1 0x20 ADD PUSH1 0x1 DUP1 SLOAD DUP1 PUSH1 0x20 MUL PUSH1 0x20 ADD PUSH1 0x40 MLOAD SWAP1 DUP2 ADD PUSH1 0x40 MSTORE DUP1 SWAP3 SWAP2 SWAP1 DUP2 DUP2 MSTORE PUSH1 0x20 ADD PUSH1 0x0 SWAP1 JUMPDEST DUP3 DUP3 LT ISZERO PUSH2 0x1CF JUMPI DUP4 DUP3 SWAP1 PUSH1 0x0 MSTORE PUSH1 0x20 PUSH1 0x0 KECCAK256 ADD DUP1 SLOAD PUSH2 0x142 SWAP1 PUSH2 0x858 JUMP JUMPDEST DUP1 PUSH1 0x1F ADD PUSH1 0x20 DUP1 SWAP2 DIV MUL PUSH1 0x20 ADD PUSH1 0x40 MLOAD SWAP1 DUP2 ADD PUSH1 0x40 MSTORE DUP1 SWAP3 SWAP2 SWAP1 DUP2 DUP2 MSTORE PUSH1 0x20 ADD DUP3 DUP1 SLOAD PUSH2 0x16E SWAP1 PUSH2 0x858 JUMP JUMPDEST DUP1 ISZERO PUSH2 0x1BB JUMPI DUP1 PUSH1 0x1F LT PUSH2 0x190 JUMPI PUSH2 0x100 DUP1 DUP4 SLOAD DIV MUL DUP4 MSTORE SWAP2 PUSH1 0x20 ADD SWAP2 PUSH2 0x1BB JUMP JUMPDEST DUP3 ADD SWAP2 SWAP1 PUSH1 0x0 MSTORE PUSH1 0x20 PUSH1 0x0 KECCAK256 SWAP1 JUMPDEST DUP2 SLOAD DUP2 MSTORE SWAP1 PUSH1 0x1 ADD SWAP1 PUSH1 0x20 ADD DUP1 DUP4 GT PUSH2 0x19E JUMPI DUP3 SWAP1 SUB PUSH1 0x1F AND DUP3 ADD SWAP2 JUMPDEST POP POP POP POP POP DUP2 MSTORE PUSH1 0x20 ADD SWAP1 PUSH1 0x1 ADD SWAP1 PUSH2 0x123 JUMP JUMPDEST POP POP POP POP DUP2 MSTORE POP SWAP1 POP PUSH1 0x0 DUP2 SWAP1 DUP1 PUSH1 0x1 DUP2 SLOAD ADD DUP1 DUP3 SSTORE DUP1 SWAP2 POP POP PUSH1 0x1 SWAP1 SUB SWAP1 PUSH1 0x0 MSTORE PUSH1 0x20 PUSH1 0x0 KECCAK256 SWAP1 PUSH1 0x2 MUL ADD PUSH1 0x0 SWAP1 SWAP2 SWAP1 SWAP2 SWAP1 SWAP2 POP PUSH1 0x0 DUP3 ADD MLOAD DUP2 PUSH1 0x0 ADD SSTORE PUSH1 0x20 DUP3 ADD MLOAD DUP2 PUSH1 0x1 ADD SWAP1 DUP1 MLOAD SWAP1 PUSH1 0x20 ADD SWAP1 PUSH2 0x22A SWAP3 SWAP2 SWAP1 PUSH2 0x41A JUMP JUMPDEST POP POP POP PUSH1 0x3 PUSH1 0x0 DUP2 SLOAD DUP1 SWAP3 SWAP2 SWAP1 PUSH2 0x240 SWAP1 PUSH2 0x88A JUMP JUMPDEST SWAP2 SWAP1 POP SSTORE POP POP POP JUMP JUMPDEST PUSH2 0x251 PUSH2 0x47A JUMP JUMPDEST PUSH1 0x0 DUP3 DUP2 SLOAD DUP2 LT PUSH2 0x28B JUMPI PUSH32 0x4E487B7100000000000000000000000000000000000000000000000000000000 PUSH1 0x0 MSTORE PUSH1 0x32 PUSH1 0x4 MSTORE PUSH1 0x24 PUSH1 0x0 REVERT JUMPDEST SWAP1 PUSH1 0x0 MSTORE PUSH1 0x20 PUSH1 0x0 KECCAK256 SWAP1 PUSH1 0x2 MUL ADD PUSH1 0x40 MLOAD DUP1 PUSH1 0x40 ADD PUSH1 0x40 MSTORE SWAP1 DUP2 PUSH1 0x0 DUP3 ADD SLOAD DUP2 MSTORE PUSH1 0x20 ADD PUSH1 0x1 DUP3 ADD DUP1 SLOAD DUP1 PUSH1 0x20 MUL PUSH1 0x20 ADD PUSH1 0x40 MLOAD SWAP1 DUP2 ADD PUSH1 0x40 MSTORE DUP1 SWAP3 SWAP2 SWAP1 DUP2 DUP2 MSTORE PUSH1 0x20 ADD PUSH1 0x0 SWAP1 JUMPDEST DUP3 DUP3 LT ISZERO PUSH2 0x37F JUMPI DUP4 DUP3 SWAP1 PUSH1 0x0 MSTORE PUSH1 0x20 PUSH1 0x0 KECCAK256 ADD DUP1 SLOAD PUSH2 0x2F2 SWAP1 PUSH2 0x858 JUMP JUMPDEST DUP1 PUSH1 0x1F ADD PUSH1 0x20 DUP1 SWAP2 DIV MUL PUSH1 0x20 ADD PUSH1 0x40 MLOAD SWAP1 DUP2 ADD PUSH1 0x40 MSTORE DUP1 SWAP3 SWAP2 SWAP1 DUP2 DUP2 MSTORE PUSH1 0x20 ADD DUP3 DUP1 SLOAD PUSH2 0x31E SWAP1 PUSH2 0x858 JUMP JUMPDEST DUP1 ISZERO PUSH2 0x36B JUMPI DUP1 PUSH1 0x1F LT PUSH2 0x340 JUMPI PUSH2 0x100 DUP1 DUP4 SLOAD DIV MUL DUP4 MSTORE SWAP2 PUSH1 0x20 ADD SWAP2 PUSH2 0x36B JUMP JUMPDEST DUP3 ADD SWAP2 SWAP1 PUSH1 0x0 MSTORE PUSH1 0x20 PUSH1 0x0 KECCAK256 SWAP1 JUMPDEST DUP2 SLOAD DUP2 MSTORE SWAP1 PUSH1 0x1 ADD SWAP1 PUSH1 0x20 ADD DUP1 DUP4 GT PUSH2 0x34E JUMPI DUP3 SWAP1 SUB PUSH1 0x1F AND DUP3 ADD SWAP2 JUMPDEST POP POP POP POP POP DUP2 MSTORE PUSH1 0x20 ADD SWAP1 PUSH1 0x1 ADD SWAP1 PUSH2 0x2D3 JUMP JUMPDEST POP POP POP POP DUP2 MSTORE POP POP SWAP1 POP SWAP2 SWAP1 POP JUMP JUMPDEST PUSH1 0x3 SLOAD DUP2 JUMP JUMPDEST DUP3 DUP1 SLOAD PUSH2 0x3A0 SWAP1 PUSH2 0x858 JUMP JUMPDEST SWAP1 PUSH1 0x0 MSTORE PUSH1 0x20 PUSH1 0x0 KECCAK256 SWAP1 PUSH1 0x1F ADD PUSH1 0x20 SWAP1 DIV DUP2 ADD SWAP3 DUP3 PUSH2 0x3C2 JUMPI PUSH1 0x0 DUP6 SSTORE PUSH2 0x409 JUMP JUMPDEST DUP3 PUSH1 0x1F LT PUSH2 0x3DB JUMPI DUP1 MLOAD PUSH1 0xFF NOT AND DUP4 DUP1 ADD OR DUP6 SSTORE PUSH2 0x409 JUMP JUMPDEST DUP3 DUP1 ADD PUSH1 0x1 ADD DUP6 SSTORE DUP3 ISZERO PUSH2 0x409 JUMPI SWAP2 DUP3 ADD JUMPDEST DUP3 DUP2 GT ISZERO PUSH2 0x408 JUMPI DUP3 MLOAD DUP3 SSTORE SWAP2 PUSH1 0x20 ADD SWAP2 SWAP1 PUSH1 0x1 ADD SWAP1 PUSH2 0x3ED JUMP JUMPDEST JUMPDEST POP SWAP1 POP PUSH2 0x416 SWAP2 SWAP1 PUSH2 0x494 JUMP JUMPDEST POP SWAP1 JUMP JUMPDEST DUP3 DUP1 SLOAD DUP3 DUP3 SSTORE SWAP1 PUSH1 0x0 MSTORE PUSH1 0x20 PUSH1 0x0 KECCAK256 SWAP1 DUP2 ADD SWAP3 DUP3 ISZERO PUSH2 0x469 JUMPI SWAP2 PUSH1 0x20 MUL DUP3 ADD JUMPDEST DUP3 DUP2 GT ISZERO PUSH2 0x468 JUMPI DUP3 MLOAD DUP3 SWAP1 DUP1 MLOAD SWAP1 PUSH1 0x20 ADD SWAP1 PUSH2 0x458 SWAP3 SWAP2 SWAP1 PUSH2 0x394 JUMP JUMPDEST POP SWAP2 PUSH1 0x20 ADD SWAP2 SWAP1 PUSH1 0x1 ADD SWAP1 PUSH2 0x43A JUMP JUMPDEST JUMPDEST POP SWAP1 POP PUSH2 0x476 SWAP2 SWAP1 PUSH2 0x4B1 JUMP JUMPDEST POP SWAP1 JUMP JUMPDEST PUSH1 0x40 MLOAD DUP1 PUSH1 0x40 ADD PUSH1 0x40 MSTORE DUP1 PUSH1 0x0 DUP2 MSTORE PUSH1 0x20 ADD PUSH1 0x60 DUP2 MSTORE POP SWAP1 JUMP JUMPDEST JUMPDEST DUP1 DUP3 GT ISZERO PUSH2 0x4AD JUMPI PUSH1 0x0 DUP2 PUSH1 0x0 SWAP1 SSTORE POP PUSH1 0x1 ADD PUSH2 0x495 JUMP JUMPDEST POP SWAP1 JUMP JUMPDEST JUMPDEST DUP1 DUP3 GT ISZERO PUSH2 0x4D1 JUMPI PUSH1 0x0 DUP2 DUP2 PUSH2 0x4C8 SWAP2 SWAP1 PUSH2 0x4D5 JUMP JUMPDEST POP PUSH1 0x1 ADD PUSH2 0x4B2 JUMP JUMPDEST POP SWAP1 JUMP JUMPDEST POP DUP1 SLOAD PUSH2 0x4E1 SWAP1 PUSH2 0x858 JUMP JUMPDEST PUSH1 0x0 DUP3 SSTORE DUP1 PUSH1 0x1F LT PUSH2 0x4F3 JUMPI POP PUSH2 0x512 JUMP JUMPDEST PUSH1 0x1F ADD PUSH1 0x20 SWAP1 DIV SWAP1 PUSH1 0x0 MSTORE PUSH1 0x20 PUSH1 0x0 KECCAK256 SWAP1 DUP2 ADD SWAP1 PUSH2 0x511 SWAP2 SWAP1 PUSH2 0x494 JUMP JUMPDEST JUMPDEST POP JUMP JUMPDEST PUSH1 0x0 PUSH2 0x528 PUSH2 0x523 DUP5 PUSH2 0x787 JUMP JUMPDEST PUSH2 0x756 JUMP JUMPDEST SWAP1 POP DUP3 DUP2 MSTORE PUSH1 0x20 DUP2 ADD DUP5 DUP5 DUP5 ADD GT ISZERO PUSH2 0x540 JUMPI PUSH1 0x0 DUP1 REVERT JUMPDEST PUSH2 0x54B DUP5 DUP3 DUP6 PUSH2 0x816 JUMP JUMPDEST POP SWAP4 SWAP3 POP POP POP JUMP JUMPDEST PUSH1 0x0 DUP3 PUSH1 0x1F DUP4 ADD SLT PUSH2 0x564 JUMPI PUSH1 0x0 DUP1 REVERT JUMPDEST DUP2 CALLDATALOAD PUSH2 0x574 DUP5 DUP3 PUSH1 0x20 DUP7 ADD PUSH2 0x515 JUMP JUMPDEST SWAP2 POP POP SWAP3 SWAP2 POP POP JUMP JUMPDEST PUSH1 0x0 DUP2 CALLDATALOAD SWAP1 POP PUSH2 0x58C DUP2 PUSH2 0x971 JUMP JUMPDEST SWAP3 SWAP2 POP POP JUMP JUMPDEST PUSH1 0x0 PUSH1 0x20 DUP3 DUP5 SUB SLT ISZERO PUSH2 0x5A4 JUMPI PUSH1 0x0 DUP1 REVERT JUMPDEST PUSH1 0x0 DUP3 ADD CALLDATALOAD PUSH8 0xFFFFFFFFFFFFFFFF DUP2 GT ISZERO PUSH2 0x5BE JUMPI PUSH1 0x0 DUP1 REVERT JUMPDEST PUSH2 0x5CA DUP5 DUP3 DUP6 ADD PUSH2 0x553 JUMP JUMPDEST SWAP2 POP POP SWAP3 SWAP2 POP POP JUMP JUMPDEST PUSH1 0x0 PUSH1 0x20 DUP3 DUP5 SUB SLT ISZERO PUSH2 0x5E5 JUMPI PUSH1 0x0 DUP1 REVERT JUMPDEST PUSH1 0x0 PUSH2 0x5F3 DUP5 DUP3 DUP6 ADD PUSH2 0x57D JUMP JUMPDEST SWAP2 POP POP SWAP3 SWAP2 POP POP JUMP JUMPDEST PUSH1 0x0 PUSH2 0x608 DUP4 DUP4 PUSH2 0x685 JUMP JUMPDEST SWAP1 POP SWAP3 SWAP2 POP POP JUMP JUMPDEST PUSH1 0x0 PUSH2 0x61B DUP3 PUSH2 0x7C7 JUMP JUMPDEST PUSH2 0x625 DUP2 DUP6 PUSH2 0x7EA JUMP JUMPDEST SWAP4 POP DUP4 PUSH1 0x20 DUP3 MUL DUP6 ADD PUSH2 0x637 DUP6 PUSH2 0x7B7 JUMP JUMPDEST DUP1 PUSH1 0x0 JUMPDEST DUP6 DUP2 LT ISZERO PUSH2 0x673 JUMPI DUP5 DUP5 SUB DUP10 MSTORE DUP2 MLOAD PUSH2 0x654 DUP6 DUP3 PUSH2 0x5FC JUMP JUMPDEST SWAP5 POP PUSH2 0x65F DUP4 PUSH2 0x7DD JUMP JUMPDEST SWAP3 POP PUSH1 0x20 DUP11 ADD SWAP10 POP POP PUSH1 0x1 DUP2 ADD SWAP1 POP PUSH2 0x63B JUMP JUMPDEST POP DUP3 SWAP8 POP DUP8 SWAP6 POP POP POP POP POP POP SWAP3 SWAP2 POP POP JUMP JUMPDEST PUSH1 0x0 PUSH2 0x690 DUP3 PUSH2 0x7D2 JUMP JUMPDEST PUSH2 0x69A DUP2 DUP6 PUSH2 0x7FB JUMP JUMPDEST SWAP4 POP PUSH2 0x6AA DUP2 DUP6 PUSH1 0x20 DUP7 ADD PUSH2 0x825 JUMP JUMPDEST PUSH2 0x6B3 DUP2 PUSH2 0x960 JUMP JUMPDEST DUP5 ADD SWAP2 POP POP SWAP3 SWAP2 POP POP JUMP JUMPDEST PUSH1 0x0 PUSH1 0x40 DUP4 ADD PUSH1 0x0 DUP4 ADD MLOAD PUSH2 0x6D6 PUSH1 0x0 DUP7 ADD DUP3 PUSH2 0x6FB JUMP JUMPDEST POP PUSH1 0x20 DUP4 ADD MLOAD DUP5 DUP3 SUB PUSH1 0x20 DUP7 ADD MSTORE PUSH2 0x6EE DUP3 DUP3 PUSH2 0x610 JUMP JUMPDEST SWAP2 POP POP DUP1 SWAP2 POP POP SWAP3 SWAP2 POP POP JUMP JUMPDEST PUSH2 0x704 DUP2 PUSH2 0x80C JUMP JUMPDEST DUP3 MSTORE POP POP JUMP JUMPDEST PUSH2 0x713 DUP2 PUSH2 0x80C JUMP JUMPDEST DUP3 MSTORE POP POP JUMP JUMPDEST PUSH1 0x0 PUSH1 0x20 DUP3 ADD SWAP1 POP DUP2 DUP2 SUB PUSH1 0x0 DUP4 ADD MSTORE PUSH2 0x733 DUP2 DUP5 PUSH2 0x6BE JUMP JUMPDEST SWAP1 POP SWAP3 SWAP2 POP POP JUMP JUMPDEST PUSH1 0x0 PUSH1 0x20 DUP3 ADD SWAP1 POP PUSH2 0x750 PUSH1 0x0 DUP4 ADD DUP5 PUSH2 0x70A JUMP JUMPDEST SWAP3 SWAP2 POP POP JUMP JUMPDEST PUSH1 0x0 PUSH1 0x40 MLOAD SWAP1 POP DUP2 DUP2 ADD DUP2 DUP2 LT PUSH8 0xFFFFFFFFFFFFFFFF DUP3 GT OR ISZERO PUSH2 0x77D JUMPI PUSH2 0x77C PUSH2 0x931 JUMP JUMPDEST JUMPDEST DUP1 PUSH1 0x40 MSTORE POP SWAP2 SWAP1 POP JUMP JUMPDEST PUSH1 0x0 PUSH8 0xFFFFFFFFFFFFFFFF DUP3 GT ISZERO PUSH2 0x7A2 JUMPI PUSH2 0x7A1 PUSH2 0x931 JUMP JUMPDEST JUMPDEST PUSH1 0x1F NOT PUSH1 0x1F DUP4 ADD AND SWAP1 POP PUSH1 0x20 DUP2 ADD SWAP1 POP SWAP2 SWAP1 POP JUMP JUMPDEST PUSH1 0x0 DUP2 SWAP1 POP PUSH1 0x20 DUP3 ADD SWAP1 POP SWAP2 SWAP1 POP JUMP JUMPDEST PUSH1 0x0 DUP2 MLOAD SWAP1 POP SWAP2 SWAP1 POP JUMP JUMPDEST PUSH1 0x0 DUP2 MLOAD SWAP1 POP SWAP2 SWAP1 POP JUMP JUMPDEST PUSH1 0x0 PUSH1 0x20 DUP3 ADD SWAP1 POP SWAP2 SWAP1 POP JUMP JUMPDEST PUSH1 0x0 DUP3 DUP3 MSTORE PUSH1 0x20 DUP3 ADD SWAP1 POP SWAP3 SWAP2 POP POP JUMP JUMPDEST PUSH1 0x0 DUP3 DUP3 MSTORE PUSH1 0x20 DUP3 ADD SWAP1 POP SWAP3 SWAP2 POP POP JUMP JUMPDEST PUSH1 0x0 DUP2 SWAP1 POP SWAP2 SWAP1 POP JUMP JUMPDEST DUP3 DUP2 DUP4 CALLDATACOPY PUSH1 0x0 DUP4 DUP4 ADD MSTORE POP POP POP JUMP JUMPDEST PUSH1 0x0 JUMPDEST DUP4 DUP2 LT ISZERO PUSH2 0x843 JUMPI DUP1 DUP3 ADD MLOAD DUP2 DUP5 ADD MSTORE PUSH1 0x20 DUP2 ADD SWAP1 POP PUSH2 0x828 JUMP JUMPDEST DUP4 DUP2 GT ISZERO PUSH2 0x852 JUMPI PUSH1 0x0 DUP5 DUP5 ADD MSTORE JUMPDEST POP POP POP POP JUMP JUMPDEST PUSH1 0x0 PUSH1 0x2 DUP3 DIV SWAP1 POP PUSH1 0x1 DUP3 AND DUP1 PUSH2 0x870 JUMPI PUSH1 0x7F DUP3 AND SWAP2 POP JUMPDEST PUSH1 0x20 DUP3 LT DUP2 EQ ISZERO PUSH2 0x884 JUMPI PUSH2 0x883 PUSH2 0x902 JUMP JUMPDEST JUMPDEST POP SWAP2 SWAP1 POP JUMP JUMPDEST PUSH1 0x0 PUSH2 0x895 DUP3 PUSH2 0x80C JUMP JUMPDEST SWAP2 POP PUSH32 0xFFFFFFFFFFFFFFFFFFFFFFFFFFFFFFFFFFFFFFFFFFFFFFFFFFFFFFFFFFFFFFFF DUP3 EQ ISZERO PUSH2 0x8C8 JUMPI PUSH2 0x8C7 PUSH2 0x8D3 JUMP JUMPDEST JUMPDEST PUSH1 0x1 DUP3 ADD SWAP1 POP SWAP2 SWAP1 POP JUMP JUMPDEST PUSH32 0x4E487B7100000000000000000000000000000000000000000000000000000000 PUSH1 0x0 MSTORE PUSH1 0x11 PUSH1 0x4 MSTORE PUSH1 0x24 PUSH1 0x0 REVERT JUMPDEST PUSH32 0x4E487B7100000000000000000000000000000000000000000000000000000000 PUSH1 0x0 MSTORE PUSH1 0x22 PUSH1 0x4 MSTORE PUSH1 0x24 PUSH1 0x0 REVERT JUMPDEST PUSH32 0x4E487B7100000000000000000000000000000000000000000000000000000000 PUSH1 0x0 MSTORE PUSH1 0x41 PUSH1 0x4 MSTORE PUSH1 0x24 PUSH1 0x0 REVERT JUMPDEST PUSH1 0x0 PUSH1 0x1F NOT PUSH1 0x1F DUP4 ADD AND SWAP1 POP SWAP2 SWAP1 POP JUMP JUMPDEST PUSH2 0x97A DUP2 PUSH2 0x80C JUMP JUMPDEST DUP2 EQ PUSH2 0x985 JUMPI PUSH1 0x0 DUP1 REVERT JUMPDEST POP JUMP INVALID LOG2 PUSH5 0x6970667358 0x22 SLT KECCAK256 0xBE SWAP5 SWAP9 DUP4 GT 0xBB MUL SWAP16 0xC6 DUP9 DUP1 0xD7 NOT 0xF9 0x28 PUSH12 0x5C3FA396DCA4A1EEBC7460D1 EXTCODESIZE 0xEE PUSH20 0x5964736F6C634300080000330000000000000000 "
				},
				"gasEstimates": {
					"creation": {
						"codeDepositCost": "498800",
						"executionCost": "530",
						"totalCost": "499330"
					},
					"external": {
						"createRoom(string)": "infinite",
						"getOptionStructure(uint256)": "infinite",
						"optionCount()": "1151"
					}
				},
				"methodIdentifiers": {
					"createRoom(string)": "7306d2dd",
					"getOptionStructure(uint256)": "a92f01e7",
					"optionCount()": "e32fe90b"
				}
			},
			"storageLayout": {
				"storage": [
					{
						"astId": 12,
						"contract": "contracts/shit.sol:StructArrayInitWrong",
						"label": "options",
						"offset": 0,
						"slot": "0",
						"type": "t_array(t_struct(Option)8_storage)dyn_storage"
					},
					{
						"astId": 15,
						"contract": "contracts/shit.sol:StructArrayInitWrong",
						"label": "nms",
						"offset": 0,
						"slot": "1",
						"type": "t_array(t_string_storage)dyn_storage"
					},
					{
						"astId": 18,
						"contract": "contracts/shit.sol:StructArrayInitWrong",
						"label": "adr",
						"offset": 0,
						"slot": "2",
						"type": "t_array(t_address)dyn_storage"
					},
					{
						"astId": 20,
						"contract": "contracts/shit.sol:StructArrayInitWrong",
						"label": "optionCount",
						"offset": 0,
						"slot": "3",
						"type": "t_uint256"
					}
				],
				"types": {
					"t_address": {
						"encoding": "inplace",
						"label": "address",
						"numberOfBytes": "20"
					},
					"t_array(t_address)dyn_storage": {
						"base": "t_address",
						"encoding": "dynamic_array",
						"label": "address[]",
						"numberOfBytes": "32"
					},
					"t_array(t_string_storage)dyn_storage": {
						"base": "t_string_storage",
						"encoding": "dynamic_array",
						"label": "string[]",
						"numberOfBytes": "32"
					},
					"t_array(t_struct(Option)8_storage)dyn_storage": {
						"base": "t_struct(Option)8_storage",
						"encoding": "dynamic_array",
						"label": "struct StructArrayInitWrong.Option[]",
						"numberOfBytes": "32"
					},
					"t_string_storage": {
						"encoding": "bytes",
						"label": "string",
						"numberOfBytes": "32"
					},
					"t_struct(Option)8_storage": {
						"encoding": "inplace",
						"label": "struct StructArrayInitWrong.Option",
						"members": [
							{
								"astId": 4,
								"contract": "contracts/shit.sol:StructArrayInitWrong",
								"label": "id",
								"offset": 0,
								"slot": "0",
								"type": "t_uint256"
							},
							{
								"astId": 7,
								"contract": "contracts/shit.sol:StructArrayInitWrong",
								"label": "name",
								"offset": 0,
								"slot": "1",
								"type": "t_array(t_string_storage)dyn_storage"
							}
						],
						"numberOfBytes": "64"
					},
					"t_uint256": {
						"encoding": "inplace",
						"label": "uint256",
						"numberOfBytes": "32"
					}
				}
			},
			"userdoc": {
				"kind": "user",
				"methods": {},
				"version": 1
			}
		}
	}
}