{
	"contracts/prop_test.sol": {
		"Ballot": {
			"abi": [
				{
					"inputs": [],
					"name": "chairperson",
					"outputs": [
						{
							"internalType": "address",
							"name": "",
							"type": "address"
						}
					],
					"stateMutability": "view",
					"type": "function"
				},
				{
					"inputs": [
						{
							"internalType": "bytes32[]",
							"name": "proposalNames",
							"type": "bytes32[]"
						}
					],
					"name": "createBallot",
					"outputs": [],
					"stateMutability": "nonpayable",
					"type": "function"
				},
				{
					"inputs": [
						{
							"internalType": "address",
							"name": "voter",
							"type": "address"
						}
					],
					"name": "giveRightToVote",
					"outputs": [],
					"stateMutability": "nonpayable",
					"type": "function"
				},
				{
					"inputs": [
						{
							"internalType": "uint256",
							"name": "",
							"type": "uint256"
						}
					],
					"name": "proposals",
					"outputs": [
						{
							"internalType": "bytes32",
							"name": "name",
							"type": "bytes32"
						},
						{
							"internalType": "uint256",
							"name": "voteCount",
							"type": "uint256"
						}
					],
					"stateMutability": "view",
					"type": "function"
				},
				{
					"inputs": [
						{
							"internalType": "address",
							"name": "",
							"type": "address"
						}
					],
					"name": "voters",
					"outputs": [
						{
							"internalType": "uint256",
							"name": "weight",
							"type": "uint256"
						},
						{
							"internalType": "bool",
							"name": "voted",
							"type": "bool"
						},
						{
							"internalType": "address",
							"name": "delegate",
							"type": "address"
						},
						{
							"internalType": "uint256",
							"name": "vote",
							"type": "uint256"
						}
					],
					"stateMutability": "view",
					"type": "function"
				}
			],
			"devdoc": {
				"kind": "dev",
				"methods": {},
				"version": 1
			},
			"evm": {
				"assembly": "    /* \"contracts/prop_test.sol\":60:2051  contract Ballot {\r... */\n  mstore(0x40, 0x80)\n  callvalue\n  dup1\n  iszero\n  tag_1\n  jumpi\n  0x00\n  dup1\n  revert\ntag_1:\n  pop\n  dataSize(sub_0)\n  dup1\n  dataOffset(sub_0)\n  0x00\n  codecopy\n  0x00\n  return\nstop\n\nsub_0: assembly {\n        /* \"contracts/prop_test.sol\":60:2051  contract Ballot {\r... */\n      mstore(0x40, 0x80)\n      callvalue\n      dup1\n      iszero\n      tag_1\n      jumpi\n      0x00\n      dup1\n      revert\n    tag_1:\n      pop\n      jumpi(tag_2, lt(calldatasize, 0x04))\n      shr(0xe0, calldataload(0x00))\n      dup1\n      0x013cf08b\n      eq\n      tag_3\n      jumpi\n      dup1\n      0x2e4176cf\n      eq\n      tag_4\n      jumpi\n      dup1\n      0x9e7b8d61\n      eq\n      tag_5\n      jumpi\n      dup1\n      0xa3ec138d\n      eq\n      tag_6\n      jumpi\n      dup1\n      0xe35c9384\n      eq\n      tag_7\n      jumpi\n    tag_2:\n      0x00\n      dup1\n      revert\n        /* \"contracts/prop_test.sol\":769:796  Proposal[] public proposals */\n    tag_3:\n      tag_8\n      0x04\n      dup1\n      calldatasize\n      sub\n      dup2\n      add\n      swap1\n      tag_9\n      swap2\n      swap1\n      tag_10\n      jump\t// in\n    tag_9:\n      tag_11\n      jump\t// in\n    tag_8:\n      mload(0x40)\n      tag_12\n      swap3\n      swap2\n      swap1\n      tag_13\n      jump\t// in\n    tag_12:\n      mload(0x40)\n      dup1\n      swap2\n      sub\n      swap1\n      return\n        /* \"contracts/prop_test.sol\":526:552  address public chairperson */\n    tag_4:\n      tag_14\n      tag_15\n      jump\t// in\n    tag_14:\n      mload(0x40)\n      tag_16\n      swap2\n      swap1\n      tag_17\n      jump\t// in\n    tag_16:\n      mload(0x40)\n      dup1\n      swap2\n      sub\n      swap1\n      return\n        /* \"contracts/prop_test.sol\":1466:2048  function giveRightToVote(address voter) public {\r... */\n    tag_5:\n      tag_18\n      0x04\n      dup1\n      calldatasize\n      sub\n      dup2\n      add\n      swap1\n      tag_19\n      swap2\n      swap1\n      tag_20\n      jump\t// in\n    tag_19:\n      tag_21\n      jump\t// in\n    tag_18:\n      stop\n        /* \"contracts/prop_test.sol\":664:703  mapping(address => Voter) public voters */\n    tag_6:\n      tag_22\n      0x04\n      dup1\n      calldatasize\n      sub\n      dup2\n      add\n      swap1\n      tag_23\n      swap2\n      swap1\n      tag_20\n      jump\t// in\n    tag_23:\n      tag_24\n      jump\t// in\n    tag_22:\n      mload(0x40)\n      tag_25\n      swap5\n      swap4\n      swap3\n      swap2\n      swap1\n      tag_26\n      jump\t// in\n    tag_25:\n      mload(0x40)\n      dup1\n      swap2\n      sub\n      swap1\n      return\n        /* \"contracts/prop_test.sol\":805:1458  function createBallot(bytes32[] memory proposalNames) public {\r... */\n    tag_7:\n      tag_27\n      0x04\n      dup1\n      calldatasize\n      sub\n      dup2\n      add\n      swap1\n      tag_28\n      swap2\n      swap1\n      tag_29\n      jump\t// in\n    tag_28:\n      tag_30\n      jump\t// in\n    tag_27:\n      stop\n        /* \"contracts/prop_test.sol\":769:796  Proposal[] public proposals */\n    tag_11:\n      0x02\n      dup2\n      dup2\n      sload\n      dup2\n      lt\n      tag_31\n      jumpi\n      0x00\n      dup1\n      revert\n    tag_31:\n      swap1\n      0x00\n      mstore\n      keccak256(0x00, 0x20)\n      swap1\n      0x02\n      mul\n      add\n      0x00\n      swap2\n      pop\n      swap1\n      pop\n      dup1\n      0x00\n      add\n      sload\n      swap1\n      dup1\n      0x01\n      add\n      sload\n      swap1\n      pop\n      dup3\n      jump\t// out\n        /* \"contracts/prop_test.sol\":526:552  address public chairperson */\n    tag_15:\n      0x00\n      dup1\n      sload\n      swap1\n      0x0100\n      exp\n      swap1\n      div\n      0xffffffffffffffffffffffffffffffffffffffff\n      and\n      dup2\n      jump\t// out\n        /* \"contracts/prop_test.sol\":1466:2048  function giveRightToVote(address voter) public {\r... */\n    tag_21:\n        /* \"contracts/prop_test.sol\":1937:1948  chairperson */\n      0x00\n      dup1\n      sload\n      swap1\n      0x0100\n      exp\n      swap1\n      div\n      0xffffffffffffffffffffffffffffffffffffffff\n      and\n        /* \"contracts/prop_test.sol\":1923:1948  msg.sender == chairperson */\n      0xffffffffffffffffffffffffffffffffffffffff\n      and\n        /* \"contracts/prop_test.sol\":1923:1933  msg.sender */\n      caller\n        /* \"contracts/prop_test.sol\":1923:1948  msg.sender == chairperson */\n      0xffffffffffffffffffffffffffffffffffffffff\n      and\n      eq\n        /* \"contracts/prop_test.sol\":1922:1973  (msg.sender == chairperson) && !voters[voter].voted */\n      dup1\n      iszero\n      tag_34\n      jumpi\n      pop\n        /* \"contracts/prop_test.sol\":1954:1960  voters */\n      0x01\n        /* \"contracts/prop_test.sol\":1954:1967  voters[voter] */\n      0x00\n        /* \"contracts/prop_test.sol\":1961:1966  voter */\n      dup3\n        /* \"contracts/prop_test.sol\":1954:1967  voters[voter] */\n      0xffffffffffffffffffffffffffffffffffffffff\n      and\n      0xffffffffffffffffffffffffffffffffffffffff\n      and\n      dup2\n      mstore\n      0x20\n      add\n      swap1\n      dup2\n      mstore\n      0x20\n      add\n      0x00\n      keccak256\n        /* \"contracts/prop_test.sol\":1954:1973  voters[voter].voted */\n      0x01\n      add\n      0x00\n      swap1\n      sload\n      swap1\n      0x0100\n      exp\n      swap1\n      div\n      0xff\n      and\n        /* \"contracts/prop_test.sol\":1953:1973  !voters[voter].voted */\n      iszero\n        /* \"contracts/prop_test.sol\":1922:1973  (msg.sender == chairperson) && !voters[voter].voted */\n    tag_34:\n        /* \"contracts/prop_test.sol\":1922:2004  (msg.sender == chairperson) && !voters[voter].voted && (voters[voter].weight == 0) */\n      dup1\n      iszero\n      tag_35\n      jumpi\n      pop\n        /* \"contracts/prop_test.sol\":2002:2003  0 */\n      0x00\n        /* \"contracts/prop_test.sol\":1978:1984  voters */\n      0x01\n        /* \"contracts/prop_test.sol\":1978:1991  voters[voter] */\n      0x00\n        /* \"contracts/prop_test.sol\":1985:1990  voter */\n      dup4\n        /* \"contracts/prop_test.sol\":1978:1991  voters[voter] */\n      0xffffffffffffffffffffffffffffffffffffffff\n      and\n      0xffffffffffffffffffffffffffffffffffffffff\n      and\n      dup2\n      mstore\n      0x20\n      add\n      swap1\n      dup2\n      mstore\n      0x20\n      add\n      0x00\n      keccak256\n        /* \"contracts/prop_test.sol\":1978:1998  voters[voter].weight */\n      0x00\n      add\n      sload\n        /* \"contracts/prop_test.sol\":1978:2003  voters[voter].weight == 0 */\n      eq\n        /* \"contracts/prop_test.sol\":1922:2004  (msg.sender == chairperson) && !voters[voter].voted && (voters[voter].weight == 0) */\n    tag_35:\n        /* \"contracts/prop_test.sol\":1914:2005  require((msg.sender == chairperson) && !voters[voter].voted && (voters[voter].weight == 0)) */\n      tag_36\n      jumpi\n      0x00\n      dup1\n      revert\n    tag_36:\n        /* \"contracts/prop_test.sol\":2039:2040  1 */\n      0x01\n        /* \"contracts/prop_test.sol\":2016:2022  voters */\n      dup1\n        /* \"contracts/prop_test.sol\":2016:2029  voters[voter] */\n      0x00\n        /* \"contracts/prop_test.sol\":2023:2028  voter */\n      dup4\n        /* \"contracts/prop_test.sol\":2016:2029  voters[voter] */\n      0xffffffffffffffffffffffffffffffffffffffff\n      and\n      0xffffffffffffffffffffffffffffffffffffffff\n      and\n      dup2\n      mstore\n      0x20\n      add\n      swap1\n      dup2\n      mstore\n      0x20\n      add\n      0x00\n      keccak256\n        /* \"contracts/prop_test.sol\":2016:2036  voters[voter].weight */\n      0x00\n      add\n        /* \"contracts/prop_test.sol\":2016:2040  voters[voter].weight = 1 */\n      dup2\n      swap1\n      sstore\n      pop\n        /* \"contracts/prop_test.sol\":1466:2048  function giveRightToVote(address voter) public {\r... */\n      pop\n      jump\t// out\n        /* \"contracts/prop_test.sol\":664:703  mapping(address => Voter) public voters */\n    tag_24:\n      mstore(0x20, 0x01)\n      dup1\n      0x00\n      mstore\n      keccak256(0x00, 0x40)\n      0x00\n      swap2\n      pop\n      swap1\n      pop\n      dup1\n      0x00\n      add\n      sload\n      swap1\n      dup1\n      0x01\n      add\n      0x00\n      swap1\n      sload\n      swap1\n      0x0100\n      exp\n      swap1\n      div\n      0xff\n      and\n      swap1\n      dup1\n      0x01\n      add\n      0x01\n      swap1\n      sload\n      swap1\n      0x0100\n      exp\n      swap1\n      div\n      0xffffffffffffffffffffffffffffffffffffffff\n      and\n      swap1\n      dup1\n      0x02\n      add\n      sload\n      swap1\n      pop\n      dup5\n      jump\t// out\n        /* \"contracts/prop_test.sol\":805:1458  function createBallot(bytes32[] memory proposalNames) public {\r... */\n    tag_30:\n        /* \"contracts/prop_test.sol\":891:901  msg.sender */\n      caller\n        /* \"contracts/prop_test.sol\":877:888  chairperson */\n      0x00\n      dup1\n        /* \"contracts/prop_test.sol\":877:901  chairperson = msg.sender */\n      0x0100\n      exp\n      dup2\n      sload\n      dup2\n      0xffffffffffffffffffffffffffffffffffffffff\n      mul\n      not\n      and\n      swap1\n      dup4\n      0xffffffffffffffffffffffffffffffffffffffff\n      and\n      mul\n      or\n      swap1\n      sstore\n      pop\n        /* \"contracts/prop_test.sol\":941:942  1 */\n      0x01\n        /* \"contracts/prop_test.sol\":912:918  voters */\n      dup1\n        /* \"contracts/prop_test.sol\":912:931  voters[chairperson] */\n      0x00\n        /* \"contracts/prop_test.sol\":919:930  chairperson */\n      dup1\n      0x00\n      swap1\n      sload\n      swap1\n      0x0100\n      exp\n      swap1\n      div\n      0xffffffffffffffffffffffffffffffffffffffff\n      and\n        /* \"contracts/prop_test.sol\":912:931  voters[chairperson] */\n      0xffffffffffffffffffffffffffffffffffffffff\n      and\n      0xffffffffffffffffffffffffffffffffffffffff\n      and\n      dup2\n      mstore\n      0x20\n      add\n      swap1\n      dup2\n      mstore\n      0x20\n      add\n      0x00\n      keccak256\n        /* \"contracts/prop_test.sol\":912:938  voters[chairperson].weight */\n      0x00\n      add\n        /* \"contracts/prop_test.sol\":912:942  voters[chairperson].weight = 1 */\n      dup2\n      swap1\n      sstore\n      pop\n        /* \"contracts/prop_test.sol\":1102:1108  uint i */\n      0x00\n        /* \"contracts/prop_test.sol\":1097:1451  for (uint i = 0; i < proposalNames.length; i++) {\r... */\n    tag_38:\n        /* \"contracts/prop_test.sol\":1118:1131  proposalNames */\n      dup2\n        /* \"contracts/prop_test.sol\":1118:1138  proposalNames.length */\n      mload\n        /* \"contracts/prop_test.sol\":1114:1115  i */\n      dup2\n        /* \"contracts/prop_test.sol\":1114:1138  i < proposalNames.length */\n      lt\n        /* \"contracts/prop_test.sol\":1097:1451  for (uint i = 0; i < proposalNames.length; i++) {\r... */\n      iszero\n      tag_39\n      jumpi\n        /* \"contracts/prop_test.sol\":1326:1335  proposals */\n      0x02\n        /* \"contracts/prop_test.sol\":1341:1438  Proposal({\r... */\n      mload(0x40)\n      dup1\n      0x40\n      add\n      0x40\n      mstore\n      dup1\n        /* \"contracts/prop_test.sol\":1375:1388  proposalNames */\n      dup5\n        /* \"contracts/prop_test.sol\":1389:1390  i */\n      dup5\n        /* \"contracts/prop_test.sol\":1375:1391  proposalNames[i] */\n      dup2\n      mload\n      dup2\n      lt\n      tag_41\n      jumpi\n      mstore(0x00, 0x4e487b7100000000000000000000000000000000000000000000000000000000)\n      mstore(0x04, 0x32)\n      revert(0x00, 0x24)\n    tag_41:\n      0x20\n      mul\n      0x20\n      add\n      add\n      mload\n        /* \"contracts/prop_test.sol\":1341:1438  Proposal({\r... */\n      dup2\n      mstore\n      0x20\n      add\n        /* \"contracts/prop_test.sol\":1421:1422  0 */\n      0x00\n        /* \"contracts/prop_test.sol\":1341:1438  Proposal({\r... */\n      dup2\n      mstore\n      pop\n        /* \"contracts/prop_test.sol\":1326:1439  proposals.push(Proposal({\r... */\n      swap1\n      dup1\n      0x01\n      dup2\n      sload\n      add\n      dup1\n      dup3\n      sstore\n      dup1\n      swap2\n      pop\n      pop\n      0x01\n      swap1\n      sub\n      swap1\n      0x00\n      mstore\n      keccak256(0x00, 0x20)\n      swap1\n      0x02\n      mul\n      add\n      0x00\n      swap1\n      swap2\n      swap1\n      swap2\n      swap1\n      swap2\n      pop\n      0x00\n      dup3\n      add\n      mload\n      dup2\n      0x00\n      add\n      sstore\n      0x20\n      dup3\n      add\n      mload\n      dup2\n      0x01\n      add\n      sstore\n      pop\n      pop\n        /* \"contracts/prop_test.sol\":1140:1143  i++ */\n      dup1\n      dup1\n      tag_43\n      swap1\n      tag_44\n      jump\t// in\n    tag_43:\n      swap2\n      pop\n      pop\n        /* \"contracts/prop_test.sol\":1097:1451  for (uint i = 0; i < proposalNames.length; i++) {\r... */\n      jump(tag_38)\n    tag_39:\n      pop\n        /* \"contracts/prop_test.sol\":805:1458  function createBallot(bytes32[] memory proposalNames) public {\r... */\n      pop\n      jump\t// out\n        /* \"#utility.yul\":24:646   */\n    tag_46:\n      0x00\n        /* \"#utility.yul\":145:225   */\n      tag_48\n        /* \"#utility.yul\":160:224   */\n      tag_49\n        /* \"#utility.yul\":217:223   */\n      dup5\n        /* \"#utility.yul\":160:224   */\n      tag_50\n      jump\t// in\n    tag_49:\n        /* \"#utility.yul\":145:225   */\n      tag_51\n      jump\t// in\n    tag_48:\n        /* \"#utility.yul\":136:225   */\n      swap1\n      pop\n        /* \"#utility.yul\":245:250   */\n      dup1\n        /* \"#utility.yul\":273:279   */\n      dup4\n        /* \"#utility.yul\":266:271   */\n      dup3\n        /* \"#utility.yul\":259:280   */\n      mstore\n        /* \"#utility.yul\":299:303   */\n      0x20\n        /* \"#utility.yul\":292:297   */\n      dup3\n        /* \"#utility.yul\":288:304   */\n      add\n        /* \"#utility.yul\":281:304   */\n      swap1\n      pop\n        /* \"#utility.yul\":324:330   */\n      dup3\n        /* \"#utility.yul\":374:377   */\n      dup6\n        /* \"#utility.yul\":366:370   */\n      0x20\n        /* \"#utility.yul\":358:364   */\n      dup7\n        /* \"#utility.yul\":354:371   */\n      mul\n        /* \"#utility.yul\":349:352   */\n      dup3\n        /* \"#utility.yul\":345:372   */\n      add\n        /* \"#utility.yul\":342:378   */\n      gt\n        /* \"#utility.yul\":339:341   */\n      iszero\n      tag_52\n      jumpi\n        /* \"#utility.yul\":391:392   */\n      0x00\n        /* \"#utility.yul\":388:389   */\n      dup1\n        /* \"#utility.yul\":381:393   */\n      revert\n        /* \"#utility.yul\":339:341   */\n    tag_52:\n        /* \"#utility.yul\":419:420   */\n      0x00\n        /* \"#utility.yul\":404:640   */\n    tag_53:\n        /* \"#utility.yul\":429:435   */\n      dup6\n        /* \"#utility.yul\":426:427   */\n      dup2\n        /* \"#utility.yul\":423:436   */\n      lt\n        /* \"#utility.yul\":404:640   */\n      iszero\n      tag_55\n      jumpi\n        /* \"#utility.yul\":496:499   */\n      dup2\n        /* \"#utility.yul\":524:561   */\n      tag_56\n        /* \"#utility.yul\":557:560   */\n      dup9\n        /* \"#utility.yul\":545:555   */\n      dup3\n        /* \"#utility.yul\":524:561   */\n      tag_57\n      jump\t// in\n    tag_56:\n        /* \"#utility.yul\":519:522   */\n      dup5\n        /* \"#utility.yul\":512:562   */\n      mstore\n        /* \"#utility.yul\":591:595   */\n      0x20\n        /* \"#utility.yul\":586:589   */\n      dup5\n        /* \"#utility.yul\":582:596   */\n      add\n        /* \"#utility.yul\":575:596   */\n      swap4\n      pop\n        /* \"#utility.yul\":625:629   */\n      0x20\n        /* \"#utility.yul\":620:623   */\n      dup4\n        /* \"#utility.yul\":616:630   */\n      add\n        /* \"#utility.yul\":609:630   */\n      swap3\n      pop\n        /* \"#utility.yul\":464:640   */\n      pop\n        /* \"#utility.yul\":451:452   */\n      0x01\n        /* \"#utility.yul\":448:449   */\n      dup2\n        /* \"#utility.yul\":444:453   */\n      add\n        /* \"#utility.yul\":439:453   */\n      swap1\n      pop\n        /* \"#utility.yul\":404:640   */\n      jump(tag_53)\n    tag_55:\n        /* \"#utility.yul\":408:422   */\n      pop\n        /* \"#utility.yul\":126:646   */\n      pop\n      pop\n      swap4\n      swap3\n      pop\n      pop\n      pop\n      jump\t// out\n        /* \"#utility.yul\":652:791   */\n    tag_58:\n      0x00\n        /* \"#utility.yul\":736:742   */\n      dup2\n        /* \"#utility.yul\":723:743   */\n      calldataload\n        /* \"#utility.yul\":714:743   */\n      swap1\n      pop\n        /* \"#utility.yul\":752:785   */\n      tag_60\n        /* \"#utility.yul\":779:784   */\n      dup2\n        /* \"#utility.yul\":752:785   */\n      tag_61\n      jump\t// in\n    tag_60:\n        /* \"#utility.yul\":704:791   */\n      swap3\n      swap2\n      pop\n      pop\n      jump\t// out\n        /* \"#utility.yul\":814:1117   */\n    tag_62:\n      0x00\n        /* \"#utility.yul\":934:937   */\n      dup3\n        /* \"#utility.yul\":927:931   */\n      0x1f\n        /* \"#utility.yul\":919:925   */\n      dup4\n        /* \"#utility.yul\":915:932   */\n      add\n        /* \"#utility.yul\":911:938   */\n      slt\n        /* \"#utility.yul\":901:903   */\n      tag_64\n      jumpi\n        /* \"#utility.yul\":952:953   */\n      0x00\n        /* \"#utility.yul\":949:950   */\n      dup1\n        /* \"#utility.yul\":942:954   */\n      revert\n        /* \"#utility.yul\":901:903   */\n    tag_64:\n        /* \"#utility.yul\":992:998   */\n      dup2\n        /* \"#utility.yul\":979:999   */\n      calldataload\n        /* \"#utility.yul\":1017:1111   */\n      tag_65\n        /* \"#utility.yul\":1107:1110   */\n      dup5\n        /* \"#utility.yul\":1099:1105   */\n      dup3\n        /* \"#utility.yul\":1092:1096   */\n      0x20\n        /* \"#utility.yul\":1084:1090   */\n      dup7\n        /* \"#utility.yul\":1080:1097   */\n      add\n        /* \"#utility.yul\":1017:1111   */\n      tag_46\n      jump\t// in\n    tag_65:\n        /* \"#utility.yul\":1008:1111   */\n      swap2\n      pop\n        /* \"#utility.yul\":891:1117   */\n      pop\n      swap3\n      swap2\n      pop\n      pop\n      jump\t// out\n        /* \"#utility.yul\":1123:1262   */\n    tag_57:\n      0x00\n        /* \"#utility.yul\":1207:1213   */\n      dup2\n        /* \"#utility.yul\":1194:1214   */\n      calldataload\n        /* \"#utility.yul\":1185:1214   */\n      swap1\n      pop\n        /* \"#utility.yul\":1223:1256   */\n      tag_67\n        /* \"#utility.yul\":1250:1255   */\n      dup2\n        /* \"#utility.yul\":1223:1256   */\n      tag_68\n      jump\t// in\n    tag_67:\n        /* \"#utility.yul\":1175:1262   */\n      swap3\n      swap2\n      pop\n      pop\n      jump\t// out\n        /* \"#utility.yul\":1268:1407   */\n    tag_69:\n      0x00\n        /* \"#utility.yul\":1352:1358   */\n      dup2\n        /* \"#utility.yul\":1339:1359   */\n      calldataload\n        /* \"#utility.yul\":1330:1359   */\n      swap1\n      pop\n        /* \"#utility.yul\":1368:1401   */\n      tag_71\n        /* \"#utility.yul\":1395:1400   */\n      dup2\n        /* \"#utility.yul\":1368:1401   */\n      tag_72\n      jump\t// in\n    tag_71:\n        /* \"#utility.yul\":1320:1407   */\n      swap3\n      swap2\n      pop\n      pop\n      jump\t// out\n        /* \"#utility.yul\":1413:1675   */\n    tag_20:\n      0x00\n        /* \"#utility.yul\":1521:1523   */\n      0x20\n        /* \"#utility.yul\":1509:1518   */\n      dup3\n        /* \"#utility.yul\":1500:1507   */\n      dup5\n        /* \"#utility.yul\":1496:1519   */\n      sub\n        /* \"#utility.yul\":1492:1524   */\n      slt\n        /* \"#utility.yul\":1489:1491   */\n      iszero\n      tag_74\n      jumpi\n        /* \"#utility.yul\":1537:1538   */\n      0x00\n        /* \"#utility.yul\":1534:1535   */\n      dup1\n        /* \"#utility.yul\":1527:1539   */\n      revert\n        /* \"#utility.yul\":1489:1491   */\n    tag_74:\n        /* \"#utility.yul\":1580:1581   */\n      0x00\n        /* \"#utility.yul\":1605:1658   */\n      tag_75\n        /* \"#utility.yul\":1650:1657   */\n      dup5\n        /* \"#utility.yul\":1641:1647   */\n      dup3\n        /* \"#utility.yul\":1630:1639   */\n      dup6\n        /* \"#utility.yul\":1626:1648   */\n      add\n        /* \"#utility.yul\":1605:1658   */\n      tag_58\n      jump\t// in\n    tag_75:\n        /* \"#utility.yul\":1595:1658   */\n      swap2\n      pop\n        /* \"#utility.yul\":1551:1668   */\n      pop\n        /* \"#utility.yul\":1479:1675   */\n      swap3\n      swap2\n      pop\n      pop\n      jump\t// out\n        /* \"#utility.yul\":1681:2086   */\n    tag_29:\n      0x00\n        /* \"#utility.yul\":1814:1816   */\n      0x20\n        /* \"#utility.yul\":1802:1811   */\n      dup3\n        /* \"#utility.yul\":1793:1800   */\n      dup5\n        /* \"#utility.yul\":1789:1812   */\n      sub\n        /* \"#utility.yul\":1785:1817   */\n      slt\n        /* \"#utility.yul\":1782:1784   */\n      iszero\n      tag_77\n      jumpi\n        /* \"#utility.yul\":1830:1831   */\n      0x00\n        /* \"#utility.yul\":1827:1828   */\n      dup1\n        /* \"#utility.yul\":1820:1832   */\n      revert\n        /* \"#utility.yul\":1782:1784   */\n    tag_77:\n        /* \"#utility.yul\":1901:1902   */\n      0x00\n        /* \"#utility.yul\":1890:1899   */\n      dup3\n        /* \"#utility.yul\":1886:1903   */\n      add\n        /* \"#utility.yul\":1873:1904   */\n      calldataload\n        /* \"#utility.yul\":1931:1949   */\n      0xffffffffffffffff\n        /* \"#utility.yul\":1923:1929   */\n      dup2\n        /* \"#utility.yul\":1920:1950   */\n      gt\n        /* \"#utility.yul\":1917:1919   */\n      iszero\n      tag_78\n      jumpi\n        /* \"#utility.yul\":1963:1964   */\n      0x00\n        /* \"#utility.yul\":1960:1961   */\n      dup1\n        /* \"#utility.yul\":1953:1965   */\n      revert\n        /* \"#utility.yul\":1917:1919   */\n    tag_78:\n        /* \"#utility.yul\":1991:2069   */\n      tag_79\n        /* \"#utility.yul\":2061:2068   */\n      dup5\n        /* \"#utility.yul\":2052:2058   */\n      dup3\n        /* \"#utility.yul\":2041:2050   */\n      dup6\n        /* \"#utility.yul\":2037:2059   */\n      add\n        /* \"#utility.yul\":1991:2069   */\n      tag_62\n      jump\t// in\n    tag_79:\n        /* \"#utility.yul\":1981:2069   */\n      swap2\n      pop\n        /* \"#utility.yul\":1844:2079   */\n      pop\n        /* \"#utility.yul\":1772:2086   */\n      swap3\n      swap2\n      pop\n      pop\n      jump\t// out\n        /* \"#utility.yul\":2092:2354   */\n    tag_10:\n      0x00\n        /* \"#utility.yul\":2200:2202   */\n      0x20\n        /* \"#utility.yul\":2188:2197   */\n      dup3\n        /* \"#utility.yul\":2179:2186   */\n      dup5\n        /* \"#utility.yul\":2175:2198   */\n      sub\n        /* \"#utility.yul\":2171:2203   */\n      slt\n        /* \"#utility.yul\":2168:2170   */\n      iszero\n      tag_81\n      jumpi\n        /* \"#utility.yul\":2216:2217   */\n      0x00\n        /* \"#utility.yul\":2213:2214   */\n      dup1\n        /* \"#utility.yul\":2206:2218   */\n      revert\n        /* \"#utility.yul\":2168:2170   */\n    tag_81:\n        /* \"#utility.yul\":2259:2260   */\n      0x00\n        /* \"#utility.yul\":2284:2337   */\n      tag_82\n        /* \"#utility.yul\":2329:2336   */\n      dup5\n        /* \"#utility.yul\":2320:2326   */\n      dup3\n        /* \"#utility.yul\":2309:2318   */\n      dup6\n        /* \"#utility.yul\":2305:2327   */\n      add\n        /* \"#utility.yul\":2284:2337   */\n      tag_69\n      jump\t// in\n    tag_82:\n        /* \"#utility.yul\":2274:2337   */\n      swap2\n      pop\n        /* \"#utility.yul\":2230:2347   */\n      pop\n        /* \"#utility.yul\":2158:2354   */\n      swap3\n      swap2\n      pop\n      pop\n      jump\t// out\n        /* \"#utility.yul\":2360:2478   */\n    tag_83:\n        /* \"#utility.yul\":2447:2471   */\n      tag_85\n        /* \"#utility.yul\":2465:2470   */\n      dup2\n        /* \"#utility.yul\":2447:2471   */\n      tag_86\n      jump\t// in\n    tag_85:\n        /* \"#utility.yul\":2442:2445   */\n      dup3\n        /* \"#utility.yul\":2435:2472   */\n      mstore\n        /* \"#utility.yul\":2425:2478   */\n      pop\n      pop\n      jump\t// out\n        /* \"#utility.yul\":2484:2593   */\n    tag_87:\n        /* \"#utility.yul\":2565:2586   */\n      tag_89\n        /* \"#utility.yul\":2580:2585   */\n      dup2\n        /* \"#utility.yul\":2565:2586   */\n      tag_90\n      jump\t// in\n    tag_89:\n        /* \"#utility.yul\":2560:2563   */\n      dup3\n        /* \"#utility.yul\":2553:2587   */\n      mstore\n        /* \"#utility.yul\":2543:2593   */\n      pop\n      pop\n      jump\t// out\n        /* \"#utility.yul\":2599:2717   */\n    tag_91:\n        /* \"#utility.yul\":2686:2710   */\n      tag_93\n        /* \"#utility.yul\":2704:2709   */\n      dup2\n        /* \"#utility.yul\":2686:2710   */\n      tag_94\n      jump\t// in\n    tag_93:\n        /* \"#utility.yul\":2681:2684   */\n      dup3\n        /* \"#utility.yul\":2674:2711   */\n      mstore\n        /* \"#utility.yul\":2664:2717   */\n      pop\n      pop\n      jump\t// out\n        /* \"#utility.yul\":2723:2841   */\n    tag_95:\n        /* \"#utility.yul\":2810:2834   */\n      tag_97\n        /* \"#utility.yul\":2828:2833   */\n      dup2\n        /* \"#utility.yul\":2810:2834   */\n      tag_98\n      jump\t// in\n    tag_97:\n        /* \"#utility.yul\":2805:2808   */\n      dup3\n        /* \"#utility.yul\":2798:2835   */\n      mstore\n        /* \"#utility.yul\":2788:2841   */\n      pop\n      pop\n      jump\t// out\n        /* \"#utility.yul\":2847:3069   */\n    tag_17:\n      0x00\n        /* \"#utility.yul\":2978:2980   */\n      0x20\n        /* \"#utility.yul\":2967:2976   */\n      dup3\n        /* \"#utility.yul\":2963:2981   */\n      add\n        /* \"#utility.yul\":2955:2981   */\n      swap1\n      pop\n        /* \"#utility.yul\":2991:3062   */\n      tag_100\n        /* \"#utility.yul\":3059:3060   */\n      0x00\n        /* \"#utility.yul\":3048:3057   */\n      dup4\n        /* \"#utility.yul\":3044:3061   */\n      add\n        /* \"#utility.yul\":3035:3041   */\n      dup5\n        /* \"#utility.yul\":2991:3062   */\n      tag_83\n      jump\t// in\n    tag_100:\n        /* \"#utility.yul\":2945:3069   */\n      swap3\n      swap2\n      pop\n      pop\n      jump\t// out\n        /* \"#utility.yul\":3075:3407   */\n    tag_13:\n      0x00\n        /* \"#utility.yul\":3234:3236   */\n      0x40\n        /* \"#utility.yul\":3223:3232   */\n      dup3\n        /* \"#utility.yul\":3219:3237   */\n      add\n        /* \"#utility.yul\":3211:3237   */\n      swap1\n      pop\n        /* \"#utility.yul\":3247:3318   */\n      tag_102\n        /* \"#utility.yul\":3315:3316   */\n      0x00\n        /* \"#utility.yul\":3304:3313   */\n      dup4\n        /* \"#utility.yul\":3300:3317   */\n      add\n        /* \"#utility.yul\":3291:3297   */\n      dup6\n        /* \"#utility.yul\":3247:3318   */\n      tag_91\n      jump\t// in\n    tag_102:\n        /* \"#utility.yul\":3328:3400   */\n      tag_103\n        /* \"#utility.yul\":3396:3398   */\n      0x20\n        /* \"#utility.yul\":3385:3394   */\n      dup4\n        /* \"#utility.yul\":3381:3399   */\n      add\n        /* \"#utility.yul\":3372:3378   */\n      dup5\n        /* \"#utility.yul\":3328:3400   */\n      tag_95\n      jump\t// in\n    tag_103:\n        /* \"#utility.yul\":3201:3407   */\n      swap4\n      swap3\n      pop\n      pop\n      pop\n      jump\t// out\n        /* \"#utility.yul\":3413:3954   */\n    tag_26:\n      0x00\n        /* \"#utility.yul\":3622:3625   */\n      0x80\n        /* \"#utility.yul\":3611:3620   */\n      dup3\n        /* \"#utility.yul\":3607:3626   */\n      add\n        /* \"#utility.yul\":3599:3626   */\n      swap1\n      pop\n        /* \"#utility.yul\":3636:3707   */\n      tag_105\n        /* \"#utility.yul\":3704:3705   */\n      0x00\n        /* \"#utility.yul\":3693:3702   */\n      dup4\n        /* \"#utility.yul\":3689:3706   */\n      add\n        /* \"#utility.yul\":3680:3686   */\n      dup8\n        /* \"#utility.yul\":3636:3707   */\n      tag_95\n      jump\t// in\n    tag_105:\n        /* \"#utility.yul\":3717:3783   */\n      tag_106\n        /* \"#utility.yul\":3779:3781   */\n      0x20\n        /* \"#utility.yul\":3768:3777   */\n      dup4\n        /* \"#utility.yul\":3764:3782   */\n      add\n        /* \"#utility.yul\":3755:3761   */\n      dup7\n        /* \"#utility.yul\":3717:3783   */\n      tag_87\n      jump\t// in\n    tag_106:\n        /* \"#utility.yul\":3793:3865   */\n      tag_107\n        /* \"#utility.yul\":3861:3863   */\n      0x40\n        /* \"#utility.yul\":3850:3859   */\n      dup4\n        /* \"#utility.yul\":3846:3864   */\n      add\n        /* \"#utility.yul\":3837:3843   */\n      dup6\n        /* \"#utility.yul\":3793:3865   */\n      tag_83\n      jump\t// in\n    tag_107:\n        /* \"#utility.yul\":3875:3947   */\n      tag_108\n        /* \"#utility.yul\":3943:3945   */\n      0x60\n        /* \"#utility.yul\":3932:3941   */\n      dup4\n        /* \"#utility.yul\":3928:3946   */\n      add\n        /* \"#utility.yul\":3919:3925   */\n      dup5\n        /* \"#utility.yul\":3875:3947   */\n      tag_95\n      jump\t// in\n    tag_108:\n        /* \"#utility.yul\":3589:3954   */\n      swap6\n      swap5\n      pop\n      pop\n      pop\n      pop\n      pop\n      jump\t// out\n        /* \"#utility.yul\":3960:4243   */\n    tag_51:\n      0x00\n        /* \"#utility.yul\":4026:4028   */\n      0x40\n        /* \"#utility.yul\":4020:4029   */\n      mload\n        /* \"#utility.yul\":4010:4029   */\n      swap1\n      pop\n        /* \"#utility.yul\":4068:4072   */\n      dup2\n        /* \"#utility.yul\":4060:4066   */\n      dup2\n        /* \"#utility.yul\":4056:4073   */\n      add\n        /* \"#utility.yul\":4175:4181   */\n      dup2\n        /* \"#utility.yul\":4163:4173   */\n      dup2\n        /* \"#utility.yul\":4160:4182   */\n      lt\n        /* \"#utility.yul\":4139:4157   */\n      0xffffffffffffffff\n        /* \"#utility.yul\":4127:4137   */\n      dup3\n        /* \"#utility.yul\":4124:4158   */\n      gt\n        /* \"#utility.yul\":4121:4183   */\n      or\n        /* \"#utility.yul\":4118:4120   */\n      iszero\n      tag_110\n      jumpi\n        /* \"#utility.yul\":4186:4204   */\n      tag_111\n      tag_112\n      jump\t// in\n    tag_111:\n        /* \"#utility.yul\":4118:4120   */\n    tag_110:\n        /* \"#utility.yul\":4226:4236   */\n      dup1\n        /* \"#utility.yul\":4222:4224   */\n      0x40\n        /* \"#utility.yul\":4215:4237   */\n      mstore\n        /* \"#utility.yul\":4000:4243   */\n      pop\n      swap2\n      swap1\n      pop\n      jump\t// out\n        /* \"#utility.yul\":4249:4560   */\n    tag_50:\n      0x00\n        /* \"#utility.yul\":4416:4434   */\n      0xffffffffffffffff\n        /* \"#utility.yul\":4408:4414   */\n      dup3\n        /* \"#utility.yul\":4405:4435   */\n      gt\n        /* \"#utility.yul\":4402:4404   */\n      iszero\n      tag_114\n      jumpi\n        /* \"#utility.yul\":4438:4456   */\n      tag_115\n      tag_112\n      jump\t// in\n    tag_115:\n        /* \"#utility.yul\":4402:4404   */\n    tag_114:\n        /* \"#utility.yul\":4488:4492   */\n      0x20\n        /* \"#utility.yul\":4480:4486   */\n      dup3\n        /* \"#utility.yul\":4476:4493   */\n      mul\n        /* \"#utility.yul\":4468:4493   */\n      swap1\n      pop\n        /* \"#utility.yul\":4548:4552   */\n      0x20\n        /* \"#utility.yul\":4542:4546   */\n      dup2\n        /* \"#utility.yul\":4538:4553   */\n      add\n        /* \"#utility.yul\":4530:4553   */\n      swap1\n      pop\n        /* \"#utility.yul\":4331:4560   */\n      swap2\n      swap1\n      pop\n      jump\t// out\n        /* \"#utility.yul\":4566:4662   */\n    tag_86:\n      0x00\n        /* \"#utility.yul\":4632:4656   */\n      tag_117\n        /* \"#utility.yul\":4650:4655   */\n      dup3\n        /* \"#utility.yul\":4632:4656   */\n      tag_118\n      jump\t// in\n    tag_117:\n        /* \"#utility.yul\":4621:4656   */\n      swap1\n      pop\n        /* \"#utility.yul\":4611:4662   */\n      swap2\n      swap1\n      pop\n      jump\t// out\n        /* \"#utility.yul\":4668:4758   */\n    tag_90:\n      0x00\n        /* \"#utility.yul\":4745:4750   */\n      dup2\n        /* \"#utility.yul\":4738:4751   */\n      iszero\n        /* \"#utility.yul\":4731:4752   */\n      iszero\n        /* \"#utility.yul\":4720:4752   */\n      swap1\n      pop\n        /* \"#utility.yul\":4710:4758   */\n      swap2\n      swap1\n      pop\n      jump\t// out\n        /* \"#utility.yul\":4764:4841   */\n    tag_94:\n      0x00\n        /* \"#utility.yul\":4830:4835   */\n      dup2\n        /* \"#utility.yul\":4819:4835   */\n      swap1\n      pop\n        /* \"#utility.yul\":4809:4841   */\n      swap2\n      swap1\n      pop\n      jump\t// out\n        /* \"#utility.yul\":4847:4973   */\n    tag_118:\n      0x00\n        /* \"#utility.yul\":4924:4966   */\n      0xffffffffffffffffffffffffffffffffffffffff\n        /* \"#utility.yul\":4917:4922   */\n      dup3\n        /* \"#utility.yul\":4913:4967   */\n      and\n        /* \"#utility.yul\":4902:4967   */\n      swap1\n      pop\n        /* \"#utility.yul\":4892:4973   */\n      swap2\n      swap1\n      pop\n      jump\t// out\n        /* \"#utility.yul\":4979:5056   */\n    tag_98:\n      0x00\n        /* \"#utility.yul\":5045:5050   */\n      dup2\n        /* \"#utility.yul\":5034:5050   */\n      swap1\n      pop\n        /* \"#utility.yul\":5024:5056   */\n      swap2\n      swap1\n      pop\n      jump\t// out\n        /* \"#utility.yul\":5062:5295   */\n    tag_44:\n      0x00\n        /* \"#utility.yul\":5124:5148   */\n      tag_124\n        /* \"#utility.yul\":5142:5147   */\n      dup3\n        /* \"#utility.yul\":5124:5148   */\n      tag_98\n      jump\t// in\n    tag_124:\n        /* \"#utility.yul\":5115:5148   */\n      swap2\n      pop\n        /* \"#utility.yul\":5170:5236   */\n      0xffffffffffffffffffffffffffffffffffffffffffffffffffffffffffffffff\n        /* \"#utility.yul\":5163:5168   */\n      dup3\n        /* \"#utility.yul\":5160:5237   */\n      eq\n        /* \"#utility.yul\":5157:5159   */\n      iszero\n      tag_125\n      jumpi\n        /* \"#utility.yul\":5240:5258   */\n      tag_126\n      tag_127\n      jump\t// in\n    tag_126:\n        /* \"#utility.yul\":5157:5159   */\n    tag_125:\n        /* \"#utility.yul\":5287:5288   */\n      0x01\n        /* \"#utility.yul\":5280:5285   */\n      dup3\n        /* \"#utility.yul\":5276:5289   */\n      add\n        /* \"#utility.yul\":5269:5289   */\n      swap1\n      pop\n        /* \"#utility.yul\":5105:5295   */\n      swap2\n      swap1\n      pop\n      jump\t// out\n        /* \"#utility.yul\":5301:5481   */\n    tag_127:\n        /* \"#utility.yul\":5349:5426   */\n      0x4e487b7100000000000000000000000000000000000000000000000000000000\n        /* \"#utility.yul\":5346:5347   */\n      0x00\n        /* \"#utility.yul\":5339:5427   */\n      mstore\n        /* \"#utility.yul\":5446:5450   */\n      0x11\n        /* \"#utility.yul\":5443:5444   */\n      0x04\n        /* \"#utility.yul\":5436:5451   */\n      mstore\n        /* \"#utility.yul\":5470:5474   */\n      0x24\n        /* \"#utility.yul\":5467:5468   */\n      0x00\n        /* \"#utility.yul\":5460:5475   */\n      revert\n        /* \"#utility.yul\":5487:5667   */\n    tag_112:\n        /* \"#utility.yul\":5535:5612   */\n      0x4e487b7100000000000000000000000000000000000000000000000000000000\n        /* \"#utility.yul\":5532:5533   */\n      0x00\n        /* \"#utility.yul\":5525:5613   */\n      mstore\n        /* \"#utility.yul\":5632:5636   */\n      0x41\n        /* \"#utility.yul\":5629:5630   */\n      0x04\n        /* \"#utility.yul\":5622:5637   */\n      mstore\n        /* \"#utility.yul\":5656:5660   */\n      0x24\n        /* \"#utility.yul\":5653:5654   */\n      0x00\n        /* \"#utility.yul\":5646:5661   */\n      revert\n        /* \"#utility.yul\":5673:5795   */\n    tag_61:\n        /* \"#utility.yul\":5746:5770   */\n      tag_131\n        /* \"#utility.yul\":5764:5769   */\n      dup2\n        /* \"#utility.yul\":5746:5770   */\n      tag_86\n      jump\t// in\n    tag_131:\n        /* \"#utility.yul\":5739:5744   */\n      dup2\n        /* \"#utility.yul\":5736:5771   */\n      eq\n        /* \"#utility.yul\":5726:5728   */\n      tag_132\n      jumpi\n        /* \"#utility.yul\":5785:5786   */\n      0x00\n        /* \"#utility.yul\":5782:5783   */\n      dup1\n        /* \"#utility.yul\":5775:5787   */\n      revert\n        /* \"#utility.yul\":5726:5728   */\n    tag_132:\n        /* \"#utility.yul\":5716:5795   */\n      pop\n      jump\t// out\n        /* \"#utility.yul\":5801:5923   */\n    tag_68:\n        /* \"#utility.yul\":5874:5898   */\n      tag_134\n        /* \"#utility.yul\":5892:5897   */\n      dup2\n        /* \"#utility.yul\":5874:5898   */\n      tag_94\n      jump\t// in\n    tag_134:\n        /* \"#utility.yul\":5867:5872   */\n      dup2\n        /* \"#utility.yul\":5864:5899   */\n      eq\n        /* \"#utility.yul\":5854:5856   */\n      tag_135\n      jumpi\n        /* \"#utility.yul\":5913:5914   */\n      0x00\n        /* \"#utility.yul\":5910:5911   */\n      dup1\n        /* \"#utility.yul\":5903:5915   */\n      revert\n        /* \"#utility.yul\":5854:5856   */\n    tag_135:\n        /* \"#utility.yul\":5844:5923   */\n      pop\n      jump\t// out\n        /* \"#utility.yul\":5929:6051   */\n    tag_72:\n        /* \"#utility.yul\":6002:6026   */\n      tag_137\n        /* \"#utility.yul\":6020:6025   */\n      dup2\n        /* \"#utility.yul\":6002:6026   */\n      tag_98\n      jump\t// in\n    tag_137:\n        /* \"#utility.yul\":5995:6000   */\n      dup2\n        /* \"#utility.yul\":5992:6027   */\n      eq\n        /* \"#utility.yul\":5982:5984   */\n      tag_138\n      jumpi\n        /* \"#utility.yul\":6041:6042   */\n      0x00\n        /* \"#utility.yul\":6038:6039   */\n      dup1\n        /* \"#utility.yul\":6031:6043   */\n      revert\n        /* \"#utility.yul\":5982:5984   */\n    tag_138:\n        /* \"#utility.yul\":5972:6051   */\n      pop\n      jump\t// out\n\n    auxdata: 0xa26469706673582212208bf5fd38a825a52c398ce05f96065a6a38f3183d948d937c81b5b0b97da15adf64736f6c63430008000033\n}\n",
				"bytecode": {
					"linkReferences": {},
					"object": "608060405234801561001057600080fd5b50610874806100206000396000f3fe608060405234801561001057600080fd5b50600436106100575760003560e01c8063013cf08b1461005c5780632e4176cf1461008d5780639e7b8d61146100ab578063a3ec138d146100c7578063e35c9384146100fa575b600080fd5b610076600480360381019061007191906105b5565b610116565b604051610084929190610635565b60405180910390f35b61009561014a565b6040516100a2919061061a565b60405180910390f35b6100c560048036038101906100c0919061054b565b61016e565b005b6100e160048036038101906100dc919061054b565b6102b7565b6040516100f1949392919061065e565b60405180910390f35b610114600480360381019061010f9190610574565b610314565b005b6002818154811061012657600080fd5b90600052602060002090600202016000915090508060000154908060010154905082565b60008054906101000a900473ffffffffffffffffffffffffffffffffffffffff1681565b60008054906101000a900473ffffffffffffffffffffffffffffffffffffffff1673ffffffffffffffffffffffffffffffffffffffff163373ffffffffffffffffffffffffffffffffffffffff161480156102165750600160008273ffffffffffffffffffffffffffffffffffffffff1673ffffffffffffffffffffffffffffffffffffffff16815260200190815260200160002060010160009054906101000a900460ff16155b801561026457506000600160008373ffffffffffffffffffffffffffffffffffffffff1673ffffffffffffffffffffffffffffffffffffffff16815260200190815260200160002060000154145b61026d57600080fd5b60018060008373ffffffffffffffffffffffffffffffffffffffff1673ffffffffffffffffffffffffffffffffffffffff1681526020019081526020016000206000018190555050565b60016020528060005260406000206000915090508060000154908060010160009054906101000a900460ff16908060010160019054906101000a900473ffffffffffffffffffffffffffffffffffffffff16908060020154905084565b336000806101000a81548173ffffffffffffffffffffffffffffffffffffffff021916908373ffffffffffffffffffffffffffffffffffffffff16021790555060018060008060009054906101000a900473ffffffffffffffffffffffffffffffffffffffff1673ffffffffffffffffffffffffffffffffffffffff1673ffffffffffffffffffffffffffffffffffffffff1681526020019081526020016000206000018190555060005b8151811015610472576002604051806040016040528084848151811061040e577f4e487b7100000000000000000000000000000000000000000000000000000000600052603260045260246000fd5b602002602001015181526020016000815250908060018154018082558091505060019003906000526020600020906002020160009091909190915060008201518160000155602082015181600101555050808061046a90610752565b9150506103bf565b5050565b6000610489610484846106d4565b6106a3565b905080838252602082019050828560208602820111156104a857600080fd5b60005b858110156104d857816104be8882610521565b8452602084019350602083019250506001810190506104ab565b5050509392505050565b6000813590506104f1816107f9565b92915050565b600082601f83011261050857600080fd5b8135610518848260208601610476565b91505092915050565b60008135905061053081610810565b92915050565b60008135905061054581610827565b92915050565b60006020828403121561055d57600080fd5b600061056b848285016104e2565b91505092915050565b60006020828403121561058657600080fd5b600082013567ffffffffffffffff8111156105a057600080fd5b6105ac848285016104f7565b91505092915050565b6000602082840312156105c757600080fd5b60006105d584828501610536565b91505092915050565b6105e781610700565b82525050565b6105f681610712565b82525050565b6106058161071e565b82525050565b61061481610748565b82525050565b600060208201905061062f60008301846105de565b92915050565b600060408201905061064a60008301856105fc565b610657602083018461060b565b9392505050565b6000608082019050610673600083018761060b565b61068060208301866105ed565b61068d60408301856105de565b61069a606083018461060b565b95945050505050565b6000604051905081810181811067ffffffffffffffff821117156106ca576106c96107ca565b5b8060405250919050565b600067ffffffffffffffff8211156106ef576106ee6107ca565b5b602082029050602081019050919050565b600061070b82610728565b9050919050565b60008115159050919050565b6000819050919050565b600073ffffffffffffffffffffffffffffffffffffffff82169050919050565b6000819050919050565b600061075d82610748565b91507fffffffffffffffffffffffffffffffffffffffffffffffffffffffffffffffff8214156107905761078f61079b565b5b600182019050919050565b7f4e487b7100000000000000000000000000000000000000000000000000000000600052601160045260246000fd5b7f4e487b7100000000000000000000000000000000000000000000000000000000600052604160045260246000fd5b61080281610700565b811461080d57600080fd5b50565b6108198161071e565b811461082457600080fd5b50565b61083081610748565b811461083b57600080fd5b5056fea26469706673582212208bf5fd38a825a52c398ce05f96065a6a38f3183d948d937c81b5b0b97da15adf64736f6c63430008000033",
					"opcodes": "PUSH1 0x80 PUSH1 0x40 MSTORE CALLVALUE DUP1 ISZERO PUSH2 0x10 JUMPI PUSH1 0x0 DUP1 REVERT JUMPDEST POP PUSH2 0x874 DUP1 PUSH2 0x20 PUSH1 0x0 CODECOPY PUSH1 0x0 RETURN INVALID PUSH1 0x80 PUSH1 0x40 MSTORE CALLVALUE DUP1 ISZERO PUSH2 0x10 JUMPI PUSH1 0x0 DUP1 REVERT JUMPDEST POP PUSH1 0x4 CALLDATASIZE LT PUSH2 0x57 JUMPI PUSH1 0x0 CALLDATALOAD PUSH1 0xE0 SHR DUP1 PUSH4 0x13CF08B EQ PUSH2 0x5C JUMPI DUP1 PUSH4 0x2E4176CF EQ PUSH2 0x8D JUMPI DUP1 PUSH4 0x9E7B8D61 EQ PUSH2 0xAB JUMPI DUP1 PUSH4 0xA3EC138D EQ PUSH2 0xC7 JUMPI DUP1 PUSH4 0xE35C9384 EQ PUSH2 0xFA JUMPI JUMPDEST PUSH1 0x0 DUP1 REVERT JUMPDEST PUSH2 0x76 PUSH1 0x4 DUP1 CALLDATASIZE SUB DUP2 ADD SWAP1 PUSH2 0x71 SWAP2 SWAP1 PUSH2 0x5B5 JUMP JUMPDEST PUSH2 0x116 JUMP JUMPDEST PUSH1 0x40 MLOAD PUSH2 0x84 SWAP3 SWAP2 SWAP1 PUSH2 0x635 JUMP JUMPDEST PUSH1 0x40 MLOAD DUP1 SWAP2 SUB SWAP1 RETURN JUMPDEST PUSH2 0x95 PUSH2 0x14A JUMP JUMPDEST PUSH1 0x40 MLOAD PUSH2 0xA2 SWAP2 SWAP1 PUSH2 0x61A JUMP JUMPDEST PUSH1 0x40 MLOAD DUP1 SWAP2 SUB SWAP1 RETURN JUMPDEST PUSH2 0xC5 PUSH1 0x4 DUP1 CALLDATASIZE SUB DUP2 ADD SWAP1 PUSH2 0xC0 SWAP2 SWAP1 PUSH2 0x54B JUMP JUMPDEST PUSH2 0x16E JUMP JUMPDEST STOP JUMPDEST PUSH2 0xE1 PUSH1 0x4 DUP1 CALLDATASIZE SUB DUP2 ADD SWAP1 PUSH2 0xDC SWAP2 SWAP1 PUSH2 0x54B JUMP JUMPDEST PUSH2 0x2B7 JUMP JUMPDEST PUSH1 0x40 MLOAD PUSH2 0xF1 SWAP5 SWAP4 SWAP3 SWAP2 SWAP1 PUSH2 0x65E JUMP JUMPDEST PUSH1 0x40 MLOAD DUP1 SWAP2 SUB SWAP1 RETURN JUMPDEST PUSH2 0x114 PUSH1 0x4 DUP1 CALLDATASIZE SUB DUP2 ADD SWAP1 PUSH2 0x10F SWAP2 SWAP1 PUSH2 0x574 JUMP JUMPDEST PUSH2 0x314 JUMP JUMPDEST STOP JUMPDEST PUSH1 0x2 DUP2 DUP2 SLOAD DUP2 LT PUSH2 0x126 JUMPI PUSH1 0x0 DUP1 REVERT JUMPDEST SWAP1 PUSH1 0x0 MSTORE PUSH1 0x20 PUSH1 0x0 KECCAK256 SWAP1 PUSH1 0x2 MUL ADD PUSH1 0x0 SWAP2 POP SWAP1 POP DUP1 PUSH1 0x0 ADD SLOAD SWAP1 DUP1 PUSH1 0x1 ADD SLOAD SWAP1 POP DUP3 JUMP JUMPDEST PUSH1 0x0 DUP1 SLOAD SWAP1 PUSH2 0x100 EXP SWAP1 DIV PUSH20 0xFFFFFFFFFFFFFFFFFFFFFFFFFFFFFFFFFFFFFFFF AND DUP2 JUMP JUMPDEST PUSH1 0x0 DUP1 SLOAD SWAP1 PUSH2 0x100 EXP SWAP1 DIV PUSH20 0xFFFFFFFFFFFFFFFFFFFFFFFFFFFFFFFFFFFFFFFF AND PUSH20 0xFFFFFFFFFFFFFFFFFFFFFFFFFFFFFFFFFFFFFFFF AND CALLER PUSH20 0xFFFFFFFFFFFFFFFFFFFFFFFFFFFFFFFFFFFFFFFF AND EQ DUP1 ISZERO PUSH2 0x216 JUMPI POP PUSH1 0x1 PUSH1 0x0 DUP3 PUSH20 0xFFFFFFFFFFFFFFFFFFFFFFFFFFFFFFFFFFFFFFFF AND PUSH20 0xFFFFFFFFFFFFFFFFFFFFFFFFFFFFFFFFFFFFFFFF AND DUP2 MSTORE PUSH1 0x20 ADD SWAP1 DUP2 MSTORE PUSH1 0x20 ADD PUSH1 0x0 KECCAK256 PUSH1 0x1 ADD PUSH1 0x0 SWAP1 SLOAD SWAP1 PUSH2 0x100 EXP SWAP1 DIV PUSH1 0xFF AND ISZERO JUMPDEST DUP1 ISZERO PUSH2 0x264 JUMPI POP PUSH1 0x0 PUSH1 0x1 PUSH1 0x0 DUP4 PUSH20 0xFFFFFFFFFFFFFFFFFFFFFFFFFFFFFFFFFFFFFFFF AND PUSH20 0xFFFFFFFFFFFFFFFFFFFFFFFFFFFFFFFFFFFFFFFF AND DUP2 MSTORE PUSH1 0x20 ADD SWAP1 DUP2 MSTORE PUSH1 0x20 ADD PUSH1 0x0 KECCAK256 PUSH1 0x0 ADD SLOAD EQ JUMPDEST PUSH2 0x26D JUMPI PUSH1 0x0 DUP1 REVERT JUMPDEST PUSH1 0x1 DUP1 PUSH1 0x0 DUP4 PUSH20 0xFFFFFFFFFFFFFFFFFFFFFFFFFFFFFFFFFFFFFFFF AND PUSH20 0xFFFFFFFFFFFFFFFFFFFFFFFFFFFFFFFFFFFFFFFF AND DUP2 MSTORE PUSH1 0x20 ADD SWAP1 DUP2 MSTORE PUSH1 0x20 ADD PUSH1 0x0 KECCAK256 PUSH1 0x0 ADD DUP2 SWAP1 SSTORE POP POP JUMP JUMPDEST PUSH1 0x1 PUSH1 0x20 MSTORE DUP1 PUSH1 0x0 MSTORE PUSH1 0x40 PUSH1 0x0 KECCAK256 PUSH1 0x0 SWAP2 POP SWAP1 POP DUP1 PUSH1 0x0 ADD SLOAD SWAP1 DUP1 PUSH1 0x1 ADD PUSH1 0x0 SWAP1 SLOAD SWAP1 PUSH2 0x100 EXP SWAP1 DIV PUSH1 0xFF AND SWAP1 DUP1 PUSH1 0x1 ADD PUSH1 0x1 SWAP1 SLOAD SWAP1 PUSH2 0x100 EXP SWAP1 DIV PUSH20 0xFFFFFFFFFFFFFFFFFFFFFFFFFFFFFFFFFFFFFFFF AND SWAP1 DUP1 PUSH1 0x2 ADD SLOAD SWAP1 POP DUP5 JUMP JUMPDEST CALLER PUSH1 0x0 DUP1 PUSH2 0x100 EXP DUP2 SLOAD DUP2 PUSH20 0xFFFFFFFFFFFFFFFFFFFFFFFFFFFFFFFFFFFFFFFF MUL NOT AND SWAP1 DUP4 PUSH20 0xFFFFFFFFFFFFFFFFFFFFFFFFFFFFFFFFFFFFFFFF AND MUL OR SWAP1 SSTORE POP PUSH1 0x1 DUP1 PUSH1 0x0 DUP1 PUSH1 0x0 SWAP1 SLOAD SWAP1 PUSH2 0x100 EXP SWAP1 DIV PUSH20 0xFFFFFFFFFFFFFFFFFFFFFFFFFFFFFFFFFFFFFFFF AND PUSH20 0xFFFFFFFFFFFFFFFFFFFFFFFFFFFFFFFFFFFFFFFF AND PUSH20 0xFFFFFFFFFFFFFFFFFFFFFFFFFFFFFFFFFFFFFFFF AND DUP2 MSTORE PUSH1 0x20 ADD SWAP1 DUP2 MSTORE PUSH1 0x20 ADD PUSH1 0x0 KECCAK256 PUSH1 0x0 ADD DUP2 SWAP1 SSTORE POP PUSH1 0x0 JUMPDEST DUP2 MLOAD DUP2 LT ISZERO PUSH2 0x472 JUMPI PUSH1 0x2 PUSH1 0x40 MLOAD DUP1 PUSH1 0x40 ADD PUSH1 0x40 MSTORE DUP1 DUP5 DUP5 DUP2 MLOAD DUP2 LT PUSH2 0x40E JUMPI PUSH32 0x4E487B7100000000000000000000000000000000000000000000000000000000 PUSH1 0x0 MSTORE PUSH1 0x32 PUSH1 0x4 MSTORE PUSH1 0x24 PUSH1 0x0 REVERT JUMPDEST PUSH1 0x20 MUL PUSH1 0x20 ADD ADD MLOAD DUP2 MSTORE PUSH1 0x20 ADD PUSH1 0x0 DUP2 MSTORE POP SWAP1 DUP1 PUSH1 0x1 DUP2 SLOAD ADD DUP1 DUP3 SSTORE DUP1 SWAP2 POP POP PUSH1 0x1 SWAP1 SUB SWAP1 PUSH1 0x0 MSTORE PUSH1 0x20 PUSH1 0x0 KECCAK256 SWAP1 PUSH1 0x2 MUL ADD PUSH1 0x0 SWAP1 SWAP2 SWAP1 SWAP2 SWAP1 SWAP2 POP PUSH1 0x0 DUP3 ADD MLOAD DUP2 PUSH1 0x0 ADD SSTORE PUSH1 0x20 DUP3 ADD MLOAD DUP2 PUSH1 0x1 ADD SSTORE POP POP DUP1 DUP1 PUSH2 0x46A SWAP1 PUSH2 0x752 JUMP JUMPDEST SWAP2 POP POP PUSH2 0x3BF JUMP JUMPDEST POP POP JUMP JUMPDEST PUSH1 0x0 PUSH2 0x489 PUSH2 0x484 DUP5 PUSH2 0x6D4 JUMP JUMPDEST PUSH2 0x6A3 JUMP JUMPDEST SWAP1 POP DUP1 DUP4 DUP3 MSTORE PUSH1 0x20 DUP3 ADD SWAP1 POP DUP3 DUP6 PUSH1 0x20 DUP7 MUL DUP3 ADD GT ISZERO PUSH2 0x4A8 JUMPI PUSH1 0x0 DUP1 REVERT JUMPDEST PUSH1 0x0 JUMPDEST DUP6 DUP2 LT ISZERO PUSH2 0x4D8 JUMPI DUP2 PUSH2 0x4BE DUP9 DUP3 PUSH2 0x521 JUMP JUMPDEST DUP5 MSTORE PUSH1 0x20 DUP5 ADD SWAP4 POP PUSH1 0x20 DUP4 ADD SWAP3 POP POP PUSH1 0x1 DUP2 ADD SWAP1 POP PUSH2 0x4AB JUMP JUMPDEST POP POP POP SWAP4 SWAP3 POP POP POP JUMP JUMPDEST PUSH1 0x0 DUP2 CALLDATALOAD SWAP1 POP PUSH2 0x4F1 DUP2 PUSH2 0x7F9 JUMP JUMPDEST SWAP3 SWAP2 POP POP JUMP JUMPDEST PUSH1 0x0 DUP3 PUSH1 0x1F DUP4 ADD SLT PUSH2 0x508 JUMPI PUSH1 0x0 DUP1 REVERT JUMPDEST DUP2 CALLDATALOAD PUSH2 0x518 DUP5 DUP3 PUSH1 0x20 DUP7 ADD PUSH2 0x476 JUMP JUMPDEST SWAP2 POP POP SWAP3 SWAP2 POP POP JUMP JUMPDEST PUSH1 0x0 DUP2 CALLDATALOAD SWAP1 POP PUSH2 0x530 DUP2 PUSH2 0x810 JUMP JUMPDEST SWAP3 SWAP2 POP POP JUMP JUMPDEST PUSH1 0x0 DUP2 CALLDATALOAD SWAP1 POP PUSH2 0x545 DUP2 PUSH2 0x827 JUMP JUMPDEST SWAP3 SWAP2 POP POP JUMP JUMPDEST PUSH1 0x0 PUSH1 0x20 DUP3 DUP5 SUB SLT ISZERO PUSH2 0x55D JUMPI PUSH1 0x0 DUP1 REVERT JUMPDEST PUSH1 0x0 PUSH2 0x56B DUP5 DUP3 DUP6 ADD PUSH2 0x4E2 JUMP JUMPDEST SWAP2 POP POP SWAP3 SWAP2 POP POP JUMP JUMPDEST PUSH1 0x0 PUSH1 0x20 DUP3 DUP5 SUB SLT ISZERO PUSH2 0x586 JUMPI PUSH1 0x0 DUP1 REVERT JUMPDEST PUSH1 0x0 DUP3 ADD CALLDATALOAD PUSH8 0xFFFFFFFFFFFFFFFF DUP2 GT ISZERO PUSH2 0x5A0 JUMPI PUSH1 0x0 DUP1 REVERT JUMPDEST PUSH2 0x5AC DUP5 DUP3 DUP6 ADD PUSH2 0x4F7 JUMP JUMPDEST SWAP2 POP POP SWAP3 SWAP2 POP POP JUMP JUMPDEST PUSH1 0x0 PUSH1 0x20 DUP3 DUP5 SUB SLT ISZERO PUSH2 0x5C7 JUMPI PUSH1 0x0 DUP1 REVERT JUMPDEST PUSH1 0x0 PUSH2 0x5D5 DUP5 DUP3 DUP6 ADD PUSH2 0x536 JUMP JUMPDEST SWAP2 POP POP SWAP3 SWAP2 POP POP JUMP JUMPDEST PUSH2 0x5E7 DUP2 PUSH2 0x700 JUMP JUMPDEST DUP3 MSTORE POP POP JUMP JUMPDEST PUSH2 0x5F6 DUP2 PUSH2 0x712 JUMP JUMPDEST DUP3 MSTORE POP POP JUMP JUMPDEST PUSH2 0x605 DUP2 PUSH2 0x71E JUMP JUMPDEST DUP3 MSTORE POP POP JUMP JUMPDEST PUSH2 0x614 DUP2 PUSH2 0x748 JUMP JUMPDEST DUP3 MSTORE POP POP JUMP JUMPDEST PUSH1 0x0 PUSH1 0x20 DUP3 ADD SWAP1 POP PUSH2 0x62F PUSH1 0x0 DUP4 ADD DUP5 PUSH2 0x5DE JUMP JUMPDEST SWAP3 SWAP2 POP POP JUMP JUMPDEST PUSH1 0x0 PUSH1 0x40 DUP3 ADD SWAP1 POP PUSH2 0x64A PUSH1 0x0 DUP4 ADD DUP6 PUSH2 0x5FC JUMP JUMPDEST PUSH2 0x657 PUSH1 0x20 DUP4 ADD DUP5 PUSH2 0x60B JUMP JUMPDEST SWAP4 SWAP3 POP POP POP JUMP JUMPDEST PUSH1 0x0 PUSH1 0x80 DUP3 ADD SWAP1 POP PUSH2 0x673 PUSH1 0x0 DUP4 ADD DUP8 PUSH2 0x60B JUMP JUMPDEST PUSH2 0x680 PUSH1 0x20 DUP4 ADD DUP7 PUSH2 0x5ED JUMP JUMPDEST PUSH2 0x68D PUSH1 0x40 DUP4 ADD DUP6 PUSH2 0x5DE JUMP JUMPDEST PUSH2 0x69A PUSH1 0x60 DUP4 ADD DUP5 PUSH2 0x60B JUMP JUMPDEST SWAP6 SWAP5 POP POP POP POP POP JUMP JUMPDEST PUSH1 0x0 PUSH1 0x40 MLOAD SWAP1 POP DUP2 DUP2 ADD DUP2 DUP2 LT PUSH8 0xFFFFFFFFFFFFFFFF DUP3 GT OR ISZERO PUSH2 0x6CA JUMPI PUSH2 0x6C9 PUSH2 0x7CA JUMP JUMPDEST JUMPDEST DUP1 PUSH1 0x40 MSTORE POP SWAP2 SWAP1 POP JUMP JUMPDEST PUSH1 0x0 PUSH8 0xFFFFFFFFFFFFFFFF DUP3 GT ISZERO PUSH2 0x6EF JUMPI PUSH2 0x6EE PUSH2 0x7CA JUMP JUMPDEST JUMPDEST PUSH1 0x20 DUP3 MUL SWAP1 POP PUSH1 0x20 DUP2 ADD SWAP1 POP SWAP2 SWAP1 POP JUMP JUMPDEST PUSH1 0x0 PUSH2 0x70B DUP3 PUSH2 0x728 JUMP JUMPDEST SWAP1 POP SWAP2 SWAP1 POP JUMP JUMPDEST PUSH1 0x0 DUP2 ISZERO ISZERO SWAP1 POP SWAP2 SWAP1 POP JUMP JUMPDEST PUSH1 0x0 DUP2 SWAP1 POP SWAP2 SWAP1 POP JUMP JUMPDEST PUSH1 0x0 PUSH20 0xFFFFFFFFFFFFFFFFFFFFFFFFFFFFFFFFFFFFFFFF DUP3 AND SWAP1 POP SWAP2 SWAP1 POP JUMP JUMPDEST PUSH1 0x0 DUP2 SWAP1 POP SWAP2 SWAP1 POP JUMP JUMPDEST PUSH1 0x0 PUSH2 0x75D DUP3 PUSH2 0x748 JUMP JUMPDEST SWAP2 POP PUSH32 0xFFFFFFFFFFFFFFFFFFFFFFFFFFFFFFFFFFFFFFFFFFFFFFFFFFFFFFFFFFFFFFFF DUP3 EQ ISZERO PUSH2 0x790 JUMPI PUSH2 0x78F PUSH2 0x79B JUMP JUMPDEST JUMPDEST PUSH1 0x1 DUP3 ADD SWAP1 POP SWAP2 SWAP1 POP JUMP JUMPDEST PUSH32 0x4E487B7100000000000000000000000000000000000000000000000000000000 PUSH1 0x0 MSTORE PUSH1 0x11 PUSH1 0x4 MSTORE PUSH1 0x24 PUSH1 0x0 REVERT JUMPDEST PUSH32 0x4E487B7100000000000000000000000000000000000000000000000000000000 PUSH1 0x0 MSTORE PUSH1 0x41 PUSH1 0x4 MSTORE PUSH1 0x24 PUSH1 0x0 REVERT JUMPDEST PUSH2 0x802 DUP2 PUSH2 0x700 JUMP JUMPDEST DUP2 EQ PUSH2 0x80D JUMPI PUSH1 0x0 DUP1 REVERT JUMPDEST POP JUMP JUMPDEST PUSH2 0x819 DUP2 PUSH2 0x71E JUMP JUMPDEST DUP2 EQ PUSH2 0x824 JUMPI PUSH1 0x0 DUP1 REVERT JUMPDEST POP JUMP JUMPDEST PUSH2 0x830 DUP2 PUSH2 0x748 JUMP JUMPDEST DUP2 EQ PUSH2 0x83B JUMPI PUSH1 0x0 DUP1 REVERT JUMPDEST POP JUMP INVALID LOG2 PUSH5 0x6970667358 0x22 SLT KECCAK256 DUP12 CREATE2 REVERT CODESIZE 0xA8 0x25 0xA5 0x2C CODECOPY DUP13 0xE0 0x5F SWAP7 MOD GAS PUSH11 0x38F3183D948D937C81B5B0 0xB9 PUSH30 0xA15ADF64736F6C6343000800003300000000000000000000000000000000 "
				},
				"gasEstimates": {
					"creation": {
						"codeDepositCost": "432800",
						"executionCost": "468",
						"totalCost": "433268"
					},
					"external": {
						"chairperson()": "1211",
						"createBallot(bytes32[])": "infinite",
						"giveRightToVote(address)": "23341",
						"proposals(uint256)": "infinite",
						"voters(address)": "infinite"
					}
				},
				"methodIdentifiers": {
					"chairperson()": "2e4176cf",
					"createBallot(bytes32[])": "e35c9384",
					"giveRightToVote(address)": "9e7b8d61",
					"proposals(uint256)": "013cf08b",
					"voters(address)": "a3ec138d"
				}
			},
			"storageLayout": {
				"storage": [
					{
						"astId": 17,
						"contract": "contracts/prop_test.sol:Ballot",
						"label": "chairperson",
						"offset": 0,
						"slot": "0",
						"type": "t_address"
					},
					{
						"astId": 22,
						"contract": "contracts/prop_test.sol:Ballot",
						"label": "voters",
						"offset": 0,
						"slot": "1",
						"type": "t_mapping(t_address,t_struct(Voter)10_storage)"
					},
					{
						"astId": 26,
						"contract": "contracts/prop_test.sol:Ballot",
						"label": "proposals",
						"offset": 0,
						"slot": "2",
						"type": "t_array(t_struct(Proposal)15_storage)dyn_storage"
					}
				],
				"types": {
					"t_address": {
						"encoding": "inplace",
						"label": "address",
						"numberOfBytes": "20"
					},
					"t_array(t_struct(Proposal)15_storage)dyn_storage": {
						"base": "t_struct(Proposal)15_storage",
						"encoding": "dynamic_array",
						"label": "struct Ballot.Proposal[]",
						"numberOfBytes": "32"
					},
					"t_bool": {
						"encoding": "inplace",
						"label": "bool",
						"numberOfBytes": "1"
					},
					"t_bytes32": {
						"encoding": "inplace",
						"label": "bytes32",
						"numberOfBytes": "32"
					},
					"t_mapping(t_address,t_struct(Voter)10_storage)": {
						"encoding": "mapping",
						"key": "t_address",
						"label": "mapping(address => struct Ballot.Voter)",
						"numberOfBytes": "32",
						"value": "t_struct(Voter)10_storage"
					},
					"t_struct(Proposal)15_storage": {
						"encoding": "inplace",
						"label": "struct Ballot.Proposal",
						"members": [
							{
								"astId": 12,
								"contract": "contracts/prop_test.sol:Ballot",
								"label": "name",
								"offset": 0,
								"slot": "0",
								"type": "t_bytes32"
							},
							{
								"astId": 14,
								"contract": "contracts/prop_test.sol:Ballot",
								"label": "voteCount",
								"offset": 0,
								"slot": "1",
								"type": "t_uint256"
							}
						],
						"numberOfBytes": "64"
					},
					"t_struct(Voter)10_storage": {
						"encoding": "inplace",
						"label": "struct Ballot.Voter",
						"members": [
							{
								"astId": 3,
								"contract": "contracts/prop_test.sol:Ballot",
								"label": "weight",
								"offset": 0,
								"slot": "0",
								"type": "t_uint256"
							},
							{
								"astId": 5,
								"contract": "contracts/prop_test.sol:Ballot",
								"label": "voted",
								"offset": 0,
								"slot": "1",
								"type": "t_bool"
							},
							{
								"astId": 7,
								"contract": "contracts/prop_test.sol:Ballot",
								"label": "delegate",
								"offset": 1,
								"slot": "1",
								"type": "t_address"
							},
							{
								"astId": 9,
								"contract": "contracts/prop_test.sol:Ballot",
								"label": "vote",
								"offset": 0,
								"slot": "2",
								"type": "t_uint256"
							}
						],
						"numberOfBytes": "96"
					},
					"t_uint256": {
						"encoding": "inplace",
						"label": "uint256",
						"numberOfBytes": "32"
					}
				}
			},
			"userdoc": {
				"kind": "user",
				"methods": {},
				"version": 1
			}
		}
	}
}