{
	"contracts/visov_durku.sol": {
		"BallotFactory": {
			"abi": [
				{
					"inputs": [
						{
							"internalType": "uint256",
							"name": "",
							"type": "uint256"
						}
					],
					"name": "ballotArray",
					"outputs": [
						{
							"internalType": "contract Ballot",
							"name": "",
							"type": "address"
						}
					],
					"stateMutability": "view",
					"type": "function"
				},
				{
					"inputs": [
						{
							"internalType": "uint256",
							"name": "_ballotIndex",
							"type": "uint256"
						},
						{
							"internalType": "string[]",
							"name": "proposalNames",
							"type": "string[]"
						}
					],
					"name": "bfCreateBallot",
					"outputs": [],
					"stateMutability": "nonpayable",
					"type": "function"
				},
				{
					"inputs": [
						{
							"internalType": "uint256",
							"name": "_ballotIndex",
							"type": "uint256"
						}
					],
					"name": "bfGetCreatorBallot",
					"outputs": [
						{
							"internalType": "address",
							"name": "",
							"type": "address"
						}
					],
					"stateMutability": "view",
					"type": "function"
				},
				{
					"inputs": [
						{
							"internalType": "uint256",
							"name": "_ballotIndex",
							"type": "uint256"
						},
						{
							"internalType": "address",
							"name": "_voter",
							"type": "address"
						}
					],
					"name": "bfGiveRightToVote",
					"outputs": [],
					"stateMutability": "nonpayable",
					"type": "function"
				},
				{
					"inputs": [
						{
							"internalType": "uint256",
							"name": "_ballotIndex",
							"type": "uint256"
						},
						{
							"internalType": "uint256",
							"name": "_status",
							"type": "uint256"
						}
					],
					"name": "bfSetStatus",
					"outputs": [],
					"stateMutability": "nonpayable",
					"type": "function"
				},
				{
					"inputs": [
						{
							"internalType": "uint256",
							"name": "_ballotIndex",
							"type": "uint256"
						},
						{
							"internalType": "uint256",
							"name": "_proposal",
							"type": "uint256"
						}
					],
					"name": "bfVote",
					"outputs": [],
					"stateMutability": "nonpayable",
					"type": "function"
				},
				{
					"inputs": [
						{
							"internalType": "uint256",
							"name": "_ballotIndex",
							"type": "uint256"
						}
					],
					"name": "bfWinningName",
					"outputs": [
						{
							"internalType": "string",
							"name": "winnerName",
							"type": "string"
						}
					],
					"stateMutability": "view",
					"type": "function"
				},
				{
					"inputs": [
						{
							"internalType": "uint256",
							"name": "_ballotIndex",
							"type": "uint256"
						}
					],
					"name": "bfWinningProposal",
					"outputs": [
						{
							"internalType": "uint256",
							"name": "winningProposal",
							"type": "uint256"
						}
					],
					"stateMutability": "view",
					"type": "function"
				},
				{
					"inputs": [
						{
							"internalType": "string[]",
							"name": "proposalNames",
							"type": "string[]"
						}
					],
					"name": "createBallot",
					"outputs": [],
					"stateMutability": "nonpayable",
					"type": "function"
				},
				{
					"inputs": [],
					"name": "createBallotContract",
					"outputs": [],
					"stateMutability": "nonpayable",
					"type": "function"
				},
				{
					"inputs": [],
					"name": "getCreatorBallot",
					"outputs": [
						{
							"internalType": "address",
							"name": "",
							"type": "address"
						}
					],
					"stateMutability": "view",
					"type": "function"
				},
				{
					"inputs": [],
					"name": "getEndDate",
					"outputs": [
						{
							"internalType": "uint256",
							"name": "",
							"type": "uint256"
						}
					],
					"stateMutability": "view",
					"type": "function"
				},
				{
					"inputs": [
						{
							"internalType": "uint256",
							"name": "_proposalId",
							"type": "uint256"
						}
					],
					"name": "getProposalStructure",
					"outputs": [
						{
							"components": [
								{
									"internalType": "string",
									"name": "name",
									"type": "string"
								},
								{
									"internalType": "uint256",
									"name": "voteCount",
									"type": "uint256"
								}
							],
							"internalType": "struct Ballot.Proposal",
							"name": "",
							"type": "tuple"
						}
					],
					"stateMutability": "view",
					"type": "function"
				},
				{
					"inputs": [],
					"name": "getProposals",
					"outputs": [
						{
							"components": [
								{
									"internalType": "string",
									"name": "name",
									"type": "string"
								},
								{
									"internalType": "uint256",
									"name": "voteCount",
									"type": "uint256"
								}
							],
							"internalType": "struct Ballot.Proposal[]",
							"name": "",
							"type": "tuple[]"
						}
					],
					"stateMutability": "view",
					"type": "function"
				},
				{
					"inputs": [],
					"name": "getStartDate",
					"outputs": [
						{
							"internalType": "uint256",
							"name": "",
							"type": "uint256"
						}
					],
					"stateMutability": "view",
					"type": "function"
				},
				{
					"inputs": [],
					"name": "getStatus",
					"outputs": [
						{
							"internalType": "uint256",
							"name": "",
							"type": "uint256"
						}
					],
					"stateMutability": "view",
					"type": "function"
				},
				{
					"inputs": [
						{
							"internalType": "uint256",
							"name": "_ballotIndex",
							"type": "uint256"
						}
					],
					"name": "getStatus",
					"outputs": [
						{
							"internalType": "uint256",
							"name": "",
							"type": "uint256"
						}
					],
					"stateMutability": "view",
					"type": "function"
				},
				{
					"inputs": [],
					"name": "getnumOfProposals",
					"outputs": [
						{
							"internalType": "uint256",
							"name": "",
							"type": "uint256"
						}
					],
					"stateMutability": "view",
					"type": "function"
				},
				{
					"inputs": [
						{
							"internalType": "address",
							"name": "voter",
							"type": "address"
						}
					],
					"name": "giveRightToVote",
					"outputs": [],
					"stateMutability": "nonpayable",
					"type": "function"
				},
				{
					"inputs": [
						{
							"internalType": "uint256",
							"name": "",
							"type": "uint256"
						}
					],
					"name": "proposals",
					"outputs": [
						{
							"internalType": "string",
							"name": "name",
							"type": "string"
						},
						{
							"internalType": "uint256",
							"name": "voteCount",
							"type": "uint256"
						}
					],
					"stateMutability": "view",
					"type": "function"
				},
				{
					"inputs": [],
					"name": "setEndDate",
					"outputs": [],
					"stateMutability": "nonpayable",
					"type": "function"
				},
				{
					"inputs": [
						{
							"internalType": "uint256",
							"name": "_status",
							"type": "uint256"
						}
					],
					"name": "setStatus",
					"outputs": [],
					"stateMutability": "nonpayable",
					"type": "function"
				},
				{
					"inputs": [
						{
							"internalType": "uint256",
							"name": "proposal",
							"type": "uint256"
						}
					],
					"name": "vote",
					"outputs": [],
					"stateMutability": "nonpayable",
					"type": "function"
				},
				{
					"inputs": [
						{
							"internalType": "address",
							"name": "",
							"type": "address"
						}
					],
					"name": "voters",
					"outputs": [
						{
							"internalType": "uint256",
							"name": "weight",
							"type": "uint256"
						},
						{
							"internalType": "bool",
							"name": "voted",
							"type": "bool"
						},
						{
							"internalType": "address",
							"name": "delegate",
							"type": "address"
						},
						{
							"internalType": "uint256",
							"name": "vote",
							"type": "uint256"
						}
					],
					"stateMutability": "view",
					"type": "function"
				},
				{
					"inputs": [],
					"name": "winnerName",
					"outputs": [
						{
							"internalType": "string",
							"name": "winnerName",
							"type": "string"
						}
					],
					"stateMutability": "view",
					"type": "function"
				},
				{
					"inputs": [],
					"name": "winningProposal",
					"outputs": [
						{
							"internalType": "uint256",
							"name": "winningProposal",
							"type": "uint256"
						}
					],
					"stateMutability": "view",
					"type": "function"
				}
			],
			"devdoc": {
				"kind": "dev",
				"methods": {},
				"version": 1
			},
			"evm": {
				"assembly": "    /* \"contracts/visov_durku.sol\":89:2233  contract BallotFactory is Ballot {\r... */\n  mstore(0x40, 0x80)\n  callvalue\n  dup1\n  iszero\n  tag_1\n  jumpi\n  0x00\n  dup1\n  revert\ntag_1:\n  pop\n  dataSize(sub_0)\n  dup1\n  dataOffset(sub_0)\n  0x00\n  codecopy\n  0x00\n  return\nstop\n\nsub_0: assembly {\n        /* \"contracts/visov_durku.sol\":89:2233  contract BallotFactory is Ballot {\r... */\n      mstore(0x40, 0x80)\n      callvalue\n      dup1\n      iszero\n      tag_1\n      jumpi\n      0x00\n      dup1\n      revert\n    tag_1:\n      pop\n      jumpi(tag_2, lt(calldatasize, 0x04))\n      shr(0xe0, calldataload(0x00))\n      dup1\n      0x78f305c6\n      gt\n      tag_29\n      jumpi\n      dup1\n      0xa3ec138d\n      gt\n      tag_30\n      jumpi\n      dup1\n      0xc285c0d3\n      gt\n      tag_31\n      jumpi\n      dup1\n      0xc285c0d3\n      eq\n      tag_25\n      jumpi\n      dup1\n      0xd7558d4b\n      eq\n      tag_26\n      jumpi\n      dup1\n      0xe2ba53f0\n      eq\n      tag_27\n      jumpi\n      dup1\n      0xe9d6c6da\n      eq\n      tag_28\n      jumpi\n      jump(tag_2)\n    tag_31:\n      dup1\n      0xa3ec138d\n      eq\n      tag_22\n      jumpi\n      dup1\n      0xb1356488\n      eq\n      tag_23\n      jumpi\n      dup1\n      0xb434b42e\n      eq\n      tag_24\n      jumpi\n      jump(tag_2)\n    tag_30:\n      dup1\n      0x78f305c6\n      eq\n      tag_16\n      jumpi\n      dup1\n      0x7a16fcb0\n      eq\n      tag_17\n      jumpi\n      dup1\n      0x836bc692\n      eq\n      tag_18\n      jumpi\n      dup1\n      0x86278e77\n      eq\n      tag_19\n      jumpi\n      dup1\n      0x962fafd0\n      eq\n      tag_20\n      jumpi\n      dup1\n      0x9e7b8d61\n      eq\n      tag_21\n      jumpi\n      jump(tag_2)\n    tag_29:\n      dup1\n      0x609ff1bd\n      gt\n      tag_32\n      jumpi\n      dup1\n      0x643cb096\n      gt\n      tag_33\n      jumpi\n      dup1\n      0x643cb096\n      eq\n      tag_12\n      jumpi\n      dup1\n      0x69ba1a75\n      eq\n      tag_13\n      jumpi\n      dup1\n      0x735d8b87\n      eq\n      tag_14\n      jumpi\n      dup1\n      0x763fcb98\n      eq\n      tag_15\n      jumpi\n      jump(tag_2)\n    tag_33:\n      dup1\n      0x609ff1bd\n      eq\n      tag_9\n      jumpi\n      dup1\n      0x62564c48\n      eq\n      tag_10\n      jumpi\n      dup1\n      0x627c2367\n      eq\n      tag_11\n      jumpi\n      jump(tag_2)\n    tag_32:\n      dup1\n      0x0121b93f\n      eq\n      tag_3\n      jumpi\n      dup1\n      0x013cf08b\n      eq\n      tag_4\n      jumpi\n      dup1\n      0x0a82dcb1\n      eq\n      tag_5\n      jumpi\n      dup1\n      0x2a8cdc4c\n      eq\n      tag_6\n      jumpi\n      dup1\n      0x4e69d560\n      eq\n      tag_7\n      jumpi\n      dup1\n      0x5c622a0e\n      eq\n      tag_8\n      jumpi\n    tag_2:\n      0x00\n      dup1\n      revert\n        /* \"contracts/prop_test.sol\":2270:2659  function vote(uint proposal) public {\r... */\n    tag_3:\n      tag_34\n      0x04\n      dup1\n      calldatasize\n      sub\n      dup2\n      add\n      swap1\n      tag_35\n      swap2\n      swap1\n      tag_36\n      jump\t// in\n    tag_35:\n      tag_37\n      jump\t// in\n    tag_34:\n      stop\n        /* \"contracts/prop_test.sol\":871:898  Proposal[] public proposals */\n    tag_4:\n      tag_38\n      0x04\n      dup1\n      calldatasize\n      sub\n      dup2\n      add\n      swap1\n      tag_39\n      swap2\n      swap1\n      tag_36\n      jump\t// in\n    tag_39:\n      tag_40\n      jump\t// in\n    tag_38:\n      mload(0x40)\n      tag_41\n      swap3\n      swap2\n      swap1\n      tag_42\n      jump\t// in\n    tag_41:\n      mload(0x40)\n      dup1\n      swap2\n      sub\n      swap1\n      return\n        /* \"contracts/prop_test.sol\":3869:3963  function getnumOfProposals() public view returns(uint){\r... */\n    tag_5:\n      tag_43\n      tag_44\n      jump\t// in\n    tag_43:\n      mload(0x40)\n      tag_45\n      swap2\n      swap1\n      tag_46\n      jump\t// in\n    tag_45:\n      mload(0x40)\n      dup1\n      swap2\n      sub\n      swap1\n      return\n        /* \"contracts/visov_durku.sol\":1163:1330  function bfGetCreatorBallot(uint256 _ballotIndex) public view returns (address) {\r... */\n    tag_6:\n      tag_47\n      0x04\n      dup1\n      calldatasize\n      sub\n      dup2\n      add\n      swap1\n      tag_48\n      swap2\n      swap1\n      tag_36\n      jump\t// in\n    tag_48:\n      tag_49\n      jump\t// in\n    tag_47:\n      mload(0x40)\n      tag_50\n      swap2\n      swap1\n      tag_51\n      jump\t// in\n    tag_50:\n      mload(0x40)\n      dup1\n      swap2\n      sub\n      swap1\n      return\n        /* \"contracts/prop_test.sol\":3749:3827  function getStatus() public view returns(uint){\r... */\n    tag_7:\n      tag_52\n      tag_53\n      jump\t// in\n    tag_52:\n      mload(0x40)\n      tag_54\n      swap2\n      swap1\n      tag_46\n      jump\t// in\n    tag_54:\n      mload(0x40)\n      dup1\n      swap2\n      sub\n      swap1\n      return\n        /* \"contracts/visov_durku.sol\":1489:1636  function getStatus(uint256 _ballotIndex) public view returns(uint) {\r... */\n    tag_8:\n      tag_55\n      0x04\n      dup1\n      calldatasize\n      sub\n      dup2\n      add\n      swap1\n      tag_56\n      swap2\n      swap1\n      tag_36\n      jump\t// in\n    tag_56:\n      tag_57\n      jump\t// in\n    tag_55:\n      mload(0x40)\n      tag_58\n      swap2\n      swap1\n      tag_46\n      jump\t// in\n    tag_58:\n      mload(0x40)\n      dup1\n      swap2\n      sub\n      swap1\n      return\n        /* \"contracts/prop_test.sol\":2667:3021  function winningProposal() public view returns (uint winningProposal){\r... */\n    tag_9:\n      tag_59\n      tag_60\n      jump\t// in\n    tag_59:\n      mload(0x40)\n      tag_61\n      swap2\n      swap1\n      tag_46\n      jump\t// in\n    tag_61:\n      mload(0x40)\n      dup1\n      swap2\n      sub\n      swap1\n      return\n        /* \"contracts/prop_test.sol\":4172:4269  function getProposals() public view returns(Proposal[] memory){\r... */\n    tag_10:\n      tag_62\n      tag_63\n      jump\t// in\n    tag_62:\n      mload(0x40)\n      tag_64\n      swap2\n      swap1\n      tag_65\n      jump\t// in\n    tag_64:\n      mload(0x40)\n      dup1\n      swap2\n      sub\n      swap1\n      return\n        /* \"contracts/visov_durku.sol\":650:788  function bfVote(uint256 _ballotIndex, uint _proposal) public {\r... */\n    tag_11:\n      tag_66\n      0x04\n      dup1\n      calldatasize\n      sub\n      dup2\n      add\n      swap1\n      tag_67\n      swap2\n      swap1\n      tag_68\n      jump\t// in\n    tag_67:\n      tag_69\n      jump\t// in\n    tag_66:\n      stop\n        /* \"contracts/visov_durku.sol\":135:162  Ballot[] public ballotArray */\n    tag_12:\n      tag_70\n      0x04\n      dup1\n      calldatasize\n      sub\n      dup2\n      add\n      swap1\n      tag_71\n      swap2\n      swap1\n      tag_36\n      jump\t// in\n    tag_71:\n      tag_72\n      jump\t// in\n    tag_70:\n      mload(0x40)\n      tag_73\n      swap2\n      swap1\n      tag_74\n      jump\t// in\n    tag_73:\n      mload(0x40)\n      dup1\n      swap2\n      sub\n      swap1\n      return\n        /* \"contracts/prop_test.sol\":3632:3706  function setStatus(uint _status) public{\r... */\n    tag_13:\n      tag_75\n      0x04\n      dup1\n      calldatasize\n      sub\n      dup2\n      add\n      swap1\n      tag_76\n      swap2\n      swap1\n      tag_36\n      jump\t// in\n    tag_76:\n      tag_77\n      jump\t// in\n    tag_75:\n      stop\n        /* \"contracts/visov_durku.sol\":304:477  function bfCreateBallot(uint256 _ballotIndex, string[] memory proposalNames) public {\r... */\n    tag_14:\n      tag_78\n      0x04\n      dup1\n      calldatasize\n      sub\n      dup2\n      add\n      swap1\n      tag_79\n      swap2\n      swap1\n      tag_80\n      jump\t// in\n    tag_79:\n      tag_81\n      jump\t// in\n    tag_78:\n      stop\n        /* \"contracts/visov_durku.sol\":982:1155  function bfWinningName(uint256 _ballotIndex) public view returns (string memory winnerName) {\r... */\n    tag_15:\n      tag_82\n      0x04\n      dup1\n      calldatasize\n      sub\n      dup2\n      add\n      swap1\n      tag_83\n      swap2\n      swap1\n      tag_36\n      jump\t// in\n    tag_83:\n      tag_84\n      jump\t// in\n    tag_82:\n      mload(0x40)\n      tag_85\n      swap2\n      swap1\n      tag_86\n      jump\t// in\n    tag_85:\n      mload(0x40)\n      dup1\n      swap2\n      sub\n      swap1\n      return\n        /* \"contracts/prop_test.sol\":4434:4518  function getStartDate() public view returns(uint){\r... */\n    tag_16:\n      tag_87\n      tag_88\n      jump\t// in\n    tag_87:\n      mload(0x40)\n      tag_89\n      swap2\n      swap1\n      tag_46\n      jump\t// in\n    tag_89:\n      mload(0x40)\n      dup1\n      swap2\n      sub\n      swap1\n      return\n        /* \"contracts/prop_test.sol\":3500:3589  function getCreatorBallot() public view returns(address){\r... */\n    tag_17:\n      tag_90\n      tag_91\n      jump\t// in\n    tag_90:\n      mload(0x40)\n      tag_92\n      swap2\n      swap1\n      tag_51\n      jump\t// in\n    tag_92:\n      mload(0x40)\n      dup1\n      swap2\n      sub\n      swap1\n      return\n        /* \"contracts/prop_test.sol\":907:1647  function createBallot(string[] memory proposalNames) public {\r... */\n    tag_18:\n      tag_93\n      0x04\n      dup1\n      calldatasize\n      sub\n      dup2\n      add\n      swap1\n      tag_94\n      swap2\n      swap1\n      tag_95\n      jump\t// in\n    tag_94:\n      tag_96\n      jump\t// in\n    tag_93:\n      stop\n        /* \"contracts/prop_test.sol\":4560:4632  function setEndDate() public{\r... */\n    tag_19:\n      tag_97\n      tag_98\n      jump\t// in\n    tag_97:\n      stop\n        /* \"contracts/visov_durku.sol\":171:296  function createBallotContract() public {\r... */\n    tag_20:\n      tag_99\n      tag_100\n      jump\t// in\n    tag_99:\n      stop\n        /* \"contracts/prop_test.sol\":1655:2233  function giveRightToVote(address voter) public {\r... */\n    tag_21:\n      tag_101\n      0x04\n      dup1\n      calldatasize\n      sub\n      dup2\n      add\n      swap1\n      tag_102\n      swap2\n      swap1\n      tag_103\n      jump\t// in\n    tag_102:\n      tag_104\n      jump\t// in\n    tag_101:\n      stop\n        /* \"contracts/prop_test.sol\":766:805  mapping(address => Voter) public voters */\n    tag_22:\n      tag_105\n      0x04\n      dup1\n      calldatasize\n      sub\n      dup2\n      add\n      swap1\n      tag_106\n      swap2\n      swap1\n      tag_103\n      jump\t// in\n    tag_106:\n      tag_107\n      jump\t// in\n    tag_105:\n      mload(0x40)\n      tag_108\n      swap5\n      swap4\n      swap3\n      swap2\n      swap1\n      tag_109\n      jump\t// in\n    tag_108:\n      mload(0x40)\n      dup1\n      swap2\n      sub\n      swap1\n      return\n        /* \"contracts/prop_test.sol\":4672:4752  function getEndDate() public view returns(uint){\r... */\n    tag_23:\n      tag_110\n      tag_111\n      jump\t// in\n    tag_110:\n      mload(0x40)\n      tag_112\n      swap2\n      swap1\n      tag_46\n      jump\t// in\n    tag_112:\n      mload(0x40)\n      dup1\n      swap2\n      sub\n      swap1\n      return\n        /* \"contracts/visov_durku.sol\":1338:1481  function bfSetStatus(uint256 _ballotIndex, uint _status) public{\r... */\n    tag_24:\n      tag_113\n      0x04\n      dup1\n      calldatasize\n      sub\n      dup2\n      add\n      swap1\n      tag_114\n      swap2\n      swap1\n      tag_68\n      jump\t// in\n    tag_114:\n      tag_115\n      jump\t// in\n    tag_113:\n      stop\n        /* \"contracts/visov_durku.sol\":485:642  function bfGiveRightToVote(uint256 _ballotIndex, address _voter) public {\r... */\n    tag_25:\n      tag_116\n      0x04\n      dup1\n      calldatasize\n      sub\n      dup2\n      add\n      swap1\n      tag_117\n      swap2\n      swap1\n      tag_118\n      jump\t// in\n    tag_117:\n      tag_119\n      jump\t// in\n    tag_116:\n      stop\n        /* \"contracts/visov_durku.sol\":796:974  function bfWinningProposal(uint256 _ballotIndex) public view returns (uint winningProposal) {\r... */\n    tag_26:\n      tag_120\n      0x04\n      dup1\n      calldatasize\n      sub\n      dup2\n      add\n      swap1\n      tag_121\n      swap2\n      swap1\n      tag_36\n      jump\t// in\n    tag_121:\n      tag_122\n      jump\t// in\n    tag_120:\n      mload(0x40)\n      tag_123\n      swap2\n      swap1\n      tag_46\n      jump\t// in\n    tag_123:\n      mload(0x40)\n      dup1\n      swap2\n      sub\n      swap1\n      return\n        /* \"contracts/prop_test.sol\":3190:3328  function winnerName() public view returns(string memory winnerName)\r... */\n    tag_27:\n      tag_124\n      tag_125\n      jump\t// in\n    tag_124:\n      mload(0x40)\n      tag_126\n      swap2\n      swap1\n      tag_86\n      jump\t// in\n    tag_126:\n      mload(0x40)\n      dup1\n      swap2\n      sub\n      swap1\n      return\n        /* \"contracts/prop_test.sol\":4005:4137  function getProposalStructure(uint _proposalId) public view returns(Proposal memory){\r... */\n    tag_28:\n      tag_127\n      0x04\n      dup1\n      calldatasize\n      sub\n      dup2\n      add\n      swap1\n      tag_128\n      swap2\n      swap1\n      tag_36\n      jump\t// in\n    tag_128:\n      tag_129\n      jump\t// in\n    tag_127:\n      mload(0x40)\n      tag_130\n      swap2\n      swap1\n      tag_131\n      jump\t// in\n    tag_130:\n      mload(0x40)\n      dup1\n      swap2\n      sub\n      swap1\n      return\n        /* \"contracts/prop_test.sol\":2270:2659  function vote(uint proposal) public {\r... */\n    tag_37:\n        /* \"contracts/prop_test.sol\":2317:2337  Voter storage sender */\n      0x00\n        /* \"contracts/prop_test.sol\":2340:2346  voters */\n      0x05\n        /* \"contracts/prop_test.sol\":2340:2358  voters[msg.sender] */\n      0x00\n        /* \"contracts/prop_test.sol\":2347:2357  msg.sender */\n      caller\n        /* \"contracts/prop_test.sol\":2340:2358  voters[msg.sender] */\n      0xffffffffffffffffffffffffffffffffffffffff\n      and\n      0xffffffffffffffffffffffffffffffffffffffff\n      and\n      dup2\n      mstore\n      0x20\n      add\n      swap1\n      dup2\n      mstore\n      0x20\n      add\n      0x00\n      keccak256\n        /* \"contracts/prop_test.sol\":2317:2358  Voter storage sender = voters[msg.sender] */\n      swap1\n      pop\n        /* \"contracts/prop_test.sol\":2378:2384  sender */\n      dup1\n        /* \"contracts/prop_test.sol\":2378:2390  sender.voted */\n      0x01\n      add\n      0x00\n      swap1\n      sload\n      swap1\n      0x0100\n      exp\n      swap1\n      div\n      0xff\n      and\n        /* \"contracts/prop_test.sol\":2377:2390  !sender.voted */\n      iszero\n        /* \"contracts/prop_test.sol\":2369:2391  require(!sender.voted) */\n      tag_133\n      jumpi\n      0x00\n      dup1\n      revert\n    tag_133:\n        /* \"contracts/prop_test.sol\":2417:2421  true */\n      0x01\n        /* \"contracts/prop_test.sol\":2402:2408  sender */\n      dup2\n        /* \"contracts/prop_test.sol\":2402:2414  sender.voted */\n      0x01\n      add\n      0x00\n        /* \"contracts/prop_test.sol\":2402:2421  sender.voted = true */\n      0x0100\n      exp\n      dup2\n      sload\n      dup2\n      0xff\n      mul\n      not\n      and\n      swap1\n      dup4\n      iszero\n      iszero\n      mul\n      or\n      swap1\n      sstore\n      pop\n        /* \"contracts/prop_test.sol\":2446:2454  proposal */\n      dup2\n        /* \"contracts/prop_test.sol\":2432:2438  sender */\n      dup2\n        /* \"contracts/prop_test.sol\":2432:2443  sender.vote */\n      0x02\n      add\n        /* \"contracts/prop_test.sol\":2432:2454  sender.vote = proposal */\n      dup2\n      swap1\n      sstore\n      pop\n        /* \"contracts/prop_test.sol\":2638:2644  sender */\n      dup1\n        /* \"contracts/prop_test.sol\":2638:2651  sender.weight */\n      0x00\n      add\n      sload\n        /* \"contracts/prop_test.sol\":2605:2614  proposals */\n      0x06\n        /* \"contracts/prop_test.sol\":2615:2623  proposal */\n      dup4\n        /* \"contracts/prop_test.sol\":2605:2624  proposals[proposal] */\n      dup2\n      sload\n      dup2\n      lt\n      tag_134\n      jumpi\n      mstore(0x00, 0x4e487b7100000000000000000000000000000000000000000000000000000000)\n      mstore(0x04, 0x32)\n      revert(0x00, 0x24)\n    tag_134:\n      swap1\n      0x00\n      mstore\n      keccak256(0x00, 0x20)\n      swap1\n      0x02\n      mul\n      add\n        /* \"contracts/prop_test.sol\":2605:2634  proposals[proposal].voteCount */\n      0x01\n      add\n      0x00\n        /* \"contracts/prop_test.sol\":2605:2651  proposals[proposal].voteCount += sender.weight */\n      dup3\n      dup3\n      sload\n      tag_136\n      swap2\n      swap1\n      tag_137\n      jump\t// in\n    tag_136:\n      swap3\n      pop\n      pop\n      dup2\n      swap1\n      sstore\n      pop\n        /* \"contracts/prop_test.sol\":2270:2659  function vote(uint proposal) public {\r... */\n      pop\n      pop\n      jump\t// out\n        /* \"contracts/prop_test.sol\":871:898  Proposal[] public proposals */\n    tag_40:\n      0x06\n      dup2\n      dup2\n      sload\n      dup2\n      lt\n      tag_138\n      jumpi\n      0x00\n      dup1\n      revert\n    tag_138:\n      swap1\n      0x00\n      mstore\n      keccak256(0x00, 0x20)\n      swap1\n      0x02\n      mul\n      add\n      0x00\n      swap2\n      pop\n      swap1\n      pop\n      dup1\n      0x00\n      add\n      dup1\n      sload\n      tag_140\n      swap1\n      tag_141\n      jump\t// in\n    tag_140:\n      dup1\n      0x1f\n      add\n      0x20\n      dup1\n      swap2\n      div\n      mul\n      0x20\n      add\n      mload(0x40)\n      swap1\n      dup2\n      add\n      0x40\n      mstore\n      dup1\n      swap3\n      swap2\n      swap1\n      dup2\n      dup2\n      mstore\n      0x20\n      add\n      dup3\n      dup1\n      sload\n      tag_142\n      swap1\n      tag_141\n      jump\t// in\n    tag_142:\n      dup1\n      iszero\n      tag_143\n      jumpi\n      dup1\n      0x1f\n      lt\n      tag_144\n      jumpi\n      0x0100\n      dup1\n      dup4\n      sload\n      div\n      mul\n      dup4\n      mstore\n      swap2\n      0x20\n      add\n      swap2\n      jump(tag_143)\n    tag_144:\n      dup3\n      add\n      swap2\n      swap1\n      0x00\n      mstore\n      keccak256(0x00, 0x20)\n      swap1\n    tag_145:\n      dup2\n      sload\n      dup2\n      mstore\n      swap1\n      0x01\n      add\n      swap1\n      0x20\n      add\n      dup1\n      dup4\n      gt\n      tag_145\n      jumpi\n      dup3\n      swap1\n      sub\n      0x1f\n      and\n      dup3\n      add\n      swap2\n    tag_143:\n      pop\n      pop\n      pop\n      pop\n      pop\n      swap1\n      dup1\n      0x01\n      add\n      sload\n      swap1\n      pop\n      dup3\n      jump\t// out\n        /* \"contracts/prop_test.sol\":3869:3963  function getnumOfProposals() public view returns(uint){\r... */\n    tag_44:\n        /* \"contracts/prop_test.sol\":3918:3922  uint */\n      0x00\n        /* \"contracts/prop_test.sol\":3941:3955  numOfProposals */\n      sload(0x04)\n        /* \"contracts/prop_test.sol\":3934:3955  return numOfProposals */\n      swap1\n      pop\n        /* \"contracts/prop_test.sol\":3869:3963  function getnumOfProposals() public view returns(uint){\r... */\n      swap1\n      jump\t// out\n        /* \"contracts/visov_durku.sol\":1163:1330  function bfGetCreatorBallot(uint256 _ballotIndex) public view returns (address) {\r... */\n    tag_49:\n        /* \"contracts/visov_durku.sol\":1234:1241  address */\n      0x00\n        /* \"contracts/visov_durku.sol\":1276:1287  ballotArray */\n      0x07\n        /* \"contracts/visov_durku.sol\":1288:1300  _ballotIndex */\n      dup3\n        /* \"contracts/visov_durku.sol\":1276:1301  ballotArray[_ballotIndex] */\n      dup2\n      sload\n      dup2\n      lt\n      tag_148\n      jumpi\n      mstore(0x00, 0x4e487b7100000000000000000000000000000000000000000000000000000000)\n      mstore(0x04, 0x32)\n      revert(0x00, 0x24)\n    tag_148:\n      swap1\n      0x00\n      mstore\n      keccak256(0x00, 0x20)\n      add\n      0x00\n      swap1\n      sload\n      swap1\n      0x0100\n      exp\n      swap1\n      div\n      0xffffffffffffffffffffffffffffffffffffffff\n      and\n        /* \"contracts/visov_durku.sol\":1261:1320  Ballot(address(ballotArray[_ballotIndex])).getCreatorBallot */\n      0xffffffffffffffffffffffffffffffffffffffff\n      and\n      0x7a16fcb0\n        /* \"contracts/visov_durku.sol\":1261:1322  Ballot(address(ballotArray[_ballotIndex])).getCreatorBallot() */\n      mload(0x40)\n      dup2\n      0xffffffff\n      and\n      0xe0\n      shl\n      dup2\n      mstore\n      0x04\n      add\n      0x20\n      mload(0x40)\n      dup1\n      dup4\n      sub\n      dup2\n      dup7\n      dup1\n      extcodesize\n      iszero\n      dup1\n      iszero\n      tag_150\n      jumpi\n      0x00\n      dup1\n      revert\n    tag_150:\n      pop\n      gas\n      staticcall\n      iszero\n      dup1\n      iszero\n      tag_152\n      jumpi\n      returndatasize\n      0x00\n      dup1\n      returndatacopy\n      revert(0x00, returndatasize)\n    tag_152:\n      pop\n      pop\n      pop\n      pop\n      mload(0x40)\n      returndatasize\n      not(0x1f)\n      0x1f\n      dup3\n      add\n      and\n      dup3\n      add\n      dup1\n      0x40\n      mstore\n      pop\n      dup2\n      add\n      swap1\n      tag_153\n      swap2\n      swap1\n      tag_154\n      jump\t// in\n    tag_153:\n        /* \"contracts/visov_durku.sol\":1254:1322  return Ballot(address(ballotArray[_ballotIndex])).getCreatorBallot() */\n      swap1\n      pop\n        /* \"contracts/visov_durku.sol\":1163:1330  function bfGetCreatorBallot(uint256 _ballotIndex) public view returns (address) {\r... */\n      swap2\n      swap1\n      pop\n      jump\t// out\n        /* \"contracts/prop_test.sol\":3749:3827  function getStatus() public view returns(uint){\r... */\n    tag_53:\n        /* \"contracts/prop_test.sol\":3790:3794  uint */\n      0x00\n        /* \"contracts/prop_test.sol\":3813:3819  status */\n      sload(0x01)\n        /* \"contracts/prop_test.sol\":3806:3819  return status */\n      swap1\n      pop\n        /* \"contracts/prop_test.sol\":3749:3827  function getStatus() public view returns(uint){\r... */\n      swap1\n      jump\t// out\n        /* \"contracts/visov_durku.sol\":1489:1636  function getStatus(uint256 _ballotIndex) public view returns(uint) {\r... */\n    tag_57:\n        /* \"contracts/visov_durku.sol\":1550:1554  uint */\n      0x00\n        /* \"contracts/visov_durku.sol\":1589:1600  ballotArray */\n      0x07\n        /* \"contracts/visov_durku.sol\":1601:1613  _ballotIndex */\n      dup3\n        /* \"contracts/visov_durku.sol\":1589:1614  ballotArray[_ballotIndex] */\n      dup2\n      sload\n      dup2\n      lt\n      tag_157\n      jumpi\n      mstore(0x00, 0x4e487b7100000000000000000000000000000000000000000000000000000000)\n      mstore(0x04, 0x32)\n      revert(0x00, 0x24)\n    tag_157:\n      swap1\n      0x00\n      mstore\n      keccak256(0x00, 0x20)\n      add\n      0x00\n      swap1\n      sload\n      swap1\n      0x0100\n      exp\n      swap1\n      div\n      0xffffffffffffffffffffffffffffffffffffffff\n      and\n        /* \"contracts/visov_durku.sol\":1574:1626  Ballot(address(ballotArray[_ballotIndex])).getStatus */\n      0xffffffffffffffffffffffffffffffffffffffff\n      and\n      0x4e69d560\n        /* \"contracts/visov_durku.sol\":1574:1628  Ballot(address(ballotArray[_ballotIndex])).getStatus() */\n      mload(0x40)\n      dup2\n      0xffffffff\n      and\n      0xe0\n      shl\n      dup2\n      mstore\n      0x04\n      add\n      0x20\n      mload(0x40)\n      dup1\n      dup4\n      sub\n      dup2\n      dup7\n      dup1\n      extcodesize\n      iszero\n      dup1\n      iszero\n      tag_159\n      jumpi\n      0x00\n      dup1\n      revert\n    tag_159:\n      pop\n      gas\n      staticcall\n      iszero\n      dup1\n      iszero\n      tag_161\n      jumpi\n      returndatasize\n      0x00\n      dup1\n      returndatacopy\n      revert(0x00, returndatasize)\n    tag_161:\n      pop\n      pop\n      pop\n      pop\n      mload(0x40)\n      returndatasize\n      not(0x1f)\n      0x1f\n      dup3\n      add\n      and\n      dup3\n      add\n      dup1\n      0x40\n      mstore\n      pop\n      dup2\n      add\n      swap1\n      tag_162\n      swap2\n      swap1\n      tag_163\n      jump\t// in\n    tag_162:\n        /* \"contracts/visov_durku.sol\":1567:1628  return Ballot(address(ballotArray[_ballotIndex])).getStatus() */\n      swap1\n      pop\n        /* \"contracts/visov_durku.sol\":1489:1636  function getStatus(uint256 _ballotIndex) public view returns(uint) {\r... */\n      swap2\n      swap1\n      pop\n      jump\t// out\n        /* \"contracts/prop_test.sol\":2667:3021  function winningProposal() public view returns (uint winningProposal){\r... */\n    tag_60:\n        /* \"contracts/prop_test.sol\":2715:2735  uint winningProposal */\n      0x00\n        /* \"contracts/prop_test.sol\":2747:2768  uint winningVoteCount */\n      dup1\n        /* \"contracts/prop_test.sol\":2771:2772  0 */\n      0x00\n        /* \"contracts/prop_test.sol\":2747:2772  uint winningVoteCount = 0 */\n      swap1\n      pop\n        /* \"contracts/prop_test.sol\":2788:2794  uint p */\n      0x00\n        /* \"contracts/prop_test.sol\":2783:3014  for (uint p = 0; p < proposals.length; p++) {\r... */\n    tag_165:\n        /* \"contracts/prop_test.sol\":2804:2813  proposals */\n      0x06\n        /* \"contracts/prop_test.sol\":2804:2820  proposals.length */\n      dup1\n      sload\n      swap1\n      pop\n        /* \"contracts/prop_test.sol\":2800:2801  p */\n      dup2\n        /* \"contracts/prop_test.sol\":2800:2820  p < proposals.length */\n      lt\n        /* \"contracts/prop_test.sol\":2783:3014  for (uint p = 0; p < proposals.length; p++) {\r... */\n      iszero\n      tag_166\n      jumpi\n        /* \"contracts/prop_test.sol\":2871:2887  winningVoteCount */\n      dup2\n        /* \"contracts/prop_test.sol\":2846:2855  proposals */\n      0x06\n        /* \"contracts/prop_test.sol\":2856:2857  p */\n      dup3\n        /* \"contracts/prop_test.sol\":2846:2858  proposals[p] */\n      dup2\n      sload\n      dup2\n      lt\n      tag_168\n      jumpi\n      mstore(0x00, 0x4e487b7100000000000000000000000000000000000000000000000000000000)\n      mstore(0x04, 0x32)\n      revert(0x00, 0x24)\n    tag_168:\n      swap1\n      0x00\n      mstore\n      keccak256(0x00, 0x20)\n      swap1\n      0x02\n      mul\n      add\n        /* \"contracts/prop_test.sol\":2846:2868  proposals[p].voteCount */\n      0x01\n      add\n      sload\n        /* \"contracts/prop_test.sol\":2846:2887  proposals[p].voteCount > winningVoteCount */\n      gt\n        /* \"contracts/prop_test.sol\":2842:3003  if (proposals[p].voteCount > winningVoteCount) {\r... */\n      iszero\n      tag_170\n      jumpi\n        /* \"contracts/prop_test.sol\":2927:2936  proposals */\n      0x06\n        /* \"contracts/prop_test.sol\":2937:2938  p */\n      dup2\n        /* \"contracts/prop_test.sol\":2927:2939  proposals[p] */\n      dup2\n      sload\n      dup2\n      lt\n      tag_171\n      jumpi\n      mstore(0x00, 0x4e487b7100000000000000000000000000000000000000000000000000000000)\n      mstore(0x04, 0x32)\n      revert(0x00, 0x24)\n    tag_171:\n      swap1\n      0x00\n      mstore\n      keccak256(0x00, 0x20)\n      swap1\n      0x02\n      mul\n      add\n        /* \"contracts/prop_test.sol\":2927:2949  proposals[p].voteCount */\n      0x01\n      add\n      sload\n        /* \"contracts/prop_test.sol\":2908:2949  winningVoteCount = proposals[p].voteCount */\n      swap2\n      pop\n        /* \"contracts/prop_test.sol\":2986:2987  p */\n      dup1\n        /* \"contracts/prop_test.sol\":2968:2987  winningProposal = p */\n      swap3\n      pop\n        /* \"contracts/prop_test.sol\":2842:3003  if (proposals[p].voteCount > winningVoteCount) {\r... */\n    tag_170:\n        /* \"contracts/prop_test.sol\":2822:2825  p++ */\n      dup1\n      dup1\n      tag_173\n      swap1\n      tag_174\n      jump\t// in\n    tag_173:\n      swap2\n      pop\n      pop\n        /* \"contracts/prop_test.sol\":2783:3014  for (uint p = 0; p < proposals.length; p++) {\r... */\n      jump(tag_165)\n    tag_166:\n      pop\n        /* \"contracts/prop_test.sol\":2667:3021  function winningProposal() public view returns (uint winningProposal){\r... */\n      pop\n      swap1\n      jump\t// out\n        /* \"contracts/prop_test.sol\":4172:4269  function getProposals() public view returns(Proposal[] memory){\r... */\n    tag_63:\n        /* \"contracts/prop_test.sol\":4216:4233  Proposal[] memory */\n      0x60\n        /* \"contracts/prop_test.sol\":4252:4261  proposals */\n      0x06\n        /* \"contracts/prop_test.sol\":4245:4261  return proposals */\n      dup1\n      sload\n      dup1\n      0x20\n      mul\n      0x20\n      add\n      mload(0x40)\n      swap1\n      dup2\n      add\n      0x40\n      mstore\n      dup1\n      swap3\n      swap2\n      swap1\n      dup2\n      dup2\n      mstore\n      0x20\n      add\n      0x00\n      swap1\n    tag_176:\n      dup3\n      dup3\n      lt\n      iszero\n      tag_177\n      jumpi\n      dup4\n      dup3\n      swap1\n      0x00\n      mstore\n      keccak256(0x00, 0x20)\n      swap1\n      0x02\n      mul\n      add\n      mload(0x40)\n      dup1\n      0x40\n      add\n      0x40\n      mstore\n      swap1\n      dup2\n      0x00\n      dup3\n      add\n      dup1\n      sload\n      tag_179\n      swap1\n      tag_141\n      jump\t// in\n    tag_179:\n      dup1\n      0x1f\n      add\n      0x20\n      dup1\n      swap2\n      div\n      mul\n      0x20\n      add\n      mload(0x40)\n      swap1\n      dup2\n      add\n      0x40\n      mstore\n      dup1\n      swap3\n      swap2\n      swap1\n      dup2\n      dup2\n      mstore\n      0x20\n      add\n      dup3\n      dup1\n      sload\n      tag_180\n      swap1\n      tag_141\n      jump\t// in\n    tag_180:\n      dup1\n      iszero\n      tag_181\n      jumpi\n      dup1\n      0x1f\n      lt\n      tag_182\n      jumpi\n      0x0100\n      dup1\n      dup4\n      sload\n      div\n      mul\n      dup4\n      mstore\n      swap2\n      0x20\n      add\n      swap2\n      jump(tag_181)\n    tag_182:\n      dup3\n      add\n      swap2\n      swap1\n      0x00\n      mstore\n      keccak256(0x00, 0x20)\n      swap1\n    tag_183:\n      dup2\n      sload\n      dup2\n      mstore\n      swap1\n      0x01\n      add\n      swap1\n      0x20\n      add\n      dup1\n      dup4\n      gt\n      tag_183\n      jumpi\n      dup3\n      swap1\n      sub\n      0x1f\n      and\n      dup3\n      add\n      swap2\n    tag_181:\n      pop\n      pop\n      pop\n      pop\n      pop\n      dup2\n      mstore\n      0x20\n      add\n      0x01\n      dup3\n      add\n      sload\n      dup2\n      mstore\n      pop\n      pop\n      dup2\n      mstore\n      0x20\n      add\n      swap1\n      0x01\n      add\n      swap1\n      jump(tag_176)\n    tag_177:\n      pop\n      pop\n      pop\n      pop\n      swap1\n      pop\n        /* \"contracts/prop_test.sol\":4172:4269  function getProposals() public view returns(Proposal[] memory){\r... */\n      swap1\n      jump\t// out\n        /* \"contracts/visov_durku.sol\":650:788  function bfVote(uint256 _ballotIndex, uint _proposal) public {\r... */\n    tag_69:\n        /* \"contracts/visov_durku.sol\":737:748  ballotArray */\n      0x07\n        /* \"contracts/visov_durku.sol\":749:761  _ballotIndex */\n      dup3\n        /* \"contracts/visov_durku.sol\":737:762  ballotArray[_ballotIndex] */\n      dup2\n      sload\n      dup2\n      lt\n      tag_185\n      jumpi\n      mstore(0x00, 0x4e487b7100000000000000000000000000000000000000000000000000000000)\n      mstore(0x04, 0x32)\n      revert(0x00, 0x24)\n    tag_185:\n      swap1\n      0x00\n      mstore\n      keccak256(0x00, 0x20)\n      add\n      0x00\n      swap1\n      sload\n      swap1\n      0x0100\n      exp\n      swap1\n      div\n      0xffffffffffffffffffffffffffffffffffffffff\n      and\n        /* \"contracts/visov_durku.sol\":722:769  Ballot(address(ballotArray[_ballotIndex])).vote */\n      0xffffffffffffffffffffffffffffffffffffffff\n      and\n      0x0121b93f\n        /* \"contracts/visov_durku.sol\":770:779  _proposal */\n      dup3\n        /* \"contracts/visov_durku.sol\":722:780  Ballot(address(ballotArray[_ballotIndex])).vote(_proposal) */\n      mload(0x40)\n      dup3\n      0xffffffff\n      and\n      0xe0\n      shl\n      dup2\n      mstore\n      0x04\n      add\n      tag_187\n      swap2\n      swap1\n      tag_46\n      jump\t// in\n    tag_187:\n      0x00\n      mload(0x40)\n      dup1\n      dup4\n      sub\n      dup2\n      0x00\n      dup8\n      dup1\n      extcodesize\n      iszero\n      dup1\n      iszero\n      tag_188\n      jumpi\n      0x00\n      dup1\n      revert\n    tag_188:\n      pop\n      gas\n      call\n      iszero\n      dup1\n      iszero\n      tag_190\n      jumpi\n      returndatasize\n      0x00\n      dup1\n      returndatacopy\n      revert(0x00, returndatasize)\n    tag_190:\n      pop\n      pop\n      pop\n      pop\n        /* \"contracts/visov_durku.sol\":650:788  function bfVote(uint256 _ballotIndex, uint _proposal) public {\r... */\n      pop\n      pop\n      jump\t// out\n        /* \"contracts/visov_durku.sol\":135:162  Ballot[] public ballotArray */\n    tag_72:\n      0x07\n      dup2\n      dup2\n      sload\n      dup2\n      lt\n      tag_191\n      jumpi\n      0x00\n      dup1\n      revert\n    tag_191:\n      swap1\n      0x00\n      mstore\n      keccak256(0x00, 0x20)\n      add\n      0x00\n      swap2\n      pop\n      sload\n      swap1\n      0x0100\n      exp\n      swap1\n      div\n      0xffffffffffffffffffffffffffffffffffffffff\n      and\n      dup2\n      jump\t// out\n        /* \"contracts/prop_test.sol\":3632:3706  function setStatus(uint _status) public{\r... */\n    tag_77:\n        /* \"contracts/prop_test.sol\":3691:3698  _status */\n      dup1\n        /* \"contracts/prop_test.sol\":3682:3688  status */\n      0x01\n        /* \"contracts/prop_test.sol\":3682:3698  status = _status */\n      dup2\n      swap1\n      sstore\n      pop\n        /* \"contracts/prop_test.sol\":3632:3706  function setStatus(uint _status) public{\r... */\n      pop\n      jump\t// out\n        /* \"contracts/visov_durku.sol\":304:477  function bfCreateBallot(uint256 _ballotIndex, string[] memory proposalNames) public {\r... */\n    tag_81:\n        /* \"contracts/visov_durku.sol\":414:425  ballotArray */\n      0x07\n        /* \"contracts/visov_durku.sol\":426:438  _ballotIndex */\n      dup3\n        /* \"contracts/visov_durku.sol\":414:439  ballotArray[_ballotIndex] */\n      dup2\n      sload\n      dup2\n      lt\n      tag_195\n      jumpi\n      mstore(0x00, 0x4e487b7100000000000000000000000000000000000000000000000000000000)\n      mstore(0x04, 0x32)\n      revert(0x00, 0x24)\n    tag_195:\n      swap1\n      0x00\n      mstore\n      keccak256(0x00, 0x20)\n      add\n      0x00\n      swap1\n      sload\n      swap1\n      0x0100\n      exp\n      swap1\n      div\n      0xffffffffffffffffffffffffffffffffffffffff\n      and\n        /* \"contracts/visov_durku.sol\":399:454  Ballot(address(ballotArray[_ballotIndex])).createBallot */\n      0xffffffffffffffffffffffffffffffffffffffff\n      and\n      0x836bc692\n        /* \"contracts/visov_durku.sol\":455:468  proposalNames */\n      dup3\n        /* \"contracts/visov_durku.sol\":399:469  Ballot(address(ballotArray[_ballotIndex])).createBallot(proposalNames) */\n      mload(0x40)\n      dup3\n      0xffffffff\n      and\n      0xe0\n      shl\n      dup2\n      mstore\n      0x04\n      add\n      tag_197\n      swap2\n      swap1\n      tag_198\n      jump\t// in\n    tag_197:\n      0x00\n      mload(0x40)\n      dup1\n      dup4\n      sub\n      dup2\n      0x00\n      dup8\n      dup1\n      extcodesize\n      iszero\n      dup1\n      iszero\n      tag_199\n      jumpi\n      0x00\n      dup1\n      revert\n    tag_199:\n      pop\n      gas\n      call\n      iszero\n      dup1\n      iszero\n      tag_201\n      jumpi\n      returndatasize\n      0x00\n      dup1\n      returndatacopy\n      revert(0x00, returndatasize)\n    tag_201:\n      pop\n      pop\n      pop\n      pop\n        /* \"contracts/visov_durku.sol\":304:477  function bfCreateBallot(uint256 _ballotIndex, string[] memory proposalNames) public {\r... */\n      pop\n      pop\n      jump\t// out\n        /* \"contracts/visov_durku.sol\":982:1155  function bfWinningName(uint256 _ballotIndex) public view returns (string memory winnerName) {\r... */\n    tag_84:\n        /* \"contracts/visov_durku.sol\":1048:1072  string memory winnerName */\n      0x60\n        /* \"contracts/visov_durku.sol\":1107:1118  ballotArray */\n      0x07\n        /* \"contracts/visov_durku.sol\":1119:1131  _ballotIndex */\n      dup3\n        /* \"contracts/visov_durku.sol\":1107:1132  ballotArray[_ballotIndex] */\n      dup2\n      sload\n      dup2\n      lt\n      tag_203\n      jumpi\n      mstore(0x00, 0x4e487b7100000000000000000000000000000000000000000000000000000000)\n      mstore(0x04, 0x32)\n      revert(0x00, 0x24)\n    tag_203:\n      swap1\n      0x00\n      mstore\n      keccak256(0x00, 0x20)\n      add\n      0x00\n      swap1\n      sload\n      swap1\n      0x0100\n      exp\n      swap1\n      div\n      0xffffffffffffffffffffffffffffffffffffffff\n      and\n        /* \"contracts/visov_durku.sol\":1092:1145  Ballot(address(ballotArray[_ballotIndex])).winnerName */\n      0xffffffffffffffffffffffffffffffffffffffff\n      and\n      0xe2ba53f0\n        /* \"contracts/visov_durku.sol\":1092:1147  Ballot(address(ballotArray[_ballotIndex])).winnerName() */\n      mload(0x40)\n      dup2\n      0xffffffff\n      and\n      0xe0\n      shl\n      dup2\n      mstore\n      0x04\n      add\n      0x00\n      mload(0x40)\n      dup1\n      dup4\n      sub\n      dup2\n      dup7\n      dup1\n      extcodesize\n      iszero\n      dup1\n      iszero\n      tag_205\n      jumpi\n      0x00\n      dup1\n      revert\n    tag_205:\n      pop\n      gas\n      staticcall\n      iszero\n      dup1\n      iszero\n      tag_207\n      jumpi\n      returndatasize\n      0x00\n      dup1\n      returndatacopy\n      revert(0x00, returndatasize)\n    tag_207:\n      pop\n      pop\n      pop\n      pop\n      mload(0x40)\n      returndatasize\n      0x00\n      dup3\n      returndatacopy\n      returndatasize\n      not(0x1f)\n      0x1f\n      dup3\n      add\n      and\n      dup3\n      add\n      dup1\n      0x40\n      mstore\n      pop\n      dup2\n      add\n      swap1\n      tag_208\n      swap2\n      swap1\n      tag_209\n      jump\t// in\n    tag_208:\n        /* \"contracts/visov_durku.sol\":1085:1147  return Ballot(address(ballotArray[_ballotIndex])).winnerName() */\n      swap1\n      pop\n        /* \"contracts/visov_durku.sol\":982:1155  function bfWinningName(uint256 _ballotIndex) public view returns (string memory winnerName) {\r... */\n      swap2\n      swap1\n      pop\n      jump\t// out\n        /* \"contracts/prop_test.sol\":4434:4518  function getStartDate() public view returns(uint){\r... */\n    tag_88:\n        /* \"contracts/prop_test.sol\":4478:4482  uint */\n      0x00\n        /* \"contracts/prop_test.sol\":4501:4510  startDate */\n      sload(0x02)\n        /* \"contracts/prop_test.sol\":4494:4510  return startDate */\n      swap1\n      pop\n        /* \"contracts/prop_test.sol\":4434:4518  function getStartDate() public view returns(uint){\r... */\n      swap1\n      jump\t// out\n        /* \"contracts/prop_test.sol\":3500:3589  function getCreatorBallot() public view returns(address){\r... */\n    tag_91:\n        /* \"contracts/prop_test.sol\":3548:3555  address */\n      0x00\n        /* \"contracts/prop_test.sol\":3574:3581  creator */\n      dup1\n      0x00\n      swap1\n      sload\n      swap1\n      0x0100\n      exp\n      swap1\n      div\n      0xffffffffffffffffffffffffffffffffffffffff\n      and\n        /* \"contracts/prop_test.sol\":3567:3581  return creator */\n      swap1\n      pop\n        /* \"contracts/prop_test.sol\":3500:3589  function getCreatorBallot() public view returns(address){\r... */\n      swap1\n      jump\t// out\n        /* \"contracts/prop_test.sol\":907:1647  function createBallot(string[] memory proposalNames) public {\r... */\n    tag_96:\n        /* \"contracts/prop_test.sol\":988:998  msg.sender */\n      caller\n        /* \"contracts/prop_test.sol\":978:985  creator */\n      0x00\n      dup1\n        /* \"contracts/prop_test.sol\":978:998  creator = msg.sender */\n      0x0100\n      exp\n      dup2\n      sload\n      dup2\n      0xffffffffffffffffffffffffffffffffffffffff\n      mul\n      not\n      and\n      swap1\n      dup4\n      0xffffffffffffffffffffffffffffffffffffffff\n      and\n      mul\n      or\n      swap1\n      sstore\n      pop\n        /* \"contracts/prop_test.sol\":1034:1035  1 */\n      0x01\n        /* \"contracts/prop_test.sol\":1009:1015  voters */\n      0x05\n        /* \"contracts/prop_test.sol\":1009:1024  voters[creator] */\n      0x00\n        /* \"contracts/prop_test.sol\":1016:1023  creator */\n      dup1\n      0x00\n      swap1\n      sload\n      swap1\n      0x0100\n      exp\n      swap1\n      div\n      0xffffffffffffffffffffffffffffffffffffffff\n      and\n        /* \"contracts/prop_test.sol\":1009:1024  voters[creator] */\n      0xffffffffffffffffffffffffffffffffffffffff\n      and\n      0xffffffffffffffffffffffffffffffffffffffff\n      and\n      dup2\n      mstore\n      0x20\n      add\n      swap1\n      dup2\n      mstore\n      0x20\n      add\n      0x00\n      keccak256\n        /* \"contracts/prop_test.sol\":1009:1031  voters[creator].weight */\n      0x00\n      add\n        /* \"contracts/prop_test.sol\":1009:1035  voters[creator].weight = 1 */\n      dup2\n      swap1\n      sstore\n      pop\n        /* \"contracts/prop_test.sol\":1057:1058  0 */\n      0x00\n        /* \"contracts/prop_test.sol\":1048:1054  status */\n      0x01\n        /* \"contracts/prop_test.sol\":1048:1058  status = 0 */\n      dup2\n      swap1\n      sstore\n      pop\n        /* \"contracts/prop_test.sol\":1069:1083  setStartDate() */\n      tag_213\n        /* \"contracts/prop_test.sol\":1069:1081  setStartDate */\n      tag_214\n        /* \"contracts/prop_test.sol\":1069:1083  setStartDate() */\n      jump\t// in\n    tag_213:\n        /* \"contracts/prop_test.sol\":1111:1124  proposalNames */\n      dup1\n        /* \"contracts/prop_test.sol\":1111:1131  proposalNames.length */\n      mload\n        /* \"contracts/prop_test.sol\":1094:1108  numOfProposals */\n      0x04\n        /* \"contracts/prop_test.sol\":1094:1131  numOfProposals = proposalNames.length */\n      dup2\n      swap1\n      sstore\n      pop\n        /* \"contracts/prop_test.sol\":1291:1297  uint i */\n      0x00\n        /* \"contracts/prop_test.sol\":1286:1640  for (uint i = 0; i < proposalNames.length; i++) {\r... */\n    tag_215:\n        /* \"contracts/prop_test.sol\":1307:1320  proposalNames */\n      dup2\n        /* \"contracts/prop_test.sol\":1307:1327  proposalNames.length */\n      mload\n        /* \"contracts/prop_test.sol\":1303:1304  i */\n      dup2\n        /* \"contracts/prop_test.sol\":1303:1327  i < proposalNames.length */\n      lt\n        /* \"contracts/prop_test.sol\":1286:1640  for (uint i = 0; i < proposalNames.length; i++) {\r... */\n      iszero\n      tag_216\n      jumpi\n        /* \"contracts/prop_test.sol\":1515:1524  proposals */\n      0x06\n        /* \"contracts/prop_test.sol\":1530:1627  Proposal({\r... */\n      mload(0x40)\n      dup1\n      0x40\n      add\n      0x40\n      mstore\n      dup1\n        /* \"contracts/prop_test.sol\":1564:1577  proposalNames */\n      dup5\n        /* \"contracts/prop_test.sol\":1578:1579  i */\n      dup5\n        /* \"contracts/prop_test.sol\":1564:1580  proposalNames[i] */\n      dup2\n      mload\n      dup2\n      lt\n      tag_218\n      jumpi\n      mstore(0x00, 0x4e487b7100000000000000000000000000000000000000000000000000000000)\n      mstore(0x04, 0x32)\n      revert(0x00, 0x24)\n    tag_218:\n      0x20\n      mul\n      0x20\n      add\n      add\n      mload\n        /* \"contracts/prop_test.sol\":1530:1627  Proposal({\r... */\n      dup2\n      mstore\n      0x20\n      add\n        /* \"contracts/prop_test.sol\":1610:1611  0 */\n      0x00\n        /* \"contracts/prop_test.sol\":1530:1627  Proposal({\r... */\n      dup2\n      mstore\n      pop\n        /* \"contracts/prop_test.sol\":1515:1628  proposals.push(Proposal({\r... */\n      swap1\n      dup1\n      0x01\n      dup2\n      sload\n      add\n      dup1\n      dup3\n      sstore\n      dup1\n      swap2\n      pop\n      pop\n      0x01\n      swap1\n      sub\n      swap1\n      0x00\n      mstore\n      keccak256(0x00, 0x20)\n      swap1\n      0x02\n      mul\n      add\n      0x00\n      swap1\n      swap2\n      swap1\n      swap2\n      swap1\n      swap2\n      pop\n      0x00\n      dup3\n      add\n      mload\n      dup2\n      0x00\n      add\n      swap1\n      dup1\n      mload\n      swap1\n      0x20\n      add\n      swap1\n      tag_220\n      swap3\n      swap2\n      swap1\n      tag_221\n      jump\t// in\n    tag_220:\n      pop\n      0x20\n      dup3\n      add\n      mload\n      dup2\n      0x01\n      add\n      sstore\n      pop\n      pop\n        /* \"contracts/prop_test.sol\":1329:1332  i++ */\n      dup1\n      dup1\n      tag_222\n      swap1\n      tag_174\n      jump\t// in\n    tag_222:\n      swap2\n      pop\n      pop\n        /* \"contracts/prop_test.sol\":1286:1640  for (uint i = 0; i < proposalNames.length; i++) {\r... */\n      jump(tag_215)\n    tag_216:\n      pop\n        /* \"contracts/prop_test.sol\":907:1647  function createBallot(string[] memory proposalNames) public {\r... */\n      pop\n      jump\t// out\n        /* \"contracts/prop_test.sol\":4560:4632  function setEndDate() public{\r... */\n    tag_98:\n        /* \"contracts/prop_test.sol\":4609:4624  block.timestamp */\n      timestamp\n        /* \"contracts/prop_test.sol\":4599:4606  endDate */\n      0x03\n        /* \"contracts/prop_test.sol\":4599:4624  endDate = block.timestamp */\n      dup2\n      swap1\n      sstore\n      pop\n        /* \"contracts/prop_test.sol\":4560:4632  function setEndDate() public{\r... */\n      jump\t// out\n        /* \"contracts/visov_durku.sol\":171:296  function createBallotContract() public {\r... */\n    tag_100:\n        /* \"contracts/visov_durku.sol\":221:234  Ballot ballot */\n      0x00\n        /* \"contracts/visov_durku.sol\":237:249  new Ballot() */\n      mload(0x40)\n      tag_225\n      swap1\n      tag_226\n      jump\t// in\n    tag_225:\n      mload(0x40)\n      dup1\n      swap2\n      sub\n      swap1\n      0x00\n      create\n      dup1\n      iszero\n      dup1\n      iszero\n      tag_227\n      jumpi\n      returndatasize\n      0x00\n      dup1\n      returndatacopy\n      revert(0x00, returndatasize)\n    tag_227:\n      pop\n        /* \"contracts/visov_durku.sol\":221:249  Ballot ballot = new Ballot() */\n      swap1\n      pop\n        /* \"contracts/visov_durku.sol\":260:271  ballotArray */\n      0x07\n        /* \"contracts/visov_durku.sol\":277:283  ballot */\n      dup2\n        /* \"contracts/visov_durku.sol\":260:284  ballotArray.push(ballot) */\n      swap1\n      dup1\n      0x01\n      dup2\n      sload\n      add\n      dup1\n      dup3\n      sstore\n      dup1\n      swap2\n      pop\n      pop\n      0x01\n      swap1\n      sub\n      swap1\n      0x00\n      mstore\n      keccak256(0x00, 0x20)\n      add\n      0x00\n      swap1\n      swap2\n      swap1\n      swap2\n      swap1\n      swap2\n      0x0100\n      exp\n      dup2\n      sload\n      dup2\n      0xffffffffffffffffffffffffffffffffffffffff\n      mul\n      not\n      and\n      swap1\n      dup4\n      0xffffffffffffffffffffffffffffffffffffffff\n      and\n      mul\n      or\n      swap1\n      sstore\n      pop\n        /* \"contracts/visov_durku.sol\":171:296  function createBallotContract() public {\r... */\n      pop\n      jump\t// out\n        /* \"contracts/prop_test.sol\":1655:2233  function giveRightToVote(address voter) public {\r... */\n    tag_104:\n        /* \"contracts/prop_test.sol\":2126:2133  creator */\n      0x00\n      dup1\n      sload\n      swap1\n      0x0100\n      exp\n      swap1\n      div\n      0xffffffffffffffffffffffffffffffffffffffff\n      and\n        /* \"contracts/prop_test.sol\":2112:2133  msg.sender == creator */\n      0xffffffffffffffffffffffffffffffffffffffff\n      and\n        /* \"contracts/prop_test.sol\":2112:2122  msg.sender */\n      caller\n        /* \"contracts/prop_test.sol\":2112:2133  msg.sender == creator */\n      0xffffffffffffffffffffffffffffffffffffffff\n      and\n      eq\n        /* \"contracts/prop_test.sol\":2111:2158  (msg.sender == creator) && !voters[voter].voted */\n      dup1\n      iszero\n      tag_230\n      jumpi\n      pop\n        /* \"contracts/prop_test.sol\":2139:2145  voters */\n      0x05\n        /* \"contracts/prop_test.sol\":2139:2152  voters[voter] */\n      0x00\n        /* \"contracts/prop_test.sol\":2146:2151  voter */\n      dup3\n        /* \"contracts/prop_test.sol\":2139:2152  voters[voter] */\n      0xffffffffffffffffffffffffffffffffffffffff\n      and\n      0xffffffffffffffffffffffffffffffffffffffff\n      and\n      dup2\n      mstore\n      0x20\n      add\n      swap1\n      dup2\n      mstore\n      0x20\n      add\n      0x00\n      keccak256\n        /* \"contracts/prop_test.sol\":2139:2158  voters[voter].voted */\n      0x01\n      add\n      0x00\n      swap1\n      sload\n      swap1\n      0x0100\n      exp\n      swap1\n      div\n      0xff\n      and\n        /* \"contracts/prop_test.sol\":2138:2158  !voters[voter].voted */\n      iszero\n        /* \"contracts/prop_test.sol\":2111:2158  (msg.sender == creator) && !voters[voter].voted */\n    tag_230:\n        /* \"contracts/prop_test.sol\":2111:2189  (msg.sender == creator) && !voters[voter].voted && (voters[voter].weight == 0) */\n      dup1\n      iszero\n      tag_231\n      jumpi\n      pop\n        /* \"contracts/prop_test.sol\":2187:2188  0 */\n      0x00\n        /* \"contracts/prop_test.sol\":2163:2169  voters */\n      0x05\n        /* \"contracts/prop_test.sol\":2163:2176  voters[voter] */\n      0x00\n        /* \"contracts/prop_test.sol\":2170:2175  voter */\n      dup4\n        /* \"contracts/prop_test.sol\":2163:2176  voters[voter] */\n      0xffffffffffffffffffffffffffffffffffffffff\n      and\n      0xffffffffffffffffffffffffffffffffffffffff\n      and\n      dup2\n      mstore\n      0x20\n      add\n      swap1\n      dup2\n      mstore\n      0x20\n      add\n      0x00\n      keccak256\n        /* \"contracts/prop_test.sol\":2163:2183  voters[voter].weight */\n      0x00\n      add\n      sload\n        /* \"contracts/prop_test.sol\":2163:2188  voters[voter].weight == 0 */\n      eq\n        /* \"contracts/prop_test.sol\":2111:2189  (msg.sender == creator) && !voters[voter].voted && (voters[voter].weight == 0) */\n    tag_231:\n        /* \"contracts/prop_test.sol\":2103:2190  require((msg.sender == creator) && !voters[voter].voted && (voters[voter].weight == 0)) */\n      tag_232\n      jumpi\n      0x00\n      dup1\n      revert\n    tag_232:\n        /* \"contracts/prop_test.sol\":2224:2225  1 */\n      0x01\n        /* \"contracts/prop_test.sol\":2201:2207  voters */\n      0x05\n        /* \"contracts/prop_test.sol\":2201:2214  voters[voter] */\n      0x00\n        /* \"contracts/prop_test.sol\":2208:2213  voter */\n      dup4\n        /* \"contracts/prop_test.sol\":2201:2214  voters[voter] */\n      0xffffffffffffffffffffffffffffffffffffffff\n      and\n      0xffffffffffffffffffffffffffffffffffffffff\n      and\n      dup2\n      mstore\n      0x20\n      add\n      swap1\n      dup2\n      mstore\n      0x20\n      add\n      0x00\n      keccak256\n        /* \"contracts/prop_test.sol\":2201:2221  voters[voter].weight */\n      0x00\n      add\n        /* \"contracts/prop_test.sol\":2201:2225  voters[voter].weight = 1 */\n      dup2\n      swap1\n      sstore\n      pop\n        /* \"contracts/prop_test.sol\":1655:2233  function giveRightToVote(address voter) public {\r... */\n      pop\n      jump\t// out\n        /* \"contracts/prop_test.sol\":766:805  mapping(address => Voter) public voters */\n    tag_107:\n      mstore(0x20, 0x05)\n      dup1\n      0x00\n      mstore\n      keccak256(0x00, 0x40)\n      0x00\n      swap2\n      pop\n      swap1\n      pop\n      dup1\n      0x00\n      add\n      sload\n      swap1\n      dup1\n      0x01\n      add\n      0x00\n      swap1\n      sload\n      swap1\n      0x0100\n      exp\n      swap1\n      div\n      0xff\n      and\n      swap1\n      dup1\n      0x01\n      add\n      0x01\n      swap1\n      sload\n      swap1\n      0x0100\n      exp\n      swap1\n      div\n      0xffffffffffffffffffffffffffffffffffffffff\n      and\n      swap1\n      dup1\n      0x02\n      add\n      sload\n      swap1\n      pop\n      dup5\n      jump\t// out\n        /* \"contracts/prop_test.sol\":4672:4752  function getEndDate() public view returns(uint){\r... */\n    tag_111:\n        /* \"contracts/prop_test.sol\":4714:4718  uint */\n      0x00\n        /* \"contracts/prop_test.sol\":4737:4744  endDate */\n      sload(0x03)\n        /* \"contracts/prop_test.sol\":4730:4744  return endDate */\n      swap1\n      pop\n        /* \"contracts/prop_test.sol\":4672:4752  function getEndDate() public view returns(uint){\r... */\n      swap1\n      jump\t// out\n        /* \"contracts/visov_durku.sol\":1338:1481  function bfSetStatus(uint256 _ballotIndex, uint _status) public{\r... */\n    tag_115:\n        /* \"contracts/visov_durku.sol\":1427:1438  ballotArray */\n      0x07\n        /* \"contracts/visov_durku.sol\":1439:1451  _ballotIndex */\n      dup3\n        /* \"contracts/visov_durku.sol\":1427:1452  ballotArray[_ballotIndex] */\n      dup2\n      sload\n      dup2\n      lt\n      tag_235\n      jumpi\n      mstore(0x00, 0x4e487b7100000000000000000000000000000000000000000000000000000000)\n      mstore(0x04, 0x32)\n      revert(0x00, 0x24)\n    tag_235:\n      swap1\n      0x00\n      mstore\n      keccak256(0x00, 0x20)\n      add\n      0x00\n      swap1\n      sload\n      swap1\n      0x0100\n      exp\n      swap1\n      div\n      0xffffffffffffffffffffffffffffffffffffffff\n      and\n        /* \"contracts/visov_durku.sol\":1412:1464  Ballot(address(ballotArray[_ballotIndex])).setStatus */\n      0xffffffffffffffffffffffffffffffffffffffff\n      and\n      0x69ba1a75\n        /* \"contracts/visov_durku.sol\":1465:1472  _status */\n      dup3\n        /* \"contracts/visov_durku.sol\":1412:1473  Ballot(address(ballotArray[_ballotIndex])).setStatus(_status) */\n      mload(0x40)\n      dup3\n      0xffffffff\n      and\n      0xe0\n      shl\n      dup2\n      mstore\n      0x04\n      add\n      tag_237\n      swap2\n      swap1\n      tag_46\n      jump\t// in\n    tag_237:\n      0x00\n      mload(0x40)\n      dup1\n      dup4\n      sub\n      dup2\n      0x00\n      dup8\n      dup1\n      extcodesize\n      iszero\n      dup1\n      iszero\n      tag_238\n      jumpi\n      0x00\n      dup1\n      revert\n    tag_238:\n      pop\n      gas\n      call\n      iszero\n      dup1\n      iszero\n      tag_240\n      jumpi\n      returndatasize\n      0x00\n      dup1\n      returndatacopy\n      revert(0x00, returndatasize)\n    tag_240:\n      pop\n      pop\n      pop\n      pop\n        /* \"contracts/visov_durku.sol\":1338:1481  function bfSetStatus(uint256 _ballotIndex, uint _status) public{\r... */\n      pop\n      pop\n      jump\t// out\n        /* \"contracts/visov_durku.sol\":485:642  function bfGiveRightToVote(uint256 _ballotIndex, address _voter) public {\r... */\n    tag_119:\n        /* \"contracts/visov_durku.sol\":583:594  ballotArray */\n      0x07\n        /* \"contracts/visov_durku.sol\":595:607  _ballotIndex */\n      dup3\n        /* \"contracts/visov_durku.sol\":583:608  ballotArray[_ballotIndex] */\n      dup2\n      sload\n      dup2\n      lt\n      tag_242\n      jumpi\n      mstore(0x00, 0x4e487b7100000000000000000000000000000000000000000000000000000000)\n      mstore(0x04, 0x32)\n      revert(0x00, 0x24)\n    tag_242:\n      swap1\n      0x00\n      mstore\n      keccak256(0x00, 0x20)\n      add\n      0x00\n      swap1\n      sload\n      swap1\n      0x0100\n      exp\n      swap1\n      div\n      0xffffffffffffffffffffffffffffffffffffffff\n      and\n        /* \"contracts/visov_durku.sol\":568:626  Ballot(address(ballotArray[_ballotIndex])).giveRightToVote */\n      0xffffffffffffffffffffffffffffffffffffffff\n      and\n      0x9e7b8d61\n        /* \"contracts/visov_durku.sol\":627:633  _voter */\n      dup3\n        /* \"contracts/visov_durku.sol\":568:634  Ballot(address(ballotArray[_ballotIndex])).giveRightToVote(_voter) */\n      mload(0x40)\n      dup3\n      0xffffffff\n      and\n      0xe0\n      shl\n      dup2\n      mstore\n      0x04\n      add\n      tag_244\n      swap2\n      swap1\n      tag_51\n      jump\t// in\n    tag_244:\n      0x00\n      mload(0x40)\n      dup1\n      dup4\n      sub\n      dup2\n      0x00\n      dup8\n      dup1\n      extcodesize\n      iszero\n      dup1\n      iszero\n      tag_245\n      jumpi\n      0x00\n      dup1\n      revert\n    tag_245:\n      pop\n      gas\n      call\n      iszero\n      dup1\n      iszero\n      tag_247\n      jumpi\n      returndatasize\n      0x00\n      dup1\n      returndatacopy\n      revert(0x00, returndatasize)\n    tag_247:\n      pop\n      pop\n      pop\n      pop\n        /* \"contracts/visov_durku.sol\":485:642  function bfGiveRightToVote(uint256 _ballotIndex, address _voter) public {\r... */\n      pop\n      pop\n      jump\t// out\n        /* \"contracts/visov_durku.sol\":796:974  function bfWinningProposal(uint256 _ballotIndex) public view returns (uint winningProposal) {\r... */\n    tag_122:\n        /* \"contracts/visov_durku.sol\":866:886  uint winningProposal */\n      0x00\n        /* \"contracts/visov_durku.sol\":921:932  ballotArray */\n      0x07\n        /* \"contracts/visov_durku.sol\":933:945  _ballotIndex */\n      dup3\n        /* \"contracts/visov_durku.sol\":921:946  ballotArray[_ballotIndex] */\n      dup2\n      sload\n      dup2\n      lt\n      tag_249\n      jumpi\n      mstore(0x00, 0x4e487b7100000000000000000000000000000000000000000000000000000000)\n      mstore(0x04, 0x32)\n      revert(0x00, 0x24)\n    tag_249:\n      swap1\n      0x00\n      mstore\n      keccak256(0x00, 0x20)\n      add\n      0x00\n      swap1\n      sload\n      swap1\n      0x0100\n      exp\n      swap1\n      div\n      0xffffffffffffffffffffffffffffffffffffffff\n      and\n        /* \"contracts/visov_durku.sol\":906:964  Ballot(address(ballotArray[_ballotIndex])).winningProposal */\n      0xffffffffffffffffffffffffffffffffffffffff\n      and\n      0x609ff1bd\n        /* \"contracts/visov_durku.sol\":906:966  Ballot(address(ballotArray[_ballotIndex])).winningProposal() */\n      mload(0x40)\n      dup2\n      0xffffffff\n      and\n      0xe0\n      shl\n      dup2\n      mstore\n      0x04\n      add\n      0x20\n      mload(0x40)\n      dup1\n      dup4\n      sub\n      dup2\n      dup7\n      dup1\n      extcodesize\n      iszero\n      dup1\n      iszero\n      tag_251\n      jumpi\n      0x00\n      dup1\n      revert\n    tag_251:\n      pop\n      gas\n      staticcall\n      iszero\n      dup1\n      iszero\n      tag_253\n      jumpi\n      returndatasize\n      0x00\n      dup1\n      returndatacopy\n      revert(0x00, returndatasize)\n    tag_253:\n      pop\n      pop\n      pop\n      pop\n      mload(0x40)\n      returndatasize\n      not(0x1f)\n      0x1f\n      dup3\n      add\n      and\n      dup3\n      add\n      dup1\n      0x40\n      mstore\n      pop\n      dup2\n      add\n      swap1\n      tag_254\n      swap2\n      swap1\n      tag_163\n      jump\t// in\n    tag_254:\n        /* \"contracts/visov_durku.sol\":899:966  return Ballot(address(ballotArray[_ballotIndex])).winningProposal() */\n      swap1\n      pop\n        /* \"contracts/visov_durku.sol\":796:974  function bfWinningProposal(uint256 _ballotIndex) public view returns (uint winningProposal) {\r... */\n      swap2\n      swap1\n      pop\n      jump\t// out\n        /* \"contracts/prop_test.sol\":3190:3328  function winnerName() public view returns(string memory winnerName)\r... */\n    tag_125:\n        /* \"contracts/prop_test.sol\":3232:3256  string memory winnerName */\n      0x60\n        /* \"contracts/prop_test.sol\":3287:3296  proposals */\n      0x06\n        /* \"contracts/prop_test.sol\":3297:3314  winningProposal() */\n      tag_256\n        /* \"contracts/prop_test.sol\":3297:3312  winningProposal */\n      tag_60\n        /* \"contracts/prop_test.sol\":3297:3314  winningProposal() */\n      jump\t// in\n    tag_256:\n        /* \"contracts/prop_test.sol\":3287:3315  proposals[winningProposal()] */\n      dup2\n      sload\n      dup2\n      lt\n      tag_257\n      jumpi\n      mstore(0x00, 0x4e487b7100000000000000000000000000000000000000000000000000000000)\n      mstore(0x04, 0x32)\n      revert(0x00, 0x24)\n    tag_257:\n      swap1\n      0x00\n      mstore\n      keccak256(0x00, 0x20)\n      swap1\n      0x02\n      mul\n      add\n        /* \"contracts/prop_test.sol\":3287:3320  proposals[winningProposal()].name */\n      0x00\n      add\n        /* \"contracts/prop_test.sol\":3274:3320  winnerName = proposals[winningProposal()].name */\n      dup1\n      sload\n      tag_259\n      swap1\n      tag_141\n      jump\t// in\n    tag_259:\n      dup1\n      0x1f\n      add\n      0x20\n      dup1\n      swap2\n      div\n      mul\n      0x20\n      add\n      mload(0x40)\n      swap1\n      dup2\n      add\n      0x40\n      mstore\n      dup1\n      swap3\n      swap2\n      swap1\n      dup2\n      dup2\n      mstore\n      0x20\n      add\n      dup3\n      dup1\n      sload\n      tag_260\n      swap1\n      tag_141\n      jump\t// in\n    tag_260:\n      dup1\n      iszero\n      tag_261\n      jumpi\n      dup1\n      0x1f\n      lt\n      tag_262\n      jumpi\n      0x0100\n      dup1\n      dup4\n      sload\n      div\n      mul\n      dup4\n      mstore\n      swap2\n      0x20\n      add\n      swap2\n      jump(tag_261)\n    tag_262:\n      dup3\n      add\n      swap2\n      swap1\n      0x00\n      mstore\n      keccak256(0x00, 0x20)\n      swap1\n    tag_263:\n      dup2\n      sload\n      dup2\n      mstore\n      swap1\n      0x01\n      add\n      swap1\n      0x20\n      add\n      dup1\n      dup4\n      gt\n      tag_263\n      jumpi\n      dup3\n      swap1\n      sub\n      0x1f\n      and\n      dup3\n      add\n      swap2\n    tag_261:\n      pop\n      pop\n      pop\n      pop\n      pop\n      swap1\n      pop\n        /* \"contracts/prop_test.sol\":3190:3328  function winnerName() public view returns(string memory winnerName)\r... */\n      swap1\n      jump\t// out\n        /* \"contracts/prop_test.sol\":4005:4137  function getProposalStructure(uint _proposalId) public view returns(Proposal memory){\r... */\n    tag_129:\n        /* \"contracts/prop_test.sol\":4073:4088  Proposal memory */\n      tag_264\n      tag_265\n      jump\t// in\n    tag_264:\n        /* \"contracts/prop_test.sol\":4107:4116  proposals */\n      0x06\n        /* \"contracts/prop_test.sol\":4117:4128  _proposalId */\n      dup3\n        /* \"contracts/prop_test.sol\":4107:4129  proposals[_proposalId] */\n      dup2\n      sload\n      dup2\n      lt\n      tag_267\n      jumpi\n      mstore(0x00, 0x4e487b7100000000000000000000000000000000000000000000000000000000)\n      mstore(0x04, 0x32)\n      revert(0x00, 0x24)\n    tag_267:\n      swap1\n      0x00\n      mstore\n      keccak256(0x00, 0x20)\n      swap1\n      0x02\n      mul\n      add\n        /* \"contracts/prop_test.sol\":4100:4129  return proposals[_proposalId] */\n      mload(0x40)\n      dup1\n      0x40\n      add\n      0x40\n      mstore\n      swap1\n      dup2\n      0x00\n      dup3\n      add\n      dup1\n      sload\n      tag_269\n      swap1\n      tag_141\n      jump\t// in\n    tag_269:\n      dup1\n      0x1f\n      add\n      0x20\n      dup1\n      swap2\n      div\n      mul\n      0x20\n      add\n      mload(0x40)\n      swap1\n      dup2\n      add\n      0x40\n      mstore\n      dup1\n      swap3\n      swap2\n      swap1\n      dup2\n      dup2\n      mstore\n      0x20\n      add\n      dup3\n      dup1\n      sload\n      tag_270\n      swap1\n      tag_141\n      jump\t// in\n    tag_270:\n      dup1\n      iszero\n      tag_271\n      jumpi\n      dup1\n      0x1f\n      lt\n      tag_272\n      jumpi\n      0x0100\n      dup1\n      dup4\n      sload\n      div\n      mul\n      dup4\n      mstore\n      swap2\n      0x20\n      add\n      swap2\n      jump(tag_271)\n    tag_272:\n      dup3\n      add\n      swap2\n      swap1\n      0x00\n      mstore\n      keccak256(0x00, 0x20)\n      swap1\n    tag_273:\n      dup2\n      sload\n      dup2\n      mstore\n      swap1\n      0x01\n      add\n      swap1\n      0x20\n      add\n      dup1\n      dup4\n      gt\n      tag_273\n      jumpi\n      dup3\n      swap1\n      sub\n      0x1f\n      and\n      dup3\n      add\n      swap2\n    tag_271:\n      pop\n      pop\n      pop\n      pop\n      pop\n      dup2\n      mstore\n      0x20\n      add\n      0x01\n      dup3\n      add\n      sload\n      dup2\n      mstore\n      pop\n      pop\n      swap1\n      pop\n        /* \"contracts/prop_test.sol\":4005:4137  function getProposalStructure(uint _proposalId) public view returns(Proposal memory){\r... */\n      swap2\n      swap1\n      pop\n      jump\t// out\n        /* \"contracts/prop_test.sol\":4313:4392  function setStartDate() internal {\r... */\n    tag_214:\n        /* \"contracts/prop_test.sol\":4369:4384  block.timestamp */\n      timestamp\n        /* \"contracts/prop_test.sol\":4357:4366  startDate */\n      0x02\n        /* \"contracts/prop_test.sol\":4357:4384  startDate = block.timestamp */\n      dup2\n      swap1\n      sstore\n      pop\n        /* \"contracts/prop_test.sol\":4313:4392  function setStartDate() internal {\r... */\n      jump\t// out\n    tag_221:\n      dup3\n      dup1\n      sload\n      tag_275\n      swap1\n      tag_141\n      jump\t// in\n    tag_275:\n      swap1\n      0x00\n      mstore\n      keccak256(0x00, 0x20)\n      swap1\n      0x1f\n      add\n      0x20\n      swap1\n      div\n      dup2\n      add\n      swap3\n      dup3\n      tag_277\n      jumpi\n      0x00\n      dup6\n      sstore\n      jump(tag_276)\n    tag_277:\n      dup3\n      0x1f\n      lt\n      tag_278\n      jumpi\n      dup1\n      mload\n      not(0xff)\n      and\n      dup4\n      dup1\n      add\n      or\n      dup6\n      sstore\n      jump(tag_276)\n    tag_278:\n      dup3\n      dup1\n      add\n      0x01\n      add\n      dup6\n      sstore\n      dup3\n      iszero\n      tag_276\n      jumpi\n      swap2\n      dup3\n      add\n    tag_279:\n      dup3\n      dup2\n      gt\n      iszero\n      tag_280\n      jumpi\n      dup3\n      mload\n      dup3\n      sstore\n      swap2\n      0x20\n      add\n      swap2\n      swap1\n      0x01\n      add\n      swap1\n      jump(tag_279)\n    tag_280:\n    tag_276:\n      pop\n      swap1\n      pop\n      tag_281\n      swap2\n      swap1\n      tag_282\n      jump\t// in\n    tag_281:\n      pop\n      swap1\n      jump\t// out\n    tag_226:\n      dataSize(sub_0)\n      dup1\n      dataOffset(sub_0)\n      dup4\n      codecopy\n      add\n      swap1\n      jump\t// out\n    tag_265:\n      mload(0x40)\n      dup1\n      0x40\n      add\n      0x40\n      mstore\n      dup1\n      0x60\n      dup2\n      mstore\n      0x20\n      add\n      0x00\n      dup2\n      mstore\n      pop\n      swap1\n      jump\t// out\n    tag_282:\n    tag_283:\n      dup1\n      dup3\n      gt\n      iszero\n      tag_284\n      jumpi\n      0x00\n      dup2\n      0x00\n      swap1\n      sstore\n      pop\n      0x01\n      add\n      jump(tag_283)\n    tag_284:\n      pop\n      swap1\n      jump\t// out\n        /* \"#utility.yul\":23:638   */\n    tag_286:\n      0x00\n        /* \"#utility.yul\":154:244   */\n      tag_288\n        /* \"#utility.yul\":169:243   */\n      tag_289\n        /* \"#utility.yul\":236:242   */\n      dup5\n        /* \"#utility.yul\":169:243   */\n      tag_290\n      jump\t// in\n    tag_289:\n        /* \"#utility.yul\":154:244   */\n      tag_291\n      jump\t// in\n    tag_288:\n        /* \"#utility.yul\":145:244   */\n      swap1\n      pop\n        /* \"#utility.yul\":264:269   */\n      dup1\n        /* \"#utility.yul\":292:298   */\n      dup4\n        /* \"#utility.yul\":285:290   */\n      dup3\n        /* \"#utility.yul\":278:299   */\n      mstore\n        /* \"#utility.yul\":318:322   */\n      0x20\n        /* \"#utility.yul\":311:316   */\n      dup3\n        /* \"#utility.yul\":307:323   */\n      add\n        /* \"#utility.yul\":300:323   */\n      swap1\n      pop\n        /* \"#utility.yul\":343:349   */\n      dup3\n        /* \"#utility.yul\":374:375   */\n      0x00\n        /* \"#utility.yul\":359:632   */\n    tag_292:\n        /* \"#utility.yul\":384:390   */\n      dup6\n        /* \"#utility.yul\":381:382   */\n      dup2\n        /* \"#utility.yul\":378:391   */\n      lt\n        /* \"#utility.yul\":359:632   */\n      iszero\n      tag_294\n      jumpi\n        /* \"#utility.yul\":476:479   */\n      dup2\n        /* \"#utility.yul\":463:480   */\n      calldataload\n        /* \"#utility.yul\":455:461   */\n      dup6\n        /* \"#utility.yul\":451:481   */\n      add\n        /* \"#utility.yul\":506:553   */\n      tag_295\n        /* \"#utility.yul\":549:552   */\n      dup9\n        /* \"#utility.yul\":537:547   */\n      dup3\n        /* \"#utility.yul\":506:553   */\n      tag_296\n      jump\t// in\n    tag_295:\n        /* \"#utility.yul\":501:504   */\n      dup5\n        /* \"#utility.yul\":494:554   */\n      mstore\n        /* \"#utility.yul\":583:587   */\n      0x20\n        /* \"#utility.yul\":578:581   */\n      dup5\n        /* \"#utility.yul\":574:588   */\n      add\n        /* \"#utility.yul\":567:588   */\n      swap4\n      pop\n        /* \"#utility.yul\":617:621   */\n      0x20\n        /* \"#utility.yul\":612:615   */\n      dup4\n        /* \"#utility.yul\":608:622   */\n      add\n        /* \"#utility.yul\":601:622   */\n      swap3\n      pop\n        /* \"#utility.yul\":419:632   */\n      pop\n        /* \"#utility.yul\":406:407   */\n      0x01\n        /* \"#utility.yul\":403:404   */\n      dup2\n        /* \"#utility.yul\":399:408   */\n      add\n        /* \"#utility.yul\":394:408   */\n      swap1\n      pop\n        /* \"#utility.yul\":359:632   */\n      jump(tag_292)\n    tag_294:\n        /* \"#utility.yul\":363:377   */\n      pop\n        /* \"#utility.yul\":135:638   */\n      pop\n      pop\n      swap4\n      swap3\n      pop\n      pop\n      pop\n      jump\t// out\n        /* \"#utility.yul\":644:988   */\n    tag_297:\n      0x00\n        /* \"#utility.yul\":747:812   */\n      tag_299\n        /* \"#utility.yul\":762:811   */\n      tag_300\n        /* \"#utility.yul\":804:810   */\n      dup5\n        /* \"#utility.yul\":762:811   */\n      tag_301\n      jump\t// in\n    tag_300:\n        /* \"#utility.yul\":747:812   */\n      tag_291\n      jump\t// in\n    tag_299:\n        /* \"#utility.yul\":738:812   */\n      swap1\n      pop\n        /* \"#utility.yul\":835:841   */\n      dup3\n        /* \"#utility.yul\":828:833   */\n      dup2\n        /* \"#utility.yul\":821:842   */\n      mstore\n        /* \"#utility.yul\":873:877   */\n      0x20\n        /* \"#utility.yul\":866:871   */\n      dup2\n        /* \"#utility.yul\":862:878   */\n      add\n        /* \"#utility.yul\":911:914   */\n      dup5\n        /* \"#utility.yul\":902:908   */\n      dup5\n        /* \"#utility.yul\":897:900   */\n      dup5\n        /* \"#utility.yul\":893:909   */\n      add\n        /* \"#utility.yul\":890:915   */\n      gt\n        /* \"#utility.yul\":887:889   */\n      iszero\n      tag_302\n      jumpi\n        /* \"#utility.yul\":928:929   */\n      0x00\n        /* \"#utility.yul\":925:926   */\n      dup1\n        /* \"#utility.yul\":918:930   */\n      revert\n        /* \"#utility.yul\":887:889   */\n    tag_302:\n        /* \"#utility.yul\":941:982   */\n      tag_303\n        /* \"#utility.yul\":975:981   */\n      dup5\n        /* \"#utility.yul\":970:973   */\n      dup3\n        /* \"#utility.yul\":965:968   */\n      dup6\n        /* \"#utility.yul\":941:982   */\n      tag_304\n      jump\t// in\n    tag_303:\n        /* \"#utility.yul\":728:988   */\n      pop\n      swap4\n      swap3\n      pop\n      pop\n      pop\n      jump\t// out\n        /* \"#utility.yul\":994:1347   */\n    tag_305:\n      0x00\n        /* \"#utility.yul\":1108:1173   */\n      tag_307\n        /* \"#utility.yul\":1123:1172   */\n      tag_308\n        /* \"#utility.yul\":1165:1171   */\n      dup5\n        /* \"#utility.yul\":1123:1172   */\n      tag_301\n      jump\t// in\n    tag_308:\n        /* \"#utility.yul\":1108:1173   */\n      tag_291\n      jump\t// in\n    tag_307:\n        /* \"#utility.yul\":1099:1173   */\n      swap1\n      pop\n        /* \"#utility.yul\":1196:1202   */\n      dup3\n        /* \"#utility.yul\":1189:1194   */\n      dup2\n        /* \"#utility.yul\":1182:1203   */\n      mstore\n        /* \"#utility.yul\":1234:1238   */\n      0x20\n        /* \"#utility.yul\":1227:1232   */\n      dup2\n        /* \"#utility.yul\":1223:1239   */\n      add\n        /* \"#utility.yul\":1272:1275   */\n      dup5\n        /* \"#utility.yul\":1263:1269   */\n      dup5\n        /* \"#utility.yul\":1258:1261   */\n      dup5\n        /* \"#utility.yul\":1254:1270   */\n      add\n        /* \"#utility.yul\":1251:1276   */\n      gt\n        /* \"#utility.yul\":1248:1250   */\n      iszero\n      tag_309\n      jumpi\n        /* \"#utility.yul\":1289:1290   */\n      0x00\n        /* \"#utility.yul\":1286:1287   */\n      dup1\n        /* \"#utility.yul\":1279:1291   */\n      revert\n        /* \"#utility.yul\":1248:1250   */\n    tag_309:\n        /* \"#utility.yul\":1302:1341   */\n      tag_310\n        /* \"#utility.yul\":1334:1340   */\n      dup5\n        /* \"#utility.yul\":1329:1332   */\n      dup3\n        /* \"#utility.yul\":1324:1327   */\n      dup6\n        /* \"#utility.yul\":1302:1341   */\n      tag_311\n      jump\t// in\n    tag_310:\n        /* \"#utility.yul\":1089:1347   */\n      pop\n      swap4\n      swap3\n      pop\n      pop\n      pop\n      jump\t// out\n        /* \"#utility.yul\":1353:1492   */\n    tag_312:\n      0x00\n        /* \"#utility.yul\":1437:1443   */\n      dup2\n        /* \"#utility.yul\":1424:1444   */\n      calldataload\n        /* \"#utility.yul\":1415:1444   */\n      swap1\n      pop\n        /* \"#utility.yul\":1453:1486   */\n      tag_314\n        /* \"#utility.yul\":1480:1485   */\n      dup2\n        /* \"#utility.yul\":1453:1486   */\n      tag_315\n      jump\t// in\n    tag_314:\n        /* \"#utility.yul\":1405:1492   */\n      swap3\n      swap2\n      pop\n      pop\n      jump\t// out\n        /* \"#utility.yul\":1498:1641   */\n    tag_316:\n      0x00\n        /* \"#utility.yul\":1586:1592   */\n      dup2\n        /* \"#utility.yul\":1580:1593   */\n      mload\n        /* \"#utility.yul\":1571:1593   */\n      swap1\n      pop\n        /* \"#utility.yul\":1602:1635   */\n      tag_318\n        /* \"#utility.yul\":1629:1634   */\n      dup2\n        /* \"#utility.yul\":1602:1635   */\n      tag_315\n      jump\t// in\n    tag_318:\n        /* \"#utility.yul\":1561:1641   */\n      swap3\n      swap2\n      pop\n      pop\n      jump\t// out\n        /* \"#utility.yul\":1663:1986   */\n    tag_319:\n      0x00\n        /* \"#utility.yul\":1793:1796   */\n      dup3\n        /* \"#utility.yul\":1786:1790   */\n      0x1f\n        /* \"#utility.yul\":1778:1784   */\n      dup4\n        /* \"#utility.yul\":1774:1791   */\n      add\n        /* \"#utility.yul\":1770:1797   */\n      slt\n        /* \"#utility.yul\":1760:1762   */\n      tag_321\n      jumpi\n        /* \"#utility.yul\":1811:1812   */\n      0x00\n        /* \"#utility.yul\":1808:1809   */\n      dup1\n        /* \"#utility.yul\":1801:1813   */\n      revert\n        /* \"#utility.yul\":1760:1762   */\n    tag_321:\n        /* \"#utility.yul\":1851:1857   */\n      dup2\n        /* \"#utility.yul\":1838:1858   */\n      calldataload\n        /* \"#utility.yul\":1876:1980   */\n      tag_322\n        /* \"#utility.yul\":1976:1979   */\n      dup5\n        /* \"#utility.yul\":1968:1974   */\n      dup3\n        /* \"#utility.yul\":1961:1965   */\n      0x20\n        /* \"#utility.yul\":1953:1959   */\n      dup7\n        /* \"#utility.yul\":1949:1966   */\n      add\n        /* \"#utility.yul\":1876:1980   */\n      tag_286\n      jump\t// in\n    tag_322:\n        /* \"#utility.yul\":1867:1980   */\n      swap2\n      pop\n        /* \"#utility.yul\":1750:1986   */\n      pop\n      swap3\n      swap2\n      pop\n      pop\n      jump\t// out\n        /* \"#utility.yul\":2006:2279   */\n    tag_296:\n      0x00\n        /* \"#utility.yul\":2111:2114   */\n      dup3\n        /* \"#utility.yul\":2104:2108   */\n      0x1f\n        /* \"#utility.yul\":2096:2102   */\n      dup4\n        /* \"#utility.yul\":2092:2109   */\n      add\n        /* \"#utility.yul\":2088:2115   */\n      slt\n        /* \"#utility.yul\":2078:2080   */\n      tag_324\n      jumpi\n        /* \"#utility.yul\":2129:2130   */\n      0x00\n        /* \"#utility.yul\":2126:2127   */\n      dup1\n        /* \"#utility.yul\":2119:2131   */\n      revert\n        /* \"#utility.yul\":2078:2080   */\n    tag_324:\n        /* \"#utility.yul\":2169:2175   */\n      dup2\n        /* \"#utility.yul\":2156:2176   */\n      calldataload\n        /* \"#utility.yul\":2194:2273   */\n      tag_325\n        /* \"#utility.yul\":2269:2272   */\n      dup5\n        /* \"#utility.yul\":2261:2267   */\n      dup3\n        /* \"#utility.yul\":2254:2258   */\n      0x20\n        /* \"#utility.yul\":2246:2252   */\n      dup7\n        /* \"#utility.yul\":2242:2259   */\n      add\n        /* \"#utility.yul\":2194:2273   */\n      tag_297\n      jump\t// in\n    tag_325:\n        /* \"#utility.yul\":2185:2273   */\n      swap2\n      pop\n        /* \"#utility.yul\":2068:2279   */\n      pop\n      swap3\n      swap2\n      pop\n      pop\n      jump\t// out\n        /* \"#utility.yul\":2299:2587   */\n    tag_326:\n      0x00\n        /* \"#utility.yul\":2415:2418   */\n      dup3\n        /* \"#utility.yul\":2408:2412   */\n      0x1f\n        /* \"#utility.yul\":2400:2406   */\n      dup4\n        /* \"#utility.yul\":2396:2413   */\n      add\n        /* \"#utility.yul\":2392:2419   */\n      slt\n        /* \"#utility.yul\":2382:2384   */\n      tag_328\n      jumpi\n        /* \"#utility.yul\":2433:2434   */\n      0x00\n        /* \"#utility.yul\":2430:2431   */\n      dup1\n        /* \"#utility.yul\":2423:2435   */\n      revert\n        /* \"#utility.yul\":2382:2384   */\n    tag_328:\n        /* \"#utility.yul\":2466:2472   */\n      dup2\n        /* \"#utility.yul\":2460:2473   */\n      mload\n        /* \"#utility.yul\":2491:2581   */\n      tag_329\n        /* \"#utility.yul\":2577:2580   */\n      dup5\n        /* \"#utility.yul\":2569:2575   */\n      dup3\n        /* \"#utility.yul\":2562:2566   */\n      0x20\n        /* \"#utility.yul\":2554:2560   */\n      dup7\n        /* \"#utility.yul\":2550:2567   */\n      add\n        /* \"#utility.yul\":2491:2581   */\n      tag_305\n      jump\t// in\n    tag_329:\n        /* \"#utility.yul\":2482:2581   */\n      swap2\n      pop\n        /* \"#utility.yul\":2372:2587   */\n      pop\n      swap3\n      swap2\n      pop\n      pop\n      jump\t// out\n        /* \"#utility.yul\":2593:2732   */\n    tag_330:\n      0x00\n        /* \"#utility.yul\":2677:2683   */\n      dup2\n        /* \"#utility.yul\":2664:2684   */\n      calldataload\n        /* \"#utility.yul\":2655:2684   */\n      swap1\n      pop\n        /* \"#utility.yul\":2693:2726   */\n      tag_332\n        /* \"#utility.yul\":2720:2725   */\n      dup2\n        /* \"#utility.yul\":2693:2726   */\n      tag_333\n      jump\t// in\n    tag_332:\n        /* \"#utility.yul\":2645:2732   */\n      swap3\n      swap2\n      pop\n      pop\n      jump\t// out\n        /* \"#utility.yul\":2738:2881   */\n    tag_334:\n      0x00\n        /* \"#utility.yul\":2826:2832   */\n      dup2\n        /* \"#utility.yul\":2820:2833   */\n      mload\n        /* \"#utility.yul\":2811:2833   */\n      swap1\n      pop\n        /* \"#utility.yul\":2842:2875   */\n      tag_336\n        /* \"#utility.yul\":2869:2874   */\n      dup2\n        /* \"#utility.yul\":2842:2875   */\n      tag_333\n      jump\t// in\n    tag_336:\n        /* \"#utility.yul\":2801:2881   */\n      swap3\n      swap2\n      pop\n      pop\n      jump\t// out\n        /* \"#utility.yul\":2887:3149   */\n    tag_103:\n      0x00\n        /* \"#utility.yul\":2995:2997   */\n      0x20\n        /* \"#utility.yul\":2983:2992   */\n      dup3\n        /* \"#utility.yul\":2974:2981   */\n      dup5\n        /* \"#utility.yul\":2970:2993   */\n      sub\n        /* \"#utility.yul\":2966:2998   */\n      slt\n        /* \"#utility.yul\":2963:2965   */\n      iszero\n      tag_338\n      jumpi\n        /* \"#utility.yul\":3011:3012   */\n      0x00\n        /* \"#utility.yul\":3008:3009   */\n      dup1\n        /* \"#utility.yul\":3001:3013   */\n      revert\n        /* \"#utility.yul\":2963:2965   */\n    tag_338:\n        /* \"#utility.yul\":3054:3055   */\n      0x00\n        /* \"#utility.yul\":3079:3132   */\n      tag_339\n        /* \"#utility.yul\":3124:3131   */\n      dup5\n        /* \"#utility.yul\":3115:3121   */\n      dup3\n        /* \"#utility.yul\":3104:3113   */\n      dup6\n        /* \"#utility.yul\":3100:3122   */\n      add\n        /* \"#utility.yul\":3079:3132   */\n      tag_312\n      jump\t// in\n    tag_339:\n        /* \"#utility.yul\":3069:3132   */\n      swap2\n      pop\n        /* \"#utility.yul\":3025:3142   */\n      pop\n        /* \"#utility.yul\":2953:3149   */\n      swap3\n      swap2\n      pop\n      pop\n      jump\t// out\n        /* \"#utility.yul\":3155:3439   */\n    tag_154:\n      0x00\n        /* \"#utility.yul\":3274:3276   */\n      0x20\n        /* \"#utility.yul\":3262:3271   */\n      dup3\n        /* \"#utility.yul\":3253:3260   */\n      dup5\n        /* \"#utility.yul\":3249:3272   */\n      sub\n        /* \"#utility.yul\":3245:3277   */\n      slt\n        /* \"#utility.yul\":3242:3244   */\n      iszero\n      tag_341\n      jumpi\n        /* \"#utility.yul\":3290:3291   */\n      0x00\n        /* \"#utility.yul\":3287:3288   */\n      dup1\n        /* \"#utility.yul\":3280:3292   */\n      revert\n        /* \"#utility.yul\":3242:3244   */\n    tag_341:\n        /* \"#utility.yul\":3333:3334   */\n      0x00\n        /* \"#utility.yul\":3358:3422   */\n      tag_342\n        /* \"#utility.yul\":3414:3421   */\n      dup5\n        /* \"#utility.yul\":3405:3411   */\n      dup3\n        /* \"#utility.yul\":3394:3403   */\n      dup6\n        /* \"#utility.yul\":3390:3412   */\n      add\n        /* \"#utility.yul\":3358:3422   */\n      tag_316\n      jump\t// in\n    tag_342:\n        /* \"#utility.yul\":3348:3422   */\n      swap2\n      pop\n        /* \"#utility.yul\":3304:3432   */\n      pop\n        /* \"#utility.yul\":3232:3439   */\n      swap3\n      swap2\n      pop\n      pop\n      jump\t// out\n        /* \"#utility.yul\":3445:3870   */\n    tag_95:\n      0x00\n        /* \"#utility.yul\":3588:3590   */\n      0x20\n        /* \"#utility.yul\":3576:3585   */\n      dup3\n        /* \"#utility.yul\":3567:3574   */\n      dup5\n        /* \"#utility.yul\":3563:3586   */\n      sub\n        /* \"#utility.yul\":3559:3591   */\n      slt\n        /* \"#utility.yul\":3556:3558   */\n      iszero\n      tag_344\n      jumpi\n        /* \"#utility.yul\":3604:3605   */\n      0x00\n        /* \"#utility.yul\":3601:3602   */\n      dup1\n        /* \"#utility.yul\":3594:3606   */\n      revert\n        /* \"#utility.yul\":3556:3558   */\n    tag_344:\n        /* \"#utility.yul\":3675:3676   */\n      0x00\n        /* \"#utility.yul\":3664:3673   */\n      dup3\n        /* \"#utility.yul\":3660:3677   */\n      add\n        /* \"#utility.yul\":3647:3678   */\n      calldataload\n        /* \"#utility.yul\":3705:3723   */\n      0xffffffffffffffff\n        /* \"#utility.yul\":3697:3703   */\n      dup2\n        /* \"#utility.yul\":3694:3724   */\n      gt\n        /* \"#utility.yul\":3691:3693   */\n      iszero\n      tag_345\n      jumpi\n        /* \"#utility.yul\":3737:3738   */\n      0x00\n        /* \"#utility.yul\":3734:3735   */\n      dup1\n        /* \"#utility.yul\":3727:3739   */\n      revert\n        /* \"#utility.yul\":3691:3693   */\n    tag_345:\n        /* \"#utility.yul\":3765:3853   */\n      tag_346\n        /* \"#utility.yul\":3845:3852   */\n      dup5\n        /* \"#utility.yul\":3836:3842   */\n      dup3\n        /* \"#utility.yul\":3825:3834   */\n      dup6\n        /* \"#utility.yul\":3821:3843   */\n      add\n        /* \"#utility.yul\":3765:3853   */\n      tag_319\n      jump\t// in\n    tag_346:\n        /* \"#utility.yul\":3755:3853   */\n      swap2\n      pop\n        /* \"#utility.yul\":3618:3863   */\n      pop\n        /* \"#utility.yul\":3546:3870   */\n      swap3\n      swap2\n      pop\n      pop\n      jump\t// out\n        /* \"#utility.yul\":3876:4266   */\n    tag_209:\n      0x00\n        /* \"#utility.yul\":4005:4007   */\n      0x20\n        /* \"#utility.yul\":3993:4002   */\n      dup3\n        /* \"#utility.yul\":3984:3991   */\n      dup5\n        /* \"#utility.yul\":3980:4003   */\n      sub\n        /* \"#utility.yul\":3976:4008   */\n      slt\n        /* \"#utility.yul\":3973:3975   */\n      iszero\n      tag_348\n      jumpi\n        /* \"#utility.yul\":4021:4022   */\n      0x00\n        /* \"#utility.yul\":4018:4019   */\n      dup1\n        /* \"#utility.yul\":4011:4023   */\n      revert\n        /* \"#utility.yul\":3973:3975   */\n    tag_348:\n        /* \"#utility.yul\":4085:4086   */\n      0x00\n        /* \"#utility.yul\":4074:4083   */\n      dup3\n        /* \"#utility.yul\":4070:4087   */\n      add\n        /* \"#utility.yul\":4064:4088   */\n      mload\n        /* \"#utility.yul\":4115:4133   */\n      0xffffffffffffffff\n        /* \"#utility.yul\":4107:4113   */\n      dup2\n        /* \"#utility.yul\":4104:4134   */\n      gt\n        /* \"#utility.yul\":4101:4103   */\n      iszero\n      tag_349\n      jumpi\n        /* \"#utility.yul\":4147:4148   */\n      0x00\n        /* \"#utility.yul\":4144:4145   */\n      dup1\n        /* \"#utility.yul\":4137:4149   */\n      revert\n        /* \"#utility.yul\":4101:4103   */\n    tag_349:\n        /* \"#utility.yul\":4175:4249   */\n      tag_350\n        /* \"#utility.yul\":4241:4248   */\n      dup5\n        /* \"#utility.yul\":4232:4238   */\n      dup3\n        /* \"#utility.yul\":4221:4230   */\n      dup6\n        /* \"#utility.yul\":4217:4239   */\n      add\n        /* \"#utility.yul\":4175:4249   */\n      tag_326\n      jump\t// in\n    tag_350:\n        /* \"#utility.yul\":4165:4249   */\n      swap2\n      pop\n        /* \"#utility.yul\":4035:4259   */\n      pop\n        /* \"#utility.yul\":3963:4266   */\n      swap3\n      swap2\n      pop\n      pop\n      jump\t// out\n        /* \"#utility.yul\":4272:4534   */\n    tag_36:\n      0x00\n        /* \"#utility.yul\":4380:4382   */\n      0x20\n        /* \"#utility.yul\":4368:4377   */\n      dup3\n        /* \"#utility.yul\":4359:4366   */\n      dup5\n        /* \"#utility.yul\":4355:4378   */\n      sub\n        /* \"#utility.yul\":4351:4383   */\n      slt\n        /* \"#utility.yul\":4348:4350   */\n      iszero\n      tag_352\n      jumpi\n        /* \"#utility.yul\":4396:4397   */\n      0x00\n        /* \"#utility.yul\":4393:4394   */\n      dup1\n        /* \"#utility.yul\":4386:4398   */\n      revert\n        /* \"#utility.yul\":4348:4350   */\n    tag_352:\n        /* \"#utility.yul\":4439:4440   */\n      0x00\n        /* \"#utility.yul\":4464:4517   */\n      tag_353\n        /* \"#utility.yul\":4509:4516   */\n      dup5\n        /* \"#utility.yul\":4500:4506   */\n      dup3\n        /* \"#utility.yul\":4489:4498   */\n      dup6\n        /* \"#utility.yul\":4485:4507   */\n      add\n        /* \"#utility.yul\":4464:4517   */\n      tag_330\n      jump\t// in\n    tag_353:\n        /* \"#utility.yul\":4454:4517   */\n      swap2\n      pop\n        /* \"#utility.yul\":4410:4527   */\n      pop\n        /* \"#utility.yul\":4338:4534   */\n      swap3\n      swap2\n      pop\n      pop\n      jump\t// out\n        /* \"#utility.yul\":4540:4824   */\n    tag_163:\n      0x00\n        /* \"#utility.yul\":4659:4661   */\n      0x20\n        /* \"#utility.yul\":4647:4656   */\n      dup3\n        /* \"#utility.yul\":4638:4645   */\n      dup5\n        /* \"#utility.yul\":4634:4657   */\n      sub\n        /* \"#utility.yul\":4630:4662   */\n      slt\n        /* \"#utility.yul\":4627:4629   */\n      iszero\n      tag_355\n      jumpi\n        /* \"#utility.yul\":4675:4676   */\n      0x00\n        /* \"#utility.yul\":4672:4673   */\n      dup1\n        /* \"#utility.yul\":4665:4677   */\n      revert\n        /* \"#utility.yul\":4627:4629   */\n    tag_355:\n        /* \"#utility.yul\":4718:4719   */\n      0x00\n        /* \"#utility.yul\":4743:4807   */\n      tag_356\n        /* \"#utility.yul\":4799:4806   */\n      dup5\n        /* \"#utility.yul\":4790:4796   */\n      dup3\n        /* \"#utility.yul\":4779:4788   */\n      dup6\n        /* \"#utility.yul\":4775:4797   */\n      add\n        /* \"#utility.yul\":4743:4807   */\n      tag_334\n      jump\t// in\n    tag_356:\n        /* \"#utility.yul\":4733:4807   */\n      swap2\n      pop\n        /* \"#utility.yul\":4689:4817   */\n      pop\n        /* \"#utility.yul\":4617:4824   */\n      swap3\n      swap2\n      pop\n      pop\n      jump\t// out\n        /* \"#utility.yul\":4830:5237   */\n    tag_118:\n      0x00\n      dup1\n        /* \"#utility.yul\":4955:4957   */\n      0x40\n        /* \"#utility.yul\":4943:4952   */\n      dup4\n        /* \"#utility.yul\":4934:4941   */\n      dup6\n        /* \"#utility.yul\":4930:4953   */\n      sub\n        /* \"#utility.yul\":4926:4958   */\n      slt\n        /* \"#utility.yul\":4923:4925   */\n      iszero\n      tag_358\n      jumpi\n        /* \"#utility.yul\":4971:4972   */\n      0x00\n        /* \"#utility.yul\":4968:4969   */\n      dup1\n        /* \"#utility.yul\":4961:4973   */\n      revert\n        /* \"#utility.yul\":4923:4925   */\n    tag_358:\n        /* \"#utility.yul\":5014:5015   */\n      0x00\n        /* \"#utility.yul\":5039:5092   */\n      tag_359\n        /* \"#utility.yul\":5084:5091   */\n      dup6\n        /* \"#utility.yul\":5075:5081   */\n      dup3\n        /* \"#utility.yul\":5064:5073   */\n      dup7\n        /* \"#utility.yul\":5060:5082   */\n      add\n        /* \"#utility.yul\":5039:5092   */\n      tag_330\n      jump\t// in\n    tag_359:\n        /* \"#utility.yul\":5029:5092   */\n      swap3\n      pop\n        /* \"#utility.yul\":4985:5102   */\n      pop\n        /* \"#utility.yul\":5141:5143   */\n      0x20\n        /* \"#utility.yul\":5167:5220   */\n      tag_360\n        /* \"#utility.yul\":5212:5219   */\n      dup6\n        /* \"#utility.yul\":5203:5209   */\n      dup3\n        /* \"#utility.yul\":5192:5201   */\n      dup7\n        /* \"#utility.yul\":5188:5210   */\n      add\n        /* \"#utility.yul\":5167:5220   */\n      tag_312\n      jump\t// in\n    tag_360:\n        /* \"#utility.yul\":5157:5220   */\n      swap2\n      pop\n        /* \"#utility.yul\":5112:5230   */\n      pop\n        /* \"#utility.yul\":4913:5237   */\n      swap3\n      pop\n      swap3\n      swap1\n      pop\n      jump\t// out\n        /* \"#utility.yul\":5243:5813   */\n    tag_80:\n      0x00\n      dup1\n        /* \"#utility.yul\":5403:5405   */\n      0x40\n        /* \"#utility.yul\":5391:5400   */\n      dup4\n        /* \"#utility.yul\":5382:5389   */\n      dup6\n        /* \"#utility.yul\":5378:5401   */\n      sub\n        /* \"#utility.yul\":5374:5406   */\n      slt\n        /* \"#utility.yul\":5371:5373   */\n      iszero\n      tag_362\n      jumpi\n        /* \"#utility.yul\":5419:5420   */\n      0x00\n        /* \"#utility.yul\":5416:5417   */\n      dup1\n        /* \"#utility.yul\":5409:5421   */\n      revert\n        /* \"#utility.yul\":5371:5373   */\n    tag_362:\n        /* \"#utility.yul\":5462:5463   */\n      0x00\n        /* \"#utility.yul\":5487:5540   */\n      tag_363\n        /* \"#utility.yul\":5532:5539   */\n      dup6\n        /* \"#utility.yul\":5523:5529   */\n      dup3\n        /* \"#utility.yul\":5512:5521   */\n      dup7\n        /* \"#utility.yul\":5508:5530   */\n      add\n        /* \"#utility.yul\":5487:5540   */\n      tag_330\n      jump\t// in\n    tag_363:\n        /* \"#utility.yul\":5477:5540   */\n      swap3\n      pop\n        /* \"#utility.yul\":5433:5550   */\n      pop\n        /* \"#utility.yul\":5617:5619   */\n      0x20\n        /* \"#utility.yul\":5606:5615   */\n      dup4\n        /* \"#utility.yul\":5602:5620   */\n      add\n        /* \"#utility.yul\":5589:5621   */\n      calldataload\n        /* \"#utility.yul\":5648:5666   */\n      0xffffffffffffffff\n        /* \"#utility.yul\":5640:5646   */\n      dup2\n        /* \"#utility.yul\":5637:5667   */\n      gt\n        /* \"#utility.yul\":5634:5636   */\n      iszero\n      tag_364\n      jumpi\n        /* \"#utility.yul\":5680:5681   */\n      0x00\n        /* \"#utility.yul\":5677:5678   */\n      dup1\n        /* \"#utility.yul\":5670:5682   */\n      revert\n        /* \"#utility.yul\":5634:5636   */\n    tag_364:\n        /* \"#utility.yul\":5708:5796   */\n      tag_365\n        /* \"#utility.yul\":5788:5795   */\n      dup6\n        /* \"#utility.yul\":5779:5785   */\n      dup3\n        /* \"#utility.yul\":5768:5777   */\n      dup7\n        /* \"#utility.yul\":5764:5786   */\n      add\n        /* \"#utility.yul\":5708:5796   */\n      tag_319\n      jump\t// in\n    tag_365:\n        /* \"#utility.yul\":5698:5796   */\n      swap2\n      pop\n        /* \"#utility.yul\":5560:5806   */\n      pop\n        /* \"#utility.yul\":5361:5813   */\n      swap3\n      pop\n      swap3\n      swap1\n      pop\n      jump\t// out\n        /* \"#utility.yul\":5819:6226   */\n    tag_68:\n      0x00\n      dup1\n        /* \"#utility.yul\":5944:5946   */\n      0x40\n        /* \"#utility.yul\":5932:5941   */\n      dup4\n        /* \"#utility.yul\":5923:5930   */\n      dup6\n        /* \"#utility.yul\":5919:5942   */\n      sub\n        /* \"#utility.yul\":5915:5947   */\n      slt\n        /* \"#utility.yul\":5912:5914   */\n      iszero\n      tag_367\n      jumpi\n        /* \"#utility.yul\":5960:5961   */\n      0x00\n        /* \"#utility.yul\":5957:5958   */\n      dup1\n        /* \"#utility.yul\":5950:5962   */\n      revert\n        /* \"#utility.yul\":5912:5914   */\n    tag_367:\n        /* \"#utility.yul\":6003:6004   */\n      0x00\n        /* \"#utility.yul\":6028:6081   */\n      tag_368\n        /* \"#utility.yul\":6073:6080   */\n      dup6\n        /* \"#utility.yul\":6064:6070   */\n      dup3\n        /* \"#utility.yul\":6053:6062   */\n      dup7\n        /* \"#utility.yul\":6049:6071   */\n      add\n        /* \"#utility.yul\":6028:6081   */\n      tag_330\n      jump\t// in\n    tag_368:\n        /* \"#utility.yul\":6018:6081   */\n      swap3\n      pop\n        /* \"#utility.yul\":5974:6091   */\n      pop\n        /* \"#utility.yul\":6130:6132   */\n      0x20\n        /* \"#utility.yul\":6156:6209   */\n      tag_369\n        /* \"#utility.yul\":6201:6208   */\n      dup6\n        /* \"#utility.yul\":6192:6198   */\n      dup3\n        /* \"#utility.yul\":6181:6190   */\n      dup7\n        /* \"#utility.yul\":6177:6199   */\n      add\n        /* \"#utility.yul\":6156:6209   */\n      tag_330\n      jump\t// in\n    tag_369:\n        /* \"#utility.yul\":6146:6209   */\n      swap2\n      pop\n        /* \"#utility.yul\":6101:6219   */\n      pop\n        /* \"#utility.yul\":5902:6226   */\n      swap3\n      pop\n      swap3\n      swap1\n      pop\n      jump\t// out\n        /* \"#utility.yul\":6232:6428   */\n    tag_370:\n      0x00\n        /* \"#utility.yul\":6356:6422   */\n      tag_372\n        /* \"#utility.yul\":6418:6421   */\n      dup4\n        /* \"#utility.yul\":6410:6416   */\n      dup4\n        /* \"#utility.yul\":6356:6422   */\n      tag_373\n      jump\t// in\n    tag_372:\n        /* \"#utility.yul\":6342:6422   */\n      swap1\n      pop\n        /* \"#utility.yul\":6332:6428   */\n      swap3\n      swap2\n      pop\n      pop\n      jump\t// out\n        /* \"#utility.yul\":6434:6686   */\n    tag_374:\n      0x00\n        /* \"#utility.yul\":6586:6680   */\n      tag_376\n        /* \"#utility.yul\":6676:6679   */\n      dup4\n        /* \"#utility.yul\":6668:6674   */\n      dup4\n        /* \"#utility.yul\":6586:6680   */\n      tag_377\n      jump\t// in\n    tag_376:\n        /* \"#utility.yul\":6572:6680   */\n      swap1\n      pop\n        /* \"#utility.yul\":6562:6686   */\n      swap3\n      swap2\n      pop\n      pop\n      jump\t// out\n        /* \"#utility.yul\":6692:6810   */\n    tag_378:\n        /* \"#utility.yul\":6779:6803   */\n      tag_380\n        /* \"#utility.yul\":6797:6802   */\n      dup2\n        /* \"#utility.yul\":6779:6803   */\n      tag_381\n      jump\t// in\n    tag_380:\n        /* \"#utility.yul\":6774:6777   */\n      dup3\n        /* \"#utility.yul\":6767:6804   */\n      mstore\n        /* \"#utility.yul\":6757:6810   */\n      pop\n      pop\n      jump\t// out\n        /* \"#utility.yul\":6844:7835   */\n    tag_382:\n      0x00\n        /* \"#utility.yul\":7012:7076   */\n      tag_384\n        /* \"#utility.yul\":7070:7075   */\n      dup3\n        /* \"#utility.yul\":7012:7076   */\n      tag_385\n      jump\t// in\n    tag_384:\n        /* \"#utility.yul\":7092:7188   */\n      tag_386\n        /* \"#utility.yul\":7181:7187   */\n      dup2\n        /* \"#utility.yul\":7176:7179   */\n      dup6\n        /* \"#utility.yul\":7092:7188   */\n      tag_387\n      jump\t// in\n    tag_386:\n        /* \"#utility.yul\":7085:7188   */\n      swap4\n      pop\n        /* \"#utility.yul\":7214:7217   */\n      dup4\n        /* \"#utility.yul\":7259:7263   */\n      0x20\n        /* \"#utility.yul\":7251:7257   */\n      dup3\n        /* \"#utility.yul\":7247:7264   */\n      mul\n        /* \"#utility.yul\":7242:7245   */\n      dup6\n        /* \"#utility.yul\":7238:7265   */\n      add\n        /* \"#utility.yul\":7289:7355   */\n      tag_388\n        /* \"#utility.yul\":7349:7354   */\n      dup6\n        /* \"#utility.yul\":7289:7355   */\n      tag_389\n      jump\t// in\n    tag_388:\n        /* \"#utility.yul\":7378:7385   */\n      dup1\n        /* \"#utility.yul\":7409:7410   */\n      0x00\n        /* \"#utility.yul\":7394:7790   */\n    tag_390:\n        /* \"#utility.yul\":7419:7425   */\n      dup6\n        /* \"#utility.yul\":7416:7417   */\n      dup2\n        /* \"#utility.yul\":7413:7426   */\n      lt\n        /* \"#utility.yul\":7394:7790   */\n      iszero\n      tag_392\n      jumpi\n        /* \"#utility.yul\":7490:7499   */\n      dup5\n        /* \"#utility.yul\":7484:7488   */\n      dup5\n        /* \"#utility.yul\":7480:7500   */\n      sub\n        /* \"#utility.yul\":7475:7478   */\n      dup10\n        /* \"#utility.yul\":7468:7501   */\n      mstore\n        /* \"#utility.yul\":7541:7547   */\n      dup2\n        /* \"#utility.yul\":7535:7548   */\n      mload\n        /* \"#utility.yul\":7569:7653   */\n      tag_393\n        /* \"#utility.yul\":7648:7652   */\n      dup6\n        /* \"#utility.yul\":7633:7646   */\n      dup3\n        /* \"#utility.yul\":7569:7653   */\n      tag_370\n      jump\t// in\n    tag_393:\n        /* \"#utility.yul\":7561:7653   */\n      swap5\n      pop\n        /* \"#utility.yul\":7676:7746   */\n      tag_394\n        /* \"#utility.yul\":7739:7745   */\n      dup4\n        /* \"#utility.yul\":7676:7746   */\n      tag_395\n      jump\t// in\n    tag_394:\n        /* \"#utility.yul\":7666:7746   */\n      swap3\n      pop\n        /* \"#utility.yul\":7775:7779   */\n      0x20\n        /* \"#utility.yul\":7770:7773   */\n      dup11\n        /* \"#utility.yul\":7766:7780   */\n      add\n        /* \"#utility.yul\":7759:7780   */\n      swap10\n      pop\n        /* \"#utility.yul\":7454:7790   */\n      pop\n        /* \"#utility.yul\":7441:7442   */\n      0x01\n        /* \"#utility.yul\":7438:7439   */\n      dup2\n        /* \"#utility.yul\":7434:7443   */\n      add\n        /* \"#utility.yul\":7429:7443   */\n      swap1\n      pop\n        /* \"#utility.yul\":7394:7790   */\n      jump(tag_390)\n    tag_392:\n        /* \"#utility.yul\":7398:7412   */\n      pop\n        /* \"#utility.yul\":7806:7810   */\n      dup3\n        /* \"#utility.yul\":7799:7810   */\n      swap8\n      pop\n        /* \"#utility.yul\":7826:7829   */\n      dup8\n        /* \"#utility.yul\":7819:7829   */\n      swap6\n      pop\n        /* \"#utility.yul\":6988:7835   */\n      pop\n      pop\n      pop\n      pop\n      pop\n      swap3\n      swap2\n      pop\n      pop\n      jump\t// out\n        /* \"#utility.yul\":7901:9004   */\n    tag_396:\n      0x00\n        /* \"#utility.yul\":8097:8175   */\n      tag_398\n        /* \"#utility.yul\":8169:8174   */\n      dup3\n        /* \"#utility.yul\":8097:8175   */\n      tag_399\n      jump\t// in\n    tag_398:\n        /* \"#utility.yul\":8191:8301   */\n      tag_400\n        /* \"#utility.yul\":8294:8300   */\n      dup2\n        /* \"#utility.yul\":8289:8292   */\n      dup6\n        /* \"#utility.yul\":8191:8301   */\n      tag_401\n      jump\t// in\n    tag_400:\n        /* \"#utility.yul\":8184:8301   */\n      swap4\n      pop\n        /* \"#utility.yul\":8327:8330   */\n      dup4\n        /* \"#utility.yul\":8372:8376   */\n      0x20\n        /* \"#utility.yul\":8364:8370   */\n      dup3\n        /* \"#utility.yul\":8360:8377   */\n      mul\n        /* \"#utility.yul\":8355:8358   */\n      dup6\n        /* \"#utility.yul\":8351:8378   */\n      add\n        /* \"#utility.yul\":8402:8482   */\n      tag_402\n        /* \"#utility.yul\":8476:8481   */\n      dup6\n        /* \"#utility.yul\":8402:8482   */\n      tag_403\n      jump\t// in\n    tag_402:\n        /* \"#utility.yul\":8505:8512   */\n      dup1\n        /* \"#utility.yul\":8536:8537   */\n      0x00\n        /* \"#utility.yul\":8521:8959   */\n    tag_404:\n        /* \"#utility.yul\":8546:8552   */\n      dup6\n        /* \"#utility.yul\":8543:8544   */\n      dup2\n        /* \"#utility.yul\":8540:8553   */\n      lt\n        /* \"#utility.yul\":8521:8959   */\n      iszero\n      tag_406\n      jumpi\n        /* \"#utility.yul\":8617:8626   */\n      dup5\n        /* \"#utility.yul\":8611:8615   */\n      dup5\n        /* \"#utility.yul\":8607:8627   */\n      sub\n        /* \"#utility.yul\":8602:8605   */\n      dup10\n        /* \"#utility.yul\":8595:8628   */\n      mstore\n        /* \"#utility.yul\":8668:8674   */\n      dup2\n        /* \"#utility.yul\":8662:8675   */\n      mload\n        /* \"#utility.yul\":8696:8808   */\n      tag_407\n        /* \"#utility.yul\":8803:8807   */\n      dup6\n        /* \"#utility.yul\":8788:8801   */\n      dup3\n        /* \"#utility.yul\":8696:8808   */\n      tag_374\n      jump\t// in\n    tag_407:\n        /* \"#utility.yul\":8688:8808   */\n      swap5\n      pop\n        /* \"#utility.yul\":8831:8915   */\n      tag_408\n        /* \"#utility.yul\":8908:8914   */\n      dup4\n        /* \"#utility.yul\":8831:8915   */\n      tag_409\n      jump\t// in\n    tag_408:\n        /* \"#utility.yul\":8821:8915   */\n      swap3\n      pop\n        /* \"#utility.yul\":8944:8948   */\n      0x20\n        /* \"#utility.yul\":8939:8942   */\n      dup11\n        /* \"#utility.yul\":8935:8949   */\n      add\n        /* \"#utility.yul\":8928:8949   */\n      swap10\n      pop\n        /* \"#utility.yul\":8581:8959   */\n      pop\n        /* \"#utility.yul\":8568:8569   */\n      0x01\n        /* \"#utility.yul\":8565:8566   */\n      dup2\n        /* \"#utility.yul\":8561:8570   */\n      add\n        /* \"#utility.yul\":8556:8570   */\n      swap1\n      pop\n        /* \"#utility.yul\":8521:8959   */\n      jump(tag_404)\n    tag_406:\n        /* \"#utility.yul\":8525:8539   */\n      pop\n        /* \"#utility.yul\":8975:8979   */\n      dup3\n        /* \"#utility.yul\":8968:8979   */\n      swap8\n      pop\n        /* \"#utility.yul\":8995:8998   */\n      dup8\n        /* \"#utility.yul\":8988:8998   */\n      swap6\n      pop\n        /* \"#utility.yul\":8073:9004   */\n      pop\n      pop\n      pop\n      pop\n      pop\n      swap3\n      swap2\n      pop\n      pop\n      jump\t// out\n        /* \"#utility.yul\":9010:9119   */\n    tag_410:\n        /* \"#utility.yul\":9091:9112   */\n      tag_412\n        /* \"#utility.yul\":9106:9111   */\n      dup2\n        /* \"#utility.yul\":9091:9112   */\n      tag_413\n      jump\t// in\n    tag_412:\n        /* \"#utility.yul\":9086:9089   */\n      dup3\n        /* \"#utility.yul\":9079:9113   */\n      mstore\n        /* \"#utility.yul\":9069:9119   */\n      pop\n      pop\n      jump\t// out\n        /* \"#utility.yul\":9125:9284   */\n    tag_414:\n        /* \"#utility.yul\":9226:9277   */\n      tag_416\n        /* \"#utility.yul\":9271:9276   */\n      dup2\n        /* \"#utility.yul\":9226:9277   */\n      tag_417\n      jump\t// in\n    tag_416:\n        /* \"#utility.yul\":9221:9224   */\n      dup3\n        /* \"#utility.yul\":9214:9278   */\n      mstore\n        /* \"#utility.yul\":9204:9284   */\n      pop\n      pop\n      jump\t// out\n        /* \"#utility.yul\":9290:9634   */\n    tag_373:\n      0x00\n        /* \"#utility.yul\":9396:9435   */\n      tag_419\n        /* \"#utility.yul\":9429:9434   */\n      dup3\n        /* \"#utility.yul\":9396:9435   */\n      tag_420\n      jump\t// in\n    tag_419:\n        /* \"#utility.yul\":9451:9512   */\n      tag_421\n        /* \"#utility.yul\":9505:9511   */\n      dup2\n        /* \"#utility.yul\":9500:9503   */\n      dup6\n        /* \"#utility.yul\":9451:9512   */\n      tag_422\n      jump\t// in\n    tag_421:\n        /* \"#utility.yul\":9444:9512   */\n      swap4\n      pop\n        /* \"#utility.yul\":9521:9573   */\n      tag_423\n        /* \"#utility.yul\":9566:9572   */\n      dup2\n        /* \"#utility.yul\":9561:9564   */\n      dup6\n        /* \"#utility.yul\":9554:9558   */\n      0x20\n        /* \"#utility.yul\":9547:9552   */\n      dup7\n        /* \"#utility.yul\":9543:9559   */\n      add\n        /* \"#utility.yul\":9521:9573   */\n      tag_311\n      jump\t// in\n    tag_423:\n        /* \"#utility.yul\":9598:9627   */\n      tag_424\n        /* \"#utility.yul\":9620:9626   */\n      dup2\n        /* \"#utility.yul\":9598:9627   */\n      tag_425\n      jump\t// in\n    tag_424:\n        /* \"#utility.yul\":9593:9596   */\n      dup5\n        /* \"#utility.yul\":9589:9628   */\n      add\n        /* \"#utility.yul\":9582:9628   */\n      swap2\n      pop\n        /* \"#utility.yul\":9372:9634   */\n      pop\n      swap3\n      swap2\n      pop\n      pop\n      jump\t// out\n        /* \"#utility.yul\":9640:10004   */\n    tag_426:\n      0x00\n        /* \"#utility.yul\":9756:9795   */\n      tag_428\n        /* \"#utility.yul\":9789:9794   */\n      dup3\n        /* \"#utility.yul\":9756:9795   */\n      tag_420\n      jump\t// in\n    tag_428:\n        /* \"#utility.yul\":9811:9882   */\n      tag_429\n        /* \"#utility.yul\":9875:9881   */\n      dup2\n        /* \"#utility.yul\":9870:9873   */\n      dup6\n        /* \"#utility.yul\":9811:9882   */\n      tag_430\n      jump\t// in\n    tag_429:\n        /* \"#utility.yul\":9804:9882   */\n      swap4\n      pop\n        /* \"#utility.yul\":9891:9943   */\n      tag_431\n        /* \"#utility.yul\":9936:9942   */\n      dup2\n        /* \"#utility.yul\":9931:9934   */\n      dup6\n        /* \"#utility.yul\":9924:9928   */\n      0x20\n        /* \"#utility.yul\":9917:9922   */\n      dup7\n        /* \"#utility.yul\":9913:9929   */\n      add\n        /* \"#utility.yul\":9891:9943   */\n      tag_311\n      jump\t// in\n    tag_431:\n        /* \"#utility.yul\":9968:9997   */\n      tag_432\n        /* \"#utility.yul\":9990:9996   */\n      dup2\n        /* \"#utility.yul\":9968:9997   */\n      tag_425\n      jump\t// in\n    tag_432:\n        /* \"#utility.yul\":9963:9966   */\n      dup5\n        /* \"#utility.yul\":9959:9998   */\n      add\n        /* \"#utility.yul\":9952:9998   */\n      swap2\n      pop\n        /* \"#utility.yul\":9732:10004   */\n      pop\n      swap3\n      swap2\n      pop\n      pop\n      jump\t// out\n        /* \"#utility.yul\":10066:10665   */\n    tag_377:\n      0x00\n        /* \"#utility.yul\":10209:10213   */\n      0x40\n        /* \"#utility.yul\":10204:10207   */\n      dup4\n        /* \"#utility.yul\":10200:10214   */\n      add\n        /* \"#utility.yul\":10296:10300   */\n      0x00\n        /* \"#utility.yul\":10289:10294   */\n      dup4\n        /* \"#utility.yul\":10285:10301   */\n      add\n        /* \"#utility.yul\":10279:10302   */\n      mload\n        /* \"#utility.yul\":10349:10352   */\n      dup5\n        /* \"#utility.yul\":10343:10347   */\n      dup3\n        /* \"#utility.yul\":10339:10353   */\n      sub\n        /* \"#utility.yul\":10332:10336   */\n      0x00\n        /* \"#utility.yul\":10327:10330   */\n      dup7\n        /* \"#utility.yul\":10323:10337   */\n      add\n        /* \"#utility.yul\":10316:10354   */\n      mstore\n        /* \"#utility.yul\":10375:10448   */\n      tag_434\n        /* \"#utility.yul\":10443:10447   */\n      dup3\n        /* \"#utility.yul\":10429:10441   */\n      dup3\n        /* \"#utility.yul\":10375:10448   */\n      tag_373\n      jump\t// in\n    tag_434:\n        /* \"#utility.yul\":10367:10448   */\n      swap2\n      pop\n        /* \"#utility.yul\":10224:10459   */\n      pop\n        /* \"#utility.yul\":10546:10550   */\n      0x20\n        /* \"#utility.yul\":10539:10544   */\n      dup4\n        /* \"#utility.yul\":10535:10551   */\n      add\n        /* \"#utility.yul\":10529:10552   */\n      mload\n        /* \"#utility.yul\":10565:10628   */\n      tag_435\n        /* \"#utility.yul\":10622:10626   */\n      0x20\n        /* \"#utility.yul\":10617:10620   */\n      dup7\n        /* \"#utility.yul\":10613:10627   */\n      add\n        /* \"#utility.yul\":10599:10611   */\n      dup3\n        /* \"#utility.yul\":10565:10628   */\n      tag_436\n      jump\t// in\n    tag_435:\n        /* \"#utility.yul\":10469:10638   */\n      pop\n        /* \"#utility.yul\":10655:10659   */\n      dup1\n        /* \"#utility.yul\":10648:10659   */\n      swap2\n      pop\n        /* \"#utility.yul\":10178:10665   */\n      pop\n      swap3\n      swap2\n      pop\n      pop\n      jump\t// out\n        /* \"#utility.yul\":10727:11336   */\n    tag_437:\n      0x00\n        /* \"#utility.yul\":10880:10884   */\n      0x40\n        /* \"#utility.yul\":10875:10878   */\n      dup4\n        /* \"#utility.yul\":10871:10885   */\n      add\n        /* \"#utility.yul\":10967:10971   */\n      0x00\n        /* \"#utility.yul\":10960:10965   */\n      dup4\n        /* \"#utility.yul\":10956:10972   */\n      add\n        /* \"#utility.yul\":10950:10973   */\n      mload\n        /* \"#utility.yul\":11020:11023   */\n      dup5\n        /* \"#utility.yul\":11014:11018   */\n      dup3\n        /* \"#utility.yul\":11010:11024   */\n      sub\n        /* \"#utility.yul\":11003:11007   */\n      0x00\n        /* \"#utility.yul\":10998:11001   */\n      dup7\n        /* \"#utility.yul\":10994:11008   */\n      add\n        /* \"#utility.yul\":10987:11025   */\n      mstore\n        /* \"#utility.yul\":11046:11119   */\n      tag_439\n        /* \"#utility.yul\":11114:11118   */\n      dup3\n        /* \"#utility.yul\":11100:11112   */\n      dup3\n        /* \"#utility.yul\":11046:11119   */\n      tag_373\n      jump\t// in\n    tag_439:\n        /* \"#utility.yul\":11038:11119   */\n      swap2\n      pop\n        /* \"#utility.yul\":10895:11130   */\n      pop\n        /* \"#utility.yul\":11217:11221   */\n      0x20\n        /* \"#utility.yul\":11210:11215   */\n      dup4\n        /* \"#utility.yul\":11206:11222   */\n      add\n        /* \"#utility.yul\":11200:11223   */\n      mload\n        /* \"#utility.yul\":11236:11299   */\n      tag_440\n        /* \"#utility.yul\":11293:11297   */\n      0x20\n        /* \"#utility.yul\":11288:11291   */\n      dup7\n        /* \"#utility.yul\":11284:11298   */\n      add\n        /* \"#utility.yul\":11270:11282   */\n      dup3\n        /* \"#utility.yul\":11236:11299   */\n      tag_436\n      jump\t// in\n    tag_440:\n        /* \"#utility.yul\":11140:11309   */\n      pop\n        /* \"#utility.yul\":11326:11330   */\n      dup1\n        /* \"#utility.yul\":11319:11330   */\n      swap2\n      pop\n        /* \"#utility.yul\":10849:11336   */\n      pop\n      swap3\n      swap2\n      pop\n      pop\n      jump\t// out\n        /* \"#utility.yul\":11342:11450   */\n    tag_436:\n        /* \"#utility.yul\":11419:11443   */\n      tag_442\n        /* \"#utility.yul\":11437:11442   */\n      dup2\n        /* \"#utility.yul\":11419:11443   */\n      tag_443\n      jump\t// in\n    tag_442:\n        /* \"#utility.yul\":11414:11417   */\n      dup3\n        /* \"#utility.yul\":11407:11444   */\n      mstore\n        /* \"#utility.yul\":11397:11450   */\n      pop\n      pop\n      jump\t// out\n        /* \"#utility.yul\":11456:11574   */\n    tag_444:\n        /* \"#utility.yul\":11543:11567   */\n      tag_446\n        /* \"#utility.yul\":11561:11566   */\n      dup2\n        /* \"#utility.yul\":11543:11567   */\n      tag_443\n      jump\t// in\n    tag_446:\n        /* \"#utility.yul\":11538:11541   */\n      dup3\n        /* \"#utility.yul\":11531:11568   */\n      mstore\n        /* \"#utility.yul\":11521:11574   */\n      pop\n      pop\n      jump\t// out\n        /* \"#utility.yul\":11580:11802   */\n    tag_51:\n      0x00\n        /* \"#utility.yul\":11711:11713   */\n      0x20\n        /* \"#utility.yul\":11700:11709   */\n      dup3\n        /* \"#utility.yul\":11696:11714   */\n      add\n        /* \"#utility.yul\":11688:11714   */\n      swap1\n      pop\n        /* \"#utility.yul\":11724:11795   */\n      tag_448\n        /* \"#utility.yul\":11792:11793   */\n      0x00\n        /* \"#utility.yul\":11781:11790   */\n      dup4\n        /* \"#utility.yul\":11777:11794   */\n      add\n        /* \"#utility.yul\":11768:11774   */\n      dup5\n        /* \"#utility.yul\":11724:11795   */\n      tag_378\n      jump\t// in\n    tag_448:\n        /* \"#utility.yul\":11678:11802   */\n      swap3\n      swap2\n      pop\n      pop\n      jump\t// out\n        /* \"#utility.yul\":11808:12221   */\n    tag_198:\n      0x00\n        /* \"#utility.yul\":12009:12011   */\n      0x20\n        /* \"#utility.yul\":11998:12007   */\n      dup3\n        /* \"#utility.yul\":11994:12012   */\n      add\n        /* \"#utility.yul\":11986:12012   */\n      swap1\n      pop\n        /* \"#utility.yul\":12058:12067   */\n      dup2\n        /* \"#utility.yul\":12052:12056   */\n      dup2\n        /* \"#utility.yul\":12048:12068   */\n      sub\n        /* \"#utility.yul\":12044:12045   */\n      0x00\n        /* \"#utility.yul\":12033:12042   */\n      dup4\n        /* \"#utility.yul\":12029:12046   */\n      add\n        /* \"#utility.yul\":12022:12069   */\n      mstore\n        /* \"#utility.yul\":12086:12214   */\n      tag_450\n        /* \"#utility.yul\":12209:12213   */\n      dup2\n        /* \"#utility.yul\":12200:12206   */\n      dup5\n        /* \"#utility.yul\":12086:12214   */\n      tag_382\n      jump\t// in\n    tag_450:\n        /* \"#utility.yul\":12078:12214   */\n      swap1\n      pop\n        /* \"#utility.yul\":11976:12221   */\n      swap3\n      swap2\n      pop\n      pop\n      jump\t// out\n        /* \"#utility.yul\":12227:12696   */\n    tag_65:\n      0x00\n        /* \"#utility.yul\":12456:12458   */\n      0x20\n        /* \"#utility.yul\":12445:12454   */\n      dup3\n        /* \"#utility.yul\":12441:12459   */\n      add\n        /* \"#utility.yul\":12433:12459   */\n      swap1\n      pop\n        /* \"#utility.yul\":12505:12514   */\n      dup2\n        /* \"#utility.yul\":12499:12503   */\n      dup2\n        /* \"#utility.yul\":12495:12515   */\n      sub\n        /* \"#utility.yul\":12491:12492   */\n      0x00\n        /* \"#utility.yul\":12480:12489   */\n      dup4\n        /* \"#utility.yul\":12476:12493   */\n      add\n        /* \"#utility.yul\":12469:12516   */\n      mstore\n        /* \"#utility.yul\":12533:12689   */\n      tag_452\n        /* \"#utility.yul\":12684:12688   */\n      dup2\n        /* \"#utility.yul\":12675:12681   */\n      dup5\n        /* \"#utility.yul\":12533:12689   */\n      tag_396\n      jump\t// in\n    tag_452:\n        /* \"#utility.yul\":12525:12689   */\n      swap1\n      pop\n        /* \"#utility.yul\":12423:12696   */\n      swap3\n      swap2\n      pop\n      pop\n      jump\t// out\n        /* \"#utility.yul\":12702:12952   */\n    tag_74:\n      0x00\n        /* \"#utility.yul\":12847:12849   */\n      0x20\n        /* \"#utility.yul\":12836:12845   */\n      dup3\n        /* \"#utility.yul\":12832:12850   */\n      add\n        /* \"#utility.yul\":12824:12850   */\n      swap1\n      pop\n        /* \"#utility.yul\":12860:12945   */\n      tag_454\n        /* \"#utility.yul\":12942:12943   */\n      0x00\n        /* \"#utility.yul\":12931:12940   */\n      dup4\n        /* \"#utility.yul\":12927:12944   */\n      add\n        /* \"#utility.yul\":12918:12924   */\n      dup5\n        /* \"#utility.yul\":12860:12945   */\n      tag_414\n      jump\t// in\n    tag_454:\n        /* \"#utility.yul\":12814:12952   */\n      swap3\n      swap2\n      pop\n      pop\n      jump\t// out\n        /* \"#utility.yul\":12958:13271   */\n    tag_86:\n      0x00\n        /* \"#utility.yul\":13109:13111   */\n      0x20\n        /* \"#utility.yul\":13098:13107   */\n      dup3\n        /* \"#utility.yul\":13094:13112   */\n      add\n        /* \"#utility.yul\":13086:13112   */\n      swap1\n      pop\n        /* \"#utility.yul\":13158:13167   */\n      dup2\n        /* \"#utility.yul\":13152:13156   */\n      dup2\n        /* \"#utility.yul\":13148:13168   */\n      sub\n        /* \"#utility.yul\":13144:13145   */\n      0x00\n        /* \"#utility.yul\":13133:13142   */\n      dup4\n        /* \"#utility.yul\":13129:13146   */\n      add\n        /* \"#utility.yul\":13122:13169   */\n      mstore\n        /* \"#utility.yul\":13186:13264   */\n      tag_456\n        /* \"#utility.yul\":13259:13263   */\n      dup2\n        /* \"#utility.yul\":13250:13256   */\n      dup5\n        /* \"#utility.yul\":13186:13264   */\n      tag_426\n      jump\t// in\n    tag_456:\n        /* \"#utility.yul\":13178:13264   */\n      swap1\n      pop\n        /* \"#utility.yul\":13076:13271   */\n      swap3\n      swap2\n      pop\n      pop\n      jump\t// out\n        /* \"#utility.yul\":13277:13700   */\n    tag_42:\n      0x00\n        /* \"#utility.yul\":13456:13458   */\n      0x40\n        /* \"#utility.yul\":13445:13454   */\n      dup3\n        /* \"#utility.yul\":13441:13459   */\n      add\n        /* \"#utility.yul\":13433:13459   */\n      swap1\n      pop\n        /* \"#utility.yul\":13505:13514   */\n      dup2\n        /* \"#utility.yul\":13499:13503   */\n      dup2\n        /* \"#utility.yul\":13495:13515   */\n      sub\n        /* \"#utility.yul\":13491:13492   */\n      0x00\n        /* \"#utility.yul\":13480:13489   */\n      dup4\n        /* \"#utility.yul\":13476:13493   */\n      add\n        /* \"#utility.yul\":13469:13516   */\n      mstore\n        /* \"#utility.yul\":13533:13611   */\n      tag_458\n        /* \"#utility.yul\":13606:13610   */\n      dup2\n        /* \"#utility.yul\":13597:13603   */\n      dup6\n        /* \"#utility.yul\":13533:13611   */\n      tag_426\n      jump\t// in\n    tag_458:\n        /* \"#utility.yul\":13525:13611   */\n      swap1\n      pop\n        /* \"#utility.yul\":13621:13693   */\n      tag_459\n        /* \"#utility.yul\":13689:13691   */\n      0x20\n        /* \"#utility.yul\":13678:13687   */\n      dup4\n        /* \"#utility.yul\":13674:13692   */\n      add\n        /* \"#utility.yul\":13665:13671   */\n      dup5\n        /* \"#utility.yul\":13621:13693   */\n      tag_444\n      jump\t// in\n    tag_459:\n        /* \"#utility.yul\":13423:13700   */\n      swap4\n      swap3\n      pop\n      pop\n      pop\n      jump\t// out\n        /* \"#utility.yul\":13706:14075   */\n    tag_131:\n      0x00\n        /* \"#utility.yul\":13885:13887   */\n      0x20\n        /* \"#utility.yul\":13874:13883   */\n      dup3\n        /* \"#utility.yul\":13870:13888   */\n      add\n        /* \"#utility.yul\":13862:13888   */\n      swap1\n      pop\n        /* \"#utility.yul\":13934:13943   */\n      dup2\n        /* \"#utility.yul\":13928:13932   */\n      dup2\n        /* \"#utility.yul\":13924:13944   */\n      sub\n        /* \"#utility.yul\":13920:13921   */\n      0x00\n        /* \"#utility.yul\":13909:13918   */\n      dup4\n        /* \"#utility.yul\":13905:13922   */\n      add\n        /* \"#utility.yul\":13898:13945   */\n      mstore\n        /* \"#utility.yul\":13962:14068   */\n      tag_461\n        /* \"#utility.yul\":14063:14067   */\n      dup2\n        /* \"#utility.yul\":14054:14060   */\n      dup5\n        /* \"#utility.yul\":13962:14068   */\n      tag_437\n      jump\t// in\n    tag_461:\n        /* \"#utility.yul\":13954:14068   */\n      swap1\n      pop\n        /* \"#utility.yul\":13852:14075   */\n      swap3\n      swap2\n      pop\n      pop\n      jump\t// out\n        /* \"#utility.yul\":14081:14303   */\n    tag_46:\n      0x00\n        /* \"#utility.yul\":14212:14214   */\n      0x20\n        /* \"#utility.yul\":14201:14210   */\n      dup3\n        /* \"#utility.yul\":14197:14215   */\n      add\n        /* \"#utility.yul\":14189:14215   */\n      swap1\n      pop\n        /* \"#utility.yul\":14225:14296   */\n      tag_463\n        /* \"#utility.yul\":14293:14294   */\n      0x00\n        /* \"#utility.yul\":14282:14291   */\n      dup4\n        /* \"#utility.yul\":14278:14295   */\n      add\n        /* \"#utility.yul\":14269:14275   */\n      dup5\n        /* \"#utility.yul\":14225:14296   */\n      tag_444\n      jump\t// in\n    tag_463:\n        /* \"#utility.yul\":14179:14303   */\n      swap3\n      swap2\n      pop\n      pop\n      jump\t// out\n        /* \"#utility.yul\":14309:14850   */\n    tag_109:\n      0x00\n        /* \"#utility.yul\":14518:14521   */\n      0x80\n        /* \"#utility.yul\":14507:14516   */\n      dup3\n        /* \"#utility.yul\":14503:14522   */\n      add\n        /* \"#utility.yul\":14495:14522   */\n      swap1\n      pop\n        /* \"#utility.yul\":14532:14603   */\n      tag_465\n        /* \"#utility.yul\":14600:14601   */\n      0x00\n        /* \"#utility.yul\":14589:14598   */\n      dup4\n        /* \"#utility.yul\":14585:14602   */\n      add\n        /* \"#utility.yul\":14576:14582   */\n      dup8\n        /* \"#utility.yul\":14532:14603   */\n      tag_444\n      jump\t// in\n    tag_465:\n        /* \"#utility.yul\":14613:14679   */\n      tag_466\n        /* \"#utility.yul\":14675:14677   */\n      0x20\n        /* \"#utility.yul\":14664:14673   */\n      dup4\n        /* \"#utility.yul\":14660:14678   */\n      add\n        /* \"#utility.yul\":14651:14657   */\n      dup7\n        /* \"#utility.yul\":14613:14679   */\n      tag_410\n      jump\t// in\n    tag_466:\n        /* \"#utility.yul\":14689:14761   */\n      tag_467\n        /* \"#utility.yul\":14757:14759   */\n      0x40\n        /* \"#utility.yul\":14746:14755   */\n      dup4\n        /* \"#utility.yul\":14742:14760   */\n      add\n        /* \"#utility.yul\":14733:14739   */\n      dup6\n        /* \"#utility.yul\":14689:14761   */\n      tag_378\n      jump\t// in\n    tag_467:\n        /* \"#utility.yul\":14771:14843   */\n      tag_468\n        /* \"#utility.yul\":14839:14841   */\n      0x60\n        /* \"#utility.yul\":14828:14837   */\n      dup4\n        /* \"#utility.yul\":14824:14842   */\n      add\n        /* \"#utility.yul\":14815:14821   */\n      dup5\n        /* \"#utility.yul\":14771:14843   */\n      tag_444\n      jump\t// in\n    tag_468:\n        /* \"#utility.yul\":14485:14850   */\n      swap6\n      swap5\n      pop\n      pop\n      pop\n      pop\n      pop\n      jump\t// out\n        /* \"#utility.yul\":14856:15139   */\n    tag_291:\n      0x00\n        /* \"#utility.yul\":14922:14924   */\n      0x40\n        /* \"#utility.yul\":14916:14925   */\n      mload\n        /* \"#utility.yul\":14906:14925   */\n      swap1\n      pop\n        /* \"#utility.yul\":14964:14968   */\n      dup2\n        /* \"#utility.yul\":14956:14962   */\n      dup2\n        /* \"#utility.yul\":14952:14969   */\n      add\n        /* \"#utility.yul\":15071:15077   */\n      dup2\n        /* \"#utility.yul\":15059:15069   */\n      dup2\n        /* \"#utility.yul\":15056:15078   */\n      lt\n        /* \"#utility.yul\":15035:15053   */\n      0xffffffffffffffff\n        /* \"#utility.yul\":15023:15033   */\n      dup3\n        /* \"#utility.yul\":15020:15054   */\n      gt\n        /* \"#utility.yul\":15017:15079   */\n      or\n        /* \"#utility.yul\":15014:15016   */\n      iszero\n      tag_470\n      jumpi\n        /* \"#utility.yul\":15082:15100   */\n      tag_471\n      tag_472\n      jump\t// in\n    tag_471:\n        /* \"#utility.yul\":15014:15016   */\n    tag_470:\n        /* \"#utility.yul\":15122:15132   */\n      dup1\n        /* \"#utility.yul\":15118:15120   */\n      0x40\n        /* \"#utility.yul\":15111:15133   */\n      mstore\n        /* \"#utility.yul\":14896:15139   */\n      pop\n      swap2\n      swap1\n      pop\n      jump\t// out\n        /* \"#utility.yul\":15145:15466   */\n    tag_290:\n      0x00\n        /* \"#utility.yul\":15322:15340   */\n      0xffffffffffffffff\n        /* \"#utility.yul\":15314:15320   */\n      dup3\n        /* \"#utility.yul\":15311:15341   */\n      gt\n        /* \"#utility.yul\":15308:15310   */\n      iszero\n      tag_474\n      jumpi\n        /* \"#utility.yul\":15344:15362   */\n      tag_475\n      tag_472\n      jump\t// in\n    tag_475:\n        /* \"#utility.yul\":15308:15310   */\n    tag_474:\n        /* \"#utility.yul\":15394:15398   */\n      0x20\n        /* \"#utility.yul\":15386:15392   */\n      dup3\n        /* \"#utility.yul\":15382:15399   */\n      mul\n        /* \"#utility.yul\":15374:15399   */\n      swap1\n      pop\n        /* \"#utility.yul\":15454:15458   */\n      0x20\n        /* \"#utility.yul\":15448:15452   */\n      dup2\n        /* \"#utility.yul\":15444:15459   */\n      add\n        /* \"#utility.yul\":15436:15459   */\n      swap1\n      pop\n        /* \"#utility.yul\":15237:15466   */\n      swap2\n      swap1\n      pop\n      jump\t// out\n        /* \"#utility.yul\":15472:15804   */\n    tag_301:\n      0x00\n        /* \"#utility.yul\":15624:15642   */\n      0xffffffffffffffff\n        /* \"#utility.yul\":15616:15622   */\n      dup3\n        /* \"#utility.yul\":15613:15643   */\n      gt\n        /* \"#utility.yul\":15610:15612   */\n      iszero\n      tag_477\n      jumpi\n        /* \"#utility.yul\":15646:15664   */\n      tag_478\n      tag_472\n      jump\t// in\n    tag_478:\n        /* \"#utility.yul\":15610:15612   */\n    tag_477:\n        /* \"#utility.yul\":15731:15735   */\n      0x1f\n        /* \"#utility.yul\":15727:15736   */\n      not\n        /* \"#utility.yul\":15720:15724   */\n      0x1f\n        /* \"#utility.yul\":15712:15718   */\n      dup4\n        /* \"#utility.yul\":15708:15725   */\n      add\n        /* \"#utility.yul\":15704:15737   */\n      and\n        /* \"#utility.yul\":15696:15737   */\n      swap1\n      pop\n        /* \"#utility.yul\":15792:15796   */\n      0x20\n        /* \"#utility.yul\":15786:15790   */\n      dup2\n        /* \"#utility.yul\":15782:15797   */\n      add\n        /* \"#utility.yul\":15774:15797   */\n      swap1\n      pop\n        /* \"#utility.yul\":15539:15804   */\n      swap2\n      swap1\n      pop\n      jump\t// out\n        /* \"#utility.yul\":15810:15952   */\n    tag_389:\n      0x00\n        /* \"#utility.yul\":15910:15913   */\n      dup2\n        /* \"#utility.yul\":15902:15913   */\n      swap1\n      pop\n        /* \"#utility.yul\":15940:15944   */\n      0x20\n        /* \"#utility.yul\":15935:15938   */\n      dup3\n        /* \"#utility.yul\":15931:15945   */\n      add\n        /* \"#utility.yul\":15923:15945   */\n      swap1\n      pop\n        /* \"#utility.yul\":15892:15952   */\n      swap2\n      swap1\n      pop\n      jump\t// out\n        /* \"#utility.yul\":15958:16114   */\n    tag_403:\n      0x00\n        /* \"#utility.yul\":16072:16075   */\n      dup2\n        /* \"#utility.yul\":16064:16075   */\n      swap1\n      pop\n        /* \"#utility.yul\":16102:16106   */\n      0x20\n        /* \"#utility.yul\":16097:16100   */\n      dup3\n        /* \"#utility.yul\":16093:16107   */\n      add\n        /* \"#utility.yul\":16085:16107   */\n      swap1\n      pop\n        /* \"#utility.yul\":16054:16114   */\n      swap2\n      swap1\n      pop\n      jump\t// out\n        /* \"#utility.yul\":16120:16244   */\n    tag_385:\n      0x00\n        /* \"#utility.yul\":16231:16236   */\n      dup2\n        /* \"#utility.yul\":16225:16237   */\n      mload\n        /* \"#utility.yul\":16215:16237   */\n      swap1\n      pop\n        /* \"#utility.yul\":16204:16244   */\n      swap2\n      swap1\n      pop\n      jump\t// out\n        /* \"#utility.yul\":16250:16388   */\n    tag_399:\n      0x00\n        /* \"#utility.yul\":16375:16380   */\n      dup2\n        /* \"#utility.yul\":16369:16381   */\n      mload\n        /* \"#utility.yul\":16359:16381   */\n      swap1\n      pop\n        /* \"#utility.yul\":16348:16388   */\n      swap2\n      swap1\n      pop\n      jump\t// out\n        /* \"#utility.yul\":16394:16493   */\n    tag_420:\n      0x00\n        /* \"#utility.yul\":16480:16485   */\n      dup2\n        /* \"#utility.yul\":16474:16486   */\n      mload\n        /* \"#utility.yul\":16464:16486   */\n      swap1\n      pop\n        /* \"#utility.yul\":16453:16493   */\n      swap2\n      swap1\n      pop\n      jump\t// out\n        /* \"#utility.yul\":16499:16622   */\n    tag_395:\n      0x00\n        /* \"#utility.yul\":16611:16615   */\n      0x20\n        /* \"#utility.yul\":16606:16609   */\n      dup3\n        /* \"#utility.yul\":16602:16616   */\n      add\n        /* \"#utility.yul\":16594:16616   */\n      swap1\n      pop\n        /* \"#utility.yul\":16584:16622   */\n      swap2\n      swap1\n      pop\n      jump\t// out\n        /* \"#utility.yul\":16628:16765   */\n    tag_409:\n      0x00\n        /* \"#utility.yul\":16754:16758   */\n      0x20\n        /* \"#utility.yul\":16749:16752   */\n      dup3\n        /* \"#utility.yul\":16745:16759   */\n      add\n        /* \"#utility.yul\":16737:16759   */\n      swap1\n      pop\n        /* \"#utility.yul\":16727:16765   */\n      swap2\n      swap1\n      pop\n      jump\t// out\n        /* \"#utility.yul\":16771:16965   */\n    tag_387:\n      0x00\n        /* \"#utility.yul\":16914:16920   */\n      dup3\n        /* \"#utility.yul\":16909:16912   */\n      dup3\n        /* \"#utility.yul\":16902:16921   */\n      mstore\n        /* \"#utility.yul\":16954:16958   */\n      0x20\n        /* \"#utility.yul\":16949:16952   */\n      dup3\n        /* \"#utility.yul\":16945:16959   */\n      add\n        /* \"#utility.yul\":16930:16959   */\n      swap1\n      pop\n        /* \"#utility.yul\":16892:16965   */\n      swap3\n      swap2\n      pop\n      pop\n      jump\t// out\n        /* \"#utility.yul\":16971:17179   */\n    tag_401:\n      0x00\n        /* \"#utility.yul\":17128:17134   */\n      dup3\n        /* \"#utility.yul\":17123:17126   */\n      dup3\n        /* \"#utility.yul\":17116:17135   */\n      mstore\n        /* \"#utility.yul\":17168:17172   */\n      0x20\n        /* \"#utility.yul\":17163:17166   */\n      dup3\n        /* \"#utility.yul\":17159:17173   */\n      add\n        /* \"#utility.yul\":17144:17173   */\n      swap1\n      pop\n        /* \"#utility.yul\":17106:17179   */\n      swap3\n      swap2\n      pop\n      pop\n      jump\t// out\n        /* \"#utility.yul\":17185:17344   */\n    tag_422:\n      0x00\n        /* \"#utility.yul\":17293:17299   */\n      dup3\n        /* \"#utility.yul\":17288:17291   */\n      dup3\n        /* \"#utility.yul\":17281:17300   */\n      mstore\n        /* \"#utility.yul\":17333:17337   */\n      0x20\n        /* \"#utility.yul\":17328:17331   */\n      dup3\n        /* \"#utility.yul\":17324:17338   */\n      add\n        /* \"#utility.yul\":17309:17338   */\n      swap1\n      pop\n        /* \"#utility.yul\":17271:17344   */\n      swap3\n      swap2\n      pop\n      pop\n      jump\t// out\n        /* \"#utility.yul\":17350:17519   */\n    tag_430:\n      0x00\n        /* \"#utility.yul\":17468:17474   */\n      dup3\n        /* \"#utility.yul\":17463:17466   */\n      dup3\n        /* \"#utility.yul\":17456:17475   */\n      mstore\n        /* \"#utility.yul\":17508:17512   */\n      0x20\n        /* \"#utility.yul\":17503:17506   */\n      dup3\n        /* \"#utility.yul\":17499:17513   */\n      add\n        /* \"#utility.yul\":17484:17513   */\n      swap1\n      pop\n        /* \"#utility.yul\":17446:17519   */\n      swap3\n      swap2\n      pop\n      pop\n      jump\t// out\n        /* \"#utility.yul\":17525:17830   */\n    tag_137:\n      0x00\n        /* \"#utility.yul\":17584:17604   */\n      tag_491\n        /* \"#utility.yul\":17602:17603   */\n      dup3\n        /* \"#utility.yul\":17584:17604   */\n      tag_443\n      jump\t// in\n    tag_491:\n        /* \"#utility.yul\":17579:17604   */\n      swap2\n      pop\n        /* \"#utility.yul\":17618:17638   */\n      tag_492\n        /* \"#utility.yul\":17636:17637   */\n      dup4\n        /* \"#utility.yul\":17618:17638   */\n      tag_443\n      jump\t// in\n    tag_492:\n        /* \"#utility.yul\":17613:17638   */\n      swap3\n      pop\n        /* \"#utility.yul\":17772:17773   */\n      dup3\n        /* \"#utility.yul\":17704:17770   */\n      0xffffffffffffffffffffffffffffffffffffffffffffffffffffffffffffffff\n        /* \"#utility.yul\":17700:17774   */\n      sub\n        /* \"#utility.yul\":17697:17698   */\n      dup3\n        /* \"#utility.yul\":17694:17775   */\n      gt\n        /* \"#utility.yul\":17691:17693   */\n      iszero\n      tag_493\n      jumpi\n        /* \"#utility.yul\":17778:17796   */\n      tag_494\n      tag_495\n      jump\t// in\n    tag_494:\n        /* \"#utility.yul\":17691:17693   */\n    tag_493:\n        /* \"#utility.yul\":17822:17823   */\n      dup3\n        /* \"#utility.yul\":17819:17820   */\n      dup3\n        /* \"#utility.yul\":17815:17824   */\n      add\n        /* \"#utility.yul\":17808:17824   */\n      swap1\n      pop\n        /* \"#utility.yul\":17569:17830   */\n      swap3\n      swap2\n      pop\n      pop\n      jump\t// out\n        /* \"#utility.yul\":17836:17932   */\n    tag_381:\n      0x00\n        /* \"#utility.yul\":17902:17926   */\n      tag_497\n        /* \"#utility.yul\":17920:17925   */\n      dup3\n        /* \"#utility.yul\":17902:17926   */\n      tag_498\n      jump\t// in\n    tag_497:\n        /* \"#utility.yul\":17891:17926   */\n      swap1\n      pop\n        /* \"#utility.yul\":17881:17932   */\n      swap2\n      swap1\n      pop\n      jump\t// out\n        /* \"#utility.yul\":17938:18028   */\n    tag_413:\n      0x00\n        /* \"#utility.yul\":18015:18020   */\n      dup2\n        /* \"#utility.yul\":18008:18021   */\n      iszero\n        /* \"#utility.yul\":18001:18022   */\n      iszero\n        /* \"#utility.yul\":17990:18022   */\n      swap1\n      pop\n        /* \"#utility.yul\":17980:18028   */\n      swap2\n      swap1\n      pop\n      jump\t// out\n        /* \"#utility.yul\":18034:18160   */\n    tag_498:\n      0x00\n        /* \"#utility.yul\":18111:18153   */\n      0xffffffffffffffffffffffffffffffffffffffff\n        /* \"#utility.yul\":18104:18109   */\n      dup3\n        /* \"#utility.yul\":18100:18154   */\n      and\n        /* \"#utility.yul\":18089:18154   */\n      swap1\n      pop\n        /* \"#utility.yul\":18079:18160   */\n      swap2\n      swap1\n      pop\n      jump\t// out\n        /* \"#utility.yul\":18166:18243   */\n    tag_443:\n      0x00\n        /* \"#utility.yul\":18232:18237   */\n      dup2\n        /* \"#utility.yul\":18221:18237   */\n      swap1\n      pop\n        /* \"#utility.yul\":18211:18243   */\n      swap2\n      swap1\n      pop\n      jump\t// out\n        /* \"#utility.yul\":18249:18403   */\n    tag_417:\n      0x00\n        /* \"#utility.yul\":18346:18397   */\n      tag_503\n        /* \"#utility.yul\":18391:18396   */\n      dup3\n        /* \"#utility.yul\":18346:18397   */\n      tag_504\n      jump\t// in\n    tag_503:\n        /* \"#utility.yul\":18333:18397   */\n      swap1\n      pop\n        /* \"#utility.yul\":18323:18403   */\n      swap2\n      swap1\n      pop\n      jump\t// out\n        /* \"#utility.yul\":18409:18536   */\n    tag_504:\n      0x00\n        /* \"#utility.yul\":18506:18530   */\n      tag_506\n        /* \"#utility.yul\":18524:18529   */\n      dup3\n        /* \"#utility.yul\":18506:18530   */\n      tag_498\n      jump\t// in\n    tag_506:\n        /* \"#utility.yul\":18493:18530   */\n      swap1\n      pop\n        /* \"#utility.yul\":18483:18536   */\n      swap2\n      swap1\n      pop\n      jump\t// out\n        /* \"#utility.yul\":18542:18696   */\n    tag_304:\n        /* \"#utility.yul\":18626:18632   */\n      dup3\n        /* \"#utility.yul\":18621:18624   */\n      dup2\n        /* \"#utility.yul\":18616:18619   */\n      dup4\n        /* \"#utility.yul\":18603:18633   */\n      calldatacopy\n        /* \"#utility.yul\":18688:18689   */\n      0x00\n        /* \"#utility.yul\":18679:18685   */\n      dup4\n        /* \"#utility.yul\":18674:18677   */\n      dup4\n        /* \"#utility.yul\":18670:18686   */\n      add\n        /* \"#utility.yul\":18663:18690   */\n      mstore\n        /* \"#utility.yul\":18593:18696   */\n      pop\n      pop\n      pop\n      jump\t// out\n        /* \"#utility.yul\":18702:19009   */\n    tag_311:\n        /* \"#utility.yul\":18770:18771   */\n      0x00\n        /* \"#utility.yul\":18780:18893   */\n    tag_509:\n        /* \"#utility.yul\":18794:18800   */\n      dup4\n        /* \"#utility.yul\":18791:18792   */\n      dup2\n        /* \"#utility.yul\":18788:18801   */\n      lt\n        /* \"#utility.yul\":18780:18893   */\n      iszero\n      tag_511\n      jumpi\n        /* \"#utility.yul\":18879:18880   */\n      dup1\n        /* \"#utility.yul\":18874:18877   */\n      dup3\n        /* \"#utility.yul\":18870:18881   */\n      add\n        /* \"#utility.yul\":18864:18882   */\n      mload\n        /* \"#utility.yul\":18860:18861   */\n      dup2\n        /* \"#utility.yul\":18855:18858   */\n      dup5\n        /* \"#utility.yul\":18851:18862   */\n      add\n        /* \"#utility.yul\":18844:18883   */\n      mstore\n        /* \"#utility.yul\":18816:18818   */\n      0x20\n        /* \"#utility.yul\":18813:18814   */\n      dup2\n        /* \"#utility.yul\":18809:18819   */\n      add\n        /* \"#utility.yul\":18804:18819   */\n      swap1\n      pop\n        /* \"#utility.yul\":18780:18893   */\n      jump(tag_509)\n    tag_511:\n        /* \"#utility.yul\":18911:18917   */\n      dup4\n        /* \"#utility.yul\":18908:18909   */\n      dup2\n        /* \"#utility.yul\":18905:18918   */\n      gt\n        /* \"#utility.yul\":18902:18904   */\n      iszero\n      tag_512\n      jumpi\n        /* \"#utility.yul\":18991:18992   */\n      0x00\n        /* \"#utility.yul\":18982:18988   */\n      dup5\n        /* \"#utility.yul\":18977:18980   */\n      dup5\n        /* \"#utility.yul\":18973:18989   */\n      add\n        /* \"#utility.yul\":18966:18993   */\n      mstore\n        /* \"#utility.yul\":18902:18904   */\n    tag_512:\n        /* \"#utility.yul\":18751:19009   */\n      pop\n      pop\n      pop\n      pop\n      jump\t// out\n        /* \"#utility.yul\":19015:19335   */\n    tag_141:\n      0x00\n        /* \"#utility.yul\":19096:19097   */\n      0x02\n        /* \"#utility.yul\":19090:19094   */\n      dup3\n        /* \"#utility.yul\":19086:19098   */\n      div\n        /* \"#utility.yul\":19076:19098   */\n      swap1\n      pop\n        /* \"#utility.yul\":19143:19144   */\n      0x01\n        /* \"#utility.yul\":19137:19141   */\n      dup3\n        /* \"#utility.yul\":19133:19145   */\n      and\n        /* \"#utility.yul\":19164:19182   */\n      dup1\n        /* \"#utility.yul\":19154:19156   */\n      tag_514\n      jumpi\n        /* \"#utility.yul\":19220:19224   */\n      0x7f\n        /* \"#utility.yul\":19212:19218   */\n      dup3\n        /* \"#utility.yul\":19208:19225   */\n      and\n        /* \"#utility.yul\":19198:19225   */\n      swap2\n      pop\n        /* \"#utility.yul\":19154:19156   */\n    tag_514:\n        /* \"#utility.yul\":19282:19284   */\n      0x20\n        /* \"#utility.yul\":19274:19280   */\n      dup3\n        /* \"#utility.yul\":19271:19285   */\n      lt\n        /* \"#utility.yul\":19251:19269   */\n      dup2\n        /* \"#utility.yul\":19248:19286   */\n      eq\n        /* \"#utility.yul\":19245:19247   */\n      iszero\n      tag_515\n      jumpi\n        /* \"#utility.yul\":19301:19319   */\n      tag_516\n      tag_517\n      jump\t// in\n    tag_516:\n        /* \"#utility.yul\":19245:19247   */\n    tag_515:\n        /* \"#utility.yul\":19066:19335   */\n      pop\n      swap2\n      swap1\n      pop\n      jump\t// out\n        /* \"#utility.yul\":19341:19574   */\n    tag_174:\n      0x00\n        /* \"#utility.yul\":19403:19427   */\n      tag_519\n        /* \"#utility.yul\":19421:19426   */\n      dup3\n        /* \"#utility.yul\":19403:19427   */\n      tag_443\n      jump\t// in\n    tag_519:\n        /* \"#utility.yul\":19394:19427   */\n      swap2\n      pop\n        /* \"#utility.yul\":19449:19515   */\n      0xffffffffffffffffffffffffffffffffffffffffffffffffffffffffffffffff\n        /* \"#utility.yul\":19442:19447   */\n      dup3\n        /* \"#utility.yul\":19439:19516   */\n      eq\n        /* \"#utility.yul\":19436:19438   */\n      iszero\n      tag_520\n      jumpi\n        /* \"#utility.yul\":19519:19537   */\n      tag_521\n      tag_495\n      jump\t// in\n    tag_521:\n        /* \"#utility.yul\":19436:19438   */\n    tag_520:\n        /* \"#utility.yul\":19566:19567   */\n      0x01\n        /* \"#utility.yul\":19559:19564   */\n      dup3\n        /* \"#utility.yul\":19555:19568   */\n      add\n        /* \"#utility.yul\":19548:19568   */\n      swap1\n      pop\n        /* \"#utility.yul\":19384:19574   */\n      swap2\n      swap1\n      pop\n      jump\t// out\n        /* \"#utility.yul\":19580:19760   */\n    tag_495:\n        /* \"#utility.yul\":19628:19705   */\n      0x4e487b7100000000000000000000000000000000000000000000000000000000\n        /* \"#utility.yul\":19625:19626   */\n      0x00\n        /* \"#utility.yul\":19618:19706   */\n      mstore\n        /* \"#utility.yul\":19725:19729   */\n      0x11\n        /* \"#utility.yul\":19722:19723   */\n      0x04\n        /* \"#utility.yul\":19715:19730   */\n      mstore\n        /* \"#utility.yul\":19749:19753   */\n      0x24\n        /* \"#utility.yul\":19746:19747   */\n      0x00\n        /* \"#utility.yul\":19739:19754   */\n      revert\n        /* \"#utility.yul\":19766:19946   */\n    tag_517:\n        /* \"#utility.yul\":19814:19891   */\n      0x4e487b7100000000000000000000000000000000000000000000000000000000\n        /* \"#utility.yul\":19811:19812   */\n      0x00\n        /* \"#utility.yul\":19804:19892   */\n      mstore\n        /* \"#utility.yul\":19911:19915   */\n      0x22\n        /* \"#utility.yul\":19908:19909   */\n      0x04\n        /* \"#utility.yul\":19901:19916   */\n      mstore\n        /* \"#utility.yul\":19935:19939   */\n      0x24\n        /* \"#utility.yul\":19932:19933   */\n      0x00\n        /* \"#utility.yul\":19925:19940   */\n      revert\n        /* \"#utility.yul\":19952:20132   */\n    tag_472:\n        /* \"#utility.yul\":20000:20077   */\n      0x4e487b7100000000000000000000000000000000000000000000000000000000\n        /* \"#utility.yul\":19997:19998   */\n      0x00\n        /* \"#utility.yul\":19990:20078   */\n      mstore\n        /* \"#utility.yul\":20097:20101   */\n      0x41\n        /* \"#utility.yul\":20094:20095   */\n      0x04\n        /* \"#utility.yul\":20087:20102   */\n      mstore\n        /* \"#utility.yul\":20121:20125   */\n      0x24\n        /* \"#utility.yul\":20118:20119   */\n      0x00\n        /* \"#utility.yul\":20111:20126   */\n      revert\n        /* \"#utility.yul\":20138:20240   */\n    tag_425:\n      0x00\n        /* \"#utility.yul\":20230:20232   */\n      0x1f\n        /* \"#utility.yul\":20226:20233   */\n      not\n        /* \"#utility.yul\":20221:20223   */\n      0x1f\n        /* \"#utility.yul\":20214:20219   */\n      dup4\n        /* \"#utility.yul\":20210:20224   */\n      add\n        /* \"#utility.yul\":20206:20234   */\n      and\n        /* \"#utility.yul\":20196:20234   */\n      swap1\n      pop\n        /* \"#utility.yul\":20186:20240   */\n      swap2\n      swap1\n      pop\n      jump\t// out\n        /* \"#utility.yul\":20246:20368   */\n    tag_315:\n        /* \"#utility.yul\":20319:20343   */\n      tag_527\n        /* \"#utility.yul\":20337:20342   */\n      dup2\n        /* \"#utility.yul\":20319:20343   */\n      tag_381\n      jump\t// in\n    tag_527:\n        /* \"#utility.yul\":20312:20317   */\n      dup2\n        /* \"#utility.yul\":20309:20344   */\n      eq\n        /* \"#utility.yul\":20299:20301   */\n      tag_528\n      jumpi\n        /* \"#utility.yul\":20358:20359   */\n      0x00\n        /* \"#utility.yul\":20355:20356   */\n      dup1\n        /* \"#utility.yul\":20348:20360   */\n      revert\n        /* \"#utility.yul\":20299:20301   */\n    tag_528:\n        /* \"#utility.yul\":20289:20368   */\n      pop\n      jump\t// out\n        /* \"#utility.yul\":20374:20496   */\n    tag_333:\n        /* \"#utility.yul\":20447:20471   */\n      tag_530\n        /* \"#utility.yul\":20465:20470   */\n      dup2\n        /* \"#utility.yul\":20447:20471   */\n      tag_443\n      jump\t// in\n    tag_530:\n        /* \"#utility.yul\":20440:20445   */\n      dup2\n        /* \"#utility.yul\":20437:20472   */\n      eq\n        /* \"#utility.yul\":20427:20429   */\n      tag_531\n      jumpi\n        /* \"#utility.yul\":20486:20487   */\n      0x00\n        /* \"#utility.yul\":20483:20484   */\n      dup1\n        /* \"#utility.yul\":20476:20488   */\n      revert\n        /* \"#utility.yul\":20427:20429   */\n    tag_531:\n        /* \"#utility.yul\":20417:20496   */\n      pop\n      jump\t// out\n    stop\n\n    sub_0: assembly {\n            /* \"contracts/prop_test.sol\":60:4755  contract Ballot {\r... */\n          mstore(0x40, 0x80)\n          callvalue\n          dup1\n          iszero\n          tag_1\n          jumpi\n          0x00\n          dup1\n          revert\n        tag_1:\n          pop\n          dataSize(sub_0)\n          dup1\n          dataOffset(sub_0)\n          0x00\n          codecopy\n          0x00\n          return\n        stop\n\n        sub_0: assembly {\n                /* \"contracts/prop_test.sol\":60:4755  contract Ballot {\r... */\n              mstore(0x40, 0x80)\n              callvalue\n              dup1\n              iszero\n              tag_1\n              jumpi\n              0x00\n              dup1\n              revert\n            tag_1:\n              pop\n              jumpi(tag_2, lt(calldatasize, 0x04))\n              shr(0xe0, calldataload(0x00))\n              dup1\n              0x7a16fcb0\n              gt\n              tag_19\n              jumpi\n              dup1\n              0xa3ec138d\n              gt\n              tag_20\n              jumpi\n              dup1\n              0xa3ec138d\n              eq\n              tag_15\n              jumpi\n              dup1\n              0xb1356488\n              eq\n              tag_16\n              jumpi\n              dup1\n              0xe2ba53f0\n              eq\n              tag_17\n              jumpi\n              dup1\n              0xe9d6c6da\n              eq\n              tag_18\n              jumpi\n              jump(tag_2)\n            tag_20:\n              dup1\n              0x7a16fcb0\n              eq\n              tag_11\n              jumpi\n              dup1\n              0x836bc692\n              eq\n              tag_12\n              jumpi\n              dup1\n              0x86278e77\n              eq\n              tag_13\n              jumpi\n              dup1\n              0x9e7b8d61\n              eq\n              tag_14\n              jumpi\n              jump(tag_2)\n            tag_19:\n              dup1\n              0x609ff1bd\n              gt\n              tag_21\n              jumpi\n              dup1\n              0x609ff1bd\n              eq\n              tag_7\n              jumpi\n              dup1\n              0x62564c48\n              eq\n              tag_8\n              jumpi\n              dup1\n              0x69ba1a75\n              eq\n              tag_9\n              jumpi\n              dup1\n              0x78f305c6\n              eq\n              tag_10\n              jumpi\n              jump(tag_2)\n            tag_21:\n              dup1\n              0x0121b93f\n              eq\n              tag_3\n              jumpi\n              dup1\n              0x013cf08b\n              eq\n              tag_4\n              jumpi\n              dup1\n              0x0a82dcb1\n              eq\n              tag_5\n              jumpi\n              dup1\n              0x4e69d560\n              eq\n              tag_6\n              jumpi\n            tag_2:\n              0x00\n              dup1\n              revert\n                /* \"contracts/prop_test.sol\":2270:2659  function vote(uint proposal) public {\r... */\n            tag_3:\n              tag_22\n              0x04\n              dup1\n              calldatasize\n              sub\n              dup2\n              add\n              swap1\n              tag_23\n              swap2\n              swap1\n              tag_24\n              jump\t// in\n            tag_23:\n              tag_25\n              jump\t// in\n            tag_22:\n              stop\n                /* \"contracts/prop_test.sol\":871:898  Proposal[] public proposals */\n            tag_4:\n              tag_26\n              0x04\n              dup1\n              calldatasize\n              sub\n              dup2\n              add\n              swap1\n              tag_27\n              swap2\n              swap1\n              tag_24\n              jump\t// in\n            tag_27:\n              tag_28\n              jump\t// in\n            tag_26:\n              mload(0x40)\n              tag_29\n              swap3\n              swap2\n              swap1\n              tag_30\n              jump\t// in\n            tag_29:\n              mload(0x40)\n              dup1\n              swap2\n              sub\n              swap1\n              return\n                /* \"contracts/prop_test.sol\":3869:3963  function getnumOfProposals() public view returns(uint){\r... */\n            tag_5:\n              tag_31\n              tag_32\n              jump\t// in\n            tag_31:\n              mload(0x40)\n              tag_33\n              swap2\n              swap1\n              tag_34\n              jump\t// in\n            tag_33:\n              mload(0x40)\n              dup1\n              swap2\n              sub\n              swap1\n              return\n                /* \"contracts/prop_test.sol\":3749:3827  function getStatus() public view returns(uint){\r... */\n            tag_6:\n              tag_35\n              tag_36\n              jump\t// in\n            tag_35:\n              mload(0x40)\n              tag_37\n              swap2\n              swap1\n              tag_34\n              jump\t// in\n            tag_37:\n              mload(0x40)\n              dup1\n              swap2\n              sub\n              swap1\n              return\n                /* \"contracts/prop_test.sol\":2667:3021  function winningProposal() public view returns (uint winningProposal){\r... */\n            tag_7:\n              tag_38\n              tag_39\n              jump\t// in\n            tag_38:\n              mload(0x40)\n              tag_40\n              swap2\n              swap1\n              tag_34\n              jump\t// in\n            tag_40:\n              mload(0x40)\n              dup1\n              swap2\n              sub\n              swap1\n              return\n                /* \"contracts/prop_test.sol\":4172:4269  function getProposals() public view returns(Proposal[] memory){\r... */\n            tag_8:\n              tag_41\n              tag_42\n              jump\t// in\n            tag_41:\n              mload(0x40)\n              tag_43\n              swap2\n              swap1\n              tag_44\n              jump\t// in\n            tag_43:\n              mload(0x40)\n              dup1\n              swap2\n              sub\n              swap1\n              return\n                /* \"contracts/prop_test.sol\":3632:3706  function setStatus(uint _status) public{\r... */\n            tag_9:\n              tag_45\n              0x04\n              dup1\n              calldatasize\n              sub\n              dup2\n              add\n              swap1\n              tag_46\n              swap2\n              swap1\n              tag_24\n              jump\t// in\n            tag_46:\n              tag_47\n              jump\t// in\n            tag_45:\n              stop\n                /* \"contracts/prop_test.sol\":4434:4518  function getStartDate() public view returns(uint){\r... */\n            tag_10:\n              tag_48\n              tag_49\n              jump\t// in\n            tag_48:\n              mload(0x40)\n              tag_50\n              swap2\n              swap1\n              tag_34\n              jump\t// in\n            tag_50:\n              mload(0x40)\n              dup1\n              swap2\n              sub\n              swap1\n              return\n                /* \"contracts/prop_test.sol\":3500:3589  function getCreatorBallot() public view returns(address){\r... */\n            tag_11:\n              tag_51\n              tag_52\n              jump\t// in\n            tag_51:\n              mload(0x40)\n              tag_53\n              swap2\n              swap1\n              tag_54\n              jump\t// in\n            tag_53:\n              mload(0x40)\n              dup1\n              swap2\n              sub\n              swap1\n              return\n                /* \"contracts/prop_test.sol\":907:1647  function createBallot(string[] memory proposalNames) public {\r... */\n            tag_12:\n              tag_55\n              0x04\n              dup1\n              calldatasize\n              sub\n              dup2\n              add\n              swap1\n              tag_56\n              swap2\n              swap1\n              tag_57\n              jump\t// in\n            tag_56:\n              tag_58\n              jump\t// in\n            tag_55:\n              stop\n                /* \"contracts/prop_test.sol\":4560:4632  function setEndDate() public{\r... */\n            tag_13:\n              tag_59\n              tag_60\n              jump\t// in\n            tag_59:\n              stop\n                /* \"contracts/prop_test.sol\":1655:2233  function giveRightToVote(address voter) public {\r... */\n            tag_14:\n              tag_61\n              0x04\n              dup1\n              calldatasize\n              sub\n              dup2\n              add\n              swap1\n              tag_62\n              swap2\n              swap1\n              tag_63\n              jump\t// in\n            tag_62:\n              tag_64\n              jump\t// in\n            tag_61:\n              stop\n                /* \"contracts/prop_test.sol\":766:805  mapping(address => Voter) public voters */\n            tag_15:\n              tag_65\n              0x04\n              dup1\n              calldatasize\n              sub\n              dup2\n              add\n              swap1\n              tag_66\n              swap2\n              swap1\n              tag_63\n              jump\t// in\n            tag_66:\n              tag_67\n              jump\t// in\n            tag_65:\n              mload(0x40)\n              tag_68\n              swap5\n              swap4\n              swap3\n              swap2\n              swap1\n              tag_69\n              jump\t// in\n            tag_68:\n              mload(0x40)\n              dup1\n              swap2\n              sub\n              swap1\n              return\n                /* \"contracts/prop_test.sol\":4672:4752  function getEndDate() public view returns(uint){\r... */\n            tag_16:\n              tag_70\n              tag_71\n              jump\t// in\n            tag_70:\n              mload(0x40)\n              tag_72\n              swap2\n              swap1\n              tag_34\n              jump\t// in\n            tag_72:\n              mload(0x40)\n              dup1\n              swap2\n              sub\n              swap1\n              return\n                /* \"contracts/prop_test.sol\":3190:3328  function winnerName() public view returns(string memory winnerName)\r... */\n            tag_17:\n              tag_73\n              tag_74\n              jump\t// in\n            tag_73:\n              mload(0x40)\n              tag_75\n              swap2\n              swap1\n              tag_76\n              jump\t// in\n            tag_75:\n              mload(0x40)\n              dup1\n              swap2\n              sub\n              swap1\n              return\n                /* \"contracts/prop_test.sol\":4005:4137  function getProposalStructure(uint _proposalId) public view returns(Proposal memory){\r... */\n            tag_18:\n              tag_77\n              0x04\n              dup1\n              calldatasize\n              sub\n              dup2\n              add\n              swap1\n              tag_78\n              swap2\n              swap1\n              tag_24\n              jump\t// in\n            tag_78:\n              tag_79\n              jump\t// in\n            tag_77:\n              mload(0x40)\n              tag_80\n              swap2\n              swap1\n              tag_81\n              jump\t// in\n            tag_80:\n              mload(0x40)\n              dup1\n              swap2\n              sub\n              swap1\n              return\n                /* \"contracts/prop_test.sol\":2270:2659  function vote(uint proposal) public {\r... */\n            tag_25:\n                /* \"contracts/prop_test.sol\":2317:2337  Voter storage sender */\n              0x00\n                /* \"contracts/prop_test.sol\":2340:2346  voters */\n              0x05\n                /* \"contracts/prop_test.sol\":2340:2358  voters[msg.sender] */\n              0x00\n                /* \"contracts/prop_test.sol\":2347:2357  msg.sender */\n              caller\n                /* \"contracts/prop_test.sol\":2340:2358  voters[msg.sender] */\n              0xffffffffffffffffffffffffffffffffffffffff\n              and\n              0xffffffffffffffffffffffffffffffffffffffff\n              and\n              dup2\n              mstore\n              0x20\n              add\n              swap1\n              dup2\n              mstore\n              0x20\n              add\n              0x00\n              keccak256\n                /* \"contracts/prop_test.sol\":2317:2358  Voter storage sender = voters[msg.sender] */\n              swap1\n              pop\n                /* \"contracts/prop_test.sol\":2378:2384  sender */\n              dup1\n                /* \"contracts/prop_test.sol\":2378:2390  sender.voted */\n              0x01\n              add\n              0x00\n              swap1\n              sload\n              swap1\n              0x0100\n              exp\n              swap1\n              div\n              0xff\n              and\n                /* \"contracts/prop_test.sol\":2377:2390  !sender.voted */\n              iszero\n                /* \"contracts/prop_test.sol\":2369:2391  require(!sender.voted) */\n              tag_83\n              jumpi\n              0x00\n              dup1\n              revert\n            tag_83:\n                /* \"contracts/prop_test.sol\":2417:2421  true */\n              0x01\n                /* \"contracts/prop_test.sol\":2402:2408  sender */\n              dup2\n                /* \"contracts/prop_test.sol\":2402:2414  sender.voted */\n              0x01\n              add\n              0x00\n                /* \"contracts/prop_test.sol\":2402:2421  sender.voted = true */\n              0x0100\n              exp\n              dup2\n              sload\n              dup2\n              0xff\n              mul\n              not\n              and\n              swap1\n              dup4\n              iszero\n              iszero\n              mul\n              or\n              swap1\n              sstore\n              pop\n                /* \"contracts/prop_test.sol\":2446:2454  proposal */\n              dup2\n                /* \"contracts/prop_test.sol\":2432:2438  sender */\n              dup2\n                /* \"contracts/prop_test.sol\":2432:2443  sender.vote */\n              0x02\n              add\n                /* \"contracts/prop_test.sol\":2432:2454  sender.vote = proposal */\n              dup2\n              swap1\n              sstore\n              pop\n                /* \"contracts/prop_test.sol\":2638:2644  sender */\n              dup1\n                /* \"contracts/prop_test.sol\":2638:2651  sender.weight */\n              0x00\n              add\n              sload\n                /* \"contracts/prop_test.sol\":2605:2614  proposals */\n              0x06\n                /* \"contracts/prop_test.sol\":2615:2623  proposal */\n              dup4\n                /* \"contracts/prop_test.sol\":2605:2624  proposals[proposal] */\n              dup2\n              sload\n              dup2\n              lt\n              tag_84\n              jumpi\n              mstore(0x00, 0x4e487b7100000000000000000000000000000000000000000000000000000000)\n              mstore(0x04, 0x32)\n              revert(0x00, 0x24)\n            tag_84:\n              swap1\n              0x00\n              mstore\n              keccak256(0x00, 0x20)\n              swap1\n              0x02\n              mul\n              add\n                /* \"contracts/prop_test.sol\":2605:2634  proposals[proposal].voteCount */\n              0x01\n              add\n              0x00\n                /* \"contracts/prop_test.sol\":2605:2651  proposals[proposal].voteCount += sender.weight */\n              dup3\n              dup3\n              sload\n              tag_86\n              swap2\n              swap1\n              tag_87\n              jump\t// in\n            tag_86:\n              swap3\n              pop\n              pop\n              dup2\n              swap1\n              sstore\n              pop\n                /* \"contracts/prop_test.sol\":2270:2659  function vote(uint proposal) public {\r... */\n              pop\n              pop\n              jump\t// out\n                /* \"contracts/prop_test.sol\":871:898  Proposal[] public proposals */\n            tag_28:\n              0x06\n              dup2\n              dup2\n              sload\n              dup2\n              lt\n              tag_88\n              jumpi\n              0x00\n              dup1\n              revert\n            tag_88:\n              swap1\n              0x00\n              mstore\n              keccak256(0x00, 0x20)\n              swap1\n              0x02\n              mul\n              add\n              0x00\n              swap2\n              pop\n              swap1\n              pop\n              dup1\n              0x00\n              add\n              dup1\n              sload\n              tag_90\n              swap1\n              tag_91\n              jump\t// in\n            tag_90:\n              dup1\n              0x1f\n              add\n              0x20\n              dup1\n              swap2\n              div\n              mul\n              0x20\n              add\n              mload(0x40)\n              swap1\n              dup2\n              add\n              0x40\n              mstore\n              dup1\n              swap3\n              swap2\n              swap1\n              dup2\n              dup2\n              mstore\n              0x20\n              add\n              dup3\n              dup1\n              sload\n              tag_92\n              swap1\n              tag_91\n              jump\t// in\n            tag_92:\n              dup1\n              iszero\n              tag_93\n              jumpi\n              dup1\n              0x1f\n              lt\n              tag_94\n              jumpi\n              0x0100\n              dup1\n              dup4\n              sload\n              div\n              mul\n              dup4\n              mstore\n              swap2\n              0x20\n              add\n              swap2\n              jump(tag_93)\n            tag_94:\n              dup3\n              add\n              swap2\n              swap1\n              0x00\n              mstore\n              keccak256(0x00, 0x20)\n              swap1\n            tag_95:\n              dup2\n              sload\n              dup2\n              mstore\n              swap1\n              0x01\n              add\n              swap1\n              0x20\n              add\n              dup1\n              dup4\n              gt\n              tag_95\n              jumpi\n              dup3\n              swap1\n              sub\n              0x1f\n              and\n              dup3\n              add\n              swap2\n            tag_93:\n              pop\n              pop\n              pop\n              pop\n              pop\n              swap1\n              dup1\n              0x01\n              add\n              sload\n              swap1\n              pop\n              dup3\n              jump\t// out\n                /* \"contracts/prop_test.sol\":3869:3963  function getnumOfProposals() public view returns(uint){\r... */\n            tag_32:\n                /* \"contracts/prop_test.sol\":3918:3922  uint */\n              0x00\n                /* \"contracts/prop_test.sol\":3941:3955  numOfProposals */\n              sload(0x04)\n                /* \"contracts/prop_test.sol\":3934:3955  return numOfProposals */\n              swap1\n              pop\n                /* \"contracts/prop_test.sol\":3869:3963  function getnumOfProposals() public view returns(uint){\r... */\n              swap1\n              jump\t// out\n                /* \"contracts/prop_test.sol\":3749:3827  function getStatus() public view returns(uint){\r... */\n            tag_36:\n                /* \"contracts/prop_test.sol\":3790:3794  uint */\n              0x00\n                /* \"contracts/prop_test.sol\":3813:3819  status */\n              sload(0x01)\n                /* \"contracts/prop_test.sol\":3806:3819  return status */\n              swap1\n              pop\n                /* \"contracts/prop_test.sol\":3749:3827  function getStatus() public view returns(uint){\r... */\n              swap1\n              jump\t// out\n                /* \"contracts/prop_test.sol\":2667:3021  function winningProposal() public view returns (uint winningProposal){\r... */\n            tag_39:\n                /* \"contracts/prop_test.sol\":2715:2735  uint winningProposal */\n              0x00\n                /* \"contracts/prop_test.sol\":2747:2768  uint winningVoteCount */\n              dup1\n                /* \"contracts/prop_test.sol\":2771:2772  0 */\n              0x00\n                /* \"contracts/prop_test.sol\":2747:2772  uint winningVoteCount = 0 */\n              swap1\n              pop\n                /* \"contracts/prop_test.sol\":2788:2794  uint p */\n              0x00\n                /* \"contracts/prop_test.sol\":2783:3014  for (uint p = 0; p < proposals.length; p++) {\r... */\n            tag_99:\n                /* \"contracts/prop_test.sol\":2804:2813  proposals */\n              0x06\n                /* \"contracts/prop_test.sol\":2804:2820  proposals.length */\n              dup1\n              sload\n              swap1\n              pop\n                /* \"contracts/prop_test.sol\":2800:2801  p */\n              dup2\n                /* \"contracts/prop_test.sol\":2800:2820  p < proposals.length */\n              lt\n                /* \"contracts/prop_test.sol\":2783:3014  for (uint p = 0; p < proposals.length; p++) {\r... */\n              iszero\n              tag_100\n              jumpi\n                /* \"contracts/prop_test.sol\":2871:2887  winningVoteCount */\n              dup2\n                /* \"contracts/prop_test.sol\":2846:2855  proposals */\n              0x06\n                /* \"contracts/prop_test.sol\":2856:2857  p */\n              dup3\n                /* \"contracts/prop_test.sol\":2846:2858  proposals[p] */\n              dup2\n              sload\n              dup2\n              lt\n              tag_102\n              jumpi\n              mstore(0x00, 0x4e487b7100000000000000000000000000000000000000000000000000000000)\n              mstore(0x04, 0x32)\n              revert(0x00, 0x24)\n            tag_102:\n              swap1\n              0x00\n              mstore\n              keccak256(0x00, 0x20)\n              swap1\n              0x02\n              mul\n              add\n                /* \"contracts/prop_test.sol\":2846:2868  proposals[p].voteCount */\n              0x01\n              add\n              sload\n                /* \"contracts/prop_test.sol\":2846:2887  proposals[p].voteCount > winningVoteCount */\n              gt\n                /* \"contracts/prop_test.sol\":2842:3003  if (proposals[p].voteCount > winningVoteCount) {\r... */\n              iszero\n              tag_104\n              jumpi\n                /* \"contracts/prop_test.sol\":2927:2936  proposals */\n              0x06\n                /* \"contracts/prop_test.sol\":2937:2938  p */\n              dup2\n                /* \"contracts/prop_test.sol\":2927:2939  proposals[p] */\n              dup2\n              sload\n              dup2\n              lt\n              tag_105\n              jumpi\n              mstore(0x00, 0x4e487b7100000000000000000000000000000000000000000000000000000000)\n              mstore(0x04, 0x32)\n              revert(0x00, 0x24)\n            tag_105:\n              swap1\n              0x00\n              mstore\n              keccak256(0x00, 0x20)\n              swap1\n              0x02\n              mul\n              add\n                /* \"contracts/prop_test.sol\":2927:2949  proposals[p].voteCount */\n              0x01\n              add\n              sload\n                /* \"contracts/prop_test.sol\":2908:2949  winningVoteCount = proposals[p].voteCount */\n              swap2\n              pop\n                /* \"contracts/prop_test.sol\":2986:2987  p */\n              dup1\n                /* \"contracts/prop_test.sol\":2968:2987  winningProposal = p */\n              swap3\n              pop\n                /* \"contracts/prop_test.sol\":2842:3003  if (proposals[p].voteCount > winningVoteCount) {\r... */\n            tag_104:\n                /* \"contracts/prop_test.sol\":2822:2825  p++ */\n              dup1\n              dup1\n              tag_107\n              swap1\n              tag_108\n              jump\t// in\n            tag_107:\n              swap2\n              pop\n              pop\n                /* \"contracts/prop_test.sol\":2783:3014  for (uint p = 0; p < proposals.length; p++) {\r... */\n              jump(tag_99)\n            tag_100:\n              pop\n                /* \"contracts/prop_test.sol\":2667:3021  function winningProposal() public view returns (uint winningProposal){\r... */\n              pop\n              swap1\n              jump\t// out\n                /* \"contracts/prop_test.sol\":4172:4269  function getProposals() public view returns(Proposal[] memory){\r... */\n            tag_42:\n                /* \"contracts/prop_test.sol\":4216:4233  Proposal[] memory */\n              0x60\n                /* \"contracts/prop_test.sol\":4252:4261  proposals */\n              0x06\n                /* \"contracts/prop_test.sol\":4245:4261  return proposals */\n              dup1\n              sload\n              dup1\n              0x20\n              mul\n              0x20\n              add\n              mload(0x40)\n              swap1\n              dup2\n              add\n              0x40\n              mstore\n              dup1\n              swap3\n              swap2\n              swap1\n              dup2\n              dup2\n              mstore\n              0x20\n              add\n              0x00\n              swap1\n            tag_110:\n              dup3\n              dup3\n              lt\n              iszero\n              tag_111\n              jumpi\n              dup4\n              dup3\n              swap1\n              0x00\n              mstore\n              keccak256(0x00, 0x20)\n              swap1\n              0x02\n              mul\n              add\n              mload(0x40)\n              dup1\n              0x40\n              add\n              0x40\n              mstore\n              swap1\n              dup2\n              0x00\n              dup3\n              add\n              dup1\n              sload\n              tag_113\n              swap1\n              tag_91\n              jump\t// in\n            tag_113:\n              dup1\n              0x1f\n              add\n              0x20\n              dup1\n              swap2\n              div\n              mul\n              0x20\n              add\n              mload(0x40)\n              swap1\n              dup2\n              add\n              0x40\n              mstore\n              dup1\n              swap3\n              swap2\n              swap1\n              dup2\n              dup2\n              mstore\n              0x20\n              add\n              dup3\n              dup1\n              sload\n              tag_114\n              swap1\n              tag_91\n              jump\t// in\n            tag_114:\n              dup1\n              iszero\n              tag_115\n              jumpi\n              dup1\n              0x1f\n              lt\n              tag_116\n              jumpi\n              0x0100\n              dup1\n              dup4\n              sload\n              div\n              mul\n              dup4\n              mstore\n              swap2\n              0x20\n              add\n              swap2\n              jump(tag_115)\n            tag_116:\n              dup3\n              add\n              swap2\n              swap1\n              0x00\n              mstore\n              keccak256(0x00, 0x20)\n              swap1\n            tag_117:\n              dup2\n              sload\n              dup2\n              mstore\n              swap1\n              0x01\n              add\n              swap1\n              0x20\n              add\n              dup1\n              dup4\n              gt\n              tag_117\n              jumpi\n              dup3\n              swap1\n              sub\n              0x1f\n              and\n              dup3\n              add\n              swap2\n            tag_115:\n              pop\n              pop\n              pop\n              pop\n              pop\n              dup2\n              mstore\n              0x20\n              add\n              0x01\n              dup3\n              add\n              sload\n              dup2\n              mstore\n              pop\n              pop\n              dup2\n              mstore\n              0x20\n              add\n              swap1\n              0x01\n              add\n              swap1\n              jump(tag_110)\n            tag_111:\n              pop\n              pop\n              pop\n              pop\n              swap1\n              pop\n                /* \"contracts/prop_test.sol\":4172:4269  function getProposals() public view returns(Proposal[] memory){\r... */\n              swap1\n              jump\t// out\n                /* \"contracts/prop_test.sol\":3632:3706  function setStatus(uint _status) public{\r... */\n            tag_47:\n                /* \"contracts/prop_test.sol\":3691:3698  _status */\n              dup1\n                /* \"contracts/prop_test.sol\":3682:3688  status */\n              0x01\n                /* \"contracts/prop_test.sol\":3682:3698  status = _status */\n              dup2\n              swap1\n              sstore\n              pop\n                /* \"contracts/prop_test.sol\":3632:3706  function setStatus(uint _status) public{\r... */\n              pop\n              jump\t// out\n                /* \"contracts/prop_test.sol\":4434:4518  function getStartDate() public view returns(uint){\r... */\n            tag_49:\n                /* \"contracts/prop_test.sol\":4478:4482  uint */\n              0x00\n                /* \"contracts/prop_test.sol\":4501:4510  startDate */\n              sload(0x02)\n                /* \"contracts/prop_test.sol\":4494:4510  return startDate */\n              swap1\n              pop\n                /* \"contracts/prop_test.sol\":4434:4518  function getStartDate() public view returns(uint){\r... */\n              swap1\n              jump\t// out\n                /* \"contracts/prop_test.sol\":3500:3589  function getCreatorBallot() public view returns(address){\r... */\n            tag_52:\n                /* \"contracts/prop_test.sol\":3548:3555  address */\n              0x00\n                /* \"contracts/prop_test.sol\":3574:3581  creator */\n              dup1\n              0x00\n              swap1\n              sload\n              swap1\n              0x0100\n              exp\n              swap1\n              div\n              0xffffffffffffffffffffffffffffffffffffffff\n              and\n                /* \"contracts/prop_test.sol\":3567:3581  return creator */\n              swap1\n              pop\n                /* \"contracts/prop_test.sol\":3500:3589  function getCreatorBallot() public view returns(address){\r... */\n              swap1\n              jump\t// out\n                /* \"contracts/prop_test.sol\":907:1647  function createBallot(string[] memory proposalNames) public {\r... */\n            tag_58:\n                /* \"contracts/prop_test.sol\":988:998  msg.sender */\n              caller\n                /* \"contracts/prop_test.sol\":978:985  creator */\n              0x00\n              dup1\n                /* \"contracts/prop_test.sol\":978:998  creator = msg.sender */\n              0x0100\n              exp\n              dup2\n              sload\n              dup2\n              0xffffffffffffffffffffffffffffffffffffffff\n              mul\n              not\n              and\n              swap1\n              dup4\n              0xffffffffffffffffffffffffffffffffffffffff\n              and\n              mul\n              or\n              swap1\n              sstore\n              pop\n                /* \"contracts/prop_test.sol\":1034:1035  1 */\n              0x01\n                /* \"contracts/prop_test.sol\":1009:1015  voters */\n              0x05\n                /* \"contracts/prop_test.sol\":1009:1024  voters[creator] */\n              0x00\n                /* \"contracts/prop_test.sol\":1016:1023  creator */\n              dup1\n              0x00\n              swap1\n              sload\n              swap1\n              0x0100\n              exp\n              swap1\n              div\n              0xffffffffffffffffffffffffffffffffffffffff\n              and\n                /* \"contracts/prop_test.sol\":1009:1024  voters[creator] */\n              0xffffffffffffffffffffffffffffffffffffffff\n              and\n              0xffffffffffffffffffffffffffffffffffffffff\n              and\n              dup2\n              mstore\n              0x20\n              add\n              swap1\n              dup2\n              mstore\n              0x20\n              add\n              0x00\n              keccak256\n                /* \"contracts/prop_test.sol\":1009:1031  voters[creator].weight */\n              0x00\n              add\n                /* \"contracts/prop_test.sol\":1009:1035  voters[creator].weight = 1 */\n              dup2\n              swap1\n              sstore\n              pop\n                /* \"contracts/prop_test.sol\":1057:1058  0 */\n              0x00\n                /* \"contracts/prop_test.sol\":1048:1054  status */\n              0x01\n                /* \"contracts/prop_test.sol\":1048:1058  status = 0 */\n              dup2\n              swap1\n              sstore\n              pop\n                /* \"contracts/prop_test.sol\":1069:1083  setStartDate() */\n              tag_122\n                /* \"contracts/prop_test.sol\":1069:1081  setStartDate */\n              tag_123\n                /* \"contracts/prop_test.sol\":1069:1083  setStartDate() */\n              jump\t// in\n            tag_122:\n                /* \"contracts/prop_test.sol\":1111:1124  proposalNames */\n              dup1\n                /* \"contracts/prop_test.sol\":1111:1131  proposalNames.length */\n              mload\n                /* \"contracts/prop_test.sol\":1094:1108  numOfProposals */\n              0x04\n                /* \"contracts/prop_test.sol\":1094:1131  numOfProposals = proposalNames.length */\n              dup2\n              swap1\n              sstore\n              pop\n                /* \"contracts/prop_test.sol\":1291:1297  uint i */\n              0x00\n                /* \"contracts/prop_test.sol\":1286:1640  for (uint i = 0; i < proposalNames.length; i++) {\r... */\n            tag_124:\n                /* \"contracts/prop_test.sol\":1307:1320  proposalNames */\n              dup2\n                /* \"contracts/prop_test.sol\":1307:1327  proposalNames.length */\n              mload\n                /* \"contracts/prop_test.sol\":1303:1304  i */\n              dup2\n                /* \"contracts/prop_test.sol\":1303:1327  i < proposalNames.length */\n              lt\n                /* \"contracts/prop_test.sol\":1286:1640  for (uint i = 0; i < proposalNames.length; i++) {\r... */\n              iszero\n              tag_125\n              jumpi\n                /* \"contracts/prop_test.sol\":1515:1524  proposals */\n              0x06\n                /* \"contracts/prop_test.sol\":1530:1627  Proposal({\r... */\n              mload(0x40)\n              dup1\n              0x40\n              add\n              0x40\n              mstore\n              dup1\n                /* \"contracts/prop_test.sol\":1564:1577  proposalNames */\n              dup5\n                /* \"contracts/prop_test.sol\":1578:1579  i */\n              dup5\n                /* \"contracts/prop_test.sol\":1564:1580  proposalNames[i] */\n              dup2\n              mload\n              dup2\n              lt\n              tag_127\n              jumpi\n              mstore(0x00, 0x4e487b7100000000000000000000000000000000000000000000000000000000)\n              mstore(0x04, 0x32)\n              revert(0x00, 0x24)\n            tag_127:\n              0x20\n              mul\n              0x20\n              add\n              add\n              mload\n                /* \"contracts/prop_test.sol\":1530:1627  Proposal({\r... */\n              dup2\n              mstore\n              0x20\n              add\n                /* \"contracts/prop_test.sol\":1610:1611  0 */\n              0x00\n                /* \"contracts/prop_test.sol\":1530:1627  Proposal({\r... */\n              dup2\n              mstore\n              pop\n                /* \"contracts/prop_test.sol\":1515:1628  proposals.push(Proposal({\r... */\n              swap1\n              dup1\n              0x01\n              dup2\n              sload\n              add\n              dup1\n              dup3\n              sstore\n              dup1\n              swap2\n              pop\n              pop\n              0x01\n              swap1\n              sub\n              swap1\n              0x00\n              mstore\n              keccak256(0x00, 0x20)\n              swap1\n              0x02\n              mul\n              add\n              0x00\n              swap1\n              swap2\n              swap1\n              swap2\n              swap1\n              swap2\n              pop\n              0x00\n              dup3\n              add\n              mload\n              dup2\n              0x00\n              add\n              swap1\n              dup1\n              mload\n              swap1\n              0x20\n              add\n              swap1\n              tag_129\n              swap3\n              swap2\n              swap1\n              tag_130\n              jump\t// in\n            tag_129:\n              pop\n              0x20\n              dup3\n              add\n              mload\n              dup2\n              0x01\n              add\n              sstore\n              pop\n              pop\n                /* \"contracts/prop_test.sol\":1329:1332  i++ */\n              dup1\n              dup1\n              tag_131\n              swap1\n              tag_108\n              jump\t// in\n            tag_131:\n              swap2\n              pop\n              pop\n                /* \"contracts/prop_test.sol\":1286:1640  for (uint i = 0; i < proposalNames.length; i++) {\r... */\n              jump(tag_124)\n            tag_125:\n              pop\n                /* \"contracts/prop_test.sol\":907:1647  function createBallot(string[] memory proposalNames) public {\r... */\n              pop\n              jump\t// out\n                /* \"contracts/prop_test.sol\":4560:4632  function setEndDate() public{\r... */\n            tag_60:\n                /* \"contracts/prop_test.sol\":4609:4624  block.timestamp */\n              timestamp\n                /* \"contracts/prop_test.sol\":4599:4606  endDate */\n              0x03\n                /* \"contracts/prop_test.sol\":4599:4624  endDate = block.timestamp */\n              dup2\n              swap1\n              sstore\n              pop\n                /* \"contracts/prop_test.sol\":4560:4632  function setEndDate() public{\r... */\n              jump\t// out\n                /* \"contracts/prop_test.sol\":1655:2233  function giveRightToVote(address voter) public {\r... */\n            tag_64:\n                /* \"contracts/prop_test.sol\":2126:2133  creator */\n              0x00\n              dup1\n              sload\n              swap1\n              0x0100\n              exp\n              swap1\n              div\n              0xffffffffffffffffffffffffffffffffffffffff\n              and\n                /* \"contracts/prop_test.sol\":2112:2133  msg.sender == creator */\n              0xffffffffffffffffffffffffffffffffffffffff\n              and\n                /* \"contracts/prop_test.sol\":2112:2122  msg.sender */\n              caller\n                /* \"contracts/prop_test.sol\":2112:2133  msg.sender == creator */\n              0xffffffffffffffffffffffffffffffffffffffff\n              and\n              eq\n                /* \"contracts/prop_test.sol\":2111:2158  (msg.sender == creator) && !voters[voter].voted */\n              dup1\n              iszero\n              tag_134\n              jumpi\n              pop\n                /* \"contracts/prop_test.sol\":2139:2145  voters */\n              0x05\n                /* \"contracts/prop_test.sol\":2139:2152  voters[voter] */\n              0x00\n                /* \"contracts/prop_test.sol\":2146:2151  voter */\n              dup3\n                /* \"contracts/prop_test.sol\":2139:2152  voters[voter] */\n              0xffffffffffffffffffffffffffffffffffffffff\n              and\n              0xffffffffffffffffffffffffffffffffffffffff\n              and\n              dup2\n              mstore\n              0x20\n              add\n              swap1\n              dup2\n              mstore\n              0x20\n              add\n              0x00\n              keccak256\n                /* \"contracts/prop_test.sol\":2139:2158  voters[voter].voted */\n              0x01\n              add\n              0x00\n              swap1\n              sload\n              swap1\n              0x0100\n              exp\n              swap1\n              div\n              0xff\n              and\n                /* \"contracts/prop_test.sol\":2138:2158  !voters[voter].voted */\n              iszero\n                /* \"contracts/prop_test.sol\":2111:2158  (msg.sender == creator) && !voters[voter].voted */\n            tag_134:\n                /* \"contracts/prop_test.sol\":2111:2189  (msg.sender == creator) && !voters[voter].voted && (voters[voter].weight == 0) */\n              dup1\n              iszero\n              tag_135\n              jumpi\n              pop\n                /* \"contracts/prop_test.sol\":2187:2188  0 */\n              0x00\n                /* \"contracts/prop_test.sol\":2163:2169  voters */\n              0x05\n                /* \"contracts/prop_test.sol\":2163:2176  voters[voter] */\n              0x00\n                /* \"contracts/prop_test.sol\":2170:2175  voter */\n              dup4\n                /* \"contracts/prop_test.sol\":2163:2176  voters[voter] */\n              0xffffffffffffffffffffffffffffffffffffffff\n              and\n              0xffffffffffffffffffffffffffffffffffffffff\n              and\n              dup2\n              mstore\n              0x20\n              add\n              swap1\n              dup2\n              mstore\n              0x20\n              add\n              0x00\n              keccak256\n                /* \"contracts/prop_test.sol\":2163:2183  voters[voter].weight */\n              0x00\n              add\n              sload\n                /* \"contracts/prop_test.sol\":2163:2188  voters[voter].weight == 0 */\n              eq\n                /* \"contracts/prop_test.sol\":2111:2189  (msg.sender == creator) && !voters[voter].voted && (voters[voter].weight == 0) */\n            tag_135:\n                /* \"contracts/prop_test.sol\":2103:2190  require((msg.sender == creator) && !voters[voter].voted && (voters[voter].weight == 0)) */\n              tag_136\n              jumpi\n              0x00\n              dup1\n              revert\n            tag_136:\n                /* \"contracts/prop_test.sol\":2224:2225  1 */\n              0x01\n                /* \"contracts/prop_test.sol\":2201:2207  voters */\n              0x05\n                /* \"contracts/prop_test.sol\":2201:2214  voters[voter] */\n              0x00\n                /* \"contracts/prop_test.sol\":2208:2213  voter */\n              dup4\n                /* \"contracts/prop_test.sol\":2201:2214  voters[voter] */\n              0xffffffffffffffffffffffffffffffffffffffff\n              and\n              0xffffffffffffffffffffffffffffffffffffffff\n              and\n              dup2\n              mstore\n              0x20\n              add\n              swap1\n              dup2\n              mstore\n              0x20\n              add\n              0x00\n              keccak256\n                /* \"contracts/prop_test.sol\":2201:2221  voters[voter].weight */\n              0x00\n              add\n                /* \"contracts/prop_test.sol\":2201:2225  voters[voter].weight = 1 */\n              dup2\n              swap1\n              sstore\n              pop\n                /* \"contracts/prop_test.sol\":1655:2233  function giveRightToVote(address voter) public {\r... */\n              pop\n              jump\t// out\n                /* \"contracts/prop_test.sol\":766:805  mapping(address => Voter) public voters */\n            tag_67:\n              mstore(0x20, 0x05)\n              dup1\n              0x00\n              mstore\n              keccak256(0x00, 0x40)\n              0x00\n              swap2\n              pop\n              swap1\n              pop\n              dup1\n              0x00\n              add\n              sload\n              swap1\n              dup1\n              0x01\n              add\n              0x00\n              swap1\n              sload\n              swap1\n              0x0100\n              exp\n              swap1\n              div\n              0xff\n              and\n              swap1\n              dup1\n              0x01\n              add\n              0x01\n              swap1\n              sload\n              swap1\n              0x0100\n              exp\n              swap1\n              div\n              0xffffffffffffffffffffffffffffffffffffffff\n              and\n              swap1\n              dup1\n              0x02\n              add\n              sload\n              swap1\n              pop\n              dup5\n              jump\t// out\n                /* \"contracts/prop_test.sol\":4672:4752  function getEndDate() public view returns(uint){\r... */\n            tag_71:\n                /* \"contracts/prop_test.sol\":4714:4718  uint */\n              0x00\n                /* \"contracts/prop_test.sol\":4737:4744  endDate */\n              sload(0x03)\n                /* \"contracts/prop_test.sol\":4730:4744  return endDate */\n              swap1\n              pop\n                /* \"contracts/prop_test.sol\":4672:4752  function getEndDate() public view returns(uint){\r... */\n              swap1\n              jump\t// out\n                /* \"contracts/prop_test.sol\":3190:3328  function winnerName() public view returns(string memory winnerName)\r... */\n            tag_74:\n                /* \"contracts/prop_test.sol\":3232:3256  string memory winnerName */\n              0x60\n                /* \"contracts/prop_test.sol\":3287:3296  proposals */\n              0x06\n                /* \"contracts/prop_test.sol\":3297:3314  winningProposal() */\n              tag_139\n                /* \"contracts/prop_test.sol\":3297:3312  winningProposal */\n              tag_39\n                /* \"contracts/prop_test.sol\":3297:3314  winningProposal() */\n              jump\t// in\n            tag_139:\n                /* \"contracts/prop_test.sol\":3287:3315  proposals[winningProposal()] */\n              dup2\n              sload\n              dup2\n              lt\n              tag_140\n              jumpi\n              mstore(0x00, 0x4e487b7100000000000000000000000000000000000000000000000000000000)\n              mstore(0x04, 0x32)\n              revert(0x00, 0x24)\n            tag_140:\n              swap1\n              0x00\n              mstore\n              keccak256(0x00, 0x20)\n              swap1\n              0x02\n              mul\n              add\n                /* \"contracts/prop_test.sol\":3287:3320  proposals[winningProposal()].name */\n              0x00\n              add\n                /* \"contracts/prop_test.sol\":3274:3320  winnerName = proposals[winningProposal()].name */\n              dup1\n              sload\n              tag_142\n              swap1\n              tag_91\n              jump\t// in\n            tag_142:\n              dup1\n              0x1f\n              add\n              0x20\n              dup1\n              swap2\n              div\n              mul\n              0x20\n              add\n              mload(0x40)\n              swap1\n              dup2\n              add\n              0x40\n              mstore\n              dup1\n              swap3\n              swap2\n              swap1\n              dup2\n              dup2\n              mstore\n              0x20\n              add\n              dup3\n              dup1\n              sload\n              tag_143\n              swap1\n              tag_91\n              jump\t// in\n            tag_143:\n              dup1\n              iszero\n              tag_144\n              jumpi\n              dup1\n              0x1f\n              lt\n              tag_145\n              jumpi\n              0x0100\n              dup1\n              dup4\n              sload\n              div\n              mul\n              dup4\n              mstore\n              swap2\n              0x20\n              add\n              swap2\n              jump(tag_144)\n            tag_145:\n              dup3\n              add\n              swap2\n              swap1\n              0x00\n              mstore\n              keccak256(0x00, 0x20)\n              swap1\n            tag_146:\n              dup2\n              sload\n              dup2\n              mstore\n              swap1\n              0x01\n              add\n              swap1\n              0x20\n              add\n              dup1\n              dup4\n              gt\n              tag_146\n              jumpi\n              dup3\n              swap1\n              sub\n              0x1f\n              and\n              dup3\n              add\n              swap2\n            tag_144:\n              pop\n              pop\n              pop\n              pop\n              pop\n              swap1\n              pop\n                /* \"contracts/prop_test.sol\":3190:3328  function winnerName() public view returns(string memory winnerName)\r... */\n              swap1\n              jump\t// out\n                /* \"contracts/prop_test.sol\":4005:4137  function getProposalStructure(uint _proposalId) public view returns(Proposal memory){\r... */\n            tag_79:\n                /* \"contracts/prop_test.sol\":4073:4088  Proposal memory */\n              tag_147\n              tag_148\n              jump\t// in\n            tag_147:\n                /* \"contracts/prop_test.sol\":4107:4116  proposals */\n              0x06\n                /* \"contracts/prop_test.sol\":4117:4128  _proposalId */\n              dup3\n                /* \"contracts/prop_test.sol\":4107:4129  proposals[_proposalId] */\n              dup2\n              sload\n              dup2\n              lt\n              tag_150\n              jumpi\n              mstore(0x00, 0x4e487b7100000000000000000000000000000000000000000000000000000000)\n              mstore(0x04, 0x32)\n              revert(0x00, 0x24)\n            tag_150:\n              swap1\n              0x00\n              mstore\n              keccak256(0x00, 0x20)\n              swap1\n              0x02\n              mul\n              add\n                /* \"contracts/prop_test.sol\":4100:4129  return proposals[_proposalId] */\n              mload(0x40)\n              dup1\n              0x40\n              add\n              0x40\n              mstore\n              swap1\n              dup2\n              0x00\n              dup3\n              add\n              dup1\n              sload\n              tag_152\n              swap1\n              tag_91\n              jump\t// in\n            tag_152:\n              dup1\n              0x1f\n              add\n              0x20\n              dup1\n              swap2\n              div\n              mul\n              0x20\n              add\n              mload(0x40)\n              swap1\n              dup2\n              add\n              0x40\n              mstore\n              dup1\n              swap3\n              swap2\n              swap1\n              dup2\n              dup2\n              mstore\n              0x20\n              add\n              dup3\n              dup1\n              sload\n              tag_153\n              swap1\n              tag_91\n              jump\t// in\n            tag_153:\n              dup1\n              iszero\n              tag_154\n              jumpi\n              dup1\n              0x1f\n              lt\n              tag_155\n              jumpi\n              0x0100\n              dup1\n              dup4\n              sload\n              div\n              mul\n              dup4\n              mstore\n              swap2\n              0x20\n              add\n              swap2\n              jump(tag_154)\n            tag_155:\n              dup3\n              add\n              swap2\n              swap1\n              0x00\n              mstore\n              keccak256(0x00, 0x20)\n              swap1\n            tag_156:\n              dup2\n              sload\n              dup2\n              mstore\n              swap1\n              0x01\n              add\n              swap1\n              0x20\n              add\n              dup1\n              dup4\n              gt\n              tag_156\n              jumpi\n              dup3\n              swap1\n              sub\n              0x1f\n              and\n              dup3\n              add\n              swap2\n            tag_154:\n              pop\n              pop\n              pop\n              pop\n              pop\n              dup2\n              mstore\n              0x20\n              add\n              0x01\n              dup3\n              add\n              sload\n              dup2\n              mstore\n              pop\n              pop\n              swap1\n              pop\n                /* \"contracts/prop_test.sol\":4005:4137  function getProposalStructure(uint _proposalId) public view returns(Proposal memory){\r... */\n              swap2\n              swap1\n              pop\n              jump\t// out\n                /* \"contracts/prop_test.sol\":4313:4392  function setStartDate() internal {\r... */\n            tag_123:\n                /* \"contracts/prop_test.sol\":4369:4384  block.timestamp */\n              timestamp\n                /* \"contracts/prop_test.sol\":4357:4366  startDate */\n              0x02\n                /* \"contracts/prop_test.sol\":4357:4384  startDate = block.timestamp */\n              dup2\n              swap1\n              sstore\n              pop\n                /* \"contracts/prop_test.sol\":4313:4392  function setStartDate() internal {\r... */\n              jump\t// out\n            tag_130:\n              dup3\n              dup1\n              sload\n              tag_158\n              swap1\n              tag_91\n              jump\t// in\n            tag_158:\n              swap1\n              0x00\n              mstore\n              keccak256(0x00, 0x20)\n              swap1\n              0x1f\n              add\n              0x20\n              swap1\n              div\n              dup2\n              add\n              swap3\n              dup3\n              tag_160\n              jumpi\n              0x00\n              dup6\n              sstore\n              jump(tag_159)\n            tag_160:\n              dup3\n              0x1f\n              lt\n              tag_161\n              jumpi\n              dup1\n              mload\n              not(0xff)\n              and\n              dup4\n              dup1\n              add\n              or\n              dup6\n              sstore\n              jump(tag_159)\n            tag_161:\n              dup3\n              dup1\n              add\n              0x01\n              add\n              dup6\n              sstore\n              dup3\n              iszero\n              tag_159\n              jumpi\n              swap2\n              dup3\n              add\n            tag_162:\n              dup3\n              dup2\n              gt\n              iszero\n              tag_163\n              jumpi\n              dup3\n              mload\n              dup3\n              sstore\n              swap2\n              0x20\n              add\n              swap2\n              swap1\n              0x01\n              add\n              swap1\n              jump(tag_162)\n            tag_163:\n            tag_159:\n              pop\n              swap1\n              pop\n              tag_164\n              swap2\n              swap1\n              tag_165\n              jump\t// in\n            tag_164:\n              pop\n              swap1\n              jump\t// out\n            tag_148:\n              mload(0x40)\n              dup1\n              0x40\n              add\n              0x40\n              mstore\n              dup1\n              0x60\n              dup2\n              mstore\n              0x20\n              add\n              0x00\n              dup2\n              mstore\n              pop\n              swap1\n              jump\t// out\n            tag_165:\n            tag_166:\n              dup1\n              dup3\n              gt\n              iszero\n              tag_167\n              jumpi\n              0x00\n              dup2\n              0x00\n              swap1\n              sstore\n              pop\n              0x01\n              add\n              jump(tag_166)\n            tag_167:\n              pop\n              swap1\n              jump\t// out\n                /* \"#utility.yul\":23:638   */\n            tag_169:\n              0x00\n                /* \"#utility.yul\":154:244   */\n              tag_171\n                /* \"#utility.yul\":169:243   */\n              tag_172\n                /* \"#utility.yul\":236:242   */\n              dup5\n                /* \"#utility.yul\":169:243   */\n              tag_173\n              jump\t// in\n            tag_172:\n                /* \"#utility.yul\":154:244   */\n              tag_174\n              jump\t// in\n            tag_171:\n                /* \"#utility.yul\":145:244   */\n              swap1\n              pop\n                /* \"#utility.yul\":264:269   */\n              dup1\n                /* \"#utility.yul\":292:298   */\n              dup4\n                /* \"#utility.yul\":285:290   */\n              dup3\n                /* \"#utility.yul\":278:299   */\n              mstore\n                /* \"#utility.yul\":318:322   */\n              0x20\n                /* \"#utility.yul\":311:316   */\n              dup3\n                /* \"#utility.yul\":307:323   */\n              add\n                /* \"#utility.yul\":300:323   */\n              swap1\n              pop\n                /* \"#utility.yul\":343:349   */\n              dup3\n                /* \"#utility.yul\":374:375   */\n              0x00\n                /* \"#utility.yul\":359:632   */\n            tag_175:\n                /* \"#utility.yul\":384:390   */\n              dup6\n                /* \"#utility.yul\":381:382   */\n              dup2\n                /* \"#utility.yul\":378:391   */\n              lt\n                /* \"#utility.yul\":359:632   */\n              iszero\n              tag_177\n              jumpi\n                /* \"#utility.yul\":476:479   */\n              dup2\n                /* \"#utility.yul\":463:480   */\n              calldataload\n                /* \"#utility.yul\":455:461   */\n              dup6\n                /* \"#utility.yul\":451:481   */\n              add\n                /* \"#utility.yul\":506:553   */\n              tag_178\n                /* \"#utility.yul\":549:552   */\n              dup9\n                /* \"#utility.yul\":537:547   */\n              dup3\n                /* \"#utility.yul\":506:553   */\n              tag_179\n              jump\t// in\n            tag_178:\n                /* \"#utility.yul\":501:504   */\n              dup5\n                /* \"#utility.yul\":494:554   */\n              mstore\n                /* \"#utility.yul\":583:587   */\n              0x20\n                /* \"#utility.yul\":578:581   */\n              dup5\n                /* \"#utility.yul\":574:588   */\n              add\n                /* \"#utility.yul\":567:588   */\n              swap4\n              pop\n                /* \"#utility.yul\":617:621   */\n              0x20\n                /* \"#utility.yul\":612:615   */\n              dup4\n                /* \"#utility.yul\":608:622   */\n              add\n                /* \"#utility.yul\":601:622   */\n              swap3\n              pop\n                /* \"#utility.yul\":419:632   */\n              pop\n                /* \"#utility.yul\":406:407   */\n              0x01\n                /* \"#utility.yul\":403:404   */\n              dup2\n                /* \"#utility.yul\":399:408   */\n              add\n                /* \"#utility.yul\":394:408   */\n              swap1\n              pop\n                /* \"#utility.yul\":359:632   */\n              jump(tag_175)\n            tag_177:\n                /* \"#utility.yul\":363:377   */\n              pop\n                /* \"#utility.yul\":135:638   */\n              pop\n              pop\n              swap4\n              swap3\n              pop\n              pop\n              pop\n              jump\t// out\n                /* \"#utility.yul\":644:988   */\n            tag_180:\n              0x00\n                /* \"#utility.yul\":747:812   */\n              tag_182\n                /* \"#utility.yul\":762:811   */\n              tag_183\n                /* \"#utility.yul\":804:810   */\n              dup5\n                /* \"#utility.yul\":762:811   */\n              tag_184\n              jump\t// in\n            tag_183:\n                /* \"#utility.yul\":747:812   */\n              tag_174\n              jump\t// in\n            tag_182:\n                /* \"#utility.yul\":738:812   */\n              swap1\n              pop\n                /* \"#utility.yul\":835:841   */\n              dup3\n                /* \"#utility.yul\":828:833   */\n              dup2\n                /* \"#utility.yul\":821:842   */\n              mstore\n                /* \"#utility.yul\":873:877   */\n              0x20\n                /* \"#utility.yul\":866:871   */\n              dup2\n                /* \"#utility.yul\":862:878   */\n              add\n                /* \"#utility.yul\":911:914   */\n              dup5\n                /* \"#utility.yul\":902:908   */\n              dup5\n                /* \"#utility.yul\":897:900   */\n              dup5\n                /* \"#utility.yul\":893:909   */\n              add\n                /* \"#utility.yul\":890:915   */\n              gt\n                /* \"#utility.yul\":887:889   */\n              iszero\n              tag_185\n              jumpi\n                /* \"#utility.yul\":928:929   */\n              0x00\n                /* \"#utility.yul\":925:926   */\n              dup1\n                /* \"#utility.yul\":918:930   */\n              revert\n                /* \"#utility.yul\":887:889   */\n            tag_185:\n                /* \"#utility.yul\":941:982   */\n              tag_186\n                /* \"#utility.yul\":975:981   */\n              dup5\n                /* \"#utility.yul\":970:973   */\n              dup3\n                /* \"#utility.yul\":965:968   */\n              dup6\n                /* \"#utility.yul\":941:982   */\n              tag_187\n              jump\t// in\n            tag_186:\n                /* \"#utility.yul\":728:988   */\n              pop\n              swap4\n              swap3\n              pop\n              pop\n              pop\n              jump\t// out\n                /* \"#utility.yul\":994:1133   */\n            tag_188:\n              0x00\n                /* \"#utility.yul\":1078:1084   */\n              dup2\n                /* \"#utility.yul\":1065:1085   */\n              calldataload\n                /* \"#utility.yul\":1056:1085   */\n              swap1\n              pop\n                /* \"#utility.yul\":1094:1127   */\n              tag_190\n                /* \"#utility.yul\":1121:1126   */\n              dup2\n                /* \"#utility.yul\":1094:1127   */\n              tag_191\n              jump\t// in\n            tag_190:\n                /* \"#utility.yul\":1046:1133   */\n              swap3\n              swap2\n              pop\n              pop\n              jump\t// out\n                /* \"#utility.yul\":1155:1478   */\n            tag_192:\n              0x00\n                /* \"#utility.yul\":1285:1288   */\n              dup3\n                /* \"#utility.yul\":1278:1282   */\n              0x1f\n                /* \"#utility.yul\":1270:1276   */\n              dup4\n                /* \"#utility.yul\":1266:1283   */\n              add\n                /* \"#utility.yul\":1262:1289   */\n              slt\n                /* \"#utility.yul\":1252:1254   */\n              tag_194\n              jumpi\n                /* \"#utility.yul\":1303:1304   */\n              0x00\n                /* \"#utility.yul\":1300:1301   */\n              dup1\n                /* \"#utility.yul\":1293:1305   */\n              revert\n                /* \"#utility.yul\":1252:1254   */\n            tag_194:\n                /* \"#utility.yul\":1343:1349   */\n              dup2\n                /* \"#utility.yul\":1330:1350   */\n              calldataload\n                /* \"#utility.yul\":1368:1472   */\n              tag_195\n                /* \"#utility.yul\":1468:1471   */\n              dup5\n                /* \"#utility.yul\":1460:1466   */\n              dup3\n                /* \"#utility.yul\":1453:1457   */\n              0x20\n                /* \"#utility.yul\":1445:1451   */\n              dup7\n                /* \"#utility.yul\":1441:1458   */\n              add\n                /* \"#utility.yul\":1368:1472   */\n              tag_169\n              jump\t// in\n            tag_195:\n                /* \"#utility.yul\":1359:1472   */\n              swap2\n              pop\n                /* \"#utility.yul\":1242:1478   */\n              pop\n              swap3\n              swap2\n              pop\n              pop\n              jump\t// out\n                /* \"#utility.yul\":1498:1771   */\n            tag_179:\n              0x00\n                /* \"#utility.yul\":1603:1606   */\n              dup3\n                /* \"#utility.yul\":1596:1600   */\n              0x1f\n                /* \"#utility.yul\":1588:1594   */\n              dup4\n                /* \"#utility.yul\":1584:1601   */\n              add\n                /* \"#utility.yul\":1580:1607   */\n              slt\n                /* \"#utility.yul\":1570:1572   */\n              tag_197\n              jumpi\n                /* \"#utility.yul\":1621:1622   */\n              0x00\n                /* \"#utility.yul\":1618:1619   */\n              dup1\n                /* \"#utility.yul\":1611:1623   */\n              revert\n                /* \"#utility.yul\":1570:1572   */\n            tag_197:\n                /* \"#utility.yul\":1661:1667   */\n              dup2\n                /* \"#utility.yul\":1648:1668   */\n              calldataload\n                /* \"#utility.yul\":1686:1765   */\n              tag_198\n                /* \"#utility.yul\":1761:1764   */\n              dup5\n                /* \"#utility.yul\":1753:1759   */\n              dup3\n                /* \"#utility.yul\":1746:1750   */\n              0x20\n                /* \"#utility.yul\":1738:1744   */\n              dup7\n                /* \"#utility.yul\":1734:1751   */\n              add\n                /* \"#utility.yul\":1686:1765   */\n              tag_180\n              jump\t// in\n            tag_198:\n                /* \"#utility.yul\":1677:1765   */\n              swap2\n              pop\n                /* \"#utility.yul\":1560:1771   */\n              pop\n              swap3\n              swap2\n              pop\n              pop\n              jump\t// out\n                /* \"#utility.yul\":1777:1916   */\n            tag_199:\n              0x00\n                /* \"#utility.yul\":1861:1867   */\n              dup2\n                /* \"#utility.yul\":1848:1868   */\n              calldataload\n                /* \"#utility.yul\":1839:1868   */\n              swap1\n              pop\n                /* \"#utility.yul\":1877:1910   */\n              tag_201\n                /* \"#utility.yul\":1904:1909   */\n              dup2\n                /* \"#utility.yul\":1877:1910   */\n              tag_202\n              jump\t// in\n            tag_201:\n                /* \"#utility.yul\":1829:1916   */\n              swap3\n              swap2\n              pop\n              pop\n              jump\t// out\n                /* \"#utility.yul\":1922:2184   */\n            tag_63:\n              0x00\n                /* \"#utility.yul\":2030:2032   */\n              0x20\n                /* \"#utility.yul\":2018:2027   */\n              dup3\n                /* \"#utility.yul\":2009:2016   */\n              dup5\n                /* \"#utility.yul\":2005:2028   */\n              sub\n                /* \"#utility.yul\":2001:2033   */\n              slt\n                /* \"#utility.yul\":1998:2000   */\n              iszero\n              tag_204\n              jumpi\n                /* \"#utility.yul\":2046:2047   */\n              0x00\n                /* \"#utility.yul\":2043:2044   */\n              dup1\n                /* \"#utility.yul\":2036:2048   */\n              revert\n                /* \"#utility.yul\":1998:2000   */\n            tag_204:\n                /* \"#utility.yul\":2089:2090   */\n              0x00\n                /* \"#utility.yul\":2114:2167   */\n              tag_205\n                /* \"#utility.yul\":2159:2166   */\n              dup5\n                /* \"#utility.yul\":2150:2156   */\n              dup3\n                /* \"#utility.yul\":2139:2148   */\n              dup6\n                /* \"#utility.yul\":2135:2157   */\n              add\n                /* \"#utility.yul\":2114:2167   */\n              tag_188\n              jump\t// in\n            tag_205:\n                /* \"#utility.yul\":2104:2167   */\n              swap2\n              pop\n                /* \"#utility.yul\":2060:2177   */\n              pop\n                /* \"#utility.yul\":1988:2184   */\n              swap3\n              swap2\n              pop\n              pop\n              jump\t// out\n                /* \"#utility.yul\":2190:2615   */\n            tag_57:\n              0x00\n                /* \"#utility.yul\":2333:2335   */\n              0x20\n                /* \"#utility.yul\":2321:2330   */\n              dup3\n                /* \"#utility.yul\":2312:2319   */\n              dup5\n                /* \"#utility.yul\":2308:2331   */\n              sub\n                /* \"#utility.yul\":2304:2336   */\n              slt\n                /* \"#utility.yul\":2301:2303   */\n              iszero\n              tag_207\n              jumpi\n                /* \"#utility.yul\":2349:2350   */\n              0x00\n                /* \"#utility.yul\":2346:2347   */\n              dup1\n                /* \"#utility.yul\":2339:2351   */\n              revert\n                /* \"#utility.yul\":2301:2303   */\n            tag_207:\n                /* \"#utility.yul\":2420:2421   */\n              0x00\n                /* \"#utility.yul\":2409:2418   */\n              dup3\n                /* \"#utility.yul\":2405:2422   */\n              add\n                /* \"#utility.yul\":2392:2423   */\n              calldataload\n                /* \"#utility.yul\":2450:2468   */\n              0xffffffffffffffff\n                /* \"#utility.yul\":2442:2448   */\n              dup2\n                /* \"#utility.yul\":2439:2469   */\n              gt\n                /* \"#utility.yul\":2436:2438   */\n              iszero\n              tag_208\n              jumpi\n                /* \"#utility.yul\":2482:2483   */\n              0x00\n                /* \"#utility.yul\":2479:2480   */\n              dup1\n                /* \"#utility.yul\":2472:2484   */\n              revert\n                /* \"#utility.yul\":2436:2438   */\n            tag_208:\n                /* \"#utility.yul\":2510:2598   */\n              tag_209\n                /* \"#utility.yul\":2590:2597   */\n              dup5\n                /* \"#utility.yul\":2581:2587   */\n              dup3\n                /* \"#utility.yul\":2570:2579   */\n              dup6\n                /* \"#utility.yul\":2566:2588   */\n              add\n                /* \"#utility.yul\":2510:2598   */\n              tag_192\n              jump\t// in\n            tag_209:\n                /* \"#utility.yul\":2500:2598   */\n              swap2\n              pop\n                /* \"#utility.yul\":2363:2608   */\n              pop\n                /* \"#utility.yul\":2291:2615   */\n              swap3\n              swap2\n              pop\n              pop\n              jump\t// out\n                /* \"#utility.yul\":2621:2883   */\n            tag_24:\n              0x00\n                /* \"#utility.yul\":2729:2731   */\n              0x20\n                /* \"#utility.yul\":2717:2726   */\n              dup3\n                /* \"#utility.yul\":2708:2715   */\n              dup5\n                /* \"#utility.yul\":2704:2727   */\n              sub\n                /* \"#utility.yul\":2700:2732   */\n              slt\n                /* \"#utility.yul\":2697:2699   */\n              iszero\n              tag_211\n              jumpi\n                /* \"#utility.yul\":2745:2746   */\n              0x00\n                /* \"#utility.yul\":2742:2743   */\n              dup1\n                /* \"#utility.yul\":2735:2747   */\n              revert\n                /* \"#utility.yul\":2697:2699   */\n            tag_211:\n                /* \"#utility.yul\":2788:2789   */\n              0x00\n                /* \"#utility.yul\":2813:2866   */\n              tag_212\n                /* \"#utility.yul\":2858:2865   */\n              dup5\n                /* \"#utility.yul\":2849:2855   */\n              dup3\n                /* \"#utility.yul\":2838:2847   */\n              dup6\n                /* \"#utility.yul\":2834:2856   */\n              add\n                /* \"#utility.yul\":2813:2866   */\n              tag_199\n              jump\t// in\n            tag_212:\n                /* \"#utility.yul\":2803:2866   */\n              swap2\n              pop\n                /* \"#utility.yul\":2759:2876   */\n              pop\n                /* \"#utility.yul\":2687:2883   */\n              swap3\n              swap2\n              pop\n              pop\n              jump\t// out\n                /* \"#utility.yul\":2889:3141   */\n            tag_213:\n              0x00\n                /* \"#utility.yul\":3041:3135   */\n              tag_215\n                /* \"#utility.yul\":3131:3134   */\n              dup4\n                /* \"#utility.yul\":3123:3129   */\n              dup4\n                /* \"#utility.yul\":3041:3135   */\n              tag_216\n              jump\t// in\n            tag_215:\n                /* \"#utility.yul\":3027:3135   */\n              swap1\n              pop\n                /* \"#utility.yul\":3017:3141   */\n              swap3\n              swap2\n              pop\n              pop\n              jump\t// out\n                /* \"#utility.yul\":3147:3265   */\n            tag_217:\n                /* \"#utility.yul\":3234:3258   */\n              tag_219\n                /* \"#utility.yul\":3252:3257   */\n              dup2\n                /* \"#utility.yul\":3234:3258   */\n              tag_220\n              jump\t// in\n            tag_219:\n                /* \"#utility.yul\":3229:3232   */\n              dup3\n                /* \"#utility.yul\":3222:3259   */\n              mstore\n                /* \"#utility.yul\":3212:3265   */\n              pop\n              pop\n              jump\t// out\n                /* \"#utility.yul\":3331:4434   */\n            tag_221:\n              0x00\n                /* \"#utility.yul\":3527:3605   */\n              tag_223\n                /* \"#utility.yul\":3599:3604   */\n              dup3\n                /* \"#utility.yul\":3527:3605   */\n              tag_224\n              jump\t// in\n            tag_223:\n                /* \"#utility.yul\":3621:3731   */\n              tag_225\n                /* \"#utility.yul\":3724:3730   */\n              dup2\n                /* \"#utility.yul\":3719:3722   */\n              dup6\n                /* \"#utility.yul\":3621:3731   */\n              tag_226\n              jump\t// in\n            tag_225:\n                /* \"#utility.yul\":3614:3731   */\n              swap4\n              pop\n                /* \"#utility.yul\":3757:3760   */\n              dup4\n                /* \"#utility.yul\":3802:3806   */\n              0x20\n                /* \"#utility.yul\":3794:3800   */\n              dup3\n                /* \"#utility.yul\":3790:3807   */\n              mul\n                /* \"#utility.yul\":3785:3788   */\n              dup6\n                /* \"#utility.yul\":3781:3808   */\n              add\n                /* \"#utility.yul\":3832:3912   */\n              tag_227\n                /* \"#utility.yul\":3906:3911   */\n              dup6\n                /* \"#utility.yul\":3832:3912   */\n              tag_228\n              jump\t// in\n            tag_227:\n                /* \"#utility.yul\":3935:3942   */\n              dup1\n                /* \"#utility.yul\":3966:3967   */\n              0x00\n                /* \"#utility.yul\":3951:4389   */\n            tag_229:\n                /* \"#utility.yul\":3976:3982   */\n              dup6\n                /* \"#utility.yul\":3973:3974   */\n              dup2\n                /* \"#utility.yul\":3970:3983   */\n              lt\n                /* \"#utility.yul\":3951:4389   */\n              iszero\n              tag_231\n              jumpi\n                /* \"#utility.yul\":4047:4056   */\n              dup5\n                /* \"#utility.yul\":4041:4045   */\n              dup5\n                /* \"#utility.yul\":4037:4057   */\n              sub\n                /* \"#utility.yul\":4032:4035   */\n              dup10\n                /* \"#utility.yul\":4025:4058   */\n              mstore\n                /* \"#utility.yul\":4098:4104   */\n              dup2\n                /* \"#utility.yul\":4092:4105   */\n              mload\n                /* \"#utility.yul\":4126:4238   */\n              tag_232\n                /* \"#utility.yul\":4233:4237   */\n              dup6\n                /* \"#utility.yul\":4218:4231   */\n              dup3\n                /* \"#utility.yul\":4126:4238   */\n              tag_213\n              jump\t// in\n            tag_232:\n                /* \"#utility.yul\":4118:4238   */\n              swap5\n              pop\n                /* \"#utility.yul\":4261:4345   */\n              tag_233\n                /* \"#utility.yul\":4338:4344   */\n              dup4\n                /* \"#utility.yul\":4261:4345   */\n              tag_234\n              jump\t// in\n            tag_233:\n                /* \"#utility.yul\":4251:4345   */\n              swap3\n              pop\n                /* \"#utility.yul\":4374:4378   */\n              0x20\n                /* \"#utility.yul\":4369:4372   */\n              dup11\n                /* \"#utility.yul\":4365:4379   */\n              add\n                /* \"#utility.yul\":4358:4379   */\n              swap10\n              pop\n                /* \"#utility.yul\":4011:4389   */\n              pop\n                /* \"#utility.yul\":3998:3999   */\n              0x01\n                /* \"#utility.yul\":3995:3996   */\n              dup2\n                /* \"#utility.yul\":3991:4000   */\n              add\n                /* \"#utility.yul\":3986:4000   */\n              swap1\n              pop\n                /* \"#utility.yul\":3951:4389   */\n              jump(tag_229)\n            tag_231:\n                /* \"#utility.yul\":3955:3969   */\n              pop\n                /* \"#utility.yul\":4405:4409   */\n              dup3\n                /* \"#utility.yul\":4398:4409   */\n              swap8\n              pop\n                /* \"#utility.yul\":4425:4428   */\n              dup8\n                /* \"#utility.yul\":4418:4428   */\n              swap6\n              pop\n                /* \"#utility.yul\":3503:4434   */\n              pop\n              pop\n              pop\n              pop\n              pop\n              swap3\n              swap2\n              pop\n              pop\n              jump\t// out\n                /* \"#utility.yul\":4440:4549   */\n            tag_235:\n                /* \"#utility.yul\":4521:4542   */\n              tag_237\n                /* \"#utility.yul\":4536:4541   */\n              dup2\n                /* \"#utility.yul\":4521:4542   */\n              tag_238\n              jump\t// in\n            tag_237:\n                /* \"#utility.yul\":4516:4519   */\n              dup3\n                /* \"#utility.yul\":4509:4543   */\n              mstore\n                /* \"#utility.yul\":4499:4549   */\n              pop\n              pop\n              jump\t// out\n                /* \"#utility.yul\":4555:4899   */\n            tag_239:\n              0x00\n                /* \"#utility.yul\":4661:4700   */\n              tag_241\n                /* \"#utility.yul\":4694:4699   */\n              dup3\n                /* \"#utility.yul\":4661:4700   */\n              tag_242\n              jump\t// in\n            tag_241:\n                /* \"#utility.yul\":4716:4777   */\n              tag_243\n                /* \"#utility.yul\":4770:4776   */\n              dup2\n                /* \"#utility.yul\":4765:4768   */\n              dup6\n                /* \"#utility.yul\":4716:4777   */\n              tag_244\n              jump\t// in\n            tag_243:\n                /* \"#utility.yul\":4709:4777   */\n              swap4\n              pop\n                /* \"#utility.yul\":4786:4838   */\n              tag_245\n                /* \"#utility.yul\":4831:4837   */\n              dup2\n                /* \"#utility.yul\":4826:4829   */\n              dup6\n                /* \"#utility.yul\":4819:4823   */\n              0x20\n                /* \"#utility.yul\":4812:4817   */\n              dup7\n                /* \"#utility.yul\":4808:4824   */\n              add\n                /* \"#utility.yul\":4786:4838   */\n              tag_246\n              jump\t// in\n            tag_245:\n                /* \"#utility.yul\":4863:4892   */\n              tag_247\n                /* \"#utility.yul\":4885:4891   */\n              dup2\n                /* \"#utility.yul\":4863:4892   */\n              tag_248\n              jump\t// in\n            tag_247:\n                /* \"#utility.yul\":4858:4861   */\n              dup5\n                /* \"#utility.yul\":4854:4893   */\n              add\n                /* \"#utility.yul\":4847:4893   */\n              swap2\n              pop\n                /* \"#utility.yul\":4637:4899   */\n              pop\n              swap3\n              swap2\n              pop\n              pop\n              jump\t// out\n                /* \"#utility.yul\":4905:5269   */\n            tag_249:\n              0x00\n                /* \"#utility.yul\":5021:5060   */\n              tag_251\n                /* \"#utility.yul\":5054:5059   */\n              dup3\n                /* \"#utility.yul\":5021:5060   */\n              tag_242\n              jump\t// in\n            tag_251:\n                /* \"#utility.yul\":5076:5147   */\n              tag_252\n                /* \"#utility.yul\":5140:5146   */\n              dup2\n                /* \"#utility.yul\":5135:5138   */\n              dup6\n                /* \"#utility.yul\":5076:5147   */\n              tag_253\n              jump\t// in\n            tag_252:\n                /* \"#utility.yul\":5069:5147   */\n              swap4\n              pop\n                /* \"#utility.yul\":5156:5208   */\n              tag_254\n                /* \"#utility.yul\":5201:5207   */\n              dup2\n                /* \"#utility.yul\":5196:5199   */\n              dup6\n                /* \"#utility.yul\":5189:5193   */\n              0x20\n                /* \"#utility.yul\":5182:5187   */\n              dup7\n                /* \"#utility.yul\":5178:5194   */\n              add\n                /* \"#utility.yul\":5156:5208   */\n              tag_246\n              jump\t// in\n            tag_254:\n                /* \"#utility.yul\":5233:5262   */\n              tag_255\n                /* \"#utility.yul\":5255:5261   */\n              dup2\n                /* \"#utility.yul\":5233:5262   */\n              tag_248\n              jump\t// in\n            tag_255:\n                /* \"#utility.yul\":5228:5231   */\n              dup5\n                /* \"#utility.yul\":5224:5263   */\n              add\n                /* \"#utility.yul\":5217:5263   */\n              swap2\n              pop\n                /* \"#utility.yul\":4997:5269   */\n              pop\n              swap3\n              swap2\n              pop\n              pop\n              jump\t// out\n                /* \"#utility.yul\":5331:5930   */\n            tag_216:\n              0x00\n                /* \"#utility.yul\":5474:5478   */\n              0x40\n                /* \"#utility.yul\":5469:5472   */\n              dup4\n                /* \"#utility.yul\":5465:5479   */\n              add\n                /* \"#utility.yul\":5561:5565   */\n              0x00\n                /* \"#utility.yul\":5554:5559   */\n              dup4\n                /* \"#utility.yul\":5550:5566   */\n              add\n                /* \"#utility.yul\":5544:5567   */\n              mload\n                /* \"#utility.yul\":5614:5617   */\n              dup5\n                /* \"#utility.yul\":5608:5612   */\n              dup3\n                /* \"#utility.yul\":5604:5618   */\n              sub\n                /* \"#utility.yul\":5597:5601   */\n              0x00\n                /* \"#utility.yul\":5592:5595   */\n              dup7\n                /* \"#utility.yul\":5588:5602   */\n              add\n                /* \"#utility.yul\":5581:5619   */\n              mstore\n                /* \"#utility.yul\":5640:5713   */\n              tag_257\n                /* \"#utility.yul\":5708:5712   */\n              dup3\n                /* \"#utility.yul\":5694:5706   */\n              dup3\n                /* \"#utility.yul\":5640:5713   */\n              tag_239\n              jump\t// in\n            tag_257:\n                /* \"#utility.yul\":5632:5713   */\n              swap2\n              pop\n                /* \"#utility.yul\":5489:5724   */\n              pop\n                /* \"#utility.yul\":5811:5815   */\n              0x20\n                /* \"#utility.yul\":5804:5809   */\n              dup4\n                /* \"#utility.yul\":5800:5816   */\n              add\n                /* \"#utility.yul\":5794:5817   */\n              mload\n                /* \"#utility.yul\":5830:5893   */\n              tag_258\n                /* \"#utility.yul\":5887:5891   */\n              0x20\n                /* \"#utility.yul\":5882:5885   */\n              dup7\n                /* \"#utility.yul\":5878:5892   */\n              add\n                /* \"#utility.yul\":5864:5876   */\n              dup3\n                /* \"#utility.yul\":5830:5893   */\n              tag_259\n              jump\t// in\n            tag_258:\n                /* \"#utility.yul\":5734:5903   */\n              pop\n                /* \"#utility.yul\":5920:5924   */\n              dup1\n                /* \"#utility.yul\":5913:5924   */\n              swap2\n              pop\n                /* \"#utility.yul\":5443:5930   */\n              pop\n              swap3\n              swap2\n              pop\n              pop\n              jump\t// out\n                /* \"#utility.yul\":5992:6601   */\n            tag_260:\n              0x00\n                /* \"#utility.yul\":6145:6149   */\n              0x40\n                /* \"#utility.yul\":6140:6143   */\n              dup4\n                /* \"#utility.yul\":6136:6150   */\n              add\n                /* \"#utility.yul\":6232:6236   */\n              0x00\n                /* \"#utility.yul\":6225:6230   */\n              dup4\n                /* \"#utility.yul\":6221:6237   */\n              add\n                /* \"#utility.yul\":6215:6238   */\n              mload\n                /* \"#utility.yul\":6285:6288   */\n              dup5\n                /* \"#utility.yul\":6279:6283   */\n              dup3\n                /* \"#utility.yul\":6275:6289   */\n              sub\n                /* \"#utility.yul\":6268:6272   */\n              0x00\n                /* \"#utility.yul\":6263:6266   */\n              dup7\n                /* \"#utility.yul\":6259:6273   */\n              add\n                /* \"#utility.yul\":6252:6290   */\n              mstore\n                /* \"#utility.yul\":6311:6384   */\n              tag_262\n                /* \"#utility.yul\":6379:6383   */\n              dup3\n                /* \"#utility.yul\":6365:6377   */\n              dup3\n                /* \"#utility.yul\":6311:6384   */\n              tag_239\n              jump\t// in\n            tag_262:\n                /* \"#utility.yul\":6303:6384   */\n              swap2\n              pop\n                /* \"#utility.yul\":6160:6395   */\n              pop\n                /* \"#utility.yul\":6482:6486   */\n              0x20\n                /* \"#utility.yul\":6475:6480   */\n              dup4\n                /* \"#utility.yul\":6471:6487   */\n              add\n                /* \"#utility.yul\":6465:6488   */\n              mload\n                /* \"#utility.yul\":6501:6564   */\n              tag_263\n                /* \"#utility.yul\":6558:6562   */\n              0x20\n                /* \"#utility.yul\":6553:6556   */\n              dup7\n                /* \"#utility.yul\":6549:6563   */\n              add\n                /* \"#utility.yul\":6535:6547   */\n              dup3\n                /* \"#utility.yul\":6501:6564   */\n              tag_259\n              jump\t// in\n            tag_263:\n                /* \"#utility.yul\":6405:6574   */\n              pop\n                /* \"#utility.yul\":6591:6595   */\n              dup1\n                /* \"#utility.yul\":6584:6595   */\n              swap2\n              pop\n                /* \"#utility.yul\":6114:6601   */\n              pop\n              swap3\n              swap2\n              pop\n              pop\n              jump\t// out\n                /* \"#utility.yul\":6607:6715   */\n            tag_259:\n                /* \"#utility.yul\":6684:6708   */\n              tag_265\n                /* \"#utility.yul\":6702:6707   */\n              dup2\n                /* \"#utility.yul\":6684:6708   */\n              tag_266\n              jump\t// in\n            tag_265:\n                /* \"#utility.yul\":6679:6682   */\n              dup3\n                /* \"#utility.yul\":6672:6709   */\n              mstore\n                /* \"#utility.yul\":6662:6715   */\n              pop\n              pop\n              jump\t// out\n                /* \"#utility.yul\":6721:6839   */\n            tag_267:\n                /* \"#utility.yul\":6808:6832   */\n              tag_269\n                /* \"#utility.yul\":6826:6831   */\n              dup2\n                /* \"#utility.yul\":6808:6832   */\n              tag_266\n              jump\t// in\n            tag_269:\n                /* \"#utility.yul\":6803:6806   */\n              dup3\n                /* \"#utility.yul\":6796:6833   */\n              mstore\n                /* \"#utility.yul\":6786:6839   */\n              pop\n              pop\n              jump\t// out\n                /* \"#utility.yul\":6845:7067   */\n            tag_54:\n              0x00\n                /* \"#utility.yul\":6976:6978   */\n              0x20\n                /* \"#utility.yul\":6965:6974   */\n              dup3\n                /* \"#utility.yul\":6961:6979   */\n              add\n                /* \"#utility.yul\":6953:6979   */\n              swap1\n              pop\n                /* \"#utility.yul\":6989:7060   */\n              tag_271\n                /* \"#utility.yul\":7057:7058   */\n              0x00\n                /* \"#utility.yul\":7046:7055   */\n              dup4\n                /* \"#utility.yul\":7042:7059   */\n              add\n                /* \"#utility.yul\":7033:7039   */\n              dup5\n                /* \"#utility.yul\":6989:7060   */\n              tag_217\n              jump\t// in\n            tag_271:\n                /* \"#utility.yul\":6943:7067   */\n              swap3\n              swap2\n              pop\n              pop\n              jump\t// out\n                /* \"#utility.yul\":7073:7542   */\n            tag_44:\n              0x00\n                /* \"#utility.yul\":7302:7304   */\n              0x20\n                /* \"#utility.yul\":7291:7300   */\n              dup3\n                /* \"#utility.yul\":7287:7305   */\n              add\n                /* \"#utility.yul\":7279:7305   */\n              swap1\n              pop\n                /* \"#utility.yul\":7351:7360   */\n              dup2\n                /* \"#utility.yul\":7345:7349   */\n              dup2\n                /* \"#utility.yul\":7341:7361   */\n              sub\n                /* \"#utility.yul\":7337:7338   */\n              0x00\n                /* \"#utility.yul\":7326:7335   */\n              dup4\n                /* \"#utility.yul\":7322:7339   */\n              add\n                /* \"#utility.yul\":7315:7362   */\n              mstore\n                /* \"#utility.yul\":7379:7535   */\n              tag_273\n                /* \"#utility.yul\":7530:7534   */\n              dup2\n                /* \"#utility.yul\":7521:7527   */\n              dup5\n                /* \"#utility.yul\":7379:7535   */\n              tag_221\n              jump\t// in\n            tag_273:\n                /* \"#utility.yul\":7371:7535   */\n              swap1\n              pop\n                /* \"#utility.yul\":7269:7542   */\n              swap3\n              swap2\n              pop\n              pop\n              jump\t// out\n                /* \"#utility.yul\":7548:7861   */\n            tag_76:\n              0x00\n                /* \"#utility.yul\":7699:7701   */\n              0x20\n                /* \"#utility.yul\":7688:7697   */\n              dup3\n                /* \"#utility.yul\":7684:7702   */\n              add\n                /* \"#utility.yul\":7676:7702   */\n              swap1\n              pop\n                /* \"#utility.yul\":7748:7757   */\n              dup2\n                /* \"#utility.yul\":7742:7746   */\n              dup2\n                /* \"#utility.yul\":7738:7758   */\n              sub\n                /* \"#utility.yul\":7734:7735   */\n              0x00\n                /* \"#utility.yul\":7723:7732   */\n              dup4\n                /* \"#utility.yul\":7719:7736   */\n              add\n                /* \"#utility.yul\":7712:7759   */\n              mstore\n                /* \"#utility.yul\":7776:7854   */\n              tag_275\n                /* \"#utility.yul\":7849:7853   */\n              dup2\n                /* \"#utility.yul\":7840:7846   */\n              dup5\n                /* \"#utility.yul\":7776:7854   */\n              tag_249\n              jump\t// in\n            tag_275:\n                /* \"#utility.yul\":7768:7854   */\n              swap1\n              pop\n                /* \"#utility.yul\":7666:7861   */\n              swap3\n              swap2\n              pop\n              pop\n              jump\t// out\n                /* \"#utility.yul\":7867:8290   */\n            tag_30:\n              0x00\n                /* \"#utility.yul\":8046:8048   */\n              0x40\n                /* \"#utility.yul\":8035:8044   */\n              dup3\n                /* \"#utility.yul\":8031:8049   */\n              add\n                /* \"#utility.yul\":8023:8049   */\n              swap1\n              pop\n                /* \"#utility.yul\":8095:8104   */\n              dup2\n                /* \"#utility.yul\":8089:8093   */\n              dup2\n                /* \"#utility.yul\":8085:8105   */\n              sub\n                /* \"#utility.yul\":8081:8082   */\n              0x00\n                /* \"#utility.yul\":8070:8079   */\n              dup4\n                /* \"#utility.yul\":8066:8083   */\n              add\n                /* \"#utility.yul\":8059:8106   */\n              mstore\n                /* \"#utility.yul\":8123:8201   */\n              tag_277\n                /* \"#utility.yul\":8196:8200   */\n              dup2\n                /* \"#utility.yul\":8187:8193   */\n              dup6\n                /* \"#utility.yul\":8123:8201   */\n              tag_249\n              jump\t// in\n            tag_277:\n                /* \"#utility.yul\":8115:8201   */\n              swap1\n              pop\n                /* \"#utility.yul\":8211:8283   */\n              tag_278\n                /* \"#utility.yul\":8279:8281   */\n              0x20\n                /* \"#utility.yul\":8268:8277   */\n              dup4\n                /* \"#utility.yul\":8264:8282   */\n              add\n                /* \"#utility.yul\":8255:8261   */\n              dup5\n                /* \"#utility.yul\":8211:8283   */\n              tag_267\n              jump\t// in\n            tag_278:\n                /* \"#utility.yul\":8013:8290   */\n              swap4\n              swap3\n              pop\n              pop\n              pop\n              jump\t// out\n                /* \"#utility.yul\":8296:8665   */\n            tag_81:\n              0x00\n                /* \"#utility.yul\":8475:8477   */\n              0x20\n                /* \"#utility.yul\":8464:8473   */\n              dup3\n                /* \"#utility.yul\":8460:8478   */\n              add\n                /* \"#utility.yul\":8452:8478   */\n              swap1\n              pop\n                /* \"#utility.yul\":8524:8533   */\n              dup2\n                /* \"#utility.yul\":8518:8522   */\n              dup2\n                /* \"#utility.yul\":8514:8534   */\n              sub\n                /* \"#utility.yul\":8510:8511   */\n              0x00\n                /* \"#utility.yul\":8499:8508   */\n              dup4\n                /* \"#utility.yul\":8495:8512   */\n              add\n                /* \"#utility.yul\":8488:8535   */\n              mstore\n                /* \"#utility.yul\":8552:8658   */\n              tag_280\n                /* \"#utility.yul\":8653:8657   */\n              dup2\n                /* \"#utility.yul\":8644:8650   */\n              dup5\n                /* \"#utility.yul\":8552:8658   */\n              tag_260\n              jump\t// in\n            tag_280:\n                /* \"#utility.yul\":8544:8658   */\n              swap1\n              pop\n                /* \"#utility.yul\":8442:8665   */\n              swap3\n              swap2\n              pop\n              pop\n              jump\t// out\n                /* \"#utility.yul\":8671:8893   */\n            tag_34:\n              0x00\n                /* \"#utility.yul\":8802:8804   */\n              0x20\n                /* \"#utility.yul\":8791:8800   */\n              dup3\n                /* \"#utility.yul\":8787:8805   */\n              add\n                /* \"#utility.yul\":8779:8805   */\n              swap1\n              pop\n                /* \"#utility.yul\":8815:8886   */\n              tag_282\n                /* \"#utility.yul\":8883:8884   */\n              0x00\n                /* \"#utility.yul\":8872:8881   */\n              dup4\n                /* \"#utility.yul\":8868:8885   */\n              add\n                /* \"#utility.yul\":8859:8865   */\n              dup5\n                /* \"#utility.yul\":8815:8886   */\n              tag_267\n              jump\t// in\n            tag_282:\n                /* \"#utility.yul\":8769:8893   */\n              swap3\n              swap2\n              pop\n              pop\n              jump\t// out\n                /* \"#utility.yul\":8899:9440   */\n            tag_69:\n              0x00\n                /* \"#utility.yul\":9108:9111   */\n              0x80\n                /* \"#utility.yul\":9097:9106   */\n              dup3\n                /* \"#utility.yul\":9093:9112   */\n              add\n                /* \"#utility.yul\":9085:9112   */\n              swap1\n              pop\n                /* \"#utility.yul\":9122:9193   */\n              tag_284\n                /* \"#utility.yul\":9190:9191   */\n              0x00\n                /* \"#utility.yul\":9179:9188   */\n              dup4\n                /* \"#utility.yul\":9175:9192   */\n              add\n                /* \"#utility.yul\":9166:9172   */\n              dup8\n                /* \"#utility.yul\":9122:9193   */\n              tag_267\n              jump\t// in\n            tag_284:\n                /* \"#utility.yul\":9203:9269   */\n              tag_285\n                /* \"#utility.yul\":9265:9267   */\n              0x20\n                /* \"#utility.yul\":9254:9263   */\n              dup4\n                /* \"#utility.yul\":9250:9268   */\n              add\n                /* \"#utility.yul\":9241:9247   */\n              dup7\n                /* \"#utility.yul\":9203:9269   */\n              tag_235\n              jump\t// in\n            tag_285:\n                /* \"#utility.yul\":9279:9351   */\n              tag_286\n                /* \"#utility.yul\":9347:9349   */\n              0x40\n                /* \"#utility.yul\":9336:9345   */\n              dup4\n                /* \"#utility.yul\":9332:9350   */\n              add\n                /* \"#utility.yul\":9323:9329   */\n              dup6\n                /* \"#utility.yul\":9279:9351   */\n              tag_217\n              jump\t// in\n            tag_286:\n                /* \"#utility.yul\":9361:9433   */\n              tag_287\n                /* \"#utility.yul\":9429:9431   */\n              0x60\n                /* \"#utility.yul\":9418:9427   */\n              dup4\n                /* \"#utility.yul\":9414:9432   */\n              add\n                /* \"#utility.yul\":9405:9411   */\n              dup5\n                /* \"#utility.yul\":9361:9433   */\n              tag_267\n              jump\t// in\n            tag_287:\n                /* \"#utility.yul\":9075:9440   */\n              swap6\n              swap5\n              pop\n              pop\n              pop\n              pop\n              pop\n              jump\t// out\n                /* \"#utility.yul\":9446:9729   */\n            tag_174:\n              0x00\n                /* \"#utility.yul\":9512:9514   */\n              0x40\n                /* \"#utility.yul\":9506:9515   */\n              mload\n                /* \"#utility.yul\":9496:9515   */\n              swap1\n              pop\n                /* \"#utility.yul\":9554:9558   */\n              dup2\n                /* \"#utility.yul\":9546:9552   */\n              dup2\n                /* \"#utility.yul\":9542:9559   */\n              add\n                /* \"#utility.yul\":9661:9667   */\n              dup2\n                /* \"#utility.yul\":9649:9659   */\n              dup2\n                /* \"#utility.yul\":9646:9668   */\n              lt\n                /* \"#utility.yul\":9625:9643   */\n              0xffffffffffffffff\n                /* \"#utility.yul\":9613:9623   */\n              dup3\n                /* \"#utility.yul\":9610:9644   */\n              gt\n                /* \"#utility.yul\":9607:9669   */\n              or\n                /* \"#utility.yul\":9604:9606   */\n              iszero\n              tag_289\n              jumpi\n                /* \"#utility.yul\":9672:9690   */\n              tag_290\n              tag_291\n              jump\t// in\n            tag_290:\n                /* \"#utility.yul\":9604:9606   */\n            tag_289:\n                /* \"#utility.yul\":9712:9722   */\n              dup1\n                /* \"#utility.yul\":9708:9710   */\n              0x40\n                /* \"#utility.yul\":9701:9723   */\n              mstore\n                /* \"#utility.yul\":9486:9729   */\n              pop\n              swap2\n              swap1\n              pop\n              jump\t// out\n                /* \"#utility.yul\":9735:10056   */\n            tag_173:\n              0x00\n                /* \"#utility.yul\":9912:9930   */\n              0xffffffffffffffff\n                /* \"#utility.yul\":9904:9910   */\n              dup3\n                /* \"#utility.yul\":9901:9931   */\n              gt\n                /* \"#utility.yul\":9898:9900   */\n              iszero\n              tag_293\n              jumpi\n                /* \"#utility.yul\":9934:9952   */\n              tag_294\n              tag_291\n              jump\t// in\n            tag_294:\n                /* \"#utility.yul\":9898:9900   */\n            tag_293:\n                /* \"#utility.yul\":9984:9988   */\n              0x20\n                /* \"#utility.yul\":9976:9982   */\n              dup3\n                /* \"#utility.yul\":9972:9989   */\n              mul\n                /* \"#utility.yul\":9964:9989   */\n              swap1\n              pop\n                /* \"#utility.yul\":10044:10048   */\n              0x20\n                /* \"#utility.yul\":10038:10042   */\n              dup2\n                /* \"#utility.yul\":10034:10049   */\n              add\n                /* \"#utility.yul\":10026:10049   */\n              swap1\n              pop\n                /* \"#utility.yul\":9827:10056   */\n              swap2\n              swap1\n              pop\n              jump\t// out\n                /* \"#utility.yul\":10062:10394   */\n            tag_184:\n              0x00\n                /* \"#utility.yul\":10214:10232   */\n              0xffffffffffffffff\n                /* \"#utility.yul\":10206:10212   */\n              dup3\n                /* \"#utility.yul\":10203:10233   */\n              gt\n                /* \"#utility.yul\":10200:10202   */\n              iszero\n              tag_296\n              jumpi\n                /* \"#utility.yul\":10236:10254   */\n              tag_297\n              tag_291\n              jump\t// in\n            tag_297:\n                /* \"#utility.yul\":10200:10202   */\n            tag_296:\n                /* \"#utility.yul\":10321:10325   */\n              0x1f\n                /* \"#utility.yul\":10317:10326   */\n              not\n                /* \"#utility.yul\":10310:10314   */\n              0x1f\n                /* \"#utility.yul\":10302:10308   */\n              dup4\n                /* \"#utility.yul\":10298:10315   */\n              add\n                /* \"#utility.yul\":10294:10327   */\n              and\n                /* \"#utility.yul\":10286:10327   */\n              swap1\n              pop\n                /* \"#utility.yul\":10382:10386   */\n              0x20\n                /* \"#utility.yul\":10376:10380   */\n              dup2\n                /* \"#utility.yul\":10372:10387   */\n              add\n                /* \"#utility.yul\":10364:10387   */\n              swap1\n              pop\n                /* \"#utility.yul\":10129:10394   */\n              swap2\n              swap1\n              pop\n              jump\t// out\n                /* \"#utility.yul\":10400:10556   */\n            tag_228:\n              0x00\n                /* \"#utility.yul\":10514:10517   */\n              dup2\n                /* \"#utility.yul\":10506:10517   */\n              swap1\n              pop\n                /* \"#utility.yul\":10544:10548   */\n              0x20\n                /* \"#utility.yul\":10539:10542   */\n              dup3\n                /* \"#utility.yul\":10535:10549   */\n              add\n                /* \"#utility.yul\":10527:10549   */\n              swap1\n              pop\n                /* \"#utility.yul\":10496:10556   */\n              swap2\n              swap1\n              pop\n              jump\t// out\n                /* \"#utility.yul\":10562:10700   */\n            tag_224:\n              0x00\n                /* \"#utility.yul\":10687:10692   */\n              dup2\n                /* \"#utility.yul\":10681:10693   */\n              mload\n                /* \"#utility.yul\":10671:10693   */\n              swap1\n              pop\n                /* \"#utility.yul\":10660:10700   */\n              swap2\n              swap1\n              pop\n              jump\t// out\n                /* \"#utility.yul\":10706:10805   */\n            tag_242:\n              0x00\n                /* \"#utility.yul\":10792:10797   */\n              dup2\n                /* \"#utility.yul\":10786:10798   */\n              mload\n                /* \"#utility.yul\":10776:10798   */\n              swap1\n              pop\n                /* \"#utility.yul\":10765:10805   */\n              swap2\n              swap1\n              pop\n              jump\t// out\n                /* \"#utility.yul\":10811:10948   */\n            tag_234:\n              0x00\n                /* \"#utility.yul\":10937:10941   */\n              0x20\n                /* \"#utility.yul\":10932:10935   */\n              dup3\n                /* \"#utility.yul\":10928:10942   */\n              add\n                /* \"#utility.yul\":10920:10942   */\n              swap1\n              pop\n                /* \"#utility.yul\":10910:10948   */\n              swap2\n              swap1\n              pop\n              jump\t// out\n                /* \"#utility.yul\":10954:11162   */\n            tag_226:\n              0x00\n                /* \"#utility.yul\":11111:11117   */\n              dup3\n                /* \"#utility.yul\":11106:11109   */\n              dup3\n                /* \"#utility.yul\":11099:11118   */\n              mstore\n                /* \"#utility.yul\":11151:11155   */\n              0x20\n                /* \"#utility.yul\":11146:11149   */\n              dup3\n                /* \"#utility.yul\":11142:11156   */\n              add\n                /* \"#utility.yul\":11127:11156   */\n              swap1\n              pop\n                /* \"#utility.yul\":11089:11162   */\n              swap3\n              swap2\n              pop\n              pop\n              jump\t// out\n                /* \"#utility.yul\":11168:11327   */\n            tag_244:\n              0x00\n                /* \"#utility.yul\":11276:11282   */\n              dup3\n                /* \"#utility.yul\":11271:11274   */\n              dup3\n                /* \"#utility.yul\":11264:11283   */\n              mstore\n                /* \"#utility.yul\":11316:11320   */\n              0x20\n                /* \"#utility.yul\":11311:11314   */\n              dup3\n                /* \"#utility.yul\":11307:11321   */\n              add\n                /* \"#utility.yul\":11292:11321   */\n              swap1\n              pop\n                /* \"#utility.yul\":11254:11327   */\n              swap3\n              swap2\n              pop\n              pop\n              jump\t// out\n                /* \"#utility.yul\":11333:11502   */\n            tag_253:\n              0x00\n                /* \"#utility.yul\":11451:11457   */\n              dup3\n                /* \"#utility.yul\":11446:11449   */\n              dup3\n                /* \"#utility.yul\":11439:11458   */\n              mstore\n                /* \"#utility.yul\":11491:11495   */\n              0x20\n                /* \"#utility.yul\":11486:11489   */\n              dup3\n                /* \"#utility.yul\":11482:11496   */\n              add\n                /* \"#utility.yul\":11467:11496   */\n              swap1\n              pop\n                /* \"#utility.yul\":11429:11502   */\n              swap3\n              swap2\n              pop\n              pop\n              jump\t// out\n                /* \"#utility.yul\":11508:11813   */\n            tag_87:\n              0x00\n                /* \"#utility.yul\":11567:11587   */\n              tag_306\n                /* \"#utility.yul\":11585:11586   */\n              dup3\n                /* \"#utility.yul\":11567:11587   */\n              tag_266\n              jump\t// in\n            tag_306:\n                /* \"#utility.yul\":11562:11587   */\n              swap2\n              pop\n                /* \"#utility.yul\":11601:11621   */\n              tag_307\n                /* \"#utility.yul\":11619:11620   */\n              dup4\n                /* \"#utility.yul\":11601:11621   */\n              tag_266\n              jump\t// in\n            tag_307:\n                /* \"#utility.yul\":11596:11621   */\n              swap3\n              pop\n                /* \"#utility.yul\":11755:11756   */\n              dup3\n                /* \"#utility.yul\":11687:11753   */\n              0xffffffffffffffffffffffffffffffffffffffffffffffffffffffffffffffff\n                /* \"#utility.yul\":11683:11757   */\n              sub\n                /* \"#utility.yul\":11680:11681   */\n              dup3\n                /* \"#utility.yul\":11677:11758   */\n              gt\n                /* \"#utility.yul\":11674:11676   */\n              iszero\n              tag_308\n              jumpi\n                /* \"#utility.yul\":11761:11779   */\n              tag_309\n              tag_310\n              jump\t// in\n            tag_309:\n                /* \"#utility.yul\":11674:11676   */\n            tag_308:\n                /* \"#utility.yul\":11805:11806   */\n              dup3\n                /* \"#utility.yul\":11802:11803   */\n              dup3\n                /* \"#utility.yul\":11798:11807   */\n              add\n                /* \"#utility.yul\":11791:11807   */\n              swap1\n              pop\n                /* \"#utility.yul\":11552:11813   */\n              swap3\n              swap2\n              pop\n              pop\n              jump\t// out\n                /* \"#utility.yul\":11819:11915   */\n            tag_220:\n              0x00\n                /* \"#utility.yul\":11885:11909   */\n              tag_312\n                /* \"#utility.yul\":11903:11908   */\n              dup3\n                /* \"#utility.yul\":11885:11909   */\n              tag_313\n              jump\t// in\n            tag_312:\n                /* \"#utility.yul\":11874:11909   */\n              swap1\n              pop\n                /* \"#utility.yul\":11864:11915   */\n              swap2\n              swap1\n              pop\n              jump\t// out\n                /* \"#utility.yul\":11921:12011   */\n            tag_238:\n              0x00\n                /* \"#utility.yul\":11998:12003   */\n              dup2\n                /* \"#utility.yul\":11991:12004   */\n              iszero\n                /* \"#utility.yul\":11984:12005   */\n              iszero\n                /* \"#utility.yul\":11973:12005   */\n              swap1\n              pop\n                /* \"#utility.yul\":11963:12011   */\n              swap2\n              swap1\n              pop\n              jump\t// out\n                /* \"#utility.yul\":12017:12143   */\n            tag_313:\n              0x00\n                /* \"#utility.yul\":12094:12136   */\n              0xffffffffffffffffffffffffffffffffffffffff\n                /* \"#utility.yul\":12087:12092   */\n              dup3\n                /* \"#utility.yul\":12083:12137   */\n              and\n                /* \"#utility.yul\":12072:12137   */\n              swap1\n              pop\n                /* \"#utility.yul\":12062:12143   */\n              swap2\n              swap1\n              pop\n              jump\t// out\n                /* \"#utility.yul\":12149:12226   */\n            tag_266:\n              0x00\n                /* \"#utility.yul\":12215:12220   */\n              dup2\n                /* \"#utility.yul\":12204:12220   */\n              swap1\n              pop\n                /* \"#utility.yul\":12194:12226   */\n              swap2\n              swap1\n              pop\n              jump\t// out\n                /* \"#utility.yul\":12232:12386   */\n            tag_187:\n                /* \"#utility.yul\":12316:12322   */\n              dup3\n                /* \"#utility.yul\":12311:12314   */\n              dup2\n                /* \"#utility.yul\":12306:12309   */\n              dup4\n                /* \"#utility.yul\":12293:12323   */\n              calldatacopy\n                /* \"#utility.yul\":12378:12379   */\n              0x00\n                /* \"#utility.yul\":12369:12375   */\n              dup4\n                /* \"#utility.yul\":12364:12367   */\n              dup4\n                /* \"#utility.yul\":12360:12376   */\n              add\n                /* \"#utility.yul\":12353:12380   */\n              mstore\n                /* \"#utility.yul\":12283:12386   */\n              pop\n              pop\n              pop\n              jump\t// out\n                /* \"#utility.yul\":12392:12699   */\n            tag_246:\n                /* \"#utility.yul\":12460:12461   */\n              0x00\n                /* \"#utility.yul\":12470:12583   */\n            tag_319:\n                /* \"#utility.yul\":12484:12490   */\n              dup4\n                /* \"#utility.yul\":12481:12482   */\n              dup2\n                /* \"#utility.yul\":12478:12491   */\n              lt\n                /* \"#utility.yul\":12470:12583   */\n              iszero\n              tag_321\n              jumpi\n                /* \"#utility.yul\":12569:12570   */\n              dup1\n                /* \"#utility.yul\":12564:12567   */\n              dup3\n                /* \"#utility.yul\":12560:12571   */\n              add\n                /* \"#utility.yul\":12554:12572   */\n              mload\n                /* \"#utility.yul\":12550:12551   */\n              dup2\n                /* \"#utility.yul\":12545:12548   */\n              dup5\n                /* \"#utility.yul\":12541:12552   */\n              add\n                /* \"#utility.yul\":12534:12573   */\n              mstore\n                /* \"#utility.yul\":12506:12508   */\n              0x20\n                /* \"#utility.yul\":12503:12504   */\n              dup2\n                /* \"#utility.yul\":12499:12509   */\n              add\n                /* \"#utility.yul\":12494:12509   */\n              swap1\n              pop\n                /* \"#utility.yul\":12470:12583   */\n              jump(tag_319)\n            tag_321:\n                /* \"#utility.yul\":12601:12607   */\n              dup4\n                /* \"#utility.yul\":12598:12599   */\n              dup2\n                /* \"#utility.yul\":12595:12608   */\n              gt\n                /* \"#utility.yul\":12592:12594   */\n              iszero\n              tag_322\n              jumpi\n                /* \"#utility.yul\":12681:12682   */\n              0x00\n                /* \"#utility.yul\":12672:12678   */\n              dup5\n                /* \"#utility.yul\":12667:12670   */\n              dup5\n                /* \"#utility.yul\":12663:12679   */\n              add\n                /* \"#utility.yul\":12656:12683   */\n              mstore\n                /* \"#utility.yul\":12592:12594   */\n            tag_322:\n                /* \"#utility.yul\":12441:12699   */\n              pop\n              pop\n              pop\n              pop\n              jump\t// out\n                /* \"#utility.yul\":12705:13025   */\n            tag_91:\n              0x00\n                /* \"#utility.yul\":12786:12787   */\n              0x02\n                /* \"#utility.yul\":12780:12784   */\n              dup3\n                /* \"#utility.yul\":12776:12788   */\n              div\n                /* \"#utility.yul\":12766:12788   */\n              swap1\n              pop\n                /* \"#utility.yul\":12833:12834   */\n              0x01\n                /* \"#utility.yul\":12827:12831   */\n              dup3\n                /* \"#utility.yul\":12823:12835   */\n              and\n                /* \"#utility.yul\":12854:12872   */\n              dup1\n                /* \"#utility.yul\":12844:12846   */\n              tag_324\n              jumpi\n                /* \"#utility.yul\":12910:12914   */\n              0x7f\n                /* \"#utility.yul\":12902:12908   */\n              dup3\n                /* \"#utility.yul\":12898:12915   */\n              and\n                /* \"#utility.yul\":12888:12915   */\n              swap2\n              pop\n                /* \"#utility.yul\":12844:12846   */\n            tag_324:\n                /* \"#utility.yul\":12972:12974   */\n              0x20\n                /* \"#utility.yul\":12964:12970   */\n              dup3\n                /* \"#utility.yul\":12961:12975   */\n              lt\n                /* \"#utility.yul\":12941:12959   */\n              dup2\n                /* \"#utility.yul\":12938:12976   */\n              eq\n                /* \"#utility.yul\":12935:12937   */\n              iszero\n              tag_325\n              jumpi\n                /* \"#utility.yul\":12991:13009   */\n              tag_326\n              tag_327\n              jump\t// in\n            tag_326:\n                /* \"#utility.yul\":12935:12937   */\n            tag_325:\n                /* \"#utility.yul\":12756:13025   */\n              pop\n              swap2\n              swap1\n              pop\n              jump\t// out\n                /* \"#utility.yul\":13031:13264   */\n            tag_108:\n              0x00\n                /* \"#utility.yul\":13093:13117   */\n              tag_329\n                /* \"#utility.yul\":13111:13116   */\n              dup3\n                /* \"#utility.yul\":13093:13117   */\n              tag_266\n              jump\t// in\n            tag_329:\n                /* \"#utility.yul\":13084:13117   */\n              swap2\n              pop\n                /* \"#utility.yul\":13139:13205   */\n              0xffffffffffffffffffffffffffffffffffffffffffffffffffffffffffffffff\n                /* \"#utility.yul\":13132:13137   */\n              dup3\n                /* \"#utility.yul\":13129:13206   */\n              eq\n                /* \"#utility.yul\":13126:13128   */\n              iszero\n              tag_330\n              jumpi\n                /* \"#utility.yul\":13209:13227   */\n              tag_331\n              tag_310\n              jump\t// in\n            tag_331:\n                /* \"#utility.yul\":13126:13128   */\n            tag_330:\n                /* \"#utility.yul\":13256:13257   */\n              0x01\n                /* \"#utility.yul\":13249:13254   */\n              dup3\n                /* \"#utility.yul\":13245:13258   */\n              add\n                /* \"#utility.yul\":13238:13258   */\n              swap1\n              pop\n                /* \"#utility.yul\":13074:13264   */\n              swap2\n              swap1\n              pop\n              jump\t// out\n                /* \"#utility.yul\":13270:13450   */\n            tag_310:\n                /* \"#utility.yul\":13318:13395   */\n              0x4e487b7100000000000000000000000000000000000000000000000000000000\n                /* \"#utility.yul\":13315:13316   */\n              0x00\n                /* \"#utility.yul\":13308:13396   */\n              mstore\n                /* \"#utility.yul\":13415:13419   */\n              0x11\n                /* \"#utility.yul\":13412:13413   */\n              0x04\n                /* \"#utility.yul\":13405:13420   */\n              mstore\n                /* \"#utility.yul\":13439:13443   */\n              0x24\n                /* \"#utility.yul\":13436:13437   */\n              0x00\n                /* \"#utility.yul\":13429:13444   */\n              revert\n                /* \"#utility.yul\":13456:13636   */\n            tag_327:\n                /* \"#utility.yul\":13504:13581   */\n              0x4e487b7100000000000000000000000000000000000000000000000000000000\n                /* \"#utility.yul\":13501:13502   */\n              0x00\n                /* \"#utility.yul\":13494:13582   */\n              mstore\n                /* \"#utility.yul\":13601:13605   */\n              0x22\n                /* \"#utility.yul\":13598:13599   */\n              0x04\n                /* \"#utility.yul\":13591:13606   */\n              mstore\n                /* \"#utility.yul\":13625:13629   */\n              0x24\n                /* \"#utility.yul\":13622:13623   */\n              0x00\n                /* \"#utility.yul\":13615:13630   */\n              revert\n                /* \"#utility.yul\":13642:13822   */\n            tag_291:\n                /* \"#utility.yul\":13690:13767   */\n              0x4e487b7100000000000000000000000000000000000000000000000000000000\n                /* \"#utility.yul\":13687:13688   */\n              0x00\n                /* \"#utility.yul\":13680:13768   */\n              mstore\n                /* \"#utility.yul\":13787:13791   */\n              0x41\n                /* \"#utility.yul\":13784:13785   */\n              0x04\n                /* \"#utility.yul\":13777:13792   */\n              mstore\n                /* \"#utility.yul\":13811:13815   */\n              0x24\n                /* \"#utility.yul\":13808:13809   */\n              0x00\n                /* \"#utility.yul\":13801:13816   */\n              revert\n                /* \"#utility.yul\":13828:13930   */\n            tag_248:\n              0x00\n                /* \"#utility.yul\":13920:13922   */\n              0x1f\n                /* \"#utility.yul\":13916:13923   */\n              not\n                /* \"#utility.yul\":13911:13913   */\n              0x1f\n                /* \"#utility.yul\":13904:13909   */\n              dup4\n                /* \"#utility.yul\":13900:13914   */\n              add\n                /* \"#utility.yul\":13896:13924   */\n              and\n                /* \"#utility.yul\":13886:13924   */\n              swap1\n              pop\n                /* \"#utility.yul\":13876:13930   */\n              swap2\n              swap1\n              pop\n              jump\t// out\n                /* \"#utility.yul\":13936:14058   */\n            tag_191:\n                /* \"#utility.yul\":14009:14033   */\n              tag_337\n                /* \"#utility.yul\":14027:14032   */\n              dup2\n                /* \"#utility.yul\":14009:14033   */\n              tag_220\n              jump\t// in\n            tag_337:\n                /* \"#utility.yul\":14002:14007   */\n              dup2\n                /* \"#utility.yul\":13999:14034   */\n              eq\n                /* \"#utility.yul\":13989:13991   */\n              tag_338\n              jumpi\n                /* \"#utility.yul\":14048:14049   */\n              0x00\n                /* \"#utility.yul\":14045:14046   */\n              dup1\n                /* \"#utility.yul\":14038:14050   */\n              revert\n                /* \"#utility.yul\":13989:13991   */\n            tag_338:\n                /* \"#utility.yul\":13979:14058   */\n              pop\n              jump\t// out\n                /* \"#utility.yul\":14064:14186   */\n            tag_202:\n                /* \"#utility.yul\":14137:14161   */\n              tag_340\n                /* \"#utility.yul\":14155:14160   */\n              dup2\n                /* \"#utility.yul\":14137:14161   */\n              tag_266\n              jump\t// in\n            tag_340:\n                /* \"#utility.yul\":14130:14135   */\n              dup2\n                /* \"#utility.yul\":14127:14162   */\n              eq\n                /* \"#utility.yul\":14117:14119   */\n              tag_341\n              jumpi\n                /* \"#utility.yul\":14176:14177   */\n              0x00\n                /* \"#utility.yul\":14173:14174   */\n              dup1\n                /* \"#utility.yul\":14166:14178   */\n              revert\n                /* \"#utility.yul\":14117:14119   */\n            tag_341:\n                /* \"#utility.yul\":14107:14186   */\n              pop\n              jump\t// out\n\n            auxdata: 0xa264697066735822122019df581250950ad809f57433849780ce70b84029b1a804454accddc566cdad0564736f6c63430008000033\n        }\n    }\n\n    auxdata: 0xa2646970667358221220ced4eaa7ae6ac03b35baa29391d0e35970635fbcccff3d3e7b18d869cb6f894564736f6c63430008000033\n}\n",
				"bytecode": {
					"linkReferences": {},
					"object": "608060405234801561001057600080fd5b5061360b806100206000396000f3fe608060405234801561001057600080fd5b506004361061018e5760003560e01c806378f305c6116100de578063a3ec138d11610097578063c285c0d311610071578063c285c0d314610461578063d7558d4b1461047d578063e2ba53f0146104ad578063e9d6c6da146104cb5761018e565b8063a3ec138d146103f4578063b135648814610427578063b434b42e146104455761018e565b806378f305c61461036c5780637a16fcb01461038a578063836bc692146103a857806386278e77146103c4578063962fafd0146103ce5780639e7b8d61146103d85761018e565b8063609ff1bd1161014b578063643cb09611610125578063643cb096146102d457806369ba1a7514610304578063735d8b8714610320578063763fcb981461033c5761018e565b8063609ff1bd1461027c57806362564c481461029a578063627c2367146102b85761018e565b80630121b93f14610193578063013cf08b146101af5780630a82dcb1146101e05780632a8cdc4c146101fe5780634e69d5601461022e5780635c622a0e1461024c575b600080fd5b6101ad60048036038101906101a8919061190f565b6104fb565b005b6101c960048036038101906101c4919061190f565b6105ea565b6040516101d7929190611d12565b60405180910390f35b6101e86106a6565b6040516101f59190611d64565b60405180910390f35b6102186004803603810190610213919061190f565b6106b0565b6040516102259190611c76565b60405180910390f35b61023661079b565b6040516102439190611d64565b60405180910390f35b6102666004803603810190610261919061190f565b6107a5565b6040516102739190611d64565b60405180910390f35b610284610890565b6040516102919190611d64565b60405180910390f35b6102a2610964565b6040516102af9190611cb3565b60405180910390f35b6102d260048036038101906102cd91906119f1565b610a5f565b005b6102ee60048036038101906102e9919061190f565b610b32565b6040516102fb9190611cd5565b60405180910390f35b61031e6004803603810190610319919061190f565b610b71565b005b61033a6004803603810190610335919061199d565b610b7b565b005b6103566004803603810190610351919061190f565b610c4e565b6040516103639190611cf0565b60405180910390f35b610374610d3e565b6040516103819190611d64565b60405180910390f35b610392610d48565b60405161039f9190611c76565b60405180910390f35b6103c260048036038101906103bd919061188d565b610d71565b005b6103cc610eff565b005b6103d6610f08565b005b6103f260048036038101906103ed919061183b565b610f9b565b005b61040e6004803603810190610409919061183b565b6110e5565b60405161041e9493929190611d7f565b60405180910390f35b61042f611142565b60405161043c9190611d64565b60405180910390f35b61045f600480360381019061045a91906119f1565b61114c565b005b61047b60048036038101906104769190611961565b61121f565b005b6104976004803603810190610492919061190f565b6112f2565b6040516104a49190611d64565b60405180910390f35b6104b56113dd565b6040516104c29190611cf0565b60405180910390f35b6104e560048036038101906104e0919061190f565b6114bf565b6040516104f29190611d42565b60405180910390f35b6000600560003373ffffffffffffffffffffffffffffffffffffffff1673ffffffffffffffffffffffffffffffffffffffff16815260200190815260200160002090508060010160009054906101000a900460ff161561055a57600080fd5b60018160010160006101000a81548160ff0219169083151502179055508181600201819055508060000154600683815481106105bf577f4e487b7100000000000000000000000000000000000000000000000000000000600052603260045260246000fd5b906000526020600020906002020160010160008282546105df9190611ef0565b925050819055505050565b600681815481106105fa57600080fd5b906000526020600020906002020160009150905080600001805461061d90611ff4565b80601f016020809104026020016040519081016040528092919081815260200182805461064990611ff4565b80156106965780601f1061066b57610100808354040283529160200191610696565b820191906000526020600020905b81548152906001019060200180831161067957829003601f168201915b5050505050908060010154905082565b6000600454905090565b6000600782815481106106ec577f4e487b7100000000000000000000000000000000000000000000000000000000600052603260045260246000fd5b9060005260206000200160009054906101000a900473ffffffffffffffffffffffffffffffffffffffff1673ffffffffffffffffffffffffffffffffffffffff16637a16fcb06040518163ffffffff1660e01b815260040160206040518083038186803b15801561075c57600080fd5b505afa158015610770573d6000803e3d6000fd5b505050506040513d601f19601f820116820180604052508101906107949190611864565b9050919050565b6000600154905090565b6000600782815481106107e1577f4e487b7100000000000000000000000000000000000000000000000000000000600052603260045260246000fd5b9060005260206000200160009054906101000a900473ffffffffffffffffffffffffffffffffffffffff1673ffffffffffffffffffffffffffffffffffffffff16634e69d5606040518163ffffffff1660e01b815260040160206040518083038186803b15801561085157600080fd5b505afa158015610865573d6000803e3d6000fd5b505050506040513d601f19601f820116820180604052508101906108899190611938565b9050919050565b6000806000905060005b60068054905081101561095f5781600682815481106108e2577f4e487b7100000000000000000000000000000000000000000000000000000000600052603260045260246000fd5b906000526020600020906002020160010154111561094c5760068181548110610934577f4e487b7100000000000000000000000000000000000000000000000000000000600052603260045260246000fd5b90600052602060002090600202016001015491508092505b808061095790612026565b91505061089a565b505090565b60606006805480602002602001604051908101604052809291908181526020016000905b82821015610a5657838290600052602060002090600202016040518060400160405290816000820180546109bb90611ff4565b80601f01602080910402602001604051908101604052809291908181526020018280546109e790611ff4565b8015610a345780601f10610a0957610100808354040283529160200191610a34565b820191906000526020600020905b815481529060010190602001808311610a1757829003601f168201915b5050505050815260200160018201548152505081526020019060010190610988565b50505050905090565b60078281548110610a99577f4e487b7100000000000000000000000000000000000000000000000000000000600052603260045260246000fd5b9060005260206000200160009054906101000a900473ffffffffffffffffffffffffffffffffffffffff1673ffffffffffffffffffffffffffffffffffffffff16630121b93f826040518263ffffffff1660e01b8152600401610afc9190611d64565b600060405180830381600087803b158015610b1657600080fd5b505af1158015610b2a573d6000803e3d6000fd5b505050505050565b60078181548110610b4257600080fd5b906000526020600020016000915054906101000a900473ffffffffffffffffffffffffffffffffffffffff1681565b8060018190555050565b60078281548110610bb5577f4e487b7100000000000000000000000000000000000000000000000000000000600052603260045260246000fd5b9060005260206000200160009054906101000a900473ffffffffffffffffffffffffffffffffffffffff1673ffffffffffffffffffffffffffffffffffffffff1663836bc692826040518263ffffffff1660e01b8152600401610c189190611c91565b600060405180830381600087803b158015610c3257600080fd5b505af1158015610c46573d6000803e3d6000fd5b505050505050565b606060078281548110610c8a577f4e487b7100000000000000000000000000000000000000000000000000000000600052603260045260246000fd5b9060005260206000200160009054906101000a900473ffffffffffffffffffffffffffffffffffffffff1673ffffffffffffffffffffffffffffffffffffffff1663e2ba53f06040518163ffffffff1660e01b815260040160006040518083038186803b158015610cfa57600080fd5b505afa158015610d0e573d6000803e3d6000fd5b505050506040513d6000823e3d601f19601f82011682018060405250810190610d3791906118ce565b9050919050565b6000600254905090565b60008060009054906101000a900473ffffffffffffffffffffffffffffffffffffffff16905090565b336000806101000a81548173ffffffffffffffffffffffffffffffffffffffff021916908373ffffffffffffffffffffffffffffffffffffffff1602179055506001600560008060009054906101000a900473ffffffffffffffffffffffffffffffffffffffff1673ffffffffffffffffffffffffffffffffffffffff1673ffffffffffffffffffffffffffffffffffffffff168152602001908152602001600020600001819055506000600181905550610e2a6115bd565b805160048190555060005b8151811015610efb5760066040518060400160405280848481518110610e84577f4e487b7100000000000000000000000000000000000000000000000000000000600052603260045260246000fd5b60200260200101518152602001600081525090806001815401808255809150506001900390600052602060002090600202016000909190919091506000820151816000019080519060200190610edb9291906115c6565b506020820151816001015550508080610ef390612026565b915050610e35565b5050565b42600381905550565b6000604051610f169061164c565b604051809103906000f080158015610f32573d6000803e3d6000fd5b5090506007819080600181540180825580915050600190039060005260206000200160009091909190916101000a81548173ffffffffffffffffffffffffffffffffffffffff021916908373ffffffffffffffffffffffffffffffffffffffff16021790555050565b60008054906101000a900473ffffffffffffffffffffffffffffffffffffffff1673ffffffffffffffffffffffffffffffffffffffff163373ffffffffffffffffffffffffffffffffffffffff161480156110435750600560008273ffffffffffffffffffffffffffffffffffffffff1673ffffffffffffffffffffffffffffffffffffffff16815260200190815260200160002060010160009054906101000a900460ff16155b801561109157506000600560008373ffffffffffffffffffffffffffffffffffffffff1673ffffffffffffffffffffffffffffffffffffffff16815260200190815260200160002060000154145b61109a57600080fd5b6001600560008373ffffffffffffffffffffffffffffffffffffffff1673ffffffffffffffffffffffffffffffffffffffff1681526020019081526020016000206000018190555050565b60056020528060005260406000206000915090508060000154908060010160009054906101000a900460ff16908060010160019054906101000a900473ffffffffffffffffffffffffffffffffffffffff16908060020154905084565b6000600354905090565b60078281548110611186577f4e487b7100000000000000000000000000000000000000000000000000000000600052603260045260246000fd5b9060005260206000200160009054906101000a900473ffffffffffffffffffffffffffffffffffffffff1673ffffffffffffffffffffffffffffffffffffffff166369ba1a75826040518263ffffffff1660e01b81526004016111e99190611d64565b600060405180830381600087803b15801561120357600080fd5b505af1158015611217573d6000803e3d6000fd5b505050505050565b60078281548110611259577f4e487b7100000000000000000000000000000000000000000000000000000000600052603260045260246000fd5b9060005260206000200160009054906101000a900473ffffffffffffffffffffffffffffffffffffffff1673ffffffffffffffffffffffffffffffffffffffff16639e7b8d61826040518263ffffffff1660e01b81526004016112bc9190611c76565b600060405180830381600087803b1580156112d657600080fd5b505af11580156112ea573d6000803e3d6000fd5b505050505050565b60006007828154811061132e577f4e487b7100000000000000000000000000000000000000000000000000000000600052603260045260246000fd5b9060005260206000200160009054906101000a900473ffffffffffffffffffffffffffffffffffffffff1673ffffffffffffffffffffffffffffffffffffffff1663609ff1bd6040518163ffffffff1660e01b815260040160206040518083038186803b15801561139e57600080fd5b505afa1580156113b2573d6000803e3d6000fd5b505050506040513d601f19601f820116820180604052508101906113d69190611938565b9050919050565b606060066113e9610890565b81548110611420577f4e487b7100000000000000000000000000000000000000000000000000000000600052603260045260246000fd5b9060005260206000209060020201600001805461143c90611ff4565b80601f016020809104026020016040519081016040528092919081815260200182805461146890611ff4565b80156114b55780601f1061148a576101008083540402835291602001916114b5565b820191906000526020600020905b81548152906001019060200180831161149857829003601f168201915b5050505050905090565b6114c7611659565b60068281548110611501577f4e487b7100000000000000000000000000000000000000000000000000000000600052603260045260246000fd5b906000526020600020906002020160405180604001604052908160008201805461152a90611ff4565b80601f016020809104026020016040519081016040528092919081815260200182805461155690611ff4565b80156115a35780601f10611578576101008083540402835291602001916115a3565b820191906000526020600020905b81548152906001019060200180831161158657829003601f168201915b505050505081526020016001820154815250509050919050565b42600281905550565b8280546115d290611ff4565b90600052602060002090601f0160209004810192826115f4576000855561163b565b82601f1061160d57805160ff191683800117855561163b565b8280016001018555821561163b579182015b8281111561163a57825182559160200191906001019061161f565b5b5090506116489190611673565b5090565b61149a8061213c83390190565b604051806040016040528060608152602001600081525090565b5b8082111561168c576000816000905550600101611674565b5090565b60006116a361169e84611df5565b611dc4565b9050808382526020820190508260005b858110156116e357813585016116c988826117bd565b8452602084019350602083019250506001810190506116b3565b5050509392505050565b60006117006116fb84611e21565b611dc4565b90508281526020810184848401111561171857600080fd5b611723848285611fb2565b509392505050565b600061173e61173984611e21565b611dc4565b90508281526020810184848401111561175657600080fd5b611761848285611fc1565b509392505050565b6000813590506117788161210d565b92915050565b60008151905061178d8161210d565b92915050565b600082601f8301126117a457600080fd5b81356117b4848260208601611690565b91505092915050565b600082601f8301126117ce57600080fd5b81356117de8482602086016116ed565b91505092915050565b600082601f8301126117f857600080fd5b815161180884826020860161172b565b91505092915050565b60008135905061182081612124565b92915050565b60008151905061183581612124565b92915050565b60006020828403121561184d57600080fd5b600061185b84828501611769565b91505092915050565b60006020828403121561187657600080fd5b60006118848482850161177e565b91505092915050565b60006020828403121561189f57600080fd5b600082013567ffffffffffffffff8111156118b957600080fd5b6118c584828501611793565b91505092915050565b6000602082840312156118e057600080fd5b600082015167ffffffffffffffff8111156118fa57600080fd5b611906848285016117e7565b91505092915050565b60006020828403121561192157600080fd5b600061192f84828501611811565b91505092915050565b60006020828403121561194a57600080fd5b600061195884828501611826565b91505092915050565b6000806040838503121561197457600080fd5b600061198285828601611811565b925050602061199385828601611769565b9150509250929050565b600080604083850312156119b057600080fd5b60006119be85828601611811565b925050602083013567ffffffffffffffff8111156119db57600080fd5b6119e785828601611793565b9150509250929050565b60008060408385031215611a0457600080fd5b6000611a1285828601611811565b9250506020611a2385828601611811565b9150509250929050565b6000611a398383611b6c565b905092915050565b6000611a4d8383611bde565b905092915050565b611a5e81611f46565b82525050565b6000611a6f82611e71565b611a798185611eac565b935083602082028501611a8b85611e51565b8060005b85811015611ac75784840389528151611aa88582611a2d565b9450611ab383611e92565b925060208a01995050600181019050611a8f565b50829750879550505050505092915050565b6000611ae482611e7c565b611aee8185611ebd565b935083602082028501611b0085611e61565b8060005b85811015611b3c5784840389528151611b1d8582611a41565b9450611b2883611e9f565b925060208a01995050600181019050611b04565b50829750879550505050505092915050565b611b5781611f58565b82525050565b611b6681611f8e565b82525050565b6000611b7782611e87565b611b818185611ece565b9350611b91818560208601611fc1565b611b9a816120fc565b840191505092915050565b6000611bb082611e87565b611bba8185611edf565b9350611bca818560208601611fc1565b611bd3816120fc565b840191505092915050565b60006040830160008301518482036000860152611bfb8282611b6c565b9150506020830151611c106020860182611c58565b508091505092915050565b60006040830160008301518482036000860152611c388282611b6c565b9150506020830151611c4d6020860182611c58565b508091505092915050565b611c6181611f84565b82525050565b611c7081611f84565b82525050565b6000602082019050611c8b6000830184611a55565b92915050565b60006020820190508181036000830152611cab8184611a64565b905092915050565b60006020820190508181036000830152611ccd8184611ad9565b905092915050565b6000602082019050611cea6000830184611b5d565b92915050565b60006020820190508181036000830152611d0a8184611ba5565b905092915050565b60006040820190508181036000830152611d2c8185611ba5565b9050611d3b6020830184611c67565b9392505050565b60006020820190508181036000830152611d5c8184611c1b565b905092915050565b6000602082019050611d796000830184611c67565b92915050565b6000608082019050611d946000830187611c67565b611da16020830186611b4e565b611dae6040830185611a55565b611dbb6060830184611c67565b95945050505050565b6000604051905081810181811067ffffffffffffffff82111715611deb57611dea6120cd565b5b8060405250919050565b600067ffffffffffffffff821115611e1057611e0f6120cd565b5b602082029050602081019050919050565b600067ffffffffffffffff821115611e3c57611e3b6120cd565b5b601f19601f8301169050602081019050919050565b6000819050602082019050919050565b6000819050602082019050919050565b600081519050919050565b600081519050919050565b600081519050919050565b6000602082019050919050565b6000602082019050919050565b600082825260208201905092915050565b600082825260208201905092915050565b600082825260208201905092915050565b600082825260208201905092915050565b6000611efb82611f84565b9150611f0683611f84565b9250827fffffffffffffffffffffffffffffffffffffffffffffffffffffffffffffffff03821115611f3b57611f3a61206f565b5b828201905092915050565b6000611f5182611f64565b9050919050565b60008115159050919050565b600073ffffffffffffffffffffffffffffffffffffffff82169050919050565b6000819050919050565b6000611f9982611fa0565b9050919050565b6000611fab82611f64565b9050919050565b82818337600083830152505050565b60005b83811015611fdf578082015181840152602081019050611fc4565b83811115611fee576000848401525b50505050565b6000600282049050600182168061200c57607f821691505b602082108114156120205761201f61209e565b5b50919050565b600061203182611f84565b91507fffffffffffffffffffffffffffffffffffffffffffffffffffffffffffffffff8214156120645761206361206f565b5b600182019050919050565b7f4e487b7100000000000000000000000000000000000000000000000000000000600052601160045260246000fd5b7f4e487b7100000000000000000000000000000000000000000000000000000000600052602260045260246000fd5b7f4e487b7100000000000000000000000000000000000000000000000000000000600052604160045260246000fd5b6000601f19601f8301169050919050565b61211681611f46565b811461212157600080fd5b50565b61212d81611f84565b811461213857600080fd5b5056fe608060405234801561001057600080fd5b5061147a806100206000396000f3fe608060405234801561001057600080fd5b50600436106101005760003560e01c80637a16fcb011610097578063a3ec138d11610066578063a3ec138d14610264578063b135648814610297578063e2ba53f0146102b5578063e9d6c6da146102d357610100565b80637a16fcb014610204578063836bc6921461022257806386278e771461023e5780639e7b8d611461024857610100565b8063609ff1bd116100d3578063609ff1bd1461018e57806362564c48146101ac57806369ba1a75146101ca57806378f305c6146101e657610100565b80630121b93f14610105578063013cf08b146101215780630a82dcb1146101525780634e69d56014610170575b600080fd5b61011f600480360381019061011a9190610e3f565b610303565b005b61013b60048036038101906101369190610e3f565b6103f2565b604051610149929190611078565b60405180910390f35b61015a6104ae565b60405161016791906110ca565b60405180910390f35b6101786104b8565b60405161018591906110ca565b60405180910390f35b6101966104c2565b6040516101a391906110ca565b60405180910390f35b6101b4610596565b6040516101c19190611034565b60405180910390f35b6101e460048036038101906101df9190610e3f565b610691565b005b6101ee61069b565b6040516101fb91906110ca565b60405180910390f35b61020c6106a5565b6040516102199190611019565b60405180910390f35b61023c60048036038101906102379190610dfe565b6106ce565b005b61024661085c565b005b610262600480360381019061025d9190610dd5565b610865565b005b61027e60048036038101906102799190610dd5565b6109af565b60405161028e94939291906110e5565b60405180910390f35b61029f610a0c565b6040516102ac91906110ca565b60405180910390f35b6102bd610a16565b6040516102ca9190611056565b60405180910390f35b6102ed60048036038101906102e89190610e3f565b610af8565b6040516102fa91906110a8565b60405180910390f35b6000600560003373ffffffffffffffffffffffffffffffffffffffff1673ffffffffffffffffffffffffffffffffffffffff16815260200190815260200160002090508060010160009054906101000a900460ff161561036257600080fd5b60018160010160006101000a81548160ff0219169083151502179055508181600201819055508060000154600683815481106103c7577f4e487b7100000000000000000000000000000000000000000000000000000000600052603260045260246000fd5b906000526020600020906002020160010160008282546103e7919061121d565b925050819055505050565b6006818154811061040257600080fd5b9060005260206000209060020201600091509050806000018054610425906112fd565b80601f0160208091040260200160405190810160405280929190818152602001828054610451906112fd565b801561049e5780601f106104735761010080835404028352916020019161049e565b820191906000526020600020905b81548152906001019060200180831161048157829003601f168201915b5050505050908060010154905082565b6000600454905090565b6000600154905090565b6000806000905060005b600680549050811015610591578160068281548110610514577f4e487b7100000000000000000000000000000000000000000000000000000000600052603260045260246000fd5b906000526020600020906002020160010154111561057e5760068181548110610566577f4e487b7100000000000000000000000000000000000000000000000000000000600052603260045260246000fd5b90600052602060002090600202016001015491508092505b80806105899061132f565b9150506104cc565b505090565b60606006805480602002602001604051908101604052809291908181526020016000905b8282101561068857838290600052602060002090600202016040518060400160405290816000820180546105ed906112fd565b80601f0160208091040260200160405190810160405280929190818152602001828054610619906112fd565b80156106665780601f1061063b57610100808354040283529160200191610666565b820191906000526020600020905b81548152906001019060200180831161064957829003601f168201915b50505050508152602001600182015481525050815260200190600101906105ba565b50505050905090565b8060018190555050565b6000600254905090565b60008060009054906101000a900473ffffffffffffffffffffffffffffffffffffffff16905090565b336000806101000a81548173ffffffffffffffffffffffffffffffffffffffff021916908373ffffffffffffffffffffffffffffffffffffffff1602179055506001600560008060009054906101000a900473ffffffffffffffffffffffffffffffffffffffff1673ffffffffffffffffffffffffffffffffffffffff1673ffffffffffffffffffffffffffffffffffffffff168152602001908152602001600020600001819055506000600181905550610787610bf6565b805160048190555060005b815181101561085857600660405180604001604052808484815181106107e1577f4e487b7100000000000000000000000000000000000000000000000000000000600052603260045260246000fd5b60200260200101518152602001600081525090806001815401808255809150506001900390600052602060002090600202016000909190919091506000820151816000019080519060200190610838929190610bff565b5060208201518160010155505080806108509061132f565b915050610792565b5050565b42600381905550565b60008054906101000a900473ffffffffffffffffffffffffffffffffffffffff1673ffffffffffffffffffffffffffffffffffffffff163373ffffffffffffffffffffffffffffffffffffffff1614801561090d5750600560008273ffffffffffffffffffffffffffffffffffffffff1673ffffffffffffffffffffffffffffffffffffffff16815260200190815260200160002060010160009054906101000a900460ff16155b801561095b57506000600560008373ffffffffffffffffffffffffffffffffffffffff1673ffffffffffffffffffffffffffffffffffffffff16815260200190815260200160002060000154145b61096457600080fd5b6001600560008373ffffffffffffffffffffffffffffffffffffffff1673ffffffffffffffffffffffffffffffffffffffff1681526020019081526020016000206000018190555050565b60056020528060005260406000206000915090508060000154908060010160009054906101000a900460ff16908060010160019054906101000a900473ffffffffffffffffffffffffffffffffffffffff16908060020154905084565b6000600354905090565b60606006610a226104c2565b81548110610a59577f4e487b7100000000000000000000000000000000000000000000000000000000600052603260045260246000fd5b90600052602060002090600202016000018054610a75906112fd565b80601f0160208091040260200160405190810160405280929190818152602001828054610aa1906112fd565b8015610aee5780601f10610ac357610100808354040283529160200191610aee565b820191906000526020600020905b815481529060010190602001808311610ad157829003601f168201915b5050505050905090565b610b00610c85565b60068281548110610b3a577f4e487b7100000000000000000000000000000000000000000000000000000000600052603260045260246000fd5b9060005260206000209060020201604051806040016040529081600082018054610b63906112fd565b80601f0160208091040260200160405190810160405280929190818152602001828054610b8f906112fd565b8015610bdc5780601f10610bb157610100808354040283529160200191610bdc565b820191906000526020600020905b815481529060010190602001808311610bbf57829003601f168201915b505050505081526020016001820154815250509050919050565b42600281905550565b828054610c0b906112fd565b90600052602060002090601f016020900481019282610c2d5760008555610c74565b82601f10610c4657805160ff1916838001178555610c74565b82800160010185558215610c74579182015b82811115610c73578251825591602001919060010190610c58565b5b509050610c819190610c9f565b5090565b604051806040016040528060608152602001600081525090565b5b80821115610cb8576000816000905550600101610ca0565b5090565b6000610ccf610cca8461115b565b61112a565b9050808382526020820190508260005b85811015610d0f5781358501610cf58882610d96565b845260208401935060208301925050600181019050610cdf565b5050509392505050565b6000610d2c610d2784611187565b61112a565b905082815260208101848484011115610d4457600080fd5b610d4f8482856112bb565b509392505050565b600081359050610d6681611416565b92915050565b600082601f830112610d7d57600080fd5b8135610d8d848260208601610cbc565b91505092915050565b600082601f830112610da757600080fd5b8135610db7848260208601610d19565b91505092915050565b600081359050610dcf8161142d565b92915050565b600060208284031215610de757600080fd5b6000610df584828501610d57565b91505092915050565b600060208284031215610e1057600080fd5b600082013567ffffffffffffffff811115610e2a57600080fd5b610e3684828501610d6c565b91505092915050565b600060208284031215610e5157600080fd5b6000610e5f84828501610dc0565b91505092915050565b6000610e748383610f81565b905092915050565b610e8581611273565b82525050565b6000610e96826111c7565b610ea081856111ea565b935083602082028501610eb2856111b7565b8060005b85811015610eee5784840389528151610ecf8582610e68565b9450610eda836111dd565b925060208a01995050600181019050610eb6565b50829750879550505050505092915050565b610f0981611285565b82525050565b6000610f1a826111d2565b610f2481856111fb565b9350610f348185602086016112ca565b610f3d81611405565b840191505092915050565b6000610f53826111d2565b610f5d818561120c565b9350610f6d8185602086016112ca565b610f7681611405565b840191505092915050565b60006040830160008301518482036000860152610f9e8282610f0f565b9150506020830151610fb36020860182610ffb565b508091505092915050565b60006040830160008301518482036000860152610fdb8282610f0f565b9150506020830151610ff06020860182610ffb565b508091505092915050565b611004816112b1565b82525050565b611013816112b1565b82525050565b600060208201905061102e6000830184610e7c565b92915050565b6000602082019050818103600083015261104e8184610e8b565b905092915050565b600060208201905081810360008301526110708184610f48565b905092915050565b600060408201905081810360008301526110928185610f48565b90506110a1602083018461100a565b9392505050565b600060208201905081810360008301526110c28184610fbe565b905092915050565b60006020820190506110df600083018461100a565b92915050565b60006080820190506110fa600083018761100a565b6111076020830186610f00565b6111146040830185610e7c565b611121606083018461100a565b95945050505050565b6000604051905081810181811067ffffffffffffffff82111715611151576111506113d6565b5b8060405250919050565b600067ffffffffffffffff821115611176576111756113d6565b5b602082029050602081019050919050565b600067ffffffffffffffff8211156111a2576111a16113d6565b5b601f19601f8301169050602081019050919050565b6000819050602082019050919050565b600081519050919050565b600081519050919050565b6000602082019050919050565b600082825260208201905092915050565b600082825260208201905092915050565b600082825260208201905092915050565b6000611228826112b1565b9150611233836112b1565b9250827fffffffffffffffffffffffffffffffffffffffffffffffffffffffffffffffff0382111561126857611267611378565b5b828201905092915050565b600061127e82611291565b9050919050565b60008115159050919050565b600073ffffffffffffffffffffffffffffffffffffffff82169050919050565b6000819050919050565b82818337600083830152505050565b60005b838110156112e85780820151818401526020810190506112cd565b838111156112f7576000848401525b50505050565b6000600282049050600182168061131557607f821691505b60208210811415611329576113286113a7565b5b50919050565b600061133a826112b1565b91507fffffffffffffffffffffffffffffffffffffffffffffffffffffffffffffffff82141561136d5761136c611378565b5b600182019050919050565b7f4e487b7100000000000000000000000000000000000000000000000000000000600052601160045260246000fd5b7f4e487b7100000000000000000000000000000000000000000000000000000000600052602260045260246000fd5b7f4e487b7100000000000000000000000000000000000000000000000000000000600052604160045260246000fd5b6000601f19601f8301169050919050565b61141f81611273565b811461142a57600080fd5b50565b611436816112b1565b811461144157600080fd5b5056fea264697066735822122019df581250950ad809f57433849780ce70b84029b1a804454accddc566cdad0564736f6c63430008000033a2646970667358221220ced4eaa7ae6ac03b35baa29391d0e35970635fbcccff3d3e7b18d869cb6f894564736f6c63430008000033",
					"opcodes": "PUSH1 0x80 PUSH1 0x40 MSTORE CALLVALUE DUP1 ISZERO PUSH2 0x10 JUMPI PUSH1 0x0 DUP1 REVERT JUMPDEST POP PUSH2 0x360B DUP1 PUSH2 0x20 PUSH1 0x0 CODECOPY PUSH1 0x0 RETURN INVALID PUSH1 0x80 PUSH1 0x40 MSTORE CALLVALUE DUP1 ISZERO PUSH2 0x10 JUMPI PUSH1 0x0 DUP1 REVERT JUMPDEST POP PUSH1 0x4 CALLDATASIZE LT PUSH2 0x18E JUMPI PUSH1 0x0 CALLDATALOAD PUSH1 0xE0 SHR DUP1 PUSH4 0x78F305C6 GT PUSH2 0xDE JUMPI DUP1 PUSH4 0xA3EC138D GT PUSH2 0x97 JUMPI DUP1 PUSH4 0xC285C0D3 GT PUSH2 0x71 JUMPI DUP1 PUSH4 0xC285C0D3 EQ PUSH2 0x461 JUMPI DUP1 PUSH4 0xD7558D4B EQ PUSH2 0x47D JUMPI DUP1 PUSH4 0xE2BA53F0 EQ PUSH2 0x4AD JUMPI DUP1 PUSH4 0xE9D6C6DA EQ PUSH2 0x4CB JUMPI PUSH2 0x18E JUMP JUMPDEST DUP1 PUSH4 0xA3EC138D EQ PUSH2 0x3F4 JUMPI DUP1 PUSH4 0xB1356488 EQ PUSH2 0x427 JUMPI DUP1 PUSH4 0xB434B42E EQ PUSH2 0x445 JUMPI PUSH2 0x18E JUMP JUMPDEST DUP1 PUSH4 0x78F305C6 EQ PUSH2 0x36C JUMPI DUP1 PUSH4 0x7A16FCB0 EQ PUSH2 0x38A JUMPI DUP1 PUSH4 0x836BC692 EQ PUSH2 0x3A8 JUMPI DUP1 PUSH4 0x86278E77 EQ PUSH2 0x3C4 JUMPI DUP1 PUSH4 0x962FAFD0 EQ PUSH2 0x3CE JUMPI DUP1 PUSH4 0x9E7B8D61 EQ PUSH2 0x3D8 JUMPI PUSH2 0x18E JUMP JUMPDEST DUP1 PUSH4 0x609FF1BD GT PUSH2 0x14B JUMPI DUP1 PUSH4 0x643CB096 GT PUSH2 0x125 JUMPI DUP1 PUSH4 0x643CB096 EQ PUSH2 0x2D4 JUMPI DUP1 PUSH4 0x69BA1A75 EQ PUSH2 0x304 JUMPI DUP1 PUSH4 0x735D8B87 EQ PUSH2 0x320 JUMPI DUP1 PUSH4 0x763FCB98 EQ PUSH2 0x33C JUMPI PUSH2 0x18E JUMP JUMPDEST DUP1 PUSH4 0x609FF1BD EQ PUSH2 0x27C JUMPI DUP1 PUSH4 0x62564C48 EQ PUSH2 0x29A JUMPI DUP1 PUSH4 0x627C2367 EQ PUSH2 0x2B8 JUMPI PUSH2 0x18E JUMP JUMPDEST DUP1 PUSH4 0x121B93F EQ PUSH2 0x193 JUMPI DUP1 PUSH4 0x13CF08B EQ PUSH2 0x1AF JUMPI DUP1 PUSH4 0xA82DCB1 EQ PUSH2 0x1E0 JUMPI DUP1 PUSH4 0x2A8CDC4C EQ PUSH2 0x1FE JUMPI DUP1 PUSH4 0x4E69D560 EQ PUSH2 0x22E JUMPI DUP1 PUSH4 0x5C622A0E EQ PUSH2 0x24C JUMPI JUMPDEST PUSH1 0x0 DUP1 REVERT JUMPDEST PUSH2 0x1AD PUSH1 0x4 DUP1 CALLDATASIZE SUB DUP2 ADD SWAP1 PUSH2 0x1A8 SWAP2 SWAP1 PUSH2 0x190F JUMP JUMPDEST PUSH2 0x4FB JUMP JUMPDEST STOP JUMPDEST PUSH2 0x1C9 PUSH1 0x4 DUP1 CALLDATASIZE SUB DUP2 ADD SWAP1 PUSH2 0x1C4 SWAP2 SWAP1 PUSH2 0x190F JUMP JUMPDEST PUSH2 0x5EA JUMP JUMPDEST PUSH1 0x40 MLOAD PUSH2 0x1D7 SWAP3 SWAP2 SWAP1 PUSH2 0x1D12 JUMP JUMPDEST PUSH1 0x40 MLOAD DUP1 SWAP2 SUB SWAP1 RETURN JUMPDEST PUSH2 0x1E8 PUSH2 0x6A6 JUMP JUMPDEST PUSH1 0x40 MLOAD PUSH2 0x1F5 SWAP2 SWAP1 PUSH2 0x1D64 JUMP JUMPDEST PUSH1 0x40 MLOAD DUP1 SWAP2 SUB SWAP1 RETURN JUMPDEST PUSH2 0x218 PUSH1 0x4 DUP1 CALLDATASIZE SUB DUP2 ADD SWAP1 PUSH2 0x213 SWAP2 SWAP1 PUSH2 0x190F JUMP JUMPDEST PUSH2 0x6B0 JUMP JUMPDEST PUSH1 0x40 MLOAD PUSH2 0x225 SWAP2 SWAP1 PUSH2 0x1C76 JUMP JUMPDEST PUSH1 0x40 MLOAD DUP1 SWAP2 SUB SWAP1 RETURN JUMPDEST PUSH2 0x236 PUSH2 0x79B JUMP JUMPDEST PUSH1 0x40 MLOAD PUSH2 0x243 SWAP2 SWAP1 PUSH2 0x1D64 JUMP JUMPDEST PUSH1 0x40 MLOAD DUP1 SWAP2 SUB SWAP1 RETURN JUMPDEST PUSH2 0x266 PUSH1 0x4 DUP1 CALLDATASIZE SUB DUP2 ADD SWAP1 PUSH2 0x261 SWAP2 SWAP1 PUSH2 0x190F JUMP JUMPDEST PUSH2 0x7A5 JUMP JUMPDEST PUSH1 0x40 MLOAD PUSH2 0x273 SWAP2 SWAP1 PUSH2 0x1D64 JUMP JUMPDEST PUSH1 0x40 MLOAD DUP1 SWAP2 SUB SWAP1 RETURN JUMPDEST PUSH2 0x284 PUSH2 0x890 JUMP JUMPDEST PUSH1 0x40 MLOAD PUSH2 0x291 SWAP2 SWAP1 PUSH2 0x1D64 JUMP JUMPDEST PUSH1 0x40 MLOAD DUP1 SWAP2 SUB SWAP1 RETURN JUMPDEST PUSH2 0x2A2 PUSH2 0x964 JUMP JUMPDEST PUSH1 0x40 MLOAD PUSH2 0x2AF SWAP2 SWAP1 PUSH2 0x1CB3 JUMP JUMPDEST PUSH1 0x40 MLOAD DUP1 SWAP2 SUB SWAP1 RETURN JUMPDEST PUSH2 0x2D2 PUSH1 0x4 DUP1 CALLDATASIZE SUB DUP2 ADD SWAP1 PUSH2 0x2CD SWAP2 SWAP1 PUSH2 0x19F1 JUMP JUMPDEST PUSH2 0xA5F JUMP JUMPDEST STOP JUMPDEST PUSH2 0x2EE PUSH1 0x4 DUP1 CALLDATASIZE SUB DUP2 ADD SWAP1 PUSH2 0x2E9 SWAP2 SWAP1 PUSH2 0x190F JUMP JUMPDEST PUSH2 0xB32 JUMP JUMPDEST PUSH1 0x40 MLOAD PUSH2 0x2FB SWAP2 SWAP1 PUSH2 0x1CD5 JUMP JUMPDEST PUSH1 0x40 MLOAD DUP1 SWAP2 SUB SWAP1 RETURN JUMPDEST PUSH2 0x31E PUSH1 0x4 DUP1 CALLDATASIZE SUB DUP2 ADD SWAP1 PUSH2 0x319 SWAP2 SWAP1 PUSH2 0x190F JUMP JUMPDEST PUSH2 0xB71 JUMP JUMPDEST STOP JUMPDEST PUSH2 0x33A PUSH1 0x4 DUP1 CALLDATASIZE SUB DUP2 ADD SWAP1 PUSH2 0x335 SWAP2 SWAP1 PUSH2 0x199D JUMP JUMPDEST PUSH2 0xB7B JUMP JUMPDEST STOP JUMPDEST PUSH2 0x356 PUSH1 0x4 DUP1 CALLDATASIZE SUB DUP2 ADD SWAP1 PUSH2 0x351 SWAP2 SWAP1 PUSH2 0x190F JUMP JUMPDEST PUSH2 0xC4E JUMP JUMPDEST PUSH1 0x40 MLOAD PUSH2 0x363 SWAP2 SWAP1 PUSH2 0x1CF0 JUMP JUMPDEST PUSH1 0x40 MLOAD DUP1 SWAP2 SUB SWAP1 RETURN JUMPDEST PUSH2 0x374 PUSH2 0xD3E JUMP JUMPDEST PUSH1 0x40 MLOAD PUSH2 0x381 SWAP2 SWAP1 PUSH2 0x1D64 JUMP JUMPDEST PUSH1 0x40 MLOAD DUP1 SWAP2 SUB SWAP1 RETURN JUMPDEST PUSH2 0x392 PUSH2 0xD48 JUMP JUMPDEST PUSH1 0x40 MLOAD PUSH2 0x39F SWAP2 SWAP1 PUSH2 0x1C76 JUMP JUMPDEST PUSH1 0x40 MLOAD DUP1 SWAP2 SUB SWAP1 RETURN JUMPDEST PUSH2 0x3C2 PUSH1 0x4 DUP1 CALLDATASIZE SUB DUP2 ADD SWAP1 PUSH2 0x3BD SWAP2 SWAP1 PUSH2 0x188D JUMP JUMPDEST PUSH2 0xD71 JUMP JUMPDEST STOP JUMPDEST PUSH2 0x3CC PUSH2 0xEFF JUMP JUMPDEST STOP JUMPDEST PUSH2 0x3D6 PUSH2 0xF08 JUMP JUMPDEST STOP JUMPDEST PUSH2 0x3F2 PUSH1 0x4 DUP1 CALLDATASIZE SUB DUP2 ADD SWAP1 PUSH2 0x3ED SWAP2 SWAP1 PUSH2 0x183B JUMP JUMPDEST PUSH2 0xF9B JUMP JUMPDEST STOP JUMPDEST PUSH2 0x40E PUSH1 0x4 DUP1 CALLDATASIZE SUB DUP2 ADD SWAP1 PUSH2 0x409 SWAP2 SWAP1 PUSH2 0x183B JUMP JUMPDEST PUSH2 0x10E5 JUMP JUMPDEST PUSH1 0x40 MLOAD PUSH2 0x41E SWAP5 SWAP4 SWAP3 SWAP2 SWAP1 PUSH2 0x1D7F JUMP JUMPDEST PUSH1 0x40 MLOAD DUP1 SWAP2 SUB SWAP1 RETURN JUMPDEST PUSH2 0x42F PUSH2 0x1142 JUMP JUMPDEST PUSH1 0x40 MLOAD PUSH2 0x43C SWAP2 SWAP1 PUSH2 0x1D64 JUMP JUMPDEST PUSH1 0x40 MLOAD DUP1 SWAP2 SUB SWAP1 RETURN JUMPDEST PUSH2 0x45F PUSH1 0x4 DUP1 CALLDATASIZE SUB DUP2 ADD SWAP1 PUSH2 0x45A SWAP2 SWAP1 PUSH2 0x19F1 JUMP JUMPDEST PUSH2 0x114C JUMP JUMPDEST STOP JUMPDEST PUSH2 0x47B PUSH1 0x4 DUP1 CALLDATASIZE SUB DUP2 ADD SWAP1 PUSH2 0x476 SWAP2 SWAP1 PUSH2 0x1961 JUMP JUMPDEST PUSH2 0x121F JUMP JUMPDEST STOP JUMPDEST PUSH2 0x497 PUSH1 0x4 DUP1 CALLDATASIZE SUB DUP2 ADD SWAP1 PUSH2 0x492 SWAP2 SWAP1 PUSH2 0x190F JUMP JUMPDEST PUSH2 0x12F2 JUMP JUMPDEST PUSH1 0x40 MLOAD PUSH2 0x4A4 SWAP2 SWAP1 PUSH2 0x1D64 JUMP JUMPDEST PUSH1 0x40 MLOAD DUP1 SWAP2 SUB SWAP1 RETURN JUMPDEST PUSH2 0x4B5 PUSH2 0x13DD JUMP JUMPDEST PUSH1 0x40 MLOAD PUSH2 0x4C2 SWAP2 SWAP1 PUSH2 0x1CF0 JUMP JUMPDEST PUSH1 0x40 MLOAD DUP1 SWAP2 SUB SWAP1 RETURN JUMPDEST PUSH2 0x4E5 PUSH1 0x4 DUP1 CALLDATASIZE SUB DUP2 ADD SWAP1 PUSH2 0x4E0 SWAP2 SWAP1 PUSH2 0x190F JUMP JUMPDEST PUSH2 0x14BF JUMP JUMPDEST PUSH1 0x40 MLOAD PUSH2 0x4F2 SWAP2 SWAP1 PUSH2 0x1D42 JUMP JUMPDEST PUSH1 0x40 MLOAD DUP1 SWAP2 SUB SWAP1 RETURN JUMPDEST PUSH1 0x0 PUSH1 0x5 PUSH1 0x0 CALLER PUSH20 0xFFFFFFFFFFFFFFFFFFFFFFFFFFFFFFFFFFFFFFFF AND PUSH20 0xFFFFFFFFFFFFFFFFFFFFFFFFFFFFFFFFFFFFFFFF AND DUP2 MSTORE PUSH1 0x20 ADD SWAP1 DUP2 MSTORE PUSH1 0x20 ADD PUSH1 0x0 KECCAK256 SWAP1 POP DUP1 PUSH1 0x1 ADD PUSH1 0x0 SWAP1 SLOAD SWAP1 PUSH2 0x100 EXP SWAP1 DIV PUSH1 0xFF AND ISZERO PUSH2 0x55A JUMPI PUSH1 0x0 DUP1 REVERT JUMPDEST PUSH1 0x1 DUP2 PUSH1 0x1 ADD PUSH1 0x0 PUSH2 0x100 EXP DUP2 SLOAD DUP2 PUSH1 0xFF MUL NOT AND SWAP1 DUP4 ISZERO ISZERO MUL OR SWAP1 SSTORE POP DUP2 DUP2 PUSH1 0x2 ADD DUP2 SWAP1 SSTORE POP DUP1 PUSH1 0x0 ADD SLOAD PUSH1 0x6 DUP4 DUP2 SLOAD DUP2 LT PUSH2 0x5BF JUMPI PUSH32 0x4E487B7100000000000000000000000000000000000000000000000000000000 PUSH1 0x0 MSTORE PUSH1 0x32 PUSH1 0x4 MSTORE PUSH1 0x24 PUSH1 0x0 REVERT JUMPDEST SWAP1 PUSH1 0x0 MSTORE PUSH1 0x20 PUSH1 0x0 KECCAK256 SWAP1 PUSH1 0x2 MUL ADD PUSH1 0x1 ADD PUSH1 0x0 DUP3 DUP3 SLOAD PUSH2 0x5DF SWAP2 SWAP1 PUSH2 0x1EF0 JUMP JUMPDEST SWAP3 POP POP DUP2 SWAP1 SSTORE POP POP POP JUMP JUMPDEST PUSH1 0x6 DUP2 DUP2 SLOAD DUP2 LT PUSH2 0x5FA JUMPI PUSH1 0x0 DUP1 REVERT JUMPDEST SWAP1 PUSH1 0x0 MSTORE PUSH1 0x20 PUSH1 0x0 KECCAK256 SWAP1 PUSH1 0x2 MUL ADD PUSH1 0x0 SWAP2 POP SWAP1 POP DUP1 PUSH1 0x0 ADD DUP1 SLOAD PUSH2 0x61D SWAP1 PUSH2 0x1FF4 JUMP JUMPDEST DUP1 PUSH1 0x1F ADD PUSH1 0x20 DUP1 SWAP2 DIV MUL PUSH1 0x20 ADD PUSH1 0x40 MLOAD SWAP1 DUP2 ADD PUSH1 0x40 MSTORE DUP1 SWAP3 SWAP2 SWAP1 DUP2 DUP2 MSTORE PUSH1 0x20 ADD DUP3 DUP1 SLOAD PUSH2 0x649 SWAP1 PUSH2 0x1FF4 JUMP JUMPDEST DUP1 ISZERO PUSH2 0x696 JUMPI DUP1 PUSH1 0x1F LT PUSH2 0x66B JUMPI PUSH2 0x100 DUP1 DUP4 SLOAD DIV MUL DUP4 MSTORE SWAP2 PUSH1 0x20 ADD SWAP2 PUSH2 0x696 JUMP JUMPDEST DUP3 ADD SWAP2 SWAP1 PUSH1 0x0 MSTORE PUSH1 0x20 PUSH1 0x0 KECCAK256 SWAP1 JUMPDEST DUP2 SLOAD DUP2 MSTORE SWAP1 PUSH1 0x1 ADD SWAP1 PUSH1 0x20 ADD DUP1 DUP4 GT PUSH2 0x679 JUMPI DUP3 SWAP1 SUB PUSH1 0x1F AND DUP3 ADD SWAP2 JUMPDEST POP POP POP POP POP SWAP1 DUP1 PUSH1 0x1 ADD SLOAD SWAP1 POP DUP3 JUMP JUMPDEST PUSH1 0x0 PUSH1 0x4 SLOAD SWAP1 POP SWAP1 JUMP JUMPDEST PUSH1 0x0 PUSH1 0x7 DUP3 DUP2 SLOAD DUP2 LT PUSH2 0x6EC JUMPI PUSH32 0x4E487B7100000000000000000000000000000000000000000000000000000000 PUSH1 0x0 MSTORE PUSH1 0x32 PUSH1 0x4 MSTORE PUSH1 0x24 PUSH1 0x0 REVERT JUMPDEST SWAP1 PUSH1 0x0 MSTORE PUSH1 0x20 PUSH1 0x0 KECCAK256 ADD PUSH1 0x0 SWAP1 SLOAD SWAP1 PUSH2 0x100 EXP SWAP1 DIV PUSH20 0xFFFFFFFFFFFFFFFFFFFFFFFFFFFFFFFFFFFFFFFF AND PUSH20 0xFFFFFFFFFFFFFFFFFFFFFFFFFFFFFFFFFFFFFFFF AND PUSH4 0x7A16FCB0 PUSH1 0x40 MLOAD DUP2 PUSH4 0xFFFFFFFF AND PUSH1 0xE0 SHL DUP2 MSTORE PUSH1 0x4 ADD PUSH1 0x20 PUSH1 0x40 MLOAD DUP1 DUP4 SUB DUP2 DUP7 DUP1 EXTCODESIZE ISZERO DUP1 ISZERO PUSH2 0x75C JUMPI PUSH1 0x0 DUP1 REVERT JUMPDEST POP GAS STATICCALL ISZERO DUP1 ISZERO PUSH2 0x770 JUMPI RETURNDATASIZE PUSH1 0x0 DUP1 RETURNDATACOPY RETURNDATASIZE PUSH1 0x0 REVERT JUMPDEST POP POP POP POP PUSH1 0x40 MLOAD RETURNDATASIZE PUSH1 0x1F NOT PUSH1 0x1F DUP3 ADD AND DUP3 ADD DUP1 PUSH1 0x40 MSTORE POP DUP2 ADD SWAP1 PUSH2 0x794 SWAP2 SWAP1 PUSH2 0x1864 JUMP JUMPDEST SWAP1 POP SWAP2 SWAP1 POP JUMP JUMPDEST PUSH1 0x0 PUSH1 0x1 SLOAD SWAP1 POP SWAP1 JUMP JUMPDEST PUSH1 0x0 PUSH1 0x7 DUP3 DUP2 SLOAD DUP2 LT PUSH2 0x7E1 JUMPI PUSH32 0x4E487B7100000000000000000000000000000000000000000000000000000000 PUSH1 0x0 MSTORE PUSH1 0x32 PUSH1 0x4 MSTORE PUSH1 0x24 PUSH1 0x0 REVERT JUMPDEST SWAP1 PUSH1 0x0 MSTORE PUSH1 0x20 PUSH1 0x0 KECCAK256 ADD PUSH1 0x0 SWAP1 SLOAD SWAP1 PUSH2 0x100 EXP SWAP1 DIV PUSH20 0xFFFFFFFFFFFFFFFFFFFFFFFFFFFFFFFFFFFFFFFF AND PUSH20 0xFFFFFFFFFFFFFFFFFFFFFFFFFFFFFFFFFFFFFFFF AND PUSH4 0x4E69D560 PUSH1 0x40 MLOAD DUP2 PUSH4 0xFFFFFFFF AND PUSH1 0xE0 SHL DUP2 MSTORE PUSH1 0x4 ADD PUSH1 0x20 PUSH1 0x40 MLOAD DUP1 DUP4 SUB DUP2 DUP7 DUP1 EXTCODESIZE ISZERO DUP1 ISZERO PUSH2 0x851 JUMPI PUSH1 0x0 DUP1 REVERT JUMPDEST POP GAS STATICCALL ISZERO DUP1 ISZERO PUSH2 0x865 JUMPI RETURNDATASIZE PUSH1 0x0 DUP1 RETURNDATACOPY RETURNDATASIZE PUSH1 0x0 REVERT JUMPDEST POP POP POP POP PUSH1 0x40 MLOAD RETURNDATASIZE PUSH1 0x1F NOT PUSH1 0x1F DUP3 ADD AND DUP3 ADD DUP1 PUSH1 0x40 MSTORE POP DUP2 ADD SWAP1 PUSH2 0x889 SWAP2 SWAP1 PUSH2 0x1938 JUMP JUMPDEST SWAP1 POP SWAP2 SWAP1 POP JUMP JUMPDEST PUSH1 0x0 DUP1 PUSH1 0x0 SWAP1 POP PUSH1 0x0 JUMPDEST PUSH1 0x6 DUP1 SLOAD SWAP1 POP DUP2 LT ISZERO PUSH2 0x95F JUMPI DUP2 PUSH1 0x6 DUP3 DUP2 SLOAD DUP2 LT PUSH2 0x8E2 JUMPI PUSH32 0x4E487B7100000000000000000000000000000000000000000000000000000000 PUSH1 0x0 MSTORE PUSH1 0x32 PUSH1 0x4 MSTORE PUSH1 0x24 PUSH1 0x0 REVERT JUMPDEST SWAP1 PUSH1 0x0 MSTORE PUSH1 0x20 PUSH1 0x0 KECCAK256 SWAP1 PUSH1 0x2 MUL ADD PUSH1 0x1 ADD SLOAD GT ISZERO PUSH2 0x94C JUMPI PUSH1 0x6 DUP2 DUP2 SLOAD DUP2 LT PUSH2 0x934 JUMPI PUSH32 0x4E487B7100000000000000000000000000000000000000000000000000000000 PUSH1 0x0 MSTORE PUSH1 0x32 PUSH1 0x4 MSTORE PUSH1 0x24 PUSH1 0x0 REVERT JUMPDEST SWAP1 PUSH1 0x0 MSTORE PUSH1 0x20 PUSH1 0x0 KECCAK256 SWAP1 PUSH1 0x2 MUL ADD PUSH1 0x1 ADD SLOAD SWAP2 POP DUP1 SWAP3 POP JUMPDEST DUP1 DUP1 PUSH2 0x957 SWAP1 PUSH2 0x2026 JUMP JUMPDEST SWAP2 POP POP PUSH2 0x89A JUMP JUMPDEST POP POP SWAP1 JUMP JUMPDEST PUSH1 0x60 PUSH1 0x6 DUP1 SLOAD DUP1 PUSH1 0x20 MUL PUSH1 0x20 ADD PUSH1 0x40 MLOAD SWAP1 DUP2 ADD PUSH1 0x40 MSTORE DUP1 SWAP3 SWAP2 SWAP1 DUP2 DUP2 MSTORE PUSH1 0x20 ADD PUSH1 0x0 SWAP1 JUMPDEST DUP3 DUP3 LT ISZERO PUSH2 0xA56 JUMPI DUP4 DUP3 SWAP1 PUSH1 0x0 MSTORE PUSH1 0x20 PUSH1 0x0 KECCAK256 SWAP1 PUSH1 0x2 MUL ADD PUSH1 0x40 MLOAD DUP1 PUSH1 0x40 ADD PUSH1 0x40 MSTORE SWAP1 DUP2 PUSH1 0x0 DUP3 ADD DUP1 SLOAD PUSH2 0x9BB SWAP1 PUSH2 0x1FF4 JUMP JUMPDEST DUP1 PUSH1 0x1F ADD PUSH1 0x20 DUP1 SWAP2 DIV MUL PUSH1 0x20 ADD PUSH1 0x40 MLOAD SWAP1 DUP2 ADD PUSH1 0x40 MSTORE DUP1 SWAP3 SWAP2 SWAP1 DUP2 DUP2 MSTORE PUSH1 0x20 ADD DUP3 DUP1 SLOAD PUSH2 0x9E7 SWAP1 PUSH2 0x1FF4 JUMP JUMPDEST DUP1 ISZERO PUSH2 0xA34 JUMPI DUP1 PUSH1 0x1F LT PUSH2 0xA09 JUMPI PUSH2 0x100 DUP1 DUP4 SLOAD DIV MUL DUP4 MSTORE SWAP2 PUSH1 0x20 ADD SWAP2 PUSH2 0xA34 JUMP JUMPDEST DUP3 ADD SWAP2 SWAP1 PUSH1 0x0 MSTORE PUSH1 0x20 PUSH1 0x0 KECCAK256 SWAP1 JUMPDEST DUP2 SLOAD DUP2 MSTORE SWAP1 PUSH1 0x1 ADD SWAP1 PUSH1 0x20 ADD DUP1 DUP4 GT PUSH2 0xA17 JUMPI DUP3 SWAP1 SUB PUSH1 0x1F AND DUP3 ADD SWAP2 JUMPDEST POP POP POP POP POP DUP2 MSTORE PUSH1 0x20 ADD PUSH1 0x1 DUP3 ADD SLOAD DUP2 MSTORE POP POP DUP2 MSTORE PUSH1 0x20 ADD SWAP1 PUSH1 0x1 ADD SWAP1 PUSH2 0x988 JUMP JUMPDEST POP POP POP POP SWAP1 POP SWAP1 JUMP JUMPDEST PUSH1 0x7 DUP3 DUP2 SLOAD DUP2 LT PUSH2 0xA99 JUMPI PUSH32 0x4E487B7100000000000000000000000000000000000000000000000000000000 PUSH1 0x0 MSTORE PUSH1 0x32 PUSH1 0x4 MSTORE PUSH1 0x24 PUSH1 0x0 REVERT JUMPDEST SWAP1 PUSH1 0x0 MSTORE PUSH1 0x20 PUSH1 0x0 KECCAK256 ADD PUSH1 0x0 SWAP1 SLOAD SWAP1 PUSH2 0x100 EXP SWAP1 DIV PUSH20 0xFFFFFFFFFFFFFFFFFFFFFFFFFFFFFFFFFFFFFFFF AND PUSH20 0xFFFFFFFFFFFFFFFFFFFFFFFFFFFFFFFFFFFFFFFF AND PUSH4 0x121B93F DUP3 PUSH1 0x40 MLOAD DUP3 PUSH4 0xFFFFFFFF AND PUSH1 0xE0 SHL DUP2 MSTORE PUSH1 0x4 ADD PUSH2 0xAFC SWAP2 SWAP1 PUSH2 0x1D64 JUMP JUMPDEST PUSH1 0x0 PUSH1 0x40 MLOAD DUP1 DUP4 SUB DUP2 PUSH1 0x0 DUP8 DUP1 EXTCODESIZE ISZERO DUP1 ISZERO PUSH2 0xB16 JUMPI PUSH1 0x0 DUP1 REVERT JUMPDEST POP GAS CALL ISZERO DUP1 ISZERO PUSH2 0xB2A JUMPI RETURNDATASIZE PUSH1 0x0 DUP1 RETURNDATACOPY RETURNDATASIZE PUSH1 0x0 REVERT JUMPDEST POP POP POP POP POP POP JUMP JUMPDEST PUSH1 0x7 DUP2 DUP2 SLOAD DUP2 LT PUSH2 0xB42 JUMPI PUSH1 0x0 DUP1 REVERT JUMPDEST SWAP1 PUSH1 0x0 MSTORE PUSH1 0x20 PUSH1 0x0 KECCAK256 ADD PUSH1 0x0 SWAP2 POP SLOAD SWAP1 PUSH2 0x100 EXP SWAP1 DIV PUSH20 0xFFFFFFFFFFFFFFFFFFFFFFFFFFFFFFFFFFFFFFFF AND DUP2 JUMP JUMPDEST DUP1 PUSH1 0x1 DUP2 SWAP1 SSTORE POP POP JUMP JUMPDEST PUSH1 0x7 DUP3 DUP2 SLOAD DUP2 LT PUSH2 0xBB5 JUMPI PUSH32 0x4E487B7100000000000000000000000000000000000000000000000000000000 PUSH1 0x0 MSTORE PUSH1 0x32 PUSH1 0x4 MSTORE PUSH1 0x24 PUSH1 0x0 REVERT JUMPDEST SWAP1 PUSH1 0x0 MSTORE PUSH1 0x20 PUSH1 0x0 KECCAK256 ADD PUSH1 0x0 SWAP1 SLOAD SWAP1 PUSH2 0x100 EXP SWAP1 DIV PUSH20 0xFFFFFFFFFFFFFFFFFFFFFFFFFFFFFFFFFFFFFFFF AND PUSH20 0xFFFFFFFFFFFFFFFFFFFFFFFFFFFFFFFFFFFFFFFF AND PUSH4 0x836BC692 DUP3 PUSH1 0x40 MLOAD DUP3 PUSH4 0xFFFFFFFF AND PUSH1 0xE0 SHL DUP2 MSTORE PUSH1 0x4 ADD PUSH2 0xC18 SWAP2 SWAP1 PUSH2 0x1C91 JUMP JUMPDEST PUSH1 0x0 PUSH1 0x40 MLOAD DUP1 DUP4 SUB DUP2 PUSH1 0x0 DUP8 DUP1 EXTCODESIZE ISZERO DUP1 ISZERO PUSH2 0xC32 JUMPI PUSH1 0x0 DUP1 REVERT JUMPDEST POP GAS CALL ISZERO DUP1 ISZERO PUSH2 0xC46 JUMPI RETURNDATASIZE PUSH1 0x0 DUP1 RETURNDATACOPY RETURNDATASIZE PUSH1 0x0 REVERT JUMPDEST POP POP POP POP POP POP JUMP JUMPDEST PUSH1 0x60 PUSH1 0x7 DUP3 DUP2 SLOAD DUP2 LT PUSH2 0xC8A JUMPI PUSH32 0x4E487B7100000000000000000000000000000000000000000000000000000000 PUSH1 0x0 MSTORE PUSH1 0x32 PUSH1 0x4 MSTORE PUSH1 0x24 PUSH1 0x0 REVERT JUMPDEST SWAP1 PUSH1 0x0 MSTORE PUSH1 0x20 PUSH1 0x0 KECCAK256 ADD PUSH1 0x0 SWAP1 SLOAD SWAP1 PUSH2 0x100 EXP SWAP1 DIV PUSH20 0xFFFFFFFFFFFFFFFFFFFFFFFFFFFFFFFFFFFFFFFF AND PUSH20 0xFFFFFFFFFFFFFFFFFFFFFFFFFFFFFFFFFFFFFFFF AND PUSH4 0xE2BA53F0 PUSH1 0x40 MLOAD DUP2 PUSH4 0xFFFFFFFF AND PUSH1 0xE0 SHL DUP2 MSTORE PUSH1 0x4 ADD PUSH1 0x0 PUSH1 0x40 MLOAD DUP1 DUP4 SUB DUP2 DUP7 DUP1 EXTCODESIZE ISZERO DUP1 ISZERO PUSH2 0xCFA JUMPI PUSH1 0x0 DUP1 REVERT JUMPDEST POP GAS STATICCALL ISZERO DUP1 ISZERO PUSH2 0xD0E JUMPI RETURNDATASIZE PUSH1 0x0 DUP1 RETURNDATACOPY RETURNDATASIZE PUSH1 0x0 REVERT JUMPDEST POP POP POP POP PUSH1 0x40 MLOAD RETURNDATASIZE PUSH1 0x0 DUP3 RETURNDATACOPY RETURNDATASIZE PUSH1 0x1F NOT PUSH1 0x1F DUP3 ADD AND DUP3 ADD DUP1 PUSH1 0x40 MSTORE POP DUP2 ADD SWAP1 PUSH2 0xD37 SWAP2 SWAP1 PUSH2 0x18CE JUMP JUMPDEST SWAP1 POP SWAP2 SWAP1 POP JUMP JUMPDEST PUSH1 0x0 PUSH1 0x2 SLOAD SWAP1 POP SWAP1 JUMP JUMPDEST PUSH1 0x0 DUP1 PUSH1 0x0 SWAP1 SLOAD SWAP1 PUSH2 0x100 EXP SWAP1 DIV PUSH20 0xFFFFFFFFFFFFFFFFFFFFFFFFFFFFFFFFFFFFFFFF AND SWAP1 POP SWAP1 JUMP JUMPDEST CALLER PUSH1 0x0 DUP1 PUSH2 0x100 EXP DUP2 SLOAD DUP2 PUSH20 0xFFFFFFFFFFFFFFFFFFFFFFFFFFFFFFFFFFFFFFFF MUL NOT AND SWAP1 DUP4 PUSH20 0xFFFFFFFFFFFFFFFFFFFFFFFFFFFFFFFFFFFFFFFF AND MUL OR SWAP1 SSTORE POP PUSH1 0x1 PUSH1 0x5 PUSH1 0x0 DUP1 PUSH1 0x0 SWAP1 SLOAD SWAP1 PUSH2 0x100 EXP SWAP1 DIV PUSH20 0xFFFFFFFFFFFFFFFFFFFFFFFFFFFFFFFFFFFFFFFF AND PUSH20 0xFFFFFFFFFFFFFFFFFFFFFFFFFFFFFFFFFFFFFFFF AND PUSH20 0xFFFFFFFFFFFFFFFFFFFFFFFFFFFFFFFFFFFFFFFF AND DUP2 MSTORE PUSH1 0x20 ADD SWAP1 DUP2 MSTORE PUSH1 0x20 ADD PUSH1 0x0 KECCAK256 PUSH1 0x0 ADD DUP2 SWAP1 SSTORE POP PUSH1 0x0 PUSH1 0x1 DUP2 SWAP1 SSTORE POP PUSH2 0xE2A PUSH2 0x15BD JUMP JUMPDEST DUP1 MLOAD PUSH1 0x4 DUP2 SWAP1 SSTORE POP PUSH1 0x0 JUMPDEST DUP2 MLOAD DUP2 LT ISZERO PUSH2 0xEFB JUMPI PUSH1 0x6 PUSH1 0x40 MLOAD DUP1 PUSH1 0x40 ADD PUSH1 0x40 MSTORE DUP1 DUP5 DUP5 DUP2 MLOAD DUP2 LT PUSH2 0xE84 JUMPI PUSH32 0x4E487B7100000000000000000000000000000000000000000000000000000000 PUSH1 0x0 MSTORE PUSH1 0x32 PUSH1 0x4 MSTORE PUSH1 0x24 PUSH1 0x0 REVERT JUMPDEST PUSH1 0x20 MUL PUSH1 0x20 ADD ADD MLOAD DUP2 MSTORE PUSH1 0x20 ADD PUSH1 0x0 DUP2 MSTORE POP SWAP1 DUP1 PUSH1 0x1 DUP2 SLOAD ADD DUP1 DUP3 SSTORE DUP1 SWAP2 POP POP PUSH1 0x1 SWAP1 SUB SWAP1 PUSH1 0x0 MSTORE PUSH1 0x20 PUSH1 0x0 KECCAK256 SWAP1 PUSH1 0x2 MUL ADD PUSH1 0x0 SWAP1 SWAP2 SWAP1 SWAP2 SWAP1 SWAP2 POP PUSH1 0x0 DUP3 ADD MLOAD DUP2 PUSH1 0x0 ADD SWAP1 DUP1 MLOAD SWAP1 PUSH1 0x20 ADD SWAP1 PUSH2 0xEDB SWAP3 SWAP2 SWAP1 PUSH2 0x15C6 JUMP JUMPDEST POP PUSH1 0x20 DUP3 ADD MLOAD DUP2 PUSH1 0x1 ADD SSTORE POP POP DUP1 DUP1 PUSH2 0xEF3 SWAP1 PUSH2 0x2026 JUMP JUMPDEST SWAP2 POP POP PUSH2 0xE35 JUMP JUMPDEST POP POP JUMP JUMPDEST TIMESTAMP PUSH1 0x3 DUP2 SWAP1 SSTORE POP JUMP JUMPDEST PUSH1 0x0 PUSH1 0x40 MLOAD PUSH2 0xF16 SWAP1 PUSH2 0x164C JUMP JUMPDEST PUSH1 0x40 MLOAD DUP1 SWAP2 SUB SWAP1 PUSH1 0x0 CREATE DUP1 ISZERO DUP1 ISZERO PUSH2 0xF32 JUMPI RETURNDATASIZE PUSH1 0x0 DUP1 RETURNDATACOPY RETURNDATASIZE PUSH1 0x0 REVERT JUMPDEST POP SWAP1 POP PUSH1 0x7 DUP2 SWAP1 DUP1 PUSH1 0x1 DUP2 SLOAD ADD DUP1 DUP3 SSTORE DUP1 SWAP2 POP POP PUSH1 0x1 SWAP1 SUB SWAP1 PUSH1 0x0 MSTORE PUSH1 0x20 PUSH1 0x0 KECCAK256 ADD PUSH1 0x0 SWAP1 SWAP2 SWAP1 SWAP2 SWAP1 SWAP2 PUSH2 0x100 EXP DUP2 SLOAD DUP2 PUSH20 0xFFFFFFFFFFFFFFFFFFFFFFFFFFFFFFFFFFFFFFFF MUL NOT AND SWAP1 DUP4 PUSH20 0xFFFFFFFFFFFFFFFFFFFFFFFFFFFFFFFFFFFFFFFF AND MUL OR SWAP1 SSTORE POP POP JUMP JUMPDEST PUSH1 0x0 DUP1 SLOAD SWAP1 PUSH2 0x100 EXP SWAP1 DIV PUSH20 0xFFFFFFFFFFFFFFFFFFFFFFFFFFFFFFFFFFFFFFFF AND PUSH20 0xFFFFFFFFFFFFFFFFFFFFFFFFFFFFFFFFFFFFFFFF AND CALLER PUSH20 0xFFFFFFFFFFFFFFFFFFFFFFFFFFFFFFFFFFFFFFFF AND EQ DUP1 ISZERO PUSH2 0x1043 JUMPI POP PUSH1 0x5 PUSH1 0x0 DUP3 PUSH20 0xFFFFFFFFFFFFFFFFFFFFFFFFFFFFFFFFFFFFFFFF AND PUSH20 0xFFFFFFFFFFFFFFFFFFFFFFFFFFFFFFFFFFFFFFFF AND DUP2 MSTORE PUSH1 0x20 ADD SWAP1 DUP2 MSTORE PUSH1 0x20 ADD PUSH1 0x0 KECCAK256 PUSH1 0x1 ADD PUSH1 0x0 SWAP1 SLOAD SWAP1 PUSH2 0x100 EXP SWAP1 DIV PUSH1 0xFF AND ISZERO JUMPDEST DUP1 ISZERO PUSH2 0x1091 JUMPI POP PUSH1 0x0 PUSH1 0x5 PUSH1 0x0 DUP4 PUSH20 0xFFFFFFFFFFFFFFFFFFFFFFFFFFFFFFFFFFFFFFFF AND PUSH20 0xFFFFFFFFFFFFFFFFFFFFFFFFFFFFFFFFFFFFFFFF AND DUP2 MSTORE PUSH1 0x20 ADD SWAP1 DUP2 MSTORE PUSH1 0x20 ADD PUSH1 0x0 KECCAK256 PUSH1 0x0 ADD SLOAD EQ JUMPDEST PUSH2 0x109A JUMPI PUSH1 0x0 DUP1 REVERT JUMPDEST PUSH1 0x1 PUSH1 0x5 PUSH1 0x0 DUP4 PUSH20 0xFFFFFFFFFFFFFFFFFFFFFFFFFFFFFFFFFFFFFFFF AND PUSH20 0xFFFFFFFFFFFFFFFFFFFFFFFFFFFFFFFFFFFFFFFF AND DUP2 MSTORE PUSH1 0x20 ADD SWAP1 DUP2 MSTORE PUSH1 0x20 ADD PUSH1 0x0 KECCAK256 PUSH1 0x0 ADD DUP2 SWAP1 SSTORE POP POP JUMP JUMPDEST PUSH1 0x5 PUSH1 0x20 MSTORE DUP1 PUSH1 0x0 MSTORE PUSH1 0x40 PUSH1 0x0 KECCAK256 PUSH1 0x0 SWAP2 POP SWAP1 POP DUP1 PUSH1 0x0 ADD SLOAD SWAP1 DUP1 PUSH1 0x1 ADD PUSH1 0x0 SWAP1 SLOAD SWAP1 PUSH2 0x100 EXP SWAP1 DIV PUSH1 0xFF AND SWAP1 DUP1 PUSH1 0x1 ADD PUSH1 0x1 SWAP1 SLOAD SWAP1 PUSH2 0x100 EXP SWAP1 DIV PUSH20 0xFFFFFFFFFFFFFFFFFFFFFFFFFFFFFFFFFFFFFFFF AND SWAP1 DUP1 PUSH1 0x2 ADD SLOAD SWAP1 POP DUP5 JUMP JUMPDEST PUSH1 0x0 PUSH1 0x3 SLOAD SWAP1 POP SWAP1 JUMP JUMPDEST PUSH1 0x7 DUP3 DUP2 SLOAD DUP2 LT PUSH2 0x1186 JUMPI PUSH32 0x4E487B7100000000000000000000000000000000000000000000000000000000 PUSH1 0x0 MSTORE PUSH1 0x32 PUSH1 0x4 MSTORE PUSH1 0x24 PUSH1 0x0 REVERT JUMPDEST SWAP1 PUSH1 0x0 MSTORE PUSH1 0x20 PUSH1 0x0 KECCAK256 ADD PUSH1 0x0 SWAP1 SLOAD SWAP1 PUSH2 0x100 EXP SWAP1 DIV PUSH20 0xFFFFFFFFFFFFFFFFFFFFFFFFFFFFFFFFFFFFFFFF AND PUSH20 0xFFFFFFFFFFFFFFFFFFFFFFFFFFFFFFFFFFFFFFFF AND PUSH4 0x69BA1A75 DUP3 PUSH1 0x40 MLOAD DUP3 PUSH4 0xFFFFFFFF AND PUSH1 0xE0 SHL DUP2 MSTORE PUSH1 0x4 ADD PUSH2 0x11E9 SWAP2 SWAP1 PUSH2 0x1D64 JUMP JUMPDEST PUSH1 0x0 PUSH1 0x40 MLOAD DUP1 DUP4 SUB DUP2 PUSH1 0x0 DUP8 DUP1 EXTCODESIZE ISZERO DUP1 ISZERO PUSH2 0x1203 JUMPI PUSH1 0x0 DUP1 REVERT JUMPDEST POP GAS CALL ISZERO DUP1 ISZERO PUSH2 0x1217 JUMPI RETURNDATASIZE PUSH1 0x0 DUP1 RETURNDATACOPY RETURNDATASIZE PUSH1 0x0 REVERT JUMPDEST POP POP POP POP POP POP JUMP JUMPDEST PUSH1 0x7 DUP3 DUP2 SLOAD DUP2 LT PUSH2 0x1259 JUMPI PUSH32 0x4E487B7100000000000000000000000000000000000000000000000000000000 PUSH1 0x0 MSTORE PUSH1 0x32 PUSH1 0x4 MSTORE PUSH1 0x24 PUSH1 0x0 REVERT JUMPDEST SWAP1 PUSH1 0x0 MSTORE PUSH1 0x20 PUSH1 0x0 KECCAK256 ADD PUSH1 0x0 SWAP1 SLOAD SWAP1 PUSH2 0x100 EXP SWAP1 DIV PUSH20 0xFFFFFFFFFFFFFFFFFFFFFFFFFFFFFFFFFFFFFFFF AND PUSH20 0xFFFFFFFFFFFFFFFFFFFFFFFFFFFFFFFFFFFFFFFF AND PUSH4 0x9E7B8D61 DUP3 PUSH1 0x40 MLOAD DUP3 PUSH4 0xFFFFFFFF AND PUSH1 0xE0 SHL DUP2 MSTORE PUSH1 0x4 ADD PUSH2 0x12BC SWAP2 SWAP1 PUSH2 0x1C76 JUMP JUMPDEST PUSH1 0x0 PUSH1 0x40 MLOAD DUP1 DUP4 SUB DUP2 PUSH1 0x0 DUP8 DUP1 EXTCODESIZE ISZERO DUP1 ISZERO PUSH2 0x12D6 JUMPI PUSH1 0x0 DUP1 REVERT JUMPDEST POP GAS CALL ISZERO DUP1 ISZERO PUSH2 0x12EA JUMPI RETURNDATASIZE PUSH1 0x0 DUP1 RETURNDATACOPY RETURNDATASIZE PUSH1 0x0 REVERT JUMPDEST POP POP POP POP POP POP JUMP JUMPDEST PUSH1 0x0 PUSH1 0x7 DUP3 DUP2 SLOAD DUP2 LT PUSH2 0x132E JUMPI PUSH32 0x4E487B7100000000000000000000000000000000000000000000000000000000 PUSH1 0x0 MSTORE PUSH1 0x32 PUSH1 0x4 MSTORE PUSH1 0x24 PUSH1 0x0 REVERT JUMPDEST SWAP1 PUSH1 0x0 MSTORE PUSH1 0x20 PUSH1 0x0 KECCAK256 ADD PUSH1 0x0 SWAP1 SLOAD SWAP1 PUSH2 0x100 EXP SWAP1 DIV PUSH20 0xFFFFFFFFFFFFFFFFFFFFFFFFFFFFFFFFFFFFFFFF AND PUSH20 0xFFFFFFFFFFFFFFFFFFFFFFFFFFFFFFFFFFFFFFFF AND PUSH4 0x609FF1BD PUSH1 0x40 MLOAD DUP2 PUSH4 0xFFFFFFFF AND PUSH1 0xE0 SHL DUP2 MSTORE PUSH1 0x4 ADD PUSH1 0x20 PUSH1 0x40 MLOAD DUP1 DUP4 SUB DUP2 DUP7 DUP1 EXTCODESIZE ISZERO DUP1 ISZERO PUSH2 0x139E JUMPI PUSH1 0x0 DUP1 REVERT JUMPDEST POP GAS STATICCALL ISZERO DUP1 ISZERO PUSH2 0x13B2 JUMPI RETURNDATASIZE PUSH1 0x0 DUP1 RETURNDATACOPY RETURNDATASIZE PUSH1 0x0 REVERT JUMPDEST POP POP POP POP PUSH1 0x40 MLOAD RETURNDATASIZE PUSH1 0x1F NOT PUSH1 0x1F DUP3 ADD AND DUP3 ADD DUP1 PUSH1 0x40 MSTORE POP DUP2 ADD SWAP1 PUSH2 0x13D6 SWAP2 SWAP1 PUSH2 0x1938 JUMP JUMPDEST SWAP1 POP SWAP2 SWAP1 POP JUMP JUMPDEST PUSH1 0x60 PUSH1 0x6 PUSH2 0x13E9 PUSH2 0x890 JUMP JUMPDEST DUP2 SLOAD DUP2 LT PUSH2 0x1420 JUMPI PUSH32 0x4E487B7100000000000000000000000000000000000000000000000000000000 PUSH1 0x0 MSTORE PUSH1 0x32 PUSH1 0x4 MSTORE PUSH1 0x24 PUSH1 0x0 REVERT JUMPDEST SWAP1 PUSH1 0x0 MSTORE PUSH1 0x20 PUSH1 0x0 KECCAK256 SWAP1 PUSH1 0x2 MUL ADD PUSH1 0x0 ADD DUP1 SLOAD PUSH2 0x143C SWAP1 PUSH2 0x1FF4 JUMP JUMPDEST DUP1 PUSH1 0x1F ADD PUSH1 0x20 DUP1 SWAP2 DIV MUL PUSH1 0x20 ADD PUSH1 0x40 MLOAD SWAP1 DUP2 ADD PUSH1 0x40 MSTORE DUP1 SWAP3 SWAP2 SWAP1 DUP2 DUP2 MSTORE PUSH1 0x20 ADD DUP3 DUP1 SLOAD PUSH2 0x1468 SWAP1 PUSH2 0x1FF4 JUMP JUMPDEST DUP1 ISZERO PUSH2 0x14B5 JUMPI DUP1 PUSH1 0x1F LT PUSH2 0x148A JUMPI PUSH2 0x100 DUP1 DUP4 SLOAD DIV MUL DUP4 MSTORE SWAP2 PUSH1 0x20 ADD SWAP2 PUSH2 0x14B5 JUMP JUMPDEST DUP3 ADD SWAP2 SWAP1 PUSH1 0x0 MSTORE PUSH1 0x20 PUSH1 0x0 KECCAK256 SWAP1 JUMPDEST DUP2 SLOAD DUP2 MSTORE SWAP1 PUSH1 0x1 ADD SWAP1 PUSH1 0x20 ADD DUP1 DUP4 GT PUSH2 0x1498 JUMPI DUP3 SWAP1 SUB PUSH1 0x1F AND DUP3 ADD SWAP2 JUMPDEST POP POP POP POP POP SWAP1 POP SWAP1 JUMP JUMPDEST PUSH2 0x14C7 PUSH2 0x1659 JUMP JUMPDEST PUSH1 0x6 DUP3 DUP2 SLOAD DUP2 LT PUSH2 0x1501 JUMPI PUSH32 0x4E487B7100000000000000000000000000000000000000000000000000000000 PUSH1 0x0 MSTORE PUSH1 0x32 PUSH1 0x4 MSTORE PUSH1 0x24 PUSH1 0x0 REVERT JUMPDEST SWAP1 PUSH1 0x0 MSTORE PUSH1 0x20 PUSH1 0x0 KECCAK256 SWAP1 PUSH1 0x2 MUL ADD PUSH1 0x40 MLOAD DUP1 PUSH1 0x40 ADD PUSH1 0x40 MSTORE SWAP1 DUP2 PUSH1 0x0 DUP3 ADD DUP1 SLOAD PUSH2 0x152A SWAP1 PUSH2 0x1FF4 JUMP JUMPDEST DUP1 PUSH1 0x1F ADD PUSH1 0x20 DUP1 SWAP2 DIV MUL PUSH1 0x20 ADD PUSH1 0x40 MLOAD SWAP1 DUP2 ADD PUSH1 0x40 MSTORE DUP1 SWAP3 SWAP2 SWAP1 DUP2 DUP2 MSTORE PUSH1 0x20 ADD DUP3 DUP1 SLOAD PUSH2 0x1556 SWAP1 PUSH2 0x1FF4 JUMP JUMPDEST DUP1 ISZERO PUSH2 0x15A3 JUMPI DUP1 PUSH1 0x1F LT PUSH2 0x1578 JUMPI PUSH2 0x100 DUP1 DUP4 SLOAD DIV MUL DUP4 MSTORE SWAP2 PUSH1 0x20 ADD SWAP2 PUSH2 0x15A3 JUMP JUMPDEST DUP3 ADD SWAP2 SWAP1 PUSH1 0x0 MSTORE PUSH1 0x20 PUSH1 0x0 KECCAK256 SWAP1 JUMPDEST DUP2 SLOAD DUP2 MSTORE SWAP1 PUSH1 0x1 ADD SWAP1 PUSH1 0x20 ADD DUP1 DUP4 GT PUSH2 0x1586 JUMPI DUP3 SWAP1 SUB PUSH1 0x1F AND DUP3 ADD SWAP2 JUMPDEST POP POP POP POP POP DUP2 MSTORE PUSH1 0x20 ADD PUSH1 0x1 DUP3 ADD SLOAD DUP2 MSTORE POP POP SWAP1 POP SWAP2 SWAP1 POP JUMP JUMPDEST TIMESTAMP PUSH1 0x2 DUP2 SWAP1 SSTORE POP JUMP JUMPDEST DUP3 DUP1 SLOAD PUSH2 0x15D2 SWAP1 PUSH2 0x1FF4 JUMP JUMPDEST SWAP1 PUSH1 0x0 MSTORE PUSH1 0x20 PUSH1 0x0 KECCAK256 SWAP1 PUSH1 0x1F ADD PUSH1 0x20 SWAP1 DIV DUP2 ADD SWAP3 DUP3 PUSH2 0x15F4 JUMPI PUSH1 0x0 DUP6 SSTORE PUSH2 0x163B JUMP JUMPDEST DUP3 PUSH1 0x1F LT PUSH2 0x160D JUMPI DUP1 MLOAD PUSH1 0xFF NOT AND DUP4 DUP1 ADD OR DUP6 SSTORE PUSH2 0x163B JUMP JUMPDEST DUP3 DUP1 ADD PUSH1 0x1 ADD DUP6 SSTORE DUP3 ISZERO PUSH2 0x163B JUMPI SWAP2 DUP3 ADD JUMPDEST DUP3 DUP2 GT ISZERO PUSH2 0x163A JUMPI DUP3 MLOAD DUP3 SSTORE SWAP2 PUSH1 0x20 ADD SWAP2 SWAP1 PUSH1 0x1 ADD SWAP1 PUSH2 0x161F JUMP JUMPDEST JUMPDEST POP SWAP1 POP PUSH2 0x1648 SWAP2 SWAP1 PUSH2 0x1673 JUMP JUMPDEST POP SWAP1 JUMP JUMPDEST PUSH2 0x149A DUP1 PUSH2 0x213C DUP4 CODECOPY ADD SWAP1 JUMP JUMPDEST PUSH1 0x40 MLOAD DUP1 PUSH1 0x40 ADD PUSH1 0x40 MSTORE DUP1 PUSH1 0x60 DUP2 MSTORE PUSH1 0x20 ADD PUSH1 0x0 DUP2 MSTORE POP SWAP1 JUMP JUMPDEST JUMPDEST DUP1 DUP3 GT ISZERO PUSH2 0x168C JUMPI PUSH1 0x0 DUP2 PUSH1 0x0 SWAP1 SSTORE POP PUSH1 0x1 ADD PUSH2 0x1674 JUMP JUMPDEST POP SWAP1 JUMP JUMPDEST PUSH1 0x0 PUSH2 0x16A3 PUSH2 0x169E DUP5 PUSH2 0x1DF5 JUMP JUMPDEST PUSH2 0x1DC4 JUMP JUMPDEST SWAP1 POP DUP1 DUP4 DUP3 MSTORE PUSH1 0x20 DUP3 ADD SWAP1 POP DUP3 PUSH1 0x0 JUMPDEST DUP6 DUP2 LT ISZERO PUSH2 0x16E3 JUMPI DUP2 CALLDATALOAD DUP6 ADD PUSH2 0x16C9 DUP9 DUP3 PUSH2 0x17BD JUMP JUMPDEST DUP5 MSTORE PUSH1 0x20 DUP5 ADD SWAP4 POP PUSH1 0x20 DUP4 ADD SWAP3 POP POP PUSH1 0x1 DUP2 ADD SWAP1 POP PUSH2 0x16B3 JUMP JUMPDEST POP POP POP SWAP4 SWAP3 POP POP POP JUMP JUMPDEST PUSH1 0x0 PUSH2 0x1700 PUSH2 0x16FB DUP5 PUSH2 0x1E21 JUMP JUMPDEST PUSH2 0x1DC4 JUMP JUMPDEST SWAP1 POP DUP3 DUP2 MSTORE PUSH1 0x20 DUP2 ADD DUP5 DUP5 DUP5 ADD GT ISZERO PUSH2 0x1718 JUMPI PUSH1 0x0 DUP1 REVERT JUMPDEST PUSH2 0x1723 DUP5 DUP3 DUP6 PUSH2 0x1FB2 JUMP JUMPDEST POP SWAP4 SWAP3 POP POP POP JUMP JUMPDEST PUSH1 0x0 PUSH2 0x173E PUSH2 0x1739 DUP5 PUSH2 0x1E21 JUMP JUMPDEST PUSH2 0x1DC4 JUMP JUMPDEST SWAP1 POP DUP3 DUP2 MSTORE PUSH1 0x20 DUP2 ADD DUP5 DUP5 DUP5 ADD GT ISZERO PUSH2 0x1756 JUMPI PUSH1 0x0 DUP1 REVERT JUMPDEST PUSH2 0x1761 DUP5 DUP3 DUP6 PUSH2 0x1FC1 JUMP JUMPDEST POP SWAP4 SWAP3 POP POP POP JUMP JUMPDEST PUSH1 0x0 DUP2 CALLDATALOAD SWAP1 POP PUSH2 0x1778 DUP2 PUSH2 0x210D JUMP JUMPDEST SWAP3 SWAP2 POP POP JUMP JUMPDEST PUSH1 0x0 DUP2 MLOAD SWAP1 POP PUSH2 0x178D DUP2 PUSH2 0x210D JUMP JUMPDEST SWAP3 SWAP2 POP POP JUMP JUMPDEST PUSH1 0x0 DUP3 PUSH1 0x1F DUP4 ADD SLT PUSH2 0x17A4 JUMPI PUSH1 0x0 DUP1 REVERT JUMPDEST DUP2 CALLDATALOAD PUSH2 0x17B4 DUP5 DUP3 PUSH1 0x20 DUP7 ADD PUSH2 0x1690 JUMP JUMPDEST SWAP2 POP POP SWAP3 SWAP2 POP POP JUMP JUMPDEST PUSH1 0x0 DUP3 PUSH1 0x1F DUP4 ADD SLT PUSH2 0x17CE JUMPI PUSH1 0x0 DUP1 REVERT JUMPDEST DUP2 CALLDATALOAD PUSH2 0x17DE DUP5 DUP3 PUSH1 0x20 DUP7 ADD PUSH2 0x16ED JUMP JUMPDEST SWAP2 POP POP SWAP3 SWAP2 POP POP JUMP JUMPDEST PUSH1 0x0 DUP3 PUSH1 0x1F DUP4 ADD SLT PUSH2 0x17F8 JUMPI PUSH1 0x0 DUP1 REVERT JUMPDEST DUP2 MLOAD PUSH2 0x1808 DUP5 DUP3 PUSH1 0x20 DUP7 ADD PUSH2 0x172B JUMP JUMPDEST SWAP2 POP POP SWAP3 SWAP2 POP POP JUMP JUMPDEST PUSH1 0x0 DUP2 CALLDATALOAD SWAP1 POP PUSH2 0x1820 DUP2 PUSH2 0x2124 JUMP JUMPDEST SWAP3 SWAP2 POP POP JUMP JUMPDEST PUSH1 0x0 DUP2 MLOAD SWAP1 POP PUSH2 0x1835 DUP2 PUSH2 0x2124 JUMP JUMPDEST SWAP3 SWAP2 POP POP JUMP JUMPDEST PUSH1 0x0 PUSH1 0x20 DUP3 DUP5 SUB SLT ISZERO PUSH2 0x184D JUMPI PUSH1 0x0 DUP1 REVERT JUMPDEST PUSH1 0x0 PUSH2 0x185B DUP5 DUP3 DUP6 ADD PUSH2 0x1769 JUMP JUMPDEST SWAP2 POP POP SWAP3 SWAP2 POP POP JUMP JUMPDEST PUSH1 0x0 PUSH1 0x20 DUP3 DUP5 SUB SLT ISZERO PUSH2 0x1876 JUMPI PUSH1 0x0 DUP1 REVERT JUMPDEST PUSH1 0x0 PUSH2 0x1884 DUP5 DUP3 DUP6 ADD PUSH2 0x177E JUMP JUMPDEST SWAP2 POP POP SWAP3 SWAP2 POP POP JUMP JUMPDEST PUSH1 0x0 PUSH1 0x20 DUP3 DUP5 SUB SLT ISZERO PUSH2 0x189F JUMPI PUSH1 0x0 DUP1 REVERT JUMPDEST PUSH1 0x0 DUP3 ADD CALLDATALOAD PUSH8 0xFFFFFFFFFFFFFFFF DUP2 GT ISZERO PUSH2 0x18B9 JUMPI PUSH1 0x0 DUP1 REVERT JUMPDEST PUSH2 0x18C5 DUP5 DUP3 DUP6 ADD PUSH2 0x1793 JUMP JUMPDEST SWAP2 POP POP SWAP3 SWAP2 POP POP JUMP JUMPDEST PUSH1 0x0 PUSH1 0x20 DUP3 DUP5 SUB SLT ISZERO PUSH2 0x18E0 JUMPI PUSH1 0x0 DUP1 REVERT JUMPDEST PUSH1 0x0 DUP3 ADD MLOAD PUSH8 0xFFFFFFFFFFFFFFFF DUP2 GT ISZERO PUSH2 0x18FA JUMPI PUSH1 0x0 DUP1 REVERT JUMPDEST PUSH2 0x1906 DUP5 DUP3 DUP6 ADD PUSH2 0x17E7 JUMP JUMPDEST SWAP2 POP POP SWAP3 SWAP2 POP POP JUMP JUMPDEST PUSH1 0x0 PUSH1 0x20 DUP3 DUP5 SUB SLT ISZERO PUSH2 0x1921 JUMPI PUSH1 0x0 DUP1 REVERT JUMPDEST PUSH1 0x0 PUSH2 0x192F DUP5 DUP3 DUP6 ADD PUSH2 0x1811 JUMP JUMPDEST SWAP2 POP POP SWAP3 SWAP2 POP POP JUMP JUMPDEST PUSH1 0x0 PUSH1 0x20 DUP3 DUP5 SUB SLT ISZERO PUSH2 0x194A JUMPI PUSH1 0x0 DUP1 REVERT JUMPDEST PUSH1 0x0 PUSH2 0x1958 DUP5 DUP3 DUP6 ADD PUSH2 0x1826 JUMP JUMPDEST SWAP2 POP POP SWAP3 SWAP2 POP POP JUMP JUMPDEST PUSH1 0x0 DUP1 PUSH1 0x40 DUP4 DUP6 SUB SLT ISZERO PUSH2 0x1974 JUMPI PUSH1 0x0 DUP1 REVERT JUMPDEST PUSH1 0x0 PUSH2 0x1982 DUP6 DUP3 DUP7 ADD PUSH2 0x1811 JUMP JUMPDEST SWAP3 POP POP PUSH1 0x20 PUSH2 0x1993 DUP6 DUP3 DUP7 ADD PUSH2 0x1769 JUMP JUMPDEST SWAP2 POP POP SWAP3 POP SWAP3 SWAP1 POP JUMP JUMPDEST PUSH1 0x0 DUP1 PUSH1 0x40 DUP4 DUP6 SUB SLT ISZERO PUSH2 0x19B0 JUMPI PUSH1 0x0 DUP1 REVERT JUMPDEST PUSH1 0x0 PUSH2 0x19BE DUP6 DUP3 DUP7 ADD PUSH2 0x1811 JUMP JUMPDEST SWAP3 POP POP PUSH1 0x20 DUP4 ADD CALLDATALOAD PUSH8 0xFFFFFFFFFFFFFFFF DUP2 GT ISZERO PUSH2 0x19DB JUMPI PUSH1 0x0 DUP1 REVERT JUMPDEST PUSH2 0x19E7 DUP6 DUP3 DUP7 ADD PUSH2 0x1793 JUMP JUMPDEST SWAP2 POP POP SWAP3 POP SWAP3 SWAP1 POP JUMP JUMPDEST PUSH1 0x0 DUP1 PUSH1 0x40 DUP4 DUP6 SUB SLT ISZERO PUSH2 0x1A04 JUMPI PUSH1 0x0 DUP1 REVERT JUMPDEST PUSH1 0x0 PUSH2 0x1A12 DUP6 DUP3 DUP7 ADD PUSH2 0x1811 JUMP JUMPDEST SWAP3 POP POP PUSH1 0x20 PUSH2 0x1A23 DUP6 DUP3 DUP7 ADD PUSH2 0x1811 JUMP JUMPDEST SWAP2 POP POP SWAP3 POP SWAP3 SWAP1 POP JUMP JUMPDEST PUSH1 0x0 PUSH2 0x1A39 DUP4 DUP4 PUSH2 0x1B6C JUMP JUMPDEST SWAP1 POP SWAP3 SWAP2 POP POP JUMP JUMPDEST PUSH1 0x0 PUSH2 0x1A4D DUP4 DUP4 PUSH2 0x1BDE JUMP JUMPDEST SWAP1 POP SWAP3 SWAP2 POP POP JUMP JUMPDEST PUSH2 0x1A5E DUP2 PUSH2 0x1F46 JUMP JUMPDEST DUP3 MSTORE POP POP JUMP JUMPDEST PUSH1 0x0 PUSH2 0x1A6F DUP3 PUSH2 0x1E71 JUMP JUMPDEST PUSH2 0x1A79 DUP2 DUP6 PUSH2 0x1EAC JUMP JUMPDEST SWAP4 POP DUP4 PUSH1 0x20 DUP3 MUL DUP6 ADD PUSH2 0x1A8B DUP6 PUSH2 0x1E51 JUMP JUMPDEST DUP1 PUSH1 0x0 JUMPDEST DUP6 DUP2 LT ISZERO PUSH2 0x1AC7 JUMPI DUP5 DUP5 SUB DUP10 MSTORE DUP2 MLOAD PUSH2 0x1AA8 DUP6 DUP3 PUSH2 0x1A2D JUMP JUMPDEST SWAP5 POP PUSH2 0x1AB3 DUP4 PUSH2 0x1E92 JUMP JUMPDEST SWAP3 POP PUSH1 0x20 DUP11 ADD SWAP10 POP POP PUSH1 0x1 DUP2 ADD SWAP1 POP PUSH2 0x1A8F JUMP JUMPDEST POP DUP3 SWAP8 POP DUP8 SWAP6 POP POP POP POP POP POP SWAP3 SWAP2 POP POP JUMP JUMPDEST PUSH1 0x0 PUSH2 0x1AE4 DUP3 PUSH2 0x1E7C JUMP JUMPDEST PUSH2 0x1AEE DUP2 DUP6 PUSH2 0x1EBD JUMP JUMPDEST SWAP4 POP DUP4 PUSH1 0x20 DUP3 MUL DUP6 ADD PUSH2 0x1B00 DUP6 PUSH2 0x1E61 JUMP JUMPDEST DUP1 PUSH1 0x0 JUMPDEST DUP6 DUP2 LT ISZERO PUSH2 0x1B3C JUMPI DUP5 DUP5 SUB DUP10 MSTORE DUP2 MLOAD PUSH2 0x1B1D DUP6 DUP3 PUSH2 0x1A41 JUMP JUMPDEST SWAP5 POP PUSH2 0x1B28 DUP4 PUSH2 0x1E9F JUMP JUMPDEST SWAP3 POP PUSH1 0x20 DUP11 ADD SWAP10 POP POP PUSH1 0x1 DUP2 ADD SWAP1 POP PUSH2 0x1B04 JUMP JUMPDEST POP DUP3 SWAP8 POP DUP8 SWAP6 POP POP POP POP POP POP SWAP3 SWAP2 POP POP JUMP JUMPDEST PUSH2 0x1B57 DUP2 PUSH2 0x1F58 JUMP JUMPDEST DUP3 MSTORE POP POP JUMP JUMPDEST PUSH2 0x1B66 DUP2 PUSH2 0x1F8E JUMP JUMPDEST DUP3 MSTORE POP POP JUMP JUMPDEST PUSH1 0x0 PUSH2 0x1B77 DUP3 PUSH2 0x1E87 JUMP JUMPDEST PUSH2 0x1B81 DUP2 DUP6 PUSH2 0x1ECE JUMP JUMPDEST SWAP4 POP PUSH2 0x1B91 DUP2 DUP6 PUSH1 0x20 DUP7 ADD PUSH2 0x1FC1 JUMP JUMPDEST PUSH2 0x1B9A DUP2 PUSH2 0x20FC JUMP JUMPDEST DUP5 ADD SWAP2 POP POP SWAP3 SWAP2 POP POP JUMP JUMPDEST PUSH1 0x0 PUSH2 0x1BB0 DUP3 PUSH2 0x1E87 JUMP JUMPDEST PUSH2 0x1BBA DUP2 DUP6 PUSH2 0x1EDF JUMP JUMPDEST SWAP4 POP PUSH2 0x1BCA DUP2 DUP6 PUSH1 0x20 DUP7 ADD PUSH2 0x1FC1 JUMP JUMPDEST PUSH2 0x1BD3 DUP2 PUSH2 0x20FC JUMP JUMPDEST DUP5 ADD SWAP2 POP POP SWAP3 SWAP2 POP POP JUMP JUMPDEST PUSH1 0x0 PUSH1 0x40 DUP4 ADD PUSH1 0x0 DUP4 ADD MLOAD DUP5 DUP3 SUB PUSH1 0x0 DUP7 ADD MSTORE PUSH2 0x1BFB DUP3 DUP3 PUSH2 0x1B6C JUMP JUMPDEST SWAP2 POP POP PUSH1 0x20 DUP4 ADD MLOAD PUSH2 0x1C10 PUSH1 0x20 DUP7 ADD DUP3 PUSH2 0x1C58 JUMP JUMPDEST POP DUP1 SWAP2 POP POP SWAP3 SWAP2 POP POP JUMP JUMPDEST PUSH1 0x0 PUSH1 0x40 DUP4 ADD PUSH1 0x0 DUP4 ADD MLOAD DUP5 DUP3 SUB PUSH1 0x0 DUP7 ADD MSTORE PUSH2 0x1C38 DUP3 DUP3 PUSH2 0x1B6C JUMP JUMPDEST SWAP2 POP POP PUSH1 0x20 DUP4 ADD MLOAD PUSH2 0x1C4D PUSH1 0x20 DUP7 ADD DUP3 PUSH2 0x1C58 JUMP JUMPDEST POP DUP1 SWAP2 POP POP SWAP3 SWAP2 POP POP JUMP JUMPDEST PUSH2 0x1C61 DUP2 PUSH2 0x1F84 JUMP JUMPDEST DUP3 MSTORE POP POP JUMP JUMPDEST PUSH2 0x1C70 DUP2 PUSH2 0x1F84 JUMP JUMPDEST DUP3 MSTORE POP POP JUMP JUMPDEST PUSH1 0x0 PUSH1 0x20 DUP3 ADD SWAP1 POP PUSH2 0x1C8B PUSH1 0x0 DUP4 ADD DUP5 PUSH2 0x1A55 JUMP JUMPDEST SWAP3 SWAP2 POP POP JUMP JUMPDEST PUSH1 0x0 PUSH1 0x20 DUP3 ADD SWAP1 POP DUP2 DUP2 SUB PUSH1 0x0 DUP4 ADD MSTORE PUSH2 0x1CAB DUP2 DUP5 PUSH2 0x1A64 JUMP JUMPDEST SWAP1 POP SWAP3 SWAP2 POP POP JUMP JUMPDEST PUSH1 0x0 PUSH1 0x20 DUP3 ADD SWAP1 POP DUP2 DUP2 SUB PUSH1 0x0 DUP4 ADD MSTORE PUSH2 0x1CCD DUP2 DUP5 PUSH2 0x1AD9 JUMP JUMPDEST SWAP1 POP SWAP3 SWAP2 POP POP JUMP JUMPDEST PUSH1 0x0 PUSH1 0x20 DUP3 ADD SWAP1 POP PUSH2 0x1CEA PUSH1 0x0 DUP4 ADD DUP5 PUSH2 0x1B5D JUMP JUMPDEST SWAP3 SWAP2 POP POP JUMP JUMPDEST PUSH1 0x0 PUSH1 0x20 DUP3 ADD SWAP1 POP DUP2 DUP2 SUB PUSH1 0x0 DUP4 ADD MSTORE PUSH2 0x1D0A DUP2 DUP5 PUSH2 0x1BA5 JUMP JUMPDEST SWAP1 POP SWAP3 SWAP2 POP POP JUMP JUMPDEST PUSH1 0x0 PUSH1 0x40 DUP3 ADD SWAP1 POP DUP2 DUP2 SUB PUSH1 0x0 DUP4 ADD MSTORE PUSH2 0x1D2C DUP2 DUP6 PUSH2 0x1BA5 JUMP JUMPDEST SWAP1 POP PUSH2 0x1D3B PUSH1 0x20 DUP4 ADD DUP5 PUSH2 0x1C67 JUMP JUMPDEST SWAP4 SWAP3 POP POP POP JUMP JUMPDEST PUSH1 0x0 PUSH1 0x20 DUP3 ADD SWAP1 POP DUP2 DUP2 SUB PUSH1 0x0 DUP4 ADD MSTORE PUSH2 0x1D5C DUP2 DUP5 PUSH2 0x1C1B JUMP JUMPDEST SWAP1 POP SWAP3 SWAP2 POP POP JUMP JUMPDEST PUSH1 0x0 PUSH1 0x20 DUP3 ADD SWAP1 POP PUSH2 0x1D79 PUSH1 0x0 DUP4 ADD DUP5 PUSH2 0x1C67 JUMP JUMPDEST SWAP3 SWAP2 POP POP JUMP JUMPDEST PUSH1 0x0 PUSH1 0x80 DUP3 ADD SWAP1 POP PUSH2 0x1D94 PUSH1 0x0 DUP4 ADD DUP8 PUSH2 0x1C67 JUMP JUMPDEST PUSH2 0x1DA1 PUSH1 0x20 DUP4 ADD DUP7 PUSH2 0x1B4E JUMP JUMPDEST PUSH2 0x1DAE PUSH1 0x40 DUP4 ADD DUP6 PUSH2 0x1A55 JUMP JUMPDEST PUSH2 0x1DBB PUSH1 0x60 DUP4 ADD DUP5 PUSH2 0x1C67 JUMP JUMPDEST SWAP6 SWAP5 POP POP POP POP POP JUMP JUMPDEST PUSH1 0x0 PUSH1 0x40 MLOAD SWAP1 POP DUP2 DUP2 ADD DUP2 DUP2 LT PUSH8 0xFFFFFFFFFFFFFFFF DUP3 GT OR ISZERO PUSH2 0x1DEB JUMPI PUSH2 0x1DEA PUSH2 0x20CD JUMP JUMPDEST JUMPDEST DUP1 PUSH1 0x40 MSTORE POP SWAP2 SWAP1 POP JUMP JUMPDEST PUSH1 0x0 PUSH8 0xFFFFFFFFFFFFFFFF DUP3 GT ISZERO PUSH2 0x1E10 JUMPI PUSH2 0x1E0F PUSH2 0x20CD JUMP JUMPDEST JUMPDEST PUSH1 0x20 DUP3 MUL SWAP1 POP PUSH1 0x20 DUP2 ADD SWAP1 POP SWAP2 SWAP1 POP JUMP JUMPDEST PUSH1 0x0 PUSH8 0xFFFFFFFFFFFFFFFF DUP3 GT ISZERO PUSH2 0x1E3C JUMPI PUSH2 0x1E3B PUSH2 0x20CD JUMP JUMPDEST JUMPDEST PUSH1 0x1F NOT PUSH1 0x1F DUP4 ADD AND SWAP1 POP PUSH1 0x20 DUP2 ADD SWAP1 POP SWAP2 SWAP1 POP JUMP JUMPDEST PUSH1 0x0 DUP2 SWAP1 POP PUSH1 0x20 DUP3 ADD SWAP1 POP SWAP2 SWAP1 POP JUMP JUMPDEST PUSH1 0x0 DUP2 SWAP1 POP PUSH1 0x20 DUP3 ADD SWAP1 POP SWAP2 SWAP1 POP JUMP JUMPDEST PUSH1 0x0 DUP2 MLOAD SWAP1 POP SWAP2 SWAP1 POP JUMP JUMPDEST PUSH1 0x0 DUP2 MLOAD SWAP1 POP SWAP2 SWAP1 POP JUMP JUMPDEST PUSH1 0x0 DUP2 MLOAD SWAP1 POP SWAP2 SWAP1 POP JUMP JUMPDEST PUSH1 0x0 PUSH1 0x20 DUP3 ADD SWAP1 POP SWAP2 SWAP1 POP JUMP JUMPDEST PUSH1 0x0 PUSH1 0x20 DUP3 ADD SWAP1 POP SWAP2 SWAP1 POP JUMP JUMPDEST PUSH1 0x0 DUP3 DUP3 MSTORE PUSH1 0x20 DUP3 ADD SWAP1 POP SWAP3 SWAP2 POP POP JUMP JUMPDEST PUSH1 0x0 DUP3 DUP3 MSTORE PUSH1 0x20 DUP3 ADD SWAP1 POP SWAP3 SWAP2 POP POP JUMP JUMPDEST PUSH1 0x0 DUP3 DUP3 MSTORE PUSH1 0x20 DUP3 ADD SWAP1 POP SWAP3 SWAP2 POP POP JUMP JUMPDEST PUSH1 0x0 DUP3 DUP3 MSTORE PUSH1 0x20 DUP3 ADD SWAP1 POP SWAP3 SWAP2 POP POP JUMP JUMPDEST PUSH1 0x0 PUSH2 0x1EFB DUP3 PUSH2 0x1F84 JUMP JUMPDEST SWAP2 POP PUSH2 0x1F06 DUP4 PUSH2 0x1F84 JUMP JUMPDEST SWAP3 POP DUP3 PUSH32 0xFFFFFFFFFFFFFFFFFFFFFFFFFFFFFFFFFFFFFFFFFFFFFFFFFFFFFFFFFFFFFFFF SUB DUP3 GT ISZERO PUSH2 0x1F3B JUMPI PUSH2 0x1F3A PUSH2 0x206F JUMP JUMPDEST JUMPDEST DUP3 DUP3 ADD SWAP1 POP SWAP3 SWAP2 POP POP JUMP JUMPDEST PUSH1 0x0 PUSH2 0x1F51 DUP3 PUSH2 0x1F64 JUMP JUMPDEST SWAP1 POP SWAP2 SWAP1 POP JUMP JUMPDEST PUSH1 0x0 DUP2 ISZERO ISZERO SWAP1 POP SWAP2 SWAP1 POP JUMP JUMPDEST PUSH1 0x0 PUSH20 0xFFFFFFFFFFFFFFFFFFFFFFFFFFFFFFFFFFFFFFFF DUP3 AND SWAP1 POP SWAP2 SWAP1 POP JUMP JUMPDEST PUSH1 0x0 DUP2 SWAP1 POP SWAP2 SWAP1 POP JUMP JUMPDEST PUSH1 0x0 PUSH2 0x1F99 DUP3 PUSH2 0x1FA0 JUMP JUMPDEST SWAP1 POP SWAP2 SWAP1 POP JUMP JUMPDEST PUSH1 0x0 PUSH2 0x1FAB DUP3 PUSH2 0x1F64 JUMP JUMPDEST SWAP1 POP SWAP2 SWAP1 POP JUMP JUMPDEST DUP3 DUP2 DUP4 CALLDATACOPY PUSH1 0x0 DUP4 DUP4 ADD MSTORE POP POP POP JUMP JUMPDEST PUSH1 0x0 JUMPDEST DUP4 DUP2 LT ISZERO PUSH2 0x1FDF JUMPI DUP1 DUP3 ADD MLOAD DUP2 DUP5 ADD MSTORE PUSH1 0x20 DUP2 ADD SWAP1 POP PUSH2 0x1FC4 JUMP JUMPDEST DUP4 DUP2 GT ISZERO PUSH2 0x1FEE JUMPI PUSH1 0x0 DUP5 DUP5 ADD MSTORE JUMPDEST POP POP POP POP JUMP JUMPDEST PUSH1 0x0 PUSH1 0x2 DUP3 DIV SWAP1 POP PUSH1 0x1 DUP3 AND DUP1 PUSH2 0x200C JUMPI PUSH1 0x7F DUP3 AND SWAP2 POP JUMPDEST PUSH1 0x20 DUP3 LT DUP2 EQ ISZERO PUSH2 0x2020 JUMPI PUSH2 0x201F PUSH2 0x209E JUMP JUMPDEST JUMPDEST POP SWAP2 SWAP1 POP JUMP JUMPDEST PUSH1 0x0 PUSH2 0x2031 DUP3 PUSH2 0x1F84 JUMP JUMPDEST SWAP2 POP PUSH32 0xFFFFFFFFFFFFFFFFFFFFFFFFFFFFFFFFFFFFFFFFFFFFFFFFFFFFFFFFFFFFFFFF DUP3 EQ ISZERO PUSH2 0x2064 JUMPI PUSH2 0x2063 PUSH2 0x206F JUMP JUMPDEST JUMPDEST PUSH1 0x1 DUP3 ADD SWAP1 POP SWAP2 SWAP1 POP JUMP JUMPDEST PUSH32 0x4E487B7100000000000000000000000000000000000000000000000000000000 PUSH1 0x0 MSTORE PUSH1 0x11 PUSH1 0x4 MSTORE PUSH1 0x24 PUSH1 0x0 REVERT JUMPDEST PUSH32 0x4E487B7100000000000000000000000000000000000000000000000000000000 PUSH1 0x0 MSTORE PUSH1 0x22 PUSH1 0x4 MSTORE PUSH1 0x24 PUSH1 0x0 REVERT JUMPDEST PUSH32 0x4E487B7100000000000000000000000000000000000000000000000000000000 PUSH1 0x0 MSTORE PUSH1 0x41 PUSH1 0x4 MSTORE PUSH1 0x24 PUSH1 0x0 REVERT JUMPDEST PUSH1 0x0 PUSH1 0x1F NOT PUSH1 0x1F DUP4 ADD AND SWAP1 POP SWAP2 SWAP1 POP JUMP JUMPDEST PUSH2 0x2116 DUP2 PUSH2 0x1F46 JUMP JUMPDEST DUP2 EQ PUSH2 0x2121 JUMPI PUSH1 0x0 DUP1 REVERT JUMPDEST POP JUMP JUMPDEST PUSH2 0x212D DUP2 PUSH2 0x1F84 JUMP JUMPDEST DUP2 EQ PUSH2 0x2138 JUMPI PUSH1 0x0 DUP1 REVERT JUMPDEST POP JUMP INVALID PUSH1 0x80 PUSH1 0x40 MSTORE CALLVALUE DUP1 ISZERO PUSH2 0x10 JUMPI PUSH1 0x0 DUP1 REVERT JUMPDEST POP PUSH2 0x147A DUP1 PUSH2 0x20 PUSH1 0x0 CODECOPY PUSH1 0x0 RETURN INVALID PUSH1 0x80 PUSH1 0x40 MSTORE CALLVALUE DUP1 ISZERO PUSH2 0x10 JUMPI PUSH1 0x0 DUP1 REVERT JUMPDEST POP PUSH1 0x4 CALLDATASIZE LT PUSH2 0x100 JUMPI PUSH1 0x0 CALLDATALOAD PUSH1 0xE0 SHR DUP1 PUSH4 0x7A16FCB0 GT PUSH2 0x97 JUMPI DUP1 PUSH4 0xA3EC138D GT PUSH2 0x66 JUMPI DUP1 PUSH4 0xA3EC138D EQ PUSH2 0x264 JUMPI DUP1 PUSH4 0xB1356488 EQ PUSH2 0x297 JUMPI DUP1 PUSH4 0xE2BA53F0 EQ PUSH2 0x2B5 JUMPI DUP1 PUSH4 0xE9D6C6DA EQ PUSH2 0x2D3 JUMPI PUSH2 0x100 JUMP JUMPDEST DUP1 PUSH4 0x7A16FCB0 EQ PUSH2 0x204 JUMPI DUP1 PUSH4 0x836BC692 EQ PUSH2 0x222 JUMPI DUP1 PUSH4 0x86278E77 EQ PUSH2 0x23E JUMPI DUP1 PUSH4 0x9E7B8D61 EQ PUSH2 0x248 JUMPI PUSH2 0x100 JUMP JUMPDEST DUP1 PUSH4 0x609FF1BD GT PUSH2 0xD3 JUMPI DUP1 PUSH4 0x609FF1BD EQ PUSH2 0x18E JUMPI DUP1 PUSH4 0x62564C48 EQ PUSH2 0x1AC JUMPI DUP1 PUSH4 0x69BA1A75 EQ PUSH2 0x1CA JUMPI DUP1 PUSH4 0x78F305C6 EQ PUSH2 0x1E6 JUMPI PUSH2 0x100 JUMP JUMPDEST DUP1 PUSH4 0x121B93F EQ PUSH2 0x105 JUMPI DUP1 PUSH4 0x13CF08B EQ PUSH2 0x121 JUMPI DUP1 PUSH4 0xA82DCB1 EQ PUSH2 0x152 JUMPI DUP1 PUSH4 0x4E69D560 EQ PUSH2 0x170 JUMPI JUMPDEST PUSH1 0x0 DUP1 REVERT JUMPDEST PUSH2 0x11F PUSH1 0x4 DUP1 CALLDATASIZE SUB DUP2 ADD SWAP1 PUSH2 0x11A SWAP2 SWAP1 PUSH2 0xE3F JUMP JUMPDEST PUSH2 0x303 JUMP JUMPDEST STOP JUMPDEST PUSH2 0x13B PUSH1 0x4 DUP1 CALLDATASIZE SUB DUP2 ADD SWAP1 PUSH2 0x136 SWAP2 SWAP1 PUSH2 0xE3F JUMP JUMPDEST PUSH2 0x3F2 JUMP JUMPDEST PUSH1 0x40 MLOAD PUSH2 0x149 SWAP3 SWAP2 SWAP1 PUSH2 0x1078 JUMP JUMPDEST PUSH1 0x40 MLOAD DUP1 SWAP2 SUB SWAP1 RETURN JUMPDEST PUSH2 0x15A PUSH2 0x4AE JUMP JUMPDEST PUSH1 0x40 MLOAD PUSH2 0x167 SWAP2 SWAP1 PUSH2 0x10CA JUMP JUMPDEST PUSH1 0x40 MLOAD DUP1 SWAP2 SUB SWAP1 RETURN JUMPDEST PUSH2 0x178 PUSH2 0x4B8 JUMP JUMPDEST PUSH1 0x40 MLOAD PUSH2 0x185 SWAP2 SWAP1 PUSH2 0x10CA JUMP JUMPDEST PUSH1 0x40 MLOAD DUP1 SWAP2 SUB SWAP1 RETURN JUMPDEST PUSH2 0x196 PUSH2 0x4C2 JUMP JUMPDEST PUSH1 0x40 MLOAD PUSH2 0x1A3 SWAP2 SWAP1 PUSH2 0x10CA JUMP JUMPDEST PUSH1 0x40 MLOAD DUP1 SWAP2 SUB SWAP1 RETURN JUMPDEST PUSH2 0x1B4 PUSH2 0x596 JUMP JUMPDEST PUSH1 0x40 MLOAD PUSH2 0x1C1 SWAP2 SWAP1 PUSH2 0x1034 JUMP JUMPDEST PUSH1 0x40 MLOAD DUP1 SWAP2 SUB SWAP1 RETURN JUMPDEST PUSH2 0x1E4 PUSH1 0x4 DUP1 CALLDATASIZE SUB DUP2 ADD SWAP1 PUSH2 0x1DF SWAP2 SWAP1 PUSH2 0xE3F JUMP JUMPDEST PUSH2 0x691 JUMP JUMPDEST STOP JUMPDEST PUSH2 0x1EE PUSH2 0x69B JUMP JUMPDEST PUSH1 0x40 MLOAD PUSH2 0x1FB SWAP2 SWAP1 PUSH2 0x10CA JUMP JUMPDEST PUSH1 0x40 MLOAD DUP1 SWAP2 SUB SWAP1 RETURN JUMPDEST PUSH2 0x20C PUSH2 0x6A5 JUMP JUMPDEST PUSH1 0x40 MLOAD PUSH2 0x219 SWAP2 SWAP1 PUSH2 0x1019 JUMP JUMPDEST PUSH1 0x40 MLOAD DUP1 SWAP2 SUB SWAP1 RETURN JUMPDEST PUSH2 0x23C PUSH1 0x4 DUP1 CALLDATASIZE SUB DUP2 ADD SWAP1 PUSH2 0x237 SWAP2 SWAP1 PUSH2 0xDFE JUMP JUMPDEST PUSH2 0x6CE JUMP JUMPDEST STOP JUMPDEST PUSH2 0x246 PUSH2 0x85C JUMP JUMPDEST STOP JUMPDEST PUSH2 0x262 PUSH1 0x4 DUP1 CALLDATASIZE SUB DUP2 ADD SWAP1 PUSH2 0x25D SWAP2 SWAP1 PUSH2 0xDD5 JUMP JUMPDEST PUSH2 0x865 JUMP JUMPDEST STOP JUMPDEST PUSH2 0x27E PUSH1 0x4 DUP1 CALLDATASIZE SUB DUP2 ADD SWAP1 PUSH2 0x279 SWAP2 SWAP1 PUSH2 0xDD5 JUMP JUMPDEST PUSH2 0x9AF JUMP JUMPDEST PUSH1 0x40 MLOAD PUSH2 0x28E SWAP5 SWAP4 SWAP3 SWAP2 SWAP1 PUSH2 0x10E5 JUMP JUMPDEST PUSH1 0x40 MLOAD DUP1 SWAP2 SUB SWAP1 RETURN JUMPDEST PUSH2 0x29F PUSH2 0xA0C JUMP JUMPDEST PUSH1 0x40 MLOAD PUSH2 0x2AC SWAP2 SWAP1 PUSH2 0x10CA JUMP JUMPDEST PUSH1 0x40 MLOAD DUP1 SWAP2 SUB SWAP1 RETURN JUMPDEST PUSH2 0x2BD PUSH2 0xA16 JUMP JUMPDEST PUSH1 0x40 MLOAD PUSH2 0x2CA SWAP2 SWAP1 PUSH2 0x1056 JUMP JUMPDEST PUSH1 0x40 MLOAD DUP1 SWAP2 SUB SWAP1 RETURN JUMPDEST PUSH2 0x2ED PUSH1 0x4 DUP1 CALLDATASIZE SUB DUP2 ADD SWAP1 PUSH2 0x2E8 SWAP2 SWAP1 PUSH2 0xE3F JUMP JUMPDEST PUSH2 0xAF8 JUMP JUMPDEST PUSH1 0x40 MLOAD PUSH2 0x2FA SWAP2 SWAP1 PUSH2 0x10A8 JUMP JUMPDEST PUSH1 0x40 MLOAD DUP1 SWAP2 SUB SWAP1 RETURN JUMPDEST PUSH1 0x0 PUSH1 0x5 PUSH1 0x0 CALLER PUSH20 0xFFFFFFFFFFFFFFFFFFFFFFFFFFFFFFFFFFFFFFFF AND PUSH20 0xFFFFFFFFFFFFFFFFFFFFFFFFFFFFFFFFFFFFFFFF AND DUP2 MSTORE PUSH1 0x20 ADD SWAP1 DUP2 MSTORE PUSH1 0x20 ADD PUSH1 0x0 KECCAK256 SWAP1 POP DUP1 PUSH1 0x1 ADD PUSH1 0x0 SWAP1 SLOAD SWAP1 PUSH2 0x100 EXP SWAP1 DIV PUSH1 0xFF AND ISZERO PUSH2 0x362 JUMPI PUSH1 0x0 DUP1 REVERT JUMPDEST PUSH1 0x1 DUP2 PUSH1 0x1 ADD PUSH1 0x0 PUSH2 0x100 EXP DUP2 SLOAD DUP2 PUSH1 0xFF MUL NOT AND SWAP1 DUP4 ISZERO ISZERO MUL OR SWAP1 SSTORE POP DUP2 DUP2 PUSH1 0x2 ADD DUP2 SWAP1 SSTORE POP DUP1 PUSH1 0x0 ADD SLOAD PUSH1 0x6 DUP4 DUP2 SLOAD DUP2 LT PUSH2 0x3C7 JUMPI PUSH32 0x4E487B7100000000000000000000000000000000000000000000000000000000 PUSH1 0x0 MSTORE PUSH1 0x32 PUSH1 0x4 MSTORE PUSH1 0x24 PUSH1 0x0 REVERT JUMPDEST SWAP1 PUSH1 0x0 MSTORE PUSH1 0x20 PUSH1 0x0 KECCAK256 SWAP1 PUSH1 0x2 MUL ADD PUSH1 0x1 ADD PUSH1 0x0 DUP3 DUP3 SLOAD PUSH2 0x3E7 SWAP2 SWAP1 PUSH2 0x121D JUMP JUMPDEST SWAP3 POP POP DUP2 SWAP1 SSTORE POP POP POP JUMP JUMPDEST PUSH1 0x6 DUP2 DUP2 SLOAD DUP2 LT PUSH2 0x402 JUMPI PUSH1 0x0 DUP1 REVERT JUMPDEST SWAP1 PUSH1 0x0 MSTORE PUSH1 0x20 PUSH1 0x0 KECCAK256 SWAP1 PUSH1 0x2 MUL ADD PUSH1 0x0 SWAP2 POP SWAP1 POP DUP1 PUSH1 0x0 ADD DUP1 SLOAD PUSH2 0x425 SWAP1 PUSH2 0x12FD JUMP JUMPDEST DUP1 PUSH1 0x1F ADD PUSH1 0x20 DUP1 SWAP2 DIV MUL PUSH1 0x20 ADD PUSH1 0x40 MLOAD SWAP1 DUP2 ADD PUSH1 0x40 MSTORE DUP1 SWAP3 SWAP2 SWAP1 DUP2 DUP2 MSTORE PUSH1 0x20 ADD DUP3 DUP1 SLOAD PUSH2 0x451 SWAP1 PUSH2 0x12FD JUMP JUMPDEST DUP1 ISZERO PUSH2 0x49E JUMPI DUP1 PUSH1 0x1F LT PUSH2 0x473 JUMPI PUSH2 0x100 DUP1 DUP4 SLOAD DIV MUL DUP4 MSTORE SWAP2 PUSH1 0x20 ADD SWAP2 PUSH2 0x49E JUMP JUMPDEST DUP3 ADD SWAP2 SWAP1 PUSH1 0x0 MSTORE PUSH1 0x20 PUSH1 0x0 KECCAK256 SWAP1 JUMPDEST DUP2 SLOAD DUP2 MSTORE SWAP1 PUSH1 0x1 ADD SWAP1 PUSH1 0x20 ADD DUP1 DUP4 GT PUSH2 0x481 JUMPI DUP3 SWAP1 SUB PUSH1 0x1F AND DUP3 ADD SWAP2 JUMPDEST POP POP POP POP POP SWAP1 DUP1 PUSH1 0x1 ADD SLOAD SWAP1 POP DUP3 JUMP JUMPDEST PUSH1 0x0 PUSH1 0x4 SLOAD SWAP1 POP SWAP1 JUMP JUMPDEST PUSH1 0x0 PUSH1 0x1 SLOAD SWAP1 POP SWAP1 JUMP JUMPDEST PUSH1 0x0 DUP1 PUSH1 0x0 SWAP1 POP PUSH1 0x0 JUMPDEST PUSH1 0x6 DUP1 SLOAD SWAP1 POP DUP2 LT ISZERO PUSH2 0x591 JUMPI DUP2 PUSH1 0x6 DUP3 DUP2 SLOAD DUP2 LT PUSH2 0x514 JUMPI PUSH32 0x4E487B7100000000000000000000000000000000000000000000000000000000 PUSH1 0x0 MSTORE PUSH1 0x32 PUSH1 0x4 MSTORE PUSH1 0x24 PUSH1 0x0 REVERT JUMPDEST SWAP1 PUSH1 0x0 MSTORE PUSH1 0x20 PUSH1 0x0 KECCAK256 SWAP1 PUSH1 0x2 MUL ADD PUSH1 0x1 ADD SLOAD GT ISZERO PUSH2 0x57E JUMPI PUSH1 0x6 DUP2 DUP2 SLOAD DUP2 LT PUSH2 0x566 JUMPI PUSH32 0x4E487B7100000000000000000000000000000000000000000000000000000000 PUSH1 0x0 MSTORE PUSH1 0x32 PUSH1 0x4 MSTORE PUSH1 0x24 PUSH1 0x0 REVERT JUMPDEST SWAP1 PUSH1 0x0 MSTORE PUSH1 0x20 PUSH1 0x0 KECCAK256 SWAP1 PUSH1 0x2 MUL ADD PUSH1 0x1 ADD SLOAD SWAP2 POP DUP1 SWAP3 POP JUMPDEST DUP1 DUP1 PUSH2 0x589 SWAP1 PUSH2 0x132F JUMP JUMPDEST SWAP2 POP POP PUSH2 0x4CC JUMP JUMPDEST POP POP SWAP1 JUMP JUMPDEST PUSH1 0x60 PUSH1 0x6 DUP1 SLOAD DUP1 PUSH1 0x20 MUL PUSH1 0x20 ADD PUSH1 0x40 MLOAD SWAP1 DUP2 ADD PUSH1 0x40 MSTORE DUP1 SWAP3 SWAP2 SWAP1 DUP2 DUP2 MSTORE PUSH1 0x20 ADD PUSH1 0x0 SWAP1 JUMPDEST DUP3 DUP3 LT ISZERO PUSH2 0x688 JUMPI DUP4 DUP3 SWAP1 PUSH1 0x0 MSTORE PUSH1 0x20 PUSH1 0x0 KECCAK256 SWAP1 PUSH1 0x2 MUL ADD PUSH1 0x40 MLOAD DUP1 PUSH1 0x40 ADD PUSH1 0x40 MSTORE SWAP1 DUP2 PUSH1 0x0 DUP3 ADD DUP1 SLOAD PUSH2 0x5ED SWAP1 PUSH2 0x12FD JUMP JUMPDEST DUP1 PUSH1 0x1F ADD PUSH1 0x20 DUP1 SWAP2 DIV MUL PUSH1 0x20 ADD PUSH1 0x40 MLOAD SWAP1 DUP2 ADD PUSH1 0x40 MSTORE DUP1 SWAP3 SWAP2 SWAP1 DUP2 DUP2 MSTORE PUSH1 0x20 ADD DUP3 DUP1 SLOAD PUSH2 0x619 SWAP1 PUSH2 0x12FD JUMP JUMPDEST DUP1 ISZERO PUSH2 0x666 JUMPI DUP1 PUSH1 0x1F LT PUSH2 0x63B JUMPI PUSH2 0x100 DUP1 DUP4 SLOAD DIV MUL DUP4 MSTORE SWAP2 PUSH1 0x20 ADD SWAP2 PUSH2 0x666 JUMP JUMPDEST DUP3 ADD SWAP2 SWAP1 PUSH1 0x0 MSTORE PUSH1 0x20 PUSH1 0x0 KECCAK256 SWAP1 JUMPDEST DUP2 SLOAD DUP2 MSTORE SWAP1 PUSH1 0x1 ADD SWAP1 PUSH1 0x20 ADD DUP1 DUP4 GT PUSH2 0x649 JUMPI DUP3 SWAP1 SUB PUSH1 0x1F AND DUP3 ADD SWAP2 JUMPDEST POP POP POP POP POP DUP2 MSTORE PUSH1 0x20 ADD PUSH1 0x1 DUP3 ADD SLOAD DUP2 MSTORE POP POP DUP2 MSTORE PUSH1 0x20 ADD SWAP1 PUSH1 0x1 ADD SWAP1 PUSH2 0x5BA JUMP JUMPDEST POP POP POP POP SWAP1 POP SWAP1 JUMP JUMPDEST DUP1 PUSH1 0x1 DUP2 SWAP1 SSTORE POP POP JUMP JUMPDEST PUSH1 0x0 PUSH1 0x2 SLOAD SWAP1 POP SWAP1 JUMP JUMPDEST PUSH1 0x0 DUP1 PUSH1 0x0 SWAP1 SLOAD SWAP1 PUSH2 0x100 EXP SWAP1 DIV PUSH20 0xFFFFFFFFFFFFFFFFFFFFFFFFFFFFFFFFFFFFFFFF AND SWAP1 POP SWAP1 JUMP JUMPDEST CALLER PUSH1 0x0 DUP1 PUSH2 0x100 EXP DUP2 SLOAD DUP2 PUSH20 0xFFFFFFFFFFFFFFFFFFFFFFFFFFFFFFFFFFFFFFFF MUL NOT AND SWAP1 DUP4 PUSH20 0xFFFFFFFFFFFFFFFFFFFFFFFFFFFFFFFFFFFFFFFF AND MUL OR SWAP1 SSTORE POP PUSH1 0x1 PUSH1 0x5 PUSH1 0x0 DUP1 PUSH1 0x0 SWAP1 SLOAD SWAP1 PUSH2 0x100 EXP SWAP1 DIV PUSH20 0xFFFFFFFFFFFFFFFFFFFFFFFFFFFFFFFFFFFFFFFF AND PUSH20 0xFFFFFFFFFFFFFFFFFFFFFFFFFFFFFFFFFFFFFFFF AND PUSH20 0xFFFFFFFFFFFFFFFFFFFFFFFFFFFFFFFFFFFFFFFF AND DUP2 MSTORE PUSH1 0x20 ADD SWAP1 DUP2 MSTORE PUSH1 0x20 ADD PUSH1 0x0 KECCAK256 PUSH1 0x0 ADD DUP2 SWAP1 SSTORE POP PUSH1 0x0 PUSH1 0x1 DUP2 SWAP1 SSTORE POP PUSH2 0x787 PUSH2 0xBF6 JUMP JUMPDEST DUP1 MLOAD PUSH1 0x4 DUP2 SWAP1 SSTORE POP PUSH1 0x0 JUMPDEST DUP2 MLOAD DUP2 LT ISZERO PUSH2 0x858 JUMPI PUSH1 0x6 PUSH1 0x40 MLOAD DUP1 PUSH1 0x40 ADD PUSH1 0x40 MSTORE DUP1 DUP5 DUP5 DUP2 MLOAD DUP2 LT PUSH2 0x7E1 JUMPI PUSH32 0x4E487B7100000000000000000000000000000000000000000000000000000000 PUSH1 0x0 MSTORE PUSH1 0x32 PUSH1 0x4 MSTORE PUSH1 0x24 PUSH1 0x0 REVERT JUMPDEST PUSH1 0x20 MUL PUSH1 0x20 ADD ADD MLOAD DUP2 MSTORE PUSH1 0x20 ADD PUSH1 0x0 DUP2 MSTORE POP SWAP1 DUP1 PUSH1 0x1 DUP2 SLOAD ADD DUP1 DUP3 SSTORE DUP1 SWAP2 POP POP PUSH1 0x1 SWAP1 SUB SWAP1 PUSH1 0x0 MSTORE PUSH1 0x20 PUSH1 0x0 KECCAK256 SWAP1 PUSH1 0x2 MUL ADD PUSH1 0x0 SWAP1 SWAP2 SWAP1 SWAP2 SWAP1 SWAP2 POP PUSH1 0x0 DUP3 ADD MLOAD DUP2 PUSH1 0x0 ADD SWAP1 DUP1 MLOAD SWAP1 PUSH1 0x20 ADD SWAP1 PUSH2 0x838 SWAP3 SWAP2 SWAP1 PUSH2 0xBFF JUMP JUMPDEST POP PUSH1 0x20 DUP3 ADD MLOAD DUP2 PUSH1 0x1 ADD SSTORE POP POP DUP1 DUP1 PUSH2 0x850 SWAP1 PUSH2 0x132F JUMP JUMPDEST SWAP2 POP POP PUSH2 0x792 JUMP JUMPDEST POP POP JUMP JUMPDEST TIMESTAMP PUSH1 0x3 DUP2 SWAP1 SSTORE POP JUMP JUMPDEST PUSH1 0x0 DUP1 SLOAD SWAP1 PUSH2 0x100 EXP SWAP1 DIV PUSH20 0xFFFFFFFFFFFFFFFFFFFFFFFFFFFFFFFFFFFFFFFF AND PUSH20 0xFFFFFFFFFFFFFFFFFFFFFFFFFFFFFFFFFFFFFFFF AND CALLER PUSH20 0xFFFFFFFFFFFFFFFFFFFFFFFFFFFFFFFFFFFFFFFF AND EQ DUP1 ISZERO PUSH2 0x90D JUMPI POP PUSH1 0x5 PUSH1 0x0 DUP3 PUSH20 0xFFFFFFFFFFFFFFFFFFFFFFFFFFFFFFFFFFFFFFFF AND PUSH20 0xFFFFFFFFFFFFFFFFFFFFFFFFFFFFFFFFFFFFFFFF AND DUP2 MSTORE PUSH1 0x20 ADD SWAP1 DUP2 MSTORE PUSH1 0x20 ADD PUSH1 0x0 KECCAK256 PUSH1 0x1 ADD PUSH1 0x0 SWAP1 SLOAD SWAP1 PUSH2 0x100 EXP SWAP1 DIV PUSH1 0xFF AND ISZERO JUMPDEST DUP1 ISZERO PUSH2 0x95B JUMPI POP PUSH1 0x0 PUSH1 0x5 PUSH1 0x0 DUP4 PUSH20 0xFFFFFFFFFFFFFFFFFFFFFFFFFFFFFFFFFFFFFFFF AND PUSH20 0xFFFFFFFFFFFFFFFFFFFFFFFFFFFFFFFFFFFFFFFF AND DUP2 MSTORE PUSH1 0x20 ADD SWAP1 DUP2 MSTORE PUSH1 0x20 ADD PUSH1 0x0 KECCAK256 PUSH1 0x0 ADD SLOAD EQ JUMPDEST PUSH2 0x964 JUMPI PUSH1 0x0 DUP1 REVERT JUMPDEST PUSH1 0x1 PUSH1 0x5 PUSH1 0x0 DUP4 PUSH20 0xFFFFFFFFFFFFFFFFFFFFFFFFFFFFFFFFFFFFFFFF AND PUSH20 0xFFFFFFFFFFFFFFFFFFFFFFFFFFFFFFFFFFFFFFFF AND DUP2 MSTORE PUSH1 0x20 ADD SWAP1 DUP2 MSTORE PUSH1 0x20 ADD PUSH1 0x0 KECCAK256 PUSH1 0x0 ADD DUP2 SWAP1 SSTORE POP POP JUMP JUMPDEST PUSH1 0x5 PUSH1 0x20 MSTORE DUP1 PUSH1 0x0 MSTORE PUSH1 0x40 PUSH1 0x0 KECCAK256 PUSH1 0x0 SWAP2 POP SWAP1 POP DUP1 PUSH1 0x0 ADD SLOAD SWAP1 DUP1 PUSH1 0x1 ADD PUSH1 0x0 SWAP1 SLOAD SWAP1 PUSH2 0x100 EXP SWAP1 DIV PUSH1 0xFF AND SWAP1 DUP1 PUSH1 0x1 ADD PUSH1 0x1 SWAP1 SLOAD SWAP1 PUSH2 0x100 EXP SWAP1 DIV PUSH20 0xFFFFFFFFFFFFFFFFFFFFFFFFFFFFFFFFFFFFFFFF AND SWAP1 DUP1 PUSH1 0x2 ADD SLOAD SWAP1 POP DUP5 JUMP JUMPDEST PUSH1 0x0 PUSH1 0x3 SLOAD SWAP1 POP SWAP1 JUMP JUMPDEST PUSH1 0x60 PUSH1 0x6 PUSH2 0xA22 PUSH2 0x4C2 JUMP JUMPDEST DUP2 SLOAD DUP2 LT PUSH2 0xA59 JUMPI PUSH32 0x4E487B7100000000000000000000000000000000000000000000000000000000 PUSH1 0x0 MSTORE PUSH1 0x32 PUSH1 0x4 MSTORE PUSH1 0x24 PUSH1 0x0 REVERT JUMPDEST SWAP1 PUSH1 0x0 MSTORE PUSH1 0x20 PUSH1 0x0 KECCAK256 SWAP1 PUSH1 0x2 MUL ADD PUSH1 0x0 ADD DUP1 SLOAD PUSH2 0xA75 SWAP1 PUSH2 0x12FD JUMP JUMPDEST DUP1 PUSH1 0x1F ADD PUSH1 0x20 DUP1 SWAP2 DIV MUL PUSH1 0x20 ADD PUSH1 0x40 MLOAD SWAP1 DUP2 ADD PUSH1 0x40 MSTORE DUP1 SWAP3 SWAP2 SWAP1 DUP2 DUP2 MSTORE PUSH1 0x20 ADD DUP3 DUP1 SLOAD PUSH2 0xAA1 SWAP1 PUSH2 0x12FD JUMP JUMPDEST DUP1 ISZERO PUSH2 0xAEE JUMPI DUP1 PUSH1 0x1F LT PUSH2 0xAC3 JUMPI PUSH2 0x100 DUP1 DUP4 SLOAD DIV MUL DUP4 MSTORE SWAP2 PUSH1 0x20 ADD SWAP2 PUSH2 0xAEE JUMP JUMPDEST DUP3 ADD SWAP2 SWAP1 PUSH1 0x0 MSTORE PUSH1 0x20 PUSH1 0x0 KECCAK256 SWAP1 JUMPDEST DUP2 SLOAD DUP2 MSTORE SWAP1 PUSH1 0x1 ADD SWAP1 PUSH1 0x20 ADD DUP1 DUP4 GT PUSH2 0xAD1 JUMPI DUP3 SWAP1 SUB PUSH1 0x1F AND DUP3 ADD SWAP2 JUMPDEST POP POP POP POP POP SWAP1 POP SWAP1 JUMP JUMPDEST PUSH2 0xB00 PUSH2 0xC85 JUMP JUMPDEST PUSH1 0x6 DUP3 DUP2 SLOAD DUP2 LT PUSH2 0xB3A JUMPI PUSH32 0x4E487B7100000000000000000000000000000000000000000000000000000000 PUSH1 0x0 MSTORE PUSH1 0x32 PUSH1 0x4 MSTORE PUSH1 0x24 PUSH1 0x0 REVERT JUMPDEST SWAP1 PUSH1 0x0 MSTORE PUSH1 0x20 PUSH1 0x0 KECCAK256 SWAP1 PUSH1 0x2 MUL ADD PUSH1 0x40 MLOAD DUP1 PUSH1 0x40 ADD PUSH1 0x40 MSTORE SWAP1 DUP2 PUSH1 0x0 DUP3 ADD DUP1 SLOAD PUSH2 0xB63 SWAP1 PUSH2 0x12FD JUMP JUMPDEST DUP1 PUSH1 0x1F ADD PUSH1 0x20 DUP1 SWAP2 DIV MUL PUSH1 0x20 ADD PUSH1 0x40 MLOAD SWAP1 DUP2 ADD PUSH1 0x40 MSTORE DUP1 SWAP3 SWAP2 SWAP1 DUP2 DUP2 MSTORE PUSH1 0x20 ADD DUP3 DUP1 SLOAD PUSH2 0xB8F SWAP1 PUSH2 0x12FD JUMP JUMPDEST DUP1 ISZERO PUSH2 0xBDC JUMPI DUP1 PUSH1 0x1F LT PUSH2 0xBB1 JUMPI PUSH2 0x100 DUP1 DUP4 SLOAD DIV MUL DUP4 MSTORE SWAP2 PUSH1 0x20 ADD SWAP2 PUSH2 0xBDC JUMP JUMPDEST DUP3 ADD SWAP2 SWAP1 PUSH1 0x0 MSTORE PUSH1 0x20 PUSH1 0x0 KECCAK256 SWAP1 JUMPDEST DUP2 SLOAD DUP2 MSTORE SWAP1 PUSH1 0x1 ADD SWAP1 PUSH1 0x20 ADD DUP1 DUP4 GT PUSH2 0xBBF JUMPI DUP3 SWAP1 SUB PUSH1 0x1F AND DUP3 ADD SWAP2 JUMPDEST POP POP POP POP POP DUP2 MSTORE PUSH1 0x20 ADD PUSH1 0x1 DUP3 ADD SLOAD DUP2 MSTORE POP POP SWAP1 POP SWAP2 SWAP1 POP JUMP JUMPDEST TIMESTAMP PUSH1 0x2 DUP2 SWAP1 SSTORE POP JUMP JUMPDEST DUP3 DUP1 SLOAD PUSH2 0xC0B SWAP1 PUSH2 0x12FD JUMP JUMPDEST SWAP1 PUSH1 0x0 MSTORE PUSH1 0x20 PUSH1 0x0 KECCAK256 SWAP1 PUSH1 0x1F ADD PUSH1 0x20 SWAP1 DIV DUP2 ADD SWAP3 DUP3 PUSH2 0xC2D JUMPI PUSH1 0x0 DUP6 SSTORE PUSH2 0xC74 JUMP JUMPDEST DUP3 PUSH1 0x1F LT PUSH2 0xC46 JUMPI DUP1 MLOAD PUSH1 0xFF NOT AND DUP4 DUP1 ADD OR DUP6 SSTORE PUSH2 0xC74 JUMP JUMPDEST DUP3 DUP1 ADD PUSH1 0x1 ADD DUP6 SSTORE DUP3 ISZERO PUSH2 0xC74 JUMPI SWAP2 DUP3 ADD JUMPDEST DUP3 DUP2 GT ISZERO PUSH2 0xC73 JUMPI DUP3 MLOAD DUP3 SSTORE SWAP2 PUSH1 0x20 ADD SWAP2 SWAP1 PUSH1 0x1 ADD SWAP1 PUSH2 0xC58 JUMP JUMPDEST JUMPDEST POP SWAP1 POP PUSH2 0xC81 SWAP2 SWAP1 PUSH2 0xC9F JUMP JUMPDEST POP SWAP1 JUMP JUMPDEST PUSH1 0x40 MLOAD DUP1 PUSH1 0x40 ADD PUSH1 0x40 MSTORE DUP1 PUSH1 0x60 DUP2 MSTORE PUSH1 0x20 ADD PUSH1 0x0 DUP2 MSTORE POP SWAP1 JUMP JUMPDEST JUMPDEST DUP1 DUP3 GT ISZERO PUSH2 0xCB8 JUMPI PUSH1 0x0 DUP2 PUSH1 0x0 SWAP1 SSTORE POP PUSH1 0x1 ADD PUSH2 0xCA0 JUMP JUMPDEST POP SWAP1 JUMP JUMPDEST PUSH1 0x0 PUSH2 0xCCF PUSH2 0xCCA DUP5 PUSH2 0x115B JUMP JUMPDEST PUSH2 0x112A JUMP JUMPDEST SWAP1 POP DUP1 DUP4 DUP3 MSTORE PUSH1 0x20 DUP3 ADD SWAP1 POP DUP3 PUSH1 0x0 JUMPDEST DUP6 DUP2 LT ISZERO PUSH2 0xD0F JUMPI DUP2 CALLDATALOAD DUP6 ADD PUSH2 0xCF5 DUP9 DUP3 PUSH2 0xD96 JUMP JUMPDEST DUP5 MSTORE PUSH1 0x20 DUP5 ADD SWAP4 POP PUSH1 0x20 DUP4 ADD SWAP3 POP POP PUSH1 0x1 DUP2 ADD SWAP1 POP PUSH2 0xCDF JUMP JUMPDEST POP POP POP SWAP4 SWAP3 POP POP POP JUMP JUMPDEST PUSH1 0x0 PUSH2 0xD2C PUSH2 0xD27 DUP5 PUSH2 0x1187 JUMP JUMPDEST PUSH2 0x112A JUMP JUMPDEST SWAP1 POP DUP3 DUP2 MSTORE PUSH1 0x20 DUP2 ADD DUP5 DUP5 DUP5 ADD GT ISZERO PUSH2 0xD44 JUMPI PUSH1 0x0 DUP1 REVERT JUMPDEST PUSH2 0xD4F DUP5 DUP3 DUP6 PUSH2 0x12BB JUMP JUMPDEST POP SWAP4 SWAP3 POP POP POP JUMP JUMPDEST PUSH1 0x0 DUP2 CALLDATALOAD SWAP1 POP PUSH2 0xD66 DUP2 PUSH2 0x1416 JUMP JUMPDEST SWAP3 SWAP2 POP POP JUMP JUMPDEST PUSH1 0x0 DUP3 PUSH1 0x1F DUP4 ADD SLT PUSH2 0xD7D JUMPI PUSH1 0x0 DUP1 REVERT JUMPDEST DUP2 CALLDATALOAD PUSH2 0xD8D DUP5 DUP3 PUSH1 0x20 DUP7 ADD PUSH2 0xCBC JUMP JUMPDEST SWAP2 POP POP SWAP3 SWAP2 POP POP JUMP JUMPDEST PUSH1 0x0 DUP3 PUSH1 0x1F DUP4 ADD SLT PUSH2 0xDA7 JUMPI PUSH1 0x0 DUP1 REVERT JUMPDEST DUP2 CALLDATALOAD PUSH2 0xDB7 DUP5 DUP3 PUSH1 0x20 DUP7 ADD PUSH2 0xD19 JUMP JUMPDEST SWAP2 POP POP SWAP3 SWAP2 POP POP JUMP JUMPDEST PUSH1 0x0 DUP2 CALLDATALOAD SWAP1 POP PUSH2 0xDCF DUP2 PUSH2 0x142D JUMP JUMPDEST SWAP3 SWAP2 POP POP JUMP JUMPDEST PUSH1 0x0 PUSH1 0x20 DUP3 DUP5 SUB SLT ISZERO PUSH2 0xDE7 JUMPI PUSH1 0x0 DUP1 REVERT JUMPDEST PUSH1 0x0 PUSH2 0xDF5 DUP5 DUP3 DUP6 ADD PUSH2 0xD57 JUMP JUMPDEST SWAP2 POP POP SWAP3 SWAP2 POP POP JUMP JUMPDEST PUSH1 0x0 PUSH1 0x20 DUP3 DUP5 SUB SLT ISZERO PUSH2 0xE10 JUMPI PUSH1 0x0 DUP1 REVERT JUMPDEST PUSH1 0x0 DUP3 ADD CALLDATALOAD PUSH8 0xFFFFFFFFFFFFFFFF DUP2 GT ISZERO PUSH2 0xE2A JUMPI PUSH1 0x0 DUP1 REVERT JUMPDEST PUSH2 0xE36 DUP5 DUP3 DUP6 ADD PUSH2 0xD6C JUMP JUMPDEST SWAP2 POP POP SWAP3 SWAP2 POP POP JUMP JUMPDEST PUSH1 0x0 PUSH1 0x20 DUP3 DUP5 SUB SLT ISZERO PUSH2 0xE51 JUMPI PUSH1 0x0 DUP1 REVERT JUMPDEST PUSH1 0x0 PUSH2 0xE5F DUP5 DUP3 DUP6 ADD PUSH2 0xDC0 JUMP JUMPDEST SWAP2 POP POP SWAP3 SWAP2 POP POP JUMP JUMPDEST PUSH1 0x0 PUSH2 0xE74 DUP4 DUP4 PUSH2 0xF81 JUMP JUMPDEST SWAP1 POP SWAP3 SWAP2 POP POP JUMP JUMPDEST PUSH2 0xE85 DUP2 PUSH2 0x1273 JUMP JUMPDEST DUP3 MSTORE POP POP JUMP JUMPDEST PUSH1 0x0 PUSH2 0xE96 DUP3 PUSH2 0x11C7 JUMP JUMPDEST PUSH2 0xEA0 DUP2 DUP6 PUSH2 0x11EA JUMP JUMPDEST SWAP4 POP DUP4 PUSH1 0x20 DUP3 MUL DUP6 ADD PUSH2 0xEB2 DUP6 PUSH2 0x11B7 JUMP JUMPDEST DUP1 PUSH1 0x0 JUMPDEST DUP6 DUP2 LT ISZERO PUSH2 0xEEE JUMPI DUP5 DUP5 SUB DUP10 MSTORE DUP2 MLOAD PUSH2 0xECF DUP6 DUP3 PUSH2 0xE68 JUMP JUMPDEST SWAP5 POP PUSH2 0xEDA DUP4 PUSH2 0x11DD JUMP JUMPDEST SWAP3 POP PUSH1 0x20 DUP11 ADD SWAP10 POP POP PUSH1 0x1 DUP2 ADD SWAP1 POP PUSH2 0xEB6 JUMP JUMPDEST POP DUP3 SWAP8 POP DUP8 SWAP6 POP POP POP POP POP POP SWAP3 SWAP2 POP POP JUMP JUMPDEST PUSH2 0xF09 DUP2 PUSH2 0x1285 JUMP JUMPDEST DUP3 MSTORE POP POP JUMP JUMPDEST PUSH1 0x0 PUSH2 0xF1A DUP3 PUSH2 0x11D2 JUMP JUMPDEST PUSH2 0xF24 DUP2 DUP6 PUSH2 0x11FB JUMP JUMPDEST SWAP4 POP PUSH2 0xF34 DUP2 DUP6 PUSH1 0x20 DUP7 ADD PUSH2 0x12CA JUMP JUMPDEST PUSH2 0xF3D DUP2 PUSH2 0x1405 JUMP JUMPDEST DUP5 ADD SWAP2 POP POP SWAP3 SWAP2 POP POP JUMP JUMPDEST PUSH1 0x0 PUSH2 0xF53 DUP3 PUSH2 0x11D2 JUMP JUMPDEST PUSH2 0xF5D DUP2 DUP6 PUSH2 0x120C JUMP JUMPDEST SWAP4 POP PUSH2 0xF6D DUP2 DUP6 PUSH1 0x20 DUP7 ADD PUSH2 0x12CA JUMP JUMPDEST PUSH2 0xF76 DUP2 PUSH2 0x1405 JUMP JUMPDEST DUP5 ADD SWAP2 POP POP SWAP3 SWAP2 POP POP JUMP JUMPDEST PUSH1 0x0 PUSH1 0x40 DUP4 ADD PUSH1 0x0 DUP4 ADD MLOAD DUP5 DUP3 SUB PUSH1 0x0 DUP7 ADD MSTORE PUSH2 0xF9E DUP3 DUP3 PUSH2 0xF0F JUMP JUMPDEST SWAP2 POP POP PUSH1 0x20 DUP4 ADD MLOAD PUSH2 0xFB3 PUSH1 0x20 DUP7 ADD DUP3 PUSH2 0xFFB JUMP JUMPDEST POP DUP1 SWAP2 POP POP SWAP3 SWAP2 POP POP JUMP JUMPDEST PUSH1 0x0 PUSH1 0x40 DUP4 ADD PUSH1 0x0 DUP4 ADD MLOAD DUP5 DUP3 SUB PUSH1 0x0 DUP7 ADD MSTORE PUSH2 0xFDB DUP3 DUP3 PUSH2 0xF0F JUMP JUMPDEST SWAP2 POP POP PUSH1 0x20 DUP4 ADD MLOAD PUSH2 0xFF0 PUSH1 0x20 DUP7 ADD DUP3 PUSH2 0xFFB JUMP JUMPDEST POP DUP1 SWAP2 POP POP SWAP3 SWAP2 POP POP JUMP JUMPDEST PUSH2 0x1004 DUP2 PUSH2 0x12B1 JUMP JUMPDEST DUP3 MSTORE POP POP JUMP JUMPDEST PUSH2 0x1013 DUP2 PUSH2 0x12B1 JUMP JUMPDEST DUP3 MSTORE POP POP JUMP JUMPDEST PUSH1 0x0 PUSH1 0x20 DUP3 ADD SWAP1 POP PUSH2 0x102E PUSH1 0x0 DUP4 ADD DUP5 PUSH2 0xE7C JUMP JUMPDEST SWAP3 SWAP2 POP POP JUMP JUMPDEST PUSH1 0x0 PUSH1 0x20 DUP3 ADD SWAP1 POP DUP2 DUP2 SUB PUSH1 0x0 DUP4 ADD MSTORE PUSH2 0x104E DUP2 DUP5 PUSH2 0xE8B JUMP JUMPDEST SWAP1 POP SWAP3 SWAP2 POP POP JUMP JUMPDEST PUSH1 0x0 PUSH1 0x20 DUP3 ADD SWAP1 POP DUP2 DUP2 SUB PUSH1 0x0 DUP4 ADD MSTORE PUSH2 0x1070 DUP2 DUP5 PUSH2 0xF48 JUMP JUMPDEST SWAP1 POP SWAP3 SWAP2 POP POP JUMP JUMPDEST PUSH1 0x0 PUSH1 0x40 DUP3 ADD SWAP1 POP DUP2 DUP2 SUB PUSH1 0x0 DUP4 ADD MSTORE PUSH2 0x1092 DUP2 DUP6 PUSH2 0xF48 JUMP JUMPDEST SWAP1 POP PUSH2 0x10A1 PUSH1 0x20 DUP4 ADD DUP5 PUSH2 0x100A JUMP JUMPDEST SWAP4 SWAP3 POP POP POP JUMP JUMPDEST PUSH1 0x0 PUSH1 0x20 DUP3 ADD SWAP1 POP DUP2 DUP2 SUB PUSH1 0x0 DUP4 ADD MSTORE PUSH2 0x10C2 DUP2 DUP5 PUSH2 0xFBE JUMP JUMPDEST SWAP1 POP SWAP3 SWAP2 POP POP JUMP JUMPDEST PUSH1 0x0 PUSH1 0x20 DUP3 ADD SWAP1 POP PUSH2 0x10DF PUSH1 0x0 DUP4 ADD DUP5 PUSH2 0x100A JUMP JUMPDEST SWAP3 SWAP2 POP POP JUMP JUMPDEST PUSH1 0x0 PUSH1 0x80 DUP3 ADD SWAP1 POP PUSH2 0x10FA PUSH1 0x0 DUP4 ADD DUP8 PUSH2 0x100A JUMP JUMPDEST PUSH2 0x1107 PUSH1 0x20 DUP4 ADD DUP7 PUSH2 0xF00 JUMP JUMPDEST PUSH2 0x1114 PUSH1 0x40 DUP4 ADD DUP6 PUSH2 0xE7C JUMP JUMPDEST PUSH2 0x1121 PUSH1 0x60 DUP4 ADD DUP5 PUSH2 0x100A JUMP JUMPDEST SWAP6 SWAP5 POP POP POP POP POP JUMP JUMPDEST PUSH1 0x0 PUSH1 0x40 MLOAD SWAP1 POP DUP2 DUP2 ADD DUP2 DUP2 LT PUSH8 0xFFFFFFFFFFFFFFFF DUP3 GT OR ISZERO PUSH2 0x1151 JUMPI PUSH2 0x1150 PUSH2 0x13D6 JUMP JUMPDEST JUMPDEST DUP1 PUSH1 0x40 MSTORE POP SWAP2 SWAP1 POP JUMP JUMPDEST PUSH1 0x0 PUSH8 0xFFFFFFFFFFFFFFFF DUP3 GT ISZERO PUSH2 0x1176 JUMPI PUSH2 0x1175 PUSH2 0x13D6 JUMP JUMPDEST JUMPDEST PUSH1 0x20 DUP3 MUL SWAP1 POP PUSH1 0x20 DUP2 ADD SWAP1 POP SWAP2 SWAP1 POP JUMP JUMPDEST PUSH1 0x0 PUSH8 0xFFFFFFFFFFFFFFFF DUP3 GT ISZERO PUSH2 0x11A2 JUMPI PUSH2 0x11A1 PUSH2 0x13D6 JUMP JUMPDEST JUMPDEST PUSH1 0x1F NOT PUSH1 0x1F DUP4 ADD AND SWAP1 POP PUSH1 0x20 DUP2 ADD SWAP1 POP SWAP2 SWAP1 POP JUMP JUMPDEST PUSH1 0x0 DUP2 SWAP1 POP PUSH1 0x20 DUP3 ADD SWAP1 POP SWAP2 SWAP1 POP JUMP JUMPDEST PUSH1 0x0 DUP2 MLOAD SWAP1 POP SWAP2 SWAP1 POP JUMP JUMPDEST PUSH1 0x0 DUP2 MLOAD SWAP1 POP SWAP2 SWAP1 POP JUMP JUMPDEST PUSH1 0x0 PUSH1 0x20 DUP3 ADD SWAP1 POP SWAP2 SWAP1 POP JUMP JUMPDEST PUSH1 0x0 DUP3 DUP3 MSTORE PUSH1 0x20 DUP3 ADD SWAP1 POP SWAP3 SWAP2 POP POP JUMP JUMPDEST PUSH1 0x0 DUP3 DUP3 MSTORE PUSH1 0x20 DUP3 ADD SWAP1 POP SWAP3 SWAP2 POP POP JUMP JUMPDEST PUSH1 0x0 DUP3 DUP3 MSTORE PUSH1 0x20 DUP3 ADD SWAP1 POP SWAP3 SWAP2 POP POP JUMP JUMPDEST PUSH1 0x0 PUSH2 0x1228 DUP3 PUSH2 0x12B1 JUMP JUMPDEST SWAP2 POP PUSH2 0x1233 DUP4 PUSH2 0x12B1 JUMP JUMPDEST SWAP3 POP DUP3 PUSH32 0xFFFFFFFFFFFFFFFFFFFFFFFFFFFFFFFFFFFFFFFFFFFFFFFFFFFFFFFFFFFFFFFF SUB DUP3 GT ISZERO PUSH2 0x1268 JUMPI PUSH2 0x1267 PUSH2 0x1378 JUMP JUMPDEST JUMPDEST DUP3 DUP3 ADD SWAP1 POP SWAP3 SWAP2 POP POP JUMP JUMPDEST PUSH1 0x0 PUSH2 0x127E DUP3 PUSH2 0x1291 JUMP JUMPDEST SWAP1 POP SWAP2 SWAP1 POP JUMP JUMPDEST PUSH1 0x0 DUP2 ISZERO ISZERO SWAP1 POP SWAP2 SWAP1 POP JUMP JUMPDEST PUSH1 0x0 PUSH20 0xFFFFFFFFFFFFFFFFFFFFFFFFFFFFFFFFFFFFFFFF DUP3 AND SWAP1 POP SWAP2 SWAP1 POP JUMP JUMPDEST PUSH1 0x0 DUP2 SWAP1 POP SWAP2 SWAP1 POP JUMP JUMPDEST DUP3 DUP2 DUP4 CALLDATACOPY PUSH1 0x0 DUP4 DUP4 ADD MSTORE POP POP POP JUMP JUMPDEST PUSH1 0x0 JUMPDEST DUP4 DUP2 LT ISZERO PUSH2 0x12E8 JUMPI DUP1 DUP3 ADD MLOAD DUP2 DUP5 ADD MSTORE PUSH1 0x20 DUP2 ADD SWAP1 POP PUSH2 0x12CD JUMP JUMPDEST DUP4 DUP2 GT ISZERO PUSH2 0x12F7 JUMPI PUSH1 0x0 DUP5 DUP5 ADD MSTORE JUMPDEST POP POP POP POP JUMP JUMPDEST PUSH1 0x0 PUSH1 0x2 DUP3 DIV SWAP1 POP PUSH1 0x1 DUP3 AND DUP1 PUSH2 0x1315 JUMPI PUSH1 0x7F DUP3 AND SWAP2 POP JUMPDEST PUSH1 0x20 DUP3 LT DUP2 EQ ISZERO PUSH2 0x1329 JUMPI PUSH2 0x1328 PUSH2 0x13A7 JUMP JUMPDEST JUMPDEST POP SWAP2 SWAP1 POP JUMP JUMPDEST PUSH1 0x0 PUSH2 0x133A DUP3 PUSH2 0x12B1 JUMP JUMPDEST SWAP2 POP PUSH32 0xFFFFFFFFFFFFFFFFFFFFFFFFFFFFFFFFFFFFFFFFFFFFFFFFFFFFFFFFFFFFFFFF DUP3 EQ ISZERO PUSH2 0x136D JUMPI PUSH2 0x136C PUSH2 0x1378 JUMP JUMPDEST JUMPDEST PUSH1 0x1 DUP3 ADD SWAP1 POP SWAP2 SWAP1 POP JUMP JUMPDEST PUSH32 0x4E487B7100000000000000000000000000000000000000000000000000000000 PUSH1 0x0 MSTORE PUSH1 0x11 PUSH1 0x4 MSTORE PUSH1 0x24 PUSH1 0x0 REVERT JUMPDEST PUSH32 0x4E487B7100000000000000000000000000000000000000000000000000000000 PUSH1 0x0 MSTORE PUSH1 0x22 PUSH1 0x4 MSTORE PUSH1 0x24 PUSH1 0x0 REVERT JUMPDEST PUSH32 0x4E487B7100000000000000000000000000000000000000000000000000000000 PUSH1 0x0 MSTORE PUSH1 0x41 PUSH1 0x4 MSTORE PUSH1 0x24 PUSH1 0x0 REVERT JUMPDEST PUSH1 0x0 PUSH1 0x1F NOT PUSH1 0x1F DUP4 ADD AND SWAP1 POP SWAP2 SWAP1 POP JUMP JUMPDEST PUSH2 0x141F DUP2 PUSH2 0x1273 JUMP JUMPDEST DUP2 EQ PUSH2 0x142A JUMPI PUSH1 0x0 DUP1 REVERT JUMPDEST POP JUMP JUMPDEST PUSH2 0x1436 DUP2 PUSH2 0x12B1 JUMP JUMPDEST DUP2 EQ PUSH2 0x1441 JUMPI PUSH1 0x0 DUP1 REVERT JUMPDEST POP JUMP INVALID LOG2 PUSH5 0x6970667358 0x22 SLT KECCAK256 NOT 0xDF PC SLT POP SWAP6 EXP 0xD8 MULMOD CREATE2 PUSH21 0x33849780CE70B84029B1A804454ACCDDC566CDAD05 PUSH5 0x736F6C6343 STOP ADDMOD STOP STOP CALLER LOG2 PUSH5 0x6970667358 0x22 SLT KECCAK256 0xCE 0xD4 0xEA 0xA7 0xAE PUSH11 0xC03B35BAA29391D0E35970 PUSH4 0x5FBCCCFF RETURNDATASIZE RETURNDATACOPY PUSH28 0x18D869CB6F894564736F6C6343000800003300000000000000000000 "
				},
				"gasEstimates": {
					"creation": {
						"codeDepositCost": "2767000",
						"executionCost": "3015",
						"totalCost": "2770015"
					},
					"external": {
						"ballotArray(uint256)": "2444",
						"bfCreateBallot(uint256,string[])": "infinite",
						"bfGetCreatorBallot(uint256)": "infinite",
						"bfGiveRightToVote(uint256,address)": "infinite",
						"bfSetStatus(uint256,uint256)": "infinite",
						"bfVote(uint256,uint256)": "infinite",
						"bfWinningName(uint256)": "infinite",
						"bfWinningProposal(uint256)": "infinite",
						"createBallot(string[])": "infinite",
						"createBallotContract()": "infinite",
						"getCreatorBallot()": "1267",
						"getEndDate()": "1204",
						"getProposalStructure(uint256)": "infinite",
						"getProposals()": "infinite",
						"getStartDate()": "1160",
						"getStatus()": "1249",
						"getStatus(uint256)": "infinite",
						"getnumOfProposals()": "1205",
						"giveRightToVote(address)": "23452",
						"proposals(uint256)": "infinite",
						"setEndDate()": "20246",
						"setStatus(uint256)": "20487",
						"vote(uint256)": "infinite",
						"voters(address)": "infinite",
						"winnerName()": "infinite",
						"winningProposal()": "infinite"
					}
				},
				"methodIdentifiers": {
					"ballotArray(uint256)": "643cb096",
					"bfCreateBallot(uint256,string[])": "735d8b87",
					"bfGetCreatorBallot(uint256)": "2a8cdc4c",
					"bfGiveRightToVote(uint256,address)": "c285c0d3",
					"bfSetStatus(uint256,uint256)": "b434b42e",
					"bfVote(uint256,uint256)": "627c2367",
					"bfWinningName(uint256)": "763fcb98",
					"bfWinningProposal(uint256)": "d7558d4b",
					"createBallot(string[])": "836bc692",
					"createBallotContract()": "962fafd0",
					"getCreatorBallot()": "7a16fcb0",
					"getEndDate()": "b1356488",
					"getProposalStructure(uint256)": "e9d6c6da",
					"getProposals()": "62564c48",
					"getStartDate()": "78f305c6",
					"getStatus()": "4e69d560",
					"getStatus(uint256)": "5c622a0e",
					"getnumOfProposals()": "0a82dcb1",
					"giveRightToVote(address)": "9e7b8d61",
					"proposals(uint256)": "013cf08b",
					"setEndDate()": "86278e77",
					"setStatus(uint256)": "69ba1a75",
					"vote(uint256)": "0121b93f",
					"voters(address)": "a3ec138d",
					"winnerName()": "e2ba53f0",
					"winningProposal()": "609ff1bd"
				}
			},
			"storageLayout": {
				"storage": [
					{
						"astId": 3,
						"contract": "contracts/visov_durku.sol:BallotFactory",
						"label": "creator",
						"offset": 0,
						"slot": "0",
						"type": "t_address"
					},
					{
						"astId": 5,
						"contract": "contracts/visov_durku.sol:BallotFactory",
						"label": "status",
						"offset": 0,
						"slot": "1",
						"type": "t_uint256"
					},
					{
						"astId": 7,
						"contract": "contracts/visov_durku.sol:BallotFactory",
						"label": "startDate",
						"offset": 0,
						"slot": "2",
						"type": "t_uint256"
					},
					{
						"astId": 9,
						"contract": "contracts/visov_durku.sol:BallotFactory",
						"label": "endDate",
						"offset": 0,
						"slot": "3",
						"type": "t_uint256"
					},
					{
						"astId": 11,
						"contract": "contracts/visov_durku.sol:BallotFactory",
						"label": "numOfProposals",
						"offset": 0,
						"slot": "4",
						"type": "t_uint256"
					},
					{
						"astId": 30,
						"contract": "contracts/visov_durku.sol:BallotFactory",
						"label": "voters",
						"offset": 0,
						"slot": "5",
						"type": "t_mapping(t_address,t_struct(Voter)20_storage)"
					},
					{
						"astId": 34,
						"contract": "contracts/visov_durku.sol:BallotFactory",
						"label": "proposals",
						"offset": 0,
						"slot": "6",
						"type": "t_array(t_struct(Proposal)25_storage)dyn_storage"
					},
					{
						"astId": 321,
						"contract": "contracts/visov_durku.sol:BallotFactory",
						"label": "ballotArray",
						"offset": 0,
						"slot": "7",
						"type": "t_array(t_contract(Ballot)312)dyn_storage"
					}
				],
				"types": {
					"t_address": {
						"encoding": "inplace",
						"label": "address",
						"numberOfBytes": "20"
					},
					"t_array(t_contract(Ballot)312)dyn_storage": {
						"base": "t_contract(Ballot)312",
						"encoding": "dynamic_array",
						"label": "contract Ballot[]",
						"numberOfBytes": "32"
					},
					"t_array(t_struct(Proposal)25_storage)dyn_storage": {
						"base": "t_struct(Proposal)25_storage",
						"encoding": "dynamic_array",
						"label": "struct Ballot.Proposal[]",
						"numberOfBytes": "32"
					},
					"t_bool": {
						"encoding": "inplace",
						"label": "bool",
						"numberOfBytes": "1"
					},
					"t_contract(Ballot)312": {
						"encoding": "inplace",
						"label": "contract Ballot",
						"numberOfBytes": "20"
					},
					"t_mapping(t_address,t_struct(Voter)20_storage)": {
						"encoding": "mapping",
						"key": "t_address",
						"label": "mapping(address => struct Ballot.Voter)",
						"numberOfBytes": "32",
						"value": "t_struct(Voter)20_storage"
					},
					"t_string_storage": {
						"encoding": "bytes",
						"label": "string",
						"numberOfBytes": "32"
					},
					"t_struct(Proposal)25_storage": {
						"encoding": "inplace",
						"label": "struct Ballot.Proposal",
						"members": [
							{
								"astId": 22,
								"contract": "contracts/visov_durku.sol:BallotFactory",
								"label": "name",
								"offset": 0,
								"slot": "0",
								"type": "t_string_storage"
							},
							{
								"astId": 24,
								"contract": "contracts/visov_durku.sol:BallotFactory",
								"label": "voteCount",
								"offset": 0,
								"slot": "1",
								"type": "t_uint256"
							}
						],
						"numberOfBytes": "64"
					},
					"t_struct(Voter)20_storage": {
						"encoding": "inplace",
						"label": "struct Ballot.Voter",
						"members": [
							{
								"astId": 13,
								"contract": "contracts/visov_durku.sol:BallotFactory",
								"label": "weight",
								"offset": 0,
								"slot": "0",
								"type": "t_uint256"
							},
							{
								"astId": 15,
								"contract": "contracts/visov_durku.sol:BallotFactory",
								"label": "voted",
								"offset": 0,
								"slot": "1",
								"type": "t_bool"
							},
							{
								"astId": 17,
								"contract": "contracts/visov_durku.sol:BallotFactory",
								"label": "delegate",
								"offset": 1,
								"slot": "1",
								"type": "t_address"
							},
							{
								"astId": 19,
								"contract": "contracts/visov_durku.sol:BallotFactory",
								"label": "vote",
								"offset": 0,
								"slot": "2",
								"type": "t_uint256"
							}
						],
						"numberOfBytes": "96"
					},
					"t_uint256": {
						"encoding": "inplace",
						"label": "uint256",
						"numberOfBytes": "32"
					}
				}
			},
			"userdoc": {
				"kind": "user",
				"methods": {},
				"version": 1
			}
		}
	}
}