{
	"contracts/prop_test.sol": {
		"Ballot": {
			"abi": [
				{
					"inputs": [
						{
							"internalType": "string[]",
							"name": "proposalNames",
							"type": "string[]"
						}
					],
					"name": "createBallot",
					"outputs": [],
					"stateMutability": "nonpayable",
					"type": "function"
				},
				{
					"inputs": [],
					"name": "getEndDate",
					"outputs": [
						{
							"internalType": "uint256",
							"name": "",
							"type": "uint256"
						}
					],
					"stateMutability": "view",
					"type": "function"
				},
				{
					"inputs": [
						{
							"internalType": "uint256",
							"name": "_proposalId",
							"type": "uint256"
						}
					],
					"name": "getProposalStructure",
					"outputs": [
						{
							"components": [
								{
									"internalType": "string",
									"name": "name",
									"type": "string"
								},
								{
									"internalType": "uint256",
									"name": "voteCount",
									"type": "uint256"
								}
							],
							"internalType": "struct Ballot.Proposal",
							"name": "",
							"type": "tuple"
						}
					],
					"stateMutability": "view",
					"type": "function"
				},
				{
					"inputs": [],
					"name": "getProposals",
					"outputs": [
						{
							"components": [
								{
									"internalType": "string",
									"name": "name",
									"type": "string"
								},
								{
									"internalType": "uint256",
									"name": "voteCount",
									"type": "uint256"
								}
							],
							"internalType": "struct Ballot.Proposal[]",
							"name": "",
							"type": "tuple[]"
						}
					],
					"stateMutability": "view",
					"type": "function"
				},
				{
					"inputs": [],
					"name": "getStartDate",
					"outputs": [
						{
							"internalType": "uint256",
							"name": "",
							"type": "uint256"
						}
					],
					"stateMutability": "view",
					"type": "function"
				},
				{
					"inputs": [
						{
							"internalType": "address",
							"name": "voter",
							"type": "address"
						}
					],
					"name": "giveRightToVote",
					"outputs": [],
					"stateMutability": "nonpayable",
					"type": "function"
				},
				{
					"inputs": [],
					"name": "numOfProposals",
					"outputs": [
						{
							"internalType": "uint256",
							"name": "",
							"type": "uint256"
						}
					],
					"stateMutability": "view",
					"type": "function"
				},
				{
					"inputs": [
						{
							"internalType": "uint256",
							"name": "",
							"type": "uint256"
						}
					],
					"name": "proposals",
					"outputs": [
						{
							"internalType": "string",
							"name": "name",
							"type": "string"
						},
						{
							"internalType": "uint256",
							"name": "voteCount",
							"type": "uint256"
						}
					],
					"stateMutability": "view",
					"type": "function"
				},
				{
					"inputs": [
						{
							"internalType": "uint256",
							"name": "proposal",
							"type": "uint256"
						}
					],
					"name": "vote",
					"outputs": [],
					"stateMutability": "nonpayable",
					"type": "function"
				},
				{
					"inputs": [
						{
							"internalType": "address",
							"name": "",
							"type": "address"
						}
					],
					"name": "voters",
					"outputs": [
						{
							"internalType": "uint256",
							"name": "weight",
							"type": "uint256"
						},
						{
							"internalType": "bool",
							"name": "voted",
							"type": "bool"
						},
						{
							"internalType": "address",
							"name": "delegate",
							"type": "address"
						},
						{
							"internalType": "uint256",
							"name": "vote",
							"type": "uint256"
						}
					],
					"stateMutability": "view",
					"type": "function"
				}
			],
			"devdoc": {
				"kind": "dev",
				"methods": {},
				"version": 1
			},
			"evm": {
				"assembly": "    /* \"contracts/prop_test.sol\":60:3305  contract Ballot {\r... */\n  mstore(0x40, 0x80)\n  callvalue\n  dup1\n  iszero\n  tag_1\n  jumpi\n  0x00\n  dup1\n  revert\ntag_1:\n  pop\n  dataSize(sub_0)\n  dup1\n  dataOffset(sub_0)\n  0x00\n  codecopy\n  0x00\n  return\nstop\n\nsub_0: assembly {\n        /* \"contracts/prop_test.sol\":60:3305  contract Ballot {\r... */\n      mstore(0x40, 0x80)\n      callvalue\n      dup1\n      iszero\n      tag_1\n      jumpi\n      0x00\n      dup1\n      revert\n    tag_1:\n      pop\n      jumpi(tag_2, lt(calldatasize, 0x04))\n      shr(0xe0, calldataload(0x00))\n      dup1\n      0x836bc692\n      gt\n      tag_13\n      jumpi\n      dup1\n      0x836bc692\n      eq\n      tag_8\n      jumpi\n      dup1\n      0x9e7b8d61\n      eq\n      tag_9\n      jumpi\n      dup1\n      0xa3ec138d\n      eq\n      tag_10\n      jumpi\n      dup1\n      0xb1356488\n      eq\n      tag_11\n      jumpi\n      dup1\n      0xe9d6c6da\n      eq\n      tag_12\n      jumpi\n      jump(tag_2)\n    tag_13:\n      dup1\n      0x0121b93f\n      eq\n      tag_3\n      jumpi\n      dup1\n      0x013cf08b\n      eq\n      tag_4\n      jumpi\n      dup1\n      0x5f570253\n      eq\n      tag_5\n      jumpi\n      dup1\n      0x62564c48\n      eq\n      tag_6\n      jumpi\n      dup1\n      0x78f305c6\n      eq\n      tag_7\n      jumpi\n    tag_2:\n      0x00\n      dup1\n      revert\n        /* \"contracts/prop_test.sol\":2253:2642  function vote(uint proposal) public {\r... */\n    tag_3:\n      tag_14\n      0x04\n      dup1\n      calldatasize\n      sub\n      dup2\n      add\n      swap1\n      tag_15\n      swap2\n      swap1\n      tag_16\n      jump\t// in\n    tag_15:\n      tag_17\n      jump\t// in\n    tag_14:\n      stop\n        /* \"contracts/prop_test.sol\":863:890  Proposal[] public proposals */\n    tag_4:\n      tag_18\n      0x04\n      dup1\n      calldatasize\n      sub\n      dup2\n      add\n      swap1\n      tag_19\n      swap2\n      swap1\n      tag_16\n      jump\t// in\n    tag_19:\n      tag_20\n      jump\t// in\n    tag_18:\n      mload(0x40)\n      tag_21\n      swap3\n      swap2\n      swap1\n      tag_22\n      jump\t// in\n    tag_21:\n      mload(0x40)\n      dup1\n      swap2\n      sub\n      swap1\n      return\n        /* \"contracts/prop_test.sol\":178:204  uint public numOfProposals */\n    tag_5:\n      tag_23\n      tag_24\n      jump\t// in\n    tag_23:\n      mload(0x40)\n      tag_25\n      swap2\n      swap1\n      tag_26\n      jump\t// in\n    tag_25:\n      mload(0x40)\n      dup1\n      swap2\n      sub\n      swap1\n      return\n        /* \"contracts/prop_test.sol\":2853:2950  function getProposals() public view returns(Proposal[] memory){\r... */\n    tag_6:\n      tag_27\n      tag_28\n      jump\t// in\n    tag_27:\n      mload(0x40)\n      tag_29\n      swap2\n      swap1\n      tag_30\n      jump\t// in\n    tag_29:\n      mload(0x40)\n      dup1\n      swap2\n      sub\n      swap1\n      return\n        /* \"contracts/prop_test.sol\":3048:3132  function getStartDate() public view returns(uint){\r... */\n    tag_7:\n      tag_31\n      tag_32\n      jump\t// in\n    tag_31:\n      mload(0x40)\n      tag_33\n      swap2\n      swap1\n      tag_26\n      jump\t// in\n    tag_33:\n      mload(0x40)\n      dup1\n      swap2\n      sub\n      swap1\n      return\n        /* \"contracts/prop_test.sol\":899:1626  function createBallot(string[] memory proposalNames) public {\r... */\n    tag_8:\n      tag_34\n      0x04\n      dup1\n      calldatasize\n      sub\n      dup2\n      add\n      swap1\n      tag_35\n      swap2\n      swap1\n      tag_36\n      jump\t// in\n    tag_35:\n      tag_37\n      jump\t// in\n    tag_34:\n      stop\n        /* \"contracts/prop_test.sol\":1634:2216  function giveRightToVote(address voter) public {\r... */\n    tag_9:\n      tag_38\n      0x04\n      dup1\n      calldatasize\n      sub\n      dup2\n      add\n      swap1\n      tag_39\n      swap2\n      swap1\n      tag_40\n      jump\t// in\n    tag_39:\n      tag_41\n      jump\t// in\n    tag_38:\n      stop\n        /* \"contracts/prop_test.sol\":758:797  mapping(address => Voter) public voters */\n    tag_10:\n      tag_42\n      0x04\n      dup1\n      calldatasize\n      sub\n      dup2\n      add\n      swap1\n      tag_43\n      swap2\n      swap1\n      tag_40\n      jump\t// in\n    tag_43:\n      tag_44\n      jump\t// in\n    tag_42:\n      mload(0x40)\n      tag_45\n      swap5\n      swap4\n      swap3\n      swap2\n      swap1\n      tag_46\n      jump\t// in\n    tag_45:\n      mload(0x40)\n      dup1\n      swap2\n      sub\n      swap1\n      return\n        /* \"contracts/prop_test.sol\":3222:3302  function getEndDate() public view returns(uint){\r... */\n    tag_11:\n      tag_47\n      tag_48\n      jump\t// in\n    tag_47:\n      mload(0x40)\n      tag_49\n      swap2\n      swap1\n      tag_26\n      jump\t// in\n    tag_49:\n      mload(0x40)\n      dup1\n      swap2\n      sub\n      swap1\n      return\n        /* \"contracts/prop_test.sol\":2684:2816  function getProposalStructure(uint _proposalId) public view returns(Proposal memory){\r... */\n    tag_12:\n      tag_50\n      0x04\n      dup1\n      calldatasize\n      sub\n      dup2\n      add\n      swap1\n      tag_51\n      swap2\n      swap1\n      tag_16\n      jump\t// in\n    tag_51:\n      tag_52\n      jump\t// in\n    tag_50:\n      mload(0x40)\n      tag_53\n      swap2\n      swap1\n      tag_54\n      jump\t// in\n    tag_53:\n      mload(0x40)\n      dup1\n      swap2\n      sub\n      swap1\n      return\n        /* \"contracts/prop_test.sol\":2253:2642  function vote(uint proposal) public {\r... */\n    tag_17:\n        /* \"contracts/prop_test.sol\":2300:2320  Voter storage sender */\n      0x00\n        /* \"contracts/prop_test.sol\":2323:2329  voters */\n      0x04\n        /* \"contracts/prop_test.sol\":2323:2341  voters[msg.sender] */\n      0x00\n        /* \"contracts/prop_test.sol\":2330:2340  msg.sender */\n      caller\n        /* \"contracts/prop_test.sol\":2323:2341  voters[msg.sender] */\n      0xffffffffffffffffffffffffffffffffffffffff\n      and\n      0xffffffffffffffffffffffffffffffffffffffff\n      and\n      dup2\n      mstore\n      0x20\n      add\n      swap1\n      dup2\n      mstore\n      0x20\n      add\n      0x00\n      keccak256\n        /* \"contracts/prop_test.sol\":2300:2341  Voter storage sender = voters[msg.sender] */\n      swap1\n      pop\n        /* \"contracts/prop_test.sol\":2361:2367  sender */\n      dup1\n        /* \"contracts/prop_test.sol\":2361:2373  sender.voted */\n      0x01\n      add\n      0x00\n      swap1\n      sload\n      swap1\n      0x0100\n      exp\n      swap1\n      div\n      0xff\n      and\n        /* \"contracts/prop_test.sol\":2360:2373  !sender.voted */\n      iszero\n        /* \"contracts/prop_test.sol\":2352:2374  require(!sender.voted) */\n      tag_56\n      jumpi\n      0x00\n      dup1\n      revert\n    tag_56:\n        /* \"contracts/prop_test.sol\":2400:2404  true */\n      0x01\n        /* \"contracts/prop_test.sol\":2385:2391  sender */\n      dup2\n        /* \"contracts/prop_test.sol\":2385:2397  sender.voted */\n      0x01\n      add\n      0x00\n        /* \"contracts/prop_test.sol\":2385:2404  sender.voted = true */\n      0x0100\n      exp\n      dup2\n      sload\n      dup2\n      0xff\n      mul\n      not\n      and\n      swap1\n      dup4\n      iszero\n      iszero\n      mul\n      or\n      swap1\n      sstore\n      pop\n        /* \"contracts/prop_test.sol\":2429:2437  proposal */\n      dup2\n        /* \"contracts/prop_test.sol\":2415:2421  sender */\n      dup2\n        /* \"contracts/prop_test.sol\":2415:2426  sender.vote */\n      0x02\n      add\n        /* \"contracts/prop_test.sol\":2415:2437  sender.vote = proposal */\n      dup2\n      swap1\n      sstore\n      pop\n        /* \"contracts/prop_test.sol\":2621:2627  sender */\n      dup1\n        /* \"contracts/prop_test.sol\":2621:2634  sender.weight */\n      0x00\n      add\n      sload\n        /* \"contracts/prop_test.sol\":2588:2597  proposals */\n      0x05\n        /* \"contracts/prop_test.sol\":2598:2606  proposal */\n      dup4\n        /* \"contracts/prop_test.sol\":2588:2607  proposals[proposal] */\n      dup2\n      sload\n      dup2\n      lt\n      tag_57\n      jumpi\n      mstore(0x00, 0x4e487b7100000000000000000000000000000000000000000000000000000000)\n      mstore(0x04, 0x32)\n      revert(0x00, 0x24)\n    tag_57:\n      swap1\n      0x00\n      mstore\n      keccak256(0x00, 0x20)\n      swap1\n      0x02\n      mul\n      add\n        /* \"contracts/prop_test.sol\":2588:2617  proposals[proposal].voteCount */\n      0x01\n      add\n      0x00\n        /* \"contracts/prop_test.sol\":2588:2634  proposals[proposal].voteCount += sender.weight */\n      dup3\n      dup3\n      sload\n      tag_59\n      swap2\n      swap1\n      tag_60\n      jump\t// in\n    tag_59:\n      swap3\n      pop\n      pop\n      dup2\n      swap1\n      sstore\n      pop\n        /* \"contracts/prop_test.sol\":2253:2642  function vote(uint proposal) public {\r... */\n      pop\n      pop\n      jump\t// out\n        /* \"contracts/prop_test.sol\":863:890  Proposal[] public proposals */\n    tag_20:\n      0x05\n      dup2\n      dup2\n      sload\n      dup2\n      lt\n      tag_61\n      jumpi\n      0x00\n      dup1\n      revert\n    tag_61:\n      swap1\n      0x00\n      mstore\n      keccak256(0x00, 0x20)\n      swap1\n      0x02\n      mul\n      add\n      0x00\n      swap2\n      pop\n      swap1\n      pop\n      dup1\n      0x00\n      add\n      dup1\n      sload\n      tag_63\n      swap1\n      tag_64\n      jump\t// in\n    tag_63:\n      dup1\n      0x1f\n      add\n      0x20\n      dup1\n      swap2\n      div\n      mul\n      0x20\n      add\n      mload(0x40)\n      swap1\n      dup2\n      add\n      0x40\n      mstore\n      dup1\n      swap3\n      swap2\n      swap1\n      dup2\n      dup2\n      mstore\n      0x20\n      add\n      dup3\n      dup1\n      sload\n      tag_65\n      swap1\n      tag_64\n      jump\t// in\n    tag_65:\n      dup1\n      iszero\n      tag_66\n      jumpi\n      dup1\n      0x1f\n      lt\n      tag_67\n      jumpi\n      0x0100\n      dup1\n      dup4\n      sload\n      div\n      mul\n      dup4\n      mstore\n      swap2\n      0x20\n      add\n      swap2\n      jump(tag_66)\n    tag_67:\n      dup3\n      add\n      swap2\n      swap1\n      0x00\n      mstore\n      keccak256(0x00, 0x20)\n      swap1\n    tag_68:\n      dup2\n      sload\n      dup2\n      mstore\n      swap1\n      0x01\n      add\n      swap1\n      0x20\n      add\n      dup1\n      dup4\n      gt\n      tag_68\n      jumpi\n      dup3\n      swap1\n      sub\n      0x1f\n      and\n      dup3\n      add\n      swap2\n    tag_66:\n      pop\n      pop\n      pop\n      pop\n      pop\n      swap1\n      dup1\n      0x01\n      add\n      sload\n      swap1\n      pop\n      dup3\n      jump\t// out\n        /* \"contracts/prop_test.sol\":178:204  uint public numOfProposals */\n    tag_24:\n      sload(0x03)\n      dup2\n      jump\t// out\n        /* \"contracts/prop_test.sol\":2853:2950  function getProposals() public view returns(Proposal[] memory){\r... */\n    tag_28:\n        /* \"contracts/prop_test.sol\":2897:2914  Proposal[] memory */\n      0x60\n        /* \"contracts/prop_test.sol\":2933:2942  proposals */\n      0x05\n        /* \"contracts/prop_test.sol\":2926:2942  return proposals */\n      dup1\n      sload\n      dup1\n      0x20\n      mul\n      0x20\n      add\n      mload(0x40)\n      swap1\n      dup2\n      add\n      0x40\n      mstore\n      dup1\n      swap3\n      swap2\n      swap1\n      dup2\n      dup2\n      mstore\n      0x20\n      add\n      0x00\n      swap1\n    tag_70:\n      dup3\n      dup3\n      lt\n      iszero\n      tag_71\n      jumpi\n      dup4\n      dup3\n      swap1\n      0x00\n      mstore\n      keccak256(0x00, 0x20)\n      swap1\n      0x02\n      mul\n      add\n      mload(0x40)\n      dup1\n      0x40\n      add\n      0x40\n      mstore\n      swap1\n      dup2\n      0x00\n      dup3\n      add\n      dup1\n      sload\n      tag_73\n      swap1\n      tag_64\n      jump\t// in\n    tag_73:\n      dup1\n      0x1f\n      add\n      0x20\n      dup1\n      swap2\n      div\n      mul\n      0x20\n      add\n      mload(0x40)\n      swap1\n      dup2\n      add\n      0x40\n      mstore\n      dup1\n      swap3\n      swap2\n      swap1\n      dup2\n      dup2\n      mstore\n      0x20\n      add\n      dup3\n      dup1\n      sload\n      tag_74\n      swap1\n      tag_64\n      jump\t// in\n    tag_74:\n      dup1\n      iszero\n      tag_75\n      jumpi\n      dup1\n      0x1f\n      lt\n      tag_76\n      jumpi\n      0x0100\n      dup1\n      dup4\n      sload\n      div\n      mul\n      dup4\n      mstore\n      swap2\n      0x20\n      add\n      swap2\n      jump(tag_75)\n    tag_76:\n      dup3\n      add\n      swap2\n      swap1\n      0x00\n      mstore\n      keccak256(0x00, 0x20)\n      swap1\n    tag_77:\n      dup2\n      sload\n      dup2\n      mstore\n      swap1\n      0x01\n      add\n      swap1\n      0x20\n      add\n      dup1\n      dup4\n      gt\n      tag_77\n      jumpi\n      dup3\n      swap1\n      sub\n      0x1f\n      and\n      dup3\n      add\n      swap2\n    tag_75:\n      pop\n      pop\n      pop\n      pop\n      pop\n      dup2\n      mstore\n      0x20\n      add\n      0x01\n      dup3\n      add\n      sload\n      dup2\n      mstore\n      pop\n      pop\n      dup2\n      mstore\n      0x20\n      add\n      swap1\n      0x01\n      add\n      swap1\n      jump(tag_70)\n    tag_71:\n      pop\n      pop\n      pop\n      pop\n      swap1\n      pop\n        /* \"contracts/prop_test.sol\":2853:2950  function getProposals() public view returns(Proposal[] memory){\r... */\n      swap1\n      jump\t// out\n        /* \"contracts/prop_test.sol\":3048:3132  function getStartDate() public view returns(uint){\r... */\n    tag_32:\n        /* \"contracts/prop_test.sol\":3092:3096  uint */\n      0x00\n        /* \"contracts/prop_test.sol\":3115:3124  startDate */\n      sload(0x01)\n        /* \"contracts/prop_test.sol\":3108:3124  return startDate */\n      swap1\n      pop\n        /* \"contracts/prop_test.sol\":3048:3132  function getStartDate() public view returns(uint){\r... */\n      swap1\n      jump\t// out\n        /* \"contracts/prop_test.sol\":899:1626  function createBallot(string[] memory proposalNames) public {\r... */\n    tag_37:\n        /* \"contracts/prop_test.sol\":984:994  msg.sender */\n      caller\n        /* \"contracts/prop_test.sol\":970:981  chairperson */\n      0x00\n      dup1\n        /* \"contracts/prop_test.sol\":970:994  chairperson = msg.sender */\n      0x0100\n      exp\n      dup2\n      sload\n      dup2\n      0xffffffffffffffffffffffffffffffffffffffff\n      mul\n      not\n      and\n      swap1\n      dup4\n      0xffffffffffffffffffffffffffffffffffffffff\n      and\n      mul\n      or\n      swap1\n      sstore\n      pop\n        /* \"contracts/prop_test.sol\":1034:1035  1 */\n      0x01\n        /* \"contracts/prop_test.sol\":1005:1011  voters */\n      0x04\n        /* \"contracts/prop_test.sol\":1005:1024  voters[chairperson] */\n      0x00\n        /* \"contracts/prop_test.sol\":1012:1023  chairperson */\n      dup1\n      0x00\n      swap1\n      sload\n      swap1\n      0x0100\n      exp\n      swap1\n      div\n      0xffffffffffffffffffffffffffffffffffffffff\n      and\n        /* \"contracts/prop_test.sol\":1005:1024  voters[chairperson] */\n      0xffffffffffffffffffffffffffffffffffffffff\n      and\n      0xffffffffffffffffffffffffffffffffffffffff\n      and\n      dup2\n      mstore\n      0x20\n      add\n      swap1\n      dup2\n      mstore\n      0x20\n      add\n      0x00\n      keccak256\n        /* \"contracts/prop_test.sol\":1005:1031  voters[chairperson].weight */\n      0x00\n      add\n        /* \"contracts/prop_test.sol\":1005:1035  voters[chairperson].weight = 1 */\n      dup2\n      swap1\n      sstore\n      pop\n        /* \"contracts/prop_test.sol\":1048:1062  setStartDate() */\n      tag_80\n        /* \"contracts/prop_test.sol\":1048:1060  setStartDate */\n      tag_81\n        /* \"contracts/prop_test.sol\":1048:1062  setStartDate() */\n      jump\t// in\n    tag_80:\n        /* \"contracts/prop_test.sol\":1090:1103  proposalNames */\n      dup1\n        /* \"contracts/prop_test.sol\":1090:1110  proposalNames.length */\n      mload\n        /* \"contracts/prop_test.sol\":1073:1087  numOfProposals */\n      0x03\n        /* \"contracts/prop_test.sol\":1073:1110  numOfProposals = proposalNames.length */\n      dup2\n      swap1\n      sstore\n      pop\n        /* \"contracts/prop_test.sol\":1270:1276  uint i */\n      0x00\n        /* \"contracts/prop_test.sol\":1265:1619  for (uint i = 0; i < proposalNames.length; i++) {\r... */\n    tag_82:\n        /* \"contracts/prop_test.sol\":1286:1299  proposalNames */\n      dup2\n        /* \"contracts/prop_test.sol\":1286:1306  proposalNames.length */\n      mload\n        /* \"contracts/prop_test.sol\":1282:1283  i */\n      dup2\n        /* \"contracts/prop_test.sol\":1282:1306  i < proposalNames.length */\n      lt\n        /* \"contracts/prop_test.sol\":1265:1619  for (uint i = 0; i < proposalNames.length; i++) {\r... */\n      iszero\n      tag_83\n      jumpi\n        /* \"contracts/prop_test.sol\":1494:1503  proposals */\n      0x05\n        /* \"contracts/prop_test.sol\":1509:1606  Proposal({\r... */\n      mload(0x40)\n      dup1\n      0x40\n      add\n      0x40\n      mstore\n      dup1\n        /* \"contracts/prop_test.sol\":1543:1556  proposalNames */\n      dup5\n        /* \"contracts/prop_test.sol\":1557:1558  i */\n      dup5\n        /* \"contracts/prop_test.sol\":1543:1559  proposalNames[i] */\n      dup2\n      mload\n      dup2\n      lt\n      tag_85\n      jumpi\n      mstore(0x00, 0x4e487b7100000000000000000000000000000000000000000000000000000000)\n      mstore(0x04, 0x32)\n      revert(0x00, 0x24)\n    tag_85:\n      0x20\n      mul\n      0x20\n      add\n      add\n      mload\n        /* \"contracts/prop_test.sol\":1509:1606  Proposal({\r... */\n      dup2\n      mstore\n      0x20\n      add\n        /* \"contracts/prop_test.sol\":1589:1590  0 */\n      0x00\n        /* \"contracts/prop_test.sol\":1509:1606  Proposal({\r... */\n      dup2\n      mstore\n      pop\n        /* \"contracts/prop_test.sol\":1494:1607  proposals.push(Proposal({\r... */\n      swap1\n      dup1\n      0x01\n      dup2\n      sload\n      add\n      dup1\n      dup3\n      sstore\n      dup1\n      swap2\n      pop\n      pop\n      0x01\n      swap1\n      sub\n      swap1\n      0x00\n      mstore\n      keccak256(0x00, 0x20)\n      swap1\n      0x02\n      mul\n      add\n      0x00\n      swap1\n      swap2\n      swap1\n      swap2\n      swap1\n      swap2\n      pop\n      0x00\n      dup3\n      add\n      mload\n      dup2\n      0x00\n      add\n      swap1\n      dup1\n      mload\n      swap1\n      0x20\n      add\n      swap1\n      tag_87\n      swap3\n      swap2\n      swap1\n      tag_88\n      jump\t// in\n    tag_87:\n      pop\n      0x20\n      dup3\n      add\n      mload\n      dup2\n      0x01\n      add\n      sstore\n      pop\n      pop\n        /* \"contracts/prop_test.sol\":1308:1311  i++ */\n      dup1\n      dup1\n      tag_89\n      swap1\n      tag_90\n      jump\t// in\n    tag_89:\n      swap2\n      pop\n      pop\n        /* \"contracts/prop_test.sol\":1265:1619  for (uint i = 0; i < proposalNames.length; i++) {\r... */\n      jump(tag_82)\n    tag_83:\n      pop\n        /* \"contracts/prop_test.sol\":899:1626  function createBallot(string[] memory proposalNames) public {\r... */\n      pop\n      jump\t// out\n        /* \"contracts/prop_test.sol\":1634:2216  function giveRightToVote(address voter) public {\r... */\n    tag_41:\n        /* \"contracts/prop_test.sol\":2105:2116  chairperson */\n      0x00\n      dup1\n      sload\n      swap1\n      0x0100\n      exp\n      swap1\n      div\n      0xffffffffffffffffffffffffffffffffffffffff\n      and\n        /* \"contracts/prop_test.sol\":2091:2116  msg.sender == chairperson */\n      0xffffffffffffffffffffffffffffffffffffffff\n      and\n        /* \"contracts/prop_test.sol\":2091:2101  msg.sender */\n      caller\n        /* \"contracts/prop_test.sol\":2091:2116  msg.sender == chairperson */\n      0xffffffffffffffffffffffffffffffffffffffff\n      and\n      eq\n        /* \"contracts/prop_test.sol\":2090:2141  (msg.sender == chairperson) && !voters[voter].voted */\n      dup1\n      iszero\n      tag_92\n      jumpi\n      pop\n        /* \"contracts/prop_test.sol\":2122:2128  voters */\n      0x04\n        /* \"contracts/prop_test.sol\":2122:2135  voters[voter] */\n      0x00\n        /* \"contracts/prop_test.sol\":2129:2134  voter */\n      dup3\n        /* \"contracts/prop_test.sol\":2122:2135  voters[voter] */\n      0xffffffffffffffffffffffffffffffffffffffff\n      and\n      0xffffffffffffffffffffffffffffffffffffffff\n      and\n      dup2\n      mstore\n      0x20\n      add\n      swap1\n      dup2\n      mstore\n      0x20\n      add\n      0x00\n      keccak256\n        /* \"contracts/prop_test.sol\":2122:2141  voters[voter].voted */\n      0x01\n      add\n      0x00\n      swap1\n      sload\n      swap1\n      0x0100\n      exp\n      swap1\n      div\n      0xff\n      and\n        /* \"contracts/prop_test.sol\":2121:2141  !voters[voter].voted */\n      iszero\n        /* \"contracts/prop_test.sol\":2090:2141  (msg.sender == chairperson) && !voters[voter].voted */\n    tag_92:\n        /* \"contracts/prop_test.sol\":2090:2172  (msg.sender == chairperson) && !voters[voter].voted && (voters[voter].weight == 0) */\n      dup1\n      iszero\n      tag_93\n      jumpi\n      pop\n        /* \"contracts/prop_test.sol\":2170:2171  0 */\n      0x00\n        /* \"contracts/prop_test.sol\":2146:2152  voters */\n      0x04\n        /* \"contracts/prop_test.sol\":2146:2159  voters[voter] */\n      0x00\n        /* \"contracts/prop_test.sol\":2153:2158  voter */\n      dup4\n        /* \"contracts/prop_test.sol\":2146:2159  voters[voter] */\n      0xffffffffffffffffffffffffffffffffffffffff\n      and\n      0xffffffffffffffffffffffffffffffffffffffff\n      and\n      dup2\n      mstore\n      0x20\n      add\n      swap1\n      dup2\n      mstore\n      0x20\n      add\n      0x00\n      keccak256\n        /* \"contracts/prop_test.sol\":2146:2166  voters[voter].weight */\n      0x00\n      add\n      sload\n        /* \"contracts/prop_test.sol\":2146:2171  voters[voter].weight == 0 */\n      eq\n        /* \"contracts/prop_test.sol\":2090:2172  (msg.sender == chairperson) && !voters[voter].voted && (voters[voter].weight == 0) */\n    tag_93:\n        /* \"contracts/prop_test.sol\":2082:2173  require((msg.sender == chairperson) && !voters[voter].voted && (voters[voter].weight == 0)) */\n      tag_94\n      jumpi\n      0x00\n      dup1\n      revert\n    tag_94:\n        /* \"contracts/prop_test.sol\":2207:2208  1 */\n      0x01\n        /* \"contracts/prop_test.sol\":2184:2190  voters */\n      0x04\n        /* \"contracts/prop_test.sol\":2184:2197  voters[voter] */\n      0x00\n        /* \"contracts/prop_test.sol\":2191:2196  voter */\n      dup4\n        /* \"contracts/prop_test.sol\":2184:2197  voters[voter] */\n      0xffffffffffffffffffffffffffffffffffffffff\n      and\n      0xffffffffffffffffffffffffffffffffffffffff\n      and\n      dup2\n      mstore\n      0x20\n      add\n      swap1\n      dup2\n      mstore\n      0x20\n      add\n      0x00\n      keccak256\n        /* \"contracts/prop_test.sol\":2184:2204  voters[voter].weight */\n      0x00\n      add\n        /* \"contracts/prop_test.sol\":2184:2208  voters[voter].weight = 1 */\n      dup2\n      swap1\n      sstore\n      pop\n        /* \"contracts/prop_test.sol\":1634:2216  function giveRightToVote(address voter) public {\r... */\n      pop\n      jump\t// out\n        /* \"contracts/prop_test.sol\":758:797  mapping(address => Voter) public voters */\n    tag_44:\n      mstore(0x20, 0x04)\n      dup1\n      0x00\n      mstore\n      keccak256(0x00, 0x40)\n      0x00\n      swap2\n      pop\n      swap1\n      pop\n      dup1\n      0x00\n      add\n      sload\n      swap1\n      dup1\n      0x01\n      add\n      0x00\n      swap1\n      sload\n      swap1\n      0x0100\n      exp\n      swap1\n      div\n      0xff\n      and\n      swap1\n      dup1\n      0x01\n      add\n      0x01\n      swap1\n      sload\n      swap1\n      0x0100\n      exp\n      swap1\n      div\n      0xffffffffffffffffffffffffffffffffffffffff\n      and\n      swap1\n      dup1\n      0x02\n      add\n      sload\n      swap1\n      pop\n      dup5\n      jump\t// out\n        /* \"contracts/prop_test.sol\":3222:3302  function getEndDate() public view returns(uint){\r... */\n    tag_48:\n        /* \"contracts/prop_test.sol\":3264:3268  uint */\n      0x00\n        /* \"contracts/prop_test.sol\":3287:3294  endDate */\n      sload(0x02)\n        /* \"contracts/prop_test.sol\":3280:3294  return endDate */\n      swap1\n      pop\n        /* \"contracts/prop_test.sol\":3222:3302  function getEndDate() public view returns(uint){\r... */\n      swap1\n      jump\t// out\n        /* \"contracts/prop_test.sol\":2684:2816  function getProposalStructure(uint _proposalId) public view returns(Proposal memory){\r... */\n    tag_52:\n        /* \"contracts/prop_test.sol\":2752:2767  Proposal memory */\n      tag_96\n      tag_97\n      jump\t// in\n    tag_96:\n        /* \"contracts/prop_test.sol\":2786:2795  proposals */\n      0x05\n        /* \"contracts/prop_test.sol\":2796:2807  _proposalId */\n      dup3\n        /* \"contracts/prop_test.sol\":2786:2808  proposals[_proposalId] */\n      dup2\n      sload\n      dup2\n      lt\n      tag_99\n      jumpi\n      mstore(0x00, 0x4e487b7100000000000000000000000000000000000000000000000000000000)\n      mstore(0x04, 0x32)\n      revert(0x00, 0x24)\n    tag_99:\n      swap1\n      0x00\n      mstore\n      keccak256(0x00, 0x20)\n      swap1\n      0x02\n      mul\n      add\n        /* \"contracts/prop_test.sol\":2779:2808  return proposals[_proposalId] */\n      mload(0x40)\n      dup1\n      0x40\n      add\n      0x40\n      mstore\n      swap1\n      dup2\n      0x00\n      dup3\n      add\n      dup1\n      sload\n      tag_101\n      swap1\n      tag_64\n      jump\t// in\n    tag_101:\n      dup1\n      0x1f\n      add\n      0x20\n      dup1\n      swap2\n      div\n      mul\n      0x20\n      add\n      mload(0x40)\n      swap1\n      dup2\n      add\n      0x40\n      mstore\n      dup1\n      swap3\n      swap2\n      swap1\n      dup2\n      dup2\n      mstore\n      0x20\n      add\n      dup3\n      dup1\n      sload\n      tag_102\n      swap1\n      tag_64\n      jump\t// in\n    tag_102:\n      dup1\n      iszero\n      tag_103\n      jumpi\n      dup1\n      0x1f\n      lt\n      tag_104\n      jumpi\n      0x0100\n      dup1\n      dup4\n      sload\n      div\n      mul\n      dup4\n      mstore\n      swap2\n      0x20\n      add\n      swap2\n      jump(tag_103)\n    tag_104:\n      dup3\n      add\n      swap2\n      swap1\n      0x00\n      mstore\n      keccak256(0x00, 0x20)\n      swap1\n    tag_105:\n      dup2\n      sload\n      dup2\n      mstore\n      swap1\n      0x01\n      add\n      swap1\n      0x20\n      add\n      dup1\n      dup4\n      gt\n      tag_105\n      jumpi\n      dup3\n      swap1\n      sub\n      0x1f\n      and\n      dup3\n      add\n      swap2\n    tag_103:\n      pop\n      pop\n      pop\n      pop\n      pop\n      dup2\n      mstore\n      0x20\n      add\n      0x01\n      dup3\n      add\n      sload\n      dup2\n      mstore\n      pop\n      pop\n      swap1\n      pop\n        /* \"contracts/prop_test.sol\":2684:2816  function getProposalStructure(uint _proposalId) public view returns(Proposal memory){\r... */\n      swap2\n      swap1\n      pop\n      jump\t// out\n        /* \"contracts/prop_test.sol\":2958:3036  function setStartDate() internal{\r... */\n    tag_81:\n        /* \"contracts/prop_test.sol\":3013:3028  block.timestamp */\n      timestamp\n        /* \"contracts/prop_test.sol\":3001:3010  startDate */\n      0x01\n        /* \"contracts/prop_test.sol\":3001:3028  startDate = block.timestamp */\n      dup2\n      swap1\n      sstore\n      pop\n        /* \"contracts/prop_test.sol\":2958:3036  function setStartDate() internal{\r... */\n      jump\t// out\n    tag_88:\n      dup3\n      dup1\n      sload\n      tag_107\n      swap1\n      tag_64\n      jump\t// in\n    tag_107:\n      swap1\n      0x00\n      mstore\n      keccak256(0x00, 0x20)\n      swap1\n      0x1f\n      add\n      0x20\n      swap1\n      div\n      dup2\n      add\n      swap3\n      dup3\n      tag_109\n      jumpi\n      0x00\n      dup6\n      sstore\n      jump(tag_108)\n    tag_109:\n      dup3\n      0x1f\n      lt\n      tag_110\n      jumpi\n      dup1\n      mload\n      not(0xff)\n      and\n      dup4\n      dup1\n      add\n      or\n      dup6\n      sstore\n      jump(tag_108)\n    tag_110:\n      dup3\n      dup1\n      add\n      0x01\n      add\n      dup6\n      sstore\n      dup3\n      iszero\n      tag_108\n      jumpi\n      swap2\n      dup3\n      add\n    tag_111:\n      dup3\n      dup2\n      gt\n      iszero\n      tag_112\n      jumpi\n      dup3\n      mload\n      dup3\n      sstore\n      swap2\n      0x20\n      add\n      swap2\n      swap1\n      0x01\n      add\n      swap1\n      jump(tag_111)\n    tag_112:\n    tag_108:\n      pop\n      swap1\n      pop\n      tag_113\n      swap2\n      swap1\n      tag_114\n      jump\t// in\n    tag_113:\n      pop\n      swap1\n      jump\t// out\n    tag_97:\n      mload(0x40)\n      dup1\n      0x40\n      add\n      0x40\n      mstore\n      dup1\n      0x60\n      dup2\n      mstore\n      0x20\n      add\n      0x00\n      dup2\n      mstore\n      pop\n      swap1\n      jump\t// out\n    tag_114:\n    tag_115:\n      dup1\n      dup3\n      gt\n      iszero\n      tag_116\n      jumpi\n      0x00\n      dup2\n      0x00\n      swap1\n      sstore\n      pop\n      0x01\n      add\n      jump(tag_115)\n    tag_116:\n      pop\n      swap1\n      jump\t// out\n        /* \"#utility.yul\":23:638   */\n    tag_118:\n      0x00\n        /* \"#utility.yul\":154:244   */\n      tag_120\n        /* \"#utility.yul\":169:243   */\n      tag_121\n        /* \"#utility.yul\":236:242   */\n      dup5\n        /* \"#utility.yul\":169:243   */\n      tag_122\n      jump\t// in\n    tag_121:\n        /* \"#utility.yul\":154:244   */\n      tag_123\n      jump\t// in\n    tag_120:\n        /* \"#utility.yul\":145:244   */\n      swap1\n      pop\n        /* \"#utility.yul\":264:269   */\n      dup1\n        /* \"#utility.yul\":292:298   */\n      dup4\n        /* \"#utility.yul\":285:290   */\n      dup3\n        /* \"#utility.yul\":278:299   */\n      mstore\n        /* \"#utility.yul\":318:322   */\n      0x20\n        /* \"#utility.yul\":311:316   */\n      dup3\n        /* \"#utility.yul\":307:323   */\n      add\n        /* \"#utility.yul\":300:323   */\n      swap1\n      pop\n        /* \"#utility.yul\":343:349   */\n      dup3\n        /* \"#utility.yul\":374:375   */\n      0x00\n        /* \"#utility.yul\":359:632   */\n    tag_124:\n        /* \"#utility.yul\":384:390   */\n      dup6\n        /* \"#utility.yul\":381:382   */\n      dup2\n        /* \"#utility.yul\":378:391   */\n      lt\n        /* \"#utility.yul\":359:632   */\n      iszero\n      tag_126\n      jumpi\n        /* \"#utility.yul\":476:479   */\n      dup2\n        /* \"#utility.yul\":463:480   */\n      calldataload\n        /* \"#utility.yul\":455:461   */\n      dup6\n        /* \"#utility.yul\":451:481   */\n      add\n        /* \"#utility.yul\":506:553   */\n      tag_127\n        /* \"#utility.yul\":549:552   */\n      dup9\n        /* \"#utility.yul\":537:547   */\n      dup3\n        /* \"#utility.yul\":506:553   */\n      tag_128\n      jump\t// in\n    tag_127:\n        /* \"#utility.yul\":501:504   */\n      dup5\n        /* \"#utility.yul\":494:554   */\n      mstore\n        /* \"#utility.yul\":583:587   */\n      0x20\n        /* \"#utility.yul\":578:581   */\n      dup5\n        /* \"#utility.yul\":574:588   */\n      add\n        /* \"#utility.yul\":567:588   */\n      swap4\n      pop\n        /* \"#utility.yul\":617:621   */\n      0x20\n        /* \"#utility.yul\":612:615   */\n      dup4\n        /* \"#utility.yul\":608:622   */\n      add\n        /* \"#utility.yul\":601:622   */\n      swap3\n      pop\n        /* \"#utility.yul\":419:632   */\n      pop\n        /* \"#utility.yul\":406:407   */\n      0x01\n        /* \"#utility.yul\":403:404   */\n      dup2\n        /* \"#utility.yul\":399:408   */\n      add\n        /* \"#utility.yul\":394:408   */\n      swap1\n      pop\n        /* \"#utility.yul\":359:632   */\n      jump(tag_124)\n    tag_126:\n        /* \"#utility.yul\":363:377   */\n      pop\n        /* \"#utility.yul\":135:638   */\n      pop\n      pop\n      swap4\n      swap3\n      pop\n      pop\n      pop\n      jump\t// out\n        /* \"#utility.yul\":644:988   */\n    tag_129:\n      0x00\n        /* \"#utility.yul\":747:812   */\n      tag_131\n        /* \"#utility.yul\":762:811   */\n      tag_132\n        /* \"#utility.yul\":804:810   */\n      dup5\n        /* \"#utility.yul\":762:811   */\n      tag_133\n      jump\t// in\n    tag_132:\n        /* \"#utility.yul\":747:812   */\n      tag_123\n      jump\t// in\n    tag_131:\n        /* \"#utility.yul\":738:812   */\n      swap1\n      pop\n        /* \"#utility.yul\":835:841   */\n      dup3\n        /* \"#utility.yul\":828:833   */\n      dup2\n        /* \"#utility.yul\":821:842   */\n      mstore\n        /* \"#utility.yul\":873:877   */\n      0x20\n        /* \"#utility.yul\":866:871   */\n      dup2\n        /* \"#utility.yul\":862:878   */\n      add\n        /* \"#utility.yul\":911:914   */\n      dup5\n        /* \"#utility.yul\":902:908   */\n      dup5\n        /* \"#utility.yul\":897:900   */\n      dup5\n        /* \"#utility.yul\":893:909   */\n      add\n        /* \"#utility.yul\":890:915   */\n      gt\n        /* \"#utility.yul\":887:889   */\n      iszero\n      tag_134\n      jumpi\n        /* \"#utility.yul\":928:929   */\n      0x00\n        /* \"#utility.yul\":925:926   */\n      dup1\n        /* \"#utility.yul\":918:930   */\n      revert\n        /* \"#utility.yul\":887:889   */\n    tag_134:\n        /* \"#utility.yul\":941:982   */\n      tag_135\n        /* \"#utility.yul\":975:981   */\n      dup5\n        /* \"#utility.yul\":970:973   */\n      dup3\n        /* \"#utility.yul\":965:968   */\n      dup6\n        /* \"#utility.yul\":941:982   */\n      tag_136\n      jump\t// in\n    tag_135:\n        /* \"#utility.yul\":728:988   */\n      pop\n      swap4\n      swap3\n      pop\n      pop\n      pop\n      jump\t// out\n        /* \"#utility.yul\":994:1133   */\n    tag_137:\n      0x00\n        /* \"#utility.yul\":1078:1084   */\n      dup2\n        /* \"#utility.yul\":1065:1085   */\n      calldataload\n        /* \"#utility.yul\":1056:1085   */\n      swap1\n      pop\n        /* \"#utility.yul\":1094:1127   */\n      tag_139\n        /* \"#utility.yul\":1121:1126   */\n      dup2\n        /* \"#utility.yul\":1094:1127   */\n      tag_140\n      jump\t// in\n    tag_139:\n        /* \"#utility.yul\":1046:1133   */\n      swap3\n      swap2\n      pop\n      pop\n      jump\t// out\n        /* \"#utility.yul\":1155:1478   */\n    tag_141:\n      0x00\n        /* \"#utility.yul\":1285:1288   */\n      dup3\n        /* \"#utility.yul\":1278:1282   */\n      0x1f\n        /* \"#utility.yul\":1270:1276   */\n      dup4\n        /* \"#utility.yul\":1266:1283   */\n      add\n        /* \"#utility.yul\":1262:1289   */\n      slt\n        /* \"#utility.yul\":1252:1254   */\n      tag_143\n      jumpi\n        /* \"#utility.yul\":1303:1304   */\n      0x00\n        /* \"#utility.yul\":1300:1301   */\n      dup1\n        /* \"#utility.yul\":1293:1305   */\n      revert\n        /* \"#utility.yul\":1252:1254   */\n    tag_143:\n        /* \"#utility.yul\":1343:1349   */\n      dup2\n        /* \"#utility.yul\":1330:1350   */\n      calldataload\n        /* \"#utility.yul\":1368:1472   */\n      tag_144\n        /* \"#utility.yul\":1468:1471   */\n      dup5\n        /* \"#utility.yul\":1460:1466   */\n      dup3\n        /* \"#utility.yul\":1453:1457   */\n      0x20\n        /* \"#utility.yul\":1445:1451   */\n      dup7\n        /* \"#utility.yul\":1441:1458   */\n      add\n        /* \"#utility.yul\":1368:1472   */\n      tag_118\n      jump\t// in\n    tag_144:\n        /* \"#utility.yul\":1359:1472   */\n      swap2\n      pop\n        /* \"#utility.yul\":1242:1478   */\n      pop\n      swap3\n      swap2\n      pop\n      pop\n      jump\t// out\n        /* \"#utility.yul\":1498:1771   */\n    tag_128:\n      0x00\n        /* \"#utility.yul\":1603:1606   */\n      dup3\n        /* \"#utility.yul\":1596:1600   */\n      0x1f\n        /* \"#utility.yul\":1588:1594   */\n      dup4\n        /* \"#utility.yul\":1584:1601   */\n      add\n        /* \"#utility.yul\":1580:1607   */\n      slt\n        /* \"#utility.yul\":1570:1572   */\n      tag_146\n      jumpi\n        /* \"#utility.yul\":1621:1622   */\n      0x00\n        /* \"#utility.yul\":1618:1619   */\n      dup1\n        /* \"#utility.yul\":1611:1623   */\n      revert\n        /* \"#utility.yul\":1570:1572   */\n    tag_146:\n        /* \"#utility.yul\":1661:1667   */\n      dup2\n        /* \"#utility.yul\":1648:1668   */\n      calldataload\n        /* \"#utility.yul\":1686:1765   */\n      tag_147\n        /* \"#utility.yul\":1761:1764   */\n      dup5\n        /* \"#utility.yul\":1753:1759   */\n      dup3\n        /* \"#utility.yul\":1746:1750   */\n      0x20\n        /* \"#utility.yul\":1738:1744   */\n      dup7\n        /* \"#utility.yul\":1734:1751   */\n      add\n        /* \"#utility.yul\":1686:1765   */\n      tag_129\n      jump\t// in\n    tag_147:\n        /* \"#utility.yul\":1677:1765   */\n      swap2\n      pop\n        /* \"#utility.yul\":1560:1771   */\n      pop\n      swap3\n      swap2\n      pop\n      pop\n      jump\t// out\n        /* \"#utility.yul\":1777:1916   */\n    tag_148:\n      0x00\n        /* \"#utility.yul\":1861:1867   */\n      dup2\n        /* \"#utility.yul\":1848:1868   */\n      calldataload\n        /* \"#utility.yul\":1839:1868   */\n      swap1\n      pop\n        /* \"#utility.yul\":1877:1910   */\n      tag_150\n        /* \"#utility.yul\":1904:1909   */\n      dup2\n        /* \"#utility.yul\":1877:1910   */\n      tag_151\n      jump\t// in\n    tag_150:\n        /* \"#utility.yul\":1829:1916   */\n      swap3\n      swap2\n      pop\n      pop\n      jump\t// out\n        /* \"#utility.yul\":1922:2184   */\n    tag_40:\n      0x00\n        /* \"#utility.yul\":2030:2032   */\n      0x20\n        /* \"#utility.yul\":2018:2027   */\n      dup3\n        /* \"#utility.yul\":2009:2016   */\n      dup5\n        /* \"#utility.yul\":2005:2028   */\n      sub\n        /* \"#utility.yul\":2001:2033   */\n      slt\n        /* \"#utility.yul\":1998:2000   */\n      iszero\n      tag_153\n      jumpi\n        /* \"#utility.yul\":2046:2047   */\n      0x00\n        /* \"#utility.yul\":2043:2044   */\n      dup1\n        /* \"#utility.yul\":2036:2048   */\n      revert\n        /* \"#utility.yul\":1998:2000   */\n    tag_153:\n        /* \"#utility.yul\":2089:2090   */\n      0x00\n        /* \"#utility.yul\":2114:2167   */\n      tag_154\n        /* \"#utility.yul\":2159:2166   */\n      dup5\n        /* \"#utility.yul\":2150:2156   */\n      dup3\n        /* \"#utility.yul\":2139:2148   */\n      dup6\n        /* \"#utility.yul\":2135:2157   */\n      add\n        /* \"#utility.yul\":2114:2167   */\n      tag_137\n      jump\t// in\n    tag_154:\n        /* \"#utility.yul\":2104:2167   */\n      swap2\n      pop\n        /* \"#utility.yul\":2060:2177   */\n      pop\n        /* \"#utility.yul\":1988:2184   */\n      swap3\n      swap2\n      pop\n      pop\n      jump\t// out\n        /* \"#utility.yul\":2190:2615   */\n    tag_36:\n      0x00\n        /* \"#utility.yul\":2333:2335   */\n      0x20\n        /* \"#utility.yul\":2321:2330   */\n      dup3\n        /* \"#utility.yul\":2312:2319   */\n      dup5\n        /* \"#utility.yul\":2308:2331   */\n      sub\n        /* \"#utility.yul\":2304:2336   */\n      slt\n        /* \"#utility.yul\":2301:2303   */\n      iszero\n      tag_156\n      jumpi\n        /* \"#utility.yul\":2349:2350   */\n      0x00\n        /* \"#utility.yul\":2346:2347   */\n      dup1\n        /* \"#utility.yul\":2339:2351   */\n      revert\n        /* \"#utility.yul\":2301:2303   */\n    tag_156:\n        /* \"#utility.yul\":2420:2421   */\n      0x00\n        /* \"#utility.yul\":2409:2418   */\n      dup3\n        /* \"#utility.yul\":2405:2422   */\n      add\n        /* \"#utility.yul\":2392:2423   */\n      calldataload\n        /* \"#utility.yul\":2450:2468   */\n      0xffffffffffffffff\n        /* \"#utility.yul\":2442:2448   */\n      dup2\n        /* \"#utility.yul\":2439:2469   */\n      gt\n        /* \"#utility.yul\":2436:2438   */\n      iszero\n      tag_157\n      jumpi\n        /* \"#utility.yul\":2482:2483   */\n      0x00\n        /* \"#utility.yul\":2479:2480   */\n      dup1\n        /* \"#utility.yul\":2472:2484   */\n      revert\n        /* \"#utility.yul\":2436:2438   */\n    tag_157:\n        /* \"#utility.yul\":2510:2598   */\n      tag_158\n        /* \"#utility.yul\":2590:2597   */\n      dup5\n        /* \"#utility.yul\":2581:2587   */\n      dup3\n        /* \"#utility.yul\":2570:2579   */\n      dup6\n        /* \"#utility.yul\":2566:2588   */\n      add\n        /* \"#utility.yul\":2510:2598   */\n      tag_141\n      jump\t// in\n    tag_158:\n        /* \"#utility.yul\":2500:2598   */\n      swap2\n      pop\n        /* \"#utility.yul\":2363:2608   */\n      pop\n        /* \"#utility.yul\":2291:2615   */\n      swap3\n      swap2\n      pop\n      pop\n      jump\t// out\n        /* \"#utility.yul\":2621:2883   */\n    tag_16:\n      0x00\n        /* \"#utility.yul\":2729:2731   */\n      0x20\n        /* \"#utility.yul\":2717:2726   */\n      dup3\n        /* \"#utility.yul\":2708:2715   */\n      dup5\n        /* \"#utility.yul\":2704:2727   */\n      sub\n        /* \"#utility.yul\":2700:2732   */\n      slt\n        /* \"#utility.yul\":2697:2699   */\n      iszero\n      tag_160\n      jumpi\n        /* \"#utility.yul\":2745:2746   */\n      0x00\n        /* \"#utility.yul\":2742:2743   */\n      dup1\n        /* \"#utility.yul\":2735:2747   */\n      revert\n        /* \"#utility.yul\":2697:2699   */\n    tag_160:\n        /* \"#utility.yul\":2788:2789   */\n      0x00\n        /* \"#utility.yul\":2813:2866   */\n      tag_161\n        /* \"#utility.yul\":2858:2865   */\n      dup5\n        /* \"#utility.yul\":2849:2855   */\n      dup3\n        /* \"#utility.yul\":2838:2847   */\n      dup6\n        /* \"#utility.yul\":2834:2856   */\n      add\n        /* \"#utility.yul\":2813:2866   */\n      tag_148\n      jump\t// in\n    tag_161:\n        /* \"#utility.yul\":2803:2866   */\n      swap2\n      pop\n        /* \"#utility.yul\":2759:2876   */\n      pop\n        /* \"#utility.yul\":2687:2883   */\n      swap3\n      swap2\n      pop\n      pop\n      jump\t// out\n        /* \"#utility.yul\":2889:3141   */\n    tag_162:\n      0x00\n        /* \"#utility.yul\":3041:3135   */\n      tag_164\n        /* \"#utility.yul\":3131:3134   */\n      dup4\n        /* \"#utility.yul\":3123:3129   */\n      dup4\n        /* \"#utility.yul\":3041:3135   */\n      tag_165\n      jump\t// in\n    tag_164:\n        /* \"#utility.yul\":3027:3135   */\n      swap1\n      pop\n        /* \"#utility.yul\":3017:3141   */\n      swap3\n      swap2\n      pop\n      pop\n      jump\t// out\n        /* \"#utility.yul\":3147:3265   */\n    tag_166:\n        /* \"#utility.yul\":3234:3258   */\n      tag_168\n        /* \"#utility.yul\":3252:3257   */\n      dup2\n        /* \"#utility.yul\":3234:3258   */\n      tag_169\n      jump\t// in\n    tag_168:\n        /* \"#utility.yul\":3229:3232   */\n      dup3\n        /* \"#utility.yul\":3222:3259   */\n      mstore\n        /* \"#utility.yul\":3212:3265   */\n      pop\n      pop\n      jump\t// out\n        /* \"#utility.yul\":3331:4434   */\n    tag_170:\n      0x00\n        /* \"#utility.yul\":3527:3605   */\n      tag_172\n        /* \"#utility.yul\":3599:3604   */\n      dup3\n        /* \"#utility.yul\":3527:3605   */\n      tag_173\n      jump\t// in\n    tag_172:\n        /* \"#utility.yul\":3621:3731   */\n      tag_174\n        /* \"#utility.yul\":3724:3730   */\n      dup2\n        /* \"#utility.yul\":3719:3722   */\n      dup6\n        /* \"#utility.yul\":3621:3731   */\n      tag_175\n      jump\t// in\n    tag_174:\n        /* \"#utility.yul\":3614:3731   */\n      swap4\n      pop\n        /* \"#utility.yul\":3757:3760   */\n      dup4\n        /* \"#utility.yul\":3802:3806   */\n      0x20\n        /* \"#utility.yul\":3794:3800   */\n      dup3\n        /* \"#utility.yul\":3790:3807   */\n      mul\n        /* \"#utility.yul\":3785:3788   */\n      dup6\n        /* \"#utility.yul\":3781:3808   */\n      add\n        /* \"#utility.yul\":3832:3912   */\n      tag_176\n        /* \"#utility.yul\":3906:3911   */\n      dup6\n        /* \"#utility.yul\":3832:3912   */\n      tag_177\n      jump\t// in\n    tag_176:\n        /* \"#utility.yul\":3935:3942   */\n      dup1\n        /* \"#utility.yul\":3966:3967   */\n      0x00\n        /* \"#utility.yul\":3951:4389   */\n    tag_178:\n        /* \"#utility.yul\":3976:3982   */\n      dup6\n        /* \"#utility.yul\":3973:3974   */\n      dup2\n        /* \"#utility.yul\":3970:3983   */\n      lt\n        /* \"#utility.yul\":3951:4389   */\n      iszero\n      tag_180\n      jumpi\n        /* \"#utility.yul\":4047:4056   */\n      dup5\n        /* \"#utility.yul\":4041:4045   */\n      dup5\n        /* \"#utility.yul\":4037:4057   */\n      sub\n        /* \"#utility.yul\":4032:4035   */\n      dup10\n        /* \"#utility.yul\":4025:4058   */\n      mstore\n        /* \"#utility.yul\":4098:4104   */\n      dup2\n        /* \"#utility.yul\":4092:4105   */\n      mload\n        /* \"#utility.yul\":4126:4238   */\n      tag_181\n        /* \"#utility.yul\":4233:4237   */\n      dup6\n        /* \"#utility.yul\":4218:4231   */\n      dup3\n        /* \"#utility.yul\":4126:4238   */\n      tag_162\n      jump\t// in\n    tag_181:\n        /* \"#utility.yul\":4118:4238   */\n      swap5\n      pop\n        /* \"#utility.yul\":4261:4345   */\n      tag_182\n        /* \"#utility.yul\":4338:4344   */\n      dup4\n        /* \"#utility.yul\":4261:4345   */\n      tag_183\n      jump\t// in\n    tag_182:\n        /* \"#utility.yul\":4251:4345   */\n      swap3\n      pop\n        /* \"#utility.yul\":4374:4378   */\n      0x20\n        /* \"#utility.yul\":4369:4372   */\n      dup11\n        /* \"#utility.yul\":4365:4379   */\n      add\n        /* \"#utility.yul\":4358:4379   */\n      swap10\n      pop\n        /* \"#utility.yul\":4011:4389   */\n      pop\n        /* \"#utility.yul\":3998:3999   */\n      0x01\n        /* \"#utility.yul\":3995:3996   */\n      dup2\n        /* \"#utility.yul\":3991:4000   */\n      add\n        /* \"#utility.yul\":3986:4000   */\n      swap1\n      pop\n        /* \"#utility.yul\":3951:4389   */\n      jump(tag_178)\n    tag_180:\n        /* \"#utility.yul\":3955:3969   */\n      pop\n        /* \"#utility.yul\":4405:4409   */\n      dup3\n        /* \"#utility.yul\":4398:4409   */\n      swap8\n      pop\n        /* \"#utility.yul\":4425:4428   */\n      dup8\n        /* \"#utility.yul\":4418:4428   */\n      swap6\n      pop\n        /* \"#utility.yul\":3503:4434   */\n      pop\n      pop\n      pop\n      pop\n      pop\n      swap3\n      swap2\n      pop\n      pop\n      jump\t// out\n        /* \"#utility.yul\":4440:4549   */\n    tag_184:\n        /* \"#utility.yul\":4521:4542   */\n      tag_186\n        /* \"#utility.yul\":4536:4541   */\n      dup2\n        /* \"#utility.yul\":4521:4542   */\n      tag_187\n      jump\t// in\n    tag_186:\n        /* \"#utility.yul\":4516:4519   */\n      dup3\n        /* \"#utility.yul\":4509:4543   */\n      mstore\n        /* \"#utility.yul\":4499:4549   */\n      pop\n      pop\n      jump\t// out\n        /* \"#utility.yul\":4555:4899   */\n    tag_188:\n      0x00\n        /* \"#utility.yul\":4661:4700   */\n      tag_190\n        /* \"#utility.yul\":4694:4699   */\n      dup3\n        /* \"#utility.yul\":4661:4700   */\n      tag_191\n      jump\t// in\n    tag_190:\n        /* \"#utility.yul\":4716:4777   */\n      tag_192\n        /* \"#utility.yul\":4770:4776   */\n      dup2\n        /* \"#utility.yul\":4765:4768   */\n      dup6\n        /* \"#utility.yul\":4716:4777   */\n      tag_193\n      jump\t// in\n    tag_192:\n        /* \"#utility.yul\":4709:4777   */\n      swap4\n      pop\n        /* \"#utility.yul\":4786:4838   */\n      tag_194\n        /* \"#utility.yul\":4831:4837   */\n      dup2\n        /* \"#utility.yul\":4826:4829   */\n      dup6\n        /* \"#utility.yul\":4819:4823   */\n      0x20\n        /* \"#utility.yul\":4812:4817   */\n      dup7\n        /* \"#utility.yul\":4808:4824   */\n      add\n        /* \"#utility.yul\":4786:4838   */\n      tag_195\n      jump\t// in\n    tag_194:\n        /* \"#utility.yul\":4863:4892   */\n      tag_196\n        /* \"#utility.yul\":4885:4891   */\n      dup2\n        /* \"#utility.yul\":4863:4892   */\n      tag_197\n      jump\t// in\n    tag_196:\n        /* \"#utility.yul\":4858:4861   */\n      dup5\n        /* \"#utility.yul\":4854:4893   */\n      add\n        /* \"#utility.yul\":4847:4893   */\n      swap2\n      pop\n        /* \"#utility.yul\":4637:4899   */\n      pop\n      swap3\n      swap2\n      pop\n      pop\n      jump\t// out\n        /* \"#utility.yul\":4905:5269   */\n    tag_198:\n      0x00\n        /* \"#utility.yul\":5021:5060   */\n      tag_200\n        /* \"#utility.yul\":5054:5059   */\n      dup3\n        /* \"#utility.yul\":5021:5060   */\n      tag_191\n      jump\t// in\n    tag_200:\n        /* \"#utility.yul\":5076:5147   */\n      tag_201\n        /* \"#utility.yul\":5140:5146   */\n      dup2\n        /* \"#utility.yul\":5135:5138   */\n      dup6\n        /* \"#utility.yul\":5076:5147   */\n      tag_202\n      jump\t// in\n    tag_201:\n        /* \"#utility.yul\":5069:5147   */\n      swap4\n      pop\n        /* \"#utility.yul\":5156:5208   */\n      tag_203\n        /* \"#utility.yul\":5201:5207   */\n      dup2\n        /* \"#utility.yul\":5196:5199   */\n      dup6\n        /* \"#utility.yul\":5189:5193   */\n      0x20\n        /* \"#utility.yul\":5182:5187   */\n      dup7\n        /* \"#utility.yul\":5178:5194   */\n      add\n        /* \"#utility.yul\":5156:5208   */\n      tag_195\n      jump\t// in\n    tag_203:\n        /* \"#utility.yul\":5233:5262   */\n      tag_204\n        /* \"#utility.yul\":5255:5261   */\n      dup2\n        /* \"#utility.yul\":5233:5262   */\n      tag_197\n      jump\t// in\n    tag_204:\n        /* \"#utility.yul\":5228:5231   */\n      dup5\n        /* \"#utility.yul\":5224:5263   */\n      add\n        /* \"#utility.yul\":5217:5263   */\n      swap2\n      pop\n        /* \"#utility.yul\":4997:5269   */\n      pop\n      swap3\n      swap2\n      pop\n      pop\n      jump\t// out\n        /* \"#utility.yul\":5331:5930   */\n    tag_165:\n      0x00\n        /* \"#utility.yul\":5474:5478   */\n      0x40\n        /* \"#utility.yul\":5469:5472   */\n      dup4\n        /* \"#utility.yul\":5465:5479   */\n      add\n        /* \"#utility.yul\":5561:5565   */\n      0x00\n        /* \"#utility.yul\":5554:5559   */\n      dup4\n        /* \"#utility.yul\":5550:5566   */\n      add\n        /* \"#utility.yul\":5544:5567   */\n      mload\n        /* \"#utility.yul\":5614:5617   */\n      dup5\n        /* \"#utility.yul\":5608:5612   */\n      dup3\n        /* \"#utility.yul\":5604:5618   */\n      sub\n        /* \"#utility.yul\":5597:5601   */\n      0x00\n        /* \"#utility.yul\":5592:5595   */\n      dup7\n        /* \"#utility.yul\":5588:5602   */\n      add\n        /* \"#utility.yul\":5581:5619   */\n      mstore\n        /* \"#utility.yul\":5640:5713   */\n      tag_206\n        /* \"#utility.yul\":5708:5712   */\n      dup3\n        /* \"#utility.yul\":5694:5706   */\n      dup3\n        /* \"#utility.yul\":5640:5713   */\n      tag_188\n      jump\t// in\n    tag_206:\n        /* \"#utility.yul\":5632:5713   */\n      swap2\n      pop\n        /* \"#utility.yul\":5489:5724   */\n      pop\n        /* \"#utility.yul\":5811:5815   */\n      0x20\n        /* \"#utility.yul\":5804:5809   */\n      dup4\n        /* \"#utility.yul\":5800:5816   */\n      add\n        /* \"#utility.yul\":5794:5817   */\n      mload\n        /* \"#utility.yul\":5830:5893   */\n      tag_207\n        /* \"#utility.yul\":5887:5891   */\n      0x20\n        /* \"#utility.yul\":5882:5885   */\n      dup7\n        /* \"#utility.yul\":5878:5892   */\n      add\n        /* \"#utility.yul\":5864:5876   */\n      dup3\n        /* \"#utility.yul\":5830:5893   */\n      tag_208\n      jump\t// in\n    tag_207:\n        /* \"#utility.yul\":5734:5903   */\n      pop\n        /* \"#utility.yul\":5920:5924   */\n      dup1\n        /* \"#utility.yul\":5913:5924   */\n      swap2\n      pop\n        /* \"#utility.yul\":5443:5930   */\n      pop\n      swap3\n      swap2\n      pop\n      pop\n      jump\t// out\n        /* \"#utility.yul\":5992:6601   */\n    tag_209:\n      0x00\n        /* \"#utility.yul\":6145:6149   */\n      0x40\n        /* \"#utility.yul\":6140:6143   */\n      dup4\n        /* \"#utility.yul\":6136:6150   */\n      add\n        /* \"#utility.yul\":6232:6236   */\n      0x00\n        /* \"#utility.yul\":6225:6230   */\n      dup4\n        /* \"#utility.yul\":6221:6237   */\n      add\n        /* \"#utility.yul\":6215:6238   */\n      mload\n        /* \"#utility.yul\":6285:6288   */\n      dup5\n        /* \"#utility.yul\":6279:6283   */\n      dup3\n        /* \"#utility.yul\":6275:6289   */\n      sub\n        /* \"#utility.yul\":6268:6272   */\n      0x00\n        /* \"#utility.yul\":6263:6266   */\n      dup7\n        /* \"#utility.yul\":6259:6273   */\n      add\n        /* \"#utility.yul\":6252:6290   */\n      mstore\n        /* \"#utility.yul\":6311:6384   */\n      tag_211\n        /* \"#utility.yul\":6379:6383   */\n      dup3\n        /* \"#utility.yul\":6365:6377   */\n      dup3\n        /* \"#utility.yul\":6311:6384   */\n      tag_188\n      jump\t// in\n    tag_211:\n        /* \"#utility.yul\":6303:6384   */\n      swap2\n      pop\n        /* \"#utility.yul\":6160:6395   */\n      pop\n        /* \"#utility.yul\":6482:6486   */\n      0x20\n        /* \"#utility.yul\":6475:6480   */\n      dup4\n        /* \"#utility.yul\":6471:6487   */\n      add\n        /* \"#utility.yul\":6465:6488   */\n      mload\n        /* \"#utility.yul\":6501:6564   */\n      tag_212\n        /* \"#utility.yul\":6558:6562   */\n      0x20\n        /* \"#utility.yul\":6553:6556   */\n      dup7\n        /* \"#utility.yul\":6549:6563   */\n      add\n        /* \"#utility.yul\":6535:6547   */\n      dup3\n        /* \"#utility.yul\":6501:6564   */\n      tag_208\n      jump\t// in\n    tag_212:\n        /* \"#utility.yul\":6405:6574   */\n      pop\n        /* \"#utility.yul\":6591:6595   */\n      dup1\n        /* \"#utility.yul\":6584:6595   */\n      swap2\n      pop\n        /* \"#utility.yul\":6114:6601   */\n      pop\n      swap3\n      swap2\n      pop\n      pop\n      jump\t// out\n        /* \"#utility.yul\":6607:6715   */\n    tag_208:\n        /* \"#utility.yul\":6684:6708   */\n      tag_214\n        /* \"#utility.yul\":6702:6707   */\n      dup2\n        /* \"#utility.yul\":6684:6708   */\n      tag_215\n      jump\t// in\n    tag_214:\n        /* \"#utility.yul\":6679:6682   */\n      dup3\n        /* \"#utility.yul\":6672:6709   */\n      mstore\n        /* \"#utility.yul\":6662:6715   */\n      pop\n      pop\n      jump\t// out\n        /* \"#utility.yul\":6721:6839   */\n    tag_216:\n        /* \"#utility.yul\":6808:6832   */\n      tag_218\n        /* \"#utility.yul\":6826:6831   */\n      dup2\n        /* \"#utility.yul\":6808:6832   */\n      tag_215\n      jump\t// in\n    tag_218:\n        /* \"#utility.yul\":6803:6806   */\n      dup3\n        /* \"#utility.yul\":6796:6833   */\n      mstore\n        /* \"#utility.yul\":6786:6839   */\n      pop\n      pop\n      jump\t// out\n        /* \"#utility.yul\":6845:7314   */\n    tag_30:\n      0x00\n        /* \"#utility.yul\":7074:7076   */\n      0x20\n        /* \"#utility.yul\":7063:7072   */\n      dup3\n        /* \"#utility.yul\":7059:7077   */\n      add\n        /* \"#utility.yul\":7051:7077   */\n      swap1\n      pop\n        /* \"#utility.yul\":7123:7132   */\n      dup2\n        /* \"#utility.yul\":7117:7121   */\n      dup2\n        /* \"#utility.yul\":7113:7133   */\n      sub\n        /* \"#utility.yul\":7109:7110   */\n      0x00\n        /* \"#utility.yul\":7098:7107   */\n      dup4\n        /* \"#utility.yul\":7094:7111   */\n      add\n        /* \"#utility.yul\":7087:7134   */\n      mstore\n        /* \"#utility.yul\":7151:7307   */\n      tag_220\n        /* \"#utility.yul\":7302:7306   */\n      dup2\n        /* \"#utility.yul\":7293:7299   */\n      dup5\n        /* \"#utility.yul\":7151:7307   */\n      tag_170\n      jump\t// in\n    tag_220:\n        /* \"#utility.yul\":7143:7307   */\n      swap1\n      pop\n        /* \"#utility.yul\":7041:7314   */\n      swap3\n      swap2\n      pop\n      pop\n      jump\t// out\n        /* \"#utility.yul\":7320:7743   */\n    tag_22:\n      0x00\n        /* \"#utility.yul\":7499:7501   */\n      0x40\n        /* \"#utility.yul\":7488:7497   */\n      dup3\n        /* \"#utility.yul\":7484:7502   */\n      add\n        /* \"#utility.yul\":7476:7502   */\n      swap1\n      pop\n        /* \"#utility.yul\":7548:7557   */\n      dup2\n        /* \"#utility.yul\":7542:7546   */\n      dup2\n        /* \"#utility.yul\":7538:7558   */\n      sub\n        /* \"#utility.yul\":7534:7535   */\n      0x00\n        /* \"#utility.yul\":7523:7532   */\n      dup4\n        /* \"#utility.yul\":7519:7536   */\n      add\n        /* \"#utility.yul\":7512:7559   */\n      mstore\n        /* \"#utility.yul\":7576:7654   */\n      tag_222\n        /* \"#utility.yul\":7649:7653   */\n      dup2\n        /* \"#utility.yul\":7640:7646   */\n      dup6\n        /* \"#utility.yul\":7576:7654   */\n      tag_198\n      jump\t// in\n    tag_222:\n        /* \"#utility.yul\":7568:7654   */\n      swap1\n      pop\n        /* \"#utility.yul\":7664:7736   */\n      tag_223\n        /* \"#utility.yul\":7732:7734   */\n      0x20\n        /* \"#utility.yul\":7721:7730   */\n      dup4\n        /* \"#utility.yul\":7717:7735   */\n      add\n        /* \"#utility.yul\":7708:7714   */\n      dup5\n        /* \"#utility.yul\":7664:7736   */\n      tag_216\n      jump\t// in\n    tag_223:\n        /* \"#utility.yul\":7466:7743   */\n      swap4\n      swap3\n      pop\n      pop\n      pop\n      jump\t// out\n        /* \"#utility.yul\":7749:8118   */\n    tag_54:\n      0x00\n        /* \"#utility.yul\":7928:7930   */\n      0x20\n        /* \"#utility.yul\":7917:7926   */\n      dup3\n        /* \"#utility.yul\":7913:7931   */\n      add\n        /* \"#utility.yul\":7905:7931   */\n      swap1\n      pop\n        /* \"#utility.yul\":7977:7986   */\n      dup2\n        /* \"#utility.yul\":7971:7975   */\n      dup2\n        /* \"#utility.yul\":7967:7987   */\n      sub\n        /* \"#utility.yul\":7963:7964   */\n      0x00\n        /* \"#utility.yul\":7952:7961   */\n      dup4\n        /* \"#utility.yul\":7948:7965   */\n      add\n        /* \"#utility.yul\":7941:7988   */\n      mstore\n        /* \"#utility.yul\":8005:8111   */\n      tag_225\n        /* \"#utility.yul\":8106:8110   */\n      dup2\n        /* \"#utility.yul\":8097:8103   */\n      dup5\n        /* \"#utility.yul\":8005:8111   */\n      tag_209\n      jump\t// in\n    tag_225:\n        /* \"#utility.yul\":7997:8111   */\n      swap1\n      pop\n        /* \"#utility.yul\":7895:8118   */\n      swap3\n      swap2\n      pop\n      pop\n      jump\t// out\n        /* \"#utility.yul\":8124:8346   */\n    tag_26:\n      0x00\n        /* \"#utility.yul\":8255:8257   */\n      0x20\n        /* \"#utility.yul\":8244:8253   */\n      dup3\n        /* \"#utility.yul\":8240:8258   */\n      add\n        /* \"#utility.yul\":8232:8258   */\n      swap1\n      pop\n        /* \"#utility.yul\":8268:8339   */\n      tag_227\n        /* \"#utility.yul\":8336:8337   */\n      0x00\n        /* \"#utility.yul\":8325:8334   */\n      dup4\n        /* \"#utility.yul\":8321:8338   */\n      add\n        /* \"#utility.yul\":8312:8318   */\n      dup5\n        /* \"#utility.yul\":8268:8339   */\n      tag_216\n      jump\t// in\n    tag_227:\n        /* \"#utility.yul\":8222:8346   */\n      swap3\n      swap2\n      pop\n      pop\n      jump\t// out\n        /* \"#utility.yul\":8352:8893   */\n    tag_46:\n      0x00\n        /* \"#utility.yul\":8561:8564   */\n      0x80\n        /* \"#utility.yul\":8550:8559   */\n      dup3\n        /* \"#utility.yul\":8546:8565   */\n      add\n        /* \"#utility.yul\":8538:8565   */\n      swap1\n      pop\n        /* \"#utility.yul\":8575:8646   */\n      tag_229\n        /* \"#utility.yul\":8643:8644   */\n      0x00\n        /* \"#utility.yul\":8632:8641   */\n      dup4\n        /* \"#utility.yul\":8628:8645   */\n      add\n        /* \"#utility.yul\":8619:8625   */\n      dup8\n        /* \"#utility.yul\":8575:8646   */\n      tag_216\n      jump\t// in\n    tag_229:\n        /* \"#utility.yul\":8656:8722   */\n      tag_230\n        /* \"#utility.yul\":8718:8720   */\n      0x20\n        /* \"#utility.yul\":8707:8716   */\n      dup4\n        /* \"#utility.yul\":8703:8721   */\n      add\n        /* \"#utility.yul\":8694:8700   */\n      dup7\n        /* \"#utility.yul\":8656:8722   */\n      tag_184\n      jump\t// in\n    tag_230:\n        /* \"#utility.yul\":8732:8804   */\n      tag_231\n        /* \"#utility.yul\":8800:8802   */\n      0x40\n        /* \"#utility.yul\":8789:8798   */\n      dup4\n        /* \"#utility.yul\":8785:8803   */\n      add\n        /* \"#utility.yul\":8776:8782   */\n      dup6\n        /* \"#utility.yul\":8732:8804   */\n      tag_166\n      jump\t// in\n    tag_231:\n        /* \"#utility.yul\":8814:8886   */\n      tag_232\n        /* \"#utility.yul\":8882:8884   */\n      0x60\n        /* \"#utility.yul\":8871:8880   */\n      dup4\n        /* \"#utility.yul\":8867:8885   */\n      add\n        /* \"#utility.yul\":8858:8864   */\n      dup5\n        /* \"#utility.yul\":8814:8886   */\n      tag_216\n      jump\t// in\n    tag_232:\n        /* \"#utility.yul\":8528:8893   */\n      swap6\n      swap5\n      pop\n      pop\n      pop\n      pop\n      pop\n      jump\t// out\n        /* \"#utility.yul\":8899:9182   */\n    tag_123:\n      0x00\n        /* \"#utility.yul\":8965:8967   */\n      0x40\n        /* \"#utility.yul\":8959:8968   */\n      mload\n        /* \"#utility.yul\":8949:8968   */\n      swap1\n      pop\n        /* \"#utility.yul\":9007:9011   */\n      dup2\n        /* \"#utility.yul\":8999:9005   */\n      dup2\n        /* \"#utility.yul\":8995:9012   */\n      add\n        /* \"#utility.yul\":9114:9120   */\n      dup2\n        /* \"#utility.yul\":9102:9112   */\n      dup2\n        /* \"#utility.yul\":9099:9121   */\n      lt\n        /* \"#utility.yul\":9078:9096   */\n      0xffffffffffffffff\n        /* \"#utility.yul\":9066:9076   */\n      dup3\n        /* \"#utility.yul\":9063:9097   */\n      gt\n        /* \"#utility.yul\":9060:9122   */\n      or\n        /* \"#utility.yul\":9057:9059   */\n      iszero\n      tag_234\n      jumpi\n        /* \"#utility.yul\":9125:9143   */\n      tag_235\n      tag_236\n      jump\t// in\n    tag_235:\n        /* \"#utility.yul\":9057:9059   */\n    tag_234:\n        /* \"#utility.yul\":9165:9175   */\n      dup1\n        /* \"#utility.yul\":9161:9163   */\n      0x40\n        /* \"#utility.yul\":9154:9176   */\n      mstore\n        /* \"#utility.yul\":8939:9182   */\n      pop\n      swap2\n      swap1\n      pop\n      jump\t// out\n        /* \"#utility.yul\":9188:9509   */\n    tag_122:\n      0x00\n        /* \"#utility.yul\":9365:9383   */\n      0xffffffffffffffff\n        /* \"#utility.yul\":9357:9363   */\n      dup3\n        /* \"#utility.yul\":9354:9384   */\n      gt\n        /* \"#utility.yul\":9351:9353   */\n      iszero\n      tag_238\n      jumpi\n        /* \"#utility.yul\":9387:9405   */\n      tag_239\n      tag_236\n      jump\t// in\n    tag_239:\n        /* \"#utility.yul\":9351:9353   */\n    tag_238:\n        /* \"#utility.yul\":9437:9441   */\n      0x20\n        /* \"#utility.yul\":9429:9435   */\n      dup3\n        /* \"#utility.yul\":9425:9442   */\n      mul\n        /* \"#utility.yul\":9417:9442   */\n      swap1\n      pop\n        /* \"#utility.yul\":9497:9501   */\n      0x20\n        /* \"#utility.yul\":9491:9495   */\n      dup2\n        /* \"#utility.yul\":9487:9502   */\n      add\n        /* \"#utility.yul\":9479:9502   */\n      swap1\n      pop\n        /* \"#utility.yul\":9280:9509   */\n      swap2\n      swap1\n      pop\n      jump\t// out\n        /* \"#utility.yul\":9515:9847   */\n    tag_133:\n      0x00\n        /* \"#utility.yul\":9667:9685   */\n      0xffffffffffffffff\n        /* \"#utility.yul\":9659:9665   */\n      dup3\n        /* \"#utility.yul\":9656:9686   */\n      gt\n        /* \"#utility.yul\":9653:9655   */\n      iszero\n      tag_241\n      jumpi\n        /* \"#utility.yul\":9689:9707   */\n      tag_242\n      tag_236\n      jump\t// in\n    tag_242:\n        /* \"#utility.yul\":9653:9655   */\n    tag_241:\n        /* \"#utility.yul\":9774:9778   */\n      0x1f\n        /* \"#utility.yul\":9770:9779   */\n      not\n        /* \"#utility.yul\":9763:9767   */\n      0x1f\n        /* \"#utility.yul\":9755:9761   */\n      dup4\n        /* \"#utility.yul\":9751:9768   */\n      add\n        /* \"#utility.yul\":9747:9780   */\n      and\n        /* \"#utility.yul\":9739:9780   */\n      swap1\n      pop\n        /* \"#utility.yul\":9835:9839   */\n      0x20\n        /* \"#utility.yul\":9829:9833   */\n      dup2\n        /* \"#utility.yul\":9825:9840   */\n      add\n        /* \"#utility.yul\":9817:9840   */\n      swap1\n      pop\n        /* \"#utility.yul\":9582:9847   */\n      swap2\n      swap1\n      pop\n      jump\t// out\n        /* \"#utility.yul\":9853:10009   */\n    tag_177:\n      0x00\n        /* \"#utility.yul\":9967:9970   */\n      dup2\n        /* \"#utility.yul\":9959:9970   */\n      swap1\n      pop\n        /* \"#utility.yul\":9997:10001   */\n      0x20\n        /* \"#utility.yul\":9992:9995   */\n      dup3\n        /* \"#utility.yul\":9988:10002   */\n      add\n        /* \"#utility.yul\":9980:10002   */\n      swap1\n      pop\n        /* \"#utility.yul\":9949:10009   */\n      swap2\n      swap1\n      pop\n      jump\t// out\n        /* \"#utility.yul\":10015:10153   */\n    tag_173:\n      0x00\n        /* \"#utility.yul\":10140:10145   */\n      dup2\n        /* \"#utility.yul\":10134:10146   */\n      mload\n        /* \"#utility.yul\":10124:10146   */\n      swap1\n      pop\n        /* \"#utility.yul\":10113:10153   */\n      swap2\n      swap1\n      pop\n      jump\t// out\n        /* \"#utility.yul\":10159:10258   */\n    tag_191:\n      0x00\n        /* \"#utility.yul\":10245:10250   */\n      dup2\n        /* \"#utility.yul\":10239:10251   */\n      mload\n        /* \"#utility.yul\":10229:10251   */\n      swap1\n      pop\n        /* \"#utility.yul\":10218:10258   */\n      swap2\n      swap1\n      pop\n      jump\t// out\n        /* \"#utility.yul\":10264:10401   */\n    tag_183:\n      0x00\n        /* \"#utility.yul\":10390:10394   */\n      0x20\n        /* \"#utility.yul\":10385:10388   */\n      dup3\n        /* \"#utility.yul\":10381:10395   */\n      add\n        /* \"#utility.yul\":10373:10395   */\n      swap1\n      pop\n        /* \"#utility.yul\":10363:10401   */\n      swap2\n      swap1\n      pop\n      jump\t// out\n        /* \"#utility.yul\":10407:10615   */\n    tag_175:\n      0x00\n        /* \"#utility.yul\":10564:10570   */\n      dup3\n        /* \"#utility.yul\":10559:10562   */\n      dup3\n        /* \"#utility.yul\":10552:10571   */\n      mstore\n        /* \"#utility.yul\":10604:10608   */\n      0x20\n        /* \"#utility.yul\":10599:10602   */\n      dup3\n        /* \"#utility.yul\":10595:10609   */\n      add\n        /* \"#utility.yul\":10580:10609   */\n      swap1\n      pop\n        /* \"#utility.yul\":10542:10615   */\n      swap3\n      swap2\n      pop\n      pop\n      jump\t// out\n        /* \"#utility.yul\":10621:10780   */\n    tag_193:\n      0x00\n        /* \"#utility.yul\":10729:10735   */\n      dup3\n        /* \"#utility.yul\":10724:10727   */\n      dup3\n        /* \"#utility.yul\":10717:10736   */\n      mstore\n        /* \"#utility.yul\":10769:10773   */\n      0x20\n        /* \"#utility.yul\":10764:10767   */\n      dup3\n        /* \"#utility.yul\":10760:10774   */\n      add\n        /* \"#utility.yul\":10745:10774   */\n      swap1\n      pop\n        /* \"#utility.yul\":10707:10780   */\n      swap3\n      swap2\n      pop\n      pop\n      jump\t// out\n        /* \"#utility.yul\":10786:10955   */\n    tag_202:\n      0x00\n        /* \"#utility.yul\":10904:10910   */\n      dup3\n        /* \"#utility.yul\":10899:10902   */\n      dup3\n        /* \"#utility.yul\":10892:10911   */\n      mstore\n        /* \"#utility.yul\":10944:10948   */\n      0x20\n        /* \"#utility.yul\":10939:10942   */\n      dup3\n        /* \"#utility.yul\":10935:10949   */\n      add\n        /* \"#utility.yul\":10920:10949   */\n      swap1\n      pop\n        /* \"#utility.yul\":10882:10955   */\n      swap3\n      swap2\n      pop\n      pop\n      jump\t// out\n        /* \"#utility.yul\":10961:11266   */\n    tag_60:\n      0x00\n        /* \"#utility.yul\":11020:11040   */\n      tag_251\n        /* \"#utility.yul\":11038:11039   */\n      dup3\n        /* \"#utility.yul\":11020:11040   */\n      tag_215\n      jump\t// in\n    tag_251:\n        /* \"#utility.yul\":11015:11040   */\n      swap2\n      pop\n        /* \"#utility.yul\":11054:11074   */\n      tag_252\n        /* \"#utility.yul\":11072:11073   */\n      dup4\n        /* \"#utility.yul\":11054:11074   */\n      tag_215\n      jump\t// in\n    tag_252:\n        /* \"#utility.yul\":11049:11074   */\n      swap3\n      pop\n        /* \"#utility.yul\":11208:11209   */\n      dup3\n        /* \"#utility.yul\":11140:11206   */\n      0xffffffffffffffffffffffffffffffffffffffffffffffffffffffffffffffff\n        /* \"#utility.yul\":11136:11210   */\n      sub\n        /* \"#utility.yul\":11133:11134   */\n      dup3\n        /* \"#utility.yul\":11130:11211   */\n      gt\n        /* \"#utility.yul\":11127:11129   */\n      iszero\n      tag_253\n      jumpi\n        /* \"#utility.yul\":11214:11232   */\n      tag_254\n      tag_255\n      jump\t// in\n    tag_254:\n        /* \"#utility.yul\":11127:11129   */\n    tag_253:\n        /* \"#utility.yul\":11258:11259   */\n      dup3\n        /* \"#utility.yul\":11255:11256   */\n      dup3\n        /* \"#utility.yul\":11251:11260   */\n      add\n        /* \"#utility.yul\":11244:11260   */\n      swap1\n      pop\n        /* \"#utility.yul\":11005:11266   */\n      swap3\n      swap2\n      pop\n      pop\n      jump\t// out\n        /* \"#utility.yul\":11272:11368   */\n    tag_169:\n      0x00\n        /* \"#utility.yul\":11338:11362   */\n      tag_257\n        /* \"#utility.yul\":11356:11361   */\n      dup3\n        /* \"#utility.yul\":11338:11362   */\n      tag_258\n      jump\t// in\n    tag_257:\n        /* \"#utility.yul\":11327:11362   */\n      swap1\n      pop\n        /* \"#utility.yul\":11317:11368   */\n      swap2\n      swap1\n      pop\n      jump\t// out\n        /* \"#utility.yul\":11374:11464   */\n    tag_187:\n      0x00\n        /* \"#utility.yul\":11451:11456   */\n      dup2\n        /* \"#utility.yul\":11444:11457   */\n      iszero\n        /* \"#utility.yul\":11437:11458   */\n      iszero\n        /* \"#utility.yul\":11426:11458   */\n      swap1\n      pop\n        /* \"#utility.yul\":11416:11464   */\n      swap2\n      swap1\n      pop\n      jump\t// out\n        /* \"#utility.yul\":11470:11596   */\n    tag_258:\n      0x00\n        /* \"#utility.yul\":11547:11589   */\n      0xffffffffffffffffffffffffffffffffffffffff\n        /* \"#utility.yul\":11540:11545   */\n      dup3\n        /* \"#utility.yul\":11536:11590   */\n      and\n        /* \"#utility.yul\":11525:11590   */\n      swap1\n      pop\n        /* \"#utility.yul\":11515:11596   */\n      swap2\n      swap1\n      pop\n      jump\t// out\n        /* \"#utility.yul\":11602:11679   */\n    tag_215:\n      0x00\n        /* \"#utility.yul\":11668:11673   */\n      dup2\n        /* \"#utility.yul\":11657:11673   */\n      swap1\n      pop\n        /* \"#utility.yul\":11647:11679   */\n      swap2\n      swap1\n      pop\n      jump\t// out\n        /* \"#utility.yul\":11685:11839   */\n    tag_136:\n        /* \"#utility.yul\":11769:11775   */\n      dup3\n        /* \"#utility.yul\":11764:11767   */\n      dup2\n        /* \"#utility.yul\":11759:11762   */\n      dup4\n        /* \"#utility.yul\":11746:11776   */\n      calldatacopy\n        /* \"#utility.yul\":11831:11832   */\n      0x00\n        /* \"#utility.yul\":11822:11828   */\n      dup4\n        /* \"#utility.yul\":11817:11820   */\n      dup4\n        /* \"#utility.yul\":11813:11829   */\n      add\n        /* \"#utility.yul\":11806:11833   */\n      mstore\n        /* \"#utility.yul\":11736:11839   */\n      pop\n      pop\n      pop\n      jump\t// out\n        /* \"#utility.yul\":11845:12152   */\n    tag_195:\n        /* \"#utility.yul\":11913:11914   */\n      0x00\n        /* \"#utility.yul\":11923:12036   */\n    tag_264:\n        /* \"#utility.yul\":11937:11943   */\n      dup4\n        /* \"#utility.yul\":11934:11935   */\n      dup2\n        /* \"#utility.yul\":11931:11944   */\n      lt\n        /* \"#utility.yul\":11923:12036   */\n      iszero\n      tag_266\n      jumpi\n        /* \"#utility.yul\":12022:12023   */\n      dup1\n        /* \"#utility.yul\":12017:12020   */\n      dup3\n        /* \"#utility.yul\":12013:12024   */\n      add\n        /* \"#utility.yul\":12007:12025   */\n      mload\n        /* \"#utility.yul\":12003:12004   */\n      dup2\n        /* \"#utility.yul\":11998:12001   */\n      dup5\n        /* \"#utility.yul\":11994:12005   */\n      add\n        /* \"#utility.yul\":11987:12026   */\n      mstore\n        /* \"#utility.yul\":11959:11961   */\n      0x20\n        /* \"#utility.yul\":11956:11957   */\n      dup2\n        /* \"#utility.yul\":11952:11962   */\n      add\n        /* \"#utility.yul\":11947:11962   */\n      swap1\n      pop\n        /* \"#utility.yul\":11923:12036   */\n      jump(tag_264)\n    tag_266:\n        /* \"#utility.yul\":12054:12060   */\n      dup4\n        /* \"#utility.yul\":12051:12052   */\n      dup2\n        /* \"#utility.yul\":12048:12061   */\n      gt\n        /* \"#utility.yul\":12045:12047   */\n      iszero\n      tag_267\n      jumpi\n        /* \"#utility.yul\":12134:12135   */\n      0x00\n        /* \"#utility.yul\":12125:12131   */\n      dup5\n        /* \"#utility.yul\":12120:12123   */\n      dup5\n        /* \"#utility.yul\":12116:12132   */\n      add\n        /* \"#utility.yul\":12109:12136   */\n      mstore\n        /* \"#utility.yul\":12045:12047   */\n    tag_267:\n        /* \"#utility.yul\":11894:12152   */\n      pop\n      pop\n      pop\n      pop\n      jump\t// out\n        /* \"#utility.yul\":12158:12478   */\n    tag_64:\n      0x00\n        /* \"#utility.yul\":12239:12240   */\n      0x02\n        /* \"#utility.yul\":12233:12237   */\n      dup3\n        /* \"#utility.yul\":12229:12241   */\n      div\n        /* \"#utility.yul\":12219:12241   */\n      swap1\n      pop\n        /* \"#utility.yul\":12286:12287   */\n      0x01\n        /* \"#utility.yul\":12280:12284   */\n      dup3\n        /* \"#utility.yul\":12276:12288   */\n      and\n        /* \"#utility.yul\":12307:12325   */\n      dup1\n        /* \"#utility.yul\":12297:12299   */\n      tag_269\n      jumpi\n        /* \"#utility.yul\":12363:12367   */\n      0x7f\n        /* \"#utility.yul\":12355:12361   */\n      dup3\n        /* \"#utility.yul\":12351:12368   */\n      and\n        /* \"#utility.yul\":12341:12368   */\n      swap2\n      pop\n        /* \"#utility.yul\":12297:12299   */\n    tag_269:\n        /* \"#utility.yul\":12425:12427   */\n      0x20\n        /* \"#utility.yul\":12417:12423   */\n      dup3\n        /* \"#utility.yul\":12414:12428   */\n      lt\n        /* \"#utility.yul\":12394:12412   */\n      dup2\n        /* \"#utility.yul\":12391:12429   */\n      eq\n        /* \"#utility.yul\":12388:12390   */\n      iszero\n      tag_270\n      jumpi\n        /* \"#utility.yul\":12444:12462   */\n      tag_271\n      tag_272\n      jump\t// in\n    tag_271:\n        /* \"#utility.yul\":12388:12390   */\n    tag_270:\n        /* \"#utility.yul\":12209:12478   */\n      pop\n      swap2\n      swap1\n      pop\n      jump\t// out\n        /* \"#utility.yul\":12484:12717   */\n    tag_90:\n      0x00\n        /* \"#utility.yul\":12546:12570   */\n      tag_274\n        /* \"#utility.yul\":12564:12569   */\n      dup3\n        /* \"#utility.yul\":12546:12570   */\n      tag_215\n      jump\t// in\n    tag_274:\n        /* \"#utility.yul\":12537:12570   */\n      swap2\n      pop\n        /* \"#utility.yul\":12592:12658   */\n      0xffffffffffffffffffffffffffffffffffffffffffffffffffffffffffffffff\n        /* \"#utility.yul\":12585:12590   */\n      dup3\n        /* \"#utility.yul\":12582:12659   */\n      eq\n        /* \"#utility.yul\":12579:12581   */\n      iszero\n      tag_275\n      jumpi\n        /* \"#utility.yul\":12662:12680   */\n      tag_276\n      tag_255\n      jump\t// in\n    tag_276:\n        /* \"#utility.yul\":12579:12581   */\n    tag_275:\n        /* \"#utility.yul\":12709:12710   */\n      0x01\n        /* \"#utility.yul\":12702:12707   */\n      dup3\n        /* \"#utility.yul\":12698:12711   */\n      add\n        /* \"#utility.yul\":12691:12711   */\n      swap1\n      pop\n        /* \"#utility.yul\":12527:12717   */\n      swap2\n      swap1\n      pop\n      jump\t// out\n        /* \"#utility.yul\":12723:12903   */\n    tag_255:\n        /* \"#utility.yul\":12771:12848   */\n      0x4e487b7100000000000000000000000000000000000000000000000000000000\n        /* \"#utility.yul\":12768:12769   */\n      0x00\n        /* \"#utility.yul\":12761:12849   */\n      mstore\n        /* \"#utility.yul\":12868:12872   */\n      0x11\n        /* \"#utility.yul\":12865:12866   */\n      0x04\n        /* \"#utility.yul\":12858:12873   */\n      mstore\n        /* \"#utility.yul\":12892:12896   */\n      0x24\n        /* \"#utility.yul\":12889:12890   */\n      0x00\n        /* \"#utility.yul\":12882:12897   */\n      revert\n        /* \"#utility.yul\":12909:13089   */\n    tag_272:\n        /* \"#utility.yul\":12957:13034   */\n      0x4e487b7100000000000000000000000000000000000000000000000000000000\n        /* \"#utility.yul\":12954:12955   */\n      0x00\n        /* \"#utility.yul\":12947:13035   */\n      mstore\n        /* \"#utility.yul\":13054:13058   */\n      0x22\n        /* \"#utility.yul\":13051:13052   */\n      0x04\n        /* \"#utility.yul\":13044:13059   */\n      mstore\n        /* \"#utility.yul\":13078:13082   */\n      0x24\n        /* \"#utility.yul\":13075:13076   */\n      0x00\n        /* \"#utility.yul\":13068:13083   */\n      revert\n        /* \"#utility.yul\":13095:13275   */\n    tag_236:\n        /* \"#utility.yul\":13143:13220   */\n      0x4e487b7100000000000000000000000000000000000000000000000000000000\n        /* \"#utility.yul\":13140:13141   */\n      0x00\n        /* \"#utility.yul\":13133:13221   */\n      mstore\n        /* \"#utility.yul\":13240:13244   */\n      0x41\n        /* \"#utility.yul\":13237:13238   */\n      0x04\n        /* \"#utility.yul\":13230:13245   */\n      mstore\n        /* \"#utility.yul\":13264:13268   */\n      0x24\n        /* \"#utility.yul\":13261:13262   */\n      0x00\n        /* \"#utility.yul\":13254:13269   */\n      revert\n        /* \"#utility.yul\":13281:13383   */\n    tag_197:\n      0x00\n        /* \"#utility.yul\":13373:13375   */\n      0x1f\n        /* \"#utility.yul\":13369:13376   */\n      not\n        /* \"#utility.yul\":13364:13366   */\n      0x1f\n        /* \"#utility.yul\":13357:13362   */\n      dup4\n        /* \"#utility.yul\":13353:13367   */\n      add\n        /* \"#utility.yul\":13349:13377   */\n      and\n        /* \"#utility.yul\":13339:13377   */\n      swap1\n      pop\n        /* \"#utility.yul\":13329:13383   */\n      swap2\n      swap1\n      pop\n      jump\t// out\n        /* \"#utility.yul\":13389:13511   */\n    tag_140:\n        /* \"#utility.yul\":13462:13486   */\n      tag_282\n        /* \"#utility.yul\":13480:13485   */\n      dup2\n        /* \"#utility.yul\":13462:13486   */\n      tag_169\n      jump\t// in\n    tag_282:\n        /* \"#utility.yul\":13455:13460   */\n      dup2\n        /* \"#utility.yul\":13452:13487   */\n      eq\n        /* \"#utility.yul\":13442:13444   */\n      tag_283\n      jumpi\n        /* \"#utility.yul\":13501:13502   */\n      0x00\n        /* \"#utility.yul\":13498:13499   */\n      dup1\n        /* \"#utility.yul\":13491:13503   */\n      revert\n        /* \"#utility.yul\":13442:13444   */\n    tag_283:\n        /* \"#utility.yul\":13432:13511   */\n      pop\n      jump\t// out\n        /* \"#utility.yul\":13517:13639   */\n    tag_151:\n        /* \"#utility.yul\":13590:13614   */\n      tag_285\n        /* \"#utility.yul\":13608:13613   */\n      dup2\n        /* \"#utility.yul\":13590:13614   */\n      tag_215\n      jump\t// in\n    tag_285:\n        /* \"#utility.yul\":13583:13588   */\n      dup2\n        /* \"#utility.yul\":13580:13615   */\n      eq\n        /* \"#utility.yul\":13570:13572   */\n      tag_286\n      jumpi\n        /* \"#utility.yul\":13629:13630   */\n      0x00\n        /* \"#utility.yul\":13626:13627   */\n      dup1\n        /* \"#utility.yul\":13619:13631   */\n      revert\n        /* \"#utility.yul\":13570:13572   */\n    tag_286:\n        /* \"#utility.yul\":13560:13639   */\n      pop\n      jump\t// out\n\n    auxdata: 0xa264697066735822122015899dd16c9e08455bebfd39bbb7cd38638691e7ba1c285220f078240a1699c564736f6c63430008000033\n}\n",
				"bytecode": {
					"linkReferences": {},
					"object": "608060405234801561001057600080fd5b50611135806100206000396000f3fe608060405234801561001057600080fd5b506004361061009e5760003560e01c8063836bc69211610066578063836bc6921461014a5780639e7b8d6114610166578063a3ec138d14610182578063b1356488146101b5578063e9d6c6da146101d35761009e565b80630121b93f146100a3578063013cf08b146100bf5780635f570253146100f057806362564c481461010e57806378f305c61461012c575b600080fd5b6100bd60048036038101906100b89190610b37565b610203565b005b6100d960048036038101906100d49190610b37565b6102f2565b6040516100e7929190610d33565b60405180910390f35b6100f86103ae565b6040516101059190610d85565b60405180910390f35b6101166103b4565b6040516101239190610d11565b60405180910390f35b6101346104af565b6040516101419190610d85565b60405180910390f35b610164600480360381019061015f9190610af6565b6104b9565b005b610180600480360381019061017b9190610acd565b61063f565b005b61019c60048036038101906101979190610acd565b610789565b6040516101ac9493929190610da0565b60405180910390f35b6101bd6107e6565b6040516101ca9190610d85565b60405180910390f35b6101ed60048036038101906101e89190610b37565b6107f0565b6040516101fa9190610d63565b60405180910390f35b6000600460003373ffffffffffffffffffffffffffffffffffffffff1673ffffffffffffffffffffffffffffffffffffffff16815260200190815260200160002090508060010160009054906101000a900460ff161561026257600080fd5b60018160010160006101000a81548160ff0219169083151502179055508181600201819055508060000154600583815481106102c7577f4e487b7100000000000000000000000000000000000000000000000000000000600052603260045260246000fd5b906000526020600020906002020160010160008282546102e79190610ed8565b925050819055505050565b6005818154811061030257600080fd5b906000526020600020906002020160009150905080600001805461032590610fb8565b80601f016020809104026020016040519081016040528092919081815260200182805461035190610fb8565b801561039e5780601f106103735761010080835404028352916020019161039e565b820191906000526020600020905b81548152906001019060200180831161038157829003601f168201915b5050505050908060010154905082565b60035481565b60606005805480602002602001604051908101604052809291908181526020016000905b828210156104a6578382906000526020600020906002020160405180604001604052908160008201805461040b90610fb8565b80601f016020809104026020016040519081016040528092919081815260200182805461043790610fb8565b80156104845780601f1061045957610100808354040283529160200191610484565b820191906000526020600020905b81548152906001019060200180831161046757829003601f168201915b50505050508152602001600182015481525050815260200190600101906103d8565b50505050905090565b6000600154905090565b336000806101000a81548173ffffffffffffffffffffffffffffffffffffffff021916908373ffffffffffffffffffffffffffffffffffffffff1602179055506001600460008060009054906101000a900473ffffffffffffffffffffffffffffffffffffffff1673ffffffffffffffffffffffffffffffffffffffff1673ffffffffffffffffffffffffffffffffffffffff1681526020019081526020016000206000018190555061056a6108ee565b805160038190555060005b815181101561063b57600560405180604001604052808484815181106105c4577f4e487b7100000000000000000000000000000000000000000000000000000000600052603260045260246000fd5b6020026020010151815260200160008152509080600181540180825580915050600190039060005260206000209060020201600090919091909150600082015181600001908051906020019061061b9291906108f7565b50602082015181600101555050808061063390610fea565b915050610575565b5050565b60008054906101000a900473ffffffffffffffffffffffffffffffffffffffff1673ffffffffffffffffffffffffffffffffffffffff163373ffffffffffffffffffffffffffffffffffffffff161480156106e75750600460008273ffffffffffffffffffffffffffffffffffffffff1673ffffffffffffffffffffffffffffffffffffffff16815260200190815260200160002060010160009054906101000a900460ff16155b801561073557506000600460008373ffffffffffffffffffffffffffffffffffffffff1673ffffffffffffffffffffffffffffffffffffffff16815260200190815260200160002060000154145b61073e57600080fd5b6001600460008373ffffffffffffffffffffffffffffffffffffffff1673ffffffffffffffffffffffffffffffffffffffff1681526020019081526020016000206000018190555050565b60046020528060005260406000206000915090508060000154908060010160009054906101000a900460ff16908060010160019054906101000a900473ffffffffffffffffffffffffffffffffffffffff16908060020154905084565b6000600254905090565b6107f861097d565b60058281548110610832577f4e487b7100000000000000000000000000000000000000000000000000000000600052603260045260246000fd5b906000526020600020906002020160405180604001604052908160008201805461085b90610fb8565b80601f016020809104026020016040519081016040528092919081815260200182805461088790610fb8565b80156108d45780601f106108a9576101008083540402835291602001916108d4565b820191906000526020600020905b8154815290600101906020018083116108b757829003601f168201915b505050505081526020016001820154815250509050919050565b42600181905550565b82805461090390610fb8565b90600052602060002090601f016020900481019282610925576000855561096c565b82601f1061093e57805160ff191683800117855561096c565b8280016001018555821561096c579182015b8281111561096b578251825591602001919060010190610950565b5b5090506109799190610997565b5090565b604051806040016040528060608152602001600081525090565b5b808211156109b0576000816000905550600101610998565b5090565b60006109c76109c284610e16565b610de5565b9050808382526020820190508260005b85811015610a0757813585016109ed8882610a8e565b8452602084019350602083019250506001810190506109d7565b5050509392505050565b6000610a24610a1f84610e42565b610de5565b905082815260208101848484011115610a3c57600080fd5b610a47848285610f76565b509392505050565b600081359050610a5e816110d1565b92915050565b600082601f830112610a7557600080fd5b8135610a858482602086016109b4565b91505092915050565b600082601f830112610a9f57600080fd5b8135610aaf848260208601610a11565b91505092915050565b600081359050610ac7816110e8565b92915050565b600060208284031215610adf57600080fd5b6000610aed84828501610a4f565b91505092915050565b600060208284031215610b0857600080fd5b600082013567ffffffffffffffff811115610b2257600080fd5b610b2e84828501610a64565b91505092915050565b600060208284031215610b4957600080fd5b6000610b5784828501610ab8565b91505092915050565b6000610b6c8383610c79565b905092915050565b610b7d81610f2e565b82525050565b6000610b8e82610e82565b610b988185610ea5565b935083602082028501610baa85610e72565b8060005b85811015610be65784840389528151610bc78582610b60565b9450610bd283610e98565b925060208a01995050600181019050610bae565b50829750879550505050505092915050565b610c0181610f40565b82525050565b6000610c1282610e8d565b610c1c8185610eb6565b9350610c2c818560208601610f85565b610c35816110c0565b840191505092915050565b6000610c4b82610e8d565b610c558185610ec7565b9350610c65818560208601610f85565b610c6e816110c0565b840191505092915050565b60006040830160008301518482036000860152610c968282610c07565b9150506020830151610cab6020860182610cf3565b508091505092915050565b60006040830160008301518482036000860152610cd38282610c07565b9150506020830151610ce86020860182610cf3565b508091505092915050565b610cfc81610f6c565b82525050565b610d0b81610f6c565b82525050565b60006020820190508181036000830152610d2b8184610b83565b905092915050565b60006040820190508181036000830152610d4d8185610c40565b9050610d5c6020830184610d02565b9392505050565b60006020820190508181036000830152610d7d8184610cb6565b905092915050565b6000602082019050610d9a6000830184610d02565b92915050565b6000608082019050610db56000830187610d02565b610dc26020830186610bf8565b610dcf6040830185610b74565b610ddc6060830184610d02565b95945050505050565b6000604051905081810181811067ffffffffffffffff82111715610e0c57610e0b611091565b5b8060405250919050565b600067ffffffffffffffff821115610e3157610e30611091565b5b602082029050602081019050919050565b600067ffffffffffffffff821115610e5d57610e5c611091565b5b601f19601f8301169050602081019050919050565b6000819050602082019050919050565b600081519050919050565b600081519050919050565b6000602082019050919050565b600082825260208201905092915050565b600082825260208201905092915050565b600082825260208201905092915050565b6000610ee382610f6c565b9150610eee83610f6c565b9250827fffffffffffffffffffffffffffffffffffffffffffffffffffffffffffffffff03821115610f2357610f22611033565b5b828201905092915050565b6000610f3982610f4c565b9050919050565b60008115159050919050565b600073ffffffffffffffffffffffffffffffffffffffff82169050919050565b6000819050919050565b82818337600083830152505050565b60005b83811015610fa3578082015181840152602081019050610f88565b83811115610fb2576000848401525b50505050565b60006002820490506001821680610fd057607f821691505b60208210811415610fe457610fe3611062565b5b50919050565b6000610ff582610f6c565b91507fffffffffffffffffffffffffffffffffffffffffffffffffffffffffffffffff82141561102857611027611033565b5b600182019050919050565b7f4e487b7100000000000000000000000000000000000000000000000000000000600052601160045260246000fd5b7f4e487b7100000000000000000000000000000000000000000000000000000000600052602260045260246000fd5b7f4e487b7100000000000000000000000000000000000000000000000000000000600052604160045260246000fd5b6000601f19601f8301169050919050565b6110da81610f2e565b81146110e557600080fd5b50565b6110f181610f6c565b81146110fc57600080fd5b5056fea264697066735822122015899dd16c9e08455bebfd39bbb7cd38638691e7ba1c285220f078240a1699c564736f6c63430008000033",
					"opcodes": "PUSH1 0x80 PUSH1 0x40 MSTORE CALLVALUE DUP1 ISZERO PUSH2 0x10 JUMPI PUSH1 0x0 DUP1 REVERT JUMPDEST POP PUSH2 0x1135 DUP1 PUSH2 0x20 PUSH1 0x0 CODECOPY PUSH1 0x0 RETURN INVALID PUSH1 0x80 PUSH1 0x40 MSTORE CALLVALUE DUP1 ISZERO PUSH2 0x10 JUMPI PUSH1 0x0 DUP1 REVERT JUMPDEST POP PUSH1 0x4 CALLDATASIZE LT PUSH2 0x9E JUMPI PUSH1 0x0 CALLDATALOAD PUSH1 0xE0 SHR DUP1 PUSH4 0x836BC692 GT PUSH2 0x66 JUMPI DUP1 PUSH4 0x836BC692 EQ PUSH2 0x14A JUMPI DUP1 PUSH4 0x9E7B8D61 EQ PUSH2 0x166 JUMPI DUP1 PUSH4 0xA3EC138D EQ PUSH2 0x182 JUMPI DUP1 PUSH4 0xB1356488 EQ PUSH2 0x1B5 JUMPI DUP1 PUSH4 0xE9D6C6DA EQ PUSH2 0x1D3 JUMPI PUSH2 0x9E JUMP JUMPDEST DUP1 PUSH4 0x121B93F EQ PUSH2 0xA3 JUMPI DUP1 PUSH4 0x13CF08B EQ PUSH2 0xBF JUMPI DUP1 PUSH4 0x5F570253 EQ PUSH2 0xF0 JUMPI DUP1 PUSH4 0x62564C48 EQ PUSH2 0x10E JUMPI DUP1 PUSH4 0x78F305C6 EQ PUSH2 0x12C JUMPI JUMPDEST PUSH1 0x0 DUP1 REVERT JUMPDEST PUSH2 0xBD PUSH1 0x4 DUP1 CALLDATASIZE SUB DUP2 ADD SWAP1 PUSH2 0xB8 SWAP2 SWAP1 PUSH2 0xB37 JUMP JUMPDEST PUSH2 0x203 JUMP JUMPDEST STOP JUMPDEST PUSH2 0xD9 PUSH1 0x4 DUP1 CALLDATASIZE SUB DUP2 ADD SWAP1 PUSH2 0xD4 SWAP2 SWAP1 PUSH2 0xB37 JUMP JUMPDEST PUSH2 0x2F2 JUMP JUMPDEST PUSH1 0x40 MLOAD PUSH2 0xE7 SWAP3 SWAP2 SWAP1 PUSH2 0xD33 JUMP JUMPDEST PUSH1 0x40 MLOAD DUP1 SWAP2 SUB SWAP1 RETURN JUMPDEST PUSH2 0xF8 PUSH2 0x3AE JUMP JUMPDEST PUSH1 0x40 MLOAD PUSH2 0x105 SWAP2 SWAP1 PUSH2 0xD85 JUMP JUMPDEST PUSH1 0x40 MLOAD DUP1 SWAP2 SUB SWAP1 RETURN JUMPDEST PUSH2 0x116 PUSH2 0x3B4 JUMP JUMPDEST PUSH1 0x40 MLOAD PUSH2 0x123 SWAP2 SWAP1 PUSH2 0xD11 JUMP JUMPDEST PUSH1 0x40 MLOAD DUP1 SWAP2 SUB SWAP1 RETURN JUMPDEST PUSH2 0x134 PUSH2 0x4AF JUMP JUMPDEST PUSH1 0x40 MLOAD PUSH2 0x141 SWAP2 SWAP1 PUSH2 0xD85 JUMP JUMPDEST PUSH1 0x40 MLOAD DUP1 SWAP2 SUB SWAP1 RETURN JUMPDEST PUSH2 0x164 PUSH1 0x4 DUP1 CALLDATASIZE SUB DUP2 ADD SWAP1 PUSH2 0x15F SWAP2 SWAP1 PUSH2 0xAF6 JUMP JUMPDEST PUSH2 0x4B9 JUMP JUMPDEST STOP JUMPDEST PUSH2 0x180 PUSH1 0x4 DUP1 CALLDATASIZE SUB DUP2 ADD SWAP1 PUSH2 0x17B SWAP2 SWAP1 PUSH2 0xACD JUMP JUMPDEST PUSH2 0x63F JUMP JUMPDEST STOP JUMPDEST PUSH2 0x19C PUSH1 0x4 DUP1 CALLDATASIZE SUB DUP2 ADD SWAP1 PUSH2 0x197 SWAP2 SWAP1 PUSH2 0xACD JUMP JUMPDEST PUSH2 0x789 JUMP JUMPDEST PUSH1 0x40 MLOAD PUSH2 0x1AC SWAP5 SWAP4 SWAP3 SWAP2 SWAP1 PUSH2 0xDA0 JUMP JUMPDEST PUSH1 0x40 MLOAD DUP1 SWAP2 SUB SWAP1 RETURN JUMPDEST PUSH2 0x1BD PUSH2 0x7E6 JUMP JUMPDEST PUSH1 0x40 MLOAD PUSH2 0x1CA SWAP2 SWAP1 PUSH2 0xD85 JUMP JUMPDEST PUSH1 0x40 MLOAD DUP1 SWAP2 SUB SWAP1 RETURN JUMPDEST PUSH2 0x1ED PUSH1 0x4 DUP1 CALLDATASIZE SUB DUP2 ADD SWAP1 PUSH2 0x1E8 SWAP2 SWAP1 PUSH2 0xB37 JUMP JUMPDEST PUSH2 0x7F0 JUMP JUMPDEST PUSH1 0x40 MLOAD PUSH2 0x1FA SWAP2 SWAP1 PUSH2 0xD63 JUMP JUMPDEST PUSH1 0x40 MLOAD DUP1 SWAP2 SUB SWAP1 RETURN JUMPDEST PUSH1 0x0 PUSH1 0x4 PUSH1 0x0 CALLER PUSH20 0xFFFFFFFFFFFFFFFFFFFFFFFFFFFFFFFFFFFFFFFF AND PUSH20 0xFFFFFFFFFFFFFFFFFFFFFFFFFFFFFFFFFFFFFFFF AND DUP2 MSTORE PUSH1 0x20 ADD SWAP1 DUP2 MSTORE PUSH1 0x20 ADD PUSH1 0x0 KECCAK256 SWAP1 POP DUP1 PUSH1 0x1 ADD PUSH1 0x0 SWAP1 SLOAD SWAP1 PUSH2 0x100 EXP SWAP1 DIV PUSH1 0xFF AND ISZERO PUSH2 0x262 JUMPI PUSH1 0x0 DUP1 REVERT JUMPDEST PUSH1 0x1 DUP2 PUSH1 0x1 ADD PUSH1 0x0 PUSH2 0x100 EXP DUP2 SLOAD DUP2 PUSH1 0xFF MUL NOT AND SWAP1 DUP4 ISZERO ISZERO MUL OR SWAP1 SSTORE POP DUP2 DUP2 PUSH1 0x2 ADD DUP2 SWAP1 SSTORE POP DUP1 PUSH1 0x0 ADD SLOAD PUSH1 0x5 DUP4 DUP2 SLOAD DUP2 LT PUSH2 0x2C7 JUMPI PUSH32 0x4E487B7100000000000000000000000000000000000000000000000000000000 PUSH1 0x0 MSTORE PUSH1 0x32 PUSH1 0x4 MSTORE PUSH1 0x24 PUSH1 0x0 REVERT JUMPDEST SWAP1 PUSH1 0x0 MSTORE PUSH1 0x20 PUSH1 0x0 KECCAK256 SWAP1 PUSH1 0x2 MUL ADD PUSH1 0x1 ADD PUSH1 0x0 DUP3 DUP3 SLOAD PUSH2 0x2E7 SWAP2 SWAP1 PUSH2 0xED8 JUMP JUMPDEST SWAP3 POP POP DUP2 SWAP1 SSTORE POP POP POP JUMP JUMPDEST PUSH1 0x5 DUP2 DUP2 SLOAD DUP2 LT PUSH2 0x302 JUMPI PUSH1 0x0 DUP1 REVERT JUMPDEST SWAP1 PUSH1 0x0 MSTORE PUSH1 0x20 PUSH1 0x0 KECCAK256 SWAP1 PUSH1 0x2 MUL ADD PUSH1 0x0 SWAP2 POP SWAP1 POP DUP1 PUSH1 0x0 ADD DUP1 SLOAD PUSH2 0x325 SWAP1 PUSH2 0xFB8 JUMP JUMPDEST DUP1 PUSH1 0x1F ADD PUSH1 0x20 DUP1 SWAP2 DIV MUL PUSH1 0x20 ADD PUSH1 0x40 MLOAD SWAP1 DUP2 ADD PUSH1 0x40 MSTORE DUP1 SWAP3 SWAP2 SWAP1 DUP2 DUP2 MSTORE PUSH1 0x20 ADD DUP3 DUP1 SLOAD PUSH2 0x351 SWAP1 PUSH2 0xFB8 JUMP JUMPDEST DUP1 ISZERO PUSH2 0x39E JUMPI DUP1 PUSH1 0x1F LT PUSH2 0x373 JUMPI PUSH2 0x100 DUP1 DUP4 SLOAD DIV MUL DUP4 MSTORE SWAP2 PUSH1 0x20 ADD SWAP2 PUSH2 0x39E JUMP JUMPDEST DUP3 ADD SWAP2 SWAP1 PUSH1 0x0 MSTORE PUSH1 0x20 PUSH1 0x0 KECCAK256 SWAP1 JUMPDEST DUP2 SLOAD DUP2 MSTORE SWAP1 PUSH1 0x1 ADD SWAP1 PUSH1 0x20 ADD DUP1 DUP4 GT PUSH2 0x381 JUMPI DUP3 SWAP1 SUB PUSH1 0x1F AND DUP3 ADD SWAP2 JUMPDEST POP POP POP POP POP SWAP1 DUP1 PUSH1 0x1 ADD SLOAD SWAP1 POP DUP3 JUMP JUMPDEST PUSH1 0x3 SLOAD DUP2 JUMP JUMPDEST PUSH1 0x60 PUSH1 0x5 DUP1 SLOAD DUP1 PUSH1 0x20 MUL PUSH1 0x20 ADD PUSH1 0x40 MLOAD SWAP1 DUP2 ADD PUSH1 0x40 MSTORE DUP1 SWAP3 SWAP2 SWAP1 DUP2 DUP2 MSTORE PUSH1 0x20 ADD PUSH1 0x0 SWAP1 JUMPDEST DUP3 DUP3 LT ISZERO PUSH2 0x4A6 JUMPI DUP4 DUP3 SWAP1 PUSH1 0x0 MSTORE PUSH1 0x20 PUSH1 0x0 KECCAK256 SWAP1 PUSH1 0x2 MUL ADD PUSH1 0x40 MLOAD DUP1 PUSH1 0x40 ADD PUSH1 0x40 MSTORE SWAP1 DUP2 PUSH1 0x0 DUP3 ADD DUP1 SLOAD PUSH2 0x40B SWAP1 PUSH2 0xFB8 JUMP JUMPDEST DUP1 PUSH1 0x1F ADD PUSH1 0x20 DUP1 SWAP2 DIV MUL PUSH1 0x20 ADD PUSH1 0x40 MLOAD SWAP1 DUP2 ADD PUSH1 0x40 MSTORE DUP1 SWAP3 SWAP2 SWAP1 DUP2 DUP2 MSTORE PUSH1 0x20 ADD DUP3 DUP1 SLOAD PUSH2 0x437 SWAP1 PUSH2 0xFB8 JUMP JUMPDEST DUP1 ISZERO PUSH2 0x484 JUMPI DUP1 PUSH1 0x1F LT PUSH2 0x459 JUMPI PUSH2 0x100 DUP1 DUP4 SLOAD DIV MUL DUP4 MSTORE SWAP2 PUSH1 0x20 ADD SWAP2 PUSH2 0x484 JUMP JUMPDEST DUP3 ADD SWAP2 SWAP1 PUSH1 0x0 MSTORE PUSH1 0x20 PUSH1 0x0 KECCAK256 SWAP1 JUMPDEST DUP2 SLOAD DUP2 MSTORE SWAP1 PUSH1 0x1 ADD SWAP1 PUSH1 0x20 ADD DUP1 DUP4 GT PUSH2 0x467 JUMPI DUP3 SWAP1 SUB PUSH1 0x1F AND DUP3 ADD SWAP2 JUMPDEST POP POP POP POP POP DUP2 MSTORE PUSH1 0x20 ADD PUSH1 0x1 DUP3 ADD SLOAD DUP2 MSTORE POP POP DUP2 MSTORE PUSH1 0x20 ADD SWAP1 PUSH1 0x1 ADD SWAP1 PUSH2 0x3D8 JUMP JUMPDEST POP POP POP POP SWAP1 POP SWAP1 JUMP JUMPDEST PUSH1 0x0 PUSH1 0x1 SLOAD SWAP1 POP SWAP1 JUMP JUMPDEST CALLER PUSH1 0x0 DUP1 PUSH2 0x100 EXP DUP2 SLOAD DUP2 PUSH20 0xFFFFFFFFFFFFFFFFFFFFFFFFFFFFFFFFFFFFFFFF MUL NOT AND SWAP1 DUP4 PUSH20 0xFFFFFFFFFFFFFFFFFFFFFFFFFFFFFFFFFFFFFFFF AND MUL OR SWAP1 SSTORE POP PUSH1 0x1 PUSH1 0x4 PUSH1 0x0 DUP1 PUSH1 0x0 SWAP1 SLOAD SWAP1 PUSH2 0x100 EXP SWAP1 DIV PUSH20 0xFFFFFFFFFFFFFFFFFFFFFFFFFFFFFFFFFFFFFFFF AND PUSH20 0xFFFFFFFFFFFFFFFFFFFFFFFFFFFFFFFFFFFFFFFF AND PUSH20 0xFFFFFFFFFFFFFFFFFFFFFFFFFFFFFFFFFFFFFFFF AND DUP2 MSTORE PUSH1 0x20 ADD SWAP1 DUP2 MSTORE PUSH1 0x20 ADD PUSH1 0x0 KECCAK256 PUSH1 0x0 ADD DUP2 SWAP1 SSTORE POP PUSH2 0x56A PUSH2 0x8EE JUMP JUMPDEST DUP1 MLOAD PUSH1 0x3 DUP2 SWAP1 SSTORE POP PUSH1 0x0 JUMPDEST DUP2 MLOAD DUP2 LT ISZERO PUSH2 0x63B JUMPI PUSH1 0x5 PUSH1 0x40 MLOAD DUP1 PUSH1 0x40 ADD PUSH1 0x40 MSTORE DUP1 DUP5 DUP5 DUP2 MLOAD DUP2 LT PUSH2 0x5C4 JUMPI PUSH32 0x4E487B7100000000000000000000000000000000000000000000000000000000 PUSH1 0x0 MSTORE PUSH1 0x32 PUSH1 0x4 MSTORE PUSH1 0x24 PUSH1 0x0 REVERT JUMPDEST PUSH1 0x20 MUL PUSH1 0x20 ADD ADD MLOAD DUP2 MSTORE PUSH1 0x20 ADD PUSH1 0x0 DUP2 MSTORE POP SWAP1 DUP1 PUSH1 0x1 DUP2 SLOAD ADD DUP1 DUP3 SSTORE DUP1 SWAP2 POP POP PUSH1 0x1 SWAP1 SUB SWAP1 PUSH1 0x0 MSTORE PUSH1 0x20 PUSH1 0x0 KECCAK256 SWAP1 PUSH1 0x2 MUL ADD PUSH1 0x0 SWAP1 SWAP2 SWAP1 SWAP2 SWAP1 SWAP2 POP PUSH1 0x0 DUP3 ADD MLOAD DUP2 PUSH1 0x0 ADD SWAP1 DUP1 MLOAD SWAP1 PUSH1 0x20 ADD SWAP1 PUSH2 0x61B SWAP3 SWAP2 SWAP1 PUSH2 0x8F7 JUMP JUMPDEST POP PUSH1 0x20 DUP3 ADD MLOAD DUP2 PUSH1 0x1 ADD SSTORE POP POP DUP1 DUP1 PUSH2 0x633 SWAP1 PUSH2 0xFEA JUMP JUMPDEST SWAP2 POP POP PUSH2 0x575 JUMP JUMPDEST POP POP JUMP JUMPDEST PUSH1 0x0 DUP1 SLOAD SWAP1 PUSH2 0x100 EXP SWAP1 DIV PUSH20 0xFFFFFFFFFFFFFFFFFFFFFFFFFFFFFFFFFFFFFFFF AND PUSH20 0xFFFFFFFFFFFFFFFFFFFFFFFFFFFFFFFFFFFFFFFF AND CALLER PUSH20 0xFFFFFFFFFFFFFFFFFFFFFFFFFFFFFFFFFFFFFFFF AND EQ DUP1 ISZERO PUSH2 0x6E7 JUMPI POP PUSH1 0x4 PUSH1 0x0 DUP3 PUSH20 0xFFFFFFFFFFFFFFFFFFFFFFFFFFFFFFFFFFFFFFFF AND PUSH20 0xFFFFFFFFFFFFFFFFFFFFFFFFFFFFFFFFFFFFFFFF AND DUP2 MSTORE PUSH1 0x20 ADD SWAP1 DUP2 MSTORE PUSH1 0x20 ADD PUSH1 0x0 KECCAK256 PUSH1 0x1 ADD PUSH1 0x0 SWAP1 SLOAD SWAP1 PUSH2 0x100 EXP SWAP1 DIV PUSH1 0xFF AND ISZERO JUMPDEST DUP1 ISZERO PUSH2 0x735 JUMPI POP PUSH1 0x0 PUSH1 0x4 PUSH1 0x0 DUP4 PUSH20 0xFFFFFFFFFFFFFFFFFFFFFFFFFFFFFFFFFFFFFFFF AND PUSH20 0xFFFFFFFFFFFFFFFFFFFFFFFFFFFFFFFFFFFFFFFF AND DUP2 MSTORE PUSH1 0x20 ADD SWAP1 DUP2 MSTORE PUSH1 0x20 ADD PUSH1 0x0 KECCAK256 PUSH1 0x0 ADD SLOAD EQ JUMPDEST PUSH2 0x73E JUMPI PUSH1 0x0 DUP1 REVERT JUMPDEST PUSH1 0x1 PUSH1 0x4 PUSH1 0x0 DUP4 PUSH20 0xFFFFFFFFFFFFFFFFFFFFFFFFFFFFFFFFFFFFFFFF AND PUSH20 0xFFFFFFFFFFFFFFFFFFFFFFFFFFFFFFFFFFFFFFFF AND DUP2 MSTORE PUSH1 0x20 ADD SWAP1 DUP2 MSTORE PUSH1 0x20 ADD PUSH1 0x0 KECCAK256 PUSH1 0x0 ADD DUP2 SWAP1 SSTORE POP POP JUMP JUMPDEST PUSH1 0x4 PUSH1 0x20 MSTORE DUP1 PUSH1 0x0 MSTORE PUSH1 0x40 PUSH1 0x0 KECCAK256 PUSH1 0x0 SWAP2 POP SWAP1 POP DUP1 PUSH1 0x0 ADD SLOAD SWAP1 DUP1 PUSH1 0x1 ADD PUSH1 0x0 SWAP1 SLOAD SWAP1 PUSH2 0x100 EXP SWAP1 DIV PUSH1 0xFF AND SWAP1 DUP1 PUSH1 0x1 ADD PUSH1 0x1 SWAP1 SLOAD SWAP1 PUSH2 0x100 EXP SWAP1 DIV PUSH20 0xFFFFFFFFFFFFFFFFFFFFFFFFFFFFFFFFFFFFFFFF AND SWAP1 DUP1 PUSH1 0x2 ADD SLOAD SWAP1 POP DUP5 JUMP JUMPDEST PUSH1 0x0 PUSH1 0x2 SLOAD SWAP1 POP SWAP1 JUMP JUMPDEST PUSH2 0x7F8 PUSH2 0x97D JUMP JUMPDEST PUSH1 0x5 DUP3 DUP2 SLOAD DUP2 LT PUSH2 0x832 JUMPI PUSH32 0x4E487B7100000000000000000000000000000000000000000000000000000000 PUSH1 0x0 MSTORE PUSH1 0x32 PUSH1 0x4 MSTORE PUSH1 0x24 PUSH1 0x0 REVERT JUMPDEST SWAP1 PUSH1 0x0 MSTORE PUSH1 0x20 PUSH1 0x0 KECCAK256 SWAP1 PUSH1 0x2 MUL ADD PUSH1 0x40 MLOAD DUP1 PUSH1 0x40 ADD PUSH1 0x40 MSTORE SWAP1 DUP2 PUSH1 0x0 DUP3 ADD DUP1 SLOAD PUSH2 0x85B SWAP1 PUSH2 0xFB8 JUMP JUMPDEST DUP1 PUSH1 0x1F ADD PUSH1 0x20 DUP1 SWAP2 DIV MUL PUSH1 0x20 ADD PUSH1 0x40 MLOAD SWAP1 DUP2 ADD PUSH1 0x40 MSTORE DUP1 SWAP3 SWAP2 SWAP1 DUP2 DUP2 MSTORE PUSH1 0x20 ADD DUP3 DUP1 SLOAD PUSH2 0x887 SWAP1 PUSH2 0xFB8 JUMP JUMPDEST DUP1 ISZERO PUSH2 0x8D4 JUMPI DUP1 PUSH1 0x1F LT PUSH2 0x8A9 JUMPI PUSH2 0x100 DUP1 DUP4 SLOAD DIV MUL DUP4 MSTORE SWAP2 PUSH1 0x20 ADD SWAP2 PUSH2 0x8D4 JUMP JUMPDEST DUP3 ADD SWAP2 SWAP1 PUSH1 0x0 MSTORE PUSH1 0x20 PUSH1 0x0 KECCAK256 SWAP1 JUMPDEST DUP2 SLOAD DUP2 MSTORE SWAP1 PUSH1 0x1 ADD SWAP1 PUSH1 0x20 ADD DUP1 DUP4 GT PUSH2 0x8B7 JUMPI DUP3 SWAP1 SUB PUSH1 0x1F AND DUP3 ADD SWAP2 JUMPDEST POP POP POP POP POP DUP2 MSTORE PUSH1 0x20 ADD PUSH1 0x1 DUP3 ADD SLOAD DUP2 MSTORE POP POP SWAP1 POP SWAP2 SWAP1 POP JUMP JUMPDEST TIMESTAMP PUSH1 0x1 DUP2 SWAP1 SSTORE POP JUMP JUMPDEST DUP3 DUP1 SLOAD PUSH2 0x903 SWAP1 PUSH2 0xFB8 JUMP JUMPDEST SWAP1 PUSH1 0x0 MSTORE PUSH1 0x20 PUSH1 0x0 KECCAK256 SWAP1 PUSH1 0x1F ADD PUSH1 0x20 SWAP1 DIV DUP2 ADD SWAP3 DUP3 PUSH2 0x925 JUMPI PUSH1 0x0 DUP6 SSTORE PUSH2 0x96C JUMP JUMPDEST DUP3 PUSH1 0x1F LT PUSH2 0x93E JUMPI DUP1 MLOAD PUSH1 0xFF NOT AND DUP4 DUP1 ADD OR DUP6 SSTORE PUSH2 0x96C JUMP JUMPDEST DUP3 DUP1 ADD PUSH1 0x1 ADD DUP6 SSTORE DUP3 ISZERO PUSH2 0x96C JUMPI SWAP2 DUP3 ADD JUMPDEST DUP3 DUP2 GT ISZERO PUSH2 0x96B JUMPI DUP3 MLOAD DUP3 SSTORE SWAP2 PUSH1 0x20 ADD SWAP2 SWAP1 PUSH1 0x1 ADD SWAP1 PUSH2 0x950 JUMP JUMPDEST JUMPDEST POP SWAP1 POP PUSH2 0x979 SWAP2 SWAP1 PUSH2 0x997 JUMP JUMPDEST POP SWAP1 JUMP JUMPDEST PUSH1 0x40 MLOAD DUP1 PUSH1 0x40 ADD PUSH1 0x40 MSTORE DUP1 PUSH1 0x60 DUP2 MSTORE PUSH1 0x20 ADD PUSH1 0x0 DUP2 MSTORE POP SWAP1 JUMP JUMPDEST JUMPDEST DUP1 DUP3 GT ISZERO PUSH2 0x9B0 JUMPI PUSH1 0x0 DUP2 PUSH1 0x0 SWAP1 SSTORE POP PUSH1 0x1 ADD PUSH2 0x998 JUMP JUMPDEST POP SWAP1 JUMP JUMPDEST PUSH1 0x0 PUSH2 0x9C7 PUSH2 0x9C2 DUP5 PUSH2 0xE16 JUMP JUMPDEST PUSH2 0xDE5 JUMP JUMPDEST SWAP1 POP DUP1 DUP4 DUP3 MSTORE PUSH1 0x20 DUP3 ADD SWAP1 POP DUP3 PUSH1 0x0 JUMPDEST DUP6 DUP2 LT ISZERO PUSH2 0xA07 JUMPI DUP2 CALLDATALOAD DUP6 ADD PUSH2 0x9ED DUP9 DUP3 PUSH2 0xA8E JUMP JUMPDEST DUP5 MSTORE PUSH1 0x20 DUP5 ADD SWAP4 POP PUSH1 0x20 DUP4 ADD SWAP3 POP POP PUSH1 0x1 DUP2 ADD SWAP1 POP PUSH2 0x9D7 JUMP JUMPDEST POP POP POP SWAP4 SWAP3 POP POP POP JUMP JUMPDEST PUSH1 0x0 PUSH2 0xA24 PUSH2 0xA1F DUP5 PUSH2 0xE42 JUMP JUMPDEST PUSH2 0xDE5 JUMP JUMPDEST SWAP1 POP DUP3 DUP2 MSTORE PUSH1 0x20 DUP2 ADD DUP5 DUP5 DUP5 ADD GT ISZERO PUSH2 0xA3C JUMPI PUSH1 0x0 DUP1 REVERT JUMPDEST PUSH2 0xA47 DUP5 DUP3 DUP6 PUSH2 0xF76 JUMP JUMPDEST POP SWAP4 SWAP3 POP POP POP JUMP JUMPDEST PUSH1 0x0 DUP2 CALLDATALOAD SWAP1 POP PUSH2 0xA5E DUP2 PUSH2 0x10D1 JUMP JUMPDEST SWAP3 SWAP2 POP POP JUMP JUMPDEST PUSH1 0x0 DUP3 PUSH1 0x1F DUP4 ADD SLT PUSH2 0xA75 JUMPI PUSH1 0x0 DUP1 REVERT JUMPDEST DUP2 CALLDATALOAD PUSH2 0xA85 DUP5 DUP3 PUSH1 0x20 DUP7 ADD PUSH2 0x9B4 JUMP JUMPDEST SWAP2 POP POP SWAP3 SWAP2 POP POP JUMP JUMPDEST PUSH1 0x0 DUP3 PUSH1 0x1F DUP4 ADD SLT PUSH2 0xA9F JUMPI PUSH1 0x0 DUP1 REVERT JUMPDEST DUP2 CALLDATALOAD PUSH2 0xAAF DUP5 DUP3 PUSH1 0x20 DUP7 ADD PUSH2 0xA11 JUMP JUMPDEST SWAP2 POP POP SWAP3 SWAP2 POP POP JUMP JUMPDEST PUSH1 0x0 DUP2 CALLDATALOAD SWAP1 POP PUSH2 0xAC7 DUP2 PUSH2 0x10E8 JUMP JUMPDEST SWAP3 SWAP2 POP POP JUMP JUMPDEST PUSH1 0x0 PUSH1 0x20 DUP3 DUP5 SUB SLT ISZERO PUSH2 0xADF JUMPI PUSH1 0x0 DUP1 REVERT JUMPDEST PUSH1 0x0 PUSH2 0xAED DUP5 DUP3 DUP6 ADD PUSH2 0xA4F JUMP JUMPDEST SWAP2 POP POP SWAP3 SWAP2 POP POP JUMP JUMPDEST PUSH1 0x0 PUSH1 0x20 DUP3 DUP5 SUB SLT ISZERO PUSH2 0xB08 JUMPI PUSH1 0x0 DUP1 REVERT JUMPDEST PUSH1 0x0 DUP3 ADD CALLDATALOAD PUSH8 0xFFFFFFFFFFFFFFFF DUP2 GT ISZERO PUSH2 0xB22 JUMPI PUSH1 0x0 DUP1 REVERT JUMPDEST PUSH2 0xB2E DUP5 DUP3 DUP6 ADD PUSH2 0xA64 JUMP JUMPDEST SWAP2 POP POP SWAP3 SWAP2 POP POP JUMP JUMPDEST PUSH1 0x0 PUSH1 0x20 DUP3 DUP5 SUB SLT ISZERO PUSH2 0xB49 JUMPI PUSH1 0x0 DUP1 REVERT JUMPDEST PUSH1 0x0 PUSH2 0xB57 DUP5 DUP3 DUP6 ADD PUSH2 0xAB8 JUMP JUMPDEST SWAP2 POP POP SWAP3 SWAP2 POP POP JUMP JUMPDEST PUSH1 0x0 PUSH2 0xB6C DUP4 DUP4 PUSH2 0xC79 JUMP JUMPDEST SWAP1 POP SWAP3 SWAP2 POP POP JUMP JUMPDEST PUSH2 0xB7D DUP2 PUSH2 0xF2E JUMP JUMPDEST DUP3 MSTORE POP POP JUMP JUMPDEST PUSH1 0x0 PUSH2 0xB8E DUP3 PUSH2 0xE82 JUMP JUMPDEST PUSH2 0xB98 DUP2 DUP6 PUSH2 0xEA5 JUMP JUMPDEST SWAP4 POP DUP4 PUSH1 0x20 DUP3 MUL DUP6 ADD PUSH2 0xBAA DUP6 PUSH2 0xE72 JUMP JUMPDEST DUP1 PUSH1 0x0 JUMPDEST DUP6 DUP2 LT ISZERO PUSH2 0xBE6 JUMPI DUP5 DUP5 SUB DUP10 MSTORE DUP2 MLOAD PUSH2 0xBC7 DUP6 DUP3 PUSH2 0xB60 JUMP JUMPDEST SWAP5 POP PUSH2 0xBD2 DUP4 PUSH2 0xE98 JUMP JUMPDEST SWAP3 POP PUSH1 0x20 DUP11 ADD SWAP10 POP POP PUSH1 0x1 DUP2 ADD SWAP1 POP PUSH2 0xBAE JUMP JUMPDEST POP DUP3 SWAP8 POP DUP8 SWAP6 POP POP POP POP POP POP SWAP3 SWAP2 POP POP JUMP JUMPDEST PUSH2 0xC01 DUP2 PUSH2 0xF40 JUMP JUMPDEST DUP3 MSTORE POP POP JUMP JUMPDEST PUSH1 0x0 PUSH2 0xC12 DUP3 PUSH2 0xE8D JUMP JUMPDEST PUSH2 0xC1C DUP2 DUP6 PUSH2 0xEB6 JUMP JUMPDEST SWAP4 POP PUSH2 0xC2C DUP2 DUP6 PUSH1 0x20 DUP7 ADD PUSH2 0xF85 JUMP JUMPDEST PUSH2 0xC35 DUP2 PUSH2 0x10C0 JUMP JUMPDEST DUP5 ADD SWAP2 POP POP SWAP3 SWAP2 POP POP JUMP JUMPDEST PUSH1 0x0 PUSH2 0xC4B DUP3 PUSH2 0xE8D JUMP JUMPDEST PUSH2 0xC55 DUP2 DUP6 PUSH2 0xEC7 JUMP JUMPDEST SWAP4 POP PUSH2 0xC65 DUP2 DUP6 PUSH1 0x20 DUP7 ADD PUSH2 0xF85 JUMP JUMPDEST PUSH2 0xC6E DUP2 PUSH2 0x10C0 JUMP JUMPDEST DUP5 ADD SWAP2 POP POP SWAP3 SWAP2 POP POP JUMP JUMPDEST PUSH1 0x0 PUSH1 0x40 DUP4 ADD PUSH1 0x0 DUP4 ADD MLOAD DUP5 DUP3 SUB PUSH1 0x0 DUP7 ADD MSTORE PUSH2 0xC96 DUP3 DUP3 PUSH2 0xC07 JUMP JUMPDEST SWAP2 POP POP PUSH1 0x20 DUP4 ADD MLOAD PUSH2 0xCAB PUSH1 0x20 DUP7 ADD DUP3 PUSH2 0xCF3 JUMP JUMPDEST POP DUP1 SWAP2 POP POP SWAP3 SWAP2 POP POP JUMP JUMPDEST PUSH1 0x0 PUSH1 0x40 DUP4 ADD PUSH1 0x0 DUP4 ADD MLOAD DUP5 DUP3 SUB PUSH1 0x0 DUP7 ADD MSTORE PUSH2 0xCD3 DUP3 DUP3 PUSH2 0xC07 JUMP JUMPDEST SWAP2 POP POP PUSH1 0x20 DUP4 ADD MLOAD PUSH2 0xCE8 PUSH1 0x20 DUP7 ADD DUP3 PUSH2 0xCF3 JUMP JUMPDEST POP DUP1 SWAP2 POP POP SWAP3 SWAP2 POP POP JUMP JUMPDEST PUSH2 0xCFC DUP2 PUSH2 0xF6C JUMP JUMPDEST DUP3 MSTORE POP POP JUMP JUMPDEST PUSH2 0xD0B DUP2 PUSH2 0xF6C JUMP JUMPDEST DUP3 MSTORE POP POP JUMP JUMPDEST PUSH1 0x0 PUSH1 0x20 DUP3 ADD SWAP1 POP DUP2 DUP2 SUB PUSH1 0x0 DUP4 ADD MSTORE PUSH2 0xD2B DUP2 DUP5 PUSH2 0xB83 JUMP JUMPDEST SWAP1 POP SWAP3 SWAP2 POP POP JUMP JUMPDEST PUSH1 0x0 PUSH1 0x40 DUP3 ADD SWAP1 POP DUP2 DUP2 SUB PUSH1 0x0 DUP4 ADD MSTORE PUSH2 0xD4D DUP2 DUP6 PUSH2 0xC40 JUMP JUMPDEST SWAP1 POP PUSH2 0xD5C PUSH1 0x20 DUP4 ADD DUP5 PUSH2 0xD02 JUMP JUMPDEST SWAP4 SWAP3 POP POP POP JUMP JUMPDEST PUSH1 0x0 PUSH1 0x20 DUP3 ADD SWAP1 POP DUP2 DUP2 SUB PUSH1 0x0 DUP4 ADD MSTORE PUSH2 0xD7D DUP2 DUP5 PUSH2 0xCB6 JUMP JUMPDEST SWAP1 POP SWAP3 SWAP2 POP POP JUMP JUMPDEST PUSH1 0x0 PUSH1 0x20 DUP3 ADD SWAP1 POP PUSH2 0xD9A PUSH1 0x0 DUP4 ADD DUP5 PUSH2 0xD02 JUMP JUMPDEST SWAP3 SWAP2 POP POP JUMP JUMPDEST PUSH1 0x0 PUSH1 0x80 DUP3 ADD SWAP1 POP PUSH2 0xDB5 PUSH1 0x0 DUP4 ADD DUP8 PUSH2 0xD02 JUMP JUMPDEST PUSH2 0xDC2 PUSH1 0x20 DUP4 ADD DUP7 PUSH2 0xBF8 JUMP JUMPDEST PUSH2 0xDCF PUSH1 0x40 DUP4 ADD DUP6 PUSH2 0xB74 JUMP JUMPDEST PUSH2 0xDDC PUSH1 0x60 DUP4 ADD DUP5 PUSH2 0xD02 JUMP JUMPDEST SWAP6 SWAP5 POP POP POP POP POP JUMP JUMPDEST PUSH1 0x0 PUSH1 0x40 MLOAD SWAP1 POP DUP2 DUP2 ADD DUP2 DUP2 LT PUSH8 0xFFFFFFFFFFFFFFFF DUP3 GT OR ISZERO PUSH2 0xE0C JUMPI PUSH2 0xE0B PUSH2 0x1091 JUMP JUMPDEST JUMPDEST DUP1 PUSH1 0x40 MSTORE POP SWAP2 SWAP1 POP JUMP JUMPDEST PUSH1 0x0 PUSH8 0xFFFFFFFFFFFFFFFF DUP3 GT ISZERO PUSH2 0xE31 JUMPI PUSH2 0xE30 PUSH2 0x1091 JUMP JUMPDEST JUMPDEST PUSH1 0x20 DUP3 MUL SWAP1 POP PUSH1 0x20 DUP2 ADD SWAP1 POP SWAP2 SWAP1 POP JUMP JUMPDEST PUSH1 0x0 PUSH8 0xFFFFFFFFFFFFFFFF DUP3 GT ISZERO PUSH2 0xE5D JUMPI PUSH2 0xE5C PUSH2 0x1091 JUMP JUMPDEST JUMPDEST PUSH1 0x1F NOT PUSH1 0x1F DUP4 ADD AND SWAP1 POP PUSH1 0x20 DUP2 ADD SWAP1 POP SWAP2 SWAP1 POP JUMP JUMPDEST PUSH1 0x0 DUP2 SWAP1 POP PUSH1 0x20 DUP3 ADD SWAP1 POP SWAP2 SWAP1 POP JUMP JUMPDEST PUSH1 0x0 DUP2 MLOAD SWAP1 POP SWAP2 SWAP1 POP JUMP JUMPDEST PUSH1 0x0 DUP2 MLOAD SWAP1 POP SWAP2 SWAP1 POP JUMP JUMPDEST PUSH1 0x0 PUSH1 0x20 DUP3 ADD SWAP1 POP SWAP2 SWAP1 POP JUMP JUMPDEST PUSH1 0x0 DUP3 DUP3 MSTORE PUSH1 0x20 DUP3 ADD SWAP1 POP SWAP3 SWAP2 POP POP JUMP JUMPDEST PUSH1 0x0 DUP3 DUP3 MSTORE PUSH1 0x20 DUP3 ADD SWAP1 POP SWAP3 SWAP2 POP POP JUMP JUMPDEST PUSH1 0x0 DUP3 DUP3 MSTORE PUSH1 0x20 DUP3 ADD SWAP1 POP SWAP3 SWAP2 POP POP JUMP JUMPDEST PUSH1 0x0 PUSH2 0xEE3 DUP3 PUSH2 0xF6C JUMP JUMPDEST SWAP2 POP PUSH2 0xEEE DUP4 PUSH2 0xF6C JUMP JUMPDEST SWAP3 POP DUP3 PUSH32 0xFFFFFFFFFFFFFFFFFFFFFFFFFFFFFFFFFFFFFFFFFFFFFFFFFFFFFFFFFFFFFFFF SUB DUP3 GT ISZERO PUSH2 0xF23 JUMPI PUSH2 0xF22 PUSH2 0x1033 JUMP JUMPDEST JUMPDEST DUP3 DUP3 ADD SWAP1 POP SWAP3 SWAP2 POP POP JUMP JUMPDEST PUSH1 0x0 PUSH2 0xF39 DUP3 PUSH2 0xF4C JUMP JUMPDEST SWAP1 POP SWAP2 SWAP1 POP JUMP JUMPDEST PUSH1 0x0 DUP2 ISZERO ISZERO SWAP1 POP SWAP2 SWAP1 POP JUMP JUMPDEST PUSH1 0x0 PUSH20 0xFFFFFFFFFFFFFFFFFFFFFFFFFFFFFFFFFFFFFFFF DUP3 AND SWAP1 POP SWAP2 SWAP1 POP JUMP JUMPDEST PUSH1 0x0 DUP2 SWAP1 POP SWAP2 SWAP1 POP JUMP JUMPDEST DUP3 DUP2 DUP4 CALLDATACOPY PUSH1 0x0 DUP4 DUP4 ADD MSTORE POP POP POP JUMP JUMPDEST PUSH1 0x0 JUMPDEST DUP4 DUP2 LT ISZERO PUSH2 0xFA3 JUMPI DUP1 DUP3 ADD MLOAD DUP2 DUP5 ADD MSTORE PUSH1 0x20 DUP2 ADD SWAP1 POP PUSH2 0xF88 JUMP JUMPDEST DUP4 DUP2 GT ISZERO PUSH2 0xFB2 JUMPI PUSH1 0x0 DUP5 DUP5 ADD MSTORE JUMPDEST POP POP POP POP JUMP JUMPDEST PUSH1 0x0 PUSH1 0x2 DUP3 DIV SWAP1 POP PUSH1 0x1 DUP3 AND DUP1 PUSH2 0xFD0 JUMPI PUSH1 0x7F DUP3 AND SWAP2 POP JUMPDEST PUSH1 0x20 DUP3 LT DUP2 EQ ISZERO PUSH2 0xFE4 JUMPI PUSH2 0xFE3 PUSH2 0x1062 JUMP JUMPDEST JUMPDEST POP SWAP2 SWAP1 POP JUMP JUMPDEST PUSH1 0x0 PUSH2 0xFF5 DUP3 PUSH2 0xF6C JUMP JUMPDEST SWAP2 POP PUSH32 0xFFFFFFFFFFFFFFFFFFFFFFFFFFFFFFFFFFFFFFFFFFFFFFFFFFFFFFFFFFFFFFFF DUP3 EQ ISZERO PUSH2 0x1028 JUMPI PUSH2 0x1027 PUSH2 0x1033 JUMP JUMPDEST JUMPDEST PUSH1 0x1 DUP3 ADD SWAP1 POP SWAP2 SWAP1 POP JUMP JUMPDEST PUSH32 0x4E487B7100000000000000000000000000000000000000000000000000000000 PUSH1 0x0 MSTORE PUSH1 0x11 PUSH1 0x4 MSTORE PUSH1 0x24 PUSH1 0x0 REVERT JUMPDEST PUSH32 0x4E487B7100000000000000000000000000000000000000000000000000000000 PUSH1 0x0 MSTORE PUSH1 0x22 PUSH1 0x4 MSTORE PUSH1 0x24 PUSH1 0x0 REVERT JUMPDEST PUSH32 0x4E487B7100000000000000000000000000000000000000000000000000000000 PUSH1 0x0 MSTORE PUSH1 0x41 PUSH1 0x4 MSTORE PUSH1 0x24 PUSH1 0x0 REVERT JUMPDEST PUSH1 0x0 PUSH1 0x1F NOT PUSH1 0x1F DUP4 ADD AND SWAP1 POP SWAP2 SWAP1 POP JUMP JUMPDEST PUSH2 0x10DA DUP2 PUSH2 0xF2E JUMP JUMPDEST DUP2 EQ PUSH2 0x10E5 JUMPI PUSH1 0x0 DUP1 REVERT JUMPDEST POP JUMP JUMPDEST PUSH2 0x10F1 DUP2 PUSH2 0xF6C JUMP JUMPDEST DUP2 EQ PUSH2 0x10FC JUMPI PUSH1 0x0 DUP1 REVERT JUMPDEST POP JUMP INVALID LOG2 PUSH5 0x6970667358 0x22 SLT KECCAK256 ISZERO DUP10 SWAP14 0xD1 PUSH13 0x9E08455BEBFD39BBB7CD386386 SWAP2 0xE7 0xBA SHR 0x28 MSTORE KECCAK256 CREATE PUSH25 0x240A1699C564736F6C63430008000033000000000000000000 "
				},
				"gasEstimates": {
					"creation": {
						"codeDepositCost": "881000",
						"executionCost": "916",
						"totalCost": "881916"
					},
					"external": {
						"createBallot(string[])": "infinite",
						"getEndDate()": "1203",
						"getProposalStructure(uint256)": "infinite",
						"getProposals()": "infinite",
						"getStartDate()": "1226",
						"giveRightToVote(address)": "23341",
						"numOfProposals()": "1174",
						"proposals(uint256)": "infinite",
						"vote(uint256)": "infinite",
						"voters(address)": "infinite"
					},
					"internal": {
						"setEndDate()": "infinite",
						"setStartDate()": "20022"
					}
				},
				"methodIdentifiers": {
					"createBallot(string[])": "836bc692",
					"getEndDate()": "b1356488",
					"getProposalStructure(uint256)": "e9d6c6da",
					"getProposals()": "62564c48",
					"getStartDate()": "78f305c6",
					"giveRightToVote(address)": "9e7b8d61",
					"numOfProposals()": "5f570253",
					"proposals(uint256)": "013cf08b",
					"vote(uint256)": "0121b93f",
					"voters(address)": "a3ec138d"
				}
			},
			"storageLayout": {
				"storage": [
					{
						"astId": 3,
						"contract": "contracts/prop_test.sol:Ballot",
						"label": "chairperson",
						"offset": 0,
						"slot": "0",
						"type": "t_address"
					},
					{
						"astId": 5,
						"contract": "contracts/prop_test.sol:Ballot",
						"label": "startDate",
						"offset": 0,
						"slot": "1",
						"type": "t_uint256"
					},
					{
						"astId": 7,
						"contract": "contracts/prop_test.sol:Ballot",
						"label": "endDate",
						"offset": 0,
						"slot": "2",
						"type": "t_uint256"
					},
					{
						"astId": 9,
						"contract": "contracts/prop_test.sol:Ballot",
						"label": "numOfProposals",
						"offset": 0,
						"slot": "3",
						"type": "t_uint256"
					},
					{
						"astId": 28,
						"contract": "contracts/prop_test.sol:Ballot",
						"label": "voters",
						"offset": 0,
						"slot": "4",
						"type": "t_mapping(t_address,t_struct(Voter)18_storage)"
					},
					{
						"astId": 32,
						"contract": "contracts/prop_test.sol:Ballot",
						"label": "proposals",
						"offset": 0,
						"slot": "5",
						"type": "t_array(t_struct(Proposal)23_storage)dyn_storage"
					}
				],
				"types": {
					"t_address": {
						"encoding": "inplace",
						"label": "address",
						"numberOfBytes": "20"
					},
					"t_array(t_struct(Proposal)23_storage)dyn_storage": {
						"base": "t_struct(Proposal)23_storage",
						"encoding": "dynamic_array",
						"label": "struct Ballot.Proposal[]",
						"numberOfBytes": "32"
					},
					"t_bool": {
						"encoding": "inplace",
						"label": "bool",
						"numberOfBytes": "1"
					},
					"t_mapping(t_address,t_struct(Voter)18_storage)": {
						"encoding": "mapping",
						"key": "t_address",
						"label": "mapping(address => struct Ballot.Voter)",
						"numberOfBytes": "32",
						"value": "t_struct(Voter)18_storage"
					},
					"t_string_storage": {
						"encoding": "bytes",
						"label": "string",
						"numberOfBytes": "32"
					},
					"t_struct(Proposal)23_storage": {
						"encoding": "inplace",
						"label": "struct Ballot.Proposal",
						"members": [
							{
								"astId": 20,
								"contract": "contracts/prop_test.sol:Ballot",
								"label": "name",
								"offset": 0,
								"slot": "0",
								"type": "t_string_storage"
							},
							{
								"astId": 22,
								"contract": "contracts/prop_test.sol:Ballot",
								"label": "voteCount",
								"offset": 0,
								"slot": "1",
								"type": "t_uint256"
							}
						],
						"numberOfBytes": "64"
					},
					"t_struct(Voter)18_storage": {
						"encoding": "inplace",
						"label": "struct Ballot.Voter",
						"members": [
							{
								"astId": 11,
								"contract": "contracts/prop_test.sol:Ballot",
								"label": "weight",
								"offset": 0,
								"slot": "0",
								"type": "t_uint256"
							},
							{
								"astId": 13,
								"contract": "contracts/prop_test.sol:Ballot",
								"label": "voted",
								"offset": 0,
								"slot": "1",
								"type": "t_bool"
							},
							{
								"astId": 15,
								"contract": "contracts/prop_test.sol:Ballot",
								"label": "delegate",
								"offset": 1,
								"slot": "1",
								"type": "t_address"
							},
							{
								"astId": 17,
								"contract": "contracts/prop_test.sol:Ballot",
								"label": "vote",
								"offset": 0,
								"slot": "2",
								"type": "t_uint256"
							}
						],
						"numberOfBytes": "96"
					},
					"t_uint256": {
						"encoding": "inplace",
						"label": "uint256",
						"numberOfBytes": "32"
					}
				}
			},
			"userdoc": {
				"kind": "user",
				"methods": {},
				"version": 1
			}
		}
	}
}