{
	"contracts/sandbox.sol": {
		"Sandbox": {
			"abi": [
				{
					"inputs": [
						{
							"internalType": "address",
							"name": "user",
							"type": "address"
						}
					],
					"name": "isUser",
					"outputs": [
						{
							"internalType": "bool",
							"name": "isIndeed",
							"type": "bool"
						}
					],
					"stateMutability": "view",
					"type": "function"
				},
				{
					"inputs": [
						{
							"internalType": "address",
							"name": "",
							"type": "address"
						}
					],
					"name": "userStructs",
					"outputs": [
						{
							"internalType": "uint256",
							"name": "something",
							"type": "uint256"
						},
						{
							"internalType": "bool",
							"name": "isUser",
							"type": "bool"
						}
					],
					"stateMutability": "view",
					"type": "function"
				}
			],
			"devdoc": {
				"kind": "dev",
				"methods": {},
				"version": 1
			},
			"evm": {
				"assembly": "    /* \"contracts/sandbox.sol\":95:912  contract Sandbox{\r... */\n  mstore(0x40, 0x80)\n  callvalue\n  dup1\n  iszero\n  tag_1\n  jumpi\n  0x00\n  dup1\n  revert\ntag_1:\n  pop\n  dataSize(sub_0)\n  dup1\n  dataOffset(sub_0)\n  0x00\n  codecopy\n  0x00\n  return\nstop\n\nsub_0: assembly {\n        /* \"contracts/sandbox.sol\":95:912  contract Sandbox{\r... */\n      mstore(0x40, 0x80)\n      callvalue\n      dup1\n      iszero\n      tag_1\n      jumpi\n      0x00\n      dup1\n      revert\n    tag_1:\n      pop\n      jumpi(tag_2, lt(calldatasize, 0x04))\n      shr(0xe0, calldataload(0x00))\n      dup1\n      0x19447eb6\n      eq\n      tag_3\n      jumpi\n      dup1\n      0x4209fff1\n      eq\n      tag_4\n      jumpi\n    tag_2:\n      0x00\n      dup1\n      revert\n        /* \"contracts/sandbox.sol\":235:284  mapping(address => UserStruct) public userStructs */\n    tag_3:\n      tag_5\n      0x04\n      dup1\n      calldatasize\n      sub\n      dup2\n      add\n      swap1\n      tag_6\n      swap2\n      swap1\n      tag_7\n      jump\t// in\n    tag_6:\n      tag_8\n      jump\t// in\n    tag_5:\n      mload(0x40)\n      tag_9\n      swap3\n      swap2\n      swap1\n      tag_10\n      jump\t// in\n    tag_9:\n      mload(0x40)\n      dup1\n      swap2\n      sub\n      swap1\n      return\n        /* \"contracts/sandbox.sol\":293:410  function isUser(address user) public view returns(bool isIndeed) {\r... */\n    tag_4:\n      tag_11\n      0x04\n      dup1\n      calldatasize\n      sub\n      dup2\n      add\n      swap1\n      tag_12\n      swap2\n      swap1\n      tag_7\n      jump\t// in\n    tag_12:\n      tag_13\n      jump\t// in\n    tag_11:\n      mload(0x40)\n      tag_14\n      swap2\n      swap1\n      tag_15\n      jump\t// in\n    tag_14:\n      mload(0x40)\n      dup1\n      swap2\n      sub\n      swap1\n      return\n        /* \"contracts/sandbox.sol\":235:284  mapping(address => UserStruct) public userStructs */\n    tag_8:\n      mstore(0x20, 0x00)\n      dup1\n      0x00\n      mstore\n      keccak256(0x00, 0x40)\n      0x00\n      swap2\n      pop\n      swap1\n      pop\n      dup1\n      0x00\n      add\n      sload\n      swap1\n      dup1\n      0x02\n      add\n      0x00\n      swap1\n      sload\n      swap1\n      0x0100\n      exp\n      swap1\n      div\n      0xff\n      and\n      swap1\n      pop\n      dup3\n      jump\t// out\n        /* \"contracts/sandbox.sol\":293:410  function isUser(address user) public view returns(bool isIndeed) {\r... */\n    tag_13:\n        /* \"contracts/sandbox.sol\":343:356  bool isIndeed */\n      0x00\n        /* \"contracts/sandbox.sol\":376:387  userStructs */\n      dup1\n        /* \"contracts/sandbox.sol\":376:393  userStructs[user] */\n      0x00\n        /* \"contracts/sandbox.sol\":388:392  user */\n      dup4\n        /* \"contracts/sandbox.sol\":376:393  userStructs[user] */\n      0xffffffffffffffffffffffffffffffffffffffff\n      and\n      0xffffffffffffffffffffffffffffffffffffffff\n      and\n      dup2\n      mstore\n      0x20\n      add\n      swap1\n      dup2\n      mstore\n      0x20\n      add\n      0x00\n      keccak256\n        /* \"contracts/sandbox.sol\":375:401  (userStructs[user]).isUser */\n      0x02\n      add\n      0x00\n      swap1\n      sload\n      swap1\n      0x0100\n      exp\n      swap1\n      div\n      0xff\n      and\n        /* \"contracts/sandbox.sol\":369:401  return(userStructs[user]).isUser */\n      swap1\n      pop\n        /* \"contracts/sandbox.sol\":293:410  function isUser(address user) public view returns(bool isIndeed) {\r... */\n      swap2\n      swap1\n      pop\n      jump\t// out\n        /* \"#utility.yul\":7:146   */\n    tag_18:\n      0x00\n        /* \"#utility.yul\":91:97   */\n      dup2\n        /* \"#utility.yul\":78:98   */\n      calldataload\n        /* \"#utility.yul\":69:98   */\n      swap1\n      pop\n        /* \"#utility.yul\":107:140   */\n      tag_20\n        /* \"#utility.yul\":134:139   */\n      dup2\n        /* \"#utility.yul\":107:140   */\n      tag_21\n      jump\t// in\n    tag_20:\n        /* \"#utility.yul\":59:146   */\n      swap3\n      swap2\n      pop\n      pop\n      jump\t// out\n        /* \"#utility.yul\":152:414   */\n    tag_7:\n      0x00\n        /* \"#utility.yul\":260:262   */\n      0x20\n        /* \"#utility.yul\":248:257   */\n      dup3\n        /* \"#utility.yul\":239:246   */\n      dup5\n        /* \"#utility.yul\":235:258   */\n      sub\n        /* \"#utility.yul\":231:263   */\n      slt\n        /* \"#utility.yul\":228:230   */\n      iszero\n      tag_23\n      jumpi\n        /* \"#utility.yul\":276:277   */\n      0x00\n        /* \"#utility.yul\":273:274   */\n      dup1\n        /* \"#utility.yul\":266:278   */\n      revert\n        /* \"#utility.yul\":228:230   */\n    tag_23:\n        /* \"#utility.yul\":319:320   */\n      0x00\n        /* \"#utility.yul\":344:397   */\n      tag_24\n        /* \"#utility.yul\":389:396   */\n      dup5\n        /* \"#utility.yul\":380:386   */\n      dup3\n        /* \"#utility.yul\":369:378   */\n      dup6\n        /* \"#utility.yul\":365:387   */\n      add\n        /* \"#utility.yul\":344:397   */\n      tag_18\n      jump\t// in\n    tag_24:\n        /* \"#utility.yul\":334:397   */\n      swap2\n      pop\n        /* \"#utility.yul\":290:407   */\n      pop\n        /* \"#utility.yul\":218:414   */\n      swap3\n      swap2\n      pop\n      pop\n      jump\t// out\n        /* \"#utility.yul\":420:529   */\n    tag_25:\n        /* \"#utility.yul\":501:522   */\n      tag_27\n        /* \"#utility.yul\":516:521   */\n      dup2\n        /* \"#utility.yul\":501:522   */\n      tag_28\n      jump\t// in\n    tag_27:\n        /* \"#utility.yul\":496:499   */\n      dup3\n        /* \"#utility.yul\":489:523   */\n      mstore\n        /* \"#utility.yul\":479:529   */\n      pop\n      pop\n      jump\t// out\n        /* \"#utility.yul\":535:653   */\n    tag_29:\n        /* \"#utility.yul\":622:646   */\n      tag_31\n        /* \"#utility.yul\":640:645   */\n      dup2\n        /* \"#utility.yul\":622:646   */\n      tag_32\n      jump\t// in\n    tag_31:\n        /* \"#utility.yul\":617:620   */\n      dup3\n        /* \"#utility.yul\":610:647   */\n      mstore\n        /* \"#utility.yul\":600:653   */\n      pop\n      pop\n      jump\t// out\n        /* \"#utility.yul\":659:869   */\n    tag_15:\n      0x00\n        /* \"#utility.yul\":784:786   */\n      0x20\n        /* \"#utility.yul\":773:782   */\n      dup3\n        /* \"#utility.yul\":769:787   */\n      add\n        /* \"#utility.yul\":761:787   */\n      swap1\n      pop\n        /* \"#utility.yul\":797:862   */\n      tag_34\n        /* \"#utility.yul\":859:860   */\n      0x00\n        /* \"#utility.yul\":848:857   */\n      dup4\n        /* \"#utility.yul\":844:861   */\n      add\n        /* \"#utility.yul\":835:841   */\n      dup5\n        /* \"#utility.yul\":797:862   */\n      tag_25\n      jump\t// in\n    tag_34:\n        /* \"#utility.yul\":751:869   */\n      swap3\n      swap2\n      pop\n      pop\n      jump\t// out\n        /* \"#utility.yul\":875:1195   */\n    tag_10:\n      0x00\n        /* \"#utility.yul\":1028:1030   */\n      0x40\n        /* \"#utility.yul\":1017:1026   */\n      dup3\n        /* \"#utility.yul\":1013:1031   */\n      add\n        /* \"#utility.yul\":1005:1031   */\n      swap1\n      pop\n        /* \"#utility.yul\":1041:1112   */\n      tag_36\n        /* \"#utility.yul\":1109:1110   */\n      0x00\n        /* \"#utility.yul\":1098:1107   */\n      dup4\n        /* \"#utility.yul\":1094:1111   */\n      add\n        /* \"#utility.yul\":1085:1091   */\n      dup6\n        /* \"#utility.yul\":1041:1112   */\n      tag_29\n      jump\t// in\n    tag_36:\n        /* \"#utility.yul\":1122:1188   */\n      tag_37\n        /* \"#utility.yul\":1184:1186   */\n      0x20\n        /* \"#utility.yul\":1173:1182   */\n      dup4\n        /* \"#utility.yul\":1169:1187   */\n      add\n        /* \"#utility.yul\":1160:1166   */\n      dup5\n        /* \"#utility.yul\":1122:1188   */\n      tag_25\n      jump\t// in\n    tag_37:\n        /* \"#utility.yul\":995:1195   */\n      swap4\n      swap3\n      pop\n      pop\n      pop\n      jump\t// out\n        /* \"#utility.yul\":1201:1297   */\n    tag_38:\n      0x00\n        /* \"#utility.yul\":1267:1291   */\n      tag_40\n        /* \"#utility.yul\":1285:1290   */\n      dup3\n        /* \"#utility.yul\":1267:1291   */\n      tag_41\n      jump\t// in\n    tag_40:\n        /* \"#utility.yul\":1256:1291   */\n      swap1\n      pop\n        /* \"#utility.yul\":1246:1297   */\n      swap2\n      swap1\n      pop\n      jump\t// out\n        /* \"#utility.yul\":1303:1393   */\n    tag_28:\n      0x00\n        /* \"#utility.yul\":1380:1385   */\n      dup2\n        /* \"#utility.yul\":1373:1386   */\n      iszero\n        /* \"#utility.yul\":1366:1387   */\n      iszero\n        /* \"#utility.yul\":1355:1387   */\n      swap1\n      pop\n        /* \"#utility.yul\":1345:1393   */\n      swap2\n      swap1\n      pop\n      jump\t// out\n        /* \"#utility.yul\":1399:1525   */\n    tag_41:\n      0x00\n        /* \"#utility.yul\":1476:1518   */\n      0xffffffffffffffffffffffffffffffffffffffff\n        /* \"#utility.yul\":1469:1474   */\n      dup3\n        /* \"#utility.yul\":1465:1519   */\n      and\n        /* \"#utility.yul\":1454:1519   */\n      swap1\n      pop\n        /* \"#utility.yul\":1444:1525   */\n      swap2\n      swap1\n      pop\n      jump\t// out\n        /* \"#utility.yul\":1531:1608   */\n    tag_32:\n      0x00\n        /* \"#utility.yul\":1597:1602   */\n      dup2\n        /* \"#utility.yul\":1586:1602   */\n      swap1\n      pop\n        /* \"#utility.yul\":1576:1608   */\n      swap2\n      swap1\n      pop\n      jump\t// out\n        /* \"#utility.yul\":1614:1736   */\n    tag_21:\n        /* \"#utility.yul\":1687:1711   */\n      tag_46\n        /* \"#utility.yul\":1705:1710   */\n      dup2\n        /* \"#utility.yul\":1687:1711   */\n      tag_38\n      jump\t// in\n    tag_46:\n        /* \"#utility.yul\":1680:1685   */\n      dup2\n        /* \"#utility.yul\":1677:1712   */\n      eq\n        /* \"#utility.yul\":1667:1669   */\n      tag_47\n      jumpi\n        /* \"#utility.yul\":1726:1727   */\n      0x00\n        /* \"#utility.yul\":1723:1724   */\n      dup1\n        /* \"#utility.yul\":1716:1728   */\n      revert\n        /* \"#utility.yul\":1667:1669   */\n    tag_47:\n        /* \"#utility.yul\":1657:1736   */\n      pop\n      jump\t// out\n\n    auxdata: 0xa264697066735822122008657d012971f53af8b79385d60b32a57333db4dd2e89cbe4bf396b8c8c74b9064736f6c63430008000033\n}\n",
				"bytecode": {
					"linkReferences": {},
					"object": "608060405234801561001057600080fd5b5061025a806100206000396000f3fe608060405234801561001057600080fd5b50600436106100365760003560e01c806319447eb61461003b5780634209fff11461006c575b600080fd5b6100556004803603810190610050919061013a565b61009c565b60405161006392919061019c565b60405180910390f35b6100866004803603810190610081919061013a565b6100cd565b6040516100939190610181565b60405180910390f35b60006020528060005260406000206000915090508060000154908060020160009054906101000a900460ff16905082565b60008060008373ffffffffffffffffffffffffffffffffffffffff1673ffffffffffffffffffffffffffffffffffffffff16815260200190815260200160002060020160009054906101000a900460ff169050919050565b6000813590506101348161020d565b92915050565b60006020828403121561014c57600080fd5b600061015a84828501610125565b91505092915050565b61016c816101d7565b82525050565b61017b81610203565b82525050565b60006020820190506101966000830184610163565b92915050565b60006040820190506101b16000830185610172565b6101be6020830184610163565b9392505050565b60006101d0826101e3565b9050919050565b60008115159050919050565b600073ffffffffffffffffffffffffffffffffffffffff82169050919050565b6000819050919050565b610216816101c5565b811461022157600080fd5b5056fea264697066735822122008657d012971f53af8b79385d60b32a57333db4dd2e89cbe4bf396b8c8c74b9064736f6c63430008000033",
					"opcodes": "PUSH1 0x80 PUSH1 0x40 MSTORE CALLVALUE DUP1 ISZERO PUSH2 0x10 JUMPI PUSH1 0x0 DUP1 REVERT JUMPDEST POP PUSH2 0x25A DUP1 PUSH2 0x20 PUSH1 0x0 CODECOPY PUSH1 0x0 RETURN INVALID PUSH1 0x80 PUSH1 0x40 MSTORE CALLVALUE DUP1 ISZERO PUSH2 0x10 JUMPI PUSH1 0x0 DUP1 REVERT JUMPDEST POP PUSH1 0x4 CALLDATASIZE LT PUSH2 0x36 JUMPI PUSH1 0x0 CALLDATALOAD PUSH1 0xE0 SHR DUP1 PUSH4 0x19447EB6 EQ PUSH2 0x3B JUMPI DUP1 PUSH4 0x4209FFF1 EQ PUSH2 0x6C JUMPI JUMPDEST PUSH1 0x0 DUP1 REVERT JUMPDEST PUSH2 0x55 PUSH1 0x4 DUP1 CALLDATASIZE SUB DUP2 ADD SWAP1 PUSH2 0x50 SWAP2 SWAP1 PUSH2 0x13A JUMP JUMPDEST PUSH2 0x9C JUMP JUMPDEST PUSH1 0x40 MLOAD PUSH2 0x63 SWAP3 SWAP2 SWAP1 PUSH2 0x19C JUMP JUMPDEST PUSH1 0x40 MLOAD DUP1 SWAP2 SUB SWAP1 RETURN JUMPDEST PUSH2 0x86 PUSH1 0x4 DUP1 CALLDATASIZE SUB DUP2 ADD SWAP1 PUSH2 0x81 SWAP2 SWAP1 PUSH2 0x13A JUMP JUMPDEST PUSH2 0xCD JUMP JUMPDEST PUSH1 0x40 MLOAD PUSH2 0x93 SWAP2 SWAP1 PUSH2 0x181 JUMP JUMPDEST PUSH1 0x40 MLOAD DUP1 SWAP2 SUB SWAP1 RETURN JUMPDEST PUSH1 0x0 PUSH1 0x20 MSTORE DUP1 PUSH1 0x0 MSTORE PUSH1 0x40 PUSH1 0x0 KECCAK256 PUSH1 0x0 SWAP2 POP SWAP1 POP DUP1 PUSH1 0x0 ADD SLOAD SWAP1 DUP1 PUSH1 0x2 ADD PUSH1 0x0 SWAP1 SLOAD SWAP1 PUSH2 0x100 EXP SWAP1 DIV PUSH1 0xFF AND SWAP1 POP DUP3 JUMP JUMPDEST PUSH1 0x0 DUP1 PUSH1 0x0 DUP4 PUSH20 0xFFFFFFFFFFFFFFFFFFFFFFFFFFFFFFFFFFFFFFFF AND PUSH20 0xFFFFFFFFFFFFFFFFFFFFFFFFFFFFFFFFFFFFFFFF AND DUP2 MSTORE PUSH1 0x20 ADD SWAP1 DUP2 MSTORE PUSH1 0x20 ADD PUSH1 0x0 KECCAK256 PUSH1 0x2 ADD PUSH1 0x0 SWAP1 SLOAD SWAP1 PUSH2 0x100 EXP SWAP1 DIV PUSH1 0xFF AND SWAP1 POP SWAP2 SWAP1 POP JUMP JUMPDEST PUSH1 0x0 DUP2 CALLDATALOAD SWAP1 POP PUSH2 0x134 DUP2 PUSH2 0x20D JUMP JUMPDEST SWAP3 SWAP2 POP POP JUMP JUMPDEST PUSH1 0x0 PUSH1 0x20 DUP3 DUP5 SUB SLT ISZERO PUSH2 0x14C JUMPI PUSH1 0x0 DUP1 REVERT JUMPDEST PUSH1 0x0 PUSH2 0x15A DUP5 DUP3 DUP6 ADD PUSH2 0x125 JUMP JUMPDEST SWAP2 POP POP SWAP3 SWAP2 POP POP JUMP JUMPDEST PUSH2 0x16C DUP2 PUSH2 0x1D7 JUMP JUMPDEST DUP3 MSTORE POP POP JUMP JUMPDEST PUSH2 0x17B DUP2 PUSH2 0x203 JUMP JUMPDEST DUP3 MSTORE POP POP JUMP JUMPDEST PUSH1 0x0 PUSH1 0x20 DUP3 ADD SWAP1 POP PUSH2 0x196 PUSH1 0x0 DUP4 ADD DUP5 PUSH2 0x163 JUMP JUMPDEST SWAP3 SWAP2 POP POP JUMP JUMPDEST PUSH1 0x0 PUSH1 0x40 DUP3 ADD SWAP1 POP PUSH2 0x1B1 PUSH1 0x0 DUP4 ADD DUP6 PUSH2 0x172 JUMP JUMPDEST PUSH2 0x1BE PUSH1 0x20 DUP4 ADD DUP5 PUSH2 0x163 JUMP JUMPDEST SWAP4 SWAP3 POP POP POP JUMP JUMPDEST PUSH1 0x0 PUSH2 0x1D0 DUP3 PUSH2 0x1E3 JUMP JUMPDEST SWAP1 POP SWAP2 SWAP1 POP JUMP JUMPDEST PUSH1 0x0 DUP2 ISZERO ISZERO SWAP1 POP SWAP2 SWAP1 POP JUMP JUMPDEST PUSH1 0x0 PUSH20 0xFFFFFFFFFFFFFFFFFFFFFFFFFFFFFFFFFFFFFFFF DUP3 AND SWAP1 POP SWAP2 SWAP1 POP JUMP JUMPDEST PUSH1 0x0 DUP2 SWAP1 POP SWAP2 SWAP1 POP JUMP JUMPDEST PUSH2 0x216 DUP2 PUSH2 0x1C5 JUMP JUMPDEST DUP2 EQ PUSH2 0x221 JUMPI PUSH1 0x0 DUP1 REVERT JUMPDEST POP JUMP INVALID LOG2 PUSH5 0x6970667358 0x22 SLT KECCAK256 ADDMOD PUSH6 0x7D012971F53A 0xF8 0xB7 SWAP4 DUP6 0xD6 SIGNEXTEND ORIGIN 0xA5 PUSH20 0x33DB4DD2E89CBE4BF396B8C8C74B9064736F6C63 NUMBER STOP ADDMOD STOP STOP CALLER "
				},
				"gasEstimates": {
					"creation": {
						"codeDepositCost": "120400",
						"executionCost": "165",
						"totalCost": "120565"
					},
					"external": {
						"isUser(address)": "1589",
						"userStructs(address)": "2460"
					}
				},
				"methodIdentifiers": {
					"isUser(address)": "4209fff1",
					"userStructs(address)": "19447eb6"
				}
			},
			"storageLayout": {
				"storage": [
					{
						"astId": 15,
						"contract": "contracts/sandbox.sol:Sandbox",
						"label": "userStructs",
						"offset": 0,
						"slot": "0",
						"type": "t_mapping(t_address,t_struct(UserStruct)10_storage)"
					}
				],
				"types": {
					"t_address": {
						"encoding": "inplace",
						"label": "address",
						"numberOfBytes": "20"
					},
					"t_array(t_string_storage)dyn_storage": {
						"base": "t_string_storage",
						"encoding": "dynamic_array",
						"label": "string[]",
						"numberOfBytes": "32"
					},
					"t_bool": {
						"encoding": "inplace",
						"label": "bool",
						"numberOfBytes": "1"
					},
					"t_mapping(t_address,t_struct(UserStruct)10_storage)": {
						"encoding": "mapping",
						"key": "t_address",
						"label": "mapping(address => struct Sandbox.UserStruct)",
						"numberOfBytes": "32",
						"value": "t_struct(UserStruct)10_storage"
					},
					"t_string_storage": {
						"encoding": "bytes",
						"label": "string",
						"numberOfBytes": "32"
					},
					"t_struct(UserStruct)10_storage": {
						"encoding": "inplace",
						"label": "struct Sandbox.UserStruct",
						"members": [
							{
								"astId": 4,
								"contract": "contracts/sandbox.sol:Sandbox",
								"label": "something",
								"offset": 0,
								"slot": "0",
								"type": "t_uint256"
							},
							{
								"astId": 7,
								"contract": "contracts/sandbox.sol:Sandbox",
								"label": "fileHashes",
								"offset": 0,
								"slot": "1",
								"type": "t_array(t_string_storage)dyn_storage"
							},
							{
								"astId": 9,
								"contract": "contracts/sandbox.sol:Sandbox",
								"label": "isUser",
								"offset": 0,
								"slot": "2",
								"type": "t_bool"
							}
						],
						"numberOfBytes": "96"
					},
					"t_uint256": {
						"encoding": "inplace",
						"label": "uint256",
						"numberOfBytes": "32"
					}
				}
			},
			"userdoc": {
				"kind": "user",
				"methods": {},
				"version": 1
			}
		}
	}
}