{
	"contracts/visov_durku.sol": {
		"BallotFactory": {
			"abi": [
				{
					"inputs": [
						{
							"internalType": "uint256",
							"name": "",
							"type": "uint256"
						}
					],
					"name": "ballotArray",
					"outputs": [
						{
							"internalType": "contract Ballot",
							"name": "",
							"type": "address"
						}
					],
					"stateMutability": "view",
					"type": "function"
				},
				{
					"inputs": [
						{
							"internalType": "uint256",
							"name": "_ballotIndex",
							"type": "uint256"
						},
						{
							"internalType": "string[]",
							"name": "proposalNames",
							"type": "string[]"
						}
					],
					"name": "bfCreateBallot",
					"outputs": [],
					"stateMutability": "nonpayable",
					"type": "function"
				},
				{
					"inputs": [
						{
							"internalType": "uint256",
							"name": "_ballotIndex",
							"type": "uint256"
						}
					],
					"name": "bfGetCreatorBallot",
					"outputs": [
						{
							"internalType": "address",
							"name": "",
							"type": "address"
						}
					],
					"stateMutability": "view",
					"type": "function"
				},
				{
					"inputs": [
						{
							"internalType": "uint256",
							"name": "_ballotIndex",
							"type": "uint256"
						}
					],
					"name": "bfGetNumOfProposals",
					"outputs": [
						{
							"internalType": "uint256",
							"name": "",
							"type": "uint256"
						}
					],
					"stateMutability": "view",
					"type": "function"
				},
				{
					"inputs": [
						{
							"internalType": "uint256",
							"name": "_ballotIndex",
							"type": "uint256"
						},
						{
							"internalType": "uint256",
							"name": "_proposalId",
							"type": "uint256"
						}
					],
					"name": "bfGetProposalStructure",
					"outputs": [
						{
							"components": [
								{
									"internalType": "string",
									"name": "name",
									"type": "string"
								},
								{
									"internalType": "uint256",
									"name": "voteCount",
									"type": "uint256"
								}
							],
							"internalType": "struct Ballot.Proposal",
							"name": "",
							"type": "tuple"
						}
					],
					"stateMutability": "view",
					"type": "function"
				},
				{
					"inputs": [
						{
							"internalType": "uint256",
							"name": "_ballotIndex",
							"type": "uint256"
						}
					],
					"name": "bfGetProposals",
					"outputs": [
						{
							"components": [
								{
									"internalType": "string",
									"name": "name",
									"type": "string"
								},
								{
									"internalType": "uint256",
									"name": "voteCount",
									"type": "uint256"
								}
							],
							"internalType": "struct Ballot.Proposal[]",
							"name": "",
							"type": "tuple[]"
						}
					],
					"stateMutability": "view",
					"type": "function"
				},
				{
					"inputs": [
						{
							"internalType": "uint256",
							"name": "_ballotIndex",
							"type": "uint256"
						}
					],
					"name": "bfGetStatus",
					"outputs": [
						{
							"internalType": "uint256",
							"name": "",
							"type": "uint256"
						}
					],
					"stateMutability": "view",
					"type": "function"
				},
				{
					"inputs": [
						{
							"internalType": "uint256",
							"name": "_ballotIndex",
							"type": "uint256"
						},
						{
							"internalType": "address",
							"name": "_voter",
							"type": "address"
						}
					],
					"name": "bfGiveRightToVote",
					"outputs": [],
					"stateMutability": "nonpayable",
					"type": "function"
				},
				{
					"inputs": [
						{
							"internalType": "uint256",
							"name": "_ballotIndex",
							"type": "uint256"
						},
						{
							"internalType": "uint256",
							"name": "_status",
							"type": "uint256"
						}
					],
					"name": "bfSetStatus",
					"outputs": [],
					"stateMutability": "nonpayable",
					"type": "function"
				},
				{
					"inputs": [
						{
							"internalType": "uint256",
							"name": "_ballotIndex",
							"type": "uint256"
						},
						{
							"internalType": "uint256",
							"name": "_proposal",
							"type": "uint256"
						}
					],
					"name": "bfVote",
					"outputs": [],
					"stateMutability": "nonpayable",
					"type": "function"
				},
				{
					"inputs": [
						{
							"internalType": "uint256",
							"name": "_ballotIndex",
							"type": "uint256"
						}
					],
					"name": "bfWinningName",
					"outputs": [
						{
							"internalType": "string",
							"name": "winnerName",
							"type": "string"
						}
					],
					"stateMutability": "view",
					"type": "function"
				},
				{
					"inputs": [
						{
							"internalType": "uint256",
							"name": "_ballotIndex",
							"type": "uint256"
						}
					],
					"name": "bfWinningProposal",
					"outputs": [
						{
							"internalType": "uint256",
							"name": "winningProposal",
							"type": "uint256"
						}
					],
					"stateMutability": "view",
					"type": "function"
				},
				{
					"inputs": [
						{
							"internalType": "string[]",
							"name": "proposalNames",
							"type": "string[]"
						}
					],
					"name": "createBallot",
					"outputs": [],
					"stateMutability": "nonpayable",
					"type": "function"
				},
				{
					"inputs": [],
					"name": "createBallotContract",
					"outputs": [],
					"stateMutability": "nonpayable",
					"type": "function"
				},
				{
					"inputs": [],
					"name": "getCreatorBallot",
					"outputs": [
						{
							"internalType": "address",
							"name": "",
							"type": "address"
						}
					],
					"stateMutability": "view",
					"type": "function"
				},
				{
					"inputs": [
						{
							"internalType": "uint256",
							"name": "_ballotIndex",
							"type": "uint256"
						}
					],
					"name": "getEndDate",
					"outputs": [
						{
							"internalType": "uint256",
							"name": "",
							"type": "uint256"
						}
					],
					"stateMutability": "view",
					"type": "function"
				},
				{
					"inputs": [],
					"name": "getEndDate",
					"outputs": [
						{
							"internalType": "uint256",
							"name": "",
							"type": "uint256"
						}
					],
					"stateMutability": "view",
					"type": "function"
				},
				{
					"inputs": [
						{
							"internalType": "uint256",
							"name": "_proposalId",
							"type": "uint256"
						}
					],
					"name": "getProposalStructure",
					"outputs": [
						{
							"components": [
								{
									"internalType": "string",
									"name": "name",
									"type": "string"
								},
								{
									"internalType": "uint256",
									"name": "voteCount",
									"type": "uint256"
								}
							],
							"internalType": "struct Ballot.Proposal",
							"name": "",
							"type": "tuple"
						}
					],
					"stateMutability": "view",
					"type": "function"
				},
				{
					"inputs": [],
					"name": "getProposals",
					"outputs": [
						{
							"components": [
								{
									"internalType": "string",
									"name": "name",
									"type": "string"
								},
								{
									"internalType": "uint256",
									"name": "voteCount",
									"type": "uint256"
								}
							],
							"internalType": "struct Ballot.Proposal[]",
							"name": "",
							"type": "tuple[]"
						}
					],
					"stateMutability": "view",
					"type": "function"
				},
				{
					"inputs": [],
					"name": "getStartDate",
					"outputs": [
						{
							"internalType": "uint256",
							"name": "",
							"type": "uint256"
						}
					],
					"stateMutability": "view",
					"type": "function"
				},
				{
					"inputs": [
						{
							"internalType": "uint256",
							"name": "_ballotIndex",
							"type": "uint256"
						}
					],
					"name": "getStartDate",
					"outputs": [
						{
							"internalType": "uint256",
							"name": "",
							"type": "uint256"
						}
					],
					"stateMutability": "view",
					"type": "function"
				},
				{
					"inputs": [],
					"name": "getStatus",
					"outputs": [
						{
							"internalType": "uint256",
							"name": "",
							"type": "uint256"
						}
					],
					"stateMutability": "view",
					"type": "function"
				},
				{
					"inputs": [],
					"name": "getnumOfProposals",
					"outputs": [
						{
							"internalType": "uint256",
							"name": "",
							"type": "uint256"
						}
					],
					"stateMutability": "view",
					"type": "function"
				},
				{
					"inputs": [
						{
							"internalType": "address",
							"name": "voter",
							"type": "address"
						}
					],
					"name": "giveRightToVote",
					"outputs": [],
					"stateMutability": "nonpayable",
					"type": "function"
				},
				{
					"inputs": [
						{
							"internalType": "uint256",
							"name": "",
							"type": "uint256"
						}
					],
					"name": "proposals",
					"outputs": [
						{
							"internalType": "string",
							"name": "name",
							"type": "string"
						},
						{
							"internalType": "uint256",
							"name": "voteCount",
							"type": "uint256"
						}
					],
					"stateMutability": "view",
					"type": "function"
				},
				{
					"inputs": [
						{
							"internalType": "uint256",
							"name": "_ballotIndex",
							"type": "uint256"
						}
					],
					"name": "setEndDate",
					"outputs": [],
					"stateMutability": "nonpayable",
					"type": "function"
				},
				{
					"inputs": [],
					"name": "setEndDate",
					"outputs": [],
					"stateMutability": "nonpayable",
					"type": "function"
				},
				{
					"inputs": [
						{
							"internalType": "uint256",
							"name": "_status",
							"type": "uint256"
						}
					],
					"name": "setStatus",
					"outputs": [],
					"stateMutability": "nonpayable",
					"type": "function"
				},
				{
					"inputs": [
						{
							"internalType": "uint256",
							"name": "proposal",
							"type": "uint256"
						}
					],
					"name": "vote",
					"outputs": [],
					"stateMutability": "nonpayable",
					"type": "function"
				},
				{
					"inputs": [
						{
							"internalType": "address",
							"name": "",
							"type": "address"
						}
					],
					"name": "voters",
					"outputs": [
						{
							"internalType": "uint256",
							"name": "weight",
							"type": "uint256"
						},
						{
							"internalType": "bool",
							"name": "voted",
							"type": "bool"
						},
						{
							"internalType": "address",
							"name": "delegate",
							"type": "address"
						},
						{
							"internalType": "uint256",
							"name": "vote",
							"type": "uint256"
						}
					],
					"stateMutability": "view",
					"type": "function"
				},
				{
					"inputs": [],
					"name": "winnerName",
					"outputs": [
						{
							"internalType": "string",
							"name": "winnerName",
							"type": "string"
						}
					],
					"stateMutability": "view",
					"type": "function"
				},
				{
					"inputs": [],
					"name": "winningProposal",
					"outputs": [
						{
							"internalType": "uint256",
							"name": "winningProposal",
							"type": "uint256"
						}
					],
					"stateMutability": "view",
					"type": "function"
				}
			],
			"devdoc": {
				"kind": "dev",
				"methods": {},
				"version": 1
			},
			"evm": {
				"assembly": "    /* \"contracts/visov_durku.sol\":89:2656  contract BallotFactory is Ballot {\r... */\n  mstore(0x40, 0x80)\n  callvalue\n  dup1\n  iszero\n  tag_1\n  jumpi\n  0x00\n  dup1\n  revert\ntag_1:\n  pop\n  dataSize(sub_0)\n  dup1\n  dataOffset(sub_0)\n  0x00\n  codecopy\n  0x00\n  return\nstop\n\nsub_0: assembly {\n        /* \"contracts/visov_durku.sol\":89:2656  contract BallotFactory is Ballot {\r... */\n      mstore(0x40, 0x80)\n      callvalue\n      dup1\n      iszero\n      tag_1\n      jumpi\n      0x00\n      dup1\n      revert\n    tag_1:\n      pop\n      jumpi(tag_2, lt(calldatasize, 0x04))\n      shr(0xe0, calldataload(0x00))\n      dup1\n      0x7a16fcb0\n      gt\n      tag_35\n      jumpi\n      dup1\n      0xb434b42e\n      gt\n      tag_36\n      jumpi\n      dup1\n      0xe2ba53f0\n      gt\n      tag_37\n      jumpi\n      dup1\n      0xe2ba53f0\n      eq\n      tag_31\n      jumpi\n      dup1\n      0xe93303a6\n      eq\n      tag_32\n      jumpi\n      dup1\n      0xe9d6c6da\n      eq\n      tag_33\n      jumpi\n      dup1\n      0xeda94c7b\n      eq\n      tag_34\n      jumpi\n      jump(tag_2)\n    tag_37:\n      dup1\n      0xb434b42e\n      eq\n      tag_27\n      jumpi\n      dup1\n      0xba92763a\n      eq\n      tag_28\n      jumpi\n      dup1\n      0xc285c0d3\n      eq\n      tag_29\n      jumpi\n      dup1\n      0xd7558d4b\n      eq\n      tag_30\n      jumpi\n      jump(tag_2)\n    tag_36:\n      dup1\n      0x962fafd0\n      gt\n      tag_38\n      jumpi\n      dup1\n      0x962fafd0\n      eq\n      tag_23\n      jumpi\n      dup1\n      0x9e7b8d61\n      eq\n      tag_24\n      jumpi\n      dup1\n      0xa3ec138d\n      eq\n      tag_25\n      jumpi\n      dup1\n      0xb1356488\n      eq\n      tag_26\n      jumpi\n      jump(tag_2)\n    tag_38:\n      dup1\n      0x7a16fcb0\n      eq\n      tag_19\n      jumpi\n      dup1\n      0x836bc692\n      eq\n      tag_20\n      jumpi\n      dup1\n      0x8586d33e\n      eq\n      tag_21\n      jumpi\n      dup1\n      0x86278e77\n      eq\n      tag_22\n      jumpi\n      jump(tag_2)\n    tag_35:\n      dup1\n      0x609ff1bd\n      gt\n      tag_39\n      jumpi\n      dup1\n      0x69ba1a75\n      gt\n      tag_40\n      jumpi\n      dup1\n      0x69ba1a75\n      eq\n      tag_15\n      jumpi\n      dup1\n      0x735d8b87\n      eq\n      tag_16\n      jumpi\n      dup1\n      0x763fcb98\n      eq\n      tag_17\n      jumpi\n      dup1\n      0x78f305c6\n      eq\n      tag_18\n      jumpi\n      jump(tag_2)\n    tag_40:\n      dup1\n      0x609ff1bd\n      eq\n      tag_11\n      jumpi\n      dup1\n      0x62564c48\n      eq\n      tag_12\n      jumpi\n      dup1\n      0x627c2367\n      eq\n      tag_13\n      jumpi\n      dup1\n      0x643cb096\n      eq\n      tag_14\n      jumpi\n      jump(tag_2)\n    tag_39:\n      dup1\n      0x2a8cdc4c\n      gt\n      tag_41\n      jumpi\n      dup1\n      0x2a8cdc4c\n      eq\n      tag_7\n      jumpi\n      dup1\n      0x3784f000\n      eq\n      tag_8\n      jumpi\n      dup1\n      0x4e69d560\n      eq\n      tag_9\n      jumpi\n      dup1\n      0x5c6b047a\n      eq\n      tag_10\n      jumpi\n      jump(tag_2)\n    tag_41:\n      dup1\n      0x0121b93f\n      eq\n      tag_3\n      jumpi\n      dup1\n      0x013cf08b\n      eq\n      tag_4\n      jumpi\n      dup1\n      0x08225266\n      eq\n      tag_5\n      jumpi\n      dup1\n      0x0a82dcb1\n      eq\n      tag_6\n      jumpi\n    tag_2:\n      0x00\n      dup1\n      revert\n        /* \"contracts/prop_test.sol\":2270:2659  function vote(uint proposal) public {\r... */\n    tag_3:\n      tag_42\n      0x04\n      dup1\n      calldatasize\n      sub\n      dup2\n      add\n      swap1\n      tag_43\n      swap2\n      swap1\n      tag_44\n      jump\t// in\n    tag_43:\n      tag_45\n      jump\t// in\n    tag_42:\n      stop\n        /* \"contracts/prop_test.sol\":871:898  Proposal[] public proposals */\n    tag_4:\n      tag_46\n      0x04\n      dup1\n      calldatasize\n      sub\n      dup2\n      add\n      swap1\n      tag_47\n      swap2\n      swap1\n      tag_44\n      jump\t// in\n    tag_47:\n      tag_48\n      jump\t// in\n    tag_46:\n      mload(0x40)\n      tag_49\n      swap3\n      swap2\n      swap1\n      tag_50\n      jump\t// in\n    tag_49:\n      mload(0x40)\n      dup1\n      swap2\n      sub\n      swap1\n      return\n        /* \"contracts/visov_durku.sol\":2036:2203  function bfGetProposals(uint256 _ballotIndex) public view returns(Proposal[] memory){\r... */\n    tag_5:\n      tag_51\n      0x04\n      dup1\n      calldatasize\n      sub\n      dup2\n      add\n      swap1\n      tag_52\n      swap2\n      swap1\n      tag_44\n      jump\t// in\n    tag_52:\n      tag_53\n      jump\t// in\n    tag_51:\n      mload(0x40)\n      tag_54\n      swap2\n      swap1\n      tag_55\n      jump\t// in\n    tag_54:\n      mload(0x40)\n      dup1\n      swap2\n      sub\n      swap1\n      return\n        /* \"contracts/prop_test.sol\":3869:3963  function getnumOfProposals() public view returns(uint){\r... */\n    tag_6:\n      tag_56\n      tag_57\n      jump\t// in\n    tag_56:\n      mload(0x40)\n      tag_58\n      swap2\n      swap1\n      tag_59\n      jump\t// in\n    tag_58:\n      mload(0x40)\n      dup1\n      swap2\n      sub\n      swap1\n      return\n        /* \"contracts/visov_durku.sol\":1163:1330  function bfGetCreatorBallot(uint256 _ballotIndex) public view returns (address) {\r... */\n    tag_7:\n      tag_60\n      0x04\n      dup1\n      calldatasize\n      sub\n      dup2\n      add\n      swap1\n      tag_61\n      swap2\n      swap1\n      tag_44\n      jump\t// in\n    tag_61:\n      tag_62\n      jump\t// in\n    tag_60:\n      mload(0x40)\n      tag_63\n      swap2\n      swap1\n      tag_64\n      jump\t// in\n    tag_63:\n      mload(0x40)\n      dup1\n      swap2\n      sub\n      swap1\n      return\n        /* \"contracts/visov_durku.sol\":2371:2493  function setEndDate(uint256 _ballotIndex) public{\r... */\n    tag_8:\n      tag_65\n      0x04\n      dup1\n      calldatasize\n      sub\n      dup2\n      add\n      swap1\n      tag_66\n      swap2\n      swap1\n      tag_44\n      jump\t// in\n    tag_66:\n      tag_67\n      jump\t// in\n    tag_65:\n      stop\n        /* \"contracts/prop_test.sol\":3749:3827  function getStatus() public view returns(uint){\r... */\n    tag_9:\n      tag_68\n      tag_69\n      jump\t// in\n    tag_68:\n      mload(0x40)\n      tag_70\n      swap2\n      swap1\n      tag_59\n      jump\t// in\n    tag_70:\n      mload(0x40)\n      dup1\n      swap2\n      sub\n      swap1\n      return\n        /* \"contracts/visov_durku.sol\":2505:2653  function getEndDate(uint256 _ballotIndex) public view returns(uint){\r... */\n    tag_10:\n      tag_71\n      0x04\n      dup1\n      calldatasize\n      sub\n      dup2\n      add\n      swap1\n      tag_72\n      swap2\n      swap1\n      tag_44\n      jump\t// in\n    tag_72:\n      tag_73\n      jump\t// in\n    tag_71:\n      mload(0x40)\n      tag_74\n      swap2\n      swap1\n      tag_59\n      jump\t// in\n    tag_74:\n      mload(0x40)\n      dup1\n      swap2\n      sub\n      swap1\n      return\n        /* \"contracts/prop_test.sol\":2667:3021  function winningProposal() public view returns (uint winningProposal){\r... */\n    tag_11:\n      tag_75\n      tag_76\n      jump\t// in\n    tag_75:\n      mload(0x40)\n      tag_77\n      swap2\n      swap1\n      tag_59\n      jump\t// in\n    tag_77:\n      mload(0x40)\n      dup1\n      swap2\n      sub\n      swap1\n      return\n        /* \"contracts/prop_test.sol\":4172:4269  function getProposals() public view returns(Proposal[] memory){\r... */\n    tag_12:\n      tag_78\n      tag_79\n      jump\t// in\n    tag_78:\n      mload(0x40)\n      tag_80\n      swap2\n      swap1\n      tag_55\n      jump\t// in\n    tag_80:\n      mload(0x40)\n      dup1\n      swap2\n      sub\n      swap1\n      return\n        /* \"contracts/visov_durku.sol\":650:788  function bfVote(uint256 _ballotIndex, uint _proposal) public {\r... */\n    tag_13:\n      tag_81\n      0x04\n      dup1\n      calldatasize\n      sub\n      dup2\n      add\n      swap1\n      tag_82\n      swap2\n      swap1\n      tag_83\n      jump\t// in\n    tag_82:\n      tag_84\n      jump\t// in\n    tag_81:\n      stop\n        /* \"contracts/visov_durku.sol\":135:162  Ballot[] public ballotArray */\n    tag_14:\n      tag_85\n      0x04\n      dup1\n      calldatasize\n      sub\n      dup2\n      add\n      swap1\n      tag_86\n      swap2\n      swap1\n      tag_44\n      jump\t// in\n    tag_86:\n      tag_87\n      jump\t// in\n    tag_85:\n      mload(0x40)\n      tag_88\n      swap2\n      swap1\n      tag_89\n      jump\t// in\n    tag_88:\n      mload(0x40)\n      dup1\n      swap2\n      sub\n      swap1\n      return\n        /* \"contracts/prop_test.sol\":3632:3706  function setStatus(uint _status) public{\r... */\n    tag_15:\n      tag_90\n      0x04\n      dup1\n      calldatasize\n      sub\n      dup2\n      add\n      swap1\n      tag_91\n      swap2\n      swap1\n      tag_44\n      jump\t// in\n    tag_91:\n      tag_92\n      jump\t// in\n    tag_90:\n      stop\n        /* \"contracts/visov_durku.sol\":304:477  function bfCreateBallot(uint256 _ballotIndex, string[] memory proposalNames) public {\r... */\n    tag_16:\n      tag_93\n      0x04\n      dup1\n      calldatasize\n      sub\n      dup2\n      add\n      swap1\n      tag_94\n      swap2\n      swap1\n      tag_95\n      jump\t// in\n    tag_94:\n      tag_96\n      jump\t// in\n    tag_93:\n      stop\n        /* \"contracts/visov_durku.sol\":982:1155  function bfWinningName(uint256 _ballotIndex) public view returns (string memory winnerName) {\r... */\n    tag_17:\n      tag_97\n      0x04\n      dup1\n      calldatasize\n      sub\n      dup2\n      add\n      swap1\n      tag_98\n      swap2\n      swap1\n      tag_44\n      jump\t// in\n    tag_98:\n      tag_99\n      jump\t// in\n    tag_97:\n      mload(0x40)\n      tag_100\n      swap2\n      swap1\n      tag_101\n      jump\t// in\n    tag_100:\n      mload(0x40)\n      dup1\n      swap2\n      sub\n      swap1\n      return\n        /* \"contracts/prop_test.sol\":4434:4518  function getStartDate() public view returns(uint){\r... */\n    tag_18:\n      tag_102\n      tag_103\n      jump\t// in\n    tag_102:\n      mload(0x40)\n      tag_104\n      swap2\n      swap1\n      tag_59\n      jump\t// in\n    tag_104:\n      mload(0x40)\n      dup1\n      swap2\n      sub\n      swap1\n      return\n        /* \"contracts/prop_test.sol\":3500:3589  function getCreatorBallot() public view returns(address){\r... */\n    tag_19:\n      tag_105\n      tag_106\n      jump\t// in\n    tag_105:\n      mload(0x40)\n      tag_107\n      swap2\n      swap1\n      tag_64\n      jump\t// in\n    tag_107:\n      mload(0x40)\n      dup1\n      swap2\n      sub\n      swap1\n      return\n        /* \"contracts/prop_test.sol\":907:1647  function createBallot(string[] memory proposalNames) public {\r... */\n    tag_20:\n      tag_108\n      0x04\n      dup1\n      calldatasize\n      sub\n      dup2\n      add\n      swap1\n      tag_109\n      swap2\n      swap1\n      tag_110\n      jump\t// in\n    tag_109:\n      tag_111\n      jump\t// in\n    tag_108:\n      stop\n        /* \"contracts/visov_durku.sol\":1489:1638  function bfGetStatus(uint256 _ballotIndex) public view returns(uint) {\r... */\n    tag_21:\n      tag_112\n      0x04\n      dup1\n      calldatasize\n      sub\n      dup2\n      add\n      swap1\n      tag_113\n      swap2\n      swap1\n      tag_44\n      jump\t// in\n    tag_113:\n      tag_114\n      jump\t// in\n    tag_112:\n      mload(0x40)\n      tag_115\n      swap2\n      swap1\n      tag_59\n      jump\t// in\n    tag_115:\n      mload(0x40)\n      dup1\n      swap2\n      sub\n      swap1\n      return\n        /* \"contracts/prop_test.sol\":4560:4632  function setEndDate() public{\r... */\n    tag_22:\n      tag_116\n      tag_117\n      jump\t// in\n    tag_116:\n      stop\n        /* \"contracts/visov_durku.sol\":171:296  function createBallotContract() public {\r... */\n    tag_23:\n      tag_118\n      tag_119\n      jump\t// in\n    tag_118:\n      stop\n        /* \"contracts/prop_test.sol\":1655:2233  function giveRightToVote(address voter) public {\r... */\n    tag_24:\n      tag_120\n      0x04\n      dup1\n      calldatasize\n      sub\n      dup2\n      add\n      swap1\n      tag_121\n      swap2\n      swap1\n      tag_122\n      jump\t// in\n    tag_121:\n      tag_123\n      jump\t// in\n    tag_120:\n      stop\n        /* \"contracts/prop_test.sol\":766:805  mapping(address => Voter) public voters */\n    tag_25:\n      tag_124\n      0x04\n      dup1\n      calldatasize\n      sub\n      dup2\n      add\n      swap1\n      tag_125\n      swap2\n      swap1\n      tag_122\n      jump\t// in\n    tag_125:\n      tag_126\n      jump\t// in\n    tag_124:\n      mload(0x40)\n      tag_127\n      swap5\n      swap4\n      swap3\n      swap2\n      swap1\n      tag_128\n      jump\t// in\n    tag_127:\n      mload(0x40)\n      dup1\n      swap2\n      sub\n      swap1\n      return\n        /* \"contracts/prop_test.sol\":4672:4752  function getEndDate() public view returns(uint){\r... */\n    tag_26:\n      tag_129\n      tag_130\n      jump\t// in\n    tag_129:\n      mload(0x40)\n      tag_131\n      swap2\n      swap1\n      tag_59\n      jump\t// in\n    tag_131:\n      mload(0x40)\n      dup1\n      swap2\n      sub\n      swap1\n      return\n        /* \"contracts/visov_durku.sol\":1338:1481  function bfSetStatus(uint256 _ballotIndex, uint _status) public{\r... */\n    tag_27:\n      tag_132\n      0x04\n      dup1\n      calldatasize\n      sub\n      dup2\n      add\n      swap1\n      tag_133\n      swap2\n      swap1\n      tag_83\n      jump\t// in\n    tag_133:\n      tag_134\n      jump\t// in\n    tag_132:\n      stop\n        /* \"contracts/visov_durku.sol\":2211:2363  function getStartDate(uint256 _ballotIndex) public view returns(uint){\r... */\n    tag_28:\n      tag_135\n      0x04\n      dup1\n      calldatasize\n      sub\n      dup2\n      add\n      swap1\n      tag_136\n      swap2\n      swap1\n      tag_44\n      jump\t// in\n    tag_136:\n      tag_137\n      jump\t// in\n    tag_135:\n      mload(0x40)\n      tag_138\n      swap2\n      swap1\n      tag_59\n      jump\t// in\n    tag_138:\n      mload(0x40)\n      dup1\n      swap2\n      sub\n      swap1\n      return\n        /* \"contracts/visov_durku.sol\":485:642  function bfGiveRightToVote(uint256 _ballotIndex, address _voter) public {\r... */\n    tag_29:\n      tag_139\n      0x04\n      dup1\n      calldatasize\n      sub\n      dup2\n      add\n      swap1\n      tag_140\n      swap2\n      swap1\n      tag_141\n      jump\t// in\n    tag_140:\n      tag_142\n      jump\t// in\n    tag_139:\n      stop\n        /* \"contracts/visov_durku.sol\":796:974  function bfWinningProposal(uint256 _ballotIndex) public view returns (uint winningProposal) {\r... */\n    tag_30:\n      tag_143\n      0x04\n      dup1\n      calldatasize\n      sub\n      dup2\n      add\n      swap1\n      tag_144\n      swap2\n      swap1\n      tag_44\n      jump\t// in\n    tag_144:\n      tag_145\n      jump\t// in\n    tag_143:\n      mload(0x40)\n      tag_146\n      swap2\n      swap1\n      tag_59\n      jump\t// in\n    tag_146:\n      mload(0x40)\n      dup1\n      swap2\n      sub\n      swap1\n      return\n        /* \"contracts/prop_test.sol\":3190:3328  function winnerName() public view returns(string memory winnerName)\r... */\n    tag_31:\n      tag_147\n      tag_148\n      jump\t// in\n    tag_147:\n      mload(0x40)\n      tag_149\n      swap2\n      swap1\n      tag_101\n      jump\t// in\n    tag_149:\n      mload(0x40)\n      dup1\n      swap2\n      sub\n      swap1\n      return\n        /* \"contracts/visov_durku.sol\":1646:1810  function bfGetNumOfProposals(uint256 _ballotIndex) public view returns(uint){\r... */\n    tag_32:\n      tag_150\n      0x04\n      dup1\n      calldatasize\n      sub\n      dup2\n      add\n      swap1\n      tag_151\n      swap2\n      swap1\n      tag_44\n      jump\t// in\n    tag_151:\n      tag_152\n      jump\t// in\n    tag_150:\n      mload(0x40)\n      tag_153\n      swap2\n      swap1\n      tag_59\n      jump\t// in\n    tag_153:\n      mload(0x40)\n      dup1\n      swap2\n      sub\n      swap1\n      return\n        /* \"contracts/prop_test.sol\":4005:4137  function getProposalStructure(uint _proposalId) public view returns(Proposal memory){\r... */\n    tag_33:\n      tag_154\n      0x04\n      dup1\n      calldatasize\n      sub\n      dup2\n      add\n      swap1\n      tag_155\n      swap2\n      swap1\n      tag_44\n      jump\t// in\n    tag_155:\n      tag_156\n      jump\t// in\n    tag_154:\n      mload(0x40)\n      tag_157\n      swap2\n      swap1\n      tag_158\n      jump\t// in\n    tag_157:\n      mload(0x40)\n      dup1\n      swap2\n      sub\n      swap1\n      return\n        /* \"contracts/visov_durku.sol\":1818:2028  function bfGetProposalStructure(uint256 _ballotIndex, uint _proposalId) public view returns(Proposal memory){\r... */\n    tag_34:\n      tag_159\n      0x04\n      dup1\n      calldatasize\n      sub\n      dup2\n      add\n      swap1\n      tag_160\n      swap2\n      swap1\n      tag_83\n      jump\t// in\n    tag_160:\n      tag_161\n      jump\t// in\n    tag_159:\n      mload(0x40)\n      tag_162\n      swap2\n      swap1\n      tag_158\n      jump\t// in\n    tag_162:\n      mload(0x40)\n      dup1\n      swap2\n      sub\n      swap1\n      return\n        /* \"contracts/prop_test.sol\":2270:2659  function vote(uint proposal) public {\r... */\n    tag_45:\n        /* \"contracts/prop_test.sol\":2317:2337  Voter storage sender */\n      0x00\n        /* \"contracts/prop_test.sol\":2340:2346  voters */\n      0x05\n        /* \"contracts/prop_test.sol\":2340:2358  voters[msg.sender] */\n      0x00\n        /* \"contracts/prop_test.sol\":2347:2357  msg.sender */\n      caller\n        /* \"contracts/prop_test.sol\":2340:2358  voters[msg.sender] */\n      0xffffffffffffffffffffffffffffffffffffffff\n      and\n      0xffffffffffffffffffffffffffffffffffffffff\n      and\n      dup2\n      mstore\n      0x20\n      add\n      swap1\n      dup2\n      mstore\n      0x20\n      add\n      0x00\n      keccak256\n        /* \"contracts/prop_test.sol\":2317:2358  Voter storage sender = voters[msg.sender] */\n      swap1\n      pop\n        /* \"contracts/prop_test.sol\":2378:2384  sender */\n      dup1\n        /* \"contracts/prop_test.sol\":2378:2390  sender.voted */\n      0x01\n      add\n      0x00\n      swap1\n      sload\n      swap1\n      0x0100\n      exp\n      swap1\n      div\n      0xff\n      and\n        /* \"contracts/prop_test.sol\":2377:2390  !sender.voted */\n      iszero\n        /* \"contracts/prop_test.sol\":2369:2391  require(!sender.voted) */\n      tag_164\n      jumpi\n      0x00\n      dup1\n      revert\n    tag_164:\n        /* \"contracts/prop_test.sol\":2417:2421  true */\n      0x01\n        /* \"contracts/prop_test.sol\":2402:2408  sender */\n      dup2\n        /* \"contracts/prop_test.sol\":2402:2414  sender.voted */\n      0x01\n      add\n      0x00\n        /* \"contracts/prop_test.sol\":2402:2421  sender.voted = true */\n      0x0100\n      exp\n      dup2\n      sload\n      dup2\n      0xff\n      mul\n      not\n      and\n      swap1\n      dup4\n      iszero\n      iszero\n      mul\n      or\n      swap1\n      sstore\n      pop\n        /* \"contracts/prop_test.sol\":2446:2454  proposal */\n      dup2\n        /* \"contracts/prop_test.sol\":2432:2438  sender */\n      dup2\n        /* \"contracts/prop_test.sol\":2432:2443  sender.vote */\n      0x02\n      add\n        /* \"contracts/prop_test.sol\":2432:2454  sender.vote = proposal */\n      dup2\n      swap1\n      sstore\n      pop\n        /* \"contracts/prop_test.sol\":2638:2644  sender */\n      dup1\n        /* \"contracts/prop_test.sol\":2638:2651  sender.weight */\n      0x00\n      add\n      sload\n        /* \"contracts/prop_test.sol\":2605:2614  proposals */\n      0x06\n        /* \"contracts/prop_test.sol\":2615:2623  proposal */\n      dup4\n        /* \"contracts/prop_test.sol\":2605:2624  proposals[proposal] */\n      dup2\n      sload\n      dup2\n      lt\n      tag_165\n      jumpi\n      mstore(0x00, 0x4e487b7100000000000000000000000000000000000000000000000000000000)\n      mstore(0x04, 0x32)\n      revert(0x00, 0x24)\n    tag_165:\n      swap1\n      0x00\n      mstore\n      keccak256(0x00, 0x20)\n      swap1\n      0x02\n      mul\n      add\n        /* \"contracts/prop_test.sol\":2605:2634  proposals[proposal].voteCount */\n      0x01\n      add\n      0x00\n        /* \"contracts/prop_test.sol\":2605:2651  proposals[proposal].voteCount += sender.weight */\n      dup3\n      dup3\n      sload\n      tag_167\n      swap2\n      swap1\n      tag_168\n      jump\t// in\n    tag_167:\n      swap3\n      pop\n      pop\n      dup2\n      swap1\n      sstore\n      pop\n        /* \"contracts/prop_test.sol\":2270:2659  function vote(uint proposal) public {\r... */\n      pop\n      pop\n      jump\t// out\n        /* \"contracts/prop_test.sol\":871:898  Proposal[] public proposals */\n    tag_48:\n      0x06\n      dup2\n      dup2\n      sload\n      dup2\n      lt\n      tag_169\n      jumpi\n      0x00\n      dup1\n      revert\n    tag_169:\n      swap1\n      0x00\n      mstore\n      keccak256(0x00, 0x20)\n      swap1\n      0x02\n      mul\n      add\n      0x00\n      swap2\n      pop\n      swap1\n      pop\n      dup1\n      0x00\n      add\n      dup1\n      sload\n      tag_171\n      swap1\n      tag_172\n      jump\t// in\n    tag_171:\n      dup1\n      0x1f\n      add\n      0x20\n      dup1\n      swap2\n      div\n      mul\n      0x20\n      add\n      mload(0x40)\n      swap1\n      dup2\n      add\n      0x40\n      mstore\n      dup1\n      swap3\n      swap2\n      swap1\n      dup2\n      dup2\n      mstore\n      0x20\n      add\n      dup3\n      dup1\n      sload\n      tag_173\n      swap1\n      tag_172\n      jump\t// in\n    tag_173:\n      dup1\n      iszero\n      tag_174\n      jumpi\n      dup1\n      0x1f\n      lt\n      tag_175\n      jumpi\n      0x0100\n      dup1\n      dup4\n      sload\n      div\n      mul\n      dup4\n      mstore\n      swap2\n      0x20\n      add\n      swap2\n      jump(tag_174)\n    tag_175:\n      dup3\n      add\n      swap2\n      swap1\n      0x00\n      mstore\n      keccak256(0x00, 0x20)\n      swap1\n    tag_176:\n      dup2\n      sload\n      dup2\n      mstore\n      swap1\n      0x01\n      add\n      swap1\n      0x20\n      add\n      dup1\n      dup4\n      gt\n      tag_176\n      jumpi\n      dup3\n      swap1\n      sub\n      0x1f\n      and\n      dup3\n      add\n      swap2\n    tag_174:\n      pop\n      pop\n      pop\n      pop\n      pop\n      swap1\n      dup1\n      0x01\n      add\n      sload\n      swap1\n      pop\n      dup3\n      jump\t// out\n        /* \"contracts/visov_durku.sol\":2036:2203  function bfGetProposals(uint256 _ballotIndex) public view returns(Proposal[] memory){\r... */\n    tag_53:\n        /* \"contracts/visov_durku.sol\":2102:2119  Proposal[] memory */\n      0x60\n        /* \"contracts/visov_durku.sol\":2153:2164  ballotArray */\n      0x07\n        /* \"contracts/visov_durku.sol\":2165:2177  _ballotIndex */\n      dup3\n        /* \"contracts/visov_durku.sol\":2153:2178  ballotArray[_ballotIndex] */\n      dup2\n      sload\n      dup2\n      lt\n      tag_178\n      jumpi\n      mstore(0x00, 0x4e487b7100000000000000000000000000000000000000000000000000000000)\n      mstore(0x04, 0x32)\n      revert(0x00, 0x24)\n    tag_178:\n      swap1\n      0x00\n      mstore\n      keccak256(0x00, 0x20)\n      add\n      0x00\n      swap1\n      sload\n      swap1\n      0x0100\n      exp\n      swap1\n      div\n      0xffffffffffffffffffffffffffffffffffffffff\n      and\n        /* \"contracts/visov_durku.sol\":2138:2193  Ballot(address(ballotArray[_ballotIndex])).getProposals */\n      0xffffffffffffffffffffffffffffffffffffffff\n      and\n      0x62564c48\n        /* \"contracts/visov_durku.sol\":2138:2195  Ballot(address(ballotArray[_ballotIndex])).getProposals() */\n      mload(0x40)\n      dup2\n      0xffffffff\n      and\n      0xe0\n      shl\n      dup2\n      mstore\n      0x04\n      add\n      0x00\n      mload(0x40)\n      dup1\n      dup4\n      sub\n      dup2\n      dup7\n      dup1\n      extcodesize\n      iszero\n      dup1\n      iszero\n      tag_180\n      jumpi\n      0x00\n      dup1\n      revert\n    tag_180:\n      pop\n      gas\n      staticcall\n      iszero\n      dup1\n      iszero\n      tag_182\n      jumpi\n      returndatasize\n      0x00\n      dup1\n      returndatacopy\n      revert(0x00, returndatasize)\n    tag_182:\n      pop\n      pop\n      pop\n      pop\n      mload(0x40)\n      returndatasize\n      0x00\n      dup3\n      returndatacopy\n      returndatasize\n      not(0x1f)\n      0x1f\n      dup3\n      add\n      and\n      dup3\n      add\n      dup1\n      0x40\n      mstore\n      pop\n      dup2\n      add\n      swap1\n      tag_183\n      swap2\n      swap1\n      tag_184\n      jump\t// in\n    tag_183:\n        /* \"contracts/visov_durku.sol\":2131:2195  return Ballot(address(ballotArray[_ballotIndex])).getProposals() */\n      swap1\n      pop\n        /* \"contracts/visov_durku.sol\":2036:2203  function bfGetProposals(uint256 _ballotIndex) public view returns(Proposal[] memory){\r... */\n      swap2\n      swap1\n      pop\n      jump\t// out\n        /* \"contracts/prop_test.sol\":3869:3963  function getnumOfProposals() public view returns(uint){\r... */\n    tag_57:\n        /* \"contracts/prop_test.sol\":3918:3922  uint */\n      0x00\n        /* \"contracts/prop_test.sol\":3941:3955  numOfProposals */\n      sload(0x04)\n        /* \"contracts/prop_test.sol\":3934:3955  return numOfProposals */\n      swap1\n      pop\n        /* \"contracts/prop_test.sol\":3869:3963  function getnumOfProposals() public view returns(uint){\r... */\n      swap1\n      jump\t// out\n        /* \"contracts/visov_durku.sol\":1163:1330  function bfGetCreatorBallot(uint256 _ballotIndex) public view returns (address) {\r... */\n    tag_62:\n        /* \"contracts/visov_durku.sol\":1234:1241  address */\n      0x00\n        /* \"contracts/visov_durku.sol\":1276:1287  ballotArray */\n      0x07\n        /* \"contracts/visov_durku.sol\":1288:1300  _ballotIndex */\n      dup3\n        /* \"contracts/visov_durku.sol\":1276:1301  ballotArray[_ballotIndex] */\n      dup2\n      sload\n      dup2\n      lt\n      tag_187\n      jumpi\n      mstore(0x00, 0x4e487b7100000000000000000000000000000000000000000000000000000000)\n      mstore(0x04, 0x32)\n      revert(0x00, 0x24)\n    tag_187:\n      swap1\n      0x00\n      mstore\n      keccak256(0x00, 0x20)\n      add\n      0x00\n      swap1\n      sload\n      swap1\n      0x0100\n      exp\n      swap1\n      div\n      0xffffffffffffffffffffffffffffffffffffffff\n      and\n        /* \"contracts/visov_durku.sol\":1261:1320  Ballot(address(ballotArray[_ballotIndex])).getCreatorBallot */\n      0xffffffffffffffffffffffffffffffffffffffff\n      and\n      0x7a16fcb0\n        /* \"contracts/visov_durku.sol\":1261:1322  Ballot(address(ballotArray[_ballotIndex])).getCreatorBallot() */\n      mload(0x40)\n      dup2\n      0xffffffff\n      and\n      0xe0\n      shl\n      dup2\n      mstore\n      0x04\n      add\n      0x20\n      mload(0x40)\n      dup1\n      dup4\n      sub\n      dup2\n      dup7\n      dup1\n      extcodesize\n      iszero\n      dup1\n      iszero\n      tag_189\n      jumpi\n      0x00\n      dup1\n      revert\n    tag_189:\n      pop\n      gas\n      staticcall\n      iszero\n      dup1\n      iszero\n      tag_191\n      jumpi\n      returndatasize\n      0x00\n      dup1\n      returndatacopy\n      revert(0x00, returndatasize)\n    tag_191:\n      pop\n      pop\n      pop\n      pop\n      mload(0x40)\n      returndatasize\n      not(0x1f)\n      0x1f\n      dup3\n      add\n      and\n      dup3\n      add\n      dup1\n      0x40\n      mstore\n      pop\n      dup2\n      add\n      swap1\n      tag_192\n      swap2\n      swap1\n      tag_193\n      jump\t// in\n    tag_192:\n        /* \"contracts/visov_durku.sol\":1254:1322  return Ballot(address(ballotArray[_ballotIndex])).getCreatorBallot() */\n      swap1\n      pop\n        /* \"contracts/visov_durku.sol\":1163:1330  function bfGetCreatorBallot(uint256 _ballotIndex) public view returns (address) {\r... */\n      swap2\n      swap1\n      pop\n      jump\t// out\n        /* \"contracts/visov_durku.sol\":2371:2493  function setEndDate(uint256 _ballotIndex) public{\r... */\n    tag_67:\n        /* \"contracts/visov_durku.sol\":2445:2456  ballotArray */\n      0x07\n        /* \"contracts/visov_durku.sol\":2457:2469  _ballotIndex */\n      dup2\n        /* \"contracts/visov_durku.sol\":2445:2470  ballotArray[_ballotIndex] */\n      dup2\n      sload\n      dup2\n      lt\n      tag_195\n      jumpi\n      mstore(0x00, 0x4e487b7100000000000000000000000000000000000000000000000000000000)\n      mstore(0x04, 0x32)\n      revert(0x00, 0x24)\n    tag_195:\n      swap1\n      0x00\n      mstore\n      keccak256(0x00, 0x20)\n      add\n      0x00\n      swap1\n      sload\n      swap1\n      0x0100\n      exp\n      swap1\n      div\n      0xffffffffffffffffffffffffffffffffffffffff\n      and\n        /* \"contracts/visov_durku.sol\":2430:2483  Ballot(address(ballotArray[_ballotIndex])).setEndDate */\n      0xffffffffffffffffffffffffffffffffffffffff\n      and\n      0x86278e77\n        /* \"contracts/visov_durku.sol\":2430:2485  Ballot(address(ballotArray[_ballotIndex])).setEndDate() */\n      mload(0x40)\n      dup2\n      0xffffffff\n      and\n      0xe0\n      shl\n      dup2\n      mstore\n      0x04\n      add\n      0x00\n      mload(0x40)\n      dup1\n      dup4\n      sub\n      dup2\n      0x00\n      dup8\n      dup1\n      extcodesize\n      iszero\n      dup1\n      iszero\n      tag_197\n      jumpi\n      0x00\n      dup1\n      revert\n    tag_197:\n      pop\n      gas\n      call\n      iszero\n      dup1\n      iszero\n      tag_199\n      jumpi\n      returndatasize\n      0x00\n      dup1\n      returndatacopy\n      revert(0x00, returndatasize)\n    tag_199:\n      pop\n      pop\n      pop\n      pop\n        /* \"contracts/visov_durku.sol\":2371:2493  function setEndDate(uint256 _ballotIndex) public{\r... */\n      pop\n      jump\t// out\n        /* \"contracts/prop_test.sol\":3749:3827  function getStatus() public view returns(uint){\r... */\n    tag_69:\n        /* \"contracts/prop_test.sol\":3790:3794  uint */\n      0x00\n        /* \"contracts/prop_test.sol\":3813:3819  status */\n      sload(0x01)\n        /* \"contracts/prop_test.sol\":3806:3819  return status */\n      swap1\n      pop\n        /* \"contracts/prop_test.sol\":3749:3827  function getStatus() public view returns(uint){\r... */\n      swap1\n      jump\t// out\n        /* \"contracts/visov_durku.sol\":2505:2653  function getEndDate(uint256 _ballotIndex) public view returns(uint){\r... */\n    tag_73:\n        /* \"contracts/visov_durku.sol\":2567:2571  uint */\n      0x00\n        /* \"contracts/visov_durku.sol\":2605:2616  ballotArray */\n      0x07\n        /* \"contracts/visov_durku.sol\":2617:2629  _ballotIndex */\n      dup3\n        /* \"contracts/visov_durku.sol\":2605:2630  ballotArray[_ballotIndex] */\n      dup2\n      sload\n      dup2\n      lt\n      tag_202\n      jumpi\n      mstore(0x00, 0x4e487b7100000000000000000000000000000000000000000000000000000000)\n      mstore(0x04, 0x32)\n      revert(0x00, 0x24)\n    tag_202:\n      swap1\n      0x00\n      mstore\n      keccak256(0x00, 0x20)\n      add\n      0x00\n      swap1\n      sload\n      swap1\n      0x0100\n      exp\n      swap1\n      div\n      0xffffffffffffffffffffffffffffffffffffffff\n      and\n        /* \"contracts/visov_durku.sol\":2590:2643  Ballot(address(ballotArray[_ballotIndex])).getEndDate */\n      0xffffffffffffffffffffffffffffffffffffffff\n      and\n      0xb1356488\n        /* \"contracts/visov_durku.sol\":2590:2645  Ballot(address(ballotArray[_ballotIndex])).getEndDate() */\n      mload(0x40)\n      dup2\n      0xffffffff\n      and\n      0xe0\n      shl\n      dup2\n      mstore\n      0x04\n      add\n      0x20\n      mload(0x40)\n      dup1\n      dup4\n      sub\n      dup2\n      dup7\n      dup1\n      extcodesize\n      iszero\n      dup1\n      iszero\n      tag_204\n      jumpi\n      0x00\n      dup1\n      revert\n    tag_204:\n      pop\n      gas\n      staticcall\n      iszero\n      dup1\n      iszero\n      tag_206\n      jumpi\n      returndatasize\n      0x00\n      dup1\n      returndatacopy\n      revert(0x00, returndatasize)\n    tag_206:\n      pop\n      pop\n      pop\n      pop\n      mload(0x40)\n      returndatasize\n      not(0x1f)\n      0x1f\n      dup3\n      add\n      and\n      dup3\n      add\n      dup1\n      0x40\n      mstore\n      pop\n      dup2\n      add\n      swap1\n      tag_207\n      swap2\n      swap1\n      tag_208\n      jump\t// in\n    tag_207:\n        /* \"contracts/visov_durku.sol\":2583:2645  return Ballot(address(ballotArray[_ballotIndex])).getEndDate() */\n      swap1\n      pop\n        /* \"contracts/visov_durku.sol\":2505:2653  function getEndDate(uint256 _ballotIndex) public view returns(uint){\r... */\n      swap2\n      swap1\n      pop\n      jump\t// out\n        /* \"contracts/prop_test.sol\":2667:3021  function winningProposal() public view returns (uint winningProposal){\r... */\n    tag_76:\n        /* \"contracts/prop_test.sol\":2715:2735  uint winningProposal */\n      0x00\n        /* \"contracts/prop_test.sol\":2747:2768  uint winningVoteCount */\n      dup1\n        /* \"contracts/prop_test.sol\":2771:2772  0 */\n      0x00\n        /* \"contracts/prop_test.sol\":2747:2772  uint winningVoteCount = 0 */\n      swap1\n      pop\n        /* \"contracts/prop_test.sol\":2788:2794  uint p */\n      0x00\n        /* \"contracts/prop_test.sol\":2783:3014  for (uint p = 0; p < proposals.length; p++) {\r... */\n    tag_210:\n        /* \"contracts/prop_test.sol\":2804:2813  proposals */\n      0x06\n        /* \"contracts/prop_test.sol\":2804:2820  proposals.length */\n      dup1\n      sload\n      swap1\n      pop\n        /* \"contracts/prop_test.sol\":2800:2801  p */\n      dup2\n        /* \"contracts/prop_test.sol\":2800:2820  p < proposals.length */\n      lt\n        /* \"contracts/prop_test.sol\":2783:3014  for (uint p = 0; p < proposals.length; p++) {\r... */\n      iszero\n      tag_211\n      jumpi\n        /* \"contracts/prop_test.sol\":2871:2887  winningVoteCount */\n      dup2\n        /* \"contracts/prop_test.sol\":2846:2855  proposals */\n      0x06\n        /* \"contracts/prop_test.sol\":2856:2857  p */\n      dup3\n        /* \"contracts/prop_test.sol\":2846:2858  proposals[p] */\n      dup2\n      sload\n      dup2\n      lt\n      tag_213\n      jumpi\n      mstore(0x00, 0x4e487b7100000000000000000000000000000000000000000000000000000000)\n      mstore(0x04, 0x32)\n      revert(0x00, 0x24)\n    tag_213:\n      swap1\n      0x00\n      mstore\n      keccak256(0x00, 0x20)\n      swap1\n      0x02\n      mul\n      add\n        /* \"contracts/prop_test.sol\":2846:2868  proposals[p].voteCount */\n      0x01\n      add\n      sload\n        /* \"contracts/prop_test.sol\":2846:2887  proposals[p].voteCount > winningVoteCount */\n      gt\n        /* \"contracts/prop_test.sol\":2842:3003  if (proposals[p].voteCount > winningVoteCount) {\r... */\n      iszero\n      tag_215\n      jumpi\n        /* \"contracts/prop_test.sol\":2927:2936  proposals */\n      0x06\n        /* \"contracts/prop_test.sol\":2937:2938  p */\n      dup2\n        /* \"contracts/prop_test.sol\":2927:2939  proposals[p] */\n      dup2\n      sload\n      dup2\n      lt\n      tag_216\n      jumpi\n      mstore(0x00, 0x4e487b7100000000000000000000000000000000000000000000000000000000)\n      mstore(0x04, 0x32)\n      revert(0x00, 0x24)\n    tag_216:\n      swap1\n      0x00\n      mstore\n      keccak256(0x00, 0x20)\n      swap1\n      0x02\n      mul\n      add\n        /* \"contracts/prop_test.sol\":2927:2949  proposals[p].voteCount */\n      0x01\n      add\n      sload\n        /* \"contracts/prop_test.sol\":2908:2949  winningVoteCount = proposals[p].voteCount */\n      swap2\n      pop\n        /* \"contracts/prop_test.sol\":2986:2987  p */\n      dup1\n        /* \"contracts/prop_test.sol\":2968:2987  winningProposal = p */\n      swap3\n      pop\n        /* \"contracts/prop_test.sol\":2842:3003  if (proposals[p].voteCount > winningVoteCount) {\r... */\n    tag_215:\n        /* \"contracts/prop_test.sol\":2822:2825  p++ */\n      dup1\n      dup1\n      tag_218\n      swap1\n      tag_219\n      jump\t// in\n    tag_218:\n      swap2\n      pop\n      pop\n        /* \"contracts/prop_test.sol\":2783:3014  for (uint p = 0; p < proposals.length; p++) {\r... */\n      jump(tag_210)\n    tag_211:\n      pop\n        /* \"contracts/prop_test.sol\":2667:3021  function winningProposal() public view returns (uint winningProposal){\r... */\n      pop\n      swap1\n      jump\t// out\n        /* \"contracts/prop_test.sol\":4172:4269  function getProposals() public view returns(Proposal[] memory){\r... */\n    tag_79:\n        /* \"contracts/prop_test.sol\":4216:4233  Proposal[] memory */\n      0x60\n        /* \"contracts/prop_test.sol\":4252:4261  proposals */\n      0x06\n        /* \"contracts/prop_test.sol\":4245:4261  return proposals */\n      dup1\n      sload\n      dup1\n      0x20\n      mul\n      0x20\n      add\n      mload(0x40)\n      swap1\n      dup2\n      add\n      0x40\n      mstore\n      dup1\n      swap3\n      swap2\n      swap1\n      dup2\n      dup2\n      mstore\n      0x20\n      add\n      0x00\n      swap1\n    tag_221:\n      dup3\n      dup3\n      lt\n      iszero\n      tag_222\n      jumpi\n      dup4\n      dup3\n      swap1\n      0x00\n      mstore\n      keccak256(0x00, 0x20)\n      swap1\n      0x02\n      mul\n      add\n      mload(0x40)\n      dup1\n      0x40\n      add\n      0x40\n      mstore\n      swap1\n      dup2\n      0x00\n      dup3\n      add\n      dup1\n      sload\n      tag_224\n      swap1\n      tag_172\n      jump\t// in\n    tag_224:\n      dup1\n      0x1f\n      add\n      0x20\n      dup1\n      swap2\n      div\n      mul\n      0x20\n      add\n      mload(0x40)\n      swap1\n      dup2\n      add\n      0x40\n      mstore\n      dup1\n      swap3\n      swap2\n      swap1\n      dup2\n      dup2\n      mstore\n      0x20\n      add\n      dup3\n      dup1\n      sload\n      tag_225\n      swap1\n      tag_172\n      jump\t// in\n    tag_225:\n      dup1\n      iszero\n      tag_226\n      jumpi\n      dup1\n      0x1f\n      lt\n      tag_227\n      jumpi\n      0x0100\n      dup1\n      dup4\n      sload\n      div\n      mul\n      dup4\n      mstore\n      swap2\n      0x20\n      add\n      swap2\n      jump(tag_226)\n    tag_227:\n      dup3\n      add\n      swap2\n      swap1\n      0x00\n      mstore\n      keccak256(0x00, 0x20)\n      swap1\n    tag_228:\n      dup2\n      sload\n      dup2\n      mstore\n      swap1\n      0x01\n      add\n      swap1\n      0x20\n      add\n      dup1\n      dup4\n      gt\n      tag_228\n      jumpi\n      dup3\n      swap1\n      sub\n      0x1f\n      and\n      dup3\n      add\n      swap2\n    tag_226:\n      pop\n      pop\n      pop\n      pop\n      pop\n      dup2\n      mstore\n      0x20\n      add\n      0x01\n      dup3\n      add\n      sload\n      dup2\n      mstore\n      pop\n      pop\n      dup2\n      mstore\n      0x20\n      add\n      swap1\n      0x01\n      add\n      swap1\n      jump(tag_221)\n    tag_222:\n      pop\n      pop\n      pop\n      pop\n      swap1\n      pop\n        /* \"contracts/prop_test.sol\":4172:4269  function getProposals() public view returns(Proposal[] memory){\r... */\n      swap1\n      jump\t// out\n        /* \"contracts/visov_durku.sol\":650:788  function bfVote(uint256 _ballotIndex, uint _proposal) public {\r... */\n    tag_84:\n        /* \"contracts/visov_durku.sol\":737:748  ballotArray */\n      0x07\n        /* \"contracts/visov_durku.sol\":749:761  _ballotIndex */\n      dup3\n        /* \"contracts/visov_durku.sol\":737:762  ballotArray[_ballotIndex] */\n      dup2\n      sload\n      dup2\n      lt\n      tag_230\n      jumpi\n      mstore(0x00, 0x4e487b7100000000000000000000000000000000000000000000000000000000)\n      mstore(0x04, 0x32)\n      revert(0x00, 0x24)\n    tag_230:\n      swap1\n      0x00\n      mstore\n      keccak256(0x00, 0x20)\n      add\n      0x00\n      swap1\n      sload\n      swap1\n      0x0100\n      exp\n      swap1\n      div\n      0xffffffffffffffffffffffffffffffffffffffff\n      and\n        /* \"contracts/visov_durku.sol\":722:769  Ballot(address(ballotArray[_ballotIndex])).vote */\n      0xffffffffffffffffffffffffffffffffffffffff\n      and\n      0x0121b93f\n        /* \"contracts/visov_durku.sol\":770:779  _proposal */\n      dup3\n        /* \"contracts/visov_durku.sol\":722:780  Ballot(address(ballotArray[_ballotIndex])).vote(_proposal) */\n      mload(0x40)\n      dup3\n      0xffffffff\n      and\n      0xe0\n      shl\n      dup2\n      mstore\n      0x04\n      add\n      tag_232\n      swap2\n      swap1\n      tag_59\n      jump\t// in\n    tag_232:\n      0x00\n      mload(0x40)\n      dup1\n      dup4\n      sub\n      dup2\n      0x00\n      dup8\n      dup1\n      extcodesize\n      iszero\n      dup1\n      iszero\n      tag_233\n      jumpi\n      0x00\n      dup1\n      revert\n    tag_233:\n      pop\n      gas\n      call\n      iszero\n      dup1\n      iszero\n      tag_235\n      jumpi\n      returndatasize\n      0x00\n      dup1\n      returndatacopy\n      revert(0x00, returndatasize)\n    tag_235:\n      pop\n      pop\n      pop\n      pop\n        /* \"contracts/visov_durku.sol\":650:788  function bfVote(uint256 _ballotIndex, uint _proposal) public {\r... */\n      pop\n      pop\n      jump\t// out\n        /* \"contracts/visov_durku.sol\":135:162  Ballot[] public ballotArray */\n    tag_87:\n      0x07\n      dup2\n      dup2\n      sload\n      dup2\n      lt\n      tag_236\n      jumpi\n      0x00\n      dup1\n      revert\n    tag_236:\n      swap1\n      0x00\n      mstore\n      keccak256(0x00, 0x20)\n      add\n      0x00\n      swap2\n      pop\n      sload\n      swap1\n      0x0100\n      exp\n      swap1\n      div\n      0xffffffffffffffffffffffffffffffffffffffff\n      and\n      dup2\n      jump\t// out\n        /* \"contracts/prop_test.sol\":3632:3706  function setStatus(uint _status) public{\r... */\n    tag_92:\n        /* \"contracts/prop_test.sol\":3691:3698  _status */\n      dup1\n        /* \"contracts/prop_test.sol\":3682:3688  status */\n      0x01\n        /* \"contracts/prop_test.sol\":3682:3698  status = _status */\n      dup2\n      swap1\n      sstore\n      pop\n        /* \"contracts/prop_test.sol\":3632:3706  function setStatus(uint _status) public{\r... */\n      pop\n      jump\t// out\n        /* \"contracts/visov_durku.sol\":304:477  function bfCreateBallot(uint256 _ballotIndex, string[] memory proposalNames) public {\r... */\n    tag_96:\n        /* \"contracts/visov_durku.sol\":414:425  ballotArray */\n      0x07\n        /* \"contracts/visov_durku.sol\":426:438  _ballotIndex */\n      dup3\n        /* \"contracts/visov_durku.sol\":414:439  ballotArray[_ballotIndex] */\n      dup2\n      sload\n      dup2\n      lt\n      tag_240\n      jumpi\n      mstore(0x00, 0x4e487b7100000000000000000000000000000000000000000000000000000000)\n      mstore(0x04, 0x32)\n      revert(0x00, 0x24)\n    tag_240:\n      swap1\n      0x00\n      mstore\n      keccak256(0x00, 0x20)\n      add\n      0x00\n      swap1\n      sload\n      swap1\n      0x0100\n      exp\n      swap1\n      div\n      0xffffffffffffffffffffffffffffffffffffffff\n      and\n        /* \"contracts/visov_durku.sol\":399:454  Ballot(address(ballotArray[_ballotIndex])).createBallot */\n      0xffffffffffffffffffffffffffffffffffffffff\n      and\n      0x836bc692\n        /* \"contracts/visov_durku.sol\":455:468  proposalNames */\n      dup3\n        /* \"contracts/visov_durku.sol\":399:469  Ballot(address(ballotArray[_ballotIndex])).createBallot(proposalNames) */\n      mload(0x40)\n      dup3\n      0xffffffff\n      and\n      0xe0\n      shl\n      dup2\n      mstore\n      0x04\n      add\n      tag_242\n      swap2\n      swap1\n      tag_243\n      jump\t// in\n    tag_242:\n      0x00\n      mload(0x40)\n      dup1\n      dup4\n      sub\n      dup2\n      0x00\n      dup8\n      dup1\n      extcodesize\n      iszero\n      dup1\n      iszero\n      tag_244\n      jumpi\n      0x00\n      dup1\n      revert\n    tag_244:\n      pop\n      gas\n      call\n      iszero\n      dup1\n      iszero\n      tag_246\n      jumpi\n      returndatasize\n      0x00\n      dup1\n      returndatacopy\n      revert(0x00, returndatasize)\n    tag_246:\n      pop\n      pop\n      pop\n      pop\n        /* \"contracts/visov_durku.sol\":304:477  function bfCreateBallot(uint256 _ballotIndex, string[] memory proposalNames) public {\r... */\n      pop\n      pop\n      jump\t// out\n        /* \"contracts/visov_durku.sol\":982:1155  function bfWinningName(uint256 _ballotIndex) public view returns (string memory winnerName) {\r... */\n    tag_99:\n        /* \"contracts/visov_durku.sol\":1048:1072  string memory winnerName */\n      0x60\n        /* \"contracts/visov_durku.sol\":1107:1118  ballotArray */\n      0x07\n        /* \"contracts/visov_durku.sol\":1119:1131  _ballotIndex */\n      dup3\n        /* \"contracts/visov_durku.sol\":1107:1132  ballotArray[_ballotIndex] */\n      dup2\n      sload\n      dup2\n      lt\n      tag_248\n      jumpi\n      mstore(0x00, 0x4e487b7100000000000000000000000000000000000000000000000000000000)\n      mstore(0x04, 0x32)\n      revert(0x00, 0x24)\n    tag_248:\n      swap1\n      0x00\n      mstore\n      keccak256(0x00, 0x20)\n      add\n      0x00\n      swap1\n      sload\n      swap1\n      0x0100\n      exp\n      swap1\n      div\n      0xffffffffffffffffffffffffffffffffffffffff\n      and\n        /* \"contracts/visov_durku.sol\":1092:1145  Ballot(address(ballotArray[_ballotIndex])).winnerName */\n      0xffffffffffffffffffffffffffffffffffffffff\n      and\n      0xe2ba53f0\n        /* \"contracts/visov_durku.sol\":1092:1147  Ballot(address(ballotArray[_ballotIndex])).winnerName() */\n      mload(0x40)\n      dup2\n      0xffffffff\n      and\n      0xe0\n      shl\n      dup2\n      mstore\n      0x04\n      add\n      0x00\n      mload(0x40)\n      dup1\n      dup4\n      sub\n      dup2\n      dup7\n      dup1\n      extcodesize\n      iszero\n      dup1\n      iszero\n      tag_250\n      jumpi\n      0x00\n      dup1\n      revert\n    tag_250:\n      pop\n      gas\n      staticcall\n      iszero\n      dup1\n      iszero\n      tag_252\n      jumpi\n      returndatasize\n      0x00\n      dup1\n      returndatacopy\n      revert(0x00, returndatasize)\n    tag_252:\n      pop\n      pop\n      pop\n      pop\n      mload(0x40)\n      returndatasize\n      0x00\n      dup3\n      returndatacopy\n      returndatasize\n      not(0x1f)\n      0x1f\n      dup3\n      add\n      and\n      dup3\n      add\n      dup1\n      0x40\n      mstore\n      pop\n      dup2\n      add\n      swap1\n      tag_253\n      swap2\n      swap1\n      tag_254\n      jump\t// in\n    tag_253:\n        /* \"contracts/visov_durku.sol\":1085:1147  return Ballot(address(ballotArray[_ballotIndex])).winnerName() */\n      swap1\n      pop\n        /* \"contracts/visov_durku.sol\":982:1155  function bfWinningName(uint256 _ballotIndex) public view returns (string memory winnerName) {\r... */\n      swap2\n      swap1\n      pop\n      jump\t// out\n        /* \"contracts/prop_test.sol\":4434:4518  function getStartDate() public view returns(uint){\r... */\n    tag_103:\n        /* \"contracts/prop_test.sol\":4478:4482  uint */\n      0x00\n        /* \"contracts/prop_test.sol\":4501:4510  startDate */\n      sload(0x02)\n        /* \"contracts/prop_test.sol\":4494:4510  return startDate */\n      swap1\n      pop\n        /* \"contracts/prop_test.sol\":4434:4518  function getStartDate() public view returns(uint){\r... */\n      swap1\n      jump\t// out\n        /* \"contracts/prop_test.sol\":3500:3589  function getCreatorBallot() public view returns(address){\r... */\n    tag_106:\n        /* \"contracts/prop_test.sol\":3548:3555  address */\n      0x00\n        /* \"contracts/prop_test.sol\":3574:3581  creator */\n      dup1\n      0x00\n      swap1\n      sload\n      swap1\n      0x0100\n      exp\n      swap1\n      div\n      0xffffffffffffffffffffffffffffffffffffffff\n      and\n        /* \"contracts/prop_test.sol\":3567:3581  return creator */\n      swap1\n      pop\n        /* \"contracts/prop_test.sol\":3500:3589  function getCreatorBallot() public view returns(address){\r... */\n      swap1\n      jump\t// out\n        /* \"contracts/prop_test.sol\":907:1647  function createBallot(string[] memory proposalNames) public {\r... */\n    tag_111:\n        /* \"contracts/prop_test.sol\":988:998  msg.sender */\n      caller\n        /* \"contracts/prop_test.sol\":978:985  creator */\n      0x00\n      dup1\n        /* \"contracts/prop_test.sol\":978:998  creator = msg.sender */\n      0x0100\n      exp\n      dup2\n      sload\n      dup2\n      0xffffffffffffffffffffffffffffffffffffffff\n      mul\n      not\n      and\n      swap1\n      dup4\n      0xffffffffffffffffffffffffffffffffffffffff\n      and\n      mul\n      or\n      swap1\n      sstore\n      pop\n        /* \"contracts/prop_test.sol\":1034:1035  1 */\n      0x01\n        /* \"contracts/prop_test.sol\":1009:1015  voters */\n      0x05\n        /* \"contracts/prop_test.sol\":1009:1024  voters[creator] */\n      0x00\n        /* \"contracts/prop_test.sol\":1016:1023  creator */\n      dup1\n      0x00\n      swap1\n      sload\n      swap1\n      0x0100\n      exp\n      swap1\n      div\n      0xffffffffffffffffffffffffffffffffffffffff\n      and\n        /* \"contracts/prop_test.sol\":1009:1024  voters[creator] */\n      0xffffffffffffffffffffffffffffffffffffffff\n      and\n      0xffffffffffffffffffffffffffffffffffffffff\n      and\n      dup2\n      mstore\n      0x20\n      add\n      swap1\n      dup2\n      mstore\n      0x20\n      add\n      0x00\n      keccak256\n        /* \"contracts/prop_test.sol\":1009:1031  voters[creator].weight */\n      0x00\n      add\n        /* \"contracts/prop_test.sol\":1009:1035  voters[creator].weight = 1 */\n      dup2\n      swap1\n      sstore\n      pop\n        /* \"contracts/prop_test.sol\":1057:1058  0 */\n      0x00\n        /* \"contracts/prop_test.sol\":1048:1054  status */\n      0x01\n        /* \"contracts/prop_test.sol\":1048:1058  status = 0 */\n      dup2\n      swap1\n      sstore\n      pop\n        /* \"contracts/prop_test.sol\":1069:1083  setStartDate() */\n      tag_258\n        /* \"contracts/prop_test.sol\":1069:1081  setStartDate */\n      tag_259\n        /* \"contracts/prop_test.sol\":1069:1083  setStartDate() */\n      jump\t// in\n    tag_258:\n        /* \"contracts/prop_test.sol\":1111:1124  proposalNames */\n      dup1\n        /* \"contracts/prop_test.sol\":1111:1131  proposalNames.length */\n      mload\n        /* \"contracts/prop_test.sol\":1094:1108  numOfProposals */\n      0x04\n        /* \"contracts/prop_test.sol\":1094:1131  numOfProposals = proposalNames.length */\n      dup2\n      swap1\n      sstore\n      pop\n        /* \"contracts/prop_test.sol\":1291:1297  uint i */\n      0x00\n        /* \"contracts/prop_test.sol\":1286:1640  for (uint i = 0; i < proposalNames.length; i++) {\r... */\n    tag_260:\n        /* \"contracts/prop_test.sol\":1307:1320  proposalNames */\n      dup2\n        /* \"contracts/prop_test.sol\":1307:1327  proposalNames.length */\n      mload\n        /* \"contracts/prop_test.sol\":1303:1304  i */\n      dup2\n        /* \"contracts/prop_test.sol\":1303:1327  i < proposalNames.length */\n      lt\n        /* \"contracts/prop_test.sol\":1286:1640  for (uint i = 0; i < proposalNames.length; i++) {\r... */\n      iszero\n      tag_261\n      jumpi\n        /* \"contracts/prop_test.sol\":1515:1524  proposals */\n      0x06\n        /* \"contracts/prop_test.sol\":1530:1627  Proposal({\r... */\n      mload(0x40)\n      dup1\n      0x40\n      add\n      0x40\n      mstore\n      dup1\n        /* \"contracts/prop_test.sol\":1564:1577  proposalNames */\n      dup5\n        /* \"contracts/prop_test.sol\":1578:1579  i */\n      dup5\n        /* \"contracts/prop_test.sol\":1564:1580  proposalNames[i] */\n      dup2\n      mload\n      dup2\n      lt\n      tag_263\n      jumpi\n      mstore(0x00, 0x4e487b7100000000000000000000000000000000000000000000000000000000)\n      mstore(0x04, 0x32)\n      revert(0x00, 0x24)\n    tag_263:\n      0x20\n      mul\n      0x20\n      add\n      add\n      mload\n        /* \"contracts/prop_test.sol\":1530:1627  Proposal({\r... */\n      dup2\n      mstore\n      0x20\n      add\n        /* \"contracts/prop_test.sol\":1610:1611  0 */\n      0x00\n        /* \"contracts/prop_test.sol\":1530:1627  Proposal({\r... */\n      dup2\n      mstore\n      pop\n        /* \"contracts/prop_test.sol\":1515:1628  proposals.push(Proposal({\r... */\n      swap1\n      dup1\n      0x01\n      dup2\n      sload\n      add\n      dup1\n      dup3\n      sstore\n      dup1\n      swap2\n      pop\n      pop\n      0x01\n      swap1\n      sub\n      swap1\n      0x00\n      mstore\n      keccak256(0x00, 0x20)\n      swap1\n      0x02\n      mul\n      add\n      0x00\n      swap1\n      swap2\n      swap1\n      swap2\n      swap1\n      swap2\n      pop\n      0x00\n      dup3\n      add\n      mload\n      dup2\n      0x00\n      add\n      swap1\n      dup1\n      mload\n      swap1\n      0x20\n      add\n      swap1\n      tag_265\n      swap3\n      swap2\n      swap1\n      tag_266\n      jump\t// in\n    tag_265:\n      pop\n      0x20\n      dup3\n      add\n      mload\n      dup2\n      0x01\n      add\n      sstore\n      pop\n      pop\n        /* \"contracts/prop_test.sol\":1329:1332  i++ */\n      dup1\n      dup1\n      tag_267\n      swap1\n      tag_219\n      jump\t// in\n    tag_267:\n      swap2\n      pop\n      pop\n        /* \"contracts/prop_test.sol\":1286:1640  for (uint i = 0; i < proposalNames.length; i++) {\r... */\n      jump(tag_260)\n    tag_261:\n      pop\n        /* \"contracts/prop_test.sol\":907:1647  function createBallot(string[] memory proposalNames) public {\r... */\n      pop\n      jump\t// out\n        /* \"contracts/visov_durku.sol\":1489:1638  function bfGetStatus(uint256 _ballotIndex) public view returns(uint) {\r... */\n    tag_114:\n        /* \"contracts/visov_durku.sol\":1552:1556  uint */\n      0x00\n        /* \"contracts/visov_durku.sol\":1591:1602  ballotArray */\n      0x07\n        /* \"contracts/visov_durku.sol\":1603:1615  _ballotIndex */\n      dup3\n        /* \"contracts/visov_durku.sol\":1591:1616  ballotArray[_ballotIndex] */\n      dup2\n      sload\n      dup2\n      lt\n      tag_269\n      jumpi\n      mstore(0x00, 0x4e487b7100000000000000000000000000000000000000000000000000000000)\n      mstore(0x04, 0x32)\n      revert(0x00, 0x24)\n    tag_269:\n      swap1\n      0x00\n      mstore\n      keccak256(0x00, 0x20)\n      add\n      0x00\n      swap1\n      sload\n      swap1\n      0x0100\n      exp\n      swap1\n      div\n      0xffffffffffffffffffffffffffffffffffffffff\n      and\n        /* \"contracts/visov_durku.sol\":1576:1628  Ballot(address(ballotArray[_ballotIndex])).getStatus */\n      0xffffffffffffffffffffffffffffffffffffffff\n      and\n      0x4e69d560\n        /* \"contracts/visov_durku.sol\":1576:1630  Ballot(address(ballotArray[_ballotIndex])).getStatus() */\n      mload(0x40)\n      dup2\n      0xffffffff\n      and\n      0xe0\n      shl\n      dup2\n      mstore\n      0x04\n      add\n      0x20\n      mload(0x40)\n      dup1\n      dup4\n      sub\n      dup2\n      dup7\n      dup1\n      extcodesize\n      iszero\n      dup1\n      iszero\n      tag_271\n      jumpi\n      0x00\n      dup1\n      revert\n    tag_271:\n      pop\n      gas\n      staticcall\n      iszero\n      dup1\n      iszero\n      tag_273\n      jumpi\n      returndatasize\n      0x00\n      dup1\n      returndatacopy\n      revert(0x00, returndatasize)\n    tag_273:\n      pop\n      pop\n      pop\n      pop\n      mload(0x40)\n      returndatasize\n      not(0x1f)\n      0x1f\n      dup3\n      add\n      and\n      dup3\n      add\n      dup1\n      0x40\n      mstore\n      pop\n      dup2\n      add\n      swap1\n      tag_274\n      swap2\n      swap1\n      tag_208\n      jump\t// in\n    tag_274:\n        /* \"contracts/visov_durku.sol\":1569:1630  return Ballot(address(ballotArray[_ballotIndex])).getStatus() */\n      swap1\n      pop\n        /* \"contracts/visov_durku.sol\":1489:1638  function bfGetStatus(uint256 _ballotIndex) public view returns(uint) {\r... */\n      swap2\n      swap1\n      pop\n      jump\t// out\n        /* \"contracts/prop_test.sol\":4560:4632  function setEndDate() public{\r... */\n    tag_117:\n        /* \"contracts/prop_test.sol\":4609:4624  block.timestamp */\n      timestamp\n        /* \"contracts/prop_test.sol\":4599:4606  endDate */\n      0x03\n        /* \"contracts/prop_test.sol\":4599:4624  endDate = block.timestamp */\n      dup2\n      swap1\n      sstore\n      pop\n        /* \"contracts/prop_test.sol\":4560:4632  function setEndDate() public{\r... */\n      jump\t// out\n        /* \"contracts/visov_durku.sol\":171:296  function createBallotContract() public {\r... */\n    tag_119:\n        /* \"contracts/visov_durku.sol\":221:234  Ballot ballot */\n      0x00\n        /* \"contracts/visov_durku.sol\":237:249  new Ballot() */\n      mload(0x40)\n      tag_277\n      swap1\n      tag_278\n      jump\t// in\n    tag_277:\n      mload(0x40)\n      dup1\n      swap2\n      sub\n      swap1\n      0x00\n      create\n      dup1\n      iszero\n      dup1\n      iszero\n      tag_279\n      jumpi\n      returndatasize\n      0x00\n      dup1\n      returndatacopy\n      revert(0x00, returndatasize)\n    tag_279:\n      pop\n        /* \"contracts/visov_durku.sol\":221:249  Ballot ballot = new Ballot() */\n      swap1\n      pop\n        /* \"contracts/visov_durku.sol\":260:271  ballotArray */\n      0x07\n        /* \"contracts/visov_durku.sol\":277:283  ballot */\n      dup2\n        /* \"contracts/visov_durku.sol\":260:284  ballotArray.push(ballot) */\n      swap1\n      dup1\n      0x01\n      dup2\n      sload\n      add\n      dup1\n      dup3\n      sstore\n      dup1\n      swap2\n      pop\n      pop\n      0x01\n      swap1\n      sub\n      swap1\n      0x00\n      mstore\n      keccak256(0x00, 0x20)\n      add\n      0x00\n      swap1\n      swap2\n      swap1\n      swap2\n      swap1\n      swap2\n      0x0100\n      exp\n      dup2\n      sload\n      dup2\n      0xffffffffffffffffffffffffffffffffffffffff\n      mul\n      not\n      and\n      swap1\n      dup4\n      0xffffffffffffffffffffffffffffffffffffffff\n      and\n      mul\n      or\n      swap1\n      sstore\n      pop\n        /* \"contracts/visov_durku.sol\":171:296  function createBallotContract() public {\r... */\n      pop\n      jump\t// out\n        /* \"contracts/prop_test.sol\":1655:2233  function giveRightToVote(address voter) public {\r... */\n    tag_123:\n        /* \"contracts/prop_test.sol\":2126:2133  creator */\n      0x00\n      dup1\n      sload\n      swap1\n      0x0100\n      exp\n      swap1\n      div\n      0xffffffffffffffffffffffffffffffffffffffff\n      and\n        /* \"contracts/prop_test.sol\":2112:2133  msg.sender == creator */\n      0xffffffffffffffffffffffffffffffffffffffff\n      and\n        /* \"contracts/prop_test.sol\":2112:2122  msg.sender */\n      caller\n        /* \"contracts/prop_test.sol\":2112:2133  msg.sender == creator */\n      0xffffffffffffffffffffffffffffffffffffffff\n      and\n      eq\n        /* \"contracts/prop_test.sol\":2111:2158  (msg.sender == creator) && !voters[voter].voted */\n      dup1\n      iszero\n      tag_282\n      jumpi\n      pop\n        /* \"contracts/prop_test.sol\":2139:2145  voters */\n      0x05\n        /* \"contracts/prop_test.sol\":2139:2152  voters[voter] */\n      0x00\n        /* \"contracts/prop_test.sol\":2146:2151  voter */\n      dup3\n        /* \"contracts/prop_test.sol\":2139:2152  voters[voter] */\n      0xffffffffffffffffffffffffffffffffffffffff\n      and\n      0xffffffffffffffffffffffffffffffffffffffff\n      and\n      dup2\n      mstore\n      0x20\n      add\n      swap1\n      dup2\n      mstore\n      0x20\n      add\n      0x00\n      keccak256\n        /* \"contracts/prop_test.sol\":2139:2158  voters[voter].voted */\n      0x01\n      add\n      0x00\n      swap1\n      sload\n      swap1\n      0x0100\n      exp\n      swap1\n      div\n      0xff\n      and\n        /* \"contracts/prop_test.sol\":2138:2158  !voters[voter].voted */\n      iszero\n        /* \"contracts/prop_test.sol\":2111:2158  (msg.sender == creator) && !voters[voter].voted */\n    tag_282:\n        /* \"contracts/prop_test.sol\":2111:2189  (msg.sender == creator) && !voters[voter].voted && (voters[voter].weight == 0) */\n      dup1\n      iszero\n      tag_283\n      jumpi\n      pop\n        /* \"contracts/prop_test.sol\":2187:2188  0 */\n      0x00\n        /* \"contracts/prop_test.sol\":2163:2169  voters */\n      0x05\n        /* \"contracts/prop_test.sol\":2163:2176  voters[voter] */\n      0x00\n        /* \"contracts/prop_test.sol\":2170:2175  voter */\n      dup4\n        /* \"contracts/prop_test.sol\":2163:2176  voters[voter] */\n      0xffffffffffffffffffffffffffffffffffffffff\n      and\n      0xffffffffffffffffffffffffffffffffffffffff\n      and\n      dup2\n      mstore\n      0x20\n      add\n      swap1\n      dup2\n      mstore\n      0x20\n      add\n      0x00\n      keccak256\n        /* \"contracts/prop_test.sol\":2163:2183  voters[voter].weight */\n      0x00\n      add\n      sload\n        /* \"contracts/prop_test.sol\":2163:2188  voters[voter].weight == 0 */\n      eq\n        /* \"contracts/prop_test.sol\":2111:2189  (msg.sender == creator) && !voters[voter].voted && (voters[voter].weight == 0) */\n    tag_283:\n        /* \"contracts/prop_test.sol\":2103:2190  require((msg.sender == creator) && !voters[voter].voted && (voters[voter].weight == 0)) */\n      tag_284\n      jumpi\n      0x00\n      dup1\n      revert\n    tag_284:\n        /* \"contracts/prop_test.sol\":2224:2225  1 */\n      0x01\n        /* \"contracts/prop_test.sol\":2201:2207  voters */\n      0x05\n        /* \"contracts/prop_test.sol\":2201:2214  voters[voter] */\n      0x00\n        /* \"contracts/prop_test.sol\":2208:2213  voter */\n      dup4\n        /* \"contracts/prop_test.sol\":2201:2214  voters[voter] */\n      0xffffffffffffffffffffffffffffffffffffffff\n      and\n      0xffffffffffffffffffffffffffffffffffffffff\n      and\n      dup2\n      mstore\n      0x20\n      add\n      swap1\n      dup2\n      mstore\n      0x20\n      add\n      0x00\n      keccak256\n        /* \"contracts/prop_test.sol\":2201:2221  voters[voter].weight */\n      0x00\n      add\n        /* \"contracts/prop_test.sol\":2201:2225  voters[voter].weight = 1 */\n      dup2\n      swap1\n      sstore\n      pop\n        /* \"contracts/prop_test.sol\":1655:2233  function giveRightToVote(address voter) public {\r... */\n      pop\n      jump\t// out\n        /* \"contracts/prop_test.sol\":766:805  mapping(address => Voter) public voters */\n    tag_126:\n      mstore(0x20, 0x05)\n      dup1\n      0x00\n      mstore\n      keccak256(0x00, 0x40)\n      0x00\n      swap2\n      pop\n      swap1\n      pop\n      dup1\n      0x00\n      add\n      sload\n      swap1\n      dup1\n      0x01\n      add\n      0x00\n      swap1\n      sload\n      swap1\n      0x0100\n      exp\n      swap1\n      div\n      0xff\n      and\n      swap1\n      dup1\n      0x01\n      add\n      0x01\n      swap1\n      sload\n      swap1\n      0x0100\n      exp\n      swap1\n      div\n      0xffffffffffffffffffffffffffffffffffffffff\n      and\n      swap1\n      dup1\n      0x02\n      add\n      sload\n      swap1\n      pop\n      dup5\n      jump\t// out\n        /* \"contracts/prop_test.sol\":4672:4752  function getEndDate() public view returns(uint){\r... */\n    tag_130:\n        /* \"contracts/prop_test.sol\":4714:4718  uint */\n      0x00\n        /* \"contracts/prop_test.sol\":4737:4744  endDate */\n      sload(0x03)\n        /* \"contracts/prop_test.sol\":4730:4744  return endDate */\n      swap1\n      pop\n        /* \"contracts/prop_test.sol\":4672:4752  function getEndDate() public view returns(uint){\r... */\n      swap1\n      jump\t// out\n        /* \"contracts/visov_durku.sol\":1338:1481  function bfSetStatus(uint256 _ballotIndex, uint _status) public{\r... */\n    tag_134:\n        /* \"contracts/visov_durku.sol\":1427:1438  ballotArray */\n      0x07\n        /* \"contracts/visov_durku.sol\":1439:1451  _ballotIndex */\n      dup3\n        /* \"contracts/visov_durku.sol\":1427:1452  ballotArray[_ballotIndex] */\n      dup2\n      sload\n      dup2\n      lt\n      tag_287\n      jumpi\n      mstore(0x00, 0x4e487b7100000000000000000000000000000000000000000000000000000000)\n      mstore(0x04, 0x32)\n      revert(0x00, 0x24)\n    tag_287:\n      swap1\n      0x00\n      mstore\n      keccak256(0x00, 0x20)\n      add\n      0x00\n      swap1\n      sload\n      swap1\n      0x0100\n      exp\n      swap1\n      div\n      0xffffffffffffffffffffffffffffffffffffffff\n      and\n        /* \"contracts/visov_durku.sol\":1412:1464  Ballot(address(ballotArray[_ballotIndex])).setStatus */\n      0xffffffffffffffffffffffffffffffffffffffff\n      and\n      0x69ba1a75\n        /* \"contracts/visov_durku.sol\":1465:1472  _status */\n      dup3\n        /* \"contracts/visov_durku.sol\":1412:1473  Ballot(address(ballotArray[_ballotIndex])).setStatus(_status) */\n      mload(0x40)\n      dup3\n      0xffffffff\n      and\n      0xe0\n      shl\n      dup2\n      mstore\n      0x04\n      add\n      tag_289\n      swap2\n      swap1\n      tag_59\n      jump\t// in\n    tag_289:\n      0x00\n      mload(0x40)\n      dup1\n      dup4\n      sub\n      dup2\n      0x00\n      dup8\n      dup1\n      extcodesize\n      iszero\n      dup1\n      iszero\n      tag_290\n      jumpi\n      0x00\n      dup1\n      revert\n    tag_290:\n      pop\n      gas\n      call\n      iszero\n      dup1\n      iszero\n      tag_292\n      jumpi\n      returndatasize\n      0x00\n      dup1\n      returndatacopy\n      revert(0x00, returndatasize)\n    tag_292:\n      pop\n      pop\n      pop\n      pop\n        /* \"contracts/visov_durku.sol\":1338:1481  function bfSetStatus(uint256 _ballotIndex, uint _status) public{\r... */\n      pop\n      pop\n      jump\t// out\n        /* \"contracts/visov_durku.sol\":2211:2363  function getStartDate(uint256 _ballotIndex) public view returns(uint){\r... */\n    tag_137:\n        /* \"contracts/visov_durku.sol\":2275:2279  uint */\n      0x00\n        /* \"contracts/visov_durku.sol\":2313:2324  ballotArray */\n      0x07\n        /* \"contracts/visov_durku.sol\":2325:2337  _ballotIndex */\n      dup3\n        /* \"contracts/visov_durku.sol\":2313:2338  ballotArray[_ballotIndex] */\n      dup2\n      sload\n      dup2\n      lt\n      tag_294\n      jumpi\n      mstore(0x00, 0x4e487b7100000000000000000000000000000000000000000000000000000000)\n      mstore(0x04, 0x32)\n      revert(0x00, 0x24)\n    tag_294:\n      swap1\n      0x00\n      mstore\n      keccak256(0x00, 0x20)\n      add\n      0x00\n      swap1\n      sload\n      swap1\n      0x0100\n      exp\n      swap1\n      div\n      0xffffffffffffffffffffffffffffffffffffffff\n      and\n        /* \"contracts/visov_durku.sol\":2298:2353  Ballot(address(ballotArray[_ballotIndex])).getStartDate */\n      0xffffffffffffffffffffffffffffffffffffffff\n      and\n      0x78f305c6\n        /* \"contracts/visov_durku.sol\":2298:2355  Ballot(address(ballotArray[_ballotIndex])).getStartDate() */\n      mload(0x40)\n      dup2\n      0xffffffff\n      and\n      0xe0\n      shl\n      dup2\n      mstore\n      0x04\n      add\n      0x20\n      mload(0x40)\n      dup1\n      dup4\n      sub\n      dup2\n      dup7\n      dup1\n      extcodesize\n      iszero\n      dup1\n      iszero\n      tag_296\n      jumpi\n      0x00\n      dup1\n      revert\n    tag_296:\n      pop\n      gas\n      staticcall\n      iszero\n      dup1\n      iszero\n      tag_298\n      jumpi\n      returndatasize\n      0x00\n      dup1\n      returndatacopy\n      revert(0x00, returndatasize)\n    tag_298:\n      pop\n      pop\n      pop\n      pop\n      mload(0x40)\n      returndatasize\n      not(0x1f)\n      0x1f\n      dup3\n      add\n      and\n      dup3\n      add\n      dup1\n      0x40\n      mstore\n      pop\n      dup2\n      add\n      swap1\n      tag_299\n      swap2\n      swap1\n      tag_208\n      jump\t// in\n    tag_299:\n        /* \"contracts/visov_durku.sol\":2291:2355  return Ballot(address(ballotArray[_ballotIndex])).getStartDate() */\n      swap1\n      pop\n        /* \"contracts/visov_durku.sol\":2211:2363  function getStartDate(uint256 _ballotIndex) public view returns(uint){\r... */\n      swap2\n      swap1\n      pop\n      jump\t// out\n        /* \"contracts/visov_durku.sol\":485:642  function bfGiveRightToVote(uint256 _ballotIndex, address _voter) public {\r... */\n    tag_142:\n        /* \"contracts/visov_durku.sol\":583:594  ballotArray */\n      0x07\n        /* \"contracts/visov_durku.sol\":595:607  _ballotIndex */\n      dup3\n        /* \"contracts/visov_durku.sol\":583:608  ballotArray[_ballotIndex] */\n      dup2\n      sload\n      dup2\n      lt\n      tag_301\n      jumpi\n      mstore(0x00, 0x4e487b7100000000000000000000000000000000000000000000000000000000)\n      mstore(0x04, 0x32)\n      revert(0x00, 0x24)\n    tag_301:\n      swap1\n      0x00\n      mstore\n      keccak256(0x00, 0x20)\n      add\n      0x00\n      swap1\n      sload\n      swap1\n      0x0100\n      exp\n      swap1\n      div\n      0xffffffffffffffffffffffffffffffffffffffff\n      and\n        /* \"contracts/visov_durku.sol\":568:626  Ballot(address(ballotArray[_ballotIndex])).giveRightToVote */\n      0xffffffffffffffffffffffffffffffffffffffff\n      and\n      0x9e7b8d61\n        /* \"contracts/visov_durku.sol\":627:633  _voter */\n      dup3\n        /* \"contracts/visov_durku.sol\":568:634  Ballot(address(ballotArray[_ballotIndex])).giveRightToVote(_voter) */\n      mload(0x40)\n      dup3\n      0xffffffff\n      and\n      0xe0\n      shl\n      dup2\n      mstore\n      0x04\n      add\n      tag_303\n      swap2\n      swap1\n      tag_64\n      jump\t// in\n    tag_303:\n      0x00\n      mload(0x40)\n      dup1\n      dup4\n      sub\n      dup2\n      0x00\n      dup8\n      dup1\n      extcodesize\n      iszero\n      dup1\n      iszero\n      tag_304\n      jumpi\n      0x00\n      dup1\n      revert\n    tag_304:\n      pop\n      gas\n      call\n      iszero\n      dup1\n      iszero\n      tag_306\n      jumpi\n      returndatasize\n      0x00\n      dup1\n      returndatacopy\n      revert(0x00, returndatasize)\n    tag_306:\n      pop\n      pop\n      pop\n      pop\n        /* \"contracts/visov_durku.sol\":485:642  function bfGiveRightToVote(uint256 _ballotIndex, address _voter) public {\r... */\n      pop\n      pop\n      jump\t// out\n        /* \"contracts/visov_durku.sol\":796:974  function bfWinningProposal(uint256 _ballotIndex) public view returns (uint winningProposal) {\r... */\n    tag_145:\n        /* \"contracts/visov_durku.sol\":866:886  uint winningProposal */\n      0x00\n        /* \"contracts/visov_durku.sol\":921:932  ballotArray */\n      0x07\n        /* \"contracts/visov_durku.sol\":933:945  _ballotIndex */\n      dup3\n        /* \"contracts/visov_durku.sol\":921:946  ballotArray[_ballotIndex] */\n      dup2\n      sload\n      dup2\n      lt\n      tag_308\n      jumpi\n      mstore(0x00, 0x4e487b7100000000000000000000000000000000000000000000000000000000)\n      mstore(0x04, 0x32)\n      revert(0x00, 0x24)\n    tag_308:\n      swap1\n      0x00\n      mstore\n      keccak256(0x00, 0x20)\n      add\n      0x00\n      swap1\n      sload\n      swap1\n      0x0100\n      exp\n      swap1\n      div\n      0xffffffffffffffffffffffffffffffffffffffff\n      and\n        /* \"contracts/visov_durku.sol\":906:964  Ballot(address(ballotArray[_ballotIndex])).winningProposal */\n      0xffffffffffffffffffffffffffffffffffffffff\n      and\n      0x609ff1bd\n        /* \"contracts/visov_durku.sol\":906:966  Ballot(address(ballotArray[_ballotIndex])).winningProposal() */\n      mload(0x40)\n      dup2\n      0xffffffff\n      and\n      0xe0\n      shl\n      dup2\n      mstore\n      0x04\n      add\n      0x20\n      mload(0x40)\n      dup1\n      dup4\n      sub\n      dup2\n      dup7\n      dup1\n      extcodesize\n      iszero\n      dup1\n      iszero\n      tag_310\n      jumpi\n      0x00\n      dup1\n      revert\n    tag_310:\n      pop\n      gas\n      staticcall\n      iszero\n      dup1\n      iszero\n      tag_312\n      jumpi\n      returndatasize\n      0x00\n      dup1\n      returndatacopy\n      revert(0x00, returndatasize)\n    tag_312:\n      pop\n      pop\n      pop\n      pop\n      mload(0x40)\n      returndatasize\n      not(0x1f)\n      0x1f\n      dup3\n      add\n      and\n      dup3\n      add\n      dup1\n      0x40\n      mstore\n      pop\n      dup2\n      add\n      swap1\n      tag_313\n      swap2\n      swap1\n      tag_208\n      jump\t// in\n    tag_313:\n        /* \"contracts/visov_durku.sol\":899:966  return Ballot(address(ballotArray[_ballotIndex])).winningProposal() */\n      swap1\n      pop\n        /* \"contracts/visov_durku.sol\":796:974  function bfWinningProposal(uint256 _ballotIndex) public view returns (uint winningProposal) {\r... */\n      swap2\n      swap1\n      pop\n      jump\t// out\n        /* \"contracts/prop_test.sol\":3190:3328  function winnerName() public view returns(string memory winnerName)\r... */\n    tag_148:\n        /* \"contracts/prop_test.sol\":3232:3256  string memory winnerName */\n      0x60\n        /* \"contracts/prop_test.sol\":3287:3296  proposals */\n      0x06\n        /* \"contracts/prop_test.sol\":3297:3314  winningProposal() */\n      tag_315\n        /* \"contracts/prop_test.sol\":3297:3312  winningProposal */\n      tag_76\n        /* \"contracts/prop_test.sol\":3297:3314  winningProposal() */\n      jump\t// in\n    tag_315:\n        /* \"contracts/prop_test.sol\":3287:3315  proposals[winningProposal()] */\n      dup2\n      sload\n      dup2\n      lt\n      tag_316\n      jumpi\n      mstore(0x00, 0x4e487b7100000000000000000000000000000000000000000000000000000000)\n      mstore(0x04, 0x32)\n      revert(0x00, 0x24)\n    tag_316:\n      swap1\n      0x00\n      mstore\n      keccak256(0x00, 0x20)\n      swap1\n      0x02\n      mul\n      add\n        /* \"contracts/prop_test.sol\":3287:3320  proposals[winningProposal()].name */\n      0x00\n      add\n        /* \"contracts/prop_test.sol\":3274:3320  winnerName = proposals[winningProposal()].name */\n      dup1\n      sload\n      tag_318\n      swap1\n      tag_172\n      jump\t// in\n    tag_318:\n      dup1\n      0x1f\n      add\n      0x20\n      dup1\n      swap2\n      div\n      mul\n      0x20\n      add\n      mload(0x40)\n      swap1\n      dup2\n      add\n      0x40\n      mstore\n      dup1\n      swap3\n      swap2\n      swap1\n      dup2\n      dup2\n      mstore\n      0x20\n      add\n      dup3\n      dup1\n      sload\n      tag_319\n      swap1\n      tag_172\n      jump\t// in\n    tag_319:\n      dup1\n      iszero\n      tag_320\n      jumpi\n      dup1\n      0x1f\n      lt\n      tag_321\n      jumpi\n      0x0100\n      dup1\n      dup4\n      sload\n      div\n      mul\n      dup4\n      mstore\n      swap2\n      0x20\n      add\n      swap2\n      jump(tag_320)\n    tag_321:\n      dup3\n      add\n      swap2\n      swap1\n      0x00\n      mstore\n      keccak256(0x00, 0x20)\n      swap1\n    tag_322:\n      dup2\n      sload\n      dup2\n      mstore\n      swap1\n      0x01\n      add\n      swap1\n      0x20\n      add\n      dup1\n      dup4\n      gt\n      tag_322\n      jumpi\n      dup3\n      swap1\n      sub\n      0x1f\n      and\n      dup3\n      add\n      swap2\n    tag_320:\n      pop\n      pop\n      pop\n      pop\n      pop\n      swap1\n      pop\n        /* \"contracts/prop_test.sol\":3190:3328  function winnerName() public view returns(string memory winnerName)\r... */\n      swap1\n      jump\t// out\n        /* \"contracts/visov_durku.sol\":1646:1810  function bfGetNumOfProposals(uint256 _ballotIndex) public view returns(uint){\r... */\n    tag_152:\n        /* \"contracts/visov_durku.sol\":1717:1721  uint */\n      0x00\n        /* \"contracts/visov_durku.sol\":1755:1766  ballotArray */\n      0x07\n        /* \"contracts/visov_durku.sol\":1767:1779  _ballotIndex */\n      dup3\n        /* \"contracts/visov_durku.sol\":1755:1780  ballotArray[_ballotIndex] */\n      dup2\n      sload\n      dup2\n      lt\n      tag_324\n      jumpi\n      mstore(0x00, 0x4e487b7100000000000000000000000000000000000000000000000000000000)\n      mstore(0x04, 0x32)\n      revert(0x00, 0x24)\n    tag_324:\n      swap1\n      0x00\n      mstore\n      keccak256(0x00, 0x20)\n      add\n      0x00\n      swap1\n      sload\n      swap1\n      0x0100\n      exp\n      swap1\n      div\n      0xffffffffffffffffffffffffffffffffffffffff\n      and\n        /* \"contracts/visov_durku.sol\":1740:1800  Ballot(address(ballotArray[_ballotIndex])).getnumOfProposals */\n      0xffffffffffffffffffffffffffffffffffffffff\n      and\n      0x0a82dcb1\n        /* \"contracts/visov_durku.sol\":1740:1802  Ballot(address(ballotArray[_ballotIndex])).getnumOfProposals() */\n      mload(0x40)\n      dup2\n      0xffffffff\n      and\n      0xe0\n      shl\n      dup2\n      mstore\n      0x04\n      add\n      0x20\n      mload(0x40)\n      dup1\n      dup4\n      sub\n      dup2\n      dup7\n      dup1\n      extcodesize\n      iszero\n      dup1\n      iszero\n      tag_326\n      jumpi\n      0x00\n      dup1\n      revert\n    tag_326:\n      pop\n      gas\n      staticcall\n      iszero\n      dup1\n      iszero\n      tag_328\n      jumpi\n      returndatasize\n      0x00\n      dup1\n      returndatacopy\n      revert(0x00, returndatasize)\n    tag_328:\n      pop\n      pop\n      pop\n      pop\n      mload(0x40)\n      returndatasize\n      not(0x1f)\n      0x1f\n      dup3\n      add\n      and\n      dup3\n      add\n      dup1\n      0x40\n      mstore\n      pop\n      dup2\n      add\n      swap1\n      tag_329\n      swap2\n      swap1\n      tag_208\n      jump\t// in\n    tag_329:\n        /* \"contracts/visov_durku.sol\":1733:1802  return Ballot(address(ballotArray[_ballotIndex])).getnumOfProposals() */\n      swap1\n      pop\n        /* \"contracts/visov_durku.sol\":1646:1810  function bfGetNumOfProposals(uint256 _ballotIndex) public view returns(uint){\r... */\n      swap2\n      swap1\n      pop\n      jump\t// out\n        /* \"contracts/prop_test.sol\":4005:4137  function getProposalStructure(uint _proposalId) public view returns(Proposal memory){\r... */\n    tag_156:\n        /* \"contracts/prop_test.sol\":4073:4088  Proposal memory */\n      tag_330\n      tag_331\n      jump\t// in\n    tag_330:\n        /* \"contracts/prop_test.sol\":4107:4116  proposals */\n      0x06\n        /* \"contracts/prop_test.sol\":4117:4128  _proposalId */\n      dup3\n        /* \"contracts/prop_test.sol\":4107:4129  proposals[_proposalId] */\n      dup2\n      sload\n      dup2\n      lt\n      tag_333\n      jumpi\n      mstore(0x00, 0x4e487b7100000000000000000000000000000000000000000000000000000000)\n      mstore(0x04, 0x32)\n      revert(0x00, 0x24)\n    tag_333:\n      swap1\n      0x00\n      mstore\n      keccak256(0x00, 0x20)\n      swap1\n      0x02\n      mul\n      add\n        /* \"contracts/prop_test.sol\":4100:4129  return proposals[_proposalId] */\n      mload(0x40)\n      dup1\n      0x40\n      add\n      0x40\n      mstore\n      swap1\n      dup2\n      0x00\n      dup3\n      add\n      dup1\n      sload\n      tag_335\n      swap1\n      tag_172\n      jump\t// in\n    tag_335:\n      dup1\n      0x1f\n      add\n      0x20\n      dup1\n      swap2\n      div\n      mul\n      0x20\n      add\n      mload(0x40)\n      swap1\n      dup2\n      add\n      0x40\n      mstore\n      dup1\n      swap3\n      swap2\n      swap1\n      dup2\n      dup2\n      mstore\n      0x20\n      add\n      dup3\n      dup1\n      sload\n      tag_336\n      swap1\n      tag_172\n      jump\t// in\n    tag_336:\n      dup1\n      iszero\n      tag_337\n      jumpi\n      dup1\n      0x1f\n      lt\n      tag_338\n      jumpi\n      0x0100\n      dup1\n      dup4\n      sload\n      div\n      mul\n      dup4\n      mstore\n      swap2\n      0x20\n      add\n      swap2\n      jump(tag_337)\n    tag_338:\n      dup3\n      add\n      swap2\n      swap1\n      0x00\n      mstore\n      keccak256(0x00, 0x20)\n      swap1\n    tag_339:\n      dup2\n      sload\n      dup2\n      mstore\n      swap1\n      0x01\n      add\n      swap1\n      0x20\n      add\n      dup1\n      dup4\n      gt\n      tag_339\n      jumpi\n      dup3\n      swap1\n      sub\n      0x1f\n      and\n      dup3\n      add\n      swap2\n    tag_337:\n      pop\n      pop\n      pop\n      pop\n      pop\n      dup2\n      mstore\n      0x20\n      add\n      0x01\n      dup3\n      add\n      sload\n      dup2\n      mstore\n      pop\n      pop\n      swap1\n      pop\n        /* \"contracts/prop_test.sol\":4005:4137  function getProposalStructure(uint _proposalId) public view returns(Proposal memory){\r... */\n      swap2\n      swap1\n      pop\n      jump\t// out\n        /* \"contracts/visov_durku.sol\":1818:2028  function bfGetProposalStructure(uint256 _ballotIndex, uint _proposalId) public view returns(Proposal memory){\r... */\n    tag_161:\n        /* \"contracts/visov_durku.sol\":1910:1925  Proposal memory */\n      tag_340\n      tag_331\n      jump\t// in\n    tag_340:\n        /* \"contracts/visov_durku.sol\":1959:1970  ballotArray */\n      0x07\n        /* \"contracts/visov_durku.sol\":1971:1983  _ballotIndex */\n      dup4\n        /* \"contracts/visov_durku.sol\":1959:1984  ballotArray[_ballotIndex] */\n      dup2\n      sload\n      dup2\n      lt\n      tag_342\n      jumpi\n      mstore(0x00, 0x4e487b7100000000000000000000000000000000000000000000000000000000)\n      mstore(0x04, 0x32)\n      revert(0x00, 0x24)\n    tag_342:\n      swap1\n      0x00\n      mstore\n      keccak256(0x00, 0x20)\n      add\n      0x00\n      swap1\n      sload\n      swap1\n      0x0100\n      exp\n      swap1\n      div\n      0xffffffffffffffffffffffffffffffffffffffff\n      and\n        /* \"contracts/visov_durku.sol\":1944:2007  Ballot(address(ballotArray[_ballotIndex])).getProposalStructure */\n      0xffffffffffffffffffffffffffffffffffffffff\n      and\n      0xe9d6c6da\n        /* \"contracts/visov_durku.sol\":2008:2019  _proposalId */\n      dup4\n        /* \"contracts/visov_durku.sol\":1944:2020  Ballot(address(ballotArray[_ballotIndex])).getProposalStructure(_proposalId) */\n      mload(0x40)\n      dup3\n      0xffffffff\n      and\n      0xe0\n      shl\n      dup2\n      mstore\n      0x04\n      add\n      tag_344\n      swap2\n      swap1\n      tag_59\n      jump\t// in\n    tag_344:\n      0x00\n      mload(0x40)\n      dup1\n      dup4\n      sub\n      dup2\n      dup7\n      dup1\n      extcodesize\n      iszero\n      dup1\n      iszero\n      tag_345\n      jumpi\n      0x00\n      dup1\n      revert\n    tag_345:\n      pop\n      gas\n      staticcall\n      iszero\n      dup1\n      iszero\n      tag_347\n      jumpi\n      returndatasize\n      0x00\n      dup1\n      returndatacopy\n      revert(0x00, returndatasize)\n    tag_347:\n      pop\n      pop\n      pop\n      pop\n      mload(0x40)\n      returndatasize\n      0x00\n      dup3\n      returndatacopy\n      returndatasize\n      not(0x1f)\n      0x1f\n      dup3\n      add\n      and\n      dup3\n      add\n      dup1\n      0x40\n      mstore\n      pop\n      dup2\n      add\n      swap1\n      tag_348\n      swap2\n      swap1\n      tag_349\n      jump\t// in\n    tag_348:\n        /* \"contracts/visov_durku.sol\":1937:2020  return Ballot(address(ballotArray[_ballotIndex])).getProposalStructure(_proposalId) */\n      swap1\n      pop\n        /* \"contracts/visov_durku.sol\":1818:2028  function bfGetProposalStructure(uint256 _ballotIndex, uint _proposalId) public view returns(Proposal memory){\r... */\n      swap3\n      swap2\n      pop\n      pop\n      jump\t// out\n        /* \"contracts/prop_test.sol\":4313:4392  function setStartDate() internal {\r... */\n    tag_259:\n        /* \"contracts/prop_test.sol\":4369:4384  block.timestamp */\n      timestamp\n        /* \"contracts/prop_test.sol\":4357:4366  startDate */\n      0x02\n        /* \"contracts/prop_test.sol\":4357:4384  startDate = block.timestamp */\n      dup2\n      swap1\n      sstore\n      pop\n        /* \"contracts/prop_test.sol\":4313:4392  function setStartDate() internal {\r... */\n      jump\t// out\n    tag_266:\n      dup3\n      dup1\n      sload\n      tag_351\n      swap1\n      tag_172\n      jump\t// in\n    tag_351:\n      swap1\n      0x00\n      mstore\n      keccak256(0x00, 0x20)\n      swap1\n      0x1f\n      add\n      0x20\n      swap1\n      div\n      dup2\n      add\n      swap3\n      dup3\n      tag_353\n      jumpi\n      0x00\n      dup6\n      sstore\n      jump(tag_352)\n    tag_353:\n      dup3\n      0x1f\n      lt\n      tag_354\n      jumpi\n      dup1\n      mload\n      not(0xff)\n      and\n      dup4\n      dup1\n      add\n      or\n      dup6\n      sstore\n      jump(tag_352)\n    tag_354:\n      dup3\n      dup1\n      add\n      0x01\n      add\n      dup6\n      sstore\n      dup3\n      iszero\n      tag_352\n      jumpi\n      swap2\n      dup3\n      add\n    tag_355:\n      dup3\n      dup2\n      gt\n      iszero\n      tag_356\n      jumpi\n      dup3\n      mload\n      dup3\n      sstore\n      swap2\n      0x20\n      add\n      swap2\n      swap1\n      0x01\n      add\n      swap1\n      jump(tag_355)\n    tag_356:\n    tag_352:\n      pop\n      swap1\n      pop\n      tag_357\n      swap2\n      swap1\n      tag_358\n      jump\t// in\n    tag_357:\n      pop\n      swap1\n      jump\t// out\n    tag_278:\n      dataSize(sub_0)\n      dup1\n      dataOffset(sub_0)\n      dup4\n      codecopy\n      add\n      swap1\n      jump\t// out\n    tag_331:\n      mload(0x40)\n      dup1\n      0x40\n      add\n      0x40\n      mstore\n      dup1\n      0x60\n      dup2\n      mstore\n      0x20\n      add\n      0x00\n      dup2\n      mstore\n      pop\n      swap1\n      jump\t// out\n    tag_358:\n    tag_359:\n      dup1\n      dup3\n      gt\n      iszero\n      tag_360\n      jumpi\n      0x00\n      dup2\n      0x00\n      swap1\n      sstore\n      pop\n      0x01\n      add\n      jump(tag_359)\n    tag_360:\n      pop\n      swap1\n      jump\t// out\n        /* \"#utility.yul\":23:638   */\n    tag_362:\n      0x00\n        /* \"#utility.yul\":154:244   */\n      tag_364\n        /* \"#utility.yul\":169:243   */\n      tag_365\n        /* \"#utility.yul\":236:242   */\n      dup5\n        /* \"#utility.yul\":169:243   */\n      tag_366\n      jump\t// in\n    tag_365:\n        /* \"#utility.yul\":154:244   */\n      tag_367\n      jump\t// in\n    tag_364:\n        /* \"#utility.yul\":145:244   */\n      swap1\n      pop\n        /* \"#utility.yul\":264:269   */\n      dup1\n        /* \"#utility.yul\":292:298   */\n      dup4\n        /* \"#utility.yul\":285:290   */\n      dup3\n        /* \"#utility.yul\":278:299   */\n      mstore\n        /* \"#utility.yul\":318:322   */\n      0x20\n        /* \"#utility.yul\":311:316   */\n      dup3\n        /* \"#utility.yul\":307:323   */\n      add\n        /* \"#utility.yul\":300:323   */\n      swap1\n      pop\n        /* \"#utility.yul\":343:349   */\n      dup3\n        /* \"#utility.yul\":374:375   */\n      0x00\n        /* \"#utility.yul\":359:632   */\n    tag_368:\n        /* \"#utility.yul\":384:390   */\n      dup6\n        /* \"#utility.yul\":381:382   */\n      dup2\n        /* \"#utility.yul\":378:391   */\n      lt\n        /* \"#utility.yul\":359:632   */\n      iszero\n      tag_370\n      jumpi\n        /* \"#utility.yul\":476:479   */\n      dup2\n        /* \"#utility.yul\":463:480   */\n      calldataload\n        /* \"#utility.yul\":455:461   */\n      dup6\n        /* \"#utility.yul\":451:481   */\n      add\n        /* \"#utility.yul\":506:553   */\n      tag_371\n        /* \"#utility.yul\":549:552   */\n      dup9\n        /* \"#utility.yul\":537:547   */\n      dup3\n        /* \"#utility.yul\":506:553   */\n      tag_372\n      jump\t// in\n    tag_371:\n        /* \"#utility.yul\":501:504   */\n      dup5\n        /* \"#utility.yul\":494:554   */\n      mstore\n        /* \"#utility.yul\":583:587   */\n      0x20\n        /* \"#utility.yul\":578:581   */\n      dup5\n        /* \"#utility.yul\":574:588   */\n      add\n        /* \"#utility.yul\":567:588   */\n      swap4\n      pop\n        /* \"#utility.yul\":617:621   */\n      0x20\n        /* \"#utility.yul\":612:615   */\n      dup4\n        /* \"#utility.yul\":608:622   */\n      add\n        /* \"#utility.yul\":601:622   */\n      swap3\n      pop\n        /* \"#utility.yul\":419:632   */\n      pop\n        /* \"#utility.yul\":406:407   */\n      0x01\n        /* \"#utility.yul\":403:404   */\n      dup2\n        /* \"#utility.yul\":399:408   */\n      add\n        /* \"#utility.yul\":394:408   */\n      swap1\n      pop\n        /* \"#utility.yul\":359:632   */\n      jump(tag_368)\n    tag_370:\n        /* \"#utility.yul\":363:377   */\n      pop\n        /* \"#utility.yul\":135:638   */\n      pop\n      pop\n      swap4\n      swap3\n      pop\n      pop\n      pop\n      jump\t// out\n        /* \"#utility.yul\":676:1348   */\n    tag_373:\n      0x00\n        /* \"#utility.yul\":832:936   */\n      tag_375\n        /* \"#utility.yul\":847:935   */\n      tag_376\n        /* \"#utility.yul\":928:934   */\n      dup5\n        /* \"#utility.yul\":847:935   */\n      tag_377\n      jump\t// in\n    tag_376:\n        /* \"#utility.yul\":832:936   */\n      tag_367\n      jump\t// in\n    tag_375:\n        /* \"#utility.yul\":823:936   */\n      swap1\n      pop\n        /* \"#utility.yul\":956:961   */\n      dup1\n        /* \"#utility.yul\":984:990   */\n      dup4\n        /* \"#utility.yul\":977:982   */\n      dup3\n        /* \"#utility.yul\":970:991   */\n      mstore\n        /* \"#utility.yul\":1010:1014   */\n      0x20\n        /* \"#utility.yul\":1003:1008   */\n      dup3\n        /* \"#utility.yul\":999:1015   */\n      add\n        /* \"#utility.yul\":992:1015   */\n      swap1\n      pop\n        /* \"#utility.yul\":1035:1041   */\n      dup3\n        /* \"#utility.yul\":1066:1067   */\n      0x00\n        /* \"#utility.yul\":1051:1342   */\n    tag_378:\n        /* \"#utility.yul\":1076:1082   */\n      dup6\n        /* \"#utility.yul\":1073:1074   */\n      dup2\n        /* \"#utility.yul\":1070:1083   */\n      lt\n        /* \"#utility.yul\":1051:1342   */\n      iszero\n      tag_380\n      jumpi\n        /* \"#utility.yul\":1161:1164   */\n      dup2\n        /* \"#utility.yul\":1155:1165   */\n      mload\n        /* \"#utility.yul\":1147:1153   */\n      dup6\n        /* \"#utility.yul\":1143:1166   */\n      add\n        /* \"#utility.yul\":1191:1263   */\n      tag_381\n        /* \"#utility.yul\":1259:1262   */\n      dup9\n        /* \"#utility.yul\":1247:1257   */\n      dup3\n        /* \"#utility.yul\":1191:1263   */\n      tag_382\n      jump\t// in\n    tag_381:\n        /* \"#utility.yul\":1186:1189   */\n      dup5\n        /* \"#utility.yul\":1179:1264   */\n      mstore\n        /* \"#utility.yul\":1293:1297   */\n      0x20\n        /* \"#utility.yul\":1288:1291   */\n      dup5\n        /* \"#utility.yul\":1284:1298   */\n      add\n        /* \"#utility.yul\":1277:1298   */\n      swap4\n      pop\n        /* \"#utility.yul\":1327:1331   */\n      0x20\n        /* \"#utility.yul\":1322:1325   */\n      dup4\n        /* \"#utility.yul\":1318:1332   */\n      add\n        /* \"#utility.yul\":1311:1332   */\n      swap3\n      pop\n        /* \"#utility.yul\":1111:1342   */\n      pop\n        /* \"#utility.yul\":1098:1099   */\n      0x01\n        /* \"#utility.yul\":1095:1096   */\n      dup2\n        /* \"#utility.yul\":1091:1100   */\n      add\n        /* \"#utility.yul\":1086:1100   */\n      swap1\n      pop\n        /* \"#utility.yul\":1051:1342   */\n      jump(tag_378)\n    tag_380:\n        /* \"#utility.yul\":1055:1069   */\n      pop\n        /* \"#utility.yul\":813:1348   */\n      pop\n      pop\n      swap4\n      swap3\n      pop\n      pop\n      pop\n      jump\t// out\n        /* \"#utility.yul\":1354:1698   */\n    tag_383:\n      0x00\n        /* \"#utility.yul\":1457:1522   */\n      tag_385\n        /* \"#utility.yul\":1472:1521   */\n      tag_386\n        /* \"#utility.yul\":1514:1520   */\n      dup5\n        /* \"#utility.yul\":1472:1521   */\n      tag_387\n      jump\t// in\n    tag_386:\n        /* \"#utility.yul\":1457:1522   */\n      tag_367\n      jump\t// in\n    tag_385:\n        /* \"#utility.yul\":1448:1522   */\n      swap1\n      pop\n        /* \"#utility.yul\":1545:1551   */\n      dup3\n        /* \"#utility.yul\":1538:1543   */\n      dup2\n        /* \"#utility.yul\":1531:1552   */\n      mstore\n        /* \"#utility.yul\":1583:1587   */\n      0x20\n        /* \"#utility.yul\":1576:1581   */\n      dup2\n        /* \"#utility.yul\":1572:1588   */\n      add\n        /* \"#utility.yul\":1621:1624   */\n      dup5\n        /* \"#utility.yul\":1612:1618   */\n      dup5\n        /* \"#utility.yul\":1607:1610   */\n      dup5\n        /* \"#utility.yul\":1603:1619   */\n      add\n        /* \"#utility.yul\":1600:1625   */\n      gt\n        /* \"#utility.yul\":1597:1599   */\n      iszero\n      tag_388\n      jumpi\n        /* \"#utility.yul\":1638:1639   */\n      0x00\n        /* \"#utility.yul\":1635:1636   */\n      dup1\n        /* \"#utility.yul\":1628:1640   */\n      revert\n        /* \"#utility.yul\":1597:1599   */\n    tag_388:\n        /* \"#utility.yul\":1651:1692   */\n      tag_389\n        /* \"#utility.yul\":1685:1691   */\n      dup5\n        /* \"#utility.yul\":1680:1683   */\n      dup3\n        /* \"#utility.yul\":1675:1678   */\n      dup6\n        /* \"#utility.yul\":1651:1692   */\n      tag_390\n      jump\t// in\n    tag_389:\n        /* \"#utility.yul\":1438:1698   */\n      pop\n      swap4\n      swap3\n      pop\n      pop\n      pop\n      jump\t// out\n        /* \"#utility.yul\":1704:2057   */\n    tag_391:\n      0x00\n        /* \"#utility.yul\":1818:1883   */\n      tag_393\n        /* \"#utility.yul\":1833:1882   */\n      tag_394\n        /* \"#utility.yul\":1875:1881   */\n      dup5\n        /* \"#utility.yul\":1833:1882   */\n      tag_387\n      jump\t// in\n    tag_394:\n        /* \"#utility.yul\":1818:1883   */\n      tag_367\n      jump\t// in\n    tag_393:\n        /* \"#utility.yul\":1809:1883   */\n      swap1\n      pop\n        /* \"#utility.yul\":1906:1912   */\n      dup3\n        /* \"#utility.yul\":1899:1904   */\n      dup2\n        /* \"#utility.yul\":1892:1913   */\n      mstore\n        /* \"#utility.yul\":1944:1948   */\n      0x20\n        /* \"#utility.yul\":1937:1942   */\n      dup2\n        /* \"#utility.yul\":1933:1949   */\n      add\n        /* \"#utility.yul\":1982:1985   */\n      dup5\n        /* \"#utility.yul\":1973:1979   */\n      dup5\n        /* \"#utility.yul\":1968:1971   */\n      dup5\n        /* \"#utility.yul\":1964:1980   */\n      add\n        /* \"#utility.yul\":1961:1986   */\n      gt\n        /* \"#utility.yul\":1958:1960   */\n      iszero\n      tag_395\n      jumpi\n        /* \"#utility.yul\":1999:2000   */\n      0x00\n        /* \"#utility.yul\":1996:1997   */\n      dup1\n        /* \"#utility.yul\":1989:2001   */\n      revert\n        /* \"#utility.yul\":1958:1960   */\n    tag_395:\n        /* \"#utility.yul\":2012:2051   */\n      tag_396\n        /* \"#utility.yul\":2044:2050   */\n      dup5\n        /* \"#utility.yul\":2039:2042   */\n      dup3\n        /* \"#utility.yul\":2034:2037   */\n      dup6\n        /* \"#utility.yul\":2012:2051   */\n      tag_397\n      jump\t// in\n    tag_396:\n        /* \"#utility.yul\":1799:2057   */\n      pop\n      swap4\n      swap3\n      pop\n      pop\n      pop\n      jump\t// out\n        /* \"#utility.yul\":2063:2202   */\n    tag_398:\n      0x00\n        /* \"#utility.yul\":2147:2153   */\n      dup2\n        /* \"#utility.yul\":2134:2154   */\n      calldataload\n        /* \"#utility.yul\":2125:2154   */\n      swap1\n      pop\n        /* \"#utility.yul\":2163:2196   */\n      tag_400\n        /* \"#utility.yul\":2190:2195   */\n      dup2\n        /* \"#utility.yul\":2163:2196   */\n      tag_401\n      jump\t// in\n    tag_400:\n        /* \"#utility.yul\":2115:2202   */\n      swap3\n      swap2\n      pop\n      pop\n      jump\t// out\n        /* \"#utility.yul\":2208:2351   */\n    tag_402:\n      0x00\n        /* \"#utility.yul\":2296:2302   */\n      dup2\n        /* \"#utility.yul\":2290:2303   */\n      mload\n        /* \"#utility.yul\":2281:2303   */\n      swap1\n      pop\n        /* \"#utility.yul\":2312:2345   */\n      tag_404\n        /* \"#utility.yul\":2339:2344   */\n      dup2\n        /* \"#utility.yul\":2312:2345   */\n      tag_401\n      jump\t// in\n    tag_404:\n        /* \"#utility.yul\":2271:2351   */\n      swap3\n      swap2\n      pop\n      pop\n      jump\t// out\n        /* \"#utility.yul\":2373:2696   */\n    tag_405:\n      0x00\n        /* \"#utility.yul\":2503:2506   */\n      dup3\n        /* \"#utility.yul\":2496:2500   */\n      0x1f\n        /* \"#utility.yul\":2488:2494   */\n      dup4\n        /* \"#utility.yul\":2484:2501   */\n      add\n        /* \"#utility.yul\":2480:2507   */\n      slt\n        /* \"#utility.yul\":2470:2472   */\n      tag_407\n      jumpi\n        /* \"#utility.yul\":2521:2522   */\n      0x00\n        /* \"#utility.yul\":2518:2519   */\n      dup1\n        /* \"#utility.yul\":2511:2523   */\n      revert\n        /* \"#utility.yul\":2470:2472   */\n    tag_407:\n        /* \"#utility.yul\":2561:2567   */\n      dup2\n        /* \"#utility.yul\":2548:2568   */\n      calldataload\n        /* \"#utility.yul\":2586:2690   */\n      tag_408\n        /* \"#utility.yul\":2686:2689   */\n      dup5\n        /* \"#utility.yul\":2678:2684   */\n      dup3\n        /* \"#utility.yul\":2671:2675   */\n      0x20\n        /* \"#utility.yul\":2663:2669   */\n      dup7\n        /* \"#utility.yul\":2659:2676   */\n      add\n        /* \"#utility.yul\":2586:2690   */\n      tag_362\n      jump\t// in\n    tag_408:\n        /* \"#utility.yul\":2577:2690   */\n      swap2\n      pop\n        /* \"#utility.yul\":2460:2696   */\n      pop\n      swap3\n      swap2\n      pop\n      pop\n      jump\t// out\n        /* \"#utility.yul\":2734:3100   */\n    tag_409:\n      0x00\n        /* \"#utility.yul\":2889:2892   */\n      dup3\n        /* \"#utility.yul\":2882:2886   */\n      0x1f\n        /* \"#utility.yul\":2874:2880   */\n      dup4\n        /* \"#utility.yul\":2870:2887   */\n      add\n        /* \"#utility.yul\":2866:2893   */\n      slt\n        /* \"#utility.yul\":2856:2858   */\n      tag_411\n      jumpi\n        /* \"#utility.yul\":2907:2908   */\n      0x00\n        /* \"#utility.yul\":2904:2905   */\n      dup1\n        /* \"#utility.yul\":2897:2909   */\n      revert\n        /* \"#utility.yul\":2856:2858   */\n    tag_411:\n        /* \"#utility.yul\":2940:2946   */\n      dup2\n        /* \"#utility.yul\":2934:2947   */\n      mload\n        /* \"#utility.yul\":2965:3094   */\n      tag_412\n        /* \"#utility.yul\":3090:3093   */\n      dup5\n        /* \"#utility.yul\":3082:3088   */\n      dup3\n        /* \"#utility.yul\":3075:3079   */\n      0x20\n        /* \"#utility.yul\":3067:3073   */\n      dup7\n        /* \"#utility.yul\":3063:3080   */\n      add\n        /* \"#utility.yul\":2965:3094   */\n      tag_373\n      jump\t// in\n    tag_412:\n        /* \"#utility.yul\":2956:3094   */\n      swap2\n      pop\n        /* \"#utility.yul\":2846:3100   */\n      pop\n      swap3\n      swap2\n      pop\n      pop\n      jump\t// out\n        /* \"#utility.yul\":3120:3393   */\n    tag_372:\n      0x00\n        /* \"#utility.yul\":3225:3228   */\n      dup3\n        /* \"#utility.yul\":3218:3222   */\n      0x1f\n        /* \"#utility.yul\":3210:3216   */\n      dup4\n        /* \"#utility.yul\":3206:3223   */\n      add\n        /* \"#utility.yul\":3202:3229   */\n      slt\n        /* \"#utility.yul\":3192:3194   */\n      tag_414\n      jumpi\n        /* \"#utility.yul\":3243:3244   */\n      0x00\n        /* \"#utility.yul\":3240:3241   */\n      dup1\n        /* \"#utility.yul\":3233:3245   */\n      revert\n        /* \"#utility.yul\":3192:3194   */\n    tag_414:\n        /* \"#utility.yul\":3283:3289   */\n      dup2\n        /* \"#utility.yul\":3270:3290   */\n      calldataload\n        /* \"#utility.yul\":3308:3387   */\n      tag_415\n        /* \"#utility.yul\":3383:3386   */\n      dup5\n        /* \"#utility.yul\":3375:3381   */\n      dup3\n        /* \"#utility.yul\":3368:3372   */\n      0x20\n        /* \"#utility.yul\":3360:3366   */\n      dup7\n        /* \"#utility.yul\":3356:3373   */\n      add\n        /* \"#utility.yul\":3308:3387   */\n      tag_383\n      jump\t// in\n    tag_415:\n        /* \"#utility.yul\":3299:3387   */\n      swap2\n      pop\n        /* \"#utility.yul\":3182:3393   */\n      pop\n      swap3\n      swap2\n      pop\n      pop\n      jump\t// out\n        /* \"#utility.yul\":3413:3701   */\n    tag_416:\n      0x00\n        /* \"#utility.yul\":3529:3532   */\n      dup3\n        /* \"#utility.yul\":3522:3526   */\n      0x1f\n        /* \"#utility.yul\":3514:3520   */\n      dup4\n        /* \"#utility.yul\":3510:3527   */\n      add\n        /* \"#utility.yul\":3506:3533   */\n      slt\n        /* \"#utility.yul\":3496:3498   */\n      tag_418\n      jumpi\n        /* \"#utility.yul\":3547:3548   */\n      0x00\n        /* \"#utility.yul\":3544:3545   */\n      dup1\n        /* \"#utility.yul\":3537:3549   */\n      revert\n        /* \"#utility.yul\":3496:3498   */\n    tag_418:\n        /* \"#utility.yul\":3580:3586   */\n      dup2\n        /* \"#utility.yul\":3574:3587   */\n      mload\n        /* \"#utility.yul\":3605:3695   */\n      tag_419\n        /* \"#utility.yul\":3691:3694   */\n      dup5\n        /* \"#utility.yul\":3683:3689   */\n      dup3\n        /* \"#utility.yul\":3676:3680   */\n      0x20\n        /* \"#utility.yul\":3668:3674   */\n      dup7\n        /* \"#utility.yul\":3664:3681   */\n      add\n        /* \"#utility.yul\":3605:3695   */\n      tag_391\n      jump\t// in\n    tag_419:\n        /* \"#utility.yul\":3596:3695   */\n      swap2\n      pop\n        /* \"#utility.yul\":3486:3701   */\n      pop\n      swap3\n      swap2\n      pop\n      pop\n      jump\t// out\n        /* \"#utility.yul\":3737:4376   */\n    tag_382:\n      0x00\n        /* \"#utility.yul\":3865:3869   */\n      0x40\n        /* \"#utility.yul\":3853:3862   */\n      dup3\n        /* \"#utility.yul\":3848:3851   */\n      dup5\n        /* \"#utility.yul\":3844:3863   */\n      sub\n        /* \"#utility.yul\":3840:3870   */\n      slt\n        /* \"#utility.yul\":3837:3839   */\n      iszero\n      tag_421\n      jumpi\n        /* \"#utility.yul\":3883:3884   */\n      0x00\n        /* \"#utility.yul\":3880:3881   */\n      dup1\n        /* \"#utility.yul\":3873:3885   */\n      revert\n        /* \"#utility.yul\":3837:3839   */\n    tag_421:\n        /* \"#utility.yul\":3905:3925   */\n      tag_422\n        /* \"#utility.yul\":3920:3924   */\n      0x40\n        /* \"#utility.yul\":3905:3925   */\n      tag_367\n      jump\t// in\n    tag_422:\n        /* \"#utility.yul\":3896:3925   */\n      swap1\n      pop\n        /* \"#utility.yul\":4005:4006   */\n      0x00\n        /* \"#utility.yul\":3994:4003   */\n      dup3\n        /* \"#utility.yul\":3990:4007   */\n      add\n        /* \"#utility.yul\":3984:4008   */\n      mload\n        /* \"#utility.yul\":4035:4053   */\n      0xffffffffffffffff\n        /* \"#utility.yul\":4027:4033   */\n      dup2\n        /* \"#utility.yul\":4024:4054   */\n      gt\n        /* \"#utility.yul\":4021:4023   */\n      iszero\n      tag_423\n      jumpi\n        /* \"#utility.yul\":4067:4068   */\n      0x00\n        /* \"#utility.yul\":4064:4065   */\n      dup1\n        /* \"#utility.yul\":4057:4069   */\n      revert\n        /* \"#utility.yul\":4021:4023   */\n    tag_423:\n        /* \"#utility.yul\":4110:4180   */\n      tag_424\n        /* \"#utility.yul\":4176:4179   */\n      dup5\n        /* \"#utility.yul\":4167:4173   */\n      dup3\n        /* \"#utility.yul\":4156:4165   */\n      dup6\n        /* \"#utility.yul\":4152:4174   */\n      add\n        /* \"#utility.yul\":4110:4180   */\n      tag_416\n      jump\t// in\n    tag_424:\n        /* \"#utility.yul\":4103:4107   */\n      0x00\n        /* \"#utility.yul\":4096:4101   */\n      dup4\n        /* \"#utility.yul\":4092:4108   */\n      add\n        /* \"#utility.yul\":4085:4181   */\n      mstore\n        /* \"#utility.yul\":3935:4192   */\n      pop\n        /* \"#utility.yul\":4256:4258   */\n      0x20\n        /* \"#utility.yul\":4297:4357   */\n      tag_425\n        /* \"#utility.yul\":4353:4356   */\n      dup5\n        /* \"#utility.yul\":4344:4350   */\n      dup3\n        /* \"#utility.yul\":4333:4342   */\n      dup6\n        /* \"#utility.yul\":4329:4351   */\n      add\n        /* \"#utility.yul\":4297:4357   */\n      tag_426\n      jump\t// in\n    tag_425:\n        /* \"#utility.yul\":4290:4294   */\n      0x20\n        /* \"#utility.yul\":4283:4288   */\n      dup4\n        /* \"#utility.yul\":4279:4295   */\n      add\n        /* \"#utility.yul\":4272:4358   */\n      mstore\n        /* \"#utility.yul\":4202:4369   */\n      pop\n        /* \"#utility.yul\":3827:4376   */\n      swap3\n      swap2\n      pop\n      pop\n      jump\t// out\n        /* \"#utility.yul\":4382:4521   */\n    tag_427:\n      0x00\n        /* \"#utility.yul\":4466:4472   */\n      dup2\n        /* \"#utility.yul\":4453:4473   */\n      calldataload\n        /* \"#utility.yul\":4444:4473   */\n      swap1\n      pop\n        /* \"#utility.yul\":4482:4515   */\n      tag_429\n        /* \"#utility.yul\":4509:4514   */\n      dup2\n        /* \"#utility.yul\":4482:4515   */\n      tag_430\n      jump\t// in\n    tag_429:\n        /* \"#utility.yul\":4434:4521   */\n      swap3\n      swap2\n      pop\n      pop\n      jump\t// out\n        /* \"#utility.yul\":4527:4670   */\n    tag_426:\n      0x00\n        /* \"#utility.yul\":4615:4621   */\n      dup2\n        /* \"#utility.yul\":4609:4622   */\n      mload\n        /* \"#utility.yul\":4600:4622   */\n      swap1\n      pop\n        /* \"#utility.yul\":4631:4664   */\n      tag_432\n        /* \"#utility.yul\":4658:4663   */\n      dup2\n        /* \"#utility.yul\":4631:4664   */\n      tag_430\n      jump\t// in\n    tag_432:\n        /* \"#utility.yul\":4590:4670   */\n      swap3\n      swap2\n      pop\n      pop\n      jump\t// out\n        /* \"#utility.yul\":4676:4938   */\n    tag_122:\n      0x00\n        /* \"#utility.yul\":4784:4786   */\n      0x20\n        /* \"#utility.yul\":4772:4781   */\n      dup3\n        /* \"#utility.yul\":4763:4770   */\n      dup5\n        /* \"#utility.yul\":4759:4782   */\n      sub\n        /* \"#utility.yul\":4755:4787   */\n      slt\n        /* \"#utility.yul\":4752:4754   */\n      iszero\n      tag_434\n      jumpi\n        /* \"#utility.yul\":4800:4801   */\n      0x00\n        /* \"#utility.yul\":4797:4798   */\n      dup1\n        /* \"#utility.yul\":4790:4802   */\n      revert\n        /* \"#utility.yul\":4752:4754   */\n    tag_434:\n        /* \"#utility.yul\":4843:4844   */\n      0x00\n        /* \"#utility.yul\":4868:4921   */\n      tag_435\n        /* \"#utility.yul\":4913:4920   */\n      dup5\n        /* \"#utility.yul\":4904:4910   */\n      dup3\n        /* \"#utility.yul\":4893:4902   */\n      dup6\n        /* \"#utility.yul\":4889:4911   */\n      add\n        /* \"#utility.yul\":4868:4921   */\n      tag_398\n      jump\t// in\n    tag_435:\n        /* \"#utility.yul\":4858:4921   */\n      swap2\n      pop\n        /* \"#utility.yul\":4814:4931   */\n      pop\n        /* \"#utility.yul\":4742:4938   */\n      swap3\n      swap2\n      pop\n      pop\n      jump\t// out\n        /* \"#utility.yul\":4944:5228   */\n    tag_193:\n      0x00\n        /* \"#utility.yul\":5063:5065   */\n      0x20\n        /* \"#utility.yul\":5051:5060   */\n      dup3\n        /* \"#utility.yul\":5042:5049   */\n      dup5\n        /* \"#utility.yul\":5038:5061   */\n      sub\n        /* \"#utility.yul\":5034:5066   */\n      slt\n        /* \"#utility.yul\":5031:5033   */\n      iszero\n      tag_437\n      jumpi\n        /* \"#utility.yul\":5079:5080   */\n      0x00\n        /* \"#utility.yul\":5076:5077   */\n      dup1\n        /* \"#utility.yul\":5069:5081   */\n      revert\n        /* \"#utility.yul\":5031:5033   */\n    tag_437:\n        /* \"#utility.yul\":5122:5123   */\n      0x00\n        /* \"#utility.yul\":5147:5211   */\n      tag_438\n        /* \"#utility.yul\":5203:5210   */\n      dup5\n        /* \"#utility.yul\":5194:5200   */\n      dup3\n        /* \"#utility.yul\":5183:5192   */\n      dup6\n        /* \"#utility.yul\":5179:5201   */\n      add\n        /* \"#utility.yul\":5147:5211   */\n      tag_402\n      jump\t// in\n    tag_438:\n        /* \"#utility.yul\":5137:5211   */\n      swap2\n      pop\n        /* \"#utility.yul\":5093:5221   */\n      pop\n        /* \"#utility.yul\":5021:5228   */\n      swap3\n      swap2\n      pop\n      pop\n      jump\t// out\n        /* \"#utility.yul\":5234:5659   */\n    tag_110:\n      0x00\n        /* \"#utility.yul\":5377:5379   */\n      0x20\n        /* \"#utility.yul\":5365:5374   */\n      dup3\n        /* \"#utility.yul\":5356:5363   */\n      dup5\n        /* \"#utility.yul\":5352:5375   */\n      sub\n        /* \"#utility.yul\":5348:5380   */\n      slt\n        /* \"#utility.yul\":5345:5347   */\n      iszero\n      tag_440\n      jumpi\n        /* \"#utility.yul\":5393:5394   */\n      0x00\n        /* \"#utility.yul\":5390:5391   */\n      dup1\n        /* \"#utility.yul\":5383:5395   */\n      revert\n        /* \"#utility.yul\":5345:5347   */\n    tag_440:\n        /* \"#utility.yul\":5464:5465   */\n      0x00\n        /* \"#utility.yul\":5453:5462   */\n      dup3\n        /* \"#utility.yul\":5449:5466   */\n      add\n        /* \"#utility.yul\":5436:5467   */\n      calldataload\n        /* \"#utility.yul\":5494:5512   */\n      0xffffffffffffffff\n        /* \"#utility.yul\":5486:5492   */\n      dup2\n        /* \"#utility.yul\":5483:5513   */\n      gt\n        /* \"#utility.yul\":5480:5482   */\n      iszero\n      tag_441\n      jumpi\n        /* \"#utility.yul\":5526:5527   */\n      0x00\n        /* \"#utility.yul\":5523:5524   */\n      dup1\n        /* \"#utility.yul\":5516:5528   */\n      revert\n        /* \"#utility.yul\":5480:5482   */\n    tag_441:\n        /* \"#utility.yul\":5554:5642   */\n      tag_442\n        /* \"#utility.yul\":5634:5641   */\n      dup5\n        /* \"#utility.yul\":5625:5631   */\n      dup3\n        /* \"#utility.yul\":5614:5623   */\n      dup6\n        /* \"#utility.yul\":5610:5632   */\n      add\n        /* \"#utility.yul\":5554:5642   */\n      tag_405\n      jump\t// in\n    tag_442:\n        /* \"#utility.yul\":5544:5642   */\n      swap2\n      pop\n        /* \"#utility.yul\":5407:5652   */\n      pop\n        /* \"#utility.yul\":5335:5659   */\n      swap3\n      swap2\n      pop\n      pop\n      jump\t// out\n        /* \"#utility.yul\":5665:6133   */\n    tag_184:\n      0x00\n        /* \"#utility.yul\":5833:5835   */\n      0x20\n        /* \"#utility.yul\":5821:5830   */\n      dup3\n        /* \"#utility.yul\":5812:5819   */\n      dup5\n        /* \"#utility.yul\":5808:5831   */\n      sub\n        /* \"#utility.yul\":5804:5836   */\n      slt\n        /* \"#utility.yul\":5801:5803   */\n      iszero\n      tag_444\n      jumpi\n        /* \"#utility.yul\":5849:5850   */\n      0x00\n        /* \"#utility.yul\":5846:5847   */\n      dup1\n        /* \"#utility.yul\":5839:5851   */\n      revert\n        /* \"#utility.yul\":5801:5803   */\n    tag_444:\n        /* \"#utility.yul\":5913:5914   */\n      0x00\n        /* \"#utility.yul\":5902:5911   */\n      dup3\n        /* \"#utility.yul\":5898:5915   */\n      add\n        /* \"#utility.yul\":5892:5916   */\n      mload\n        /* \"#utility.yul\":5943:5961   */\n      0xffffffffffffffff\n        /* \"#utility.yul\":5935:5941   */\n      dup2\n        /* \"#utility.yul\":5932:5962   */\n      gt\n        /* \"#utility.yul\":5929:5931   */\n      iszero\n      tag_445\n      jumpi\n        /* \"#utility.yul\":5975:5976   */\n      0x00\n        /* \"#utility.yul\":5972:5973   */\n      dup1\n        /* \"#utility.yul\":5965:5977   */\n      revert\n        /* \"#utility.yul\":5929:5931   */\n    tag_445:\n        /* \"#utility.yul\":6003:6116   */\n      tag_446\n        /* \"#utility.yul\":6108:6115   */\n      dup5\n        /* \"#utility.yul\":6099:6105   */\n      dup3\n        /* \"#utility.yul\":6088:6097   */\n      dup6\n        /* \"#utility.yul\":6084:6106   */\n      add\n        /* \"#utility.yul\":6003:6116   */\n      tag_409\n      jump\t// in\n    tag_446:\n        /* \"#utility.yul\":5993:6116   */\n      swap2\n      pop\n        /* \"#utility.yul\":5863:6126   */\n      pop\n        /* \"#utility.yul\":5791:6133   */\n      swap3\n      swap2\n      pop\n      pop\n      jump\t// out\n        /* \"#utility.yul\":6139:6529   */\n    tag_254:\n      0x00\n        /* \"#utility.yul\":6268:6270   */\n      0x20\n        /* \"#utility.yul\":6256:6265   */\n      dup3\n        /* \"#utility.yul\":6247:6254   */\n      dup5\n        /* \"#utility.yul\":6243:6266   */\n      sub\n        /* \"#utility.yul\":6239:6271   */\n      slt\n        /* \"#utility.yul\":6236:6238   */\n      iszero\n      tag_448\n      jumpi\n        /* \"#utility.yul\":6284:6285   */\n      0x00\n        /* \"#utility.yul\":6281:6282   */\n      dup1\n        /* \"#utility.yul\":6274:6286   */\n      revert\n        /* \"#utility.yul\":6236:6238   */\n    tag_448:\n        /* \"#utility.yul\":6348:6349   */\n      0x00\n        /* \"#utility.yul\":6337:6346   */\n      dup3\n        /* \"#utility.yul\":6333:6350   */\n      add\n        /* \"#utility.yul\":6327:6351   */\n      mload\n        /* \"#utility.yul\":6378:6396   */\n      0xffffffffffffffff\n        /* \"#utility.yul\":6370:6376   */\n      dup2\n        /* \"#utility.yul\":6367:6397   */\n      gt\n        /* \"#utility.yul\":6364:6366   */\n      iszero\n      tag_449\n      jumpi\n        /* \"#utility.yul\":6410:6411   */\n      0x00\n        /* \"#utility.yul\":6407:6408   */\n      dup1\n        /* \"#utility.yul\":6400:6412   */\n      revert\n        /* \"#utility.yul\":6364:6366   */\n    tag_449:\n        /* \"#utility.yul\":6438:6512   */\n      tag_450\n        /* \"#utility.yul\":6504:6511   */\n      dup5\n        /* \"#utility.yul\":6495:6501   */\n      dup3\n        /* \"#utility.yul\":6484:6493   */\n      dup6\n        /* \"#utility.yul\":6480:6502   */\n      add\n        /* \"#utility.yul\":6438:6512   */\n      tag_416\n      jump\t// in\n    tag_450:\n        /* \"#utility.yul\":6428:6512   */\n      swap2\n      pop\n        /* \"#utility.yul\":6298:6522   */\n      pop\n        /* \"#utility.yul\":6226:6529   */\n      swap3\n      swap2\n      pop\n      pop\n      jump\t// out\n        /* \"#utility.yul\":6535:6953   */\n    tag_349:\n      0x00\n        /* \"#utility.yul\":6678:6680   */\n      0x20\n        /* \"#utility.yul\":6666:6675   */\n      dup3\n        /* \"#utility.yul\":6657:6664   */\n      dup5\n        /* \"#utility.yul\":6653:6676   */\n      sub\n        /* \"#utility.yul\":6649:6681   */\n      slt\n        /* \"#utility.yul\":6646:6648   */\n      iszero\n      tag_452\n      jumpi\n        /* \"#utility.yul\":6694:6695   */\n      0x00\n        /* \"#utility.yul\":6691:6692   */\n      dup1\n        /* \"#utility.yul\":6684:6696   */\n      revert\n        /* \"#utility.yul\":6646:6648   */\n    tag_452:\n        /* \"#utility.yul\":6758:6759   */\n      0x00\n        /* \"#utility.yul\":6747:6756   */\n      dup3\n        /* \"#utility.yul\":6743:6760   */\n      add\n        /* \"#utility.yul\":6737:6761   */\n      mload\n        /* \"#utility.yul\":6788:6806   */\n      0xffffffffffffffff\n        /* \"#utility.yul\":6780:6786   */\n      dup2\n        /* \"#utility.yul\":6777:6807   */\n      gt\n        /* \"#utility.yul\":6774:6776   */\n      iszero\n      tag_453\n      jumpi\n        /* \"#utility.yul\":6820:6821   */\n      0x00\n        /* \"#utility.yul\":6817:6818   */\n      dup1\n        /* \"#utility.yul\":6810:6822   */\n      revert\n        /* \"#utility.yul\":6774:6776   */\n    tag_453:\n        /* \"#utility.yul\":6848:6936   */\n      tag_454\n        /* \"#utility.yul\":6928:6935   */\n      dup5\n        /* \"#utility.yul\":6919:6925   */\n      dup3\n        /* \"#utility.yul\":6908:6917   */\n      dup6\n        /* \"#utility.yul\":6904:6926   */\n      add\n        /* \"#utility.yul\":6848:6936   */\n      tag_382\n      jump\t// in\n    tag_454:\n        /* \"#utility.yul\":6838:6936   */\n      swap2\n      pop\n        /* \"#utility.yul\":6708:6946   */\n      pop\n        /* \"#utility.yul\":6636:6953   */\n      swap3\n      swap2\n      pop\n      pop\n      jump\t// out\n        /* \"#utility.yul\":6959:7221   */\n    tag_44:\n      0x00\n        /* \"#utility.yul\":7067:7069   */\n      0x20\n        /* \"#utility.yul\":7055:7064   */\n      dup3\n        /* \"#utility.yul\":7046:7053   */\n      dup5\n        /* \"#utility.yul\":7042:7065   */\n      sub\n        /* \"#utility.yul\":7038:7070   */\n      slt\n        /* \"#utility.yul\":7035:7037   */\n      iszero\n      tag_456\n      jumpi\n        /* \"#utility.yul\":7083:7084   */\n      0x00\n        /* \"#utility.yul\":7080:7081   */\n      dup1\n        /* \"#utility.yul\":7073:7085   */\n      revert\n        /* \"#utility.yul\":7035:7037   */\n    tag_456:\n        /* \"#utility.yul\":7126:7127   */\n      0x00\n        /* \"#utility.yul\":7151:7204   */\n      tag_457\n        /* \"#utility.yul\":7196:7203   */\n      dup5\n        /* \"#utility.yul\":7187:7193   */\n      dup3\n        /* \"#utility.yul\":7176:7185   */\n      dup6\n        /* \"#utility.yul\":7172:7194   */\n      add\n        /* \"#utility.yul\":7151:7204   */\n      tag_427\n      jump\t// in\n    tag_457:\n        /* \"#utility.yul\":7141:7204   */\n      swap2\n      pop\n        /* \"#utility.yul\":7097:7214   */\n      pop\n        /* \"#utility.yul\":7025:7221   */\n      swap3\n      swap2\n      pop\n      pop\n      jump\t// out\n        /* \"#utility.yul\":7227:7511   */\n    tag_208:\n      0x00\n        /* \"#utility.yul\":7346:7348   */\n      0x20\n        /* \"#utility.yul\":7334:7343   */\n      dup3\n        /* \"#utility.yul\":7325:7332   */\n      dup5\n        /* \"#utility.yul\":7321:7344   */\n      sub\n        /* \"#utility.yul\":7317:7349   */\n      slt\n        /* \"#utility.yul\":7314:7316   */\n      iszero\n      tag_459\n      jumpi\n        /* \"#utility.yul\":7362:7363   */\n      0x00\n        /* \"#utility.yul\":7359:7360   */\n      dup1\n        /* \"#utility.yul\":7352:7364   */\n      revert\n        /* \"#utility.yul\":7314:7316   */\n    tag_459:\n        /* \"#utility.yul\":7405:7406   */\n      0x00\n        /* \"#utility.yul\":7430:7494   */\n      tag_460\n        /* \"#utility.yul\":7486:7493   */\n      dup5\n        /* \"#utility.yul\":7477:7483   */\n      dup3\n        /* \"#utility.yul\":7466:7475   */\n      dup6\n        /* \"#utility.yul\":7462:7484   */\n      add\n        /* \"#utility.yul\":7430:7494   */\n      tag_426\n      jump\t// in\n    tag_460:\n        /* \"#utility.yul\":7420:7494   */\n      swap2\n      pop\n        /* \"#utility.yul\":7376:7504   */\n      pop\n        /* \"#utility.yul\":7304:7511   */\n      swap3\n      swap2\n      pop\n      pop\n      jump\t// out\n        /* \"#utility.yul\":7517:7924   */\n    tag_141:\n      0x00\n      dup1\n        /* \"#utility.yul\":7642:7644   */\n      0x40\n        /* \"#utility.yul\":7630:7639   */\n      dup4\n        /* \"#utility.yul\":7621:7628   */\n      dup6\n        /* \"#utility.yul\":7617:7640   */\n      sub\n        /* \"#utility.yul\":7613:7645   */\n      slt\n        /* \"#utility.yul\":7610:7612   */\n      iszero\n      tag_462\n      jumpi\n        /* \"#utility.yul\":7658:7659   */\n      0x00\n        /* \"#utility.yul\":7655:7656   */\n      dup1\n        /* \"#utility.yul\":7648:7660   */\n      revert\n        /* \"#utility.yul\":7610:7612   */\n    tag_462:\n        /* \"#utility.yul\":7701:7702   */\n      0x00\n        /* \"#utility.yul\":7726:7779   */\n      tag_463\n        /* \"#utility.yul\":7771:7778   */\n      dup6\n        /* \"#utility.yul\":7762:7768   */\n      dup3\n        /* \"#utility.yul\":7751:7760   */\n      dup7\n        /* \"#utility.yul\":7747:7769   */\n      add\n        /* \"#utility.yul\":7726:7779   */\n      tag_427\n      jump\t// in\n    tag_463:\n        /* \"#utility.yul\":7716:7779   */\n      swap3\n      pop\n        /* \"#utility.yul\":7672:7789   */\n      pop\n        /* \"#utility.yul\":7828:7830   */\n      0x20\n        /* \"#utility.yul\":7854:7907   */\n      tag_464\n        /* \"#utility.yul\":7899:7906   */\n      dup6\n        /* \"#utility.yul\":7890:7896   */\n      dup3\n        /* \"#utility.yul\":7879:7888   */\n      dup7\n        /* \"#utility.yul\":7875:7897   */\n      add\n        /* \"#utility.yul\":7854:7907   */\n      tag_398\n      jump\t// in\n    tag_464:\n        /* \"#utility.yul\":7844:7907   */\n      swap2\n      pop\n        /* \"#utility.yul\":7799:7917   */\n      pop\n        /* \"#utility.yul\":7600:7924   */\n      swap3\n      pop\n      swap3\n      swap1\n      pop\n      jump\t// out\n        /* \"#utility.yul\":7930:8500   */\n    tag_95:\n      0x00\n      dup1\n        /* \"#utility.yul\":8090:8092   */\n      0x40\n        /* \"#utility.yul\":8078:8087   */\n      dup4\n        /* \"#utility.yul\":8069:8076   */\n      dup6\n        /* \"#utility.yul\":8065:8088   */\n      sub\n        /* \"#utility.yul\":8061:8093   */\n      slt\n        /* \"#utility.yul\":8058:8060   */\n      iszero\n      tag_466\n      jumpi\n        /* \"#utility.yul\":8106:8107   */\n      0x00\n        /* \"#utility.yul\":8103:8104   */\n      dup1\n        /* \"#utility.yul\":8096:8108   */\n      revert\n        /* \"#utility.yul\":8058:8060   */\n    tag_466:\n        /* \"#utility.yul\":8149:8150   */\n      0x00\n        /* \"#utility.yul\":8174:8227   */\n      tag_467\n        /* \"#utility.yul\":8219:8226   */\n      dup6\n        /* \"#utility.yul\":8210:8216   */\n      dup3\n        /* \"#utility.yul\":8199:8208   */\n      dup7\n        /* \"#utility.yul\":8195:8217   */\n      add\n        /* \"#utility.yul\":8174:8227   */\n      tag_427\n      jump\t// in\n    tag_467:\n        /* \"#utility.yul\":8164:8227   */\n      swap3\n      pop\n        /* \"#utility.yul\":8120:8237   */\n      pop\n        /* \"#utility.yul\":8304:8306   */\n      0x20\n        /* \"#utility.yul\":8293:8302   */\n      dup4\n        /* \"#utility.yul\":8289:8307   */\n      add\n        /* \"#utility.yul\":8276:8308   */\n      calldataload\n        /* \"#utility.yul\":8335:8353   */\n      0xffffffffffffffff\n        /* \"#utility.yul\":8327:8333   */\n      dup2\n        /* \"#utility.yul\":8324:8354   */\n      gt\n        /* \"#utility.yul\":8321:8323   */\n      iszero\n      tag_468\n      jumpi\n        /* \"#utility.yul\":8367:8368   */\n      0x00\n        /* \"#utility.yul\":8364:8365   */\n      dup1\n        /* \"#utility.yul\":8357:8369   */\n      revert\n        /* \"#utility.yul\":8321:8323   */\n    tag_468:\n        /* \"#utility.yul\":8395:8483   */\n      tag_469\n        /* \"#utility.yul\":8475:8482   */\n      dup6\n        /* \"#utility.yul\":8466:8472   */\n      dup3\n        /* \"#utility.yul\":8455:8464   */\n      dup7\n        /* \"#utility.yul\":8451:8473   */\n      add\n        /* \"#utility.yul\":8395:8483   */\n      tag_405\n      jump\t// in\n    tag_469:\n        /* \"#utility.yul\":8385:8483   */\n      swap2\n      pop\n        /* \"#utility.yul\":8247:8493   */\n      pop\n        /* \"#utility.yul\":8048:8500   */\n      swap3\n      pop\n      swap3\n      swap1\n      pop\n      jump\t// out\n        /* \"#utility.yul\":8506:8913   */\n    tag_83:\n      0x00\n      dup1\n        /* \"#utility.yul\":8631:8633   */\n      0x40\n        /* \"#utility.yul\":8619:8628   */\n      dup4\n        /* \"#utility.yul\":8610:8617   */\n      dup6\n        /* \"#utility.yul\":8606:8629   */\n      sub\n        /* \"#utility.yul\":8602:8634   */\n      slt\n        /* \"#utility.yul\":8599:8601   */\n      iszero\n      tag_471\n      jumpi\n        /* \"#utility.yul\":8647:8648   */\n      0x00\n        /* \"#utility.yul\":8644:8645   */\n      dup1\n        /* \"#utility.yul\":8637:8649   */\n      revert\n        /* \"#utility.yul\":8599:8601   */\n    tag_471:\n        /* \"#utility.yul\":8690:8691   */\n      0x00\n        /* \"#utility.yul\":8715:8768   */\n      tag_472\n        /* \"#utility.yul\":8760:8767   */\n      dup6\n        /* \"#utility.yul\":8751:8757   */\n      dup3\n        /* \"#utility.yul\":8740:8749   */\n      dup7\n        /* \"#utility.yul\":8736:8758   */\n      add\n        /* \"#utility.yul\":8715:8768   */\n      tag_427\n      jump\t// in\n    tag_472:\n        /* \"#utility.yul\":8705:8768   */\n      swap3\n      pop\n        /* \"#utility.yul\":8661:8778   */\n      pop\n        /* \"#utility.yul\":8817:8819   */\n      0x20\n        /* \"#utility.yul\":8843:8896   */\n      tag_473\n        /* \"#utility.yul\":8888:8895   */\n      dup6\n        /* \"#utility.yul\":8879:8885   */\n      dup3\n        /* \"#utility.yul\":8868:8877   */\n      dup7\n        /* \"#utility.yul\":8864:8886   */\n      add\n        /* \"#utility.yul\":8843:8896   */\n      tag_427\n      jump\t// in\n    tag_473:\n        /* \"#utility.yul\":8833:8896   */\n      swap2\n      pop\n        /* \"#utility.yul\":8788:8906   */\n      pop\n        /* \"#utility.yul\":8589:8913   */\n      swap3\n      pop\n      swap3\n      swap1\n      pop\n      jump\t// out\n        /* \"#utility.yul\":8919:9115   */\n    tag_474:\n      0x00\n        /* \"#utility.yul\":9043:9109   */\n      tag_476\n        /* \"#utility.yul\":9105:9108   */\n      dup4\n        /* \"#utility.yul\":9097:9103   */\n      dup4\n        /* \"#utility.yul\":9043:9109   */\n      tag_477\n      jump\t// in\n    tag_476:\n        /* \"#utility.yul\":9029:9109   */\n      swap1\n      pop\n        /* \"#utility.yul\":9019:9115   */\n      swap3\n      swap2\n      pop\n      pop\n      jump\t// out\n        /* \"#utility.yul\":9121:9373   */\n    tag_478:\n      0x00\n        /* \"#utility.yul\":9273:9367   */\n      tag_480\n        /* \"#utility.yul\":9363:9366   */\n      dup4\n        /* \"#utility.yul\":9355:9361   */\n      dup4\n        /* \"#utility.yul\":9273:9367   */\n      tag_481\n      jump\t// in\n    tag_480:\n        /* \"#utility.yul\":9259:9367   */\n      swap1\n      pop\n        /* \"#utility.yul\":9249:9373   */\n      swap3\n      swap2\n      pop\n      pop\n      jump\t// out\n        /* \"#utility.yul\":9379:9497   */\n    tag_482:\n        /* \"#utility.yul\":9466:9490   */\n      tag_484\n        /* \"#utility.yul\":9484:9489   */\n      dup2\n        /* \"#utility.yul\":9466:9490   */\n      tag_485\n      jump\t// in\n    tag_484:\n        /* \"#utility.yul\":9461:9464   */\n      dup3\n        /* \"#utility.yul\":9454:9491   */\n      mstore\n        /* \"#utility.yul\":9444:9497   */\n      pop\n      pop\n      jump\t// out\n        /* \"#utility.yul\":9531:10522   */\n    tag_486:\n      0x00\n        /* \"#utility.yul\":9699:9763   */\n      tag_488\n        /* \"#utility.yul\":9757:9762   */\n      dup3\n        /* \"#utility.yul\":9699:9763   */\n      tag_489\n      jump\t// in\n    tag_488:\n        /* \"#utility.yul\":9779:9875   */\n      tag_490\n        /* \"#utility.yul\":9868:9874   */\n      dup2\n        /* \"#utility.yul\":9863:9866   */\n      dup6\n        /* \"#utility.yul\":9779:9875   */\n      tag_491\n      jump\t// in\n    tag_490:\n        /* \"#utility.yul\":9772:9875   */\n      swap4\n      pop\n        /* \"#utility.yul\":9901:9904   */\n      dup4\n        /* \"#utility.yul\":9946:9950   */\n      0x20\n        /* \"#utility.yul\":9938:9944   */\n      dup3\n        /* \"#utility.yul\":9934:9951   */\n      mul\n        /* \"#utility.yul\":9929:9932   */\n      dup6\n        /* \"#utility.yul\":9925:9952   */\n      add\n        /* \"#utility.yul\":9976:10042   */\n      tag_492\n        /* \"#utility.yul\":10036:10041   */\n      dup6\n        /* \"#utility.yul\":9976:10042   */\n      tag_493\n      jump\t// in\n    tag_492:\n        /* \"#utility.yul\":10065:10072   */\n      dup1\n        /* \"#utility.yul\":10096:10097   */\n      0x00\n        /* \"#utility.yul\":10081:10477   */\n    tag_494:\n        /* \"#utility.yul\":10106:10112   */\n      dup6\n        /* \"#utility.yul\":10103:10104   */\n      dup2\n        /* \"#utility.yul\":10100:10113   */\n      lt\n        /* \"#utility.yul\":10081:10477   */\n      iszero\n      tag_496\n      jumpi\n        /* \"#utility.yul\":10177:10186   */\n      dup5\n        /* \"#utility.yul\":10171:10175   */\n      dup5\n        /* \"#utility.yul\":10167:10187   */\n      sub\n        /* \"#utility.yul\":10162:10165   */\n      dup10\n        /* \"#utility.yul\":10155:10188   */\n      mstore\n        /* \"#utility.yul\":10228:10234   */\n      dup2\n        /* \"#utility.yul\":10222:10235   */\n      mload\n        /* \"#utility.yul\":10256:10340   */\n      tag_497\n        /* \"#utility.yul\":10335:10339   */\n      dup6\n        /* \"#utility.yul\":10320:10333   */\n      dup3\n        /* \"#utility.yul\":10256:10340   */\n      tag_474\n      jump\t// in\n    tag_497:\n        /* \"#utility.yul\":10248:10340   */\n      swap5\n      pop\n        /* \"#utility.yul\":10363:10433   */\n      tag_498\n        /* \"#utility.yul\":10426:10432   */\n      dup4\n        /* \"#utility.yul\":10363:10433   */\n      tag_499\n      jump\t// in\n    tag_498:\n        /* \"#utility.yul\":10353:10433   */\n      swap3\n      pop\n        /* \"#utility.yul\":10462:10466   */\n      0x20\n        /* \"#utility.yul\":10457:10460   */\n      dup11\n        /* \"#utility.yul\":10453:10467   */\n      add\n        /* \"#utility.yul\":10446:10467   */\n      swap10\n      pop\n        /* \"#utility.yul\":10141:10477   */\n      pop\n        /* \"#utility.yul\":10128:10129   */\n      0x01\n        /* \"#utility.yul\":10125:10126   */\n      dup2\n        /* \"#utility.yul\":10121:10130   */\n      add\n        /* \"#utility.yul\":10116:10130   */\n      swap1\n      pop\n        /* \"#utility.yul\":10081:10477   */\n      jump(tag_494)\n    tag_496:\n        /* \"#utility.yul\":10085:10099   */\n      pop\n        /* \"#utility.yul\":10493:10497   */\n      dup3\n        /* \"#utility.yul\":10486:10497   */\n      swap8\n      pop\n        /* \"#utility.yul\":10513:10516   */\n      dup8\n        /* \"#utility.yul\":10506:10516   */\n      swap6\n      pop\n        /* \"#utility.yul\":9675:10522   */\n      pop\n      pop\n      pop\n      pop\n      pop\n      swap3\n      swap2\n      pop\n      pop\n      jump\t// out\n        /* \"#utility.yul\":10588:11691   */\n    tag_500:\n      0x00\n        /* \"#utility.yul\":10784:10862   */\n      tag_502\n        /* \"#utility.yul\":10856:10861   */\n      dup3\n        /* \"#utility.yul\":10784:10862   */\n      tag_503\n      jump\t// in\n    tag_502:\n        /* \"#utility.yul\":10878:10988   */\n      tag_504\n        /* \"#utility.yul\":10981:10987   */\n      dup2\n        /* \"#utility.yul\":10976:10979   */\n      dup6\n        /* \"#utility.yul\":10878:10988   */\n      tag_505\n      jump\t// in\n    tag_504:\n        /* \"#utility.yul\":10871:10988   */\n      swap4\n      pop\n        /* \"#utility.yul\":11014:11017   */\n      dup4\n        /* \"#utility.yul\":11059:11063   */\n      0x20\n        /* \"#utility.yul\":11051:11057   */\n      dup3\n        /* \"#utility.yul\":11047:11064   */\n      mul\n        /* \"#utility.yul\":11042:11045   */\n      dup6\n        /* \"#utility.yul\":11038:11065   */\n      add\n        /* \"#utility.yul\":11089:11169   */\n      tag_506\n        /* \"#utility.yul\":11163:11168   */\n      dup6\n        /* \"#utility.yul\":11089:11169   */\n      tag_507\n      jump\t// in\n    tag_506:\n        /* \"#utility.yul\":11192:11199   */\n      dup1\n        /* \"#utility.yul\":11223:11224   */\n      0x00\n        /* \"#utility.yul\":11208:11646   */\n    tag_508:\n        /* \"#utility.yul\":11233:11239   */\n      dup6\n        /* \"#utility.yul\":11230:11231   */\n      dup2\n        /* \"#utility.yul\":11227:11240   */\n      lt\n        /* \"#utility.yul\":11208:11646   */\n      iszero\n      tag_510\n      jumpi\n        /* \"#utility.yul\":11304:11313   */\n      dup5\n        /* \"#utility.yul\":11298:11302   */\n      dup5\n        /* \"#utility.yul\":11294:11314   */\n      sub\n        /* \"#utility.yul\":11289:11292   */\n      dup10\n        /* \"#utility.yul\":11282:11315   */\n      mstore\n        /* \"#utility.yul\":11355:11361   */\n      dup2\n        /* \"#utility.yul\":11349:11362   */\n      mload\n        /* \"#utility.yul\":11383:11495   */\n      tag_511\n        /* \"#utility.yul\":11490:11494   */\n      dup6\n        /* \"#utility.yul\":11475:11488   */\n      dup3\n        /* \"#utility.yul\":11383:11495   */\n      tag_478\n      jump\t// in\n    tag_511:\n        /* \"#utility.yul\":11375:11495   */\n      swap5\n      pop\n        /* \"#utility.yul\":11518:11602   */\n      tag_512\n        /* \"#utility.yul\":11595:11601   */\n      dup4\n        /* \"#utility.yul\":11518:11602   */\n      tag_513\n      jump\t// in\n    tag_512:\n        /* \"#utility.yul\":11508:11602   */\n      swap3\n      pop\n        /* \"#utility.yul\":11631:11635   */\n      0x20\n        /* \"#utility.yul\":11626:11629   */\n      dup11\n        /* \"#utility.yul\":11622:11636   */\n      add\n        /* \"#utility.yul\":11615:11636   */\n      swap10\n      pop\n        /* \"#utility.yul\":11268:11646   */\n      pop\n        /* \"#utility.yul\":11255:11256   */\n      0x01\n        /* \"#utility.yul\":11252:11253   */\n      dup2\n        /* \"#utility.yul\":11248:11257   */\n      add\n        /* \"#utility.yul\":11243:11257   */\n      swap1\n      pop\n        /* \"#utility.yul\":11208:11646   */\n      jump(tag_508)\n    tag_510:\n        /* \"#utility.yul\":11212:11226   */\n      pop\n        /* \"#utility.yul\":11662:11666   */\n      dup3\n        /* \"#utility.yul\":11655:11666   */\n      swap8\n      pop\n        /* \"#utility.yul\":11682:11685   */\n      dup8\n        /* \"#utility.yul\":11675:11685   */\n      swap6\n      pop\n        /* \"#utility.yul\":10760:11691   */\n      pop\n      pop\n      pop\n      pop\n      pop\n      swap3\n      swap2\n      pop\n      pop\n      jump\t// out\n        /* \"#utility.yul\":11697:11806   */\n    tag_514:\n        /* \"#utility.yul\":11778:11799   */\n      tag_516\n        /* \"#utility.yul\":11793:11798   */\n      dup2\n        /* \"#utility.yul\":11778:11799   */\n      tag_517\n      jump\t// in\n    tag_516:\n        /* \"#utility.yul\":11773:11776   */\n      dup3\n        /* \"#utility.yul\":11766:11800   */\n      mstore\n        /* \"#utility.yul\":11756:11806   */\n      pop\n      pop\n      jump\t// out\n        /* \"#utility.yul\":11812:11971   */\n    tag_518:\n        /* \"#utility.yul\":11913:11964   */\n      tag_520\n        /* \"#utility.yul\":11958:11963   */\n      dup2\n        /* \"#utility.yul\":11913:11964   */\n      tag_521\n      jump\t// in\n    tag_520:\n        /* \"#utility.yul\":11908:11911   */\n      dup3\n        /* \"#utility.yul\":11901:11965   */\n      mstore\n        /* \"#utility.yul\":11891:11971   */\n      pop\n      pop\n      jump\t// out\n        /* \"#utility.yul\":11977:12321   */\n    tag_477:\n      0x00\n        /* \"#utility.yul\":12083:12122   */\n      tag_523\n        /* \"#utility.yul\":12116:12121   */\n      dup3\n        /* \"#utility.yul\":12083:12122   */\n      tag_524\n      jump\t// in\n    tag_523:\n        /* \"#utility.yul\":12138:12199   */\n      tag_525\n        /* \"#utility.yul\":12192:12198   */\n      dup2\n        /* \"#utility.yul\":12187:12190   */\n      dup6\n        /* \"#utility.yul\":12138:12199   */\n      tag_526\n      jump\t// in\n    tag_525:\n        /* \"#utility.yul\":12131:12199   */\n      swap4\n      pop\n        /* \"#utility.yul\":12208:12260   */\n      tag_527\n        /* \"#utility.yul\":12253:12259   */\n      dup2\n        /* \"#utility.yul\":12248:12251   */\n      dup6\n        /* \"#utility.yul\":12241:12245   */\n      0x20\n        /* \"#utility.yul\":12234:12239   */\n      dup7\n        /* \"#utility.yul\":12230:12246   */\n      add\n        /* \"#utility.yul\":12208:12260   */\n      tag_397\n      jump\t// in\n    tag_527:\n        /* \"#utility.yul\":12285:12314   */\n      tag_528\n        /* \"#utility.yul\":12307:12313   */\n      dup2\n        /* \"#utility.yul\":12285:12314   */\n      tag_529\n      jump\t// in\n    tag_528:\n        /* \"#utility.yul\":12280:12283   */\n      dup5\n        /* \"#utility.yul\":12276:12315   */\n      add\n        /* \"#utility.yul\":12269:12315   */\n      swap2\n      pop\n        /* \"#utility.yul\":12059:12321   */\n      pop\n      swap3\n      swap2\n      pop\n      pop\n      jump\t// out\n        /* \"#utility.yul\":12327:12691   */\n    tag_530:\n      0x00\n        /* \"#utility.yul\":12443:12482   */\n      tag_532\n        /* \"#utility.yul\":12476:12481   */\n      dup3\n        /* \"#utility.yul\":12443:12482   */\n      tag_524\n      jump\t// in\n    tag_532:\n        /* \"#utility.yul\":12498:12569   */\n      tag_533\n        /* \"#utility.yul\":12562:12568   */\n      dup2\n        /* \"#utility.yul\":12557:12560   */\n      dup6\n        /* \"#utility.yul\":12498:12569   */\n      tag_534\n      jump\t// in\n    tag_533:\n        /* \"#utility.yul\":12491:12569   */\n      swap4\n      pop\n        /* \"#utility.yul\":12578:12630   */\n      tag_535\n        /* \"#utility.yul\":12623:12629   */\n      dup2\n        /* \"#utility.yul\":12618:12621   */\n      dup6\n        /* \"#utility.yul\":12611:12615   */\n      0x20\n        /* \"#utility.yul\":12604:12609   */\n      dup7\n        /* \"#utility.yul\":12600:12616   */\n      add\n        /* \"#utility.yul\":12578:12630   */\n      tag_397\n      jump\t// in\n    tag_535:\n        /* \"#utility.yul\":12655:12684   */\n      tag_536\n        /* \"#utility.yul\":12677:12683   */\n      dup2\n        /* \"#utility.yul\":12655:12684   */\n      tag_529\n      jump\t// in\n    tag_536:\n        /* \"#utility.yul\":12650:12653   */\n      dup5\n        /* \"#utility.yul\":12646:12685   */\n      add\n        /* \"#utility.yul\":12639:12685   */\n      swap2\n      pop\n        /* \"#utility.yul\":12419:12691   */\n      pop\n      swap3\n      swap2\n      pop\n      pop\n      jump\t// out\n        /* \"#utility.yul\":12753:13352   */\n    tag_481:\n      0x00\n        /* \"#utility.yul\":12896:12900   */\n      0x40\n        /* \"#utility.yul\":12891:12894   */\n      dup4\n        /* \"#utility.yul\":12887:12901   */\n      add\n        /* \"#utility.yul\":12983:12987   */\n      0x00\n        /* \"#utility.yul\":12976:12981   */\n      dup4\n        /* \"#utility.yul\":12972:12988   */\n      add\n        /* \"#utility.yul\":12966:12989   */\n      mload\n        /* \"#utility.yul\":13036:13039   */\n      dup5\n        /* \"#utility.yul\":13030:13034   */\n      dup3\n        /* \"#utility.yul\":13026:13040   */\n      sub\n        /* \"#utility.yul\":13019:13023   */\n      0x00\n        /* \"#utility.yul\":13014:13017   */\n      dup7\n        /* \"#utility.yul\":13010:13024   */\n      add\n        /* \"#utility.yul\":13003:13041   */\n      mstore\n        /* \"#utility.yul\":13062:13135   */\n      tag_538\n        /* \"#utility.yul\":13130:13134   */\n      dup3\n        /* \"#utility.yul\":13116:13128   */\n      dup3\n        /* \"#utility.yul\":13062:13135   */\n      tag_477\n      jump\t// in\n    tag_538:\n        /* \"#utility.yul\":13054:13135   */\n      swap2\n      pop\n        /* \"#utility.yul\":12911:13146   */\n      pop\n        /* \"#utility.yul\":13233:13237   */\n      0x20\n        /* \"#utility.yul\":13226:13231   */\n      dup4\n        /* \"#utility.yul\":13222:13238   */\n      add\n        /* \"#utility.yul\":13216:13239   */\n      mload\n        /* \"#utility.yul\":13252:13315   */\n      tag_539\n        /* \"#utility.yul\":13309:13313   */\n      0x20\n        /* \"#utility.yul\":13304:13307   */\n      dup7\n        /* \"#utility.yul\":13300:13314   */\n      add\n        /* \"#utility.yul\":13286:13298   */\n      dup3\n        /* \"#utility.yul\":13252:13315   */\n      tag_540\n      jump\t// in\n    tag_539:\n        /* \"#utility.yul\":13156:13325   */\n      pop\n        /* \"#utility.yul\":13342:13346   */\n      dup1\n        /* \"#utility.yul\":13335:13346   */\n      swap2\n      pop\n        /* \"#utility.yul\":12865:13352   */\n      pop\n      swap3\n      swap2\n      pop\n      pop\n      jump\t// out\n        /* \"#utility.yul\":13414:14023   */\n    tag_541:\n      0x00\n        /* \"#utility.yul\":13567:13571   */\n      0x40\n        /* \"#utility.yul\":13562:13565   */\n      dup4\n        /* \"#utility.yul\":13558:13572   */\n      add\n        /* \"#utility.yul\":13654:13658   */\n      0x00\n        /* \"#utility.yul\":13647:13652   */\n      dup4\n        /* \"#utility.yul\":13643:13659   */\n      add\n        /* \"#utility.yul\":13637:13660   */\n      mload\n        /* \"#utility.yul\":13707:13710   */\n      dup5\n        /* \"#utility.yul\":13701:13705   */\n      dup3\n        /* \"#utility.yul\":13697:13711   */\n      sub\n        /* \"#utility.yul\":13690:13694   */\n      0x00\n        /* \"#utility.yul\":13685:13688   */\n      dup7\n        /* \"#utility.yul\":13681:13695   */\n      add\n        /* \"#utility.yul\":13674:13712   */\n      mstore\n        /* \"#utility.yul\":13733:13806   */\n      tag_543\n        /* \"#utility.yul\":13801:13805   */\n      dup3\n        /* \"#utility.yul\":13787:13799   */\n      dup3\n        /* \"#utility.yul\":13733:13806   */\n      tag_477\n      jump\t// in\n    tag_543:\n        /* \"#utility.yul\":13725:13806   */\n      swap2\n      pop\n        /* \"#utility.yul\":13582:13817   */\n      pop\n        /* \"#utility.yul\":13904:13908   */\n      0x20\n        /* \"#utility.yul\":13897:13902   */\n      dup4\n        /* \"#utility.yul\":13893:13909   */\n      add\n        /* \"#utility.yul\":13887:13910   */\n      mload\n        /* \"#utility.yul\":13923:13986   */\n      tag_544\n        /* \"#utility.yul\":13980:13984   */\n      0x20\n        /* \"#utility.yul\":13975:13978   */\n      dup7\n        /* \"#utility.yul\":13971:13985   */\n      add\n        /* \"#utility.yul\":13957:13969   */\n      dup3\n        /* \"#utility.yul\":13923:13986   */\n      tag_540\n      jump\t// in\n    tag_544:\n        /* \"#utility.yul\":13827:13996   */\n      pop\n        /* \"#utility.yul\":14013:14017   */\n      dup1\n        /* \"#utility.yul\":14006:14017   */\n      swap2\n      pop\n        /* \"#utility.yul\":13536:14023   */\n      pop\n      swap3\n      swap2\n      pop\n      pop\n      jump\t// out\n        /* \"#utility.yul\":14029:14137   */\n    tag_540:\n        /* \"#utility.yul\":14106:14130   */\n      tag_546\n        /* \"#utility.yul\":14124:14129   */\n      dup2\n        /* \"#utility.yul\":14106:14130   */\n      tag_547\n      jump\t// in\n    tag_546:\n        /* \"#utility.yul\":14101:14104   */\n      dup3\n        /* \"#utility.yul\":14094:14131   */\n      mstore\n        /* \"#utility.yul\":14084:14137   */\n      pop\n      pop\n      jump\t// out\n        /* \"#utility.yul\":14143:14261   */\n    tag_548:\n        /* \"#utility.yul\":14230:14254   */\n      tag_550\n        /* \"#utility.yul\":14248:14253   */\n      dup2\n        /* \"#utility.yul\":14230:14254   */\n      tag_547\n      jump\t// in\n    tag_550:\n        /* \"#utility.yul\":14225:14228   */\n      dup3\n        /* \"#utility.yul\":14218:14255   */\n      mstore\n        /* \"#utility.yul\":14208:14261   */\n      pop\n      pop\n      jump\t// out\n        /* \"#utility.yul\":14267:14489   */\n    tag_64:\n      0x00\n        /* \"#utility.yul\":14398:14400   */\n      0x20\n        /* \"#utility.yul\":14387:14396   */\n      dup3\n        /* \"#utility.yul\":14383:14401   */\n      add\n        /* \"#utility.yul\":14375:14401   */\n      swap1\n      pop\n        /* \"#utility.yul\":14411:14482   */\n      tag_552\n        /* \"#utility.yul\":14479:14480   */\n      0x00\n        /* \"#utility.yul\":14468:14477   */\n      dup4\n        /* \"#utility.yul\":14464:14481   */\n      add\n        /* \"#utility.yul\":14455:14461   */\n      dup5\n        /* \"#utility.yul\":14411:14482   */\n      tag_482\n      jump\t// in\n    tag_552:\n        /* \"#utility.yul\":14365:14489   */\n      swap3\n      swap2\n      pop\n      pop\n      jump\t// out\n        /* \"#utility.yul\":14495:14908   */\n    tag_243:\n      0x00\n        /* \"#utility.yul\":14696:14698   */\n      0x20\n        /* \"#utility.yul\":14685:14694   */\n      dup3\n        /* \"#utility.yul\":14681:14699   */\n      add\n        /* \"#utility.yul\":14673:14699   */\n      swap1\n      pop\n        /* \"#utility.yul\":14745:14754   */\n      dup2\n        /* \"#utility.yul\":14739:14743   */\n      dup2\n        /* \"#utility.yul\":14735:14755   */\n      sub\n        /* \"#utility.yul\":14731:14732   */\n      0x00\n        /* \"#utility.yul\":14720:14729   */\n      dup4\n        /* \"#utility.yul\":14716:14733   */\n      add\n        /* \"#utility.yul\":14709:14756   */\n      mstore\n        /* \"#utility.yul\":14773:14901   */\n      tag_554\n        /* \"#utility.yul\":14896:14900   */\n      dup2\n        /* \"#utility.yul\":14887:14893   */\n      dup5\n        /* \"#utility.yul\":14773:14901   */\n      tag_486\n      jump\t// in\n    tag_554:\n        /* \"#utility.yul\":14765:14901   */\n      swap1\n      pop\n        /* \"#utility.yul\":14663:14908   */\n      swap3\n      swap2\n      pop\n      pop\n      jump\t// out\n        /* \"#utility.yul\":14914:15383   */\n    tag_55:\n      0x00\n        /* \"#utility.yul\":15143:15145   */\n      0x20\n        /* \"#utility.yul\":15132:15141   */\n      dup3\n        /* \"#utility.yul\":15128:15146   */\n      add\n        /* \"#utility.yul\":15120:15146   */\n      swap1\n      pop\n        /* \"#utility.yul\":15192:15201   */\n      dup2\n        /* \"#utility.yul\":15186:15190   */\n      dup2\n        /* \"#utility.yul\":15182:15202   */\n      sub\n        /* \"#utility.yul\":15178:15179   */\n      0x00\n        /* \"#utility.yul\":15167:15176   */\n      dup4\n        /* \"#utility.yul\":15163:15180   */\n      add\n        /* \"#utility.yul\":15156:15203   */\n      mstore\n        /* \"#utility.yul\":15220:15376   */\n      tag_556\n        /* \"#utility.yul\":15371:15375   */\n      dup2\n        /* \"#utility.yul\":15362:15368   */\n      dup5\n        /* \"#utility.yul\":15220:15376   */\n      tag_500\n      jump\t// in\n    tag_556:\n        /* \"#utility.yul\":15212:15376   */\n      swap1\n      pop\n        /* \"#utility.yul\":15110:15383   */\n      swap3\n      swap2\n      pop\n      pop\n      jump\t// out\n        /* \"#utility.yul\":15389:15639   */\n    tag_89:\n      0x00\n        /* \"#utility.yul\":15534:15536   */\n      0x20\n        /* \"#utility.yul\":15523:15532   */\n      dup3\n        /* \"#utility.yul\":15519:15537   */\n      add\n        /* \"#utility.yul\":15511:15537   */\n      swap1\n      pop\n        /* \"#utility.yul\":15547:15632   */\n      tag_558\n        /* \"#utility.yul\":15629:15630   */\n      0x00\n        /* \"#utility.yul\":15618:15627   */\n      dup4\n        /* \"#utility.yul\":15614:15631   */\n      add\n        /* \"#utility.yul\":15605:15611   */\n      dup5\n        /* \"#utility.yul\":15547:15632   */\n      tag_518\n      jump\t// in\n    tag_558:\n        /* \"#utility.yul\":15501:15639   */\n      swap3\n      swap2\n      pop\n      pop\n      jump\t// out\n        /* \"#utility.yul\":15645:15958   */\n    tag_101:\n      0x00\n        /* \"#utility.yul\":15796:15798   */\n      0x20\n        /* \"#utility.yul\":15785:15794   */\n      dup3\n        /* \"#utility.yul\":15781:15799   */\n      add\n        /* \"#utility.yul\":15773:15799   */\n      swap1\n      pop\n        /* \"#utility.yul\":15845:15854   */\n      dup2\n        /* \"#utility.yul\":15839:15843   */\n      dup2\n        /* \"#utility.yul\":15835:15855   */\n      sub\n        /* \"#utility.yul\":15831:15832   */\n      0x00\n        /* \"#utility.yul\":15820:15829   */\n      dup4\n        /* \"#utility.yul\":15816:15833   */\n      add\n        /* \"#utility.yul\":15809:15856   */\n      mstore\n        /* \"#utility.yul\":15873:15951   */\n      tag_560\n        /* \"#utility.yul\":15946:15950   */\n      dup2\n        /* \"#utility.yul\":15937:15943   */\n      dup5\n        /* \"#utility.yul\":15873:15951   */\n      tag_530\n      jump\t// in\n    tag_560:\n        /* \"#utility.yul\":15865:15951   */\n      swap1\n      pop\n        /* \"#utility.yul\":15763:15958   */\n      swap3\n      swap2\n      pop\n      pop\n      jump\t// out\n        /* \"#utility.yul\":15964:16387   */\n    tag_50:\n      0x00\n        /* \"#utility.yul\":16143:16145   */\n      0x40\n        /* \"#utility.yul\":16132:16141   */\n      dup3\n        /* \"#utility.yul\":16128:16146   */\n      add\n        /* \"#utility.yul\":16120:16146   */\n      swap1\n      pop\n        /* \"#utility.yul\":16192:16201   */\n      dup2\n        /* \"#utility.yul\":16186:16190   */\n      dup2\n        /* \"#utility.yul\":16182:16202   */\n      sub\n        /* \"#utility.yul\":16178:16179   */\n      0x00\n        /* \"#utility.yul\":16167:16176   */\n      dup4\n        /* \"#utility.yul\":16163:16180   */\n      add\n        /* \"#utility.yul\":16156:16203   */\n      mstore\n        /* \"#utility.yul\":16220:16298   */\n      tag_562\n        /* \"#utility.yul\":16293:16297   */\n      dup2\n        /* \"#utility.yul\":16284:16290   */\n      dup6\n        /* \"#utility.yul\":16220:16298   */\n      tag_530\n      jump\t// in\n    tag_562:\n        /* \"#utility.yul\":16212:16298   */\n      swap1\n      pop\n        /* \"#utility.yul\":16308:16380   */\n      tag_563\n        /* \"#utility.yul\":16376:16378   */\n      0x20\n        /* \"#utility.yul\":16365:16374   */\n      dup4\n        /* \"#utility.yul\":16361:16379   */\n      add\n        /* \"#utility.yul\":16352:16358   */\n      dup5\n        /* \"#utility.yul\":16308:16380   */\n      tag_548\n      jump\t// in\n    tag_563:\n        /* \"#utility.yul\":16110:16387   */\n      swap4\n      swap3\n      pop\n      pop\n      pop\n      jump\t// out\n        /* \"#utility.yul\":16393:16762   */\n    tag_158:\n      0x00\n        /* \"#utility.yul\":16572:16574   */\n      0x20\n        /* \"#utility.yul\":16561:16570   */\n      dup3\n        /* \"#utility.yul\":16557:16575   */\n      add\n        /* \"#utility.yul\":16549:16575   */\n      swap1\n      pop\n        /* \"#utility.yul\":16621:16630   */\n      dup2\n        /* \"#utility.yul\":16615:16619   */\n      dup2\n        /* \"#utility.yul\":16611:16631   */\n      sub\n        /* \"#utility.yul\":16607:16608   */\n      0x00\n        /* \"#utility.yul\":16596:16605   */\n      dup4\n        /* \"#utility.yul\":16592:16609   */\n      add\n        /* \"#utility.yul\":16585:16632   */\n      mstore\n        /* \"#utility.yul\":16649:16755   */\n      tag_565\n        /* \"#utility.yul\":16750:16754   */\n      dup2\n        /* \"#utility.yul\":16741:16747   */\n      dup5\n        /* \"#utility.yul\":16649:16755   */\n      tag_541\n      jump\t// in\n    tag_565:\n        /* \"#utility.yul\":16641:16755   */\n      swap1\n      pop\n        /* \"#utility.yul\":16539:16762   */\n      swap3\n      swap2\n      pop\n      pop\n      jump\t// out\n        /* \"#utility.yul\":16768:16990   */\n    tag_59:\n      0x00\n        /* \"#utility.yul\":16899:16901   */\n      0x20\n        /* \"#utility.yul\":16888:16897   */\n      dup3\n        /* \"#utility.yul\":16884:16902   */\n      add\n        /* \"#utility.yul\":16876:16902   */\n      swap1\n      pop\n        /* \"#utility.yul\":16912:16983   */\n      tag_567\n        /* \"#utility.yul\":16980:16981   */\n      0x00\n        /* \"#utility.yul\":16969:16978   */\n      dup4\n        /* \"#utility.yul\":16965:16982   */\n      add\n        /* \"#utility.yul\":16956:16962   */\n      dup5\n        /* \"#utility.yul\":16912:16983   */\n      tag_548\n      jump\t// in\n    tag_567:\n        /* \"#utility.yul\":16866:16990   */\n      swap3\n      swap2\n      pop\n      pop\n      jump\t// out\n        /* \"#utility.yul\":16996:17537   */\n    tag_128:\n      0x00\n        /* \"#utility.yul\":17205:17208   */\n      0x80\n        /* \"#utility.yul\":17194:17203   */\n      dup3\n        /* \"#utility.yul\":17190:17209   */\n      add\n        /* \"#utility.yul\":17182:17209   */\n      swap1\n      pop\n        /* \"#utility.yul\":17219:17290   */\n      tag_569\n        /* \"#utility.yul\":17287:17288   */\n      0x00\n        /* \"#utility.yul\":17276:17285   */\n      dup4\n        /* \"#utility.yul\":17272:17289   */\n      add\n        /* \"#utility.yul\":17263:17269   */\n      dup8\n        /* \"#utility.yul\":17219:17290   */\n      tag_548\n      jump\t// in\n    tag_569:\n        /* \"#utility.yul\":17300:17366   */\n      tag_570\n        /* \"#utility.yul\":17362:17364   */\n      0x20\n        /* \"#utility.yul\":17351:17360   */\n      dup4\n        /* \"#utility.yul\":17347:17365   */\n      add\n        /* \"#utility.yul\":17338:17344   */\n      dup7\n        /* \"#utility.yul\":17300:17366   */\n      tag_514\n      jump\t// in\n    tag_570:\n        /* \"#utility.yul\":17376:17448   */\n      tag_571\n        /* \"#utility.yul\":17444:17446   */\n      0x40\n        /* \"#utility.yul\":17433:17442   */\n      dup4\n        /* \"#utility.yul\":17429:17447   */\n      add\n        /* \"#utility.yul\":17420:17426   */\n      dup6\n        /* \"#utility.yul\":17376:17448   */\n      tag_482\n      jump\t// in\n    tag_571:\n        /* \"#utility.yul\":17458:17530   */\n      tag_572\n        /* \"#utility.yul\":17526:17528   */\n      0x60\n        /* \"#utility.yul\":17515:17524   */\n      dup4\n        /* \"#utility.yul\":17511:17529   */\n      add\n        /* \"#utility.yul\":17502:17508   */\n      dup5\n        /* \"#utility.yul\":17458:17530   */\n      tag_548\n      jump\t// in\n    tag_572:\n        /* \"#utility.yul\":17172:17537   */\n      swap6\n      swap5\n      pop\n      pop\n      pop\n      pop\n      pop\n      jump\t// out\n        /* \"#utility.yul\":17543:17826   */\n    tag_367:\n      0x00\n        /* \"#utility.yul\":17609:17611   */\n      0x40\n        /* \"#utility.yul\":17603:17612   */\n      mload\n        /* \"#utility.yul\":17593:17612   */\n      swap1\n      pop\n        /* \"#utility.yul\":17651:17655   */\n      dup2\n        /* \"#utility.yul\":17643:17649   */\n      dup2\n        /* \"#utility.yul\":17639:17656   */\n      add\n        /* \"#utility.yul\":17758:17764   */\n      dup2\n        /* \"#utility.yul\":17746:17756   */\n      dup2\n        /* \"#utility.yul\":17743:17765   */\n      lt\n        /* \"#utility.yul\":17722:17740   */\n      0xffffffffffffffff\n        /* \"#utility.yul\":17710:17720   */\n      dup3\n        /* \"#utility.yul\":17707:17741   */\n      gt\n        /* \"#utility.yul\":17704:17766   */\n      or\n        /* \"#utility.yul\":17701:17703   */\n      iszero\n      tag_574\n      jumpi\n        /* \"#utility.yul\":17769:17787   */\n      tag_575\n      tag_576\n      jump\t// in\n    tag_575:\n        /* \"#utility.yul\":17701:17703   */\n    tag_574:\n        /* \"#utility.yul\":17809:17819   */\n      dup1\n        /* \"#utility.yul\":17805:17807   */\n      0x40\n        /* \"#utility.yul\":17798:17820   */\n      mstore\n        /* \"#utility.yul\":17583:17826   */\n      pop\n      swap2\n      swap1\n      pop\n      jump\t// out\n        /* \"#utility.yul\":17832:18153   */\n    tag_366:\n      0x00\n        /* \"#utility.yul\":18009:18027   */\n      0xffffffffffffffff\n        /* \"#utility.yul\":18001:18007   */\n      dup3\n        /* \"#utility.yul\":17998:18028   */\n      gt\n        /* \"#utility.yul\":17995:17997   */\n      iszero\n      tag_578\n      jumpi\n        /* \"#utility.yul\":18031:18049   */\n      tag_579\n      tag_576\n      jump\t// in\n    tag_579:\n        /* \"#utility.yul\":17995:17997   */\n    tag_578:\n        /* \"#utility.yul\":18081:18085   */\n      0x20\n        /* \"#utility.yul\":18073:18079   */\n      dup3\n        /* \"#utility.yul\":18069:18086   */\n      mul\n        /* \"#utility.yul\":18061:18086   */\n      swap1\n      pop\n        /* \"#utility.yul\":18141:18145   */\n      0x20\n        /* \"#utility.yul\":18135:18139   */\n      dup2\n        /* \"#utility.yul\":18131:18146   */\n      add\n        /* \"#utility.yul\":18123:18146   */\n      swap1\n      pop\n        /* \"#utility.yul\":17924:18153   */\n      swap2\n      swap1\n      pop\n      jump\t// out\n        /* \"#utility.yul\":18159:18494   */\n    tag_377:\n      0x00\n        /* \"#utility.yul\":18350:18368   */\n      0xffffffffffffffff\n        /* \"#utility.yul\":18342:18348   */\n      dup3\n        /* \"#utility.yul\":18339:18369   */\n      gt\n        /* \"#utility.yul\":18336:18338   */\n      iszero\n      tag_581\n      jumpi\n        /* \"#utility.yul\":18372:18390   */\n      tag_582\n      tag_576\n      jump\t// in\n    tag_582:\n        /* \"#utility.yul\":18336:18338   */\n    tag_581:\n        /* \"#utility.yul\":18422:18426   */\n      0x20\n        /* \"#utility.yul\":18414:18420   */\n      dup3\n        /* \"#utility.yul\":18410:18427   */\n      mul\n        /* \"#utility.yul\":18402:18427   */\n      swap1\n      pop\n        /* \"#utility.yul\":18482:18486   */\n      0x20\n        /* \"#utility.yul\":18476:18480   */\n      dup2\n        /* \"#utility.yul\":18472:18487   */\n      add\n        /* \"#utility.yul\":18464:18487   */\n      swap1\n      pop\n        /* \"#utility.yul\":18265:18494   */\n      swap2\n      swap1\n      pop\n      jump\t// out\n        /* \"#utility.yul\":18500:18832   */\n    tag_387:\n      0x00\n        /* \"#utility.yul\":18652:18670   */\n      0xffffffffffffffff\n        /* \"#utility.yul\":18644:18650   */\n      dup3\n        /* \"#utility.yul\":18641:18671   */\n      gt\n        /* \"#utility.yul\":18638:18640   */\n      iszero\n      tag_584\n      jumpi\n        /* \"#utility.yul\":18674:18692   */\n      tag_585\n      tag_576\n      jump\t// in\n    tag_585:\n        /* \"#utility.yul\":18638:18640   */\n    tag_584:\n        /* \"#utility.yul\":18759:18763   */\n      0x1f\n        /* \"#utility.yul\":18755:18764   */\n      not\n        /* \"#utility.yul\":18748:18752   */\n      0x1f\n        /* \"#utility.yul\":18740:18746   */\n      dup4\n        /* \"#utility.yul\":18736:18753   */\n      add\n        /* \"#utility.yul\":18732:18765   */\n      and\n        /* \"#utility.yul\":18724:18765   */\n      swap1\n      pop\n        /* \"#utility.yul\":18820:18824   */\n      0x20\n        /* \"#utility.yul\":18814:18818   */\n      dup2\n        /* \"#utility.yul\":18810:18825   */\n      add\n        /* \"#utility.yul\":18802:18825   */\n      swap1\n      pop\n        /* \"#utility.yul\":18567:18832   */\n      swap2\n      swap1\n      pop\n      jump\t// out\n        /* \"#utility.yul\":18838:18980   */\n    tag_493:\n      0x00\n        /* \"#utility.yul\":18938:18941   */\n      dup2\n        /* \"#utility.yul\":18930:18941   */\n      swap1\n      pop\n        /* \"#utility.yul\":18968:18972   */\n      0x20\n        /* \"#utility.yul\":18963:18966   */\n      dup3\n        /* \"#utility.yul\":18959:18973   */\n      add\n        /* \"#utility.yul\":18951:18973   */\n      swap1\n      pop\n        /* \"#utility.yul\":18920:18980   */\n      swap2\n      swap1\n      pop\n      jump\t// out\n        /* \"#utility.yul\":18986:19142   */\n    tag_507:\n      0x00\n        /* \"#utility.yul\":19100:19103   */\n      dup2\n        /* \"#utility.yul\":19092:19103   */\n      swap1\n      pop\n        /* \"#utility.yul\":19130:19134   */\n      0x20\n        /* \"#utility.yul\":19125:19128   */\n      dup3\n        /* \"#utility.yul\":19121:19135   */\n      add\n        /* \"#utility.yul\":19113:19135   */\n      swap1\n      pop\n        /* \"#utility.yul\":19082:19142   */\n      swap2\n      swap1\n      pop\n      jump\t// out\n        /* \"#utility.yul\":19148:19272   */\n    tag_489:\n      0x00\n        /* \"#utility.yul\":19259:19264   */\n      dup2\n        /* \"#utility.yul\":19253:19265   */\n      mload\n        /* \"#utility.yul\":19243:19265   */\n      swap1\n      pop\n        /* \"#utility.yul\":19232:19272   */\n      swap2\n      swap1\n      pop\n      jump\t// out\n        /* \"#utility.yul\":19278:19416   */\n    tag_503:\n      0x00\n        /* \"#utility.yul\":19403:19408   */\n      dup2\n        /* \"#utility.yul\":19397:19409   */\n      mload\n        /* \"#utility.yul\":19387:19409   */\n      swap1\n      pop\n        /* \"#utility.yul\":19376:19416   */\n      swap2\n      swap1\n      pop\n      jump\t// out\n        /* \"#utility.yul\":19422:19521   */\n    tag_524:\n      0x00\n        /* \"#utility.yul\":19508:19513   */\n      dup2\n        /* \"#utility.yul\":19502:19514   */\n      mload\n        /* \"#utility.yul\":19492:19514   */\n      swap1\n      pop\n        /* \"#utility.yul\":19481:19521   */\n      swap2\n      swap1\n      pop\n      jump\t// out\n        /* \"#utility.yul\":19527:19650   */\n    tag_499:\n      0x00\n        /* \"#utility.yul\":19639:19643   */\n      0x20\n        /* \"#utility.yul\":19634:19637   */\n      dup3\n        /* \"#utility.yul\":19630:19644   */\n      add\n        /* \"#utility.yul\":19622:19644   */\n      swap1\n      pop\n        /* \"#utility.yul\":19612:19650   */\n      swap2\n      swap1\n      pop\n      jump\t// out\n        /* \"#utility.yul\":19656:19793   */\n    tag_513:\n      0x00\n        /* \"#utility.yul\":19782:19786   */\n      0x20\n        /* \"#utility.yul\":19777:19780   */\n      dup3\n        /* \"#utility.yul\":19773:19787   */\n      add\n        /* \"#utility.yul\":19765:19787   */\n      swap1\n      pop\n        /* \"#utility.yul\":19755:19793   */\n      swap2\n      swap1\n      pop\n      jump\t// out\n        /* \"#utility.yul\":19799:19993   */\n    tag_491:\n      0x00\n        /* \"#utility.yul\":19942:19948   */\n      dup3\n        /* \"#utility.yul\":19937:19940   */\n      dup3\n        /* \"#utility.yul\":19930:19949   */\n      mstore\n        /* \"#utility.yul\":19982:19986   */\n      0x20\n        /* \"#utility.yul\":19977:19980   */\n      dup3\n        /* \"#utility.yul\":19973:19987   */\n      add\n        /* \"#utility.yul\":19958:19987   */\n      swap1\n      pop\n        /* \"#utility.yul\":19920:19993   */\n      swap3\n      swap2\n      pop\n      pop\n      jump\t// out\n        /* \"#utility.yul\":19999:20207   */\n    tag_505:\n      0x00\n        /* \"#utility.yul\":20156:20162   */\n      dup3\n        /* \"#utility.yul\":20151:20154   */\n      dup3\n        /* \"#utility.yul\":20144:20163   */\n      mstore\n        /* \"#utility.yul\":20196:20200   */\n      0x20\n        /* \"#utility.yul\":20191:20194   */\n      dup3\n        /* \"#utility.yul\":20187:20201   */\n      add\n        /* \"#utility.yul\":20172:20201   */\n      swap1\n      pop\n        /* \"#utility.yul\":20134:20207   */\n      swap3\n      swap2\n      pop\n      pop\n      jump\t// out\n        /* \"#utility.yul\":20213:20372   */\n    tag_526:\n      0x00\n        /* \"#utility.yul\":20321:20327   */\n      dup3\n        /* \"#utility.yul\":20316:20319   */\n      dup3\n        /* \"#utility.yul\":20309:20328   */\n      mstore\n        /* \"#utility.yul\":20361:20365   */\n      0x20\n        /* \"#utility.yul\":20356:20359   */\n      dup3\n        /* \"#utility.yul\":20352:20366   */\n      add\n        /* \"#utility.yul\":20337:20366   */\n      swap1\n      pop\n        /* \"#utility.yul\":20299:20372   */\n      swap3\n      swap2\n      pop\n      pop\n      jump\t// out\n        /* \"#utility.yul\":20378:20547   */\n    tag_534:\n      0x00\n        /* \"#utility.yul\":20496:20502   */\n      dup3\n        /* \"#utility.yul\":20491:20494   */\n      dup3\n        /* \"#utility.yul\":20484:20503   */\n      mstore\n        /* \"#utility.yul\":20536:20540   */\n      0x20\n        /* \"#utility.yul\":20531:20534   */\n      dup3\n        /* \"#utility.yul\":20527:20541   */\n      add\n        /* \"#utility.yul\":20512:20541   */\n      swap1\n      pop\n        /* \"#utility.yul\":20474:20547   */\n      swap3\n      swap2\n      pop\n      pop\n      jump\t// out\n        /* \"#utility.yul\":20553:20858   */\n    tag_168:\n      0x00\n        /* \"#utility.yul\":20612:20632   */\n      tag_598\n        /* \"#utility.yul\":20630:20631   */\n      dup3\n        /* \"#utility.yul\":20612:20632   */\n      tag_547\n      jump\t// in\n    tag_598:\n        /* \"#utility.yul\":20607:20632   */\n      swap2\n      pop\n        /* \"#utility.yul\":20646:20666   */\n      tag_599\n        /* \"#utility.yul\":20664:20665   */\n      dup4\n        /* \"#utility.yul\":20646:20666   */\n      tag_547\n      jump\t// in\n    tag_599:\n        /* \"#utility.yul\":20641:20666   */\n      swap3\n      pop\n        /* \"#utility.yul\":20800:20801   */\n      dup3\n        /* \"#utility.yul\":20732:20798   */\n      0xffffffffffffffffffffffffffffffffffffffffffffffffffffffffffffffff\n        /* \"#utility.yul\":20728:20802   */\n      sub\n        /* \"#utility.yul\":20725:20726   */\n      dup3\n        /* \"#utility.yul\":20722:20803   */\n      gt\n        /* \"#utility.yul\":20719:20721   */\n      iszero\n      tag_600\n      jumpi\n        /* \"#utility.yul\":20806:20824   */\n      tag_601\n      tag_602\n      jump\t// in\n    tag_601:\n        /* \"#utility.yul\":20719:20721   */\n    tag_600:\n        /* \"#utility.yul\":20850:20851   */\n      dup3\n        /* \"#utility.yul\":20847:20848   */\n      dup3\n        /* \"#utility.yul\":20843:20852   */\n      add\n        /* \"#utility.yul\":20836:20852   */\n      swap1\n      pop\n        /* \"#utility.yul\":20597:20858   */\n      swap3\n      swap2\n      pop\n      pop\n      jump\t// out\n        /* \"#utility.yul\":20864:20960   */\n    tag_485:\n      0x00\n        /* \"#utility.yul\":20930:20954   */\n      tag_604\n        /* \"#utility.yul\":20948:20953   */\n      dup3\n        /* \"#utility.yul\":20930:20954   */\n      tag_605\n      jump\t// in\n    tag_604:\n        /* \"#utility.yul\":20919:20954   */\n      swap1\n      pop\n        /* \"#utility.yul\":20909:20960   */\n      swap2\n      swap1\n      pop\n      jump\t// out\n        /* \"#utility.yul\":20966:21056   */\n    tag_517:\n      0x00\n        /* \"#utility.yul\":21043:21048   */\n      dup2\n        /* \"#utility.yul\":21036:21049   */\n      iszero\n        /* \"#utility.yul\":21029:21050   */\n      iszero\n        /* \"#utility.yul\":21018:21050   */\n      swap1\n      pop\n        /* \"#utility.yul\":21008:21056   */\n      swap2\n      swap1\n      pop\n      jump\t// out\n        /* \"#utility.yul\":21062:21188   */\n    tag_605:\n      0x00\n        /* \"#utility.yul\":21139:21181   */\n      0xffffffffffffffffffffffffffffffffffffffff\n        /* \"#utility.yul\":21132:21137   */\n      dup3\n        /* \"#utility.yul\":21128:21182   */\n      and\n        /* \"#utility.yul\":21117:21182   */\n      swap1\n      pop\n        /* \"#utility.yul\":21107:21188   */\n      swap2\n      swap1\n      pop\n      jump\t// out\n        /* \"#utility.yul\":21194:21271   */\n    tag_547:\n      0x00\n        /* \"#utility.yul\":21260:21265   */\n      dup2\n        /* \"#utility.yul\":21249:21265   */\n      swap1\n      pop\n        /* \"#utility.yul\":21239:21271   */\n      swap2\n      swap1\n      pop\n      jump\t// out\n        /* \"#utility.yul\":21277:21431   */\n    tag_521:\n      0x00\n        /* \"#utility.yul\":21374:21425   */\n      tag_610\n        /* \"#utility.yul\":21419:21424   */\n      dup3\n        /* \"#utility.yul\":21374:21425   */\n      tag_611\n      jump\t// in\n    tag_610:\n        /* \"#utility.yul\":21361:21425   */\n      swap1\n      pop\n        /* \"#utility.yul\":21351:21431   */\n      swap2\n      swap1\n      pop\n      jump\t// out\n        /* \"#utility.yul\":21437:21564   */\n    tag_611:\n      0x00\n        /* \"#utility.yul\":21534:21558   */\n      tag_613\n        /* \"#utility.yul\":21552:21557   */\n      dup3\n        /* \"#utility.yul\":21534:21558   */\n      tag_605\n      jump\t// in\n    tag_613:\n        /* \"#utility.yul\":21521:21558   */\n      swap1\n      pop\n        /* \"#utility.yul\":21511:21564   */\n      swap2\n      swap1\n      pop\n      jump\t// out\n        /* \"#utility.yul\":21570:21724   */\n    tag_390:\n        /* \"#utility.yul\":21654:21660   */\n      dup3\n        /* \"#utility.yul\":21649:21652   */\n      dup2\n        /* \"#utility.yul\":21644:21647   */\n      dup4\n        /* \"#utility.yul\":21631:21661   */\n      calldatacopy\n        /* \"#utility.yul\":21716:21717   */\n      0x00\n        /* \"#utility.yul\":21707:21713   */\n      dup4\n        /* \"#utility.yul\":21702:21705   */\n      dup4\n        /* \"#utility.yul\":21698:21714   */\n      add\n        /* \"#utility.yul\":21691:21718   */\n      mstore\n        /* \"#utility.yul\":21621:21724   */\n      pop\n      pop\n      pop\n      jump\t// out\n        /* \"#utility.yul\":21730:22037   */\n    tag_397:\n        /* \"#utility.yul\":21798:21799   */\n      0x00\n        /* \"#utility.yul\":21808:21921   */\n    tag_616:\n        /* \"#utility.yul\":21822:21828   */\n      dup4\n        /* \"#utility.yul\":21819:21820   */\n      dup2\n        /* \"#utility.yul\":21816:21829   */\n      lt\n        /* \"#utility.yul\":21808:21921   */\n      iszero\n      tag_618\n      jumpi\n        /* \"#utility.yul\":21907:21908   */\n      dup1\n        /* \"#utility.yul\":21902:21905   */\n      dup3\n        /* \"#utility.yul\":21898:21909   */\n      add\n        /* \"#utility.yul\":21892:21910   */\n      mload\n        /* \"#utility.yul\":21888:21889   */\n      dup2\n        /* \"#utility.yul\":21883:21886   */\n      dup5\n        /* \"#utility.yul\":21879:21890   */\n      add\n        /* \"#utility.yul\":21872:21911   */\n      mstore\n        /* \"#utility.yul\":21844:21846   */\n      0x20\n        /* \"#utility.yul\":21841:21842   */\n      dup2\n        /* \"#utility.yul\":21837:21847   */\n      add\n        /* \"#utility.yul\":21832:21847   */\n      swap1\n      pop\n        /* \"#utility.yul\":21808:21921   */\n      jump(tag_616)\n    tag_618:\n        /* \"#utility.yul\":21939:21945   */\n      dup4\n        /* \"#utility.yul\":21936:21937   */\n      dup2\n        /* \"#utility.yul\":21933:21946   */\n      gt\n        /* \"#utility.yul\":21930:21932   */\n      iszero\n      tag_619\n      jumpi\n        /* \"#utility.yul\":22019:22020   */\n      0x00\n        /* \"#utility.yul\":22010:22016   */\n      dup5\n        /* \"#utility.yul\":22005:22008   */\n      dup5\n        /* \"#utility.yul\":22001:22017   */\n      add\n        /* \"#utility.yul\":21994:22021   */\n      mstore\n        /* \"#utility.yul\":21930:21932   */\n    tag_619:\n        /* \"#utility.yul\":21779:22037   */\n      pop\n      pop\n      pop\n      pop\n      jump\t// out\n        /* \"#utility.yul\":22043:22363   */\n    tag_172:\n      0x00\n        /* \"#utility.yul\":22124:22125   */\n      0x02\n        /* \"#utility.yul\":22118:22122   */\n      dup3\n        /* \"#utility.yul\":22114:22126   */\n      div\n        /* \"#utility.yul\":22104:22126   */\n      swap1\n      pop\n        /* \"#utility.yul\":22171:22172   */\n      0x01\n        /* \"#utility.yul\":22165:22169   */\n      dup3\n        /* \"#utility.yul\":22161:22173   */\n      and\n        /* \"#utility.yul\":22192:22210   */\n      dup1\n        /* \"#utility.yul\":22182:22184   */\n      tag_621\n      jumpi\n        /* \"#utility.yul\":22248:22252   */\n      0x7f\n        /* \"#utility.yul\":22240:22246   */\n      dup3\n        /* \"#utility.yul\":22236:22253   */\n      and\n        /* \"#utility.yul\":22226:22253   */\n      swap2\n      pop\n        /* \"#utility.yul\":22182:22184   */\n    tag_621:\n        /* \"#utility.yul\":22310:22312   */\n      0x20\n        /* \"#utility.yul\":22302:22308   */\n      dup3\n        /* \"#utility.yul\":22299:22313   */\n      lt\n        /* \"#utility.yul\":22279:22297   */\n      dup2\n        /* \"#utility.yul\":22276:22314   */\n      eq\n        /* \"#utility.yul\":22273:22275   */\n      iszero\n      tag_622\n      jumpi\n        /* \"#utility.yul\":22329:22347   */\n      tag_623\n      tag_624\n      jump\t// in\n    tag_623:\n        /* \"#utility.yul\":22273:22275   */\n    tag_622:\n        /* \"#utility.yul\":22094:22363   */\n      pop\n      swap2\n      swap1\n      pop\n      jump\t// out\n        /* \"#utility.yul\":22369:22602   */\n    tag_219:\n      0x00\n        /* \"#utility.yul\":22431:22455   */\n      tag_626\n        /* \"#utility.yul\":22449:22454   */\n      dup3\n        /* \"#utility.yul\":22431:22455   */\n      tag_547\n      jump\t// in\n    tag_626:\n        /* \"#utility.yul\":22422:22455   */\n      swap2\n      pop\n        /* \"#utility.yul\":22477:22543   */\n      0xffffffffffffffffffffffffffffffffffffffffffffffffffffffffffffffff\n        /* \"#utility.yul\":22470:22475   */\n      dup3\n        /* \"#utility.yul\":22467:22544   */\n      eq\n        /* \"#utility.yul\":22464:22466   */\n      iszero\n      tag_627\n      jumpi\n        /* \"#utility.yul\":22547:22565   */\n      tag_628\n      tag_602\n      jump\t// in\n    tag_628:\n        /* \"#utility.yul\":22464:22466   */\n    tag_627:\n        /* \"#utility.yul\":22594:22595   */\n      0x01\n        /* \"#utility.yul\":22587:22592   */\n      dup3\n        /* \"#utility.yul\":22583:22596   */\n      add\n        /* \"#utility.yul\":22576:22596   */\n      swap1\n      pop\n        /* \"#utility.yul\":22412:22602   */\n      swap2\n      swap1\n      pop\n      jump\t// out\n        /* \"#utility.yul\":22608:22788   */\n    tag_602:\n        /* \"#utility.yul\":22656:22733   */\n      0x4e487b7100000000000000000000000000000000000000000000000000000000\n        /* \"#utility.yul\":22653:22654   */\n      0x00\n        /* \"#utility.yul\":22646:22734   */\n      mstore\n        /* \"#utility.yul\":22753:22757   */\n      0x11\n        /* \"#utility.yul\":22750:22751   */\n      0x04\n        /* \"#utility.yul\":22743:22758   */\n      mstore\n        /* \"#utility.yul\":22777:22781   */\n      0x24\n        /* \"#utility.yul\":22774:22775   */\n      0x00\n        /* \"#utility.yul\":22767:22782   */\n      revert\n        /* \"#utility.yul\":22794:22974   */\n    tag_624:\n        /* \"#utility.yul\":22842:22919   */\n      0x4e487b7100000000000000000000000000000000000000000000000000000000\n        /* \"#utility.yul\":22839:22840   */\n      0x00\n        /* \"#utility.yul\":22832:22920   */\n      mstore\n        /* \"#utility.yul\":22939:22943   */\n      0x22\n        /* \"#utility.yul\":22936:22937   */\n      0x04\n        /* \"#utility.yul\":22929:22944   */\n      mstore\n        /* \"#utility.yul\":22963:22967   */\n      0x24\n        /* \"#utility.yul\":22960:22961   */\n      0x00\n        /* \"#utility.yul\":22953:22968   */\n      revert\n        /* \"#utility.yul\":22980:23160   */\n    tag_576:\n        /* \"#utility.yul\":23028:23105   */\n      0x4e487b7100000000000000000000000000000000000000000000000000000000\n        /* \"#utility.yul\":23025:23026   */\n      0x00\n        /* \"#utility.yul\":23018:23106   */\n      mstore\n        /* \"#utility.yul\":23125:23129   */\n      0x41\n        /* \"#utility.yul\":23122:23123   */\n      0x04\n        /* \"#utility.yul\":23115:23130   */\n      mstore\n        /* \"#utility.yul\":23149:23153   */\n      0x24\n        /* \"#utility.yul\":23146:23147   */\n      0x00\n        /* \"#utility.yul\":23139:23154   */\n      revert\n        /* \"#utility.yul\":23166:23268   */\n    tag_529:\n      0x00\n        /* \"#utility.yul\":23258:23260   */\n      0x1f\n        /* \"#utility.yul\":23254:23261   */\n      not\n        /* \"#utility.yul\":23249:23251   */\n      0x1f\n        /* \"#utility.yul\":23242:23247   */\n      dup4\n        /* \"#utility.yul\":23238:23252   */\n      add\n        /* \"#utility.yul\":23234:23262   */\n      and\n        /* \"#utility.yul\":23224:23262   */\n      swap1\n      pop\n        /* \"#utility.yul\":23214:23268   */\n      swap2\n      swap1\n      pop\n      jump\t// out\n        /* \"#utility.yul\":23274:23396   */\n    tag_401:\n        /* \"#utility.yul\":23347:23371   */\n      tag_634\n        /* \"#utility.yul\":23365:23370   */\n      dup2\n        /* \"#utility.yul\":23347:23371   */\n      tag_485\n      jump\t// in\n    tag_634:\n        /* \"#utility.yul\":23340:23345   */\n      dup2\n        /* \"#utility.yul\":23337:23372   */\n      eq\n        /* \"#utility.yul\":23327:23329   */\n      tag_635\n      jumpi\n        /* \"#utility.yul\":23386:23387   */\n      0x00\n        /* \"#utility.yul\":23383:23384   */\n      dup1\n        /* \"#utility.yul\":23376:23388   */\n      revert\n        /* \"#utility.yul\":23327:23329   */\n    tag_635:\n        /* \"#utility.yul\":23317:23396   */\n      pop\n      jump\t// out\n        /* \"#utility.yul\":23402:23524   */\n    tag_430:\n        /* \"#utility.yul\":23475:23499   */\n      tag_637\n        /* \"#utility.yul\":23493:23498   */\n      dup2\n        /* \"#utility.yul\":23475:23499   */\n      tag_547\n      jump\t// in\n    tag_637:\n        /* \"#utility.yul\":23468:23473   */\n      dup2\n        /* \"#utility.yul\":23465:23500   */\n      eq\n        /* \"#utility.yul\":23455:23457   */\n      tag_638\n      jumpi\n        /* \"#utility.yul\":23514:23515   */\n      0x00\n        /* \"#utility.yul\":23511:23512   */\n      dup1\n        /* \"#utility.yul\":23504:23516   */\n      revert\n        /* \"#utility.yul\":23455:23457   */\n    tag_638:\n        /* \"#utility.yul\":23445:23524   */\n      pop\n      jump\t// out\n    stop\n\n    sub_0: assembly {\n            /* \"contracts/prop_test.sol\":60:4755  contract Ballot {\r... */\n          mstore(0x40, 0x80)\n          callvalue\n          dup1\n          iszero\n          tag_1\n          jumpi\n          0x00\n          dup1\n          revert\n        tag_1:\n          pop\n          dataSize(sub_0)\n          dup1\n          dataOffset(sub_0)\n          0x00\n          codecopy\n          0x00\n          return\n        stop\n\n        sub_0: assembly {\n                /* \"contracts/prop_test.sol\":60:4755  contract Ballot {\r... */\n              mstore(0x40, 0x80)\n              callvalue\n              dup1\n              iszero\n              tag_1\n              jumpi\n              0x00\n              dup1\n              revert\n            tag_1:\n              pop\n              jumpi(tag_2, lt(calldatasize, 0x04))\n              shr(0xe0, calldataload(0x00))\n              dup1\n              0x7a16fcb0\n              gt\n              tag_19\n              jumpi\n              dup1\n              0xa3ec138d\n              gt\n              tag_20\n              jumpi\n              dup1\n              0xa3ec138d\n              eq\n              tag_15\n              jumpi\n              dup1\n              0xb1356488\n              eq\n              tag_16\n              jumpi\n              dup1\n              0xe2ba53f0\n              eq\n              tag_17\n              jumpi\n              dup1\n              0xe9d6c6da\n              eq\n              tag_18\n              jumpi\n              jump(tag_2)\n            tag_20:\n              dup1\n              0x7a16fcb0\n              eq\n              tag_11\n              jumpi\n              dup1\n              0x836bc692\n              eq\n              tag_12\n              jumpi\n              dup1\n              0x86278e77\n              eq\n              tag_13\n              jumpi\n              dup1\n              0x9e7b8d61\n              eq\n              tag_14\n              jumpi\n              jump(tag_2)\n            tag_19:\n              dup1\n              0x609ff1bd\n              gt\n              tag_21\n              jumpi\n              dup1\n              0x609ff1bd\n              eq\n              tag_7\n              jumpi\n              dup1\n              0x62564c48\n              eq\n              tag_8\n              jumpi\n              dup1\n              0x69ba1a75\n              eq\n              tag_9\n              jumpi\n              dup1\n              0x78f305c6\n              eq\n              tag_10\n              jumpi\n              jump(tag_2)\n            tag_21:\n              dup1\n              0x0121b93f\n              eq\n              tag_3\n              jumpi\n              dup1\n              0x013cf08b\n              eq\n              tag_4\n              jumpi\n              dup1\n              0x0a82dcb1\n              eq\n              tag_5\n              jumpi\n              dup1\n              0x4e69d560\n              eq\n              tag_6\n              jumpi\n            tag_2:\n              0x00\n              dup1\n              revert\n                /* \"contracts/prop_test.sol\":2270:2659  function vote(uint proposal) public {\r... */\n            tag_3:\n              tag_22\n              0x04\n              dup1\n              calldatasize\n              sub\n              dup2\n              add\n              swap1\n              tag_23\n              swap2\n              swap1\n              tag_24\n              jump\t// in\n            tag_23:\n              tag_25\n              jump\t// in\n            tag_22:\n              stop\n                /* \"contracts/prop_test.sol\":871:898  Proposal[] public proposals */\n            tag_4:\n              tag_26\n              0x04\n              dup1\n              calldatasize\n              sub\n              dup2\n              add\n              swap1\n              tag_27\n              swap2\n              swap1\n              tag_24\n              jump\t// in\n            tag_27:\n              tag_28\n              jump\t// in\n            tag_26:\n              mload(0x40)\n              tag_29\n              swap3\n              swap2\n              swap1\n              tag_30\n              jump\t// in\n            tag_29:\n              mload(0x40)\n              dup1\n              swap2\n              sub\n              swap1\n              return\n                /* \"contracts/prop_test.sol\":3869:3963  function getnumOfProposals() public view returns(uint){\r... */\n            tag_5:\n              tag_31\n              tag_32\n              jump\t// in\n            tag_31:\n              mload(0x40)\n              tag_33\n              swap2\n              swap1\n              tag_34\n              jump\t// in\n            tag_33:\n              mload(0x40)\n              dup1\n              swap2\n              sub\n              swap1\n              return\n                /* \"contracts/prop_test.sol\":3749:3827  function getStatus() public view returns(uint){\r... */\n            tag_6:\n              tag_35\n              tag_36\n              jump\t// in\n            tag_35:\n              mload(0x40)\n              tag_37\n              swap2\n              swap1\n              tag_34\n              jump\t// in\n            tag_37:\n              mload(0x40)\n              dup1\n              swap2\n              sub\n              swap1\n              return\n                /* \"contracts/prop_test.sol\":2667:3021  function winningProposal() public view returns (uint winningProposal){\r... */\n            tag_7:\n              tag_38\n              tag_39\n              jump\t// in\n            tag_38:\n              mload(0x40)\n              tag_40\n              swap2\n              swap1\n              tag_34\n              jump\t// in\n            tag_40:\n              mload(0x40)\n              dup1\n              swap2\n              sub\n              swap1\n              return\n                /* \"contracts/prop_test.sol\":4172:4269  function getProposals() public view returns(Proposal[] memory){\r... */\n            tag_8:\n              tag_41\n              tag_42\n              jump\t// in\n            tag_41:\n              mload(0x40)\n              tag_43\n              swap2\n              swap1\n              tag_44\n              jump\t// in\n            tag_43:\n              mload(0x40)\n              dup1\n              swap2\n              sub\n              swap1\n              return\n                /* \"contracts/prop_test.sol\":3632:3706  function setStatus(uint _status) public{\r... */\n            tag_9:\n              tag_45\n              0x04\n              dup1\n              calldatasize\n              sub\n              dup2\n              add\n              swap1\n              tag_46\n              swap2\n              swap1\n              tag_24\n              jump\t// in\n            tag_46:\n              tag_47\n              jump\t// in\n            tag_45:\n              stop\n                /* \"contracts/prop_test.sol\":4434:4518  function getStartDate() public view returns(uint){\r... */\n            tag_10:\n              tag_48\n              tag_49\n              jump\t// in\n            tag_48:\n              mload(0x40)\n              tag_50\n              swap2\n              swap1\n              tag_34\n              jump\t// in\n            tag_50:\n              mload(0x40)\n              dup1\n              swap2\n              sub\n              swap1\n              return\n                /* \"contracts/prop_test.sol\":3500:3589  function getCreatorBallot() public view returns(address){\r... */\n            tag_11:\n              tag_51\n              tag_52\n              jump\t// in\n            tag_51:\n              mload(0x40)\n              tag_53\n              swap2\n              swap1\n              tag_54\n              jump\t// in\n            tag_53:\n              mload(0x40)\n              dup1\n              swap2\n              sub\n              swap1\n              return\n                /* \"contracts/prop_test.sol\":907:1647  function createBallot(string[] memory proposalNames) public {\r... */\n            tag_12:\n              tag_55\n              0x04\n              dup1\n              calldatasize\n              sub\n              dup2\n              add\n              swap1\n              tag_56\n              swap2\n              swap1\n              tag_57\n              jump\t// in\n            tag_56:\n              tag_58\n              jump\t// in\n            tag_55:\n              stop\n                /* \"contracts/prop_test.sol\":4560:4632  function setEndDate() public{\r... */\n            tag_13:\n              tag_59\n              tag_60\n              jump\t// in\n            tag_59:\n              stop\n                /* \"contracts/prop_test.sol\":1655:2233  function giveRightToVote(address voter) public {\r... */\n            tag_14:\n              tag_61\n              0x04\n              dup1\n              calldatasize\n              sub\n              dup2\n              add\n              swap1\n              tag_62\n              swap2\n              swap1\n              tag_63\n              jump\t// in\n            tag_62:\n              tag_64\n              jump\t// in\n            tag_61:\n              stop\n                /* \"contracts/prop_test.sol\":766:805  mapping(address => Voter) public voters */\n            tag_15:\n              tag_65\n              0x04\n              dup1\n              calldatasize\n              sub\n              dup2\n              add\n              swap1\n              tag_66\n              swap2\n              swap1\n              tag_63\n              jump\t// in\n            tag_66:\n              tag_67\n              jump\t// in\n            tag_65:\n              mload(0x40)\n              tag_68\n              swap5\n              swap4\n              swap3\n              swap2\n              swap1\n              tag_69\n              jump\t// in\n            tag_68:\n              mload(0x40)\n              dup1\n              swap2\n              sub\n              swap1\n              return\n                /* \"contracts/prop_test.sol\":4672:4752  function getEndDate() public view returns(uint){\r... */\n            tag_16:\n              tag_70\n              tag_71\n              jump\t// in\n            tag_70:\n              mload(0x40)\n              tag_72\n              swap2\n              swap1\n              tag_34\n              jump\t// in\n            tag_72:\n              mload(0x40)\n              dup1\n              swap2\n              sub\n              swap1\n              return\n                /* \"contracts/prop_test.sol\":3190:3328  function winnerName() public view returns(string memory winnerName)\r... */\n            tag_17:\n              tag_73\n              tag_74\n              jump\t// in\n            tag_73:\n              mload(0x40)\n              tag_75\n              swap2\n              swap1\n              tag_76\n              jump\t// in\n            tag_75:\n              mload(0x40)\n              dup1\n              swap2\n              sub\n              swap1\n              return\n                /* \"contracts/prop_test.sol\":4005:4137  function getProposalStructure(uint _proposalId) public view returns(Proposal memory){\r... */\n            tag_18:\n              tag_77\n              0x04\n              dup1\n              calldatasize\n              sub\n              dup2\n              add\n              swap1\n              tag_78\n              swap2\n              swap1\n              tag_24\n              jump\t// in\n            tag_78:\n              tag_79\n              jump\t// in\n            tag_77:\n              mload(0x40)\n              tag_80\n              swap2\n              swap1\n              tag_81\n              jump\t// in\n            tag_80:\n              mload(0x40)\n              dup1\n              swap2\n              sub\n              swap1\n              return\n                /* \"contracts/prop_test.sol\":2270:2659  function vote(uint proposal) public {\r... */\n            tag_25:\n                /* \"contracts/prop_test.sol\":2317:2337  Voter storage sender */\n              0x00\n                /* \"contracts/prop_test.sol\":2340:2346  voters */\n              0x05\n                /* \"contracts/prop_test.sol\":2340:2358  voters[msg.sender] */\n              0x00\n                /* \"contracts/prop_test.sol\":2347:2357  msg.sender */\n              caller\n                /* \"contracts/prop_test.sol\":2340:2358  voters[msg.sender] */\n              0xffffffffffffffffffffffffffffffffffffffff\n              and\n              0xffffffffffffffffffffffffffffffffffffffff\n              and\n              dup2\n              mstore\n              0x20\n              add\n              swap1\n              dup2\n              mstore\n              0x20\n              add\n              0x00\n              keccak256\n                /* \"contracts/prop_test.sol\":2317:2358  Voter storage sender = voters[msg.sender] */\n              swap1\n              pop\n                /* \"contracts/prop_test.sol\":2378:2384  sender */\n              dup1\n                /* \"contracts/prop_test.sol\":2378:2390  sender.voted */\n              0x01\n              add\n              0x00\n              swap1\n              sload\n              swap1\n              0x0100\n              exp\n              swap1\n              div\n              0xff\n              and\n                /* \"contracts/prop_test.sol\":2377:2390  !sender.voted */\n              iszero\n                /* \"contracts/prop_test.sol\":2369:2391  require(!sender.voted) */\n              tag_83\n              jumpi\n              0x00\n              dup1\n              revert\n            tag_83:\n                /* \"contracts/prop_test.sol\":2417:2421  true */\n              0x01\n                /* \"contracts/prop_test.sol\":2402:2408  sender */\n              dup2\n                /* \"contracts/prop_test.sol\":2402:2414  sender.voted */\n              0x01\n              add\n              0x00\n                /* \"contracts/prop_test.sol\":2402:2421  sender.voted = true */\n              0x0100\n              exp\n              dup2\n              sload\n              dup2\n              0xff\n              mul\n              not\n              and\n              swap1\n              dup4\n              iszero\n              iszero\n              mul\n              or\n              swap1\n              sstore\n              pop\n                /* \"contracts/prop_test.sol\":2446:2454  proposal */\n              dup2\n                /* \"contracts/prop_test.sol\":2432:2438  sender */\n              dup2\n                /* \"contracts/prop_test.sol\":2432:2443  sender.vote */\n              0x02\n              add\n                /* \"contracts/prop_test.sol\":2432:2454  sender.vote = proposal */\n              dup2\n              swap1\n              sstore\n              pop\n                /* \"contracts/prop_test.sol\":2638:2644  sender */\n              dup1\n                /* \"contracts/prop_test.sol\":2638:2651  sender.weight */\n              0x00\n              add\n              sload\n                /* \"contracts/prop_test.sol\":2605:2614  proposals */\n              0x06\n                /* \"contracts/prop_test.sol\":2615:2623  proposal */\n              dup4\n                /* \"contracts/prop_test.sol\":2605:2624  proposals[proposal] */\n              dup2\n              sload\n              dup2\n              lt\n              tag_84\n              jumpi\n              mstore(0x00, 0x4e487b7100000000000000000000000000000000000000000000000000000000)\n              mstore(0x04, 0x32)\n              revert(0x00, 0x24)\n            tag_84:\n              swap1\n              0x00\n              mstore\n              keccak256(0x00, 0x20)\n              swap1\n              0x02\n              mul\n              add\n                /* \"contracts/prop_test.sol\":2605:2634  proposals[proposal].voteCount */\n              0x01\n              add\n              0x00\n                /* \"contracts/prop_test.sol\":2605:2651  proposals[proposal].voteCount += sender.weight */\n              dup3\n              dup3\n              sload\n              tag_86\n              swap2\n              swap1\n              tag_87\n              jump\t// in\n            tag_86:\n              swap3\n              pop\n              pop\n              dup2\n              swap1\n              sstore\n              pop\n                /* \"contracts/prop_test.sol\":2270:2659  function vote(uint proposal) public {\r... */\n              pop\n              pop\n              jump\t// out\n                /* \"contracts/prop_test.sol\":871:898  Proposal[] public proposals */\n            tag_28:\n              0x06\n              dup2\n              dup2\n              sload\n              dup2\n              lt\n              tag_88\n              jumpi\n              0x00\n              dup1\n              revert\n            tag_88:\n              swap1\n              0x00\n              mstore\n              keccak256(0x00, 0x20)\n              swap1\n              0x02\n              mul\n              add\n              0x00\n              swap2\n              pop\n              swap1\n              pop\n              dup1\n              0x00\n              add\n              dup1\n              sload\n              tag_90\n              swap1\n              tag_91\n              jump\t// in\n            tag_90:\n              dup1\n              0x1f\n              add\n              0x20\n              dup1\n              swap2\n              div\n              mul\n              0x20\n              add\n              mload(0x40)\n              swap1\n              dup2\n              add\n              0x40\n              mstore\n              dup1\n              swap3\n              swap2\n              swap1\n              dup2\n              dup2\n              mstore\n              0x20\n              add\n              dup3\n              dup1\n              sload\n              tag_92\n              swap1\n              tag_91\n              jump\t// in\n            tag_92:\n              dup1\n              iszero\n              tag_93\n              jumpi\n              dup1\n              0x1f\n              lt\n              tag_94\n              jumpi\n              0x0100\n              dup1\n              dup4\n              sload\n              div\n              mul\n              dup4\n              mstore\n              swap2\n              0x20\n              add\n              swap2\n              jump(tag_93)\n            tag_94:\n              dup3\n              add\n              swap2\n              swap1\n              0x00\n              mstore\n              keccak256(0x00, 0x20)\n              swap1\n            tag_95:\n              dup2\n              sload\n              dup2\n              mstore\n              swap1\n              0x01\n              add\n              swap1\n              0x20\n              add\n              dup1\n              dup4\n              gt\n              tag_95\n              jumpi\n              dup3\n              swap1\n              sub\n              0x1f\n              and\n              dup3\n              add\n              swap2\n            tag_93:\n              pop\n              pop\n              pop\n              pop\n              pop\n              swap1\n              dup1\n              0x01\n              add\n              sload\n              swap1\n              pop\n              dup3\n              jump\t// out\n                /* \"contracts/prop_test.sol\":3869:3963  function getnumOfProposals() public view returns(uint){\r... */\n            tag_32:\n                /* \"contracts/prop_test.sol\":3918:3922  uint */\n              0x00\n                /* \"contracts/prop_test.sol\":3941:3955  numOfProposals */\n              sload(0x04)\n                /* \"contracts/prop_test.sol\":3934:3955  return numOfProposals */\n              swap1\n              pop\n                /* \"contracts/prop_test.sol\":3869:3963  function getnumOfProposals() public view returns(uint){\r... */\n              swap1\n              jump\t// out\n                /* \"contracts/prop_test.sol\":3749:3827  function getStatus() public view returns(uint){\r... */\n            tag_36:\n                /* \"contracts/prop_test.sol\":3790:3794  uint */\n              0x00\n                /* \"contracts/prop_test.sol\":3813:3819  status */\n              sload(0x01)\n                /* \"contracts/prop_test.sol\":3806:3819  return status */\n              swap1\n              pop\n                /* \"contracts/prop_test.sol\":3749:3827  function getStatus() public view returns(uint){\r... */\n              swap1\n              jump\t// out\n                /* \"contracts/prop_test.sol\":2667:3021  function winningProposal() public view returns (uint winningProposal){\r... */\n            tag_39:\n                /* \"contracts/prop_test.sol\":2715:2735  uint winningProposal */\n              0x00\n                /* \"contracts/prop_test.sol\":2747:2768  uint winningVoteCount */\n              dup1\n                /* \"contracts/prop_test.sol\":2771:2772  0 */\n              0x00\n                /* \"contracts/prop_test.sol\":2747:2772  uint winningVoteCount = 0 */\n              swap1\n              pop\n                /* \"contracts/prop_test.sol\":2788:2794  uint p */\n              0x00\n                /* \"contracts/prop_test.sol\":2783:3014  for (uint p = 0; p < proposals.length; p++) {\r... */\n            tag_99:\n                /* \"contracts/prop_test.sol\":2804:2813  proposals */\n              0x06\n                /* \"contracts/prop_test.sol\":2804:2820  proposals.length */\n              dup1\n              sload\n              swap1\n              pop\n                /* \"contracts/prop_test.sol\":2800:2801  p */\n              dup2\n                /* \"contracts/prop_test.sol\":2800:2820  p < proposals.length */\n              lt\n                /* \"contracts/prop_test.sol\":2783:3014  for (uint p = 0; p < proposals.length; p++) {\r... */\n              iszero\n              tag_100\n              jumpi\n                /* \"contracts/prop_test.sol\":2871:2887  winningVoteCount */\n              dup2\n                /* \"contracts/prop_test.sol\":2846:2855  proposals */\n              0x06\n                /* \"contracts/prop_test.sol\":2856:2857  p */\n              dup3\n                /* \"contracts/prop_test.sol\":2846:2858  proposals[p] */\n              dup2\n              sload\n              dup2\n              lt\n              tag_102\n              jumpi\n              mstore(0x00, 0x4e487b7100000000000000000000000000000000000000000000000000000000)\n              mstore(0x04, 0x32)\n              revert(0x00, 0x24)\n            tag_102:\n              swap1\n              0x00\n              mstore\n              keccak256(0x00, 0x20)\n              swap1\n              0x02\n              mul\n              add\n                /* \"contracts/prop_test.sol\":2846:2868  proposals[p].voteCount */\n              0x01\n              add\n              sload\n                /* \"contracts/prop_test.sol\":2846:2887  proposals[p].voteCount > winningVoteCount */\n              gt\n                /* \"contracts/prop_test.sol\":2842:3003  if (proposals[p].voteCount > winningVoteCount) {\r... */\n              iszero\n              tag_104\n              jumpi\n                /* \"contracts/prop_test.sol\":2927:2936  proposals */\n              0x06\n                /* \"contracts/prop_test.sol\":2937:2938  p */\n              dup2\n                /* \"contracts/prop_test.sol\":2927:2939  proposals[p] */\n              dup2\n              sload\n              dup2\n              lt\n              tag_105\n              jumpi\n              mstore(0x00, 0x4e487b7100000000000000000000000000000000000000000000000000000000)\n              mstore(0x04, 0x32)\n              revert(0x00, 0x24)\n            tag_105:\n              swap1\n              0x00\n              mstore\n              keccak256(0x00, 0x20)\n              swap1\n              0x02\n              mul\n              add\n                /* \"contracts/prop_test.sol\":2927:2949  proposals[p].voteCount */\n              0x01\n              add\n              sload\n                /* \"contracts/prop_test.sol\":2908:2949  winningVoteCount = proposals[p].voteCount */\n              swap2\n              pop\n                /* \"contracts/prop_test.sol\":2986:2987  p */\n              dup1\n                /* \"contracts/prop_test.sol\":2968:2987  winningProposal = p */\n              swap3\n              pop\n                /* \"contracts/prop_test.sol\":2842:3003  if (proposals[p].voteCount > winningVoteCount) {\r... */\n            tag_104:\n                /* \"contracts/prop_test.sol\":2822:2825  p++ */\n              dup1\n              dup1\n              tag_107\n              swap1\n              tag_108\n              jump\t// in\n            tag_107:\n              swap2\n              pop\n              pop\n                /* \"contracts/prop_test.sol\":2783:3014  for (uint p = 0; p < proposals.length; p++) {\r... */\n              jump(tag_99)\n            tag_100:\n              pop\n                /* \"contracts/prop_test.sol\":2667:3021  function winningProposal() public view returns (uint winningProposal){\r... */\n              pop\n              swap1\n              jump\t// out\n                /* \"contracts/prop_test.sol\":4172:4269  function getProposals() public view returns(Proposal[] memory){\r... */\n            tag_42:\n                /* \"contracts/prop_test.sol\":4216:4233  Proposal[] memory */\n              0x60\n                /* \"contracts/prop_test.sol\":4252:4261  proposals */\n              0x06\n                /* \"contracts/prop_test.sol\":4245:4261  return proposals */\n              dup1\n              sload\n              dup1\n              0x20\n              mul\n              0x20\n              add\n              mload(0x40)\n              swap1\n              dup2\n              add\n              0x40\n              mstore\n              dup1\n              swap3\n              swap2\n              swap1\n              dup2\n              dup2\n              mstore\n              0x20\n              add\n              0x00\n              swap1\n            tag_110:\n              dup3\n              dup3\n              lt\n              iszero\n              tag_111\n              jumpi\n              dup4\n              dup3\n              swap1\n              0x00\n              mstore\n              keccak256(0x00, 0x20)\n              swap1\n              0x02\n              mul\n              add\n              mload(0x40)\n              dup1\n              0x40\n              add\n              0x40\n              mstore\n              swap1\n              dup2\n              0x00\n              dup3\n              add\n              dup1\n              sload\n              tag_113\n              swap1\n              tag_91\n              jump\t// in\n            tag_113:\n              dup1\n              0x1f\n              add\n              0x20\n              dup1\n              swap2\n              div\n              mul\n              0x20\n              add\n              mload(0x40)\n              swap1\n              dup2\n              add\n              0x40\n              mstore\n              dup1\n              swap3\n              swap2\n              swap1\n              dup2\n              dup2\n              mstore\n              0x20\n              add\n              dup3\n              dup1\n              sload\n              tag_114\n              swap1\n              tag_91\n              jump\t// in\n            tag_114:\n              dup1\n              iszero\n              tag_115\n              jumpi\n              dup1\n              0x1f\n              lt\n              tag_116\n              jumpi\n              0x0100\n              dup1\n              dup4\n              sload\n              div\n              mul\n              dup4\n              mstore\n              swap2\n              0x20\n              add\n              swap2\n              jump(tag_115)\n            tag_116:\n              dup3\n              add\n              swap2\n              swap1\n              0x00\n              mstore\n              keccak256(0x00, 0x20)\n              swap1\n            tag_117:\n              dup2\n              sload\n              dup2\n              mstore\n              swap1\n              0x01\n              add\n              swap1\n              0x20\n              add\n              dup1\n              dup4\n              gt\n              tag_117\n              jumpi\n              dup3\n              swap1\n              sub\n              0x1f\n              and\n              dup3\n              add\n              swap2\n            tag_115:\n              pop\n              pop\n              pop\n              pop\n              pop\n              dup2\n              mstore\n              0x20\n              add\n              0x01\n              dup3\n              add\n              sload\n              dup2\n              mstore\n              pop\n              pop\n              dup2\n              mstore\n              0x20\n              add\n              swap1\n              0x01\n              add\n              swap1\n              jump(tag_110)\n            tag_111:\n              pop\n              pop\n              pop\n              pop\n              swap1\n              pop\n                /* \"contracts/prop_test.sol\":4172:4269  function getProposals() public view returns(Proposal[] memory){\r... */\n              swap1\n              jump\t// out\n                /* \"contracts/prop_test.sol\":3632:3706  function setStatus(uint _status) public{\r... */\n            tag_47:\n                /* \"contracts/prop_test.sol\":3691:3698  _status */\n              dup1\n                /* \"contracts/prop_test.sol\":3682:3688  status */\n              0x01\n                /* \"contracts/prop_test.sol\":3682:3698  status = _status */\n              dup2\n              swap1\n              sstore\n              pop\n                /* \"contracts/prop_test.sol\":3632:3706  function setStatus(uint _status) public{\r... */\n              pop\n              jump\t// out\n                /* \"contracts/prop_test.sol\":4434:4518  function getStartDate() public view returns(uint){\r... */\n            tag_49:\n                /* \"contracts/prop_test.sol\":4478:4482  uint */\n              0x00\n                /* \"contracts/prop_test.sol\":4501:4510  startDate */\n              sload(0x02)\n                /* \"contracts/prop_test.sol\":4494:4510  return startDate */\n              swap1\n              pop\n                /* \"contracts/prop_test.sol\":4434:4518  function getStartDate() public view returns(uint){\r... */\n              swap1\n              jump\t// out\n                /* \"contracts/prop_test.sol\":3500:3589  function getCreatorBallot() public view returns(address){\r... */\n            tag_52:\n                /* \"contracts/prop_test.sol\":3548:3555  address */\n              0x00\n                /* \"contracts/prop_test.sol\":3574:3581  creator */\n              dup1\n              0x00\n              swap1\n              sload\n              swap1\n              0x0100\n              exp\n              swap1\n              div\n              0xffffffffffffffffffffffffffffffffffffffff\n              and\n                /* \"contracts/prop_test.sol\":3567:3581  return creator */\n              swap1\n              pop\n                /* \"contracts/prop_test.sol\":3500:3589  function getCreatorBallot() public view returns(address){\r... */\n              swap1\n              jump\t// out\n                /* \"contracts/prop_test.sol\":907:1647  function createBallot(string[] memory proposalNames) public {\r... */\n            tag_58:\n                /* \"contracts/prop_test.sol\":988:998  msg.sender */\n              caller\n                /* \"contracts/prop_test.sol\":978:985  creator */\n              0x00\n              dup1\n                /* \"contracts/prop_test.sol\":978:998  creator = msg.sender */\n              0x0100\n              exp\n              dup2\n              sload\n              dup2\n              0xffffffffffffffffffffffffffffffffffffffff\n              mul\n              not\n              and\n              swap1\n              dup4\n              0xffffffffffffffffffffffffffffffffffffffff\n              and\n              mul\n              or\n              swap1\n              sstore\n              pop\n                /* \"contracts/prop_test.sol\":1034:1035  1 */\n              0x01\n                /* \"contracts/prop_test.sol\":1009:1015  voters */\n              0x05\n                /* \"contracts/prop_test.sol\":1009:1024  voters[creator] */\n              0x00\n                /* \"contracts/prop_test.sol\":1016:1023  creator */\n              dup1\n              0x00\n              swap1\n              sload\n              swap1\n              0x0100\n              exp\n              swap1\n              div\n              0xffffffffffffffffffffffffffffffffffffffff\n              and\n                /* \"contracts/prop_test.sol\":1009:1024  voters[creator] */\n              0xffffffffffffffffffffffffffffffffffffffff\n              and\n              0xffffffffffffffffffffffffffffffffffffffff\n              and\n              dup2\n              mstore\n              0x20\n              add\n              swap1\n              dup2\n              mstore\n              0x20\n              add\n              0x00\n              keccak256\n                /* \"contracts/prop_test.sol\":1009:1031  voters[creator].weight */\n              0x00\n              add\n                /* \"contracts/prop_test.sol\":1009:1035  voters[creator].weight = 1 */\n              dup2\n              swap1\n              sstore\n              pop\n                /* \"contracts/prop_test.sol\":1057:1058  0 */\n              0x00\n                /* \"contracts/prop_test.sol\":1048:1054  status */\n              0x01\n                /* \"contracts/prop_test.sol\":1048:1058  status = 0 */\n              dup2\n              swap1\n              sstore\n              pop\n                /* \"contracts/prop_test.sol\":1069:1083  setStartDate() */\n              tag_122\n                /* \"contracts/prop_test.sol\":1069:1081  setStartDate */\n              tag_123\n                /* \"contracts/prop_test.sol\":1069:1083  setStartDate() */\n              jump\t// in\n            tag_122:\n                /* \"contracts/prop_test.sol\":1111:1124  proposalNames */\n              dup1\n                /* \"contracts/prop_test.sol\":1111:1131  proposalNames.length */\n              mload\n                /* \"contracts/prop_test.sol\":1094:1108  numOfProposals */\n              0x04\n                /* \"contracts/prop_test.sol\":1094:1131  numOfProposals = proposalNames.length */\n              dup2\n              swap1\n              sstore\n              pop\n                /* \"contracts/prop_test.sol\":1291:1297  uint i */\n              0x00\n                /* \"contracts/prop_test.sol\":1286:1640  for (uint i = 0; i < proposalNames.length; i++) {\r... */\n            tag_124:\n                /* \"contracts/prop_test.sol\":1307:1320  proposalNames */\n              dup2\n                /* \"contracts/prop_test.sol\":1307:1327  proposalNames.length */\n              mload\n                /* \"contracts/prop_test.sol\":1303:1304  i */\n              dup2\n                /* \"contracts/prop_test.sol\":1303:1327  i < proposalNames.length */\n              lt\n                /* \"contracts/prop_test.sol\":1286:1640  for (uint i = 0; i < proposalNames.length; i++) {\r... */\n              iszero\n              tag_125\n              jumpi\n                /* \"contracts/prop_test.sol\":1515:1524  proposals */\n              0x06\n                /* \"contracts/prop_test.sol\":1530:1627  Proposal({\r... */\n              mload(0x40)\n              dup1\n              0x40\n              add\n              0x40\n              mstore\n              dup1\n                /* \"contracts/prop_test.sol\":1564:1577  proposalNames */\n              dup5\n                /* \"contracts/prop_test.sol\":1578:1579  i */\n              dup5\n                /* \"contracts/prop_test.sol\":1564:1580  proposalNames[i] */\n              dup2\n              mload\n              dup2\n              lt\n              tag_127\n              jumpi\n              mstore(0x00, 0x4e487b7100000000000000000000000000000000000000000000000000000000)\n              mstore(0x04, 0x32)\n              revert(0x00, 0x24)\n            tag_127:\n              0x20\n              mul\n              0x20\n              add\n              add\n              mload\n                /* \"contracts/prop_test.sol\":1530:1627  Proposal({\r... */\n              dup2\n              mstore\n              0x20\n              add\n                /* \"contracts/prop_test.sol\":1610:1611  0 */\n              0x00\n                /* \"contracts/prop_test.sol\":1530:1627  Proposal({\r... */\n              dup2\n              mstore\n              pop\n                /* \"contracts/prop_test.sol\":1515:1628  proposals.push(Proposal({\r... */\n              swap1\n              dup1\n              0x01\n              dup2\n              sload\n              add\n              dup1\n              dup3\n              sstore\n              dup1\n              swap2\n              pop\n              pop\n              0x01\n              swap1\n              sub\n              swap1\n              0x00\n              mstore\n              keccak256(0x00, 0x20)\n              swap1\n              0x02\n              mul\n              add\n              0x00\n              swap1\n              swap2\n              swap1\n              swap2\n              swap1\n              swap2\n              pop\n              0x00\n              dup3\n              add\n              mload\n              dup2\n              0x00\n              add\n              swap1\n              dup1\n              mload\n              swap1\n              0x20\n              add\n              swap1\n              tag_129\n              swap3\n              swap2\n              swap1\n              tag_130\n              jump\t// in\n            tag_129:\n              pop\n              0x20\n              dup3\n              add\n              mload\n              dup2\n              0x01\n              add\n              sstore\n              pop\n              pop\n                /* \"contracts/prop_test.sol\":1329:1332  i++ */\n              dup1\n              dup1\n              tag_131\n              swap1\n              tag_108\n              jump\t// in\n            tag_131:\n              swap2\n              pop\n              pop\n                /* \"contracts/prop_test.sol\":1286:1640  for (uint i = 0; i < proposalNames.length; i++) {\r... */\n              jump(tag_124)\n            tag_125:\n              pop\n                /* \"contracts/prop_test.sol\":907:1647  function createBallot(string[] memory proposalNames) public {\r... */\n              pop\n              jump\t// out\n                /* \"contracts/prop_test.sol\":4560:4632  function setEndDate() public{\r... */\n            tag_60:\n                /* \"contracts/prop_test.sol\":4609:4624  block.timestamp */\n              timestamp\n                /* \"contracts/prop_test.sol\":4599:4606  endDate */\n              0x03\n                /* \"contracts/prop_test.sol\":4599:4624  endDate = block.timestamp */\n              dup2\n              swap1\n              sstore\n              pop\n                /* \"contracts/prop_test.sol\":4560:4632  function setEndDate() public{\r... */\n              jump\t// out\n                /* \"contracts/prop_test.sol\":1655:2233  function giveRightToVote(address voter) public {\r... */\n            tag_64:\n                /* \"contracts/prop_test.sol\":2126:2133  creator */\n              0x00\n              dup1\n              sload\n              swap1\n              0x0100\n              exp\n              swap1\n              div\n              0xffffffffffffffffffffffffffffffffffffffff\n              and\n                /* \"contracts/prop_test.sol\":2112:2133  msg.sender == creator */\n              0xffffffffffffffffffffffffffffffffffffffff\n              and\n                /* \"contracts/prop_test.sol\":2112:2122  msg.sender */\n              caller\n                /* \"contracts/prop_test.sol\":2112:2133  msg.sender == creator */\n              0xffffffffffffffffffffffffffffffffffffffff\n              and\n              eq\n                /* \"contracts/prop_test.sol\":2111:2158  (msg.sender == creator) && !voters[voter].voted */\n              dup1\n              iszero\n              tag_134\n              jumpi\n              pop\n                /* \"contracts/prop_test.sol\":2139:2145  voters */\n              0x05\n                /* \"contracts/prop_test.sol\":2139:2152  voters[voter] */\n              0x00\n                /* \"contracts/prop_test.sol\":2146:2151  voter */\n              dup3\n                /* \"contracts/prop_test.sol\":2139:2152  voters[voter] */\n              0xffffffffffffffffffffffffffffffffffffffff\n              and\n              0xffffffffffffffffffffffffffffffffffffffff\n              and\n              dup2\n              mstore\n              0x20\n              add\n              swap1\n              dup2\n              mstore\n              0x20\n              add\n              0x00\n              keccak256\n                /* \"contracts/prop_test.sol\":2139:2158  voters[voter].voted */\n              0x01\n              add\n              0x00\n              swap1\n              sload\n              swap1\n              0x0100\n              exp\n              swap1\n              div\n              0xff\n              and\n                /* \"contracts/prop_test.sol\":2138:2158  !voters[voter].voted */\n              iszero\n                /* \"contracts/prop_test.sol\":2111:2158  (msg.sender == creator) && !voters[voter].voted */\n            tag_134:\n                /* \"contracts/prop_test.sol\":2111:2189  (msg.sender == creator) && !voters[voter].voted && (voters[voter].weight == 0) */\n              dup1\n              iszero\n              tag_135\n              jumpi\n              pop\n                /* \"contracts/prop_test.sol\":2187:2188  0 */\n              0x00\n                /* \"contracts/prop_test.sol\":2163:2169  voters */\n              0x05\n                /* \"contracts/prop_test.sol\":2163:2176  voters[voter] */\n              0x00\n                /* \"contracts/prop_test.sol\":2170:2175  voter */\n              dup4\n                /* \"contracts/prop_test.sol\":2163:2176  voters[voter] */\n              0xffffffffffffffffffffffffffffffffffffffff\n              and\n              0xffffffffffffffffffffffffffffffffffffffff\n              and\n              dup2\n              mstore\n              0x20\n              add\n              swap1\n              dup2\n              mstore\n              0x20\n              add\n              0x00\n              keccak256\n                /* \"contracts/prop_test.sol\":2163:2183  voters[voter].weight */\n              0x00\n              add\n              sload\n                /* \"contracts/prop_test.sol\":2163:2188  voters[voter].weight == 0 */\n              eq\n                /* \"contracts/prop_test.sol\":2111:2189  (msg.sender == creator) && !voters[voter].voted && (voters[voter].weight == 0) */\n            tag_135:\n                /* \"contracts/prop_test.sol\":2103:2190  require((msg.sender == creator) && !voters[voter].voted && (voters[voter].weight == 0)) */\n              tag_136\n              jumpi\n              0x00\n              dup1\n              revert\n            tag_136:\n                /* \"contracts/prop_test.sol\":2224:2225  1 */\n              0x01\n                /* \"contracts/prop_test.sol\":2201:2207  voters */\n              0x05\n                /* \"contracts/prop_test.sol\":2201:2214  voters[voter] */\n              0x00\n                /* \"contracts/prop_test.sol\":2208:2213  voter */\n              dup4\n                /* \"contracts/prop_test.sol\":2201:2214  voters[voter] */\n              0xffffffffffffffffffffffffffffffffffffffff\n              and\n              0xffffffffffffffffffffffffffffffffffffffff\n              and\n              dup2\n              mstore\n              0x20\n              add\n              swap1\n              dup2\n              mstore\n              0x20\n              add\n              0x00\n              keccak256\n                /* \"contracts/prop_test.sol\":2201:2221  voters[voter].weight */\n              0x00\n              add\n                /* \"contracts/prop_test.sol\":2201:2225  voters[voter].weight = 1 */\n              dup2\n              swap1\n              sstore\n              pop\n                /* \"contracts/prop_test.sol\":1655:2233  function giveRightToVote(address voter) public {\r... */\n              pop\n              jump\t// out\n                /* \"contracts/prop_test.sol\":766:805  mapping(address => Voter) public voters */\n            tag_67:\n              mstore(0x20, 0x05)\n              dup1\n              0x00\n              mstore\n              keccak256(0x00, 0x40)\n              0x00\n              swap2\n              pop\n              swap1\n              pop\n              dup1\n              0x00\n              add\n              sload\n              swap1\n              dup1\n              0x01\n              add\n              0x00\n              swap1\n              sload\n              swap1\n              0x0100\n              exp\n              swap1\n              div\n              0xff\n              and\n              swap1\n              dup1\n              0x01\n              add\n              0x01\n              swap1\n              sload\n              swap1\n              0x0100\n              exp\n              swap1\n              div\n              0xffffffffffffffffffffffffffffffffffffffff\n              and\n              swap1\n              dup1\n              0x02\n              add\n              sload\n              swap1\n              pop\n              dup5\n              jump\t// out\n                /* \"contracts/prop_test.sol\":4672:4752  function getEndDate() public view returns(uint){\r... */\n            tag_71:\n                /* \"contracts/prop_test.sol\":4714:4718  uint */\n              0x00\n                /* \"contracts/prop_test.sol\":4737:4744  endDate */\n              sload(0x03)\n                /* \"contracts/prop_test.sol\":4730:4744  return endDate */\n              swap1\n              pop\n                /* \"contracts/prop_test.sol\":4672:4752  function getEndDate() public view returns(uint){\r... */\n              swap1\n              jump\t// out\n                /* \"contracts/prop_test.sol\":3190:3328  function winnerName() public view returns(string memory winnerName)\r... */\n            tag_74:\n                /* \"contracts/prop_test.sol\":3232:3256  string memory winnerName */\n              0x60\n                /* \"contracts/prop_test.sol\":3287:3296  proposals */\n              0x06\n                /* \"contracts/prop_test.sol\":3297:3314  winningProposal() */\n              tag_139\n                /* \"contracts/prop_test.sol\":3297:3312  winningProposal */\n              tag_39\n                /* \"contracts/prop_test.sol\":3297:3314  winningProposal() */\n              jump\t// in\n            tag_139:\n                /* \"contracts/prop_test.sol\":3287:3315  proposals[winningProposal()] */\n              dup2\n              sload\n              dup2\n              lt\n              tag_140\n              jumpi\n              mstore(0x00, 0x4e487b7100000000000000000000000000000000000000000000000000000000)\n              mstore(0x04, 0x32)\n              revert(0x00, 0x24)\n            tag_140:\n              swap1\n              0x00\n              mstore\n              keccak256(0x00, 0x20)\n              swap1\n              0x02\n              mul\n              add\n                /* \"contracts/prop_test.sol\":3287:3320  proposals[winningProposal()].name */\n              0x00\n              add\n                /* \"contracts/prop_test.sol\":3274:3320  winnerName = proposals[winningProposal()].name */\n              dup1\n              sload\n              tag_142\n              swap1\n              tag_91\n              jump\t// in\n            tag_142:\n              dup1\n              0x1f\n              add\n              0x20\n              dup1\n              swap2\n              div\n              mul\n              0x20\n              add\n              mload(0x40)\n              swap1\n              dup2\n              add\n              0x40\n              mstore\n              dup1\n              swap3\n              swap2\n              swap1\n              dup2\n              dup2\n              mstore\n              0x20\n              add\n              dup3\n              dup1\n              sload\n              tag_143\n              swap1\n              tag_91\n              jump\t// in\n            tag_143:\n              dup1\n              iszero\n              tag_144\n              jumpi\n              dup1\n              0x1f\n              lt\n              tag_145\n              jumpi\n              0x0100\n              dup1\n              dup4\n              sload\n              div\n              mul\n              dup4\n              mstore\n              swap2\n              0x20\n              add\n              swap2\n              jump(tag_144)\n            tag_145:\n              dup3\n              add\n              swap2\n              swap1\n              0x00\n              mstore\n              keccak256(0x00, 0x20)\n              swap1\n            tag_146:\n              dup2\n              sload\n              dup2\n              mstore\n              swap1\n              0x01\n              add\n              swap1\n              0x20\n              add\n              dup1\n              dup4\n              gt\n              tag_146\n              jumpi\n              dup3\n              swap1\n              sub\n              0x1f\n              and\n              dup3\n              add\n              swap2\n            tag_144:\n              pop\n              pop\n              pop\n              pop\n              pop\n              swap1\n              pop\n                /* \"contracts/prop_test.sol\":3190:3328  function winnerName() public view returns(string memory winnerName)\r... */\n              swap1\n              jump\t// out\n                /* \"contracts/prop_test.sol\":4005:4137  function getProposalStructure(uint _proposalId) public view returns(Proposal memory){\r... */\n            tag_79:\n                /* \"contracts/prop_test.sol\":4073:4088  Proposal memory */\n              tag_147\n              tag_148\n              jump\t// in\n            tag_147:\n                /* \"contracts/prop_test.sol\":4107:4116  proposals */\n              0x06\n                /* \"contracts/prop_test.sol\":4117:4128  _proposalId */\n              dup3\n                /* \"contracts/prop_test.sol\":4107:4129  proposals[_proposalId] */\n              dup2\n              sload\n              dup2\n              lt\n              tag_150\n              jumpi\n              mstore(0x00, 0x4e487b7100000000000000000000000000000000000000000000000000000000)\n              mstore(0x04, 0x32)\n              revert(0x00, 0x24)\n            tag_150:\n              swap1\n              0x00\n              mstore\n              keccak256(0x00, 0x20)\n              swap1\n              0x02\n              mul\n              add\n                /* \"contracts/prop_test.sol\":4100:4129  return proposals[_proposalId] */\n              mload(0x40)\n              dup1\n              0x40\n              add\n              0x40\n              mstore\n              swap1\n              dup2\n              0x00\n              dup3\n              add\n              dup1\n              sload\n              tag_152\n              swap1\n              tag_91\n              jump\t// in\n            tag_152:\n              dup1\n              0x1f\n              add\n              0x20\n              dup1\n              swap2\n              div\n              mul\n              0x20\n              add\n              mload(0x40)\n              swap1\n              dup2\n              add\n              0x40\n              mstore\n              dup1\n              swap3\n              swap2\n              swap1\n              dup2\n              dup2\n              mstore\n              0x20\n              add\n              dup3\n              dup1\n              sload\n              tag_153\n              swap1\n              tag_91\n              jump\t// in\n            tag_153:\n              dup1\n              iszero\n              tag_154\n              jumpi\n              dup1\n              0x1f\n              lt\n              tag_155\n              jumpi\n              0x0100\n              dup1\n              dup4\n              sload\n              div\n              mul\n              dup4\n              mstore\n              swap2\n              0x20\n              add\n              swap2\n              jump(tag_154)\n            tag_155:\n              dup3\n              add\n              swap2\n              swap1\n              0x00\n              mstore\n              keccak256(0x00, 0x20)\n              swap1\n            tag_156:\n              dup2\n              sload\n              dup2\n              mstore\n              swap1\n              0x01\n              add\n              swap1\n              0x20\n              add\n              dup1\n              dup4\n              gt\n              tag_156\n              jumpi\n              dup3\n              swap1\n              sub\n              0x1f\n              and\n              dup3\n              add\n              swap2\n            tag_154:\n              pop\n              pop\n              pop\n              pop\n              pop\n              dup2\n              mstore\n              0x20\n              add\n              0x01\n              dup3\n              add\n              sload\n              dup2\n              mstore\n              pop\n              pop\n              swap1\n              pop\n                /* \"contracts/prop_test.sol\":4005:4137  function getProposalStructure(uint _proposalId) public view returns(Proposal memory){\r... */\n              swap2\n              swap1\n              pop\n              jump\t// out\n                /* \"contracts/prop_test.sol\":4313:4392  function setStartDate() internal {\r... */\n            tag_123:\n                /* \"contracts/prop_test.sol\":4369:4384  block.timestamp */\n              timestamp\n                /* \"contracts/prop_test.sol\":4357:4366  startDate */\n              0x02\n                /* \"contracts/prop_test.sol\":4357:4384  startDate = block.timestamp */\n              dup2\n              swap1\n              sstore\n              pop\n                /* \"contracts/prop_test.sol\":4313:4392  function setStartDate() internal {\r... */\n              jump\t// out\n            tag_130:\n              dup3\n              dup1\n              sload\n              tag_158\n              swap1\n              tag_91\n              jump\t// in\n            tag_158:\n              swap1\n              0x00\n              mstore\n              keccak256(0x00, 0x20)\n              swap1\n              0x1f\n              add\n              0x20\n              swap1\n              div\n              dup2\n              add\n              swap3\n              dup3\n              tag_160\n              jumpi\n              0x00\n              dup6\n              sstore\n              jump(tag_159)\n            tag_160:\n              dup3\n              0x1f\n              lt\n              tag_161\n              jumpi\n              dup1\n              mload\n              not(0xff)\n              and\n              dup4\n              dup1\n              add\n              or\n              dup6\n              sstore\n              jump(tag_159)\n            tag_161:\n              dup3\n              dup1\n              add\n              0x01\n              add\n              dup6\n              sstore\n              dup3\n              iszero\n              tag_159\n              jumpi\n              swap2\n              dup3\n              add\n            tag_162:\n              dup3\n              dup2\n              gt\n              iszero\n              tag_163\n              jumpi\n              dup3\n              mload\n              dup3\n              sstore\n              swap2\n              0x20\n              add\n              swap2\n              swap1\n              0x01\n              add\n              swap1\n              jump(tag_162)\n            tag_163:\n            tag_159:\n              pop\n              swap1\n              pop\n              tag_164\n              swap2\n              swap1\n              tag_165\n              jump\t// in\n            tag_164:\n              pop\n              swap1\n              jump\t// out\n            tag_148:\n              mload(0x40)\n              dup1\n              0x40\n              add\n              0x40\n              mstore\n              dup1\n              0x60\n              dup2\n              mstore\n              0x20\n              add\n              0x00\n              dup2\n              mstore\n              pop\n              swap1\n              jump\t// out\n            tag_165:\n            tag_166:\n              dup1\n              dup3\n              gt\n              iszero\n              tag_167\n              jumpi\n              0x00\n              dup2\n              0x00\n              swap1\n              sstore\n              pop\n              0x01\n              add\n              jump(tag_166)\n            tag_167:\n              pop\n              swap1\n              jump\t// out\n                /* \"#utility.yul\":23:638   */\n            tag_169:\n              0x00\n                /* \"#utility.yul\":154:244   */\n              tag_171\n                /* \"#utility.yul\":169:243   */\n              tag_172\n                /* \"#utility.yul\":236:242   */\n              dup5\n                /* \"#utility.yul\":169:243   */\n              tag_173\n              jump\t// in\n            tag_172:\n                /* \"#utility.yul\":154:244   */\n              tag_174\n              jump\t// in\n            tag_171:\n                /* \"#utility.yul\":145:244   */\n              swap1\n              pop\n                /* \"#utility.yul\":264:269   */\n              dup1\n                /* \"#utility.yul\":292:298   */\n              dup4\n                /* \"#utility.yul\":285:290   */\n              dup3\n                /* \"#utility.yul\":278:299   */\n              mstore\n                /* \"#utility.yul\":318:322   */\n              0x20\n                /* \"#utility.yul\":311:316   */\n              dup3\n                /* \"#utility.yul\":307:323   */\n              add\n                /* \"#utility.yul\":300:323   */\n              swap1\n              pop\n                /* \"#utility.yul\":343:349   */\n              dup3\n                /* \"#utility.yul\":374:375   */\n              0x00\n                /* \"#utility.yul\":359:632   */\n            tag_175:\n                /* \"#utility.yul\":384:390   */\n              dup6\n                /* \"#utility.yul\":381:382   */\n              dup2\n                /* \"#utility.yul\":378:391   */\n              lt\n                /* \"#utility.yul\":359:632   */\n              iszero\n              tag_177\n              jumpi\n                /* \"#utility.yul\":476:479   */\n              dup2\n                /* \"#utility.yul\":463:480   */\n              calldataload\n                /* \"#utility.yul\":455:461   */\n              dup6\n                /* \"#utility.yul\":451:481   */\n              add\n                /* \"#utility.yul\":506:553   */\n              tag_178\n                /* \"#utility.yul\":549:552   */\n              dup9\n                /* \"#utility.yul\":537:547   */\n              dup3\n                /* \"#utility.yul\":506:553   */\n              tag_179\n              jump\t// in\n            tag_178:\n                /* \"#utility.yul\":501:504   */\n              dup5\n                /* \"#utility.yul\":494:554   */\n              mstore\n                /* \"#utility.yul\":583:587   */\n              0x20\n                /* \"#utility.yul\":578:581   */\n              dup5\n                /* \"#utility.yul\":574:588   */\n              add\n                /* \"#utility.yul\":567:588   */\n              swap4\n              pop\n                /* \"#utility.yul\":617:621   */\n              0x20\n                /* \"#utility.yul\":612:615   */\n              dup4\n                /* \"#utility.yul\":608:622   */\n              add\n                /* \"#utility.yul\":601:622   */\n              swap3\n              pop\n                /* \"#utility.yul\":419:632   */\n              pop\n                /* \"#utility.yul\":406:407   */\n              0x01\n                /* \"#utility.yul\":403:404   */\n              dup2\n                /* \"#utility.yul\":399:408   */\n              add\n                /* \"#utility.yul\":394:408   */\n              swap1\n              pop\n                /* \"#utility.yul\":359:632   */\n              jump(tag_175)\n            tag_177:\n                /* \"#utility.yul\":363:377   */\n              pop\n                /* \"#utility.yul\":135:638   */\n              pop\n              pop\n              swap4\n              swap3\n              pop\n              pop\n              pop\n              jump\t// out\n                /* \"#utility.yul\":644:988   */\n            tag_180:\n              0x00\n                /* \"#utility.yul\":747:812   */\n              tag_182\n                /* \"#utility.yul\":762:811   */\n              tag_183\n                /* \"#utility.yul\":804:810   */\n              dup5\n                /* \"#utility.yul\":762:811   */\n              tag_184\n              jump\t// in\n            tag_183:\n                /* \"#utility.yul\":747:812   */\n              tag_174\n              jump\t// in\n            tag_182:\n                /* \"#utility.yul\":738:812   */\n              swap1\n              pop\n                /* \"#utility.yul\":835:841   */\n              dup3\n                /* \"#utility.yul\":828:833   */\n              dup2\n                /* \"#utility.yul\":821:842   */\n              mstore\n                /* \"#utility.yul\":873:877   */\n              0x20\n                /* \"#utility.yul\":866:871   */\n              dup2\n                /* \"#utility.yul\":862:878   */\n              add\n                /* \"#utility.yul\":911:914   */\n              dup5\n                /* \"#utility.yul\":902:908   */\n              dup5\n                /* \"#utility.yul\":897:900   */\n              dup5\n                /* \"#utility.yul\":893:909   */\n              add\n                /* \"#utility.yul\":890:915   */\n              gt\n                /* \"#utility.yul\":887:889   */\n              iszero\n              tag_185\n              jumpi\n                /* \"#utility.yul\":928:929   */\n              0x00\n                /* \"#utility.yul\":925:926   */\n              dup1\n                /* \"#utility.yul\":918:930   */\n              revert\n                /* \"#utility.yul\":887:889   */\n            tag_185:\n                /* \"#utility.yul\":941:982   */\n              tag_186\n                /* \"#utility.yul\":975:981   */\n              dup5\n                /* \"#utility.yul\":970:973   */\n              dup3\n                /* \"#utility.yul\":965:968   */\n              dup6\n                /* \"#utility.yul\":941:982   */\n              tag_187\n              jump\t// in\n            tag_186:\n                /* \"#utility.yul\":728:988   */\n              pop\n              swap4\n              swap3\n              pop\n              pop\n              pop\n              jump\t// out\n                /* \"#utility.yul\":994:1133   */\n            tag_188:\n              0x00\n                /* \"#utility.yul\":1078:1084   */\n              dup2\n                /* \"#utility.yul\":1065:1085   */\n              calldataload\n                /* \"#utility.yul\":1056:1085   */\n              swap1\n              pop\n                /* \"#utility.yul\":1094:1127   */\n              tag_190\n                /* \"#utility.yul\":1121:1126   */\n              dup2\n                /* \"#utility.yul\":1094:1127   */\n              tag_191\n              jump\t// in\n            tag_190:\n                /* \"#utility.yul\":1046:1133   */\n              swap3\n              swap2\n              pop\n              pop\n              jump\t// out\n                /* \"#utility.yul\":1155:1478   */\n            tag_192:\n              0x00\n                /* \"#utility.yul\":1285:1288   */\n              dup3\n                /* \"#utility.yul\":1278:1282   */\n              0x1f\n                /* \"#utility.yul\":1270:1276   */\n              dup4\n                /* \"#utility.yul\":1266:1283   */\n              add\n                /* \"#utility.yul\":1262:1289   */\n              slt\n                /* \"#utility.yul\":1252:1254   */\n              tag_194\n              jumpi\n                /* \"#utility.yul\":1303:1304   */\n              0x00\n                /* \"#utility.yul\":1300:1301   */\n              dup1\n                /* \"#utility.yul\":1293:1305   */\n              revert\n                /* \"#utility.yul\":1252:1254   */\n            tag_194:\n                /* \"#utility.yul\":1343:1349   */\n              dup2\n                /* \"#utility.yul\":1330:1350   */\n              calldataload\n                /* \"#utility.yul\":1368:1472   */\n              tag_195\n                /* \"#utility.yul\":1468:1471   */\n              dup5\n                /* \"#utility.yul\":1460:1466   */\n              dup3\n                /* \"#utility.yul\":1453:1457   */\n              0x20\n                /* \"#utility.yul\":1445:1451   */\n              dup7\n                /* \"#utility.yul\":1441:1458   */\n              add\n                /* \"#utility.yul\":1368:1472   */\n              tag_169\n              jump\t// in\n            tag_195:\n                /* \"#utility.yul\":1359:1472   */\n              swap2\n              pop\n                /* \"#utility.yul\":1242:1478   */\n              pop\n              swap3\n              swap2\n              pop\n              pop\n              jump\t// out\n                /* \"#utility.yul\":1498:1771   */\n            tag_179:\n              0x00\n                /* \"#utility.yul\":1603:1606   */\n              dup3\n                /* \"#utility.yul\":1596:1600   */\n              0x1f\n                /* \"#utility.yul\":1588:1594   */\n              dup4\n                /* \"#utility.yul\":1584:1601   */\n              add\n                /* \"#utility.yul\":1580:1607   */\n              slt\n                /* \"#utility.yul\":1570:1572   */\n              tag_197\n              jumpi\n                /* \"#utility.yul\":1621:1622   */\n              0x00\n                /* \"#utility.yul\":1618:1619   */\n              dup1\n                /* \"#utility.yul\":1611:1623   */\n              revert\n                /* \"#utility.yul\":1570:1572   */\n            tag_197:\n                /* \"#utility.yul\":1661:1667   */\n              dup2\n                /* \"#utility.yul\":1648:1668   */\n              calldataload\n                /* \"#utility.yul\":1686:1765   */\n              tag_198\n                /* \"#utility.yul\":1761:1764   */\n              dup5\n                /* \"#utility.yul\":1753:1759   */\n              dup3\n                /* \"#utility.yul\":1746:1750   */\n              0x20\n                /* \"#utility.yul\":1738:1744   */\n              dup7\n                /* \"#utility.yul\":1734:1751   */\n              add\n                /* \"#utility.yul\":1686:1765   */\n              tag_180\n              jump\t// in\n            tag_198:\n                /* \"#utility.yul\":1677:1765   */\n              swap2\n              pop\n                /* \"#utility.yul\":1560:1771   */\n              pop\n              swap3\n              swap2\n              pop\n              pop\n              jump\t// out\n                /* \"#utility.yul\":1777:1916   */\n            tag_199:\n              0x00\n                /* \"#utility.yul\":1861:1867   */\n              dup2\n                /* \"#utility.yul\":1848:1868   */\n              calldataload\n                /* \"#utility.yul\":1839:1868   */\n              swap1\n              pop\n                /* \"#utility.yul\":1877:1910   */\n              tag_201\n                /* \"#utility.yul\":1904:1909   */\n              dup2\n                /* \"#utility.yul\":1877:1910   */\n              tag_202\n              jump\t// in\n            tag_201:\n                /* \"#utility.yul\":1829:1916   */\n              swap3\n              swap2\n              pop\n              pop\n              jump\t// out\n                /* \"#utility.yul\":1922:2184   */\n            tag_63:\n              0x00\n                /* \"#utility.yul\":2030:2032   */\n              0x20\n                /* \"#utility.yul\":2018:2027   */\n              dup3\n                /* \"#utility.yul\":2009:2016   */\n              dup5\n                /* \"#utility.yul\":2005:2028   */\n              sub\n                /* \"#utility.yul\":2001:2033   */\n              slt\n                /* \"#utility.yul\":1998:2000   */\n              iszero\n              tag_204\n              jumpi\n                /* \"#utility.yul\":2046:2047   */\n              0x00\n                /* \"#utility.yul\":2043:2044   */\n              dup1\n                /* \"#utility.yul\":2036:2048   */\n              revert\n                /* \"#utility.yul\":1998:2000   */\n            tag_204:\n                /* \"#utility.yul\":2089:2090   */\n              0x00\n                /* \"#utility.yul\":2114:2167   */\n              tag_205\n                /* \"#utility.yul\":2159:2166   */\n              dup5\n                /* \"#utility.yul\":2150:2156   */\n              dup3\n                /* \"#utility.yul\":2139:2148   */\n              dup6\n                /* \"#utility.yul\":2135:2157   */\n              add\n                /* \"#utility.yul\":2114:2167   */\n              tag_188\n              jump\t// in\n            tag_205:\n                /* \"#utility.yul\":2104:2167   */\n              swap2\n              pop\n                /* \"#utility.yul\":2060:2177   */\n              pop\n                /* \"#utility.yul\":1988:2184   */\n              swap3\n              swap2\n              pop\n              pop\n              jump\t// out\n                /* \"#utility.yul\":2190:2615   */\n            tag_57:\n              0x00\n                /* \"#utility.yul\":2333:2335   */\n              0x20\n                /* \"#utility.yul\":2321:2330   */\n              dup3\n                /* \"#utility.yul\":2312:2319   */\n              dup5\n                /* \"#utility.yul\":2308:2331   */\n              sub\n                /* \"#utility.yul\":2304:2336   */\n              slt\n                /* \"#utility.yul\":2301:2303   */\n              iszero\n              tag_207\n              jumpi\n                /* \"#utility.yul\":2349:2350   */\n              0x00\n                /* \"#utility.yul\":2346:2347   */\n              dup1\n                /* \"#utility.yul\":2339:2351   */\n              revert\n                /* \"#utility.yul\":2301:2303   */\n            tag_207:\n                /* \"#utility.yul\":2420:2421   */\n              0x00\n                /* \"#utility.yul\":2409:2418   */\n              dup3\n                /* \"#utility.yul\":2405:2422   */\n              add\n                /* \"#utility.yul\":2392:2423   */\n              calldataload\n                /* \"#utility.yul\":2450:2468   */\n              0xffffffffffffffff\n                /* \"#utility.yul\":2442:2448   */\n              dup2\n                /* \"#utility.yul\":2439:2469   */\n              gt\n                /* \"#utility.yul\":2436:2438   */\n              iszero\n              tag_208\n              jumpi\n                /* \"#utility.yul\":2482:2483   */\n              0x00\n                /* \"#utility.yul\":2479:2480   */\n              dup1\n                /* \"#utility.yul\":2472:2484   */\n              revert\n                /* \"#utility.yul\":2436:2438   */\n            tag_208:\n                /* \"#utility.yul\":2510:2598   */\n              tag_209\n                /* \"#utility.yul\":2590:2597   */\n              dup5\n                /* \"#utility.yul\":2581:2587   */\n              dup3\n                /* \"#utility.yul\":2570:2579   */\n              dup6\n                /* \"#utility.yul\":2566:2588   */\n              add\n                /* \"#utility.yul\":2510:2598   */\n              tag_192\n              jump\t// in\n            tag_209:\n                /* \"#utility.yul\":2500:2598   */\n              swap2\n              pop\n                /* \"#utility.yul\":2363:2608   */\n              pop\n                /* \"#utility.yul\":2291:2615   */\n              swap3\n              swap2\n              pop\n              pop\n              jump\t// out\n                /* \"#utility.yul\":2621:2883   */\n            tag_24:\n              0x00\n                /* \"#utility.yul\":2729:2731   */\n              0x20\n                /* \"#utility.yul\":2717:2726   */\n              dup3\n                /* \"#utility.yul\":2708:2715   */\n              dup5\n                /* \"#utility.yul\":2704:2727   */\n              sub\n                /* \"#utility.yul\":2700:2732   */\n              slt\n                /* \"#utility.yul\":2697:2699   */\n              iszero\n              tag_211\n              jumpi\n                /* \"#utility.yul\":2745:2746   */\n              0x00\n                /* \"#utility.yul\":2742:2743   */\n              dup1\n                /* \"#utility.yul\":2735:2747   */\n              revert\n                /* \"#utility.yul\":2697:2699   */\n            tag_211:\n                /* \"#utility.yul\":2788:2789   */\n              0x00\n                /* \"#utility.yul\":2813:2866   */\n              tag_212\n                /* \"#utility.yul\":2858:2865   */\n              dup5\n                /* \"#utility.yul\":2849:2855   */\n              dup3\n                /* \"#utility.yul\":2838:2847   */\n              dup6\n                /* \"#utility.yul\":2834:2856   */\n              add\n                /* \"#utility.yul\":2813:2866   */\n              tag_199\n              jump\t// in\n            tag_212:\n                /* \"#utility.yul\":2803:2866   */\n              swap2\n              pop\n                /* \"#utility.yul\":2759:2876   */\n              pop\n                /* \"#utility.yul\":2687:2883   */\n              swap3\n              swap2\n              pop\n              pop\n              jump\t// out\n                /* \"#utility.yul\":2889:3141   */\n            tag_213:\n              0x00\n                /* \"#utility.yul\":3041:3135   */\n              tag_215\n                /* \"#utility.yul\":3131:3134   */\n              dup4\n                /* \"#utility.yul\":3123:3129   */\n              dup4\n                /* \"#utility.yul\":3041:3135   */\n              tag_216\n              jump\t// in\n            tag_215:\n                /* \"#utility.yul\":3027:3135   */\n              swap1\n              pop\n                /* \"#utility.yul\":3017:3141   */\n              swap3\n              swap2\n              pop\n              pop\n              jump\t// out\n                /* \"#utility.yul\":3147:3265   */\n            tag_217:\n                /* \"#utility.yul\":3234:3258   */\n              tag_219\n                /* \"#utility.yul\":3252:3257   */\n              dup2\n                /* \"#utility.yul\":3234:3258   */\n              tag_220\n              jump\t// in\n            tag_219:\n                /* \"#utility.yul\":3229:3232   */\n              dup3\n                /* \"#utility.yul\":3222:3259   */\n              mstore\n                /* \"#utility.yul\":3212:3265   */\n              pop\n              pop\n              jump\t// out\n                /* \"#utility.yul\":3331:4434   */\n            tag_221:\n              0x00\n                /* \"#utility.yul\":3527:3605   */\n              tag_223\n                /* \"#utility.yul\":3599:3604   */\n              dup3\n                /* \"#utility.yul\":3527:3605   */\n              tag_224\n              jump\t// in\n            tag_223:\n                /* \"#utility.yul\":3621:3731   */\n              tag_225\n                /* \"#utility.yul\":3724:3730   */\n              dup2\n                /* \"#utility.yul\":3719:3722   */\n              dup6\n                /* \"#utility.yul\":3621:3731   */\n              tag_226\n              jump\t// in\n            tag_225:\n                /* \"#utility.yul\":3614:3731   */\n              swap4\n              pop\n                /* \"#utility.yul\":3757:3760   */\n              dup4\n                /* \"#utility.yul\":3802:3806   */\n              0x20\n                /* \"#utility.yul\":3794:3800   */\n              dup3\n                /* \"#utility.yul\":3790:3807   */\n              mul\n                /* \"#utility.yul\":3785:3788   */\n              dup6\n                /* \"#utility.yul\":3781:3808   */\n              add\n                /* \"#utility.yul\":3832:3912   */\n              tag_227\n                /* \"#utility.yul\":3906:3911   */\n              dup6\n                /* \"#utility.yul\":3832:3912   */\n              tag_228\n              jump\t// in\n            tag_227:\n                /* \"#utility.yul\":3935:3942   */\n              dup1\n                /* \"#utility.yul\":3966:3967   */\n              0x00\n                /* \"#utility.yul\":3951:4389   */\n            tag_229:\n                /* \"#utility.yul\":3976:3982   */\n              dup6\n                /* \"#utility.yul\":3973:3974   */\n              dup2\n                /* \"#utility.yul\":3970:3983   */\n              lt\n                /* \"#utility.yul\":3951:4389   */\n              iszero\n              tag_231\n              jumpi\n                /* \"#utility.yul\":4047:4056   */\n              dup5\n                /* \"#utility.yul\":4041:4045   */\n              dup5\n                /* \"#utility.yul\":4037:4057   */\n              sub\n                /* \"#utility.yul\":4032:4035   */\n              dup10\n                /* \"#utility.yul\":4025:4058   */\n              mstore\n                /* \"#utility.yul\":4098:4104   */\n              dup2\n                /* \"#utility.yul\":4092:4105   */\n              mload\n                /* \"#utility.yul\":4126:4238   */\n              tag_232\n                /* \"#utility.yul\":4233:4237   */\n              dup6\n                /* \"#utility.yul\":4218:4231   */\n              dup3\n                /* \"#utility.yul\":4126:4238   */\n              tag_213\n              jump\t// in\n            tag_232:\n                /* \"#utility.yul\":4118:4238   */\n              swap5\n              pop\n                /* \"#utility.yul\":4261:4345   */\n              tag_233\n                /* \"#utility.yul\":4338:4344   */\n              dup4\n                /* \"#utility.yul\":4261:4345   */\n              tag_234\n              jump\t// in\n            tag_233:\n                /* \"#utility.yul\":4251:4345   */\n              swap3\n              pop\n                /* \"#utility.yul\":4374:4378   */\n              0x20\n                /* \"#utility.yul\":4369:4372   */\n              dup11\n                /* \"#utility.yul\":4365:4379   */\n              add\n                /* \"#utility.yul\":4358:4379   */\n              swap10\n              pop\n                /* \"#utility.yul\":4011:4389   */\n              pop\n                /* \"#utility.yul\":3998:3999   */\n              0x01\n                /* \"#utility.yul\":3995:3996   */\n              dup2\n                /* \"#utility.yul\":3991:4000   */\n              add\n                /* \"#utility.yul\":3986:4000   */\n              swap1\n              pop\n                /* \"#utility.yul\":3951:4389   */\n              jump(tag_229)\n            tag_231:\n                /* \"#utility.yul\":3955:3969   */\n              pop\n                /* \"#utility.yul\":4405:4409   */\n              dup3\n                /* \"#utility.yul\":4398:4409   */\n              swap8\n              pop\n                /* \"#utility.yul\":4425:4428   */\n              dup8\n                /* \"#utility.yul\":4418:4428   */\n              swap6\n              pop\n                /* \"#utility.yul\":3503:4434   */\n              pop\n              pop\n              pop\n              pop\n              pop\n              swap3\n              swap2\n              pop\n              pop\n              jump\t// out\n                /* \"#utility.yul\":4440:4549   */\n            tag_235:\n                /* \"#utility.yul\":4521:4542   */\n              tag_237\n                /* \"#utility.yul\":4536:4541   */\n              dup2\n                /* \"#utility.yul\":4521:4542   */\n              tag_238\n              jump\t// in\n            tag_237:\n                /* \"#utility.yul\":4516:4519   */\n              dup3\n                /* \"#utility.yul\":4509:4543   */\n              mstore\n                /* \"#utility.yul\":4499:4549   */\n              pop\n              pop\n              jump\t// out\n                /* \"#utility.yul\":4555:4899   */\n            tag_239:\n              0x00\n                /* \"#utility.yul\":4661:4700   */\n              tag_241\n                /* \"#utility.yul\":4694:4699   */\n              dup3\n                /* \"#utility.yul\":4661:4700   */\n              tag_242\n              jump\t// in\n            tag_241:\n                /* \"#utility.yul\":4716:4777   */\n              tag_243\n                /* \"#utility.yul\":4770:4776   */\n              dup2\n                /* \"#utility.yul\":4765:4768   */\n              dup6\n                /* \"#utility.yul\":4716:4777   */\n              tag_244\n              jump\t// in\n            tag_243:\n                /* \"#utility.yul\":4709:4777   */\n              swap4\n              pop\n                /* \"#utility.yul\":4786:4838   */\n              tag_245\n                /* \"#utility.yul\":4831:4837   */\n              dup2\n                /* \"#utility.yul\":4826:4829   */\n              dup6\n                /* \"#utility.yul\":4819:4823   */\n              0x20\n                /* \"#utility.yul\":4812:4817   */\n              dup7\n                /* \"#utility.yul\":4808:4824   */\n              add\n                /* \"#utility.yul\":4786:4838   */\n              tag_246\n              jump\t// in\n            tag_245:\n                /* \"#utility.yul\":4863:4892   */\n              tag_247\n                /* \"#utility.yul\":4885:4891   */\n              dup2\n                /* \"#utility.yul\":4863:4892   */\n              tag_248\n              jump\t// in\n            tag_247:\n                /* \"#utility.yul\":4858:4861   */\n              dup5\n                /* \"#utility.yul\":4854:4893   */\n              add\n                /* \"#utility.yul\":4847:4893   */\n              swap2\n              pop\n                /* \"#utility.yul\":4637:4899   */\n              pop\n              swap3\n              swap2\n              pop\n              pop\n              jump\t// out\n                /* \"#utility.yul\":4905:5269   */\n            tag_249:\n              0x00\n                /* \"#utility.yul\":5021:5060   */\n              tag_251\n                /* \"#utility.yul\":5054:5059   */\n              dup3\n                /* \"#utility.yul\":5021:5060   */\n              tag_242\n              jump\t// in\n            tag_251:\n                /* \"#utility.yul\":5076:5147   */\n              tag_252\n                /* \"#utility.yul\":5140:5146   */\n              dup2\n                /* \"#utility.yul\":5135:5138   */\n              dup6\n                /* \"#utility.yul\":5076:5147   */\n              tag_253\n              jump\t// in\n            tag_252:\n                /* \"#utility.yul\":5069:5147   */\n              swap4\n              pop\n                /* \"#utility.yul\":5156:5208   */\n              tag_254\n                /* \"#utility.yul\":5201:5207   */\n              dup2\n                /* \"#utility.yul\":5196:5199   */\n              dup6\n                /* \"#utility.yul\":5189:5193   */\n              0x20\n                /* \"#utility.yul\":5182:5187   */\n              dup7\n                /* \"#utility.yul\":5178:5194   */\n              add\n                /* \"#utility.yul\":5156:5208   */\n              tag_246\n              jump\t// in\n            tag_254:\n                /* \"#utility.yul\":5233:5262   */\n              tag_255\n                /* \"#utility.yul\":5255:5261   */\n              dup2\n                /* \"#utility.yul\":5233:5262   */\n              tag_248\n              jump\t// in\n            tag_255:\n                /* \"#utility.yul\":5228:5231   */\n              dup5\n                /* \"#utility.yul\":5224:5263   */\n              add\n                /* \"#utility.yul\":5217:5263   */\n              swap2\n              pop\n                /* \"#utility.yul\":4997:5269   */\n              pop\n              swap3\n              swap2\n              pop\n              pop\n              jump\t// out\n                /* \"#utility.yul\":5331:5930   */\n            tag_216:\n              0x00\n                /* \"#utility.yul\":5474:5478   */\n              0x40\n                /* \"#utility.yul\":5469:5472   */\n              dup4\n                /* \"#utility.yul\":5465:5479   */\n              add\n                /* \"#utility.yul\":5561:5565   */\n              0x00\n                /* \"#utility.yul\":5554:5559   */\n              dup4\n                /* \"#utility.yul\":5550:5566   */\n              add\n                /* \"#utility.yul\":5544:5567   */\n              mload\n                /* \"#utility.yul\":5614:5617   */\n              dup5\n                /* \"#utility.yul\":5608:5612   */\n              dup3\n                /* \"#utility.yul\":5604:5618   */\n              sub\n                /* \"#utility.yul\":5597:5601   */\n              0x00\n                /* \"#utility.yul\":5592:5595   */\n              dup7\n                /* \"#utility.yul\":5588:5602   */\n              add\n                /* \"#utility.yul\":5581:5619   */\n              mstore\n                /* \"#utility.yul\":5640:5713   */\n              tag_257\n                /* \"#utility.yul\":5708:5712   */\n              dup3\n                /* \"#utility.yul\":5694:5706   */\n              dup3\n                /* \"#utility.yul\":5640:5713   */\n              tag_239\n              jump\t// in\n            tag_257:\n                /* \"#utility.yul\":5632:5713   */\n              swap2\n              pop\n                /* \"#utility.yul\":5489:5724   */\n              pop\n                /* \"#utility.yul\":5811:5815   */\n              0x20\n                /* \"#utility.yul\":5804:5809   */\n              dup4\n                /* \"#utility.yul\":5800:5816   */\n              add\n                /* \"#utility.yul\":5794:5817   */\n              mload\n                /* \"#utility.yul\":5830:5893   */\n              tag_258\n                /* \"#utility.yul\":5887:5891   */\n              0x20\n                /* \"#utility.yul\":5882:5885   */\n              dup7\n                /* \"#utility.yul\":5878:5892   */\n              add\n                /* \"#utility.yul\":5864:5876   */\n              dup3\n                /* \"#utility.yul\":5830:5893   */\n              tag_259\n              jump\t// in\n            tag_258:\n                /* \"#utility.yul\":5734:5903   */\n              pop\n                /* \"#utility.yul\":5920:5924   */\n              dup1\n                /* \"#utility.yul\":5913:5924   */\n              swap2\n              pop\n                /* \"#utility.yul\":5443:5930   */\n              pop\n              swap3\n              swap2\n              pop\n              pop\n              jump\t// out\n                /* \"#utility.yul\":5992:6601   */\n            tag_260:\n              0x00\n                /* \"#utility.yul\":6145:6149   */\n              0x40\n                /* \"#utility.yul\":6140:6143   */\n              dup4\n                /* \"#utility.yul\":6136:6150   */\n              add\n                /* \"#utility.yul\":6232:6236   */\n              0x00\n                /* \"#utility.yul\":6225:6230   */\n              dup4\n                /* \"#utility.yul\":6221:6237   */\n              add\n                /* \"#utility.yul\":6215:6238   */\n              mload\n                /* \"#utility.yul\":6285:6288   */\n              dup5\n                /* \"#utility.yul\":6279:6283   */\n              dup3\n                /* \"#utility.yul\":6275:6289   */\n              sub\n                /* \"#utility.yul\":6268:6272   */\n              0x00\n                /* \"#utility.yul\":6263:6266   */\n              dup7\n                /* \"#utility.yul\":6259:6273   */\n              add\n                /* \"#utility.yul\":6252:6290   */\n              mstore\n                /* \"#utility.yul\":6311:6384   */\n              tag_262\n                /* \"#utility.yul\":6379:6383   */\n              dup3\n                /* \"#utility.yul\":6365:6377   */\n              dup3\n                /* \"#utility.yul\":6311:6384   */\n              tag_239\n              jump\t// in\n            tag_262:\n                /* \"#utility.yul\":6303:6384   */\n              swap2\n              pop\n                /* \"#utility.yul\":6160:6395   */\n              pop\n                /* \"#utility.yul\":6482:6486   */\n              0x20\n                /* \"#utility.yul\":6475:6480   */\n              dup4\n                /* \"#utility.yul\":6471:6487   */\n              add\n                /* \"#utility.yul\":6465:6488   */\n              mload\n                /* \"#utility.yul\":6501:6564   */\n              tag_263\n                /* \"#utility.yul\":6558:6562   */\n              0x20\n                /* \"#utility.yul\":6553:6556   */\n              dup7\n                /* \"#utility.yul\":6549:6563   */\n              add\n                /* \"#utility.yul\":6535:6547   */\n              dup3\n                /* \"#utility.yul\":6501:6564   */\n              tag_259\n              jump\t// in\n            tag_263:\n                /* \"#utility.yul\":6405:6574   */\n              pop\n                /* \"#utility.yul\":6591:6595   */\n              dup1\n                /* \"#utility.yul\":6584:6595   */\n              swap2\n              pop\n                /* \"#utility.yul\":6114:6601   */\n              pop\n              swap3\n              swap2\n              pop\n              pop\n              jump\t// out\n                /* \"#utility.yul\":6607:6715   */\n            tag_259:\n                /* \"#utility.yul\":6684:6708   */\n              tag_265\n                /* \"#utility.yul\":6702:6707   */\n              dup2\n                /* \"#utility.yul\":6684:6708   */\n              tag_266\n              jump\t// in\n            tag_265:\n                /* \"#utility.yul\":6679:6682   */\n              dup3\n                /* \"#utility.yul\":6672:6709   */\n              mstore\n                /* \"#utility.yul\":6662:6715   */\n              pop\n              pop\n              jump\t// out\n                /* \"#utility.yul\":6721:6839   */\n            tag_267:\n                /* \"#utility.yul\":6808:6832   */\n              tag_269\n                /* \"#utility.yul\":6826:6831   */\n              dup2\n                /* \"#utility.yul\":6808:6832   */\n              tag_266\n              jump\t// in\n            tag_269:\n                /* \"#utility.yul\":6803:6806   */\n              dup3\n                /* \"#utility.yul\":6796:6833   */\n              mstore\n                /* \"#utility.yul\":6786:6839   */\n              pop\n              pop\n              jump\t// out\n                /* \"#utility.yul\":6845:7067   */\n            tag_54:\n              0x00\n                /* \"#utility.yul\":6976:6978   */\n              0x20\n                /* \"#utility.yul\":6965:6974   */\n              dup3\n                /* \"#utility.yul\":6961:6979   */\n              add\n                /* \"#utility.yul\":6953:6979   */\n              swap1\n              pop\n                /* \"#utility.yul\":6989:7060   */\n              tag_271\n                /* \"#utility.yul\":7057:7058   */\n              0x00\n                /* \"#utility.yul\":7046:7055   */\n              dup4\n                /* \"#utility.yul\":7042:7059   */\n              add\n                /* \"#utility.yul\":7033:7039   */\n              dup5\n                /* \"#utility.yul\":6989:7060   */\n              tag_217\n              jump\t// in\n            tag_271:\n                /* \"#utility.yul\":6943:7067   */\n              swap3\n              swap2\n              pop\n              pop\n              jump\t// out\n                /* \"#utility.yul\":7073:7542   */\n            tag_44:\n              0x00\n                /* \"#utility.yul\":7302:7304   */\n              0x20\n                /* \"#utility.yul\":7291:7300   */\n              dup3\n                /* \"#utility.yul\":7287:7305   */\n              add\n                /* \"#utility.yul\":7279:7305   */\n              swap1\n              pop\n                /* \"#utility.yul\":7351:7360   */\n              dup2\n                /* \"#utility.yul\":7345:7349   */\n              dup2\n                /* \"#utility.yul\":7341:7361   */\n              sub\n                /* \"#utility.yul\":7337:7338   */\n              0x00\n                /* \"#utility.yul\":7326:7335   */\n              dup4\n                /* \"#utility.yul\":7322:7339   */\n              add\n                /* \"#utility.yul\":7315:7362   */\n              mstore\n                /* \"#utility.yul\":7379:7535   */\n              tag_273\n                /* \"#utility.yul\":7530:7534   */\n              dup2\n                /* \"#utility.yul\":7521:7527   */\n              dup5\n                /* \"#utility.yul\":7379:7535   */\n              tag_221\n              jump\t// in\n            tag_273:\n                /* \"#utility.yul\":7371:7535   */\n              swap1\n              pop\n                /* \"#utility.yul\":7269:7542   */\n              swap3\n              swap2\n              pop\n              pop\n              jump\t// out\n                /* \"#utility.yul\":7548:7861   */\n            tag_76:\n              0x00\n                /* \"#utility.yul\":7699:7701   */\n              0x20\n                /* \"#utility.yul\":7688:7697   */\n              dup3\n                /* \"#utility.yul\":7684:7702   */\n              add\n                /* \"#utility.yul\":7676:7702   */\n              swap1\n              pop\n                /* \"#utility.yul\":7748:7757   */\n              dup2\n                /* \"#utility.yul\":7742:7746   */\n              dup2\n                /* \"#utility.yul\":7738:7758   */\n              sub\n                /* \"#utility.yul\":7734:7735   */\n              0x00\n                /* \"#utility.yul\":7723:7732   */\n              dup4\n                /* \"#utility.yul\":7719:7736   */\n              add\n                /* \"#utility.yul\":7712:7759   */\n              mstore\n                /* \"#utility.yul\":7776:7854   */\n              tag_275\n                /* \"#utility.yul\":7849:7853   */\n              dup2\n                /* \"#utility.yul\":7840:7846   */\n              dup5\n                /* \"#utility.yul\":7776:7854   */\n              tag_249\n              jump\t// in\n            tag_275:\n                /* \"#utility.yul\":7768:7854   */\n              swap1\n              pop\n                /* \"#utility.yul\":7666:7861   */\n              swap3\n              swap2\n              pop\n              pop\n              jump\t// out\n                /* \"#utility.yul\":7867:8290   */\n            tag_30:\n              0x00\n                /* \"#utility.yul\":8046:8048   */\n              0x40\n                /* \"#utility.yul\":8035:8044   */\n              dup3\n                /* \"#utility.yul\":8031:8049   */\n              add\n                /* \"#utility.yul\":8023:8049   */\n              swap1\n              pop\n                /* \"#utility.yul\":8095:8104   */\n              dup2\n                /* \"#utility.yul\":8089:8093   */\n              dup2\n                /* \"#utility.yul\":8085:8105   */\n              sub\n                /* \"#utility.yul\":8081:8082   */\n              0x00\n                /* \"#utility.yul\":8070:8079   */\n              dup4\n                /* \"#utility.yul\":8066:8083   */\n              add\n                /* \"#utility.yul\":8059:8106   */\n              mstore\n                /* \"#utility.yul\":8123:8201   */\n              tag_277\n                /* \"#utility.yul\":8196:8200   */\n              dup2\n                /* \"#utility.yul\":8187:8193   */\n              dup6\n                /* \"#utility.yul\":8123:8201   */\n              tag_249\n              jump\t// in\n            tag_277:\n                /* \"#utility.yul\":8115:8201   */\n              swap1\n              pop\n                /* \"#utility.yul\":8211:8283   */\n              tag_278\n                /* \"#utility.yul\":8279:8281   */\n              0x20\n                /* \"#utility.yul\":8268:8277   */\n              dup4\n                /* \"#utility.yul\":8264:8282   */\n              add\n                /* \"#utility.yul\":8255:8261   */\n              dup5\n                /* \"#utility.yul\":8211:8283   */\n              tag_267\n              jump\t// in\n            tag_278:\n                /* \"#utility.yul\":8013:8290   */\n              swap4\n              swap3\n              pop\n              pop\n              pop\n              jump\t// out\n                /* \"#utility.yul\":8296:8665   */\n            tag_81:\n              0x00\n                /* \"#utility.yul\":8475:8477   */\n              0x20\n                /* \"#utility.yul\":8464:8473   */\n              dup3\n                /* \"#utility.yul\":8460:8478   */\n              add\n                /* \"#utility.yul\":8452:8478   */\n              swap1\n              pop\n                /* \"#utility.yul\":8524:8533   */\n              dup2\n                /* \"#utility.yul\":8518:8522   */\n              dup2\n                /* \"#utility.yul\":8514:8534   */\n              sub\n                /* \"#utility.yul\":8510:8511   */\n              0x00\n                /* \"#utility.yul\":8499:8508   */\n              dup4\n                /* \"#utility.yul\":8495:8512   */\n              add\n                /* \"#utility.yul\":8488:8535   */\n              mstore\n                /* \"#utility.yul\":8552:8658   */\n              tag_280\n                /* \"#utility.yul\":8653:8657   */\n              dup2\n                /* \"#utility.yul\":8644:8650   */\n              dup5\n                /* \"#utility.yul\":8552:8658   */\n              tag_260\n              jump\t// in\n            tag_280:\n                /* \"#utility.yul\":8544:8658   */\n              swap1\n              pop\n                /* \"#utility.yul\":8442:8665   */\n              swap3\n              swap2\n              pop\n              pop\n              jump\t// out\n                /* \"#utility.yul\":8671:8893   */\n            tag_34:\n              0x00\n                /* \"#utility.yul\":8802:8804   */\n              0x20\n                /* \"#utility.yul\":8791:8800   */\n              dup3\n                /* \"#utility.yul\":8787:8805   */\n              add\n                /* \"#utility.yul\":8779:8805   */\n              swap1\n              pop\n                /* \"#utility.yul\":8815:8886   */\n              tag_282\n                /* \"#utility.yul\":8883:8884   */\n              0x00\n                /* \"#utility.yul\":8872:8881   */\n              dup4\n                /* \"#utility.yul\":8868:8885   */\n              add\n                /* \"#utility.yul\":8859:8865   */\n              dup5\n                /* \"#utility.yul\":8815:8886   */\n              tag_267\n              jump\t// in\n            tag_282:\n                /* \"#utility.yul\":8769:8893   */\n              swap3\n              swap2\n              pop\n              pop\n              jump\t// out\n                /* \"#utility.yul\":8899:9440   */\n            tag_69:\n              0x00\n                /* \"#utility.yul\":9108:9111   */\n              0x80\n                /* \"#utility.yul\":9097:9106   */\n              dup3\n                /* \"#utility.yul\":9093:9112   */\n              add\n                /* \"#utility.yul\":9085:9112   */\n              swap1\n              pop\n                /* \"#utility.yul\":9122:9193   */\n              tag_284\n                /* \"#utility.yul\":9190:9191   */\n              0x00\n                /* \"#utility.yul\":9179:9188   */\n              dup4\n                /* \"#utility.yul\":9175:9192   */\n              add\n                /* \"#utility.yul\":9166:9172   */\n              dup8\n                /* \"#utility.yul\":9122:9193   */\n              tag_267\n              jump\t// in\n            tag_284:\n                /* \"#utility.yul\":9203:9269   */\n              tag_285\n                /* \"#utility.yul\":9265:9267   */\n              0x20\n                /* \"#utility.yul\":9254:9263   */\n              dup4\n                /* \"#utility.yul\":9250:9268   */\n              add\n                /* \"#utility.yul\":9241:9247   */\n              dup7\n                /* \"#utility.yul\":9203:9269   */\n              tag_235\n              jump\t// in\n            tag_285:\n                /* \"#utility.yul\":9279:9351   */\n              tag_286\n                /* \"#utility.yul\":9347:9349   */\n              0x40\n                /* \"#utility.yul\":9336:9345   */\n              dup4\n                /* \"#utility.yul\":9332:9350   */\n              add\n                /* \"#utility.yul\":9323:9329   */\n              dup6\n                /* \"#utility.yul\":9279:9351   */\n              tag_217\n              jump\t// in\n            tag_286:\n                /* \"#utility.yul\":9361:9433   */\n              tag_287\n                /* \"#utility.yul\":9429:9431   */\n              0x60\n                /* \"#utility.yul\":9418:9427   */\n              dup4\n                /* \"#utility.yul\":9414:9432   */\n              add\n                /* \"#utility.yul\":9405:9411   */\n              dup5\n                /* \"#utility.yul\":9361:9433   */\n              tag_267\n              jump\t// in\n            tag_287:\n                /* \"#utility.yul\":9075:9440   */\n              swap6\n              swap5\n              pop\n              pop\n              pop\n              pop\n              pop\n              jump\t// out\n                /* \"#utility.yul\":9446:9729   */\n            tag_174:\n              0x00\n                /* \"#utility.yul\":9512:9514   */\n              0x40\n                /* \"#utility.yul\":9506:9515   */\n              mload\n                /* \"#utility.yul\":9496:9515   */\n              swap1\n              pop\n                /* \"#utility.yul\":9554:9558   */\n              dup2\n                /* \"#utility.yul\":9546:9552   */\n              dup2\n                /* \"#utility.yul\":9542:9559   */\n              add\n                /* \"#utility.yul\":9661:9667   */\n              dup2\n                /* \"#utility.yul\":9649:9659   */\n              dup2\n                /* \"#utility.yul\":9646:9668   */\n              lt\n                /* \"#utility.yul\":9625:9643   */\n              0xffffffffffffffff\n                /* \"#utility.yul\":9613:9623   */\n              dup3\n                /* \"#utility.yul\":9610:9644   */\n              gt\n                /* \"#utility.yul\":9607:9669   */\n              or\n                /* \"#utility.yul\":9604:9606   */\n              iszero\n              tag_289\n              jumpi\n                /* \"#utility.yul\":9672:9690   */\n              tag_290\n              tag_291\n              jump\t// in\n            tag_290:\n                /* \"#utility.yul\":9604:9606   */\n            tag_289:\n                /* \"#utility.yul\":9712:9722   */\n              dup1\n                /* \"#utility.yul\":9708:9710   */\n              0x40\n                /* \"#utility.yul\":9701:9723   */\n              mstore\n                /* \"#utility.yul\":9486:9729   */\n              pop\n              swap2\n              swap1\n              pop\n              jump\t// out\n                /* \"#utility.yul\":9735:10056   */\n            tag_173:\n              0x00\n                /* \"#utility.yul\":9912:9930   */\n              0xffffffffffffffff\n                /* \"#utility.yul\":9904:9910   */\n              dup3\n                /* \"#utility.yul\":9901:9931   */\n              gt\n                /* \"#utility.yul\":9898:9900   */\n              iszero\n              tag_293\n              jumpi\n                /* \"#utility.yul\":9934:9952   */\n              tag_294\n              tag_291\n              jump\t// in\n            tag_294:\n                /* \"#utility.yul\":9898:9900   */\n            tag_293:\n                /* \"#utility.yul\":9984:9988   */\n              0x20\n                /* \"#utility.yul\":9976:9982   */\n              dup3\n                /* \"#utility.yul\":9972:9989   */\n              mul\n                /* \"#utility.yul\":9964:9989   */\n              swap1\n              pop\n                /* \"#utility.yul\":10044:10048   */\n              0x20\n                /* \"#utility.yul\":10038:10042   */\n              dup2\n                /* \"#utility.yul\":10034:10049   */\n              add\n                /* \"#utility.yul\":10026:10049   */\n              swap1\n              pop\n                /* \"#utility.yul\":9827:10056   */\n              swap2\n              swap1\n              pop\n              jump\t// out\n                /* \"#utility.yul\":10062:10394   */\n            tag_184:\n              0x00\n                /* \"#utility.yul\":10214:10232   */\n              0xffffffffffffffff\n                /* \"#utility.yul\":10206:10212   */\n              dup3\n                /* \"#utility.yul\":10203:10233   */\n              gt\n                /* \"#utility.yul\":10200:10202   */\n              iszero\n              tag_296\n              jumpi\n                /* \"#utility.yul\":10236:10254   */\n              tag_297\n              tag_291\n              jump\t// in\n            tag_297:\n                /* \"#utility.yul\":10200:10202   */\n            tag_296:\n                /* \"#utility.yul\":10321:10325   */\n              0x1f\n                /* \"#utility.yul\":10317:10326   */\n              not\n                /* \"#utility.yul\":10310:10314   */\n              0x1f\n                /* \"#utility.yul\":10302:10308   */\n              dup4\n                /* \"#utility.yul\":10298:10315   */\n              add\n                /* \"#utility.yul\":10294:10327   */\n              and\n                /* \"#utility.yul\":10286:10327   */\n              swap1\n              pop\n                /* \"#utility.yul\":10382:10386   */\n              0x20\n                /* \"#utility.yul\":10376:10380   */\n              dup2\n                /* \"#utility.yul\":10372:10387   */\n              add\n                /* \"#utility.yul\":10364:10387   */\n              swap1\n              pop\n                /* \"#utility.yul\":10129:10394   */\n              swap2\n              swap1\n              pop\n              jump\t// out\n                /* \"#utility.yul\":10400:10556   */\n            tag_228:\n              0x00\n                /* \"#utility.yul\":10514:10517   */\n              dup2\n                /* \"#utility.yul\":10506:10517   */\n              swap1\n              pop\n                /* \"#utility.yul\":10544:10548   */\n              0x20\n                /* \"#utility.yul\":10539:10542   */\n              dup3\n                /* \"#utility.yul\":10535:10549   */\n              add\n                /* \"#utility.yul\":10527:10549   */\n              swap1\n              pop\n                /* \"#utility.yul\":10496:10556   */\n              swap2\n              swap1\n              pop\n              jump\t// out\n                /* \"#utility.yul\":10562:10700   */\n            tag_224:\n              0x00\n                /* \"#utility.yul\":10687:10692   */\n              dup2\n                /* \"#utility.yul\":10681:10693   */\n              mload\n                /* \"#utility.yul\":10671:10693   */\n              swap1\n              pop\n                /* \"#utility.yul\":10660:10700   */\n              swap2\n              swap1\n              pop\n              jump\t// out\n                /* \"#utility.yul\":10706:10805   */\n            tag_242:\n              0x00\n                /* \"#utility.yul\":10792:10797   */\n              dup2\n                /* \"#utility.yul\":10786:10798   */\n              mload\n                /* \"#utility.yul\":10776:10798   */\n              swap1\n              pop\n                /* \"#utility.yul\":10765:10805   */\n              swap2\n              swap1\n              pop\n              jump\t// out\n                /* \"#utility.yul\":10811:10948   */\n            tag_234:\n              0x00\n                /* \"#utility.yul\":10937:10941   */\n              0x20\n                /* \"#utility.yul\":10932:10935   */\n              dup3\n                /* \"#utility.yul\":10928:10942   */\n              add\n                /* \"#utility.yul\":10920:10942   */\n              swap1\n              pop\n                /* \"#utility.yul\":10910:10948   */\n              swap2\n              swap1\n              pop\n              jump\t// out\n                /* \"#utility.yul\":10954:11162   */\n            tag_226:\n              0x00\n                /* \"#utility.yul\":11111:11117   */\n              dup3\n                /* \"#utility.yul\":11106:11109   */\n              dup3\n                /* \"#utility.yul\":11099:11118   */\n              mstore\n                /* \"#utility.yul\":11151:11155   */\n              0x20\n                /* \"#utility.yul\":11146:11149   */\n              dup3\n                /* \"#utility.yul\":11142:11156   */\n              add\n                /* \"#utility.yul\":11127:11156   */\n              swap1\n              pop\n                /* \"#utility.yul\":11089:11162   */\n              swap3\n              swap2\n              pop\n              pop\n              jump\t// out\n                /* \"#utility.yul\":11168:11327   */\n            tag_244:\n              0x00\n                /* \"#utility.yul\":11276:11282   */\n              dup3\n                /* \"#utility.yul\":11271:11274   */\n              dup3\n                /* \"#utility.yul\":11264:11283   */\n              mstore\n                /* \"#utility.yul\":11316:11320   */\n              0x20\n                /* \"#utility.yul\":11311:11314   */\n              dup3\n                /* \"#utility.yul\":11307:11321   */\n              add\n                /* \"#utility.yul\":11292:11321   */\n              swap1\n              pop\n                /* \"#utility.yul\":11254:11327   */\n              swap3\n              swap2\n              pop\n              pop\n              jump\t// out\n                /* \"#utility.yul\":11333:11502   */\n            tag_253:\n              0x00\n                /* \"#utility.yul\":11451:11457   */\n              dup3\n                /* \"#utility.yul\":11446:11449   */\n              dup3\n                /* \"#utility.yul\":11439:11458   */\n              mstore\n                /* \"#utility.yul\":11491:11495   */\n              0x20\n                /* \"#utility.yul\":11486:11489   */\n              dup3\n                /* \"#utility.yul\":11482:11496   */\n              add\n                /* \"#utility.yul\":11467:11496   */\n              swap1\n              pop\n                /* \"#utility.yul\":11429:11502   */\n              swap3\n              swap2\n              pop\n              pop\n              jump\t// out\n                /* \"#utility.yul\":11508:11813   */\n            tag_87:\n              0x00\n                /* \"#utility.yul\":11567:11587   */\n              tag_306\n                /* \"#utility.yul\":11585:11586   */\n              dup3\n                /* \"#utility.yul\":11567:11587   */\n              tag_266\n              jump\t// in\n            tag_306:\n                /* \"#utility.yul\":11562:11587   */\n              swap2\n              pop\n                /* \"#utility.yul\":11601:11621   */\n              tag_307\n                /* \"#utility.yul\":11619:11620   */\n              dup4\n                /* \"#utility.yul\":11601:11621   */\n              tag_266\n              jump\t// in\n            tag_307:\n                /* \"#utility.yul\":11596:11621   */\n              swap3\n              pop\n                /* \"#utility.yul\":11755:11756   */\n              dup3\n                /* \"#utility.yul\":11687:11753   */\n              0xffffffffffffffffffffffffffffffffffffffffffffffffffffffffffffffff\n                /* \"#utility.yul\":11683:11757   */\n              sub\n                /* \"#utility.yul\":11680:11681   */\n              dup3\n                /* \"#utility.yul\":11677:11758   */\n              gt\n                /* \"#utility.yul\":11674:11676   */\n              iszero\n              tag_308\n              jumpi\n                /* \"#utility.yul\":11761:11779   */\n              tag_309\n              tag_310\n              jump\t// in\n            tag_309:\n                /* \"#utility.yul\":11674:11676   */\n            tag_308:\n                /* \"#utility.yul\":11805:11806   */\n              dup3\n                /* \"#utility.yul\":11802:11803   */\n              dup3\n                /* \"#utility.yul\":11798:11807   */\n              add\n                /* \"#utility.yul\":11791:11807   */\n              swap1\n              pop\n                /* \"#utility.yul\":11552:11813   */\n              swap3\n              swap2\n              pop\n              pop\n              jump\t// out\n                /* \"#utility.yul\":11819:11915   */\n            tag_220:\n              0x00\n                /* \"#utility.yul\":11885:11909   */\n              tag_312\n                /* \"#utility.yul\":11903:11908   */\n              dup3\n                /* \"#utility.yul\":11885:11909   */\n              tag_313\n              jump\t// in\n            tag_312:\n                /* \"#utility.yul\":11874:11909   */\n              swap1\n              pop\n                /* \"#utility.yul\":11864:11915   */\n              swap2\n              swap1\n              pop\n              jump\t// out\n                /* \"#utility.yul\":11921:12011   */\n            tag_238:\n              0x00\n                /* \"#utility.yul\":11998:12003   */\n              dup2\n                /* \"#utility.yul\":11991:12004   */\n              iszero\n                /* \"#utility.yul\":11984:12005   */\n              iszero\n                /* \"#utility.yul\":11973:12005   */\n              swap1\n              pop\n                /* \"#utility.yul\":11963:12011   */\n              swap2\n              swap1\n              pop\n              jump\t// out\n                /* \"#utility.yul\":12017:12143   */\n            tag_313:\n              0x00\n                /* \"#utility.yul\":12094:12136   */\n              0xffffffffffffffffffffffffffffffffffffffff\n                /* \"#utility.yul\":12087:12092   */\n              dup3\n                /* \"#utility.yul\":12083:12137   */\n              and\n                /* \"#utility.yul\":12072:12137   */\n              swap1\n              pop\n                /* \"#utility.yul\":12062:12143   */\n              swap2\n              swap1\n              pop\n              jump\t// out\n                /* \"#utility.yul\":12149:12226   */\n            tag_266:\n              0x00\n                /* \"#utility.yul\":12215:12220   */\n              dup2\n                /* \"#utility.yul\":12204:12220   */\n              swap1\n              pop\n                /* \"#utility.yul\":12194:12226   */\n              swap2\n              swap1\n              pop\n              jump\t// out\n                /* \"#utility.yul\":12232:12386   */\n            tag_187:\n                /* \"#utility.yul\":12316:12322   */\n              dup3\n                /* \"#utility.yul\":12311:12314   */\n              dup2\n                /* \"#utility.yul\":12306:12309   */\n              dup4\n                /* \"#utility.yul\":12293:12323   */\n              calldatacopy\n                /* \"#utility.yul\":12378:12379   */\n              0x00\n                /* \"#utility.yul\":12369:12375   */\n              dup4\n                /* \"#utility.yul\":12364:12367   */\n              dup4\n                /* \"#utility.yul\":12360:12376   */\n              add\n                /* \"#utility.yul\":12353:12380   */\n              mstore\n                /* \"#utility.yul\":12283:12386   */\n              pop\n              pop\n              pop\n              jump\t// out\n                /* \"#utility.yul\":12392:12699   */\n            tag_246:\n                /* \"#utility.yul\":12460:12461   */\n              0x00\n                /* \"#utility.yul\":12470:12583   */\n            tag_319:\n                /* \"#utility.yul\":12484:12490   */\n              dup4\n                /* \"#utility.yul\":12481:12482   */\n              dup2\n                /* \"#utility.yul\":12478:12491   */\n              lt\n                /* \"#utility.yul\":12470:12583   */\n              iszero\n              tag_321\n              jumpi\n                /* \"#utility.yul\":12569:12570   */\n              dup1\n                /* \"#utility.yul\":12564:12567   */\n              dup3\n                /* \"#utility.yul\":12560:12571   */\n              add\n                /* \"#utility.yul\":12554:12572   */\n              mload\n                /* \"#utility.yul\":12550:12551   */\n              dup2\n                /* \"#utility.yul\":12545:12548   */\n              dup5\n                /* \"#utility.yul\":12541:12552   */\n              add\n                /* \"#utility.yul\":12534:12573   */\n              mstore\n                /* \"#utility.yul\":12506:12508   */\n              0x20\n                /* \"#utility.yul\":12503:12504   */\n              dup2\n                /* \"#utility.yul\":12499:12509   */\n              add\n                /* \"#utility.yul\":12494:12509   */\n              swap1\n              pop\n                /* \"#utility.yul\":12470:12583   */\n              jump(tag_319)\n            tag_321:\n                /* \"#utility.yul\":12601:12607   */\n              dup4\n                /* \"#utility.yul\":12598:12599   */\n              dup2\n                /* \"#utility.yul\":12595:12608   */\n              gt\n                /* \"#utility.yul\":12592:12594   */\n              iszero\n              tag_322\n              jumpi\n                /* \"#utility.yul\":12681:12682   */\n              0x00\n                /* \"#utility.yul\":12672:12678   */\n              dup5\n                /* \"#utility.yul\":12667:12670   */\n              dup5\n                /* \"#utility.yul\":12663:12679   */\n              add\n                /* \"#utility.yul\":12656:12683   */\n              mstore\n                /* \"#utility.yul\":12592:12594   */\n            tag_322:\n                /* \"#utility.yul\":12441:12699   */\n              pop\n              pop\n              pop\n              pop\n              jump\t// out\n                /* \"#utility.yul\":12705:13025   */\n            tag_91:\n              0x00\n                /* \"#utility.yul\":12786:12787   */\n              0x02\n                /* \"#utility.yul\":12780:12784   */\n              dup3\n                /* \"#utility.yul\":12776:12788   */\n              div\n                /* \"#utility.yul\":12766:12788   */\n              swap1\n              pop\n                /* \"#utility.yul\":12833:12834   */\n              0x01\n                /* \"#utility.yul\":12827:12831   */\n              dup3\n                /* \"#utility.yul\":12823:12835   */\n              and\n                /* \"#utility.yul\":12854:12872   */\n              dup1\n                /* \"#utility.yul\":12844:12846   */\n              tag_324\n              jumpi\n                /* \"#utility.yul\":12910:12914   */\n              0x7f\n                /* \"#utility.yul\":12902:12908   */\n              dup3\n                /* \"#utility.yul\":12898:12915   */\n              and\n                /* \"#utility.yul\":12888:12915   */\n              swap2\n              pop\n                /* \"#utility.yul\":12844:12846   */\n            tag_324:\n                /* \"#utility.yul\":12972:12974   */\n              0x20\n                /* \"#utility.yul\":12964:12970   */\n              dup3\n                /* \"#utility.yul\":12961:12975   */\n              lt\n                /* \"#utility.yul\":12941:12959   */\n              dup2\n                /* \"#utility.yul\":12938:12976   */\n              eq\n                /* \"#utility.yul\":12935:12937   */\n              iszero\n              tag_325\n              jumpi\n                /* \"#utility.yul\":12991:13009   */\n              tag_326\n              tag_327\n              jump\t// in\n            tag_326:\n                /* \"#utility.yul\":12935:12937   */\n            tag_325:\n                /* \"#utility.yul\":12756:13025   */\n              pop\n              swap2\n              swap1\n              pop\n              jump\t// out\n                /* \"#utility.yul\":13031:13264   */\n            tag_108:\n              0x00\n                /* \"#utility.yul\":13093:13117   */\n              tag_329\n                /* \"#utility.yul\":13111:13116   */\n              dup3\n                /* \"#utility.yul\":13093:13117   */\n              tag_266\n              jump\t// in\n            tag_329:\n                /* \"#utility.yul\":13084:13117   */\n              swap2\n              pop\n                /* \"#utility.yul\":13139:13205   */\n              0xffffffffffffffffffffffffffffffffffffffffffffffffffffffffffffffff\n                /* \"#utility.yul\":13132:13137   */\n              dup3\n                /* \"#utility.yul\":13129:13206   */\n              eq\n                /* \"#utility.yul\":13126:13128   */\n              iszero\n              tag_330\n              jumpi\n                /* \"#utility.yul\":13209:13227   */\n              tag_331\n              tag_310\n              jump\t// in\n            tag_331:\n                /* \"#utility.yul\":13126:13128   */\n            tag_330:\n                /* \"#utility.yul\":13256:13257   */\n              0x01\n                /* \"#utility.yul\":13249:13254   */\n              dup3\n                /* \"#utility.yul\":13245:13258   */\n              add\n                /* \"#utility.yul\":13238:13258   */\n              swap1\n              pop\n                /* \"#utility.yul\":13074:13264   */\n              swap2\n              swap1\n              pop\n              jump\t// out\n                /* \"#utility.yul\":13270:13450   */\n            tag_310:\n                /* \"#utility.yul\":13318:13395   */\n              0x4e487b7100000000000000000000000000000000000000000000000000000000\n                /* \"#utility.yul\":13315:13316   */\n              0x00\n                /* \"#utility.yul\":13308:13396   */\n              mstore\n                /* \"#utility.yul\":13415:13419   */\n              0x11\n                /* \"#utility.yul\":13412:13413   */\n              0x04\n                /* \"#utility.yul\":13405:13420   */\n              mstore\n                /* \"#utility.yul\":13439:13443   */\n              0x24\n                /* \"#utility.yul\":13436:13437   */\n              0x00\n                /* \"#utility.yul\":13429:13444   */\n              revert\n                /* \"#utility.yul\":13456:13636   */\n            tag_327:\n                /* \"#utility.yul\":13504:13581   */\n              0x4e487b7100000000000000000000000000000000000000000000000000000000\n                /* \"#utility.yul\":13501:13502   */\n              0x00\n                /* \"#utility.yul\":13494:13582   */\n              mstore\n                /* \"#utility.yul\":13601:13605   */\n              0x22\n                /* \"#utility.yul\":13598:13599   */\n              0x04\n                /* \"#utility.yul\":13591:13606   */\n              mstore\n                /* \"#utility.yul\":13625:13629   */\n              0x24\n                /* \"#utility.yul\":13622:13623   */\n              0x00\n                /* \"#utility.yul\":13615:13630   */\n              revert\n                /* \"#utility.yul\":13642:13822   */\n            tag_291:\n                /* \"#utility.yul\":13690:13767   */\n              0x4e487b7100000000000000000000000000000000000000000000000000000000\n                /* \"#utility.yul\":13687:13688   */\n              0x00\n                /* \"#utility.yul\":13680:13768   */\n              mstore\n                /* \"#utility.yul\":13787:13791   */\n              0x41\n                /* \"#utility.yul\":13784:13785   */\n              0x04\n                /* \"#utility.yul\":13777:13792   */\n              mstore\n                /* \"#utility.yul\":13811:13815   */\n              0x24\n                /* \"#utility.yul\":13808:13809   */\n              0x00\n                /* \"#utility.yul\":13801:13816   */\n              revert\n                /* \"#utility.yul\":13828:13930   */\n            tag_248:\n              0x00\n                /* \"#utility.yul\":13920:13922   */\n              0x1f\n                /* \"#utility.yul\":13916:13923   */\n              not\n                /* \"#utility.yul\":13911:13913   */\n              0x1f\n                /* \"#utility.yul\":13904:13909   */\n              dup4\n                /* \"#utility.yul\":13900:13914   */\n              add\n                /* \"#utility.yul\":13896:13924   */\n              and\n                /* \"#utility.yul\":13886:13924   */\n              swap1\n              pop\n                /* \"#utility.yul\":13876:13930   */\n              swap2\n              swap1\n              pop\n              jump\t// out\n                /* \"#utility.yul\":13936:14058   */\n            tag_191:\n                /* \"#utility.yul\":14009:14033   */\n              tag_337\n                /* \"#utility.yul\":14027:14032   */\n              dup2\n                /* \"#utility.yul\":14009:14033   */\n              tag_220\n              jump\t// in\n            tag_337:\n                /* \"#utility.yul\":14002:14007   */\n              dup2\n                /* \"#utility.yul\":13999:14034   */\n              eq\n                /* \"#utility.yul\":13989:13991   */\n              tag_338\n              jumpi\n                /* \"#utility.yul\":14048:14049   */\n              0x00\n                /* \"#utility.yul\":14045:14046   */\n              dup1\n                /* \"#utility.yul\":14038:14050   */\n              revert\n                /* \"#utility.yul\":13989:13991   */\n            tag_338:\n                /* \"#utility.yul\":13979:14058   */\n              pop\n              jump\t// out\n                /* \"#utility.yul\":14064:14186   */\n            tag_202:\n                /* \"#utility.yul\":14137:14161   */\n              tag_340\n                /* \"#utility.yul\":14155:14160   */\n              dup2\n                /* \"#utility.yul\":14137:14161   */\n              tag_266\n              jump\t// in\n            tag_340:\n                /* \"#utility.yul\":14130:14135   */\n              dup2\n                /* \"#utility.yul\":14127:14162   */\n              eq\n                /* \"#utility.yul\":14117:14119   */\n              tag_341\n              jumpi\n                /* \"#utility.yul\":14176:14177   */\n              0x00\n                /* \"#utility.yul\":14173:14174   */\n              dup1\n                /* \"#utility.yul\":14166:14178   */\n              revert\n                /* \"#utility.yul\":14117:14119   */\n            tag_341:\n                /* \"#utility.yul\":14107:14186   */\n              pop\n              jump\t// out\n\n            auxdata: 0xa264697066735822122019df581250950ad809f57433849780ce70b84029b1a804454accddc566cdad0564736f6c63430008000033\n        }\n    }\n\n    auxdata: 0xa2646970667358221220f8e86c8938f11ce4919e1d91843be6f9f9ceafd12f7db7edc0cc574d92823cf164736f6c63430008000033\n}\n",
				"bytecode": {
					"linkReferences": {},
					"object": "608060405234801561001057600080fd5b50613e8c806100206000396000f3fe608060405234801561001057600080fd5b50600436106101f05760003560e01c80637a16fcb01161010f578063b434b42e116100a2578063e2ba53f011610071578063e2ba53f0146105bb578063e93303a6146105d9578063e9d6c6da14610609578063eda94c7b14610639576101f0565b8063b434b42e14610523578063ba92763a1461053f578063c285c0d31461056f578063d7558d4b1461058b576101f0565b8063962fafd0116100de578063962fafd0146104ac5780639e7b8d61146104b6578063a3ec138d146104d2578063b135648814610505576101f0565b80637a16fcb014610438578063836bc692146104565780638586d33e1461047257806386278e77146104a2576101f0565b8063609ff1bd1161018757806369ba1a751161015657806369ba1a75146103b2578063735d8b87146103ce578063763fcb98146103ea57806378f305c61461041a576101f0565b8063609ff1bd1461032a57806362564c4814610348578063627c236714610366578063643cb09614610382576101f0565b80632a8cdc4c116101c35780632a8cdc4c146102905780633784f000146102c05780634e69d560146102dc5780635c6b047a146102fa576101f0565b80630121b93f146101f5578063013cf08b1461021157806308225266146102425780630a82dcb114610272575b600080fd5b61020f600480360381019061020a9190612164565b610669565b005b61022b60048036038101906102269190612164565b610758565b604051610239929190612567565b60405180910390f35b61025c60048036038101906102579190612164565b610814565b6040516102699190612508565b60405180910390f35b61027a610904565b60405161028791906125b9565b60405180910390f35b6102aa60048036038101906102a59190612164565b61090e565b6040516102b791906124cb565b60405180910390f35b6102da60048036038101906102d59190612164565b6109f9565b005b6102e4610ac0565b6040516102f191906125b9565b60405180910390f35b610314600480360381019061030f9190612164565b610aca565b60405161032191906125b9565b60405180910390f35b610332610bb5565b60405161033f91906125b9565b60405180910390f35b610350610c89565b60405161035d9190612508565b60405180910390f35b610380600480360381019061037b9190612246565b610d84565b005b61039c60048036038101906103979190612164565b610e57565b6040516103a9919061252a565b60405180910390f35b6103cc60048036038101906103c79190612164565b610e96565b005b6103e860048036038101906103e391906121f2565b610ea0565b005b61040460048036038101906103ff9190612164565b610f73565b6040516104119190612545565b60405180910390f35b610422611063565b60405161042f91906125b9565b60405180910390f35b61044061106d565b60405161044d91906124cb565b60405180910390f35b610470600480360381019061046b9190612060565b611096565b005b61048c60048036038101906104879190612164565b611224565b60405161049991906125b9565b60405180910390f35b6104aa61130f565b005b6104b4611318565b005b6104d060048036038101906104cb919061200e565b6113ab565b005b6104ec60048036038101906104e7919061200e565b6114f5565b6040516104fc94939291906125d4565b60405180910390f35b61050d611552565b60405161051a91906125b9565b60405180910390f35b61053d60048036038101906105389190612246565b61155c565b005b61055960048036038101906105549190612164565b61162f565b60405161056691906125b9565b60405180910390f35b610589600480360381019061058491906121b6565b61171a565b005b6105a560048036038101906105a09190612164565b6117ed565b6040516105b291906125b9565b60405180910390f35b6105c36118d8565b6040516105d09190612545565b60405180910390f35b6105f360048036038101906105ee9190612164565b6119ba565b60405161060091906125b9565b60405180910390f35b610623600480360381019061061e9190612164565b611aa5565b6040516106309190612597565b60405180910390f35b610653600480360381019061064e9190612246565b611ba3565b6040516106609190612597565b60405180910390f35b6000600560003373ffffffffffffffffffffffffffffffffffffffff1673ffffffffffffffffffffffffffffffffffffffff16815260200190815260200160002090508060010160009054906101000a900460ff16156106c857600080fd5b60018160010160006101000a81548160ff02191690831515021790555081816002018190555080600001546006838154811061072d577f4e487b7100000000000000000000000000000000000000000000000000000000600052603260045260246000fd5b9060005260206000209060020201600101600082825461074d9190612771565b925050819055505050565b6006818154811061076857600080fd5b906000526020600020906002020160009150905080600001805461078b90612875565b80601f01602080910402602001604051908101604052809291908181526020018280546107b790612875565b80156108045780601f106107d957610100808354040283529160200191610804565b820191906000526020600020905b8154815290600101906020018083116107e757829003601f168201915b5050505050908060010154905082565b606060078281548110610850577f4e487b7100000000000000000000000000000000000000000000000000000000600052603260045260246000fd5b9060005260206000200160009054906101000a900473ffffffffffffffffffffffffffffffffffffffff1673ffffffffffffffffffffffffffffffffffffffff166362564c486040518163ffffffff1660e01b815260040160006040518083038186803b1580156108c057600080fd5b505afa1580156108d4573d6000803e3d6000fd5b505050506040513d6000823e3d601f19601f820116820180604052508101906108fd91906120a1565b9050919050565b6000600454905090565b60006007828154811061094a577f4e487b7100000000000000000000000000000000000000000000000000000000600052603260045260246000fd5b9060005260206000200160009054906101000a900473ffffffffffffffffffffffffffffffffffffffff1673ffffffffffffffffffffffffffffffffffffffff16637a16fcb06040518163ffffffff1660e01b815260040160206040518083038186803b1580156109ba57600080fd5b505afa1580156109ce573d6000803e3d6000fd5b505050506040513d601f19601f820116820180604052508101906109f29190612037565b9050919050565b60078181548110610a33577f4e487b7100000000000000000000000000000000000000000000000000000000600052603260045260246000fd5b9060005260206000200160009054906101000a900473ffffffffffffffffffffffffffffffffffffffff1673ffffffffffffffffffffffffffffffffffffffff166386278e776040518163ffffffff1660e01b8152600401600060405180830381600087803b158015610aa557600080fd5b505af1158015610ab9573d6000803e3d6000fd5b5050505050565b6000600154905090565b600060078281548110610b06577f4e487b7100000000000000000000000000000000000000000000000000000000600052603260045260246000fd5b9060005260206000200160009054906101000a900473ffffffffffffffffffffffffffffffffffffffff1673ffffffffffffffffffffffffffffffffffffffff1663b13564886040518163ffffffff1660e01b815260040160206040518083038186803b158015610b7657600080fd5b505afa158015610b8a573d6000803e3d6000fd5b505050506040513d601f19601f82011682018060405250810190610bae919061218d565b9050919050565b6000806000905060005b600680549050811015610c84578160068281548110610c07577f4e487b7100000000000000000000000000000000000000000000000000000000600052603260045260246000fd5b9060005260206000209060020201600101541115610c715760068181548110610c59577f4e487b7100000000000000000000000000000000000000000000000000000000600052603260045260246000fd5b90600052602060002090600202016001015491508092505b8080610c7c906128a7565b915050610bbf565b505090565b60606006805480602002602001604051908101604052809291908181526020016000905b82821015610d7b5783829060005260206000209060020201604051806040016040529081600082018054610ce090612875565b80601f0160208091040260200160405190810160405280929190818152602001828054610d0c90612875565b8015610d595780601f10610d2e57610100808354040283529160200191610d59565b820191906000526020600020905b815481529060010190602001808311610d3c57829003601f168201915b5050505050815260200160018201548152505081526020019060010190610cad565b50505050905090565b60078281548110610dbe577f4e487b7100000000000000000000000000000000000000000000000000000000600052603260045260246000fd5b9060005260206000200160009054906101000a900473ffffffffffffffffffffffffffffffffffffffff1673ffffffffffffffffffffffffffffffffffffffff16630121b93f826040518263ffffffff1660e01b8152600401610e2191906125b9565b600060405180830381600087803b158015610e3b57600080fd5b505af1158015610e4f573d6000803e3d6000fd5b505050505050565b60078181548110610e6757600080fd5b906000526020600020016000915054906101000a900473ffffffffffffffffffffffffffffffffffffffff1681565b8060018190555050565b60078281548110610eda577f4e487b7100000000000000000000000000000000000000000000000000000000600052603260045260246000fd5b9060005260206000200160009054906101000a900473ffffffffffffffffffffffffffffffffffffffff1673ffffffffffffffffffffffffffffffffffffffff1663836bc692826040518263ffffffff1660e01b8152600401610f3d91906124e6565b600060405180830381600087803b158015610f5757600080fd5b505af1158015610f6b573d6000803e3d6000fd5b505050505050565b606060078281548110610faf577f4e487b7100000000000000000000000000000000000000000000000000000000600052603260045260246000fd5b9060005260206000200160009054906101000a900473ffffffffffffffffffffffffffffffffffffffff1673ffffffffffffffffffffffffffffffffffffffff1663e2ba53f06040518163ffffffff1660e01b815260040160006040518083038186803b15801561101f57600080fd5b505afa158015611033573d6000803e3d6000fd5b505050506040513d6000823e3d601f19601f8201168201806040525081019061105c91906120e2565b9050919050565b6000600254905090565b60008060009054906101000a900473ffffffffffffffffffffffffffffffffffffffff16905090565b336000806101000a81548173ffffffffffffffffffffffffffffffffffffffff021916908373ffffffffffffffffffffffffffffffffffffffff1602179055506001600560008060009054906101000a900473ffffffffffffffffffffffffffffffffffffffff1673ffffffffffffffffffffffffffffffffffffffff1673ffffffffffffffffffffffffffffffffffffffff16815260200190815260200160002060000181905550600060018190555061114f611ca5565b805160048190555060005b815181101561122057600660405180604001604052808484815181106111a9577f4e487b7100000000000000000000000000000000000000000000000000000000600052603260045260246000fd5b60200260200101518152602001600081525090806001815401808255809150506001900390600052602060002090600202016000909190919091506000820151816000019080519060200190611200929190611cae565b506020820151816001015550508080611218906128a7565b91505061115a565b5050565b600060078281548110611260577f4e487b7100000000000000000000000000000000000000000000000000000000600052603260045260246000fd5b9060005260206000200160009054906101000a900473ffffffffffffffffffffffffffffffffffffffff1673ffffffffffffffffffffffffffffffffffffffff16634e69d5606040518163ffffffff1660e01b815260040160206040518083038186803b1580156112d057600080fd5b505afa1580156112e4573d6000803e3d6000fd5b505050506040513d601f19601f82011682018060405250810190611308919061218d565b9050919050565b42600381905550565b600060405161132690611d34565b604051809103906000f080158015611342573d6000803e3d6000fd5b5090506007819080600181540180825580915050600190039060005260206000200160009091909190916101000a81548173ffffffffffffffffffffffffffffffffffffffff021916908373ffffffffffffffffffffffffffffffffffffffff16021790555050565b60008054906101000a900473ffffffffffffffffffffffffffffffffffffffff1673ffffffffffffffffffffffffffffffffffffffff163373ffffffffffffffffffffffffffffffffffffffff161480156114535750600560008273ffffffffffffffffffffffffffffffffffffffff1673ffffffffffffffffffffffffffffffffffffffff16815260200190815260200160002060010160009054906101000a900460ff16155b80156114a157506000600560008373ffffffffffffffffffffffffffffffffffffffff1673ffffffffffffffffffffffffffffffffffffffff16815260200190815260200160002060000154145b6114aa57600080fd5b6001600560008373ffffffffffffffffffffffffffffffffffffffff1673ffffffffffffffffffffffffffffffffffffffff1681526020019081526020016000206000018190555050565b60056020528060005260406000206000915090508060000154908060010160009054906101000a900460ff16908060010160019054906101000a900473ffffffffffffffffffffffffffffffffffffffff16908060020154905084565b6000600354905090565b60078281548110611596577f4e487b7100000000000000000000000000000000000000000000000000000000600052603260045260246000fd5b9060005260206000200160009054906101000a900473ffffffffffffffffffffffffffffffffffffffff1673ffffffffffffffffffffffffffffffffffffffff166369ba1a75826040518263ffffffff1660e01b81526004016115f991906125b9565b600060405180830381600087803b15801561161357600080fd5b505af1158015611627573d6000803e3d6000fd5b505050505050565b60006007828154811061166b577f4e487b7100000000000000000000000000000000000000000000000000000000600052603260045260246000fd5b9060005260206000200160009054906101000a900473ffffffffffffffffffffffffffffffffffffffff1673ffffffffffffffffffffffffffffffffffffffff166378f305c66040518163ffffffff1660e01b815260040160206040518083038186803b1580156116db57600080fd5b505afa1580156116ef573d6000803e3d6000fd5b505050506040513d601f19601f82011682018060405250810190611713919061218d565b9050919050565b60078281548110611754577f4e487b7100000000000000000000000000000000000000000000000000000000600052603260045260246000fd5b9060005260206000200160009054906101000a900473ffffffffffffffffffffffffffffffffffffffff1673ffffffffffffffffffffffffffffffffffffffff16639e7b8d61826040518263ffffffff1660e01b81526004016117b791906124cb565b600060405180830381600087803b1580156117d157600080fd5b505af11580156117e5573d6000803e3d6000fd5b505050505050565b600060078281548110611829577f4e487b7100000000000000000000000000000000000000000000000000000000600052603260045260246000fd5b9060005260206000200160009054906101000a900473ffffffffffffffffffffffffffffffffffffffff1673ffffffffffffffffffffffffffffffffffffffff1663609ff1bd6040518163ffffffff1660e01b815260040160206040518083038186803b15801561189957600080fd5b505afa1580156118ad573d6000803e3d6000fd5b505050506040513d601f19601f820116820180604052508101906118d1919061218d565b9050919050565b606060066118e4610bb5565b8154811061191b577f4e487b7100000000000000000000000000000000000000000000000000000000600052603260045260246000fd5b9060005260206000209060020201600001805461193790612875565b80601f016020809104026020016040519081016040528092919081815260200182805461196390612875565b80156119b05780601f10611985576101008083540402835291602001916119b0565b820191906000526020600020905b81548152906001019060200180831161199357829003601f168201915b5050505050905090565b6000600782815481106119f6577f4e487b7100000000000000000000000000000000000000000000000000000000600052603260045260246000fd5b9060005260206000200160009054906101000a900473ffffffffffffffffffffffffffffffffffffffff1673ffffffffffffffffffffffffffffffffffffffff16630a82dcb16040518163ffffffff1660e01b815260040160206040518083038186803b158015611a6657600080fd5b505afa158015611a7a573d6000803e3d6000fd5b505050506040513d601f19601f82011682018060405250810190611a9e919061218d565b9050919050565b611aad611d41565b60068281548110611ae7577f4e487b7100000000000000000000000000000000000000000000000000000000600052603260045260246000fd5b9060005260206000209060020201604051806040016040529081600082018054611b1090612875565b80601f0160208091040260200160405190810160405280929190818152602001828054611b3c90612875565b8015611b895780601f10611b5e57610100808354040283529160200191611b89565b820191906000526020600020905b815481529060010190602001808311611b6c57829003601f168201915b505050505081526020016001820154815250509050919050565b611bab611d41565b60078381548110611be5577f4e487b7100000000000000000000000000000000000000000000000000000000600052603260045260246000fd5b9060005260206000200160009054906101000a900473ffffffffffffffffffffffffffffffffffffffff1673ffffffffffffffffffffffffffffffffffffffff1663e9d6c6da836040518263ffffffff1660e01b8152600401611c4891906125b9565b60006040518083038186803b158015611c6057600080fd5b505afa158015611c74573d6000803e3d6000fd5b505050506040513d6000823e3d601f19601f82011682018060405250810190611c9d9190612123565b905092915050565b42600281905550565b828054611cba90612875565b90600052602060002090601f016020900481019282611cdc5760008555611d23565b82601f10611cf557805160ff1916838001178555611d23565b82800160010185558215611d23579182015b82811115611d22578251825591602001919060010190611d07565b5b509050611d309190611d5b565b5090565b61149a806129bd83390190565b604051806040016040528060608152602001600081525090565b5b80821115611d74576000816000905550600101611d5c565b5090565b6000611d8b611d868461264a565b612619565b9050808382526020820190508260005b85811015611dcb5781358501611db18882611f2c565b845260208401935060208301925050600181019050611d9b565b5050509392505050565b6000611de8611de384612676565b612619565b9050808382526020820190508260005b85811015611e285781518501611e0e8882611f80565b845260208401935060208301925050600181019050611df8565b5050509392505050565b6000611e45611e40846126a2565b612619565b905082815260208101848484011115611e5d57600080fd5b611e68848285612833565b509392505050565b6000611e83611e7e846126a2565b612619565b905082815260208101848484011115611e9b57600080fd5b611ea6848285612842565b509392505050565b600081359050611ebd8161298e565b92915050565b600081519050611ed28161298e565b92915050565b600082601f830112611ee957600080fd5b8135611ef9848260208601611d78565b91505092915050565b600082601f830112611f1357600080fd5b8151611f23848260208601611dd5565b91505092915050565b600082601f830112611f3d57600080fd5b8135611f4d848260208601611e32565b91505092915050565b600082601f830112611f6757600080fd5b8151611f77848260208601611e70565b91505092915050565b600060408284031215611f9257600080fd5b611f9c6040612619565b9050600082015167ffffffffffffffff811115611fb857600080fd5b611fc484828501611f56565b6000830152506020611fd884828501611ff9565b60208301525092915050565b600081359050611ff3816129a5565b92915050565b600081519050612008816129a5565b92915050565b60006020828403121561202057600080fd5b600061202e84828501611eae565b91505092915050565b60006020828403121561204957600080fd5b600061205784828501611ec3565b91505092915050565b60006020828403121561207257600080fd5b600082013567ffffffffffffffff81111561208c57600080fd5b61209884828501611ed8565b91505092915050565b6000602082840312156120b357600080fd5b600082015167ffffffffffffffff8111156120cd57600080fd5b6120d984828501611f02565b91505092915050565b6000602082840312156120f457600080fd5b600082015167ffffffffffffffff81111561210e57600080fd5b61211a84828501611f56565b91505092915050565b60006020828403121561213557600080fd5b600082015167ffffffffffffffff81111561214f57600080fd5b61215b84828501611f80565b91505092915050565b60006020828403121561217657600080fd5b600061218484828501611fe4565b91505092915050565b60006020828403121561219f57600080fd5b60006121ad84828501611ff9565b91505092915050565b600080604083850312156121c957600080fd5b60006121d785828601611fe4565b92505060206121e885828601611eae565b9150509250929050565b6000806040838503121561220557600080fd5b600061221385828601611fe4565b925050602083013567ffffffffffffffff81111561223057600080fd5b61223c85828601611ed8565b9150509250929050565b6000806040838503121561225957600080fd5b600061226785828601611fe4565b925050602061227885828601611fe4565b9150509250929050565b600061228e83836123c1565b905092915050565b60006122a28383612433565b905092915050565b6122b3816127c7565b82525050565b60006122c4826126f2565b6122ce818561272d565b9350836020820285016122e0856126d2565b8060005b8581101561231c57848403895281516122fd8582612282565b945061230883612713565b925060208a019950506001810190506122e4565b50829750879550505050505092915050565b6000612339826126fd565b612343818561273e565b935083602082028501612355856126e2565b8060005b8581101561239157848403895281516123728582612296565b945061237d83612720565b925060208a01995050600181019050612359565b50829750879550505050505092915050565b6123ac816127d9565b82525050565b6123bb8161280f565b82525050565b60006123cc82612708565b6123d6818561274f565b93506123e6818560208601612842565b6123ef8161297d565b840191505092915050565b600061240582612708565b61240f8185612760565b935061241f818560208601612842565b6124288161297d565b840191505092915050565b6000604083016000830151848203600086015261245082826123c1565b915050602083015161246560208601826124ad565b508091505092915050565b6000604083016000830151848203600086015261248d82826123c1565b91505060208301516124a260208601826124ad565b508091505092915050565b6124b681612805565b82525050565b6124c581612805565b82525050565b60006020820190506124e060008301846122aa565b92915050565b6000602082019050818103600083015261250081846122b9565b905092915050565b60006020820190508181036000830152612522818461232e565b905092915050565b600060208201905061253f60008301846123b2565b92915050565b6000602082019050818103600083015261255f81846123fa565b905092915050565b6000604082019050818103600083015261258181856123fa565b905061259060208301846124bc565b9392505050565b600060208201905081810360008301526125b18184612470565b905092915050565b60006020820190506125ce60008301846124bc565b92915050565b60006080820190506125e960008301876124bc565b6125f660208301866123a3565b61260360408301856122aa565b61261060608301846124bc565b95945050505050565b6000604051905081810181811067ffffffffffffffff821117156126405761263f61294e565b5b8060405250919050565b600067ffffffffffffffff8211156126655761266461294e565b5b602082029050602081019050919050565b600067ffffffffffffffff8211156126915761269061294e565b5b602082029050602081019050919050565b600067ffffffffffffffff8211156126bd576126bc61294e565b5b601f19601f8301169050602081019050919050565b6000819050602082019050919050565b6000819050602082019050919050565b600081519050919050565b600081519050919050565b600081519050919050565b6000602082019050919050565b6000602082019050919050565b600082825260208201905092915050565b600082825260208201905092915050565b600082825260208201905092915050565b600082825260208201905092915050565b600061277c82612805565b915061278783612805565b9250827fffffffffffffffffffffffffffffffffffffffffffffffffffffffffffffffff038211156127bc576127bb6128f0565b5b828201905092915050565b60006127d2826127e5565b9050919050565b60008115159050919050565b600073ffffffffffffffffffffffffffffffffffffffff82169050919050565b6000819050919050565b600061281a82612821565b9050919050565b600061282c826127e5565b9050919050565b82818337600083830152505050565b60005b83811015612860578082015181840152602081019050612845565b8381111561286f576000848401525b50505050565b6000600282049050600182168061288d57607f821691505b602082108114156128a1576128a061291f565b5b50919050565b60006128b282612805565b91507fffffffffffffffffffffffffffffffffffffffffffffffffffffffffffffffff8214156128e5576128e46128f0565b5b600182019050919050565b7f4e487b7100000000000000000000000000000000000000000000000000000000600052601160045260246000fd5b7f4e487b7100000000000000000000000000000000000000000000000000000000600052602260045260246000fd5b7f4e487b7100000000000000000000000000000000000000000000000000000000600052604160045260246000fd5b6000601f19601f8301169050919050565b612997816127c7565b81146129a257600080fd5b50565b6129ae81612805565b81146129b957600080fd5b5056fe608060405234801561001057600080fd5b5061147a806100206000396000f3fe608060405234801561001057600080fd5b50600436106101005760003560e01c80637a16fcb011610097578063a3ec138d11610066578063a3ec138d14610264578063b135648814610297578063e2ba53f0146102b5578063e9d6c6da146102d357610100565b80637a16fcb014610204578063836bc6921461022257806386278e771461023e5780639e7b8d611461024857610100565b8063609ff1bd116100d3578063609ff1bd1461018e57806362564c48146101ac57806369ba1a75146101ca57806378f305c6146101e657610100565b80630121b93f14610105578063013cf08b146101215780630a82dcb1146101525780634e69d56014610170575b600080fd5b61011f600480360381019061011a9190610e3f565b610303565b005b61013b60048036038101906101369190610e3f565b6103f2565b604051610149929190611078565b60405180910390f35b61015a6104ae565b60405161016791906110ca565b60405180910390f35b6101786104b8565b60405161018591906110ca565b60405180910390f35b6101966104c2565b6040516101a391906110ca565b60405180910390f35b6101b4610596565b6040516101c19190611034565b60405180910390f35b6101e460048036038101906101df9190610e3f565b610691565b005b6101ee61069b565b6040516101fb91906110ca565b60405180910390f35b61020c6106a5565b6040516102199190611019565b60405180910390f35b61023c60048036038101906102379190610dfe565b6106ce565b005b61024661085c565b005b610262600480360381019061025d9190610dd5565b610865565b005b61027e60048036038101906102799190610dd5565b6109af565b60405161028e94939291906110e5565b60405180910390f35b61029f610a0c565b6040516102ac91906110ca565b60405180910390f35b6102bd610a16565b6040516102ca9190611056565b60405180910390f35b6102ed60048036038101906102e89190610e3f565b610af8565b6040516102fa91906110a8565b60405180910390f35b6000600560003373ffffffffffffffffffffffffffffffffffffffff1673ffffffffffffffffffffffffffffffffffffffff16815260200190815260200160002090508060010160009054906101000a900460ff161561036257600080fd5b60018160010160006101000a81548160ff0219169083151502179055508181600201819055508060000154600683815481106103c7577f4e487b7100000000000000000000000000000000000000000000000000000000600052603260045260246000fd5b906000526020600020906002020160010160008282546103e7919061121d565b925050819055505050565b6006818154811061040257600080fd5b9060005260206000209060020201600091509050806000018054610425906112fd565b80601f0160208091040260200160405190810160405280929190818152602001828054610451906112fd565b801561049e5780601f106104735761010080835404028352916020019161049e565b820191906000526020600020905b81548152906001019060200180831161048157829003601f168201915b5050505050908060010154905082565b6000600454905090565b6000600154905090565b6000806000905060005b600680549050811015610591578160068281548110610514577f4e487b7100000000000000000000000000000000000000000000000000000000600052603260045260246000fd5b906000526020600020906002020160010154111561057e5760068181548110610566577f4e487b7100000000000000000000000000000000000000000000000000000000600052603260045260246000fd5b90600052602060002090600202016001015491508092505b80806105899061132f565b9150506104cc565b505090565b60606006805480602002602001604051908101604052809291908181526020016000905b8282101561068857838290600052602060002090600202016040518060400160405290816000820180546105ed906112fd565b80601f0160208091040260200160405190810160405280929190818152602001828054610619906112fd565b80156106665780601f1061063b57610100808354040283529160200191610666565b820191906000526020600020905b81548152906001019060200180831161064957829003601f168201915b50505050508152602001600182015481525050815260200190600101906105ba565b50505050905090565b8060018190555050565b6000600254905090565b60008060009054906101000a900473ffffffffffffffffffffffffffffffffffffffff16905090565b336000806101000a81548173ffffffffffffffffffffffffffffffffffffffff021916908373ffffffffffffffffffffffffffffffffffffffff1602179055506001600560008060009054906101000a900473ffffffffffffffffffffffffffffffffffffffff1673ffffffffffffffffffffffffffffffffffffffff1673ffffffffffffffffffffffffffffffffffffffff168152602001908152602001600020600001819055506000600181905550610787610bf6565b805160048190555060005b815181101561085857600660405180604001604052808484815181106107e1577f4e487b7100000000000000000000000000000000000000000000000000000000600052603260045260246000fd5b60200260200101518152602001600081525090806001815401808255809150506001900390600052602060002090600202016000909190919091506000820151816000019080519060200190610838929190610bff565b5060208201518160010155505080806108509061132f565b915050610792565b5050565b42600381905550565b60008054906101000a900473ffffffffffffffffffffffffffffffffffffffff1673ffffffffffffffffffffffffffffffffffffffff163373ffffffffffffffffffffffffffffffffffffffff1614801561090d5750600560008273ffffffffffffffffffffffffffffffffffffffff1673ffffffffffffffffffffffffffffffffffffffff16815260200190815260200160002060010160009054906101000a900460ff16155b801561095b57506000600560008373ffffffffffffffffffffffffffffffffffffffff1673ffffffffffffffffffffffffffffffffffffffff16815260200190815260200160002060000154145b61096457600080fd5b6001600560008373ffffffffffffffffffffffffffffffffffffffff1673ffffffffffffffffffffffffffffffffffffffff1681526020019081526020016000206000018190555050565b60056020528060005260406000206000915090508060000154908060010160009054906101000a900460ff16908060010160019054906101000a900473ffffffffffffffffffffffffffffffffffffffff16908060020154905084565b6000600354905090565b60606006610a226104c2565b81548110610a59577f4e487b7100000000000000000000000000000000000000000000000000000000600052603260045260246000fd5b90600052602060002090600202016000018054610a75906112fd565b80601f0160208091040260200160405190810160405280929190818152602001828054610aa1906112fd565b8015610aee5780601f10610ac357610100808354040283529160200191610aee565b820191906000526020600020905b815481529060010190602001808311610ad157829003601f168201915b5050505050905090565b610b00610c85565b60068281548110610b3a577f4e487b7100000000000000000000000000000000000000000000000000000000600052603260045260246000fd5b9060005260206000209060020201604051806040016040529081600082018054610b63906112fd565b80601f0160208091040260200160405190810160405280929190818152602001828054610b8f906112fd565b8015610bdc5780601f10610bb157610100808354040283529160200191610bdc565b820191906000526020600020905b815481529060010190602001808311610bbf57829003601f168201915b505050505081526020016001820154815250509050919050565b42600281905550565b828054610c0b906112fd565b90600052602060002090601f016020900481019282610c2d5760008555610c74565b82601f10610c4657805160ff1916838001178555610c74565b82800160010185558215610c74579182015b82811115610c73578251825591602001919060010190610c58565b5b509050610c819190610c9f565b5090565b604051806040016040528060608152602001600081525090565b5b80821115610cb8576000816000905550600101610ca0565b5090565b6000610ccf610cca8461115b565b61112a565b9050808382526020820190508260005b85811015610d0f5781358501610cf58882610d96565b845260208401935060208301925050600181019050610cdf565b5050509392505050565b6000610d2c610d2784611187565b61112a565b905082815260208101848484011115610d4457600080fd5b610d4f8482856112bb565b509392505050565b600081359050610d6681611416565b92915050565b600082601f830112610d7d57600080fd5b8135610d8d848260208601610cbc565b91505092915050565b600082601f830112610da757600080fd5b8135610db7848260208601610d19565b91505092915050565b600081359050610dcf8161142d565b92915050565b600060208284031215610de757600080fd5b6000610df584828501610d57565b91505092915050565b600060208284031215610e1057600080fd5b600082013567ffffffffffffffff811115610e2a57600080fd5b610e3684828501610d6c565b91505092915050565b600060208284031215610e5157600080fd5b6000610e5f84828501610dc0565b91505092915050565b6000610e748383610f81565b905092915050565b610e8581611273565b82525050565b6000610e96826111c7565b610ea081856111ea565b935083602082028501610eb2856111b7565b8060005b85811015610eee5784840389528151610ecf8582610e68565b9450610eda836111dd565b925060208a01995050600181019050610eb6565b50829750879550505050505092915050565b610f0981611285565b82525050565b6000610f1a826111d2565b610f2481856111fb565b9350610f348185602086016112ca565b610f3d81611405565b840191505092915050565b6000610f53826111d2565b610f5d818561120c565b9350610f6d8185602086016112ca565b610f7681611405565b840191505092915050565b60006040830160008301518482036000860152610f9e8282610f0f565b9150506020830151610fb36020860182610ffb565b508091505092915050565b60006040830160008301518482036000860152610fdb8282610f0f565b9150506020830151610ff06020860182610ffb565b508091505092915050565b611004816112b1565b82525050565b611013816112b1565b82525050565b600060208201905061102e6000830184610e7c565b92915050565b6000602082019050818103600083015261104e8184610e8b565b905092915050565b600060208201905081810360008301526110708184610f48565b905092915050565b600060408201905081810360008301526110928185610f48565b90506110a1602083018461100a565b9392505050565b600060208201905081810360008301526110c28184610fbe565b905092915050565b60006020820190506110df600083018461100a565b92915050565b60006080820190506110fa600083018761100a565b6111076020830186610f00565b6111146040830185610e7c565b611121606083018461100a565b95945050505050565b6000604051905081810181811067ffffffffffffffff82111715611151576111506113d6565b5b8060405250919050565b600067ffffffffffffffff821115611176576111756113d6565b5b602082029050602081019050919050565b600067ffffffffffffffff8211156111a2576111a16113d6565b5b601f19601f8301169050602081019050919050565b6000819050602082019050919050565b600081519050919050565b600081519050919050565b6000602082019050919050565b600082825260208201905092915050565b600082825260208201905092915050565b600082825260208201905092915050565b6000611228826112b1565b9150611233836112b1565b9250827fffffffffffffffffffffffffffffffffffffffffffffffffffffffffffffffff0382111561126857611267611378565b5b828201905092915050565b600061127e82611291565b9050919050565b60008115159050919050565b600073ffffffffffffffffffffffffffffffffffffffff82169050919050565b6000819050919050565b82818337600083830152505050565b60005b838110156112e85780820151818401526020810190506112cd565b838111156112f7576000848401525b50505050565b6000600282049050600182168061131557607f821691505b60208210811415611329576113286113a7565b5b50919050565b600061133a826112b1565b91507fffffffffffffffffffffffffffffffffffffffffffffffffffffffffffffffff82141561136d5761136c611378565b5b600182019050919050565b7f4e487b7100000000000000000000000000000000000000000000000000000000600052601160045260246000fd5b7f4e487b7100000000000000000000000000000000000000000000000000000000600052602260045260246000fd5b7f4e487b7100000000000000000000000000000000000000000000000000000000600052604160045260246000fd5b6000601f19601f8301169050919050565b61141f81611273565b811461142a57600080fd5b50565b611436816112b1565b811461144157600080fd5b5056fea264697066735822122019df581250950ad809f57433849780ce70b84029b1a804454accddc566cdad0564736f6c63430008000033a2646970667358221220f8e86c8938f11ce4919e1d91843be6f9f9ceafd12f7db7edc0cc574d92823cf164736f6c63430008000033",
					"opcodes": "PUSH1 0x80 PUSH1 0x40 MSTORE CALLVALUE DUP1 ISZERO PUSH2 0x10 JUMPI PUSH1 0x0 DUP1 REVERT JUMPDEST POP PUSH2 0x3E8C DUP1 PUSH2 0x20 PUSH1 0x0 CODECOPY PUSH1 0x0 RETURN INVALID PUSH1 0x80 PUSH1 0x40 MSTORE CALLVALUE DUP1 ISZERO PUSH2 0x10 JUMPI PUSH1 0x0 DUP1 REVERT JUMPDEST POP PUSH1 0x4 CALLDATASIZE LT PUSH2 0x1F0 JUMPI PUSH1 0x0 CALLDATALOAD PUSH1 0xE0 SHR DUP1 PUSH4 0x7A16FCB0 GT PUSH2 0x10F JUMPI DUP1 PUSH4 0xB434B42E GT PUSH2 0xA2 JUMPI DUP1 PUSH4 0xE2BA53F0 GT PUSH2 0x71 JUMPI DUP1 PUSH4 0xE2BA53F0 EQ PUSH2 0x5BB JUMPI DUP1 PUSH4 0xE93303A6 EQ PUSH2 0x5D9 JUMPI DUP1 PUSH4 0xE9D6C6DA EQ PUSH2 0x609 JUMPI DUP1 PUSH4 0xEDA94C7B EQ PUSH2 0x639 JUMPI PUSH2 0x1F0 JUMP JUMPDEST DUP1 PUSH4 0xB434B42E EQ PUSH2 0x523 JUMPI DUP1 PUSH4 0xBA92763A EQ PUSH2 0x53F JUMPI DUP1 PUSH4 0xC285C0D3 EQ PUSH2 0x56F JUMPI DUP1 PUSH4 0xD7558D4B EQ PUSH2 0x58B JUMPI PUSH2 0x1F0 JUMP JUMPDEST DUP1 PUSH4 0x962FAFD0 GT PUSH2 0xDE JUMPI DUP1 PUSH4 0x962FAFD0 EQ PUSH2 0x4AC JUMPI DUP1 PUSH4 0x9E7B8D61 EQ PUSH2 0x4B6 JUMPI DUP1 PUSH4 0xA3EC138D EQ PUSH2 0x4D2 JUMPI DUP1 PUSH4 0xB1356488 EQ PUSH2 0x505 JUMPI PUSH2 0x1F0 JUMP JUMPDEST DUP1 PUSH4 0x7A16FCB0 EQ PUSH2 0x438 JUMPI DUP1 PUSH4 0x836BC692 EQ PUSH2 0x456 JUMPI DUP1 PUSH4 0x8586D33E EQ PUSH2 0x472 JUMPI DUP1 PUSH4 0x86278E77 EQ PUSH2 0x4A2 JUMPI PUSH2 0x1F0 JUMP JUMPDEST DUP1 PUSH4 0x609FF1BD GT PUSH2 0x187 JUMPI DUP1 PUSH4 0x69BA1A75 GT PUSH2 0x156 JUMPI DUP1 PUSH4 0x69BA1A75 EQ PUSH2 0x3B2 JUMPI DUP1 PUSH4 0x735D8B87 EQ PUSH2 0x3CE JUMPI DUP1 PUSH4 0x763FCB98 EQ PUSH2 0x3EA JUMPI DUP1 PUSH4 0x78F305C6 EQ PUSH2 0x41A JUMPI PUSH2 0x1F0 JUMP JUMPDEST DUP1 PUSH4 0x609FF1BD EQ PUSH2 0x32A JUMPI DUP1 PUSH4 0x62564C48 EQ PUSH2 0x348 JUMPI DUP1 PUSH4 0x627C2367 EQ PUSH2 0x366 JUMPI DUP1 PUSH4 0x643CB096 EQ PUSH2 0x382 JUMPI PUSH2 0x1F0 JUMP JUMPDEST DUP1 PUSH4 0x2A8CDC4C GT PUSH2 0x1C3 JUMPI DUP1 PUSH4 0x2A8CDC4C EQ PUSH2 0x290 JUMPI DUP1 PUSH4 0x3784F000 EQ PUSH2 0x2C0 JUMPI DUP1 PUSH4 0x4E69D560 EQ PUSH2 0x2DC JUMPI DUP1 PUSH4 0x5C6B047A EQ PUSH2 0x2FA JUMPI PUSH2 0x1F0 JUMP JUMPDEST DUP1 PUSH4 0x121B93F EQ PUSH2 0x1F5 JUMPI DUP1 PUSH4 0x13CF08B EQ PUSH2 0x211 JUMPI DUP1 PUSH4 0x8225266 EQ PUSH2 0x242 JUMPI DUP1 PUSH4 0xA82DCB1 EQ PUSH2 0x272 JUMPI JUMPDEST PUSH1 0x0 DUP1 REVERT JUMPDEST PUSH2 0x20F PUSH1 0x4 DUP1 CALLDATASIZE SUB DUP2 ADD SWAP1 PUSH2 0x20A SWAP2 SWAP1 PUSH2 0x2164 JUMP JUMPDEST PUSH2 0x669 JUMP JUMPDEST STOP JUMPDEST PUSH2 0x22B PUSH1 0x4 DUP1 CALLDATASIZE SUB DUP2 ADD SWAP1 PUSH2 0x226 SWAP2 SWAP1 PUSH2 0x2164 JUMP JUMPDEST PUSH2 0x758 JUMP JUMPDEST PUSH1 0x40 MLOAD PUSH2 0x239 SWAP3 SWAP2 SWAP1 PUSH2 0x2567 JUMP JUMPDEST PUSH1 0x40 MLOAD DUP1 SWAP2 SUB SWAP1 RETURN JUMPDEST PUSH2 0x25C PUSH1 0x4 DUP1 CALLDATASIZE SUB DUP2 ADD SWAP1 PUSH2 0x257 SWAP2 SWAP1 PUSH2 0x2164 JUMP JUMPDEST PUSH2 0x814 JUMP JUMPDEST PUSH1 0x40 MLOAD PUSH2 0x269 SWAP2 SWAP1 PUSH2 0x2508 JUMP JUMPDEST PUSH1 0x40 MLOAD DUP1 SWAP2 SUB SWAP1 RETURN JUMPDEST PUSH2 0x27A PUSH2 0x904 JUMP JUMPDEST PUSH1 0x40 MLOAD PUSH2 0x287 SWAP2 SWAP1 PUSH2 0x25B9 JUMP JUMPDEST PUSH1 0x40 MLOAD DUP1 SWAP2 SUB SWAP1 RETURN JUMPDEST PUSH2 0x2AA PUSH1 0x4 DUP1 CALLDATASIZE SUB DUP2 ADD SWAP1 PUSH2 0x2A5 SWAP2 SWAP1 PUSH2 0x2164 JUMP JUMPDEST PUSH2 0x90E JUMP JUMPDEST PUSH1 0x40 MLOAD PUSH2 0x2B7 SWAP2 SWAP1 PUSH2 0x24CB JUMP JUMPDEST PUSH1 0x40 MLOAD DUP1 SWAP2 SUB SWAP1 RETURN JUMPDEST PUSH2 0x2DA PUSH1 0x4 DUP1 CALLDATASIZE SUB DUP2 ADD SWAP1 PUSH2 0x2D5 SWAP2 SWAP1 PUSH2 0x2164 JUMP JUMPDEST PUSH2 0x9F9 JUMP JUMPDEST STOP JUMPDEST PUSH2 0x2E4 PUSH2 0xAC0 JUMP JUMPDEST PUSH1 0x40 MLOAD PUSH2 0x2F1 SWAP2 SWAP1 PUSH2 0x25B9 JUMP JUMPDEST PUSH1 0x40 MLOAD DUP1 SWAP2 SUB SWAP1 RETURN JUMPDEST PUSH2 0x314 PUSH1 0x4 DUP1 CALLDATASIZE SUB DUP2 ADD SWAP1 PUSH2 0x30F SWAP2 SWAP1 PUSH2 0x2164 JUMP JUMPDEST PUSH2 0xACA JUMP JUMPDEST PUSH1 0x40 MLOAD PUSH2 0x321 SWAP2 SWAP1 PUSH2 0x25B9 JUMP JUMPDEST PUSH1 0x40 MLOAD DUP1 SWAP2 SUB SWAP1 RETURN JUMPDEST PUSH2 0x332 PUSH2 0xBB5 JUMP JUMPDEST PUSH1 0x40 MLOAD PUSH2 0x33F SWAP2 SWAP1 PUSH2 0x25B9 JUMP JUMPDEST PUSH1 0x40 MLOAD DUP1 SWAP2 SUB SWAP1 RETURN JUMPDEST PUSH2 0x350 PUSH2 0xC89 JUMP JUMPDEST PUSH1 0x40 MLOAD PUSH2 0x35D SWAP2 SWAP1 PUSH2 0x2508 JUMP JUMPDEST PUSH1 0x40 MLOAD DUP1 SWAP2 SUB SWAP1 RETURN JUMPDEST PUSH2 0x380 PUSH1 0x4 DUP1 CALLDATASIZE SUB DUP2 ADD SWAP1 PUSH2 0x37B SWAP2 SWAP1 PUSH2 0x2246 JUMP JUMPDEST PUSH2 0xD84 JUMP JUMPDEST STOP JUMPDEST PUSH2 0x39C PUSH1 0x4 DUP1 CALLDATASIZE SUB DUP2 ADD SWAP1 PUSH2 0x397 SWAP2 SWAP1 PUSH2 0x2164 JUMP JUMPDEST PUSH2 0xE57 JUMP JUMPDEST PUSH1 0x40 MLOAD PUSH2 0x3A9 SWAP2 SWAP1 PUSH2 0x252A JUMP JUMPDEST PUSH1 0x40 MLOAD DUP1 SWAP2 SUB SWAP1 RETURN JUMPDEST PUSH2 0x3CC PUSH1 0x4 DUP1 CALLDATASIZE SUB DUP2 ADD SWAP1 PUSH2 0x3C7 SWAP2 SWAP1 PUSH2 0x2164 JUMP JUMPDEST PUSH2 0xE96 JUMP JUMPDEST STOP JUMPDEST PUSH2 0x3E8 PUSH1 0x4 DUP1 CALLDATASIZE SUB DUP2 ADD SWAP1 PUSH2 0x3E3 SWAP2 SWAP1 PUSH2 0x21F2 JUMP JUMPDEST PUSH2 0xEA0 JUMP JUMPDEST STOP JUMPDEST PUSH2 0x404 PUSH1 0x4 DUP1 CALLDATASIZE SUB DUP2 ADD SWAP1 PUSH2 0x3FF SWAP2 SWAP1 PUSH2 0x2164 JUMP JUMPDEST PUSH2 0xF73 JUMP JUMPDEST PUSH1 0x40 MLOAD PUSH2 0x411 SWAP2 SWAP1 PUSH2 0x2545 JUMP JUMPDEST PUSH1 0x40 MLOAD DUP1 SWAP2 SUB SWAP1 RETURN JUMPDEST PUSH2 0x422 PUSH2 0x1063 JUMP JUMPDEST PUSH1 0x40 MLOAD PUSH2 0x42F SWAP2 SWAP1 PUSH2 0x25B9 JUMP JUMPDEST PUSH1 0x40 MLOAD DUP1 SWAP2 SUB SWAP1 RETURN JUMPDEST PUSH2 0x440 PUSH2 0x106D JUMP JUMPDEST PUSH1 0x40 MLOAD PUSH2 0x44D SWAP2 SWAP1 PUSH2 0x24CB JUMP JUMPDEST PUSH1 0x40 MLOAD DUP1 SWAP2 SUB SWAP1 RETURN JUMPDEST PUSH2 0x470 PUSH1 0x4 DUP1 CALLDATASIZE SUB DUP2 ADD SWAP1 PUSH2 0x46B SWAP2 SWAP1 PUSH2 0x2060 JUMP JUMPDEST PUSH2 0x1096 JUMP JUMPDEST STOP JUMPDEST PUSH2 0x48C PUSH1 0x4 DUP1 CALLDATASIZE SUB DUP2 ADD SWAP1 PUSH2 0x487 SWAP2 SWAP1 PUSH2 0x2164 JUMP JUMPDEST PUSH2 0x1224 JUMP JUMPDEST PUSH1 0x40 MLOAD PUSH2 0x499 SWAP2 SWAP1 PUSH2 0x25B9 JUMP JUMPDEST PUSH1 0x40 MLOAD DUP1 SWAP2 SUB SWAP1 RETURN JUMPDEST PUSH2 0x4AA PUSH2 0x130F JUMP JUMPDEST STOP JUMPDEST PUSH2 0x4B4 PUSH2 0x1318 JUMP JUMPDEST STOP JUMPDEST PUSH2 0x4D0 PUSH1 0x4 DUP1 CALLDATASIZE SUB DUP2 ADD SWAP1 PUSH2 0x4CB SWAP2 SWAP1 PUSH2 0x200E JUMP JUMPDEST PUSH2 0x13AB JUMP JUMPDEST STOP JUMPDEST PUSH2 0x4EC PUSH1 0x4 DUP1 CALLDATASIZE SUB DUP2 ADD SWAP1 PUSH2 0x4E7 SWAP2 SWAP1 PUSH2 0x200E JUMP JUMPDEST PUSH2 0x14F5 JUMP JUMPDEST PUSH1 0x40 MLOAD PUSH2 0x4FC SWAP5 SWAP4 SWAP3 SWAP2 SWAP1 PUSH2 0x25D4 JUMP JUMPDEST PUSH1 0x40 MLOAD DUP1 SWAP2 SUB SWAP1 RETURN JUMPDEST PUSH2 0x50D PUSH2 0x1552 JUMP JUMPDEST PUSH1 0x40 MLOAD PUSH2 0x51A SWAP2 SWAP1 PUSH2 0x25B9 JUMP JUMPDEST PUSH1 0x40 MLOAD DUP1 SWAP2 SUB SWAP1 RETURN JUMPDEST PUSH2 0x53D PUSH1 0x4 DUP1 CALLDATASIZE SUB DUP2 ADD SWAP1 PUSH2 0x538 SWAP2 SWAP1 PUSH2 0x2246 JUMP JUMPDEST PUSH2 0x155C JUMP JUMPDEST STOP JUMPDEST PUSH2 0x559 PUSH1 0x4 DUP1 CALLDATASIZE SUB DUP2 ADD SWAP1 PUSH2 0x554 SWAP2 SWAP1 PUSH2 0x2164 JUMP JUMPDEST PUSH2 0x162F JUMP JUMPDEST PUSH1 0x40 MLOAD PUSH2 0x566 SWAP2 SWAP1 PUSH2 0x25B9 JUMP JUMPDEST PUSH1 0x40 MLOAD DUP1 SWAP2 SUB SWAP1 RETURN JUMPDEST PUSH2 0x589 PUSH1 0x4 DUP1 CALLDATASIZE SUB DUP2 ADD SWAP1 PUSH2 0x584 SWAP2 SWAP1 PUSH2 0x21B6 JUMP JUMPDEST PUSH2 0x171A JUMP JUMPDEST STOP JUMPDEST PUSH2 0x5A5 PUSH1 0x4 DUP1 CALLDATASIZE SUB DUP2 ADD SWAP1 PUSH2 0x5A0 SWAP2 SWAP1 PUSH2 0x2164 JUMP JUMPDEST PUSH2 0x17ED JUMP JUMPDEST PUSH1 0x40 MLOAD PUSH2 0x5B2 SWAP2 SWAP1 PUSH2 0x25B9 JUMP JUMPDEST PUSH1 0x40 MLOAD DUP1 SWAP2 SUB SWAP1 RETURN JUMPDEST PUSH2 0x5C3 PUSH2 0x18D8 JUMP JUMPDEST PUSH1 0x40 MLOAD PUSH2 0x5D0 SWAP2 SWAP1 PUSH2 0x2545 JUMP JUMPDEST PUSH1 0x40 MLOAD DUP1 SWAP2 SUB SWAP1 RETURN JUMPDEST PUSH2 0x5F3 PUSH1 0x4 DUP1 CALLDATASIZE SUB DUP2 ADD SWAP1 PUSH2 0x5EE SWAP2 SWAP1 PUSH2 0x2164 JUMP JUMPDEST PUSH2 0x19BA JUMP JUMPDEST PUSH1 0x40 MLOAD PUSH2 0x600 SWAP2 SWAP1 PUSH2 0x25B9 JUMP JUMPDEST PUSH1 0x40 MLOAD DUP1 SWAP2 SUB SWAP1 RETURN JUMPDEST PUSH2 0x623 PUSH1 0x4 DUP1 CALLDATASIZE SUB DUP2 ADD SWAP1 PUSH2 0x61E SWAP2 SWAP1 PUSH2 0x2164 JUMP JUMPDEST PUSH2 0x1AA5 JUMP JUMPDEST PUSH1 0x40 MLOAD PUSH2 0x630 SWAP2 SWAP1 PUSH2 0x2597 JUMP JUMPDEST PUSH1 0x40 MLOAD DUP1 SWAP2 SUB SWAP1 RETURN JUMPDEST PUSH2 0x653 PUSH1 0x4 DUP1 CALLDATASIZE SUB DUP2 ADD SWAP1 PUSH2 0x64E SWAP2 SWAP1 PUSH2 0x2246 JUMP JUMPDEST PUSH2 0x1BA3 JUMP JUMPDEST PUSH1 0x40 MLOAD PUSH2 0x660 SWAP2 SWAP1 PUSH2 0x2597 JUMP JUMPDEST PUSH1 0x40 MLOAD DUP1 SWAP2 SUB SWAP1 RETURN JUMPDEST PUSH1 0x0 PUSH1 0x5 PUSH1 0x0 CALLER PUSH20 0xFFFFFFFFFFFFFFFFFFFFFFFFFFFFFFFFFFFFFFFF AND PUSH20 0xFFFFFFFFFFFFFFFFFFFFFFFFFFFFFFFFFFFFFFFF AND DUP2 MSTORE PUSH1 0x20 ADD SWAP1 DUP2 MSTORE PUSH1 0x20 ADD PUSH1 0x0 KECCAK256 SWAP1 POP DUP1 PUSH1 0x1 ADD PUSH1 0x0 SWAP1 SLOAD SWAP1 PUSH2 0x100 EXP SWAP1 DIV PUSH1 0xFF AND ISZERO PUSH2 0x6C8 JUMPI PUSH1 0x0 DUP1 REVERT JUMPDEST PUSH1 0x1 DUP2 PUSH1 0x1 ADD PUSH1 0x0 PUSH2 0x100 EXP DUP2 SLOAD DUP2 PUSH1 0xFF MUL NOT AND SWAP1 DUP4 ISZERO ISZERO MUL OR SWAP1 SSTORE POP DUP2 DUP2 PUSH1 0x2 ADD DUP2 SWAP1 SSTORE POP DUP1 PUSH1 0x0 ADD SLOAD PUSH1 0x6 DUP4 DUP2 SLOAD DUP2 LT PUSH2 0x72D JUMPI PUSH32 0x4E487B7100000000000000000000000000000000000000000000000000000000 PUSH1 0x0 MSTORE PUSH1 0x32 PUSH1 0x4 MSTORE PUSH1 0x24 PUSH1 0x0 REVERT JUMPDEST SWAP1 PUSH1 0x0 MSTORE PUSH1 0x20 PUSH1 0x0 KECCAK256 SWAP1 PUSH1 0x2 MUL ADD PUSH1 0x1 ADD PUSH1 0x0 DUP3 DUP3 SLOAD PUSH2 0x74D SWAP2 SWAP1 PUSH2 0x2771 JUMP JUMPDEST SWAP3 POP POP DUP2 SWAP1 SSTORE POP POP POP JUMP JUMPDEST PUSH1 0x6 DUP2 DUP2 SLOAD DUP2 LT PUSH2 0x768 JUMPI PUSH1 0x0 DUP1 REVERT JUMPDEST SWAP1 PUSH1 0x0 MSTORE PUSH1 0x20 PUSH1 0x0 KECCAK256 SWAP1 PUSH1 0x2 MUL ADD PUSH1 0x0 SWAP2 POP SWAP1 POP DUP1 PUSH1 0x0 ADD DUP1 SLOAD PUSH2 0x78B SWAP1 PUSH2 0x2875 JUMP JUMPDEST DUP1 PUSH1 0x1F ADD PUSH1 0x20 DUP1 SWAP2 DIV MUL PUSH1 0x20 ADD PUSH1 0x40 MLOAD SWAP1 DUP2 ADD PUSH1 0x40 MSTORE DUP1 SWAP3 SWAP2 SWAP1 DUP2 DUP2 MSTORE PUSH1 0x20 ADD DUP3 DUP1 SLOAD PUSH2 0x7B7 SWAP1 PUSH2 0x2875 JUMP JUMPDEST DUP1 ISZERO PUSH2 0x804 JUMPI DUP1 PUSH1 0x1F LT PUSH2 0x7D9 JUMPI PUSH2 0x100 DUP1 DUP4 SLOAD DIV MUL DUP4 MSTORE SWAP2 PUSH1 0x20 ADD SWAP2 PUSH2 0x804 JUMP JUMPDEST DUP3 ADD SWAP2 SWAP1 PUSH1 0x0 MSTORE PUSH1 0x20 PUSH1 0x0 KECCAK256 SWAP1 JUMPDEST DUP2 SLOAD DUP2 MSTORE SWAP1 PUSH1 0x1 ADD SWAP1 PUSH1 0x20 ADD DUP1 DUP4 GT PUSH2 0x7E7 JUMPI DUP3 SWAP1 SUB PUSH1 0x1F AND DUP3 ADD SWAP2 JUMPDEST POP POP POP POP POP SWAP1 DUP1 PUSH1 0x1 ADD SLOAD SWAP1 POP DUP3 JUMP JUMPDEST PUSH1 0x60 PUSH1 0x7 DUP3 DUP2 SLOAD DUP2 LT PUSH2 0x850 JUMPI PUSH32 0x4E487B7100000000000000000000000000000000000000000000000000000000 PUSH1 0x0 MSTORE PUSH1 0x32 PUSH1 0x4 MSTORE PUSH1 0x24 PUSH1 0x0 REVERT JUMPDEST SWAP1 PUSH1 0x0 MSTORE PUSH1 0x20 PUSH1 0x0 KECCAK256 ADD PUSH1 0x0 SWAP1 SLOAD SWAP1 PUSH2 0x100 EXP SWAP1 DIV PUSH20 0xFFFFFFFFFFFFFFFFFFFFFFFFFFFFFFFFFFFFFFFF AND PUSH20 0xFFFFFFFFFFFFFFFFFFFFFFFFFFFFFFFFFFFFFFFF AND PUSH4 0x62564C48 PUSH1 0x40 MLOAD DUP2 PUSH4 0xFFFFFFFF AND PUSH1 0xE0 SHL DUP2 MSTORE PUSH1 0x4 ADD PUSH1 0x0 PUSH1 0x40 MLOAD DUP1 DUP4 SUB DUP2 DUP7 DUP1 EXTCODESIZE ISZERO DUP1 ISZERO PUSH2 0x8C0 JUMPI PUSH1 0x0 DUP1 REVERT JUMPDEST POP GAS STATICCALL ISZERO DUP1 ISZERO PUSH2 0x8D4 JUMPI RETURNDATASIZE PUSH1 0x0 DUP1 RETURNDATACOPY RETURNDATASIZE PUSH1 0x0 REVERT JUMPDEST POP POP POP POP PUSH1 0x40 MLOAD RETURNDATASIZE PUSH1 0x0 DUP3 RETURNDATACOPY RETURNDATASIZE PUSH1 0x1F NOT PUSH1 0x1F DUP3 ADD AND DUP3 ADD DUP1 PUSH1 0x40 MSTORE POP DUP2 ADD SWAP1 PUSH2 0x8FD SWAP2 SWAP1 PUSH2 0x20A1 JUMP JUMPDEST SWAP1 POP SWAP2 SWAP1 POP JUMP JUMPDEST PUSH1 0x0 PUSH1 0x4 SLOAD SWAP1 POP SWAP1 JUMP JUMPDEST PUSH1 0x0 PUSH1 0x7 DUP3 DUP2 SLOAD DUP2 LT PUSH2 0x94A JUMPI PUSH32 0x4E487B7100000000000000000000000000000000000000000000000000000000 PUSH1 0x0 MSTORE PUSH1 0x32 PUSH1 0x4 MSTORE PUSH1 0x24 PUSH1 0x0 REVERT JUMPDEST SWAP1 PUSH1 0x0 MSTORE PUSH1 0x20 PUSH1 0x0 KECCAK256 ADD PUSH1 0x0 SWAP1 SLOAD SWAP1 PUSH2 0x100 EXP SWAP1 DIV PUSH20 0xFFFFFFFFFFFFFFFFFFFFFFFFFFFFFFFFFFFFFFFF AND PUSH20 0xFFFFFFFFFFFFFFFFFFFFFFFFFFFFFFFFFFFFFFFF AND PUSH4 0x7A16FCB0 PUSH1 0x40 MLOAD DUP2 PUSH4 0xFFFFFFFF AND PUSH1 0xE0 SHL DUP2 MSTORE PUSH1 0x4 ADD PUSH1 0x20 PUSH1 0x40 MLOAD DUP1 DUP4 SUB DUP2 DUP7 DUP1 EXTCODESIZE ISZERO DUP1 ISZERO PUSH2 0x9BA JUMPI PUSH1 0x0 DUP1 REVERT JUMPDEST POP GAS STATICCALL ISZERO DUP1 ISZERO PUSH2 0x9CE JUMPI RETURNDATASIZE PUSH1 0x0 DUP1 RETURNDATACOPY RETURNDATASIZE PUSH1 0x0 REVERT JUMPDEST POP POP POP POP PUSH1 0x40 MLOAD RETURNDATASIZE PUSH1 0x1F NOT PUSH1 0x1F DUP3 ADD AND DUP3 ADD DUP1 PUSH1 0x40 MSTORE POP DUP2 ADD SWAP1 PUSH2 0x9F2 SWAP2 SWAP1 PUSH2 0x2037 JUMP JUMPDEST SWAP1 POP SWAP2 SWAP1 POP JUMP JUMPDEST PUSH1 0x7 DUP2 DUP2 SLOAD DUP2 LT PUSH2 0xA33 JUMPI PUSH32 0x4E487B7100000000000000000000000000000000000000000000000000000000 PUSH1 0x0 MSTORE PUSH1 0x32 PUSH1 0x4 MSTORE PUSH1 0x24 PUSH1 0x0 REVERT JUMPDEST SWAP1 PUSH1 0x0 MSTORE PUSH1 0x20 PUSH1 0x0 KECCAK256 ADD PUSH1 0x0 SWAP1 SLOAD SWAP1 PUSH2 0x100 EXP SWAP1 DIV PUSH20 0xFFFFFFFFFFFFFFFFFFFFFFFFFFFFFFFFFFFFFFFF AND PUSH20 0xFFFFFFFFFFFFFFFFFFFFFFFFFFFFFFFFFFFFFFFF AND PUSH4 0x86278E77 PUSH1 0x40 MLOAD DUP2 PUSH4 0xFFFFFFFF AND PUSH1 0xE0 SHL DUP2 MSTORE PUSH1 0x4 ADD PUSH1 0x0 PUSH1 0x40 MLOAD DUP1 DUP4 SUB DUP2 PUSH1 0x0 DUP8 DUP1 EXTCODESIZE ISZERO DUP1 ISZERO PUSH2 0xAA5 JUMPI PUSH1 0x0 DUP1 REVERT JUMPDEST POP GAS CALL ISZERO DUP1 ISZERO PUSH2 0xAB9 JUMPI RETURNDATASIZE PUSH1 0x0 DUP1 RETURNDATACOPY RETURNDATASIZE PUSH1 0x0 REVERT JUMPDEST POP POP POP POP POP JUMP JUMPDEST PUSH1 0x0 PUSH1 0x1 SLOAD SWAP1 POP SWAP1 JUMP JUMPDEST PUSH1 0x0 PUSH1 0x7 DUP3 DUP2 SLOAD DUP2 LT PUSH2 0xB06 JUMPI PUSH32 0x4E487B7100000000000000000000000000000000000000000000000000000000 PUSH1 0x0 MSTORE PUSH1 0x32 PUSH1 0x4 MSTORE PUSH1 0x24 PUSH1 0x0 REVERT JUMPDEST SWAP1 PUSH1 0x0 MSTORE PUSH1 0x20 PUSH1 0x0 KECCAK256 ADD PUSH1 0x0 SWAP1 SLOAD SWAP1 PUSH2 0x100 EXP SWAP1 DIV PUSH20 0xFFFFFFFFFFFFFFFFFFFFFFFFFFFFFFFFFFFFFFFF AND PUSH20 0xFFFFFFFFFFFFFFFFFFFFFFFFFFFFFFFFFFFFFFFF AND PUSH4 0xB1356488 PUSH1 0x40 MLOAD DUP2 PUSH4 0xFFFFFFFF AND PUSH1 0xE0 SHL DUP2 MSTORE PUSH1 0x4 ADD PUSH1 0x20 PUSH1 0x40 MLOAD DUP1 DUP4 SUB DUP2 DUP7 DUP1 EXTCODESIZE ISZERO DUP1 ISZERO PUSH2 0xB76 JUMPI PUSH1 0x0 DUP1 REVERT JUMPDEST POP GAS STATICCALL ISZERO DUP1 ISZERO PUSH2 0xB8A JUMPI RETURNDATASIZE PUSH1 0x0 DUP1 RETURNDATACOPY RETURNDATASIZE PUSH1 0x0 REVERT JUMPDEST POP POP POP POP PUSH1 0x40 MLOAD RETURNDATASIZE PUSH1 0x1F NOT PUSH1 0x1F DUP3 ADD AND DUP3 ADD DUP1 PUSH1 0x40 MSTORE POP DUP2 ADD SWAP1 PUSH2 0xBAE SWAP2 SWAP1 PUSH2 0x218D JUMP JUMPDEST SWAP1 POP SWAP2 SWAP1 POP JUMP JUMPDEST PUSH1 0x0 DUP1 PUSH1 0x0 SWAP1 POP PUSH1 0x0 JUMPDEST PUSH1 0x6 DUP1 SLOAD SWAP1 POP DUP2 LT ISZERO PUSH2 0xC84 JUMPI DUP2 PUSH1 0x6 DUP3 DUP2 SLOAD DUP2 LT PUSH2 0xC07 JUMPI PUSH32 0x4E487B7100000000000000000000000000000000000000000000000000000000 PUSH1 0x0 MSTORE PUSH1 0x32 PUSH1 0x4 MSTORE PUSH1 0x24 PUSH1 0x0 REVERT JUMPDEST SWAP1 PUSH1 0x0 MSTORE PUSH1 0x20 PUSH1 0x0 KECCAK256 SWAP1 PUSH1 0x2 MUL ADD PUSH1 0x1 ADD SLOAD GT ISZERO PUSH2 0xC71 JUMPI PUSH1 0x6 DUP2 DUP2 SLOAD DUP2 LT PUSH2 0xC59 JUMPI PUSH32 0x4E487B7100000000000000000000000000000000000000000000000000000000 PUSH1 0x0 MSTORE PUSH1 0x32 PUSH1 0x4 MSTORE PUSH1 0x24 PUSH1 0x0 REVERT JUMPDEST SWAP1 PUSH1 0x0 MSTORE PUSH1 0x20 PUSH1 0x0 KECCAK256 SWAP1 PUSH1 0x2 MUL ADD PUSH1 0x1 ADD SLOAD SWAP2 POP DUP1 SWAP3 POP JUMPDEST DUP1 DUP1 PUSH2 0xC7C SWAP1 PUSH2 0x28A7 JUMP JUMPDEST SWAP2 POP POP PUSH2 0xBBF JUMP JUMPDEST POP POP SWAP1 JUMP JUMPDEST PUSH1 0x60 PUSH1 0x6 DUP1 SLOAD DUP1 PUSH1 0x20 MUL PUSH1 0x20 ADD PUSH1 0x40 MLOAD SWAP1 DUP2 ADD PUSH1 0x40 MSTORE DUP1 SWAP3 SWAP2 SWAP1 DUP2 DUP2 MSTORE PUSH1 0x20 ADD PUSH1 0x0 SWAP1 JUMPDEST DUP3 DUP3 LT ISZERO PUSH2 0xD7B JUMPI DUP4 DUP3 SWAP1 PUSH1 0x0 MSTORE PUSH1 0x20 PUSH1 0x0 KECCAK256 SWAP1 PUSH1 0x2 MUL ADD PUSH1 0x40 MLOAD DUP1 PUSH1 0x40 ADD PUSH1 0x40 MSTORE SWAP1 DUP2 PUSH1 0x0 DUP3 ADD DUP1 SLOAD PUSH2 0xCE0 SWAP1 PUSH2 0x2875 JUMP JUMPDEST DUP1 PUSH1 0x1F ADD PUSH1 0x20 DUP1 SWAP2 DIV MUL PUSH1 0x20 ADD PUSH1 0x40 MLOAD SWAP1 DUP2 ADD PUSH1 0x40 MSTORE DUP1 SWAP3 SWAP2 SWAP1 DUP2 DUP2 MSTORE PUSH1 0x20 ADD DUP3 DUP1 SLOAD PUSH2 0xD0C SWAP1 PUSH2 0x2875 JUMP JUMPDEST DUP1 ISZERO PUSH2 0xD59 JUMPI DUP1 PUSH1 0x1F LT PUSH2 0xD2E JUMPI PUSH2 0x100 DUP1 DUP4 SLOAD DIV MUL DUP4 MSTORE SWAP2 PUSH1 0x20 ADD SWAP2 PUSH2 0xD59 JUMP JUMPDEST DUP3 ADD SWAP2 SWAP1 PUSH1 0x0 MSTORE PUSH1 0x20 PUSH1 0x0 KECCAK256 SWAP1 JUMPDEST DUP2 SLOAD DUP2 MSTORE SWAP1 PUSH1 0x1 ADD SWAP1 PUSH1 0x20 ADD DUP1 DUP4 GT PUSH2 0xD3C JUMPI DUP3 SWAP1 SUB PUSH1 0x1F AND DUP3 ADD SWAP2 JUMPDEST POP POP POP POP POP DUP2 MSTORE PUSH1 0x20 ADD PUSH1 0x1 DUP3 ADD SLOAD DUP2 MSTORE POP POP DUP2 MSTORE PUSH1 0x20 ADD SWAP1 PUSH1 0x1 ADD SWAP1 PUSH2 0xCAD JUMP JUMPDEST POP POP POP POP SWAP1 POP SWAP1 JUMP JUMPDEST PUSH1 0x7 DUP3 DUP2 SLOAD DUP2 LT PUSH2 0xDBE JUMPI PUSH32 0x4E487B7100000000000000000000000000000000000000000000000000000000 PUSH1 0x0 MSTORE PUSH1 0x32 PUSH1 0x4 MSTORE PUSH1 0x24 PUSH1 0x0 REVERT JUMPDEST SWAP1 PUSH1 0x0 MSTORE PUSH1 0x20 PUSH1 0x0 KECCAK256 ADD PUSH1 0x0 SWAP1 SLOAD SWAP1 PUSH2 0x100 EXP SWAP1 DIV PUSH20 0xFFFFFFFFFFFFFFFFFFFFFFFFFFFFFFFFFFFFFFFF AND PUSH20 0xFFFFFFFFFFFFFFFFFFFFFFFFFFFFFFFFFFFFFFFF AND PUSH4 0x121B93F DUP3 PUSH1 0x40 MLOAD DUP3 PUSH4 0xFFFFFFFF AND PUSH1 0xE0 SHL DUP2 MSTORE PUSH1 0x4 ADD PUSH2 0xE21 SWAP2 SWAP1 PUSH2 0x25B9 JUMP JUMPDEST PUSH1 0x0 PUSH1 0x40 MLOAD DUP1 DUP4 SUB DUP2 PUSH1 0x0 DUP8 DUP1 EXTCODESIZE ISZERO DUP1 ISZERO PUSH2 0xE3B JUMPI PUSH1 0x0 DUP1 REVERT JUMPDEST POP GAS CALL ISZERO DUP1 ISZERO PUSH2 0xE4F JUMPI RETURNDATASIZE PUSH1 0x0 DUP1 RETURNDATACOPY RETURNDATASIZE PUSH1 0x0 REVERT JUMPDEST POP POP POP POP POP POP JUMP JUMPDEST PUSH1 0x7 DUP2 DUP2 SLOAD DUP2 LT PUSH2 0xE67 JUMPI PUSH1 0x0 DUP1 REVERT JUMPDEST SWAP1 PUSH1 0x0 MSTORE PUSH1 0x20 PUSH1 0x0 KECCAK256 ADD PUSH1 0x0 SWAP2 POP SLOAD SWAP1 PUSH2 0x100 EXP SWAP1 DIV PUSH20 0xFFFFFFFFFFFFFFFFFFFFFFFFFFFFFFFFFFFFFFFF AND DUP2 JUMP JUMPDEST DUP1 PUSH1 0x1 DUP2 SWAP1 SSTORE POP POP JUMP JUMPDEST PUSH1 0x7 DUP3 DUP2 SLOAD DUP2 LT PUSH2 0xEDA JUMPI PUSH32 0x4E487B7100000000000000000000000000000000000000000000000000000000 PUSH1 0x0 MSTORE PUSH1 0x32 PUSH1 0x4 MSTORE PUSH1 0x24 PUSH1 0x0 REVERT JUMPDEST SWAP1 PUSH1 0x0 MSTORE PUSH1 0x20 PUSH1 0x0 KECCAK256 ADD PUSH1 0x0 SWAP1 SLOAD SWAP1 PUSH2 0x100 EXP SWAP1 DIV PUSH20 0xFFFFFFFFFFFFFFFFFFFFFFFFFFFFFFFFFFFFFFFF AND PUSH20 0xFFFFFFFFFFFFFFFFFFFFFFFFFFFFFFFFFFFFFFFF AND PUSH4 0x836BC692 DUP3 PUSH1 0x40 MLOAD DUP3 PUSH4 0xFFFFFFFF AND PUSH1 0xE0 SHL DUP2 MSTORE PUSH1 0x4 ADD PUSH2 0xF3D SWAP2 SWAP1 PUSH2 0x24E6 JUMP JUMPDEST PUSH1 0x0 PUSH1 0x40 MLOAD DUP1 DUP4 SUB DUP2 PUSH1 0x0 DUP8 DUP1 EXTCODESIZE ISZERO DUP1 ISZERO PUSH2 0xF57 JUMPI PUSH1 0x0 DUP1 REVERT JUMPDEST POP GAS CALL ISZERO DUP1 ISZERO PUSH2 0xF6B JUMPI RETURNDATASIZE PUSH1 0x0 DUP1 RETURNDATACOPY RETURNDATASIZE PUSH1 0x0 REVERT JUMPDEST POP POP POP POP POP POP JUMP JUMPDEST PUSH1 0x60 PUSH1 0x7 DUP3 DUP2 SLOAD DUP2 LT PUSH2 0xFAF JUMPI PUSH32 0x4E487B7100000000000000000000000000000000000000000000000000000000 PUSH1 0x0 MSTORE PUSH1 0x32 PUSH1 0x4 MSTORE PUSH1 0x24 PUSH1 0x0 REVERT JUMPDEST SWAP1 PUSH1 0x0 MSTORE PUSH1 0x20 PUSH1 0x0 KECCAK256 ADD PUSH1 0x0 SWAP1 SLOAD SWAP1 PUSH2 0x100 EXP SWAP1 DIV PUSH20 0xFFFFFFFFFFFFFFFFFFFFFFFFFFFFFFFFFFFFFFFF AND PUSH20 0xFFFFFFFFFFFFFFFFFFFFFFFFFFFFFFFFFFFFFFFF AND PUSH4 0xE2BA53F0 PUSH1 0x40 MLOAD DUP2 PUSH4 0xFFFFFFFF AND PUSH1 0xE0 SHL DUP2 MSTORE PUSH1 0x4 ADD PUSH1 0x0 PUSH1 0x40 MLOAD DUP1 DUP4 SUB DUP2 DUP7 DUP1 EXTCODESIZE ISZERO DUP1 ISZERO PUSH2 0x101F JUMPI PUSH1 0x0 DUP1 REVERT JUMPDEST POP GAS STATICCALL ISZERO DUP1 ISZERO PUSH2 0x1033 JUMPI RETURNDATASIZE PUSH1 0x0 DUP1 RETURNDATACOPY RETURNDATASIZE PUSH1 0x0 REVERT JUMPDEST POP POP POP POP PUSH1 0x40 MLOAD RETURNDATASIZE PUSH1 0x0 DUP3 RETURNDATACOPY RETURNDATASIZE PUSH1 0x1F NOT PUSH1 0x1F DUP3 ADD AND DUP3 ADD DUP1 PUSH1 0x40 MSTORE POP DUP2 ADD SWAP1 PUSH2 0x105C SWAP2 SWAP1 PUSH2 0x20E2 JUMP JUMPDEST SWAP1 POP SWAP2 SWAP1 POP JUMP JUMPDEST PUSH1 0x0 PUSH1 0x2 SLOAD SWAP1 POP SWAP1 JUMP JUMPDEST PUSH1 0x0 DUP1 PUSH1 0x0 SWAP1 SLOAD SWAP1 PUSH2 0x100 EXP SWAP1 DIV PUSH20 0xFFFFFFFFFFFFFFFFFFFFFFFFFFFFFFFFFFFFFFFF AND SWAP1 POP SWAP1 JUMP JUMPDEST CALLER PUSH1 0x0 DUP1 PUSH2 0x100 EXP DUP2 SLOAD DUP2 PUSH20 0xFFFFFFFFFFFFFFFFFFFFFFFFFFFFFFFFFFFFFFFF MUL NOT AND SWAP1 DUP4 PUSH20 0xFFFFFFFFFFFFFFFFFFFFFFFFFFFFFFFFFFFFFFFF AND MUL OR SWAP1 SSTORE POP PUSH1 0x1 PUSH1 0x5 PUSH1 0x0 DUP1 PUSH1 0x0 SWAP1 SLOAD SWAP1 PUSH2 0x100 EXP SWAP1 DIV PUSH20 0xFFFFFFFFFFFFFFFFFFFFFFFFFFFFFFFFFFFFFFFF AND PUSH20 0xFFFFFFFFFFFFFFFFFFFFFFFFFFFFFFFFFFFFFFFF AND PUSH20 0xFFFFFFFFFFFFFFFFFFFFFFFFFFFFFFFFFFFFFFFF AND DUP2 MSTORE PUSH1 0x20 ADD SWAP1 DUP2 MSTORE PUSH1 0x20 ADD PUSH1 0x0 KECCAK256 PUSH1 0x0 ADD DUP2 SWAP1 SSTORE POP PUSH1 0x0 PUSH1 0x1 DUP2 SWAP1 SSTORE POP PUSH2 0x114F PUSH2 0x1CA5 JUMP JUMPDEST DUP1 MLOAD PUSH1 0x4 DUP2 SWAP1 SSTORE POP PUSH1 0x0 JUMPDEST DUP2 MLOAD DUP2 LT ISZERO PUSH2 0x1220 JUMPI PUSH1 0x6 PUSH1 0x40 MLOAD DUP1 PUSH1 0x40 ADD PUSH1 0x40 MSTORE DUP1 DUP5 DUP5 DUP2 MLOAD DUP2 LT PUSH2 0x11A9 JUMPI PUSH32 0x4E487B7100000000000000000000000000000000000000000000000000000000 PUSH1 0x0 MSTORE PUSH1 0x32 PUSH1 0x4 MSTORE PUSH1 0x24 PUSH1 0x0 REVERT JUMPDEST PUSH1 0x20 MUL PUSH1 0x20 ADD ADD MLOAD DUP2 MSTORE PUSH1 0x20 ADD PUSH1 0x0 DUP2 MSTORE POP SWAP1 DUP1 PUSH1 0x1 DUP2 SLOAD ADD DUP1 DUP3 SSTORE DUP1 SWAP2 POP POP PUSH1 0x1 SWAP1 SUB SWAP1 PUSH1 0x0 MSTORE PUSH1 0x20 PUSH1 0x0 KECCAK256 SWAP1 PUSH1 0x2 MUL ADD PUSH1 0x0 SWAP1 SWAP2 SWAP1 SWAP2 SWAP1 SWAP2 POP PUSH1 0x0 DUP3 ADD MLOAD DUP2 PUSH1 0x0 ADD SWAP1 DUP1 MLOAD SWAP1 PUSH1 0x20 ADD SWAP1 PUSH2 0x1200 SWAP3 SWAP2 SWAP1 PUSH2 0x1CAE JUMP JUMPDEST POP PUSH1 0x20 DUP3 ADD MLOAD DUP2 PUSH1 0x1 ADD SSTORE POP POP DUP1 DUP1 PUSH2 0x1218 SWAP1 PUSH2 0x28A7 JUMP JUMPDEST SWAP2 POP POP PUSH2 0x115A JUMP JUMPDEST POP POP JUMP JUMPDEST PUSH1 0x0 PUSH1 0x7 DUP3 DUP2 SLOAD DUP2 LT PUSH2 0x1260 JUMPI PUSH32 0x4E487B7100000000000000000000000000000000000000000000000000000000 PUSH1 0x0 MSTORE PUSH1 0x32 PUSH1 0x4 MSTORE PUSH1 0x24 PUSH1 0x0 REVERT JUMPDEST SWAP1 PUSH1 0x0 MSTORE PUSH1 0x20 PUSH1 0x0 KECCAK256 ADD PUSH1 0x0 SWAP1 SLOAD SWAP1 PUSH2 0x100 EXP SWAP1 DIV PUSH20 0xFFFFFFFFFFFFFFFFFFFFFFFFFFFFFFFFFFFFFFFF AND PUSH20 0xFFFFFFFFFFFFFFFFFFFFFFFFFFFFFFFFFFFFFFFF AND PUSH4 0x4E69D560 PUSH1 0x40 MLOAD DUP2 PUSH4 0xFFFFFFFF AND PUSH1 0xE0 SHL DUP2 MSTORE PUSH1 0x4 ADD PUSH1 0x20 PUSH1 0x40 MLOAD DUP1 DUP4 SUB DUP2 DUP7 DUP1 EXTCODESIZE ISZERO DUP1 ISZERO PUSH2 0x12D0 JUMPI PUSH1 0x0 DUP1 REVERT JUMPDEST POP GAS STATICCALL ISZERO DUP1 ISZERO PUSH2 0x12E4 JUMPI RETURNDATASIZE PUSH1 0x0 DUP1 RETURNDATACOPY RETURNDATASIZE PUSH1 0x0 REVERT JUMPDEST POP POP POP POP PUSH1 0x40 MLOAD RETURNDATASIZE PUSH1 0x1F NOT PUSH1 0x1F DUP3 ADD AND DUP3 ADD DUP1 PUSH1 0x40 MSTORE POP DUP2 ADD SWAP1 PUSH2 0x1308 SWAP2 SWAP1 PUSH2 0x218D JUMP JUMPDEST SWAP1 POP SWAP2 SWAP1 POP JUMP JUMPDEST TIMESTAMP PUSH1 0x3 DUP2 SWAP1 SSTORE POP JUMP JUMPDEST PUSH1 0x0 PUSH1 0x40 MLOAD PUSH2 0x1326 SWAP1 PUSH2 0x1D34 JUMP JUMPDEST PUSH1 0x40 MLOAD DUP1 SWAP2 SUB SWAP1 PUSH1 0x0 CREATE DUP1 ISZERO DUP1 ISZERO PUSH2 0x1342 JUMPI RETURNDATASIZE PUSH1 0x0 DUP1 RETURNDATACOPY RETURNDATASIZE PUSH1 0x0 REVERT JUMPDEST POP SWAP1 POP PUSH1 0x7 DUP2 SWAP1 DUP1 PUSH1 0x1 DUP2 SLOAD ADD DUP1 DUP3 SSTORE DUP1 SWAP2 POP POP PUSH1 0x1 SWAP1 SUB SWAP1 PUSH1 0x0 MSTORE PUSH1 0x20 PUSH1 0x0 KECCAK256 ADD PUSH1 0x0 SWAP1 SWAP2 SWAP1 SWAP2 SWAP1 SWAP2 PUSH2 0x100 EXP DUP2 SLOAD DUP2 PUSH20 0xFFFFFFFFFFFFFFFFFFFFFFFFFFFFFFFFFFFFFFFF MUL NOT AND SWAP1 DUP4 PUSH20 0xFFFFFFFFFFFFFFFFFFFFFFFFFFFFFFFFFFFFFFFF AND MUL OR SWAP1 SSTORE POP POP JUMP JUMPDEST PUSH1 0x0 DUP1 SLOAD SWAP1 PUSH2 0x100 EXP SWAP1 DIV PUSH20 0xFFFFFFFFFFFFFFFFFFFFFFFFFFFFFFFFFFFFFFFF AND PUSH20 0xFFFFFFFFFFFFFFFFFFFFFFFFFFFFFFFFFFFFFFFF AND CALLER PUSH20 0xFFFFFFFFFFFFFFFFFFFFFFFFFFFFFFFFFFFFFFFF AND EQ DUP1 ISZERO PUSH2 0x1453 JUMPI POP PUSH1 0x5 PUSH1 0x0 DUP3 PUSH20 0xFFFFFFFFFFFFFFFFFFFFFFFFFFFFFFFFFFFFFFFF AND PUSH20 0xFFFFFFFFFFFFFFFFFFFFFFFFFFFFFFFFFFFFFFFF AND DUP2 MSTORE PUSH1 0x20 ADD SWAP1 DUP2 MSTORE PUSH1 0x20 ADD PUSH1 0x0 KECCAK256 PUSH1 0x1 ADD PUSH1 0x0 SWAP1 SLOAD SWAP1 PUSH2 0x100 EXP SWAP1 DIV PUSH1 0xFF AND ISZERO JUMPDEST DUP1 ISZERO PUSH2 0x14A1 JUMPI POP PUSH1 0x0 PUSH1 0x5 PUSH1 0x0 DUP4 PUSH20 0xFFFFFFFFFFFFFFFFFFFFFFFFFFFFFFFFFFFFFFFF AND PUSH20 0xFFFFFFFFFFFFFFFFFFFFFFFFFFFFFFFFFFFFFFFF AND DUP2 MSTORE PUSH1 0x20 ADD SWAP1 DUP2 MSTORE PUSH1 0x20 ADD PUSH1 0x0 KECCAK256 PUSH1 0x0 ADD SLOAD EQ JUMPDEST PUSH2 0x14AA JUMPI PUSH1 0x0 DUP1 REVERT JUMPDEST PUSH1 0x1 PUSH1 0x5 PUSH1 0x0 DUP4 PUSH20 0xFFFFFFFFFFFFFFFFFFFFFFFFFFFFFFFFFFFFFFFF AND PUSH20 0xFFFFFFFFFFFFFFFFFFFFFFFFFFFFFFFFFFFFFFFF AND DUP2 MSTORE PUSH1 0x20 ADD SWAP1 DUP2 MSTORE PUSH1 0x20 ADD PUSH1 0x0 KECCAK256 PUSH1 0x0 ADD DUP2 SWAP1 SSTORE POP POP JUMP JUMPDEST PUSH1 0x5 PUSH1 0x20 MSTORE DUP1 PUSH1 0x0 MSTORE PUSH1 0x40 PUSH1 0x0 KECCAK256 PUSH1 0x0 SWAP2 POP SWAP1 POP DUP1 PUSH1 0x0 ADD SLOAD SWAP1 DUP1 PUSH1 0x1 ADD PUSH1 0x0 SWAP1 SLOAD SWAP1 PUSH2 0x100 EXP SWAP1 DIV PUSH1 0xFF AND SWAP1 DUP1 PUSH1 0x1 ADD PUSH1 0x1 SWAP1 SLOAD SWAP1 PUSH2 0x100 EXP SWAP1 DIV PUSH20 0xFFFFFFFFFFFFFFFFFFFFFFFFFFFFFFFFFFFFFFFF AND SWAP1 DUP1 PUSH1 0x2 ADD SLOAD SWAP1 POP DUP5 JUMP JUMPDEST PUSH1 0x0 PUSH1 0x3 SLOAD SWAP1 POP SWAP1 JUMP JUMPDEST PUSH1 0x7 DUP3 DUP2 SLOAD DUP2 LT PUSH2 0x1596 JUMPI PUSH32 0x4E487B7100000000000000000000000000000000000000000000000000000000 PUSH1 0x0 MSTORE PUSH1 0x32 PUSH1 0x4 MSTORE PUSH1 0x24 PUSH1 0x0 REVERT JUMPDEST SWAP1 PUSH1 0x0 MSTORE PUSH1 0x20 PUSH1 0x0 KECCAK256 ADD PUSH1 0x0 SWAP1 SLOAD SWAP1 PUSH2 0x100 EXP SWAP1 DIV PUSH20 0xFFFFFFFFFFFFFFFFFFFFFFFFFFFFFFFFFFFFFFFF AND PUSH20 0xFFFFFFFFFFFFFFFFFFFFFFFFFFFFFFFFFFFFFFFF AND PUSH4 0x69BA1A75 DUP3 PUSH1 0x40 MLOAD DUP3 PUSH4 0xFFFFFFFF AND PUSH1 0xE0 SHL DUP2 MSTORE PUSH1 0x4 ADD PUSH2 0x15F9 SWAP2 SWAP1 PUSH2 0x25B9 JUMP JUMPDEST PUSH1 0x0 PUSH1 0x40 MLOAD DUP1 DUP4 SUB DUP2 PUSH1 0x0 DUP8 DUP1 EXTCODESIZE ISZERO DUP1 ISZERO PUSH2 0x1613 JUMPI PUSH1 0x0 DUP1 REVERT JUMPDEST POP GAS CALL ISZERO DUP1 ISZERO PUSH2 0x1627 JUMPI RETURNDATASIZE PUSH1 0x0 DUP1 RETURNDATACOPY RETURNDATASIZE PUSH1 0x0 REVERT JUMPDEST POP POP POP POP POP POP JUMP JUMPDEST PUSH1 0x0 PUSH1 0x7 DUP3 DUP2 SLOAD DUP2 LT PUSH2 0x166B JUMPI PUSH32 0x4E487B7100000000000000000000000000000000000000000000000000000000 PUSH1 0x0 MSTORE PUSH1 0x32 PUSH1 0x4 MSTORE PUSH1 0x24 PUSH1 0x0 REVERT JUMPDEST SWAP1 PUSH1 0x0 MSTORE PUSH1 0x20 PUSH1 0x0 KECCAK256 ADD PUSH1 0x0 SWAP1 SLOAD SWAP1 PUSH2 0x100 EXP SWAP1 DIV PUSH20 0xFFFFFFFFFFFFFFFFFFFFFFFFFFFFFFFFFFFFFFFF AND PUSH20 0xFFFFFFFFFFFFFFFFFFFFFFFFFFFFFFFFFFFFFFFF AND PUSH4 0x78F305C6 PUSH1 0x40 MLOAD DUP2 PUSH4 0xFFFFFFFF AND PUSH1 0xE0 SHL DUP2 MSTORE PUSH1 0x4 ADD PUSH1 0x20 PUSH1 0x40 MLOAD DUP1 DUP4 SUB DUP2 DUP7 DUP1 EXTCODESIZE ISZERO DUP1 ISZERO PUSH2 0x16DB JUMPI PUSH1 0x0 DUP1 REVERT JUMPDEST POP GAS STATICCALL ISZERO DUP1 ISZERO PUSH2 0x16EF JUMPI RETURNDATASIZE PUSH1 0x0 DUP1 RETURNDATACOPY RETURNDATASIZE PUSH1 0x0 REVERT JUMPDEST POP POP POP POP PUSH1 0x40 MLOAD RETURNDATASIZE PUSH1 0x1F NOT PUSH1 0x1F DUP3 ADD AND DUP3 ADD DUP1 PUSH1 0x40 MSTORE POP DUP2 ADD SWAP1 PUSH2 0x1713 SWAP2 SWAP1 PUSH2 0x218D JUMP JUMPDEST SWAP1 POP SWAP2 SWAP1 POP JUMP JUMPDEST PUSH1 0x7 DUP3 DUP2 SLOAD DUP2 LT PUSH2 0x1754 JUMPI PUSH32 0x4E487B7100000000000000000000000000000000000000000000000000000000 PUSH1 0x0 MSTORE PUSH1 0x32 PUSH1 0x4 MSTORE PUSH1 0x24 PUSH1 0x0 REVERT JUMPDEST SWAP1 PUSH1 0x0 MSTORE PUSH1 0x20 PUSH1 0x0 KECCAK256 ADD PUSH1 0x0 SWAP1 SLOAD SWAP1 PUSH2 0x100 EXP SWAP1 DIV PUSH20 0xFFFFFFFFFFFFFFFFFFFFFFFFFFFFFFFFFFFFFFFF AND PUSH20 0xFFFFFFFFFFFFFFFFFFFFFFFFFFFFFFFFFFFFFFFF AND PUSH4 0x9E7B8D61 DUP3 PUSH1 0x40 MLOAD DUP3 PUSH4 0xFFFFFFFF AND PUSH1 0xE0 SHL DUP2 MSTORE PUSH1 0x4 ADD PUSH2 0x17B7 SWAP2 SWAP1 PUSH2 0x24CB JUMP JUMPDEST PUSH1 0x0 PUSH1 0x40 MLOAD DUP1 DUP4 SUB DUP2 PUSH1 0x0 DUP8 DUP1 EXTCODESIZE ISZERO DUP1 ISZERO PUSH2 0x17D1 JUMPI PUSH1 0x0 DUP1 REVERT JUMPDEST POP GAS CALL ISZERO DUP1 ISZERO PUSH2 0x17E5 JUMPI RETURNDATASIZE PUSH1 0x0 DUP1 RETURNDATACOPY RETURNDATASIZE PUSH1 0x0 REVERT JUMPDEST POP POP POP POP POP POP JUMP JUMPDEST PUSH1 0x0 PUSH1 0x7 DUP3 DUP2 SLOAD DUP2 LT PUSH2 0x1829 JUMPI PUSH32 0x4E487B7100000000000000000000000000000000000000000000000000000000 PUSH1 0x0 MSTORE PUSH1 0x32 PUSH1 0x4 MSTORE PUSH1 0x24 PUSH1 0x0 REVERT JUMPDEST SWAP1 PUSH1 0x0 MSTORE PUSH1 0x20 PUSH1 0x0 KECCAK256 ADD PUSH1 0x0 SWAP1 SLOAD SWAP1 PUSH2 0x100 EXP SWAP1 DIV PUSH20 0xFFFFFFFFFFFFFFFFFFFFFFFFFFFFFFFFFFFFFFFF AND PUSH20 0xFFFFFFFFFFFFFFFFFFFFFFFFFFFFFFFFFFFFFFFF AND PUSH4 0x609FF1BD PUSH1 0x40 MLOAD DUP2 PUSH4 0xFFFFFFFF AND PUSH1 0xE0 SHL DUP2 MSTORE PUSH1 0x4 ADD PUSH1 0x20 PUSH1 0x40 MLOAD DUP1 DUP4 SUB DUP2 DUP7 DUP1 EXTCODESIZE ISZERO DUP1 ISZERO PUSH2 0x1899 JUMPI PUSH1 0x0 DUP1 REVERT JUMPDEST POP GAS STATICCALL ISZERO DUP1 ISZERO PUSH2 0x18AD JUMPI RETURNDATASIZE PUSH1 0x0 DUP1 RETURNDATACOPY RETURNDATASIZE PUSH1 0x0 REVERT JUMPDEST POP POP POP POP PUSH1 0x40 MLOAD RETURNDATASIZE PUSH1 0x1F NOT PUSH1 0x1F DUP3 ADD AND DUP3 ADD DUP1 PUSH1 0x40 MSTORE POP DUP2 ADD SWAP1 PUSH2 0x18D1 SWAP2 SWAP1 PUSH2 0x218D JUMP JUMPDEST SWAP1 POP SWAP2 SWAP1 POP JUMP JUMPDEST PUSH1 0x60 PUSH1 0x6 PUSH2 0x18E4 PUSH2 0xBB5 JUMP JUMPDEST DUP2 SLOAD DUP2 LT PUSH2 0x191B JUMPI PUSH32 0x4E487B7100000000000000000000000000000000000000000000000000000000 PUSH1 0x0 MSTORE PUSH1 0x32 PUSH1 0x4 MSTORE PUSH1 0x24 PUSH1 0x0 REVERT JUMPDEST SWAP1 PUSH1 0x0 MSTORE PUSH1 0x20 PUSH1 0x0 KECCAK256 SWAP1 PUSH1 0x2 MUL ADD PUSH1 0x0 ADD DUP1 SLOAD PUSH2 0x1937 SWAP1 PUSH2 0x2875 JUMP JUMPDEST DUP1 PUSH1 0x1F ADD PUSH1 0x20 DUP1 SWAP2 DIV MUL PUSH1 0x20 ADD PUSH1 0x40 MLOAD SWAP1 DUP2 ADD PUSH1 0x40 MSTORE DUP1 SWAP3 SWAP2 SWAP1 DUP2 DUP2 MSTORE PUSH1 0x20 ADD DUP3 DUP1 SLOAD PUSH2 0x1963 SWAP1 PUSH2 0x2875 JUMP JUMPDEST DUP1 ISZERO PUSH2 0x19B0 JUMPI DUP1 PUSH1 0x1F LT PUSH2 0x1985 JUMPI PUSH2 0x100 DUP1 DUP4 SLOAD DIV MUL DUP4 MSTORE SWAP2 PUSH1 0x20 ADD SWAP2 PUSH2 0x19B0 JUMP JUMPDEST DUP3 ADD SWAP2 SWAP1 PUSH1 0x0 MSTORE PUSH1 0x20 PUSH1 0x0 KECCAK256 SWAP1 JUMPDEST DUP2 SLOAD DUP2 MSTORE SWAP1 PUSH1 0x1 ADD SWAP1 PUSH1 0x20 ADD DUP1 DUP4 GT PUSH2 0x1993 JUMPI DUP3 SWAP1 SUB PUSH1 0x1F AND DUP3 ADD SWAP2 JUMPDEST POP POP POP POP POP SWAP1 POP SWAP1 JUMP JUMPDEST PUSH1 0x0 PUSH1 0x7 DUP3 DUP2 SLOAD DUP2 LT PUSH2 0x19F6 JUMPI PUSH32 0x4E487B7100000000000000000000000000000000000000000000000000000000 PUSH1 0x0 MSTORE PUSH1 0x32 PUSH1 0x4 MSTORE PUSH1 0x24 PUSH1 0x0 REVERT JUMPDEST SWAP1 PUSH1 0x0 MSTORE PUSH1 0x20 PUSH1 0x0 KECCAK256 ADD PUSH1 0x0 SWAP1 SLOAD SWAP1 PUSH2 0x100 EXP SWAP1 DIV PUSH20 0xFFFFFFFFFFFFFFFFFFFFFFFFFFFFFFFFFFFFFFFF AND PUSH20 0xFFFFFFFFFFFFFFFFFFFFFFFFFFFFFFFFFFFFFFFF AND PUSH4 0xA82DCB1 PUSH1 0x40 MLOAD DUP2 PUSH4 0xFFFFFFFF AND PUSH1 0xE0 SHL DUP2 MSTORE PUSH1 0x4 ADD PUSH1 0x20 PUSH1 0x40 MLOAD DUP1 DUP4 SUB DUP2 DUP7 DUP1 EXTCODESIZE ISZERO DUP1 ISZERO PUSH2 0x1A66 JUMPI PUSH1 0x0 DUP1 REVERT JUMPDEST POP GAS STATICCALL ISZERO DUP1 ISZERO PUSH2 0x1A7A JUMPI RETURNDATASIZE PUSH1 0x0 DUP1 RETURNDATACOPY RETURNDATASIZE PUSH1 0x0 REVERT JUMPDEST POP POP POP POP PUSH1 0x40 MLOAD RETURNDATASIZE PUSH1 0x1F NOT PUSH1 0x1F DUP3 ADD AND DUP3 ADD DUP1 PUSH1 0x40 MSTORE POP DUP2 ADD SWAP1 PUSH2 0x1A9E SWAP2 SWAP1 PUSH2 0x218D JUMP JUMPDEST SWAP1 POP SWAP2 SWAP1 POP JUMP JUMPDEST PUSH2 0x1AAD PUSH2 0x1D41 JUMP JUMPDEST PUSH1 0x6 DUP3 DUP2 SLOAD DUP2 LT PUSH2 0x1AE7 JUMPI PUSH32 0x4E487B7100000000000000000000000000000000000000000000000000000000 PUSH1 0x0 MSTORE PUSH1 0x32 PUSH1 0x4 MSTORE PUSH1 0x24 PUSH1 0x0 REVERT JUMPDEST SWAP1 PUSH1 0x0 MSTORE PUSH1 0x20 PUSH1 0x0 KECCAK256 SWAP1 PUSH1 0x2 MUL ADD PUSH1 0x40 MLOAD DUP1 PUSH1 0x40 ADD PUSH1 0x40 MSTORE SWAP1 DUP2 PUSH1 0x0 DUP3 ADD DUP1 SLOAD PUSH2 0x1B10 SWAP1 PUSH2 0x2875 JUMP JUMPDEST DUP1 PUSH1 0x1F ADD PUSH1 0x20 DUP1 SWAP2 DIV MUL PUSH1 0x20 ADD PUSH1 0x40 MLOAD SWAP1 DUP2 ADD PUSH1 0x40 MSTORE DUP1 SWAP3 SWAP2 SWAP1 DUP2 DUP2 MSTORE PUSH1 0x20 ADD DUP3 DUP1 SLOAD PUSH2 0x1B3C SWAP1 PUSH2 0x2875 JUMP JUMPDEST DUP1 ISZERO PUSH2 0x1B89 JUMPI DUP1 PUSH1 0x1F LT PUSH2 0x1B5E JUMPI PUSH2 0x100 DUP1 DUP4 SLOAD DIV MUL DUP4 MSTORE SWAP2 PUSH1 0x20 ADD SWAP2 PUSH2 0x1B89 JUMP JUMPDEST DUP3 ADD SWAP2 SWAP1 PUSH1 0x0 MSTORE PUSH1 0x20 PUSH1 0x0 KECCAK256 SWAP1 JUMPDEST DUP2 SLOAD DUP2 MSTORE SWAP1 PUSH1 0x1 ADD SWAP1 PUSH1 0x20 ADD DUP1 DUP4 GT PUSH2 0x1B6C JUMPI DUP3 SWAP1 SUB PUSH1 0x1F AND DUP3 ADD SWAP2 JUMPDEST POP POP POP POP POP DUP2 MSTORE PUSH1 0x20 ADD PUSH1 0x1 DUP3 ADD SLOAD DUP2 MSTORE POP POP SWAP1 POP SWAP2 SWAP1 POP JUMP JUMPDEST PUSH2 0x1BAB PUSH2 0x1D41 JUMP JUMPDEST PUSH1 0x7 DUP4 DUP2 SLOAD DUP2 LT PUSH2 0x1BE5 JUMPI PUSH32 0x4E487B7100000000000000000000000000000000000000000000000000000000 PUSH1 0x0 MSTORE PUSH1 0x32 PUSH1 0x4 MSTORE PUSH1 0x24 PUSH1 0x0 REVERT JUMPDEST SWAP1 PUSH1 0x0 MSTORE PUSH1 0x20 PUSH1 0x0 KECCAK256 ADD PUSH1 0x0 SWAP1 SLOAD SWAP1 PUSH2 0x100 EXP SWAP1 DIV PUSH20 0xFFFFFFFFFFFFFFFFFFFFFFFFFFFFFFFFFFFFFFFF AND PUSH20 0xFFFFFFFFFFFFFFFFFFFFFFFFFFFFFFFFFFFFFFFF AND PUSH4 0xE9D6C6DA DUP4 PUSH1 0x40 MLOAD DUP3 PUSH4 0xFFFFFFFF AND PUSH1 0xE0 SHL DUP2 MSTORE PUSH1 0x4 ADD PUSH2 0x1C48 SWAP2 SWAP1 PUSH2 0x25B9 JUMP JUMPDEST PUSH1 0x0 PUSH1 0x40 MLOAD DUP1 DUP4 SUB DUP2 DUP7 DUP1 EXTCODESIZE ISZERO DUP1 ISZERO PUSH2 0x1C60 JUMPI PUSH1 0x0 DUP1 REVERT JUMPDEST POP GAS STATICCALL ISZERO DUP1 ISZERO PUSH2 0x1C74 JUMPI RETURNDATASIZE PUSH1 0x0 DUP1 RETURNDATACOPY RETURNDATASIZE PUSH1 0x0 REVERT JUMPDEST POP POP POP POP PUSH1 0x40 MLOAD RETURNDATASIZE PUSH1 0x0 DUP3 RETURNDATACOPY RETURNDATASIZE PUSH1 0x1F NOT PUSH1 0x1F DUP3 ADD AND DUP3 ADD DUP1 PUSH1 0x40 MSTORE POP DUP2 ADD SWAP1 PUSH2 0x1C9D SWAP2 SWAP1 PUSH2 0x2123 JUMP JUMPDEST SWAP1 POP SWAP3 SWAP2 POP POP JUMP JUMPDEST TIMESTAMP PUSH1 0x2 DUP2 SWAP1 SSTORE POP JUMP JUMPDEST DUP3 DUP1 SLOAD PUSH2 0x1CBA SWAP1 PUSH2 0x2875 JUMP JUMPDEST SWAP1 PUSH1 0x0 MSTORE PUSH1 0x20 PUSH1 0x0 KECCAK256 SWAP1 PUSH1 0x1F ADD PUSH1 0x20 SWAP1 DIV DUP2 ADD SWAP3 DUP3 PUSH2 0x1CDC JUMPI PUSH1 0x0 DUP6 SSTORE PUSH2 0x1D23 JUMP JUMPDEST DUP3 PUSH1 0x1F LT PUSH2 0x1CF5 JUMPI DUP1 MLOAD PUSH1 0xFF NOT AND DUP4 DUP1 ADD OR DUP6 SSTORE PUSH2 0x1D23 JUMP JUMPDEST DUP3 DUP1 ADD PUSH1 0x1 ADD DUP6 SSTORE DUP3 ISZERO PUSH2 0x1D23 JUMPI SWAP2 DUP3 ADD JUMPDEST DUP3 DUP2 GT ISZERO PUSH2 0x1D22 JUMPI DUP3 MLOAD DUP3 SSTORE SWAP2 PUSH1 0x20 ADD SWAP2 SWAP1 PUSH1 0x1 ADD SWAP1 PUSH2 0x1D07 JUMP JUMPDEST JUMPDEST POP SWAP1 POP PUSH2 0x1D30 SWAP2 SWAP1 PUSH2 0x1D5B JUMP JUMPDEST POP SWAP1 JUMP JUMPDEST PUSH2 0x149A DUP1 PUSH2 0x29BD DUP4 CODECOPY ADD SWAP1 JUMP JUMPDEST PUSH1 0x40 MLOAD DUP1 PUSH1 0x40 ADD PUSH1 0x40 MSTORE DUP1 PUSH1 0x60 DUP2 MSTORE PUSH1 0x20 ADD PUSH1 0x0 DUP2 MSTORE POP SWAP1 JUMP JUMPDEST JUMPDEST DUP1 DUP3 GT ISZERO PUSH2 0x1D74 JUMPI PUSH1 0x0 DUP2 PUSH1 0x0 SWAP1 SSTORE POP PUSH1 0x1 ADD PUSH2 0x1D5C JUMP JUMPDEST POP SWAP1 JUMP JUMPDEST PUSH1 0x0 PUSH2 0x1D8B PUSH2 0x1D86 DUP5 PUSH2 0x264A JUMP JUMPDEST PUSH2 0x2619 JUMP JUMPDEST SWAP1 POP DUP1 DUP4 DUP3 MSTORE PUSH1 0x20 DUP3 ADD SWAP1 POP DUP3 PUSH1 0x0 JUMPDEST DUP6 DUP2 LT ISZERO PUSH2 0x1DCB JUMPI DUP2 CALLDATALOAD DUP6 ADD PUSH2 0x1DB1 DUP9 DUP3 PUSH2 0x1F2C JUMP JUMPDEST DUP5 MSTORE PUSH1 0x20 DUP5 ADD SWAP4 POP PUSH1 0x20 DUP4 ADD SWAP3 POP POP PUSH1 0x1 DUP2 ADD SWAP1 POP PUSH2 0x1D9B JUMP JUMPDEST POP POP POP SWAP4 SWAP3 POP POP POP JUMP JUMPDEST PUSH1 0x0 PUSH2 0x1DE8 PUSH2 0x1DE3 DUP5 PUSH2 0x2676 JUMP JUMPDEST PUSH2 0x2619 JUMP JUMPDEST SWAP1 POP DUP1 DUP4 DUP3 MSTORE PUSH1 0x20 DUP3 ADD SWAP1 POP DUP3 PUSH1 0x0 JUMPDEST DUP6 DUP2 LT ISZERO PUSH2 0x1E28 JUMPI DUP2 MLOAD DUP6 ADD PUSH2 0x1E0E DUP9 DUP3 PUSH2 0x1F80 JUMP JUMPDEST DUP5 MSTORE PUSH1 0x20 DUP5 ADD SWAP4 POP PUSH1 0x20 DUP4 ADD SWAP3 POP POP PUSH1 0x1 DUP2 ADD SWAP1 POP PUSH2 0x1DF8 JUMP JUMPDEST POP POP POP SWAP4 SWAP3 POP POP POP JUMP JUMPDEST PUSH1 0x0 PUSH2 0x1E45 PUSH2 0x1E40 DUP5 PUSH2 0x26A2 JUMP JUMPDEST PUSH2 0x2619 JUMP JUMPDEST SWAP1 POP DUP3 DUP2 MSTORE PUSH1 0x20 DUP2 ADD DUP5 DUP5 DUP5 ADD GT ISZERO PUSH2 0x1E5D JUMPI PUSH1 0x0 DUP1 REVERT JUMPDEST PUSH2 0x1E68 DUP5 DUP3 DUP6 PUSH2 0x2833 JUMP JUMPDEST POP SWAP4 SWAP3 POP POP POP JUMP JUMPDEST PUSH1 0x0 PUSH2 0x1E83 PUSH2 0x1E7E DUP5 PUSH2 0x26A2 JUMP JUMPDEST PUSH2 0x2619 JUMP JUMPDEST SWAP1 POP DUP3 DUP2 MSTORE PUSH1 0x20 DUP2 ADD DUP5 DUP5 DUP5 ADD GT ISZERO PUSH2 0x1E9B JUMPI PUSH1 0x0 DUP1 REVERT JUMPDEST PUSH2 0x1EA6 DUP5 DUP3 DUP6 PUSH2 0x2842 JUMP JUMPDEST POP SWAP4 SWAP3 POP POP POP JUMP JUMPDEST PUSH1 0x0 DUP2 CALLDATALOAD SWAP1 POP PUSH2 0x1EBD DUP2 PUSH2 0x298E JUMP JUMPDEST SWAP3 SWAP2 POP POP JUMP JUMPDEST PUSH1 0x0 DUP2 MLOAD SWAP1 POP PUSH2 0x1ED2 DUP2 PUSH2 0x298E JUMP JUMPDEST SWAP3 SWAP2 POP POP JUMP JUMPDEST PUSH1 0x0 DUP3 PUSH1 0x1F DUP4 ADD SLT PUSH2 0x1EE9 JUMPI PUSH1 0x0 DUP1 REVERT JUMPDEST DUP2 CALLDATALOAD PUSH2 0x1EF9 DUP5 DUP3 PUSH1 0x20 DUP7 ADD PUSH2 0x1D78 JUMP JUMPDEST SWAP2 POP POP SWAP3 SWAP2 POP POP JUMP JUMPDEST PUSH1 0x0 DUP3 PUSH1 0x1F DUP4 ADD SLT PUSH2 0x1F13 JUMPI PUSH1 0x0 DUP1 REVERT JUMPDEST DUP2 MLOAD PUSH2 0x1F23 DUP5 DUP3 PUSH1 0x20 DUP7 ADD PUSH2 0x1DD5 JUMP JUMPDEST SWAP2 POP POP SWAP3 SWAP2 POP POP JUMP JUMPDEST PUSH1 0x0 DUP3 PUSH1 0x1F DUP4 ADD SLT PUSH2 0x1F3D JUMPI PUSH1 0x0 DUP1 REVERT JUMPDEST DUP2 CALLDATALOAD PUSH2 0x1F4D DUP5 DUP3 PUSH1 0x20 DUP7 ADD PUSH2 0x1E32 JUMP JUMPDEST SWAP2 POP POP SWAP3 SWAP2 POP POP JUMP JUMPDEST PUSH1 0x0 DUP3 PUSH1 0x1F DUP4 ADD SLT PUSH2 0x1F67 JUMPI PUSH1 0x0 DUP1 REVERT JUMPDEST DUP2 MLOAD PUSH2 0x1F77 DUP5 DUP3 PUSH1 0x20 DUP7 ADD PUSH2 0x1E70 JUMP JUMPDEST SWAP2 POP POP SWAP3 SWAP2 POP POP JUMP JUMPDEST PUSH1 0x0 PUSH1 0x40 DUP3 DUP5 SUB SLT ISZERO PUSH2 0x1F92 JUMPI PUSH1 0x0 DUP1 REVERT JUMPDEST PUSH2 0x1F9C PUSH1 0x40 PUSH2 0x2619 JUMP JUMPDEST SWAP1 POP PUSH1 0x0 DUP3 ADD MLOAD PUSH8 0xFFFFFFFFFFFFFFFF DUP2 GT ISZERO PUSH2 0x1FB8 JUMPI PUSH1 0x0 DUP1 REVERT JUMPDEST PUSH2 0x1FC4 DUP5 DUP3 DUP6 ADD PUSH2 0x1F56 JUMP JUMPDEST PUSH1 0x0 DUP4 ADD MSTORE POP PUSH1 0x20 PUSH2 0x1FD8 DUP5 DUP3 DUP6 ADD PUSH2 0x1FF9 JUMP JUMPDEST PUSH1 0x20 DUP4 ADD MSTORE POP SWAP3 SWAP2 POP POP JUMP JUMPDEST PUSH1 0x0 DUP2 CALLDATALOAD SWAP1 POP PUSH2 0x1FF3 DUP2 PUSH2 0x29A5 JUMP JUMPDEST SWAP3 SWAP2 POP POP JUMP JUMPDEST PUSH1 0x0 DUP2 MLOAD SWAP1 POP PUSH2 0x2008 DUP2 PUSH2 0x29A5 JUMP JUMPDEST SWAP3 SWAP2 POP POP JUMP JUMPDEST PUSH1 0x0 PUSH1 0x20 DUP3 DUP5 SUB SLT ISZERO PUSH2 0x2020 JUMPI PUSH1 0x0 DUP1 REVERT JUMPDEST PUSH1 0x0 PUSH2 0x202E DUP5 DUP3 DUP6 ADD PUSH2 0x1EAE JUMP JUMPDEST SWAP2 POP POP SWAP3 SWAP2 POP POP JUMP JUMPDEST PUSH1 0x0 PUSH1 0x20 DUP3 DUP5 SUB SLT ISZERO PUSH2 0x2049 JUMPI PUSH1 0x0 DUP1 REVERT JUMPDEST PUSH1 0x0 PUSH2 0x2057 DUP5 DUP3 DUP6 ADD PUSH2 0x1EC3 JUMP JUMPDEST SWAP2 POP POP SWAP3 SWAP2 POP POP JUMP JUMPDEST PUSH1 0x0 PUSH1 0x20 DUP3 DUP5 SUB SLT ISZERO PUSH2 0x2072 JUMPI PUSH1 0x0 DUP1 REVERT JUMPDEST PUSH1 0x0 DUP3 ADD CALLDATALOAD PUSH8 0xFFFFFFFFFFFFFFFF DUP2 GT ISZERO PUSH2 0x208C JUMPI PUSH1 0x0 DUP1 REVERT JUMPDEST PUSH2 0x2098 DUP5 DUP3 DUP6 ADD PUSH2 0x1ED8 JUMP JUMPDEST SWAP2 POP POP SWAP3 SWAP2 POP POP JUMP JUMPDEST PUSH1 0x0 PUSH1 0x20 DUP3 DUP5 SUB SLT ISZERO PUSH2 0x20B3 JUMPI PUSH1 0x0 DUP1 REVERT JUMPDEST PUSH1 0x0 DUP3 ADD MLOAD PUSH8 0xFFFFFFFFFFFFFFFF DUP2 GT ISZERO PUSH2 0x20CD JUMPI PUSH1 0x0 DUP1 REVERT JUMPDEST PUSH2 0x20D9 DUP5 DUP3 DUP6 ADD PUSH2 0x1F02 JUMP JUMPDEST SWAP2 POP POP SWAP3 SWAP2 POP POP JUMP JUMPDEST PUSH1 0x0 PUSH1 0x20 DUP3 DUP5 SUB SLT ISZERO PUSH2 0x20F4 JUMPI PUSH1 0x0 DUP1 REVERT JUMPDEST PUSH1 0x0 DUP3 ADD MLOAD PUSH8 0xFFFFFFFFFFFFFFFF DUP2 GT ISZERO PUSH2 0x210E JUMPI PUSH1 0x0 DUP1 REVERT JUMPDEST PUSH2 0x211A DUP5 DUP3 DUP6 ADD PUSH2 0x1F56 JUMP JUMPDEST SWAP2 POP POP SWAP3 SWAP2 POP POP JUMP JUMPDEST PUSH1 0x0 PUSH1 0x20 DUP3 DUP5 SUB SLT ISZERO PUSH2 0x2135 JUMPI PUSH1 0x0 DUP1 REVERT JUMPDEST PUSH1 0x0 DUP3 ADD MLOAD PUSH8 0xFFFFFFFFFFFFFFFF DUP2 GT ISZERO PUSH2 0x214F JUMPI PUSH1 0x0 DUP1 REVERT JUMPDEST PUSH2 0x215B DUP5 DUP3 DUP6 ADD PUSH2 0x1F80 JUMP JUMPDEST SWAP2 POP POP SWAP3 SWAP2 POP POP JUMP JUMPDEST PUSH1 0x0 PUSH1 0x20 DUP3 DUP5 SUB SLT ISZERO PUSH2 0x2176 JUMPI PUSH1 0x0 DUP1 REVERT JUMPDEST PUSH1 0x0 PUSH2 0x2184 DUP5 DUP3 DUP6 ADD PUSH2 0x1FE4 JUMP JUMPDEST SWAP2 POP POP SWAP3 SWAP2 POP POP JUMP JUMPDEST PUSH1 0x0 PUSH1 0x20 DUP3 DUP5 SUB SLT ISZERO PUSH2 0x219F JUMPI PUSH1 0x0 DUP1 REVERT JUMPDEST PUSH1 0x0 PUSH2 0x21AD DUP5 DUP3 DUP6 ADD PUSH2 0x1FF9 JUMP JUMPDEST SWAP2 POP POP SWAP3 SWAP2 POP POP JUMP JUMPDEST PUSH1 0x0 DUP1 PUSH1 0x40 DUP4 DUP6 SUB SLT ISZERO PUSH2 0x21C9 JUMPI PUSH1 0x0 DUP1 REVERT JUMPDEST PUSH1 0x0 PUSH2 0x21D7 DUP6 DUP3 DUP7 ADD PUSH2 0x1FE4 JUMP JUMPDEST SWAP3 POP POP PUSH1 0x20 PUSH2 0x21E8 DUP6 DUP3 DUP7 ADD PUSH2 0x1EAE JUMP JUMPDEST SWAP2 POP POP SWAP3 POP SWAP3 SWAP1 POP JUMP JUMPDEST PUSH1 0x0 DUP1 PUSH1 0x40 DUP4 DUP6 SUB SLT ISZERO PUSH2 0x2205 JUMPI PUSH1 0x0 DUP1 REVERT JUMPDEST PUSH1 0x0 PUSH2 0x2213 DUP6 DUP3 DUP7 ADD PUSH2 0x1FE4 JUMP JUMPDEST SWAP3 POP POP PUSH1 0x20 DUP4 ADD CALLDATALOAD PUSH8 0xFFFFFFFFFFFFFFFF DUP2 GT ISZERO PUSH2 0x2230 JUMPI PUSH1 0x0 DUP1 REVERT JUMPDEST PUSH2 0x223C DUP6 DUP3 DUP7 ADD PUSH2 0x1ED8 JUMP JUMPDEST SWAP2 POP POP SWAP3 POP SWAP3 SWAP1 POP JUMP JUMPDEST PUSH1 0x0 DUP1 PUSH1 0x40 DUP4 DUP6 SUB SLT ISZERO PUSH2 0x2259 JUMPI PUSH1 0x0 DUP1 REVERT JUMPDEST PUSH1 0x0 PUSH2 0x2267 DUP6 DUP3 DUP7 ADD PUSH2 0x1FE4 JUMP JUMPDEST SWAP3 POP POP PUSH1 0x20 PUSH2 0x2278 DUP6 DUP3 DUP7 ADD PUSH2 0x1FE4 JUMP JUMPDEST SWAP2 POP POP SWAP3 POP SWAP3 SWAP1 POP JUMP JUMPDEST PUSH1 0x0 PUSH2 0x228E DUP4 DUP4 PUSH2 0x23C1 JUMP JUMPDEST SWAP1 POP SWAP3 SWAP2 POP POP JUMP JUMPDEST PUSH1 0x0 PUSH2 0x22A2 DUP4 DUP4 PUSH2 0x2433 JUMP JUMPDEST SWAP1 POP SWAP3 SWAP2 POP POP JUMP JUMPDEST PUSH2 0x22B3 DUP2 PUSH2 0x27C7 JUMP JUMPDEST DUP3 MSTORE POP POP JUMP JUMPDEST PUSH1 0x0 PUSH2 0x22C4 DUP3 PUSH2 0x26F2 JUMP JUMPDEST PUSH2 0x22CE DUP2 DUP6 PUSH2 0x272D JUMP JUMPDEST SWAP4 POP DUP4 PUSH1 0x20 DUP3 MUL DUP6 ADD PUSH2 0x22E0 DUP6 PUSH2 0x26D2 JUMP JUMPDEST DUP1 PUSH1 0x0 JUMPDEST DUP6 DUP2 LT ISZERO PUSH2 0x231C JUMPI DUP5 DUP5 SUB DUP10 MSTORE DUP2 MLOAD PUSH2 0x22FD DUP6 DUP3 PUSH2 0x2282 JUMP JUMPDEST SWAP5 POP PUSH2 0x2308 DUP4 PUSH2 0x2713 JUMP JUMPDEST SWAP3 POP PUSH1 0x20 DUP11 ADD SWAP10 POP POP PUSH1 0x1 DUP2 ADD SWAP1 POP PUSH2 0x22E4 JUMP JUMPDEST POP DUP3 SWAP8 POP DUP8 SWAP6 POP POP POP POP POP POP SWAP3 SWAP2 POP POP JUMP JUMPDEST PUSH1 0x0 PUSH2 0x2339 DUP3 PUSH2 0x26FD JUMP JUMPDEST PUSH2 0x2343 DUP2 DUP6 PUSH2 0x273E JUMP JUMPDEST SWAP4 POP DUP4 PUSH1 0x20 DUP3 MUL DUP6 ADD PUSH2 0x2355 DUP6 PUSH2 0x26E2 JUMP JUMPDEST DUP1 PUSH1 0x0 JUMPDEST DUP6 DUP2 LT ISZERO PUSH2 0x2391 JUMPI DUP5 DUP5 SUB DUP10 MSTORE DUP2 MLOAD PUSH2 0x2372 DUP6 DUP3 PUSH2 0x2296 JUMP JUMPDEST SWAP5 POP PUSH2 0x237D DUP4 PUSH2 0x2720 JUMP JUMPDEST SWAP3 POP PUSH1 0x20 DUP11 ADD SWAP10 POP POP PUSH1 0x1 DUP2 ADD SWAP1 POP PUSH2 0x2359 JUMP JUMPDEST POP DUP3 SWAP8 POP DUP8 SWAP6 POP POP POP POP POP POP SWAP3 SWAP2 POP POP JUMP JUMPDEST PUSH2 0x23AC DUP2 PUSH2 0x27D9 JUMP JUMPDEST DUP3 MSTORE POP POP JUMP JUMPDEST PUSH2 0x23BB DUP2 PUSH2 0x280F JUMP JUMPDEST DUP3 MSTORE POP POP JUMP JUMPDEST PUSH1 0x0 PUSH2 0x23CC DUP3 PUSH2 0x2708 JUMP JUMPDEST PUSH2 0x23D6 DUP2 DUP6 PUSH2 0x274F JUMP JUMPDEST SWAP4 POP PUSH2 0x23E6 DUP2 DUP6 PUSH1 0x20 DUP7 ADD PUSH2 0x2842 JUMP JUMPDEST PUSH2 0x23EF DUP2 PUSH2 0x297D JUMP JUMPDEST DUP5 ADD SWAP2 POP POP SWAP3 SWAP2 POP POP JUMP JUMPDEST PUSH1 0x0 PUSH2 0x2405 DUP3 PUSH2 0x2708 JUMP JUMPDEST PUSH2 0x240F DUP2 DUP6 PUSH2 0x2760 JUMP JUMPDEST SWAP4 POP PUSH2 0x241F DUP2 DUP6 PUSH1 0x20 DUP7 ADD PUSH2 0x2842 JUMP JUMPDEST PUSH2 0x2428 DUP2 PUSH2 0x297D JUMP JUMPDEST DUP5 ADD SWAP2 POP POP SWAP3 SWAP2 POP POP JUMP JUMPDEST PUSH1 0x0 PUSH1 0x40 DUP4 ADD PUSH1 0x0 DUP4 ADD MLOAD DUP5 DUP3 SUB PUSH1 0x0 DUP7 ADD MSTORE PUSH2 0x2450 DUP3 DUP3 PUSH2 0x23C1 JUMP JUMPDEST SWAP2 POP POP PUSH1 0x20 DUP4 ADD MLOAD PUSH2 0x2465 PUSH1 0x20 DUP7 ADD DUP3 PUSH2 0x24AD JUMP JUMPDEST POP DUP1 SWAP2 POP POP SWAP3 SWAP2 POP POP JUMP JUMPDEST PUSH1 0x0 PUSH1 0x40 DUP4 ADD PUSH1 0x0 DUP4 ADD MLOAD DUP5 DUP3 SUB PUSH1 0x0 DUP7 ADD MSTORE PUSH2 0x248D DUP3 DUP3 PUSH2 0x23C1 JUMP JUMPDEST SWAP2 POP POP PUSH1 0x20 DUP4 ADD MLOAD PUSH2 0x24A2 PUSH1 0x20 DUP7 ADD DUP3 PUSH2 0x24AD JUMP JUMPDEST POP DUP1 SWAP2 POP POP SWAP3 SWAP2 POP POP JUMP JUMPDEST PUSH2 0x24B6 DUP2 PUSH2 0x2805 JUMP JUMPDEST DUP3 MSTORE POP POP JUMP JUMPDEST PUSH2 0x24C5 DUP2 PUSH2 0x2805 JUMP JUMPDEST DUP3 MSTORE POP POP JUMP JUMPDEST PUSH1 0x0 PUSH1 0x20 DUP3 ADD SWAP1 POP PUSH2 0x24E0 PUSH1 0x0 DUP4 ADD DUP5 PUSH2 0x22AA JUMP JUMPDEST SWAP3 SWAP2 POP POP JUMP JUMPDEST PUSH1 0x0 PUSH1 0x20 DUP3 ADD SWAP1 POP DUP2 DUP2 SUB PUSH1 0x0 DUP4 ADD MSTORE PUSH2 0x2500 DUP2 DUP5 PUSH2 0x22B9 JUMP JUMPDEST SWAP1 POP SWAP3 SWAP2 POP POP JUMP JUMPDEST PUSH1 0x0 PUSH1 0x20 DUP3 ADD SWAP1 POP DUP2 DUP2 SUB PUSH1 0x0 DUP4 ADD MSTORE PUSH2 0x2522 DUP2 DUP5 PUSH2 0x232E JUMP JUMPDEST SWAP1 POP SWAP3 SWAP2 POP POP JUMP JUMPDEST PUSH1 0x0 PUSH1 0x20 DUP3 ADD SWAP1 POP PUSH2 0x253F PUSH1 0x0 DUP4 ADD DUP5 PUSH2 0x23B2 JUMP JUMPDEST SWAP3 SWAP2 POP POP JUMP JUMPDEST PUSH1 0x0 PUSH1 0x20 DUP3 ADD SWAP1 POP DUP2 DUP2 SUB PUSH1 0x0 DUP4 ADD MSTORE PUSH2 0x255F DUP2 DUP5 PUSH2 0x23FA JUMP JUMPDEST SWAP1 POP SWAP3 SWAP2 POP POP JUMP JUMPDEST PUSH1 0x0 PUSH1 0x40 DUP3 ADD SWAP1 POP DUP2 DUP2 SUB PUSH1 0x0 DUP4 ADD MSTORE PUSH2 0x2581 DUP2 DUP6 PUSH2 0x23FA JUMP JUMPDEST SWAP1 POP PUSH2 0x2590 PUSH1 0x20 DUP4 ADD DUP5 PUSH2 0x24BC JUMP JUMPDEST SWAP4 SWAP3 POP POP POP JUMP JUMPDEST PUSH1 0x0 PUSH1 0x20 DUP3 ADD SWAP1 POP DUP2 DUP2 SUB PUSH1 0x0 DUP4 ADD MSTORE PUSH2 0x25B1 DUP2 DUP5 PUSH2 0x2470 JUMP JUMPDEST SWAP1 POP SWAP3 SWAP2 POP POP JUMP JUMPDEST PUSH1 0x0 PUSH1 0x20 DUP3 ADD SWAP1 POP PUSH2 0x25CE PUSH1 0x0 DUP4 ADD DUP5 PUSH2 0x24BC JUMP JUMPDEST SWAP3 SWAP2 POP POP JUMP JUMPDEST PUSH1 0x0 PUSH1 0x80 DUP3 ADD SWAP1 POP PUSH2 0x25E9 PUSH1 0x0 DUP4 ADD DUP8 PUSH2 0x24BC JUMP JUMPDEST PUSH2 0x25F6 PUSH1 0x20 DUP4 ADD DUP7 PUSH2 0x23A3 JUMP JUMPDEST PUSH2 0x2603 PUSH1 0x40 DUP4 ADD DUP6 PUSH2 0x22AA JUMP JUMPDEST PUSH2 0x2610 PUSH1 0x60 DUP4 ADD DUP5 PUSH2 0x24BC JUMP JUMPDEST SWAP6 SWAP5 POP POP POP POP POP JUMP JUMPDEST PUSH1 0x0 PUSH1 0x40 MLOAD SWAP1 POP DUP2 DUP2 ADD DUP2 DUP2 LT PUSH8 0xFFFFFFFFFFFFFFFF DUP3 GT OR ISZERO PUSH2 0x2640 JUMPI PUSH2 0x263F PUSH2 0x294E JUMP JUMPDEST JUMPDEST DUP1 PUSH1 0x40 MSTORE POP SWAP2 SWAP1 POP JUMP JUMPDEST PUSH1 0x0 PUSH8 0xFFFFFFFFFFFFFFFF DUP3 GT ISZERO PUSH2 0x2665 JUMPI PUSH2 0x2664 PUSH2 0x294E JUMP JUMPDEST JUMPDEST PUSH1 0x20 DUP3 MUL SWAP1 POP PUSH1 0x20 DUP2 ADD SWAP1 POP SWAP2 SWAP1 POP JUMP JUMPDEST PUSH1 0x0 PUSH8 0xFFFFFFFFFFFFFFFF DUP3 GT ISZERO PUSH2 0x2691 JUMPI PUSH2 0x2690 PUSH2 0x294E JUMP JUMPDEST JUMPDEST PUSH1 0x20 DUP3 MUL SWAP1 POP PUSH1 0x20 DUP2 ADD SWAP1 POP SWAP2 SWAP1 POP JUMP JUMPDEST PUSH1 0x0 PUSH8 0xFFFFFFFFFFFFFFFF DUP3 GT ISZERO PUSH2 0x26BD JUMPI PUSH2 0x26BC PUSH2 0x294E JUMP JUMPDEST JUMPDEST PUSH1 0x1F NOT PUSH1 0x1F DUP4 ADD AND SWAP1 POP PUSH1 0x20 DUP2 ADD SWAP1 POP SWAP2 SWAP1 POP JUMP JUMPDEST PUSH1 0x0 DUP2 SWAP1 POP PUSH1 0x20 DUP3 ADD SWAP1 POP SWAP2 SWAP1 POP JUMP JUMPDEST PUSH1 0x0 DUP2 SWAP1 POP PUSH1 0x20 DUP3 ADD SWAP1 POP SWAP2 SWAP1 POP JUMP JUMPDEST PUSH1 0x0 DUP2 MLOAD SWAP1 POP SWAP2 SWAP1 POP JUMP JUMPDEST PUSH1 0x0 DUP2 MLOAD SWAP1 POP SWAP2 SWAP1 POP JUMP JUMPDEST PUSH1 0x0 DUP2 MLOAD SWAP1 POP SWAP2 SWAP1 POP JUMP JUMPDEST PUSH1 0x0 PUSH1 0x20 DUP3 ADD SWAP1 POP SWAP2 SWAP1 POP JUMP JUMPDEST PUSH1 0x0 PUSH1 0x20 DUP3 ADD SWAP1 POP SWAP2 SWAP1 POP JUMP JUMPDEST PUSH1 0x0 DUP3 DUP3 MSTORE PUSH1 0x20 DUP3 ADD SWAP1 POP SWAP3 SWAP2 POP POP JUMP JUMPDEST PUSH1 0x0 DUP3 DUP3 MSTORE PUSH1 0x20 DUP3 ADD SWAP1 POP SWAP3 SWAP2 POP POP JUMP JUMPDEST PUSH1 0x0 DUP3 DUP3 MSTORE PUSH1 0x20 DUP3 ADD SWAP1 POP SWAP3 SWAP2 POP POP JUMP JUMPDEST PUSH1 0x0 DUP3 DUP3 MSTORE PUSH1 0x20 DUP3 ADD SWAP1 POP SWAP3 SWAP2 POP POP JUMP JUMPDEST PUSH1 0x0 PUSH2 0x277C DUP3 PUSH2 0x2805 JUMP JUMPDEST SWAP2 POP PUSH2 0x2787 DUP4 PUSH2 0x2805 JUMP JUMPDEST SWAP3 POP DUP3 PUSH32 0xFFFFFFFFFFFFFFFFFFFFFFFFFFFFFFFFFFFFFFFFFFFFFFFFFFFFFFFFFFFFFFFF SUB DUP3 GT ISZERO PUSH2 0x27BC JUMPI PUSH2 0x27BB PUSH2 0x28F0 JUMP JUMPDEST JUMPDEST DUP3 DUP3 ADD SWAP1 POP SWAP3 SWAP2 POP POP JUMP JUMPDEST PUSH1 0x0 PUSH2 0x27D2 DUP3 PUSH2 0x27E5 JUMP JUMPDEST SWAP1 POP SWAP2 SWAP1 POP JUMP JUMPDEST PUSH1 0x0 DUP2 ISZERO ISZERO SWAP1 POP SWAP2 SWAP1 POP JUMP JUMPDEST PUSH1 0x0 PUSH20 0xFFFFFFFFFFFFFFFFFFFFFFFFFFFFFFFFFFFFFFFF DUP3 AND SWAP1 POP SWAP2 SWAP1 POP JUMP JUMPDEST PUSH1 0x0 DUP2 SWAP1 POP SWAP2 SWAP1 POP JUMP JUMPDEST PUSH1 0x0 PUSH2 0x281A DUP3 PUSH2 0x2821 JUMP JUMPDEST SWAP1 POP SWAP2 SWAP1 POP JUMP JUMPDEST PUSH1 0x0 PUSH2 0x282C DUP3 PUSH2 0x27E5 JUMP JUMPDEST SWAP1 POP SWAP2 SWAP1 POP JUMP JUMPDEST DUP3 DUP2 DUP4 CALLDATACOPY PUSH1 0x0 DUP4 DUP4 ADD MSTORE POP POP POP JUMP JUMPDEST PUSH1 0x0 JUMPDEST DUP4 DUP2 LT ISZERO PUSH2 0x2860 JUMPI DUP1 DUP3 ADD MLOAD DUP2 DUP5 ADD MSTORE PUSH1 0x20 DUP2 ADD SWAP1 POP PUSH2 0x2845 JUMP JUMPDEST DUP4 DUP2 GT ISZERO PUSH2 0x286F JUMPI PUSH1 0x0 DUP5 DUP5 ADD MSTORE JUMPDEST POP POP POP POP JUMP JUMPDEST PUSH1 0x0 PUSH1 0x2 DUP3 DIV SWAP1 POP PUSH1 0x1 DUP3 AND DUP1 PUSH2 0x288D JUMPI PUSH1 0x7F DUP3 AND SWAP2 POP JUMPDEST PUSH1 0x20 DUP3 LT DUP2 EQ ISZERO PUSH2 0x28A1 JUMPI PUSH2 0x28A0 PUSH2 0x291F JUMP JUMPDEST JUMPDEST POP SWAP2 SWAP1 POP JUMP JUMPDEST PUSH1 0x0 PUSH2 0x28B2 DUP3 PUSH2 0x2805 JUMP JUMPDEST SWAP2 POP PUSH32 0xFFFFFFFFFFFFFFFFFFFFFFFFFFFFFFFFFFFFFFFFFFFFFFFFFFFFFFFFFFFFFFFF DUP3 EQ ISZERO PUSH2 0x28E5 JUMPI PUSH2 0x28E4 PUSH2 0x28F0 JUMP JUMPDEST JUMPDEST PUSH1 0x1 DUP3 ADD SWAP1 POP SWAP2 SWAP1 POP JUMP JUMPDEST PUSH32 0x4E487B7100000000000000000000000000000000000000000000000000000000 PUSH1 0x0 MSTORE PUSH1 0x11 PUSH1 0x4 MSTORE PUSH1 0x24 PUSH1 0x0 REVERT JUMPDEST PUSH32 0x4E487B7100000000000000000000000000000000000000000000000000000000 PUSH1 0x0 MSTORE PUSH1 0x22 PUSH1 0x4 MSTORE PUSH1 0x24 PUSH1 0x0 REVERT JUMPDEST PUSH32 0x4E487B7100000000000000000000000000000000000000000000000000000000 PUSH1 0x0 MSTORE PUSH1 0x41 PUSH1 0x4 MSTORE PUSH1 0x24 PUSH1 0x0 REVERT JUMPDEST PUSH1 0x0 PUSH1 0x1F NOT PUSH1 0x1F DUP4 ADD AND SWAP1 POP SWAP2 SWAP1 POP JUMP JUMPDEST PUSH2 0x2997 DUP2 PUSH2 0x27C7 JUMP JUMPDEST DUP2 EQ PUSH2 0x29A2 JUMPI PUSH1 0x0 DUP1 REVERT JUMPDEST POP JUMP JUMPDEST PUSH2 0x29AE DUP2 PUSH2 0x2805 JUMP JUMPDEST DUP2 EQ PUSH2 0x29B9 JUMPI PUSH1 0x0 DUP1 REVERT JUMPDEST POP JUMP INVALID PUSH1 0x80 PUSH1 0x40 MSTORE CALLVALUE DUP1 ISZERO PUSH2 0x10 JUMPI PUSH1 0x0 DUP1 REVERT JUMPDEST POP PUSH2 0x147A DUP1 PUSH2 0x20 PUSH1 0x0 CODECOPY PUSH1 0x0 RETURN INVALID PUSH1 0x80 PUSH1 0x40 MSTORE CALLVALUE DUP1 ISZERO PUSH2 0x10 JUMPI PUSH1 0x0 DUP1 REVERT JUMPDEST POP PUSH1 0x4 CALLDATASIZE LT PUSH2 0x100 JUMPI PUSH1 0x0 CALLDATALOAD PUSH1 0xE0 SHR DUP1 PUSH4 0x7A16FCB0 GT PUSH2 0x97 JUMPI DUP1 PUSH4 0xA3EC138D GT PUSH2 0x66 JUMPI DUP1 PUSH4 0xA3EC138D EQ PUSH2 0x264 JUMPI DUP1 PUSH4 0xB1356488 EQ PUSH2 0x297 JUMPI DUP1 PUSH4 0xE2BA53F0 EQ PUSH2 0x2B5 JUMPI DUP1 PUSH4 0xE9D6C6DA EQ PUSH2 0x2D3 JUMPI PUSH2 0x100 JUMP JUMPDEST DUP1 PUSH4 0x7A16FCB0 EQ PUSH2 0x204 JUMPI DUP1 PUSH4 0x836BC692 EQ PUSH2 0x222 JUMPI DUP1 PUSH4 0x86278E77 EQ PUSH2 0x23E JUMPI DUP1 PUSH4 0x9E7B8D61 EQ PUSH2 0x248 JUMPI PUSH2 0x100 JUMP JUMPDEST DUP1 PUSH4 0x609FF1BD GT PUSH2 0xD3 JUMPI DUP1 PUSH4 0x609FF1BD EQ PUSH2 0x18E JUMPI DUP1 PUSH4 0x62564C48 EQ PUSH2 0x1AC JUMPI DUP1 PUSH4 0x69BA1A75 EQ PUSH2 0x1CA JUMPI DUP1 PUSH4 0x78F305C6 EQ PUSH2 0x1E6 JUMPI PUSH2 0x100 JUMP JUMPDEST DUP1 PUSH4 0x121B93F EQ PUSH2 0x105 JUMPI DUP1 PUSH4 0x13CF08B EQ PUSH2 0x121 JUMPI DUP1 PUSH4 0xA82DCB1 EQ PUSH2 0x152 JUMPI DUP1 PUSH4 0x4E69D560 EQ PUSH2 0x170 JUMPI JUMPDEST PUSH1 0x0 DUP1 REVERT JUMPDEST PUSH2 0x11F PUSH1 0x4 DUP1 CALLDATASIZE SUB DUP2 ADD SWAP1 PUSH2 0x11A SWAP2 SWAP1 PUSH2 0xE3F JUMP JUMPDEST PUSH2 0x303 JUMP JUMPDEST STOP JUMPDEST PUSH2 0x13B PUSH1 0x4 DUP1 CALLDATASIZE SUB DUP2 ADD SWAP1 PUSH2 0x136 SWAP2 SWAP1 PUSH2 0xE3F JUMP JUMPDEST PUSH2 0x3F2 JUMP JUMPDEST PUSH1 0x40 MLOAD PUSH2 0x149 SWAP3 SWAP2 SWAP1 PUSH2 0x1078 JUMP JUMPDEST PUSH1 0x40 MLOAD DUP1 SWAP2 SUB SWAP1 RETURN JUMPDEST PUSH2 0x15A PUSH2 0x4AE JUMP JUMPDEST PUSH1 0x40 MLOAD PUSH2 0x167 SWAP2 SWAP1 PUSH2 0x10CA JUMP JUMPDEST PUSH1 0x40 MLOAD DUP1 SWAP2 SUB SWAP1 RETURN JUMPDEST PUSH2 0x178 PUSH2 0x4B8 JUMP JUMPDEST PUSH1 0x40 MLOAD PUSH2 0x185 SWAP2 SWAP1 PUSH2 0x10CA JUMP JUMPDEST PUSH1 0x40 MLOAD DUP1 SWAP2 SUB SWAP1 RETURN JUMPDEST PUSH2 0x196 PUSH2 0x4C2 JUMP JUMPDEST PUSH1 0x40 MLOAD PUSH2 0x1A3 SWAP2 SWAP1 PUSH2 0x10CA JUMP JUMPDEST PUSH1 0x40 MLOAD DUP1 SWAP2 SUB SWAP1 RETURN JUMPDEST PUSH2 0x1B4 PUSH2 0x596 JUMP JUMPDEST PUSH1 0x40 MLOAD PUSH2 0x1C1 SWAP2 SWAP1 PUSH2 0x1034 JUMP JUMPDEST PUSH1 0x40 MLOAD DUP1 SWAP2 SUB SWAP1 RETURN JUMPDEST PUSH2 0x1E4 PUSH1 0x4 DUP1 CALLDATASIZE SUB DUP2 ADD SWAP1 PUSH2 0x1DF SWAP2 SWAP1 PUSH2 0xE3F JUMP JUMPDEST PUSH2 0x691 JUMP JUMPDEST STOP JUMPDEST PUSH2 0x1EE PUSH2 0x69B JUMP JUMPDEST PUSH1 0x40 MLOAD PUSH2 0x1FB SWAP2 SWAP1 PUSH2 0x10CA JUMP JUMPDEST PUSH1 0x40 MLOAD DUP1 SWAP2 SUB SWAP1 RETURN JUMPDEST PUSH2 0x20C PUSH2 0x6A5 JUMP JUMPDEST PUSH1 0x40 MLOAD PUSH2 0x219 SWAP2 SWAP1 PUSH2 0x1019 JUMP JUMPDEST PUSH1 0x40 MLOAD DUP1 SWAP2 SUB SWAP1 RETURN JUMPDEST PUSH2 0x23C PUSH1 0x4 DUP1 CALLDATASIZE SUB DUP2 ADD SWAP1 PUSH2 0x237 SWAP2 SWAP1 PUSH2 0xDFE JUMP JUMPDEST PUSH2 0x6CE JUMP JUMPDEST STOP JUMPDEST PUSH2 0x246 PUSH2 0x85C JUMP JUMPDEST STOP JUMPDEST PUSH2 0x262 PUSH1 0x4 DUP1 CALLDATASIZE SUB DUP2 ADD SWAP1 PUSH2 0x25D SWAP2 SWAP1 PUSH2 0xDD5 JUMP JUMPDEST PUSH2 0x865 JUMP JUMPDEST STOP JUMPDEST PUSH2 0x27E PUSH1 0x4 DUP1 CALLDATASIZE SUB DUP2 ADD SWAP1 PUSH2 0x279 SWAP2 SWAP1 PUSH2 0xDD5 JUMP JUMPDEST PUSH2 0x9AF JUMP JUMPDEST PUSH1 0x40 MLOAD PUSH2 0x28E SWAP5 SWAP4 SWAP3 SWAP2 SWAP1 PUSH2 0x10E5 JUMP JUMPDEST PUSH1 0x40 MLOAD DUP1 SWAP2 SUB SWAP1 RETURN JUMPDEST PUSH2 0x29F PUSH2 0xA0C JUMP JUMPDEST PUSH1 0x40 MLOAD PUSH2 0x2AC SWAP2 SWAP1 PUSH2 0x10CA JUMP JUMPDEST PUSH1 0x40 MLOAD DUP1 SWAP2 SUB SWAP1 RETURN JUMPDEST PUSH2 0x2BD PUSH2 0xA16 JUMP JUMPDEST PUSH1 0x40 MLOAD PUSH2 0x2CA SWAP2 SWAP1 PUSH2 0x1056 JUMP JUMPDEST PUSH1 0x40 MLOAD DUP1 SWAP2 SUB SWAP1 RETURN JUMPDEST PUSH2 0x2ED PUSH1 0x4 DUP1 CALLDATASIZE SUB DUP2 ADD SWAP1 PUSH2 0x2E8 SWAP2 SWAP1 PUSH2 0xE3F JUMP JUMPDEST PUSH2 0xAF8 JUMP JUMPDEST PUSH1 0x40 MLOAD PUSH2 0x2FA SWAP2 SWAP1 PUSH2 0x10A8 JUMP JUMPDEST PUSH1 0x40 MLOAD DUP1 SWAP2 SUB SWAP1 RETURN JUMPDEST PUSH1 0x0 PUSH1 0x5 PUSH1 0x0 CALLER PUSH20 0xFFFFFFFFFFFFFFFFFFFFFFFFFFFFFFFFFFFFFFFF AND PUSH20 0xFFFFFFFFFFFFFFFFFFFFFFFFFFFFFFFFFFFFFFFF AND DUP2 MSTORE PUSH1 0x20 ADD SWAP1 DUP2 MSTORE PUSH1 0x20 ADD PUSH1 0x0 KECCAK256 SWAP1 POP DUP1 PUSH1 0x1 ADD PUSH1 0x0 SWAP1 SLOAD SWAP1 PUSH2 0x100 EXP SWAP1 DIV PUSH1 0xFF AND ISZERO PUSH2 0x362 JUMPI PUSH1 0x0 DUP1 REVERT JUMPDEST PUSH1 0x1 DUP2 PUSH1 0x1 ADD PUSH1 0x0 PUSH2 0x100 EXP DUP2 SLOAD DUP2 PUSH1 0xFF MUL NOT AND SWAP1 DUP4 ISZERO ISZERO MUL OR SWAP1 SSTORE POP DUP2 DUP2 PUSH1 0x2 ADD DUP2 SWAP1 SSTORE POP DUP1 PUSH1 0x0 ADD SLOAD PUSH1 0x6 DUP4 DUP2 SLOAD DUP2 LT PUSH2 0x3C7 JUMPI PUSH32 0x4E487B7100000000000000000000000000000000000000000000000000000000 PUSH1 0x0 MSTORE PUSH1 0x32 PUSH1 0x4 MSTORE PUSH1 0x24 PUSH1 0x0 REVERT JUMPDEST SWAP1 PUSH1 0x0 MSTORE PUSH1 0x20 PUSH1 0x0 KECCAK256 SWAP1 PUSH1 0x2 MUL ADD PUSH1 0x1 ADD PUSH1 0x0 DUP3 DUP3 SLOAD PUSH2 0x3E7 SWAP2 SWAP1 PUSH2 0x121D JUMP JUMPDEST SWAP3 POP POP DUP2 SWAP1 SSTORE POP POP POP JUMP JUMPDEST PUSH1 0x6 DUP2 DUP2 SLOAD DUP2 LT PUSH2 0x402 JUMPI PUSH1 0x0 DUP1 REVERT JUMPDEST SWAP1 PUSH1 0x0 MSTORE PUSH1 0x20 PUSH1 0x0 KECCAK256 SWAP1 PUSH1 0x2 MUL ADD PUSH1 0x0 SWAP2 POP SWAP1 POP DUP1 PUSH1 0x0 ADD DUP1 SLOAD PUSH2 0x425 SWAP1 PUSH2 0x12FD JUMP JUMPDEST DUP1 PUSH1 0x1F ADD PUSH1 0x20 DUP1 SWAP2 DIV MUL PUSH1 0x20 ADD PUSH1 0x40 MLOAD SWAP1 DUP2 ADD PUSH1 0x40 MSTORE DUP1 SWAP3 SWAP2 SWAP1 DUP2 DUP2 MSTORE PUSH1 0x20 ADD DUP3 DUP1 SLOAD PUSH2 0x451 SWAP1 PUSH2 0x12FD JUMP JUMPDEST DUP1 ISZERO PUSH2 0x49E JUMPI DUP1 PUSH1 0x1F LT PUSH2 0x473 JUMPI PUSH2 0x100 DUP1 DUP4 SLOAD DIV MUL DUP4 MSTORE SWAP2 PUSH1 0x20 ADD SWAP2 PUSH2 0x49E JUMP JUMPDEST DUP3 ADD SWAP2 SWAP1 PUSH1 0x0 MSTORE PUSH1 0x20 PUSH1 0x0 KECCAK256 SWAP1 JUMPDEST DUP2 SLOAD DUP2 MSTORE SWAP1 PUSH1 0x1 ADD SWAP1 PUSH1 0x20 ADD DUP1 DUP4 GT PUSH2 0x481 JUMPI DUP3 SWAP1 SUB PUSH1 0x1F AND DUP3 ADD SWAP2 JUMPDEST POP POP POP POP POP SWAP1 DUP1 PUSH1 0x1 ADD SLOAD SWAP1 POP DUP3 JUMP JUMPDEST PUSH1 0x0 PUSH1 0x4 SLOAD SWAP1 POP SWAP1 JUMP JUMPDEST PUSH1 0x0 PUSH1 0x1 SLOAD SWAP1 POP SWAP1 JUMP JUMPDEST PUSH1 0x0 DUP1 PUSH1 0x0 SWAP1 POP PUSH1 0x0 JUMPDEST PUSH1 0x6 DUP1 SLOAD SWAP1 POP DUP2 LT ISZERO PUSH2 0x591 JUMPI DUP2 PUSH1 0x6 DUP3 DUP2 SLOAD DUP2 LT PUSH2 0x514 JUMPI PUSH32 0x4E487B7100000000000000000000000000000000000000000000000000000000 PUSH1 0x0 MSTORE PUSH1 0x32 PUSH1 0x4 MSTORE PUSH1 0x24 PUSH1 0x0 REVERT JUMPDEST SWAP1 PUSH1 0x0 MSTORE PUSH1 0x20 PUSH1 0x0 KECCAK256 SWAP1 PUSH1 0x2 MUL ADD PUSH1 0x1 ADD SLOAD GT ISZERO PUSH2 0x57E JUMPI PUSH1 0x6 DUP2 DUP2 SLOAD DUP2 LT PUSH2 0x566 JUMPI PUSH32 0x4E487B7100000000000000000000000000000000000000000000000000000000 PUSH1 0x0 MSTORE PUSH1 0x32 PUSH1 0x4 MSTORE PUSH1 0x24 PUSH1 0x0 REVERT JUMPDEST SWAP1 PUSH1 0x0 MSTORE PUSH1 0x20 PUSH1 0x0 KECCAK256 SWAP1 PUSH1 0x2 MUL ADD PUSH1 0x1 ADD SLOAD SWAP2 POP DUP1 SWAP3 POP JUMPDEST DUP1 DUP1 PUSH2 0x589 SWAP1 PUSH2 0x132F JUMP JUMPDEST SWAP2 POP POP PUSH2 0x4CC JUMP JUMPDEST POP POP SWAP1 JUMP JUMPDEST PUSH1 0x60 PUSH1 0x6 DUP1 SLOAD DUP1 PUSH1 0x20 MUL PUSH1 0x20 ADD PUSH1 0x40 MLOAD SWAP1 DUP2 ADD PUSH1 0x40 MSTORE DUP1 SWAP3 SWAP2 SWAP1 DUP2 DUP2 MSTORE PUSH1 0x20 ADD PUSH1 0x0 SWAP1 JUMPDEST DUP3 DUP3 LT ISZERO PUSH2 0x688 JUMPI DUP4 DUP3 SWAP1 PUSH1 0x0 MSTORE PUSH1 0x20 PUSH1 0x0 KECCAK256 SWAP1 PUSH1 0x2 MUL ADD PUSH1 0x40 MLOAD DUP1 PUSH1 0x40 ADD PUSH1 0x40 MSTORE SWAP1 DUP2 PUSH1 0x0 DUP3 ADD DUP1 SLOAD PUSH2 0x5ED SWAP1 PUSH2 0x12FD JUMP JUMPDEST DUP1 PUSH1 0x1F ADD PUSH1 0x20 DUP1 SWAP2 DIV MUL PUSH1 0x20 ADD PUSH1 0x40 MLOAD SWAP1 DUP2 ADD PUSH1 0x40 MSTORE DUP1 SWAP3 SWAP2 SWAP1 DUP2 DUP2 MSTORE PUSH1 0x20 ADD DUP3 DUP1 SLOAD PUSH2 0x619 SWAP1 PUSH2 0x12FD JUMP JUMPDEST DUP1 ISZERO PUSH2 0x666 JUMPI DUP1 PUSH1 0x1F LT PUSH2 0x63B JUMPI PUSH2 0x100 DUP1 DUP4 SLOAD DIV MUL DUP4 MSTORE SWAP2 PUSH1 0x20 ADD SWAP2 PUSH2 0x666 JUMP JUMPDEST DUP3 ADD SWAP2 SWAP1 PUSH1 0x0 MSTORE PUSH1 0x20 PUSH1 0x0 KECCAK256 SWAP1 JUMPDEST DUP2 SLOAD DUP2 MSTORE SWAP1 PUSH1 0x1 ADD SWAP1 PUSH1 0x20 ADD DUP1 DUP4 GT PUSH2 0x649 JUMPI DUP3 SWAP1 SUB PUSH1 0x1F AND DUP3 ADD SWAP2 JUMPDEST POP POP POP POP POP DUP2 MSTORE PUSH1 0x20 ADD PUSH1 0x1 DUP3 ADD SLOAD DUP2 MSTORE POP POP DUP2 MSTORE PUSH1 0x20 ADD SWAP1 PUSH1 0x1 ADD SWAP1 PUSH2 0x5BA JUMP JUMPDEST POP POP POP POP SWAP1 POP SWAP1 JUMP JUMPDEST DUP1 PUSH1 0x1 DUP2 SWAP1 SSTORE POP POP JUMP JUMPDEST PUSH1 0x0 PUSH1 0x2 SLOAD SWAP1 POP SWAP1 JUMP JUMPDEST PUSH1 0x0 DUP1 PUSH1 0x0 SWAP1 SLOAD SWAP1 PUSH2 0x100 EXP SWAP1 DIV PUSH20 0xFFFFFFFFFFFFFFFFFFFFFFFFFFFFFFFFFFFFFFFF AND SWAP1 POP SWAP1 JUMP JUMPDEST CALLER PUSH1 0x0 DUP1 PUSH2 0x100 EXP DUP2 SLOAD DUP2 PUSH20 0xFFFFFFFFFFFFFFFFFFFFFFFFFFFFFFFFFFFFFFFF MUL NOT AND SWAP1 DUP4 PUSH20 0xFFFFFFFFFFFFFFFFFFFFFFFFFFFFFFFFFFFFFFFF AND MUL OR SWAP1 SSTORE POP PUSH1 0x1 PUSH1 0x5 PUSH1 0x0 DUP1 PUSH1 0x0 SWAP1 SLOAD SWAP1 PUSH2 0x100 EXP SWAP1 DIV PUSH20 0xFFFFFFFFFFFFFFFFFFFFFFFFFFFFFFFFFFFFFFFF AND PUSH20 0xFFFFFFFFFFFFFFFFFFFFFFFFFFFFFFFFFFFFFFFF AND PUSH20 0xFFFFFFFFFFFFFFFFFFFFFFFFFFFFFFFFFFFFFFFF AND DUP2 MSTORE PUSH1 0x20 ADD SWAP1 DUP2 MSTORE PUSH1 0x20 ADD PUSH1 0x0 KECCAK256 PUSH1 0x0 ADD DUP2 SWAP1 SSTORE POP PUSH1 0x0 PUSH1 0x1 DUP2 SWAP1 SSTORE POP PUSH2 0x787 PUSH2 0xBF6 JUMP JUMPDEST DUP1 MLOAD PUSH1 0x4 DUP2 SWAP1 SSTORE POP PUSH1 0x0 JUMPDEST DUP2 MLOAD DUP2 LT ISZERO PUSH2 0x858 JUMPI PUSH1 0x6 PUSH1 0x40 MLOAD DUP1 PUSH1 0x40 ADD PUSH1 0x40 MSTORE DUP1 DUP5 DUP5 DUP2 MLOAD DUP2 LT PUSH2 0x7E1 JUMPI PUSH32 0x4E487B7100000000000000000000000000000000000000000000000000000000 PUSH1 0x0 MSTORE PUSH1 0x32 PUSH1 0x4 MSTORE PUSH1 0x24 PUSH1 0x0 REVERT JUMPDEST PUSH1 0x20 MUL PUSH1 0x20 ADD ADD MLOAD DUP2 MSTORE PUSH1 0x20 ADD PUSH1 0x0 DUP2 MSTORE POP SWAP1 DUP1 PUSH1 0x1 DUP2 SLOAD ADD DUP1 DUP3 SSTORE DUP1 SWAP2 POP POP PUSH1 0x1 SWAP1 SUB SWAP1 PUSH1 0x0 MSTORE PUSH1 0x20 PUSH1 0x0 KECCAK256 SWAP1 PUSH1 0x2 MUL ADD PUSH1 0x0 SWAP1 SWAP2 SWAP1 SWAP2 SWAP1 SWAP2 POP PUSH1 0x0 DUP3 ADD MLOAD DUP2 PUSH1 0x0 ADD SWAP1 DUP1 MLOAD SWAP1 PUSH1 0x20 ADD SWAP1 PUSH2 0x838 SWAP3 SWAP2 SWAP1 PUSH2 0xBFF JUMP JUMPDEST POP PUSH1 0x20 DUP3 ADD MLOAD DUP2 PUSH1 0x1 ADD SSTORE POP POP DUP1 DUP1 PUSH2 0x850 SWAP1 PUSH2 0x132F JUMP JUMPDEST SWAP2 POP POP PUSH2 0x792 JUMP JUMPDEST POP POP JUMP JUMPDEST TIMESTAMP PUSH1 0x3 DUP2 SWAP1 SSTORE POP JUMP JUMPDEST PUSH1 0x0 DUP1 SLOAD SWAP1 PUSH2 0x100 EXP SWAP1 DIV PUSH20 0xFFFFFFFFFFFFFFFFFFFFFFFFFFFFFFFFFFFFFFFF AND PUSH20 0xFFFFFFFFFFFFFFFFFFFFFFFFFFFFFFFFFFFFFFFF AND CALLER PUSH20 0xFFFFFFFFFFFFFFFFFFFFFFFFFFFFFFFFFFFFFFFF AND EQ DUP1 ISZERO PUSH2 0x90D JUMPI POP PUSH1 0x5 PUSH1 0x0 DUP3 PUSH20 0xFFFFFFFFFFFFFFFFFFFFFFFFFFFFFFFFFFFFFFFF AND PUSH20 0xFFFFFFFFFFFFFFFFFFFFFFFFFFFFFFFFFFFFFFFF AND DUP2 MSTORE PUSH1 0x20 ADD SWAP1 DUP2 MSTORE PUSH1 0x20 ADD PUSH1 0x0 KECCAK256 PUSH1 0x1 ADD PUSH1 0x0 SWAP1 SLOAD SWAP1 PUSH2 0x100 EXP SWAP1 DIV PUSH1 0xFF AND ISZERO JUMPDEST DUP1 ISZERO PUSH2 0x95B JUMPI POP PUSH1 0x0 PUSH1 0x5 PUSH1 0x0 DUP4 PUSH20 0xFFFFFFFFFFFFFFFFFFFFFFFFFFFFFFFFFFFFFFFF AND PUSH20 0xFFFFFFFFFFFFFFFFFFFFFFFFFFFFFFFFFFFFFFFF AND DUP2 MSTORE PUSH1 0x20 ADD SWAP1 DUP2 MSTORE PUSH1 0x20 ADD PUSH1 0x0 KECCAK256 PUSH1 0x0 ADD SLOAD EQ JUMPDEST PUSH2 0x964 JUMPI PUSH1 0x0 DUP1 REVERT JUMPDEST PUSH1 0x1 PUSH1 0x5 PUSH1 0x0 DUP4 PUSH20 0xFFFFFFFFFFFFFFFFFFFFFFFFFFFFFFFFFFFFFFFF AND PUSH20 0xFFFFFFFFFFFFFFFFFFFFFFFFFFFFFFFFFFFFFFFF AND DUP2 MSTORE PUSH1 0x20 ADD SWAP1 DUP2 MSTORE PUSH1 0x20 ADD PUSH1 0x0 KECCAK256 PUSH1 0x0 ADD DUP2 SWAP1 SSTORE POP POP JUMP JUMPDEST PUSH1 0x5 PUSH1 0x20 MSTORE DUP1 PUSH1 0x0 MSTORE PUSH1 0x40 PUSH1 0x0 KECCAK256 PUSH1 0x0 SWAP2 POP SWAP1 POP DUP1 PUSH1 0x0 ADD SLOAD SWAP1 DUP1 PUSH1 0x1 ADD PUSH1 0x0 SWAP1 SLOAD SWAP1 PUSH2 0x100 EXP SWAP1 DIV PUSH1 0xFF AND SWAP1 DUP1 PUSH1 0x1 ADD PUSH1 0x1 SWAP1 SLOAD SWAP1 PUSH2 0x100 EXP SWAP1 DIV PUSH20 0xFFFFFFFFFFFFFFFFFFFFFFFFFFFFFFFFFFFFFFFF AND SWAP1 DUP1 PUSH1 0x2 ADD SLOAD SWAP1 POP DUP5 JUMP JUMPDEST PUSH1 0x0 PUSH1 0x3 SLOAD SWAP1 POP SWAP1 JUMP JUMPDEST PUSH1 0x60 PUSH1 0x6 PUSH2 0xA22 PUSH2 0x4C2 JUMP JUMPDEST DUP2 SLOAD DUP2 LT PUSH2 0xA59 JUMPI PUSH32 0x4E487B7100000000000000000000000000000000000000000000000000000000 PUSH1 0x0 MSTORE PUSH1 0x32 PUSH1 0x4 MSTORE PUSH1 0x24 PUSH1 0x0 REVERT JUMPDEST SWAP1 PUSH1 0x0 MSTORE PUSH1 0x20 PUSH1 0x0 KECCAK256 SWAP1 PUSH1 0x2 MUL ADD PUSH1 0x0 ADD DUP1 SLOAD PUSH2 0xA75 SWAP1 PUSH2 0x12FD JUMP JUMPDEST DUP1 PUSH1 0x1F ADD PUSH1 0x20 DUP1 SWAP2 DIV MUL PUSH1 0x20 ADD PUSH1 0x40 MLOAD SWAP1 DUP2 ADD PUSH1 0x40 MSTORE DUP1 SWAP3 SWAP2 SWAP1 DUP2 DUP2 MSTORE PUSH1 0x20 ADD DUP3 DUP1 SLOAD PUSH2 0xAA1 SWAP1 PUSH2 0x12FD JUMP JUMPDEST DUP1 ISZERO PUSH2 0xAEE JUMPI DUP1 PUSH1 0x1F LT PUSH2 0xAC3 JUMPI PUSH2 0x100 DUP1 DUP4 SLOAD DIV MUL DUP4 MSTORE SWAP2 PUSH1 0x20 ADD SWAP2 PUSH2 0xAEE JUMP JUMPDEST DUP3 ADD SWAP2 SWAP1 PUSH1 0x0 MSTORE PUSH1 0x20 PUSH1 0x0 KECCAK256 SWAP1 JUMPDEST DUP2 SLOAD DUP2 MSTORE SWAP1 PUSH1 0x1 ADD SWAP1 PUSH1 0x20 ADD DUP1 DUP4 GT PUSH2 0xAD1 JUMPI DUP3 SWAP1 SUB PUSH1 0x1F AND DUP3 ADD SWAP2 JUMPDEST POP POP POP POP POP SWAP1 POP SWAP1 JUMP JUMPDEST PUSH2 0xB00 PUSH2 0xC85 JUMP JUMPDEST PUSH1 0x6 DUP3 DUP2 SLOAD DUP2 LT PUSH2 0xB3A JUMPI PUSH32 0x4E487B7100000000000000000000000000000000000000000000000000000000 PUSH1 0x0 MSTORE PUSH1 0x32 PUSH1 0x4 MSTORE PUSH1 0x24 PUSH1 0x0 REVERT JUMPDEST SWAP1 PUSH1 0x0 MSTORE PUSH1 0x20 PUSH1 0x0 KECCAK256 SWAP1 PUSH1 0x2 MUL ADD PUSH1 0x40 MLOAD DUP1 PUSH1 0x40 ADD PUSH1 0x40 MSTORE SWAP1 DUP2 PUSH1 0x0 DUP3 ADD DUP1 SLOAD PUSH2 0xB63 SWAP1 PUSH2 0x12FD JUMP JUMPDEST DUP1 PUSH1 0x1F ADD PUSH1 0x20 DUP1 SWAP2 DIV MUL PUSH1 0x20 ADD PUSH1 0x40 MLOAD SWAP1 DUP2 ADD PUSH1 0x40 MSTORE DUP1 SWAP3 SWAP2 SWAP1 DUP2 DUP2 MSTORE PUSH1 0x20 ADD DUP3 DUP1 SLOAD PUSH2 0xB8F SWAP1 PUSH2 0x12FD JUMP JUMPDEST DUP1 ISZERO PUSH2 0xBDC JUMPI DUP1 PUSH1 0x1F LT PUSH2 0xBB1 JUMPI PUSH2 0x100 DUP1 DUP4 SLOAD DIV MUL DUP4 MSTORE SWAP2 PUSH1 0x20 ADD SWAP2 PUSH2 0xBDC JUMP JUMPDEST DUP3 ADD SWAP2 SWAP1 PUSH1 0x0 MSTORE PUSH1 0x20 PUSH1 0x0 KECCAK256 SWAP1 JUMPDEST DUP2 SLOAD DUP2 MSTORE SWAP1 PUSH1 0x1 ADD SWAP1 PUSH1 0x20 ADD DUP1 DUP4 GT PUSH2 0xBBF JUMPI DUP3 SWAP1 SUB PUSH1 0x1F AND DUP3 ADD SWAP2 JUMPDEST POP POP POP POP POP DUP2 MSTORE PUSH1 0x20 ADD PUSH1 0x1 DUP3 ADD SLOAD DUP2 MSTORE POP POP SWAP1 POP SWAP2 SWAP1 POP JUMP JUMPDEST TIMESTAMP PUSH1 0x2 DUP2 SWAP1 SSTORE POP JUMP JUMPDEST DUP3 DUP1 SLOAD PUSH2 0xC0B SWAP1 PUSH2 0x12FD JUMP JUMPDEST SWAP1 PUSH1 0x0 MSTORE PUSH1 0x20 PUSH1 0x0 KECCAK256 SWAP1 PUSH1 0x1F ADD PUSH1 0x20 SWAP1 DIV DUP2 ADD SWAP3 DUP3 PUSH2 0xC2D JUMPI PUSH1 0x0 DUP6 SSTORE PUSH2 0xC74 JUMP JUMPDEST DUP3 PUSH1 0x1F LT PUSH2 0xC46 JUMPI DUP1 MLOAD PUSH1 0xFF NOT AND DUP4 DUP1 ADD OR DUP6 SSTORE PUSH2 0xC74 JUMP JUMPDEST DUP3 DUP1 ADD PUSH1 0x1 ADD DUP6 SSTORE DUP3 ISZERO PUSH2 0xC74 JUMPI SWAP2 DUP3 ADD JUMPDEST DUP3 DUP2 GT ISZERO PUSH2 0xC73 JUMPI DUP3 MLOAD DUP3 SSTORE SWAP2 PUSH1 0x20 ADD SWAP2 SWAP1 PUSH1 0x1 ADD SWAP1 PUSH2 0xC58 JUMP JUMPDEST JUMPDEST POP SWAP1 POP PUSH2 0xC81 SWAP2 SWAP1 PUSH2 0xC9F JUMP JUMPDEST POP SWAP1 JUMP JUMPDEST PUSH1 0x40 MLOAD DUP1 PUSH1 0x40 ADD PUSH1 0x40 MSTORE DUP1 PUSH1 0x60 DUP2 MSTORE PUSH1 0x20 ADD PUSH1 0x0 DUP2 MSTORE POP SWAP1 JUMP JUMPDEST JUMPDEST DUP1 DUP3 GT ISZERO PUSH2 0xCB8 JUMPI PUSH1 0x0 DUP2 PUSH1 0x0 SWAP1 SSTORE POP PUSH1 0x1 ADD PUSH2 0xCA0 JUMP JUMPDEST POP SWAP1 JUMP JUMPDEST PUSH1 0x0 PUSH2 0xCCF PUSH2 0xCCA DUP5 PUSH2 0x115B JUMP JUMPDEST PUSH2 0x112A JUMP JUMPDEST SWAP1 POP DUP1 DUP4 DUP3 MSTORE PUSH1 0x20 DUP3 ADD SWAP1 POP DUP3 PUSH1 0x0 JUMPDEST DUP6 DUP2 LT ISZERO PUSH2 0xD0F JUMPI DUP2 CALLDATALOAD DUP6 ADD PUSH2 0xCF5 DUP9 DUP3 PUSH2 0xD96 JUMP JUMPDEST DUP5 MSTORE PUSH1 0x20 DUP5 ADD SWAP4 POP PUSH1 0x20 DUP4 ADD SWAP3 POP POP PUSH1 0x1 DUP2 ADD SWAP1 POP PUSH2 0xCDF JUMP JUMPDEST POP POP POP SWAP4 SWAP3 POP POP POP JUMP JUMPDEST PUSH1 0x0 PUSH2 0xD2C PUSH2 0xD27 DUP5 PUSH2 0x1187 JUMP JUMPDEST PUSH2 0x112A JUMP JUMPDEST SWAP1 POP DUP3 DUP2 MSTORE PUSH1 0x20 DUP2 ADD DUP5 DUP5 DUP5 ADD GT ISZERO PUSH2 0xD44 JUMPI PUSH1 0x0 DUP1 REVERT JUMPDEST PUSH2 0xD4F DUP5 DUP3 DUP6 PUSH2 0x12BB JUMP JUMPDEST POP SWAP4 SWAP3 POP POP POP JUMP JUMPDEST PUSH1 0x0 DUP2 CALLDATALOAD SWAP1 POP PUSH2 0xD66 DUP2 PUSH2 0x1416 JUMP JUMPDEST SWAP3 SWAP2 POP POP JUMP JUMPDEST PUSH1 0x0 DUP3 PUSH1 0x1F DUP4 ADD SLT PUSH2 0xD7D JUMPI PUSH1 0x0 DUP1 REVERT JUMPDEST DUP2 CALLDATALOAD PUSH2 0xD8D DUP5 DUP3 PUSH1 0x20 DUP7 ADD PUSH2 0xCBC JUMP JUMPDEST SWAP2 POP POP SWAP3 SWAP2 POP POP JUMP JUMPDEST PUSH1 0x0 DUP3 PUSH1 0x1F DUP4 ADD SLT PUSH2 0xDA7 JUMPI PUSH1 0x0 DUP1 REVERT JUMPDEST DUP2 CALLDATALOAD PUSH2 0xDB7 DUP5 DUP3 PUSH1 0x20 DUP7 ADD PUSH2 0xD19 JUMP JUMPDEST SWAP2 POP POP SWAP3 SWAP2 POP POP JUMP JUMPDEST PUSH1 0x0 DUP2 CALLDATALOAD SWAP1 POP PUSH2 0xDCF DUP2 PUSH2 0x142D JUMP JUMPDEST SWAP3 SWAP2 POP POP JUMP JUMPDEST PUSH1 0x0 PUSH1 0x20 DUP3 DUP5 SUB SLT ISZERO PUSH2 0xDE7 JUMPI PUSH1 0x0 DUP1 REVERT JUMPDEST PUSH1 0x0 PUSH2 0xDF5 DUP5 DUP3 DUP6 ADD PUSH2 0xD57 JUMP JUMPDEST SWAP2 POP POP SWAP3 SWAP2 POP POP JUMP JUMPDEST PUSH1 0x0 PUSH1 0x20 DUP3 DUP5 SUB SLT ISZERO PUSH2 0xE10 JUMPI PUSH1 0x0 DUP1 REVERT JUMPDEST PUSH1 0x0 DUP3 ADD CALLDATALOAD PUSH8 0xFFFFFFFFFFFFFFFF DUP2 GT ISZERO PUSH2 0xE2A JUMPI PUSH1 0x0 DUP1 REVERT JUMPDEST PUSH2 0xE36 DUP5 DUP3 DUP6 ADD PUSH2 0xD6C JUMP JUMPDEST SWAP2 POP POP SWAP3 SWAP2 POP POP JUMP JUMPDEST PUSH1 0x0 PUSH1 0x20 DUP3 DUP5 SUB SLT ISZERO PUSH2 0xE51 JUMPI PUSH1 0x0 DUP1 REVERT JUMPDEST PUSH1 0x0 PUSH2 0xE5F DUP5 DUP3 DUP6 ADD PUSH2 0xDC0 JUMP JUMPDEST SWAP2 POP POP SWAP3 SWAP2 POP POP JUMP JUMPDEST PUSH1 0x0 PUSH2 0xE74 DUP4 DUP4 PUSH2 0xF81 JUMP JUMPDEST SWAP1 POP SWAP3 SWAP2 POP POP JUMP JUMPDEST PUSH2 0xE85 DUP2 PUSH2 0x1273 JUMP JUMPDEST DUP3 MSTORE POP POP JUMP JUMPDEST PUSH1 0x0 PUSH2 0xE96 DUP3 PUSH2 0x11C7 JUMP JUMPDEST PUSH2 0xEA0 DUP2 DUP6 PUSH2 0x11EA JUMP JUMPDEST SWAP4 POP DUP4 PUSH1 0x20 DUP3 MUL DUP6 ADD PUSH2 0xEB2 DUP6 PUSH2 0x11B7 JUMP JUMPDEST DUP1 PUSH1 0x0 JUMPDEST DUP6 DUP2 LT ISZERO PUSH2 0xEEE JUMPI DUP5 DUP5 SUB DUP10 MSTORE DUP2 MLOAD PUSH2 0xECF DUP6 DUP3 PUSH2 0xE68 JUMP JUMPDEST SWAP5 POP PUSH2 0xEDA DUP4 PUSH2 0x11DD JUMP JUMPDEST SWAP3 POP PUSH1 0x20 DUP11 ADD SWAP10 POP POP PUSH1 0x1 DUP2 ADD SWAP1 POP PUSH2 0xEB6 JUMP JUMPDEST POP DUP3 SWAP8 POP DUP8 SWAP6 POP POP POP POP POP POP SWAP3 SWAP2 POP POP JUMP JUMPDEST PUSH2 0xF09 DUP2 PUSH2 0x1285 JUMP JUMPDEST DUP3 MSTORE POP POP JUMP JUMPDEST PUSH1 0x0 PUSH2 0xF1A DUP3 PUSH2 0x11D2 JUMP JUMPDEST PUSH2 0xF24 DUP2 DUP6 PUSH2 0x11FB JUMP JUMPDEST SWAP4 POP PUSH2 0xF34 DUP2 DUP6 PUSH1 0x20 DUP7 ADD PUSH2 0x12CA JUMP JUMPDEST PUSH2 0xF3D DUP2 PUSH2 0x1405 JUMP JUMPDEST DUP5 ADD SWAP2 POP POP SWAP3 SWAP2 POP POP JUMP JUMPDEST PUSH1 0x0 PUSH2 0xF53 DUP3 PUSH2 0x11D2 JUMP JUMPDEST PUSH2 0xF5D DUP2 DUP6 PUSH2 0x120C JUMP JUMPDEST SWAP4 POP PUSH2 0xF6D DUP2 DUP6 PUSH1 0x20 DUP7 ADD PUSH2 0x12CA JUMP JUMPDEST PUSH2 0xF76 DUP2 PUSH2 0x1405 JUMP JUMPDEST DUP5 ADD SWAP2 POP POP SWAP3 SWAP2 POP POP JUMP JUMPDEST PUSH1 0x0 PUSH1 0x40 DUP4 ADD PUSH1 0x0 DUP4 ADD MLOAD DUP5 DUP3 SUB PUSH1 0x0 DUP7 ADD MSTORE PUSH2 0xF9E DUP3 DUP3 PUSH2 0xF0F JUMP JUMPDEST SWAP2 POP POP PUSH1 0x20 DUP4 ADD MLOAD PUSH2 0xFB3 PUSH1 0x20 DUP7 ADD DUP3 PUSH2 0xFFB JUMP JUMPDEST POP DUP1 SWAP2 POP POP SWAP3 SWAP2 POP POP JUMP JUMPDEST PUSH1 0x0 PUSH1 0x40 DUP4 ADD PUSH1 0x0 DUP4 ADD MLOAD DUP5 DUP3 SUB PUSH1 0x0 DUP7 ADD MSTORE PUSH2 0xFDB DUP3 DUP3 PUSH2 0xF0F JUMP JUMPDEST SWAP2 POP POP PUSH1 0x20 DUP4 ADD MLOAD PUSH2 0xFF0 PUSH1 0x20 DUP7 ADD DUP3 PUSH2 0xFFB JUMP JUMPDEST POP DUP1 SWAP2 POP POP SWAP3 SWAP2 POP POP JUMP JUMPDEST PUSH2 0x1004 DUP2 PUSH2 0x12B1 JUMP JUMPDEST DUP3 MSTORE POP POP JUMP JUMPDEST PUSH2 0x1013 DUP2 PUSH2 0x12B1 JUMP JUMPDEST DUP3 MSTORE POP POP JUMP JUMPDEST PUSH1 0x0 PUSH1 0x20 DUP3 ADD SWAP1 POP PUSH2 0x102E PUSH1 0x0 DUP4 ADD DUP5 PUSH2 0xE7C JUMP JUMPDEST SWAP3 SWAP2 POP POP JUMP JUMPDEST PUSH1 0x0 PUSH1 0x20 DUP3 ADD SWAP1 POP DUP2 DUP2 SUB PUSH1 0x0 DUP4 ADD MSTORE PUSH2 0x104E DUP2 DUP5 PUSH2 0xE8B JUMP JUMPDEST SWAP1 POP SWAP3 SWAP2 POP POP JUMP JUMPDEST PUSH1 0x0 PUSH1 0x20 DUP3 ADD SWAP1 POP DUP2 DUP2 SUB PUSH1 0x0 DUP4 ADD MSTORE PUSH2 0x1070 DUP2 DUP5 PUSH2 0xF48 JUMP JUMPDEST SWAP1 POP SWAP3 SWAP2 POP POP JUMP JUMPDEST PUSH1 0x0 PUSH1 0x40 DUP3 ADD SWAP1 POP DUP2 DUP2 SUB PUSH1 0x0 DUP4 ADD MSTORE PUSH2 0x1092 DUP2 DUP6 PUSH2 0xF48 JUMP JUMPDEST SWAP1 POP PUSH2 0x10A1 PUSH1 0x20 DUP4 ADD DUP5 PUSH2 0x100A JUMP JUMPDEST SWAP4 SWAP3 POP POP POP JUMP JUMPDEST PUSH1 0x0 PUSH1 0x20 DUP3 ADD SWAP1 POP DUP2 DUP2 SUB PUSH1 0x0 DUP4 ADD MSTORE PUSH2 0x10C2 DUP2 DUP5 PUSH2 0xFBE JUMP JUMPDEST SWAP1 POP SWAP3 SWAP2 POP POP JUMP JUMPDEST PUSH1 0x0 PUSH1 0x20 DUP3 ADD SWAP1 POP PUSH2 0x10DF PUSH1 0x0 DUP4 ADD DUP5 PUSH2 0x100A JUMP JUMPDEST SWAP3 SWAP2 POP POP JUMP JUMPDEST PUSH1 0x0 PUSH1 0x80 DUP3 ADD SWAP1 POP PUSH2 0x10FA PUSH1 0x0 DUP4 ADD DUP8 PUSH2 0x100A JUMP JUMPDEST PUSH2 0x1107 PUSH1 0x20 DUP4 ADD DUP7 PUSH2 0xF00 JUMP JUMPDEST PUSH2 0x1114 PUSH1 0x40 DUP4 ADD DUP6 PUSH2 0xE7C JUMP JUMPDEST PUSH2 0x1121 PUSH1 0x60 DUP4 ADD DUP5 PUSH2 0x100A JUMP JUMPDEST SWAP6 SWAP5 POP POP POP POP POP JUMP JUMPDEST PUSH1 0x0 PUSH1 0x40 MLOAD SWAP1 POP DUP2 DUP2 ADD DUP2 DUP2 LT PUSH8 0xFFFFFFFFFFFFFFFF DUP3 GT OR ISZERO PUSH2 0x1151 JUMPI PUSH2 0x1150 PUSH2 0x13D6 JUMP JUMPDEST JUMPDEST DUP1 PUSH1 0x40 MSTORE POP SWAP2 SWAP1 POP JUMP JUMPDEST PUSH1 0x0 PUSH8 0xFFFFFFFFFFFFFFFF DUP3 GT ISZERO PUSH2 0x1176 JUMPI PUSH2 0x1175 PUSH2 0x13D6 JUMP JUMPDEST JUMPDEST PUSH1 0x20 DUP3 MUL SWAP1 POP PUSH1 0x20 DUP2 ADD SWAP1 POP SWAP2 SWAP1 POP JUMP JUMPDEST PUSH1 0x0 PUSH8 0xFFFFFFFFFFFFFFFF DUP3 GT ISZERO PUSH2 0x11A2 JUMPI PUSH2 0x11A1 PUSH2 0x13D6 JUMP JUMPDEST JUMPDEST PUSH1 0x1F NOT PUSH1 0x1F DUP4 ADD AND SWAP1 POP PUSH1 0x20 DUP2 ADD SWAP1 POP SWAP2 SWAP1 POP JUMP JUMPDEST PUSH1 0x0 DUP2 SWAP1 POP PUSH1 0x20 DUP3 ADD SWAP1 POP SWAP2 SWAP1 POP JUMP JUMPDEST PUSH1 0x0 DUP2 MLOAD SWAP1 POP SWAP2 SWAP1 POP JUMP JUMPDEST PUSH1 0x0 DUP2 MLOAD SWAP1 POP SWAP2 SWAP1 POP JUMP JUMPDEST PUSH1 0x0 PUSH1 0x20 DUP3 ADD SWAP1 POP SWAP2 SWAP1 POP JUMP JUMPDEST PUSH1 0x0 DUP3 DUP3 MSTORE PUSH1 0x20 DUP3 ADD SWAP1 POP SWAP3 SWAP2 POP POP JUMP JUMPDEST PUSH1 0x0 DUP3 DUP3 MSTORE PUSH1 0x20 DUP3 ADD SWAP1 POP SWAP3 SWAP2 POP POP JUMP JUMPDEST PUSH1 0x0 DUP3 DUP3 MSTORE PUSH1 0x20 DUP3 ADD SWAP1 POP SWAP3 SWAP2 POP POP JUMP JUMPDEST PUSH1 0x0 PUSH2 0x1228 DUP3 PUSH2 0x12B1 JUMP JUMPDEST SWAP2 POP PUSH2 0x1233 DUP4 PUSH2 0x12B1 JUMP JUMPDEST SWAP3 POP DUP3 PUSH32 0xFFFFFFFFFFFFFFFFFFFFFFFFFFFFFFFFFFFFFFFFFFFFFFFFFFFFFFFFFFFFFFFF SUB DUP3 GT ISZERO PUSH2 0x1268 JUMPI PUSH2 0x1267 PUSH2 0x1378 JUMP JUMPDEST JUMPDEST DUP3 DUP3 ADD SWAP1 POP SWAP3 SWAP2 POP POP JUMP JUMPDEST PUSH1 0x0 PUSH2 0x127E DUP3 PUSH2 0x1291 JUMP JUMPDEST SWAP1 POP SWAP2 SWAP1 POP JUMP JUMPDEST PUSH1 0x0 DUP2 ISZERO ISZERO SWAP1 POP SWAP2 SWAP1 POP JUMP JUMPDEST PUSH1 0x0 PUSH20 0xFFFFFFFFFFFFFFFFFFFFFFFFFFFFFFFFFFFFFFFF DUP3 AND SWAP1 POP SWAP2 SWAP1 POP JUMP JUMPDEST PUSH1 0x0 DUP2 SWAP1 POP SWAP2 SWAP1 POP JUMP JUMPDEST DUP3 DUP2 DUP4 CALLDATACOPY PUSH1 0x0 DUP4 DUP4 ADD MSTORE POP POP POP JUMP JUMPDEST PUSH1 0x0 JUMPDEST DUP4 DUP2 LT ISZERO PUSH2 0x12E8 JUMPI DUP1 DUP3 ADD MLOAD DUP2 DUP5 ADD MSTORE PUSH1 0x20 DUP2 ADD SWAP1 POP PUSH2 0x12CD JUMP JUMPDEST DUP4 DUP2 GT ISZERO PUSH2 0x12F7 JUMPI PUSH1 0x0 DUP5 DUP5 ADD MSTORE JUMPDEST POP POP POP POP JUMP JUMPDEST PUSH1 0x0 PUSH1 0x2 DUP3 DIV SWAP1 POP PUSH1 0x1 DUP3 AND DUP1 PUSH2 0x1315 JUMPI PUSH1 0x7F DUP3 AND SWAP2 POP JUMPDEST PUSH1 0x20 DUP3 LT DUP2 EQ ISZERO PUSH2 0x1329 JUMPI PUSH2 0x1328 PUSH2 0x13A7 JUMP JUMPDEST JUMPDEST POP SWAP2 SWAP1 POP JUMP JUMPDEST PUSH1 0x0 PUSH2 0x133A DUP3 PUSH2 0x12B1 JUMP JUMPDEST SWAP2 POP PUSH32 0xFFFFFFFFFFFFFFFFFFFFFFFFFFFFFFFFFFFFFFFFFFFFFFFFFFFFFFFFFFFFFFFF DUP3 EQ ISZERO PUSH2 0x136D JUMPI PUSH2 0x136C PUSH2 0x1378 JUMP JUMPDEST JUMPDEST PUSH1 0x1 DUP3 ADD SWAP1 POP SWAP2 SWAP1 POP JUMP JUMPDEST PUSH32 0x4E487B7100000000000000000000000000000000000000000000000000000000 PUSH1 0x0 MSTORE PUSH1 0x11 PUSH1 0x4 MSTORE PUSH1 0x24 PUSH1 0x0 REVERT JUMPDEST PUSH32 0x4E487B7100000000000000000000000000000000000000000000000000000000 PUSH1 0x0 MSTORE PUSH1 0x22 PUSH1 0x4 MSTORE PUSH1 0x24 PUSH1 0x0 REVERT JUMPDEST PUSH32 0x4E487B7100000000000000000000000000000000000000000000000000000000 PUSH1 0x0 MSTORE PUSH1 0x41 PUSH1 0x4 MSTORE PUSH1 0x24 PUSH1 0x0 REVERT JUMPDEST PUSH1 0x0 PUSH1 0x1F NOT PUSH1 0x1F DUP4 ADD AND SWAP1 POP SWAP2 SWAP1 POP JUMP JUMPDEST PUSH2 0x141F DUP2 PUSH2 0x1273 JUMP JUMPDEST DUP2 EQ PUSH2 0x142A JUMPI PUSH1 0x0 DUP1 REVERT JUMPDEST POP JUMP JUMPDEST PUSH2 0x1436 DUP2 PUSH2 0x12B1 JUMP JUMPDEST DUP2 EQ PUSH2 0x1441 JUMPI PUSH1 0x0 DUP1 REVERT JUMPDEST POP JUMP INVALID LOG2 PUSH5 0x6970667358 0x22 SLT KECCAK256 NOT 0xDF PC SLT POP SWAP6 EXP 0xD8 MULMOD CREATE2 PUSH21 0x33849780CE70B84029B1A804454ACCDDC566CDAD05 PUSH5 0x736F6C6343 STOP ADDMOD STOP STOP CALLER LOG2 PUSH5 0x6970667358 0x22 SLT KECCAK256 0xF8 0xE8 PUSH13 0x8938F11CE4919E1D91843BE6F9 0xF9 0xCE 0xAF 0xD1 0x2F PUSH30 0xB7EDC0CC574D92823CF164736F6C63430008000033000000000000000000 "
				},
				"gasEstimates": {
					"creation": {
						"codeDepositCost": "3202400",
						"executionCost": "3547",
						"totalCost": "3205947"
					},
					"external": {
						"ballotArray(uint256)": "2511",
						"bfCreateBallot(uint256,string[])": "infinite",
						"bfGetCreatorBallot(uint256)": "infinite",
						"bfGetNumOfProposals(uint256)": "infinite",
						"bfGetProposalStructure(uint256,uint256)": "infinite",
						"bfGetProposals(uint256)": "infinite",
						"bfGetStatus(uint256)": "infinite",
						"bfGiveRightToVote(uint256,address)": "infinite",
						"bfSetStatus(uint256,uint256)": "infinite",
						"bfVote(uint256,uint256)": "infinite",
						"bfWinningName(uint256)": "infinite",
						"bfWinningProposal(uint256)": "infinite",
						"createBallot(string[])": "infinite",
						"createBallotContract()": "infinite",
						"getCreatorBallot()": "1268",
						"getEndDate()": "1248",
						"getEndDate(uint256)": "infinite",
						"getProposalStructure(uint256)": "infinite",
						"getProposals()": "infinite",
						"getStartDate()": "1248",
						"getStartDate(uint256)": "infinite",
						"getStatus()": "1227",
						"getnumOfProposals()": "1250",
						"giveRightToVote(address)": "23386",
						"proposals(uint256)": "infinite",
						"setEndDate()": "20269",
						"setEndDate(uint256)": "infinite",
						"setStatus(uint256)": "20465",
						"vote(uint256)": "infinite",
						"voters(address)": "infinite",
						"winnerName()": "infinite",
						"winningProposal()": "infinite"
					}
				},
				"methodIdentifiers": {
					"ballotArray(uint256)": "643cb096",
					"bfCreateBallot(uint256,string[])": "735d8b87",
					"bfGetCreatorBallot(uint256)": "2a8cdc4c",
					"bfGetNumOfProposals(uint256)": "e93303a6",
					"bfGetProposalStructure(uint256,uint256)": "eda94c7b",
					"bfGetProposals(uint256)": "08225266",
					"bfGetStatus(uint256)": "8586d33e",
					"bfGiveRightToVote(uint256,address)": "c285c0d3",
					"bfSetStatus(uint256,uint256)": "b434b42e",
					"bfVote(uint256,uint256)": "627c2367",
					"bfWinningName(uint256)": "763fcb98",
					"bfWinningProposal(uint256)": "d7558d4b",
					"createBallot(string[])": "836bc692",
					"createBallotContract()": "962fafd0",
					"getCreatorBallot()": "7a16fcb0",
					"getEndDate()": "b1356488",
					"getEndDate(uint256)": "5c6b047a",
					"getProposalStructure(uint256)": "e9d6c6da",
					"getProposals()": "62564c48",
					"getStartDate()": "78f305c6",
					"getStartDate(uint256)": "ba92763a",
					"getStatus()": "4e69d560",
					"getnumOfProposals()": "0a82dcb1",
					"giveRightToVote(address)": "9e7b8d61",
					"proposals(uint256)": "013cf08b",
					"setEndDate()": "86278e77",
					"setEndDate(uint256)": "3784f000",
					"setStatus(uint256)": "69ba1a75",
					"vote(uint256)": "0121b93f",
					"voters(address)": "a3ec138d",
					"winnerName()": "e2ba53f0",
					"winningProposal()": "609ff1bd"
				}
			},
			"storageLayout": {
				"storage": [
					{
						"astId": 3,
						"contract": "contracts/visov_durku.sol:BallotFactory",
						"label": "creator",
						"offset": 0,
						"slot": "0",
						"type": "t_address"
					},
					{
						"astId": 5,
						"contract": "contracts/visov_durku.sol:BallotFactory",
						"label": "status",
						"offset": 0,
						"slot": "1",
						"type": "t_uint256"
					},
					{
						"astId": 7,
						"contract": "contracts/visov_durku.sol:BallotFactory",
						"label": "startDate",
						"offset": 0,
						"slot": "2",
						"type": "t_uint256"
					},
					{
						"astId": 9,
						"contract": "contracts/visov_durku.sol:BallotFactory",
						"label": "endDate",
						"offset": 0,
						"slot": "3",
						"type": "t_uint256"
					},
					{
						"astId": 11,
						"contract": "contracts/visov_durku.sol:BallotFactory",
						"label": "numOfProposals",
						"offset": 0,
						"slot": "4",
						"type": "t_uint256"
					},
					{
						"astId": 30,
						"contract": "contracts/visov_durku.sol:BallotFactory",
						"label": "voters",
						"offset": 0,
						"slot": "5",
						"type": "t_mapping(t_address,t_struct(Voter)20_storage)"
					},
					{
						"astId": 34,
						"contract": "contracts/visov_durku.sol:BallotFactory",
						"label": "proposals",
						"offset": 0,
						"slot": "6",
						"type": "t_array(t_struct(Proposal)25_storage)dyn_storage"
					},
					{
						"astId": 321,
						"contract": "contracts/visov_durku.sol:BallotFactory",
						"label": "ballotArray",
						"offset": 0,
						"slot": "7",
						"type": "t_array(t_contract(Ballot)312)dyn_storage"
					}
				],
				"types": {
					"t_address": {
						"encoding": "inplace",
						"label": "address",
						"numberOfBytes": "20"
					},
					"t_array(t_contract(Ballot)312)dyn_storage": {
						"base": "t_contract(Ballot)312",
						"encoding": "dynamic_array",
						"label": "contract Ballot[]",
						"numberOfBytes": "32"
					},
					"t_array(t_struct(Proposal)25_storage)dyn_storage": {
						"base": "t_struct(Proposal)25_storage",
						"encoding": "dynamic_array",
						"label": "struct Ballot.Proposal[]",
						"numberOfBytes": "32"
					},
					"t_bool": {
						"encoding": "inplace",
						"label": "bool",
						"numberOfBytes": "1"
					},
					"t_contract(Ballot)312": {
						"encoding": "inplace",
						"label": "contract Ballot",
						"numberOfBytes": "20"
					},
					"t_mapping(t_address,t_struct(Voter)20_storage)": {
						"encoding": "mapping",
						"key": "t_address",
						"label": "mapping(address => struct Ballot.Voter)",
						"numberOfBytes": "32",
						"value": "t_struct(Voter)20_storage"
					},
					"t_string_storage": {
						"encoding": "bytes",
						"label": "string",
						"numberOfBytes": "32"
					},
					"t_struct(Proposal)25_storage": {
						"encoding": "inplace",
						"label": "struct Ballot.Proposal",
						"members": [
							{
								"astId": 22,
								"contract": "contracts/visov_durku.sol:BallotFactory",
								"label": "name",
								"offset": 0,
								"slot": "0",
								"type": "t_string_storage"
							},
							{
								"astId": 24,
								"contract": "contracts/visov_durku.sol:BallotFactory",
								"label": "voteCount",
								"offset": 0,
								"slot": "1",
								"type": "t_uint256"
							}
						],
						"numberOfBytes": "64"
					},
					"t_struct(Voter)20_storage": {
						"encoding": "inplace",
						"label": "struct Ballot.Voter",
						"members": [
							{
								"astId": 13,
								"contract": "contracts/visov_durku.sol:BallotFactory",
								"label": "weight",
								"offset": 0,
								"slot": "0",
								"type": "t_uint256"
							},
							{
								"astId": 15,
								"contract": "contracts/visov_durku.sol:BallotFactory",
								"label": "voted",
								"offset": 0,
								"slot": "1",
								"type": "t_bool"
							},
							{
								"astId": 17,
								"contract": "contracts/visov_durku.sol:BallotFactory",
								"label": "delegate",
								"offset": 1,
								"slot": "1",
								"type": "t_address"
							},
							{
								"astId": 19,
								"contract": "contracts/visov_durku.sol:BallotFactory",
								"label": "vote",
								"offset": 0,
								"slot": "2",
								"type": "t_uint256"
							}
						],
						"numberOfBytes": "96"
					},
					"t_uint256": {
						"encoding": "inplace",
						"label": "uint256",
						"numberOfBytes": "32"
					}
				}
			},
			"userdoc": {
				"kind": "user",
				"methods": {},
				"version": 1
			}
		}
	}
}