{
	"contracts/prop_test.sol": {
		"Ballot": {
			"abi": [
				{
					"inputs": [
						{
							"internalType": "string[]",
							"name": "proposalNames",
							"type": "string[]"
						}
					],
					"name": "createBallot",
					"outputs": [],
					"stateMutability": "nonpayable",
					"type": "function"
				},
				{
					"inputs": [],
					"name": "getCreatorBallot",
					"outputs": [
						{
							"internalType": "address",
							"name": "",
							"type": "address"
						}
					],
					"stateMutability": "view",
					"type": "function"
				},
				{
					"inputs": [],
					"name": "getEndDate",
					"outputs": [
						{
							"internalType": "uint256",
							"name": "",
							"type": "uint256"
						}
					],
					"stateMutability": "view",
					"type": "function"
				},
				{
					"inputs": [
						{
							"internalType": "uint256",
							"name": "_proposalId",
							"type": "uint256"
						}
					],
					"name": "getProposalStructure",
					"outputs": [
						{
							"components": [
								{
									"internalType": "string",
									"name": "name",
									"type": "string"
								},
								{
									"internalType": "uint256",
									"name": "voteCount",
									"type": "uint256"
								}
							],
							"internalType": "struct Ballot.Proposal",
							"name": "",
							"type": "tuple"
						}
					],
					"stateMutability": "view",
					"type": "function"
				},
				{
					"inputs": [],
					"name": "getProposals",
					"outputs": [
						{
							"components": [
								{
									"internalType": "string",
									"name": "name",
									"type": "string"
								},
								{
									"internalType": "uint256",
									"name": "voteCount",
									"type": "uint256"
								}
							],
							"internalType": "struct Ballot.Proposal[]",
							"name": "",
							"type": "tuple[]"
						}
					],
					"stateMutability": "view",
					"type": "function"
				},
				{
					"inputs": [],
					"name": "getStartDate",
					"outputs": [
						{
							"internalType": "uint256",
							"name": "",
							"type": "uint256"
						}
					],
					"stateMutability": "view",
					"type": "function"
				},
				{
					"inputs": [],
					"name": "getStatus",
					"outputs": [
						{
							"internalType": "uint256",
							"name": "",
							"type": "uint256"
						}
					],
					"stateMutability": "view",
					"type": "function"
				},
				{
					"inputs": [],
					"name": "getnumOfProposals",
					"outputs": [
						{
							"internalType": "uint256",
							"name": "",
							"type": "uint256"
						}
					],
					"stateMutability": "view",
					"type": "function"
				},
				{
					"inputs": [
						{
							"internalType": "address",
							"name": "voter",
							"type": "address"
						}
					],
					"name": "giveRightToVote",
					"outputs": [],
					"stateMutability": "nonpayable",
					"type": "function"
				},
				{
					"inputs": [
						{
							"internalType": "uint256",
							"name": "",
							"type": "uint256"
						}
					],
					"name": "proposals",
					"outputs": [
						{
							"internalType": "string",
							"name": "name",
							"type": "string"
						},
						{
							"internalType": "uint256",
							"name": "voteCount",
							"type": "uint256"
						}
					],
					"stateMutability": "view",
					"type": "function"
				},
				{
					"inputs": [],
					"name": "setEndDate",
					"outputs": [],
					"stateMutability": "nonpayable",
					"type": "function"
				},
				{
					"inputs": [
						{
							"internalType": "uint256",
							"name": "_status",
							"type": "uint256"
						}
					],
					"name": "setStatus",
					"outputs": [],
					"stateMutability": "nonpayable",
					"type": "function"
				},
				{
					"inputs": [
						{
							"internalType": "uint256",
							"name": "proposal",
							"type": "uint256"
						}
					],
					"name": "vote",
					"outputs": [],
					"stateMutability": "nonpayable",
					"type": "function"
				},
				{
					"inputs": [
						{
							"internalType": "address",
							"name": "",
							"type": "address"
						}
					],
					"name": "voters",
					"outputs": [
						{
							"internalType": "uint256",
							"name": "weight",
							"type": "uint256"
						},
						{
							"internalType": "bool",
							"name": "voted",
							"type": "bool"
						},
						{
							"internalType": "address",
							"name": "delegate",
							"type": "address"
						},
						{
							"internalType": "uint256",
							"name": "vote",
							"type": "uint256"
						}
					],
					"stateMutability": "view",
					"type": "function"
				},
				{
					"inputs": [],
					"name": "winnerName",
					"outputs": [
						{
							"internalType": "string",
							"name": "winnerName",
							"type": "string"
						}
					],
					"stateMutability": "view",
					"type": "function"
				},
				{
					"inputs": [],
					"name": "winningProposal",
					"outputs": [
						{
							"internalType": "uint256",
							"name": "winningProposal",
							"type": "uint256"
						}
					],
					"stateMutability": "view",
					"type": "function"
				}
			],
			"devdoc": {
				"kind": "dev",
				"methods": {},
				"version": 1
			},
			"evm": {
				"assembly": "    /* \"contracts/prop_test.sol\":60:4772  contract Ballot {\r... */\n  mstore(0x40, 0x80)\n  callvalue\n  dup1\n  iszero\n  tag_1\n  jumpi\n  0x00\n  dup1\n  revert\ntag_1:\n  pop\n  dataSize(sub_0)\n  dup1\n  dataOffset(sub_0)\n  0x00\n  codecopy\n  0x00\n  return\nstop\n\nsub_0: assembly {\n        /* \"contracts/prop_test.sol\":60:4772  contract Ballot {\r... */\n      mstore(0x40, 0x80)\n      callvalue\n      dup1\n      iszero\n      tag_1\n      jumpi\n      0x00\n      dup1\n      revert\n    tag_1:\n      pop\n      jumpi(tag_2, lt(calldatasize, 0x04))\n      shr(0xe0, calldataload(0x00))\n      dup1\n      0x7a16fcb0\n      gt\n      tag_19\n      jumpi\n      dup1\n      0xa3ec138d\n      gt\n      tag_20\n      jumpi\n      dup1\n      0xa3ec138d\n      eq\n      tag_15\n      jumpi\n      dup1\n      0xb1356488\n      eq\n      tag_16\n      jumpi\n      dup1\n      0xe2ba53f0\n      eq\n      tag_17\n      jumpi\n      dup1\n      0xe9d6c6da\n      eq\n      tag_18\n      jumpi\n      jump(tag_2)\n    tag_20:\n      dup1\n      0x7a16fcb0\n      eq\n      tag_11\n      jumpi\n      dup1\n      0x836bc692\n      eq\n      tag_12\n      jumpi\n      dup1\n      0x86278e77\n      eq\n      tag_13\n      jumpi\n      dup1\n      0x9e7b8d61\n      eq\n      tag_14\n      jumpi\n      jump(tag_2)\n    tag_19:\n      dup1\n      0x609ff1bd\n      gt\n      tag_21\n      jumpi\n      dup1\n      0x609ff1bd\n      eq\n      tag_7\n      jumpi\n      dup1\n      0x62564c48\n      eq\n      tag_8\n      jumpi\n      dup1\n      0x69ba1a75\n      eq\n      tag_9\n      jumpi\n      dup1\n      0x78f305c6\n      eq\n      tag_10\n      jumpi\n      jump(tag_2)\n    tag_21:\n      dup1\n      0x0121b93f\n      eq\n      tag_3\n      jumpi\n      dup1\n      0x013cf08b\n      eq\n      tag_4\n      jumpi\n      dup1\n      0x0a82dcb1\n      eq\n      tag_5\n      jumpi\n      dup1\n      0x4e69d560\n      eq\n      tag_6\n      jumpi\n    tag_2:\n      0x00\n      dup1\n      revert\n        /* \"contracts/prop_test.sol\":2287:2676  function vote(uint proposal) public {\r... */\n    tag_3:\n      tag_22\n      0x04\n      dup1\n      calldatasize\n      sub\n      dup2\n      add\n      swap1\n      tag_23\n      swap2\n      swap1\n      tag_24\n      jump\t// in\n    tag_23:\n      tag_25\n      jump\t// in\n    tag_22:\n      stop\n        /* \"contracts/prop_test.sol\":888:915  Proposal[] public proposals */\n    tag_4:\n      tag_26\n      0x04\n      dup1\n      calldatasize\n      sub\n      dup2\n      add\n      swap1\n      tag_27\n      swap2\n      swap1\n      tag_24\n      jump\t// in\n    tag_27:\n      tag_28\n      jump\t// in\n    tag_26:\n      mload(0x40)\n      tag_29\n      swap3\n      swap2\n      swap1\n      tag_30\n      jump\t// in\n    tag_29:\n      mload(0x40)\n      dup1\n      swap2\n      sub\n      swap1\n      return\n        /* \"contracts/prop_test.sol\":3886:3980  function getnumOfProposals() public view returns(uint){\r... */\n    tag_5:\n      tag_31\n      tag_32\n      jump\t// in\n    tag_31:\n      mload(0x40)\n      tag_33\n      swap2\n      swap1\n      tag_34\n      jump\t// in\n    tag_33:\n      mload(0x40)\n      dup1\n      swap2\n      sub\n      swap1\n      return\n        /* \"contracts/prop_test.sol\":3766:3844  function getStatus() public view returns(uint){\r... */\n    tag_6:\n      tag_35\n      tag_36\n      jump\t// in\n    tag_35:\n      mload(0x40)\n      tag_37\n      swap2\n      swap1\n      tag_34\n      jump\t// in\n    tag_37:\n      mload(0x40)\n      dup1\n      swap2\n      sub\n      swap1\n      return\n        /* \"contracts/prop_test.sol\":2684:3038  function winningProposal() public view returns (uint winningProposal){\r... */\n    tag_7:\n      tag_38\n      tag_39\n      jump\t// in\n    tag_38:\n      mload(0x40)\n      tag_40\n      swap2\n      swap1\n      tag_34\n      jump\t// in\n    tag_40:\n      mload(0x40)\n      dup1\n      swap2\n      sub\n      swap1\n      return\n        /* \"contracts/prop_test.sol\":4189:4286  function getProposals() public view returns(Proposal[] memory){\r... */\n    tag_8:\n      tag_41\n      tag_42\n      jump\t// in\n    tag_41:\n      mload(0x40)\n      tag_43\n      swap2\n      swap1\n      tag_44\n      jump\t// in\n    tag_43:\n      mload(0x40)\n      dup1\n      swap2\n      sub\n      swap1\n      return\n        /* \"contracts/prop_test.sol\":3649:3723  function setStatus(uint _status) public{\r... */\n    tag_9:\n      tag_45\n      0x04\n      dup1\n      calldatasize\n      sub\n      dup2\n      add\n      swap1\n      tag_46\n      swap2\n      swap1\n      tag_24\n      jump\t// in\n    tag_46:\n      tag_47\n      jump\t// in\n    tag_45:\n      stop\n        /* \"contracts/prop_test.sol\":4451:4535  function getStartDate() public view returns(uint){\r... */\n    tag_10:\n      tag_48\n      tag_49\n      jump\t// in\n    tag_48:\n      mload(0x40)\n      tag_50\n      swap2\n      swap1\n      tag_34\n      jump\t// in\n    tag_50:\n      mload(0x40)\n      dup1\n      swap2\n      sub\n      swap1\n      return\n        /* \"contracts/prop_test.sol\":3517:3606  function getCreatorBallot() public view returns(address){\r... */\n    tag_11:\n      tag_51\n      tag_52\n      jump\t// in\n    tag_51:\n      mload(0x40)\n      tag_53\n      swap2\n      swap1\n      tag_54\n      jump\t// in\n    tag_53:\n      mload(0x40)\n      dup1\n      swap2\n      sub\n      swap1\n      return\n        /* \"contracts/prop_test.sol\":924:1664  function createBallot(string[] memory proposalNames) public {\r... */\n    tag_12:\n      tag_55\n      0x04\n      dup1\n      calldatasize\n      sub\n      dup2\n      add\n      swap1\n      tag_56\n      swap2\n      swap1\n      tag_57\n      jump\t// in\n    tag_56:\n      tag_58\n      jump\t// in\n    tag_55:\n      stop\n        /* \"contracts/prop_test.sol\":4577:4649  function setEndDate() public{\r... */\n    tag_13:\n      tag_59\n      tag_60\n      jump\t// in\n    tag_59:\n      stop\n        /* \"contracts/prop_test.sol\":1672:2250  function giveRightToVote(address voter) public {\r... */\n    tag_14:\n      tag_61\n      0x04\n      dup1\n      calldatasize\n      sub\n      dup2\n      add\n      swap1\n      tag_62\n      swap2\n      swap1\n      tag_63\n      jump\t// in\n    tag_62:\n      tag_64\n      jump\t// in\n    tag_61:\n      stop\n        /* \"contracts/prop_test.sol\":783:822  mapping(address => Voter) public voters */\n    tag_15:\n      tag_65\n      0x04\n      dup1\n      calldatasize\n      sub\n      dup2\n      add\n      swap1\n      tag_66\n      swap2\n      swap1\n      tag_63\n      jump\t// in\n    tag_66:\n      tag_67\n      jump\t// in\n    tag_65:\n      mload(0x40)\n      tag_68\n      swap5\n      swap4\n      swap3\n      swap2\n      swap1\n      tag_69\n      jump\t// in\n    tag_68:\n      mload(0x40)\n      dup1\n      swap2\n      sub\n      swap1\n      return\n        /* \"contracts/prop_test.sol\":4689:4769  function getEndDate() public view returns(uint){\r... */\n    tag_16:\n      tag_70\n      tag_71\n      jump\t// in\n    tag_70:\n      mload(0x40)\n      tag_72\n      swap2\n      swap1\n      tag_34\n      jump\t// in\n    tag_72:\n      mload(0x40)\n      dup1\n      swap2\n      sub\n      swap1\n      return\n        /* \"contracts/prop_test.sol\":3207:3345  function winnerName() public view returns(string memory winnerName)\r... */\n    tag_17:\n      tag_73\n      tag_74\n      jump\t// in\n    tag_73:\n      mload(0x40)\n      tag_75\n      swap2\n      swap1\n      tag_76\n      jump\t// in\n    tag_75:\n      mload(0x40)\n      dup1\n      swap2\n      sub\n      swap1\n      return\n        /* \"contracts/prop_test.sol\":4022:4154  function getProposalStructure(uint _proposalId) public view returns(Proposal memory){\r... */\n    tag_18:\n      tag_77\n      0x04\n      dup1\n      calldatasize\n      sub\n      dup2\n      add\n      swap1\n      tag_78\n      swap2\n      swap1\n      tag_24\n      jump\t// in\n    tag_78:\n      tag_79\n      jump\t// in\n    tag_77:\n      mload(0x40)\n      tag_80\n      swap2\n      swap1\n      tag_81\n      jump\t// in\n    tag_80:\n      mload(0x40)\n      dup1\n      swap2\n      sub\n      swap1\n      return\n        /* \"contracts/prop_test.sol\":2287:2676  function vote(uint proposal) public {\r... */\n    tag_25:\n        /* \"contracts/prop_test.sol\":2334:2354  Voter storage sender */\n      0x00\n        /* \"contracts/prop_test.sol\":2357:2363  voters */\n      0x05\n        /* \"contracts/prop_test.sol\":2357:2375  voters[msg.sender] */\n      0x00\n        /* \"contracts/prop_test.sol\":2364:2374  msg.sender */\n      caller\n        /* \"contracts/prop_test.sol\":2357:2375  voters[msg.sender] */\n      0xffffffffffffffffffffffffffffffffffffffff\n      and\n      0xffffffffffffffffffffffffffffffffffffffff\n      and\n      dup2\n      mstore\n      0x20\n      add\n      swap1\n      dup2\n      mstore\n      0x20\n      add\n      0x00\n      keccak256\n        /* \"contracts/prop_test.sol\":2334:2375  Voter storage sender = voters[msg.sender] */\n      swap1\n      pop\n        /* \"contracts/prop_test.sol\":2395:2401  sender */\n      dup1\n        /* \"contracts/prop_test.sol\":2395:2407  sender.voted */\n      0x01\n      add\n      0x00\n      swap1\n      sload\n      swap1\n      0x0100\n      exp\n      swap1\n      div\n      0xff\n      and\n        /* \"contracts/prop_test.sol\":2394:2407  !sender.voted */\n      iszero\n        /* \"contracts/prop_test.sol\":2386:2408  require(!sender.voted) */\n      tag_83\n      jumpi\n      0x00\n      dup1\n      revert\n    tag_83:\n        /* \"contracts/prop_test.sol\":2434:2438  true */\n      0x01\n        /* \"contracts/prop_test.sol\":2419:2425  sender */\n      dup2\n        /* \"contracts/prop_test.sol\":2419:2431  sender.voted */\n      0x01\n      add\n      0x00\n        /* \"contracts/prop_test.sol\":2419:2438  sender.voted = true */\n      0x0100\n      exp\n      dup2\n      sload\n      dup2\n      0xff\n      mul\n      not\n      and\n      swap1\n      dup4\n      iszero\n      iszero\n      mul\n      or\n      swap1\n      sstore\n      pop\n        /* \"contracts/prop_test.sol\":2463:2471  proposal */\n      dup2\n        /* \"contracts/prop_test.sol\":2449:2455  sender */\n      dup2\n        /* \"contracts/prop_test.sol\":2449:2460  sender.vote */\n      0x02\n      add\n        /* \"contracts/prop_test.sol\":2449:2471  sender.vote = proposal */\n      dup2\n      swap1\n      sstore\n      pop\n        /* \"contracts/prop_test.sol\":2655:2661  sender */\n      dup1\n        /* \"contracts/prop_test.sol\":2655:2668  sender.weight */\n      0x00\n      add\n      sload\n        /* \"contracts/prop_test.sol\":2622:2631  proposals */\n      0x06\n        /* \"contracts/prop_test.sol\":2632:2640  proposal */\n      dup4\n        /* \"contracts/prop_test.sol\":2622:2641  proposals[proposal] */\n      dup2\n      sload\n      dup2\n      lt\n      tag_84\n      jumpi\n      mstore(0x00, 0x4e487b7100000000000000000000000000000000000000000000000000000000)\n      mstore(0x04, 0x32)\n      revert(0x00, 0x24)\n    tag_84:\n      swap1\n      0x00\n      mstore\n      keccak256(0x00, 0x20)\n      swap1\n      0x02\n      mul\n      add\n        /* \"contracts/prop_test.sol\":2622:2651  proposals[proposal].voteCount */\n      0x01\n      add\n      0x00\n        /* \"contracts/prop_test.sol\":2622:2668  proposals[proposal].voteCount += sender.weight */\n      dup3\n      dup3\n      sload\n      tag_86\n      swap2\n      swap1\n      tag_87\n      jump\t// in\n    tag_86:\n      swap3\n      pop\n      pop\n      dup2\n      swap1\n      sstore\n      pop\n        /* \"contracts/prop_test.sol\":2287:2676  function vote(uint proposal) public {\r... */\n      pop\n      pop\n      jump\t// out\n        /* \"contracts/prop_test.sol\":888:915  Proposal[] public proposals */\n    tag_28:\n      0x06\n      dup2\n      dup2\n      sload\n      dup2\n      lt\n      tag_88\n      jumpi\n      0x00\n      dup1\n      revert\n    tag_88:\n      swap1\n      0x00\n      mstore\n      keccak256(0x00, 0x20)\n      swap1\n      0x02\n      mul\n      add\n      0x00\n      swap2\n      pop\n      swap1\n      pop\n      dup1\n      0x00\n      add\n      dup1\n      sload\n      tag_90\n      swap1\n      tag_91\n      jump\t// in\n    tag_90:\n      dup1\n      0x1f\n      add\n      0x20\n      dup1\n      swap2\n      div\n      mul\n      0x20\n      add\n      mload(0x40)\n      swap1\n      dup2\n      add\n      0x40\n      mstore\n      dup1\n      swap3\n      swap2\n      swap1\n      dup2\n      dup2\n      mstore\n      0x20\n      add\n      dup3\n      dup1\n      sload\n      tag_92\n      swap1\n      tag_91\n      jump\t// in\n    tag_92:\n      dup1\n      iszero\n      tag_93\n      jumpi\n      dup1\n      0x1f\n      lt\n      tag_94\n      jumpi\n      0x0100\n      dup1\n      dup4\n      sload\n      div\n      mul\n      dup4\n      mstore\n      swap2\n      0x20\n      add\n      swap2\n      jump(tag_93)\n    tag_94:\n      dup3\n      add\n      swap2\n      swap1\n      0x00\n      mstore\n      keccak256(0x00, 0x20)\n      swap1\n    tag_95:\n      dup2\n      sload\n      dup2\n      mstore\n      swap1\n      0x01\n      add\n      swap1\n      0x20\n      add\n      dup1\n      dup4\n      gt\n      tag_95\n      jumpi\n      dup3\n      swap1\n      sub\n      0x1f\n      and\n      dup3\n      add\n      swap2\n    tag_93:\n      pop\n      pop\n      pop\n      pop\n      pop\n      swap1\n      dup1\n      0x01\n      add\n      sload\n      swap1\n      pop\n      dup3\n      jump\t// out\n        /* \"contracts/prop_test.sol\":3886:3980  function getnumOfProposals() public view returns(uint){\r... */\n    tag_32:\n        /* \"contracts/prop_test.sol\":3935:3939  uint */\n      0x00\n        /* \"contracts/prop_test.sol\":3958:3972  numOfProposals */\n      sload(0x04)\n        /* \"contracts/prop_test.sol\":3951:3972  return numOfProposals */\n      swap1\n      pop\n        /* \"contracts/prop_test.sol\":3886:3980  function getnumOfProposals() public view returns(uint){\r... */\n      swap1\n      jump\t// out\n        /* \"contracts/prop_test.sol\":3766:3844  function getStatus() public view returns(uint){\r... */\n    tag_36:\n        /* \"contracts/prop_test.sol\":3807:3811  uint */\n      0x00\n        /* \"contracts/prop_test.sol\":3830:3836  status */\n      sload(0x01)\n        /* \"contracts/prop_test.sol\":3823:3836  return status */\n      swap1\n      pop\n        /* \"contracts/prop_test.sol\":3766:3844  function getStatus() public view returns(uint){\r... */\n      swap1\n      jump\t// out\n        /* \"contracts/prop_test.sol\":2684:3038  function winningProposal() public view returns (uint winningProposal){\r... */\n    tag_39:\n        /* \"contracts/prop_test.sol\":2732:2752  uint winningProposal */\n      0x00\n        /* \"contracts/prop_test.sol\":2764:2785  uint winningVoteCount */\n      dup1\n        /* \"contracts/prop_test.sol\":2788:2789  0 */\n      0x00\n        /* \"contracts/prop_test.sol\":2764:2789  uint winningVoteCount = 0 */\n      swap1\n      pop\n        /* \"contracts/prop_test.sol\":2805:2811  uint p */\n      0x00\n        /* \"contracts/prop_test.sol\":2800:3031  for (uint p = 0; p < proposals.length; p++) {\r... */\n    tag_99:\n        /* \"contracts/prop_test.sol\":2821:2830  proposals */\n      0x06\n        /* \"contracts/prop_test.sol\":2821:2837  proposals.length */\n      dup1\n      sload\n      swap1\n      pop\n        /* \"contracts/prop_test.sol\":2817:2818  p */\n      dup2\n        /* \"contracts/prop_test.sol\":2817:2837  p < proposals.length */\n      lt\n        /* \"contracts/prop_test.sol\":2800:3031  for (uint p = 0; p < proposals.length; p++) {\r... */\n      iszero\n      tag_100\n      jumpi\n        /* \"contracts/prop_test.sol\":2888:2904  winningVoteCount */\n      dup2\n        /* \"contracts/prop_test.sol\":2863:2872  proposals */\n      0x06\n        /* \"contracts/prop_test.sol\":2873:2874  p */\n      dup3\n        /* \"contracts/prop_test.sol\":2863:2875  proposals[p] */\n      dup2\n      sload\n      dup2\n      lt\n      tag_102\n      jumpi\n      mstore(0x00, 0x4e487b7100000000000000000000000000000000000000000000000000000000)\n      mstore(0x04, 0x32)\n      revert(0x00, 0x24)\n    tag_102:\n      swap1\n      0x00\n      mstore\n      keccak256(0x00, 0x20)\n      swap1\n      0x02\n      mul\n      add\n        /* \"contracts/prop_test.sol\":2863:2885  proposals[p].voteCount */\n      0x01\n      add\n      sload\n        /* \"contracts/prop_test.sol\":2863:2904  proposals[p].voteCount > winningVoteCount */\n      gt\n        /* \"contracts/prop_test.sol\":2859:3020  if (proposals[p].voteCount > winningVoteCount) {\r... */\n      iszero\n      tag_104\n      jumpi\n        /* \"contracts/prop_test.sol\":2944:2953  proposals */\n      0x06\n        /* \"contracts/prop_test.sol\":2954:2955  p */\n      dup2\n        /* \"contracts/prop_test.sol\":2944:2956  proposals[p] */\n      dup2\n      sload\n      dup2\n      lt\n      tag_105\n      jumpi\n      mstore(0x00, 0x4e487b7100000000000000000000000000000000000000000000000000000000)\n      mstore(0x04, 0x32)\n      revert(0x00, 0x24)\n    tag_105:\n      swap1\n      0x00\n      mstore\n      keccak256(0x00, 0x20)\n      swap1\n      0x02\n      mul\n      add\n        /* \"contracts/prop_test.sol\":2944:2966  proposals[p].voteCount */\n      0x01\n      add\n      sload\n        /* \"contracts/prop_test.sol\":2925:2966  winningVoteCount = proposals[p].voteCount */\n      swap2\n      pop\n        /* \"contracts/prop_test.sol\":3003:3004  p */\n      dup1\n        /* \"contracts/prop_test.sol\":2985:3004  winningProposal = p */\n      swap3\n      pop\n        /* \"contracts/prop_test.sol\":2859:3020  if (proposals[p].voteCount > winningVoteCount) {\r... */\n    tag_104:\n        /* \"contracts/prop_test.sol\":2839:2842  p++ */\n      dup1\n      dup1\n      tag_107\n      swap1\n      tag_108\n      jump\t// in\n    tag_107:\n      swap2\n      pop\n      pop\n        /* \"contracts/prop_test.sol\":2800:3031  for (uint p = 0; p < proposals.length; p++) {\r... */\n      jump(tag_99)\n    tag_100:\n      pop\n        /* \"contracts/prop_test.sol\":2684:3038  function winningProposal() public view returns (uint winningProposal){\r... */\n      pop\n      swap1\n      jump\t// out\n        /* \"contracts/prop_test.sol\":4189:4286  function getProposals() public view returns(Proposal[] memory){\r... */\n    tag_42:\n        /* \"contracts/prop_test.sol\":4233:4250  Proposal[] memory */\n      0x60\n        /* \"contracts/prop_test.sol\":4269:4278  proposals */\n      0x06\n        /* \"contracts/prop_test.sol\":4262:4278  return proposals */\n      dup1\n      sload\n      dup1\n      0x20\n      mul\n      0x20\n      add\n      mload(0x40)\n      swap1\n      dup2\n      add\n      0x40\n      mstore\n      dup1\n      swap3\n      swap2\n      swap1\n      dup2\n      dup2\n      mstore\n      0x20\n      add\n      0x00\n      swap1\n    tag_110:\n      dup3\n      dup3\n      lt\n      iszero\n      tag_111\n      jumpi\n      dup4\n      dup3\n      swap1\n      0x00\n      mstore\n      keccak256(0x00, 0x20)\n      swap1\n      0x02\n      mul\n      add\n      mload(0x40)\n      dup1\n      0x40\n      add\n      0x40\n      mstore\n      swap1\n      dup2\n      0x00\n      dup3\n      add\n      dup1\n      sload\n      tag_113\n      swap1\n      tag_91\n      jump\t// in\n    tag_113:\n      dup1\n      0x1f\n      add\n      0x20\n      dup1\n      swap2\n      div\n      mul\n      0x20\n      add\n      mload(0x40)\n      swap1\n      dup2\n      add\n      0x40\n      mstore\n      dup1\n      swap3\n      swap2\n      swap1\n      dup2\n      dup2\n      mstore\n      0x20\n      add\n      dup3\n      dup1\n      sload\n      tag_114\n      swap1\n      tag_91\n      jump\t// in\n    tag_114:\n      dup1\n      iszero\n      tag_115\n      jumpi\n      dup1\n      0x1f\n      lt\n      tag_116\n      jumpi\n      0x0100\n      dup1\n      dup4\n      sload\n      div\n      mul\n      dup4\n      mstore\n      swap2\n      0x20\n      add\n      swap2\n      jump(tag_115)\n    tag_116:\n      dup3\n      add\n      swap2\n      swap1\n      0x00\n      mstore\n      keccak256(0x00, 0x20)\n      swap1\n    tag_117:\n      dup2\n      sload\n      dup2\n      mstore\n      swap1\n      0x01\n      add\n      swap1\n      0x20\n      add\n      dup1\n      dup4\n      gt\n      tag_117\n      jumpi\n      dup3\n      swap1\n      sub\n      0x1f\n      and\n      dup3\n      add\n      swap2\n    tag_115:\n      pop\n      pop\n      pop\n      pop\n      pop\n      dup2\n      mstore\n      0x20\n      add\n      0x01\n      dup3\n      add\n      sload\n      dup2\n      mstore\n      pop\n      pop\n      dup2\n      mstore\n      0x20\n      add\n      swap1\n      0x01\n      add\n      swap1\n      jump(tag_110)\n    tag_111:\n      pop\n      pop\n      pop\n      pop\n      swap1\n      pop\n        /* \"contracts/prop_test.sol\":4189:4286  function getProposals() public view returns(Proposal[] memory){\r... */\n      swap1\n      jump\t// out\n        /* \"contracts/prop_test.sol\":3649:3723  function setStatus(uint _status) public{\r... */\n    tag_47:\n        /* \"contracts/prop_test.sol\":3708:3715  _status */\n      dup1\n        /* \"contracts/prop_test.sol\":3699:3705  status */\n      0x01\n        /* \"contracts/prop_test.sol\":3699:3715  status = _status */\n      dup2\n      swap1\n      sstore\n      pop\n        /* \"contracts/prop_test.sol\":3649:3723  function setStatus(uint _status) public{\r... */\n      pop\n      jump\t// out\n        /* \"contracts/prop_test.sol\":4451:4535  function getStartDate() public view returns(uint){\r... */\n    tag_49:\n        /* \"contracts/prop_test.sol\":4495:4499  uint */\n      0x00\n        /* \"contracts/prop_test.sol\":4518:4527  startDate */\n      sload(0x02)\n        /* \"contracts/prop_test.sol\":4511:4527  return startDate */\n      swap1\n      pop\n        /* \"contracts/prop_test.sol\":4451:4535  function getStartDate() public view returns(uint){\r... */\n      swap1\n      jump\t// out\n        /* \"contracts/prop_test.sol\":3517:3606  function getCreatorBallot() public view returns(address){\r... */\n    tag_52:\n        /* \"contracts/prop_test.sol\":3565:3572  address */\n      0x00\n        /* \"contracts/prop_test.sol\":3591:3598  creator */\n      dup1\n      0x00\n      swap1\n      sload\n      swap1\n      0x0100\n      exp\n      swap1\n      div\n      0xffffffffffffffffffffffffffffffffffffffff\n      and\n        /* \"contracts/prop_test.sol\":3584:3598  return creator */\n      swap1\n      pop\n        /* \"contracts/prop_test.sol\":3517:3606  function getCreatorBallot() public view returns(address){\r... */\n      swap1\n      jump\t// out\n        /* \"contracts/prop_test.sol\":924:1664  function createBallot(string[] memory proposalNames) public {\r... */\n    tag_58:\n        /* \"contracts/prop_test.sol\":1005:1015  msg.sender */\n      caller\n        /* \"contracts/prop_test.sol\":995:1002  creator */\n      0x00\n      dup1\n        /* \"contracts/prop_test.sol\":995:1015  creator = msg.sender */\n      0x0100\n      exp\n      dup2\n      sload\n      dup2\n      0xffffffffffffffffffffffffffffffffffffffff\n      mul\n      not\n      and\n      swap1\n      dup4\n      0xffffffffffffffffffffffffffffffffffffffff\n      and\n      mul\n      or\n      swap1\n      sstore\n      pop\n        /* \"contracts/prop_test.sol\":1051:1052  1 */\n      0x01\n        /* \"contracts/prop_test.sol\":1026:1032  voters */\n      0x05\n        /* \"contracts/prop_test.sol\":1026:1041  voters[creator] */\n      0x00\n        /* \"contracts/prop_test.sol\":1033:1040  creator */\n      dup1\n      0x00\n      swap1\n      sload\n      swap1\n      0x0100\n      exp\n      swap1\n      div\n      0xffffffffffffffffffffffffffffffffffffffff\n      and\n        /* \"contracts/prop_test.sol\":1026:1041  voters[creator] */\n      0xffffffffffffffffffffffffffffffffffffffff\n      and\n      0xffffffffffffffffffffffffffffffffffffffff\n      and\n      dup2\n      mstore\n      0x20\n      add\n      swap1\n      dup2\n      mstore\n      0x20\n      add\n      0x00\n      keccak256\n        /* \"contracts/prop_test.sol\":1026:1048  voters[creator].weight */\n      0x00\n      add\n        /* \"contracts/prop_test.sol\":1026:1052  voters[creator].weight = 1 */\n      dup2\n      swap1\n      sstore\n      pop\n        /* \"contracts/prop_test.sol\":1074:1075  0 */\n      0x00\n        /* \"contracts/prop_test.sol\":1065:1071  status */\n      0x01\n        /* \"contracts/prop_test.sol\":1065:1075  status = 0 */\n      dup2\n      swap1\n      sstore\n      pop\n        /* \"contracts/prop_test.sol\":1086:1100  setStartDate() */\n      tag_122\n        /* \"contracts/prop_test.sol\":1086:1098  setStartDate */\n      tag_123\n        /* \"contracts/prop_test.sol\":1086:1100  setStartDate() */\n      jump\t// in\n    tag_122:\n        /* \"contracts/prop_test.sol\":1128:1141  proposalNames */\n      dup1\n        /* \"contracts/prop_test.sol\":1128:1148  proposalNames.length */\n      mload\n        /* \"contracts/prop_test.sol\":1111:1125  numOfProposals */\n      0x04\n        /* \"contracts/prop_test.sol\":1111:1148  numOfProposals = proposalNames.length */\n      dup2\n      swap1\n      sstore\n      pop\n        /* \"contracts/prop_test.sol\":1308:1314  uint i */\n      0x00\n        /* \"contracts/prop_test.sol\":1303:1657  for (uint i = 0; i < proposalNames.length; i++) {\r... */\n    tag_124:\n        /* \"contracts/prop_test.sol\":1324:1337  proposalNames */\n      dup2\n        /* \"contracts/prop_test.sol\":1324:1344  proposalNames.length */\n      mload\n        /* \"contracts/prop_test.sol\":1320:1321  i */\n      dup2\n        /* \"contracts/prop_test.sol\":1320:1344  i < proposalNames.length */\n      lt\n        /* \"contracts/prop_test.sol\":1303:1657  for (uint i = 0; i < proposalNames.length; i++) {\r... */\n      iszero\n      tag_125\n      jumpi\n        /* \"contracts/prop_test.sol\":1532:1541  proposals */\n      0x06\n        /* \"contracts/prop_test.sol\":1547:1644  Proposal({\r... */\n      mload(0x40)\n      dup1\n      0x40\n      add\n      0x40\n      mstore\n      dup1\n        /* \"contracts/prop_test.sol\":1581:1594  proposalNames */\n      dup5\n        /* \"contracts/prop_test.sol\":1595:1596  i */\n      dup5\n        /* \"contracts/prop_test.sol\":1581:1597  proposalNames[i] */\n      dup2\n      mload\n      dup2\n      lt\n      tag_127\n      jumpi\n      mstore(0x00, 0x4e487b7100000000000000000000000000000000000000000000000000000000)\n      mstore(0x04, 0x32)\n      revert(0x00, 0x24)\n    tag_127:\n      0x20\n      mul\n      0x20\n      add\n      add\n      mload\n        /* \"contracts/prop_test.sol\":1547:1644  Proposal({\r... */\n      dup2\n      mstore\n      0x20\n      add\n        /* \"contracts/prop_test.sol\":1627:1628  0 */\n      0x00\n        /* \"contracts/prop_test.sol\":1547:1644  Proposal({\r... */\n      dup2\n      mstore\n      pop\n        /* \"contracts/prop_test.sol\":1532:1645  proposals.push(Proposal({\r... */\n      swap1\n      dup1\n      0x01\n      dup2\n      sload\n      add\n      dup1\n      dup3\n      sstore\n      dup1\n      swap2\n      pop\n      pop\n      0x01\n      swap1\n      sub\n      swap1\n      0x00\n      mstore\n      keccak256(0x00, 0x20)\n      swap1\n      0x02\n      mul\n      add\n      0x00\n      swap1\n      swap2\n      swap1\n      swap2\n      swap1\n      swap2\n      pop\n      0x00\n      dup3\n      add\n      mload\n      dup2\n      0x00\n      add\n      swap1\n      dup1\n      mload\n      swap1\n      0x20\n      add\n      swap1\n      tag_129\n      swap3\n      swap2\n      swap1\n      tag_130\n      jump\t// in\n    tag_129:\n      pop\n      0x20\n      dup3\n      add\n      mload\n      dup2\n      0x01\n      add\n      sstore\n      pop\n      pop\n        /* \"contracts/prop_test.sol\":1346:1349  i++ */\n      dup1\n      dup1\n      tag_131\n      swap1\n      tag_108\n      jump\t// in\n    tag_131:\n      swap2\n      pop\n      pop\n        /* \"contracts/prop_test.sol\":1303:1657  for (uint i = 0; i < proposalNames.length; i++) {\r... */\n      jump(tag_124)\n    tag_125:\n      pop\n        /* \"contracts/prop_test.sol\":924:1664  function createBallot(string[] memory proposalNames) public {\r... */\n      pop\n      jump\t// out\n        /* \"contracts/prop_test.sol\":4577:4649  function setEndDate() public{\r... */\n    tag_60:\n        /* \"contracts/prop_test.sol\":4626:4641  block.timestamp */\n      timestamp\n        /* \"contracts/prop_test.sol\":4616:4623  endDate */\n      0x03\n        /* \"contracts/prop_test.sol\":4616:4641  endDate = block.timestamp */\n      dup2\n      swap1\n      sstore\n      pop\n        /* \"contracts/prop_test.sol\":4577:4649  function setEndDate() public{\r... */\n      jump\t// out\n        /* \"contracts/prop_test.sol\":1672:2250  function giveRightToVote(address voter) public {\r... */\n    tag_64:\n        /* \"contracts/prop_test.sol\":2143:2150  creator */\n      0x00\n      dup1\n      sload\n      swap1\n      0x0100\n      exp\n      swap1\n      div\n      0xffffffffffffffffffffffffffffffffffffffff\n      and\n        /* \"contracts/prop_test.sol\":2129:2150  msg.sender == creator */\n      0xffffffffffffffffffffffffffffffffffffffff\n      and\n        /* \"contracts/prop_test.sol\":2129:2139  msg.sender */\n      caller\n        /* \"contracts/prop_test.sol\":2129:2150  msg.sender == creator */\n      0xffffffffffffffffffffffffffffffffffffffff\n      and\n      eq\n        /* \"contracts/prop_test.sol\":2128:2175  (msg.sender == creator) && !voters[voter].voted */\n      dup1\n      iszero\n      tag_134\n      jumpi\n      pop\n        /* \"contracts/prop_test.sol\":2156:2162  voters */\n      0x05\n        /* \"contracts/prop_test.sol\":2156:2169  voters[voter] */\n      0x00\n        /* \"contracts/prop_test.sol\":2163:2168  voter */\n      dup3\n        /* \"contracts/prop_test.sol\":2156:2169  voters[voter] */\n      0xffffffffffffffffffffffffffffffffffffffff\n      and\n      0xffffffffffffffffffffffffffffffffffffffff\n      and\n      dup2\n      mstore\n      0x20\n      add\n      swap1\n      dup2\n      mstore\n      0x20\n      add\n      0x00\n      keccak256\n        /* \"contracts/prop_test.sol\":2156:2175  voters[voter].voted */\n      0x01\n      add\n      0x00\n      swap1\n      sload\n      swap1\n      0x0100\n      exp\n      swap1\n      div\n      0xff\n      and\n        /* \"contracts/prop_test.sol\":2155:2175  !voters[voter].voted */\n      iszero\n        /* \"contracts/prop_test.sol\":2128:2175  (msg.sender == creator) && !voters[voter].voted */\n    tag_134:\n        /* \"contracts/prop_test.sol\":2128:2206  (msg.sender == creator) && !voters[voter].voted && (voters[voter].weight == 0) */\n      dup1\n      iszero\n      tag_135\n      jumpi\n      pop\n        /* \"contracts/prop_test.sol\":2204:2205  0 */\n      0x00\n        /* \"contracts/prop_test.sol\":2180:2186  voters */\n      0x05\n        /* \"contracts/prop_test.sol\":2180:2193  voters[voter] */\n      0x00\n        /* \"contracts/prop_test.sol\":2187:2192  voter */\n      dup4\n        /* \"contracts/prop_test.sol\":2180:2193  voters[voter] */\n      0xffffffffffffffffffffffffffffffffffffffff\n      and\n      0xffffffffffffffffffffffffffffffffffffffff\n      and\n      dup2\n      mstore\n      0x20\n      add\n      swap1\n      dup2\n      mstore\n      0x20\n      add\n      0x00\n      keccak256\n        /* \"contracts/prop_test.sol\":2180:2200  voters[voter].weight */\n      0x00\n      add\n      sload\n        /* \"contracts/prop_test.sol\":2180:2205  voters[voter].weight == 0 */\n      eq\n        /* \"contracts/prop_test.sol\":2128:2206  (msg.sender == creator) && !voters[voter].voted && (voters[voter].weight == 0) */\n    tag_135:\n        /* \"contracts/prop_test.sol\":2120:2207  require((msg.sender == creator) && !voters[voter].voted && (voters[voter].weight == 0)) */\n      tag_136\n      jumpi\n      0x00\n      dup1\n      revert\n    tag_136:\n        /* \"contracts/prop_test.sol\":2241:2242  1 */\n      0x01\n        /* \"contracts/prop_test.sol\":2218:2224  voters */\n      0x05\n        /* \"contracts/prop_test.sol\":2218:2231  voters[voter] */\n      0x00\n        /* \"contracts/prop_test.sol\":2225:2230  voter */\n      dup4\n        /* \"contracts/prop_test.sol\":2218:2231  voters[voter] */\n      0xffffffffffffffffffffffffffffffffffffffff\n      and\n      0xffffffffffffffffffffffffffffffffffffffff\n      and\n      dup2\n      mstore\n      0x20\n      add\n      swap1\n      dup2\n      mstore\n      0x20\n      add\n      0x00\n      keccak256\n        /* \"contracts/prop_test.sol\":2218:2238  voters[voter].weight */\n      0x00\n      add\n        /* \"contracts/prop_test.sol\":2218:2242  voters[voter].weight = 1 */\n      dup2\n      swap1\n      sstore\n      pop\n        /* \"contracts/prop_test.sol\":1672:2250  function giveRightToVote(address voter) public {\r... */\n      pop\n      jump\t// out\n        /* \"contracts/prop_test.sol\":783:822  mapping(address => Voter) public voters */\n    tag_67:\n      mstore(0x20, 0x05)\n      dup1\n      0x00\n      mstore\n      keccak256(0x00, 0x40)\n      0x00\n      swap2\n      pop\n      swap1\n      pop\n      dup1\n      0x00\n      add\n      sload\n      swap1\n      dup1\n      0x01\n      add\n      0x00\n      swap1\n      sload\n      swap1\n      0x0100\n      exp\n      swap1\n      div\n      0xff\n      and\n      swap1\n      dup1\n      0x01\n      add\n      0x01\n      swap1\n      sload\n      swap1\n      0x0100\n      exp\n      swap1\n      div\n      0xffffffffffffffffffffffffffffffffffffffff\n      and\n      swap1\n      dup1\n      0x02\n      add\n      sload\n      swap1\n      pop\n      dup5\n      jump\t// out\n        /* \"contracts/prop_test.sol\":4689:4769  function getEndDate() public view returns(uint){\r... */\n    tag_71:\n        /* \"contracts/prop_test.sol\":4731:4735  uint */\n      0x00\n        /* \"contracts/prop_test.sol\":4754:4761  endDate */\n      sload(0x03)\n        /* \"contracts/prop_test.sol\":4747:4761  return endDate */\n      swap1\n      pop\n        /* \"contracts/prop_test.sol\":4689:4769  function getEndDate() public view returns(uint){\r... */\n      swap1\n      jump\t// out\n        /* \"contracts/prop_test.sol\":3207:3345  function winnerName() public view returns(string memory winnerName)\r... */\n    tag_74:\n        /* \"contracts/prop_test.sol\":3249:3273  string memory winnerName */\n      0x60\n        /* \"contracts/prop_test.sol\":3304:3313  proposals */\n      0x06\n        /* \"contracts/prop_test.sol\":3314:3331  winningProposal() */\n      tag_139\n        /* \"contracts/prop_test.sol\":3314:3329  winningProposal */\n      tag_39\n        /* \"contracts/prop_test.sol\":3314:3331  winningProposal() */\n      jump\t// in\n    tag_139:\n        /* \"contracts/prop_test.sol\":3304:3332  proposals[winningProposal()] */\n      dup2\n      sload\n      dup2\n      lt\n      tag_140\n      jumpi\n      mstore(0x00, 0x4e487b7100000000000000000000000000000000000000000000000000000000)\n      mstore(0x04, 0x32)\n      revert(0x00, 0x24)\n    tag_140:\n      swap1\n      0x00\n      mstore\n      keccak256(0x00, 0x20)\n      swap1\n      0x02\n      mul\n      add\n        /* \"contracts/prop_test.sol\":3304:3337  proposals[winningProposal()].name */\n      0x00\n      add\n        /* \"contracts/prop_test.sol\":3291:3337  winnerName = proposals[winningProposal()].name */\n      dup1\n      sload\n      tag_142\n      swap1\n      tag_91\n      jump\t// in\n    tag_142:\n      dup1\n      0x1f\n      add\n      0x20\n      dup1\n      swap2\n      div\n      mul\n      0x20\n      add\n      mload(0x40)\n      swap1\n      dup2\n      add\n      0x40\n      mstore\n      dup1\n      swap3\n      swap2\n      swap1\n      dup2\n      dup2\n      mstore\n      0x20\n      add\n      dup3\n      dup1\n      sload\n      tag_143\n      swap1\n      tag_91\n      jump\t// in\n    tag_143:\n      dup1\n      iszero\n      tag_144\n      jumpi\n      dup1\n      0x1f\n      lt\n      tag_145\n      jumpi\n      0x0100\n      dup1\n      dup4\n      sload\n      div\n      mul\n      dup4\n      mstore\n      swap2\n      0x20\n      add\n      swap2\n      jump(tag_144)\n    tag_145:\n      dup3\n      add\n      swap2\n      swap1\n      0x00\n      mstore\n      keccak256(0x00, 0x20)\n      swap1\n    tag_146:\n      dup2\n      sload\n      dup2\n      mstore\n      swap1\n      0x01\n      add\n      swap1\n      0x20\n      add\n      dup1\n      dup4\n      gt\n      tag_146\n      jumpi\n      dup3\n      swap1\n      sub\n      0x1f\n      and\n      dup3\n      add\n      swap2\n    tag_144:\n      pop\n      pop\n      pop\n      pop\n      pop\n      swap1\n      pop\n        /* \"contracts/prop_test.sol\":3207:3345  function winnerName() public view returns(string memory winnerName)\r... */\n      swap1\n      jump\t// out\n        /* \"contracts/prop_test.sol\":4022:4154  function getProposalStructure(uint _proposalId) public view returns(Proposal memory){\r... */\n    tag_79:\n        /* \"contracts/prop_test.sol\":4090:4105  Proposal memory */\n      tag_147\n      tag_148\n      jump\t// in\n    tag_147:\n        /* \"contracts/prop_test.sol\":4124:4133  proposals */\n      0x06\n        /* \"contracts/prop_test.sol\":4134:4145  _proposalId */\n      dup3\n        /* \"contracts/prop_test.sol\":4124:4146  proposals[_proposalId] */\n      dup2\n      sload\n      dup2\n      lt\n      tag_150\n      jumpi\n      mstore(0x00, 0x4e487b7100000000000000000000000000000000000000000000000000000000)\n      mstore(0x04, 0x32)\n      revert(0x00, 0x24)\n    tag_150:\n      swap1\n      0x00\n      mstore\n      keccak256(0x00, 0x20)\n      swap1\n      0x02\n      mul\n      add\n        /* \"contracts/prop_test.sol\":4117:4146  return proposals[_proposalId] */\n      mload(0x40)\n      dup1\n      0x40\n      add\n      0x40\n      mstore\n      swap1\n      dup2\n      0x00\n      dup3\n      add\n      dup1\n      sload\n      tag_152\n      swap1\n      tag_91\n      jump\t// in\n    tag_152:\n      dup1\n      0x1f\n      add\n      0x20\n      dup1\n      swap2\n      div\n      mul\n      0x20\n      add\n      mload(0x40)\n      swap1\n      dup2\n      add\n      0x40\n      mstore\n      dup1\n      swap3\n      swap2\n      swap1\n      dup2\n      dup2\n      mstore\n      0x20\n      add\n      dup3\n      dup1\n      sload\n      tag_153\n      swap1\n      tag_91\n      jump\t// in\n    tag_153:\n      dup1\n      iszero\n      tag_154\n      jumpi\n      dup1\n      0x1f\n      lt\n      tag_155\n      jumpi\n      0x0100\n      dup1\n      dup4\n      sload\n      div\n      mul\n      dup4\n      mstore\n      swap2\n      0x20\n      add\n      swap2\n      jump(tag_154)\n    tag_155:\n      dup3\n      add\n      swap2\n      swap1\n      0x00\n      mstore\n      keccak256(0x00, 0x20)\n      swap1\n    tag_156:\n      dup2\n      sload\n      dup2\n      mstore\n      swap1\n      0x01\n      add\n      swap1\n      0x20\n      add\n      dup1\n      dup4\n      gt\n      tag_156\n      jumpi\n      dup3\n      swap1\n      sub\n      0x1f\n      and\n      dup3\n      add\n      swap2\n    tag_154:\n      pop\n      pop\n      pop\n      pop\n      pop\n      dup2\n      mstore\n      0x20\n      add\n      0x01\n      dup3\n      add\n      sload\n      dup2\n      mstore\n      pop\n      pop\n      swap1\n      pop\n        /* \"contracts/prop_test.sol\":4022:4154  function getProposalStructure(uint _proposalId) public view returns(Proposal memory){\r... */\n      swap2\n      swap1\n      pop\n      jump\t// out\n        /* \"contracts/prop_test.sol\":4330:4409  function setStartDate() internal {\r... */\n    tag_123:\n        /* \"contracts/prop_test.sol\":4386:4401  block.timestamp */\n      timestamp\n        /* \"contracts/prop_test.sol\":4374:4383  startDate */\n      0x02\n        /* \"contracts/prop_test.sol\":4374:4401  startDate = block.timestamp */\n      dup2\n      swap1\n      sstore\n      pop\n        /* \"contracts/prop_test.sol\":4330:4409  function setStartDate() internal {\r... */\n      jump\t// out\n    tag_130:\n      dup3\n      dup1\n      sload\n      tag_158\n      swap1\n      tag_91\n      jump\t// in\n    tag_158:\n      swap1\n      0x00\n      mstore\n      keccak256(0x00, 0x20)\n      swap1\n      0x1f\n      add\n      0x20\n      swap1\n      div\n      dup2\n      add\n      swap3\n      dup3\n      tag_160\n      jumpi\n      0x00\n      dup6\n      sstore\n      jump(tag_159)\n    tag_160:\n      dup3\n      0x1f\n      lt\n      tag_161\n      jumpi\n      dup1\n      mload\n      not(0xff)\n      and\n      dup4\n      dup1\n      add\n      or\n      dup6\n      sstore\n      jump(tag_159)\n    tag_161:\n      dup3\n      dup1\n      add\n      0x01\n      add\n      dup6\n      sstore\n      dup3\n      iszero\n      tag_159\n      jumpi\n      swap2\n      dup3\n      add\n    tag_162:\n      dup3\n      dup2\n      gt\n      iszero\n      tag_163\n      jumpi\n      dup3\n      mload\n      dup3\n      sstore\n      swap2\n      0x20\n      add\n      swap2\n      swap1\n      0x01\n      add\n      swap1\n      jump(tag_162)\n    tag_163:\n    tag_159:\n      pop\n      swap1\n      pop\n      tag_164\n      swap2\n      swap1\n      tag_165\n      jump\t// in\n    tag_164:\n      pop\n      swap1\n      jump\t// out\n    tag_148:\n      mload(0x40)\n      dup1\n      0x40\n      add\n      0x40\n      mstore\n      dup1\n      0x60\n      dup2\n      mstore\n      0x20\n      add\n      0x00\n      dup2\n      mstore\n      pop\n      swap1\n      jump\t// out\n    tag_165:\n    tag_166:\n      dup1\n      dup3\n      gt\n      iszero\n      tag_167\n      jumpi\n      0x00\n      dup2\n      0x00\n      swap1\n      sstore\n      pop\n      0x01\n      add\n      jump(tag_166)\n    tag_167:\n      pop\n      swap1\n      jump\t// out\n        /* \"#utility.yul\":23:638   */\n    tag_169:\n      0x00\n        /* \"#utility.yul\":154:244   */\n      tag_171\n        /* \"#utility.yul\":169:243   */\n      tag_172\n        /* \"#utility.yul\":236:242   */\n      dup5\n        /* \"#utility.yul\":169:243   */\n      tag_173\n      jump\t// in\n    tag_172:\n        /* \"#utility.yul\":154:244   */\n      tag_174\n      jump\t// in\n    tag_171:\n        /* \"#utility.yul\":145:244   */\n      swap1\n      pop\n        /* \"#utility.yul\":264:269   */\n      dup1\n        /* \"#utility.yul\":292:298   */\n      dup4\n        /* \"#utility.yul\":285:290   */\n      dup3\n        /* \"#utility.yul\":278:299   */\n      mstore\n        /* \"#utility.yul\":318:322   */\n      0x20\n        /* \"#utility.yul\":311:316   */\n      dup3\n        /* \"#utility.yul\":307:323   */\n      add\n        /* \"#utility.yul\":300:323   */\n      swap1\n      pop\n        /* \"#utility.yul\":343:349   */\n      dup3\n        /* \"#utility.yul\":374:375   */\n      0x00\n        /* \"#utility.yul\":359:632   */\n    tag_175:\n        /* \"#utility.yul\":384:390   */\n      dup6\n        /* \"#utility.yul\":381:382   */\n      dup2\n        /* \"#utility.yul\":378:391   */\n      lt\n        /* \"#utility.yul\":359:632   */\n      iszero\n      tag_177\n      jumpi\n        /* \"#utility.yul\":476:479   */\n      dup2\n        /* \"#utility.yul\":463:480   */\n      calldataload\n        /* \"#utility.yul\":455:461   */\n      dup6\n        /* \"#utility.yul\":451:481   */\n      add\n        /* \"#utility.yul\":506:553   */\n      tag_178\n        /* \"#utility.yul\":549:552   */\n      dup9\n        /* \"#utility.yul\":537:547   */\n      dup3\n        /* \"#utility.yul\":506:553   */\n      tag_179\n      jump\t// in\n    tag_178:\n        /* \"#utility.yul\":501:504   */\n      dup5\n        /* \"#utility.yul\":494:554   */\n      mstore\n        /* \"#utility.yul\":583:587   */\n      0x20\n        /* \"#utility.yul\":578:581   */\n      dup5\n        /* \"#utility.yul\":574:588   */\n      add\n        /* \"#utility.yul\":567:588   */\n      swap4\n      pop\n        /* \"#utility.yul\":617:621   */\n      0x20\n        /* \"#utility.yul\":612:615   */\n      dup4\n        /* \"#utility.yul\":608:622   */\n      add\n        /* \"#utility.yul\":601:622   */\n      swap3\n      pop\n        /* \"#utility.yul\":419:632   */\n      pop\n        /* \"#utility.yul\":406:407   */\n      0x01\n        /* \"#utility.yul\":403:404   */\n      dup2\n        /* \"#utility.yul\":399:408   */\n      add\n        /* \"#utility.yul\":394:408   */\n      swap1\n      pop\n        /* \"#utility.yul\":359:632   */\n      jump(tag_175)\n    tag_177:\n        /* \"#utility.yul\":363:377   */\n      pop\n        /* \"#utility.yul\":135:638   */\n      pop\n      pop\n      swap4\n      swap3\n      pop\n      pop\n      pop\n      jump\t// out\n        /* \"#utility.yul\":644:988   */\n    tag_180:\n      0x00\n        /* \"#utility.yul\":747:812   */\n      tag_182\n        /* \"#utility.yul\":762:811   */\n      tag_183\n        /* \"#utility.yul\":804:810   */\n      dup5\n        /* \"#utility.yul\":762:811   */\n      tag_184\n      jump\t// in\n    tag_183:\n        /* \"#utility.yul\":747:812   */\n      tag_174\n      jump\t// in\n    tag_182:\n        /* \"#utility.yul\":738:812   */\n      swap1\n      pop\n        /* \"#utility.yul\":835:841   */\n      dup3\n        /* \"#utility.yul\":828:833   */\n      dup2\n        /* \"#utility.yul\":821:842   */\n      mstore\n        /* \"#utility.yul\":873:877   */\n      0x20\n        /* \"#utility.yul\":866:871   */\n      dup2\n        /* \"#utility.yul\":862:878   */\n      add\n        /* \"#utility.yul\":911:914   */\n      dup5\n        /* \"#utility.yul\":902:908   */\n      dup5\n        /* \"#utility.yul\":897:900   */\n      dup5\n        /* \"#utility.yul\":893:909   */\n      add\n        /* \"#utility.yul\":890:915   */\n      gt\n        /* \"#utility.yul\":887:889   */\n      iszero\n      tag_185\n      jumpi\n        /* \"#utility.yul\":928:929   */\n      0x00\n        /* \"#utility.yul\":925:926   */\n      dup1\n        /* \"#utility.yul\":918:930   */\n      revert\n        /* \"#utility.yul\":887:889   */\n    tag_185:\n        /* \"#utility.yul\":941:982   */\n      tag_186\n        /* \"#utility.yul\":975:981   */\n      dup5\n        /* \"#utility.yul\":970:973   */\n      dup3\n        /* \"#utility.yul\":965:968   */\n      dup6\n        /* \"#utility.yul\":941:982   */\n      tag_187\n      jump\t// in\n    tag_186:\n        /* \"#utility.yul\":728:988   */\n      pop\n      swap4\n      swap3\n      pop\n      pop\n      pop\n      jump\t// out\n        /* \"#utility.yul\":994:1133   */\n    tag_188:\n      0x00\n        /* \"#utility.yul\":1078:1084   */\n      dup2\n        /* \"#utility.yul\":1065:1085   */\n      calldataload\n        /* \"#utility.yul\":1056:1085   */\n      swap1\n      pop\n        /* \"#utility.yul\":1094:1127   */\n      tag_190\n        /* \"#utility.yul\":1121:1126   */\n      dup2\n        /* \"#utility.yul\":1094:1127   */\n      tag_191\n      jump\t// in\n    tag_190:\n        /* \"#utility.yul\":1046:1133   */\n      swap3\n      swap2\n      pop\n      pop\n      jump\t// out\n        /* \"#utility.yul\":1155:1478   */\n    tag_192:\n      0x00\n        /* \"#utility.yul\":1285:1288   */\n      dup3\n        /* \"#utility.yul\":1278:1282   */\n      0x1f\n        /* \"#utility.yul\":1270:1276   */\n      dup4\n        /* \"#utility.yul\":1266:1283   */\n      add\n        /* \"#utility.yul\":1262:1289   */\n      slt\n        /* \"#utility.yul\":1252:1254   */\n      tag_194\n      jumpi\n        /* \"#utility.yul\":1303:1304   */\n      0x00\n        /* \"#utility.yul\":1300:1301   */\n      dup1\n        /* \"#utility.yul\":1293:1305   */\n      revert\n        /* \"#utility.yul\":1252:1254   */\n    tag_194:\n        /* \"#utility.yul\":1343:1349   */\n      dup2\n        /* \"#utility.yul\":1330:1350   */\n      calldataload\n        /* \"#utility.yul\":1368:1472   */\n      tag_195\n        /* \"#utility.yul\":1468:1471   */\n      dup5\n        /* \"#utility.yul\":1460:1466   */\n      dup3\n        /* \"#utility.yul\":1453:1457   */\n      0x20\n        /* \"#utility.yul\":1445:1451   */\n      dup7\n        /* \"#utility.yul\":1441:1458   */\n      add\n        /* \"#utility.yul\":1368:1472   */\n      tag_169\n      jump\t// in\n    tag_195:\n        /* \"#utility.yul\":1359:1472   */\n      swap2\n      pop\n        /* \"#utility.yul\":1242:1478   */\n      pop\n      swap3\n      swap2\n      pop\n      pop\n      jump\t// out\n        /* \"#utility.yul\":1498:1771   */\n    tag_179:\n      0x00\n        /* \"#utility.yul\":1603:1606   */\n      dup3\n        /* \"#utility.yul\":1596:1600   */\n      0x1f\n        /* \"#utility.yul\":1588:1594   */\n      dup4\n        /* \"#utility.yul\":1584:1601   */\n      add\n        /* \"#utility.yul\":1580:1607   */\n      slt\n        /* \"#utility.yul\":1570:1572   */\n      tag_197\n      jumpi\n        /* \"#utility.yul\":1621:1622   */\n      0x00\n        /* \"#utility.yul\":1618:1619   */\n      dup1\n        /* \"#utility.yul\":1611:1623   */\n      revert\n        /* \"#utility.yul\":1570:1572   */\n    tag_197:\n        /* \"#utility.yul\":1661:1667   */\n      dup2\n        /* \"#utility.yul\":1648:1668   */\n      calldataload\n        /* \"#utility.yul\":1686:1765   */\n      tag_198\n        /* \"#utility.yul\":1761:1764   */\n      dup5\n        /* \"#utility.yul\":1753:1759   */\n      dup3\n        /* \"#utility.yul\":1746:1750   */\n      0x20\n        /* \"#utility.yul\":1738:1744   */\n      dup7\n        /* \"#utility.yul\":1734:1751   */\n      add\n        /* \"#utility.yul\":1686:1765   */\n      tag_180\n      jump\t// in\n    tag_198:\n        /* \"#utility.yul\":1677:1765   */\n      swap2\n      pop\n        /* \"#utility.yul\":1560:1771   */\n      pop\n      swap3\n      swap2\n      pop\n      pop\n      jump\t// out\n        /* \"#utility.yul\":1777:1916   */\n    tag_199:\n      0x00\n        /* \"#utility.yul\":1861:1867   */\n      dup2\n        /* \"#utility.yul\":1848:1868   */\n      calldataload\n        /* \"#utility.yul\":1839:1868   */\n      swap1\n      pop\n        /* \"#utility.yul\":1877:1910   */\n      tag_201\n        /* \"#utility.yul\":1904:1909   */\n      dup2\n        /* \"#utility.yul\":1877:1910   */\n      tag_202\n      jump\t// in\n    tag_201:\n        /* \"#utility.yul\":1829:1916   */\n      swap3\n      swap2\n      pop\n      pop\n      jump\t// out\n        /* \"#utility.yul\":1922:2184   */\n    tag_63:\n      0x00\n        /* \"#utility.yul\":2030:2032   */\n      0x20\n        /* \"#utility.yul\":2018:2027   */\n      dup3\n        /* \"#utility.yul\":2009:2016   */\n      dup5\n        /* \"#utility.yul\":2005:2028   */\n      sub\n        /* \"#utility.yul\":2001:2033   */\n      slt\n        /* \"#utility.yul\":1998:2000   */\n      iszero\n      tag_204\n      jumpi\n        /* \"#utility.yul\":2046:2047   */\n      0x00\n        /* \"#utility.yul\":2043:2044   */\n      dup1\n        /* \"#utility.yul\":2036:2048   */\n      revert\n        /* \"#utility.yul\":1998:2000   */\n    tag_204:\n        /* \"#utility.yul\":2089:2090   */\n      0x00\n        /* \"#utility.yul\":2114:2167   */\n      tag_205\n        /* \"#utility.yul\":2159:2166   */\n      dup5\n        /* \"#utility.yul\":2150:2156   */\n      dup3\n        /* \"#utility.yul\":2139:2148   */\n      dup6\n        /* \"#utility.yul\":2135:2157   */\n      add\n        /* \"#utility.yul\":2114:2167   */\n      tag_188\n      jump\t// in\n    tag_205:\n        /* \"#utility.yul\":2104:2167   */\n      swap2\n      pop\n        /* \"#utility.yul\":2060:2177   */\n      pop\n        /* \"#utility.yul\":1988:2184   */\n      swap3\n      swap2\n      pop\n      pop\n      jump\t// out\n        /* \"#utility.yul\":2190:2615   */\n    tag_57:\n      0x00\n        /* \"#utility.yul\":2333:2335   */\n      0x20\n        /* \"#utility.yul\":2321:2330   */\n      dup3\n        /* \"#utility.yul\":2312:2319   */\n      dup5\n        /* \"#utility.yul\":2308:2331   */\n      sub\n        /* \"#utility.yul\":2304:2336   */\n      slt\n        /* \"#utility.yul\":2301:2303   */\n      iszero\n      tag_207\n      jumpi\n        /* \"#utility.yul\":2349:2350   */\n      0x00\n        /* \"#utility.yul\":2346:2347   */\n      dup1\n        /* \"#utility.yul\":2339:2351   */\n      revert\n        /* \"#utility.yul\":2301:2303   */\n    tag_207:\n        /* \"#utility.yul\":2420:2421   */\n      0x00\n        /* \"#utility.yul\":2409:2418   */\n      dup3\n        /* \"#utility.yul\":2405:2422   */\n      add\n        /* \"#utility.yul\":2392:2423   */\n      calldataload\n        /* \"#utility.yul\":2450:2468   */\n      0xffffffffffffffff\n        /* \"#utility.yul\":2442:2448   */\n      dup2\n        /* \"#utility.yul\":2439:2469   */\n      gt\n        /* \"#utility.yul\":2436:2438   */\n      iszero\n      tag_208\n      jumpi\n        /* \"#utility.yul\":2482:2483   */\n      0x00\n        /* \"#utility.yul\":2479:2480   */\n      dup1\n        /* \"#utility.yul\":2472:2484   */\n      revert\n        /* \"#utility.yul\":2436:2438   */\n    tag_208:\n        /* \"#utility.yul\":2510:2598   */\n      tag_209\n        /* \"#utility.yul\":2590:2597   */\n      dup5\n        /* \"#utility.yul\":2581:2587   */\n      dup3\n        /* \"#utility.yul\":2570:2579   */\n      dup6\n        /* \"#utility.yul\":2566:2588   */\n      add\n        /* \"#utility.yul\":2510:2598   */\n      tag_192\n      jump\t// in\n    tag_209:\n        /* \"#utility.yul\":2500:2598   */\n      swap2\n      pop\n        /* \"#utility.yul\":2363:2608   */\n      pop\n        /* \"#utility.yul\":2291:2615   */\n      swap3\n      swap2\n      pop\n      pop\n      jump\t// out\n        /* \"#utility.yul\":2621:2883   */\n    tag_24:\n      0x00\n        /* \"#utility.yul\":2729:2731   */\n      0x20\n        /* \"#utility.yul\":2717:2726   */\n      dup3\n        /* \"#utility.yul\":2708:2715   */\n      dup5\n        /* \"#utility.yul\":2704:2727   */\n      sub\n        /* \"#utility.yul\":2700:2732   */\n      slt\n        /* \"#utility.yul\":2697:2699   */\n      iszero\n      tag_211\n      jumpi\n        /* \"#utility.yul\":2745:2746   */\n      0x00\n        /* \"#utility.yul\":2742:2743   */\n      dup1\n        /* \"#utility.yul\":2735:2747   */\n      revert\n        /* \"#utility.yul\":2697:2699   */\n    tag_211:\n        /* \"#utility.yul\":2788:2789   */\n      0x00\n        /* \"#utility.yul\":2813:2866   */\n      tag_212\n        /* \"#utility.yul\":2858:2865   */\n      dup5\n        /* \"#utility.yul\":2849:2855   */\n      dup3\n        /* \"#utility.yul\":2838:2847   */\n      dup6\n        /* \"#utility.yul\":2834:2856   */\n      add\n        /* \"#utility.yul\":2813:2866   */\n      tag_199\n      jump\t// in\n    tag_212:\n        /* \"#utility.yul\":2803:2866   */\n      swap2\n      pop\n        /* \"#utility.yul\":2759:2876   */\n      pop\n        /* \"#utility.yul\":2687:2883   */\n      swap3\n      swap2\n      pop\n      pop\n      jump\t// out\n        /* \"#utility.yul\":2889:3141   */\n    tag_213:\n      0x00\n        /* \"#utility.yul\":3041:3135   */\n      tag_215\n        /* \"#utility.yul\":3131:3134   */\n      dup4\n        /* \"#utility.yul\":3123:3129   */\n      dup4\n        /* \"#utility.yul\":3041:3135   */\n      tag_216\n      jump\t// in\n    tag_215:\n        /* \"#utility.yul\":3027:3135   */\n      swap1\n      pop\n        /* \"#utility.yul\":3017:3141   */\n      swap3\n      swap2\n      pop\n      pop\n      jump\t// out\n        /* \"#utility.yul\":3147:3265   */\n    tag_217:\n        /* \"#utility.yul\":3234:3258   */\n      tag_219\n        /* \"#utility.yul\":3252:3257   */\n      dup2\n        /* \"#utility.yul\":3234:3258   */\n      tag_220\n      jump\t// in\n    tag_219:\n        /* \"#utility.yul\":3229:3232   */\n      dup3\n        /* \"#utility.yul\":3222:3259   */\n      mstore\n        /* \"#utility.yul\":3212:3265   */\n      pop\n      pop\n      jump\t// out\n        /* \"#utility.yul\":3331:4434   */\n    tag_221:\n      0x00\n        /* \"#utility.yul\":3527:3605   */\n      tag_223\n        /* \"#utility.yul\":3599:3604   */\n      dup3\n        /* \"#utility.yul\":3527:3605   */\n      tag_224\n      jump\t// in\n    tag_223:\n        /* \"#utility.yul\":3621:3731   */\n      tag_225\n        /* \"#utility.yul\":3724:3730   */\n      dup2\n        /* \"#utility.yul\":3719:3722   */\n      dup6\n        /* \"#utility.yul\":3621:3731   */\n      tag_226\n      jump\t// in\n    tag_225:\n        /* \"#utility.yul\":3614:3731   */\n      swap4\n      pop\n        /* \"#utility.yul\":3757:3760   */\n      dup4\n        /* \"#utility.yul\":3802:3806   */\n      0x20\n        /* \"#utility.yul\":3794:3800   */\n      dup3\n        /* \"#utility.yul\":3790:3807   */\n      mul\n        /* \"#utility.yul\":3785:3788   */\n      dup6\n        /* \"#utility.yul\":3781:3808   */\n      add\n        /* \"#utility.yul\":3832:3912   */\n      tag_227\n        /* \"#utility.yul\":3906:3911   */\n      dup6\n        /* \"#utility.yul\":3832:3912   */\n      tag_228\n      jump\t// in\n    tag_227:\n        /* \"#utility.yul\":3935:3942   */\n      dup1\n        /* \"#utility.yul\":3966:3967   */\n      0x00\n        /* \"#utility.yul\":3951:4389   */\n    tag_229:\n        /* \"#utility.yul\":3976:3982   */\n      dup6\n        /* \"#utility.yul\":3973:3974   */\n      dup2\n        /* \"#utility.yul\":3970:3983   */\n      lt\n        /* \"#utility.yul\":3951:4389   */\n      iszero\n      tag_231\n      jumpi\n        /* \"#utility.yul\":4047:4056   */\n      dup5\n        /* \"#utility.yul\":4041:4045   */\n      dup5\n        /* \"#utility.yul\":4037:4057   */\n      sub\n        /* \"#utility.yul\":4032:4035   */\n      dup10\n        /* \"#utility.yul\":4025:4058   */\n      mstore\n        /* \"#utility.yul\":4098:4104   */\n      dup2\n        /* \"#utility.yul\":4092:4105   */\n      mload\n        /* \"#utility.yul\":4126:4238   */\n      tag_232\n        /* \"#utility.yul\":4233:4237   */\n      dup6\n        /* \"#utility.yul\":4218:4231   */\n      dup3\n        /* \"#utility.yul\":4126:4238   */\n      tag_213\n      jump\t// in\n    tag_232:\n        /* \"#utility.yul\":4118:4238   */\n      swap5\n      pop\n        /* \"#utility.yul\":4261:4345   */\n      tag_233\n        /* \"#utility.yul\":4338:4344   */\n      dup4\n        /* \"#utility.yul\":4261:4345   */\n      tag_234\n      jump\t// in\n    tag_233:\n        /* \"#utility.yul\":4251:4345   */\n      swap3\n      pop\n        /* \"#utility.yul\":4374:4378   */\n      0x20\n        /* \"#utility.yul\":4369:4372   */\n      dup11\n        /* \"#utility.yul\":4365:4379   */\n      add\n        /* \"#utility.yul\":4358:4379   */\n      swap10\n      pop\n        /* \"#utility.yul\":4011:4389   */\n      pop\n        /* \"#utility.yul\":3998:3999   */\n      0x01\n        /* \"#utility.yul\":3995:3996   */\n      dup2\n        /* \"#utility.yul\":3991:4000   */\n      add\n        /* \"#utility.yul\":3986:4000   */\n      swap1\n      pop\n        /* \"#utility.yul\":3951:4389   */\n      jump(tag_229)\n    tag_231:\n        /* \"#utility.yul\":3955:3969   */\n      pop\n        /* \"#utility.yul\":4405:4409   */\n      dup3\n        /* \"#utility.yul\":4398:4409   */\n      swap8\n      pop\n        /* \"#utility.yul\":4425:4428   */\n      dup8\n        /* \"#utility.yul\":4418:4428   */\n      swap6\n      pop\n        /* \"#utility.yul\":3503:4434   */\n      pop\n      pop\n      pop\n      pop\n      pop\n      swap3\n      swap2\n      pop\n      pop\n      jump\t// out\n        /* \"#utility.yul\":4440:4549   */\n    tag_235:\n        /* \"#utility.yul\":4521:4542   */\n      tag_237\n        /* \"#utility.yul\":4536:4541   */\n      dup2\n        /* \"#utility.yul\":4521:4542   */\n      tag_238\n      jump\t// in\n    tag_237:\n        /* \"#utility.yul\":4516:4519   */\n      dup3\n        /* \"#utility.yul\":4509:4543   */\n      mstore\n        /* \"#utility.yul\":4499:4549   */\n      pop\n      pop\n      jump\t// out\n        /* \"#utility.yul\":4555:4899   */\n    tag_239:\n      0x00\n        /* \"#utility.yul\":4661:4700   */\n      tag_241\n        /* \"#utility.yul\":4694:4699   */\n      dup3\n        /* \"#utility.yul\":4661:4700   */\n      tag_242\n      jump\t// in\n    tag_241:\n        /* \"#utility.yul\":4716:4777   */\n      tag_243\n        /* \"#utility.yul\":4770:4776   */\n      dup2\n        /* \"#utility.yul\":4765:4768   */\n      dup6\n        /* \"#utility.yul\":4716:4777   */\n      tag_244\n      jump\t// in\n    tag_243:\n        /* \"#utility.yul\":4709:4777   */\n      swap4\n      pop\n        /* \"#utility.yul\":4786:4838   */\n      tag_245\n        /* \"#utility.yul\":4831:4837   */\n      dup2\n        /* \"#utility.yul\":4826:4829   */\n      dup6\n        /* \"#utility.yul\":4819:4823   */\n      0x20\n        /* \"#utility.yul\":4812:4817   */\n      dup7\n        /* \"#utility.yul\":4808:4824   */\n      add\n        /* \"#utility.yul\":4786:4838   */\n      tag_246\n      jump\t// in\n    tag_245:\n        /* \"#utility.yul\":4863:4892   */\n      tag_247\n        /* \"#utility.yul\":4885:4891   */\n      dup2\n        /* \"#utility.yul\":4863:4892   */\n      tag_248\n      jump\t// in\n    tag_247:\n        /* \"#utility.yul\":4858:4861   */\n      dup5\n        /* \"#utility.yul\":4854:4893   */\n      add\n        /* \"#utility.yul\":4847:4893   */\n      swap2\n      pop\n        /* \"#utility.yul\":4637:4899   */\n      pop\n      swap3\n      swap2\n      pop\n      pop\n      jump\t// out\n        /* \"#utility.yul\":4905:5269   */\n    tag_249:\n      0x00\n        /* \"#utility.yul\":5021:5060   */\n      tag_251\n        /* \"#utility.yul\":5054:5059   */\n      dup3\n        /* \"#utility.yul\":5021:5060   */\n      tag_242\n      jump\t// in\n    tag_251:\n        /* \"#utility.yul\":5076:5147   */\n      tag_252\n        /* \"#utility.yul\":5140:5146   */\n      dup2\n        /* \"#utility.yul\":5135:5138   */\n      dup6\n        /* \"#utility.yul\":5076:5147   */\n      tag_253\n      jump\t// in\n    tag_252:\n        /* \"#utility.yul\":5069:5147   */\n      swap4\n      pop\n        /* \"#utility.yul\":5156:5208   */\n      tag_254\n        /* \"#utility.yul\":5201:5207   */\n      dup2\n        /* \"#utility.yul\":5196:5199   */\n      dup6\n        /* \"#utility.yul\":5189:5193   */\n      0x20\n        /* \"#utility.yul\":5182:5187   */\n      dup7\n        /* \"#utility.yul\":5178:5194   */\n      add\n        /* \"#utility.yul\":5156:5208   */\n      tag_246\n      jump\t// in\n    tag_254:\n        /* \"#utility.yul\":5233:5262   */\n      tag_255\n        /* \"#utility.yul\":5255:5261   */\n      dup2\n        /* \"#utility.yul\":5233:5262   */\n      tag_248\n      jump\t// in\n    tag_255:\n        /* \"#utility.yul\":5228:5231   */\n      dup5\n        /* \"#utility.yul\":5224:5263   */\n      add\n        /* \"#utility.yul\":5217:5263   */\n      swap2\n      pop\n        /* \"#utility.yul\":4997:5269   */\n      pop\n      swap3\n      swap2\n      pop\n      pop\n      jump\t// out\n        /* \"#utility.yul\":5331:5930   */\n    tag_216:\n      0x00\n        /* \"#utility.yul\":5474:5478   */\n      0x40\n        /* \"#utility.yul\":5469:5472   */\n      dup4\n        /* \"#utility.yul\":5465:5479   */\n      add\n        /* \"#utility.yul\":5561:5565   */\n      0x00\n        /* \"#utility.yul\":5554:5559   */\n      dup4\n        /* \"#utility.yul\":5550:5566   */\n      add\n        /* \"#utility.yul\":5544:5567   */\n      mload\n        /* \"#utility.yul\":5614:5617   */\n      dup5\n        /* \"#utility.yul\":5608:5612   */\n      dup3\n        /* \"#utility.yul\":5604:5618   */\n      sub\n        /* \"#utility.yul\":5597:5601   */\n      0x00\n        /* \"#utility.yul\":5592:5595   */\n      dup7\n        /* \"#utility.yul\":5588:5602   */\n      add\n        /* \"#utility.yul\":5581:5619   */\n      mstore\n        /* \"#utility.yul\":5640:5713   */\n      tag_257\n        /* \"#utility.yul\":5708:5712   */\n      dup3\n        /* \"#utility.yul\":5694:5706   */\n      dup3\n        /* \"#utility.yul\":5640:5713   */\n      tag_239\n      jump\t// in\n    tag_257:\n        /* \"#utility.yul\":5632:5713   */\n      swap2\n      pop\n        /* \"#utility.yul\":5489:5724   */\n      pop\n        /* \"#utility.yul\":5811:5815   */\n      0x20\n        /* \"#utility.yul\":5804:5809   */\n      dup4\n        /* \"#utility.yul\":5800:5816   */\n      add\n        /* \"#utility.yul\":5794:5817   */\n      mload\n        /* \"#utility.yul\":5830:5893   */\n      tag_258\n        /* \"#utility.yul\":5887:5891   */\n      0x20\n        /* \"#utility.yul\":5882:5885   */\n      dup7\n        /* \"#utility.yul\":5878:5892   */\n      add\n        /* \"#utility.yul\":5864:5876   */\n      dup3\n        /* \"#utility.yul\":5830:5893   */\n      tag_259\n      jump\t// in\n    tag_258:\n        /* \"#utility.yul\":5734:5903   */\n      pop\n        /* \"#utility.yul\":5920:5924   */\n      dup1\n        /* \"#utility.yul\":5913:5924   */\n      swap2\n      pop\n        /* \"#utility.yul\":5443:5930   */\n      pop\n      swap3\n      swap2\n      pop\n      pop\n      jump\t// out\n        /* \"#utility.yul\":5992:6601   */\n    tag_260:\n      0x00\n        /* \"#utility.yul\":6145:6149   */\n      0x40\n        /* \"#utility.yul\":6140:6143   */\n      dup4\n        /* \"#utility.yul\":6136:6150   */\n      add\n        /* \"#utility.yul\":6232:6236   */\n      0x00\n        /* \"#utility.yul\":6225:6230   */\n      dup4\n        /* \"#utility.yul\":6221:6237   */\n      add\n        /* \"#utility.yul\":6215:6238   */\n      mload\n        /* \"#utility.yul\":6285:6288   */\n      dup5\n        /* \"#utility.yul\":6279:6283   */\n      dup3\n        /* \"#utility.yul\":6275:6289   */\n      sub\n        /* \"#utility.yul\":6268:6272   */\n      0x00\n        /* \"#utility.yul\":6263:6266   */\n      dup7\n        /* \"#utility.yul\":6259:6273   */\n      add\n        /* \"#utility.yul\":6252:6290   */\n      mstore\n        /* \"#utility.yul\":6311:6384   */\n      tag_262\n        /* \"#utility.yul\":6379:6383   */\n      dup3\n        /* \"#utility.yul\":6365:6377   */\n      dup3\n        /* \"#utility.yul\":6311:6384   */\n      tag_239\n      jump\t// in\n    tag_262:\n        /* \"#utility.yul\":6303:6384   */\n      swap2\n      pop\n        /* \"#utility.yul\":6160:6395   */\n      pop\n        /* \"#utility.yul\":6482:6486   */\n      0x20\n        /* \"#utility.yul\":6475:6480   */\n      dup4\n        /* \"#utility.yul\":6471:6487   */\n      add\n        /* \"#utility.yul\":6465:6488   */\n      mload\n        /* \"#utility.yul\":6501:6564   */\n      tag_263\n        /* \"#utility.yul\":6558:6562   */\n      0x20\n        /* \"#utility.yul\":6553:6556   */\n      dup7\n        /* \"#utility.yul\":6549:6563   */\n      add\n        /* \"#utility.yul\":6535:6547   */\n      dup3\n        /* \"#utility.yul\":6501:6564   */\n      tag_259\n      jump\t// in\n    tag_263:\n        /* \"#utility.yul\":6405:6574   */\n      pop\n        /* \"#utility.yul\":6591:6595   */\n      dup1\n        /* \"#utility.yul\":6584:6595   */\n      swap2\n      pop\n        /* \"#utility.yul\":6114:6601   */\n      pop\n      swap3\n      swap2\n      pop\n      pop\n      jump\t// out\n        /* \"#utility.yul\":6607:6715   */\n    tag_259:\n        /* \"#utility.yul\":6684:6708   */\n      tag_265\n        /* \"#utility.yul\":6702:6707   */\n      dup2\n        /* \"#utility.yul\":6684:6708   */\n      tag_266\n      jump\t// in\n    tag_265:\n        /* \"#utility.yul\":6679:6682   */\n      dup3\n        /* \"#utility.yul\":6672:6709   */\n      mstore\n        /* \"#utility.yul\":6662:6715   */\n      pop\n      pop\n      jump\t// out\n        /* \"#utility.yul\":6721:6839   */\n    tag_267:\n        /* \"#utility.yul\":6808:6832   */\n      tag_269\n        /* \"#utility.yul\":6826:6831   */\n      dup2\n        /* \"#utility.yul\":6808:6832   */\n      tag_266\n      jump\t// in\n    tag_269:\n        /* \"#utility.yul\":6803:6806   */\n      dup3\n        /* \"#utility.yul\":6796:6833   */\n      mstore\n        /* \"#utility.yul\":6786:6839   */\n      pop\n      pop\n      jump\t// out\n        /* \"#utility.yul\":6845:7067   */\n    tag_54:\n      0x00\n        /* \"#utility.yul\":6976:6978   */\n      0x20\n        /* \"#utility.yul\":6965:6974   */\n      dup3\n        /* \"#utility.yul\":6961:6979   */\n      add\n        /* \"#utility.yul\":6953:6979   */\n      swap1\n      pop\n        /* \"#utility.yul\":6989:7060   */\n      tag_271\n        /* \"#utility.yul\":7057:7058   */\n      0x00\n        /* \"#utility.yul\":7046:7055   */\n      dup4\n        /* \"#utility.yul\":7042:7059   */\n      add\n        /* \"#utility.yul\":7033:7039   */\n      dup5\n        /* \"#utility.yul\":6989:7060   */\n      tag_217\n      jump\t// in\n    tag_271:\n        /* \"#utility.yul\":6943:7067   */\n      swap3\n      swap2\n      pop\n      pop\n      jump\t// out\n        /* \"#utility.yul\":7073:7542   */\n    tag_44:\n      0x00\n        /* \"#utility.yul\":7302:7304   */\n      0x20\n        /* \"#utility.yul\":7291:7300   */\n      dup3\n        /* \"#utility.yul\":7287:7305   */\n      add\n        /* \"#utility.yul\":7279:7305   */\n      swap1\n      pop\n        /* \"#utility.yul\":7351:7360   */\n      dup2\n        /* \"#utility.yul\":7345:7349   */\n      dup2\n        /* \"#utility.yul\":7341:7361   */\n      sub\n        /* \"#utility.yul\":7337:7338   */\n      0x00\n        /* \"#utility.yul\":7326:7335   */\n      dup4\n        /* \"#utility.yul\":7322:7339   */\n      add\n        /* \"#utility.yul\":7315:7362   */\n      mstore\n        /* \"#utility.yul\":7379:7535   */\n      tag_273\n        /* \"#utility.yul\":7530:7534   */\n      dup2\n        /* \"#utility.yul\":7521:7527   */\n      dup5\n        /* \"#utility.yul\":7379:7535   */\n      tag_221\n      jump\t// in\n    tag_273:\n        /* \"#utility.yul\":7371:7535   */\n      swap1\n      pop\n        /* \"#utility.yul\":7269:7542   */\n      swap3\n      swap2\n      pop\n      pop\n      jump\t// out\n        /* \"#utility.yul\":7548:7861   */\n    tag_76:\n      0x00\n        /* \"#utility.yul\":7699:7701   */\n      0x20\n        /* \"#utility.yul\":7688:7697   */\n      dup3\n        /* \"#utility.yul\":7684:7702   */\n      add\n        /* \"#utility.yul\":7676:7702   */\n      swap1\n      pop\n        /* \"#utility.yul\":7748:7757   */\n      dup2\n        /* \"#utility.yul\":7742:7746   */\n      dup2\n        /* \"#utility.yul\":7738:7758   */\n      sub\n        /* \"#utility.yul\":7734:7735   */\n      0x00\n        /* \"#utility.yul\":7723:7732   */\n      dup4\n        /* \"#utility.yul\":7719:7736   */\n      add\n        /* \"#utility.yul\":7712:7759   */\n      mstore\n        /* \"#utility.yul\":7776:7854   */\n      tag_275\n        /* \"#utility.yul\":7849:7853   */\n      dup2\n        /* \"#utility.yul\":7840:7846   */\n      dup5\n        /* \"#utility.yul\":7776:7854   */\n      tag_249\n      jump\t// in\n    tag_275:\n        /* \"#utility.yul\":7768:7854   */\n      swap1\n      pop\n        /* \"#utility.yul\":7666:7861   */\n      swap3\n      swap2\n      pop\n      pop\n      jump\t// out\n        /* \"#utility.yul\":7867:8290   */\n    tag_30:\n      0x00\n        /* \"#utility.yul\":8046:8048   */\n      0x40\n        /* \"#utility.yul\":8035:8044   */\n      dup3\n        /* \"#utility.yul\":8031:8049   */\n      add\n        /* \"#utility.yul\":8023:8049   */\n      swap1\n      pop\n        /* \"#utility.yul\":8095:8104   */\n      dup2\n        /* \"#utility.yul\":8089:8093   */\n      dup2\n        /* \"#utility.yul\":8085:8105   */\n      sub\n        /* \"#utility.yul\":8081:8082   */\n      0x00\n        /* \"#utility.yul\":8070:8079   */\n      dup4\n        /* \"#utility.yul\":8066:8083   */\n      add\n        /* \"#utility.yul\":8059:8106   */\n      mstore\n        /* \"#utility.yul\":8123:8201   */\n      tag_277\n        /* \"#utility.yul\":8196:8200   */\n      dup2\n        /* \"#utility.yul\":8187:8193   */\n      dup6\n        /* \"#utility.yul\":8123:8201   */\n      tag_249\n      jump\t// in\n    tag_277:\n        /* \"#utility.yul\":8115:8201   */\n      swap1\n      pop\n        /* \"#utility.yul\":8211:8283   */\n      tag_278\n        /* \"#utility.yul\":8279:8281   */\n      0x20\n        /* \"#utility.yul\":8268:8277   */\n      dup4\n        /* \"#utility.yul\":8264:8282   */\n      add\n        /* \"#utility.yul\":8255:8261   */\n      dup5\n        /* \"#utility.yul\":8211:8283   */\n      tag_267\n      jump\t// in\n    tag_278:\n        /* \"#utility.yul\":8013:8290   */\n      swap4\n      swap3\n      pop\n      pop\n      pop\n      jump\t// out\n        /* \"#utility.yul\":8296:8665   */\n    tag_81:\n      0x00\n        /* \"#utility.yul\":8475:8477   */\n      0x20\n        /* \"#utility.yul\":8464:8473   */\n      dup3\n        /* \"#utility.yul\":8460:8478   */\n      add\n        /* \"#utility.yul\":8452:8478   */\n      swap1\n      pop\n        /* \"#utility.yul\":8524:8533   */\n      dup2\n        /* \"#utility.yul\":8518:8522   */\n      dup2\n        /* \"#utility.yul\":8514:8534   */\n      sub\n        /* \"#utility.yul\":8510:8511   */\n      0x00\n        /* \"#utility.yul\":8499:8508   */\n      dup4\n        /* \"#utility.yul\":8495:8512   */\n      add\n        /* \"#utility.yul\":8488:8535   */\n      mstore\n        /* \"#utility.yul\":8552:8658   */\n      tag_280\n        /* \"#utility.yul\":8653:8657   */\n      dup2\n        /* \"#utility.yul\":8644:8650   */\n      dup5\n        /* \"#utility.yul\":8552:8658   */\n      tag_260\n      jump\t// in\n    tag_280:\n        /* \"#utility.yul\":8544:8658   */\n      swap1\n      pop\n        /* \"#utility.yul\":8442:8665   */\n      swap3\n      swap2\n      pop\n      pop\n      jump\t// out\n        /* \"#utility.yul\":8671:8893   */\n    tag_34:\n      0x00\n        /* \"#utility.yul\":8802:8804   */\n      0x20\n        /* \"#utility.yul\":8791:8800   */\n      dup3\n        /* \"#utility.yul\":8787:8805   */\n      add\n        /* \"#utility.yul\":8779:8805   */\n      swap1\n      pop\n        /* \"#utility.yul\":8815:8886   */\n      tag_282\n        /* \"#utility.yul\":8883:8884   */\n      0x00\n        /* \"#utility.yul\":8872:8881   */\n      dup4\n        /* \"#utility.yul\":8868:8885   */\n      add\n        /* \"#utility.yul\":8859:8865   */\n      dup5\n        /* \"#utility.yul\":8815:8886   */\n      tag_267\n      jump\t// in\n    tag_282:\n        /* \"#utility.yul\":8769:8893   */\n      swap3\n      swap2\n      pop\n      pop\n      jump\t// out\n        /* \"#utility.yul\":8899:9440   */\n    tag_69:\n      0x00\n        /* \"#utility.yul\":9108:9111   */\n      0x80\n        /* \"#utility.yul\":9097:9106   */\n      dup3\n        /* \"#utility.yul\":9093:9112   */\n      add\n        /* \"#utility.yul\":9085:9112   */\n      swap1\n      pop\n        /* \"#utility.yul\":9122:9193   */\n      tag_284\n        /* \"#utility.yul\":9190:9191   */\n      0x00\n        /* \"#utility.yul\":9179:9188   */\n      dup4\n        /* \"#utility.yul\":9175:9192   */\n      add\n        /* \"#utility.yul\":9166:9172   */\n      dup8\n        /* \"#utility.yul\":9122:9193   */\n      tag_267\n      jump\t// in\n    tag_284:\n        /* \"#utility.yul\":9203:9269   */\n      tag_285\n        /* \"#utility.yul\":9265:9267   */\n      0x20\n        /* \"#utility.yul\":9254:9263   */\n      dup4\n        /* \"#utility.yul\":9250:9268   */\n      add\n        /* \"#utility.yul\":9241:9247   */\n      dup7\n        /* \"#utility.yul\":9203:9269   */\n      tag_235\n      jump\t// in\n    tag_285:\n        /* \"#utility.yul\":9279:9351   */\n      tag_286\n        /* \"#utility.yul\":9347:9349   */\n      0x40\n        /* \"#utility.yul\":9336:9345   */\n      dup4\n        /* \"#utility.yul\":9332:9350   */\n      add\n        /* \"#utility.yul\":9323:9329   */\n      dup6\n        /* \"#utility.yul\":9279:9351   */\n      tag_217\n      jump\t// in\n    tag_286:\n        /* \"#utility.yul\":9361:9433   */\n      tag_287\n        /* \"#utility.yul\":9429:9431   */\n      0x60\n        /* \"#utility.yul\":9418:9427   */\n      dup4\n        /* \"#utility.yul\":9414:9432   */\n      add\n        /* \"#utility.yul\":9405:9411   */\n      dup5\n        /* \"#utility.yul\":9361:9433   */\n      tag_267\n      jump\t// in\n    tag_287:\n        /* \"#utility.yul\":9075:9440   */\n      swap6\n      swap5\n      pop\n      pop\n      pop\n      pop\n      pop\n      jump\t// out\n        /* \"#utility.yul\":9446:9729   */\n    tag_174:\n      0x00\n        /* \"#utility.yul\":9512:9514   */\n      0x40\n        /* \"#utility.yul\":9506:9515   */\n      mload\n        /* \"#utility.yul\":9496:9515   */\n      swap1\n      pop\n        /* \"#utility.yul\":9554:9558   */\n      dup2\n        /* \"#utility.yul\":9546:9552   */\n      dup2\n        /* \"#utility.yul\":9542:9559   */\n      add\n        /* \"#utility.yul\":9661:9667   */\n      dup2\n        /* \"#utility.yul\":9649:9659   */\n      dup2\n        /* \"#utility.yul\":9646:9668   */\n      lt\n        /* \"#utility.yul\":9625:9643   */\n      0xffffffffffffffff\n        /* \"#utility.yul\":9613:9623   */\n      dup3\n        /* \"#utility.yul\":9610:9644   */\n      gt\n        /* \"#utility.yul\":9607:9669   */\n      or\n        /* \"#utility.yul\":9604:9606   */\n      iszero\n      tag_289\n      jumpi\n        /* \"#utility.yul\":9672:9690   */\n      tag_290\n      tag_291\n      jump\t// in\n    tag_290:\n        /* \"#utility.yul\":9604:9606   */\n    tag_289:\n        /* \"#utility.yul\":9712:9722   */\n      dup1\n        /* \"#utility.yul\":9708:9710   */\n      0x40\n        /* \"#utility.yul\":9701:9723   */\n      mstore\n        /* \"#utility.yul\":9486:9729   */\n      pop\n      swap2\n      swap1\n      pop\n      jump\t// out\n        /* \"#utility.yul\":9735:10056   */\n    tag_173:\n      0x00\n        /* \"#utility.yul\":9912:9930   */\n      0xffffffffffffffff\n        /* \"#utility.yul\":9904:9910   */\n      dup3\n        /* \"#utility.yul\":9901:9931   */\n      gt\n        /* \"#utility.yul\":9898:9900   */\n      iszero\n      tag_293\n      jumpi\n        /* \"#utility.yul\":9934:9952   */\n      tag_294\n      tag_291\n      jump\t// in\n    tag_294:\n        /* \"#utility.yul\":9898:9900   */\n    tag_293:\n        /* \"#utility.yul\":9984:9988   */\n      0x20\n        /* \"#utility.yul\":9976:9982   */\n      dup3\n        /* \"#utility.yul\":9972:9989   */\n      mul\n        /* \"#utility.yul\":9964:9989   */\n      swap1\n      pop\n        /* \"#utility.yul\":10044:10048   */\n      0x20\n        /* \"#utility.yul\":10038:10042   */\n      dup2\n        /* \"#utility.yul\":10034:10049   */\n      add\n        /* \"#utility.yul\":10026:10049   */\n      swap1\n      pop\n        /* \"#utility.yul\":9827:10056   */\n      swap2\n      swap1\n      pop\n      jump\t// out\n        /* \"#utility.yul\":10062:10394   */\n    tag_184:\n      0x00\n        /* \"#utility.yul\":10214:10232   */\n      0xffffffffffffffff\n        /* \"#utility.yul\":10206:10212   */\n      dup3\n        /* \"#utility.yul\":10203:10233   */\n      gt\n        /* \"#utility.yul\":10200:10202   */\n      iszero\n      tag_296\n      jumpi\n        /* \"#utility.yul\":10236:10254   */\n      tag_297\n      tag_291\n      jump\t// in\n    tag_297:\n        /* \"#utility.yul\":10200:10202   */\n    tag_296:\n        /* \"#utility.yul\":10321:10325   */\n      0x1f\n        /* \"#utility.yul\":10317:10326   */\n      not\n        /* \"#utility.yul\":10310:10314   */\n      0x1f\n        /* \"#utility.yul\":10302:10308   */\n      dup4\n        /* \"#utility.yul\":10298:10315   */\n      add\n        /* \"#utility.yul\":10294:10327   */\n      and\n        /* \"#utility.yul\":10286:10327   */\n      swap1\n      pop\n        /* \"#utility.yul\":10382:10386   */\n      0x20\n        /* \"#utility.yul\":10376:10380   */\n      dup2\n        /* \"#utility.yul\":10372:10387   */\n      add\n        /* \"#utility.yul\":10364:10387   */\n      swap1\n      pop\n        /* \"#utility.yul\":10129:10394   */\n      swap2\n      swap1\n      pop\n      jump\t// out\n        /* \"#utility.yul\":10400:10556   */\n    tag_228:\n      0x00\n        /* \"#utility.yul\":10514:10517   */\n      dup2\n        /* \"#utility.yul\":10506:10517   */\n      swap1\n      pop\n        /* \"#utility.yul\":10544:10548   */\n      0x20\n        /* \"#utility.yul\":10539:10542   */\n      dup3\n        /* \"#utility.yul\":10535:10549   */\n      add\n        /* \"#utility.yul\":10527:10549   */\n      swap1\n      pop\n        /* \"#utility.yul\":10496:10556   */\n      swap2\n      swap1\n      pop\n      jump\t// out\n        /* \"#utility.yul\":10562:10700   */\n    tag_224:\n      0x00\n        /* \"#utility.yul\":10687:10692   */\n      dup2\n        /* \"#utility.yul\":10681:10693   */\n      mload\n        /* \"#utility.yul\":10671:10693   */\n      swap1\n      pop\n        /* \"#utility.yul\":10660:10700   */\n      swap2\n      swap1\n      pop\n      jump\t// out\n        /* \"#utility.yul\":10706:10805   */\n    tag_242:\n      0x00\n        /* \"#utility.yul\":10792:10797   */\n      dup2\n        /* \"#utility.yul\":10786:10798   */\n      mload\n        /* \"#utility.yul\":10776:10798   */\n      swap1\n      pop\n        /* \"#utility.yul\":10765:10805   */\n      swap2\n      swap1\n      pop\n      jump\t// out\n        /* \"#utility.yul\":10811:10948   */\n    tag_234:\n      0x00\n        /* \"#utility.yul\":10937:10941   */\n      0x20\n        /* \"#utility.yul\":10932:10935   */\n      dup3\n        /* \"#utility.yul\":10928:10942   */\n      add\n        /* \"#utility.yul\":10920:10942   */\n      swap1\n      pop\n        /* \"#utility.yul\":10910:10948   */\n      swap2\n      swap1\n      pop\n      jump\t// out\n        /* \"#utility.yul\":10954:11162   */\n    tag_226:\n      0x00\n        /* \"#utility.yul\":11111:11117   */\n      dup3\n        /* \"#utility.yul\":11106:11109   */\n      dup3\n        /* \"#utility.yul\":11099:11118   */\n      mstore\n        /* \"#utility.yul\":11151:11155   */\n      0x20\n        /* \"#utility.yul\":11146:11149   */\n      dup3\n        /* \"#utility.yul\":11142:11156   */\n      add\n        /* \"#utility.yul\":11127:11156   */\n      swap1\n      pop\n        /* \"#utility.yul\":11089:11162   */\n      swap3\n      swap2\n      pop\n      pop\n      jump\t// out\n        /* \"#utility.yul\":11168:11327   */\n    tag_244:\n      0x00\n        /* \"#utility.yul\":11276:11282   */\n      dup3\n        /* \"#utility.yul\":11271:11274   */\n      dup3\n        /* \"#utility.yul\":11264:11283   */\n      mstore\n        /* \"#utility.yul\":11316:11320   */\n      0x20\n        /* \"#utility.yul\":11311:11314   */\n      dup3\n        /* \"#utility.yul\":11307:11321   */\n      add\n        /* \"#utility.yul\":11292:11321   */\n      swap1\n      pop\n        /* \"#utility.yul\":11254:11327   */\n      swap3\n      swap2\n      pop\n      pop\n      jump\t// out\n        /* \"#utility.yul\":11333:11502   */\n    tag_253:\n      0x00\n        /* \"#utility.yul\":11451:11457   */\n      dup3\n        /* \"#utility.yul\":11446:11449   */\n      dup3\n        /* \"#utility.yul\":11439:11458   */\n      mstore\n        /* \"#utility.yul\":11491:11495   */\n      0x20\n        /* \"#utility.yul\":11486:11489   */\n      dup3\n        /* \"#utility.yul\":11482:11496   */\n      add\n        /* \"#utility.yul\":11467:11496   */\n      swap1\n      pop\n        /* \"#utility.yul\":11429:11502   */\n      swap3\n      swap2\n      pop\n      pop\n      jump\t// out\n        /* \"#utility.yul\":11508:11813   */\n    tag_87:\n      0x00\n        /* \"#utility.yul\":11567:11587   */\n      tag_306\n        /* \"#utility.yul\":11585:11586   */\n      dup3\n        /* \"#utility.yul\":11567:11587   */\n      tag_266\n      jump\t// in\n    tag_306:\n        /* \"#utility.yul\":11562:11587   */\n      swap2\n      pop\n        /* \"#utility.yul\":11601:11621   */\n      tag_307\n        /* \"#utility.yul\":11619:11620   */\n      dup4\n        /* \"#utility.yul\":11601:11621   */\n      tag_266\n      jump\t// in\n    tag_307:\n        /* \"#utility.yul\":11596:11621   */\n      swap3\n      pop\n        /* \"#utility.yul\":11755:11756   */\n      dup3\n        /* \"#utility.yul\":11687:11753   */\n      0xffffffffffffffffffffffffffffffffffffffffffffffffffffffffffffffff\n        /* \"#utility.yul\":11683:11757   */\n      sub\n        /* \"#utility.yul\":11680:11681   */\n      dup3\n        /* \"#utility.yul\":11677:11758   */\n      gt\n        /* \"#utility.yul\":11674:11676   */\n      iszero\n      tag_308\n      jumpi\n        /* \"#utility.yul\":11761:11779   */\n      tag_309\n      tag_310\n      jump\t// in\n    tag_309:\n        /* \"#utility.yul\":11674:11676   */\n    tag_308:\n        /* \"#utility.yul\":11805:11806   */\n      dup3\n        /* \"#utility.yul\":11802:11803   */\n      dup3\n        /* \"#utility.yul\":11798:11807   */\n      add\n        /* \"#utility.yul\":11791:11807   */\n      swap1\n      pop\n        /* \"#utility.yul\":11552:11813   */\n      swap3\n      swap2\n      pop\n      pop\n      jump\t// out\n        /* \"#utility.yul\":11819:11915   */\n    tag_220:\n      0x00\n        /* \"#utility.yul\":11885:11909   */\n      tag_312\n        /* \"#utility.yul\":11903:11908   */\n      dup3\n        /* \"#utility.yul\":11885:11909   */\n      tag_313\n      jump\t// in\n    tag_312:\n        /* \"#utility.yul\":11874:11909   */\n      swap1\n      pop\n        /* \"#utility.yul\":11864:11915   */\n      swap2\n      swap1\n      pop\n      jump\t// out\n        /* \"#utility.yul\":11921:12011   */\n    tag_238:\n      0x00\n        /* \"#utility.yul\":11998:12003   */\n      dup2\n        /* \"#utility.yul\":11991:12004   */\n      iszero\n        /* \"#utility.yul\":11984:12005   */\n      iszero\n        /* \"#utility.yul\":11973:12005   */\n      swap1\n      pop\n        /* \"#utility.yul\":11963:12011   */\n      swap2\n      swap1\n      pop\n      jump\t// out\n        /* \"#utility.yul\":12017:12143   */\n    tag_313:\n      0x00\n        /* \"#utility.yul\":12094:12136   */\n      0xffffffffffffffffffffffffffffffffffffffff\n        /* \"#utility.yul\":12087:12092   */\n      dup3\n        /* \"#utility.yul\":12083:12137   */\n      and\n        /* \"#utility.yul\":12072:12137   */\n      swap1\n      pop\n        /* \"#utility.yul\":12062:12143   */\n      swap2\n      swap1\n      pop\n      jump\t// out\n        /* \"#utility.yul\":12149:12226   */\n    tag_266:\n      0x00\n        /* \"#utility.yul\":12215:12220   */\n      dup2\n        /* \"#utility.yul\":12204:12220   */\n      swap1\n      pop\n        /* \"#utility.yul\":12194:12226   */\n      swap2\n      swap1\n      pop\n      jump\t// out\n        /* \"#utility.yul\":12232:12386   */\n    tag_187:\n        /* \"#utility.yul\":12316:12322   */\n      dup3\n        /* \"#utility.yul\":12311:12314   */\n      dup2\n        /* \"#utility.yul\":12306:12309   */\n      dup4\n        /* \"#utility.yul\":12293:12323   */\n      calldatacopy\n        /* \"#utility.yul\":12378:12379   */\n      0x00\n        /* \"#utility.yul\":12369:12375   */\n      dup4\n        /* \"#utility.yul\":12364:12367   */\n      dup4\n        /* \"#utility.yul\":12360:12376   */\n      add\n        /* \"#utility.yul\":12353:12380   */\n      mstore\n        /* \"#utility.yul\":12283:12386   */\n      pop\n      pop\n      pop\n      jump\t// out\n        /* \"#utility.yul\":12392:12699   */\n    tag_246:\n        /* \"#utility.yul\":12460:12461   */\n      0x00\n        /* \"#utility.yul\":12470:12583   */\n    tag_319:\n        /* \"#utility.yul\":12484:12490   */\n      dup4\n        /* \"#utility.yul\":12481:12482   */\n      dup2\n        /* \"#utility.yul\":12478:12491   */\n      lt\n        /* \"#utility.yul\":12470:12583   */\n      iszero\n      tag_321\n      jumpi\n        /* \"#utility.yul\":12569:12570   */\n      dup1\n        /* \"#utility.yul\":12564:12567   */\n      dup3\n        /* \"#utility.yul\":12560:12571   */\n      add\n        /* \"#utility.yul\":12554:12572   */\n      mload\n        /* \"#utility.yul\":12550:12551   */\n      dup2\n        /* \"#utility.yul\":12545:12548   */\n      dup5\n        /* \"#utility.yul\":12541:12552   */\n      add\n        /* \"#utility.yul\":12534:12573   */\n      mstore\n        /* \"#utility.yul\":12506:12508   */\n      0x20\n        /* \"#utility.yul\":12503:12504   */\n      dup2\n        /* \"#utility.yul\":12499:12509   */\n      add\n        /* \"#utility.yul\":12494:12509   */\n      swap1\n      pop\n        /* \"#utility.yul\":12470:12583   */\n      jump(tag_319)\n    tag_321:\n        /* \"#utility.yul\":12601:12607   */\n      dup4\n        /* \"#utility.yul\":12598:12599   */\n      dup2\n        /* \"#utility.yul\":12595:12608   */\n      gt\n        /* \"#utility.yul\":12592:12594   */\n      iszero\n      tag_322\n      jumpi\n        /* \"#utility.yul\":12681:12682   */\n      0x00\n        /* \"#utility.yul\":12672:12678   */\n      dup5\n        /* \"#utility.yul\":12667:12670   */\n      dup5\n        /* \"#utility.yul\":12663:12679   */\n      add\n        /* \"#utility.yul\":12656:12683   */\n      mstore\n        /* \"#utility.yul\":12592:12594   */\n    tag_322:\n        /* \"#utility.yul\":12441:12699   */\n      pop\n      pop\n      pop\n      pop\n      jump\t// out\n        /* \"#utility.yul\":12705:13025   */\n    tag_91:\n      0x00\n        /* \"#utility.yul\":12786:12787   */\n      0x02\n        /* \"#utility.yul\":12780:12784   */\n      dup3\n        /* \"#utility.yul\":12776:12788   */\n      div\n        /* \"#utility.yul\":12766:12788   */\n      swap1\n      pop\n        /* \"#utility.yul\":12833:12834   */\n      0x01\n        /* \"#utility.yul\":12827:12831   */\n      dup3\n        /* \"#utility.yul\":12823:12835   */\n      and\n        /* \"#utility.yul\":12854:12872   */\n      dup1\n        /* \"#utility.yul\":12844:12846   */\n      tag_324\n      jumpi\n        /* \"#utility.yul\":12910:12914   */\n      0x7f\n        /* \"#utility.yul\":12902:12908   */\n      dup3\n        /* \"#utility.yul\":12898:12915   */\n      and\n        /* \"#utility.yul\":12888:12915   */\n      swap2\n      pop\n        /* \"#utility.yul\":12844:12846   */\n    tag_324:\n        /* \"#utility.yul\":12972:12974   */\n      0x20\n        /* \"#utility.yul\":12964:12970   */\n      dup3\n        /* \"#utility.yul\":12961:12975   */\n      lt\n        /* \"#utility.yul\":12941:12959   */\n      dup2\n        /* \"#utility.yul\":12938:12976   */\n      eq\n        /* \"#utility.yul\":12935:12937   */\n      iszero\n      tag_325\n      jumpi\n        /* \"#utility.yul\":12991:13009   */\n      tag_326\n      tag_327\n      jump\t// in\n    tag_326:\n        /* \"#utility.yul\":12935:12937   */\n    tag_325:\n        /* \"#utility.yul\":12756:13025   */\n      pop\n      swap2\n      swap1\n      pop\n      jump\t// out\n        /* \"#utility.yul\":13031:13264   */\n    tag_108:\n      0x00\n        /* \"#utility.yul\":13093:13117   */\n      tag_329\n        /* \"#utility.yul\":13111:13116   */\n      dup3\n        /* \"#utility.yul\":13093:13117   */\n      tag_266\n      jump\t// in\n    tag_329:\n        /* \"#utility.yul\":13084:13117   */\n      swap2\n      pop\n        /* \"#utility.yul\":13139:13205   */\n      0xffffffffffffffffffffffffffffffffffffffffffffffffffffffffffffffff\n        /* \"#utility.yul\":13132:13137   */\n      dup3\n        /* \"#utility.yul\":13129:13206   */\n      eq\n        /* \"#utility.yul\":13126:13128   */\n      iszero\n      tag_330\n      jumpi\n        /* \"#utility.yul\":13209:13227   */\n      tag_331\n      tag_310\n      jump\t// in\n    tag_331:\n        /* \"#utility.yul\":13126:13128   */\n    tag_330:\n        /* \"#utility.yul\":13256:13257   */\n      0x01\n        /* \"#utility.yul\":13249:13254   */\n      dup3\n        /* \"#utility.yul\":13245:13258   */\n      add\n        /* \"#utility.yul\":13238:13258   */\n      swap1\n      pop\n        /* \"#utility.yul\":13074:13264   */\n      swap2\n      swap1\n      pop\n      jump\t// out\n        /* \"#utility.yul\":13270:13450   */\n    tag_310:\n        /* \"#utility.yul\":13318:13395   */\n      0x4e487b7100000000000000000000000000000000000000000000000000000000\n        /* \"#utility.yul\":13315:13316   */\n      0x00\n        /* \"#utility.yul\":13308:13396   */\n      mstore\n        /* \"#utility.yul\":13415:13419   */\n      0x11\n        /* \"#utility.yul\":13412:13413   */\n      0x04\n        /* \"#utility.yul\":13405:13420   */\n      mstore\n        /* \"#utility.yul\":13439:13443   */\n      0x24\n        /* \"#utility.yul\":13436:13437   */\n      0x00\n        /* \"#utility.yul\":13429:13444   */\n      revert\n        /* \"#utility.yul\":13456:13636   */\n    tag_327:\n        /* \"#utility.yul\":13504:13581   */\n      0x4e487b7100000000000000000000000000000000000000000000000000000000\n        /* \"#utility.yul\":13501:13502   */\n      0x00\n        /* \"#utility.yul\":13494:13582   */\n      mstore\n        /* \"#utility.yul\":13601:13605   */\n      0x22\n        /* \"#utility.yul\":13598:13599   */\n      0x04\n        /* \"#utility.yul\":13591:13606   */\n      mstore\n        /* \"#utility.yul\":13625:13629   */\n      0x24\n        /* \"#utility.yul\":13622:13623   */\n      0x00\n        /* \"#utility.yul\":13615:13630   */\n      revert\n        /* \"#utility.yul\":13642:13822   */\n    tag_291:\n        /* \"#utility.yul\":13690:13767   */\n      0x4e487b7100000000000000000000000000000000000000000000000000000000\n        /* \"#utility.yul\":13687:13688   */\n      0x00\n        /* \"#utility.yul\":13680:13768   */\n      mstore\n        /* \"#utility.yul\":13787:13791   */\n      0x41\n        /* \"#utility.yul\":13784:13785   */\n      0x04\n        /* \"#utility.yul\":13777:13792   */\n      mstore\n        /* \"#utility.yul\":13811:13815   */\n      0x24\n        /* \"#utility.yul\":13808:13809   */\n      0x00\n        /* \"#utility.yul\":13801:13816   */\n      revert\n        /* \"#utility.yul\":13828:13930   */\n    tag_248:\n      0x00\n        /* \"#utility.yul\":13920:13922   */\n      0x1f\n        /* \"#utility.yul\":13916:13923   */\n      not\n        /* \"#utility.yul\":13911:13913   */\n      0x1f\n        /* \"#utility.yul\":13904:13909   */\n      dup4\n        /* \"#utility.yul\":13900:13914   */\n      add\n        /* \"#utility.yul\":13896:13924   */\n      and\n        /* \"#utility.yul\":13886:13924   */\n      swap1\n      pop\n        /* \"#utility.yul\":13876:13930   */\n      swap2\n      swap1\n      pop\n      jump\t// out\n        /* \"#utility.yul\":13936:14058   */\n    tag_191:\n        /* \"#utility.yul\":14009:14033   */\n      tag_337\n        /* \"#utility.yul\":14027:14032   */\n      dup2\n        /* \"#utility.yul\":14009:14033   */\n      tag_220\n      jump\t// in\n    tag_337:\n        /* \"#utility.yul\":14002:14007   */\n      dup2\n        /* \"#utility.yul\":13999:14034   */\n      eq\n        /* \"#utility.yul\":13989:13991   */\n      tag_338\n      jumpi\n        /* \"#utility.yul\":14048:14049   */\n      0x00\n        /* \"#utility.yul\":14045:14046   */\n      dup1\n        /* \"#utility.yul\":14038:14050   */\n      revert\n        /* \"#utility.yul\":13989:13991   */\n    tag_338:\n        /* \"#utility.yul\":13979:14058   */\n      pop\n      jump\t// out\n        /* \"#utility.yul\":14064:14186   */\n    tag_202:\n        /* \"#utility.yul\":14137:14161   */\n      tag_340\n        /* \"#utility.yul\":14155:14160   */\n      dup2\n        /* \"#utility.yul\":14137:14161   */\n      tag_266\n      jump\t// in\n    tag_340:\n        /* \"#utility.yul\":14130:14135   */\n      dup2\n        /* \"#utility.yul\":14127:14162   */\n      eq\n        /* \"#utility.yul\":14117:14119   */\n      tag_341\n      jumpi\n        /* \"#utility.yul\":14176:14177   */\n      0x00\n        /* \"#utility.yul\":14173:14174   */\n      dup1\n        /* \"#utility.yul\":14166:14178   */\n      revert\n        /* \"#utility.yul\":14117:14119   */\n    tag_341:\n        /* \"#utility.yul\":14107:14186   */\n      pop\n      jump\t// out\n\n    auxdata: 0xa26469706673582212204ca3b671092806c14182418e6baf9137e25bd08022c5498c5b81888a4ce9bfd764736f6c63430008000033\n}\n",
				"bytecode": {
					"linkReferences": {},
					"object": "608060405234801561001057600080fd5b5061147a806100206000396000f3fe608060405234801561001057600080fd5b50600436106101005760003560e01c80637a16fcb011610097578063a3ec138d11610066578063a3ec138d14610264578063b135648814610297578063e2ba53f0146102b5578063e9d6c6da146102d357610100565b80637a16fcb014610204578063836bc6921461022257806386278e771461023e5780639e7b8d611461024857610100565b8063609ff1bd116100d3578063609ff1bd1461018e57806362564c48146101ac57806369ba1a75146101ca57806378f305c6146101e657610100565b80630121b93f14610105578063013cf08b146101215780630a82dcb1146101525780634e69d56014610170575b600080fd5b61011f600480360381019061011a9190610e3f565b610303565b005b61013b60048036038101906101369190610e3f565b6103f2565b604051610149929190611078565b60405180910390f35b61015a6104ae565b60405161016791906110ca565b60405180910390f35b6101786104b8565b60405161018591906110ca565b60405180910390f35b6101966104c2565b6040516101a391906110ca565b60405180910390f35b6101b4610596565b6040516101c19190611034565b60405180910390f35b6101e460048036038101906101df9190610e3f565b610691565b005b6101ee61069b565b6040516101fb91906110ca565b60405180910390f35b61020c6106a5565b6040516102199190611019565b60405180910390f35b61023c60048036038101906102379190610dfe565b6106ce565b005b61024661085c565b005b610262600480360381019061025d9190610dd5565b610865565b005b61027e60048036038101906102799190610dd5565b6109af565b60405161028e94939291906110e5565b60405180910390f35b61029f610a0c565b6040516102ac91906110ca565b60405180910390f35b6102bd610a16565b6040516102ca9190611056565b60405180910390f35b6102ed60048036038101906102e89190610e3f565b610af8565b6040516102fa91906110a8565b60405180910390f35b6000600560003373ffffffffffffffffffffffffffffffffffffffff1673ffffffffffffffffffffffffffffffffffffffff16815260200190815260200160002090508060010160009054906101000a900460ff161561036257600080fd5b60018160010160006101000a81548160ff0219169083151502179055508181600201819055508060000154600683815481106103c7577f4e487b7100000000000000000000000000000000000000000000000000000000600052603260045260246000fd5b906000526020600020906002020160010160008282546103e7919061121d565b925050819055505050565b6006818154811061040257600080fd5b9060005260206000209060020201600091509050806000018054610425906112fd565b80601f0160208091040260200160405190810160405280929190818152602001828054610451906112fd565b801561049e5780601f106104735761010080835404028352916020019161049e565b820191906000526020600020905b81548152906001019060200180831161048157829003601f168201915b5050505050908060010154905082565b6000600454905090565b6000600154905090565b6000806000905060005b600680549050811015610591578160068281548110610514577f4e487b7100000000000000000000000000000000000000000000000000000000600052603260045260246000fd5b906000526020600020906002020160010154111561057e5760068181548110610566577f4e487b7100000000000000000000000000000000000000000000000000000000600052603260045260246000fd5b90600052602060002090600202016001015491508092505b80806105899061132f565b9150506104cc565b505090565b60606006805480602002602001604051908101604052809291908181526020016000905b8282101561068857838290600052602060002090600202016040518060400160405290816000820180546105ed906112fd565b80601f0160208091040260200160405190810160405280929190818152602001828054610619906112fd565b80156106665780601f1061063b57610100808354040283529160200191610666565b820191906000526020600020905b81548152906001019060200180831161064957829003601f168201915b50505050508152602001600182015481525050815260200190600101906105ba565b50505050905090565b8060018190555050565b6000600254905090565b60008060009054906101000a900473ffffffffffffffffffffffffffffffffffffffff16905090565b336000806101000a81548173ffffffffffffffffffffffffffffffffffffffff021916908373ffffffffffffffffffffffffffffffffffffffff1602179055506001600560008060009054906101000a900473ffffffffffffffffffffffffffffffffffffffff1673ffffffffffffffffffffffffffffffffffffffff1673ffffffffffffffffffffffffffffffffffffffff168152602001908152602001600020600001819055506000600181905550610787610bf6565b805160048190555060005b815181101561085857600660405180604001604052808484815181106107e1577f4e487b7100000000000000000000000000000000000000000000000000000000600052603260045260246000fd5b60200260200101518152602001600081525090806001815401808255809150506001900390600052602060002090600202016000909190919091506000820151816000019080519060200190610838929190610bff565b5060208201518160010155505080806108509061132f565b915050610792565b5050565b42600381905550565b60008054906101000a900473ffffffffffffffffffffffffffffffffffffffff1673ffffffffffffffffffffffffffffffffffffffff163373ffffffffffffffffffffffffffffffffffffffff1614801561090d5750600560008273ffffffffffffffffffffffffffffffffffffffff1673ffffffffffffffffffffffffffffffffffffffff16815260200190815260200160002060010160009054906101000a900460ff16155b801561095b57506000600560008373ffffffffffffffffffffffffffffffffffffffff1673ffffffffffffffffffffffffffffffffffffffff16815260200190815260200160002060000154145b61096457600080fd5b6001600560008373ffffffffffffffffffffffffffffffffffffffff1673ffffffffffffffffffffffffffffffffffffffff1681526020019081526020016000206000018190555050565b60056020528060005260406000206000915090508060000154908060010160009054906101000a900460ff16908060010160019054906101000a900473ffffffffffffffffffffffffffffffffffffffff16908060020154905084565b6000600354905090565b60606006610a226104c2565b81548110610a59577f4e487b7100000000000000000000000000000000000000000000000000000000600052603260045260246000fd5b90600052602060002090600202016000018054610a75906112fd565b80601f0160208091040260200160405190810160405280929190818152602001828054610aa1906112fd565b8015610aee5780601f10610ac357610100808354040283529160200191610aee565b820191906000526020600020905b815481529060010190602001808311610ad157829003601f168201915b5050505050905090565b610b00610c85565b60068281548110610b3a577f4e487b7100000000000000000000000000000000000000000000000000000000600052603260045260246000fd5b9060005260206000209060020201604051806040016040529081600082018054610b63906112fd565b80601f0160208091040260200160405190810160405280929190818152602001828054610b8f906112fd565b8015610bdc5780601f10610bb157610100808354040283529160200191610bdc565b820191906000526020600020905b815481529060010190602001808311610bbf57829003601f168201915b505050505081526020016001820154815250509050919050565b42600281905550565b828054610c0b906112fd565b90600052602060002090601f016020900481019282610c2d5760008555610c74565b82601f10610c4657805160ff1916838001178555610c74565b82800160010185558215610c74579182015b82811115610c73578251825591602001919060010190610c58565b5b509050610c819190610c9f565b5090565b604051806040016040528060608152602001600081525090565b5b80821115610cb8576000816000905550600101610ca0565b5090565b6000610ccf610cca8461115b565b61112a565b9050808382526020820190508260005b85811015610d0f5781358501610cf58882610d96565b845260208401935060208301925050600181019050610cdf565b5050509392505050565b6000610d2c610d2784611187565b61112a565b905082815260208101848484011115610d4457600080fd5b610d4f8482856112bb565b509392505050565b600081359050610d6681611416565b92915050565b600082601f830112610d7d57600080fd5b8135610d8d848260208601610cbc565b91505092915050565b600082601f830112610da757600080fd5b8135610db7848260208601610d19565b91505092915050565b600081359050610dcf8161142d565b92915050565b600060208284031215610de757600080fd5b6000610df584828501610d57565b91505092915050565b600060208284031215610e1057600080fd5b600082013567ffffffffffffffff811115610e2a57600080fd5b610e3684828501610d6c565b91505092915050565b600060208284031215610e5157600080fd5b6000610e5f84828501610dc0565b91505092915050565b6000610e748383610f81565b905092915050565b610e8581611273565b82525050565b6000610e96826111c7565b610ea081856111ea565b935083602082028501610eb2856111b7565b8060005b85811015610eee5784840389528151610ecf8582610e68565b9450610eda836111dd565b925060208a01995050600181019050610eb6565b50829750879550505050505092915050565b610f0981611285565b82525050565b6000610f1a826111d2565b610f2481856111fb565b9350610f348185602086016112ca565b610f3d81611405565b840191505092915050565b6000610f53826111d2565b610f5d818561120c565b9350610f6d8185602086016112ca565b610f7681611405565b840191505092915050565b60006040830160008301518482036000860152610f9e8282610f0f565b9150506020830151610fb36020860182610ffb565b508091505092915050565b60006040830160008301518482036000860152610fdb8282610f0f565b9150506020830151610ff06020860182610ffb565b508091505092915050565b611004816112b1565b82525050565b611013816112b1565b82525050565b600060208201905061102e6000830184610e7c565b92915050565b6000602082019050818103600083015261104e8184610e8b565b905092915050565b600060208201905081810360008301526110708184610f48565b905092915050565b600060408201905081810360008301526110928185610f48565b90506110a1602083018461100a565b9392505050565b600060208201905081810360008301526110c28184610fbe565b905092915050565b60006020820190506110df600083018461100a565b92915050565b60006080820190506110fa600083018761100a565b6111076020830186610f00565b6111146040830185610e7c565b611121606083018461100a565b95945050505050565b6000604051905081810181811067ffffffffffffffff82111715611151576111506113d6565b5b8060405250919050565b600067ffffffffffffffff821115611176576111756113d6565b5b602082029050602081019050919050565b600067ffffffffffffffff8211156111a2576111a16113d6565b5b601f19601f8301169050602081019050919050565b6000819050602082019050919050565b600081519050919050565b600081519050919050565b6000602082019050919050565b600082825260208201905092915050565b600082825260208201905092915050565b600082825260208201905092915050565b6000611228826112b1565b9150611233836112b1565b9250827fffffffffffffffffffffffffffffffffffffffffffffffffffffffffffffffff0382111561126857611267611378565b5b828201905092915050565b600061127e82611291565b9050919050565b60008115159050919050565b600073ffffffffffffffffffffffffffffffffffffffff82169050919050565b6000819050919050565b82818337600083830152505050565b60005b838110156112e85780820151818401526020810190506112cd565b838111156112f7576000848401525b50505050565b6000600282049050600182168061131557607f821691505b60208210811415611329576113286113a7565b5b50919050565b600061133a826112b1565b91507fffffffffffffffffffffffffffffffffffffffffffffffffffffffffffffffff82141561136d5761136c611378565b5b600182019050919050565b7f4e487b7100000000000000000000000000000000000000000000000000000000600052601160045260246000fd5b7f4e487b7100000000000000000000000000000000000000000000000000000000600052602260045260246000fd5b7f4e487b7100000000000000000000000000000000000000000000000000000000600052604160045260246000fd5b6000601f19601f8301169050919050565b61141f81611273565b811461142a57600080fd5b50565b611436816112b1565b811461144157600080fd5b5056fea26469706673582212204ca3b671092806c14182418e6baf9137e25bd08022c5498c5b81888a4ce9bfd764736f6c63430008000033",
					"opcodes": "PUSH1 0x80 PUSH1 0x40 MSTORE CALLVALUE DUP1 ISZERO PUSH2 0x10 JUMPI PUSH1 0x0 DUP1 REVERT JUMPDEST POP PUSH2 0x147A DUP1 PUSH2 0x20 PUSH1 0x0 CODECOPY PUSH1 0x0 RETURN INVALID PUSH1 0x80 PUSH1 0x40 MSTORE CALLVALUE DUP1 ISZERO PUSH2 0x10 JUMPI PUSH1 0x0 DUP1 REVERT JUMPDEST POP PUSH1 0x4 CALLDATASIZE LT PUSH2 0x100 JUMPI PUSH1 0x0 CALLDATALOAD PUSH1 0xE0 SHR DUP1 PUSH4 0x7A16FCB0 GT PUSH2 0x97 JUMPI DUP1 PUSH4 0xA3EC138D GT PUSH2 0x66 JUMPI DUP1 PUSH4 0xA3EC138D EQ PUSH2 0x264 JUMPI DUP1 PUSH4 0xB1356488 EQ PUSH2 0x297 JUMPI DUP1 PUSH4 0xE2BA53F0 EQ PUSH2 0x2B5 JUMPI DUP1 PUSH4 0xE9D6C6DA EQ PUSH2 0x2D3 JUMPI PUSH2 0x100 JUMP JUMPDEST DUP1 PUSH4 0x7A16FCB0 EQ PUSH2 0x204 JUMPI DUP1 PUSH4 0x836BC692 EQ PUSH2 0x222 JUMPI DUP1 PUSH4 0x86278E77 EQ PUSH2 0x23E JUMPI DUP1 PUSH4 0x9E7B8D61 EQ PUSH2 0x248 JUMPI PUSH2 0x100 JUMP JUMPDEST DUP1 PUSH4 0x609FF1BD GT PUSH2 0xD3 JUMPI DUP1 PUSH4 0x609FF1BD EQ PUSH2 0x18E JUMPI DUP1 PUSH4 0x62564C48 EQ PUSH2 0x1AC JUMPI DUP1 PUSH4 0x69BA1A75 EQ PUSH2 0x1CA JUMPI DUP1 PUSH4 0x78F305C6 EQ PUSH2 0x1E6 JUMPI PUSH2 0x100 JUMP JUMPDEST DUP1 PUSH4 0x121B93F EQ PUSH2 0x105 JUMPI DUP1 PUSH4 0x13CF08B EQ PUSH2 0x121 JUMPI DUP1 PUSH4 0xA82DCB1 EQ PUSH2 0x152 JUMPI DUP1 PUSH4 0x4E69D560 EQ PUSH2 0x170 JUMPI JUMPDEST PUSH1 0x0 DUP1 REVERT JUMPDEST PUSH2 0x11F PUSH1 0x4 DUP1 CALLDATASIZE SUB DUP2 ADD SWAP1 PUSH2 0x11A SWAP2 SWAP1 PUSH2 0xE3F JUMP JUMPDEST PUSH2 0x303 JUMP JUMPDEST STOP JUMPDEST PUSH2 0x13B PUSH1 0x4 DUP1 CALLDATASIZE SUB DUP2 ADD SWAP1 PUSH2 0x136 SWAP2 SWAP1 PUSH2 0xE3F JUMP JUMPDEST PUSH2 0x3F2 JUMP JUMPDEST PUSH1 0x40 MLOAD PUSH2 0x149 SWAP3 SWAP2 SWAP1 PUSH2 0x1078 JUMP JUMPDEST PUSH1 0x40 MLOAD DUP1 SWAP2 SUB SWAP1 RETURN JUMPDEST PUSH2 0x15A PUSH2 0x4AE JUMP JUMPDEST PUSH1 0x40 MLOAD PUSH2 0x167 SWAP2 SWAP1 PUSH2 0x10CA JUMP JUMPDEST PUSH1 0x40 MLOAD DUP1 SWAP2 SUB SWAP1 RETURN JUMPDEST PUSH2 0x178 PUSH2 0x4B8 JUMP JUMPDEST PUSH1 0x40 MLOAD PUSH2 0x185 SWAP2 SWAP1 PUSH2 0x10CA JUMP JUMPDEST PUSH1 0x40 MLOAD DUP1 SWAP2 SUB SWAP1 RETURN JUMPDEST PUSH2 0x196 PUSH2 0x4C2 JUMP JUMPDEST PUSH1 0x40 MLOAD PUSH2 0x1A3 SWAP2 SWAP1 PUSH2 0x10CA JUMP JUMPDEST PUSH1 0x40 MLOAD DUP1 SWAP2 SUB SWAP1 RETURN JUMPDEST PUSH2 0x1B4 PUSH2 0x596 JUMP JUMPDEST PUSH1 0x40 MLOAD PUSH2 0x1C1 SWAP2 SWAP1 PUSH2 0x1034 JUMP JUMPDEST PUSH1 0x40 MLOAD DUP1 SWAP2 SUB SWAP1 RETURN JUMPDEST PUSH2 0x1E4 PUSH1 0x4 DUP1 CALLDATASIZE SUB DUP2 ADD SWAP1 PUSH2 0x1DF SWAP2 SWAP1 PUSH2 0xE3F JUMP JUMPDEST PUSH2 0x691 JUMP JUMPDEST STOP JUMPDEST PUSH2 0x1EE PUSH2 0x69B JUMP JUMPDEST PUSH1 0x40 MLOAD PUSH2 0x1FB SWAP2 SWAP1 PUSH2 0x10CA JUMP JUMPDEST PUSH1 0x40 MLOAD DUP1 SWAP2 SUB SWAP1 RETURN JUMPDEST PUSH2 0x20C PUSH2 0x6A5 JUMP JUMPDEST PUSH1 0x40 MLOAD PUSH2 0x219 SWAP2 SWAP1 PUSH2 0x1019 JUMP JUMPDEST PUSH1 0x40 MLOAD DUP1 SWAP2 SUB SWAP1 RETURN JUMPDEST PUSH2 0x23C PUSH1 0x4 DUP1 CALLDATASIZE SUB DUP2 ADD SWAP1 PUSH2 0x237 SWAP2 SWAP1 PUSH2 0xDFE JUMP JUMPDEST PUSH2 0x6CE JUMP JUMPDEST STOP JUMPDEST PUSH2 0x246 PUSH2 0x85C JUMP JUMPDEST STOP JUMPDEST PUSH2 0x262 PUSH1 0x4 DUP1 CALLDATASIZE SUB DUP2 ADD SWAP1 PUSH2 0x25D SWAP2 SWAP1 PUSH2 0xDD5 JUMP JUMPDEST PUSH2 0x865 JUMP JUMPDEST STOP JUMPDEST PUSH2 0x27E PUSH1 0x4 DUP1 CALLDATASIZE SUB DUP2 ADD SWAP1 PUSH2 0x279 SWAP2 SWAP1 PUSH2 0xDD5 JUMP JUMPDEST PUSH2 0x9AF JUMP JUMPDEST PUSH1 0x40 MLOAD PUSH2 0x28E SWAP5 SWAP4 SWAP3 SWAP2 SWAP1 PUSH2 0x10E5 JUMP JUMPDEST PUSH1 0x40 MLOAD DUP1 SWAP2 SUB SWAP1 RETURN JUMPDEST PUSH2 0x29F PUSH2 0xA0C JUMP JUMPDEST PUSH1 0x40 MLOAD PUSH2 0x2AC SWAP2 SWAP1 PUSH2 0x10CA JUMP JUMPDEST PUSH1 0x40 MLOAD DUP1 SWAP2 SUB SWAP1 RETURN JUMPDEST PUSH2 0x2BD PUSH2 0xA16 JUMP JUMPDEST PUSH1 0x40 MLOAD PUSH2 0x2CA SWAP2 SWAP1 PUSH2 0x1056 JUMP JUMPDEST PUSH1 0x40 MLOAD DUP1 SWAP2 SUB SWAP1 RETURN JUMPDEST PUSH2 0x2ED PUSH1 0x4 DUP1 CALLDATASIZE SUB DUP2 ADD SWAP1 PUSH2 0x2E8 SWAP2 SWAP1 PUSH2 0xE3F JUMP JUMPDEST PUSH2 0xAF8 JUMP JUMPDEST PUSH1 0x40 MLOAD PUSH2 0x2FA SWAP2 SWAP1 PUSH2 0x10A8 JUMP JUMPDEST PUSH1 0x40 MLOAD DUP1 SWAP2 SUB SWAP1 RETURN JUMPDEST PUSH1 0x0 PUSH1 0x5 PUSH1 0x0 CALLER PUSH20 0xFFFFFFFFFFFFFFFFFFFFFFFFFFFFFFFFFFFFFFFF AND PUSH20 0xFFFFFFFFFFFFFFFFFFFFFFFFFFFFFFFFFFFFFFFF AND DUP2 MSTORE PUSH1 0x20 ADD SWAP1 DUP2 MSTORE PUSH1 0x20 ADD PUSH1 0x0 KECCAK256 SWAP1 POP DUP1 PUSH1 0x1 ADD PUSH1 0x0 SWAP1 SLOAD SWAP1 PUSH2 0x100 EXP SWAP1 DIV PUSH1 0xFF AND ISZERO PUSH2 0x362 JUMPI PUSH1 0x0 DUP1 REVERT JUMPDEST PUSH1 0x1 DUP2 PUSH1 0x1 ADD PUSH1 0x0 PUSH2 0x100 EXP DUP2 SLOAD DUP2 PUSH1 0xFF MUL NOT AND SWAP1 DUP4 ISZERO ISZERO MUL OR SWAP1 SSTORE POP DUP2 DUP2 PUSH1 0x2 ADD DUP2 SWAP1 SSTORE POP DUP1 PUSH1 0x0 ADD SLOAD PUSH1 0x6 DUP4 DUP2 SLOAD DUP2 LT PUSH2 0x3C7 JUMPI PUSH32 0x4E487B7100000000000000000000000000000000000000000000000000000000 PUSH1 0x0 MSTORE PUSH1 0x32 PUSH1 0x4 MSTORE PUSH1 0x24 PUSH1 0x0 REVERT JUMPDEST SWAP1 PUSH1 0x0 MSTORE PUSH1 0x20 PUSH1 0x0 KECCAK256 SWAP1 PUSH1 0x2 MUL ADD PUSH1 0x1 ADD PUSH1 0x0 DUP3 DUP3 SLOAD PUSH2 0x3E7 SWAP2 SWAP1 PUSH2 0x121D JUMP JUMPDEST SWAP3 POP POP DUP2 SWAP1 SSTORE POP POP POP JUMP JUMPDEST PUSH1 0x6 DUP2 DUP2 SLOAD DUP2 LT PUSH2 0x402 JUMPI PUSH1 0x0 DUP1 REVERT JUMPDEST SWAP1 PUSH1 0x0 MSTORE PUSH1 0x20 PUSH1 0x0 KECCAK256 SWAP1 PUSH1 0x2 MUL ADD PUSH1 0x0 SWAP2 POP SWAP1 POP DUP1 PUSH1 0x0 ADD DUP1 SLOAD PUSH2 0x425 SWAP1 PUSH2 0x12FD JUMP JUMPDEST DUP1 PUSH1 0x1F ADD PUSH1 0x20 DUP1 SWAP2 DIV MUL PUSH1 0x20 ADD PUSH1 0x40 MLOAD SWAP1 DUP2 ADD PUSH1 0x40 MSTORE DUP1 SWAP3 SWAP2 SWAP1 DUP2 DUP2 MSTORE PUSH1 0x20 ADD DUP3 DUP1 SLOAD PUSH2 0x451 SWAP1 PUSH2 0x12FD JUMP JUMPDEST DUP1 ISZERO PUSH2 0x49E JUMPI DUP1 PUSH1 0x1F LT PUSH2 0x473 JUMPI PUSH2 0x100 DUP1 DUP4 SLOAD DIV MUL DUP4 MSTORE SWAP2 PUSH1 0x20 ADD SWAP2 PUSH2 0x49E JUMP JUMPDEST DUP3 ADD SWAP2 SWAP1 PUSH1 0x0 MSTORE PUSH1 0x20 PUSH1 0x0 KECCAK256 SWAP1 JUMPDEST DUP2 SLOAD DUP2 MSTORE SWAP1 PUSH1 0x1 ADD SWAP1 PUSH1 0x20 ADD DUP1 DUP4 GT PUSH2 0x481 JUMPI DUP3 SWAP1 SUB PUSH1 0x1F AND DUP3 ADD SWAP2 JUMPDEST POP POP POP POP POP SWAP1 DUP1 PUSH1 0x1 ADD SLOAD SWAP1 POP DUP3 JUMP JUMPDEST PUSH1 0x0 PUSH1 0x4 SLOAD SWAP1 POP SWAP1 JUMP JUMPDEST PUSH1 0x0 PUSH1 0x1 SLOAD SWAP1 POP SWAP1 JUMP JUMPDEST PUSH1 0x0 DUP1 PUSH1 0x0 SWAP1 POP PUSH1 0x0 JUMPDEST PUSH1 0x6 DUP1 SLOAD SWAP1 POP DUP2 LT ISZERO PUSH2 0x591 JUMPI DUP2 PUSH1 0x6 DUP3 DUP2 SLOAD DUP2 LT PUSH2 0x514 JUMPI PUSH32 0x4E487B7100000000000000000000000000000000000000000000000000000000 PUSH1 0x0 MSTORE PUSH1 0x32 PUSH1 0x4 MSTORE PUSH1 0x24 PUSH1 0x0 REVERT JUMPDEST SWAP1 PUSH1 0x0 MSTORE PUSH1 0x20 PUSH1 0x0 KECCAK256 SWAP1 PUSH1 0x2 MUL ADD PUSH1 0x1 ADD SLOAD GT ISZERO PUSH2 0x57E JUMPI PUSH1 0x6 DUP2 DUP2 SLOAD DUP2 LT PUSH2 0x566 JUMPI PUSH32 0x4E487B7100000000000000000000000000000000000000000000000000000000 PUSH1 0x0 MSTORE PUSH1 0x32 PUSH1 0x4 MSTORE PUSH1 0x24 PUSH1 0x0 REVERT JUMPDEST SWAP1 PUSH1 0x0 MSTORE PUSH1 0x20 PUSH1 0x0 KECCAK256 SWAP1 PUSH1 0x2 MUL ADD PUSH1 0x1 ADD SLOAD SWAP2 POP DUP1 SWAP3 POP JUMPDEST DUP1 DUP1 PUSH2 0x589 SWAP1 PUSH2 0x132F JUMP JUMPDEST SWAP2 POP POP PUSH2 0x4CC JUMP JUMPDEST POP POP SWAP1 JUMP JUMPDEST PUSH1 0x60 PUSH1 0x6 DUP1 SLOAD DUP1 PUSH1 0x20 MUL PUSH1 0x20 ADD PUSH1 0x40 MLOAD SWAP1 DUP2 ADD PUSH1 0x40 MSTORE DUP1 SWAP3 SWAP2 SWAP1 DUP2 DUP2 MSTORE PUSH1 0x20 ADD PUSH1 0x0 SWAP1 JUMPDEST DUP3 DUP3 LT ISZERO PUSH2 0x688 JUMPI DUP4 DUP3 SWAP1 PUSH1 0x0 MSTORE PUSH1 0x20 PUSH1 0x0 KECCAK256 SWAP1 PUSH1 0x2 MUL ADD PUSH1 0x40 MLOAD DUP1 PUSH1 0x40 ADD PUSH1 0x40 MSTORE SWAP1 DUP2 PUSH1 0x0 DUP3 ADD DUP1 SLOAD PUSH2 0x5ED SWAP1 PUSH2 0x12FD JUMP JUMPDEST DUP1 PUSH1 0x1F ADD PUSH1 0x20 DUP1 SWAP2 DIV MUL PUSH1 0x20 ADD PUSH1 0x40 MLOAD SWAP1 DUP2 ADD PUSH1 0x40 MSTORE DUP1 SWAP3 SWAP2 SWAP1 DUP2 DUP2 MSTORE PUSH1 0x20 ADD DUP3 DUP1 SLOAD PUSH2 0x619 SWAP1 PUSH2 0x12FD JUMP JUMPDEST DUP1 ISZERO PUSH2 0x666 JUMPI DUP1 PUSH1 0x1F LT PUSH2 0x63B JUMPI PUSH2 0x100 DUP1 DUP4 SLOAD DIV MUL DUP4 MSTORE SWAP2 PUSH1 0x20 ADD SWAP2 PUSH2 0x666 JUMP JUMPDEST DUP3 ADD SWAP2 SWAP1 PUSH1 0x0 MSTORE PUSH1 0x20 PUSH1 0x0 KECCAK256 SWAP1 JUMPDEST DUP2 SLOAD DUP2 MSTORE SWAP1 PUSH1 0x1 ADD SWAP1 PUSH1 0x20 ADD DUP1 DUP4 GT PUSH2 0x649 JUMPI DUP3 SWAP1 SUB PUSH1 0x1F AND DUP3 ADD SWAP2 JUMPDEST POP POP POP POP POP DUP2 MSTORE PUSH1 0x20 ADD PUSH1 0x1 DUP3 ADD SLOAD DUP2 MSTORE POP POP DUP2 MSTORE PUSH1 0x20 ADD SWAP1 PUSH1 0x1 ADD SWAP1 PUSH2 0x5BA JUMP JUMPDEST POP POP POP POP SWAP1 POP SWAP1 JUMP JUMPDEST DUP1 PUSH1 0x1 DUP2 SWAP1 SSTORE POP POP JUMP JUMPDEST PUSH1 0x0 PUSH1 0x2 SLOAD SWAP1 POP SWAP1 JUMP JUMPDEST PUSH1 0x0 DUP1 PUSH1 0x0 SWAP1 SLOAD SWAP1 PUSH2 0x100 EXP SWAP1 DIV PUSH20 0xFFFFFFFFFFFFFFFFFFFFFFFFFFFFFFFFFFFFFFFF AND SWAP1 POP SWAP1 JUMP JUMPDEST CALLER PUSH1 0x0 DUP1 PUSH2 0x100 EXP DUP2 SLOAD DUP2 PUSH20 0xFFFFFFFFFFFFFFFFFFFFFFFFFFFFFFFFFFFFFFFF MUL NOT AND SWAP1 DUP4 PUSH20 0xFFFFFFFFFFFFFFFFFFFFFFFFFFFFFFFFFFFFFFFF AND MUL OR SWAP1 SSTORE POP PUSH1 0x1 PUSH1 0x5 PUSH1 0x0 DUP1 PUSH1 0x0 SWAP1 SLOAD SWAP1 PUSH2 0x100 EXP SWAP1 DIV PUSH20 0xFFFFFFFFFFFFFFFFFFFFFFFFFFFFFFFFFFFFFFFF AND PUSH20 0xFFFFFFFFFFFFFFFFFFFFFFFFFFFFFFFFFFFFFFFF AND PUSH20 0xFFFFFFFFFFFFFFFFFFFFFFFFFFFFFFFFFFFFFFFF AND DUP2 MSTORE PUSH1 0x20 ADD SWAP1 DUP2 MSTORE PUSH1 0x20 ADD PUSH1 0x0 KECCAK256 PUSH1 0x0 ADD DUP2 SWAP1 SSTORE POP PUSH1 0x0 PUSH1 0x1 DUP2 SWAP1 SSTORE POP PUSH2 0x787 PUSH2 0xBF6 JUMP JUMPDEST DUP1 MLOAD PUSH1 0x4 DUP2 SWAP1 SSTORE POP PUSH1 0x0 JUMPDEST DUP2 MLOAD DUP2 LT ISZERO PUSH2 0x858 JUMPI PUSH1 0x6 PUSH1 0x40 MLOAD DUP1 PUSH1 0x40 ADD PUSH1 0x40 MSTORE DUP1 DUP5 DUP5 DUP2 MLOAD DUP2 LT PUSH2 0x7E1 JUMPI PUSH32 0x4E487B7100000000000000000000000000000000000000000000000000000000 PUSH1 0x0 MSTORE PUSH1 0x32 PUSH1 0x4 MSTORE PUSH1 0x24 PUSH1 0x0 REVERT JUMPDEST PUSH1 0x20 MUL PUSH1 0x20 ADD ADD MLOAD DUP2 MSTORE PUSH1 0x20 ADD PUSH1 0x0 DUP2 MSTORE POP SWAP1 DUP1 PUSH1 0x1 DUP2 SLOAD ADD DUP1 DUP3 SSTORE DUP1 SWAP2 POP POP PUSH1 0x1 SWAP1 SUB SWAP1 PUSH1 0x0 MSTORE PUSH1 0x20 PUSH1 0x0 KECCAK256 SWAP1 PUSH1 0x2 MUL ADD PUSH1 0x0 SWAP1 SWAP2 SWAP1 SWAP2 SWAP1 SWAP2 POP PUSH1 0x0 DUP3 ADD MLOAD DUP2 PUSH1 0x0 ADD SWAP1 DUP1 MLOAD SWAP1 PUSH1 0x20 ADD SWAP1 PUSH2 0x838 SWAP3 SWAP2 SWAP1 PUSH2 0xBFF JUMP JUMPDEST POP PUSH1 0x20 DUP3 ADD MLOAD DUP2 PUSH1 0x1 ADD SSTORE POP POP DUP1 DUP1 PUSH2 0x850 SWAP1 PUSH2 0x132F JUMP JUMPDEST SWAP2 POP POP PUSH2 0x792 JUMP JUMPDEST POP POP JUMP JUMPDEST TIMESTAMP PUSH1 0x3 DUP2 SWAP1 SSTORE POP JUMP JUMPDEST PUSH1 0x0 DUP1 SLOAD SWAP1 PUSH2 0x100 EXP SWAP1 DIV PUSH20 0xFFFFFFFFFFFFFFFFFFFFFFFFFFFFFFFFFFFFFFFF AND PUSH20 0xFFFFFFFFFFFFFFFFFFFFFFFFFFFFFFFFFFFFFFFF AND CALLER PUSH20 0xFFFFFFFFFFFFFFFFFFFFFFFFFFFFFFFFFFFFFFFF AND EQ DUP1 ISZERO PUSH2 0x90D JUMPI POP PUSH1 0x5 PUSH1 0x0 DUP3 PUSH20 0xFFFFFFFFFFFFFFFFFFFFFFFFFFFFFFFFFFFFFFFF AND PUSH20 0xFFFFFFFFFFFFFFFFFFFFFFFFFFFFFFFFFFFFFFFF AND DUP2 MSTORE PUSH1 0x20 ADD SWAP1 DUP2 MSTORE PUSH1 0x20 ADD PUSH1 0x0 KECCAK256 PUSH1 0x1 ADD PUSH1 0x0 SWAP1 SLOAD SWAP1 PUSH2 0x100 EXP SWAP1 DIV PUSH1 0xFF AND ISZERO JUMPDEST DUP1 ISZERO PUSH2 0x95B JUMPI POP PUSH1 0x0 PUSH1 0x5 PUSH1 0x0 DUP4 PUSH20 0xFFFFFFFFFFFFFFFFFFFFFFFFFFFFFFFFFFFFFFFF AND PUSH20 0xFFFFFFFFFFFFFFFFFFFFFFFFFFFFFFFFFFFFFFFF AND DUP2 MSTORE PUSH1 0x20 ADD SWAP1 DUP2 MSTORE PUSH1 0x20 ADD PUSH1 0x0 KECCAK256 PUSH1 0x0 ADD SLOAD EQ JUMPDEST PUSH2 0x964 JUMPI PUSH1 0x0 DUP1 REVERT JUMPDEST PUSH1 0x1 PUSH1 0x5 PUSH1 0x0 DUP4 PUSH20 0xFFFFFFFFFFFFFFFFFFFFFFFFFFFFFFFFFFFFFFFF AND PUSH20 0xFFFFFFFFFFFFFFFFFFFFFFFFFFFFFFFFFFFFFFFF AND DUP2 MSTORE PUSH1 0x20 ADD SWAP1 DUP2 MSTORE PUSH1 0x20 ADD PUSH1 0x0 KECCAK256 PUSH1 0x0 ADD DUP2 SWAP1 SSTORE POP POP JUMP JUMPDEST PUSH1 0x5 PUSH1 0x20 MSTORE DUP1 PUSH1 0x0 MSTORE PUSH1 0x40 PUSH1 0x0 KECCAK256 PUSH1 0x0 SWAP2 POP SWAP1 POP DUP1 PUSH1 0x0 ADD SLOAD SWAP1 DUP1 PUSH1 0x1 ADD PUSH1 0x0 SWAP1 SLOAD SWAP1 PUSH2 0x100 EXP SWAP1 DIV PUSH1 0xFF AND SWAP1 DUP1 PUSH1 0x1 ADD PUSH1 0x1 SWAP1 SLOAD SWAP1 PUSH2 0x100 EXP SWAP1 DIV PUSH20 0xFFFFFFFFFFFFFFFFFFFFFFFFFFFFFFFFFFFFFFFF AND SWAP1 DUP1 PUSH1 0x2 ADD SLOAD SWAP1 POP DUP5 JUMP JUMPDEST PUSH1 0x0 PUSH1 0x3 SLOAD SWAP1 POP SWAP1 JUMP JUMPDEST PUSH1 0x60 PUSH1 0x6 PUSH2 0xA22 PUSH2 0x4C2 JUMP JUMPDEST DUP2 SLOAD DUP2 LT PUSH2 0xA59 JUMPI PUSH32 0x4E487B7100000000000000000000000000000000000000000000000000000000 PUSH1 0x0 MSTORE PUSH1 0x32 PUSH1 0x4 MSTORE PUSH1 0x24 PUSH1 0x0 REVERT JUMPDEST SWAP1 PUSH1 0x0 MSTORE PUSH1 0x20 PUSH1 0x0 KECCAK256 SWAP1 PUSH1 0x2 MUL ADD PUSH1 0x0 ADD DUP1 SLOAD PUSH2 0xA75 SWAP1 PUSH2 0x12FD JUMP JUMPDEST DUP1 PUSH1 0x1F ADD PUSH1 0x20 DUP1 SWAP2 DIV MUL PUSH1 0x20 ADD PUSH1 0x40 MLOAD SWAP1 DUP2 ADD PUSH1 0x40 MSTORE DUP1 SWAP3 SWAP2 SWAP1 DUP2 DUP2 MSTORE PUSH1 0x20 ADD DUP3 DUP1 SLOAD PUSH2 0xAA1 SWAP1 PUSH2 0x12FD JUMP JUMPDEST DUP1 ISZERO PUSH2 0xAEE JUMPI DUP1 PUSH1 0x1F LT PUSH2 0xAC3 JUMPI PUSH2 0x100 DUP1 DUP4 SLOAD DIV MUL DUP4 MSTORE SWAP2 PUSH1 0x20 ADD SWAP2 PUSH2 0xAEE JUMP JUMPDEST DUP3 ADD SWAP2 SWAP1 PUSH1 0x0 MSTORE PUSH1 0x20 PUSH1 0x0 KECCAK256 SWAP1 JUMPDEST DUP2 SLOAD DUP2 MSTORE SWAP1 PUSH1 0x1 ADD SWAP1 PUSH1 0x20 ADD DUP1 DUP4 GT PUSH2 0xAD1 JUMPI DUP3 SWAP1 SUB PUSH1 0x1F AND DUP3 ADD SWAP2 JUMPDEST POP POP POP POP POP SWAP1 POP SWAP1 JUMP JUMPDEST PUSH2 0xB00 PUSH2 0xC85 JUMP JUMPDEST PUSH1 0x6 DUP3 DUP2 SLOAD DUP2 LT PUSH2 0xB3A JUMPI PUSH32 0x4E487B7100000000000000000000000000000000000000000000000000000000 PUSH1 0x0 MSTORE PUSH1 0x32 PUSH1 0x4 MSTORE PUSH1 0x24 PUSH1 0x0 REVERT JUMPDEST SWAP1 PUSH1 0x0 MSTORE PUSH1 0x20 PUSH1 0x0 KECCAK256 SWAP1 PUSH1 0x2 MUL ADD PUSH1 0x40 MLOAD DUP1 PUSH1 0x40 ADD PUSH1 0x40 MSTORE SWAP1 DUP2 PUSH1 0x0 DUP3 ADD DUP1 SLOAD PUSH2 0xB63 SWAP1 PUSH2 0x12FD JUMP JUMPDEST DUP1 PUSH1 0x1F ADD PUSH1 0x20 DUP1 SWAP2 DIV MUL PUSH1 0x20 ADD PUSH1 0x40 MLOAD SWAP1 DUP2 ADD PUSH1 0x40 MSTORE DUP1 SWAP3 SWAP2 SWAP1 DUP2 DUP2 MSTORE PUSH1 0x20 ADD DUP3 DUP1 SLOAD PUSH2 0xB8F SWAP1 PUSH2 0x12FD JUMP JUMPDEST DUP1 ISZERO PUSH2 0xBDC JUMPI DUP1 PUSH1 0x1F LT PUSH2 0xBB1 JUMPI PUSH2 0x100 DUP1 DUP4 SLOAD DIV MUL DUP4 MSTORE SWAP2 PUSH1 0x20 ADD SWAP2 PUSH2 0xBDC JUMP JUMPDEST DUP3 ADD SWAP2 SWAP1 PUSH1 0x0 MSTORE PUSH1 0x20 PUSH1 0x0 KECCAK256 SWAP1 JUMPDEST DUP2 SLOAD DUP2 MSTORE SWAP1 PUSH1 0x1 ADD SWAP1 PUSH1 0x20 ADD DUP1 DUP4 GT PUSH2 0xBBF JUMPI DUP3 SWAP1 SUB PUSH1 0x1F AND DUP3 ADD SWAP2 JUMPDEST POP POP POP POP POP DUP2 MSTORE PUSH1 0x20 ADD PUSH1 0x1 DUP3 ADD SLOAD DUP2 MSTORE POP POP SWAP1 POP SWAP2 SWAP1 POP JUMP JUMPDEST TIMESTAMP PUSH1 0x2 DUP2 SWAP1 SSTORE POP JUMP JUMPDEST DUP3 DUP1 SLOAD PUSH2 0xC0B SWAP1 PUSH2 0x12FD JUMP JUMPDEST SWAP1 PUSH1 0x0 MSTORE PUSH1 0x20 PUSH1 0x0 KECCAK256 SWAP1 PUSH1 0x1F ADD PUSH1 0x20 SWAP1 DIV DUP2 ADD SWAP3 DUP3 PUSH2 0xC2D JUMPI PUSH1 0x0 DUP6 SSTORE PUSH2 0xC74 JUMP JUMPDEST DUP3 PUSH1 0x1F LT PUSH2 0xC46 JUMPI DUP1 MLOAD PUSH1 0xFF NOT AND DUP4 DUP1 ADD OR DUP6 SSTORE PUSH2 0xC74 JUMP JUMPDEST DUP3 DUP1 ADD PUSH1 0x1 ADD DUP6 SSTORE DUP3 ISZERO PUSH2 0xC74 JUMPI SWAP2 DUP3 ADD JUMPDEST DUP3 DUP2 GT ISZERO PUSH2 0xC73 JUMPI DUP3 MLOAD DUP3 SSTORE SWAP2 PUSH1 0x20 ADD SWAP2 SWAP1 PUSH1 0x1 ADD SWAP1 PUSH2 0xC58 JUMP JUMPDEST JUMPDEST POP SWAP1 POP PUSH2 0xC81 SWAP2 SWAP1 PUSH2 0xC9F JUMP JUMPDEST POP SWAP1 JUMP JUMPDEST PUSH1 0x40 MLOAD DUP1 PUSH1 0x40 ADD PUSH1 0x40 MSTORE DUP1 PUSH1 0x60 DUP2 MSTORE PUSH1 0x20 ADD PUSH1 0x0 DUP2 MSTORE POP SWAP1 JUMP JUMPDEST JUMPDEST DUP1 DUP3 GT ISZERO PUSH2 0xCB8 JUMPI PUSH1 0x0 DUP2 PUSH1 0x0 SWAP1 SSTORE POP PUSH1 0x1 ADD PUSH2 0xCA0 JUMP JUMPDEST POP SWAP1 JUMP JUMPDEST PUSH1 0x0 PUSH2 0xCCF PUSH2 0xCCA DUP5 PUSH2 0x115B JUMP JUMPDEST PUSH2 0x112A JUMP JUMPDEST SWAP1 POP DUP1 DUP4 DUP3 MSTORE PUSH1 0x20 DUP3 ADD SWAP1 POP DUP3 PUSH1 0x0 JUMPDEST DUP6 DUP2 LT ISZERO PUSH2 0xD0F JUMPI DUP2 CALLDATALOAD DUP6 ADD PUSH2 0xCF5 DUP9 DUP3 PUSH2 0xD96 JUMP JUMPDEST DUP5 MSTORE PUSH1 0x20 DUP5 ADD SWAP4 POP PUSH1 0x20 DUP4 ADD SWAP3 POP POP PUSH1 0x1 DUP2 ADD SWAP1 POP PUSH2 0xCDF JUMP JUMPDEST POP POP POP SWAP4 SWAP3 POP POP POP JUMP JUMPDEST PUSH1 0x0 PUSH2 0xD2C PUSH2 0xD27 DUP5 PUSH2 0x1187 JUMP JUMPDEST PUSH2 0x112A JUMP JUMPDEST SWAP1 POP DUP3 DUP2 MSTORE PUSH1 0x20 DUP2 ADD DUP5 DUP5 DUP5 ADD GT ISZERO PUSH2 0xD44 JUMPI PUSH1 0x0 DUP1 REVERT JUMPDEST PUSH2 0xD4F DUP5 DUP3 DUP6 PUSH2 0x12BB JUMP JUMPDEST POP SWAP4 SWAP3 POP POP POP JUMP JUMPDEST PUSH1 0x0 DUP2 CALLDATALOAD SWAP1 POP PUSH2 0xD66 DUP2 PUSH2 0x1416 JUMP JUMPDEST SWAP3 SWAP2 POP POP JUMP JUMPDEST PUSH1 0x0 DUP3 PUSH1 0x1F DUP4 ADD SLT PUSH2 0xD7D JUMPI PUSH1 0x0 DUP1 REVERT JUMPDEST DUP2 CALLDATALOAD PUSH2 0xD8D DUP5 DUP3 PUSH1 0x20 DUP7 ADD PUSH2 0xCBC JUMP JUMPDEST SWAP2 POP POP SWAP3 SWAP2 POP POP JUMP JUMPDEST PUSH1 0x0 DUP3 PUSH1 0x1F DUP4 ADD SLT PUSH2 0xDA7 JUMPI PUSH1 0x0 DUP1 REVERT JUMPDEST DUP2 CALLDATALOAD PUSH2 0xDB7 DUP5 DUP3 PUSH1 0x20 DUP7 ADD PUSH2 0xD19 JUMP JUMPDEST SWAP2 POP POP SWAP3 SWAP2 POP POP JUMP JUMPDEST PUSH1 0x0 DUP2 CALLDATALOAD SWAP1 POP PUSH2 0xDCF DUP2 PUSH2 0x142D JUMP JUMPDEST SWAP3 SWAP2 POP POP JUMP JUMPDEST PUSH1 0x0 PUSH1 0x20 DUP3 DUP5 SUB SLT ISZERO PUSH2 0xDE7 JUMPI PUSH1 0x0 DUP1 REVERT JUMPDEST PUSH1 0x0 PUSH2 0xDF5 DUP5 DUP3 DUP6 ADD PUSH2 0xD57 JUMP JUMPDEST SWAP2 POP POP SWAP3 SWAP2 POP POP JUMP JUMPDEST PUSH1 0x0 PUSH1 0x20 DUP3 DUP5 SUB SLT ISZERO PUSH2 0xE10 JUMPI PUSH1 0x0 DUP1 REVERT JUMPDEST PUSH1 0x0 DUP3 ADD CALLDATALOAD PUSH8 0xFFFFFFFFFFFFFFFF DUP2 GT ISZERO PUSH2 0xE2A JUMPI PUSH1 0x0 DUP1 REVERT JUMPDEST PUSH2 0xE36 DUP5 DUP3 DUP6 ADD PUSH2 0xD6C JUMP JUMPDEST SWAP2 POP POP SWAP3 SWAP2 POP POP JUMP JUMPDEST PUSH1 0x0 PUSH1 0x20 DUP3 DUP5 SUB SLT ISZERO PUSH2 0xE51 JUMPI PUSH1 0x0 DUP1 REVERT JUMPDEST PUSH1 0x0 PUSH2 0xE5F DUP5 DUP3 DUP6 ADD PUSH2 0xDC0 JUMP JUMPDEST SWAP2 POP POP SWAP3 SWAP2 POP POP JUMP JUMPDEST PUSH1 0x0 PUSH2 0xE74 DUP4 DUP4 PUSH2 0xF81 JUMP JUMPDEST SWAP1 POP SWAP3 SWAP2 POP POP JUMP JUMPDEST PUSH2 0xE85 DUP2 PUSH2 0x1273 JUMP JUMPDEST DUP3 MSTORE POP POP JUMP JUMPDEST PUSH1 0x0 PUSH2 0xE96 DUP3 PUSH2 0x11C7 JUMP JUMPDEST PUSH2 0xEA0 DUP2 DUP6 PUSH2 0x11EA JUMP JUMPDEST SWAP4 POP DUP4 PUSH1 0x20 DUP3 MUL DUP6 ADD PUSH2 0xEB2 DUP6 PUSH2 0x11B7 JUMP JUMPDEST DUP1 PUSH1 0x0 JUMPDEST DUP6 DUP2 LT ISZERO PUSH2 0xEEE JUMPI DUP5 DUP5 SUB DUP10 MSTORE DUP2 MLOAD PUSH2 0xECF DUP6 DUP3 PUSH2 0xE68 JUMP JUMPDEST SWAP5 POP PUSH2 0xEDA DUP4 PUSH2 0x11DD JUMP JUMPDEST SWAP3 POP PUSH1 0x20 DUP11 ADD SWAP10 POP POP PUSH1 0x1 DUP2 ADD SWAP1 POP PUSH2 0xEB6 JUMP JUMPDEST POP DUP3 SWAP8 POP DUP8 SWAP6 POP POP POP POP POP POP SWAP3 SWAP2 POP POP JUMP JUMPDEST PUSH2 0xF09 DUP2 PUSH2 0x1285 JUMP JUMPDEST DUP3 MSTORE POP POP JUMP JUMPDEST PUSH1 0x0 PUSH2 0xF1A DUP3 PUSH2 0x11D2 JUMP JUMPDEST PUSH2 0xF24 DUP2 DUP6 PUSH2 0x11FB JUMP JUMPDEST SWAP4 POP PUSH2 0xF34 DUP2 DUP6 PUSH1 0x20 DUP7 ADD PUSH2 0x12CA JUMP JUMPDEST PUSH2 0xF3D DUP2 PUSH2 0x1405 JUMP JUMPDEST DUP5 ADD SWAP2 POP POP SWAP3 SWAP2 POP POP JUMP JUMPDEST PUSH1 0x0 PUSH2 0xF53 DUP3 PUSH2 0x11D2 JUMP JUMPDEST PUSH2 0xF5D DUP2 DUP6 PUSH2 0x120C JUMP JUMPDEST SWAP4 POP PUSH2 0xF6D DUP2 DUP6 PUSH1 0x20 DUP7 ADD PUSH2 0x12CA JUMP JUMPDEST PUSH2 0xF76 DUP2 PUSH2 0x1405 JUMP JUMPDEST DUP5 ADD SWAP2 POP POP SWAP3 SWAP2 POP POP JUMP JUMPDEST PUSH1 0x0 PUSH1 0x40 DUP4 ADD PUSH1 0x0 DUP4 ADD MLOAD DUP5 DUP3 SUB PUSH1 0x0 DUP7 ADD MSTORE PUSH2 0xF9E DUP3 DUP3 PUSH2 0xF0F JUMP JUMPDEST SWAP2 POP POP PUSH1 0x20 DUP4 ADD MLOAD PUSH2 0xFB3 PUSH1 0x20 DUP7 ADD DUP3 PUSH2 0xFFB JUMP JUMPDEST POP DUP1 SWAP2 POP POP SWAP3 SWAP2 POP POP JUMP JUMPDEST PUSH1 0x0 PUSH1 0x40 DUP4 ADD PUSH1 0x0 DUP4 ADD MLOAD DUP5 DUP3 SUB PUSH1 0x0 DUP7 ADD MSTORE PUSH2 0xFDB DUP3 DUP3 PUSH2 0xF0F JUMP JUMPDEST SWAP2 POP POP PUSH1 0x20 DUP4 ADD MLOAD PUSH2 0xFF0 PUSH1 0x20 DUP7 ADD DUP3 PUSH2 0xFFB JUMP JUMPDEST POP DUP1 SWAP2 POP POP SWAP3 SWAP2 POP POP JUMP JUMPDEST PUSH2 0x1004 DUP2 PUSH2 0x12B1 JUMP JUMPDEST DUP3 MSTORE POP POP JUMP JUMPDEST PUSH2 0x1013 DUP2 PUSH2 0x12B1 JUMP JUMPDEST DUP3 MSTORE POP POP JUMP JUMPDEST PUSH1 0x0 PUSH1 0x20 DUP3 ADD SWAP1 POP PUSH2 0x102E PUSH1 0x0 DUP4 ADD DUP5 PUSH2 0xE7C JUMP JUMPDEST SWAP3 SWAP2 POP POP JUMP JUMPDEST PUSH1 0x0 PUSH1 0x20 DUP3 ADD SWAP1 POP DUP2 DUP2 SUB PUSH1 0x0 DUP4 ADD MSTORE PUSH2 0x104E DUP2 DUP5 PUSH2 0xE8B JUMP JUMPDEST SWAP1 POP SWAP3 SWAP2 POP POP JUMP JUMPDEST PUSH1 0x0 PUSH1 0x20 DUP3 ADD SWAP1 POP DUP2 DUP2 SUB PUSH1 0x0 DUP4 ADD MSTORE PUSH2 0x1070 DUP2 DUP5 PUSH2 0xF48 JUMP JUMPDEST SWAP1 POP SWAP3 SWAP2 POP POP JUMP JUMPDEST PUSH1 0x0 PUSH1 0x40 DUP3 ADD SWAP1 POP DUP2 DUP2 SUB PUSH1 0x0 DUP4 ADD MSTORE PUSH2 0x1092 DUP2 DUP6 PUSH2 0xF48 JUMP JUMPDEST SWAP1 POP PUSH2 0x10A1 PUSH1 0x20 DUP4 ADD DUP5 PUSH2 0x100A JUMP JUMPDEST SWAP4 SWAP3 POP POP POP JUMP JUMPDEST PUSH1 0x0 PUSH1 0x20 DUP3 ADD SWAP1 POP DUP2 DUP2 SUB PUSH1 0x0 DUP4 ADD MSTORE PUSH2 0x10C2 DUP2 DUP5 PUSH2 0xFBE JUMP JUMPDEST SWAP1 POP SWAP3 SWAP2 POP POP JUMP JUMPDEST PUSH1 0x0 PUSH1 0x20 DUP3 ADD SWAP1 POP PUSH2 0x10DF PUSH1 0x0 DUP4 ADD DUP5 PUSH2 0x100A JUMP JUMPDEST SWAP3 SWAP2 POP POP JUMP JUMPDEST PUSH1 0x0 PUSH1 0x80 DUP3 ADD SWAP1 POP PUSH2 0x10FA PUSH1 0x0 DUP4 ADD DUP8 PUSH2 0x100A JUMP JUMPDEST PUSH2 0x1107 PUSH1 0x20 DUP4 ADD DUP7 PUSH2 0xF00 JUMP JUMPDEST PUSH2 0x1114 PUSH1 0x40 DUP4 ADD DUP6 PUSH2 0xE7C JUMP JUMPDEST PUSH2 0x1121 PUSH1 0x60 DUP4 ADD DUP5 PUSH2 0x100A JUMP JUMPDEST SWAP6 SWAP5 POP POP POP POP POP JUMP JUMPDEST PUSH1 0x0 PUSH1 0x40 MLOAD SWAP1 POP DUP2 DUP2 ADD DUP2 DUP2 LT PUSH8 0xFFFFFFFFFFFFFFFF DUP3 GT OR ISZERO PUSH2 0x1151 JUMPI PUSH2 0x1150 PUSH2 0x13D6 JUMP JUMPDEST JUMPDEST DUP1 PUSH1 0x40 MSTORE POP SWAP2 SWAP1 POP JUMP JUMPDEST PUSH1 0x0 PUSH8 0xFFFFFFFFFFFFFFFF DUP3 GT ISZERO PUSH2 0x1176 JUMPI PUSH2 0x1175 PUSH2 0x13D6 JUMP JUMPDEST JUMPDEST PUSH1 0x20 DUP3 MUL SWAP1 POP PUSH1 0x20 DUP2 ADD SWAP1 POP SWAP2 SWAP1 POP JUMP JUMPDEST PUSH1 0x0 PUSH8 0xFFFFFFFFFFFFFFFF DUP3 GT ISZERO PUSH2 0x11A2 JUMPI PUSH2 0x11A1 PUSH2 0x13D6 JUMP JUMPDEST JUMPDEST PUSH1 0x1F NOT PUSH1 0x1F DUP4 ADD AND SWAP1 POP PUSH1 0x20 DUP2 ADD SWAP1 POP SWAP2 SWAP1 POP JUMP JUMPDEST PUSH1 0x0 DUP2 SWAP1 POP PUSH1 0x20 DUP3 ADD SWAP1 POP SWAP2 SWAP1 POP JUMP JUMPDEST PUSH1 0x0 DUP2 MLOAD SWAP1 POP SWAP2 SWAP1 POP JUMP JUMPDEST PUSH1 0x0 DUP2 MLOAD SWAP1 POP SWAP2 SWAP1 POP JUMP JUMPDEST PUSH1 0x0 PUSH1 0x20 DUP3 ADD SWAP1 POP SWAP2 SWAP1 POP JUMP JUMPDEST PUSH1 0x0 DUP3 DUP3 MSTORE PUSH1 0x20 DUP3 ADD SWAP1 POP SWAP3 SWAP2 POP POP JUMP JUMPDEST PUSH1 0x0 DUP3 DUP3 MSTORE PUSH1 0x20 DUP3 ADD SWAP1 POP SWAP3 SWAP2 POP POP JUMP JUMPDEST PUSH1 0x0 DUP3 DUP3 MSTORE PUSH1 0x20 DUP3 ADD SWAP1 POP SWAP3 SWAP2 POP POP JUMP JUMPDEST PUSH1 0x0 PUSH2 0x1228 DUP3 PUSH2 0x12B1 JUMP JUMPDEST SWAP2 POP PUSH2 0x1233 DUP4 PUSH2 0x12B1 JUMP JUMPDEST SWAP3 POP DUP3 PUSH32 0xFFFFFFFFFFFFFFFFFFFFFFFFFFFFFFFFFFFFFFFFFFFFFFFFFFFFFFFFFFFFFFFF SUB DUP3 GT ISZERO PUSH2 0x1268 JUMPI PUSH2 0x1267 PUSH2 0x1378 JUMP JUMPDEST JUMPDEST DUP3 DUP3 ADD SWAP1 POP SWAP3 SWAP2 POP POP JUMP JUMPDEST PUSH1 0x0 PUSH2 0x127E DUP3 PUSH2 0x1291 JUMP JUMPDEST SWAP1 POP SWAP2 SWAP1 POP JUMP JUMPDEST PUSH1 0x0 DUP2 ISZERO ISZERO SWAP1 POP SWAP2 SWAP1 POP JUMP JUMPDEST PUSH1 0x0 PUSH20 0xFFFFFFFFFFFFFFFFFFFFFFFFFFFFFFFFFFFFFFFF DUP3 AND SWAP1 POP SWAP2 SWAP1 POP JUMP JUMPDEST PUSH1 0x0 DUP2 SWAP1 POP SWAP2 SWAP1 POP JUMP JUMPDEST DUP3 DUP2 DUP4 CALLDATACOPY PUSH1 0x0 DUP4 DUP4 ADD MSTORE POP POP POP JUMP JUMPDEST PUSH1 0x0 JUMPDEST DUP4 DUP2 LT ISZERO PUSH2 0x12E8 JUMPI DUP1 DUP3 ADD MLOAD DUP2 DUP5 ADD MSTORE PUSH1 0x20 DUP2 ADD SWAP1 POP PUSH2 0x12CD JUMP JUMPDEST DUP4 DUP2 GT ISZERO PUSH2 0x12F7 JUMPI PUSH1 0x0 DUP5 DUP5 ADD MSTORE JUMPDEST POP POP POP POP JUMP JUMPDEST PUSH1 0x0 PUSH1 0x2 DUP3 DIV SWAP1 POP PUSH1 0x1 DUP3 AND DUP1 PUSH2 0x1315 JUMPI PUSH1 0x7F DUP3 AND SWAP2 POP JUMPDEST PUSH1 0x20 DUP3 LT DUP2 EQ ISZERO PUSH2 0x1329 JUMPI PUSH2 0x1328 PUSH2 0x13A7 JUMP JUMPDEST JUMPDEST POP SWAP2 SWAP1 POP JUMP JUMPDEST PUSH1 0x0 PUSH2 0x133A DUP3 PUSH2 0x12B1 JUMP JUMPDEST SWAP2 POP PUSH32 0xFFFFFFFFFFFFFFFFFFFFFFFFFFFFFFFFFFFFFFFFFFFFFFFFFFFFFFFFFFFFFFFF DUP3 EQ ISZERO PUSH2 0x136D JUMPI PUSH2 0x136C PUSH2 0x1378 JUMP JUMPDEST JUMPDEST PUSH1 0x1 DUP3 ADD SWAP1 POP SWAP2 SWAP1 POP JUMP JUMPDEST PUSH32 0x4E487B7100000000000000000000000000000000000000000000000000000000 PUSH1 0x0 MSTORE PUSH1 0x11 PUSH1 0x4 MSTORE PUSH1 0x24 PUSH1 0x0 REVERT JUMPDEST PUSH32 0x4E487B7100000000000000000000000000000000000000000000000000000000 PUSH1 0x0 MSTORE PUSH1 0x22 PUSH1 0x4 MSTORE PUSH1 0x24 PUSH1 0x0 REVERT JUMPDEST PUSH32 0x4E487B7100000000000000000000000000000000000000000000000000000000 PUSH1 0x0 MSTORE PUSH1 0x41 PUSH1 0x4 MSTORE PUSH1 0x24 PUSH1 0x0 REVERT JUMPDEST PUSH1 0x0 PUSH1 0x1F NOT PUSH1 0x1F DUP4 ADD AND SWAP1 POP SWAP2 SWAP1 POP JUMP JUMPDEST PUSH2 0x141F DUP2 PUSH2 0x1273 JUMP JUMPDEST DUP2 EQ PUSH2 0x142A JUMPI PUSH1 0x0 DUP1 REVERT JUMPDEST POP JUMP JUMPDEST PUSH2 0x1436 DUP2 PUSH2 0x12B1 JUMP JUMPDEST DUP2 EQ PUSH2 0x1441 JUMPI PUSH1 0x0 DUP1 REVERT JUMPDEST POP JUMP INVALID LOG2 PUSH5 0x6970667358 0x22 SLT KECCAK256 0x4C LOG3 0xB6 PUSH18 0x92806C14182418E6BAF9137E25BD08022C5 0x49 DUP13 JUMPDEST DUP2 DUP9 DUP11 0x4C 0xE9 0xBF 0xD7 PUSH5 0x736F6C6343 STOP ADDMOD STOP STOP CALLER "
				},
				"gasEstimates": {
					"creation": {
						"codeDepositCost": "1048400",
						"executionCost": "1087",
						"totalCost": "1049487"
					},
					"external": {
						"createBallot(string[])": "infinite",
						"getCreatorBallot()": "1245",
						"getEndDate()": "1181",
						"getProposalStructure(uint256)": "infinite",
						"getProposals()": "infinite",
						"getStartDate()": "1226",
						"getStatus()": "1227",
						"getnumOfProposals()": "1205",
						"giveRightToVote(address)": "23408",
						"proposals(uint256)": "infinite",
						"setEndDate()": "20224",
						"setStatus(uint256)": "20487",
						"vote(uint256)": "infinite",
						"voters(address)": "infinite",
						"winnerName()": "infinite",
						"winningProposal()": "infinite"
					},
					"internal": {
						"setStartDate()": "20022"
					}
				},
				"methodIdentifiers": {
					"createBallot(string[])": "836bc692",
					"getCreatorBallot()": "7a16fcb0",
					"getEndDate()": "b1356488",
					"getProposalStructure(uint256)": "e9d6c6da",
					"getProposals()": "62564c48",
					"getStartDate()": "78f305c6",
					"getStatus()": "4e69d560",
					"getnumOfProposals()": "0a82dcb1",
					"giveRightToVote(address)": "9e7b8d61",
					"proposals(uint256)": "013cf08b",
					"setEndDate()": "86278e77",
					"setStatus(uint256)": "69ba1a75",
					"vote(uint256)": "0121b93f",
					"voters(address)": "a3ec138d",
					"winnerName()": "e2ba53f0",
					"winningProposal()": "609ff1bd"
				}
			},
			"storageLayout": {
				"storage": [
					{
						"astId": 3,
						"contract": "contracts/prop_test.sol:Ballot",
						"label": "creator",
						"offset": 0,
						"slot": "0",
						"type": "t_address"
					},
					{
						"astId": 5,
						"contract": "contracts/prop_test.sol:Ballot",
						"label": "status",
						"offset": 0,
						"slot": "1",
						"type": "t_uint256"
					},
					{
						"astId": 7,
						"contract": "contracts/prop_test.sol:Ballot",
						"label": "startDate",
						"offset": 0,
						"slot": "2",
						"type": "t_uint256"
					},
					{
						"astId": 9,
						"contract": "contracts/prop_test.sol:Ballot",
						"label": "endDate",
						"offset": 0,
						"slot": "3",
						"type": "t_uint256"
					},
					{
						"astId": 11,
						"contract": "contracts/prop_test.sol:Ballot",
						"label": "numOfProposals",
						"offset": 0,
						"slot": "4",
						"type": "t_uint256"
					},
					{
						"astId": 30,
						"contract": "contracts/prop_test.sol:Ballot",
						"label": "voters",
						"offset": 0,
						"slot": "5",
						"type": "t_mapping(t_address,t_struct(Voter)20_storage)"
					},
					{
						"astId": 34,
						"contract": "contracts/prop_test.sol:Ballot",
						"label": "proposals",
						"offset": 0,
						"slot": "6",
						"type": "t_array(t_struct(Proposal)25_storage)dyn_storage"
					}
				],
				"types": {
					"t_address": {
						"encoding": "inplace",
						"label": "address",
						"numberOfBytes": "20"
					},
					"t_array(t_struct(Proposal)25_storage)dyn_storage": {
						"base": "t_struct(Proposal)25_storage",
						"encoding": "dynamic_array",
						"label": "struct Ballot.Proposal[]",
						"numberOfBytes": "32"
					},
					"t_bool": {
						"encoding": "inplace",
						"label": "bool",
						"numberOfBytes": "1"
					},
					"t_mapping(t_address,t_struct(Voter)20_storage)": {
						"encoding": "mapping",
						"key": "t_address",
						"label": "mapping(address => struct Ballot.Voter)",
						"numberOfBytes": "32",
						"value": "t_struct(Voter)20_storage"
					},
					"t_string_storage": {
						"encoding": "bytes",
						"label": "string",
						"numberOfBytes": "32"
					},
					"t_struct(Proposal)25_storage": {
						"encoding": "inplace",
						"label": "struct Ballot.Proposal",
						"members": [
							{
								"astId": 22,
								"contract": "contracts/prop_test.sol:Ballot",
								"label": "name",
								"offset": 0,
								"slot": "0",
								"type": "t_string_storage"
							},
							{
								"astId": 24,
								"contract": "contracts/prop_test.sol:Ballot",
								"label": "voteCount",
								"offset": 0,
								"slot": "1",
								"type": "t_uint256"
							}
						],
						"numberOfBytes": "64"
					},
					"t_struct(Voter)20_storage": {
						"encoding": "inplace",
						"label": "struct Ballot.Voter",
						"members": [
							{
								"astId": 13,
								"contract": "contracts/prop_test.sol:Ballot",
								"label": "weight",
								"offset": 0,
								"slot": "0",
								"type": "t_uint256"
							},
							{
								"astId": 15,
								"contract": "contracts/prop_test.sol:Ballot",
								"label": "voted",
								"offset": 0,
								"slot": "1",
								"type": "t_bool"
							},
							{
								"astId": 17,
								"contract": "contracts/prop_test.sol:Ballot",
								"label": "delegate",
								"offset": 1,
								"slot": "1",
								"type": "t_address"
							},
							{
								"astId": 19,
								"contract": "contracts/prop_test.sol:Ballot",
								"label": "vote",
								"offset": 0,
								"slot": "2",
								"type": "t_uint256"
							}
						],
						"numberOfBytes": "96"
					},
					"t_uint256": {
						"encoding": "inplace",
						"label": "uint256",
						"numberOfBytes": "32"
					}
				}
			},
			"userdoc": {
				"kind": "user",
				"methods": {},
				"version": 1
			}
		}
	}
}