{
	"contracts/prop_test.sol": {
		"Ballot": {
			"abi": [
				{
					"inputs": [],
					"name": "chairperson",
					"outputs": [
						{
							"internalType": "address",
							"name": "",
							"type": "address"
						}
					],
					"stateMutability": "view",
					"type": "function"
				},
				{
					"inputs": [
						{
							"internalType": "string[]",
							"name": "proposalNames",
							"type": "string[]"
						}
					],
					"name": "createBallot",
					"outputs": [],
					"stateMutability": "nonpayable",
					"type": "function"
				},
				{
					"inputs": [
						{
							"internalType": "address",
							"name": "voter",
							"type": "address"
						}
					],
					"name": "giveRightToVote",
					"outputs": [],
					"stateMutability": "nonpayable",
					"type": "function"
				},
				{
					"inputs": [
						{
							"internalType": "uint256",
							"name": "",
							"type": "uint256"
						}
					],
					"name": "proposals",
					"outputs": [
						{
							"internalType": "string",
							"name": "name",
							"type": "string"
						},
						{
							"internalType": "uint256",
							"name": "voteCount",
							"type": "uint256"
						}
					],
					"stateMutability": "view",
					"type": "function"
				},
				{
					"inputs": [
						{
							"internalType": "uint256",
							"name": "proposal",
							"type": "uint256"
						}
					],
					"name": "vote",
					"outputs": [],
					"stateMutability": "nonpayable",
					"type": "function"
				},
				{
					"inputs": [
						{
							"internalType": "address",
							"name": "",
							"type": "address"
						}
					],
					"name": "voters",
					"outputs": [
						{
							"internalType": "uint256",
							"name": "weight",
							"type": "uint256"
						},
						{
							"internalType": "bool",
							"name": "voted",
							"type": "bool"
						},
						{
							"internalType": "address",
							"name": "delegate",
							"type": "address"
						},
						{
							"internalType": "uint256",
							"name": "vote",
							"type": "uint256"
						}
					],
					"stateMutability": "view",
					"type": "function"
				}
			],
			"devdoc": {
				"kind": "dev",
				"methods": {},
				"version": 1
			},
			"evm": {
				"assembly": "    /* \"contracts/prop_test.sol\":60:2446  contract Ballot {\r... */\n  mstore(0x40, 0x80)\n  callvalue\n  dup1\n  iszero\n  tag_1\n  jumpi\n  0x00\n  dup1\n  revert\ntag_1:\n  pop\n  dataSize(sub_0)\n  dup1\n  dataOffset(sub_0)\n  0x00\n  codecopy\n  0x00\n  return\nstop\n\nsub_0: assembly {\n        /* \"contracts/prop_test.sol\":60:2446  contract Ballot {\r... */\n      mstore(0x40, 0x80)\n      callvalue\n      dup1\n      iszero\n      tag_1\n      jumpi\n      0x00\n      dup1\n      revert\n    tag_1:\n      pop\n      jumpi(tag_2, lt(calldatasize, 0x04))\n      shr(0xe0, calldataload(0x00))\n      dup1\n      0x0121b93f\n      eq\n      tag_3\n      jumpi\n      dup1\n      0x013cf08b\n      eq\n      tag_4\n      jumpi\n      dup1\n      0x2e4176cf\n      eq\n      tag_5\n      jumpi\n      dup1\n      0x836bc692\n      eq\n      tag_6\n      jumpi\n      dup1\n      0x9e7b8d61\n      eq\n      tag_7\n      jumpi\n      dup1\n      0xa3ec138d\n      eq\n      tag_8\n      jumpi\n    tag_2:\n      0x00\n      dup1\n      revert\n        /* \"contracts/prop_test.sol\":2054:2443  function vote(uint proposal) public {\r... */\n    tag_3:\n      tag_9\n      0x04\n      dup1\n      calldatasize\n      sub\n      dup2\n      add\n      swap1\n      tag_10\n      swap2\n      swap1\n      tag_11\n      jump\t// in\n    tag_10:\n      tag_12\n      jump\t// in\n    tag_9:\n      stop\n        /* \"contracts/prop_test.sol\":768:795  Proposal[] public proposals */\n    tag_4:\n      tag_13\n      0x04\n      dup1\n      calldatasize\n      sub\n      dup2\n      add\n      swap1\n      tag_14\n      swap2\n      swap1\n      tag_11\n      jump\t// in\n    tag_14:\n      tag_15\n      jump\t// in\n    tag_13:\n      mload(0x40)\n      tag_16\n      swap3\n      swap2\n      swap1\n      tag_17\n      jump\t// in\n    tag_16:\n      mload(0x40)\n      dup1\n      swap2\n      sub\n      swap1\n      return\n        /* \"contracts/prop_test.sol\":525:551  address public chairperson */\n    tag_5:\n      tag_18\n      tag_19\n      jump\t// in\n    tag_18:\n      mload(0x40)\n      tag_20\n      swap2\n      swap1\n      tag_21\n      jump\t// in\n    tag_20:\n      mload(0x40)\n      dup1\n      swap2\n      sub\n      swap1\n      return\n        /* \"contracts/prop_test.sol\":804:1456  function createBallot(string[] memory proposalNames) public {\r... */\n    tag_6:\n      tag_22\n      0x04\n      dup1\n      calldatasize\n      sub\n      dup2\n      add\n      swap1\n      tag_23\n      swap2\n      swap1\n      tag_24\n      jump\t// in\n    tag_23:\n      tag_25\n      jump\t// in\n    tag_22:\n      stop\n        /* \"contracts/prop_test.sol\":1464:2046  function giveRightToVote(address voter) public {\r... */\n    tag_7:\n      tag_26\n      0x04\n      dup1\n      calldatasize\n      sub\n      dup2\n      add\n      swap1\n      tag_27\n      swap2\n      swap1\n      tag_28\n      jump\t// in\n    tag_27:\n      tag_29\n      jump\t// in\n    tag_26:\n      stop\n        /* \"contracts/prop_test.sol\":663:702  mapping(address => Voter) public voters */\n    tag_8:\n      tag_30\n      0x04\n      dup1\n      calldatasize\n      sub\n      dup2\n      add\n      swap1\n      tag_31\n      swap2\n      swap1\n      tag_28\n      jump\t// in\n    tag_31:\n      tag_32\n      jump\t// in\n    tag_30:\n      mload(0x40)\n      tag_33\n      swap5\n      swap4\n      swap3\n      swap2\n      swap1\n      tag_34\n      jump\t// in\n    tag_33:\n      mload(0x40)\n      dup1\n      swap2\n      sub\n      swap1\n      return\n        /* \"contracts/prop_test.sol\":2054:2443  function vote(uint proposal) public {\r... */\n    tag_12:\n        /* \"contracts/prop_test.sol\":2101:2121  Voter storage sender */\n      0x00\n        /* \"contracts/prop_test.sol\":2124:2130  voters */\n      0x01\n        /* \"contracts/prop_test.sol\":2124:2142  voters[msg.sender] */\n      0x00\n        /* \"contracts/prop_test.sol\":2131:2141  msg.sender */\n      caller\n        /* \"contracts/prop_test.sol\":2124:2142  voters[msg.sender] */\n      0xffffffffffffffffffffffffffffffffffffffff\n      and\n      0xffffffffffffffffffffffffffffffffffffffff\n      and\n      dup2\n      mstore\n      0x20\n      add\n      swap1\n      dup2\n      mstore\n      0x20\n      add\n      0x00\n      keccak256\n        /* \"contracts/prop_test.sol\":2101:2142  Voter storage sender = voters[msg.sender] */\n      swap1\n      pop\n        /* \"contracts/prop_test.sol\":2162:2168  sender */\n      dup1\n        /* \"contracts/prop_test.sol\":2162:2174  sender.voted */\n      0x01\n      add\n      0x00\n      swap1\n      sload\n      swap1\n      0x0100\n      exp\n      swap1\n      div\n      0xff\n      and\n        /* \"contracts/prop_test.sol\":2161:2174  !sender.voted */\n      iszero\n        /* \"contracts/prop_test.sol\":2153:2175  require(!sender.voted) */\n      tag_36\n      jumpi\n      0x00\n      dup1\n      revert\n    tag_36:\n        /* \"contracts/prop_test.sol\":2201:2205  true */\n      0x01\n        /* \"contracts/prop_test.sol\":2186:2192  sender */\n      dup2\n        /* \"contracts/prop_test.sol\":2186:2198  sender.voted */\n      0x01\n      add\n      0x00\n        /* \"contracts/prop_test.sol\":2186:2205  sender.voted = true */\n      0x0100\n      exp\n      dup2\n      sload\n      dup2\n      0xff\n      mul\n      not\n      and\n      swap1\n      dup4\n      iszero\n      iszero\n      mul\n      or\n      swap1\n      sstore\n      pop\n        /* \"contracts/prop_test.sol\":2230:2238  proposal */\n      dup2\n        /* \"contracts/prop_test.sol\":2216:2222  sender */\n      dup2\n        /* \"contracts/prop_test.sol\":2216:2227  sender.vote */\n      0x02\n      add\n        /* \"contracts/prop_test.sol\":2216:2238  sender.vote = proposal */\n      dup2\n      swap1\n      sstore\n      pop\n        /* \"contracts/prop_test.sol\":2422:2428  sender */\n      dup1\n        /* \"contracts/prop_test.sol\":2422:2435  sender.weight */\n      0x00\n      add\n      sload\n        /* \"contracts/prop_test.sol\":2389:2398  proposals */\n      0x02\n        /* \"contracts/prop_test.sol\":2399:2407  proposal */\n      dup4\n        /* \"contracts/prop_test.sol\":2389:2408  proposals[proposal] */\n      dup2\n      sload\n      dup2\n      lt\n      tag_37\n      jumpi\n      mstore(0x00, 0x4e487b7100000000000000000000000000000000000000000000000000000000)\n      mstore(0x04, 0x32)\n      revert(0x00, 0x24)\n    tag_37:\n      swap1\n      0x00\n      mstore\n      keccak256(0x00, 0x20)\n      swap1\n      0x02\n      mul\n      add\n        /* \"contracts/prop_test.sol\":2389:2418  proposals[proposal].voteCount */\n      0x01\n      add\n      0x00\n        /* \"contracts/prop_test.sol\":2389:2435  proposals[proposal].voteCount += sender.weight */\n      dup3\n      dup3\n      sload\n      tag_39\n      swap2\n      swap1\n      tag_40\n      jump\t// in\n    tag_39:\n      swap3\n      pop\n      pop\n      dup2\n      swap1\n      sstore\n      pop\n        /* \"contracts/prop_test.sol\":2054:2443  function vote(uint proposal) public {\r... */\n      pop\n      pop\n      jump\t// out\n        /* \"contracts/prop_test.sol\":768:795  Proposal[] public proposals */\n    tag_15:\n      0x02\n      dup2\n      dup2\n      sload\n      dup2\n      lt\n      tag_41\n      jumpi\n      0x00\n      dup1\n      revert\n    tag_41:\n      swap1\n      0x00\n      mstore\n      keccak256(0x00, 0x20)\n      swap1\n      0x02\n      mul\n      add\n      0x00\n      swap2\n      pop\n      swap1\n      pop\n      dup1\n      0x00\n      add\n      dup1\n      sload\n      tag_43\n      swap1\n      tag_44\n      jump\t// in\n    tag_43:\n      dup1\n      0x1f\n      add\n      0x20\n      dup1\n      swap2\n      div\n      mul\n      0x20\n      add\n      mload(0x40)\n      swap1\n      dup2\n      add\n      0x40\n      mstore\n      dup1\n      swap3\n      swap2\n      swap1\n      dup2\n      dup2\n      mstore\n      0x20\n      add\n      dup3\n      dup1\n      sload\n      tag_45\n      swap1\n      tag_44\n      jump\t// in\n    tag_45:\n      dup1\n      iszero\n      tag_46\n      jumpi\n      dup1\n      0x1f\n      lt\n      tag_47\n      jumpi\n      0x0100\n      dup1\n      dup4\n      sload\n      div\n      mul\n      dup4\n      mstore\n      swap2\n      0x20\n      add\n      swap2\n      jump(tag_46)\n    tag_47:\n      dup3\n      add\n      swap2\n      swap1\n      0x00\n      mstore\n      keccak256(0x00, 0x20)\n      swap1\n    tag_48:\n      dup2\n      sload\n      dup2\n      mstore\n      swap1\n      0x01\n      add\n      swap1\n      0x20\n      add\n      dup1\n      dup4\n      gt\n      tag_48\n      jumpi\n      dup3\n      swap1\n      sub\n      0x1f\n      and\n      dup3\n      add\n      swap2\n    tag_46:\n      pop\n      pop\n      pop\n      pop\n      pop\n      swap1\n      dup1\n      0x01\n      add\n      sload\n      swap1\n      pop\n      dup3\n      jump\t// out\n        /* \"contracts/prop_test.sol\":525:551  address public chairperson */\n    tag_19:\n      0x00\n      dup1\n      sload\n      swap1\n      0x0100\n      exp\n      swap1\n      div\n      0xffffffffffffffffffffffffffffffffffffffff\n      and\n      dup2\n      jump\t// out\n        /* \"contracts/prop_test.sol\":804:1456  function createBallot(string[] memory proposalNames) public {\r... */\n    tag_25:\n        /* \"contracts/prop_test.sol\":889:899  msg.sender */\n      caller\n        /* \"contracts/prop_test.sol\":875:886  chairperson */\n      0x00\n      dup1\n        /* \"contracts/prop_test.sol\":875:899  chairperson = msg.sender */\n      0x0100\n      exp\n      dup2\n      sload\n      dup2\n      0xffffffffffffffffffffffffffffffffffffffff\n      mul\n      not\n      and\n      swap1\n      dup4\n      0xffffffffffffffffffffffffffffffffffffffff\n      and\n      mul\n      or\n      swap1\n      sstore\n      pop\n        /* \"contracts/prop_test.sol\":939:940  1 */\n      0x01\n        /* \"contracts/prop_test.sol\":910:916  voters */\n      dup1\n        /* \"contracts/prop_test.sol\":910:929  voters[chairperson] */\n      0x00\n        /* \"contracts/prop_test.sol\":917:928  chairperson */\n      dup1\n      0x00\n      swap1\n      sload\n      swap1\n      0x0100\n      exp\n      swap1\n      div\n      0xffffffffffffffffffffffffffffffffffffffff\n      and\n        /* \"contracts/prop_test.sol\":910:929  voters[chairperson] */\n      0xffffffffffffffffffffffffffffffffffffffff\n      and\n      0xffffffffffffffffffffffffffffffffffffffff\n      and\n      dup2\n      mstore\n      0x20\n      add\n      swap1\n      dup2\n      mstore\n      0x20\n      add\n      0x00\n      keccak256\n        /* \"contracts/prop_test.sol\":910:936  voters[chairperson].weight */\n      0x00\n      add\n        /* \"contracts/prop_test.sol\":910:940  voters[chairperson].weight = 1 */\n      dup2\n      swap1\n      sstore\n      pop\n        /* \"contracts/prop_test.sol\":1100:1106  uint i */\n      0x00\n        /* \"contracts/prop_test.sol\":1095:1449  for (uint i = 0; i < proposalNames.length; i++) {\r... */\n    tag_50:\n        /* \"contracts/prop_test.sol\":1116:1129  proposalNames */\n      dup2\n        /* \"contracts/prop_test.sol\":1116:1136  proposalNames.length */\n      mload\n        /* \"contracts/prop_test.sol\":1112:1113  i */\n      dup2\n        /* \"contracts/prop_test.sol\":1112:1136  i < proposalNames.length */\n      lt\n        /* \"contracts/prop_test.sol\":1095:1449  for (uint i = 0; i < proposalNames.length; i++) {\r... */\n      iszero\n      tag_51\n      jumpi\n        /* \"contracts/prop_test.sol\":1324:1333  proposals */\n      0x02\n        /* \"contracts/prop_test.sol\":1339:1436  Proposal({\r... */\n      mload(0x40)\n      dup1\n      0x40\n      add\n      0x40\n      mstore\n      dup1\n        /* \"contracts/prop_test.sol\":1373:1386  proposalNames */\n      dup5\n        /* \"contracts/prop_test.sol\":1387:1388  i */\n      dup5\n        /* \"contracts/prop_test.sol\":1373:1389  proposalNames[i] */\n      dup2\n      mload\n      dup2\n      lt\n      tag_53\n      jumpi\n      mstore(0x00, 0x4e487b7100000000000000000000000000000000000000000000000000000000)\n      mstore(0x04, 0x32)\n      revert(0x00, 0x24)\n    tag_53:\n      0x20\n      mul\n      0x20\n      add\n      add\n      mload\n        /* \"contracts/prop_test.sol\":1339:1436  Proposal({\r... */\n      dup2\n      mstore\n      0x20\n      add\n        /* \"contracts/prop_test.sol\":1419:1420  0 */\n      0x00\n        /* \"contracts/prop_test.sol\":1339:1436  Proposal({\r... */\n      dup2\n      mstore\n      pop\n        /* \"contracts/prop_test.sol\":1324:1437  proposals.push(Proposal({\r... */\n      swap1\n      dup1\n      0x01\n      dup2\n      sload\n      add\n      dup1\n      dup3\n      sstore\n      dup1\n      swap2\n      pop\n      pop\n      0x01\n      swap1\n      sub\n      swap1\n      0x00\n      mstore\n      keccak256(0x00, 0x20)\n      swap1\n      0x02\n      mul\n      add\n      0x00\n      swap1\n      swap2\n      swap1\n      swap2\n      swap1\n      swap2\n      pop\n      0x00\n      dup3\n      add\n      mload\n      dup2\n      0x00\n      add\n      swap1\n      dup1\n      mload\n      swap1\n      0x20\n      add\n      swap1\n      tag_55\n      swap3\n      swap2\n      swap1\n      tag_56\n      jump\t// in\n    tag_55:\n      pop\n      0x20\n      dup3\n      add\n      mload\n      dup2\n      0x01\n      add\n      sstore\n      pop\n      pop\n        /* \"contracts/prop_test.sol\":1138:1141  i++ */\n      dup1\n      dup1\n      tag_57\n      swap1\n      tag_58\n      jump\t// in\n    tag_57:\n      swap2\n      pop\n      pop\n        /* \"contracts/prop_test.sol\":1095:1449  for (uint i = 0; i < proposalNames.length; i++) {\r... */\n      jump(tag_50)\n    tag_51:\n      pop\n        /* \"contracts/prop_test.sol\":804:1456  function createBallot(string[] memory proposalNames) public {\r... */\n      pop\n      jump\t// out\n        /* \"contracts/prop_test.sol\":1464:2046  function giveRightToVote(address voter) public {\r... */\n    tag_29:\n        /* \"contracts/prop_test.sol\":1935:1946  chairperson */\n      0x00\n      dup1\n      sload\n      swap1\n      0x0100\n      exp\n      swap1\n      div\n      0xffffffffffffffffffffffffffffffffffffffff\n      and\n        /* \"contracts/prop_test.sol\":1921:1946  msg.sender == chairperson */\n      0xffffffffffffffffffffffffffffffffffffffff\n      and\n        /* \"contracts/prop_test.sol\":1921:1931  msg.sender */\n      caller\n        /* \"contracts/prop_test.sol\":1921:1946  msg.sender == chairperson */\n      0xffffffffffffffffffffffffffffffffffffffff\n      and\n      eq\n        /* \"contracts/prop_test.sol\":1920:1971  (msg.sender == chairperson) && !voters[voter].voted */\n      dup1\n      iszero\n      tag_60\n      jumpi\n      pop\n        /* \"contracts/prop_test.sol\":1952:1958  voters */\n      0x01\n        /* \"contracts/prop_test.sol\":1952:1965  voters[voter] */\n      0x00\n        /* \"contracts/prop_test.sol\":1959:1964  voter */\n      dup3\n        /* \"contracts/prop_test.sol\":1952:1965  voters[voter] */\n      0xffffffffffffffffffffffffffffffffffffffff\n      and\n      0xffffffffffffffffffffffffffffffffffffffff\n      and\n      dup2\n      mstore\n      0x20\n      add\n      swap1\n      dup2\n      mstore\n      0x20\n      add\n      0x00\n      keccak256\n        /* \"contracts/prop_test.sol\":1952:1971  voters[voter].voted */\n      0x01\n      add\n      0x00\n      swap1\n      sload\n      swap1\n      0x0100\n      exp\n      swap1\n      div\n      0xff\n      and\n        /* \"contracts/prop_test.sol\":1951:1971  !voters[voter].voted */\n      iszero\n        /* \"contracts/prop_test.sol\":1920:1971  (msg.sender == chairperson) && !voters[voter].voted */\n    tag_60:\n        /* \"contracts/prop_test.sol\":1920:2002  (msg.sender == chairperson) && !voters[voter].voted && (voters[voter].weight == 0) */\n      dup1\n      iszero\n      tag_61\n      jumpi\n      pop\n        /* \"contracts/prop_test.sol\":2000:2001  0 */\n      0x00\n        /* \"contracts/prop_test.sol\":1976:1982  voters */\n      0x01\n        /* \"contracts/prop_test.sol\":1976:1989  voters[voter] */\n      0x00\n        /* \"contracts/prop_test.sol\":1983:1988  voter */\n      dup4\n        /* \"contracts/prop_test.sol\":1976:1989  voters[voter] */\n      0xffffffffffffffffffffffffffffffffffffffff\n      and\n      0xffffffffffffffffffffffffffffffffffffffff\n      and\n      dup2\n      mstore\n      0x20\n      add\n      swap1\n      dup2\n      mstore\n      0x20\n      add\n      0x00\n      keccak256\n        /* \"contracts/prop_test.sol\":1976:1996  voters[voter].weight */\n      0x00\n      add\n      sload\n        /* \"contracts/prop_test.sol\":1976:2001  voters[voter].weight == 0 */\n      eq\n        /* \"contracts/prop_test.sol\":1920:2002  (msg.sender == chairperson) && !voters[voter].voted && (voters[voter].weight == 0) */\n    tag_61:\n        /* \"contracts/prop_test.sol\":1912:2003  require((msg.sender == chairperson) && !voters[voter].voted && (voters[voter].weight == 0)) */\n      tag_62\n      jumpi\n      0x00\n      dup1\n      revert\n    tag_62:\n        /* \"contracts/prop_test.sol\":2037:2038  1 */\n      0x01\n        /* \"contracts/prop_test.sol\":2014:2020  voters */\n      dup1\n        /* \"contracts/prop_test.sol\":2014:2027  voters[voter] */\n      0x00\n        /* \"contracts/prop_test.sol\":2021:2026  voter */\n      dup4\n        /* \"contracts/prop_test.sol\":2014:2027  voters[voter] */\n      0xffffffffffffffffffffffffffffffffffffffff\n      and\n      0xffffffffffffffffffffffffffffffffffffffff\n      and\n      dup2\n      mstore\n      0x20\n      add\n      swap1\n      dup2\n      mstore\n      0x20\n      add\n      0x00\n      keccak256\n        /* \"contracts/prop_test.sol\":2014:2034  voters[voter].weight */\n      0x00\n      add\n        /* \"contracts/prop_test.sol\":2014:2038  voters[voter].weight = 1 */\n      dup2\n      swap1\n      sstore\n      pop\n        /* \"contracts/prop_test.sol\":1464:2046  function giveRightToVote(address voter) public {\r... */\n      pop\n      jump\t// out\n        /* \"contracts/prop_test.sol\":663:702  mapping(address => Voter) public voters */\n    tag_32:\n      mstore(0x20, 0x01)\n      dup1\n      0x00\n      mstore\n      keccak256(0x00, 0x40)\n      0x00\n      swap2\n      pop\n      swap1\n      pop\n      dup1\n      0x00\n      add\n      sload\n      swap1\n      dup1\n      0x01\n      add\n      0x00\n      swap1\n      sload\n      swap1\n      0x0100\n      exp\n      swap1\n      div\n      0xff\n      and\n      swap1\n      dup1\n      0x01\n      add\n      0x01\n      swap1\n      sload\n      swap1\n      0x0100\n      exp\n      swap1\n      div\n      0xffffffffffffffffffffffffffffffffffffffff\n      and\n      swap1\n      dup1\n      0x02\n      add\n      sload\n      swap1\n      pop\n      dup5\n      jump\t// out\n    tag_56:\n      dup3\n      dup1\n      sload\n      tag_63\n      swap1\n      tag_44\n      jump\t// in\n    tag_63:\n      swap1\n      0x00\n      mstore\n      keccak256(0x00, 0x20)\n      swap1\n      0x1f\n      add\n      0x20\n      swap1\n      div\n      dup2\n      add\n      swap3\n      dup3\n      tag_65\n      jumpi\n      0x00\n      dup6\n      sstore\n      jump(tag_64)\n    tag_65:\n      dup3\n      0x1f\n      lt\n      tag_66\n      jumpi\n      dup1\n      mload\n      not(0xff)\n      and\n      dup4\n      dup1\n      add\n      or\n      dup6\n      sstore\n      jump(tag_64)\n    tag_66:\n      dup3\n      dup1\n      add\n      0x01\n      add\n      dup6\n      sstore\n      dup3\n      iszero\n      tag_64\n      jumpi\n      swap2\n      dup3\n      add\n    tag_67:\n      dup3\n      dup2\n      gt\n      iszero\n      tag_68\n      jumpi\n      dup3\n      mload\n      dup3\n      sstore\n      swap2\n      0x20\n      add\n      swap2\n      swap1\n      0x01\n      add\n      swap1\n      jump(tag_67)\n    tag_68:\n    tag_64:\n      pop\n      swap1\n      pop\n      tag_69\n      swap2\n      swap1\n      tag_70\n      jump\t// in\n    tag_69:\n      pop\n      swap1\n      jump\t// out\n    tag_70:\n    tag_71:\n      dup1\n      dup3\n      gt\n      iszero\n      tag_72\n      jumpi\n      0x00\n      dup2\n      0x00\n      swap1\n      sstore\n      pop\n      0x01\n      add\n      jump(tag_71)\n    tag_72:\n      pop\n      swap1\n      jump\t// out\n        /* \"#utility.yul\":23:638   */\n    tag_74:\n      0x00\n        /* \"#utility.yul\":154:244   */\n      tag_76\n        /* \"#utility.yul\":169:243   */\n      tag_77\n        /* \"#utility.yul\":236:242   */\n      dup5\n        /* \"#utility.yul\":169:243   */\n      tag_78\n      jump\t// in\n    tag_77:\n        /* \"#utility.yul\":154:244   */\n      tag_79\n      jump\t// in\n    tag_76:\n        /* \"#utility.yul\":145:244   */\n      swap1\n      pop\n        /* \"#utility.yul\":264:269   */\n      dup1\n        /* \"#utility.yul\":292:298   */\n      dup4\n        /* \"#utility.yul\":285:290   */\n      dup3\n        /* \"#utility.yul\":278:299   */\n      mstore\n        /* \"#utility.yul\":318:322   */\n      0x20\n        /* \"#utility.yul\":311:316   */\n      dup3\n        /* \"#utility.yul\":307:323   */\n      add\n        /* \"#utility.yul\":300:323   */\n      swap1\n      pop\n        /* \"#utility.yul\":343:349   */\n      dup3\n        /* \"#utility.yul\":374:375   */\n      0x00\n        /* \"#utility.yul\":359:632   */\n    tag_80:\n        /* \"#utility.yul\":384:390   */\n      dup6\n        /* \"#utility.yul\":381:382   */\n      dup2\n        /* \"#utility.yul\":378:391   */\n      lt\n        /* \"#utility.yul\":359:632   */\n      iszero\n      tag_82\n      jumpi\n        /* \"#utility.yul\":476:479   */\n      dup2\n        /* \"#utility.yul\":463:480   */\n      calldataload\n        /* \"#utility.yul\":455:461   */\n      dup6\n        /* \"#utility.yul\":451:481   */\n      add\n        /* \"#utility.yul\":506:553   */\n      tag_83\n        /* \"#utility.yul\":549:552   */\n      dup9\n        /* \"#utility.yul\":537:547   */\n      dup3\n        /* \"#utility.yul\":506:553   */\n      tag_84\n      jump\t// in\n    tag_83:\n        /* \"#utility.yul\":501:504   */\n      dup5\n        /* \"#utility.yul\":494:554   */\n      mstore\n        /* \"#utility.yul\":583:587   */\n      0x20\n        /* \"#utility.yul\":578:581   */\n      dup5\n        /* \"#utility.yul\":574:588   */\n      add\n        /* \"#utility.yul\":567:588   */\n      swap4\n      pop\n        /* \"#utility.yul\":617:621   */\n      0x20\n        /* \"#utility.yul\":612:615   */\n      dup4\n        /* \"#utility.yul\":608:622   */\n      add\n        /* \"#utility.yul\":601:622   */\n      swap3\n      pop\n        /* \"#utility.yul\":419:632   */\n      pop\n        /* \"#utility.yul\":406:407   */\n      0x01\n        /* \"#utility.yul\":403:404   */\n      dup2\n        /* \"#utility.yul\":399:408   */\n      add\n        /* \"#utility.yul\":394:408   */\n      swap1\n      pop\n        /* \"#utility.yul\":359:632   */\n      jump(tag_80)\n    tag_82:\n        /* \"#utility.yul\":363:377   */\n      pop\n        /* \"#utility.yul\":135:638   */\n      pop\n      pop\n      swap4\n      swap3\n      pop\n      pop\n      pop\n      jump\t// out\n        /* \"#utility.yul\":644:988   */\n    tag_85:\n      0x00\n        /* \"#utility.yul\":747:812   */\n      tag_87\n        /* \"#utility.yul\":762:811   */\n      tag_88\n        /* \"#utility.yul\":804:810   */\n      dup5\n        /* \"#utility.yul\":762:811   */\n      tag_89\n      jump\t// in\n    tag_88:\n        /* \"#utility.yul\":747:812   */\n      tag_79\n      jump\t// in\n    tag_87:\n        /* \"#utility.yul\":738:812   */\n      swap1\n      pop\n        /* \"#utility.yul\":835:841   */\n      dup3\n        /* \"#utility.yul\":828:833   */\n      dup2\n        /* \"#utility.yul\":821:842   */\n      mstore\n        /* \"#utility.yul\":873:877   */\n      0x20\n        /* \"#utility.yul\":866:871   */\n      dup2\n        /* \"#utility.yul\":862:878   */\n      add\n        /* \"#utility.yul\":911:914   */\n      dup5\n        /* \"#utility.yul\":902:908   */\n      dup5\n        /* \"#utility.yul\":897:900   */\n      dup5\n        /* \"#utility.yul\":893:909   */\n      add\n        /* \"#utility.yul\":890:915   */\n      gt\n        /* \"#utility.yul\":887:889   */\n      iszero\n      tag_90\n      jumpi\n        /* \"#utility.yul\":928:929   */\n      0x00\n        /* \"#utility.yul\":925:926   */\n      dup1\n        /* \"#utility.yul\":918:930   */\n      revert\n        /* \"#utility.yul\":887:889   */\n    tag_90:\n        /* \"#utility.yul\":941:982   */\n      tag_91\n        /* \"#utility.yul\":975:981   */\n      dup5\n        /* \"#utility.yul\":970:973   */\n      dup3\n        /* \"#utility.yul\":965:968   */\n      dup6\n        /* \"#utility.yul\":941:982   */\n      tag_92\n      jump\t// in\n    tag_91:\n        /* \"#utility.yul\":728:988   */\n      pop\n      swap4\n      swap3\n      pop\n      pop\n      pop\n      jump\t// out\n        /* \"#utility.yul\":994:1133   */\n    tag_93:\n      0x00\n        /* \"#utility.yul\":1078:1084   */\n      dup2\n        /* \"#utility.yul\":1065:1085   */\n      calldataload\n        /* \"#utility.yul\":1056:1085   */\n      swap1\n      pop\n        /* \"#utility.yul\":1094:1127   */\n      tag_95\n        /* \"#utility.yul\":1121:1126   */\n      dup2\n        /* \"#utility.yul\":1094:1127   */\n      tag_96\n      jump\t// in\n    tag_95:\n        /* \"#utility.yul\":1046:1133   */\n      swap3\n      swap2\n      pop\n      pop\n      jump\t// out\n        /* \"#utility.yul\":1155:1478   */\n    tag_97:\n      0x00\n        /* \"#utility.yul\":1285:1288   */\n      dup3\n        /* \"#utility.yul\":1278:1282   */\n      0x1f\n        /* \"#utility.yul\":1270:1276   */\n      dup4\n        /* \"#utility.yul\":1266:1283   */\n      add\n        /* \"#utility.yul\":1262:1289   */\n      slt\n        /* \"#utility.yul\":1252:1254   */\n      tag_99\n      jumpi\n        /* \"#utility.yul\":1303:1304   */\n      0x00\n        /* \"#utility.yul\":1300:1301   */\n      dup1\n        /* \"#utility.yul\":1293:1305   */\n      revert\n        /* \"#utility.yul\":1252:1254   */\n    tag_99:\n        /* \"#utility.yul\":1343:1349   */\n      dup2\n        /* \"#utility.yul\":1330:1350   */\n      calldataload\n        /* \"#utility.yul\":1368:1472   */\n      tag_100\n        /* \"#utility.yul\":1468:1471   */\n      dup5\n        /* \"#utility.yul\":1460:1466   */\n      dup3\n        /* \"#utility.yul\":1453:1457   */\n      0x20\n        /* \"#utility.yul\":1445:1451   */\n      dup7\n        /* \"#utility.yul\":1441:1458   */\n      add\n        /* \"#utility.yul\":1368:1472   */\n      tag_74\n      jump\t// in\n    tag_100:\n        /* \"#utility.yul\":1359:1472   */\n      swap2\n      pop\n        /* \"#utility.yul\":1242:1478   */\n      pop\n      swap3\n      swap2\n      pop\n      pop\n      jump\t// out\n        /* \"#utility.yul\":1498:1771   */\n    tag_84:\n      0x00\n        /* \"#utility.yul\":1603:1606   */\n      dup3\n        /* \"#utility.yul\":1596:1600   */\n      0x1f\n        /* \"#utility.yul\":1588:1594   */\n      dup4\n        /* \"#utility.yul\":1584:1601   */\n      add\n        /* \"#utility.yul\":1580:1607   */\n      slt\n        /* \"#utility.yul\":1570:1572   */\n      tag_102\n      jumpi\n        /* \"#utility.yul\":1621:1622   */\n      0x00\n        /* \"#utility.yul\":1618:1619   */\n      dup1\n        /* \"#utility.yul\":1611:1623   */\n      revert\n        /* \"#utility.yul\":1570:1572   */\n    tag_102:\n        /* \"#utility.yul\":1661:1667   */\n      dup2\n        /* \"#utility.yul\":1648:1668   */\n      calldataload\n        /* \"#utility.yul\":1686:1765   */\n      tag_103\n        /* \"#utility.yul\":1761:1764   */\n      dup5\n        /* \"#utility.yul\":1753:1759   */\n      dup3\n        /* \"#utility.yul\":1746:1750   */\n      0x20\n        /* \"#utility.yul\":1738:1744   */\n      dup7\n        /* \"#utility.yul\":1734:1751   */\n      add\n        /* \"#utility.yul\":1686:1765   */\n      tag_85\n      jump\t// in\n    tag_103:\n        /* \"#utility.yul\":1677:1765   */\n      swap2\n      pop\n        /* \"#utility.yul\":1560:1771   */\n      pop\n      swap3\n      swap2\n      pop\n      pop\n      jump\t// out\n        /* \"#utility.yul\":1777:1916   */\n    tag_104:\n      0x00\n        /* \"#utility.yul\":1861:1867   */\n      dup2\n        /* \"#utility.yul\":1848:1868   */\n      calldataload\n        /* \"#utility.yul\":1839:1868   */\n      swap1\n      pop\n        /* \"#utility.yul\":1877:1910   */\n      tag_106\n        /* \"#utility.yul\":1904:1909   */\n      dup2\n        /* \"#utility.yul\":1877:1910   */\n      tag_107\n      jump\t// in\n    tag_106:\n        /* \"#utility.yul\":1829:1916   */\n      swap3\n      swap2\n      pop\n      pop\n      jump\t// out\n        /* \"#utility.yul\":1922:2184   */\n    tag_28:\n      0x00\n        /* \"#utility.yul\":2030:2032   */\n      0x20\n        /* \"#utility.yul\":2018:2027   */\n      dup3\n        /* \"#utility.yul\":2009:2016   */\n      dup5\n        /* \"#utility.yul\":2005:2028   */\n      sub\n        /* \"#utility.yul\":2001:2033   */\n      slt\n        /* \"#utility.yul\":1998:2000   */\n      iszero\n      tag_109\n      jumpi\n        /* \"#utility.yul\":2046:2047   */\n      0x00\n        /* \"#utility.yul\":2043:2044   */\n      dup1\n        /* \"#utility.yul\":2036:2048   */\n      revert\n        /* \"#utility.yul\":1998:2000   */\n    tag_109:\n        /* \"#utility.yul\":2089:2090   */\n      0x00\n        /* \"#utility.yul\":2114:2167   */\n      tag_110\n        /* \"#utility.yul\":2159:2166   */\n      dup5\n        /* \"#utility.yul\":2150:2156   */\n      dup3\n        /* \"#utility.yul\":2139:2148   */\n      dup6\n        /* \"#utility.yul\":2135:2157   */\n      add\n        /* \"#utility.yul\":2114:2167   */\n      tag_93\n      jump\t// in\n    tag_110:\n        /* \"#utility.yul\":2104:2167   */\n      swap2\n      pop\n        /* \"#utility.yul\":2060:2177   */\n      pop\n        /* \"#utility.yul\":1988:2184   */\n      swap3\n      swap2\n      pop\n      pop\n      jump\t// out\n        /* \"#utility.yul\":2190:2615   */\n    tag_24:\n      0x00\n        /* \"#utility.yul\":2333:2335   */\n      0x20\n        /* \"#utility.yul\":2321:2330   */\n      dup3\n        /* \"#utility.yul\":2312:2319   */\n      dup5\n        /* \"#utility.yul\":2308:2331   */\n      sub\n        /* \"#utility.yul\":2304:2336   */\n      slt\n        /* \"#utility.yul\":2301:2303   */\n      iszero\n      tag_112\n      jumpi\n        /* \"#utility.yul\":2349:2350   */\n      0x00\n        /* \"#utility.yul\":2346:2347   */\n      dup1\n        /* \"#utility.yul\":2339:2351   */\n      revert\n        /* \"#utility.yul\":2301:2303   */\n    tag_112:\n        /* \"#utility.yul\":2420:2421   */\n      0x00\n        /* \"#utility.yul\":2409:2418   */\n      dup3\n        /* \"#utility.yul\":2405:2422   */\n      add\n        /* \"#utility.yul\":2392:2423   */\n      calldataload\n        /* \"#utility.yul\":2450:2468   */\n      0xffffffffffffffff\n        /* \"#utility.yul\":2442:2448   */\n      dup2\n        /* \"#utility.yul\":2439:2469   */\n      gt\n        /* \"#utility.yul\":2436:2438   */\n      iszero\n      tag_113\n      jumpi\n        /* \"#utility.yul\":2482:2483   */\n      0x00\n        /* \"#utility.yul\":2479:2480   */\n      dup1\n        /* \"#utility.yul\":2472:2484   */\n      revert\n        /* \"#utility.yul\":2436:2438   */\n    tag_113:\n        /* \"#utility.yul\":2510:2598   */\n      tag_114\n        /* \"#utility.yul\":2590:2597   */\n      dup5\n        /* \"#utility.yul\":2581:2587   */\n      dup3\n        /* \"#utility.yul\":2570:2579   */\n      dup6\n        /* \"#utility.yul\":2566:2588   */\n      add\n        /* \"#utility.yul\":2510:2598   */\n      tag_97\n      jump\t// in\n    tag_114:\n        /* \"#utility.yul\":2500:2598   */\n      swap2\n      pop\n        /* \"#utility.yul\":2363:2608   */\n      pop\n        /* \"#utility.yul\":2291:2615   */\n      swap3\n      swap2\n      pop\n      pop\n      jump\t// out\n        /* \"#utility.yul\":2621:2883   */\n    tag_11:\n      0x00\n        /* \"#utility.yul\":2729:2731   */\n      0x20\n        /* \"#utility.yul\":2717:2726   */\n      dup3\n        /* \"#utility.yul\":2708:2715   */\n      dup5\n        /* \"#utility.yul\":2704:2727   */\n      sub\n        /* \"#utility.yul\":2700:2732   */\n      slt\n        /* \"#utility.yul\":2697:2699   */\n      iszero\n      tag_116\n      jumpi\n        /* \"#utility.yul\":2745:2746   */\n      0x00\n        /* \"#utility.yul\":2742:2743   */\n      dup1\n        /* \"#utility.yul\":2735:2747   */\n      revert\n        /* \"#utility.yul\":2697:2699   */\n    tag_116:\n        /* \"#utility.yul\":2788:2789   */\n      0x00\n        /* \"#utility.yul\":2813:2866   */\n      tag_117\n        /* \"#utility.yul\":2858:2865   */\n      dup5\n        /* \"#utility.yul\":2849:2855   */\n      dup3\n        /* \"#utility.yul\":2838:2847   */\n      dup6\n        /* \"#utility.yul\":2834:2856   */\n      add\n        /* \"#utility.yul\":2813:2866   */\n      tag_104\n      jump\t// in\n    tag_117:\n        /* \"#utility.yul\":2803:2866   */\n      swap2\n      pop\n        /* \"#utility.yul\":2759:2876   */\n      pop\n        /* \"#utility.yul\":2687:2883   */\n      swap3\n      swap2\n      pop\n      pop\n      jump\t// out\n        /* \"#utility.yul\":2889:3007   */\n    tag_118:\n        /* \"#utility.yul\":2976:3000   */\n      tag_120\n        /* \"#utility.yul\":2994:2999   */\n      dup2\n        /* \"#utility.yul\":2976:3000   */\n      tag_121\n      jump\t// in\n    tag_120:\n        /* \"#utility.yul\":2971:2974   */\n      dup3\n        /* \"#utility.yul\":2964:3001   */\n      mstore\n        /* \"#utility.yul\":2954:3007   */\n      pop\n      pop\n      jump\t// out\n        /* \"#utility.yul\":3013:3122   */\n    tag_122:\n        /* \"#utility.yul\":3094:3115   */\n      tag_124\n        /* \"#utility.yul\":3109:3114   */\n      dup2\n        /* \"#utility.yul\":3094:3115   */\n      tag_125\n      jump\t// in\n    tag_124:\n        /* \"#utility.yul\":3089:3092   */\n      dup3\n        /* \"#utility.yul\":3082:3116   */\n      mstore\n        /* \"#utility.yul\":3072:3122   */\n      pop\n      pop\n      jump\t// out\n        /* \"#utility.yul\":3128:3492   */\n    tag_126:\n      0x00\n        /* \"#utility.yul\":3244:3283   */\n      tag_128\n        /* \"#utility.yul\":3277:3282   */\n      dup3\n        /* \"#utility.yul\":3244:3283   */\n      tag_129\n      jump\t// in\n    tag_128:\n        /* \"#utility.yul\":3299:3370   */\n      tag_130\n        /* \"#utility.yul\":3363:3369   */\n      dup2\n        /* \"#utility.yul\":3358:3361   */\n      dup6\n        /* \"#utility.yul\":3299:3370   */\n      tag_131\n      jump\t// in\n    tag_130:\n        /* \"#utility.yul\":3292:3370   */\n      swap4\n      pop\n        /* \"#utility.yul\":3379:3431   */\n      tag_132\n        /* \"#utility.yul\":3424:3430   */\n      dup2\n        /* \"#utility.yul\":3419:3422   */\n      dup6\n        /* \"#utility.yul\":3412:3416   */\n      0x20\n        /* \"#utility.yul\":3405:3410   */\n      dup7\n        /* \"#utility.yul\":3401:3417   */\n      add\n        /* \"#utility.yul\":3379:3431   */\n      tag_133\n      jump\t// in\n    tag_132:\n        /* \"#utility.yul\":3456:3485   */\n      tag_134\n        /* \"#utility.yul\":3478:3484   */\n      dup2\n        /* \"#utility.yul\":3456:3485   */\n      tag_135\n      jump\t// in\n    tag_134:\n        /* \"#utility.yul\":3451:3454   */\n      dup5\n        /* \"#utility.yul\":3447:3486   */\n      add\n        /* \"#utility.yul\":3440:3486   */\n      swap2\n      pop\n        /* \"#utility.yul\":3220:3492   */\n      pop\n      swap3\n      swap2\n      pop\n      pop\n      jump\t// out\n        /* \"#utility.yul\":3498:3616   */\n    tag_136:\n        /* \"#utility.yul\":3585:3609   */\n      tag_138\n        /* \"#utility.yul\":3603:3608   */\n      dup2\n        /* \"#utility.yul\":3585:3609   */\n      tag_139\n      jump\t// in\n    tag_138:\n        /* \"#utility.yul\":3580:3583   */\n      dup3\n        /* \"#utility.yul\":3573:3610   */\n      mstore\n        /* \"#utility.yul\":3563:3616   */\n      pop\n      pop\n      jump\t// out\n        /* \"#utility.yul\":3622:3844   */\n    tag_21:\n      0x00\n        /* \"#utility.yul\":3753:3755   */\n      0x20\n        /* \"#utility.yul\":3742:3751   */\n      dup3\n        /* \"#utility.yul\":3738:3756   */\n      add\n        /* \"#utility.yul\":3730:3756   */\n      swap1\n      pop\n        /* \"#utility.yul\":3766:3837   */\n      tag_141\n        /* \"#utility.yul\":3834:3835   */\n      0x00\n        /* \"#utility.yul\":3823:3832   */\n      dup4\n        /* \"#utility.yul\":3819:3836   */\n      add\n        /* \"#utility.yul\":3810:3816   */\n      dup5\n        /* \"#utility.yul\":3766:3837   */\n      tag_118\n      jump\t// in\n    tag_141:\n        /* \"#utility.yul\":3720:3844   */\n      swap3\n      swap2\n      pop\n      pop\n      jump\t// out\n        /* \"#utility.yul\":3850:4273   */\n    tag_17:\n      0x00\n        /* \"#utility.yul\":4029:4031   */\n      0x40\n        /* \"#utility.yul\":4018:4027   */\n      dup3\n        /* \"#utility.yul\":4014:4032   */\n      add\n        /* \"#utility.yul\":4006:4032   */\n      swap1\n      pop\n        /* \"#utility.yul\":4078:4087   */\n      dup2\n        /* \"#utility.yul\":4072:4076   */\n      dup2\n        /* \"#utility.yul\":4068:4088   */\n      sub\n        /* \"#utility.yul\":4064:4065   */\n      0x00\n        /* \"#utility.yul\":4053:4062   */\n      dup4\n        /* \"#utility.yul\":4049:4066   */\n      add\n        /* \"#utility.yul\":4042:4089   */\n      mstore\n        /* \"#utility.yul\":4106:4184   */\n      tag_143\n        /* \"#utility.yul\":4179:4183   */\n      dup2\n        /* \"#utility.yul\":4170:4176   */\n      dup6\n        /* \"#utility.yul\":4106:4184   */\n      tag_126\n      jump\t// in\n    tag_143:\n        /* \"#utility.yul\":4098:4184   */\n      swap1\n      pop\n        /* \"#utility.yul\":4194:4266   */\n      tag_144\n        /* \"#utility.yul\":4262:4264   */\n      0x20\n        /* \"#utility.yul\":4251:4260   */\n      dup4\n        /* \"#utility.yul\":4247:4265   */\n      add\n        /* \"#utility.yul\":4238:4244   */\n      dup5\n        /* \"#utility.yul\":4194:4266   */\n      tag_136\n      jump\t// in\n    tag_144:\n        /* \"#utility.yul\":3996:4273   */\n      swap4\n      swap3\n      pop\n      pop\n      pop\n      jump\t// out\n        /* \"#utility.yul\":4279:4820   */\n    tag_34:\n      0x00\n        /* \"#utility.yul\":4488:4491   */\n      0x80\n        /* \"#utility.yul\":4477:4486   */\n      dup3\n        /* \"#utility.yul\":4473:4492   */\n      add\n        /* \"#utility.yul\":4465:4492   */\n      swap1\n      pop\n        /* \"#utility.yul\":4502:4573   */\n      tag_146\n        /* \"#utility.yul\":4570:4571   */\n      0x00\n        /* \"#utility.yul\":4559:4568   */\n      dup4\n        /* \"#utility.yul\":4555:4572   */\n      add\n        /* \"#utility.yul\":4546:4552   */\n      dup8\n        /* \"#utility.yul\":4502:4573   */\n      tag_136\n      jump\t// in\n    tag_146:\n        /* \"#utility.yul\":4583:4649   */\n      tag_147\n        /* \"#utility.yul\":4645:4647   */\n      0x20\n        /* \"#utility.yul\":4634:4643   */\n      dup4\n        /* \"#utility.yul\":4630:4648   */\n      add\n        /* \"#utility.yul\":4621:4627   */\n      dup7\n        /* \"#utility.yul\":4583:4649   */\n      tag_122\n      jump\t// in\n    tag_147:\n        /* \"#utility.yul\":4659:4731   */\n      tag_148\n        /* \"#utility.yul\":4727:4729   */\n      0x40\n        /* \"#utility.yul\":4716:4725   */\n      dup4\n        /* \"#utility.yul\":4712:4730   */\n      add\n        /* \"#utility.yul\":4703:4709   */\n      dup6\n        /* \"#utility.yul\":4659:4731   */\n      tag_118\n      jump\t// in\n    tag_148:\n        /* \"#utility.yul\":4741:4813   */\n      tag_149\n        /* \"#utility.yul\":4809:4811   */\n      0x60\n        /* \"#utility.yul\":4798:4807   */\n      dup4\n        /* \"#utility.yul\":4794:4812   */\n      add\n        /* \"#utility.yul\":4785:4791   */\n      dup5\n        /* \"#utility.yul\":4741:4813   */\n      tag_136\n      jump\t// in\n    tag_149:\n        /* \"#utility.yul\":4455:4820   */\n      swap6\n      swap5\n      pop\n      pop\n      pop\n      pop\n      pop\n      jump\t// out\n        /* \"#utility.yul\":4826:5109   */\n    tag_79:\n      0x00\n        /* \"#utility.yul\":4892:4894   */\n      0x40\n        /* \"#utility.yul\":4886:4895   */\n      mload\n        /* \"#utility.yul\":4876:4895   */\n      swap1\n      pop\n        /* \"#utility.yul\":4934:4938   */\n      dup2\n        /* \"#utility.yul\":4926:4932   */\n      dup2\n        /* \"#utility.yul\":4922:4939   */\n      add\n        /* \"#utility.yul\":5041:5047   */\n      dup2\n        /* \"#utility.yul\":5029:5039   */\n      dup2\n        /* \"#utility.yul\":5026:5048   */\n      lt\n        /* \"#utility.yul\":5005:5023   */\n      0xffffffffffffffff\n        /* \"#utility.yul\":4993:5003   */\n      dup3\n        /* \"#utility.yul\":4990:5024   */\n      gt\n        /* \"#utility.yul\":4987:5049   */\n      or\n        /* \"#utility.yul\":4984:4986   */\n      iszero\n      tag_151\n      jumpi\n        /* \"#utility.yul\":5052:5070   */\n      tag_152\n      tag_153\n      jump\t// in\n    tag_152:\n        /* \"#utility.yul\":4984:4986   */\n    tag_151:\n        /* \"#utility.yul\":5092:5102   */\n      dup1\n        /* \"#utility.yul\":5088:5090   */\n      0x40\n        /* \"#utility.yul\":5081:5103   */\n      mstore\n        /* \"#utility.yul\":4866:5109   */\n      pop\n      swap2\n      swap1\n      pop\n      jump\t// out\n        /* \"#utility.yul\":5115:5436   */\n    tag_78:\n      0x00\n        /* \"#utility.yul\":5292:5310   */\n      0xffffffffffffffff\n        /* \"#utility.yul\":5284:5290   */\n      dup3\n        /* \"#utility.yul\":5281:5311   */\n      gt\n        /* \"#utility.yul\":5278:5280   */\n      iszero\n      tag_155\n      jumpi\n        /* \"#utility.yul\":5314:5332   */\n      tag_156\n      tag_153\n      jump\t// in\n    tag_156:\n        /* \"#utility.yul\":5278:5280   */\n    tag_155:\n        /* \"#utility.yul\":5364:5368   */\n      0x20\n        /* \"#utility.yul\":5356:5362   */\n      dup3\n        /* \"#utility.yul\":5352:5369   */\n      mul\n        /* \"#utility.yul\":5344:5369   */\n      swap1\n      pop\n        /* \"#utility.yul\":5424:5428   */\n      0x20\n        /* \"#utility.yul\":5418:5422   */\n      dup2\n        /* \"#utility.yul\":5414:5429   */\n      add\n        /* \"#utility.yul\":5406:5429   */\n      swap1\n      pop\n        /* \"#utility.yul\":5207:5436   */\n      swap2\n      swap1\n      pop\n      jump\t// out\n        /* \"#utility.yul\":5442:5774   */\n    tag_89:\n      0x00\n        /* \"#utility.yul\":5594:5612   */\n      0xffffffffffffffff\n        /* \"#utility.yul\":5586:5592   */\n      dup3\n        /* \"#utility.yul\":5583:5613   */\n      gt\n        /* \"#utility.yul\":5580:5582   */\n      iszero\n      tag_158\n      jumpi\n        /* \"#utility.yul\":5616:5634   */\n      tag_159\n      tag_153\n      jump\t// in\n    tag_159:\n        /* \"#utility.yul\":5580:5582   */\n    tag_158:\n        /* \"#utility.yul\":5701:5705   */\n      0x1f\n        /* \"#utility.yul\":5697:5706   */\n      not\n        /* \"#utility.yul\":5690:5694   */\n      0x1f\n        /* \"#utility.yul\":5682:5688   */\n      dup4\n        /* \"#utility.yul\":5678:5695   */\n      add\n        /* \"#utility.yul\":5674:5707   */\n      and\n        /* \"#utility.yul\":5666:5707   */\n      swap1\n      pop\n        /* \"#utility.yul\":5762:5766   */\n      0x20\n        /* \"#utility.yul\":5756:5760   */\n      dup2\n        /* \"#utility.yul\":5752:5767   */\n      add\n        /* \"#utility.yul\":5744:5767   */\n      swap1\n      pop\n        /* \"#utility.yul\":5509:5774   */\n      swap2\n      swap1\n      pop\n      jump\t// out\n        /* \"#utility.yul\":5780:5879   */\n    tag_129:\n      0x00\n        /* \"#utility.yul\":5866:5871   */\n      dup2\n        /* \"#utility.yul\":5860:5872   */\n      mload\n        /* \"#utility.yul\":5850:5872   */\n      swap1\n      pop\n        /* \"#utility.yul\":5839:5879   */\n      swap2\n      swap1\n      pop\n      jump\t// out\n        /* \"#utility.yul\":5885:6054   */\n    tag_131:\n      0x00\n        /* \"#utility.yul\":6003:6009   */\n      dup3\n        /* \"#utility.yul\":5998:6001   */\n      dup3\n        /* \"#utility.yul\":5991:6010   */\n      mstore\n        /* \"#utility.yul\":6043:6047   */\n      0x20\n        /* \"#utility.yul\":6038:6041   */\n      dup3\n        /* \"#utility.yul\":6034:6048   */\n      add\n        /* \"#utility.yul\":6019:6048   */\n      swap1\n      pop\n        /* \"#utility.yul\":5981:6054   */\n      swap3\n      swap2\n      pop\n      pop\n      jump\t// out\n        /* \"#utility.yul\":6060:6365   */\n    tag_40:\n      0x00\n        /* \"#utility.yul\":6119:6139   */\n      tag_163\n        /* \"#utility.yul\":6137:6138   */\n      dup3\n        /* \"#utility.yul\":6119:6139   */\n      tag_139\n      jump\t// in\n    tag_163:\n        /* \"#utility.yul\":6114:6139   */\n      swap2\n      pop\n        /* \"#utility.yul\":6153:6173   */\n      tag_164\n        /* \"#utility.yul\":6171:6172   */\n      dup4\n        /* \"#utility.yul\":6153:6173   */\n      tag_139\n      jump\t// in\n    tag_164:\n        /* \"#utility.yul\":6148:6173   */\n      swap3\n      pop\n        /* \"#utility.yul\":6307:6308   */\n      dup3\n        /* \"#utility.yul\":6239:6305   */\n      0xffffffffffffffffffffffffffffffffffffffffffffffffffffffffffffffff\n        /* \"#utility.yul\":6235:6309   */\n      sub\n        /* \"#utility.yul\":6232:6233   */\n      dup3\n        /* \"#utility.yul\":6229:6310   */\n      gt\n        /* \"#utility.yul\":6226:6228   */\n      iszero\n      tag_165\n      jumpi\n        /* \"#utility.yul\":6313:6331   */\n      tag_166\n      tag_167\n      jump\t// in\n    tag_166:\n        /* \"#utility.yul\":6226:6228   */\n    tag_165:\n        /* \"#utility.yul\":6357:6358   */\n      dup3\n        /* \"#utility.yul\":6354:6355   */\n      dup3\n        /* \"#utility.yul\":6350:6359   */\n      add\n        /* \"#utility.yul\":6343:6359   */\n      swap1\n      pop\n        /* \"#utility.yul\":6104:6365   */\n      swap3\n      swap2\n      pop\n      pop\n      jump\t// out\n        /* \"#utility.yul\":6371:6467   */\n    tag_121:\n      0x00\n        /* \"#utility.yul\":6437:6461   */\n      tag_169\n        /* \"#utility.yul\":6455:6460   */\n      dup3\n        /* \"#utility.yul\":6437:6461   */\n      tag_170\n      jump\t// in\n    tag_169:\n        /* \"#utility.yul\":6426:6461   */\n      swap1\n      pop\n        /* \"#utility.yul\":6416:6467   */\n      swap2\n      swap1\n      pop\n      jump\t// out\n        /* \"#utility.yul\":6473:6563   */\n    tag_125:\n      0x00\n        /* \"#utility.yul\":6550:6555   */\n      dup2\n        /* \"#utility.yul\":6543:6556   */\n      iszero\n        /* \"#utility.yul\":6536:6557   */\n      iszero\n        /* \"#utility.yul\":6525:6557   */\n      swap1\n      pop\n        /* \"#utility.yul\":6515:6563   */\n      swap2\n      swap1\n      pop\n      jump\t// out\n        /* \"#utility.yul\":6569:6695   */\n    tag_170:\n      0x00\n        /* \"#utility.yul\":6646:6688   */\n      0xffffffffffffffffffffffffffffffffffffffff\n        /* \"#utility.yul\":6639:6644   */\n      dup3\n        /* \"#utility.yul\":6635:6689   */\n      and\n        /* \"#utility.yul\":6624:6689   */\n      swap1\n      pop\n        /* \"#utility.yul\":6614:6695   */\n      swap2\n      swap1\n      pop\n      jump\t// out\n        /* \"#utility.yul\":6701:6778   */\n    tag_139:\n      0x00\n        /* \"#utility.yul\":6767:6772   */\n      dup2\n        /* \"#utility.yul\":6756:6772   */\n      swap1\n      pop\n        /* \"#utility.yul\":6746:6778   */\n      swap2\n      swap1\n      pop\n      jump\t// out\n        /* \"#utility.yul\":6784:6938   */\n    tag_92:\n        /* \"#utility.yul\":6868:6874   */\n      dup3\n        /* \"#utility.yul\":6863:6866   */\n      dup2\n        /* \"#utility.yul\":6858:6861   */\n      dup4\n        /* \"#utility.yul\":6845:6875   */\n      calldatacopy\n        /* \"#utility.yul\":6930:6931   */\n      0x00\n        /* \"#utility.yul\":6921:6927   */\n      dup4\n        /* \"#utility.yul\":6916:6919   */\n      dup4\n        /* \"#utility.yul\":6912:6928   */\n      add\n        /* \"#utility.yul\":6905:6932   */\n      mstore\n        /* \"#utility.yul\":6835:6938   */\n      pop\n      pop\n      pop\n      jump\t// out\n        /* \"#utility.yul\":6944:7251   */\n    tag_133:\n        /* \"#utility.yul\":7012:7013   */\n      0x00\n        /* \"#utility.yul\":7022:7135   */\n    tag_176:\n        /* \"#utility.yul\":7036:7042   */\n      dup4\n        /* \"#utility.yul\":7033:7034   */\n      dup2\n        /* \"#utility.yul\":7030:7043   */\n      lt\n        /* \"#utility.yul\":7022:7135   */\n      iszero\n      tag_178\n      jumpi\n        /* \"#utility.yul\":7121:7122   */\n      dup1\n        /* \"#utility.yul\":7116:7119   */\n      dup3\n        /* \"#utility.yul\":7112:7123   */\n      add\n        /* \"#utility.yul\":7106:7124   */\n      mload\n        /* \"#utility.yul\":7102:7103   */\n      dup2\n        /* \"#utility.yul\":7097:7100   */\n      dup5\n        /* \"#utility.yul\":7093:7104   */\n      add\n        /* \"#utility.yul\":7086:7125   */\n      mstore\n        /* \"#utility.yul\":7058:7060   */\n      0x20\n        /* \"#utility.yul\":7055:7056   */\n      dup2\n        /* \"#utility.yul\":7051:7061   */\n      add\n        /* \"#utility.yul\":7046:7061   */\n      swap1\n      pop\n        /* \"#utility.yul\":7022:7135   */\n      jump(tag_176)\n    tag_178:\n        /* \"#utility.yul\":7153:7159   */\n      dup4\n        /* \"#utility.yul\":7150:7151   */\n      dup2\n        /* \"#utility.yul\":7147:7160   */\n      gt\n        /* \"#utility.yul\":7144:7146   */\n      iszero\n      tag_179\n      jumpi\n        /* \"#utility.yul\":7233:7234   */\n      0x00\n        /* \"#utility.yul\":7224:7230   */\n      dup5\n        /* \"#utility.yul\":7219:7222   */\n      dup5\n        /* \"#utility.yul\":7215:7231   */\n      add\n        /* \"#utility.yul\":7208:7235   */\n      mstore\n        /* \"#utility.yul\":7144:7146   */\n    tag_179:\n        /* \"#utility.yul\":6993:7251   */\n      pop\n      pop\n      pop\n      pop\n      jump\t// out\n        /* \"#utility.yul\":7257:7577   */\n    tag_44:\n      0x00\n        /* \"#utility.yul\":7338:7339   */\n      0x02\n        /* \"#utility.yul\":7332:7336   */\n      dup3\n        /* \"#utility.yul\":7328:7340   */\n      div\n        /* \"#utility.yul\":7318:7340   */\n      swap1\n      pop\n        /* \"#utility.yul\":7385:7386   */\n      0x01\n        /* \"#utility.yul\":7379:7383   */\n      dup3\n        /* \"#utility.yul\":7375:7387   */\n      and\n        /* \"#utility.yul\":7406:7424   */\n      dup1\n        /* \"#utility.yul\":7396:7398   */\n      tag_181\n      jumpi\n        /* \"#utility.yul\":7462:7466   */\n      0x7f\n        /* \"#utility.yul\":7454:7460   */\n      dup3\n        /* \"#utility.yul\":7450:7467   */\n      and\n        /* \"#utility.yul\":7440:7467   */\n      swap2\n      pop\n        /* \"#utility.yul\":7396:7398   */\n    tag_181:\n        /* \"#utility.yul\":7524:7526   */\n      0x20\n        /* \"#utility.yul\":7516:7522   */\n      dup3\n        /* \"#utility.yul\":7513:7527   */\n      lt\n        /* \"#utility.yul\":7493:7511   */\n      dup2\n        /* \"#utility.yul\":7490:7528   */\n      eq\n        /* \"#utility.yul\":7487:7489   */\n      iszero\n      tag_182\n      jumpi\n        /* \"#utility.yul\":7543:7561   */\n      tag_183\n      tag_184\n      jump\t// in\n    tag_183:\n        /* \"#utility.yul\":7487:7489   */\n    tag_182:\n        /* \"#utility.yul\":7308:7577   */\n      pop\n      swap2\n      swap1\n      pop\n      jump\t// out\n        /* \"#utility.yul\":7583:7816   */\n    tag_58:\n      0x00\n        /* \"#utility.yul\":7645:7669   */\n      tag_186\n        /* \"#utility.yul\":7663:7668   */\n      dup3\n        /* \"#utility.yul\":7645:7669   */\n      tag_139\n      jump\t// in\n    tag_186:\n        /* \"#utility.yul\":7636:7669   */\n      swap2\n      pop\n        /* \"#utility.yul\":7691:7757   */\n      0xffffffffffffffffffffffffffffffffffffffffffffffffffffffffffffffff\n        /* \"#utility.yul\":7684:7689   */\n      dup3\n        /* \"#utility.yul\":7681:7758   */\n      eq\n        /* \"#utility.yul\":7678:7680   */\n      iszero\n      tag_187\n      jumpi\n        /* \"#utility.yul\":7761:7779   */\n      tag_188\n      tag_167\n      jump\t// in\n    tag_188:\n        /* \"#utility.yul\":7678:7680   */\n    tag_187:\n        /* \"#utility.yul\":7808:7809   */\n      0x01\n        /* \"#utility.yul\":7801:7806   */\n      dup3\n        /* \"#utility.yul\":7797:7810   */\n      add\n        /* \"#utility.yul\":7790:7810   */\n      swap1\n      pop\n        /* \"#utility.yul\":7626:7816   */\n      swap2\n      swap1\n      pop\n      jump\t// out\n        /* \"#utility.yul\":7822:8002   */\n    tag_167:\n        /* \"#utility.yul\":7870:7947   */\n      0x4e487b7100000000000000000000000000000000000000000000000000000000\n        /* \"#utility.yul\":7867:7868   */\n      0x00\n        /* \"#utility.yul\":7860:7948   */\n      mstore\n        /* \"#utility.yul\":7967:7971   */\n      0x11\n        /* \"#utility.yul\":7964:7965   */\n      0x04\n        /* \"#utility.yul\":7957:7972   */\n      mstore\n        /* \"#utility.yul\":7991:7995   */\n      0x24\n        /* \"#utility.yul\":7988:7989   */\n      0x00\n        /* \"#utility.yul\":7981:7996   */\n      revert\n        /* \"#utility.yul\":8008:8188   */\n    tag_184:\n        /* \"#utility.yul\":8056:8133   */\n      0x4e487b7100000000000000000000000000000000000000000000000000000000\n        /* \"#utility.yul\":8053:8054   */\n      0x00\n        /* \"#utility.yul\":8046:8134   */\n      mstore\n        /* \"#utility.yul\":8153:8157   */\n      0x22\n        /* \"#utility.yul\":8150:8151   */\n      0x04\n        /* \"#utility.yul\":8143:8158   */\n      mstore\n        /* \"#utility.yul\":8177:8181   */\n      0x24\n        /* \"#utility.yul\":8174:8175   */\n      0x00\n        /* \"#utility.yul\":8167:8182   */\n      revert\n        /* \"#utility.yul\":8194:8374   */\n    tag_153:\n        /* \"#utility.yul\":8242:8319   */\n      0x4e487b7100000000000000000000000000000000000000000000000000000000\n        /* \"#utility.yul\":8239:8240   */\n      0x00\n        /* \"#utility.yul\":8232:8320   */\n      mstore\n        /* \"#utility.yul\":8339:8343   */\n      0x41\n        /* \"#utility.yul\":8336:8337   */\n      0x04\n        /* \"#utility.yul\":8329:8344   */\n      mstore\n        /* \"#utility.yul\":8363:8367   */\n      0x24\n        /* \"#utility.yul\":8360:8361   */\n      0x00\n        /* \"#utility.yul\":8353:8368   */\n      revert\n        /* \"#utility.yul\":8380:8482   */\n    tag_135:\n      0x00\n        /* \"#utility.yul\":8472:8474   */\n      0x1f\n        /* \"#utility.yul\":8468:8475   */\n      not\n        /* \"#utility.yul\":8463:8465   */\n      0x1f\n        /* \"#utility.yul\":8456:8461   */\n      dup4\n        /* \"#utility.yul\":8452:8466   */\n      add\n        /* \"#utility.yul\":8448:8476   */\n      and\n        /* \"#utility.yul\":8438:8476   */\n      swap1\n      pop\n        /* \"#utility.yul\":8428:8482   */\n      swap2\n      swap1\n      pop\n      jump\t// out\n        /* \"#utility.yul\":8488:8610   */\n    tag_96:\n        /* \"#utility.yul\":8561:8585   */\n      tag_194\n        /* \"#utility.yul\":8579:8584   */\n      dup2\n        /* \"#utility.yul\":8561:8585   */\n      tag_121\n      jump\t// in\n    tag_194:\n        /* \"#utility.yul\":8554:8559   */\n      dup2\n        /* \"#utility.yul\":8551:8586   */\n      eq\n        /* \"#utility.yul\":8541:8543   */\n      tag_195\n      jumpi\n        /* \"#utility.yul\":8600:8601   */\n      0x00\n        /* \"#utility.yul\":8597:8598   */\n      dup1\n        /* \"#utility.yul\":8590:8602   */\n      revert\n        /* \"#utility.yul\":8541:8543   */\n    tag_195:\n        /* \"#utility.yul\":8531:8610   */\n      pop\n      jump\t// out\n        /* \"#utility.yul\":8616:8738   */\n    tag_107:\n        /* \"#utility.yul\":8689:8713   */\n      tag_197\n        /* \"#utility.yul\":8707:8712   */\n      dup2\n        /* \"#utility.yul\":8689:8713   */\n      tag_139\n      jump\t// in\n    tag_197:\n        /* \"#utility.yul\":8682:8687   */\n      dup2\n        /* \"#utility.yul\":8679:8714   */\n      eq\n        /* \"#utility.yul\":8669:8671   */\n      tag_198\n      jumpi\n        /* \"#utility.yul\":8728:8729   */\n      0x00\n        /* \"#utility.yul\":8725:8726   */\n      dup1\n        /* \"#utility.yul\":8718:8730   */\n      revert\n        /* \"#utility.yul\":8669:8671   */\n    tag_198:\n        /* \"#utility.yul\":8659:8738   */\n      pop\n      jump\t// out\n\n    auxdata: 0xa264697066735822122057fef1529a9d00a1ef5760a6b475988080ab16e8e60916b41931a33d4a7eddf264736f6c63430008000033\n}\n",
				"bytecode": {
					"linkReferences": {},
					"object": "608060405234801561001057600080fd5b50610c72806100206000396000f3fe608060405234801561001057600080fd5b50600436106100625760003560e01c80630121b93f14610067578063013cf08b146100835780632e4176cf146100b4578063836bc692146100d25780639e7b8d61146100ee578063a3ec138d1461010a575b600080fd5b610081600480360381019061007c919061084d565b61013d565b005b61009d6004803603810190610098919061084d565b61022c565b6040516100ab9291906108f7565b60405180910390f35b6100bc6102e8565b6040516100c991906108dc565b60405180910390f35b6100ec60048036038101906100e7919061080c565b61030c565b005b610108600480360381019061010391906107e3565b610481565b005b610124600480360381019061011f91906107e3565b6105ca565b6040516101349493929190610927565b60405180910390f35b6000600160003373ffffffffffffffffffffffffffffffffffffffff1673ffffffffffffffffffffffffffffffffffffffff16815260200190815260200160002090508060010160009054906101000a900460ff161561019c57600080fd5b60018160010160006101000a81548160ff021916908315150217905550818160020181905550806000015460028381548110610201577f4e487b7100000000000000000000000000000000000000000000000000000000600052603260045260246000fd5b906000526020600020906002020160010160008282546102219190610a15565b925050819055505050565b6002818154811061023c57600080fd5b906000526020600020906002020160009150905080600001805461025f90610af5565b80601f016020809104026020016040519081016040528092919081815260200182805461028b90610af5565b80156102d85780601f106102ad576101008083540402835291602001916102d8565b820191906000526020600020905b8154815290600101906020018083116102bb57829003601f168201915b5050505050908060010154905082565b60008054906101000a900473ffffffffffffffffffffffffffffffffffffffff1681565b336000806101000a81548173ffffffffffffffffffffffffffffffffffffffff021916908373ffffffffffffffffffffffffffffffffffffffff16021790555060018060008060009054906101000a900473ffffffffffffffffffffffffffffffffffffffff1673ffffffffffffffffffffffffffffffffffffffff1673ffffffffffffffffffffffffffffffffffffffff1681526020019081526020016000206000018190555060005b815181101561047d5760026040518060400160405280848481518110610406577f4e487b7100000000000000000000000000000000000000000000000000000000600052603260045260246000fd5b6020026020010151815260200160008152509080600181540180825580915050600190039060005260206000209060020201600090919091909150600082015181600001908051906020019061045d929190610627565b50602082015181600101555050808061047590610b27565b9150506103b7565b5050565b60008054906101000a900473ffffffffffffffffffffffffffffffffffffffff1673ffffffffffffffffffffffffffffffffffffffff163373ffffffffffffffffffffffffffffffffffffffff161480156105295750600160008273ffffffffffffffffffffffffffffffffffffffff1673ffffffffffffffffffffffffffffffffffffffff16815260200190815260200160002060010160009054906101000a900460ff16155b801561057757506000600160008373ffffffffffffffffffffffffffffffffffffffff1673ffffffffffffffffffffffffffffffffffffffff16815260200190815260200160002060000154145b61058057600080fd5b60018060008373ffffffffffffffffffffffffffffffffffffffff1673ffffffffffffffffffffffffffffffffffffffff1681526020019081526020016000206000018190555050565b60016020528060005260406000206000915090508060000154908060010160009054906101000a900460ff16908060010160019054906101000a900473ffffffffffffffffffffffffffffffffffffffff16908060020154905084565b82805461063390610af5565b90600052602060002090601f016020900481019282610655576000855561069c565b82601f1061066e57805160ff191683800117855561069c565b8280016001018555821561069c579182015b8281111561069b578251825591602001919060010190610680565b5b5090506106a991906106ad565b5090565b5b808211156106c65760008160009055506001016106ae565b5090565b60006106dd6106d88461099d565b61096c565b9050808382526020820190508260005b8581101561071d578135850161070388826107a4565b8452602084019350602083019250506001810190506106ed565b5050509392505050565b600061073a610735846109c9565b61096c565b90508281526020810184848401111561075257600080fd5b61075d848285610ab3565b509392505050565b60008135905061077481610c0e565b92915050565b600082601f83011261078b57600080fd5b813561079b8482602086016106ca565b91505092915050565b600082601f8301126107b557600080fd5b81356107c5848260208601610727565b91505092915050565b6000813590506107dd81610c25565b92915050565b6000602082840312156107f557600080fd5b600061080384828501610765565b91505092915050565b60006020828403121561081e57600080fd5b600082013567ffffffffffffffff81111561083857600080fd5b6108448482850161077a565b91505092915050565b60006020828403121561085f57600080fd5b600061086d848285016107ce565b91505092915050565b61087f81610a6b565b82525050565b61088e81610a7d565b82525050565b600061089f826109f9565b6108a98185610a04565b93506108b9818560208601610ac2565b6108c281610bfd565b840191505092915050565b6108d681610aa9565b82525050565b60006020820190506108f16000830184610876565b92915050565b600060408201905081810360008301526109118185610894565b905061092060208301846108cd565b9392505050565b600060808201905061093c60008301876108cd565b6109496020830186610885565b6109566040830185610876565b61096360608301846108cd565b95945050505050565b6000604051905081810181811067ffffffffffffffff8211171561099357610992610bce565b5b8060405250919050565b600067ffffffffffffffff8211156109b8576109b7610bce565b5b602082029050602081019050919050565b600067ffffffffffffffff8211156109e4576109e3610bce565b5b601f19601f8301169050602081019050919050565b600081519050919050565b600082825260208201905092915050565b6000610a2082610aa9565b9150610a2b83610aa9565b9250827fffffffffffffffffffffffffffffffffffffffffffffffffffffffffffffffff03821115610a6057610a5f610b70565b5b828201905092915050565b6000610a7682610a89565b9050919050565b60008115159050919050565b600073ffffffffffffffffffffffffffffffffffffffff82169050919050565b6000819050919050565b82818337600083830152505050565b60005b83811015610ae0578082015181840152602081019050610ac5565b83811115610aef576000848401525b50505050565b60006002820490506001821680610b0d57607f821691505b60208210811415610b2157610b20610b9f565b5b50919050565b6000610b3282610aa9565b91507fffffffffffffffffffffffffffffffffffffffffffffffffffffffffffffffff821415610b6557610b64610b70565b5b600182019050919050565b7f4e487b7100000000000000000000000000000000000000000000000000000000600052601160045260246000fd5b7f4e487b7100000000000000000000000000000000000000000000000000000000600052602260045260246000fd5b7f4e487b7100000000000000000000000000000000000000000000000000000000600052604160045260246000fd5b6000601f19601f8301169050919050565b610c1781610a6b565b8114610c2257600080fd5b50565b610c2e81610aa9565b8114610c3957600080fd5b5056fea264697066735822122057fef1529a9d00a1ef5760a6b475988080ab16e8e60916b41931a33d4a7eddf264736f6c63430008000033",
					"opcodes": "PUSH1 0x80 PUSH1 0x40 MSTORE CALLVALUE DUP1 ISZERO PUSH2 0x10 JUMPI PUSH1 0x0 DUP1 REVERT JUMPDEST POP PUSH2 0xC72 DUP1 PUSH2 0x20 PUSH1 0x0 CODECOPY PUSH1 0x0 RETURN INVALID PUSH1 0x80 PUSH1 0x40 MSTORE CALLVALUE DUP1 ISZERO PUSH2 0x10 JUMPI PUSH1 0x0 DUP1 REVERT JUMPDEST POP PUSH1 0x4 CALLDATASIZE LT PUSH2 0x62 JUMPI PUSH1 0x0 CALLDATALOAD PUSH1 0xE0 SHR DUP1 PUSH4 0x121B93F EQ PUSH2 0x67 JUMPI DUP1 PUSH4 0x13CF08B EQ PUSH2 0x83 JUMPI DUP1 PUSH4 0x2E4176CF EQ PUSH2 0xB4 JUMPI DUP1 PUSH4 0x836BC692 EQ PUSH2 0xD2 JUMPI DUP1 PUSH4 0x9E7B8D61 EQ PUSH2 0xEE JUMPI DUP1 PUSH4 0xA3EC138D EQ PUSH2 0x10A JUMPI JUMPDEST PUSH1 0x0 DUP1 REVERT JUMPDEST PUSH2 0x81 PUSH1 0x4 DUP1 CALLDATASIZE SUB DUP2 ADD SWAP1 PUSH2 0x7C SWAP2 SWAP1 PUSH2 0x84D JUMP JUMPDEST PUSH2 0x13D JUMP JUMPDEST STOP JUMPDEST PUSH2 0x9D PUSH1 0x4 DUP1 CALLDATASIZE SUB DUP2 ADD SWAP1 PUSH2 0x98 SWAP2 SWAP1 PUSH2 0x84D JUMP JUMPDEST PUSH2 0x22C JUMP JUMPDEST PUSH1 0x40 MLOAD PUSH2 0xAB SWAP3 SWAP2 SWAP1 PUSH2 0x8F7 JUMP JUMPDEST PUSH1 0x40 MLOAD DUP1 SWAP2 SUB SWAP1 RETURN JUMPDEST PUSH2 0xBC PUSH2 0x2E8 JUMP JUMPDEST PUSH1 0x40 MLOAD PUSH2 0xC9 SWAP2 SWAP1 PUSH2 0x8DC JUMP JUMPDEST PUSH1 0x40 MLOAD DUP1 SWAP2 SUB SWAP1 RETURN JUMPDEST PUSH2 0xEC PUSH1 0x4 DUP1 CALLDATASIZE SUB DUP2 ADD SWAP1 PUSH2 0xE7 SWAP2 SWAP1 PUSH2 0x80C JUMP JUMPDEST PUSH2 0x30C JUMP JUMPDEST STOP JUMPDEST PUSH2 0x108 PUSH1 0x4 DUP1 CALLDATASIZE SUB DUP2 ADD SWAP1 PUSH2 0x103 SWAP2 SWAP1 PUSH2 0x7E3 JUMP JUMPDEST PUSH2 0x481 JUMP JUMPDEST STOP JUMPDEST PUSH2 0x124 PUSH1 0x4 DUP1 CALLDATASIZE SUB DUP2 ADD SWAP1 PUSH2 0x11F SWAP2 SWAP1 PUSH2 0x7E3 JUMP JUMPDEST PUSH2 0x5CA JUMP JUMPDEST PUSH1 0x40 MLOAD PUSH2 0x134 SWAP5 SWAP4 SWAP3 SWAP2 SWAP1 PUSH2 0x927 JUMP JUMPDEST PUSH1 0x40 MLOAD DUP1 SWAP2 SUB SWAP1 RETURN JUMPDEST PUSH1 0x0 PUSH1 0x1 PUSH1 0x0 CALLER PUSH20 0xFFFFFFFFFFFFFFFFFFFFFFFFFFFFFFFFFFFFFFFF AND PUSH20 0xFFFFFFFFFFFFFFFFFFFFFFFFFFFFFFFFFFFFFFFF AND DUP2 MSTORE PUSH1 0x20 ADD SWAP1 DUP2 MSTORE PUSH1 0x20 ADD PUSH1 0x0 KECCAK256 SWAP1 POP DUP1 PUSH1 0x1 ADD PUSH1 0x0 SWAP1 SLOAD SWAP1 PUSH2 0x100 EXP SWAP1 DIV PUSH1 0xFF AND ISZERO PUSH2 0x19C JUMPI PUSH1 0x0 DUP1 REVERT JUMPDEST PUSH1 0x1 DUP2 PUSH1 0x1 ADD PUSH1 0x0 PUSH2 0x100 EXP DUP2 SLOAD DUP2 PUSH1 0xFF MUL NOT AND SWAP1 DUP4 ISZERO ISZERO MUL OR SWAP1 SSTORE POP DUP2 DUP2 PUSH1 0x2 ADD DUP2 SWAP1 SSTORE POP DUP1 PUSH1 0x0 ADD SLOAD PUSH1 0x2 DUP4 DUP2 SLOAD DUP2 LT PUSH2 0x201 JUMPI PUSH32 0x4E487B7100000000000000000000000000000000000000000000000000000000 PUSH1 0x0 MSTORE PUSH1 0x32 PUSH1 0x4 MSTORE PUSH1 0x24 PUSH1 0x0 REVERT JUMPDEST SWAP1 PUSH1 0x0 MSTORE PUSH1 0x20 PUSH1 0x0 KECCAK256 SWAP1 PUSH1 0x2 MUL ADD PUSH1 0x1 ADD PUSH1 0x0 DUP3 DUP3 SLOAD PUSH2 0x221 SWAP2 SWAP1 PUSH2 0xA15 JUMP JUMPDEST SWAP3 POP POP DUP2 SWAP1 SSTORE POP POP POP JUMP JUMPDEST PUSH1 0x2 DUP2 DUP2 SLOAD DUP2 LT PUSH2 0x23C JUMPI PUSH1 0x0 DUP1 REVERT JUMPDEST SWAP1 PUSH1 0x0 MSTORE PUSH1 0x20 PUSH1 0x0 KECCAK256 SWAP1 PUSH1 0x2 MUL ADD PUSH1 0x0 SWAP2 POP SWAP1 POP DUP1 PUSH1 0x0 ADD DUP1 SLOAD PUSH2 0x25F SWAP1 PUSH2 0xAF5 JUMP JUMPDEST DUP1 PUSH1 0x1F ADD PUSH1 0x20 DUP1 SWAP2 DIV MUL PUSH1 0x20 ADD PUSH1 0x40 MLOAD SWAP1 DUP2 ADD PUSH1 0x40 MSTORE DUP1 SWAP3 SWAP2 SWAP1 DUP2 DUP2 MSTORE PUSH1 0x20 ADD DUP3 DUP1 SLOAD PUSH2 0x28B SWAP1 PUSH2 0xAF5 JUMP JUMPDEST DUP1 ISZERO PUSH2 0x2D8 JUMPI DUP1 PUSH1 0x1F LT PUSH2 0x2AD JUMPI PUSH2 0x100 DUP1 DUP4 SLOAD DIV MUL DUP4 MSTORE SWAP2 PUSH1 0x20 ADD SWAP2 PUSH2 0x2D8 JUMP JUMPDEST DUP3 ADD SWAP2 SWAP1 PUSH1 0x0 MSTORE PUSH1 0x20 PUSH1 0x0 KECCAK256 SWAP1 JUMPDEST DUP2 SLOAD DUP2 MSTORE SWAP1 PUSH1 0x1 ADD SWAP1 PUSH1 0x20 ADD DUP1 DUP4 GT PUSH2 0x2BB JUMPI DUP3 SWAP1 SUB PUSH1 0x1F AND DUP3 ADD SWAP2 JUMPDEST POP POP POP POP POP SWAP1 DUP1 PUSH1 0x1 ADD SLOAD SWAP1 POP DUP3 JUMP JUMPDEST PUSH1 0x0 DUP1 SLOAD SWAP1 PUSH2 0x100 EXP SWAP1 DIV PUSH20 0xFFFFFFFFFFFFFFFFFFFFFFFFFFFFFFFFFFFFFFFF AND DUP2 JUMP JUMPDEST CALLER PUSH1 0x0 DUP1 PUSH2 0x100 EXP DUP2 SLOAD DUP2 PUSH20 0xFFFFFFFFFFFFFFFFFFFFFFFFFFFFFFFFFFFFFFFF MUL NOT AND SWAP1 DUP4 PUSH20 0xFFFFFFFFFFFFFFFFFFFFFFFFFFFFFFFFFFFFFFFF AND MUL OR SWAP1 SSTORE POP PUSH1 0x1 DUP1 PUSH1 0x0 DUP1 PUSH1 0x0 SWAP1 SLOAD SWAP1 PUSH2 0x100 EXP SWAP1 DIV PUSH20 0xFFFFFFFFFFFFFFFFFFFFFFFFFFFFFFFFFFFFFFFF AND PUSH20 0xFFFFFFFFFFFFFFFFFFFFFFFFFFFFFFFFFFFFFFFF AND PUSH20 0xFFFFFFFFFFFFFFFFFFFFFFFFFFFFFFFFFFFFFFFF AND DUP2 MSTORE PUSH1 0x20 ADD SWAP1 DUP2 MSTORE PUSH1 0x20 ADD PUSH1 0x0 KECCAK256 PUSH1 0x0 ADD DUP2 SWAP1 SSTORE POP PUSH1 0x0 JUMPDEST DUP2 MLOAD DUP2 LT ISZERO PUSH2 0x47D JUMPI PUSH1 0x2 PUSH1 0x40 MLOAD DUP1 PUSH1 0x40 ADD PUSH1 0x40 MSTORE DUP1 DUP5 DUP5 DUP2 MLOAD DUP2 LT PUSH2 0x406 JUMPI PUSH32 0x4E487B7100000000000000000000000000000000000000000000000000000000 PUSH1 0x0 MSTORE PUSH1 0x32 PUSH1 0x4 MSTORE PUSH1 0x24 PUSH1 0x0 REVERT JUMPDEST PUSH1 0x20 MUL PUSH1 0x20 ADD ADD MLOAD DUP2 MSTORE PUSH1 0x20 ADD PUSH1 0x0 DUP2 MSTORE POP SWAP1 DUP1 PUSH1 0x1 DUP2 SLOAD ADD DUP1 DUP3 SSTORE DUP1 SWAP2 POP POP PUSH1 0x1 SWAP1 SUB SWAP1 PUSH1 0x0 MSTORE PUSH1 0x20 PUSH1 0x0 KECCAK256 SWAP1 PUSH1 0x2 MUL ADD PUSH1 0x0 SWAP1 SWAP2 SWAP1 SWAP2 SWAP1 SWAP2 POP PUSH1 0x0 DUP3 ADD MLOAD DUP2 PUSH1 0x0 ADD SWAP1 DUP1 MLOAD SWAP1 PUSH1 0x20 ADD SWAP1 PUSH2 0x45D SWAP3 SWAP2 SWAP1 PUSH2 0x627 JUMP JUMPDEST POP PUSH1 0x20 DUP3 ADD MLOAD DUP2 PUSH1 0x1 ADD SSTORE POP POP DUP1 DUP1 PUSH2 0x475 SWAP1 PUSH2 0xB27 JUMP JUMPDEST SWAP2 POP POP PUSH2 0x3B7 JUMP JUMPDEST POP POP JUMP JUMPDEST PUSH1 0x0 DUP1 SLOAD SWAP1 PUSH2 0x100 EXP SWAP1 DIV PUSH20 0xFFFFFFFFFFFFFFFFFFFFFFFFFFFFFFFFFFFFFFFF AND PUSH20 0xFFFFFFFFFFFFFFFFFFFFFFFFFFFFFFFFFFFFFFFF AND CALLER PUSH20 0xFFFFFFFFFFFFFFFFFFFFFFFFFFFFFFFFFFFFFFFF AND EQ DUP1 ISZERO PUSH2 0x529 JUMPI POP PUSH1 0x1 PUSH1 0x0 DUP3 PUSH20 0xFFFFFFFFFFFFFFFFFFFFFFFFFFFFFFFFFFFFFFFF AND PUSH20 0xFFFFFFFFFFFFFFFFFFFFFFFFFFFFFFFFFFFFFFFF AND DUP2 MSTORE PUSH1 0x20 ADD SWAP1 DUP2 MSTORE PUSH1 0x20 ADD PUSH1 0x0 KECCAK256 PUSH1 0x1 ADD PUSH1 0x0 SWAP1 SLOAD SWAP1 PUSH2 0x100 EXP SWAP1 DIV PUSH1 0xFF AND ISZERO JUMPDEST DUP1 ISZERO PUSH2 0x577 JUMPI POP PUSH1 0x0 PUSH1 0x1 PUSH1 0x0 DUP4 PUSH20 0xFFFFFFFFFFFFFFFFFFFFFFFFFFFFFFFFFFFFFFFF AND PUSH20 0xFFFFFFFFFFFFFFFFFFFFFFFFFFFFFFFFFFFFFFFF AND DUP2 MSTORE PUSH1 0x20 ADD SWAP1 DUP2 MSTORE PUSH1 0x20 ADD PUSH1 0x0 KECCAK256 PUSH1 0x0 ADD SLOAD EQ JUMPDEST PUSH2 0x580 JUMPI PUSH1 0x0 DUP1 REVERT JUMPDEST PUSH1 0x1 DUP1 PUSH1 0x0 DUP4 PUSH20 0xFFFFFFFFFFFFFFFFFFFFFFFFFFFFFFFFFFFFFFFF AND PUSH20 0xFFFFFFFFFFFFFFFFFFFFFFFFFFFFFFFFFFFFFFFF AND DUP2 MSTORE PUSH1 0x20 ADD SWAP1 DUP2 MSTORE PUSH1 0x20 ADD PUSH1 0x0 KECCAK256 PUSH1 0x0 ADD DUP2 SWAP1 SSTORE POP POP JUMP JUMPDEST PUSH1 0x1 PUSH1 0x20 MSTORE DUP1 PUSH1 0x0 MSTORE PUSH1 0x40 PUSH1 0x0 KECCAK256 PUSH1 0x0 SWAP2 POP SWAP1 POP DUP1 PUSH1 0x0 ADD SLOAD SWAP1 DUP1 PUSH1 0x1 ADD PUSH1 0x0 SWAP1 SLOAD SWAP1 PUSH2 0x100 EXP SWAP1 DIV PUSH1 0xFF AND SWAP1 DUP1 PUSH1 0x1 ADD PUSH1 0x1 SWAP1 SLOAD SWAP1 PUSH2 0x100 EXP SWAP1 DIV PUSH20 0xFFFFFFFFFFFFFFFFFFFFFFFFFFFFFFFFFFFFFFFF AND SWAP1 DUP1 PUSH1 0x2 ADD SLOAD SWAP1 POP DUP5 JUMP JUMPDEST DUP3 DUP1 SLOAD PUSH2 0x633 SWAP1 PUSH2 0xAF5 JUMP JUMPDEST SWAP1 PUSH1 0x0 MSTORE PUSH1 0x20 PUSH1 0x0 KECCAK256 SWAP1 PUSH1 0x1F ADD PUSH1 0x20 SWAP1 DIV DUP2 ADD SWAP3 DUP3 PUSH2 0x655 JUMPI PUSH1 0x0 DUP6 SSTORE PUSH2 0x69C JUMP JUMPDEST DUP3 PUSH1 0x1F LT PUSH2 0x66E JUMPI DUP1 MLOAD PUSH1 0xFF NOT AND DUP4 DUP1 ADD OR DUP6 SSTORE PUSH2 0x69C JUMP JUMPDEST DUP3 DUP1 ADD PUSH1 0x1 ADD DUP6 SSTORE DUP3 ISZERO PUSH2 0x69C JUMPI SWAP2 DUP3 ADD JUMPDEST DUP3 DUP2 GT ISZERO PUSH2 0x69B JUMPI DUP3 MLOAD DUP3 SSTORE SWAP2 PUSH1 0x20 ADD SWAP2 SWAP1 PUSH1 0x1 ADD SWAP1 PUSH2 0x680 JUMP JUMPDEST JUMPDEST POP SWAP1 POP PUSH2 0x6A9 SWAP2 SWAP1 PUSH2 0x6AD JUMP JUMPDEST POP SWAP1 JUMP JUMPDEST JUMPDEST DUP1 DUP3 GT ISZERO PUSH2 0x6C6 JUMPI PUSH1 0x0 DUP2 PUSH1 0x0 SWAP1 SSTORE POP PUSH1 0x1 ADD PUSH2 0x6AE JUMP JUMPDEST POP SWAP1 JUMP JUMPDEST PUSH1 0x0 PUSH2 0x6DD PUSH2 0x6D8 DUP5 PUSH2 0x99D JUMP JUMPDEST PUSH2 0x96C JUMP JUMPDEST SWAP1 POP DUP1 DUP4 DUP3 MSTORE PUSH1 0x20 DUP3 ADD SWAP1 POP DUP3 PUSH1 0x0 JUMPDEST DUP6 DUP2 LT ISZERO PUSH2 0x71D JUMPI DUP2 CALLDATALOAD DUP6 ADD PUSH2 0x703 DUP9 DUP3 PUSH2 0x7A4 JUMP JUMPDEST DUP5 MSTORE PUSH1 0x20 DUP5 ADD SWAP4 POP PUSH1 0x20 DUP4 ADD SWAP3 POP POP PUSH1 0x1 DUP2 ADD SWAP1 POP PUSH2 0x6ED JUMP JUMPDEST POP POP POP SWAP4 SWAP3 POP POP POP JUMP JUMPDEST PUSH1 0x0 PUSH2 0x73A PUSH2 0x735 DUP5 PUSH2 0x9C9 JUMP JUMPDEST PUSH2 0x96C JUMP JUMPDEST SWAP1 POP DUP3 DUP2 MSTORE PUSH1 0x20 DUP2 ADD DUP5 DUP5 DUP5 ADD GT ISZERO PUSH2 0x752 JUMPI PUSH1 0x0 DUP1 REVERT JUMPDEST PUSH2 0x75D DUP5 DUP3 DUP6 PUSH2 0xAB3 JUMP JUMPDEST POP SWAP4 SWAP3 POP POP POP JUMP JUMPDEST PUSH1 0x0 DUP2 CALLDATALOAD SWAP1 POP PUSH2 0x774 DUP2 PUSH2 0xC0E JUMP JUMPDEST SWAP3 SWAP2 POP POP JUMP JUMPDEST PUSH1 0x0 DUP3 PUSH1 0x1F DUP4 ADD SLT PUSH2 0x78B JUMPI PUSH1 0x0 DUP1 REVERT JUMPDEST DUP2 CALLDATALOAD PUSH2 0x79B DUP5 DUP3 PUSH1 0x20 DUP7 ADD PUSH2 0x6CA JUMP JUMPDEST SWAP2 POP POP SWAP3 SWAP2 POP POP JUMP JUMPDEST PUSH1 0x0 DUP3 PUSH1 0x1F DUP4 ADD SLT PUSH2 0x7B5 JUMPI PUSH1 0x0 DUP1 REVERT JUMPDEST DUP2 CALLDATALOAD PUSH2 0x7C5 DUP5 DUP3 PUSH1 0x20 DUP7 ADD PUSH2 0x727 JUMP JUMPDEST SWAP2 POP POP SWAP3 SWAP2 POP POP JUMP JUMPDEST PUSH1 0x0 DUP2 CALLDATALOAD SWAP1 POP PUSH2 0x7DD DUP2 PUSH2 0xC25 JUMP JUMPDEST SWAP3 SWAP2 POP POP JUMP JUMPDEST PUSH1 0x0 PUSH1 0x20 DUP3 DUP5 SUB SLT ISZERO PUSH2 0x7F5 JUMPI PUSH1 0x0 DUP1 REVERT JUMPDEST PUSH1 0x0 PUSH2 0x803 DUP5 DUP3 DUP6 ADD PUSH2 0x765 JUMP JUMPDEST SWAP2 POP POP SWAP3 SWAP2 POP POP JUMP JUMPDEST PUSH1 0x0 PUSH1 0x20 DUP3 DUP5 SUB SLT ISZERO PUSH2 0x81E JUMPI PUSH1 0x0 DUP1 REVERT JUMPDEST PUSH1 0x0 DUP3 ADD CALLDATALOAD PUSH8 0xFFFFFFFFFFFFFFFF DUP2 GT ISZERO PUSH2 0x838 JUMPI PUSH1 0x0 DUP1 REVERT JUMPDEST PUSH2 0x844 DUP5 DUP3 DUP6 ADD PUSH2 0x77A JUMP JUMPDEST SWAP2 POP POP SWAP3 SWAP2 POP POP JUMP JUMPDEST PUSH1 0x0 PUSH1 0x20 DUP3 DUP5 SUB SLT ISZERO PUSH2 0x85F JUMPI PUSH1 0x0 DUP1 REVERT JUMPDEST PUSH1 0x0 PUSH2 0x86D DUP5 DUP3 DUP6 ADD PUSH2 0x7CE JUMP JUMPDEST SWAP2 POP POP SWAP3 SWAP2 POP POP JUMP JUMPDEST PUSH2 0x87F DUP2 PUSH2 0xA6B JUMP JUMPDEST DUP3 MSTORE POP POP JUMP JUMPDEST PUSH2 0x88E DUP2 PUSH2 0xA7D JUMP JUMPDEST DUP3 MSTORE POP POP JUMP JUMPDEST PUSH1 0x0 PUSH2 0x89F DUP3 PUSH2 0x9F9 JUMP JUMPDEST PUSH2 0x8A9 DUP2 DUP6 PUSH2 0xA04 JUMP JUMPDEST SWAP4 POP PUSH2 0x8B9 DUP2 DUP6 PUSH1 0x20 DUP7 ADD PUSH2 0xAC2 JUMP JUMPDEST PUSH2 0x8C2 DUP2 PUSH2 0xBFD JUMP JUMPDEST DUP5 ADD SWAP2 POP POP SWAP3 SWAP2 POP POP JUMP JUMPDEST PUSH2 0x8D6 DUP2 PUSH2 0xAA9 JUMP JUMPDEST DUP3 MSTORE POP POP JUMP JUMPDEST PUSH1 0x0 PUSH1 0x20 DUP3 ADD SWAP1 POP PUSH2 0x8F1 PUSH1 0x0 DUP4 ADD DUP5 PUSH2 0x876 JUMP JUMPDEST SWAP3 SWAP2 POP POP JUMP JUMPDEST PUSH1 0x0 PUSH1 0x40 DUP3 ADD SWAP1 POP DUP2 DUP2 SUB PUSH1 0x0 DUP4 ADD MSTORE PUSH2 0x911 DUP2 DUP6 PUSH2 0x894 JUMP JUMPDEST SWAP1 POP PUSH2 0x920 PUSH1 0x20 DUP4 ADD DUP5 PUSH2 0x8CD JUMP JUMPDEST SWAP4 SWAP3 POP POP POP JUMP JUMPDEST PUSH1 0x0 PUSH1 0x80 DUP3 ADD SWAP1 POP PUSH2 0x93C PUSH1 0x0 DUP4 ADD DUP8 PUSH2 0x8CD JUMP JUMPDEST PUSH2 0x949 PUSH1 0x20 DUP4 ADD DUP7 PUSH2 0x885 JUMP JUMPDEST PUSH2 0x956 PUSH1 0x40 DUP4 ADD DUP6 PUSH2 0x876 JUMP JUMPDEST PUSH2 0x963 PUSH1 0x60 DUP4 ADD DUP5 PUSH2 0x8CD JUMP JUMPDEST SWAP6 SWAP5 POP POP POP POP POP JUMP JUMPDEST PUSH1 0x0 PUSH1 0x40 MLOAD SWAP1 POP DUP2 DUP2 ADD DUP2 DUP2 LT PUSH8 0xFFFFFFFFFFFFFFFF DUP3 GT OR ISZERO PUSH2 0x993 JUMPI PUSH2 0x992 PUSH2 0xBCE JUMP JUMPDEST JUMPDEST DUP1 PUSH1 0x40 MSTORE POP SWAP2 SWAP1 POP JUMP JUMPDEST PUSH1 0x0 PUSH8 0xFFFFFFFFFFFFFFFF DUP3 GT ISZERO PUSH2 0x9B8 JUMPI PUSH2 0x9B7 PUSH2 0xBCE JUMP JUMPDEST JUMPDEST PUSH1 0x20 DUP3 MUL SWAP1 POP PUSH1 0x20 DUP2 ADD SWAP1 POP SWAP2 SWAP1 POP JUMP JUMPDEST PUSH1 0x0 PUSH8 0xFFFFFFFFFFFFFFFF DUP3 GT ISZERO PUSH2 0x9E4 JUMPI PUSH2 0x9E3 PUSH2 0xBCE JUMP JUMPDEST JUMPDEST PUSH1 0x1F NOT PUSH1 0x1F DUP4 ADD AND SWAP1 POP PUSH1 0x20 DUP2 ADD SWAP1 POP SWAP2 SWAP1 POP JUMP JUMPDEST PUSH1 0x0 DUP2 MLOAD SWAP1 POP SWAP2 SWAP1 POP JUMP JUMPDEST PUSH1 0x0 DUP3 DUP3 MSTORE PUSH1 0x20 DUP3 ADD SWAP1 POP SWAP3 SWAP2 POP POP JUMP JUMPDEST PUSH1 0x0 PUSH2 0xA20 DUP3 PUSH2 0xAA9 JUMP JUMPDEST SWAP2 POP PUSH2 0xA2B DUP4 PUSH2 0xAA9 JUMP JUMPDEST SWAP3 POP DUP3 PUSH32 0xFFFFFFFFFFFFFFFFFFFFFFFFFFFFFFFFFFFFFFFFFFFFFFFFFFFFFFFFFFFFFFFF SUB DUP3 GT ISZERO PUSH2 0xA60 JUMPI PUSH2 0xA5F PUSH2 0xB70 JUMP JUMPDEST JUMPDEST DUP3 DUP3 ADD SWAP1 POP SWAP3 SWAP2 POP POP JUMP JUMPDEST PUSH1 0x0 PUSH2 0xA76 DUP3 PUSH2 0xA89 JUMP JUMPDEST SWAP1 POP SWAP2 SWAP1 POP JUMP JUMPDEST PUSH1 0x0 DUP2 ISZERO ISZERO SWAP1 POP SWAP2 SWAP1 POP JUMP JUMPDEST PUSH1 0x0 PUSH20 0xFFFFFFFFFFFFFFFFFFFFFFFFFFFFFFFFFFFFFFFF DUP3 AND SWAP1 POP SWAP2 SWAP1 POP JUMP JUMPDEST PUSH1 0x0 DUP2 SWAP1 POP SWAP2 SWAP1 POP JUMP JUMPDEST DUP3 DUP2 DUP4 CALLDATACOPY PUSH1 0x0 DUP4 DUP4 ADD MSTORE POP POP POP JUMP JUMPDEST PUSH1 0x0 JUMPDEST DUP4 DUP2 LT ISZERO PUSH2 0xAE0 JUMPI DUP1 DUP3 ADD MLOAD DUP2 DUP5 ADD MSTORE PUSH1 0x20 DUP2 ADD SWAP1 POP PUSH2 0xAC5 JUMP JUMPDEST DUP4 DUP2 GT ISZERO PUSH2 0xAEF JUMPI PUSH1 0x0 DUP5 DUP5 ADD MSTORE JUMPDEST POP POP POP POP JUMP JUMPDEST PUSH1 0x0 PUSH1 0x2 DUP3 DIV SWAP1 POP PUSH1 0x1 DUP3 AND DUP1 PUSH2 0xB0D JUMPI PUSH1 0x7F DUP3 AND SWAP2 POP JUMPDEST PUSH1 0x20 DUP3 LT DUP2 EQ ISZERO PUSH2 0xB21 JUMPI PUSH2 0xB20 PUSH2 0xB9F JUMP JUMPDEST JUMPDEST POP SWAP2 SWAP1 POP JUMP JUMPDEST PUSH1 0x0 PUSH2 0xB32 DUP3 PUSH2 0xAA9 JUMP JUMPDEST SWAP2 POP PUSH32 0xFFFFFFFFFFFFFFFFFFFFFFFFFFFFFFFFFFFFFFFFFFFFFFFFFFFFFFFFFFFFFFFF DUP3 EQ ISZERO PUSH2 0xB65 JUMPI PUSH2 0xB64 PUSH2 0xB70 JUMP JUMPDEST JUMPDEST PUSH1 0x1 DUP3 ADD SWAP1 POP SWAP2 SWAP1 POP JUMP JUMPDEST PUSH32 0x4E487B7100000000000000000000000000000000000000000000000000000000 PUSH1 0x0 MSTORE PUSH1 0x11 PUSH1 0x4 MSTORE PUSH1 0x24 PUSH1 0x0 REVERT JUMPDEST PUSH32 0x4E487B7100000000000000000000000000000000000000000000000000000000 PUSH1 0x0 MSTORE PUSH1 0x22 PUSH1 0x4 MSTORE PUSH1 0x24 PUSH1 0x0 REVERT JUMPDEST PUSH32 0x4E487B7100000000000000000000000000000000000000000000000000000000 PUSH1 0x0 MSTORE PUSH1 0x41 PUSH1 0x4 MSTORE PUSH1 0x24 PUSH1 0x0 REVERT JUMPDEST PUSH1 0x0 PUSH1 0x1F NOT PUSH1 0x1F DUP4 ADD AND SWAP1 POP SWAP2 SWAP1 POP JUMP JUMPDEST PUSH2 0xC17 DUP2 PUSH2 0xA6B JUMP JUMPDEST DUP2 EQ PUSH2 0xC22 JUMPI PUSH1 0x0 DUP1 REVERT JUMPDEST POP JUMP JUMPDEST PUSH2 0xC2E DUP2 PUSH2 0xAA9 JUMP JUMPDEST DUP2 EQ PUSH2 0xC39 JUMPI PUSH1 0x0 DUP1 REVERT JUMPDEST POP JUMP INVALID LOG2 PUSH5 0x6970667358 0x22 SLT KECCAK256 JUMPI INVALID CALL MSTORE SWAP11 SWAP14 STOP LOG1 0xEF JUMPI PUSH1 0xA6 0xB4 PUSH22 0x988080AB16E8E60916B41931A33D4A7EDDF264736F6C PUSH4 0x43000800 STOP CALLER "
				},
				"gasEstimates": {
					"creation": {
						"codeDepositCost": "637200",
						"executionCost": "670",
						"totalCost": "637870"
					},
					"external": {
						"chairperson()": "1233",
						"createBallot(string[])": "infinite",
						"giveRightToVote(address)": "23385",
						"proposals(uint256)": "infinite",
						"vote(uint256)": "infinite",
						"voters(address)": "infinite"
					}
				},
				"methodIdentifiers": {
					"chairperson()": "2e4176cf",
					"createBallot(string[])": "836bc692",
					"giveRightToVote(address)": "9e7b8d61",
					"proposals(uint256)": "013cf08b",
					"vote(uint256)": "0121b93f",
					"voters(address)": "a3ec138d"
				}
			},
			"storageLayout": {
				"storage": [
					{
						"astId": 17,
						"contract": "contracts/prop_test.sol:Ballot",
						"label": "chairperson",
						"offset": 0,
						"slot": "0",
						"type": "t_address"
					},
					{
						"astId": 22,
						"contract": "contracts/prop_test.sol:Ballot",
						"label": "voters",
						"offset": 0,
						"slot": "1",
						"type": "t_mapping(t_address,t_struct(Voter)10_storage)"
					},
					{
						"astId": 26,
						"contract": "contracts/prop_test.sol:Ballot",
						"label": "proposals",
						"offset": 0,
						"slot": "2",
						"type": "t_array(t_struct(Proposal)15_storage)dyn_storage"
					}
				],
				"types": {
					"t_address": {
						"encoding": "inplace",
						"label": "address",
						"numberOfBytes": "20"
					},
					"t_array(t_struct(Proposal)15_storage)dyn_storage": {
						"base": "t_struct(Proposal)15_storage",
						"encoding": "dynamic_array",
						"label": "struct Ballot.Proposal[]",
						"numberOfBytes": "32"
					},
					"t_bool": {
						"encoding": "inplace",
						"label": "bool",
						"numberOfBytes": "1"
					},
					"t_mapping(t_address,t_struct(Voter)10_storage)": {
						"encoding": "mapping",
						"key": "t_address",
						"label": "mapping(address => struct Ballot.Voter)",
						"numberOfBytes": "32",
						"value": "t_struct(Voter)10_storage"
					},
					"t_string_storage": {
						"encoding": "bytes",
						"label": "string",
						"numberOfBytes": "32"
					},
					"t_struct(Proposal)15_storage": {
						"encoding": "inplace",
						"label": "struct Ballot.Proposal",
						"members": [
							{
								"astId": 12,
								"contract": "contracts/prop_test.sol:Ballot",
								"label": "name",
								"offset": 0,
								"slot": "0",
								"type": "t_string_storage"
							},
							{
								"astId": 14,
								"contract": "contracts/prop_test.sol:Ballot",
								"label": "voteCount",
								"offset": 0,
								"slot": "1",
								"type": "t_uint256"
							}
						],
						"numberOfBytes": "64"
					},
					"t_struct(Voter)10_storage": {
						"encoding": "inplace",
						"label": "struct Ballot.Voter",
						"members": [
							{
								"astId": 3,
								"contract": "contracts/prop_test.sol:Ballot",
								"label": "weight",
								"offset": 0,
								"slot": "0",
								"type": "t_uint256"
							},
							{
								"astId": 5,
								"contract": "contracts/prop_test.sol:Ballot",
								"label": "voted",
								"offset": 0,
								"slot": "1",
								"type": "t_bool"
							},
							{
								"astId": 7,
								"contract": "contracts/prop_test.sol:Ballot",
								"label": "delegate",
								"offset": 1,
								"slot": "1",
								"type": "t_address"
							},
							{
								"astId": 9,
								"contract": "contracts/prop_test.sol:Ballot",
								"label": "vote",
								"offset": 0,
								"slot": "2",
								"type": "t_uint256"
							}
						],
						"numberOfBytes": "96"
					},
					"t_uint256": {
						"encoding": "inplace",
						"label": "uint256",
						"numberOfBytes": "32"
					}
				}
			},
			"userdoc": {
				"kind": "user",
				"methods": {},
				"version": 1
			}
		}
	}
}