{
	"contracts/visov_durku.sol": {
		"BallotFactory": {
			"abi": [
				{
					"inputs": [
						{
							"internalType": "uint256",
							"name": "",
							"type": "uint256"
						}
					],
					"name": "ballotArray",
					"outputs": [
						{
							"internalType": "contract Ballot",
							"name": "",
							"type": "address"
						}
					],
					"stateMutability": "view",
					"type": "function"
				},
				{
					"inputs": [
						{
							"internalType": "uint256",
							"name": "_ballotIndex",
							"type": "uint256"
						},
						{
							"internalType": "string[]",
							"name": "proposalNames",
							"type": "string[]"
						}
					],
					"name": "bfCreateBallot",
					"outputs": [],
					"stateMutability": "nonpayable",
					"type": "function"
				},
				{
					"inputs": [
						{
							"internalType": "uint256",
							"name": "_ballotIndex",
							"type": "uint256"
						}
					],
					"name": "bfGetCreatorBallot",
					"outputs": [
						{
							"internalType": "address",
							"name": "",
							"type": "address"
						}
					],
					"stateMutability": "view",
					"type": "function"
				},
				{
					"inputs": [
						{
							"internalType": "string[]",
							"name": "proposalNames",
							"type": "string[]"
						}
					],
					"name": "createBallot",
					"outputs": [],
					"stateMutability": "nonpayable",
					"type": "function"
				},
				{
					"inputs": [],
					"name": "createBallotContract",
					"outputs": [],
					"stateMutability": "nonpayable",
					"type": "function"
				},
				{
					"inputs": [],
					"name": "getCreatorBallot",
					"outputs": [
						{
							"internalType": "address",
							"name": "",
							"type": "address"
						}
					],
					"stateMutability": "view",
					"type": "function"
				},
				{
					"inputs": [],
					"name": "getEndDate",
					"outputs": [
						{
							"internalType": "uint256",
							"name": "",
							"type": "uint256"
						}
					],
					"stateMutability": "view",
					"type": "function"
				},
				{
					"inputs": [
						{
							"internalType": "uint256",
							"name": "_proposalId",
							"type": "uint256"
						}
					],
					"name": "getProposalStructure",
					"outputs": [
						{
							"components": [
								{
									"internalType": "string",
									"name": "name",
									"type": "string"
								},
								{
									"internalType": "uint256",
									"name": "voteCount",
									"type": "uint256"
								}
							],
							"internalType": "struct Ballot.Proposal",
							"name": "",
							"type": "tuple"
						}
					],
					"stateMutability": "view",
					"type": "function"
				},
				{
					"inputs": [],
					"name": "getProposals",
					"outputs": [
						{
							"components": [
								{
									"internalType": "string",
									"name": "name",
									"type": "string"
								},
								{
									"internalType": "uint256",
									"name": "voteCount",
									"type": "uint256"
								}
							],
							"internalType": "struct Ballot.Proposal[]",
							"name": "",
							"type": "tuple[]"
						}
					],
					"stateMutability": "view",
					"type": "function"
				},
				{
					"inputs": [],
					"name": "getStartDate",
					"outputs": [
						{
							"internalType": "uint256",
							"name": "",
							"type": "uint256"
						}
					],
					"stateMutability": "view",
					"type": "function"
				},
				{
					"inputs": [],
					"name": "getStatus",
					"outputs": [
						{
							"internalType": "uint256",
							"name": "",
							"type": "uint256"
						}
					],
					"stateMutability": "view",
					"type": "function"
				},
				{
					"inputs": [],
					"name": "getnumOfProposals",
					"outputs": [
						{
							"internalType": "uint256",
							"name": "",
							"type": "uint256"
						}
					],
					"stateMutability": "view",
					"type": "function"
				},
				{
					"inputs": [
						{
							"internalType": "address",
							"name": "voter",
							"type": "address"
						}
					],
					"name": "giveRightToVote",
					"outputs": [],
					"stateMutability": "nonpayable",
					"type": "function"
				},
				{
					"inputs": [
						{
							"internalType": "uint256",
							"name": "",
							"type": "uint256"
						}
					],
					"name": "proposals",
					"outputs": [
						{
							"internalType": "string",
							"name": "name",
							"type": "string"
						},
						{
							"internalType": "uint256",
							"name": "voteCount",
							"type": "uint256"
						}
					],
					"stateMutability": "view",
					"type": "function"
				},
				{
					"inputs": [],
					"name": "setEndDate",
					"outputs": [],
					"stateMutability": "nonpayable",
					"type": "function"
				},
				{
					"inputs": [
						{
							"internalType": "uint256",
							"name": "_status",
							"type": "uint256"
						}
					],
					"name": "setStatus",
					"outputs": [],
					"stateMutability": "nonpayable",
					"type": "function"
				},
				{
					"inputs": [
						{
							"internalType": "uint256",
							"name": "proposal",
							"type": "uint256"
						}
					],
					"name": "vote",
					"outputs": [],
					"stateMutability": "nonpayable",
					"type": "function"
				},
				{
					"inputs": [
						{
							"internalType": "address",
							"name": "",
							"type": "address"
						}
					],
					"name": "voters",
					"outputs": [
						{
							"internalType": "uint256",
							"name": "weight",
							"type": "uint256"
						},
						{
							"internalType": "bool",
							"name": "voted",
							"type": "bool"
						},
						{
							"internalType": "address",
							"name": "delegate",
							"type": "address"
						},
						{
							"internalType": "uint256",
							"name": "vote",
							"type": "uint256"
						}
					],
					"stateMutability": "view",
					"type": "function"
				},
				{
					"inputs": [],
					"name": "winnerName",
					"outputs": [
						{
							"internalType": "string",
							"name": "winnerName",
							"type": "string"
						}
					],
					"stateMutability": "view",
					"type": "function"
				},
				{
					"inputs": [],
					"name": "winningProposal",
					"outputs": [
						{
							"internalType": "uint256",
							"name": "winningProposal",
							"type": "uint256"
						}
					],
					"stateMutability": "view",
					"type": "function"
				}
			],
			"devdoc": {
				"kind": "dev",
				"methods": {},
				"version": 1
			},
			"evm": {
				"assembly": "    /* \"contracts/visov_durku.sol\":89:1237  contract BallotFactory is Ballot {\r... */\n  mstore(0x40, 0x80)\n  callvalue\n  dup1\n  iszero\n  tag_1\n  jumpi\n  0x00\n  dup1\n  revert\ntag_1:\n  pop\n  dataSize(sub_0)\n  dup1\n  dataOffset(sub_0)\n  0x00\n  codecopy\n  0x00\n  return\nstop\n\nsub_0: assembly {\n        /* \"contracts/visov_durku.sol\":89:1237  contract BallotFactory is Ballot {\r... */\n      mstore(0x40, 0x80)\n      callvalue\n      dup1\n      iszero\n      tag_1\n      jumpi\n      0x00\n      dup1\n      revert\n    tag_1:\n      pop\n      jumpi(tag_2, lt(calldatasize, 0x04))\n      shr(0xe0, calldataload(0x00))\n      dup1\n      0x78f305c6\n      gt\n      tag_23\n      jumpi\n      dup1\n      0x9e7b8d61\n      gt\n      tag_24\n      jumpi\n      dup1\n      0x9e7b8d61\n      eq\n      tag_18\n      jumpi\n      dup1\n      0xa3ec138d\n      eq\n      tag_19\n      jumpi\n      dup1\n      0xb1356488\n      eq\n      tag_20\n      jumpi\n      dup1\n      0xe2ba53f0\n      eq\n      tag_21\n      jumpi\n      dup1\n      0xe9d6c6da\n      eq\n      tag_22\n      jumpi\n      jump(tag_2)\n    tag_24:\n      dup1\n      0x78f305c6\n      eq\n      tag_13\n      jumpi\n      dup1\n      0x7a16fcb0\n      eq\n      tag_14\n      jumpi\n      dup1\n      0x836bc692\n      eq\n      tag_15\n      jumpi\n      dup1\n      0x86278e77\n      eq\n      tag_16\n      jumpi\n      dup1\n      0x962fafd0\n      eq\n      tag_17\n      jumpi\n      jump(tag_2)\n    tag_23:\n      dup1\n      0x609ff1bd\n      gt\n      tag_25\n      jumpi\n      dup1\n      0x609ff1bd\n      eq\n      tag_8\n      jumpi\n      dup1\n      0x62564c48\n      eq\n      tag_9\n      jumpi\n      dup1\n      0x643cb096\n      eq\n      tag_10\n      jumpi\n      dup1\n      0x69ba1a75\n      eq\n      tag_11\n      jumpi\n      dup1\n      0x735d8b87\n      eq\n      tag_12\n      jumpi\n      jump(tag_2)\n    tag_25:\n      dup1\n      0x0121b93f\n      eq\n      tag_3\n      jumpi\n      dup1\n      0x013cf08b\n      eq\n      tag_4\n      jumpi\n      dup1\n      0x0a82dcb1\n      eq\n      tag_5\n      jumpi\n      dup1\n      0x2a8cdc4c\n      eq\n      tag_6\n      jumpi\n      dup1\n      0x4e69d560\n      eq\n      tag_7\n      jumpi\n    tag_2:\n      0x00\n      dup1\n      revert\n        /* \"contracts/prop_test.sol\":2270:2659  function vote(uint proposal) public {\r... */\n    tag_3:\n      tag_26\n      0x04\n      dup1\n      calldatasize\n      sub\n      dup2\n      add\n      swap1\n      tag_27\n      swap2\n      swap1\n      tag_28\n      jump\t// in\n    tag_27:\n      tag_29\n      jump\t// in\n    tag_26:\n      stop\n        /* \"contracts/prop_test.sol\":871:898  Proposal[] public proposals */\n    tag_4:\n      tag_30\n      0x04\n      dup1\n      calldatasize\n      sub\n      dup2\n      add\n      swap1\n      tag_31\n      swap2\n      swap1\n      tag_28\n      jump\t// in\n    tag_31:\n      tag_32\n      jump\t// in\n    tag_30:\n      mload(0x40)\n      tag_33\n      swap3\n      swap2\n      swap1\n      tag_34\n      jump\t// in\n    tag_33:\n      mload(0x40)\n      dup1\n      swap2\n      sub\n      swap1\n      return\n        /* \"contracts/prop_test.sol\":3869:3963  function getnumOfProposals() public view returns(uint){\r... */\n    tag_5:\n      tag_35\n      tag_36\n      jump\t// in\n    tag_35:\n      mload(0x40)\n      tag_37\n      swap2\n      swap1\n      tag_38\n      jump\t// in\n    tag_37:\n      mload(0x40)\n      dup1\n      swap2\n      sub\n      swap1\n      return\n        /* \"contracts/visov_durku.sol\":482:646  function bfGetCreatorBallot(uint _ballotIndex) public view returns (address) {\r... */\n    tag_6:\n      tag_39\n      0x04\n      dup1\n      calldatasize\n      sub\n      dup2\n      add\n      swap1\n      tag_40\n      swap2\n      swap1\n      tag_28\n      jump\t// in\n    tag_40:\n      tag_41\n      jump\t// in\n    tag_39:\n      mload(0x40)\n      tag_42\n      swap2\n      swap1\n      tag_43\n      jump\t// in\n    tag_42:\n      mload(0x40)\n      dup1\n      swap2\n      sub\n      swap1\n      return\n        /* \"contracts/prop_test.sol\":3749:3827  function getStatus() public view returns(uint){\r... */\n    tag_7:\n      tag_44\n      tag_45\n      jump\t// in\n    tag_44:\n      mload(0x40)\n      tag_46\n      swap2\n      swap1\n      tag_38\n      jump\t// in\n    tag_46:\n      mload(0x40)\n      dup1\n      swap2\n      sub\n      swap1\n      return\n        /* \"contracts/prop_test.sol\":2667:3021  function winningProposal() public view returns (uint winningProposal){\r... */\n    tag_8:\n      tag_47\n      tag_48\n      jump\t// in\n    tag_47:\n      mload(0x40)\n      tag_49\n      swap2\n      swap1\n      tag_38\n      jump\t// in\n    tag_49:\n      mload(0x40)\n      dup1\n      swap2\n      sub\n      swap1\n      return\n        /* \"contracts/prop_test.sol\":4172:4269  function getProposals() public view returns(Proposal[] memory){\r... */\n    tag_9:\n      tag_50\n      tag_51\n      jump\t// in\n    tag_50:\n      mload(0x40)\n      tag_52\n      swap2\n      swap1\n      tag_53\n      jump\t// in\n    tag_52:\n      mload(0x40)\n      dup1\n      swap2\n      sub\n      swap1\n      return\n        /* \"contracts/visov_durku.sol\":135:162  Ballot[] public ballotArray */\n    tag_10:\n      tag_54\n      0x04\n      dup1\n      calldatasize\n      sub\n      dup2\n      add\n      swap1\n      tag_55\n      swap2\n      swap1\n      tag_28\n      jump\t// in\n    tag_55:\n      tag_56\n      jump\t// in\n    tag_54:\n      mload(0x40)\n      tag_57\n      swap2\n      swap1\n      tag_58\n      jump\t// in\n    tag_57:\n      mload(0x40)\n      dup1\n      swap2\n      sub\n      swap1\n      return\n        /* \"contracts/prop_test.sol\":3632:3706  function setStatus(uint _status) public{\r... */\n    tag_11:\n      tag_59\n      0x04\n      dup1\n      calldatasize\n      sub\n      dup2\n      add\n      swap1\n      tag_60\n      swap2\n      swap1\n      tag_28\n      jump\t// in\n    tag_60:\n      tag_61\n      jump\t// in\n    tag_59:\n      stop\n        /* \"contracts/visov_durku.sol\":304:474  function bfCreateBallot(uint _ballotIndex, string[] memory proposalNames) public {\r... */\n    tag_12:\n      tag_62\n      0x04\n      dup1\n      calldatasize\n      sub\n      dup2\n      add\n      swap1\n      tag_63\n      swap2\n      swap1\n      tag_64\n      jump\t// in\n    tag_63:\n      tag_65\n      jump\t// in\n    tag_62:\n      stop\n        /* \"contracts/prop_test.sol\":4434:4518  function getStartDate() public view returns(uint){\r... */\n    tag_13:\n      tag_66\n      tag_67\n      jump\t// in\n    tag_66:\n      mload(0x40)\n      tag_68\n      swap2\n      swap1\n      tag_38\n      jump\t// in\n    tag_68:\n      mload(0x40)\n      dup1\n      swap2\n      sub\n      swap1\n      return\n        /* \"contracts/prop_test.sol\":3500:3589  function getCreatorBallot() public view returns(address){\r... */\n    tag_14:\n      tag_69\n      tag_70\n      jump\t// in\n    tag_69:\n      mload(0x40)\n      tag_71\n      swap2\n      swap1\n      tag_43\n      jump\t// in\n    tag_71:\n      mload(0x40)\n      dup1\n      swap2\n      sub\n      swap1\n      return\n        /* \"contracts/prop_test.sol\":907:1647  function createBallot(string[] memory proposalNames) public {\r... */\n    tag_15:\n      tag_72\n      0x04\n      dup1\n      calldatasize\n      sub\n      dup2\n      add\n      swap1\n      tag_73\n      swap2\n      swap1\n      tag_74\n      jump\t// in\n    tag_73:\n      tag_75\n      jump\t// in\n    tag_72:\n      stop\n        /* \"contracts/prop_test.sol\":4560:4632  function setEndDate() public{\r... */\n    tag_16:\n      tag_76\n      tag_77\n      jump\t// in\n    tag_76:\n      stop\n        /* \"contracts/visov_durku.sol\":171:296  function createBallotContract() public {\r... */\n    tag_17:\n      tag_78\n      tag_79\n      jump\t// in\n    tag_78:\n      stop\n        /* \"contracts/prop_test.sol\":1655:2233  function giveRightToVote(address voter) public {\r... */\n    tag_18:\n      tag_80\n      0x04\n      dup1\n      calldatasize\n      sub\n      dup2\n      add\n      swap1\n      tag_81\n      swap2\n      swap1\n      tag_82\n      jump\t// in\n    tag_81:\n      tag_83\n      jump\t// in\n    tag_80:\n      stop\n        /* \"contracts/prop_test.sol\":766:805  mapping(address => Voter) public voters */\n    tag_19:\n      tag_84\n      0x04\n      dup1\n      calldatasize\n      sub\n      dup2\n      add\n      swap1\n      tag_85\n      swap2\n      swap1\n      tag_82\n      jump\t// in\n    tag_85:\n      tag_86\n      jump\t// in\n    tag_84:\n      mload(0x40)\n      tag_87\n      swap5\n      swap4\n      swap3\n      swap2\n      swap1\n      tag_88\n      jump\t// in\n    tag_87:\n      mload(0x40)\n      dup1\n      swap2\n      sub\n      swap1\n      return\n        /* \"contracts/prop_test.sol\":4672:4752  function getEndDate() public view returns(uint){\r... */\n    tag_20:\n      tag_89\n      tag_90\n      jump\t// in\n    tag_89:\n      mload(0x40)\n      tag_91\n      swap2\n      swap1\n      tag_38\n      jump\t// in\n    tag_91:\n      mload(0x40)\n      dup1\n      swap2\n      sub\n      swap1\n      return\n        /* \"contracts/prop_test.sol\":3190:3328  function winnerName() public view returns(string memory winnerName)\r... */\n    tag_21:\n      tag_92\n      tag_93\n      jump\t// in\n    tag_92:\n      mload(0x40)\n      tag_94\n      swap2\n      swap1\n      tag_95\n      jump\t// in\n    tag_94:\n      mload(0x40)\n      dup1\n      swap2\n      sub\n      swap1\n      return\n        /* \"contracts/prop_test.sol\":4005:4137  function getProposalStructure(uint _proposalId) public view returns(Proposal memory){\r... */\n    tag_22:\n      tag_96\n      0x04\n      dup1\n      calldatasize\n      sub\n      dup2\n      add\n      swap1\n      tag_97\n      swap2\n      swap1\n      tag_28\n      jump\t// in\n    tag_97:\n      tag_98\n      jump\t// in\n    tag_96:\n      mload(0x40)\n      tag_99\n      swap2\n      swap1\n      tag_100\n      jump\t// in\n    tag_99:\n      mload(0x40)\n      dup1\n      swap2\n      sub\n      swap1\n      return\n        /* \"contracts/prop_test.sol\":2270:2659  function vote(uint proposal) public {\r... */\n    tag_29:\n        /* \"contracts/prop_test.sol\":2317:2337  Voter storage sender */\n      0x00\n        /* \"contracts/prop_test.sol\":2340:2346  voters */\n      0x05\n        /* \"contracts/prop_test.sol\":2340:2358  voters[msg.sender] */\n      0x00\n        /* \"contracts/prop_test.sol\":2347:2357  msg.sender */\n      caller\n        /* \"contracts/prop_test.sol\":2340:2358  voters[msg.sender] */\n      0xffffffffffffffffffffffffffffffffffffffff\n      and\n      0xffffffffffffffffffffffffffffffffffffffff\n      and\n      dup2\n      mstore\n      0x20\n      add\n      swap1\n      dup2\n      mstore\n      0x20\n      add\n      0x00\n      keccak256\n        /* \"contracts/prop_test.sol\":2317:2358  Voter storage sender = voters[msg.sender] */\n      swap1\n      pop\n        /* \"contracts/prop_test.sol\":2378:2384  sender */\n      dup1\n        /* \"contracts/prop_test.sol\":2378:2390  sender.voted */\n      0x01\n      add\n      0x00\n      swap1\n      sload\n      swap1\n      0x0100\n      exp\n      swap1\n      div\n      0xff\n      and\n        /* \"contracts/prop_test.sol\":2377:2390  !sender.voted */\n      iszero\n        /* \"contracts/prop_test.sol\":2369:2391  require(!sender.voted) */\n      tag_102\n      jumpi\n      0x00\n      dup1\n      revert\n    tag_102:\n        /* \"contracts/prop_test.sol\":2417:2421  true */\n      0x01\n        /* \"contracts/prop_test.sol\":2402:2408  sender */\n      dup2\n        /* \"contracts/prop_test.sol\":2402:2414  sender.voted */\n      0x01\n      add\n      0x00\n        /* \"contracts/prop_test.sol\":2402:2421  sender.voted = true */\n      0x0100\n      exp\n      dup2\n      sload\n      dup2\n      0xff\n      mul\n      not\n      and\n      swap1\n      dup4\n      iszero\n      iszero\n      mul\n      or\n      swap1\n      sstore\n      pop\n        /* \"contracts/prop_test.sol\":2446:2454  proposal */\n      dup2\n        /* \"contracts/prop_test.sol\":2432:2438  sender */\n      dup2\n        /* \"contracts/prop_test.sol\":2432:2443  sender.vote */\n      0x02\n      add\n        /* \"contracts/prop_test.sol\":2432:2454  sender.vote = proposal */\n      dup2\n      swap1\n      sstore\n      pop\n        /* \"contracts/prop_test.sol\":2638:2644  sender */\n      dup1\n        /* \"contracts/prop_test.sol\":2638:2651  sender.weight */\n      0x00\n      add\n      sload\n        /* \"contracts/prop_test.sol\":2605:2614  proposals */\n      0x06\n        /* \"contracts/prop_test.sol\":2615:2623  proposal */\n      dup4\n        /* \"contracts/prop_test.sol\":2605:2624  proposals[proposal] */\n      dup2\n      sload\n      dup2\n      lt\n      tag_103\n      jumpi\n      mstore(0x00, 0x4e487b7100000000000000000000000000000000000000000000000000000000)\n      mstore(0x04, 0x32)\n      revert(0x00, 0x24)\n    tag_103:\n      swap1\n      0x00\n      mstore\n      keccak256(0x00, 0x20)\n      swap1\n      0x02\n      mul\n      add\n        /* \"contracts/prop_test.sol\":2605:2634  proposals[proposal].voteCount */\n      0x01\n      add\n      0x00\n        /* \"contracts/prop_test.sol\":2605:2651  proposals[proposal].voteCount += sender.weight */\n      dup3\n      dup3\n      sload\n      tag_105\n      swap2\n      swap1\n      tag_106\n      jump\t// in\n    tag_105:\n      swap3\n      pop\n      pop\n      dup2\n      swap1\n      sstore\n      pop\n        /* \"contracts/prop_test.sol\":2270:2659  function vote(uint proposal) public {\r... */\n      pop\n      pop\n      jump\t// out\n        /* \"contracts/prop_test.sol\":871:898  Proposal[] public proposals */\n    tag_32:\n      0x06\n      dup2\n      dup2\n      sload\n      dup2\n      lt\n      tag_107\n      jumpi\n      0x00\n      dup1\n      revert\n    tag_107:\n      swap1\n      0x00\n      mstore\n      keccak256(0x00, 0x20)\n      swap1\n      0x02\n      mul\n      add\n      0x00\n      swap2\n      pop\n      swap1\n      pop\n      dup1\n      0x00\n      add\n      dup1\n      sload\n      tag_109\n      swap1\n      tag_110\n      jump\t// in\n    tag_109:\n      dup1\n      0x1f\n      add\n      0x20\n      dup1\n      swap2\n      div\n      mul\n      0x20\n      add\n      mload(0x40)\n      swap1\n      dup2\n      add\n      0x40\n      mstore\n      dup1\n      swap3\n      swap2\n      swap1\n      dup2\n      dup2\n      mstore\n      0x20\n      add\n      dup3\n      dup1\n      sload\n      tag_111\n      swap1\n      tag_110\n      jump\t// in\n    tag_111:\n      dup1\n      iszero\n      tag_112\n      jumpi\n      dup1\n      0x1f\n      lt\n      tag_113\n      jumpi\n      0x0100\n      dup1\n      dup4\n      sload\n      div\n      mul\n      dup4\n      mstore\n      swap2\n      0x20\n      add\n      swap2\n      jump(tag_112)\n    tag_113:\n      dup3\n      add\n      swap2\n      swap1\n      0x00\n      mstore\n      keccak256(0x00, 0x20)\n      swap1\n    tag_114:\n      dup2\n      sload\n      dup2\n      mstore\n      swap1\n      0x01\n      add\n      swap1\n      0x20\n      add\n      dup1\n      dup4\n      gt\n      tag_114\n      jumpi\n      dup3\n      swap1\n      sub\n      0x1f\n      and\n      dup3\n      add\n      swap2\n    tag_112:\n      pop\n      pop\n      pop\n      pop\n      pop\n      swap1\n      dup1\n      0x01\n      add\n      sload\n      swap1\n      pop\n      dup3\n      jump\t// out\n        /* \"contracts/prop_test.sol\":3869:3963  function getnumOfProposals() public view returns(uint){\r... */\n    tag_36:\n        /* \"contracts/prop_test.sol\":3918:3922  uint */\n      0x00\n        /* \"contracts/prop_test.sol\":3941:3955  numOfProposals */\n      sload(0x04)\n        /* \"contracts/prop_test.sol\":3934:3955  return numOfProposals */\n      swap1\n      pop\n        /* \"contracts/prop_test.sol\":3869:3963  function getnumOfProposals() public view returns(uint){\r... */\n      swap1\n      jump\t// out\n        /* \"contracts/visov_durku.sol\":482:646  function bfGetCreatorBallot(uint _ballotIndex) public view returns (address) {\r... */\n    tag_41:\n        /* \"contracts/visov_durku.sol\":550:557  address */\n      0x00\n        /* \"contracts/visov_durku.sol\":592:603  ballotArray */\n      0x07\n        /* \"contracts/visov_durku.sol\":604:616  _ballotIndex */\n      dup3\n        /* \"contracts/visov_durku.sol\":592:617  ballotArray[_ballotIndex] */\n      dup2\n      sload\n      dup2\n      lt\n      tag_117\n      jumpi\n      mstore(0x00, 0x4e487b7100000000000000000000000000000000000000000000000000000000)\n      mstore(0x04, 0x32)\n      revert(0x00, 0x24)\n    tag_117:\n      swap1\n      0x00\n      mstore\n      keccak256(0x00, 0x20)\n      add\n      0x00\n      swap1\n      sload\n      swap1\n      0x0100\n      exp\n      swap1\n      div\n      0xffffffffffffffffffffffffffffffffffffffff\n      and\n        /* \"contracts/visov_durku.sol\":577:636  Ballot(address(ballotArray[_ballotIndex])).getCreatorBallot */\n      0xffffffffffffffffffffffffffffffffffffffff\n      and\n      0x7a16fcb0\n        /* \"contracts/visov_durku.sol\":577:638  Ballot(address(ballotArray[_ballotIndex])).getCreatorBallot() */\n      mload(0x40)\n      dup2\n      0xffffffff\n      and\n      0xe0\n      shl\n      dup2\n      mstore\n      0x04\n      add\n      0x20\n      mload(0x40)\n      dup1\n      dup4\n      sub\n      dup2\n      dup7\n      dup1\n      extcodesize\n      iszero\n      dup1\n      iszero\n      tag_119\n      jumpi\n      0x00\n      dup1\n      revert\n    tag_119:\n      pop\n      gas\n      staticcall\n      iszero\n      dup1\n      iszero\n      tag_121\n      jumpi\n      returndatasize\n      0x00\n      dup1\n      returndatacopy\n      revert(0x00, returndatasize)\n    tag_121:\n      pop\n      pop\n      pop\n      pop\n      mload(0x40)\n      returndatasize\n      not(0x1f)\n      0x1f\n      dup3\n      add\n      and\n      dup3\n      add\n      dup1\n      0x40\n      mstore\n      pop\n      dup2\n      add\n      swap1\n      tag_122\n      swap2\n      swap1\n      tag_123\n      jump\t// in\n    tag_122:\n        /* \"contracts/visov_durku.sol\":570:638  return Ballot(address(ballotArray[_ballotIndex])).getCreatorBallot() */\n      swap1\n      pop\n        /* \"contracts/visov_durku.sol\":482:646  function bfGetCreatorBallot(uint _ballotIndex) public view returns (address) {\r... */\n      swap2\n      swap1\n      pop\n      jump\t// out\n        /* \"contracts/prop_test.sol\":3749:3827  function getStatus() public view returns(uint){\r... */\n    tag_45:\n        /* \"contracts/prop_test.sol\":3790:3794  uint */\n      0x00\n        /* \"contracts/prop_test.sol\":3813:3819  status */\n      sload(0x01)\n        /* \"contracts/prop_test.sol\":3806:3819  return status */\n      swap1\n      pop\n        /* \"contracts/prop_test.sol\":3749:3827  function getStatus() public view returns(uint){\r... */\n      swap1\n      jump\t// out\n        /* \"contracts/prop_test.sol\":2667:3021  function winningProposal() public view returns (uint winningProposal){\r... */\n    tag_48:\n        /* \"contracts/prop_test.sol\":2715:2735  uint winningProposal */\n      0x00\n        /* \"contracts/prop_test.sol\":2747:2768  uint winningVoteCount */\n      dup1\n        /* \"contracts/prop_test.sol\":2771:2772  0 */\n      0x00\n        /* \"contracts/prop_test.sol\":2747:2772  uint winningVoteCount = 0 */\n      swap1\n      pop\n        /* \"contracts/prop_test.sol\":2788:2794  uint p */\n      0x00\n        /* \"contracts/prop_test.sol\":2783:3014  for (uint p = 0; p < proposals.length; p++) {\r... */\n    tag_126:\n        /* \"contracts/prop_test.sol\":2804:2813  proposals */\n      0x06\n        /* \"contracts/prop_test.sol\":2804:2820  proposals.length */\n      dup1\n      sload\n      swap1\n      pop\n        /* \"contracts/prop_test.sol\":2800:2801  p */\n      dup2\n        /* \"contracts/prop_test.sol\":2800:2820  p < proposals.length */\n      lt\n        /* \"contracts/prop_test.sol\":2783:3014  for (uint p = 0; p < proposals.length; p++) {\r... */\n      iszero\n      tag_127\n      jumpi\n        /* \"contracts/prop_test.sol\":2871:2887  winningVoteCount */\n      dup2\n        /* \"contracts/prop_test.sol\":2846:2855  proposals */\n      0x06\n        /* \"contracts/prop_test.sol\":2856:2857  p */\n      dup3\n        /* \"contracts/prop_test.sol\":2846:2858  proposals[p] */\n      dup2\n      sload\n      dup2\n      lt\n      tag_129\n      jumpi\n      mstore(0x00, 0x4e487b7100000000000000000000000000000000000000000000000000000000)\n      mstore(0x04, 0x32)\n      revert(0x00, 0x24)\n    tag_129:\n      swap1\n      0x00\n      mstore\n      keccak256(0x00, 0x20)\n      swap1\n      0x02\n      mul\n      add\n        /* \"contracts/prop_test.sol\":2846:2868  proposals[p].voteCount */\n      0x01\n      add\n      sload\n        /* \"contracts/prop_test.sol\":2846:2887  proposals[p].voteCount > winningVoteCount */\n      gt\n        /* \"contracts/prop_test.sol\":2842:3003  if (proposals[p].voteCount > winningVoteCount) {\r... */\n      iszero\n      tag_131\n      jumpi\n        /* \"contracts/prop_test.sol\":2927:2936  proposals */\n      0x06\n        /* \"contracts/prop_test.sol\":2937:2938  p */\n      dup2\n        /* \"contracts/prop_test.sol\":2927:2939  proposals[p] */\n      dup2\n      sload\n      dup2\n      lt\n      tag_132\n      jumpi\n      mstore(0x00, 0x4e487b7100000000000000000000000000000000000000000000000000000000)\n      mstore(0x04, 0x32)\n      revert(0x00, 0x24)\n    tag_132:\n      swap1\n      0x00\n      mstore\n      keccak256(0x00, 0x20)\n      swap1\n      0x02\n      mul\n      add\n        /* \"contracts/prop_test.sol\":2927:2949  proposals[p].voteCount */\n      0x01\n      add\n      sload\n        /* \"contracts/prop_test.sol\":2908:2949  winningVoteCount = proposals[p].voteCount */\n      swap2\n      pop\n        /* \"contracts/prop_test.sol\":2986:2987  p */\n      dup1\n        /* \"contracts/prop_test.sol\":2968:2987  winningProposal = p */\n      swap3\n      pop\n        /* \"contracts/prop_test.sol\":2842:3003  if (proposals[p].voteCount > winningVoteCount) {\r... */\n    tag_131:\n        /* \"contracts/prop_test.sol\":2822:2825  p++ */\n      dup1\n      dup1\n      tag_134\n      swap1\n      tag_135\n      jump\t// in\n    tag_134:\n      swap2\n      pop\n      pop\n        /* \"contracts/prop_test.sol\":2783:3014  for (uint p = 0; p < proposals.length; p++) {\r... */\n      jump(tag_126)\n    tag_127:\n      pop\n        /* \"contracts/prop_test.sol\":2667:3021  function winningProposal() public view returns (uint winningProposal){\r... */\n      pop\n      swap1\n      jump\t// out\n        /* \"contracts/prop_test.sol\":4172:4269  function getProposals() public view returns(Proposal[] memory){\r... */\n    tag_51:\n        /* \"contracts/prop_test.sol\":4216:4233  Proposal[] memory */\n      0x60\n        /* \"contracts/prop_test.sol\":4252:4261  proposals */\n      0x06\n        /* \"contracts/prop_test.sol\":4245:4261  return proposals */\n      dup1\n      sload\n      dup1\n      0x20\n      mul\n      0x20\n      add\n      mload(0x40)\n      swap1\n      dup2\n      add\n      0x40\n      mstore\n      dup1\n      swap3\n      swap2\n      swap1\n      dup2\n      dup2\n      mstore\n      0x20\n      add\n      0x00\n      swap1\n    tag_137:\n      dup3\n      dup3\n      lt\n      iszero\n      tag_138\n      jumpi\n      dup4\n      dup3\n      swap1\n      0x00\n      mstore\n      keccak256(0x00, 0x20)\n      swap1\n      0x02\n      mul\n      add\n      mload(0x40)\n      dup1\n      0x40\n      add\n      0x40\n      mstore\n      swap1\n      dup2\n      0x00\n      dup3\n      add\n      dup1\n      sload\n      tag_140\n      swap1\n      tag_110\n      jump\t// in\n    tag_140:\n      dup1\n      0x1f\n      add\n      0x20\n      dup1\n      swap2\n      div\n      mul\n      0x20\n      add\n      mload(0x40)\n      swap1\n      dup2\n      add\n      0x40\n      mstore\n      dup1\n      swap3\n      swap2\n      swap1\n      dup2\n      dup2\n      mstore\n      0x20\n      add\n      dup3\n      dup1\n      sload\n      tag_141\n      swap1\n      tag_110\n      jump\t// in\n    tag_141:\n      dup1\n      iszero\n      tag_142\n      jumpi\n      dup1\n      0x1f\n      lt\n      tag_143\n      jumpi\n      0x0100\n      dup1\n      dup4\n      sload\n      div\n      mul\n      dup4\n      mstore\n      swap2\n      0x20\n      add\n      swap2\n      jump(tag_142)\n    tag_143:\n      dup3\n      add\n      swap2\n      swap1\n      0x00\n      mstore\n      keccak256(0x00, 0x20)\n      swap1\n    tag_144:\n      dup2\n      sload\n      dup2\n      mstore\n      swap1\n      0x01\n      add\n      swap1\n      0x20\n      add\n      dup1\n      dup4\n      gt\n      tag_144\n      jumpi\n      dup3\n      swap1\n      sub\n      0x1f\n      and\n      dup3\n      add\n      swap2\n    tag_142:\n      pop\n      pop\n      pop\n      pop\n      pop\n      dup2\n      mstore\n      0x20\n      add\n      0x01\n      dup3\n      add\n      sload\n      dup2\n      mstore\n      pop\n      pop\n      dup2\n      mstore\n      0x20\n      add\n      swap1\n      0x01\n      add\n      swap1\n      jump(tag_137)\n    tag_138:\n      pop\n      pop\n      pop\n      pop\n      swap1\n      pop\n        /* \"contracts/prop_test.sol\":4172:4269  function getProposals() public view returns(Proposal[] memory){\r... */\n      swap1\n      jump\t// out\n        /* \"contracts/visov_durku.sol\":135:162  Ballot[] public ballotArray */\n    tag_56:\n      0x07\n      dup2\n      dup2\n      sload\n      dup2\n      lt\n      tag_145\n      jumpi\n      0x00\n      dup1\n      revert\n    tag_145:\n      swap1\n      0x00\n      mstore\n      keccak256(0x00, 0x20)\n      add\n      0x00\n      swap2\n      pop\n      sload\n      swap1\n      0x0100\n      exp\n      swap1\n      div\n      0xffffffffffffffffffffffffffffffffffffffff\n      and\n      dup2\n      jump\t// out\n        /* \"contracts/prop_test.sol\":3632:3706  function setStatus(uint _status) public{\r... */\n    tag_61:\n        /* \"contracts/prop_test.sol\":3691:3698  _status */\n      dup1\n        /* \"contracts/prop_test.sol\":3682:3688  status */\n      0x01\n        /* \"contracts/prop_test.sol\":3682:3698  status = _status */\n      dup2\n      swap1\n      sstore\n      pop\n        /* \"contracts/prop_test.sol\":3632:3706  function setStatus(uint _status) public{\r... */\n      pop\n      jump\t// out\n        /* \"contracts/visov_durku.sol\":304:474  function bfCreateBallot(uint _ballotIndex, string[] memory proposalNames) public {\r... */\n    tag_65:\n        /* \"contracts/visov_durku.sol\":411:422  ballotArray */\n      0x07\n        /* \"contracts/visov_durku.sol\":423:435  _ballotIndex */\n      dup3\n        /* \"contracts/visov_durku.sol\":411:436  ballotArray[_ballotIndex] */\n      dup2\n      sload\n      dup2\n      lt\n      tag_149\n      jumpi\n      mstore(0x00, 0x4e487b7100000000000000000000000000000000000000000000000000000000)\n      mstore(0x04, 0x32)\n      revert(0x00, 0x24)\n    tag_149:\n      swap1\n      0x00\n      mstore\n      keccak256(0x00, 0x20)\n      add\n      0x00\n      swap1\n      sload\n      swap1\n      0x0100\n      exp\n      swap1\n      div\n      0xffffffffffffffffffffffffffffffffffffffff\n      and\n        /* \"contracts/visov_durku.sol\":396:451  Ballot(address(ballotArray[_ballotIndex])).createBallot */\n      0xffffffffffffffffffffffffffffffffffffffff\n      and\n      0x836bc692\n        /* \"contracts/visov_durku.sol\":452:465  proposalNames */\n      dup3\n        /* \"contracts/visov_durku.sol\":396:466  Ballot(address(ballotArray[_ballotIndex])).createBallot(proposalNames) */\n      mload(0x40)\n      dup3\n      0xffffffff\n      and\n      0xe0\n      shl\n      dup2\n      mstore\n      0x04\n      add\n      tag_151\n      swap2\n      swap1\n      tag_152\n      jump\t// in\n    tag_151:\n      0x00\n      mload(0x40)\n      dup1\n      dup4\n      sub\n      dup2\n      0x00\n      dup8\n      dup1\n      extcodesize\n      iszero\n      dup1\n      iszero\n      tag_153\n      jumpi\n      0x00\n      dup1\n      revert\n    tag_153:\n      pop\n      gas\n      call\n      iszero\n      dup1\n      iszero\n      tag_155\n      jumpi\n      returndatasize\n      0x00\n      dup1\n      returndatacopy\n      revert(0x00, returndatasize)\n    tag_155:\n      pop\n      pop\n      pop\n      pop\n        /* \"contracts/visov_durku.sol\":304:474  function bfCreateBallot(uint _ballotIndex, string[] memory proposalNames) public {\r... */\n      pop\n      pop\n      jump\t// out\n        /* \"contracts/prop_test.sol\":4434:4518  function getStartDate() public view returns(uint){\r... */\n    tag_67:\n        /* \"contracts/prop_test.sol\":4478:4482  uint */\n      0x00\n        /* \"contracts/prop_test.sol\":4501:4510  startDate */\n      sload(0x02)\n        /* \"contracts/prop_test.sol\":4494:4510  return startDate */\n      swap1\n      pop\n        /* \"contracts/prop_test.sol\":4434:4518  function getStartDate() public view returns(uint){\r... */\n      swap1\n      jump\t// out\n        /* \"contracts/prop_test.sol\":3500:3589  function getCreatorBallot() public view returns(address){\r... */\n    tag_70:\n        /* \"contracts/prop_test.sol\":3548:3555  address */\n      0x00\n        /* \"contracts/prop_test.sol\":3574:3581  creator */\n      dup1\n      0x00\n      swap1\n      sload\n      swap1\n      0x0100\n      exp\n      swap1\n      div\n      0xffffffffffffffffffffffffffffffffffffffff\n      and\n        /* \"contracts/prop_test.sol\":3567:3581  return creator */\n      swap1\n      pop\n        /* \"contracts/prop_test.sol\":3500:3589  function getCreatorBallot() public view returns(address){\r... */\n      swap1\n      jump\t// out\n        /* \"contracts/prop_test.sol\":907:1647  function createBallot(string[] memory proposalNames) public {\r... */\n    tag_75:\n        /* \"contracts/prop_test.sol\":988:998  msg.sender */\n      caller\n        /* \"contracts/prop_test.sol\":978:985  creator */\n      0x00\n      dup1\n        /* \"contracts/prop_test.sol\":978:998  creator = msg.sender */\n      0x0100\n      exp\n      dup2\n      sload\n      dup2\n      0xffffffffffffffffffffffffffffffffffffffff\n      mul\n      not\n      and\n      swap1\n      dup4\n      0xffffffffffffffffffffffffffffffffffffffff\n      and\n      mul\n      or\n      swap1\n      sstore\n      pop\n        /* \"contracts/prop_test.sol\":1034:1035  1 */\n      0x01\n        /* \"contracts/prop_test.sol\":1009:1015  voters */\n      0x05\n        /* \"contracts/prop_test.sol\":1009:1024  voters[creator] */\n      0x00\n        /* \"contracts/prop_test.sol\":1016:1023  creator */\n      dup1\n      0x00\n      swap1\n      sload\n      swap1\n      0x0100\n      exp\n      swap1\n      div\n      0xffffffffffffffffffffffffffffffffffffffff\n      and\n        /* \"contracts/prop_test.sol\":1009:1024  voters[creator] */\n      0xffffffffffffffffffffffffffffffffffffffff\n      and\n      0xffffffffffffffffffffffffffffffffffffffff\n      and\n      dup2\n      mstore\n      0x20\n      add\n      swap1\n      dup2\n      mstore\n      0x20\n      add\n      0x00\n      keccak256\n        /* \"contracts/prop_test.sol\":1009:1031  voters[creator].weight */\n      0x00\n      add\n        /* \"contracts/prop_test.sol\":1009:1035  voters[creator].weight = 1 */\n      dup2\n      swap1\n      sstore\n      pop\n        /* \"contracts/prop_test.sol\":1057:1058  0 */\n      0x00\n        /* \"contracts/prop_test.sol\":1048:1054  status */\n      0x01\n        /* \"contracts/prop_test.sol\":1048:1058  status = 0 */\n      dup2\n      swap1\n      sstore\n      pop\n        /* \"contracts/prop_test.sol\":1069:1083  setStartDate() */\n      tag_159\n        /* \"contracts/prop_test.sol\":1069:1081  setStartDate */\n      tag_160\n        /* \"contracts/prop_test.sol\":1069:1083  setStartDate() */\n      jump\t// in\n    tag_159:\n        /* \"contracts/prop_test.sol\":1111:1124  proposalNames */\n      dup1\n        /* \"contracts/prop_test.sol\":1111:1131  proposalNames.length */\n      mload\n        /* \"contracts/prop_test.sol\":1094:1108  numOfProposals */\n      0x04\n        /* \"contracts/prop_test.sol\":1094:1131  numOfProposals = proposalNames.length */\n      dup2\n      swap1\n      sstore\n      pop\n        /* \"contracts/prop_test.sol\":1291:1297  uint i */\n      0x00\n        /* \"contracts/prop_test.sol\":1286:1640  for (uint i = 0; i < proposalNames.length; i++) {\r... */\n    tag_161:\n        /* \"contracts/prop_test.sol\":1307:1320  proposalNames */\n      dup2\n        /* \"contracts/prop_test.sol\":1307:1327  proposalNames.length */\n      mload\n        /* \"contracts/prop_test.sol\":1303:1304  i */\n      dup2\n        /* \"contracts/prop_test.sol\":1303:1327  i < proposalNames.length */\n      lt\n        /* \"contracts/prop_test.sol\":1286:1640  for (uint i = 0; i < proposalNames.length; i++) {\r... */\n      iszero\n      tag_162\n      jumpi\n        /* \"contracts/prop_test.sol\":1515:1524  proposals */\n      0x06\n        /* \"contracts/prop_test.sol\":1530:1627  Proposal({\r... */\n      mload(0x40)\n      dup1\n      0x40\n      add\n      0x40\n      mstore\n      dup1\n        /* \"contracts/prop_test.sol\":1564:1577  proposalNames */\n      dup5\n        /* \"contracts/prop_test.sol\":1578:1579  i */\n      dup5\n        /* \"contracts/prop_test.sol\":1564:1580  proposalNames[i] */\n      dup2\n      mload\n      dup2\n      lt\n      tag_164\n      jumpi\n      mstore(0x00, 0x4e487b7100000000000000000000000000000000000000000000000000000000)\n      mstore(0x04, 0x32)\n      revert(0x00, 0x24)\n    tag_164:\n      0x20\n      mul\n      0x20\n      add\n      add\n      mload\n        /* \"contracts/prop_test.sol\":1530:1627  Proposal({\r... */\n      dup2\n      mstore\n      0x20\n      add\n        /* \"contracts/prop_test.sol\":1610:1611  0 */\n      0x00\n        /* \"contracts/prop_test.sol\":1530:1627  Proposal({\r... */\n      dup2\n      mstore\n      pop\n        /* \"contracts/prop_test.sol\":1515:1628  proposals.push(Proposal({\r... */\n      swap1\n      dup1\n      0x01\n      dup2\n      sload\n      add\n      dup1\n      dup3\n      sstore\n      dup1\n      swap2\n      pop\n      pop\n      0x01\n      swap1\n      sub\n      swap1\n      0x00\n      mstore\n      keccak256(0x00, 0x20)\n      swap1\n      0x02\n      mul\n      add\n      0x00\n      swap1\n      swap2\n      swap1\n      swap2\n      swap1\n      swap2\n      pop\n      0x00\n      dup3\n      add\n      mload\n      dup2\n      0x00\n      add\n      swap1\n      dup1\n      mload\n      swap1\n      0x20\n      add\n      swap1\n      tag_166\n      swap3\n      swap2\n      swap1\n      tag_167\n      jump\t// in\n    tag_166:\n      pop\n      0x20\n      dup3\n      add\n      mload\n      dup2\n      0x01\n      add\n      sstore\n      pop\n      pop\n        /* \"contracts/prop_test.sol\":1329:1332  i++ */\n      dup1\n      dup1\n      tag_168\n      swap1\n      tag_135\n      jump\t// in\n    tag_168:\n      swap2\n      pop\n      pop\n        /* \"contracts/prop_test.sol\":1286:1640  for (uint i = 0; i < proposalNames.length; i++) {\r... */\n      jump(tag_161)\n    tag_162:\n      pop\n        /* \"contracts/prop_test.sol\":907:1647  function createBallot(string[] memory proposalNames) public {\r... */\n      pop\n      jump\t// out\n        /* \"contracts/prop_test.sol\":4560:4632  function setEndDate() public{\r... */\n    tag_77:\n        /* \"contracts/prop_test.sol\":4609:4624  block.timestamp */\n      timestamp\n        /* \"contracts/prop_test.sol\":4599:4606  endDate */\n      0x03\n        /* \"contracts/prop_test.sol\":4599:4624  endDate = block.timestamp */\n      dup2\n      swap1\n      sstore\n      pop\n        /* \"contracts/prop_test.sol\":4560:4632  function setEndDate() public{\r... */\n      jump\t// out\n        /* \"contracts/visov_durku.sol\":171:296  function createBallotContract() public {\r... */\n    tag_79:\n        /* \"contracts/visov_durku.sol\":221:234  Ballot ballot */\n      0x00\n        /* \"contracts/visov_durku.sol\":237:249  new Ballot() */\n      mload(0x40)\n      tag_171\n      swap1\n      tag_172\n      jump\t// in\n    tag_171:\n      mload(0x40)\n      dup1\n      swap2\n      sub\n      swap1\n      0x00\n      create\n      dup1\n      iszero\n      dup1\n      iszero\n      tag_173\n      jumpi\n      returndatasize\n      0x00\n      dup1\n      returndatacopy\n      revert(0x00, returndatasize)\n    tag_173:\n      pop\n        /* \"contracts/visov_durku.sol\":221:249  Ballot ballot = new Ballot() */\n      swap1\n      pop\n        /* \"contracts/visov_durku.sol\":260:271  ballotArray */\n      0x07\n        /* \"contracts/visov_durku.sol\":277:283  ballot */\n      dup2\n        /* \"contracts/visov_durku.sol\":260:284  ballotArray.push(ballot) */\n      swap1\n      dup1\n      0x01\n      dup2\n      sload\n      add\n      dup1\n      dup3\n      sstore\n      dup1\n      swap2\n      pop\n      pop\n      0x01\n      swap1\n      sub\n      swap1\n      0x00\n      mstore\n      keccak256(0x00, 0x20)\n      add\n      0x00\n      swap1\n      swap2\n      swap1\n      swap2\n      swap1\n      swap2\n      0x0100\n      exp\n      dup2\n      sload\n      dup2\n      0xffffffffffffffffffffffffffffffffffffffff\n      mul\n      not\n      and\n      swap1\n      dup4\n      0xffffffffffffffffffffffffffffffffffffffff\n      and\n      mul\n      or\n      swap1\n      sstore\n      pop\n        /* \"contracts/visov_durku.sol\":171:296  function createBallotContract() public {\r... */\n      pop\n      jump\t// out\n        /* \"contracts/prop_test.sol\":1655:2233  function giveRightToVote(address voter) public {\r... */\n    tag_83:\n        /* \"contracts/prop_test.sol\":2126:2133  creator */\n      0x00\n      dup1\n      sload\n      swap1\n      0x0100\n      exp\n      swap1\n      div\n      0xffffffffffffffffffffffffffffffffffffffff\n      and\n        /* \"contracts/prop_test.sol\":2112:2133  msg.sender == creator */\n      0xffffffffffffffffffffffffffffffffffffffff\n      and\n        /* \"contracts/prop_test.sol\":2112:2122  msg.sender */\n      caller\n        /* \"contracts/prop_test.sol\":2112:2133  msg.sender == creator */\n      0xffffffffffffffffffffffffffffffffffffffff\n      and\n      eq\n        /* \"contracts/prop_test.sol\":2111:2158  (msg.sender == creator) && !voters[voter].voted */\n      dup1\n      iszero\n      tag_176\n      jumpi\n      pop\n        /* \"contracts/prop_test.sol\":2139:2145  voters */\n      0x05\n        /* \"contracts/prop_test.sol\":2139:2152  voters[voter] */\n      0x00\n        /* \"contracts/prop_test.sol\":2146:2151  voter */\n      dup3\n        /* \"contracts/prop_test.sol\":2139:2152  voters[voter] */\n      0xffffffffffffffffffffffffffffffffffffffff\n      and\n      0xffffffffffffffffffffffffffffffffffffffff\n      and\n      dup2\n      mstore\n      0x20\n      add\n      swap1\n      dup2\n      mstore\n      0x20\n      add\n      0x00\n      keccak256\n        /* \"contracts/prop_test.sol\":2139:2158  voters[voter].voted */\n      0x01\n      add\n      0x00\n      swap1\n      sload\n      swap1\n      0x0100\n      exp\n      swap1\n      div\n      0xff\n      and\n        /* \"contracts/prop_test.sol\":2138:2158  !voters[voter].voted */\n      iszero\n        /* \"contracts/prop_test.sol\":2111:2158  (msg.sender == creator) && !voters[voter].voted */\n    tag_176:\n        /* \"contracts/prop_test.sol\":2111:2189  (msg.sender == creator) && !voters[voter].voted && (voters[voter].weight == 0) */\n      dup1\n      iszero\n      tag_177\n      jumpi\n      pop\n        /* \"contracts/prop_test.sol\":2187:2188  0 */\n      0x00\n        /* \"contracts/prop_test.sol\":2163:2169  voters */\n      0x05\n        /* \"contracts/prop_test.sol\":2163:2176  voters[voter] */\n      0x00\n        /* \"contracts/prop_test.sol\":2170:2175  voter */\n      dup4\n        /* \"contracts/prop_test.sol\":2163:2176  voters[voter] */\n      0xffffffffffffffffffffffffffffffffffffffff\n      and\n      0xffffffffffffffffffffffffffffffffffffffff\n      and\n      dup2\n      mstore\n      0x20\n      add\n      swap1\n      dup2\n      mstore\n      0x20\n      add\n      0x00\n      keccak256\n        /* \"contracts/prop_test.sol\":2163:2183  voters[voter].weight */\n      0x00\n      add\n      sload\n        /* \"contracts/prop_test.sol\":2163:2188  voters[voter].weight == 0 */\n      eq\n        /* \"contracts/prop_test.sol\":2111:2189  (msg.sender == creator) && !voters[voter].voted && (voters[voter].weight == 0) */\n    tag_177:\n        /* \"contracts/prop_test.sol\":2103:2190  require((msg.sender == creator) && !voters[voter].voted && (voters[voter].weight == 0)) */\n      tag_178\n      jumpi\n      0x00\n      dup1\n      revert\n    tag_178:\n        /* \"contracts/prop_test.sol\":2224:2225  1 */\n      0x01\n        /* \"contracts/prop_test.sol\":2201:2207  voters */\n      0x05\n        /* \"contracts/prop_test.sol\":2201:2214  voters[voter] */\n      0x00\n        /* \"contracts/prop_test.sol\":2208:2213  voter */\n      dup4\n        /* \"contracts/prop_test.sol\":2201:2214  voters[voter] */\n      0xffffffffffffffffffffffffffffffffffffffff\n      and\n      0xffffffffffffffffffffffffffffffffffffffff\n      and\n      dup2\n      mstore\n      0x20\n      add\n      swap1\n      dup2\n      mstore\n      0x20\n      add\n      0x00\n      keccak256\n        /* \"contracts/prop_test.sol\":2201:2221  voters[voter].weight */\n      0x00\n      add\n        /* \"contracts/prop_test.sol\":2201:2225  voters[voter].weight = 1 */\n      dup2\n      swap1\n      sstore\n      pop\n        /* \"contracts/prop_test.sol\":1655:2233  function giveRightToVote(address voter) public {\r... */\n      pop\n      jump\t// out\n        /* \"contracts/prop_test.sol\":766:805  mapping(address => Voter) public voters */\n    tag_86:\n      mstore(0x20, 0x05)\n      dup1\n      0x00\n      mstore\n      keccak256(0x00, 0x40)\n      0x00\n      swap2\n      pop\n      swap1\n      pop\n      dup1\n      0x00\n      add\n      sload\n      swap1\n      dup1\n      0x01\n      add\n      0x00\n      swap1\n      sload\n      swap1\n      0x0100\n      exp\n      swap1\n      div\n      0xff\n      and\n      swap1\n      dup1\n      0x01\n      add\n      0x01\n      swap1\n      sload\n      swap1\n      0x0100\n      exp\n      swap1\n      div\n      0xffffffffffffffffffffffffffffffffffffffff\n      and\n      swap1\n      dup1\n      0x02\n      add\n      sload\n      swap1\n      pop\n      dup5\n      jump\t// out\n        /* \"contracts/prop_test.sol\":4672:4752  function getEndDate() public view returns(uint){\r... */\n    tag_90:\n        /* \"contracts/prop_test.sol\":4714:4718  uint */\n      0x00\n        /* \"contracts/prop_test.sol\":4737:4744  endDate */\n      sload(0x03)\n        /* \"contracts/prop_test.sol\":4730:4744  return endDate */\n      swap1\n      pop\n        /* \"contracts/prop_test.sol\":4672:4752  function getEndDate() public view returns(uint){\r... */\n      swap1\n      jump\t// out\n        /* \"contracts/prop_test.sol\":3190:3328  function winnerName() public view returns(string memory winnerName)\r... */\n    tag_93:\n        /* \"contracts/prop_test.sol\":3232:3256  string memory winnerName */\n      0x60\n        /* \"contracts/prop_test.sol\":3287:3296  proposals */\n      0x06\n        /* \"contracts/prop_test.sol\":3297:3314  winningProposal() */\n      tag_181\n        /* \"contracts/prop_test.sol\":3297:3312  winningProposal */\n      tag_48\n        /* \"contracts/prop_test.sol\":3297:3314  winningProposal() */\n      jump\t// in\n    tag_181:\n        /* \"contracts/prop_test.sol\":3287:3315  proposals[winningProposal()] */\n      dup2\n      sload\n      dup2\n      lt\n      tag_182\n      jumpi\n      mstore(0x00, 0x4e487b7100000000000000000000000000000000000000000000000000000000)\n      mstore(0x04, 0x32)\n      revert(0x00, 0x24)\n    tag_182:\n      swap1\n      0x00\n      mstore\n      keccak256(0x00, 0x20)\n      swap1\n      0x02\n      mul\n      add\n        /* \"contracts/prop_test.sol\":3287:3320  proposals[winningProposal()].name */\n      0x00\n      add\n        /* \"contracts/prop_test.sol\":3274:3320  winnerName = proposals[winningProposal()].name */\n      dup1\n      sload\n      tag_184\n      swap1\n      tag_110\n      jump\t// in\n    tag_184:\n      dup1\n      0x1f\n      add\n      0x20\n      dup1\n      swap2\n      div\n      mul\n      0x20\n      add\n      mload(0x40)\n      swap1\n      dup2\n      add\n      0x40\n      mstore\n      dup1\n      swap3\n      swap2\n      swap1\n      dup2\n      dup2\n      mstore\n      0x20\n      add\n      dup3\n      dup1\n      sload\n      tag_185\n      swap1\n      tag_110\n      jump\t// in\n    tag_185:\n      dup1\n      iszero\n      tag_186\n      jumpi\n      dup1\n      0x1f\n      lt\n      tag_187\n      jumpi\n      0x0100\n      dup1\n      dup4\n      sload\n      div\n      mul\n      dup4\n      mstore\n      swap2\n      0x20\n      add\n      swap2\n      jump(tag_186)\n    tag_187:\n      dup3\n      add\n      swap2\n      swap1\n      0x00\n      mstore\n      keccak256(0x00, 0x20)\n      swap1\n    tag_188:\n      dup2\n      sload\n      dup2\n      mstore\n      swap1\n      0x01\n      add\n      swap1\n      0x20\n      add\n      dup1\n      dup4\n      gt\n      tag_188\n      jumpi\n      dup3\n      swap1\n      sub\n      0x1f\n      and\n      dup3\n      add\n      swap2\n    tag_186:\n      pop\n      pop\n      pop\n      pop\n      pop\n      swap1\n      pop\n        /* \"contracts/prop_test.sol\":3190:3328  function winnerName() public view returns(string memory winnerName)\r... */\n      swap1\n      jump\t// out\n        /* \"contracts/prop_test.sol\":4005:4137  function getProposalStructure(uint _proposalId) public view returns(Proposal memory){\r... */\n    tag_98:\n        /* \"contracts/prop_test.sol\":4073:4088  Proposal memory */\n      tag_189\n      tag_190\n      jump\t// in\n    tag_189:\n        /* \"contracts/prop_test.sol\":4107:4116  proposals */\n      0x06\n        /* \"contracts/prop_test.sol\":4117:4128  _proposalId */\n      dup3\n        /* \"contracts/prop_test.sol\":4107:4129  proposals[_proposalId] */\n      dup2\n      sload\n      dup2\n      lt\n      tag_192\n      jumpi\n      mstore(0x00, 0x4e487b7100000000000000000000000000000000000000000000000000000000)\n      mstore(0x04, 0x32)\n      revert(0x00, 0x24)\n    tag_192:\n      swap1\n      0x00\n      mstore\n      keccak256(0x00, 0x20)\n      swap1\n      0x02\n      mul\n      add\n        /* \"contracts/prop_test.sol\":4100:4129  return proposals[_proposalId] */\n      mload(0x40)\n      dup1\n      0x40\n      add\n      0x40\n      mstore\n      swap1\n      dup2\n      0x00\n      dup3\n      add\n      dup1\n      sload\n      tag_194\n      swap1\n      tag_110\n      jump\t// in\n    tag_194:\n      dup1\n      0x1f\n      add\n      0x20\n      dup1\n      swap2\n      div\n      mul\n      0x20\n      add\n      mload(0x40)\n      swap1\n      dup2\n      add\n      0x40\n      mstore\n      dup1\n      swap3\n      swap2\n      swap1\n      dup2\n      dup2\n      mstore\n      0x20\n      add\n      dup3\n      dup1\n      sload\n      tag_195\n      swap1\n      tag_110\n      jump\t// in\n    tag_195:\n      dup1\n      iszero\n      tag_196\n      jumpi\n      dup1\n      0x1f\n      lt\n      tag_197\n      jumpi\n      0x0100\n      dup1\n      dup4\n      sload\n      div\n      mul\n      dup4\n      mstore\n      swap2\n      0x20\n      add\n      swap2\n      jump(tag_196)\n    tag_197:\n      dup3\n      add\n      swap2\n      swap1\n      0x00\n      mstore\n      keccak256(0x00, 0x20)\n      swap1\n    tag_198:\n      dup2\n      sload\n      dup2\n      mstore\n      swap1\n      0x01\n      add\n      swap1\n      0x20\n      add\n      dup1\n      dup4\n      gt\n      tag_198\n      jumpi\n      dup3\n      swap1\n      sub\n      0x1f\n      and\n      dup3\n      add\n      swap2\n    tag_196:\n      pop\n      pop\n      pop\n      pop\n      pop\n      dup2\n      mstore\n      0x20\n      add\n      0x01\n      dup3\n      add\n      sload\n      dup2\n      mstore\n      pop\n      pop\n      swap1\n      pop\n        /* \"contracts/prop_test.sol\":4005:4137  function getProposalStructure(uint _proposalId) public view returns(Proposal memory){\r... */\n      swap2\n      swap1\n      pop\n      jump\t// out\n        /* \"contracts/prop_test.sol\":4313:4392  function setStartDate() internal {\r... */\n    tag_160:\n        /* \"contracts/prop_test.sol\":4369:4384  block.timestamp */\n      timestamp\n        /* \"contracts/prop_test.sol\":4357:4366  startDate */\n      0x02\n        /* \"contracts/prop_test.sol\":4357:4384  startDate = block.timestamp */\n      dup2\n      swap1\n      sstore\n      pop\n        /* \"contracts/prop_test.sol\":4313:4392  function setStartDate() internal {\r... */\n      jump\t// out\n    tag_167:\n      dup3\n      dup1\n      sload\n      tag_200\n      swap1\n      tag_110\n      jump\t// in\n    tag_200:\n      swap1\n      0x00\n      mstore\n      keccak256(0x00, 0x20)\n      swap1\n      0x1f\n      add\n      0x20\n      swap1\n      div\n      dup2\n      add\n      swap3\n      dup3\n      tag_202\n      jumpi\n      0x00\n      dup6\n      sstore\n      jump(tag_201)\n    tag_202:\n      dup3\n      0x1f\n      lt\n      tag_203\n      jumpi\n      dup1\n      mload\n      not(0xff)\n      and\n      dup4\n      dup1\n      add\n      or\n      dup6\n      sstore\n      jump(tag_201)\n    tag_203:\n      dup3\n      dup1\n      add\n      0x01\n      add\n      dup6\n      sstore\n      dup3\n      iszero\n      tag_201\n      jumpi\n      swap2\n      dup3\n      add\n    tag_204:\n      dup3\n      dup2\n      gt\n      iszero\n      tag_205\n      jumpi\n      dup3\n      mload\n      dup3\n      sstore\n      swap2\n      0x20\n      add\n      swap2\n      swap1\n      0x01\n      add\n      swap1\n      jump(tag_204)\n    tag_205:\n    tag_201:\n      pop\n      swap1\n      pop\n      tag_206\n      swap2\n      swap1\n      tag_207\n      jump\t// in\n    tag_206:\n      pop\n      swap1\n      jump\t// out\n    tag_172:\n      dataSize(sub_0)\n      dup1\n      dataOffset(sub_0)\n      dup4\n      codecopy\n      add\n      swap1\n      jump\t// out\n    tag_190:\n      mload(0x40)\n      dup1\n      0x40\n      add\n      0x40\n      mstore\n      dup1\n      0x60\n      dup2\n      mstore\n      0x20\n      add\n      0x00\n      dup2\n      mstore\n      pop\n      swap1\n      jump\t// out\n    tag_207:\n    tag_208:\n      dup1\n      dup3\n      gt\n      iszero\n      tag_209\n      jumpi\n      0x00\n      dup2\n      0x00\n      swap1\n      sstore\n      pop\n      0x01\n      add\n      jump(tag_208)\n    tag_209:\n      pop\n      swap1\n      jump\t// out\n        /* \"#utility.yul\":23:638   */\n    tag_211:\n      0x00\n        /* \"#utility.yul\":154:244   */\n      tag_213\n        /* \"#utility.yul\":169:243   */\n      tag_214\n        /* \"#utility.yul\":236:242   */\n      dup5\n        /* \"#utility.yul\":169:243   */\n      tag_215\n      jump\t// in\n    tag_214:\n        /* \"#utility.yul\":154:244   */\n      tag_216\n      jump\t// in\n    tag_213:\n        /* \"#utility.yul\":145:244   */\n      swap1\n      pop\n        /* \"#utility.yul\":264:269   */\n      dup1\n        /* \"#utility.yul\":292:298   */\n      dup4\n        /* \"#utility.yul\":285:290   */\n      dup3\n        /* \"#utility.yul\":278:299   */\n      mstore\n        /* \"#utility.yul\":318:322   */\n      0x20\n        /* \"#utility.yul\":311:316   */\n      dup3\n        /* \"#utility.yul\":307:323   */\n      add\n        /* \"#utility.yul\":300:323   */\n      swap1\n      pop\n        /* \"#utility.yul\":343:349   */\n      dup3\n        /* \"#utility.yul\":374:375   */\n      0x00\n        /* \"#utility.yul\":359:632   */\n    tag_217:\n        /* \"#utility.yul\":384:390   */\n      dup6\n        /* \"#utility.yul\":381:382   */\n      dup2\n        /* \"#utility.yul\":378:391   */\n      lt\n        /* \"#utility.yul\":359:632   */\n      iszero\n      tag_219\n      jumpi\n        /* \"#utility.yul\":476:479   */\n      dup2\n        /* \"#utility.yul\":463:480   */\n      calldataload\n        /* \"#utility.yul\":455:461   */\n      dup6\n        /* \"#utility.yul\":451:481   */\n      add\n        /* \"#utility.yul\":506:553   */\n      tag_220\n        /* \"#utility.yul\":549:552   */\n      dup9\n        /* \"#utility.yul\":537:547   */\n      dup3\n        /* \"#utility.yul\":506:553   */\n      tag_221\n      jump\t// in\n    tag_220:\n        /* \"#utility.yul\":501:504   */\n      dup5\n        /* \"#utility.yul\":494:554   */\n      mstore\n        /* \"#utility.yul\":583:587   */\n      0x20\n        /* \"#utility.yul\":578:581   */\n      dup5\n        /* \"#utility.yul\":574:588   */\n      add\n        /* \"#utility.yul\":567:588   */\n      swap4\n      pop\n        /* \"#utility.yul\":617:621   */\n      0x20\n        /* \"#utility.yul\":612:615   */\n      dup4\n        /* \"#utility.yul\":608:622   */\n      add\n        /* \"#utility.yul\":601:622   */\n      swap3\n      pop\n        /* \"#utility.yul\":419:632   */\n      pop\n        /* \"#utility.yul\":406:407   */\n      0x01\n        /* \"#utility.yul\":403:404   */\n      dup2\n        /* \"#utility.yul\":399:408   */\n      add\n        /* \"#utility.yul\":394:408   */\n      swap1\n      pop\n        /* \"#utility.yul\":359:632   */\n      jump(tag_217)\n    tag_219:\n        /* \"#utility.yul\":363:377   */\n      pop\n        /* \"#utility.yul\":135:638   */\n      pop\n      pop\n      swap4\n      swap3\n      pop\n      pop\n      pop\n      jump\t// out\n        /* \"#utility.yul\":644:988   */\n    tag_222:\n      0x00\n        /* \"#utility.yul\":747:812   */\n      tag_224\n        /* \"#utility.yul\":762:811   */\n      tag_225\n        /* \"#utility.yul\":804:810   */\n      dup5\n        /* \"#utility.yul\":762:811   */\n      tag_226\n      jump\t// in\n    tag_225:\n        /* \"#utility.yul\":747:812   */\n      tag_216\n      jump\t// in\n    tag_224:\n        /* \"#utility.yul\":738:812   */\n      swap1\n      pop\n        /* \"#utility.yul\":835:841   */\n      dup3\n        /* \"#utility.yul\":828:833   */\n      dup2\n        /* \"#utility.yul\":821:842   */\n      mstore\n        /* \"#utility.yul\":873:877   */\n      0x20\n        /* \"#utility.yul\":866:871   */\n      dup2\n        /* \"#utility.yul\":862:878   */\n      add\n        /* \"#utility.yul\":911:914   */\n      dup5\n        /* \"#utility.yul\":902:908   */\n      dup5\n        /* \"#utility.yul\":897:900   */\n      dup5\n        /* \"#utility.yul\":893:909   */\n      add\n        /* \"#utility.yul\":890:915   */\n      gt\n        /* \"#utility.yul\":887:889   */\n      iszero\n      tag_227\n      jumpi\n        /* \"#utility.yul\":928:929   */\n      0x00\n        /* \"#utility.yul\":925:926   */\n      dup1\n        /* \"#utility.yul\":918:930   */\n      revert\n        /* \"#utility.yul\":887:889   */\n    tag_227:\n        /* \"#utility.yul\":941:982   */\n      tag_228\n        /* \"#utility.yul\":975:981   */\n      dup5\n        /* \"#utility.yul\":970:973   */\n      dup3\n        /* \"#utility.yul\":965:968   */\n      dup6\n        /* \"#utility.yul\":941:982   */\n      tag_229\n      jump\t// in\n    tag_228:\n        /* \"#utility.yul\":728:988   */\n      pop\n      swap4\n      swap3\n      pop\n      pop\n      pop\n      jump\t// out\n        /* \"#utility.yul\":994:1133   */\n    tag_230:\n      0x00\n        /* \"#utility.yul\":1078:1084   */\n      dup2\n        /* \"#utility.yul\":1065:1085   */\n      calldataload\n        /* \"#utility.yul\":1056:1085   */\n      swap1\n      pop\n        /* \"#utility.yul\":1094:1127   */\n      tag_232\n        /* \"#utility.yul\":1121:1126   */\n      dup2\n        /* \"#utility.yul\":1094:1127   */\n      tag_233\n      jump\t// in\n    tag_232:\n        /* \"#utility.yul\":1046:1133   */\n      swap3\n      swap2\n      pop\n      pop\n      jump\t// out\n        /* \"#utility.yul\":1139:1282   */\n    tag_234:\n      0x00\n        /* \"#utility.yul\":1227:1233   */\n      dup2\n        /* \"#utility.yul\":1221:1234   */\n      mload\n        /* \"#utility.yul\":1212:1234   */\n      swap1\n      pop\n        /* \"#utility.yul\":1243:1276   */\n      tag_236\n        /* \"#utility.yul\":1270:1275   */\n      dup2\n        /* \"#utility.yul\":1243:1276   */\n      tag_233\n      jump\t// in\n    tag_236:\n        /* \"#utility.yul\":1202:1282   */\n      swap3\n      swap2\n      pop\n      pop\n      jump\t// out\n        /* \"#utility.yul\":1304:1627   */\n    tag_237:\n      0x00\n        /* \"#utility.yul\":1434:1437   */\n      dup3\n        /* \"#utility.yul\":1427:1431   */\n      0x1f\n        /* \"#utility.yul\":1419:1425   */\n      dup4\n        /* \"#utility.yul\":1415:1432   */\n      add\n        /* \"#utility.yul\":1411:1438   */\n      slt\n        /* \"#utility.yul\":1401:1403   */\n      tag_239\n      jumpi\n        /* \"#utility.yul\":1452:1453   */\n      0x00\n        /* \"#utility.yul\":1449:1450   */\n      dup1\n        /* \"#utility.yul\":1442:1454   */\n      revert\n        /* \"#utility.yul\":1401:1403   */\n    tag_239:\n        /* \"#utility.yul\":1492:1498   */\n      dup2\n        /* \"#utility.yul\":1479:1499   */\n      calldataload\n        /* \"#utility.yul\":1517:1621   */\n      tag_240\n        /* \"#utility.yul\":1617:1620   */\n      dup5\n        /* \"#utility.yul\":1609:1615   */\n      dup3\n        /* \"#utility.yul\":1602:1606   */\n      0x20\n        /* \"#utility.yul\":1594:1600   */\n      dup7\n        /* \"#utility.yul\":1590:1607   */\n      add\n        /* \"#utility.yul\":1517:1621   */\n      tag_211\n      jump\t// in\n    tag_240:\n        /* \"#utility.yul\":1508:1621   */\n      swap2\n      pop\n        /* \"#utility.yul\":1391:1627   */\n      pop\n      swap3\n      swap2\n      pop\n      pop\n      jump\t// out\n        /* \"#utility.yul\":1647:1920   */\n    tag_221:\n      0x00\n        /* \"#utility.yul\":1752:1755   */\n      dup3\n        /* \"#utility.yul\":1745:1749   */\n      0x1f\n        /* \"#utility.yul\":1737:1743   */\n      dup4\n        /* \"#utility.yul\":1733:1750   */\n      add\n        /* \"#utility.yul\":1729:1756   */\n      slt\n        /* \"#utility.yul\":1719:1721   */\n      tag_242\n      jumpi\n        /* \"#utility.yul\":1770:1771   */\n      0x00\n        /* \"#utility.yul\":1767:1768   */\n      dup1\n        /* \"#utility.yul\":1760:1772   */\n      revert\n        /* \"#utility.yul\":1719:1721   */\n    tag_242:\n        /* \"#utility.yul\":1810:1816   */\n      dup2\n        /* \"#utility.yul\":1797:1817   */\n      calldataload\n        /* \"#utility.yul\":1835:1914   */\n      tag_243\n        /* \"#utility.yul\":1910:1913   */\n      dup5\n        /* \"#utility.yul\":1902:1908   */\n      dup3\n        /* \"#utility.yul\":1895:1899   */\n      0x20\n        /* \"#utility.yul\":1887:1893   */\n      dup7\n        /* \"#utility.yul\":1883:1900   */\n      add\n        /* \"#utility.yul\":1835:1914   */\n      tag_222\n      jump\t// in\n    tag_243:\n        /* \"#utility.yul\":1826:1914   */\n      swap2\n      pop\n        /* \"#utility.yul\":1709:1920   */\n      pop\n      swap3\n      swap2\n      pop\n      pop\n      jump\t// out\n        /* \"#utility.yul\":1926:2065   */\n    tag_244:\n      0x00\n        /* \"#utility.yul\":2010:2016   */\n      dup2\n        /* \"#utility.yul\":1997:2017   */\n      calldataload\n        /* \"#utility.yul\":1988:2017   */\n      swap1\n      pop\n        /* \"#utility.yul\":2026:2059   */\n      tag_246\n        /* \"#utility.yul\":2053:2058   */\n      dup2\n        /* \"#utility.yul\":2026:2059   */\n      tag_247\n      jump\t// in\n    tag_246:\n        /* \"#utility.yul\":1978:2065   */\n      swap3\n      swap2\n      pop\n      pop\n      jump\t// out\n        /* \"#utility.yul\":2071:2333   */\n    tag_82:\n      0x00\n        /* \"#utility.yul\":2179:2181   */\n      0x20\n        /* \"#utility.yul\":2167:2176   */\n      dup3\n        /* \"#utility.yul\":2158:2165   */\n      dup5\n        /* \"#utility.yul\":2154:2177   */\n      sub\n        /* \"#utility.yul\":2150:2182   */\n      slt\n        /* \"#utility.yul\":2147:2149   */\n      iszero\n      tag_249\n      jumpi\n        /* \"#utility.yul\":2195:2196   */\n      0x00\n        /* \"#utility.yul\":2192:2193   */\n      dup1\n        /* \"#utility.yul\":2185:2197   */\n      revert\n        /* \"#utility.yul\":2147:2149   */\n    tag_249:\n        /* \"#utility.yul\":2238:2239   */\n      0x00\n        /* \"#utility.yul\":2263:2316   */\n      tag_250\n        /* \"#utility.yul\":2308:2315   */\n      dup5\n        /* \"#utility.yul\":2299:2305   */\n      dup3\n        /* \"#utility.yul\":2288:2297   */\n      dup6\n        /* \"#utility.yul\":2284:2306   */\n      add\n        /* \"#utility.yul\":2263:2316   */\n      tag_230\n      jump\t// in\n    tag_250:\n        /* \"#utility.yul\":2253:2316   */\n      swap2\n      pop\n        /* \"#utility.yul\":2209:2326   */\n      pop\n        /* \"#utility.yul\":2137:2333   */\n      swap3\n      swap2\n      pop\n      pop\n      jump\t// out\n        /* \"#utility.yul\":2339:2623   */\n    tag_123:\n      0x00\n        /* \"#utility.yul\":2458:2460   */\n      0x20\n        /* \"#utility.yul\":2446:2455   */\n      dup3\n        /* \"#utility.yul\":2437:2444   */\n      dup5\n        /* \"#utility.yul\":2433:2456   */\n      sub\n        /* \"#utility.yul\":2429:2461   */\n      slt\n        /* \"#utility.yul\":2426:2428   */\n      iszero\n      tag_252\n      jumpi\n        /* \"#utility.yul\":2474:2475   */\n      0x00\n        /* \"#utility.yul\":2471:2472   */\n      dup1\n        /* \"#utility.yul\":2464:2476   */\n      revert\n        /* \"#utility.yul\":2426:2428   */\n    tag_252:\n        /* \"#utility.yul\":2517:2518   */\n      0x00\n        /* \"#utility.yul\":2542:2606   */\n      tag_253\n        /* \"#utility.yul\":2598:2605   */\n      dup5\n        /* \"#utility.yul\":2589:2595   */\n      dup3\n        /* \"#utility.yul\":2578:2587   */\n      dup6\n        /* \"#utility.yul\":2574:2596   */\n      add\n        /* \"#utility.yul\":2542:2606   */\n      tag_234\n      jump\t// in\n    tag_253:\n        /* \"#utility.yul\":2532:2606   */\n      swap2\n      pop\n        /* \"#utility.yul\":2488:2616   */\n      pop\n        /* \"#utility.yul\":2416:2623   */\n      swap3\n      swap2\n      pop\n      pop\n      jump\t// out\n        /* \"#utility.yul\":2629:3054   */\n    tag_74:\n      0x00\n        /* \"#utility.yul\":2772:2774   */\n      0x20\n        /* \"#utility.yul\":2760:2769   */\n      dup3\n        /* \"#utility.yul\":2751:2758   */\n      dup5\n        /* \"#utility.yul\":2747:2770   */\n      sub\n        /* \"#utility.yul\":2743:2775   */\n      slt\n        /* \"#utility.yul\":2740:2742   */\n      iszero\n      tag_255\n      jumpi\n        /* \"#utility.yul\":2788:2789   */\n      0x00\n        /* \"#utility.yul\":2785:2786   */\n      dup1\n        /* \"#utility.yul\":2778:2790   */\n      revert\n        /* \"#utility.yul\":2740:2742   */\n    tag_255:\n        /* \"#utility.yul\":2859:2860   */\n      0x00\n        /* \"#utility.yul\":2848:2857   */\n      dup3\n        /* \"#utility.yul\":2844:2861   */\n      add\n        /* \"#utility.yul\":2831:2862   */\n      calldataload\n        /* \"#utility.yul\":2889:2907   */\n      0xffffffffffffffff\n        /* \"#utility.yul\":2881:2887   */\n      dup2\n        /* \"#utility.yul\":2878:2908   */\n      gt\n        /* \"#utility.yul\":2875:2877   */\n      iszero\n      tag_256\n      jumpi\n        /* \"#utility.yul\":2921:2922   */\n      0x00\n        /* \"#utility.yul\":2918:2919   */\n      dup1\n        /* \"#utility.yul\":2911:2923   */\n      revert\n        /* \"#utility.yul\":2875:2877   */\n    tag_256:\n        /* \"#utility.yul\":2949:3037   */\n      tag_257\n        /* \"#utility.yul\":3029:3036   */\n      dup5\n        /* \"#utility.yul\":3020:3026   */\n      dup3\n        /* \"#utility.yul\":3009:3018   */\n      dup6\n        /* \"#utility.yul\":3005:3027   */\n      add\n        /* \"#utility.yul\":2949:3037   */\n      tag_237\n      jump\t// in\n    tag_257:\n        /* \"#utility.yul\":2939:3037   */\n      swap2\n      pop\n        /* \"#utility.yul\":2802:3047   */\n      pop\n        /* \"#utility.yul\":2730:3054   */\n      swap3\n      swap2\n      pop\n      pop\n      jump\t// out\n        /* \"#utility.yul\":3060:3322   */\n    tag_28:\n      0x00\n        /* \"#utility.yul\":3168:3170   */\n      0x20\n        /* \"#utility.yul\":3156:3165   */\n      dup3\n        /* \"#utility.yul\":3147:3154   */\n      dup5\n        /* \"#utility.yul\":3143:3166   */\n      sub\n        /* \"#utility.yul\":3139:3171   */\n      slt\n        /* \"#utility.yul\":3136:3138   */\n      iszero\n      tag_259\n      jumpi\n        /* \"#utility.yul\":3184:3185   */\n      0x00\n        /* \"#utility.yul\":3181:3182   */\n      dup1\n        /* \"#utility.yul\":3174:3186   */\n      revert\n        /* \"#utility.yul\":3136:3138   */\n    tag_259:\n        /* \"#utility.yul\":3227:3228   */\n      0x00\n        /* \"#utility.yul\":3252:3305   */\n      tag_260\n        /* \"#utility.yul\":3297:3304   */\n      dup5\n        /* \"#utility.yul\":3288:3294   */\n      dup3\n        /* \"#utility.yul\":3277:3286   */\n      dup6\n        /* \"#utility.yul\":3273:3295   */\n      add\n        /* \"#utility.yul\":3252:3305   */\n      tag_244\n      jump\t// in\n    tag_260:\n        /* \"#utility.yul\":3242:3305   */\n      swap2\n      pop\n        /* \"#utility.yul\":3198:3315   */\n      pop\n        /* \"#utility.yul\":3126:3322   */\n      swap3\n      swap2\n      pop\n      pop\n      jump\t// out\n        /* \"#utility.yul\":3328:3898   */\n    tag_64:\n      0x00\n      dup1\n        /* \"#utility.yul\":3488:3490   */\n      0x40\n        /* \"#utility.yul\":3476:3485   */\n      dup4\n        /* \"#utility.yul\":3467:3474   */\n      dup6\n        /* \"#utility.yul\":3463:3486   */\n      sub\n        /* \"#utility.yul\":3459:3491   */\n      slt\n        /* \"#utility.yul\":3456:3458   */\n      iszero\n      tag_262\n      jumpi\n        /* \"#utility.yul\":3504:3505   */\n      0x00\n        /* \"#utility.yul\":3501:3502   */\n      dup1\n        /* \"#utility.yul\":3494:3506   */\n      revert\n        /* \"#utility.yul\":3456:3458   */\n    tag_262:\n        /* \"#utility.yul\":3547:3548   */\n      0x00\n        /* \"#utility.yul\":3572:3625   */\n      tag_263\n        /* \"#utility.yul\":3617:3624   */\n      dup6\n        /* \"#utility.yul\":3608:3614   */\n      dup3\n        /* \"#utility.yul\":3597:3606   */\n      dup7\n        /* \"#utility.yul\":3593:3615   */\n      add\n        /* \"#utility.yul\":3572:3625   */\n      tag_244\n      jump\t// in\n    tag_263:\n        /* \"#utility.yul\":3562:3625   */\n      swap3\n      pop\n        /* \"#utility.yul\":3518:3635   */\n      pop\n        /* \"#utility.yul\":3702:3704   */\n      0x20\n        /* \"#utility.yul\":3691:3700   */\n      dup4\n        /* \"#utility.yul\":3687:3705   */\n      add\n        /* \"#utility.yul\":3674:3706   */\n      calldataload\n        /* \"#utility.yul\":3733:3751   */\n      0xffffffffffffffff\n        /* \"#utility.yul\":3725:3731   */\n      dup2\n        /* \"#utility.yul\":3722:3752   */\n      gt\n        /* \"#utility.yul\":3719:3721   */\n      iszero\n      tag_264\n      jumpi\n        /* \"#utility.yul\":3765:3766   */\n      0x00\n        /* \"#utility.yul\":3762:3763   */\n      dup1\n        /* \"#utility.yul\":3755:3767   */\n      revert\n        /* \"#utility.yul\":3719:3721   */\n    tag_264:\n        /* \"#utility.yul\":3793:3881   */\n      tag_265\n        /* \"#utility.yul\":3873:3880   */\n      dup6\n        /* \"#utility.yul\":3864:3870   */\n      dup3\n        /* \"#utility.yul\":3853:3862   */\n      dup7\n        /* \"#utility.yul\":3849:3871   */\n      add\n        /* \"#utility.yul\":3793:3881   */\n      tag_237\n      jump\t// in\n    tag_265:\n        /* \"#utility.yul\":3783:3881   */\n      swap2\n      pop\n        /* \"#utility.yul\":3645:3891   */\n      pop\n        /* \"#utility.yul\":3446:3898   */\n      swap3\n      pop\n      swap3\n      swap1\n      pop\n      jump\t// out\n        /* \"#utility.yul\":3904:4100   */\n    tag_266:\n      0x00\n        /* \"#utility.yul\":4028:4094   */\n      tag_268\n        /* \"#utility.yul\":4090:4093   */\n      dup4\n        /* \"#utility.yul\":4082:4088   */\n      dup4\n        /* \"#utility.yul\":4028:4094   */\n      tag_269\n      jump\t// in\n    tag_268:\n        /* \"#utility.yul\":4014:4094   */\n      swap1\n      pop\n        /* \"#utility.yul\":4004:4100   */\n      swap3\n      swap2\n      pop\n      pop\n      jump\t// out\n        /* \"#utility.yul\":4106:4358   */\n    tag_270:\n      0x00\n        /* \"#utility.yul\":4258:4352   */\n      tag_272\n        /* \"#utility.yul\":4348:4351   */\n      dup4\n        /* \"#utility.yul\":4340:4346   */\n      dup4\n        /* \"#utility.yul\":4258:4352   */\n      tag_273\n      jump\t// in\n    tag_272:\n        /* \"#utility.yul\":4244:4352   */\n      swap1\n      pop\n        /* \"#utility.yul\":4234:4358   */\n      swap3\n      swap2\n      pop\n      pop\n      jump\t// out\n        /* \"#utility.yul\":4364:4482   */\n    tag_274:\n        /* \"#utility.yul\":4451:4475   */\n      tag_276\n        /* \"#utility.yul\":4469:4474   */\n      dup2\n        /* \"#utility.yul\":4451:4475   */\n      tag_277\n      jump\t// in\n    tag_276:\n        /* \"#utility.yul\":4446:4449   */\n      dup3\n        /* \"#utility.yul\":4439:4476   */\n      mstore\n        /* \"#utility.yul\":4429:4482   */\n      pop\n      pop\n      jump\t// out\n        /* \"#utility.yul\":4516:5507   */\n    tag_278:\n      0x00\n        /* \"#utility.yul\":4684:4748   */\n      tag_280\n        /* \"#utility.yul\":4742:4747   */\n      dup3\n        /* \"#utility.yul\":4684:4748   */\n      tag_281\n      jump\t// in\n    tag_280:\n        /* \"#utility.yul\":4764:4860   */\n      tag_282\n        /* \"#utility.yul\":4853:4859   */\n      dup2\n        /* \"#utility.yul\":4848:4851   */\n      dup6\n        /* \"#utility.yul\":4764:4860   */\n      tag_283\n      jump\t// in\n    tag_282:\n        /* \"#utility.yul\":4757:4860   */\n      swap4\n      pop\n        /* \"#utility.yul\":4886:4889   */\n      dup4\n        /* \"#utility.yul\":4931:4935   */\n      0x20\n        /* \"#utility.yul\":4923:4929   */\n      dup3\n        /* \"#utility.yul\":4919:4936   */\n      mul\n        /* \"#utility.yul\":4914:4917   */\n      dup6\n        /* \"#utility.yul\":4910:4937   */\n      add\n        /* \"#utility.yul\":4961:5027   */\n      tag_284\n        /* \"#utility.yul\":5021:5026   */\n      dup6\n        /* \"#utility.yul\":4961:5027   */\n      tag_285\n      jump\t// in\n    tag_284:\n        /* \"#utility.yul\":5050:5057   */\n      dup1\n        /* \"#utility.yul\":5081:5082   */\n      0x00\n        /* \"#utility.yul\":5066:5462   */\n    tag_286:\n        /* \"#utility.yul\":5091:5097   */\n      dup6\n        /* \"#utility.yul\":5088:5089   */\n      dup2\n        /* \"#utility.yul\":5085:5098   */\n      lt\n        /* \"#utility.yul\":5066:5462   */\n      iszero\n      tag_288\n      jumpi\n        /* \"#utility.yul\":5162:5171   */\n      dup5\n        /* \"#utility.yul\":5156:5160   */\n      dup5\n        /* \"#utility.yul\":5152:5172   */\n      sub\n        /* \"#utility.yul\":5147:5150   */\n      dup10\n        /* \"#utility.yul\":5140:5173   */\n      mstore\n        /* \"#utility.yul\":5213:5219   */\n      dup2\n        /* \"#utility.yul\":5207:5220   */\n      mload\n        /* \"#utility.yul\":5241:5325   */\n      tag_289\n        /* \"#utility.yul\":5320:5324   */\n      dup6\n        /* \"#utility.yul\":5305:5318   */\n      dup3\n        /* \"#utility.yul\":5241:5325   */\n      tag_266\n      jump\t// in\n    tag_289:\n        /* \"#utility.yul\":5233:5325   */\n      swap5\n      pop\n        /* \"#utility.yul\":5348:5418   */\n      tag_290\n        /* \"#utility.yul\":5411:5417   */\n      dup4\n        /* \"#utility.yul\":5348:5418   */\n      tag_291\n      jump\t// in\n    tag_290:\n        /* \"#utility.yul\":5338:5418   */\n      swap3\n      pop\n        /* \"#utility.yul\":5447:5451   */\n      0x20\n        /* \"#utility.yul\":5442:5445   */\n      dup11\n        /* \"#utility.yul\":5438:5452   */\n      add\n        /* \"#utility.yul\":5431:5452   */\n      swap10\n      pop\n        /* \"#utility.yul\":5126:5462   */\n      pop\n        /* \"#utility.yul\":5113:5114   */\n      0x01\n        /* \"#utility.yul\":5110:5111   */\n      dup2\n        /* \"#utility.yul\":5106:5115   */\n      add\n        /* \"#utility.yul\":5101:5115   */\n      swap1\n      pop\n        /* \"#utility.yul\":5066:5462   */\n      jump(tag_286)\n    tag_288:\n        /* \"#utility.yul\":5070:5084   */\n      pop\n        /* \"#utility.yul\":5478:5482   */\n      dup3\n        /* \"#utility.yul\":5471:5482   */\n      swap8\n      pop\n        /* \"#utility.yul\":5498:5501   */\n      dup8\n        /* \"#utility.yul\":5491:5501   */\n      swap6\n      pop\n        /* \"#utility.yul\":4660:5507   */\n      pop\n      pop\n      pop\n      pop\n      pop\n      swap3\n      swap2\n      pop\n      pop\n      jump\t// out\n        /* \"#utility.yul\":5573:6676   */\n    tag_292:\n      0x00\n        /* \"#utility.yul\":5769:5847   */\n      tag_294\n        /* \"#utility.yul\":5841:5846   */\n      dup3\n        /* \"#utility.yul\":5769:5847   */\n      tag_295\n      jump\t// in\n    tag_294:\n        /* \"#utility.yul\":5863:5973   */\n      tag_296\n        /* \"#utility.yul\":5966:5972   */\n      dup2\n        /* \"#utility.yul\":5961:5964   */\n      dup6\n        /* \"#utility.yul\":5863:5973   */\n      tag_297\n      jump\t// in\n    tag_296:\n        /* \"#utility.yul\":5856:5973   */\n      swap4\n      pop\n        /* \"#utility.yul\":5999:6002   */\n      dup4\n        /* \"#utility.yul\":6044:6048   */\n      0x20\n        /* \"#utility.yul\":6036:6042   */\n      dup3\n        /* \"#utility.yul\":6032:6049   */\n      mul\n        /* \"#utility.yul\":6027:6030   */\n      dup6\n        /* \"#utility.yul\":6023:6050   */\n      add\n        /* \"#utility.yul\":6074:6154   */\n      tag_298\n        /* \"#utility.yul\":6148:6153   */\n      dup6\n        /* \"#utility.yul\":6074:6154   */\n      tag_299\n      jump\t// in\n    tag_298:\n        /* \"#utility.yul\":6177:6184   */\n      dup1\n        /* \"#utility.yul\":6208:6209   */\n      0x00\n        /* \"#utility.yul\":6193:6631   */\n    tag_300:\n        /* \"#utility.yul\":6218:6224   */\n      dup6\n        /* \"#utility.yul\":6215:6216   */\n      dup2\n        /* \"#utility.yul\":6212:6225   */\n      lt\n        /* \"#utility.yul\":6193:6631   */\n      iszero\n      tag_302\n      jumpi\n        /* \"#utility.yul\":6289:6298   */\n      dup5\n        /* \"#utility.yul\":6283:6287   */\n      dup5\n        /* \"#utility.yul\":6279:6299   */\n      sub\n        /* \"#utility.yul\":6274:6277   */\n      dup10\n        /* \"#utility.yul\":6267:6300   */\n      mstore\n        /* \"#utility.yul\":6340:6346   */\n      dup2\n        /* \"#utility.yul\":6334:6347   */\n      mload\n        /* \"#utility.yul\":6368:6480   */\n      tag_303\n        /* \"#utility.yul\":6475:6479   */\n      dup6\n        /* \"#utility.yul\":6460:6473   */\n      dup3\n        /* \"#utility.yul\":6368:6480   */\n      tag_270\n      jump\t// in\n    tag_303:\n        /* \"#utility.yul\":6360:6480   */\n      swap5\n      pop\n        /* \"#utility.yul\":6503:6587   */\n      tag_304\n        /* \"#utility.yul\":6580:6586   */\n      dup4\n        /* \"#utility.yul\":6503:6587   */\n      tag_305\n      jump\t// in\n    tag_304:\n        /* \"#utility.yul\":6493:6587   */\n      swap3\n      pop\n        /* \"#utility.yul\":6616:6620   */\n      0x20\n        /* \"#utility.yul\":6611:6614   */\n      dup11\n        /* \"#utility.yul\":6607:6621   */\n      add\n        /* \"#utility.yul\":6600:6621   */\n      swap10\n      pop\n        /* \"#utility.yul\":6253:6631   */\n      pop\n        /* \"#utility.yul\":6240:6241   */\n      0x01\n        /* \"#utility.yul\":6237:6238   */\n      dup2\n        /* \"#utility.yul\":6233:6242   */\n      add\n        /* \"#utility.yul\":6228:6242   */\n      swap1\n      pop\n        /* \"#utility.yul\":6193:6631   */\n      jump(tag_300)\n    tag_302:\n        /* \"#utility.yul\":6197:6211   */\n      pop\n        /* \"#utility.yul\":6647:6651   */\n      dup3\n        /* \"#utility.yul\":6640:6651   */\n      swap8\n      pop\n        /* \"#utility.yul\":6667:6670   */\n      dup8\n        /* \"#utility.yul\":6660:6670   */\n      swap6\n      pop\n        /* \"#utility.yul\":5745:6676   */\n      pop\n      pop\n      pop\n      pop\n      pop\n      swap3\n      swap2\n      pop\n      pop\n      jump\t// out\n        /* \"#utility.yul\":6682:6791   */\n    tag_306:\n        /* \"#utility.yul\":6763:6784   */\n      tag_308\n        /* \"#utility.yul\":6778:6783   */\n      dup2\n        /* \"#utility.yul\":6763:6784   */\n      tag_309\n      jump\t// in\n    tag_308:\n        /* \"#utility.yul\":6758:6761   */\n      dup3\n        /* \"#utility.yul\":6751:6785   */\n      mstore\n        /* \"#utility.yul\":6741:6791   */\n      pop\n      pop\n      jump\t// out\n        /* \"#utility.yul\":6797:6956   */\n    tag_310:\n        /* \"#utility.yul\":6898:6949   */\n      tag_312\n        /* \"#utility.yul\":6943:6948   */\n      dup2\n        /* \"#utility.yul\":6898:6949   */\n      tag_313\n      jump\t// in\n    tag_312:\n        /* \"#utility.yul\":6893:6896   */\n      dup3\n        /* \"#utility.yul\":6886:6950   */\n      mstore\n        /* \"#utility.yul\":6876:6956   */\n      pop\n      pop\n      jump\t// out\n        /* \"#utility.yul\":6962:7306   */\n    tag_269:\n      0x00\n        /* \"#utility.yul\":7068:7107   */\n      tag_315\n        /* \"#utility.yul\":7101:7106   */\n      dup3\n        /* \"#utility.yul\":7068:7107   */\n      tag_316\n      jump\t// in\n    tag_315:\n        /* \"#utility.yul\":7123:7184   */\n      tag_317\n        /* \"#utility.yul\":7177:7183   */\n      dup2\n        /* \"#utility.yul\":7172:7175   */\n      dup6\n        /* \"#utility.yul\":7123:7184   */\n      tag_318\n      jump\t// in\n    tag_317:\n        /* \"#utility.yul\":7116:7184   */\n      swap4\n      pop\n        /* \"#utility.yul\":7193:7245   */\n      tag_319\n        /* \"#utility.yul\":7238:7244   */\n      dup2\n        /* \"#utility.yul\":7233:7236   */\n      dup6\n        /* \"#utility.yul\":7226:7230   */\n      0x20\n        /* \"#utility.yul\":7219:7224   */\n      dup7\n        /* \"#utility.yul\":7215:7231   */\n      add\n        /* \"#utility.yul\":7193:7245   */\n      tag_320\n      jump\t// in\n    tag_319:\n        /* \"#utility.yul\":7270:7299   */\n      tag_321\n        /* \"#utility.yul\":7292:7298   */\n      dup2\n        /* \"#utility.yul\":7270:7299   */\n      tag_322\n      jump\t// in\n    tag_321:\n        /* \"#utility.yul\":7265:7268   */\n      dup5\n        /* \"#utility.yul\":7261:7300   */\n      add\n        /* \"#utility.yul\":7254:7300   */\n      swap2\n      pop\n        /* \"#utility.yul\":7044:7306   */\n      pop\n      swap3\n      swap2\n      pop\n      pop\n      jump\t// out\n        /* \"#utility.yul\":7312:7676   */\n    tag_323:\n      0x00\n        /* \"#utility.yul\":7428:7467   */\n      tag_325\n        /* \"#utility.yul\":7461:7466   */\n      dup3\n        /* \"#utility.yul\":7428:7467   */\n      tag_316\n      jump\t// in\n    tag_325:\n        /* \"#utility.yul\":7483:7554   */\n      tag_326\n        /* \"#utility.yul\":7547:7553   */\n      dup2\n        /* \"#utility.yul\":7542:7545   */\n      dup6\n        /* \"#utility.yul\":7483:7554   */\n      tag_327\n      jump\t// in\n    tag_326:\n        /* \"#utility.yul\":7476:7554   */\n      swap4\n      pop\n        /* \"#utility.yul\":7563:7615   */\n      tag_328\n        /* \"#utility.yul\":7608:7614   */\n      dup2\n        /* \"#utility.yul\":7603:7606   */\n      dup6\n        /* \"#utility.yul\":7596:7600   */\n      0x20\n        /* \"#utility.yul\":7589:7594   */\n      dup7\n        /* \"#utility.yul\":7585:7601   */\n      add\n        /* \"#utility.yul\":7563:7615   */\n      tag_320\n      jump\t// in\n    tag_328:\n        /* \"#utility.yul\":7640:7669   */\n      tag_329\n        /* \"#utility.yul\":7662:7668   */\n      dup2\n        /* \"#utility.yul\":7640:7669   */\n      tag_322\n      jump\t// in\n    tag_329:\n        /* \"#utility.yul\":7635:7638   */\n      dup5\n        /* \"#utility.yul\":7631:7670   */\n      add\n        /* \"#utility.yul\":7624:7670   */\n      swap2\n      pop\n        /* \"#utility.yul\":7404:7676   */\n      pop\n      swap3\n      swap2\n      pop\n      pop\n      jump\t// out\n        /* \"#utility.yul\":7738:8337   */\n    tag_273:\n      0x00\n        /* \"#utility.yul\":7881:7885   */\n      0x40\n        /* \"#utility.yul\":7876:7879   */\n      dup4\n        /* \"#utility.yul\":7872:7886   */\n      add\n        /* \"#utility.yul\":7968:7972   */\n      0x00\n        /* \"#utility.yul\":7961:7966   */\n      dup4\n        /* \"#utility.yul\":7957:7973   */\n      add\n        /* \"#utility.yul\":7951:7974   */\n      mload\n        /* \"#utility.yul\":8021:8024   */\n      dup5\n        /* \"#utility.yul\":8015:8019   */\n      dup3\n        /* \"#utility.yul\":8011:8025   */\n      sub\n        /* \"#utility.yul\":8004:8008   */\n      0x00\n        /* \"#utility.yul\":7999:8002   */\n      dup7\n        /* \"#utility.yul\":7995:8009   */\n      add\n        /* \"#utility.yul\":7988:8026   */\n      mstore\n        /* \"#utility.yul\":8047:8120   */\n      tag_331\n        /* \"#utility.yul\":8115:8119   */\n      dup3\n        /* \"#utility.yul\":8101:8113   */\n      dup3\n        /* \"#utility.yul\":8047:8120   */\n      tag_269\n      jump\t// in\n    tag_331:\n        /* \"#utility.yul\":8039:8120   */\n      swap2\n      pop\n        /* \"#utility.yul\":7896:8131   */\n      pop\n        /* \"#utility.yul\":8218:8222   */\n      0x20\n        /* \"#utility.yul\":8211:8216   */\n      dup4\n        /* \"#utility.yul\":8207:8223   */\n      add\n        /* \"#utility.yul\":8201:8224   */\n      mload\n        /* \"#utility.yul\":8237:8300   */\n      tag_332\n        /* \"#utility.yul\":8294:8298   */\n      0x20\n        /* \"#utility.yul\":8289:8292   */\n      dup7\n        /* \"#utility.yul\":8285:8299   */\n      add\n        /* \"#utility.yul\":8271:8283   */\n      dup3\n        /* \"#utility.yul\":8237:8300   */\n      tag_333\n      jump\t// in\n    tag_332:\n        /* \"#utility.yul\":8141:8310   */\n      pop\n        /* \"#utility.yul\":8327:8331   */\n      dup1\n        /* \"#utility.yul\":8320:8331   */\n      swap2\n      pop\n        /* \"#utility.yul\":7850:8337   */\n      pop\n      swap3\n      swap2\n      pop\n      pop\n      jump\t// out\n        /* \"#utility.yul\":8399:9008   */\n    tag_334:\n      0x00\n        /* \"#utility.yul\":8552:8556   */\n      0x40\n        /* \"#utility.yul\":8547:8550   */\n      dup4\n        /* \"#utility.yul\":8543:8557   */\n      add\n        /* \"#utility.yul\":8639:8643   */\n      0x00\n        /* \"#utility.yul\":8632:8637   */\n      dup4\n        /* \"#utility.yul\":8628:8644   */\n      add\n        /* \"#utility.yul\":8622:8645   */\n      mload\n        /* \"#utility.yul\":8692:8695   */\n      dup5\n        /* \"#utility.yul\":8686:8690   */\n      dup3\n        /* \"#utility.yul\":8682:8696   */\n      sub\n        /* \"#utility.yul\":8675:8679   */\n      0x00\n        /* \"#utility.yul\":8670:8673   */\n      dup7\n        /* \"#utility.yul\":8666:8680   */\n      add\n        /* \"#utility.yul\":8659:8697   */\n      mstore\n        /* \"#utility.yul\":8718:8791   */\n      tag_336\n        /* \"#utility.yul\":8786:8790   */\n      dup3\n        /* \"#utility.yul\":8772:8784   */\n      dup3\n        /* \"#utility.yul\":8718:8791   */\n      tag_269\n      jump\t// in\n    tag_336:\n        /* \"#utility.yul\":8710:8791   */\n      swap2\n      pop\n        /* \"#utility.yul\":8567:8802   */\n      pop\n        /* \"#utility.yul\":8889:8893   */\n      0x20\n        /* \"#utility.yul\":8882:8887   */\n      dup4\n        /* \"#utility.yul\":8878:8894   */\n      add\n        /* \"#utility.yul\":8872:8895   */\n      mload\n        /* \"#utility.yul\":8908:8971   */\n      tag_337\n        /* \"#utility.yul\":8965:8969   */\n      0x20\n        /* \"#utility.yul\":8960:8963   */\n      dup7\n        /* \"#utility.yul\":8956:8970   */\n      add\n        /* \"#utility.yul\":8942:8954   */\n      dup3\n        /* \"#utility.yul\":8908:8971   */\n      tag_333\n      jump\t// in\n    tag_337:\n        /* \"#utility.yul\":8812:8981   */\n      pop\n        /* \"#utility.yul\":8998:9002   */\n      dup1\n        /* \"#utility.yul\":8991:9002   */\n      swap2\n      pop\n        /* \"#utility.yul\":8521:9008   */\n      pop\n      swap3\n      swap2\n      pop\n      pop\n      jump\t// out\n        /* \"#utility.yul\":9014:9122   */\n    tag_333:\n        /* \"#utility.yul\":9091:9115   */\n      tag_339\n        /* \"#utility.yul\":9109:9114   */\n      dup2\n        /* \"#utility.yul\":9091:9115   */\n      tag_340\n      jump\t// in\n    tag_339:\n        /* \"#utility.yul\":9086:9089   */\n      dup3\n        /* \"#utility.yul\":9079:9116   */\n      mstore\n        /* \"#utility.yul\":9069:9122   */\n      pop\n      pop\n      jump\t// out\n        /* \"#utility.yul\":9128:9246   */\n    tag_341:\n        /* \"#utility.yul\":9215:9239   */\n      tag_343\n        /* \"#utility.yul\":9233:9238   */\n      dup2\n        /* \"#utility.yul\":9215:9239   */\n      tag_340\n      jump\t// in\n    tag_343:\n        /* \"#utility.yul\":9210:9213   */\n      dup3\n        /* \"#utility.yul\":9203:9240   */\n      mstore\n        /* \"#utility.yul\":9193:9246   */\n      pop\n      pop\n      jump\t// out\n        /* \"#utility.yul\":9252:9474   */\n    tag_43:\n      0x00\n        /* \"#utility.yul\":9383:9385   */\n      0x20\n        /* \"#utility.yul\":9372:9381   */\n      dup3\n        /* \"#utility.yul\":9368:9386   */\n      add\n        /* \"#utility.yul\":9360:9386   */\n      swap1\n      pop\n        /* \"#utility.yul\":9396:9467   */\n      tag_345\n        /* \"#utility.yul\":9464:9465   */\n      0x00\n        /* \"#utility.yul\":9453:9462   */\n      dup4\n        /* \"#utility.yul\":9449:9466   */\n      add\n        /* \"#utility.yul\":9440:9446   */\n      dup5\n        /* \"#utility.yul\":9396:9467   */\n      tag_274\n      jump\t// in\n    tag_345:\n        /* \"#utility.yul\":9350:9474   */\n      swap3\n      swap2\n      pop\n      pop\n      jump\t// out\n        /* \"#utility.yul\":9480:9893   */\n    tag_152:\n      0x00\n        /* \"#utility.yul\":9681:9683   */\n      0x20\n        /* \"#utility.yul\":9670:9679   */\n      dup3\n        /* \"#utility.yul\":9666:9684   */\n      add\n        /* \"#utility.yul\":9658:9684   */\n      swap1\n      pop\n        /* \"#utility.yul\":9730:9739   */\n      dup2\n        /* \"#utility.yul\":9724:9728   */\n      dup2\n        /* \"#utility.yul\":9720:9740   */\n      sub\n        /* \"#utility.yul\":9716:9717   */\n      0x00\n        /* \"#utility.yul\":9705:9714   */\n      dup4\n        /* \"#utility.yul\":9701:9718   */\n      add\n        /* \"#utility.yul\":9694:9741   */\n      mstore\n        /* \"#utility.yul\":9758:9886   */\n      tag_347\n        /* \"#utility.yul\":9881:9885   */\n      dup2\n        /* \"#utility.yul\":9872:9878   */\n      dup5\n        /* \"#utility.yul\":9758:9886   */\n      tag_278\n      jump\t// in\n    tag_347:\n        /* \"#utility.yul\":9750:9886   */\n      swap1\n      pop\n        /* \"#utility.yul\":9648:9893   */\n      swap3\n      swap2\n      pop\n      pop\n      jump\t// out\n        /* \"#utility.yul\":9899:10368   */\n    tag_53:\n      0x00\n        /* \"#utility.yul\":10128:10130   */\n      0x20\n        /* \"#utility.yul\":10117:10126   */\n      dup3\n        /* \"#utility.yul\":10113:10131   */\n      add\n        /* \"#utility.yul\":10105:10131   */\n      swap1\n      pop\n        /* \"#utility.yul\":10177:10186   */\n      dup2\n        /* \"#utility.yul\":10171:10175   */\n      dup2\n        /* \"#utility.yul\":10167:10187   */\n      sub\n        /* \"#utility.yul\":10163:10164   */\n      0x00\n        /* \"#utility.yul\":10152:10161   */\n      dup4\n        /* \"#utility.yul\":10148:10165   */\n      add\n        /* \"#utility.yul\":10141:10188   */\n      mstore\n        /* \"#utility.yul\":10205:10361   */\n      tag_349\n        /* \"#utility.yul\":10356:10360   */\n      dup2\n        /* \"#utility.yul\":10347:10353   */\n      dup5\n        /* \"#utility.yul\":10205:10361   */\n      tag_292\n      jump\t// in\n    tag_349:\n        /* \"#utility.yul\":10197:10361   */\n      swap1\n      pop\n        /* \"#utility.yul\":10095:10368   */\n      swap3\n      swap2\n      pop\n      pop\n      jump\t// out\n        /* \"#utility.yul\":10374:10624   */\n    tag_58:\n      0x00\n        /* \"#utility.yul\":10519:10521   */\n      0x20\n        /* \"#utility.yul\":10508:10517   */\n      dup3\n        /* \"#utility.yul\":10504:10522   */\n      add\n        /* \"#utility.yul\":10496:10522   */\n      swap1\n      pop\n        /* \"#utility.yul\":10532:10617   */\n      tag_351\n        /* \"#utility.yul\":10614:10615   */\n      0x00\n        /* \"#utility.yul\":10603:10612   */\n      dup4\n        /* \"#utility.yul\":10599:10616   */\n      add\n        /* \"#utility.yul\":10590:10596   */\n      dup5\n        /* \"#utility.yul\":10532:10617   */\n      tag_310\n      jump\t// in\n    tag_351:\n        /* \"#utility.yul\":10486:10624   */\n      swap3\n      swap2\n      pop\n      pop\n      jump\t// out\n        /* \"#utility.yul\":10630:10943   */\n    tag_95:\n      0x00\n        /* \"#utility.yul\":10781:10783   */\n      0x20\n        /* \"#utility.yul\":10770:10779   */\n      dup3\n        /* \"#utility.yul\":10766:10784   */\n      add\n        /* \"#utility.yul\":10758:10784   */\n      swap1\n      pop\n        /* \"#utility.yul\":10830:10839   */\n      dup2\n        /* \"#utility.yul\":10824:10828   */\n      dup2\n        /* \"#utility.yul\":10820:10840   */\n      sub\n        /* \"#utility.yul\":10816:10817   */\n      0x00\n        /* \"#utility.yul\":10805:10814   */\n      dup4\n        /* \"#utility.yul\":10801:10818   */\n      add\n        /* \"#utility.yul\":10794:10841   */\n      mstore\n        /* \"#utility.yul\":10858:10936   */\n      tag_353\n        /* \"#utility.yul\":10931:10935   */\n      dup2\n        /* \"#utility.yul\":10922:10928   */\n      dup5\n        /* \"#utility.yul\":10858:10936   */\n      tag_323\n      jump\t// in\n    tag_353:\n        /* \"#utility.yul\":10850:10936   */\n      swap1\n      pop\n        /* \"#utility.yul\":10748:10943   */\n      swap3\n      swap2\n      pop\n      pop\n      jump\t// out\n        /* \"#utility.yul\":10949:11372   */\n    tag_34:\n      0x00\n        /* \"#utility.yul\":11128:11130   */\n      0x40\n        /* \"#utility.yul\":11117:11126   */\n      dup3\n        /* \"#utility.yul\":11113:11131   */\n      add\n        /* \"#utility.yul\":11105:11131   */\n      swap1\n      pop\n        /* \"#utility.yul\":11177:11186   */\n      dup2\n        /* \"#utility.yul\":11171:11175   */\n      dup2\n        /* \"#utility.yul\":11167:11187   */\n      sub\n        /* \"#utility.yul\":11163:11164   */\n      0x00\n        /* \"#utility.yul\":11152:11161   */\n      dup4\n        /* \"#utility.yul\":11148:11165   */\n      add\n        /* \"#utility.yul\":11141:11188   */\n      mstore\n        /* \"#utility.yul\":11205:11283   */\n      tag_355\n        /* \"#utility.yul\":11278:11282   */\n      dup2\n        /* \"#utility.yul\":11269:11275   */\n      dup6\n        /* \"#utility.yul\":11205:11283   */\n      tag_323\n      jump\t// in\n    tag_355:\n        /* \"#utility.yul\":11197:11283   */\n      swap1\n      pop\n        /* \"#utility.yul\":11293:11365   */\n      tag_356\n        /* \"#utility.yul\":11361:11363   */\n      0x20\n        /* \"#utility.yul\":11350:11359   */\n      dup4\n        /* \"#utility.yul\":11346:11364   */\n      add\n        /* \"#utility.yul\":11337:11343   */\n      dup5\n        /* \"#utility.yul\":11293:11365   */\n      tag_341\n      jump\t// in\n    tag_356:\n        /* \"#utility.yul\":11095:11372   */\n      swap4\n      swap3\n      pop\n      pop\n      pop\n      jump\t// out\n        /* \"#utility.yul\":11378:11747   */\n    tag_100:\n      0x00\n        /* \"#utility.yul\":11557:11559   */\n      0x20\n        /* \"#utility.yul\":11546:11555   */\n      dup3\n        /* \"#utility.yul\":11542:11560   */\n      add\n        /* \"#utility.yul\":11534:11560   */\n      swap1\n      pop\n        /* \"#utility.yul\":11606:11615   */\n      dup2\n        /* \"#utility.yul\":11600:11604   */\n      dup2\n        /* \"#utility.yul\":11596:11616   */\n      sub\n        /* \"#utility.yul\":11592:11593   */\n      0x00\n        /* \"#utility.yul\":11581:11590   */\n      dup4\n        /* \"#utility.yul\":11577:11594   */\n      add\n        /* \"#utility.yul\":11570:11617   */\n      mstore\n        /* \"#utility.yul\":11634:11740   */\n      tag_358\n        /* \"#utility.yul\":11735:11739   */\n      dup2\n        /* \"#utility.yul\":11726:11732   */\n      dup5\n        /* \"#utility.yul\":11634:11740   */\n      tag_334\n      jump\t// in\n    tag_358:\n        /* \"#utility.yul\":11626:11740   */\n      swap1\n      pop\n        /* \"#utility.yul\":11524:11747   */\n      swap3\n      swap2\n      pop\n      pop\n      jump\t// out\n        /* \"#utility.yul\":11753:11975   */\n    tag_38:\n      0x00\n        /* \"#utility.yul\":11884:11886   */\n      0x20\n        /* \"#utility.yul\":11873:11882   */\n      dup3\n        /* \"#utility.yul\":11869:11887   */\n      add\n        /* \"#utility.yul\":11861:11887   */\n      swap1\n      pop\n        /* \"#utility.yul\":11897:11968   */\n      tag_360\n        /* \"#utility.yul\":11965:11966   */\n      0x00\n        /* \"#utility.yul\":11954:11963   */\n      dup4\n        /* \"#utility.yul\":11950:11967   */\n      add\n        /* \"#utility.yul\":11941:11947   */\n      dup5\n        /* \"#utility.yul\":11897:11968   */\n      tag_341\n      jump\t// in\n    tag_360:\n        /* \"#utility.yul\":11851:11975   */\n      swap3\n      swap2\n      pop\n      pop\n      jump\t// out\n        /* \"#utility.yul\":11981:12522   */\n    tag_88:\n      0x00\n        /* \"#utility.yul\":12190:12193   */\n      0x80\n        /* \"#utility.yul\":12179:12188   */\n      dup3\n        /* \"#utility.yul\":12175:12194   */\n      add\n        /* \"#utility.yul\":12167:12194   */\n      swap1\n      pop\n        /* \"#utility.yul\":12204:12275   */\n      tag_362\n        /* \"#utility.yul\":12272:12273   */\n      0x00\n        /* \"#utility.yul\":12261:12270   */\n      dup4\n        /* \"#utility.yul\":12257:12274   */\n      add\n        /* \"#utility.yul\":12248:12254   */\n      dup8\n        /* \"#utility.yul\":12204:12275   */\n      tag_341\n      jump\t// in\n    tag_362:\n        /* \"#utility.yul\":12285:12351   */\n      tag_363\n        /* \"#utility.yul\":12347:12349   */\n      0x20\n        /* \"#utility.yul\":12336:12345   */\n      dup4\n        /* \"#utility.yul\":12332:12350   */\n      add\n        /* \"#utility.yul\":12323:12329   */\n      dup7\n        /* \"#utility.yul\":12285:12351   */\n      tag_306\n      jump\t// in\n    tag_363:\n        /* \"#utility.yul\":12361:12433   */\n      tag_364\n        /* \"#utility.yul\":12429:12431   */\n      0x40\n        /* \"#utility.yul\":12418:12427   */\n      dup4\n        /* \"#utility.yul\":12414:12432   */\n      add\n        /* \"#utility.yul\":12405:12411   */\n      dup6\n        /* \"#utility.yul\":12361:12433   */\n      tag_274\n      jump\t// in\n    tag_364:\n        /* \"#utility.yul\":12443:12515   */\n      tag_365\n        /* \"#utility.yul\":12511:12513   */\n      0x60\n        /* \"#utility.yul\":12500:12509   */\n      dup4\n        /* \"#utility.yul\":12496:12514   */\n      add\n        /* \"#utility.yul\":12487:12493   */\n      dup5\n        /* \"#utility.yul\":12443:12515   */\n      tag_341\n      jump\t// in\n    tag_365:\n        /* \"#utility.yul\":12157:12522   */\n      swap6\n      swap5\n      pop\n      pop\n      pop\n      pop\n      pop\n      jump\t// out\n        /* \"#utility.yul\":12528:12811   */\n    tag_216:\n      0x00\n        /* \"#utility.yul\":12594:12596   */\n      0x40\n        /* \"#utility.yul\":12588:12597   */\n      mload\n        /* \"#utility.yul\":12578:12597   */\n      swap1\n      pop\n        /* \"#utility.yul\":12636:12640   */\n      dup2\n        /* \"#utility.yul\":12628:12634   */\n      dup2\n        /* \"#utility.yul\":12624:12641   */\n      add\n        /* \"#utility.yul\":12743:12749   */\n      dup2\n        /* \"#utility.yul\":12731:12741   */\n      dup2\n        /* \"#utility.yul\":12728:12750   */\n      lt\n        /* \"#utility.yul\":12707:12725   */\n      0xffffffffffffffff\n        /* \"#utility.yul\":12695:12705   */\n      dup3\n        /* \"#utility.yul\":12692:12726   */\n      gt\n        /* \"#utility.yul\":12689:12751   */\n      or\n        /* \"#utility.yul\":12686:12688   */\n      iszero\n      tag_367\n      jumpi\n        /* \"#utility.yul\":12754:12772   */\n      tag_368\n      tag_369\n      jump\t// in\n    tag_368:\n        /* \"#utility.yul\":12686:12688   */\n    tag_367:\n        /* \"#utility.yul\":12794:12804   */\n      dup1\n        /* \"#utility.yul\":12790:12792   */\n      0x40\n        /* \"#utility.yul\":12783:12805   */\n      mstore\n        /* \"#utility.yul\":12568:12811   */\n      pop\n      swap2\n      swap1\n      pop\n      jump\t// out\n        /* \"#utility.yul\":12817:13138   */\n    tag_215:\n      0x00\n        /* \"#utility.yul\":12994:13012   */\n      0xffffffffffffffff\n        /* \"#utility.yul\":12986:12992   */\n      dup3\n        /* \"#utility.yul\":12983:13013   */\n      gt\n        /* \"#utility.yul\":12980:12982   */\n      iszero\n      tag_371\n      jumpi\n        /* \"#utility.yul\":13016:13034   */\n      tag_372\n      tag_369\n      jump\t// in\n    tag_372:\n        /* \"#utility.yul\":12980:12982   */\n    tag_371:\n        /* \"#utility.yul\":13066:13070   */\n      0x20\n        /* \"#utility.yul\":13058:13064   */\n      dup3\n        /* \"#utility.yul\":13054:13071   */\n      mul\n        /* \"#utility.yul\":13046:13071   */\n      swap1\n      pop\n        /* \"#utility.yul\":13126:13130   */\n      0x20\n        /* \"#utility.yul\":13120:13124   */\n      dup2\n        /* \"#utility.yul\":13116:13131   */\n      add\n        /* \"#utility.yul\":13108:13131   */\n      swap1\n      pop\n        /* \"#utility.yul\":12909:13138   */\n      swap2\n      swap1\n      pop\n      jump\t// out\n        /* \"#utility.yul\":13144:13476   */\n    tag_226:\n      0x00\n        /* \"#utility.yul\":13296:13314   */\n      0xffffffffffffffff\n        /* \"#utility.yul\":13288:13294   */\n      dup3\n        /* \"#utility.yul\":13285:13315   */\n      gt\n        /* \"#utility.yul\":13282:13284   */\n      iszero\n      tag_374\n      jumpi\n        /* \"#utility.yul\":13318:13336   */\n      tag_375\n      tag_369\n      jump\t// in\n    tag_375:\n        /* \"#utility.yul\":13282:13284   */\n    tag_374:\n        /* \"#utility.yul\":13403:13407   */\n      0x1f\n        /* \"#utility.yul\":13399:13408   */\n      not\n        /* \"#utility.yul\":13392:13396   */\n      0x1f\n        /* \"#utility.yul\":13384:13390   */\n      dup4\n        /* \"#utility.yul\":13380:13397   */\n      add\n        /* \"#utility.yul\":13376:13409   */\n      and\n        /* \"#utility.yul\":13368:13409   */\n      swap1\n      pop\n        /* \"#utility.yul\":13464:13468   */\n      0x20\n        /* \"#utility.yul\":13458:13462   */\n      dup2\n        /* \"#utility.yul\":13454:13469   */\n      add\n        /* \"#utility.yul\":13446:13469   */\n      swap1\n      pop\n        /* \"#utility.yul\":13211:13476   */\n      swap2\n      swap1\n      pop\n      jump\t// out\n        /* \"#utility.yul\":13482:13624   */\n    tag_285:\n      0x00\n        /* \"#utility.yul\":13582:13585   */\n      dup2\n        /* \"#utility.yul\":13574:13585   */\n      swap1\n      pop\n        /* \"#utility.yul\":13612:13616   */\n      0x20\n        /* \"#utility.yul\":13607:13610   */\n      dup3\n        /* \"#utility.yul\":13603:13617   */\n      add\n        /* \"#utility.yul\":13595:13617   */\n      swap1\n      pop\n        /* \"#utility.yul\":13564:13624   */\n      swap2\n      swap1\n      pop\n      jump\t// out\n        /* \"#utility.yul\":13630:13786   */\n    tag_299:\n      0x00\n        /* \"#utility.yul\":13744:13747   */\n      dup2\n        /* \"#utility.yul\":13736:13747   */\n      swap1\n      pop\n        /* \"#utility.yul\":13774:13778   */\n      0x20\n        /* \"#utility.yul\":13769:13772   */\n      dup3\n        /* \"#utility.yul\":13765:13779   */\n      add\n        /* \"#utility.yul\":13757:13779   */\n      swap1\n      pop\n        /* \"#utility.yul\":13726:13786   */\n      swap2\n      swap1\n      pop\n      jump\t// out\n        /* \"#utility.yul\":13792:13916   */\n    tag_281:\n      0x00\n        /* \"#utility.yul\":13903:13908   */\n      dup2\n        /* \"#utility.yul\":13897:13909   */\n      mload\n        /* \"#utility.yul\":13887:13909   */\n      swap1\n      pop\n        /* \"#utility.yul\":13876:13916   */\n      swap2\n      swap1\n      pop\n      jump\t// out\n        /* \"#utility.yul\":13922:14060   */\n    tag_295:\n      0x00\n        /* \"#utility.yul\":14047:14052   */\n      dup2\n        /* \"#utility.yul\":14041:14053   */\n      mload\n        /* \"#utility.yul\":14031:14053   */\n      swap1\n      pop\n        /* \"#utility.yul\":14020:14060   */\n      swap2\n      swap1\n      pop\n      jump\t// out\n        /* \"#utility.yul\":14066:14165   */\n    tag_316:\n      0x00\n        /* \"#utility.yul\":14152:14157   */\n      dup2\n        /* \"#utility.yul\":14146:14158   */\n      mload\n        /* \"#utility.yul\":14136:14158   */\n      swap1\n      pop\n        /* \"#utility.yul\":14125:14165   */\n      swap2\n      swap1\n      pop\n      jump\t// out\n        /* \"#utility.yul\":14171:14294   */\n    tag_291:\n      0x00\n        /* \"#utility.yul\":14283:14287   */\n      0x20\n        /* \"#utility.yul\":14278:14281   */\n      dup3\n        /* \"#utility.yul\":14274:14288   */\n      add\n        /* \"#utility.yul\":14266:14288   */\n      swap1\n      pop\n        /* \"#utility.yul\":14256:14294   */\n      swap2\n      swap1\n      pop\n      jump\t// out\n        /* \"#utility.yul\":14300:14437   */\n    tag_305:\n      0x00\n        /* \"#utility.yul\":14426:14430   */\n      0x20\n        /* \"#utility.yul\":14421:14424   */\n      dup3\n        /* \"#utility.yul\":14417:14431   */\n      add\n        /* \"#utility.yul\":14409:14431   */\n      swap1\n      pop\n        /* \"#utility.yul\":14399:14437   */\n      swap2\n      swap1\n      pop\n      jump\t// out\n        /* \"#utility.yul\":14443:14637   */\n    tag_283:\n      0x00\n        /* \"#utility.yul\":14586:14592   */\n      dup3\n        /* \"#utility.yul\":14581:14584   */\n      dup3\n        /* \"#utility.yul\":14574:14593   */\n      mstore\n        /* \"#utility.yul\":14626:14630   */\n      0x20\n        /* \"#utility.yul\":14621:14624   */\n      dup3\n        /* \"#utility.yul\":14617:14631   */\n      add\n        /* \"#utility.yul\":14602:14631   */\n      swap1\n      pop\n        /* \"#utility.yul\":14564:14637   */\n      swap3\n      swap2\n      pop\n      pop\n      jump\t// out\n        /* \"#utility.yul\":14643:14851   */\n    tag_297:\n      0x00\n        /* \"#utility.yul\":14800:14806   */\n      dup3\n        /* \"#utility.yul\":14795:14798   */\n      dup3\n        /* \"#utility.yul\":14788:14807   */\n      mstore\n        /* \"#utility.yul\":14840:14844   */\n      0x20\n        /* \"#utility.yul\":14835:14838   */\n      dup3\n        /* \"#utility.yul\":14831:14845   */\n      add\n        /* \"#utility.yul\":14816:14845   */\n      swap1\n      pop\n        /* \"#utility.yul\":14778:14851   */\n      swap3\n      swap2\n      pop\n      pop\n      jump\t// out\n        /* \"#utility.yul\":14857:15016   */\n    tag_318:\n      0x00\n        /* \"#utility.yul\":14965:14971   */\n      dup3\n        /* \"#utility.yul\":14960:14963   */\n      dup3\n        /* \"#utility.yul\":14953:14972   */\n      mstore\n        /* \"#utility.yul\":15005:15009   */\n      0x20\n        /* \"#utility.yul\":15000:15003   */\n      dup3\n        /* \"#utility.yul\":14996:15010   */\n      add\n        /* \"#utility.yul\":14981:15010   */\n      swap1\n      pop\n        /* \"#utility.yul\":14943:15016   */\n      swap3\n      swap2\n      pop\n      pop\n      jump\t// out\n        /* \"#utility.yul\":15022:15191   */\n    tag_327:\n      0x00\n        /* \"#utility.yul\":15140:15146   */\n      dup3\n        /* \"#utility.yul\":15135:15138   */\n      dup3\n        /* \"#utility.yul\":15128:15147   */\n      mstore\n        /* \"#utility.yul\":15180:15184   */\n      0x20\n        /* \"#utility.yul\":15175:15178   */\n      dup3\n        /* \"#utility.yul\":15171:15185   */\n      add\n        /* \"#utility.yul\":15156:15185   */\n      swap1\n      pop\n        /* \"#utility.yul\":15118:15191   */\n      swap3\n      swap2\n      pop\n      pop\n      jump\t// out\n        /* \"#utility.yul\":15197:15502   */\n    tag_106:\n      0x00\n        /* \"#utility.yul\":15256:15276   */\n      tag_388\n        /* \"#utility.yul\":15274:15275   */\n      dup3\n        /* \"#utility.yul\":15256:15276   */\n      tag_340\n      jump\t// in\n    tag_388:\n        /* \"#utility.yul\":15251:15276   */\n      swap2\n      pop\n        /* \"#utility.yul\":15290:15310   */\n      tag_389\n        /* \"#utility.yul\":15308:15309   */\n      dup4\n        /* \"#utility.yul\":15290:15310   */\n      tag_340\n      jump\t// in\n    tag_389:\n        /* \"#utility.yul\":15285:15310   */\n      swap3\n      pop\n        /* \"#utility.yul\":15444:15445   */\n      dup3\n        /* \"#utility.yul\":15376:15442   */\n      0xffffffffffffffffffffffffffffffffffffffffffffffffffffffffffffffff\n        /* \"#utility.yul\":15372:15446   */\n      sub\n        /* \"#utility.yul\":15369:15370   */\n      dup3\n        /* \"#utility.yul\":15366:15447   */\n      gt\n        /* \"#utility.yul\":15363:15365   */\n      iszero\n      tag_390\n      jumpi\n        /* \"#utility.yul\":15450:15468   */\n      tag_391\n      tag_392\n      jump\t// in\n    tag_391:\n        /* \"#utility.yul\":15363:15365   */\n    tag_390:\n        /* \"#utility.yul\":15494:15495   */\n      dup3\n        /* \"#utility.yul\":15491:15492   */\n      dup3\n        /* \"#utility.yul\":15487:15496   */\n      add\n        /* \"#utility.yul\":15480:15496   */\n      swap1\n      pop\n        /* \"#utility.yul\":15241:15502   */\n      swap3\n      swap2\n      pop\n      pop\n      jump\t// out\n        /* \"#utility.yul\":15508:15604   */\n    tag_277:\n      0x00\n        /* \"#utility.yul\":15574:15598   */\n      tag_394\n        /* \"#utility.yul\":15592:15597   */\n      dup3\n        /* \"#utility.yul\":15574:15598   */\n      tag_395\n      jump\t// in\n    tag_394:\n        /* \"#utility.yul\":15563:15598   */\n      swap1\n      pop\n        /* \"#utility.yul\":15553:15604   */\n      swap2\n      swap1\n      pop\n      jump\t// out\n        /* \"#utility.yul\":15610:15700   */\n    tag_309:\n      0x00\n        /* \"#utility.yul\":15687:15692   */\n      dup2\n        /* \"#utility.yul\":15680:15693   */\n      iszero\n        /* \"#utility.yul\":15673:15694   */\n      iszero\n        /* \"#utility.yul\":15662:15694   */\n      swap1\n      pop\n        /* \"#utility.yul\":15652:15700   */\n      swap2\n      swap1\n      pop\n      jump\t// out\n        /* \"#utility.yul\":15706:15832   */\n    tag_395:\n      0x00\n        /* \"#utility.yul\":15783:15825   */\n      0xffffffffffffffffffffffffffffffffffffffff\n        /* \"#utility.yul\":15776:15781   */\n      dup3\n        /* \"#utility.yul\":15772:15826   */\n      and\n        /* \"#utility.yul\":15761:15826   */\n      swap1\n      pop\n        /* \"#utility.yul\":15751:15832   */\n      swap2\n      swap1\n      pop\n      jump\t// out\n        /* \"#utility.yul\":15838:15915   */\n    tag_340:\n      0x00\n        /* \"#utility.yul\":15904:15909   */\n      dup2\n        /* \"#utility.yul\":15893:15909   */\n      swap1\n      pop\n        /* \"#utility.yul\":15883:15915   */\n      swap2\n      swap1\n      pop\n      jump\t// out\n        /* \"#utility.yul\":15921:16075   */\n    tag_313:\n      0x00\n        /* \"#utility.yul\":16018:16069   */\n      tag_400\n        /* \"#utility.yul\":16063:16068   */\n      dup3\n        /* \"#utility.yul\":16018:16069   */\n      tag_401\n      jump\t// in\n    tag_400:\n        /* \"#utility.yul\":16005:16069   */\n      swap1\n      pop\n        /* \"#utility.yul\":15995:16075   */\n      swap2\n      swap1\n      pop\n      jump\t// out\n        /* \"#utility.yul\":16081:16208   */\n    tag_401:\n      0x00\n        /* \"#utility.yul\":16178:16202   */\n      tag_403\n        /* \"#utility.yul\":16196:16201   */\n      dup3\n        /* \"#utility.yul\":16178:16202   */\n      tag_395\n      jump\t// in\n    tag_403:\n        /* \"#utility.yul\":16165:16202   */\n      swap1\n      pop\n        /* \"#utility.yul\":16155:16208   */\n      swap2\n      swap1\n      pop\n      jump\t// out\n        /* \"#utility.yul\":16214:16368   */\n    tag_229:\n        /* \"#utility.yul\":16298:16304   */\n      dup3\n        /* \"#utility.yul\":16293:16296   */\n      dup2\n        /* \"#utility.yul\":16288:16291   */\n      dup4\n        /* \"#utility.yul\":16275:16305   */\n      calldatacopy\n        /* \"#utility.yul\":16360:16361   */\n      0x00\n        /* \"#utility.yul\":16351:16357   */\n      dup4\n        /* \"#utility.yul\":16346:16349   */\n      dup4\n        /* \"#utility.yul\":16342:16358   */\n      add\n        /* \"#utility.yul\":16335:16362   */\n      mstore\n        /* \"#utility.yul\":16265:16368   */\n      pop\n      pop\n      pop\n      jump\t// out\n        /* \"#utility.yul\":16374:16681   */\n    tag_320:\n        /* \"#utility.yul\":16442:16443   */\n      0x00\n        /* \"#utility.yul\":16452:16565   */\n    tag_406:\n        /* \"#utility.yul\":16466:16472   */\n      dup4\n        /* \"#utility.yul\":16463:16464   */\n      dup2\n        /* \"#utility.yul\":16460:16473   */\n      lt\n        /* \"#utility.yul\":16452:16565   */\n      iszero\n      tag_408\n      jumpi\n        /* \"#utility.yul\":16551:16552   */\n      dup1\n        /* \"#utility.yul\":16546:16549   */\n      dup3\n        /* \"#utility.yul\":16542:16553   */\n      add\n        /* \"#utility.yul\":16536:16554   */\n      mload\n        /* \"#utility.yul\":16532:16533   */\n      dup2\n        /* \"#utility.yul\":16527:16530   */\n      dup5\n        /* \"#utility.yul\":16523:16534   */\n      add\n        /* \"#utility.yul\":16516:16555   */\n      mstore\n        /* \"#utility.yul\":16488:16490   */\n      0x20\n        /* \"#utility.yul\":16485:16486   */\n      dup2\n        /* \"#utility.yul\":16481:16491   */\n      add\n        /* \"#utility.yul\":16476:16491   */\n      swap1\n      pop\n        /* \"#utility.yul\":16452:16565   */\n      jump(tag_406)\n    tag_408:\n        /* \"#utility.yul\":16583:16589   */\n      dup4\n        /* \"#utility.yul\":16580:16581   */\n      dup2\n        /* \"#utility.yul\":16577:16590   */\n      gt\n        /* \"#utility.yul\":16574:16576   */\n      iszero\n      tag_409\n      jumpi\n        /* \"#utility.yul\":16663:16664   */\n      0x00\n        /* \"#utility.yul\":16654:16660   */\n      dup5\n        /* \"#utility.yul\":16649:16652   */\n      dup5\n        /* \"#utility.yul\":16645:16661   */\n      add\n        /* \"#utility.yul\":16638:16665   */\n      mstore\n        /* \"#utility.yul\":16574:16576   */\n    tag_409:\n        /* \"#utility.yul\":16423:16681   */\n      pop\n      pop\n      pop\n      pop\n      jump\t// out\n        /* \"#utility.yul\":16687:17007   */\n    tag_110:\n      0x00\n        /* \"#utility.yul\":16768:16769   */\n      0x02\n        /* \"#utility.yul\":16762:16766   */\n      dup3\n        /* \"#utility.yul\":16758:16770   */\n      div\n        /* \"#utility.yul\":16748:16770   */\n      swap1\n      pop\n        /* \"#utility.yul\":16815:16816   */\n      0x01\n        /* \"#utility.yul\":16809:16813   */\n      dup3\n        /* \"#utility.yul\":16805:16817   */\n      and\n        /* \"#utility.yul\":16836:16854   */\n      dup1\n        /* \"#utility.yul\":16826:16828   */\n      tag_411\n      jumpi\n        /* \"#utility.yul\":16892:16896   */\n      0x7f\n        /* \"#utility.yul\":16884:16890   */\n      dup3\n        /* \"#utility.yul\":16880:16897   */\n      and\n        /* \"#utility.yul\":16870:16897   */\n      swap2\n      pop\n        /* \"#utility.yul\":16826:16828   */\n    tag_411:\n        /* \"#utility.yul\":16954:16956   */\n      0x20\n        /* \"#utility.yul\":16946:16952   */\n      dup3\n        /* \"#utility.yul\":16943:16957   */\n      lt\n        /* \"#utility.yul\":16923:16941   */\n      dup2\n        /* \"#utility.yul\":16920:16958   */\n      eq\n        /* \"#utility.yul\":16917:16919   */\n      iszero\n      tag_412\n      jumpi\n        /* \"#utility.yul\":16973:16991   */\n      tag_413\n      tag_414\n      jump\t// in\n    tag_413:\n        /* \"#utility.yul\":16917:16919   */\n    tag_412:\n        /* \"#utility.yul\":16738:17007   */\n      pop\n      swap2\n      swap1\n      pop\n      jump\t// out\n        /* \"#utility.yul\":17013:17246   */\n    tag_135:\n      0x00\n        /* \"#utility.yul\":17075:17099   */\n      tag_416\n        /* \"#utility.yul\":17093:17098   */\n      dup3\n        /* \"#utility.yul\":17075:17099   */\n      tag_340\n      jump\t// in\n    tag_416:\n        /* \"#utility.yul\":17066:17099   */\n      swap2\n      pop\n        /* \"#utility.yul\":17121:17187   */\n      0xffffffffffffffffffffffffffffffffffffffffffffffffffffffffffffffff\n        /* \"#utility.yul\":17114:17119   */\n      dup3\n        /* \"#utility.yul\":17111:17188   */\n      eq\n        /* \"#utility.yul\":17108:17110   */\n      iszero\n      tag_417\n      jumpi\n        /* \"#utility.yul\":17191:17209   */\n      tag_418\n      tag_392\n      jump\t// in\n    tag_418:\n        /* \"#utility.yul\":17108:17110   */\n    tag_417:\n        /* \"#utility.yul\":17238:17239   */\n      0x01\n        /* \"#utility.yul\":17231:17236   */\n      dup3\n        /* \"#utility.yul\":17227:17240   */\n      add\n        /* \"#utility.yul\":17220:17240   */\n      swap1\n      pop\n        /* \"#utility.yul\":17056:17246   */\n      swap2\n      swap1\n      pop\n      jump\t// out\n        /* \"#utility.yul\":17252:17432   */\n    tag_392:\n        /* \"#utility.yul\":17300:17377   */\n      0x4e487b7100000000000000000000000000000000000000000000000000000000\n        /* \"#utility.yul\":17297:17298   */\n      0x00\n        /* \"#utility.yul\":17290:17378   */\n      mstore\n        /* \"#utility.yul\":17397:17401   */\n      0x11\n        /* \"#utility.yul\":17394:17395   */\n      0x04\n        /* \"#utility.yul\":17387:17402   */\n      mstore\n        /* \"#utility.yul\":17421:17425   */\n      0x24\n        /* \"#utility.yul\":17418:17419   */\n      0x00\n        /* \"#utility.yul\":17411:17426   */\n      revert\n        /* \"#utility.yul\":17438:17618   */\n    tag_414:\n        /* \"#utility.yul\":17486:17563   */\n      0x4e487b7100000000000000000000000000000000000000000000000000000000\n        /* \"#utility.yul\":17483:17484   */\n      0x00\n        /* \"#utility.yul\":17476:17564   */\n      mstore\n        /* \"#utility.yul\":17583:17587   */\n      0x22\n        /* \"#utility.yul\":17580:17581   */\n      0x04\n        /* \"#utility.yul\":17573:17588   */\n      mstore\n        /* \"#utility.yul\":17607:17611   */\n      0x24\n        /* \"#utility.yul\":17604:17605   */\n      0x00\n        /* \"#utility.yul\":17597:17612   */\n      revert\n        /* \"#utility.yul\":17624:17804   */\n    tag_369:\n        /* \"#utility.yul\":17672:17749   */\n      0x4e487b7100000000000000000000000000000000000000000000000000000000\n        /* \"#utility.yul\":17669:17670   */\n      0x00\n        /* \"#utility.yul\":17662:17750   */\n      mstore\n        /* \"#utility.yul\":17769:17773   */\n      0x41\n        /* \"#utility.yul\":17766:17767   */\n      0x04\n        /* \"#utility.yul\":17759:17774   */\n      mstore\n        /* \"#utility.yul\":17793:17797   */\n      0x24\n        /* \"#utility.yul\":17790:17791   */\n      0x00\n        /* \"#utility.yul\":17783:17798   */\n      revert\n        /* \"#utility.yul\":17810:17912   */\n    tag_322:\n      0x00\n        /* \"#utility.yul\":17902:17904   */\n      0x1f\n        /* \"#utility.yul\":17898:17905   */\n      not\n        /* \"#utility.yul\":17893:17895   */\n      0x1f\n        /* \"#utility.yul\":17886:17891   */\n      dup4\n        /* \"#utility.yul\":17882:17896   */\n      add\n        /* \"#utility.yul\":17878:17906   */\n      and\n        /* \"#utility.yul\":17868:17906   */\n      swap1\n      pop\n        /* \"#utility.yul\":17858:17912   */\n      swap2\n      swap1\n      pop\n      jump\t// out\n        /* \"#utility.yul\":17918:18040   */\n    tag_233:\n        /* \"#utility.yul\":17991:18015   */\n      tag_424\n        /* \"#utility.yul\":18009:18014   */\n      dup2\n        /* \"#utility.yul\":17991:18015   */\n      tag_277\n      jump\t// in\n    tag_424:\n        /* \"#utility.yul\":17984:17989   */\n      dup2\n        /* \"#utility.yul\":17981:18016   */\n      eq\n        /* \"#utility.yul\":17971:17973   */\n      tag_425\n      jumpi\n        /* \"#utility.yul\":18030:18031   */\n      0x00\n        /* \"#utility.yul\":18027:18028   */\n      dup1\n        /* \"#utility.yul\":18020:18032   */\n      revert\n        /* \"#utility.yul\":17971:17973   */\n    tag_425:\n        /* \"#utility.yul\":17961:18040   */\n      pop\n      jump\t// out\n        /* \"#utility.yul\":18046:18168   */\n    tag_247:\n        /* \"#utility.yul\":18119:18143   */\n      tag_427\n        /* \"#utility.yul\":18137:18142   */\n      dup2\n        /* \"#utility.yul\":18119:18143   */\n      tag_340\n      jump\t// in\n    tag_427:\n        /* \"#utility.yul\":18112:18117   */\n      dup2\n        /* \"#utility.yul\":18109:18144   */\n      eq\n        /* \"#utility.yul\":18099:18101   */\n      tag_428\n      jumpi\n        /* \"#utility.yul\":18158:18159   */\n      0x00\n        /* \"#utility.yul\":18155:18156   */\n      dup1\n        /* \"#utility.yul\":18148:18160   */\n      revert\n        /* \"#utility.yul\":18099:18101   */\n    tag_428:\n        /* \"#utility.yul\":18089:18168   */\n      pop\n      jump\t// out\n    stop\n\n    sub_0: assembly {\n            /* \"contracts/prop_test.sol\":60:4755  contract Ballot {\r... */\n          mstore(0x40, 0x80)\n          callvalue\n          dup1\n          iszero\n          tag_1\n          jumpi\n          0x00\n          dup1\n          revert\n        tag_1:\n          pop\n          dataSize(sub_0)\n          dup1\n          dataOffset(sub_0)\n          0x00\n          codecopy\n          0x00\n          return\n        stop\n\n        sub_0: assembly {\n                /* \"contracts/prop_test.sol\":60:4755  contract Ballot {\r... */\n              mstore(0x40, 0x80)\n              callvalue\n              dup1\n              iszero\n              tag_1\n              jumpi\n              0x00\n              dup1\n              revert\n            tag_1:\n              pop\n              jumpi(tag_2, lt(calldatasize, 0x04))\n              shr(0xe0, calldataload(0x00))\n              dup1\n              0x7a16fcb0\n              gt\n              tag_19\n              jumpi\n              dup1\n              0xa3ec138d\n              gt\n              tag_20\n              jumpi\n              dup1\n              0xa3ec138d\n              eq\n              tag_15\n              jumpi\n              dup1\n              0xb1356488\n              eq\n              tag_16\n              jumpi\n              dup1\n              0xe2ba53f0\n              eq\n              tag_17\n              jumpi\n              dup1\n              0xe9d6c6da\n              eq\n              tag_18\n              jumpi\n              jump(tag_2)\n            tag_20:\n              dup1\n              0x7a16fcb0\n              eq\n              tag_11\n              jumpi\n              dup1\n              0x836bc692\n              eq\n              tag_12\n              jumpi\n              dup1\n              0x86278e77\n              eq\n              tag_13\n              jumpi\n              dup1\n              0x9e7b8d61\n              eq\n              tag_14\n              jumpi\n              jump(tag_2)\n            tag_19:\n              dup1\n              0x609ff1bd\n              gt\n              tag_21\n              jumpi\n              dup1\n              0x609ff1bd\n              eq\n              tag_7\n              jumpi\n              dup1\n              0x62564c48\n              eq\n              tag_8\n              jumpi\n              dup1\n              0x69ba1a75\n              eq\n              tag_9\n              jumpi\n              dup1\n              0x78f305c6\n              eq\n              tag_10\n              jumpi\n              jump(tag_2)\n            tag_21:\n              dup1\n              0x0121b93f\n              eq\n              tag_3\n              jumpi\n              dup1\n              0x013cf08b\n              eq\n              tag_4\n              jumpi\n              dup1\n              0x0a82dcb1\n              eq\n              tag_5\n              jumpi\n              dup1\n              0x4e69d560\n              eq\n              tag_6\n              jumpi\n            tag_2:\n              0x00\n              dup1\n              revert\n                /* \"contracts/prop_test.sol\":2270:2659  function vote(uint proposal) public {\r... */\n            tag_3:\n              tag_22\n              0x04\n              dup1\n              calldatasize\n              sub\n              dup2\n              add\n              swap1\n              tag_23\n              swap2\n              swap1\n              tag_24\n              jump\t// in\n            tag_23:\n              tag_25\n              jump\t// in\n            tag_22:\n              stop\n                /* \"contracts/prop_test.sol\":871:898  Proposal[] public proposals */\n            tag_4:\n              tag_26\n              0x04\n              dup1\n              calldatasize\n              sub\n              dup2\n              add\n              swap1\n              tag_27\n              swap2\n              swap1\n              tag_24\n              jump\t// in\n            tag_27:\n              tag_28\n              jump\t// in\n            tag_26:\n              mload(0x40)\n              tag_29\n              swap3\n              swap2\n              swap1\n              tag_30\n              jump\t// in\n            tag_29:\n              mload(0x40)\n              dup1\n              swap2\n              sub\n              swap1\n              return\n                /* \"contracts/prop_test.sol\":3869:3963  function getnumOfProposals() public view returns(uint){\r... */\n            tag_5:\n              tag_31\n              tag_32\n              jump\t// in\n            tag_31:\n              mload(0x40)\n              tag_33\n              swap2\n              swap1\n              tag_34\n              jump\t// in\n            tag_33:\n              mload(0x40)\n              dup1\n              swap2\n              sub\n              swap1\n              return\n                /* \"contracts/prop_test.sol\":3749:3827  function getStatus() public view returns(uint){\r... */\n            tag_6:\n              tag_35\n              tag_36\n              jump\t// in\n            tag_35:\n              mload(0x40)\n              tag_37\n              swap2\n              swap1\n              tag_34\n              jump\t// in\n            tag_37:\n              mload(0x40)\n              dup1\n              swap2\n              sub\n              swap1\n              return\n                /* \"contracts/prop_test.sol\":2667:3021  function winningProposal() public view returns (uint winningProposal){\r... */\n            tag_7:\n              tag_38\n              tag_39\n              jump\t// in\n            tag_38:\n              mload(0x40)\n              tag_40\n              swap2\n              swap1\n              tag_34\n              jump\t// in\n            tag_40:\n              mload(0x40)\n              dup1\n              swap2\n              sub\n              swap1\n              return\n                /* \"contracts/prop_test.sol\":4172:4269  function getProposals() public view returns(Proposal[] memory){\r... */\n            tag_8:\n              tag_41\n              tag_42\n              jump\t// in\n            tag_41:\n              mload(0x40)\n              tag_43\n              swap2\n              swap1\n              tag_44\n              jump\t// in\n            tag_43:\n              mload(0x40)\n              dup1\n              swap2\n              sub\n              swap1\n              return\n                /* \"contracts/prop_test.sol\":3632:3706  function setStatus(uint _status) public{\r... */\n            tag_9:\n              tag_45\n              0x04\n              dup1\n              calldatasize\n              sub\n              dup2\n              add\n              swap1\n              tag_46\n              swap2\n              swap1\n              tag_24\n              jump\t// in\n            tag_46:\n              tag_47\n              jump\t// in\n            tag_45:\n              stop\n                /* \"contracts/prop_test.sol\":4434:4518  function getStartDate() public view returns(uint){\r... */\n            tag_10:\n              tag_48\n              tag_49\n              jump\t// in\n            tag_48:\n              mload(0x40)\n              tag_50\n              swap2\n              swap1\n              tag_34\n              jump\t// in\n            tag_50:\n              mload(0x40)\n              dup1\n              swap2\n              sub\n              swap1\n              return\n                /* \"contracts/prop_test.sol\":3500:3589  function getCreatorBallot() public view returns(address){\r... */\n            tag_11:\n              tag_51\n              tag_52\n              jump\t// in\n            tag_51:\n              mload(0x40)\n              tag_53\n              swap2\n              swap1\n              tag_54\n              jump\t// in\n            tag_53:\n              mload(0x40)\n              dup1\n              swap2\n              sub\n              swap1\n              return\n                /* \"contracts/prop_test.sol\":907:1647  function createBallot(string[] memory proposalNames) public {\r... */\n            tag_12:\n              tag_55\n              0x04\n              dup1\n              calldatasize\n              sub\n              dup2\n              add\n              swap1\n              tag_56\n              swap2\n              swap1\n              tag_57\n              jump\t// in\n            tag_56:\n              tag_58\n              jump\t// in\n            tag_55:\n              stop\n                /* \"contracts/prop_test.sol\":4560:4632  function setEndDate() public{\r... */\n            tag_13:\n              tag_59\n              tag_60\n              jump\t// in\n            tag_59:\n              stop\n                /* \"contracts/prop_test.sol\":1655:2233  function giveRightToVote(address voter) public {\r... */\n            tag_14:\n              tag_61\n              0x04\n              dup1\n              calldatasize\n              sub\n              dup2\n              add\n              swap1\n              tag_62\n              swap2\n              swap1\n              tag_63\n              jump\t// in\n            tag_62:\n              tag_64\n              jump\t// in\n            tag_61:\n              stop\n                /* \"contracts/prop_test.sol\":766:805  mapping(address => Voter) public voters */\n            tag_15:\n              tag_65\n              0x04\n              dup1\n              calldatasize\n              sub\n              dup2\n              add\n              swap1\n              tag_66\n              swap2\n              swap1\n              tag_63\n              jump\t// in\n            tag_66:\n              tag_67\n              jump\t// in\n            tag_65:\n              mload(0x40)\n              tag_68\n              swap5\n              swap4\n              swap3\n              swap2\n              swap1\n              tag_69\n              jump\t// in\n            tag_68:\n              mload(0x40)\n              dup1\n              swap2\n              sub\n              swap1\n              return\n                /* \"contracts/prop_test.sol\":4672:4752  function getEndDate() public view returns(uint){\r... */\n            tag_16:\n              tag_70\n              tag_71\n              jump\t// in\n            tag_70:\n              mload(0x40)\n              tag_72\n              swap2\n              swap1\n              tag_34\n              jump\t// in\n            tag_72:\n              mload(0x40)\n              dup1\n              swap2\n              sub\n              swap1\n              return\n                /* \"contracts/prop_test.sol\":3190:3328  function winnerName() public view returns(string memory winnerName)\r... */\n            tag_17:\n              tag_73\n              tag_74\n              jump\t// in\n            tag_73:\n              mload(0x40)\n              tag_75\n              swap2\n              swap1\n              tag_76\n              jump\t// in\n            tag_75:\n              mload(0x40)\n              dup1\n              swap2\n              sub\n              swap1\n              return\n                /* \"contracts/prop_test.sol\":4005:4137  function getProposalStructure(uint _proposalId) public view returns(Proposal memory){\r... */\n            tag_18:\n              tag_77\n              0x04\n              dup1\n              calldatasize\n              sub\n              dup2\n              add\n              swap1\n              tag_78\n              swap2\n              swap1\n              tag_24\n              jump\t// in\n            tag_78:\n              tag_79\n              jump\t// in\n            tag_77:\n              mload(0x40)\n              tag_80\n              swap2\n              swap1\n              tag_81\n              jump\t// in\n            tag_80:\n              mload(0x40)\n              dup1\n              swap2\n              sub\n              swap1\n              return\n                /* \"contracts/prop_test.sol\":2270:2659  function vote(uint proposal) public {\r... */\n            tag_25:\n                /* \"contracts/prop_test.sol\":2317:2337  Voter storage sender */\n              0x00\n                /* \"contracts/prop_test.sol\":2340:2346  voters */\n              0x05\n                /* \"contracts/prop_test.sol\":2340:2358  voters[msg.sender] */\n              0x00\n                /* \"contracts/prop_test.sol\":2347:2357  msg.sender */\n              caller\n                /* \"contracts/prop_test.sol\":2340:2358  voters[msg.sender] */\n              0xffffffffffffffffffffffffffffffffffffffff\n              and\n              0xffffffffffffffffffffffffffffffffffffffff\n              and\n              dup2\n              mstore\n              0x20\n              add\n              swap1\n              dup2\n              mstore\n              0x20\n              add\n              0x00\n              keccak256\n                /* \"contracts/prop_test.sol\":2317:2358  Voter storage sender = voters[msg.sender] */\n              swap1\n              pop\n                /* \"contracts/prop_test.sol\":2378:2384  sender */\n              dup1\n                /* \"contracts/prop_test.sol\":2378:2390  sender.voted */\n              0x01\n              add\n              0x00\n              swap1\n              sload\n              swap1\n              0x0100\n              exp\n              swap1\n              div\n              0xff\n              and\n                /* \"contracts/prop_test.sol\":2377:2390  !sender.voted */\n              iszero\n                /* \"contracts/prop_test.sol\":2369:2391  require(!sender.voted) */\n              tag_83\n              jumpi\n              0x00\n              dup1\n              revert\n            tag_83:\n                /* \"contracts/prop_test.sol\":2417:2421  true */\n              0x01\n                /* \"contracts/prop_test.sol\":2402:2408  sender */\n              dup2\n                /* \"contracts/prop_test.sol\":2402:2414  sender.voted */\n              0x01\n              add\n              0x00\n                /* \"contracts/prop_test.sol\":2402:2421  sender.voted = true */\n              0x0100\n              exp\n              dup2\n              sload\n              dup2\n              0xff\n              mul\n              not\n              and\n              swap1\n              dup4\n              iszero\n              iszero\n              mul\n              or\n              swap1\n              sstore\n              pop\n                /* \"contracts/prop_test.sol\":2446:2454  proposal */\n              dup2\n                /* \"contracts/prop_test.sol\":2432:2438  sender */\n              dup2\n                /* \"contracts/prop_test.sol\":2432:2443  sender.vote */\n              0x02\n              add\n                /* \"contracts/prop_test.sol\":2432:2454  sender.vote = proposal */\n              dup2\n              swap1\n              sstore\n              pop\n                /* \"contracts/prop_test.sol\":2638:2644  sender */\n              dup1\n                /* \"contracts/prop_test.sol\":2638:2651  sender.weight */\n              0x00\n              add\n              sload\n                /* \"contracts/prop_test.sol\":2605:2614  proposals */\n              0x06\n                /* \"contracts/prop_test.sol\":2615:2623  proposal */\n              dup4\n                /* \"contracts/prop_test.sol\":2605:2624  proposals[proposal] */\n              dup2\n              sload\n              dup2\n              lt\n              tag_84\n              jumpi\n              mstore(0x00, 0x4e487b7100000000000000000000000000000000000000000000000000000000)\n              mstore(0x04, 0x32)\n              revert(0x00, 0x24)\n            tag_84:\n              swap1\n              0x00\n              mstore\n              keccak256(0x00, 0x20)\n              swap1\n              0x02\n              mul\n              add\n                /* \"contracts/prop_test.sol\":2605:2634  proposals[proposal].voteCount */\n              0x01\n              add\n              0x00\n                /* \"contracts/prop_test.sol\":2605:2651  proposals[proposal].voteCount += sender.weight */\n              dup3\n              dup3\n              sload\n              tag_86\n              swap2\n              swap1\n              tag_87\n              jump\t// in\n            tag_86:\n              swap3\n              pop\n              pop\n              dup2\n              swap1\n              sstore\n              pop\n                /* \"contracts/prop_test.sol\":2270:2659  function vote(uint proposal) public {\r... */\n              pop\n              pop\n              jump\t// out\n                /* \"contracts/prop_test.sol\":871:898  Proposal[] public proposals */\n            tag_28:\n              0x06\n              dup2\n              dup2\n              sload\n              dup2\n              lt\n              tag_88\n              jumpi\n              0x00\n              dup1\n              revert\n            tag_88:\n              swap1\n              0x00\n              mstore\n              keccak256(0x00, 0x20)\n              swap1\n              0x02\n              mul\n              add\n              0x00\n              swap2\n              pop\n              swap1\n              pop\n              dup1\n              0x00\n              add\n              dup1\n              sload\n              tag_90\n              swap1\n              tag_91\n              jump\t// in\n            tag_90:\n              dup1\n              0x1f\n              add\n              0x20\n              dup1\n              swap2\n              div\n              mul\n              0x20\n              add\n              mload(0x40)\n              swap1\n              dup2\n              add\n              0x40\n              mstore\n              dup1\n              swap3\n              swap2\n              swap1\n              dup2\n              dup2\n              mstore\n              0x20\n              add\n              dup3\n              dup1\n              sload\n              tag_92\n              swap1\n              tag_91\n              jump\t// in\n            tag_92:\n              dup1\n              iszero\n              tag_93\n              jumpi\n              dup1\n              0x1f\n              lt\n              tag_94\n              jumpi\n              0x0100\n              dup1\n              dup4\n              sload\n              div\n              mul\n              dup4\n              mstore\n              swap2\n              0x20\n              add\n              swap2\n              jump(tag_93)\n            tag_94:\n              dup3\n              add\n              swap2\n              swap1\n              0x00\n              mstore\n              keccak256(0x00, 0x20)\n              swap1\n            tag_95:\n              dup2\n              sload\n              dup2\n              mstore\n              swap1\n              0x01\n              add\n              swap1\n              0x20\n              add\n              dup1\n              dup4\n              gt\n              tag_95\n              jumpi\n              dup3\n              swap1\n              sub\n              0x1f\n              and\n              dup3\n              add\n              swap2\n            tag_93:\n              pop\n              pop\n              pop\n              pop\n              pop\n              swap1\n              dup1\n              0x01\n              add\n              sload\n              swap1\n              pop\n              dup3\n              jump\t// out\n                /* \"contracts/prop_test.sol\":3869:3963  function getnumOfProposals() public view returns(uint){\r... */\n            tag_32:\n                /* \"contracts/prop_test.sol\":3918:3922  uint */\n              0x00\n                /* \"contracts/prop_test.sol\":3941:3955  numOfProposals */\n              sload(0x04)\n                /* \"contracts/prop_test.sol\":3934:3955  return numOfProposals */\n              swap1\n              pop\n                /* \"contracts/prop_test.sol\":3869:3963  function getnumOfProposals() public view returns(uint){\r... */\n              swap1\n              jump\t// out\n                /* \"contracts/prop_test.sol\":3749:3827  function getStatus() public view returns(uint){\r... */\n            tag_36:\n                /* \"contracts/prop_test.sol\":3790:3794  uint */\n              0x00\n                /* \"contracts/prop_test.sol\":3813:3819  status */\n              sload(0x01)\n                /* \"contracts/prop_test.sol\":3806:3819  return status */\n              swap1\n              pop\n                /* \"contracts/prop_test.sol\":3749:3827  function getStatus() public view returns(uint){\r... */\n              swap1\n              jump\t// out\n                /* \"contracts/prop_test.sol\":2667:3021  function winningProposal() public view returns (uint winningProposal){\r... */\n            tag_39:\n                /* \"contracts/prop_test.sol\":2715:2735  uint winningProposal */\n              0x00\n                /* \"contracts/prop_test.sol\":2747:2768  uint winningVoteCount */\n              dup1\n                /* \"contracts/prop_test.sol\":2771:2772  0 */\n              0x00\n                /* \"contracts/prop_test.sol\":2747:2772  uint winningVoteCount = 0 */\n              swap1\n              pop\n                /* \"contracts/prop_test.sol\":2788:2794  uint p */\n              0x00\n                /* \"contracts/prop_test.sol\":2783:3014  for (uint p = 0; p < proposals.length; p++) {\r... */\n            tag_99:\n                /* \"contracts/prop_test.sol\":2804:2813  proposals */\n              0x06\n                /* \"contracts/prop_test.sol\":2804:2820  proposals.length */\n              dup1\n              sload\n              swap1\n              pop\n                /* \"contracts/prop_test.sol\":2800:2801  p */\n              dup2\n                /* \"contracts/prop_test.sol\":2800:2820  p < proposals.length */\n              lt\n                /* \"contracts/prop_test.sol\":2783:3014  for (uint p = 0; p < proposals.length; p++) {\r... */\n              iszero\n              tag_100\n              jumpi\n                /* \"contracts/prop_test.sol\":2871:2887  winningVoteCount */\n              dup2\n                /* \"contracts/prop_test.sol\":2846:2855  proposals */\n              0x06\n                /* \"contracts/prop_test.sol\":2856:2857  p */\n              dup3\n                /* \"contracts/prop_test.sol\":2846:2858  proposals[p] */\n              dup2\n              sload\n              dup2\n              lt\n              tag_102\n              jumpi\n              mstore(0x00, 0x4e487b7100000000000000000000000000000000000000000000000000000000)\n              mstore(0x04, 0x32)\n              revert(0x00, 0x24)\n            tag_102:\n              swap1\n              0x00\n              mstore\n              keccak256(0x00, 0x20)\n              swap1\n              0x02\n              mul\n              add\n                /* \"contracts/prop_test.sol\":2846:2868  proposals[p].voteCount */\n              0x01\n              add\n              sload\n                /* \"contracts/prop_test.sol\":2846:2887  proposals[p].voteCount > winningVoteCount */\n              gt\n                /* \"contracts/prop_test.sol\":2842:3003  if (proposals[p].voteCount > winningVoteCount) {\r... */\n              iszero\n              tag_104\n              jumpi\n                /* \"contracts/prop_test.sol\":2927:2936  proposals */\n              0x06\n                /* \"contracts/prop_test.sol\":2937:2938  p */\n              dup2\n                /* \"contracts/prop_test.sol\":2927:2939  proposals[p] */\n              dup2\n              sload\n              dup2\n              lt\n              tag_105\n              jumpi\n              mstore(0x00, 0x4e487b7100000000000000000000000000000000000000000000000000000000)\n              mstore(0x04, 0x32)\n              revert(0x00, 0x24)\n            tag_105:\n              swap1\n              0x00\n              mstore\n              keccak256(0x00, 0x20)\n              swap1\n              0x02\n              mul\n              add\n                /* \"contracts/prop_test.sol\":2927:2949  proposals[p].voteCount */\n              0x01\n              add\n              sload\n                /* \"contracts/prop_test.sol\":2908:2949  winningVoteCount = proposals[p].voteCount */\n              swap2\n              pop\n                /* \"contracts/prop_test.sol\":2986:2987  p */\n              dup1\n                /* \"contracts/prop_test.sol\":2968:2987  winningProposal = p */\n              swap3\n              pop\n                /* \"contracts/prop_test.sol\":2842:3003  if (proposals[p].voteCount > winningVoteCount) {\r... */\n            tag_104:\n                /* \"contracts/prop_test.sol\":2822:2825  p++ */\n              dup1\n              dup1\n              tag_107\n              swap1\n              tag_108\n              jump\t// in\n            tag_107:\n              swap2\n              pop\n              pop\n                /* \"contracts/prop_test.sol\":2783:3014  for (uint p = 0; p < proposals.length; p++) {\r... */\n              jump(tag_99)\n            tag_100:\n              pop\n                /* \"contracts/prop_test.sol\":2667:3021  function winningProposal() public view returns (uint winningProposal){\r... */\n              pop\n              swap1\n              jump\t// out\n                /* \"contracts/prop_test.sol\":4172:4269  function getProposals() public view returns(Proposal[] memory){\r... */\n            tag_42:\n                /* \"contracts/prop_test.sol\":4216:4233  Proposal[] memory */\n              0x60\n                /* \"contracts/prop_test.sol\":4252:4261  proposals */\n              0x06\n                /* \"contracts/prop_test.sol\":4245:4261  return proposals */\n              dup1\n              sload\n              dup1\n              0x20\n              mul\n              0x20\n              add\n              mload(0x40)\n              swap1\n              dup2\n              add\n              0x40\n              mstore\n              dup1\n              swap3\n              swap2\n              swap1\n              dup2\n              dup2\n              mstore\n              0x20\n              add\n              0x00\n              swap1\n            tag_110:\n              dup3\n              dup3\n              lt\n              iszero\n              tag_111\n              jumpi\n              dup4\n              dup3\n              swap1\n              0x00\n              mstore\n              keccak256(0x00, 0x20)\n              swap1\n              0x02\n              mul\n              add\n              mload(0x40)\n              dup1\n              0x40\n              add\n              0x40\n              mstore\n              swap1\n              dup2\n              0x00\n              dup3\n              add\n              dup1\n              sload\n              tag_113\n              swap1\n              tag_91\n              jump\t// in\n            tag_113:\n              dup1\n              0x1f\n              add\n              0x20\n              dup1\n              swap2\n              div\n              mul\n              0x20\n              add\n              mload(0x40)\n              swap1\n              dup2\n              add\n              0x40\n              mstore\n              dup1\n              swap3\n              swap2\n              swap1\n              dup2\n              dup2\n              mstore\n              0x20\n              add\n              dup3\n              dup1\n              sload\n              tag_114\n              swap1\n              tag_91\n              jump\t// in\n            tag_114:\n              dup1\n              iszero\n              tag_115\n              jumpi\n              dup1\n              0x1f\n              lt\n              tag_116\n              jumpi\n              0x0100\n              dup1\n              dup4\n              sload\n              div\n              mul\n              dup4\n              mstore\n              swap2\n              0x20\n              add\n              swap2\n              jump(tag_115)\n            tag_116:\n              dup3\n              add\n              swap2\n              swap1\n              0x00\n              mstore\n              keccak256(0x00, 0x20)\n              swap1\n            tag_117:\n              dup2\n              sload\n              dup2\n              mstore\n              swap1\n              0x01\n              add\n              swap1\n              0x20\n              add\n              dup1\n              dup4\n              gt\n              tag_117\n              jumpi\n              dup3\n              swap1\n              sub\n              0x1f\n              and\n              dup3\n              add\n              swap2\n            tag_115:\n              pop\n              pop\n              pop\n              pop\n              pop\n              dup2\n              mstore\n              0x20\n              add\n              0x01\n              dup3\n              add\n              sload\n              dup2\n              mstore\n              pop\n              pop\n              dup2\n              mstore\n              0x20\n              add\n              swap1\n              0x01\n              add\n              swap1\n              jump(tag_110)\n            tag_111:\n              pop\n              pop\n              pop\n              pop\n              swap1\n              pop\n                /* \"contracts/prop_test.sol\":4172:4269  function getProposals() public view returns(Proposal[] memory){\r... */\n              swap1\n              jump\t// out\n                /* \"contracts/prop_test.sol\":3632:3706  function setStatus(uint _status) public{\r... */\n            tag_47:\n                /* \"contracts/prop_test.sol\":3691:3698  _status */\n              dup1\n                /* \"contracts/prop_test.sol\":3682:3688  status */\n              0x01\n                /* \"contracts/prop_test.sol\":3682:3698  status = _status */\n              dup2\n              swap1\n              sstore\n              pop\n                /* \"contracts/prop_test.sol\":3632:3706  function setStatus(uint _status) public{\r... */\n              pop\n              jump\t// out\n                /* \"contracts/prop_test.sol\":4434:4518  function getStartDate() public view returns(uint){\r... */\n            tag_49:\n                /* \"contracts/prop_test.sol\":4478:4482  uint */\n              0x00\n                /* \"contracts/prop_test.sol\":4501:4510  startDate */\n              sload(0x02)\n                /* \"contracts/prop_test.sol\":4494:4510  return startDate */\n              swap1\n              pop\n                /* \"contracts/prop_test.sol\":4434:4518  function getStartDate() public view returns(uint){\r... */\n              swap1\n              jump\t// out\n                /* \"contracts/prop_test.sol\":3500:3589  function getCreatorBallot() public view returns(address){\r... */\n            tag_52:\n                /* \"contracts/prop_test.sol\":3548:3555  address */\n              0x00\n                /* \"contracts/prop_test.sol\":3574:3581  creator */\n              dup1\n              0x00\n              swap1\n              sload\n              swap1\n              0x0100\n              exp\n              swap1\n              div\n              0xffffffffffffffffffffffffffffffffffffffff\n              and\n                /* \"contracts/prop_test.sol\":3567:3581  return creator */\n              swap1\n              pop\n                /* \"contracts/prop_test.sol\":3500:3589  function getCreatorBallot() public view returns(address){\r... */\n              swap1\n              jump\t// out\n                /* \"contracts/prop_test.sol\":907:1647  function createBallot(string[] memory proposalNames) public {\r... */\n            tag_58:\n                /* \"contracts/prop_test.sol\":988:998  msg.sender */\n              caller\n                /* \"contracts/prop_test.sol\":978:985  creator */\n              0x00\n              dup1\n                /* \"contracts/prop_test.sol\":978:998  creator = msg.sender */\n              0x0100\n              exp\n              dup2\n              sload\n              dup2\n              0xffffffffffffffffffffffffffffffffffffffff\n              mul\n              not\n              and\n              swap1\n              dup4\n              0xffffffffffffffffffffffffffffffffffffffff\n              and\n              mul\n              or\n              swap1\n              sstore\n              pop\n                /* \"contracts/prop_test.sol\":1034:1035  1 */\n              0x01\n                /* \"contracts/prop_test.sol\":1009:1015  voters */\n              0x05\n                /* \"contracts/prop_test.sol\":1009:1024  voters[creator] */\n              0x00\n                /* \"contracts/prop_test.sol\":1016:1023  creator */\n              dup1\n              0x00\n              swap1\n              sload\n              swap1\n              0x0100\n              exp\n              swap1\n              div\n              0xffffffffffffffffffffffffffffffffffffffff\n              and\n                /* \"contracts/prop_test.sol\":1009:1024  voters[creator] */\n              0xffffffffffffffffffffffffffffffffffffffff\n              and\n              0xffffffffffffffffffffffffffffffffffffffff\n              and\n              dup2\n              mstore\n              0x20\n              add\n              swap1\n              dup2\n              mstore\n              0x20\n              add\n              0x00\n              keccak256\n                /* \"contracts/prop_test.sol\":1009:1031  voters[creator].weight */\n              0x00\n              add\n                /* \"contracts/prop_test.sol\":1009:1035  voters[creator].weight = 1 */\n              dup2\n              swap1\n              sstore\n              pop\n                /* \"contracts/prop_test.sol\":1057:1058  0 */\n              0x00\n                /* \"contracts/prop_test.sol\":1048:1054  status */\n              0x01\n                /* \"contracts/prop_test.sol\":1048:1058  status = 0 */\n              dup2\n              swap1\n              sstore\n              pop\n                /* \"contracts/prop_test.sol\":1069:1083  setStartDate() */\n              tag_122\n                /* \"contracts/prop_test.sol\":1069:1081  setStartDate */\n              tag_123\n                /* \"contracts/prop_test.sol\":1069:1083  setStartDate() */\n              jump\t// in\n            tag_122:\n                /* \"contracts/prop_test.sol\":1111:1124  proposalNames */\n              dup1\n                /* \"contracts/prop_test.sol\":1111:1131  proposalNames.length */\n              mload\n                /* \"contracts/prop_test.sol\":1094:1108  numOfProposals */\n              0x04\n                /* \"contracts/prop_test.sol\":1094:1131  numOfProposals = proposalNames.length */\n              dup2\n              swap1\n              sstore\n              pop\n                /* \"contracts/prop_test.sol\":1291:1297  uint i */\n              0x00\n                /* \"contracts/prop_test.sol\":1286:1640  for (uint i = 0; i < proposalNames.length; i++) {\r... */\n            tag_124:\n                /* \"contracts/prop_test.sol\":1307:1320  proposalNames */\n              dup2\n                /* \"contracts/prop_test.sol\":1307:1327  proposalNames.length */\n              mload\n                /* \"contracts/prop_test.sol\":1303:1304  i */\n              dup2\n                /* \"contracts/prop_test.sol\":1303:1327  i < proposalNames.length */\n              lt\n                /* \"contracts/prop_test.sol\":1286:1640  for (uint i = 0; i < proposalNames.length; i++) {\r... */\n              iszero\n              tag_125\n              jumpi\n                /* \"contracts/prop_test.sol\":1515:1524  proposals */\n              0x06\n                /* \"contracts/prop_test.sol\":1530:1627  Proposal({\r... */\n              mload(0x40)\n              dup1\n              0x40\n              add\n              0x40\n              mstore\n              dup1\n                /* \"contracts/prop_test.sol\":1564:1577  proposalNames */\n              dup5\n                /* \"contracts/prop_test.sol\":1578:1579  i */\n              dup5\n                /* \"contracts/prop_test.sol\":1564:1580  proposalNames[i] */\n              dup2\n              mload\n              dup2\n              lt\n              tag_127\n              jumpi\n              mstore(0x00, 0x4e487b7100000000000000000000000000000000000000000000000000000000)\n              mstore(0x04, 0x32)\n              revert(0x00, 0x24)\n            tag_127:\n              0x20\n              mul\n              0x20\n              add\n              add\n              mload\n                /* \"contracts/prop_test.sol\":1530:1627  Proposal({\r... */\n              dup2\n              mstore\n              0x20\n              add\n                /* \"contracts/prop_test.sol\":1610:1611  0 */\n              0x00\n                /* \"contracts/prop_test.sol\":1530:1627  Proposal({\r... */\n              dup2\n              mstore\n              pop\n                /* \"contracts/prop_test.sol\":1515:1628  proposals.push(Proposal({\r... */\n              swap1\n              dup1\n              0x01\n              dup2\n              sload\n              add\n              dup1\n              dup3\n              sstore\n              dup1\n              swap2\n              pop\n              pop\n              0x01\n              swap1\n              sub\n              swap1\n              0x00\n              mstore\n              keccak256(0x00, 0x20)\n              swap1\n              0x02\n              mul\n              add\n              0x00\n              swap1\n              swap2\n              swap1\n              swap2\n              swap1\n              swap2\n              pop\n              0x00\n              dup3\n              add\n              mload\n              dup2\n              0x00\n              add\n              swap1\n              dup1\n              mload\n              swap1\n              0x20\n              add\n              swap1\n              tag_129\n              swap3\n              swap2\n              swap1\n              tag_130\n              jump\t// in\n            tag_129:\n              pop\n              0x20\n              dup3\n              add\n              mload\n              dup2\n              0x01\n              add\n              sstore\n              pop\n              pop\n                /* \"contracts/prop_test.sol\":1329:1332  i++ */\n              dup1\n              dup1\n              tag_131\n              swap1\n              tag_108\n              jump\t// in\n            tag_131:\n              swap2\n              pop\n              pop\n                /* \"contracts/prop_test.sol\":1286:1640  for (uint i = 0; i < proposalNames.length; i++) {\r... */\n              jump(tag_124)\n            tag_125:\n              pop\n                /* \"contracts/prop_test.sol\":907:1647  function createBallot(string[] memory proposalNames) public {\r... */\n              pop\n              jump\t// out\n                /* \"contracts/prop_test.sol\":4560:4632  function setEndDate() public{\r... */\n            tag_60:\n                /* \"contracts/prop_test.sol\":4609:4624  block.timestamp */\n              timestamp\n                /* \"contracts/prop_test.sol\":4599:4606  endDate */\n              0x03\n                /* \"contracts/prop_test.sol\":4599:4624  endDate = block.timestamp */\n              dup2\n              swap1\n              sstore\n              pop\n                /* \"contracts/prop_test.sol\":4560:4632  function setEndDate() public{\r... */\n              jump\t// out\n                /* \"contracts/prop_test.sol\":1655:2233  function giveRightToVote(address voter) public {\r... */\n            tag_64:\n                /* \"contracts/prop_test.sol\":2126:2133  creator */\n              0x00\n              dup1\n              sload\n              swap1\n              0x0100\n              exp\n              swap1\n              div\n              0xffffffffffffffffffffffffffffffffffffffff\n              and\n                /* \"contracts/prop_test.sol\":2112:2133  msg.sender == creator */\n              0xffffffffffffffffffffffffffffffffffffffff\n              and\n                /* \"contracts/prop_test.sol\":2112:2122  msg.sender */\n              caller\n                /* \"contracts/prop_test.sol\":2112:2133  msg.sender == creator */\n              0xffffffffffffffffffffffffffffffffffffffff\n              and\n              eq\n                /* \"contracts/prop_test.sol\":2111:2158  (msg.sender == creator) && !voters[voter].voted */\n              dup1\n              iszero\n              tag_134\n              jumpi\n              pop\n                /* \"contracts/prop_test.sol\":2139:2145  voters */\n              0x05\n                /* \"contracts/prop_test.sol\":2139:2152  voters[voter] */\n              0x00\n                /* \"contracts/prop_test.sol\":2146:2151  voter */\n              dup3\n                /* \"contracts/prop_test.sol\":2139:2152  voters[voter] */\n              0xffffffffffffffffffffffffffffffffffffffff\n              and\n              0xffffffffffffffffffffffffffffffffffffffff\n              and\n              dup2\n              mstore\n              0x20\n              add\n              swap1\n              dup2\n              mstore\n              0x20\n              add\n              0x00\n              keccak256\n                /* \"contracts/prop_test.sol\":2139:2158  voters[voter].voted */\n              0x01\n              add\n              0x00\n              swap1\n              sload\n              swap1\n              0x0100\n              exp\n              swap1\n              div\n              0xff\n              and\n                /* \"contracts/prop_test.sol\":2138:2158  !voters[voter].voted */\n              iszero\n                /* \"contracts/prop_test.sol\":2111:2158  (msg.sender == creator) && !voters[voter].voted */\n            tag_134:\n                /* \"contracts/prop_test.sol\":2111:2189  (msg.sender == creator) && !voters[voter].voted && (voters[voter].weight == 0) */\n              dup1\n              iszero\n              tag_135\n              jumpi\n              pop\n                /* \"contracts/prop_test.sol\":2187:2188  0 */\n              0x00\n                /* \"contracts/prop_test.sol\":2163:2169  voters */\n              0x05\n                /* \"contracts/prop_test.sol\":2163:2176  voters[voter] */\n              0x00\n                /* \"contracts/prop_test.sol\":2170:2175  voter */\n              dup4\n                /* \"contracts/prop_test.sol\":2163:2176  voters[voter] */\n              0xffffffffffffffffffffffffffffffffffffffff\n              and\n              0xffffffffffffffffffffffffffffffffffffffff\n              and\n              dup2\n              mstore\n              0x20\n              add\n              swap1\n              dup2\n              mstore\n              0x20\n              add\n              0x00\n              keccak256\n                /* \"contracts/prop_test.sol\":2163:2183  voters[voter].weight */\n              0x00\n              add\n              sload\n                /* \"contracts/prop_test.sol\":2163:2188  voters[voter].weight == 0 */\n              eq\n                /* \"contracts/prop_test.sol\":2111:2189  (msg.sender == creator) && !voters[voter].voted && (voters[voter].weight == 0) */\n            tag_135:\n                /* \"contracts/prop_test.sol\":2103:2190  require((msg.sender == creator) && !voters[voter].voted && (voters[voter].weight == 0)) */\n              tag_136\n              jumpi\n              0x00\n              dup1\n              revert\n            tag_136:\n                /* \"contracts/prop_test.sol\":2224:2225  1 */\n              0x01\n                /* \"contracts/prop_test.sol\":2201:2207  voters */\n              0x05\n                /* \"contracts/prop_test.sol\":2201:2214  voters[voter] */\n              0x00\n                /* \"contracts/prop_test.sol\":2208:2213  voter */\n              dup4\n                /* \"contracts/prop_test.sol\":2201:2214  voters[voter] */\n              0xffffffffffffffffffffffffffffffffffffffff\n              and\n              0xffffffffffffffffffffffffffffffffffffffff\n              and\n              dup2\n              mstore\n              0x20\n              add\n              swap1\n              dup2\n              mstore\n              0x20\n              add\n              0x00\n              keccak256\n                /* \"contracts/prop_test.sol\":2201:2221  voters[voter].weight */\n              0x00\n              add\n                /* \"contracts/prop_test.sol\":2201:2225  voters[voter].weight = 1 */\n              dup2\n              swap1\n              sstore\n              pop\n                /* \"contracts/prop_test.sol\":1655:2233  function giveRightToVote(address voter) public {\r... */\n              pop\n              jump\t// out\n                /* \"contracts/prop_test.sol\":766:805  mapping(address => Voter) public voters */\n            tag_67:\n              mstore(0x20, 0x05)\n              dup1\n              0x00\n              mstore\n              keccak256(0x00, 0x40)\n              0x00\n              swap2\n              pop\n              swap1\n              pop\n              dup1\n              0x00\n              add\n              sload\n              swap1\n              dup1\n              0x01\n              add\n              0x00\n              swap1\n              sload\n              swap1\n              0x0100\n              exp\n              swap1\n              div\n              0xff\n              and\n              swap1\n              dup1\n              0x01\n              add\n              0x01\n              swap1\n              sload\n              swap1\n              0x0100\n              exp\n              swap1\n              div\n              0xffffffffffffffffffffffffffffffffffffffff\n              and\n              swap1\n              dup1\n              0x02\n              add\n              sload\n              swap1\n              pop\n              dup5\n              jump\t// out\n                /* \"contracts/prop_test.sol\":4672:4752  function getEndDate() public view returns(uint){\r... */\n            tag_71:\n                /* \"contracts/prop_test.sol\":4714:4718  uint */\n              0x00\n                /* \"contracts/prop_test.sol\":4737:4744  endDate */\n              sload(0x03)\n                /* \"contracts/prop_test.sol\":4730:4744  return endDate */\n              swap1\n              pop\n                /* \"contracts/prop_test.sol\":4672:4752  function getEndDate() public view returns(uint){\r... */\n              swap1\n              jump\t// out\n                /* \"contracts/prop_test.sol\":3190:3328  function winnerName() public view returns(string memory winnerName)\r... */\n            tag_74:\n                /* \"contracts/prop_test.sol\":3232:3256  string memory winnerName */\n              0x60\n                /* \"contracts/prop_test.sol\":3287:3296  proposals */\n              0x06\n                /* \"contracts/prop_test.sol\":3297:3314  winningProposal() */\n              tag_139\n                /* \"contracts/prop_test.sol\":3297:3312  winningProposal */\n              tag_39\n                /* \"contracts/prop_test.sol\":3297:3314  winningProposal() */\n              jump\t// in\n            tag_139:\n                /* \"contracts/prop_test.sol\":3287:3315  proposals[winningProposal()] */\n              dup2\n              sload\n              dup2\n              lt\n              tag_140\n              jumpi\n              mstore(0x00, 0x4e487b7100000000000000000000000000000000000000000000000000000000)\n              mstore(0x04, 0x32)\n              revert(0x00, 0x24)\n            tag_140:\n              swap1\n              0x00\n              mstore\n              keccak256(0x00, 0x20)\n              swap1\n              0x02\n              mul\n              add\n                /* \"contracts/prop_test.sol\":3287:3320  proposals[winningProposal()].name */\n              0x00\n              add\n                /* \"contracts/prop_test.sol\":3274:3320  winnerName = proposals[winningProposal()].name */\n              dup1\n              sload\n              tag_142\n              swap1\n              tag_91\n              jump\t// in\n            tag_142:\n              dup1\n              0x1f\n              add\n              0x20\n              dup1\n              swap2\n              div\n              mul\n              0x20\n              add\n              mload(0x40)\n              swap1\n              dup2\n              add\n              0x40\n              mstore\n              dup1\n              swap3\n              swap2\n              swap1\n              dup2\n              dup2\n              mstore\n              0x20\n              add\n              dup3\n              dup1\n              sload\n              tag_143\n              swap1\n              tag_91\n              jump\t// in\n            tag_143:\n              dup1\n              iszero\n              tag_144\n              jumpi\n              dup1\n              0x1f\n              lt\n              tag_145\n              jumpi\n              0x0100\n              dup1\n              dup4\n              sload\n              div\n              mul\n              dup4\n              mstore\n              swap2\n              0x20\n              add\n              swap2\n              jump(tag_144)\n            tag_145:\n              dup3\n              add\n              swap2\n              swap1\n              0x00\n              mstore\n              keccak256(0x00, 0x20)\n              swap1\n            tag_146:\n              dup2\n              sload\n              dup2\n              mstore\n              swap1\n              0x01\n              add\n              swap1\n              0x20\n              add\n              dup1\n              dup4\n              gt\n              tag_146\n              jumpi\n              dup3\n              swap1\n              sub\n              0x1f\n              and\n              dup3\n              add\n              swap2\n            tag_144:\n              pop\n              pop\n              pop\n              pop\n              pop\n              swap1\n              pop\n                /* \"contracts/prop_test.sol\":3190:3328  function winnerName() public view returns(string memory winnerName)\r... */\n              swap1\n              jump\t// out\n                /* \"contracts/prop_test.sol\":4005:4137  function getProposalStructure(uint _proposalId) public view returns(Proposal memory){\r... */\n            tag_79:\n                /* \"contracts/prop_test.sol\":4073:4088  Proposal memory */\n              tag_147\n              tag_148\n              jump\t// in\n            tag_147:\n                /* \"contracts/prop_test.sol\":4107:4116  proposals */\n              0x06\n                /* \"contracts/prop_test.sol\":4117:4128  _proposalId */\n              dup3\n                /* \"contracts/prop_test.sol\":4107:4129  proposals[_proposalId] */\n              dup2\n              sload\n              dup2\n              lt\n              tag_150\n              jumpi\n              mstore(0x00, 0x4e487b7100000000000000000000000000000000000000000000000000000000)\n              mstore(0x04, 0x32)\n              revert(0x00, 0x24)\n            tag_150:\n              swap1\n              0x00\n              mstore\n              keccak256(0x00, 0x20)\n              swap1\n              0x02\n              mul\n              add\n                /* \"contracts/prop_test.sol\":4100:4129  return proposals[_proposalId] */\n              mload(0x40)\n              dup1\n              0x40\n              add\n              0x40\n              mstore\n              swap1\n              dup2\n              0x00\n              dup3\n              add\n              dup1\n              sload\n              tag_152\n              swap1\n              tag_91\n              jump\t// in\n            tag_152:\n              dup1\n              0x1f\n              add\n              0x20\n              dup1\n              swap2\n              div\n              mul\n              0x20\n              add\n              mload(0x40)\n              swap1\n              dup2\n              add\n              0x40\n              mstore\n              dup1\n              swap3\n              swap2\n              swap1\n              dup2\n              dup2\n              mstore\n              0x20\n              add\n              dup3\n              dup1\n              sload\n              tag_153\n              swap1\n              tag_91\n              jump\t// in\n            tag_153:\n              dup1\n              iszero\n              tag_154\n              jumpi\n              dup1\n              0x1f\n              lt\n              tag_155\n              jumpi\n              0x0100\n              dup1\n              dup4\n              sload\n              div\n              mul\n              dup4\n              mstore\n              swap2\n              0x20\n              add\n              swap2\n              jump(tag_154)\n            tag_155:\n              dup3\n              add\n              swap2\n              swap1\n              0x00\n              mstore\n              keccak256(0x00, 0x20)\n              swap1\n            tag_156:\n              dup2\n              sload\n              dup2\n              mstore\n              swap1\n              0x01\n              add\n              swap1\n              0x20\n              add\n              dup1\n              dup4\n              gt\n              tag_156\n              jumpi\n              dup3\n              swap1\n              sub\n              0x1f\n              and\n              dup3\n              add\n              swap2\n            tag_154:\n              pop\n              pop\n              pop\n              pop\n              pop\n              dup2\n              mstore\n              0x20\n              add\n              0x01\n              dup3\n              add\n              sload\n              dup2\n              mstore\n              pop\n              pop\n              swap1\n              pop\n                /* \"contracts/prop_test.sol\":4005:4137  function getProposalStructure(uint _proposalId) public view returns(Proposal memory){\r... */\n              swap2\n              swap1\n              pop\n              jump\t// out\n                /* \"contracts/prop_test.sol\":4313:4392  function setStartDate() internal {\r... */\n            tag_123:\n                /* \"contracts/prop_test.sol\":4369:4384  block.timestamp */\n              timestamp\n                /* \"contracts/prop_test.sol\":4357:4366  startDate */\n              0x02\n                /* \"contracts/prop_test.sol\":4357:4384  startDate = block.timestamp */\n              dup2\n              swap1\n              sstore\n              pop\n                /* \"contracts/prop_test.sol\":4313:4392  function setStartDate() internal {\r... */\n              jump\t// out\n            tag_130:\n              dup3\n              dup1\n              sload\n              tag_158\n              swap1\n              tag_91\n              jump\t// in\n            tag_158:\n              swap1\n              0x00\n              mstore\n              keccak256(0x00, 0x20)\n              swap1\n              0x1f\n              add\n              0x20\n              swap1\n              div\n              dup2\n              add\n              swap3\n              dup3\n              tag_160\n              jumpi\n              0x00\n              dup6\n              sstore\n              jump(tag_159)\n            tag_160:\n              dup3\n              0x1f\n              lt\n              tag_161\n              jumpi\n              dup1\n              mload\n              not(0xff)\n              and\n              dup4\n              dup1\n              add\n              or\n              dup6\n              sstore\n              jump(tag_159)\n            tag_161:\n              dup3\n              dup1\n              add\n              0x01\n              add\n              dup6\n              sstore\n              dup3\n              iszero\n              tag_159\n              jumpi\n              swap2\n              dup3\n              add\n            tag_162:\n              dup3\n              dup2\n              gt\n              iszero\n              tag_163\n              jumpi\n              dup3\n              mload\n              dup3\n              sstore\n              swap2\n              0x20\n              add\n              swap2\n              swap1\n              0x01\n              add\n              swap1\n              jump(tag_162)\n            tag_163:\n            tag_159:\n              pop\n              swap1\n              pop\n              tag_164\n              swap2\n              swap1\n              tag_165\n              jump\t// in\n            tag_164:\n              pop\n              swap1\n              jump\t// out\n            tag_148:\n              mload(0x40)\n              dup1\n              0x40\n              add\n              0x40\n              mstore\n              dup1\n              0x60\n              dup2\n              mstore\n              0x20\n              add\n              0x00\n              dup2\n              mstore\n              pop\n              swap1\n              jump\t// out\n            tag_165:\n            tag_166:\n              dup1\n              dup3\n              gt\n              iszero\n              tag_167\n              jumpi\n              0x00\n              dup2\n              0x00\n              swap1\n              sstore\n              pop\n              0x01\n              add\n              jump(tag_166)\n            tag_167:\n              pop\n              swap1\n              jump\t// out\n                /* \"#utility.yul\":23:638   */\n            tag_169:\n              0x00\n                /* \"#utility.yul\":154:244   */\n              tag_171\n                /* \"#utility.yul\":169:243   */\n              tag_172\n                /* \"#utility.yul\":236:242   */\n              dup5\n                /* \"#utility.yul\":169:243   */\n              tag_173\n              jump\t// in\n            tag_172:\n                /* \"#utility.yul\":154:244   */\n              tag_174\n              jump\t// in\n            tag_171:\n                /* \"#utility.yul\":145:244   */\n              swap1\n              pop\n                /* \"#utility.yul\":264:269   */\n              dup1\n                /* \"#utility.yul\":292:298   */\n              dup4\n                /* \"#utility.yul\":285:290   */\n              dup3\n                /* \"#utility.yul\":278:299   */\n              mstore\n                /* \"#utility.yul\":318:322   */\n              0x20\n                /* \"#utility.yul\":311:316   */\n              dup3\n                /* \"#utility.yul\":307:323   */\n              add\n                /* \"#utility.yul\":300:323   */\n              swap1\n              pop\n                /* \"#utility.yul\":343:349   */\n              dup3\n                /* \"#utility.yul\":374:375   */\n              0x00\n                /* \"#utility.yul\":359:632   */\n            tag_175:\n                /* \"#utility.yul\":384:390   */\n              dup6\n                /* \"#utility.yul\":381:382   */\n              dup2\n                /* \"#utility.yul\":378:391   */\n              lt\n                /* \"#utility.yul\":359:632   */\n              iszero\n              tag_177\n              jumpi\n                /* \"#utility.yul\":476:479   */\n              dup2\n                /* \"#utility.yul\":463:480   */\n              calldataload\n                /* \"#utility.yul\":455:461   */\n              dup6\n                /* \"#utility.yul\":451:481   */\n              add\n                /* \"#utility.yul\":506:553   */\n              tag_178\n                /* \"#utility.yul\":549:552   */\n              dup9\n                /* \"#utility.yul\":537:547   */\n              dup3\n                /* \"#utility.yul\":506:553   */\n              tag_179\n              jump\t// in\n            tag_178:\n                /* \"#utility.yul\":501:504   */\n              dup5\n                /* \"#utility.yul\":494:554   */\n              mstore\n                /* \"#utility.yul\":583:587   */\n              0x20\n                /* \"#utility.yul\":578:581   */\n              dup5\n                /* \"#utility.yul\":574:588   */\n              add\n                /* \"#utility.yul\":567:588   */\n              swap4\n              pop\n                /* \"#utility.yul\":617:621   */\n              0x20\n                /* \"#utility.yul\":612:615   */\n              dup4\n                /* \"#utility.yul\":608:622   */\n              add\n                /* \"#utility.yul\":601:622   */\n              swap3\n              pop\n                /* \"#utility.yul\":419:632   */\n              pop\n                /* \"#utility.yul\":406:407   */\n              0x01\n                /* \"#utility.yul\":403:404   */\n              dup2\n                /* \"#utility.yul\":399:408   */\n              add\n                /* \"#utility.yul\":394:408   */\n              swap1\n              pop\n                /* \"#utility.yul\":359:632   */\n              jump(tag_175)\n            tag_177:\n                /* \"#utility.yul\":363:377   */\n              pop\n                /* \"#utility.yul\":135:638   */\n              pop\n              pop\n              swap4\n              swap3\n              pop\n              pop\n              pop\n              jump\t// out\n                /* \"#utility.yul\":644:988   */\n            tag_180:\n              0x00\n                /* \"#utility.yul\":747:812   */\n              tag_182\n                /* \"#utility.yul\":762:811   */\n              tag_183\n                /* \"#utility.yul\":804:810   */\n              dup5\n                /* \"#utility.yul\":762:811   */\n              tag_184\n              jump\t// in\n            tag_183:\n                /* \"#utility.yul\":747:812   */\n              tag_174\n              jump\t// in\n            tag_182:\n                /* \"#utility.yul\":738:812   */\n              swap1\n              pop\n                /* \"#utility.yul\":835:841   */\n              dup3\n                /* \"#utility.yul\":828:833   */\n              dup2\n                /* \"#utility.yul\":821:842   */\n              mstore\n                /* \"#utility.yul\":873:877   */\n              0x20\n                /* \"#utility.yul\":866:871   */\n              dup2\n                /* \"#utility.yul\":862:878   */\n              add\n                /* \"#utility.yul\":911:914   */\n              dup5\n                /* \"#utility.yul\":902:908   */\n              dup5\n                /* \"#utility.yul\":897:900   */\n              dup5\n                /* \"#utility.yul\":893:909   */\n              add\n                /* \"#utility.yul\":890:915   */\n              gt\n                /* \"#utility.yul\":887:889   */\n              iszero\n              tag_185\n              jumpi\n                /* \"#utility.yul\":928:929   */\n              0x00\n                /* \"#utility.yul\":925:926   */\n              dup1\n                /* \"#utility.yul\":918:930   */\n              revert\n                /* \"#utility.yul\":887:889   */\n            tag_185:\n                /* \"#utility.yul\":941:982   */\n              tag_186\n                /* \"#utility.yul\":975:981   */\n              dup5\n                /* \"#utility.yul\":970:973   */\n              dup3\n                /* \"#utility.yul\":965:968   */\n              dup6\n                /* \"#utility.yul\":941:982   */\n              tag_187\n              jump\t// in\n            tag_186:\n                /* \"#utility.yul\":728:988   */\n              pop\n              swap4\n              swap3\n              pop\n              pop\n              pop\n              jump\t// out\n                /* \"#utility.yul\":994:1133   */\n            tag_188:\n              0x00\n                /* \"#utility.yul\":1078:1084   */\n              dup2\n                /* \"#utility.yul\":1065:1085   */\n              calldataload\n                /* \"#utility.yul\":1056:1085   */\n              swap1\n              pop\n                /* \"#utility.yul\":1094:1127   */\n              tag_190\n                /* \"#utility.yul\":1121:1126   */\n              dup2\n                /* \"#utility.yul\":1094:1127   */\n              tag_191\n              jump\t// in\n            tag_190:\n                /* \"#utility.yul\":1046:1133   */\n              swap3\n              swap2\n              pop\n              pop\n              jump\t// out\n                /* \"#utility.yul\":1155:1478   */\n            tag_192:\n              0x00\n                /* \"#utility.yul\":1285:1288   */\n              dup3\n                /* \"#utility.yul\":1278:1282   */\n              0x1f\n                /* \"#utility.yul\":1270:1276   */\n              dup4\n                /* \"#utility.yul\":1266:1283   */\n              add\n                /* \"#utility.yul\":1262:1289   */\n              slt\n                /* \"#utility.yul\":1252:1254   */\n              tag_194\n              jumpi\n                /* \"#utility.yul\":1303:1304   */\n              0x00\n                /* \"#utility.yul\":1300:1301   */\n              dup1\n                /* \"#utility.yul\":1293:1305   */\n              revert\n                /* \"#utility.yul\":1252:1254   */\n            tag_194:\n                /* \"#utility.yul\":1343:1349   */\n              dup2\n                /* \"#utility.yul\":1330:1350   */\n              calldataload\n                /* \"#utility.yul\":1368:1472   */\n              tag_195\n                /* \"#utility.yul\":1468:1471   */\n              dup5\n                /* \"#utility.yul\":1460:1466   */\n              dup3\n                /* \"#utility.yul\":1453:1457   */\n              0x20\n                /* \"#utility.yul\":1445:1451   */\n              dup7\n                /* \"#utility.yul\":1441:1458   */\n              add\n                /* \"#utility.yul\":1368:1472   */\n              tag_169\n              jump\t// in\n            tag_195:\n                /* \"#utility.yul\":1359:1472   */\n              swap2\n              pop\n                /* \"#utility.yul\":1242:1478   */\n              pop\n              swap3\n              swap2\n              pop\n              pop\n              jump\t// out\n                /* \"#utility.yul\":1498:1771   */\n            tag_179:\n              0x00\n                /* \"#utility.yul\":1603:1606   */\n              dup3\n                /* \"#utility.yul\":1596:1600   */\n              0x1f\n                /* \"#utility.yul\":1588:1594   */\n              dup4\n                /* \"#utility.yul\":1584:1601   */\n              add\n                /* \"#utility.yul\":1580:1607   */\n              slt\n                /* \"#utility.yul\":1570:1572   */\n              tag_197\n              jumpi\n                /* \"#utility.yul\":1621:1622   */\n              0x00\n                /* \"#utility.yul\":1618:1619   */\n              dup1\n                /* \"#utility.yul\":1611:1623   */\n              revert\n                /* \"#utility.yul\":1570:1572   */\n            tag_197:\n                /* \"#utility.yul\":1661:1667   */\n              dup2\n                /* \"#utility.yul\":1648:1668   */\n              calldataload\n                /* \"#utility.yul\":1686:1765   */\n              tag_198\n                /* \"#utility.yul\":1761:1764   */\n              dup5\n                /* \"#utility.yul\":1753:1759   */\n              dup3\n                /* \"#utility.yul\":1746:1750   */\n              0x20\n                /* \"#utility.yul\":1738:1744   */\n              dup7\n                /* \"#utility.yul\":1734:1751   */\n              add\n                /* \"#utility.yul\":1686:1765   */\n              tag_180\n              jump\t// in\n            tag_198:\n                /* \"#utility.yul\":1677:1765   */\n              swap2\n              pop\n                /* \"#utility.yul\":1560:1771   */\n              pop\n              swap3\n              swap2\n              pop\n              pop\n              jump\t// out\n                /* \"#utility.yul\":1777:1916   */\n            tag_199:\n              0x00\n                /* \"#utility.yul\":1861:1867   */\n              dup2\n                /* \"#utility.yul\":1848:1868   */\n              calldataload\n                /* \"#utility.yul\":1839:1868   */\n              swap1\n              pop\n                /* \"#utility.yul\":1877:1910   */\n              tag_201\n                /* \"#utility.yul\":1904:1909   */\n              dup2\n                /* \"#utility.yul\":1877:1910   */\n              tag_202\n              jump\t// in\n            tag_201:\n                /* \"#utility.yul\":1829:1916   */\n              swap3\n              swap2\n              pop\n              pop\n              jump\t// out\n                /* \"#utility.yul\":1922:2184   */\n            tag_63:\n              0x00\n                /* \"#utility.yul\":2030:2032   */\n              0x20\n                /* \"#utility.yul\":2018:2027   */\n              dup3\n                /* \"#utility.yul\":2009:2016   */\n              dup5\n                /* \"#utility.yul\":2005:2028   */\n              sub\n                /* \"#utility.yul\":2001:2033   */\n              slt\n                /* \"#utility.yul\":1998:2000   */\n              iszero\n              tag_204\n              jumpi\n                /* \"#utility.yul\":2046:2047   */\n              0x00\n                /* \"#utility.yul\":2043:2044   */\n              dup1\n                /* \"#utility.yul\":2036:2048   */\n              revert\n                /* \"#utility.yul\":1998:2000   */\n            tag_204:\n                /* \"#utility.yul\":2089:2090   */\n              0x00\n                /* \"#utility.yul\":2114:2167   */\n              tag_205\n                /* \"#utility.yul\":2159:2166   */\n              dup5\n                /* \"#utility.yul\":2150:2156   */\n              dup3\n                /* \"#utility.yul\":2139:2148   */\n              dup6\n                /* \"#utility.yul\":2135:2157   */\n              add\n                /* \"#utility.yul\":2114:2167   */\n              tag_188\n              jump\t// in\n            tag_205:\n                /* \"#utility.yul\":2104:2167   */\n              swap2\n              pop\n                /* \"#utility.yul\":2060:2177   */\n              pop\n                /* \"#utility.yul\":1988:2184   */\n              swap3\n              swap2\n              pop\n              pop\n              jump\t// out\n                /* \"#utility.yul\":2190:2615   */\n            tag_57:\n              0x00\n                /* \"#utility.yul\":2333:2335   */\n              0x20\n                /* \"#utility.yul\":2321:2330   */\n              dup3\n                /* \"#utility.yul\":2312:2319   */\n              dup5\n                /* \"#utility.yul\":2308:2331   */\n              sub\n                /* \"#utility.yul\":2304:2336   */\n              slt\n                /* \"#utility.yul\":2301:2303   */\n              iszero\n              tag_207\n              jumpi\n                /* \"#utility.yul\":2349:2350   */\n              0x00\n                /* \"#utility.yul\":2346:2347   */\n              dup1\n                /* \"#utility.yul\":2339:2351   */\n              revert\n                /* \"#utility.yul\":2301:2303   */\n            tag_207:\n                /* \"#utility.yul\":2420:2421   */\n              0x00\n                /* \"#utility.yul\":2409:2418   */\n              dup3\n                /* \"#utility.yul\":2405:2422   */\n              add\n                /* \"#utility.yul\":2392:2423   */\n              calldataload\n                /* \"#utility.yul\":2450:2468   */\n              0xffffffffffffffff\n                /* \"#utility.yul\":2442:2448   */\n              dup2\n                /* \"#utility.yul\":2439:2469   */\n              gt\n                /* \"#utility.yul\":2436:2438   */\n              iszero\n              tag_208\n              jumpi\n                /* \"#utility.yul\":2482:2483   */\n              0x00\n                /* \"#utility.yul\":2479:2480   */\n              dup1\n                /* \"#utility.yul\":2472:2484   */\n              revert\n                /* \"#utility.yul\":2436:2438   */\n            tag_208:\n                /* \"#utility.yul\":2510:2598   */\n              tag_209\n                /* \"#utility.yul\":2590:2597   */\n              dup5\n                /* \"#utility.yul\":2581:2587   */\n              dup3\n                /* \"#utility.yul\":2570:2579   */\n              dup6\n                /* \"#utility.yul\":2566:2588   */\n              add\n                /* \"#utility.yul\":2510:2598   */\n              tag_192\n              jump\t// in\n            tag_209:\n                /* \"#utility.yul\":2500:2598   */\n              swap2\n              pop\n                /* \"#utility.yul\":2363:2608   */\n              pop\n                /* \"#utility.yul\":2291:2615   */\n              swap3\n              swap2\n              pop\n              pop\n              jump\t// out\n                /* \"#utility.yul\":2621:2883   */\n            tag_24:\n              0x00\n                /* \"#utility.yul\":2729:2731   */\n              0x20\n                /* \"#utility.yul\":2717:2726   */\n              dup3\n                /* \"#utility.yul\":2708:2715   */\n              dup5\n                /* \"#utility.yul\":2704:2727   */\n              sub\n                /* \"#utility.yul\":2700:2732   */\n              slt\n                /* \"#utility.yul\":2697:2699   */\n              iszero\n              tag_211\n              jumpi\n                /* \"#utility.yul\":2745:2746   */\n              0x00\n                /* \"#utility.yul\":2742:2743   */\n              dup1\n                /* \"#utility.yul\":2735:2747   */\n              revert\n                /* \"#utility.yul\":2697:2699   */\n            tag_211:\n                /* \"#utility.yul\":2788:2789   */\n              0x00\n                /* \"#utility.yul\":2813:2866   */\n              tag_212\n                /* \"#utility.yul\":2858:2865   */\n              dup5\n                /* \"#utility.yul\":2849:2855   */\n              dup3\n                /* \"#utility.yul\":2838:2847   */\n              dup6\n                /* \"#utility.yul\":2834:2856   */\n              add\n                /* \"#utility.yul\":2813:2866   */\n              tag_199\n              jump\t// in\n            tag_212:\n                /* \"#utility.yul\":2803:2866   */\n              swap2\n              pop\n                /* \"#utility.yul\":2759:2876   */\n              pop\n                /* \"#utility.yul\":2687:2883   */\n              swap3\n              swap2\n              pop\n              pop\n              jump\t// out\n                /* \"#utility.yul\":2889:3141   */\n            tag_213:\n              0x00\n                /* \"#utility.yul\":3041:3135   */\n              tag_215\n                /* \"#utility.yul\":3131:3134   */\n              dup4\n                /* \"#utility.yul\":3123:3129   */\n              dup4\n                /* \"#utility.yul\":3041:3135   */\n              tag_216\n              jump\t// in\n            tag_215:\n                /* \"#utility.yul\":3027:3135   */\n              swap1\n              pop\n                /* \"#utility.yul\":3017:3141   */\n              swap3\n              swap2\n              pop\n              pop\n              jump\t// out\n                /* \"#utility.yul\":3147:3265   */\n            tag_217:\n                /* \"#utility.yul\":3234:3258   */\n              tag_219\n                /* \"#utility.yul\":3252:3257   */\n              dup2\n                /* \"#utility.yul\":3234:3258   */\n              tag_220\n              jump\t// in\n            tag_219:\n                /* \"#utility.yul\":3229:3232   */\n              dup3\n                /* \"#utility.yul\":3222:3259   */\n              mstore\n                /* \"#utility.yul\":3212:3265   */\n              pop\n              pop\n              jump\t// out\n                /* \"#utility.yul\":3331:4434   */\n            tag_221:\n              0x00\n                /* \"#utility.yul\":3527:3605   */\n              tag_223\n                /* \"#utility.yul\":3599:3604   */\n              dup3\n                /* \"#utility.yul\":3527:3605   */\n              tag_224\n              jump\t// in\n            tag_223:\n                /* \"#utility.yul\":3621:3731   */\n              tag_225\n                /* \"#utility.yul\":3724:3730   */\n              dup2\n                /* \"#utility.yul\":3719:3722   */\n              dup6\n                /* \"#utility.yul\":3621:3731   */\n              tag_226\n              jump\t// in\n            tag_225:\n                /* \"#utility.yul\":3614:3731   */\n              swap4\n              pop\n                /* \"#utility.yul\":3757:3760   */\n              dup4\n                /* \"#utility.yul\":3802:3806   */\n              0x20\n                /* \"#utility.yul\":3794:3800   */\n              dup3\n                /* \"#utility.yul\":3790:3807   */\n              mul\n                /* \"#utility.yul\":3785:3788   */\n              dup6\n                /* \"#utility.yul\":3781:3808   */\n              add\n                /* \"#utility.yul\":3832:3912   */\n              tag_227\n                /* \"#utility.yul\":3906:3911   */\n              dup6\n                /* \"#utility.yul\":3832:3912   */\n              tag_228\n              jump\t// in\n            tag_227:\n                /* \"#utility.yul\":3935:3942   */\n              dup1\n                /* \"#utility.yul\":3966:3967   */\n              0x00\n                /* \"#utility.yul\":3951:4389   */\n            tag_229:\n                /* \"#utility.yul\":3976:3982   */\n              dup6\n                /* \"#utility.yul\":3973:3974   */\n              dup2\n                /* \"#utility.yul\":3970:3983   */\n              lt\n                /* \"#utility.yul\":3951:4389   */\n              iszero\n              tag_231\n              jumpi\n                /* \"#utility.yul\":4047:4056   */\n              dup5\n                /* \"#utility.yul\":4041:4045   */\n              dup5\n                /* \"#utility.yul\":4037:4057   */\n              sub\n                /* \"#utility.yul\":4032:4035   */\n              dup10\n                /* \"#utility.yul\":4025:4058   */\n              mstore\n                /* \"#utility.yul\":4098:4104   */\n              dup2\n                /* \"#utility.yul\":4092:4105   */\n              mload\n                /* \"#utility.yul\":4126:4238   */\n              tag_232\n                /* \"#utility.yul\":4233:4237   */\n              dup6\n                /* \"#utility.yul\":4218:4231   */\n              dup3\n                /* \"#utility.yul\":4126:4238   */\n              tag_213\n              jump\t// in\n            tag_232:\n                /* \"#utility.yul\":4118:4238   */\n              swap5\n              pop\n                /* \"#utility.yul\":4261:4345   */\n              tag_233\n                /* \"#utility.yul\":4338:4344   */\n              dup4\n                /* \"#utility.yul\":4261:4345   */\n              tag_234\n              jump\t// in\n            tag_233:\n                /* \"#utility.yul\":4251:4345   */\n              swap3\n              pop\n                /* \"#utility.yul\":4374:4378   */\n              0x20\n                /* \"#utility.yul\":4369:4372   */\n              dup11\n                /* \"#utility.yul\":4365:4379   */\n              add\n                /* \"#utility.yul\":4358:4379   */\n              swap10\n              pop\n                /* \"#utility.yul\":4011:4389   */\n              pop\n                /* \"#utility.yul\":3998:3999   */\n              0x01\n                /* \"#utility.yul\":3995:3996   */\n              dup2\n                /* \"#utility.yul\":3991:4000   */\n              add\n                /* \"#utility.yul\":3986:4000   */\n              swap1\n              pop\n                /* \"#utility.yul\":3951:4389   */\n              jump(tag_229)\n            tag_231:\n                /* \"#utility.yul\":3955:3969   */\n              pop\n                /* \"#utility.yul\":4405:4409   */\n              dup3\n                /* \"#utility.yul\":4398:4409   */\n              swap8\n              pop\n                /* \"#utility.yul\":4425:4428   */\n              dup8\n                /* \"#utility.yul\":4418:4428   */\n              swap6\n              pop\n                /* \"#utility.yul\":3503:4434   */\n              pop\n              pop\n              pop\n              pop\n              pop\n              swap3\n              swap2\n              pop\n              pop\n              jump\t// out\n                /* \"#utility.yul\":4440:4549   */\n            tag_235:\n                /* \"#utility.yul\":4521:4542   */\n              tag_237\n                /* \"#utility.yul\":4536:4541   */\n              dup2\n                /* \"#utility.yul\":4521:4542   */\n              tag_238\n              jump\t// in\n            tag_237:\n                /* \"#utility.yul\":4516:4519   */\n              dup3\n                /* \"#utility.yul\":4509:4543   */\n              mstore\n                /* \"#utility.yul\":4499:4549   */\n              pop\n              pop\n              jump\t// out\n                /* \"#utility.yul\":4555:4899   */\n            tag_239:\n              0x00\n                /* \"#utility.yul\":4661:4700   */\n              tag_241\n                /* \"#utility.yul\":4694:4699   */\n              dup3\n                /* \"#utility.yul\":4661:4700   */\n              tag_242\n              jump\t// in\n            tag_241:\n                /* \"#utility.yul\":4716:4777   */\n              tag_243\n                /* \"#utility.yul\":4770:4776   */\n              dup2\n                /* \"#utility.yul\":4765:4768   */\n              dup6\n                /* \"#utility.yul\":4716:4777   */\n              tag_244\n              jump\t// in\n            tag_243:\n                /* \"#utility.yul\":4709:4777   */\n              swap4\n              pop\n                /* \"#utility.yul\":4786:4838   */\n              tag_245\n                /* \"#utility.yul\":4831:4837   */\n              dup2\n                /* \"#utility.yul\":4826:4829   */\n              dup6\n                /* \"#utility.yul\":4819:4823   */\n              0x20\n                /* \"#utility.yul\":4812:4817   */\n              dup7\n                /* \"#utility.yul\":4808:4824   */\n              add\n                /* \"#utility.yul\":4786:4838   */\n              tag_246\n              jump\t// in\n            tag_245:\n                /* \"#utility.yul\":4863:4892   */\n              tag_247\n                /* \"#utility.yul\":4885:4891   */\n              dup2\n                /* \"#utility.yul\":4863:4892   */\n              tag_248\n              jump\t// in\n            tag_247:\n                /* \"#utility.yul\":4858:4861   */\n              dup5\n                /* \"#utility.yul\":4854:4893   */\n              add\n                /* \"#utility.yul\":4847:4893   */\n              swap2\n              pop\n                /* \"#utility.yul\":4637:4899   */\n              pop\n              swap3\n              swap2\n              pop\n              pop\n              jump\t// out\n                /* \"#utility.yul\":4905:5269   */\n            tag_249:\n              0x00\n                /* \"#utility.yul\":5021:5060   */\n              tag_251\n                /* \"#utility.yul\":5054:5059   */\n              dup3\n                /* \"#utility.yul\":5021:5060   */\n              tag_242\n              jump\t// in\n            tag_251:\n                /* \"#utility.yul\":5076:5147   */\n              tag_252\n                /* \"#utility.yul\":5140:5146   */\n              dup2\n                /* \"#utility.yul\":5135:5138   */\n              dup6\n                /* \"#utility.yul\":5076:5147   */\n              tag_253\n              jump\t// in\n            tag_252:\n                /* \"#utility.yul\":5069:5147   */\n              swap4\n              pop\n                /* \"#utility.yul\":5156:5208   */\n              tag_254\n                /* \"#utility.yul\":5201:5207   */\n              dup2\n                /* \"#utility.yul\":5196:5199   */\n              dup6\n                /* \"#utility.yul\":5189:5193   */\n              0x20\n                /* \"#utility.yul\":5182:5187   */\n              dup7\n                /* \"#utility.yul\":5178:5194   */\n              add\n                /* \"#utility.yul\":5156:5208   */\n              tag_246\n              jump\t// in\n            tag_254:\n                /* \"#utility.yul\":5233:5262   */\n              tag_255\n                /* \"#utility.yul\":5255:5261   */\n              dup2\n                /* \"#utility.yul\":5233:5262   */\n              tag_248\n              jump\t// in\n            tag_255:\n                /* \"#utility.yul\":5228:5231   */\n              dup5\n                /* \"#utility.yul\":5224:5263   */\n              add\n                /* \"#utility.yul\":5217:5263   */\n              swap2\n              pop\n                /* \"#utility.yul\":4997:5269   */\n              pop\n              swap3\n              swap2\n              pop\n              pop\n              jump\t// out\n                /* \"#utility.yul\":5331:5930   */\n            tag_216:\n              0x00\n                /* \"#utility.yul\":5474:5478   */\n              0x40\n                /* \"#utility.yul\":5469:5472   */\n              dup4\n                /* \"#utility.yul\":5465:5479   */\n              add\n                /* \"#utility.yul\":5561:5565   */\n              0x00\n                /* \"#utility.yul\":5554:5559   */\n              dup4\n                /* \"#utility.yul\":5550:5566   */\n              add\n                /* \"#utility.yul\":5544:5567   */\n              mload\n                /* \"#utility.yul\":5614:5617   */\n              dup5\n                /* \"#utility.yul\":5608:5612   */\n              dup3\n                /* \"#utility.yul\":5604:5618   */\n              sub\n                /* \"#utility.yul\":5597:5601   */\n              0x00\n                /* \"#utility.yul\":5592:5595   */\n              dup7\n                /* \"#utility.yul\":5588:5602   */\n              add\n                /* \"#utility.yul\":5581:5619   */\n              mstore\n                /* \"#utility.yul\":5640:5713   */\n              tag_257\n                /* \"#utility.yul\":5708:5712   */\n              dup3\n                /* \"#utility.yul\":5694:5706   */\n              dup3\n                /* \"#utility.yul\":5640:5713   */\n              tag_239\n              jump\t// in\n            tag_257:\n                /* \"#utility.yul\":5632:5713   */\n              swap2\n              pop\n                /* \"#utility.yul\":5489:5724   */\n              pop\n                /* \"#utility.yul\":5811:5815   */\n              0x20\n                /* \"#utility.yul\":5804:5809   */\n              dup4\n                /* \"#utility.yul\":5800:5816   */\n              add\n                /* \"#utility.yul\":5794:5817   */\n              mload\n                /* \"#utility.yul\":5830:5893   */\n              tag_258\n                /* \"#utility.yul\":5887:5891   */\n              0x20\n                /* \"#utility.yul\":5882:5885   */\n              dup7\n                /* \"#utility.yul\":5878:5892   */\n              add\n                /* \"#utility.yul\":5864:5876   */\n              dup3\n                /* \"#utility.yul\":5830:5893   */\n              tag_259\n              jump\t// in\n            tag_258:\n                /* \"#utility.yul\":5734:5903   */\n              pop\n                /* \"#utility.yul\":5920:5924   */\n              dup1\n                /* \"#utility.yul\":5913:5924   */\n              swap2\n              pop\n                /* \"#utility.yul\":5443:5930   */\n              pop\n              swap3\n              swap2\n              pop\n              pop\n              jump\t// out\n                /* \"#utility.yul\":5992:6601   */\n            tag_260:\n              0x00\n                /* \"#utility.yul\":6145:6149   */\n              0x40\n                /* \"#utility.yul\":6140:6143   */\n              dup4\n                /* \"#utility.yul\":6136:6150   */\n              add\n                /* \"#utility.yul\":6232:6236   */\n              0x00\n                /* \"#utility.yul\":6225:6230   */\n              dup4\n                /* \"#utility.yul\":6221:6237   */\n              add\n                /* \"#utility.yul\":6215:6238   */\n              mload\n                /* \"#utility.yul\":6285:6288   */\n              dup5\n                /* \"#utility.yul\":6279:6283   */\n              dup3\n                /* \"#utility.yul\":6275:6289   */\n              sub\n                /* \"#utility.yul\":6268:6272   */\n              0x00\n                /* \"#utility.yul\":6263:6266   */\n              dup7\n                /* \"#utility.yul\":6259:6273   */\n              add\n                /* \"#utility.yul\":6252:6290   */\n              mstore\n                /* \"#utility.yul\":6311:6384   */\n              tag_262\n                /* \"#utility.yul\":6379:6383   */\n              dup3\n                /* \"#utility.yul\":6365:6377   */\n              dup3\n                /* \"#utility.yul\":6311:6384   */\n              tag_239\n              jump\t// in\n            tag_262:\n                /* \"#utility.yul\":6303:6384   */\n              swap2\n              pop\n                /* \"#utility.yul\":6160:6395   */\n              pop\n                /* \"#utility.yul\":6482:6486   */\n              0x20\n                /* \"#utility.yul\":6475:6480   */\n              dup4\n                /* \"#utility.yul\":6471:6487   */\n              add\n                /* \"#utility.yul\":6465:6488   */\n              mload\n                /* \"#utility.yul\":6501:6564   */\n              tag_263\n                /* \"#utility.yul\":6558:6562   */\n              0x20\n                /* \"#utility.yul\":6553:6556   */\n              dup7\n                /* \"#utility.yul\":6549:6563   */\n              add\n                /* \"#utility.yul\":6535:6547   */\n              dup3\n                /* \"#utility.yul\":6501:6564   */\n              tag_259\n              jump\t// in\n            tag_263:\n                /* \"#utility.yul\":6405:6574   */\n              pop\n                /* \"#utility.yul\":6591:6595   */\n              dup1\n                /* \"#utility.yul\":6584:6595   */\n              swap2\n              pop\n                /* \"#utility.yul\":6114:6601   */\n              pop\n              swap3\n              swap2\n              pop\n              pop\n              jump\t// out\n                /* \"#utility.yul\":6607:6715   */\n            tag_259:\n                /* \"#utility.yul\":6684:6708   */\n              tag_265\n                /* \"#utility.yul\":6702:6707   */\n              dup2\n                /* \"#utility.yul\":6684:6708   */\n              tag_266\n              jump\t// in\n            tag_265:\n                /* \"#utility.yul\":6679:6682   */\n              dup3\n                /* \"#utility.yul\":6672:6709   */\n              mstore\n                /* \"#utility.yul\":6662:6715   */\n              pop\n              pop\n              jump\t// out\n                /* \"#utility.yul\":6721:6839   */\n            tag_267:\n                /* \"#utility.yul\":6808:6832   */\n              tag_269\n                /* \"#utility.yul\":6826:6831   */\n              dup2\n                /* \"#utility.yul\":6808:6832   */\n              tag_266\n              jump\t// in\n            tag_269:\n                /* \"#utility.yul\":6803:6806   */\n              dup3\n                /* \"#utility.yul\":6796:6833   */\n              mstore\n                /* \"#utility.yul\":6786:6839   */\n              pop\n              pop\n              jump\t// out\n                /* \"#utility.yul\":6845:7067   */\n            tag_54:\n              0x00\n                /* \"#utility.yul\":6976:6978   */\n              0x20\n                /* \"#utility.yul\":6965:6974   */\n              dup3\n                /* \"#utility.yul\":6961:6979   */\n              add\n                /* \"#utility.yul\":6953:6979   */\n              swap1\n              pop\n                /* \"#utility.yul\":6989:7060   */\n              tag_271\n                /* \"#utility.yul\":7057:7058   */\n              0x00\n                /* \"#utility.yul\":7046:7055   */\n              dup4\n                /* \"#utility.yul\":7042:7059   */\n              add\n                /* \"#utility.yul\":7033:7039   */\n              dup5\n                /* \"#utility.yul\":6989:7060   */\n              tag_217\n              jump\t// in\n            tag_271:\n                /* \"#utility.yul\":6943:7067   */\n              swap3\n              swap2\n              pop\n              pop\n              jump\t// out\n                /* \"#utility.yul\":7073:7542   */\n            tag_44:\n              0x00\n                /* \"#utility.yul\":7302:7304   */\n              0x20\n                /* \"#utility.yul\":7291:7300   */\n              dup3\n                /* \"#utility.yul\":7287:7305   */\n              add\n                /* \"#utility.yul\":7279:7305   */\n              swap1\n              pop\n                /* \"#utility.yul\":7351:7360   */\n              dup2\n                /* \"#utility.yul\":7345:7349   */\n              dup2\n                /* \"#utility.yul\":7341:7361   */\n              sub\n                /* \"#utility.yul\":7337:7338   */\n              0x00\n                /* \"#utility.yul\":7326:7335   */\n              dup4\n                /* \"#utility.yul\":7322:7339   */\n              add\n                /* \"#utility.yul\":7315:7362   */\n              mstore\n                /* \"#utility.yul\":7379:7535   */\n              tag_273\n                /* \"#utility.yul\":7530:7534   */\n              dup2\n                /* \"#utility.yul\":7521:7527   */\n              dup5\n                /* \"#utility.yul\":7379:7535   */\n              tag_221\n              jump\t// in\n            tag_273:\n                /* \"#utility.yul\":7371:7535   */\n              swap1\n              pop\n                /* \"#utility.yul\":7269:7542   */\n              swap3\n              swap2\n              pop\n              pop\n              jump\t// out\n                /* \"#utility.yul\":7548:7861   */\n            tag_76:\n              0x00\n                /* \"#utility.yul\":7699:7701   */\n              0x20\n                /* \"#utility.yul\":7688:7697   */\n              dup3\n                /* \"#utility.yul\":7684:7702   */\n              add\n                /* \"#utility.yul\":7676:7702   */\n              swap1\n              pop\n                /* \"#utility.yul\":7748:7757   */\n              dup2\n                /* \"#utility.yul\":7742:7746   */\n              dup2\n                /* \"#utility.yul\":7738:7758   */\n              sub\n                /* \"#utility.yul\":7734:7735   */\n              0x00\n                /* \"#utility.yul\":7723:7732   */\n              dup4\n                /* \"#utility.yul\":7719:7736   */\n              add\n                /* \"#utility.yul\":7712:7759   */\n              mstore\n                /* \"#utility.yul\":7776:7854   */\n              tag_275\n                /* \"#utility.yul\":7849:7853   */\n              dup2\n                /* \"#utility.yul\":7840:7846   */\n              dup5\n                /* \"#utility.yul\":7776:7854   */\n              tag_249\n              jump\t// in\n            tag_275:\n                /* \"#utility.yul\":7768:7854   */\n              swap1\n              pop\n                /* \"#utility.yul\":7666:7861   */\n              swap3\n              swap2\n              pop\n              pop\n              jump\t// out\n                /* \"#utility.yul\":7867:8290   */\n            tag_30:\n              0x00\n                /* \"#utility.yul\":8046:8048   */\n              0x40\n                /* \"#utility.yul\":8035:8044   */\n              dup3\n                /* \"#utility.yul\":8031:8049   */\n              add\n                /* \"#utility.yul\":8023:8049   */\n              swap1\n              pop\n                /* \"#utility.yul\":8095:8104   */\n              dup2\n                /* \"#utility.yul\":8089:8093   */\n              dup2\n                /* \"#utility.yul\":8085:8105   */\n              sub\n                /* \"#utility.yul\":8081:8082   */\n              0x00\n                /* \"#utility.yul\":8070:8079   */\n              dup4\n                /* \"#utility.yul\":8066:8083   */\n              add\n                /* \"#utility.yul\":8059:8106   */\n              mstore\n                /* \"#utility.yul\":8123:8201   */\n              tag_277\n                /* \"#utility.yul\":8196:8200   */\n              dup2\n                /* \"#utility.yul\":8187:8193   */\n              dup6\n                /* \"#utility.yul\":8123:8201   */\n              tag_249\n              jump\t// in\n            tag_277:\n                /* \"#utility.yul\":8115:8201   */\n              swap1\n              pop\n                /* \"#utility.yul\":8211:8283   */\n              tag_278\n                /* \"#utility.yul\":8279:8281   */\n              0x20\n                /* \"#utility.yul\":8268:8277   */\n              dup4\n                /* \"#utility.yul\":8264:8282   */\n              add\n                /* \"#utility.yul\":8255:8261   */\n              dup5\n                /* \"#utility.yul\":8211:8283   */\n              tag_267\n              jump\t// in\n            tag_278:\n                /* \"#utility.yul\":8013:8290   */\n              swap4\n              swap3\n              pop\n              pop\n              pop\n              jump\t// out\n                /* \"#utility.yul\":8296:8665   */\n            tag_81:\n              0x00\n                /* \"#utility.yul\":8475:8477   */\n              0x20\n                /* \"#utility.yul\":8464:8473   */\n              dup3\n                /* \"#utility.yul\":8460:8478   */\n              add\n                /* \"#utility.yul\":8452:8478   */\n              swap1\n              pop\n                /* \"#utility.yul\":8524:8533   */\n              dup2\n                /* \"#utility.yul\":8518:8522   */\n              dup2\n                /* \"#utility.yul\":8514:8534   */\n              sub\n                /* \"#utility.yul\":8510:8511   */\n              0x00\n                /* \"#utility.yul\":8499:8508   */\n              dup4\n                /* \"#utility.yul\":8495:8512   */\n              add\n                /* \"#utility.yul\":8488:8535   */\n              mstore\n                /* \"#utility.yul\":8552:8658   */\n              tag_280\n                /* \"#utility.yul\":8653:8657   */\n              dup2\n                /* \"#utility.yul\":8644:8650   */\n              dup5\n                /* \"#utility.yul\":8552:8658   */\n              tag_260\n              jump\t// in\n            tag_280:\n                /* \"#utility.yul\":8544:8658   */\n              swap1\n              pop\n                /* \"#utility.yul\":8442:8665   */\n              swap3\n              swap2\n              pop\n              pop\n              jump\t// out\n                /* \"#utility.yul\":8671:8893   */\n            tag_34:\n              0x00\n                /* \"#utility.yul\":8802:8804   */\n              0x20\n                /* \"#utility.yul\":8791:8800   */\n              dup3\n                /* \"#utility.yul\":8787:8805   */\n              add\n                /* \"#utility.yul\":8779:8805   */\n              swap1\n              pop\n                /* \"#utility.yul\":8815:8886   */\n              tag_282\n                /* \"#utility.yul\":8883:8884   */\n              0x00\n                /* \"#utility.yul\":8872:8881   */\n              dup4\n                /* \"#utility.yul\":8868:8885   */\n              add\n                /* \"#utility.yul\":8859:8865   */\n              dup5\n                /* \"#utility.yul\":8815:8886   */\n              tag_267\n              jump\t// in\n            tag_282:\n                /* \"#utility.yul\":8769:8893   */\n              swap3\n              swap2\n              pop\n              pop\n              jump\t// out\n                /* \"#utility.yul\":8899:9440   */\n            tag_69:\n              0x00\n                /* \"#utility.yul\":9108:9111   */\n              0x80\n                /* \"#utility.yul\":9097:9106   */\n              dup3\n                /* \"#utility.yul\":9093:9112   */\n              add\n                /* \"#utility.yul\":9085:9112   */\n              swap1\n              pop\n                /* \"#utility.yul\":9122:9193   */\n              tag_284\n                /* \"#utility.yul\":9190:9191   */\n              0x00\n                /* \"#utility.yul\":9179:9188   */\n              dup4\n                /* \"#utility.yul\":9175:9192   */\n              add\n                /* \"#utility.yul\":9166:9172   */\n              dup8\n                /* \"#utility.yul\":9122:9193   */\n              tag_267\n              jump\t// in\n            tag_284:\n                /* \"#utility.yul\":9203:9269   */\n              tag_285\n                /* \"#utility.yul\":9265:9267   */\n              0x20\n                /* \"#utility.yul\":9254:9263   */\n              dup4\n                /* \"#utility.yul\":9250:9268   */\n              add\n                /* \"#utility.yul\":9241:9247   */\n              dup7\n                /* \"#utility.yul\":9203:9269   */\n              tag_235\n              jump\t// in\n            tag_285:\n                /* \"#utility.yul\":9279:9351   */\n              tag_286\n                /* \"#utility.yul\":9347:9349   */\n              0x40\n                /* \"#utility.yul\":9336:9345   */\n              dup4\n                /* \"#utility.yul\":9332:9350   */\n              add\n                /* \"#utility.yul\":9323:9329   */\n              dup6\n                /* \"#utility.yul\":9279:9351   */\n              tag_217\n              jump\t// in\n            tag_286:\n                /* \"#utility.yul\":9361:9433   */\n              tag_287\n                /* \"#utility.yul\":9429:9431   */\n              0x60\n                /* \"#utility.yul\":9418:9427   */\n              dup4\n                /* \"#utility.yul\":9414:9432   */\n              add\n                /* \"#utility.yul\":9405:9411   */\n              dup5\n                /* \"#utility.yul\":9361:9433   */\n              tag_267\n              jump\t// in\n            tag_287:\n                /* \"#utility.yul\":9075:9440   */\n              swap6\n              swap5\n              pop\n              pop\n              pop\n              pop\n              pop\n              jump\t// out\n                /* \"#utility.yul\":9446:9729   */\n            tag_174:\n              0x00\n                /* \"#utility.yul\":9512:9514   */\n              0x40\n                /* \"#utility.yul\":9506:9515   */\n              mload\n                /* \"#utility.yul\":9496:9515   */\n              swap1\n              pop\n                /* \"#utility.yul\":9554:9558   */\n              dup2\n                /* \"#utility.yul\":9546:9552   */\n              dup2\n                /* \"#utility.yul\":9542:9559   */\n              add\n                /* \"#utility.yul\":9661:9667   */\n              dup2\n                /* \"#utility.yul\":9649:9659   */\n              dup2\n                /* \"#utility.yul\":9646:9668   */\n              lt\n                /* \"#utility.yul\":9625:9643   */\n              0xffffffffffffffff\n                /* \"#utility.yul\":9613:9623   */\n              dup3\n                /* \"#utility.yul\":9610:9644   */\n              gt\n                /* \"#utility.yul\":9607:9669   */\n              or\n                /* \"#utility.yul\":9604:9606   */\n              iszero\n              tag_289\n              jumpi\n                /* \"#utility.yul\":9672:9690   */\n              tag_290\n              tag_291\n              jump\t// in\n            tag_290:\n                /* \"#utility.yul\":9604:9606   */\n            tag_289:\n                /* \"#utility.yul\":9712:9722   */\n              dup1\n                /* \"#utility.yul\":9708:9710   */\n              0x40\n                /* \"#utility.yul\":9701:9723   */\n              mstore\n                /* \"#utility.yul\":9486:9729   */\n              pop\n              swap2\n              swap1\n              pop\n              jump\t// out\n                /* \"#utility.yul\":9735:10056   */\n            tag_173:\n              0x00\n                /* \"#utility.yul\":9912:9930   */\n              0xffffffffffffffff\n                /* \"#utility.yul\":9904:9910   */\n              dup3\n                /* \"#utility.yul\":9901:9931   */\n              gt\n                /* \"#utility.yul\":9898:9900   */\n              iszero\n              tag_293\n              jumpi\n                /* \"#utility.yul\":9934:9952   */\n              tag_294\n              tag_291\n              jump\t// in\n            tag_294:\n                /* \"#utility.yul\":9898:9900   */\n            tag_293:\n                /* \"#utility.yul\":9984:9988   */\n              0x20\n                /* \"#utility.yul\":9976:9982   */\n              dup3\n                /* \"#utility.yul\":9972:9989   */\n              mul\n                /* \"#utility.yul\":9964:9989   */\n              swap1\n              pop\n                /* \"#utility.yul\":10044:10048   */\n              0x20\n                /* \"#utility.yul\":10038:10042   */\n              dup2\n                /* \"#utility.yul\":10034:10049   */\n              add\n                /* \"#utility.yul\":10026:10049   */\n              swap1\n              pop\n                /* \"#utility.yul\":9827:10056   */\n              swap2\n              swap1\n              pop\n              jump\t// out\n                /* \"#utility.yul\":10062:10394   */\n            tag_184:\n              0x00\n                /* \"#utility.yul\":10214:10232   */\n              0xffffffffffffffff\n                /* \"#utility.yul\":10206:10212   */\n              dup3\n                /* \"#utility.yul\":10203:10233   */\n              gt\n                /* \"#utility.yul\":10200:10202   */\n              iszero\n              tag_296\n              jumpi\n                /* \"#utility.yul\":10236:10254   */\n              tag_297\n              tag_291\n              jump\t// in\n            tag_297:\n                /* \"#utility.yul\":10200:10202   */\n            tag_296:\n                /* \"#utility.yul\":10321:10325   */\n              0x1f\n                /* \"#utility.yul\":10317:10326   */\n              not\n                /* \"#utility.yul\":10310:10314   */\n              0x1f\n                /* \"#utility.yul\":10302:10308   */\n              dup4\n                /* \"#utility.yul\":10298:10315   */\n              add\n                /* \"#utility.yul\":10294:10327   */\n              and\n                /* \"#utility.yul\":10286:10327   */\n              swap1\n              pop\n                /* \"#utility.yul\":10382:10386   */\n              0x20\n                /* \"#utility.yul\":10376:10380   */\n              dup2\n                /* \"#utility.yul\":10372:10387   */\n              add\n                /* \"#utility.yul\":10364:10387   */\n              swap1\n              pop\n                /* \"#utility.yul\":10129:10394   */\n              swap2\n              swap1\n              pop\n              jump\t// out\n                /* \"#utility.yul\":10400:10556   */\n            tag_228:\n              0x00\n                /* \"#utility.yul\":10514:10517   */\n              dup2\n                /* \"#utility.yul\":10506:10517   */\n              swap1\n              pop\n                /* \"#utility.yul\":10544:10548   */\n              0x20\n                /* \"#utility.yul\":10539:10542   */\n              dup3\n                /* \"#utility.yul\":10535:10549   */\n              add\n                /* \"#utility.yul\":10527:10549   */\n              swap1\n              pop\n                /* \"#utility.yul\":10496:10556   */\n              swap2\n              swap1\n              pop\n              jump\t// out\n                /* \"#utility.yul\":10562:10700   */\n            tag_224:\n              0x00\n                /* \"#utility.yul\":10687:10692   */\n              dup2\n                /* \"#utility.yul\":10681:10693   */\n              mload\n                /* \"#utility.yul\":10671:10693   */\n              swap1\n              pop\n                /* \"#utility.yul\":10660:10700   */\n              swap2\n              swap1\n              pop\n              jump\t// out\n                /* \"#utility.yul\":10706:10805   */\n            tag_242:\n              0x00\n                /* \"#utility.yul\":10792:10797   */\n              dup2\n                /* \"#utility.yul\":10786:10798   */\n              mload\n                /* \"#utility.yul\":10776:10798   */\n              swap1\n              pop\n                /* \"#utility.yul\":10765:10805   */\n              swap2\n              swap1\n              pop\n              jump\t// out\n                /* \"#utility.yul\":10811:10948   */\n            tag_234:\n              0x00\n                /* \"#utility.yul\":10937:10941   */\n              0x20\n                /* \"#utility.yul\":10932:10935   */\n              dup3\n                /* \"#utility.yul\":10928:10942   */\n              add\n                /* \"#utility.yul\":10920:10942   */\n              swap1\n              pop\n                /* \"#utility.yul\":10910:10948   */\n              swap2\n              swap1\n              pop\n              jump\t// out\n                /* \"#utility.yul\":10954:11162   */\n            tag_226:\n              0x00\n                /* \"#utility.yul\":11111:11117   */\n              dup3\n                /* \"#utility.yul\":11106:11109   */\n              dup3\n                /* \"#utility.yul\":11099:11118   */\n              mstore\n                /* \"#utility.yul\":11151:11155   */\n              0x20\n                /* \"#utility.yul\":11146:11149   */\n              dup3\n                /* \"#utility.yul\":11142:11156   */\n              add\n                /* \"#utility.yul\":11127:11156   */\n              swap1\n              pop\n                /* \"#utility.yul\":11089:11162   */\n              swap3\n              swap2\n              pop\n              pop\n              jump\t// out\n                /* \"#utility.yul\":11168:11327   */\n            tag_244:\n              0x00\n                /* \"#utility.yul\":11276:11282   */\n              dup3\n                /* \"#utility.yul\":11271:11274   */\n              dup3\n                /* \"#utility.yul\":11264:11283   */\n              mstore\n                /* \"#utility.yul\":11316:11320   */\n              0x20\n                /* \"#utility.yul\":11311:11314   */\n              dup3\n                /* \"#utility.yul\":11307:11321   */\n              add\n                /* \"#utility.yul\":11292:11321   */\n              swap1\n              pop\n                /* \"#utility.yul\":11254:11327   */\n              swap3\n              swap2\n              pop\n              pop\n              jump\t// out\n                /* \"#utility.yul\":11333:11502   */\n            tag_253:\n              0x00\n                /* \"#utility.yul\":11451:11457   */\n              dup3\n                /* \"#utility.yul\":11446:11449   */\n              dup3\n                /* \"#utility.yul\":11439:11458   */\n              mstore\n                /* \"#utility.yul\":11491:11495   */\n              0x20\n                /* \"#utility.yul\":11486:11489   */\n              dup3\n                /* \"#utility.yul\":11482:11496   */\n              add\n                /* \"#utility.yul\":11467:11496   */\n              swap1\n              pop\n                /* \"#utility.yul\":11429:11502   */\n              swap3\n              swap2\n              pop\n              pop\n              jump\t// out\n                /* \"#utility.yul\":11508:11813   */\n            tag_87:\n              0x00\n                /* \"#utility.yul\":11567:11587   */\n              tag_306\n                /* \"#utility.yul\":11585:11586   */\n              dup3\n                /* \"#utility.yul\":11567:11587   */\n              tag_266\n              jump\t// in\n            tag_306:\n                /* \"#utility.yul\":11562:11587   */\n              swap2\n              pop\n                /* \"#utility.yul\":11601:11621   */\n              tag_307\n                /* \"#utility.yul\":11619:11620   */\n              dup4\n                /* \"#utility.yul\":11601:11621   */\n              tag_266\n              jump\t// in\n            tag_307:\n                /* \"#utility.yul\":11596:11621   */\n              swap3\n              pop\n                /* \"#utility.yul\":11755:11756   */\n              dup3\n                /* \"#utility.yul\":11687:11753   */\n              0xffffffffffffffffffffffffffffffffffffffffffffffffffffffffffffffff\n                /* \"#utility.yul\":11683:11757   */\n              sub\n                /* \"#utility.yul\":11680:11681   */\n              dup3\n                /* \"#utility.yul\":11677:11758   */\n              gt\n                /* \"#utility.yul\":11674:11676   */\n              iszero\n              tag_308\n              jumpi\n                /* \"#utility.yul\":11761:11779   */\n              tag_309\n              tag_310\n              jump\t// in\n            tag_309:\n                /* \"#utility.yul\":11674:11676   */\n            tag_308:\n                /* \"#utility.yul\":11805:11806   */\n              dup3\n                /* \"#utility.yul\":11802:11803   */\n              dup3\n                /* \"#utility.yul\":11798:11807   */\n              add\n                /* \"#utility.yul\":11791:11807   */\n              swap1\n              pop\n                /* \"#utility.yul\":11552:11813   */\n              swap3\n              swap2\n              pop\n              pop\n              jump\t// out\n                /* \"#utility.yul\":11819:11915   */\n            tag_220:\n              0x00\n                /* \"#utility.yul\":11885:11909   */\n              tag_312\n                /* \"#utility.yul\":11903:11908   */\n              dup3\n                /* \"#utility.yul\":11885:11909   */\n              tag_313\n              jump\t// in\n            tag_312:\n                /* \"#utility.yul\":11874:11909   */\n              swap1\n              pop\n                /* \"#utility.yul\":11864:11915   */\n              swap2\n              swap1\n              pop\n              jump\t// out\n                /* \"#utility.yul\":11921:12011   */\n            tag_238:\n              0x00\n                /* \"#utility.yul\":11998:12003   */\n              dup2\n                /* \"#utility.yul\":11991:12004   */\n              iszero\n                /* \"#utility.yul\":11984:12005   */\n              iszero\n                /* \"#utility.yul\":11973:12005   */\n              swap1\n              pop\n                /* \"#utility.yul\":11963:12011   */\n              swap2\n              swap1\n              pop\n              jump\t// out\n                /* \"#utility.yul\":12017:12143   */\n            tag_313:\n              0x00\n                /* \"#utility.yul\":12094:12136   */\n              0xffffffffffffffffffffffffffffffffffffffff\n                /* \"#utility.yul\":12087:12092   */\n              dup3\n                /* \"#utility.yul\":12083:12137   */\n              and\n                /* \"#utility.yul\":12072:12137   */\n              swap1\n              pop\n                /* \"#utility.yul\":12062:12143   */\n              swap2\n              swap1\n              pop\n              jump\t// out\n                /* \"#utility.yul\":12149:12226   */\n            tag_266:\n              0x00\n                /* \"#utility.yul\":12215:12220   */\n              dup2\n                /* \"#utility.yul\":12204:12220   */\n              swap1\n              pop\n                /* \"#utility.yul\":12194:12226   */\n              swap2\n              swap1\n              pop\n              jump\t// out\n                /* \"#utility.yul\":12232:12386   */\n            tag_187:\n                /* \"#utility.yul\":12316:12322   */\n              dup3\n                /* \"#utility.yul\":12311:12314   */\n              dup2\n                /* \"#utility.yul\":12306:12309   */\n              dup4\n                /* \"#utility.yul\":12293:12323   */\n              calldatacopy\n                /* \"#utility.yul\":12378:12379   */\n              0x00\n                /* \"#utility.yul\":12369:12375   */\n              dup4\n                /* \"#utility.yul\":12364:12367   */\n              dup4\n                /* \"#utility.yul\":12360:12376   */\n              add\n                /* \"#utility.yul\":12353:12380   */\n              mstore\n                /* \"#utility.yul\":12283:12386   */\n              pop\n              pop\n              pop\n              jump\t// out\n                /* \"#utility.yul\":12392:12699   */\n            tag_246:\n                /* \"#utility.yul\":12460:12461   */\n              0x00\n                /* \"#utility.yul\":12470:12583   */\n            tag_319:\n                /* \"#utility.yul\":12484:12490   */\n              dup4\n                /* \"#utility.yul\":12481:12482   */\n              dup2\n                /* \"#utility.yul\":12478:12491   */\n              lt\n                /* \"#utility.yul\":12470:12583   */\n              iszero\n              tag_321\n              jumpi\n                /* \"#utility.yul\":12569:12570   */\n              dup1\n                /* \"#utility.yul\":12564:12567   */\n              dup3\n                /* \"#utility.yul\":12560:12571   */\n              add\n                /* \"#utility.yul\":12554:12572   */\n              mload\n                /* \"#utility.yul\":12550:12551   */\n              dup2\n                /* \"#utility.yul\":12545:12548   */\n              dup5\n                /* \"#utility.yul\":12541:12552   */\n              add\n                /* \"#utility.yul\":12534:12573   */\n              mstore\n                /* \"#utility.yul\":12506:12508   */\n              0x20\n                /* \"#utility.yul\":12503:12504   */\n              dup2\n                /* \"#utility.yul\":12499:12509   */\n              add\n                /* \"#utility.yul\":12494:12509   */\n              swap1\n              pop\n                /* \"#utility.yul\":12470:12583   */\n              jump(tag_319)\n            tag_321:\n                /* \"#utility.yul\":12601:12607   */\n              dup4\n                /* \"#utility.yul\":12598:12599   */\n              dup2\n                /* \"#utility.yul\":12595:12608   */\n              gt\n                /* \"#utility.yul\":12592:12594   */\n              iszero\n              tag_322\n              jumpi\n                /* \"#utility.yul\":12681:12682   */\n              0x00\n                /* \"#utility.yul\":12672:12678   */\n              dup5\n                /* \"#utility.yul\":12667:12670   */\n              dup5\n                /* \"#utility.yul\":12663:12679   */\n              add\n                /* \"#utility.yul\":12656:12683   */\n              mstore\n                /* \"#utility.yul\":12592:12594   */\n            tag_322:\n                /* \"#utility.yul\":12441:12699   */\n              pop\n              pop\n              pop\n              pop\n              jump\t// out\n                /* \"#utility.yul\":12705:13025   */\n            tag_91:\n              0x00\n                /* \"#utility.yul\":12786:12787   */\n              0x02\n                /* \"#utility.yul\":12780:12784   */\n              dup3\n                /* \"#utility.yul\":12776:12788   */\n              div\n                /* \"#utility.yul\":12766:12788   */\n              swap1\n              pop\n                /* \"#utility.yul\":12833:12834   */\n              0x01\n                /* \"#utility.yul\":12827:12831   */\n              dup3\n                /* \"#utility.yul\":12823:12835   */\n              and\n                /* \"#utility.yul\":12854:12872   */\n              dup1\n                /* \"#utility.yul\":12844:12846   */\n              tag_324\n              jumpi\n                /* \"#utility.yul\":12910:12914   */\n              0x7f\n                /* \"#utility.yul\":12902:12908   */\n              dup3\n                /* \"#utility.yul\":12898:12915   */\n              and\n                /* \"#utility.yul\":12888:12915   */\n              swap2\n              pop\n                /* \"#utility.yul\":12844:12846   */\n            tag_324:\n                /* \"#utility.yul\":12972:12974   */\n              0x20\n                /* \"#utility.yul\":12964:12970   */\n              dup3\n                /* \"#utility.yul\":12961:12975   */\n              lt\n                /* \"#utility.yul\":12941:12959   */\n              dup2\n                /* \"#utility.yul\":12938:12976   */\n              eq\n                /* \"#utility.yul\":12935:12937   */\n              iszero\n              tag_325\n              jumpi\n                /* \"#utility.yul\":12991:13009   */\n              tag_326\n              tag_327\n              jump\t// in\n            tag_326:\n                /* \"#utility.yul\":12935:12937   */\n            tag_325:\n                /* \"#utility.yul\":12756:13025   */\n              pop\n              swap2\n              swap1\n              pop\n              jump\t// out\n                /* \"#utility.yul\":13031:13264   */\n            tag_108:\n              0x00\n                /* \"#utility.yul\":13093:13117   */\n              tag_329\n                /* \"#utility.yul\":13111:13116   */\n              dup3\n                /* \"#utility.yul\":13093:13117   */\n              tag_266\n              jump\t// in\n            tag_329:\n                /* \"#utility.yul\":13084:13117   */\n              swap2\n              pop\n                /* \"#utility.yul\":13139:13205   */\n              0xffffffffffffffffffffffffffffffffffffffffffffffffffffffffffffffff\n                /* \"#utility.yul\":13132:13137   */\n              dup3\n                /* \"#utility.yul\":13129:13206   */\n              eq\n                /* \"#utility.yul\":13126:13128   */\n              iszero\n              tag_330\n              jumpi\n                /* \"#utility.yul\":13209:13227   */\n              tag_331\n              tag_310\n              jump\t// in\n            tag_331:\n                /* \"#utility.yul\":13126:13128   */\n            tag_330:\n                /* \"#utility.yul\":13256:13257   */\n              0x01\n                /* \"#utility.yul\":13249:13254   */\n              dup3\n                /* \"#utility.yul\":13245:13258   */\n              add\n                /* \"#utility.yul\":13238:13258   */\n              swap1\n              pop\n                /* \"#utility.yul\":13074:13264   */\n              swap2\n              swap1\n              pop\n              jump\t// out\n                /* \"#utility.yul\":13270:13450   */\n            tag_310:\n                /* \"#utility.yul\":13318:13395   */\n              0x4e487b7100000000000000000000000000000000000000000000000000000000\n                /* \"#utility.yul\":13315:13316   */\n              0x00\n                /* \"#utility.yul\":13308:13396   */\n              mstore\n                /* \"#utility.yul\":13415:13419   */\n              0x11\n                /* \"#utility.yul\":13412:13413   */\n              0x04\n                /* \"#utility.yul\":13405:13420   */\n              mstore\n                /* \"#utility.yul\":13439:13443   */\n              0x24\n                /* \"#utility.yul\":13436:13437   */\n              0x00\n                /* \"#utility.yul\":13429:13444   */\n              revert\n                /* \"#utility.yul\":13456:13636   */\n            tag_327:\n                /* \"#utility.yul\":13504:13581   */\n              0x4e487b7100000000000000000000000000000000000000000000000000000000\n                /* \"#utility.yul\":13501:13502   */\n              0x00\n                /* \"#utility.yul\":13494:13582   */\n              mstore\n                /* \"#utility.yul\":13601:13605   */\n              0x22\n                /* \"#utility.yul\":13598:13599   */\n              0x04\n                /* \"#utility.yul\":13591:13606   */\n              mstore\n                /* \"#utility.yul\":13625:13629   */\n              0x24\n                /* \"#utility.yul\":13622:13623   */\n              0x00\n                /* \"#utility.yul\":13615:13630   */\n              revert\n                /* \"#utility.yul\":13642:13822   */\n            tag_291:\n                /* \"#utility.yul\":13690:13767   */\n              0x4e487b7100000000000000000000000000000000000000000000000000000000\n                /* \"#utility.yul\":13687:13688   */\n              0x00\n                /* \"#utility.yul\":13680:13768   */\n              mstore\n                /* \"#utility.yul\":13787:13791   */\n              0x41\n                /* \"#utility.yul\":13784:13785   */\n              0x04\n                /* \"#utility.yul\":13777:13792   */\n              mstore\n                /* \"#utility.yul\":13811:13815   */\n              0x24\n                /* \"#utility.yul\":13808:13809   */\n              0x00\n                /* \"#utility.yul\":13801:13816   */\n              revert\n                /* \"#utility.yul\":13828:13930   */\n            tag_248:\n              0x00\n                /* \"#utility.yul\":13920:13922   */\n              0x1f\n                /* \"#utility.yul\":13916:13923   */\n              not\n                /* \"#utility.yul\":13911:13913   */\n              0x1f\n                /* \"#utility.yul\":13904:13909   */\n              dup4\n                /* \"#utility.yul\":13900:13914   */\n              add\n                /* \"#utility.yul\":13896:13924   */\n              and\n                /* \"#utility.yul\":13886:13924   */\n              swap1\n              pop\n                /* \"#utility.yul\":13876:13930   */\n              swap2\n              swap1\n              pop\n              jump\t// out\n                /* \"#utility.yul\":13936:14058   */\n            tag_191:\n                /* \"#utility.yul\":14009:14033   */\n              tag_337\n                /* \"#utility.yul\":14027:14032   */\n              dup2\n                /* \"#utility.yul\":14009:14033   */\n              tag_220\n              jump\t// in\n            tag_337:\n                /* \"#utility.yul\":14002:14007   */\n              dup2\n                /* \"#utility.yul\":13999:14034   */\n              eq\n                /* \"#utility.yul\":13989:13991   */\n              tag_338\n              jumpi\n                /* \"#utility.yul\":14048:14049   */\n              0x00\n                /* \"#utility.yul\":14045:14046   */\n              dup1\n                /* \"#utility.yul\":14038:14050   */\n              revert\n                /* \"#utility.yul\":13989:13991   */\n            tag_338:\n                /* \"#utility.yul\":13979:14058   */\n              pop\n              jump\t// out\n                /* \"#utility.yul\":14064:14186   */\n            tag_202:\n                /* \"#utility.yul\":14137:14161   */\n              tag_340\n                /* \"#utility.yul\":14155:14160   */\n              dup2\n                /* \"#utility.yul\":14137:14161   */\n              tag_266\n              jump\t// in\n            tag_340:\n                /* \"#utility.yul\":14130:14135   */\n              dup2\n                /* \"#utility.yul\":14127:14162   */\n              eq\n                /* \"#utility.yul\":14117:14119   */\n              tag_341\n              jumpi\n                /* \"#utility.yul\":14176:14177   */\n              0x00\n                /* \"#utility.yul\":14173:14174   */\n              dup1\n                /* \"#utility.yul\":14166:14178   */\n              revert\n                /* \"#utility.yul\":14117:14119   */\n            tag_341:\n                /* \"#utility.yul\":14107:14186   */\n              pop\n              jump\t// out\n\n            auxdata: 0xa264697066735822122019df581250950ad809f57433849780ce70b84029b1a804454accddc566cdad0564736f6c63430008000033\n        }\n    }\n\n    auxdata: 0xa2646970667358221220ba2e885581422e739749298b44f86f5d05ea3158b872aa42c1734c60ae5ff9b064736f6c63430008000033\n}\n",
				"bytecode": {
					"linkReferences": {},
					"object": "608060405234801561001057600080fd5b50612e27806100206000396000f3fe608060405234801561001057600080fd5b506004361061012c5760003560e01c806378f305c6116100ad5780639e7b8d61116100715780639e7b8d61146102fa578063a3ec138d14610316578063b135648814610349578063e2ba53f014610367578063e9d6c6da146103855761012c565b806378f305c61461028e5780637a16fcb0146102ac578063836bc692146102ca57806386278e77146102e6578063962fafd0146102f05761012c565b8063609ff1bd116100f4578063609ff1bd146101ea57806362564c4814610208578063643cb0961461022657806369ba1a7514610256578063735d8b87146102725761012c565b80630121b93f14610131578063013cf08b1461014d5780630a82dcb11461017e5780632a8cdc4c1461019c5780634e69d560146101cc575b600080fd5b61014b600480360381019061014691906111cc565b6103b5565b005b610167600480360381019061016291906111cc565b6104a4565b60405161017592919061152e565b60405180910390f35b610186610560565b6040516101939190611580565b60405180910390f35b6101b660048036038101906101b191906111cc565b61056a565b6040516101c39190611492565b60405180910390f35b6101d4610655565b6040516101e19190611580565b60405180910390f35b6101f261065f565b6040516101ff9190611580565b60405180910390f35b610210610733565b60405161021d91906114cf565b60405180910390f35b610240600480360381019061023b91906111cc565b61082e565b60405161024d91906114f1565b60405180910390f35b610270600480360381019061026b91906111cc565b61086d565b005b61028c600480360381019061028791906111f5565b610877565b005b61029661094a565b6040516102a39190611580565b60405180910390f35b6102b4610954565b6040516102c19190611492565b60405180910390f35b6102e460048036038101906102df919061118b565b61097d565b005b6102ee610b0b565b005b6102f8610b14565b005b610314600480360381019061030f9190611139565b610ba7565b005b610330600480360381019061032b9190611139565b610cf1565b604051610340949392919061159b565b60405180910390f35b610351610d4e565b60405161035e9190611580565b60405180910390f35b61036f610d58565b60405161037c919061150c565b60405180910390f35b61039f600480360381019061039a91906111cc565b610e3a565b6040516103ac919061155e565b60405180910390f35b6000600560003373ffffffffffffffffffffffffffffffffffffffff1673ffffffffffffffffffffffffffffffffffffffff16815260200190815260200160002090508060010160009054906101000a900460ff161561041457600080fd5b60018160010160006101000a81548160ff021916908315150217905550818160020181905550806000015460068381548110610479577f4e487b7100000000000000000000000000000000000000000000000000000000600052603260045260246000fd5b90600052602060002090600202016001016000828254610499919061170c565b925050819055505050565b600681815481106104b457600080fd5b90600052602060002090600202016000915090508060000180546104d790611810565b80601f016020809104026020016040519081016040528092919081815260200182805461050390611810565b80156105505780601f1061052557610100808354040283529160200191610550565b820191906000526020600020905b81548152906001019060200180831161053357829003601f168201915b5050505050908060010154905082565b6000600454905090565b6000600782815481106105a6577f4e487b7100000000000000000000000000000000000000000000000000000000600052603260045260246000fd5b9060005260206000200160009054906101000a900473ffffffffffffffffffffffffffffffffffffffff1673ffffffffffffffffffffffffffffffffffffffff16637a16fcb06040518163ffffffff1660e01b815260040160206040518083038186803b15801561061657600080fd5b505afa15801561062a573d6000803e3d6000fd5b505050506040513d601f19601f8201168201806040525081019061064e9190611162565b9050919050565b6000600154905090565b6000806000905060005b60068054905081101561072e5781600682815481106106b1577f4e487b7100000000000000000000000000000000000000000000000000000000600052603260045260246000fd5b906000526020600020906002020160010154111561071b5760068181548110610703577f4e487b7100000000000000000000000000000000000000000000000000000000600052603260045260246000fd5b90600052602060002090600202016001015491508092505b808061072690611842565b915050610669565b505090565b60606006805480602002602001604051908101604052809291908181526020016000905b82821015610825578382906000526020600020906002020160405180604001604052908160008201805461078a90611810565b80601f01602080910402602001604051908101604052809291908181526020018280546107b690611810565b80156108035780601f106107d857610100808354040283529160200191610803565b820191906000526020600020905b8154815290600101906020018083116107e657829003601f168201915b5050505050815260200160018201548152505081526020019060010190610757565b50505050905090565b6007818154811061083e57600080fd5b906000526020600020016000915054906101000a900473ffffffffffffffffffffffffffffffffffffffff1681565b8060018190555050565b600782815481106108b1577f4e487b7100000000000000000000000000000000000000000000000000000000600052603260045260246000fd5b9060005260206000200160009054906101000a900473ffffffffffffffffffffffffffffffffffffffff1673ffffffffffffffffffffffffffffffffffffffff1663836bc692826040518263ffffffff1660e01b815260040161091491906114ad565b600060405180830381600087803b15801561092e57600080fd5b505af1158015610942573d6000803e3d6000fd5b505050505050565b6000600254905090565b60008060009054906101000a900473ffffffffffffffffffffffffffffffffffffffff16905090565b336000806101000a81548173ffffffffffffffffffffffffffffffffffffffff021916908373ffffffffffffffffffffffffffffffffffffffff1602179055506001600560008060009054906101000a900473ffffffffffffffffffffffffffffffffffffffff1673ffffffffffffffffffffffffffffffffffffffff1673ffffffffffffffffffffffffffffffffffffffff168152602001908152602001600020600001819055506000600181905550610a36610f38565b805160048190555060005b8151811015610b075760066040518060400160405280848481518110610a90577f4e487b7100000000000000000000000000000000000000000000000000000000600052603260045260246000fd5b60200260200101518152602001600081525090806001815401808255809150506001900390600052602060002090600202016000909190919091506000820151816000019080519060200190610ae7929190610f41565b506020820151816001015550508080610aff90611842565b915050610a41565b5050565b42600381905550565b6000604051610b2290610fc7565b604051809103906000f080158015610b3e573d6000803e3d6000fd5b5090506007819080600181540180825580915050600190039060005260206000200160009091909190916101000a81548173ffffffffffffffffffffffffffffffffffffffff021916908373ffffffffffffffffffffffffffffffffffffffff16021790555050565b60008054906101000a900473ffffffffffffffffffffffffffffffffffffffff1673ffffffffffffffffffffffffffffffffffffffff163373ffffffffffffffffffffffffffffffffffffffff16148015610c4f5750600560008273ffffffffffffffffffffffffffffffffffffffff1673ffffffffffffffffffffffffffffffffffffffff16815260200190815260200160002060010160009054906101000a900460ff16155b8015610c9d57506000600560008373ffffffffffffffffffffffffffffffffffffffff1673ffffffffffffffffffffffffffffffffffffffff16815260200190815260200160002060000154145b610ca657600080fd5b6001600560008373ffffffffffffffffffffffffffffffffffffffff1673ffffffffffffffffffffffffffffffffffffffff1681526020019081526020016000206000018190555050565b60056020528060005260406000206000915090508060000154908060010160009054906101000a900460ff16908060010160019054906101000a900473ffffffffffffffffffffffffffffffffffffffff16908060020154905084565b6000600354905090565b60606006610d6461065f565b81548110610d9b577f4e487b7100000000000000000000000000000000000000000000000000000000600052603260045260246000fd5b90600052602060002090600202016000018054610db790611810565b80601f0160208091040260200160405190810160405280929190818152602001828054610de390611810565b8015610e305780601f10610e0557610100808354040283529160200191610e30565b820191906000526020600020905b815481529060010190602001808311610e1357829003601f168201915b5050505050905090565b610e42610fd4565b60068281548110610e7c577f4e487b7100000000000000000000000000000000000000000000000000000000600052603260045260246000fd5b9060005260206000209060020201604051806040016040529081600082018054610ea590611810565b80601f0160208091040260200160405190810160405280929190818152602001828054610ed190611810565b8015610f1e5780601f10610ef357610100808354040283529160200191610f1e565b820191906000526020600020905b815481529060010190602001808311610f0157829003601f168201915b505050505081526020016001820154815250509050919050565b42600281905550565b828054610f4d90611810565b90600052602060002090601f016020900481019282610f6f5760008555610fb6565b82601f10610f8857805160ff1916838001178555610fb6565b82800160010185558215610fb6579182015b82811115610fb5578251825591602001919060010190610f9a565b5b509050610fc39190610fee565b5090565b61149a8061195883390190565b604051806040016040528060608152602001600081525090565b5b80821115611007576000816000905550600101610fef565b5090565b600061101e61101984611611565b6115e0565b9050808382526020820190508260005b8581101561105e578135850161104488826110fa565b84526020840193506020830192505060018101905061102e565b5050509392505050565b600061107b6110768461163d565b6115e0565b90508281526020810184848401111561109357600080fd5b61109e8482856117ce565b509392505050565b6000813590506110b581611929565b92915050565b6000815190506110ca81611929565b92915050565b600082601f8301126110e157600080fd5b81356110f184826020860161100b565b91505092915050565b600082601f83011261110b57600080fd5b813561111b848260208601611068565b91505092915050565b60008135905061113381611940565b92915050565b60006020828403121561114b57600080fd5b6000611159848285016110a6565b91505092915050565b60006020828403121561117457600080fd5b6000611182848285016110bb565b91505092915050565b60006020828403121561119d57600080fd5b600082013567ffffffffffffffff8111156111b757600080fd5b6111c3848285016110d0565b91505092915050565b6000602082840312156111de57600080fd5b60006111ec84828501611124565b91505092915050565b6000806040838503121561120857600080fd5b600061121685828601611124565b925050602083013567ffffffffffffffff81111561123357600080fd5b61123f858286016110d0565b9150509250929050565b60006112558383611388565b905092915050565b600061126983836113fa565b905092915050565b61127a81611762565b82525050565b600061128b8261168d565b61129581856116c8565b9350836020820285016112a78561166d565b8060005b858110156112e357848403895281516112c48582611249565b94506112cf836116ae565b925060208a019950506001810190506112ab565b50829750879550505050505092915050565b600061130082611698565b61130a81856116d9565b93508360208202850161131c8561167d565b8060005b858110156113585784840389528151611339858261125d565b9450611344836116bb565b925060208a01995050600181019050611320565b50829750879550505050505092915050565b61137381611774565b82525050565b611382816117aa565b82525050565b6000611393826116a3565b61139d81856116ea565b93506113ad8185602086016117dd565b6113b681611918565b840191505092915050565b60006113cc826116a3565b6113d681856116fb565b93506113e68185602086016117dd565b6113ef81611918565b840191505092915050565b600060408301600083015184820360008601526114178282611388565b915050602083015161142c6020860182611474565b508091505092915050565b600060408301600083015184820360008601526114548282611388565b91505060208301516114696020860182611474565b508091505092915050565b61147d816117a0565b82525050565b61148c816117a0565b82525050565b60006020820190506114a76000830184611271565b92915050565b600060208201905081810360008301526114c78184611280565b905092915050565b600060208201905081810360008301526114e981846112f5565b905092915050565b60006020820190506115066000830184611379565b92915050565b6000602082019050818103600083015261152681846113c1565b905092915050565b6000604082019050818103600083015261154881856113c1565b90506115576020830184611483565b9392505050565b600060208201905081810360008301526115788184611437565b905092915050565b60006020820190506115956000830184611483565b92915050565b60006080820190506115b06000830187611483565b6115bd602083018661136a565b6115ca6040830185611271565b6115d76060830184611483565b95945050505050565b6000604051905081810181811067ffffffffffffffff82111715611607576116066118e9565b5b8060405250919050565b600067ffffffffffffffff82111561162c5761162b6118e9565b5b602082029050602081019050919050565b600067ffffffffffffffff821115611658576116576118e9565b5b601f19601f8301169050602081019050919050565b6000819050602082019050919050565b6000819050602082019050919050565b600081519050919050565b600081519050919050565b600081519050919050565b6000602082019050919050565b6000602082019050919050565b600082825260208201905092915050565b600082825260208201905092915050565b600082825260208201905092915050565b600082825260208201905092915050565b6000611717826117a0565b9150611722836117a0565b9250827fffffffffffffffffffffffffffffffffffffffffffffffffffffffffffffffff038211156117575761175661188b565b5b828201905092915050565b600061176d82611780565b9050919050565b60008115159050919050565b600073ffffffffffffffffffffffffffffffffffffffff82169050919050565b6000819050919050565b60006117b5826117bc565b9050919050565b60006117c782611780565b9050919050565b82818337600083830152505050565b60005b838110156117fb5780820151818401526020810190506117e0565b8381111561180a576000848401525b50505050565b6000600282049050600182168061182857607f821691505b6020821081141561183c5761183b6118ba565b5b50919050565b600061184d826117a0565b91507fffffffffffffffffffffffffffffffffffffffffffffffffffffffffffffffff8214156118805761187f61188b565b5b600182019050919050565b7f4e487b7100000000000000000000000000000000000000000000000000000000600052601160045260246000fd5b7f4e487b7100000000000000000000000000000000000000000000000000000000600052602260045260246000fd5b7f4e487b7100000000000000000000000000000000000000000000000000000000600052604160045260246000fd5b6000601f19601f8301169050919050565b61193281611762565b811461193d57600080fd5b50565b611949816117a0565b811461195457600080fd5b5056fe608060405234801561001057600080fd5b5061147a806100206000396000f3fe608060405234801561001057600080fd5b50600436106101005760003560e01c80637a16fcb011610097578063a3ec138d11610066578063a3ec138d14610264578063b135648814610297578063e2ba53f0146102b5578063e9d6c6da146102d357610100565b80637a16fcb014610204578063836bc6921461022257806386278e771461023e5780639e7b8d611461024857610100565b8063609ff1bd116100d3578063609ff1bd1461018e57806362564c48146101ac57806369ba1a75146101ca57806378f305c6146101e657610100565b80630121b93f14610105578063013cf08b146101215780630a82dcb1146101525780634e69d56014610170575b600080fd5b61011f600480360381019061011a9190610e3f565b610303565b005b61013b60048036038101906101369190610e3f565b6103f2565b604051610149929190611078565b60405180910390f35b61015a6104ae565b60405161016791906110ca565b60405180910390f35b6101786104b8565b60405161018591906110ca565b60405180910390f35b6101966104c2565b6040516101a391906110ca565b60405180910390f35b6101b4610596565b6040516101c19190611034565b60405180910390f35b6101e460048036038101906101df9190610e3f565b610691565b005b6101ee61069b565b6040516101fb91906110ca565b60405180910390f35b61020c6106a5565b6040516102199190611019565b60405180910390f35b61023c60048036038101906102379190610dfe565b6106ce565b005b61024661085c565b005b610262600480360381019061025d9190610dd5565b610865565b005b61027e60048036038101906102799190610dd5565b6109af565b60405161028e94939291906110e5565b60405180910390f35b61029f610a0c565b6040516102ac91906110ca565b60405180910390f35b6102bd610a16565b6040516102ca9190611056565b60405180910390f35b6102ed60048036038101906102e89190610e3f565b610af8565b6040516102fa91906110a8565b60405180910390f35b6000600560003373ffffffffffffffffffffffffffffffffffffffff1673ffffffffffffffffffffffffffffffffffffffff16815260200190815260200160002090508060010160009054906101000a900460ff161561036257600080fd5b60018160010160006101000a81548160ff0219169083151502179055508181600201819055508060000154600683815481106103c7577f4e487b7100000000000000000000000000000000000000000000000000000000600052603260045260246000fd5b906000526020600020906002020160010160008282546103e7919061121d565b925050819055505050565b6006818154811061040257600080fd5b9060005260206000209060020201600091509050806000018054610425906112fd565b80601f0160208091040260200160405190810160405280929190818152602001828054610451906112fd565b801561049e5780601f106104735761010080835404028352916020019161049e565b820191906000526020600020905b81548152906001019060200180831161048157829003601f168201915b5050505050908060010154905082565b6000600454905090565b6000600154905090565b6000806000905060005b600680549050811015610591578160068281548110610514577f4e487b7100000000000000000000000000000000000000000000000000000000600052603260045260246000fd5b906000526020600020906002020160010154111561057e5760068181548110610566577f4e487b7100000000000000000000000000000000000000000000000000000000600052603260045260246000fd5b90600052602060002090600202016001015491508092505b80806105899061132f565b9150506104cc565b505090565b60606006805480602002602001604051908101604052809291908181526020016000905b8282101561068857838290600052602060002090600202016040518060400160405290816000820180546105ed906112fd565b80601f0160208091040260200160405190810160405280929190818152602001828054610619906112fd565b80156106665780601f1061063b57610100808354040283529160200191610666565b820191906000526020600020905b81548152906001019060200180831161064957829003601f168201915b50505050508152602001600182015481525050815260200190600101906105ba565b50505050905090565b8060018190555050565b6000600254905090565b60008060009054906101000a900473ffffffffffffffffffffffffffffffffffffffff16905090565b336000806101000a81548173ffffffffffffffffffffffffffffffffffffffff021916908373ffffffffffffffffffffffffffffffffffffffff1602179055506001600560008060009054906101000a900473ffffffffffffffffffffffffffffffffffffffff1673ffffffffffffffffffffffffffffffffffffffff1673ffffffffffffffffffffffffffffffffffffffff168152602001908152602001600020600001819055506000600181905550610787610bf6565b805160048190555060005b815181101561085857600660405180604001604052808484815181106107e1577f4e487b7100000000000000000000000000000000000000000000000000000000600052603260045260246000fd5b60200260200101518152602001600081525090806001815401808255809150506001900390600052602060002090600202016000909190919091506000820151816000019080519060200190610838929190610bff565b5060208201518160010155505080806108509061132f565b915050610792565b5050565b42600381905550565b60008054906101000a900473ffffffffffffffffffffffffffffffffffffffff1673ffffffffffffffffffffffffffffffffffffffff163373ffffffffffffffffffffffffffffffffffffffff1614801561090d5750600560008273ffffffffffffffffffffffffffffffffffffffff1673ffffffffffffffffffffffffffffffffffffffff16815260200190815260200160002060010160009054906101000a900460ff16155b801561095b57506000600560008373ffffffffffffffffffffffffffffffffffffffff1673ffffffffffffffffffffffffffffffffffffffff16815260200190815260200160002060000154145b61096457600080fd5b6001600560008373ffffffffffffffffffffffffffffffffffffffff1673ffffffffffffffffffffffffffffffffffffffff1681526020019081526020016000206000018190555050565b60056020528060005260406000206000915090508060000154908060010160009054906101000a900460ff16908060010160019054906101000a900473ffffffffffffffffffffffffffffffffffffffff16908060020154905084565b6000600354905090565b60606006610a226104c2565b81548110610a59577f4e487b7100000000000000000000000000000000000000000000000000000000600052603260045260246000fd5b90600052602060002090600202016000018054610a75906112fd565b80601f0160208091040260200160405190810160405280929190818152602001828054610aa1906112fd565b8015610aee5780601f10610ac357610100808354040283529160200191610aee565b820191906000526020600020905b815481529060010190602001808311610ad157829003601f168201915b5050505050905090565b610b00610c85565b60068281548110610b3a577f4e487b7100000000000000000000000000000000000000000000000000000000600052603260045260246000fd5b9060005260206000209060020201604051806040016040529081600082018054610b63906112fd565b80601f0160208091040260200160405190810160405280929190818152602001828054610b8f906112fd565b8015610bdc5780601f10610bb157610100808354040283529160200191610bdc565b820191906000526020600020905b815481529060010190602001808311610bbf57829003601f168201915b505050505081526020016001820154815250509050919050565b42600281905550565b828054610c0b906112fd565b90600052602060002090601f016020900481019282610c2d5760008555610c74565b82601f10610c4657805160ff1916838001178555610c74565b82800160010185558215610c74579182015b82811115610c73578251825591602001919060010190610c58565b5b509050610c819190610c9f565b5090565b604051806040016040528060608152602001600081525090565b5b80821115610cb8576000816000905550600101610ca0565b5090565b6000610ccf610cca8461115b565b61112a565b9050808382526020820190508260005b85811015610d0f5781358501610cf58882610d96565b845260208401935060208301925050600181019050610cdf565b5050509392505050565b6000610d2c610d2784611187565b61112a565b905082815260208101848484011115610d4457600080fd5b610d4f8482856112bb565b509392505050565b600081359050610d6681611416565b92915050565b600082601f830112610d7d57600080fd5b8135610d8d848260208601610cbc565b91505092915050565b600082601f830112610da757600080fd5b8135610db7848260208601610d19565b91505092915050565b600081359050610dcf8161142d565b92915050565b600060208284031215610de757600080fd5b6000610df584828501610d57565b91505092915050565b600060208284031215610e1057600080fd5b600082013567ffffffffffffffff811115610e2a57600080fd5b610e3684828501610d6c565b91505092915050565b600060208284031215610e5157600080fd5b6000610e5f84828501610dc0565b91505092915050565b6000610e748383610f81565b905092915050565b610e8581611273565b82525050565b6000610e96826111c7565b610ea081856111ea565b935083602082028501610eb2856111b7565b8060005b85811015610eee5784840389528151610ecf8582610e68565b9450610eda836111dd565b925060208a01995050600181019050610eb6565b50829750879550505050505092915050565b610f0981611285565b82525050565b6000610f1a826111d2565b610f2481856111fb565b9350610f348185602086016112ca565b610f3d81611405565b840191505092915050565b6000610f53826111d2565b610f5d818561120c565b9350610f6d8185602086016112ca565b610f7681611405565b840191505092915050565b60006040830160008301518482036000860152610f9e8282610f0f565b9150506020830151610fb36020860182610ffb565b508091505092915050565b60006040830160008301518482036000860152610fdb8282610f0f565b9150506020830151610ff06020860182610ffb565b508091505092915050565b611004816112b1565b82525050565b611013816112b1565b82525050565b600060208201905061102e6000830184610e7c565b92915050565b6000602082019050818103600083015261104e8184610e8b565b905092915050565b600060208201905081810360008301526110708184610f48565b905092915050565b600060408201905081810360008301526110928185610f48565b90506110a1602083018461100a565b9392505050565b600060208201905081810360008301526110c28184610fbe565b905092915050565b60006020820190506110df600083018461100a565b92915050565b60006080820190506110fa600083018761100a565b6111076020830186610f00565b6111146040830185610e7c565b611121606083018461100a565b95945050505050565b6000604051905081810181811067ffffffffffffffff82111715611151576111506113d6565b5b8060405250919050565b600067ffffffffffffffff821115611176576111756113d6565b5b602082029050602081019050919050565b600067ffffffffffffffff8211156111a2576111a16113d6565b5b601f19601f8301169050602081019050919050565b6000819050602082019050919050565b600081519050919050565b600081519050919050565b6000602082019050919050565b600082825260208201905092915050565b600082825260208201905092915050565b600082825260208201905092915050565b6000611228826112b1565b9150611233836112b1565b9250827fffffffffffffffffffffffffffffffffffffffffffffffffffffffffffffffff0382111561126857611267611378565b5b828201905092915050565b600061127e82611291565b9050919050565b60008115159050919050565b600073ffffffffffffffffffffffffffffffffffffffff82169050919050565b6000819050919050565b82818337600083830152505050565b60005b838110156112e85780820151818401526020810190506112cd565b838111156112f7576000848401525b50505050565b6000600282049050600182168061131557607f821691505b60208210811415611329576113286113a7565b5b50919050565b600061133a826112b1565b91507fffffffffffffffffffffffffffffffffffffffffffffffffffffffffffffffff82141561136d5761136c611378565b5b600182019050919050565b7f4e487b7100000000000000000000000000000000000000000000000000000000600052601160045260246000fd5b7f4e487b7100000000000000000000000000000000000000000000000000000000600052602260045260246000fd5b7f4e487b7100000000000000000000000000000000000000000000000000000000600052604160045260246000fd5b6000601f19601f8301169050919050565b61141f81611273565b811461142a57600080fd5b50565b611436816112b1565b811461144157600080fd5b5056fea264697066735822122019df581250950ad809f57433849780ce70b84029b1a804454accddc566cdad0564736f6c63430008000033a2646970667358221220ba2e885581422e739749298b44f86f5d05ea3158b872aa42c1734c60ae5ff9b064736f6c63430008000033",
					"opcodes": "PUSH1 0x80 PUSH1 0x40 MSTORE CALLVALUE DUP1 ISZERO PUSH2 0x10 JUMPI PUSH1 0x0 DUP1 REVERT JUMPDEST POP PUSH2 0x2E27 DUP1 PUSH2 0x20 PUSH1 0x0 CODECOPY PUSH1 0x0 RETURN INVALID PUSH1 0x80 PUSH1 0x40 MSTORE CALLVALUE DUP1 ISZERO PUSH2 0x10 JUMPI PUSH1 0x0 DUP1 REVERT JUMPDEST POP PUSH1 0x4 CALLDATASIZE LT PUSH2 0x12C JUMPI PUSH1 0x0 CALLDATALOAD PUSH1 0xE0 SHR DUP1 PUSH4 0x78F305C6 GT PUSH2 0xAD JUMPI DUP1 PUSH4 0x9E7B8D61 GT PUSH2 0x71 JUMPI DUP1 PUSH4 0x9E7B8D61 EQ PUSH2 0x2FA JUMPI DUP1 PUSH4 0xA3EC138D EQ PUSH2 0x316 JUMPI DUP1 PUSH4 0xB1356488 EQ PUSH2 0x349 JUMPI DUP1 PUSH4 0xE2BA53F0 EQ PUSH2 0x367 JUMPI DUP1 PUSH4 0xE9D6C6DA EQ PUSH2 0x385 JUMPI PUSH2 0x12C JUMP JUMPDEST DUP1 PUSH4 0x78F305C6 EQ PUSH2 0x28E JUMPI DUP1 PUSH4 0x7A16FCB0 EQ PUSH2 0x2AC JUMPI DUP1 PUSH4 0x836BC692 EQ PUSH2 0x2CA JUMPI DUP1 PUSH4 0x86278E77 EQ PUSH2 0x2E6 JUMPI DUP1 PUSH4 0x962FAFD0 EQ PUSH2 0x2F0 JUMPI PUSH2 0x12C JUMP JUMPDEST DUP1 PUSH4 0x609FF1BD GT PUSH2 0xF4 JUMPI DUP1 PUSH4 0x609FF1BD EQ PUSH2 0x1EA JUMPI DUP1 PUSH4 0x62564C48 EQ PUSH2 0x208 JUMPI DUP1 PUSH4 0x643CB096 EQ PUSH2 0x226 JUMPI DUP1 PUSH4 0x69BA1A75 EQ PUSH2 0x256 JUMPI DUP1 PUSH4 0x735D8B87 EQ PUSH2 0x272 JUMPI PUSH2 0x12C JUMP JUMPDEST DUP1 PUSH4 0x121B93F EQ PUSH2 0x131 JUMPI DUP1 PUSH4 0x13CF08B EQ PUSH2 0x14D JUMPI DUP1 PUSH4 0xA82DCB1 EQ PUSH2 0x17E JUMPI DUP1 PUSH4 0x2A8CDC4C EQ PUSH2 0x19C JUMPI DUP1 PUSH4 0x4E69D560 EQ PUSH2 0x1CC JUMPI JUMPDEST PUSH1 0x0 DUP1 REVERT JUMPDEST PUSH2 0x14B PUSH1 0x4 DUP1 CALLDATASIZE SUB DUP2 ADD SWAP1 PUSH2 0x146 SWAP2 SWAP1 PUSH2 0x11CC JUMP JUMPDEST PUSH2 0x3B5 JUMP JUMPDEST STOP JUMPDEST PUSH2 0x167 PUSH1 0x4 DUP1 CALLDATASIZE SUB DUP2 ADD SWAP1 PUSH2 0x162 SWAP2 SWAP1 PUSH2 0x11CC JUMP JUMPDEST PUSH2 0x4A4 JUMP JUMPDEST PUSH1 0x40 MLOAD PUSH2 0x175 SWAP3 SWAP2 SWAP1 PUSH2 0x152E JUMP JUMPDEST PUSH1 0x40 MLOAD DUP1 SWAP2 SUB SWAP1 RETURN JUMPDEST PUSH2 0x186 PUSH2 0x560 JUMP JUMPDEST PUSH1 0x40 MLOAD PUSH2 0x193 SWAP2 SWAP1 PUSH2 0x1580 JUMP JUMPDEST PUSH1 0x40 MLOAD DUP1 SWAP2 SUB SWAP1 RETURN JUMPDEST PUSH2 0x1B6 PUSH1 0x4 DUP1 CALLDATASIZE SUB DUP2 ADD SWAP1 PUSH2 0x1B1 SWAP2 SWAP1 PUSH2 0x11CC JUMP JUMPDEST PUSH2 0x56A JUMP JUMPDEST PUSH1 0x40 MLOAD PUSH2 0x1C3 SWAP2 SWAP1 PUSH2 0x1492 JUMP JUMPDEST PUSH1 0x40 MLOAD DUP1 SWAP2 SUB SWAP1 RETURN JUMPDEST PUSH2 0x1D4 PUSH2 0x655 JUMP JUMPDEST PUSH1 0x40 MLOAD PUSH2 0x1E1 SWAP2 SWAP1 PUSH2 0x1580 JUMP JUMPDEST PUSH1 0x40 MLOAD DUP1 SWAP2 SUB SWAP1 RETURN JUMPDEST PUSH2 0x1F2 PUSH2 0x65F JUMP JUMPDEST PUSH1 0x40 MLOAD PUSH2 0x1FF SWAP2 SWAP1 PUSH2 0x1580 JUMP JUMPDEST PUSH1 0x40 MLOAD DUP1 SWAP2 SUB SWAP1 RETURN JUMPDEST PUSH2 0x210 PUSH2 0x733 JUMP JUMPDEST PUSH1 0x40 MLOAD PUSH2 0x21D SWAP2 SWAP1 PUSH2 0x14CF JUMP JUMPDEST PUSH1 0x40 MLOAD DUP1 SWAP2 SUB SWAP1 RETURN JUMPDEST PUSH2 0x240 PUSH1 0x4 DUP1 CALLDATASIZE SUB DUP2 ADD SWAP1 PUSH2 0x23B SWAP2 SWAP1 PUSH2 0x11CC JUMP JUMPDEST PUSH2 0x82E JUMP JUMPDEST PUSH1 0x40 MLOAD PUSH2 0x24D SWAP2 SWAP1 PUSH2 0x14F1 JUMP JUMPDEST PUSH1 0x40 MLOAD DUP1 SWAP2 SUB SWAP1 RETURN JUMPDEST PUSH2 0x270 PUSH1 0x4 DUP1 CALLDATASIZE SUB DUP2 ADD SWAP1 PUSH2 0x26B SWAP2 SWAP1 PUSH2 0x11CC JUMP JUMPDEST PUSH2 0x86D JUMP JUMPDEST STOP JUMPDEST PUSH2 0x28C PUSH1 0x4 DUP1 CALLDATASIZE SUB DUP2 ADD SWAP1 PUSH2 0x287 SWAP2 SWAP1 PUSH2 0x11F5 JUMP JUMPDEST PUSH2 0x877 JUMP JUMPDEST STOP JUMPDEST PUSH2 0x296 PUSH2 0x94A JUMP JUMPDEST PUSH1 0x40 MLOAD PUSH2 0x2A3 SWAP2 SWAP1 PUSH2 0x1580 JUMP JUMPDEST PUSH1 0x40 MLOAD DUP1 SWAP2 SUB SWAP1 RETURN JUMPDEST PUSH2 0x2B4 PUSH2 0x954 JUMP JUMPDEST PUSH1 0x40 MLOAD PUSH2 0x2C1 SWAP2 SWAP1 PUSH2 0x1492 JUMP JUMPDEST PUSH1 0x40 MLOAD DUP1 SWAP2 SUB SWAP1 RETURN JUMPDEST PUSH2 0x2E4 PUSH1 0x4 DUP1 CALLDATASIZE SUB DUP2 ADD SWAP1 PUSH2 0x2DF SWAP2 SWAP1 PUSH2 0x118B JUMP JUMPDEST PUSH2 0x97D JUMP JUMPDEST STOP JUMPDEST PUSH2 0x2EE PUSH2 0xB0B JUMP JUMPDEST STOP JUMPDEST PUSH2 0x2F8 PUSH2 0xB14 JUMP JUMPDEST STOP JUMPDEST PUSH2 0x314 PUSH1 0x4 DUP1 CALLDATASIZE SUB DUP2 ADD SWAP1 PUSH2 0x30F SWAP2 SWAP1 PUSH2 0x1139 JUMP JUMPDEST PUSH2 0xBA7 JUMP JUMPDEST STOP JUMPDEST PUSH2 0x330 PUSH1 0x4 DUP1 CALLDATASIZE SUB DUP2 ADD SWAP1 PUSH2 0x32B SWAP2 SWAP1 PUSH2 0x1139 JUMP JUMPDEST PUSH2 0xCF1 JUMP JUMPDEST PUSH1 0x40 MLOAD PUSH2 0x340 SWAP5 SWAP4 SWAP3 SWAP2 SWAP1 PUSH2 0x159B JUMP JUMPDEST PUSH1 0x40 MLOAD DUP1 SWAP2 SUB SWAP1 RETURN JUMPDEST PUSH2 0x351 PUSH2 0xD4E JUMP JUMPDEST PUSH1 0x40 MLOAD PUSH2 0x35E SWAP2 SWAP1 PUSH2 0x1580 JUMP JUMPDEST PUSH1 0x40 MLOAD DUP1 SWAP2 SUB SWAP1 RETURN JUMPDEST PUSH2 0x36F PUSH2 0xD58 JUMP JUMPDEST PUSH1 0x40 MLOAD PUSH2 0x37C SWAP2 SWAP1 PUSH2 0x150C JUMP JUMPDEST PUSH1 0x40 MLOAD DUP1 SWAP2 SUB SWAP1 RETURN JUMPDEST PUSH2 0x39F PUSH1 0x4 DUP1 CALLDATASIZE SUB DUP2 ADD SWAP1 PUSH2 0x39A SWAP2 SWAP1 PUSH2 0x11CC JUMP JUMPDEST PUSH2 0xE3A JUMP JUMPDEST PUSH1 0x40 MLOAD PUSH2 0x3AC SWAP2 SWAP1 PUSH2 0x155E JUMP JUMPDEST PUSH1 0x40 MLOAD DUP1 SWAP2 SUB SWAP1 RETURN JUMPDEST PUSH1 0x0 PUSH1 0x5 PUSH1 0x0 CALLER PUSH20 0xFFFFFFFFFFFFFFFFFFFFFFFFFFFFFFFFFFFFFFFF AND PUSH20 0xFFFFFFFFFFFFFFFFFFFFFFFFFFFFFFFFFFFFFFFF AND DUP2 MSTORE PUSH1 0x20 ADD SWAP1 DUP2 MSTORE PUSH1 0x20 ADD PUSH1 0x0 KECCAK256 SWAP1 POP DUP1 PUSH1 0x1 ADD PUSH1 0x0 SWAP1 SLOAD SWAP1 PUSH2 0x100 EXP SWAP1 DIV PUSH1 0xFF AND ISZERO PUSH2 0x414 JUMPI PUSH1 0x0 DUP1 REVERT JUMPDEST PUSH1 0x1 DUP2 PUSH1 0x1 ADD PUSH1 0x0 PUSH2 0x100 EXP DUP2 SLOAD DUP2 PUSH1 0xFF MUL NOT AND SWAP1 DUP4 ISZERO ISZERO MUL OR SWAP1 SSTORE POP DUP2 DUP2 PUSH1 0x2 ADD DUP2 SWAP1 SSTORE POP DUP1 PUSH1 0x0 ADD SLOAD PUSH1 0x6 DUP4 DUP2 SLOAD DUP2 LT PUSH2 0x479 JUMPI PUSH32 0x4E487B7100000000000000000000000000000000000000000000000000000000 PUSH1 0x0 MSTORE PUSH1 0x32 PUSH1 0x4 MSTORE PUSH1 0x24 PUSH1 0x0 REVERT JUMPDEST SWAP1 PUSH1 0x0 MSTORE PUSH1 0x20 PUSH1 0x0 KECCAK256 SWAP1 PUSH1 0x2 MUL ADD PUSH1 0x1 ADD PUSH1 0x0 DUP3 DUP3 SLOAD PUSH2 0x499 SWAP2 SWAP1 PUSH2 0x170C JUMP JUMPDEST SWAP3 POP POP DUP2 SWAP1 SSTORE POP POP POP JUMP JUMPDEST PUSH1 0x6 DUP2 DUP2 SLOAD DUP2 LT PUSH2 0x4B4 JUMPI PUSH1 0x0 DUP1 REVERT JUMPDEST SWAP1 PUSH1 0x0 MSTORE PUSH1 0x20 PUSH1 0x0 KECCAK256 SWAP1 PUSH1 0x2 MUL ADD PUSH1 0x0 SWAP2 POP SWAP1 POP DUP1 PUSH1 0x0 ADD DUP1 SLOAD PUSH2 0x4D7 SWAP1 PUSH2 0x1810 JUMP JUMPDEST DUP1 PUSH1 0x1F ADD PUSH1 0x20 DUP1 SWAP2 DIV MUL PUSH1 0x20 ADD PUSH1 0x40 MLOAD SWAP1 DUP2 ADD PUSH1 0x40 MSTORE DUP1 SWAP3 SWAP2 SWAP1 DUP2 DUP2 MSTORE PUSH1 0x20 ADD DUP3 DUP1 SLOAD PUSH2 0x503 SWAP1 PUSH2 0x1810 JUMP JUMPDEST DUP1 ISZERO PUSH2 0x550 JUMPI DUP1 PUSH1 0x1F LT PUSH2 0x525 JUMPI PUSH2 0x100 DUP1 DUP4 SLOAD DIV MUL DUP4 MSTORE SWAP2 PUSH1 0x20 ADD SWAP2 PUSH2 0x550 JUMP JUMPDEST DUP3 ADD SWAP2 SWAP1 PUSH1 0x0 MSTORE PUSH1 0x20 PUSH1 0x0 KECCAK256 SWAP1 JUMPDEST DUP2 SLOAD DUP2 MSTORE SWAP1 PUSH1 0x1 ADD SWAP1 PUSH1 0x20 ADD DUP1 DUP4 GT PUSH2 0x533 JUMPI DUP3 SWAP1 SUB PUSH1 0x1F AND DUP3 ADD SWAP2 JUMPDEST POP POP POP POP POP SWAP1 DUP1 PUSH1 0x1 ADD SLOAD SWAP1 POP DUP3 JUMP JUMPDEST PUSH1 0x0 PUSH1 0x4 SLOAD SWAP1 POP SWAP1 JUMP JUMPDEST PUSH1 0x0 PUSH1 0x7 DUP3 DUP2 SLOAD DUP2 LT PUSH2 0x5A6 JUMPI PUSH32 0x4E487B7100000000000000000000000000000000000000000000000000000000 PUSH1 0x0 MSTORE PUSH1 0x32 PUSH1 0x4 MSTORE PUSH1 0x24 PUSH1 0x0 REVERT JUMPDEST SWAP1 PUSH1 0x0 MSTORE PUSH1 0x20 PUSH1 0x0 KECCAK256 ADD PUSH1 0x0 SWAP1 SLOAD SWAP1 PUSH2 0x100 EXP SWAP1 DIV PUSH20 0xFFFFFFFFFFFFFFFFFFFFFFFFFFFFFFFFFFFFFFFF AND PUSH20 0xFFFFFFFFFFFFFFFFFFFFFFFFFFFFFFFFFFFFFFFF AND PUSH4 0x7A16FCB0 PUSH1 0x40 MLOAD DUP2 PUSH4 0xFFFFFFFF AND PUSH1 0xE0 SHL DUP2 MSTORE PUSH1 0x4 ADD PUSH1 0x20 PUSH1 0x40 MLOAD DUP1 DUP4 SUB DUP2 DUP7 DUP1 EXTCODESIZE ISZERO DUP1 ISZERO PUSH2 0x616 JUMPI PUSH1 0x0 DUP1 REVERT JUMPDEST POP GAS STATICCALL ISZERO DUP1 ISZERO PUSH2 0x62A JUMPI RETURNDATASIZE PUSH1 0x0 DUP1 RETURNDATACOPY RETURNDATASIZE PUSH1 0x0 REVERT JUMPDEST POP POP POP POP PUSH1 0x40 MLOAD RETURNDATASIZE PUSH1 0x1F NOT PUSH1 0x1F DUP3 ADD AND DUP3 ADD DUP1 PUSH1 0x40 MSTORE POP DUP2 ADD SWAP1 PUSH2 0x64E SWAP2 SWAP1 PUSH2 0x1162 JUMP JUMPDEST SWAP1 POP SWAP2 SWAP1 POP JUMP JUMPDEST PUSH1 0x0 PUSH1 0x1 SLOAD SWAP1 POP SWAP1 JUMP JUMPDEST PUSH1 0x0 DUP1 PUSH1 0x0 SWAP1 POP PUSH1 0x0 JUMPDEST PUSH1 0x6 DUP1 SLOAD SWAP1 POP DUP2 LT ISZERO PUSH2 0x72E JUMPI DUP2 PUSH1 0x6 DUP3 DUP2 SLOAD DUP2 LT PUSH2 0x6B1 JUMPI PUSH32 0x4E487B7100000000000000000000000000000000000000000000000000000000 PUSH1 0x0 MSTORE PUSH1 0x32 PUSH1 0x4 MSTORE PUSH1 0x24 PUSH1 0x0 REVERT JUMPDEST SWAP1 PUSH1 0x0 MSTORE PUSH1 0x20 PUSH1 0x0 KECCAK256 SWAP1 PUSH1 0x2 MUL ADD PUSH1 0x1 ADD SLOAD GT ISZERO PUSH2 0x71B JUMPI PUSH1 0x6 DUP2 DUP2 SLOAD DUP2 LT PUSH2 0x703 JUMPI PUSH32 0x4E487B7100000000000000000000000000000000000000000000000000000000 PUSH1 0x0 MSTORE PUSH1 0x32 PUSH1 0x4 MSTORE PUSH1 0x24 PUSH1 0x0 REVERT JUMPDEST SWAP1 PUSH1 0x0 MSTORE PUSH1 0x20 PUSH1 0x0 KECCAK256 SWAP1 PUSH1 0x2 MUL ADD PUSH1 0x1 ADD SLOAD SWAP2 POP DUP1 SWAP3 POP JUMPDEST DUP1 DUP1 PUSH2 0x726 SWAP1 PUSH2 0x1842 JUMP JUMPDEST SWAP2 POP POP PUSH2 0x669 JUMP JUMPDEST POP POP SWAP1 JUMP JUMPDEST PUSH1 0x60 PUSH1 0x6 DUP1 SLOAD DUP1 PUSH1 0x20 MUL PUSH1 0x20 ADD PUSH1 0x40 MLOAD SWAP1 DUP2 ADD PUSH1 0x40 MSTORE DUP1 SWAP3 SWAP2 SWAP1 DUP2 DUP2 MSTORE PUSH1 0x20 ADD PUSH1 0x0 SWAP1 JUMPDEST DUP3 DUP3 LT ISZERO PUSH2 0x825 JUMPI DUP4 DUP3 SWAP1 PUSH1 0x0 MSTORE PUSH1 0x20 PUSH1 0x0 KECCAK256 SWAP1 PUSH1 0x2 MUL ADD PUSH1 0x40 MLOAD DUP1 PUSH1 0x40 ADD PUSH1 0x40 MSTORE SWAP1 DUP2 PUSH1 0x0 DUP3 ADD DUP1 SLOAD PUSH2 0x78A SWAP1 PUSH2 0x1810 JUMP JUMPDEST DUP1 PUSH1 0x1F ADD PUSH1 0x20 DUP1 SWAP2 DIV MUL PUSH1 0x20 ADD PUSH1 0x40 MLOAD SWAP1 DUP2 ADD PUSH1 0x40 MSTORE DUP1 SWAP3 SWAP2 SWAP1 DUP2 DUP2 MSTORE PUSH1 0x20 ADD DUP3 DUP1 SLOAD PUSH2 0x7B6 SWAP1 PUSH2 0x1810 JUMP JUMPDEST DUP1 ISZERO PUSH2 0x803 JUMPI DUP1 PUSH1 0x1F LT PUSH2 0x7D8 JUMPI PUSH2 0x100 DUP1 DUP4 SLOAD DIV MUL DUP4 MSTORE SWAP2 PUSH1 0x20 ADD SWAP2 PUSH2 0x803 JUMP JUMPDEST DUP3 ADD SWAP2 SWAP1 PUSH1 0x0 MSTORE PUSH1 0x20 PUSH1 0x0 KECCAK256 SWAP1 JUMPDEST DUP2 SLOAD DUP2 MSTORE SWAP1 PUSH1 0x1 ADD SWAP1 PUSH1 0x20 ADD DUP1 DUP4 GT PUSH2 0x7E6 JUMPI DUP3 SWAP1 SUB PUSH1 0x1F AND DUP3 ADD SWAP2 JUMPDEST POP POP POP POP POP DUP2 MSTORE PUSH1 0x20 ADD PUSH1 0x1 DUP3 ADD SLOAD DUP2 MSTORE POP POP DUP2 MSTORE PUSH1 0x20 ADD SWAP1 PUSH1 0x1 ADD SWAP1 PUSH2 0x757 JUMP JUMPDEST POP POP POP POP SWAP1 POP SWAP1 JUMP JUMPDEST PUSH1 0x7 DUP2 DUP2 SLOAD DUP2 LT PUSH2 0x83E JUMPI PUSH1 0x0 DUP1 REVERT JUMPDEST SWAP1 PUSH1 0x0 MSTORE PUSH1 0x20 PUSH1 0x0 KECCAK256 ADD PUSH1 0x0 SWAP2 POP SLOAD SWAP1 PUSH2 0x100 EXP SWAP1 DIV PUSH20 0xFFFFFFFFFFFFFFFFFFFFFFFFFFFFFFFFFFFFFFFF AND DUP2 JUMP JUMPDEST DUP1 PUSH1 0x1 DUP2 SWAP1 SSTORE POP POP JUMP JUMPDEST PUSH1 0x7 DUP3 DUP2 SLOAD DUP2 LT PUSH2 0x8B1 JUMPI PUSH32 0x4E487B7100000000000000000000000000000000000000000000000000000000 PUSH1 0x0 MSTORE PUSH1 0x32 PUSH1 0x4 MSTORE PUSH1 0x24 PUSH1 0x0 REVERT JUMPDEST SWAP1 PUSH1 0x0 MSTORE PUSH1 0x20 PUSH1 0x0 KECCAK256 ADD PUSH1 0x0 SWAP1 SLOAD SWAP1 PUSH2 0x100 EXP SWAP1 DIV PUSH20 0xFFFFFFFFFFFFFFFFFFFFFFFFFFFFFFFFFFFFFFFF AND PUSH20 0xFFFFFFFFFFFFFFFFFFFFFFFFFFFFFFFFFFFFFFFF AND PUSH4 0x836BC692 DUP3 PUSH1 0x40 MLOAD DUP3 PUSH4 0xFFFFFFFF AND PUSH1 0xE0 SHL DUP2 MSTORE PUSH1 0x4 ADD PUSH2 0x914 SWAP2 SWAP1 PUSH2 0x14AD JUMP JUMPDEST PUSH1 0x0 PUSH1 0x40 MLOAD DUP1 DUP4 SUB DUP2 PUSH1 0x0 DUP8 DUP1 EXTCODESIZE ISZERO DUP1 ISZERO PUSH2 0x92E JUMPI PUSH1 0x0 DUP1 REVERT JUMPDEST POP GAS CALL ISZERO DUP1 ISZERO PUSH2 0x942 JUMPI RETURNDATASIZE PUSH1 0x0 DUP1 RETURNDATACOPY RETURNDATASIZE PUSH1 0x0 REVERT JUMPDEST POP POP POP POP POP POP JUMP JUMPDEST PUSH1 0x0 PUSH1 0x2 SLOAD SWAP1 POP SWAP1 JUMP JUMPDEST PUSH1 0x0 DUP1 PUSH1 0x0 SWAP1 SLOAD SWAP1 PUSH2 0x100 EXP SWAP1 DIV PUSH20 0xFFFFFFFFFFFFFFFFFFFFFFFFFFFFFFFFFFFFFFFF AND SWAP1 POP SWAP1 JUMP JUMPDEST CALLER PUSH1 0x0 DUP1 PUSH2 0x100 EXP DUP2 SLOAD DUP2 PUSH20 0xFFFFFFFFFFFFFFFFFFFFFFFFFFFFFFFFFFFFFFFF MUL NOT AND SWAP1 DUP4 PUSH20 0xFFFFFFFFFFFFFFFFFFFFFFFFFFFFFFFFFFFFFFFF AND MUL OR SWAP1 SSTORE POP PUSH1 0x1 PUSH1 0x5 PUSH1 0x0 DUP1 PUSH1 0x0 SWAP1 SLOAD SWAP1 PUSH2 0x100 EXP SWAP1 DIV PUSH20 0xFFFFFFFFFFFFFFFFFFFFFFFFFFFFFFFFFFFFFFFF AND PUSH20 0xFFFFFFFFFFFFFFFFFFFFFFFFFFFFFFFFFFFFFFFF AND PUSH20 0xFFFFFFFFFFFFFFFFFFFFFFFFFFFFFFFFFFFFFFFF AND DUP2 MSTORE PUSH1 0x20 ADD SWAP1 DUP2 MSTORE PUSH1 0x20 ADD PUSH1 0x0 KECCAK256 PUSH1 0x0 ADD DUP2 SWAP1 SSTORE POP PUSH1 0x0 PUSH1 0x1 DUP2 SWAP1 SSTORE POP PUSH2 0xA36 PUSH2 0xF38 JUMP JUMPDEST DUP1 MLOAD PUSH1 0x4 DUP2 SWAP1 SSTORE POP PUSH1 0x0 JUMPDEST DUP2 MLOAD DUP2 LT ISZERO PUSH2 0xB07 JUMPI PUSH1 0x6 PUSH1 0x40 MLOAD DUP1 PUSH1 0x40 ADD PUSH1 0x40 MSTORE DUP1 DUP5 DUP5 DUP2 MLOAD DUP2 LT PUSH2 0xA90 JUMPI PUSH32 0x4E487B7100000000000000000000000000000000000000000000000000000000 PUSH1 0x0 MSTORE PUSH1 0x32 PUSH1 0x4 MSTORE PUSH1 0x24 PUSH1 0x0 REVERT JUMPDEST PUSH1 0x20 MUL PUSH1 0x20 ADD ADD MLOAD DUP2 MSTORE PUSH1 0x20 ADD PUSH1 0x0 DUP2 MSTORE POP SWAP1 DUP1 PUSH1 0x1 DUP2 SLOAD ADD DUP1 DUP3 SSTORE DUP1 SWAP2 POP POP PUSH1 0x1 SWAP1 SUB SWAP1 PUSH1 0x0 MSTORE PUSH1 0x20 PUSH1 0x0 KECCAK256 SWAP1 PUSH1 0x2 MUL ADD PUSH1 0x0 SWAP1 SWAP2 SWAP1 SWAP2 SWAP1 SWAP2 POP PUSH1 0x0 DUP3 ADD MLOAD DUP2 PUSH1 0x0 ADD SWAP1 DUP1 MLOAD SWAP1 PUSH1 0x20 ADD SWAP1 PUSH2 0xAE7 SWAP3 SWAP2 SWAP1 PUSH2 0xF41 JUMP JUMPDEST POP PUSH1 0x20 DUP3 ADD MLOAD DUP2 PUSH1 0x1 ADD SSTORE POP POP DUP1 DUP1 PUSH2 0xAFF SWAP1 PUSH2 0x1842 JUMP JUMPDEST SWAP2 POP POP PUSH2 0xA41 JUMP JUMPDEST POP POP JUMP JUMPDEST TIMESTAMP PUSH1 0x3 DUP2 SWAP1 SSTORE POP JUMP JUMPDEST PUSH1 0x0 PUSH1 0x40 MLOAD PUSH2 0xB22 SWAP1 PUSH2 0xFC7 JUMP JUMPDEST PUSH1 0x40 MLOAD DUP1 SWAP2 SUB SWAP1 PUSH1 0x0 CREATE DUP1 ISZERO DUP1 ISZERO PUSH2 0xB3E JUMPI RETURNDATASIZE PUSH1 0x0 DUP1 RETURNDATACOPY RETURNDATASIZE PUSH1 0x0 REVERT JUMPDEST POP SWAP1 POP PUSH1 0x7 DUP2 SWAP1 DUP1 PUSH1 0x1 DUP2 SLOAD ADD DUP1 DUP3 SSTORE DUP1 SWAP2 POP POP PUSH1 0x1 SWAP1 SUB SWAP1 PUSH1 0x0 MSTORE PUSH1 0x20 PUSH1 0x0 KECCAK256 ADD PUSH1 0x0 SWAP1 SWAP2 SWAP1 SWAP2 SWAP1 SWAP2 PUSH2 0x100 EXP DUP2 SLOAD DUP2 PUSH20 0xFFFFFFFFFFFFFFFFFFFFFFFFFFFFFFFFFFFFFFFF MUL NOT AND SWAP1 DUP4 PUSH20 0xFFFFFFFFFFFFFFFFFFFFFFFFFFFFFFFFFFFFFFFF AND MUL OR SWAP1 SSTORE POP POP JUMP JUMPDEST PUSH1 0x0 DUP1 SLOAD SWAP1 PUSH2 0x100 EXP SWAP1 DIV PUSH20 0xFFFFFFFFFFFFFFFFFFFFFFFFFFFFFFFFFFFFFFFF AND PUSH20 0xFFFFFFFFFFFFFFFFFFFFFFFFFFFFFFFFFFFFFFFF AND CALLER PUSH20 0xFFFFFFFFFFFFFFFFFFFFFFFFFFFFFFFFFFFFFFFF AND EQ DUP1 ISZERO PUSH2 0xC4F JUMPI POP PUSH1 0x5 PUSH1 0x0 DUP3 PUSH20 0xFFFFFFFFFFFFFFFFFFFFFFFFFFFFFFFFFFFFFFFF AND PUSH20 0xFFFFFFFFFFFFFFFFFFFFFFFFFFFFFFFFFFFFFFFF AND DUP2 MSTORE PUSH1 0x20 ADD SWAP1 DUP2 MSTORE PUSH1 0x20 ADD PUSH1 0x0 KECCAK256 PUSH1 0x1 ADD PUSH1 0x0 SWAP1 SLOAD SWAP1 PUSH2 0x100 EXP SWAP1 DIV PUSH1 0xFF AND ISZERO JUMPDEST DUP1 ISZERO PUSH2 0xC9D JUMPI POP PUSH1 0x0 PUSH1 0x5 PUSH1 0x0 DUP4 PUSH20 0xFFFFFFFFFFFFFFFFFFFFFFFFFFFFFFFFFFFFFFFF AND PUSH20 0xFFFFFFFFFFFFFFFFFFFFFFFFFFFFFFFFFFFFFFFF AND DUP2 MSTORE PUSH1 0x20 ADD SWAP1 DUP2 MSTORE PUSH1 0x20 ADD PUSH1 0x0 KECCAK256 PUSH1 0x0 ADD SLOAD EQ JUMPDEST PUSH2 0xCA6 JUMPI PUSH1 0x0 DUP1 REVERT JUMPDEST PUSH1 0x1 PUSH1 0x5 PUSH1 0x0 DUP4 PUSH20 0xFFFFFFFFFFFFFFFFFFFFFFFFFFFFFFFFFFFFFFFF AND PUSH20 0xFFFFFFFFFFFFFFFFFFFFFFFFFFFFFFFFFFFFFFFF AND DUP2 MSTORE PUSH1 0x20 ADD SWAP1 DUP2 MSTORE PUSH1 0x20 ADD PUSH1 0x0 KECCAK256 PUSH1 0x0 ADD DUP2 SWAP1 SSTORE POP POP JUMP JUMPDEST PUSH1 0x5 PUSH1 0x20 MSTORE DUP1 PUSH1 0x0 MSTORE PUSH1 0x40 PUSH1 0x0 KECCAK256 PUSH1 0x0 SWAP2 POP SWAP1 POP DUP1 PUSH1 0x0 ADD SLOAD SWAP1 DUP1 PUSH1 0x1 ADD PUSH1 0x0 SWAP1 SLOAD SWAP1 PUSH2 0x100 EXP SWAP1 DIV PUSH1 0xFF AND SWAP1 DUP1 PUSH1 0x1 ADD PUSH1 0x1 SWAP1 SLOAD SWAP1 PUSH2 0x100 EXP SWAP1 DIV PUSH20 0xFFFFFFFFFFFFFFFFFFFFFFFFFFFFFFFFFFFFFFFF AND SWAP1 DUP1 PUSH1 0x2 ADD SLOAD SWAP1 POP DUP5 JUMP JUMPDEST PUSH1 0x0 PUSH1 0x3 SLOAD SWAP1 POP SWAP1 JUMP JUMPDEST PUSH1 0x60 PUSH1 0x6 PUSH2 0xD64 PUSH2 0x65F JUMP JUMPDEST DUP2 SLOAD DUP2 LT PUSH2 0xD9B JUMPI PUSH32 0x4E487B7100000000000000000000000000000000000000000000000000000000 PUSH1 0x0 MSTORE PUSH1 0x32 PUSH1 0x4 MSTORE PUSH1 0x24 PUSH1 0x0 REVERT JUMPDEST SWAP1 PUSH1 0x0 MSTORE PUSH1 0x20 PUSH1 0x0 KECCAK256 SWAP1 PUSH1 0x2 MUL ADD PUSH1 0x0 ADD DUP1 SLOAD PUSH2 0xDB7 SWAP1 PUSH2 0x1810 JUMP JUMPDEST DUP1 PUSH1 0x1F ADD PUSH1 0x20 DUP1 SWAP2 DIV MUL PUSH1 0x20 ADD PUSH1 0x40 MLOAD SWAP1 DUP2 ADD PUSH1 0x40 MSTORE DUP1 SWAP3 SWAP2 SWAP1 DUP2 DUP2 MSTORE PUSH1 0x20 ADD DUP3 DUP1 SLOAD PUSH2 0xDE3 SWAP1 PUSH2 0x1810 JUMP JUMPDEST DUP1 ISZERO PUSH2 0xE30 JUMPI DUP1 PUSH1 0x1F LT PUSH2 0xE05 JUMPI PUSH2 0x100 DUP1 DUP4 SLOAD DIV MUL DUP4 MSTORE SWAP2 PUSH1 0x20 ADD SWAP2 PUSH2 0xE30 JUMP JUMPDEST DUP3 ADD SWAP2 SWAP1 PUSH1 0x0 MSTORE PUSH1 0x20 PUSH1 0x0 KECCAK256 SWAP1 JUMPDEST DUP2 SLOAD DUP2 MSTORE SWAP1 PUSH1 0x1 ADD SWAP1 PUSH1 0x20 ADD DUP1 DUP4 GT PUSH2 0xE13 JUMPI DUP3 SWAP1 SUB PUSH1 0x1F AND DUP3 ADD SWAP2 JUMPDEST POP POP POP POP POP SWAP1 POP SWAP1 JUMP JUMPDEST PUSH2 0xE42 PUSH2 0xFD4 JUMP JUMPDEST PUSH1 0x6 DUP3 DUP2 SLOAD DUP2 LT PUSH2 0xE7C JUMPI PUSH32 0x4E487B7100000000000000000000000000000000000000000000000000000000 PUSH1 0x0 MSTORE PUSH1 0x32 PUSH1 0x4 MSTORE PUSH1 0x24 PUSH1 0x0 REVERT JUMPDEST SWAP1 PUSH1 0x0 MSTORE PUSH1 0x20 PUSH1 0x0 KECCAK256 SWAP1 PUSH1 0x2 MUL ADD PUSH1 0x40 MLOAD DUP1 PUSH1 0x40 ADD PUSH1 0x40 MSTORE SWAP1 DUP2 PUSH1 0x0 DUP3 ADD DUP1 SLOAD PUSH2 0xEA5 SWAP1 PUSH2 0x1810 JUMP JUMPDEST DUP1 PUSH1 0x1F ADD PUSH1 0x20 DUP1 SWAP2 DIV MUL PUSH1 0x20 ADD PUSH1 0x40 MLOAD SWAP1 DUP2 ADD PUSH1 0x40 MSTORE DUP1 SWAP3 SWAP2 SWAP1 DUP2 DUP2 MSTORE PUSH1 0x20 ADD DUP3 DUP1 SLOAD PUSH2 0xED1 SWAP1 PUSH2 0x1810 JUMP JUMPDEST DUP1 ISZERO PUSH2 0xF1E JUMPI DUP1 PUSH1 0x1F LT PUSH2 0xEF3 JUMPI PUSH2 0x100 DUP1 DUP4 SLOAD DIV MUL DUP4 MSTORE SWAP2 PUSH1 0x20 ADD SWAP2 PUSH2 0xF1E JUMP JUMPDEST DUP3 ADD SWAP2 SWAP1 PUSH1 0x0 MSTORE PUSH1 0x20 PUSH1 0x0 KECCAK256 SWAP1 JUMPDEST DUP2 SLOAD DUP2 MSTORE SWAP1 PUSH1 0x1 ADD SWAP1 PUSH1 0x20 ADD DUP1 DUP4 GT PUSH2 0xF01 JUMPI DUP3 SWAP1 SUB PUSH1 0x1F AND DUP3 ADD SWAP2 JUMPDEST POP POP POP POP POP DUP2 MSTORE PUSH1 0x20 ADD PUSH1 0x1 DUP3 ADD SLOAD DUP2 MSTORE POP POP SWAP1 POP SWAP2 SWAP1 POP JUMP JUMPDEST TIMESTAMP PUSH1 0x2 DUP2 SWAP1 SSTORE POP JUMP JUMPDEST DUP3 DUP1 SLOAD PUSH2 0xF4D SWAP1 PUSH2 0x1810 JUMP JUMPDEST SWAP1 PUSH1 0x0 MSTORE PUSH1 0x20 PUSH1 0x0 KECCAK256 SWAP1 PUSH1 0x1F ADD PUSH1 0x20 SWAP1 DIV DUP2 ADD SWAP3 DUP3 PUSH2 0xF6F JUMPI PUSH1 0x0 DUP6 SSTORE PUSH2 0xFB6 JUMP JUMPDEST DUP3 PUSH1 0x1F LT PUSH2 0xF88 JUMPI DUP1 MLOAD PUSH1 0xFF NOT AND DUP4 DUP1 ADD OR DUP6 SSTORE PUSH2 0xFB6 JUMP JUMPDEST DUP3 DUP1 ADD PUSH1 0x1 ADD DUP6 SSTORE DUP3 ISZERO PUSH2 0xFB6 JUMPI SWAP2 DUP3 ADD JUMPDEST DUP3 DUP2 GT ISZERO PUSH2 0xFB5 JUMPI DUP3 MLOAD DUP3 SSTORE SWAP2 PUSH1 0x20 ADD SWAP2 SWAP1 PUSH1 0x1 ADD SWAP1 PUSH2 0xF9A JUMP JUMPDEST JUMPDEST POP SWAP1 POP PUSH2 0xFC3 SWAP2 SWAP1 PUSH2 0xFEE JUMP JUMPDEST POP SWAP1 JUMP JUMPDEST PUSH2 0x149A DUP1 PUSH2 0x1958 DUP4 CODECOPY ADD SWAP1 JUMP JUMPDEST PUSH1 0x40 MLOAD DUP1 PUSH1 0x40 ADD PUSH1 0x40 MSTORE DUP1 PUSH1 0x60 DUP2 MSTORE PUSH1 0x20 ADD PUSH1 0x0 DUP2 MSTORE POP SWAP1 JUMP JUMPDEST JUMPDEST DUP1 DUP3 GT ISZERO PUSH2 0x1007 JUMPI PUSH1 0x0 DUP2 PUSH1 0x0 SWAP1 SSTORE POP PUSH1 0x1 ADD PUSH2 0xFEF JUMP JUMPDEST POP SWAP1 JUMP JUMPDEST PUSH1 0x0 PUSH2 0x101E PUSH2 0x1019 DUP5 PUSH2 0x1611 JUMP JUMPDEST PUSH2 0x15E0 JUMP JUMPDEST SWAP1 POP DUP1 DUP4 DUP3 MSTORE PUSH1 0x20 DUP3 ADD SWAP1 POP DUP3 PUSH1 0x0 JUMPDEST DUP6 DUP2 LT ISZERO PUSH2 0x105E JUMPI DUP2 CALLDATALOAD DUP6 ADD PUSH2 0x1044 DUP9 DUP3 PUSH2 0x10FA JUMP JUMPDEST DUP5 MSTORE PUSH1 0x20 DUP5 ADD SWAP4 POP PUSH1 0x20 DUP4 ADD SWAP3 POP POP PUSH1 0x1 DUP2 ADD SWAP1 POP PUSH2 0x102E JUMP JUMPDEST POP POP POP SWAP4 SWAP3 POP POP POP JUMP JUMPDEST PUSH1 0x0 PUSH2 0x107B PUSH2 0x1076 DUP5 PUSH2 0x163D JUMP JUMPDEST PUSH2 0x15E0 JUMP JUMPDEST SWAP1 POP DUP3 DUP2 MSTORE PUSH1 0x20 DUP2 ADD DUP5 DUP5 DUP5 ADD GT ISZERO PUSH2 0x1093 JUMPI PUSH1 0x0 DUP1 REVERT JUMPDEST PUSH2 0x109E DUP5 DUP3 DUP6 PUSH2 0x17CE JUMP JUMPDEST POP SWAP4 SWAP3 POP POP POP JUMP JUMPDEST PUSH1 0x0 DUP2 CALLDATALOAD SWAP1 POP PUSH2 0x10B5 DUP2 PUSH2 0x1929 JUMP JUMPDEST SWAP3 SWAP2 POP POP JUMP JUMPDEST PUSH1 0x0 DUP2 MLOAD SWAP1 POP PUSH2 0x10CA DUP2 PUSH2 0x1929 JUMP JUMPDEST SWAP3 SWAP2 POP POP JUMP JUMPDEST PUSH1 0x0 DUP3 PUSH1 0x1F DUP4 ADD SLT PUSH2 0x10E1 JUMPI PUSH1 0x0 DUP1 REVERT JUMPDEST DUP2 CALLDATALOAD PUSH2 0x10F1 DUP5 DUP3 PUSH1 0x20 DUP7 ADD PUSH2 0x100B JUMP JUMPDEST SWAP2 POP POP SWAP3 SWAP2 POP POP JUMP JUMPDEST PUSH1 0x0 DUP3 PUSH1 0x1F DUP4 ADD SLT PUSH2 0x110B JUMPI PUSH1 0x0 DUP1 REVERT JUMPDEST DUP2 CALLDATALOAD PUSH2 0x111B DUP5 DUP3 PUSH1 0x20 DUP7 ADD PUSH2 0x1068 JUMP JUMPDEST SWAP2 POP POP SWAP3 SWAP2 POP POP JUMP JUMPDEST PUSH1 0x0 DUP2 CALLDATALOAD SWAP1 POP PUSH2 0x1133 DUP2 PUSH2 0x1940 JUMP JUMPDEST SWAP3 SWAP2 POP POP JUMP JUMPDEST PUSH1 0x0 PUSH1 0x20 DUP3 DUP5 SUB SLT ISZERO PUSH2 0x114B JUMPI PUSH1 0x0 DUP1 REVERT JUMPDEST PUSH1 0x0 PUSH2 0x1159 DUP5 DUP3 DUP6 ADD PUSH2 0x10A6 JUMP JUMPDEST SWAP2 POP POP SWAP3 SWAP2 POP POP JUMP JUMPDEST PUSH1 0x0 PUSH1 0x20 DUP3 DUP5 SUB SLT ISZERO PUSH2 0x1174 JUMPI PUSH1 0x0 DUP1 REVERT JUMPDEST PUSH1 0x0 PUSH2 0x1182 DUP5 DUP3 DUP6 ADD PUSH2 0x10BB JUMP JUMPDEST SWAP2 POP POP SWAP3 SWAP2 POP POP JUMP JUMPDEST PUSH1 0x0 PUSH1 0x20 DUP3 DUP5 SUB SLT ISZERO PUSH2 0x119D JUMPI PUSH1 0x0 DUP1 REVERT JUMPDEST PUSH1 0x0 DUP3 ADD CALLDATALOAD PUSH8 0xFFFFFFFFFFFFFFFF DUP2 GT ISZERO PUSH2 0x11B7 JUMPI PUSH1 0x0 DUP1 REVERT JUMPDEST PUSH2 0x11C3 DUP5 DUP3 DUP6 ADD PUSH2 0x10D0 JUMP JUMPDEST SWAP2 POP POP SWAP3 SWAP2 POP POP JUMP JUMPDEST PUSH1 0x0 PUSH1 0x20 DUP3 DUP5 SUB SLT ISZERO PUSH2 0x11DE JUMPI PUSH1 0x0 DUP1 REVERT JUMPDEST PUSH1 0x0 PUSH2 0x11EC DUP5 DUP3 DUP6 ADD PUSH2 0x1124 JUMP JUMPDEST SWAP2 POP POP SWAP3 SWAP2 POP POP JUMP JUMPDEST PUSH1 0x0 DUP1 PUSH1 0x40 DUP4 DUP6 SUB SLT ISZERO PUSH2 0x1208 JUMPI PUSH1 0x0 DUP1 REVERT JUMPDEST PUSH1 0x0 PUSH2 0x1216 DUP6 DUP3 DUP7 ADD PUSH2 0x1124 JUMP JUMPDEST SWAP3 POP POP PUSH1 0x20 DUP4 ADD CALLDATALOAD PUSH8 0xFFFFFFFFFFFFFFFF DUP2 GT ISZERO PUSH2 0x1233 JUMPI PUSH1 0x0 DUP1 REVERT JUMPDEST PUSH2 0x123F DUP6 DUP3 DUP7 ADD PUSH2 0x10D0 JUMP JUMPDEST SWAP2 POP POP SWAP3 POP SWAP3 SWAP1 POP JUMP JUMPDEST PUSH1 0x0 PUSH2 0x1255 DUP4 DUP4 PUSH2 0x1388 JUMP JUMPDEST SWAP1 POP SWAP3 SWAP2 POP POP JUMP JUMPDEST PUSH1 0x0 PUSH2 0x1269 DUP4 DUP4 PUSH2 0x13FA JUMP JUMPDEST SWAP1 POP SWAP3 SWAP2 POP POP JUMP JUMPDEST PUSH2 0x127A DUP2 PUSH2 0x1762 JUMP JUMPDEST DUP3 MSTORE POP POP JUMP JUMPDEST PUSH1 0x0 PUSH2 0x128B DUP3 PUSH2 0x168D JUMP JUMPDEST PUSH2 0x1295 DUP2 DUP6 PUSH2 0x16C8 JUMP JUMPDEST SWAP4 POP DUP4 PUSH1 0x20 DUP3 MUL DUP6 ADD PUSH2 0x12A7 DUP6 PUSH2 0x166D JUMP JUMPDEST DUP1 PUSH1 0x0 JUMPDEST DUP6 DUP2 LT ISZERO PUSH2 0x12E3 JUMPI DUP5 DUP5 SUB DUP10 MSTORE DUP2 MLOAD PUSH2 0x12C4 DUP6 DUP3 PUSH2 0x1249 JUMP JUMPDEST SWAP5 POP PUSH2 0x12CF DUP4 PUSH2 0x16AE JUMP JUMPDEST SWAP3 POP PUSH1 0x20 DUP11 ADD SWAP10 POP POP PUSH1 0x1 DUP2 ADD SWAP1 POP PUSH2 0x12AB JUMP JUMPDEST POP DUP3 SWAP8 POP DUP8 SWAP6 POP POP POP POP POP POP SWAP3 SWAP2 POP POP JUMP JUMPDEST PUSH1 0x0 PUSH2 0x1300 DUP3 PUSH2 0x1698 JUMP JUMPDEST PUSH2 0x130A DUP2 DUP6 PUSH2 0x16D9 JUMP JUMPDEST SWAP4 POP DUP4 PUSH1 0x20 DUP3 MUL DUP6 ADD PUSH2 0x131C DUP6 PUSH2 0x167D JUMP JUMPDEST DUP1 PUSH1 0x0 JUMPDEST DUP6 DUP2 LT ISZERO PUSH2 0x1358 JUMPI DUP5 DUP5 SUB DUP10 MSTORE DUP2 MLOAD PUSH2 0x1339 DUP6 DUP3 PUSH2 0x125D JUMP JUMPDEST SWAP5 POP PUSH2 0x1344 DUP4 PUSH2 0x16BB JUMP JUMPDEST SWAP3 POP PUSH1 0x20 DUP11 ADD SWAP10 POP POP PUSH1 0x1 DUP2 ADD SWAP1 POP PUSH2 0x1320 JUMP JUMPDEST POP DUP3 SWAP8 POP DUP8 SWAP6 POP POP POP POP POP POP SWAP3 SWAP2 POP POP JUMP JUMPDEST PUSH2 0x1373 DUP2 PUSH2 0x1774 JUMP JUMPDEST DUP3 MSTORE POP POP JUMP JUMPDEST PUSH2 0x1382 DUP2 PUSH2 0x17AA JUMP JUMPDEST DUP3 MSTORE POP POP JUMP JUMPDEST PUSH1 0x0 PUSH2 0x1393 DUP3 PUSH2 0x16A3 JUMP JUMPDEST PUSH2 0x139D DUP2 DUP6 PUSH2 0x16EA JUMP JUMPDEST SWAP4 POP PUSH2 0x13AD DUP2 DUP6 PUSH1 0x20 DUP7 ADD PUSH2 0x17DD JUMP JUMPDEST PUSH2 0x13B6 DUP2 PUSH2 0x1918 JUMP JUMPDEST DUP5 ADD SWAP2 POP POP SWAP3 SWAP2 POP POP JUMP JUMPDEST PUSH1 0x0 PUSH2 0x13CC DUP3 PUSH2 0x16A3 JUMP JUMPDEST PUSH2 0x13D6 DUP2 DUP6 PUSH2 0x16FB JUMP JUMPDEST SWAP4 POP PUSH2 0x13E6 DUP2 DUP6 PUSH1 0x20 DUP7 ADD PUSH2 0x17DD JUMP JUMPDEST PUSH2 0x13EF DUP2 PUSH2 0x1918 JUMP JUMPDEST DUP5 ADD SWAP2 POP POP SWAP3 SWAP2 POP POP JUMP JUMPDEST PUSH1 0x0 PUSH1 0x40 DUP4 ADD PUSH1 0x0 DUP4 ADD MLOAD DUP5 DUP3 SUB PUSH1 0x0 DUP7 ADD MSTORE PUSH2 0x1417 DUP3 DUP3 PUSH2 0x1388 JUMP JUMPDEST SWAP2 POP POP PUSH1 0x20 DUP4 ADD MLOAD PUSH2 0x142C PUSH1 0x20 DUP7 ADD DUP3 PUSH2 0x1474 JUMP JUMPDEST POP DUP1 SWAP2 POP POP SWAP3 SWAP2 POP POP JUMP JUMPDEST PUSH1 0x0 PUSH1 0x40 DUP4 ADD PUSH1 0x0 DUP4 ADD MLOAD DUP5 DUP3 SUB PUSH1 0x0 DUP7 ADD MSTORE PUSH2 0x1454 DUP3 DUP3 PUSH2 0x1388 JUMP JUMPDEST SWAP2 POP POP PUSH1 0x20 DUP4 ADD MLOAD PUSH2 0x1469 PUSH1 0x20 DUP7 ADD DUP3 PUSH2 0x1474 JUMP JUMPDEST POP DUP1 SWAP2 POP POP SWAP3 SWAP2 POP POP JUMP JUMPDEST PUSH2 0x147D DUP2 PUSH2 0x17A0 JUMP JUMPDEST DUP3 MSTORE POP POP JUMP JUMPDEST PUSH2 0x148C DUP2 PUSH2 0x17A0 JUMP JUMPDEST DUP3 MSTORE POP POP JUMP JUMPDEST PUSH1 0x0 PUSH1 0x20 DUP3 ADD SWAP1 POP PUSH2 0x14A7 PUSH1 0x0 DUP4 ADD DUP5 PUSH2 0x1271 JUMP JUMPDEST SWAP3 SWAP2 POP POP JUMP JUMPDEST PUSH1 0x0 PUSH1 0x20 DUP3 ADD SWAP1 POP DUP2 DUP2 SUB PUSH1 0x0 DUP4 ADD MSTORE PUSH2 0x14C7 DUP2 DUP5 PUSH2 0x1280 JUMP JUMPDEST SWAP1 POP SWAP3 SWAP2 POP POP JUMP JUMPDEST PUSH1 0x0 PUSH1 0x20 DUP3 ADD SWAP1 POP DUP2 DUP2 SUB PUSH1 0x0 DUP4 ADD MSTORE PUSH2 0x14E9 DUP2 DUP5 PUSH2 0x12F5 JUMP JUMPDEST SWAP1 POP SWAP3 SWAP2 POP POP JUMP JUMPDEST PUSH1 0x0 PUSH1 0x20 DUP3 ADD SWAP1 POP PUSH2 0x1506 PUSH1 0x0 DUP4 ADD DUP5 PUSH2 0x1379 JUMP JUMPDEST SWAP3 SWAP2 POP POP JUMP JUMPDEST PUSH1 0x0 PUSH1 0x20 DUP3 ADD SWAP1 POP DUP2 DUP2 SUB PUSH1 0x0 DUP4 ADD MSTORE PUSH2 0x1526 DUP2 DUP5 PUSH2 0x13C1 JUMP JUMPDEST SWAP1 POP SWAP3 SWAP2 POP POP JUMP JUMPDEST PUSH1 0x0 PUSH1 0x40 DUP3 ADD SWAP1 POP DUP2 DUP2 SUB PUSH1 0x0 DUP4 ADD MSTORE PUSH2 0x1548 DUP2 DUP6 PUSH2 0x13C1 JUMP JUMPDEST SWAP1 POP PUSH2 0x1557 PUSH1 0x20 DUP4 ADD DUP5 PUSH2 0x1483 JUMP JUMPDEST SWAP4 SWAP3 POP POP POP JUMP JUMPDEST PUSH1 0x0 PUSH1 0x20 DUP3 ADD SWAP1 POP DUP2 DUP2 SUB PUSH1 0x0 DUP4 ADD MSTORE PUSH2 0x1578 DUP2 DUP5 PUSH2 0x1437 JUMP JUMPDEST SWAP1 POP SWAP3 SWAP2 POP POP JUMP JUMPDEST PUSH1 0x0 PUSH1 0x20 DUP3 ADD SWAP1 POP PUSH2 0x1595 PUSH1 0x0 DUP4 ADD DUP5 PUSH2 0x1483 JUMP JUMPDEST SWAP3 SWAP2 POP POP JUMP JUMPDEST PUSH1 0x0 PUSH1 0x80 DUP3 ADD SWAP1 POP PUSH2 0x15B0 PUSH1 0x0 DUP4 ADD DUP8 PUSH2 0x1483 JUMP JUMPDEST PUSH2 0x15BD PUSH1 0x20 DUP4 ADD DUP7 PUSH2 0x136A JUMP JUMPDEST PUSH2 0x15CA PUSH1 0x40 DUP4 ADD DUP6 PUSH2 0x1271 JUMP JUMPDEST PUSH2 0x15D7 PUSH1 0x60 DUP4 ADD DUP5 PUSH2 0x1483 JUMP JUMPDEST SWAP6 SWAP5 POP POP POP POP POP JUMP JUMPDEST PUSH1 0x0 PUSH1 0x40 MLOAD SWAP1 POP DUP2 DUP2 ADD DUP2 DUP2 LT PUSH8 0xFFFFFFFFFFFFFFFF DUP3 GT OR ISZERO PUSH2 0x1607 JUMPI PUSH2 0x1606 PUSH2 0x18E9 JUMP JUMPDEST JUMPDEST DUP1 PUSH1 0x40 MSTORE POP SWAP2 SWAP1 POP JUMP JUMPDEST PUSH1 0x0 PUSH8 0xFFFFFFFFFFFFFFFF DUP3 GT ISZERO PUSH2 0x162C JUMPI PUSH2 0x162B PUSH2 0x18E9 JUMP JUMPDEST JUMPDEST PUSH1 0x20 DUP3 MUL SWAP1 POP PUSH1 0x20 DUP2 ADD SWAP1 POP SWAP2 SWAP1 POP JUMP JUMPDEST PUSH1 0x0 PUSH8 0xFFFFFFFFFFFFFFFF DUP3 GT ISZERO PUSH2 0x1658 JUMPI PUSH2 0x1657 PUSH2 0x18E9 JUMP JUMPDEST JUMPDEST PUSH1 0x1F NOT PUSH1 0x1F DUP4 ADD AND SWAP1 POP PUSH1 0x20 DUP2 ADD SWAP1 POP SWAP2 SWAP1 POP JUMP JUMPDEST PUSH1 0x0 DUP2 SWAP1 POP PUSH1 0x20 DUP3 ADD SWAP1 POP SWAP2 SWAP1 POP JUMP JUMPDEST PUSH1 0x0 DUP2 SWAP1 POP PUSH1 0x20 DUP3 ADD SWAP1 POP SWAP2 SWAP1 POP JUMP JUMPDEST PUSH1 0x0 DUP2 MLOAD SWAP1 POP SWAP2 SWAP1 POP JUMP JUMPDEST PUSH1 0x0 DUP2 MLOAD SWAP1 POP SWAP2 SWAP1 POP JUMP JUMPDEST PUSH1 0x0 DUP2 MLOAD SWAP1 POP SWAP2 SWAP1 POP JUMP JUMPDEST PUSH1 0x0 PUSH1 0x20 DUP3 ADD SWAP1 POP SWAP2 SWAP1 POP JUMP JUMPDEST PUSH1 0x0 PUSH1 0x20 DUP3 ADD SWAP1 POP SWAP2 SWAP1 POP JUMP JUMPDEST PUSH1 0x0 DUP3 DUP3 MSTORE PUSH1 0x20 DUP3 ADD SWAP1 POP SWAP3 SWAP2 POP POP JUMP JUMPDEST PUSH1 0x0 DUP3 DUP3 MSTORE PUSH1 0x20 DUP3 ADD SWAP1 POP SWAP3 SWAP2 POP POP JUMP JUMPDEST PUSH1 0x0 DUP3 DUP3 MSTORE PUSH1 0x20 DUP3 ADD SWAP1 POP SWAP3 SWAP2 POP POP JUMP JUMPDEST PUSH1 0x0 DUP3 DUP3 MSTORE PUSH1 0x20 DUP3 ADD SWAP1 POP SWAP3 SWAP2 POP POP JUMP JUMPDEST PUSH1 0x0 PUSH2 0x1717 DUP3 PUSH2 0x17A0 JUMP JUMPDEST SWAP2 POP PUSH2 0x1722 DUP4 PUSH2 0x17A0 JUMP JUMPDEST SWAP3 POP DUP3 PUSH32 0xFFFFFFFFFFFFFFFFFFFFFFFFFFFFFFFFFFFFFFFFFFFFFFFFFFFFFFFFFFFFFFFF SUB DUP3 GT ISZERO PUSH2 0x1757 JUMPI PUSH2 0x1756 PUSH2 0x188B JUMP JUMPDEST JUMPDEST DUP3 DUP3 ADD SWAP1 POP SWAP3 SWAP2 POP POP JUMP JUMPDEST PUSH1 0x0 PUSH2 0x176D DUP3 PUSH2 0x1780 JUMP JUMPDEST SWAP1 POP SWAP2 SWAP1 POP JUMP JUMPDEST PUSH1 0x0 DUP2 ISZERO ISZERO SWAP1 POP SWAP2 SWAP1 POP JUMP JUMPDEST PUSH1 0x0 PUSH20 0xFFFFFFFFFFFFFFFFFFFFFFFFFFFFFFFFFFFFFFFF DUP3 AND SWAP1 POP SWAP2 SWAP1 POP JUMP JUMPDEST PUSH1 0x0 DUP2 SWAP1 POP SWAP2 SWAP1 POP JUMP JUMPDEST PUSH1 0x0 PUSH2 0x17B5 DUP3 PUSH2 0x17BC JUMP JUMPDEST SWAP1 POP SWAP2 SWAP1 POP JUMP JUMPDEST PUSH1 0x0 PUSH2 0x17C7 DUP3 PUSH2 0x1780 JUMP JUMPDEST SWAP1 POP SWAP2 SWAP1 POP JUMP JUMPDEST DUP3 DUP2 DUP4 CALLDATACOPY PUSH1 0x0 DUP4 DUP4 ADD MSTORE POP POP POP JUMP JUMPDEST PUSH1 0x0 JUMPDEST DUP4 DUP2 LT ISZERO PUSH2 0x17FB JUMPI DUP1 DUP3 ADD MLOAD DUP2 DUP5 ADD MSTORE PUSH1 0x20 DUP2 ADD SWAP1 POP PUSH2 0x17E0 JUMP JUMPDEST DUP4 DUP2 GT ISZERO PUSH2 0x180A JUMPI PUSH1 0x0 DUP5 DUP5 ADD MSTORE JUMPDEST POP POP POP POP JUMP JUMPDEST PUSH1 0x0 PUSH1 0x2 DUP3 DIV SWAP1 POP PUSH1 0x1 DUP3 AND DUP1 PUSH2 0x1828 JUMPI PUSH1 0x7F DUP3 AND SWAP2 POP JUMPDEST PUSH1 0x20 DUP3 LT DUP2 EQ ISZERO PUSH2 0x183C JUMPI PUSH2 0x183B PUSH2 0x18BA JUMP JUMPDEST JUMPDEST POP SWAP2 SWAP1 POP JUMP JUMPDEST PUSH1 0x0 PUSH2 0x184D DUP3 PUSH2 0x17A0 JUMP JUMPDEST SWAP2 POP PUSH32 0xFFFFFFFFFFFFFFFFFFFFFFFFFFFFFFFFFFFFFFFFFFFFFFFFFFFFFFFFFFFFFFFF DUP3 EQ ISZERO PUSH2 0x1880 JUMPI PUSH2 0x187F PUSH2 0x188B JUMP JUMPDEST JUMPDEST PUSH1 0x1 DUP3 ADD SWAP1 POP SWAP2 SWAP1 POP JUMP JUMPDEST PUSH32 0x4E487B7100000000000000000000000000000000000000000000000000000000 PUSH1 0x0 MSTORE PUSH1 0x11 PUSH1 0x4 MSTORE PUSH1 0x24 PUSH1 0x0 REVERT JUMPDEST PUSH32 0x4E487B7100000000000000000000000000000000000000000000000000000000 PUSH1 0x0 MSTORE PUSH1 0x22 PUSH1 0x4 MSTORE PUSH1 0x24 PUSH1 0x0 REVERT JUMPDEST PUSH32 0x4E487B7100000000000000000000000000000000000000000000000000000000 PUSH1 0x0 MSTORE PUSH1 0x41 PUSH1 0x4 MSTORE PUSH1 0x24 PUSH1 0x0 REVERT JUMPDEST PUSH1 0x0 PUSH1 0x1F NOT PUSH1 0x1F DUP4 ADD AND SWAP1 POP SWAP2 SWAP1 POP JUMP JUMPDEST PUSH2 0x1932 DUP2 PUSH2 0x1762 JUMP JUMPDEST DUP2 EQ PUSH2 0x193D JUMPI PUSH1 0x0 DUP1 REVERT JUMPDEST POP JUMP JUMPDEST PUSH2 0x1949 DUP2 PUSH2 0x17A0 JUMP JUMPDEST DUP2 EQ PUSH2 0x1954 JUMPI PUSH1 0x0 DUP1 REVERT JUMPDEST POP JUMP INVALID PUSH1 0x80 PUSH1 0x40 MSTORE CALLVALUE DUP1 ISZERO PUSH2 0x10 JUMPI PUSH1 0x0 DUP1 REVERT JUMPDEST POP PUSH2 0x147A DUP1 PUSH2 0x20 PUSH1 0x0 CODECOPY PUSH1 0x0 RETURN INVALID PUSH1 0x80 PUSH1 0x40 MSTORE CALLVALUE DUP1 ISZERO PUSH2 0x10 JUMPI PUSH1 0x0 DUP1 REVERT JUMPDEST POP PUSH1 0x4 CALLDATASIZE LT PUSH2 0x100 JUMPI PUSH1 0x0 CALLDATALOAD PUSH1 0xE0 SHR DUP1 PUSH4 0x7A16FCB0 GT PUSH2 0x97 JUMPI DUP1 PUSH4 0xA3EC138D GT PUSH2 0x66 JUMPI DUP1 PUSH4 0xA3EC138D EQ PUSH2 0x264 JUMPI DUP1 PUSH4 0xB1356488 EQ PUSH2 0x297 JUMPI DUP1 PUSH4 0xE2BA53F0 EQ PUSH2 0x2B5 JUMPI DUP1 PUSH4 0xE9D6C6DA EQ PUSH2 0x2D3 JUMPI PUSH2 0x100 JUMP JUMPDEST DUP1 PUSH4 0x7A16FCB0 EQ PUSH2 0x204 JUMPI DUP1 PUSH4 0x836BC692 EQ PUSH2 0x222 JUMPI DUP1 PUSH4 0x86278E77 EQ PUSH2 0x23E JUMPI DUP1 PUSH4 0x9E7B8D61 EQ PUSH2 0x248 JUMPI PUSH2 0x100 JUMP JUMPDEST DUP1 PUSH4 0x609FF1BD GT PUSH2 0xD3 JUMPI DUP1 PUSH4 0x609FF1BD EQ PUSH2 0x18E JUMPI DUP1 PUSH4 0x62564C48 EQ PUSH2 0x1AC JUMPI DUP1 PUSH4 0x69BA1A75 EQ PUSH2 0x1CA JUMPI DUP1 PUSH4 0x78F305C6 EQ PUSH2 0x1E6 JUMPI PUSH2 0x100 JUMP JUMPDEST DUP1 PUSH4 0x121B93F EQ PUSH2 0x105 JUMPI DUP1 PUSH4 0x13CF08B EQ PUSH2 0x121 JUMPI DUP1 PUSH4 0xA82DCB1 EQ PUSH2 0x152 JUMPI DUP1 PUSH4 0x4E69D560 EQ PUSH2 0x170 JUMPI JUMPDEST PUSH1 0x0 DUP1 REVERT JUMPDEST PUSH2 0x11F PUSH1 0x4 DUP1 CALLDATASIZE SUB DUP2 ADD SWAP1 PUSH2 0x11A SWAP2 SWAP1 PUSH2 0xE3F JUMP JUMPDEST PUSH2 0x303 JUMP JUMPDEST STOP JUMPDEST PUSH2 0x13B PUSH1 0x4 DUP1 CALLDATASIZE SUB DUP2 ADD SWAP1 PUSH2 0x136 SWAP2 SWAP1 PUSH2 0xE3F JUMP JUMPDEST PUSH2 0x3F2 JUMP JUMPDEST PUSH1 0x40 MLOAD PUSH2 0x149 SWAP3 SWAP2 SWAP1 PUSH2 0x1078 JUMP JUMPDEST PUSH1 0x40 MLOAD DUP1 SWAP2 SUB SWAP1 RETURN JUMPDEST PUSH2 0x15A PUSH2 0x4AE JUMP JUMPDEST PUSH1 0x40 MLOAD PUSH2 0x167 SWAP2 SWAP1 PUSH2 0x10CA JUMP JUMPDEST PUSH1 0x40 MLOAD DUP1 SWAP2 SUB SWAP1 RETURN JUMPDEST PUSH2 0x178 PUSH2 0x4B8 JUMP JUMPDEST PUSH1 0x40 MLOAD PUSH2 0x185 SWAP2 SWAP1 PUSH2 0x10CA JUMP JUMPDEST PUSH1 0x40 MLOAD DUP1 SWAP2 SUB SWAP1 RETURN JUMPDEST PUSH2 0x196 PUSH2 0x4C2 JUMP JUMPDEST PUSH1 0x40 MLOAD PUSH2 0x1A3 SWAP2 SWAP1 PUSH2 0x10CA JUMP JUMPDEST PUSH1 0x40 MLOAD DUP1 SWAP2 SUB SWAP1 RETURN JUMPDEST PUSH2 0x1B4 PUSH2 0x596 JUMP JUMPDEST PUSH1 0x40 MLOAD PUSH2 0x1C1 SWAP2 SWAP1 PUSH2 0x1034 JUMP JUMPDEST PUSH1 0x40 MLOAD DUP1 SWAP2 SUB SWAP1 RETURN JUMPDEST PUSH2 0x1E4 PUSH1 0x4 DUP1 CALLDATASIZE SUB DUP2 ADD SWAP1 PUSH2 0x1DF SWAP2 SWAP1 PUSH2 0xE3F JUMP JUMPDEST PUSH2 0x691 JUMP JUMPDEST STOP JUMPDEST PUSH2 0x1EE PUSH2 0x69B JUMP JUMPDEST PUSH1 0x40 MLOAD PUSH2 0x1FB SWAP2 SWAP1 PUSH2 0x10CA JUMP JUMPDEST PUSH1 0x40 MLOAD DUP1 SWAP2 SUB SWAP1 RETURN JUMPDEST PUSH2 0x20C PUSH2 0x6A5 JUMP JUMPDEST PUSH1 0x40 MLOAD PUSH2 0x219 SWAP2 SWAP1 PUSH2 0x1019 JUMP JUMPDEST PUSH1 0x40 MLOAD DUP1 SWAP2 SUB SWAP1 RETURN JUMPDEST PUSH2 0x23C PUSH1 0x4 DUP1 CALLDATASIZE SUB DUP2 ADD SWAP1 PUSH2 0x237 SWAP2 SWAP1 PUSH2 0xDFE JUMP JUMPDEST PUSH2 0x6CE JUMP JUMPDEST STOP JUMPDEST PUSH2 0x246 PUSH2 0x85C JUMP JUMPDEST STOP JUMPDEST PUSH2 0x262 PUSH1 0x4 DUP1 CALLDATASIZE SUB DUP2 ADD SWAP1 PUSH2 0x25D SWAP2 SWAP1 PUSH2 0xDD5 JUMP JUMPDEST PUSH2 0x865 JUMP JUMPDEST STOP JUMPDEST PUSH2 0x27E PUSH1 0x4 DUP1 CALLDATASIZE SUB DUP2 ADD SWAP1 PUSH2 0x279 SWAP2 SWAP1 PUSH2 0xDD5 JUMP JUMPDEST PUSH2 0x9AF JUMP JUMPDEST PUSH1 0x40 MLOAD PUSH2 0x28E SWAP5 SWAP4 SWAP3 SWAP2 SWAP1 PUSH2 0x10E5 JUMP JUMPDEST PUSH1 0x40 MLOAD DUP1 SWAP2 SUB SWAP1 RETURN JUMPDEST PUSH2 0x29F PUSH2 0xA0C JUMP JUMPDEST PUSH1 0x40 MLOAD PUSH2 0x2AC SWAP2 SWAP1 PUSH2 0x10CA JUMP JUMPDEST PUSH1 0x40 MLOAD DUP1 SWAP2 SUB SWAP1 RETURN JUMPDEST PUSH2 0x2BD PUSH2 0xA16 JUMP JUMPDEST PUSH1 0x40 MLOAD PUSH2 0x2CA SWAP2 SWAP1 PUSH2 0x1056 JUMP JUMPDEST PUSH1 0x40 MLOAD DUP1 SWAP2 SUB SWAP1 RETURN JUMPDEST PUSH2 0x2ED PUSH1 0x4 DUP1 CALLDATASIZE SUB DUP2 ADD SWAP1 PUSH2 0x2E8 SWAP2 SWAP1 PUSH2 0xE3F JUMP JUMPDEST PUSH2 0xAF8 JUMP JUMPDEST PUSH1 0x40 MLOAD PUSH2 0x2FA SWAP2 SWAP1 PUSH2 0x10A8 JUMP JUMPDEST PUSH1 0x40 MLOAD DUP1 SWAP2 SUB SWAP1 RETURN JUMPDEST PUSH1 0x0 PUSH1 0x5 PUSH1 0x0 CALLER PUSH20 0xFFFFFFFFFFFFFFFFFFFFFFFFFFFFFFFFFFFFFFFF AND PUSH20 0xFFFFFFFFFFFFFFFFFFFFFFFFFFFFFFFFFFFFFFFF AND DUP2 MSTORE PUSH1 0x20 ADD SWAP1 DUP2 MSTORE PUSH1 0x20 ADD PUSH1 0x0 KECCAK256 SWAP1 POP DUP1 PUSH1 0x1 ADD PUSH1 0x0 SWAP1 SLOAD SWAP1 PUSH2 0x100 EXP SWAP1 DIV PUSH1 0xFF AND ISZERO PUSH2 0x362 JUMPI PUSH1 0x0 DUP1 REVERT JUMPDEST PUSH1 0x1 DUP2 PUSH1 0x1 ADD PUSH1 0x0 PUSH2 0x100 EXP DUP2 SLOAD DUP2 PUSH1 0xFF MUL NOT AND SWAP1 DUP4 ISZERO ISZERO MUL OR SWAP1 SSTORE POP DUP2 DUP2 PUSH1 0x2 ADD DUP2 SWAP1 SSTORE POP DUP1 PUSH1 0x0 ADD SLOAD PUSH1 0x6 DUP4 DUP2 SLOAD DUP2 LT PUSH2 0x3C7 JUMPI PUSH32 0x4E487B7100000000000000000000000000000000000000000000000000000000 PUSH1 0x0 MSTORE PUSH1 0x32 PUSH1 0x4 MSTORE PUSH1 0x24 PUSH1 0x0 REVERT JUMPDEST SWAP1 PUSH1 0x0 MSTORE PUSH1 0x20 PUSH1 0x0 KECCAK256 SWAP1 PUSH1 0x2 MUL ADD PUSH1 0x1 ADD PUSH1 0x0 DUP3 DUP3 SLOAD PUSH2 0x3E7 SWAP2 SWAP1 PUSH2 0x121D JUMP JUMPDEST SWAP3 POP POP DUP2 SWAP1 SSTORE POP POP POP JUMP JUMPDEST PUSH1 0x6 DUP2 DUP2 SLOAD DUP2 LT PUSH2 0x402 JUMPI PUSH1 0x0 DUP1 REVERT JUMPDEST SWAP1 PUSH1 0x0 MSTORE PUSH1 0x20 PUSH1 0x0 KECCAK256 SWAP1 PUSH1 0x2 MUL ADD PUSH1 0x0 SWAP2 POP SWAP1 POP DUP1 PUSH1 0x0 ADD DUP1 SLOAD PUSH2 0x425 SWAP1 PUSH2 0x12FD JUMP JUMPDEST DUP1 PUSH1 0x1F ADD PUSH1 0x20 DUP1 SWAP2 DIV MUL PUSH1 0x20 ADD PUSH1 0x40 MLOAD SWAP1 DUP2 ADD PUSH1 0x40 MSTORE DUP1 SWAP3 SWAP2 SWAP1 DUP2 DUP2 MSTORE PUSH1 0x20 ADD DUP3 DUP1 SLOAD PUSH2 0x451 SWAP1 PUSH2 0x12FD JUMP JUMPDEST DUP1 ISZERO PUSH2 0x49E JUMPI DUP1 PUSH1 0x1F LT PUSH2 0x473 JUMPI PUSH2 0x100 DUP1 DUP4 SLOAD DIV MUL DUP4 MSTORE SWAP2 PUSH1 0x20 ADD SWAP2 PUSH2 0x49E JUMP JUMPDEST DUP3 ADD SWAP2 SWAP1 PUSH1 0x0 MSTORE PUSH1 0x20 PUSH1 0x0 KECCAK256 SWAP1 JUMPDEST DUP2 SLOAD DUP2 MSTORE SWAP1 PUSH1 0x1 ADD SWAP1 PUSH1 0x20 ADD DUP1 DUP4 GT PUSH2 0x481 JUMPI DUP3 SWAP1 SUB PUSH1 0x1F AND DUP3 ADD SWAP2 JUMPDEST POP POP POP POP POP SWAP1 DUP1 PUSH1 0x1 ADD SLOAD SWAP1 POP DUP3 JUMP JUMPDEST PUSH1 0x0 PUSH1 0x4 SLOAD SWAP1 POP SWAP1 JUMP JUMPDEST PUSH1 0x0 PUSH1 0x1 SLOAD SWAP1 POP SWAP1 JUMP JUMPDEST PUSH1 0x0 DUP1 PUSH1 0x0 SWAP1 POP PUSH1 0x0 JUMPDEST PUSH1 0x6 DUP1 SLOAD SWAP1 POP DUP2 LT ISZERO PUSH2 0x591 JUMPI DUP2 PUSH1 0x6 DUP3 DUP2 SLOAD DUP2 LT PUSH2 0x514 JUMPI PUSH32 0x4E487B7100000000000000000000000000000000000000000000000000000000 PUSH1 0x0 MSTORE PUSH1 0x32 PUSH1 0x4 MSTORE PUSH1 0x24 PUSH1 0x0 REVERT JUMPDEST SWAP1 PUSH1 0x0 MSTORE PUSH1 0x20 PUSH1 0x0 KECCAK256 SWAP1 PUSH1 0x2 MUL ADD PUSH1 0x1 ADD SLOAD GT ISZERO PUSH2 0x57E JUMPI PUSH1 0x6 DUP2 DUP2 SLOAD DUP2 LT PUSH2 0x566 JUMPI PUSH32 0x4E487B7100000000000000000000000000000000000000000000000000000000 PUSH1 0x0 MSTORE PUSH1 0x32 PUSH1 0x4 MSTORE PUSH1 0x24 PUSH1 0x0 REVERT JUMPDEST SWAP1 PUSH1 0x0 MSTORE PUSH1 0x20 PUSH1 0x0 KECCAK256 SWAP1 PUSH1 0x2 MUL ADD PUSH1 0x1 ADD SLOAD SWAP2 POP DUP1 SWAP3 POP JUMPDEST DUP1 DUP1 PUSH2 0x589 SWAP1 PUSH2 0x132F JUMP JUMPDEST SWAP2 POP POP PUSH2 0x4CC JUMP JUMPDEST POP POP SWAP1 JUMP JUMPDEST PUSH1 0x60 PUSH1 0x6 DUP1 SLOAD DUP1 PUSH1 0x20 MUL PUSH1 0x20 ADD PUSH1 0x40 MLOAD SWAP1 DUP2 ADD PUSH1 0x40 MSTORE DUP1 SWAP3 SWAP2 SWAP1 DUP2 DUP2 MSTORE PUSH1 0x20 ADD PUSH1 0x0 SWAP1 JUMPDEST DUP3 DUP3 LT ISZERO PUSH2 0x688 JUMPI DUP4 DUP3 SWAP1 PUSH1 0x0 MSTORE PUSH1 0x20 PUSH1 0x0 KECCAK256 SWAP1 PUSH1 0x2 MUL ADD PUSH1 0x40 MLOAD DUP1 PUSH1 0x40 ADD PUSH1 0x40 MSTORE SWAP1 DUP2 PUSH1 0x0 DUP3 ADD DUP1 SLOAD PUSH2 0x5ED SWAP1 PUSH2 0x12FD JUMP JUMPDEST DUP1 PUSH1 0x1F ADD PUSH1 0x20 DUP1 SWAP2 DIV MUL PUSH1 0x20 ADD PUSH1 0x40 MLOAD SWAP1 DUP2 ADD PUSH1 0x40 MSTORE DUP1 SWAP3 SWAP2 SWAP1 DUP2 DUP2 MSTORE PUSH1 0x20 ADD DUP3 DUP1 SLOAD PUSH2 0x619 SWAP1 PUSH2 0x12FD JUMP JUMPDEST DUP1 ISZERO PUSH2 0x666 JUMPI DUP1 PUSH1 0x1F LT PUSH2 0x63B JUMPI PUSH2 0x100 DUP1 DUP4 SLOAD DIV MUL DUP4 MSTORE SWAP2 PUSH1 0x20 ADD SWAP2 PUSH2 0x666 JUMP JUMPDEST DUP3 ADD SWAP2 SWAP1 PUSH1 0x0 MSTORE PUSH1 0x20 PUSH1 0x0 KECCAK256 SWAP1 JUMPDEST DUP2 SLOAD DUP2 MSTORE SWAP1 PUSH1 0x1 ADD SWAP1 PUSH1 0x20 ADD DUP1 DUP4 GT PUSH2 0x649 JUMPI DUP3 SWAP1 SUB PUSH1 0x1F AND DUP3 ADD SWAP2 JUMPDEST POP POP POP POP POP DUP2 MSTORE PUSH1 0x20 ADD PUSH1 0x1 DUP3 ADD SLOAD DUP2 MSTORE POP POP DUP2 MSTORE PUSH1 0x20 ADD SWAP1 PUSH1 0x1 ADD SWAP1 PUSH2 0x5BA JUMP JUMPDEST POP POP POP POP SWAP1 POP SWAP1 JUMP JUMPDEST DUP1 PUSH1 0x1 DUP2 SWAP1 SSTORE POP POP JUMP JUMPDEST PUSH1 0x0 PUSH1 0x2 SLOAD SWAP1 POP SWAP1 JUMP JUMPDEST PUSH1 0x0 DUP1 PUSH1 0x0 SWAP1 SLOAD SWAP1 PUSH2 0x100 EXP SWAP1 DIV PUSH20 0xFFFFFFFFFFFFFFFFFFFFFFFFFFFFFFFFFFFFFFFF AND SWAP1 POP SWAP1 JUMP JUMPDEST CALLER PUSH1 0x0 DUP1 PUSH2 0x100 EXP DUP2 SLOAD DUP2 PUSH20 0xFFFFFFFFFFFFFFFFFFFFFFFFFFFFFFFFFFFFFFFF MUL NOT AND SWAP1 DUP4 PUSH20 0xFFFFFFFFFFFFFFFFFFFFFFFFFFFFFFFFFFFFFFFF AND MUL OR SWAP1 SSTORE POP PUSH1 0x1 PUSH1 0x5 PUSH1 0x0 DUP1 PUSH1 0x0 SWAP1 SLOAD SWAP1 PUSH2 0x100 EXP SWAP1 DIV PUSH20 0xFFFFFFFFFFFFFFFFFFFFFFFFFFFFFFFFFFFFFFFF AND PUSH20 0xFFFFFFFFFFFFFFFFFFFFFFFFFFFFFFFFFFFFFFFF AND PUSH20 0xFFFFFFFFFFFFFFFFFFFFFFFFFFFFFFFFFFFFFFFF AND DUP2 MSTORE PUSH1 0x20 ADD SWAP1 DUP2 MSTORE PUSH1 0x20 ADD PUSH1 0x0 KECCAK256 PUSH1 0x0 ADD DUP2 SWAP1 SSTORE POP PUSH1 0x0 PUSH1 0x1 DUP2 SWAP1 SSTORE POP PUSH2 0x787 PUSH2 0xBF6 JUMP JUMPDEST DUP1 MLOAD PUSH1 0x4 DUP2 SWAP1 SSTORE POP PUSH1 0x0 JUMPDEST DUP2 MLOAD DUP2 LT ISZERO PUSH2 0x858 JUMPI PUSH1 0x6 PUSH1 0x40 MLOAD DUP1 PUSH1 0x40 ADD PUSH1 0x40 MSTORE DUP1 DUP5 DUP5 DUP2 MLOAD DUP2 LT PUSH2 0x7E1 JUMPI PUSH32 0x4E487B7100000000000000000000000000000000000000000000000000000000 PUSH1 0x0 MSTORE PUSH1 0x32 PUSH1 0x4 MSTORE PUSH1 0x24 PUSH1 0x0 REVERT JUMPDEST PUSH1 0x20 MUL PUSH1 0x20 ADD ADD MLOAD DUP2 MSTORE PUSH1 0x20 ADD PUSH1 0x0 DUP2 MSTORE POP SWAP1 DUP1 PUSH1 0x1 DUP2 SLOAD ADD DUP1 DUP3 SSTORE DUP1 SWAP2 POP POP PUSH1 0x1 SWAP1 SUB SWAP1 PUSH1 0x0 MSTORE PUSH1 0x20 PUSH1 0x0 KECCAK256 SWAP1 PUSH1 0x2 MUL ADD PUSH1 0x0 SWAP1 SWAP2 SWAP1 SWAP2 SWAP1 SWAP2 POP PUSH1 0x0 DUP3 ADD MLOAD DUP2 PUSH1 0x0 ADD SWAP1 DUP1 MLOAD SWAP1 PUSH1 0x20 ADD SWAP1 PUSH2 0x838 SWAP3 SWAP2 SWAP1 PUSH2 0xBFF JUMP JUMPDEST POP PUSH1 0x20 DUP3 ADD MLOAD DUP2 PUSH1 0x1 ADD SSTORE POP POP DUP1 DUP1 PUSH2 0x850 SWAP1 PUSH2 0x132F JUMP JUMPDEST SWAP2 POP POP PUSH2 0x792 JUMP JUMPDEST POP POP JUMP JUMPDEST TIMESTAMP PUSH1 0x3 DUP2 SWAP1 SSTORE POP JUMP JUMPDEST PUSH1 0x0 DUP1 SLOAD SWAP1 PUSH2 0x100 EXP SWAP1 DIV PUSH20 0xFFFFFFFFFFFFFFFFFFFFFFFFFFFFFFFFFFFFFFFF AND PUSH20 0xFFFFFFFFFFFFFFFFFFFFFFFFFFFFFFFFFFFFFFFF AND CALLER PUSH20 0xFFFFFFFFFFFFFFFFFFFFFFFFFFFFFFFFFFFFFFFF AND EQ DUP1 ISZERO PUSH2 0x90D JUMPI POP PUSH1 0x5 PUSH1 0x0 DUP3 PUSH20 0xFFFFFFFFFFFFFFFFFFFFFFFFFFFFFFFFFFFFFFFF AND PUSH20 0xFFFFFFFFFFFFFFFFFFFFFFFFFFFFFFFFFFFFFFFF AND DUP2 MSTORE PUSH1 0x20 ADD SWAP1 DUP2 MSTORE PUSH1 0x20 ADD PUSH1 0x0 KECCAK256 PUSH1 0x1 ADD PUSH1 0x0 SWAP1 SLOAD SWAP1 PUSH2 0x100 EXP SWAP1 DIV PUSH1 0xFF AND ISZERO JUMPDEST DUP1 ISZERO PUSH2 0x95B JUMPI POP PUSH1 0x0 PUSH1 0x5 PUSH1 0x0 DUP4 PUSH20 0xFFFFFFFFFFFFFFFFFFFFFFFFFFFFFFFFFFFFFFFF AND PUSH20 0xFFFFFFFFFFFFFFFFFFFFFFFFFFFFFFFFFFFFFFFF AND DUP2 MSTORE PUSH1 0x20 ADD SWAP1 DUP2 MSTORE PUSH1 0x20 ADD PUSH1 0x0 KECCAK256 PUSH1 0x0 ADD SLOAD EQ JUMPDEST PUSH2 0x964 JUMPI PUSH1 0x0 DUP1 REVERT JUMPDEST PUSH1 0x1 PUSH1 0x5 PUSH1 0x0 DUP4 PUSH20 0xFFFFFFFFFFFFFFFFFFFFFFFFFFFFFFFFFFFFFFFF AND PUSH20 0xFFFFFFFFFFFFFFFFFFFFFFFFFFFFFFFFFFFFFFFF AND DUP2 MSTORE PUSH1 0x20 ADD SWAP1 DUP2 MSTORE PUSH1 0x20 ADD PUSH1 0x0 KECCAK256 PUSH1 0x0 ADD DUP2 SWAP1 SSTORE POP POP JUMP JUMPDEST PUSH1 0x5 PUSH1 0x20 MSTORE DUP1 PUSH1 0x0 MSTORE PUSH1 0x40 PUSH1 0x0 KECCAK256 PUSH1 0x0 SWAP2 POP SWAP1 POP DUP1 PUSH1 0x0 ADD SLOAD SWAP1 DUP1 PUSH1 0x1 ADD PUSH1 0x0 SWAP1 SLOAD SWAP1 PUSH2 0x100 EXP SWAP1 DIV PUSH1 0xFF AND SWAP1 DUP1 PUSH1 0x1 ADD PUSH1 0x1 SWAP1 SLOAD SWAP1 PUSH2 0x100 EXP SWAP1 DIV PUSH20 0xFFFFFFFFFFFFFFFFFFFFFFFFFFFFFFFFFFFFFFFF AND SWAP1 DUP1 PUSH1 0x2 ADD SLOAD SWAP1 POP DUP5 JUMP JUMPDEST PUSH1 0x0 PUSH1 0x3 SLOAD SWAP1 POP SWAP1 JUMP JUMPDEST PUSH1 0x60 PUSH1 0x6 PUSH2 0xA22 PUSH2 0x4C2 JUMP JUMPDEST DUP2 SLOAD DUP2 LT PUSH2 0xA59 JUMPI PUSH32 0x4E487B7100000000000000000000000000000000000000000000000000000000 PUSH1 0x0 MSTORE PUSH1 0x32 PUSH1 0x4 MSTORE PUSH1 0x24 PUSH1 0x0 REVERT JUMPDEST SWAP1 PUSH1 0x0 MSTORE PUSH1 0x20 PUSH1 0x0 KECCAK256 SWAP1 PUSH1 0x2 MUL ADD PUSH1 0x0 ADD DUP1 SLOAD PUSH2 0xA75 SWAP1 PUSH2 0x12FD JUMP JUMPDEST DUP1 PUSH1 0x1F ADD PUSH1 0x20 DUP1 SWAP2 DIV MUL PUSH1 0x20 ADD PUSH1 0x40 MLOAD SWAP1 DUP2 ADD PUSH1 0x40 MSTORE DUP1 SWAP3 SWAP2 SWAP1 DUP2 DUP2 MSTORE PUSH1 0x20 ADD DUP3 DUP1 SLOAD PUSH2 0xAA1 SWAP1 PUSH2 0x12FD JUMP JUMPDEST DUP1 ISZERO PUSH2 0xAEE JUMPI DUP1 PUSH1 0x1F LT PUSH2 0xAC3 JUMPI PUSH2 0x100 DUP1 DUP4 SLOAD DIV MUL DUP4 MSTORE SWAP2 PUSH1 0x20 ADD SWAP2 PUSH2 0xAEE JUMP JUMPDEST DUP3 ADD SWAP2 SWAP1 PUSH1 0x0 MSTORE PUSH1 0x20 PUSH1 0x0 KECCAK256 SWAP1 JUMPDEST DUP2 SLOAD DUP2 MSTORE SWAP1 PUSH1 0x1 ADD SWAP1 PUSH1 0x20 ADD DUP1 DUP4 GT PUSH2 0xAD1 JUMPI DUP3 SWAP1 SUB PUSH1 0x1F AND DUP3 ADD SWAP2 JUMPDEST POP POP POP POP POP SWAP1 POP SWAP1 JUMP JUMPDEST PUSH2 0xB00 PUSH2 0xC85 JUMP JUMPDEST PUSH1 0x6 DUP3 DUP2 SLOAD DUP2 LT PUSH2 0xB3A JUMPI PUSH32 0x4E487B7100000000000000000000000000000000000000000000000000000000 PUSH1 0x0 MSTORE PUSH1 0x32 PUSH1 0x4 MSTORE PUSH1 0x24 PUSH1 0x0 REVERT JUMPDEST SWAP1 PUSH1 0x0 MSTORE PUSH1 0x20 PUSH1 0x0 KECCAK256 SWAP1 PUSH1 0x2 MUL ADD PUSH1 0x40 MLOAD DUP1 PUSH1 0x40 ADD PUSH1 0x40 MSTORE SWAP1 DUP2 PUSH1 0x0 DUP3 ADD DUP1 SLOAD PUSH2 0xB63 SWAP1 PUSH2 0x12FD JUMP JUMPDEST DUP1 PUSH1 0x1F ADD PUSH1 0x20 DUP1 SWAP2 DIV MUL PUSH1 0x20 ADD PUSH1 0x40 MLOAD SWAP1 DUP2 ADD PUSH1 0x40 MSTORE DUP1 SWAP3 SWAP2 SWAP1 DUP2 DUP2 MSTORE PUSH1 0x20 ADD DUP3 DUP1 SLOAD PUSH2 0xB8F SWAP1 PUSH2 0x12FD JUMP JUMPDEST DUP1 ISZERO PUSH2 0xBDC JUMPI DUP1 PUSH1 0x1F LT PUSH2 0xBB1 JUMPI PUSH2 0x100 DUP1 DUP4 SLOAD DIV MUL DUP4 MSTORE SWAP2 PUSH1 0x20 ADD SWAP2 PUSH2 0xBDC JUMP JUMPDEST DUP3 ADD SWAP2 SWAP1 PUSH1 0x0 MSTORE PUSH1 0x20 PUSH1 0x0 KECCAK256 SWAP1 JUMPDEST DUP2 SLOAD DUP2 MSTORE SWAP1 PUSH1 0x1 ADD SWAP1 PUSH1 0x20 ADD DUP1 DUP4 GT PUSH2 0xBBF JUMPI DUP3 SWAP1 SUB PUSH1 0x1F AND DUP3 ADD SWAP2 JUMPDEST POP POP POP POP POP DUP2 MSTORE PUSH1 0x20 ADD PUSH1 0x1 DUP3 ADD SLOAD DUP2 MSTORE POP POP SWAP1 POP SWAP2 SWAP1 POP JUMP JUMPDEST TIMESTAMP PUSH1 0x2 DUP2 SWAP1 SSTORE POP JUMP JUMPDEST DUP3 DUP1 SLOAD PUSH2 0xC0B SWAP1 PUSH2 0x12FD JUMP JUMPDEST SWAP1 PUSH1 0x0 MSTORE PUSH1 0x20 PUSH1 0x0 KECCAK256 SWAP1 PUSH1 0x1F ADD PUSH1 0x20 SWAP1 DIV DUP2 ADD SWAP3 DUP3 PUSH2 0xC2D JUMPI PUSH1 0x0 DUP6 SSTORE PUSH2 0xC74 JUMP JUMPDEST DUP3 PUSH1 0x1F LT PUSH2 0xC46 JUMPI DUP1 MLOAD PUSH1 0xFF NOT AND DUP4 DUP1 ADD OR DUP6 SSTORE PUSH2 0xC74 JUMP JUMPDEST DUP3 DUP1 ADD PUSH1 0x1 ADD DUP6 SSTORE DUP3 ISZERO PUSH2 0xC74 JUMPI SWAP2 DUP3 ADD JUMPDEST DUP3 DUP2 GT ISZERO PUSH2 0xC73 JUMPI DUP3 MLOAD DUP3 SSTORE SWAP2 PUSH1 0x20 ADD SWAP2 SWAP1 PUSH1 0x1 ADD SWAP1 PUSH2 0xC58 JUMP JUMPDEST JUMPDEST POP SWAP1 POP PUSH2 0xC81 SWAP2 SWAP1 PUSH2 0xC9F JUMP JUMPDEST POP SWAP1 JUMP JUMPDEST PUSH1 0x40 MLOAD DUP1 PUSH1 0x40 ADD PUSH1 0x40 MSTORE DUP1 PUSH1 0x60 DUP2 MSTORE PUSH1 0x20 ADD PUSH1 0x0 DUP2 MSTORE POP SWAP1 JUMP JUMPDEST JUMPDEST DUP1 DUP3 GT ISZERO PUSH2 0xCB8 JUMPI PUSH1 0x0 DUP2 PUSH1 0x0 SWAP1 SSTORE POP PUSH1 0x1 ADD PUSH2 0xCA0 JUMP JUMPDEST POP SWAP1 JUMP JUMPDEST PUSH1 0x0 PUSH2 0xCCF PUSH2 0xCCA DUP5 PUSH2 0x115B JUMP JUMPDEST PUSH2 0x112A JUMP JUMPDEST SWAP1 POP DUP1 DUP4 DUP3 MSTORE PUSH1 0x20 DUP3 ADD SWAP1 POP DUP3 PUSH1 0x0 JUMPDEST DUP6 DUP2 LT ISZERO PUSH2 0xD0F JUMPI DUP2 CALLDATALOAD DUP6 ADD PUSH2 0xCF5 DUP9 DUP3 PUSH2 0xD96 JUMP JUMPDEST DUP5 MSTORE PUSH1 0x20 DUP5 ADD SWAP4 POP PUSH1 0x20 DUP4 ADD SWAP3 POP POP PUSH1 0x1 DUP2 ADD SWAP1 POP PUSH2 0xCDF JUMP JUMPDEST POP POP POP SWAP4 SWAP3 POP POP POP JUMP JUMPDEST PUSH1 0x0 PUSH2 0xD2C PUSH2 0xD27 DUP5 PUSH2 0x1187 JUMP JUMPDEST PUSH2 0x112A JUMP JUMPDEST SWAP1 POP DUP3 DUP2 MSTORE PUSH1 0x20 DUP2 ADD DUP5 DUP5 DUP5 ADD GT ISZERO PUSH2 0xD44 JUMPI PUSH1 0x0 DUP1 REVERT JUMPDEST PUSH2 0xD4F DUP5 DUP3 DUP6 PUSH2 0x12BB JUMP JUMPDEST POP SWAP4 SWAP3 POP POP POP JUMP JUMPDEST PUSH1 0x0 DUP2 CALLDATALOAD SWAP1 POP PUSH2 0xD66 DUP2 PUSH2 0x1416 JUMP JUMPDEST SWAP3 SWAP2 POP POP JUMP JUMPDEST PUSH1 0x0 DUP3 PUSH1 0x1F DUP4 ADD SLT PUSH2 0xD7D JUMPI PUSH1 0x0 DUP1 REVERT JUMPDEST DUP2 CALLDATALOAD PUSH2 0xD8D DUP5 DUP3 PUSH1 0x20 DUP7 ADD PUSH2 0xCBC JUMP JUMPDEST SWAP2 POP POP SWAP3 SWAP2 POP POP JUMP JUMPDEST PUSH1 0x0 DUP3 PUSH1 0x1F DUP4 ADD SLT PUSH2 0xDA7 JUMPI PUSH1 0x0 DUP1 REVERT JUMPDEST DUP2 CALLDATALOAD PUSH2 0xDB7 DUP5 DUP3 PUSH1 0x20 DUP7 ADD PUSH2 0xD19 JUMP JUMPDEST SWAP2 POP POP SWAP3 SWAP2 POP POP JUMP JUMPDEST PUSH1 0x0 DUP2 CALLDATALOAD SWAP1 POP PUSH2 0xDCF DUP2 PUSH2 0x142D JUMP JUMPDEST SWAP3 SWAP2 POP POP JUMP JUMPDEST PUSH1 0x0 PUSH1 0x20 DUP3 DUP5 SUB SLT ISZERO PUSH2 0xDE7 JUMPI PUSH1 0x0 DUP1 REVERT JUMPDEST PUSH1 0x0 PUSH2 0xDF5 DUP5 DUP3 DUP6 ADD PUSH2 0xD57 JUMP JUMPDEST SWAP2 POP POP SWAP3 SWAP2 POP POP JUMP JUMPDEST PUSH1 0x0 PUSH1 0x20 DUP3 DUP5 SUB SLT ISZERO PUSH2 0xE10 JUMPI PUSH1 0x0 DUP1 REVERT JUMPDEST PUSH1 0x0 DUP3 ADD CALLDATALOAD PUSH8 0xFFFFFFFFFFFFFFFF DUP2 GT ISZERO PUSH2 0xE2A JUMPI PUSH1 0x0 DUP1 REVERT JUMPDEST PUSH2 0xE36 DUP5 DUP3 DUP6 ADD PUSH2 0xD6C JUMP JUMPDEST SWAP2 POP POP SWAP3 SWAP2 POP POP JUMP JUMPDEST PUSH1 0x0 PUSH1 0x20 DUP3 DUP5 SUB SLT ISZERO PUSH2 0xE51 JUMPI PUSH1 0x0 DUP1 REVERT JUMPDEST PUSH1 0x0 PUSH2 0xE5F DUP5 DUP3 DUP6 ADD PUSH2 0xDC0 JUMP JUMPDEST SWAP2 POP POP SWAP3 SWAP2 POP POP JUMP JUMPDEST PUSH1 0x0 PUSH2 0xE74 DUP4 DUP4 PUSH2 0xF81 JUMP JUMPDEST SWAP1 POP SWAP3 SWAP2 POP POP JUMP JUMPDEST PUSH2 0xE85 DUP2 PUSH2 0x1273 JUMP JUMPDEST DUP3 MSTORE POP POP JUMP JUMPDEST PUSH1 0x0 PUSH2 0xE96 DUP3 PUSH2 0x11C7 JUMP JUMPDEST PUSH2 0xEA0 DUP2 DUP6 PUSH2 0x11EA JUMP JUMPDEST SWAP4 POP DUP4 PUSH1 0x20 DUP3 MUL DUP6 ADD PUSH2 0xEB2 DUP6 PUSH2 0x11B7 JUMP JUMPDEST DUP1 PUSH1 0x0 JUMPDEST DUP6 DUP2 LT ISZERO PUSH2 0xEEE JUMPI DUP5 DUP5 SUB DUP10 MSTORE DUP2 MLOAD PUSH2 0xECF DUP6 DUP3 PUSH2 0xE68 JUMP JUMPDEST SWAP5 POP PUSH2 0xEDA DUP4 PUSH2 0x11DD JUMP JUMPDEST SWAP3 POP PUSH1 0x20 DUP11 ADD SWAP10 POP POP PUSH1 0x1 DUP2 ADD SWAP1 POP PUSH2 0xEB6 JUMP JUMPDEST POP DUP3 SWAP8 POP DUP8 SWAP6 POP POP POP POP POP POP SWAP3 SWAP2 POP POP JUMP JUMPDEST PUSH2 0xF09 DUP2 PUSH2 0x1285 JUMP JUMPDEST DUP3 MSTORE POP POP JUMP JUMPDEST PUSH1 0x0 PUSH2 0xF1A DUP3 PUSH2 0x11D2 JUMP JUMPDEST PUSH2 0xF24 DUP2 DUP6 PUSH2 0x11FB JUMP JUMPDEST SWAP4 POP PUSH2 0xF34 DUP2 DUP6 PUSH1 0x20 DUP7 ADD PUSH2 0x12CA JUMP JUMPDEST PUSH2 0xF3D DUP2 PUSH2 0x1405 JUMP JUMPDEST DUP5 ADD SWAP2 POP POP SWAP3 SWAP2 POP POP JUMP JUMPDEST PUSH1 0x0 PUSH2 0xF53 DUP3 PUSH2 0x11D2 JUMP JUMPDEST PUSH2 0xF5D DUP2 DUP6 PUSH2 0x120C JUMP JUMPDEST SWAP4 POP PUSH2 0xF6D DUP2 DUP6 PUSH1 0x20 DUP7 ADD PUSH2 0x12CA JUMP JUMPDEST PUSH2 0xF76 DUP2 PUSH2 0x1405 JUMP JUMPDEST DUP5 ADD SWAP2 POP POP SWAP3 SWAP2 POP POP JUMP JUMPDEST PUSH1 0x0 PUSH1 0x40 DUP4 ADD PUSH1 0x0 DUP4 ADD MLOAD DUP5 DUP3 SUB PUSH1 0x0 DUP7 ADD MSTORE PUSH2 0xF9E DUP3 DUP3 PUSH2 0xF0F JUMP JUMPDEST SWAP2 POP POP PUSH1 0x20 DUP4 ADD MLOAD PUSH2 0xFB3 PUSH1 0x20 DUP7 ADD DUP3 PUSH2 0xFFB JUMP JUMPDEST POP DUP1 SWAP2 POP POP SWAP3 SWAP2 POP POP JUMP JUMPDEST PUSH1 0x0 PUSH1 0x40 DUP4 ADD PUSH1 0x0 DUP4 ADD MLOAD DUP5 DUP3 SUB PUSH1 0x0 DUP7 ADD MSTORE PUSH2 0xFDB DUP3 DUP3 PUSH2 0xF0F JUMP JUMPDEST SWAP2 POP POP PUSH1 0x20 DUP4 ADD MLOAD PUSH2 0xFF0 PUSH1 0x20 DUP7 ADD DUP3 PUSH2 0xFFB JUMP JUMPDEST POP DUP1 SWAP2 POP POP SWAP3 SWAP2 POP POP JUMP JUMPDEST PUSH2 0x1004 DUP2 PUSH2 0x12B1 JUMP JUMPDEST DUP3 MSTORE POP POP JUMP JUMPDEST PUSH2 0x1013 DUP2 PUSH2 0x12B1 JUMP JUMPDEST DUP3 MSTORE POP POP JUMP JUMPDEST PUSH1 0x0 PUSH1 0x20 DUP3 ADD SWAP1 POP PUSH2 0x102E PUSH1 0x0 DUP4 ADD DUP5 PUSH2 0xE7C JUMP JUMPDEST SWAP3 SWAP2 POP POP JUMP JUMPDEST PUSH1 0x0 PUSH1 0x20 DUP3 ADD SWAP1 POP DUP2 DUP2 SUB PUSH1 0x0 DUP4 ADD MSTORE PUSH2 0x104E DUP2 DUP5 PUSH2 0xE8B JUMP JUMPDEST SWAP1 POP SWAP3 SWAP2 POP POP JUMP JUMPDEST PUSH1 0x0 PUSH1 0x20 DUP3 ADD SWAP1 POP DUP2 DUP2 SUB PUSH1 0x0 DUP4 ADD MSTORE PUSH2 0x1070 DUP2 DUP5 PUSH2 0xF48 JUMP JUMPDEST SWAP1 POP SWAP3 SWAP2 POP POP JUMP JUMPDEST PUSH1 0x0 PUSH1 0x40 DUP3 ADD SWAP1 POP DUP2 DUP2 SUB PUSH1 0x0 DUP4 ADD MSTORE PUSH2 0x1092 DUP2 DUP6 PUSH2 0xF48 JUMP JUMPDEST SWAP1 POP PUSH2 0x10A1 PUSH1 0x20 DUP4 ADD DUP5 PUSH2 0x100A JUMP JUMPDEST SWAP4 SWAP3 POP POP POP JUMP JUMPDEST PUSH1 0x0 PUSH1 0x20 DUP3 ADD SWAP1 POP DUP2 DUP2 SUB PUSH1 0x0 DUP4 ADD MSTORE PUSH2 0x10C2 DUP2 DUP5 PUSH2 0xFBE JUMP JUMPDEST SWAP1 POP SWAP3 SWAP2 POP POP JUMP JUMPDEST PUSH1 0x0 PUSH1 0x20 DUP3 ADD SWAP1 POP PUSH2 0x10DF PUSH1 0x0 DUP4 ADD DUP5 PUSH2 0x100A JUMP JUMPDEST SWAP3 SWAP2 POP POP JUMP JUMPDEST PUSH1 0x0 PUSH1 0x80 DUP3 ADD SWAP1 POP PUSH2 0x10FA PUSH1 0x0 DUP4 ADD DUP8 PUSH2 0x100A JUMP JUMPDEST PUSH2 0x1107 PUSH1 0x20 DUP4 ADD DUP7 PUSH2 0xF00 JUMP JUMPDEST PUSH2 0x1114 PUSH1 0x40 DUP4 ADD DUP6 PUSH2 0xE7C JUMP JUMPDEST PUSH2 0x1121 PUSH1 0x60 DUP4 ADD DUP5 PUSH2 0x100A JUMP JUMPDEST SWAP6 SWAP5 POP POP POP POP POP JUMP JUMPDEST PUSH1 0x0 PUSH1 0x40 MLOAD SWAP1 POP DUP2 DUP2 ADD DUP2 DUP2 LT PUSH8 0xFFFFFFFFFFFFFFFF DUP3 GT OR ISZERO PUSH2 0x1151 JUMPI PUSH2 0x1150 PUSH2 0x13D6 JUMP JUMPDEST JUMPDEST DUP1 PUSH1 0x40 MSTORE POP SWAP2 SWAP1 POP JUMP JUMPDEST PUSH1 0x0 PUSH8 0xFFFFFFFFFFFFFFFF DUP3 GT ISZERO PUSH2 0x1176 JUMPI PUSH2 0x1175 PUSH2 0x13D6 JUMP JUMPDEST JUMPDEST PUSH1 0x20 DUP3 MUL SWAP1 POP PUSH1 0x20 DUP2 ADD SWAP1 POP SWAP2 SWAP1 POP JUMP JUMPDEST PUSH1 0x0 PUSH8 0xFFFFFFFFFFFFFFFF DUP3 GT ISZERO PUSH2 0x11A2 JUMPI PUSH2 0x11A1 PUSH2 0x13D6 JUMP JUMPDEST JUMPDEST PUSH1 0x1F NOT PUSH1 0x1F DUP4 ADD AND SWAP1 POP PUSH1 0x20 DUP2 ADD SWAP1 POP SWAP2 SWAP1 POP JUMP JUMPDEST PUSH1 0x0 DUP2 SWAP1 POP PUSH1 0x20 DUP3 ADD SWAP1 POP SWAP2 SWAP1 POP JUMP JUMPDEST PUSH1 0x0 DUP2 MLOAD SWAP1 POP SWAP2 SWAP1 POP JUMP JUMPDEST PUSH1 0x0 DUP2 MLOAD SWAP1 POP SWAP2 SWAP1 POP JUMP JUMPDEST PUSH1 0x0 PUSH1 0x20 DUP3 ADD SWAP1 POP SWAP2 SWAP1 POP JUMP JUMPDEST PUSH1 0x0 DUP3 DUP3 MSTORE PUSH1 0x20 DUP3 ADD SWAP1 POP SWAP3 SWAP2 POP POP JUMP JUMPDEST PUSH1 0x0 DUP3 DUP3 MSTORE PUSH1 0x20 DUP3 ADD SWAP1 POP SWAP3 SWAP2 POP POP JUMP JUMPDEST PUSH1 0x0 DUP3 DUP3 MSTORE PUSH1 0x20 DUP3 ADD SWAP1 POP SWAP3 SWAP2 POP POP JUMP JUMPDEST PUSH1 0x0 PUSH2 0x1228 DUP3 PUSH2 0x12B1 JUMP JUMPDEST SWAP2 POP PUSH2 0x1233 DUP4 PUSH2 0x12B1 JUMP JUMPDEST SWAP3 POP DUP3 PUSH32 0xFFFFFFFFFFFFFFFFFFFFFFFFFFFFFFFFFFFFFFFFFFFFFFFFFFFFFFFFFFFFFFFF SUB DUP3 GT ISZERO PUSH2 0x1268 JUMPI PUSH2 0x1267 PUSH2 0x1378 JUMP JUMPDEST JUMPDEST DUP3 DUP3 ADD SWAP1 POP SWAP3 SWAP2 POP POP JUMP JUMPDEST PUSH1 0x0 PUSH2 0x127E DUP3 PUSH2 0x1291 JUMP JUMPDEST SWAP1 POP SWAP2 SWAP1 POP JUMP JUMPDEST PUSH1 0x0 DUP2 ISZERO ISZERO SWAP1 POP SWAP2 SWAP1 POP JUMP JUMPDEST PUSH1 0x0 PUSH20 0xFFFFFFFFFFFFFFFFFFFFFFFFFFFFFFFFFFFFFFFF DUP3 AND SWAP1 POP SWAP2 SWAP1 POP JUMP JUMPDEST PUSH1 0x0 DUP2 SWAP1 POP SWAP2 SWAP1 POP JUMP JUMPDEST DUP3 DUP2 DUP4 CALLDATACOPY PUSH1 0x0 DUP4 DUP4 ADD MSTORE POP POP POP JUMP JUMPDEST PUSH1 0x0 JUMPDEST DUP4 DUP2 LT ISZERO PUSH2 0x12E8 JUMPI DUP1 DUP3 ADD MLOAD DUP2 DUP5 ADD MSTORE PUSH1 0x20 DUP2 ADD SWAP1 POP PUSH2 0x12CD JUMP JUMPDEST DUP4 DUP2 GT ISZERO PUSH2 0x12F7 JUMPI PUSH1 0x0 DUP5 DUP5 ADD MSTORE JUMPDEST POP POP POP POP JUMP JUMPDEST PUSH1 0x0 PUSH1 0x2 DUP3 DIV SWAP1 POP PUSH1 0x1 DUP3 AND DUP1 PUSH2 0x1315 JUMPI PUSH1 0x7F DUP3 AND SWAP2 POP JUMPDEST PUSH1 0x20 DUP3 LT DUP2 EQ ISZERO PUSH2 0x1329 JUMPI PUSH2 0x1328 PUSH2 0x13A7 JUMP JUMPDEST JUMPDEST POP SWAP2 SWAP1 POP JUMP JUMPDEST PUSH1 0x0 PUSH2 0x133A DUP3 PUSH2 0x12B1 JUMP JUMPDEST SWAP2 POP PUSH32 0xFFFFFFFFFFFFFFFFFFFFFFFFFFFFFFFFFFFFFFFFFFFFFFFFFFFFFFFFFFFFFFFF DUP3 EQ ISZERO PUSH2 0x136D JUMPI PUSH2 0x136C PUSH2 0x1378 JUMP JUMPDEST JUMPDEST PUSH1 0x1 DUP3 ADD SWAP1 POP SWAP2 SWAP1 POP JUMP JUMPDEST PUSH32 0x4E487B7100000000000000000000000000000000000000000000000000000000 PUSH1 0x0 MSTORE PUSH1 0x11 PUSH1 0x4 MSTORE PUSH1 0x24 PUSH1 0x0 REVERT JUMPDEST PUSH32 0x4E487B7100000000000000000000000000000000000000000000000000000000 PUSH1 0x0 MSTORE PUSH1 0x22 PUSH1 0x4 MSTORE PUSH1 0x24 PUSH1 0x0 REVERT JUMPDEST PUSH32 0x4E487B7100000000000000000000000000000000000000000000000000000000 PUSH1 0x0 MSTORE PUSH1 0x41 PUSH1 0x4 MSTORE PUSH1 0x24 PUSH1 0x0 REVERT JUMPDEST PUSH1 0x0 PUSH1 0x1F NOT PUSH1 0x1F DUP4 ADD AND SWAP1 POP SWAP2 SWAP1 POP JUMP JUMPDEST PUSH2 0x141F DUP2 PUSH2 0x1273 JUMP JUMPDEST DUP2 EQ PUSH2 0x142A JUMPI PUSH1 0x0 DUP1 REVERT JUMPDEST POP JUMP JUMPDEST PUSH2 0x1436 DUP2 PUSH2 0x12B1 JUMP JUMPDEST DUP2 EQ PUSH2 0x1441 JUMPI PUSH1 0x0 DUP1 REVERT JUMPDEST POP JUMP INVALID LOG2 PUSH5 0x6970667358 0x22 SLT KECCAK256 NOT 0xDF PC SLT POP SWAP6 EXP 0xD8 MULMOD CREATE2 PUSH21 0x33849780CE70B84029B1A804454ACCDDC566CDAD05 PUSH5 0x736F6C6343 STOP ADDMOD STOP STOP CALLER LOG2 PUSH5 0x6970667358 0x22 SLT KECCAK256 0xBA 0x2E DUP9 SSTORE DUP2 TIMESTAMP 0x2E PUSH20 0x9749298B44F86F5D05EA3158B872AA42C1734C60 0xAE 0x5F 0xF9 0xB0 PUSH5 0x736F6C6343 STOP ADDMOD STOP STOP CALLER "
				},
				"gasEstimates": {
					"creation": {
						"codeDepositCost": "2363000",
						"executionCost": "2538",
						"totalCost": "2365538"
					},
					"external": {
						"ballotArray(uint256)": "2466",
						"bfCreateBallot(uint256,string[])": "infinite",
						"bfGetCreatorBallot(uint256)": "infinite",
						"createBallot(string[])": "infinite",
						"createBallotContract()": "infinite",
						"getCreatorBallot()": "1267",
						"getEndDate()": "1203",
						"getProposalStructure(uint256)": "infinite",
						"getProposals()": "infinite",
						"getStartDate()": "1160",
						"getStatus()": "1249",
						"getnumOfProposals()": "1205",
						"giveRightToVote(address)": "23341",
						"proposals(uint256)": "infinite",
						"setEndDate()": "20246",
						"setStatus(uint256)": "20509",
						"vote(uint256)": "infinite",
						"voters(address)": "infinite",
						"winnerName()": "infinite",
						"winningProposal()": "infinite"
					}
				},
				"methodIdentifiers": {
					"ballotArray(uint256)": "643cb096",
					"bfCreateBallot(uint256,string[])": "735d8b87",
					"bfGetCreatorBallot(uint256)": "2a8cdc4c",
					"createBallot(string[])": "836bc692",
					"createBallotContract()": "962fafd0",
					"getCreatorBallot()": "7a16fcb0",
					"getEndDate()": "b1356488",
					"getProposalStructure(uint256)": "e9d6c6da",
					"getProposals()": "62564c48",
					"getStartDate()": "78f305c6",
					"getStatus()": "4e69d560",
					"getnumOfProposals()": "0a82dcb1",
					"giveRightToVote(address)": "9e7b8d61",
					"proposals(uint256)": "013cf08b",
					"setEndDate()": "86278e77",
					"setStatus(uint256)": "69ba1a75",
					"vote(uint256)": "0121b93f",
					"voters(address)": "a3ec138d",
					"winnerName()": "e2ba53f0",
					"winningProposal()": "609ff1bd"
				}
			},
			"storageLayout": {
				"storage": [
					{
						"astId": 3,
						"contract": "contracts/visov_durku.sol:BallotFactory",
						"label": "creator",
						"offset": 0,
						"slot": "0",
						"type": "t_address"
					},
					{
						"astId": 5,
						"contract": "contracts/visov_durku.sol:BallotFactory",
						"label": "status",
						"offset": 0,
						"slot": "1",
						"type": "t_uint256"
					},
					{
						"astId": 7,
						"contract": "contracts/visov_durku.sol:BallotFactory",
						"label": "startDate",
						"offset": 0,
						"slot": "2",
						"type": "t_uint256"
					},
					{
						"astId": 9,
						"contract": "contracts/visov_durku.sol:BallotFactory",
						"label": "endDate",
						"offset": 0,
						"slot": "3",
						"type": "t_uint256"
					},
					{
						"astId": 11,
						"contract": "contracts/visov_durku.sol:BallotFactory",
						"label": "numOfProposals",
						"offset": 0,
						"slot": "4",
						"type": "t_uint256"
					},
					{
						"astId": 30,
						"contract": "contracts/visov_durku.sol:BallotFactory",
						"label": "voters",
						"offset": 0,
						"slot": "5",
						"type": "t_mapping(t_address,t_struct(Voter)20_storage)"
					},
					{
						"astId": 34,
						"contract": "contracts/visov_durku.sol:BallotFactory",
						"label": "proposals",
						"offset": 0,
						"slot": "6",
						"type": "t_array(t_struct(Proposal)25_storage)dyn_storage"
					},
					{
						"astId": 321,
						"contract": "contracts/visov_durku.sol:BallotFactory",
						"label": "ballotArray",
						"offset": 0,
						"slot": "7",
						"type": "t_array(t_contract(Ballot)312)dyn_storage"
					}
				],
				"types": {
					"t_address": {
						"encoding": "inplace",
						"label": "address",
						"numberOfBytes": "20"
					},
					"t_array(t_contract(Ballot)312)dyn_storage": {
						"base": "t_contract(Ballot)312",
						"encoding": "dynamic_array",
						"label": "contract Ballot[]",
						"numberOfBytes": "32"
					},
					"t_array(t_struct(Proposal)25_storage)dyn_storage": {
						"base": "t_struct(Proposal)25_storage",
						"encoding": "dynamic_array",
						"label": "struct Ballot.Proposal[]",
						"numberOfBytes": "32"
					},
					"t_bool": {
						"encoding": "inplace",
						"label": "bool",
						"numberOfBytes": "1"
					},
					"t_contract(Ballot)312": {
						"encoding": "inplace",
						"label": "contract Ballot",
						"numberOfBytes": "20"
					},
					"t_mapping(t_address,t_struct(Voter)20_storage)": {
						"encoding": "mapping",
						"key": "t_address",
						"label": "mapping(address => struct Ballot.Voter)",
						"numberOfBytes": "32",
						"value": "t_struct(Voter)20_storage"
					},
					"t_string_storage": {
						"encoding": "bytes",
						"label": "string",
						"numberOfBytes": "32"
					},
					"t_struct(Proposal)25_storage": {
						"encoding": "inplace",
						"label": "struct Ballot.Proposal",
						"members": [
							{
								"astId": 22,
								"contract": "contracts/visov_durku.sol:BallotFactory",
								"label": "name",
								"offset": 0,
								"slot": "0",
								"type": "t_string_storage"
							},
							{
								"astId": 24,
								"contract": "contracts/visov_durku.sol:BallotFactory",
								"label": "voteCount",
								"offset": 0,
								"slot": "1",
								"type": "t_uint256"
							}
						],
						"numberOfBytes": "64"
					},
					"t_struct(Voter)20_storage": {
						"encoding": "inplace",
						"label": "struct Ballot.Voter",
						"members": [
							{
								"astId": 13,
								"contract": "contracts/visov_durku.sol:BallotFactory",
								"label": "weight",
								"offset": 0,
								"slot": "0",
								"type": "t_uint256"
							},
							{
								"astId": 15,
								"contract": "contracts/visov_durku.sol:BallotFactory",
								"label": "voted",
								"offset": 0,
								"slot": "1",
								"type": "t_bool"
							},
							{
								"astId": 17,
								"contract": "contracts/visov_durku.sol:BallotFactory",
								"label": "delegate",
								"offset": 1,
								"slot": "1",
								"type": "t_address"
							},
							{
								"astId": 19,
								"contract": "contracts/visov_durku.sol:BallotFactory",
								"label": "vote",
								"offset": 0,
								"slot": "2",
								"type": "t_uint256"
							}
						],
						"numberOfBytes": "96"
					},
					"t_uint256": {
						"encoding": "inplace",
						"label": "uint256",
						"numberOfBytes": "32"
					}
				}
			},
			"userdoc": {
				"kind": "user",
				"methods": {},
				"version": 1
			}
		}
	}
}