{
	"contracts/prop_test.sol": {
		"Ballot": {
			"abi": [
				{
					"inputs": [
						{
							"internalType": "string[]",
							"name": "proposalNames",
							"type": "string[]"
						}
					],
					"name": "createBallot",
					"outputs": [],
					"stateMutability": "nonpayable",
					"type": "function"
				},
				{
					"inputs": [],
					"name": "getEndDate",
					"outputs": [
						{
							"internalType": "uint256",
							"name": "",
							"type": "uint256"
						}
					],
					"stateMutability": "view",
					"type": "function"
				},
				{
					"inputs": [
						{
							"internalType": "uint256",
							"name": "_proposalId",
							"type": "uint256"
						}
					],
					"name": "getProposalStructure",
					"outputs": [
						{
							"components": [
								{
									"internalType": "string",
									"name": "name",
									"type": "string"
								},
								{
									"internalType": "uint256",
									"name": "voteCount",
									"type": "uint256"
								}
							],
							"internalType": "struct Ballot.Proposal",
							"name": "",
							"type": "tuple"
						}
					],
					"stateMutability": "view",
					"type": "function"
				},
				{
					"inputs": [],
					"name": "getProposals",
					"outputs": [
						{
							"components": [
								{
									"internalType": "string",
									"name": "name",
									"type": "string"
								},
								{
									"internalType": "uint256",
									"name": "voteCount",
									"type": "uint256"
								}
							],
							"internalType": "struct Ballot.Proposal[]",
							"name": "",
							"type": "tuple[]"
						}
					],
					"stateMutability": "view",
					"type": "function"
				},
				{
					"inputs": [],
					"name": "getStartDate",
					"outputs": [
						{
							"internalType": "uint256",
							"name": "",
							"type": "uint256"
						}
					],
					"stateMutability": "view",
					"type": "function"
				},
				{
					"inputs": [],
					"name": "getStatus",
					"outputs": [
						{
							"internalType": "uint256",
							"name": "",
							"type": "uint256"
						}
					],
					"stateMutability": "view",
					"type": "function"
				},
				{
					"inputs": [],
					"name": "getnumOfProposals",
					"outputs": [
						{
							"internalType": "uint256",
							"name": "",
							"type": "uint256"
						}
					],
					"stateMutability": "view",
					"type": "function"
				},
				{
					"inputs": [
						{
							"internalType": "address",
							"name": "voter",
							"type": "address"
						}
					],
					"name": "giveRightToVote",
					"outputs": [],
					"stateMutability": "nonpayable",
					"type": "function"
				},
				{
					"inputs": [
						{
							"internalType": "uint256",
							"name": "",
							"type": "uint256"
						}
					],
					"name": "proposals",
					"outputs": [
						{
							"internalType": "string",
							"name": "name",
							"type": "string"
						},
						{
							"internalType": "uint256",
							"name": "voteCount",
							"type": "uint256"
						}
					],
					"stateMutability": "view",
					"type": "function"
				},
				{
					"inputs": [],
					"name": "setEndDate",
					"outputs": [],
					"stateMutability": "nonpayable",
					"type": "function"
				},
				{
					"inputs": [
						{
							"internalType": "uint256",
							"name": "_status",
							"type": "uint256"
						}
					],
					"name": "setStatus",
					"outputs": [],
					"stateMutability": "nonpayable",
					"type": "function"
				},
				{
					"inputs": [
						{
							"internalType": "uint256",
							"name": "proposal",
							"type": "uint256"
						}
					],
					"name": "vote",
					"outputs": [],
					"stateMutability": "nonpayable",
					"type": "function"
				},
				{
					"inputs": [
						{
							"internalType": "address",
							"name": "",
							"type": "address"
						}
					],
					"name": "voters",
					"outputs": [
						{
							"internalType": "uint256",
							"name": "weight",
							"type": "uint256"
						},
						{
							"internalType": "bool",
							"name": "voted",
							"type": "bool"
						},
						{
							"internalType": "address",
							"name": "delegate",
							"type": "address"
						},
						{
							"internalType": "uint256",
							"name": "vote",
							"type": "uint256"
						}
					],
					"stateMutability": "view",
					"type": "function"
				},
				{
					"inputs": [],
					"name": "winnerName",
					"outputs": [
						{
							"internalType": "string",
							"name": "winnerName",
							"type": "string"
						}
					],
					"stateMutability": "view",
					"type": "function"
				},
				{
					"inputs": [],
					"name": "winningProposal",
					"outputs": [
						{
							"internalType": "uint256",
							"name": "winningProposal",
							"type": "uint256"
						}
					],
					"stateMutability": "view",
					"type": "function"
				}
			],
			"devdoc": {
				"kind": "dev",
				"methods": {},
				"version": 1
			},
			"evm": {
				"assembly": "    /* \"contracts/prop_test.sol\":60:4757  contract Ballot {\r... */\n  mstore(0x40, 0x80)\n  callvalue\n  dup1\n  iszero\n  tag_1\n  jumpi\n  0x00\n  dup1\n  revert\ntag_1:\n  pop\n  dataSize(sub_0)\n  dup1\n  dataOffset(sub_0)\n  0x00\n  codecopy\n  0x00\n  return\nstop\n\nsub_0: assembly {\n        /* \"contracts/prop_test.sol\":60:4757  contract Ballot {\r... */\n      mstore(0x40, 0x80)\n      callvalue\n      dup1\n      iszero\n      tag_1\n      jumpi\n      0x00\n      dup1\n      revert\n    tag_1:\n      pop\n      jumpi(tag_2, lt(calldatasize, 0x04))\n      shr(0xe0, calldataload(0x00))\n      dup1\n      0x78f305c6\n      gt\n      tag_18\n      jumpi\n      dup1\n      0xa3ec138d\n      gt\n      tag_19\n      jumpi\n      dup1\n      0xa3ec138d\n      eq\n      tag_14\n      jumpi\n      dup1\n      0xb1356488\n      eq\n      tag_15\n      jumpi\n      dup1\n      0xe2ba53f0\n      eq\n      tag_16\n      jumpi\n      dup1\n      0xe9d6c6da\n      eq\n      tag_17\n      jumpi\n      jump(tag_2)\n    tag_19:\n      dup1\n      0x78f305c6\n      eq\n      tag_10\n      jumpi\n      dup1\n      0x836bc692\n      eq\n      tag_11\n      jumpi\n      dup1\n      0x86278e77\n      eq\n      tag_12\n      jumpi\n      dup1\n      0x9e7b8d61\n      eq\n      tag_13\n      jumpi\n      jump(tag_2)\n    tag_18:\n      dup1\n      0x4e69d560\n      gt\n      tag_20\n      jumpi\n      dup1\n      0x4e69d560\n      eq\n      tag_6\n      jumpi\n      dup1\n      0x609ff1bd\n      eq\n      tag_7\n      jumpi\n      dup1\n      0x62564c48\n      eq\n      tag_8\n      jumpi\n      dup1\n      0x69ba1a75\n      eq\n      tag_9\n      jumpi\n      jump(tag_2)\n    tag_20:\n      dup1\n      0x0121b93f\n      eq\n      tag_3\n      jumpi\n      dup1\n      0x013cf08b\n      eq\n      tag_4\n      jumpi\n      dup1\n      0x0a82dcb1\n      eq\n      tag_5\n      jumpi\n    tag_2:\n      0x00\n      dup1\n      revert\n        /* \"contracts/prop_test.sol\":2270:2659  function vote(uint proposal) public {\r... */\n    tag_3:\n      tag_21\n      0x04\n      dup1\n      calldatasize\n      sub\n      dup2\n      add\n      swap1\n      tag_22\n      swap2\n      swap1\n      tag_23\n      jump\t// in\n    tag_22:\n      tag_24\n      jump\t// in\n    tag_21:\n      stop\n        /* \"contracts/prop_test.sol\":871:898  Proposal[] public proposals */\n    tag_4:\n      tag_25\n      0x04\n      dup1\n      calldatasize\n      sub\n      dup2\n      add\n      swap1\n      tag_26\n      swap2\n      swap1\n      tag_23\n      jump\t// in\n    tag_26:\n      tag_27\n      jump\t// in\n    tag_25:\n      mload(0x40)\n      tag_28\n      swap3\n      swap2\n      swap1\n      tag_29\n      jump\t// in\n    tag_28:\n      mload(0x40)\n      dup1\n      swap2\n      sub\n      swap1\n      return\n        /* \"contracts/prop_test.sol\":3871:3965  function getnumOfProposals() public view returns(uint){\r... */\n    tag_5:\n      tag_30\n      tag_31\n      jump\t// in\n    tag_30:\n      mload(0x40)\n      tag_32\n      swap2\n      swap1\n      tag_33\n      jump\t// in\n    tag_32:\n      mload(0x40)\n      dup1\n      swap2\n      sub\n      swap1\n      return\n        /* \"contracts/prop_test.sol\":3751:3829  function getStatus() public view returns(uint){\r... */\n    tag_6:\n      tag_34\n      tag_35\n      jump\t// in\n    tag_34:\n      mload(0x40)\n      tag_36\n      swap2\n      swap1\n      tag_33\n      jump\t// in\n    tag_36:\n      mload(0x40)\n      dup1\n      swap2\n      sub\n      swap1\n      return\n        /* \"contracts/prop_test.sol\":2667:3021  function winningProposal() public view returns (uint winningProposal){\r... */\n    tag_7:\n      tag_37\n      tag_38\n      jump\t// in\n    tag_37:\n      mload(0x40)\n      tag_39\n      swap2\n      swap1\n      tag_33\n      jump\t// in\n    tag_39:\n      mload(0x40)\n      dup1\n      swap2\n      sub\n      swap1\n      return\n        /* \"contracts/prop_test.sol\":4174:4271  function getProposals() public view returns(Proposal[] memory){\r... */\n    tag_8:\n      tag_40\n      tag_41\n      jump\t// in\n    tag_40:\n      mload(0x40)\n      tag_42\n      swap2\n      swap1\n      tag_43\n      jump\t// in\n    tag_42:\n      mload(0x40)\n      dup1\n      swap2\n      sub\n      swap1\n      return\n        /* \"contracts/prop_test.sol\":3634:3708  function setStatus(uint _status) public{\r... */\n    tag_9:\n      tag_44\n      0x04\n      dup1\n      calldatasize\n      sub\n      dup2\n      add\n      swap1\n      tag_45\n      swap2\n      swap1\n      tag_23\n      jump\t// in\n    tag_45:\n      tag_46\n      jump\t// in\n    tag_44:\n      stop\n        /* \"contracts/prop_test.sol\":4436:4520  function getStartDate() public view returns(uint){\r... */\n    tag_10:\n      tag_47\n      tag_48\n      jump\t// in\n    tag_47:\n      mload(0x40)\n      tag_49\n      swap2\n      swap1\n      tag_33\n      jump\t// in\n    tag_49:\n      mload(0x40)\n      dup1\n      swap2\n      sub\n      swap1\n      return\n        /* \"contracts/prop_test.sol\":907:1647  function createBallot(string[] memory proposalNames) public {\r... */\n    tag_11:\n      tag_50\n      0x04\n      dup1\n      calldatasize\n      sub\n      dup2\n      add\n      swap1\n      tag_51\n      swap2\n      swap1\n      tag_52\n      jump\t// in\n    tag_51:\n      tag_53\n      jump\t// in\n    tag_50:\n      stop\n        /* \"contracts/prop_test.sol\":4562:4634  function setEndDate() public{\r... */\n    tag_12:\n      tag_54\n      tag_55\n      jump\t// in\n    tag_54:\n      stop\n        /* \"contracts/prop_test.sol\":1655:2233  function giveRightToVote(address voter) public {\r... */\n    tag_13:\n      tag_56\n      0x04\n      dup1\n      calldatasize\n      sub\n      dup2\n      add\n      swap1\n      tag_57\n      swap2\n      swap1\n      tag_58\n      jump\t// in\n    tag_57:\n      tag_59\n      jump\t// in\n    tag_56:\n      stop\n        /* \"contracts/prop_test.sol\":766:805  mapping(address => Voter) public voters */\n    tag_14:\n      tag_60\n      0x04\n      dup1\n      calldatasize\n      sub\n      dup2\n      add\n      swap1\n      tag_61\n      swap2\n      swap1\n      tag_58\n      jump\t// in\n    tag_61:\n      tag_62\n      jump\t// in\n    tag_60:\n      mload(0x40)\n      tag_63\n      swap5\n      swap4\n      swap3\n      swap2\n      swap1\n      tag_64\n      jump\t// in\n    tag_63:\n      mload(0x40)\n      dup1\n      swap2\n      sub\n      swap1\n      return\n        /* \"contracts/prop_test.sol\":4674:4754  function getEndDate() public view returns(uint){\r... */\n    tag_15:\n      tag_65\n      tag_66\n      jump\t// in\n    tag_65:\n      mload(0x40)\n      tag_67\n      swap2\n      swap1\n      tag_33\n      jump\t// in\n    tag_67:\n      mload(0x40)\n      dup1\n      swap2\n      sub\n      swap1\n      return\n        /* \"contracts/prop_test.sol\":3190:3328  function winnerName() public view returns(string memory winnerName)\r... */\n    tag_16:\n      tag_68\n      tag_69\n      jump\t// in\n    tag_68:\n      mload(0x40)\n      tag_70\n      swap2\n      swap1\n      tag_71\n      jump\t// in\n    tag_70:\n      mload(0x40)\n      dup1\n      swap2\n      sub\n      swap1\n      return\n        /* \"contracts/prop_test.sol\":4007:4139  function getProposalStructure(uint _proposalId) public view returns(Proposal memory){\r... */\n    tag_17:\n      tag_72\n      0x04\n      dup1\n      calldatasize\n      sub\n      dup2\n      add\n      swap1\n      tag_73\n      swap2\n      swap1\n      tag_23\n      jump\t// in\n    tag_73:\n      tag_74\n      jump\t// in\n    tag_72:\n      mload(0x40)\n      tag_75\n      swap2\n      swap1\n      tag_76\n      jump\t// in\n    tag_75:\n      mload(0x40)\n      dup1\n      swap2\n      sub\n      swap1\n      return\n        /* \"contracts/prop_test.sol\":2270:2659  function vote(uint proposal) public {\r... */\n    tag_24:\n        /* \"contracts/prop_test.sol\":2317:2337  Voter storage sender */\n      0x00\n        /* \"contracts/prop_test.sol\":2340:2346  voters */\n      0x05\n        /* \"contracts/prop_test.sol\":2340:2358  voters[msg.sender] */\n      0x00\n        /* \"contracts/prop_test.sol\":2347:2357  msg.sender */\n      caller\n        /* \"contracts/prop_test.sol\":2340:2358  voters[msg.sender] */\n      0xffffffffffffffffffffffffffffffffffffffff\n      and\n      0xffffffffffffffffffffffffffffffffffffffff\n      and\n      dup2\n      mstore\n      0x20\n      add\n      swap1\n      dup2\n      mstore\n      0x20\n      add\n      0x00\n      keccak256\n        /* \"contracts/prop_test.sol\":2317:2358  Voter storage sender = voters[msg.sender] */\n      swap1\n      pop\n        /* \"contracts/prop_test.sol\":2378:2384  sender */\n      dup1\n        /* \"contracts/prop_test.sol\":2378:2390  sender.voted */\n      0x01\n      add\n      0x00\n      swap1\n      sload\n      swap1\n      0x0100\n      exp\n      swap1\n      div\n      0xff\n      and\n        /* \"contracts/prop_test.sol\":2377:2390  !sender.voted */\n      iszero\n        /* \"contracts/prop_test.sol\":2369:2391  require(!sender.voted) */\n      tag_78\n      jumpi\n      0x00\n      dup1\n      revert\n    tag_78:\n        /* \"contracts/prop_test.sol\":2417:2421  true */\n      0x01\n        /* \"contracts/prop_test.sol\":2402:2408  sender */\n      dup2\n        /* \"contracts/prop_test.sol\":2402:2414  sender.voted */\n      0x01\n      add\n      0x00\n        /* \"contracts/prop_test.sol\":2402:2421  sender.voted = true */\n      0x0100\n      exp\n      dup2\n      sload\n      dup2\n      0xff\n      mul\n      not\n      and\n      swap1\n      dup4\n      iszero\n      iszero\n      mul\n      or\n      swap1\n      sstore\n      pop\n        /* \"contracts/prop_test.sol\":2446:2454  proposal */\n      dup2\n        /* \"contracts/prop_test.sol\":2432:2438  sender */\n      dup2\n        /* \"contracts/prop_test.sol\":2432:2443  sender.vote */\n      0x02\n      add\n        /* \"contracts/prop_test.sol\":2432:2454  sender.vote = proposal */\n      dup2\n      swap1\n      sstore\n      pop\n        /* \"contracts/prop_test.sol\":2638:2644  sender */\n      dup1\n        /* \"contracts/prop_test.sol\":2638:2651  sender.weight */\n      0x00\n      add\n      sload\n        /* \"contracts/prop_test.sol\":2605:2614  proposals */\n      0x06\n        /* \"contracts/prop_test.sol\":2615:2623  proposal */\n      dup4\n        /* \"contracts/prop_test.sol\":2605:2624  proposals[proposal] */\n      dup2\n      sload\n      dup2\n      lt\n      tag_79\n      jumpi\n      mstore(0x00, 0x4e487b7100000000000000000000000000000000000000000000000000000000)\n      mstore(0x04, 0x32)\n      revert(0x00, 0x24)\n    tag_79:\n      swap1\n      0x00\n      mstore\n      keccak256(0x00, 0x20)\n      swap1\n      0x02\n      mul\n      add\n        /* \"contracts/prop_test.sol\":2605:2634  proposals[proposal].voteCount */\n      0x01\n      add\n      0x00\n        /* \"contracts/prop_test.sol\":2605:2651  proposals[proposal].voteCount += sender.weight */\n      dup3\n      dup3\n      sload\n      tag_81\n      swap2\n      swap1\n      tag_82\n      jump\t// in\n    tag_81:\n      swap3\n      pop\n      pop\n      dup2\n      swap1\n      sstore\n      pop\n        /* \"contracts/prop_test.sol\":2270:2659  function vote(uint proposal) public {\r... */\n      pop\n      pop\n      jump\t// out\n        /* \"contracts/prop_test.sol\":871:898  Proposal[] public proposals */\n    tag_27:\n      0x06\n      dup2\n      dup2\n      sload\n      dup2\n      lt\n      tag_83\n      jumpi\n      0x00\n      dup1\n      revert\n    tag_83:\n      swap1\n      0x00\n      mstore\n      keccak256(0x00, 0x20)\n      swap1\n      0x02\n      mul\n      add\n      0x00\n      swap2\n      pop\n      swap1\n      pop\n      dup1\n      0x00\n      add\n      dup1\n      sload\n      tag_85\n      swap1\n      tag_86\n      jump\t// in\n    tag_85:\n      dup1\n      0x1f\n      add\n      0x20\n      dup1\n      swap2\n      div\n      mul\n      0x20\n      add\n      mload(0x40)\n      swap1\n      dup2\n      add\n      0x40\n      mstore\n      dup1\n      swap3\n      swap2\n      swap1\n      dup2\n      dup2\n      mstore\n      0x20\n      add\n      dup3\n      dup1\n      sload\n      tag_87\n      swap1\n      tag_86\n      jump\t// in\n    tag_87:\n      dup1\n      iszero\n      tag_88\n      jumpi\n      dup1\n      0x1f\n      lt\n      tag_89\n      jumpi\n      0x0100\n      dup1\n      dup4\n      sload\n      div\n      mul\n      dup4\n      mstore\n      swap2\n      0x20\n      add\n      swap2\n      jump(tag_88)\n    tag_89:\n      dup3\n      add\n      swap2\n      swap1\n      0x00\n      mstore\n      keccak256(0x00, 0x20)\n      swap1\n    tag_90:\n      dup2\n      sload\n      dup2\n      mstore\n      swap1\n      0x01\n      add\n      swap1\n      0x20\n      add\n      dup1\n      dup4\n      gt\n      tag_90\n      jumpi\n      dup3\n      swap1\n      sub\n      0x1f\n      and\n      dup3\n      add\n      swap2\n    tag_88:\n      pop\n      pop\n      pop\n      pop\n      pop\n      swap1\n      dup1\n      0x01\n      add\n      sload\n      swap1\n      pop\n      dup3\n      jump\t// out\n        /* \"contracts/prop_test.sol\":3871:3965  function getnumOfProposals() public view returns(uint){\r... */\n    tag_31:\n        /* \"contracts/prop_test.sol\":3920:3924  uint */\n      0x00\n        /* \"contracts/prop_test.sol\":3943:3957  numOfProposals */\n      sload(0x04)\n        /* \"contracts/prop_test.sol\":3936:3957  return numOfProposals */\n      swap1\n      pop\n        /* \"contracts/prop_test.sol\":3871:3965  function getnumOfProposals() public view returns(uint){\r... */\n      swap1\n      jump\t// out\n        /* \"contracts/prop_test.sol\":3751:3829  function getStatus() public view returns(uint){\r... */\n    tag_35:\n        /* \"contracts/prop_test.sol\":3792:3796  uint */\n      0x00\n        /* \"contracts/prop_test.sol\":3815:3821  status */\n      sload(0x01)\n        /* \"contracts/prop_test.sol\":3808:3821  return status */\n      swap1\n      pop\n        /* \"contracts/prop_test.sol\":3751:3829  function getStatus() public view returns(uint){\r... */\n      swap1\n      jump\t// out\n        /* \"contracts/prop_test.sol\":2667:3021  function winningProposal() public view returns (uint winningProposal){\r... */\n    tag_38:\n        /* \"contracts/prop_test.sol\":2715:2735  uint winningProposal */\n      0x00\n        /* \"contracts/prop_test.sol\":2747:2768  uint winningVoteCount */\n      dup1\n        /* \"contracts/prop_test.sol\":2771:2772  0 */\n      0x00\n        /* \"contracts/prop_test.sol\":2747:2772  uint winningVoteCount = 0 */\n      swap1\n      pop\n        /* \"contracts/prop_test.sol\":2788:2794  uint p */\n      0x00\n        /* \"contracts/prop_test.sol\":2783:3014  for (uint p = 0; p < proposals.length; p++) {\r... */\n    tag_94:\n        /* \"contracts/prop_test.sol\":2804:2813  proposals */\n      0x06\n        /* \"contracts/prop_test.sol\":2804:2820  proposals.length */\n      dup1\n      sload\n      swap1\n      pop\n        /* \"contracts/prop_test.sol\":2800:2801  p */\n      dup2\n        /* \"contracts/prop_test.sol\":2800:2820  p < proposals.length */\n      lt\n        /* \"contracts/prop_test.sol\":2783:3014  for (uint p = 0; p < proposals.length; p++) {\r... */\n      iszero\n      tag_95\n      jumpi\n        /* \"contracts/prop_test.sol\":2871:2887  winningVoteCount */\n      dup2\n        /* \"contracts/prop_test.sol\":2846:2855  proposals */\n      0x06\n        /* \"contracts/prop_test.sol\":2856:2857  p */\n      dup3\n        /* \"contracts/prop_test.sol\":2846:2858  proposals[p] */\n      dup2\n      sload\n      dup2\n      lt\n      tag_97\n      jumpi\n      mstore(0x00, 0x4e487b7100000000000000000000000000000000000000000000000000000000)\n      mstore(0x04, 0x32)\n      revert(0x00, 0x24)\n    tag_97:\n      swap1\n      0x00\n      mstore\n      keccak256(0x00, 0x20)\n      swap1\n      0x02\n      mul\n      add\n        /* \"contracts/prop_test.sol\":2846:2868  proposals[p].voteCount */\n      0x01\n      add\n      sload\n        /* \"contracts/prop_test.sol\":2846:2887  proposals[p].voteCount > winningVoteCount */\n      gt\n        /* \"contracts/prop_test.sol\":2842:3003  if (proposals[p].voteCount > winningVoteCount) {\r... */\n      iszero\n      tag_99\n      jumpi\n        /* \"contracts/prop_test.sol\":2927:2936  proposals */\n      0x06\n        /* \"contracts/prop_test.sol\":2937:2938  p */\n      dup2\n        /* \"contracts/prop_test.sol\":2927:2939  proposals[p] */\n      dup2\n      sload\n      dup2\n      lt\n      tag_100\n      jumpi\n      mstore(0x00, 0x4e487b7100000000000000000000000000000000000000000000000000000000)\n      mstore(0x04, 0x32)\n      revert(0x00, 0x24)\n    tag_100:\n      swap1\n      0x00\n      mstore\n      keccak256(0x00, 0x20)\n      swap1\n      0x02\n      mul\n      add\n        /* \"contracts/prop_test.sol\":2927:2949  proposals[p].voteCount */\n      0x01\n      add\n      sload\n        /* \"contracts/prop_test.sol\":2908:2949  winningVoteCount = proposals[p].voteCount */\n      swap2\n      pop\n        /* \"contracts/prop_test.sol\":2986:2987  p */\n      dup1\n        /* \"contracts/prop_test.sol\":2968:2987  winningProposal = p */\n      swap3\n      pop\n        /* \"contracts/prop_test.sol\":2842:3003  if (proposals[p].voteCount > winningVoteCount) {\r... */\n    tag_99:\n        /* \"contracts/prop_test.sol\":2822:2825  p++ */\n      dup1\n      dup1\n      tag_102\n      swap1\n      tag_103\n      jump\t// in\n    tag_102:\n      swap2\n      pop\n      pop\n        /* \"contracts/prop_test.sol\":2783:3014  for (uint p = 0; p < proposals.length; p++) {\r... */\n      jump(tag_94)\n    tag_95:\n      pop\n        /* \"contracts/prop_test.sol\":2667:3021  function winningProposal() public view returns (uint winningProposal){\r... */\n      pop\n      swap1\n      jump\t// out\n        /* \"contracts/prop_test.sol\":4174:4271  function getProposals() public view returns(Proposal[] memory){\r... */\n    tag_41:\n        /* \"contracts/prop_test.sol\":4218:4235  Proposal[] memory */\n      0x60\n        /* \"contracts/prop_test.sol\":4254:4263  proposals */\n      0x06\n        /* \"contracts/prop_test.sol\":4247:4263  return proposals */\n      dup1\n      sload\n      dup1\n      0x20\n      mul\n      0x20\n      add\n      mload(0x40)\n      swap1\n      dup2\n      add\n      0x40\n      mstore\n      dup1\n      swap3\n      swap2\n      swap1\n      dup2\n      dup2\n      mstore\n      0x20\n      add\n      0x00\n      swap1\n    tag_105:\n      dup3\n      dup3\n      lt\n      iszero\n      tag_106\n      jumpi\n      dup4\n      dup3\n      swap1\n      0x00\n      mstore\n      keccak256(0x00, 0x20)\n      swap1\n      0x02\n      mul\n      add\n      mload(0x40)\n      dup1\n      0x40\n      add\n      0x40\n      mstore\n      swap1\n      dup2\n      0x00\n      dup3\n      add\n      dup1\n      sload\n      tag_108\n      swap1\n      tag_86\n      jump\t// in\n    tag_108:\n      dup1\n      0x1f\n      add\n      0x20\n      dup1\n      swap2\n      div\n      mul\n      0x20\n      add\n      mload(0x40)\n      swap1\n      dup2\n      add\n      0x40\n      mstore\n      dup1\n      swap3\n      swap2\n      swap1\n      dup2\n      dup2\n      mstore\n      0x20\n      add\n      dup3\n      dup1\n      sload\n      tag_109\n      swap1\n      tag_86\n      jump\t// in\n    tag_109:\n      dup1\n      iszero\n      tag_110\n      jumpi\n      dup1\n      0x1f\n      lt\n      tag_111\n      jumpi\n      0x0100\n      dup1\n      dup4\n      sload\n      div\n      mul\n      dup4\n      mstore\n      swap2\n      0x20\n      add\n      swap2\n      jump(tag_110)\n    tag_111:\n      dup3\n      add\n      swap2\n      swap1\n      0x00\n      mstore\n      keccak256(0x00, 0x20)\n      swap1\n    tag_112:\n      dup2\n      sload\n      dup2\n      mstore\n      swap1\n      0x01\n      add\n      swap1\n      0x20\n      add\n      dup1\n      dup4\n      gt\n      tag_112\n      jumpi\n      dup3\n      swap1\n      sub\n      0x1f\n      and\n      dup3\n      add\n      swap2\n    tag_110:\n      pop\n      pop\n      pop\n      pop\n      pop\n      dup2\n      mstore\n      0x20\n      add\n      0x01\n      dup3\n      add\n      sload\n      dup2\n      mstore\n      pop\n      pop\n      dup2\n      mstore\n      0x20\n      add\n      swap1\n      0x01\n      add\n      swap1\n      jump(tag_105)\n    tag_106:\n      pop\n      pop\n      pop\n      pop\n      swap1\n      pop\n        /* \"contracts/prop_test.sol\":4174:4271  function getProposals() public view returns(Proposal[] memory){\r... */\n      swap1\n      jump\t// out\n        /* \"contracts/prop_test.sol\":3634:3708  function setStatus(uint _status) public{\r... */\n    tag_46:\n        /* \"contracts/prop_test.sol\":3693:3700  _status */\n      dup1\n        /* \"contracts/prop_test.sol\":3684:3690  status */\n      0x01\n        /* \"contracts/prop_test.sol\":3684:3700  status = _status */\n      dup2\n      swap1\n      sstore\n      pop\n        /* \"contracts/prop_test.sol\":3634:3708  function setStatus(uint _status) public{\r... */\n      pop\n      jump\t// out\n        /* \"contracts/prop_test.sol\":4436:4520  function getStartDate() public view returns(uint){\r... */\n    tag_48:\n        /* \"contracts/prop_test.sol\":4480:4484  uint */\n      0x00\n        /* \"contracts/prop_test.sol\":4503:4512  startDate */\n      sload(0x02)\n        /* \"contracts/prop_test.sol\":4496:4512  return startDate */\n      swap1\n      pop\n        /* \"contracts/prop_test.sol\":4436:4520  function getStartDate() public view returns(uint){\r... */\n      swap1\n      jump\t// out\n        /* \"contracts/prop_test.sol\":907:1647  function createBallot(string[] memory proposalNames) public {\r... */\n    tag_53:\n        /* \"contracts/prop_test.sol\":988:998  msg.sender */\n      caller\n        /* \"contracts/prop_test.sol\":978:985  creator */\n      0x00\n      dup1\n        /* \"contracts/prop_test.sol\":978:998  creator = msg.sender */\n      0x0100\n      exp\n      dup2\n      sload\n      dup2\n      0xffffffffffffffffffffffffffffffffffffffff\n      mul\n      not\n      and\n      swap1\n      dup4\n      0xffffffffffffffffffffffffffffffffffffffff\n      and\n      mul\n      or\n      swap1\n      sstore\n      pop\n        /* \"contracts/prop_test.sol\":1034:1035  1 */\n      0x01\n        /* \"contracts/prop_test.sol\":1009:1015  voters */\n      0x05\n        /* \"contracts/prop_test.sol\":1009:1024  voters[creator] */\n      0x00\n        /* \"contracts/prop_test.sol\":1016:1023  creator */\n      dup1\n      0x00\n      swap1\n      sload\n      swap1\n      0x0100\n      exp\n      swap1\n      div\n      0xffffffffffffffffffffffffffffffffffffffff\n      and\n        /* \"contracts/prop_test.sol\":1009:1024  voters[creator] */\n      0xffffffffffffffffffffffffffffffffffffffff\n      and\n      0xffffffffffffffffffffffffffffffffffffffff\n      and\n      dup2\n      mstore\n      0x20\n      add\n      swap1\n      dup2\n      mstore\n      0x20\n      add\n      0x00\n      keccak256\n        /* \"contracts/prop_test.sol\":1009:1031  voters[creator].weight */\n      0x00\n      add\n        /* \"contracts/prop_test.sol\":1009:1035  voters[creator].weight = 1 */\n      dup2\n      swap1\n      sstore\n      pop\n        /* \"contracts/prop_test.sol\":1057:1058  0 */\n      0x00\n        /* \"contracts/prop_test.sol\":1048:1054  status */\n      0x01\n        /* \"contracts/prop_test.sol\":1048:1058  status = 0 */\n      dup2\n      swap1\n      sstore\n      pop\n        /* \"contracts/prop_test.sol\":1069:1083  setStartDate() */\n      tag_116\n        /* \"contracts/prop_test.sol\":1069:1081  setStartDate */\n      tag_117\n        /* \"contracts/prop_test.sol\":1069:1083  setStartDate() */\n      jump\t// in\n    tag_116:\n        /* \"contracts/prop_test.sol\":1111:1124  proposalNames */\n      dup1\n        /* \"contracts/prop_test.sol\":1111:1131  proposalNames.length */\n      mload\n        /* \"contracts/prop_test.sol\":1094:1108  numOfProposals */\n      0x04\n        /* \"contracts/prop_test.sol\":1094:1131  numOfProposals = proposalNames.length */\n      dup2\n      swap1\n      sstore\n      pop\n        /* \"contracts/prop_test.sol\":1291:1297  uint i */\n      0x00\n        /* \"contracts/prop_test.sol\":1286:1640  for (uint i = 0; i < proposalNames.length; i++) {\r... */\n    tag_118:\n        /* \"contracts/prop_test.sol\":1307:1320  proposalNames */\n      dup2\n        /* \"contracts/prop_test.sol\":1307:1327  proposalNames.length */\n      mload\n        /* \"contracts/prop_test.sol\":1303:1304  i */\n      dup2\n        /* \"contracts/prop_test.sol\":1303:1327  i < proposalNames.length */\n      lt\n        /* \"contracts/prop_test.sol\":1286:1640  for (uint i = 0; i < proposalNames.length; i++) {\r... */\n      iszero\n      tag_119\n      jumpi\n        /* \"contracts/prop_test.sol\":1515:1524  proposals */\n      0x06\n        /* \"contracts/prop_test.sol\":1530:1627  Proposal({\r... */\n      mload(0x40)\n      dup1\n      0x40\n      add\n      0x40\n      mstore\n      dup1\n        /* \"contracts/prop_test.sol\":1564:1577  proposalNames */\n      dup5\n        /* \"contracts/prop_test.sol\":1578:1579  i */\n      dup5\n        /* \"contracts/prop_test.sol\":1564:1580  proposalNames[i] */\n      dup2\n      mload\n      dup2\n      lt\n      tag_121\n      jumpi\n      mstore(0x00, 0x4e487b7100000000000000000000000000000000000000000000000000000000)\n      mstore(0x04, 0x32)\n      revert(0x00, 0x24)\n    tag_121:\n      0x20\n      mul\n      0x20\n      add\n      add\n      mload\n        /* \"contracts/prop_test.sol\":1530:1627  Proposal({\r... */\n      dup2\n      mstore\n      0x20\n      add\n        /* \"contracts/prop_test.sol\":1610:1611  0 */\n      0x00\n        /* \"contracts/prop_test.sol\":1530:1627  Proposal({\r... */\n      dup2\n      mstore\n      pop\n        /* \"contracts/prop_test.sol\":1515:1628  proposals.push(Proposal({\r... */\n      swap1\n      dup1\n      0x01\n      dup2\n      sload\n      add\n      dup1\n      dup3\n      sstore\n      dup1\n      swap2\n      pop\n      pop\n      0x01\n      swap1\n      sub\n      swap1\n      0x00\n      mstore\n      keccak256(0x00, 0x20)\n      swap1\n      0x02\n      mul\n      add\n      0x00\n      swap1\n      swap2\n      swap1\n      swap2\n      swap1\n      swap2\n      pop\n      0x00\n      dup3\n      add\n      mload\n      dup2\n      0x00\n      add\n      swap1\n      dup1\n      mload\n      swap1\n      0x20\n      add\n      swap1\n      tag_123\n      swap3\n      swap2\n      swap1\n      tag_124\n      jump\t// in\n    tag_123:\n      pop\n      0x20\n      dup3\n      add\n      mload\n      dup2\n      0x01\n      add\n      sstore\n      pop\n      pop\n        /* \"contracts/prop_test.sol\":1329:1332  i++ */\n      dup1\n      dup1\n      tag_125\n      swap1\n      tag_103\n      jump\t// in\n    tag_125:\n      swap2\n      pop\n      pop\n        /* \"contracts/prop_test.sol\":1286:1640  for (uint i = 0; i < proposalNames.length; i++) {\r... */\n      jump(tag_118)\n    tag_119:\n      pop\n        /* \"contracts/prop_test.sol\":907:1647  function createBallot(string[] memory proposalNames) public {\r... */\n      pop\n      jump\t// out\n        /* \"contracts/prop_test.sol\":4562:4634  function setEndDate() public{\r... */\n    tag_55:\n        /* \"contracts/prop_test.sol\":4611:4626  block.timestamp */\n      timestamp\n        /* \"contracts/prop_test.sol\":4601:4608  endDate */\n      0x03\n        /* \"contracts/prop_test.sol\":4601:4626  endDate = block.timestamp */\n      dup2\n      swap1\n      sstore\n      pop\n        /* \"contracts/prop_test.sol\":4562:4634  function setEndDate() public{\r... */\n      jump\t// out\n        /* \"contracts/prop_test.sol\":1655:2233  function giveRightToVote(address voter) public {\r... */\n    tag_59:\n        /* \"contracts/prop_test.sol\":2126:2133  creator */\n      0x00\n      dup1\n      sload\n      swap1\n      0x0100\n      exp\n      swap1\n      div\n      0xffffffffffffffffffffffffffffffffffffffff\n      and\n        /* \"contracts/prop_test.sol\":2112:2133  msg.sender == creator */\n      0xffffffffffffffffffffffffffffffffffffffff\n      and\n        /* \"contracts/prop_test.sol\":2112:2122  msg.sender */\n      caller\n        /* \"contracts/prop_test.sol\":2112:2133  msg.sender == creator */\n      0xffffffffffffffffffffffffffffffffffffffff\n      and\n      eq\n        /* \"contracts/prop_test.sol\":2111:2158  (msg.sender == creator) && !voters[voter].voted */\n      dup1\n      iszero\n      tag_128\n      jumpi\n      pop\n        /* \"contracts/prop_test.sol\":2139:2145  voters */\n      0x05\n        /* \"contracts/prop_test.sol\":2139:2152  voters[voter] */\n      0x00\n        /* \"contracts/prop_test.sol\":2146:2151  voter */\n      dup3\n        /* \"contracts/prop_test.sol\":2139:2152  voters[voter] */\n      0xffffffffffffffffffffffffffffffffffffffff\n      and\n      0xffffffffffffffffffffffffffffffffffffffff\n      and\n      dup2\n      mstore\n      0x20\n      add\n      swap1\n      dup2\n      mstore\n      0x20\n      add\n      0x00\n      keccak256\n        /* \"contracts/prop_test.sol\":2139:2158  voters[voter].voted */\n      0x01\n      add\n      0x00\n      swap1\n      sload\n      swap1\n      0x0100\n      exp\n      swap1\n      div\n      0xff\n      and\n        /* \"contracts/prop_test.sol\":2138:2158  !voters[voter].voted */\n      iszero\n        /* \"contracts/prop_test.sol\":2111:2158  (msg.sender == creator) && !voters[voter].voted */\n    tag_128:\n        /* \"contracts/prop_test.sol\":2111:2189  (msg.sender == creator) && !voters[voter].voted && (voters[voter].weight == 0) */\n      dup1\n      iszero\n      tag_129\n      jumpi\n      pop\n        /* \"contracts/prop_test.sol\":2187:2188  0 */\n      0x00\n        /* \"contracts/prop_test.sol\":2163:2169  voters */\n      0x05\n        /* \"contracts/prop_test.sol\":2163:2176  voters[voter] */\n      0x00\n        /* \"contracts/prop_test.sol\":2170:2175  voter */\n      dup4\n        /* \"contracts/prop_test.sol\":2163:2176  voters[voter] */\n      0xffffffffffffffffffffffffffffffffffffffff\n      and\n      0xffffffffffffffffffffffffffffffffffffffff\n      and\n      dup2\n      mstore\n      0x20\n      add\n      swap1\n      dup2\n      mstore\n      0x20\n      add\n      0x00\n      keccak256\n        /* \"contracts/prop_test.sol\":2163:2183  voters[voter].weight */\n      0x00\n      add\n      sload\n        /* \"contracts/prop_test.sol\":2163:2188  voters[voter].weight == 0 */\n      eq\n        /* \"contracts/prop_test.sol\":2111:2189  (msg.sender == creator) && !voters[voter].voted && (voters[voter].weight == 0) */\n    tag_129:\n        /* \"contracts/prop_test.sol\":2103:2190  require((msg.sender == creator) && !voters[voter].voted && (voters[voter].weight == 0)) */\n      tag_130\n      jumpi\n      0x00\n      dup1\n      revert\n    tag_130:\n        /* \"contracts/prop_test.sol\":2224:2225  1 */\n      0x01\n        /* \"contracts/prop_test.sol\":2201:2207  voters */\n      0x05\n        /* \"contracts/prop_test.sol\":2201:2214  voters[voter] */\n      0x00\n        /* \"contracts/prop_test.sol\":2208:2213  voter */\n      dup4\n        /* \"contracts/prop_test.sol\":2201:2214  voters[voter] */\n      0xffffffffffffffffffffffffffffffffffffffff\n      and\n      0xffffffffffffffffffffffffffffffffffffffff\n      and\n      dup2\n      mstore\n      0x20\n      add\n      swap1\n      dup2\n      mstore\n      0x20\n      add\n      0x00\n      keccak256\n        /* \"contracts/prop_test.sol\":2201:2221  voters[voter].weight */\n      0x00\n      add\n        /* \"contracts/prop_test.sol\":2201:2225  voters[voter].weight = 1 */\n      dup2\n      swap1\n      sstore\n      pop\n        /* \"contracts/prop_test.sol\":1655:2233  function giveRightToVote(address voter) public {\r... */\n      pop\n      jump\t// out\n        /* \"contracts/prop_test.sol\":766:805  mapping(address => Voter) public voters */\n    tag_62:\n      mstore(0x20, 0x05)\n      dup1\n      0x00\n      mstore\n      keccak256(0x00, 0x40)\n      0x00\n      swap2\n      pop\n      swap1\n      pop\n      dup1\n      0x00\n      add\n      sload\n      swap1\n      dup1\n      0x01\n      add\n      0x00\n      swap1\n      sload\n      swap1\n      0x0100\n      exp\n      swap1\n      div\n      0xff\n      and\n      swap1\n      dup1\n      0x01\n      add\n      0x01\n      swap1\n      sload\n      swap1\n      0x0100\n      exp\n      swap1\n      div\n      0xffffffffffffffffffffffffffffffffffffffff\n      and\n      swap1\n      dup1\n      0x02\n      add\n      sload\n      swap1\n      pop\n      dup5\n      jump\t// out\n        /* \"contracts/prop_test.sol\":4674:4754  function getEndDate() public view returns(uint){\r... */\n    tag_66:\n        /* \"contracts/prop_test.sol\":4716:4720  uint */\n      0x00\n        /* \"contracts/prop_test.sol\":4739:4746  endDate */\n      sload(0x03)\n        /* \"contracts/prop_test.sol\":4732:4746  return endDate */\n      swap1\n      pop\n        /* \"contracts/prop_test.sol\":4674:4754  function getEndDate() public view returns(uint){\r... */\n      swap1\n      jump\t// out\n        /* \"contracts/prop_test.sol\":3190:3328  function winnerName() public view returns(string memory winnerName)\r... */\n    tag_69:\n        /* \"contracts/prop_test.sol\":3232:3256  string memory winnerName */\n      0x60\n        /* \"contracts/prop_test.sol\":3287:3296  proposals */\n      0x06\n        /* \"contracts/prop_test.sol\":3297:3314  winningProposal() */\n      tag_133\n        /* \"contracts/prop_test.sol\":3297:3312  winningProposal */\n      tag_38\n        /* \"contracts/prop_test.sol\":3297:3314  winningProposal() */\n      jump\t// in\n    tag_133:\n        /* \"contracts/prop_test.sol\":3287:3315  proposals[winningProposal()] */\n      dup2\n      sload\n      dup2\n      lt\n      tag_134\n      jumpi\n      mstore(0x00, 0x4e487b7100000000000000000000000000000000000000000000000000000000)\n      mstore(0x04, 0x32)\n      revert(0x00, 0x24)\n    tag_134:\n      swap1\n      0x00\n      mstore\n      keccak256(0x00, 0x20)\n      swap1\n      0x02\n      mul\n      add\n        /* \"contracts/prop_test.sol\":3287:3320  proposals[winningProposal()].name */\n      0x00\n      add\n        /* \"contracts/prop_test.sol\":3274:3320  winnerName = proposals[winningProposal()].name */\n      dup1\n      sload\n      tag_136\n      swap1\n      tag_86\n      jump\t// in\n    tag_136:\n      dup1\n      0x1f\n      add\n      0x20\n      dup1\n      swap2\n      div\n      mul\n      0x20\n      add\n      mload(0x40)\n      swap1\n      dup2\n      add\n      0x40\n      mstore\n      dup1\n      swap3\n      swap2\n      swap1\n      dup2\n      dup2\n      mstore\n      0x20\n      add\n      dup3\n      dup1\n      sload\n      tag_137\n      swap1\n      tag_86\n      jump\t// in\n    tag_137:\n      dup1\n      iszero\n      tag_138\n      jumpi\n      dup1\n      0x1f\n      lt\n      tag_139\n      jumpi\n      0x0100\n      dup1\n      dup4\n      sload\n      div\n      mul\n      dup4\n      mstore\n      swap2\n      0x20\n      add\n      swap2\n      jump(tag_138)\n    tag_139:\n      dup3\n      add\n      swap2\n      swap1\n      0x00\n      mstore\n      keccak256(0x00, 0x20)\n      swap1\n    tag_140:\n      dup2\n      sload\n      dup2\n      mstore\n      swap1\n      0x01\n      add\n      swap1\n      0x20\n      add\n      dup1\n      dup4\n      gt\n      tag_140\n      jumpi\n      dup3\n      swap1\n      sub\n      0x1f\n      and\n      dup3\n      add\n      swap2\n    tag_138:\n      pop\n      pop\n      pop\n      pop\n      pop\n      swap1\n      pop\n        /* \"contracts/prop_test.sol\":3190:3328  function winnerName() public view returns(string memory winnerName)\r... */\n      swap1\n      jump\t// out\n        /* \"contracts/prop_test.sol\":4007:4139  function getProposalStructure(uint _proposalId) public view returns(Proposal memory){\r... */\n    tag_74:\n        /* \"contracts/prop_test.sol\":4075:4090  Proposal memory */\n      tag_141\n      tag_142\n      jump\t// in\n    tag_141:\n        /* \"contracts/prop_test.sol\":4109:4118  proposals */\n      0x06\n        /* \"contracts/prop_test.sol\":4119:4130  _proposalId */\n      dup3\n        /* \"contracts/prop_test.sol\":4109:4131  proposals[_proposalId] */\n      dup2\n      sload\n      dup2\n      lt\n      tag_144\n      jumpi\n      mstore(0x00, 0x4e487b7100000000000000000000000000000000000000000000000000000000)\n      mstore(0x04, 0x32)\n      revert(0x00, 0x24)\n    tag_144:\n      swap1\n      0x00\n      mstore\n      keccak256(0x00, 0x20)\n      swap1\n      0x02\n      mul\n      add\n        /* \"contracts/prop_test.sol\":4102:4131  return proposals[_proposalId] */\n      mload(0x40)\n      dup1\n      0x40\n      add\n      0x40\n      mstore\n      swap1\n      dup2\n      0x00\n      dup3\n      add\n      dup1\n      sload\n      tag_146\n      swap1\n      tag_86\n      jump\t// in\n    tag_146:\n      dup1\n      0x1f\n      add\n      0x20\n      dup1\n      swap2\n      div\n      mul\n      0x20\n      add\n      mload(0x40)\n      swap1\n      dup2\n      add\n      0x40\n      mstore\n      dup1\n      swap3\n      swap2\n      swap1\n      dup2\n      dup2\n      mstore\n      0x20\n      add\n      dup3\n      dup1\n      sload\n      tag_147\n      swap1\n      tag_86\n      jump\t// in\n    tag_147:\n      dup1\n      iszero\n      tag_148\n      jumpi\n      dup1\n      0x1f\n      lt\n      tag_149\n      jumpi\n      0x0100\n      dup1\n      dup4\n      sload\n      div\n      mul\n      dup4\n      mstore\n      swap2\n      0x20\n      add\n      swap2\n      jump(tag_148)\n    tag_149:\n      dup3\n      add\n      swap2\n      swap1\n      0x00\n      mstore\n      keccak256(0x00, 0x20)\n      swap1\n    tag_150:\n      dup2\n      sload\n      dup2\n      mstore\n      swap1\n      0x01\n      add\n      swap1\n      0x20\n      add\n      dup1\n      dup4\n      gt\n      tag_150\n      jumpi\n      dup3\n      swap1\n      sub\n      0x1f\n      and\n      dup3\n      add\n      swap2\n    tag_148:\n      pop\n      pop\n      pop\n      pop\n      pop\n      dup2\n      mstore\n      0x20\n      add\n      0x01\n      dup3\n      add\n      sload\n      dup2\n      mstore\n      pop\n      pop\n      swap1\n      pop\n        /* \"contracts/prop_test.sol\":4007:4139  function getProposalStructure(uint _proposalId) public view returns(Proposal memory){\r... */\n      swap2\n      swap1\n      pop\n      jump\t// out\n        /* \"contracts/prop_test.sol\":4315:4394  function setStartDate() internal {\r... */\n    tag_117:\n        /* \"contracts/prop_test.sol\":4371:4386  block.timestamp */\n      timestamp\n        /* \"contracts/prop_test.sol\":4359:4368  startDate */\n      0x02\n        /* \"contracts/prop_test.sol\":4359:4386  startDate = block.timestamp */\n      dup2\n      swap1\n      sstore\n      pop\n        /* \"contracts/prop_test.sol\":4315:4394  function setStartDate() internal {\r... */\n      jump\t// out\n    tag_124:\n      dup3\n      dup1\n      sload\n      tag_152\n      swap1\n      tag_86\n      jump\t// in\n    tag_152:\n      swap1\n      0x00\n      mstore\n      keccak256(0x00, 0x20)\n      swap1\n      0x1f\n      add\n      0x20\n      swap1\n      div\n      dup2\n      add\n      swap3\n      dup3\n      tag_154\n      jumpi\n      0x00\n      dup6\n      sstore\n      jump(tag_153)\n    tag_154:\n      dup3\n      0x1f\n      lt\n      tag_155\n      jumpi\n      dup1\n      mload\n      not(0xff)\n      and\n      dup4\n      dup1\n      add\n      or\n      dup6\n      sstore\n      jump(tag_153)\n    tag_155:\n      dup3\n      dup1\n      add\n      0x01\n      add\n      dup6\n      sstore\n      dup3\n      iszero\n      tag_153\n      jumpi\n      swap2\n      dup3\n      add\n    tag_156:\n      dup3\n      dup2\n      gt\n      iszero\n      tag_157\n      jumpi\n      dup3\n      mload\n      dup3\n      sstore\n      swap2\n      0x20\n      add\n      swap2\n      swap1\n      0x01\n      add\n      swap1\n      jump(tag_156)\n    tag_157:\n    tag_153:\n      pop\n      swap1\n      pop\n      tag_158\n      swap2\n      swap1\n      tag_159\n      jump\t// in\n    tag_158:\n      pop\n      swap1\n      jump\t// out\n    tag_142:\n      mload(0x40)\n      dup1\n      0x40\n      add\n      0x40\n      mstore\n      dup1\n      0x60\n      dup2\n      mstore\n      0x20\n      add\n      0x00\n      dup2\n      mstore\n      pop\n      swap1\n      jump\t// out\n    tag_159:\n    tag_160:\n      dup1\n      dup3\n      gt\n      iszero\n      tag_161\n      jumpi\n      0x00\n      dup2\n      0x00\n      swap1\n      sstore\n      pop\n      0x01\n      add\n      jump(tag_160)\n    tag_161:\n      pop\n      swap1\n      jump\t// out\n        /* \"#utility.yul\":23:638   */\n    tag_163:\n      0x00\n        /* \"#utility.yul\":154:244   */\n      tag_165\n        /* \"#utility.yul\":169:243   */\n      tag_166\n        /* \"#utility.yul\":236:242   */\n      dup5\n        /* \"#utility.yul\":169:243   */\n      tag_167\n      jump\t// in\n    tag_166:\n        /* \"#utility.yul\":154:244   */\n      tag_168\n      jump\t// in\n    tag_165:\n        /* \"#utility.yul\":145:244   */\n      swap1\n      pop\n        /* \"#utility.yul\":264:269   */\n      dup1\n        /* \"#utility.yul\":292:298   */\n      dup4\n        /* \"#utility.yul\":285:290   */\n      dup3\n        /* \"#utility.yul\":278:299   */\n      mstore\n        /* \"#utility.yul\":318:322   */\n      0x20\n        /* \"#utility.yul\":311:316   */\n      dup3\n        /* \"#utility.yul\":307:323   */\n      add\n        /* \"#utility.yul\":300:323   */\n      swap1\n      pop\n        /* \"#utility.yul\":343:349   */\n      dup3\n        /* \"#utility.yul\":374:375   */\n      0x00\n        /* \"#utility.yul\":359:632   */\n    tag_169:\n        /* \"#utility.yul\":384:390   */\n      dup6\n        /* \"#utility.yul\":381:382   */\n      dup2\n        /* \"#utility.yul\":378:391   */\n      lt\n        /* \"#utility.yul\":359:632   */\n      iszero\n      tag_171\n      jumpi\n        /* \"#utility.yul\":476:479   */\n      dup2\n        /* \"#utility.yul\":463:480   */\n      calldataload\n        /* \"#utility.yul\":455:461   */\n      dup6\n        /* \"#utility.yul\":451:481   */\n      add\n        /* \"#utility.yul\":506:553   */\n      tag_172\n        /* \"#utility.yul\":549:552   */\n      dup9\n        /* \"#utility.yul\":537:547   */\n      dup3\n        /* \"#utility.yul\":506:553   */\n      tag_173\n      jump\t// in\n    tag_172:\n        /* \"#utility.yul\":501:504   */\n      dup5\n        /* \"#utility.yul\":494:554   */\n      mstore\n        /* \"#utility.yul\":583:587   */\n      0x20\n        /* \"#utility.yul\":578:581   */\n      dup5\n        /* \"#utility.yul\":574:588   */\n      add\n        /* \"#utility.yul\":567:588   */\n      swap4\n      pop\n        /* \"#utility.yul\":617:621   */\n      0x20\n        /* \"#utility.yul\":612:615   */\n      dup4\n        /* \"#utility.yul\":608:622   */\n      add\n        /* \"#utility.yul\":601:622   */\n      swap3\n      pop\n        /* \"#utility.yul\":419:632   */\n      pop\n        /* \"#utility.yul\":406:407   */\n      0x01\n        /* \"#utility.yul\":403:404   */\n      dup2\n        /* \"#utility.yul\":399:408   */\n      add\n        /* \"#utility.yul\":394:408   */\n      swap1\n      pop\n        /* \"#utility.yul\":359:632   */\n      jump(tag_169)\n    tag_171:\n        /* \"#utility.yul\":363:377   */\n      pop\n        /* \"#utility.yul\":135:638   */\n      pop\n      pop\n      swap4\n      swap3\n      pop\n      pop\n      pop\n      jump\t// out\n        /* \"#utility.yul\":644:988   */\n    tag_174:\n      0x00\n        /* \"#utility.yul\":747:812   */\n      tag_176\n        /* \"#utility.yul\":762:811   */\n      tag_177\n        /* \"#utility.yul\":804:810   */\n      dup5\n        /* \"#utility.yul\":762:811   */\n      tag_178\n      jump\t// in\n    tag_177:\n        /* \"#utility.yul\":747:812   */\n      tag_168\n      jump\t// in\n    tag_176:\n        /* \"#utility.yul\":738:812   */\n      swap1\n      pop\n        /* \"#utility.yul\":835:841   */\n      dup3\n        /* \"#utility.yul\":828:833   */\n      dup2\n        /* \"#utility.yul\":821:842   */\n      mstore\n        /* \"#utility.yul\":873:877   */\n      0x20\n        /* \"#utility.yul\":866:871   */\n      dup2\n        /* \"#utility.yul\":862:878   */\n      add\n        /* \"#utility.yul\":911:914   */\n      dup5\n        /* \"#utility.yul\":902:908   */\n      dup5\n        /* \"#utility.yul\":897:900   */\n      dup5\n        /* \"#utility.yul\":893:909   */\n      add\n        /* \"#utility.yul\":890:915   */\n      gt\n        /* \"#utility.yul\":887:889   */\n      iszero\n      tag_179\n      jumpi\n        /* \"#utility.yul\":928:929   */\n      0x00\n        /* \"#utility.yul\":925:926   */\n      dup1\n        /* \"#utility.yul\":918:930   */\n      revert\n        /* \"#utility.yul\":887:889   */\n    tag_179:\n        /* \"#utility.yul\":941:982   */\n      tag_180\n        /* \"#utility.yul\":975:981   */\n      dup5\n        /* \"#utility.yul\":970:973   */\n      dup3\n        /* \"#utility.yul\":965:968   */\n      dup6\n        /* \"#utility.yul\":941:982   */\n      tag_181\n      jump\t// in\n    tag_180:\n        /* \"#utility.yul\":728:988   */\n      pop\n      swap4\n      swap3\n      pop\n      pop\n      pop\n      jump\t// out\n        /* \"#utility.yul\":994:1133   */\n    tag_182:\n      0x00\n        /* \"#utility.yul\":1078:1084   */\n      dup2\n        /* \"#utility.yul\":1065:1085   */\n      calldataload\n        /* \"#utility.yul\":1056:1085   */\n      swap1\n      pop\n        /* \"#utility.yul\":1094:1127   */\n      tag_184\n        /* \"#utility.yul\":1121:1126   */\n      dup2\n        /* \"#utility.yul\":1094:1127   */\n      tag_185\n      jump\t// in\n    tag_184:\n        /* \"#utility.yul\":1046:1133   */\n      swap3\n      swap2\n      pop\n      pop\n      jump\t// out\n        /* \"#utility.yul\":1155:1478   */\n    tag_186:\n      0x00\n        /* \"#utility.yul\":1285:1288   */\n      dup3\n        /* \"#utility.yul\":1278:1282   */\n      0x1f\n        /* \"#utility.yul\":1270:1276   */\n      dup4\n        /* \"#utility.yul\":1266:1283   */\n      add\n        /* \"#utility.yul\":1262:1289   */\n      slt\n        /* \"#utility.yul\":1252:1254   */\n      tag_188\n      jumpi\n        /* \"#utility.yul\":1303:1304   */\n      0x00\n        /* \"#utility.yul\":1300:1301   */\n      dup1\n        /* \"#utility.yul\":1293:1305   */\n      revert\n        /* \"#utility.yul\":1252:1254   */\n    tag_188:\n        /* \"#utility.yul\":1343:1349   */\n      dup2\n        /* \"#utility.yul\":1330:1350   */\n      calldataload\n        /* \"#utility.yul\":1368:1472   */\n      tag_189\n        /* \"#utility.yul\":1468:1471   */\n      dup5\n        /* \"#utility.yul\":1460:1466   */\n      dup3\n        /* \"#utility.yul\":1453:1457   */\n      0x20\n        /* \"#utility.yul\":1445:1451   */\n      dup7\n        /* \"#utility.yul\":1441:1458   */\n      add\n        /* \"#utility.yul\":1368:1472   */\n      tag_163\n      jump\t// in\n    tag_189:\n        /* \"#utility.yul\":1359:1472   */\n      swap2\n      pop\n        /* \"#utility.yul\":1242:1478   */\n      pop\n      swap3\n      swap2\n      pop\n      pop\n      jump\t// out\n        /* \"#utility.yul\":1498:1771   */\n    tag_173:\n      0x00\n        /* \"#utility.yul\":1603:1606   */\n      dup3\n        /* \"#utility.yul\":1596:1600   */\n      0x1f\n        /* \"#utility.yul\":1588:1594   */\n      dup4\n        /* \"#utility.yul\":1584:1601   */\n      add\n        /* \"#utility.yul\":1580:1607   */\n      slt\n        /* \"#utility.yul\":1570:1572   */\n      tag_191\n      jumpi\n        /* \"#utility.yul\":1621:1622   */\n      0x00\n        /* \"#utility.yul\":1618:1619   */\n      dup1\n        /* \"#utility.yul\":1611:1623   */\n      revert\n        /* \"#utility.yul\":1570:1572   */\n    tag_191:\n        /* \"#utility.yul\":1661:1667   */\n      dup2\n        /* \"#utility.yul\":1648:1668   */\n      calldataload\n        /* \"#utility.yul\":1686:1765   */\n      tag_192\n        /* \"#utility.yul\":1761:1764   */\n      dup5\n        /* \"#utility.yul\":1753:1759   */\n      dup3\n        /* \"#utility.yul\":1746:1750   */\n      0x20\n        /* \"#utility.yul\":1738:1744   */\n      dup7\n        /* \"#utility.yul\":1734:1751   */\n      add\n        /* \"#utility.yul\":1686:1765   */\n      tag_174\n      jump\t// in\n    tag_192:\n        /* \"#utility.yul\":1677:1765   */\n      swap2\n      pop\n        /* \"#utility.yul\":1560:1771   */\n      pop\n      swap3\n      swap2\n      pop\n      pop\n      jump\t// out\n        /* \"#utility.yul\":1777:1916   */\n    tag_193:\n      0x00\n        /* \"#utility.yul\":1861:1867   */\n      dup2\n        /* \"#utility.yul\":1848:1868   */\n      calldataload\n        /* \"#utility.yul\":1839:1868   */\n      swap1\n      pop\n        /* \"#utility.yul\":1877:1910   */\n      tag_195\n        /* \"#utility.yul\":1904:1909   */\n      dup2\n        /* \"#utility.yul\":1877:1910   */\n      tag_196\n      jump\t// in\n    tag_195:\n        /* \"#utility.yul\":1829:1916   */\n      swap3\n      swap2\n      pop\n      pop\n      jump\t// out\n        /* \"#utility.yul\":1922:2184   */\n    tag_58:\n      0x00\n        /* \"#utility.yul\":2030:2032   */\n      0x20\n        /* \"#utility.yul\":2018:2027   */\n      dup3\n        /* \"#utility.yul\":2009:2016   */\n      dup5\n        /* \"#utility.yul\":2005:2028   */\n      sub\n        /* \"#utility.yul\":2001:2033   */\n      slt\n        /* \"#utility.yul\":1998:2000   */\n      iszero\n      tag_198\n      jumpi\n        /* \"#utility.yul\":2046:2047   */\n      0x00\n        /* \"#utility.yul\":2043:2044   */\n      dup1\n        /* \"#utility.yul\":2036:2048   */\n      revert\n        /* \"#utility.yul\":1998:2000   */\n    tag_198:\n        /* \"#utility.yul\":2089:2090   */\n      0x00\n        /* \"#utility.yul\":2114:2167   */\n      tag_199\n        /* \"#utility.yul\":2159:2166   */\n      dup5\n        /* \"#utility.yul\":2150:2156   */\n      dup3\n        /* \"#utility.yul\":2139:2148   */\n      dup6\n        /* \"#utility.yul\":2135:2157   */\n      add\n        /* \"#utility.yul\":2114:2167   */\n      tag_182\n      jump\t// in\n    tag_199:\n        /* \"#utility.yul\":2104:2167   */\n      swap2\n      pop\n        /* \"#utility.yul\":2060:2177   */\n      pop\n        /* \"#utility.yul\":1988:2184   */\n      swap3\n      swap2\n      pop\n      pop\n      jump\t// out\n        /* \"#utility.yul\":2190:2615   */\n    tag_52:\n      0x00\n        /* \"#utility.yul\":2333:2335   */\n      0x20\n        /* \"#utility.yul\":2321:2330   */\n      dup3\n        /* \"#utility.yul\":2312:2319   */\n      dup5\n        /* \"#utility.yul\":2308:2331   */\n      sub\n        /* \"#utility.yul\":2304:2336   */\n      slt\n        /* \"#utility.yul\":2301:2303   */\n      iszero\n      tag_201\n      jumpi\n        /* \"#utility.yul\":2349:2350   */\n      0x00\n        /* \"#utility.yul\":2346:2347   */\n      dup1\n        /* \"#utility.yul\":2339:2351   */\n      revert\n        /* \"#utility.yul\":2301:2303   */\n    tag_201:\n        /* \"#utility.yul\":2420:2421   */\n      0x00\n        /* \"#utility.yul\":2409:2418   */\n      dup3\n        /* \"#utility.yul\":2405:2422   */\n      add\n        /* \"#utility.yul\":2392:2423   */\n      calldataload\n        /* \"#utility.yul\":2450:2468   */\n      0xffffffffffffffff\n        /* \"#utility.yul\":2442:2448   */\n      dup2\n        /* \"#utility.yul\":2439:2469   */\n      gt\n        /* \"#utility.yul\":2436:2438   */\n      iszero\n      tag_202\n      jumpi\n        /* \"#utility.yul\":2482:2483   */\n      0x00\n        /* \"#utility.yul\":2479:2480   */\n      dup1\n        /* \"#utility.yul\":2472:2484   */\n      revert\n        /* \"#utility.yul\":2436:2438   */\n    tag_202:\n        /* \"#utility.yul\":2510:2598   */\n      tag_203\n        /* \"#utility.yul\":2590:2597   */\n      dup5\n        /* \"#utility.yul\":2581:2587   */\n      dup3\n        /* \"#utility.yul\":2570:2579   */\n      dup6\n        /* \"#utility.yul\":2566:2588   */\n      add\n        /* \"#utility.yul\":2510:2598   */\n      tag_186\n      jump\t// in\n    tag_203:\n        /* \"#utility.yul\":2500:2598   */\n      swap2\n      pop\n        /* \"#utility.yul\":2363:2608   */\n      pop\n        /* \"#utility.yul\":2291:2615   */\n      swap3\n      swap2\n      pop\n      pop\n      jump\t// out\n        /* \"#utility.yul\":2621:2883   */\n    tag_23:\n      0x00\n        /* \"#utility.yul\":2729:2731   */\n      0x20\n        /* \"#utility.yul\":2717:2726   */\n      dup3\n        /* \"#utility.yul\":2708:2715   */\n      dup5\n        /* \"#utility.yul\":2704:2727   */\n      sub\n        /* \"#utility.yul\":2700:2732   */\n      slt\n        /* \"#utility.yul\":2697:2699   */\n      iszero\n      tag_205\n      jumpi\n        /* \"#utility.yul\":2745:2746   */\n      0x00\n        /* \"#utility.yul\":2742:2743   */\n      dup1\n        /* \"#utility.yul\":2735:2747   */\n      revert\n        /* \"#utility.yul\":2697:2699   */\n    tag_205:\n        /* \"#utility.yul\":2788:2789   */\n      0x00\n        /* \"#utility.yul\":2813:2866   */\n      tag_206\n        /* \"#utility.yul\":2858:2865   */\n      dup5\n        /* \"#utility.yul\":2849:2855   */\n      dup3\n        /* \"#utility.yul\":2838:2847   */\n      dup6\n        /* \"#utility.yul\":2834:2856   */\n      add\n        /* \"#utility.yul\":2813:2866   */\n      tag_193\n      jump\t// in\n    tag_206:\n        /* \"#utility.yul\":2803:2866   */\n      swap2\n      pop\n        /* \"#utility.yul\":2759:2876   */\n      pop\n        /* \"#utility.yul\":2687:2883   */\n      swap3\n      swap2\n      pop\n      pop\n      jump\t// out\n        /* \"#utility.yul\":2889:3141   */\n    tag_207:\n      0x00\n        /* \"#utility.yul\":3041:3135   */\n      tag_209\n        /* \"#utility.yul\":3131:3134   */\n      dup4\n        /* \"#utility.yul\":3123:3129   */\n      dup4\n        /* \"#utility.yul\":3041:3135   */\n      tag_210\n      jump\t// in\n    tag_209:\n        /* \"#utility.yul\":3027:3135   */\n      swap1\n      pop\n        /* \"#utility.yul\":3017:3141   */\n      swap3\n      swap2\n      pop\n      pop\n      jump\t// out\n        /* \"#utility.yul\":3147:3265   */\n    tag_211:\n        /* \"#utility.yul\":3234:3258   */\n      tag_213\n        /* \"#utility.yul\":3252:3257   */\n      dup2\n        /* \"#utility.yul\":3234:3258   */\n      tag_214\n      jump\t// in\n    tag_213:\n        /* \"#utility.yul\":3229:3232   */\n      dup3\n        /* \"#utility.yul\":3222:3259   */\n      mstore\n        /* \"#utility.yul\":3212:3265   */\n      pop\n      pop\n      jump\t// out\n        /* \"#utility.yul\":3331:4434   */\n    tag_215:\n      0x00\n        /* \"#utility.yul\":3527:3605   */\n      tag_217\n        /* \"#utility.yul\":3599:3604   */\n      dup3\n        /* \"#utility.yul\":3527:3605   */\n      tag_218\n      jump\t// in\n    tag_217:\n        /* \"#utility.yul\":3621:3731   */\n      tag_219\n        /* \"#utility.yul\":3724:3730   */\n      dup2\n        /* \"#utility.yul\":3719:3722   */\n      dup6\n        /* \"#utility.yul\":3621:3731   */\n      tag_220\n      jump\t// in\n    tag_219:\n        /* \"#utility.yul\":3614:3731   */\n      swap4\n      pop\n        /* \"#utility.yul\":3757:3760   */\n      dup4\n        /* \"#utility.yul\":3802:3806   */\n      0x20\n        /* \"#utility.yul\":3794:3800   */\n      dup3\n        /* \"#utility.yul\":3790:3807   */\n      mul\n        /* \"#utility.yul\":3785:3788   */\n      dup6\n        /* \"#utility.yul\":3781:3808   */\n      add\n        /* \"#utility.yul\":3832:3912   */\n      tag_221\n        /* \"#utility.yul\":3906:3911   */\n      dup6\n        /* \"#utility.yul\":3832:3912   */\n      tag_222\n      jump\t// in\n    tag_221:\n        /* \"#utility.yul\":3935:3942   */\n      dup1\n        /* \"#utility.yul\":3966:3967   */\n      0x00\n        /* \"#utility.yul\":3951:4389   */\n    tag_223:\n        /* \"#utility.yul\":3976:3982   */\n      dup6\n        /* \"#utility.yul\":3973:3974   */\n      dup2\n        /* \"#utility.yul\":3970:3983   */\n      lt\n        /* \"#utility.yul\":3951:4389   */\n      iszero\n      tag_225\n      jumpi\n        /* \"#utility.yul\":4047:4056   */\n      dup5\n        /* \"#utility.yul\":4041:4045   */\n      dup5\n        /* \"#utility.yul\":4037:4057   */\n      sub\n        /* \"#utility.yul\":4032:4035   */\n      dup10\n        /* \"#utility.yul\":4025:4058   */\n      mstore\n        /* \"#utility.yul\":4098:4104   */\n      dup2\n        /* \"#utility.yul\":4092:4105   */\n      mload\n        /* \"#utility.yul\":4126:4238   */\n      tag_226\n        /* \"#utility.yul\":4233:4237   */\n      dup6\n        /* \"#utility.yul\":4218:4231   */\n      dup3\n        /* \"#utility.yul\":4126:4238   */\n      tag_207\n      jump\t// in\n    tag_226:\n        /* \"#utility.yul\":4118:4238   */\n      swap5\n      pop\n        /* \"#utility.yul\":4261:4345   */\n      tag_227\n        /* \"#utility.yul\":4338:4344   */\n      dup4\n        /* \"#utility.yul\":4261:4345   */\n      tag_228\n      jump\t// in\n    tag_227:\n        /* \"#utility.yul\":4251:4345   */\n      swap3\n      pop\n        /* \"#utility.yul\":4374:4378   */\n      0x20\n        /* \"#utility.yul\":4369:4372   */\n      dup11\n        /* \"#utility.yul\":4365:4379   */\n      add\n        /* \"#utility.yul\":4358:4379   */\n      swap10\n      pop\n        /* \"#utility.yul\":4011:4389   */\n      pop\n        /* \"#utility.yul\":3998:3999   */\n      0x01\n        /* \"#utility.yul\":3995:3996   */\n      dup2\n        /* \"#utility.yul\":3991:4000   */\n      add\n        /* \"#utility.yul\":3986:4000   */\n      swap1\n      pop\n        /* \"#utility.yul\":3951:4389   */\n      jump(tag_223)\n    tag_225:\n        /* \"#utility.yul\":3955:3969   */\n      pop\n        /* \"#utility.yul\":4405:4409   */\n      dup3\n        /* \"#utility.yul\":4398:4409   */\n      swap8\n      pop\n        /* \"#utility.yul\":4425:4428   */\n      dup8\n        /* \"#utility.yul\":4418:4428   */\n      swap6\n      pop\n        /* \"#utility.yul\":3503:4434   */\n      pop\n      pop\n      pop\n      pop\n      pop\n      swap3\n      swap2\n      pop\n      pop\n      jump\t// out\n        /* \"#utility.yul\":4440:4549   */\n    tag_229:\n        /* \"#utility.yul\":4521:4542   */\n      tag_231\n        /* \"#utility.yul\":4536:4541   */\n      dup2\n        /* \"#utility.yul\":4521:4542   */\n      tag_232\n      jump\t// in\n    tag_231:\n        /* \"#utility.yul\":4516:4519   */\n      dup3\n        /* \"#utility.yul\":4509:4543   */\n      mstore\n        /* \"#utility.yul\":4499:4549   */\n      pop\n      pop\n      jump\t// out\n        /* \"#utility.yul\":4555:4899   */\n    tag_233:\n      0x00\n        /* \"#utility.yul\":4661:4700   */\n      tag_235\n        /* \"#utility.yul\":4694:4699   */\n      dup3\n        /* \"#utility.yul\":4661:4700   */\n      tag_236\n      jump\t// in\n    tag_235:\n        /* \"#utility.yul\":4716:4777   */\n      tag_237\n        /* \"#utility.yul\":4770:4776   */\n      dup2\n        /* \"#utility.yul\":4765:4768   */\n      dup6\n        /* \"#utility.yul\":4716:4777   */\n      tag_238\n      jump\t// in\n    tag_237:\n        /* \"#utility.yul\":4709:4777   */\n      swap4\n      pop\n        /* \"#utility.yul\":4786:4838   */\n      tag_239\n        /* \"#utility.yul\":4831:4837   */\n      dup2\n        /* \"#utility.yul\":4826:4829   */\n      dup6\n        /* \"#utility.yul\":4819:4823   */\n      0x20\n        /* \"#utility.yul\":4812:4817   */\n      dup7\n        /* \"#utility.yul\":4808:4824   */\n      add\n        /* \"#utility.yul\":4786:4838   */\n      tag_240\n      jump\t// in\n    tag_239:\n        /* \"#utility.yul\":4863:4892   */\n      tag_241\n        /* \"#utility.yul\":4885:4891   */\n      dup2\n        /* \"#utility.yul\":4863:4892   */\n      tag_242\n      jump\t// in\n    tag_241:\n        /* \"#utility.yul\":4858:4861   */\n      dup5\n        /* \"#utility.yul\":4854:4893   */\n      add\n        /* \"#utility.yul\":4847:4893   */\n      swap2\n      pop\n        /* \"#utility.yul\":4637:4899   */\n      pop\n      swap3\n      swap2\n      pop\n      pop\n      jump\t// out\n        /* \"#utility.yul\":4905:5269   */\n    tag_243:\n      0x00\n        /* \"#utility.yul\":5021:5060   */\n      tag_245\n        /* \"#utility.yul\":5054:5059   */\n      dup3\n        /* \"#utility.yul\":5021:5060   */\n      tag_236\n      jump\t// in\n    tag_245:\n        /* \"#utility.yul\":5076:5147   */\n      tag_246\n        /* \"#utility.yul\":5140:5146   */\n      dup2\n        /* \"#utility.yul\":5135:5138   */\n      dup6\n        /* \"#utility.yul\":5076:5147   */\n      tag_247\n      jump\t// in\n    tag_246:\n        /* \"#utility.yul\":5069:5147   */\n      swap4\n      pop\n        /* \"#utility.yul\":5156:5208   */\n      tag_248\n        /* \"#utility.yul\":5201:5207   */\n      dup2\n        /* \"#utility.yul\":5196:5199   */\n      dup6\n        /* \"#utility.yul\":5189:5193   */\n      0x20\n        /* \"#utility.yul\":5182:5187   */\n      dup7\n        /* \"#utility.yul\":5178:5194   */\n      add\n        /* \"#utility.yul\":5156:5208   */\n      tag_240\n      jump\t// in\n    tag_248:\n        /* \"#utility.yul\":5233:5262   */\n      tag_249\n        /* \"#utility.yul\":5255:5261   */\n      dup2\n        /* \"#utility.yul\":5233:5262   */\n      tag_242\n      jump\t// in\n    tag_249:\n        /* \"#utility.yul\":5228:5231   */\n      dup5\n        /* \"#utility.yul\":5224:5263   */\n      add\n        /* \"#utility.yul\":5217:5263   */\n      swap2\n      pop\n        /* \"#utility.yul\":4997:5269   */\n      pop\n      swap3\n      swap2\n      pop\n      pop\n      jump\t// out\n        /* \"#utility.yul\":5331:5930   */\n    tag_210:\n      0x00\n        /* \"#utility.yul\":5474:5478   */\n      0x40\n        /* \"#utility.yul\":5469:5472   */\n      dup4\n        /* \"#utility.yul\":5465:5479   */\n      add\n        /* \"#utility.yul\":5561:5565   */\n      0x00\n        /* \"#utility.yul\":5554:5559   */\n      dup4\n        /* \"#utility.yul\":5550:5566   */\n      add\n        /* \"#utility.yul\":5544:5567   */\n      mload\n        /* \"#utility.yul\":5614:5617   */\n      dup5\n        /* \"#utility.yul\":5608:5612   */\n      dup3\n        /* \"#utility.yul\":5604:5618   */\n      sub\n        /* \"#utility.yul\":5597:5601   */\n      0x00\n        /* \"#utility.yul\":5592:5595   */\n      dup7\n        /* \"#utility.yul\":5588:5602   */\n      add\n        /* \"#utility.yul\":5581:5619   */\n      mstore\n        /* \"#utility.yul\":5640:5713   */\n      tag_251\n        /* \"#utility.yul\":5708:5712   */\n      dup3\n        /* \"#utility.yul\":5694:5706   */\n      dup3\n        /* \"#utility.yul\":5640:5713   */\n      tag_233\n      jump\t// in\n    tag_251:\n        /* \"#utility.yul\":5632:5713   */\n      swap2\n      pop\n        /* \"#utility.yul\":5489:5724   */\n      pop\n        /* \"#utility.yul\":5811:5815   */\n      0x20\n        /* \"#utility.yul\":5804:5809   */\n      dup4\n        /* \"#utility.yul\":5800:5816   */\n      add\n        /* \"#utility.yul\":5794:5817   */\n      mload\n        /* \"#utility.yul\":5830:5893   */\n      tag_252\n        /* \"#utility.yul\":5887:5891   */\n      0x20\n        /* \"#utility.yul\":5882:5885   */\n      dup7\n        /* \"#utility.yul\":5878:5892   */\n      add\n        /* \"#utility.yul\":5864:5876   */\n      dup3\n        /* \"#utility.yul\":5830:5893   */\n      tag_253\n      jump\t// in\n    tag_252:\n        /* \"#utility.yul\":5734:5903   */\n      pop\n        /* \"#utility.yul\":5920:5924   */\n      dup1\n        /* \"#utility.yul\":5913:5924   */\n      swap2\n      pop\n        /* \"#utility.yul\":5443:5930   */\n      pop\n      swap3\n      swap2\n      pop\n      pop\n      jump\t// out\n        /* \"#utility.yul\":5992:6601   */\n    tag_254:\n      0x00\n        /* \"#utility.yul\":6145:6149   */\n      0x40\n        /* \"#utility.yul\":6140:6143   */\n      dup4\n        /* \"#utility.yul\":6136:6150   */\n      add\n        /* \"#utility.yul\":6232:6236   */\n      0x00\n        /* \"#utility.yul\":6225:6230   */\n      dup4\n        /* \"#utility.yul\":6221:6237   */\n      add\n        /* \"#utility.yul\":6215:6238   */\n      mload\n        /* \"#utility.yul\":6285:6288   */\n      dup5\n        /* \"#utility.yul\":6279:6283   */\n      dup3\n        /* \"#utility.yul\":6275:6289   */\n      sub\n        /* \"#utility.yul\":6268:6272   */\n      0x00\n        /* \"#utility.yul\":6263:6266   */\n      dup7\n        /* \"#utility.yul\":6259:6273   */\n      add\n        /* \"#utility.yul\":6252:6290   */\n      mstore\n        /* \"#utility.yul\":6311:6384   */\n      tag_256\n        /* \"#utility.yul\":6379:6383   */\n      dup3\n        /* \"#utility.yul\":6365:6377   */\n      dup3\n        /* \"#utility.yul\":6311:6384   */\n      tag_233\n      jump\t// in\n    tag_256:\n        /* \"#utility.yul\":6303:6384   */\n      swap2\n      pop\n        /* \"#utility.yul\":6160:6395   */\n      pop\n        /* \"#utility.yul\":6482:6486   */\n      0x20\n        /* \"#utility.yul\":6475:6480   */\n      dup4\n        /* \"#utility.yul\":6471:6487   */\n      add\n        /* \"#utility.yul\":6465:6488   */\n      mload\n        /* \"#utility.yul\":6501:6564   */\n      tag_257\n        /* \"#utility.yul\":6558:6562   */\n      0x20\n        /* \"#utility.yul\":6553:6556   */\n      dup7\n        /* \"#utility.yul\":6549:6563   */\n      add\n        /* \"#utility.yul\":6535:6547   */\n      dup3\n        /* \"#utility.yul\":6501:6564   */\n      tag_253\n      jump\t// in\n    tag_257:\n        /* \"#utility.yul\":6405:6574   */\n      pop\n        /* \"#utility.yul\":6591:6595   */\n      dup1\n        /* \"#utility.yul\":6584:6595   */\n      swap2\n      pop\n        /* \"#utility.yul\":6114:6601   */\n      pop\n      swap3\n      swap2\n      pop\n      pop\n      jump\t// out\n        /* \"#utility.yul\":6607:6715   */\n    tag_253:\n        /* \"#utility.yul\":6684:6708   */\n      tag_259\n        /* \"#utility.yul\":6702:6707   */\n      dup2\n        /* \"#utility.yul\":6684:6708   */\n      tag_260\n      jump\t// in\n    tag_259:\n        /* \"#utility.yul\":6679:6682   */\n      dup3\n        /* \"#utility.yul\":6672:6709   */\n      mstore\n        /* \"#utility.yul\":6662:6715   */\n      pop\n      pop\n      jump\t// out\n        /* \"#utility.yul\":6721:6839   */\n    tag_261:\n        /* \"#utility.yul\":6808:6832   */\n      tag_263\n        /* \"#utility.yul\":6826:6831   */\n      dup2\n        /* \"#utility.yul\":6808:6832   */\n      tag_260\n      jump\t// in\n    tag_263:\n        /* \"#utility.yul\":6803:6806   */\n      dup3\n        /* \"#utility.yul\":6796:6833   */\n      mstore\n        /* \"#utility.yul\":6786:6839   */\n      pop\n      pop\n      jump\t// out\n        /* \"#utility.yul\":6845:7314   */\n    tag_43:\n      0x00\n        /* \"#utility.yul\":7074:7076   */\n      0x20\n        /* \"#utility.yul\":7063:7072   */\n      dup3\n        /* \"#utility.yul\":7059:7077   */\n      add\n        /* \"#utility.yul\":7051:7077   */\n      swap1\n      pop\n        /* \"#utility.yul\":7123:7132   */\n      dup2\n        /* \"#utility.yul\":7117:7121   */\n      dup2\n        /* \"#utility.yul\":7113:7133   */\n      sub\n        /* \"#utility.yul\":7109:7110   */\n      0x00\n        /* \"#utility.yul\":7098:7107   */\n      dup4\n        /* \"#utility.yul\":7094:7111   */\n      add\n        /* \"#utility.yul\":7087:7134   */\n      mstore\n        /* \"#utility.yul\":7151:7307   */\n      tag_265\n        /* \"#utility.yul\":7302:7306   */\n      dup2\n        /* \"#utility.yul\":7293:7299   */\n      dup5\n        /* \"#utility.yul\":7151:7307   */\n      tag_215\n      jump\t// in\n    tag_265:\n        /* \"#utility.yul\":7143:7307   */\n      swap1\n      pop\n        /* \"#utility.yul\":7041:7314   */\n      swap3\n      swap2\n      pop\n      pop\n      jump\t// out\n        /* \"#utility.yul\":7320:7633   */\n    tag_71:\n      0x00\n        /* \"#utility.yul\":7471:7473   */\n      0x20\n        /* \"#utility.yul\":7460:7469   */\n      dup3\n        /* \"#utility.yul\":7456:7474   */\n      add\n        /* \"#utility.yul\":7448:7474   */\n      swap1\n      pop\n        /* \"#utility.yul\":7520:7529   */\n      dup2\n        /* \"#utility.yul\":7514:7518   */\n      dup2\n        /* \"#utility.yul\":7510:7530   */\n      sub\n        /* \"#utility.yul\":7506:7507   */\n      0x00\n        /* \"#utility.yul\":7495:7504   */\n      dup4\n        /* \"#utility.yul\":7491:7508   */\n      add\n        /* \"#utility.yul\":7484:7531   */\n      mstore\n        /* \"#utility.yul\":7548:7626   */\n      tag_267\n        /* \"#utility.yul\":7621:7625   */\n      dup2\n        /* \"#utility.yul\":7612:7618   */\n      dup5\n        /* \"#utility.yul\":7548:7626   */\n      tag_243\n      jump\t// in\n    tag_267:\n        /* \"#utility.yul\":7540:7626   */\n      swap1\n      pop\n        /* \"#utility.yul\":7438:7633   */\n      swap3\n      swap2\n      pop\n      pop\n      jump\t// out\n        /* \"#utility.yul\":7639:8062   */\n    tag_29:\n      0x00\n        /* \"#utility.yul\":7818:7820   */\n      0x40\n        /* \"#utility.yul\":7807:7816   */\n      dup3\n        /* \"#utility.yul\":7803:7821   */\n      add\n        /* \"#utility.yul\":7795:7821   */\n      swap1\n      pop\n        /* \"#utility.yul\":7867:7876   */\n      dup2\n        /* \"#utility.yul\":7861:7865   */\n      dup2\n        /* \"#utility.yul\":7857:7877   */\n      sub\n        /* \"#utility.yul\":7853:7854   */\n      0x00\n        /* \"#utility.yul\":7842:7851   */\n      dup4\n        /* \"#utility.yul\":7838:7855   */\n      add\n        /* \"#utility.yul\":7831:7878   */\n      mstore\n        /* \"#utility.yul\":7895:7973   */\n      tag_269\n        /* \"#utility.yul\":7968:7972   */\n      dup2\n        /* \"#utility.yul\":7959:7965   */\n      dup6\n        /* \"#utility.yul\":7895:7973   */\n      tag_243\n      jump\t// in\n    tag_269:\n        /* \"#utility.yul\":7887:7973   */\n      swap1\n      pop\n        /* \"#utility.yul\":7983:8055   */\n      tag_270\n        /* \"#utility.yul\":8051:8053   */\n      0x20\n        /* \"#utility.yul\":8040:8049   */\n      dup4\n        /* \"#utility.yul\":8036:8054   */\n      add\n        /* \"#utility.yul\":8027:8033   */\n      dup5\n        /* \"#utility.yul\":7983:8055   */\n      tag_261\n      jump\t// in\n    tag_270:\n        /* \"#utility.yul\":7785:8062   */\n      swap4\n      swap3\n      pop\n      pop\n      pop\n      jump\t// out\n        /* \"#utility.yul\":8068:8437   */\n    tag_76:\n      0x00\n        /* \"#utility.yul\":8247:8249   */\n      0x20\n        /* \"#utility.yul\":8236:8245   */\n      dup3\n        /* \"#utility.yul\":8232:8250   */\n      add\n        /* \"#utility.yul\":8224:8250   */\n      swap1\n      pop\n        /* \"#utility.yul\":8296:8305   */\n      dup2\n        /* \"#utility.yul\":8290:8294   */\n      dup2\n        /* \"#utility.yul\":8286:8306   */\n      sub\n        /* \"#utility.yul\":8282:8283   */\n      0x00\n        /* \"#utility.yul\":8271:8280   */\n      dup4\n        /* \"#utility.yul\":8267:8284   */\n      add\n        /* \"#utility.yul\":8260:8307   */\n      mstore\n        /* \"#utility.yul\":8324:8430   */\n      tag_272\n        /* \"#utility.yul\":8425:8429   */\n      dup2\n        /* \"#utility.yul\":8416:8422   */\n      dup5\n        /* \"#utility.yul\":8324:8430   */\n      tag_254\n      jump\t// in\n    tag_272:\n        /* \"#utility.yul\":8316:8430   */\n      swap1\n      pop\n        /* \"#utility.yul\":8214:8437   */\n      swap3\n      swap2\n      pop\n      pop\n      jump\t// out\n        /* \"#utility.yul\":8443:8665   */\n    tag_33:\n      0x00\n        /* \"#utility.yul\":8574:8576   */\n      0x20\n        /* \"#utility.yul\":8563:8572   */\n      dup3\n        /* \"#utility.yul\":8559:8577   */\n      add\n        /* \"#utility.yul\":8551:8577   */\n      swap1\n      pop\n        /* \"#utility.yul\":8587:8658   */\n      tag_274\n        /* \"#utility.yul\":8655:8656   */\n      0x00\n        /* \"#utility.yul\":8644:8653   */\n      dup4\n        /* \"#utility.yul\":8640:8657   */\n      add\n        /* \"#utility.yul\":8631:8637   */\n      dup5\n        /* \"#utility.yul\":8587:8658   */\n      tag_261\n      jump\t// in\n    tag_274:\n        /* \"#utility.yul\":8541:8665   */\n      swap3\n      swap2\n      pop\n      pop\n      jump\t// out\n        /* \"#utility.yul\":8671:9212   */\n    tag_64:\n      0x00\n        /* \"#utility.yul\":8880:8883   */\n      0x80\n        /* \"#utility.yul\":8869:8878   */\n      dup3\n        /* \"#utility.yul\":8865:8884   */\n      add\n        /* \"#utility.yul\":8857:8884   */\n      swap1\n      pop\n        /* \"#utility.yul\":8894:8965   */\n      tag_276\n        /* \"#utility.yul\":8962:8963   */\n      0x00\n        /* \"#utility.yul\":8951:8960   */\n      dup4\n        /* \"#utility.yul\":8947:8964   */\n      add\n        /* \"#utility.yul\":8938:8944   */\n      dup8\n        /* \"#utility.yul\":8894:8965   */\n      tag_261\n      jump\t// in\n    tag_276:\n        /* \"#utility.yul\":8975:9041   */\n      tag_277\n        /* \"#utility.yul\":9037:9039   */\n      0x20\n        /* \"#utility.yul\":9026:9035   */\n      dup4\n        /* \"#utility.yul\":9022:9040   */\n      add\n        /* \"#utility.yul\":9013:9019   */\n      dup7\n        /* \"#utility.yul\":8975:9041   */\n      tag_229\n      jump\t// in\n    tag_277:\n        /* \"#utility.yul\":9051:9123   */\n      tag_278\n        /* \"#utility.yul\":9119:9121   */\n      0x40\n        /* \"#utility.yul\":9108:9117   */\n      dup4\n        /* \"#utility.yul\":9104:9122   */\n      add\n        /* \"#utility.yul\":9095:9101   */\n      dup6\n        /* \"#utility.yul\":9051:9123   */\n      tag_211\n      jump\t// in\n    tag_278:\n        /* \"#utility.yul\":9133:9205   */\n      tag_279\n        /* \"#utility.yul\":9201:9203   */\n      0x60\n        /* \"#utility.yul\":9190:9199   */\n      dup4\n        /* \"#utility.yul\":9186:9204   */\n      add\n        /* \"#utility.yul\":9177:9183   */\n      dup5\n        /* \"#utility.yul\":9133:9205   */\n      tag_261\n      jump\t// in\n    tag_279:\n        /* \"#utility.yul\":8847:9212   */\n      swap6\n      swap5\n      pop\n      pop\n      pop\n      pop\n      pop\n      jump\t// out\n        /* \"#utility.yul\":9218:9501   */\n    tag_168:\n      0x00\n        /* \"#utility.yul\":9284:9286   */\n      0x40\n        /* \"#utility.yul\":9278:9287   */\n      mload\n        /* \"#utility.yul\":9268:9287   */\n      swap1\n      pop\n        /* \"#utility.yul\":9326:9330   */\n      dup2\n        /* \"#utility.yul\":9318:9324   */\n      dup2\n        /* \"#utility.yul\":9314:9331   */\n      add\n        /* \"#utility.yul\":9433:9439   */\n      dup2\n        /* \"#utility.yul\":9421:9431   */\n      dup2\n        /* \"#utility.yul\":9418:9440   */\n      lt\n        /* \"#utility.yul\":9397:9415   */\n      0xffffffffffffffff\n        /* \"#utility.yul\":9385:9395   */\n      dup3\n        /* \"#utility.yul\":9382:9416   */\n      gt\n        /* \"#utility.yul\":9379:9441   */\n      or\n        /* \"#utility.yul\":9376:9378   */\n      iszero\n      tag_281\n      jumpi\n        /* \"#utility.yul\":9444:9462   */\n      tag_282\n      tag_283\n      jump\t// in\n    tag_282:\n        /* \"#utility.yul\":9376:9378   */\n    tag_281:\n        /* \"#utility.yul\":9484:9494   */\n      dup1\n        /* \"#utility.yul\":9480:9482   */\n      0x40\n        /* \"#utility.yul\":9473:9495   */\n      mstore\n        /* \"#utility.yul\":9258:9501   */\n      pop\n      swap2\n      swap1\n      pop\n      jump\t// out\n        /* \"#utility.yul\":9507:9828   */\n    tag_167:\n      0x00\n        /* \"#utility.yul\":9684:9702   */\n      0xffffffffffffffff\n        /* \"#utility.yul\":9676:9682   */\n      dup3\n        /* \"#utility.yul\":9673:9703   */\n      gt\n        /* \"#utility.yul\":9670:9672   */\n      iszero\n      tag_285\n      jumpi\n        /* \"#utility.yul\":9706:9724   */\n      tag_286\n      tag_283\n      jump\t// in\n    tag_286:\n        /* \"#utility.yul\":9670:9672   */\n    tag_285:\n        /* \"#utility.yul\":9756:9760   */\n      0x20\n        /* \"#utility.yul\":9748:9754   */\n      dup3\n        /* \"#utility.yul\":9744:9761   */\n      mul\n        /* \"#utility.yul\":9736:9761   */\n      swap1\n      pop\n        /* \"#utility.yul\":9816:9820   */\n      0x20\n        /* \"#utility.yul\":9810:9814   */\n      dup2\n        /* \"#utility.yul\":9806:9821   */\n      add\n        /* \"#utility.yul\":9798:9821   */\n      swap1\n      pop\n        /* \"#utility.yul\":9599:9828   */\n      swap2\n      swap1\n      pop\n      jump\t// out\n        /* \"#utility.yul\":9834:10166   */\n    tag_178:\n      0x00\n        /* \"#utility.yul\":9986:10004   */\n      0xffffffffffffffff\n        /* \"#utility.yul\":9978:9984   */\n      dup3\n        /* \"#utility.yul\":9975:10005   */\n      gt\n        /* \"#utility.yul\":9972:9974   */\n      iszero\n      tag_288\n      jumpi\n        /* \"#utility.yul\":10008:10026   */\n      tag_289\n      tag_283\n      jump\t// in\n    tag_289:\n        /* \"#utility.yul\":9972:9974   */\n    tag_288:\n        /* \"#utility.yul\":10093:10097   */\n      0x1f\n        /* \"#utility.yul\":10089:10098   */\n      not\n        /* \"#utility.yul\":10082:10086   */\n      0x1f\n        /* \"#utility.yul\":10074:10080   */\n      dup4\n        /* \"#utility.yul\":10070:10087   */\n      add\n        /* \"#utility.yul\":10066:10099   */\n      and\n        /* \"#utility.yul\":10058:10099   */\n      swap1\n      pop\n        /* \"#utility.yul\":10154:10158   */\n      0x20\n        /* \"#utility.yul\":10148:10152   */\n      dup2\n        /* \"#utility.yul\":10144:10159   */\n      add\n        /* \"#utility.yul\":10136:10159   */\n      swap1\n      pop\n        /* \"#utility.yul\":9901:10166   */\n      swap2\n      swap1\n      pop\n      jump\t// out\n        /* \"#utility.yul\":10172:10328   */\n    tag_222:\n      0x00\n        /* \"#utility.yul\":10286:10289   */\n      dup2\n        /* \"#utility.yul\":10278:10289   */\n      swap1\n      pop\n        /* \"#utility.yul\":10316:10320   */\n      0x20\n        /* \"#utility.yul\":10311:10314   */\n      dup3\n        /* \"#utility.yul\":10307:10321   */\n      add\n        /* \"#utility.yul\":10299:10321   */\n      swap1\n      pop\n        /* \"#utility.yul\":10268:10328   */\n      swap2\n      swap1\n      pop\n      jump\t// out\n        /* \"#utility.yul\":10334:10472   */\n    tag_218:\n      0x00\n        /* \"#utility.yul\":10459:10464   */\n      dup2\n        /* \"#utility.yul\":10453:10465   */\n      mload\n        /* \"#utility.yul\":10443:10465   */\n      swap1\n      pop\n        /* \"#utility.yul\":10432:10472   */\n      swap2\n      swap1\n      pop\n      jump\t// out\n        /* \"#utility.yul\":10478:10577   */\n    tag_236:\n      0x00\n        /* \"#utility.yul\":10564:10569   */\n      dup2\n        /* \"#utility.yul\":10558:10570   */\n      mload\n        /* \"#utility.yul\":10548:10570   */\n      swap1\n      pop\n        /* \"#utility.yul\":10537:10577   */\n      swap2\n      swap1\n      pop\n      jump\t// out\n        /* \"#utility.yul\":10583:10720   */\n    tag_228:\n      0x00\n        /* \"#utility.yul\":10709:10713   */\n      0x20\n        /* \"#utility.yul\":10704:10707   */\n      dup3\n        /* \"#utility.yul\":10700:10714   */\n      add\n        /* \"#utility.yul\":10692:10714   */\n      swap1\n      pop\n        /* \"#utility.yul\":10682:10720   */\n      swap2\n      swap1\n      pop\n      jump\t// out\n        /* \"#utility.yul\":10726:10934   */\n    tag_220:\n      0x00\n        /* \"#utility.yul\":10883:10889   */\n      dup3\n        /* \"#utility.yul\":10878:10881   */\n      dup3\n        /* \"#utility.yul\":10871:10890   */\n      mstore\n        /* \"#utility.yul\":10923:10927   */\n      0x20\n        /* \"#utility.yul\":10918:10921   */\n      dup3\n        /* \"#utility.yul\":10914:10928   */\n      add\n        /* \"#utility.yul\":10899:10928   */\n      swap1\n      pop\n        /* \"#utility.yul\":10861:10934   */\n      swap3\n      swap2\n      pop\n      pop\n      jump\t// out\n        /* \"#utility.yul\":10940:11099   */\n    tag_238:\n      0x00\n        /* \"#utility.yul\":11048:11054   */\n      dup3\n        /* \"#utility.yul\":11043:11046   */\n      dup3\n        /* \"#utility.yul\":11036:11055   */\n      mstore\n        /* \"#utility.yul\":11088:11092   */\n      0x20\n        /* \"#utility.yul\":11083:11086   */\n      dup3\n        /* \"#utility.yul\":11079:11093   */\n      add\n        /* \"#utility.yul\":11064:11093   */\n      swap1\n      pop\n        /* \"#utility.yul\":11026:11099   */\n      swap3\n      swap2\n      pop\n      pop\n      jump\t// out\n        /* \"#utility.yul\":11105:11274   */\n    tag_247:\n      0x00\n        /* \"#utility.yul\":11223:11229   */\n      dup3\n        /* \"#utility.yul\":11218:11221   */\n      dup3\n        /* \"#utility.yul\":11211:11230   */\n      mstore\n        /* \"#utility.yul\":11263:11267   */\n      0x20\n        /* \"#utility.yul\":11258:11261   */\n      dup3\n        /* \"#utility.yul\":11254:11268   */\n      add\n        /* \"#utility.yul\":11239:11268   */\n      swap1\n      pop\n        /* \"#utility.yul\":11201:11274   */\n      swap3\n      swap2\n      pop\n      pop\n      jump\t// out\n        /* \"#utility.yul\":11280:11585   */\n    tag_82:\n      0x00\n        /* \"#utility.yul\":11339:11359   */\n      tag_298\n        /* \"#utility.yul\":11357:11358   */\n      dup3\n        /* \"#utility.yul\":11339:11359   */\n      tag_260\n      jump\t// in\n    tag_298:\n        /* \"#utility.yul\":11334:11359   */\n      swap2\n      pop\n        /* \"#utility.yul\":11373:11393   */\n      tag_299\n        /* \"#utility.yul\":11391:11392   */\n      dup4\n        /* \"#utility.yul\":11373:11393   */\n      tag_260\n      jump\t// in\n    tag_299:\n        /* \"#utility.yul\":11368:11393   */\n      swap3\n      pop\n        /* \"#utility.yul\":11527:11528   */\n      dup3\n        /* \"#utility.yul\":11459:11525   */\n      0xffffffffffffffffffffffffffffffffffffffffffffffffffffffffffffffff\n        /* \"#utility.yul\":11455:11529   */\n      sub\n        /* \"#utility.yul\":11452:11453   */\n      dup3\n        /* \"#utility.yul\":11449:11530   */\n      gt\n        /* \"#utility.yul\":11446:11448   */\n      iszero\n      tag_300\n      jumpi\n        /* \"#utility.yul\":11533:11551   */\n      tag_301\n      tag_302\n      jump\t// in\n    tag_301:\n        /* \"#utility.yul\":11446:11448   */\n    tag_300:\n        /* \"#utility.yul\":11577:11578   */\n      dup3\n        /* \"#utility.yul\":11574:11575   */\n      dup3\n        /* \"#utility.yul\":11570:11579   */\n      add\n        /* \"#utility.yul\":11563:11579   */\n      swap1\n      pop\n        /* \"#utility.yul\":11324:11585   */\n      swap3\n      swap2\n      pop\n      pop\n      jump\t// out\n        /* \"#utility.yul\":11591:11687   */\n    tag_214:\n      0x00\n        /* \"#utility.yul\":11657:11681   */\n      tag_304\n        /* \"#utility.yul\":11675:11680   */\n      dup3\n        /* \"#utility.yul\":11657:11681   */\n      tag_305\n      jump\t// in\n    tag_304:\n        /* \"#utility.yul\":11646:11681   */\n      swap1\n      pop\n        /* \"#utility.yul\":11636:11687   */\n      swap2\n      swap1\n      pop\n      jump\t// out\n        /* \"#utility.yul\":11693:11783   */\n    tag_232:\n      0x00\n        /* \"#utility.yul\":11770:11775   */\n      dup2\n        /* \"#utility.yul\":11763:11776   */\n      iszero\n        /* \"#utility.yul\":11756:11777   */\n      iszero\n        /* \"#utility.yul\":11745:11777   */\n      swap1\n      pop\n        /* \"#utility.yul\":11735:11783   */\n      swap2\n      swap1\n      pop\n      jump\t// out\n        /* \"#utility.yul\":11789:11915   */\n    tag_305:\n      0x00\n        /* \"#utility.yul\":11866:11908   */\n      0xffffffffffffffffffffffffffffffffffffffff\n        /* \"#utility.yul\":11859:11864   */\n      dup3\n        /* \"#utility.yul\":11855:11909   */\n      and\n        /* \"#utility.yul\":11844:11909   */\n      swap1\n      pop\n        /* \"#utility.yul\":11834:11915   */\n      swap2\n      swap1\n      pop\n      jump\t// out\n        /* \"#utility.yul\":11921:11998   */\n    tag_260:\n      0x00\n        /* \"#utility.yul\":11987:11992   */\n      dup2\n        /* \"#utility.yul\":11976:11992   */\n      swap1\n      pop\n        /* \"#utility.yul\":11966:11998   */\n      swap2\n      swap1\n      pop\n      jump\t// out\n        /* \"#utility.yul\":12004:12158   */\n    tag_181:\n        /* \"#utility.yul\":12088:12094   */\n      dup3\n        /* \"#utility.yul\":12083:12086   */\n      dup2\n        /* \"#utility.yul\":12078:12081   */\n      dup4\n        /* \"#utility.yul\":12065:12095   */\n      calldatacopy\n        /* \"#utility.yul\":12150:12151   */\n      0x00\n        /* \"#utility.yul\":12141:12147   */\n      dup4\n        /* \"#utility.yul\":12136:12139   */\n      dup4\n        /* \"#utility.yul\":12132:12148   */\n      add\n        /* \"#utility.yul\":12125:12152   */\n      mstore\n        /* \"#utility.yul\":12055:12158   */\n      pop\n      pop\n      pop\n      jump\t// out\n        /* \"#utility.yul\":12164:12471   */\n    tag_240:\n        /* \"#utility.yul\":12232:12233   */\n      0x00\n        /* \"#utility.yul\":12242:12355   */\n    tag_311:\n        /* \"#utility.yul\":12256:12262   */\n      dup4\n        /* \"#utility.yul\":12253:12254   */\n      dup2\n        /* \"#utility.yul\":12250:12263   */\n      lt\n        /* \"#utility.yul\":12242:12355   */\n      iszero\n      tag_313\n      jumpi\n        /* \"#utility.yul\":12341:12342   */\n      dup1\n        /* \"#utility.yul\":12336:12339   */\n      dup3\n        /* \"#utility.yul\":12332:12343   */\n      add\n        /* \"#utility.yul\":12326:12344   */\n      mload\n        /* \"#utility.yul\":12322:12323   */\n      dup2\n        /* \"#utility.yul\":12317:12320   */\n      dup5\n        /* \"#utility.yul\":12313:12324   */\n      add\n        /* \"#utility.yul\":12306:12345   */\n      mstore\n        /* \"#utility.yul\":12278:12280   */\n      0x20\n        /* \"#utility.yul\":12275:12276   */\n      dup2\n        /* \"#utility.yul\":12271:12281   */\n      add\n        /* \"#utility.yul\":12266:12281   */\n      swap1\n      pop\n        /* \"#utility.yul\":12242:12355   */\n      jump(tag_311)\n    tag_313:\n        /* \"#utility.yul\":12373:12379   */\n      dup4\n        /* \"#utility.yul\":12370:12371   */\n      dup2\n        /* \"#utility.yul\":12367:12380   */\n      gt\n        /* \"#utility.yul\":12364:12366   */\n      iszero\n      tag_314\n      jumpi\n        /* \"#utility.yul\":12453:12454   */\n      0x00\n        /* \"#utility.yul\":12444:12450   */\n      dup5\n        /* \"#utility.yul\":12439:12442   */\n      dup5\n        /* \"#utility.yul\":12435:12451   */\n      add\n        /* \"#utility.yul\":12428:12455   */\n      mstore\n        /* \"#utility.yul\":12364:12366   */\n    tag_314:\n        /* \"#utility.yul\":12213:12471   */\n      pop\n      pop\n      pop\n      pop\n      jump\t// out\n        /* \"#utility.yul\":12477:12797   */\n    tag_86:\n      0x00\n        /* \"#utility.yul\":12558:12559   */\n      0x02\n        /* \"#utility.yul\":12552:12556   */\n      dup3\n        /* \"#utility.yul\":12548:12560   */\n      div\n        /* \"#utility.yul\":12538:12560   */\n      swap1\n      pop\n        /* \"#utility.yul\":12605:12606   */\n      0x01\n        /* \"#utility.yul\":12599:12603   */\n      dup3\n        /* \"#utility.yul\":12595:12607   */\n      and\n        /* \"#utility.yul\":12626:12644   */\n      dup1\n        /* \"#utility.yul\":12616:12618   */\n      tag_316\n      jumpi\n        /* \"#utility.yul\":12682:12686   */\n      0x7f\n        /* \"#utility.yul\":12674:12680   */\n      dup3\n        /* \"#utility.yul\":12670:12687   */\n      and\n        /* \"#utility.yul\":12660:12687   */\n      swap2\n      pop\n        /* \"#utility.yul\":12616:12618   */\n    tag_316:\n        /* \"#utility.yul\":12744:12746   */\n      0x20\n        /* \"#utility.yul\":12736:12742   */\n      dup3\n        /* \"#utility.yul\":12733:12747   */\n      lt\n        /* \"#utility.yul\":12713:12731   */\n      dup2\n        /* \"#utility.yul\":12710:12748   */\n      eq\n        /* \"#utility.yul\":12707:12709   */\n      iszero\n      tag_317\n      jumpi\n        /* \"#utility.yul\":12763:12781   */\n      tag_318\n      tag_319\n      jump\t// in\n    tag_318:\n        /* \"#utility.yul\":12707:12709   */\n    tag_317:\n        /* \"#utility.yul\":12528:12797   */\n      pop\n      swap2\n      swap1\n      pop\n      jump\t// out\n        /* \"#utility.yul\":12803:13036   */\n    tag_103:\n      0x00\n        /* \"#utility.yul\":12865:12889   */\n      tag_321\n        /* \"#utility.yul\":12883:12888   */\n      dup3\n        /* \"#utility.yul\":12865:12889   */\n      tag_260\n      jump\t// in\n    tag_321:\n        /* \"#utility.yul\":12856:12889   */\n      swap2\n      pop\n        /* \"#utility.yul\":12911:12977   */\n      0xffffffffffffffffffffffffffffffffffffffffffffffffffffffffffffffff\n        /* \"#utility.yul\":12904:12909   */\n      dup3\n        /* \"#utility.yul\":12901:12978   */\n      eq\n        /* \"#utility.yul\":12898:12900   */\n      iszero\n      tag_322\n      jumpi\n        /* \"#utility.yul\":12981:12999   */\n      tag_323\n      tag_302\n      jump\t// in\n    tag_323:\n        /* \"#utility.yul\":12898:12900   */\n    tag_322:\n        /* \"#utility.yul\":13028:13029   */\n      0x01\n        /* \"#utility.yul\":13021:13026   */\n      dup3\n        /* \"#utility.yul\":13017:13030   */\n      add\n        /* \"#utility.yul\":13010:13030   */\n      swap1\n      pop\n        /* \"#utility.yul\":12846:13036   */\n      swap2\n      swap1\n      pop\n      jump\t// out\n        /* \"#utility.yul\":13042:13222   */\n    tag_302:\n        /* \"#utility.yul\":13090:13167   */\n      0x4e487b7100000000000000000000000000000000000000000000000000000000\n        /* \"#utility.yul\":13087:13088   */\n      0x00\n        /* \"#utility.yul\":13080:13168   */\n      mstore\n        /* \"#utility.yul\":13187:13191   */\n      0x11\n        /* \"#utility.yul\":13184:13185   */\n      0x04\n        /* \"#utility.yul\":13177:13192   */\n      mstore\n        /* \"#utility.yul\":13211:13215   */\n      0x24\n        /* \"#utility.yul\":13208:13209   */\n      0x00\n        /* \"#utility.yul\":13201:13216   */\n      revert\n        /* \"#utility.yul\":13228:13408   */\n    tag_319:\n        /* \"#utility.yul\":13276:13353   */\n      0x4e487b7100000000000000000000000000000000000000000000000000000000\n        /* \"#utility.yul\":13273:13274   */\n      0x00\n        /* \"#utility.yul\":13266:13354   */\n      mstore\n        /* \"#utility.yul\":13373:13377   */\n      0x22\n        /* \"#utility.yul\":13370:13371   */\n      0x04\n        /* \"#utility.yul\":13363:13378   */\n      mstore\n        /* \"#utility.yul\":13397:13401   */\n      0x24\n        /* \"#utility.yul\":13394:13395   */\n      0x00\n        /* \"#utility.yul\":13387:13402   */\n      revert\n        /* \"#utility.yul\":13414:13594   */\n    tag_283:\n        /* \"#utility.yul\":13462:13539   */\n      0x4e487b7100000000000000000000000000000000000000000000000000000000\n        /* \"#utility.yul\":13459:13460   */\n      0x00\n        /* \"#utility.yul\":13452:13540   */\n      mstore\n        /* \"#utility.yul\":13559:13563   */\n      0x41\n        /* \"#utility.yul\":13556:13557   */\n      0x04\n        /* \"#utility.yul\":13549:13564   */\n      mstore\n        /* \"#utility.yul\":13583:13587   */\n      0x24\n        /* \"#utility.yul\":13580:13581   */\n      0x00\n        /* \"#utility.yul\":13573:13588   */\n      revert\n        /* \"#utility.yul\":13600:13702   */\n    tag_242:\n      0x00\n        /* \"#utility.yul\":13692:13694   */\n      0x1f\n        /* \"#utility.yul\":13688:13695   */\n      not\n        /* \"#utility.yul\":13683:13685   */\n      0x1f\n        /* \"#utility.yul\":13676:13681   */\n      dup4\n        /* \"#utility.yul\":13672:13686   */\n      add\n        /* \"#utility.yul\":13668:13696   */\n      and\n        /* \"#utility.yul\":13658:13696   */\n      swap1\n      pop\n        /* \"#utility.yul\":13648:13702   */\n      swap2\n      swap1\n      pop\n      jump\t// out\n        /* \"#utility.yul\":13708:13830   */\n    tag_185:\n        /* \"#utility.yul\":13781:13805   */\n      tag_329\n        /* \"#utility.yul\":13799:13804   */\n      dup2\n        /* \"#utility.yul\":13781:13805   */\n      tag_214\n      jump\t// in\n    tag_329:\n        /* \"#utility.yul\":13774:13779   */\n      dup2\n        /* \"#utility.yul\":13771:13806   */\n      eq\n        /* \"#utility.yul\":13761:13763   */\n      tag_330\n      jumpi\n        /* \"#utility.yul\":13820:13821   */\n      0x00\n        /* \"#utility.yul\":13817:13818   */\n      dup1\n        /* \"#utility.yul\":13810:13822   */\n      revert\n        /* \"#utility.yul\":13761:13763   */\n    tag_330:\n        /* \"#utility.yul\":13751:13830   */\n      pop\n      jump\t// out\n        /* \"#utility.yul\":13836:13958   */\n    tag_196:\n        /* \"#utility.yul\":13909:13933   */\n      tag_332\n        /* \"#utility.yul\":13927:13932   */\n      dup2\n        /* \"#utility.yul\":13909:13933   */\n      tag_260\n      jump\t// in\n    tag_332:\n        /* \"#utility.yul\":13902:13907   */\n      dup2\n        /* \"#utility.yul\":13899:13934   */\n      eq\n        /* \"#utility.yul\":13889:13891   */\n      tag_333\n      jumpi\n        /* \"#utility.yul\":13948:13949   */\n      0x00\n        /* \"#utility.yul\":13945:13946   */\n      dup1\n        /* \"#utility.yul\":13938:13950   */\n      revert\n        /* \"#utility.yul\":13889:13891   */\n    tag_333:\n        /* \"#utility.yul\":13879:13958   */\n      pop\n      jump\t// out\n\n    auxdata: 0xa26469706673582212202cc88a61d54026d3e45681a4659877bf71088b896fbdb412963a34e1a71b66b964736f6c63430008000033\n}\n",
				"bytecode": {
					"linkReferences": {},
					"object": "608060405234801561001057600080fd5b5061140d806100206000396000f3fe608060405234801561001057600080fd5b50600436106100f55760003560e01c806378f305c611610097578063a3ec138d11610066578063a3ec138d1461023b578063b13564881461026e578063e2ba53f01461028c578063e9d6c6da146102aa576100f5565b806378f305c6146101db578063836bc692146101f957806386278e77146102155780639e7b8d611461021f576100f5565b80634e69d560116100d35780634e69d56014610165578063609ff1bd1461018357806362564c48146101a157806369ba1a75146101bf576100f5565b80630121b93f146100fa578063013cf08b146101165780630a82dcb114610147575b600080fd5b610114600480360381019061010f9190610ded565b6102da565b005b610130600480360381019061012b9190610ded565b6103c9565b60405161013e92919061100b565b60405180910390f35b61014f610485565b60405161015c919061105d565b60405180910390f35b61016d61048f565b60405161017a919061105d565b60405180910390f35b61018b610499565b604051610198919061105d565b60405180910390f35b6101a961056d565b6040516101b69190610fc7565b60405180910390f35b6101d960048036038101906101d49190610ded565b610668565b005b6101e3610672565b6040516101f0919061105d565b60405180910390f35b610213600480360381019061020e9190610dac565b61067c565b005b61021d61080a565b005b61023960048036038101906102349190610d83565b610813565b005b61025560048036038101906102509190610d83565b61095d565b6040516102659493929190611078565b60405180910390f35b6102766109ba565b604051610283919061105d565b60405180910390f35b6102946109c4565b6040516102a19190610fe9565b60405180910390f35b6102c460048036038101906102bf9190610ded565b610aa6565b6040516102d1919061103b565b60405180910390f35b6000600560003373ffffffffffffffffffffffffffffffffffffffff1673ffffffffffffffffffffffffffffffffffffffff16815260200190815260200160002090508060010160009054906101000a900460ff161561033957600080fd5b60018160010160006101000a81548160ff02191690831515021790555081816002018190555080600001546006838154811061039e577f4e487b7100000000000000000000000000000000000000000000000000000000600052603260045260246000fd5b906000526020600020906002020160010160008282546103be91906111b0565b925050819055505050565b600681815481106103d957600080fd5b90600052602060002090600202016000915090508060000180546103fc90611290565b80601f016020809104026020016040519081016040528092919081815260200182805461042890611290565b80156104755780601f1061044a57610100808354040283529160200191610475565b820191906000526020600020905b81548152906001019060200180831161045857829003601f168201915b5050505050908060010154905082565b6000600454905090565b6000600154905090565b6000806000905060005b6006805490508110156105685781600682815481106104eb577f4e487b7100000000000000000000000000000000000000000000000000000000600052603260045260246000fd5b9060005260206000209060020201600101541115610555576006818154811061053d577f4e487b7100000000000000000000000000000000000000000000000000000000600052603260045260246000fd5b90600052602060002090600202016001015491508092505b8080610560906112c2565b9150506104a3565b505090565b60606006805480602002602001604051908101604052809291908181526020016000905b8282101561065f57838290600052602060002090600202016040518060400160405290816000820180546105c490611290565b80601f01602080910402602001604051908101604052809291908181526020018280546105f090611290565b801561063d5780601f106106125761010080835404028352916020019161063d565b820191906000526020600020905b81548152906001019060200180831161062057829003601f168201915b5050505050815260200160018201548152505081526020019060010190610591565b50505050905090565b8060018190555050565b6000600254905090565b336000806101000a81548173ffffffffffffffffffffffffffffffffffffffff021916908373ffffffffffffffffffffffffffffffffffffffff1602179055506001600560008060009054906101000a900473ffffffffffffffffffffffffffffffffffffffff1673ffffffffffffffffffffffffffffffffffffffff1673ffffffffffffffffffffffffffffffffffffffff168152602001908152602001600020600001819055506000600181905550610735610ba4565b805160048190555060005b8151811015610806576006604051806040016040528084848151811061078f577f4e487b7100000000000000000000000000000000000000000000000000000000600052603260045260246000fd5b602002602001015181526020016000815250908060018154018082558091505060019003906000526020600020906002020160009091909190915060008201518160000190805190602001906107e6929190610bad565b5060208201518160010155505080806107fe906112c2565b915050610740565b5050565b42600381905550565b60008054906101000a900473ffffffffffffffffffffffffffffffffffffffff1673ffffffffffffffffffffffffffffffffffffffff163373ffffffffffffffffffffffffffffffffffffffff161480156108bb5750600560008273ffffffffffffffffffffffffffffffffffffffff1673ffffffffffffffffffffffffffffffffffffffff16815260200190815260200160002060010160009054906101000a900460ff16155b801561090957506000600560008373ffffffffffffffffffffffffffffffffffffffff1673ffffffffffffffffffffffffffffffffffffffff16815260200190815260200160002060000154145b61091257600080fd5b6001600560008373ffffffffffffffffffffffffffffffffffffffff1673ffffffffffffffffffffffffffffffffffffffff1681526020019081526020016000206000018190555050565b60056020528060005260406000206000915090508060000154908060010160009054906101000a900460ff16908060010160019054906101000a900473ffffffffffffffffffffffffffffffffffffffff16908060020154905084565b6000600354905090565b606060066109d0610499565b81548110610a07577f4e487b7100000000000000000000000000000000000000000000000000000000600052603260045260246000fd5b90600052602060002090600202016000018054610a2390611290565b80601f0160208091040260200160405190810160405280929190818152602001828054610a4f90611290565b8015610a9c5780601f10610a7157610100808354040283529160200191610a9c565b820191906000526020600020905b815481529060010190602001808311610a7f57829003601f168201915b5050505050905090565b610aae610c33565b60068281548110610ae8577f4e487b7100000000000000000000000000000000000000000000000000000000600052603260045260246000fd5b9060005260206000209060020201604051806040016040529081600082018054610b1190611290565b80601f0160208091040260200160405190810160405280929190818152602001828054610b3d90611290565b8015610b8a5780601f10610b5f57610100808354040283529160200191610b8a565b820191906000526020600020905b815481529060010190602001808311610b6d57829003601f168201915b505050505081526020016001820154815250509050919050565b42600281905550565b828054610bb990611290565b90600052602060002090601f016020900481019282610bdb5760008555610c22565b82601f10610bf457805160ff1916838001178555610c22565b82800160010185558215610c22579182015b82811115610c21578251825591602001919060010190610c06565b5b509050610c2f9190610c4d565b5090565b604051806040016040528060608152602001600081525090565b5b80821115610c66576000816000905550600101610c4e565b5090565b6000610c7d610c78846110ee565b6110bd565b9050808382526020820190508260005b85811015610cbd5781358501610ca38882610d44565b845260208401935060208301925050600181019050610c8d565b5050509392505050565b6000610cda610cd58461111a565b6110bd565b905082815260208101848484011115610cf257600080fd5b610cfd84828561124e565b509392505050565b600081359050610d14816113a9565b92915050565b600082601f830112610d2b57600080fd5b8135610d3b848260208601610c6a565b91505092915050565b600082601f830112610d5557600080fd5b8135610d65848260208601610cc7565b91505092915050565b600081359050610d7d816113c0565b92915050565b600060208284031215610d9557600080fd5b6000610da384828501610d05565b91505092915050565b600060208284031215610dbe57600080fd5b600082013567ffffffffffffffff811115610dd857600080fd5b610de484828501610d1a565b91505092915050565b600060208284031215610dff57600080fd5b6000610e0d84828501610d6e565b91505092915050565b6000610e228383610f2f565b905092915050565b610e3381611206565b82525050565b6000610e448261115a565b610e4e818561117d565b935083602082028501610e608561114a565b8060005b85811015610e9c5784840389528151610e7d8582610e16565b9450610e8883611170565b925060208a01995050600181019050610e64565b50829750879550505050505092915050565b610eb781611218565b82525050565b6000610ec882611165565b610ed2818561118e565b9350610ee281856020860161125d565b610eeb81611398565b840191505092915050565b6000610f0182611165565b610f0b818561119f565b9350610f1b81856020860161125d565b610f2481611398565b840191505092915050565b60006040830160008301518482036000860152610f4c8282610ebd565b9150506020830151610f616020860182610fa9565b508091505092915050565b60006040830160008301518482036000860152610f898282610ebd565b9150506020830151610f9e6020860182610fa9565b508091505092915050565b610fb281611244565b82525050565b610fc181611244565b82525050565b60006020820190508181036000830152610fe18184610e39565b905092915050565b600060208201905081810360008301526110038184610ef6565b905092915050565b600060408201905081810360008301526110258185610ef6565b90506110346020830184610fb8565b9392505050565b600060208201905081810360008301526110558184610f6c565b905092915050565b60006020820190506110726000830184610fb8565b92915050565b600060808201905061108d6000830187610fb8565b61109a6020830186610eae565b6110a76040830185610e2a565b6110b46060830184610fb8565b95945050505050565b6000604051905081810181811067ffffffffffffffff821117156110e4576110e3611369565b5b8060405250919050565b600067ffffffffffffffff82111561110957611108611369565b5b602082029050602081019050919050565b600067ffffffffffffffff82111561113557611134611369565b5b601f19601f8301169050602081019050919050565b6000819050602082019050919050565b600081519050919050565b600081519050919050565b6000602082019050919050565b600082825260208201905092915050565b600082825260208201905092915050565b600082825260208201905092915050565b60006111bb82611244565b91506111c683611244565b9250827fffffffffffffffffffffffffffffffffffffffffffffffffffffffffffffffff038211156111fb576111fa61130b565b5b828201905092915050565b600061121182611224565b9050919050565b60008115159050919050565b600073ffffffffffffffffffffffffffffffffffffffff82169050919050565b6000819050919050565b82818337600083830152505050565b60005b8381101561127b578082015181840152602081019050611260565b8381111561128a576000848401525b50505050565b600060028204905060018216806112a857607f821691505b602082108114156112bc576112bb61133a565b5b50919050565b60006112cd82611244565b91507fffffffffffffffffffffffffffffffffffffffffffffffffffffffffffffffff821415611300576112ff61130b565b5b600182019050919050565b7f4e487b7100000000000000000000000000000000000000000000000000000000600052601160045260246000fd5b7f4e487b7100000000000000000000000000000000000000000000000000000000600052602260045260246000fd5b7f4e487b7100000000000000000000000000000000000000000000000000000000600052604160045260246000fd5b6000601f19601f8301169050919050565b6113b281611206565b81146113bd57600080fd5b50565b6113c981611244565b81146113d457600080fd5b5056fea26469706673582212202cc88a61d54026d3e45681a4659877bf71088b896fbdb412963a34e1a71b66b964736f6c63430008000033",
					"opcodes": "PUSH1 0x80 PUSH1 0x40 MSTORE CALLVALUE DUP1 ISZERO PUSH2 0x10 JUMPI PUSH1 0x0 DUP1 REVERT JUMPDEST POP PUSH2 0x140D DUP1 PUSH2 0x20 PUSH1 0x0 CODECOPY PUSH1 0x0 RETURN INVALID PUSH1 0x80 PUSH1 0x40 MSTORE CALLVALUE DUP1 ISZERO PUSH2 0x10 JUMPI PUSH1 0x0 DUP1 REVERT JUMPDEST POP PUSH1 0x4 CALLDATASIZE LT PUSH2 0xF5 JUMPI PUSH1 0x0 CALLDATALOAD PUSH1 0xE0 SHR DUP1 PUSH4 0x78F305C6 GT PUSH2 0x97 JUMPI DUP1 PUSH4 0xA3EC138D GT PUSH2 0x66 JUMPI DUP1 PUSH4 0xA3EC138D EQ PUSH2 0x23B JUMPI DUP1 PUSH4 0xB1356488 EQ PUSH2 0x26E JUMPI DUP1 PUSH4 0xE2BA53F0 EQ PUSH2 0x28C JUMPI DUP1 PUSH4 0xE9D6C6DA EQ PUSH2 0x2AA JUMPI PUSH2 0xF5 JUMP JUMPDEST DUP1 PUSH4 0x78F305C6 EQ PUSH2 0x1DB JUMPI DUP1 PUSH4 0x836BC692 EQ PUSH2 0x1F9 JUMPI DUP1 PUSH4 0x86278E77 EQ PUSH2 0x215 JUMPI DUP1 PUSH4 0x9E7B8D61 EQ PUSH2 0x21F JUMPI PUSH2 0xF5 JUMP JUMPDEST DUP1 PUSH4 0x4E69D560 GT PUSH2 0xD3 JUMPI DUP1 PUSH4 0x4E69D560 EQ PUSH2 0x165 JUMPI DUP1 PUSH4 0x609FF1BD EQ PUSH2 0x183 JUMPI DUP1 PUSH4 0x62564C48 EQ PUSH2 0x1A1 JUMPI DUP1 PUSH4 0x69BA1A75 EQ PUSH2 0x1BF JUMPI PUSH2 0xF5 JUMP JUMPDEST DUP1 PUSH4 0x121B93F EQ PUSH2 0xFA JUMPI DUP1 PUSH4 0x13CF08B EQ PUSH2 0x116 JUMPI DUP1 PUSH4 0xA82DCB1 EQ PUSH2 0x147 JUMPI JUMPDEST PUSH1 0x0 DUP1 REVERT JUMPDEST PUSH2 0x114 PUSH1 0x4 DUP1 CALLDATASIZE SUB DUP2 ADD SWAP1 PUSH2 0x10F SWAP2 SWAP1 PUSH2 0xDED JUMP JUMPDEST PUSH2 0x2DA JUMP JUMPDEST STOP JUMPDEST PUSH2 0x130 PUSH1 0x4 DUP1 CALLDATASIZE SUB DUP2 ADD SWAP1 PUSH2 0x12B SWAP2 SWAP1 PUSH2 0xDED JUMP JUMPDEST PUSH2 0x3C9 JUMP JUMPDEST PUSH1 0x40 MLOAD PUSH2 0x13E SWAP3 SWAP2 SWAP1 PUSH2 0x100B JUMP JUMPDEST PUSH1 0x40 MLOAD DUP1 SWAP2 SUB SWAP1 RETURN JUMPDEST PUSH2 0x14F PUSH2 0x485 JUMP JUMPDEST PUSH1 0x40 MLOAD PUSH2 0x15C SWAP2 SWAP1 PUSH2 0x105D JUMP JUMPDEST PUSH1 0x40 MLOAD DUP1 SWAP2 SUB SWAP1 RETURN JUMPDEST PUSH2 0x16D PUSH2 0x48F JUMP JUMPDEST PUSH1 0x40 MLOAD PUSH2 0x17A SWAP2 SWAP1 PUSH2 0x105D JUMP JUMPDEST PUSH1 0x40 MLOAD DUP1 SWAP2 SUB SWAP1 RETURN JUMPDEST PUSH2 0x18B PUSH2 0x499 JUMP JUMPDEST PUSH1 0x40 MLOAD PUSH2 0x198 SWAP2 SWAP1 PUSH2 0x105D JUMP JUMPDEST PUSH1 0x40 MLOAD DUP1 SWAP2 SUB SWAP1 RETURN JUMPDEST PUSH2 0x1A9 PUSH2 0x56D JUMP JUMPDEST PUSH1 0x40 MLOAD PUSH2 0x1B6 SWAP2 SWAP1 PUSH2 0xFC7 JUMP JUMPDEST PUSH1 0x40 MLOAD DUP1 SWAP2 SUB SWAP1 RETURN JUMPDEST PUSH2 0x1D9 PUSH1 0x4 DUP1 CALLDATASIZE SUB DUP2 ADD SWAP1 PUSH2 0x1D4 SWAP2 SWAP1 PUSH2 0xDED JUMP JUMPDEST PUSH2 0x668 JUMP JUMPDEST STOP JUMPDEST PUSH2 0x1E3 PUSH2 0x672 JUMP JUMPDEST PUSH1 0x40 MLOAD PUSH2 0x1F0 SWAP2 SWAP1 PUSH2 0x105D JUMP JUMPDEST PUSH1 0x40 MLOAD DUP1 SWAP2 SUB SWAP1 RETURN JUMPDEST PUSH2 0x213 PUSH1 0x4 DUP1 CALLDATASIZE SUB DUP2 ADD SWAP1 PUSH2 0x20E SWAP2 SWAP1 PUSH2 0xDAC JUMP JUMPDEST PUSH2 0x67C JUMP JUMPDEST STOP JUMPDEST PUSH2 0x21D PUSH2 0x80A JUMP JUMPDEST STOP JUMPDEST PUSH2 0x239 PUSH1 0x4 DUP1 CALLDATASIZE SUB DUP2 ADD SWAP1 PUSH2 0x234 SWAP2 SWAP1 PUSH2 0xD83 JUMP JUMPDEST PUSH2 0x813 JUMP JUMPDEST STOP JUMPDEST PUSH2 0x255 PUSH1 0x4 DUP1 CALLDATASIZE SUB DUP2 ADD SWAP1 PUSH2 0x250 SWAP2 SWAP1 PUSH2 0xD83 JUMP JUMPDEST PUSH2 0x95D JUMP JUMPDEST PUSH1 0x40 MLOAD PUSH2 0x265 SWAP5 SWAP4 SWAP3 SWAP2 SWAP1 PUSH2 0x1078 JUMP JUMPDEST PUSH1 0x40 MLOAD DUP1 SWAP2 SUB SWAP1 RETURN JUMPDEST PUSH2 0x276 PUSH2 0x9BA JUMP JUMPDEST PUSH1 0x40 MLOAD PUSH2 0x283 SWAP2 SWAP1 PUSH2 0x105D JUMP JUMPDEST PUSH1 0x40 MLOAD DUP1 SWAP2 SUB SWAP1 RETURN JUMPDEST PUSH2 0x294 PUSH2 0x9C4 JUMP JUMPDEST PUSH1 0x40 MLOAD PUSH2 0x2A1 SWAP2 SWAP1 PUSH2 0xFE9 JUMP JUMPDEST PUSH1 0x40 MLOAD DUP1 SWAP2 SUB SWAP1 RETURN JUMPDEST PUSH2 0x2C4 PUSH1 0x4 DUP1 CALLDATASIZE SUB DUP2 ADD SWAP1 PUSH2 0x2BF SWAP2 SWAP1 PUSH2 0xDED JUMP JUMPDEST PUSH2 0xAA6 JUMP JUMPDEST PUSH1 0x40 MLOAD PUSH2 0x2D1 SWAP2 SWAP1 PUSH2 0x103B JUMP JUMPDEST PUSH1 0x40 MLOAD DUP1 SWAP2 SUB SWAP1 RETURN JUMPDEST PUSH1 0x0 PUSH1 0x5 PUSH1 0x0 CALLER PUSH20 0xFFFFFFFFFFFFFFFFFFFFFFFFFFFFFFFFFFFFFFFF AND PUSH20 0xFFFFFFFFFFFFFFFFFFFFFFFFFFFFFFFFFFFFFFFF AND DUP2 MSTORE PUSH1 0x20 ADD SWAP1 DUP2 MSTORE PUSH1 0x20 ADD PUSH1 0x0 KECCAK256 SWAP1 POP DUP1 PUSH1 0x1 ADD PUSH1 0x0 SWAP1 SLOAD SWAP1 PUSH2 0x100 EXP SWAP1 DIV PUSH1 0xFF AND ISZERO PUSH2 0x339 JUMPI PUSH1 0x0 DUP1 REVERT JUMPDEST PUSH1 0x1 DUP2 PUSH1 0x1 ADD PUSH1 0x0 PUSH2 0x100 EXP DUP2 SLOAD DUP2 PUSH1 0xFF MUL NOT AND SWAP1 DUP4 ISZERO ISZERO MUL OR SWAP1 SSTORE POP DUP2 DUP2 PUSH1 0x2 ADD DUP2 SWAP1 SSTORE POP DUP1 PUSH1 0x0 ADD SLOAD PUSH1 0x6 DUP4 DUP2 SLOAD DUP2 LT PUSH2 0x39E JUMPI PUSH32 0x4E487B7100000000000000000000000000000000000000000000000000000000 PUSH1 0x0 MSTORE PUSH1 0x32 PUSH1 0x4 MSTORE PUSH1 0x24 PUSH1 0x0 REVERT JUMPDEST SWAP1 PUSH1 0x0 MSTORE PUSH1 0x20 PUSH1 0x0 KECCAK256 SWAP1 PUSH1 0x2 MUL ADD PUSH1 0x1 ADD PUSH1 0x0 DUP3 DUP3 SLOAD PUSH2 0x3BE SWAP2 SWAP1 PUSH2 0x11B0 JUMP JUMPDEST SWAP3 POP POP DUP2 SWAP1 SSTORE POP POP POP JUMP JUMPDEST PUSH1 0x6 DUP2 DUP2 SLOAD DUP2 LT PUSH2 0x3D9 JUMPI PUSH1 0x0 DUP1 REVERT JUMPDEST SWAP1 PUSH1 0x0 MSTORE PUSH1 0x20 PUSH1 0x0 KECCAK256 SWAP1 PUSH1 0x2 MUL ADD PUSH1 0x0 SWAP2 POP SWAP1 POP DUP1 PUSH1 0x0 ADD DUP1 SLOAD PUSH2 0x3FC SWAP1 PUSH2 0x1290 JUMP JUMPDEST DUP1 PUSH1 0x1F ADD PUSH1 0x20 DUP1 SWAP2 DIV MUL PUSH1 0x20 ADD PUSH1 0x40 MLOAD SWAP1 DUP2 ADD PUSH1 0x40 MSTORE DUP1 SWAP3 SWAP2 SWAP1 DUP2 DUP2 MSTORE PUSH1 0x20 ADD DUP3 DUP1 SLOAD PUSH2 0x428 SWAP1 PUSH2 0x1290 JUMP JUMPDEST DUP1 ISZERO PUSH2 0x475 JUMPI DUP1 PUSH1 0x1F LT PUSH2 0x44A JUMPI PUSH2 0x100 DUP1 DUP4 SLOAD DIV MUL DUP4 MSTORE SWAP2 PUSH1 0x20 ADD SWAP2 PUSH2 0x475 JUMP JUMPDEST DUP3 ADD SWAP2 SWAP1 PUSH1 0x0 MSTORE PUSH1 0x20 PUSH1 0x0 KECCAK256 SWAP1 JUMPDEST DUP2 SLOAD DUP2 MSTORE SWAP1 PUSH1 0x1 ADD SWAP1 PUSH1 0x20 ADD DUP1 DUP4 GT PUSH2 0x458 JUMPI DUP3 SWAP1 SUB PUSH1 0x1F AND DUP3 ADD SWAP2 JUMPDEST POP POP POP POP POP SWAP1 DUP1 PUSH1 0x1 ADD SLOAD SWAP1 POP DUP3 JUMP JUMPDEST PUSH1 0x0 PUSH1 0x4 SLOAD SWAP1 POP SWAP1 JUMP JUMPDEST PUSH1 0x0 PUSH1 0x1 SLOAD SWAP1 POP SWAP1 JUMP JUMPDEST PUSH1 0x0 DUP1 PUSH1 0x0 SWAP1 POP PUSH1 0x0 JUMPDEST PUSH1 0x6 DUP1 SLOAD SWAP1 POP DUP2 LT ISZERO PUSH2 0x568 JUMPI DUP2 PUSH1 0x6 DUP3 DUP2 SLOAD DUP2 LT PUSH2 0x4EB JUMPI PUSH32 0x4E487B7100000000000000000000000000000000000000000000000000000000 PUSH1 0x0 MSTORE PUSH1 0x32 PUSH1 0x4 MSTORE PUSH1 0x24 PUSH1 0x0 REVERT JUMPDEST SWAP1 PUSH1 0x0 MSTORE PUSH1 0x20 PUSH1 0x0 KECCAK256 SWAP1 PUSH1 0x2 MUL ADD PUSH1 0x1 ADD SLOAD GT ISZERO PUSH2 0x555 JUMPI PUSH1 0x6 DUP2 DUP2 SLOAD DUP2 LT PUSH2 0x53D JUMPI PUSH32 0x4E487B7100000000000000000000000000000000000000000000000000000000 PUSH1 0x0 MSTORE PUSH1 0x32 PUSH1 0x4 MSTORE PUSH1 0x24 PUSH1 0x0 REVERT JUMPDEST SWAP1 PUSH1 0x0 MSTORE PUSH1 0x20 PUSH1 0x0 KECCAK256 SWAP1 PUSH1 0x2 MUL ADD PUSH1 0x1 ADD SLOAD SWAP2 POP DUP1 SWAP3 POP JUMPDEST DUP1 DUP1 PUSH2 0x560 SWAP1 PUSH2 0x12C2 JUMP JUMPDEST SWAP2 POP POP PUSH2 0x4A3 JUMP JUMPDEST POP POP SWAP1 JUMP JUMPDEST PUSH1 0x60 PUSH1 0x6 DUP1 SLOAD DUP1 PUSH1 0x20 MUL PUSH1 0x20 ADD PUSH1 0x40 MLOAD SWAP1 DUP2 ADD PUSH1 0x40 MSTORE DUP1 SWAP3 SWAP2 SWAP1 DUP2 DUP2 MSTORE PUSH1 0x20 ADD PUSH1 0x0 SWAP1 JUMPDEST DUP3 DUP3 LT ISZERO PUSH2 0x65F JUMPI DUP4 DUP3 SWAP1 PUSH1 0x0 MSTORE PUSH1 0x20 PUSH1 0x0 KECCAK256 SWAP1 PUSH1 0x2 MUL ADD PUSH1 0x40 MLOAD DUP1 PUSH1 0x40 ADD PUSH1 0x40 MSTORE SWAP1 DUP2 PUSH1 0x0 DUP3 ADD DUP1 SLOAD PUSH2 0x5C4 SWAP1 PUSH2 0x1290 JUMP JUMPDEST DUP1 PUSH1 0x1F ADD PUSH1 0x20 DUP1 SWAP2 DIV MUL PUSH1 0x20 ADD PUSH1 0x40 MLOAD SWAP1 DUP2 ADD PUSH1 0x40 MSTORE DUP1 SWAP3 SWAP2 SWAP1 DUP2 DUP2 MSTORE PUSH1 0x20 ADD DUP3 DUP1 SLOAD PUSH2 0x5F0 SWAP1 PUSH2 0x1290 JUMP JUMPDEST DUP1 ISZERO PUSH2 0x63D JUMPI DUP1 PUSH1 0x1F LT PUSH2 0x612 JUMPI PUSH2 0x100 DUP1 DUP4 SLOAD DIV MUL DUP4 MSTORE SWAP2 PUSH1 0x20 ADD SWAP2 PUSH2 0x63D JUMP JUMPDEST DUP3 ADD SWAP2 SWAP1 PUSH1 0x0 MSTORE PUSH1 0x20 PUSH1 0x0 KECCAK256 SWAP1 JUMPDEST DUP2 SLOAD DUP2 MSTORE SWAP1 PUSH1 0x1 ADD SWAP1 PUSH1 0x20 ADD DUP1 DUP4 GT PUSH2 0x620 JUMPI DUP3 SWAP1 SUB PUSH1 0x1F AND DUP3 ADD SWAP2 JUMPDEST POP POP POP POP POP DUP2 MSTORE PUSH1 0x20 ADD PUSH1 0x1 DUP3 ADD SLOAD DUP2 MSTORE POP POP DUP2 MSTORE PUSH1 0x20 ADD SWAP1 PUSH1 0x1 ADD SWAP1 PUSH2 0x591 JUMP JUMPDEST POP POP POP POP SWAP1 POP SWAP1 JUMP JUMPDEST DUP1 PUSH1 0x1 DUP2 SWAP1 SSTORE POP POP JUMP JUMPDEST PUSH1 0x0 PUSH1 0x2 SLOAD SWAP1 POP SWAP1 JUMP JUMPDEST CALLER PUSH1 0x0 DUP1 PUSH2 0x100 EXP DUP2 SLOAD DUP2 PUSH20 0xFFFFFFFFFFFFFFFFFFFFFFFFFFFFFFFFFFFFFFFF MUL NOT AND SWAP1 DUP4 PUSH20 0xFFFFFFFFFFFFFFFFFFFFFFFFFFFFFFFFFFFFFFFF AND MUL OR SWAP1 SSTORE POP PUSH1 0x1 PUSH1 0x5 PUSH1 0x0 DUP1 PUSH1 0x0 SWAP1 SLOAD SWAP1 PUSH2 0x100 EXP SWAP1 DIV PUSH20 0xFFFFFFFFFFFFFFFFFFFFFFFFFFFFFFFFFFFFFFFF AND PUSH20 0xFFFFFFFFFFFFFFFFFFFFFFFFFFFFFFFFFFFFFFFF AND PUSH20 0xFFFFFFFFFFFFFFFFFFFFFFFFFFFFFFFFFFFFFFFF AND DUP2 MSTORE PUSH1 0x20 ADD SWAP1 DUP2 MSTORE PUSH1 0x20 ADD PUSH1 0x0 KECCAK256 PUSH1 0x0 ADD DUP2 SWAP1 SSTORE POP PUSH1 0x0 PUSH1 0x1 DUP2 SWAP1 SSTORE POP PUSH2 0x735 PUSH2 0xBA4 JUMP JUMPDEST DUP1 MLOAD PUSH1 0x4 DUP2 SWAP1 SSTORE POP PUSH1 0x0 JUMPDEST DUP2 MLOAD DUP2 LT ISZERO PUSH2 0x806 JUMPI PUSH1 0x6 PUSH1 0x40 MLOAD DUP1 PUSH1 0x40 ADD PUSH1 0x40 MSTORE DUP1 DUP5 DUP5 DUP2 MLOAD DUP2 LT PUSH2 0x78F JUMPI PUSH32 0x4E487B7100000000000000000000000000000000000000000000000000000000 PUSH1 0x0 MSTORE PUSH1 0x32 PUSH1 0x4 MSTORE PUSH1 0x24 PUSH1 0x0 REVERT JUMPDEST PUSH1 0x20 MUL PUSH1 0x20 ADD ADD MLOAD DUP2 MSTORE PUSH1 0x20 ADD PUSH1 0x0 DUP2 MSTORE POP SWAP1 DUP1 PUSH1 0x1 DUP2 SLOAD ADD DUP1 DUP3 SSTORE DUP1 SWAP2 POP POP PUSH1 0x1 SWAP1 SUB SWAP1 PUSH1 0x0 MSTORE PUSH1 0x20 PUSH1 0x0 KECCAK256 SWAP1 PUSH1 0x2 MUL ADD PUSH1 0x0 SWAP1 SWAP2 SWAP1 SWAP2 SWAP1 SWAP2 POP PUSH1 0x0 DUP3 ADD MLOAD DUP2 PUSH1 0x0 ADD SWAP1 DUP1 MLOAD SWAP1 PUSH1 0x20 ADD SWAP1 PUSH2 0x7E6 SWAP3 SWAP2 SWAP1 PUSH2 0xBAD JUMP JUMPDEST POP PUSH1 0x20 DUP3 ADD MLOAD DUP2 PUSH1 0x1 ADD SSTORE POP POP DUP1 DUP1 PUSH2 0x7FE SWAP1 PUSH2 0x12C2 JUMP JUMPDEST SWAP2 POP POP PUSH2 0x740 JUMP JUMPDEST POP POP JUMP JUMPDEST TIMESTAMP PUSH1 0x3 DUP2 SWAP1 SSTORE POP JUMP JUMPDEST PUSH1 0x0 DUP1 SLOAD SWAP1 PUSH2 0x100 EXP SWAP1 DIV PUSH20 0xFFFFFFFFFFFFFFFFFFFFFFFFFFFFFFFFFFFFFFFF AND PUSH20 0xFFFFFFFFFFFFFFFFFFFFFFFFFFFFFFFFFFFFFFFF AND CALLER PUSH20 0xFFFFFFFFFFFFFFFFFFFFFFFFFFFFFFFFFFFFFFFF AND EQ DUP1 ISZERO PUSH2 0x8BB JUMPI POP PUSH1 0x5 PUSH1 0x0 DUP3 PUSH20 0xFFFFFFFFFFFFFFFFFFFFFFFFFFFFFFFFFFFFFFFF AND PUSH20 0xFFFFFFFFFFFFFFFFFFFFFFFFFFFFFFFFFFFFFFFF AND DUP2 MSTORE PUSH1 0x20 ADD SWAP1 DUP2 MSTORE PUSH1 0x20 ADD PUSH1 0x0 KECCAK256 PUSH1 0x1 ADD PUSH1 0x0 SWAP1 SLOAD SWAP1 PUSH2 0x100 EXP SWAP1 DIV PUSH1 0xFF AND ISZERO JUMPDEST DUP1 ISZERO PUSH2 0x909 JUMPI POP PUSH1 0x0 PUSH1 0x5 PUSH1 0x0 DUP4 PUSH20 0xFFFFFFFFFFFFFFFFFFFFFFFFFFFFFFFFFFFFFFFF AND PUSH20 0xFFFFFFFFFFFFFFFFFFFFFFFFFFFFFFFFFFFFFFFF AND DUP2 MSTORE PUSH1 0x20 ADD SWAP1 DUP2 MSTORE PUSH1 0x20 ADD PUSH1 0x0 KECCAK256 PUSH1 0x0 ADD SLOAD EQ JUMPDEST PUSH2 0x912 JUMPI PUSH1 0x0 DUP1 REVERT JUMPDEST PUSH1 0x1 PUSH1 0x5 PUSH1 0x0 DUP4 PUSH20 0xFFFFFFFFFFFFFFFFFFFFFFFFFFFFFFFFFFFFFFFF AND PUSH20 0xFFFFFFFFFFFFFFFFFFFFFFFFFFFFFFFFFFFFFFFF AND DUP2 MSTORE PUSH1 0x20 ADD SWAP1 DUP2 MSTORE PUSH1 0x20 ADD PUSH1 0x0 KECCAK256 PUSH1 0x0 ADD DUP2 SWAP1 SSTORE POP POP JUMP JUMPDEST PUSH1 0x5 PUSH1 0x20 MSTORE DUP1 PUSH1 0x0 MSTORE PUSH1 0x40 PUSH1 0x0 KECCAK256 PUSH1 0x0 SWAP2 POP SWAP1 POP DUP1 PUSH1 0x0 ADD SLOAD SWAP1 DUP1 PUSH1 0x1 ADD PUSH1 0x0 SWAP1 SLOAD SWAP1 PUSH2 0x100 EXP SWAP1 DIV PUSH1 0xFF AND SWAP1 DUP1 PUSH1 0x1 ADD PUSH1 0x1 SWAP1 SLOAD SWAP1 PUSH2 0x100 EXP SWAP1 DIV PUSH20 0xFFFFFFFFFFFFFFFFFFFFFFFFFFFFFFFFFFFFFFFF AND SWAP1 DUP1 PUSH1 0x2 ADD SLOAD SWAP1 POP DUP5 JUMP JUMPDEST PUSH1 0x0 PUSH1 0x3 SLOAD SWAP1 POP SWAP1 JUMP JUMPDEST PUSH1 0x60 PUSH1 0x6 PUSH2 0x9D0 PUSH2 0x499 JUMP JUMPDEST DUP2 SLOAD DUP2 LT PUSH2 0xA07 JUMPI PUSH32 0x4E487B7100000000000000000000000000000000000000000000000000000000 PUSH1 0x0 MSTORE PUSH1 0x32 PUSH1 0x4 MSTORE PUSH1 0x24 PUSH1 0x0 REVERT JUMPDEST SWAP1 PUSH1 0x0 MSTORE PUSH1 0x20 PUSH1 0x0 KECCAK256 SWAP1 PUSH1 0x2 MUL ADD PUSH1 0x0 ADD DUP1 SLOAD PUSH2 0xA23 SWAP1 PUSH2 0x1290 JUMP JUMPDEST DUP1 PUSH1 0x1F ADD PUSH1 0x20 DUP1 SWAP2 DIV MUL PUSH1 0x20 ADD PUSH1 0x40 MLOAD SWAP1 DUP2 ADD PUSH1 0x40 MSTORE DUP1 SWAP3 SWAP2 SWAP1 DUP2 DUP2 MSTORE PUSH1 0x20 ADD DUP3 DUP1 SLOAD PUSH2 0xA4F SWAP1 PUSH2 0x1290 JUMP JUMPDEST DUP1 ISZERO PUSH2 0xA9C JUMPI DUP1 PUSH1 0x1F LT PUSH2 0xA71 JUMPI PUSH2 0x100 DUP1 DUP4 SLOAD DIV MUL DUP4 MSTORE SWAP2 PUSH1 0x20 ADD SWAP2 PUSH2 0xA9C JUMP JUMPDEST DUP3 ADD SWAP2 SWAP1 PUSH1 0x0 MSTORE PUSH1 0x20 PUSH1 0x0 KECCAK256 SWAP1 JUMPDEST DUP2 SLOAD DUP2 MSTORE SWAP1 PUSH1 0x1 ADD SWAP1 PUSH1 0x20 ADD DUP1 DUP4 GT PUSH2 0xA7F JUMPI DUP3 SWAP1 SUB PUSH1 0x1F AND DUP3 ADD SWAP2 JUMPDEST POP POP POP POP POP SWAP1 POP SWAP1 JUMP JUMPDEST PUSH2 0xAAE PUSH2 0xC33 JUMP JUMPDEST PUSH1 0x6 DUP3 DUP2 SLOAD DUP2 LT PUSH2 0xAE8 JUMPI PUSH32 0x4E487B7100000000000000000000000000000000000000000000000000000000 PUSH1 0x0 MSTORE PUSH1 0x32 PUSH1 0x4 MSTORE PUSH1 0x24 PUSH1 0x0 REVERT JUMPDEST SWAP1 PUSH1 0x0 MSTORE PUSH1 0x20 PUSH1 0x0 KECCAK256 SWAP1 PUSH1 0x2 MUL ADD PUSH1 0x40 MLOAD DUP1 PUSH1 0x40 ADD PUSH1 0x40 MSTORE SWAP1 DUP2 PUSH1 0x0 DUP3 ADD DUP1 SLOAD PUSH2 0xB11 SWAP1 PUSH2 0x1290 JUMP JUMPDEST DUP1 PUSH1 0x1F ADD PUSH1 0x20 DUP1 SWAP2 DIV MUL PUSH1 0x20 ADD PUSH1 0x40 MLOAD SWAP1 DUP2 ADD PUSH1 0x40 MSTORE DUP1 SWAP3 SWAP2 SWAP1 DUP2 DUP2 MSTORE PUSH1 0x20 ADD DUP3 DUP1 SLOAD PUSH2 0xB3D SWAP1 PUSH2 0x1290 JUMP JUMPDEST DUP1 ISZERO PUSH2 0xB8A JUMPI DUP1 PUSH1 0x1F LT PUSH2 0xB5F JUMPI PUSH2 0x100 DUP1 DUP4 SLOAD DIV MUL DUP4 MSTORE SWAP2 PUSH1 0x20 ADD SWAP2 PUSH2 0xB8A JUMP JUMPDEST DUP3 ADD SWAP2 SWAP1 PUSH1 0x0 MSTORE PUSH1 0x20 PUSH1 0x0 KECCAK256 SWAP1 JUMPDEST DUP2 SLOAD DUP2 MSTORE SWAP1 PUSH1 0x1 ADD SWAP1 PUSH1 0x20 ADD DUP1 DUP4 GT PUSH2 0xB6D JUMPI DUP3 SWAP1 SUB PUSH1 0x1F AND DUP3 ADD SWAP2 JUMPDEST POP POP POP POP POP DUP2 MSTORE PUSH1 0x20 ADD PUSH1 0x1 DUP3 ADD SLOAD DUP2 MSTORE POP POP SWAP1 POP SWAP2 SWAP1 POP JUMP JUMPDEST TIMESTAMP PUSH1 0x2 DUP2 SWAP1 SSTORE POP JUMP JUMPDEST DUP3 DUP1 SLOAD PUSH2 0xBB9 SWAP1 PUSH2 0x1290 JUMP JUMPDEST SWAP1 PUSH1 0x0 MSTORE PUSH1 0x20 PUSH1 0x0 KECCAK256 SWAP1 PUSH1 0x1F ADD PUSH1 0x20 SWAP1 DIV DUP2 ADD SWAP3 DUP3 PUSH2 0xBDB JUMPI PUSH1 0x0 DUP6 SSTORE PUSH2 0xC22 JUMP JUMPDEST DUP3 PUSH1 0x1F LT PUSH2 0xBF4 JUMPI DUP1 MLOAD PUSH1 0xFF NOT AND DUP4 DUP1 ADD OR DUP6 SSTORE PUSH2 0xC22 JUMP JUMPDEST DUP3 DUP1 ADD PUSH1 0x1 ADD DUP6 SSTORE DUP3 ISZERO PUSH2 0xC22 JUMPI SWAP2 DUP3 ADD JUMPDEST DUP3 DUP2 GT ISZERO PUSH2 0xC21 JUMPI DUP3 MLOAD DUP3 SSTORE SWAP2 PUSH1 0x20 ADD SWAP2 SWAP1 PUSH1 0x1 ADD SWAP1 PUSH2 0xC06 JUMP JUMPDEST JUMPDEST POP SWAP1 POP PUSH2 0xC2F SWAP2 SWAP1 PUSH2 0xC4D JUMP JUMPDEST POP SWAP1 JUMP JUMPDEST PUSH1 0x40 MLOAD DUP1 PUSH1 0x40 ADD PUSH1 0x40 MSTORE DUP1 PUSH1 0x60 DUP2 MSTORE PUSH1 0x20 ADD PUSH1 0x0 DUP2 MSTORE POP SWAP1 JUMP JUMPDEST JUMPDEST DUP1 DUP3 GT ISZERO PUSH2 0xC66 JUMPI PUSH1 0x0 DUP2 PUSH1 0x0 SWAP1 SSTORE POP PUSH1 0x1 ADD PUSH2 0xC4E JUMP JUMPDEST POP SWAP1 JUMP JUMPDEST PUSH1 0x0 PUSH2 0xC7D PUSH2 0xC78 DUP5 PUSH2 0x10EE JUMP JUMPDEST PUSH2 0x10BD JUMP JUMPDEST SWAP1 POP DUP1 DUP4 DUP3 MSTORE PUSH1 0x20 DUP3 ADD SWAP1 POP DUP3 PUSH1 0x0 JUMPDEST DUP6 DUP2 LT ISZERO PUSH2 0xCBD JUMPI DUP2 CALLDATALOAD DUP6 ADD PUSH2 0xCA3 DUP9 DUP3 PUSH2 0xD44 JUMP JUMPDEST DUP5 MSTORE PUSH1 0x20 DUP5 ADD SWAP4 POP PUSH1 0x20 DUP4 ADD SWAP3 POP POP PUSH1 0x1 DUP2 ADD SWAP1 POP PUSH2 0xC8D JUMP JUMPDEST POP POP POP SWAP4 SWAP3 POP POP POP JUMP JUMPDEST PUSH1 0x0 PUSH2 0xCDA PUSH2 0xCD5 DUP5 PUSH2 0x111A JUMP JUMPDEST PUSH2 0x10BD JUMP JUMPDEST SWAP1 POP DUP3 DUP2 MSTORE PUSH1 0x20 DUP2 ADD DUP5 DUP5 DUP5 ADD GT ISZERO PUSH2 0xCF2 JUMPI PUSH1 0x0 DUP1 REVERT JUMPDEST PUSH2 0xCFD DUP5 DUP3 DUP6 PUSH2 0x124E JUMP JUMPDEST POP SWAP4 SWAP3 POP POP POP JUMP JUMPDEST PUSH1 0x0 DUP2 CALLDATALOAD SWAP1 POP PUSH2 0xD14 DUP2 PUSH2 0x13A9 JUMP JUMPDEST SWAP3 SWAP2 POP POP JUMP JUMPDEST PUSH1 0x0 DUP3 PUSH1 0x1F DUP4 ADD SLT PUSH2 0xD2B JUMPI PUSH1 0x0 DUP1 REVERT JUMPDEST DUP2 CALLDATALOAD PUSH2 0xD3B DUP5 DUP3 PUSH1 0x20 DUP7 ADD PUSH2 0xC6A JUMP JUMPDEST SWAP2 POP POP SWAP3 SWAP2 POP POP JUMP JUMPDEST PUSH1 0x0 DUP3 PUSH1 0x1F DUP4 ADD SLT PUSH2 0xD55 JUMPI PUSH1 0x0 DUP1 REVERT JUMPDEST DUP2 CALLDATALOAD PUSH2 0xD65 DUP5 DUP3 PUSH1 0x20 DUP7 ADD PUSH2 0xCC7 JUMP JUMPDEST SWAP2 POP POP SWAP3 SWAP2 POP POP JUMP JUMPDEST PUSH1 0x0 DUP2 CALLDATALOAD SWAP1 POP PUSH2 0xD7D DUP2 PUSH2 0x13C0 JUMP JUMPDEST SWAP3 SWAP2 POP POP JUMP JUMPDEST PUSH1 0x0 PUSH1 0x20 DUP3 DUP5 SUB SLT ISZERO PUSH2 0xD95 JUMPI PUSH1 0x0 DUP1 REVERT JUMPDEST PUSH1 0x0 PUSH2 0xDA3 DUP5 DUP3 DUP6 ADD PUSH2 0xD05 JUMP JUMPDEST SWAP2 POP POP SWAP3 SWAP2 POP POP JUMP JUMPDEST PUSH1 0x0 PUSH1 0x20 DUP3 DUP5 SUB SLT ISZERO PUSH2 0xDBE JUMPI PUSH1 0x0 DUP1 REVERT JUMPDEST PUSH1 0x0 DUP3 ADD CALLDATALOAD PUSH8 0xFFFFFFFFFFFFFFFF DUP2 GT ISZERO PUSH2 0xDD8 JUMPI PUSH1 0x0 DUP1 REVERT JUMPDEST PUSH2 0xDE4 DUP5 DUP3 DUP6 ADD PUSH2 0xD1A JUMP JUMPDEST SWAP2 POP POP SWAP3 SWAP2 POP POP JUMP JUMPDEST PUSH1 0x0 PUSH1 0x20 DUP3 DUP5 SUB SLT ISZERO PUSH2 0xDFF JUMPI PUSH1 0x0 DUP1 REVERT JUMPDEST PUSH1 0x0 PUSH2 0xE0D DUP5 DUP3 DUP6 ADD PUSH2 0xD6E JUMP JUMPDEST SWAP2 POP POP SWAP3 SWAP2 POP POP JUMP JUMPDEST PUSH1 0x0 PUSH2 0xE22 DUP4 DUP4 PUSH2 0xF2F JUMP JUMPDEST SWAP1 POP SWAP3 SWAP2 POP POP JUMP JUMPDEST PUSH2 0xE33 DUP2 PUSH2 0x1206 JUMP JUMPDEST DUP3 MSTORE POP POP JUMP JUMPDEST PUSH1 0x0 PUSH2 0xE44 DUP3 PUSH2 0x115A JUMP JUMPDEST PUSH2 0xE4E DUP2 DUP6 PUSH2 0x117D JUMP JUMPDEST SWAP4 POP DUP4 PUSH1 0x20 DUP3 MUL DUP6 ADD PUSH2 0xE60 DUP6 PUSH2 0x114A JUMP JUMPDEST DUP1 PUSH1 0x0 JUMPDEST DUP6 DUP2 LT ISZERO PUSH2 0xE9C JUMPI DUP5 DUP5 SUB DUP10 MSTORE DUP2 MLOAD PUSH2 0xE7D DUP6 DUP3 PUSH2 0xE16 JUMP JUMPDEST SWAP5 POP PUSH2 0xE88 DUP4 PUSH2 0x1170 JUMP JUMPDEST SWAP3 POP PUSH1 0x20 DUP11 ADD SWAP10 POP POP PUSH1 0x1 DUP2 ADD SWAP1 POP PUSH2 0xE64 JUMP JUMPDEST POP DUP3 SWAP8 POP DUP8 SWAP6 POP POP POP POP POP POP SWAP3 SWAP2 POP POP JUMP JUMPDEST PUSH2 0xEB7 DUP2 PUSH2 0x1218 JUMP JUMPDEST DUP3 MSTORE POP POP JUMP JUMPDEST PUSH1 0x0 PUSH2 0xEC8 DUP3 PUSH2 0x1165 JUMP JUMPDEST PUSH2 0xED2 DUP2 DUP6 PUSH2 0x118E JUMP JUMPDEST SWAP4 POP PUSH2 0xEE2 DUP2 DUP6 PUSH1 0x20 DUP7 ADD PUSH2 0x125D JUMP JUMPDEST PUSH2 0xEEB DUP2 PUSH2 0x1398 JUMP JUMPDEST DUP5 ADD SWAP2 POP POP SWAP3 SWAP2 POP POP JUMP JUMPDEST PUSH1 0x0 PUSH2 0xF01 DUP3 PUSH2 0x1165 JUMP JUMPDEST PUSH2 0xF0B DUP2 DUP6 PUSH2 0x119F JUMP JUMPDEST SWAP4 POP PUSH2 0xF1B DUP2 DUP6 PUSH1 0x20 DUP7 ADD PUSH2 0x125D JUMP JUMPDEST PUSH2 0xF24 DUP2 PUSH2 0x1398 JUMP JUMPDEST DUP5 ADD SWAP2 POP POP SWAP3 SWAP2 POP POP JUMP JUMPDEST PUSH1 0x0 PUSH1 0x40 DUP4 ADD PUSH1 0x0 DUP4 ADD MLOAD DUP5 DUP3 SUB PUSH1 0x0 DUP7 ADD MSTORE PUSH2 0xF4C DUP3 DUP3 PUSH2 0xEBD JUMP JUMPDEST SWAP2 POP POP PUSH1 0x20 DUP4 ADD MLOAD PUSH2 0xF61 PUSH1 0x20 DUP7 ADD DUP3 PUSH2 0xFA9 JUMP JUMPDEST POP DUP1 SWAP2 POP POP SWAP3 SWAP2 POP POP JUMP JUMPDEST PUSH1 0x0 PUSH1 0x40 DUP4 ADD PUSH1 0x0 DUP4 ADD MLOAD DUP5 DUP3 SUB PUSH1 0x0 DUP7 ADD MSTORE PUSH2 0xF89 DUP3 DUP3 PUSH2 0xEBD JUMP JUMPDEST SWAP2 POP POP PUSH1 0x20 DUP4 ADD MLOAD PUSH2 0xF9E PUSH1 0x20 DUP7 ADD DUP3 PUSH2 0xFA9 JUMP JUMPDEST POP DUP1 SWAP2 POP POP SWAP3 SWAP2 POP POP JUMP JUMPDEST PUSH2 0xFB2 DUP2 PUSH2 0x1244 JUMP JUMPDEST DUP3 MSTORE POP POP JUMP JUMPDEST PUSH2 0xFC1 DUP2 PUSH2 0x1244 JUMP JUMPDEST DUP3 MSTORE POP POP JUMP JUMPDEST PUSH1 0x0 PUSH1 0x20 DUP3 ADD SWAP1 POP DUP2 DUP2 SUB PUSH1 0x0 DUP4 ADD MSTORE PUSH2 0xFE1 DUP2 DUP5 PUSH2 0xE39 JUMP JUMPDEST SWAP1 POP SWAP3 SWAP2 POP POP JUMP JUMPDEST PUSH1 0x0 PUSH1 0x20 DUP3 ADD SWAP1 POP DUP2 DUP2 SUB PUSH1 0x0 DUP4 ADD MSTORE PUSH2 0x1003 DUP2 DUP5 PUSH2 0xEF6 JUMP JUMPDEST SWAP1 POP SWAP3 SWAP2 POP POP JUMP JUMPDEST PUSH1 0x0 PUSH1 0x40 DUP3 ADD SWAP1 POP DUP2 DUP2 SUB PUSH1 0x0 DUP4 ADD MSTORE PUSH2 0x1025 DUP2 DUP6 PUSH2 0xEF6 JUMP JUMPDEST SWAP1 POP PUSH2 0x1034 PUSH1 0x20 DUP4 ADD DUP5 PUSH2 0xFB8 JUMP JUMPDEST SWAP4 SWAP3 POP POP POP JUMP JUMPDEST PUSH1 0x0 PUSH1 0x20 DUP3 ADD SWAP1 POP DUP2 DUP2 SUB PUSH1 0x0 DUP4 ADD MSTORE PUSH2 0x1055 DUP2 DUP5 PUSH2 0xF6C JUMP JUMPDEST SWAP1 POP SWAP3 SWAP2 POP POP JUMP JUMPDEST PUSH1 0x0 PUSH1 0x20 DUP3 ADD SWAP1 POP PUSH2 0x1072 PUSH1 0x0 DUP4 ADD DUP5 PUSH2 0xFB8 JUMP JUMPDEST SWAP3 SWAP2 POP POP JUMP JUMPDEST PUSH1 0x0 PUSH1 0x80 DUP3 ADD SWAP1 POP PUSH2 0x108D PUSH1 0x0 DUP4 ADD DUP8 PUSH2 0xFB8 JUMP JUMPDEST PUSH2 0x109A PUSH1 0x20 DUP4 ADD DUP7 PUSH2 0xEAE JUMP JUMPDEST PUSH2 0x10A7 PUSH1 0x40 DUP4 ADD DUP6 PUSH2 0xE2A JUMP JUMPDEST PUSH2 0x10B4 PUSH1 0x60 DUP4 ADD DUP5 PUSH2 0xFB8 JUMP JUMPDEST SWAP6 SWAP5 POP POP POP POP POP JUMP JUMPDEST PUSH1 0x0 PUSH1 0x40 MLOAD SWAP1 POP DUP2 DUP2 ADD DUP2 DUP2 LT PUSH8 0xFFFFFFFFFFFFFFFF DUP3 GT OR ISZERO PUSH2 0x10E4 JUMPI PUSH2 0x10E3 PUSH2 0x1369 JUMP JUMPDEST JUMPDEST DUP1 PUSH1 0x40 MSTORE POP SWAP2 SWAP1 POP JUMP JUMPDEST PUSH1 0x0 PUSH8 0xFFFFFFFFFFFFFFFF DUP3 GT ISZERO PUSH2 0x1109 JUMPI PUSH2 0x1108 PUSH2 0x1369 JUMP JUMPDEST JUMPDEST PUSH1 0x20 DUP3 MUL SWAP1 POP PUSH1 0x20 DUP2 ADD SWAP1 POP SWAP2 SWAP1 POP JUMP JUMPDEST PUSH1 0x0 PUSH8 0xFFFFFFFFFFFFFFFF DUP3 GT ISZERO PUSH2 0x1135 JUMPI PUSH2 0x1134 PUSH2 0x1369 JUMP JUMPDEST JUMPDEST PUSH1 0x1F NOT PUSH1 0x1F DUP4 ADD AND SWAP1 POP PUSH1 0x20 DUP2 ADD SWAP1 POP SWAP2 SWAP1 POP JUMP JUMPDEST PUSH1 0x0 DUP2 SWAP1 POP PUSH1 0x20 DUP3 ADD SWAP1 POP SWAP2 SWAP1 POP JUMP JUMPDEST PUSH1 0x0 DUP2 MLOAD SWAP1 POP SWAP2 SWAP1 POP JUMP JUMPDEST PUSH1 0x0 DUP2 MLOAD SWAP1 POP SWAP2 SWAP1 POP JUMP JUMPDEST PUSH1 0x0 PUSH1 0x20 DUP3 ADD SWAP1 POP SWAP2 SWAP1 POP JUMP JUMPDEST PUSH1 0x0 DUP3 DUP3 MSTORE PUSH1 0x20 DUP3 ADD SWAP1 POP SWAP3 SWAP2 POP POP JUMP JUMPDEST PUSH1 0x0 DUP3 DUP3 MSTORE PUSH1 0x20 DUP3 ADD SWAP1 POP SWAP3 SWAP2 POP POP JUMP JUMPDEST PUSH1 0x0 DUP3 DUP3 MSTORE PUSH1 0x20 DUP3 ADD SWAP1 POP SWAP3 SWAP2 POP POP JUMP JUMPDEST PUSH1 0x0 PUSH2 0x11BB DUP3 PUSH2 0x1244 JUMP JUMPDEST SWAP2 POP PUSH2 0x11C6 DUP4 PUSH2 0x1244 JUMP JUMPDEST SWAP3 POP DUP3 PUSH32 0xFFFFFFFFFFFFFFFFFFFFFFFFFFFFFFFFFFFFFFFFFFFFFFFFFFFFFFFFFFFFFFFF SUB DUP3 GT ISZERO PUSH2 0x11FB JUMPI PUSH2 0x11FA PUSH2 0x130B JUMP JUMPDEST JUMPDEST DUP3 DUP3 ADD SWAP1 POP SWAP3 SWAP2 POP POP JUMP JUMPDEST PUSH1 0x0 PUSH2 0x1211 DUP3 PUSH2 0x1224 JUMP JUMPDEST SWAP1 POP SWAP2 SWAP1 POP JUMP JUMPDEST PUSH1 0x0 DUP2 ISZERO ISZERO SWAP1 POP SWAP2 SWAP1 POP JUMP JUMPDEST PUSH1 0x0 PUSH20 0xFFFFFFFFFFFFFFFFFFFFFFFFFFFFFFFFFFFFFFFF DUP3 AND SWAP1 POP SWAP2 SWAP1 POP JUMP JUMPDEST PUSH1 0x0 DUP2 SWAP1 POP SWAP2 SWAP1 POP JUMP JUMPDEST DUP3 DUP2 DUP4 CALLDATACOPY PUSH1 0x0 DUP4 DUP4 ADD MSTORE POP POP POP JUMP JUMPDEST PUSH1 0x0 JUMPDEST DUP4 DUP2 LT ISZERO PUSH2 0x127B JUMPI DUP1 DUP3 ADD MLOAD DUP2 DUP5 ADD MSTORE PUSH1 0x20 DUP2 ADD SWAP1 POP PUSH2 0x1260 JUMP JUMPDEST DUP4 DUP2 GT ISZERO PUSH2 0x128A JUMPI PUSH1 0x0 DUP5 DUP5 ADD MSTORE JUMPDEST POP POP POP POP JUMP JUMPDEST PUSH1 0x0 PUSH1 0x2 DUP3 DIV SWAP1 POP PUSH1 0x1 DUP3 AND DUP1 PUSH2 0x12A8 JUMPI PUSH1 0x7F DUP3 AND SWAP2 POP JUMPDEST PUSH1 0x20 DUP3 LT DUP2 EQ ISZERO PUSH2 0x12BC JUMPI PUSH2 0x12BB PUSH2 0x133A JUMP JUMPDEST JUMPDEST POP SWAP2 SWAP1 POP JUMP JUMPDEST PUSH1 0x0 PUSH2 0x12CD DUP3 PUSH2 0x1244 JUMP JUMPDEST SWAP2 POP PUSH32 0xFFFFFFFFFFFFFFFFFFFFFFFFFFFFFFFFFFFFFFFFFFFFFFFFFFFFFFFFFFFFFFFF DUP3 EQ ISZERO PUSH2 0x1300 JUMPI PUSH2 0x12FF PUSH2 0x130B JUMP JUMPDEST JUMPDEST PUSH1 0x1 DUP3 ADD SWAP1 POP SWAP2 SWAP1 POP JUMP JUMPDEST PUSH32 0x4E487B7100000000000000000000000000000000000000000000000000000000 PUSH1 0x0 MSTORE PUSH1 0x11 PUSH1 0x4 MSTORE PUSH1 0x24 PUSH1 0x0 REVERT JUMPDEST PUSH32 0x4E487B7100000000000000000000000000000000000000000000000000000000 PUSH1 0x0 MSTORE PUSH1 0x22 PUSH1 0x4 MSTORE PUSH1 0x24 PUSH1 0x0 REVERT JUMPDEST PUSH32 0x4E487B7100000000000000000000000000000000000000000000000000000000 PUSH1 0x0 MSTORE PUSH1 0x41 PUSH1 0x4 MSTORE PUSH1 0x24 PUSH1 0x0 REVERT JUMPDEST PUSH1 0x0 PUSH1 0x1F NOT PUSH1 0x1F DUP4 ADD AND SWAP1 POP SWAP2 SWAP1 POP JUMP JUMPDEST PUSH2 0x13B2 DUP2 PUSH2 0x1206 JUMP JUMPDEST DUP2 EQ PUSH2 0x13BD JUMPI PUSH1 0x0 DUP1 REVERT JUMPDEST POP JUMP JUMPDEST PUSH2 0x13C9 DUP2 PUSH2 0x1244 JUMP JUMPDEST DUP2 EQ PUSH2 0x13D4 JUMPI PUSH1 0x0 DUP1 REVERT JUMPDEST POP JUMP INVALID LOG2 PUSH5 0x6970667358 0x22 SLT KECCAK256 0x2C 0xC8 DUP11 PUSH2 0xD540 0x26 0xD3 0xE4 JUMP DUP2 LOG4 PUSH6 0x9877BF71088B DUP10 PUSH16 0xBDB412963A34E1A71B66B964736F6C63 NUMBER STOP ADDMOD STOP STOP CALLER "
				},
				"gasEstimates": {
					"creation": {
						"codeDepositCost": "1026600",
						"executionCost": "1067",
						"totalCost": "1027667"
					},
					"external": {
						"createBallot(string[])": "infinite",
						"getEndDate()": "1181",
						"getProposalStructure(uint256)": "infinite",
						"getProposals()": "infinite",
						"getStartDate()": "1160",
						"getStatus()": "1160",
						"getnumOfProposals()": "1205",
						"giveRightToVote(address)": "23408",
						"proposals(uint256)": "infinite",
						"setEndDate()": "20224",
						"setStatus(uint256)": "20509",
						"vote(uint256)": "infinite",
						"voters(address)": "infinite",
						"winnerName()": "infinite",
						"winningProposal()": "infinite"
					},
					"internal": {
						"getCreatorBallot()": "infinite",
						"setStartDate()": "20022"
					}
				},
				"methodIdentifiers": {
					"createBallot(string[])": "836bc692",
					"getEndDate()": "b1356488",
					"getProposalStructure(uint256)": "e9d6c6da",
					"getProposals()": "62564c48",
					"getStartDate()": "78f305c6",
					"getStatus()": "4e69d560",
					"getnumOfProposals()": "0a82dcb1",
					"giveRightToVote(address)": "9e7b8d61",
					"proposals(uint256)": "013cf08b",
					"setEndDate()": "86278e77",
					"setStatus(uint256)": "69ba1a75",
					"vote(uint256)": "0121b93f",
					"voters(address)": "a3ec138d",
					"winnerName()": "e2ba53f0",
					"winningProposal()": "609ff1bd"
				}
			},
			"storageLayout": {
				"storage": [
					{
						"astId": 3,
						"contract": "contracts/prop_test.sol:Ballot",
						"label": "creator",
						"offset": 0,
						"slot": "0",
						"type": "t_address"
					},
					{
						"astId": 5,
						"contract": "contracts/prop_test.sol:Ballot",
						"label": "status",
						"offset": 0,
						"slot": "1",
						"type": "t_uint256"
					},
					{
						"astId": 7,
						"contract": "contracts/prop_test.sol:Ballot",
						"label": "startDate",
						"offset": 0,
						"slot": "2",
						"type": "t_uint256"
					},
					{
						"astId": 9,
						"contract": "contracts/prop_test.sol:Ballot",
						"label": "endDate",
						"offset": 0,
						"slot": "3",
						"type": "t_uint256"
					},
					{
						"astId": 11,
						"contract": "contracts/prop_test.sol:Ballot",
						"label": "numOfProposals",
						"offset": 0,
						"slot": "4",
						"type": "t_uint256"
					},
					{
						"astId": 30,
						"contract": "contracts/prop_test.sol:Ballot",
						"label": "voters",
						"offset": 0,
						"slot": "5",
						"type": "t_mapping(t_address,t_struct(Voter)20_storage)"
					},
					{
						"astId": 34,
						"contract": "contracts/prop_test.sol:Ballot",
						"label": "proposals",
						"offset": 0,
						"slot": "6",
						"type": "t_array(t_struct(Proposal)25_storage)dyn_storage"
					}
				],
				"types": {
					"t_address": {
						"encoding": "inplace",
						"label": "address",
						"numberOfBytes": "20"
					},
					"t_array(t_struct(Proposal)25_storage)dyn_storage": {
						"base": "t_struct(Proposal)25_storage",
						"encoding": "dynamic_array",
						"label": "struct Ballot.Proposal[]",
						"numberOfBytes": "32"
					},
					"t_bool": {
						"encoding": "inplace",
						"label": "bool",
						"numberOfBytes": "1"
					},
					"t_mapping(t_address,t_struct(Voter)20_storage)": {
						"encoding": "mapping",
						"key": "t_address",
						"label": "mapping(address => struct Ballot.Voter)",
						"numberOfBytes": "32",
						"value": "t_struct(Voter)20_storage"
					},
					"t_string_storage": {
						"encoding": "bytes",
						"label": "string",
						"numberOfBytes": "32"
					},
					"t_struct(Proposal)25_storage": {
						"encoding": "inplace",
						"label": "struct Ballot.Proposal",
						"members": [
							{
								"astId": 22,
								"contract": "contracts/prop_test.sol:Ballot",
								"label": "name",
								"offset": 0,
								"slot": "0",
								"type": "t_string_storage"
							},
							{
								"astId": 24,
								"contract": "contracts/prop_test.sol:Ballot",
								"label": "voteCount",
								"offset": 0,
								"slot": "1",
								"type": "t_uint256"
							}
						],
						"numberOfBytes": "64"
					},
					"t_struct(Voter)20_storage": {
						"encoding": "inplace",
						"label": "struct Ballot.Voter",
						"members": [
							{
								"astId": 13,
								"contract": "contracts/prop_test.sol:Ballot",
								"label": "weight",
								"offset": 0,
								"slot": "0",
								"type": "t_uint256"
							},
							{
								"astId": 15,
								"contract": "contracts/prop_test.sol:Ballot",
								"label": "voted",
								"offset": 0,
								"slot": "1",
								"type": "t_bool"
							},
							{
								"astId": 17,
								"contract": "contracts/prop_test.sol:Ballot",
								"label": "delegate",
								"offset": 1,
								"slot": "1",
								"type": "t_address"
							},
							{
								"astId": 19,
								"contract": "contracts/prop_test.sol:Ballot",
								"label": "vote",
								"offset": 0,
								"slot": "2",
								"type": "t_uint256"
							}
						],
						"numberOfBytes": "96"
					},
					"t_uint256": {
						"encoding": "inplace",
						"label": "uint256",
						"numberOfBytes": "32"
					}
				}
			},
			"userdoc": {
				"kind": "user",
				"methods": {},
				"version": 1
			}
		}
	}
}