{
	"contracts/proposal.sol": {
		"TestProposal": {
			"abi": [
				{
					"inputs": [],
					"stateMutability": "nonpayable",
					"type": "constructor"
				},
				{
					"anonymous": false,
					"inputs": [
						{
							"indexed": true,
							"internalType": "uint256",
							"name": "_proposalId",
							"type": "uint256"
						}
					],
					"name": "savingEvent",
					"type": "event"
				},
				{
					"inputs": [
						{
							"internalType": "uint256",
							"name": "_proposalId",
							"type": "uint256"
						},
						{
							"internalType": "uint256",
							"name": "_proposalStatus",
							"type": "uint256"
						},
						{
							"internalType": "address",
							"name": "_proposalCreator",
							"type": "address"
						},
						{
							"internalType": "uint256",
							"name": "_proposalNumOfOptions",
							"type": "uint256"
						}
					],
					"name": "addProposal",
					"outputs": [],
					"stateMutability": "nonpayable",
					"type": "function"
				},
				{
					"inputs": [],
					"name": "proposalCount",
					"outputs": [
						{
							"internalType": "uint256",
							"name": "",
							"type": "uint256"
						}
					],
					"stateMutability": "view",
					"type": "function"
				},
				{
					"inputs": [
						{
							"internalType": "uint256",
							"name": "",
							"type": "uint256"
						}
					],
					"name": "proposals",
					"outputs": [
						{
							"internalType": "uint256",
							"name": "proposalId",
							"type": "uint256"
						},
						{
							"internalType": "uint256",
							"name": "proposalStatus",
							"type": "uint256"
						},
						{
							"internalType": "address",
							"name": "proposalCreator",
							"type": "address"
						},
						{
							"internalType": "uint256",
							"name": "proposalNumOfOptions",
							"type": "uint256"
						}
					],
					"stateMutability": "view",
					"type": "function"
				}
			],
			"devdoc": {
				"methods": {}
			},
			"evm": {
				"assembly": "    /* \"contracts/proposal.sol\":139:1206  contract TestProposal {\r... */\n  mstore(0x40, 0x80)\n    /* \"contracts/proposal.sol\":649:781  constructor() public {\r... */\n  callvalue\n    /* \"--CODEGEN--\":8:17   */\n  dup1\n    /* \"--CODEGEN--\":5:7   */\n  iszero\n  tag_1\n  jumpi\n    /* \"--CODEGEN--\":30:31   */\n  0x00\n    /* \"--CODEGEN--\":27:28   */\n  dup1\n    /* \"--CODEGEN--\":20:32   */\n  revert\n    /* \"--CODEGEN--\":5:7   */\ntag_1:\n    /* \"contracts/proposal.sol\":649:781  constructor() public {\r... */\n  pop\n    /* \"contracts/proposal.sol\":697:698  0 */\n  0x00\n    /* \"contracts/proposal.sol\":681:694  proposalCount */\n  0x01\n    /* \"contracts/proposal.sol\":681:698  proposalCount = 0 */\n  dup2\n  swap1\n  sstore\n  pop\n    /* \"contracts/proposal.sol\":709:773  addProposal(1, 1, 0xB5dea2661dfa4b8f0aaE8Bc1F583369D927c3b06, 3) */\n  tag_4\n    /* \"contracts/proposal.sol\":721:722  1 */\n  0x01\n    /* \"contracts/proposal.sol\":724:725  1 */\n  dup1\n    /* \"contracts/proposal.sol\":727:769  0xB5dea2661dfa4b8f0aaE8Bc1F583369D927c3b06 */\n  0xb5dea2661dfa4b8f0aae8bc1f583369d927c3b06\n    /* \"contracts/proposal.sol\":771:772  3 */\n  0x03\n    /* \"contracts/proposal.sol\":709:720  addProposal */\n  shl(0x20, tag_5)\n    /* \"contracts/proposal.sol\":709:773  addProposal(1, 1, 0xB5dea2661dfa4b8f0aaE8Bc1F583369D927c3b06, 3) */\n  0x20\n  shr\n  jump\t// in\ntag_4:\n    /* \"contracts/proposal.sol\":139:1206  contract TestProposal {\r... */\n  jump(tag_6)\n    /* \"contracts/proposal.sol\":789:1062  function addProposal(uint _proposalId, uint _proposalStatus, address _proposalCreator, uint _proposalNumOfOptions) public {\r... */\ntag_5:\n    /* \"contracts/proposal.sol\":949:1028  Proposal(_proposalId, _proposalStatus, _proposalCreator, _proposalNumOfOptions) */\n  mload(0x40)\n  dup1\n  0x80\n  add\n  0x40\n  mstore\n  dup1\n    /* \"contracts/proposal.sol\":958:969  _proposalId */\n  dup6\n    /* \"contracts/proposal.sol\":949:1028  Proposal(_proposalId, _proposalStatus, _proposalCreator, _proposalNumOfOptions) */\n  dup2\n  mstore\n  0x20\n  add\n    /* \"contracts/proposal.sol\":971:986  _proposalStatus */\n  dup5\n    /* \"contracts/proposal.sol\":949:1028  Proposal(_proposalId, _proposalStatus, _proposalCreator, _proposalNumOfOptions) */\n  dup2\n  mstore\n  0x20\n  add\n    /* \"contracts/proposal.sol\":988:1004  _proposalCreator */\n  dup4\n    /* \"contracts/proposal.sol\":949:1028  Proposal(_proposalId, _proposalStatus, _proposalCreator, _proposalNumOfOptions) */\n  0xffffffffffffffffffffffffffffffffffffffff\n  and\n  dup2\n  mstore\n  0x20\n  add\n    /* \"contracts/proposal.sol\":1006:1027  _proposalNumOfOptions */\n  dup3\n    /* \"contracts/proposal.sol\":949:1028  Proposal(_proposalId, _proposalStatus, _proposalCreator, _proposalNumOfOptions) */\n  dup2\n  mstore\n  pop\n    /* \"contracts/proposal.sol\":922:931  proposals */\n  0x00\n    /* \"contracts/proposal.sol\":922:946  proposals[proposalCount] */\n  dup1\n    /* \"contracts/proposal.sol\":932:945  proposalCount */\n  sload(0x01)\n    /* \"contracts/proposal.sol\":922:946  proposals[proposalCount] */\n  dup2\n  mstore\n  0x20\n  add\n  swap1\n  dup2\n  mstore\n  0x20\n  add\n  0x00\n  keccak256\n    /* \"contracts/proposal.sol\":922:1028  proposals[proposalCount] = Proposal(_proposalId, _proposalStatus, _proposalCreator, _proposalNumOfOptions) */\n  0x00\n  dup3\n  add\n  mload\n  dup2\n  0x00\n  add\n  sstore\n  0x20\n  dup3\n  add\n  mload\n  dup2\n  0x01\n  add\n  sstore\n  0x40\n  dup3\n  add\n  mload\n  dup2\n  0x02\n  add\n  exp(0x0100, 0x00)\n  dup2\n  sload\n  dup2\n  0xffffffffffffffffffffffffffffffffffffffff\n  mul\n  not\n  and\n  swap1\n  dup4\n  0xffffffffffffffffffffffffffffffffffffffff\n  and\n  mul\n  or\n  swap1\n  sstore\n  pop\n  0x60\n  dup3\n  add\n  mload\n  dup2\n  0x03\n  add\n  sstore\n  swap1\n  pop\n  pop\n    /* \"contracts/proposal.sol\":1039:1052  proposalCount */\n  0x01\n  0x00\n    /* \"contracts/proposal.sol\":1039:1054  proposalCount++ */\n  dup2\n  sload\n  dup1\n  swap3\n  swap2\n  swap1\n  0x01\n  add\n  swap2\n  swap1\n  pop\n  sstore\n  pop\n    /* \"contracts/proposal.sol\":789:1062  function addProposal(uint _proposalId, uint _proposalStatus, address _proposalCreator, uint _proposalNumOfOptions) public {\r... */\n  pop\n  pop\n  pop\n  pop\n  jump\t// out\n    /* \"contracts/proposal.sol\":139:1206  contract TestProposal {\r... */\ntag_6:\n  dataSize(sub_0)\n  dup1\n  dataOffset(sub_0)\n  0x00\n  codecopy\n  0x00\n  return\nstop\n\nsub_0: assembly {\n        /* \"contracts/proposal.sol\":139:1206  contract TestProposal {\r... */\n      mstore(0x40, 0x80)\n      callvalue\n        /* \"--CODEGEN--\":8:17   */\n      dup1\n        /* \"--CODEGEN--\":5:7   */\n      iszero\n      tag_1\n      jumpi\n        /* \"--CODEGEN--\":30:31   */\n      0x00\n        /* \"--CODEGEN--\":27:28   */\n      dup1\n        /* \"--CODEGEN--\":20:32   */\n      revert\n        /* \"--CODEGEN--\":5:7   */\n    tag_1:\n        /* \"contracts/proposal.sol\":139:1206  contract TestProposal {\r... */\n      pop\n      jumpi(tag_2, lt(calldatasize, 0x04))\n      shr(0xe0, calldataload(0x00))\n      dup1\n      0x013cf08b\n      eq\n      tag_3\n      jumpi\n      dup1\n      0xcae455ee\n      eq\n      tag_4\n      jumpi\n      dup1\n      0xda35c664\n      eq\n      tag_5\n      jumpi\n    tag_2:\n      0x00\n      dup1\n      revert\n        /* \"contracts/proposal.sol\":515:558  mapping (uint => Proposal) public proposals */\n    tag_3:\n      tag_6\n      0x04\n      dup1\n      calldatasize\n      sub\n      tag_7\n      swap2\n      swap1\n      dup2\n      add\n      swap1\n      jump(tag_8)\n    tag_7:\n      tag_9\n      jump\t// in\n    tag_6:\n      mload(0x40)\n      tag_10\n      swap5\n      swap4\n      swap3\n      swap2\n      swap1\n      jump(tag_11)\n    tag_10:\n      mload(0x40)\n      dup1\n      swap2\n      sub\n      swap1\n      return\n        /* \"contracts/proposal.sol\":789:1062  function addProposal(uint _proposalId, uint _proposalStatus, address _proposalCreator, uint _proposalNumOfOptions) public {\r... */\n    tag_4:\n      tag_12\n      0x04\n      dup1\n      calldatasize\n      sub\n      tag_13\n      swap2\n      swap1\n      dup2\n      add\n      swap1\n      jump(tag_14)\n    tag_13:\n      tag_15\n      jump\t// in\n    tag_12:\n      stop\n        /* \"contracts/proposal.sol\":615:640  uint public proposalCount */\n    tag_5:\n      tag_16\n      tag_17\n      jump\t// in\n    tag_16:\n      mload(0x40)\n      tag_18\n      swap2\n      swap1\n      jump(tag_19)\n    tag_18:\n      mload(0x40)\n      dup1\n      swap2\n      sub\n      swap1\n      return\n        /* \"contracts/proposal.sol\":515:558  mapping (uint => Proposal) public proposals */\n    tag_9:\n      mstore(0x20, 0x00)\n      dup1\n      0x00\n      mstore\n      keccak256(0x00, 0x40)\n      0x00\n      swap2\n      pop\n      swap1\n      pop\n      dup1\n      0x00\n      add\n      sload\n      swap1\n      dup1\n      0x01\n      add\n      sload\n      swap1\n      dup1\n      0x02\n      add\n      0x00\n      swap1\n      sload\n      swap1\n      0x0100\n      exp\n      swap1\n      div\n      0xffffffffffffffffffffffffffffffffffffffff\n      and\n      swap1\n      dup1\n      0x03\n      add\n      sload\n      swap1\n      pop\n      dup5\n      jump\t// out\n        /* \"contracts/proposal.sol\":789:1062  function addProposal(uint _proposalId, uint _proposalStatus, address _proposalCreator, uint _proposalNumOfOptions) public {\r... */\n    tag_15:\n        /* \"contracts/proposal.sol\":949:1028  Proposal(_proposalId, _proposalStatus, _proposalCreator, _proposalNumOfOptions) */\n      mload(0x40)\n      dup1\n      0x80\n      add\n      0x40\n      mstore\n      dup1\n        /* \"contracts/proposal.sol\":958:969  _proposalId */\n      dup6\n        /* \"contracts/proposal.sol\":949:1028  Proposal(_proposalId, _proposalStatus, _proposalCreator, _proposalNumOfOptions) */\n      dup2\n      mstore\n      0x20\n      add\n        /* \"contracts/proposal.sol\":971:986  _proposalStatus */\n      dup5\n        /* \"contracts/proposal.sol\":949:1028  Proposal(_proposalId, _proposalStatus, _proposalCreator, _proposalNumOfOptions) */\n      dup2\n      mstore\n      0x20\n      add\n        /* \"contracts/proposal.sol\":988:1004  _proposalCreator */\n      dup4\n        /* \"contracts/proposal.sol\":949:1028  Proposal(_proposalId, _proposalStatus, _proposalCreator, _proposalNumOfOptions) */\n      0xffffffffffffffffffffffffffffffffffffffff\n      and\n      dup2\n      mstore\n      0x20\n      add\n        /* \"contracts/proposal.sol\":1006:1027  _proposalNumOfOptions */\n      dup3\n        /* \"contracts/proposal.sol\":949:1028  Proposal(_proposalId, _proposalStatus, _proposalCreator, _proposalNumOfOptions) */\n      dup2\n      mstore\n      pop\n        /* \"contracts/proposal.sol\":922:931  proposals */\n      0x00\n        /* \"contracts/proposal.sol\":922:946  proposals[proposalCount] */\n      dup1\n        /* \"contracts/proposal.sol\":932:945  proposalCount */\n      sload(0x01)\n        /* \"contracts/proposal.sol\":922:946  proposals[proposalCount] */\n      dup2\n      mstore\n      0x20\n      add\n      swap1\n      dup2\n      mstore\n      0x20\n      add\n      0x00\n      keccak256\n        /* \"contracts/proposal.sol\":922:1028  proposals[proposalCount] = Proposal(_proposalId, _proposalStatus, _proposalCreator, _proposalNumOfOptions) */\n      0x00\n      dup3\n      add\n      mload\n      dup2\n      0x00\n      add\n      sstore\n      0x20\n      dup3\n      add\n      mload\n      dup2\n      0x01\n      add\n      sstore\n      0x40\n      dup3\n      add\n      mload\n      dup2\n      0x02\n      add\n      exp(0x0100, 0x00)\n      dup2\n      sload\n      dup2\n      0xffffffffffffffffffffffffffffffffffffffff\n      mul\n      not\n      and\n      swap1\n      dup4\n      0xffffffffffffffffffffffffffffffffffffffff\n      and\n      mul\n      or\n      swap1\n      sstore\n      pop\n      0x60\n      dup3\n      add\n      mload\n      dup2\n      0x03\n      add\n      sstore\n      swap1\n      pop\n      pop\n        /* \"contracts/proposal.sol\":1039:1052  proposalCount */\n      0x01\n      0x00\n        /* \"contracts/proposal.sol\":1039:1054  proposalCount++ */\n      dup2\n      sload\n      dup1\n      swap3\n      swap2\n      swap1\n      0x01\n      add\n      swap2\n      swap1\n      pop\n      sstore\n      pop\n        /* \"contracts/proposal.sol\":789:1062  function addProposal(uint _proposalId, uint _proposalStatus, address _proposalCreator, uint _proposalNumOfOptions) public {\r... */\n      pop\n      pop\n      pop\n      pop\n      jump\t// out\n        /* \"contracts/proposal.sol\":615:640  uint public proposalCount */\n    tag_17:\n      sload(0x01)\n      dup2\n      jump\t// out\n        /* \"--CODEGEN--\":5:135   */\n    tag_22:\n      0x00\n        /* \"--CODEGEN--\":85:91   */\n      dup2\n        /* \"--CODEGEN--\":72:92   */\n      calldataload\n        /* \"--CODEGEN--\":63:92   */\n      swap1\n      pop\n        /* \"--CODEGEN--\":97:130   */\n      tag_24\n        /* \"--CODEGEN--\":124:129   */\n      dup2\n        /* \"--CODEGEN--\":97:130   */\n      jump(tag_25)\n    tag_24:\n        /* \"--CODEGEN--\":57:135   */\n      swap3\n      swap2\n      pop\n      pop\n      jump\n        /* \"--CODEGEN--\":142:272   */\n    tag_26:\n      0x00\n        /* \"--CODEGEN--\":222:228   */\n      dup2\n        /* \"--CODEGEN--\":209:229   */\n      calldataload\n        /* \"--CODEGEN--\":200:229   */\n      swap1\n      pop\n        /* \"--CODEGEN--\":234:267   */\n      tag_28\n        /* \"--CODEGEN--\":261:266   */\n      dup2\n        /* \"--CODEGEN--\":234:267   */\n      jump(tag_29)\n    tag_28:\n        /* \"--CODEGEN--\":194:272   */\n      swap3\n      swap2\n      pop\n      pop\n      jump\n        /* \"--CODEGEN--\":279:520   */\n    tag_8:\n      0x00\n        /* \"--CODEGEN--\":383:385   */\n      0x20\n        /* \"--CODEGEN--\":371:380   */\n      dup3\n        /* \"--CODEGEN--\":362:369   */\n      dup5\n        /* \"--CODEGEN--\":358:381   */\n      sub\n        /* \"--CODEGEN--\":354:386   */\n      slt\n        /* \"--CODEGEN--\":351:353   */\n      iszero\n      tag_31\n      jumpi\n        /* \"--CODEGEN--\":399:400   */\n      0x00\n        /* \"--CODEGEN--\":396:397   */\n      dup1\n        /* \"--CODEGEN--\":389:401   */\n      revert\n        /* \"--CODEGEN--\":351:353   */\n    tag_31:\n        /* \"--CODEGEN--\":434:435   */\n      0x00\n        /* \"--CODEGEN--\":451:504   */\n      tag_32\n        /* \"--CODEGEN--\":496:503   */\n      dup5\n        /* \"--CODEGEN--\":487:493   */\n      dup3\n        /* \"--CODEGEN--\":476:485   */\n      dup6\n        /* \"--CODEGEN--\":472:494   */\n      add\n        /* \"--CODEGEN--\":451:504   */\n      jump(tag_26)\n    tag_32:\n        /* \"--CODEGEN--\":441:504   */\n      swap2\n      pop\n        /* \"--CODEGEN--\":413:510   */\n      pop\n        /* \"--CODEGEN--\":345:520   */\n      swap3\n      swap2\n      pop\n      pop\n      jump\n        /* \"--CODEGEN--\":527:1144   */\n    tag_14:\n      0x00\n      dup1\n      0x00\n      dup1\n        /* \"--CODEGEN--\":682:685   */\n      0x80\n        /* \"--CODEGEN--\":670:679   */\n      dup6\n        /* \"--CODEGEN--\":661:668   */\n      dup8\n        /* \"--CODEGEN--\":657:680   */\n      sub\n        /* \"--CODEGEN--\":653:686   */\n      slt\n        /* \"--CODEGEN--\":650:652   */\n      iszero\n      tag_34\n      jumpi\n        /* \"--CODEGEN--\":699:700   */\n      0x00\n        /* \"--CODEGEN--\":696:697   */\n      dup1\n        /* \"--CODEGEN--\":689:701   */\n      revert\n        /* \"--CODEGEN--\":650:652   */\n    tag_34:\n        /* \"--CODEGEN--\":734:735   */\n      0x00\n        /* \"--CODEGEN--\":751:804   */\n      tag_35\n        /* \"--CODEGEN--\":796:803   */\n      dup8\n        /* \"--CODEGEN--\":787:793   */\n      dup3\n        /* \"--CODEGEN--\":776:785   */\n      dup9\n        /* \"--CODEGEN--\":772:794   */\n      add\n        /* \"--CODEGEN--\":751:804   */\n      jump(tag_26)\n    tag_35:\n        /* \"--CODEGEN--\":741:804   */\n      swap5\n      pop\n        /* \"--CODEGEN--\":713:810   */\n      pop\n        /* \"--CODEGEN--\":841:843   */\n      0x20\n        /* \"--CODEGEN--\":859:912   */\n      tag_36\n        /* \"--CODEGEN--\":904:911   */\n      dup8\n        /* \"--CODEGEN--\":895:901   */\n      dup3\n        /* \"--CODEGEN--\":884:893   */\n      dup9\n        /* \"--CODEGEN--\":880:902   */\n      add\n        /* \"--CODEGEN--\":859:912   */\n      jump(tag_26)\n    tag_36:\n        /* \"--CODEGEN--\":849:912   */\n      swap4\n      pop\n        /* \"--CODEGEN--\":820:918   */\n      pop\n        /* \"--CODEGEN--\":949:951   */\n      0x40\n        /* \"--CODEGEN--\":967:1020   */\n      tag_37\n        /* \"--CODEGEN--\":1012:1019   */\n      dup8\n        /* \"--CODEGEN--\":1003:1009   */\n      dup3\n        /* \"--CODEGEN--\":992:1001   */\n      dup9\n        /* \"--CODEGEN--\":988:1010   */\n      add\n        /* \"--CODEGEN--\":967:1020   */\n      jump(tag_22)\n    tag_37:\n        /* \"--CODEGEN--\":957:1020   */\n      swap3\n      pop\n        /* \"--CODEGEN--\":928:1026   */\n      pop\n        /* \"--CODEGEN--\":1057:1059   */\n      0x60\n        /* \"--CODEGEN--\":1075:1128   */\n      tag_38\n        /* \"--CODEGEN--\":1120:1127   */\n      dup8\n        /* \"--CODEGEN--\":1111:1117   */\n      dup3\n        /* \"--CODEGEN--\":1100:1109   */\n      dup9\n        /* \"--CODEGEN--\":1096:1118   */\n      add\n        /* \"--CODEGEN--\":1075:1128   */\n      jump(tag_26)\n    tag_38:\n        /* \"--CODEGEN--\":1065:1128   */\n      swap2\n      pop\n        /* \"--CODEGEN--\":1036:1134   */\n      pop\n        /* \"--CODEGEN--\":644:1144   */\n      swap3\n      swap6\n      swap2\n      swap5\n      pop\n      swap3\n      pop\n      jump\n        /* \"--CODEGEN--\":1151:1264   */\n    tag_39:\n        /* \"--CODEGEN--\":1234:1258   */\n      tag_41\n        /* \"--CODEGEN--\":1252:1257   */\n      dup2\n        /* \"--CODEGEN--\":1234:1258   */\n      jump(tag_42)\n    tag_41:\n        /* \"--CODEGEN--\":1229:1232   */\n      dup3\n        /* \"--CODEGEN--\":1222:1259   */\n      mstore\n        /* \"--CODEGEN--\":1216:1264   */\n      pop\n      pop\n      jump\n        /* \"--CODEGEN--\":1271:1384   */\n    tag_43:\n        /* \"--CODEGEN--\":1354:1378   */\n      tag_45\n        /* \"--CODEGEN--\":1372:1377   */\n      dup2\n        /* \"--CODEGEN--\":1354:1378   */\n      jump(tag_46)\n    tag_45:\n        /* \"--CODEGEN--\":1349:1352   */\n      dup3\n        /* \"--CODEGEN--\":1342:1379   */\n      mstore\n        /* \"--CODEGEN--\":1336:1384   */\n      pop\n      pop\n      jump\n        /* \"--CODEGEN--\":1391:1604   */\n    tag_19:\n      0x00\n        /* \"--CODEGEN--\":1509:1511   */\n      0x20\n        /* \"--CODEGEN--\":1498:1507   */\n      dup3\n        /* \"--CODEGEN--\":1494:1512   */\n      add\n        /* \"--CODEGEN--\":1486:1512   */\n      swap1\n      pop\n        /* \"--CODEGEN--\":1523:1594   */\n      tag_48\n        /* \"--CODEGEN--\":1591:1592   */\n      0x00\n        /* \"--CODEGEN--\":1580:1589   */\n      dup4\n        /* \"--CODEGEN--\":1576:1593   */\n      add\n        /* \"--CODEGEN--\":1567:1573   */\n      dup5\n        /* \"--CODEGEN--\":1523:1594   */\n      jump(tag_43)\n    tag_48:\n        /* \"--CODEGEN--\":1480:1604   */\n      swap3\n      swap2\n      pop\n      pop\n      jump\n        /* \"--CODEGEN--\":1611:2158   */\n    tag_11:\n      0x00\n        /* \"--CODEGEN--\":1813:1816   */\n      0x80\n        /* \"--CODEGEN--\":1802:1811   */\n      dup3\n        /* \"--CODEGEN--\":1798:1817   */\n      add\n        /* \"--CODEGEN--\":1790:1817   */\n      swap1\n      pop\n        /* \"--CODEGEN--\":1828:1899   */\n      tag_50\n        /* \"--CODEGEN--\":1896:1897   */\n      0x00\n        /* \"--CODEGEN--\":1885:1894   */\n      dup4\n        /* \"--CODEGEN--\":1881:1898   */\n      add\n        /* \"--CODEGEN--\":1872:1878   */\n      dup8\n        /* \"--CODEGEN--\":1828:1899   */\n      jump(tag_43)\n    tag_50:\n        /* \"--CODEGEN--\":1910:1982   */\n      tag_51\n        /* \"--CODEGEN--\":1978:1980   */\n      0x20\n        /* \"--CODEGEN--\":1967:1976   */\n      dup4\n        /* \"--CODEGEN--\":1963:1981   */\n      add\n        /* \"--CODEGEN--\":1954:1960   */\n      dup7\n        /* \"--CODEGEN--\":1910:1982   */\n      jump(tag_43)\n    tag_51:\n        /* \"--CODEGEN--\":1993:2065   */\n      tag_52\n        /* \"--CODEGEN--\":2061:2063   */\n      0x40\n        /* \"--CODEGEN--\":2050:2059   */\n      dup4\n        /* \"--CODEGEN--\":2046:2064   */\n      add\n        /* \"--CODEGEN--\":2037:2043   */\n      dup6\n        /* \"--CODEGEN--\":1993:2065   */\n      jump(tag_39)\n    tag_52:\n        /* \"--CODEGEN--\":2076:2148   */\n      tag_53\n        /* \"--CODEGEN--\":2144:2146   */\n      0x60\n        /* \"--CODEGEN--\":2133:2142   */\n      dup4\n        /* \"--CODEGEN--\":2129:2147   */\n      add\n        /* \"--CODEGEN--\":2120:2126   */\n      dup5\n        /* \"--CODEGEN--\":2076:2148   */\n      jump(tag_43)\n    tag_53:\n        /* \"--CODEGEN--\":1784:2158   */\n      swap6\n      swap5\n      pop\n      pop\n      pop\n      pop\n      pop\n      jump\n        /* \"--CODEGEN--\":2165:2256   */\n    tag_42:\n      0x00\n        /* \"--CODEGEN--\":2227:2251   */\n      tag_55\n        /* \"--CODEGEN--\":2245:2250   */\n      dup3\n        /* \"--CODEGEN--\":2227:2251   */\n      jump(tag_56)\n    tag_55:\n        /* \"--CODEGEN--\":2216:2251   */\n      swap1\n      pop\n        /* \"--CODEGEN--\":2210:2256   */\n      swap2\n      swap1\n      pop\n      jump\n        /* \"--CODEGEN--\":2263:2384   */\n    tag_56:\n      0x00\n        /* \"--CODEGEN--\":2336:2378   */\n      0xffffffffffffffffffffffffffffffffffffffff\n        /* \"--CODEGEN--\":2329:2334   */\n      dup3\n        /* \"--CODEGEN--\":2325:2379   */\n      and\n        /* \"--CODEGEN--\":2314:2379   */\n      swap1\n      pop\n        /* \"--CODEGEN--\":2308:2384   */\n      swap2\n      swap1\n      pop\n      jump\n        /* \"--CODEGEN--\":2391:2463   */\n    tag_46:\n      0x00\n        /* \"--CODEGEN--\":2453:2458   */\n      dup2\n        /* \"--CODEGEN--\":2442:2458   */\n      swap1\n      pop\n        /* \"--CODEGEN--\":2436:2463   */\n      swap2\n      swap1\n      pop\n      jump\n        /* \"--CODEGEN--\":2470:2587   */\n    tag_25:\n        /* \"--CODEGEN--\":2539:2563   */\n      tag_60\n        /* \"--CODEGEN--\":2557:2562   */\n      dup2\n        /* \"--CODEGEN--\":2539:2563   */\n      jump(tag_42)\n    tag_60:\n        /* \"--CODEGEN--\":2532:2537   */\n      dup2\n        /* \"--CODEGEN--\":2529:2564   */\n      eq\n        /* \"--CODEGEN--\":2519:2521   */\n      tag_61\n      jumpi\n        /* \"--CODEGEN--\":2578:2579   */\n      0x00\n        /* \"--CODEGEN--\":2575:2576   */\n      dup1\n        /* \"--CODEGEN--\":2568:2580   */\n      revert\n        /* \"--CODEGEN--\":2519:2521   */\n    tag_61:\n        /* \"--CODEGEN--\":2513:2587   */\n      pop\n      jump\n        /* \"--CODEGEN--\":2594:2711   */\n    tag_29:\n        /* \"--CODEGEN--\":2663:2687   */\n      tag_63\n        /* \"--CODEGEN--\":2681:2686   */\n      dup2\n        /* \"--CODEGEN--\":2663:2687   */\n      jump(tag_46)\n    tag_63:\n        /* \"--CODEGEN--\":2656:2661   */\n      dup2\n        /* \"--CODEGEN--\":2653:2688   */\n      eq\n        /* \"--CODEGEN--\":2643:2645   */\n      tag_64\n      jumpi\n        /* \"--CODEGEN--\":2702:2703   */\n      0x00\n        /* \"--CODEGEN--\":2699:2700   */\n      dup1\n        /* \"--CODEGEN--\":2692:2704   */\n      revert\n        /* \"--CODEGEN--\":2643:2645   */\n    tag_64:\n        /* \"--CODEGEN--\":2637:2711   */\n      pop\n      jump\n\n    auxdata: 0xa26469706673582212202b25b13e70e8e280d91f03f6b0b4fb6cdeed18550aadd0911d9c60afd0023af164736f6c63430006000033\n}\n",
				"bytecode": {
					"linkReferences": {},
					"object": "608060405234801561001057600080fd5b50600060018190555061004160018073b5dea2661dfa4b8f0aae8bc1f583369d927c3b06600361004660201b60201c565b610111565b60405180608001604052808581526020018481526020018373ffffffffffffffffffffffffffffffffffffffff168152602001828152506000806001548152602001908152602001600020600082015181600001556020820151816001015560408201518160020160006101000a81548173ffffffffffffffffffffffffffffffffffffffff021916908373ffffffffffffffffffffffffffffffffffffffff1602179055506060820151816003015590505060016000815480929190600101919050555050505050565b6103a8806101206000396000f3fe608060405234801561001057600080fd5b50600436106100415760003560e01c8063013cf08b14610046578063cae455ee14610079578063da35c66414610095575b600080fd5b610060600480360361005b91908101906101fe565b6100b3565b60405161007094939291906102c3565b60405180910390f35b610093600480360361008e9190810190610227565b610103565b005b61009d6101ce565b6040516100aa91906102a8565b60405180910390f35b60006020528060005260406000206000915090508060000154908060010154908060020160009054906101000a900473ffffffffffffffffffffffffffffffffffffffff16908060030154905084565b60405180608001604052808581526020018481526020018373ffffffffffffffffffffffffffffffffffffffff168152602001828152506000806001548152602001908152602001600020600082015181600001556020820151816001015560408201518160020160006101000a81548173ffffffffffffffffffffffffffffffffffffffff021916908373ffffffffffffffffffffffffffffffffffffffff1602179055506060820151816003015590505060016000815480929190600101919050555050505050565b60015481565b6000813590506101e381610344565b92915050565b6000813590506101f88161035b565b92915050565b60006020828403121561021057600080fd5b600061021e848285016101e9565b91505092915050565b6000806000806080858703121561023d57600080fd5b600061024b878288016101e9565b945050602061025c878288016101e9565b935050604061026d878288016101d4565b925050606061027e878288016101e9565b91505092959194509250565b61029381610308565b82525050565b6102a28161033a565b82525050565b60006020820190506102bd6000830184610299565b92915050565b60006080820190506102d86000830187610299565b6102e56020830186610299565b6102f2604083018561028a565b6102ff6060830184610299565b95945050505050565b60006103138261031a565b9050919050565b600073ffffffffffffffffffffffffffffffffffffffff82169050919050565b6000819050919050565b61034d81610308565b811461035857600080fd5b50565b6103648161033a565b811461036f57600080fd5b5056fea26469706673582212202b25b13e70e8e280d91f03f6b0b4fb6cdeed18550aadd0911d9c60afd0023af164736f6c63430006000033",
					"opcodes": "PUSH1 0x80 PUSH1 0x40 MSTORE CALLVALUE DUP1 ISZERO PUSH2 0x10 JUMPI PUSH1 0x0 DUP1 REVERT JUMPDEST POP PUSH1 0x0 PUSH1 0x1 DUP2 SWAP1 SSTORE POP PUSH2 0x41 PUSH1 0x1 DUP1 PUSH20 0xB5DEA2661DFA4B8F0AAE8BC1F583369D927C3B06 PUSH1 0x3 PUSH2 0x46 PUSH1 0x20 SHL PUSH1 0x20 SHR JUMP JUMPDEST PUSH2 0x111 JUMP JUMPDEST PUSH1 0x40 MLOAD DUP1 PUSH1 0x80 ADD PUSH1 0x40 MSTORE DUP1 DUP6 DUP2 MSTORE PUSH1 0x20 ADD DUP5 DUP2 MSTORE PUSH1 0x20 ADD DUP4 PUSH20 0xFFFFFFFFFFFFFFFFFFFFFFFFFFFFFFFFFFFFFFFF AND DUP2 MSTORE PUSH1 0x20 ADD DUP3 DUP2 MSTORE POP PUSH1 0x0 DUP1 PUSH1 0x1 SLOAD DUP2 MSTORE PUSH1 0x20 ADD SWAP1 DUP2 MSTORE PUSH1 0x20 ADD PUSH1 0x0 KECCAK256 PUSH1 0x0 DUP3 ADD MLOAD DUP2 PUSH1 0x0 ADD SSTORE PUSH1 0x20 DUP3 ADD MLOAD DUP2 PUSH1 0x1 ADD SSTORE PUSH1 0x40 DUP3 ADD MLOAD DUP2 PUSH1 0x2 ADD PUSH1 0x0 PUSH2 0x100 EXP DUP2 SLOAD DUP2 PUSH20 0xFFFFFFFFFFFFFFFFFFFFFFFFFFFFFFFFFFFFFFFF MUL NOT AND SWAP1 DUP4 PUSH20 0xFFFFFFFFFFFFFFFFFFFFFFFFFFFFFFFFFFFFFFFF AND MUL OR SWAP1 SSTORE POP PUSH1 0x60 DUP3 ADD MLOAD DUP2 PUSH1 0x3 ADD SSTORE SWAP1 POP POP PUSH1 0x1 PUSH1 0x0 DUP2 SLOAD DUP1 SWAP3 SWAP2 SWAP1 PUSH1 0x1 ADD SWAP2 SWAP1 POP SSTORE POP POP POP POP POP JUMP JUMPDEST PUSH2 0x3A8 DUP1 PUSH2 0x120 PUSH1 0x0 CODECOPY PUSH1 0x0 RETURN INVALID PUSH1 0x80 PUSH1 0x40 MSTORE CALLVALUE DUP1 ISZERO PUSH2 0x10 JUMPI PUSH1 0x0 DUP1 REVERT JUMPDEST POP PUSH1 0x4 CALLDATASIZE LT PUSH2 0x41 JUMPI PUSH1 0x0 CALLDATALOAD PUSH1 0xE0 SHR DUP1 PUSH4 0x13CF08B EQ PUSH2 0x46 JUMPI DUP1 PUSH4 0xCAE455EE EQ PUSH2 0x79 JUMPI DUP1 PUSH4 0xDA35C664 EQ PUSH2 0x95 JUMPI JUMPDEST PUSH1 0x0 DUP1 REVERT JUMPDEST PUSH2 0x60 PUSH1 0x4 DUP1 CALLDATASIZE SUB PUSH2 0x5B SWAP2 SWAP1 DUP2 ADD SWAP1 PUSH2 0x1FE JUMP JUMPDEST PUSH2 0xB3 JUMP JUMPDEST PUSH1 0x40 MLOAD PUSH2 0x70 SWAP5 SWAP4 SWAP3 SWAP2 SWAP1 PUSH2 0x2C3 JUMP JUMPDEST PUSH1 0x40 MLOAD DUP1 SWAP2 SUB SWAP1 RETURN JUMPDEST PUSH2 0x93 PUSH1 0x4 DUP1 CALLDATASIZE SUB PUSH2 0x8E SWAP2 SWAP1 DUP2 ADD SWAP1 PUSH2 0x227 JUMP JUMPDEST PUSH2 0x103 JUMP JUMPDEST STOP JUMPDEST PUSH2 0x9D PUSH2 0x1CE JUMP JUMPDEST PUSH1 0x40 MLOAD PUSH2 0xAA SWAP2 SWAP1 PUSH2 0x2A8 JUMP JUMPDEST PUSH1 0x40 MLOAD DUP1 SWAP2 SUB SWAP1 RETURN JUMPDEST PUSH1 0x0 PUSH1 0x20 MSTORE DUP1 PUSH1 0x0 MSTORE PUSH1 0x40 PUSH1 0x0 KECCAK256 PUSH1 0x0 SWAP2 POP SWAP1 POP DUP1 PUSH1 0x0 ADD SLOAD SWAP1 DUP1 PUSH1 0x1 ADD SLOAD SWAP1 DUP1 PUSH1 0x2 ADD PUSH1 0x0 SWAP1 SLOAD SWAP1 PUSH2 0x100 EXP SWAP1 DIV PUSH20 0xFFFFFFFFFFFFFFFFFFFFFFFFFFFFFFFFFFFFFFFF AND SWAP1 DUP1 PUSH1 0x3 ADD SLOAD SWAP1 POP DUP5 JUMP JUMPDEST PUSH1 0x40 MLOAD DUP1 PUSH1 0x80 ADD PUSH1 0x40 MSTORE DUP1 DUP6 DUP2 MSTORE PUSH1 0x20 ADD DUP5 DUP2 MSTORE PUSH1 0x20 ADD DUP4 PUSH20 0xFFFFFFFFFFFFFFFFFFFFFFFFFFFFFFFFFFFFFFFF AND DUP2 MSTORE PUSH1 0x20 ADD DUP3 DUP2 MSTORE POP PUSH1 0x0 DUP1 PUSH1 0x1 SLOAD DUP2 MSTORE PUSH1 0x20 ADD SWAP1 DUP2 MSTORE PUSH1 0x20 ADD PUSH1 0x0 KECCAK256 PUSH1 0x0 DUP3 ADD MLOAD DUP2 PUSH1 0x0 ADD SSTORE PUSH1 0x20 DUP3 ADD MLOAD DUP2 PUSH1 0x1 ADD SSTORE PUSH1 0x40 DUP3 ADD MLOAD DUP2 PUSH1 0x2 ADD PUSH1 0x0 PUSH2 0x100 EXP DUP2 SLOAD DUP2 PUSH20 0xFFFFFFFFFFFFFFFFFFFFFFFFFFFFFFFFFFFFFFFF MUL NOT AND SWAP1 DUP4 PUSH20 0xFFFFFFFFFFFFFFFFFFFFFFFFFFFFFFFFFFFFFFFF AND MUL OR SWAP1 SSTORE POP PUSH1 0x60 DUP3 ADD MLOAD DUP2 PUSH1 0x3 ADD SSTORE SWAP1 POP POP PUSH1 0x1 PUSH1 0x0 DUP2 SLOAD DUP1 SWAP3 SWAP2 SWAP1 PUSH1 0x1 ADD SWAP2 SWAP1 POP SSTORE POP POP POP POP POP JUMP JUMPDEST PUSH1 0x1 SLOAD DUP2 JUMP JUMPDEST PUSH1 0x0 DUP2 CALLDATALOAD SWAP1 POP PUSH2 0x1E3 DUP2 PUSH2 0x344 JUMP JUMPDEST SWAP3 SWAP2 POP POP JUMP JUMPDEST PUSH1 0x0 DUP2 CALLDATALOAD SWAP1 POP PUSH2 0x1F8 DUP2 PUSH2 0x35B JUMP JUMPDEST SWAP3 SWAP2 POP POP JUMP JUMPDEST PUSH1 0x0 PUSH1 0x20 DUP3 DUP5 SUB SLT ISZERO PUSH2 0x210 JUMPI PUSH1 0x0 DUP1 REVERT JUMPDEST PUSH1 0x0 PUSH2 0x21E DUP5 DUP3 DUP6 ADD PUSH2 0x1E9 JUMP JUMPDEST SWAP2 POP POP SWAP3 SWAP2 POP POP JUMP JUMPDEST PUSH1 0x0 DUP1 PUSH1 0x0 DUP1 PUSH1 0x80 DUP6 DUP8 SUB SLT ISZERO PUSH2 0x23D JUMPI PUSH1 0x0 DUP1 REVERT JUMPDEST PUSH1 0x0 PUSH2 0x24B DUP8 DUP3 DUP9 ADD PUSH2 0x1E9 JUMP JUMPDEST SWAP5 POP POP PUSH1 0x20 PUSH2 0x25C DUP8 DUP3 DUP9 ADD PUSH2 0x1E9 JUMP JUMPDEST SWAP4 POP POP PUSH1 0x40 PUSH2 0x26D DUP8 DUP3 DUP9 ADD PUSH2 0x1D4 JUMP JUMPDEST SWAP3 POP POP PUSH1 0x60 PUSH2 0x27E DUP8 DUP3 DUP9 ADD PUSH2 0x1E9 JUMP JUMPDEST SWAP2 POP POP SWAP3 SWAP6 SWAP2 SWAP5 POP SWAP3 POP JUMP JUMPDEST PUSH2 0x293 DUP2 PUSH2 0x308 JUMP JUMPDEST DUP3 MSTORE POP POP JUMP JUMPDEST PUSH2 0x2A2 DUP2 PUSH2 0x33A JUMP JUMPDEST DUP3 MSTORE POP POP JUMP JUMPDEST PUSH1 0x0 PUSH1 0x20 DUP3 ADD SWAP1 POP PUSH2 0x2BD PUSH1 0x0 DUP4 ADD DUP5 PUSH2 0x299 JUMP JUMPDEST SWAP3 SWAP2 POP POP JUMP JUMPDEST PUSH1 0x0 PUSH1 0x80 DUP3 ADD SWAP1 POP PUSH2 0x2D8 PUSH1 0x0 DUP4 ADD DUP8 PUSH2 0x299 JUMP JUMPDEST PUSH2 0x2E5 PUSH1 0x20 DUP4 ADD DUP7 PUSH2 0x299 JUMP JUMPDEST PUSH2 0x2F2 PUSH1 0x40 DUP4 ADD DUP6 PUSH2 0x28A JUMP JUMPDEST PUSH2 0x2FF PUSH1 0x60 DUP4 ADD DUP5 PUSH2 0x299 JUMP JUMPDEST SWAP6 SWAP5 POP POP POP POP POP JUMP JUMPDEST PUSH1 0x0 PUSH2 0x313 DUP3 PUSH2 0x31A JUMP JUMPDEST SWAP1 POP SWAP2 SWAP1 POP JUMP JUMPDEST PUSH1 0x0 PUSH20 0xFFFFFFFFFFFFFFFFFFFFFFFFFFFFFFFFFFFFFFFF DUP3 AND SWAP1 POP SWAP2 SWAP1 POP JUMP JUMPDEST PUSH1 0x0 DUP2 SWAP1 POP SWAP2 SWAP1 POP JUMP JUMPDEST PUSH2 0x34D DUP2 PUSH2 0x308 JUMP JUMPDEST DUP2 EQ PUSH2 0x358 JUMPI PUSH1 0x0 DUP1 REVERT JUMPDEST POP JUMP JUMPDEST PUSH2 0x364 DUP2 PUSH2 0x33A JUMP JUMPDEST DUP2 EQ PUSH2 0x36F JUMPI PUSH1 0x0 DUP1 REVERT JUMPDEST POP JUMP INVALID LOG2 PUSH5 0x6970667358 0x22 SLT KECCAK256 0x2B 0x25 0xB1 RETURNDATACOPY PUSH17 0xE8E280D91F03F6B0B4FB6CDEED18550AAD 0xD0 SWAP2 SAR SWAP13 PUSH1 0xAF 0xD0 MUL GASPRICE CALL PUSH5 0x736F6C6343 STOP MOD STOP STOP CALLER "
				},
				"gasEstimates": {
					"creation": {
						"codeDepositCost": "187200",
						"executionCost": "infinite",
						"totalCost": "infinite"
					},
					"external": {
						"addProposal(uint256,uint256,address,uint256)": "infinite",
						"proposalCount()": "1151",
						"proposals(uint256)": "infinite"
					}
				},
				"methodIdentifiers": {
					"addProposal(uint256,uint256,address,uint256)": "cae455ee",
					"proposalCount()": "da35c664",
					"proposals(uint256)": "013cf08b"
				}
			},
			"storageLayout": {
				"storage": [
					{
						"astId": 22,
						"contract": "contracts/proposal.sol:TestProposal",
						"label": "proposals",
						"offset": 0,
						"slot": "0",
						"type": "t_mapping(t_uint256,t_struct(Proposal)11_storage)"
					},
					{
						"astId": 28,
						"contract": "contracts/proposal.sol:TestProposal",
						"label": "proposalCount",
						"offset": 0,
						"slot": "1",
						"type": "t_uint256"
					}
				],
				"types": {
					"t_address": {
						"encoding": "inplace",
						"label": "address",
						"numberOfBytes": "20"
					},
					"t_mapping(t_uint256,t_struct(Proposal)11_storage)": {
						"encoding": "mapping",
						"key": "t_uint256",
						"label": "mapping(uint256 => struct TestProposal.Proposal)",
						"numberOfBytes": "32",
						"value": "t_struct(Proposal)11_storage"
					},
					"t_struct(Proposal)11_storage": {
						"encoding": "inplace",
						"label": "struct TestProposal.Proposal",
						"members": [
							{
								"astId": 4,
								"contract": "contracts/proposal.sol:TestProposal",
								"label": "proposalId",
								"offset": 0,
								"slot": "0",
								"type": "t_uint256"
							},
							{
								"astId": 6,
								"contract": "contracts/proposal.sol:TestProposal",
								"label": "proposalStatus",
								"offset": 0,
								"slot": "1",
								"type": "t_uint256"
							},
							{
								"astId": 8,
								"contract": "contracts/proposal.sol:TestProposal",
								"label": "proposalCreator",
								"offset": 0,
								"slot": "2",
								"type": "t_address"
							},
							{
								"astId": 10,
								"contract": "contracts/proposal.sol:TestProposal",
								"label": "proposalNumOfOptions",
								"offset": 0,
								"slot": "3",
								"type": "t_uint256"
							}
						],
						"numberOfBytes": "128"
					},
					"t_uint256": {
						"encoding": "inplace",
						"label": "uint256",
						"numberOfBytes": "32"
					}
				}
			},
			"userdoc": {
				"methods": {}
			}
		}
	}
}