{
	"contracts/fun_stuff.sol": {
		"VoteSaving": {
			"abi": [
				{
					"inputs": [],
					"stateMutability": "nonpayable",
					"type": "constructor"
				},
				{
					"anonymous": false,
					"inputs": [
						{
							"indexed": true,
							"internalType": "uint256",
							"name": "_memberId",
							"type": "uint256"
						}
					],
					"name": "savingEvent",
					"type": "event"
				},
				{
					"inputs": [
						{
							"internalType": "string",
							"name": "_name",
							"type": "string"
						},
						{
							"internalType": "bool",
							"name": "_isVote",
							"type": "bool"
						}
					],
					"name": "addMember",
					"outputs": [],
					"stateMutability": "nonpayable",
					"type": "function"
				},
				{
					"inputs": [
						{
							"internalType": "bool",
							"name": "_isVote",
							"type": "bool"
						}
					],
					"name": "getCountOfVoted",
					"outputs": [
						{
							"internalType": "uint256",
							"name": "",
							"type": "uint256"
						}
					],
					"stateMutability": "view",
					"type": "function"
				},
				{
					"inputs": [
						{
							"internalType": "uint256",
							"name": "_memberId",
							"type": "uint256"
						}
					],
					"name": "getMemberStructure",
					"outputs": [
						{
							"components": [
								{
									"internalType": "uint256",
									"name": "id",
									"type": "uint256"
								},
								{
									"internalType": "string",
									"name": "name",
									"type": "string"
								},
								{
									"internalType": "bool",
									"name": "isVoted",
									"type": "bool"
								}
							],
							"internalType": "struct VoteSaving.Member",
							"name": "",
							"type": "tuple"
						}
					],
					"stateMutability": "view",
					"type": "function"
				},
				{
					"inputs": [],
					"name": "getMemberValue",
					"outputs": [
						{
							"internalType": "uint256[]",
							"name": "",
							"type": "uint256[]"
						},
						{
							"internalType": "string[]",
							"name": "",
							"type": "string[]"
						},
						{
							"internalType": "bool[]",
							"name": "",
							"type": "bool[]"
						}
					],
					"stateMutability": "view",
					"type": "function"
				},
				{
					"inputs": [
						{
							"internalType": "bool",
							"name": "_isVoted",
							"type": "bool"
						}
					],
					"name": "getVotedMember",
					"outputs": [
						{
							"internalType": "uint256[]",
							"name": "",
							"type": "uint256[]"
						}
					],
					"stateMutability": "nonpayable",
					"type": "function"
				},
				{
					"inputs": [],
					"name": "memberCount",
					"outputs": [
						{
							"internalType": "uint256",
							"name": "",
							"type": "uint256"
						}
					],
					"stateMutability": "view",
					"type": "function"
				},
				{
					"inputs": [
						{
							"internalType": "uint256",
							"name": "",
							"type": "uint256"
						}
					],
					"name": "members",
					"outputs": [
						{
							"internalType": "uint256",
							"name": "id",
							"type": "uint256"
						},
						{
							"internalType": "string",
							"name": "name",
							"type": "string"
						},
						{
							"internalType": "bool",
							"name": "isVoted",
							"type": "bool"
						}
					],
					"stateMutability": "view",
					"type": "function"
				},
				{
					"inputs": [
						{
							"internalType": "uint256",
							"name": "_memberId",
							"type": "uint256"
						},
						{
							"internalType": "bool",
							"name": "_isVote",
							"type": "bool"
						}
					],
					"name": "setVote",
					"outputs": [],
					"stateMutability": "nonpayable",
					"type": "function"
				}
			],
			"devdoc": {
				"methods": {}
			},
			"evm": {
				"assembly": "    /* \"contracts/fun_stuff.sol\":95:2362  contract VoteSaving {\r... */\n  mstore(0x40, 0x80)\n    /* \"contracts/fun_stuff.sol\":340:674  constructor() public {\r... */\n  callvalue\n    /* \"--CODEGEN--\":8:17   */\n  dup1\n    /* \"--CODEGEN--\":5:7   */\n  iszero\n  tag_1\n  jumpi\n    /* \"--CODEGEN--\":30:31   */\n  0x00\n    /* \"--CODEGEN--\":27:28   */\n  dup1\n    /* \"--CODEGEN--\":20:32   */\n  revert\n    /* \"--CODEGEN--\":5:7   */\ntag_1:\n    /* \"contracts/fun_stuff.sol\":340:674  constructor() public {\r... */\n  pop\n    /* \"contracts/fun_stuff.sol\":386:387  0 */\n  0x00\n    /* \"contracts/fun_stuff.sol\":372:383  memberCount */\n  0x01\n    /* \"contracts/fun_stuff.sol\":372:387  memberCount = 0 */\n  dup2\n  swap1\n  sstore\n  pop\n    /* \"contracts/fun_stuff.sol\":398:421  addMember(\"Vlad\", true) */\n  tag_4\n  mload(0x40)\n  dup1\n  0x40\n  add\n  0x40\n  mstore\n  dup1\n  0x04\n  dup2\n  mstore\n  0x20\n  add\n  0x566c616400000000000000000000000000000000000000000000000000000000\n  dup2\n  mstore\n  pop\n    /* \"contracts/fun_stuff.sol\":416:420  true */\n  0x01\n    /* \"contracts/fun_stuff.sol\":398:407  addMember */\n  shl(0x20, tag_5)\n    /* \"contracts/fun_stuff.sol\":398:421  addMember(\"Vlad\", true) */\n  0x20\n  shr\n  jump\t// in\ntag_4:\n    /* \"contracts/fun_stuff.sol\":432:455  addMember(\"Nika\", true) */\n  tag_6\n  mload(0x40)\n  dup1\n  0x40\n  add\n  0x40\n  mstore\n  dup1\n  0x04\n  dup2\n  mstore\n  0x20\n  add\n  0x4e696b6100000000000000000000000000000000000000000000000000000000\n  dup2\n  mstore\n  pop\n    /* \"contracts/fun_stuff.sol\":450:454  true */\n  0x01\n    /* \"contracts/fun_stuff.sol\":432:441  addMember */\n  shl(0x20, tag_5)\n    /* \"contracts/fun_stuff.sol\":432:455  addMember(\"Nika\", true) */\n  0x20\n  shr\n  jump\t// in\ntag_6:\n    /* \"contracts/fun_stuff.sol\":466:491  addMember(\"Nastya\", true) */\n  tag_7\n  mload(0x40)\n  dup1\n  0x40\n  add\n  0x40\n  mstore\n  dup1\n  0x06\n  dup2\n  mstore\n  0x20\n  add\n  0x4e61737479610000000000000000000000000000000000000000000000000000\n  dup2\n  mstore\n  pop\n    /* \"contracts/fun_stuff.sol\":486:490  true */\n  0x01\n    /* \"contracts/fun_stuff.sol\":466:475  addMember */\n  shl(0x20, tag_5)\n    /* \"contracts/fun_stuff.sol\":466:491  addMember(\"Nastya\", true) */\n  0x20\n  shr\n  jump\t// in\ntag_7:\n    /* \"contracts/fun_stuff.sol\":502:527  addMember(\"Danya\", false) */\n  tag_8\n  mload(0x40)\n  dup1\n  0x40\n  add\n  0x40\n  mstore\n  dup1\n  0x05\n  dup2\n  mstore\n  0x20\n  add\n  0x44616e7961000000000000000000000000000000000000000000000000000000\n  dup2\n  mstore\n  pop\n    /* \"contracts/fun_stuff.sol\":521:526  false */\n  0x00\n    /* \"contracts/fun_stuff.sol\":502:511  addMember */\n  shl(0x20, tag_5)\n    /* \"contracts/fun_stuff.sol\":502:527  addMember(\"Danya\", false) */\n  0x20\n  shr\n  jump\t// in\ntag_8:\n    /* \"contracts/fun_stuff.sol\":538:563  addMember(\"Gosha\", false) */\n  tag_9\n  mload(0x40)\n  dup1\n  0x40\n  add\n  0x40\n  mstore\n  dup1\n  0x05\n  dup2\n  mstore\n  0x20\n  add\n  0x476f736861000000000000000000000000000000000000000000000000000000\n  dup2\n  mstore\n  pop\n    /* \"contracts/fun_stuff.sol\":557:562  false */\n  0x00\n    /* \"contracts/fun_stuff.sol\":538:547  addMember */\n  shl(0x20, tag_5)\n    /* \"contracts/fun_stuff.sol\":538:563  addMember(\"Gosha\", false) */\n  0x20\n  shr\n  jump\t// in\ntag_9:\n    /* \"contracts/fun_stuff.sol\":574:598  addMember(\"Anya\", false) */\n  tag_10\n  mload(0x40)\n  dup1\n  0x40\n  add\n  0x40\n  mstore\n  dup1\n  0x04\n  dup2\n  mstore\n  0x20\n  add\n  0x416e796100000000000000000000000000000000000000000000000000000000\n  dup2\n  mstore\n  pop\n    /* \"contracts/fun_stuff.sol\":592:597  false */\n  0x00\n    /* \"contracts/fun_stuff.sol\":574:583  addMember */\n  shl(0x20, tag_5)\n    /* \"contracts/fun_stuff.sol\":574:598  addMember(\"Anya\", false) */\n  0x20\n  shr\n  jump\t// in\ntag_10:\n    /* \"contracts/fun_stuff.sol\":609:632  addMember(\"Lera\", true) */\n  tag_11\n  mload(0x40)\n  dup1\n  0x40\n  add\n  0x40\n  mstore\n  dup1\n  0x04\n  dup2\n  mstore\n  0x20\n  add\n  0x4c65726100000000000000000000000000000000000000000000000000000000\n  dup2\n  mstore\n  pop\n    /* \"contracts/fun_stuff.sol\":627:631  true */\n  0x01\n    /* \"contracts/fun_stuff.sol\":609:618  addMember */\n  shl(0x20, tag_5)\n    /* \"contracts/fun_stuff.sol\":609:632  addMember(\"Lera\", true) */\n  0x20\n  shr\n  jump\t// in\ntag_11:\n    /* \"contracts/fun_stuff.sol\":643:666  addMember(\"Vita\", true) */\n  tag_12\n  mload(0x40)\n  dup1\n  0x40\n  add\n  0x40\n  mstore\n  dup1\n  0x04\n  dup2\n  mstore\n  0x20\n  add\n  0x5669746100000000000000000000000000000000000000000000000000000000\n  dup2\n  mstore\n  pop\n    /* \"contracts/fun_stuff.sol\":661:665  true */\n  0x01\n    /* \"contracts/fun_stuff.sol\":643:652  addMember */\n  shl(0x20, tag_5)\n    /* \"contracts/fun_stuff.sol\":643:666  addMember(\"Vita\", true) */\n  0x20\n  shr\n  jump\t// in\ntag_12:\n    /* \"contracts/fun_stuff.sol\":95:2362  contract VoteSaving {\r... */\n  jump(tag_13)\n    /* \"contracts/fun_stuff.sol\":682:844  function addMember(string memory _name, bool _isVote) public {\r... */\ntag_5:\n    /* \"contracts/fun_stuff.sol\":777:812  Member(memberCount, _name, _isVote) */\n  mload(0x40)\n  dup1\n  0x60\n  add\n  0x40\n  mstore\n  dup1\n    /* \"contracts/fun_stuff.sol\":784:795  memberCount */\n  sload(0x01)\n    /* \"contracts/fun_stuff.sol\":777:812  Member(memberCount, _name, _isVote) */\n  dup2\n  mstore\n  0x20\n  add\n    /* \"contracts/fun_stuff.sol\":797:802  _name */\n  dup4\n    /* \"contracts/fun_stuff.sol\":777:812  Member(memberCount, _name, _isVote) */\n  dup2\n  mstore\n  0x20\n  add\n    /* \"contracts/fun_stuff.sol\":804:811  _isVote */\n  dup3\n    /* \"contracts/fun_stuff.sol\":777:812  Member(memberCount, _name, _isVote) */\n  iszero\n  iszero\n  dup2\n  mstore\n  pop\n    /* \"contracts/fun_stuff.sol\":754:761  members */\n  0x00\n    /* \"contracts/fun_stuff.sol\":754:774  members[memberCount] */\n  dup1\n    /* \"contracts/fun_stuff.sol\":762:773  memberCount */\n  sload(0x01)\n    /* \"contracts/fun_stuff.sol\":754:774  members[memberCount] */\n  dup2\n  mstore\n  0x20\n  add\n  swap1\n  dup2\n  mstore\n  0x20\n  add\n  0x00\n  keccak256\n    /* \"contracts/fun_stuff.sol\":754:812  members[memberCount] = Member(memberCount, _name, _isVote) */\n  0x00\n  dup3\n  add\n  mload\n  dup2\n  0x00\n  add\n  sstore\n  0x20\n  dup3\n  add\n  mload\n  dup2\n  0x01\n  add\n  swap1\n  dup1\n  mload\n  swap1\n  0x20\n  add\n  swap1\n  tag_15\n  swap3\n  swap2\n  swap1\n  tag_16\n  jump\t// in\ntag_15:\n  pop\n  0x40\n  dup3\n  add\n  mload\n  dup2\n  0x02\n  add\n  exp(0x0100, 0x00)\n  dup2\n  sload\n  dup2\n  0xff\n  mul\n  not\n  and\n  swap1\n  dup4\n  iszero\n  iszero\n  mul\n  or\n  swap1\n  sstore\n  pop\n  swap1\n  pop\n  pop\n    /* \"contracts/fun_stuff.sol\":823:834  memberCount */\n  0x01\n  0x00\n    /* \"contracts/fun_stuff.sol\":823:836  memberCount++ */\n  dup2\n  sload\n  dup1\n  swap3\n  swap2\n  swap1\n  0x01\n  add\n  swap2\n  swap1\n  pop\n  sstore\n  pop\n    /* \"contracts/fun_stuff.sol\":682:844  function addMember(string memory _name, bool _isVote) public {\r... */\n  pop\n  pop\n  jump\t// out\n    /* \"contracts/fun_stuff.sol\":95:2362  contract VoteSaving {\r... */\ntag_16:\n  dup3\n  dup1\n  sload\n  0x01\n  dup2\n  0x01\n  and\n  iszero\n  0x0100\n  mul\n  sub\n  and\n  0x02\n  swap1\n  div\n  swap1\n  0x00\n  mstore\n  keccak256(0x00, 0x20)\n  swap1\n  0x1f\n  add\n  0x20\n  swap1\n  div\n  dup2\n  add\n  swap3\n  dup3\n  0x1f\n  lt\n  tag_18\n  jumpi\n  dup1\n  mload\n  not(0xff)\n  and\n  dup4\n  dup1\n  add\n  or\n  dup6\n  sstore\n  jump(tag_17)\ntag_18:\n  dup3\n  dup1\n  add\n  0x01\n  add\n  dup6\n  sstore\n  dup3\n  iszero\n  tag_17\n  jumpi\n  swap2\n  dup3\n  add\ntag_19:\n  dup3\n  dup2\n  gt\n  iszero\n  tag_20\n  jumpi\n  dup3\n  mload\n  dup3\n  sstore\n  swap2\n  0x20\n  add\n  swap2\n  swap1\n  0x01\n  add\n  swap1\n  jump(tag_19)\ntag_20:\ntag_17:\n  pop\n  swap1\n  pop\n  tag_21\n  swap2\n  swap1\n  tag_22\n  jump\t// in\ntag_21:\n  pop\n  swap1\n  jump\t// out\ntag_22:\n  tag_23\n  swap2\n  swap1\ntag_24:\n  dup1\n  dup3\n  gt\n  iszero\n  tag_25\n  jumpi\n  0x00\n  dup2\n  0x00\n  swap1\n  sstore\n  pop\n  0x01\n  add\n  jump(tag_24)\ntag_25:\n  pop\n  swap1\n  jump\ntag_23:\n  swap1\n  jump\t// out\ntag_13:\n  dataSize(sub_0)\n  dup1\n  dataOffset(sub_0)\n  0x00\n  codecopy\n  0x00\n  return\nstop\n\nsub_0: assembly {\n        /* \"contracts/fun_stuff.sol\":95:2362  contract VoteSaving {\r... */\n      mstore(0x40, 0x80)\n      callvalue\n        /* \"--CODEGEN--\":8:17   */\n      dup1\n        /* \"--CODEGEN--\":5:7   */\n      iszero\n      tag_1\n      jumpi\n        /* \"--CODEGEN--\":30:31   */\n      0x00\n        /* \"--CODEGEN--\":27:28   */\n      dup1\n        /* \"--CODEGEN--\":20:32   */\n      revert\n        /* \"--CODEGEN--\":5:7   */\n    tag_1:\n        /* \"contracts/fun_stuff.sol\":95:2362  contract VoteSaving {\r... */\n      pop\n      jumpi(tag_2, lt(calldatasize, 0x04))\n      shr(0xe0, calldataload(0x00))\n      dup1\n      0x92c68389\n      gt\n      tag_11\n      jumpi\n      dup1\n      0x92c68389\n      eq\n      tag_7\n      jumpi\n      dup1\n      0xab7a2015\n      eq\n      tag_8\n      jumpi\n      dup1\n      0xd3516b7e\n      eq\n      tag_9\n      jumpi\n      dup1\n      0xf97698f8\n      eq\n      tag_10\n      jumpi\n      jump(tag_2)\n    tag_11:\n      dup1\n      0x11aee380\n      eq\n      tag_3\n      jumpi\n      dup1\n      0x5daf08ca\n      eq\n      tag_4\n      jumpi\n      dup1\n      0x6f416d59\n      eq\n      tag_5\n      jumpi\n      dup1\n      0x7f44982a\n      eq\n      tag_6\n      jumpi\n    tag_2:\n      0x00\n      dup1\n      revert\n        /* \"contracts/fun_stuff.sol\":308:331  uint public memberCount */\n    tag_3:\n      tag_12\n      tag_13\n      jump\t// in\n    tag_12:\n      mload(0x40)\n      tag_14\n      swap2\n      swap1\n      jump(tag_15)\n    tag_14:\n      mload(0x40)\n      dup1\n      swap2\n      sub\n      swap1\n      return\n        /* \"contracts/fun_stuff.sol\":214:253  mapping (uint => Member) public members */\n    tag_4:\n      tag_16\n      0x04\n      dup1\n      calldatasize\n      sub\n      tag_17\n      swap2\n      swap1\n      dup2\n      add\n      swap1\n      jump(tag_18)\n    tag_17:\n      tag_19\n      jump\t// in\n    tag_16:\n      mload(0x40)\n      tag_20\n      swap4\n      swap3\n      swap2\n      swap1\n      jump(tag_21)\n    tag_20:\n      mload(0x40)\n      dup1\n      swap2\n      sub\n      swap1\n      return\n        /* \"contracts/fun_stuff.sol\":1813:2354  function getMemberValue() public view returns(uint[] memory, string[] memory, bool[] memory) {\r... */\n    tag_5:\n      tag_22\n      tag_23\n      jump\t// in\n    tag_22:\n      mload(0x40)\n      tag_24\n      swap4\n      swap3\n      swap2\n      swap1\n      jump(tag_25)\n    tag_24:\n      mload(0x40)\n      dup1\n      swap2\n      sub\n      swap1\n      return\n        /* \"contracts/fun_stuff.sol\":1368:1599  function getVotedMember(bool _isVoted) public returns(uint[] memory){\r... */\n    tag_6:\n      tag_26\n      0x04\n      dup1\n      calldatasize\n      sub\n      tag_27\n      swap2\n      swap1\n      dup2\n      add\n      swap1\n      jump(tag_28)\n    tag_27:\n      tag_29\n      jump\t// in\n    tag_26:\n      mload(0x40)\n      tag_30\n      swap2\n      swap1\n      jump(tag_31)\n    tag_30:\n      mload(0x40)\n      dup1\n      swap2\n      sub\n      swap1\n      return\n        /* \"contracts/fun_stuff.sol\":682:844  function addMember(string memory _name, bool _isVote) public {\r... */\n    tag_7:\n      tag_32\n      0x04\n      dup1\n      calldatasize\n      sub\n      tag_33\n      swap2\n      swap1\n      dup2\n      add\n      swap1\n      jump(tag_34)\n    tag_33:\n      tag_35\n      jump\t// in\n    tag_32:\n      stop\n        /* \"contracts/fun_stuff.sol\":1048:1335  function getCountOfVoted(bool _isVote) public view returns(uint){\r... */\n    tag_8:\n      tag_36\n      0x04\n      dup1\n      calldatasize\n      sub\n      tag_37\n      swap2\n      swap1\n      dup2\n      add\n      swap1\n      jump(tag_28)\n    tag_37:\n      tag_38\n      jump\t// in\n    tag_36:\n      mload(0x40)\n      tag_39\n      swap2\n      swap1\n      jump(tag_15)\n    tag_39:\n      mload(0x40)\n      dup1\n      swap2\n      sub\n      swap1\n      return\n        /* \"contracts/fun_stuff.sol\":890:999  function setVote(uint _memberId, bool _isVote) public {\r... */\n    tag_9:\n      tag_40\n      0x04\n      dup1\n      calldatasize\n      sub\n      tag_41\n      swap2\n      swap1\n      dup2\n      add\n      swap1\n      jump(tag_42)\n    tag_41:\n      tag_43\n      jump\t// in\n    tag_40:\n      stop\n        /* \"contracts/fun_stuff.sol\":1643:1765  function getMemberStructure(uint _memberId) public view returns(Member memory){\r... */\n    tag_10:\n      tag_44\n      0x04\n      dup1\n      calldatasize\n      sub\n      tag_45\n      swap2\n      swap1\n      dup2\n      add\n      swap1\n      jump(tag_18)\n    tag_45:\n      tag_46\n      jump\t// in\n    tag_44:\n      mload(0x40)\n      tag_47\n      swap2\n      swap1\n      jump(tag_48)\n    tag_47:\n      mload(0x40)\n      dup1\n      swap2\n      sub\n      swap1\n      return\n        /* \"contracts/fun_stuff.sol\":308:331  uint public memberCount */\n    tag_13:\n      sload(0x01)\n      dup2\n      jump\t// out\n        /* \"contracts/fun_stuff.sol\":214:253  mapping (uint => Member) public members */\n    tag_19:\n      mstore(0x20, 0x00)\n      dup1\n      0x00\n      mstore\n      keccak256(0x00, 0x40)\n      0x00\n      swap2\n      pop\n      swap1\n      pop\n      dup1\n      0x00\n      add\n      sload\n      swap1\n      dup1\n      0x01\n      add\n      dup1\n      sload\n      0x01\n      dup2\n      0x01\n      and\n      iszero\n      0x0100\n      mul\n      sub\n      and\n      0x02\n      swap1\n      div\n      dup1\n      0x1f\n      add\n      0x20\n      dup1\n      swap2\n      div\n      mul\n      0x20\n      add\n      mload(0x40)\n      swap1\n      dup2\n      add\n      0x40\n      mstore\n      dup1\n      swap3\n      swap2\n      swap1\n      dup2\n      dup2\n      mstore\n      0x20\n      add\n      dup3\n      dup1\n      sload\n      0x01\n      dup2\n      0x01\n      and\n      iszero\n      0x0100\n      mul\n      sub\n      and\n      0x02\n      swap1\n      div\n      dup1\n      iszero\n      tag_49\n      jumpi\n      dup1\n      0x1f\n      lt\n      tag_50\n      jumpi\n      0x0100\n      dup1\n      dup4\n      sload\n      div\n      mul\n      dup4\n      mstore\n      swap2\n      0x20\n      add\n      swap2\n      jump(tag_49)\n    tag_50:\n      dup3\n      add\n      swap2\n      swap1\n      0x00\n      mstore\n      keccak256(0x00, 0x20)\n      swap1\n    tag_51:\n      dup2\n      sload\n      dup2\n      mstore\n      swap1\n      0x01\n      add\n      swap1\n      0x20\n      add\n      dup1\n      dup4\n      gt\n      tag_51\n      jumpi\n      dup3\n      swap1\n      sub\n      0x1f\n      and\n      dup3\n      add\n      swap2\n    tag_49:\n      pop\n      pop\n      pop\n      pop\n      pop\n      swap1\n      dup1\n      0x02\n      add\n      0x00\n      swap1\n      sload\n      swap1\n      0x0100\n      exp\n      swap1\n      div\n      0xff\n      and\n      swap1\n      pop\n      dup4\n      jump\t// out\n        /* \"contracts/fun_stuff.sol\":1813:2354  function getMemberValue() public view returns(uint[] memory, string[] memory, bool[] memory) {\r... */\n    tag_23:\n        /* \"contracts/fun_stuff.sol\":1859:1872  uint[] memory */\n      0x60\n        /* \"contracts/fun_stuff.sol\":1874:1889  string[] memory */\n      dup1\n        /* \"contracts/fun_stuff.sol\":1891:1904  bool[] memory */\n      0x60\n        /* \"contracts/fun_stuff.sol\":1917:1938  uint[]      memory id */\n      dup1\n        /* \"contracts/fun_stuff.sol\":1952:1963  memberCount */\n      sload(0x01)\n        /* \"contracts/fun_stuff.sol\":1941:1964  new uint[](memberCount) */\n      mload(0x40)\n      swap1\n      dup1\n      dup3\n      mstore\n      dup1\n      0x20\n      mul\n      0x20\n      add\n      dup3\n      add\n      0x40\n      mstore\n      dup1\n      iszero\n      tag_53\n      jumpi\n      dup2\n      0x20\n      add\n        /* \"--CODEGEN--\":29:31   */\n      0x20\n        /* \"--CODEGEN--\":21:27   */\n      dup3\n        /* \"--CODEGEN--\":17:32   */\n      mul\n        /* \"--CODEGEN--\":117:121   */\n      dup1\n        /* \"--CODEGEN--\":105:115   */\n      codesize\n        /* \"--CODEGEN--\":97:103   */\n      dup4\n        /* \"--CODEGEN--\":88:122   */\n      codecopy\n        /* \"--CODEGEN--\":148:152   */\n      dup1\n        /* \"--CODEGEN--\":140:146   */\n      dup3\n        /* \"--CODEGEN--\":136:153   */\n      add\n        /* \"--CODEGEN--\":126:153   */\n      swap2\n      pop\n        /* \"--CODEGEN--\":0:157   */\n      pop\n        /* \"contracts/fun_stuff.sol\":1941:1964  new uint[](memberCount) */\n      swap1\n      pop\n    tag_53:\n      pop\n        /* \"contracts/fun_stuff.sol\":1917:1964  uint[]      memory id = new uint[](memberCount) */\n      swap1\n      pop\n        /* \"contracts/fun_stuff.sol\":1975:1998  string[]    memory name */\n      0x60\n        /* \"contracts/fun_stuff.sol\":2014:2025  memberCount */\n      sload(0x01)\n        /* \"contracts/fun_stuff.sol\":2001:2026  new string[](memberCount) */\n      mload(0x40)\n      swap1\n      dup1\n      dup3\n      mstore\n      dup1\n      0x20\n      mul\n      0x20\n      add\n      dup3\n      add\n      0x40\n      mstore\n      dup1\n      iszero\n      tag_54\n      jumpi\n      dup2\n      0x20\n      add\n    tag_55:\n      0x60\n      dup2\n      mstore\n      0x20\n      add\n      swap1\n      0x01\n      swap1\n      sub\n      swap1\n      dup2\n      tag_55\n      jumpi\n      swap1\n      pop\n    tag_54:\n      pop\n        /* \"contracts/fun_stuff.sol\":1975:2026  string[]    memory name = new string[](memberCount) */\n      swap1\n      pop\n        /* \"contracts/fun_stuff.sol\":2037:2063  bool[]      memory isVoted */\n      0x60\n        /* \"contracts/fun_stuff.sol\":2077:2088  memberCount */\n      sload(0x01)\n        /* \"contracts/fun_stuff.sol\":2066:2089  new bool[](memberCount) */\n      mload(0x40)\n      swap1\n      dup1\n      dup3\n      mstore\n      dup1\n      0x20\n      mul\n      0x20\n      add\n      dup3\n      add\n      0x40\n      mstore\n      dup1\n      iszero\n      tag_56\n      jumpi\n      dup2\n      0x20\n      add\n        /* \"--CODEGEN--\":29:31   */\n      0x20\n        /* \"--CODEGEN--\":21:27   */\n      dup3\n        /* \"--CODEGEN--\":17:32   */\n      mul\n        /* \"--CODEGEN--\":117:121   */\n      dup1\n        /* \"--CODEGEN--\":105:115   */\n      codesize\n        /* \"--CODEGEN--\":97:103   */\n      dup4\n        /* \"--CODEGEN--\":88:122   */\n      codecopy\n        /* \"--CODEGEN--\":148:152   */\n      dup1\n        /* \"--CODEGEN--\":140:146   */\n      dup3\n        /* \"--CODEGEN--\":136:153   */\n      add\n        /* \"--CODEGEN--\":126:153   */\n      swap2\n      pop\n        /* \"--CODEGEN--\":0:157   */\n      pop\n        /* \"contracts/fun_stuff.sol\":2066:2089  new bool[](memberCount) */\n      swap1\n      pop\n    tag_56:\n      pop\n        /* \"contracts/fun_stuff.sol\":2037:2089  bool[]      memory isVoted = new bool[](memberCount) */\n      swap1\n      pop\n        /* \"contracts/fun_stuff.sol\":2105:2111  uint i */\n      0x00\n        /* \"contracts/fun_stuff.sol\":2114:2115  0 */\n      dup1\n        /* \"contracts/fun_stuff.sol\":2105:2115  uint i = 0 */\n      swap1\n      pop\n        /* \"contracts/fun_stuff.sol\":2100:2310  for (uint i = 0; i < memberCount; i++) {\r... */\n    tag_57:\n        /* \"contracts/fun_stuff.sol\":2121:2132  memberCount */\n      sload(0x01)\n        /* \"contracts/fun_stuff.sol\":2117:2118  i */\n      dup2\n        /* \"contracts/fun_stuff.sol\":2117:2132  i < memberCount */\n      lt\n        /* \"contracts/fun_stuff.sol\":2100:2310  for (uint i = 0; i < memberCount; i++) {\r... */\n      iszero\n      tag_58\n      jumpi\n        /* \"contracts/fun_stuff.sol\":2154:2175  Member storage member */\n      0x00\n        /* \"contracts/fun_stuff.sol\":2178:2185  members */\n      dup1\n        /* \"contracts/fun_stuff.sol\":2178:2188  members[i] */\n      0x00\n        /* \"contracts/fun_stuff.sol\":2186:2187  i */\n      dup4\n        /* \"contracts/fun_stuff.sol\":2178:2188  members[i] */\n      dup2\n      mstore\n      0x20\n      add\n      swap1\n      dup2\n      mstore\n      0x20\n      add\n      0x00\n      keccak256\n        /* \"contracts/fun_stuff.sol\":2154:2188  Member storage member = members[i] */\n      swap1\n      pop\n        /* \"contracts/fun_stuff.sol\":2211:2217  member */\n      dup1\n        /* \"contracts/fun_stuff.sol\":2211:2220  member.id */\n      0x00\n      add\n      sload\n        /* \"contracts/fun_stuff.sol\":2203:2205  id */\n      dup6\n        /* \"contracts/fun_stuff.sol\":2206:2207  i */\n      dup4\n        /* \"contracts/fun_stuff.sol\":2203:2208  id[i] */\n      dup2\n      mload\n      dup2\n      lt\n      tag_60\n      jumpi\n      invalid\n    tag_60:\n      0x20\n      mul\n      0x20\n      add\n      add\n        /* \"contracts/fun_stuff.sol\":2203:2220  id[i] = member.id */\n      dup2\n      dup2\n      mstore\n      pop\n      pop\n        /* \"contracts/fun_stuff.sol\":2245:2251  member */\n      dup1\n        /* \"contracts/fun_stuff.sol\":2245:2256  member.name */\n      0x01\n      add\n        /* \"contracts/fun_stuff.sol\":2235:2256  name[i] = member.name */\n      dup1\n      sload\n      0x01\n      dup2\n      0x01\n      and\n      iszero\n      0x0100\n      mul\n      sub\n      and\n      0x02\n      swap1\n      div\n      dup1\n      0x1f\n      add\n      0x20\n      dup1\n      swap2\n      div\n      mul\n      0x20\n      add\n      mload(0x40)\n      swap1\n      dup2\n      add\n      0x40\n      mstore\n      dup1\n      swap3\n      swap2\n      swap1\n      dup2\n      dup2\n      mstore\n      0x20\n      add\n      dup3\n      dup1\n      sload\n      0x01\n      dup2\n      0x01\n      and\n      iszero\n      0x0100\n      mul\n      sub\n      and\n      0x02\n      swap1\n      div\n      dup1\n      iszero\n      tag_61\n      jumpi\n      dup1\n      0x1f\n      lt\n      tag_62\n      jumpi\n      0x0100\n      dup1\n      dup4\n      sload\n      div\n      mul\n      dup4\n      mstore\n      swap2\n      0x20\n      add\n      swap2\n      jump(tag_61)\n    tag_62:\n      dup3\n      add\n      swap2\n      swap1\n      0x00\n      mstore\n      keccak256(0x00, 0x20)\n      swap1\n    tag_63:\n      dup2\n      sload\n      dup2\n      mstore\n      swap1\n      0x01\n      add\n      swap1\n      0x20\n      add\n      dup1\n      dup4\n      gt\n      tag_63\n      jumpi\n      dup3\n      swap1\n      sub\n      0x1f\n      and\n      dup3\n      add\n      swap2\n    tag_61:\n      pop\n      pop\n      pop\n      pop\n      pop\n        /* \"contracts/fun_stuff.sol\":2235:2239  name */\n      dup5\n        /* \"contracts/fun_stuff.sol\":2240:2241  i */\n      dup4\n        /* \"contracts/fun_stuff.sol\":2235:2242  name[i] */\n      dup2\n      mload\n      dup2\n      lt\n      tag_64\n      jumpi\n      invalid\n    tag_64:\n      0x20\n      mul\n      0x20\n      add\n      add\n        /* \"contracts/fun_stuff.sol\":2235:2256  name[i] = member.name */\n      dup2\n      swap1\n      mstore\n      pop\n        /* \"contracts/fun_stuff.sol\":2284:2290  member */\n      dup1\n        /* \"contracts/fun_stuff.sol\":2284:2298  member.isVoted */\n      0x02\n      add\n      0x00\n      swap1\n      sload\n      swap1\n      0x0100\n      exp\n      swap1\n      div\n      0xff\n      and\n        /* \"contracts/fun_stuff.sol\":2271:2278  isVoted */\n      dup4\n        /* \"contracts/fun_stuff.sol\":2279:2280  i */\n      dup4\n        /* \"contracts/fun_stuff.sol\":2271:2281  isVoted[i] */\n      dup2\n      mload\n      dup2\n      lt\n      tag_65\n      jumpi\n      invalid\n    tag_65:\n      0x20\n      mul\n      0x20\n      add\n      add\n        /* \"contracts/fun_stuff.sol\":2271:2298  isVoted[i] = member.isVoted */\n      swap1\n      iszero\n      iszero\n      swap1\n      dup2\n      iszero\n      iszero\n      dup2\n      mstore\n      pop\n      pop\n        /* \"contracts/fun_stuff.sol\":2100:2310  for (uint i = 0; i < memberCount; i++) {\r... */\n      pop\n        /* \"contracts/fun_stuff.sol\":2134:2137  i++ */\n      dup1\n      dup1\n      0x01\n      add\n      swap2\n      pop\n      pop\n        /* \"contracts/fun_stuff.sol\":2100:2310  for (uint i = 0; i < memberCount; i++) {\r... */\n      jump(tag_57)\n    tag_58:\n      pop\n        /* \"contracts/fun_stuff.sol\":2328:2330  id */\n      dup3\n        /* \"contracts/fun_stuff.sol\":2332:2336  name */\n      dup3\n        /* \"contracts/fun_stuff.sol\":2338:2345  isVoted */\n      dup3\n        /* \"contracts/fun_stuff.sol\":2320:2346  return (id, name, isVoted) */\n      swap6\n      pop\n      swap6\n      pop\n      swap6\n      pop\n      pop\n      pop\n      pop\n        /* \"contracts/fun_stuff.sol\":1813:2354  function getMemberValue() public view returns(uint[] memory, string[] memory, bool[] memory) {\r... */\n      swap1\n      swap2\n      swap3\n      jump\t// out\n        /* \"contracts/fun_stuff.sol\":1368:1599  function getVotedMember(bool _isVoted) public returns(uint[] memory){\r... */\n    tag_29:\n        /* \"contracts/fun_stuff.sol\":1422:1435  uint[] memory */\n      0x60\n        /* \"contracts/fun_stuff.sol\":1462:1468  uint i */\n      0x00\n        /* \"contracts/fun_stuff.sol\":1471:1472  0 */\n      dup1\n        /* \"contracts/fun_stuff.sol\":1462:1472  uint i = 0 */\n      swap1\n      pop\n        /* \"contracts/fun_stuff.sol\":1457:1592  for (uint i = 0; i < memberCount; i++) {\r... */\n    tag_67:\n        /* \"contracts/fun_stuff.sol\":1478:1489  memberCount */\n      sload(0x01)\n        /* \"contracts/fun_stuff.sol\":1474:1475  i */\n      dup2\n        /* \"contracts/fun_stuff.sol\":1474:1489  i < memberCount */\n      lt\n        /* \"contracts/fun_stuff.sol\":1457:1592  for (uint i = 0; i < memberCount; i++) {\r... */\n      iszero\n      tag_68\n      jumpi\n        /* \"contracts/fun_stuff.sol\":1537:1545  _isVoted */\n      dup3\n        /* \"contracts/fun_stuff.sol\":1515:1545  members[i].isVoted == _isVoted */\n      iszero\n      iszero\n        /* \"contracts/fun_stuff.sol\":1515:1522  members */\n      0x00\n        /* \"contracts/fun_stuff.sol\":1515:1525  members[i] */\n      dup1\n        /* \"contracts/fun_stuff.sol\":1523:1524  i */\n      dup4\n        /* \"contracts/fun_stuff.sol\":1515:1525  members[i] */\n      dup2\n      mstore\n      0x20\n      add\n      swap1\n      dup2\n      mstore\n      0x20\n      add\n      0x00\n      keccak256\n        /* \"contracts/fun_stuff.sol\":1515:1533  members[i].isVoted */\n      0x02\n      add\n      0x00\n      swap1\n      sload\n      swap1\n      0x0100\n      exp\n      swap1\n      pop\n      pop\n        /* \"contracts/fun_stuff.sol\":1515:1545  members[i].isVoted == _isVoted */\n      pop\n        /* \"contracts/fun_stuff.sol\":1491:1494  i++ */\n      dup1\n      dup1\n      0x01\n      add\n      swap2\n      pop\n      pop\n        /* \"contracts/fun_stuff.sol\":1457:1592  for (uint i = 0; i < memberCount; i++) {\r... */\n      jump(tag_67)\n    tag_68:\n      pop\n        /* \"contracts/fun_stuff.sol\":1368:1599  function getVotedMember(bool _isVoted) public returns(uint[] memory){\r... */\n      swap2\n      swap1\n      pop\n      jump\t// out\n        /* \"contracts/fun_stuff.sol\":682:844  function addMember(string memory _name, bool _isVote) public {\r... */\n    tag_35:\n        /* \"contracts/fun_stuff.sol\":777:812  Member(memberCount, _name, _isVote) */\n      mload(0x40)\n      dup1\n      0x60\n      add\n      0x40\n      mstore\n      dup1\n        /* \"contracts/fun_stuff.sol\":784:795  memberCount */\n      sload(0x01)\n        /* \"contracts/fun_stuff.sol\":777:812  Member(memberCount, _name, _isVote) */\n      dup2\n      mstore\n      0x20\n      add\n        /* \"contracts/fun_stuff.sol\":797:802  _name */\n      dup4\n        /* \"contracts/fun_stuff.sol\":777:812  Member(memberCount, _name, _isVote) */\n      dup2\n      mstore\n      0x20\n      add\n        /* \"contracts/fun_stuff.sol\":804:811  _isVote */\n      dup3\n        /* \"contracts/fun_stuff.sol\":777:812  Member(memberCount, _name, _isVote) */\n      iszero\n      iszero\n      dup2\n      mstore\n      pop\n        /* \"contracts/fun_stuff.sol\":754:761  members */\n      0x00\n        /* \"contracts/fun_stuff.sol\":754:774  members[memberCount] */\n      dup1\n        /* \"contracts/fun_stuff.sol\":762:773  memberCount */\n      sload(0x01)\n        /* \"contracts/fun_stuff.sol\":754:774  members[memberCount] */\n      dup2\n      mstore\n      0x20\n      add\n      swap1\n      dup2\n      mstore\n      0x20\n      add\n      0x00\n      keccak256\n        /* \"contracts/fun_stuff.sol\":754:812  members[memberCount] = Member(memberCount, _name, _isVote) */\n      0x00\n      dup3\n      add\n      mload\n      dup2\n      0x00\n      add\n      sstore\n      0x20\n      dup3\n      add\n      mload\n      dup2\n      0x01\n      add\n      swap1\n      dup1\n      mload\n      swap1\n      0x20\n      add\n      swap1\n      tag_72\n      swap3\n      swap2\n      swap1\n      tag_73\n      jump\t// in\n    tag_72:\n      pop\n      0x40\n      dup3\n      add\n      mload\n      dup2\n      0x02\n      add\n      exp(0x0100, 0x00)\n      dup2\n      sload\n      dup2\n      0xff\n      mul\n      not\n      and\n      swap1\n      dup4\n      iszero\n      iszero\n      mul\n      or\n      swap1\n      sstore\n      pop\n      swap1\n      pop\n      pop\n        /* \"contracts/fun_stuff.sol\":823:834  memberCount */\n      0x01\n      0x00\n        /* \"contracts/fun_stuff.sol\":823:836  memberCount++ */\n      dup2\n      sload\n      dup1\n      swap3\n      swap2\n      swap1\n      0x01\n      add\n      swap2\n      swap1\n      pop\n      sstore\n      pop\n        /* \"contracts/fun_stuff.sol\":682:844  function addMember(string memory _name, bool _isVote) public {\r... */\n      pop\n      pop\n      jump\t// out\n        /* \"contracts/fun_stuff.sol\":1048:1335  function getCountOfVoted(bool _isVote) public view returns(uint){\r... */\n    tag_38:\n        /* \"contracts/fun_stuff.sol\":1107:1111  uint */\n      0x00\n        /* \"contracts/fun_stuff.sol\":1123:1138  uint votedCount */\n      dup1\n        /* \"contracts/fun_stuff.sol\":1141:1142  0 */\n      0x00\n        /* \"contracts/fun_stuff.sol\":1123:1142  uint votedCount = 0 */\n      swap1\n      pop\n        /* \"contracts/fun_stuff.sol\":1158:1164  uint i */\n      0x00\n        /* \"contracts/fun_stuff.sol\":1167:1168  0 */\n      dup1\n        /* \"contracts/fun_stuff.sol\":1158:1168  uint i = 0 */\n      swap1\n      pop\n        /* \"contracts/fun_stuff.sol\":1153:1300  for (uint i = 0; i < memberCount; i++) {\r... */\n    tag_75:\n        /* \"contracts/fun_stuff.sol\":1174:1185  memberCount */\n      sload(0x01)\n        /* \"contracts/fun_stuff.sol\":1170:1171  i */\n      dup2\n        /* \"contracts/fun_stuff.sol\":1170:1185  i < memberCount */\n      lt\n        /* \"contracts/fun_stuff.sol\":1153:1300  for (uint i = 0; i < memberCount; i++) {\r... */\n      iszero\n      tag_76\n      jumpi\n        /* \"contracts/fun_stuff.sol\":1233:1240  _isVote */\n      dup4\n        /* \"contracts/fun_stuff.sol\":1211:1240  members[i].isVoted == _isVote */\n      iszero\n      iszero\n        /* \"contracts/fun_stuff.sol\":1211:1218  members */\n      0x00\n        /* \"contracts/fun_stuff.sol\":1211:1221  members[i] */\n      dup1\n        /* \"contracts/fun_stuff.sol\":1219:1220  i */\n      dup4\n        /* \"contracts/fun_stuff.sol\":1211:1221  members[i] */\n      dup2\n      mstore\n      0x20\n      add\n      swap1\n      dup2\n      mstore\n      0x20\n      add\n      0x00\n      keccak256\n        /* \"contracts/fun_stuff.sol\":1211:1229  members[i].isVoted */\n      0x02\n      add\n      0x00\n      swap1\n      sload\n      swap1\n      0x0100\n      exp\n      swap1\n      div\n      0xff\n      and\n        /* \"contracts/fun_stuff.sol\":1211:1240  members[i].isVoted == _isVote */\n      iszero\n      iszero\n      eq\n        /* \"contracts/fun_stuff.sol\":1207:1289  if (members[i].isVoted == _isVote) {\r... */\n      iszero\n      tag_78\n      jumpi\n        /* \"contracts/fun_stuff.sol\":1261:1273  votedCount++ */\n      dup2\n      dup1\n      0x01\n      add\n      swap3\n      pop\n      pop\n        /* \"contracts/fun_stuff.sol\":1207:1289  if (members[i].isVoted == _isVote) {\r... */\n    tag_78:\n        /* \"contracts/fun_stuff.sol\":1187:1190  i++ */\n      dup1\n      dup1\n      0x01\n      add\n      swap2\n      pop\n      pop\n        /* \"contracts/fun_stuff.sol\":1153:1300  for (uint i = 0; i < memberCount; i++) {\r... */\n      jump(tag_75)\n    tag_76:\n      pop\n        /* \"contracts/fun_stuff.sol\":1317:1327  votedCount */\n      dup1\n        /* \"contracts/fun_stuff.sol\":1310:1327  return votedCount */\n      swap2\n      pop\n      pop\n        /* \"contracts/fun_stuff.sol\":1048:1335  function getCountOfVoted(bool _isVote) public view returns(uint){\r... */\n      swap2\n      swap1\n      pop\n      jump\t// out\n        /* \"contracts/fun_stuff.sol\":890:999  function setVote(uint _memberId, bool _isVote) public {\r... */\n    tag_43:\n        /* \"contracts/fun_stuff.sol\":984:991  _isVote */\n      dup1\n        /* \"contracts/fun_stuff.sol\":955:962  members */\n      0x00\n        /* \"contracts/fun_stuff.sol\":955:973  members[_memberId] */\n      dup1\n        /* \"contracts/fun_stuff.sol\":963:972  _memberId */\n      dup5\n        /* \"contracts/fun_stuff.sol\":955:973  members[_memberId] */\n      dup2\n      mstore\n      0x20\n      add\n      swap1\n      dup2\n      mstore\n      0x20\n      add\n      0x00\n      keccak256\n        /* \"contracts/fun_stuff.sol\":955:981  members[_memberId].isVoted */\n      0x02\n      add\n      0x00\n        /* \"contracts/fun_stuff.sol\":955:991  members[_memberId].isVoted = _isVote */\n      0x0100\n      exp\n      dup2\n      sload\n      dup2\n      0xff\n      mul\n      not\n      and\n      swap1\n      dup4\n      iszero\n      iszero\n      mul\n      or\n      swap1\n      sstore\n      pop\n        /* \"contracts/fun_stuff.sol\":890:999  function setVote(uint _memberId, bool _isVote) public {\r... */\n      pop\n      pop\n      jump\t// out\n        /* \"contracts/fun_stuff.sol\":1643:1765  function getMemberStructure(uint _memberId) public view returns(Member memory){\r... */\n    tag_46:\n        /* \"contracts/fun_stuff.sol\":1707:1720  Member memory */\n      tag_80\n      tag_81\n      jump\t// in\n    tag_80:\n        /* \"contracts/fun_stuff.sol\":1739:1746  members */\n      0x00\n        /* \"contracts/fun_stuff.sol\":1739:1757  members[_memberId] */\n      dup1\n        /* \"contracts/fun_stuff.sol\":1747:1756  _memberId */\n      dup4\n        /* \"contracts/fun_stuff.sol\":1739:1757  members[_memberId] */\n      dup2\n      mstore\n      0x20\n      add\n      swap1\n      dup2\n      mstore\n      0x20\n      add\n      0x00\n      keccak256\n        /* \"contracts/fun_stuff.sol\":1732:1757  return members[_memberId] */\n      mload(0x40)\n      dup1\n      0x60\n      add\n      0x40\n      mstore\n      swap1\n      dup2\n      0x00\n      dup3\n      add\n      sload\n      dup2\n      mstore\n      0x20\n      add\n      0x01\n      dup3\n      add\n      dup1\n      sload\n      0x01\n      dup2\n      0x01\n      and\n      iszero\n      0x0100\n      mul\n      sub\n      and\n      0x02\n      swap1\n      div\n      dup1\n      0x1f\n      add\n      0x20\n      dup1\n      swap2\n      div\n      mul\n      0x20\n      add\n      mload(0x40)\n      swap1\n      dup2\n      add\n      0x40\n      mstore\n      dup1\n      swap3\n      swap2\n      swap1\n      dup2\n      dup2\n      mstore\n      0x20\n      add\n      dup3\n      dup1\n      sload\n      0x01\n      dup2\n      0x01\n      and\n      iszero\n      0x0100\n      mul\n      sub\n      and\n      0x02\n      swap1\n      div\n      dup1\n      iszero\n      tag_83\n      jumpi\n      dup1\n      0x1f\n      lt\n      tag_84\n      jumpi\n      0x0100\n      dup1\n      dup4\n      sload\n      div\n      mul\n      dup4\n      mstore\n      swap2\n      0x20\n      add\n      swap2\n      jump(tag_83)\n    tag_84:\n      dup3\n      add\n      swap2\n      swap1\n      0x00\n      mstore\n      keccak256(0x00, 0x20)\n      swap1\n    tag_85:\n      dup2\n      sload\n      dup2\n      mstore\n      swap1\n      0x01\n      add\n      swap1\n      0x20\n      add\n      dup1\n      dup4\n      gt\n      tag_85\n      jumpi\n      dup3\n      swap1\n      sub\n      0x1f\n      and\n      dup3\n      add\n      swap2\n    tag_83:\n      pop\n      pop\n      pop\n      pop\n      pop\n      dup2\n      mstore\n      0x20\n      add\n      0x02\n      dup3\n      add\n      0x00\n      swap1\n      sload\n      swap1\n      0x0100\n      exp\n      swap1\n      div\n      0xff\n      and\n      iszero\n      iszero\n      iszero\n      iszero\n      dup2\n      mstore\n      pop\n      pop\n      swap1\n      pop\n        /* \"contracts/fun_stuff.sol\":1643:1765  function getMemberStructure(uint _memberId) public view returns(Member memory){\r... */\n      swap2\n      swap1\n      pop\n      jump\t// out\n        /* \"contracts/fun_stuff.sol\":95:2362  contract VoteSaving {\r... */\n    tag_73:\n      dup3\n      dup1\n      sload\n      0x01\n      dup2\n      0x01\n      and\n      iszero\n      0x0100\n      mul\n      sub\n      and\n      0x02\n      swap1\n      div\n      swap1\n      0x00\n      mstore\n      keccak256(0x00, 0x20)\n      swap1\n      0x1f\n      add\n      0x20\n      swap1\n      div\n      dup2\n      add\n      swap3\n      dup3\n      0x1f\n      lt\n      tag_87\n      jumpi\n      dup1\n      mload\n      not(0xff)\n      and\n      dup4\n      dup1\n      add\n      or\n      dup6\n      sstore\n      jump(tag_86)\n    tag_87:\n      dup3\n      dup1\n      add\n      0x01\n      add\n      dup6\n      sstore\n      dup3\n      iszero\n      tag_86\n      jumpi\n      swap2\n      dup3\n      add\n    tag_88:\n      dup3\n      dup2\n      gt\n      iszero\n      tag_89\n      jumpi\n      dup3\n      mload\n      dup3\n      sstore\n      swap2\n      0x20\n      add\n      swap2\n      swap1\n      0x01\n      add\n      swap1\n      jump(tag_88)\n    tag_89:\n    tag_86:\n      pop\n      swap1\n      pop\n      tag_90\n      swap2\n      swap1\n      tag_91\n      jump\t// in\n    tag_90:\n      pop\n      swap1\n      jump\t// out\n    tag_81:\n      mload(0x40)\n      dup1\n      0x60\n      add\n      0x40\n      mstore\n      dup1\n      0x00\n      dup2\n      mstore\n      0x20\n      add\n      0x60\n      dup2\n      mstore\n      0x20\n      add\n      iszero(iszero(0x00))\n      dup2\n      mstore\n      pop\n      swap1\n      jump\t// out\n    tag_91:\n      tag_92\n      swap2\n      swap1\n    tag_93:\n      dup1\n      dup3\n      gt\n      iszero\n      tag_94\n      jumpi\n      0x00\n      dup2\n      0x00\n      swap1\n      sstore\n      pop\n      0x01\n      add\n      jump(tag_93)\n    tag_94:\n      pop\n      swap1\n      jump\n    tag_92:\n      swap1\n      jump\t// out\n        /* \"--CODEGEN--\":5:129   */\n    tag_96:\n      0x00\n        /* \"--CODEGEN--\":82:88   */\n      dup2\n        /* \"--CODEGEN--\":69:89   */\n      calldataload\n        /* \"--CODEGEN--\":60:89   */\n      swap1\n      pop\n        /* \"--CODEGEN--\":94:124   */\n      tag_98\n        /* \"--CODEGEN--\":118:123   */\n      dup2\n        /* \"--CODEGEN--\":94:124   */\n      jump(tag_99)\n    tag_98:\n        /* \"--CODEGEN--\":54:129   */\n      swap3\n      swap2\n      pop\n      pop\n      jump\n        /* \"--CODEGEN--\":137:579   */\n    tag_100:\n      0x00\n        /* \"--CODEGEN--\":239:242   */\n      dup3\n        /* \"--CODEGEN--\":232:236   */\n      0x1f\n        /* \"--CODEGEN--\":224:230   */\n      dup4\n        /* \"--CODEGEN--\":220:237   */\n      add\n        /* \"--CODEGEN--\":216:243   */\n      slt\n        /* \"--CODEGEN--\":206:208   */\n      tag_102\n      jumpi\n        /* \"--CODEGEN--\":257:258   */\n      0x00\n        /* \"--CODEGEN--\":254:255   */\n      dup1\n        /* \"--CODEGEN--\":247:259   */\n      revert\n        /* \"--CODEGEN--\":206:208   */\n    tag_102:\n        /* \"--CODEGEN--\":294:300   */\n      dup2\n        /* \"--CODEGEN--\":281:301   */\n      calldataload\n        /* \"--CODEGEN--\":316:381   */\n      tag_103\n        /* \"--CODEGEN--\":331:380   */\n      tag_104\n        /* \"--CODEGEN--\":373:379   */\n      dup3\n        /* \"--CODEGEN--\":331:380   */\n      jump(tag_105)\n    tag_104:\n        /* \"--CODEGEN--\":316:381   */\n      jump(tag_106)\n    tag_103:\n        /* \"--CODEGEN--\":307:381   */\n      swap2\n      pop\n        /* \"--CODEGEN--\":401:407   */\n      dup1\n        /* \"--CODEGEN--\":394:399   */\n      dup3\n        /* \"--CODEGEN--\":387:408   */\n      mstore\n        /* \"--CODEGEN--\":437:441   */\n      0x20\n        /* \"--CODEGEN--\":429:435   */\n      dup4\n        /* \"--CODEGEN--\":425:442   */\n      add\n        /* \"--CODEGEN--\":470:474   */\n      0x20\n        /* \"--CODEGEN--\":463:468   */\n      dup4\n        /* \"--CODEGEN--\":459:475   */\n      add\n        /* \"--CODEGEN--\":505:508   */\n      dup6\n        /* \"--CODEGEN--\":496:502   */\n      dup4\n        /* \"--CODEGEN--\":491:494   */\n      dup4\n        /* \"--CODEGEN--\":487:503   */\n      add\n        /* \"--CODEGEN--\":484:509   */\n      gt\n        /* \"--CODEGEN--\":481:483   */\n      iszero\n      tag_107\n      jumpi\n        /* \"--CODEGEN--\":522:523   */\n      0x00\n        /* \"--CODEGEN--\":519:520   */\n      dup1\n        /* \"--CODEGEN--\":512:524   */\n      revert\n        /* \"--CODEGEN--\":481:483   */\n    tag_107:\n        /* \"--CODEGEN--\":532:573   */\n      tag_108\n        /* \"--CODEGEN--\":566:572   */\n      dup4\n        /* \"--CODEGEN--\":561:564   */\n      dup3\n        /* \"--CODEGEN--\":556:559   */\n      dup5\n        /* \"--CODEGEN--\":532:573   */\n      jump(tag_109)\n    tag_108:\n        /* \"--CODEGEN--\":199:579   */\n      pop\n      pop\n      pop\n      swap3\n      swap2\n      pop\n      pop\n      jump\n        /* \"--CODEGEN--\":587:717   */\n    tag_110:\n      0x00\n        /* \"--CODEGEN--\":667:673   */\n      dup2\n        /* \"--CODEGEN--\":654:674   */\n      calldataload\n        /* \"--CODEGEN--\":645:674   */\n      swap1\n      pop\n        /* \"--CODEGEN--\":679:712   */\n      tag_112\n        /* \"--CODEGEN--\":706:711   */\n      dup2\n        /* \"--CODEGEN--\":679:712   */\n      jump(tag_113)\n    tag_112:\n        /* \"--CODEGEN--\":639:717   */\n      swap3\n      swap2\n      pop\n      pop\n      jump\n        /* \"--CODEGEN--\":724:959   */\n    tag_28:\n      0x00\n        /* \"--CODEGEN--\":825:827   */\n      0x20\n        /* \"--CODEGEN--\":813:822   */\n      dup3\n        /* \"--CODEGEN--\":804:811   */\n      dup5\n        /* \"--CODEGEN--\":800:823   */\n      sub\n        /* \"--CODEGEN--\":796:828   */\n      slt\n        /* \"--CODEGEN--\":793:795   */\n      iszero\n      tag_115\n      jumpi\n        /* \"--CODEGEN--\":841:842   */\n      0x00\n        /* \"--CODEGEN--\":838:839   */\n      dup1\n        /* \"--CODEGEN--\":831:843   */\n      revert\n        /* \"--CODEGEN--\":793:795   */\n    tag_115:\n        /* \"--CODEGEN--\":876:877   */\n      0x00\n        /* \"--CODEGEN--\":893:943   */\n      tag_116\n        /* \"--CODEGEN--\":935:942   */\n      dup5\n        /* \"--CODEGEN--\":926:932   */\n      dup3\n        /* \"--CODEGEN--\":915:924   */\n      dup6\n        /* \"--CODEGEN--\":911:933   */\n      add\n        /* \"--CODEGEN--\":893:943   */\n      jump(tag_96)\n    tag_116:\n        /* \"--CODEGEN--\":883:943   */\n      swap2\n      pop\n        /* \"--CODEGEN--\":855:949   */\n      pop\n        /* \"--CODEGEN--\":787:959   */\n      swap3\n      swap2\n      pop\n      pop\n      jump\n        /* \"--CODEGEN--\":966:1432   */\n    tag_34:\n      0x00\n      dup1\n        /* \"--CODEGEN--\":1094:1096   */\n      0x40\n        /* \"--CODEGEN--\":1082:1091   */\n      dup4\n        /* \"--CODEGEN--\":1073:1080   */\n      dup6\n        /* \"--CODEGEN--\":1069:1092   */\n      sub\n        /* \"--CODEGEN--\":1065:1097   */\n      slt\n        /* \"--CODEGEN--\":1062:1064   */\n      iszero\n      tag_118\n      jumpi\n        /* \"--CODEGEN--\":1110:1111   */\n      0x00\n        /* \"--CODEGEN--\":1107:1108   */\n      dup1\n        /* \"--CODEGEN--\":1100:1112   */\n      revert\n        /* \"--CODEGEN--\":1062:1064   */\n    tag_118:\n        /* \"--CODEGEN--\":1173:1174   */\n      0x00\n        /* \"--CODEGEN--\":1162:1171   */\n      dup4\n        /* \"--CODEGEN--\":1158:1175   */\n      add\n        /* \"--CODEGEN--\":1145:1176   */\n      calldataload\n        /* \"--CODEGEN--\":1196:1214   */\n      0xffffffffffffffff\n        /* \"--CODEGEN--\":1188:1194   */\n      dup2\n        /* \"--CODEGEN--\":1185:1215   */\n      gt\n        /* \"--CODEGEN--\":1182:1184   */\n      iszero\n      tag_119\n      jumpi\n        /* \"--CODEGEN--\":1228:1229   */\n      0x00\n        /* \"--CODEGEN--\":1225:1226   */\n      dup1\n        /* \"--CODEGEN--\":1218:1230   */\n      revert\n        /* \"--CODEGEN--\":1182:1184   */\n    tag_119:\n        /* \"--CODEGEN--\":1248:1311   */\n      tag_120\n        /* \"--CODEGEN--\":1303:1310   */\n      dup6\n        /* \"--CODEGEN--\":1294:1300   */\n      dup3\n        /* \"--CODEGEN--\":1283:1292   */\n      dup7\n        /* \"--CODEGEN--\":1279:1301   */\n      add\n        /* \"--CODEGEN--\":1248:1311   */\n      jump(tag_100)\n    tag_120:\n        /* \"--CODEGEN--\":1238:1311   */\n      swap3\n      pop\n        /* \"--CODEGEN--\":1124:1317   */\n      pop\n        /* \"--CODEGEN--\":1348:1350   */\n      0x20\n        /* \"--CODEGEN--\":1366:1416   */\n      tag_121\n        /* \"--CODEGEN--\":1408:1415   */\n      dup6\n        /* \"--CODEGEN--\":1399:1405   */\n      dup3\n        /* \"--CODEGEN--\":1388:1397   */\n      dup7\n        /* \"--CODEGEN--\":1384:1406   */\n      add\n        /* \"--CODEGEN--\":1366:1416   */\n      jump(tag_96)\n    tag_121:\n        /* \"--CODEGEN--\":1356:1416   */\n      swap2\n      pop\n        /* \"--CODEGEN--\":1327:1422   */\n      pop\n        /* \"--CODEGEN--\":1056:1432   */\n      swap3\n      pop\n      swap3\n      swap1\n      pop\n      jump\n        /* \"--CODEGEN--\":1439:1680   */\n    tag_18:\n      0x00\n        /* \"--CODEGEN--\":1543:1545   */\n      0x20\n        /* \"--CODEGEN--\":1531:1540   */\n      dup3\n        /* \"--CODEGEN--\":1522:1529   */\n      dup5\n        /* \"--CODEGEN--\":1518:1541   */\n      sub\n        /* \"--CODEGEN--\":1514:1546   */\n      slt\n        /* \"--CODEGEN--\":1511:1513   */\n      iszero\n      tag_123\n      jumpi\n        /* \"--CODEGEN--\":1559:1560   */\n      0x00\n        /* \"--CODEGEN--\":1556:1557   */\n      dup1\n        /* \"--CODEGEN--\":1549:1561   */\n      revert\n        /* \"--CODEGEN--\":1511:1513   */\n    tag_123:\n        /* \"--CODEGEN--\":1594:1595   */\n      0x00\n        /* \"--CODEGEN--\":1611:1664   */\n      tag_124\n        /* \"--CODEGEN--\":1656:1663   */\n      dup5\n        /* \"--CODEGEN--\":1647:1653   */\n      dup3\n        /* \"--CODEGEN--\":1636:1645   */\n      dup6\n        /* \"--CODEGEN--\":1632:1654   */\n      add\n        /* \"--CODEGEN--\":1611:1664   */\n      jump(tag_110)\n    tag_124:\n        /* \"--CODEGEN--\":1601:1664   */\n      swap2\n      pop\n        /* \"--CODEGEN--\":1573:1670   */\n      pop\n        /* \"--CODEGEN--\":1505:1680   */\n      swap3\n      swap2\n      pop\n      pop\n      jump\n        /* \"--CODEGEN--\":1687:2047   */\n    tag_42:\n      0x00\n      dup1\n        /* \"--CODEGEN--\":1805:1807   */\n      0x40\n        /* \"--CODEGEN--\":1793:1802   */\n      dup4\n        /* \"--CODEGEN--\":1784:1791   */\n      dup6\n        /* \"--CODEGEN--\":1780:1803   */\n      sub\n        /* \"--CODEGEN--\":1776:1808   */\n      slt\n        /* \"--CODEGEN--\":1773:1775   */\n      iszero\n      tag_126\n      jumpi\n        /* \"--CODEGEN--\":1821:1822   */\n      0x00\n        /* \"--CODEGEN--\":1818:1819   */\n      dup1\n        /* \"--CODEGEN--\":1811:1823   */\n      revert\n        /* \"--CODEGEN--\":1773:1775   */\n    tag_126:\n        /* \"--CODEGEN--\":1856:1857   */\n      0x00\n        /* \"--CODEGEN--\":1873:1926   */\n      tag_127\n        /* \"--CODEGEN--\":1918:1925   */\n      dup6\n        /* \"--CODEGEN--\":1909:1915   */\n      dup3\n        /* \"--CODEGEN--\":1898:1907   */\n      dup7\n        /* \"--CODEGEN--\":1894:1916   */\n      add\n        /* \"--CODEGEN--\":1873:1926   */\n      jump(tag_110)\n    tag_127:\n        /* \"--CODEGEN--\":1863:1926   */\n      swap3\n      pop\n        /* \"--CODEGEN--\":1835:1932   */\n      pop\n        /* \"--CODEGEN--\":1963:1965   */\n      0x20\n        /* \"--CODEGEN--\":1981:2031   */\n      tag_128\n        /* \"--CODEGEN--\":2023:2030   */\n      dup6\n        /* \"--CODEGEN--\":2014:2020   */\n      dup3\n        /* \"--CODEGEN--\":2003:2012   */\n      dup7\n        /* \"--CODEGEN--\":1999:2021   */\n      add\n        /* \"--CODEGEN--\":1981:2031   */\n      jump(tag_96)\n    tag_128:\n        /* \"--CODEGEN--\":1971:2031   */\n      swap2\n      pop\n        /* \"--CODEGEN--\":1942:2037   */\n      pop\n        /* \"--CODEGEN--\":1767:2047   */\n      swap3\n      pop\n      swap3\n      swap1\n      pop\n      jump\n        /* \"--CODEGEN--\":2055:2216   */\n    tag_129:\n      0x00\n        /* \"--CODEGEN--\":2136:2176   */\n      tag_131\n        /* \"--CODEGEN--\":2172:2175   */\n      dup4\n        /* \"--CODEGEN--\":2164:2170   */\n      dup4\n        /* \"--CODEGEN--\":2136:2176   */\n      jump(tag_132)\n    tag_131:\n        /* \"--CODEGEN--\":2205:2209   */\n      0x20\n        /* \"--CODEGEN--\":2200:2203   */\n      dup4\n        /* \"--CODEGEN--\":2196:2210   */\n      add\n        /* \"--CODEGEN--\":2182:2210   */\n      swap1\n      pop\n        /* \"--CODEGEN--\":2129:2216   */\n      swap3\n      swap2\n      pop\n      pop\n      jump\n        /* \"--CODEGEN--\":2225:2406   */\n    tag_133:\n      0x00\n        /* \"--CODEGEN--\":2338:2400   */\n      tag_135\n        /* \"--CODEGEN--\":2396:2399   */\n      dup4\n        /* \"--CODEGEN--\":2388:2394   */\n      dup4\n        /* \"--CODEGEN--\":2338:2400   */\n      jump(tag_136)\n    tag_135:\n        /* \"--CODEGEN--\":2324:2400   */\n      swap1\n      pop\n        /* \"--CODEGEN--\":2317:2406   */\n      swap3\n      swap2\n      pop\n      pop\n      jump\n        /* \"--CODEGEN--\":2415:2588   */\n    tag_137:\n      0x00\n        /* \"--CODEGEN--\":2502:2548   */\n      tag_139\n        /* \"--CODEGEN--\":2544:2547   */\n      dup4\n        /* \"--CODEGEN--\":2536:2542   */\n      dup4\n        /* \"--CODEGEN--\":2502:2548   */\n      jump(tag_140)\n    tag_139:\n        /* \"--CODEGEN--\":2577:2581   */\n      0x20\n        /* \"--CODEGEN--\":2572:2575   */\n      dup4\n        /* \"--CODEGEN--\":2568:2582   */\n      add\n        /* \"--CODEGEN--\":2554:2582   */\n      swap1\n      pop\n        /* \"--CODEGEN--\":2495:2588   */\n      swap3\n      swap2\n      pop\n      pop\n      jump\n        /* \"--CODEGEN--\":2621:3287   */\n    tag_141:\n      0x00\n        /* \"--CODEGEN--\":2760:2811   */\n      tag_143\n        /* \"--CODEGEN--\":2805:2810   */\n      dup3\n        /* \"--CODEGEN--\":2760:2811   */\n      jump(tag_144)\n    tag_143:\n        /* \"--CODEGEN--\":2824:2907   */\n      tag_145\n        /* \"--CODEGEN--\":2900:2906   */\n      dup2\n        /* \"--CODEGEN--\":2895:2898   */\n      dup6\n        /* \"--CODEGEN--\":2824:2907   */\n      jump(tag_146)\n    tag_145:\n        /* \"--CODEGEN--\":2817:2907   */\n      swap4\n      pop\n        /* \"--CODEGEN--\":2928:2981   */\n      tag_147\n        /* \"--CODEGEN--\":2975:2980   */\n      dup4\n        /* \"--CODEGEN--\":2928:2981   */\n      jump(tag_148)\n    tag_147:\n        /* \"--CODEGEN--\":3001:3008   */\n      dup1\n        /* \"--CODEGEN--\":3029:3030   */\n      0x00\n        /* \"--CODEGEN--\":3014:3265   */\n    tag_149:\n        /* \"--CODEGEN--\":3039:3045   */\n      dup4\n        /* \"--CODEGEN--\":3036:3037   */\n      dup2\n        /* \"--CODEGEN--\":3033:3046   */\n      lt\n        /* \"--CODEGEN--\":3014:3265   */\n      iszero\n      tag_151\n      jumpi\n        /* \"--CODEGEN--\":3106:3112   */\n      dup2\n        /* \"--CODEGEN--\":3100:3113   */\n      mload\n        /* \"--CODEGEN--\":3127:3184   */\n      tag_152\n        /* \"--CODEGEN--\":3180:3183   */\n      dup9\n        /* \"--CODEGEN--\":3165:3178   */\n      dup3\n        /* \"--CODEGEN--\":3127:3184   */\n      jump(tag_129)\n    tag_152:\n        /* \"--CODEGEN--\":3120:3184   */\n      swap8\n      pop\n        /* \"--CODEGEN--\":3201:3258   */\n      tag_153\n        /* \"--CODEGEN--\":3251:3257   */\n      dup4\n        /* \"--CODEGEN--\":3201:3258   */\n      jump(tag_154)\n    tag_153:\n        /* \"--CODEGEN--\":3191:3258   */\n      swap3\n      pop\n        /* \"--CODEGEN--\":3071:3265   */\n      pop\n        /* \"--CODEGEN--\":3061:3062   */\n      0x01\n        /* \"--CODEGEN--\":3058:3059   */\n      dup2\n        /* \"--CODEGEN--\":3054:3063   */\n      add\n        /* \"--CODEGEN--\":3049:3063   */\n      swap1\n      pop\n        /* \"--CODEGEN--\":3014:3265   */\n      jump(tag_149)\n    tag_151:\n        /* \"--CODEGEN--\":3018:3032   */\n      pop\n        /* \"--CODEGEN--\":3278:3281   */\n      dup6\n        /* \"--CODEGEN--\":3271:3281   */\n      swap4\n      pop\n        /* \"--CODEGEN--\":2739:3287   */\n      pop\n      pop\n      pop\n      swap3\n      swap2\n      pop\n      pop\n      jump\n        /* \"--CODEGEN--\":3324:4220   */\n    tag_155:\n      0x00\n        /* \"--CODEGEN--\":3481:3541   */\n      tag_157\n        /* \"--CODEGEN--\":3535:3540   */\n      dup3\n        /* \"--CODEGEN--\":3481:3541   */\n      jump(tag_158)\n    tag_157:\n        /* \"--CODEGEN--\":3554:3646   */\n      tag_159\n        /* \"--CODEGEN--\":3639:3645   */\n      dup2\n        /* \"--CODEGEN--\":3634:3637   */\n      dup6\n        /* \"--CODEGEN--\":3554:3646   */\n      jump(tag_160)\n    tag_159:\n        /* \"--CODEGEN--\":3547:3646   */\n      swap4\n      pop\n        /* \"--CODEGEN--\":3669:3672   */\n      dup4\n        /* \"--CODEGEN--\":3711:3715   */\n      0x20\n        /* \"--CODEGEN--\":3703:3709   */\n      dup3\n        /* \"--CODEGEN--\":3699:3716   */\n      mul\n        /* \"--CODEGEN--\":3694:3697   */\n      dup6\n        /* \"--CODEGEN--\":3690:3717   */\n      add\n        /* \"--CODEGEN--\":3738:3800   */\n      tag_161\n        /* \"--CODEGEN--\":3794:3799   */\n      dup6\n        /* \"--CODEGEN--\":3738:3800   */\n      jump(tag_162)\n    tag_161:\n        /* \"--CODEGEN--\":3820:3827   */\n      dup1\n        /* \"--CODEGEN--\":3848:3849   */\n      0x00\n        /* \"--CODEGEN--\":3833:4181   */\n    tag_163:\n        /* \"--CODEGEN--\":3858:3864   */\n      dup6\n        /* \"--CODEGEN--\":3855:3856   */\n      dup2\n        /* \"--CODEGEN--\":3852:3865   */\n      lt\n        /* \"--CODEGEN--\":3833:4181   */\n      iszero\n      tag_165\n      jumpi\n        /* \"--CODEGEN--\":3920:3929   */\n      dup5\n        /* \"--CODEGEN--\":3914:3918   */\n      dup5\n        /* \"--CODEGEN--\":3910:3930   */\n      sub\n        /* \"--CODEGEN--\":3905:3908   */\n      dup10\n        /* \"--CODEGEN--\":3898:3931   */\n      mstore\n        /* \"--CODEGEN--\":3965:3971   */\n      dup2\n        /* \"--CODEGEN--\":3959:3972   */\n      mload\n        /* \"--CODEGEN--\":3987:4063   */\n      tag_166\n        /* \"--CODEGEN--\":4058:4062   */\n      dup6\n        /* \"--CODEGEN--\":4043:4056   */\n      dup3\n        /* \"--CODEGEN--\":3987:4063   */\n      jump(tag_133)\n    tag_166:\n        /* \"--CODEGEN--\":3979:4063   */\n      swap5\n      pop\n        /* \"--CODEGEN--\":4080:4146   */\n      tag_167\n        /* \"--CODEGEN--\":4139:4145   */\n      dup4\n        /* \"--CODEGEN--\":4080:4146   */\n      jump(tag_168)\n    tag_167:\n        /* \"--CODEGEN--\":4070:4146   */\n      swap3\n      pop\n        /* \"--CODEGEN--\":4169:4173   */\n      0x20\n        /* \"--CODEGEN--\":4164:4167   */\n      dup11\n        /* \"--CODEGEN--\":4160:4174   */\n      add\n        /* \"--CODEGEN--\":4153:4174   */\n      swap10\n      pop\n        /* \"--CODEGEN--\":3890:4181   */\n      pop\n        /* \"--CODEGEN--\":3880:3881   */\n      0x01\n        /* \"--CODEGEN--\":3877:3878   */\n      dup2\n        /* \"--CODEGEN--\":3873:3882   */\n      add\n        /* \"--CODEGEN--\":3868:3882   */\n      swap1\n      pop\n        /* \"--CODEGEN--\":3833:4181   */\n      jump(tag_163)\n    tag_165:\n        /* \"--CODEGEN--\":3837:3851   */\n      pop\n        /* \"--CODEGEN--\":4194:4198   */\n      dup3\n        /* \"--CODEGEN--\":4187:4198   */\n      swap8\n      pop\n        /* \"--CODEGEN--\":4211:4214   */\n      dup8\n        /* \"--CODEGEN--\":4204:4214   */\n      swap6\n      pop\n        /* \"--CODEGEN--\":3460:4220   */\n      pop\n      pop\n      pop\n      pop\n      pop\n      swap3\n      swap2\n      pop\n      pop\n      jump\n        /* \"--CODEGEN--\":4259:4949   */\n    tag_169:\n      0x00\n        /* \"--CODEGEN--\":4404:4458   */\n      tag_171\n        /* \"--CODEGEN--\":4452:4457   */\n      dup3\n        /* \"--CODEGEN--\":4404:4458   */\n      jump(tag_172)\n    tag_171:\n        /* \"--CODEGEN--\":4471:4557   */\n      tag_173\n        /* \"--CODEGEN--\":4550:4556   */\n      dup2\n        /* \"--CODEGEN--\":4545:4548   */\n      dup6\n        /* \"--CODEGEN--\":4471:4557   */\n      jump(tag_174)\n    tag_173:\n        /* \"--CODEGEN--\":4464:4557   */\n      swap4\n      pop\n        /* \"--CODEGEN--\":4578:4634   */\n      tag_175\n        /* \"--CODEGEN--\":4628:4633   */\n      dup4\n        /* \"--CODEGEN--\":4578:4634   */\n      jump(tag_176)\n    tag_175:\n        /* \"--CODEGEN--\":4654:4661   */\n      dup1\n        /* \"--CODEGEN--\":4682:4683   */\n      0x00\n        /* \"--CODEGEN--\":4667:4927   */\n    tag_177:\n        /* \"--CODEGEN--\":4692:4698   */\n      dup4\n        /* \"--CODEGEN--\":4689:4690   */\n      dup2\n        /* \"--CODEGEN--\":4686:4699   */\n      lt\n        /* \"--CODEGEN--\":4667:4927   */\n      iszero\n      tag_179\n      jumpi\n        /* \"--CODEGEN--\":4759:4765   */\n      dup2\n        /* \"--CODEGEN--\":4753:4766   */\n      mload\n        /* \"--CODEGEN--\":4780:4843   */\n      tag_180\n        /* \"--CODEGEN--\":4839:4842   */\n      dup9\n        /* \"--CODEGEN--\":4824:4837   */\n      dup3\n        /* \"--CODEGEN--\":4780:4843   */\n      jump(tag_137)\n    tag_180:\n        /* \"--CODEGEN--\":4773:4843   */\n      swap8\n      pop\n        /* \"--CODEGEN--\":4860:4920   */\n      tag_181\n        /* \"--CODEGEN--\":4913:4919   */\n      dup4\n        /* \"--CODEGEN--\":4860:4920   */\n      jump(tag_182)\n    tag_181:\n        /* \"--CODEGEN--\":4850:4920   */\n      swap3\n      pop\n        /* \"--CODEGEN--\":4724:4927   */\n      pop\n        /* \"--CODEGEN--\":4714:4715   */\n      0x01\n        /* \"--CODEGEN--\":4711:4712   */\n      dup2\n        /* \"--CODEGEN--\":4707:4716   */\n      add\n        /* \"--CODEGEN--\":4702:4716   */\n      swap1\n      pop\n        /* \"--CODEGEN--\":4667:4927   */\n      jump(tag_177)\n    tag_179:\n        /* \"--CODEGEN--\":4671:4685   */\n      pop\n        /* \"--CODEGEN--\":4940:4943   */\n      dup6\n        /* \"--CODEGEN--\":4933:4943   */\n      swap4\n      pop\n        /* \"--CODEGEN--\":4383:4949   */\n      pop\n      pop\n      pop\n      swap3\n      swap2\n      pop\n      pop\n      jump\n        /* \"--CODEGEN--\":4957:5051   */\n    tag_132:\n        /* \"--CODEGEN--\":5024:5045   */\n      tag_184\n        /* \"--CODEGEN--\":5039:5044   */\n      dup2\n        /* \"--CODEGEN--\":5024:5045   */\n      jump(tag_185)\n    tag_184:\n        /* \"--CODEGEN--\":5019:5022   */\n      dup3\n        /* \"--CODEGEN--\":5012:5046   */\n      mstore\n        /* \"--CODEGEN--\":5006:5051   */\n      pop\n      pop\n      jump\n        /* \"--CODEGEN--\":5058:5162   */\n    tag_186:\n        /* \"--CODEGEN--\":5135:5156   */\n      tag_188\n        /* \"--CODEGEN--\":5150:5155   */\n      dup2\n        /* \"--CODEGEN--\":5135:5156   */\n      jump(tag_185)\n    tag_188:\n        /* \"--CODEGEN--\":5130:5133   */\n      dup3\n        /* \"--CODEGEN--\":5123:5157   */\n      mstore\n        /* \"--CODEGEN--\":5117:5162   */\n      pop\n      pop\n      jump\n        /* \"--CODEGEN--\":5169:5488   */\n    tag_136:\n      0x00\n        /* \"--CODEGEN--\":5267:5302   */\n      tag_190\n        /* \"--CODEGEN--\":5296:5301   */\n      dup3\n        /* \"--CODEGEN--\":5267:5302   */\n      jump(tag_191)\n    tag_190:\n        /* \"--CODEGEN--\":5314:5375   */\n      tag_192\n        /* \"--CODEGEN--\":5368:5374   */\n      dup2\n        /* \"--CODEGEN--\":5363:5366   */\n      dup6\n        /* \"--CODEGEN--\":5314:5375   */\n      jump(tag_193)\n    tag_192:\n        /* \"--CODEGEN--\":5307:5375   */\n      swap4\n      pop\n        /* \"--CODEGEN--\":5380:5432   */\n      tag_194\n        /* \"--CODEGEN--\":5425:5431   */\n      dup2\n        /* \"--CODEGEN--\":5420:5423   */\n      dup6\n        /* \"--CODEGEN--\":5413:5417   */\n      0x20\n        /* \"--CODEGEN--\":5406:5411   */\n      dup7\n        /* \"--CODEGEN--\":5402:5418   */\n      add\n        /* \"--CODEGEN--\":5380:5432   */\n      jump(tag_195)\n    tag_194:\n        /* \"--CODEGEN--\":5453:5482   */\n      tag_196\n        /* \"--CODEGEN--\":5475:5481   */\n      dup2\n        /* \"--CODEGEN--\":5453:5482   */\n      jump(tag_197)\n    tag_196:\n        /* \"--CODEGEN--\":5448:5451   */\n      dup5\n        /* \"--CODEGEN--\":5444:5483   */\n      add\n        /* \"--CODEGEN--\":5437:5483   */\n      swap2\n      pop\n        /* \"--CODEGEN--\":5247:5488   */\n      pop\n      swap3\n      swap2\n      pop\n      pop\n      jump\n        /* \"--CODEGEN--\":5495:5834   */\n    tag_198:\n      0x00\n        /* \"--CODEGEN--\":5603:5638   */\n      tag_200\n        /* \"--CODEGEN--\":5632:5637   */\n      dup3\n        /* \"--CODEGEN--\":5603:5638   */\n      jump(tag_191)\n    tag_200:\n        /* \"--CODEGEN--\":5650:5721   */\n      tag_201\n        /* \"--CODEGEN--\":5714:5720   */\n      dup2\n        /* \"--CODEGEN--\":5709:5712   */\n      dup6\n        /* \"--CODEGEN--\":5650:5721   */\n      jump(tag_202)\n    tag_201:\n        /* \"--CODEGEN--\":5643:5721   */\n      swap4\n      pop\n        /* \"--CODEGEN--\":5726:5778   */\n      tag_203\n        /* \"--CODEGEN--\":5771:5777   */\n      dup2\n        /* \"--CODEGEN--\":5766:5769   */\n      dup6\n        /* \"--CODEGEN--\":5759:5763   */\n      0x20\n        /* \"--CODEGEN--\":5752:5757   */\n      dup7\n        /* \"--CODEGEN--\":5748:5764   */\n      add\n        /* \"--CODEGEN--\":5726:5778   */\n      jump(tag_195)\n    tag_203:\n        /* \"--CODEGEN--\":5799:5828   */\n      tag_204\n        /* \"--CODEGEN--\":5821:5827   */\n      dup2\n        /* \"--CODEGEN--\":5799:5828   */\n      jump(tag_197)\n    tag_204:\n        /* \"--CODEGEN--\":5794:5797   */\n      dup5\n        /* \"--CODEGEN--\":5790:5829   */\n      add\n        /* \"--CODEGEN--\":5783:5829   */\n      swap2\n      pop\n        /* \"--CODEGEN--\":5583:5834   */\n      pop\n      swap3\n      swap2\n      pop\n      pop\n      jump\n        /* \"--CODEGEN--\":5900:6608   */\n    tag_205:\n      0x00\n        /* \"--CODEGEN--\":6043:6047   */\n      0x60\n        /* \"--CODEGEN--\":6038:6041   */\n      dup4\n        /* \"--CODEGEN--\":6034:6048   */\n      add\n        /* \"--CODEGEN--\":6124:6128   */\n      0x00\n        /* \"--CODEGEN--\":6117:6122   */\n      dup4\n        /* \"--CODEGEN--\":6113:6129   */\n      add\n        /* \"--CODEGEN--\":6107:6130   */\n      mload\n        /* \"--CODEGEN--\":6136:6199   */\n      tag_207\n        /* \"--CODEGEN--\":6193:6197   */\n      0x00\n        /* \"--CODEGEN--\":6188:6191   */\n      dup7\n        /* \"--CODEGEN--\":6184:6198   */\n      add\n        /* \"--CODEGEN--\":6170:6182   */\n      dup3\n        /* \"--CODEGEN--\":6136:6199   */\n      jump(tag_140)\n    tag_207:\n        /* \"--CODEGEN--\":6063:6205   */\n      pop\n        /* \"--CODEGEN--\":6278:6282   */\n      0x20\n        /* \"--CODEGEN--\":6271:6276   */\n      dup4\n        /* \"--CODEGEN--\":6267:6283   */\n      add\n        /* \"--CODEGEN--\":6261:6284   */\n      mload\n        /* \"--CODEGEN--\":6330:6333   */\n      dup5\n        /* \"--CODEGEN--\":6324:6328   */\n      dup3\n        /* \"--CODEGEN--\":6320:6334   */\n      sub\n        /* \"--CODEGEN--\":6313:6317   */\n      0x20\n        /* \"--CODEGEN--\":6308:6311   */\n      dup7\n        /* \"--CODEGEN--\":6304:6318   */\n      add\n        /* \"--CODEGEN--\":6297:6335   */\n      mstore\n        /* \"--CODEGEN--\":6350:6419   */\n      tag_208\n        /* \"--CODEGEN--\":6414:6418   */\n      dup3\n        /* \"--CODEGEN--\":6400:6412   */\n      dup3\n        /* \"--CODEGEN--\":6350:6419   */\n      jump(tag_136)\n    tag_208:\n        /* \"--CODEGEN--\":6342:6419   */\n      swap2\n      pop\n        /* \"--CODEGEN--\":6215:6431   */\n      pop\n        /* \"--CODEGEN--\":6507:6511   */\n      0x40\n        /* \"--CODEGEN--\":6500:6505   */\n      dup4\n        /* \"--CODEGEN--\":6496:6512   */\n      add\n        /* \"--CODEGEN--\":6490:6513   */\n      mload\n        /* \"--CODEGEN--\":6519:6576   */\n      tag_209\n        /* \"--CODEGEN--\":6570:6574   */\n      0x40\n        /* \"--CODEGEN--\":6565:6568   */\n      dup7\n        /* \"--CODEGEN--\":6561:6575   */\n      add\n        /* \"--CODEGEN--\":6547:6559   */\n      dup3\n        /* \"--CODEGEN--\":6519:6576   */\n      jump(tag_132)\n    tag_209:\n        /* \"--CODEGEN--\":6441:6582   */\n      pop\n        /* \"--CODEGEN--\":6599:6603   */\n      dup1\n        /* \"--CODEGEN--\":6592:6603   */\n      swap2\n      pop\n        /* \"--CODEGEN--\":6016:6608   */\n      pop\n      swap3\n      swap2\n      pop\n      pop\n      jump\n        /* \"--CODEGEN--\":6615:6718   */\n    tag_140:\n        /* \"--CODEGEN--\":6688:6712   */\n      tag_211\n        /* \"--CODEGEN--\":6706:6711   */\n      dup2\n        /* \"--CODEGEN--\":6688:6712   */\n      jump(tag_212)\n    tag_211:\n        /* \"--CODEGEN--\":6683:6686   */\n      dup3\n        /* \"--CODEGEN--\":6676:6713   */\n      mstore\n        /* \"--CODEGEN--\":6670:6718   */\n      pop\n      pop\n      jump\n        /* \"--CODEGEN--\":6725:6838   */\n    tag_213:\n        /* \"--CODEGEN--\":6808:6832   */\n      tag_215\n        /* \"--CODEGEN--\":6826:6831   */\n      dup2\n        /* \"--CODEGEN--\":6808:6832   */\n      jump(tag_212)\n    tag_215:\n        /* \"--CODEGEN--\":6803:6806   */\n      dup3\n        /* \"--CODEGEN--\":6796:6833   */\n      mstore\n        /* \"--CODEGEN--\":6790:6838   */\n      pop\n      pop\n      jump\n        /* \"--CODEGEN--\":6845:7206   */\n    tag_31:\n      0x00\n        /* \"--CODEGEN--\":7013:7015   */\n      0x20\n        /* \"--CODEGEN--\":7002:7011   */\n      dup3\n        /* \"--CODEGEN--\":6998:7016   */\n      add\n        /* \"--CODEGEN--\":6990:7016   */\n      swap1\n      pop\n        /* \"--CODEGEN--\":7063:7072   */\n      dup2\n        /* \"--CODEGEN--\":7057:7061   */\n      dup2\n        /* \"--CODEGEN--\":7053:7073   */\n      sub\n        /* \"--CODEGEN--\":7049:7050   */\n      0x00\n        /* \"--CODEGEN--\":7038:7047   */\n      dup4\n        /* \"--CODEGEN--\":7034:7051   */\n      add\n        /* \"--CODEGEN--\":7027:7074   */\n      mstore\n        /* \"--CODEGEN--\":7088:7196   */\n      tag_217\n        /* \"--CODEGEN--\":7191:7195   */\n      dup2\n        /* \"--CODEGEN--\":7182:7188   */\n      dup5\n        /* \"--CODEGEN--\":7088:7196   */\n      jump(tag_169)\n    tag_217:\n        /* \"--CODEGEN--\":7080:7196   */\n      swap1\n      pop\n        /* \"--CODEGEN--\":6984:7206   */\n      swap3\n      swap2\n      pop\n      pop\n      jump\n        /* \"--CODEGEN--\":7213:8104   */\n    tag_25:\n      0x00\n        /* \"--CODEGEN--\":7543:7545   */\n      0x60\n        /* \"--CODEGEN--\":7532:7541   */\n      dup3\n        /* \"--CODEGEN--\":7528:7546   */\n      add\n        /* \"--CODEGEN--\":7520:7546   */\n      swap1\n      pop\n        /* \"--CODEGEN--\":7593:7602   */\n      dup2\n        /* \"--CODEGEN--\":7587:7591   */\n      dup2\n        /* \"--CODEGEN--\":7583:7603   */\n      sub\n        /* \"--CODEGEN--\":7579:7580   */\n      0x00\n        /* \"--CODEGEN--\":7568:7577   */\n      dup4\n        /* \"--CODEGEN--\":7564:7581   */\n      add\n        /* \"--CODEGEN--\":7557:7604   */\n      mstore\n        /* \"--CODEGEN--\":7618:7726   */\n      tag_219\n        /* \"--CODEGEN--\":7721:7725   */\n      dup2\n        /* \"--CODEGEN--\":7712:7718   */\n      dup7\n        /* \"--CODEGEN--\":7618:7726   */\n      jump(tag_169)\n    tag_219:\n        /* \"--CODEGEN--\":7610:7726   */\n      swap1\n      pop\n        /* \"--CODEGEN--\":7774:7783   */\n      dup2\n        /* \"--CODEGEN--\":7768:7772   */\n      dup2\n        /* \"--CODEGEN--\":7764:7784   */\n      sub\n        /* \"--CODEGEN--\":7759:7761   */\n      0x20\n        /* \"--CODEGEN--\":7748:7757   */\n      dup4\n        /* \"--CODEGEN--\":7744:7762   */\n      add\n        /* \"--CODEGEN--\":7737:7785   */\n      mstore\n        /* \"--CODEGEN--\":7799:7919   */\n      tag_220\n        /* \"--CODEGEN--\":7914:7918   */\n      dup2\n        /* \"--CODEGEN--\":7905:7911   */\n      dup6\n        /* \"--CODEGEN--\":7799:7919   */\n      jump(tag_155)\n    tag_220:\n        /* \"--CODEGEN--\":7791:7919   */\n      swap1\n      pop\n        /* \"--CODEGEN--\":7967:7976   */\n      dup2\n        /* \"--CODEGEN--\":7961:7965   */\n      dup2\n        /* \"--CODEGEN--\":7957:7977   */\n      sub\n        /* \"--CODEGEN--\":7952:7954   */\n      0x40\n        /* \"--CODEGEN--\":7941:7950   */\n      dup4\n        /* \"--CODEGEN--\":7937:7955   */\n      add\n        /* \"--CODEGEN--\":7930:7978   */\n      mstore\n        /* \"--CODEGEN--\":7992:8094   */\n      tag_221\n        /* \"--CODEGEN--\":8089:8093   */\n      dup2\n        /* \"--CODEGEN--\":8080:8086   */\n      dup5\n        /* \"--CODEGEN--\":7992:8094   */\n      jump(tag_141)\n    tag_221:\n        /* \"--CODEGEN--\":7984:8094   */\n      swap1\n      pop\n        /* \"--CODEGEN--\":7514:8104   */\n      swap5\n      swap4\n      pop\n      pop\n      pop\n      pop\n      jump\n        /* \"--CODEGEN--\":8111:8456   */\n    tag_48:\n      0x00\n        /* \"--CODEGEN--\":8271:8273   */\n      0x20\n        /* \"--CODEGEN--\":8260:8269   */\n      dup3\n        /* \"--CODEGEN--\":8256:8274   */\n      add\n        /* \"--CODEGEN--\":8248:8274   */\n      swap1\n      pop\n        /* \"--CODEGEN--\":8321:8330   */\n      dup2\n        /* \"--CODEGEN--\":8315:8319   */\n      dup2\n        /* \"--CODEGEN--\":8311:8331   */\n      sub\n        /* \"--CODEGEN--\":8307:8308   */\n      0x00\n        /* \"--CODEGEN--\":8296:8305   */\n      dup4\n        /* \"--CODEGEN--\":8292:8309   */\n      add\n        /* \"--CODEGEN--\":8285:8332   */\n      mstore\n        /* \"--CODEGEN--\":8346:8446   */\n      tag_223\n        /* \"--CODEGEN--\":8441:8445   */\n      dup2\n        /* \"--CODEGEN--\":8432:8438   */\n      dup5\n        /* \"--CODEGEN--\":8346:8446   */\n      jump(tag_205)\n    tag_223:\n        /* \"--CODEGEN--\":8338:8446   */\n      swap1\n      pop\n        /* \"--CODEGEN--\":8242:8456   */\n      swap3\n      swap2\n      pop\n      pop\n      jump\n        /* \"--CODEGEN--\":8463:8676   */\n    tag_15:\n      0x00\n        /* \"--CODEGEN--\":8581:8583   */\n      0x20\n        /* \"--CODEGEN--\":8570:8579   */\n      dup3\n        /* \"--CODEGEN--\":8566:8584   */\n      add\n        /* \"--CODEGEN--\":8558:8584   */\n      swap1\n      pop\n        /* \"--CODEGEN--\":8595:8666   */\n      tag_225\n        /* \"--CODEGEN--\":8663:8664   */\n      0x00\n        /* \"--CODEGEN--\":8652:8661   */\n      dup4\n        /* \"--CODEGEN--\":8648:8665   */\n      add\n        /* \"--CODEGEN--\":8639:8645   */\n      dup5\n        /* \"--CODEGEN--\":8595:8666   */\n      jump(tag_213)\n    tag_225:\n        /* \"--CODEGEN--\":8552:8676   */\n      swap3\n      swap2\n      pop\n      pop\n      jump\n        /* \"--CODEGEN--\":8683:9186   */\n    tag_21:\n      0x00\n        /* \"--CODEGEN--\":8867:8869   */\n      0x60\n        /* \"--CODEGEN--\":8856:8865   */\n      dup3\n        /* \"--CODEGEN--\":8852:8870   */\n      add\n        /* \"--CODEGEN--\":8844:8870   */\n      swap1\n      pop\n        /* \"--CODEGEN--\":8881:8952   */\n      tag_227\n        /* \"--CODEGEN--\":8949:8950   */\n      0x00\n        /* \"--CODEGEN--\":8938:8947   */\n      dup4\n        /* \"--CODEGEN--\":8934:8951   */\n      add\n        /* \"--CODEGEN--\":8925:8931   */\n      dup7\n        /* \"--CODEGEN--\":8881:8952   */\n      jump(tag_213)\n    tag_227:\n        /* \"--CODEGEN--\":9000:9009   */\n      dup2\n        /* \"--CODEGEN--\":8994:8998   */\n      dup2\n        /* \"--CODEGEN--\":8990:9010   */\n      sub\n        /* \"--CODEGEN--\":8985:8987   */\n      0x20\n        /* \"--CODEGEN--\":8974:8983   */\n      dup4\n        /* \"--CODEGEN--\":8970:8988   */\n      add\n        /* \"--CODEGEN--\":8963:9011   */\n      mstore\n        /* \"--CODEGEN--\":9025:9099   */\n      tag_228\n        /* \"--CODEGEN--\":9094:9098   */\n      dup2\n        /* \"--CODEGEN--\":9085:9091   */\n      dup6\n        /* \"--CODEGEN--\":9025:9099   */\n      jump(tag_198)\n    tag_228:\n        /* \"--CODEGEN--\":9017:9099   */\n      swap1\n      pop\n        /* \"--CODEGEN--\":9110:9176   */\n      tag_229\n        /* \"--CODEGEN--\":9172:9174   */\n      0x40\n        /* \"--CODEGEN--\":9161:9170   */\n      dup4\n        /* \"--CODEGEN--\":9157:9175   */\n      add\n        /* \"--CODEGEN--\":9148:9154   */\n      dup5\n        /* \"--CODEGEN--\":9110:9176   */\n      jump(tag_186)\n    tag_229:\n        /* \"--CODEGEN--\":8838:9186   */\n      swap5\n      swap4\n      pop\n      pop\n      pop\n      pop\n      jump\n        /* \"--CODEGEN--\":9193:9449   */\n    tag_106:\n      0x00\n        /* \"--CODEGEN--\":9255:9257   */\n      0x40\n        /* \"--CODEGEN--\":9249:9258   */\n      mload\n        /* \"--CODEGEN--\":9239:9258   */\n      swap1\n      pop\n        /* \"--CODEGEN--\":9293:9297   */\n      dup2\n        /* \"--CODEGEN--\":9285:9291   */\n      dup2\n        /* \"--CODEGEN--\":9281:9298   */\n      add\n        /* \"--CODEGEN--\":9392:9398   */\n      dup2\n        /* \"--CODEGEN--\":9380:9390   */\n      dup2\n        /* \"--CODEGEN--\":9377:9399   */\n      lt\n        /* \"--CODEGEN--\":9356:9374   */\n      0xffffffffffffffff\n        /* \"--CODEGEN--\":9344:9354   */\n      dup3\n        /* \"--CODEGEN--\":9341:9375   */\n      gt\n        /* \"--CODEGEN--\":9338:9400   */\n      or\n        /* \"--CODEGEN--\":9335:9337   */\n      iszero\n      tag_231\n      jumpi\n        /* \"--CODEGEN--\":9413:9414   */\n      0x00\n        /* \"--CODEGEN--\":9410:9411   */\n      dup1\n        /* \"--CODEGEN--\":9403:9415   */\n      revert\n        /* \"--CODEGEN--\":9335:9337   */\n    tag_231:\n        /* \"--CODEGEN--\":9433:9443   */\n      dup1\n        /* \"--CODEGEN--\":9429:9431   */\n      0x40\n        /* \"--CODEGEN--\":9422:9444   */\n      mstore\n        /* \"--CODEGEN--\":9233:9449   */\n      pop\n      swap2\n      swap1\n      pop\n      jump\n        /* \"--CODEGEN--\":9456:9778   */\n    tag_105:\n      0x00\n        /* \"--CODEGEN--\":9600:9618   */\n      0xffffffffffffffff\n        /* \"--CODEGEN--\":9592:9598   */\n      dup3\n        /* \"--CODEGEN--\":9589:9619   */\n      gt\n        /* \"--CODEGEN--\":9586:9588   */\n      iszero\n      tag_233\n      jumpi\n        /* \"--CODEGEN--\":9632:9633   */\n      0x00\n        /* \"--CODEGEN--\":9629:9630   */\n      dup1\n        /* \"--CODEGEN--\":9622:9634   */\n      revert\n        /* \"--CODEGEN--\":9586:9588   */\n    tag_233:\n        /* \"--CODEGEN--\":9699:9703   */\n      0x1f\n        /* \"--CODEGEN--\":9695:9704   */\n      not\n        /* \"--CODEGEN--\":9688:9692   */\n      0x1f\n        /* \"--CODEGEN--\":9680:9686   */\n      dup4\n        /* \"--CODEGEN--\":9676:9693   */\n      add\n        /* \"--CODEGEN--\":9672:9705   */\n      and\n        /* \"--CODEGEN--\":9664:9705   */\n      swap1\n      pop\n        /* \"--CODEGEN--\":9763:9767   */\n      0x20\n        /* \"--CODEGEN--\":9757:9761   */\n      dup2\n        /* \"--CODEGEN--\":9753:9768   */\n      add\n        /* \"--CODEGEN--\":9745:9768   */\n      swap1\n      pop\n        /* \"--CODEGEN--\":9523:9778   */\n      swap2\n      swap1\n      pop\n      jump\n        /* \"--CODEGEN--\":9785:9933   */\n    tag_148:\n      0x00\n        /* \"--CODEGEN--\":9868:9871   */\n      dup2\n        /* \"--CODEGEN--\":9860:9871   */\n      swap1\n      pop\n        /* \"--CODEGEN--\":9906:9910   */\n      0x20\n        /* \"--CODEGEN--\":9901:9904   */\n      dup3\n        /* \"--CODEGEN--\":9897:9911   */\n      add\n        /* \"--CODEGEN--\":9889:9911   */\n      swap1\n      pop\n        /* \"--CODEGEN--\":9854:9933   */\n      swap2\n      swap1\n      pop\n      jump\n        /* \"--CODEGEN--\":9940:10097   */\n    tag_162:\n      0x00\n        /* \"--CODEGEN--\":10032:10035   */\n      dup2\n        /* \"--CODEGEN--\":10024:10035   */\n      swap1\n      pop\n        /* \"--CODEGEN--\":10070:10074   */\n      0x20\n        /* \"--CODEGEN--\":10065:10068   */\n      dup3\n        /* \"--CODEGEN--\":10061:10075   */\n      add\n        /* \"--CODEGEN--\":10053:10075   */\n      swap1\n      pop\n        /* \"--CODEGEN--\":10018:10097   */\n      swap2\n      swap1\n      pop\n      jump\n        /* \"--CODEGEN--\":10104:10255   */\n    tag_176:\n      0x00\n        /* \"--CODEGEN--\":10190:10193   */\n      dup2\n        /* \"--CODEGEN--\":10182:10193   */\n      swap1\n      pop\n        /* \"--CODEGEN--\":10228:10232   */\n      0x20\n        /* \"--CODEGEN--\":10223:10226   */\n      dup3\n        /* \"--CODEGEN--\":10219:10233   */\n      add\n        /* \"--CODEGEN--\":10211:10233   */\n      swap1\n      pop\n        /* \"--CODEGEN--\":10176:10255   */\n      swap2\n      swap1\n      pop\n      jump\n        /* \"--CODEGEN--\":10262:10396   */\n    tag_144:\n      0x00\n        /* \"--CODEGEN--\":10368:10373   */\n      dup2\n        /* \"--CODEGEN--\":10362:10374   */\n      mload\n        /* \"--CODEGEN--\":10352:10374   */\n      swap1\n      pop\n        /* \"--CODEGEN--\":10333:10396   */\n      swap2\n      swap1\n      pop\n      jump\n        /* \"--CODEGEN--\":10403:10546   */\n    tag_158:\n      0x00\n        /* \"--CODEGEN--\":10518:10523   */\n      dup2\n        /* \"--CODEGEN--\":10512:10524   */\n      mload\n        /* \"--CODEGEN--\":10502:10524   */\n      swap1\n      pop\n        /* \"--CODEGEN--\":10483:10546   */\n      swap2\n      swap1\n      pop\n      jump\n        /* \"--CODEGEN--\":10553:10690   */\n    tag_172:\n      0x00\n        /* \"--CODEGEN--\":10662:10667   */\n      dup2\n        /* \"--CODEGEN--\":10656:10668   */\n      mload\n        /* \"--CODEGEN--\":10646:10668   */\n      swap1\n      pop\n        /* \"--CODEGEN--\":10627:10690   */\n      swap2\n      swap1\n      pop\n      jump\n        /* \"--CODEGEN--\":10697:10815   */\n    tag_191:\n      0x00\n        /* \"--CODEGEN--\":10787:10792   */\n      dup2\n        /* \"--CODEGEN--\":10781:10793   */\n      mload\n        /* \"--CODEGEN--\":10771:10793   */\n      swap1\n      pop\n        /* \"--CODEGEN--\":10752:10815   */\n      swap2\n      swap1\n      pop\n      jump\n        /* \"--CODEGEN--\":10822:10927   */\n    tag_154:\n      0x00\n        /* \"--CODEGEN--\":10917:10921   */\n      0x20\n        /* \"--CODEGEN--\":10912:10915   */\n      dup3\n        /* \"--CODEGEN--\":10908:10922   */\n      add\n        /* \"--CODEGEN--\":10900:10922   */\n      swap1\n      pop\n        /* \"--CODEGEN--\":10894:10927   */\n      swap2\n      swap1\n      pop\n      jump\n        /* \"--CODEGEN--\":10934:11048   */\n    tag_168:\n      0x00\n        /* \"--CODEGEN--\":11038:11042   */\n      0x20\n        /* \"--CODEGEN--\":11033:11036   */\n      dup3\n        /* \"--CODEGEN--\":11029:11043   */\n      add\n        /* \"--CODEGEN--\":11021:11043   */\n      swap1\n      pop\n        /* \"--CODEGEN--\":11015:11048   */\n      swap2\n      swap1\n      pop\n      jump\n        /* \"--CODEGEN--\":11055:11163   */\n    tag_182:\n      0x00\n        /* \"--CODEGEN--\":11153:11157   */\n      0x20\n        /* \"--CODEGEN--\":11148:11151   */\n      dup3\n        /* \"--CODEGEN--\":11144:11158   */\n      add\n        /* \"--CODEGEN--\":11136:11158   */\n      swap1\n      pop\n        /* \"--CODEGEN--\":11130:11163   */\n      swap2\n      swap1\n      pop\n      jump\n        /* \"--CODEGEN--\":11171:11346   */\n    tag_146:\n      0x00\n        /* \"--CODEGEN--\":11298:11304   */\n      dup3\n        /* \"--CODEGEN--\":11293:11296   */\n      dup3\n        /* \"--CODEGEN--\":11286:11305   */\n      mstore\n        /* \"--CODEGEN--\":11335:11339   */\n      0x20\n        /* \"--CODEGEN--\":11330:11333   */\n      dup3\n        /* \"--CODEGEN--\":11326:11340   */\n      add\n        /* \"--CODEGEN--\":11311:11340   */\n      swap1\n      pop\n        /* \"--CODEGEN--\":11279:11346   */\n      swap3\n      swap2\n      pop\n      pop\n      jump\n        /* \"--CODEGEN--\":11355:11539   */\n    tag_160:\n      0x00\n        /* \"--CODEGEN--\":11491:11497   */\n      dup3\n        /* \"--CODEGEN--\":11486:11489   */\n      dup3\n        /* \"--CODEGEN--\":11479:11498   */\n      mstore\n        /* \"--CODEGEN--\":11528:11532   */\n      0x20\n        /* \"--CODEGEN--\":11523:11526   */\n      dup3\n        /* \"--CODEGEN--\":11519:11533   */\n      add\n        /* \"--CODEGEN--\":11504:11533   */\n      swap1\n      pop\n        /* \"--CODEGEN--\":11472:11539   */\n      swap3\n      swap2\n      pop\n      pop\n      jump\n        /* \"--CODEGEN--\":11548:11726   */\n    tag_174:\n      0x00\n        /* \"--CODEGEN--\":11678:11684   */\n      dup3\n        /* \"--CODEGEN--\":11673:11676   */\n      dup3\n        /* \"--CODEGEN--\":11666:11685   */\n      mstore\n        /* \"--CODEGEN--\":11715:11719   */\n      0x20\n        /* \"--CODEGEN--\":11710:11713   */\n      dup3\n        /* \"--CODEGEN--\":11706:11720   */\n      add\n        /* \"--CODEGEN--\":11691:11720   */\n      swap1\n      pop\n        /* \"--CODEGEN--\":11659:11726   */\n      swap3\n      swap2\n      pop\n      pop\n      jump\n        /* \"--CODEGEN--\":11735:11888   */\n    tag_193:\n      0x00\n        /* \"--CODEGEN--\":11840:11846   */\n      dup3\n        /* \"--CODEGEN--\":11835:11838   */\n      dup3\n        /* \"--CODEGEN--\":11828:11847   */\n      mstore\n        /* \"--CODEGEN--\":11877:11881   */\n      0x20\n        /* \"--CODEGEN--\":11872:11875   */\n      dup3\n        /* \"--CODEGEN--\":11868:11882   */\n      add\n        /* \"--CODEGEN--\":11853:11882   */\n      swap1\n      pop\n        /* \"--CODEGEN--\":11821:11888   */\n      swap3\n      swap2\n      pop\n      pop\n      jump\n        /* \"--CODEGEN--\":11897:12060   */\n    tag_202:\n      0x00\n        /* \"--CODEGEN--\":12012:12018   */\n      dup3\n        /* \"--CODEGEN--\":12007:12010   */\n      dup3\n        /* \"--CODEGEN--\":12000:12019   */\n      mstore\n        /* \"--CODEGEN--\":12049:12053   */\n      0x20\n        /* \"--CODEGEN--\":12044:12047   */\n      dup3\n        /* \"--CODEGEN--\":12040:12054   */\n      add\n        /* \"--CODEGEN--\":12025:12054   */\n      swap1\n      pop\n        /* \"--CODEGEN--\":11993:12060   */\n      swap3\n      swap2\n      pop\n      pop\n      jump\n        /* \"--CODEGEN--\":12068:12153   */\n    tag_185:\n      0x00\n        /* \"--CODEGEN--\":12141:12146   */\n      dup2\n        /* \"--CODEGEN--\":12134:12147   */\n      iszero\n        /* \"--CODEGEN--\":12127:12148   */\n      iszero\n        /* \"--CODEGEN--\":12116:12148   */\n      swap1\n      pop\n        /* \"--CODEGEN--\":12110:12153   */\n      swap2\n      swap1\n      pop\n      jump\n        /* \"--CODEGEN--\":12160:12232   */\n    tag_212:\n      0x00\n        /* \"--CODEGEN--\":12222:12227   */\n      dup2\n        /* \"--CODEGEN--\":12211:12227   */\n      swap1\n      pop\n        /* \"--CODEGEN--\":12205:12232   */\n      swap2\n      swap1\n      pop\n      jump\n        /* \"--CODEGEN--\":12240:12385   */\n    tag_109:\n        /* \"--CODEGEN--\":12321:12327   */\n      dup3\n        /* \"--CODEGEN--\":12316:12319   */\n      dup2\n        /* \"--CODEGEN--\":12311:12314   */\n      dup4\n        /* \"--CODEGEN--\":12298:12328   */\n      calldatacopy\n        /* \"--CODEGEN--\":12377:12378   */\n      0x00\n        /* \"--CODEGEN--\":12368:12374   */\n      dup4\n        /* \"--CODEGEN--\":12363:12366   */\n      dup4\n        /* \"--CODEGEN--\":12359:12375   */\n      add\n        /* \"--CODEGEN--\":12352:12379   */\n      mstore\n        /* \"--CODEGEN--\":12291:12385   */\n      pop\n      pop\n      pop\n      jump\n        /* \"--CODEGEN--\":12394:12662   */\n    tag_195:\n        /* \"--CODEGEN--\":12459:12460   */\n      0x00\n        /* \"--CODEGEN--\":12466:12567   */\n    tag_253:\n        /* \"--CODEGEN--\":12480:12486   */\n      dup4\n        /* \"--CODEGEN--\":12477:12478   */\n      dup2\n        /* \"--CODEGEN--\":12474:12487   */\n      lt\n        /* \"--CODEGEN--\":12466:12567   */\n      iszero\n      tag_255\n      jumpi\n        /* \"--CODEGEN--\":12556:12557   */\n      dup1\n        /* \"--CODEGEN--\":12551:12554   */\n      dup3\n        /* \"--CODEGEN--\":12547:12558   */\n      add\n        /* \"--CODEGEN--\":12541:12559   */\n      mload\n        /* \"--CODEGEN--\":12537:12538   */\n      dup2\n        /* \"--CODEGEN--\":12532:12535   */\n      dup5\n        /* \"--CODEGEN--\":12528:12539   */\n      add\n        /* \"--CODEGEN--\":12521:12560   */\n      mstore\n        /* \"--CODEGEN--\":12502:12504   */\n      0x20\n        /* \"--CODEGEN--\":12499:12500   */\n      dup2\n        /* \"--CODEGEN--\":12495:12505   */\n      add\n        /* \"--CODEGEN--\":12490:12505   */\n      swap1\n      pop\n        /* \"--CODEGEN--\":12466:12567   */\n      jump(tag_253)\n    tag_255:\n        /* \"--CODEGEN--\":12582:12588   */\n      dup4\n        /* \"--CODEGEN--\":12579:12580   */\n      dup2\n        /* \"--CODEGEN--\":12576:12589   */\n      gt\n        /* \"--CODEGEN--\":12573:12575   */\n      iszero\n      tag_256\n      jumpi\n        /* \"--CODEGEN--\":12647:12648   */\n      0x00\n        /* \"--CODEGEN--\":12638:12644   */\n      dup5\n        /* \"--CODEGEN--\":12633:12636   */\n      dup5\n        /* \"--CODEGEN--\":12629:12645   */\n      add\n        /* \"--CODEGEN--\":12622:12649   */\n      mstore\n        /* \"--CODEGEN--\":12573:12575   */\n    tag_256:\n        /* \"--CODEGEN--\":12443:12662   */\n      pop\n      pop\n      pop\n      pop\n      jump\n        /* \"--CODEGEN--\":12670:12767   */\n    tag_197:\n      0x00\n        /* \"--CODEGEN--\":12758:12760   */\n      0x1f\n        /* \"--CODEGEN--\":12754:12761   */\n      not\n        /* \"--CODEGEN--\":12749:12751   */\n      0x1f\n        /* \"--CODEGEN--\":12742:12747   */\n      dup4\n        /* \"--CODEGEN--\":12738:12752   */\n      add\n        /* \"--CODEGEN--\":12734:12762   */\n      and\n        /* \"--CODEGEN--\":12724:12762   */\n      swap1\n      pop\n        /* \"--CODEGEN--\":12718:12767   */\n      swap2\n      swap1\n      pop\n      jump\n        /* \"--CODEGEN--\":12775:12886   */\n    tag_99:\n        /* \"--CODEGEN--\":12841:12862   */\n      tag_259\n        /* \"--CODEGEN--\":12856:12861   */\n      dup2\n        /* \"--CODEGEN--\":12841:12862   */\n      jump(tag_185)\n    tag_259:\n        /* \"--CODEGEN--\":12834:12839   */\n      dup2\n        /* \"--CODEGEN--\":12831:12863   */\n      eq\n        /* \"--CODEGEN--\":12821:12823   */\n      tag_260\n      jumpi\n        /* \"--CODEGEN--\":12877:12878   */\n      0x00\n        /* \"--CODEGEN--\":12874:12875   */\n      dup1\n        /* \"--CODEGEN--\":12867:12879   */\n      revert\n        /* \"--CODEGEN--\":12821:12823   */\n    tag_260:\n        /* \"--CODEGEN--\":12815:12886   */\n      pop\n      jump\n        /* \"--CODEGEN--\":12893:13010   */\n    tag_113:\n        /* \"--CODEGEN--\":12962:12986   */\n      tag_262\n        /* \"--CODEGEN--\":12980:12985   */\n      dup2\n        /* \"--CODEGEN--\":12962:12986   */\n      jump(tag_212)\n    tag_262:\n        /* \"--CODEGEN--\":12955:12960   */\n      dup2\n        /* \"--CODEGEN--\":12952:12987   */\n      eq\n        /* \"--CODEGEN--\":12942:12944   */\n      tag_263\n      jumpi\n        /* \"--CODEGEN--\":13001:13002   */\n      0x00\n        /* \"--CODEGEN--\":12998:12999   */\n      dup1\n        /* \"--CODEGEN--\":12991:13003   */\n      revert\n        /* \"--CODEGEN--\":12942:12944   */\n    tag_263:\n        /* \"--CODEGEN--\":12936:13010   */\n      pop\n      jump\n\n    auxdata: 0xa26469706673582212206ae05e924eae073a11ec23c1cfbe0efebc0412af6c000765e24a4a6337b5cc7a64736f6c63430006000033\n}\n",
				"bytecode": {
					"linkReferences": {},
					"object": "60806040523480156200001157600080fd5b506000600181905550620000626040518060400160405280600481526020017f566c61640000000000000000000000000000000000000000000000000000000081525060016200026060201b60201c565b620000aa6040518060400160405280600481526020017f4e696b610000000000000000000000000000000000000000000000000000000081525060016200026060201b60201c565b620000f26040518060400160405280600681526020017f4e6173747961000000000000000000000000000000000000000000000000000081525060016200026060201b60201c565b6200013a6040518060400160405280600581526020017f44616e796100000000000000000000000000000000000000000000000000000081525060006200026060201b60201c565b620001826040518060400160405280600581526020017f476f73686100000000000000000000000000000000000000000000000000000081525060006200026060201b60201c565b620001ca6040518060400160405280600481526020017f416e79610000000000000000000000000000000000000000000000000000000081525060006200026060201b60201c565b620002126040518060400160405280600481526020017f4c6572610000000000000000000000000000000000000000000000000000000081525060016200026060201b60201c565b6200025a6040518060400160405280600481526020017f566974610000000000000000000000000000000000000000000000000000000081525060016200026060201b60201c565b620003a4565b604051806060016040528060015481526020018381526020018215158152506000806001548152602001908152602001600020600082015181600001556020820151816001019080519060200190620002bb929190620002f5565b5060408201518160020160006101000a81548160ff0219169083151502179055509050506001600081548092919060010191905055505050565b828054600181600116156101000203166002900490600052602060002090601f016020900481019282601f106200033857805160ff191683800117855562000369565b8280016001018555821562000369579182015b82811115620003685782518255916020019190600101906200034b565b5b5090506200037891906200037c565b5090565b620003a191905b808211156200039d57600081600090555060010162000383565b5090565b90565b610e7480620003b46000396000f3fe608060405234801561001057600080fd5b50600436106100885760003560e01c806392c683891161005b57806392c683891461012d578063ab7a201514610149578063d3516b7e14610179578063f97698f81461019557610088565b806311aee3801461008d5780635daf08ca146100ab5780636f416d59146100dd5780637f44982a146100fd575b600080fd5b6100956101c5565b6040516100a29190610c1d565b60405180910390f35b6100c560048036036100c091908101906108b5565b6101cb565b6040516100d493929190610c38565b60405180910390f35b6100e561029a565b6040516100f493929190610baf565b60405180910390f35b61011760048036036101129190810190610838565b61048c565b6040516101249190610b8d565b60405180910390f35b61014760048036036101429190810190610861565b6104d6565b005b610163600480360361015e9190810190610838565b610569565b6040516101709190610c1d565b60405180910390f35b610193600480360361018e91908101906108de565b6105ce565b005b6101af60048036036101aa91908101906108b5565b6105ff565b6040516101bc9190610bfb565b60405180910390f35b60015481565b6000602052806000526040600020600091509050806000015490806001018054600181600116156101000203166002900480601f01602080910402602001604051908101604052809291908181526020018280546001816001161561010002031660029004801561027d5780601f106102525761010080835404028352916020019161027d565b820191906000526020600020905b81548152906001019060200180831161026057829003601f168201915b5050505050908060020160009054906101000a900460ff16905083565b6060806060806001546040519080825280602002602001820160405280156102d15781602001602082028038833980820191505090505b509050606060015460405190808252806020026020018201604052801561030c57816020015b60608152602001906001900390816102f75790505b50905060606001546040519080825280602002602001820160405280156103425781602001602082028038833980820191505090505b50905060008090505b60015481101561047a5760008060008381526020019081526020016000209050806000015485838151811061037c57fe5b602002602001018181525050806001018054600181600116156101000203166002900480601f0160208091040260200160405190810160405280929190818152602001828054600181600116156101000203166002900480156104205780601f106103f557610100808354040283529160200191610420565b820191906000526020600020905b81548152906001019060200180831161040357829003601f168201915b505050505084838151811061043157fe5b60200260200101819052508060020160009054906101000a900460ff1683838151811061045a57fe5b60200260200101901515908115158152505050808060010191505061034b565b50828282955095509550505050909192565b606060008090505b6001548110156104d05782151560008083815260200190815260200160002060020160009054906101000a905050508080600101915050610494565b50919050565b60405180606001604052806001548152602001838152602001821515815250600080600154815260200190815260200160002060008201518160000155602082015181600101908051906020019061052f9291906106f2565b5060408201518160020160006101000a81548160ff0219169083151502179055509050506001600081548092919060010191905055505050565b6000806000905060008090505b6001548110156105c45783151560008083815260200190815260200160002060020160009054906101000a900460ff16151514156105b75781806001019250505b8080600101915050610576565b5080915050919050565b8060008084815260200190815260200160002060020160006101000a81548160ff0219169083151502179055505050565b610607610772565b60008083815260200190815260200160002060405180606001604052908160008201548152602001600182018054600181600116156101000203166002900480601f0160208091040260200160405190810160405280929190818152602001828054600181600116156101000203166002900480156106c75780601f1061069c576101008083540402835291602001916106c7565b820191906000526020600020905b8154815290600101906020018083116106aa57829003601f168201915b505050505081526020016002820160009054906101000a900460ff1615151515815250509050919050565b828054600181600116156101000203166002900490600052602060002090601f016020900481019282601f1061073357805160ff1916838001178555610761565b82800160010185558215610761579182015b82811115610760578251825591602001919060010190610745565b5b50905061076e9190610795565b5090565b604051806060016040528060008152602001606081526020016000151581525090565b6107b791905b808211156107b357600081600090555060010161079b565b5090565b90565b6000813590506107c981610e10565b92915050565b600082601f8301126107e057600080fd5b81356107f36107ee82610ca3565b610c76565b9150808252602083016020830185838301111561080f57600080fd5b61081a838284610dbd565b50505092915050565b60008135905061083281610e27565b92915050565b60006020828403121561084a57600080fd5b6000610858848285016107ba565b91505092915050565b6000806040838503121561087457600080fd5b600083013567ffffffffffffffff81111561088e57600080fd5b61089a858286016107cf565b92505060206108ab858286016107ba565b9150509250929050565b6000602082840312156108c757600080fd5b60006108d584828501610823565b91505092915050565b600080604083850312156108f157600080fd5b60006108ff85828601610823565b9250506020610910858286016107ba565b9150509250929050565b60006109268383610a8f565b60208301905092915050565b600061093e8383610aad565b905092915050565b60006109528383610b6f565b60208301905092915050565b600061096982610cff565b6109738185610d52565b935061097e83610ccf565b8060005b838110156109af578151610996888261091a565b97506109a183610d2b565b925050600181019050610982565b5085935050505092915050565b60006109c782610d0a565b6109d18185610d63565b9350836020820285016109e385610cdf565b8060005b85811015610a1f5784840389528151610a008582610932565b9450610a0b83610d38565b925060208a019950506001810190506109e7565b50829750879550505050505092915050565b6000610a3c82610d15565b610a468185610d74565b9350610a5183610cef565b8060005b83811015610a82578151610a698882610946565b9750610a7483610d45565b925050600181019050610a55565b5085935050505092915050565b610a9881610da7565b82525050565b610aa781610da7565b82525050565b6000610ab882610d20565b610ac28185610d85565b9350610ad2818560208601610dcc565b610adb81610dff565b840191505092915050565b6000610af182610d20565b610afb8185610d96565b9350610b0b818560208601610dcc565b610b1481610dff565b840191505092915050565b6000606083016000830151610b376000860182610b6f565b5060208301518482036020860152610b4f8282610aad565b9150506040830151610b646040860182610a8f565b508091505092915050565b610b7881610db3565b82525050565b610b8781610db3565b82525050565b60006020820190508181036000830152610ba78184610a31565b905092915050565b60006060820190508181036000830152610bc98186610a31565b90508181036020830152610bdd81856109bc565b90508181036040830152610bf1818461095e565b9050949350505050565b60006020820190508181036000830152610c158184610b1f565b905092915050565b6000602082019050610c326000830184610b7e565b92915050565b6000606082019050610c4d6000830186610b7e565b8181036020830152610c5f8185610ae6565b9050610c6e6040830184610a9e565b949350505050565b6000604051905081810181811067ffffffffffffffff82111715610c9957600080fd5b8060405250919050565b600067ffffffffffffffff821115610cba57600080fd5b601f19601f8301169050602081019050919050565b6000819050602082019050919050565b6000819050602082019050919050565b6000819050602082019050919050565b600081519050919050565b600081519050919050565b600081519050919050565b600081519050919050565b6000602082019050919050565b6000602082019050919050565b6000602082019050919050565b600082825260208201905092915050565b600082825260208201905092915050565b600082825260208201905092915050565b600082825260208201905092915050565b600082825260208201905092915050565b60008115159050919050565b6000819050919050565b82818337600083830152505050565b60005b83811015610dea578082015181840152602081019050610dcf565b83811115610df9576000848401525b50505050565b6000601f19601f8301169050919050565b610e1981610da7565b8114610e2457600080fd5b50565b610e3081610db3565b8114610e3b57600080fd5b5056fea26469706673582212206ae05e924eae073a11ec23c1cfbe0efebc0412af6c000765e24a4a6337b5cc7a64736f6c63430006000033",
					"opcodes": "PUSH1 0x80 PUSH1 0x40 MSTORE CALLVALUE DUP1 ISZERO PUSH3 0x11 JUMPI PUSH1 0x0 DUP1 REVERT JUMPDEST POP PUSH1 0x0 PUSH1 0x1 DUP2 SWAP1 SSTORE POP PUSH3 0x62 PUSH1 0x40 MLOAD DUP1 PUSH1 0x40 ADD PUSH1 0x40 MSTORE DUP1 PUSH1 0x4 DUP2 MSTORE PUSH1 0x20 ADD PUSH32 0x566C616400000000000000000000000000000000000000000000000000000000 DUP2 MSTORE POP PUSH1 0x1 PUSH3 0x260 PUSH1 0x20 SHL PUSH1 0x20 SHR JUMP JUMPDEST PUSH3 0xAA PUSH1 0x40 MLOAD DUP1 PUSH1 0x40 ADD PUSH1 0x40 MSTORE DUP1 PUSH1 0x4 DUP2 MSTORE PUSH1 0x20 ADD PUSH32 0x4E696B6100000000000000000000000000000000000000000000000000000000 DUP2 MSTORE POP PUSH1 0x1 PUSH3 0x260 PUSH1 0x20 SHL PUSH1 0x20 SHR JUMP JUMPDEST PUSH3 0xF2 PUSH1 0x40 MLOAD DUP1 PUSH1 0x40 ADD PUSH1 0x40 MSTORE DUP1 PUSH1 0x6 DUP2 MSTORE PUSH1 0x20 ADD PUSH32 0x4E61737479610000000000000000000000000000000000000000000000000000 DUP2 MSTORE POP PUSH1 0x1 PUSH3 0x260 PUSH1 0x20 SHL PUSH1 0x20 SHR JUMP JUMPDEST PUSH3 0x13A PUSH1 0x40 MLOAD DUP1 PUSH1 0x40 ADD PUSH1 0x40 MSTORE DUP1 PUSH1 0x5 DUP2 MSTORE PUSH1 0x20 ADD PUSH32 0x44616E7961000000000000000000000000000000000000000000000000000000 DUP2 MSTORE POP PUSH1 0x0 PUSH3 0x260 PUSH1 0x20 SHL PUSH1 0x20 SHR JUMP JUMPDEST PUSH3 0x182 PUSH1 0x40 MLOAD DUP1 PUSH1 0x40 ADD PUSH1 0x40 MSTORE DUP1 PUSH1 0x5 DUP2 MSTORE PUSH1 0x20 ADD PUSH32 0x476F736861000000000000000000000000000000000000000000000000000000 DUP2 MSTORE POP PUSH1 0x0 PUSH3 0x260 PUSH1 0x20 SHL PUSH1 0x20 SHR JUMP JUMPDEST PUSH3 0x1CA PUSH1 0x40 MLOAD DUP1 PUSH1 0x40 ADD PUSH1 0x40 MSTORE DUP1 PUSH1 0x4 DUP2 MSTORE PUSH1 0x20 ADD PUSH32 0x416E796100000000000000000000000000000000000000000000000000000000 DUP2 MSTORE POP PUSH1 0x0 PUSH3 0x260 PUSH1 0x20 SHL PUSH1 0x20 SHR JUMP JUMPDEST PUSH3 0x212 PUSH1 0x40 MLOAD DUP1 PUSH1 0x40 ADD PUSH1 0x40 MSTORE DUP1 PUSH1 0x4 DUP2 MSTORE PUSH1 0x20 ADD PUSH32 0x4C65726100000000000000000000000000000000000000000000000000000000 DUP2 MSTORE POP PUSH1 0x1 PUSH3 0x260 PUSH1 0x20 SHL PUSH1 0x20 SHR JUMP JUMPDEST PUSH3 0x25A PUSH1 0x40 MLOAD DUP1 PUSH1 0x40 ADD PUSH1 0x40 MSTORE DUP1 PUSH1 0x4 DUP2 MSTORE PUSH1 0x20 ADD PUSH32 0x5669746100000000000000000000000000000000000000000000000000000000 DUP2 MSTORE POP PUSH1 0x1 PUSH3 0x260 PUSH1 0x20 SHL PUSH1 0x20 SHR JUMP JUMPDEST PUSH3 0x3A4 JUMP JUMPDEST PUSH1 0x40 MLOAD DUP1 PUSH1 0x60 ADD PUSH1 0x40 MSTORE DUP1 PUSH1 0x1 SLOAD DUP2 MSTORE PUSH1 0x20 ADD DUP4 DUP2 MSTORE PUSH1 0x20 ADD DUP3 ISZERO ISZERO DUP2 MSTORE POP PUSH1 0x0 DUP1 PUSH1 0x1 SLOAD DUP2 MSTORE PUSH1 0x20 ADD SWAP1 DUP2 MSTORE PUSH1 0x20 ADD PUSH1 0x0 KECCAK256 PUSH1 0x0 DUP3 ADD MLOAD DUP2 PUSH1 0x0 ADD SSTORE PUSH1 0x20 DUP3 ADD MLOAD DUP2 PUSH1 0x1 ADD SWAP1 DUP1 MLOAD SWAP1 PUSH1 0x20 ADD SWAP1 PUSH3 0x2BB SWAP3 SWAP2 SWAP1 PUSH3 0x2F5 JUMP JUMPDEST POP PUSH1 0x40 DUP3 ADD MLOAD DUP2 PUSH1 0x2 ADD PUSH1 0x0 PUSH2 0x100 EXP DUP2 SLOAD DUP2 PUSH1 0xFF MUL NOT AND SWAP1 DUP4 ISZERO ISZERO MUL OR SWAP1 SSTORE POP SWAP1 POP POP PUSH1 0x1 PUSH1 0x0 DUP2 SLOAD DUP1 SWAP3 SWAP2 SWAP1 PUSH1 0x1 ADD SWAP2 SWAP1 POP SSTORE POP POP POP JUMP JUMPDEST DUP3 DUP1 SLOAD PUSH1 0x1 DUP2 PUSH1 0x1 AND ISZERO PUSH2 0x100 MUL SUB AND PUSH1 0x2 SWAP1 DIV SWAP1 PUSH1 0x0 MSTORE PUSH1 0x20 PUSH1 0x0 KECCAK256 SWAP1 PUSH1 0x1F ADD PUSH1 0x20 SWAP1 DIV DUP2 ADD SWAP3 DUP3 PUSH1 0x1F LT PUSH3 0x338 JUMPI DUP1 MLOAD PUSH1 0xFF NOT AND DUP4 DUP1 ADD OR DUP6 SSTORE PUSH3 0x369 JUMP JUMPDEST DUP3 DUP1 ADD PUSH1 0x1 ADD DUP6 SSTORE DUP3 ISZERO PUSH3 0x369 JUMPI SWAP2 DUP3 ADD JUMPDEST DUP3 DUP2 GT ISZERO PUSH3 0x368 JUMPI DUP3 MLOAD DUP3 SSTORE SWAP2 PUSH1 0x20 ADD SWAP2 SWAP1 PUSH1 0x1 ADD SWAP1 PUSH3 0x34B JUMP JUMPDEST JUMPDEST POP SWAP1 POP PUSH3 0x378 SWAP2 SWAP1 PUSH3 0x37C JUMP JUMPDEST POP SWAP1 JUMP JUMPDEST PUSH3 0x3A1 SWAP2 SWAP1 JUMPDEST DUP1 DUP3 GT ISZERO PUSH3 0x39D JUMPI PUSH1 0x0 DUP2 PUSH1 0x0 SWAP1 SSTORE POP PUSH1 0x1 ADD PUSH3 0x383 JUMP JUMPDEST POP SWAP1 JUMP JUMPDEST SWAP1 JUMP JUMPDEST PUSH2 0xE74 DUP1 PUSH3 0x3B4 PUSH1 0x0 CODECOPY PUSH1 0x0 RETURN INVALID PUSH1 0x80 PUSH1 0x40 MSTORE CALLVALUE DUP1 ISZERO PUSH2 0x10 JUMPI PUSH1 0x0 DUP1 REVERT JUMPDEST POP PUSH1 0x4 CALLDATASIZE LT PUSH2 0x88 JUMPI PUSH1 0x0 CALLDATALOAD PUSH1 0xE0 SHR DUP1 PUSH4 0x92C68389 GT PUSH2 0x5B JUMPI DUP1 PUSH4 0x92C68389 EQ PUSH2 0x12D JUMPI DUP1 PUSH4 0xAB7A2015 EQ PUSH2 0x149 JUMPI DUP1 PUSH4 0xD3516B7E EQ PUSH2 0x179 JUMPI DUP1 PUSH4 0xF97698F8 EQ PUSH2 0x195 JUMPI PUSH2 0x88 JUMP JUMPDEST DUP1 PUSH4 0x11AEE380 EQ PUSH2 0x8D JUMPI DUP1 PUSH4 0x5DAF08CA EQ PUSH2 0xAB JUMPI DUP1 PUSH4 0x6F416D59 EQ PUSH2 0xDD JUMPI DUP1 PUSH4 0x7F44982A EQ PUSH2 0xFD JUMPI JUMPDEST PUSH1 0x0 DUP1 REVERT JUMPDEST PUSH2 0x95 PUSH2 0x1C5 JUMP JUMPDEST PUSH1 0x40 MLOAD PUSH2 0xA2 SWAP2 SWAP1 PUSH2 0xC1D JUMP JUMPDEST PUSH1 0x40 MLOAD DUP1 SWAP2 SUB SWAP1 RETURN JUMPDEST PUSH2 0xC5 PUSH1 0x4 DUP1 CALLDATASIZE SUB PUSH2 0xC0 SWAP2 SWAP1 DUP2 ADD SWAP1 PUSH2 0x8B5 JUMP JUMPDEST PUSH2 0x1CB JUMP JUMPDEST PUSH1 0x40 MLOAD PUSH2 0xD4 SWAP4 SWAP3 SWAP2 SWAP1 PUSH2 0xC38 JUMP JUMPDEST PUSH1 0x40 MLOAD DUP1 SWAP2 SUB SWAP1 RETURN JUMPDEST PUSH2 0xE5 PUSH2 0x29A JUMP JUMPDEST PUSH1 0x40 MLOAD PUSH2 0xF4 SWAP4 SWAP3 SWAP2 SWAP1 PUSH2 0xBAF JUMP JUMPDEST PUSH1 0x40 MLOAD DUP1 SWAP2 SUB SWAP1 RETURN JUMPDEST PUSH2 0x117 PUSH1 0x4 DUP1 CALLDATASIZE SUB PUSH2 0x112 SWAP2 SWAP1 DUP2 ADD SWAP1 PUSH2 0x838 JUMP JUMPDEST PUSH2 0x48C JUMP JUMPDEST PUSH1 0x40 MLOAD PUSH2 0x124 SWAP2 SWAP1 PUSH2 0xB8D JUMP JUMPDEST PUSH1 0x40 MLOAD DUP1 SWAP2 SUB SWAP1 RETURN JUMPDEST PUSH2 0x147 PUSH1 0x4 DUP1 CALLDATASIZE SUB PUSH2 0x142 SWAP2 SWAP1 DUP2 ADD SWAP1 PUSH2 0x861 JUMP JUMPDEST PUSH2 0x4D6 JUMP JUMPDEST STOP JUMPDEST PUSH2 0x163 PUSH1 0x4 DUP1 CALLDATASIZE SUB PUSH2 0x15E SWAP2 SWAP1 DUP2 ADD SWAP1 PUSH2 0x838 JUMP JUMPDEST PUSH2 0x569 JUMP JUMPDEST PUSH1 0x40 MLOAD PUSH2 0x170 SWAP2 SWAP1 PUSH2 0xC1D JUMP JUMPDEST PUSH1 0x40 MLOAD DUP1 SWAP2 SUB SWAP1 RETURN JUMPDEST PUSH2 0x193 PUSH1 0x4 DUP1 CALLDATASIZE SUB PUSH2 0x18E SWAP2 SWAP1 DUP2 ADD SWAP1 PUSH2 0x8DE JUMP JUMPDEST PUSH2 0x5CE JUMP JUMPDEST STOP JUMPDEST PUSH2 0x1AF PUSH1 0x4 DUP1 CALLDATASIZE SUB PUSH2 0x1AA SWAP2 SWAP1 DUP2 ADD SWAP1 PUSH2 0x8B5 JUMP JUMPDEST PUSH2 0x5FF JUMP JUMPDEST PUSH1 0x40 MLOAD PUSH2 0x1BC SWAP2 SWAP1 PUSH2 0xBFB JUMP JUMPDEST PUSH1 0x40 MLOAD DUP1 SWAP2 SUB SWAP1 RETURN JUMPDEST PUSH1 0x1 SLOAD DUP2 JUMP JUMPDEST PUSH1 0x0 PUSH1 0x20 MSTORE DUP1 PUSH1 0x0 MSTORE PUSH1 0x40 PUSH1 0x0 KECCAK256 PUSH1 0x0 SWAP2 POP SWAP1 POP DUP1 PUSH1 0x0 ADD SLOAD SWAP1 DUP1 PUSH1 0x1 ADD DUP1 SLOAD PUSH1 0x1 DUP2 PUSH1 0x1 AND ISZERO PUSH2 0x100 MUL SUB AND PUSH1 0x2 SWAP1 DIV DUP1 PUSH1 0x1F ADD PUSH1 0x20 DUP1 SWAP2 DIV MUL PUSH1 0x20 ADD PUSH1 0x40 MLOAD SWAP1 DUP2 ADD PUSH1 0x40 MSTORE DUP1 SWAP3 SWAP2 SWAP1 DUP2 DUP2 MSTORE PUSH1 0x20 ADD DUP3 DUP1 SLOAD PUSH1 0x1 DUP2 PUSH1 0x1 AND ISZERO PUSH2 0x100 MUL SUB AND PUSH1 0x2 SWAP1 DIV DUP1 ISZERO PUSH2 0x27D JUMPI DUP1 PUSH1 0x1F LT PUSH2 0x252 JUMPI PUSH2 0x100 DUP1 DUP4 SLOAD DIV MUL DUP4 MSTORE SWAP2 PUSH1 0x20 ADD SWAP2 PUSH2 0x27D JUMP JUMPDEST DUP3 ADD SWAP2 SWAP1 PUSH1 0x0 MSTORE PUSH1 0x20 PUSH1 0x0 KECCAK256 SWAP1 JUMPDEST DUP2 SLOAD DUP2 MSTORE SWAP1 PUSH1 0x1 ADD SWAP1 PUSH1 0x20 ADD DUP1 DUP4 GT PUSH2 0x260 JUMPI DUP3 SWAP1 SUB PUSH1 0x1F AND DUP3 ADD SWAP2 JUMPDEST POP POP POP POP POP SWAP1 DUP1 PUSH1 0x2 ADD PUSH1 0x0 SWAP1 SLOAD SWAP1 PUSH2 0x100 EXP SWAP1 DIV PUSH1 0xFF AND SWAP1 POP DUP4 JUMP JUMPDEST PUSH1 0x60 DUP1 PUSH1 0x60 DUP1 PUSH1 0x1 SLOAD PUSH1 0x40 MLOAD SWAP1 DUP1 DUP3 MSTORE DUP1 PUSH1 0x20 MUL PUSH1 0x20 ADD DUP3 ADD PUSH1 0x40 MSTORE DUP1 ISZERO PUSH2 0x2D1 JUMPI DUP2 PUSH1 0x20 ADD PUSH1 0x20 DUP3 MUL DUP1 CODESIZE DUP4 CODECOPY DUP1 DUP3 ADD SWAP2 POP POP SWAP1 POP JUMPDEST POP SWAP1 POP PUSH1 0x60 PUSH1 0x1 SLOAD PUSH1 0x40 MLOAD SWAP1 DUP1 DUP3 MSTORE DUP1 PUSH1 0x20 MUL PUSH1 0x20 ADD DUP3 ADD PUSH1 0x40 MSTORE DUP1 ISZERO PUSH2 0x30C JUMPI DUP2 PUSH1 0x20 ADD JUMPDEST PUSH1 0x60 DUP2 MSTORE PUSH1 0x20 ADD SWAP1 PUSH1 0x1 SWAP1 SUB SWAP1 DUP2 PUSH2 0x2F7 JUMPI SWAP1 POP JUMPDEST POP SWAP1 POP PUSH1 0x60 PUSH1 0x1 SLOAD PUSH1 0x40 MLOAD SWAP1 DUP1 DUP3 MSTORE DUP1 PUSH1 0x20 MUL PUSH1 0x20 ADD DUP3 ADD PUSH1 0x40 MSTORE DUP1 ISZERO PUSH2 0x342 JUMPI DUP2 PUSH1 0x20 ADD PUSH1 0x20 DUP3 MUL DUP1 CODESIZE DUP4 CODECOPY DUP1 DUP3 ADD SWAP2 POP POP SWAP1 POP JUMPDEST POP SWAP1 POP PUSH1 0x0 DUP1 SWAP1 POP JUMPDEST PUSH1 0x1 SLOAD DUP2 LT ISZERO PUSH2 0x47A JUMPI PUSH1 0x0 DUP1 PUSH1 0x0 DUP4 DUP2 MSTORE PUSH1 0x20 ADD SWAP1 DUP2 MSTORE PUSH1 0x20 ADD PUSH1 0x0 KECCAK256 SWAP1 POP DUP1 PUSH1 0x0 ADD SLOAD DUP6 DUP4 DUP2 MLOAD DUP2 LT PUSH2 0x37C JUMPI INVALID JUMPDEST PUSH1 0x20 MUL PUSH1 0x20 ADD ADD DUP2 DUP2 MSTORE POP POP DUP1 PUSH1 0x1 ADD DUP1 SLOAD PUSH1 0x1 DUP2 PUSH1 0x1 AND ISZERO PUSH2 0x100 MUL SUB AND PUSH1 0x2 SWAP1 DIV DUP1 PUSH1 0x1F ADD PUSH1 0x20 DUP1 SWAP2 DIV MUL PUSH1 0x20 ADD PUSH1 0x40 MLOAD SWAP1 DUP2 ADD PUSH1 0x40 MSTORE DUP1 SWAP3 SWAP2 SWAP1 DUP2 DUP2 MSTORE PUSH1 0x20 ADD DUP3 DUP1 SLOAD PUSH1 0x1 DUP2 PUSH1 0x1 AND ISZERO PUSH2 0x100 MUL SUB AND PUSH1 0x2 SWAP1 DIV DUP1 ISZERO PUSH2 0x420 JUMPI DUP1 PUSH1 0x1F LT PUSH2 0x3F5 JUMPI PUSH2 0x100 DUP1 DUP4 SLOAD DIV MUL DUP4 MSTORE SWAP2 PUSH1 0x20 ADD SWAP2 PUSH2 0x420 JUMP JUMPDEST DUP3 ADD SWAP2 SWAP1 PUSH1 0x0 MSTORE PUSH1 0x20 PUSH1 0x0 KECCAK256 SWAP1 JUMPDEST DUP2 SLOAD DUP2 MSTORE SWAP1 PUSH1 0x1 ADD SWAP1 PUSH1 0x20 ADD DUP1 DUP4 GT PUSH2 0x403 JUMPI DUP3 SWAP1 SUB PUSH1 0x1F AND DUP3 ADD SWAP2 JUMPDEST POP POP POP POP POP DUP5 DUP4 DUP2 MLOAD DUP2 LT PUSH2 0x431 JUMPI INVALID JUMPDEST PUSH1 0x20 MUL PUSH1 0x20 ADD ADD DUP2 SWAP1 MSTORE POP DUP1 PUSH1 0x2 ADD PUSH1 0x0 SWAP1 SLOAD SWAP1 PUSH2 0x100 EXP SWAP1 DIV PUSH1 0xFF AND DUP4 DUP4 DUP2 MLOAD DUP2 LT PUSH2 0x45A JUMPI INVALID JUMPDEST PUSH1 0x20 MUL PUSH1 0x20 ADD ADD SWAP1 ISZERO ISZERO SWAP1 DUP2 ISZERO ISZERO DUP2 MSTORE POP POP POP DUP1 DUP1 PUSH1 0x1 ADD SWAP2 POP POP PUSH2 0x34B JUMP JUMPDEST POP DUP3 DUP3 DUP3 SWAP6 POP SWAP6 POP SWAP6 POP POP POP POP SWAP1 SWAP2 SWAP3 JUMP JUMPDEST PUSH1 0x60 PUSH1 0x0 DUP1 SWAP1 POP JUMPDEST PUSH1 0x1 SLOAD DUP2 LT ISZERO PUSH2 0x4D0 JUMPI DUP3 ISZERO ISZERO PUSH1 0x0 DUP1 DUP4 DUP2 MSTORE PUSH1 0x20 ADD SWAP1 DUP2 MSTORE PUSH1 0x20 ADD PUSH1 0x0 KECCAK256 PUSH1 0x2 ADD PUSH1 0x0 SWAP1 SLOAD SWAP1 PUSH2 0x100 EXP SWAP1 POP POP POP DUP1 DUP1 PUSH1 0x1 ADD SWAP2 POP POP PUSH2 0x494 JUMP JUMPDEST POP SWAP2 SWAP1 POP JUMP JUMPDEST PUSH1 0x40 MLOAD DUP1 PUSH1 0x60 ADD PUSH1 0x40 MSTORE DUP1 PUSH1 0x1 SLOAD DUP2 MSTORE PUSH1 0x20 ADD DUP4 DUP2 MSTORE PUSH1 0x20 ADD DUP3 ISZERO ISZERO DUP2 MSTORE POP PUSH1 0x0 DUP1 PUSH1 0x1 SLOAD DUP2 MSTORE PUSH1 0x20 ADD SWAP1 DUP2 MSTORE PUSH1 0x20 ADD PUSH1 0x0 KECCAK256 PUSH1 0x0 DUP3 ADD MLOAD DUP2 PUSH1 0x0 ADD SSTORE PUSH1 0x20 DUP3 ADD MLOAD DUP2 PUSH1 0x1 ADD SWAP1 DUP1 MLOAD SWAP1 PUSH1 0x20 ADD SWAP1 PUSH2 0x52F SWAP3 SWAP2 SWAP1 PUSH2 0x6F2 JUMP JUMPDEST POP PUSH1 0x40 DUP3 ADD MLOAD DUP2 PUSH1 0x2 ADD PUSH1 0x0 PUSH2 0x100 EXP DUP2 SLOAD DUP2 PUSH1 0xFF MUL NOT AND SWAP1 DUP4 ISZERO ISZERO MUL OR SWAP1 SSTORE POP SWAP1 POP POP PUSH1 0x1 PUSH1 0x0 DUP2 SLOAD DUP1 SWAP3 SWAP2 SWAP1 PUSH1 0x1 ADD SWAP2 SWAP1 POP SSTORE POP POP POP JUMP JUMPDEST PUSH1 0x0 DUP1 PUSH1 0x0 SWAP1 POP PUSH1 0x0 DUP1 SWAP1 POP JUMPDEST PUSH1 0x1 SLOAD DUP2 LT ISZERO PUSH2 0x5C4 JUMPI DUP4 ISZERO ISZERO PUSH1 0x0 DUP1 DUP4 DUP2 MSTORE PUSH1 0x20 ADD SWAP1 DUP2 MSTORE PUSH1 0x20 ADD PUSH1 0x0 KECCAK256 PUSH1 0x2 ADD PUSH1 0x0 SWAP1 SLOAD SWAP1 PUSH2 0x100 EXP SWAP1 DIV PUSH1 0xFF AND ISZERO ISZERO EQ ISZERO PUSH2 0x5B7 JUMPI DUP2 DUP1 PUSH1 0x1 ADD SWAP3 POP POP JUMPDEST DUP1 DUP1 PUSH1 0x1 ADD SWAP2 POP POP PUSH2 0x576 JUMP JUMPDEST POP DUP1 SWAP2 POP POP SWAP2 SWAP1 POP JUMP JUMPDEST DUP1 PUSH1 0x0 DUP1 DUP5 DUP2 MSTORE PUSH1 0x20 ADD SWAP1 DUP2 MSTORE PUSH1 0x20 ADD PUSH1 0x0 KECCAK256 PUSH1 0x2 ADD PUSH1 0x0 PUSH2 0x100 EXP DUP2 SLOAD DUP2 PUSH1 0xFF MUL NOT AND SWAP1 DUP4 ISZERO ISZERO MUL OR SWAP1 SSTORE POP POP POP JUMP JUMPDEST PUSH2 0x607 PUSH2 0x772 JUMP JUMPDEST PUSH1 0x0 DUP1 DUP4 DUP2 MSTORE PUSH1 0x20 ADD SWAP1 DUP2 MSTORE PUSH1 0x20 ADD PUSH1 0x0 KECCAK256 PUSH1 0x40 MLOAD DUP1 PUSH1 0x60 ADD PUSH1 0x40 MSTORE SWAP1 DUP2 PUSH1 0x0 DUP3 ADD SLOAD DUP2 MSTORE PUSH1 0x20 ADD PUSH1 0x1 DUP3 ADD DUP1 SLOAD PUSH1 0x1 DUP2 PUSH1 0x1 AND ISZERO PUSH2 0x100 MUL SUB AND PUSH1 0x2 SWAP1 DIV DUP1 PUSH1 0x1F ADD PUSH1 0x20 DUP1 SWAP2 DIV MUL PUSH1 0x20 ADD PUSH1 0x40 MLOAD SWAP1 DUP2 ADD PUSH1 0x40 MSTORE DUP1 SWAP3 SWAP2 SWAP1 DUP2 DUP2 MSTORE PUSH1 0x20 ADD DUP3 DUP1 SLOAD PUSH1 0x1 DUP2 PUSH1 0x1 AND ISZERO PUSH2 0x100 MUL SUB AND PUSH1 0x2 SWAP1 DIV DUP1 ISZERO PUSH2 0x6C7 JUMPI DUP1 PUSH1 0x1F LT PUSH2 0x69C JUMPI PUSH2 0x100 DUP1 DUP4 SLOAD DIV MUL DUP4 MSTORE SWAP2 PUSH1 0x20 ADD SWAP2 PUSH2 0x6C7 JUMP JUMPDEST DUP3 ADD SWAP2 SWAP1 PUSH1 0x0 MSTORE PUSH1 0x20 PUSH1 0x0 KECCAK256 SWAP1 JUMPDEST DUP2 SLOAD DUP2 MSTORE SWAP1 PUSH1 0x1 ADD SWAP1 PUSH1 0x20 ADD DUP1 DUP4 GT PUSH2 0x6AA JUMPI DUP3 SWAP1 SUB PUSH1 0x1F AND DUP3 ADD SWAP2 JUMPDEST POP POP POP POP POP DUP2 MSTORE PUSH1 0x20 ADD PUSH1 0x2 DUP3 ADD PUSH1 0x0 SWAP1 SLOAD SWAP1 PUSH2 0x100 EXP SWAP1 DIV PUSH1 0xFF AND ISZERO ISZERO ISZERO ISZERO DUP2 MSTORE POP POP SWAP1 POP SWAP2 SWAP1 POP JUMP JUMPDEST DUP3 DUP1 SLOAD PUSH1 0x1 DUP2 PUSH1 0x1 AND ISZERO PUSH2 0x100 MUL SUB AND PUSH1 0x2 SWAP1 DIV SWAP1 PUSH1 0x0 MSTORE PUSH1 0x20 PUSH1 0x0 KECCAK256 SWAP1 PUSH1 0x1F ADD PUSH1 0x20 SWAP1 DIV DUP2 ADD SWAP3 DUP3 PUSH1 0x1F LT PUSH2 0x733 JUMPI DUP1 MLOAD PUSH1 0xFF NOT AND DUP4 DUP1 ADD OR DUP6 SSTORE PUSH2 0x761 JUMP JUMPDEST DUP3 DUP1 ADD PUSH1 0x1 ADD DUP6 SSTORE DUP3 ISZERO PUSH2 0x761 JUMPI SWAP2 DUP3 ADD JUMPDEST DUP3 DUP2 GT ISZERO PUSH2 0x760 JUMPI DUP3 MLOAD DUP3 SSTORE SWAP2 PUSH1 0x20 ADD SWAP2 SWAP1 PUSH1 0x1 ADD SWAP1 PUSH2 0x745 JUMP JUMPDEST JUMPDEST POP SWAP1 POP PUSH2 0x76E SWAP2 SWAP1 PUSH2 0x795 JUMP JUMPDEST POP SWAP1 JUMP JUMPDEST PUSH1 0x40 MLOAD DUP1 PUSH1 0x60 ADD PUSH1 0x40 MSTORE DUP1 PUSH1 0x0 DUP2 MSTORE PUSH1 0x20 ADD PUSH1 0x60 DUP2 MSTORE PUSH1 0x20 ADD PUSH1 0x0 ISZERO ISZERO DUP2 MSTORE POP SWAP1 JUMP JUMPDEST PUSH2 0x7B7 SWAP2 SWAP1 JUMPDEST DUP1 DUP3 GT ISZERO PUSH2 0x7B3 JUMPI PUSH1 0x0 DUP2 PUSH1 0x0 SWAP1 SSTORE POP PUSH1 0x1 ADD PUSH2 0x79B JUMP JUMPDEST POP SWAP1 JUMP JUMPDEST SWAP1 JUMP JUMPDEST PUSH1 0x0 DUP2 CALLDATALOAD SWAP1 POP PUSH2 0x7C9 DUP2 PUSH2 0xE10 JUMP JUMPDEST SWAP3 SWAP2 POP POP JUMP JUMPDEST PUSH1 0x0 DUP3 PUSH1 0x1F DUP4 ADD SLT PUSH2 0x7E0 JUMPI PUSH1 0x0 DUP1 REVERT JUMPDEST DUP2 CALLDATALOAD PUSH2 0x7F3 PUSH2 0x7EE DUP3 PUSH2 0xCA3 JUMP JUMPDEST PUSH2 0xC76 JUMP JUMPDEST SWAP2 POP DUP1 DUP3 MSTORE PUSH1 0x20 DUP4 ADD PUSH1 0x20 DUP4 ADD DUP6 DUP4 DUP4 ADD GT ISZERO PUSH2 0x80F JUMPI PUSH1 0x0 DUP1 REVERT JUMPDEST PUSH2 0x81A DUP4 DUP3 DUP5 PUSH2 0xDBD JUMP JUMPDEST POP POP POP SWAP3 SWAP2 POP POP JUMP JUMPDEST PUSH1 0x0 DUP2 CALLDATALOAD SWAP1 POP PUSH2 0x832 DUP2 PUSH2 0xE27 JUMP JUMPDEST SWAP3 SWAP2 POP POP JUMP JUMPDEST PUSH1 0x0 PUSH1 0x20 DUP3 DUP5 SUB SLT ISZERO PUSH2 0x84A JUMPI PUSH1 0x0 DUP1 REVERT JUMPDEST PUSH1 0x0 PUSH2 0x858 DUP5 DUP3 DUP6 ADD PUSH2 0x7BA JUMP JUMPDEST SWAP2 POP POP SWAP3 SWAP2 POP POP JUMP JUMPDEST PUSH1 0x0 DUP1 PUSH1 0x40 DUP4 DUP6 SUB SLT ISZERO PUSH2 0x874 JUMPI PUSH1 0x0 DUP1 REVERT JUMPDEST PUSH1 0x0 DUP4 ADD CALLDATALOAD PUSH8 0xFFFFFFFFFFFFFFFF DUP2 GT ISZERO PUSH2 0x88E JUMPI PUSH1 0x0 DUP1 REVERT JUMPDEST PUSH2 0x89A DUP6 DUP3 DUP7 ADD PUSH2 0x7CF JUMP JUMPDEST SWAP3 POP POP PUSH1 0x20 PUSH2 0x8AB DUP6 DUP3 DUP7 ADD PUSH2 0x7BA JUMP JUMPDEST SWAP2 POP POP SWAP3 POP SWAP3 SWAP1 POP JUMP JUMPDEST PUSH1 0x0 PUSH1 0x20 DUP3 DUP5 SUB SLT ISZERO PUSH2 0x8C7 JUMPI PUSH1 0x0 DUP1 REVERT JUMPDEST PUSH1 0x0 PUSH2 0x8D5 DUP5 DUP3 DUP6 ADD PUSH2 0x823 JUMP JUMPDEST SWAP2 POP POP SWAP3 SWAP2 POP POP JUMP JUMPDEST PUSH1 0x0 DUP1 PUSH1 0x40 DUP4 DUP6 SUB SLT ISZERO PUSH2 0x8F1 JUMPI PUSH1 0x0 DUP1 REVERT JUMPDEST PUSH1 0x0 PUSH2 0x8FF DUP6 DUP3 DUP7 ADD PUSH2 0x823 JUMP JUMPDEST SWAP3 POP POP PUSH1 0x20 PUSH2 0x910 DUP6 DUP3 DUP7 ADD PUSH2 0x7BA JUMP JUMPDEST SWAP2 POP POP SWAP3 POP SWAP3 SWAP1 POP JUMP JUMPDEST PUSH1 0x0 PUSH2 0x926 DUP4 DUP4 PUSH2 0xA8F JUMP JUMPDEST PUSH1 0x20 DUP4 ADD SWAP1 POP SWAP3 SWAP2 POP POP JUMP JUMPDEST PUSH1 0x0 PUSH2 0x93E DUP4 DUP4 PUSH2 0xAAD JUMP JUMPDEST SWAP1 POP SWAP3 SWAP2 POP POP JUMP JUMPDEST PUSH1 0x0 PUSH2 0x952 DUP4 DUP4 PUSH2 0xB6F JUMP JUMPDEST PUSH1 0x20 DUP4 ADD SWAP1 POP SWAP3 SWAP2 POP POP JUMP JUMPDEST PUSH1 0x0 PUSH2 0x969 DUP3 PUSH2 0xCFF JUMP JUMPDEST PUSH2 0x973 DUP2 DUP6 PUSH2 0xD52 JUMP JUMPDEST SWAP4 POP PUSH2 0x97E DUP4 PUSH2 0xCCF JUMP JUMPDEST DUP1 PUSH1 0x0 JUMPDEST DUP4 DUP2 LT ISZERO PUSH2 0x9AF JUMPI DUP2 MLOAD PUSH2 0x996 DUP9 DUP3 PUSH2 0x91A JUMP JUMPDEST SWAP8 POP PUSH2 0x9A1 DUP4 PUSH2 0xD2B JUMP JUMPDEST SWAP3 POP POP PUSH1 0x1 DUP2 ADD SWAP1 POP PUSH2 0x982 JUMP JUMPDEST POP DUP6 SWAP4 POP POP POP POP SWAP3 SWAP2 POP POP JUMP JUMPDEST PUSH1 0x0 PUSH2 0x9C7 DUP3 PUSH2 0xD0A JUMP JUMPDEST PUSH2 0x9D1 DUP2 DUP6 PUSH2 0xD63 JUMP JUMPDEST SWAP4 POP DUP4 PUSH1 0x20 DUP3 MUL DUP6 ADD PUSH2 0x9E3 DUP6 PUSH2 0xCDF JUMP JUMPDEST DUP1 PUSH1 0x0 JUMPDEST DUP6 DUP2 LT ISZERO PUSH2 0xA1F JUMPI DUP5 DUP5 SUB DUP10 MSTORE DUP2 MLOAD PUSH2 0xA00 DUP6 DUP3 PUSH2 0x932 JUMP JUMPDEST SWAP5 POP PUSH2 0xA0B DUP4 PUSH2 0xD38 JUMP JUMPDEST SWAP3 POP PUSH1 0x20 DUP11 ADD SWAP10 POP POP PUSH1 0x1 DUP2 ADD SWAP1 POP PUSH2 0x9E7 JUMP JUMPDEST POP DUP3 SWAP8 POP DUP8 SWAP6 POP POP POP POP POP POP SWAP3 SWAP2 POP POP JUMP JUMPDEST PUSH1 0x0 PUSH2 0xA3C DUP3 PUSH2 0xD15 JUMP JUMPDEST PUSH2 0xA46 DUP2 DUP6 PUSH2 0xD74 JUMP JUMPDEST SWAP4 POP PUSH2 0xA51 DUP4 PUSH2 0xCEF JUMP JUMPDEST DUP1 PUSH1 0x0 JUMPDEST DUP4 DUP2 LT ISZERO PUSH2 0xA82 JUMPI DUP2 MLOAD PUSH2 0xA69 DUP9 DUP3 PUSH2 0x946 JUMP JUMPDEST SWAP8 POP PUSH2 0xA74 DUP4 PUSH2 0xD45 JUMP JUMPDEST SWAP3 POP POP PUSH1 0x1 DUP2 ADD SWAP1 POP PUSH2 0xA55 JUMP JUMPDEST POP DUP6 SWAP4 POP POP POP POP SWAP3 SWAP2 POP POP JUMP JUMPDEST PUSH2 0xA98 DUP2 PUSH2 0xDA7 JUMP JUMPDEST DUP3 MSTORE POP POP JUMP JUMPDEST PUSH2 0xAA7 DUP2 PUSH2 0xDA7 JUMP JUMPDEST DUP3 MSTORE POP POP JUMP JUMPDEST PUSH1 0x0 PUSH2 0xAB8 DUP3 PUSH2 0xD20 JUMP JUMPDEST PUSH2 0xAC2 DUP2 DUP6 PUSH2 0xD85 JUMP JUMPDEST SWAP4 POP PUSH2 0xAD2 DUP2 DUP6 PUSH1 0x20 DUP7 ADD PUSH2 0xDCC JUMP JUMPDEST PUSH2 0xADB DUP2 PUSH2 0xDFF JUMP JUMPDEST DUP5 ADD SWAP2 POP POP SWAP3 SWAP2 POP POP JUMP JUMPDEST PUSH1 0x0 PUSH2 0xAF1 DUP3 PUSH2 0xD20 JUMP JUMPDEST PUSH2 0xAFB DUP2 DUP6 PUSH2 0xD96 JUMP JUMPDEST SWAP4 POP PUSH2 0xB0B DUP2 DUP6 PUSH1 0x20 DUP7 ADD PUSH2 0xDCC JUMP JUMPDEST PUSH2 0xB14 DUP2 PUSH2 0xDFF JUMP JUMPDEST DUP5 ADD SWAP2 POP POP SWAP3 SWAP2 POP POP JUMP JUMPDEST PUSH1 0x0 PUSH1 0x60 DUP4 ADD PUSH1 0x0 DUP4 ADD MLOAD PUSH2 0xB37 PUSH1 0x0 DUP7 ADD DUP3 PUSH2 0xB6F JUMP JUMPDEST POP PUSH1 0x20 DUP4 ADD MLOAD DUP5 DUP3 SUB PUSH1 0x20 DUP7 ADD MSTORE PUSH2 0xB4F DUP3 DUP3 PUSH2 0xAAD JUMP JUMPDEST SWAP2 POP POP PUSH1 0x40 DUP4 ADD MLOAD PUSH2 0xB64 PUSH1 0x40 DUP7 ADD DUP3 PUSH2 0xA8F JUMP JUMPDEST POP DUP1 SWAP2 POP POP SWAP3 SWAP2 POP POP JUMP JUMPDEST PUSH2 0xB78 DUP2 PUSH2 0xDB3 JUMP JUMPDEST DUP3 MSTORE POP POP JUMP JUMPDEST PUSH2 0xB87 DUP2 PUSH2 0xDB3 JUMP JUMPDEST DUP3 MSTORE POP POP JUMP JUMPDEST PUSH1 0x0 PUSH1 0x20 DUP3 ADD SWAP1 POP DUP2 DUP2 SUB PUSH1 0x0 DUP4 ADD MSTORE PUSH2 0xBA7 DUP2 DUP5 PUSH2 0xA31 JUMP JUMPDEST SWAP1 POP SWAP3 SWAP2 POP POP JUMP JUMPDEST PUSH1 0x0 PUSH1 0x60 DUP3 ADD SWAP1 POP DUP2 DUP2 SUB PUSH1 0x0 DUP4 ADD MSTORE PUSH2 0xBC9 DUP2 DUP7 PUSH2 0xA31 JUMP JUMPDEST SWAP1 POP DUP2 DUP2 SUB PUSH1 0x20 DUP4 ADD MSTORE PUSH2 0xBDD DUP2 DUP6 PUSH2 0x9BC JUMP JUMPDEST SWAP1 POP DUP2 DUP2 SUB PUSH1 0x40 DUP4 ADD MSTORE PUSH2 0xBF1 DUP2 DUP5 PUSH2 0x95E JUMP JUMPDEST SWAP1 POP SWAP5 SWAP4 POP POP POP POP JUMP JUMPDEST PUSH1 0x0 PUSH1 0x20 DUP3 ADD SWAP1 POP DUP2 DUP2 SUB PUSH1 0x0 DUP4 ADD MSTORE PUSH2 0xC15 DUP2 DUP5 PUSH2 0xB1F JUMP JUMPDEST SWAP1 POP SWAP3 SWAP2 POP POP JUMP JUMPDEST PUSH1 0x0 PUSH1 0x20 DUP3 ADD SWAP1 POP PUSH2 0xC32 PUSH1 0x0 DUP4 ADD DUP5 PUSH2 0xB7E JUMP JUMPDEST SWAP3 SWAP2 POP POP JUMP JUMPDEST PUSH1 0x0 PUSH1 0x60 DUP3 ADD SWAP1 POP PUSH2 0xC4D PUSH1 0x0 DUP4 ADD DUP7 PUSH2 0xB7E JUMP JUMPDEST DUP2 DUP2 SUB PUSH1 0x20 DUP4 ADD MSTORE PUSH2 0xC5F DUP2 DUP6 PUSH2 0xAE6 JUMP JUMPDEST SWAP1 POP PUSH2 0xC6E PUSH1 0x40 DUP4 ADD DUP5 PUSH2 0xA9E JUMP JUMPDEST SWAP5 SWAP4 POP POP POP POP JUMP JUMPDEST PUSH1 0x0 PUSH1 0x40 MLOAD SWAP1 POP DUP2 DUP2 ADD DUP2 DUP2 LT PUSH8 0xFFFFFFFFFFFFFFFF DUP3 GT OR ISZERO PUSH2 0xC99 JUMPI PUSH1 0x0 DUP1 REVERT JUMPDEST DUP1 PUSH1 0x40 MSTORE POP SWAP2 SWAP1 POP JUMP JUMPDEST PUSH1 0x0 PUSH8 0xFFFFFFFFFFFFFFFF DUP3 GT ISZERO PUSH2 0xCBA JUMPI PUSH1 0x0 DUP1 REVERT JUMPDEST PUSH1 0x1F NOT PUSH1 0x1F DUP4 ADD AND SWAP1 POP PUSH1 0x20 DUP2 ADD SWAP1 POP SWAP2 SWAP1 POP JUMP JUMPDEST PUSH1 0x0 DUP2 SWAP1 POP PUSH1 0x20 DUP3 ADD SWAP1 POP SWAP2 SWAP1 POP JUMP JUMPDEST PUSH1 0x0 DUP2 SWAP1 POP PUSH1 0x20 DUP3 ADD SWAP1 POP SWAP2 SWAP1 POP JUMP JUMPDEST PUSH1 0x0 DUP2 SWAP1 POP PUSH1 0x20 DUP3 ADD SWAP1 POP SWAP2 SWAP1 POP JUMP JUMPDEST PUSH1 0x0 DUP2 MLOAD SWAP1 POP SWAP2 SWAP1 POP JUMP JUMPDEST PUSH1 0x0 DUP2 MLOAD SWAP1 POP SWAP2 SWAP1 POP JUMP JUMPDEST PUSH1 0x0 DUP2 MLOAD SWAP1 POP SWAP2 SWAP1 POP JUMP JUMPDEST PUSH1 0x0 DUP2 MLOAD SWAP1 POP SWAP2 SWAP1 POP JUMP JUMPDEST PUSH1 0x0 PUSH1 0x20 DUP3 ADD SWAP1 POP SWAP2 SWAP1 POP JUMP JUMPDEST PUSH1 0x0 PUSH1 0x20 DUP3 ADD SWAP1 POP SWAP2 SWAP1 POP JUMP JUMPDEST PUSH1 0x0 PUSH1 0x20 DUP3 ADD SWAP1 POP SWAP2 SWAP1 POP JUMP JUMPDEST PUSH1 0x0 DUP3 DUP3 MSTORE PUSH1 0x20 DUP3 ADD SWAP1 POP SWAP3 SWAP2 POP POP JUMP JUMPDEST PUSH1 0x0 DUP3 DUP3 MSTORE PUSH1 0x20 DUP3 ADD SWAP1 POP SWAP3 SWAP2 POP POP JUMP JUMPDEST PUSH1 0x0 DUP3 DUP3 MSTORE PUSH1 0x20 DUP3 ADD SWAP1 POP SWAP3 SWAP2 POP POP JUMP JUMPDEST PUSH1 0x0 DUP3 DUP3 MSTORE PUSH1 0x20 DUP3 ADD SWAP1 POP SWAP3 SWAP2 POP POP JUMP JUMPDEST PUSH1 0x0 DUP3 DUP3 MSTORE PUSH1 0x20 DUP3 ADD SWAP1 POP SWAP3 SWAP2 POP POP JUMP JUMPDEST PUSH1 0x0 DUP2 ISZERO ISZERO SWAP1 POP SWAP2 SWAP1 POP JUMP JUMPDEST PUSH1 0x0 DUP2 SWAP1 POP SWAP2 SWAP1 POP JUMP JUMPDEST DUP3 DUP2 DUP4 CALLDATACOPY PUSH1 0x0 DUP4 DUP4 ADD MSTORE POP POP POP JUMP JUMPDEST PUSH1 0x0 JUMPDEST DUP4 DUP2 LT ISZERO PUSH2 0xDEA JUMPI DUP1 DUP3 ADD MLOAD DUP2 DUP5 ADD MSTORE PUSH1 0x20 DUP2 ADD SWAP1 POP PUSH2 0xDCF JUMP JUMPDEST DUP4 DUP2 GT ISZERO PUSH2 0xDF9 JUMPI PUSH1 0x0 DUP5 DUP5 ADD MSTORE JUMPDEST POP POP POP POP JUMP JUMPDEST PUSH1 0x0 PUSH1 0x1F NOT PUSH1 0x1F DUP4 ADD AND SWAP1 POP SWAP2 SWAP1 POP JUMP JUMPDEST PUSH2 0xE19 DUP2 PUSH2 0xDA7 JUMP JUMPDEST DUP2 EQ PUSH2 0xE24 JUMPI PUSH1 0x0 DUP1 REVERT JUMPDEST POP JUMP JUMPDEST PUSH2 0xE30 DUP2 PUSH2 0xDB3 JUMP JUMPDEST DUP2 EQ PUSH2 0xE3B JUMPI PUSH1 0x0 DUP1 REVERT JUMPDEST POP JUMP INVALID LOG2 PUSH5 0x6970667358 0x22 SLT KECCAK256 PUSH11 0xE05E924EAE073A11EC23C1 0xCF 0xBE 0xE INVALID 0xBC DIV SLT 0xAF PUSH13 0x765E24A4A6337B5CC7A6473 PUSH16 0x6C634300060000330000000000000000 "
				},
				"gasEstimates": {
					"creation": {
						"codeDepositCost": "740000",
						"executionCost": "infinite",
						"totalCost": "infinite"
					},
					"external": {
						"addMember(string,bool)": "infinite",
						"getCountOfVoted(bool)": "infinite",
						"getMemberStructure(uint256)": "infinite",
						"getMemberValue()": "infinite",
						"getVotedMember(bool)": "infinite",
						"memberCount()": "1130",
						"members(uint256)": "infinite",
						"setVote(uint256,bool)": "21580"
					}
				},
				"methodIdentifiers": {
					"addMember(string,bool)": "92c68389",
					"getCountOfVoted(bool)": "ab7a2015",
					"getMemberStructure(uint256)": "f97698f8",
					"getMemberValue()": "6f416d59",
					"getVotedMember(bool)": "7f44982a",
					"memberCount()": "11aee380",
					"members(uint256)": "5daf08ca",
					"setVote(uint256,bool)": "d3516b7e"
				}
			},
			"storageLayout": {
				"storage": [
					{
						"astId": 13,
						"contract": "contracts/fun_stuff.sol:VoteSaving",
						"label": "members",
						"offset": 0,
						"slot": "0",
						"type": "t_mapping(t_uint256,t_struct(Member)9_storage)"
					},
					{
						"astId": 19,
						"contract": "contracts/fun_stuff.sol:VoteSaving",
						"label": "memberCount",
						"offset": 0,
						"slot": "1",
						"type": "t_uint256"
					},
					{
						"astId": 143,
						"contract": "contracts/fun_stuff.sol:VoteSaving",
						"label": "votedMember",
						"offset": 0,
						"slot": "2",
						"type": "t_array(t_uint256)dyn_storage"
					}
				],
				"types": {
					"t_array(t_uint256)dyn_storage": {
						"base": "t_uint256",
						"encoding": "dynamic_array",
						"label": "uint256[]",
						"numberOfBytes": "32"
					},
					"t_bool": {
						"encoding": "inplace",
						"label": "bool",
						"numberOfBytes": "1"
					},
					"t_mapping(t_uint256,t_struct(Member)9_storage)": {
						"encoding": "mapping",
						"key": "t_uint256",
						"label": "mapping(uint256 => struct VoteSaving.Member)",
						"numberOfBytes": "32",
						"value": "t_struct(Member)9_storage"
					},
					"t_string_storage": {
						"encoding": "bytes",
						"label": "string",
						"numberOfBytes": "32"
					},
					"t_struct(Member)9_storage": {
						"encoding": "inplace",
						"label": "struct VoteSaving.Member",
						"members": [
							{
								"astId": 4,
								"contract": "contracts/fun_stuff.sol:VoteSaving",
								"label": "id",
								"offset": 0,
								"slot": "0",
								"type": "t_uint256"
							},
							{
								"astId": 6,
								"contract": "contracts/fun_stuff.sol:VoteSaving",
								"label": "name",
								"offset": 0,
								"slot": "1",
								"type": "t_string_storage"
							},
							{
								"astId": 8,
								"contract": "contracts/fun_stuff.sol:VoteSaving",
								"label": "isVoted",
								"offset": 0,
								"slot": "2",
								"type": "t_bool"
							}
						],
						"numberOfBytes": "96"
					},
					"t_uint256": {
						"encoding": "inplace",
						"label": "uint256",
						"numberOfBytes": "32"
					}
				}
			},
			"userdoc": {
				"methods": {}
			}
		}
	}
}