{
	"contracts/proposal.sol": {
		"TestProposal": {
			"abi": [
				{
					"inputs": [],
					"stateMutability": "nonpayable",
					"type": "constructor"
				},
				{
					"anonymous": false,
					"inputs": [
						{
							"indexed": true,
							"internalType": "uint256",
							"name": "_proposalId",
							"type": "uint256"
						}
					],
					"name": "savingEvent",
					"type": "event"
				},
				{
					"inputs": [
						{
							"internalType": "uint256",
							"name": "_proposalId",
							"type": "uint256"
						},
						{
							"internalType": "uint256",
							"name": "_proposalStatus",
							"type": "uint256"
						},
						{
							"internalType": "address",
							"name": "_proposalCreator",
							"type": "address"
						},
						{
							"internalType": "uint256",
							"name": "_proposalNumOfOptions",
							"type": "uint256"
						}
					],
					"name": "addProposal",
					"outputs": [],
					"stateMutability": "nonpayable",
					"type": "function"
				},
				{
					"inputs": [
						{
							"internalType": "uint256",
							"name": "_proposalId",
							"type": "uint256"
						}
					],
					"name": "getProposalStructure",
					"outputs": [
						{
							"components": [
								{
									"internalType": "uint256",
									"name": "proposalId",
									"type": "uint256"
								},
								{
									"internalType": "uint256",
									"name": "proposalStatus",
									"type": "uint256"
								},
								{
									"internalType": "address",
									"name": "proposalCreator",
									"type": "address"
								},
								{
									"internalType": "uint256",
									"name": "proposalNumOfOptions",
									"type": "uint256"
								}
							],
							"internalType": "struct TestProposal.Proposal",
							"name": "",
							"type": "tuple"
						}
					],
					"stateMutability": "view",
					"type": "function"
				},
				{
					"inputs": [],
					"name": "proposalCount",
					"outputs": [
						{
							"internalType": "uint256",
							"name": "",
							"type": "uint256"
						}
					],
					"stateMutability": "view",
					"type": "function"
				},
				{
					"inputs": [
						{
							"internalType": "uint256",
							"name": "",
							"type": "uint256"
						}
					],
					"name": "proposals",
					"outputs": [
						{
							"internalType": "uint256",
							"name": "proposalId",
							"type": "uint256"
						},
						{
							"internalType": "uint256",
							"name": "proposalStatus",
							"type": "uint256"
						},
						{
							"internalType": "address",
							"name": "proposalCreator",
							"type": "address"
						},
						{
							"internalType": "uint256",
							"name": "proposalNumOfOptions",
							"type": "uint256"
						}
					],
					"stateMutability": "view",
					"type": "function"
				}
			],
			"devdoc": {
				"methods": {}
			},
			"evm": {
				"assembly": "    /* \"contracts/proposal.sol\":139:1346  contract TestProposal {\r... */\n  mstore(0x40, 0x80)\n    /* \"contracts/proposal.sol\":649:781  constructor() public {\r... */\n  callvalue\n    /* \"--CODEGEN--\":8:17   */\n  dup1\n    /* \"--CODEGEN--\":5:7   */\n  iszero\n  tag_1\n  jumpi\n    /* \"--CODEGEN--\":30:31   */\n  0x00\n    /* \"--CODEGEN--\":27:28   */\n  dup1\n    /* \"--CODEGEN--\":20:32   */\n  revert\n    /* \"--CODEGEN--\":5:7   */\ntag_1:\n    /* \"contracts/proposal.sol\":649:781  constructor() public {\r... */\n  pop\n    /* \"contracts/proposal.sol\":697:698  0 */\n  0x00\n    /* \"contracts/proposal.sol\":681:694  proposalCount */\n  0x01\n    /* \"contracts/proposal.sol\":681:698  proposalCount = 0 */\n  dup2\n  swap1\n  sstore\n  pop\n    /* \"contracts/proposal.sol\":709:773  addProposal(1, 1, 0xB5dea2661dfa4b8f0aaE8Bc1F583369D927c3b06, 3) */\n  tag_4\n    /* \"contracts/proposal.sol\":721:722  1 */\n  0x01\n    /* \"contracts/proposal.sol\":724:725  1 */\n  dup1\n    /* \"contracts/proposal.sol\":727:769  0xB5dea2661dfa4b8f0aaE8Bc1F583369D927c3b06 */\n  0xb5dea2661dfa4b8f0aae8bc1f583369d927c3b06\n    /* \"contracts/proposal.sol\":771:772  3 */\n  0x03\n    /* \"contracts/proposal.sol\":709:720  addProposal */\n  shl(0x20, tag_5)\n    /* \"contracts/proposal.sol\":709:773  addProposal(1, 1, 0xB5dea2661dfa4b8f0aaE8Bc1F583369D927c3b06, 3) */\n  0x20\n  shr\n  jump\t// in\ntag_4:\n    /* \"contracts/proposal.sol\":139:1346  contract TestProposal {\r... */\n  jump(tag_6)\n    /* \"contracts/proposal.sol\":789:1062  function addProposal(uint _proposalId, uint _proposalStatus, address _proposalCreator, uint _proposalNumOfOptions) public {\r... */\ntag_5:\n    /* \"contracts/proposal.sol\":949:1028  Proposal(_proposalId, _proposalStatus, _proposalCreator, _proposalNumOfOptions) */\n  mload(0x40)\n  dup1\n  0x80\n  add\n  0x40\n  mstore\n  dup1\n    /* \"contracts/proposal.sol\":958:969  _proposalId */\n  dup6\n    /* \"contracts/proposal.sol\":949:1028  Proposal(_proposalId, _proposalStatus, _proposalCreator, _proposalNumOfOptions) */\n  dup2\n  mstore\n  0x20\n  add\n    /* \"contracts/proposal.sol\":971:986  _proposalStatus */\n  dup5\n    /* \"contracts/proposal.sol\":949:1028  Proposal(_proposalId, _proposalStatus, _proposalCreator, _proposalNumOfOptions) */\n  dup2\n  mstore\n  0x20\n  add\n    /* \"contracts/proposal.sol\":988:1004  _proposalCreator */\n  dup4\n    /* \"contracts/proposal.sol\":949:1028  Proposal(_proposalId, _proposalStatus, _proposalCreator, _proposalNumOfOptions) */\n  0xffffffffffffffffffffffffffffffffffffffff\n  and\n  dup2\n  mstore\n  0x20\n  add\n    /* \"contracts/proposal.sol\":1006:1027  _proposalNumOfOptions */\n  dup3\n    /* \"contracts/proposal.sol\":949:1028  Proposal(_proposalId, _proposalStatus, _proposalCreator, _proposalNumOfOptions) */\n  dup2\n  mstore\n  pop\n    /* \"contracts/proposal.sol\":922:931  proposals */\n  0x00\n    /* \"contracts/proposal.sol\":922:946  proposals[proposalCount] */\n  dup1\n    /* \"contracts/proposal.sol\":932:945  proposalCount */\n  sload(0x01)\n    /* \"contracts/proposal.sol\":922:946  proposals[proposalCount] */\n  dup2\n  mstore\n  0x20\n  add\n  swap1\n  dup2\n  mstore\n  0x20\n  add\n  0x00\n  keccak256\n    /* \"contracts/proposal.sol\":922:1028  proposals[proposalCount] = Proposal(_proposalId, _proposalStatus, _proposalCreator, _proposalNumOfOptions) */\n  0x00\n  dup3\n  add\n  mload\n  dup2\n  0x00\n  add\n  sstore\n  0x20\n  dup3\n  add\n  mload\n  dup2\n  0x01\n  add\n  sstore\n  0x40\n  dup3\n  add\n  mload\n  dup2\n  0x02\n  add\n  exp(0x0100, 0x00)\n  dup2\n  sload\n  dup2\n  0xffffffffffffffffffffffffffffffffffffffff\n  mul\n  not\n  and\n  swap1\n  dup4\n  0xffffffffffffffffffffffffffffffffffffffff\n  and\n  mul\n  or\n  swap1\n  sstore\n  pop\n  0x60\n  dup3\n  add\n  mload\n  dup2\n  0x03\n  add\n  sstore\n  swap1\n  pop\n  pop\n    /* \"contracts/proposal.sol\":1039:1052  proposalCount */\n  0x01\n  0x00\n    /* \"contracts/proposal.sol\":1039:1054  proposalCount++ */\n  dup2\n  sload\n  dup1\n  swap3\n  swap2\n  swap1\n  0x01\n  add\n  swap2\n  swap1\n  pop\n  sstore\n  pop\n    /* \"contracts/proposal.sol\":789:1062  function addProposal(uint _proposalId, uint _proposalStatus, address _proposalCreator, uint _proposalNumOfOptions) public {\r... */\n  pop\n  pop\n  pop\n  pop\n  jump\t// out\n    /* \"contracts/proposal.sol\":139:1346  contract TestProposal {\r... */\ntag_6:\n  dataSize(sub_0)\n  dup1\n  dataOffset(sub_0)\n  0x00\n  codecopy\n  0x00\n  return\nstop\n\nsub_0: assembly {\n        /* \"contracts/proposal.sol\":139:1346  contract TestProposal {\r... */\n      mstore(0x40, 0x80)\n      callvalue\n        /* \"--CODEGEN--\":8:17   */\n      dup1\n        /* \"--CODEGEN--\":5:7   */\n      iszero\n      tag_1\n      jumpi\n        /* \"--CODEGEN--\":30:31   */\n      0x00\n        /* \"--CODEGEN--\":27:28   */\n      dup1\n        /* \"--CODEGEN--\":20:32   */\n      revert\n        /* \"--CODEGEN--\":5:7   */\n    tag_1:\n        /* \"contracts/proposal.sol\":139:1346  contract TestProposal {\r... */\n      pop\n      jumpi(tag_2, lt(calldatasize, 0x04))\n      shr(0xe0, calldataload(0x00))\n      dup1\n      0x013cf08b\n      eq\n      tag_3\n      jumpi\n      dup1\n      0xcae455ee\n      eq\n      tag_4\n      jumpi\n      dup1\n      0xda35c664\n      eq\n      tag_5\n      jumpi\n      dup1\n      0xe9d6c6da\n      eq\n      tag_6\n      jumpi\n    tag_2:\n      0x00\n      dup1\n      revert\n        /* \"contracts/proposal.sol\":515:558  mapping (uint => Proposal) public proposals */\n    tag_3:\n      tag_7\n      0x04\n      dup1\n      calldatasize\n      sub\n      tag_8\n      swap2\n      swap1\n      dup2\n      add\n      swap1\n      jump(tag_9)\n    tag_8:\n      tag_10\n      jump\t// in\n    tag_7:\n      mload(0x40)\n      tag_11\n      swap5\n      swap4\n      swap3\n      swap2\n      swap1\n      jump(tag_12)\n    tag_11:\n      mload(0x40)\n      dup1\n      swap2\n      sub\n      swap1\n      return\n        /* \"contracts/proposal.sol\":789:1062  function addProposal(uint _proposalId, uint _proposalStatus, address _proposalCreator, uint _proposalNumOfOptions) public {\r... */\n    tag_4:\n      tag_13\n      0x04\n      dup1\n      calldatasize\n      sub\n      tag_14\n      swap2\n      swap1\n      dup2\n      add\n      swap1\n      jump(tag_15)\n    tag_14:\n      tag_16\n      jump\t// in\n    tag_13:\n      stop\n        /* \"contracts/proposal.sol\":615:640  uint public proposalCount */\n    tag_5:\n      tag_17\n      tag_18\n      jump\t// in\n    tag_17:\n      mload(0x40)\n      tag_19\n      swap2\n      swap1\n      jump(tag_20)\n    tag_19:\n      mload(0x40)\n      dup1\n      swap2\n      sub\n      swap1\n      return\n        /* \"contracts/proposal.sol\":1070:1202  function getProposalStructure(uint _proposalId) public view returns(Proposal memory){\r... */\n    tag_6:\n      tag_21\n      0x04\n      dup1\n      calldatasize\n      sub\n      tag_22\n      swap2\n      swap1\n      dup2\n      add\n      swap1\n      jump(tag_9)\n    tag_22:\n      tag_23\n      jump\t// in\n    tag_21:\n      mload(0x40)\n      tag_24\n      swap2\n      swap1\n      jump(tag_25)\n    tag_24:\n      mload(0x40)\n      dup1\n      swap2\n      sub\n      swap1\n      return\n        /* \"contracts/proposal.sol\":515:558  mapping (uint => Proposal) public proposals */\n    tag_10:\n      mstore(0x20, 0x00)\n      dup1\n      0x00\n      mstore\n      keccak256(0x00, 0x40)\n      0x00\n      swap2\n      pop\n      swap1\n      pop\n      dup1\n      0x00\n      add\n      sload\n      swap1\n      dup1\n      0x01\n      add\n      sload\n      swap1\n      dup1\n      0x02\n      add\n      0x00\n      swap1\n      sload\n      swap1\n      0x0100\n      exp\n      swap1\n      div\n      0xffffffffffffffffffffffffffffffffffffffff\n      and\n      swap1\n      dup1\n      0x03\n      add\n      sload\n      swap1\n      pop\n      dup5\n      jump\t// out\n        /* \"contracts/proposal.sol\":789:1062  function addProposal(uint _proposalId, uint _proposalStatus, address _proposalCreator, uint _proposalNumOfOptions) public {\r... */\n    tag_16:\n        /* \"contracts/proposal.sol\":949:1028  Proposal(_proposalId, _proposalStatus, _proposalCreator, _proposalNumOfOptions) */\n      mload(0x40)\n      dup1\n      0x80\n      add\n      0x40\n      mstore\n      dup1\n        /* \"contracts/proposal.sol\":958:969  _proposalId */\n      dup6\n        /* \"contracts/proposal.sol\":949:1028  Proposal(_proposalId, _proposalStatus, _proposalCreator, _proposalNumOfOptions) */\n      dup2\n      mstore\n      0x20\n      add\n        /* \"contracts/proposal.sol\":971:986  _proposalStatus */\n      dup5\n        /* \"contracts/proposal.sol\":949:1028  Proposal(_proposalId, _proposalStatus, _proposalCreator, _proposalNumOfOptions) */\n      dup2\n      mstore\n      0x20\n      add\n        /* \"contracts/proposal.sol\":988:1004  _proposalCreator */\n      dup4\n        /* \"contracts/proposal.sol\":949:1028  Proposal(_proposalId, _proposalStatus, _proposalCreator, _proposalNumOfOptions) */\n      0xffffffffffffffffffffffffffffffffffffffff\n      and\n      dup2\n      mstore\n      0x20\n      add\n        /* \"contracts/proposal.sol\":1006:1027  _proposalNumOfOptions */\n      dup3\n        /* \"contracts/proposal.sol\":949:1028  Proposal(_proposalId, _proposalStatus, _proposalCreator, _proposalNumOfOptions) */\n      dup2\n      mstore\n      pop\n        /* \"contracts/proposal.sol\":922:931  proposals */\n      0x00\n        /* \"contracts/proposal.sol\":922:946  proposals[proposalCount] */\n      dup1\n        /* \"contracts/proposal.sol\":932:945  proposalCount */\n      sload(0x01)\n        /* \"contracts/proposal.sol\":922:946  proposals[proposalCount] */\n      dup2\n      mstore\n      0x20\n      add\n      swap1\n      dup2\n      mstore\n      0x20\n      add\n      0x00\n      keccak256\n        /* \"contracts/proposal.sol\":922:1028  proposals[proposalCount] = Proposal(_proposalId, _proposalStatus, _proposalCreator, _proposalNumOfOptions) */\n      0x00\n      dup3\n      add\n      mload\n      dup2\n      0x00\n      add\n      sstore\n      0x20\n      dup3\n      add\n      mload\n      dup2\n      0x01\n      add\n      sstore\n      0x40\n      dup3\n      add\n      mload\n      dup2\n      0x02\n      add\n      exp(0x0100, 0x00)\n      dup2\n      sload\n      dup2\n      0xffffffffffffffffffffffffffffffffffffffff\n      mul\n      not\n      and\n      swap1\n      dup4\n      0xffffffffffffffffffffffffffffffffffffffff\n      and\n      mul\n      or\n      swap1\n      sstore\n      pop\n      0x60\n      dup3\n      add\n      mload\n      dup2\n      0x03\n      add\n      sstore\n      swap1\n      pop\n      pop\n        /* \"contracts/proposal.sol\":1039:1052  proposalCount */\n      0x01\n      0x00\n        /* \"contracts/proposal.sol\":1039:1054  proposalCount++ */\n      dup2\n      sload\n      dup1\n      swap3\n      swap2\n      swap1\n      0x01\n      add\n      swap2\n      swap1\n      pop\n      sstore\n      pop\n        /* \"contracts/proposal.sol\":789:1062  function addProposal(uint _proposalId, uint _proposalStatus, address _proposalCreator, uint _proposalNumOfOptions) public {\r... */\n      pop\n      pop\n      pop\n      pop\n      jump\t// out\n        /* \"contracts/proposal.sol\":615:640  uint public proposalCount */\n    tag_18:\n      sload(0x01)\n      dup2\n      jump\t// out\n        /* \"contracts/proposal.sol\":1070:1202  function getProposalStructure(uint _proposalId) public view returns(Proposal memory){\r... */\n    tag_23:\n        /* \"contracts/proposal.sol\":1138:1153  Proposal memory */\n      tag_27\n      tag_28\n      jump\t// in\n    tag_27:\n        /* \"contracts/proposal.sol\":1172:1181  proposals */\n      0x00\n        /* \"contracts/proposal.sol\":1172:1194  proposals[_proposalId] */\n      dup1\n        /* \"contracts/proposal.sol\":1182:1193  _proposalId */\n      dup4\n        /* \"contracts/proposal.sol\":1172:1194  proposals[_proposalId] */\n      dup2\n      mstore\n      0x20\n      add\n      swap1\n      dup2\n      mstore\n      0x20\n      add\n      0x00\n      keccak256\n        /* \"contracts/proposal.sol\":1165:1194  return proposals[_proposalId] */\n      mload(0x40)\n      dup1\n      0x80\n      add\n      0x40\n      mstore\n      swap1\n      dup2\n      0x00\n      dup3\n      add\n      sload\n      dup2\n      mstore\n      0x20\n      add\n      0x01\n      dup3\n      add\n      sload\n      dup2\n      mstore\n      0x20\n      add\n      0x02\n      dup3\n      add\n      0x00\n      swap1\n      sload\n      swap1\n      0x0100\n      exp\n      swap1\n      div\n      0xffffffffffffffffffffffffffffffffffffffff\n      and\n      0xffffffffffffffffffffffffffffffffffffffff\n      and\n      0xffffffffffffffffffffffffffffffffffffffff\n      and\n      dup2\n      mstore\n      0x20\n      add\n      0x03\n      dup3\n      add\n      sload\n      dup2\n      mstore\n      pop\n      pop\n      swap1\n      pop\n        /* \"contracts/proposal.sol\":1070:1202  function getProposalStructure(uint _proposalId) public view returns(Proposal memory){\r... */\n      swap2\n      swap1\n      pop\n      jump\t// out\n        /* \"contracts/proposal.sol\":139:1346  contract TestProposal {\r... */\n    tag_28:\n      mload(0x40)\n      dup1\n      0x80\n      add\n      0x40\n      mstore\n      dup1\n      0x00\n      dup2\n      mstore\n      0x20\n      add\n      0x00\n      dup2\n      mstore\n      0x20\n      add\n      and(0xffffffffffffffffffffffffffffffffffffffff, 0x00)\n      dup2\n      mstore\n      0x20\n      add\n      0x00\n      dup2\n      mstore\n      pop\n      swap1\n      jump\t// out\n        /* \"--CODEGEN--\":5:135   */\n    tag_31:\n      0x00\n        /* \"--CODEGEN--\":85:91   */\n      dup2\n        /* \"--CODEGEN--\":72:92   */\n      calldataload\n        /* \"--CODEGEN--\":63:92   */\n      swap1\n      pop\n        /* \"--CODEGEN--\":97:130   */\n      tag_33\n        /* \"--CODEGEN--\":124:129   */\n      dup2\n        /* \"--CODEGEN--\":97:130   */\n      jump(tag_34)\n    tag_33:\n        /* \"--CODEGEN--\":57:135   */\n      swap3\n      swap2\n      pop\n      pop\n      jump\n        /* \"--CODEGEN--\":142:272   */\n    tag_35:\n      0x00\n        /* \"--CODEGEN--\":222:228   */\n      dup2\n        /* \"--CODEGEN--\":209:229   */\n      calldataload\n        /* \"--CODEGEN--\":200:229   */\n      swap1\n      pop\n        /* \"--CODEGEN--\":234:267   */\n      tag_37\n        /* \"--CODEGEN--\":261:266   */\n      dup2\n        /* \"--CODEGEN--\":234:267   */\n      jump(tag_38)\n    tag_37:\n        /* \"--CODEGEN--\":194:272   */\n      swap3\n      swap2\n      pop\n      pop\n      jump\n        /* \"--CODEGEN--\":279:520   */\n    tag_9:\n      0x00\n        /* \"--CODEGEN--\":383:385   */\n      0x20\n        /* \"--CODEGEN--\":371:380   */\n      dup3\n        /* \"--CODEGEN--\":362:369   */\n      dup5\n        /* \"--CODEGEN--\":358:381   */\n      sub\n        /* \"--CODEGEN--\":354:386   */\n      slt\n        /* \"--CODEGEN--\":351:353   */\n      iszero\n      tag_40\n      jumpi\n        /* \"--CODEGEN--\":399:400   */\n      0x00\n        /* \"--CODEGEN--\":396:397   */\n      dup1\n        /* \"--CODEGEN--\":389:401   */\n      revert\n        /* \"--CODEGEN--\":351:353   */\n    tag_40:\n        /* \"--CODEGEN--\":434:435   */\n      0x00\n        /* \"--CODEGEN--\":451:504   */\n      tag_41\n        /* \"--CODEGEN--\":496:503   */\n      dup5\n        /* \"--CODEGEN--\":487:493   */\n      dup3\n        /* \"--CODEGEN--\":476:485   */\n      dup6\n        /* \"--CODEGEN--\":472:494   */\n      add\n        /* \"--CODEGEN--\":451:504   */\n      jump(tag_35)\n    tag_41:\n        /* \"--CODEGEN--\":441:504   */\n      swap2\n      pop\n        /* \"--CODEGEN--\":413:510   */\n      pop\n        /* \"--CODEGEN--\":345:520   */\n      swap3\n      swap2\n      pop\n      pop\n      jump\n        /* \"--CODEGEN--\":527:1144   */\n    tag_15:\n      0x00\n      dup1\n      0x00\n      dup1\n        /* \"--CODEGEN--\":682:685   */\n      0x80\n        /* \"--CODEGEN--\":670:679   */\n      dup6\n        /* \"--CODEGEN--\":661:668   */\n      dup8\n        /* \"--CODEGEN--\":657:680   */\n      sub\n        /* \"--CODEGEN--\":653:686   */\n      slt\n        /* \"--CODEGEN--\":650:652   */\n      iszero\n      tag_43\n      jumpi\n        /* \"--CODEGEN--\":699:700   */\n      0x00\n        /* \"--CODEGEN--\":696:697   */\n      dup1\n        /* \"--CODEGEN--\":689:701   */\n      revert\n        /* \"--CODEGEN--\":650:652   */\n    tag_43:\n        /* \"--CODEGEN--\":734:735   */\n      0x00\n        /* \"--CODEGEN--\":751:804   */\n      tag_44\n        /* \"--CODEGEN--\":796:803   */\n      dup8\n        /* \"--CODEGEN--\":787:793   */\n      dup3\n        /* \"--CODEGEN--\":776:785   */\n      dup9\n        /* \"--CODEGEN--\":772:794   */\n      add\n        /* \"--CODEGEN--\":751:804   */\n      jump(tag_35)\n    tag_44:\n        /* \"--CODEGEN--\":741:804   */\n      swap5\n      pop\n        /* \"--CODEGEN--\":713:810   */\n      pop\n        /* \"--CODEGEN--\":841:843   */\n      0x20\n        /* \"--CODEGEN--\":859:912   */\n      tag_45\n        /* \"--CODEGEN--\":904:911   */\n      dup8\n        /* \"--CODEGEN--\":895:901   */\n      dup3\n        /* \"--CODEGEN--\":884:893   */\n      dup9\n        /* \"--CODEGEN--\":880:902   */\n      add\n        /* \"--CODEGEN--\":859:912   */\n      jump(tag_35)\n    tag_45:\n        /* \"--CODEGEN--\":849:912   */\n      swap4\n      pop\n        /* \"--CODEGEN--\":820:918   */\n      pop\n        /* \"--CODEGEN--\":949:951   */\n      0x40\n        /* \"--CODEGEN--\":967:1020   */\n      tag_46\n        /* \"--CODEGEN--\":1012:1019   */\n      dup8\n        /* \"--CODEGEN--\":1003:1009   */\n      dup3\n        /* \"--CODEGEN--\":992:1001   */\n      dup9\n        /* \"--CODEGEN--\":988:1010   */\n      add\n        /* \"--CODEGEN--\":967:1020   */\n      jump(tag_31)\n    tag_46:\n        /* \"--CODEGEN--\":957:1020   */\n      swap3\n      pop\n        /* \"--CODEGEN--\":928:1026   */\n      pop\n        /* \"--CODEGEN--\":1057:1059   */\n      0x60\n        /* \"--CODEGEN--\":1075:1128   */\n      tag_47\n        /* \"--CODEGEN--\":1120:1127   */\n      dup8\n        /* \"--CODEGEN--\":1111:1117   */\n      dup3\n        /* \"--CODEGEN--\":1100:1109   */\n      dup9\n        /* \"--CODEGEN--\":1096:1118   */\n      add\n        /* \"--CODEGEN--\":1075:1128   */\n      jump(tag_35)\n    tag_47:\n        /* \"--CODEGEN--\":1065:1128   */\n      swap2\n      pop\n        /* \"--CODEGEN--\":1036:1134   */\n      pop\n        /* \"--CODEGEN--\":644:1144   */\n      swap3\n      swap6\n      swap2\n      swap5\n      pop\n      swap3\n      pop\n      jump\n        /* \"--CODEGEN--\":1151:1254   */\n    tag_48:\n        /* \"--CODEGEN--\":1224:1248   */\n      tag_50\n        /* \"--CODEGEN--\":1242:1247   */\n      dup2\n        /* \"--CODEGEN--\":1224:1248   */\n      jump(tag_51)\n    tag_50:\n        /* \"--CODEGEN--\":1219:1222   */\n      dup3\n        /* \"--CODEGEN--\":1212:1249   */\n      mstore\n        /* \"--CODEGEN--\":1206:1254   */\n      pop\n      pop\n      jump\n        /* \"--CODEGEN--\":1261:1374   */\n    tag_52:\n        /* \"--CODEGEN--\":1344:1368   */\n      tag_54\n        /* \"--CODEGEN--\":1362:1367   */\n      dup2\n        /* \"--CODEGEN--\":1344:1368   */\n      jump(tag_51)\n    tag_54:\n        /* \"--CODEGEN--\":1339:1342   */\n      dup3\n        /* \"--CODEGEN--\":1332:1369   */\n      mstore\n        /* \"--CODEGEN--\":1326:1374   */\n      pop\n      pop\n      jump\n        /* \"--CODEGEN--\":1448:2273   */\n    tag_55:\n        /* \"--CODEGEN--\":1589:1593   */\n      0x80\n        /* \"--CODEGEN--\":1584:1587   */\n      dup3\n        /* \"--CODEGEN--\":1580:1594   */\n      add\n        /* \"--CODEGEN--\":1678:1682   */\n      0x00\n        /* \"--CODEGEN--\":1671:1676   */\n      dup3\n        /* \"--CODEGEN--\":1667:1683   */\n      add\n        /* \"--CODEGEN--\":1661:1684   */\n      mload\n        /* \"--CODEGEN--\":1690:1753   */\n      tag_57\n        /* \"--CODEGEN--\":1747:1751   */\n      0x00\n        /* \"--CODEGEN--\":1742:1745   */\n      dup6\n        /* \"--CODEGEN--\":1738:1752   */\n      add\n        /* \"--CODEGEN--\":1724:1736   */\n      dup3\n        /* \"--CODEGEN--\":1690:1753   */\n      jump(tag_58)\n    tag_57:\n        /* \"--CODEGEN--\":1609:1759   */\n      pop\n        /* \"--CODEGEN--\":1842:1846   */\n      0x20\n        /* \"--CODEGEN--\":1835:1840   */\n      dup3\n        /* \"--CODEGEN--\":1831:1847   */\n      add\n        /* \"--CODEGEN--\":1825:1848   */\n      mload\n        /* \"--CODEGEN--\":1854:1917   */\n      tag_59\n        /* \"--CODEGEN--\":1911:1915   */\n      0x20\n        /* \"--CODEGEN--\":1906:1909   */\n      dup6\n        /* \"--CODEGEN--\":1902:1916   */\n      add\n        /* \"--CODEGEN--\":1888:1900   */\n      dup3\n        /* \"--CODEGEN--\":1854:1917   */\n      jump(tag_58)\n    tag_59:\n        /* \"--CODEGEN--\":1769:1923   */\n      pop\n        /* \"--CODEGEN--\":2007:2011   */\n      0x40\n        /* \"--CODEGEN--\":2000:2005   */\n      dup3\n        /* \"--CODEGEN--\":1996:2012   */\n      add\n        /* \"--CODEGEN--\":1990:2013   */\n      mload\n        /* \"--CODEGEN--\":2019:2082   */\n      tag_60\n        /* \"--CODEGEN--\":2076:2080   */\n      0x40\n        /* \"--CODEGEN--\":2071:2074   */\n      dup6\n        /* \"--CODEGEN--\":2067:2081   */\n      add\n        /* \"--CODEGEN--\":2053:2065   */\n      dup3\n        /* \"--CODEGEN--\":2019:2082   */\n      jump(tag_48)\n    tag_60:\n        /* \"--CODEGEN--\":1933:2088   */\n      pop\n        /* \"--CODEGEN--\":2177:2181   */\n      0x60\n        /* \"--CODEGEN--\":2170:2175   */\n      dup3\n        /* \"--CODEGEN--\":2166:2182   */\n      add\n        /* \"--CODEGEN--\":2160:2183   */\n      mload\n        /* \"--CODEGEN--\":2189:2252   */\n      tag_61\n        /* \"--CODEGEN--\":2246:2250   */\n      0x60\n        /* \"--CODEGEN--\":2241:2244   */\n      dup6\n        /* \"--CODEGEN--\":2237:2251   */\n      add\n        /* \"--CODEGEN--\":2223:2235   */\n      dup3\n        /* \"--CODEGEN--\":2189:2252   */\n      jump(tag_58)\n    tag_61:\n        /* \"--CODEGEN--\":2098:2258   */\n      pop\n        /* \"--CODEGEN--\":1562:2273   */\n      pop\n      pop\n      pop\n      jump\n        /* \"--CODEGEN--\":2280:2383   */\n    tag_58:\n        /* \"--CODEGEN--\":2353:2377   */\n      tag_63\n        /* \"--CODEGEN--\":2371:2376   */\n      dup2\n        /* \"--CODEGEN--\":2353:2377   */\n      jump(tag_64)\n    tag_63:\n        /* \"--CODEGEN--\":2348:2351   */\n      dup3\n        /* \"--CODEGEN--\":2341:2378   */\n      mstore\n        /* \"--CODEGEN--\":2335:2383   */\n      pop\n      pop\n      jump\n        /* \"--CODEGEN--\":2390:2503   */\n    tag_65:\n        /* \"--CODEGEN--\":2473:2497   */\n      tag_67\n        /* \"--CODEGEN--\":2491:2496   */\n      dup2\n        /* \"--CODEGEN--\":2473:2497   */\n      jump(tag_64)\n    tag_67:\n        /* \"--CODEGEN--\":2468:2471   */\n      dup3\n        /* \"--CODEGEN--\":2461:2498   */\n      mstore\n        /* \"--CODEGEN--\":2455:2503   */\n      pop\n      pop\n      jump\n        /* \"--CODEGEN--\":2510:2820   */\n    tag_25:\n      0x00\n        /* \"--CODEGEN--\":2676:2679   */\n      0x80\n        /* \"--CODEGEN--\":2665:2674   */\n      dup3\n        /* \"--CODEGEN--\":2661:2680   */\n      add\n        /* \"--CODEGEN--\":2653:2680   */\n      swap1\n      pop\n        /* \"--CODEGEN--\":2691:2810   */\n      tag_69\n        /* \"--CODEGEN--\":2807:2808   */\n      0x00\n        /* \"--CODEGEN--\":2796:2805   */\n      dup4\n        /* \"--CODEGEN--\":2792:2809   */\n      add\n        /* \"--CODEGEN--\":2783:2789   */\n      dup5\n        /* \"--CODEGEN--\":2691:2810   */\n      jump(tag_55)\n    tag_69:\n        /* \"--CODEGEN--\":2647:2820   */\n      swap3\n      swap2\n      pop\n      pop\n      jump\n        /* \"--CODEGEN--\":2827:3040   */\n    tag_20:\n      0x00\n        /* \"--CODEGEN--\":2945:2947   */\n      0x20\n        /* \"--CODEGEN--\":2934:2943   */\n      dup3\n        /* \"--CODEGEN--\":2930:2948   */\n      add\n        /* \"--CODEGEN--\":2922:2948   */\n      swap1\n      pop\n        /* \"--CODEGEN--\":2959:3030   */\n      tag_71\n        /* \"--CODEGEN--\":3027:3028   */\n      0x00\n        /* \"--CODEGEN--\":3016:3025   */\n      dup4\n        /* \"--CODEGEN--\":3012:3029   */\n      add\n        /* \"--CODEGEN--\":3003:3009   */\n      dup5\n        /* \"--CODEGEN--\":2959:3030   */\n      jump(tag_65)\n    tag_71:\n        /* \"--CODEGEN--\":2916:3040   */\n      swap3\n      swap2\n      pop\n      pop\n      jump\n        /* \"--CODEGEN--\":3047:3594   */\n    tag_12:\n      0x00\n        /* \"--CODEGEN--\":3249:3252   */\n      0x80\n        /* \"--CODEGEN--\":3238:3247   */\n      dup3\n        /* \"--CODEGEN--\":3234:3253   */\n      add\n        /* \"--CODEGEN--\":3226:3253   */\n      swap1\n      pop\n        /* \"--CODEGEN--\":3264:3335   */\n      tag_73\n        /* \"--CODEGEN--\":3332:3333   */\n      0x00\n        /* \"--CODEGEN--\":3321:3330   */\n      dup4\n        /* \"--CODEGEN--\":3317:3334   */\n      add\n        /* \"--CODEGEN--\":3308:3314   */\n      dup8\n        /* \"--CODEGEN--\":3264:3335   */\n      jump(tag_65)\n    tag_73:\n        /* \"--CODEGEN--\":3346:3418   */\n      tag_74\n        /* \"--CODEGEN--\":3414:3416   */\n      0x20\n        /* \"--CODEGEN--\":3403:3412   */\n      dup4\n        /* \"--CODEGEN--\":3399:3417   */\n      add\n        /* \"--CODEGEN--\":3390:3396   */\n      dup7\n        /* \"--CODEGEN--\":3346:3418   */\n      jump(tag_65)\n    tag_74:\n        /* \"--CODEGEN--\":3429:3501   */\n      tag_75\n        /* \"--CODEGEN--\":3497:3499   */\n      0x40\n        /* \"--CODEGEN--\":3486:3495   */\n      dup4\n        /* \"--CODEGEN--\":3482:3500   */\n      add\n        /* \"--CODEGEN--\":3473:3479   */\n      dup6\n        /* \"--CODEGEN--\":3429:3501   */\n      jump(tag_52)\n    tag_75:\n        /* \"--CODEGEN--\":3512:3584   */\n      tag_76\n        /* \"--CODEGEN--\":3580:3582   */\n      0x60\n        /* \"--CODEGEN--\":3569:3578   */\n      dup4\n        /* \"--CODEGEN--\":3565:3583   */\n      add\n        /* \"--CODEGEN--\":3556:3562   */\n      dup5\n        /* \"--CODEGEN--\":3512:3584   */\n      jump(tag_65)\n    tag_76:\n        /* \"--CODEGEN--\":3220:3594   */\n      swap6\n      swap5\n      pop\n      pop\n      pop\n      pop\n      pop\n      jump\n        /* \"--CODEGEN--\":3601:3692   */\n    tag_51:\n      0x00\n        /* \"--CODEGEN--\":3663:3687   */\n      tag_78\n        /* \"--CODEGEN--\":3681:3686   */\n      dup3\n        /* \"--CODEGEN--\":3663:3687   */\n      jump(tag_79)\n    tag_78:\n        /* \"--CODEGEN--\":3652:3687   */\n      swap1\n      pop\n        /* \"--CODEGEN--\":3646:3692   */\n      swap2\n      swap1\n      pop\n      jump\n        /* \"--CODEGEN--\":3699:3820   */\n    tag_79:\n      0x00\n        /* \"--CODEGEN--\":3772:3814   */\n      0xffffffffffffffffffffffffffffffffffffffff\n        /* \"--CODEGEN--\":3765:3770   */\n      dup3\n        /* \"--CODEGEN--\":3761:3815   */\n      and\n        /* \"--CODEGEN--\":3750:3815   */\n      swap1\n      pop\n        /* \"--CODEGEN--\":3744:3820   */\n      swap2\n      swap1\n      pop\n      jump\n        /* \"--CODEGEN--\":3827:3899   */\n    tag_64:\n      0x00\n        /* \"--CODEGEN--\":3889:3894   */\n      dup2\n        /* \"--CODEGEN--\":3878:3894   */\n      swap1\n      pop\n        /* \"--CODEGEN--\":3872:3899   */\n      swap2\n      swap1\n      pop\n      jump\n        /* \"--CODEGEN--\":3906:4023   */\n    tag_34:\n        /* \"--CODEGEN--\":3975:3999   */\n      tag_83\n        /* \"--CODEGEN--\":3993:3998   */\n      dup2\n        /* \"--CODEGEN--\":3975:3999   */\n      jump(tag_51)\n    tag_83:\n        /* \"--CODEGEN--\":3968:3973   */\n      dup2\n        /* \"--CODEGEN--\":3965:4000   */\n      eq\n        /* \"--CODEGEN--\":3955:3957   */\n      tag_84\n      jumpi\n        /* \"--CODEGEN--\":4014:4015   */\n      0x00\n        /* \"--CODEGEN--\":4011:4012   */\n      dup1\n        /* \"--CODEGEN--\":4004:4016   */\n      revert\n        /* \"--CODEGEN--\":3955:3957   */\n    tag_84:\n        /* \"--CODEGEN--\":3949:4023   */\n      pop\n      jump\n        /* \"--CODEGEN--\":4030:4147   */\n    tag_38:\n        /* \"--CODEGEN--\":4099:4123   */\n      tag_86\n        /* \"--CODEGEN--\":4117:4122   */\n      dup2\n        /* \"--CODEGEN--\":4099:4123   */\n      jump(tag_64)\n    tag_86:\n        /* \"--CODEGEN--\":4092:4097   */\n      dup2\n        /* \"--CODEGEN--\":4089:4124   */\n      eq\n        /* \"--CODEGEN--\":4079:4081   */\n      tag_87\n      jumpi\n        /* \"--CODEGEN--\":4138:4139   */\n      0x00\n        /* \"--CODEGEN--\":4135:4136   */\n      dup1\n        /* \"--CODEGEN--\":4128:4140   */\n      revert\n        /* \"--CODEGEN--\":4079:4081   */\n    tag_87:\n        /* \"--CODEGEN--\":4073:4147   */\n      pop\n      jump\n\n    auxdata: 0xa26469706673582212204c9b76f598fbcf106bd42d982f5d5805b12e0dacea7114b5483857511670f60464736f6c63430006000033\n}\n",
				"bytecode": {
					"linkReferences": {},
					"object": "608060405234801561001057600080fd5b50600060018190555061004160018073b5dea2661dfa4b8f0aae8bc1f583369d927c3b06600361004660201b60201c565b610111565b60405180608001604052808581526020018481526020018373ffffffffffffffffffffffffffffffffffffffff168152602001828152506000806001548152602001908152602001600020600082015181600001556020820151816001015560408201518160020160006101000a81548173ffffffffffffffffffffffffffffffffffffffff021916908373ffffffffffffffffffffffffffffffffffffffff1602179055506060820151816003015590505060016000815480929190600101919050555050505050565b61054f806101206000396000f3fe608060405234801561001057600080fd5b506004361061004c5760003560e01c8063013cf08b14610051578063cae455ee14610084578063da35c664146100a0578063e9d6c6da146100be575b600080fd5b61006b60048036036100669190810190610317565b6100ee565b60405161007b949392919061046a565b60405180910390f35b61009e60048036036100999190810190610340565b61013e565b005b6100a8610209565b6040516100b5919061044f565b60405180910390f35b6100d860048036036100d39190810190610317565b61020f565b6040516100e59190610434565b60405180910390f35b60006020528060005260406000206000915090508060000154908060010154908060020160009054906101000a900473ffffffffffffffffffffffffffffffffffffffff16908060030154905084565b60405180608001604052808581526020018481526020018373ffffffffffffffffffffffffffffffffffffffff168152602001828152506000806001548152602001908152602001600020600082015181600001556020820151816001015560408201518160020160006101000a81548173ffffffffffffffffffffffffffffffffffffffff021916908373ffffffffffffffffffffffffffffffffffffffff1602179055506060820151816003015590505060016000815480929190600101919050555050505050565b60015481565b6102176102af565b60008083815260200190815260200160002060405180608001604052908160008201548152602001600182015481526020016002820160009054906101000a900473ffffffffffffffffffffffffffffffffffffffff1673ffffffffffffffffffffffffffffffffffffffff1673ffffffffffffffffffffffffffffffffffffffff1681526020016003820154815250509050919050565b60405180608001604052806000815260200160008152602001600073ffffffffffffffffffffffffffffffffffffffff168152602001600081525090565b6000813590506102fc816104eb565b92915050565b60008135905061031181610502565b92915050565b60006020828403121561032957600080fd5b600061033784828501610302565b91505092915050565b6000806000806080858703121561035657600080fd5b600061036487828801610302565b945050602061037587828801610302565b9350506040610386878288016102ed565b925050606061039787828801610302565b91505092959194509250565b6103ac816104af565b82525050565b6103bb816104af565b82525050565b6080820160008201516103d76000850182610416565b5060208201516103ea6020850182610416565b5060408201516103fd60408501826103a3565b5060608201516104106060850182610416565b50505050565b61041f816104e1565b82525050565b61042e816104e1565b82525050565b600060808201905061044960008301846103c1565b92915050565b60006020820190506104646000830184610425565b92915050565b600060808201905061047f6000830187610425565b61048c6020830186610425565b61049960408301856103b2565b6104a66060830184610425565b95945050505050565b60006104ba826104c1565b9050919050565b600073ffffffffffffffffffffffffffffffffffffffff82169050919050565b6000819050919050565b6104f4816104af565b81146104ff57600080fd5b50565b61050b816104e1565b811461051657600080fd5b5056fea26469706673582212204c9b76f598fbcf106bd42d982f5d5805b12e0dacea7114b5483857511670f60464736f6c63430006000033",
					"opcodes": "PUSH1 0x80 PUSH1 0x40 MSTORE CALLVALUE DUP1 ISZERO PUSH2 0x10 JUMPI PUSH1 0x0 DUP1 REVERT JUMPDEST POP PUSH1 0x0 PUSH1 0x1 DUP2 SWAP1 SSTORE POP PUSH2 0x41 PUSH1 0x1 DUP1 PUSH20 0xB5DEA2661DFA4B8F0AAE8BC1F583369D927C3B06 PUSH1 0x3 PUSH2 0x46 PUSH1 0x20 SHL PUSH1 0x20 SHR JUMP JUMPDEST PUSH2 0x111 JUMP JUMPDEST PUSH1 0x40 MLOAD DUP1 PUSH1 0x80 ADD PUSH1 0x40 MSTORE DUP1 DUP6 DUP2 MSTORE PUSH1 0x20 ADD DUP5 DUP2 MSTORE PUSH1 0x20 ADD DUP4 PUSH20 0xFFFFFFFFFFFFFFFFFFFFFFFFFFFFFFFFFFFFFFFF AND DUP2 MSTORE PUSH1 0x20 ADD DUP3 DUP2 MSTORE POP PUSH1 0x0 DUP1 PUSH1 0x1 SLOAD DUP2 MSTORE PUSH1 0x20 ADD SWAP1 DUP2 MSTORE PUSH1 0x20 ADD PUSH1 0x0 KECCAK256 PUSH1 0x0 DUP3 ADD MLOAD DUP2 PUSH1 0x0 ADD SSTORE PUSH1 0x20 DUP3 ADD MLOAD DUP2 PUSH1 0x1 ADD SSTORE PUSH1 0x40 DUP3 ADD MLOAD DUP2 PUSH1 0x2 ADD PUSH1 0x0 PUSH2 0x100 EXP DUP2 SLOAD DUP2 PUSH20 0xFFFFFFFFFFFFFFFFFFFFFFFFFFFFFFFFFFFFFFFF MUL NOT AND SWAP1 DUP4 PUSH20 0xFFFFFFFFFFFFFFFFFFFFFFFFFFFFFFFFFFFFFFFF AND MUL OR SWAP1 SSTORE POP PUSH1 0x60 DUP3 ADD MLOAD DUP2 PUSH1 0x3 ADD SSTORE SWAP1 POP POP PUSH1 0x1 PUSH1 0x0 DUP2 SLOAD DUP1 SWAP3 SWAP2 SWAP1 PUSH1 0x1 ADD SWAP2 SWAP1 POP SSTORE POP POP POP POP POP JUMP JUMPDEST PUSH2 0x54F DUP1 PUSH2 0x120 PUSH1 0x0 CODECOPY PUSH1 0x0 RETURN INVALID PUSH1 0x80 PUSH1 0x40 MSTORE CALLVALUE DUP1 ISZERO PUSH2 0x10 JUMPI PUSH1 0x0 DUP1 REVERT JUMPDEST POP PUSH1 0x4 CALLDATASIZE LT PUSH2 0x4C JUMPI PUSH1 0x0 CALLDATALOAD PUSH1 0xE0 SHR DUP1 PUSH4 0x13CF08B EQ PUSH2 0x51 JUMPI DUP1 PUSH4 0xCAE455EE EQ PUSH2 0x84 JUMPI DUP1 PUSH4 0xDA35C664 EQ PUSH2 0xA0 JUMPI DUP1 PUSH4 0xE9D6C6DA EQ PUSH2 0xBE JUMPI JUMPDEST PUSH1 0x0 DUP1 REVERT JUMPDEST PUSH2 0x6B PUSH1 0x4 DUP1 CALLDATASIZE SUB PUSH2 0x66 SWAP2 SWAP1 DUP2 ADD SWAP1 PUSH2 0x317 JUMP JUMPDEST PUSH2 0xEE JUMP JUMPDEST PUSH1 0x40 MLOAD PUSH2 0x7B SWAP5 SWAP4 SWAP3 SWAP2 SWAP1 PUSH2 0x46A JUMP JUMPDEST PUSH1 0x40 MLOAD DUP1 SWAP2 SUB SWAP1 RETURN JUMPDEST PUSH2 0x9E PUSH1 0x4 DUP1 CALLDATASIZE SUB PUSH2 0x99 SWAP2 SWAP1 DUP2 ADD SWAP1 PUSH2 0x340 JUMP JUMPDEST PUSH2 0x13E JUMP JUMPDEST STOP JUMPDEST PUSH2 0xA8 PUSH2 0x209 JUMP JUMPDEST PUSH1 0x40 MLOAD PUSH2 0xB5 SWAP2 SWAP1 PUSH2 0x44F JUMP JUMPDEST PUSH1 0x40 MLOAD DUP1 SWAP2 SUB SWAP1 RETURN JUMPDEST PUSH2 0xD8 PUSH1 0x4 DUP1 CALLDATASIZE SUB PUSH2 0xD3 SWAP2 SWAP1 DUP2 ADD SWAP1 PUSH2 0x317 JUMP JUMPDEST PUSH2 0x20F JUMP JUMPDEST PUSH1 0x40 MLOAD PUSH2 0xE5 SWAP2 SWAP1 PUSH2 0x434 JUMP JUMPDEST PUSH1 0x40 MLOAD DUP1 SWAP2 SUB SWAP1 RETURN JUMPDEST PUSH1 0x0 PUSH1 0x20 MSTORE DUP1 PUSH1 0x0 MSTORE PUSH1 0x40 PUSH1 0x0 KECCAK256 PUSH1 0x0 SWAP2 POP SWAP1 POP DUP1 PUSH1 0x0 ADD SLOAD SWAP1 DUP1 PUSH1 0x1 ADD SLOAD SWAP1 DUP1 PUSH1 0x2 ADD PUSH1 0x0 SWAP1 SLOAD SWAP1 PUSH2 0x100 EXP SWAP1 DIV PUSH20 0xFFFFFFFFFFFFFFFFFFFFFFFFFFFFFFFFFFFFFFFF AND SWAP1 DUP1 PUSH1 0x3 ADD SLOAD SWAP1 POP DUP5 JUMP JUMPDEST PUSH1 0x40 MLOAD DUP1 PUSH1 0x80 ADD PUSH1 0x40 MSTORE DUP1 DUP6 DUP2 MSTORE PUSH1 0x20 ADD DUP5 DUP2 MSTORE PUSH1 0x20 ADD DUP4 PUSH20 0xFFFFFFFFFFFFFFFFFFFFFFFFFFFFFFFFFFFFFFFF AND DUP2 MSTORE PUSH1 0x20 ADD DUP3 DUP2 MSTORE POP PUSH1 0x0 DUP1 PUSH1 0x1 SLOAD DUP2 MSTORE PUSH1 0x20 ADD SWAP1 DUP2 MSTORE PUSH1 0x20 ADD PUSH1 0x0 KECCAK256 PUSH1 0x0 DUP3 ADD MLOAD DUP2 PUSH1 0x0 ADD SSTORE PUSH1 0x20 DUP3 ADD MLOAD DUP2 PUSH1 0x1 ADD SSTORE PUSH1 0x40 DUP3 ADD MLOAD DUP2 PUSH1 0x2 ADD PUSH1 0x0 PUSH2 0x100 EXP DUP2 SLOAD DUP2 PUSH20 0xFFFFFFFFFFFFFFFFFFFFFFFFFFFFFFFFFFFFFFFF MUL NOT AND SWAP1 DUP4 PUSH20 0xFFFFFFFFFFFFFFFFFFFFFFFFFFFFFFFFFFFFFFFF AND MUL OR SWAP1 SSTORE POP PUSH1 0x60 DUP3 ADD MLOAD DUP2 PUSH1 0x3 ADD SSTORE SWAP1 POP POP PUSH1 0x1 PUSH1 0x0 DUP2 SLOAD DUP1 SWAP3 SWAP2 SWAP1 PUSH1 0x1 ADD SWAP2 SWAP1 POP SSTORE POP POP POP POP POP JUMP JUMPDEST PUSH1 0x1 SLOAD DUP2 JUMP JUMPDEST PUSH2 0x217 PUSH2 0x2AF JUMP JUMPDEST PUSH1 0x0 DUP1 DUP4 DUP2 MSTORE PUSH1 0x20 ADD SWAP1 DUP2 MSTORE PUSH1 0x20 ADD PUSH1 0x0 KECCAK256 PUSH1 0x40 MLOAD DUP1 PUSH1 0x80 ADD PUSH1 0x40 MSTORE SWAP1 DUP2 PUSH1 0x0 DUP3 ADD SLOAD DUP2 MSTORE PUSH1 0x20 ADD PUSH1 0x1 DUP3 ADD SLOAD DUP2 MSTORE PUSH1 0x20 ADD PUSH1 0x2 DUP3 ADD PUSH1 0x0 SWAP1 SLOAD SWAP1 PUSH2 0x100 EXP SWAP1 DIV PUSH20 0xFFFFFFFFFFFFFFFFFFFFFFFFFFFFFFFFFFFFFFFF AND PUSH20 0xFFFFFFFFFFFFFFFFFFFFFFFFFFFFFFFFFFFFFFFF AND PUSH20 0xFFFFFFFFFFFFFFFFFFFFFFFFFFFFFFFFFFFFFFFF AND DUP2 MSTORE PUSH1 0x20 ADD PUSH1 0x3 DUP3 ADD SLOAD DUP2 MSTORE POP POP SWAP1 POP SWAP2 SWAP1 POP JUMP JUMPDEST PUSH1 0x40 MLOAD DUP1 PUSH1 0x80 ADD PUSH1 0x40 MSTORE DUP1 PUSH1 0x0 DUP2 MSTORE PUSH1 0x20 ADD PUSH1 0x0 DUP2 MSTORE PUSH1 0x20 ADD PUSH1 0x0 PUSH20 0xFFFFFFFFFFFFFFFFFFFFFFFFFFFFFFFFFFFFFFFF AND DUP2 MSTORE PUSH1 0x20 ADD PUSH1 0x0 DUP2 MSTORE POP SWAP1 JUMP JUMPDEST PUSH1 0x0 DUP2 CALLDATALOAD SWAP1 POP PUSH2 0x2FC DUP2 PUSH2 0x4EB JUMP JUMPDEST SWAP3 SWAP2 POP POP JUMP JUMPDEST PUSH1 0x0 DUP2 CALLDATALOAD SWAP1 POP PUSH2 0x311 DUP2 PUSH2 0x502 JUMP JUMPDEST SWAP3 SWAP2 POP POP JUMP JUMPDEST PUSH1 0x0 PUSH1 0x20 DUP3 DUP5 SUB SLT ISZERO PUSH2 0x329 JUMPI PUSH1 0x0 DUP1 REVERT JUMPDEST PUSH1 0x0 PUSH2 0x337 DUP5 DUP3 DUP6 ADD PUSH2 0x302 JUMP JUMPDEST SWAP2 POP POP SWAP3 SWAP2 POP POP JUMP JUMPDEST PUSH1 0x0 DUP1 PUSH1 0x0 DUP1 PUSH1 0x80 DUP6 DUP8 SUB SLT ISZERO PUSH2 0x356 JUMPI PUSH1 0x0 DUP1 REVERT JUMPDEST PUSH1 0x0 PUSH2 0x364 DUP8 DUP3 DUP9 ADD PUSH2 0x302 JUMP JUMPDEST SWAP5 POP POP PUSH1 0x20 PUSH2 0x375 DUP8 DUP3 DUP9 ADD PUSH2 0x302 JUMP JUMPDEST SWAP4 POP POP PUSH1 0x40 PUSH2 0x386 DUP8 DUP3 DUP9 ADD PUSH2 0x2ED JUMP JUMPDEST SWAP3 POP POP PUSH1 0x60 PUSH2 0x397 DUP8 DUP3 DUP9 ADD PUSH2 0x302 JUMP JUMPDEST SWAP2 POP POP SWAP3 SWAP6 SWAP2 SWAP5 POP SWAP3 POP JUMP JUMPDEST PUSH2 0x3AC DUP2 PUSH2 0x4AF JUMP JUMPDEST DUP3 MSTORE POP POP JUMP JUMPDEST PUSH2 0x3BB DUP2 PUSH2 0x4AF JUMP JUMPDEST DUP3 MSTORE POP POP JUMP JUMPDEST PUSH1 0x80 DUP3 ADD PUSH1 0x0 DUP3 ADD MLOAD PUSH2 0x3D7 PUSH1 0x0 DUP6 ADD DUP3 PUSH2 0x416 JUMP JUMPDEST POP PUSH1 0x20 DUP3 ADD MLOAD PUSH2 0x3EA PUSH1 0x20 DUP6 ADD DUP3 PUSH2 0x416 JUMP JUMPDEST POP PUSH1 0x40 DUP3 ADD MLOAD PUSH2 0x3FD PUSH1 0x40 DUP6 ADD DUP3 PUSH2 0x3A3 JUMP JUMPDEST POP PUSH1 0x60 DUP3 ADD MLOAD PUSH2 0x410 PUSH1 0x60 DUP6 ADD DUP3 PUSH2 0x416 JUMP JUMPDEST POP POP POP POP JUMP JUMPDEST PUSH2 0x41F DUP2 PUSH2 0x4E1 JUMP JUMPDEST DUP3 MSTORE POP POP JUMP JUMPDEST PUSH2 0x42E DUP2 PUSH2 0x4E1 JUMP JUMPDEST DUP3 MSTORE POP POP JUMP JUMPDEST PUSH1 0x0 PUSH1 0x80 DUP3 ADD SWAP1 POP PUSH2 0x449 PUSH1 0x0 DUP4 ADD DUP5 PUSH2 0x3C1 JUMP JUMPDEST SWAP3 SWAP2 POP POP JUMP JUMPDEST PUSH1 0x0 PUSH1 0x20 DUP3 ADD SWAP1 POP PUSH2 0x464 PUSH1 0x0 DUP4 ADD DUP5 PUSH2 0x425 JUMP JUMPDEST SWAP3 SWAP2 POP POP JUMP JUMPDEST PUSH1 0x0 PUSH1 0x80 DUP3 ADD SWAP1 POP PUSH2 0x47F PUSH1 0x0 DUP4 ADD DUP8 PUSH2 0x425 JUMP JUMPDEST PUSH2 0x48C PUSH1 0x20 DUP4 ADD DUP7 PUSH2 0x425 JUMP JUMPDEST PUSH2 0x499 PUSH1 0x40 DUP4 ADD DUP6 PUSH2 0x3B2 JUMP JUMPDEST PUSH2 0x4A6 PUSH1 0x60 DUP4 ADD DUP5 PUSH2 0x425 JUMP JUMPDEST SWAP6 SWAP5 POP POP POP POP POP JUMP JUMPDEST PUSH1 0x0 PUSH2 0x4BA DUP3 PUSH2 0x4C1 JUMP JUMPDEST SWAP1 POP SWAP2 SWAP1 POP JUMP JUMPDEST PUSH1 0x0 PUSH20 0xFFFFFFFFFFFFFFFFFFFFFFFFFFFFFFFFFFFFFFFF DUP3 AND SWAP1 POP SWAP2 SWAP1 POP JUMP JUMPDEST PUSH1 0x0 DUP2 SWAP1 POP SWAP2 SWAP1 POP JUMP JUMPDEST PUSH2 0x4F4 DUP2 PUSH2 0x4AF JUMP JUMPDEST DUP2 EQ PUSH2 0x4FF JUMPI PUSH1 0x0 DUP1 REVERT JUMPDEST POP JUMP JUMPDEST PUSH2 0x50B DUP2 PUSH2 0x4E1 JUMP JUMPDEST DUP2 EQ PUSH2 0x516 JUMPI PUSH1 0x0 DUP1 REVERT JUMPDEST POP JUMP INVALID LOG2 PUSH5 0x6970667358 0x22 SLT KECCAK256 0x4C SWAP12 PUSH23 0xF598FBCF106BD42D982F5D5805B12E0DACEA7114B54838 JUMPI MLOAD AND PUSH17 0xF60464736F6C6343000600003300000000 "
				},
				"gasEstimates": {
					"creation": {
						"codeDepositCost": "271800",
						"executionCost": "infinite",
						"totalCost": "infinite"
					},
					"external": {
						"addProposal(uint256,uint256,address,uint256)": "infinite",
						"getProposalStructure(uint256)": "infinite",
						"proposalCount()": "1151",
						"proposals(uint256)": "infinite"
					}
				},
				"methodIdentifiers": {
					"addProposal(uint256,uint256,address,uint256)": "cae455ee",
					"getProposalStructure(uint256)": "e9d6c6da",
					"proposalCount()": "da35c664",
					"proposals(uint256)": "013cf08b"
				}
			},
			"storageLayout": {
				"storage": [
					{
						"astId": 22,
						"contract": "contracts/proposal.sol:TestProposal",
						"label": "proposals",
						"offset": 0,
						"slot": "0",
						"type": "t_mapping(t_uint256,t_struct(Proposal)11_storage)"
					},
					{
						"astId": 28,
						"contract": "contracts/proposal.sol:TestProposal",
						"label": "proposalCount",
						"offset": 0,
						"slot": "1",
						"type": "t_uint256"
					}
				],
				"types": {
					"t_address": {
						"encoding": "inplace",
						"label": "address",
						"numberOfBytes": "20"
					},
					"t_mapping(t_uint256,t_struct(Proposal)11_storage)": {
						"encoding": "mapping",
						"key": "t_uint256",
						"label": "mapping(uint256 => struct TestProposal.Proposal)",
						"numberOfBytes": "32",
						"value": "t_struct(Proposal)11_storage"
					},
					"t_struct(Proposal)11_storage": {
						"encoding": "inplace",
						"label": "struct TestProposal.Proposal",
						"members": [
							{
								"astId": 4,
								"contract": "contracts/proposal.sol:TestProposal",
								"label": "proposalId",
								"offset": 0,
								"slot": "0",
								"type": "t_uint256"
							},
							{
								"astId": 6,
								"contract": "contracts/proposal.sol:TestProposal",
								"label": "proposalStatus",
								"offset": 0,
								"slot": "1",
								"type": "t_uint256"
							},
							{
								"astId": 8,
								"contract": "contracts/proposal.sol:TestProposal",
								"label": "proposalCreator",
								"offset": 0,
								"slot": "2",
								"type": "t_address"
							},
							{
								"astId": 10,
								"contract": "contracts/proposal.sol:TestProposal",
								"label": "proposalNumOfOptions",
								"offset": 0,
								"slot": "3",
								"type": "t_uint256"
							}
						],
						"numberOfBytes": "128"
					},
					"t_uint256": {
						"encoding": "inplace",
						"label": "uint256",
						"numberOfBytes": "32"
					}
				}
			},
			"userdoc": {
				"methods": {}
			}
		}
	}
}